


NCANON   BCD 02/25/69 1720.0    6878         00000
1     MAD PROGRAM LISTING ... ... ...                 FILE  NCANON   MAD            02/25/69    1714.1
-
                 ..   FUNCTION CANON.                                                                  LM00001
                 ..   REFORMAT CHARACTER STRINGS INTO                                                  LM00002
                 ..   CANONICAL FORM                                                                   LM00003
                 ..   AT PRESENT, THE ROUTINE JUST REFORMATS OVERSTRIKES                               LM00004
                 ..   BE WARNED THAT CANON DIDDLES WITH ITS SECOND ARGUMENT.                           LM00005
                 ..                                                                                    LM00006
                 ..   WRITTEN BY ROBERT MORRIS, JANUARY, 1966                                          LM00007
                 ..                                                                                    LM00008
                  EXTERNAL FUNCTION (LINE,SIZE,BUFSIZ)                                            *001 LM00009
                  NORMAL MODE IS INTEGER                                                          *002 LM00010
                  BOOLEAN RTN                                                                     *003 LM00011
                 ..                                                                                    LM00012
                  VECTOR VALUES BLANK  = 0040K                                                    *004 LM00013
                  VECTOR VALUES HTAB   = 0011K                                                    *005 LM00014
                  VECTOR VALUES NLINE  = 0012K                                                    *006 LM00015
                  VECTOR VALUES CR     = 0015K                                                    *007 LM00016
                  VECTOR VALUES BSPACE = 0010K                                                    *008 LM00017
                  VECTOR VALUES CRMASK = 7777K4                                                   *009 LM00018
                  VECTOR VALUES CHMASK = 777K                                                     *010 LM00019
                  VECTOR VALUES CRINCR = 1K4                                                      *011 LM00020
                 ..                                                                                    LM00021
                  ENTRY TO CANON.                                                                 *012 LM00022
                  WHENEVER SIZE .G. BUFSIZ .OR. SIZE .LE. 0, FUNCTION RETURN                      *013 LM00023
                  CARAGE = CRINCR                                                                 *014 LM00024
                  OUTCH = 0                                                                       *015 LM00025
                  RTN = 0B                                                                        *016 LM00026
                 ..                                                                                    LM00027
                  THROUGH LOOP, FOR INCHAR = 1,1, INCHAR .G. SIZE                                 *017 LM00028
                     WHENEVER LINE(INCHAR) .E. BSPACE                                             *018 LM00029
                        WHENEVER CARAGE .G. CRINCR, CARAGE = CARAGE - CRINCR                      *019 LM00030
                        TRANSFER TO LOOP                                                          *020 LM00031
                     OR WHENEVER LINE(INCHAR) .E. HTAB                                            *021 LM00032
                        CARAGE = ((((CARAGE-CRINCR)/CRINCR)/10)*10+11)*CRINCR                     *022 LM00033
                        TRANSFER TO LOOP                                                          *023 LM00034
                     OR WHENEVER LINE(INCHAR) .E. BLANK                                           *024 LM00035
                        TRANSFER TO LOOPA                                                         *025 LM00036
                     OR WHENEVER LINE(INCHAR) .E. CR                                              *026 LM00037
                        CARAGE = CRINCR                                                           *027 LM00038
                        TRANSFER TO LOOP                                                          *028 LM00039
                     OR WHENEVER LINE(INCHAR) .E. NLINE                                           *029 LM00040
                        RTN = 1B                                                                  *030 LM00041
                        TRANSFER TO LOOPON                                                        *031 LM00042
                     OTHERWISE                                                                    *032 LM00043
                        OUTCH = OUTCH + 1                                                         *033 LM00044
                        LINE(OUTCH) = LINE(INCHAR) .V. CARAGE                                     *034 LM00045
                 ..                                                                                    LM00046
                 ..                                                                                    LM00047
                  THROUGH SRTLP, FOR J = OUTCH,-1, J .LE. 1                                       *035 LM00048
                  WHENEVER LINE(J) .G. LINE(J-1)                                                  *036 LM00049
                     TRANSFER TO SRTOUT                                                           *037 LM00050
                  OTHERWISE                                                                       *038 LM00051
                     TEMP = LINE(J-1)                                                             *039 LM00052
                     LINE(J-1) = LINE(J)                                                          *040 LM00053
                     LINE(J) = TEMP                                                               *041 LM00054
      SRTLP       END OF CONDITIONAL                                                              *042 LM00055
      SRTOUT      CONTINUE                                                                        *043 LM00056
                 ..                                                                                    LM00057
                 ..                                                                                    LM00058
      LOOPA             CARAGE = CARAGE + CRINCR                                                  *044 LM00059
      LOOP           END OF CONDITIONAL                                                           *045 LM00060
      LOOPON      MAXC = CARAGE                                                                   *046 LM00061
                 ..                                                                                    LM00062
                 ..                                                                                    LM00063
                  WHENEVER OUTCH .E. 0                                                            *047 LM00064
                     WHENEVER RTN                                                                 *048 LM00065
                        SIZE = 1                                                                  *049 LM00066
                        LINE(1) = NLINE                                                           *050 LM00067
                     OTHERWISE                                                                    *051 LM00068
                        SIZE = 0                                                                  *052 LM00069
                     END OF CONDITIONAL                                                           *053 LM00070
                     FUNCTION RETURN                                                              *054 LM00071
                  END OF CONDITIONAL                                                              *055 LM00072
                  LINE(BUFSIZ) = LINE(OUTCH)                                                      *056 LM00073
                  J = BUFSIZ                                                                      *057 LM00074
                  THROUGH COPY, FOR I = OUTCH-1,-1, I .L. 1                                       *058 LM00075
                  WHENEVER LINE(I) .NE. LINE(I+1)                                                 *059 LM00076
                     J = J - 1                                                                    *060 LM00077
                     LINE(J) = LINE(I)                                                            *061 LM00078
      COPY        END OF CONDITIONAL                                                              *062 LM00079
                 ..                                                                                    LM00080
                 ..                                                                                    LM00081
                  STRING = 0                                                                      *063 LM00082
                  CARAGE = CRINCR                                                                 *064 LM00083
                 ..                                                                                    LM00084
                  THROUGH REFORM, FOR I = J,1, I .G. BUFSIZ                                       *065 LM00085
                     CHPOS = (LINE(I) .A. CRMASK)                                                 *066 LM00086
      RFMA        WHENEVER CARAGE .L. CHPOS                                                       *067 LM00087
                     STRING = STRING + 1                                                          *068 LM00088
                     LINE(STRING) = BLANK                                                         *069 LM00089
                     CARAGE = CARAGE + CRINCR                                                     *070 LM00090
                     TRANSFER TO RFMA                                                             *071 LM00091
      RFMB        OR WHENEVER CARAGE .G. CHPOS                                                    *072 LM00092
                     STRING = STRING + 1                                                          *073 LM00093
                     LINE(STRING) = BSPACE                                                        *074 LM00094
                     CARAGE = CARAGE - CRINCR                                                     *075 LM00095
                     TRANSFER TO RFMB                                                             *076 LM00096
                  OTHERWISE                                                                       *077 LM00097
                     STRING = STRING + 1                                                          *078 LM00098
                     LINE(STRING) = LINE(I) .A. CHMASK                                            *079 LM00099
                     CARAGE = CARAGE + CRINCR                                                     *080 LM00100
      REFORM      END OF CONDITIONAL                                                              *081 LM00101
                  WHENEVER RTN                                                                    *082 LM00102
                     STRING = STRING + 1                                                          *083 LM00103
                     LINE(STRING) = NLINE                                                         *084 LM00104
                  OTHERWISE                                                                       *085 LM00105
      BLPK           WHENEVER CARAGE .L. MAXC                                                     *086 LM00106
                        STRING = STRING + 1                                                       *087 LM00107
                        LINE(STRING) = BLANK                                                      *088 LM00108
                        CARAGE = CARAGE + CRINCR                                                  *089 LM00109
                        TRANSFER TO BLPK                                                          *090 LM00110
                     END OF CONDITIONAL                                                           *091 LM00111
                  END OF CONDITIONAL                                                              *092 LM00112
                 ..                                                                                    LM00113
                  SIZE = STRING                                                                   *093 LM00114
                  FUNCTION RETURN                                                                 *094 LM00115
                 ..                                                                                    LM00116
                  END OF FUNCTION                                                                 *095 LM00117
1MAD PROGRAM,TYPE NOV 1963      (ALL NUMBERS ARE OCTAL)
0TOTAL LOCATIONS   00533 TRANSFER VECTOR LENGTH  00001 PROGRAM BEGINS    00040
0 PROGRAM IS AN EXTERNAL FUNCTION.   THE FOLLOWING ARE ENTRIES
      CANON  00041   0
0VARIABLE STORAGE (A=ARRAY,C=COMMON,E=ERASABLE,DIGIT=MODE)
      BLANK  00011 A 1        COPY   00001   4        I      00023   1        NLINE  00026 A 1        RTN    00030   2
      BLPK   00002   4        CRINCR 00016 A 1        J      00024   1        OUTCH  00027   1        SRTLP  00001   4
      BSPACE 00012 A 1        CRMASK 00017 A 1        LOOPA  00003   4        REFORM 00001   4        SRTOUT 00010   4
      CARAGE 00013   1        CR     00020 A 1        LOOPON 00004   4        RFMA   00006   4        STRING 00031   1
      CHMASK 00014 A 1        HTAB   00021 A 1        LOOP   00005   4        RFMB   00007   4        TEMP   00032   1
      CHPOS  00015   1        INCHAR 00022   1        MAXC   00025   1
0FUNCTION DICTIONARY
      EXIT   00000   1
0ABSOLUTE CONSTANTS
 00036 +000000000013     00035 +000000000012     00033 +000000000000     00034 +000000000001     00037 +233000000000
0STATEMENT DICTIONARY
 00002 TXL -300431000425       00003 TXL -300240000235       00004 TXL -300243000241       00005 TXL -300241000240
 00006 TXL -300346000342       00007 TXL -300365000361       00010 TXL -300235000235
0PROGRAM
                 EXTERNAL FUNCTION (LINE,SIZE,BUFSIZ)                               001  LM00009
                 NORMAL MODE IS INTEGER                                             002  LM00010
                 BOOLEAN RTN                                                        003  LM00011
                 VECTOR VALUES BLANK  = 0040K                                       004  LM00013
 00011     +0 00000 0 00040
                 VECTOR VALUES HTAB   = 0011K                                       005  LM00014
 00021     +0 00000 0 00011
                 VECTOR VALUES NLINE  = 0012K                                       006  LM00015
 00026     +0 00000 0 00012
                 VECTOR VALUES CR     = 0015K                                       007  LM00016
 00020     +0 00000 0 00015
                 VECTOR VALUES BSPACE = 0010K                                       008  LM00017
 00012     +0 00000 0 00010
                 VECTOR VALUES CRMASK = 7777K4                                      009  LM00018
 00017     +0 00077 7 70000
                 VECTOR VALUES CHMASK = 777K                                        010  LM00019
 00014     +0 00000 0 00777
                 VECTOR VALUES CRINCR = 1K4                                         011  LM00020
 00016     +0 00000 0 10000
                 ENTRY TO CANON.                                                    012  LM00022
 00040 TRA +0 02000 0 00043    00041 SXA +0 63400 2 00450    00042 TSX +0 07400 2 00450
                 WHENEVER SIZE .G. BUFSIZ .OR. SIZE .LE. 0, F'N                     013  LM00023
 00043 CLA +0 50000 0 00024    00044 SUB +0 40200 0 00033    00045 TZE +0 10000 0 00053    00046 TMI -0 12000 0 00053
 00047 CLA +0 50000 0 00024    00050 SUB +0 40200 0 00024    00051 TZE +0 10000 0 00054    00052 TMI -0 12000 0 00054
 00053 TRA +0 02000 0 00525
                 CARAGE = CRINCR                                                    014  LM00024
 00054 CLA +0 50000 0 00016    00055 STO +0 60100 0 00013
                 OUTCH = 0                                                          015  LM00025
 00056 CLA +0 50000 0 00033    00057 STO +0 60100 0 00027
                 RTN = 0B                                                           016  LM00026
 00060 CLA +0 50000 0 00033    00061 STO +0 60100 0 00030
                 THROUGH LOOP, FOR INCHAR = 1,1, INCHAR .G. SIZE                    017  LM00028
 00062 CLA +0 50000 0 00034    00063 STO +0 60100 0 00022    00064 TRA +0 02000 0 00070    00065 CLA +0 50000 0 00022
 00066 ADD +0 40000 0 00034    00067 STO +0 60100 0 00022    00070 CLA +0 50000 0 00022    00071 SUB +0 40200 0 00024
 00072 TZE +0 10000 0 00074    00073 TPL +0 12000 0 00241
                    WHENEVER LINE(INCHAR) .E. BSPACE                                018  LM00029
 00074 LXA +0 53400 1 00022    00075 CLA +0 50000 1 00024    00076 SUB +0 40200 0 00012    00077 TNZ -0 10000 0 00111
                       WHENEVER CARAGE .G. CRINCR, CARAGE = CARAGE - CRINCR         019  LM00030
 00100 CLA +0 50000 0 00013    00101 SUB +0 40200 0 00016    00102 TZE +0 10000 0 00107    00103 TMI -0 12000 0 00107
 00104 CLA +0 50000 0 00013    00105 SUB +0 40200 0 00016    00106 STO +0 60100 0 00013
                       TRANSFER TO LOOP                                             020  LM00031
 00107 TRA +0 02000 0 00005
                    OR WHENEVER LINE(INCHAR) .E. HTAB                               021  LM00032
 00110 TRA +0 02000 0 00240    00111 LXA +0 53400 1 00022    00112 CLA +0 50000 1 00024    00113 SUB +0 40200 0 00021
 00114 TNZ -0 10000 0 00134
                       CARAGE = ((((CARAGE-CRINCR)/CRINCR)/10)*10+11)*CRINCR        022  LM00033
 00115 CLA +0 50000 0 00013    00116 SUB +0 40200 0 00016    00117 LRS +0 76500 0 00043    00120 DVP +0 22100 0 00016
 00121 PXD -0 75400 0 00000    00122 LLS +0 76300 0 00000    00123 DVP +0 22100 0 00035    00124 MPY +0 20000 0 00035
 00125 XCA +0 13100 0 00000    00126 ADD +0 40000 0 00036    00127 XCA +0 13100 0 00000    00130 MPY +0 20000 0 00016
 00131 STQ -0 60000 0 00013
                       TRANSFER TO LOOP                                             023  LM00034
 00132 TRA +0 02000 0 00005
                    OR WHENEVER LINE(INCHAR) .E. BLANK                              024  LM00035
 00133 TRA +0 02000 0 00240    00134 LXA +0 53400 1 00022    00135 CLA +0 50000 1 00024    00136 SUB +0 40200 0 00011
 00137 TNZ -0 10000 0 00142
                       TRANSFER TO LOOPA                                            025  LM00036
 00140 TRA +0 02000 0 00003
                    OR WHENEVER LINE(INCHAR) .E. CR                                 026  LM00037
 00141 TRA +0 02000 0 00240    00142 LXA +0 53400 1 00022    00143 CLA +0 50000 1 00024    00144 SUB +0 40200 0 00020
 00145 TNZ -0 10000 0 00152
                       CARAGE = CRINCR                                              027  LM00038
 00146 CLA +0 50000 0 00016    00147 STO +0 60100 0 00013
                       TRANSFER TO LOOP                                             028  LM00039
 00150 TRA +0 02000 0 00005
                    OR WHENEVER LINE(INCHAR) .E. NLINE                              029  LM00040
 00151 TRA +0 02000 0 00240    00152 LXA +0 53400 1 00022    00153 CLA +0 50000 1 00024    00154 SUB +0 40200 0 00026
 00155 TNZ -0 10000 0 00162
                       RTN = 1B                                                     030  LM00041
 00156 CLA +0 50000 0 00034    00157 STO +0 60100 0 00030
                       TRANSFER TO LOOPON                                           031  LM00042
 00160 TRA +0 02000 0 00004
                    OTHERWISE                                                       032  LM00043
 00161 TRA +0 02000 0 00240
                       OUTCH = OUTCH + 1                                            033  LM00044
 00162 CLA +0 50000 0 00027    00163 ADD +0 40000 0 00034    00164 STO +0 60100 0 00027
                       LINE(OUTCH) = LINE(INCHAR) .V. CARAGE                        034  LM00045
 00165 LXA +0 53400 1 00022    00166 CAL -0 50000 1 00024    00167 ORA -0 50100 0 00013    00170 LXA +0 53400 1 00027
 00171 SLW +0 60200 1 00024
                 THROUGH SRTLP, FOR J = OUTCH,-1, J .LE. 1                          035  LM00048
 00172 CLA +0 50000 0 00027    00173 STO +0 60100 0 00024    00174 TRA +0 02000 0 00200    00175 CLS +0 50200 0 00034
 00176 ADD +0 40000 0 00024    00177 STO +0 60100 0 00024    00200 CLA +0 50000 0 00024    00201 SUB +0 40200 0 00034
 00202 TZE +0 10000 0 00235    00203 TMI -0 12000 0 00235
                 WHENEVER LINE(J) .G. LINE(J-1)                                     036  LM00049
 00204 CLA +0 50000 0 00024    00205 SUB +0 40200 0 00034    00206 LXA +0 53400 1 00024    00207 PAX +0 73400 2 00000
 00210 CLA +0 50000 1 00024    00211 SUB +0 40200 2 00024    00212 TZE +0 10000 0 00216    00213 TMI -0 12000 0 00216
                    TRANSFER TO SRTOUT                                              037  LM00050
 00214 TRA +0 02000 0 00010
                 OTHERWISE                                                          038  LM00051
 00215 TRA +0 02000 0 00234
                    TEMP = LINE(J-1)                                                039  LM00052
 00216 CLA +0 50000 0 00024    00217 SUB +0 40200 0 00034    00220 PAX +0 73400 2 00000    00221 CLA +0 50000 2 00024
 00222 STO +0 60100 0 00032
                    LINE(J-1) = LINE(J)                                             040  LM00053
 00223 CLA +0 50000 0 00024    00224 SUB +0 40200 0 00034    00225 PAX +0 73400 1 00000    00226 LXA +0 53400 2 00024
 00227 CLA +0 50000 2 00024    00230 STO +0 60100 1 00024
                    LINE(J) = TEMP                                                  041  LM00054
 00231 LXA +0 53400 1 00024    00232 CLA +0 50000 0 00032    00233 STO +0 60100 1 00024
      SRTLP      END OF CONDITIONAL                                                 042  LM00055
 00234 TRA +0 02000 0 00175
      SRTOUT     CONTINUE                                                           043  LM00056
      LOOPA            CARAGE = CARAGE + CRINCR                                     044  LM00059
 00235 CLA +0 50000 0 00013    00236 ADD +0 40000 0 00016    00237 STO +0 60100 0 00013
      LOOP          END OF CONDITIONAL                                              045  LM00060
 00240 TRA +0 02000 0 00065
      LOOPON     MAXC = CARAGE                                                      046  LM00061
 00241 CLA +0 50000 0 00013    00242 STO +0 60100 0 00025
                 WHENEVER OUTCH .E. 0                                               047  LM00064
 00243 CLA +0 50000 0 00027    00244 SUB +0 40200 0 00033    00245 TNZ -0 10000 0 00260
                    WHENEVER RTN                                                    048  LM00065
 00246 NZT -0 52000 0 00030    00247 TRA +0 02000 0 00255
                       SIZE = 1                                                     049  LM00066
 00250 CLA +0 50000 0 00034    00251 STO +0 60100 0 00024
                       LINE(1) = NLINE                                              050  LM00067
 00252 CLA +0 50000 0 00026    00253 STO +0 60100 0 00023
                    OTHERWISE                                                       051  LM00068
 00254 TRA +0 02000 0 00257
                       SIZE = 0                                                     052  LM00069
 00255 CLA +0 50000 0 00033    00256 STO +0 60100 0 00024
                    END OF CONDITIONAL                                              053  LM00070
                    FUNCTION RETURN                                                 054  LM00071
 00257 TRA +0 02000 0 00525
                 END OF CONDITIONAL                                                 055  LM00072
                 LINE(BUFSIZ) = LINE(OUTCH)                                         056  LM00073
 00260 LXA +0 53400 1 00024    00261 LXA +0 53400 2 00027    00262 CLA +0 50000 2 00024    00263 STO +0 60100 1 00024
                 J = BUFSIZ                                                         057  LM00074
 00264 CLA +0 50000 0 00024    00265 STO +0 60100 0 00024
                 THROUGH COPY, FOR I = OUTCH-1,-1, I .L. 1                          058  LM00075
 00266 CLA +0 50000 0 00027    00267 SUB +0 40200 0 00034    00270 STO +0 60100 0 00023    00271 TRA +0 02000 0 00275
 00272 CLS +0 50200 0 00034    00273 ADD +0 40000 0 00023    00274 STO +0 60100 0 00023    00275 CLA +0 50000 0 00023
 00276 SUB +0 40200 0 00034    00277 TZE +0 10000 0 00301    00300 TMI -0 12000 0 00320
                 WHENEVER LINE(I) .NE. LINE(I+1)                                    059  LM00076
 00301 CLA +0 50000 0 00023    00302 ADD +0 40000 0 00034    00303 LXA +0 53400 1 00023    00304 PAX +0 73400 2 00000
 00305 CLA +0 50000 1 00024    00306 SUB +0 40200 2 00024    00307 TZE +0 10000 0 00317
                    J = J - 1                                                       060  LM00077
 00310 CLA +0 50000 0 00024    00311 SUB +0 40200 0 00034    00312 STO +0 60100 0 00024
                    LINE(J) = LINE(I)                                               061  LM00078
 00313 LXA +0 53400 1 00024    00314 LXA +0 53400 2 00023    00315 CLA +0 50000 2 00024    00316 STO +0 60100 1 00024
      COPY       END OF CONDITIONAL                                                 062  LM00079
 00317 TRA +0 02000 0 00272
                 STRING = 0                                                         063  LM00082
 00320 CLA +0 50000 0 00033    00321 STO +0 60100 0 00031
                 CARAGE = CRINCR                                                    064  LM00083
 00322 CLA +0 50000 0 00016    00323 STO +0 60100 0 00013
                 THROUGH REFORM, FOR I = J,1, I .G. BUFSIZ                          065  LM00085
 00324 CLA +0 50000 0 00024    00325 STO +0 60100 0 00023    00326 TRA +0 02000 0 00332    00327 CLA +0 50000 0 00023
 00330 ADD +0 40000 0 00034    00331 STO +0 60100 0 00023    00332 CLA +0 50000 0 00023    00333 SUB +0 40200 0 00024
 00334 TZE +0 10000 0 00336    00335 TPL +0 12000 0 00414
                    CHPOS = (LINE(I) .A. CRMASK)                                    066  LM00086
 00336 LXA +0 53400 1 00023    00337 CAL -0 50000 1 00024    00340 ANA -0 32000 0 00017    00341 SLW +0 60200 0 00015
      RFMA       WHENEVER CARAGE .L. CHPOS                                          067  LM00087
 00342 CLA +0 50000 0 00013    00343 SUB +0 40200 0 00015    00344 TZE +0 10000 0 00361    00345 TPL +0 12000 0 00361
                    STRING = STRING + 1                                             068  LM00088
 00346 CLA +0 50000 0 00031    00347 ADD +0 40000 0 00034    00350 STO +0 60100 0 00031
                    LINE(STRING) = BLANK                                            069  LM00089
 00351 LXA +0 53400 1 00031    00352 CLA +0 50000 0 00011    00353 STO +0 60100 1 00024
                    CARAGE = CARAGE + CRINCR                                        070  LM00090
 00354 CLA +0 50000 0 00013    00355 ADD +0 40000 0 00016    00356 STO +0 60100 0 00013
                    TRANSFER TO RFMA                                                071  LM00091
 00357 TRA +0 02000 0 00006
      RFMB       OR WHENEVER CARAGE .G. CHPOS                                       072  LM00092
 00360 TRA +0 02000 0 00413    00361 CLA +0 50000 0 00013    00362 SUB +0 40200 0 00015    00363 TZE +0 10000 0 00400
 00364 TMI -0 12000 0 00400
                    STRING = STRING + 1                                             073  LM00093
 00365 CLA +0 50000 0 00031    00366 ADD +0 40000 0 00034    00367 STO +0 60100 0 00031
                    LINE(STRING) = BSPACE                                           074  LM00094
 00370 LXA +0 53400 1 00031    00371 CLA +0 50000 0 00012    00372 STO +0 60100 1 00024
                    CARAGE = CARAGE - CRINCR                                        075  LM00095
 00373 CLA +0 50000 0 00013    00374 SUB +0 40200 0 00016    00375 STO +0 60100 0 00013
                    TRANSFER TO RFMB                                                076  LM00096
 00376 TRA +0 02000 0 00007
                 OTHERWISE                                                          077  LM00097
 00377 TRA +0 02000 0 00413
                    STRING = STRING + 1                                             078  LM00098
 00400 CLA +0 50000 0 00031    00401 ADD +0 40000 0 00034    00402 STO +0 60100 0 00031
                    LINE(STRING) = LINE(I) .A. CHMASK                               079  LM00099
 00403 LXA +0 53400 1 00023    00404 CAL -0 50000 1 00024    00405 ANA -0 32000 0 00014    00406 LXA +0 53400 1 00031
 00407 SLW +0 60200 1 00024
                    CARAGE = CARAGE + CRINCR                                        080  LM00100
 00410 CLA +0 50000 0 00013    00411 ADD +0 40000 0 00016    00412 STO +0 60100 0 00013
      REFORM     END OF CONDITIONAL                                                 081  LM00101
 00413 TRA +0 02000 0 00327
                 WHENEVER RTN                                                       082  LM00102
 00414 NZT -0 52000 0 00030    00415 TRA +0 02000 0 00425
                    STRING = STRING + 1                                             083  LM00103
 00416 CLA +0 50000 0 00031    00417 ADD +0 40000 0 00034    00420 STO +0 60100 0 00031
                    LINE(STRING) = NLINE                                            084  LM00104
 00421 LXA +0 53400 1 00031    00422 CLA +0 50000 0 00026    00423 STO +0 60100 1 00024
                 OTHERWISE                                                          085  LM00105
 00424 TRA +0 02000 0 00443
      BLPK          WHENEVER CARAGE .L. MAXC                                        086  LM00106
 00425 CLA +0 50000 0 00013    00426 SUB +0 40200 0 00025    00427 TZE +0 10000 0 00443    00430 TPL +0 12000 0 00443
                       STRING = STRING + 1                                          087  LM00107
 00431 CLA +0 50000 0 00031    00432 ADD +0 40000 0 00034    00433 STO +0 60100 0 00031
                       LINE(STRING) = BLANK                                         088  LM00108
 00434 LXA +0 53400 1 00031    00435 CLA +0 50000 0 00011    00436 STO +0 60100 1 00024
                       CARAGE = CARAGE + CRINCR                                     089  LM00109
 00437 CLA +0 50000 0 00013    00440 ADD +0 40000 0 00016    00441 STO +0 60100 0 00013
                       TRANSFER TO BLPK                                             090  LM00110
 00442 TRA +0 02000 0 00002
                    END OF CONDITIONAL                                              091  LM00111
                 END OF CONDITIONAL                                                 092  LM00112
                 SIZE = STRING                                                      093  LM00114
 00443 CLA +0 50000 0 00031    00444 STO +0 60100 0 00024
                 FUNCTION RETURN                                                    094  LM00115
 00445 TRA +0 02000 0 00525
                 END OF FUNCTION                                                    095  LM00117
 00446 TSX +0 07400 4 00000    00447 PZE +0 00000 0 00001    00450 TXH +3 00000 0 00000    00451 SXD -0 63400 1 00450
 00452 SXA +0 63400 4 00525    00453 CLA +0 50000 4 00001    00454 STA +0 62100 0 00075    00455 STA +0 62100 0 00112
 00456 STA +0 62100 0 00135    00457 STA +0 62100 0 00143    00460 STA +0 62100 0 00153    00461 STA +0 62100 0 00166
 00462 STA +0 62100 0 00171    00463 STA +0 62100 0 00210    00464 STA +0 62100 0 00211    00465 STA +0 62100 0 00221
 00466 STA +0 62100 0 00227    00467 STA +0 62100 0 00230    00470 STA +0 62100 0 00233    00471 STA +0 62100 0 00262
 00472 STA +0 62100 0 00263    00473 STA +0 62100 0 00305    00474 STA +0 62100 0 00306    00475 STA +0 62100 0 00315
 00476 STA +0 62100 0 00316    00477 STA +0 62100 0 00337    00500 STA +0 62100 0 00353    00501 STA +0 62100 0 00372
 00502 STA +0 62100 0 00404    00503 STA +0 62100 0 00407    00504 STA +0 62100 0 00423    00505 STA +0 62100 0 00436
 00506 SUB +0 40200 0 00447    00507 STA +0 62100 0 00253    00510 CLA +0 50000 4 00002    00511 STA +0 62100 0 00043
 00512 STA +0 62100 0 00047    00513 STA +0 62100 0 00071    00514 STA +0 62100 0 00251    00515 STA +0 62100 0 00256
 00516 STA +0 62100 0 00444    00517 CLA +0 50000 4 00003    00520 STA +0 62100 0 00050    00521 STA +0 62100 0 00260
 00522 STA +0 62100 0 00264    00523 STA +0 62100 0 00333    00524 TRA +0 02000 2 00001    00525 AXT +0 77400 4 00000
 00526 LXA +0 53400 2 00450    00527 LXD -0 53400 1 00450    00530 TRA +0 02000 4 00001


NSCTSS   BCD 02/25/69 1720.1    2215         00000
1            CHARACTER CONVERSION ROUTINE                                        02/25/69 1713.9 PAGE 1

                              *      ASCTSS CONVERTS A SINGLE ASCII CHARACTER INTO A CTSS CHARACTER.
                              *      TSSASC CONVERTS A SINGLE CTSS CHARACTER INTO AN ASCII CHARACTER.
                              *
                              *      NO ESCAPE CONVENTIONS ARE RELEVANT.
                              *      MAD CALLING SEQUENCE
                              *      X = ASCTSS.(CHAR)
                              *      X = TSSASC.(CHAR)
                              *      WRITTEN BY ROBERT MORRIS, DECEMBER, 1965
                              *      FIXED FOR PR(1966)ASCII BY J. H. SALTZER, OCT. 66.
                              *
                       00004         ENTRY   ASCTSS
                       00002         ENTRY   TSSASC
                              *

            LINKAGE DIRECTOR
      00000  000000000000
      00001  216223636262

      00002 -0625 00 0 00017  TSSASC STL     XYZFL
      00003  0020 00 0 00005         TRA     *+2
      00004  0600 00 0 00017  ASCTSS STZ     XYZFL
      00005  0634 00 1 00015         SXA     XR1,1
      00006  0500 60 4 00001         CLA*    1,4
      00007 -0320 00 0 00220         ANA     =O177
      00010  0737 00 1 00000         PAC     ,1
      00011  0500 00 1 00020         CLA     TABLE,1
      00012  0520 00 0 00017         ZET     XYZFL
      00013  0771 00 0 00022         ARS     18
      00014 -0320 00 0 00220         ANA     =O177
      00015  0774 00 1 00000  XR1    AXT     **,1
      00016  0020 00 4 00002         TRA     2,4
                              *
      00017  0 00000 0 00000  XYZFL  PZE
                              *
                              T      MACRO   X,Y
                                     VFD     O18/X,O18/Y
                                     END
                              *
                       00020  TABLE  EQU     *
      00020                          T       060,057       0 NUL
      00021                          T       061,057       1 SOH
      00022                          T       062,057       2 STX
      00023                          T       063,057       3 ETX
      00024                          T       064,057       4 EOT
      00025                          T       065,057       5 ENQ
      00026                          T       066,057       6 ACK
      00027                          T       067,113       7 BEL
      00030                          T       070,135       8 BS
      00031                          T       071,072       9 HT
      00032                          T       000,055       NUL NL
      00033                          T       075,172       EQUALS VT
      00034                          T       047,052       ACUTE FF
      00035                          T       000,136       NUL CR
      00036                          T       000,133       NUL SO
      00037                          T       000,132       NUL SI
      00040                          T       053,057       PLUS DLE
1            CHARACTER CONVERSION ROUTINE                                        02/25/69 1713.9 PAGE 2

      00041                          T       101,057       A RHT
      00042                          T       102,110       B HLF
      00043                          T       103,057       C CS
      00044                          T       104,111       D HLR
      00045                          T       105,057       E NAK
      00046                          T       106,057       F SYN
      00047                          T       107,057       G ETB
      00050                          T       110,057       H CAN
      00051                          T       111,057       I EM
      00052                          T       000,057       NUL SS
      00053                          T       056,057       PERIOD ESC
      00054                          T       051,057       CLOSE PAREN FS
      00055                          T       072,057       COLON GS
      00056                          T       000,057       NUL RS
      00057                          T       000,057       NUL US
      00060                          T       055,060       MINUS SPACE
      00061                          T       112,114       J EXCLAM PT
      00062                          T       113,137       K QUOTE
      00063                          T       114,104       L NR SIGN
      00064                          T       115,053       M DOLLAR SIGN
      00065                          T       116,105       N PERCENT
      00066                          T       117,120       O AMPERSAND
      00067                          T       120,014       P ACUTE
      00070                          T       121,074       Q OPEN PAREN
      00071                          T       122,034       R CLOSE PAREN
      00072                          T       014,054       FF STAR
      00073                          T       044,020       DOLLARS PLUS
      00074                          T       052,073       STAR COMMA
      00075                          T       012,040       NL DASH
      00076                          T       000,033       NUL PERIOD
      00077                          T       000,061       NUL SLASH
      00100                          T       040,000       BLANK 0
      00101                          T       057,001       SLASH 1
      00102                          T       123,002       S 2
      00103                          T       124,003       T 3
      00104                          T       125,004       U 4
      00105                          T       126,005       V 5
      00106                          T       127,006       W 6
      00107                          T       130,007       X 7
      00110                          T       131,010       Y 8
      00111                          T       132,011       Z 9
      00112                          T       011,035       TAB COLON
      00113                          T       054,103       COMMA SEMICOLON
      00114                          T       050,152       OPEN PAREN LESS THAN
      00115                          T       000,013       NUL EQUALS
      00116                          T       000,155       NUL GREATER THAN
      00117                          T       000,156       NUL QUESTION
      00120                          T       174,106       VERTICAL BAR AT SIGN PR(1966)ASCII
      00121                          T       135,021       CLOSE BRACKET A
      00122                          T       134,022       LSLANT B PR(1966)ASCII
      00123                          T       073,023       SEMICOLON C
      00124                          T       043,024       NR SIGN D
      00125                          T       045,025       PERCENT E PR(1966)ASCII
      00126                          T       100,026       AT F PR(1966)ASCII
      00127                          T       000,027       LINE FEED G
      00130                          T       022,030       HLF H
1            CHARACTER CONVERSION ROUTINE                                        02/25/69 1713.9 PAGE 3

      00131                          T       024,031       HLR I
      00132                          T       136,041       CIRCUMFLEX J
      00133                          T       007,042       BELL K
      00134                          T       041,043       EXCLAM L
      00135                          T       000,044       WRU M
      00136                          T       000,045       HANG UP N
      00137                          T       000,046       PR OFF O
      00140                          T       046,047       AMPERSAND P
      00141                          T       141,050       A Q
      00142                          T       142,051       B R
      00143                          T       143,062       C S
      00144                          T       144,063       D T
      00145                          T       145,064       E U
      00146                          T       146,065       F V
      00147                          T       147,066       G W
      00150                          T       150,067       H X
      00151                          T       151,070       I Y
      00152                          T       017,071       BLACK Z
      00153                          T       016,153       RED OPEN BRA
      00154                          T       176,102       OVERLINE/TILDE LSLANT PR(1966)ASCII
      00155                          T       010,101       BS CLOSE BRA
      00156                          T       015,112       CRLF::// CIRCUMFLEX PR(1966)ASCII
      00157                          T       042,140       QUOTE UNDERLINE
      00160                          T       137,160       UNDERLINE GRAVE PR(1966)ASCII
      00161                          T       152,121       J A
      00162                          T       153,122       K B
      00163                          T       154,123       L C
      00164                          T       155,124       M D
      00165                          T       156,125       N E
      00166                          T       157,126       O F
      00167                          T       160,127       P G
      00170                          T       161,130       Q G
      00171                          T       162,131       R I
      00172                          T       074,141       LESS THAN J
      00173                          T       133,142       OPEN BRA K
      00174                          T       000,143       PREFIX L
      00175                          T       076,144       GREATER THAN M
      00176                          T       077,145       QUESTION N
      00177                          T       000,146       NULL O
      00200                          T       140,147       GRAVE ACCENT P PR(1966)ASCII
      00201                          T       000,150       LK Q
      00202                          T       163,151       S R
      00203                          T       164,162       T S
      00204                          T       165,163       U T
      00205                          T       166,164       V U
      00206                          T       167,165       W V
      00207                          T       170,166       X W
      00210                          T       171,167       Y X
      00211                          T       172,170       Z Y
      00212                          T       013,171       VT Z
      00213                          T       173,173       OPEN BRACE OPEN BRACE
      00214                          T       175,100       CLOSE BRACE VERTICAL BAR PR(1966)ASCII
      00215                          T       000,174       PR ON CLOSE BRACE
      00216                          T       000,134       ULK OVERLINE/TILDE PR(1966)ASCII
      00217                          T       000,057       ALT MODE DEL
                              *
1            CHARACTER CONVERSION ROUTINE                                        02/25/69 1713.9 PAGE 4

                                     END

        LITERALS
      00220  000000000177
1            CHARACTER CONVERSION ROUTINE                                        02/25/69 1713.9 PAGE 1
                        POST PROCESSOR ASSEMBLY DATA

        221 IS THE FIRST LOCATION NOT USED BY THIS PROGRAM

0REFERENCES TO DEFINED SYMBOLS
         15    XR1     5
         20  TABLE    11,   20
         17  XYZFL     2,    4,   12
          4 ASCTSS     0
          2 TSSASC     0

0 NO ERROR IN ABOVE ASSEMBLY.


NKEDIT   BCD 02/25/69 1720.1    4641         00000
1     MAD PROGRAM LISTING ... ... ...                 FILE  NKEDIT   MAD            02/25/69    1714.3
-
                 ..  ERASE AND KILL EDITOR FOR ASCII FILES.                                            LM00001
                 ..  FIXED FOR PR(1966) ASCII.                                                         LM00002
                 ..  J. H. SALTZER, JANUARY, 1966                                                      LM00003
                                                                                                       LM00004
                      USAGE. . .                                                                       LM00005
                 ..          EKEDIT.(LINE, INSIZE, SIZE)                                               LM00006
                                                                                                       LM00007
                  EXTERNAL FUNCTION(LINE, INSIZE, SIZE)                                           *001 LM00008
                                                                                                       LM00009
                  NORMAL MODE IS INTEGER                                                          *002 LM00010
                  BOOLEAN TRAIL                                                                   *003 LM00011
                  VECTOR VALUES SPACE = 040K                                                      *004 LM00012
                  VECTOR VALUES BACKSP = 010K                                                     *005 LM00013
                  VECTOR VALUES HTAB = 011K                                                       *006 LM00014
                  VECTOR VALUES MCNG = 033K                                                       *007 LM00015
                  VECTOR VALUES ERASE = 043K                                                      *008 LM00016
                  VECTOR VALUES KILL = 100K                                                       *009 LM00017
                  VECTOR VALUES LILE = 145K                                                       *010 LM00018
                  VECTOR VALUES CAPE = 105K                                                       *011 LM00019
                  VECTOR VALUES LILK = 153K                                                       *012 LM00020
                  VECTOR VALUES CAPK = 113K                                                       *013 LM00021
                                                                                                       LM00022
                  ENTRY TO SETERS.                                                                *014 LM00023
                    ERASE = LINE                                                                  *015 LM00024
                    FUNCTION RETURN                                                               *016 LM00025
                                                                                                       LM00026
                  ENTRY TO SETKIL.                                                                *017 LM00027
                    KILL = LINE                                                                   *018 LM00028
                    FUNCTION RETURN                                                               *019 LM00029
                                                                                                       LM00030
                  ENTRY TO EKEDIT.                                                                *020 LM00031
                    SIZE = 0                                                                      *021 LM00032
                    THROUGH LLP, FOR I = 1, 1, I .G. INSIZE                                       *022 LM00033
                      WHENEVER LINE(I) .E. ERASE                                                  *023 LM00034
                        TRAIL = 1B                                                                *024 LM00035
                        WHENEVER SIZE .E. 0, TRAIL = 0B                                           *025 LM00036
      BTEST             WHENEVER LINE(SIZE) .E. BACKSP                                            *026 LM00037
                          TRAIL = 0B                                                              *027 LM00038
                          SIZE = SIZE - 2                                                         *028 LM00039
                          TRANSFER TO BTEST                                                       *029 LM00040
                        END OF CONDITIONAL                                                        *030 LM00041
      FTEST             WHENEVER LINE(I+1) .E. BACKSP                                             *031 LM00042
                          TRAIL = 0B                                                              *032 LM00043
                          I = I + 2                                                               *033 LM00044
                          TRANSFER TO FTEST                                                       *034 LM00045
                        END OF CONDITIONAL                                                        *035 LM00046
                        WHENEVER TRAIL                                                            *036 LM00047
                          WHENEVER LINE(SIZE) .NE. SPACE                                          *037 LM00048
                1          .AND. LINE(SIZE) .NE. HTAB                                             *037 LM00049
                            SIZE = SIZE - 1                                                       *038 LM00050
                            TRAIL = 0B                                                            *039 LM00051
                            TRANSFER TO BTEST                                                     *040 LM00052
                          END OF CONDITIONAL                                                      *041 LM00053
      STEST               WHENEVER LINE(SIZE) .E. SPACE                                           *042 LM00054
                1            .OR. LINE(SIZE) .E. HTAB                                             *042 LM00055
                            SIZE = SIZE - 1                                                       *043 LM00056
                            TRANSFER TO STEST                                                     *044 LM00057
                          END OF CONDITIONAL                                                      *045 LM00058
                        END OF CONDITIONAL                                                        *046 LM00059
                                                                                                       LM00060
                      OR WHENEVER LINE(I) .E. KILL                                                *047 LM00061
                1           .AND. LINE(SIZE) .NE. BACKSP                                          *047 LM00062
                2           .AND. LINE(I+1) .NE. BACKSP                                           *047 LM00063
                        SIZE = 0                                                                  *048 LM00064
                                                                                                       LM00065
                      OR WHENEVER LINE(I) .E. MCNG                                                *049 LM00066
                        WHENEVER LINE(I+1) .E. CAPE .OR. LINE(I+1) .E. LILE                       *050 LM00067
                1           , ERASE = LINE(I+2)                                                   *050 LM00068
                        WHENEVER LINE(I+1) .E. CAPK .OR. LINE(I+1) .E. LILK                       *051 LM00069
                1           , KILL = LINE(I+2)                                                    *051 LM00070
                        I = I + 2                                                                 *052 LM00071
                                                                                                       LM00072
                      OTHERWISE                                                                   *053 LM00073
                        SIZE = SIZE + 1                                                           *054 LM00074
                        LINE(SIZE) = LINE(I)                                                      *055 LM00075
                      END OF CONDITIONAL                                                          *056 LM00076
      LLP           CONTINUE                                                                      *057 LM00077
                    FUNCTION RETURN                                                               *058 LM00078
                                                                                                       LM00079
                  END OF FUNCTION                                                                 *059 LM00080
1MAD PROGRAM,TYPE NOV 1963      (ALL NUMBERS ARE OCTAL)
0TOTAL LOCATIONS   00344 TRANSFER VECTOR LENGTH  00001 PROGRAM BEGINS    00025
0 PROGRAM IS AN EXTERNAL FUNCTION.   THE FOLLOWING ARE ENTRIES
      EKEDIT 00042   0        SETKIL 00034   0        SETERS 00026   0
0VARIABLE STORAGE (A=ARRAY,C=COMMON,E=ERASABLE,DIGIT=MODE)
      BACKSP 00005 A 1        ERASE  00010 A 1        I      00012   1        LILK   00015 A 1        SPACE  00017 A 1
      BTEST  00002   4        FTEST  00003   4        KILL   00013 A 1        LLP    00001   4        STEST  00004   4
      CAPE   00006 A 1        HTAB   00011 A 1        LILE   00014 A 1        MCNG   00016 A 1        TRAIL  00020   2
      CAPK   00007 A 1
0FUNCTION DICTIONARY
      EXIT   00000   1
0ABSOLUTE CONSTANTS
 00023 +000000000002     00021 +000000000000     00022 +000000000001     00024 +233000000000
0STATEMENT DICTIONARY
 00002 TXL -300077000073       00003 TXL -300113000105       00004 TXL -300147000140
0PROGRAM
                 EXTERNAL FUNCTION(LINE, INSIZE, SIZE)                              001  LM00008
                 NORMAL MODE IS INTEGER                                             002  LM00010
                 BOOLEAN TRAIL                                                      003  LM00011
                 VECTOR VALUES SPACE = 040K                                         004  LM00012
 00017     +0 00000 0 00040
                 VECTOR VALUES BACKSP = 010K                                        005  LM00013
 00005     +0 00000 0 00010
                 VECTOR VALUES HTAB = 011K                                          006  LM00014
 00011     +0 00000 0 00011
                 VECTOR VALUES MCNG = 033K                                          007  LM00015
 00016     +0 00000 0 00033
                 VECTOR VALUES ERASE = 043K                                         008  LM00016
 00010     +0 00000 0 00043
                 VECTOR VALUES KILL = 100K                                          009  LM00017
 00013     +0 00000 0 00100
                 VECTOR VALUES LILE = 145K                                          010  LM00018
 00014     +0 00000 0 00145
                 VECTOR VALUES CAPE = 105K                                          011  LM00019
 00006     +0 00000 0 00105
                 VECTOR VALUES LILK = 153K                                          012  LM00020
 00015     +0 00000 0 00153
                 VECTOR VALUES CAPK = 113K                                          013  LM00021
 00007     +0 00000 0 00113
                 ENTRY TO SETERS.                                                   014  LM00023
 00025 TRA +0 02000 0 00030    00026 SXA +0 63400 2 00261    00027 TSX +0 07400 2 00261
                   ERASE = LINE                                                     015  LM00024
 00030 CLA +0 50000 0 00024    00031 STO +0 60100 0 00010
                   FUNCTION RETURN                                                  016  LM00025
 00032 TRA +0 02000 0 00336
                 ENTRY TO SETKIL.                                                   017  LM00027
 00033 TRA +0 02000 0 00036    00034 SXA +0 63400 2 00261    00035 TSX +0 07400 2 00261
                   KILL = LINE                                                      018  LM00028
 00036 CLA +0 50000 0 00024    00037 STO +0 60100 0 00013
                   FUNCTION RETURN                                                  019  LM00029
 00040 TRA +0 02000 0 00336
                 ENTRY TO EKEDIT.                                                   020  LM00031
 00041 TRA +0 02000 0 00044    00042 SXA +0 63400 2 00261    00043 TSX +0 07400 2 00261
                   SIZE = 0                                                         021  LM00032
 00044 CLA +0 50000 0 00021    00045 STO +0 60100 0 00024
                   THROUGH LLP, FOR I = 1, 1, I .G. INSIZE                          022  LM00033
 00046 CLA +0 50000 0 00022    00047 STO +0 60100 0 00012    00050 TRA +0 02000 0 00054    00051 CLA +0 50000 0 00012
 00052 ADD +0 40000 0 00022    00053 STO +0 60100 0 00012    00054 CLA +0 50000 0 00012    00055 SUB +0 40200 0 00024
 00056 TZE +0 10000 0 00060    00057 TPL +0 12000 0 00257
                     WHENEVER LINE(I) .E. ERASE                                     023  LM00034
 00060 LXA +0 53400 1 00012    00061 CLA +0 50000 1 00024    00062 SUB +0 40200 0 00010    00063 TNZ -0 10000 0 00154
                       TRAIL = 1B                                                   024  LM00035
 00064 CLA +0 50000 0 00022    00065 STO +0 60100 0 00020
                       WHENEVER SIZE .E. 0, TRAIL = 0B                              025  LM00036
 00066 CLA +0 50000 0 00024    00067 SUB +0 40200 0 00021    00070 TNZ -0 10000 0 00073    00071 CLA +0 50000 0 00021
 00072 STO +0 60100 0 00020
      BTEST            WHENEVER LINE(SIZE) .E. BACKSP                               026  LM00037
 00073 LXA +0 53400 1 00024    00074 CLA +0 50000 1 00024    00075 SUB +0 40200 0 00005    00076 TNZ -0 10000 0 00105
                         TRAIL = 0B                                                 027  LM00038
 00077 CLA +0 50000 0 00021    00100 STO +0 60100 0 00020
                         SIZE = SIZE - 2                                            028  LM00039
 00101 CLA +0 50000 0 00024    00102 SUB +0 40200 0 00023    00103 STO +0 60100 0 00024
                         TRANSFER TO BTEST                                          029  LM00040
 00104 TRA +0 02000 0 00002
                       END OF CONDITIONAL                                           030  LM00041
      FTEST            WHENEVER LINE(I+1) .E. BACKSP                                031  LM00042
 00105 CLA +0 50000 0 00012    00106 ADD +0 40000 0 00022    00107 PAX +0 73400 1 00000    00110 CLA +0 50000 1 00024
 00111 SUB +0 40200 0 00005    00112 TNZ -0 10000 0 00121
                         TRAIL = 0B                                                 032  LM00043
 00113 CLA +0 50000 0 00021    00114 STO +0 60100 0 00020
                         I = I + 2                                                  033  LM00044
 00115 CLA +0 50000 0 00012    00116 ADD +0 40000 0 00023    00117 STO +0 60100 0 00012
                         TRANSFER TO FTEST                                          034  LM00045
 00120 TRA +0 02000 0 00003
                       END OF CONDITIONAL                                           035  LM00046
                       WHENEVER TRAIL                                               036  LM00047
 00121 NZT -0 52000 0 00020    00122 TRA +0 02000 0 00153
                         WHENEVER LINE(SIZE) .NE. SPACE                             037  LM00048
                1         .AND. LINE(SIZE) .NE. HTAB                                037  LM00049
 00123 LXA +0 53400 1 00024    00124 CLA +0 50000 1 00024    00125 SUB +0 40200 0 00011    00126 TZE +0 10000 0 00140
 00127 CLA +0 50000 1 00024    00130 SUB +0 40200 0 00017    00131 TZE +0 10000 0 00140
                           SIZE = SIZE - 1                                          038  LM00050
 00132 CLA +0 50000 0 00024    00133 SUB +0 40200 0 00022    00134 STO +0 60100 0 00024
                           TRAIL = 0B                                               039  LM00051
 00135 CLA +0 50000 0 00021    00136 STO +0 60100 0 00020
                           TRANSFER TO BTEST                                        040  LM00052
 00137 TRA +0 02000 0 00002
                         END OF CONDITIONAL                                         041  LM00053
      STEST              WHENEVER LINE(SIZE) .E. SPACE                              042  LM00054
                1           .OR. LINE(SIZE) .E. HTAB                                042  LM00055
 00140 LXA +0 53400 1 00024    00141 CLA +0 50000 1 00024    00142 SUB +0 40200 0 00011    00143 TZE +0 10000 0 00147
 00144 CLA +0 50000 1 00024    00145 SUB +0 40200 0 00017    00146 TNZ -0 10000 0 00153
                           SIZE = SIZE - 1                                          043  LM00056
 00147 CLA +0 50000 0 00024    00150 SUB +0 40200 0 00022    00151 STO +0 60100 0 00024
                           TRANSFER TO STEST                                        044  LM00057
 00152 TRA +0 02000 0 00004
                         END OF CONDITIONAL                                         045  LM00058
                       END OF CONDITIONAL                                           046  LM00059
                     OR WHENEVER LINE(I) .E. KILL                                   047  LM00061
                1          .AND. LINE(SIZE) .NE. BACKSP                             047  LM00062
                2          .AND. LINE(I+1) .NE. BACKSP                              047  LM00063
 00153 TRA +0 02000 0 00256    00154 CLA +0 50000 0 00012    00155 ADD +0 40000 0 00022    00156 PAX +0 73400 1 00000
 00157 CLA +0 50000 1 00024    00160 SUB +0 40200 0 00005    00161 TZE +0 10000 0 00175    00162 LXA +0 53400 1 00024
 00163 CLA +0 50000 1 00024    00164 SUB +0 40200 0 00005    00165 TZE +0 10000 0 00175    00166 LXA +0 53400 1 00012
 00167 CLA +0 50000 1 00024    00170 SUB +0 40200 0 00013    00171 TNZ -0 10000 0 00175
                       SIZE = 0                                                     048  LM00064
 00172 CLA +0 50000 0 00021    00173 STO +0 60100 0 00024
                     OR WHENEVER LINE(I) .E. MCNG                                   049  LM00066
 00174 TRA +0 02000 0 00256    00175 LXA +0 53400 1 00012    00176 CLA +0 50000 1 00024    00177 SUB +0 40200 0 00016
 00200 TNZ -0 10000 0 00247
                       WHENEVER LINE(I+1) .E. CAPE .OR. LINE(I+1) .E. LILE          050  LM00067
                1          , ERASE = LINE(I+2)                                      050  LM00068
 00201 CLA +0 50000 0 00012    00202 ADD +0 40000 0 00022    00203 PAX +0 73400 1 00000    00204 CLA +0 50000 1 00024
 00205 SUB +0 40200 0 00014    00206 TZE +0 10000 0 00215    00207 CLA +0 50000 0 00012    00210 ADD +0 40000 0 00022
 00211 PAX +0 73400 1 00000    00212 CLA +0 50000 1 00024    00213 SUB +0 40200 0 00006    00214 TNZ -0 10000 0 00222
 00215 CLA +0 50000 0 00012    00216 ADD +0 40000 0 00023    00217 PAX +0 73400 2 00000    00220 CLA +0 50000 2 00024
 00221 STO +0 60100 0 00010
                       WHENEVER LINE(I+1) .E. CAPK .OR. LINE(I+1) .E. LILK          051  LM00069
                1          , KILL = LINE(I+2)                                       051  LM00070
 00222 CLA +0 50000 0 00012    00223 ADD +0 40000 0 00022    00224 PAX +0 73400 1 00000    00225 CLA +0 50000 1 00024
 00226 SUB +0 40200 0 00015    00227 TZE +0 10000 0 00236    00230 CLA +0 50000 0 00012    00231 ADD +0 40000 0 00022
 00232 PAX +0 73400 1 00000    00233 CLA +0 50000 1 00024    00234 SUB +0 40200 0 00007    00235 TNZ -0 10000 0 00243
 00236 CLA +0 50000 0 00012    00237 ADD +0 40000 0 00023    00240 PAX +0 73400 2 00000    00241 CLA +0 50000 2 00024
 00242 STO +0 60100 0 00013
                       I = I + 2                                                    052  LM00071
 00243 CLA +0 50000 0 00012    00244 ADD +0 40000 0 00023    00245 STO +0 60100 0 00012
                     OTHERWISE                                                      053  LM00073
 00246 TRA +0 02000 0 00256
                       SIZE = SIZE + 1                                              054  LM00074
 00247 CLA +0 50000 0 00024    00250 ADD +0 40000 0 00022    00251 STO +0 60100 0 00024
                       LINE(SIZE) = LINE(I)                                         055  LM00075
 00252 LXA +0 53400 1 00024    00253 LXA +0 53400 2 00012    00254 CLA +0 50000 2 00024    00255 STO +0 60100 1 00024
                     END OF CONDITIONAL                                             056  LM00076
      LLP          CONTINUE                                                         057  LM00077
 00256 TRA +0 02000 0 00051
                   FUNCTION RETURN                                                  058  LM00078
 00257 TRA +0 02000 0 00336
                 END OF FUNCTION                                                    059  LM00080
 00260 TSX +0 07400 4 00000    00261 TXH +3 00000 0 00000    00262 SXD -0 63400 1 00261    00263 SXA +0 63400 4 00336
 00264 CLA +0 50000 4 00001    00265 STA +0 62100 0 00030    00266 STA +0 62100 0 00036    00267 STA +0 62100 0 00061
 00270 STA +0 62100 0 00074    00271 STA +0 62100 0 00110    00272 STA +0 62100 0 00124    00273 STA +0 62100 0 00127
 00274 STA +0 62100 0 00141    00275 STA +0 62100 0 00144    00276 STA +0 62100 0 00157    00277 STA +0 62100 0 00163
 00300 STA +0 62100 0 00167    00301 STA +0 62100 0 00176    00302 STA +0 62100 0 00204    00303 STA +0 62100 0 00212
 00304 STA +0 62100 0 00220    00305 STA +0 62100 0 00225    00306 STA +0 62100 0 00233    00307 STA +0 62100 0 00241
 00310 STA +0 62100 0 00254    00311 STA +0 62100 0 00255    00312 CLA +0 50000 4 00002    00313 STA +0 62100 0 00055
 00314 CLA +0 50000 4 00003    00315 STA +0 62100 0 00045    00316 STA +0 62100 0 00066    00317 STA +0 62100 0 00073
 00320 STA +0 62100 0 00101    00321 STA +0 62100 0 00103    00322 STA +0 62100 0 00123    00323 STA +0 62100 0 00132
 00324 STA +0 62100 0 00134    00325 STA +0 62100 0 00140    00326 STA +0 62100 0 00147    00327 STA +0 62100 0 00151
 00330 STA +0 62100 0 00162    00331 STA +0 62100 0 00173    00332 STA +0 62100 0 00247    00333 STA +0 62100 0 00251
 00334 STA +0 62100 0 00252    00335 TRA +0 02000 2 00001    00336 AXT +0 77400 4 00000    00337 LXA +0 53400 2 00261
 00340 LXD -0 53400 1 00261    00341 TRA +0 02000 4 00001


 ASCON   BCD 02/25/69 1720.2    5002         00000
1     MAD PROGRAM LISTING ... ... ...                 FILE   ASCON   MAD            02/25/69    1715.0
-
                 ..   CHARACTER PACKING AND UNPACKING ROUTINES                                         LM00001
                 ..   INPUT AND OUTPUT IS ASCII FORMAT.                                                LM00002
                 ..   ROBERT MORRIS, JANUARY, 1966                                                     LM00003
                 ..                                                                                    LM00004
                 ..   MAD CALLING SEQUENCES                                                            LM00005
                 ..   WRITE.(LINE,LENGTH)  WRITES OUT ONE ASCII LINE                                   LM00006
                 ..   CLOSEW.        CLOSES WRITE FILE                                                 LM00007
                 ..   READ.(LINE,BUFSIZ,EOF) READS ONE ASCII LINE                                      LM00008
                 ..   BOTTOM.        SWING TO BOTTOM OF FILE                                           LM00009
                 ..   THESE ROUTINES TREAT THE ETX CHARACTER                                           LM00010
                 ..   AS AN END OF FILE                                                                LM00011
                 ..   NUL CHARACTERS AND DEL CHARACTERS ARE                                            LM00012
                 ..   DELETED ON INPUT.                                                                LM00013
                 ..                                                                                    LM00014
                 ..                                                                                    LM00015
                  EXTERNAL FUNCTION (LINE,BUFSIZ,EOF)                                             *001 LM00016
                  NORMAL MODE IS INTEGER                                                          *002 LM00017
                 ..                                                                                    LM00018
                  VECTOR VALUES NULL   = 0K                                                       *003 LM00019
                  VECTOR VALUES NUL    = 0K                                                       *004 LM00020
                  VECTOR VALUES DEL    = 177K                                                     *005 LM00021
                  VECTOR VALUES ETX    = 3K                                                       *006 LM00022
                  VECTOR VALUES NL     = 12K                                                      *007 LM00023
                  VECTOR VALUES CHMASK = 777K                                                     *008 LM00024
                  VECTOR VALUES NBITS  = 9                                                        *009 LM00025
                  VECTOR VALUES NCHRS  = 4                                                        *010 LM00026
                  STATEMENT LABEL EOF                                                             *011 LM00027
                 ..                                                                                    LM00028
                 ..                                                                                    LM00029
                  ENTRY TO WRITE.                                                                 *012 LM00030
                  THROUGH WLOOP, FOR J = 1,1, J .G. BUFSIZ                                        *013 LM00031
      WLOOP       PUTCHR.(LINE(J))                                                                *014 LM00032
                  FUNCTION RETURN                                                                 *015 LM00033
                 ..                                                                                    LM00034
                 ..                                                                                    LM00035
                  ENTRY TO CLOSEW.                                                                *016 LM00036
                  WHENEVER CHARS .G. 0, PUTCHR.(ETX)                                              *017 LM00037
      CLLOOP      WHENEVER CHARS .G. 0                                                            *018 LM00038
                     PUTCHR.(NULL)                                                                *019 LM00039
                     TRANSFER TO CLLOOP                                                           *020 LM00040
                  END OF CONDITIONAL                                                              *021 LM00041
                  FILE.                                                                           *022 LM00042
                  FUNCTION RETURN                                                                 *023 LM00043
                 ..                                                                                    LM00044
                 ..                                                                                    LM00045
                  ENTRY TO READ.                                                                  *024 LM00046
                  SIZE = 0                                                                        *025 LM00047
      RLOOP       SIZE = SIZE + 1                                                                 *026 LM00048
                  LINE(SIZE) = GETCHR.(ENDFIL)                                                    *027 LM00049
                  WHENEVER SIZE .GE. BUFSIZ .OR. LINE(SIZE) .E. NL, FUNCTION RETURN SIZE          *028 LM00050
                  TRANSFER TO RLOOP                                                               *029 LM00051
                 ..                                                                                    LM00052
      ENDFIL      WHENEVER SIZE .G. 1, FUNCTION RETURN SIZE-1                                     *030 LM00053
                  CRLEFT = 0                                                                      *031 LM00054
                  TRANSFER TO EOF                                                                 *032 LM00055
                 ..                                                                                    LM00056
                 ..                                                                                    LM00057
                  ENTRY TO BOTTOM.                                                                *033 LM00058
      BLOOP       PUTCHR.(GETCHR.(ALLGON))                                                        *034 LM00059
                  TRANSFER TO BLOOP                                                               *035 LM00060
      ALLGON      CRLEFT = 0                                                                      *036 LM00061
                  FUNCTION RETURN                                                                 *037 LM00062
                 ..                                                                                    LM00063
                 ..                                                                                    LM00064
                 ..                                                                                    LM00065
                  INTERNAL FUNCTION (TRAD)                                                        *038 LM00066
                  STATEMENT LABEL TRAD                                                            *039 LM00067
                  VECTOR VALUES CRLEFT = 0                                                        *040 LM00068
                  ENTRY TO GETCHR.                                                                *041 LM00069
      GETMOR      WHENEVER CRLEFT .E. 0                                                           *042 LM00070
                     INWORD = RDWORD.(GETEOF)                                                     *043 LM00071
                     CRLEFT = NCHRS                                                               *044 LM00072
                  END OF CONDITIONAL                                                              *045 LM00073
                     CHAR = (INWORD.RS.(36-NBITS)) .A. CHMASK                                     *046 LM00074
                  WHENEVER CHAR .E. ETX, TRANSFER TO GETEOF                                       *047 LM00075
                     INWORD = INWORD .LS. NBITS                                                   *048 LM00076
                     CRLEFT = CRLEFT - 1                                                          *049 LM00077
                  WHENEVER CHAR .E. NUL .OR. CHAR .E. DEL, TRANSFER TO GETMOR                     *050 LM00078
                  FUNCTION RETURN CHAR                                                            *051 LM00079
      GETEOF      TRANSFER TO TRAD                                                                *052 LM00080
                  END OF FUNCTION                                                                 *053 LM00081
                 ..                                                                                    LM00082
                 ..                                                                                    LM00083
                  INTERNAL FUNCTION (ABC)                                                         *054 LM00084
                  VECTOR VALUES CHARS = 0                                                         *055 LM00085
                  ENTRY TO PUTCHR.                                                                *056 LM00086
                  TWORD = (TWORD.LS.NBITS) .V. ABC                                                *057 LM00087
                  CHARS = CHARS + 1                                                               *058 LM00088
                  WHENEVER CHARS .GE. NCHRS                                                       *059 LM00089
                     WRWORD.(TWORD)                                                               *060 LM00090
                     CHARS = 0                                                                    *061 LM00091
                  END OF CONDITIONAL                                                              *062 LM00092
                  FUNCTION RETURN                                                                 *063 LM00093
                  END OF FUNCTION                                                                 *064 LM00094
                 ..                                                                                    LM00095
                 ..                                                                                    LM00096
                  END OF FUNCTION                                                                 *065 LM00097
1MAD PROGRAM,TYPE NOV 1963      (ALL NUMBERS ARE OCTAL)
0TOTAL LOCATIONS   00336 TRANSFER VECTOR LENGTH  00004 PROGRAM BEGINS    00041
0 PROGRAM IS AN EXTERNAL FUNCTION.   THE FOLLOWING ARE ENTRIES
      BOTTOM 00151   0        READ   00111   0        CLOSEW 00067   0        WRITE  00042   0
0VARIABLE STORAGE (A=ARRAY,C=COMMON,E=ERASABLE,DIGIT=MODE)
      ALLGON 00007   4        CLLOOP 00011   4        GETEOF 00013   4        NCHRS  00027 A 1        RLOOP  00015   4
      BLOOP  00010   4        CRLEFT 00021 A 1        GETMOR 00014   4        NL     00030 A 1        SIZE   00033   1
      CHAR   00016   1        DEL    00022 A 1        INWORD 00024   1        NULL   00031 A 1        TWORD  00034   1
      CHARS  00017 A 1        ENDFIL 00012   4        J      00025   1        NUL    00032 A 1        WLOOP  00006   4
      CHMASK 00020 A 1        ETX    00023 A 1        NBITS  00026 A 1
0FUNCTION DICTIONARY
      EXIT   00000   1        FILE   00001   1        RDWORD 00002   1        WRWORD 00003   1        GETCHR 00004   1
      PUTCHR 00005   1
0ABSOLUTE CONSTANTS
 00037 +000000000044     00035 +000000000000     00036 +000000000001     00040 +233000000000
0STATEMENT DICTIONARY
 00007 TXL -300163000161       00010 TXL -300160000153       00011 TXL -300103000077       00012 TXL -300145000136
 00013 TXL -300235000234       00014 TXL -300173000170       00015 TXL -300120000115
0PROGRAM
                 EXTERNAL FUNCTION (LINE,BUFSIZ,EOF)                                001  LM00016
                 NORMAL MODE IS INTEGER                                             002  LM00017
                 VECTOR VALUES NULL   = 0K                                          003  LM00019
 00031     +0 00000 0 00000
                 VECTOR VALUES NUL    = 0K                                          004  LM00020
 00032     +0 00000 0 00000
                 VECTOR VALUES DEL    = 177K                                        005  LM00021
 00022     +0 00000 0 00177
                 VECTOR VALUES ETX    = 3K                                          006  LM00022
 00023     +0 00000 0 00003
                 VECTOR VALUES NL     = 12K                                         007  LM00023
 00030     +0 00000 0 00012
                 VECTOR VALUES CHMASK = 777K                                        008  LM00024
 00020     +0 00000 0 00777
                 VECTOR VALUES NBITS  = 9                                           009  LM00025
 00026     +0 00000 0 00011
                 VECTOR VALUES NCHRS  = 4                                           010  LM00026
 00027     +0 00000 0 00004
                 STATEMENT LABEL EOF                                                011  LM00027
                 ENTRY TO WRITE.                                                    012  LM00030
 00041 TRA +0 02000 0 00044    00042 SXA +0 63400 2 00312    00043 TSX +0 07400 2 00312
                 THROUGH WLOOP, FOR J = 1,1, J .G. BUFSIZ                           013  LM00031
 00044 CLA +0 50000 0 00036    00045 STO +0 60100 0 00025    00046 TRA +0 02000 0 00052    00047 CLA +0 50000 0 00025
 00050 ADD +0 40000 0 00036    00051 STO +0 60100 0 00025    00052 CLA +0 50000 0 00025    00053 SUB +0 40200 0 00024
 00054 TZE +0 10000 0 00056    00055 TPL +0 12000 0 00065
      WLOOP      PUTCHR.(LINE(J))                                                   014  LM00032
 00056 CLA +0 50000 0 00025    00057 SUB +0 40200 0 00060    00060 TXH +3 00000 0 00024    00061 STA +0 62100 0 00063
 00062 TSX +0 07400 4 00005    00063 TXH +3 00000 0 00000    00064 TRA +0 02000 0 00047
                 FUNCTION RETURN                                                    015  LM00033
 00065 TRA +0 02000 0 00327
                 ENTRY TO CLOSEW.                                                   016  LM00036
 00066 TRA +0 02000 0 00071    00067 SXA +0 63400 2 00312    00070 TSX +0 07400 2 00312
                 WHENEVER CHARS .G. 0, PUTCHR.(ETX)                                 017  LM00037
 00071 CLA +0 50000 0 00017    00072 SUB +0 40200 0 00035    00073 TZE +0 10000 0 00077    00074 TMI -0 12000 0 00077
 00075 TSX +0 07400 4 00005    00076 TXH +3 00000 0 00023
      CLLOOP     WHENEVER CHARS .G. 0                                               018  LM00038
 00077 CLA +0 50000 0 00017    00100 SUB +0 40200 0 00035    00101 TZE +0 10000 0 00106    00102 TMI -0 12000 0 00106
                    PUTCHR.(NULL)                                                   019  LM00039
 00103 TSX +0 07400 4 00005    00104 TXH +3 00000 0 00031
                    TRANSFER TO CLLOOP                                              020  LM00040
 00105 TRA +0 02000 0 00011
                 END OF CONDITIONAL                                                 021  LM00041
                 FILE.                                                              022  LM00042
 00106 TSX +0 07400 4 00001
                 FUNCTION RETURN                                                    023  LM00043
 00107 TRA +0 02000 0 00327
                 ENTRY TO READ.                                                     024  LM00046
 00110 TRA +0 02000 0 00113    00111 SXA +0 63400 2 00312    00112 TSX +0 07400 2 00312
                 SIZE = 0                                                           025  LM00047
 00113 CLA +0 50000 0 00035    00114 STO +0 60100 0 00033
      RLOOP      SIZE = SIZE + 1                                                    026  LM00048
 00115 CLA +0 50000 0 00033    00116 ADD +0 40000 0 00036    00117 STO +0 60100 0 00033
                 LINE(SIZE) = GETCHR.(ENDFIL)                                       027  LM00049
 00120 TSX +0 07400 4 00004    00121 TXH +3 00000 0 00012    00122 LXA +0 53400 1 00033    00123 STO +0 60100 1 00024
                 WHENEVER SIZE .GE. BUFSIZ .OR. LINE(SIZE) .E. NL, F'N SIZE         028  LM00050
 00124 CLA +0 50000 1 00024    00125 SUB +0 40200 0 00030    00126 TZE +0 10000 0 00133    00127 CLA +0 50000 0 00033
 00130 SUB +0 40200 0 00024    00131 TZE +0 10000 0 00133    00132 TMI -0 12000 0 00135    00133 CLA +0 50000 0 00033
 00134 TRA +0 02000 0 00327
                 TRANSFER TO RLOOP                                                  029  LM00051
 00135 TRA +0 02000 0 00015
      ENDFIL     WHENEVER SIZE .G. 1, FUNCTION RETURN SIZE-1                        030  LM00053
 00136 CLA +0 50000 0 00033    00137 SUB +0 40200 0 00036    00140 TZE +0 10000 0 00145    00141 TMI -0 12000 0 00145
 00142 CLA +0 50000 0 00033    00143 SUB +0 40200 0 00036    00144 TRA +0 02000 0 00327
                 CRLEFT = 0                                                         031  LM00054
 00145 CLA +0 50000 0 00035    00146 STO +0 60100 0 00021
                 TRANSFER TO EOF                                                    032  LM00055
 00147 TRA +0 02000 0 00024
                 ENTRY TO BOTTOM.                                                   033  LM00058
 00150 TRA +0 02000 0 00153    00151 SXA +0 63400 2 00312    00152 TSX +0 07400 2 00312
      BLOOP      PUTCHR.(GETCHR.(ALLGON))                                           034  LM00059
 00153 TSX +0 07400 4 00004    00154 TXH +3 00000 0 00007    00155 STO +0 60100 0 00333    00156 TSX +0 07400 4 00005
 00157 TXH +3 00000 0 00333
                 TRANSFER TO BLOOP                                                  035  LM00060
 00160 TRA +0 02000 0 00010
      ALLGON     CRLEFT = 0                                                         036  LM00061
 00161 CLA +0 50000 0 00035    00162 STO +0 60100 0 00021
                 FUNCTION RETURN                                                    037  LM00062
 00163 TRA +0 02000 0 00327
                 INTERNAL FUNCTION (TRAD)                                           038  LM00066
 00164 TRA +0 02000 0 00250
                 STATEMENT LABEL TRAD                                               039  LM00067
                 VECTOR VALUES CRLEFT = 0                                           040  LM00068
 00021     +0 00000 0 00000
                 ENTRY TO GETCHR.                                                   041  LM00069
 00165 TRA +0 02000 0 00170    00004 TTR +0 02100 0 00166    00166 SXA +0 63400 2 00236    00167 TSX +0 07400 2 00236
      GETMOR     WHENEVER CRLEFT .E. 0                                              042  LM00070
 00170 CLA +0 50000 0 00021    00171 SUB +0 40200 0 00035    00172 TNZ -0 10000 0 00200
                    INWORD = RDWORD.(GETEOF)                                        043  LM00071
 00173 TSX +0 07400 4 00002    00174 TXH +3 00000 0 00013    00175 STO +0 60100 0 00024
                    CRLEFT = NCHRS                                                  044  LM00072
 00176 CLA +0 50000 0 00027    00177 STO +0 60100 0 00021
                 END OF CONDITIONAL                                                 045  LM00073
                    CHAR = (INWORD.RS.(36-NBITS)) .A. CHMASK                        046  LM00074
 00200 CLA +0 50000 0 00037    00201 SUB +0 40200 0 00026    00202 STA +0 62100 0 00204    00203 CAL -0 50000 0 00024
 00204 LGR -0 76500 0 00000    00205 ANA -0 32000 0 00020    00206 SLW +0 60200 0 00016
                 WHENEVER CHAR .E. ETX, TRANSFER TO GETEOF                          047  LM00075
 00207 CLA +0 50000 0 00016    00210 SUB +0 40200 0 00023    00211 TNZ -0 10000 0 00213    00212 TRA +0 02000 0 00013
                    INWORD = INWORD .LS. NBITS                                      048  LM00076
 00213 CAL -0 50000 0 00026    00214 STA +0 62100 0 00216    00215 CAL -0 50000 0 00024    00216 ALS +0 76700 0 00000
 00217 SLW +0 60200 0 00024
                    CRLEFT = CRLEFT - 1                                             049  LM00077
 00220 CLA +0 50000 0 00021    00221 SUB +0 40200 0 00036    00222 STO +0 60100 0 00021
                 WHENEVER CHAR .E. NUL .OR. CHAR .E. DEL, TRANSFER TO GETMOR        050  LM00078
 00223 CLA +0 50000 0 00016    00224 SUB +0 40200 0 00022    00225 TZE +0 10000 0 00231    00226 CLA +0 50000 0 00016
 00227 SUB +0 40200 0 00032    00230 TNZ -0 10000 0 00232    00231 TRA +0 02000 0 00014
                 FUNCTION RETURN CHAR                                               051  LM00079
 00232 CLA +0 50000 0 00016    00233 TRA +0 02000 0 00244
      GETEOF     TRANSFER TO TRAD                                                   052  LM00080
 00234 TRA +0 02000 0 00024
                 END OF FUNCTION                                                    053  LM00081
 00235 TSX +0 07400 4 00000    00236 TXH +3 00000 0 00000    00237 SXD -0 63400 1 00236    00240 SXA +0 63400 4 00244
 00241 CLA +0 50000 4 00001    00242 STA +0 62100 0 00234    00243 TRA +0 02000 2 00001    00244 AXT +0 77400 4 00000
 00245 LXA +0 53400 2 00236    00246 LXD -0 53400 1 00236    00247 TRA +0 02000 4 00001
                 INTERNAL FUNCTION (ABC)                                            054  LM00084
 00250 TRA +0 02000 0 00311
                 VECTOR VALUES CHARS = 0                                            055  LM00085
 00017     +0 00000 0 00000
                 ENTRY TO PUTCHR.                                                   056  LM00086
 00251 TRA +0 02000 0 00254    00005 TTR +0 02100 0 00252    00252 SXA +0 63400 2 00277    00253 TSX +0 07400 2 00277
                 TWORD = (TWORD.LS.NBITS) .V. ABC                                   057  LM00087
 00254 CAL -0 50000 0 00026    00255 STA +0 62100 0 00257    00256 CAL -0 50000 0 00034    00257 ALS +0 76700 0 00000
 00260 ORA -0 50100 0 00024    00261 SLW +0 60200 0 00034
                 CHARS = CHARS + 1                                                  058  LM00088
 00262 CLA +0 50000 0 00017    00263 ADD +0 40000 0 00036    00264 STO +0 60100 0 00017
                 WHENEVER CHARS .GE. NCHRS                                          059  LM00089
 00265 CLA +0 50000 0 00017    00266 SUB +0 40200 0 00027    00267 TZE +0 10000 0 00271    00270 TMI -0 12000 0 00275
                    WRWORD.(TWORD)                                                  060  LM00090
 00271 TSX +0 07400 4 00003    00272 TXH +3 00000 0 00034
                    CHARS = 0                                                       061  LM00091
 00273 CLA +0 50000 0 00035    00274 STO +0 60100 0 00017
                 END OF CONDITIONAL                                                 062  LM00092
                 FUNCTION RETURN                                                    063  LM00093
 00275 TRA +0 02000 0 00305
                 END OF FUNCTION                                                    064  LM00094
 00276 TSX +0 07400 4 00000    00277 TXH +3 00000 0 00000    00300 SXD -0 63400 1 00277    00301 SXA +0 63400 4 00305
 00302 CLA +0 50000 4 00001    00303 STA +0 62100 0 00260    00304 TRA +0 02000 2 00001    00305 AXT +0 77400 4 00000
 00306 LXA +0 53400 2 00277    00307 LXD -0 53400 1 00277    00310 TRA +0 02000 4 00001
                 END OF FUNCTION                                                    065  LM00097
 00311 TSX +0 07400 4 00000    00312 TXH +3 00000 0 00000    00313 SXD -0 63400 1 00312    00314 SXA +0 63400 4 00327
 00315 CLA +0 50000 4 00001    00316 STO +0 60100 0 00060    00317 STA +0 62100 0 00123    00320 STA +0 62100 0 00124
 00321 CLA +0 50000 4 00002    00322 STA +0 62100 0 00053    00323 STA +0 62100 0 00130    00324 CLA +0 50000 4 00003
 00325 STA +0 62100 0 00147    00326 TRA +0 02000 2 00001    00327 AXT +0 77400 4 00000    00330 LXA +0 53400 2 00312
 00331 LXD -0 53400 1 00312    00332 TRA +0 02000 4 00001


ASCTYP   BCD 02/25/69 1720.2    4254         00000
1     MAD PROGRAM LISTING ... ... ...                 FILE  ASCTYP   MAD            02/25/69    1715.1
-
                 ..  TYPEWRITER INPUT CHARACTER CONTROL ROUTINE.                                       LM00001
                 ..  USAGE. . .   COUNT = TYPEIN.(BUFFER, BUFSIZ)                                      LM00002
                           J. H. SALTZER, JANUARY, 1965.                                               LM00003
                                                                                                       LM00004
                  EXTERNAL FUNCTION(LINE, BUFSIZ)                                                 *001 LM00005
                                                                                                       LM00006
                  NORMAL MODE IS INTEGER                                                          *002 LM00007
                  VECTOR VALUES NBITS = 12                                                        *003 LM00008
                  VECTOR VALUES NULL = 0057K                                                      *004 LM00009
                  VECTOR VALUES RETURN = 0055K                                                    *005 LM00010
                  VECTOR VALUES WRDSIZ = 36                                                       *006 LM00011
                  VECTOR VALUES CHMASK = 777K                                                     *007 LM00012
                  VECTOR VALUES ASCRET = 12K                                                      *008 LM00013
                  DIMENSION XLINE(361)                                                            *009 LM00014
                                                                                                       LM00015
                  ENTRY TO TYPEIN.                                                                *010 LM00016
                                                                                                       LM00017
                 ..  GET INPUT, CONVERT TO ASCII.                                                      LM00018
                                                                                                       LM00019
                    SIZE = 0                                                                      *011 LM00020
                    OSIZE = 0                                                                     *012 LM00021
      BUG2          TYLINE.                                                                       *013 LM00022
       LOOP         WORD = TYWORD.(0)                                                             *014 LM00023
                    THROUGH DISECT, FOR I = WRDSIZ-NBITS,-NBITS, I .L. 0                          *015 LM00024
                      CHAR = (WORD.RS.I) .A. CHMASK                                               *016 LM00025
                      SIZE = SIZE + 1                                                             *017 LM00026
                      LINE(SIZE) = TSSASC.(CHAR)                                                  *018 LM00027
                      WHENEVER CHAR .E. RETURN .OR. SIZE .GE. BUFSIZ                              *019 LM00028
                1           , TRANSFER TO PROC                                                    *019 LM00029
      DISECT          CONTINUE                                                                    *020 LM00030
                    TRANSFER TO LOOP                                                              *021 LM00031
                                                                                                       LM00032
                 ..  REMOVE ESCAPES AND LOOK FOR BREAK CHARACTER.                                      LM00033
                                                                                                       LM00034
      PROC        OUTESC.(LINE(OSIZE), SIZE-OSIZE, LINE(OSIZE), XSIZE                             *022 LM00035
                1           , BUFSIZ-OSIZE)                                                       *022 LM00036
                    XSIZE = XSIZE + OSIZE                                                         *023 LM00037
                    WHENEVER  XSIZE .GE. BUFSIZ, TRANSFER TO BUG2A                                *024 LM00038
                    WHENEVER LINE(XSIZE) .NE. ASCRET                                              *025 LM00039
                       OSIZE = XSIZE                                                              *026 LM00040
                       SIZE = XSIZE                                                               *027 LM00041
                       TRANSFER TO BUG2                                                           *028 LM00042
                    END OF CONDITIONAL                                                            *029 LM00043
                                                                                                       LM00044
                 ..  GO TO CANONICAL AND DO ERASE AND KILL.                                            LM00045
                                                                                                       LM00046
      BUG2A         CANON.(LINE, XSIZE, BUFSIZ)                                                   *030 LM00047
                    EKEDIT.(LINE, XSIZE, SIZE)                                                    *031 LM00048
                    FUNCTION RETURN SIZE                                                          *032 LM00049
                                                                                                       LM00050
                 ..     TYPEWRITER OUTPUT CHARACTER CONTROL ROUTINE.                                   LM00051
                 ..     USAGE. . .    TYPOUT.(LINE, LENGTH)                                            LM00052
                                                                                                       LM00053
                  ENTRY TO TYPOUT.                                                                *033 LM00054
                    INESC.(LINE,BUFSIZ,XLINE,SIZE,361)                                            *034 LM00055
                    SETFUL.                                                                       *035 LM00056
                    K = 0                                                                         *036 LM00057
                    THROUGH PRLOOP, FOR J = 1, 1, J .G. SIZE                                      *037 LM00058
                      TWORD = (TWORD .LS. NBITS) .V. ASCTSS.(XLINE(J))                            *038 LM00059
                      K = K + 1                                                                   *039 LM00060
                      WHENEVER K .GE. WRDSIZ/NBITS                                                *040 LM00061
                        K = 0                                                                     *041 LM00062
                        PRWORD.(TWORD)                                                            *042 LM00063
       PRLOOP         END OF CONDITIONAL                                                          *043 LM00064
                    THROUGH NULPK, FOR K = K, 1, K.GE. WRDSIZ/NBITS                               *044 LM00065
       NULPK          TWORD = (TWORD.LS.NBITS) .V. NULL                                           *045 LM00066
                    PRWORD.(TWORD)                                                                *046 LM00067
                    PRBUFF.                                                                       *047 LM00068
                    FUNCTION RETURN                                                               *048 LM00069
                 ..                                                                                    LM00070
                  ENTRY TO HOL.                                                                   *049 LM00071
                  FUNCTION RETURN ASCTSS.(LINE) .A. 77K                                           *050 LM00072
                                                                                                       LM00073
                  END OF FUNCTION                                                                 *051 LM00074
1MAD PROGRAM,TYPE NOV 1963      (ALL NUMBERS ARE OCTAL)
0TOTAL LOCATIONS   01140 TRANSFER VECTOR LENGTH  00014 PROGRAM BEGINS    00617
0 PROGRAM IS AN EXTERNAL FUNCTION.   THE FOLLOWING ARE ENTRIES
      HOL    01072   0        TYPOUT 00754   0        TYPEIN 00620   0
0VARIABLE STORAGE (A=ARRAY,C=COMMON,E=ERASABLE,DIGIT=MODE)
      ASCRET 00021 A 1        DISECT 00014   4        NBITS  00027 A 1        PROC   00020   4        WORD   00035   1
      BUG2A  00015   4        I      00024   1        NULL   00030 A 1        RETURN 00032 A 1        WRDSIZ 00036 A 1
      BUG2   00016   4        J      00025   1        NULPK  00014   4        SIZE   00033   1        XLINE  00610 A 1
      CHAR   00022   1        K      00026   1        OSIZE  00031   1        TWORD  00034   1        XSIZE  00611   1
      CHMASK 00023 A 1        LOOP   00017   4        PRLOOP 00014   4
0FUNCTION DICTIONARY
      ASCTSS 00000   1        CANON  00001   1        EKEDIT 00002   1        EXIT   00003   1        INESC  00004   1
      OUTESC 00005   1        PRBUFF 00006   1        PRWORD 00007   1        SETFUL 00010   1        TSSASC 00011   1
      TYLINE 00012   1        TYWORD 00013   1
0ABSOLUTE CONSTANTS
 00614 +000000000077     00615 +000000000551     00612 +000000000000     00613 +000000000001     00616 +233000000000
0STATEMENT DICTIONARY
 00015 TXL -300745000741       00016 TXL -300627000626       00017 TXL -300632000627       00020 TXL -300720000674
0PROGRAM
                 EXTERNAL FUNCTION(LINE, BUFSIZ)                                    001  LM00005
                 NORMAL MODE IS INTEGER                                             002  LM00007
                 VECTOR VALUES NBITS = 12                                           003  LM00008
 00027     +0 00000 0 00014
                 VECTOR VALUES NULL = 0057K                                         004  LM00009
 00030     +0 00000 0 00057
                 VECTOR VALUES RETURN = 0055K                                       005  LM00010
 00032     +0 00000 0 00055
                 VECTOR VALUES WRDSIZ = 36                                          006  LM00011
 00036     +0 00000 0 00044
                 VECTOR VALUES CHMASK = 777K                                        007  LM00012
 00023     +0 00000 0 00777
                 VECTOR VALUES ASCRET = 12K                                         008  LM00013
 00021     +0 00000 0 00012
                 DIMENSION XLINE(361)                                               009  LM00014
                 ENTRY TO TYPEIN.                                                   010  LM00016
 00617 TRA +0 02000 0 00622    00620 SXA +0 63400 2 01105    00621 TSX +0 07400 2 01105
                   SIZE = 0                                                         011  LM00020
 00622 CLA +0 50000 0 00612    00623 STO +0 60100 0 00033
                   OSIZE = 0                                                        012  LM00021
 00624 CLA +0 50000 0 00612    00625 STO +0 60100 0 00031
      BUG2         TYLINE.                                                          013  LM00022
 00626 TSX +0 07400 4 00012
       LOOP        WORD = TYWORD.(0)                                                014  LM00023
 00627 TSX +0 07400 4 00013    00630 TXH +3 00000 0 00612    00631 STO +0 60100 0 00035
                   THROUGH DISECT, FOR I = WRDSIZ-NBITS,-NBITS, I .L. 0             015  LM00024
 00632 CLA +0 50000 0 00036    00633 SUB +0 40200 0 00027    00634 STO +0 60100 0 00024    00635 TRA +0 02000 0 00641
 00636 CLS +0 50200 0 00027    00637 ADD +0 40000 0 00024    00640 STO +0 60100 0 00024    00641 CLA +0 50000 0 00024
 00642 SUB +0 40200 0 00612    00643 TZE +0 10000 0 00645    00644 TMI -0 12000 0 00673
                     CHAR = (WORD.RS.I) .A. CHMASK                                  016  LM00025
 00645 CAL -0 50000 0 00024    00646 STA +0 62100 0 00650    00647 CAL -0 50000 0 00035    00650 LGR -0 76500 0 00000
 00651 ANA -0 32000 0 00023    00652 SLW +0 60200 0 00022
                     SIZE = SIZE + 1                                                017  LM00026
 00653 CLA +0 50000 0 00033    00654 ADD +0 40000 0 00613    00655 STO +0 60100 0 00033
                     LINE(SIZE) = TSSASC.(CHAR)                                     018  LM00027
 00656 TSX +0 07400 4 00011    00657 TXH +3 00000 0 00022    00660 LXA +0 53400 1 00033    00661 STO +0 60100 1 00024
                     WHENEVER CHAR .E. RETURN .OR. SIZE .GE. BUFSIZ                 019  LM00028
                1          , TRANSFER TO PROC                                       019  LM00029
 00662 CLA +0 50000 0 00033    00663 SUB +0 40200 0 00024    00664 TZE +0 10000 0 00671    00665 TPL +0 12000 0 00671
 00666 CLA +0 50000 0 00022    00667 SUB +0 40200 0 00032    00670 TNZ -0 10000 0 00672    00671 TRA +0 02000 0 00020
      DISECT         CONTINUE                                                       020  LM00030
 00672 TRA +0 02000 0 00636
                   TRANSFER TO LOOP                                                 021  LM00031
 00673 TRA +0 02000 0 00017
      PROC       OUTESC.(LINE(OSIZE), SIZE-OSIZE, LINE(OSIZE), XSIZE                022  LM00035
                1          , BUFSIZ-OSIZE)                                          022  LM00036
 00674 CLA +0 50000 0 00024    00675 SUB +0 40200 0 00031    00676 STO +0 60100 0 01134    00677 CLA +0 50000 0 00031
 00700 SUB +0 40200 0 00701    00701 TXH +3 00000 0 00024    00702 STA +0 62100 0 00715    00703 CLA +0 50000 0 00033
 00704 SUB +0 40200 0 00031    00705 STO +0 60100 0 01135    00706 CLA +0 50000 0 00031    00707 SUB +0 40200 0 00710
 00710 TXH +3 00000 0 00024    00711 STA +0 62100 0 00713    00712 TSX +0 07400 4 00005    00713 TXH +3 00000 0 00000
 00714 TXH +3 00000 0 01135    00715 TXH +3 00000 0 00000    00716 TXH +3 00000 0 00611    00717 TXH +3 00000 0 01134
                   XSIZE = XSIZE + OSIZE                                            023  LM00037
 00720 CLA +0 50000 0 00611    00721 ADD +0 40000 0 00031    00722 STO +0 60100 0 00611
                   WHENEVER  XSIZE .GE. BUFSIZ, TRANSFER TO BUG2A                   024  LM00038
 00723 CLA +0 50000 0 00611    00724 SUB +0 40200 0 00024    00725 TZE +0 10000 0 00727    00726 TMI -0 12000 0 00730
 00727 TRA +0 02000 0 00015
                   WHENEVER LINE(XSIZE) .NE. ASCRET                                 025  LM00039
 00730 LXA +0 53400 1 00611    00731 CLA +0 50000 1 00024    00732 SUB +0 40200 0 00021    00733 TZE +0 10000 0 00741
                      OSIZE = XSIZE                                                 026  LM00040
 00734 CLA +0 50000 0 00611    00735 STO +0 60100 0 00031
                      SIZE = XSIZE                                                  027  LM00041
 00736 CLA +0 50000 0 00611    00737 STO +0 60100 0 00033
                      TRANSFER TO BUG2                                              028  LM00042
 00740 TRA +0 02000 0 00016
                   END OF CONDITIONAL                                               029  LM00043
      BUG2A        CANON.(LINE, XSIZE, BUFSIZ)                                      030  LM00047
 00741 TSX +0 07400 4 00001    00742 TXH +3 00000 0 00024    00743 TXH +3 00000 0 00611    00744 TXH +3 00000 0 00024
                   EKEDIT.(LINE, XSIZE, SIZE)                                       031  LM00048
 00745 TSX +0 07400 4 00002    00746 TXH +3 00000 0 00024    00747 TXH +3 00000 0 00611    00750 TXH +3 00000 0 00033
                   FUNCTION RETURN SIZE                                             032  LM00049
 00751 CLA +0 50000 0 00033    00752 TRA +0 02000 0 01130
                 ENTRY TO TYPOUT.                                                   033  LM00054
 00753 TRA +0 02000 0 00756    00754 SXA +0 63400 2 01105    00755 TSX +0 07400 2 01105
                   INESC.(LINE,BUFSIZ,XLINE,SIZE,361)                               034  LM00055
 00756 TSX +0 07400 4 00004    00757 TXH +3 00000 0 00024    00760 TXH +3 00000 0 00024    00761 TXH +3 00000 0 00610
 00762 TXH +3 00000 0 00033    00763 TXH +3 00000 0 00615
                   SETFUL.                                                          035  LM00056
 00764 TSX +0 07400 4 00010
                   K = 0                                                            036  LM00057
 00765 CLA +0 50000 0 00612    00766 STO +0 60100 0 00026
                   THROUGH PRLOOP, FOR J = 1, 1, J .G. SIZE                         037  LM00058
 00767 CLA +0 50000 0 00613    00770 STO +0 60100 0 00025    00771 TRA +0 02000 0 00775    00772 CLA +0 50000 0 00025
 00773 ADD +0 40000 0 00613    00774 STO +0 60100 0 00025    00775 CLA +0 50000 0 00025    00776 SUB +0 40200 0 00033
 00777 TZE +0 10000 0 01001    01000 TPL +0 12000 0 01037
                     TWORD = (TWORD .LS. NBITS) .V. ASCTSS.(XLINE(J))               038  LM00059
 01001 CLA +0 50000 0 00025    01002 SUB +0 40200 0 01003    01003 TXH +3 00000 0 00610    01004 STA +0 62100 0 01006
 01005 TSX +0 07400 4 00000    01006 TXH +3 00000 0 00000    01007 STO +0 60100 0 01135    01010 CAL -0 50000 0 00027
 01011 STA +0 62100 0 01013    01012 CAL -0 50000 0 00034    01013 ALS +0 76700 0 00000    01014 ORA -0 50100 0 01135
 01015 SLW +0 60200 0 00034
                     K = K + 1                                                      039  LM00060
 01016 CLA +0 50000 0 00026    01017 ADD +0 40000 0 00613    01020 STO +0 60100 0 00026
                     WHENEVER K .GE. WRDSIZ/NBITS                                   040  LM00061
 01021 LDQ +0 56000 0 00036    01022 PXD -0 75400 0 00000    01023 LLS +0 76300 0 00000    01024 DVP +0 22100 0 00027
 01025 XCA +0 13100 0 00000    01026 CHS +0 76000 0 00002    01027 ADD +0 40000 0 00026    01030 TZE +0 10000 0 01032
 01031 TMI -0 12000 0 01036
                       K = 0                                                        041  LM00062
 01032 CLA +0 50000 0 00612    01033 STO +0 60100 0 00026
                       PRWORD.(TWORD)                                               042  LM00063
 01034 TSX +0 07400 4 00007    01035 TXH +3 00000 0 00034
       PRLOOP        END OF CONDITIONAL                                             043  LM00064
 01036 TRA +0 02000 0 00772
                   THROUGH NULPK, FOR K = K, 1, K.GE. WRDSIZ/NBITS                  044  LM00065
 01037 CLA +0 50000 0 00026    01040 STO +0 60100 0 00026    01041 TRA +0 02000 0 01045    01042 CLA +0 50000 0 00026
 01043 ADD +0 40000 0 00613    01044 STO +0 60100 0 00026    01045 LDQ +0 56000 0 00036    01046 PXD -0 75400 0 00000
 01047 LLS +0 76300 0 00000    01050 DVP +0 22100 0 00027    01051 XCA +0 13100 0 00000    01052 CHS +0 76000 0 00002
 01053 ADD +0 40000 0 00026    01054 TZE +0 10000 0 01065    01055 TPL +0 12000 0 01065
       NULPK         TWORD = (TWORD.LS.NBITS) .V. NULL                              045  LM00066
 01056 CAL -0 50000 0 00027    01057 STA +0 62100 0 01061    01060 CAL -0 50000 0 00034    01061 ALS +0 76700 0 00000
 01062 ORA -0 50100 0 00030    01063 SLW +0 60200 0 00034    01064 TRA +0 02000 0 01042
                   PRWORD.(TWORD)                                                   046  LM00067
 01065 TSX +0 07400 4 00007    01066 TXH +3 00000 0 00034
                   PRBUFF.                                                          047  LM00068
 01067 TSX +0 07400 4 00006
                   FUNCTION RETURN                                                  048  LM00069
 01070 TRA +0 02000 0 01130
                 ENTRY TO HOL.                                                      049  LM00071
 01071 TRA +0 02000 0 01074    01072 SXA +0 63400 2 01105    01073 TSX +0 07400 2 01105
                 FUNCTION RETURN ASCTSS.(LINE) .A. 77K                              050  LM00072
 01074 TSX +0 07400 4 00000    01075 TXH +3 00000 0 00024    01076 STO +0 60100 0 01135    01077 CAL -0 50000 0 01135
 01100 ANA -0 32000 0 00614    01101 SLW +0 60200 0 01135    01102 CLA +0 50000 0 01135    01103 TRA +0 02000 0 01130
                 END OF FUNCTION                                                    051  LM00074
 01104 TSX +0 07400 4 00003    01105 TXH +3 00000 0 00000    01106 SXD -0 63400 1 01105    01107 SXA +0 63400 4 01130
 01110 CLA +0 50000 4 00001    01111 STA +0 62100 0 00661    01112 STO +0 60100 0 00701    01113 STO +0 60100 0 00710
 01114 STA +0 62100 0 00731    01115 STO +0 60100 0 00742    01116 STO +0 60100 0 00746    01117 STO +0 60100 0 00757
 01120 STO +0 60100 0 01075    01121 CLA +0 50000 4 00002    01122 STA +0 62100 0 00663    01123 STA +0 62100 0 00674
 01124 STA +0 62100 0 00724    01125 STO +0 60100 0 00744    01126 STO +0 60100 0 00760    01127 TRA +0 02000 2 00001
 01130 AXT +0 77400 4 00000    01131 LXA +0 53400 2 01105    01132 LXD -0 53400 1 01105    01133 TRA +0 02000 4 00001


EDAVAL   BCD 02/25/69 1720.4     917         00000
1     MAD PROGRAM LISTING ... ... ...                 FILE  EDAVAL   MAD            02/25/69    1716.7
-
                 ..  ROUTINE TO RETURN INITIAL VALUES TO EDITOR FOR                                    LM00001
                 ..  EDITING ASCII FILES.                                                              LM00002
                                                                                                       LM00003
                  EXTERNAL FUNCTION(BLANK, TAB, DEFALT, MCHNG, REDS, BLACKS)                      *001 LM00004
                  NORMAL MODE IS INTEGER                                                          *002 LM00005
                  ENTRY TO GETVAL.                                                                *003 LM00006
                    BLANK  = 040K                                                                 *004 LM00007
                    TAB    = 011K                                                                 *005 LM00008
                    DEFALT = $   EPL$                                                             *006 LM00009
                    MCHNG  = 056K                                                                 *007 LM00010
                    REDS   = 016K                                                                 *008 LM00011
                    BLACKS = 017K                                                                 *009 LM00012
                    FUNCTION RETURN                                                               *010 LM00013
                  END OF FUNCTION                                                                 *011 LM00014
1MAD PROGRAM,TYPE NOV 1963      (ALL NUMBERS ARE OCTAL)
0TOTAL LOCATIONS   00061 TRANSFER VECTOR LENGTH  00001 PROGRAM BEGINS    00012
0 PROGRAM IS AN EXTERNAL FUNCTION.   THE FOLLOWING ARE ENTRIES
      GETVAL 00013   0
0FUNCTION DICTIONARY
      EXIT   00000   1
0ABSOLUTE CONSTANTS
 00005 +000000000017     00004 +000000000016     00007 +000000000056     00011 -206060254743     00003 +000000000011
 00006 +000000000040     00002 +000000000001     00010 +233000000000
0PROGRAM
                 EXTERNAL FUNCTION(BLANK, TAB, DEFALT, MCHNG, REDS, BLACKS)         001  LM00004
                 NORMAL MODE IS INTEGER                                             002  LM00005
                 ENTRY TO GETVAL.                                                   003  LM00006
 00012 TRA +0 02000 0 00015    00013 SXA +0 63400 2 00033    00014 TSX +0 07400 2 00033
                   BLANK  = 040K                                                    004  LM00007
 00015 CLA +0 50000 0 00006    00016 STO +0 60100 0 00024
                   TAB    = 011K                                                    005  LM00008
 00017 CLA +0 50000 0 00003    00020 STO +0 60100 0 00024
                   DEFALT = $   EPL$                                                006  LM00009
 00021 CLA +0 50000 0 00011    00022 STO +0 60100 0 00024
                   MCHNG  = 056K                                                    007  LM00010
 00023 CLA +0 50000 0 00007    00024 STO +0 60100 0 00024
                   REDS   = 016K                                                    008  LM00011
 00025 CLA +0 50000 0 00004    00026 STO +0 60100 0 00024
                   BLACKS = 017K                                                    009  LM00012
 00027 CLA +0 50000 0 00005    00030 STO +0 60100 0 00024
                   FUNCTION RETURN                                                  010  LM00013
 00031 TRA +0 02000 0 00053
                 END OF FUNCTION                                                    011  LM00014
 00032 TSX +0 07400 4 00000    00033 TXH +3 00000 0 00000    00034 SXD -0 63400 1 00033    00035 SXA +0 63400 4 00053
 00036 CLA +0 50000 4 00001    00037 STA +0 62100 0 00016    00040 CLA +0 50000 4 00002    00041 STA +0 62100 0 00020
 00042 CLA +0 50000 4 00003    00043 STA +0 62100 0 00022    00044 CLA +0 50000 4 00004    00045 STA +0 62100 0 00024
 00046 CLA +0 50000 4 00005    00047 STA +0 62100 0 00026    00050 CLA +0 50000 4 00006    00051 STA +0 62100 0 00030
 00052 TRA +0 02000 2 00001    00053 AXT +0 77400 4 00000    00054 LXA +0 53400 2 00033    00055 LXD -0 53400 1 00033
 00056 TRA +0 02000 4 00001


GETDEV   BCD 04/26/69 1636.6    2229         00000
1     MAD PROGRAM LISTING ... ... ...                 FILE  GETDEV   MAD            04/15/69    1122.1
-
                 ..  ROUTINE TO GET DEVICE NUMBER OF TYPEWRITER CONSOLE.                               LM00001
                 ..  J. H. SALTZER, DECEMBER, 1966.                                                    LM00002
                                                                                                       LM00003
                  EXTERNAL FUNCTION(DEVICE, PLTH)                                                 *001 LM00004
                  NORMAL MODE IS INTEGER                                                          *002 LM00005
                  VECTOR VALUES M10LTH = 130                                                      *003 LM00006
                  VECTOR VALUES M27LTH = 120                                                      *004 LM00007
                  VECTOR VALUES M35LTH = 84                                                       *005 LM00008
                  VECTOR VALUES M37LTH = 84                                                       *006 LM00009
                  VECTOR VALUES M37 = 1                                                           *007 LM00010
                  VECTOR VALUES M1050C = 2                                                        *008 LM00011
                  VECTOR VALUES M2741E = 3                                                        *009 LM00012
                  VECTOR VALUES M35 = 4                                                           *010 LM00013
                  DIMENSION GLOP(4)                                                               *011 LM00014
                                                                                                       LM00015
                  ENTRY TO GETDEV.                                                                *012 LM00016
                  WHOAMI.(GLOP(4)...4)                                                            *013 LM00017
                  JUNK = GLOP(1) .RS. 30                                                          *014 LM00018
                  WHENEVER JUNK .E. 1 .OR. JUNK .E. 4 .OR. JUNK .E. 6                             *015 LM00019
                     DEVICE = M35                                                                 *016 LM00020
                     PLTH = M35LTH                                                                *017 LM00021
                  OR WHENEVER JUNK .E. 2                                                          *018 LM00022
                     DEVICE = M2741E                                                              *019 LM00023
                     PLTH = M10LTH                                                                *020 LM00024
                  OR WHENEVER JUNK .E. 8                                                          *021 LM00025
                     PLTH = M27LTH                                                                *022 LM00026
                     DEVICE = M2741E                                                              *023 LM00027
                  OR WHENEVER JUNK .E. 7                                                          *024 LM00028
                     DEVICE = M37                                                                 *025 LM00029
                     PLTH = M37LTH                                                                *026 LM00030
                  OTHERWISE                                                                       *027 LM00031
                     DEVICE = M37                                                                 *028 LM00032
                     PLTH = 80                                                                    *029 LM00033
                  END OF CONDITIONAL                                                              *030 LM00034
                  FUNCTION RETURN                                                                 *031 LM00035
                  END OF FUNCTION                                                                 *032 LM00036
1MAD PROGRAM,TYPE NOV 1963      (ALL NUMBERS ARE OCTAL)
0TOTAL LOCATIONS   00146 TRANSFER VECTOR LENGTH  00002 PROGRAM BEGINS    00032
0 PROGRAM IS AN EXTERNAL FUNCTION.   THE FOLLOWING ARE ENTRIES
      GETDEV 00033   0
0VARIABLE STORAGE (A=ARRAY,C=COMMON,E=ERASABLE,DIGIT=MODE)
      GLOP   00007 A 1        M1050C 00011 A 1        M2741E 00013 A 1        M35LTH 00015 A 1        M37LTH 00017 A 1
      JUNK   00010   1        M10LTH 00012 A 1        M27LTH 00014 A 1        M35    00016 A 1        M37    00020 A 1
0FUNCTION DICTIONARY
      EXIT   00000   1        WHOAMI 00001   1
0ABSOLUTE CONSTANTS
 00030 +000000000120     00025 +000000000007     00026 +000000000010     00022 +000000000002     00024 +000000000006
 00027 +000000000036     00023 +000000000004     00021 +000000000001     00031 +233000000000
0PROGRAM
                 EXTERNAL FUNCTION(DEVICE, PLTH)                                    001  LM00004
                 NORMAL MODE IS INTEGER                                             002  LM00005
                 VECTOR VALUES M10LTH = 130                                         003  LM00006
 00012     +0 00000 0 00202
                 VECTOR VALUES M27LTH = 120                                         004  LM00007
 00014     +0 00000 0 00170
                 VECTOR VALUES M35LTH = 84                                          005  LM00008
 00015     +0 00000 0 00124
                 VECTOR VALUES M37LTH = 84                                          006  LM00009
 00017     +0 00000 0 00124
                 VECTOR VALUES M37 = 1                                              007  LM00010
 00020     +0 00000 0 00001
                 VECTOR VALUES M1050C = 2                                           008  LM00011
 00011     +0 00000 0 00002
                 VECTOR VALUES M2741E = 3                                           009  LM00012
 00013     +0 00000 0 00003
                 VECTOR VALUES M35 = 4                                              010  LM00013
 00016     +0 00000 0 00004
                 DIMENSION GLOP(4)                                                  011  LM00014
                 ENTRY TO GETDEV.                                                   012  LM00016
 00032 TRA +0 02000 0 00035    00033 SXA +0 63400 2 00120    00034 TSX +0 07400 2 00120
                 WHOAMI.(GLOP(4)...4)                                               013  LM00017
 00035 TSX +0 07400 4 00001    00036 TIX +2 00023 0 00003
                 JUNK = GLOP(1) .RS. 30                                             014  LM00018
 00037 CAL -0 50000 0 00027    00040 STA +0 62100 0 00042    00041 CAL -0 50000 0 00006    00042 LGR -0 76500 0 00000
 00043 SLW +0 60200 0 00010
                 WHENEVER JUNK .E. 1 .OR. JUNK .E. 4 .OR. JUNK .E. 6                015  LM00019
 00044 CLA +0 50000 0 00010    00045 SUB +0 40200 0 00024    00046 TZE +0 10000 0 00055    00047 CLA +0 50000 0 00010
 00050 SUB +0 40200 0 00023    00051 TZE +0 10000 0 00055    00052 CLA +0 50000 0 00010    00053 SUB +0 40200 0 00021
 00054 TNZ -0 10000 0 00062
                    DEVICE = M35                                                    016  LM00020
 00055 CLA +0 50000 0 00016    00056 STO +0 60100 0 00024
                    PLTH = M35LTH                                                   017  LM00021
 00057 CLA +0 50000 0 00015    00060 STO +0 60100 0 00024
                 OR WHENEVER JUNK .E. 2                                             018  LM00022
 00061 TRA +0 02000 0 00116    00062 CLA +0 50000 0 00010    00063 SUB +0 40200 0 00022    00064 TNZ -0 10000 0 00072
                    DEVICE = M2741E                                                 019  LM00023
 00065 CLA +0 50000 0 00013    00066 STO +0 60100 0 00024
                    PLTH = M10LTH                                                   020  LM00024
 00067 CLA +0 50000 0 00012    00070 STO +0 60100 0 00024
                 OR WHENEVER JUNK .E. 8                                             021  LM00025
 00071 TRA +0 02000 0 00116    00072 CLA +0 50000 0 00010    00073 SUB +0 40200 0 00026    00074 TNZ -0 10000 0 00102
                    PLTH = M27LTH                                                   022  LM00026
 00075 CLA +0 50000 0 00014    00076 STO +0 60100 0 00024
                    DEVICE = M2741E                                                 023  LM00027
 00077 CLA +0 50000 0 00013    00100 STO +0 60100 0 00024
                 OR WHENEVER JUNK .E. 7                                             024  LM00028
 00101 TRA +0 02000 0 00116    00102 CLA +0 50000 0 00010    00103 SUB +0 40200 0 00025    00104 TNZ -0 10000 0 00112
                    DEVICE = M37                                                    025  LM00029
 00105 CLA +0 50000 0 00020    00106 STO +0 60100 0 00024
                    PLTH = M37LTH                                                   026  LM00030
 00107 CLA +0 50000 0 00017    00110 STO +0 60100 0 00024
                 OTHERWISE                                                          027  LM00031
 00111 TRA +0 02000 0 00116
                    DEVICE = M37                                                    028  LM00032
 00112 CLA +0 50000 0 00020    00113 STO +0 60100 0 00024
                    PLTH = 80                                                       029  LM00033
 00114 CLA +0 50000 0 00030    00115 STO +0 60100 0 00024
                 END OF CONDITIONAL                                                 030  LM00034
                 FUNCTION RETURN                                                    031  LM00035
 00116 TRA +0 02000 0 00140
                 END OF FUNCTION                                                    032  LM00036
 00117 TSX +0 07400 4 00000    00120 TXH +3 00000 0 00000    00121 SXD -0 63400 1 00120    00122 SXA +0 63400 4 00140
 00123 CLA +0 50000 4 00001    00124 STA +0 62100 0 00056    00125 STA +0 62100 0 00066    00126 STA +0 62100 0 00100
 00127 STA +0 62100 0 00106    00130 STA +0 62100 0 00113    00131 CLA +0 50000 4 00002    00132 STA +0 62100 0 00060
 00133 STA +0 62100 0 00070    00134 STA +0 62100 0 00076    00135 STA +0 62100 0 00110    00136 STA +0 62100 0 00115
 00137 TRA +0 02000 2 00001    00140 AXT +0 77400 4 00000    00141 LXA +0 53400 2 00120    00142 LXD -0 53400 1 00120
 00143 TRA +0 02000 4 00001


ESCAPE   BCD 02/25/69 1720.4   23683         00000
1     MAD PROGRAM LISTING ... ... ...                 FILE  ESCAPE   MAD            02/25/69    1716.8
-
                 ..   ROUTINE FOR REMOVING ESCAPES FROM AN ASCII LINE                                  LM00001
                 ..   MAD CALLING SEQUENCE                                                             LM00002
                 ..   OUTESC.(INBUF,INSIZ,OUTBUF,OUTSIZ,MAXSIZ)                                        LM00003
                 ..                                                                                    LM00004
                 ..   INBUF IS AN ARRAY CONTAINING ONE ASCII CHAR PER WORD                             LM00005
                 ..   INSIZ IS THE NUMBER OF ENTRIES IN INBUF                                          LM00006
                 ..   THE RESULTING ARRAY IS PUT INTO OUTBUF                                           LM00007
                 ..   AND ITS SIZE IS PUT INTO OUTSIZ                                                  LM00008
                 ..   MAXSIZ IS THE LENGTH OF THE ARRAY OUTBUF                                         LM00009
                 ..   INBUF AND INSIZ ARE NOT CHANGED                                                  LM00010
                 ..   INBUF AND OUTBUF MAY BE THE SAME IN THE CALLING PROGRAM                          LM00011
                 ..                                                                                    LM00012
                 ..   ESCAPE CONVENTIONS USED ARE FROM BC.2.04 DATED 12/XX/65                          LM00013
                 ..   WRITTEN BY R. MORRIS                                                             LM00014
                 ..   MODIFIED BY J. H. SALTZER FOR PR(1966)ASCII                                      LM00015
                 ..   AND EBCDIC GOLF BALL.                                                            LM00016
                 ..   LAST MODIFIED FEBRUARY 22, 1967.                                                 LM00017
                 ..                                                                                    LM00018
                  EXTERNAL FUNCTION(INBUF,INSIZ,OUTBUF,OUTSIZ,MAXSIZ)                             *001 LM00019
                  NORMAL MODE IS INTEGER                                                          *002 LM00020
                 ..   DECLARATIONS                                                                     LM00021
                  VECTOR VALUES CASE   = 0                                                        *003 LM00022
                  VECTOR VALUES XCASE  = 0                                                        *004 LM00023
                  VECTOR VALUES FLIP   = 0                                                        *005 LM00024
                  VECTOR VALUES LOWER  = -1                                                       *006 LM00025
                  VECTOR VALUES UPPER  = 1                                                        *007 LM00026
                  VECTOR VALUES LCBIT  = 40K                                                      *008 LM00027
                  VECTOR VALUES TIBCL  = 137K                                                     *009 LM00028
                  VECTOR VALUES M37    = 1                                                        *010 LM00029
                  VECTOR VALUES M1050C = 2                                                        *011 LM00030
                  VECTOR VALUES M2741E = 3                                                        *012 LM00031
                  VECTOR VALUES M35    = 4                                                        *013 LM00032
                 ..                                                                                    LM00033
                  VECTOR VALUES CAPA   = 101K                                                     *014 LM00034
                  VECTOR VALUES CAPZ   = 132K                                                     *015 LM00035
                  VECTOR VALUES SMLA   = 141K                                                     *016 LM00036
                  VECTOR VALUES SMLC   = 143K                                                     *017 LM00037
                  VECTOR VALUES SMLE   = 145K                                                     *018 LM00038
                  VECTOR VALUES SMLG   = 147K                                                     *019 LM00039
                  VECTOR VALUES SMLK   = 153K                                                     *020 LM00040
                  VECTOR VALUES SMLL   = 154K                                                     *021 LM00041
                  VECTOR VALUES SMLN   = 156K                                                     *022 LM00042
                  VECTOR VALUES SMLP   = 160K                                                     *023 LM00043
                  VECTOR VALUES SMLT   = 164K                                                     *024 LM00044
                  VECTOR VALUES SMLU   = 165K                                                     *025 LM00045
                  VECTOR VALUES SMLX   = 170K                                                     *026 LM00046
                  VECTOR VALUES SMLZ   = 172K                                                     *027 LM00047
                  VECTOR VALUES ZERO   = 60K                                                      *028 LM00048
                  VECTOR VALUES SEVEN  = 67K                                                      *029 LM00049
                  VECTOR VALUES NINE   = 71K                                                      *030 LM00050
                  VECTOR VALUES CFLEX  = 136K                                                     *031 LM00051
                  VECTOR VALUES ACUTE  = 47K                                                      *032 LM00052
                  VECTOR VALUES GRAVE  = 140K                                                     *033 LM00053
                  VECTOR VALUES OVLN   = 176K                                                     *034 LM00054
                  VECTOR VALUES VERT   = 174K                                                     *035 LM00055
                  VECTOR VALUES DQUOTE = 042K                                                     *036 LM00056
                  VECTOR VALUES LTHAN  = 74K                                                      *037 LM00057
                  VECTOR VALUES GTHAN  = 76K                                                      *038 LM00058
                  VECTOR VALUES LPAR   = 50K                                                      *039 LM00059
                  VECTOR VALUES RPAR   = 51K                                                      *040 LM00060
                  VECTOR VALUES LBRACE = 173K                                                     *041 LM00061
                  VECTOR VALUES RBRACE = 175K                                                     *042 LM00062
                  VECTOR VALUES LBRAK  = 133K                                                     *043 LM00063
                  VECTOR VALUES RBRAK  = 135K                                                     *044 LM00064
                  VECTOR VALUES LSLANT = 134K                                                     *045 LM00065
                  VECTOR VALUES PERIOD = 56K                                                      *046 LM00066
                  VECTOR VALUES PRCENT = 45K                                                      *047 LM00067
                  VECTOR VALUES DASH   = 55K                                                      *048 LM00068
                  VECTOR VALUES BSPACE = 10K                                                      *049 LM00069
                  VECTOR VALUES SPACE  = 40K                                                      *050 LM00070
                  VECTOR VALUES BEL    = 7K                                                       *051 LM00071
                  VECTOR VALUES HTAB   = 11K                                                      *052 LM00072
                  VECTOR VALUES RED    = 16K                                                      *053 LM00073
                  VECTOR VALUES BLK    = 17K                                                      *054 LM00074
                  VECTOR VALUES DEL    = 177K                                                     *055 LM00075
                  VECTOR VALUES MCHNG  = 033K                                                     *056 LM00076
                  VECTOR VALUES NL     = 12K                                                      *057 LM00077
                 ..                                                                                    LM00078
                  ENTRY TO OUTESC.                                                                *058 LM00079
                  WHENEVER DEVICE .E. 0, SETDEV.                                                  *059 LM00080
                  OFFSET = MAXSIZ -INSIZ                                                          *060 LM00081
                  THROUGH CPYLP, FOR I = INSIZ,-1, I .L. 1                                        *061 LM00082
      CPYLP       OUTBUF(OFFSET+I) = INBUF(I)                                                     *062 LM00083
                  INPTR = OFFSET + 1                                                              *063 LM00084
                  OUTPTR = 1                                                                      *064 LM00085
                  WHENEVER INSIZ .E. 0, TRANSFER TO XYZ3                                          *065 LM00086
                 ..                                                                                    LM00087
      BACK        CHAR = OUTBUF(INPTR) .A. 177K                                                   *066 LM00088
                  INPTR = INPTR + 1                                                               *067 LM00089
                  WHENEVER CHAR .E. LSLANT, TRANSFER TO ESC1                                      *068 LM00090
                  WHENEVER CHAR .GE. CAPA .AND. CHAR .LE. CAPZ                                    *069 LM00091
                     WHENEVER CASE .E. LOWER .AND. FLIP .G. 0                                     *070 LM00092
                     OR WHENEVER CASE .E. LOWER .OR. FLIP .G. 0                                   *071 LM00093
                        CHAR = CHAR .V. LCBIT                                                     *072 LM00094
                     END OF CONDITIONAL                                                           *073 LM00095
                  OR WHENEVER CHAR .GE. SMLA .AND. CHAR .LE. SMLZ                                 *074 LM00096
                     WHENEVER CASE .E. UPPER .AND. FLIP .G. 0                                     *075 LM00097
                     OR WHENEVER CASE .E. UPPER .OR. FLIP .G. 0                                   *076 LM00098
                        CHAR = CHAR .A. TIBCL                                                     *077 LM00099
                     END OF CONDITIONAL                                                           *078 LM00100
                  END OF CONDITIONAL                                                              *079 LM00101
                 ..                                                                                    LM00102
      XYZ1        WHENEVER FLIP .G. 0, FLIP = FLIP-1                                              *080 LM00103
                  OUTBUF(OUTPTR) = CHAR                                                           *081 LM00104
                  WHENEVER OUTPTR .L. INPTR, OUTPTR = OUTPTR + 1                                  *082 LM00105
      XYZ2        WHENEVER INPTR .LE. MAXSIZ, TRANSFER TO BACK                                    *083 LM00106
      XYZ3        OUTSIZ = OUTPTR - 1                                                             *084 LM00107
                  FUNCTION RETURN                                                                 *085 LM00108
                 ..                                                                                    LM00109
      ESC1        WHENEVER INPTR .G. MAXSIZ, TRANSFER TO XYZ3                                     *086 LM00110
                  CHAR = OUTBUF(INPTR)                                                            *087 LM00111
                  INPTR = INPTR + 1                                                               *088 LM00112
                  TCHAR = CHAR .V. LCBIT                                                          *089 LM00113
                  WHENEVER CHAR .GE. ZERO .AND. CHAR .LE. SEVEN                                   *090 LM00114
                     DIGIT1 = CHAR .A. 1K                                                         *091 LM00115
                     DIGIT2 = OUTBUF(INPTR) .A. 7K                                                *092 LM00116
                     DIGIT3 = OUTBUF(INPTR+1) .A. 7K                                              *093 LM00117
                     CHAR = DIGIT3 .V. (DIGIT2 .LS. 3) .V. (DIGIT1 .LS. 6)                        *094 LM00118
                     INPTR = INPTR + 2                                                            *095 LM00119
                     TRANSFER TO XYZ1                                                             *096 LM00120
                  OR WHENEVER TCHAR .E. SMLC                                                      *097 LM00121
                     INPTR = INPTR+1                                                              *098 LM00122
                     TRANSFER TO XYZ2                                                             *099 LM00123
                  OR WHENEVER TCHAR .E. SMLK .OR. TCHAR .E. SMLE                                  *100 LM00124
                    CHAR = MCHNG                                                                  *101 LM00125
                    INPTR = INPTR-1                                                               *102 LM00126
                    TRANSFER TO XYZ1                                                              *103 LM00127
                  END OF CONDITIONAL                                                              *104 LM00128
                 ..                                                                                    LM00129
                  WHENEVER DEVICE .E. M1050C                                                      *105 LM00130
                     WHENEVER CHAR .E. ACUTE                                                      *106 LM00131
                        CHAR = GRAVE                                                              *107 LM00132
                     OR WHENEVER TCHAR .E. SMLT                                                   *108 LM00133
                        CHAR = OVLN                                                               *109 LM00134
                     OR WHENEVER TCHAR .E. SMLL                                                   *110 LM00135
                        CHAR = LTHAN                                                              *111 LM00136
                     OR WHENEVER TCHAR .E. SMLG                                                   *112 LM00137
                        CHAR = GTHAN                                                              *113 LM00138
                     OR WHENEVER CHAR .E. LPAR                                                    *114 LM00139
                        CHAR = LBRACE                                                             *115 LM00140
                     OR WHENEVER CHAR .E. RPAR                                                    *116 LM00141
                        CHAR = RBRACE                                                             *117 LM00142
                     OR WHENEVER CHAR .E. LSLANT                                                  *118 LM00143
                        CHAR = OUTBUF(INPTR)                                                      *119 LM00144
                        INPTR = INPTR + 1                                                         *120 LM00145
                        WHENEVER CHAR .E. LPAR                                                    *121 LM00146
                           CHAR = LBRAK                                                           *122 LM00147
                        OR WHENEVER CHAR .E. RPAR                                                 *123 LM00148
                           CHAR = RBRAK                                                           *124 LM00149
                        END OF CONDITIONAL                                                        *125 LM00150
                     END OF CONDITIONAL                                                           *126 LM00151
                  OR WHENEVER DEVICE .E. M35                                                      *127 LM00152
                     WHENEVER CHAR .E. DASH                                                       *128 LM00153
                        CHAR = BSPACE                                                             *129 LM00154
                     OR WHENEVER TCHAR .E. SMLX                                                   *130 LM00155
                        CHAR = CFLEX                                                              *131 LM00156
                     OR WHENEVER TCHAR .E. SMLT                                                   *132 LM00157
                        CHAR = OVLN                                                               *133 LM00158
                     OR WHENEVER CHAR .E. ACUTE                                                   *134 LM00159
                        CHAR = GRAVE                                                              *135 LM00160
                     OR WHENEVER CHAR .E. LPAR                                                    *136 LM00161
                        CHAR = LBRACE                                                             *137 LM00162
                     OR WHENEVER CHAR .E. RPAR                                                    *138 LM00163
                        CHAR = RBRACE                                                             *139 LM00164
                     OR WHENEVER TCHAR .E. SMLU                                                   *140 LM00165
                        CASE = UPPER                                                              *141 LM00166
                        TRANSFER TO XYZ2                                                          *142 LM00167
                     OR WHENEVER TCHAR .E. SMLL                                                   *143 LM00168
                        CASE = LOWER                                                              *144 LM00169
                        TRANSFER TO XYZ2                                                          *145 LM00170
                     OR WHENEVER CHAR .E. CFLEX                                                   *146 LM00171
                        CHAR = OUTBUF(INPTR)                                                      *147 LM00172
                        INPTR = INPTR + 1                                                         *148 LM00173
                        WHENEVER CHAR .GE. ZERO .AND. CHAR .LE. NINE                              *149 LM00174
                           FLIP = CHAR .A. 17K                                                    *150 LM00175
                        END OF CONDITIONAL                                                        *151 LM00176
                        TRANSFER TO XYZ2                                                          *152 LM00177
                     END OF CONDITIONAL                                                           *153 LM00178
                  OR WHENEVER DEVICE .E. M2741E                                                   *154 LM00179
                     WHENEVER CHAR .E. ACUTE                                                      *155 LM00180
                        CHAR = GRAVE                                                              *156 LM00181
                     OR WHENEVER CHAR .E. LTHAN                                                   *157 LM00182
                        CHAR = LBRAK                                                              *158 LM00183
                     OR WHENEVER CHAR .E. GTHAN                                                   *159 LM00184
                        CHAR = RBRAK                                                              *160 LM00185
                     OR WHENEVER CHAR .E. LPAR                                                    *161 LM00186
                        CHAR = LBRACE                                                             *162 LM00187
                     OR WHENEVER CHAR .E. RPAR                                                    *163 LM00188
                        CHAR = RBRACE                                                             *164 LM00189
                     OR WHENEVER CHAR .E. SMLT                                                    *165 LM00190
                        CHAR = OVLN                                                               *166 LM00191
                     END OF CONDITIONAL                                                           *167 LM00192
                  END OF CONDITIONAL                                                              *168 LM00193
                  TRANSFER TO XYZ1                                                                *169 LM00194
                 ..                                                                                    LM00195
                 ..                                                                                    LM00196
                 ..   ROUTINE FOR INSERTING ESCAPES INTO AN ASCII FILE                                 LM00197
                 ..   THE CALLING SEQUENCE AND MEANINGS OF PARAMETERS                                  LM00198
                 ..   ARE THE SAME AS FOR OUTESC                                                       LM00199
                 ..                                                                                    LM00200
                  ENTRY TO INESC.                                                                 *170 LM00201
                  WHENEVER DEVICE .E. 0, SETDEV.                                                  *171 LM00202
                  SIZE = INSIZ                                                                    *172 LM00203
                  WHENEVER SIZE .G. MAXSIZ, SIZE = MAXSIZ                                         *173 LM00204
                  OFFSET = MAXSIZ - SIZE                                                          *174 LM00205
                  THROUGH CPYLPX, FOR I = SIZE,-1, I .L. 1                                        *175 LM00206
      CPYLPX      OUTBUF(OFFSET+I) = INBUF(I)                                                     *176 LM00207
                  INPTR = OFFSET + 1                                                              *177 LM00208
                  OUTPTR = 1                                                                      *178 LM00209
                  WHENEVER INSIZ .E. 0, TRANSFER TO FORTH                                         *179 LM00210
                 ..                                                                                    LM00211
      RUCK        CHAR = OUTBUF(INPTR) .A. 777K                                                   *180 LM00212
                  INPTR = INPTR + 1                                                               *181 LM00213
                  WHENEVER OUTCNT .G. PLTH .AND. CHAR .NE. NL                                     *182 LM00214
                    PUTCHR.(LSLANT)                                                               *183 LM00215
                    PUTCHR.(SMLC)                                                                 *184 LM00216
                    PUTCHR.(NL)                                                                   *185 LM00217
                  END OF CONDITIONAL                                                              *186 LM00218
                  WHENEVER DEVICE .E. M1050C                                                      *187 LM00219
                     WHENEVER CHAR .L. SPACE .OR. CHAR .GE. DEL                                   *188 LM00220
                        WHENEVER CHAR .E. BSPACE                                                  *189 LM00221
                1       .OR. CHAR .E. HTAB                                                        *189 LM00222
                2       .OR. CHAR .E. NL                                                          *189 LM00223
                3       .OR. CHAR .E. RED                                                         *189 LM00224
                4       .OR. CHAR .E. BLK                                                         *189 LM00225
                           PUTCHR.(CHAR)                                                          *190 LM00226
                        OTHERWISE                                                                 *191 LM00227
                           PUTCHR.(LSLANT)                                                        *192 LM00228
                           PUTOCT.(CHAR)                                                          *193 LM00229
                        END OF CONDITIONAL                                                        *194 LM00230
                     OTHERWISE                                                                    *195 LM00231
                        WHENEVER CHAR .E. GRAVE                                                   *196 LM00232
                           PUTCHR.(LSLANT)                                                        *197 LM00233
                           PUTCHR.(ACUTE)                                                         *198 LM00234
                        OR WHENEVER CHAR .E. OVLN                                                 *199 LM00235
                           PUTCHR.(LSLANT)                                                        *200 LM00236
                           PUTCHR.(SMLT)                                                          *201 LM00237
                        OR WHENEVER CHAR .E. LBRAK                                                *202 LM00238
                           PUTCHR.(LSLANT)                                                        *203 LM00239
                           PUTCHR.(LSLANT)                                                        *204 LM00240
                           PUTCHR.(LPAR)                                                          *205 LM00241
                        OR WHENEVER CHAR .E. RBRAK                                                *206 LM00242
                           PUTCHR.(LSLANT)                                                        *207 LM00243
                           PUTCHR.(LSLANT)                                                        *208 LM00244
                           PUTCHR.(RPAR)                                                          *209 LM00245
                        OR WHENEVER CHAR .E. LTHAN                                                *210 LM00246
                           PUTCHR.(LSLANT)                                                        *211 LM00247
                           PUTCHR.(SMLL)                                                          *212 LM00248
                        OR WHENEVER CHAR .E. GTHAN                                                *213 LM00249
                           PUTCHR.(LSLANT)                                                        *214 LM00250
                           PUTCHR.(SMLG)                                                          *215 LM00251
                        OR WHENEVER CHAR .E. LBRACE                                               *216 LM00252
                           PUTCHR.(LSLANT)                                                        *217 LM00253
                           PUTCHR.(LPAR)                                                          *218 LM00254
                        OR WHENEVER CHAR .E. RBRACE                                               *219 LM00255
                           PUTCHR.(LSLANT)                                                        *220 LM00256
                           PUTCHR.(RPAR)                                                          *221 LM00257
                        OR WHENEVER CHAR .E. LSLANT                                               *222 LM00258
                           PUTCHR.(LSLANT)                                                        *223 LM00259
                           PUTOCT.(CHAR)                                                          *224 LM00260
                        OTHERWISE                                                                 *225 LM00261
                           PUTCHR.(CHAR)                                                          *226 LM00262
                        END OF CONDITIONAL                                                        *227 LM00263
                     END OF CONDITIONAL                                                           *228 LM00264
                  OR WHENEVER DEVICE .E. M35                                                      *229 LM00265
                     WHENEVER CHAR .L. SPACE .OR. CHAR .GE. DEL                                   *230 LM00266
                        WHENEVER CHAR .E. BEL                                                     *231 LM00267
                1       .OR. CHAR .E. HTAB                                                        *231 LM00268
                2       .OR. CHAR .E. NL                                                          *231 LM00269
                           PUTCHR.(CHAR)                                                          *232 LM00270
                        OR WHENEVER CHAR .E. BSPACE                                               *233 LM00271
                           PUTCHR.(LSLANT)                                                        *234 LM00272
                           PUTCHR.(DASH)                                                          *235 LM00273
                        OTHERWISE                                                                 *236 LM00274
                           PUTCHR.(LSLANT)                                                        *237 LM00275
                           PUTOCT.(CHAR)                                                          *238 LM00276
                        END OF CONDITIONAL                                                        *239 LM00277
                     OTHERWISE                                                                    *240 LM00278
                        WHENEVER CHAR .E. OVLN                                                    *241 LM00279
                           PUTCHR.(LSLANT)                                                        *242 LM00280
                           PUTCHR.(SMLT)                                                          *243 LM00281
                        OR WHENEVER CHAR .E. CFLEX                                                *244 LM00282
                           PUTCHR.(LSLANT)                                                        *245 LM00283
                           PUTCHR.(SMLX)                                                          *246 LM00284
                        OR WHENEVER CHAR .E. GRAVE                                                *247 LM00285
                           PUTCHR.(LSLANT)                                                        *248 LM00286
                           PUTCHR.(ACUTE)                                                         *249 LM00287
                        OR WHENEVER CHAR .E. RBRACE                                               *250 LM00288
                           PUTCHR.(LSLANT)                                                        *251 LM00289
                           PUTCHR.(RPAR)                                                          *252 LM00290
                        OR WHENEVER CHAR .E. LBRACE                                               *253 LM00291
                           PUTCHR.(LSLANT)                                                        *254 LM00292
                           PUTCHR.(LPAR)                                                          *255 LM00293
                        OR WHENEVER CHAR .GE. SMLA .AND. CHAR .LE. SMLZ                           *256 LM00294
                           WHENEVER XCASE .NE. LOWER                                              *257 LM00295
                              XCASE = LOWER                                                       *258 LM00296
                              PUTCHR.(LSLANT)                                                     *259 LM00297
                              PUTCHR.(SMLL)                                                       *260 LM00298
                           END OF CONDITIONAL                                                     *261 LM00299
                           PUTCHR.(CHAR)                                                          *262 LM00300
                        OR WHENEVER CHAR .GE. CAPA .AND. CHAR .LE. CAPZ                           *263 LM00301
                           WHENEVER XCASE .NE. UPPER                                              *264 LM00302
                              XCASE = UPPER                                                       *265 LM00303
                              PUTCHR.(LSLANT)                                                     *266 LM00304
                              PUTCHR.(SMLU)                                                       *267 LM00305
                           END OF CONDITIONAL                                                     *268 LM00306
                           PUTCHR.(CHAR)                                                          *269 LM00307
                        OR WHENEVER CHAR .E. LSLANT                                               *270 LM00308
                         PUTCHR.(LSLANT)                                                          *271 LM00309
                         PUTOCT.(CHAR)                                                            *272 LM00310
                        OTHERWISE                                                                 *273 LM00311
                           PUTCHR.(CHAR)                                                          *274 LM00312
                        END OF CONDITIONAL                                                        *275 LM00313
                     END OF CONDITIONAL                                                           *276 LM00314
                  OR WHENEVER DEVICE .E. M2741E                                                   *277 LM00315
                     WHENEVER CHAR .L. SPACE .OR. CHAR .GE. DEL                                   *278 LM00316
                        WHENEVER CHAR .E. BSPACE                                                  *279 LM00317
                1       .OR. CHAR .E. HTAB                                                        *279 LM00318
                2       .OR. CHAR .E. NL                                                          *279 LM00319
                3       .OR. CHAR .E. RED                                                         *279 LM00320
                4       .OR. CHAR .E. BLK                                                         *279 LM00321
                           PUTCHR.(CHAR)                                                          *280 LM00322
                        OTHERWISE                                                                 *281 LM00323
                           PUTCHR.(LSLANT)                                                        *282 LM00324
                           PUTOCT.(CHAR)                                                          *283 LM00325
                        END OF CONDITIONAL                                                        *284 LM00326
                     OTHERWISE                                                                    *285 LM00327
                        WHENEVER CHAR .E. GRAVE                                                   *286 LM00328
                           PUTCHR.(LSLANT)                                                        *287 LM00329
                           PUTCHR.(ACUTE)                                                         *288 LM00330
                        OR WHENEVER CHAR .E. LBRACE                                               *289 LM00331
                           PUTCHR.(LSLANT)                                                        *290 LM00332
                           PUTCHR.(LPAR)                                                          *291 LM00333
                        OR WHENEVER CHAR .E. RBRACE                                               *292 LM00334
                           PUTCHR.(LSLANT)                                                        *293 LM00335
                           PUTCHR.(RPAR)                                                          *294 LM00336
                        OR WHENEVER CHAR .E. OVLN                                                 *295 LM00337
                           PUTCHR.(LSLANT)                                                        *296 LM00338
                           PUTCHR.(SMLT)                                                          *297 LM00339
                        OR WHENEVER CHAR .E. LBRAK                                                *298 LM00340
                           PUTCHR.(LSLANT)                                                        *299 LM00341
                           PUTCHR.(LTHAN)                                                         *300 LM00342
                        OR WHENEVER CHAR .E. RBRAK                                                *301 LM00343
                           PUTCHR.(LSLANT)                                                        *302 LM00344
                           PUTCHR.(GTHAN)                                                         *303 LM00345
                        OR WHENEVER CHAR .E. LSLANT                                               *304 LM00346
                           PUTCHR.(LSLANT)                                                        *305 LM00347
                           PUTOCT.(CHAR)                                                          *306 LM00348
                        OTHERWISE                                                                 *307 LM00349
                           PUTCHR.(CHAR)                                                          *308 LM00350
                        END OF CONDITIONAL                                                        *309 LM00351
                     END OF CONDITIONAL                                                           *310 LM00352
                  OTHERWISE                                                                       *311 LM00353
                     WHENEVER CHAR .E. LSLANT                                                     *312 LM00354
                        PUTCHR.(LSLANT)                                                           *313 LM00355
                        PUTOCT.(CHAR)                                                             *314 LM00356
                     OTHERWISE                                                                    *315 LM00357
                        PUTCHR.(CHAR)                                                             *316 LM00358
                     END OF CONDITIONAL                                                           *317 LM00359
                  END OF CONDITIONAL                                                              *318 LM00360
                 ..                                                                                    LM00361
                  WHENEVER INPTR .LE. MAXSIZ, TRANSFER TO RUCK                                    *319 LM00362
      FORTH       OUTSIZ = OUTPTR - 1                                                             *320 LM00363
                  FUNCTION RETURN                                                                 *321 LM00364
                 ..                                                                                    LM00365
                  INTERNAL FUNCTION(STUFF)                                                        *322 LM00366
                 ..                                                                                    LM00367
                  ENTRY TO PUTCHR.                                                                *323 LM00368
                  WHENEVER OUTPTR .L. INPTR                                                       *324 LM00369
                     OUTBUF(OUTPTR) = STUFF                                                       *325 LM00370
                     WHENEVER STUFF .E. SPACE                                                     *326 LM00371
                        OUTCNT = OUTCNT + 1                                                       *327 LM00372
                        BKCNT = BKCNT + 1                                                         *328 LM00373
                        WHENEVER (OUTCNT/10)*10 .E. OUTCNT .AND. BKCNT.G.0                        *329 LM00374
                           WHENEVER BKCNT .G. 2                                                   *330 LM00375
                              OUTPTR = OUTPTR - BKCNT + 1                                         *331 LM00376
                              OUTBUF(OUTPTR) = HTAB                                               *332 LM00377
                           END OF CONDITIONAL                                                     *333 LM00378
                           BKCNT = 0                                                              *334 LM00379
                        END OF CONDITIONAL                                                        *335 LM00380
                     OTHERWISE                                                                    *336 LM00381
                        BKCNT = 0                                                                 *337 LM00382
                        WHENEVER STUFF .E. NL                                                     *338 LM00383
                           OUTCNT = 0                                                             *339 LM00384
                        OR WHENEVER STUFF .E. RED .OR. STUFF .E. BLK                              *340 LM00385
                           CONTINUE                                                               *341 LM00386
                        OR WHENEVER STUFF .E. BSPACE .AND. OUTCNT .G. 0                           *342 LM00387
                           OUTCNT = OUTCNT - 1                                                    *343 LM00388
                        OTHERWISE                                                                 *344 LM00389
                           OUTCNT = OUTCNT + 1                                                    *345 LM00390
                        END OF CONDITIONAL                                                        *346 LM00391
                     END OF CONDITIONAL                                                           *347 LM00392
                     OUTPTR = OUTPTR + 1                                                          *348 LM00393
                  END OF CONDITIONAL                                                              *349 LM00394
                  FUNCTION RETURN                                                                 *350 LM00395
                 ..                                                                                    LM00396
                  ENTRY TO PUTOCT.                                                                *351 LM00397
                  WHENEVER OUTPTR .L. INPTR - 2                                                   *352 LM00398
                     OUTBUF(OUTPTR) =   ((STUFF .RS. 6) .A. 7K) .V. 60K                           *353 LM00399
                     OUTBUF(OUTPTR+1) = ((STUFF .RS. 3) .A. 7K) .V. 60K                           *354 LM00400
                     OUTBUF(OUTPTR+2) = (STUFF .A. 7K) .V. 60K                                    *355 LM00401
                     OUTPTR = OUTPTR + 3                                                          *356 LM00402
                     OUTCNT = OUTCNT + 3                                                          *357 LM00403
                  END OF CONDITIONAL                                                              *358 LM00404
                  FUNCTION RETURN                                                                 *359 LM00405
                 ..                                                                                    LM00406
                 ..                                                                                    LM00407
                  ENTRY TO SETDEV.                                                                *360 LM00408
                     GETDEV.(DEVICE, PLTH)                                                        *361 LM00409
                     PLTH = PLTH - 5                                                              *362 LM00410
                     WHENEVER DEVICE .E. M35, CASE = LOWER                                        *363 LM00411
                     FUNCTION RETURN                                                              *364 LM00412
                 ..                                                                                    LM00413
                  END OF FUNCTION                                                                 *365 LM00414
                 ..                                                                                    LM00415
                  END OF FUNCTION                                                                 *366 LM00416
1MAD PROGRAM,TYPE NOV 1963      (ALL NUMBERS ARE OCTAL)
0TOTAL LOCATIONS   02102 TRANSFER VECTOR LENGTH  00002 PROGRAM BEGINS    00137
0 PROGRAM IS AN EXTERNAL FUNCTION.   THE FOLLOWING ARE ENTRIES
      INESC  00724   0        OUTESC 00140   0
0VARIABLE STORAGE (A=ARRAY,C=COMMON,E=ERASABLE,DIGIT=MODE)
      ACUTE  00015 A 1        DIGIT1 00032   1        LPAR   00050 A 1        PRCENT 00070 A 1        SMLP   00106 A 1
      BACK   00006   4        DIGIT2 00033   1        LSLANT 00051 A 1        RBRACE 00071 A 1        SMLT   00107 A 1
      BEL    00016 A 1        DIGIT3 00034   1        LTHAN  00052 A 1        RBRAK  00072 A 1        SMLU   00110 A 1
      BKCNT  00017   1        DQUOTE 00035 A 1        M1050C 00053 A 1        RED    00073 A 1        SMLX   00111 A 1
      BLK    00020 A 1        ESC1   00007   4        M2741E 00054 A 1        RPAR   00074 A 1        SMLZ   00112 A 1
      BSPACE 00021 A 1        FLIP   00036 A 1        M35    00055 A 1        RUCK   00011   4        SPACE  00113 A 1
      CAPA   00022 A 1        FORTH  00010   4        M37    00056 A 1        SEVEN  00075 A 1        TCHAR  00114   1
      CAPZ   00023 A 1        GRAVE  00037 A 1        MCHNG  00057 A 1        SIZE   00076   1        TIBCL  00115 A 1
      CASE   00024 A 1        GTHAN  00040 A 1        NINE   00060 A 1        SMLA   00077 A 1        UPPER  00116 A 1
      CFLEX  00025 A 1        HTAB   00041 A 1        NL     00061 A 1        SMLC   00100 A 1        VERT   00117 A 1
      CHAR   00026   1        INPTR  00042   1        OFFSET 00062   1        SMLE   00101 A 1        XCASE  00120 A 1
      CPYLP  00005   4        I      00043   1        OUTCNT 00063   1        SMLG   00102 A 1        XYZ1   00012   4
      CPYLPX 00005   4        LBRACE 00044 A 1        OUTPTR 00064   1        SMLK   00103 A 1        XYZ2   00013   4
      DASH   00027 A 1        LBRAK  00045 A 1        OVLN   00065 A 1        SMLL   00104 A 1        XYZ3   00014   4
      DEL    00030 A 1        LCBIT  00046 A 1        PERIOD 00066 A 1        SMLN   00105 A 1        ZERO   00121 A 1
      DEVICE 00031   1        LOWER  00047 A 1        PLTH   00067   1
0FUNCTION DICTIONARY
      EXIT   00000   1        GETDEV 00001   1        PUTCHR 00002   1        PUTOCT 00003   1        SETDEV 00004   1
0ABSOLUTE CONSTANTS
 00126 +000000000005     00133 +000000000060     00131 +000000000012     00135 +000000000777     00132 +000000000017
 00124 +000000000002     00125 +000000000003     00127 +000000000006     00130 +000000000007     00134 +000000000177
 00122 +000000000000     00123 +000000000001     00136 +233000000000
0STATEMENT DICTIONARY
 00006 TXL -300207000203       00007 TXL -300342000335       00010 TXL -301562001557       00011 TXL -301003000777
 00012 TXL -300312000303       00013 TXL -300331000324       00014 TXL -300334000331
0PROGRAM
                 EXTERNAL FUNCTION(INBUF,INSIZ,OUTBUF,OUTSIZ,MAXSIZ)                001  LM00019
                 NORMAL MODE IS INTEGER                                             002  LM00020
                 VECTOR VALUES CASE   = 0                                           003  LM00022
 00024     +0 00000 0 00000
                 VECTOR VALUES XCASE  = 0                                           004  LM00023
 00120     +0 00000 0 00000
                 VECTOR VALUES FLIP   = 0                                           005  LM00024
 00036     +0 00000 0 00000
                 VECTOR VALUES LOWER  = -1                                          006  LM00025
 00047     -0 00000 0 00001
                 VECTOR VALUES UPPER  = 1                                           007  LM00026
 00116     +0 00000 0 00001
                 VECTOR VALUES LCBIT  = 40K                                         008  LM00027
 00046     +0 00000 0 00040
                 VECTOR VALUES TIBCL  = 137K                                        009  LM00028
 00115     +0 00000 0 00137
                 VECTOR VALUES M37    = 1                                           010  LM00029
 00056     +0 00000 0 00001
                 VECTOR VALUES M1050C = 2                                           011  LM00030
 00053     +0 00000 0 00002
                 VECTOR VALUES M2741E = 3                                           012  LM00031
 00054     +0 00000 0 00003
                 VECTOR VALUES M35    = 4                                           013  LM00032
 00055     +0 00000 0 00004
                 VECTOR VALUES CAPA   = 101K                                        014  LM00034
 00022     +0 00000 0 00101
                 VECTOR VALUES CAPZ   = 132K                                        015  LM00035
 00023     +0 00000 0 00132
                 VECTOR VALUES SMLA   = 141K                                        016  LM00036
 00077     +0 00000 0 00141
                 VECTOR VALUES SMLC   = 143K                                        017  LM00037
 00100     +0 00000 0 00143
                 VECTOR VALUES SMLE   = 145K                                        018  LM00038
 00101     +0 00000 0 00145
                 VECTOR VALUES SMLG   = 147K                                        019  LM00039
 00102     +0 00000 0 00147
                 VECTOR VALUES SMLK   = 153K                                        020  LM00040
 00103     +0 00000 0 00153
                 VECTOR VALUES SMLL   = 154K                                        021  LM00041
 00104     +0 00000 0 00154
                 VECTOR VALUES SMLN   = 156K                                        022  LM00042
 00105     +0 00000 0 00156
                 VECTOR VALUES SMLP   = 160K                                        023  LM00043
 00106     +0 00000 0 00160
                 VECTOR VALUES SMLT   = 164K                                        024  LM00044
 00107     +0 00000 0 00164
                 VECTOR VALUES SMLU   = 165K                                        025  LM00045
 00110     +0 00000 0 00165
                 VECTOR VALUES SMLX   = 170K                                        026  LM00046
 00111     +0 00000 0 00170
                 VECTOR VALUES SMLZ   = 172K                                        027  LM00047
 00112     +0 00000 0 00172
                 VECTOR VALUES ZERO   = 60K                                         028  LM00048
 00121     +0 00000 0 00060
                 VECTOR VALUES SEVEN  = 67K                                         029  LM00049
 00075     +0 00000 0 00067
                 VECTOR VALUES NINE   = 71K                                         030  LM00050
 00060     +0 00000 0 00071
                 VECTOR VALUES CFLEX  = 136K                                        031  LM00051
 00025     +0 00000 0 00136
                 VECTOR VALUES ACUTE  = 47K                                         032  LM00052
 00015     +0 00000 0 00047
                 VECTOR VALUES GRAVE  = 140K                                        033  LM00053
 00037     +0 00000 0 00140
                 VECTOR VALUES OVLN   = 176K                                        034  LM00054
 00065     +0 00000 0 00176
                 VECTOR VALUES VERT   = 174K                                        035  LM00055
 00117     +0 00000 0 00174
                 VECTOR VALUES DQUOTE = 042K                                        036  LM00056
 00035     +0 00000 0 00042
                 VECTOR VALUES LTHAN  = 74K                                         037  LM00057
 00052     +0 00000 0 00074
                 VECTOR VALUES GTHAN  = 76K                                         038  LM00058
 00040     +0 00000 0 00076
                 VECTOR VALUES LPAR   = 50K                                         039  LM00059
 00050     +0 00000 0 00050
                 VECTOR VALUES RPAR   = 51K                                         040  LM00060
 00074     +0 00000 0 00051
                 VECTOR VALUES LBRACE = 173K                                        041  LM00061
 00044     +0 00000 0 00173
                 VECTOR VALUES RBRACE = 175K                                        042  LM00062
 00071     +0 00000 0 00175
                 VECTOR VALUES LBRAK  = 133K                                        043  LM00063
 00045     +0 00000 0 00133
                 VECTOR VALUES RBRAK  = 135K                                        044  LM00064
 00072     +0 00000 0 00135
                 VECTOR VALUES LSLANT = 134K                                        045  LM00065
 00051     +0 00000 0 00134
                 VECTOR VALUES PERIOD = 56K                                         046  LM00066
 00066     +0 00000 0 00056
                 VECTOR VALUES PRCENT = 45K                                         047  LM00067
 00070     +0 00000 0 00045
                 VECTOR VALUES DASH   = 55K                                         048  LM00068
 00027     +0 00000 0 00055
                 VECTOR VALUES BSPACE = 10K                                         049  LM00069
 00021     +0 00000 0 00010
                 VECTOR VALUES SPACE  = 40K                                         050  LM00070
 00113     +0 00000 0 00040
                 VECTOR VALUES BEL    = 7K                                          051  LM00071
 00016     +0 00000 0 00007
                 VECTOR VALUES HTAB   = 11K                                         052  LM00072
 00041     +0 00000 0 00011
                 VECTOR VALUES RED    = 16K                                         053  LM00073
 00073     +0 00000 0 00016
                 VECTOR VALUES BLK    = 17K                                         054  LM00074
 00020     +0 00000 0 00017
                 VECTOR VALUES DEL    = 177K                                        055  LM00075
 00030     +0 00000 0 00177
                 VECTOR VALUES MCHNG  = 033K                                        056  LM00076
 00057     +0 00000 0 00033
                 VECTOR VALUES NL     = 12K                                         057  LM00077
 00061     +0 00000 0 00012
                 ENTRY TO OUTESC.                                                   058  LM00079
 00137 TRA +0 02000 0 00142    00140 SXA +0 63400 2 02023    00141 TSX +0 07400 2 02023
                 WHENEVER DEVICE .E. 0, SETDEV.                                     059  LM00080
 00142 CLA +0 50000 0 00031    00143 SUB +0 40200 0 00122    00144 TNZ -0 10000 0 00146    00145 TSX +0 07400 4 00004
                 OFFSET = MAXSIZ -INSIZ                                             060  LM00081
 00146 CLA +0 50000 0 00024    00147 SUB +0 40200 0 00024    00150 STO +0 60100 0 00062
                 THROUGH CPYLP, FOR I = INSIZ,-1, I .L. 1                           061  LM00082
 00151 CLA +0 50000 0 00024    00152 STO +0 60100 0 00043    00153 TRA +0 02000 0 00157    00154 CLS +0 50200 0 00123
 00155 ADD +0 40000 0 00043    00156 STO +0 60100 0 00043    00157 CLA +0 50000 0 00043    00160 SUB +0 40200 0 00123
 00161 TZE +0 10000 0 00163    00162 TMI -0 12000 0 00172
      CPYLP      OUTBUF(OFFSET+I) = INBUF(I)                                        062  LM00083
 00163 CLA +0 50000 0 00062    00164 ADD +0 40000 0 00043    00165 PAX +0 73400 1 00000    00166 LXA +0 53400 2 00043
 00167 CLA +0 50000 2 00024    00170 STO +0 60100 1 00024    00171 TRA +0 02000 0 00154
                 INPTR = OFFSET + 1                                                 063  LM00084
 00172 CLA +0 50000 0 00062    00173 ADD +0 40000 0 00123    00174 STO +0 60100 0 00042
                 OUTPTR = 1                                                         064  LM00085
 00175 CLA +0 50000 0 00123    00176 STO +0 60100 0 00064
                 WHENEVER INSIZ .E. 0, TRANSFER TO XYZ3                             065  LM00086
 00177 CLA +0 50000 0 00024    00200 SUB +0 40200 0 00122    00201 TNZ -0 10000 0 00203    00202 TRA +0 02000 0 00014
      BACK       CHAR = OUTBUF(INPTR) .A. 177K                                      066  LM00088
 00203 LXA +0 53400 1 00042    00204 CAL -0 50000 1 00024    00205 ANA -0 32000 0 00134    00206 SLW +0 60200 0 00026
                 INPTR = INPTR + 1                                                  067  LM00089
 00207 CLA +0 50000 0 00042    00210 ADD +0 40000 0 00123    00211 STO +0 60100 0 00042
                 WHENEVER CHAR .E. LSLANT, TRANSFER TO ESC1                         068  LM00090
 00212 CLA +0 50000 0 00026    00213 SUB +0 40200 0 00051    00214 TNZ -0 10000 0 00216    00215 TRA +0 02000 0 00007
                 WHENEVER CHAR .GE. CAPA .AND. CHAR .LE. CAPZ                       069  LM00091
 00216 CLA +0 50000 0 00026    00217 SUB +0 40200 0 00023    00220 TZE +0 10000 0 00222    00221 TPL +0 12000 0 00251
 00222 CLA +0 50000 0 00026    00223 SUB +0 40200 0 00022    00224 TZE +0 10000 0 00226    00225 TMI -0 12000 0 00251
                    WHENEVER CASE .E. LOWER .AND. FLIP .G. 0                        070  LM00092
 00226 CLA +0 50000 0 00036    00227 SUB +0 40200 0 00122    00230 TZE +0 10000 0 00236    00231 TMI -0 12000 0 00236
 00232 CLA +0 50000 0 00024    00233 SUB +0 40200 0 00047    00234 TNZ -0 10000 0 00236
                    OR WHENEVER CASE .E. LOWER .OR. FLIP .G. 0                      071  LM00093
 00235 TRA +0 02000 0 00250    00236 CLA +0 50000 0 00036    00237 SUB +0 40200 0 00122    00240 TZE +0 10000 0 00242
 00241 TPL +0 12000 0 00245    00242 CLA +0 50000 0 00024    00243 SUB +0 40200 0 00047    00244 TNZ -0 10000 0 00250
                       CHAR = CHAR .V. LCBIT                                        072  LM00094
 00245 CAL -0 50000 0 00026    00246 ORA -0 50100 0 00046    00247 SLW +0 60200 0 00026
                    END OF CONDITIONAL                                              073  LM00095
                 OR WHENEVER CHAR .GE. SMLA .AND. CHAR .LE. SMLZ                    074  LM00096
 00250 TRA +0 02000 0 00303    00251 CLA +0 50000 0 00026    00252 SUB +0 40200 0 00112    00253 TZE +0 10000 0 00255
 00254 TPL +0 12000 0 00303    00255 CLA +0 50000 0 00026    00256 SUB +0 40200 0 00077    00257 TZE +0 10000 0 00261
 00260 TMI -0 12000 0 00303
                    WHENEVER CASE .E. UPPER .AND. FLIP .G. 0                        075  LM00097
 00261 CLA +0 50000 0 00036    00262 SUB +0 40200 0 00122    00263 TZE +0 10000 0 00271    00264 TMI -0 12000 0 00271
 00265 CLA +0 50000 0 00024    00266 SUB +0 40200 0 00116    00267 TNZ -0 10000 0 00271
                    OR WHENEVER CASE .E. UPPER .OR. FLIP .G. 0                      076  LM00098
 00270 TRA +0 02000 0 00303    00271 CLA +0 50000 0 00036    00272 SUB +0 40200 0 00122    00273 TZE +0 10000 0 00275
 00274 TPL +0 12000 0 00300    00275 CLA +0 50000 0 00024    00276 SUB +0 40200 0 00116    00277 TNZ -0 10000 0 00303
                       CHAR = CHAR .A. TIBCL                                        077  LM00099
 00300 CAL -0 50000 0 00026    00301 ANA -0 32000 0 00115    00302 SLW +0 60200 0 00026
                    END OF CONDITIONAL                                              078  LM00100
                 END OF CONDITIONAL                                                 079  LM00101
      XYZ1       WHENEVER FLIP .G. 0, FLIP = FLIP-1                                 080  LM00103
 00303 CLA +0 50000 0 00036    00304 SUB +0 40200 0 00122    00305 TZE +0 10000 0 00312    00306 TMI -0 12000 0 00312
 00307 CLA +0 50000 0 00036    00310 SUB +0 40200 0 00123    00311 STO +0 60100 0 00036
                 OUTBUF(OUTPTR) = CHAR                                              081  LM00104
 00312 LXA +0 53400 1 00064    00313 CLA +0 50000 0 00026    00314 STO +0 60100 1 00024
                 WHENEVER OUTPTR .L. INPTR, OUTPTR = OUTPTR + 1                     082  LM00105
 00315 CLA +0 50000 0 00064    00316 SUB +0 40200 0 00042    00317 TZE +0 10000 0 00324    00320 TPL +0 12000 0 00324
 00321 CLA +0 50000 0 00064    00322 ADD +0 40000 0 00123    00323 STO +0 60100 0 00064
      XYZ2       WHENEVER INPTR .LE. MAXSIZ, TRANSFER TO BACK                       083  LM00106
 00324 CLA +0 50000 0 00042    00325 SUB +0 40200 0 00024    00326 TZE +0 10000 0 00330    00327 TPL +0 12000 0 00331
 00330 TRA +0 02000 0 00006
      XYZ3       OUTSIZ = OUTPTR - 1                                                084  LM00107
 00331 CLA +0 50000 0 00064    00332 SUB +0 40200 0 00123    00333 STO +0 60100 0 00024
                 FUNCTION RETURN                                                    085  LM00108
 00334 TRA +0 02000 0 02073
      ESC1       WHENEVER INPTR .G. MAXSIZ, TRANSFER TO XYZ3                        086  LM00110
 00335 CLA +0 50000 0 00042    00336 SUB +0 40200 0 00024    00337 TZE +0 10000 0 00342    00340 TMI -0 12000 0 00342
 00341 TRA +0 02000 0 00014
                 CHAR = OUTBUF(INPTR)                                               087  LM00111
 00342 LXA +0 53400 2 00042    00343 CLA +0 50000 2 00024    00344 STO +0 60100 0 00026
                 INPTR = INPTR + 1                                                  088  LM00112
 00345 CLA +0 50000 0 00042    00346 ADD +0 40000 0 00123    00347 STO +0 60100 0 00042
                 TCHAR = CHAR .V. LCBIT                                             089  LM00113
 00350 CAL -0 50000 0 00026    00351 ORA -0 50100 0 00046    00352 SLW +0 60200 0 00114
                 WHENEVER CHAR .GE. ZERO .AND. CHAR .LE. SEVEN                      090  LM00114
 00353 CLA +0 50000 0 00026    00354 SUB +0 40200 0 00075    00355 TZE +0 10000 0 00357    00356 TPL +0 12000 0 00421
 00357 CLA +0 50000 0 00026    00360 SUB +0 40200 0 00121    00361 TZE +0 10000 0 00363    00362 TMI -0 12000 0 00421
                    DIGIT1 = CHAR .A. 1K                                            091  LM00115
 00363 CAL -0 50000 0 00026    00364 ANA -0 32000 0 00123    00365 SLW +0 60200 0 00032
                    DIGIT2 = OUTBUF(INPTR) .A. 7K                                   092  LM00116
 00366 LXA +0 53400 1 00042    00367 CAL -0 50000 1 00024    00370 ANA -0 32000 0 00130    00371 SLW +0 60200 0 00033
                    DIGIT3 = OUTBUF(INPTR+1) .A. 7K                                 093  LM00117
 00372 CLA +0 50000 0 00042    00373 ADD +0 40000 0 00123    00374 PAX +0 73400 1 00000    00375 CAL -0 50000 1 00024
 00376 ANA -0 32000 0 00130    00377 SLW +0 60200 0 00034
                    CHAR = DIGIT3 .V. (DIGIT2 .LS. 3) .V. (DIGIT1 .LS. 6)           094  LM00118
 00400 CAL -0 50000 0 00127    00401 STA +0 62100 0 00403    00402 CAL -0 50000 0 00032    00403 ALS +0 76700 0 00000
 00404 SLW +0 60200 0 02077    00405 CAL -0 50000 0 00125    00406 STA +0 62100 0 00410    00407 CAL -0 50000 0 00033
 00410 ALS +0 76700 0 00000    00411 ORA -0 50100 0 00034    00412 ORA -0 50100 0 02077    00413 SLW +0 60200 0 00026
                    INPTR = INPTR + 2                                               095  LM00119
 00414 CLA +0 50000 0 00042    00415 ADD +0 40000 0 00124    00416 STO +0 60100 0 00042
                    TRANSFER TO XYZ1                                                096  LM00120
 00417 TRA +0 02000 0 00012
                 OR WHENEVER TCHAR .E. SMLC                                         097  LM00121
 00420 TRA +0 02000 0 00445    00421 CLA +0 50000 0 00114    00422 SUB +0 40200 0 00100    00423 TNZ -0 10000 0 00431
                    INPTR = INPTR+1                                                 098  LM00122
 00424 CLA +0 50000 0 00042    00425 ADD +0 40000 0 00123    00426 STO +0 60100 0 00042
                    TRANSFER TO XYZ2                                                099  LM00123
 00427 TRA +0 02000 0 00013
                 OR WHENEVER TCHAR .E. SMLK .OR. TCHAR .E. SMLE                     100  LM00124
 00430 TRA +0 02000 0 00445    00431 CLA +0 50000 0 00114    00432 SUB +0 40200 0 00101    00433 TZE +0 10000 0 00437
 00434 CLA +0 50000 0 00114    00435 SUB +0 40200 0 00103    00436 TNZ -0 10000 0 00445
                   CHAR = MCHNG                                                     101  LM00125
 00437 CLA +0 50000 0 00057    00440 STO +0 60100 0 00026
                   INPTR = INPTR-1                                                  102  LM00126
 00441 CLA +0 50000 0 00042    00442 SUB +0 40200 0 00123    00443 STO +0 60100 0 00042
                   TRANSFER TO XYZ1                                                 103  LM00127
 00444 TRA +0 02000 0 00012
                 END OF CONDITIONAL                                                 104  LM00128
                 WHENEVER DEVICE .E. M1050C                                         105  LM00130
 00445 CLA +0 50000 0 00031    00446 SUB +0 40200 0 00053    00447 TNZ -0 10000 0 00541
                    WHENEVER CHAR .E. ACUTE                                         106  LM00131
 00450 CLA +0 50000 0 00026    00451 SUB +0 40200 0 00015    00452 TNZ -0 10000 0 00456
                       CHAR = GRAVE                                                 107  LM00132
 00453 CLA +0 50000 0 00037    00454 STO +0 60100 0 00026
                    OR WHENEVER TCHAR .E. SMLT                                      108  LM00133
 00455 TRA +0 02000 0 00540    00456 CLA +0 50000 0 00114    00457 SUB +0 40200 0 00107    00460 TNZ -0 10000 0 00464
                       CHAR = OVLN                                                  109  LM00134
 00461 CLA +0 50000 0 00065    00462 STO +0 60100 0 00026
                    OR WHENEVER TCHAR .E. SMLL                                      110  LM00135
 00463 TRA +0 02000 0 00540    00464 CLA +0 50000 0 00114    00465 SUB +0 40200 0 00104    00466 TNZ -0 10000 0 00472
                       CHAR = LTHAN                                                 111  LM00136
 00467 CLA +0 50000 0 00052    00470 STO +0 60100 0 00026
                    OR WHENEVER TCHAR .E. SMLG                                      112  LM00137
 00471 TRA +0 02000 0 00540    00472 CLA +0 50000 0 00114    00473 SUB +0 40200 0 00102    00474 TNZ -0 10000 0 00500
                       CHAR = GTHAN                                                 113  LM00138
 00475 CLA +0 50000 0 00040    00476 STO +0 60100 0 00026
                    OR WHENEVER CHAR .E. LPAR                                       114  LM00139
 00477 TRA +0 02000 0 00540    00500 CLA +0 50000 0 00026    00501 SUB +0 40200 0 00050    00502 TNZ -0 10000 0 00506
                       CHAR = LBRACE                                                115  LM00140
 00503 CLA +0 50000 0 00044    00504 STO +0 60100 0 00026
                    OR WHENEVER CHAR .E. RPAR                                       116  LM00141
 00505 TRA +0 02000 0 00540    00506 CLA +0 50000 0 00026    00507 SUB +0 40200 0 00074    00510 TNZ -0 10000 0 00514
                       CHAR = RBRACE                                                117  LM00142
 00511 CLA +0 50000 0 00071    00512 STO +0 60100 0 00026
                    OR WHENEVER CHAR .E. LSLANT                                     118  LM00143
 00513 TRA +0 02000 0 00540    00514 CLA +0 50000 0 00026    00515 SUB +0 40200 0 00051    00516 TNZ -0 10000 0 00540
                       CHAR = OUTBUF(INPTR)                                         119  LM00144
 00517 LXA +0 53400 2 00042    00520 CLA +0 50000 2 00024    00521 STO +0 60100 0 00026
                       INPTR = INPTR + 1                                            120  LM00145
 00522 CLA +0 50000 0 00042    00523 ADD +0 40000 0 00123    00524 STO +0 60100 0 00042
                       WHENEVER CHAR .E. LPAR                                       121  LM00146
 00525 CLA +0 50000 0 00026    00526 SUB +0 40200 0 00050    00527 TNZ -0 10000 0 00533
                          CHAR = LBRAK                                              122  LM00147
 00530 CLA +0 50000 0 00045    00531 STO +0 60100 0 00026
                       OR WHENEVER CHAR .E. RPAR                                    123  LM00148
 00532 TRA +0 02000 0 00540    00533 CLA +0 50000 0 00026    00534 SUB +0 40200 0 00074    00535 TNZ -0 10000 0 00540
                          CHAR = RBRAK                                              124  LM00149
 00536 CLA +0 50000 0 00072    00537 STO +0 60100 0 00026
                       END OF CONDITIONAL                                           125  LM00150
                    END OF CONDITIONAL                                              126  LM00151
                 OR WHENEVER DEVICE .E. M35                                         127  LM00152
 00540 TRA +0 02000 0 00722    00541 CLA +0 50000 0 00031    00542 SUB +0 40200 0 00055    00543 TNZ -0 10000 0 00654
                    WHENEVER CHAR .E. DASH                                          128  LM00153
 00544 CLA +0 50000 0 00026    00545 SUB +0 40200 0 00027    00546 TNZ -0 10000 0 00552
                       CHAR = BSPACE                                                129  LM00154
 00547 CLA +0 50000 0 00021    00550 STO +0 60100 0 00026
                    OR WHENEVER TCHAR .E. SMLX                                      130  LM00155
 00551 TRA +0 02000 0 00653    00552 CLA +0 50000 0 00114    00553 SUB +0 40200 0 00111    00554 TNZ -0 10000 0 00560
                       CHAR = CFLEX                                                 131  LM00156
 00555 CLA +0 50000 0 00025    00556 STO +0 60100 0 00026
                    OR WHENEVER TCHAR .E. SMLT                                      132  LM00157
 00557 TRA +0 02000 0 00653    00560 CLA +0 50000 0 00114    00561 SUB +0 40200 0 00107    00562 TNZ -0 10000 0 00566
                       CHAR = OVLN                                                  133  LM00158
 00563 CLA +0 50000 0 00065    00564 STO +0 60100 0 00026
                    OR WHENEVER CHAR .E. ACUTE                                      134  LM00159
 00565 TRA +0 02000 0 00653    00566 CLA +0 50000 0 00026    00567 SUB +0 40200 0 00015    00570 TNZ -0 10000 0 00574
                       CHAR = GRAVE                                                 135  LM00160
 00571 CLA +0 50000 0 00037    00572 STO +0 60100 0 00026
                    OR WHENEVER CHAR .E. LPAR                                       136  LM00161
 00573 TRA +0 02000 0 00653    00574 CLA +0 50000 0 00026    00575 SUB +0 40200 0 00050    00576 TNZ -0 10000 0 00602
                       CHAR = LBRACE                                                137  LM00162
 00577 CLA +0 50000 0 00044    00600 STO +0 60100 0 00026
                    OR WHENEVER CHAR .E. RPAR                                       138  LM00163
 00601 TRA +0 02000 0 00653    00602 CLA +0 50000 0 00026    00603 SUB +0 40200 0 00074    00604 TNZ -0 10000 0 00610
                       CHAR = RBRACE                                                139  LM00164
 00605 CLA +0 50000 0 00071    00606 STO +0 60100 0 00026
                    OR WHENEVER TCHAR .E. SMLU                                      140  LM00165
 00607 TRA +0 02000 0 00653    00610 CLA +0 50000 0 00114    00611 SUB +0 40200 0 00110    00612 TNZ -0 10000 0 00617
                       CASE = UPPER                                                 141  LM00166
 00613 CLA +0 50000 0 00116    00614 STO +0 60100 0 00024
                       TRANSFER TO XYZ2                                             142  LM00167
 00615 TRA +0 02000 0 00013
                    OR WHENEVER TCHAR .E. SMLL                                      143  LM00168
 00616 TRA +0 02000 0 00653    00617 CLA +0 50000 0 00114    00620 SUB +0 40200 0 00104    00621 TNZ -0 10000 0 00626
                       CASE = LOWER                                                 144  LM00169
 00622 CLA +0 50000 0 00047    00623 STO +0 60100 0 00024
                       TRANSFER TO XYZ2                                             145  LM00170
 00624 TRA +0 02000 0 00013
                    OR WHENEVER CHAR .E. CFLEX                                      146  LM00171
 00625 TRA +0 02000 0 00653    00626 CLA +0 50000 0 00026    00627 SUB +0 40200 0 00025    00630 TNZ -0 10000 0 00653
                       CHAR = OUTBUF(INPTR)                                         147  LM00172
 00631 LXA +0 53400 2 00042    00632 CLA +0 50000 2 00024    00633 STO +0 60100 0 00026
                       INPTR = INPTR + 1                                            148  LM00173
 00634 CLA +0 50000 0 00042    00635 ADD +0 40000 0 00123    00636 STO +0 60100 0 00042
                       WHENEVER CHAR .GE. ZERO .AND. CHAR .LE. NINE                 149  LM00174
 00637 CLA +0 50000 0 00026    00640 SUB +0 40200 0 00060    00641 TZE +0 10000 0 00643    00642 TPL +0 12000 0 00652
 00643 CLA +0 50000 0 00026    00644 SUB +0 40200 0 00121    00645 TZE +0 10000 0 00647    00646 TMI -0 12000 0 00652
                          FLIP = CHAR .A. 17K                                       150  LM00175
 00647 CAL -0 50000 0 00026    00650 ANA -0 32000 0 00132    00651 SLW +0 60200 0 00036
                       END OF CONDITIONAL                                           151  LM00176
                       TRANSFER TO XYZ2                                             152  LM00177
 00652 TRA +0 02000 0 00013
                    END OF CONDITIONAL                                              153  LM00178
                 OR WHENEVER DEVICE .E. M2741E                                      154  LM00179
 00653 TRA +0 02000 0 00722    00654 CLA +0 50000 0 00031    00655 SUB +0 40200 0 00054    00656 TNZ -0 10000 0 00722
                    WHENEVER CHAR .E. ACUTE                                         155  LM00180
 00657 CLA +0 50000 0 00026    00660 SUB +0 40200 0 00015    00661 TNZ -0 10000 0 00665
                       CHAR = GRAVE                                                 156  LM00181
 00662 CLA +0 50000 0 00037    00663 STO +0 60100 0 00026
                    OR WHENEVER CHAR .E. LTHAN                                      157  LM00182
 00664 TRA +0 02000 0 00722    00665 CLA +0 50000 0 00026    00666 SUB +0 40200 0 00052    00667 TNZ -0 10000 0 00673
                       CHAR = LBRAK                                                 158  LM00183
 00670 CLA +0 50000 0 00045    00671 STO +0 60100 0 00026
                    OR WHENEVER CHAR .E. GTHAN                                      159  LM00184
 00672 TRA +0 02000 0 00722    00673 CLA +0 50000 0 00026    00674 SUB +0 40200 0 00040    00675 TNZ -0 10000 0 00701
                       CHAR = RBRAK                                                 160  LM00185
 00676 CLA +0 50000 0 00072    00677 STO +0 60100 0 00026
                    OR WHENEVER CHAR .E. LPAR                                       161  LM00186
 00700 TRA +0 02000 0 00722    00701 CLA +0 50000 0 00026    00702 SUB +0 40200 0 00050    00703 TNZ -0 10000 0 00707
                       CHAR = LBRACE                                                162  LM00187
 00704 CLA +0 50000 0 00044    00705 STO +0 60100 0 00026
                    OR WHENEVER CHAR .E. RPAR                                       163  LM00188
 00706 TRA +0 02000 0 00722    00707 CLA +0 50000 0 00026    00710 SUB +0 40200 0 00074    00711 TNZ -0 10000 0 00715
                       CHAR = RBRACE                                                164  LM00189
 00712 CLA +0 50000 0 00071    00713 STO +0 60100 0 00026
                    OR WHENEVER CHAR .E. SMLT                                       165  LM00190
 00714 TRA +0 02000 0 00722    00715 CLA +0 50000 0 00026    00716 SUB +0 40200 0 00107    00717 TNZ -0 10000 0 00722
                       CHAR = OVLN                                                  166  LM00191
 00720 CLA +0 50000 0 00065    00721 STO +0 60100 0 00026
                    END OF CONDITIONAL                                              167  LM00192
                 END OF CONDITIONAL                                                 168  LM00193
                 TRANSFER TO XYZ1                                                   169  LM00194
 00722 TRA +0 02000 0 00012
                 ENTRY TO INESC.                                                    170  LM00201
 00723 TRA +0 02000 0 00726    00724 SXA +0 63400 2 02023    00725 TSX +0 07400 2 02023
                 WHENEVER DEVICE .E. 0, SETDEV.                                     171  LM00202
 00726 CLA +0 50000 0 00031    00727 SUB +0 40200 0 00122    00730 TNZ -0 10000 0 00732    00731 TSX +0 07400 4 00004
                 SIZE = INSIZ                                                       172  LM00203
 00732 CLA +0 50000 0 00024    00733 STO +0 60100 0 00076
                 WHENEVER SIZE .G. MAXSIZ, SIZE = MAXSIZ                            173  LM00204
 00734 CLA +0 50000 0 00076    00735 SUB +0 40200 0 00024    00736 TZE +0 10000 0 00742    00737 TMI -0 12000 0 00742
 00740 CLA +0 50000 0 00024    00741 STO +0 60100 0 00076
                 OFFSET = MAXSIZ - SIZE                                             174  LM00205
 00742 CLA +0 50000 0 00024    00743 SUB +0 40200 0 00076    00744 STO +0 60100 0 00062
                 THROUGH CPYLPX, FOR I = SIZE,-1, I .L. 1                           175  LM00206
 00745 CLA +0 50000 0 00076    00746 STO +0 60100 0 00043    00747 TRA +0 02000 0 00753    00750 CLS +0 50200 0 00123
 00751 ADD +0 40000 0 00043    00752 STO +0 60100 0 00043    00753 CLA +0 50000 0 00043    00754 SUB +0 40200 0 00123
 00755 TZE +0 10000 0 00757    00756 TMI -0 12000 0 00766
      CPYLPX     OUTBUF(OFFSET+I) = INBUF(I)                                        176  LM00207
 00757 CLA +0 50000 0 00062    00760 ADD +0 40000 0 00043    00761 PAX +0 73400 1 00000    00762 LXA +0 53400 2 00043
 00763 CLA +0 50000 2 00024    00764 STO +0 60100 1 00024    00765 TRA +0 02000 0 00750
                 INPTR = OFFSET + 1                                                 177  LM00208
 00766 CLA +0 50000 0 00062    00767 ADD +0 40000 0 00123    00770 STO +0 60100 0 00042
                 OUTPTR = 1                                                         178  LM00209
 00771 CLA +0 50000 0 00123    00772 STO +0 60100 0 00064
                 WHENEVER INSIZ .E. 0, TRANSFER TO FORTH                            179  LM00210
 00773 CLA +0 50000 0 00024    00774 SUB +0 40200 0 00122    00775 TNZ -0 10000 0 00777    00776 TRA +0 02000 0 00010
      RUCK       CHAR = OUTBUF(INPTR) .A. 777K                                      180  LM00212
 00777 LXA +0 53400 1 00042    01000 CAL -0 50000 1 00024    01001 ANA -0 32000 0 00135    01002 SLW +0 60200 0 00026
                 INPTR = INPTR + 1                                                  181  LM00213
 01003 CLA +0 50000 0 00042    01004 ADD +0 40000 0 00123    01005 STO +0 60100 0 00042
                 WHENEVER OUTCNT .G. PLTH .AND. CHAR .NE. NL                        182  LM00214
 01006 CLA +0 50000 0 00026    01007 SUB +0 40200 0 00061    01010 TZE +0 10000 0 01023    01011 CLA +0 50000 0 00063
 01012 SUB +0 40200 0 00067    01013 TZE +0 10000 0 01023    01014 TMI -0 12000 0 01023
                   PUTCHR.(LSLANT)                                                  183  LM00215
 01015 TSX +0 07400 4 00002    01016 TXH +3 00000 0 00051
                   PUTCHR.(SMLC)                                                    184  LM00216
 01017 TSX +0 07400 4 00002    01020 TXH +3 00000 0 00100
                   PUTCHR.(NL)                                                      185  LM00217
 01021 TSX +0 07400 4 00002    01022 TXH +3 00000 0 00061
                 END OF CONDITIONAL                                                 186  LM00218
                 WHENEVER DEVICE .E. M1050C                                         187  LM00219
 01023 CLA +0 50000 0 00031    01024 SUB +0 40200 0 00053    01025 TNZ -0 10000 0 01204
                    WHENEVER CHAR .L. SPACE .OR. CHAR .GE. DEL                      188  LM00220
 01026 CLA +0 50000 0 00026    01027 SUB +0 40200 0 00030    01030 TZE +0 10000 0 01036    01031 TPL +0 12000 0 01036
 01032 CLA +0 50000 0 00026    01033 SUB +0 40200 0 00113    01034 TZE +0 10000 0 01065    01035 TPL +0 12000 0 01065
                       WHENEVER CHAR .E. BSPACE                                     189  LM00221
                1      .OR. CHAR .E. HTAB                                           189  LM00222
                2      .OR. CHAR .E. NL                                             189  LM00223
                3      .OR. CHAR .E. RED                                            189  LM00224
                4      .OR. CHAR .E. BLK                                            189  LM00225
 01036 CLA +0 50000 0 00026    01037 SUB +0 40200 0 00020    01040 TZE +0 10000 0 01055    01041 CLA +0 50000 0 00026
 01042 SUB +0 40200 0 00073    01043 TZE +0 10000 0 01055    01044 CLA +0 50000 0 00026    01045 SUB +0 40200 0 00061
 01046 TZE +0 10000 0 01055    01047 CLA +0 50000 0 00026    01050 SUB +0 40200 0 00041    01051 TZE +0 10000 0 01055
 01052 CLA +0 50000 0 00026    01053 SUB +0 40200 0 00021    01054 TNZ -0 10000 0 01060
                          PUTCHR.(CHAR)                                             190  LM00226
 01055 TSX +0 07400 4 00002    01056 TXH +3 00000 0 00026
                       OTHERWISE                                                    191  LM00227
 01057 TRA +0 02000 0 01064
                          PUTCHR.(LSLANT)                                           192  LM00228
 01060 TSX +0 07400 4 00002    01061 TXH +3 00000 0 00051
                          PUTOCT.(CHAR)                                             193  LM00229
 01062 TSX +0 07400 4 00003    01063 TXH +3 00000 0 00026
                       END OF CONDITIONAL                                           194  LM00230
                    OTHERWISE                                                       195  LM00231
 01064 TRA +0 02000 0 01203
                       WHENEVER CHAR .E. GRAVE                                      196  LM00232
 01065 CLA +0 50000 0 00026    01066 SUB +0 40200 0 00037    01067 TNZ -0 10000 0 01075
                          PUTCHR.(LSLANT)                                           197  LM00233
 01070 TSX +0 07400 4 00002    01071 TXH +3 00000 0 00051
                          PUTCHR.(ACUTE)                                            198  LM00234
 01072 TSX +0 07400 4 00002    01073 TXH +3 00000 0 00015
                       OR WHENEVER CHAR .E. OVLN                                    199  LM00235
 01074 TRA +0 02000 0 01203    01075 CLA +0 50000 0 00026    01076 SUB +0 40200 0 00065    01077 TNZ -0 10000 0 01105
                          PUTCHR.(LSLANT)                                           200  LM00236
 01100 TSX +0 07400 4 00002    01101 TXH +3 00000 0 00051
                          PUTCHR.(SMLT)                                             201  LM00237
 01102 TSX +0 07400 4 00002    01103 TXH +3 00000 0 00107
                       OR WHENEVER CHAR .E. LBRAK                                   202  LM00238
 01104 TRA +0 02000 0 01203    01105 CLA +0 50000 0 00026    01106 SUB +0 40200 0 00045    01107 TNZ -0 10000 0 01117
                          PUTCHR.(LSLANT)                                           203  LM00239
 01110 TSX +0 07400 4 00002    01111 TXH +3 00000 0 00051
                          PUTCHR.(LSLANT)                                           204  LM00240
 01112 TSX +0 07400 4 00002    01113 TXH +3 00000 0 00051
                          PUTCHR.(LPAR)                                             205  LM00241
 01114 TSX +0 07400 4 00002    01115 TXH +3 00000 0 00050
                       OR WHENEVER CHAR .E. RBRAK                                   206  LM00242
 01116 TRA +0 02000 0 01203    01117 CLA +0 50000 0 00026    01120 SUB +0 40200 0 00072    01121 TNZ -0 10000 0 01131
                          PUTCHR.(LSLANT)                                           207  LM00243
 01122 TSX +0 07400 4 00002    01123 TXH +3 00000 0 00051
                          PUTCHR.(LSLANT)                                           208  LM00244
 01124 TSX +0 07400 4 00002    01125 TXH +3 00000 0 00051
                          PUTCHR.(RPAR)                                             209  LM00245
 01126 TSX +0 07400 4 00002    01127 TXH +3 00000 0 00074
                       OR WHENEVER CHAR .E. LTHAN                                   210  LM00246
 01130 TRA +0 02000 0 01203    01131 CLA +0 50000 0 00026    01132 SUB +0 40200 0 00052    01133 TNZ -0 10000 0 01141
                          PUTCHR.(LSLANT)                                           211  LM00247
 01134 TSX +0 07400 4 00002    01135 TXH +3 00000 0 00051
                          PUTCHR.(SMLL)                                             212  LM00248
 01136 TSX +0 07400 4 00002    01137 TXH +3 00000 0 00104
                       OR WHENEVER CHAR .E. GTHAN                                   213  LM00249
 01140 TRA +0 02000 0 01203    01141 CLA +0 50000 0 00026    01142 SUB +0 40200 0 00040    01143 TNZ -0 10000 0 01151
                          PUTCHR.(LSLANT)                                           214  LM00250
 01144 TSX +0 07400 4 00002    01145 TXH +3 00000 0 00051
                          PUTCHR.(SMLG)                                             215  LM00251
 01146 TSX +0 07400 4 00002    01147 TXH +3 00000 0 00102
                       OR WHENEVER CHAR .E. LBRACE                                  216  LM00252
 01150 TRA +0 02000 0 01203    01151 CLA +0 50000 0 00026    01152 SUB +0 40200 0 00044    01153 TNZ -0 10000 0 01161
                          PUTCHR.(LSLANT)                                           217  LM00253
 01154 TSX +0 07400 4 00002    01155 TXH +3 00000 0 00051
                          PUTCHR.(LPAR)                                             218  LM00254
 01156 TSX +0 07400 4 00002    01157 TXH +3 00000 0 00050
                       OR WHENEVER CHAR .E. RBRACE                                  219  LM00255
 01160 TRA +0 02000 0 01203    01161 CLA +0 50000 0 00026    01162 SUB +0 40200 0 00071    01163 TNZ -0 10000 0 01171
                          PUTCHR.(LSLANT)                                           220  LM00256
 01164 TSX +0 07400 4 00002    01165 TXH +3 00000 0 00051
                          PUTCHR.(RPAR)                                             221  LM00257
 01166 TSX +0 07400 4 00002    01167 TXH +3 00000 0 00074
                       OR WHENEVER CHAR .E. LSLANT                                  222  LM00258
 01170 TRA +0 02000 0 01203    01171 CLA +0 50000 0 00026    01172 SUB +0 40200 0 00051    01173 TNZ -0 10000 0 01201
                          PUTCHR.(LSLANT)                                           223  LM00259
 01174 TSX +0 07400 4 00002    01175 TXH +3 00000 0 00051
                          PUTOCT.(CHAR)                                             224  LM00260
 01176 TSX +0 07400 4 00003    01177 TXH +3 00000 0 00026
                       OTHERWISE                                                    225  LM00261
 01200 TRA +0 02000 0 01203
                          PUTCHR.(CHAR)                                             226  LM00262
 01201 TSX +0 07400 4 00002    01202 TXH +3 00000 0 00026
                       END OF CONDITIONAL                                           227  LM00263
                    END OF CONDITIONAL                                              228  LM00264
                 OR WHENEVER DEVICE .E. M35                                         229  LM00265
 01203 TRA +0 02000 0 01552    01204 CLA +0 50000 0 00031    01205 SUB +0 40200 0 00055    01206 TNZ -0 10000 0 01403
                    WHENEVER CHAR .L. SPACE .OR. CHAR .GE. DEL                      230  LM00266
 01207 CLA +0 50000 0 00026    01210 SUB +0 40200 0 00030    01211 TZE +0 10000 0 01217    01212 TPL +0 12000 0 01217
 01213 CLA +0 50000 0 00026    01214 SUB +0 40200 0 00113    01215 TZE +0 10000 0 01250    01216 TPL +0 12000 0 01250
                       WHENEVER CHAR .E. BEL                                        231  LM00267
                1      .OR. CHAR .E. HTAB                                           231  LM00268
                2      .OR. CHAR .E. NL                                             231  LM00269
 01217 CLA +0 50000 0 00026    01220 SUB +0 40200 0 00061    01221 TZE +0 10000 0 01230    01222 CLA +0 50000 0 00026
 01223 SUB +0 40200 0 00041    01224 TZE +0 10000 0 01230    01225 CLA +0 50000 0 00026    01226 SUB +0 40200 0 00016
 01227 TNZ -0 10000 0 01233
                          PUTCHR.(CHAR)                                             232  LM00270
 01230 TSX +0 07400 4 00002    01231 TXH +3 00000 0 00026
                       OR WHENEVER CHAR .E. BSPACE                                  233  LM00271
 01232 TRA +0 02000 0 01247    01233 CLA +0 50000 0 00026    01234 SUB +0 40200 0 00021    01235 TNZ -0 10000 0 01243
                          PUTCHR.(LSLANT)                                           234  LM00272
 01236 TSX +0 07400 4 00002    01237 TXH +3 00000 0 00051
                          PUTCHR.(DASH)                                             235  LM00273
 01240 TSX +0 07400 4 00002    01241 TXH +3 00000 0 00027
                       OTHERWISE                                                    236  LM00274
 01242 TRA +0 02000 0 01247
                          PUTCHR.(LSLANT)                                           237  LM00275
 01243 TSX +0 07400 4 00002    01244 TXH +3 00000 0 00051
                          PUTOCT.(CHAR)                                             238  LM00276
 01245 TSX +0 07400 4 00003    01246 TXH +3 00000 0 00026
                       END OF CONDITIONAL                                           239  LM00277
                    OTHERWISE                                                       240  LM00278
 01247 TRA +0 02000 0 01402
                       WHENEVER CHAR .E. OVLN                                       241  LM00279
 01250 CLA +0 50000 0 00026    01251 SUB +0 40200 0 00065    01252 TNZ -0 10000 0 01260
                          PUTCHR.(LSLANT)                                           242  LM00280
 01253 TSX +0 07400 4 00002    01254 TXH +3 00000 0 00051
                          PUTCHR.(SMLT)                                             243  LM00281
 01255 TSX +0 07400 4 00002    01256 TXH +3 00000 0 00107
                       OR WHENEVER CHAR .E. CFLEX                                   244  LM00282
 01257 TRA +0 02000 0 01402    01260 CLA +0 50000 0 00026    01261 SUB +0 40200 0 00025    01262 TNZ -0 10000 0 01270
                          PUTCHR.(LSLANT)                                           245  LM00283
 01263 TSX +0 07400 4 00002    01264 TXH +3 00000 0 00051
                          PUTCHR.(SMLX)                                             246  LM00284
 01265 TSX +0 07400 4 00002    01266 TXH +3 00000 0 00111
                       OR WHENEVER CHAR .E. GRAVE                                   247  LM00285
 01267 TRA +0 02000 0 01402    01270 CLA +0 50000 0 00026    01271 SUB +0 40200 0 00037    01272 TNZ -0 10000 0 01300
                          PUTCHR.(LSLANT)                                           248  LM00286
 01273 TSX +0 07400 4 00002    01274 TXH +3 00000 0 00051
                          PUTCHR.(ACUTE)                                            249  LM00287
 01275 TSX +0 07400 4 00002    01276 TXH +3 00000 0 00015
                       OR WHENEVER CHAR .E. RBRACE                                  250  LM00288
 01277 TRA +0 02000 0 01402    01300 CLA +0 50000 0 00026    01301 SUB +0 40200 0 00071    01302 TNZ -0 10000 0 01310
                          PUTCHR.(LSLANT)                                           251  LM00289
 01303 TSX +0 07400 4 00002    01304 TXH +3 00000 0 00051
                          PUTCHR.(RPAR)                                             252  LM00290
 01305 TSX +0 07400 4 00002    01306 TXH +3 00000 0 00074
                       OR WHENEVER CHAR .E. LBRACE                                  253  LM00291
 01307 TRA +0 02000 0 01402    01310 CLA +0 50000 0 00026    01311 SUB +0 40200 0 00044    01312 TNZ -0 10000 0 01320
                          PUTCHR.(LSLANT)                                           254  LM00292
 01313 TSX +0 07400 4 00002    01314 TXH +3 00000 0 00051
                          PUTCHR.(LPAR)                                             255  LM00293
 01315 TSX +0 07400 4 00002    01316 TXH +3 00000 0 00050
                       OR WHENEVER CHAR .GE. SMLA .AND. CHAR .LE. SMLZ              256  LM00294
 01317 TRA +0 02000 0 01402    01320 CLA +0 50000 0 00026    01321 SUB +0 40200 0 00112    01322 TZE +0 10000 0 01324
 01323 TPL +0 12000 0 01344    01324 CLA +0 50000 0 00026    01325 SUB +0 40200 0 00077    01326 TZE +0 10000 0 01330
 01327 TMI -0 12000 0 01344
                          WHENEVER XCASE .NE. LOWER                                 257  LM00295
 01330 CLA +0 50000 0 00120    01331 SUB +0 40200 0 00047    01332 TZE +0 10000 0 01341
                             XCASE = LOWER                                          258  LM00296
 01333 CLA +0 50000 0 00047    01334 STO +0 60100 0 00120
                             PUTCHR.(LSLANT)                                        259  LM00297
 01335 TSX +0 07400 4 00002    01336 TXH +3 00000 0 00051
                             PUTCHR.(SMLL)                                          260  LM00298
 01337 TSX +0 07400 4 00002    01340 TXH +3 00000 0 00104
                          END OF CONDITIONAL                                        261  LM00299
                          PUTCHR.(CHAR)                                             262  LM00300
 01341 TSX +0 07400 4 00002    01342 TXH +3 00000 0 00026
                       OR WHENEVER CHAR .GE. CAPA .AND. CHAR .LE. CAPZ              263  LM00301
 01343 TRA +0 02000 0 01402    01344 CLA +0 50000 0 00026    01345 SUB +0 40200 0 00023    01346 TZE +0 10000 0 01350
 01347 TPL +0 12000 0 01370    01350 CLA +0 50000 0 00026    01351 SUB +0 40200 0 00022    01352 TZE +0 10000 0 01354
 01353 TMI -0 12000 0 01370
                          WHENEVER XCASE .NE. UPPER                                 264  LM00302
 01354 CLA +0 50000 0 00120    01355 SUB +0 40200 0 00116    01356 TZE +0 10000 0 01365
                             XCASE = UPPER                                          265  LM00303
 01357 CLA +0 50000 0 00116    01360 STO +0 60100 0 00120
                             PUTCHR.(LSLANT)                                        266  LM00304
 01361 TSX +0 07400 4 00002    01362 TXH +3 00000 0 00051
                             PUTCHR.(SMLU)                                          267  LM00305
 01363 TSX +0 07400 4 00002    01364 TXH +3 00000 0 00110
                          END OF CONDITIONAL                                        268  LM00306
                          PUTCHR.(CHAR)                                             269  LM00307
 01365 TSX +0 07400 4 00002    01366 TXH +3 00000 0 00026
                       OR WHENEVER CHAR .E. LSLANT                                  270  LM00308
 01367 TRA +0 02000 0 01402    01370 CLA +0 50000 0 00026    01371 SUB +0 40200 0 00051    01372 TNZ -0 10000 0 01400
                        PUTCHR.(LSLANT)                                             271  LM00309
 01373 TSX +0 07400 4 00002    01374 TXH +3 00000 0 00051
                        PUTOCT.(CHAR)                                               272  LM00310
 01375 TSX +0 07400 4 00003    01376 TXH +3 00000 0 00026
                       OTHERWISE                                                    273  LM00311
 01377 TRA +0 02000 0 01402
                          PUTCHR.(CHAR)                                             274  LM00312
 01400 TSX +0 07400 4 00002    01401 TXH +3 00000 0 00026
                       END OF CONDITIONAL                                           275  LM00313
                    END OF CONDITIONAL                                              276  LM00314
                 OR WHENEVER DEVICE .E. M2741E                                      277  LM00315
 01402 TRA +0 02000 0 01552    01403 CLA +0 50000 0 00031    01404 SUB +0 40200 0 00054    01405 TNZ -0 10000 0 01540
                    WHENEVER CHAR .L. SPACE .OR. CHAR .GE. DEL                      278  LM00316
 01406 CLA +0 50000 0 00026    01407 SUB +0 40200 0 00030    01410 TZE +0 10000 0 01416    01411 TPL +0 12000 0 01416
 01412 CLA +0 50000 0 00026    01413 SUB +0 40200 0 00113    01414 TZE +0 10000 0 01445    01415 TPL +0 12000 0 01445
                       WHENEVER CHAR .E. BSPACE                                     279  LM00317
                1      .OR. CHAR .E. HTAB                                           279  LM00318
                2      .OR. CHAR .E. NL                                             279  LM00319
                3      .OR. CHAR .E. RED                                            279  LM00320
                4      .OR. CHAR .E. BLK                                            279  LM00321
 01416 CLA +0 50000 0 00026    01417 SUB +0 40200 0 00020    01420 TZE +0 10000 0 01435    01421 CLA +0 50000 0 00026
 01422 SUB +0 40200 0 00073    01423 TZE +0 10000 0 01435    01424 CLA +0 50000 0 00026    01425 SUB +0 40200 0 00061
 01426 TZE +0 10000 0 01435    01427 CLA +0 50000 0 00026    01430 SUB +0 40200 0 00041    01431 TZE +0 10000 0 01435
 01432 CLA +0 50000 0 00026    01433 SUB +0 40200 0 00021    01434 TNZ -0 10000 0 01440
                          PUTCHR.(CHAR)                                             280  LM00322
 01435 TSX +0 07400 4 00002    01436 TXH +3 00000 0 00026
                       OTHERWISE                                                    281  LM00323
 01437 TRA +0 02000 0 01444
                          PUTCHR.(LSLANT)                                           282  LM00324
 01440 TSX +0 07400 4 00002    01441 TXH +3 00000 0 00051
                          PUTOCT.(CHAR)                                             283  LM00325
 01442 TSX +0 07400 4 00003    01443 TXH +3 00000 0 00026
                       END OF CONDITIONAL                                           284  LM00326
                    OTHERWISE                                                       285  LM00327
 01444 TRA +0 02000 0 01537
                       WHENEVER CHAR .E. GRAVE                                      286  LM00328
 01445 CLA +0 50000 0 00026    01446 SUB +0 40200 0 00037    01447 TNZ -0 10000 0 01455
                          PUTCHR.(LSLANT)                                           287  LM00329
 01450 TSX +0 07400 4 00002    01451 TXH +3 00000 0 00051
                          PUTCHR.(ACUTE)                                            288  LM00330
 01452 TSX +0 07400 4 00002    01453 TXH +3 00000 0 00015
                       OR WHENEVER CHAR .E. LBRACE                                  289  LM00331
 01454 TRA +0 02000 0 01537    01455 CLA +0 50000 0 00026    01456 SUB +0 40200 0 00044    01457 TNZ -0 10000 0 01465
                          PUTCHR.(LSLANT)                                           290  LM00332
 01460 TSX +0 07400 4 00002    01461 TXH +3 00000 0 00051
                          PUTCHR.(LPAR)                                             291  LM00333
 01462 TSX +0 07400 4 00002    01463 TXH +3 00000 0 00050
                       OR WHENEVER CHAR .E. RBRACE                                  292  LM00334
 01464 TRA +0 02000 0 01537    01465 CLA +0 50000 0 00026    01466 SUB +0 40200 0 00071    01467 TNZ -0 10000 0 01475
                          PUTCHR.(LSLANT)                                           293  LM00335
 01470 TSX +0 07400 4 00002    01471 TXH +3 00000 0 00051
                          PUTCHR.(RPAR)                                             294  LM00336
 01472 TSX +0 07400 4 00002    01473 TXH +3 00000 0 00074
                       OR WHENEVER CHAR .E. OVLN                                    295  LM00337
 01474 TRA +0 02000 0 01537    01475 CLA +0 50000 0 00026    01476 SUB +0 40200 0 00065    01477 TNZ -0 10000 0 01505
                          PUTCHR.(LSLANT)                                           296  LM00338
 01500 TSX +0 07400 4 00002    01501 TXH +3 00000 0 00051
                          PUTCHR.(SMLT)                                             297  LM00339
 01502 TSX +0 07400 4 00002    01503 TXH +3 00000 0 00107
                       OR WHENEVER CHAR .E. LBRAK                                   298  LM00340
 01504 TRA +0 02000 0 01537    01505 CLA +0 50000 0 00026    01506 SUB +0 40200 0 00045    01507 TNZ -0 10000 0 01515
                          PUTCHR.(LSLANT)                                           299  LM00341
 01510 TSX +0 07400 4 00002    01511 TXH +3 00000 0 00051
                          PUTCHR.(LTHAN)                                            300  LM00342
 01512 TSX +0 07400 4 00002    01513 TXH +3 00000 0 00052
                       OR WHENEVER CHAR .E. RBRAK                                   301  LM00343
 01514 TRA +0 02000 0 01537    01515 CLA +0 50000 0 00026    01516 SUB +0 40200 0 00072    01517 TNZ -0 10000 0 01525
                          PUTCHR.(LSLANT)                                           302  LM00344
 01520 TSX +0 07400 4 00002    01521 TXH +3 00000 0 00051
                          PUTCHR.(GTHAN)                                            303  LM00345
 01522 TSX +0 07400 4 00002    01523 TXH +3 00000 0 00040
                       OR WHENEVER CHAR .E. LSLANT                                  304  LM00346
 01524 TRA +0 02000 0 01537    01525 CLA +0 50000 0 00026    01526 SUB +0 40200 0 00051    01527 TNZ -0 10000 0 01535
                          PUTCHR.(LSLANT)                                           305  LM00347
 01530 TSX +0 07400 4 00002    01531 TXH +3 00000 0 00051
                          PUTOCT.(CHAR)                                             306  LM00348
 01532 TSX +0 07400 4 00003    01533 TXH +3 00000 0 00026
                       OTHERWISE                                                    307  LM00349
 01534 TRA +0 02000 0 01537
                          PUTCHR.(CHAR)                                             308  LM00350
 01535 TSX +0 07400 4 00002    01536 TXH +3 00000 0 00026
                       END OF CONDITIONAL                                           309  LM00351
                    END OF CONDITIONAL                                              310  LM00352
                 OTHERWISE                                                          311  LM00353
 01537 TRA +0 02000 0 01552
                    WHENEVER CHAR .E. LSLANT                                        312  LM00354
 01540 CLA +0 50000 0 00026    01541 SUB +0 40200 0 00051    01542 TNZ -0 10000 0 01550
                       PUTCHR.(LSLANT)                                              313  LM00355
 01543 TSX +0 07400 4 00002    01544 TXH +3 00000 0 00051
                       PUTOCT.(CHAR)                                                314  LM00356
 01545 TSX +0 07400 4 00003    01546 TXH +3 00000 0 00026
                    OTHERWISE                                                       315  LM00357
 01547 TRA +0 02000 0 01552
                       PUTCHR.(CHAR)                                                316  LM00358
 01550 TSX +0 07400 4 00002    01551 TXH +3 00000 0 00026
                    END OF CONDITIONAL                                              317  LM00359
                 END OF CONDITIONAL                                                 318  LM00360
                 WHENEVER INPTR .LE. MAXSIZ, TRANSFER TO RUCK                       319  LM00362
 01552 CLA +0 50000 0 00042    01553 SUB +0 40200 0 00024    01554 TZE +0 10000 0 01556    01555 TPL +0 12000 0 01557
 01556 TRA +0 02000 0 00011
      FORTH      OUTSIZ = OUTPTR - 1                                                320  LM00363
 01557 CLA +0 50000 0 00064    01560 SUB +0 40200 0 00123    01561 STO +0 60100 0 00024
                 FUNCTION RETURN                                                    321  LM00364
 01562 TRA +0 02000 0 02073
                 INTERNAL FUNCTION(STUFF)                                           322  LM00366
 01563 TRA +0 02000 0 02022
                 ENTRY TO PUTCHR.                                                   323  LM00368
 01564 TRA +0 02000 0 01567    00002 TTR +0 02100 0 01565    01565 SXA +0 63400 2 01777    01566 TSX +0 07400 2 01777
                 WHENEVER OUTPTR .L. INPTR                                          324  LM00369
 01567 CLA +0 50000 0 00064    01570 SUB +0 40200 0 00042    01571 TZE +0 10000 0 01701    01572 TPL +0 12000 0 01701
                    OUTBUF(OUTPTR) = STUFF                                          325  LM00370
 01573 LXA +0 53400 1 00064    01574 CLA +0 50000 0 00024    01575 STO +0 60100 1 00024
                    WHENEVER STUFF .E. SPACE                                        326  LM00371
 01576 CLA +0 50000 0 00024    01577 SUB +0 40200 0 00113    01600 TNZ -0 10000 0 01641
                       OUTCNT = OUTCNT + 1                                          327  LM00372
 01601 CLA +0 50000 0 00063    01602 ADD +0 40000 0 00123    01603 STO +0 60100 0 00063
                       BKCNT = BKCNT + 1                                            328  LM00373
 01604 CLA +0 50000 0 00017    01605 ADD +0 40000 0 00123    01606 STO +0 60100 0 00017
                       WHENEVER (OUTCNT/10)*10 .E. OUTCNT .AND. BKCNT.G.0           329  LM00374
 01607 CLA +0 50000 0 00017    01610 SUB +0 40200 0 00122    01611 TZE +0 10000 0 01640    01612 TMI -0 12000 0 01640
 01613 LDQ +0 56000 0 00063    01614 PXD -0 75400 0 00000    01615 LLS +0 76300 0 00000    01616 DVP +0 22100 0 00131
 01617 MPY +0 20000 0 00131    01620 XCA +0 13100 0 00000    01621 SUB +0 40200 0 00063    01622 TNZ -0 10000 0 01640
                          WHENEVER BKCNT .G. 2                                      330  LM00375
 01623 CLA +0 50000 0 00017    01624 SUB +0 40200 0 00124    01625 TZE +0 10000 0 01636    01626 TMI -0 12000 0 01636
                             OUTPTR = OUTPTR - BKCNT + 1                            331  LM00376
 01627 CLA +0 50000 0 00064    01630 SUB +0 40200 0 00017    01631 ADD +0 40000 0 00123    01632 STO +0 60100 0 00064
                             OUTBUF(OUTPTR) = HTAB                                  332  LM00377
 01633 LXA +0 53400 1 00064    01634 CLA +0 50000 0 00041    01635 STO +0 60100 1 00024
                          END OF CONDITIONAL                                        333  LM00378
                          BKCNT = 0                                                 334  LM00379
 01636 CLA +0 50000 0 00122    01637 STO +0 60100 0 00017
                       END OF CONDITIONAL                                           335  LM00380
                    OTHERWISE                                                       336  LM00381
 01640 TRA +0 02000 0 01676
                       BKCNT = 0                                                    337  LM00382
 01641 CLA +0 50000 0 00122    01642 STO +0 60100 0 00017
                       WHENEVER STUFF .E. NL                                        338  LM00383
 01643 CLA +0 50000 0 00024    01644 SUB +0 40200 0 00061    01645 TNZ -0 10000 0 01651
                          OUTCNT = 0                                                339  LM00384
 01646 CLA +0 50000 0 00122    01647 STO +0 60100 0 00063
                       OR WHENEVER STUFF .E. RED .OR. STUFF .E. BLK                 340  LM00385
 01650 TRA +0 02000 0 01676    01651 CLA +0 50000 0 00024    01652 SUB +0 40200 0 00020    01653 TZE +0 10000 0 01657
 01654 CLA +0 50000 0 00024    01655 SUB +0 40200 0 00073    01656 TNZ -0 10000 0 01660
                          CONTINUE                                                  341  LM00386
                       OR WHENEVER STUFF .E. BSPACE .AND. OUTCNT .G. 0              342  LM00387
 01657 TRA +0 02000 0 01676    01660 CLA +0 50000 0 00063    01661 SUB +0 40200 0 00122    01662 TZE +0 10000 0 01673
 01663 TMI -0 12000 0 01673    01664 CLA +0 50000 0 00024    01665 SUB +0 40200 0 00021    01666 TNZ -0 10000 0 01673
                          OUTCNT = OUTCNT - 1                                       343  LM00388
 01667 CLA +0 50000 0 00063    01670 SUB +0 40200 0 00123    01671 STO +0 60100 0 00063
                       OTHERWISE                                                    344  LM00389
 01672 TRA +0 02000 0 01676
                          OUTCNT = OUTCNT + 1                                       345  LM00390
 01673 CLA +0 50000 0 00063    01674 ADD +0 40000 0 00123    01675 STO +0 60100 0 00063
                       END OF CONDITIONAL                                           346  LM00391
                    END OF CONDITIONAL                                              347  LM00392
                    OUTPTR = OUTPTR + 1                                             348  LM00393
 01676 CLA +0 50000 0 00064    01677 ADD +0 40000 0 00123    01700 STO +0 60100 0 00064
                 END OF CONDITIONAL                                                 349  LM00394
                 FUNCTION RETURN                                                    350  LM00395
 01701 TRA +0 02000 0 02015
                 ENTRY TO PUTOCT.                                                   351  LM00397
 01702 TRA +0 02000 0 01705    00003 TTR +0 02100 0 01703    01703 SXA +0 63400 2 01777    01704 TSX +0 07400 2 01777
                 WHENEVER OUTPTR .L. INPTR - 2                                      352  LM00398
 01705 CLA +0 50000 0 00042    01706 SUB +0 40200 0 00124    01707 CHS +0 76000 0 00002    01710 ADD +0 40000 0 00064
 01711 TZE +0 10000 0 01756    01712 TPL +0 12000 0 01756
                    OUTBUF(OUTPTR) =   ((STUFF .RS. 6) .A. 7K) .V. 60K              353  LM00399
 01713 CAL -0 50000 0 00127    01714 STA +0 62100 0 01716    01715 CAL -0 50000 0 00024    01716 LGR -0 76500 0 00000
 01717 ANA -0 32000 0 00130    01720 ORA -0 50100 0 00133    01721 LXA +0 53400 1 00064    01722 SLW +0 60200 1 00024
                    OUTBUF(OUTPTR+1) = ((STUFF .RS. 3) .A. 7K) .V. 60K              354  LM00400
 01723 CAL -0 50000 0 00125    01724 STA +0 62100 0 01726    01725 CAL -0 50000 0 00024    01726 LGR -0 76500 0 00000
 01727 ANA -0 32000 0 00130    01730 ORA -0 50100 0 00133    01731 SLW +0 60200 0 02021    01732 CLA +0 50000 0 00064
 01733 ADD +0 40000 0 00123    01734 PAX +0 73400 1 00000    01735 CLA +0 50000 0 02021    01736 STO +0 60100 1 00024
                    OUTBUF(OUTPTR+2) = (STUFF .A. 7K) .V. 60K                       355  LM00401
 01737 CAL -0 50000 0 00024    01740 ANA -0 32000 0 00130    01741 ORA -0 50100 0 00133    01742 SLW +0 60200 0 02021
 01743 CLA +0 50000 0 00064    01744 ADD +0 40000 0 00124    01745 PAX +0 73400 1 00000    01746 CLA +0 50000 0 02021
 01747 STO +0 60100 1 00024
                    OUTPTR = OUTPTR + 3                                             356  LM00402
 01750 CLA +0 50000 0 00064    01751 ADD +0 40000 0 00125    01752 STO +0 60100 0 00064
                    OUTCNT = OUTCNT + 3                                             357  LM00403
 01753 CLA +0 50000 0 00063    01754 ADD +0 40000 0 00125    01755 STO +0 60100 0 00063
                 END OF CONDITIONAL                                                 358  LM00404
                 FUNCTION RETURN                                                    359  LM00405
 01756 TRA +0 02000 0 02015
                 ENTRY TO SETDEV.                                                   360  LM00408
 01757 TRA +0 02000 0 01762    00004 TTR +0 02100 0 01760    01760 SXA +0 63400 2 01777    01761 TSX +0 07400 2 01777
                    GETDEV.(DEVICE, PLTH)                                           361  LM00409
 01762 TSX +0 07400 4 00001    01763 TXH +3 00000 0 00031    01764 TXH +3 00000 0 00067
                    PLTH = PLTH - 5                                                 362  LM00410
 01765 CLA +0 50000 0 00067    01766 SUB +0 40200 0 00126    01767 STO +0 60100 0 00067
                    WHENEVER DEVICE .E. M35, CASE = LOWER                           363  LM00411
 01770 CLA +0 50000 0 00031    01771 SUB +0 40200 0 00055    01772 TNZ -0 10000 0 01775    01773 CLA +0 50000 0 00047
 01774 STO +0 60100 0 00024
                    FUNCTION RETURN                                                 364  LM00412
 01775 TRA +0 02000 0 02015
                 END OF FUNCTION                                                    365  LM00414
 01776 TSX +0 07400 4 00000    01777 TXH +3 00000 0 00000    02000 SXD -0 63400 1 01777    02001 SXA +0 63400 4 02015
 02002 CLA +0 50000 4 00001    02003 STA +0 62100 0 01574    02004 STA +0 62100 0 01576    02005 STA +0 62100 0 01643
 02006 STA +0 62100 0 01651    02007 STA +0 62100 0 01654    02010 STA +0 62100 0 01664    02011 STA +0 62100 0 01715
 02012 STA +0 62100 0 01725    02013 STA +0 62100 0 01737    02014 TRA +0 02000 2 00001    02015 AXT +0 77400 4 00000
 02016 LXA +0 53400 2 01777    02017 LXD -0 53400 1 01777    02020 TRA +0 02000 4 00001
                 END OF FUNCTION                                                    366  LM00416
 02022 TSX +0 07400 4 00000    02023 TXH +3 00000 0 00000    02024 SXD -0 63400 1 02023    02025 SXA +0 63400 4 02073
 02026 CLA +0 50000 4 00001    02027 STA +0 62100 0 00167    02030 STA +0 62100 0 00763    02031 CLA +0 50000 4 00002
 02032 STA +0 62100 0 00147    02033 STA +0 62100 0 00151    02034 STA +0 62100 0 00177    02035 STA +0 62100 0 00732
 02036 STA +0 62100 0 00773    02037 CLA +0 50000 4 00003    02040 STA +0 62100 0 00170    02041 STA +0 62100 0 00204
 02042 STA +0 62100 0 00314    02043 STA +0 62100 0 00343    02044 STA +0 62100 0 00367    02045 STA +0 62100 0 00375
 02046 STA +0 62100 0 00520    02047 STA +0 62100 0 00632    02050 STA +0 62100 0 00764    02051 STA +0 62100 0 01000
 02052 STA +0 62100 0 01575    02053 STA +0 62100 0 01635    02054 STA +0 62100 0 01722    02055 STA +0 62100 0 01736
 02056 STA +0 62100 0 01747    02057 CLA +0 50000 4 00004    02060 STA +0 62100 0 00333    02061 STA +0 62100 0 01561
 02062 CLA +0 50000 4 00005    02063 STA +0 62100 0 00146    02064 STA +0 62100 0 00325    02065 STA +0 62100 0 00336
 02066 STA +0 62100 0 00735    02067 STA +0 62100 0 00740    02070 STA +0 62100 0 00742    02071 STA +0 62100 0 01553
 02072 TRA +0 02000 2 00001    02073 AXT +0 77400 4 00000    02074 LXA +0 53400 2 02023    02075 LXD -0 53400 1 02023
 02076 TRA +0 02000 4 00001
