1     MAD PROGRAM LISTING ... ... ...                 FILE  EDITOR   MAD            02/08/68    1745.3
-
                 ..  EDIT BY CONTEXT PROGRAM.                                                          LM00001
                                                                                                       LM00002
                 ..  J. H. SALTZER, NOVEMBER, 1964.                                                    LM00003
                 ..  LAST MODIFICATION, APRIL, 1967.                                                   LM00004
                 ..  MODIFIED OCTOBER, 1967 BY PETER R. BOS                                            LM00005
                 ..  TO ALLOW SETTING BREAK CHARACTER 'MCHNG'                                          LM00006
                                                                                                       LM00007
                 .. DECLARATIONS.                                                                      LM00008
                                                                                                       LM00009
                  VECTOR VALUES FENCE = 777777777777K                                             *001 LM00010
                  VECTOR VALUES RETURN = 55K                                                      *002 LM00011
                  VECTOR VALUES IN = $(INPUT$                                                     *003 LM00012
                  VECTOR VALUES IN1 = $(INPT1$                                                    *004 LM00013
                  VECTOR VALUES BRIEF = 0B                                                        *005 LM00014
                  VECTOR VALUES OK = 0B                                                           *006 LM00015
                  VECTOR VALUES BUFSIZ = 360                                                      *007 LM00016
                  DIMENSION LINE(361), EDLIN(361)                                                 *008 LM00017
                  DIMENSION REDS(1), BLACKS(1)                                                    *009 LM00018
                  DIMENSION ATNAM(2)                                                              *010 LM00019
                  NORMAL MODE IS INTEGER                                                          *011 LM00020
                  BOOLEAN OK, GLOBAL, FSTPAS                                                      *012 LM00021
                  BOOLEAN CHNG, CLRSW, BRIEF                                                      *013 LM00022
                                                                                                       LM00023
      . . .      . . . . . . . . . . . . . . . . . . . . . . . . . . . . . .                           LM00024
                                                                                                       LM00025
                 ..  INITIALIZATION.                                                                   LM00026
                                                                                                       LM00027
                  SECOND NAME OF INTERMEDIATE FILES NOW PROGNO                                         LM00028
                                                                                                       LM00029
                  WHOAMI.(ATNAM(2)...2)                                                           *014 LM00030
                  FI = ATNAM(1)                                                                   *015 LM00031
                  GETVAL.(BLANK, TAB, DEFALT, MCHNG, REDS(1), BLACKS(1))                          *016 LM00032
                  CLRNAM.(IN, FI, CHN, 1B)                                                        *017 LM00033
                  CLRNAM.(IN1, FI, CHN, 1B)                                                       *018 LM00034
                  ASSIGN.(IN, FI)                                                                 *019 LM00035
                  OLDNAM = COMARG.(1)                                                             *020 LM00036
                  OLDSEC = DEFALT                                                                 *021 LM00037
                  WHENEVER OLDNAM .E. FENCE, TRANSFER TO INSERT                                   *022 LM00038
                  OLDSEC = COMARG.(2)                                                             *023 LM00039
                  WHENEVER OLDSEC .E. FENCE, OLDSEC = DEFALT                                      *024 LM00040
                  SEEK.(OLDNAM, OLDSEC, INSERT)                                                   *025 LM00041
                  FSTPAS = 1B                                                                     *026 LM00042
                  OK = 1B                                                                         *027 LM00043
                                                                                                       LM00044
                 ..  ENTER EDIT MODE.                                                                  LM00045
                                                                                                       LM00046
      EDIT        WHENEVER .NOT. BRIEF, PRINT COMMENT $0E1D1I1T$                                  *028 LM00047
                                                                                                       LM00048
                 ..  OBTAIN NEXT REQUEST.                                                              LM00049
                                                                                                       LM00050
      NXRQ        COUNT = TYPEIN.(EDLIN, BUFSIZ)                                                  *029 LM00051
                  WHENEVER EDLIN(1) .E. MCHNG .AND. COUNT .L. 3                                   *030 LM00052
                1      , TRANSFER TO INSERT                                                       *030 LM00053
                  WHENEVER COUNT .L. 2, TRANSFER TO NXRQ                                          *031 LM00054
                  EDCT = 0                                                                        *032 LM00055
                  CWD = GET.(0)                                                                   *033 LM00056
                                                                                                       LM00057
                  WHENEVER CWD .E. $DELETE$ .OR. CWD .E. $     D$                                 *034 LM00058
                    N = BIN.(GET.(0))                                                             *035 LM00059
                    THROUGH DREAD, FOR I = 1, 1, I .GE. N                                         *036 LM00060
       DREAD          LENGTH = READ.(LINE, BUFSIZ, EOF)                                           *037 LM00061
                    LENGTH = 0                                                                    *038 LM00062
                                                                                                       LM00063
                  OR WHENEVER CWD .E. $  NEXT$ .OR. CWD .E. $     N$                              *039 LM00064
                    N = BIN.(GET.(0))                                                             *040 LM00065
                    WHENEVER N .E. 0, N = 1                                                       *041 LM00066
                    THROUGH NXT, FOR I = 1, 1, I .G. N                                            *042 LM00067
                      WRITE.(LINE, LENGTH)                                                        *043 LM00068
                      WHENEVER .NOT. OK, CLSOUT.                                                  *044 LM00069
                      LENGTH = READ.(LINE, BUFSIZ, EOF)                                           *045 LM00070
       NXT            CONTINUE                                                                    *046 LM00071
                                                                                                       LM00072
                  OR WHENEVER CWD .E. $INSERT$ .OR. CWD .E. $     I$                              *047 LM00073
                    WRITE.(LINE, LENGTH)                                                          *048 LM00074
                    TRANSFER TO RETYPE                                                            *049 LM00075
                                                                                                       LM00076
      INSERT        WHENEVER .NOT. BRIEF, PRINT COMMENT $0I1N1P1U1T$                              *050 LM00077
       INPUT        COUNT = TYPEIN.(EDLIN, BUFSIZ)                                                *051 LM00078
                    WHENEVER COUNT .L. 3 .AND. EDLIN(1) .E. MCHNG                                 *052 LM00079
                1      , TRANSFER TO EDIT                                                         *052 LM00080
                    WRITE.(LINE, LENGTH)                                                          *053 LM00081
                    THROUGH MVLP, FOR I = 1, 1, I .G. COUNT                                       *054 LM00082
       MVLP           LINE(I) = EDLIN(I)                                                          *055 LM00083
                    LENGTH = COUNT                                                                *056 LM00084
                    TRANSFER TO INPUT                                                             *057 LM00085
                                                                                                       LM00086
                  OR WHENEVER CWD .E. $BOTTOM$ .OR. CWD .E. $     B$                              *058 LM00087
                    WRITE.(LINE, LENGTH)                                                          *059 LM00088
                    LENGTH = 0                                                                    *060 LM00089
                    WHENEVER OK, BOTTOM.                                                          *061 LM00090
                    TRANSFER TO INSERT                                                            *062 LM00091
                                                                                                       LM00092
                  OR WHENEVER CWD .E. $APPEND$ .OR. CWD .E. $     A$                              *063 LM00093
                    WHENEVER LENGTH .G. 0, LENGTH = LENGTH - 1                                    *064 LM00094
                    TRANSFER TO APPEND                                                            *065 LM00095
                                                                                                       LM00096
                  OR WHENEVER CWD .E. $RETYPE$ .OR. CWD .E. $     R$                              *066 LM00097
       RETYPE       LENGTH = 0                                                                    *067 LM00098
      APPEND        THROUGH RPLC, FOR EDCT = EDCT + 1, 1, EDCT .G. COUNT                          *068 LM00099
                      LENGTH = LENGTH + 1                                                         *069 LM00100
       RPLC           LINE(LENGTH) = EDLIN(EDCT)                                                  *070 LM00101
                                                                                                       LM00102
                  OR WHENEVER CWD .E. $ ERASE$ .OR. CWD .E. $     E$                              *071 LM00103
                    WHENEVER EDLIN(EDCT+1) .NE. BLANK, SETERS.(EDLIN(EDCT+1))                     *072 LM00104
                                                                                                       LM00105
                  OR WHENEVER CWD .E. $  KILL$ .OR. CWD .E. $     K$                              *073 LM00106
                    WHENEVER EDLIN(EDCT+1) .NE. BLANK, SETKIL.(EDLIN(EDCT+1))                     *074 LM00107
                                                                                                       LM00108
                 ..  MODIFICATION ALLOWS SETTING 'MCHNG'. PRB.                                         LM00109
                                                                                                       LM00110
                  OR WHENEVER CWD .E. $ BREAK$ .OR. CWD .E. $    BR$                              *075 LM00111
                    WHENEVER EDLIN(EDCT) .E. RETURN                                               *076 LM00112
                      MCHNG = RETURN                                                              *077 LM00113
                    OR WHENEVER EDLIN(EDCT+1) .NE. BLANK                                          *078 LM00114
                      MCHNG = EDLIN(EDCT+1)                                                       *079 LM00115
                    END OF CONDITIONAL                                                            *080 LM00116
                                                                                                       LM00117
                  OR WHENEVER CWD .E. $VERIFY$ .OR. CWD .E. $     V$                              *081 LM00118
                    CWD = GET.(0)                                                                 *082 LM00119
                    WHENEVER CWD .E. $    ON$                                                     *083 LM00120
                      BRIEF = 0B                                                                  *084 LM00121
                    OR WHENEVER CWD .E. $   OFF$                                                  *085 LM00122
                      BRIEF = 1B                                                                  *086 LM00123
                    END OF CONDITIONAL                                                            *087 LM00124
                                                                                                       LM00125
                  OR WHENEVER CWD .E. $LOCATE$ .OR. CWD .E. $     L$                              *088 LM00126
                    LOCATE = 1                                                                    *089 LM00127
                    TRANSFER TO FIND                                                              *090 LM00128
                                                                                                       LM00129
                  OR WHENEVER CWD .E. $  FIND$ .OR. CWD .E. $     F$                              *091 LM00130
                    LOCATE = 0                                                                    *092 LM00131
      FIND          WHENEVER EDCT+1 .GE. COUNT                                                    *093 LM00132
                      COUNT = OCOUNT                                                              *094 LM00133
                      EDCT = EDCT + 1                                                             *095 LM00134
                    END OF CONDITIONAL                                                            *096 LM00135
                    OCOUNT = COUNT                                                                *097 LM00136
       NTFND        WRITE.(LINE, LENGTH)                                                          *098 LM00137
                    WHENEVER  .NOT. OK, CLSOUT.                                                   *099 LM00138
                    LENGTH = READ.(LINE, BUFSIZ, EOF)                                             *100 LM00139
                    THROUGH LOCSCN, FOR K=0, 1,K.G.LOCATE*(LENGTH-COUNT+EDCT)                     *101 LM00140
                      J = K                                                                       *102 LM00141
                      THROUGH LOOK, FOR I = EDCT+1, 1, I .GE. COUNT                               *103 LM00142
                        J = J + 1                                                                 *104 LM00143
       TAGN             WHENEVER LINE(J) .E. EDLIN(I), TRANSFER TO LOOK                           *105 LM00144
                        WHENEVER (LINE(J).E. TAB) .AND. (EDLIN(I) .E. BLANK)                      *106 LM00145
                1        , TRANSFER TO LOOK                                                       *106 LM00146
                        WHENEVER EDLIN(I-1) .NE. BLANK .OR. I .E. EDCT + 1                        *107 LM00147
                1        , TRANSFER TO LOCSCN                                                     *107 LM00148
                        WHENEVER LINE(J) .NE. BLANK .AND. LINE(J) .NE. TAB                        *108 LM00149
                1        , TRANSFER TO LOCSCN                                                     *108 LM00150
                        J = J + 1                                                                 *109 LM00151
                        TRANSFER TO TAGN                                                          *110 LM00152
       LOOK             WHENEVER I .E. EDCT+1, FNDST = J                                          *111 LM00153
                      FNDND = J                                                                   *112 LM00154
                      WHENEVER .NOT. BRIEF, PRNT.(FNDST, FNDND)                                   *113 LM00155
                      TRANSFER TO NXRQ                                                            *114 LM00156
        LOCSCN        CONTINUE                                                                    *115 LM00157
                    TRANSFER TO NTFND                                                             *116 LM00158
                                                                                                       LM00159
                  OR WHENEVER CWD .E. $ PRINT$ .OR. CWD .E. $     P$                              *117 LM00160
                    NPRNT = BIN.(GET.(0))                                                         *118 LM00161
      PNTLP         WHENEVER LENGTH .E. 0                                                         *119 LM00162
                      PRINT COMMENT $0N1O0 1C1U1R1R1E1N1T0 1L1I1N1E0.$                            *120 LM00163
                    OTHERWISE                                                                     *121 LM00164
                      TYPOUT.(LINE, LENGTH)                                                       *122 LM00165
                    END OF CONDITIONAL                                                            *123 LM00166
                    NPRNT = NPRNT - 1                                                             *124 LM00167
                    WHENEVER NPRNT .G. 0                                                          *125 LM00168
                      WRITE.(LINE, LENGTH)                                                        *126 LM00169
                      LENGTH = READ.(LINE, BUFSIZ, EOF)                                           *127 LM00170
                      TRANSFER TO PNTLP                                                           *128 LM00171
                    END OF CONDITIONAL                                                            *129 LM00172
                                                                                                       LM00173
                  OR WHENEVER CWD .E. $   TOP$ .OR. CWD .E. $     T$                              *130 LM00174
       TOPLP        WRITE.(LINE, LENGTH)                                                          *131 LM00175
                    WHENEVER OK, BOTTOM.                                                          *132 LM00176
                    CLSOUT.                                                                       *133 LM00177
                                                                                                       LM00178
                  OR WHENEVER CWD .E. $CHANGE$ .OR. CWD .E. $     C$                              *134 LM00179
                                                                                                       LM00180
      . . .       . . . . . . . . . . . . . . . . . . . . . . . . . . . . . .                          LM00181
                                                                                                       LM00182
                 ..  DELINEATE QUOTED STRINGS.                                                         LM00183
                                                                                                       LM00184
                    EDCT = EDCT+1                                                                 *135 LM00185
                    QUOTE = EDLIN(EDCT)                                                           *136 LM00186
                    STR1 = EDCT                                                                   *137 LM00187
      QLOOP         THROUGH QLOOP, FOR EDCT = EDCT+1, 1,                                          *138 LM00188
                1      (EDLIN(EDCT) .E. QUOTE) .OR. (EDCT .GE. COUNT)                             *138 LM00189
                    STR2 = EDCT                                                                   *139 LM00190
      QLOOP1        THROUGH QLOOP1, FOR EDCT = EDCT+1, 1,                                         *140 LM00191
                1      (EDLIN(EDCT) .E. QUOTE) .OR. (EDCT .GE. COUNT)                             *140 LM00192
                    EST2 = EDCT                                                                   *141 LM00193
                                                                                                       LM00194
                 .. CHECK FOR ITERATION COUNT AND GLOBAL REQUEST.                                      LM00195
                                                                                                       LM00196
                    EDCT = EDCT + 1                                                               *142 LM00197
                    TEM = 1                                                                       *143 LM00198
                    GLOBAL = 0B                                                                   *144 LM00199
      ARGLP         CWD = GET.(0)                                                                 *145 LM00200
                    WHENEVER CWD .E. $ $                                                          *146 LM00201
                      TRANSFER TO SHIFT                                                           *147 LM00202
                    OR WHENEVER CWD .E. $     G$                                                  *148 LM00203
                      WHENEVER STR2 .NE. STR1+1, GLOBAL = 1B                                      *149 LM00204
                    OTHERWISE                                                                     *150 LM00205
                      TEM = BIN.(CWD)                                                             *151 LM00206
                    END OF CONDITIONAL                                                            *152 LM00207
                    TRANSFER TO ARGLP                                                             *153 LM00208
                                                                                                       LM00209
                 .. SHIFT LINE TO BOTTOM OF BUFFER.                                                    LM00210
                                                                                                       LM00211
       SHIFT        THROUGH MVDWN, FOR I = LENGTH, -1, I .L. 1                                    *154 LM00212
      MVDWN           LINE(BUFSIZ+I-LENGTH) = LINE(I)                                             *155 LM00213
                    DOWN = BUFSIZ-LENGTH+1                                                        *156 LM00214
                    UP = 0                                                                        *157 LM00215
                    CHNG = 0B                                                                     *158 LM00216
                    CHST = LENGTH + 1                                                             *159 LM00217
                    CHEND = LENGTH                                                                *160 LM00218
                                                                                                       LM00219
                 .. SEARCH FOR PRESENCE OF FIRST STRING.                                               LM00220
                                                                                                       LM00221
      SRCHLP        UP = UP + 1                                                                   *161 LM00222
      SRTST           WHENEVER DOWN .G. BUFSIZ, TRANSFER TO GIVUP                                 *162 LM00223
                      J = DOWN                                                                    *163 LM00224
                      THROUGH COMPAR, FOR I = STR1+1, 1, I .GE. STR2                              *164 LM00225
                        WHENEVER J .GE. BUFSIZ, TRANSFER TO GIVUP                                 *165 LM00226
                        WHENEVER EDLIN(I) .NE. LINE(J), TRANSFER TO NOCOMP                        *166 LM00227
       COMPAR           J = J + 1                                                                 *167 LM00228
                      TRANSFER TO STFND                                                           *168 LM00229
                                                                                                       LM00230
      NOCOMP          LINE(UP) = LINE(DOWN)                                                       *169 LM00231
                      DOWN = DOWN + 1                                                             *170 LM00232
                    TRANSFER TO SRCHLP                                                            *171 LM00233
                                                                                                       LM00234
                 .. STRING FOUND, REPLACE WITH SECOND STRING.                                          LM00235
                                                                                                       LM00236
      STFND         CHNG = 1B                                                                     *172 LM00237
                    DOWN = DOWN + (STR2-STR1-1)                                                   *173 LM00238
                    CHST = UP                                                                     *174 LM00239
                    THROUGH REPLAC, FOR I = STR2 + 1, 1, I .GE. EST2                              *175 LM00240
                      LINE(UP) = EDLIN(I)                                                         *176 LM00241
                      UP = UP + 1                                                                 *177 LM00242
       REPLAC         WHENEVER UP .G. DOWN, TRANSFER TO GIVUP                                     *178 LM00243
                    CHEND = UP - 1                                                                *179 LM00244
                    WHENEVER GLOBAL, TRANSFER TO SRTST                                            *180 LM00245
                                                                                                       LM00246
                 .. MOVE REST OF LINE BACK UP.                                                         LM00247
                                                                                                       LM00248
      GIVUP         THROUGH FILOUT, FOR UP = UP, 1, DOWN .G. BUFSIZ                               *181 LM00249
                      LINE(UP) = LINE(DOWN)                                                       *182 LM00250
      FILOUT          DOWN = DOWN + 1                                                             *183 LM00251
                    LENGTH = UP - 1                                                               *184 LM00252
                    TEM = TEM - 1                                                                 *185 LM00253
                    WHENEVER .NOT. BRIEF .AND. (TEM .G. 0 .THEN. CHNG)                            *186 LM00254
                1        , PRNT.(CHST, CHEND)                                                     *186 LM00255
                    CANON.(LINE, LENGTH, BUFSIZ)                                                  *187 LM00256
                    WHENEVER TEM .G. 0                                                            *188 LM00257
                      WRITE.(LINE, LENGTH)                                                        *189 LM00258
                      LENGTH = READ.(LINE, BUFSIZ, EOF)                                           *190 LM00259
                      TRANSFER TO SHIFT                                                           *191 LM00260
                    END OF CONDITIONAL                                                            *192 LM00261
                                                                                                       LM00262
      . . . .     . . . . . . . . . . . . . . . . . . . . . . . . . . . .                              LM00263
                                                                                                       LM00264
                  OR WHENEVER CWD .E. $ SPLIT$ .OR. CWD .E. $     S$                              *193 LM00265
                    TOPNAM = GET.(0)                                                              *194 LM00266
                    WHENEVER TOPNAM .E. $ $, TRANSFER TO NONAME                                   *195 LM00267
                    WHENEVER TOPNAM .E. OLDNAM .AND. FSTPAS                                       *196 LM00268
      NEWNM           PRINT COMMENT $0P1L1E1A1S1E0 1U1S1E0 1A1N1O1T1H1E1R0 1N1A                   *197 LM00269
                1 1M1E0.$                                                                         *197 LM00270
                      TRANSFER TO NXRQ                                                            *198 LM00271
                    END OF CONDITIONAL                                                            *199 LM00272
                    SECNAM = GET.(0)                                                              *200 LM00273
                  WHENEVER SECNAM .E. $ $, SECNAM = OLDSEC                                        *201 LM00274
                    CLRNAM.(TOPNAM, SECNAM, NEWNM, 1B)                                            *202 LM00275
                    CLOSEW.                                                                       *203 LM00276
                    RENAME.(IN, FI, TOPNAM, SECNAM)                                               *204 LM00277
                    ASSIGN.(IN, FI)                                                               *205 LM00278
                    OLDNAM = FENCE                                                                *206 LM00279
                    TRANSFER TO TOPLP                                                             *207 LM00280
                                                                                                       LM00281
                  OR WHENEVER CWD .E. $  QUIT$ .OR. CWD .E. $     Q$                              *208 LM00282
                    ENDRD.                                                                        *209 LM00283
                    CLOSEW.                                                                       *210 LM00284
                    DELFIL.(IN1, FI, DLQ1)                                                        *211 LM00285
      DLQ1          DELFIL.(IN, FI, DLQ2)                                                         *212 LM00286
      DLQ2          TRANSFER TO CHN                                                               *213 LM00287
                                                                                                       LM00288
                  OR WHENEVER CWD .E. $  FILE$                                                    *214 LM00289
                    PRINAM = GET.(0)                                                              *215 LM00290
                    CLRSW = 1B                                                                    *216 LM00291
                    WHENEVER PRINAM .E. $ $                                                       *217 LM00292
                      PRINAM = OLDNAM                                                             *218 LM00293
                      SECNAM = OLDSEC                                                             *219 LM00294
                      CLRSW = 0B                                                                  *220 LM00295
                    OTHERWISE                                                                     *221 LM00296
                      SECNAM = GET.(0)                                                            *222 LM00297
                      WHENEVER SECNAM .E. $ $                                                     *223 LM00298
                        SECNAM = OLDSEC                                                           *224 LM00299
                      END OF CONDITIONAL                                                          *225 LM00300
                    END OF CONDITIONAL                                                            *226 LM00301
                    WHENEVER PRINAM .E. FENCE                                                     *227 LM00302
      NONAME          PRINT COMMENT $0N1O0 1F1I1L1E0 1N1A1M1E0 1G1I1V1E1N0.$                      *228 LM00303
                      TRANSFER TO NXRQ                                                            *229 LM00304
                    END OF CONDITIONAL                                                            *230 LM00305
                    WRITE.(LINE, LENGTH)                                                          *231 LM00306
                    LENGTH = 0                                                                    *232 LM00307
                    WHENEVER OK, BOTTOM.                                                          *233 LM00308
                    CLRNAM.(PRINAM, SECNAM, NEWNM, CLRSW)                                         *234 LM00309
                    CLOSEW.                                                                       *235 LM00310
                    DELFIL.(IN1, FI, DL1)                                                         *236 LM00311
      DL1           RENAME.(IN, FI, PRINAM, SECNAM)                                               *237 LM00312
      CHN           EXIT.                                                                         *238 LM00313
                                                                                                       LM00314
                  OTHERWISE                                                                       *239 LM00315
                    PRINT COMMENT $0N1O1T0 1A0 1R1E1Q1U1E1S1T0:$                                  *240 LM00316
                    TYPOUT.(EDLIN, COUNT)                                                         *241 LM00317
                                                                                                       LM00318
                  END OF CONDITIONAL                                                              *242 LM00319
                  TRANSFER TO NXRQ                                                                *243 LM00320
                                                                                                       LM00321
      EOF         PRINTCOMMENT $0E1N1D0 1O1F0 1F1I1L1E0 1R1E1A1C1H1E1D0 1B1Y0:$                   *244 LM00322
                  TYPOUT.(EDLIN, COUNT)                                                           *245 LM00323
                  LENGTH = 0                                                                      *246 LM00324
                  OK = 0B                                                                         *247 LM00325
                  TRANSFER TO NXRQ                                                                *248 LM00326
                                                                                                       LM00327
                 . . . . . . . . . . . . . . . . . . . . . . . . . . . . . .                           LM00328
                                                                                                       LM00329
                 .. SUBROUTINES.                                                                       LM00330
                                                                                                       LM00331
       CLSOUT.   .. FUNCTION TO MOVE POINTER BACK TO TOP OF FILE.                                      LM00332
                                                                                                       LM00333
                  INTERNAL FUNCTION                                                               *249 LM00334
                  ENTRY TO CLSOUT.                                                                *250 LM00335
                    CLOSEW.                                                                       *251 LM00336
                    DELFIL.(IN1, FI, DL2)                                                         *252 LM00337
      DL2           CHFILE.(IN, FI, -0, IN1)                                                      *253 LM00338
                    SEEK.(IN1, FI, CHN)                                                           *254 LM00339
                    ASSIGN.(IN, FI)                                                               *255 LM00340
                    OK = 1B                                                                       *256 LM00341
                    LENGTH = 0                                                                    *257 LM00342
                    FSTPAS = 0B                                                                   *258 LM00343
                    FUNCTION RETURN                                                               *259 LM00344
                  END OF FUNCTION                                                                 *260 LM00345
                                                                                                       LM00346
        GET.     .. FUNCTION TO OBTAIN ARGUMENT WORD IN HOLLERITH.                                     LM00347
                                                                                                       LM00348
                  INTERNAL FUNCTION                                                               *261 LM00349
                  ENTRY TO GET.                                                                   *262 LM00350
                    WORD = $ $                                                                    *263 LM00351
      SCANLP        THROUGH SCANLP, FOR EDCT = EDCT, 1,                                           *264 LM00352
                1   (EDLIN(EDCT+1).NE.BLANK) .OR. (EDCT+1.GE.COUNT)                               *264 LM00353
       GTLP         EDCT = EDCT + 1                                                               *265 LM00354
                    WHENEVER EDLIN(EDCT) .E. BLANK, FUNCTION RETURN WORD                          *266 LM00355
                    WHENEVER EDLIN(EDCT) .E. TAB .OR. EDCT .GE. COUNT                             *267 LM00356
                      EDCT = EDCT - 1                                                             *268 LM00357
                      FUNCTION RETURN WORD                                                        *269 LM00358
                    END OF CONDITIONAL                                                            *270 LM00359
                    WORD = (WORD .LS. 6) .V. HOL.(EDLIN(EDCT))                                    *271 LM00360
                    TRANSFER TO GTLP                                                              *272 LM00361
                  END OF FUNCTION                                                                 *273 LM00362
                                                                                                       LM00363
       PRNT.     ..  FUNCTION TO PRINT A LINE WITH COLOR SHIFTS.                                       LM00364
                                                                                                       LM00365
                  INTERNAL FUNCTION(STAR, EN)                                                     *274 LM00366
                  ENTRY TO PRNT.                                                                  *275 LM00367
                    TYPOUT.(LINE, STAR-1)                                                         *276 LM00368
                    TYPOUT.(REDS, 1)                                                              *277 LM00369
                    TYPOUT.(LINE(STAR-1), EN-STAR+1)                                              *278 LM00370
                    TYPOUT.(BLACKS, 1)                                                            *279 LM00371
                    TYPOUT.(LINE(EN), LENGTH-EN)                                                  *280 LM00372
                    FUNCTION RETURN                                                               *281 LM00373
                  END OF FUNCTION                                                                 *282 LM00374
                                                                                                       LM00375
                  END OF PROGRAM                                                                  *283 LM00376
1MAD PROGRAM,TYPE NOV 1963      (ALL NUMBERS ARE OCTAL)
0TOTAL LOCATIONS   03713 TRANSFER VECTOR LENGTH  00030 PROGRAM BEGINS    01555
0VARIABLE STORAGE (A=ARRAY,C=COMMON,E=ERASABLE,DIGIT=MODE)
      APPEND 00034   4        DLQ1   00041   4        GTLP   00047   4        NONAME 00056   4        RETYPE 00062   4
      ARGLP  00035   4        DLQ2   00042   4        IN1    00673 A 1        NPRNT  01455   1        RPLC   00033   4
      ATNAM  00073 A 1        DOWN   00110   1        INPUT  00050   4        N      01456   1        SCANLP 00033   4
      BLACKS 00075 A 1        DREAD  00033   4        IN     00674 A 1        NTFND  00057   4        SECNAM 01470   1
      BLANK  00076   1        EDCT   00111   1        INSERT 00051   4        NXRQ   00060   4        SHIFT  00063   4
      BRIEF  00077 A 2        EDIT   00043   4        I      00675   1        NXT    00033   4        SRCHLP 00064   4
      BUFSIZ 00100 A 1        EDLIN  00663 A 1        J      00676   1        OCOUNT 01457   1        SRTST  00065   4
      CHEND  00101   1        EOF    00044   4        K      00677   1        OK     01460 A 2        STFND  00066   4
      CHNG   00102   2        EST2   00664   1        LENGTH 00700   1        OLDNAM 01461   1        STR1   01471   1
      CHN    00036   4        FENCE  00665 A 1        LINE   01452 A 1        OLDSEC 01462   1        STR2   01472   1
      CHST   00103   1        FILOUT 00033   4        LOCATE 01453   1        PNTLP  00061   4        TAB    01473   1
      CLRSW  00104   2        FIND   00045   4        LOCSCN 00052   4        PRINAM 01463   1        TAGN   00067   4
      COMPAR 00033   4        FI     00666   1        LOOK   00053   4        QLOOP1 00033   4        TEM    01474   1
      COUNT  00105   1        FNDND  00667   1        MCHNG  01454   1        QLOOP  00033   4        TOPLP  00070   4
      CWD    00106   1        FNDST  00670   1        MVDWN  00033   4        QUOTE  01464   1        TOPNAM 01475   1
      DEFALT 00107   1        FSTPAS 00671   2        MVLP   00033   4        REDS   01466 A 1        UP     01476   1
      DL1    00037   4        GIVUP  00046   4        NEWNM  00054   4        REPLAC 00033   4        WORD   01477   1
      DL2    00040   4        GLOBAL 00672   2        NOCOMP 00055   4        RETURN 01467 A 1
0FUNCTION DICTIONARY
      ASSIGN 00000   1        BIN    00001   1        BOTTOM 00002   1        CANON  00003   1        CHFILE 00004   1
      CLOSEW 00005   1        CLRNAM 00006   1        COMARG 00007   1        DELFIL 00010   1        ENDRD  00011   1
      EXIT   00012   1        GETVAL 00013   1        HOL    00014   1        .PCOMT 00015   1        .SETUP 00016   1
      READ   00017   1        RENAME 00020   1        SEEK   00021   1        SETERS 00022   1        SETKIL 00023   1
      TYPEIN 00024   1        TYPOUT 00025   1        WHOAMI 00026   1        WRITE  00027   1        CLSOUT 00030   1
      GET    00031   1        PRNT   00032   1
0ABSOLUTE CONSTANTS
 01504 +000000000006     01520 -206026314325     01524 -206050643163     01544 -206060606050     01553 -206247433163
 01547 -206060606062     01536 -206060606027     01546 -206060606060     01510 +233021452725     01532 -206060606023
 01552 -206060634647     01550 -206060606063     01517 -204751314563     01543 -206060606047     01521 -206026314524
 01535 -206060606026     01513 -034623216325     01541 -206060606043     01525 -206060462626     01527 -206060604645
 01554 -252551312670     01551 -206060606065     01515 -202251252142     01526 -206060602251     01522 -206042314343
 01540 -206060606042     01516 -202551216225     01534 -206060606025     01514 -112563704725     01545 -206060606051
 01505 +214747254524     01530 -206060606021     01506 +224663634644     01531 -206060606022     01512 +314562255163
 01537 -206060606031     01523 -206045256763     01542 -206060606045     01511 +242543256325     01533 -206060606024
 01500 +000000000000     01503 +000000000003     01502 +000000000002     01501 +000000000001     01507 +233000000000
0STATEMENT DICTIONARY
 00034 TXL -302146002133       00035 TXL -302676002673       00036 TXL -303402003401       00037 TXL -303401003374
 00040 TXL -303460003451       00041 TXL -303301003275       00042 TXL -303302003301       00043 TXL -301645001637
 00044 TXL -303430003416       00045 TXL -302334002327       00046 TXL -303117003105       00047 TXL -303543003540
 00050 TXL -302026002022       00051 TXL -302022002014       00052 TXL -302506002505       00053 TXL -302475002465
 00054 TXL -303226003214       00055 TXL -303032003026       00056 TXL -303351003340       00057 TXL -302346002343
 00060 TXL -301651001645       00061 TXL -302527002524       00062 TXL -302133002131       00063 TXL -302734002722
 00064 TXL -302764002761       00065 TXL -302771002764       00066 TXL -303040003036       00067 TXL -302424002416
 00070 TXL -302575002572
0PROGRAM
                 VECTOR VALUES FENCE = 777777777777K                                001  LM00010
 01555 TSX +0 07400 4 00016    00665     -3 77777 7 77777
                 VECTOR VALUES RETURN = 55K                                         002  LM00011
 01467     +0 00000 0 00055
                 VECTOR VALUES IN = $(INPUT$                                        003  LM00012
 00674     -3 43145 4 76463
                 VECTOR VALUES IN1 = $(INPT1$                                       004  LM00013
 00673     -3 43145 4 76301
                 VECTOR VALUES BRIEF = 0B                                           005  LM00014
 00077     +0 00000 0 00000
                 VECTOR VALUES OK = 0B                                              006  LM00015
 01460     +0 00000 0 00000
                 VECTOR VALUES BUFSIZ = 360                                         007  LM00016
 00100     +0 00000 0 00550
                 DIMENSION LINE(361), EDLIN(361)                                    008  LM00017
                 DIMENSION REDS(1), BLACKS(1)                                       009  LM00018
                 D'N ATNAM(2)                                                       010  LM00019
                 NORMAL MODE IS INTEGER                                             011  LM00020
                 BOOLEAN OK, GLOBAL, FSTPAS                                         012  LM00021
                 BOOLEAN CHNG, CLRSW, BRIEF                                         013  LM00022
                 WHOAMI.(ATNAM(2)...2)                                              014  LM00030
 01556 TSX +0 07400 4 00026    01557 TIX +2 01502 0 00071
                 FI = ATNAM(1)                                                      015  LM00031
 01560 CLA +0 50000 0 00072    01561 STO +0 60100 0 00666
                 GETVAL.(BLANK, TAB, DEFALT, MCHNG, REDS(1), BLACKS(1))             016  LM00032
 01562 TSX +0 07400 4 00013    01563 TXH +3 00000 0 00076    01564 TXH +3 00000 0 01473    01565 TXH +3 00000 0 00107
 01566 TXH +3 00000 0 01454    01567 TXH +3 00000 0 01465    01570 TXH +3 00000 0 00074
                 CLRNAM.(IN, FI, CHN, 1B)                                           017  LM00033
 01571 TSX +0 07400 4 00006    01572 TXH +3 00000 0 00674    01573 TXH +3 00000 0 00666    01574 TXH +3 00000 0 00036
 01575 TXH +3 00000 0 01501
                 CLRNAM.(IN1, FI, CHN, 1B)                                          018  LM00034
 01576 TSX +0 07400 4 00006    01577 TXH +3 00000 0 00673    01600 TXH +3 00000 0 00666    01601 TXH +3 00000 0 00036
 01602 TXH +3 00000 0 01501
                 ASSIGN.(IN, FI)                                                    019  LM00035
 01603 TSX +0 07400 4 00000    01604 TXH +3 00000 0 00674    01605 TXH +3 00000 0 00666
                 OLDNAM = COMARG.(1)                                                020  LM00036
 01606 TSX +0 07400 4 00007    01607 TXH +3 00000 0 01501    01610 STO +0 60100 0 01461
                 OLDSEC = DEFALT                                                    021  LM00037
 01611 CLA +0 50000 0 00107    01612 STO +0 60100 0 01462
                 WHENEVER OLDNAM .E. FENCE, TRANSFER TO INSERT                      022  LM00038
 01613 CLA +0 50000 0 01461    01614 SUB +0 40200 0 00665    01615 TNZ -0 10000 0 01617    01616 TRA +0 02000 0 00051
                 OLDSEC = COMARG.(2)                                                023  LM00039
 01617 TSX +0 07400 4 00007    01620 TXH +3 00000 0 01502    01621 STO +0 60100 0 01462
                 WHENEVER OLDSEC .E. FENCE, OLDSEC = DEFALT                         024  LM00040
 01622 CLA +0 50000 0 01462    01623 SUB +0 40200 0 00665    01624 TNZ -0 10000 0 01627    01625 CLA +0 50000 0 00107
 01626 STO +0 60100 0 01462
                 SEEK.(OLDNAM, OLDSEC, INSERT)                                      025  LM00041
 01627 TSX +0 07400 4 00021    01630 TXH +3 00000 0 01461    01631 TXH +3 00000 0 01462    01632 TXH +3 00000 0 00051
                 FSTPAS = 1B                                                        026  LM00042
 01633 CLA +0 50000 0 01501    01634 STO +0 60100 0 00671
                 OK = 1B                                                            027  LM00043
 01635 CLA +0 50000 0 01501    01636 STO +0 60100 0 01460
      EDIT       WHENEVER .NOT. BRIEF, PRINT COMMENT $0E1D1I1T$                     028  LM00047
 01637 ZET +0 52000 0 00077    01640 TRA +0 02000 0 01645    01641 TSX +0 07400 4 00015    01642     +0 00000 0 00002
 01643     +0 02501 2 40131    01644     +0 16360 6 06060
      NXRQ       COUNT = TYPEIN.(EDLIN, BUFSIZ)                                     029  LM00051
 01645 TSX +0 07400 4 00024    01646 TXH +3 00000 0 00663    01647 TXH +3 00000 0 00100    01650 STO +0 60100 0 00105
                 WHENEVER EDLIN(1) .E. MCHNG .AND. COUNT .L. 3                      030  LM00052
                1     , TRANSFER TO INSERT                                          030  LM00053
 01651 CLA +0 50000 0 00105    01652 SUB +0 40200 0 01503    01653 TZE +0 10000 0 01661    01654 TPL +0 12000 0 01661
 01655 CLA +0 50000 0 00662    01656 SUB +0 40200 0 01454    01657 TNZ -0 10000 0 01661    01660 TRA +0 02000 0 00051
                 WHENEVER COUNT .L. 2, TRANSFER TO NXRQ                             031  LM00054
 01661 CLA +0 50000 0 00105    01662 SUB +0 40200 0 01502    01663 TZE +0 10000 0 01666    01664 TPL +0 12000 0 01666
 01665 TRA +0 02000 0 00060
                 EDCT = 0                                                           032  LM00055
 01666 CLA +0 50000 0 01500    01667 STO +0 60100 0 00111
                 CWD = GET.(0)                                                      033  LM00056
 01670 TSX +0 07400 4 00031    01671 TXH +3 00000 0 01500    01672 STO +0 60100 0 00106
                 WHENEVER CWD .E. $DELETE$ .OR. CWD .E. $     D$                    034  LM00058
 01673 CLA +0 50000 0 00106    01674 SUB +0 40200 0 01533    01675 TZE +0 10000 0 01701    01676 CLA +0 50000 0 00106
 01677 SUB +0 40200 0 01511    01700 TNZ -0 10000 0 01732
                   N = BIN.(GET.(0))                                                035  LM00059
 01701 TSX +0 07400 4 00031    01702 TXH +3 00000 0 01500    01703 STO +0 60100 0 03710    01704 TSX +0 07400 4 00001
 01705 TXH +3 00000 0 03710    01706 STO +0 60100 0 01456
                   THROUGH DREAD, FOR I = 1, 1, I .GE. N                            036  LM00060
 01707 CLA +0 50000 0 01501    01710 STO +0 60100 0 00675    01711 TRA +0 02000 0 01715    01712 CLA +0 50000 0 00675
 01713 ADD +0 40000 0 01501    01714 STO +0 60100 0 00675    01715 CLA +0 50000 0 00675    01716 SUB +0 40200 0 01456
 01717 TZE +0 10000 0 01727    01720 TPL +0 12000 0 01727
       DREAD         LENGTH = READ.(LINE, BUFSIZ, EOF)                              037  LM00061
 01721 TSX +0 07400 4 00017    01722 TXH +3 00000 0 01452    01723 TXH +3 00000 0 00100    01724 TXH +3 00000 0 00044
 01725 STO +0 60100 0 00700    01726 TRA +0 02000 0 01712
                   LENGTH = 0                                                       038  LM00062
 01727 CLA +0 50000 0 01500    01730 STO +0 60100 0 00700
                 OR WHENEVER CWD .E. $  NEXT$ .OR. CWD .E. $     N$                 039  LM00064
 01731 TRA +0 02000 0 03415    01732 CLA +0 50000 0 00106    01733 SUB +0 40200 0 01542    01734 TZE +0 10000 0 01740
 01735 CLA +0 50000 0 00106    01736 SUB +0 40200 0 01523    01737 TNZ -0 10000 0 02002
                   N = BIN.(GET.(0))                                                040  LM00065
 01740 TSX +0 07400 4 00031    01741 TXH +3 00000 0 01500    01742 STO +0 60100 0 03710    01743 TSX +0 07400 4 00001
 01744 TXH +3 00000 0 03710    01745 STO +0 60100 0 01456
                   WHENEVER N .E. 0, N = 1                                          041  LM00066
 01746 CLA +0 50000 0 01456    01747 SUB +0 40200 0 01500    01750 TNZ -0 10000 0 01753    01751 CLA +0 50000 0 01501
 01752 STO +0 60100 0 01456
                   THROUGH NXT, FOR I = 1, 1, I .G. N                               042  LM00067
 01753 CLA +0 50000 0 01501    01754 STO +0 60100 0 00675    01755 TRA +0 02000 0 01761    01756 CLA +0 50000 0 00675
 01757 ADD +0 40000 0 01501    01760 STO +0 60100 0 00675    01761 CLA +0 50000 0 00675    01762 SUB +0 40200 0 01456
 01763 TZE +0 10000 0 01765    01764 TPL +0 12000 0 02001
                     WRITE.(LINE, LENGTH)                                           043  LM00068
 01765 TSX +0 07400 4 00027    01766 TXH +3 00000 0 01452    01767 TXH +3 00000 0 00700
                     WHENEVER .NOT. OK, CLSOUT.                                     044  LM00069
 01770 ZET +0 52000 0 01460    01771 TRA +0 02000 0 01773    01772 TSX +0 07400 4 00030
                     LENGTH = READ.(LINE, BUFSIZ, EOF)                              045  LM00070
 01773 TSX +0 07400 4 00017    01774 TXH +3 00000 0 01452    01775 TXH +3 00000 0 00100    01776 TXH +3 00000 0 00044
 01777 STO +0 60100 0 00700
       NXT           CONTINUE                                                       046  LM00071
 02000 TRA +0 02000 0 01756
                 OR WHENEVER CWD .E. $INSERT$ .OR. CWD .E. $     I$                 047  LM00073
 02001 TRA +0 02000 0 03415    02002 CLA +0 50000 0 00106    02003 SUB +0 40200 0 01537    02004 TZE +0 10000 0 02010
 02005 CLA +0 50000 0 00106    02006 SUB +0 40200 0 01512    02007 TNZ -0 10000 0 02064
                   WRITE.(LINE, LENGTH)                                             048  LM00074
 02010 TSX +0 07400 4 00027    02011 TXH +3 00000 0 01452    02012 TXH +3 00000 0 00700
                   TRANSFER TO RETYPE                                               049  LM00075
 02013 TRA +0 02000 0 00062
      INSERT       WHENEVER .NOT. BRIEF, PRINT COMMENT $0I1N1P1U1T$                 050  LM00077
 02014 ZET +0 52000 0 00077    02015 TRA +0 02000 0 02022    02016 TSX +0 07400 4 00015    02017     +0 00000 0 00002
 02020     +0 03101 4 50147    02021     +0 16401 6 36060
       INPUT       COUNT = TYPEIN.(EDLIN, BUFSIZ)                                   051  LM00078
 02022 TSX +0 07400 4 00024    02023 TXH +3 00000 0 00663    02024 TXH +3 00000 0 00100    02025 STO +0 60100 0 00105
                   WHENEVER COUNT .L. 3 .AND. EDLIN(1) .E. MCHNG                    052  LM00079
                1     , TRANSFER TO EDIT                                            052  LM00080
 02026 CLA +0 50000 0 00662    02027 SUB +0 40200 0 01454    02030 TNZ -0 10000 0 02036    02031 CLA +0 50000 0 00105
 02032 SUB +0 40200 0 01503    02033 TZE +0 10000 0 02036    02034 TPL +0 12000 0 02036    02035 TRA +0 02000 0 00043
                   WRITE.(LINE, LENGTH)                                             053  LM00081
 02036 TSX +0 07400 4 00027    02037 TXH +3 00000 0 01452    02040 TXH +3 00000 0 00700
                   THROUGH MVLP, FOR I = 1, 1, I .G. COUNT                          054  LM00082
 02041 CLA +0 50000 0 01501    02042 STO +0 60100 0 00675    02043 TRA +0 02000 0 02047    02044 CLA +0 50000 0 00675
 02045 ADD +0 40000 0 01501    02046 STO +0 60100 0 00675    02047 CLA +0 50000 0 00675    02050 SUB +0 40200 0 00105
 02051 TZE +0 10000 0 02053    02052 TPL +0 12000 0 02060
       MVLP          LINE(I) = EDLIN(I)                                             055  LM00083
 02053 LXA +0 53400 1 00675    02054 LXA +0 53400 2 00675    02055 CLA +0 50000 2 00663    02056 STO +0 60100 1 01452
 02057 TRA +0 02000 0 02044
                   LENGTH = COUNT                                                   056  LM00084
 02060 CLA +0 50000 0 00105    02061 STO +0 60100 0 00700
                   TRANSFER TO INPUT                                                057  LM00085
 02062 TRA +0 02000 0 00050
                 OR WHENEVER CWD .E. $BOTTOM$ .OR. CWD .E. $     B$                 058  LM00087
 02063 TRA +0 02000 0 03415    02064 CLA +0 50000 0 00106    02065 SUB +0 40200 0 01531    02066 TZE +0 10000 0 02072
 02067 CLA +0 50000 0 00106    02070 SUB +0 40200 0 01506    02071 TNZ -0 10000 0 02104
                   WRITE.(LINE, LENGTH)                                             059  LM00088
 02072 TSX +0 07400 4 00027    02073 TXH +3 00000 0 01452    02074 TXH +3 00000 0 00700
                   LENGTH = 0                                                       060  LM00089
 02075 CLA +0 50000 0 01500    02076 STO +0 60100 0 00700
                   WHENEVER OK, BOTTOM.                                             061  LM00090
 02077 NZT -0 52000 0 01460    02100 TRA +0 02000 0 02102    02101 TSX +0 07400 4 00002
                   TRANSFER TO INSERT                                               062  LM00091
 02102 TRA +0 02000 0 00051
                 OR WHENEVER CWD .E. $APPEND$ .OR. CWD .E. $     A$                 063  LM00093
 02103 TRA +0 02000 0 03415    02104 CLA +0 50000 0 00106    02105 SUB +0 40200 0 01530    02106 TZE +0 10000 0 02112
 02107 CLA +0 50000 0 00106    02110 SUB +0 40200 0 01505    02111 TNZ -0 10000 0 02123
                   WHENEVER LENGTH .G. 0, LENGTH = LENGTH - 1                       064  LM00094
 02112 CLA +0 50000 0 00700    02113 SUB +0 40200 0 01500    02114 TZE +0 10000 0 02121    02115 TMI -0 12000 0 02121
 02116 CLA +0 50000 0 00700    02117 SUB +0 40200 0 01501    02120 STO +0 60100 0 00700
                   TRANSFER TO APPEND                                               065  LM00095
 02121 TRA +0 02000 0 00034
                 OR WHENEVER CWD .E. $RETYPE$ .OR. CWD .E. $     R$                 066  LM00097
 02122 TRA +0 02000 0 03415    02123 CLA +0 50000 0 00106    02124 SUB +0 40200 0 01545    02125 TZE +0 10000 0 02131
 02126 CLA +0 50000 0 00106    02127 SUB +0 40200 0 01514    02130 TNZ -0 10000 0 02157
       RETYPE      LENGTH = 0                                                       067  LM00098
 02131 CLA +0 50000 0 01500    02132 STO +0 60100 0 00700
      APPEND       THROUGH RPLC, FOR EDCT = EDCT + 1, 1, EDCT .G. COUNT             068  LM00099
 02133 CLA +0 50000 0 00111    02134 ADD +0 40000 0 01501    02135 STO +0 60100 0 00111    02136 TRA +0 02000 0 02142
 02137 CLA +0 50000 0 00111    02140 ADD +0 40000 0 01501    02141 STO +0 60100 0 00111    02142 CLA +0 50000 0 00111
 02143 SUB +0 40200 0 00105    02144 TZE +0 10000 0 02146    02145 TPL +0 12000 0 02156
                     LENGTH = LENGTH + 1                                            069  LM00100
 02146 CLA +0 50000 0 00700    02147 ADD +0 40000 0 01501    02150 STO +0 60100 0 00700
       RPLC          LINE(LENGTH) = EDLIN(EDCT)                                     070  LM00101
 02151 LXA +0 53400 1 00700    02152 LXA +0 53400 2 00111    02153 CLA +0 50000 2 00663    02154 STO +0 60100 1 01452
 02155 TRA +0 02000 0 02137
                 OR WHENEVER CWD .E. $ ERASE$ .OR. CWD .E. $     E$                 071  LM00103
 02156 TRA +0 02000 0 03415    02157 CLA +0 50000 0 00106    02160 SUB +0 40200 0 01534    02161 TZE +0 10000 0 02165
 02162 CLA +0 50000 0 00106    02163 SUB +0 40200 0 01516    02164 TNZ -0 10000 0 02203
                   WHENEVER EDLIN(EDCT+1) .NE. BLANK, SETERS.(EDLIN(EDCT+1))        072  LM00104
 02165 CLA +0 50000 0 00111    02166 ADD +0 40000 0 01501    02167 PAX +0 73400 1 00000    02170 CLA +0 50000 1 00663
 02171 SUB +0 40200 0 00076    02172 TZE +0 10000 0 02202    02173 CLA +0 50000 0 00111    02174 ADD +0 40000 0 01501
 02175 SUB +0 40200 0 02176    02176 TXH +3 00000 0 00663    02177 STA +0 62100 0 02201    02200 TSX +0 07400 4 00022
 02201 TXH +3 00000 0 00000
                 OR WHENEVER CWD .E. $  KILL$ .OR. CWD .E. $     K$                 073  LM00106
 02202 TRA +0 02000 0 03415    02203 CLA +0 50000 0 00106    02204 SUB +0 40200 0 01540    02205 TZE +0 10000 0 02211
 02206 CLA +0 50000 0 00106    02207 SUB +0 40200 0 01522    02210 TNZ -0 10000 0 02227
                   WHENEVER EDLIN(EDCT+1) .NE. BLANK, SETKIL.(EDLIN(EDCT+1))        074  LM00107
 02211 CLA +0 50000 0 00111    02212 ADD +0 40000 0 01501    02213 PAX +0 73400 1 00000    02214 CLA +0 50000 1 00663
 02215 SUB +0 40200 0 00076    02216 TZE +0 10000 0 02226    02217 CLA +0 50000 0 00111    02220 ADD +0 40000 0 01501
 02221 SUB +0 40200 0 02222    02222 TXH +3 00000 0 00663    02223 STA +0 62100 0 02225    02224 TSX +0 07400 4 00023
 02225 TXH +3 00000 0 00000
                 OR WHENEVER CWD .E. $ BREAK$ .OR. CWD .E. $    BR$                 075  LM00111
 02226 TRA +0 02000 0 03415    02227 CLA +0 50000 0 00106    02230 SUB +0 40200 0 01526    02231 TZE +0 10000 0 02235
 02232 CLA +0 50000 0 00106    02233 SUB +0 40200 0 01515    02234 TNZ -0 10000 0 02260
                   WHENEVER EDLIN(EDCT) .E. RETURN                                  076  LM00112
 02235 LXA +0 53400 1 00111    02236 CLA +0 50000 1 00663    02237 SUB +0 40200 0 01467    02240 TNZ -0 10000 0 02244
                     MCHNG = RETURN                                                 077  LM00113
 02241 CLA +0 50000 0 01467    02242 STO +0 60100 0 01454
                   OR WHENEVER EDLIN(EDCT+1) .NE. BLANK                             078  LM00114
 02243 TRA +0 02000 0 02257    02244 CLA +0 50000 0 00111    02245 ADD +0 40000 0 01501    02246 PAX +0 73400 1 00000
 02247 CLA +0 50000 1 00663    02250 SUB +0 40200 0 00076    02251 TZE +0 10000 0 02257
                     MCHNG = EDLIN(EDCT+1)                                          079  LM00115
 02252 CLA +0 50000 0 00111    02253 ADD +0 40000 0 01501    02254 PAX +0 73400 2 00000    02255 CLA +0 50000 2 00663
 02256 STO +0 60100 0 01454
                   END OF CONDITIONAL                                               080  LM00116
                 OR WHENEVER CWD .E. $VERIFY$ .OR. CWD .E. $     V$                 081  LM00118
 02257 TRA +0 02000 0 03415    02260 CLA +0 50000 0 00106    02261 SUB +0 40200 0 01551    02262 TZE +0 10000 0 02266
 02263 CLA +0 50000 0 00106    02264 SUB +0 40200 0 01554    02265 TNZ -0 10000 0 02305
                   CWD = GET.(0)                                                    082  LM00119
 02266 TSX +0 07400 4 00031    02267 TXH +3 00000 0 01500    02270 STO +0 60100 0 00106
                   WHENEVER CWD .E. $    ON$                                        083  LM00120
 02271 CLA +0 50000 0 00106    02272 SUB +0 40200 0 01527    02273 TNZ -0 10000 0 02277
                     BRIEF = 0B                                                     084  LM00121
 02274 CLA +0 50000 0 01500    02275 STO +0 60100 0 00077
                   OR WHENEVER CWD .E. $   OFF$                                     085  LM00122
 02276 TRA +0 02000 0 02304    02277 CLA +0 50000 0 00106    02300 SUB +0 40200 0 01525    02301 TNZ -0 10000 0 02304
                     BRIEF = 1B                                                     086  LM00123
 02302 CLA +0 50000 0 01501    02303 STO +0 60100 0 00077
                   END OF CONDITIONAL                                               087  LM00124
                 OR WHENEVER CWD .E. $LOCATE$ .OR. CWD .E. $     L$                 088  LM00126
 02304 TRA +0 02000 0 03415    02305 CLA +0 50000 0 00106    02306 SUB +0 40200 0 01541    02307 TZE +0 10000 0 02313
 02310 CLA +0 50000 0 00106    02311 SUB +0 40200 0 01513    02312 TNZ -0 10000 0 02317
                   LOCATE = 1                                                       089  LM00127
 02313 CLA +0 50000 0 01501    02314 STO +0 60100 0 01453
                   TRANSFER TO FIND                                                 090  LM00128
 02315 TRA +0 02000 0 00045
                 OR WHENEVER CWD .E. $  FIND$ .OR. CWD .E. $     F$                 091  LM00130
 02316 TRA +0 02000 0 03415    02317 CLA +0 50000 0 00106    02320 SUB +0 40200 0 01535    02321 TZE +0 10000 0 02325
 02322 CLA +0 50000 0 00106    02323 SUB +0 40200 0 01521    02324 TNZ -0 10000 0 02510
                   LOCATE = 0                                                       092  LM00131
 02325 CLA +0 50000 0 01500    02326 STO +0 60100 0 01453
      FIND         WHENEVER EDCT+1 .GE. COUNT                                       093  LM00132
 02327 CLA +0 50000 0 00111    02330 ADD +0 40000 0 01501    02331 SUB +0 40200 0 00105    02332 TZE +0 10000 0 02334
 02333 TMI -0 12000 0 02341
                     COUNT = OCOUNT                                                 094  LM00133
 02334 CLA +0 50000 0 01457    02335 STO +0 60100 0 00105
                     EDCT = EDCT + 1                                                095  LM00134
 02336 CLA +0 50000 0 00111    02337 ADD +0 40000 0 01501    02340 STO +0 60100 0 00111
                   END OF CONDITIONAL                                               096  LM00135
                   OCOUNT = COUNT                                                   097  LM00136
 02341 CLA +0 50000 0 00105    02342 STO +0 60100 0 01457
       NTFND       WRITE.(LINE, LENGTH)                                             098  LM00137
 02343 TSX +0 07400 4 00027    02344 TXH +3 00000 0 01452    02345 TXH +3 00000 0 00700
                   WHENEVER  .NOT. OK, CLSOUT.                                      099  LM00138
 02346 ZET +0 52000 0 01460    02347 TRA +0 02000 0 02351    02350 TSX +0 07400 4 00030
                   LENGTH = READ.(LINE, BUFSIZ, EOF)                                100  LM00139
 02351 TSX +0 07400 4 00017    02352 TXH +3 00000 0 01452    02353 TXH +3 00000 0 00100    02354 TXH +3 00000 0 00044
 02355 STO +0 60100 0 00700
                   THROUGH LOCSCN, FOR K=0, 1,K.G.LOCATE*(LENGTH-COUNT+EDCT)        101  LM00140
 02356 CLA +0 50000 0 01500    02357 STO +0 60100 0 00677    02360 TRA +0 02000 0 02364    02361 CLA +0 50000 0 00677
 02362 ADD +0 40000 0 01501    02363 STO +0 60100 0 00677    02364 CLA +0 50000 0 00700    02365 SUB +0 40200 0 00105
 02366 ADD +0 40000 0 00111    02367 XCA +0 13100 0 00000    02370 MPY +0 20000 0 01453    02371 XCA +0 13100 0 00000
 02372 CHS +0 76000 0 00002    02373 ADD +0 40000 0 00677    02374 TZE +0 10000 0 02376    02375 TPL +0 12000 0 02506
                     J = K                                                          102  LM00141
 02376 CLA +0 50000 0 00677    02377 STO +0 60100 0 00676
                     THROUGH LOOK, FOR I = EDCT+1, 1, I .GE. COUNT                  103  LM00142
 02400 CLA +0 50000 0 00111    02401 ADD +0 40000 0 01501    02402 STO +0 60100 0 00675    02403 TRA +0 02000 0 02407
 02404 CLA +0 50000 0 00675    02405 ADD +0 40000 0 01501    02406 STO +0 60100 0 00675    02407 CLA +0 50000 0 00675
 02410 SUB +0 40200 0 00105    02411 TZE +0 10000 0 02475    02412 TPL +0 12000 0 02475
                       J = J + 1                                                    104  LM00143
 02413 CLA +0 50000 0 00676    02414 ADD +0 40000 0 01501    02415 STO +0 60100 0 00676
       TAGN            WHENEVER LINE(J) .E. EDLIN(I), TRANSFER TO LOOK              105  LM00144
 02416 LXA +0 53400 1 00676    02417 LXA +0 53400 2 00675    02420 CLA +0 50000 1 01452    02421 SUB +0 40200 2 00663
 02422 TNZ -0 10000 0 02424    02423 TRA +0 02000 0 00053
                       WHENEVER (LINE(J).E. TAB) .AND. (EDLIN(I) .E. BLANK)         106  LM00145
                1       , TRANSFER TO LOOK                                          106  LM00146
 02424 LXA +0 53400 1 00675    02425 CLA +0 50000 1 00663    02426 SUB +0 40200 0 00076    02427 TNZ -0 10000 0 02435
 02430 LXA +0 53400 1 00676    02431 CLA +0 50000 1 01452    02432 SUB +0 40200 0 01473    02433 TNZ -0 10000 0 02435
 02434 TRA +0 02000 0 00053
                       WHENEVER EDLIN(I-1) .NE. BLANK .OR. I .E. EDCT + 1           107  LM00147
                1       , TRANSFER TO LOCSCN                                        107  LM00148
 02435 CLA +0 50000 0 00111    02436 ADD +0 40000 0 01501    02437 CHS +0 76000 0 00002    02440 ADD +0 40000 0 00675
 02441 TZE +0 10000 0 02450    02442 CLA +0 50000 0 00675    02443 SUB +0 40200 0 01501    02444 PAX +0 73400 1 00000
 02445 CLA +0 50000 1 00663    02446 SUB +0 40200 0 00076    02447 TZE +0 10000 0 02451    02450 TRA +0 02000 0 00052
                       WHENEVER LINE(J) .NE. BLANK .AND. LINE(J) .NE. TAB           108  LM00149
                1       , TRANSFER TO LOCSCN                                        108  LM00150
 02451 LXA +0 53400 1 00676    02452 CLA +0 50000 1 01452    02453 SUB +0 40200 0 01473    02454 TZE +0 10000 0 02461
 02455 CLA +0 50000 1 01452    02456 SUB +0 40200 0 00076    02457 TZE +0 10000 0 02461    02460 TRA +0 02000 0 00052
                       J = J + 1                                                    109  LM00151
 02461 CLA +0 50000 0 00676    02462 ADD +0 40000 0 01501    02463 STO +0 60100 0 00676
                       TRANSFER TO TAGN                                             110  LM00152
 02464 TRA +0 02000 0 00067
       LOOK            WHENEVER I .E. EDCT+1, FNDST = J                             111  LM00153
 02465 CLA +0 50000 0 00111    02466 ADD +0 40000 0 01501    02467 CHS +0 76000 0 00002    02470 ADD +0 40000 0 00675
 02471 TNZ -0 10000 0 02474    02472 CLA +0 50000 0 00676    02473 STO +0 60100 0 00670    02474 TRA +0 02000 0 02404
                     FNDND = J                                                      112  LM00154
 02475 CLA +0 50000 0 00676    02476 STO +0 60100 0 00667
                     WHENEVER .NOT. BRIEF, PRNT.(FNDST, FNDND)                      113  LM00155
 02477 ZET +0 52000 0 00077    02500 TRA +0 02000 0 02504    02501 TSX +0 07400 4 00032    02502 TXH +3 00000 0 00670
 02503 TXH +3 00000 0 00667
                     TRANSFER TO NXRQ                                               114  LM00156
 02504 TRA +0 02000 0 00060
        LOCSCN       CONTINUE                                                       115  LM00157
 02505 TRA +0 02000 0 02361
                   TRANSFER TO NTFND                                                116  LM00158
 02506 TRA +0 02000 0 00057
                 OR WHENEVER CWD .E. $ PRINT$ .OR. CWD .E. $     P$                 117  LM00160
 02507 TRA +0 02000 0 03415    02510 CLA +0 50000 0 00106    02511 SUB +0 40200 0 01543    02512 TZE +0 10000 0 02516
 02513 CLA +0 50000 0 00106    02514 SUB +0 40200 0 01517    02515 TNZ -0 10000 0 02564
                   NPRNT = BIN.(GET.(0))                                            118  LM00161
 02516 TSX +0 07400 4 00031    02517 TXH +3 00000 0 01500    02520 STO +0 60100 0 03710    02521 TSX +0 07400 4 00001
 02522 TXH +3 00000 0 03710    02523 STO +0 60100 0 01455
      PNTLP        WHENEVER LENGTH .E. 0                                            119  LM00162
 02524 CLA +0 50000 0 00700    02525 SUB +0 40200 0 01500    02526 TNZ -0 10000 0 02540
                     PRINT COMMENT $0N1O0 1C1U1R1R1E1N1T0 1L1I1N1E0.$               120  LM00163
 02527 TSX +0 07400 4 00015    02530     +0 00000 0 00006    02531     +0 04501 4 60060    02532     +0 12301 6 40151
 02533     +0 15101 2 50145    02534     +0 16300 6 00143    02535     +0 13101 4 50125    02536     +0 03360 6 06060
                   OTHERWISE                                                        121  LM00164
 02537 TRA +0 02000 0 02543
                     TYPOUT.(LINE, LENGTH)                                          122  LM00165
 02540 TSX +0 07400 4 00025    02541 TXH +3 00000 0 01452    02542 TXH +3 00000 0 00700
                   END OF CONDITIONAL                                               123  LM00166
                   NPRNT = NPRNT - 1                                                124  LM00167
 02543 CLA +0 50000 0 01455    02544 SUB +0 40200 0 01501    02545 STO +0 60100 0 01455
                   WHENEVER NPRNT .G. 0                                             125  LM00168
 02546 CLA +0 50000 0 01455    02547 SUB +0 40200 0 01500    02550 TZE +0 10000 0 02563    02551 TMI -0 12000 0 02563
                     WRITE.(LINE, LENGTH)                                           126  LM00169
 02552 TSX +0 07400 4 00027    02553 TXH +3 00000 0 01452    02554 TXH +3 00000 0 00700
                     LENGTH = READ.(LINE, BUFSIZ, EOF)                              127  LM00170
 02555 TSX +0 07400 4 00017    02556 TXH +3 00000 0 01452    02557 TXH +3 00000 0 00100    02560 TXH +3 00000 0 00044
 02561 STO +0 60100 0 00700
                     TRANSFER TO PNTLP                                              128  LM00171
 02562 TRA +0 02000 0 00061
                   END OF CONDITIONAL                                               129  LM00172
                 OR WHENEVER CWD .E. $   TOP$ .OR. CWD .E. $     T$                 130  LM00174
 02563 TRA +0 02000 0 03415    02564 CLA +0 50000 0 00106    02565 SUB +0 40200 0 01550    02566 TZE +0 10000 0 02572
 02567 CLA +0 50000 0 00106    02570 SUB +0 40200 0 01552    02571 TNZ -0 10000 0 02602
       TOPLP       WRITE.(LINE, LENGTH)                                             131  LM00175
 02572 TSX +0 07400 4 00027    02573 TXH +3 00000 0 01452    02574 TXH +3 00000 0 00700
                   WHENEVER OK, BOTTOM.                                             132  LM00176
 02575 NZT -0 52000 0 01460    02576 TRA +0 02000 0 02600    02577 TSX +0 07400 4 00002
                   CLSOUT.                                                          133  LM00177
 02600 TSX +0 07400 4 00030
                 OR WHENEVER CWD .E. $CHANGE$ .OR. CWD .E. $     C$                 134  LM00179
 02601 TRA +0 02000 0 03415    02602 CLA +0 50000 0 00106    02603 SUB +0 40200 0 01532    02604 TZE +0 10000 0 02610
 02605 CLA +0 50000 0 00106    02606 SUB +0 40200 0 01510    02607 TNZ -0 10000 0 03172
                   EDCT = EDCT+1                                                    135  LM00185
 02610 CLA +0 50000 0 00111    02611 ADD +0 40000 0 01501    02612 STO +0 60100 0 00111
                   QUOTE = EDLIN(EDCT)                                              136  LM00186
 02613 LXA +0 53400 2 00111    02614 CLA +0 50000 2 00663    02615 STO +0 60100 0 01464
                   STR1 = EDCT                                                      137  LM00187
 02616 CLA +0 50000 0 00111    02617 STO +0 60100 0 01471
      QLOOP        THROUGH QLOOP, FOR EDCT = EDCT+1, 1,                             138  LM00188
                1     (EDLIN(EDCT) .E. QUOTE) .OR. (EDCT .GE. COUNT)                138  LM00189
 02620 CLA +0 50000 0 00111    02621 ADD +0 40000 0 01501    02622 STO +0 60100 0 00111    02623 TRA +0 02000 0 02627
 02624 CLA +0 50000 0 00111    02625 ADD +0 40000 0 01501    02626 STO +0 60100 0 00111    02627 CLA +0 50000 0 00111
 02630 SUB +0 40200 0 00105    02631 TZE +0 10000 0 02640    02632 TPL +0 12000 0 02640    02633 LXA +0 53400 1 00111
 02634 CLA +0 50000 1 00663    02635 SUB +0 40200 0 01464    02636 TZE +0 10000 0 02640    02637 TRA +0 02000 0 02624
                   STR2 = EDCT                                                      139  LM00190
 02640 CLA +0 50000 0 00111    02641 STO +0 60100 0 01472
      QLOOP1       THROUGH QLOOP1, FOR EDCT = EDCT+1, 1,                            140  LM00191
                1     (EDLIN(EDCT) .E. QUOTE) .OR. (EDCT .GE. COUNT)                140  LM00192
 02642 CLA +0 50000 0 00111    02643 ADD +0 40000 0 01501    02644 STO +0 60100 0 00111    02645 TRA +0 02000 0 02651
 02646 CLA +0 50000 0 00111    02647 ADD +0 40000 0 01501    02650 STO +0 60100 0 00111    02651 CLA +0 50000 0 00111
 02652 SUB +0 40200 0 00105    02653 TZE +0 10000 0 02662    02654 TPL +0 12000 0 02662    02655 LXA +0 53400 1 00111
 02656 CLA +0 50000 1 00663    02657 SUB +0 40200 0 01464    02660 TZE +0 10000 0 02662    02661 TRA +0 02000 0 02646
                   EST2 = EDCT                                                      141  LM00193
 02662 CLA +0 50000 0 00111    02663 STO +0 60100 0 00664
                   EDCT = EDCT + 1                                                  142  LM00197
 02664 CLA +0 50000 0 00111    02665 ADD +0 40000 0 01501    02666 STO +0 60100 0 00111
                   TEM = 1                                                          143  LM00198
 02667 CLA +0 50000 0 01501    02670 STO +0 60100 0 01474
                   GLOBAL = 0B                                                      144  LM00199
 02671 CLA +0 50000 0 01500    02672 STO +0 60100 0 00672
      ARGLP        CWD = GET.(0)                                                    145  LM00200
 02673 TSX +0 07400 4 00031    02674 TXH +3 00000 0 01500    02675 STO +0 60100 0 00106
                   WHENEVER CWD .E. $ $                                             146  LM00201
 02676 CLA +0 50000 0 00106    02677 SUB +0 40200 0 01546    02700 TNZ -0 10000 0 02703
                     TRANSFER TO SHIFT                                              147  LM00202
 02701 TRA +0 02000 0 00063
                   OR WHENEVER CWD .E. $     G$                                     148  LM00203
 02702 TRA +0 02000 0 02721    02703 CLA +0 50000 0 00106    02704 SUB +0 40200 0 01536    02705 TNZ -0 10000 0 02716
                     WHENEVER STR2 .NE. STR1+1, GLOBAL = 1B                         149  LM00204
 02706 CLA +0 50000 0 01471    02707 ADD +0 40000 0 01501    02710 CHS +0 76000 0 00002    02711 ADD +0 40000 0 01472
 02712 TZE +0 10000 0 02715    02713 CLA +0 50000 0 01501    02714 STO +0 60100 0 00672
                   OTHERWISE                                                        150  LM00205
 02715 TRA +0 02000 0 02721
                     TEM = BIN.(CWD)                                                151  LM00206
 02716 TSX +0 07400 4 00001    02717 TXH +3 00000 0 00106    02720 STO +0 60100 0 01474
                   END OF CONDITIONAL                                               152  LM00207
                   TRANSFER TO ARGLP                                                153  LM00208
 02721 TRA +0 02000 0 00035
       SHIFT       THROUGH MVDWN, FOR I = LENGTH, -1, I .L. 1                       154  LM00212
 02722 CLA +0 50000 0 00700    02723 STO +0 60100 0 00675    02724 TRA +0 02000 0 02730    02725 CLS +0 50200 0 01501
 02726 ADD +0 40000 0 00675    02727 STO +0 60100 0 00675    02730 CLA +0 50000 0 00675    02731 SUB +0 40200 0 01501
 02732 TZE +0 10000 0 02734    02733 TMI -0 12000 0 02744
      MVDWN          LINE(BUFSIZ+I-LENGTH) = LINE(I)                                155  LM00213
 02734 CLA +0 50000 0 00100    02735 ADD +0 40000 0 00675    02736 SUB +0 40200 0 00700    02737 PAX +0 73400 1 00000
 02740 LXA +0 53400 2 00675    02741 CLA +0 50000 2 01452    02742 STO +0 60100 1 01452    02743 TRA +0 02000 0 02725
                   DOWN = BUFSIZ-LENGTH+1                                           156  LM00214
 02744 CLA +0 50000 0 00100    02745 SUB +0 40200 0 00700    02746 ADD +0 40000 0 01501    02747 STO +0 60100 0 00110
                   UP = 0                                                           157  LM00215
 02750 CLA +0 50000 0 01500    02751 STO +0 60100 0 01476
                   CHNG = 0B                                                        158  LM00216
 02752 CLA +0 50000 0 01500    02753 STO +0 60100 0 00102
                   CHST = LENGTH + 1                                                159  LM00217
 02754 CLA +0 50000 0 00700    02755 ADD +0 40000 0 01501    02756 STO +0 60100 0 00103
                   CHEND = LENGTH                                                   160  LM00218
 02757 CLA +0 50000 0 00700    02760 STO +0 60100 0 00101
      SRCHLP       UP = UP + 1                                                      161  LM00222
 02761 CLA +0 50000 0 01476    02762 ADD +0 40000 0 01501    02763 STO +0 60100 0 01476
      SRTST          WHENEVER DOWN .G. BUFSIZ, TRANSFER TO GIVUP                    162  LM00223
 02764 CLA +0 50000 0 00110    02765 SUB +0 40200 0 00100    02766 TZE +0 10000 0 02771    02767 TMI -0 12000 0 02771
 02770 TRA +0 02000 0 00046
                     J = DOWN                                                       163  LM00224
 02771 CLA +0 50000 0 00110    02772 STO +0 60100 0 00676
                     THROUGH COMPAR, FOR I = STR1+1, 1, I .GE. STR2                 164  LM00225
 02773 CLA +0 50000 0 01471    02774 ADD +0 40000 0 01501    02775 STO +0 60100 0 00675    02776 TRA +0 02000 0 03002
 02777 CLA +0 50000 0 00675    03000 ADD +0 40000 0 01501    03001 STO +0 60100 0 00675    03002 CLA +0 50000 0 00675
 03003 SUB +0 40200 0 01472    03004 TZE +0 10000 0 03025    03005 TPL +0 12000 0 03025
                       WHENEVER J .GE. BUFSIZ, TRANSFER TO GIVUP                    165  LM00226
 03006 CLA +0 50000 0 00676    03007 SUB +0 40200 0 00100    03010 TZE +0 10000 0 03012    03011 TMI -0 12000 0 03013
 03012 TRA +0 02000 0 00046
                       WHENEVER EDLIN(I) .NE. LINE(J), TRANSFER TO NOCOMP           166  LM00227
 03013 LXA +0 53400 1 00675    03014 LXA +0 53400 2 00676    03015 CLA +0 50000 1 00663    03016 SUB +0 40200 2 01452
 03017 TZE +0 10000 0 03021    03020 TRA +0 02000 0 00055
       COMPAR          J = J + 1                                                    167  LM00228
 03021 CLA +0 50000 0 00676    03022 ADD +0 40000 0 01501    03023 STO +0 60100 0 00676    03024 TRA +0 02000 0 02777
                     TRANSFER TO STFND                                              168  LM00229
 03025 TRA +0 02000 0 00066
      NOCOMP         LINE(UP) = LINE(DOWN)                                          169  LM00231
 03026 LXA +0 53400 1 01476    03027 LXA +0 53400 2 00110    03030 CLA +0 50000 2 01452    03031 STO +0 60100 1 01452
                     DOWN = DOWN + 1                                                170  LM00232
 03032 CLA +0 50000 0 00110    03033 ADD +0 40000 0 01501    03034 STO +0 60100 0 00110
                   TRANSFER TO SRCHLP                                               171  LM00233
 03035 TRA +0 02000 0 00064
      STFND        CHNG = 1B                                                        172  LM00237
 03036 CLA +0 50000 0 01501    03037 STO +0 60100 0 00102
                   DOWN = DOWN + (STR2-STR1-1)                                      173  LM00238
 03040 CLA +0 50000 0 01472    03041 SUB +0 40200 0 01471    03042 SUB +0 40200 0 01501    03043 ADD +0 40000 0 00110
 03044 STO +0 60100 0 00110
                   CHST = UP                                                        174  LM00239
 03045 CLA +0 50000 0 01476    03046 STO +0 60100 0 00103
                   THROUGH REPLAC, FOR I = STR2 + 1, 1, I .GE. EST2                 175  LM00240
 03047 CLA +0 50000 0 01472    03050 ADD +0 40000 0 01501    03051 STO +0 60100 0 00675    03052 TRA +0 02000 0 03056
 03053 CLA +0 50000 0 00675    03054 ADD +0 40000 0 01501    03055 STO +0 60100 0 00675    03056 CLA +0 50000 0 00675
 03057 SUB +0 40200 0 00664    03060 TZE +0 10000 0 03077    03061 TPL +0 12000 0 03077
                     LINE(UP) = EDLIN(I)                                            176  LM00241
 03062 LXA +0 53400 1 01476    03063 LXA +0 53400 2 00675    03064 CLA +0 50000 2 00663    03065 STO +0 60100 1 01452
                     UP = UP + 1                                                    177  LM00242
 03066 CLA +0 50000 0 01476    03067 ADD +0 40000 0 01501    03070 STO +0 60100 0 01476
       REPLAC        WHENEVER UP .G. DOWN, TRANSFER TO GIVUP                        178  LM00243
 03071 CLA +0 50000 0 01476    03072 SUB +0 40200 0 00110    03073 TZE +0 10000 0 03076    03074 TMI -0 12000 0 03076
 03075 TRA +0 02000 0 00046    03076 TRA +0 02000 0 03053
                   CHEND = UP - 1                                                   179  LM00244
 03077 CLA +0 50000 0 01476    03100 SUB +0 40200 0 01501    03101 STO +0 60100 0 00101
                   WHENEVER GLOBAL, TRANSFER TO SRTST                               180  LM00245
 03102 NZT -0 52000 0 00672    03103 TRA +0 02000 0 03105    03104 TRA +0 02000 0 00065
      GIVUP        THROUGH FILOUT, FOR UP = UP, 1, DOWN .G. BUFSIZ                  181  LM00249
 03105 CLA +0 50000 0 01476    03106 STO +0 60100 0 01476    03107 TRA +0 02000 0 03113    03110 CLA +0 50000 0 01476
 03111 ADD +0 40000 0 01501    03112 STO +0 60100 0 01476    03113 CLA +0 50000 0 00110    03114 SUB +0 40200 0 00100
 03115 TZE +0 10000 0 03117    03116 TPL +0 12000 0 03127
                     LINE(UP) = LINE(DOWN)                                          182  LM00250
 03117 LXA +0 53400 1 01476    03120 LXA +0 53400 2 00110    03121 CLA +0 50000 2 01452    03122 STO +0 60100 1 01452
      FILOUT         DOWN = DOWN + 1                                                183  LM00251
 03123 CLA +0 50000 0 00110    03124 ADD +0 40000 0 01501    03125 STO +0 60100 0 00110    03126 TRA +0 02000 0 03110
                   LENGTH = UP - 1                                                  184  LM00252
 03127 CLA +0 50000 0 01476    03130 SUB +0 40200 0 01501    03131 STO +0 60100 0 00700
                   TEM = TEM - 1                                                    185  LM00253
 03132 CLA +0 50000 0 01474    03133 SUB +0 40200 0 01501    03134 STO +0 60100 0 01474
                   WHENEVER .NOT. BRIEF .AND. (TEM .G. 0 .THEN. CHNG)               186  LM00254
                1       , PRNT.(CHST, CHEND)                                        186  LM00255
 03135 ZET +0 52000 0 00102    03136 TRA +0 02000 0 03143    03137 CLA +0 50000 0 01474    03140 SUB +0 40200 0 01500
 03141 TZE +0 10000 0 03143    03142 TPL +0 12000 0 03150    03143 ZET +0 52000 0 00077    03144 TRA +0 02000 0 03150
 03145 TSX +0 07400 4 00032    03146 TXH +3 00000 0 00103    03147 TXH +3 00000 0 00101
                   CANON.(LINE, LENGTH, BUFSIZ)                                     187  LM00256
 03150 TSX +0 07400 4 00003    03151 TXH +3 00000 0 01452    03152 TXH +3 00000 0 00700    03153 TXH +3 00000 0 00100
                   WHENEVER TEM .G. 0                                               188  LM00257
 03154 CLA +0 50000 0 01474    03155 SUB +0 40200 0 01500    03156 TZE +0 10000 0 03171    03157 TMI -0 12000 0 03171
                     WRITE.(LINE, LENGTH)                                           189  LM00258
 03160 TSX +0 07400 4 00027    03161 TXH +3 00000 0 01452    03162 TXH +3 00000 0 00700
                     LENGTH = READ.(LINE, BUFSIZ, EOF)                              190  LM00259
 03163 TSX +0 07400 4 00017    03164 TXH +3 00000 0 01452    03165 TXH +3 00000 0 00100    03166 TXH +3 00000 0 00044
 03167 STO +0 60100 0 00700
                     TRANSFER TO SHIFT                                              191  LM00260
 03170 TRA +0 02000 0 00063
                   END OF CONDITIONAL                                               192  LM00261
                 OR WHENEVER CWD .E. $ SPLIT$ .OR. CWD .E. $     S$                 193  LM00265
 03171 TRA +0 02000 0 03415    03172 CLA +0 50000 0 00106    03173 SUB +0 40200 0 01547    03174 TZE +0 10000 0 03200
 03175 CLA +0 50000 0 00106    03176 SUB +0 40200 0 01553    03177 TNZ -0 10000 0 03261
                   TOPNAM = GET.(0)                                                 194  LM00266
 03200 TSX +0 07400 4 00031    03201 TXH +3 00000 0 01500    03202 STO +0 60100 0 01475
                   WHENEVER TOPNAM .E. $ $, TRANSFER TO NONAME                      195  LM00267
 03203 CLA +0 50000 0 01475    03204 SUB +0 40200 0 01546    03205 TNZ -0 10000 0 03207    03206 TRA +0 02000 0 00056
                   WHENEVER TOPNAM .E. OLDNAM .AND. FSTPAS                          196  LM00268
 03207 NZT -0 52000 0 00671    03210 TRA +0 02000 0 03227    03211 CLA +0 50000 0 01475    03212 SUB +0 40200 0 01461
 03213 TNZ -0 10000 0 03227
      NEWNM          PRINT COMMENT $0P1L1E1A1S1E0 1U1S1E0 1A1N1O1T1H1E1R0 1N1A      197  LM00269
                11M1E0.$                                                            197  LM00270
 03214 TSX +0 07400 4 00015    03215     +0 00000 0 00010    03216     +0 04701 4 30125    03217     +0 12101 6 20125
 03220     +0 06001 6 40162    03221     +0 12500 6 00121    03222     +0 14501 4 60163    03223     +0 13001 2 50151
 03224     +0 06001 4 50121    03225     +0 14401 2 50033
                     TRANSFER TO NXRQ                                               198  LM00271
 03226 TRA +0 02000 0 00060
                   END OF CONDITIONAL                                               199  LM00272
                   SECNAM = GET.(0)                                                 200  LM00273
 03227 TSX +0 07400 4 00031    03230 TXH +3 00000 0 01500    03231 STO +0 60100 0 01470
                 WHENEVER SECNAM .E. $ $, SECNAM = OLDSEC                           201  LM00274
 03232 CLA +0 50000 0 01470    03233 SUB +0 40200 0 01546    03234 TNZ -0 10000 0 03237    03235 CLA +0 50000 0 01462
 03236 STO +0 60100 0 01470
                   CLRNAM.(TOPNAM, SECNAM, NEWNM, 1B)                               202  LM00275
 03237 TSX +0 07400 4 00006    03240 TXH +3 00000 0 01475    03241 TXH +3 00000 0 01470    03242 TXH +3 00000 0 00054
 03243 TXH +3 00000 0 01501
                   CLOSEW.                                                          203  LM00276
 03244 TSX +0 07400 4 00005
                   RENAME.(IN, FI, TOPNAM, SECNAM)                                  204  LM00277
 03245 TSX +0 07400 4 00020    03246 TXH +3 00000 0 00674    03247 TXH +3 00000 0 00666    03250 TXH +3 00000 0 01475
 03251 TXH +3 00000 0 01470
                   ASSIGN.(IN, FI)                                                  205  LM00278
 03252 TSX +0 07400 4 00000    03253 TXH +3 00000 0 00674    03254 TXH +3 00000 0 00666
                   OLDNAM = FENCE                                                   206  LM00279
 03255 CLA +0 50000 0 00665    03256 STO +0 60100 0 01461
                   TRANSFER TO TOPLP                                                207  LM00280
 03257 TRA +0 02000 0 00070
                 OR WHENEVER CWD .E. $  QUIT$ .OR. CWD .E. $     Q$                 208  LM00282
 03260 TRA +0 02000 0 03415    03261 CLA +0 50000 0 00106    03262 SUB +0 40200 0 01544    03263 TZE +0 10000 0 03267
 03264 CLA +0 50000 0 00106    03265 SUB +0 40200 0 01524    03266 TNZ -0 10000 0 03303
                   ENDRD.                                                           209  LM00283
 03267 TSX +0 07400 4 00011
                   CLOSEW.                                                          210  LM00284
 03270 TSX +0 07400 4 00005
                   DELFIL.(IN1, FI, DLQ1)                                           211  LM00285
 03271 TSX +0 07400 4 00010    03272 TXH +3 00000 0 00673    03273 TXH +3 00000 0 00666    03274 TXH +3 00000 0 00041
      DLQ1         DELFIL.(IN, FI, DLQ2)                                            212  LM00286
 03275 TSX +0 07400 4 00010    03276 TXH +3 00000 0 00674    03277 TXH +3 00000 0 00666    03300 TXH +3 00000 0 00042
      DLQ2         TRANSFER TO CHN                                                  213  LM00287
 03301 TRA +0 02000 0 00036
                 OR WHENEVER CWD .E. $  FILE$                                       214  LM00289
 03302 TRA +0 02000 0 03415    03303 CLA +0 50000 0 00106    03304 SUB +0 40200 0 01520    03305 TNZ -0 10000 0 03403
                   PRINAM = GET.(0)                                                 215  LM00290
 03306 TSX +0 07400 4 00031    03307 TXH +3 00000 0 01500    03310 STO +0 60100 0 01463
                   CLRSW = 1B                                                       216  LM00291
 03311 CLA +0 50000 0 01501    03312 STO +0 60100 0 00104
                   WHENEVER PRINAM .E. $ $                                          217  LM00292
 03313 CLA +0 50000 0 01463    03314 SUB +0 40200 0 01546    03315 TNZ -0 10000 0 03325
                     PRINAM = OLDNAM                                                218  LM00293
 03316 CLA +0 50000 0 01461    03317 STO +0 60100 0 01463
                     SECNAM = OLDSEC                                                219  LM00294
 03320 CLA +0 50000 0 01462    03321 STO +0 60100 0 01470
                     CLRSW = 0B                                                     220  LM00295
 03322 CLA +0 50000 0 01500    03323 STO +0 60100 0 00104
                   OTHERWISE                                                        221  LM00296
 03324 TRA +0 02000 0 03335
                     SECNAM = GET.(0)                                               222  LM00297
 03325 TSX +0 07400 4 00031    03326 TXH +3 00000 0 01500    03327 STO +0 60100 0 01470
                     WHENEVER SECNAM .E. $ $                                        223  LM00298
 03330 CLA +0 50000 0 01470    03331 SUB +0 40200 0 01546    03332 TNZ -0 10000 0 03335
                       SECNAM = OLDSEC                                              224  LM00299
 03333 CLA +0 50000 0 01462    03334 STO +0 60100 0 01470
                     END OF CONDITIONAL                                             225  LM00300
                   END OF CONDITIONAL                                               226  LM00301
                   WHENEVER PRINAM .E. FENCE                                        227  LM00302
 03335 CLA +0 50000 0 01463    03336 SUB +0 40200 0 00665    03337 TNZ -0 10000 0 03352
      NONAME         PRINT COMMENT $0N1O0 1F1I1L1E0 1N1A1M1E0 1G1I1V1E1N0.$         228  LM00303
 03340 TSX +0 07400 4 00015    03341     +0 00000 0 00007    03342     +0 04501 4 60060    03343     +0 12601 3 10143
 03344     +0 12500 6 00145    03345     +0 12101 4 40125    03346     +0 06001 2 70131    03347     +0 16501 2 50145
 03350     +0 03360 6 06060
                     TRANSFER TO NXRQ                                               229  LM00304
 03351 TRA +0 02000 0 00060
                   END OF CONDITIONAL                                               230  LM00305
                   WRITE.(LINE, LENGTH)                                             231  LM00306
 03352 TSX +0 07400 4 00027    03353 TXH +3 00000 0 01452    03354 TXH +3 00000 0 00700
                   LENGTH = 0                                                       232  LM00307
 03355 CLA +0 50000 0 01500    03356 STO +0 60100 0 00700
                   WHENEVER OK, BOTTOM.                                             233  LM00308
 03357 NZT -0 52000 0 01460    03360 TRA +0 02000 0 03362    03361 TSX +0 07400 4 00002
                   CLRNAM.(PRINAM, SECNAM, NEWNM, CLRSW)                            234  LM00309
 03362 TSX +0 07400 4 00006    03363 TXH +3 00000 0 01463    03364 TXH +3 00000 0 01470    03365 TXH +3 00000 0 00054
 03366 TXH +3 00000 0 00104
                   CLOSEW.                                                          235  LM00310
 03367 TSX +0 07400 4 00005
                   DELFIL.(IN1, FI, DL1)                                            236  LM00311
 03370 TSX +0 07400 4 00010    03371 TXH +3 00000 0 00673    03372 TXH +3 00000 0 00666    03373 TXH +3 00000 0 00037
      DL1          RENAME.(IN, FI, PRINAM, SECNAM)                                  237  LM00312
 03374 TSX +0 07400 4 00020    03375 TXH +3 00000 0 00674    03376 TXH +3 00000 0 00666    03377 TXH +3 00000 0 01463
 03400 TXH +3 00000 0 01470
      CHN          EXIT.                                                            238  LM00313
 03401 TSX +0 07400 4 00012
                 OTHERWISE                                                          239  LM00315
 03402 TRA +0 02000 0 03415
                   PRINT COMMENT $0N1O1T0 1A0 1R1E1Q1U1E1S1T0:$                     240  LM00316
 03403 TSX +0 07400 4 00015    03404     +0 00000 0 00005    03405     +0 04501 4 60163    03406     +0 06001 2 10060
 03407     +0 15101 2 50150    03410     +0 16401 2 50162    03411     +0 16300 3 56060
                   TYPOUT.(EDLIN, COUNT)                                            241  LM00317
 03412 TSX +0 07400 4 00025    03413 TXH +3 00000 0 00663    03414 TXH +3 00000 0 00105
                 END OF CONDITIONAL                                                 242  LM00319
                 TRANSFER TO NXRQ                                                   243  LM00320
 03415 TRA +0 02000 0 00060
      EOF        PRINTCOMMENT $0E1N1D0 1O1F0 1F1I1L1E0 1R1E1A1C1H1E1D0 1B1Y0:$      244  LM00322
 03416 TSX +0 07400 4 00015    03417     +0 00000 0 00010    03420     +0 02501 4 50124    03421     +0 06001 4 60126
 03422     +0 06001 2 60131    03423     +0 14301 2 50060    03424     +0 15101 2 50121    03425     +0 12301 3 00125
 03426     +0 12400 6 00122    03427     +0 17000 3 56060
                 TYPOUT.(EDLIN, COUNT)                                              245  LM00323
 03430 TSX +0 07400 4 00025    03431 TXH +3 00000 0 00663    03432 TXH +3 00000 0 00105
                 LENGTH = 0                                                         246  LM00324
 03433 CLA +0 50000 0 01500    03434 STO +0 60100 0 00700
                 OK = 0B                                                            247  LM00325
 03435 CLA +0 50000 0 01500    03436 STO +0 60100 0 01460
                 TRANSFER TO NXRQ                                                   248  LM00326
 03437 TRA +0 02000 0 00060
                 INTERNAL FUNCTION                                                  249  LM00334
 03440 TRA +0 02000 0 03510
                 ENTRY TO CLSOUT.                                                   250  LM00335
 03441 TRA +0 02000 0 03444    00030 TTR +0 02100 0 03442    03442 SXA +0 63400 2 03477    03443 TSX +0 07400 2 03477
                   CLOSEW.                                                          251  LM00336
 03444 TSX +0 07400 4 00005
                   DELFIL.(IN1, FI, DL2)                                            252  LM00337
 03445 TSX +0 07400 4 00010    03446 TXH +3 00000 0 00673    03447 TXH +3 00000 0 00666    03450 TXH +3 00000 0 00040
      DL2          CHFILE.(IN, FI, -0, IN1)                                         253  LM00338
 03451 CLS +0 50200 0 01500    03452 STO +0 60100 0 03507    03453 TSX +0 07400 4 00004    03454 TXH +3 00000 0 00674
 03455 TXH +3 00000 0 00666    03456 TXH +3 00000 0 03507    03457 TXH +3 00000 0 00673
                   SEEK.(IN1, FI, CHN)                                              254  LM00339
 03460 TSX +0 07400 4 00021    03461 TXH +3 00000 0 00673    03462 TXH +3 00000 0 00666    03463 TXH +3 00000 0 00036
                   ASSIGN.(IN, FI)                                                  255  LM00340
 03464 TSX +0 07400 4 00000    03465 TXH +3 00000 0 00674    03466 TXH +3 00000 0 00666
                   OK = 1B                                                          256  LM00341
 03467 CLA +0 50000 0 01501    03470 STO +0 60100 0 01460
                   LENGTH = 0                                                       257  LM00342
 03471 CLA +0 50000 0 01500    03472 STO +0 60100 0 00700
                   FSTPAS = 0B                                                      258  LM00343
 03473 CLA +0 50000 0 01500    03474 STO +0 60100 0 00671
                   FUNCTION RETURN                                                  259  LM00344
 03475 TRA +0 02000 0 03503
                 END OF FUNCTION                                                    260  LM00345
 03476 TSX +0 07400 4 00012    03477 TXH +3 00000 0 00000    03500 SXD -0 63400 1 03477    03501 SXA +0 63400 4 03503
 03502 TRA +0 02000 2 00001    03503 AXT +0 77400 4 00000    03504 LXA +0 53400 2 03477    03505 LXD -0 53400 1 03477
 03506 TRA +0 02000 4 00001
                 INTERNAL FUNCTION                                                  261  LM00349
 03510 TRA +0 02000 0 03616
                 ENTRY TO GET.                                                      262  LM00350
 03511 TRA +0 02000 0 03514    00031 TTR +0 02100 0 03512    03512 SXA +0 63400 2 03605    03513 TSX +0 07400 2 03605
                   WORD = $ $                                                       263  LM00351
 03514 CLA +0 50000 0 01546    03515 STO +0 60100 0 01477
      SCANLP       THROUGH SCANLP, FOR EDCT = EDCT, 1,                              264  LM00352
                1  (EDLIN(EDCT+1).NE.BLANK) .OR. (EDCT+1.GE.COUNT)                  264  LM00353
 03516 CLA +0 50000 0 00111    03517 STO +0 60100 0 00111    03520 TRA +0 02000 0 03524    03521 CLA +0 50000 0 00111
 03522 ADD +0 40000 0 01501    03523 STO +0 60100 0 00111    03524 CLA +0 50000 0 00111    03525 ADD +0 40000 0 01501
 03526 SUB +0 40200 0 00105    03527 TZE +0 10000 0 03540    03530 TPL +0 12000 0 03540    03531 CLA +0 50000 0 00111
 03532 ADD +0 40000 0 01501    03533 PAX +0 73400 1 00000    03534 CLA +0 50000 1 00663    03535 SUB +0 40200 0 00076
 03536 TNZ -0 10000 0 03540    03537 TRA +0 02000 0 03521
       GTLP        EDCT = EDCT + 1                                                  265  LM00354
 03540 CLA +0 50000 0 00111    03541 ADD +0 40000 0 01501    03542 STO +0 60100 0 00111
                   WHENEVER EDLIN(EDCT) .E. BLANK, FUNCTION RETURN WORD             266  LM00355
 03543 LXA +0 53400 1 00111    03544 CLA +0 50000 1 00663    03545 SUB +0 40200 0 00076    03546 TNZ -0 10000 0 03551
 03547 CLA +0 50000 0 01477    03550 TRA +0 02000 0 03611
                   WHENEVER EDLIN(EDCT) .E. TAB .OR. EDCT .GE. COUNT                267  LM00356
 03551 CLA +0 50000 0 00111    03552 SUB +0 40200 0 00105    03553 TZE +0 10000 0 03561    03554 TPL +0 12000 0 03561
 03555 LXA +0 53400 1 00111    03556 CLA +0 50000 1 00663    03557 SUB +0 40200 0 01473    03560 TNZ -0 10000 0 03566
                     EDCT = EDCT - 1                                                268  LM00357
 03561 CLA +0 50000 0 00111    03562 SUB +0 40200 0 01501    03563 STO +0 60100 0 00111
                     FUNCTION RETURN WORD                                           269  LM00358
 03564 CLA +0 50000 0 01477    03565 TRA +0 02000 0 03611
                   END OF CONDITIONAL                                               270  LM00359
                   WORD = (WORD .LS. 6) .V. HOL.(EDLIN(EDCT))                       271  LM00360
 03566 CLA +0 50000 0 00111    03567 SUB +0 40200 0 03570    03570 TXH +3 00000 0 00663    03571 STA +0 62100 0 03573
 03572 TSX +0 07400 4 00014    03573 TXH +3 00000 0 00000    03574 STO +0 60100 0 03615    03575 CAL -0 50000 0 01504
 03576 STA +0 62100 0 03600    03577 CAL -0 50000 0 01477    03600 ALS +0 76700 0 00000    03601 ORA -0 50100 0 03615
 03602 SLW +0 60200 0 01477
                   TRANSFER TO GTLP                                                 272  LM00361
 03603 TRA +0 02000 0 00047
                 END OF FUNCTION                                                    273  LM00362
 03604 TSX +0 07400 4 00012    03605 TXH +3 00000 0 00000    03606 SXD -0 63400 1 03605    03607 SXA +0 63400 4 03611
 03610 TRA +0 02000 2 00001    03611 AXT +0 77400 4 00000    03612 LXA +0 53400 2 03605    03613 LXD -0 53400 1 03605
 03614 TRA +0 02000 4 00001
                 INTERNAL FUNCTION(STAR, EN)                                        274  LM00366
 03616 TRA +0 02000 0 03707
                 ENTRY TO PRNT.                                                     275  LM00367
 03617 TRA +0 02000 0 03622    00032 TTR +0 02100 0 03620    03620 SXA +0 63400 2 03666    03621 TSX +0 07400 2 03666
                   TYPOUT.(LINE, STAR-1)                                            276  LM00368
 03622 CLA +0 50000 0 00024    03623 SUB +0 40200 0 01501    03624 STO +0 60100 0 03706    03625 TSX +0 07400 4 00025
 03626 TXH +3 00000 0 01452    03627 TXH +3 00000 0 03706
                   TYPOUT.(REDS, 1)                                                 277  LM00369
 03630 TSX +0 07400 4 00025    03631 TXH +3 00000 0 01466    03632 TXH +3 00000 0 01501
                   TYPOUT.(LINE(STAR-1), EN-STAR+1)                                 278  LM00370
 03633 CLA +0 50000 0 00024    03634 SUB +0 40200 0 00024    03635 ADD +0 40000 0 01501    03636 STO +0 60100 0 03706
 03637 CLA +0 50000 0 00024    03640 SUB +0 40200 0 01501    03641 SUB +0 40200 0 03642    03642 TXH +3 00000 0 01452
 03643 STA +0 62100 0 03645    03644 TSX +0 07400 4 00025    03645 TXH +3 00000 0 00000    03646 TXH +3 00000 0 03706
                   TYPOUT.(BLACKS, 1)                                               279  LM00371
 03647 TSX +0 07400 4 00025    03650 TXH +3 00000 0 00075    03651 TXH +3 00000 0 01501
                   TYPOUT.(LINE(EN), LENGTH-EN)                                     280  LM00372
 03652 CLA +0 50000 0 00700    03653 SUB +0 40200 0 00024    03654 STO +0 60100 0 03706    03655 CLA +0 50000 0 00024
 03656 SUB +0 40200 0 03657    03657 TXH +3 00000 0 01452    03660 STA +0 62100 0 03662    03661 TSX +0 07400 4 00025
 03662 TXH +3 00000 0 00000    03663 TXH +3 00000 0 03706
                   FUNCTION RETURN                                                  281  LM00373
 03664 TRA +0 02000 0 03702
                 END OF FUNCTION                                                    282  LM00374
 03665 TSX +0 07400 4 00012    03666 TXH +3 00000 0 00000    03667 SXD -0 63400 1 03666    03670 SXA +0 63400 4 03702
 03671 CLA +0 50000 4 00001    03672 STA +0 62100 0 03622    03673 STA +0 62100 0 03634    03674 STA +0 62100 0 03637
 03675 CLA +0 50000 4 00002    03676 STA +0 62100 0 03633    03677 STA +0 62100 0 03653    03700 STA +0 62100 0 03655
 03701 TRA +0 02000 2 00001    03702 AXT +0 77400 4 00000    03703 LXA +0 53400 2 03666    03704 LXD -0 53400 1 03666
 03705 TRA +0 02000 4 00001
                 END OF PROGRAM                                                     283  LM00376
 03707 TSX +0 07400 4 00012
1     MAD PROGRAM LISTING ... ... ...                 FILE  EDLVAL   MAD            02/08/68    1747.7
-
                 ..  ROUTINE TO RETURN INITIAL VALUES TO EDITOR FOR                                    LM00001
                 ..  EDITING ASCII FILES.                                                              LM00002
                                                                                                       LM00003
                  EXTERNAL FUNCTION(BLANK, TAB, DEFALT, MCHNG, REDS, BLACKS)                      *001 LM00004
                  NORMAL MODE IS INTEGER                                                          *002 LM00005
                  ENTRY TO GETVAL.                                                                *003 LM00006
                    BLANK  = 060K                                                                 *004 LM00007
                    TAB    = 072K                                                                 *005 LM00008
                    DEFALT = $   MAD$                                                             *006 LM00009
                    MCHNG  = 055K                                                                 *007 LM00010
                    REDS   = 133K                                                                 *008 LM00011
                    BLACKS = 132K                                                                 *009 LM00012
                    FUNCTION RETURN                                                               *010 LM00013
                  END OF FUNCTION                                                                 *011 LM00014
1MAD PROGRAM,TYPE NOV 1963      (ALL NUMBERS ARE OCTAL)
0TOTAL LOCATIONS   00061 TRANSFER VECTOR LENGTH  00001 PROGRAM BEGINS    00012
0 PROGRAM IS AN EXTERNAL FUNCTION.   THE FOLLOWING ARE ENTRIES
      GETVAL 00013   0
0FUNCTION DICTIONARY
      EXIT   00000   1
0ABSOLUTE CONSTANTS
 00006 +000000000132     00007 +000000000133     00003 +000000000055     00011 -206060442124     00005 +000000000072
 00004 +000000000060     00002 +000000000001     00010 +233000000000
0PROGRAM
                 EXTERNAL FUNCTION(BLANK, TAB, DEFALT, MCHNG, REDS, BLACKS)         001  LM00004
                 NORMAL MODE IS INTEGER                                             002  LM00005
                 ENTRY TO GETVAL.                                                   003  LM00006
 00012 TRA +0 02000 0 00015    00013 SXA +0 63400 2 00033    00014 TSX +0 07400 2 00033
                   BLANK  = 060K                                                    004  LM00007
 00015 CLA +0 50000 0 00004    00016 STO +0 60100 0 00024
                   TAB    = 072K                                                    005  LM00008
 00017 CLA +0 50000 0 00005    00020 STO +0 60100 0 00024
                   DEFALT = $   MAD$                                                006  LM00009
 00021 CLA +0 50000 0 00011    00022 STO +0 60100 0 00024
                   MCHNG  = 055K                                                    007  LM00010
 00023 CLA +0 50000 0 00003    00024 STO +0 60100 0 00024
                   REDS   = 133K                                                    008  LM00011
 00025 CLA +0 50000 0 00007    00026 STO +0 60100 0 00024
                   BLACKS = 132K                                                    009  LM00012
 00027 CLA +0 50000 0 00006    00030 STO +0 60100 0 00024
                   FUNCTION RETURN                                                  010  LM00013
 00031 TRA +0 02000 0 00053
                 END OF FUNCTION                                                    011  LM00014
 00032 TSX +0 07400 4 00000    00033 TXH +3 00000 0 00000    00034 SXD -0 63400 1 00033    00035 SXA +0 63400 4 00053
 00036 CLA +0 50000 4 00001    00037 STA +0 62100 0 00016    00040 CLA +0 50000 4 00002    00041 STA +0 62100 0 00020
 00042 CLA +0 50000 4 00003    00043 STA +0 62100 0 00022    00044 CLA +0 50000 4 00004    00045 STA +0 62100 0 00024
 00046 CLA +0 50000 4 00005    00047 STA +0 62100 0 00026    00050 CLA +0 50000 4 00006    00051 STA +0 62100 0 00030
 00052 TRA +0 02000 2 00001    00053 AXT +0 77400 4 00000    00054 LXA +0 53400 2 00033    00055 LXD -0 53400 1 00033
 00056 TRA +0 02000 4 00001
1            SUBROUTINES TO CONTROL CHARACTER PACKING AND UNPACKING.                             PAGE 1

                              *      INPUT AND OUTPUT IS LINE-MARKED FORMAT.
                              *      J. H. SALTZER, JANUARY, 1965
                              *
                       00010         ENTRY   WRITE         WRITE ONE LINE OUT.
                       00071         ENTRY   READ          TO READ NEXT LINE.
                       00167         ENTRY   BOTTOM        TO RAPIDLY MOVE TO BOTTOM OF FILE.
                       00062         ENTRY   CLOSEW        CLOSE OUT WRITE FILE.
                              *
                                     EXTERN  WRFLX,WRWORD,RDWORD,SETBCD,SETFUL,FILE
                              *

        TRANSFER VECTOR
      00000  665126436760     WRFLX
      00001  665166465124     WRWORD
      00002  512466465124     RDWORD
      00003  622563222324     SETBCD
      00004  622563266443     SETFUL
      00005  263143256060     FILE

            LINKAGE DIRECTOR
      00006  000000000000
      00007  665131632560

                       00006   NBITS EQU     6             COULD BE 6, 9, 12, OR 18.
                       00006   NCHRS EQU     36/NBITS      NO. OF CHARACTERS PER WORD ON 7094.
                              *
                              *      WRITE.(LINE, LENGTH)
                              *
      00010  0634 00 4 00056   WRITE SXA     WX4,4         SAVE LINKAGE AND REGISTERS.
      00011  0634 00 2 00057         SXA     WX2,2         ..
      00012  0634 00 1 00060         SXA     WX1,1         ..
      00013 -0500 00 4 00001         CAL     1,4           GET LINE ADDRESS.
      00014  0621 00 0 00035         STA     INLP          SET UP LOCATION OF INPUT.
      00015  0500 60 4 00002         CLA*    2,4           GET CHARACTER COUNT.
      00016  0100 00 4 00003         TZE     3,4           DON'T WORK ON ZERO COUNT.
      00017  0402 00 0 00200         SUB     =1            DISCARD CARRIAGE RETURN AT END.
      00020  0100 00 4 00003         TZE     3,4           ZERO SIZE LINES NOT ALLOWED, EITHER.
      00021  0767 00 0 00022         ALS     18            SET UP CHARACTER COUNT.
      00022  0622 00 0 00041         STD     ENDTST        NCHARS = CPW*NWORDS + EXTRAS
      00023  0361 00 0 00066         ACL     CPWL1         CWP*NWORDS + EXTRAS + CPW - 1
      00024  0131 00 0 00000         XCA                   (CPW*NWORDS + EXTRAS + CWP - 1)/CPW =
      00025 -0754 00 0 00000         ZAC                        NWORDS + (EXTRAS - 1 + CPW)/CPW
      00026  0221 00 0 00065         DVP     CPW           SECOND TERM IS 1 IF EXTRAS .G. 0,
      00027  0131 00 0 00000         XCA                                  0 IF EXTRAS .E. 0
      00030  0621 00 0 00067         STA     CWD           INSERT IN CONTROL WORD.
      00031  0074 00 4 00001         TSX     WRWORD,4      INSERT THIS WORD IN OUTPUT BUFFER.
 TD   00032  3 00000 0 00067         TXH     CWD           ..
      00033  0774 00 2 00001         AXT     1,2
      00034  0774 00 1 00006   OUTLP AXT     36/NBITS,1    SET CHARACTER COUNTER.
      00035  0560 00 2 00000   INLP  LDQ     --,2
      00036 -0773 00 0 00036         RQL     36-NBITS      SHIFT CHARACTER TO POSITION.
      00037 -0763 00 0 00006         LGL     NBITS         AND INTO WORD.
      00040  1 00001 2 00041         TXI     *+1,2,1       COUNT INPUT CHARACTERS.
      00041  3 00000 2 00052  ENDTST TXH     DONE,2,--     CHECK FOR END OF INPUT.
      00042  2 00001 1 00035         TIX     INLP,1,1
      00043  0602 00 0 00070         SLW     WDOUT         SAVE COMPLETED WORD.
1            SUBROUTINES TO CONTROL CHARACTER PACKING AND UNPACKING.                             PAGE 2

      00044  0074 00 4 00001   OUT   TSX     WRWORD,4      STORE COMPLETED WORD.
 TD   00045  3 00000 0 00070         TXH     WDOUT         ..
      00046  0020 00 0 00034         TRA     OUTLP         GO BACK FOR MORE.
                              *
      00047  0560 00 0 00063   NLLP  LDQ     NULL          FILL IN WORD WITH NULLS.
      00050 -0773 00 0 00036         RQL     36-NBITS      MOVE NULL TO POSITION.
      00051 -0763 00 0 00006         LGL     NBITS         SHIFT IN A NULL.
      00052  2 00001 1 00047   DONE  TIX     NLLP,1,1      COUNT SPACES LEFT.
      00053  0602 00 0 00070         SLW     WDOUT         STORE THIS WORD.
      00054  0074 00 4 00001         TSX     WRWORD,4      ADD TO OUTPUT BUFFER.
 TD   00055  3 00000 0 00070         TXH     WDOUT         ..
      00056  0774 00 4 00000   WX4   AXT     --,4          RESTORE LINKAGE, AND IRS.
      00057  0774 00 2 00000   WX2   AXT     --,2          ..
      00060  0774 00 1 00000   WX1   AXT     --,1
      00061  0020 00 4 00003         TRA     3,4           ..
                              *
      00062  0020 00 0 00005  CLOSEW TRA     FILE          REFLECT CLOSE CALL TO BUFFER.
                              *
                              *
      00063 +000000000057      NULL  OCT     0057          NULL CHARACTER.
      00064 +000000000055     RETURN OCT     0055          CARRIAGE RETURN CHARACTER.
      00065  0 00006 0 00000   CPW           ,,NCHRS       NUMBER OF CHARACTERS PER WORD.
      00066  0 00005 0 00000   CPWL1         ,,NCHRS-1     CHARACTERS PER WORD LESS ONE.
                              *
      00067 -377777000000      CWD   OCT     777777000000
      00070  0 00000 0 00000   WDOUT                       STORAGE FOR WORD BEING OUTPUT.
                              *
                              *      LENGTH = READ.(LINE, BUFSIZ, EOF)
                              *
      00071  0634 00 1 00137   READ  SXA     RX1,1         READ NEXT LINE.
      00072  0634 00 2 00136         SXA     RX2,2
      00073  0634 00 4 00134         SXA     RX4,4
      00074  0634 00 3 00135         SXA     RX3,3
      00075 -0500 00 4 00001         CAL     1,4           GET LOCATION OF BUFFER.
      00076  0621 00 0 00124         STA     RPUT
      00077 -0500 60 4 00002         CAL*    2,4           SET UP END TEST.
      00100  0402 00 0 00200         SUB     =1
      00101  0767 00 0 00022         ALS     18            ..
      00102  0622 00 0 00125         STD     BUFTST        ..
      00103  0074 00 4 00002   RDAGN TSX     RDWORD,4      GET CONTROL WORD.
      00104  0 00000 0 00141                 EOF           IN CASE WE ARE AT END OF FILE.
      00105 -0734 00 1 00000         PDX     0,1           PUT FLAG IN IR1.
      00106  0734 00 3 00000         PAX     0,3           PUT COUNT IN IR3.
      00107 -2 77776 1 00146         TNX     WOOPS,1,-2    CHECK FLAG.
      00110 -3 00000 3 00103         TXL     RDAGN,3,0     IGNORE ZERO-LENGTH LINE.
      00111  0774 00 2 00000   RDON  AXT     0,2           SET OUTPUT COUNTER.
      00112  0074 00 4 00002  ROUTLP TSX     RDWORD,4      READ A WORD.
      00113  0 00000 0 00141                 EOF           ..
      00114  0774 00 1 00006         AXT     36/NBITS,1    SET CHARACTER COUNTER.
      00115  0131 00 0 00000         XCA                   WORD TO MQ.
      00116 -0754 00 0 00000   RINLP ZAC                   CLEAR AC.
      00117 -0763 00 0 00006         LGL     NBITS         GET NEXT CHARACTER.
      00120 -0340 00 0 00063         LAS     NULL          IS THIS A NULL CHARACTER.
      00121  0020 00 0 00123         TRA     *+2           NO.
      00122  0020 00 0 00126         TRA     RCH           YES, SKIP IT.
      00123  1 00001 2 00124         TXI     *+1,2,1       COUNT STORAGE SPACES.
1            SUBROUTINES TO CONTROL CHARACTER PACKING AND UNPACKING.                             PAGE 3

      00124  0602 00 2 00000   RPUT  SLW     --,2          STORE CHARACTER IN LINE.
      00125  3 00000 2 00133  BUFTST TXH     PXA,2,--      TEST FOR FULL BUFFER.
      00126  2 00001 1 00116   RCH   TIX     RINLP,1,1     INDEX, AND COUNT CHARACTERS.
      00127  2 00001 3 00112         TIX     ROUTLP,3,1    INDEX, AND COUNT WORDS.
      00130 -0500 00 0 00064         CAL     RETURN        PUT RETURN AT END OF LINE.
      00131  1 00001 2 00132         TXI     *+1,2,1       INCLUDE IN COUNT.
      00132  0522 00 0 00124         XEC     RPUT          INSTALL IT.
      00133  0754 00 2 00000   PXA   PXA     0,2           GET WORD COUNT.
      00134  0774 00 4 00000   RX4   AXT     --,4
      00135  0774 00 3 00000   RX3   AXT     --,3
      00136  0774 00 2 00000   RX2   AXT     --,2
      00137  0774 00 1 00000   RX1   AXT     --,1
      00140  0020 00 4 00004         TRA     4,4
                              *
      00141  0534 00 4 00134   EOF   LXA     RX4,4         END OF FILE REACHED, TAKE ERROR
      00142  0534 00 3 00135         LXA     RX3,3         RETURN.
      00143  0534 00 2 00136         LXA     RX2,2
      00144  0534 00 1 00137         LXA     RX1,1
      00145  0020 60 4 00003         TRA*    3,4
                              *
                              *
      00146  0074 00 4 00003   WOOPS TSX     SETBCD,4      FILE IS NOT LINE-MARKED PROPERLY, COMPLAIN.
      00147  0074 00 4 00000         TSX     WRFLX,4
      00150  0 00006 0 00161                 MESS1,,6
      00151  0074 00 4 00004         TSX     SETFUL,4      RESTORE INDICATOR.
      00152  0074 00 4 00002   LP    TSX     RDWORD,4      SEARCH FOR NEXT LINE MARK.
      00153  0 00000 0 00141                 EOF
      00154 -0734 00 1 00000         PDX     0,1           CHECK FOR LINE MARK IN THIS WORD.
      00155 -2 77776 1 00152         TNX     LP,1,-2       ..
      00156  0734 00 3 00000         PAX     0,3           LINE MARK OK, CHECK COUNT.
      00157 -3 00000 1 00152         TXL     LP,1,0        ..
      00160  0020 00 0 00111         TRA     RDON          COUNT NON-ZERO, READ ON.
                              *
      00161  314547646360      MESS1 BCI     6,INPUT FILE HAS IMPROPER FORMAT.
      00162  263143256030
      00163  216260314447
      00164  514647255160
      00165  264651442163
      00166  336060606060
                              *
                              *      ROUTINE TO SWING TO BOTTOM OF FILE.
                              *
      00167  0634 00 4 00176  BOTTOM SXA     EOFB,4        SAVE LINKAGE.
      00170  0074 00 4 00002   LOOP  TSX     RDWORD,4      GET NEXT INPUT WORD.
      00171  0 00000 0 00176                 EOFB          EXIT ON END OF FILE.
      00172  0601 00 0 00070         STO     WDOUT         SAVE THIS WORD.
      00173  0074 00 4 00001         TSX     WRWORD,4      WRITE OUT THIS WORD.
 TD   00174  3 00000 0 00070         TXH     WDOUT         ..
      00175  0020 00 0 00170         TRA     LOOP          REPEAT.
                              *
      00176  0774 00 4 00000  EOFB   AXT     --,4          RESTORE LINKAGE.
      00177  0020 00 4 00001         TRA     1,4           RETURN.
                              *
                                     END
1            SUBROUTINES TO CONTROL CHARACTER PACKING AND UNPACKING.                             PAGE 4

        LITERALS
      00200  000000000001
1            SUBROUTINES TO CONTROL CHARACTER PACKING AND UNPACKING.                             PAGE 1
                        POST PROCESSOR ASSEMBLY DATA

        201 IS THE FIRST LOCATION NOT USED BY THIS PROGRAM

0REFERENCES TO DEFINED SYMBOLS
        152     LP   155,  157
         65    CPW    26
         67    CWD    30,   32
        141    EOF   104,  113,  153
         44    OUT
        133    PXA   125
        126    RCH   122
        137    RX1    71,  144
        136    RX2    72,  143
        135    RX3    74,  142
        134    RX4    73,  141
         60    WX1    12
         57    WX2    11
         56    WX4    10
         52   DONE    41
        176   EOFB   167,  171
          5   FILE    62
         35   INLP    14,   42
        170   LOOP   175
         47   NLLP    52
         63   NULL    47,  120
        111   RDON   160
         71   READ     0
        124   RPUT    76,  132
         66  CPWL1    23
        161  MESS1   150
          6  NBITS    10,   34,   36,   37,   50,   51,  114,  117
          6  NCHRS    10,   65,   66
         34  OUTLP    46
        103  RDAGN   110
        116  RINLP   126
         70  WDOUT    43,   45,   53,   55,  172,  174
        146  WOOPS   107
          0  WRFLX   147
         10  WRITE     0
        167 BOTTOM     0
        125 BUFTST   102
         62 CLOSEW     0
         41 ENDTST    22
          2 RDWORD   103,  112,  152,  170
         64 RETURN   130
        112 ROUTLP   127
          3 SETBCD   146
          4 SETFUL   151
          1 WRWORD    31,   44,   54,  173

0 NO ERROR IN ABOVE ASSEMBLY.
1            BUFFER CONTROL ROUTINE FOR DISK INPUT AND OUTPUT.                                   PAGE 1

                              *      NOTE, INDEX REGISTERS SIX AND SEVEN MUST BE PRESERVED
                              *      BY THE CALLING PROGRAM.
                              *      THIS ROUTINE MAKES TYPEWRITER COMMENTS, BUT DOES NOT
                              *      AFFECT THE BCD-FULL MODE SWITCH.
                              *
                              *           J. H. SALTZER, JANUARY, 1965.
                              *
                       00015         ENTRY   ASSIGN        TO ASSIGN A NAME TO THE WRITE FILE.
                       00057         ENTRY   WRWORD        TO ADD A WORD TO THE FILE.
                       00100         ENTRY   FILE          TO CLOSE THE FILE.
                              *
                       00160         ENTRY   SEEK          TO OPEN A FILE FOR READING.
                       00242         ENTRY   RDWORD        TO GET A WORD FROM FILE.
                       00275         ENTRY   ENDRD         TO CLOSE THE FILE.
                              *
                                     EXTERN  GETBUF,SETBCD,SETFUL,WRFLX,WRFLXA
                                     EXTERN  OPEN,WRWAIT,RDWAIT,CLOSE,FSTATE,BUFFER
                              *
                              *      ASSIGN.($NAME1$,$NAME2$)
                              *

        TRANSFER VECTOR
      00000  272563226426     GETBUF
      00001  622563222324     SETBCD
      00002  622563266443     SETFUL
      00003  665126436760     WRFLX
      00004  665126436721     WRFLXA
      00005  464725456060     OPEN
      00006  665166213163     WRWAIT
      00007  512466213163     RDWAIT
      00010  234346622560     CLOSE
      00011  266263216325     FSTATE
      00012  226426262551     BUFFER

            LINKAGE DIRECTOR
      00013  000000000000
      00014  216262312745

      00015 -0500 60 4 00001  ASSIGN CAL*    1,4           OPEN FILE, GET FILE NAME.
      00016  0602 00 0 00304         SLW     OUTNAM        ..
      00017 -0500 60 4 00002         CAL*    2,4           ..
      00020  0602 00 0 00305         SLW     OUTNAM+1      ..
      00021  0634 00 4 00041         SXA     OPX4,4        SAVE LINKAGE.
      00022  0020 00 0 00023   OSW   TRA     *+1           ENTER ONE-TIME SECTION TO GET BUFFERS.
                              *                                                    *******************
      00023 -0500 00 0 00315         CAL     WBFSZ         GET AN OUTPUT BUFFER FROM SUPERVISOR.
      00024  0074 00 4 00000         TSX     GETBUF,4      ..
      00025  0621 00 0 00071         STA     WCALL         SAVE LOCATION OF BUFFER.
      00026  0621 00 0 00113         STA     CLCALL        TO CLOSE OUT FILE.
      00027  0361 00 0 00315         ACL     WBFSZ         ADD LENGTH, TO FORM END ADDRESS.
      00030  0621 00 0 00060         STA     WRNM          INSERT IN INSERTER.
      00031 -0500 00 0 00313         CAL     TRKSZ         GET A DISK TRACK BUFFER.
      00032  0074 00 4 00000         TSX     GETBUF,4      ..
      00033  0621 00 0 00055         STA     BFCALL        SET UP BUFFER CALLER.
      00034 -0625 00 0 00022         STL     OSW           RESET ONE-TIME SWITCH.
                              *                                                    *******************
1            BUFFER CONTROL ROUTINE FOR DISK INPUT AND OUTPUT.                                   PAGE 2

      00035  0774 00 4 00040         AXT     OPOK,4        SET QUOTA EXHAUSTED ERROR RETURN.
      00036  0634 00 4 00143         SXA     WRTN,4        ..
      00037  0074 00 3 00043         TSX     OPN,3         OPEN THE FILE.
      00040  0774 00 7 00330  OPOK   AXT     WBFLTH,7      SET UP STORAGE COUNT.
      00041  0774 00 4 00000   OPX4  AXT     --,4          RESTORE LINKAGE.
      00042  0020 00 4 00003         TRA     3,4           RETURN.
                              *
      00043  0074 00 4 00005  OPN    TSX     OPEN,4        OPEN FILE.
 TD   00044  3 00000 0 00324         TXH     =HW           FOR WRITING.
 TD   00045  3 00000 0 00304         TXH     OUTNAM        ..
 TD   00046  3 00000 0 00305         TXH     OUTNAM+1      ..
 TD   00047  3 00000 0 00156         TXH     MODE          MAKE IT PERMANENT IF POSSIBLE.
 TD   00050  3 00000 0 00320         TXH     =2            PUT IT ON THE DISK.
 TD   00051  3 00000 0 00127  OPERR  TXH     OEXH          IN CASE NO MORE QUOTA AVAILABLE.
      00052  0074 00 4 00012         TSX     BUFFER,4      ASSIGN A BUFFER FOR THE FILE.
 TD   00053  3 00000 0 00304         TXH     OUTNAM        ..
 TD   00054  3 00000 0 00305         TXH     OUTNAM+1      ..
      00055  3 00660 0 00000  BFCALL TXH     --,,TRKLTH    ..
      00056  0020 00 3 00001         TRA     1,3           RETURN TO CALLER.
                              *
                              *
                              *      ENTRY TO ADD A WORD TO FILE.
                              *              WRWORD.(WORD)
                              *
      00057 -0500 60 4 00001  WRWORD CAL*    1,4           GET WORD TO BE ADDED.
      00060  0602 00 7 00000   WRNM  SLW     --,7          ADD WORD TO OUTPUT BUFFER.
      00061  2 00001 7 00077         TIX     RETURN,7,1    COUNT AND CHECK FOR FULL BUFFER.
      00062  0634 00 4 00076   FULL  SXA     FULX4,4       BUFFER FULL, WRITE IT OUT.
      00063  0774 00 4 00065         AXT     WRAGN,4       SET UP EXHAUSTED RETURN ADDRESS.
      00064  0634 00 4 00143         SXA     WRTN,4        ..
      00065  0074 00 4 00006  WRAGN  TSX     WRWAIT,4      GIVE BUFFER TO SUPERVISOR.
 TD   00066  3 00000 0 00304         TXH     OUTNAM        ..
 TD   00067  3 00000 0 00305         TXH     OUTNAM+1      ..
 TD   00070  3 00000 0 00316         TXH     =0            ..
      00071  3 00330 0 00000  WCALL  TXH     --,,WBFLTH    ..
 TD   00072  3 00000 0 00321         TXH     =-0           IGNORE POSSIBLE EOF.
 TD   00073  3 00000 0 00321         TXH     =-0           ..
 TD   00074  3 00000 0 00124  WRERR  TXH     WEXH          ALLOW ERROR RETURN.
      00075  0774 00 7 00330         AXT     WBFLTH,7      RESET BUFFER POINTER.
      00076  0774 00 4 00000   FULX4 AXT     --,4          RESTORE LINKAGE.
      00077  0020 00 4 00002  RETURN TRA     2,4           RETURN TO CALLER.
                              *
                              *      FILE.     NO ARGUMENTS.
                              *
      00100  0634 00 4 00122  FILE   SXA     CL4,4         ENTRY TO CLOSE OUT FILE.
      00101 -0634 00 7 00103         SXD     *+2,7         FORM COUNT OF WORDS SINCE
      00102  0774 00 7 00330         AXT     WBFLTH,7      LAST BUFFER WAS WRITTEN.
      00103 -2 00000 7 00117         TNX     NOWR,7,--     IF ZERO, SKIP FINAL WRITE CALL.
      00104 -0634 00 7 00113         SXD     CLCALL,7      NON-ZERO, SET UP WRITE CALL.
      00105  0774 00 4 00107         AXT     FWR,4         SET UP RETURN ADDRESS FOR EXHAUSTED CASE.
      00106  0634 00 4 00143         SXA     WRTN,4        ..
      00107  0074 00 4 00006  FWR    TSX     WRWAIT,4      WRITE OUT PARTIAL BUFFER.
 TD   00110  3 00000 0 00304         TXH     OUTNAM        ..
 TD   00111  3 00000 0 00305         TXH     OUTNAM+1      ..
 TD   00112  3 00000 0 00316         TXH     =0            ..
      00113  3 00000 0 00000  CLCALL TXH     --,,--        ..
1            BUFFER CONTROL ROUTINE FOR DISK INPUT AND OUTPUT.                                   PAGE 3

 TD   00114  3 00000 0 00321         TXH     =-0           IGNORE EOF RETURN.
 TD   00115  3 00000 0 00321         TXH     =-0           ..
 TD   00116  3 00000 0 00124         TXH     WEXH          ALLOW ERROR RETURN.
      00117  0074 00 4 00010  NOWR   TSX     CLOSE,4       CLOSE OUT THE FILE.
 TD   00120  3 00000 0 00304         TXH     OUTNAM        ..
 TD   00121  3 00000 0 00305         TXH     OUTNAM+1      ..
      00122  0774 00 4 00000   CL4   AXT     --,4          RESTORE LINKAGE.
      00123  0020 00 4 00001         TRA     1,4           ..
                              *
      00124  0074 00 4 00010  WEXH   TSX     CLOSE,4       TRACK QUOTA EXHAUSTED, CLOSE FILE.
 TD   00125  3 00000 0 00304         TXH     OUTNAM        ..
 TD   00126  3 00000 0 00305         TXH     OUTNAM+1      ..
      00127  0074 00 4 00001  OEXH   TSX     SETBCD,4      ENTRY FROM OPEN ERROR, COMMENT.
      00130  0601 00 0 00157         STO     MODSW         SAVE OLD CHARACTER MODE SETTING.
      00131  0074 00 4 00003         TSX     WRFLX,4       ..
      00132  0 00011 0 00144                 ERMESS,,9
      00133  0520 00 0 00157         ZET     MODSW         SHOULD 12-BIT INDICATOR BE RESET.
      00134  0074 00 4 00002         TSX     SETFUL,4      YES, RESET INDICATOR.
      00135 -0500 00 0 00317         CAL     =1            SWITCH TO TEMPORARY MODE.
      00136  0601 00 0 00156         STO     MODE          ..
      00137 -0500 00 0 00155         CAL     NOP           BLOCK FUTURE ERROR RETURN.
      00140  0602 00 0 00051         SLW     OPERR         ..
      00141  0602 00 0 00074         SLW     WRERR
      00142  0074 00 3 00043         TSX     OPN,3         NOW, OPEN IT AGAIN.
      00143  0020 00 0 00000  WRTN   TRA     --            ALL FIXED, RETURN TO MAIN STREAM.
                              *
      00144  635121234260     ERMESS BCI     9,TRACK QUOTA EXHAUSTED, TEMPORARY MODE WILL BE USED.
      00145  506446632160
      00146  256730216462
      00147  632524736063
      00150  254447465121
      00151  517060444624
      00152  256066314343
      00153  602225606462
      00154  252433606060
      00155  0761 00 0 00000   NOP   NOP                   INSTRUCTION TO BLOCK ERROR RETURN.
      00156  0 00000 0 00000  MODE           0             START IN PERMANENT MODE.
      00157  0 00000 0 00000  MODSW                        TEMP STORAGE FOR 6-BIT,12-BIT INDICATOR.
                              *
                              * * * * * * * * * * * * * * * * * * * * * * * * * * * * * * * * * *
                              *      SEEK.($NAME1$, $NAME2$, ERRET)
                              *      ERROR RETURN MEANS FILE NOT FOUND.
                              *
      00160 -0500 60 4 00001   SEEK  CAL*    1,4           GET FILE NAME.
      00161  0602 00 0 00306         SLW     INNAM         ..
      00162 -0500 60 4 00002         CAL*    2,4           ..
      00163  0602 00 0 00307         SLW     INNAM+1       ..
      00164  0634 00 4 00222         SXA     SKX4,4        SAVE LINKAGE.
      00165  0020 00 0 00166   SKSW  TRA     *+1           ENTER ONE-TIME SECTION TO GET BUFFERS.
                              *                                                  *********************
      00166 -0500 00 0 00314         CAL     RBFSZ         GET A BUFFER FROM SUPERVISOR.
      00167  0074 00 4 00000         TSX     GETBUF,4      ..
      00170  0621 00 0 00257         STA     ECALL         STORE BUFFER LOCATION.
      00171  0621 00 0 00217         STA     STCALL        ..
      00172 -0625 00 0 00165         STL     SKSW          RESET ONE-TIME SWITCH.
                              *                                                  *********************
1            BUFFER CONTROL ROUTINE FOR DISK INPUT AND OUTPUT.                                   PAGE 4

      00173 -0500 00 0 00217         CAL     STCALL        SET UP PICKUP INSTRUCTION FOR INDEXING.
      00174  0361 00 0 00314         ACL     RBFSZ         ..
      00175  0621 00 0 00242         STA     RDWORD        ..
      00176  0074 00 4 00011         TSX     FSTATE,4      MAKE SURE FILE IS THERE.
 TD   00177  3 00000 0 00306         TXH     INNAM         ..
 TD   00200  3 00000 0 00307         TXH     INNAM+1       ..
 TD   00201  3 00000 0 00321         TXH     =-0           DON'T WANT DATA.
 TD   00202  3 00000 0 00224         TXH     NOTFN         ERROR RETURN MEANS FILE NOT THERE.
      00203  0074 00 4 00005         TSX     OPEN,4        OPEN THE FILE FOR READING.
 TD   00204  3 00000 0 00322         TXH     =HR           ..
 TD   00205  3 00000 0 00306         TXH     INNAM         ..
 TD   00206  3 00000 0 00307         TXH     INNAM+1       ..
      00207  0774 00 6 00660         AXT     RBFLTH,6      SET UP BUFFER COUNTER.
      00210  0774 00 4 00222         AXT     SKX4,4        SET END OF FILE RETURN.
      00211  0634 00 4 00274         SXA     EOFRTN,4      ..
      00212  0600 00 0 00312         STZ     EOFR          CLEAR END OF FILE SWITCH.
      00213  0074 00 4 00007         TSX     RDWAIT,4      GET INITIAL BUFFER LOAD.
 TD   00214  3 00000 0 00306         TXH     INNAM         ..
 TD   00215  3 00000 0 00307         TXH     INNAM+1       ..
 TD   00216  3 00000 0 00316         TXH     =0            ..
      00217  3 00660 0 00000  STCALL TXH     --,,RBFLTH    ..
 TD   00220  3 00000 0 00265         TXH     EOF           END OF FILE RETURN.
 TD   00221  3 00000 0 00311         TXH     EOFCT         ..
      00222  0774 00 4 00000   SKX4  AXT     --,4          RESTORE LINKAGE.
      00223  0020 00 4 00004         TRA     4,4           RETURN TO CALLER.
                              *
      00224  0074 00 4 00001  NOTFN  TSX     SETBCD,4      FILE NOT FOUND, COMMENT.
      00225  0601 00 0 00157         STO     MODSW         SAVE OLD CHARACTER MODE SETTING.
      00226  0074 00 4 00004         TSX     WRFLXA,4      START UP COMMENT.
      00227  0 00001 0 00323                 =H FILE ,,1   ..
      00230  0074 00 4 00004         TSX     WRFLXA,4      INSERT FILE NAME.
      00231  0 00002 0 00306                 INNAM,,2      ..
      00232  0074 00 4 00003         TSX     WRFLX,4       END OF COMMENT.
      00233  0 00002 0 00240                 ECM,,2        ..
      00234  0520 00 0 00157         ZET     MODSW         SHOULD 12-BIT INDICATOR BE RESET.
      00235  0074 00 4 00002         TSX     SETFUL,4      YES, RESET MODE.
      00236  0534 00 4 00222         LXA     SKX4,4        GIVE ERROR RETURN.
      00237  0020 60 4 00003         TRA*    3,4           ..
                              *
      00240  604546636026     ECM    BCI     2, NOT FOUND.
      00241  466445243360
                              *
                              *      ENTRY TO OBTAIN WORD FROM FILE.
                              *              WORD = RDWORD.(EOF)
                              *
      00242  0500 00 6 00000  RDWORD CLA     --,6          GET WORD FROM INPUT BUFFER.
      00243  2 00001 6 00264         TIX     GOBACK,6,1    INDEX, AND CHECK FOR EMPTY BUFFER.
      00244  0520 00 0 00312         ZET     EOFR          BUFFER EMPTY, HAS END OF FILE OCCURRED.
      00245  0020 60 4 00001         TRA*    1,4           YES, GIVE EOF RETURN.
      00246  0601 00 0 00310         STO     RTEMP         NO, SAVE WORD AND GET SOME MORE DATA.
      00247  0634 00 4 00263         SXA     EMPX4,4       SAVE LINKAGE, ALSO.
      00250  0774 00 6 00660         AXT     RBFLTH,6      RESET BUFFER POINTER.
      00251  0774 00 4 00262         AXT     EMPGT,4       SET END OF FILE RETURN.
      00252  0634 00 4 00274         SXA     EOFRTN,4      ..
      00253  0074 00 4 00007         TSX     RDWAIT,4      GET ANOTHER BUFFER LOAD OF DATA.
 TD   00254  3 00000 0 00306         TXH     INNAM         ..
1            BUFFER CONTROL ROUTINE FOR DISK INPUT AND OUTPUT.                                   PAGE 5

 TD   00255  3 00000 0 00307         TXH     INNAM+1       ..
 TD   00256  3 00000 0 00316         TXH     =0            ..
      00257  3 00660 0 00000  ECALL  TXH     --,,RBFLTH    ..
 TD   00260  3 00000 0 00265         TXH     EOF           ..
 TD   00261  3 00000 0 00311         TXH     EOFCT         ..
      00262  0500 00 0 00310   EMPGT CLA     RTEMP         RESTORE WORD FOR THIS CALL.
      00263  0774 00 4 00000   EMPX4 AXT     --,4          RESTORE LINKAGE.
      00264  0020 00 4 00002  GOBACK TRA     2,4           RETURN TO CALLER.
                              *
      00265 -0625 00 0 00312  EOF    STL     EOFR          END OF FILE REACHED, SET SWITCH.
      00266 -0500 00 0 00311         CAL     EOFCT         GET COUNT OF WORDS LEFT.
      00267  0361 00 0 00317         ACL     =1            BUGGER WORD COUNT.
      00270  0734 00 6 00000         PAX     0,6           SET WORD COUNTER.
      00271  0361 00 0 00257         ACL     ECALL         ADJUST PICKUP INSTRUCTION.
      00272  0621 00 0 00242         STA     RDWORD        ..
      00273  0074 00 4 00275         TSX     ENDRD,4       TURN OFF FILE.
      00274  0020 00 0 00000  EOFRTN TRA     --            RETURN TO END OF RDFILE CALLING SEQUENCE.
                              *
                              *      ENTRY TO CLOSE INPUT FILE.
                              *      ENDRD.
                              *
      00275  0634 00 4 00302  ENDRD  SXA     ENDX4,4       SAVE LINKAGE.
      00276  0074 00 4 00010         TSX     CLOSE,4       CLOSE FILE.
 TD   00277  3 00000 0 00306         TXH     INNAM         ..
 TD   00300  3 00000 0 00307         TXH     INNAM+1       ..
 TD   00301  3 00000 0 00302         TXH     *+1           IGNORE ANY ERROR RETURN.
      00302  0774 00 4 00000  ENDX4  AXT     --,4          RESTORE LINKAGE.
      00303  0020 00 4 00001         TRA     1,4           ..
                              *
      00304  545454545454     OUTNAM BCI     2,************  NAME OF OUTPUT FILE.
      00305  545454545454
      00306  545454545454      INNAM BCI     2,************  NAME OF INPUT FILE.
      00307  545454545454
      00310  0 00000 0 00000   RTEMP                       STORAGE FOR WORD.
      00311  0 00000 0 00000  EOFCT                        STORAGE FOR END OF FILE COUNTER.
      00312  0 00000 0 00312   EOFR          *             SWITCH FOR END OF FILE MET.
                              *
                       00660  TRKLTH EQU     432           DISK TRACK LENGTH.
      00313  0 00000 0 00660   TRKSZ         TRKLTH        WORD CONTAINING TRACK LENGTH.
                       00660  RBFLTH EQU     TRKLTH        READ BUFFER LENGTH.
                       00330  WBFLTH EQU     TRKLTH/2      WRITE BUFFER LENGTH.
      00314  0 00000 0 00660  RBFSZ          RBFLTH        WORD CONTAINING READ BUFFER SIZE.
      00315  0 00000 0 00330  WBFSZ          WBFLTH        WORD CONTAINING WRITE BUFFER SIZE.
                              *
                                     END

        LITERALS
      00316  000000000000
      00317  000000000001
      00320  000000000002
      00321  400000000000
      00322  516060606060
      00323  602631432560
      00324  666060606060
1            BUFFER CONTROL ROUTINE FOR DISK INPUT AND OUTPUT.                                   PAGE 1
                        POST PROCESSOR ASSEMBLY DATA

        325 IS THE FIRST LOCATION NOT USED BY THIS PROGRAM

0REFERENCES TO DEFINED SYMBOLS
        122    CL4   100
        240    ECM   233
        265    EOF   220,  260
        107    FWR   105
        155    NOP   137
         43    OPN    37,  142
         22    OSW    34
        312   EOFR   212,  244,  265
        100   FILE     0
         62   FULL
        156   MODE    47,  136
        117   NOWR   103
        127   OEXH    51
          5   OPEN    43,  203
         40   OPOK    35
         41   OPX4    21
        160   SEEK     0
        165   SKSW   172
        222   SKX4   164,  210,  236
        124   WEXH    74,  116
         60   WRNM    30
        143   WRTN    36,   64,  106
         10  CLOSE   117,  124,  276
        257  ECALL   170,  271
        262  EMPGT   251
        263  EMPX4   247
        275  ENDRD     0,  273
        302  ENDX4   275
        311  EOFCT   221,  261,  266
         76  FULX4    62
        306  INNAM   161,  163,  177,  200,  205,  206,  214,  215,  231,  254,  255,  277,  300
        157  MODSW   130,  133,  225,  234
        224  NOTFN   202
         51  OPERR   140
        314  RBFSZ   166,  174
        310  RTEMP   246,  262
        313  TRKSZ    31
        315  WBFSZ    23,   27
         71  WCALL    25
         65  WRAGN    63
         74  WRERR   141
          3  WRFLX   131,  232
         15 ASSIGN     0
         55 BFCALL    33
         12 BUFFER    52
        113 CLCALL    26,  104
        274 EOFRTN   211,  252
        144 ERMESS   132
         11 FSTATE   176
          0 GETBUF    24,   32,  167
        264 GOBACK   243
1            BUFFER CONTROL ROUTINE FOR DISK INPUT AND OUTPUT.                                   PAGE 2
                        POST PROCESSOR ASSEMBLY DATA

        304 OUTNAM    16,   20,   45,   46,   53,   54,   66,   67,  110,  111,  120,  121,  125,  126
        660 RBFLTH   207,  217,  250,  257,  314
          7 RDWAIT   213,  253
        242 RDWORD     0,  175,  272
         77 RETURN    61
          1 SETBCD   127,  224
          2 SETFUL   134,  235
        217 STCALL   171,  173
        660 TRKLTH    55,  313,  314
        330 WBFLTH    40,   71,   75,  102,  314,  315
          4 WRFLXA   226,  230
          6 WRWAIT    65,  107
         57 WRWORD     0

0 NO ERROR IN ABOVE ASSEMBLY.
1            ROUTINE TO MAKE SURE FILE NAME IS USEABLE.                                          PAGE 1

                              *      USAGE  CLRNAM.(NAME1, NAME2, CANT, SW)
                              *        FILE NAME1 NAME2 WILL BE CHECKED FOR AND
                              *        DELETED IF POSSIBLE.  IF SW
                              *        IS TRUE, USER WILL BE ASKED BEFORE DELETING
                              *        THE OLD FILE.
                              *
                       00012         ENTRY   CLRNAM        CLEAR FILE NAME.
                              *
                                     EXTERN  SETFUL,SETBCD,WRFLX,WRFLXA,RDFLXA
                                     EXTERN  FSTATE,CHFILE,DELFIL
                              *

        TRANSFER VECTOR
      00000  622563266443     SETFUL
      00001  622563222324     SETBCD
      00002  665126436760     WRFLX
      00003  665126436721     WRFLXA
      00004  512426436721     RDFLXA
      00005  266263216325     FSTATE
      00006  233026314325     CHFILE
      00007  242543263143     DELFIL

            LINKAGE DIRECTOR
      00010  000000000000
      00011  234351452144

      00012 -0500 60 4 00001  CLRNAM CAL*    1,4           GET FILE NAME.
      00013  0602 00 0 00121         SLW     N1            ..
      00014 -0500 60 4 00002         CAL*    2,4           SECONDARY NAME.
      00015  0602 00 0 00122         SLW     N2            ..
      00016  0634 00 4 00147         SXA     SV4,4         SAVE LINKAGE.
      00017  0074 00 4 00005         TSX     FSTATE,4      CHECK STATE OF FILE.
 TD   00020  3 00000 0 00121         TXH     N1            NAME
 TD   00021  3 00000 0 00122         TXH     N2            NAME
      00022  3 00010 0 00156         TXH     DATA,,8       FILE STATE
 TD   00023  3 00000 0 00112         TXH     FSTERR        IN CASE OF ERROR
 TD   00024  3 00000 0 00155         TXH     ERNO          GATHER ERROR NUMBER.
      00025  0441 00 0 00157         LDI     MODE          CHECK MODE OF FILE.
      00026 -0054 00  400000         LFT     400000        IS MODE NEGATIVE.
      00027  0020 00 0 00100         TRA     LINKED        YES, FILE IS LINKED.
      00030  0600 00 0 00154         STZ     PROTEC        ASSUME NOT PROTECTED.
      00031  0056 00  000100         RNT     100           CHECK PROTECTED BIT.
      00032  0020 00 0 00035         TRA     CKASK         NOT PROTECTED, SHOULD WE ASK ANYWAY.
      00033 -0625 00 0 00154         STL     PROTEC        PROTECTED, SET SWITCH FOR LONG COMMENT.
      00034  0020 00 0 00040         TRA     ASK           GO ASK PERMISSION TO DELETE FILE.
      00035  0534 00 4 00147  CKASK  LXA     SV4,4         GET LINKAGE TO ASK SWITCH.
      00036 -0520 60 4 00004         NZT*    4,4           SHOULD WE ASK PERMISSION ANYWAY.
      00037  0020 00 0 00065         TRA     DELETE        NO, GO DELETE FILE.
      00040  0074 00 4 00000  ASK    TSX     SETFUL,4      SET CHARACTER MODE SWITCH.
      00041  0074 00 4 00003         TSX     WRFLXA,4      BEGIN THE COMMENT.
      00042  0 00003 0 00116                 MI,,3         ..
      00043  0074 00 4 00001         TSX     SETBCD,4      SWITCH TO BCD FOR FILE NAME.
      00044  0074 00 4 00003         TSX     WRFLXA,4      WRITE OUT FILE NAME.
      00045  0 00002 0 00121                 N1,,2
      00046  0074 00 4 00000         TSX     SETFUL,4      BACK TO FULL MODE.
      00047 -0520 00 0 00154         NZT     PROTEC        SHOULD WE CLAIM IT IS PROTECTED.
1            ROUTINE TO MAKE SURE FILE NAME IS USEABLE.                                          PAGE 2

      00050  0020 00 0 00053         TRA     SKPPCM        NO, SKIP THAT PART.
      00051  0074 00 4 00003         TSX     WRFLXA,4      YES, ANNOUNC PROTECTED PART.
      00052  0 00006 0 00123                 ISPTC,,6      ..
      00053  0074 00 4 00003  SKPPCM TSX     WRFLXA,4      NOW ASK FOR PERMISSION.
      00054  0 00012 0 00131                 DOYOU,,10     ..
      00055  0074 00 4 00001         TSX     SETBCD,4      SWITCH SO ERASE WORKS.
      00056  0074 00 4 00004         TSX     RDFLXA,4
      00057  0 00001 0 00150                 IN,,1         GET ONE WORD.
      00060  0074 00 4 00000         TSX     SETFUL,4      RESTORE MODE.
      00061 -0500 00 0 00150         CAL     IN            GET THAT WORD.
      00062  0771 00 0 00022         ARS     18            GET FIRST THREE CHARACTERS.
      00063  0322 00 0 00170         ERA     =H000YES      DID HE SAY YES.
      00064 -0100 00 0 00076         TNZ     ERTN          NO, GIVE ERROR RETURN.
      00065  0074 00 4 00006  DELETE TSX     CHFILE,4      GOODY, WE CAN DELETE IT.
 TD   00066  3 00000 0 00121         TXH     N1            MAKE SURE IT IS DELETEABLE.
 TD   00067  3 00000 0 00122         TXH     N2            ..
 TD   00070  3 00000 0 00166         TXH     =1            BY CHANGING ITS MODE TO TEMPORARY.
      00071  0074 00 4 00007         TSX     DELFIL,4      DELETE THE SILLY THING.
 TD   00072  3 00000 0 00121         TXH     N1            ..
 TD   00073  3 00000 0 00122         TXH     N2            ..
      00074  0534 00 4 00147  RTN    LXA     SV4,4         RESTORE THE LINKAGE.
      00075  0020 00 4 00005         TRA     5,4           RETURN TO CALLER.
                              *
      00076  0534 00 4 00147  ERTN   LXA     SV4,4         ERROR RETURN, FILE CANNOT BE DELETED.
      00077  0020 60 4 00003         TRA*    3,4           RETURN THROUGH ERROR RETURN.
                              *
      00100  0074 00 4 00000  LINKED TSX     SETFUL,4      FILE IS LINKED, COMMENT AND GIVE UP.
      00101  0074 00 4 00003         TSX     WRFLXA,4      START THE COMMENT.
      00102  0 00003 0 00116                 MI,,3         ..
      00103  0074 00 4 00001         TSX     SETBCD,4      SWITCH MODE FOR FILE NAME.
      00104  0074 00 4 00003         TSX     WRFLXA,4      TYPE FILE NAME.
      00105  0 00002 0 00121                 N1,,2         ..
      00106  0074 00 4 00000         TSX     SETFUL,4      SWITCH FOR REST OF COMMENT.
      00107  0074 00 4 00002         TSX     WRFLX,4       END THIS PART WITH A C.R.
      00110  0 00004 0 00143                 ISLNK,,4      ..
      00111  0020 00 0 00076         TRA     ERTN          NOW GIVE AN ERROR RETURN.
                              *
      00112  0500 00 0 00155  FSTERR CLA     ERNO          ERROR RETURN FROM FSTATE, FIND OUT WHY.
      00113  0402 00 0 00167         SUB     =3            RETURN 3 MEANS FILE NOT FOUND.
      00114 -0100 00 0 00100         TNZ     LINKED        WRONG ERROR RETURN, ASSUME LINKED.
      00115  0020 00 0 00074         TRA     RTN           FILE NOT FOUND, NAME IS OK.
                              *
                              *                            DATA, COMMENTS, ETC.
                              *
      00116  004601430124     MI     BCI     3,0O1L1D0 1F1I1L1E0
      00117  006001260131
      00120  014301250060
                              *
      00121  0 00000 0 00000  N1                           STORAGE FOR FILE NAME.
      00122  0 00000 0 00000  N2                           SECONDARY NAME.
                              *
      00123  006001310162     ISPTC  BCI     1,0 1I1S
      00124 +006001330057            OCT     006001330057  BLANK, RED SHIFT, NULL.
      00125  004700510046            BCI     3,0P0R0O0T0E0C0T0E0D
      00126  006300250023
      00127  006300250024
1            ROUTINE TO MAKE SURE FILE NAME IS USEABLE.                                          PAGE 3

      00130 +013200330060            OCT     013200330060  BLACK SHIFT, PERIOD, BLANK.
      00131  006000400040     DOYOU  BCI     9,0 0-0-0D1O0 1Y1O1U0 1W1I1S1H0 1T1O0 1D1E1L1E1T1E0 1I1T
      00132  002401460060
      00133  017001460164
      00134  006001660131
      00135  016201300060
      00136  016301460060
      00137  012401250143
      00140  012501630125
      00141  006001310163
      00142 +015600600060            OCT     015600600060  TERMINAL QUESTION MARK.
                              *
      00143  006001310162     ISLNK  BCI     4,0 1I1S0 1L1I1N1K1E1D0.
      00144  006001430131
      00145  014501420125
      00146  012400336060
                              *
      00147  0 00000 0 00000  SV4                          STORAGE FOR CALLING LINKAGE.
      00150                   IN     BSS     4             FOR INPUT WORD.
      00154  0 00000 0 00000  PROTEC                       SWITCH FOR PROTECTED FILE.
      00155  0 00000 0 00000  ERNO                         STORAGE FOR ERROR NUMBER.
      00156                   DATA   BSS     8             FOR STATE INFORMATION.
                       00161  DEVICE EQU     DATA+3
                       00157  MODE   EQU     DATA+1
                              *
                                     END

        LITERALS
      00166  000000000001
      00167  000000000003
      00170  000000702562
1            ROUTINE TO MAKE SURE FILE NAME IS USEABLE.                                          PAGE 1
                        POST PROCESSOR ASSEMBLY DATA

        171 IS THE FIRST LOCATION NOT USED BY THIS PROGRAM

0REFERENCES TO DEFINED SYMBOLS
        150     IN    57,   61
        116     MI    42,  102
        121     N1    13,   20,   45,   66,   72,  105
        122     N2    15,   21,   67,   73
         40    ASK    34
         74    RTN   115
        147    SV4    16,   35,   74,   76
        156   DATA    22,  166
        155   ERNO    24,  112
         76   ERTN    64,  111
        157   MODE    25,  166
         35  CKASK    32
        131  DOYOU    54
        143  ISLNK   110
        123  ISPTC    52
          2  WRFLX   107
          6 CHFILE    65
         12 CLRNAM     0
         65 DELETE    37
          7 DELFIL    71
        161 DEVICE   166
          5 FSTATE    17
        112 FSTERR    23
        100 LINKED    27,  114
        154 PROTEC    30,   33,   47
          4 RDFLXA    56
          1 SETBCD    43,   55,  103
          0 SETFUL    40,   46,   60,  100,  106
         53 SKPPCM    50
          3 WRFLXA    41,   44,   51,   53,  101,  104

0 NO ERROR IN ABOVE ASSEMBLY.
1            ROUTINE TO RENAME A FILE, FORCING PERMANENT MODE IS POSSIBLE.                       PAGE 1

                              *        J. H. SALTZER, MAY, 1965.
                              *
                       00004         ENTRY   RENAME        RENAME FILE.
                              *
                                     EXTERN CHFILE,WRFLX
                              *

        TRANSFER VECTOR
      00000  233026314325     CHFILE
      00001  665126436760     WRFLX

            LINKAGE DIRECTOR
      00002  000000000000
      00003  512545214425

      00004  0500 60 4 00001  RENAME CLA*    1,4           GET FILE NAMES.
      00005  0601 00 0 00071         STO     OLD1          ..
      00006  0500 60 4 00002         CLA*    2,4           ..
      00007  0601 00 0 00072         STO     OLD2          ..
      00010  0601 00 0 00074         STO     NEW2          ASSUME NO CHANGE IN SECONDARY NAMES.
      00011  0500 60 4 00003         CLA*    3,4           ..
      00012  0601 00 0 00073         STO     NEW1          ..
      00013  0560 00 4 00004         LDQ     4,4           CHECK FOR TXH
      00014  0500 00 0 00076         CLA     =O300000000000 ..
      00015  0040 00 0 00020         TLQ     SKPN2         NO TXH, SECONDARY NAME UNCHANGED.
      00016  0500 60 4 00004         CLA*    4,4           TXH, CHANGE SECONDARY NAME.
      00017  0601 00 0 00074         STO     NEW2          ..
      00020  0634 00 4 00036  SKPN2  SXA     RETURN,4      SAVE LINKAGE.
      00021  0074 00 4 00000         TSX     CHFILE,4      CHANGE NAME WITHOUT CHANGING MODE.
 TD   00022  3 00000 0 00071         TXH     OLD1          ..
 TD   00023  3 00000 0 00072         TXH     OLD2          ..
 TD   00024  3 00000 0 00077         TXH     =-0           MODE UNCHANGED.
 TD   00025  3 00000 0 00073         TXH     NEW1          ..
 TD   00026  3 00000 0 00074         TXH     NEW2          ..
      00027  0074 00 4 00000         TSX     CHFILE,4      CHANGE MODE WITHOUT CHANGING NAME.
 TD   00030  3 00000 0 00073         TXH     NEW1          ..
 TD   00031  3 00000 0 00074         TXH     NEW2          ..
 TD   00032  3 00000 0 00075         TXH     =0            PERMANENT MODE.
 TD   00033  3 00000 0 00077         TXH     =-0           NAME UNCHANGED.
 TD   00034  3 00000 0 00077         TXH     =-0           ..
 TD   00035  3 00000 0 00040         TXH     CHERR         IN CASE MODE UNCHANGEABLE.
      00036  0774 00 4 00000  RETURN AXT     --,4          RESTORE LINKAGE.
      00037  0020 00 4 00001         TRA     1,4           RETURN TO CALLER.
                              *
      00040  0074 00 4 00001  CHERR  TSX     WRFLX,4       ASSUME TRACK QUOTA EXHAUSTED, AND COMMENT.
      00041  0 00010 0 00045                 TRKQUO,,8     ..
      00042  0074 00 4 00001         TSX     WRFLX,4       MENTION THAT NEW FILE IS TEMP MODE.
      00043  0 00013 0 00055                 TMPMOD,,11    ....
      00044  0020 00 0 00036         TRA     RETURN        EXIT.
                              *
                              *              COMMENTS AND STORAGE.
                              *
      00045  006301510121     TRKQUO BCI     8,0T1R1A1C1K0 1Q1U1O1T1A0 0E0X0H0A0U0S0T0E0D0.
      00046  012301420060
      00047  015001640146
      00050  016301210060
1            ROUTINE TO RENAME A FILE, FORCING PERMANENT MODE IS POSSIBLE.                       PAGE 2

      00051  002500670030
      00052  002100640062
      00053  006300250024
      00054  003360606060
                              *
      00055  007001460164     TMPMOD BCI     5,0Y1O1U1R0 1N1E1W0 1F1I1L1E0 1I
      00056  015100600145
      00057  012501660060
      00060  012601310143
      00061  012500600131
      00062 +016200600133            OCT     016200600133  S, BLANK, RED SHIFT.
      00063  006300250044            BCI     3,0T0E0M0P0O0R0A0R0Y
      00064  004700460051
      00065  002100510070
      00066 +013200600144            OCT     013200600144  BLACK SHIFT, BLANK, SMALL M.
      00067  014601240125            BCI     2,1O1D1E0.
      00070  003360606060
                              *
      00071  0 00000 0 00000  OLD1
      00072  0 00000 0 00000  OLD2
      00073  0 00000 0 00000  NEW1
      00074  0 00000 0 00000  NEW2
                              *
                                     END

        LITERALS
      00075  000000000000
      00076  300000000000
      00077  400000000000
1            ROUTINE TO RENAME A FILE, FORCING PERMANENT MODE IS POSSIBLE.                       PAGE 1
                        POST PROCESSOR ASSEMBLY DATA

        100 IS THE FIRST LOCATION NOT USED BY THIS PROGRAM

0REFERENCES TO DEFINED SYMBOLS
         73   NEW1    12,   25,   30
         74   NEW2    10,   17,   26,   31
         71   OLD1     5,   22
         72   OLD2     7,   23
         40  CHERR    35
         20  SKPN2    15
          1  WRFLX    40,   42
          0 CHFILE    21,   27
          4 RENAME     0
         36 RETURN    20,   44
         55 TMPMOD    43
         45 TRKQUO    41

0 NO ERROR IN ABOVE ASSEMBLY.
1     MAD PROGRAM LISTING ... ... ...                 FILE    6TYP   MAD            02/08/68    1745.8
-
                 ..  TYPEWRITER INPUT CHARACTER CONTROL ROUTINE.                                       LM00001
                 ..  USAGE. . .   COUNT = TYPEIN.(BUFFER, BUFSIZ, ERASE, KILL)                         LM00002
                           J. H. SALTZER, JANUARY, 1965.                                               LM00003
                                                                                                       LM00004
                  EXTERNAL FUNCTION(LINE, BUFSIZ)                                                 *001 LM00005
                                                                                                       LM00006
                  NORMAL MODE IS INTEGER                                                          *002 LM00007
                  VECTOR VALUES E1 = 0137K                                                        *003 LM00008
                  VECTOR VALUES K1 = 0156K                                                        *004 LM00009
                  VECTOR VALUES NBITS = 12                                                        *005 LM00010
                  VECTOR VALUES NULL = 0057K                                                      *006 LM00011
                  VECTOR VALUES ERASE = 0504K                                                     *007 LM00012
                  VECTOR VALUES KILL = 0506K                                                      *008 LM00013
                  VECTOR VALUES RETURN = 0055K                                                    *009 LM00014
                  VECTOR VALUES WRDSIZ = 36                                                       *010 LM00015
                  VECTOR VALUES CHMASK = 7777K                                                    *011 LM00016
                                                                                                       LM00017
                  ENTRY TO SETERS.                                                                *012 LM00018
                    ERASE = LINE                                                                  *013 LM00019
                    FUNCTION RETURN                                                               *014 LM00020
                                                                                                       LM00021
                  ENTRY TO SETKIL.                                                                *015 LM00022
                    KILL = LINE                                                                   *016 LM00023
                    FUNCTION RETURN                                                               *017 LM00024
                                                                                                       LM00025
                  ENTRY TO CANON.                                                                 *018 LM00026
                    FUNCTION RETURN                                                               *019 LM00027
                                                                                                       LM00028
                  ENTRY TO TYPEIN.                                                                *020 LM00029
                    SIZE = 0                                                                      *021 LM00030
                    TYLINE.                                                                       *022 LM00031
       LOOP         WORD = TYWORD.(0)                                                             *023 LM00032
                    THROUGH DISECT, FOR I = WRDSIZ-NBITS,-NBITS, I .L. 0                          *024 LM00033
                      CHAR = (WORD.RS.I) .A. CHMASK                                               *025 LM00034
                      WHENEVER CHAR .E. ERASE .OR. CHAR .E. E1                                    *026 LM00035
                        WHENEVER SIZE .G. 0, SIZE = SIZE - 1                                      *027 LM00036
                      OR WHENEVER CHAR .E. KILL .OR. CHAR .E. K1                                  *028 LM00037
                        SIZE = 0                                                                  *029 LM00038
                      OR WHENEVER CHAR .E. RETURN .OR. CHAR.RS.6 .E. RETURN                       *030 LM00039
                        TRANSFER TO UND                                                           *031 LM00040
                      OR WHENEVER CHAR .A. 0400K .E. 0                                            *032 LM00041
                        SIZE = SIZE + 1                                                           *033 LM00042
                        LINE(SIZE) = CHAR.A.77K                                                   *034 LM00043
                      END OF CONDITIONAL                                                          *035 LM00044
       DISECT         WHENEVER SIZE .GE. BUFSIZ, TRANSFER TO UND                                  *036 LM00045
                    TRANSFER TO LOOP                                                              *037 LM00046
      UND           SIZE = SIZE + 1                                                               *038 LM00047
                    LINE(SIZE) = RETURN                                                           *039 LM00048
                    FUNCTION RETURN SIZE                                                          *040 LM00049
                                                                                                       LM00050
                 ..     TYPEWRITER OUTPUT CHARACTER CONTROL ROUTINE.                                   LM00051
                 ..     USAGE. . .    TYPOUT.(LINE, LENGTH)                                            LM00052
                                                                                                       LM00053
                  ENTRY TO TYPOUT.                                                                *041 LM00054
                    K = 0                                                                         *042 LM00055
                    SETFUL.                                                                       *043 LM00056
                    THROUGH PRLOOP, FOR J = 1, 1, J .G. BUFSIZ                                    *044 LM00057
                      TWORD = (TWORD .LS. NBITS) .V. LINE(J)                                      *045 LM00058
                      K = K + 1                                                                   *046 LM00059
                      WHENEVER K .GE. WRDSIZ/NBITS                                                *047 LM00060
                        K = 0                                                                     *048 LM00061
                        PRWORD.(TWORD)                                                            *049 LM00062
       PRLOOP         END OF CONDITIONAL                                                          *050 LM00063
                    THROUGH NULPK, FOR K = K, 1, K.GE. WRDSIZ/NBITS                               *051 LM00064
       NULPK          TWORD = (TWORD.LS.NBITS) .V. NULL                                           *052 LM00065
                    PRWORD.(TWORD)                                                                *053 LM00066
                    PRBUFF.                                                                       *054 LM00067
                    FUNCTION RETURN                                                               *055 LM00068
                                                                                                       LM00069
                  ENTRY TO HOL.                                                                   *056 LM00070
                    FUNCTION RETURN LINE .A. 77K                                                  *057 LM00071
                                                                                                       LM00072
                  END OF FUNCTION                                                                 *058 LM00073
1MAD PROGRAM,TYPE NOV 1963      (ALL NUMBERS ARE OCTAL)
0TOTAL LOCATIONS   00351 TRANSFER VECTOR LENGTH  00006 PROGRAM BEGINS    00037
0 PROGRAM IS AN EXTERNAL FUNCTION.   THE FOLLOWING ARE ENTRIES
      HOL    00314   0        TYPOUT 00212   0        TYPEIN 00060   0        CANON  00054   0        SETKIL 00046   0
      SETERS 00040   0
0VARIABLE STORAGE (A=ARRAY,C=COMMON,E=ERASABLE,DIGIT=MODE)
      CHAR   00011   1        I      00015   1        K      00021   1        NULPK  00006   4        TWORD  00026   1
      CHMASK 00012 A 1        J      00016   1        LOOP   00007   4        PRLOOP 00006   4        UND    00010   4
      DISECT 00006   4        K1     00017 A 1        NBITS  00022 A 1        RETURN 00024 A 1        WORD   00027   1
      E1     00013 A 1        KILL   00020 A 1        NULL   00023 A 1        SIZE   00025   1        WRDSIZ 00030 A 1
      ERASE  00014 A 1
0FUNCTION DICTIONARY
      EXIT   00000   1        PRBUFF 00001   1        PRWORD 00002   1        SETFUL 00003   1        TYLINE 00004   1
      TYWORD 00005   1
0ABSOLUTE CONSTANTS
 00034 +000000000077     00035 +000000000400     00033 +000000000006     00031 +000000000000     00032 +000000000001
 00036 +233000000000
0STATEMENT DICTIONARY
 00007 TXL -300070000065       00010 TXL -300204000201
0PROGRAM
                 EXTERNAL FUNCTION(LINE, BUFSIZ)                                    001  LM00005
                 NORMAL MODE IS INTEGER                                             002  LM00007
                 VECTOR VALUES E1 = 0137K                                           003  LM00008
 00013     +0 00000 0 00137
                 VECTOR VALUES K1 = 0156K                                           004  LM00009
 00017     +0 00000 0 00156
                 VECTOR VALUES NBITS = 12                                           005  LM00010
 00022     +0 00000 0 00014
                 VECTOR VALUES NULL = 0057K                                         006  LM00011
 00023     +0 00000 0 00057
                 VECTOR VALUES ERASE = 0504K                                        007  LM00012
 00014     +0 00000 0 00504
                 VECTOR VALUES KILL = 0506K                                         008  LM00013
 00020     +0 00000 0 00506
                 VECTOR VALUES RETURN = 0055K                                       009  LM00014
 00024     +0 00000 0 00055
                 VECTOR VALUES WRDSIZ = 36                                          010  LM00015
 00030     +0 00000 0 00044
                 VECTOR VALUES CHMASK = 7777K                                       011  LM00016
 00012     +0 00000 0 07777
                 ENTRY TO SETERS.                                                   012  LM00018
 00037 TRA +0 02000 0 00042    00040 SXA +0 63400 2 00324    00041 TSX +0 07400 2 00324
                   ERASE = LINE                                                     013  LM00019
 00042 CLA +0 50000 0 00024    00043 STO +0 60100 0 00014
                   FUNCTION RETURN                                                  014  LM00020
 00044 TRA +0 02000 0 00342
                 ENTRY TO SETKIL.                                                   015  LM00022
 00045 TRA +0 02000 0 00050    00046 SXA +0 63400 2 00324    00047 TSX +0 07400 2 00324
                   KILL = LINE                                                      016  LM00023
 00050 CLA +0 50000 0 00024    00051 STO +0 60100 0 00020
                   FUNCTION RETURN                                                  017  LM00024
 00052 TRA +0 02000 0 00342
                 ENTRY TO CANON.                                                    018  LM00026
 00053 TRA +0 02000 0 00056    00054 SXA +0 63400 2 00324    00055 TSX +0 07400 2 00324
                   FUNCTION RETURN                                                  019  LM00027
 00056 TRA +0 02000 0 00342
                 ENTRY TO TYPEIN.                                                   020  LM00029
 00057 TRA +0 02000 0 00062    00060 SXA +0 63400 2 00324    00061 TSX +0 07400 2 00324
                   SIZE = 0                                                         021  LM00030
 00062 CLA +0 50000 0 00031    00063 STO +0 60100 0 00025
                   TYLINE.                                                          022  LM00031
 00064 TSX +0 07400 4 00004
       LOOP        WORD = TYWORD.(0)                                                023  LM00032
 00065 TSX +0 07400 4 00005    00066 TXH +3 00000 0 00031    00067 STO +0 60100 0 00027
                   THROUGH DISECT, FOR I = WRDSIZ-NBITS,-NBITS, I .L. 0             024  LM00033
 00070 CLA +0 50000 0 00030    00071 SUB +0 40200 0 00022    00072 STO +0 60100 0 00015    00073 TRA +0 02000 0 00077
 00074 CLS +0 50200 0 00022    00075 ADD +0 40000 0 00015    00076 STO +0 60100 0 00015    00077 CLA +0 50000 0 00015
 00100 SUB +0 40200 0 00031    00101 TZE +0 10000 0 00103    00102 TMI -0 12000 0 00200
                     CHAR = (WORD.RS.I) .A. CHMASK                                  025  LM00034
 00103 CAL -0 50000 0 00015    00104 STA +0 62100 0 00106    00105 CAL -0 50000 0 00027    00106 LGR -0 76500 0 00000
 00107 ANA -0 32000 0 00012    00110 SLW +0 60200 0 00011
                     WHENEVER CHAR .E. ERASE .OR. CHAR .E. E1                       026  LM00035
 00111 CLA +0 50000 0 00011    00112 SUB +0 40200 0 00013    00113 TZE +0 10000 0 00117    00114 CLA +0 50000 0 00011
 00115 SUB +0 40200 0 00014    00116 TNZ -0 10000 0 00127
                       WHENEVER SIZE .G. 0, SIZE = SIZE - 1                         027  LM00036
 00117 CLA +0 50000 0 00025    00120 SUB +0 40200 0 00031    00121 TZE +0 10000 0 00126    00122 TMI -0 12000 0 00126
 00123 CLA +0 50000 0 00025    00124 SUB +0 40200 0 00032    00125 STO +0 60100 0 00025
                     OR WHENEVER CHAR .E. KILL .OR. CHAR .E. K1                     028  LM00037
 00126 TRA +0 02000 0 00172    00127 CLA +0 50000 0 00011    00130 SUB +0 40200 0 00017    00131 TZE +0 10000 0 00135
 00132 CLA +0 50000 0 00011    00133 SUB +0 40200 0 00020    00134 TNZ -0 10000 0 00140
                       SIZE = 0                                                     029  LM00038
 00135 CLA +0 50000 0 00031    00136 STO +0 60100 0 00025
                     O'R CHAR .E. RETURN .OR. CHAR.RS.6 .E. RETURN                  030  LM00039
 00137 TRA +0 02000 0 00172    00140 CAL -0 50000 0 00033    00141 STA +0 62100 0 00143    00142 CAL -0 50000 0 00011
 00143 LGR -0 76500 0 00000    00144 SLW +0 60200 0 00346    00145 CLA +0 50000 0 00346    00146 SUB +0 40200 0 00024
 00147 TZE +0 10000 0 00153    00150 CLA +0 50000 0 00011    00151 SUB +0 40200 0 00024    00152 TNZ -0 10000 0 00155
                       TRANSFER TO UND                                              031  LM00040
 00153 TRA +0 02000 0 00010
                     O'R CHAR .A. 0400K .E. 0                                       032  LM00041
 00154 TRA +0 02000 0 00172    00155 CAL -0 50000 0 00011    00156 ANA -0 32000 0 00035    00157 SLW +0 60200 0 00346
 00160 CLA +0 50000 0 00346    00161 SUB +0 40200 0 00031    00162 TNZ -0 10000 0 00172
                       SIZE = SIZE + 1                                              033  LM00042
 00163 CLA +0 50000 0 00025    00164 ADD +0 40000 0 00032    00165 STO +0 60100 0 00025
                       LINE(SIZE) = CHAR.A.77K                                      034  LM00043
 00166 CAL -0 50000 0 00011    00167 ANA -0 32000 0 00034    00170 LXA +0 53400 1 00025    00171 SLW +0 60200 1 00024
                     END OF CONDITIONAL                                             035  LM00044
       DISECT        WHENEVER SIZE .GE. BUFSIZ, TRANSFER TO UND                     036  LM00045
 00172 CLA +0 50000 0 00025    00173 SUB +0 40200 0 00024    00174 TZE +0 10000 0 00176    00175 TMI -0 12000 0 00177
 00176 TRA +0 02000 0 00010    00177 TRA +0 02000 0 00074
                   TRANSFER TO LOOP                                                 037  LM00046
 00200 TRA +0 02000 0 00007
      UND          SIZE = SIZE + 1                                                  038  LM00047
 00201 CLA +0 50000 0 00025    00202 ADD +0 40000 0 00032    00203 STO +0 60100 0 00025
                   LINE(SIZE) = RETURN                                              039  LM00048
 00204 LXA +0 53400 1 00025    00205 CLA +0 50000 0 00024    00206 STO +0 60100 1 00024
                   FUNCTION RETURN SIZE                                             040  LM00049
 00207 CLA +0 50000 0 00025    00210 TRA +0 02000 0 00342
                 ENTRY TO TYPOUT.                                                   041  LM00054
 00211 TRA +0 02000 0 00214    00212 SXA +0 63400 2 00324    00213 TSX +0 07400 2 00324
                   K = 0                                                            042  LM00055
 00214 CLA +0 50000 0 00031    00215 STO +0 60100 0 00021
                   SETFUL.                                                          043  LM00056
 00216 TSX +0 07400 4 00003
                   THROUGH PRLOOP, FOR J = 1, 1, J .G. BUFSIZ                       044  LM00057
 00217 CLA +0 50000 0 00032    00220 STO +0 60100 0 00016    00221 TRA +0 02000 0 00225    00222 CLA +0 50000 0 00016
 00223 ADD +0 40000 0 00032    00224 STO +0 60100 0 00016    00225 CLA +0 50000 0 00016    00226 SUB +0 40200 0 00024
 00227 TZE +0 10000 0 00231    00230 TPL +0 12000 0 00261
                     TWORD = (TWORD .LS. NBITS) .V. LINE(J)                         045  LM00058
 00231 CAL -0 50000 0 00022    00232 STA +0 62100 0 00234    00233 CAL -0 50000 0 00026    00234 ALS +0 76700 0 00000
 00235 LXA +0 53400 2 00016    00236 ORA -0 50100 2 00024    00237 SLW +0 60200 0 00026
                     K = K + 1                                                      046  LM00059
 00240 CLA +0 50000 0 00021    00241 ADD +0 40000 0 00032    00242 STO +0 60100 0 00021
                     WHENEVER K .GE. WRDSIZ/NBITS                                   047  LM00060
 00243 LDQ +0 56000 0 00030    00244 PXD -0 75400 0 00000    00245 LLS +0 76300 0 00000    00246 DVP +0 22100 0 00022
 00247 XCA +0 13100 0 00000    00250 CHS +0 76000 0 00002    00251 ADD +0 40000 0 00021    00252 TZE +0 10000 0 00254
 00253 TMI -0 12000 0 00260
                       K = 0                                                        048  LM00061
 00254 CLA +0 50000 0 00031    00255 STO +0 60100 0 00021
                       PRWORD.(TWORD)                                               049  LM00062
 00256 TSX +0 07400 4 00002    00257 TXH +3 00000 0 00026
       PRLOOP        END OF CONDITIONAL                                             050  LM00063
 00260 TRA +0 02000 0 00222
                   THROUGH NULPK, FOR K = K, 1, K.GE. WRDSIZ/NBITS                  051  LM00064
 00261 CLA +0 50000 0 00021    00262 STO +0 60100 0 00021    00263 TRA +0 02000 0 00267    00264 CLA +0 50000 0 00021
 00265 ADD +0 40000 0 00032    00266 STO +0 60100 0 00021    00267 LDQ +0 56000 0 00030    00270 PXD -0 75400 0 00000
 00271 LLS +0 76300 0 00000    00272 DVP +0 22100 0 00022    00273 XCA +0 13100 0 00000    00274 CHS +0 76000 0 00002
 00275 ADD +0 40000 0 00021    00276 TZE +0 10000 0 00307    00277 TPL +0 12000 0 00307
       NULPK         TWORD = (TWORD.LS.NBITS) .V. NULL                              052  LM00065
 00300 CAL -0 50000 0 00022    00301 STA +0 62100 0 00303    00302 CAL -0 50000 0 00026    00303 ALS +0 76700 0 00000
 00304 ORA -0 50100 0 00023    00305 SLW +0 60200 0 00026    00306 TRA +0 02000 0 00264
                   PRWORD.(TWORD)                                                   053  LM00066
 00307 TSX +0 07400 4 00002    00310 TXH +3 00000 0 00026
                   PRBUFF.                                                          054  LM00067
 00311 TSX +0 07400 4 00001
                   FUNCTION RETURN                                                  055  LM00068
 00312 TRA +0 02000 0 00342
                 ENTRY TO HOL.                                                      056  LM00070
 00313 TRA +0 02000 0 00316    00314 SXA +0 63400 2 00324    00315 TSX +0 07400 2 00324
                   FUNCTION RETURN LINE .A. 77K                                     057  LM00071
 00316 CAL -0 50000 0 00024    00317 ANA -0 32000 0 00034    00320 SLW +0 60200 0 00346    00321 CLA +0 50000 0 00346
 00322 TRA +0 02000 0 00342
                 END OF FUNCTION                                                    058  LM00073
 00323 TSX +0 07400 4 00000    00324 TXH +3 00000 0 00000    00325 SXD -0 63400 1 00324    00326 SXA +0 63400 4 00342
 00327 CLA +0 50000 4 00001    00330 STA +0 62100 0 00042    00331 STA +0 62100 0 00050    00332 STA +0 62100 0 00171
 00333 STA +0 62100 0 00206    00334 STA +0 62100 0 00236    00335 STA +0 62100 0 00316    00336 CLA +0 50000 4 00002
 00337 STA +0 62100 0 00173    00340 STA +0 62100 0 00226    00341 TRA +0 02000 2 00001    00342 AXT +0 77400 4 00000
 00343 LXA +0 53400 2 00324    00344 LXD -0 53400 1 00324    00345 TRA +0 02000 4 00001
1            BUFFER CONTROL ROUTINE FOR TYPEWRITER OUTPUT.                                       PAGE 1

                              *
                              *      J. H. SALTZER, JANUARY, 1965.
                              *
                       00004         ENTRY   PRWORD        ADD A WORD TO PRINT BUFFER.
                       00021         ENTRY   PRBUFF        PRINT OUT PARTIAL BUFFER.
                       00030         ENTRY   TYWORD        GET NEXT TYPED WORD.
                       00047         ENTRY   TYLINE        RESET TO START READING NEXT LINE.
                              *
                                     EXTERN RDFLXA,WRFLXA
                              *

        TRANSFER VECTOR
      00000  512426436721     RDFLXA
      00001  665126436721     WRFLXA

            LINKAGE DIRECTOR
      00002  000000000000
      00003  475166465124

                       00034  BUFLEN EQU     28            TYPEWRITER BUFFER SIZE.
                              *
                              *      ADD WORD TO PRINT BUFFER.
                              *      PRWORD.(WORD)
                              *
      00004  0634 00 4 00017  PRWORD SXA     PRX4,4        SAVE LINKAGE.
      00005 -0500 60 4 00001         CAL*    1,4           GET WORD BEING ADDED.
      00006 -0734 00 4 00000         PDX     0,4           CHECK FOR DISK CONTROL WORD.
      00007  3 77776 4 00017         TXH     PRX4,4,-2     DON'T STORE CONTROL WORD.
      00010  0774 00 4 00034   PWCNT AXT     BUFLEN,4      SET WORD COUNTER (INITIALLY BUFLEN.)
      00011  0602 00 4 00105         SLW     BUFF+BUFLEN,4 STORE WORD IN BUFFER.
      00012  2 00001 4 00016         TIX     PSAVE,4,1     COUNT, CHECK FOR OVERFLOW.
      00013  0074 00 4 00001         TSX     WRFLXA,4      BUFFER FULL, PRINT W/O C.R.
      00014  0 00034 0 00051                 BUFF,,BUFLEN  ..
      00015  0774 00 4 00034  PFRESH AXT     BUFLEN,4      RESET WORD COUNTER.
      00016  0634 00 4 00010   PSAVE SXA     PWCNT,4       SAVE WORD COUNTER.
      00017  0774 00 4 00000   PRX4  AXT     --,4          RESTORE LINKAGE.
      00020  0020 00 4 00001         TRA     1,4           RETURN.
                              *
                              *      PRINT OUT REMAINING BUFFER, RESET COUNTER.
                              *
      00021  0634 00 4 00017  PRBUFF SXA     PRX4,4        SAVE LINKAGE.
      00022  0535 00 4 00010         LAC     PWCNT,4       GET WORD COUNT.
      00023  1 00034 4 00024         TXI     *+1,4,BUFLEN  FORM COMPLEMENT MOD BUFLEN.
      00024 -0634 00 4 00026         SXD     PRCL,4        SAVE COUNT IN CALLER.
      00025  0074 00 4 00001         TSX     WRFLXA,4      PRINT REMAINDER.
      00026  0 00000 0 00051   PRCL          BUFF,,--      ..
      00027  0020 00 0 00015         TRA     PFRESH        GO REFRESH COUNTER, AND RETURN.
                              *
                              *      GET A WORD FROM INPUT BUFFER.
                              *         WORD = TYWORD.(0)
                              *
      00030  0634 00 4 00045  TYWORD SXA     TYX4,4        SAVE LINKAGE.
      00031  0774 00 5 00000  TYCNT  AXT     --,5          GET WORD COUNTER.
      00032  0774 00 4 00000  TYPOS  AXT     --,4          GET BUFFER POINTER.
      00033  2 00006 5 00041         TIX     TYGET,5,6     CHECK FOR WORDS LEFT.
      00034  0074 00 4 00000         TSX     RDFLXA,4      NO, GET SOME.
1            BUFFER CONTROL ROUTINE FOR TYPEWRITER OUTPUT.                                       PAGE 2

      00035  0 00034 0 00051  TYCALL         BUFF,,BUFLEN  ..
      00036  0734 00 5 00000         PAX     0,5           INSERT 6-BIT CHARACTER COUNT INTO COUNTER.
      00037  2 40000 5 00040         TIX     *+1,5,16384   REMOVE BIT 21 IF PRESENT.
      00040  0774 00 4 00000         AXT     0,4           RESET INPUT BUFFER POINTER.
      00041  0500 00 4 00051  TYGET  CLA     BUFF,4        GET A WORD.
      00042  1 77777 4 00043         TXI     *+1,4,-1      MOVE POINTER TO NEXT WORD.
      00043  0634 00 4 00032         SXA     TYPOS,4       SAVE POINTER.
      00044  0634 00 5 00031         SXA     TYCNT,5       SAVE CHARACTER COUNTER.
      00045  0774 00 4 00000  TYX4   AXT     --,4          RESTORE LINKAGE.
      00046  0020 00 4 00001         TRA     1,4           RETURN.
                              *
      00047  0634 00 0 00031  TYLINE ZSA     TYCNT         RESET CHARACTER COUNT TO MAKE LINE EMPTY.
      00050  0020 00 4 00001         TRA     1,4           RETURN
                              *
      00051                   BUFF   BSS     BUFLEN            OUTPUT BUFFER.
                              *
                                     END
1            BUFFER CONTROL ROUTINE FOR TYPEWRITER OUTPUT.                                       PAGE 1
                        POST PROCESSOR ASSEMBLY DATA

        105 IS THE FIRST LOCATION NOT USED BY THIS PROGRAM

0REFERENCES TO DEFINED SYMBOLS
         51   BUFF    11,   14,   26,   35,   41
         26   PRCL    24
         17   PRX4     4,    7,   21
         45   TYX4    30
         16  PSAVE    12
         10  PWCNT    16,   22
         31  TYCNT    44,   47
         41  TYGET    33
         32  TYPOS    43
         34 BUFLEN     4,   10,   11,   14,   15,   23,   35,   51
         15 PFRESH    27
         21 PRBUFF     0
          4 PRWORD     0
          0 RDFLXA    34
         35 TYCALL
         47 TYLINE     0
         30 TYWORD     0
          1 WRFLXA    13,   25

0 NO ERROR IN ABOVE ASSEMBLY.
1            SUBROUTINE TO CONVERT BCD NUMBER TO BINARY.                                         PAGE 1

                              *
                              *        J. H. SALTZER, MAY, 1966.
                       00002         ENTRY   BIN           CONVERTER.

            LINKAGE DIRECTOR
      00000  000000000000
      00001  223145606060

      00002  0634 00 1 00024   BIN   SXA     IRR1,1
      00003  0600 00 0 00027         STZ     INT           CLEAR RESULT.
      00004  0774 00 1 00006         AXT     6,1
      00005  0560 60 4 00001         LDQ*    1,4           GET ARGUMENT.
      00006 -0754 00 0 00000  LOP    ZAC
      00007 -0763 00 0 00006         LGL     6             GET NEXT CHARACTER.
      00010 -0340 00 0 00032         LAS     =10           SKIP OVER NON-DIGITS.
      00011  0020 00 0 00023         TRA     TIX
      00012  0020 00 0 00023         TRA     TIX
      00013  0601 00 0 00030         STO     DIG           NUMBER, SAVE DIGIT.
      00014 -0600 00 0 00031         STQ     TEM           SAVE MQ FOR MULTIPLIACATION.
      00015  0560 00 0 00027         LDQ     INT           GET OLD NUMBER.
      00016  0200 00 0 00032         MPY     =10           SHIFT.
      00017  0131 00 0 00000         XCA
      00020  0400 00 0 00030         ADD     DIG           ADD THIS DIGIT TO RESULT.
      00021  0601 00 0 00027         STO     INT           SAVE, FOR NEXT PASS.
      00022  0560 00 0 00031         LDQ     TEM           RESTORE MQ.
      00023  2 00001 1 00006  TIX    TIX     LOP,1,1
      00024  0774 00 1 00000   IRR1  AXT     --,1
      00025  0500 00 0 00027         CLA     INT           RESULT IN AC.
      00026  0020 00 4 00002         TRA     2,4
                              *
      00027  0 00000 0 00000   INT
      00030  0 00000 0 00000   DIG
      00031  0 00000 0 00000   TEM
                              *
                                     END

        LITERALS
      00032  000000000012
1            SUBROUTINE TO CONVERT BCD NUMBER TO BINARY.                                         PAGE 1
                        POST PROCESSOR ASSEMBLY DATA

         33 IS THE FIRST LOCATION NOT USED BY THIS PROGRAM

0REFERENCES TO DEFINED SYMBOLS
          2    BIN     0
         30    DIG    13,   20
         27    INT     3,   15,   21,   25
          6    LOP    23
         31    TEM    14,   22
         23    TIX    11,   12
         24   IRR1     2

0 NO ERROR IN ABOVE ASSEMBLY.
1            LIBRARY PACKAGE.                                                                    PAGE 1

                       00024         ENTRY   .PCOMT        PRINT COMMENT ROUTINE
                       00010         ENTRY   CHNCOM        GO DORMANT.
                       00005         ENTRY   EXIT          SAME.
                       00002         ENTRY   .SETUP        CALLED BY MAD MAIN PROGRA.
                       00013         ENTRY   COMARG        GET COMMAND ARGUMENT.
                       00106         ENTRY   WHOAMI
                       00066         ENTRY   SETBCD
                       00064         ENTRY   SETFUL
                       00065         ENTRY   SETBRK
                       00061         ENTRY   WRFLXA
                       00063         ENTRY   WRFLX
                       00062         ENTRY   RDFLXA
                       00067         ENTRY   UPDATE        UPDATE U.F.D.
                       00070         ENTRY   CHFILE
                       00071         ENTRY   DELFIL
                       00072         ENTRY   FSTATE
                       00073         ENTRY   BUFFER
                       00074         ENTRY   OPEN
                       00075         ENTRY   WRWAIT
                       00076         ENTRY   WRFILE
                       00077         ENTRY   RDWAIT
                       00100         ENTRY   RDFILE
                       00101         ENTRY   CLOSE
                       00043         ENTRY   GETBUF        OBTAIN BUFFERS FROM SUPERVISOR.
                              *

            LINKAGE DIRECTOR
      00000  000000000000
      00001  334723464463

      00002  0760 00 0 00016  .SETUP LMTM                  USE SEVEN TAG MODE.
      00003  0774 00 6 00000         AXT     0,6           SET UP IR6 TO AVOID EARLY CALL TO READ.
      00004  0020 00 0 00064         TRA     SETFUL        USE FULL MODE.  SETFUL RETURNS 1,4.
                              *
      00005  0074 00 4 00066  EXIT   TSX     SETBCD,4      CLEANUP, RESET MODE.
      00006  0074 00 4 00063         TSX     WRFLX,4       PUT OUT A STAR FOR RUNCOMS.
      00007  0 00001 0 00060                 STAR,,1       AND THEN PERFORM CHNCOM SEQUENCE.
      00010  0074 00 4 00102  CHNCOM TSX     CHN,4         THIS CHNCOM ALWAYS GOES DEAD,
 TD   00011  3 00000 0 00107         TXH     =0            IF NO CHAIN EXISTS.
      00012  0020 00 0 00010         TRA     *-2           IN CASE OF RESTART, DON'T.
                              *
      00013  0634 00 4 00022  COMARG SXA     CM4,4         GET COMMAND ARGUMENT FOR MAD.
      00014 -0500 60 4 00001         CAL*    1,4           GET ARGUMENT NUMBER.
      00015  0602 00 0 00017         SLW     ARG           GIVE ARGUMENT NUMBER.
      00016  0074 00 4 00103         TSX     GETCOM,4      GET COMMAND ARGUMENT.
      00017  0 00000 0 00000   ARG                         ..
      00020  0602 00 0 00017         SLW     ARG           MOVE TO ARITHMETIC AC.
      00021  0500 00 0 00017         CLA     ARG           ..
      00022  0774 00 4 00000   CM4   AXT     --,4          RESTORE LINKAGE.
      00023  0020 00 4 00002         TRA     2,4           RETURN TO CALLER.
                              *
      00024 -0500 00 4 00001  .PCOMT CAL     1,4           GET WORD COUNT.
      00025  0621 00 0 00042         STA     RETURN        ON RETURN, JUMP BUFFER.
      00026  0767 00 0 00022         ALS     18            SETUP COUNT.
      00027  0622 00 0 00036         STD     PCNT          ..
      00030  1 77776 4 00031         TXI     *+1,4,-2      SETUP UP BUFFER ADDRESS.
1            LIBRARY PACKAGE.                                                                    PAGE 2

      00031  0636 00 4 00036         SCA     PCNT,4        SAVE BUFFER ADDRESS, AND LINKAGE.
      00032  0074 00 4 00064         TSX     SETFUL,4      MAKE SURE MODE SET AND NO LINES COMING IN.
      00033  0074 00 4 00061         TSX     WRFLXA,4      SWITCH TO RED SHIFT.
      00034  0 00001 0 00056                 REDS,,1       ..
      00035  0074 00 4 00063         TSX     WRFLX,4       PRINT LINE.
      00036  0 00000 0 00000   PCNT          --,,--        ..
      00037  0074 00 4 00061         TSX     WRFLXA,4      SHIFT BACK TO BLACK.
      00040  0 00001 0 00057                 BLCKS,,1      ..
      00041  0535 00 4 00036         LAC     PCNT,4        RESTORE LINKAGE.
      00042  0020 00 4 00000  RETURN TRA     --,4          RETURN TO CALLER.
                              *
      00043  0634 00 4 00052  GETBUF SXA     GX4,4         ENTRY TO GET BUFFERS.
      00044  0602 00 0 00055         SLW     BUFSIZ        SIZE OF BUFFER IN AC.
      00045  0074 00 4 00104         TSX     GETMEM,4      GET PRESENT BOUND.
      00046  0601 00 0 00054         STO     START         SAVE AS BUFFER START.
      00047  0361 00 0 00055         ACL     BUFSIZ        FORM NEW BOUND.
      00050  0074 00 4 00105         TSX     SETMEM,4      ASK FOR MORE.
      00051 -0500 00 0 00054         CAL     START         GIVE CALLER LOCATION OF
      00052  0774 00 4 00000   GX4   AXT     --,4          HIS NEW BUFFER.
      00053  0020 00 4 00001         TRA     1,4           RETURN.
                              *
      00054  0 00000 0 00000   START                       STORAGE FOR BUFFER LOCATION.
      00055  0 00000 0 00000  BUFSIZ                       STORAGE FOR BUFFER SIZE.
                              *
      00056 +013300570057      REDS  OCT     013300570057  RED SHIFT AND TWO NULLS.
      00057 +013200570057      BLCKS OCT     013200570057  BLACK SHIFT AND TWO NULLS.
      00060 -145757575757     STAR   OCT     545757575757  ASTERISK AND 5 NULLS.
                              *
                              *              SUPERVISOR SUBROUTINE CALLERS.
                              *
      00061  0101 00 0 00133  WRFLXA TIA     =HWRFLXA
      00062  0101 00 0 00122  RDFLXA TIA     =HRDFLXA
      00063  0101 00 0 00134  WRFLX  TIA     =HWRFLX
      00064  0101 00 0 00126  SETFUL TIA     =HSETFUL
      00065  0101 00 0 00125  SETBRK TIA     =HSETBRK
      00066  0101 00 0 00124  SETBCD TIA     =HSETBCD
      00067  0101 00 0 00130  UPDATE TIA     =HUPDATE
      00070  0101 00 0 00111  CHFILE TIA     =HCHFILE
      00071  0101 00 0 00114  DELFIL TIA     =HDELFIL
      00072  0101 00 0 00115  FSTATE TIA     =HFSTATE
      00073  0101 00 0 00110  BUFFER TIA     =HBUFFER
      00074  0101 00 0 00120  OPEN   TIA     =HOPEN
      00075  0101 00 0 00135  WRWAIT TIA     =HWRWAIT
      00076  0101 00 0 00132  WRFILE TIA     =HWRFILE
      00077  0101 00 0 00123  RDWAIT TIA     =HRDWAIT
      00100  0101 00 0 00121  RDFILE TIA     =HRDFILE
      00101  0101 00 0 00113  CLOSE  TIA     =HCLOSE
      00102  0101 00 0 00112  CHN    TIA     =HCHNCOM
      00103  0101 00 0 00116  GETCOM TIA     =HGETCOM
      00104  0101 00 0 00117  GETMEM TIA     =HGETMEM
      00105  0101 00 0 00127  SETMEM TIA     =HSETMEM
      00106  0101 00 0 00131  WHOAMI TIA     =HWHOAMI
                              *
                                     END
1            LIBRARY PACKAGE.                                                                    PAGE 3

        LITERALS
      00107  000000000000
      00110  226426262551
      00111  233026314325
      00112  233045234644
      00113  234346622560
      00114  242543263143
      00115  266263216325
      00116  272563234644
      00117  272563442544
      00120  464725456060
      00121  512426314325
      00122  512426436721
      00123  512466213163
      00124  622563222324
      00125  622563225142
      00126  622563266443
      00127  622563442544
      00130  644724216325
      00131  663046214431
      00132  665126314325
      00133  665126436721
      00134  665126436760
      00135  665166213163
1            LIBRARY PACKAGE.                                                                    PAGE 1
                        POST PROCESSOR ASSEMBLY DATA

        136 IS THE FIRST LOCATION NOT USED BY THIS PROGRAM

0REFERENCES TO DEFINED SYMBOLS
         17    ARG    15,   20,   21
        102    CHN    10
         22    CM4    13
         52    GX4    43
          5   EXIT     0
         74   OPEN     0
         36   PCNT    27,   31,   41
         56   REDS    34
         60   STAR     7
         57  BLCKS    40
        101  CLOSE     0
         54  START    46,   51
         63  WRFLX     0,    6,   35
         73 BUFFER     0
         55 BUFSIZ    44,   47
         70 CHFILE     0
         10 CHNCOM     0
         13 COMARG     0
         71 DELFIL     0
         72 FSTATE     0
         43 GETBUF     0
        103 GETCOM    16
        104 GETMEM    45
         24 .PCOMT     0
          2 .SETUP     0
        100 RDFILE     0
         62 RDFLXA     0
         77 RDWAIT     0
         42 RETURN    25
         66 SETBCD     0,    5
         65 SETBRK     0
         64 SETFUL     0,    4,   32
        105 SETMEM    50
         67 UPDATE     0
        106 WHOAMI     0
         76 WRFILE     0
         61 WRFLXA     0,   33,   37
         75 WRWAIT     0

0 NO ERROR IN ABOVE ASSEMBLY.


EXTBSS   BCD 09/18/68 2215.8   12484         00000
1            EXTBSS COMMAND FOR FOREGROUND.                                                      PAGE 1
                           FILE NAME -- ESXTBS FAP


                                             9/14/65 - NOEL I. MORRIS

                                     UNLIST
 M                            CALL   MACRO   SUBR,LIST


        TRANSFER VECTOR
      00000  434164626360     LJUST
      00001  222646472545     BFOPEN
      00002  246242255160     DSKER
      00003  512422626260     RDBSS
      00004  665122626260     WRBSS
      00005  222623434662     BFCLOS
      00006  242543256325     DELETE
      00007  516225632260     RSETB
      00010  626522626260     SVBSS
      00011  516222626260     RSBSS

                       00010  NFILS  EQU     8
                                             INITIALIZE ARRAYS.

      00012                   START  CALL    SETBRK(BREAK) SET A BREAK LEVEL
      00012  0074 00 4 00370         TSX     SETBRK,4                                                         .002
      00013  3 00000 0 00314         PAR     BREAK                                                            .004

      00014                          CALL    GETCLS((CARD,,0)) GET COMMAND BUFFER
      00014  0074 00 4 00371         TSX     GETCLS,4                                                         .002
      00015  3 00000 0 77426         PAR     CARD,,0                                                          .004

      00016 -0774 00 1 00001         AXC     1,1           GETCOM INDEX
      00017 -0500 00 1 77426  SQI    CAL     CARD,1        GET FIRST PARAMETER

      00020 -0340 00 0 00021         LAS     FENCE         CHECK FOR NONE
      00021  777777777777     FENCE  VFD     36/-1
      00022  0020 00 0 00316         TRA     PERR          NO PARAMETERS GIVEN

      00023  0602 00 0 77425         SLW     INFILE        NAME OF INPUT FILE
      00024  0322 00 0 00036         ERA     (SQZ)         IS IT SQZBSS
      00025 -0100 00 0 00032         TNZ     NO.SQI        IF YES,

      00026 -0625 00 0 77424         STL     INFILE-1      SET SQZ INDIC.

      00027  0560 00 0 00056         LDQ     SQZ           SECONDARY NAME
      00030 -0620 00 0 00336         SLQ     IN2           IS SQZBSS

      00031  1 77777 1 00017         TXI     SQI,1,-1      AND GO GET THE NEXT PARAMETER

      00032  1 77777 1 00033  NO.SQI TXI     *+1,1,-1      NEXT PARAMETER

      00033 -0774 00 2 00000         AXC     0,2           OUTPUT FILE LIST INDEX
1            EXTBSS COMMAND FOR FOREGROUND.                                                      PAGE 2
                           FILE NAME -- ESXTBS FAP

      00034 -0500 00 1 77426  PARLP  CAL     CARD,1        GET PARAMETER
      00035 -0340 00 0 00021         LAS     FENCE         CHECK FOR NONE
      00036  607462507134     (SQZ)  BCI     1, (SQZ)
      00037  0020 00 0 00074         TRA     SOUT          FINISHED

      00040  0602 00 0 00330         SLW     TEM           SAVE FOR RJUSTING
      00041  0602 00 2 00340         SLW     LIST+1,2      BOTH FILE NAME AND ENTRY NAME

      00042                          CALL    $LJUST(TEM)   ENTRIES ARE LEFT JUSTIFIED
      00042  0074 00 4 00000         TSX     $LJUST,4                                                         .002
      00043  3 00000 0 00330         PAR     TEM                                                              .004
      00044  0601 00 2 00341         STO     LIST+2,2      ..

      00045 -0500 00 0 00330         CAL     TEM           NOW CHECK FOR SQZBSS
      00046  0322 00 0 00036         ERA     (SQZ)         ..
      00047 -0100 00 0 00053         TNZ     NO.SQO        IF SO,

      00050  0560 00 0 00056         LDQ     SQZ           SET SECONDARY NAME TO
      00051 -0620 00 2 00342         SLQ     LIST+3,2      SQZBSS

      00052  1 77777 1 00034         TXI     PARLP,1,-1    NEXT PARAMETER

      00053  1 77777 1 00054  NO.SQO TXI     *+1,1,-1      NEXT PARAMETER

      00054 -0500 00 1 77426         CAL     CARD,1        ..
      00055 -0340 00 0 00021         LAS     FENCE         CHECK FOR NONE
      00056  625071606060     SQZ    BCI     1,SQZ
      00057  1 77775 2 00074         TXI     SOUT,2,-3     FINISHED
      00060  0602 00 0 00330         SLW     TEM           SAVE ENTRY NAME

      00061  0322 00 0 00437         ERA     =H     =      IS IT EQUAL SIGN
      00062  0100 00 0 00066         TZE     NEX           YES, ENTRY = SECONDARY NAME

      00063                          CALL    $LJUST(TEM)   ..
      00063  0074 00 4 00000         TSX     $LJUST,4                                                         .002
      00064  3 00000 0 00330         PAR     TEM                                                              .004
      00065  0601 00 2 00341         STO     LIST+2,2      ..

      00066  1 77777 1 00067  NEX    TXI     *+1,1,-1      NEXT PARAMETER
      00067  1 77775 2 00070         TXI     *+1,2,-3      AND NEXT OUTPUT FILE
      00070  3 00030 2 00034         TXH     PARLP,2,3*NFILS   CHECK FOR FULL LIST

      00071                          COMENT  TOO,5,(TOO MANY FILES REQUESTED.)
      00071  0074 00 4 00372         TSX     WRFLX,4                                                          .003
      00072  3 00005 0 00373         PAR     TOO,,5                                                           .005
      00073  0021 00 0 00312         XIT     CHN           EXIT TO CHNCOM

      00074 -3 00000 2 00321  SOUT   TXL     NONE,2,0      CHECK FOR NO FILES
      00075  0636 00 2 00337         SCA     LIST,2        STORE FILE COUNT
      00076  0634 00 2 00222         SXA     SRCH,2        ..
      00077  0634 00 2 00301         SXA     NSRCH,2       ..

      00100 -0500 00 0 00444         CAL     =H(FILE)      SET TEMPORARY FILE
      00101  0602 00 0 77423         SLW     OUTFIL        TO (FILE)
1            EXTBSS COMMAND FOR FOREGROUND.                                                      PAGE 3
                           OPEN AND READ LIBRARY FILE.

      00102                          CALL    GETMEM        GET MEMORY BOUND
      00102  0074 00 4 00400         TSX     GETMEM,4                                                         .002

      00103                          EXTEND  (OPNR+4,OPNR+5,OPNW+4,OPNW+5,OPNW+6)
      00103  0621 00 0 00122         STA     OPNR+4                                                           .003
      00104  0361 00 0 00425         ACL     =432                                                             .002
      00105  0621 00 0 00123         STA     OPNR+5                                                           .003
      00106  0361 00 0 00425         ACL     =432                                                             .002
      00107  0621 00 0 00257         STA     OPNW+4                                                           .003
      00110  0361 00 0 00425         ACL     =432                                                             .002
      00111  0621 00 0 00260         STA     OPNW+5                                                           .003
      00112  0361 00 0 00425         ACL     =432                                                             .002
      00113  0621 00 0 00261         STA     OPNW+6                                                           .003
      00114  0361 00 0 00425         ACL     =432                                                             .002
      00115  0074 00 4 00401         TSX     SETMEM,4                                                         .003
                                                           ASSIGN DISK BUFFERS

      00116                   OPNR   CALL    $BFOPEN(=HR,INFILE,IN2,**,**,=-0,$DSKER)
      00116  0074 00 4 00001         TSX     $BFOPEN,4                                                        .002
      00117  3 00000 0 00435         PAR     =HR                                                              .004
      00120  3 00000 0 77425         PAR     INFILE                                                           .004
      00121  3 00000 0 00336         PAR     IN2                                                              .004
      00122  3 00000 0 00000         PAR     **                                                               .004
      00123  3 00000 0 00000         PAR     **                                                               .004
      00124  3 00000 0 00433         PAR     =-0                                                              .004
      00125  3 00000 0 00002         PAR     $DSKER                                                           .004
                                                           OPEN LIBRARY FILE FOR READING

      00126                   NEXCD  CALL    $RDBSS(EOF)   READ A CARD
      00126  0074 00 4 00003         TSX     $RDBSS,4                                                         .002
      00127  3 00000 0 00272         PAR     EOF                                                              .004

      00130 -0054 00  400000         LFT     400000        IF A PROGRAM CARD,
      00131  0020 00 0 00136         TRA     P.C.          GO EXAMINE

      00132 -0625 00 0 00324         STL     ICSW          INSTRUCTION CARD, SET SWITCH

      00133  0520 00 0 00325         ZET     FOUND         ARE WE WRITING A FILE
      00134                          CALL    $WRBSS        WRITE THIS CARD OUT
      00134  0074 00 4 00004         TSX     $WRBSS,4                                                         .002

      00135  0020 00 0 00126         TRA     NEXCD         ON TO THE NEXT
1            EXTBSS COMMAND FOR FOREGROUND.                                                      PAGE 4
                           PROCESS PROGRAM CARDS.

      00136  0520 00 0 00325  P.C.   ZET     FOUND         IF NETRY FOUND AND
      00137  0520 00 0 00324         ZET     ICSW          NOT THE FIRST CARD
      00140  0020 00 0 00143         TRA     NOT           ..

      00141                   WRB    CALL    $WRBSS        WRITE THIS CARD OUT AND
      00141  0074 00 4 00004         TSX     $WRBSS,4                                                         .002
      00142  0020 00 0 00126         TRA     NEXCD         GO ON TO THE NEXT

      00143 -0520 00 0 00324  NOT    NZT     ICSW          IF THIS IS FIRST CARD
      00144  0020 00 0 00212         TRA     SQCD          ..
      00145 -0520 00 0 00325         NZT     FOUND         AND FILE IS OPEN
      00146  0020 00 0 00207         TRA     FPC           ..

      00147                   CLSOUT CALL    $BFCLOS(OUTFIL,OUT2,$DSKER)   CLOSE IT
      00147  0074 00 4 00005         TSX     $BFCLOS,4                                                        .002
      00150  3 00000 0 77423         PAR     OUTFIL                                                           .004
      00151  3 00000 0 00333         PAR     OUT2                                                             .004
      00152  3 00000 0 00002         PAR     $DSKER                                                           .004

      00153                          CALL    $DELETE(NEWFIL,OUT2,*,NODEL)    DELETE ANY OLD FILE
      00153  0074 00 4 00006         TSX     $DELETE,4                                                        .002
      00154  3 00000 0 00331         PAR     NEWFIL                                                           .004
      00155  3 00000 0 00333         PAR     OUT2                                                             .004
      00156  3 00000 0 00156         PAR     *                                                                .004
      00157  3 00000 0 00173         PAR     NODEL                                                            .004
      00160  0602 00 0 00327         SLW     MODE          MODE FOR NEW FILE

      00161                          CALL    CHFILE(OUTFIL,OUT2,MODE,NEWFIL,OUT2) AND RENAME
      00161  0074 00 4 00402         TSX     CHFILE,4                                                         .002
      00162  3 00000 0 77423         PAR     OUTFIL                                                           .004
      00163  3 00000 0 00333         PAR     OUT2                                                             .004
      00164  3 00000 0 00327         PAR     MODE                                                             .004
      00165  3 00000 0 00331         PAR     NEWFIL                                                           .004
      00166  3 00000 0 00333         PAR     OUT2                                                             .004

      00167 -0520 00 0 00327         NZT     MODE          ENOUGH PRINTED GARBAGE IF NON-ZERO MODE
      00170                          CALL    WRFLX((NEWFIL,,5))    PRINT CREATED COMMENT
      00170  0074 00 4 00372         TSX     WRFLX,4                                                          .002
      00171  3 00005 0 00331         PAR     NEWFIL,,5                                                        .004
      00172  0020 00 0 00174         TRA     *+2           SKIP NEXT SECTION

      00173                   NODEL  CALL    $DELETE(OUTFIL,OUT2,=0,*+1)  DELETE OLD TEMPORARY
      00173  0074 00 4 00006         TSX     $DELETE,4                                                        .002
      00174  3 00000 0 77423         PAR     OUTFIL                                                           .004
      00175  3 00000 0 00333         PAR     OUT2                                                             .004
      00176  3 00000 0 00424         PAR     =0                                                               .004
      00177  3 00000 0 00200         PAR     *+1                                                              .004

      00200  0600 00 0 00325         STZ     FOUND         RESET ENTRY FOUND SWITCH

      00201  0534 00 4 00337         LXA     LIST,4        DECREASE FILE COUNT
      00202  1 77775 4 00203         TXI     *+1,4,-3      ..
      00203  0634 00 4 00337         SXA     LIST,4        ..
      00204 -3 00000 4 00272         TXL     EOF,4,0       IF ZERO, ALL FILES CREATED
1            EXTBSS COMMAND FOR FOREGROUND.                                                      PAGE 5
                           PROCESS PROGRAM CARDS.

      00205  0520 00 0 00326         ZET     ENDFIL        CHECK FOR AN EOF CLOSE
      00206  0020 00 0 00301         TRA     NSRCH         GO FINISH UP

      00207                   FPC    CALL    $RSETB        RESET CARD SAVE BUFFERS
      00207  0074 00 4 00007         TSX     $RSETB,4                                                         .002
      00210 -0774 00 4 00002         AXC     2,4           START FIRST P.C. AT SECOND WORD
      00211  0020 00 0 00213         TRA     GCNT          ..

      00212 -0774 00 4 00000  SQCD   AXC     0,4           CARD WORD INDEX

      00213 -0046 00 0 00000  GCNT   PIA                   GET WRDCNT
      00214 -0320 00 0 00426         ANA     =O37077777    ..
      00215 -0734 00 1 00000         PDX     ,1            IN XR1
      00216 -0636 00 1 00231         SCD     ECHK,1        FOR ENTRY PICKUP CHECK

      00217 -0500 00 4 77430  ELP    CAL     CARD+2,4      ENTRY NAME
      00220 -0100 00 0 00222         TNZ     *+2           IF ZERO,
      00221 -0500 00 0 00445         CAL     =H(MAIN)      IT IS (MAIN)

      00222  0774 00 1 00000  SRCH   AXT     **,1          CHECK LSIT FOR NETRY
      00223 -0340 00 1 00336         LAS     LIST-1,1      ..
      00224  0020 00 0 00226         TRA     *+2           ..
      00225  0020 00 0 00235         TRA     GOT.IT        ENTRY FOUND

      00226  1 00003 1 00227         TXI     *+1,1,3       NEXT ENTRY
      00227  3 00000 1 00223         TXH     SRCH+1,1,0    LOOP THROUGH TABLE

      00230  1 77776 4 00231         TXI     *+1,4,-2      NEXT CARD WORD
      00231  3 00000 4 00217  ECHK   TXH     ELP,4,**      EXAMINE ENTIRE CARD

      00232                          CALL    $SVBSS        SAVE THIS CARD
      00232  0074 00 4 00010         TSX     $SVBSS,4                                                         .002
      00233  0600 00 0 00324         STZ     ICSW          RESET I.C. SWITCH
      00234  0020 00 0 00126         TRA     NEXCD         AND GO TO NEXT

      00235 -0500 00 1 00337  GOT.IT CAL     LIST,1        GET SECONDARY NAME
      00236  0602 00 0 00333         SLW     OUT2          ..
      00237  0322 00 0 00436         ERA     =H   BSS      NON ZERO, IF SQZBSS
      00240  0602 00 0 77422         SLW     OUTFIL-1      ..

      00241 -0500 00 1 00335         CAL     LIST-2,1      PRIMARY NAME
      00242  0602 00 0 00331         SLW     NEWFIL        ..

      00243 -0500 00 0 00021         CAL     FENCE         NULL OUT ENTRY NAME
      00244  0602 00 1 00336         SLW     LIST-1,1      ..

      00245 -0625 00 0 00325         STL     FOUND         SET FOUND INDIC.

      00246                          CALL    $DELETE(OUTFIL,OUT2,=0,*+1)   DELETE OLD TEMP., IF ANY
      00246  0074 00 4 00006         TSX     $DELETE,4                                                        .002
      00247  3 00000 0 77423         PAR     OUTFIL                                                           .004
      00250  3 00000 0 00333         PAR     OUT2                                                             .004
      00251  3 00000 0 00424         PAR     =0                                                               .004
      00252  3 00000 0 00253         PAR     *+1                                                              .004
1            EXTBSS COMMAND FOR FOREGROUND.                                                      PAGE 6
                           PROCESS PROGRAM CARDS.

      00253                   OPNW   CALL    $BFOPEN(=HW,OUTFIL,OUT2,**,**,**,$DSKER)
      00253  0074 00 4 00001         TSX     $BFOPEN,4                                                        .002
      00254  3 00000 0 00443         PAR     =HW                                                              .004
      00255  3 00000 0 77423         PAR     OUTFIL                                                           .004
      00256  3 00000 0 00333         PAR     OUT2                                                             .004
      00257  3 00000 0 00000         PAR     **                                                               .004
      00260  3 00000 0 00000         PAR     **                                                               .004
      00261  3 00000 0 00000         PAR     **                                                               .004
      00262  3 00000 0 00002         PAR     $DSKER                                                           .004
                                                           OPEN TEMPORARY FILE FOR WRITING

      00263 -0520 00 0 00324         NZT     ICSW          CHECK FOR FIRST CARD
      00264  0020 00 0 00267         TRA     *+3           ..

      00265  0600 00 0 00324         STZ     ICSW          IF SO,
      00266  0020 00 0 00141         TRA     WRB           WRITE IT OUT WITHOUT SAVING

      00267                          CALL    $SVBSS        OTHERWISE, SAVE IT FIRST
      00267  0074 00 4 00010         TSX     $SVBSS,4                                                         .002

      00270                          CALL    $RSBSS        AND WRITE OUT OTHER SAVED CARDS
      00270  0074 00 4 00011         TSX     $RSBSS,4                                                         .002

      00271  0020 00 0 00126         TRA     NEXCD         ON TO THE NEXT
1            EXTBSS COMMAND FOR FOREGROUND.                                                      PAGE 7
                           END OF FILE AND ERROR SECTION.

      00272 -0625 00 0 00326  EOF    STL     ENDFIL        SET END OF FILE INDIC.
      00273  0520 00 0 00325         ZET     FOUND         CHECK FOR OPEN FILE
      00274  0020 00 0 00147         TRA     CLSOUT        GO CLOSE IT

      00275                          CALL    $BFCLOS(INFILE,IN2,$DSKER)    CLOSE THE LIBRARY FILE
      00275  0074 00 4 00005         TSX     $BFCLOS,4                                                        .002
      00276  3 00000 0 77425         PAR     INFILE                                                           .004
      00277  3 00000 0 00336         PAR     IN2                                                              .004
      00300  3 00000 0 00002         PAR     $DSKER                                                           .004

      00301  0774 00 1 00000  NSRCH  AXT     **,1          NOW, LOOK FOR NAY UNUSED ENTRIES

      00302 -0500 00 1 00336         CAL     LIST-1,1      ENTRY SHOULD BE FENCE IF USED
      00303  0602 00 0 00404         SLW     ENTRY+1       SVAE FOR PRINTING, IF NECESSARY
      00304  0322 00 0 00021         ERA     FENCE         ..
      00305  0100 00 0 00310         TZE     FOK           IF ZERO, ALL IS FINE

      00306                          COMENT  ENTRY,4,(ENTRY        NOT FOUND.)
      00306  0074 00 4 00372         TSX     WRFLX,4                                                          .003
      00307  3 00004 0 00403         PAR     ENTRY,,4                                                         .005

      00310  1 00003 1 00311  FOK    TXI     *+1,1,3       CHECK ALL ENTRIES IN LIST
      00311  3 00000 1 00302         TXH     NSRCH+1,1,0   ..

      00312                   CHN    CALL    CHNCOM(0)     EXIT TO CHNCOM
      00312  0074 00 4 00407         TSX     CHNCOM,4                                                         .002
      00313  3 00000 0 00000         PAR     0                                                                .004

      00314                   BREAK  CALL    RESETF        RESET ALL ACTIVE FILES
      00314  0074 00 4 00410         TSX     RESETF,4                                                         .002

      00315  0021 00 0 00312         XIT     CHN           AND EXIT TO CHNCOM

      00316                   PERR   COMENT  BADPAR,5,(ILLEGAL PARAMETER SEQUENCE.)
      00316  0074 00 4 00372         TSX     WRFLX,4                                                          .003
      00317  3 00005 0 00411         PAR     BADPAR,,5                                                        .005
      00320  0021 00 0 00312         XIT     CHN           ..

      00321                   NONE   COMENT  NOFILS,6,(NO FILES SPECIFIED FOR EXTRACTION.)
      00321  0074 00 4 00372         TSX     WRFLX,4                                                          .003
      00322  3 00006 0 00416         PAR     NOFILS,,6                                                        .005
      00323  0021 00 0 00312         XIT     CHN           ..
1            EXTBSS COMMAND FOR FOREGROUND.                                                      PAGE 8
                           STORAGE AND CONSTANTS.

      00324  0 00000 0 00324  ICSW   PZE     *
      00325  0 00000 0 00000  FOUND  PZE
      00326  0 00000 0 00000  ENDFIL PZE
      00327  0 00000 0 00000  MODE   PZE
      00330  0 00000 0 00000  TEM    PZE

      00331  000000000000     NEWFIL VFD     36/0,O36/606057575757
      00332  606057575757
      00333  606060226262     OUT2   BCI     3,   BSS CREATED.
      00334  602351252163
      00335  252433606060

      00336  606060226262     IN2    BCI     1,   BSS

      00337  0 00000 0 00000  LIST   PZE
                       00340         DUP     1,NFILS
      00340  777777777777            VFD     36/-1,36/-1,O18/606060,H18/BSS
      00341  777777777777
      00342  606060226262
      00343  777777777777
      00344  777777777777
      00345  606060226262
      00346  777777777777
      00347  777777777777
      00350  606060226262
      00351  777777777777
      00352  777777777777
      00353  606060226262
      00354  777777777777
      00355  777777777777
      00356  606060226262
      00357  777777777777
      00360  777777777777
      00361  606060226262
      00362  777777777777
      00363  777777777777
      00364  606060226262
      00365  777777777777
      00366  777777777777
      00367  606060226262

                       77426         COMMON  27
                       77426  CARD   COMMON  1
                       77425  INFILE COMMON  2
                       77423  OUTFIL COMMON  2

      00370                          RMT     *             REMOTE SEQUENCES
      00370  0101 00 0 00440  SETBRK TIA     =HSETBRK                                                         .002
      00371  0101 00 0 00431  GETCLS TIA     =HGETCLS                                                         .002
      00372  0101 00 0 00442  WRFLX  TIA     =HWRFLX                                                          .002
      00373  634646604421     TOO    BCI     5,TOO MANY FILES REQUESTED.                                      .002
      00374  457060263143
      00375  256260512550
      00376  642562632524
      00377  336060606060
1            EXTBSS COMMAND FOR FOREGROUND.                                                      PAGE 9
                           STORAGE AND CONSTANTS.

      00400  0101 00 0 00432  GETMEM TIA     =HGETMEM                                                         .002
      00401  0101 00 0 00441  SETMEM TIA     =HSETMEM                                                         .002
      00402  0101 00 0 00427  CHFILE TIA     =HCHFILE                                                         .002
      00403  254563517060     ENTRY  BCI     4,ENTRY        NOT FOUND.                                        .002
      00404  606060606060
      00405  604546636026
      00406  466445243360
      00407  0101 00 0 00430  CHNCOM TIA     =HCHNCOM                                                         .002
      00410  0101 00 0 00434  RESETF TIA     =HRESETF                                                         .002
      00411  314343252721     BADPAR BCI     5,ILLEGAL PARAMETER SEQUENCE.                                    .002
      00412  436047215121
      00413  442563255160
      00414  622550642545
      00415  232533606060
      00416  454660263143     NOFILS BCI     6,NO FILES SPECIFIED FOR EXTRACTION.                             .002
      00417  256260624725
      00420  233126312524
      00421  602646516025
      00422  676351212363
      00423  314645336060

                                     END

        LITERALS
      00424  000000000000
      00425  000000000660
      00426  000037077777
      00427  233026314325
      00430  233045234644
      00431  272563234362
      00432  272563442544
      00433  400000000000
      00434  512562256326
      00435  516060606060
      00436  606060226262
      00437  606060606013
      00440  622563225142
      00441  622563442544
      00442  665126436760
      00443  666060606060
      00444  742631432534
      00445  744421314534
1            EXTBSS COMMAND FOR FOREGROUND.                                                      PAGE 1
                        POST PROCESSOR ASSEMBLY DATA

       77421 IS THE LAST LOCATION NOT USED BY THIS PROGRAM
        446 IS THE FIRST LOCATION NOT USED BY THIS PROGRAM

0REFERENCES TO DEFINED SYMBOLS
        312    CHN    73,  315,  320,  323
        217    ELP   231
        272    EOF   127,  204
        310    FOK   305
        207    FPC   146
        336    IN2    30,  121,  277
         66    NEX    62
        143    NOT   140
         17    SQI    31
         56    SQZ    27,   50
        330    TEM    40,   43,   45,   60,   64
        373    TOO    72
        141    WRB   266
      77426   CARD    15,   17,   34,   54,  217,  370
        231   ECHK   216
        213   GCNT   211
        324   ICSW   132,  137,  143,  233,  263,  265
        337   LIST    41,   44,   51,   65,   75,  201,  203,  223,  235,  241,  244,  302
        327   MODE   160,  164,  167
        321   NONE    74
        116   OPNR   103,  105
        253   OPNW   107,  111,  113
        333   OUT2   151,  155,  163,  166,  175,  236,  250,  256
        316   PERR    22
        136   P.C.   131
         74   SOUT    37,   57
        212   SQCD   144
        222   SRCH    76,  227
        314  BREAK    13
          2  DSKER   125,  152,  262,  300
        403  ENTRY   303,  307
         21  FENCE    20,   35,   55,  243,  304
        325  FOUND   133,  136,  145,  200,  245,  273
          0  LJUST    42,   63
        126  NEXCD   135,  142,  234,  271
         10  NFILS    12,   70,  340
        173  NODEL   157
        301  NSRCH    77,  206,  311
         34  PARLP    52,   70
          3  RDBSS   126
         11  RSBSS   270
          7  RSETB   207
         12  START
         10  SVBSS   232,  267
          4  WRBSS   134,  141
        372  WRFLX    71,  170,  306,  316,  321
         36  (SQZ)    24,   46
        411 BADPAR   317
          5 BFCLOS   147,  275
          1 BFOPEN   116,  253
1            EXTBSS COMMAND FOR FOREGROUND.                                                      PAGE 2
                        POST PROCESSOR ASSEMBLY DATA

        402 CHFILE   161
        407 CHNCOM   312
        147 CLSOUT   274
          6 DELETE   153,  173,  246
        326 ENDFIL   205,  272
        371 GETCLS    14
        400 GETMEM   102
        235 GOT.IT   225
      77425 INFILE    23,   26,  120,  276,  370
        331 NEWFIL   154,  165,  171,  242
        416 NOFILS   322
         32 NO.SQI    25
         53 NO.SQO    47
      77423 OUTFIL   101,  150,  162,  174,  240,  247,  255,  370
        410 RESETF   314
        370 SETBRK    12
        401 SETMEM   115

0 NO ERROR IN ABOVE ASSEMBLY.
1            WRBSS - WRITE A BSS FILE.                                                           PAGE 1

                                             NOEL I. MORRIS - 6/22/65

                                     UNLIST
 M                            CALL   MACRO   SUBR,LIST


                       00002         ENTRY   WRBSS


        TRANSFER VECTOR
      00000  222666513163     BFWRIT
      00001  246242255160     DSKER

      00002  0634 00 4 00030  WRBSS  SXA     XR4,4         SAVE XRS
      00003  0604 00 0 00033         STI     SVSI          AND SI

      00004  0441 00 0 77426         LDI     BUFF          FIRST WORD IN SI
      00005 -0046 00 0 00000         PIA                   LOOK AT FIRST WORD
      00006 -0320 00 0 00035         ANA     =O77000000    MASK OFF WORD COUNT
      00007 -0734 00 4 00000         PDX     ,4            WORD COUNT IN XR4
      00010 -3 00000 4 00030         TXL     XR4,4,0       DON'T WRITE ANYTHING IF WORD COUNT ZERO

      00011 -0520 00 0 77422         NZT     FNAM-1        CHECK FOR SQZBSS FILE
      00012  0020 00 0 00017         TRA     FIX           ..

      00013 -0500 00 0 00037         CAL     =HSQZBSS      SECONDARY NAME IS 'SQZBSS'
      00014 -0056 00  200000         LNT     200000        CHECK FOR INSTRUCTION CARD
      00015  1 00002 4 00021         TXI     SLW,4,2       MUST BE PROGRAM CARD
      00016  1 00004 4 00021         TXI     SLW,4,4       INSTRUCTION CARD

      00017 -0500 00 0 00036  FIX    CAL     =H   BSS      SECONDARY NAME IS 'BSS'
      00020  0774 00 4 00034         AXT     28,4          RECORD LENGTH IS 28

      00021  0602 00 0 00034  SLW    SLW     SNAM          STORE SECONDARY NAME
      00022 -0634 00 4 00026         SXD     WRITE+3,4     STORE WORD COUNT

      00023                   WRITE  CALL    $BFWRIT(FNAM,SNAM,(BUFF,,**),$DSKER)
      00023  0074 00 4 00000         TSX     $BFWRIT,4                                                        .002
      00024  3 00000 0 77423         PAR     FNAM                                                             .004
      00025  3 00000 0 00034         PAR     SNAM                                                             .004
      00026  3 00000 0 77426         PAR     BUFF,,**                                                         .004
      00027  3 00000 0 00001         PAR     $DSKER                                                           .004

      00030  0774 00 4 00000  XR4    AXT     **,4          RESTORE XRS
      00031  0441 00 0 00033         LDI     SVSI          AND SI
      00032  0020 00 4 00001         TRA     1,4           RETURN

      00033  0 00000 0 00000  SVSI   PZE
      00034  0 00000 0 00000  SNAM   PZE

                       77426         COMMON  27
                       77426  BUFF   COMMON  3
                       77423  FNAM   COMMON  2
1            WRBSS - WRITE A BSS FILE.                                                           PAGE 2

      00035                          RMT     *             REMOTE SEQUENCES

                                     END

        LITERALS
      00035  000077000000
      00036  606060226262
      00037  625071226262
1            WRBSS - WRITE A BSS FILE.                                                           PAGE 1
                        POST PROCESSOR ASSEMBLY DATA

       77421 IS THE LAST LOCATION NOT USED BY THIS PROGRAM
         40 IS THE FIRST LOCATION NOT USED BY THIS PROGRAM

0REFERENCES TO DEFINED SYMBOLS
         17    FIX    12
         21    SLW    15,   16
         30    XR4     2,   10
      77426   BUFF     4,   26,   35
      77423   FNAM    11,   24,   35
         34   SNAM    21,   25
         33   SVSI     3,   31
          1  DSKER    27
          2  WRBSS     0
         23  WRITE    22
          0 BFWRIT    23

0 NO ERROR IN ABOVE ASSEMBLY.
1            SVBSS - SAVE AND RESTORE BSS CARD IMAGES.                                           PAGE 1

                                             9/12/65 - NOEL I. MORRIS

                                     UNLIST
 M                            CALL   MACRO   SUBR,LIST


                       00001         ENTRY   SVBSS
                       00034         ENTRY   RSBSS
                       00056         ENTRY   RSETB


        TRANSFER VECTOR
      00000  665122626260     WRBSS

                       00034  CLTH   EQU     28
                       00002  N      EQU     2
1            SVBSS - SAVE AND RESTORE BSS CARD IMAGES.                                           PAGE 2
                           SAVE BSS CARD IMAGES IN EXTENDED MEMORY.

      00001  0634 00 4 00032  SVBSS  SXA     SV4,4         SAVE XR4

      00002  0020 00 0 00003  SUBSQ  TRA     *+1           EXECUTE NEXT SECTION ONLY ONCE

      00003                          CALL    GETMEM        GET CURRENT MEMBND
      00003  0074 00 4 00064         TSX     GETMEM,4                                                         .002

      00004 -0765 00 0 00001         LGR     1             ROUND TO NEXT HIGHEST
      00005  0760 00 0 00010         RND                   EVEN NUMBER
      00006  0767 00 0 00001         ALS     1             FOR DLD INSTRUCTION

      00007  0621 00 0 00016         STA     BUFF          SAVE CARD BUFFER ADDRESS
      00010  0621 00 0 00040         STA     RESET         ..

      00011  0361 00 0 00063         ACL     LTH           INCREASE TO INITIAL SIZE
      00012  0734 00 4 00000         PAX     ,4            ..
      00013 -0634 00 4 00022         SXD     MEMBND,4      SAVE FOR CHECKING

      00014                          EXTEND                AND RESET THE MEMORY BOUND
      00014  0074 00 4 00065         TSX     SETMEM,4                                                         .003

      00015 -0625 00 0 00002         STL     SUBSQ         SET SWITCH TO SKIP INITIALIZATION

      00016  0774 00 4 00000  BUFF   AXT     **,4          LAST CARD BUFFER ADDRESS
      00017  1 00034 4 00020         TXI     *+1,4,CLTH    INCREASE
      00020  0634 00 4 00016         SXA     BUFF,4        SAVE NEW BUFFER ADDRESS
      00021  0634 00 4 00030         SXA     MOVIN,4       ..
      00022 -3 00000 4 00026  MEMBND TXL     NOXTND,4,**   CHECK FOR MEMBND EXCEEDED

      00023 -0634 00 4 00022         SXD     MEMBND,4      NEED HIGHER MEMBND, SO
      00024  0754 00 4 00000         PXA     ,4            WE SET IT HIGHER
      00025                          EXTEND                ..
      00025  0074 00 4 00065         TSX     SETMEM,4                                                         .003

      00026  0774 00 4 00034  NOXTND AXT     CLTH,4        FAST MOVE LOOP
      00027  0443 00 4 77462         DLD     CARD+CLTH,4   ONLY 84 CYCLES FOR 1 CARD IMAGE
      00030 -0603 00 4 00000  MOVIN  DST     **,4          ..
      00031  2 00002 4 00027         TIX     *-2,4,2       ..

      00032  0774 00 4 00000  SV4    AXT     **,4          RESTORE XR4
      00033  0020 00 4 00001         TRA     1,4           AND RETURN
1            SVBSS - SAVE AND RESTORE BSS CARD IMAGES.                                           PAGE 3
                           RESTORE AND WRITE OUT SAVED BSS CARDS.

      00034  0634 00 4 00053  RSBSS  SXA     RX4,4         SAVE XRS
      00035  0634 00 1 00054         SXA     RX1,1         ..

      00036  0534 00 4 00016         LXA     BUFF,4        LAST BUFFER USED
      00037 -0634 00 4 00043         SXD     TXH,4         SAVE FOR CHECKING

      00040  0774 00 1 00000  RESET  AXT     **,1          NOW RESET THE BUFFER STORE POINTER
      00041  0634 00 1 00016         SXA     BUFF,1        ..

      00042  1 00034 1 00043  LOOP   TXI     *+1,1,CLTH    STEP TO NEXT CARD
      00043  3 00000 1 00053  TXH    TXH     ENDRS,1,**    CHECK FOR ALL CARDS DONE
      00044  0634 00 1 00046         SXA     MOVOUT,1      STORE BUFFER ADDRESS

      00045  0774 00 4 00034         AXT     CLTH,4        FAST MOVE AGAIN
      00046  0443 00 4 00000  MOVOUT DLD     **,4          ..
      00047 -0603 00 4 77462         DST     CARD+CLTH,4   ..
      00050  2 00002 4 00046         TIX     MOVOUT,4,2    ..

      00051                          CALL    $WRBSS        WRITE OUT CARD
      00051  0074 00 4 00000         TSX     $WRBSS,4                                                         .002
      00052  0020 00 0 00042         TRA     LOOP          AND GO TO NEXT CARD

                       00053  ENDRS  SYN     *

      00053  0774 00 4 00000  RX4    AXT     **,4          RESTORE XRS
      00054  0774 00 1 00000  RX1    AXT     **,1          ..
      00055  0020 00 4 00001         TRA     1,4           AND RETURN
1            SVBSS - SAVE AND RESTORE BSS CARD IMAGES.                                           PAGE 4
                           RSETB - RESET THE BUFFERS FOR NEXT PROGRAM.

      00056  0634 00 4 00061  RSETB  SXA     RSX4,4        SAVE XR4

      00057  0534 00 4 00040         LXA     RESET,4       GET RESET ADDRESS FOR BUFFER
      00060  0634 00 4 00016         SXA     BUFF,4        ..

      00061  0774 00 4 00000  RSX4   AXT     **,4          RESTORE XR4
      00062  0020 00 4 00001         TRA     1,4           AND RETURN
1            SVBSS - SAVE AND RESTORE BSS CARD IMAGES.                                           PAGE 5
                           STORAGE AND CONSTANTS.

      00063  0 00000 0 00070  LTH    PZE     N*CLTH

                       77426         COMMON  27
                       77426  CARD   COMMON  1

      00064                          RMT     *             REMOTE SEQUENCES.
      00064  0101 00 0 00066  GETMEM TIA     =HGETMEM                                                         .002
      00065  0101 00 0 00067  SETMEM TIA     =HSETMEM                                                         .002

                                     END

        LITERALS
      00066  272563442544
      00067  622563442544
1            SVBSS - SAVE AND RESTORE BSS CARD IMAGES.                                           PAGE 1
                        POST PROCESSOR ASSEMBLY DATA

       77425 IS THE LAST LOCATION NOT USED BY THIS PROGRAM
         70 IS THE FIRST LOCATION NOT USED BY THIS PROGRAM

0REFERENCES TO DEFINED SYMBOLS
          2      N     1,   63
         63    LTH    11
         54    RX1    35
         53    RX4    34
         32    SV4     1
         43    TXH    37
         16   BUFF     7,   20,   36,   41,   60
      77426   CARD    27,   47,   64
         34   CLTH     1,   17,   26,   27,   42,   45,   47,   63
         42   LOOP    52
         61   RSX4    56
         53  ENDRS    43,   53
         30  MOVIN    21
         40  RESET    10,   57
         34  RSBSS     0
         56  RSETB     0
          2  SUBSQ    15
          1  SVBSS     0
          0  WRBSS    51
         64 GETMEM     3
         22 MEMBND    13,   23
         46 MOVOUT    44,   50
         26 NOXTND    22
         65 SETMEM    14,   25

0 NO ERROR IN ABOVE ASSEMBLY.
1            RDBSS - BSS FILE READING ROUTINE.                                                   PAGE 1

                                             NOEL I. MORRIS - 6/21/65

                                     UNLIST
 M                            CALL   MACRO   SUBR,LIST


                       00003         ENTRY   RDBSS


        TRANSFER VECTOR
      00000  222651252124     BFREAD
      00001  246242255160     DSKER
      00002  462321222360     OCABC

      00003  0634 00 4 00073  RDBSS  SXA     XR4,4         SAVE XRS

      00004  0520 00 0 77424  WZERO  ZET     FILN-1        CHECK FOR SQZBSS FILE
      00005  0020 00 0 00017         TRA     SQZ           ..

      00006                          CALL    $BFREAD(FILN,BSS(BUFF,,28)EOF,EOFCT,$DSKER)
      00006  0074 00 4 00000         TSX     $BFREAD,4                                                        .002
      00007  3 00000 0 77425         PAR     FILN                                                             .004
      00010  3 00000 0 00114         PAR     BSS                                                              .004
      00011  3 00034 0 77426         PAR     BUFF,,28                                                         .004
      00012  3 00000 0 00111         PAR     EOF                                                              .004
      00013  3 00000 0 00113         PAR     EOFCT                                                            .004
      00014  3 00000 0 00001         PAR     $DSKER                                                           .004
      00015  0441 00 0 77426         LDI     BUFF          GET FIRST WORD IN SI
      00016  0020 00 0 00050         TRA     CHECK         GO CHECK CHECKSUM

      00017  0774 00 4 00034  SQZ    AXT     28,4          ZERO OUT THE READ BUFFER
      00020  0600 00 4 77462         STZ     BUFF+28,4     ..
      00021  2 00001 4 00020         TIX     *-1,4,1       ..

      00022                          CALL    $BFREAD(FILN,=HSQZBSS(BUFF,,1)EOF,EOFCT,$DSKER)
      00022  0074 00 4 00000         TSX     $BFREAD,4                                                        .002
      00023  3 00000 0 77425         PAR     FILN                                                             .004
      00024  3 00000 0 00134         PAR     =HSQZBSS                                                         .004
      00025  3 00001 0 77426         PAR     BUFF,,1                                                          .004
      00026  3 00000 0 00111         PAR     EOF                                                              .004
      00027  3 00000 0 00113         PAR     EOFCT                                                            .004
      00030  3 00000 0 00001         PAR     $DSKER                                                           .004

      00031  0441 00 0 77426         LDI     BUFF          GET FIRST WORD IN SI
      00032 -0046 00 0 00000         PIA                   IN AC
      00033 -0320 00 0 00130         ANA     =O77000000    MASK WORDCOUNT
      00034 -0734 00 4 00000         PDX     ,4            WORDCOUNT IN XR4
      00035 -0056 00  200000         LNT     200000        CHECK FOR REL. BIN CARD
      00036  1 00001 4 00040         TXI     *+2,4,1       MUST BE A PROGRAM CARD
      00037  1 00003 4 00040         TXI     *+1,4,3       RELOCATABLE INSTRUCTION CARD
      00040 -0634 00 4 00044         SXD     VRR+3,4       STORE FOR READING REST OF CARD

      00041                   VRR    CALL    $BFREAD(FILN,=HSQZBSS(BUFF+1,,**)EOF,EOFCT,$DSKER)
      00041  0074 00 4 00000         TSX     $BFREAD,4                                                        .002
      00042  3 00000 0 77425         PAR     FILN                                                             .004
      00043  3 00000 0 00134         PAR     =HSQZBSS                                                         .004
1            RDBSS - BSS FILE READING ROUTINE.                                                   PAGE 2

      00044  3 00000 0 77427         PAR     BUFF+1,,**                                                       .004
      00045  3 00000 0 00111         PAR     EOF                                                              .004
      00046  3 00000 0 00113         PAR     EOFCT                                                            .004
      00047  3 00000 0 00001         PAR     $DSKER                                                           .004

      00050 -0046 00 0 00000  CHECK  PIA                   FIRST WORD IN AC
      00051 -0320 00 0 00130         ANA     =O77000000    MASK THE WORD COUNT
      00052 -0734 00 4 00000         PDX     ,4            WORD COUNT IN XR4
      00053 -3 00000 4 00004         TXL     WZERO,4,0     TRY AGAIN IF WORD COUNT ZERO

      00054 -0056 00  400000         LNT     400000        CHECK FOR PROGRAM CARD
      00055  0020 00 0 00062         TRA     *+5           ..
      00056 -0500 00 0 77432         CAL     BUFF+4        GET ENTRY NAME
      00057 -0100 00 0 00061         TNZ     *+2           CHECK FOR MAIN PROGRAM
      00060 -0500 00 0 00136         CAL     =H(MAIN)      SET ENTRY TO '(MAIN)'
      00061  0602 00 0 00121         SLW     PGN           ..

      00062 -0056 00  100000         LNT     100000        CHECK FOR IGNORE CHECKSUM PUNCH
      00063 -0520 00 0 77427         NZT     BUFF+1        ALSO BLANK CHECKSUM
      00064  0020 00 0 00073         TRA     IGCHK

      00065  0774 00 4 00026         AXT     22,4          ADD UP CHECKSUM
      00066 -0500 00 0 77426         CAL     BUFF          ..
      00067  0361 00 4 77456         ACL     BUFF+24,4     ..
      00070  2 00001 4 00067         TIX     *-1,4,1       ..
      00071  0322 00 0 77427         ERA     BUFF+1        XOR IN THE CHECKSUM TO COMPARE
      00072 -0100 00 0 00075         TNZ     CHKERR        NON-ZERO ON ERROR

                       00073  IGCHK  SYN     *

      00073  0774 00 4 00000  XR4    AXT     **,4          RESTORE XRS
      00074  0020 00 4 00002         TRA     2,4           RETURN

      00075 -0054 00  400000  CHKERR LFT     400000        CHECK FOR PROG. CARD
      00076  0020 00 0 00106         TRA     P.C.          ..

      00077                          CALL    $OCABC(BUFF)  CONVERT LOAD ADDRESS TO OCTAL BCD
      00077  0074 00 4 00002         TSX     $OCABC,4                                                         .002
      00100  3 00000 0 77426         PAR     BUFF                                                             .004
      00101  0560 00 0 00133         LDQ     =H            BLANK OUT SECOND WORD

      00102 -0603 00 0 00125  DST    DST     MSG+8         STORE INTO MESSAGE
      00103                          CALL    WRFLX((MSG,,10))  PRINT ERROR MESSAGE
      00103  0074 00 4 00127         TSX     WRFLX,4                                                          .002
      00104  3 00012 0 00115         PAR     MSG,,10                                                          .004
      00105  0020 00 0 00073         TRA     IGCHK         KEEP GOING

      00106  0500 00 0 00132  P.C.   CLA     =HPROGRA      SET LOAD ADDRESS TO
      00107  0560 00 0 00131         LDQ     =HM CARD      'PROGRAM CARD'
      00110  0020 00 0 00102         TRA     DST           ..

                       00111  EOF    SYN     *
      00111  0522 00 0 00073         XEC     XR4           AND XRS
      00112  0020 60 4 00001         TRA*    1,4           EOF RETURN
1            RDBSS - BSS FILE READING ROUTINE.                                                   PAGE 3

      00113  0 00000 0 00000  EOFCT  PZE
      00114  606060226262     BSS    BCI     1,   BSS
      00115  233025234262     MSG    BCI     4,CHECKSUM ERROR IN PROG.
      00116  644460255151
      00117  465160314560
      00120  475146273360
      00121  0 00000 0 00000  PGN    PZE
      00122  736043462124            BCI     2,, LOAD ADDRE
      00123  602124245125
      00124  626260135757            VFD     H12/SS,O6/60,H6/=,O12/5757
      00125                          BSS     2

                       77426         COMMON  27
                       77426  BUFF   COMMON  1
                       77425  FILN   COMMON  2

      00127                          RMT     *             REMOTE SEQUENCES
      00127  0101 00 0 00135  WRFLX  TIA     =HWRFLX                                                          .002
                                     END

        LITERALS
      00130  000077000000
      00131  446023215124
      00132  475146275121
      00133  606060606060
      00134  625071226262
      00135  665126436760
      00136  744421314534
1            RDBSS - BSS FILE READING ROUTINE.                                                   PAGE 1
                        POST PROCESSOR ASSEMBLY DATA

       77423 IS THE LAST LOCATION NOT USED BY THIS PROGRAM
        137 IS THE FIRST LOCATION NOT USED BY THIS PROGRAM

0REFERENCES TO DEFINED SYMBOLS
        114    BSS    10
        102    DST   110
        111    EOF    12,   26,   45,  111
        115    MSG   102,  104
        121    PGN    61
         17    SQZ     5
         41    VRR    40
         73    XR4     3,  111
      77426   BUFF    11,   15,   20,   25,   31,   44,   56,   63,   66,   67,   71,  100,  127
      77425   FILN     4,    7,   23,   42,  127
        106   P.C.    76
         50  CHECK    16
          1  DSKER    14,   30,   47
        113  EOFCT    13,   27,   46
         73  IGCHK    64,   73,  105
          2  OCABC    77
          3  RDBSS     0
        127  WRFLX   103
          4  WZERO    53
          0 BFREAD     6,   22,   41
         75 CHKERR    72

0 NO ERROR IN ABOVE ASSEMBLY.
1            DELETE ALL VERSIONS OF AN OLD FILE.                                                 PAGE 1

                                             NOEL I. MORRIS - 6/22/65

                                     UNLIST
 M                            CALL   MACRO   SUBR,LIST


                       00001         ENTRY   DELETE


      00000  462351222360     OCRBC

      00001  0634 00 4 00035  DELETE SXA     XR4,4         SAVE XRS
      00002  0604 00 0 00125         STI     SVSI          SAVE SI
      00003  0600 00 0 00122         STZ     MODE          SET MODE TO 'P'

      00004 -0500 60 4 00001         CAL*    1,4           GET FILE NAME
      00005  0602 00 0 00107         SLW     FNAM          ..
      00006 -0500 60 4 00002         CAL*    2,4           ..
      00007  0602 00 0 00111         SLW     FNAM+2        ..

      00010 -0500 60 4 00003         CAL*    3,4           GET DELETION PRINT SWITCH
      00011  0602 00 0 00124         SLW     PSW           ..

      00012                          CALL    FSTATE(FNAM,FNAM+2(BUFF,,2)FSERR,ERCODE)
      00012  0074 00 4 00126         TSX     FSTATE,4                                                         .002
      00013  3 00000 0 00107         PAR     FNAM                                                             .004
      00014  3 00000 0 00111         PAR     FNAM+2                                                           .004
      00015  3 00002 0 00121         PAR     BUFF,,2                                                          .004
      00016  3 00000 0 00070         PAR     FSERR                                                            .004
      00017  3 00000 0 00123         PAR     ERCODE                                                           .004

      00020  0441 00 0 00122         LDI     MODE          GET MODE BITS
      00021 -0054 00  400000         LFT     400000        CHECK FOR LINKED FILE
      00022  0020 00 0 00073         TRA     LINKD         IS LINKED, WILL NOT DELETE

      00023  0054 00  000134         RFT     134           CHECK FOR READ-ONLY/PROTECTED, ETC.
      00024  0020 00 0 00040         TRA     ASK           PROTECTED, ASK FOR DELETE

      00025                   DEL    CALL    DELFIL(FNAM,FNAM+2,NODEL)
      00025  0074 00 4 00127         TSX     DELFIL,4                                                         .002
      00026  3 00000 0 00107         PAR     FNAM                                                             .004
      00027  3 00000 0 00111         PAR     FNAM+2                                                           .004
      00030  3 00000 0 00075         PAR     NODEL                                                            .004

      00031  0520 00 0 00124         ZET     PSW           CHECK FOR DELETION PRINT
      00032                          CALL    WRFLX((DTOF,,6)) PRINT DELETION COMMENT
      00032  0074 00 4 00130         TSX     WRFLX,4                                                          .002
      00033  3 00006 0 00104         PAR     DTOF,,6                                                          .004

      00034 -0500 00 0 00122  GONE   CAL     MODE          GET THE MODE
      00035  0774 00 4 00000  XR4    AXT     **,4          RESTORE XRS
      00036  0441 00 0 00125         LDI     SVSI          AND THE SI
      00037  0020 00 4 00005         TRA     5,4           RETURN
1            DELETE ALL VERSIONS OF AN OLD FILE.                                                 PAGE 2

      00040                   ASK    CALL    $OCRBC(MODE)  CONVERT TO BCD
      00040  0074 00 4 00000         TSX     $OCRBC,4                                                         .002
      00041  3 00000 0 00122         PAR     MODE                                                             .004
      00042 -0501 00 0 00151         ORA     =O605757000000 MASK PROPERLY
      00043  0602 00 0 00112         SLW     BCMODE        AND STORE IN COMMENT

      00044                          CALL    WRFLXA((FNAM-1,,11))
      00044  0074 00 4 00131         TSX     WRFLXA,4                                                         .002
      00045  3 00013 0 00106         PAR     FNAM-1,,11                                                       .004

      00046                          CALL    RDFLXA((BUFF,,1))
      00046  0074 00 4 00132         TSX     RDFLXA,4                                                         .002
      00047  3 00001 0 00121         PAR     BUFF,,1                                                          .004

      00050 -0500 00 0 00121         CAL     BUFF          LOOK AT ANSWER
      00051  0771 00 0 00022         ARS     18            ..
      00052  0322 00 0 00143         ERA     =H000YES      CHECK FOR SPECIFIC 'YES'
      00053 -0100 00 0 00075         TNZ     NODEL         NON-ZERO IF 'NO' OR GARBAGE

      00054                          CALL    CHFILE(FNAM,FNAM+2,=1,=-0,=-0,NODEL)
      00054  0074 00 4 00133         TSX     CHFILE,4                                                         .002
      00055  3 00000 0 00107         PAR     FNAM                                                             .004
      00056  3 00000 0 00111         PAR     FNAM+2                                                           .004
      00057  3 00000 0 00141         PAR     =1                                                               .004
      00060  3 00000 0 00147         PAR     =-0                                                              .004
      00061  3 00000 0 00147         PAR     =-0                                                              .004
      00062  3 00000 0 00075         PAR     NODEL                                                            .004

      00063                          CALL    DELFIL(FNAM,FNAM+2,NODEL) DELETE IT NOW
      00063  0074 00 4 00127         TSX     DELFIL,4                                                         .002
      00064  3 00000 0 00107         PAR     FNAM                                                             .004
      00065  3 00000 0 00111         PAR     FNAM+2                                                           .004
      00066  3 00000 0 00075         PAR     NODEL                                                            .004
      00067  0020 00 0 00034         TRA     GONE          ..

      00070 -0500 00 0 00123  FSERR  CAL     ERCODE        GET FSTATE ERROR CODE
      00071  0402 00 0 00142         SUB     =3            ANYTHING ELSE THAN 3
      00072  0100 00 0 00034         TZE     GONE          IS A LINK ERROR

      00073                   LINKD  COMENT  LNKMSG,3,(FILE IS A LINK.),A
      00073  0074 00 4 00131         TSX     WRFLXA,4                                                         .003
      00074  3 00003 0 00134         PAR     LNKMSG,,3                                                        .005
                                                           DO NOT DELETE A LINK

      00075                   NODEL  CALL    WRFLXA((FNAM,,3))
      00075  0074 00 4 00131         TSX     WRFLXA,4                                                         .002
      00076  3 00003 0 00107         PAR     FNAM,,3                                                          .004
      00077                          COMENT  NOT,2,( NOT DELETED)
      00077  0074 00 4 00130         TSX     WRFLX,4                                                          .003
      00100  3 00002 0 00137         PAR     NOT,,2                                                           .005

      00101  0522 00 0 00035         XEC     XR4           RESTORE XRS
      00102  0441 00 0 00125         LDI     SVSI          AND SI
      00103  0020 60 4 00004         TRA*    4,4           ERROR RETURN
1            DELETE ALL VERSIONS OF AN OLD FILE.                                                 PAGE 3

      00104  242543256325     DTOF   BCI     3,DELETED THE OLDER
      00107  000000000000     FNAM   VFD     36/0,O36/576057575757,36/0
      00112  606060606060     BCMODE BCI     6,       MODE. DO YOU WANT TO DELETE I
      00120  637360605757            VFD     H6/T,O30/7360605757
      00121  0 00000 0 00000  BUFF   PZE
      00122  0 00000 0 00000  MODE   PZE
      00123  0 00000 0 00000  ERCODE PZE
      00124  0 00000 0 00000  PSW    PZE
      00125  0 00000 0 00000  SVSI   PZE

      00126                          RMT     *             REMOTE SEQUENCES
      00126  0101 00 0 00146  FSTATE TIA     =HFSTATE                                                         .002
      00127  0101 00 0 00145  DELFIL TIA     =HDELFIL                                                         .002
      00130  0101 00 0 00153  WRFLX  TIA     =HWRFLX                                                          .002
      00131  0101 00 0 00152  WRFLXA TIA     =HWRFLXA                                                         .002
      00132  0101 00 0 00150  RDFLXA TIA     =HRDFLXA                                                         .002
      00133  0101 00 0 00144  CHFILE TIA     =HCHFILE                                                         .002
      00134  263143256031     LNKMSG BCI     3,FILE IS A LINK.                                                .002
      00137  604546636024     NOT    BCI     2, NOT DELETED                                                   .002

                                     END

        LITERALS
      00141  000000000001
      00142  000000000003
      00143  000000702562
      00144  233026314325
      00145  242543263143
      00146  266263216325
      00147  400000000000
      00150  512426436721
      00151  605757000000
      00152  665126436721
      00153  665126436760
1            DELETE ALL VERSIONS OF AN OLD FILE.                                                 PAGE 1
                        POST PROCESSOR ASSEMBLY DATA

        154 IS THE FIRST LOCATION NOT USED BY THIS PROGRAM

0REFERENCES TO DEFINED SYMBOLS
         40    ASK    24
         25    DEL
        137    NOT   100
        124    PSW    11,   31
         35    XR4     1,  101
        121   BUFF    15,   47,   50
        104   DTOF    33
        107   FNAM     5,    7,   13,   14,   26,   27,   45,   55,   56,   64,   65,   76
         34   GONE    67,   72
        122   MODE     3,   20,   34,   41
        125   SVSI     2,   36,  102
         70  FSERR    16
         73  LINKD    22
         75  NODEL    30,   53,   62,   66
          0  OCRBC    40
        130  WRFLX    32,   77
        112 BCMODE    43
        133 CHFILE    54
          1 DELETE     0
        127 DELFIL    25,   63
        123 ERCODE    17,   70
        126 FSTATE    12
        134 LNKMSG    74
        132 RDFLXA    46
        131 WRFLXA    44,   73,   75

0 NO ERROR IN ABOVE ASSEMBLY.
1            DISK ERROR SUBROUTINE - CALLS PRNTER VIA NEXCOM.                                    PAGE 1

                                             REVISED 9/14/65 - NOEL I. MORRIS

                                     UNLIST
 M                            CALL   MACRO   SUBR,LIST


                       00000         ENTRY   DSKER

      00000 -0500 00 0 00006  DSKER  CAL     =HPRNTER
      00001  0560 00 0 00004         LDQ     =O-71
      00002                          CALL    NEXCOM
      00002  0074 00 4 00003         TSX     NEXCOM,4                                                         .002

      00003                          RMT     *             REMOTE SEQUENCES
      00003  0101 00 0 00005  NEXCOM TIA     =HNEXCOM                                                         .002

                                     END

        LITERALS
      00004  400000000071
      00005  452567234644
      00006  475145632551
1            DISK ERROR SUBROUTINE - CALLS PRNTER VIA NEXCOM.                                    PAGE 1
                        POST PROCESSOR ASSEMBLY DATA

          7 IS THE FIRST LOCATION NOT USED BY THIS PROGRAM

0REFERENCES TO DEFINED SYMBOLS
          0  DSKER     0
          3 NEXCOM     2

0 NO ERROR IN ABOVE ASSEMBLY.
