1     MAD PROGRAM LISTING ... ... ...                 FILE  EDITCD   MAD            09/18/68    0946.1
-
                 ..  EDIT BY CONTEXT PROGRAM.                                                          LM00001
                                                                                                       LM00002
                 ..  J. H. SALTZER, NOVEMBER, 1964.                                                    LM00003
                 ..  LAST MODIFICATION, APRIL, 1967.                                                   LM00004
                 .. MODIFIED SEPTEMBER, 1967 BY PETER R. BOS                                           LM00005
                 ..  TO USE CARD IMAGE CONVERSION PACKAGE.                                             LM00006
                                                                                                       LM00007
                 .. DECLARATIONS.                                                                      LM00008
                                                                                                       LM00009
                  VECTOR VALUES FENCE = 777777777777K                                             *001 LM00010
                  VECTOR VALUES IN = $(INPUT$                                                     *002 LM00011
                  VECTOR VALUES IN1 = $(INPT1$                                                    *003 LM00012
                  VECTOR VALUES BRIEF = 0B                                                        *004 LM00013
                  VECTOR VALUES OK = 0B                                                           *005 LM00014
                  VECTOR VALUES BUFSIZ = 360                                                      *006 LM00015
                  DIMENSION LINE(361), EDLIN(361)                                                 *007 LM00016
                  DIMENSION REDS(1), BLACKS(1)                                                    *008 LM00017
                  DIMENSION ATNAM(2)                                                              *009 LM00018
                  NORMAL MODE IS INTEGER                                                          *010 LM00019
                  BOOLEAN OK, GLOBAL, FSTPAS                                                      *011 LM00020
                  BOOLEAN CHNG, CLRSW, BRIEF                                                      *012 LM00021
                                                                                                       LM00022
      . . .      . . . . . . . . . . . . . . . . . . . . . . . . . . . . . .                           LM00023
                                                                                                       LM00024
                 ..  INITIALIZATION.                                                                   LM00025
                                                                                                       LM00026
                  SECOND NAME OF INTERMEDIATE FILES NOW PROGNO                                         LM00027
                                                                                                       LM00028
                  WHOAMI.(ATNAM(2)...2)                                                           *013 LM00029
                  FI = ATNAM(1)                                                                   *014 LM00030
                  GETVAL.(BLANK, TAB, DEFALT, MCHNG, REDS(1), BLACKS(1))                          *015 LM00031
                  CLRNAM.(IN, FI, CHN, 1B)                                                        *016 LM00032
                  CLRNAM.(IN1, FI, CHN, 1B)                                                       *017 LM00033
                  ASSIGN.(IN, FI)                                                                 *018 LM00034
                  OLDNAM = COMARG.(1)                                                             *019 LM00035
                  OLDSEC = DEFALT                                                                 *020 LM00036
                  WHENEVER OLDNAM .E. FENCE                                                       *021 LM00037
                    CDINIT.                                                                       *022 LM00038
                    TRANSFER TO INSERT                                                            *023 LM00039
                  END OF CONDITIONAL                                                              *024 LM00040
                  OLDSEC = COMARG.(2)                                                             *025 LM00041
                  WHENEVER OLDSEC .E. FENCE, OLDSEC = DEFALT                                      *026 LM00042
                  CDINIT.                                                                         *027 LM00043
                  SEEK.(OLDNAM, OLDSEC, INSERT)                                                   *028 LM00044
                  FSTPAS = 1B                                                                     *029 LM00045
                  OK = 1B                                                                         *030 LM00046
                                                                                                       LM00047
                 ..  ENTER EDIT MODE.                                                                  LM00048
                                                                                                       LM00049
      EDIT        WHENEVER .NOT. BRIEF, PRINT COMMENT $0E1D1I1T$                                  *031 LM00050
                                                                                                       LM00051
                 ..  OBTAIN NEXT REQUEST.                                                              LM00052
                                                                                                       LM00053
      NXRQ        COUNT = TYPEIN.(EDLIN, BUFSIZ)                                                  *032 LM00054
                  WHENEVER EDLIN(1) .E. MCHNG .AND. COUNT .L. 3                                   *033 LM00055
                1      , TRANSFER TO INSERT                                                       *033 LM00056
                  WHENEVER COUNT .L. 2, TRANSFER TO NXRQ                                          *034 LM00057
                  EDCT = 0                                                                        *035 LM00058
                  CWD = GET.(0)                                                                   *036 LM00059
                                                                                                       LM00060
                  WHENEVER CWD .E. $DELETE$ .OR. CWD .E. $     D$                                 *037 LM00061
                    N = BIN.(GET.(0))                                                             *038 LM00062
                    THROUGH DREAD, FOR I = 1, 1, I .GE. N                                         *039 LM00063
       DREAD          LENGTH = READ.(LINE, BUFSIZ, EOF)                                           *040 LM00064
                    LENGTH = 0                                                                    *041 LM00065
                                                                                                       LM00066
                  OR WHENEVER CWD .E. $  NEXT$ .OR. CWD .E. $     N$                              *042 LM00067
                    N = BIN.(GET.(0))                                                             *043 LM00068
                    WHENEVER N .E. 0, N = 1                                                       *044 LM00069
                    THROUGH NXT, FOR I = 1, 1, I .G. N                                            *045 LM00070
                      WRITE.(LINE, LENGTH)                                                        *046 LM00071
                      WHENEVER .NOT. OK, CLSOUT.                                                  *047 LM00072
                      LENGTH = READ.(LINE, BUFSIZ, EOF)                                           *048 LM00073
       NXT            CONTINUE                                                                    *049 LM00074
                                                                                                       LM00075
                  OR WHENEVER CWD .E. $INSERT$ .OR. CWD .E. $     I$                              *050 LM00076
                    WRITE.(LINE, LENGTH)                                                          *051 LM00077
                    TRANSFER TO RETYPE                                                            *052 LM00078
                                                                                                       LM00079
      INSERT        WHENEVER .NOT. BRIEF, PRINT COMMENT $0I1N1P1U1T$                              *053 LM00080
       INPUT        COUNT = TYPEIN.(EDLIN, BUFSIZ)                                                *054 LM00081
                    WHENEVER COUNT .L. 3 .AND. EDLIN(1) .E. MCHNG                                 *055 LM00082
                1      , TRANSFER TO EDIT                                                         *055 LM00083
                    WRITE.(LINE, LENGTH)                                                          *056 LM00084
                    THROUGH MVLP, FOR I = 1, 1, I .G. COUNT                                       *057 LM00085
       MVLP           LINE(I) = EDLIN(I)                                                          *058 LM00086
                    LENGTH = COUNT                                                                *059 LM00087
                    TRANSFER TO INPUT                                                             *060 LM00088
                                                                                                       LM00089
                  OR WHENEVER CWD .E. $BOTTOM$ .OR. CWD .E. $     B$                              *061 LM00090
                    WRITE.(LINE, LENGTH)                                                          *062 LM00091
                    LENGTH = 0                                                                    *063 LM00092
                    WHENEVER OK, BOTTOM.                                                          *064 LM00093
                    TRANSFER TO INSERT                                                            *065 LM00094
                                                                                                       LM00095
                  OR WHENEVER CWD .E. $APPEND$ .OR. CWD .E. $     A$                              *066 LM00096
                    WHENEVER LENGTH .G. 0, LENGTH = LENGTH - 1                                    *067 LM00097
                    TRANSFER TO APPEND                                                            *068 LM00098
                                                                                                       LM00099
                  OR WHENEVER CWD .E. $RETYPE$ .OR. CWD .E. $     R$                              *069 LM00100
       RETYPE       LENGTH = 0                                                                    *070 LM00101
      APPEND        THROUGH RPLC, FOR EDCT = EDCT + 1, 1, EDCT .G. COUNT                          *071 LM00102
                      LENGTH = LENGTH + 1                                                         *072 LM00103
       RPLC           LINE(LENGTH) = EDLIN(EDCT)                                                  *073 LM00104
                                                                                                       LM00105
                  OR WHENEVER CWD .E. $ ERASE$ .OR. CWD .E. $     E$                              *074 LM00106
                    WHENEVER EDLIN(EDCT+1) .NE. BLANK, SETERS.(EDLIN(EDCT+1))                     *075 LM00107
                                                                                                       LM00108
                  OR WHENEVER CWD .E. $  KILL$ .OR. CWD .E. $     K$                              *076 LM00109
                    WHENEVER EDLIN(EDCT+1) .NE. BLANK, SETKIL.(EDLIN(EDCT+1))                     *077 LM00110
                                                                                                       LM00111
                  OR WHENEVER CWD .E. $  BKSP$ .OR. CWD .E. $    BK$                              *078 LM00112
                    WHENEVER EDLIN(EDCT+1) .NE. BLANK, SETBK.(EDLIN(EDCT+1))                      *079 LM00113
                                                                                                       LM00114
                  OR WHENEVER CWD .E. $VERIFY$ .OR. CWD .E. $     V$                              *080 LM00115
                    CWD = GET.(0)                                                                 *081 LM00116
                    WHENEVER CWD .E. $    ON$                                                     *082 LM00117
                      BRIEF = 0B                                                                  *083 LM00118
                    OR WHENEVER CWD .E. $   OFF$                                                  *084 LM00119
                      BRIEF = 1B                                                                  *085 LM00120
                    END OF CONDITIONAL                                                            *086 LM00121
                                                                                                       LM00122
                  OR WHENEVER CWD .E. $LOCATE$ .OR. CWD .E. $     L$                              *087 LM00123
                    LOCATE = 1                                                                    *088 LM00124
                    TRANSFER TO FIND                                                              *089 LM00125
                                                                                                       LM00126
                  OR WHENEVER CWD .E. $  FIND$ .OR. CWD .E. $     F$                              *090 LM00127
                    LOCATE = 0                                                                    *091 LM00128
      FIND          WHENEVER EDCT+1 .GE. COUNT                                                    *092 LM00129
                      COUNT = OCOUNT                                                              *093 LM00130
                      EDCT = EDCT + 1                                                             *094 LM00131
                    END OF CONDITIONAL                                                            *095 LM00132
                    OCOUNT = COUNT                                                                *096 LM00133
       NTFND        WRITE.(LINE, LENGTH)                                                          *097 LM00134
                    WHENEVER  .NOT. OK, CLSOUT.                                                   *098 LM00135
                    LENGTH = READ.(LINE, BUFSIZ, EOF)                                             *099 LM00136
                    THROUGH LOCSCN, FOR K=0, 1,K.G.LOCATE*(LENGTH-COUNT+EDCT)                     *100 LM00137
                      J = K                                                                       *101 LM00138
                      THROUGH LOOK, FOR I = EDCT+1, 1, I .GE. COUNT                               *102 LM00139
                        J = J + 1                                                                 *103 LM00140
       TAGN             WHENEVER LINE(J) .E. EDLIN(I), TRANSFER TO LOOK                           *104 LM00141
                        WHENEVER (LINE(J).E. TAB) .AND. (EDLIN(I) .E. BLANK)                      *105 LM00142
                1        , TRANSFER TO LOOK                                                       *105 LM00143
                        WHENEVER EDLIN(I-1) .NE. BLANK .OR. I .E. EDCT + 1                        *106 LM00144
                1        , TRANSFER TO LOCSCN                                                     *106 LM00145
                        WHENEVER LINE(J) .NE. BLANK .AND. LINE(J) .NE. TAB                        *107 LM00146
                1        , TRANSFER TO LOCSCN                                                     *107 LM00147
                        J = J + 1                                                                 *108 LM00148
                        TRANSFER TO TAGN                                                          *109 LM00149
       LOOK             WHENEVER I .E. EDCT+1, FNDST = J                                          *110 LM00150
                      FNDND = J                                                                   *111 LM00151
                      WHENEVER .NOT. BRIEF, PRNT.(FNDST, FNDND)                                   *112 LM00152
                      TRANSFER TO NXRQ                                                            *113 LM00153
        LOCSCN        CONTINUE                                                                    *114 LM00154
                    TRANSFER TO NTFND                                                             *115 LM00155
                                                                                                       LM00156
                  OR WHENEVER CWD .E. $ PRINT$ .OR. CWD .E. $     P$                              *116 LM00157
                    NPRNT = BIN.(GET.(0))                                                         *117 LM00158
      PNTLP         WHENEVER LENGTH .E. 0                                                         *118 LM00159
                      PRINT COMMENT $0N1O0 1C1U1R1R1E1N1T0 1L1I1N1E0.$                            *119 LM00160
                    OTHERWISE                                                                     *120 LM00161
                      TYPOUT.(LINE, LENGTH)                                                       *121 LM00162
                    END OF CONDITIONAL                                                            *122 LM00163
                    NPRNT = NPRNT - 1                                                             *123 LM00164
                    WHENEVER NPRNT .G. 0                                                          *124 LM00165
                      WRITE.(LINE, LENGTH)                                                        *125 LM00166
                      LENGTH = READ.(LINE, BUFSIZ, EOF)                                           *126 LM00167
                      TRANSFER TO PNTLP                                                           *127 LM00168
                    END OF CONDITIONAL                                                            *128 LM00169
                                                                                                       LM00170
                  OR WHENEVER CWD .E. $   TOP$ .OR. CWD .E. $     T$                              *129 LM00171
       TOPLP        WRITE.(LINE, LENGTH)                                                          *130 LM00172
                    WHENEVER OK, BOTTOM.                                                          *131 LM00173
                    CLSOUT.                                                                       *132 LM00174
                                                                                                       LM00175
                  OR WHENEVER CWD .E. $CHANGE$ .OR. CWD .E. $     C$                              *133 LM00176
                                                                                                       LM00177
      . . .       . . . . . . . . . . . . . . . . . . . . . . . . . . . . . .                          LM00178
                                                                                                       LM00179
                 ..  DELINEATE QUOTED STRINGS.                                                         LM00180
                                                                                                       LM00181
                    EDCT = EDCT+1                                                                 *134 LM00182
                    QUOTE = EDLIN(EDCT)                                                           *135 LM00183
                    STR1 = EDCT                                                                   *136 LM00184
      QLOOP         THROUGH QLOOP, FOR EDCT = EDCT+1, 1,                                          *137 LM00185
                1      (EDLIN(EDCT) .E. QUOTE) .OR. (EDCT .GE. COUNT)                             *137 LM00186
                    STR2 = EDCT                                                                   *138 LM00187
      QLOOP1        THROUGH QLOOP1, FOR EDCT = EDCT+1, 1,                                         *139 LM00188
                1      (EDLIN(EDCT) .E. QUOTE) .OR. (EDCT .GE. COUNT)                             *139 LM00189
                    EST2 = EDCT                                                                   *140 LM00190
                                                                                                       LM00191
                 .. CHECK FOR ITERATION COUNT AND GLOBAL REQUEST.                                      LM00192
                                                                                                       LM00193
                    EDCT = EDCT + 1                                                               *141 LM00194
                    TEM = 1                                                                       *142 LM00195
                    GLOBAL = 0B                                                                   *143 LM00196
      ARGLP         CWD = GET.(0)                                                                 *144 LM00197
                    WHENEVER CWD .E. $ $                                                          *145 LM00198
                      TRANSFER TO SHIFT                                                           *146 LM00199
                    OR WHENEVER CWD .E. $     G$                                                  *147 LM00200
                      WHENEVER STR2 .NE. STR1+1, GLOBAL = 1B                                      *148 LM00201
                    OTHERWISE                                                                     *149 LM00202
                      TEM = BIN.(CWD)                                                             *150 LM00203
                    END OF CONDITIONAL                                                            *151 LM00204
                    TRANSFER TO ARGLP                                                             *152 LM00205
                                                                                                       LM00206
                 .. SHIFT LINE TO BOTTOM OF BUFFER.                                                    LM00207
                                                                                                       LM00208
       SHIFT        THROUGH MVDWN, FOR I = LENGTH, -1, I .L. 1                                    *153 LM00209
      MVDWN           LINE(BUFSIZ+I-LENGTH) = LINE(I)                                             *154 LM00210
                    DOWN = BUFSIZ-LENGTH+1                                                        *155 LM00211
                    UP = 0                                                                        *156 LM00212
                    CHNG = 0B                                                                     *157 LM00213
                    CHST = LENGTH + 1                                                             *158 LM00214
                    CHEND = LENGTH                                                                *159 LM00215
                                                                                                       LM00216
                 .. SEARCH FOR PRESENCE OF FIRST STRING.                                               LM00217
                                                                                                       LM00218
      SRCHLP        UP = UP + 1                                                                   *160 LM00219
      SRTST           WHENEVER DOWN .G. BUFSIZ, TRANSFER TO GIVUP                                 *161 LM00220
                      J = DOWN                                                                    *162 LM00221
                      THROUGH COMPAR, FOR I = STR1+1, 1, I .GE. STR2                              *163 LM00222
                        WHENEVER J .GE. BUFSIZ, TRANSFER TO GIVUP                                 *164 LM00223
                        WHENEVER EDLIN(I) .NE. LINE(J), TRANSFER TO NOCOMP                        *165 LM00224
       COMPAR           J = J + 1                                                                 *166 LM00225
                      TRANSFER TO STFND                                                           *167 LM00226
                                                                                                       LM00227
      NOCOMP          LINE(UP) = LINE(DOWN)                                                       *168 LM00228
                      DOWN = DOWN + 1                                                             *169 LM00229
                    TRANSFER TO SRCHLP                                                            *170 LM00230
                                                                                                       LM00231
                 .. STRING FOUND, REPLACE WITH SECOND STRING.                                          LM00232
                                                                                                       LM00233
      STFND         CHNG = 1B                                                                     *171 LM00234
                    DOWN = DOWN + (STR2-STR1-1)                                                   *172 LM00235
                    CHST = UP                                                                     *173 LM00236
                    THROUGH REPLAC, FOR I = STR2 + 1, 1, I .GE. EST2                              *174 LM00237
                      LINE(UP) = EDLIN(I)                                                         *175 LM00238
                      UP = UP + 1                                                                 *176 LM00239
       REPLAC         WHENEVER UP .G. DOWN, TRANSFER TO GIVUP                                     *177 LM00240
                    CHEND = UP - 1                                                                *178 LM00241
                    WHENEVER GLOBAL, TRANSFER TO SRTST                                            *179 LM00242
                                                                                                       LM00243
                 .. MOVE REST OF LINE BACK UP.                                                         LM00244
                                                                                                       LM00245
      GIVUP         THROUGH FILOUT, FOR UP = UP, 1, DOWN .G. BUFSIZ                               *180 LM00246
                      LINE(UP) = LINE(DOWN)                                                       *181 LM00247
      FILOUT          DOWN = DOWN + 1                                                             *182 LM00248
                    LENGTH = UP - 1                                                               *183 LM00249
                    TEM = TEM - 1                                                                 *184 LM00250
                    WHENEVER .NOT. BRIEF .AND. (TEM .G. 0 .THEN. CHNG)                            *185 LM00251
                1        , PRNT.(CHST, CHEND)                                                     *185 LM00252
                    CANON.(LINE, LENGTH, BUFSIZ)                                                  *186 LM00253
                    WHENEVER TEM .G. 0                                                            *187 LM00254
                      WRITE.(LINE, LENGTH)                                                        *188 LM00255
                      LENGTH = READ.(LINE, BUFSIZ, EOF)                                           *189 LM00256
                      TRANSFER TO SHIFT                                                           *190 LM00257
                    END OF CONDITIONAL                                                            *191 LM00258
                                                                                                       LM00259
      . . . .     . . . . . . . . . . . . . . . . . . . . . . . . . . . .                              LM00260
                                                                                                       LM00261
                  OR WHENEVER CWD .E. $ SPLIT$ .OR. CWD .E. $     S$                              *192 LM00262
                    TOPNAM = GET.(0)                                                              *193 LM00263
                    WHENEVER TOPNAM .E. $ $, TRANSFER TO NONAME                                   *194 LM00264
                    WHENEVER TOPNAM .E. OLDNAM .AND. FSTPAS                                       *195 LM00265
      NEWNM           PRINT COMMENT $0P1L1E1A1S1E0 1U1S1E0 1A1N1O1T1H1E1R0 1N1A                   *196 LM00266
                1 1M1E0.$                                                                         *196 LM00267
                      TRANSFER TO NXRQ                                                            *197 LM00268
                    END OF CONDITIONAL                                                            *198 LM00269
                    SECNAM = GET.(0)                                                              *199 LM00270
                  WHENEVER SECNAM .E. $ $, SECNAM = OLDSEC                                        *200 LM00271
                    CLRNAM.(TOPNAM, SECNAM, NEWNM, 1B)                                            *201 LM00272
                    CLOSEW.                                                                       *202 LM00273
                    RENAME.(IN, FI, TOPNAM, SECNAM)                                               *203 LM00274
                    ASSIGN.(IN, FI)                                                               *204 LM00275
                    OLDNAM = FENCE                                                                *205 LM00276
                    TRANSFER TO TOPLP                                                             *206 LM00277
                                                                                                       LM00278
                  OR WHENEVER CWD .E. $  QUIT$ .OR. CWD .E. $     Q$                              *207 LM00279
                    ENDRD.                                                                        *208 LM00280
                    CLOSEW.                                                                       *209 LM00281
                    DELFIL.(IN1, FI, DLQ1)                                                        *210 LM00282
      DLQ1          DELFIL.(IN, FI, DLQ2)                                                         *211 LM00283
      DLQ2          TRANSFER TO CHN                                                               *212 LM00284
                                                                                                       LM00285
                  OR WHENEVER CWD .E. $TABSET$ .OR. CWD .E. $    TB$                              *213 LM00286
                    TB = GET.(0)                                                                  *214 LM00287
                    WHENEVER TB .E. $     *$                                                      *215 LM00288
                      TBINIT.                                                                     *216 LM00289
                    OTHERWISE                                                                     *217 LM00290
                      NEWTBS.                                                                     *218 LM00291
      GTTB            WHENEVER TB .E. $ $, TRANSFER TO NXRQ                                       *219 LM00292
                      TABSET.(BIN.(TB))                                                           *220 LM00293
                      TB = GET.(0)                                                                *221 LM00294
                      TRANSFER TO GTTB                                                            *222 LM00295
                    END OF CONDITIONAL                                                            *223 LM00296
                                                                                                       LM00297
                  OR WHENEVER CWD .E. $ BKSET$                                                    *224 LM00298
                    BK = GET.(0)                                                                  *225 LM00299
                    NEWBKS.                                                                       *226 LM00300
      GTBK          WHENEVER BK .E. $ $, TRANSFER TO NXRQ                                         *227 LM00301
                    BKSET.(BIN.(BK))                                                              *228 LM00302
                    BK = GET.(0)                                                                  *229 LM00303
                    TRANSFER TO GTBK                                                              *230 LM00304
                                                                                                       LM00305
                  OR WHENEVER CWD .E. $SERIAL$ .OR. CWD .E. $    SR$                              *231 LM00306
                    FSTNO = GET.(0)                                                               *232 LM00307
                    WHENEVER FSTNO .E. $   OFF$                                                   *233 LM00308
                      SINHB.(1)                                                                   *234 LM00309
                    OR WHENEVER FSTNO .E. $    ON$                                                *235 LM00310
                      SINHB.(0)                                                                   *236 LM00311
                    OTHERWISE                                                                     *237 LM00312
                      WHENEVER FSTNO .E. $ $                                                      *238 LM00313
                        FSTNO = 10                                                                *239 LM00314
                        INCR = 10                                                                 *240 LM00315
                      OTHERWISE                                                                   *241 LM00316
                        FSTNO = BIN.(FSTNO)                                                       *242 LM00317
                        INCR = GET.(0)                                                            *243 LM00318
                        WHENEVER INCR .E. $ $                                                     *244 LM00319
                          INCR = 10                                                               *245 LM00320
                        OTHERWISE                                                                 *246 LM00321
                          INCR = BIN.(INCR)                                                       *247 LM00322
                        END OF CONDITIONAL                                                        *248 LM00323
                      END OF CONDITIONAL                                                          *249 LM00324
                      SETSR.(FSTNO,INCR)                                                          *250 LM00325
                      SINHB.(0)                                                                   *251 LM00326
                    END OF CONDITIONAL                                                            *252 LM00327
                                                                                                       LM00328
                  OR WHENEVER CWD .E. $ NCOLS$ .OR. CWD .E. $    NC$                              *253 LM00329
                    NCOL = GET.(0)                                                                *254 LM00330
                    WHENEVER NCOL .E. $ $                                                         *255 LM00331
                      SETCOL.(72)                                                                 *256 LM00332
                    OTHERWISE                                                                     *257 LM00333
                      SETCOL.(BIN.(NCOL))                                                         *258 LM00334
                    END OF CONDITIONAL                                                            *259 LM00335
                                                                                                       LM00336
                  OR WHENEVER CWD .E. $  FILE$                                                    *260 LM00337
                    PRINAM = GET.(0)                                                              *261 LM00338
                    CLRSW = 1B                                                                    *262 LM00339
                    WHENEVER PRINAM .E. $ $                                                       *263 LM00340
                      PRINAM = OLDNAM                                                             *264 LM00341
                      SECNAM = OLDSEC                                                             *265 LM00342
                      CLRSW = 0B                                                                  *266 LM00343
                    OTHERWISE                                                                     *267 LM00344
                      SECNAM = GET.(0)                                                            *268 LM00345
                      WHENEVER SECNAM .E. $ $                                                     *269 LM00346
                        SECNAM = OLDSEC                                                           *270 LM00347
                      END OF CONDITIONAL                                                          *271 LM00348
                    END OF CONDITIONAL                                                            *272 LM00349
                    WHENEVER PRINAM .E. FENCE                                                     *273 LM00350
      NONAME          PRINT COMMENT $0N1O0 1F1I1L1E0 1N1A1M1E0 1G1I1V1E1N0.$                      *274 LM00351
                      TRANSFER TO NXRQ                                                            *275 LM00352
                    END OF CONDITIONAL                                                            *276 LM00353
                    WRITE.(LINE, LENGTH)                                                          *277 LM00354
                    LENGTH = 0                                                                    *278 LM00355
                    WHENEVER OK, BOTTOM.                                                          *279 LM00356
                    CLRNAM.(PRINAM, SECNAM, NEWNM, CLRSW)                                         *280 LM00357
                    CLOSEW.                                                                       *281 LM00358
                    DELFIL.(IN1, FI, DL1)                                                         *282 LM00359
      DL1           RENAME.(IN, FI, PRINAM, SECNAM)                                               *283 LM00360
      CHN           EXIT.                                                                         *284 LM00361
                                                                                                       LM00362
                  OTHERWISE                                                                       *285 LM00363
                    PRINT COMMENT $0N1O1T0 1A0 1R1E1Q1U1E1S1T0:$                                  *286 LM00364
                    TYPOUT.(EDLIN, COUNT)                                                         *287 LM00365
                                                                                                       LM00366
                  END OF CONDITIONAL                                                              *288 LM00367
                  TRANSFER TO NXRQ                                                                *289 LM00368
                                                                                                       LM00369
      EOF         PRINTCOMMENT $0E1N1D0 1O1F0 1F1I1L1E0 1R1E1A1C1H1E1D0 1B1Y0:$                   *290 LM00370
                  TYPOUT.(EDLIN, COUNT)                                                           *291 LM00371
                  LENGTH = 0                                                                      *292 LM00372
                  OK = 0B                                                                         *293 LM00373
                  TRANSFER TO NXRQ                                                                *294 LM00374
                                                                                                       LM00375
                 . . . . . . . . . . . . . . . . . . . . . . . . . . . . . .                           LM00376
                                                                                                       LM00377
                 .. SUBROUTINES.                                                                       LM00378
                                                                                                       LM00379
       CLSOUT.   .. FUNCTION TO MOVE POINTER BACK TO TOP OF FILE.                                      LM00380
                                                                                                       LM00381
                  INTERNAL FUNCTION                                                               *295 LM00382
                  ENTRY TO CLSOUT.                                                                *296 LM00383
                    CLOSEW.                                                                       *297 LM00384
                    DELFIL.(IN1, FI, DL2)                                                         *298 LM00385
      DL2           CHFILE.(IN, FI, -0, IN1)                                                      *299 LM00386
                    SEEK.(IN1, FI, CHN)                                                           *300 LM00387
                    ASSIGN.(IN, FI)                                                               *301 LM00388
                    OK = 1B                                                                       *302 LM00389
                    LENGTH = 0                                                                    *303 LM00390
                    FSTPAS = 0B                                                                   *304 LM00391
                    FUNCTION RETURN                                                               *305 LM00392
                  END OF FUNCTION                                                                 *306 LM00393
                                                                                                       LM00394
        GET.     .. FUNCTION TO OBTAIN ARGUMENT WORD IN HOLLERITH.                                     LM00395
                                                                                                       LM00396
                  INTERNAL FUNCTION                                                               *307 LM00397
                  ENTRY TO GET.                                                                   *308 LM00398
                    WORD = $ $                                                                    *309 LM00399
      SCANLP        THROUGH SCANLP, FOR EDCT = EDCT, 1,                                           *310 LM00400
                1   (EDLIN(EDCT+1).NE.BLANK) .OR. (EDCT+1.GE.COUNT)                               *310 LM00401
       GTLP         EDCT = EDCT + 1                                                               *311 LM00402
                    WHENEVER EDLIN(EDCT) .E. BLANK, FUNCTION RETURN WORD                          *312 LM00403
                    WHENEVER EDLIN(EDCT) .E. TAB .OR. EDCT .GE. COUNT                             *313 LM00404
                      EDCT = EDCT - 1                                                             *314 LM00405
                      FUNCTION RETURN WORD                                                        *315 LM00406
                    END OF CONDITIONAL                                                            *316 LM00407
                    WORD = (WORD .LS. 6) .V. HOL.(EDLIN(EDCT))                                    *317 LM00408
                    TRANSFER TO GTLP                                                              *318 LM00409
                  END OF FUNCTION                                                                 *319 LM00410
                                                                                                       LM00411
       PRNT.     ..  FUNCTION TO PRINT A LINE WITH COLOR SHIFTS.                                       LM00412
                                                                                                       LM00413
                  INTERNAL FUNCTION(STAR, EN)                                                     *320 LM00414
                  ENTRY TO PRNT.                                                                  *321 LM00415
                    TYPOUT.(LINE, STAR-1)                                                         *322 LM00416
                    TYPOUT.(REDS, 1)                                                              *323 LM00417
                    TYPOUT.(LINE(STAR-1), EN-STAR+1)                                              *324 LM00418
                    TYPOUT.(BLACKS, 1)                                                            *325 LM00419
                    TYPOUT.(LINE(EN), LENGTH-EN)                                                  *326 LM00420
                    FUNCTION RETURN                                                               *327 LM00421
                  END OF FUNCTION                                                                 *328 LM00422
                                                                                                       LM00423
                 .. FUNCTION TO INITIALIZE CARD IMAGE CONVERTER.                                       LM00424
                                                                                                       LM00425
                  INTERNAL FUNCTION                                                               *329 LM00426
                  ENTRY TO CDINIT.                                                                *330 LM00427
                  TBINIT.                                                                         *331 LM00428
                  SETCOL.(72)                                                                     *332 LM00429
                  SINHB.(0)                                                                       *333 LM00430
                  FUNCTION RETURN                                                                 *334 LM00431
                  END OF FUNCTION                                                                 *335 LM00432
                                                                                                       LM00433
                 .. FUNCTION TO INITIALIZE TAB SETTINGS.                                               LM00434
                                                                                                       LM00435
                  INTERNAL FUNCTION                                                               *336 LM00436
                  ENTRY TO TBINIT.                                                                *337 LM00437
                  NEWTBS.                                                                         *338 LM00438
                  NEWBKS.                                                                         *339 LM00439
                  WHENEVER OLDSEC .E. $   MAD$                                                    *340 LM00440
                    THROUGH MTB, FOR VALUES OF TB = 12,17,22,27,32,37,42,47,55                    *341 LM00441
      MTB             TABSET.(TB)                                                                 *342 LM00442
                    BKSET.(12)                                                                    *343 LM00443
                  OR WHENEVER OLDSEC .E. $   FAP$                                                 *344 LM00444
                    THROUGH FTB, FOR VALUES OF TB = 8,16,30,34,38,42,46,55                        *345 LM00445
      FTB             TABSET.(TB)                                                                 *346 LM00446
                  OR WHENEVER OLDSEC .E. $MADTRN$                                                 *347 LM00447
                    THROUGH F2TB, FOR VALUES OF TB = 7,12,17,22,27,32,37,42,47,55                 *348 LM00448
      F2TB            TABSET.(TB)                                                                 *349 LM00449
                    BKSET.(7)                                                                     *350 LM00450
                  OR WHENEVER OLDSEC .E. $ ALGOL$                                                 *351 LM00451
                    THROUGH ATB, FOR VALUES OF TB = 11,16,21,26,31,36,41,46,51,56,                *352 LM00452
                1     61,66                                                                       *352 LM00453
      ATB             TABSET.(TB)                                                                 *353 LM00454
                  OTHERWISE                                                                       *354 LM00455
                    PRINT COMMENT $OT1A1B1S0 1N1O1T0 1S1E1T0.$                                    *355 LM00456
                  END OF CONDITIONAL                                                              *356 LM00457
                  FUNCTION RETURN                                                                 *357 LM00458
                  END OF FUNCTION                                                                 *358 LM00459
                                                                                                       LM00460
                  END OF PROGRAM                                                                  *359 LM00461
1MAD PROGRAM,TYPE NOV 1963      (ALL NUMBERS ARE OCTAL)
0TOTAL LOCATIONS   04661 TRANSFER VECTOR LENGTH  00040 PROGRAM BEGINS    01645
0VARIABLE STORAGE (A=ARRAY,C=COMMON,E=ERASABLE,DIGIT=MODE)
      APPEND 00046   4        DLQ1   00053   4        GLOBAL 00710   2        MVLP   00045   4        REPLAC 00045   4
      ARGLP  00047   4        DLQ2   00054   4        GTBK   00061   4        NCOL   01474   1        RETYPE 00076   4
      ATB    00045   4        DOWN   00125   1        GTLP   00062   4        NEWNM  00070   4        RPLC   00045   4
      ATNAM  00107 A 1        DREAD  00045   4        GTTB   00063   4        NOCOMP 00071   4        SCANLP 00045   4
      BK     00110   1        EDCT   00126   1        IN1    00711 A 1        NONAME 00072   4        SECNAM 01507   1
      BLACKS 00112 A 1        EDIT   00055   4        INCR   00712   1        NPRNT  01475   1        SHIFT  00077   4
      BLANK  00113   1        EDLIN  00700 A 1        INPUT  00064   4        N      01476   1        SRCHLP 00100   4
      BRIEF  00114 A 2        EOF    00056   4        IN     00713 A 1        NTFND  00073   4        SRTST  00101   4
      BUFSIZ 00115 A 1        EST2   00701   1        INSERT 00065   4        NXRQ   00074   4        STFND  00102   4
      CHEND  00116   1        F2TB   00045   4        I      00714   1        NXT    00045   4        STR1   01510   1
      CHNG   00117   2        FENCE  00702 A 1        J      00715   1        OCOUNT 01477   1        STR2   01511   1
      CHN    00050   4        FILOUT 00045   4        K      00716   1        OK     01500 A 2        TAB    01512   1
      CHST   00120   1        FIND   00057   4        LENGTH 00717   1        OLDNAM 01501   1        TAGN   00103   4
      CLRSW  00121   2        FI     00703   1        LINE   01471 A 1        OLDSEC 01502   1        TB     01513   1
      COMPAR 00045   4        FNDND  00704   1        LOCATE 01472   1        PNTLP  00075   4        TEM    01514   1
      COUNT  00122   1        FNDST  00705   1        LOCSCN 00066   4        PRINAM 01503   1        TOPLP  00104   4
      CWD    00123   1        FSTNO  00706   1        LOOK   00067   4        QLOOP1 00045   4        TOPNAM 01515   1
      DEFALT 00124   1        FSTPAS 00707   2        MCHNG  01473   1        QLOOP  00045   4        UP     01516   1
      DL1    00051   4        FTB    00045   4        MTB    00045   4        QUOTE  01504   1        WORD   01517   1
      DL2    00052   4        GIVUP  00060   4        MVDWN  00045   4        REDS   01506 A 1
0FUNCTION DICTIONARY
      ASSIGN 00000   1        BIN    00001   1        BKSET  00002   1        BOTTOM 00003   1        CANON  00004   1
      CHFILE 00005   1        CLOSEW 00006   1        CLRNAM 00007   1        COMARG 00010   1        DELFIL 00011   1
      ENDRD  00012   1        EXIT   00013   1        GETVAL 00014   1        HOL    00015   1        .PCOMT 00016   1
      .SETUP 00017   1        NEWBKS 00020   1        NEWTBS 00021   1        READ   00022   1        RENAME 00023   1
      SEEK   00024   1        SETBK  00025   1        SETCOL 00026   1        SETERS 00027   1        SETKIL 00030   1
      SETSR  00031   1        SINHB  00032   1        TABSET 00033   1        TYPEIN 00034   1        TYPOUT 00035   1
      WHOAMI 00036   1        WRITE  00037   1        CDINIT 00040   1        CLSOUT 00041   1        GET    00042   1
      PRNT   00043   1        TBINIT 00044   1
0ABSOLUTE CONSTANTS
 01557 +000000000102     01556 +000000000075     01555 +000000000070     01553 +000000000063     01547 +000000000051
 01544 +000000000044     01541 +000000000037     01536 +000000000032     01534 +000000000025     01530 +000000000013
 01572 -202143274643     01525 +000000000007     01570 -042124635145     01551 +000000000056     01546 +000000000046
 01543 +000000000042     01540 +000000000036     01532 +000000000020     01526 +000000000010     01605 -206060262147
 01554 +000000000067     01552 +000000000057     01550 +000000000052     01545 +000000000045     01542 +000000000040
 01537 +000000000033     01535 +000000000026     01533 +000000000021     01531 +000000000014     01606 -206060442124
 01524 +000000000006     01600 -206026314325     01560 +000000000110     01575 -204523464362     01611 -206060604523
 01527 +000000000012     01642 -222551312143     01636 -206060606251     01573 -202242622563     01631 -206060606054
 01643 -232122622563     01637 -206060606322     01604 -206050643163     01627 -206060606050     01641 -206247433163
 01633 -206060606062     01621 -206060606027     01632 -206060606060     01564 +233021452725     01615 -206060606023
 01640 -206060634647     01634 -206060606063     01576 -204751314563     01626 -206060606047     01601 -206026314524
 01620 -206060606026     01567 -034623216325     01624 -206060606043     01607 -206060462626     01612 -206060604645
 01644 -252551312670     01635 -206060606065     01577 -206022426247     01610 -206060602242     01602 -206042314343
 01623 -206060606042     01574 -202551216225     01617 -206060606025     01571 -112563704725     01630 -206060606051
 01561 +214747254524     01613 -206060606021     01562 +224663634644     01614 -206060606022     01566 +314562255163
 01622 -206060606031     01603 -206045256763     01625 -206060606045     01565 +242543256325     01616 -206060606024
 01520 +000000000000     01523 +000000000003     01522 +000000000002     01521 +000000000001     01563 +233000000000
0STATEMENT DICTIONARY
 00046 TXL -302240002225       00047 TXL -302763002760       00050 TXL -303660003657       00051 TXL -303657003652
 00052 TXL -303736003727       00053 TXL -303366003362       00054 TXL -303367003366       00055 TXL -301737001731
 00056 TXL -303706003674       00057 TXL -302421002414       00060 TXL -303204003172       00061 TXL -303440003434
 00062 TXL -304021004016       00063 TXL -303413003407       00064 TXL -302120002114       00065 TXL -302114002106
 00066 TXL -302573002572       00067 TXL -302562002552       00070 TXL -303313003301       00071 TXL -303117003113
 00072 TXL -303627003616       00073 TXL -302433002430       00074 TXL -301743001737       00075 TXL -302614002611
 00076 TXL -302225002223       00077 TXL -303021003007       00100 TXL -303051003046       00101 TXL -303056003051
 00102 TXL -303125003123       00103 TXL -302511002503       00104 TXL -302662002657
0PROGRAM
                 VECTOR VALUES FENCE = 777777777777K                                001  LM00010
 01645 TSX +0 07400 4 00017    00702     -3 77777 7 77777
                 VECTOR VALUES IN = $(INPUT$                                        002  LM00011
 00713     -3 43145 4 76463
                 VECTOR VALUES IN1 = $(INPT1$                                       003  LM00012
 00711     -3 43145 4 76301
                 VECTOR VALUES BRIEF = 0B                                           004  LM00013
 00114     +0 00000 0 00000
                 VECTOR VALUES OK = 0B                                              005  LM00014
 01500     +0 00000 0 00000
                 VECTOR VALUES BUFSIZ = 360                                         006  LM00015
 00115     +0 00000 0 00550
                 DIMENSION LINE(361), EDLIN(361)                                    007  LM00016
                 DIMENSION REDS(1), BLACKS(1)                                       008  LM00017
                 D'N ATNAM(2)                                                       009  LM00018
                 NORMAL MODE IS INTEGER                                             010  LM00019
                 BOOLEAN OK, GLOBAL, FSTPAS                                         011  LM00020
                 BOOLEAN CHNG, CLRSW, BRIEF                                         012  LM00021
                 WHOAMI.(ATNAM(2)...2)                                              013  LM00029
 01646 TSX +0 07400 4 00036    01647 TIX +2 01522 0 00105
                 FI = ATNAM(1)                                                      014  LM00030
 01650 CLA +0 50000 0 00106    01651 STO +0 60100 0 00703
                 GETVAL.(BLANK, TAB, DEFALT, MCHNG, REDS(1), BLACKS(1))             015  LM00031
 01652 TSX +0 07400 4 00014    01653 TXH +3 00000 0 00113    01654 TXH +3 00000 0 01512    01655 TXH +3 00000 0 00124
 01656 TXH +3 00000 0 01473    01657 TXH +3 00000 0 01505    01660 TXH +3 00000 0 00111
                 CLRNAM.(IN, FI, CHN, 1B)                                           016  LM00032
 01661 TSX +0 07400 4 00007    01662 TXH +3 00000 0 00713    01663 TXH +3 00000 0 00703    01664 TXH +3 00000 0 00050
 01665 TXH +3 00000 0 01521
                 CLRNAM.(IN1, FI, CHN, 1B)                                          017  LM00033
 01666 TSX +0 07400 4 00007    01667 TXH +3 00000 0 00711    01670 TXH +3 00000 0 00703    01671 TXH +3 00000 0 00050
 01672 TXH +3 00000 0 01521
                 ASSIGN.(IN, FI)                                                    018  LM00034
 01673 TSX +0 07400 4 00000    01674 TXH +3 00000 0 00713    01675 TXH +3 00000 0 00703
                 OLDNAM = COMARG.(1)                                                019  LM00035
 01676 TSX +0 07400 4 00010    01677 TXH +3 00000 0 01521    01700 STO +0 60100 0 01501
                 OLDSEC = DEFALT                                                    020  LM00036
 01701 CLA +0 50000 0 00124    01702 STO +0 60100 0 01502
                 W'R OLDNAM .E. FENCE                                               021  LM00037
 01703 CLA +0 50000 0 01501    01704 SUB +0 40200 0 00702    01705 TNZ -0 10000 0 01710
                   CDINIT.                                                          022  LM00038
 01706 TSX +0 07400 4 00040
                   T'O INSERT                                                       023  LM00039
 01707 TRA +0 02000 0 00065
                 E'L                                                                024  LM00040
                 OLDSEC = COMARG.(2)                                                025  LM00041
 01710 TSX +0 07400 4 00010    01711 TXH +3 00000 0 01522    01712 STO +0 60100 0 01502
                 WHENEVER OLDSEC .E. FENCE, OLDSEC = DEFALT                         026  LM00042
 01713 CLA +0 50000 0 01502    01714 SUB +0 40200 0 00702    01715 TNZ -0 10000 0 01720    01716 CLA +0 50000 0 00124
 01717 STO +0 60100 0 01502
                 CDINIT.                                                            027  LM00043
 01720 TSX +0 07400 4 00040
                 SEEK.(OLDNAM, OLDSEC, INSERT)                                      028  LM00044
 01721 TSX +0 07400 4 00024    01722 TXH +3 00000 0 01501    01723 TXH +3 00000 0 01502    01724 TXH +3 00000 0 00065
                 FSTPAS = 1B                                                        029  LM00045
 01725 CLA +0 50000 0 01521    01726 STO +0 60100 0 00707
                 OK = 1B                                                            030  LM00046
 01727 CLA +0 50000 0 01521    01730 STO +0 60100 0 01500
      EDIT       WHENEVER .NOT. BRIEF, PRINT COMMENT $0E1D1I1T$                     031  LM00050
 01731 ZET +0 52000 0 00114    01732 TRA +0 02000 0 01737    01733 TSX +0 07400 4 00016    01734     +0 00000 0 00002
 01735     +0 02501 2 40131    01736     +0 16360 6 06060
      NXRQ       COUNT = TYPEIN.(EDLIN, BUFSIZ)                                     032  LM00054
 01737 TSX +0 07400 4 00034    01740 TXH +3 00000 0 00700    01741 TXH +3 00000 0 00115    01742 STO +0 60100 0 00122
                 WHENEVER EDLIN(1) .E. MCHNG .AND. COUNT .L. 3                      033  LM00055
                1     , TRANSFER TO INSERT                                          033  LM00056
 01743 CLA +0 50000 0 00122    01744 SUB +0 40200 0 01523    01745 TZE +0 10000 0 01753    01746 TPL +0 12000 0 01753
 01747 CLA +0 50000 0 00677    01750 SUB +0 40200 0 01473    01751 TNZ -0 10000 0 01753    01752 TRA +0 02000 0 00065
                 WHENEVER COUNT .L. 2, TRANSFER TO NXRQ                             034  LM00057
 01753 CLA +0 50000 0 00122    01754 SUB +0 40200 0 01522    01755 TZE +0 10000 0 01760    01756 TPL +0 12000 0 01760
 01757 TRA +0 02000 0 00074
                 EDCT = 0                                                           035  LM00058
 01760 CLA +0 50000 0 01520    01761 STO +0 60100 0 00126
                 CWD = GET.(0)                                                      036  LM00059
 01762 TSX +0 07400 4 00042    01763 TXH +3 00000 0 01520    01764 STO +0 60100 0 00123
                 WHENEVER CWD .E. $DELETE$ .OR. CWD .E. $     D$                    037  LM00061
 01765 CLA +0 50000 0 00123    01766 SUB +0 40200 0 01616    01767 TZE +0 10000 0 01773    01770 CLA +0 50000 0 00123
 01771 SUB +0 40200 0 01565    01772 TNZ -0 10000 0 02024
                   N = BIN.(GET.(0))                                                038  LM00062
 01773 TSX +0 07400 4 00042    01774 TXH +3 00000 0 01520    01775 STO +0 60100 0 04656    01776 TSX +0 07400 4 00001
 01777 TXH +3 00000 0 04656    02000 STO +0 60100 0 01476
                   THROUGH DREAD, FOR I = 1, 1, I .GE. N                            039  LM00063
 02001 CLA +0 50000 0 01521    02002 STO +0 60100 0 00714    02003 TRA +0 02000 0 02007    02004 CLA +0 50000 0 00714
 02005 ADD +0 40000 0 01521    02006 STO +0 60100 0 00714    02007 CLA +0 50000 0 00714    02010 SUB +0 40200 0 01476
 02011 TZE +0 10000 0 02021    02012 TPL +0 12000 0 02021
       DREAD         LENGTH = READ.(LINE, BUFSIZ, EOF)                              040  LM00064
 02013 TSX +0 07400 4 00022    02014 TXH +3 00000 0 01471    02015 TXH +3 00000 0 00115    02016 TXH +3 00000 0 00056
 02017 STO +0 60100 0 00717    02020 TRA +0 02000 0 02004
                   LENGTH = 0                                                       041  LM00065
 02021 CLA +0 50000 0 01520    02022 STO +0 60100 0 00717
                 OR WHENEVER CWD .E. $  NEXT$ .OR. CWD .E. $     N$                 042  LM00067
 02023 TRA +0 02000 0 03673    02024 CLA +0 50000 0 00123    02025 SUB +0 40200 0 01625    02026 TZE +0 10000 0 02032
 02027 CLA +0 50000 0 00123    02030 SUB +0 40200 0 01603    02031 TNZ -0 10000 0 02074
                   N = BIN.(GET.(0))                                                043  LM00068
 02032 TSX +0 07400 4 00042    02033 TXH +3 00000 0 01520    02034 STO +0 60100 0 04656    02035 TSX +0 07400 4 00001
 02036 TXH +3 00000 0 04656    02037 STO +0 60100 0 01476
                   WHENEVER N .E. 0, N = 1                                          044  LM00069
 02040 CLA +0 50000 0 01476    02041 SUB +0 40200 0 01520    02042 TNZ -0 10000 0 02045    02043 CLA +0 50000 0 01521
 02044 STO +0 60100 0 01476
                   THROUGH NXT, FOR I = 1, 1, I .G. N                               045  LM00070
 02045 CLA +0 50000 0 01521    02046 STO +0 60100 0 00714    02047 TRA +0 02000 0 02053    02050 CLA +0 50000 0 00714
 02051 ADD +0 40000 0 01521    02052 STO +0 60100 0 00714    02053 CLA +0 50000 0 00714    02054 SUB +0 40200 0 01476
 02055 TZE +0 10000 0 02057    02056 TPL +0 12000 0 02073
                     WRITE.(LINE, LENGTH)                                           046  LM00071
 02057 TSX +0 07400 4 00037    02060 TXH +3 00000 0 01471    02061 TXH +3 00000 0 00717
                     WHENEVER .NOT. OK, CLSOUT.                                     047  LM00072
 02062 ZET +0 52000 0 01500    02063 TRA +0 02000 0 02065    02064 TSX +0 07400 4 00041
                     LENGTH = READ.(LINE, BUFSIZ, EOF)                              048  LM00073
 02065 TSX +0 07400 4 00022    02066 TXH +3 00000 0 01471    02067 TXH +3 00000 0 00115    02070 TXH +3 00000 0 00056
 02071 STO +0 60100 0 00717
       NXT           CONTINUE                                                       049  LM00074
 02072 TRA +0 02000 0 02050
                 OR WHENEVER CWD .E. $INSERT$ .OR. CWD .E. $     I$                 050  LM00076
 02073 TRA +0 02000 0 03673    02074 CLA +0 50000 0 00123    02075 SUB +0 40200 0 01622    02076 TZE +0 10000 0 02102
 02077 CLA +0 50000 0 00123    02100 SUB +0 40200 0 01566    02101 TNZ -0 10000 0 02156
                   WRITE.(LINE, LENGTH)                                             051  LM00077
 02102 TSX +0 07400 4 00037    02103 TXH +3 00000 0 01471    02104 TXH +3 00000 0 00717
                   TRANSFER TO RETYPE                                               052  LM00078
 02105 TRA +0 02000 0 00076
      INSERT       WHENEVER .NOT. BRIEF, PRINT COMMENT $0I1N1P1U1T$                 053  LM00080
 02106 ZET +0 52000 0 00114    02107 TRA +0 02000 0 02114    02110 TSX +0 07400 4 00016    02111     +0 00000 0 00002
 02112     +0 03101 4 50147    02113     +0 16401 6 36060
       INPUT       COUNT = TYPEIN.(EDLIN, BUFSIZ)                                   054  LM00081
 02114 TSX +0 07400 4 00034    02115 TXH +3 00000 0 00700    02116 TXH +3 00000 0 00115    02117 STO +0 60100 0 00122
                   WHENEVER COUNT .L. 3 .AND. EDLIN(1) .E. MCHNG                    055  LM00082
                1     , TRANSFER TO EDIT                                            055  LM00083
 02120 CLA +0 50000 0 00677    02121 SUB +0 40200 0 01473    02122 TNZ -0 10000 0 02130    02123 CLA +0 50000 0 00122
 02124 SUB +0 40200 0 01523    02125 TZE +0 10000 0 02130    02126 TPL +0 12000 0 02130    02127 TRA +0 02000 0 00055
                   WRITE.(LINE, LENGTH)                                             056  LM00084
 02130 TSX +0 07400 4 00037    02131 TXH +3 00000 0 01471    02132 TXH +3 00000 0 00717
                   THROUGH MVLP, FOR I = 1, 1, I .G. COUNT                          057  LM00085
 02133 CLA +0 50000 0 01521    02134 STO +0 60100 0 00714    02135 TRA +0 02000 0 02141    02136 CLA +0 50000 0 00714
 02137 ADD +0 40000 0 01521    02140 STO +0 60100 0 00714    02141 CLA +0 50000 0 00714    02142 SUB +0 40200 0 00122
 02143 TZE +0 10000 0 02145    02144 TPL +0 12000 0 02152
       MVLP          LINE(I) = EDLIN(I)                                             058  LM00086
 02145 LXA +0 53400 1 00714    02146 LXA +0 53400 2 00714    02147 CLA +0 50000 2 00700    02150 STO +0 60100 1 01471
 02151 TRA +0 02000 0 02136
                   LENGTH = COUNT                                                   059  LM00087
 02152 CLA +0 50000 0 00122    02153 STO +0 60100 0 00717
                   TRANSFER TO INPUT                                                060  LM00088
 02154 TRA +0 02000 0 00064
                 OR WHENEVER CWD .E. $BOTTOM$ .OR. CWD .E. $     B$                 061  LM00090
 02155 TRA +0 02000 0 03673    02156 CLA +0 50000 0 00123    02157 SUB +0 40200 0 01614    02160 TZE +0 10000 0 02164
 02161 CLA +0 50000 0 00123    02162 SUB +0 40200 0 01562    02163 TNZ -0 10000 0 02176
                   WRITE.(LINE, LENGTH)                                             062  LM00091
 02164 TSX +0 07400 4 00037    02165 TXH +3 00000 0 01471    02166 TXH +3 00000 0 00717
                   LENGTH = 0                                                       063  LM00092
 02167 CLA +0 50000 0 01520    02170 STO +0 60100 0 00717
                   WHENEVER OK, BOTTOM.                                             064  LM00093
 02171 NZT -0 52000 0 01500    02172 TRA +0 02000 0 02174    02173 TSX +0 07400 4 00003
                   TRANSFER TO INSERT                                               065  LM00094
 02174 TRA +0 02000 0 00065
                 OR WHENEVER CWD .E. $APPEND$ .OR. CWD .E. $     A$                 066  LM00096
 02175 TRA +0 02000 0 03673    02176 CLA +0 50000 0 00123    02177 SUB +0 40200 0 01613    02200 TZE +0 10000 0 02204
 02201 CLA +0 50000 0 00123    02202 SUB +0 40200 0 01561    02203 TNZ -0 10000 0 02215
                   WHENEVER LENGTH .G. 0, LENGTH = LENGTH - 1                       067  LM00097
 02204 CLA +0 50000 0 00717    02205 SUB +0 40200 0 01520    02206 TZE +0 10000 0 02213    02207 TMI -0 12000 0 02213
 02210 CLA +0 50000 0 00717    02211 SUB +0 40200 0 01521    02212 STO +0 60100 0 00717
                   TRANSFER TO APPEND                                               068  LM00098
 02213 TRA +0 02000 0 00046
                 OR WHENEVER CWD .E. $RETYPE$ .OR. CWD .E. $     R$                 069  LM00100
 02214 TRA +0 02000 0 03673    02215 CLA +0 50000 0 00123    02216 SUB +0 40200 0 01630    02217 TZE +0 10000 0 02223
 02220 CLA +0 50000 0 00123    02221 SUB +0 40200 0 01571    02222 TNZ -0 10000 0 02251
       RETYPE      LENGTH = 0                                                       070  LM00101
 02223 CLA +0 50000 0 01520    02224 STO +0 60100 0 00717
      APPEND       THROUGH RPLC, FOR EDCT = EDCT + 1, 1, EDCT .G. COUNT             071  LM00102
 02225 CLA +0 50000 0 00126    02226 ADD +0 40000 0 01521    02227 STO +0 60100 0 00126    02230 TRA +0 02000 0 02234
 02231 CLA +0 50000 0 00126    02232 ADD +0 40000 0 01521    02233 STO +0 60100 0 00126    02234 CLA +0 50000 0 00126
 02235 SUB +0 40200 0 00122    02236 TZE +0 10000 0 02240    02237 TPL +0 12000 0 02250
                     LENGTH = LENGTH + 1                                            072  LM00103
 02240 CLA +0 50000 0 00717    02241 ADD +0 40000 0 01521    02242 STO +0 60100 0 00717
       RPLC          LINE(LENGTH) = EDLIN(EDCT)                                     073  LM00104
 02243 LXA +0 53400 1 00717    02244 LXA +0 53400 2 00126    02245 CLA +0 50000 2 00700    02246 STO +0 60100 1 01471
 02247 TRA +0 02000 0 02231
                 OR WHENEVER CWD .E. $ ERASE$ .OR. CWD .E. $     E$                 074  LM00106
 02250 TRA +0 02000 0 03673    02251 CLA +0 50000 0 00123    02252 SUB +0 40200 0 01617    02253 TZE +0 10000 0 02257
 02254 CLA +0 50000 0 00123    02255 SUB +0 40200 0 01574    02256 TNZ -0 10000 0 02275
                   WHENEVER EDLIN(EDCT+1) .NE. BLANK, SETERS.(EDLIN(EDCT+1))        075  LM00107
 02257 CLA +0 50000 0 00126    02260 ADD +0 40000 0 01521    02261 PAX +0 73400 1 00000    02262 CLA +0 50000 1 00700
 02263 SUB +0 40200 0 00113    02264 TZE +0 10000 0 02274    02265 CLA +0 50000 0 00126    02266 ADD +0 40000 0 01521
 02267 SUB +0 40200 0 02270    02270 TXH +3 00000 0 00700    02271 STA +0 62100 0 02273    02272 TSX +0 07400 4 00027
 02273 TXH +3 00000 0 00000
                 OR WHENEVER CWD .E. $  KILL$ .OR. CWD .E. $     K$                 076  LM00109
 02274 TRA +0 02000 0 03673    02275 CLA +0 50000 0 00123    02276 SUB +0 40200 0 01623    02277 TZE +0 10000 0 02303
 02300 CLA +0 50000 0 00123    02301 SUB +0 40200 0 01602    02302 TNZ -0 10000 0 02321
                   WHENEVER EDLIN(EDCT+1) .NE. BLANK, SETKIL.(EDLIN(EDCT+1))        077  LM00110
 02303 CLA +0 50000 0 00126    02304 ADD +0 40000 0 01521    02305 PAX +0 73400 1 00000    02306 CLA +0 50000 1 00700
 02307 SUB +0 40200 0 00113    02310 TZE +0 10000 0 02320    02311 CLA +0 50000 0 00126    02312 ADD +0 40000 0 01521
 02313 SUB +0 40200 0 02314    02314 TXH +3 00000 0 00700    02315 STA +0 62100 0 02317    02316 TSX +0 07400 4 00030
 02317 TXH +3 00000 0 00000
                 O'R CWD .E. $  BKSP$ .OR. CWD .E. $    BK$                         078  LM00112
 02320 TRA +0 02000 0 03673    02321 CLA +0 50000 0 00123    02322 SUB +0 40200 0 01610    02323 TZE +0 10000 0 02327
 02324 CLA +0 50000 0 00123    02325 SUB +0 40200 0 01577    02326 TNZ -0 10000 0 02345
                   W'R EDLIN(EDCT+1) .NE. BLANK, SETBK.(EDLIN(EDCT+1))              079  LM00113
 02327 CLA +0 50000 0 00126    02330 ADD +0 40000 0 01521    02331 PAX +0 73400 1 00000    02332 CLA +0 50000 1 00700
 02333 SUB +0 40200 0 00113    02334 TZE +0 10000 0 02344    02335 CLA +0 50000 0 00126    02336 ADD +0 40000 0 01521
 02337 SUB +0 40200 0 02340    02340 TXH +3 00000 0 00700    02341 STA +0 62100 0 02343    02342 TSX +0 07400 4 00025
 02343 TXH +3 00000 0 00000
                 OR WHENEVER CWD .E. $VERIFY$ .OR. CWD .E. $     V$                 080  LM00115
 02344 TRA +0 02000 0 03673    02345 CLA +0 50000 0 00123    02346 SUB +0 40200 0 01635    02347 TZE +0 10000 0 02353
 02350 CLA +0 50000 0 00123    02351 SUB +0 40200 0 01644    02352 TNZ -0 10000 0 02372
                   CWD = GET.(0)                                                    081  LM00116
 02353 TSX +0 07400 4 00042    02354 TXH +3 00000 0 01520    02355 STO +0 60100 0 00123
                   WHENEVER CWD .E. $    ON$                                        082  LM00117
 02356 CLA +0 50000 0 00123    02357 SUB +0 40200 0 01612    02360 TNZ -0 10000 0 02364
                     BRIEF = 0B                                                     083  LM00118
 02361 CLA +0 50000 0 01520    02362 STO +0 60100 0 00114
                   OR WHENEVER CWD .E. $   OFF$                                     084  LM00119
 02363 TRA +0 02000 0 02371    02364 CLA +0 50000 0 00123    02365 SUB +0 40200 0 01607    02366 TNZ -0 10000 0 02371
                     BRIEF = 1B                                                     085  LM00120
 02367 CLA +0 50000 0 01521    02370 STO +0 60100 0 00114
                   END OF CONDITIONAL                                               086  LM00121
                 OR WHENEVER CWD .E. $LOCATE$ .OR. CWD .E. $     L$                 087  LM00123
 02371 TRA +0 02000 0 03673    02372 CLA +0 50000 0 00123    02373 SUB +0 40200 0 01624    02374 TZE +0 10000 0 02400
 02375 CLA +0 50000 0 00123    02376 SUB +0 40200 0 01567    02377 TNZ -0 10000 0 02404
                   LOCATE = 1                                                       088  LM00124
 02400 CLA +0 50000 0 01521    02401 STO +0 60100 0 01472
                   TRANSFER TO FIND                                                 089  LM00125
 02402 TRA +0 02000 0 00057
                 OR WHENEVER CWD .E. $  FIND$ .OR. CWD .E. $     F$                 090  LM00127
 02403 TRA +0 02000 0 03673    02404 CLA +0 50000 0 00123    02405 SUB +0 40200 0 01620    02406 TZE +0 10000 0 02412
 02407 CLA +0 50000 0 00123    02410 SUB +0 40200 0 01601    02411 TNZ -0 10000 0 02575
                   LOCATE = 0                                                       091  LM00128
 02412 CLA +0 50000 0 01520    02413 STO +0 60100 0 01472
      FIND         WHENEVER EDCT+1 .GE. COUNT                                       092  LM00129
 02414 CLA +0 50000 0 00126    02415 ADD +0 40000 0 01521    02416 SUB +0 40200 0 00122    02417 TZE +0 10000 0 02421
 02420 TMI -0 12000 0 02426
                     COUNT = OCOUNT                                                 093  LM00130
 02421 CLA +0 50000 0 01477    02422 STO +0 60100 0 00122
                     EDCT = EDCT + 1                                                094  LM00131
 02423 CLA +0 50000 0 00126    02424 ADD +0 40000 0 01521    02425 STO +0 60100 0 00126
                   END OF CONDITIONAL                                               095  LM00132
                   OCOUNT = COUNT                                                   096  LM00133
 02426 CLA +0 50000 0 00122    02427 STO +0 60100 0 01477
       NTFND       WRITE.(LINE, LENGTH)                                             097  LM00134
 02430 TSX +0 07400 4 00037    02431 TXH +3 00000 0 01471    02432 TXH +3 00000 0 00717
                   WHENEVER  .NOT. OK, CLSOUT.                                      098  LM00135
 02433 ZET +0 52000 0 01500    02434 TRA +0 02000 0 02436    02435 TSX +0 07400 4 00041
                   LENGTH = READ.(LINE, BUFSIZ, EOF)                                099  LM00136
 02436 TSX +0 07400 4 00022    02437 TXH +3 00000 0 01471    02440 TXH +3 00000 0 00115    02441 TXH +3 00000 0 00056
 02442 STO +0 60100 0 00717
                   THROUGH LOCSCN, FOR K=0, 1,K.G.LOCATE*(LENGTH-COUNT+EDCT)        100  LM00137
 02443 CLA +0 50000 0 01520    02444 STO +0 60100 0 00716    02445 TRA +0 02000 0 02451    02446 CLA +0 50000 0 00716
 02447 ADD +0 40000 0 01521    02450 STO +0 60100 0 00716    02451 CLA +0 50000 0 00717    02452 SUB +0 40200 0 00122
 02453 ADD +0 40000 0 00126    02454 XCA +0 13100 0 00000    02455 MPY +0 20000 0 01472    02456 XCA +0 13100 0 00000
 02457 CHS +0 76000 0 00002    02460 ADD +0 40000 0 00716    02461 TZE +0 10000 0 02463    02462 TPL +0 12000 0 02573
                     J = K                                                          101  LM00138
 02463 CLA +0 50000 0 00716    02464 STO +0 60100 0 00715
                     THROUGH LOOK, FOR I = EDCT+1, 1, I .GE. COUNT                  102  LM00139
 02465 CLA +0 50000 0 00126    02466 ADD +0 40000 0 01521    02467 STO +0 60100 0 00714    02470 TRA +0 02000 0 02474
 02471 CLA +0 50000 0 00714    02472 ADD +0 40000 0 01521    02473 STO +0 60100 0 00714    02474 CLA +0 50000 0 00714
 02475 SUB +0 40200 0 00122    02476 TZE +0 10000 0 02562    02477 TPL +0 12000 0 02562
                       J = J + 1                                                    103  LM00140
 02500 CLA +0 50000 0 00715    02501 ADD +0 40000 0 01521    02502 STO +0 60100 0 00715
       TAGN            WHENEVER LINE(J) .E. EDLIN(I), TRANSFER TO LOOK              104  LM00141
 02503 LXA +0 53400 1 00715    02504 LXA +0 53400 2 00714    02505 CLA +0 50000 1 01471    02506 SUB +0 40200 2 00700
 02507 TNZ -0 10000 0 02511    02510 TRA +0 02000 0 00067
                       WHENEVER (LINE(J).E. TAB) .AND. (EDLIN(I) .E. BLANK)         105  LM00142
                1       , TRANSFER TO LOOK                                          105  LM00143
 02511 LXA +0 53400 1 00714    02512 CLA +0 50000 1 00700    02513 SUB +0 40200 0 00113    02514 TNZ -0 10000 0 02522
 02515 LXA +0 53400 1 00715    02516 CLA +0 50000 1 01471    02517 SUB +0 40200 0 01512    02520 TNZ -0 10000 0 02522
 02521 TRA +0 02000 0 00067
                       WHENEVER EDLIN(I-1) .NE. BLANK .OR. I .E. EDCT + 1           106  LM00144
                1       , TRANSFER TO LOCSCN                                        106  LM00145
 02522 CLA +0 50000 0 00126    02523 ADD +0 40000 0 01521    02524 CHS +0 76000 0 00002    02525 ADD +0 40000 0 00714
 02526 TZE +0 10000 0 02535    02527 CLA +0 50000 0 00714    02530 SUB +0 40200 0 01521    02531 PAX +0 73400 1 00000
 02532 CLA +0 50000 1 00700    02533 SUB +0 40200 0 00113    02534 TZE +0 10000 0 02536    02535 TRA +0 02000 0 00066
                       WHENEVER LINE(J) .NE. BLANK .AND. LINE(J) .NE. TAB           107  LM00146
                1       , TRANSFER TO LOCSCN                                        107  LM00147
 02536 LXA +0 53400 1 00715    02537 CLA +0 50000 1 01471    02540 SUB +0 40200 0 01512    02541 TZE +0 10000 0 02546
 02542 CLA +0 50000 1 01471    02543 SUB +0 40200 0 00113    02544 TZE +0 10000 0 02546    02545 TRA +0 02000 0 00066
                       J = J + 1                                                    108  LM00148
 02546 CLA +0 50000 0 00715    02547 ADD +0 40000 0 01521    02550 STO +0 60100 0 00715
                       TRANSFER TO TAGN                                             109  LM00149
 02551 TRA +0 02000 0 00103
       LOOK            WHENEVER I .E. EDCT+1, FNDST = J                             110  LM00150
 02552 CLA +0 50000 0 00126    02553 ADD +0 40000 0 01521    02554 CHS +0 76000 0 00002    02555 ADD +0 40000 0 00714
 02556 TNZ -0 10000 0 02561    02557 CLA +0 50000 0 00715    02560 STO +0 60100 0 00705    02561 TRA +0 02000 0 02471
                     FNDND = J                                                      111  LM00151
 02562 CLA +0 50000 0 00715    02563 STO +0 60100 0 00704
                     WHENEVER .NOT. BRIEF, PRNT.(FNDST, FNDND)                      112  LM00152
 02564 ZET +0 52000 0 00114    02565 TRA +0 02000 0 02571    02566 TSX +0 07400 4 00043    02567 TXH +3 00000 0 00705
 02570 TXH +3 00000 0 00704
                     TRANSFER TO NXRQ                                               113  LM00153
 02571 TRA +0 02000 0 00074
        LOCSCN       CONTINUE                                                       114  LM00154
 02572 TRA +0 02000 0 02446
                   TRANSFER TO NTFND                                                115  LM00155
 02573 TRA +0 02000 0 00073
                 OR WHENEVER CWD .E. $ PRINT$ .OR. CWD .E. $     P$                 116  LM00157
 02574 TRA +0 02000 0 03673    02575 CLA +0 50000 0 00123    02576 SUB +0 40200 0 01626    02577 TZE +0 10000 0 02603
 02600 CLA +0 50000 0 00123    02601 SUB +0 40200 0 01576    02602 TNZ -0 10000 0 02651
                   NPRNT = BIN.(GET.(0))                                            117  LM00158
 02603 TSX +0 07400 4 00042    02604 TXH +3 00000 0 01520    02605 STO +0 60100 0 04656    02606 TSX +0 07400 4 00001
 02607 TXH +3 00000 0 04656    02610 STO +0 60100 0 01475
      PNTLP        WHENEVER LENGTH .E. 0                                            118  LM00159
 02611 CLA +0 50000 0 00717    02612 SUB +0 40200 0 01520    02613 TNZ -0 10000 0 02625
                     PRINT COMMENT $0N1O0 1C1U1R1R1E1N1T0 1L1I1N1E0.$               119  LM00160
 02614 TSX +0 07400 4 00016    02615     +0 00000 0 00006    02616     +0 04501 4 60060    02617     +0 12301 6 40151
 02620     +0 15101 2 50145    02621     +0 16300 6 00143    02622     +0 13101 4 50125    02623     +0 03360 6 06060
                   OTHERWISE                                                        120  LM00161
 02624 TRA +0 02000 0 02630
                     TYPOUT.(LINE, LENGTH)                                          121  LM00162
 02625 TSX +0 07400 4 00035    02626 TXH +3 00000 0 01471    02627 TXH +3 00000 0 00717
                   END OF CONDITIONAL                                               122  LM00163
                   NPRNT = NPRNT - 1                                                123  LM00164
 02630 CLA +0 50000 0 01475    02631 SUB +0 40200 0 01521    02632 STO +0 60100 0 01475
                   WHENEVER NPRNT .G. 0                                             124  LM00165
 02633 CLA +0 50000 0 01475    02634 SUB +0 40200 0 01520    02635 TZE +0 10000 0 02650    02636 TMI -0 12000 0 02650
                     WRITE.(LINE, LENGTH)                                           125  LM00166
 02637 TSX +0 07400 4 00037    02640 TXH +3 00000 0 01471    02641 TXH +3 00000 0 00717
                     LENGTH = READ.(LINE, BUFSIZ, EOF)                              126  LM00167
 02642 TSX +0 07400 4 00022    02643 TXH +3 00000 0 01471    02644 TXH +3 00000 0 00115    02645 TXH +3 00000 0 00056
 02646 STO +0 60100 0 00717
                     TRANSFER TO PNTLP                                              127  LM00168
 02647 TRA +0 02000 0 00075
                   END OF CONDITIONAL                                               128  LM00169
                 OR WHENEVER CWD .E. $   TOP$ .OR. CWD .E. $     T$                 129  LM00171
 02650 TRA +0 02000 0 03673    02651 CLA +0 50000 0 00123    02652 SUB +0 40200 0 01634    02653 TZE +0 10000 0 02657
 02654 CLA +0 50000 0 00123    02655 SUB +0 40200 0 01640    02656 TNZ -0 10000 0 02667
       TOPLP       WRITE.(LINE, LENGTH)                                             130  LM00172
 02657 TSX +0 07400 4 00037    02660 TXH +3 00000 0 01471    02661 TXH +3 00000 0 00717
                   WHENEVER OK, BOTTOM.                                             131  LM00173
 02662 NZT -0 52000 0 01500    02663 TRA +0 02000 0 02665    02664 TSX +0 07400 4 00003
                   CLSOUT.                                                          132  LM00174
 02665 TSX +0 07400 4 00041
                 OR WHENEVER CWD .E. $CHANGE$ .OR. CWD .E. $     C$                 133  LM00176
 02666 TRA +0 02000 0 03673    02667 CLA +0 50000 0 00123    02670 SUB +0 40200 0 01615    02671 TZE +0 10000 0 02675
 02672 CLA +0 50000 0 00123    02673 SUB +0 40200 0 01564    02674 TNZ -0 10000 0 03257
                   EDCT = EDCT+1                                                    134  LM00182
 02675 CLA +0 50000 0 00126    02676 ADD +0 40000 0 01521    02677 STO +0 60100 0 00126
                   QUOTE = EDLIN(EDCT)                                              135  LM00183
 02700 LXA +0 53400 2 00126    02701 CLA +0 50000 2 00700    02702 STO +0 60100 0 01504
                   STR1 = EDCT                                                      136  LM00184
 02703 CLA +0 50000 0 00126    02704 STO +0 60100 0 01510
      QLOOP        THROUGH QLOOP, FOR EDCT = EDCT+1, 1,                             137  LM00185
                1     (EDLIN(EDCT) .E. QUOTE) .OR. (EDCT .GE. COUNT)                137  LM00186
 02705 CLA +0 50000 0 00126    02706 ADD +0 40000 0 01521    02707 STO +0 60100 0 00126    02710 TRA +0 02000 0 02714
 02711 CLA +0 50000 0 00126    02712 ADD +0 40000 0 01521    02713 STO +0 60100 0 00126    02714 CLA +0 50000 0 00126
 02715 SUB +0 40200 0 00122    02716 TZE +0 10000 0 02725    02717 TPL +0 12000 0 02725    02720 LXA +0 53400 1 00126
 02721 CLA +0 50000 1 00700    02722 SUB +0 40200 0 01504    02723 TZE +0 10000 0 02725    02724 TRA +0 02000 0 02711
                   STR2 = EDCT                                                      138  LM00187
 02725 CLA +0 50000 0 00126    02726 STO +0 60100 0 01511
      QLOOP1       THROUGH QLOOP1, FOR EDCT = EDCT+1, 1,                            139  LM00188
                1     (EDLIN(EDCT) .E. QUOTE) .OR. (EDCT .GE. COUNT)                139  LM00189
 02727 CLA +0 50000 0 00126    02730 ADD +0 40000 0 01521    02731 STO +0 60100 0 00126    02732 TRA +0 02000 0 02736
 02733 CLA +0 50000 0 00126    02734 ADD +0 40000 0 01521    02735 STO +0 60100 0 00126    02736 CLA +0 50000 0 00126
 02737 SUB +0 40200 0 00122    02740 TZE +0 10000 0 02747    02741 TPL +0 12000 0 02747    02742 LXA +0 53400 1 00126
 02743 CLA +0 50000 1 00700    02744 SUB +0 40200 0 01504    02745 TZE +0 10000 0 02747    02746 TRA +0 02000 0 02733
                   EST2 = EDCT                                                      140  LM00190
 02747 CLA +0 50000 0 00126    02750 STO +0 60100 0 00701
                   EDCT = EDCT + 1                                                  141  LM00194
 02751 CLA +0 50000 0 00126    02752 ADD +0 40000 0 01521    02753 STO +0 60100 0 00126
                   TEM = 1                                                          142  LM00195
 02754 CLA +0 50000 0 01521    02755 STO +0 60100 0 01514
                   GLOBAL = 0B                                                      143  LM00196
 02756 CLA +0 50000 0 01520    02757 STO +0 60100 0 00710
      ARGLP        CWD = GET.(0)                                                    144  LM00197
 02760 TSX +0 07400 4 00042    02761 TXH +3 00000 0 01520    02762 STO +0 60100 0 00123
                   WHENEVER CWD .E. $ $                                             145  LM00198
 02763 CLA +0 50000 0 00123    02764 SUB +0 40200 0 01632    02765 TNZ -0 10000 0 02770
                     TRANSFER TO SHIFT                                              146  LM00199
 02766 TRA +0 02000 0 00077
                   OR WHENEVER CWD .E. $     G$                                     147  LM00200
 02767 TRA +0 02000 0 03006    02770 CLA +0 50000 0 00123    02771 SUB +0 40200 0 01621    02772 TNZ -0 10000 0 03003
                     WHENEVER STR2 .NE. STR1+1, GLOBAL = 1B                         148  LM00201
 02773 CLA +0 50000 0 01510    02774 ADD +0 40000 0 01521    02775 CHS +0 76000 0 00002    02776 ADD +0 40000 0 01511
 02777 TZE +0 10000 0 03002    03000 CLA +0 50000 0 01521    03001 STO +0 60100 0 00710
                   OTHERWISE                                                        149  LM00202
 03002 TRA +0 02000 0 03006
                     TEM = BIN.(CWD)                                                150  LM00203
 03003 TSX +0 07400 4 00001    03004 TXH +3 00000 0 00123    03005 STO +0 60100 0 01514
                   END OF CONDITIONAL                                               151  LM00204
                   TRANSFER TO ARGLP                                                152  LM00205
 03006 TRA +0 02000 0 00047
       SHIFT       THROUGH MVDWN, FOR I = LENGTH, -1, I .L. 1                       153  LM00209
 03007 CLA +0 50000 0 00717    03010 STO +0 60100 0 00714    03011 TRA +0 02000 0 03015    03012 CLS +0 50200 0 01521
 03013 ADD +0 40000 0 00714    03014 STO +0 60100 0 00714    03015 CLA +0 50000 0 00714    03016 SUB +0 40200 0 01521
 03017 TZE +0 10000 0 03021    03020 TMI -0 12000 0 03031
      MVDWN          LINE(BUFSIZ+I-LENGTH) = LINE(I)                                154  LM00210
 03021 CLA +0 50000 0 00115    03022 ADD +0 40000 0 00714    03023 SUB +0 40200 0 00717    03024 PAX +0 73400 1 00000
 03025 LXA +0 53400 2 00714    03026 CLA +0 50000 2 01471    03027 STO +0 60100 1 01471    03030 TRA +0 02000 0 03012
                   DOWN = BUFSIZ-LENGTH+1                                           155  LM00211
 03031 CLA +0 50000 0 00115    03032 SUB +0 40200 0 00717    03033 ADD +0 40000 0 01521    03034 STO +0 60100 0 00125
                   UP = 0                                                           156  LM00212
 03035 CLA +0 50000 0 01520    03036 STO +0 60100 0 01516
                   CHNG = 0B                                                        157  LM00213
 03037 CLA +0 50000 0 01520    03040 STO +0 60100 0 00117
                   CHST = LENGTH + 1                                                158  LM00214
 03041 CLA +0 50000 0 00717    03042 ADD +0 40000 0 01521    03043 STO +0 60100 0 00120
                   CHEND = LENGTH                                                   159  LM00215
 03044 CLA +0 50000 0 00717    03045 STO +0 60100 0 00116
      SRCHLP       UP = UP + 1                                                      160  LM00219
 03046 CLA +0 50000 0 01516    03047 ADD +0 40000 0 01521    03050 STO +0 60100 0 01516
      SRTST          WHENEVER DOWN .G. BUFSIZ, TRANSFER TO GIVUP                    161  LM00220
 03051 CLA +0 50000 0 00125    03052 SUB +0 40200 0 00115    03053 TZE +0 10000 0 03056    03054 TMI -0 12000 0 03056
 03055 TRA +0 02000 0 00060
                     J = DOWN                                                       162  LM00221
 03056 CLA +0 50000 0 00125    03057 STO +0 60100 0 00715
                     THROUGH COMPAR, FOR I = STR1+1, 1, I .GE. STR2                 163  LM00222
 03060 CLA +0 50000 0 01510    03061 ADD +0 40000 0 01521    03062 STO +0 60100 0 00714    03063 TRA +0 02000 0 03067
 03064 CLA +0 50000 0 00714    03065 ADD +0 40000 0 01521    03066 STO +0 60100 0 00714    03067 CLA +0 50000 0 00714
 03070 SUB +0 40200 0 01511    03071 TZE +0 10000 0 03112    03072 TPL +0 12000 0 03112
                       WHENEVER J .GE. BUFSIZ, TRANSFER TO GIVUP                    164  LM00223
 03073 CLA +0 50000 0 00715    03074 SUB +0 40200 0 00115    03075 TZE +0 10000 0 03077    03076 TMI -0 12000 0 03100
 03077 TRA +0 02000 0 00060
                       WHENEVER EDLIN(I) .NE. LINE(J), TRANSFER TO NOCOMP           165  LM00224
 03100 LXA +0 53400 1 00714    03101 LXA +0 53400 2 00715    03102 CLA +0 50000 1 00700    03103 SUB +0 40200 2 01471
 03104 TZE +0 10000 0 03106    03105 TRA +0 02000 0 00071
       COMPAR          J = J + 1                                                    166  LM00225
 03106 CLA +0 50000 0 00715    03107 ADD +0 40000 0 01521    03110 STO +0 60100 0 00715    03111 TRA +0 02000 0 03064
                     TRANSFER TO STFND                                              167  LM00226
 03112 TRA +0 02000 0 00102
      NOCOMP         LINE(UP) = LINE(DOWN)                                          168  LM00228
 03113 LXA +0 53400 1 01516    03114 LXA +0 53400 2 00125    03115 CLA +0 50000 2 01471    03116 STO +0 60100 1 01471
                     DOWN = DOWN + 1                                                169  LM00229
 03117 CLA +0 50000 0 00125    03120 ADD +0 40000 0 01521    03121 STO +0 60100 0 00125
                   TRANSFER TO SRCHLP                                               170  LM00230
 03122 TRA +0 02000 0 00100
      STFND        CHNG = 1B                                                        171  LM00234
 03123 CLA +0 50000 0 01521    03124 STO +0 60100 0 00117
                   DOWN = DOWN + (STR2-STR1-1)                                      172  LM00235
 03125 CLA +0 50000 0 01511    03126 SUB +0 40200 0 01510    03127 SUB +0 40200 0 01521    03130 ADD +0 40000 0 00125
 03131 STO +0 60100 0 00125
                   CHST = UP                                                        173  LM00236
 03132 CLA +0 50000 0 01516    03133 STO +0 60100 0 00120
                   THROUGH REPLAC, FOR I = STR2 + 1, 1, I .GE. EST2                 174  LM00237
 03134 CLA +0 50000 0 01511    03135 ADD +0 40000 0 01521    03136 STO +0 60100 0 00714    03137 TRA +0 02000 0 03143
 03140 CLA +0 50000 0 00714    03141 ADD +0 40000 0 01521    03142 STO +0 60100 0 00714    03143 CLA +0 50000 0 00714
 03144 SUB +0 40200 0 00701    03145 TZE +0 10000 0 03164    03146 TPL +0 12000 0 03164
                     LINE(UP) = EDLIN(I)                                            175  LM00238
 03147 LXA +0 53400 1 01516    03150 LXA +0 53400 2 00714    03151 CLA +0 50000 2 00700    03152 STO +0 60100 1 01471
                     UP = UP + 1                                                    176  LM00239
 03153 CLA +0 50000 0 01516    03154 ADD +0 40000 0 01521    03155 STO +0 60100 0 01516
       REPLAC        WHENEVER UP .G. DOWN, TRANSFER TO GIVUP                        177  LM00240
 03156 CLA +0 50000 0 01516    03157 SUB +0 40200 0 00125    03160 TZE +0 10000 0 03163    03161 TMI -0 12000 0 03163
 03162 TRA +0 02000 0 00060    03163 TRA +0 02000 0 03140
                   CHEND = UP - 1                                                   178  LM00241
 03164 CLA +0 50000 0 01516    03165 SUB +0 40200 0 01521    03166 STO +0 60100 0 00116
                   WHENEVER GLOBAL, TRANSFER TO SRTST                               179  LM00242
 03167 NZT -0 52000 0 00710    03170 TRA +0 02000 0 03172    03171 TRA +0 02000 0 00101
      GIVUP        THROUGH FILOUT, FOR UP = UP, 1, DOWN .G. BUFSIZ                  180  LM00246
 03172 CLA +0 50000 0 01516    03173 STO +0 60100 0 01516    03174 TRA +0 02000 0 03200    03175 CLA +0 50000 0 01516
 03176 ADD +0 40000 0 01521    03177 STO +0 60100 0 01516    03200 CLA +0 50000 0 00125    03201 SUB +0 40200 0 00115
 03202 TZE +0 10000 0 03204    03203 TPL +0 12000 0 03214
                     LINE(UP) = LINE(DOWN)                                          181  LM00247
 03204 LXA +0 53400 1 01516    03205 LXA +0 53400 2 00125    03206 CLA +0 50000 2 01471    03207 STO +0 60100 1 01471
      FILOUT         DOWN = DOWN + 1                                                182  LM00248
 03210 CLA +0 50000 0 00125    03211 ADD +0 40000 0 01521    03212 STO +0 60100 0 00125    03213 TRA +0 02000 0 03175
                   LENGTH = UP - 1                                                  183  LM00249
 03214 CLA +0 50000 0 01516    03215 SUB +0 40200 0 01521    03216 STO +0 60100 0 00717
                   TEM = TEM - 1                                                    184  LM00250
 03217 CLA +0 50000 0 01514    03220 SUB +0 40200 0 01521    03221 STO +0 60100 0 01514
                   WHENEVER .NOT. BRIEF .AND. (TEM .G. 0 .THEN. CHNG)               185  LM00251
                1       , PRNT.(CHST, CHEND)                                        185  LM00252
 03222 ZET +0 52000 0 00117    03223 TRA +0 02000 0 03230    03224 CLA +0 50000 0 01514    03225 SUB +0 40200 0 01520
 03226 TZE +0 10000 0 03230    03227 TPL +0 12000 0 03235    03230 ZET +0 52000 0 00114    03231 TRA +0 02000 0 03235
 03232 TSX +0 07400 4 00043    03233 TXH +3 00000 0 00120    03234 TXH +3 00000 0 00116
                   CANON.(LINE, LENGTH, BUFSIZ)                                     186  LM00253
 03235 TSX +0 07400 4 00004    03236 TXH +3 00000 0 01471    03237 TXH +3 00000 0 00717    03240 TXH +3 00000 0 00115
                   WHENEVER TEM .G. 0                                               187  LM00254
 03241 CLA +0 50000 0 01514    03242 SUB +0 40200 0 01520    03243 TZE +0 10000 0 03256    03244 TMI -0 12000 0 03256
                     WRITE.(LINE, LENGTH)                                           188  LM00255
 03245 TSX +0 07400 4 00037    03246 TXH +3 00000 0 01471    03247 TXH +3 00000 0 00717
                     LENGTH = READ.(LINE, BUFSIZ, EOF)                              189  LM00256
 03250 TSX +0 07400 4 00022    03251 TXH +3 00000 0 01471    03252 TXH +3 00000 0 00115    03253 TXH +3 00000 0 00056
 03254 STO +0 60100 0 00717
                     TRANSFER TO SHIFT                                              190  LM00257
 03255 TRA +0 02000 0 00077
                   END OF CONDITIONAL                                               191  LM00258
                 OR WHENEVER CWD .E. $ SPLIT$ .OR. CWD .E. $     S$                 192  LM00262
 03256 TRA +0 02000 0 03673    03257 CLA +0 50000 0 00123    03260 SUB +0 40200 0 01633    03261 TZE +0 10000 0 03265
 03262 CLA +0 50000 0 00123    03263 SUB +0 40200 0 01641    03264 TNZ -0 10000 0 03346
                   TOPNAM = GET.(0)                                                 193  LM00263
 03265 TSX +0 07400 4 00042    03266 TXH +3 00000 0 01520    03267 STO +0 60100 0 01515
                   WHENEVER TOPNAM .E. $ $, TRANSFER TO NONAME                      194  LM00264
 03270 CLA +0 50000 0 01515    03271 SUB +0 40200 0 01632    03272 TNZ -0 10000 0 03274    03273 TRA +0 02000 0 00072
                   WHENEVER TOPNAM .E. OLDNAM .AND. FSTPAS                          195  LM00265
 03274 NZT -0 52000 0 00707    03275 TRA +0 02000 0 03314    03276 CLA +0 50000 0 01515    03277 SUB +0 40200 0 01501
 03300 TNZ -0 10000 0 03314
      NEWNM          PRINT COMMENT $0P1L1E1A1S1E0 1U1S1E0 1A1N1O1T1H1E1R0 1N1A      196  LM00266
                11M1E0.$                                                            196  LM00267
 03301 TSX +0 07400 4 00016    03302     +0 00000 0 00010    03303     +0 04701 4 30125    03304     +0 12101 6 20125
 03305     +0 06001 6 40162    03306     +0 12500 6 00121    03307     +0 14501 4 60163    03310     +0 13001 2 50151
 03311     +0 06001 4 50121    03312     +0 14401 2 50033
                     TRANSFER TO NXRQ                                               197  LM00268
 03313 TRA +0 02000 0 00074
                   END OF CONDITIONAL                                               198  LM00269
                   SECNAM = GET.(0)                                                 199  LM00270
 03314 TSX +0 07400 4 00042    03315 TXH +3 00000 0 01520    03316 STO +0 60100 0 01507
                 WHENEVER SECNAM .E. $ $, SECNAM = OLDSEC                           200  LM00271
 03317 CLA +0 50000 0 01507    03320 SUB +0 40200 0 01632    03321 TNZ -0 10000 0 03324    03322 CLA +0 50000 0 01502
 03323 STO +0 60100 0 01507
                   CLRNAM.(TOPNAM, SECNAM, NEWNM, 1B)                               201  LM00272
 03324 TSX +0 07400 4 00007    03325 TXH +3 00000 0 01515    03326 TXH +3 00000 0 01507    03327 TXH +3 00000 0 00070
 03330 TXH +3 00000 0 01521
                   CLOSEW.                                                          202  LM00273
 03331 TSX +0 07400 4 00006
                   RENAME.(IN, FI, TOPNAM, SECNAM)                                  203  LM00274
 03332 TSX +0 07400 4 00023    03333 TXH +3 00000 0 00713    03334 TXH +3 00000 0 00703    03335 TXH +3 00000 0 01515
 03336 TXH +3 00000 0 01507
                   ASSIGN.(IN, FI)                                                  204  LM00275
 03337 TSX +0 07400 4 00000    03340 TXH +3 00000 0 00713    03341 TXH +3 00000 0 00703
                   OLDNAM = FENCE                                                   205  LM00276
 03342 CLA +0 50000 0 00702    03343 STO +0 60100 0 01501
                   TRANSFER TO TOPLP                                                206  LM00277
 03344 TRA +0 02000 0 00104
                 OR WHENEVER CWD .E. $  QUIT$ .OR. CWD .E. $     Q$                 207  LM00279
 03345 TRA +0 02000 0 03673    03346 CLA +0 50000 0 00123    03347 SUB +0 40200 0 01627    03350 TZE +0 10000 0 03354
 03351 CLA +0 50000 0 00123    03352 SUB +0 40200 0 01604    03353 TNZ -0 10000 0 03370
                   ENDRD.                                                           208  LM00280
 03354 TSX +0 07400 4 00012
                   CLOSEW.                                                          209  LM00281
 03355 TSX +0 07400 4 00006
                   DELFIL.(IN1, FI, DLQ1)                                           210  LM00282
 03356 TSX +0 07400 4 00011    03357 TXH +3 00000 0 00711    03360 TXH +3 00000 0 00703    03361 TXH +3 00000 0 00053
      DLQ1         DELFIL.(IN, FI, DLQ2)                                            211  LM00283
 03362 TSX +0 07400 4 00011    03363 TXH +3 00000 0 00713    03364 TXH +3 00000 0 00703    03365 TXH +3 00000 0 00054
      DLQ2         TRANSFER TO CHN                                                  212  LM00284
 03366 TRA +0 02000 0 00050
                 O'R CWD .E. $TABSET$ .OR. CWD .E. $    TB$                         213  LM00286
 03367 TRA +0 02000 0 03673    03370 CLA +0 50000 0 00123    03371 SUB +0 40200 0 01637    03372 TZE +0 10000 0 03376
 03373 CLA +0 50000 0 00123    03374 SUB +0 40200 0 01643    03375 TNZ -0 10000 0 03425
                   TB = GET.(0)                                                     214  LM00287
 03376 TSX +0 07400 4 00042    03377 TXH +3 00000 0 01520    03400 STO +0 60100 0 01513
                   W'R TB .E. $     *$                                              215  LM00288
 03401 CLA +0 50000 0 01513    03402 SUB +0 40200 0 01631    03403 TNZ -0 10000 0 03406
                     TBINIT.                                                        216  LM00289
 03404 TSX +0 07400 4 00044
                   O'E                                                              217  LM00290
 03405 TRA +0 02000 0 03424
                     NEWTBS.                                                        218  LM00291
 03406 TSX +0 07400 4 00021
      GTTB           W'R TB .E. $ $, T'O NXRQ                                       219  LM00292
 03407 CLA +0 50000 0 01513    03410 SUB +0 40200 0 01632    03411 TNZ -0 10000 0 03413    03412 TRA +0 02000 0 00074
                     TABSET.(BIN.(TB))                                              220  LM00293
 03413 TSX +0 07400 4 00001    03414 TXH +3 00000 0 01513    03415 STO +0 60100 0 04656    03416 TSX +0 07400 4 00033
 03417 TXH +3 00000 0 04656
                     TB = GET.(0)                                                   221  LM00294
 03420 TSX +0 07400 4 00042    03421 TXH +3 00000 0 01520    03422 STO +0 60100 0 01513
                     T'O GTTB                                                       222  LM00295
 03423 TRA +0 02000 0 00063
                   E'L                                                              223  LM00296
                 O'R CWD .E. $ BKSET$                                               224  LM00298
 03424 TRA +0 02000 0 03673    03425 CLA +0 50000 0 00123    03426 SUB +0 40200 0 01573    03427 TNZ -0 10000 0 03452
                   BK = GET.(0)                                                     225  LM00299
 03430 TSX +0 07400 4 00042    03431 TXH +3 00000 0 01520    03432 STO +0 60100 0 00110
                   NEWBKS.                                                          226  LM00300
 03433 TSX +0 07400 4 00020
      GTBK         W'R BK .E. $ $, T'O NXRQ                                         227  LM00301
 03434 CLA +0 50000 0 00110    03435 SUB +0 40200 0 01632    03436 TNZ -0 10000 0 03440    03437 TRA +0 02000 0 00074
                   BKSET.(BIN.(BK))                                                 228  LM00302
 03440 TSX +0 07400 4 00001    03441 TXH +3 00000 0 00110    03442 STO +0 60100 0 04656    03443 TSX +0 07400 4 00002
 03444 TXH +3 00000 0 04656
                   BK = GET.(0)                                                     229  LM00303
 03445 TSX +0 07400 4 00042    03446 TXH +3 00000 0 01520    03447 STO +0 60100 0 00110
                   T'O GTBK                                                         230  LM00304
 03450 TRA +0 02000 0 00061
                 O'R CWD .E. $SERIAL$ .OR. CWD .E. $    SR$                         231  LM00306
 03451 TRA +0 02000 0 03673    03452 CLA +0 50000 0 00123    03453 SUB +0 40200 0 01636    03454 TZE +0 10000 0 03460
 03455 CLA +0 50000 0 00123    03456 SUB +0 40200 0 01642    03457 TNZ -0 10000 0 03534
                   FSTNO = GET.(0)                                                  232  LM00307
 03460 TSX +0 07400 4 00042    03461 TXH +3 00000 0 01520    03462 STO +0 60100 0 00706
                   W'R FSTNO .E. $   OFF$                                           233  LM00308
 03463 CLA +0 50000 0 00706    03464 SUB +0 40200 0 01607    03465 TNZ -0 10000 0 03471
                     SINHB.(1)                                                      234  LM00309
 03466 TSX +0 07400 4 00032    03467 TXH +3 00000 0 01521
                   O'R FSTNO .E. $    ON$                                           235  LM00310
 03470 TRA +0 02000 0 03533    03471 CLA +0 50000 0 00706    03472 SUB +0 40200 0 01612    03473 TNZ -0 10000 0 03477
                     SINHB.(0)                                                      236  LM00311
 03474 TSX +0 07400 4 00032    03475 TXH +3 00000 0 01520
                   O'E                                                              237  LM00312
 03476 TRA +0 02000 0 03533
                     W'R FSTNO .E. $ $                                              238  LM00313
 03477 CLA +0 50000 0 00706    03500 SUB +0 40200 0 01632    03501 TNZ -0 10000 0 03507
                       FSTNO = 10                                                   239  LM00314
 03502 CLA +0 50000 0 01527    03503 STO +0 60100 0 00706
                       INCR = 10                                                    240  LM00315
 03504 CLA +0 50000 0 01527    03505 STO +0 60100 0 00712
                     O'E                                                            241  LM00316
 03506 TRA +0 02000 0 03526
                       FSTNO = BIN.(FSTNO)                                          242  LM00317
 03507 TSX +0 07400 4 00001    03510 TXH +3 00000 0 00706    03511 STO +0 60100 0 00706
                       INCR = GET.(0)                                               243  LM00318
 03512 TSX +0 07400 4 00042    03513 TXH +3 00000 0 01520    03514 STO +0 60100 0 00712
                       W'R INCR .E. $ $                                             244  LM00319
 03515 CLA +0 50000 0 00712    03516 SUB +0 40200 0 01632    03517 TNZ -0 10000 0 03523
                         INCR = 10                                                  245  LM00320
 03520 CLA +0 50000 0 01527    03521 STO +0 60100 0 00712
                       O'E                                                          246  LM00321
 03522 TRA +0 02000 0 03526
                         INCR = BIN.(INCR)                                          247  LM00322
 03523 TSX +0 07400 4 00001    03524 TXH +3 00000 0 00712    03525 STO +0 60100 0 00712
                       E'L                                                          248  LM00323
                     E'L                                                            249  LM00324
                     SETSR.(FSTNO,INCR)                                             250  LM00325
 03526 TSX +0 07400 4 00031    03527 TXH +3 00000 0 00706    03530 TXH +3 00000 0 00712
                     SINHB.(0)                                                      251  LM00326
 03531 TSX +0 07400 4 00032    03532 TXH +3 00000 0 01520
                   E'L                                                              252  LM00327
                 O'R CWD .E. $ NCOLS$ .OR. CWD .E. $    NC$                         253  LM00329
 03533 TRA +0 02000 0 03673    03534 CLA +0 50000 0 00123    03535 SUB +0 40200 0 01611    03536 TZE +0 10000 0 03542
 03537 CLA +0 50000 0 00123    03540 SUB +0 40200 0 01575    03541 TNZ -0 10000 0 03561
                   NCOL = GET.(0)                                                   254  LM00330
 03542 TSX +0 07400 4 00042    03543 TXH +3 00000 0 01520    03544 STO +0 60100 0 01474
                   W'R NCOL .E. $ $                                                 255  LM00331
 03545 CLA +0 50000 0 01474    03546 SUB +0 40200 0 01632    03547 TNZ -0 10000 0 03553
                     SETCOL.(72)                                                    256  LM00332
 03550 TSX +0 07400 4 00026    03551 TXH +3 00000 0 01560
                   O'E                                                              257  LM00333
 03552 TRA +0 02000 0 03560
                     SETCOL.(BIN.(NCOL))                                            258  LM00334
 03553 TSX +0 07400 4 00001    03554 TXH +3 00000 0 01474    03555 STO +0 60100 0 04656    03556 TSX +0 07400 4 00026
 03557 TXH +3 00000 0 04656
                   E'L                                                              259  LM00335
                 OR WHENEVER CWD .E. $  FILE$                                       260  LM00337
 03560 TRA +0 02000 0 03673    03561 CLA +0 50000 0 00123    03562 SUB +0 40200 0 01600    03563 TNZ -0 10000 0 03661
                   PRINAM = GET.(0)                                                 261  LM00338
 03564 TSX +0 07400 4 00042    03565 TXH +3 00000 0 01520    03566 STO +0 60100 0 01503
                   CLRSW = 1B                                                       262  LM00339
 03567 CLA +0 50000 0 01521    03570 STO +0 60100 0 00121
                   WHENEVER PRINAM .E. $ $                                          263  LM00340
 03571 CLA +0 50000 0 01503    03572 SUB +0 40200 0 01632    03573 TNZ -0 10000 0 03603
                     PRINAM = OLDNAM                                                264  LM00341
 03574 CLA +0 50000 0 01501    03575 STO +0 60100 0 01503
                     SECNAM = OLDSEC                                                265  LM00342
 03576 CLA +0 50000 0 01502    03577 STO +0 60100 0 01507
                     CLRSW = 0B                                                     266  LM00343
 03600 CLA +0 50000 0 01520    03601 STO +0 60100 0 00121
                   OTHERWISE                                                        267  LM00344
 03602 TRA +0 02000 0 03613
                     SECNAM = GET.(0)                                               268  LM00345
 03603 TSX +0 07400 4 00042    03604 TXH +3 00000 0 01520    03605 STO +0 60100 0 01507
                     WHENEVER SECNAM .E. $ $                                        269  LM00346
 03606 CLA +0 50000 0 01507    03607 SUB +0 40200 0 01632    03610 TNZ -0 10000 0 03613
                       SECNAM = OLDSEC                                              270  LM00347
 03611 CLA +0 50000 0 01502    03612 STO +0 60100 0 01507
                     END OF CONDITIONAL                                             271  LM00348
                   END OF CONDITIONAL                                               272  LM00349
                   WHENEVER PRINAM .E. FENCE                                        273  LM00350
 03613 CLA +0 50000 0 01503    03614 SUB +0 40200 0 00702    03615 TNZ -0 10000 0 03630
      NONAME         PRINT COMMENT $0N1O0 1F1I1L1E0 1N1A1M1E0 1G1I1V1E1N0.$         274  LM00351
 03616 TSX +0 07400 4 00016    03617     +0 00000 0 00007    03620     +0 04501 4 60060    03621     +0 12601 3 10143
 03622     +0 12500 6 00145    03623     +0 12101 4 40125    03624     +0 06001 2 70131    03625     +0 16501 2 50145
 03626     +0 03360 6 06060
                     TRANSFER TO NXRQ                                               275  LM00352
 03627 TRA +0 02000 0 00074
                   END OF CONDITIONAL                                               276  LM00353
                   WRITE.(LINE, LENGTH)                                             277  LM00354
 03630 TSX +0 07400 4 00037    03631 TXH +3 00000 0 01471    03632 TXH +3 00000 0 00717
                   LENGTH = 0                                                       278  LM00355
 03633 CLA +0 50000 0 01520    03634 STO +0 60100 0 00717
                   WHENEVER OK, BOTTOM.                                             279  LM00356
 03635 NZT -0 52000 0 01500    03636 TRA +0 02000 0 03640    03637 TSX +0 07400 4 00003
                   CLRNAM.(PRINAM, SECNAM, NEWNM, CLRSW)                            280  LM00357
 03640 TSX +0 07400 4 00007    03641 TXH +3 00000 0 01503    03642 TXH +3 00000 0 01507    03643 TXH +3 00000 0 00070
 03644 TXH +3 00000 0 00121
                   CLOSEW.                                                          281  LM00358
 03645 TSX +0 07400 4 00006
                   DELFIL.(IN1, FI, DL1)                                            282  LM00359
 03646 TSX +0 07400 4 00011    03647 TXH +3 00000 0 00711    03650 TXH +3 00000 0 00703    03651 TXH +3 00000 0 00051
      DL1          RENAME.(IN, FI, PRINAM, SECNAM)                                  283  LM00360
 03652 TSX +0 07400 4 00023    03653 TXH +3 00000 0 00713    03654 TXH +3 00000 0 00703    03655 TXH +3 00000 0 01503
 03656 TXH +3 00000 0 01507
      CHN          EXIT.                                                            284  LM00361
 03657 TSX +0 07400 4 00013
                 OTHERWISE                                                          285  LM00363
 03660 TRA +0 02000 0 03673
                   PRINT COMMENT $0N1O1T0 1A0 1R1E1Q1U1E1S1T0:$                     286  LM00364
 03661 TSX +0 07400 4 00016    03662     +0 00000 0 00005    03663     +0 04501 4 60163    03664     +0 06001 2 10060
 03665     +0 15101 2 50150    03666     +0 16401 2 50162    03667     +0 16300 3 56060
                   TYPOUT.(EDLIN, COUNT)                                            287  LM00365
 03670 TSX +0 07400 4 00035    03671 TXH +3 00000 0 00700    03672 TXH +3 00000 0 00122
                 END OF CONDITIONAL                                                 288  LM00367
                 TRANSFER TO NXRQ                                                   289  LM00368
 03673 TRA +0 02000 0 00074
      EOF        PRINTCOMMENT $0E1N1D0 1O1F0 1F1I1L1E0 1R1E1A1C1H1E1D0 1B1Y0:$      290  LM00370
 03674 TSX +0 07400 4 00016    03675     +0 00000 0 00010    03676     +0 02501 4 50124    03677     +0 06001 4 60126
 03700     +0 06001 2 60131    03701     +0 14301 2 50060    03702     +0 15101 2 50121    03703     +0 12301 3 00125
 03704     +0 12400 6 00122    03705     +0 17000 3 56060
                 TYPOUT.(EDLIN, COUNT)                                              291  LM00371
 03706 TSX +0 07400 4 00035    03707 TXH +3 00000 0 00700    03710 TXH +3 00000 0 00122
                 LENGTH = 0                                                         292  LM00372
 03711 CLA +0 50000 0 01520    03712 STO +0 60100 0 00717
                 OK = 0B                                                            293  LM00373
 03713 CLA +0 50000 0 01520    03714 STO +0 60100 0 01500
                 TRANSFER TO NXRQ                                                   294  LM00374
 03715 TRA +0 02000 0 00074
                 INTERNAL FUNCTION                                                  295  LM00382
 03716 TRA +0 02000 0 03766
                 ENTRY TO CLSOUT.                                                   296  LM00383
 03717 TRA +0 02000 0 03722    00041 TTR +0 02100 0 03720    03720 SXA +0 63400 2 03755    03721 TSX +0 07400 2 03755
                   CLOSEW.                                                          297  LM00384
 03722 TSX +0 07400 4 00006
                   DELFIL.(IN1, FI, DL2)                                            298  LM00385
 03723 TSX +0 07400 4 00011    03724 TXH +3 00000 0 00711    03725 TXH +3 00000 0 00703    03726 TXH +3 00000 0 00052
      DL2          CHFILE.(IN, FI, -0, IN1)                                         299  LM00386
 03727 CLS +0 50200 0 01520    03730 STO +0 60100 0 03765    03731 TSX +0 07400 4 00005    03732 TXH +3 00000 0 00713
 03733 TXH +3 00000 0 00703    03734 TXH +3 00000 0 03765    03735 TXH +3 00000 0 00711
                   SEEK.(IN1, FI, CHN)                                              300  LM00387
 03736 TSX +0 07400 4 00024    03737 TXH +3 00000 0 00711    03740 TXH +3 00000 0 00703    03741 TXH +3 00000 0 00050
                   ASSIGN.(IN, FI)                                                  301  LM00388
 03742 TSX +0 07400 4 00000    03743 TXH +3 00000 0 00713    03744 TXH +3 00000 0 00703
                   OK = 1B                                                          302  LM00389
 03745 CLA +0 50000 0 01521    03746 STO +0 60100 0 01500
                   LENGTH = 0                                                       303  LM00390
 03747 CLA +0 50000 0 01520    03750 STO +0 60100 0 00717
                   FSTPAS = 0B                                                      304  LM00391
 03751 CLA +0 50000 0 01520    03752 STO +0 60100 0 00707
                   FUNCTION RETURN                                                  305  LM00392
 03753 TRA +0 02000 0 03761
                 END OF FUNCTION                                                    306  LM00393
 03754 TSX +0 07400 4 00013    03755 TXH +3 00000 0 00000    03756 SXD -0 63400 1 03755    03757 SXA +0 63400 4 03761
 03760 TRA +0 02000 2 00001    03761 AXT +0 77400 4 00000    03762 LXA +0 53400 2 03755    03763 LXD -0 53400 1 03755
 03764 TRA +0 02000 4 00001
                 INTERNAL FUNCTION                                                  307  LM00397
 03766 TRA +0 02000 0 04074
                 ENTRY TO GET.                                                      308  LM00398
 03767 TRA +0 02000 0 03772    00042 TTR +0 02100 0 03770    03770 SXA +0 63400 2 04063    03771 TSX +0 07400 2 04063
                   WORD = $ $                                                       309  LM00399
 03772 CLA +0 50000 0 01632    03773 STO +0 60100 0 01517
      SCANLP       THROUGH SCANLP, FOR EDCT = EDCT, 1,                              310  LM00400
                1  (EDLIN(EDCT+1).NE.BLANK) .OR. (EDCT+1.GE.COUNT)                  310  LM00401
 03774 CLA +0 50000 0 00126    03775 STO +0 60100 0 00126    03776 TRA +0 02000 0 04002    03777 CLA +0 50000 0 00126
 04000 ADD +0 40000 0 01521    04001 STO +0 60100 0 00126    04002 CLA +0 50000 0 00126    04003 ADD +0 40000 0 01521
 04004 SUB +0 40200 0 00122    04005 TZE +0 10000 0 04016    04006 TPL +0 12000 0 04016    04007 CLA +0 50000 0 00126
 04010 ADD +0 40000 0 01521    04011 PAX +0 73400 1 00000    04012 CLA +0 50000 1 00700    04013 SUB +0 40200 0 00113
 04014 TNZ -0 10000 0 04016    04015 TRA +0 02000 0 03777
       GTLP        EDCT = EDCT + 1                                                  311  LM00402
 04016 CLA +0 50000 0 00126    04017 ADD +0 40000 0 01521    04020 STO +0 60100 0 00126
                   WHENEVER EDLIN(EDCT) .E. BLANK, FUNCTION RETURN WORD             312  LM00403
 04021 LXA +0 53400 1 00126    04022 CLA +0 50000 1 00700    04023 SUB +0 40200 0 00113    04024 TNZ -0 10000 0 04027
 04025 CLA +0 50000 0 01517    04026 TRA +0 02000 0 04067
                   WHENEVER EDLIN(EDCT) .E. TAB .OR. EDCT .GE. COUNT                313  LM00404
 04027 CLA +0 50000 0 00126    04030 SUB +0 40200 0 00122    04031 TZE +0 10000 0 04037    04032 TPL +0 12000 0 04037
 04033 LXA +0 53400 1 00126    04034 CLA +0 50000 1 00700    04035 SUB +0 40200 0 01512    04036 TNZ -0 10000 0 04044
                     EDCT = EDCT - 1                                                314  LM00405
 04037 CLA +0 50000 0 00126    04040 SUB +0 40200 0 01521    04041 STO +0 60100 0 00126
                     FUNCTION RETURN WORD                                           315  LM00406
 04042 CLA +0 50000 0 01517    04043 TRA +0 02000 0 04067
                   END OF CONDITIONAL                                               316  LM00407
                   WORD = (WORD .LS. 6) .V. HOL.(EDLIN(EDCT))                       317  LM00408
 04044 CLA +0 50000 0 00126    04045 SUB +0 40200 0 04046    04046 TXH +3 00000 0 00700    04047 STA +0 62100 0 04051
 04050 TSX +0 07400 4 00015    04051 TXH +3 00000 0 00000    04052 STO +0 60100 0 04073    04053 CAL -0 50000 0 01524
 04054 STA +0 62100 0 04056    04055 CAL -0 50000 0 01517    04056 ALS +0 76700 0 00000    04057 ORA -0 50100 0 04073
 04060 SLW +0 60200 0 01517
                   TRANSFER TO GTLP                                                 318  LM00409
 04061 TRA +0 02000 0 00062
                 END OF FUNCTION                                                    319  LM00410
 04062 TSX +0 07400 4 00013    04063 TXH +3 00000 0 00000    04064 SXD -0 63400 1 04063    04065 SXA +0 63400 4 04067
 04066 TRA +0 02000 2 00001    04067 AXT +0 77400 4 00000    04070 LXA +0 53400 2 04063    04071 LXD -0 53400 1 04063
 04072 TRA +0 02000 4 00001
                 INTERNAL FUNCTION(STAR, EN)                                        320  LM00414
 04074 TRA +0 02000 0 04165
                 ENTRY TO PRNT.                                                     321  LM00415
 04075 TRA +0 02000 0 04100    00043 TTR +0 02100 0 04076    04076 SXA +0 63400 2 04144    04077 TSX +0 07400 2 04144
                   TYPOUT.(LINE, STAR-1)                                            322  LM00416
 04100 CLA +0 50000 0 00024    04101 SUB +0 40200 0 01521    04102 STO +0 60100 0 04164    04103 TSX +0 07400 4 00035
 04104 TXH +3 00000 0 01471    04105 TXH +3 00000 0 04164
                   TYPOUT.(REDS, 1)                                                 323  LM00417
 04106 TSX +0 07400 4 00035    04107 TXH +3 00000 0 01506    04110 TXH +3 00000 0 01521
                   TYPOUT.(LINE(STAR-1), EN-STAR+1)                                 324  LM00418
 04111 CLA +0 50000 0 00024    04112 SUB +0 40200 0 00024    04113 ADD +0 40000 0 01521    04114 STO +0 60100 0 04164
 04115 CLA +0 50000 0 00024    04116 SUB +0 40200 0 01521    04117 SUB +0 40200 0 04120    04120 TXH +3 00000 0 01471
 04121 STA +0 62100 0 04123    04122 TSX +0 07400 4 00035    04123 TXH +3 00000 0 00000    04124 TXH +3 00000 0 04164
                   TYPOUT.(BLACKS, 1)                                               325  LM00419
 04125 TSX +0 07400 4 00035    04126 TXH +3 00000 0 00112    04127 TXH +3 00000 0 01521
                   TYPOUT.(LINE(EN), LENGTH-EN)                                     326  LM00420
 04130 CLA +0 50000 0 00717    04131 SUB +0 40200 0 00024    04132 STO +0 60100 0 04164    04133 CLA +0 50000 0 00024
 04134 SUB +0 40200 0 04135    04135 TXH +3 00000 0 01471    04136 STA +0 62100 0 04140    04137 TSX +0 07400 4 00035
 04140 TXH +3 00000 0 00000    04141 TXH +3 00000 0 04164
                   FUNCTION RETURN                                                  327  LM00421
 04142 TRA +0 02000 0 04160
                 END OF FUNCTION                                                    328  LM00422
 04143 TSX +0 07400 4 00013    04144 TXH +3 00000 0 00000    04145 SXD -0 63400 1 04144    04146 SXA +0 63400 4 04160
 04147 CLA +0 50000 4 00001    04150 STA +0 62100 0 04100    04151 STA +0 62100 0 04112    04152 STA +0 62100 0 04115
 04153 CLA +0 50000 4 00002    04154 STA +0 62100 0 04111    04155 STA +0 62100 0 04131    04156 STA +0 62100 0 04133
 04157 TRA +0 02000 2 00001    04160 AXT +0 77400 4 00000    04161 LXA +0 53400 2 04144    04162 LXD -0 53400 1 04144
 04163 TRA +0 02000 4 00001
                 INTERNAL FUNCTION                                                  329  LM00426
 04165 TRA +0 02000 0 04210
                 ENTRY TO CDINIT.                                                   330  LM00427
 04166 TRA +0 02000 0 04171    00040 TTR +0 02100 0 04167    04167 SXA +0 63400 2 04200    04170 TSX +0 07400 2 04200
                 TBINIT.                                                            331  LM00428
 04171 TSX +0 07400 4 00044
                 SETCOL.(72)                                                        332  LM00429
 04172 TSX +0 07400 4 00026    04173 TXH +3 00000 0 01560
                 SINHB.(0)                                                          333  LM00430
 04174 TSX +0 07400 4 00032    04175 TXH +3 00000 0 01520
                 F'N                                                                334  LM00431
 04176 TRA +0 02000 0 04204
                 E'N                                                                335  LM00432
 04177 TSX +0 07400 4 00013    04200 TXH +3 00000 0 00000    04201 SXD -0 63400 1 04200    04202 SXA +0 63400 4 04204
 04203 TRA +0 02000 2 00001    04204 AXT +0 77400 4 00000    04205 LXA +0 53400 2 04200    04206 LXD -0 53400 1 04200
 04207 TRA +0 02000 4 00001
                 INTERNAL FUNCTION                                                  336  LM00436
 04210 TRA +0 02000 0 04655
                 ENTRY TO TBINIT.                                                   337  LM00437
 04211 TRA +0 02000 0 04214    00044 TTR +0 02100 0 04212    04212 SXA +0 63400 2 04645    04213 TSX +0 07400 2 04645
                 NEWTBS.                                                            338  LM00438
 04214 TSX +0 07400 4 00021
                 NEWBKS.                                                            339  LM00439
 04215 TSX +0 07400 4 00020
                 W'R OLDSEC .E. $   MAD$                                            340  LM00440
 04216 CLA +0 50000 0 01502    04217 SUB +0 40200 0 01606    04220 TNZ -0 10000 0 04316
                   T'H MTB, FOR VALUES OF TB = 12,17,22,27,32,37,42,47,55           341  LM00441
 04221 CLA +0 50000 0 01531    04222 STO +0 60100 0 01513    04223 CLA +0 50000 0 04226    04224 STO +0 60100 0 04307
 04225 TRA +0 02000 0 04310    04226 TRA +0 02000 0 04227    04227 CLA +0 50000 0 01533    04230 STO +0 60100 0 01513
 04231 CLA +0 50000 0 04234    04232 STO +0 60100 0 04307    04233 TRA +0 02000 0 04310    04234 TRA +0 02000 0 04235
 04235 CLA +0 50000 0 01535    04236 STO +0 60100 0 01513    04237 CLA +0 50000 0 04242    04240 STO +0 60100 0 04307
 04241 TRA +0 02000 0 04310    04242 TRA +0 02000 0 04243    04243 CLA +0 50000 0 01537    04244 STO +0 60100 0 01513
 04245 CLA +0 50000 0 04250    04246 STO +0 60100 0 04307    04247 TRA +0 02000 0 04310    04250 TRA +0 02000 0 04251
 04251 CLA +0 50000 0 01542    04252 STO +0 60100 0 01513    04253 CLA +0 50000 0 04256    04254 STO +0 60100 0 04307
 04255 TRA +0 02000 0 04310    04256 TRA +0 02000 0 04257    04257 CLA +0 50000 0 01545    04260 STO +0 60100 0 01513
 04261 CLA +0 50000 0 04264    04262 STO +0 60100 0 04307    04263 TRA +0 02000 0 04310    04264 TRA +0 02000 0 04265
 04265 CLA +0 50000 0 01550    04266 STO +0 60100 0 01513    04267 CLA +0 50000 0 04272    04270 STO +0 60100 0 04307
 04271 TRA +0 02000 0 04310    04272 TRA +0 02000 0 04273    04273 CLA +0 50000 0 01552    04274 STO +0 60100 0 01513
 04275 CLA +0 50000 0 04300    04276 STO +0 60100 0 04307    04277 TRA +0 02000 0 04310    04300 TRA +0 02000 0 04301
 04301 CLA +0 50000 0 01554    04302 STO +0 60100 0 01513    04303 CLA +0 50000 0 04306    04304 STO +0 60100 0 04307
 04305 TRA +0 02000 0 04310    04306 TRA +0 02000 0 04313    04307 TRA +0 02000 0 04307
      MTB            TABSET.(TB)                                                    342  LM00442
 04310 TSX +0 07400 4 00033    04311 TXH +3 00000 0 01513    04312 TRA +0 02000 0 04307
                   BKSET.(12)                                                       343  LM00443
 04313 TSX +0 07400 4 00002    04314 TXH +3 00000 0 01531
                 O'R OLDSEC .E. $   FAP$                                            344  LM00444
 04315 TRA +0 02000 0 04643    04316 CLA +0 50000 0 01502    04317 SUB +0 40200 0 01605    04320 TNZ -0 10000 0 04406
                   T'H FTB, FOR VALUES OF TB = 8,16,30,34,38,42,46,55               345  LM00445
 04321 CLA +0 50000 0 01526    04322 STO +0 60100 0 01513    04323 CLA +0 50000 0 04326    04324 STO +0 60100 0 04401
 04325 TRA +0 02000 0 04402    04326 TRA +0 02000 0 04327    04327 CLA +0 50000 0 01532    04330 STO +0 60100 0 01513
 04331 CLA +0 50000 0 04334    04332 STO +0 60100 0 04401    04333 TRA +0 02000 0 04402    04334 TRA +0 02000 0 04335
 04335 CLA +0 50000 0 01540    04336 STO +0 60100 0 01513    04337 CLA +0 50000 0 04342    04340 STO +0 60100 0 04401
 04341 TRA +0 02000 0 04402    04342 TRA +0 02000 0 04343    04343 CLA +0 50000 0 01543    04344 STO +0 60100 0 01513
 04345 CLA +0 50000 0 04350    04346 STO +0 60100 0 04401    04347 TRA +0 02000 0 04402    04350 TRA +0 02000 0 04351
 04351 CLA +0 50000 0 01546    04352 STO +0 60100 0 01513    04353 CLA +0 50000 0 04356    04354 STO +0 60100 0 04401
 04355 TRA +0 02000 0 04402    04356 TRA +0 02000 0 04357    04357 CLA +0 50000 0 01550    04360 STO +0 60100 0 01513
 04361 CLA +0 50000 0 04364    04362 STO +0 60100 0 04401    04363 TRA +0 02000 0 04402    04364 TRA +0 02000 0 04365
 04365 CLA +0 50000 0 01551    04366 STO +0 60100 0 01513    04367 CLA +0 50000 0 04372    04370 STO +0 60100 0 04401
 04371 TRA +0 02000 0 04402    04372 TRA +0 02000 0 04373    04373 CLA +0 50000 0 01554    04374 STO +0 60100 0 01513
 04375 CLA +0 50000 0 04400    04376 STO +0 60100 0 04401    04377 TRA +0 02000 0 04402    04400 TRA +0 02000 0 04405
 04401 TRA +0 02000 0 04401
      FTB            TABSET.(TB)                                                    346  LM00446
 04402 TSX +0 07400 4 00033    04403 TXH +3 00000 0 01513    04404 TRA +0 02000 0 04401
                 O'R OLDSEC .E. $MADTRN$                                            347  LM00447
 04405 TRA +0 02000 0 04643    04406 CLA +0 50000 0 01502    04407 SUB +0 40200 0 01570    04410 TNZ -0 10000 0 04514
                   T'H F2TB, FOR VALUES OF TB = 7,12,17,22,27,32,37,42,47,55        348  LM00448
 04411 CLA +0 50000 0 01525    04412 STO +0 60100 0 01513    04413 CLA +0 50000 0 04416    04414 STO +0 60100 0 04505
 04415 TRA +0 02000 0 04506    04416 TRA +0 02000 0 04417    04417 CLA +0 50000 0 01531    04420 STO +0 60100 0 01513
 04421 CLA +0 50000 0 04424    04422 STO +0 60100 0 04505    04423 TRA +0 02000 0 04506    04424 TRA +0 02000 0 04425
 04425 CLA +0 50000 0 01533    04426 STO +0 60100 0 01513    04427 CLA +0 50000 0 04432    04430 STO +0 60100 0 04505
 04431 TRA +0 02000 0 04506    04432 TRA +0 02000 0 04433    04433 CLA +0 50000 0 01535    04434 STO +0 60100 0 01513
 04435 CLA +0 50000 0 04440    04436 STO +0 60100 0 04505    04437 TRA +0 02000 0 04506    04440 TRA +0 02000 0 04441
 04441 CLA +0 50000 0 01537    04442 STO +0 60100 0 01513    04443 CLA +0 50000 0 04446    04444 STO +0 60100 0 04505
 04445 TRA +0 02000 0 04506    04446 TRA +0 02000 0 04447    04447 CLA +0 50000 0 01542    04450 STO +0 60100 0 01513
 04451 CLA +0 50000 0 04454    04452 STO +0 60100 0 04505    04453 TRA +0 02000 0 04506    04454 TRA +0 02000 0 04455
 04455 CLA +0 50000 0 01545    04456 STO +0 60100 0 01513    04457 CLA +0 50000 0 04462    04460 STO +0 60100 0 04505
 04461 TRA +0 02000 0 04506    04462 TRA +0 02000 0 04463    04463 CLA +0 50000 0 01550    04464 STO +0 60100 0 01513
 04465 CLA +0 50000 0 04470    04466 STO +0 60100 0 04505    04467 TRA +0 02000 0 04506    04470 TRA +0 02000 0 04471
 04471 CLA +0 50000 0 01552    04472 STO +0 60100 0 01513    04473 CLA +0 50000 0 04476    04474 STO +0 60100 0 04505
 04475 TRA +0 02000 0 04506    04476 TRA +0 02000 0 04477    04477 CLA +0 50000 0 01554    04500 STO +0 60100 0 01513
 04501 CLA +0 50000 0 04504    04502 STO +0 60100 0 04505    04503 TRA +0 02000 0 04506    04504 TRA +0 02000 0 04511
 04505 TRA +0 02000 0 04505
      F2TB           TABSET.(TB)                                                    349  LM00449
 04506 TSX +0 07400 4 00033    04507 TXH +3 00000 0 01513    04510 TRA +0 02000 0 04505
                   BKSET.(7)                                                        350  LM00450
 04511 TSX +0 07400 4 00002    04512 TXH +3 00000 0 01525
                 O'R OLDSEC .E. $ ALGOL$                                            351  LM00451
 04513 TRA +0 02000 0 04643    04514 CLA +0 50000 0 01502    04515 SUB +0 40200 0 01572    04516 TNZ -0 10000 0 04634
                   T'H ATB, FOR VALUES OF TB = 11,16,21,26,31,36,41,46,51,56,       352  LM00452
                1    61,66                                                          352  LM00453
 04517 CLA +0 50000 0 01530    04520 STO +0 60100 0 01513    04521 CLA +0 50000 0 04524    04522 STO +0 60100 0 04627
 04523 TRA +0 02000 0 04630    04524 TRA +0 02000 0 04525    04525 CLA +0 50000 0 01532    04526 STO +0 60100 0 01513
 04527 CLA +0 50000 0 04532    04530 STO +0 60100 0 04627    04531 TRA +0 02000 0 04630    04532 TRA +0 02000 0 04533
 04533 CLA +0 50000 0 01534    04534 STO +0 60100 0 01513    04535 CLA +0 50000 0 04540    04536 STO +0 60100 0 04627
 04537 TRA +0 02000 0 04630    04540 TRA +0 02000 0 04541    04541 CLA +0 50000 0 01536    04542 STO +0 60100 0 01513
 04543 CLA +0 50000 0 04546    04544 STO +0 60100 0 04627    04545 TRA +0 02000 0 04630    04546 TRA +0 02000 0 04547
 04547 CLA +0 50000 0 01541    04550 STO +0 60100 0 01513    04551 CLA +0 50000 0 04554    04552 STO +0 60100 0 04627
 04553 TRA +0 02000 0 04630    04554 TRA +0 02000 0 04555    04555 CLA +0 50000 0 01544    04556 STO +0 60100 0 01513
 04557 CLA +0 50000 0 04562    04560 STO +0 60100 0 04627    04561 TRA +0 02000 0 04630    04562 TRA +0 02000 0 04563
 04563 CLA +0 50000 0 01547    04564 STO +0 60100 0 01513    04565 CLA +0 50000 0 04570    04566 STO +0 60100 0 04627
 04567 TRA +0 02000 0 04630    04570 TRA +0 02000 0 04571    04571 CLA +0 50000 0 01551    04572 STO +0 60100 0 01513
 04573 CLA +0 50000 0 04576    04574 STO +0 60100 0 04627    04575 TRA +0 02000 0 04630    04576 TRA +0 02000 0 04577
 04577 CLA +0 50000 0 01553    04600 STO +0 60100 0 01513    04601 CLA +0 50000 0 04604    04602 STO +0 60100 0 04627
 04603 TRA +0 02000 0 04630    04604 TRA +0 02000 0 04605    04605 CLA +0 50000 0 01555    04606 STO +0 60100 0 01513
 04607 CLA +0 50000 0 04612    04610 STO +0 60100 0 04627    04611 TRA +0 02000 0 04630    04612 TRA +0 02000 0 04613
 04613 CLA +0 50000 0 01556    04614 STO +0 60100 0 01513    04615 CLA +0 50000 0 04620    04616 STO +0 60100 0 04627
 04617 TRA +0 02000 0 04630    04620 TRA +0 02000 0 04621    04621 CLA +0 50000 0 01557    04622 STO +0 60100 0 01513
 04623 CLA +0 50000 0 04626    04624 STO +0 60100 0 04627    04625 TRA +0 02000 0 04630    04626 TRA +0 02000 0 04633
 04627 TRA +0 02000 0 04627
      ATB            TABSET.(TB)                                                    353  LM00454
 04630 TSX +0 07400 4 00033    04631 TXH +3 00000 0 01513    04632 TRA +0 02000 0 04627
                 O'E                                                                354  LM00455
 04633 TRA +0 02000 0 04643
                   PRINT COMMENT $OT1A1B1S0 1N1O1T0 1S1E1T0.$                       355  LM00456
 04634 TSX +0 07400 4 00016    04635     +0 00000 0 00005    04636     -0 66301 2 10122    04637     +0 16200 6 00145
 04640     +0 14601 6 30060    04641     +0 16201 2 50163    04642     +0 03360 6 06060
                 E'L                                                                356  LM00457
                 FUNCTION RETURN                                                    357  LM00458
 04643 TRA +0 02000 0 04651
                 END OF FUNCTION                                                    358  LM00459
 04644 TSX +0 07400 4 00013    04645 TXH +3 00000 0 00000    04646 SXD -0 63400 1 04645    04647 SXA +0 63400 4 04651
 04650 TRA +0 02000 2 00001    04651 AXT +0 77400 4 00000    04652 LXA +0 53400 2 04645    04653 LXD -0 53400 1 04645
 04654 TRA +0 02000 4 00001
                 END OF PROGRAM                                                     359  LM00461
 04655 TSX +0 07400 4 00013
1     MAD PROGRAM LISTING ... ... ...                 FILE  EDLVAL   MAD            09/18/68    0946.7
-
                 ..  ROUTINE TO RETURN INITIAL VALUES TO EDITOR FOR                                    LM00001
                 ..  EDITING ASCII FILES.                                                              LM00002
                                                                                                       LM00003
                  EXTERNAL FUNCTION(BLANK, TAB, DEFALT, MCHNG, REDS, BLACKS)                      *001 LM00004
                  NORMAL MODE IS INTEGER                                                          *002 LM00005
                  ENTRY TO GETVAL.                                                                *003 LM00006
                    BLANK  = 060K                                                                 *004 LM00007
                    TAB    = 072K                                                                 *005 LM00008
                    DEFALT = $   MAD$                                                             *006 LM00009
                    MCHNG  = 055K                                                                 *007 LM00010
                    REDS   = 133K                                                                 *008 LM00011
                    BLACKS = 132K                                                                 *009 LM00012
                    FUNCTION RETURN                                                               *010 LM00013
                  END OF FUNCTION                                                                 *011 LM00014
1MAD PROGRAM,TYPE NOV 1963      (ALL NUMBERS ARE OCTAL)
0TOTAL LOCATIONS   00061 TRANSFER VECTOR LENGTH  00001 PROGRAM BEGINS    00012
0 PROGRAM IS AN EXTERNAL FUNCTION.   THE FOLLOWING ARE ENTRIES
      GETVAL 00013   0
0FUNCTION DICTIONARY
      EXIT   00000   1
0ABSOLUTE CONSTANTS
 00006 +000000000132     00007 +000000000133     00003 +000000000055     00011 -206060442124     00005 +000000000072
 00004 +000000000060     00002 +000000000001     00010 +233000000000
0PROGRAM
                 EXTERNAL FUNCTION(BLANK, TAB, DEFALT, MCHNG, REDS, BLACKS)         001  LM00004
                 NORMAL MODE IS INTEGER                                             002  LM00005
                 ENTRY TO GETVAL.                                                   003  LM00006
 00012 TRA +0 02000 0 00015    00013 SXA +0 63400 2 00033    00014 TSX +0 07400 2 00033
                   BLANK  = 060K                                                    004  LM00007
 00015 CLA +0 50000 0 00004    00016 STO +0 60100 0 00024
                   TAB    = 072K                                                    005  LM00008
 00017 CLA +0 50000 0 00005    00020 STO +0 60100 0 00024
                   DEFALT = $   MAD$                                                006  LM00009
 00021 CLA +0 50000 0 00011    00022 STO +0 60100 0 00024
                   MCHNG  = 055K                                                    007  LM00010
 00023 CLA +0 50000 0 00003    00024 STO +0 60100 0 00024
                   REDS   = 133K                                                    008  LM00011
 00025 CLA +0 50000 0 00007    00026 STO +0 60100 0 00024
                   BLACKS = 132K                                                    009  LM00012
 00027 CLA +0 50000 0 00006    00030 STO +0 60100 0 00024
                   FUNCTION RETURN                                                  010  LM00013
 00031 TRA +0 02000 0 00053
                 END OF FUNCTION                                                    011  LM00014
 00032 TSX +0 07400 4 00000    00033 TXH +3 00000 0 00000    00034 SXD -0 63400 1 00033    00035 SXA +0 63400 4 00053
 00036 CLA +0 50000 4 00001    00037 STA +0 62100 0 00016    00040 CLA +0 50000 4 00002    00041 STA +0 62100 0 00020
 00042 CLA +0 50000 4 00003    00043 STA +0 62100 0 00022    00044 CLA +0 50000 4 00004    00045 STA +0 62100 0 00024
 00046 CLA +0 50000 4 00005    00047 STA +0 62100 0 00026    00050 CLA +0 50000 4 00006    00051 STA +0 62100 0 00030
 00052 TRA +0 02000 2 00001    00053 AXT +0 77400 4 00000    00054 LXA +0 53400 2 00033    00055 LXD -0 53400 1 00033
 00056 TRA +0 02000 4 00001
1     MAD PROGRAM LISTING ... ... ...                 FILE  6CONCD   MAD            09/18/68    0957.6
-
                  CARD IMAGE I/O MODULE FOR EDL PACKAGE.                                               LM00001
                                                                                                       LM00002
                     PETER R. BOS     SEPTEMBER 1967.                                                  LM00003
                                                                                                       LM00004
                  THIS MODULE, TOGETHER WITH THE OTHER COMPONENTS                                      LM00005
                  OF THE EDL COMMAND, IS INTENDED TO PROVIDE AN                                        LM00006
                  ALTERNATIVE TO THE SYSTEM COMMAND 'ED', GIVING                                       LM00007
                  SOMEWHAT GREATER CONVENIENCES, AND ALLOWING                                          LM00008
                  INTERMEDIATE FILES TO BE WRITTEN IN TEMPORARY                                        LM00009
                  MODE WHEN EXCEEDING RECORD QUOTAS (WHICH ED DOES                                     LM00010
                  NOT DO). WHEN USED TOGETHER WITH THE MODIFIED                                        LM00011
                  MAIN PROGRAM 'EDITCD', TAB SETTINGS ARE INTERPRETED,                                 LM00012
                  AND FILES MAY BE SERIALIZED.                                                         LM00013
                                                                                                       LM00014
                  EXTERNAL FUNCTION (LINE, L, EOF)                                                *001 LM00015
                  NORMAL MODE IS INTEGER                                                          *002 LM00016
                  BOOLEAN SRINHB                                                                  *003 LM00017
                  STATEMENT LABEL EOF                                                             *004 LM00018
                  INSERT FILE .MOD.                                                               *005 LM00019
                      DEFINE BINARY OPERATOR .MOD., PRECEDENCE SAME AS /                          *006 LM00001
                      MODE STRUCTURE 1 .MOD. 1 TO 1                                               *007 LM00002
             JMP      *+1,AT,*+3                                                                  *008 LM00003
             JMP      *+11,AC,*+1                                                                 *009 LM00004
             JMP      *+12,LA,*+6                                                                 *010 LM00005
             JMP      *+13,AC,*+1                                                                 *011 LM00006
             JMP      *+2,MQ,*+1                                                                  *012 LM00007
             JMP      *+13,LA,*+2                                                                 *013 LM00008
             STQ      T                                                                           *014 LM00009
             LDQ      A                                                                           *015 LM00010
             PXD                                                                                  *016 LM00011
             LLS      0                                                                           *017 LM00012
             DVP      B                                                                           *018 LM00013
             OUT      AC                                                                          *019 LM00014
             XCA                                                                                  *020 LM00015
             JMP      *-5                                                                         *021 LM00016
             XCL                                                                                  *022 LM00017
             JMP      *-7                                                                         *023 LM00018
             STO      T                                                                           *024 LM00019
             JMP      *-10                                                                        *025 LM00020
             SLW      T                                                                           *026 LM00021
             JMP      *-12                                                                        *027 LM00022
             END                                                                                  *028 LM00023
                  DIMENSION CARD(14), TB(20), BK(84)                                              *029 LM00020
                  VECTOR VALUES BK=377777777777K                                                  *030 LM00021
                  VECTOR VALUES NBKS=0                                                            *031 LM00022
                  VECTOR VALUES MXBKS=83                                                          *032 LM00023
                  VECTOR VALUES TB=377777777777K                                                  *033 LM00024
                  VECTOR VALUES MXTBS=20                                                          *034 LM00025
                  VECTOR VALUES NTBS=0                                                            *035 LM00026
                  VECTOR VALUES FNS3=377777777777K                                                *036 LM00027
                  VECTOR VALUES FNS7=777777777777K                                                *037 LM00028
                  VECTOR VALUES FSTNO=10                                                          *038 LM00029
                  VECTOR VALUES INCR=10                                                           *039 LM00030
                  VECTOR VALUES NXTNO=10                                                          *040 LM00031
                  VECTOR VALUES ZLNO=$ 00000$                                                     *041 LM00032
                  VECTOR VALUES SRINHB=0B                                                         *042 LM00033
                  VECTOR VALUES BLNK=60K                                                          *043 LM00034
                  VECTOR VALUES BLNKS=$ $                                                         *044 LM00035
                  VECTOR VALUES RETURN=55K                                                        *045 LM00036
                  VECTOR VALUES TAB=72K                                                           *046 LM00037
                  VECTOR VALUES BKSP=35K                                                          *047 LM00038
                    (COLON USED FOR BACKSPACE)                                                         LM00039
                  VECTOR VALUES NCOLS=72                                                          *048 LM00040
                  VECTOR VALUES MXCOLS=84                                                         *049 LM00041
                  VECTOR VALUES SRCOL=72                                                          *050 LM00042
                  VECTOR VALUES NWRDS=14                                                          *051 LM00043
                  VECTOR VALUES NCLWD=2                                                           *052 LM00044
                  VECTOR VALUES NCHRS=6                                                           *053 LM00045
                  VECTOR VALUES BTSCHR=6                                                          *054 LM00046
                  VECTOR VALUES CHRMSK=77K                                                        *055 LM00047
                  VECTOR VALUES UNMSK=777777777700K                                               *056 LM00048
                                                                                                       LM00049
                  ENTRY TO SETBK.                                                                 *057 LM00050
                  BKSP=LINE.A.CHRMSK                                                              *058 LM00051
                  FUNCTION RETURN                                                                 *059 LM00052
                                                                                                       LM00053
                  ENTRY TO WRITE.                                                                 *060 LM00054
                  ( WRITE.(LINE,LENGTH) )                                                              LM00055
                  B=0                                                                             *061 LM00056
                  T=0                                                                             *062 LM00057
                  WHENEVER L.L.1, FUNCTION RETURN                                                 *063 LM00058
                  LTH=L-1                                                                         *064 LM00059
                  J=1                                                                             *065 LM00060
                  THROUGH UNCNV, FOR I=1,1,I.G.LTH                                                *066 LM00061
      GTTB          THROUGH GTTB, FOR T=0,1,TB(T).G.J                                             *067 LM00062
      GTBK          THROUGH GTBK, FOR B=0,1,BK(B).GE.J                                            *068 LM00063
                    CHAR=LINE(I).A.CHRMSK                                                         *069 LM00064
                    WHENEVER CHAR.E.TAB                                                           *070 LM00065
                      WHENEVER TB(T).E.FNS3                                                       *071 LM00066
                        CHAR=BLNK                                                                 *072 LM00067
                        TRANSFER TO ISCHR                                                         *073 LM00068
                      END OF CONDITIONAL                                                          *074 LM00069
                      THROUGH FILLT, FOR J=J,1,J.E.TB(T)                                          *075 LM00070
                        STCHR.(BLNK,J,EOLW)                                                       *076 LM00071
      FILLT           CONTINUE                                                                    *077 LM00072
                    OR WHENEVER CHAR.E.BKSP.AND.J.E.BK(B)                                         *078 LM00073
                      J=J-1                                                                       *079 LM00074
                    OTHERWISE                                                                     *080 LM00075
      ISCHR           STCHR.(CHAR,J,EOLW)                                                         *081 LM00076
                      J=J+1                                                                       *082 LM00077
                    END OF CONDITIONAL                                                            *083 LM00078
      UNCNV       CONTINUE                                                                        *084 LM00079
      EOLW        FILLB.                                                                          *085 LM00080
                  WHENEVER .NOT.SRINHB, SERIAL.                                                   *086 LM00081
                  WRCARD.                                                                         *087 LM00082
                  FUNCTION RETURN                                                                 *088 LM00083
                                                                                                       LM00084
                  ENTRY TO READ.                                                                  *089 LM00085
                  ( LENGTH=READ.(LINE,BUFSIZ,EOF) )                                                    LM00086
                  B=0                                                                             *090 LM00087
                  T=0                                                                             *091 LM00088
                  LTH=L-1                                                                         *092 LM00089
                  J=1                                                                             *093 LM00090
                  LAST=0                                                                          *094 LM00091
                  RDCARD.(EOF)                                                                    *095 LM00092
                  THROUGH CNVRT, FOR I=1,1,I.G.LTH                                                *096 LM00093
                    GTCHR.(CHAR,J,EOLR)                                                           *097 LM00094
                    WHENEVER CHAR.NE.BLNK, LAST=I                                                 *098 LM00095
                    LINE(I)=CHAR                                                                  *099 LM00096
                    J=J+1                                                                         *100 LM00097
      CNVRT       CONTINUE                                                                        *101 LM00098
      EOLR        LINE(LAST+1)=RETURN                                                             *102 LM00099
                  FUNCTION RETURN LAST+1                                                          *103 LM00100
                                                                                                       LM00101
                  ENTRY TO BOTTOM.                                                                *104 LM00102
      RD          RDCARD.(ENDB)                                                                   *105 LM00103
                  J=NCOLS+1                                                                       *106 LM00104
                  FILLB.                                                                          *107 LM00105
                  WHENEVER .NOT. SRINHB, SERIAL.                                                  *108 LM00106
                  WRCARD.                                                                         *109 LM00107
                  TRANSFER TO RD                                                                  *110 LM00108
      ENDB        FUNCTION RETURN                                                                 *111 LM00109
                                                                                                       LM00110
                  ENTRY TO NEWTBS.                                                                *112 LM00111
                  TB=FNS3                                                                         *113 LM00112
                  NTBS=0                                                                          *114 LM00113
                  FUNCTION RETURN                                                                 *115 LM00114
                                                                                                       LM00115
                  ENTRY TO NEWBKS.                                                                *116 LM00116
                  BK=FNS3                                                                         *117 LM00117
                  NBKS=0                                                                          *118 LM00118
                  FUNCTION RETURN                                                                 *119 LM00119
                                                                                                       LM00120
                  ENTRY TO TABSET.                                                                *120 LM00121
                  WHENEVER NTBS.GE.MXTBS, FUNCTION RETURN                                         *121 LM00122
                  WHENEVER LINE.L.TB(NTBS-1).AND.NTBS.G.0, FUNCTION RETURN                        *122 LM00123
                  TB(NTBS)=LINE                                                                   *123 LM00124
                  NTBS=NTBS+1                                                                     *124 LM00125
                  TB(NTBS)=FNS3                                                                   *125 LM00126
                  FUNCTION RETURN                                                                 *126 LM00127
                                                                                                       LM00128
                  ENTRY TO BKSET.                                                                 *127 LM00129
                  WHENEVER LINE.G.NCOLS, FUNCTION RETURN                                          *128 LM00130
                  WHENEVER NBKS.GE.MXBKS, FUNCTION RETURN                                         *129 LM00131
                  WHENEVER LINE.LE.1, FUNCTION RETURN                                             *130 LM00132
                  WHENEVER LINE.L.BK(NBKS-1).AND.NBKS.G.0, FUNCTION RETURN                        *131 LM00133
                  BK(NBKS)=LINE                                                                   *132 LM00134
                  NBKS=NBKS+1                                                                     *133 LM00135
                  BK(NBKS)=FNS3                                                                   *134 LM00136
                  FUNCTION RETURN                                                                 *135 LM00137
                                                                                                       LM00138
                  ENTRY TO SETSR.                                                                 *136 LM00139
                  NXTNO=LINE                                                                      *137 LM00140
                  FSTNO=LINE                                                                      *138 LM00141
                  INCR=L                                                                          *139 LM00142
                  FUNCTION RETURN                                                                 *140 LM00143
                                                                                                       LM00144
                  ENTRY TO SINHB.                                                                 *141 LM00145
                  EQUIVALENCE(INHB,SRINHB)                                                        *142 LM00146
                  INHB=LINE                                                                       *143 LM00147
                  FUNCTION RETURN                                                                 *144 LM00148
                                                                                                       LM00149
                  ENTRY TO SETCOL.                                                                *145 LM00150
                  NCOLS=LINE                                                                      *146 LM00151
                  WHENEVER NCOLS.E.0, NCOLS=SRCOL                                                 *147 LM00152
                  WHENEVER NCOLS.NE.SRCOL, SRINHB=1B                                              *148 LM00153
                  WHENEVER NCOLS.G.MXCOLS, NCOLS=MXCOLS                                           *149 LM00154
                  FUNCTION RETURN                                                                 *150 LM00155
                                                                                                       LM00156
                  ENTRY TO CLOSEW.                                                                *151 LM00157
                  NXTNO = FSTNO                                                                   *152 LM00158
                  FILE.                                                                           *153 LM00159
                  FUNCTION RETURN                                                                 *154 LM00160
                                                                                                       LM00161
                                                                                                       LM00162
                  ...INTERNAL SUBROUTINES.                                                             LM00163
                                                                                                       LM00164
                  INTERNAL FUNCTION (ENDF)                                                        *155 LM00165
                  STATEMENT LABEL ENDF                                                            *156 LM00166
                  ENTRY TO RDCARD.                                                                *157 LM00167
                  THROUGH RDLP, FOR N=NWRDS,-1,N.L.1                                              *158 LM00168
                    CARD(N)=RDWORD.(ENDF)                                                         *159 LM00169
      RDLP        CONTINUE                                                                        *160 LM00170
                  FUNCTION RETURN                                                                 *161 LM00171
                                                                                                       LM00172
                  ENTRY TO WRCARD.                                                                *162 LM00173
                  THROUGH WRLP, FOR N=NWRDS,-1,N.L.1                                              *163 LM00174
                    WRWORD.(CARD(N))                                                              *164 LM00175
      WRLP        CONTINUE                                                                        *165 LM00176
                  FUNCTION RETURN                                                                 *166 LM00177
                  END OF FUNCTION                                                                 *167 LM00178
                                                                                                       LM00179
                  INTERNAL FUNCTION (ARG1,ARG2,LOC)                                               *168 LM00180
                  STATEMENT LABEL LOC                                                             *169 LM00181
                  ENTRY TO GTCHR.                                                                 *170 LM00182
                  WHENEVER ARG2.G.NCOLS, TRANSFER TO LOC                                          *171 LM00183
                  M=BTSCHR*(NCHRS-1-(ARG2-1).MOD.NCHRS)                                           *172 LM00184
                  N=NWRDS-(ARG2-1)/NCHRS                                                          *173 LM00185
                  ARG1=(CARD(N).RS.M).A.CHRMSK                                                    *174 LM00186
                  FUNCTION RETURN                                                                 *175 LM00187
                                                                                                       LM00188
                  ENTRY TO STCHR.                                                                 *176 LM00189
                  WHENEVER ARG2.G.NCOLS, TRANSFER TO LOC                                          *177 LM00190
                  M=BTSCHR*(NCHRS-1-(ARG2-1).MOD.NCHRS)                                           *178 LM00191
                  N=NWRDS-(ARG2-1)/NCHRS                                                          *179 LM00192
                  CARD(N)=(CARD(N).A.UNMSK.LS.M).V.((ARG1.A.CHRMSK).LS.M)                         *180 LM00193
                  FUNCTION RETURN                                                                 *181 LM00194
                  END OF FUNCTION                                                                 *182 LM00195
                                                                                                       LM00196
                  INTERNAL FUNCTION (ARG1,ARG2)                                                   *183 LM00197
                  ENTRY TO SERIAL.                                                                *184 LM00198
                  LNO=DERBC.(NXTNO).V.ZLNO                                                        *185 LM00199
                  CARD(2)=(LNO.RS.(BTSCHR*NCLWD)).V.                                              *186 LM00200
                1   (BLNKS.LS.(BTSCHR*(NCHRS-NCLWD)))                                             *186 LM00201
                  CARD(1)=LNO.LS.(BTSCHR*(NCHRS-NCLWD)).V.                                        *187 LM00202
                1   (BLNKS.RS.(BTSCHR*NCLWD))                                                     *187 LM00203
                  NXTNO=NXTNO+INCR                                                                *188 LM00204
                  FUNCTION RETURN                                                                 *189 LM00205
                  END OF FUNCTION                                                                 *190 LM00206
                                                                                                       LM00207
                  INTERNAL FUNCTION                                                               *191 LM00208
                  ENTRY TO FILLB.                                                                 *192 LM00209
                  NC=J-1                                                                          *193 LM00210
                  M=BTSCHR*((NC-1).MOD.NCHRS+1)                                                   *194 LM00211
                  N=NWRDS-(NC-1)/NCHRS                                                            *195 LM00212
                  CARD(N)=(CARD(N).A.(FNS7.LS.(BTSCHR*NCHRS-M))).V.(BLNKS.RS.M)                   *196 LM00213
                  THROUGH BLANK, FOR N=N-1,-1,N.L.1                                               *197 LM00214
                    CARD(N)=BLNKS                                                                 *198 LM00215
      BLANK       CONTINUE                                                                        *199 LM00216
                  FUNCTION RETURN                                                                 *200 LM00217
                  END OF FUNCTION                                                                 *201 LM00218
                                                                                                       LM00219
                  END OF FUNCTION                                                                 *202 LM00220
                                       MODE STRUCTURE 1 .MOD. 1 TO 1          007  LM00002
 (THE NUMERIC FORM OF THE OPERATOR-MODE ARGUMENT IS    11111 )
1MAD PROGRAM,TYPE NOV 1963      (ALL NUMBERS ARE OCTAL)
0TOTAL LOCATIONS   01443 TRANSFER VECTOR LENGTH  00005 PROGRAM BEGINS    00261
0 PROGRAM IS AN EXTERNAL FUNCTION.   THE FOLLOWING ARE ENTRIES
      CLOSEW 00740   0        SETCOL 00712   0        SINHB  00704   0        SETSR  00672   0        BKSET  00622   0
      TABSET 00564   0        NEWBKS 00554   0        NEWTBS 00544   0        BOTTOM 00525   0        READ   00443   0
      WRITE  00271   0        SETBK  00262   0
0VARIABLE STORAGE (A=ARRAY,C=COMMON,E=ERASABLE,DIGIT=MODE)
      BK     00146 A 1        ENDB   00015   4        I      00201   1        NCHRS  00213 A 1        RETURN 00223 A 1
      BKSP   00147 A 1        EOLR   00016   4        ISCHR  00020   4        NCLWD  00214 A 1        SRCOL  00224 A 1
      BLANK  00013   4        EOLW   00017   4        J      00202   1        NCOLS  00215 A 1        SRINHB 00014 A 2
      BLNK   00150 A 1        FILLT  00013   4        LAST   00203   1        NC     00216   1        TAB    00225 A 1
      BLNKS  00151 A 1        FNS3   00175 A 1        LNO    00204   1        N      00217   1        TB     00252 A 1
      B      00152   1        FNS7   00176 A 1        LTH    00205   1        NTBS   00220 A 1        T      00253   1
      BTSCHR 00153 A 1        FSTNO  00177 A 1        M      00206   1        NWRDS  00221 A 1        UNCNV  00013   4
      CARD   00172 A 1        GTBK   00013   4        MXBKS  00207 A 1        NXTNO  00222 A 1        UNMSK  00254 A 1
      CHAR   00173   1        GTTB   00013   4        MXCOLS 00210 A 1        RDLP   00013   4        WRLP   00013   4
      CHRMSK 00174 A 1        INCR   00200 A 1        MXTBS  00211 A 1        RD     00021   4        ZLNO   00255 A 1
      CNVRT  00013   4        INHB   00014   1        NBKS   00212 A 1
0FUNCTION DICTIONARY
      DERBC  00000   1        EXIT   00001   1        FILE   00002   1        RDWORD 00003   1        WRWORD 00004   1
      FILLB  00005   1        GTCHR  00006   1        RDCARD 00007   1        SERIAL 00010   1        STCHR  00011   1
      WRCARD 00012   1
0ABSOLUTE CONSTANTS
 00256 +000000000000     00257 +000000000001     00260 +233000000000
0STATEMENT DICTIONARY
 00015 TXL -300543000542       00016 TXL -300521000514       00017 TXL -300435000434       00020 TXL -300430000424
 00021 TXL -300531000527
0PROGRAM
                 EXTERNAL FUNCTION (LINE, L, EOF)                                   001  LM00015
                 NORMAL MODE IS INTEGER                                             002  LM00016
                 BOOLEAN SRINHB                                                     003  LM00017
                 STATEMENT LABEL EOF                                                004  LM00018
                 INSERT FILE .MOD.                                                  005  LM00019
                     DEFINE BINARY OPERATOR .MOD., PRECEDENCE SAME AS /             006  LM00001
                     MODE STRUCTURE 1 .MOD. 1 TO 1                                  007  LM00002
                 D'N CARD(14), TB(20), BK(84)                                       029  LM00020
                 V'S BK=377777777777K                                               030  LM00021
 00146     +3 77777 7 77777
                 V'S NBKS=0                                                         031  LM00022
 00212     +0 00000 0 00000
                 V'S MXBKS=83                                                       032  LM00023
 00207     +0 00000 0 00123
                 V'S TB=377777777777K                                               033  LM00024
 00252     +3 77777 7 77777
                 V'S MXTBS=20                                                       034  LM00025
 00211     +0 00000 0 00024
                 V'S NTBS=0                                                         035  LM00026
 00220     +0 00000 0 00000
                 V'S FNS3=377777777777K                                             036  LM00027
 00175     +3 77777 7 77777
                 V'S FNS7=777777777777K                                             037  LM00028
 00176     -3 77777 7 77777
                 V'S FSTNO=10                                                       038  LM00029
 00177     +0 00000 0 00012
                 V'S INCR=10                                                        039  LM00030
 00200     +0 00000 0 00012
                 V'S NXTNO=10                                                       040  LM00031
 00222     +0 00000 0 00012
                 V'S ZLNO=$ 00000$                                                  041  LM00032
 00255     -2 00000 0 00000
                 V'S SRINHB=0B                                                      042  LM00033
 00014     +0 00000 0 00000
                 V'S BLNK=60K                                                       043  LM00034
 00150     +0 00000 0 00060
                 V'S BLNKS=$ $                                                      044  LM00035
 00151     -2 06060 6 06060
                 V'S RETURN=55K                                                     045  LM00036
 00223     +0 00000 0 00055
                 V'S TAB=72K                                                        046  LM00037
 00225     +0 00000 0 00072
                 V'S BKSP=35K                                                       047  LM00038
 00147     +0 00000 0 00035
                 V'S NCOLS=72                                                       048  LM00040
 00215     +0 00000 0 00110
                 V'S MXCOLS=84                                                      049  LM00041
 00210     +0 00000 0 00124
                 V'S SRCOL=72                                                       050  LM00042
 00224     +0 00000 0 00110
                 V'S NWRDS=14                                                       051  LM00043
 00221     +0 00000 0 00016
                 V'S NCLWD=2                                                        052  LM00044
 00214     +0 00000 0 00002
                 V'S NCHRS=6                                                        053  LM00045
 00213     +0 00000 0 00006
                 V'S BTSCHR=6                                                       054  LM00046
 00153     +0 00000 0 00006
                 V'S CHRMSK=77K                                                     055  LM00047
 00174     +0 00000 0 00077
                 V'S UNMSK=777777777700K                                            056  LM00048
 00254     -3 77777 7 77700
                 ENTRY TO SETBK.                                                    057  LM00050
 00261 TRA +0 02000 0 00264    00262 SXA +0 63400 2 01403    00263 TSX +0 07400 2 01403
                 BKSP=LINE.A.CHRMSK                                                 058  LM00051
 00264 CAL -0 50000 0 00024    00265 ANA -0 32000 0 00174    00266 SLW +0 60200 0 00147
                 F'N                                                                059  LM00052
 00267 TRA +0 02000 0 01435
                 ENTRY TO WRITE.                                                    060  LM00054
 00270 TRA +0 02000 0 00273    00271 SXA +0 63400 2 01403    00272 TSX +0 07400 2 01403
                 B=0                                                                061  LM00056
 00273 CLA +0 50000 0 00256    00274 STO +0 60100 0 00152
                 T=0                                                                062  LM00057
 00275 CLA +0 50000 0 00256    00276 STO +0 60100 0 00253
                 W'R L.L.1, F'N                                                     063  LM00058
 00277 CLA +0 50000 0 00024    00300 SUB +0 40200 0 00257    00301 TZE +0 10000 0 00304    00302 TPL +0 12000 0 00304
 00303 TRA +0 02000 0 01435
                 LTH=L-1                                                            064  LM00059
 00304 CLA +0 50000 0 00024    00305 SUB +0 40200 0 00257    00306 STO +0 60100 0 00205
                 J=1                                                                065  LM00060
 00307 CLA +0 50000 0 00257    00310 STO +0 60100 0 00202
                 T'H UNCNV, FOR I=1,1,I.G.LTH                                       066  LM00061
 00311 CLA +0 50000 0 00257    00312 STO +0 60100 0 00201    00313 TRA +0 02000 0 00317    00314 CLA +0 50000 0 00201
 00315 ADD +0 40000 0 00257    00316 STO +0 60100 0 00201    00317 CLA +0 50000 0 00201    00320 SUB +0 40200 0 00205
 00321 TZE +0 10000 0 00323    00322 TPL +0 12000 0 00434
      GTTB         T'H GTTB, FOR T=0,1,TB(T).G.J                                    067  LM00062
 00323 CLA +0 50000 0 00256    00324 STO +0 60100 0 00253    00325 TRA +0 02000 0 00331    00326 CLA +0 50000 0 00253
 00327 ADD +0 40000 0 00257    00330 STO +0 60100 0 00253    00331 LXA +0 53400 1 00253    00332 CLA +0 50000 1 00252
 00333 SUB +0 40200 0 00202    00334 TZE +0 10000 0 00336    00335 TPL +0 12000 0 00337    00336 TRA +0 02000 0 00326
      GTBK         T'H GTBK, FOR B=0,1,BK(B).GE.J                                   068  LM00063
 00337 CLA +0 50000 0 00256    00340 STO +0 60100 0 00152    00341 TRA +0 02000 0 00345    00342 CLA +0 50000 0 00152
 00343 ADD +0 40000 0 00257    00344 STO +0 60100 0 00152    00345 LXA +0 53400 1 00152    00346 CLA +0 50000 1 00146
 00347 SUB +0 40200 0 00202    00350 TZE +0 10000 0 00353    00351 TPL +0 12000 0 00353    00352 TRA +0 02000 0 00342
                   CHAR=LINE(I).A.CHRMSK                                            069  LM00064
 00353 LXA +0 53400 1 00201    00354 CAL -0 50000 1 00024    00355 ANA -0 32000 0 00174    00356 SLW +0 60200 0 00173
                   W'R CHAR.E.TAB                                                   070  LM00065
 00357 CLA +0 50000 0 00173    00360 SUB +0 40200 0 00225    00361 TNZ -0 10000 0 00411
                     W'R TB(T).E.FNS3                                               071  LM00066
 00362 LXA +0 53400 1 00253    00363 CLA +0 50000 1 00252    00364 SUB +0 40200 0 00175    00365 TNZ -0 10000 0 00371
                       CHAR=BLNK                                                    072  LM00067
 00366 CLA +0 50000 0 00150    00367 STO +0 60100 0 00173
                       T'O ISCHR                                                    073  LM00068
 00370 TRA +0 02000 0 00020
                     E'L                                                            074  LM00069
                     T'H FILLT, FOR J=J,1,J.E.TB(T)                                 075  LM00070
 00371 CLA +0 50000 0 00202    00372 STO +0 60100 0 00202    00373 TRA +0 02000 0 00377    00374 CLA +0 50000 0 00202
 00375 ADD +0 40000 0 00257    00376 STO +0 60100 0 00202    00377 LXA +0 53400 2 00253    00400 CLA +0 50000 0 00202
 00401 SUB +0 40200 2 00252    00402 TZE +0 10000 0 00410
                       STCHR.(BLNK,J,EOLW)                                          076  LM00071
 00403 TSX +0 07400 4 00011    00404 TXH +3 00000 0 00150    00405 TXH +3 00000 0 00202    00406 TXH +3 00000 0 00017
      FILLT          CONTINUE                                                       077  LM00072
 00407 TRA +0 02000 0 00374
                   O'R CHAR.E.BKSP.AND.J.E.BK(B)                                    078  LM00073
 00410 TRA +0 02000 0 00433    00411 LXA +0 53400 2 00152    00412 CLA +0 50000 0 00202    00413 SUB +0 40200 2 00146
 00414 TNZ -0 10000 0 00424    00415 CLA +0 50000 0 00173    00416 SUB +0 40200 0 00147    00417 TNZ -0 10000 0 00424
                     J=J-1                                                          079  LM00074
 00420 CLA +0 50000 0 00202    00421 SUB +0 40200 0 00257    00422 STO +0 60100 0 00202
                   O'E                                                              080  LM00075
 00423 TRA +0 02000 0 00433
      ISCHR          STCHR.(CHAR,J,EOLW)                                            081  LM00076
 00424 TSX +0 07400 4 00011    00425 TXH +3 00000 0 00173    00426 TXH +3 00000 0 00202    00427 TXH +3 00000 0 00017
                     J=J+1                                                          082  LM00077
 00430 CLA +0 50000 0 00202    00431 ADD +0 40000 0 00257    00432 STO +0 60100 0 00202
                   E'L                                                              083  LM00078
      UNCNV      CONTINUE                                                           084  LM00079
 00433 TRA +0 02000 0 00314
      EOLW       FILLB.                                                             085  LM00080
 00434 TSX +0 07400 4 00005
                 W'R .NOT.SRINHB, SERIAL.                                           086  LM00081
 00435 ZET +0 52000 0 00014    00436 TRA +0 02000 0 00440    00437 TSX +0 07400 4 00010
                 WRCARD.                                                            087  LM00082
 00440 TSX +0 07400 4 00012
                 F'N                                                                088  LM00083
 00441 TRA +0 02000 0 01435
                 ENTRY TO READ.                                                     089  LM00085
 00442 TRA +0 02000 0 00445    00443 SXA +0 63400 2 01403    00444 TSX +0 07400 2 01403
                 B=0                                                                090  LM00087
 00445 CLA +0 50000 0 00256    00446 STO +0 60100 0 00152
                 T=0                                                                091  LM00088
 00447 CLA +0 50000 0 00256    00450 STO +0 60100 0 00253
                 LTH=L-1                                                            092  LM00089
 00451 CLA +0 50000 0 00024    00452 SUB +0 40200 0 00257    00453 STO +0 60100 0 00205
                 J=1                                                                093  LM00090
 00454 CLA +0 50000 0 00257    00455 STO +0 60100 0 00202
                 LAST=0                                                             094  LM00091
 00456 CLA +0 50000 0 00256    00457 STO +0 60100 0 00203
                 RDCARD.(EOF)                                                       095  LM00092
 00460 TSX +0 07400 4 00007    00461 TXH +3 00000 0 00024
                 T'H CNVRT, FOR I=1,1,I.G.LTH                                       096  LM00093
 00462 CLA +0 50000 0 00257    00463 STO +0 60100 0 00201    00464 TRA +0 02000 0 00470    00465 CLA +0 50000 0 00201
 00466 ADD +0 40000 0 00257    00467 STO +0 60100 0 00201    00470 CLA +0 50000 0 00201    00471 SUB +0 40200 0 00205
 00472 TZE +0 10000 0 00474    00473 TPL +0 12000 0 00514
                   GTCHR.(CHAR,J,EOLR)                                              097  LM00094
 00474 TSX +0 07400 4 00006    00475 TXH +3 00000 0 00173    00476 TXH +3 00000 0 00202    00477 TXH +3 00000 0 00016
                   W'R CHAR.NE.BLNK, LAST=I                                         098  LM00095
 00500 CLA +0 50000 0 00173    00501 SUB +0 40200 0 00150    00502 TZE +0 10000 0 00505    00503 CLA +0 50000 0 00201
 00504 STO +0 60100 0 00203
                   LINE(I)=CHAR                                                     099  LM00096
 00505 LXA +0 53400 1 00201    00506 CLA +0 50000 0 00173    00507 STO +0 60100 1 00024
                   J=J+1                                                            100  LM00097
 00510 CLA +0 50000 0 00202    00511 ADD +0 40000 0 00257    00512 STO +0 60100 0 00202
      CNVRT      CONTINUE                                                           101  LM00098
 00513 TRA +0 02000 0 00465
      EOLR       LINE(LAST+1)=RETURN                                                102  LM00099
 00514 CLA +0 50000 0 00203    00515 ADD +0 40000 0 00257    00516 PAX +0 73400 1 00000    00517 CLA +0 50000 0 00223
 00520 STO +0 60100 1 00024
                 F'N LAST+1                                                         103  LM00100
 00521 CLA +0 50000 0 00203    00522 ADD +0 40000 0 00257    00523 TRA +0 02000 0 01435
                 ENTRY TO BOTTOM.                                                   104  LM00102
 00524 TRA +0 02000 0 00527    00525 SXA +0 63400 2 01403    00526 TSX +0 07400 2 01403
      RD         RDCARD.(ENDB)                                                      105  LM00103
 00527 TSX +0 07400 4 00007    00530 TXH +3 00000 0 00015
                 J=NCOLS+1                                                          106  LM00104
 00531 CLA +0 50000 0 00215    00532 ADD +0 40000 0 00257    00533 STO +0 60100 0 00202
                 FILLB.                                                             107  LM00105
 00534 TSX +0 07400 4 00005
                 W'R .NOT. SRINHB, SERIAL.                                          108  LM00106
 00535 ZET +0 52000 0 00014    00536 TRA +0 02000 0 00540    00537 TSX +0 07400 4 00010
                 WRCARD.                                                            109  LM00107
 00540 TSX +0 07400 4 00012
                 T'O RD                                                             110  LM00108
 00541 TRA +0 02000 0 00021
      ENDB       F'N                                                                111  LM00109
 00542 TRA +0 02000 0 01435
                 ENTRY TO NEWTBS.                                                   112  LM00111
 00543 TRA +0 02000 0 00546    00544 SXA +0 63400 2 01403    00545 TSX +0 07400 2 01403
                 TB=FNS3                                                            113  LM00112
 00546 CLA +0 50000 0 00175    00547 STO +0 60100 0 00252
                 NTBS=0                                                             114  LM00113
 00550 CLA +0 50000 0 00256    00551 STO +0 60100 0 00220
                 F'N                                                                115  LM00114
 00552 TRA +0 02000 0 01435
                 ENTRY TO NEWBKS.                                                   116  LM00116
 00553 TRA +0 02000 0 00556    00554 SXA +0 63400 2 01403    00555 TSX +0 07400 2 01403
                 BK=FNS3                                                            117  LM00117
 00556 CLA +0 50000 0 00175    00557 STO +0 60100 0 00146
                 NBKS=0                                                             118  LM00118
 00560 CLA +0 50000 0 00256    00561 STO +0 60100 0 00212
                 F'N                                                                119  LM00119
 00562 TRA +0 02000 0 01435
                 ENTRY TO TABSET.                                                   120  LM00121
 00563 TRA +0 02000 0 00566    00564 SXA +0 63400 2 01403    00565 TSX +0 07400 2 01403
                 W'R NTBS.GE.MXTBS, F'N                                             121  LM00122
 00566 CLA +0 50000 0 00220    00567 SUB +0 40200 0 00211    00570 TZE +0 10000 0 00572    00571 TMI -0 12000 0 00573
 00572 TRA +0 02000 0 01435
                 W'R LINE.L.TB(NTBS-1).AND.NTBS.G.0, F'N                            122  LM00123
 00573 CLA +0 50000 0 00220    00574 SUB +0 40200 0 00256    00575 TZE +0 10000 0 00607    00576 TMI -0 12000 0 00607
 00577 CLA +0 50000 0 00220    00600 SUB +0 40200 0 00257    00601 PAX +0 73400 2 00000    00602 CLA +0 50000 0 00024
 00603 SUB +0 40200 2 00252    00604 TZE +0 10000 0 00607    00605 TPL +0 12000 0 00607    00606 TRA +0 02000 0 01435
                 TB(NTBS)=LINE                                                      123  LM00124
 00607 LXA +0 53400 1 00220    00610 CLA +0 50000 0 00024    00611 STO +0 60100 1 00252
                 NTBS=NTBS+1                                                        124  LM00125
 00612 CLA +0 50000 0 00220    00613 ADD +0 40000 0 00257    00614 STO +0 60100 0 00220
                 TB(NTBS)=FNS3                                                      125  LM00126
 00615 LXA +0 53400 1 00220    00616 CLA +0 50000 0 00175    00617 STO +0 60100 1 00252
                 F'N                                                                126  LM00127
 00620 TRA +0 02000 0 01435
                 ENTRY TO BKSET.                                                    127  LM00129
 00621 TRA +0 02000 0 00624    00622 SXA +0 63400 2 01403    00623 TSX +0 07400 2 01403
                 W'R LINE.G.NCOLS, F'N                                              128  LM00130
 00624 CLA +0 50000 0 00024    00625 SUB +0 40200 0 00215    00626 TZE +0 10000 0 00631    00627 TMI -0 12000 0 00631
 00630 TRA +0 02000 0 01435
                 W'R NBKS.GE.MXBKS, F'N                                             129  LM00131
 00631 CLA +0 50000 0 00212    00632 SUB +0 40200 0 00207    00633 TZE +0 10000 0 00635    00634 TMI -0 12000 0 00636
 00635 TRA +0 02000 0 01435
                 W'R LINE.LE.1, F'N                                                 130  LM00132
 00636 CLA +0 50000 0 00024    00637 SUB +0 40200 0 00257    00640 TZE +0 10000 0 00642    00641 TPL +0 12000 0 00643
 00642 TRA +0 02000 0 01435
                 W'R LINE.L.BK(NBKS-1).AND.NBKS.G.0, F'N                            131  LM00133
 00643 CLA +0 50000 0 00212    00644 SUB +0 40200 0 00256    00645 TZE +0 10000 0 00657    00646 TMI -0 12000 0 00657
 00647 CLA +0 50000 0 00212    00650 SUB +0 40200 0 00257    00651 PAX +0 73400 2 00000    00652 CLA +0 50000 0 00024
 00653 SUB +0 40200 2 00146    00654 TZE +0 10000 0 00657    00655 TPL +0 12000 0 00657    00656 TRA +0 02000 0 01435
                 BK(NBKS)=LINE                                                      132  LM00134
 00657 LXA +0 53400 1 00212    00660 CLA +0 50000 0 00024    00661 STO +0 60100 1 00146
                 NBKS=NBKS+1                                                        133  LM00135
 00662 CLA +0 50000 0 00212    00663 ADD +0 40000 0 00257    00664 STO +0 60100 0 00212
                 BK(NBKS)=FNS3                                                      134  LM00136
 00665 LXA +0 53400 1 00212    00666 CLA +0 50000 0 00175    00667 STO +0 60100 1 00146
                 F'N                                                                135  LM00137
 00670 TRA +0 02000 0 01435
                 ENTRY TO SETSR.                                                    136  LM00139
 00671 TRA +0 02000 0 00674    00672 SXA +0 63400 2 01403    00673 TSX +0 07400 2 01403
                 NXTNO=LINE                                                         137  LM00140
 00674 CLA +0 50000 0 00024    00675 STO +0 60100 0 00222
                 FSTNO=LINE                                                         138  LM00141
 00676 CLA +0 50000 0 00024    00677 STO +0 60100 0 00177
                 INCR=L                                                             139  LM00142
 00700 CLA +0 50000 0 00024    00701 STO +0 60100 0 00200
                 F'N                                                                140  LM00143
 00702 TRA +0 02000 0 01435
                 ENTRY TO SINHB.                                                    141  LM00145
 00703 TRA +0 02000 0 00706    00704 SXA +0 63400 2 01403    00705 TSX +0 07400 2 01403
                 EQUIVALENCE(INHB,SRINHB)                                           142  LM00146
                 INHB=LINE                                                          143  LM00147
 00706 CLA +0 50000 0 00024    00707 STO +0 60100 0 00014
                 F'N                                                                144  LM00148
 00710 TRA +0 02000 0 01435
                 ENTRY TO SETCOL.                                                   145  LM00150
 00711 TRA +0 02000 0 00714    00712 SXA +0 63400 2 01403    00713 TSX +0 07400 2 01403
                 NCOLS=LINE                                                         146  LM00151
 00714 CLA +0 50000 0 00024    00715 STO +0 60100 0 00215
                 W'R NCOLS.E.0, NCOLS=SRCOL                                         147  LM00152
 00716 CLA +0 50000 0 00215    00717 SUB +0 40200 0 00256    00720 TNZ -0 10000 0 00723    00721 CLA +0 50000 0 00224
 00722 STO +0 60100 0 00215
                 W'R NCOLS.NE.SRCOL, SRINHB=1B                                      148  LM00153
 00723 CLA +0 50000 0 00215    00724 SUB +0 40200 0 00224    00725 TZE +0 10000 0 00730    00726 CLA +0 50000 0 00257
 00727 STO +0 60100 0 00014
                 W'R NCOLS.G.MXCOLS, NCOLS=MXCOLS                                   149  LM00154
 00730 CLA +0 50000 0 00215    00731 SUB +0 40200 0 00210    00732 TZE +0 10000 0 00736    00733 TMI -0 12000 0 00736
 00734 CLA +0 50000 0 00210    00735 STO +0 60100 0 00215
                 F'N                                                                150  LM00155
 00736 TRA +0 02000 0 01435
                 ENTRY TO CLOSEW.                                                   151  LM00157
 00737 TRA +0 02000 0 00742    00740 SXA +0 63400 2 01403    00741 TSX +0 07400 2 01403
                 NXTNO = FSTNO                                                      152  LM00158
 00742 CLA +0 50000 0 00177    00743 STO +0 60100 0 00222
                 FILE.                                                              153  LM00159
 00744 TSX +0 07400 4 00002
                 F'N                                                                154  LM00160
 00745 TRA +0 02000 0 01435
                 INTERNAL FUNCTION (ENDF)                                           155  LM00165
 00746 TRA +0 02000 0 01032
                 STATEMENT LABEL ENDF                                               156  LM00166
                 ENTRY TO RDCARD.                                                   157  LM00167
 00747 TRA +0 02000 0 00752    00007 TTR +0 02100 0 00750    00750 SXA +0 63400 2 01020    00751 TSX +0 07400 2 01020
                 T'H RDLP, FOR N=NWRDS,-1,N.L.1                                     158  LM00168
 00752 CLA +0 50000 0 00221    00753 STO +0 60100 0 00217    00754 TRA +0 02000 0 00760    00755 CLS +0 50200 0 00257
 00756 ADD +0 40000 0 00217    00757 STO +0 60100 0 00217    00760 CLA +0 50000 0 00217    00761 SUB +0 40200 0 00257
 00762 TZE +0 10000 0 00764    00763 TMI -0 12000 0 00771
                   CARD(N)=RDWORD.(ENDF)                                            159  LM00169
 00764 TSX +0 07400 4 00003    00765 TXH +3 00000 0 00024    00766 LXA +0 53400 1 00217    00767 STO +0 60100 1 00172
      RDLP       CONTINUE                                                           160  LM00170
 00770 TRA +0 02000 0 00755
                 F'N                                                                161  LM00171
 00771 TRA +0 02000 0 01026
                 ENTRY TO WRCARD.                                                   162  LM00173
 00772 TRA +0 02000 0 00775    00012 TTR +0 02100 0 00773    00773 SXA +0 63400 2 01020    00774 TSX +0 07400 2 01020
                 T'H WRLP, FOR N=NWRDS,-1,N.L.1                                     163  LM00174
 00775 CLA +0 50000 0 00221    00776 STO +0 60100 0 00217    00777 TRA +0 02000 0 01003    01000 CLS +0 50200 0 00257
 01001 ADD +0 40000 0 00217    01002 STO +0 60100 0 00217    01003 CLA +0 50000 0 00217    01004 SUB +0 40200 0 00257
 01005 TZE +0 10000 0 01007    01006 TMI -0 12000 0 01016
                   WRWORD.(CARD(N))                                                 164  LM00175
 01007 CLA +0 50000 0 00217    01010 SUB +0 40200 0 01011    01011 TXH +3 00000 0 00172    01012 STA +0 62100 0 01014
 01013 TSX +0 07400 4 00004    01014 TXH +3 00000 0 00000
      WRLP       CONTINUE                                                           165  LM00176
 01015 TRA +0 02000 0 01000
                 F'N                                                                166  LM00177
 01016 TRA +0 02000 0 01026
                 E'N                                                                167  LM00178
 01017 TSX +0 07400 4 00001    01020 TXH +3 00000 0 00000    01021 SXD -0 63400 1 01020    01022 SXA +0 63400 4 01026
 01023 CLA +0 50000 4 00001    01024 STO +0 60100 0 00765    01025 TRA +0 02000 2 00001    01026 AXT +0 77400 4 00000
 01027 LXA +0 53400 2 01020    01030 LXD -0 53400 1 01020    01031 TRA +0 02000 4 00001
                 INTERNAL FUNCTION (ARG1,ARG2,LOC)                                  168  LM00180
 01032 TRA +0 02000 0 01205
                 STATEMENT LABEL LOC                                                169  LM00181
                 ENTRY TO GTCHR.                                                    170  LM00182
 01033 TRA +0 02000 0 01036    00006 TTR +0 02100 0 01034    01034 SXA +0 63400 2 01157    01035 TSX +0 07400 2 01157
                 W'R ARG2.G.NCOLS, T'O LOC                                          171  LM00183
 01036 CLA +0 50000 0 00024    01037 SUB +0 40200 0 00215    01040 TZE +0 10000 0 01043    01041 TMI -0 12000 0 01043
 01042 TRA +0 02000 0 00024
                 M=BTSCHR*(NCHRS-1-(ARG2-1).MOD.NCHRS)                              172  LM00184
 01043 CLA +0 50000 0 00024    01044 SUB +0 40200 0 00257    01045 XCA +0 13100 0 00000    01046 PXD -0 75400 0 00000
 01047 LLS +0 76300 0 00000    01050 DVP +0 22100 0 00213    01051 STO +0 60100 0 01204    01052 CLA +0 50000 0 00213
 01053 SUB +0 40200 0 00257    01054 SUB +0 40200 0 01204    01055 XCA +0 13100 0 00000    01056 MPY +0 20000 0 00153
 01057 STQ -0 60000 0 00206
                 N=NWRDS-(ARG2-1)/NCHRS                                             173  LM00185
 01060 CLA +0 50000 0 00024    01061 SUB +0 40200 0 00257    01062 LRS +0 76500 0 00043    01063 DVP +0 22100 0 00213
 01064 XCA +0 13100 0 00000    01065 CHS +0 76000 0 00002    01066 ADD +0 40000 0 00221    01067 STO +0 60100 0 00217
                 ARG1=(CARD(N).RS.M).A.CHRMSK                                       174  LM00186
 01070 LXA +0 53400 1 00217    01071 CAL -0 50000 0 00206    01072 STA +0 62100 0 01074    01073 CAL -0 50000 1 00172
 01074 LGR -0 76500 0 00000    01075 ANA -0 32000 0 00174    01076 SLW +0 60200 0 00024
                 F'N                                                                175  LM00187
 01077 TRA +0 02000 0 01200
                 ENTRY TO STCHR.                                                    176  LM00189
 01100 TRA +0 02000 0 01103    00011 TTR +0 02100 0 01101    01101 SXA +0 63400 2 01157    01102 TSX +0 07400 2 01157
                 W'R ARG2.G.NCOLS, T'O LOC                                          177  LM00190
 01103 CLA +0 50000 0 00024    01104 SUB +0 40200 0 00215    01105 TZE +0 10000 0 01110    01106 TMI -0 12000 0 01110
 01107 TRA +0 02000 0 00024
                 M=BTSCHR*(NCHRS-1-(ARG2-1).MOD.NCHRS)                              178  LM00191
 01110 CLA +0 50000 0 00024    01111 SUB +0 40200 0 00257    01112 XCA +0 13100 0 00000    01113 PXD -0 75400 0 00000
 01114 LLS +0 76300 0 00000    01115 DVP +0 22100 0 00213    01116 STO +0 60100 0 01204    01117 CLA +0 50000 0 00213
 01120 SUB +0 40200 0 00257    01121 SUB +0 40200 0 01204    01122 XCA +0 13100 0 00000    01123 MPY +0 20000 0 00153
 01124 STQ -0 60000 0 00206
                 N=NWRDS-(ARG2-1)/NCHRS                                             179  LM00192
 01125 CLA +0 50000 0 00024    01126 SUB +0 40200 0 00257    01127 LRS +0 76500 0 00043    01130 DVP +0 22100 0 00213
 01131 XCA +0 13100 0 00000    01132 CHS +0 76000 0 00002    01133 ADD +0 40000 0 00221    01134 STO +0 60100 0 00217
                 CARD(N)=(CARD(N).A.UNMSK.LS.M).V.((ARG1.A.CHRMSK).LS.M)            180  LM00193
 01135 CAL -0 50000 0 00024    01136 ANA -0 32000 0 00174    01137 SLW +0 60200 0 01204    01140 CAL -0 50000 0 00206
 01141 STA +0 62100 0 01143    01142 CAL -0 50000 0 01204    01143 ALS +0 76700 0 00000    01144 SLW +0 60200 0 01204
 01145 CAL -0 50000 0 00206    01146 STA +0 62100 0 01150    01147 CAL -0 50000 0 00254    01150 ALS +0 76700 0 00000
 01151 LXA +0 53400 1 00217    01152 ANA -0 32000 1 00172    01153 ORA -0 50100 0 01204    01154 SLW +0 60200 1 00172
                 F'N                                                                181  LM00194
 01155 TRA +0 02000 0 01200
                 E'N                                                                182  LM00195
 01156 TSX +0 07400 4 00001    01157 TXH +3 00000 0 00000    01160 SXD -0 63400 1 01157    01161 SXA +0 63400 4 01200
 01162 CLA +0 50000 4 00001    01163 STA +0 62100 0 01076    01164 STA +0 62100 0 01135    01165 CLA +0 50000 4 00002
 01166 STA +0 62100 0 01036    01167 STA +0 62100 0 01043    01170 STA +0 62100 0 01060    01171 STA +0 62100 0 01103
 01172 STA +0 62100 0 01110    01173 STA +0 62100 0 01125    01174 CLA +0 50000 4 00003    01175 STA +0 62100 0 01042
 01176 STA +0 62100 0 01107    01177 TRA +0 02000 2 00001    01200 AXT +0 77400 4 00000    01201 LXA +0 53400 2 01157
 01202 LXD -0 53400 1 01157    01203 TRA +0 02000 4 00001
                 INTERNAL FUNCTION (ARG1,ARG2)                                      183  LM00197
 01205 TRA +0 02000 0 01277
                 ENTRY TO SERIAL.                                                   184  LM00198
 01206 TRA +0 02000 0 01211    00010 TTR +0 02100 0 01207    01207 SXA +0 63400 2 01266    01210 TSX +0 07400 2 01266
                 LNO=DERBC.(NXTNO).V.ZLNO                                           185  LM00199
 01211 TSX +0 07400 4 00000    01212 TXH +3 00000 0 00222    01213 STO +0 60100 0 01276    01214 CAL -0 50000 0 01276
 01215 ORA -0 50100 0 00255    01216 SLW +0 60200 0 00204
                 CARD(2)=(LNO.RS.(BTSCHR*NCLWD)).V.                                 186  LM00200
                1  (BLNKS.LS.(BTSCHR*(NCHRS-NCLWD)))                                186  LM00201
 01217 CLA +0 50000 0 00213    01220 SUB +0 40200 0 00214    01221 XCA +0 13100 0 00000    01222 MPY +0 20000 0 00153
 01223 XCA +0 13100 0 00000    01224 STA +0 62100 0 01226    01225 CAL -0 50000 0 00151    01226 ALS +0 76700 0 00000
 01227 SLW +0 60200 0 01276    01230 LDQ +0 56000 0 00153    01231 MPY +0 20000 0 00214    01232 XCA +0 13100 0 00000
 01233 STA +0 62100 0 01235    01234 CAL -0 50000 0 00204    01235 LGR -0 76500 0 00000    01236 ORA -0 50100 0 01276
 01237 SLW +0 60200 0 00170
                 CARD(1)=LNO.LS.(BTSCHR*(NCHRS-NCLWD)).V.                           187  LM00202
                1  (BLNKS.RS.(BTSCHR*NCLWD))                                        187  LM00203
 01240 LDQ +0 56000 0 00153    01241 MPY +0 20000 0 00214    01242 XCA +0 13100 0 00000    01243 STA +0 62100 0 01245
 01244 CAL -0 50000 0 00151    01245 LGR -0 76500 0 00000    01246 SLW +0 60200 0 01276    01247 CLA +0 50000 0 00213
 01250 SUB +0 40200 0 00214    01251 XCA +0 13100 0 00000    01252 MPY +0 20000 0 00153    01253 XCA +0 13100 0 00000
 01254 STA +0 62100 0 01256    01255 CAL -0 50000 0 00204    01256 ALS +0 76700 0 00000    01257 ORA -0 50100 0 01276
 01260 SLW +0 60200 0 00171
                 NXTNO=NXTNO+INCR                                                   188  LM00204
 01261 CLA +0 50000 0 00222    01262 ADD +0 40000 0 00200    01263 STO +0 60100 0 00222
                 F'N                                                                189  LM00205
 01264 TRA +0 02000 0 01272
                 E'N                                                                190  LM00206
 01265 TSX +0 07400 4 00001    01266 TXH +3 00000 0 00000    01267 SXD -0 63400 1 01266    01270 SXA +0 63400 4 01272
 01271 TRA +0 02000 2 00001    01272 AXT +0 77400 4 00000    01273 LXA +0 53400 2 01266    01274 LXD -0 53400 1 01266
 01275 TRA +0 02000 4 00001
                 INTERNAL FUNCTION                                                  191  LM00208
 01277 TRA +0 02000 0 01402
                 ENTRY TO FILLB.                                                    192  LM00209
 01300 TRA +0 02000 0 01303    00005 TTR +0 02100 0 01301    01301 SXA +0 63400 2 01371    01302 TSX +0 07400 2 01371
                 NC=J-1                                                             193  LM00210
 01303 CLA +0 50000 0 00202    01304 SUB +0 40200 0 00257    01305 STO +0 60100 0 00216
                 M=BTSCHR*((NC-1).MOD.NCHRS+1)                                      194  LM00211
 01306 CLA +0 50000 0 00216    01307 SUB +0 40200 0 00257    01310 XCA +0 13100 0 00000    01311 PXD -0 75400 0 00000
 01312 LLS +0 76300 0 00000    01313 DVP +0 22100 0 00213    01314 ADD +0 40000 0 00257    01315 XCA +0 13100 0 00000
 01316 MPY +0 20000 0 00153    01317 STQ -0 60000 0 00206
                 N=NWRDS-(NC-1)/NCHRS                                               195  LM00212
 01320 CLA +0 50000 0 00216    01321 SUB +0 40200 0 00257    01322 LRS +0 76500 0 00043    01323 DVP +0 22100 0 00213
 01324 XCA +0 13100 0 00000    01325 CHS +0 76000 0 00002    01326 ADD +0 40000 0 00221    01327 STO +0 60100 0 00217
                 CARD(N)=(CARD(N).A.(FNS7.LS.(BTSCHR*NCHRS-M))).V.(BLNKS.RS.M)      196  LM00213
 01330 CAL -0 50000 0 00206    01331 STA +0 62100 0 01333    01332 CAL -0 50000 0 00151    01333 LGR -0 76500 0 00000
 01334 SLW +0 60200 0 01401    01335 LDQ +0 56000 0 00153    01336 MPY +0 20000 0 00213    01337 XCA +0 13100 0 00000
 01340 SUB +0 40200 0 00206    01341 STA +0 62100 0 01343    01342 CAL -0 50000 0 00176    01343 ALS +0 76700 0 00000
 01344 LXA +0 53400 1 00217    01345 ANA -0 32000 1 00172    01346 ORA -0 50100 0 01401    01347 SLW +0 60200 1 00172
                 T'H BLANK, FOR N=N-1,-1,N.L.1                                      197  LM00214
 01350 CLA +0 50000 0 00217    01351 SUB +0 40200 0 00257    01352 STO +0 60100 0 00217    01353 TRA +0 02000 0 01357
 01354 CLS +0 50200 0 00257    01355 ADD +0 40000 0 00217    01356 STO +0 60100 0 00217    01357 CLA +0 50000 0 00217
 01360 SUB +0 40200 0 00257    01361 TZE +0 10000 0 01363    01362 TMI -0 12000 0 01367
                   CARD(N)=BLNKS                                                    198  LM00215
 01363 LXA +0 53400 1 00217    01364 CLA +0 50000 0 00151    01365 STO +0 60100 1 00172
      BLANK      CONTINUE                                                           199  LM00216
 01366 TRA +0 02000 0 01354
                 F'N                                                                200  LM00217
 01367 TRA +0 02000 0 01375
                 E'N                                                                201  LM00218
 01370 TSX +0 07400 4 00001    01371 TXH +3 00000 0 00000    01372 SXD -0 63400 1 01371    01373 SXA +0 63400 4 01375
 01374 TRA +0 02000 2 00001    01375 AXT +0 77400 4 00000    01376 LXA +0 53400 2 01371    01377 LXD -0 53400 1 01371
 01400 TRA +0 02000 4 00001
                 END OF FUNCTION                                                    202  LM00220
 01402 TSX +0 07400 4 00001    01403 TXH +3 00000 0 00000    01404 SXD -0 63400 1 01403    01405 SXA +0 63400 4 01435
 01406 CLA +0 50000 4 00001    01407 STA +0 62100 0 00264    01410 STA +0 62100 0 00354    01411 STA +0 62100 0 00507
 01412 STA +0 62100 0 00520    01413 STA +0 62100 0 00602    01414 STA +0 62100 0 00610    01415 STA +0 62100 0 00624
 01416 STA +0 62100 0 00636    01417 STA +0 62100 0 00652    01420 STA +0 62100 0 00660    01421 STA +0 62100 0 00674
 01422 STA +0 62100 0 00676    01423 STA +0 62100 0 00706    01424 STA +0 62100 0 00714    01425 CLA +0 50000 4 00002
 01426 STA +0 62100 0 00277    01427 STA +0 62100 0 00304    01430 STA +0 62100 0 00451    01431 STA +0 62100 0 00700
 01432 CLA +0 50000 4 00003    01433 STO +0 60100 0 00461    01434 TRA +0 02000 2 00001    01435 AXT +0 77400 4 00000
 01436 LXA +0 53400 2 01403    01437 LXD -0 53400 1 01403    01440 TRA +0 02000 4 00001
1            BUFFER CONTROL ROUTINE FOR DISK INPUT AND OUTPUT.                                   PAGE 1

                              *      NOTE, INDEX REGISTERS SIX AND SEVEN MUST BE PRESERVED
                              *      BY THE CALLING PROGRAM.
                              *      THIS ROUTINE MAKES TYPEWRITER COMMENTS, BUT DOES NOT
                              *      AFFECT THE BCD-FULL MODE SWITCH.
                              *
                              *           J. H. SALTZER, JANUARY, 1965.
                              *
                       00015         ENTRY   ASSIGN        TO ASSIGN A NAME TO THE WRITE FILE.
                       00057         ENTRY   WRWORD        TO ADD A WORD TO THE FILE.
                       00100         ENTRY   FILE          TO CLOSE THE FILE.
                              *
                       00160         ENTRY   SEEK          TO OPEN A FILE FOR READING.
                       00242         ENTRY   RDWORD        TO GET A WORD FROM FILE.
                       00275         ENTRY   ENDRD         TO CLOSE THE FILE.
                              *
                                     EXTERN  GETBUF,SETBCD,SETFUL,WRFLX,WRFLXA
                                     EXTERN  OPEN,WRWAIT,RDWAIT,CLOSE,FSTATE,BUFFER
                              *
                              *      ASSIGN.($NAME1$,$NAME2$)
                              *

        TRANSFER VECTOR
      00000  272563226426     GETBUF
      00001  622563222324     SETBCD
      00002  622563266443     SETFUL
      00003  665126436760     WRFLX
      00004  665126436721     WRFLXA
      00005  464725456060     OPEN
      00006  665166213163     WRWAIT
      00007  512466213163     RDWAIT
      00010  234346622560     CLOSE
      00011  266263216325     FSTATE
      00012  226426262551     BUFFER

            LINKAGE DIRECTOR
      00013  000000000000
      00014  216262312745

      00015 -0500 60 4 00001  ASSIGN CAL*    1,4           OPEN FILE, GET FILE NAME.
      00016  0602 00 0 00304         SLW     OUTNAM        ..
      00017 -0500 60 4 00002         CAL*    2,4           ..
      00020  0602 00 0 00305         SLW     OUTNAM+1      ..
      00021  0634 00 4 00041         SXA     OPX4,4        SAVE LINKAGE.
      00022  0020 00 0 00023   OSW   TRA     *+1           ENTER ONE-TIME SECTION TO GET BUFFERS.
                              *                                                    *******************
      00023 -0500 00 0 00315         CAL     WBFSZ         GET AN OUTPUT BUFFER FROM SUPERVISOR.
      00024  0074 00 4 00000         TSX     GETBUF,4      ..
      00025  0621 00 0 00071         STA     WCALL         SAVE LOCATION OF BUFFER.
      00026  0621 00 0 00113         STA     CLCALL        TO CLOSE OUT FILE.
      00027  0361 00 0 00315         ACL     WBFSZ         ADD LENGTH, TO FORM END ADDRESS.
      00030  0621 00 0 00060         STA     WRNM          INSERT IN INSERTER.
      00031 -0500 00 0 00313         CAL     TRKSZ         GET A DISK TRACK BUFFER.
      00032  0074 00 4 00000         TSX     GETBUF,4      ..
      00033  0621 00 0 00055         STA     BFCALL        SET UP BUFFER CALLER.
      00034 -0625 00 0 00022         STL     OSW           RESET ONE-TIME SWITCH.
                              *                                                    *******************
1            BUFFER CONTROL ROUTINE FOR DISK INPUT AND OUTPUT.                                   PAGE 2

      00035  0774 00 4 00040         AXT     OPOK,4        SET QUOTA EXHAUSTED ERROR RETURN.
      00036  0634 00 4 00143         SXA     WRTN,4        ..
      00037  0074 00 3 00043         TSX     OPN,3         OPEN THE FILE.
      00040  0774 00 7 00330  OPOK   AXT     WBFLTH,7      SET UP STORAGE COUNT.
      00041  0774 00 4 00000   OPX4  AXT     --,4          RESTORE LINKAGE.
      00042  0020 00 4 00003         TRA     3,4           RETURN.
                              *
      00043  0074 00 4 00005  OPN    TSX     OPEN,4        OPEN FILE.
 TD   00044  3 00000 0 00324         TXH     =HW           FOR WRITING.
 TD   00045  3 00000 0 00304         TXH     OUTNAM        ..
 TD   00046  3 00000 0 00305         TXH     OUTNAM+1      ..
 TD   00047  3 00000 0 00156         TXH     MODE          MAKE IT PERMANENT IF POSSIBLE.
 TD   00050  3 00000 0 00320         TXH     =2            PUT IT ON THE DISK.
 TD   00051  3 00000 0 00127  OPERR  TXH     OEXH          IN CASE NO MORE QUOTA AVAILABLE.
      00052  0074 00 4 00012         TSX     BUFFER,4      ASSIGN A BUFFER FOR THE FILE.
 TD   00053  3 00000 0 00304         TXH     OUTNAM        ..
 TD   00054  3 00000 0 00305         TXH     OUTNAM+1      ..
      00055  3 00660 0 00000  BFCALL TXH     --,,TRKLTH    ..
      00056  0020 00 3 00001         TRA     1,3           RETURN TO CALLER.
                              *
                              *
                              *      ENTRY TO ADD A WORD TO FILE.
                              *              WRWORD.(WORD)
                              *
      00057 -0500 60 4 00001  WRWORD CAL*    1,4           GET WORD TO BE ADDED.
      00060  0602 00 7 00000   WRNM  SLW     --,7          ADD WORD TO OUTPUT BUFFER.
      00061  2 00001 7 00077         TIX     RETURN,7,1    COUNT AND CHECK FOR FULL BUFFER.
      00062  0634 00 4 00076   FULL  SXA     FULX4,4       BUFFER FULL, WRITE IT OUT.
      00063  0774 00 4 00065         AXT     WRAGN,4       SET UP EXHAUSTED RETURN ADDRESS.
      00064  0634 00 4 00143         SXA     WRTN,4        ..
      00065  0074 00 4 00006  WRAGN  TSX     WRWAIT,4      GIVE BUFFER TO SUPERVISOR.
 TD   00066  3 00000 0 00304         TXH     OUTNAM        ..
 TD   00067  3 00000 0 00305         TXH     OUTNAM+1      ..
 TD   00070  3 00000 0 00316         TXH     =0            ..
      00071  3 00330 0 00000  WCALL  TXH     --,,WBFLTH    ..
 TD   00072  3 00000 0 00321         TXH     =-0           IGNORE POSSIBLE EOF.
 TD   00073  3 00000 0 00321         TXH     =-0           ..
 TD   00074  3 00000 0 00124  WRERR  TXH     WEXH          ALLOW ERROR RETURN.
      00075  0774 00 7 00330         AXT     WBFLTH,7      RESET BUFFER POINTER.
      00076  0774 00 4 00000   FULX4 AXT     --,4          RESTORE LINKAGE.
      00077  0020 00 4 00002  RETURN TRA     2,4           RETURN TO CALLER.
                              *
                              *      FILE.     NO ARGUMENTS.
                              *
      00100  0634 00 4 00122  FILE   SXA     CL4,4         ENTRY TO CLOSE OUT FILE.
      00101 -0634 00 7 00103         SXD     *+2,7         FORM COUNT OF WORDS SINCE
      00102  0774 00 7 00330         AXT     WBFLTH,7      LAST BUFFER WAS WRITTEN.
      00103 -2 00000 7 00117         TNX     NOWR,7,--     IF ZERO, SKIP FINAL WRITE CALL.
      00104 -0634 00 7 00113         SXD     CLCALL,7      NON-ZERO, SET UP WRITE CALL.
      00105  0774 00 4 00107         AXT     FWR,4         SET UP RETURN ADDRESS FOR EXHAUSTED CASE.
      00106  0634 00 4 00143         SXA     WRTN,4        ..
      00107  0074 00 4 00006  FWR    TSX     WRWAIT,4      WRITE OUT PARTIAL BUFFER.
 TD   00110  3 00000 0 00304         TXH     OUTNAM        ..
 TD   00111  3 00000 0 00305         TXH     OUTNAM+1      ..
 TD   00112  3 00000 0 00316         TXH     =0            ..
      00113  3 00000 0 00000  CLCALL TXH     --,,--        ..
1            BUFFER CONTROL ROUTINE FOR DISK INPUT AND OUTPUT.                                   PAGE 3

 TD   00114  3 00000 0 00321         TXH     =-0           IGNORE EOF RETURN.
 TD   00115  3 00000 0 00321         TXH     =-0           ..
 TD   00116  3 00000 0 00124         TXH     WEXH          ALLOW ERROR RETURN.
      00117  0074 00 4 00010  NOWR   TSX     CLOSE,4       CLOSE OUT THE FILE.
 TD   00120  3 00000 0 00304         TXH     OUTNAM        ..
 TD   00121  3 00000 0 00305         TXH     OUTNAM+1      ..
      00122  0774 00 4 00000   CL4   AXT     --,4          RESTORE LINKAGE.
      00123  0020 00 4 00001         TRA     1,4           ..
                              *
      00124  0074 00 4 00010  WEXH   TSX     CLOSE,4       TRACK QUOTA EXHAUSTED, CLOSE FILE.
 TD   00125  3 00000 0 00304         TXH     OUTNAM        ..
 TD   00126  3 00000 0 00305         TXH     OUTNAM+1      ..
      00127  0074 00 4 00001  OEXH   TSX     SETBCD,4      ENTRY FROM OPEN ERROR, COMMENT.
      00130  0601 00 0 00157         STO     MODSW         SAVE OLD CHARACTER MODE SETTING.
      00131  0074 00 4 00003         TSX     WRFLX,4       ..
      00132  0 00011 0 00144                 ERMESS,,9
      00133  0520 00 0 00157         ZET     MODSW         SHOULD 12-BIT INDICATOR BE RESET.
      00134  0074 00 4 00002         TSX     SETFUL,4      YES, RESET INDICATOR.
      00135 -0500 00 0 00317         CAL     =1            SWITCH TO TEMPORARY MODE.
      00136  0601 00 0 00156         STO     MODE          ..
      00137 -0500 00 0 00155         CAL     NOP           BLOCK FUTURE ERROR RETURN.
      00140  0602 00 0 00051         SLW     OPERR         ..
      00141  0602 00 0 00074         SLW     WRERR
      00142  0074 00 3 00043         TSX     OPN,3         NOW, OPEN IT AGAIN.
      00143  0020 00 0 00000  WRTN   TRA     --            ALL FIXED, RETURN TO MAIN STREAM.
                              *
      00144  635121234260     ERMESS BCI     9,TRACK QUOTA EXHAUSTED, TEMPORARY MODE WILL BE USED.
      00145  506446632160
      00146  256730216462
      00147  632524736063
      00150  254447465121
      00151  517060444624
      00152  256066314343
      00153  602225606462
      00154  252433606060
      00155  0761 00 0 00000   NOP   NOP                   INSTRUCTION TO BLOCK ERROR RETURN.
      00156  0 00000 0 00000  MODE           0             START IN PERMANENT MODE.
      00157  0 00000 0 00000  MODSW                        TEMP STORAGE FOR 6-BIT,12-BIT INDICATOR.
                              *
                              * * * * * * * * * * * * * * * * * * * * * * * * * * * * * * * * * *
                              *      SEEK.($NAME1$, $NAME2$, ERRET)
                              *      ERROR RETURN MEANS FILE NOT FOUND.
                              *
      00160 -0500 60 4 00001   SEEK  CAL*    1,4           GET FILE NAME.
      00161  0602 00 0 00306         SLW     INNAM         ..
      00162 -0500 60 4 00002         CAL*    2,4           ..
      00163  0602 00 0 00307         SLW     INNAM+1       ..
      00164  0634 00 4 00222         SXA     SKX4,4        SAVE LINKAGE.
      00165  0020 00 0 00166   SKSW  TRA     *+1           ENTER ONE-TIME SECTION TO GET BUFFERS.
                              *                                                  *********************
      00166 -0500 00 0 00314         CAL     RBFSZ         GET A BUFFER FROM SUPERVISOR.
      00167  0074 00 4 00000         TSX     GETBUF,4      ..
      00170  0621 00 0 00257         STA     ECALL         STORE BUFFER LOCATION.
      00171  0621 00 0 00217         STA     STCALL        ..
      00172 -0625 00 0 00165         STL     SKSW          RESET ONE-TIME SWITCH.
                              *                                                  *********************
1            BUFFER CONTROL ROUTINE FOR DISK INPUT AND OUTPUT.                                   PAGE 4

      00173 -0500 00 0 00217         CAL     STCALL        SET UP PICKUP INSTRUCTION FOR INDEXING.
      00174  0361 00 0 00314         ACL     RBFSZ         ..
      00175  0621 00 0 00242         STA     RDWORD        ..
      00176  0074 00 4 00011         TSX     FSTATE,4      MAKE SURE FILE IS THERE.
 TD   00177  3 00000 0 00306         TXH     INNAM         ..
 TD   00200  3 00000 0 00307         TXH     INNAM+1       ..
 TD   00201  3 00000 0 00321         TXH     =-0           DON'T WANT DATA.
 TD   00202  3 00000 0 00224         TXH     NOTFN         ERROR RETURN MEANS FILE NOT THERE.
      00203  0074 00 4 00005         TSX     OPEN,4        OPEN THE FILE FOR READING.
 TD   00204  3 00000 0 00322         TXH     =HR           ..
 TD   00205  3 00000 0 00306         TXH     INNAM         ..
 TD   00206  3 00000 0 00307         TXH     INNAM+1       ..
      00207  0774 00 6 00660         AXT     RBFLTH,6      SET UP BUFFER COUNTER.
      00210  0774 00 4 00222         AXT     SKX4,4        SET END OF FILE RETURN.
      00211  0634 00 4 00274         SXA     EOFRTN,4      ..
      00212  0600 00 0 00312         STZ     EOFR          CLEAR END OF FILE SWITCH.
      00213  0074 00 4 00007         TSX     RDWAIT,4      GET INITIAL BUFFER LOAD.
 TD   00214  3 00000 0 00306         TXH     INNAM         ..
 TD   00215  3 00000 0 00307         TXH     INNAM+1       ..
 TD   00216  3 00000 0 00316         TXH     =0            ..
      00217  3 00660 0 00000  STCALL TXH     --,,RBFLTH    ..
 TD   00220  3 00000 0 00265         TXH     EOF           END OF FILE RETURN.
 TD   00221  3 00000 0 00311         TXH     EOFCT         ..
      00222  0774 00 4 00000   SKX4  AXT     --,4          RESTORE LINKAGE.
      00223  0020 00 4 00004         TRA     4,4           RETURN TO CALLER.
                              *
      00224  0074 00 4 00001  NOTFN  TSX     SETBCD,4      FILE NOT FOUND, COMMENT.
      00225  0601 00 0 00157         STO     MODSW         SAVE OLD CHARACTER MODE SETTING.
      00226  0074 00 4 00004         TSX     WRFLXA,4      START UP COMMENT.
      00227  0 00001 0 00323                 =H FILE ,,1   ..
      00230  0074 00 4 00004         TSX     WRFLXA,4      INSERT FILE NAME.
      00231  0 00002 0 00306                 INNAM,,2      ..
      00232  0074 00 4 00003         TSX     WRFLX,4       END OF COMMENT.
      00233  0 00002 0 00240                 ECM,,2        ..
      00234  0520 00 0 00157         ZET     MODSW         SHOULD 12-BIT INDICATOR BE RESET.
      00235  0074 00 4 00002         TSX     SETFUL,4      YES, RESET MODE.
      00236  0534 00 4 00222         LXA     SKX4,4        GIVE ERROR RETURN.
      00237  0020 60 4 00003         TRA*    3,4           ..
                              *
      00240  604546636026     ECM    BCI     2, NOT FOUND.
      00241  466445243360
                              *
                              *      ENTRY TO OBTAIN WORD FROM FILE.
                              *              WORD = RDWORD.(EOF)
                              *
      00242  0500 00 6 00000  RDWORD CLA     --,6          GET WORD FROM INPUT BUFFER.
      00243  2 00001 6 00264         TIX     GOBACK,6,1    INDEX, AND CHECK FOR EMPTY BUFFER.
      00244  0520 00 0 00312         ZET     EOFR          BUFFER EMPTY, HAS END OF FILE OCCURRED.
      00245  0020 60 4 00001         TRA*    1,4           YES, GIVE EOF RETURN.
      00246  0601 00 0 00310         STO     RTEMP         NO, SAVE WORD AND GET SOME MORE DATA.
      00247  0634 00 4 00263         SXA     EMPX4,4       SAVE LINKAGE, ALSO.
      00250  0774 00 6 00660         AXT     RBFLTH,6      RESET BUFFER POINTER.
      00251  0774 00 4 00262         AXT     EMPGT,4       SET END OF FILE RETURN.
      00252  0634 00 4 00274         SXA     EOFRTN,4      ..
      00253  0074 00 4 00007         TSX     RDWAIT,4      GET ANOTHER BUFFER LOAD OF DATA.
 TD   00254  3 00000 0 00306         TXH     INNAM         ..
1            BUFFER CONTROL ROUTINE FOR DISK INPUT AND OUTPUT.                                   PAGE 5

 TD   00255  3 00000 0 00307         TXH     INNAM+1       ..
 TD   00256  3 00000 0 00316         TXH     =0            ..
      00257  3 00660 0 00000  ECALL  TXH     --,,RBFLTH    ..
 TD   00260  3 00000 0 00265         TXH     EOF           ..
 TD   00261  3 00000 0 00311         TXH     EOFCT         ..
      00262  0500 00 0 00310   EMPGT CLA     RTEMP         RESTORE WORD FOR THIS CALL.
      00263  0774 00 4 00000   EMPX4 AXT     --,4          RESTORE LINKAGE.
      00264  0020 00 4 00002  GOBACK TRA     2,4           RETURN TO CALLER.
                              *
      00265 -0625 00 0 00312  EOF    STL     EOFR          END OF FILE REACHED, SET SWITCH.
      00266 -0500 00 0 00311         CAL     EOFCT         GET COUNT OF WORDS LEFT.
      00267  0361 00 0 00317         ACL     =1            BUGGER WORD COUNT.
      00270  0734 00 6 00000         PAX     0,6           SET WORD COUNTER.
      00271  0361 00 0 00257         ACL     ECALL         ADJUST PICKUP INSTRUCTION.
      00272  0621 00 0 00242         STA     RDWORD        ..
      00273  0074 00 4 00275         TSX     ENDRD,4       TURN OFF FILE.
      00274  0020 00 0 00000  EOFRTN TRA     --            RETURN TO END OF RDFILE CALLING SEQUENCE.
                              *
                              *      ENTRY TO CLOSE INPUT FILE.
                              *      ENDRD.
                              *
      00275  0634 00 4 00302  ENDRD  SXA     ENDX4,4       SAVE LINKAGE.
      00276  0074 00 4 00010         TSX     CLOSE,4       CLOSE FILE.
 TD   00277  3 00000 0 00306         TXH     INNAM         ..
 TD   00300  3 00000 0 00307         TXH     INNAM+1       ..
 TD   00301  3 00000 0 00302         TXH     *+1           IGNORE ANY ERROR RETURN.
      00302  0774 00 4 00000  ENDX4  AXT     --,4          RESTORE LINKAGE.
      00303  0020 00 4 00001         TRA     1,4           ..
                              *
      00304  545454545454     OUTNAM BCI     2,************  NAME OF OUTPUT FILE.
      00305  545454545454
      00306  545454545454      INNAM BCI     2,************  NAME OF INPUT FILE.
      00307  545454545454
      00310  0 00000 0 00000   RTEMP                       STORAGE FOR WORD.
      00311  0 00000 0 00000  EOFCT                        STORAGE FOR END OF FILE COUNTER.
      00312  0 00000 0 00312   EOFR          *             SWITCH FOR END OF FILE MET.
                              *
                       00660  TRKLTH EQU     432           DISK TRACK LENGTH.
      00313  0 00000 0 00660   TRKSZ         TRKLTH        WORD CONTAINING TRACK LENGTH.
                       00660  RBFLTH EQU     TRKLTH        READ BUFFER LENGTH.
                       00330  WBFLTH EQU     TRKLTH/2      WRITE BUFFER LENGTH.
      00314  0 00000 0 00660  RBFSZ          RBFLTH        WORD CONTAINING READ BUFFER SIZE.
      00315  0 00000 0 00330  WBFSZ          WBFLTH        WORD CONTAINING WRITE BUFFER SIZE.
                              *
                                     END

        LITERALS
      00316  000000000000
      00317  000000000001
      00320  000000000002
      00321  400000000000
      00322  516060606060
      00323  602631432560
      00324  666060606060
1            BUFFER CONTROL ROUTINE FOR DISK INPUT AND OUTPUT.                                   PAGE 1
                        POST PROCESSOR ASSEMBLY DATA

        325 IS THE FIRST LOCATION NOT USED BY THIS PROGRAM

0REFERENCES TO DEFINED SYMBOLS
        122    CL4   100
        240    ECM   233
        265    EOF   220,  260
        107    FWR   105
        155    NOP   137
         43    OPN    37,  142
         22    OSW    34
        312   EOFR   212,  244,  265
        100   FILE     0
         62   FULL
        156   MODE    47,  136
        117   NOWR   103
        127   OEXH    51
          5   OPEN    43,  203
         40   OPOK    35
         41   OPX4    21
        160   SEEK     0
        165   SKSW   172
        222   SKX4   164,  210,  236
        124   WEXH    74,  116
         60   WRNM    30
        143   WRTN    36,   64,  106
         10  CLOSE   117,  124,  276
        257  ECALL   170,  271
        262  EMPGT   251
        263  EMPX4   247
        275  ENDRD     0,  273
        302  ENDX4   275
        311  EOFCT   221,  261,  266
         76  FULX4    62
        306  INNAM   161,  163,  177,  200,  205,  206,  214,  215,  231,  254,  255,  277,  300
        157  MODSW   130,  133,  225,  234
        224  NOTFN   202
         51  OPERR   140
        314  RBFSZ   166,  174
        310  RTEMP   246,  262
        313  TRKSZ    31
        315  WBFSZ    23,   27
         71  WCALL    25
         65  WRAGN    63
         74  WRERR   141
          3  WRFLX   131,  232
         15 ASSIGN     0
         55 BFCALL    33
         12 BUFFER    52
        113 CLCALL    26,  104
        274 EOFRTN   211,  252
        144 ERMESS   132
         11 FSTATE   176
          0 GETBUF    24,   32,  167
        264 GOBACK   243
1            BUFFER CONTROL ROUTINE FOR DISK INPUT AND OUTPUT.                                   PAGE 2
                        POST PROCESSOR ASSEMBLY DATA

        304 OUTNAM    16,   20,   45,   46,   53,   54,   66,   67,  110,  111,  120,  121,  125,  126
        660 RBFLTH   207,  217,  250,  257,  314
          7 RDWAIT   213,  253
        242 RDWORD     0,  175,  272
         77 RETURN    61
          1 SETBCD   127,  224
          2 SETFUL   134,  235
        217 STCALL   171,  173
        660 TRKLTH    55,  313,  314
        330 WBFLTH    40,   71,   75,  102,  314,  315
          4 WRFLXA   226,  230
          6 WRWAIT    65,  107
         57 WRWORD     0

0 NO ERROR IN ABOVE ASSEMBLY.
1            ROUTINE TO MAKE SURE FILE NAME IS USEABLE.                                          PAGE 1

                              *      USAGE  CLRNAM.(NAME1, NAME2, CANT, SW)
                              *        FILE NAME1 NAME2 WILL BE CHECKED FOR AND
                              *        DELETED IF POSSIBLE.  IF SW
                              *        IS TRUE, USER WILL BE ASKED BEFORE DELETING
                              *        THE OLD FILE.
                              *
                       00012         ENTRY   CLRNAM        CLEAR FILE NAME.
                              *
                                     EXTERN  SETFUL,SETBCD,WRFLX,WRFLXA,RDFLXA
                                     EXTERN  FSTATE,CHFILE,DELFIL
                              *

        TRANSFER VECTOR
      00000  622563266443     SETFUL
      00001  622563222324     SETBCD
      00002  665126436760     WRFLX
      00003  665126436721     WRFLXA
      00004  512426436721     RDFLXA
      00005  266263216325     FSTATE
      00006  233026314325     CHFILE
      00007  242543263143     DELFIL

            LINKAGE DIRECTOR
      00010  000000000000
      00011  234351452144

      00012 -0500 60 4 00001  CLRNAM CAL*    1,4           GET FILE NAME.
      00013  0602 00 0 00121         SLW     N1            ..
      00014 -0500 60 4 00002         CAL*    2,4           SECONDARY NAME.
      00015  0602 00 0 00122         SLW     N2            ..
      00016  0634 00 4 00147         SXA     SV4,4         SAVE LINKAGE.
      00017  0074 00 4 00005         TSX     FSTATE,4      CHECK STATE OF FILE.
 TD   00020  3 00000 0 00121         TXH     N1            NAME
 TD   00021  3 00000 0 00122         TXH     N2            NAME
      00022  3 00010 0 00156         TXH     DATA,,8       FILE STATE
 TD   00023  3 00000 0 00112         TXH     FSTERR        IN CASE OF ERROR
 TD   00024  3 00000 0 00155         TXH     ERNO          GATHER ERROR NUMBER.
      00025  0441 00 0 00157         LDI     MODE          CHECK MODE OF FILE.
      00026 -0054 00  400000         LFT     400000        IS MODE NEGATIVE.
      00027  0020 00 0 00100         TRA     LINKED        YES, FILE IS LINKED.
      00030  0600 00 0 00154         STZ     PROTEC        ASSUME NOT PROTECTED.
      00031  0056 00  000100         RNT     100           CHECK PROTECTED BIT.
      00032  0020 00 0 00035         TRA     CKASK         NOT PROTECTED, SHOULD WE ASK ANYWAY.
      00033 -0625 00 0 00154         STL     PROTEC        PROTECTED, SET SWITCH FOR LONG COMMENT.
      00034  0020 00 0 00040         TRA     ASK           GO ASK PERMISSION TO DELETE FILE.
      00035  0534 00 4 00147  CKASK  LXA     SV4,4         GET LINKAGE TO ASK SWITCH.
      00036 -0520 60 4 00004         NZT*    4,4           SHOULD WE ASK PERMISSION ANYWAY.
      00037  0020 00 0 00065         TRA     DELETE        NO, GO DELETE FILE.
      00040  0074 00 4 00000  ASK    TSX     SETFUL,4      SET CHARACTER MODE SWITCH.
      00041  0074 00 4 00003         TSX     WRFLXA,4      BEGIN THE COMMENT.
      00042  0 00003 0 00116                 MI,,3         ..
      00043  0074 00 4 00001         TSX     SETBCD,4      SWITCH TO BCD FOR FILE NAME.
      00044  0074 00 4 00003         TSX     WRFLXA,4      WRITE OUT FILE NAME.
      00045  0 00002 0 00121                 N1,,2
      00046  0074 00 4 00000         TSX     SETFUL,4      BACK TO FULL MODE.
      00047 -0520 00 0 00154         NZT     PROTEC        SHOULD WE CLAIM IT IS PROTECTED.
1            ROUTINE TO MAKE SURE FILE NAME IS USEABLE.                                          PAGE 2

      00050  0020 00 0 00053         TRA     SKPPCM        NO, SKIP THAT PART.
      00051  0074 00 4 00003         TSX     WRFLXA,4      YES, ANNOUNC PROTECTED PART.
      00052  0 00006 0 00123                 ISPTC,,6      ..
      00053  0074 00 4 00003  SKPPCM TSX     WRFLXA,4      NOW ASK FOR PERMISSION.
      00054  0 00012 0 00131                 DOYOU,,10     ..
      00055  0074 00 4 00001         TSX     SETBCD,4      SWITCH SO ERASE WORKS.
      00056  0074 00 4 00004         TSX     RDFLXA,4
      00057  0 00001 0 00150                 IN,,1         GET ONE WORD.
      00060  0074 00 4 00000         TSX     SETFUL,4      RESTORE MODE.
      00061 -0500 00 0 00150         CAL     IN            GET THAT WORD.
      00062  0771 00 0 00022         ARS     18            GET FIRST THREE CHARACTERS.
      00063  0322 00 0 00170         ERA     =H000YES      DID HE SAY YES.
      00064 -0100 00 0 00076         TNZ     ERTN          NO, GIVE ERROR RETURN.
      00065  0074 00 4 00006  DELETE TSX     CHFILE,4      GOODY, WE CAN DELETE IT.
 TD   00066  3 00000 0 00121         TXH     N1            MAKE SURE IT IS DELETEABLE.
 TD   00067  3 00000 0 00122         TXH     N2            ..
 TD   00070  3 00000 0 00166         TXH     =1            BY CHANGING ITS MODE TO TEMPORARY.
      00071  0074 00 4 00007         TSX     DELFIL,4      DELETE THE SILLY THING.
 TD   00072  3 00000 0 00121         TXH     N1            ..
 TD   00073  3 00000 0 00122         TXH     N2            ..
      00074  0534 00 4 00147  RTN    LXA     SV4,4         RESTORE THE LINKAGE.
      00075  0020 00 4 00005         TRA     5,4           RETURN TO CALLER.
                              *
      00076  0534 00 4 00147  ERTN   LXA     SV4,4         ERROR RETURN, FILE CANNOT BE DELETED.
      00077  0020 60 4 00003         TRA*    3,4           RETURN THROUGH ERROR RETURN.
                              *
      00100  0074 00 4 00000  LINKED TSX     SETFUL,4      FILE IS LINKED, COMMENT AND GIVE UP.
      00101  0074 00 4 00003         TSX     WRFLXA,4      START THE COMMENT.
      00102  0 00003 0 00116                 MI,,3         ..
      00103  0074 00 4 00001         TSX     SETBCD,4      SWITCH MODE FOR FILE NAME.
      00104  0074 00 4 00003         TSX     WRFLXA,4      TYPE FILE NAME.
      00105  0 00002 0 00121                 N1,,2         ..
      00106  0074 00 4 00000         TSX     SETFUL,4      SWITCH FOR REST OF COMMENT.
      00107  0074 00 4 00002         TSX     WRFLX,4       END THIS PART WITH A C.R.
      00110  0 00004 0 00143                 ISLNK,,4      ..
      00111  0020 00 0 00076         TRA     ERTN          NOW GIVE AN ERROR RETURN.
                              *
      00112  0500 00 0 00155  FSTERR CLA     ERNO          ERROR RETURN FROM FSTATE, FIND OUT WHY.
      00113  0402 00 0 00167         SUB     =3            RETURN 3 MEANS FILE NOT FOUND.
      00114 -0100 00 0 00100         TNZ     LINKED        WRONG ERROR RETURN, ASSUME LINKED.
      00115  0020 00 0 00074         TRA     RTN           FILE NOT FOUND, NAME IS OK.
                              *
                              *                            DATA, COMMENTS, ETC.
                              *
      00116  004601430124     MI     BCI     3,0O1L1D0 1F1I1L1E0
      00117  006001260131
      00120  014301250060
                              *
      00121  0 00000 0 00000  N1                           STORAGE FOR FILE NAME.
      00122  0 00000 0 00000  N2                           SECONDARY NAME.
                              *
      00123  006001310162     ISPTC  BCI     1,0 1I1S
      00124 +006001330057            OCT     006001330057  BLANK, RED SHIFT, NULL.
      00125  004700510046            BCI     3,0P0R0O0T0E0C0T0E0D
      00126  006300250023
      00127  006300250024
1            ROUTINE TO MAKE SURE FILE NAME IS USEABLE.                                          PAGE 3

      00130 +013200330060            OCT     013200330060  BLACK SHIFT, PERIOD, BLANK.
      00131  006000400040     DOYOU  BCI     9,0 0-0-0D1O0 1Y1O1U0 1W1I1S1H0 1T1O0 1D1E1L1E1T1E0 1I1T
      00132  002401460060
      00133  017001460164
      00134  006001660131
      00135  016201300060
      00136  016301460060
      00137  012401250143
      00140  012501630125
      00141  006001310163
      00142 +015600600060            OCT     015600600060  TERMINAL QUESTION MARK.
                              *
      00143  006001310162     ISLNK  BCI     4,0 1I1S0 1L1I1N1K1E1D0.
      00144  006001430131
      00145  014501420125
      00146  012400336060
                              *
      00147  0 00000 0 00000  SV4                          STORAGE FOR CALLING LINKAGE.
      00150                   IN     BSS     4             FOR INPUT WORD.
      00154  0 00000 0 00000  PROTEC                       SWITCH FOR PROTECTED FILE.
      00155  0 00000 0 00000  ERNO                         STORAGE FOR ERROR NUMBER.
      00156                   DATA   BSS     8             FOR STATE INFORMATION.
                       00161  DEVICE EQU     DATA+3
                       00157  MODE   EQU     DATA+1
                              *
                                     END

        LITERALS
      00166  000000000001
      00167  000000000003
      00170  000000702562
1            ROUTINE TO MAKE SURE FILE NAME IS USEABLE.                                          PAGE 1
                        POST PROCESSOR ASSEMBLY DATA

        171 IS THE FIRST LOCATION NOT USED BY THIS PROGRAM

0REFERENCES TO DEFINED SYMBOLS
        150     IN    57,   61
        116     MI    42,  102
        121     N1    13,   20,   45,   66,   72,  105
        122     N2    15,   21,   67,   73
         40    ASK    34
         74    RTN   115
        147    SV4    16,   35,   74,   76
        156   DATA    22,  166
        155   ERNO    24,  112
         76   ERTN    64,  111
        157   MODE    25,  166
         35  CKASK    32
        131  DOYOU    54
        143  ISLNK   110
        123  ISPTC    52
          2  WRFLX   107
          6 CHFILE    65
         12 CLRNAM     0
         65 DELETE    37
          7 DELFIL    71
        161 DEVICE   166
          5 FSTATE    17
        112 FSTERR    23
        100 LINKED    27,  114
        154 PROTEC    30,   33,   47
          4 RDFLXA    56
          1 SETBCD    43,   55,  103
          0 SETFUL    40,   46,   60,  100,  106
         53 SKPPCM    50
          3 WRFLXA    41,   44,   51,   53,  101,  104

0 NO ERROR IN ABOVE ASSEMBLY.
1            ROUTINE TO RENAME A FILE, FORCING PERMANENT MODE IS POSSIBLE.                       PAGE 1

                              *        J. H. SALTZER, MAY, 1965.
                              *
                       00004         ENTRY   RENAME        RENAME FILE.
                              *
                                     EXTERN CHFILE,WRFLX
                              *

        TRANSFER VECTOR
      00000  233026314325     CHFILE
      00001  665126436760     WRFLX

            LINKAGE DIRECTOR
      00002  000000000000
      00003  512545214425

      00004  0500 60 4 00001  RENAME CLA*    1,4           GET FILE NAMES.
      00005  0601 00 0 00071         STO     OLD1          ..
      00006  0500 60 4 00002         CLA*    2,4           ..
      00007  0601 00 0 00072         STO     OLD2          ..
      00010  0601 00 0 00074         STO     NEW2          ASSUME NO CHANGE IN SECONDARY NAMES.
      00011  0500 60 4 00003         CLA*    3,4           ..
      00012  0601 00 0 00073         STO     NEW1          ..
      00013  0560 00 4 00004         LDQ     4,4           CHECK FOR TXH
      00014  0500 00 0 00076         CLA     =O300000000000 ..
      00015  0040 00 0 00020         TLQ     SKPN2         NO TXH, SECONDARY NAME UNCHANGED.
      00016  0500 60 4 00004         CLA*    4,4           TXH, CHANGE SECONDARY NAME.
      00017  0601 00 0 00074         STO     NEW2          ..
      00020  0634 00 4 00036  SKPN2  SXA     RETURN,4      SAVE LINKAGE.
      00021  0074 00 4 00000         TSX     CHFILE,4      CHANGE NAME WITHOUT CHANGING MODE.
 TD   00022  3 00000 0 00071         TXH     OLD1          ..
 TD   00023  3 00000 0 00072         TXH     OLD2          ..
 TD   00024  3 00000 0 00077         TXH     =-0           MODE UNCHANGED.
 TD   00025  3 00000 0 00073         TXH     NEW1          ..
 TD   00026  3 00000 0 00074         TXH     NEW2          ..
      00027  0074 00 4 00000         TSX     CHFILE,4      CHANGE MODE WITHOUT CHANGING NAME.
 TD   00030  3 00000 0 00073         TXH     NEW1          ..
 TD   00031  3 00000 0 00074         TXH     NEW2          ..
 TD   00032  3 00000 0 00075         TXH     =0            PERMANENT MODE.
 TD   00033  3 00000 0 00077         TXH     =-0           NAME UNCHANGED.
 TD   00034  3 00000 0 00077         TXH     =-0           ..
 TD   00035  3 00000 0 00040         TXH     CHERR         IN CASE MODE UNCHANGEABLE.
      00036  0774 00 4 00000  RETURN AXT     --,4          RESTORE LINKAGE.
      00037  0020 00 4 00001         TRA     1,4           RETURN TO CALLER.
                              *
      00040  0074 00 4 00001  CHERR  TSX     WRFLX,4       ASSUME TRACK QUOTA EXHAUSTED, AND COMMENT.
      00041  0 00010 0 00045                 TRKQUO,,8     ..
      00042  0074 00 4 00001         TSX     WRFLX,4       MENTION THAT NEW FILE IS TEMP MODE.
      00043  0 00013 0 00055                 TMPMOD,,11    ....
      00044  0020 00 0 00036         TRA     RETURN        EXIT.
                              *
                              *              COMMENTS AND STORAGE.
                              *
      00045  006301510121     TRKQUO BCI     8,0T1R1A1C1K0 1Q1U1O1T1A0 0E0X0H0A0U0S0T0E0D0.
      00046  012301420060
      00047  015001640146
      00050  016301210060
1            ROUTINE TO RENAME A FILE, FORCING PERMANENT MODE IS POSSIBLE.                       PAGE 2

      00051  002500670030
      00052  002100640062
      00053  006300250024
      00054  003360606060
                              *
      00055  007001460164     TMPMOD BCI     5,0Y1O1U1R0 1N1E1W0 1F1I1L1E0 1I
      00056  015100600145
      00057  012501660060
      00060  012601310143
      00061  012500600131
      00062 +016200600133            OCT     016200600133  S, BLANK, RED SHIFT.
      00063  006300250044            BCI     3,0T0E0M0P0O0R0A0R0Y
      00064  004700460051
      00065  002100510070
      00066 +013200600144            OCT     013200600144  BLACK SHIFT, BLANK, SMALL M.
      00067  004601240125            BCI     2,0O1D1E0.
      00070  003360606060
                              *
      00071  0 00000 0 00000  OLD1
      00072  0 00000 0 00000  OLD2
      00073  0 00000 0 00000  NEW1
      00074  0 00000 0 00000  NEW2
                              *
                                     END

        LITERALS
      00075  000000000000
      00076  300000000000
      00077  400000000000
1            ROUTINE TO RENAME A FILE, FORCING PERMANENT MODE IS POSSIBLE.                       PAGE 1
                        POST PROCESSOR ASSEMBLY DATA

        100 IS THE FIRST LOCATION NOT USED BY THIS PROGRAM

0REFERENCES TO DEFINED SYMBOLS
         73   NEW1    12,   25,   30
         74   NEW2    10,   17,   26,   31
         71   OLD1     5,   22
         72   OLD2     7,   23
         40  CHERR    35
         20  SKPN2    15
          1  WRFLX    40,   42
          0 CHFILE    21,   27
          4 RENAME     0
         36 RETURN    20,   44
         55 TMPMOD    43
         45 TRKQUO    41

0 NO ERROR IN ABOVE ASSEMBLY.
1     MAD PROGRAM LISTING ... ... ...                 FILE    6TYP   MAD            09/18/68    0948.2
-
                 ..  TYPEWRITER INPUT CHARACTER CONTROL ROUTINE.                                       LM00001
                 ..  USAGE. . .   COUNT = TYPEIN.(BUFFER, BUFSIZ, ERASE, KILL)                         LM00002
                           J. H. SALTZER, JANUARY, 1965.                                               LM00003
                                                                                                       LM00004
                  EXTERNAL FUNCTION(LINE, BUFSIZ)                                                 *001 LM00005
                                                                                                       LM00006
                  NORMAL MODE IS INTEGER                                                          *002 LM00007
                  VECTOR VALUES E1 = 0137K                                                        *003 LM00008
                  VECTOR VALUES K1 = 0156K                                                        *004 LM00009
                  VECTOR VALUES NBITS = 12                                                        *005 LM00010
                  VECTOR VALUES NULL = 0057K                                                      *006 LM00011
                  VECTOR VALUES ERASE = 0504K                                                     *007 LM00012
                  VECTOR VALUES KILL = 0506K                                                      *008 LM00013
                  VECTOR VALUES RETURN = 0055K                                                    *009 LM00014
                  VECTOR VALUES WRDSIZ = 36                                                       *010 LM00015
                  VECTOR VALUES CHMASK = 7777K                                                    *011 LM00016
                                                                                                       LM00017
                  ENTRY TO SETERS.                                                                *012 LM00018
                    ERASE = LINE                                                                  *013 LM00019
                    FUNCTION RETURN                                                               *014 LM00020
                                                                                                       LM00021
                  ENTRY TO SETKIL.                                                                *015 LM00022
                    KILL = LINE                                                                   *016 LM00023
                    FUNCTION RETURN                                                               *017 LM00024
                                                                                                       LM00025
                  ENTRY TO CANON.                                                                 *018 LM00026
                    FUNCTION RETURN                                                               *019 LM00027
                                                                                                       LM00028
                  ENTRY TO TYPEIN.                                                                *020 LM00029
                    SIZE = 0                                                                      *021 LM00030
                    TYLINE.                                                                       *022 LM00031
       LOOP         WORD = TYWORD.(0)                                                             *023 LM00032
                    THROUGH DISECT, FOR I = WRDSIZ-NBITS,-NBITS, I .L. 0                          *024 LM00033
                      CHAR = (WORD.RS.I) .A. CHMASK                                               *025 LM00034
                      WHENEVER CHAR .E. ERASE .OR. CHAR .E. E1                                    *026 LM00035
                        WHENEVER SIZE .G. 0, SIZE = SIZE - 1                                      *027 LM00036
                      OR WHENEVER CHAR .E. KILL .OR. CHAR .E. K1                                  *028 LM00037
                        SIZE = 0                                                                  *029 LM00038
                      OR WHENEVER CHAR .E. RETURN .OR. CHAR.RS.6 .E. RETURN                       *030 LM00039
                        TRANSFER TO UND                                                           *031 LM00040
                      OR WHENEVER CHAR .A. 0400K .E. 0                                            *032 LM00041
                        SIZE = SIZE + 1                                                           *033 LM00042
                        LINE(SIZE) = CHAR.A.77K                                                   *034 LM00043
                      END OF CONDITIONAL                                                          *035 LM00044
       DISECT         WHENEVER SIZE .GE. BUFSIZ, TRANSFER TO UND                                  *036 LM00045
                    TRANSFER TO LOOP                                                              *037 LM00046
      UND           SIZE = SIZE + 1                                                               *038 LM00047
                    LINE(SIZE) = RETURN                                                           *039 LM00048
                    FUNCTION RETURN SIZE                                                          *040 LM00049
                                                                                                       LM00050
                 ..     TYPEWRITER OUTPUT CHARACTER CONTROL ROUTINE.                                   LM00051
                 ..     USAGE. . .    TYPOUT.(LINE, LENGTH)                                            LM00052
                                                                                                       LM00053
                  ENTRY TO TYPOUT.                                                                *041 LM00054
                    K = 0                                                                         *042 LM00055
                    SETFUL.                                                                       *043 LM00056
                    THROUGH PRLOOP, FOR J = 1, 1, J .G. BUFSIZ                                    *044 LM00057
                      TWORD = (TWORD .LS. NBITS) .V. LINE(J)                                      *045 LM00058
                      K = K + 1                                                                   *046 LM00059
                      WHENEVER K .GE. WRDSIZ/NBITS                                                *047 LM00060
                        K = 0                                                                     *048 LM00061
                        PRWORD.(TWORD)                                                            *049 LM00062
       PRLOOP         END OF CONDITIONAL                                                          *050 LM00063
                    THROUGH NULPK, FOR K = K, 1, K.GE. WRDSIZ/NBITS                               *051 LM00064
       NULPK          TWORD = (TWORD.LS.NBITS) .V. NULL                                           *052 LM00065
                    PRWORD.(TWORD)                                                                *053 LM00066
                    PRBUFF.                                                                       *054 LM00067
                    FUNCTION RETURN                                                               *055 LM00068
                                                                                                       LM00069
                  ENTRY TO HOL.                                                                   *056 LM00070
                    FUNCTION RETURN LINE .A. 77K                                                  *057 LM00071
                                                                                                       LM00072
                  END OF FUNCTION                                                                 *058 LM00073
1MAD PROGRAM,TYPE NOV 1963      (ALL NUMBERS ARE OCTAL)
0TOTAL LOCATIONS   00351 TRANSFER VECTOR LENGTH  00006 PROGRAM BEGINS    00037
0 PROGRAM IS AN EXTERNAL FUNCTION.   THE FOLLOWING ARE ENTRIES
      HOL    00314   0        TYPOUT 00212   0        TYPEIN 00060   0        CANON  00054   0        SETKIL 00046   0
      SETERS 00040   0
0VARIABLE STORAGE (A=ARRAY,C=COMMON,E=ERASABLE,DIGIT=MODE)
      CHAR   00011   1        I      00015   1        K      00021   1        NULPK  00006   4        TWORD  00026   1
      CHMASK 00012 A 1        J      00016   1        LOOP   00007   4        PRLOOP 00006   4        UND    00010   4
      DISECT 00006   4        K1     00017 A 1        NBITS  00022 A 1        RETURN 00024 A 1        WORD   00027   1
      E1     00013 A 1        KILL   00020 A 1        NULL   00023 A 1        SIZE   00025   1        WRDSIZ 00030 A 1
      ERASE  00014 A 1
0FUNCTION DICTIONARY
      EXIT   00000   1        PRBUFF 00001   1        PRWORD 00002   1        SETFUL 00003   1        TYLINE 00004   1
      TYWORD 00005   1
0ABSOLUTE CONSTANTS
 00034 +000000000077     00035 +000000000400     00033 +000000000006     00031 +000000000000     00032 +000000000001
 00036 +233000000000
0STATEMENT DICTIONARY
 00007 TXL -300070000065       00010 TXL -300204000201
0PROGRAM
                 EXTERNAL FUNCTION(LINE, BUFSIZ)                                    001  LM00005
                 NORMAL MODE IS INTEGER                                             002  LM00007
                 VECTOR VALUES E1 = 0137K                                           003  LM00008
 00013     +0 00000 0 00137
                 VECTOR VALUES K1 = 0156K                                           004  LM00009
 00017     +0 00000 0 00156
                 VECTOR VALUES NBITS = 12                                           005  LM00010
 00022     +0 00000 0 00014
                 VECTOR VALUES NULL = 0057K                                         006  LM00011
 00023     +0 00000 0 00057
                 VECTOR VALUES ERASE = 0504K                                        007  LM00012
 00014     +0 00000 0 00504
                 VECTOR VALUES KILL = 0506K                                         008  LM00013
 00020     +0 00000 0 00506
                 VECTOR VALUES RETURN = 0055K                                       009  LM00014
 00024     +0 00000 0 00055
                 VECTOR VALUES WRDSIZ = 36                                          010  LM00015
 00030     +0 00000 0 00044
                 VECTOR VALUES CHMASK = 7777K                                       011  LM00016
 00012     +0 00000 0 07777
                 ENTRY TO SETERS.                                                   012  LM00018
 00037 TRA +0 02000 0 00042    00040 SXA +0 63400 2 00324    00041 TSX +0 07400 2 00324
                   ERASE = LINE                                                     013  LM00019
 00042 CLA +0 50000 0 00024    00043 STO +0 60100 0 00014
                   FUNCTION RETURN                                                  014  LM00020
 00044 TRA +0 02000 0 00342
                 ENTRY TO SETKIL.                                                   015  LM00022
 00045 TRA +0 02000 0 00050    00046 SXA +0 63400 2 00324    00047 TSX +0 07400 2 00324
                   KILL = LINE                                                      016  LM00023
 00050 CLA +0 50000 0 00024    00051 STO +0 60100 0 00020
                   FUNCTION RETURN                                                  017  LM00024
 00052 TRA +0 02000 0 00342
                 ENTRY TO CANON.                                                    018  LM00026
 00053 TRA +0 02000 0 00056    00054 SXA +0 63400 2 00324    00055 TSX +0 07400 2 00324
                   FUNCTION RETURN                                                  019  LM00027
 00056 TRA +0 02000 0 00342
                 ENTRY TO TYPEIN.                                                   020  LM00029
 00057 TRA +0 02000 0 00062    00060 SXA +0 63400 2 00324    00061 TSX +0 07400 2 00324
                   SIZE = 0                                                         021  LM00030
 00062 CLA +0 50000 0 00031    00063 STO +0 60100 0 00025
                   TYLINE.                                                          022  LM00031
 00064 TSX +0 07400 4 00004
       LOOP        WORD = TYWORD.(0)                                                023  LM00032
 00065 TSX +0 07400 4 00005    00066 TXH +3 00000 0 00031    00067 STO +0 60100 0 00027
                   THROUGH DISECT, FOR I = WRDSIZ-NBITS,-NBITS, I .L. 0             024  LM00033
 00070 CLA +0 50000 0 00030    00071 SUB +0 40200 0 00022    00072 STO +0 60100 0 00015    00073 TRA +0 02000 0 00077
 00074 CLS +0 50200 0 00022    00075 ADD +0 40000 0 00015    00076 STO +0 60100 0 00015    00077 CLA +0 50000 0 00015
 00100 SUB +0 40200 0 00031    00101 TZE +0 10000 0 00103    00102 TMI -0 12000 0 00200
                     CHAR = (WORD.RS.I) .A. CHMASK                                  025  LM00034
 00103 CAL -0 50000 0 00015    00104 STA +0 62100 0 00106    00105 CAL -0 50000 0 00027    00106 LGR -0 76500 0 00000
 00107 ANA -0 32000 0 00012    00110 SLW +0 60200 0 00011
                     WHENEVER CHAR .E. ERASE .OR. CHAR .E. E1                       026  LM00035
 00111 CLA +0 50000 0 00011    00112 SUB +0 40200 0 00013    00113 TZE +0 10000 0 00117    00114 CLA +0 50000 0 00011
 00115 SUB +0 40200 0 00014    00116 TNZ -0 10000 0 00127
                       WHENEVER SIZE .G. 0, SIZE = SIZE - 1                         027  LM00036
 00117 CLA +0 50000 0 00025    00120 SUB +0 40200 0 00031    00121 TZE +0 10000 0 00126    00122 TMI -0 12000 0 00126
 00123 CLA +0 50000 0 00025    00124 SUB +0 40200 0 00032    00125 STO +0 60100 0 00025
                     OR WHENEVER CHAR .E. KILL .OR. CHAR .E. K1                     028  LM00037
 00126 TRA +0 02000 0 00172    00127 CLA +0 50000 0 00011    00130 SUB +0 40200 0 00017    00131 TZE +0 10000 0 00135
 00132 CLA +0 50000 0 00011    00133 SUB +0 40200 0 00020    00134 TNZ -0 10000 0 00140
                       SIZE = 0                                                     029  LM00038
 00135 CLA +0 50000 0 00031    00136 STO +0 60100 0 00025
                     O'R CHAR .E. RETURN .OR. CHAR.RS.6 .E. RETURN                  030  LM00039
 00137 TRA +0 02000 0 00172    00140 CAL -0 50000 0 00033    00141 STA +0 62100 0 00143    00142 CAL -0 50000 0 00011
 00143 LGR -0 76500 0 00000    00144 SLW +0 60200 0 00346    00145 CLA +0 50000 0 00346    00146 SUB +0 40200 0 00024
 00147 TZE +0 10000 0 00153    00150 CLA +0 50000 0 00011    00151 SUB +0 40200 0 00024    00152 TNZ -0 10000 0 00155
                       TRANSFER TO UND                                              031  LM00040
 00153 TRA +0 02000 0 00010
                     O'R CHAR .A. 0400K .E. 0                                       032  LM00041
 00154 TRA +0 02000 0 00172    00155 CAL -0 50000 0 00011    00156 ANA -0 32000 0 00035    00157 SLW +0 60200 0 00346
 00160 CLA +0 50000 0 00346    00161 SUB +0 40200 0 00031    00162 TNZ -0 10000 0 00172
                       SIZE = SIZE + 1                                              033  LM00042
 00163 CLA +0 50000 0 00025    00164 ADD +0 40000 0 00032    00165 STO +0 60100 0 00025
                       LINE(SIZE) = CHAR.A.77K                                      034  LM00043
 00166 CAL -0 50000 0 00011    00167 ANA -0 32000 0 00034    00170 LXA +0 53400 1 00025    00171 SLW +0 60200 1 00024
                     END OF CONDITIONAL                                             035  LM00044
       DISECT        WHENEVER SIZE .GE. BUFSIZ, TRANSFER TO UND                     036  LM00045
 00172 CLA +0 50000 0 00025    00173 SUB +0 40200 0 00024    00174 TZE +0 10000 0 00176    00175 TMI -0 12000 0 00177
 00176 TRA +0 02000 0 00010    00177 TRA +0 02000 0 00074
                   TRANSFER TO LOOP                                                 037  LM00046
 00200 TRA +0 02000 0 00007
      UND          SIZE = SIZE + 1                                                  038  LM00047
 00201 CLA +0 50000 0 00025    00202 ADD +0 40000 0 00032    00203 STO +0 60100 0 00025
                   LINE(SIZE) = RETURN                                              039  LM00048
 00204 LXA +0 53400 1 00025    00205 CLA +0 50000 0 00024    00206 STO +0 60100 1 00024
                   FUNCTION RETURN SIZE                                             040  LM00049
 00207 CLA +0 50000 0 00025    00210 TRA +0 02000 0 00342
                 ENTRY TO TYPOUT.                                                   041  LM00054
 00211 TRA +0 02000 0 00214    00212 SXA +0 63400 2 00324    00213 TSX +0 07400 2 00324
                   K = 0                                                            042  LM00055
 00214 CLA +0 50000 0 00031    00215 STO +0 60100 0 00021
                   SETFUL.                                                          043  LM00056
 00216 TSX +0 07400 4 00003
                   THROUGH PRLOOP, FOR J = 1, 1, J .G. BUFSIZ                       044  LM00057
 00217 CLA +0 50000 0 00032    00220 STO +0 60100 0 00016    00221 TRA +0 02000 0 00225    00222 CLA +0 50000 0 00016
 00223 ADD +0 40000 0 00032    00224 STO +0 60100 0 00016    00225 CLA +0 50000 0 00016    00226 SUB +0 40200 0 00024
 00227 TZE +0 10000 0 00231    00230 TPL +0 12000 0 00261
                     TWORD = (TWORD .LS. NBITS) .V. LINE(J)                         045  LM00058
 00231 CAL -0 50000 0 00022    00232 STA +0 62100 0 00234    00233 CAL -0 50000 0 00026    00234 ALS +0 76700 0 00000
 00235 LXA +0 53400 2 00016    00236 ORA -0 50100 2 00024    00237 SLW +0 60200 0 00026
                     K = K + 1                                                      046  LM00059
 00240 CLA +0 50000 0 00021    00241 ADD +0 40000 0 00032    00242 STO +0 60100 0 00021
                     WHENEVER K .GE. WRDSIZ/NBITS                                   047  LM00060
 00243 LDQ +0 56000 0 00030    00244 PXD -0 75400 0 00000    00245 LLS +0 76300 0 00000    00246 DVP +0 22100 0 00022
 00247 XCA +0 13100 0 00000    00250 CHS +0 76000 0 00002    00251 ADD +0 40000 0 00021    00252 TZE +0 10000 0 00254
 00253 TMI -0 12000 0 00260
                       K = 0                                                        048  LM00061
 00254 CLA +0 50000 0 00031    00255 STO +0 60100 0 00021
                       PRWORD.(TWORD)                                               049  LM00062
 00256 TSX +0 07400 4 00002    00257 TXH +3 00000 0 00026
       PRLOOP        END OF CONDITIONAL                                             050  LM00063
 00260 TRA +0 02000 0 00222
                   THROUGH NULPK, FOR K = K, 1, K.GE. WRDSIZ/NBITS                  051  LM00064
 00261 CLA +0 50000 0 00021    00262 STO +0 60100 0 00021    00263 TRA +0 02000 0 00267    00264 CLA +0 50000 0 00021
 00265 ADD +0 40000 0 00032    00266 STO +0 60100 0 00021    00267 LDQ +0 56000 0 00030    00270 PXD -0 75400 0 00000
 00271 LLS +0 76300 0 00000    00272 DVP +0 22100 0 00022    00273 XCA +0 13100 0 00000    00274 CHS +0 76000 0 00002
 00275 ADD +0 40000 0 00021    00276 TZE +0 10000 0 00307    00277 TPL +0 12000 0 00307
       NULPK         TWORD = (TWORD.LS.NBITS) .V. NULL                              052  LM00065
 00300 CAL -0 50000 0 00022    00301 STA +0 62100 0 00303    00302 CAL -0 50000 0 00026    00303 ALS +0 76700 0 00000
 00304 ORA -0 50100 0 00023    00305 SLW +0 60200 0 00026    00306 TRA +0 02000 0 00264
                   PRWORD.(TWORD)                                                   053  LM00066
 00307 TSX +0 07400 4 00002    00310 TXH +3 00000 0 00026
                   PRBUFF.                                                          054  LM00067
 00311 TSX +0 07400 4 00001
                   FUNCTION RETURN                                                  055  LM00068
 00312 TRA +0 02000 0 00342
                 ENTRY TO HOL.                                                      056  LM00070
 00313 TRA +0 02000 0 00316    00314 SXA +0 63400 2 00324    00315 TSX +0 07400 2 00324
                   FUNCTION RETURN LINE .A. 77K                                     057  LM00071
 00316 CAL -0 50000 0 00024    00317 ANA -0 32000 0 00034    00320 SLW +0 60200 0 00346    00321 CLA +0 50000 0 00346
 00322 TRA +0 02000 0 00342
                 END OF FUNCTION                                                    058  LM00073
 00323 TSX +0 07400 4 00000    00324 TXH +3 00000 0 00000    00325 SXD -0 63400 1 00324    00326 SXA +0 63400 4 00342
 00327 CLA +0 50000 4 00001    00330 STA +0 62100 0 00042    00331 STA +0 62100 0 00050    00332 STA +0 62100 0 00171
 00333 STA +0 62100 0 00206    00334 STA +0 62100 0 00236    00335 STA +0 62100 0 00316    00336 CLA +0 50000 4 00002
 00337 STA +0 62100 0 00173    00340 STA +0 62100 0 00226    00341 TRA +0 02000 2 00001    00342 AXT +0 77400 4 00000
 00343 LXA +0 53400 2 00324    00344 LXD -0 53400 1 00324    00345 TRA +0 02000 4 00001
1            BUFFER CONTROL ROUTINE FOR TYPEWRITER OUTPUT.                                       PAGE 1

                              *
                              *      J. H. SALTZER, JANUARY, 1965.
                              *
                       00004         ENTRY   PRWORD        ADD A WORD TO PRINT BUFFER.
                       00021         ENTRY   PRBUFF        PRINT OUT PARTIAL BUFFER.
                       00030         ENTRY   TYWORD        GET NEXT TYPED WORD.
                       00047         ENTRY   TYLINE        RESET TO START READING NEXT LINE.
                              *
                                     EXTERN RDFLXA,WRFLXA
                              *

        TRANSFER VECTOR
      00000  512426436721     RDFLXA
      00001  665126436721     WRFLXA

            LINKAGE DIRECTOR
      00002  000000000000
      00003  475166465124

                       00034  BUFLEN EQU     28            TYPEWRITER BUFFER SIZE.
                              *
                              *      ADD WORD TO PRINT BUFFER.
                              *      PRWORD.(WORD)
                              *
      00004  0634 00 4 00017  PRWORD SXA     PRX4,4        SAVE LINKAGE.
      00005 -0500 60 4 00001         CAL*    1,4           GET WORD BEING ADDED.
      00006 -0734 00 4 00000         PDX     0,4           CHECK FOR DISK CONTROL WORD.
      00007  3 77776 4 00017         TXH     PRX4,4,-2     DON'T STORE CONTROL WORD.
      00010  0774 00 4 00034   PWCNT AXT     BUFLEN,4      SET WORD COUNTER (INITIALLY BUFLEN.)
      00011  0602 00 4 00105         SLW     BUFF+BUFLEN,4 STORE WORD IN BUFFER.
      00012  2 00001 4 00016         TIX     PSAVE,4,1     COUNT, CHECK FOR OVERFLOW.
      00013  0074 00 4 00001         TSX     WRFLXA,4      BUFFER FULL, PRINT W/O C.R.
      00014  0 00034 0 00051                 BUFF,,BUFLEN  ..
      00015  0774 00 4 00034  PFRESH AXT     BUFLEN,4      RESET WORD COUNTER.
      00016  0634 00 4 00010   PSAVE SXA     PWCNT,4       SAVE WORD COUNTER.
      00017  0774 00 4 00000   PRX4  AXT     --,4          RESTORE LINKAGE.
      00020  0020 00 4 00001         TRA     1,4           RETURN.
                              *
                              *      PRINT OUT REMAINING BUFFER, RESET COUNTER.
                              *
      00021  0634 00 4 00017  PRBUFF SXA     PRX4,4        SAVE LINKAGE.
      00022  0535 00 4 00010         LAC     PWCNT,4       GET WORD COUNT.
      00023  1 00034 4 00024         TXI     *+1,4,BUFLEN  FORM COMPLEMENT MOD BUFLEN.
      00024 -0634 00 4 00026         SXD     PRCL,4        SAVE COUNT IN CALLER.
      00025  0074 00 4 00001         TSX     WRFLXA,4      PRINT REMAINDER.
      00026  0 00000 0 00051   PRCL          BUFF,,--      ..
      00027  0020 00 0 00015         TRA     PFRESH        GO REFRESH COUNTER, AND RETURN.
                              *
                              *      GET A WORD FROM INPUT BUFFER.
                              *         WORD = TYWORD.(0)
                              *
      00030  0634 00 4 00045  TYWORD SXA     TYX4,4        SAVE LINKAGE.
      00031  0774 00 5 00000  TYCNT  AXT     --,5          GET WORD COUNTER.
      00032  0774 00 4 00000  TYPOS  AXT     --,4          GET BUFFER POINTER.
      00033  2 00006 5 00041         TIX     TYGET,5,6     CHECK FOR WORDS LEFT.
      00034  0074 00 4 00000         TSX     RDFLXA,4      NO, GET SOME.
1            BUFFER CONTROL ROUTINE FOR TYPEWRITER OUTPUT.                                       PAGE 2

      00035  0 00034 0 00051  TYCALL         BUFF,,BUFLEN  ..
      00036  0734 00 5 00000         PAX     0,5           INSERT 6-BIT CHARACTER COUNT INTO COUNTER.
      00037  2 40000 5 00040         TIX     *+1,5,16384   REMOVE BIT 21 IF PRESENT.
      00040  0774 00 4 00000         AXT     0,4           RESET INPUT BUFFER POINTER.
      00041  0500 00 4 00051  TYGET  CLA     BUFF,4        GET A WORD.
      00042  1 77777 4 00043         TXI     *+1,4,-1      MOVE POINTER TO NEXT WORD.
      00043  0634 00 4 00032         SXA     TYPOS,4       SAVE POINTER.
      00044  0634 00 5 00031         SXA     TYCNT,5       SAVE CHARACTER COUNTER.
      00045  0774 00 4 00000  TYX4   AXT     --,4          RESTORE LINKAGE.
      00046  0020 00 4 00001         TRA     1,4           RETURN.
                              *
      00047  0634 00 0 00031  TYLINE ZSA     TYCNT         RESET CHARACTER COUNT TO MAKE LINE EMPTY.
      00050  0020 00 4 00001         TRA     1,4           RETURN
                              *
      00051                   BUFF   BSS     BUFLEN            OUTPUT BUFFER.
                              *
                                     END
1            BUFFER CONTROL ROUTINE FOR TYPEWRITER OUTPUT.                                       PAGE 1
                        POST PROCESSOR ASSEMBLY DATA

        105 IS THE FIRST LOCATION NOT USED BY THIS PROGRAM

0REFERENCES TO DEFINED SYMBOLS
         51   BUFF    11,   14,   26,   35,   41
         26   PRCL    24
         17   PRX4     4,    7,   21
         45   TYX4    30
         16  PSAVE    12
         10  PWCNT    16,   22
         31  TYCNT    44,   47
         41  TYGET    33
         32  TYPOS    43
         34 BUFLEN     4,   10,   11,   14,   15,   23,   35,   51
         15 PFRESH    27
         21 PRBUFF     0
          4 PRWORD     0
          0 RDFLXA    34
         35 TYCALL
         47 TYLINE     0
         30 TYWORD     0
          1 WRFLXA    13,   25

0 NO ERROR IN ABOVE ASSEMBLY.
1            SUBROUTINE TO CONVERT BCD NUMBER TO BINARY.                                         PAGE 1

                              *
                              *        J. H. SALTZER, MAY, 1966.
                       00002         ENTRY   BIN           CONVERTER.

            LINKAGE DIRECTOR
      00000  000000000000
      00001  223145606060

      00002  0634 00 1 00024   BIN   SXA     IRR1,1
      00003  0600 00 0 00027         STZ     INT           CLEAR RESULT.
      00004  0774 00 1 00006         AXT     6,1
      00005  0560 60 4 00001         LDQ*    1,4           GET ARGUMENT.
      00006 -0754 00 0 00000  LOP    ZAC
      00007 -0763 00 0 00006         LGL     6             GET NEXT CHARACTER.
      00010 -0340 00 0 00032         LAS     =10           SKIP OVER NON-DIGITS.
      00011  0020 00 0 00023         TRA     TIX
      00012  0020 00 0 00023         TRA     TIX
      00013  0601 00 0 00030         STO     DIG           NUMBER, SAVE DIGIT.
      00014 -0600 00 0 00031         STQ     TEM           SAVE MQ FOR MULTIPLIACATION.
      00015  0560 00 0 00027         LDQ     INT           GET OLD NUMBER.
      00016  0200 00 0 00032         MPY     =10           SHIFT.
      00017  0131 00 0 00000         XCA
      00020  0400 00 0 00030         ADD     DIG           ADD THIS DIGIT TO RESULT.
      00021  0601 00 0 00027         STO     INT           SAVE, FOR NEXT PASS.
      00022  0560 00 0 00031         LDQ     TEM           RESTORE MQ.
      00023  2 00001 1 00006  TIX    TIX     LOP,1,1
      00024  0774 00 1 00000   IRR1  AXT     --,1
      00025  0500 00 0 00027         CLA     INT           RESULT IN AC.
      00026  0020 00 4 00002         TRA     2,4
                              *
      00027  0 00000 0 00000   INT
      00030  0 00000 0 00000   DIG
      00031  0 00000 0 00000   TEM
                              *
                                     END

        LITERALS
      00032  000000000012
1            SUBROUTINE TO CONVERT BCD NUMBER TO BINARY.                                         PAGE 1
                        POST PROCESSOR ASSEMBLY DATA

         33 IS THE FIRST LOCATION NOT USED BY THIS PROGRAM

0REFERENCES TO DEFINED SYMBOLS
          2    BIN     0
         30    DIG    13,   20
         27    INT     3,   15,   21,   25
          6    LOP    23
         31    TEM    14,   22
         23    TIX    11,   12
         24   IRR1     2

0 NO ERROR IN ABOVE ASSEMBLY.
1            LIBRARY PACKAGE.                                                                    PAGE 1

                       00024         ENTRY   .PCOMT        PRINT COMMENT ROUTINE
                       00010         ENTRY   CHNCOM        GO DORMANT.
                       00005         ENTRY   EXIT          SAME.
                       00002         ENTRY   .SETUP        CALLED BY MAD MAIN PROGRA.
                       00013         ENTRY   COMARG        GET COMMAND ARGUMENT.
                       00106         ENTRY   WHOAMI
                       00066         ENTRY   SETBCD
                       00064         ENTRY   SETFUL
                       00065         ENTRY   SETBRK
                       00061         ENTRY   WRFLXA
                       00063         ENTRY   WRFLX
                       00062         ENTRY   RDFLXA
                       00067         ENTRY   UPDATE        UPDATE U.F.D.
                       00070         ENTRY   CHFILE
                       00071         ENTRY   DELFIL
                       00072         ENTRY   FSTATE
                       00073         ENTRY   BUFFER
                       00074         ENTRY   OPEN
                       00075         ENTRY   WRWAIT
                       00076         ENTRY   WRFILE
                       00077         ENTRY   RDWAIT
                       00100         ENTRY   RDFILE
                       00101         ENTRY   CLOSE
                       00043         ENTRY   GETBUF        OBTAIN BUFFERS FROM SUPERVISOR.
                              *

            LINKAGE DIRECTOR
      00000  000000000000
      00001  334723464463

      00002  0760 00 0 00016  .SETUP LMTM                  USE SEVEN TAG MODE.
      00003  0774 00 6 00000         AXT     0,6           SET UP IR6 TO AVOID EARLY CALL TO READ.
      00004  0020 00 0 00064         TRA     SETFUL        USE FULL MODE.  SETFUL RETURNS 1,4.
                              *
      00005  0074 00 4 00066  EXIT   TSX     SETBCD,4      CLEANUP, RESET MODE.
      00006  0074 00 4 00063         TSX     WRFLX,4       PUT OUT A STAR FOR RUNCOMS.
      00007  0 00001 0 00060                 STAR,,1       AND THEN PERFORM CHNCOM SEQUENCE.
      00010  0074 00 4 00102  CHNCOM TSX     CHN,4         THIS CHNCOM ALWAYS GOES DEAD,
 TD   00011  3 00000 0 00107         TXH     =0            IF NO CHAIN EXISTS.
      00012  0020 00 0 00010         TRA     *-2           IN CASE OF RESTART, DON'T.
                              *
      00013  0634 00 4 00022  COMARG SXA     CM4,4         GET COMMAND ARGUMENT FOR MAD.
      00014 -0500 60 4 00001         CAL*    1,4           GET ARGUMENT NUMBER.
      00015  0602 00 0 00017         SLW     ARG           GIVE ARGUMENT NUMBER.
      00016  0074 00 4 00103         TSX     GETCOM,4      GET COMMAND ARGUMENT.
      00017  0 00000 0 00000   ARG                         ..
      00020  0602 00 0 00017         SLW     ARG           MOVE TO ARITHMETIC AC.
      00021  0500 00 0 00017         CLA     ARG           ..
      00022  0774 00 4 00000   CM4   AXT     --,4          RESTORE LINKAGE.
      00023  0020 00 4 00002         TRA     2,4           RETURN TO CALLER.
                              *
      00024 -0500 00 4 00001  .PCOMT CAL     1,4           GET WORD COUNT.
      00025  0621 00 0 00042         STA     RETURN        ON RETURN, JUMP BUFFER.
      00026  0767 00 0 00022         ALS     18            SETUP COUNT.
      00027  0622 00 0 00036         STD     PCNT          ..
      00030  1 77776 4 00031         TXI     *+1,4,-2      SETUP UP BUFFER ADDRESS.
1            LIBRARY PACKAGE.                                                                    PAGE 2

      00031  0636 00 4 00036         SCA     PCNT,4        SAVE BUFFER ADDRESS, AND LINKAGE.
      00032  0074 00 4 00064         TSX     SETFUL,4      MAKE SURE MODE SET AND NO LINES COMING IN.
      00033  0074 00 4 00061         TSX     WRFLXA,4      SWITCH TO RED SHIFT.
      00034  0 00001 0 00056                 REDS,,1       ..
      00035  0074 00 4 00063         TSX     WRFLX,4       PRINT LINE.
      00036  0 00000 0 00000   PCNT          --,,--        ..
      00037  0074 00 4 00061         TSX     WRFLXA,4      SHIFT BACK TO BLACK.
      00040  0 00001 0 00057                 BLCKS,,1      ..
      00041  0535 00 4 00036         LAC     PCNT,4        RESTORE LINKAGE.
      00042  0020 00 4 00000  RETURN TRA     --,4          RETURN TO CALLER.
                              *
      00043  0634 00 4 00052  GETBUF SXA     GX4,4         ENTRY TO GET BUFFERS.
      00044  0602 00 0 00055         SLW     BUFSIZ        SIZE OF BUFFER IN AC.
      00045  0074 00 4 00104         TSX     GETMEM,4      GET PRESENT BOUND.
      00046  0601 00 0 00054         STO     START         SAVE AS BUFFER START.
      00047  0361 00 0 00055         ACL     BUFSIZ        FORM NEW BOUND.
      00050  0074 00 4 00105         TSX     SETMEM,4      ASK FOR MORE.
      00051 -0500 00 0 00054         CAL     START         GIVE CALLER LOCATION OF
      00052  0774 00 4 00000   GX4   AXT     --,4          HIS NEW BUFFER.
      00053  0020 00 4 00001         TRA     1,4           RETURN.
                              *
      00054  0 00000 0 00000   START                       STORAGE FOR BUFFER LOCATION.
      00055  0 00000 0 00000  BUFSIZ                       STORAGE FOR BUFFER SIZE.
                              *
      00056 +013300570057      REDS  OCT     013300570057  RED SHIFT AND TWO NULLS.
      00057 +013200570057      BLCKS OCT     013200570057  BLACK SHIFT AND TWO NULLS.
      00060 -145757575757     STAR   OCT     545757575757  ASTERISK AND 5 NULLS.
                              *
                              *              SUPERVISOR SUBROUTINE CALLERS.
                              *
      00061  0101 00 0 00133  WRFLXA TIA     =HWRFLXA
      00062  0101 00 0 00122  RDFLXA TIA     =HRDFLXA
      00063  0101 00 0 00134  WRFLX  TIA     =HWRFLX
      00064  0101 00 0 00126  SETFUL TIA     =HSETFUL
      00065  0101 00 0 00125  SETBRK TIA     =HSETBRK
      00066  0101 00 0 00124  SETBCD TIA     =HSETBCD
      00067  0101 00 0 00130  UPDATE TIA     =HUPDATE
      00070  0101 00 0 00111  CHFILE TIA     =HCHFILE
      00071  0101 00 0 00114  DELFIL TIA     =HDELFIL
      00072  0101 00 0 00115  FSTATE TIA     =HFSTATE
      00073  0101 00 0 00110  BUFFER TIA     =HBUFFER
      00074  0101 00 0 00120  OPEN   TIA     =HOPEN
      00075  0101 00 0 00135  WRWAIT TIA     =HWRWAIT
      00076  0101 00 0 00132  WRFILE TIA     =HWRFILE
      00077  0101 00 0 00123  RDWAIT TIA     =HRDWAIT
      00100  0101 00 0 00121  RDFILE TIA     =HRDFILE
      00101  0101 00 0 00113  CLOSE  TIA     =HCLOSE
      00102  0101 00 0 00112  CHN    TIA     =HCHNCOM
      00103  0101 00 0 00116  GETCOM TIA     =HGETCOM
      00104  0101 00 0 00117  GETMEM TIA     =HGETMEM
      00105  0101 00 0 00127  SETMEM TIA     =HSETMEM
      00106  0101 00 0 00131  WHOAMI TIA     =HWHOAMI
                              *
                                     END
1            LIBRARY PACKAGE.                                                                    PAGE 3

        LITERALS
      00107  000000000000
      00110  226426262551
      00111  233026314325
      00112  233045234644
      00113  234346622560
      00114  242543263143
      00115  266263216325
      00116  272563234644
      00117  272563442544
      00120  464725456060
      00121  512426314325
      00122  512426436721
      00123  512466213163
      00124  622563222324
      00125  622563225142
      00126  622563266443
      00127  622563442544
      00130  644724216325
      00131  663046214431
      00132  665126314325
      00133  665126436721
      00134  665126436760
      00135  665166213163
1            LIBRARY PACKAGE.                                                                    PAGE 1
                        POST PROCESSOR ASSEMBLY DATA

        136 IS THE FIRST LOCATION NOT USED BY THIS PROGRAM

0REFERENCES TO DEFINED SYMBOLS
         17    ARG    15,   20,   21
        102    CHN    10
         22    CM4    13
         52    GX4    43
          5   EXIT     0
         74   OPEN     0
         36   PCNT    27,   31,   41
         56   REDS    34
         60   STAR     7
         57  BLCKS    40
        101  CLOSE     0
         54  START    46,   51
         63  WRFLX     0,    6,   35
         73 BUFFER     0
         55 BUFSIZ    44,   47
         70 CHFILE     0
         10 CHNCOM     0
         13 COMARG     0
         71 DELFIL     0
         72 FSTATE     0
         43 GETBUF     0
        103 GETCOM    16
        104 GETMEM    45
         24 .PCOMT     0
          2 .SETUP     0
        100 RDFILE     0
         62 RDFLXA     0
         77 RDWAIT     0
         42 RETURN    25
         66 SETBCD     0,    5
         65 SETBRK     0
         64 SETFUL     0,    4,   32
        105 SETMEM    50
         67 UPDATE     0
        106 WHOAMI     0
         76 WRFILE     0
         61 WRFLXA     0,   33,   37
         75 WRWAIT     0

0 NO ERROR IN ABOVE ASSEMBLY.


   EDL   BCD 09/18/68 2214.4   39787         00000
