1       M1416 3845  PETER R. BOS .... DIAL COMMAND FOR ATTACHED CONSOLES ....    01/12/70 1033.1 PAGE 1


                                     PCC     ON
                                     NOLNK
                       00007         ENTRY   0
                       00007         ENTRY   DIAL
                       00007         ENTRY   TEST00
                                     LBL     DIAL
                                     PCC     OFF

                                     EXTERN  DEAD,GETA,GETCOM,GTPROB,ISIN,SCHEDL,WRFLX

                                     UNLIST


                       00007  TEST00 SYN     *             ENTRY FOR DEBUGGING PROG.
      00007  0760 00 0 00016  DIAL   LMTM                  7-TAG MODE FOR XEC.A
      00010                          CALL    GETCOM(1)     GET PROBLEM NO. OF ADDRESSEE
      00012  0602 00 0 00066         SLW     PROB          ..
      00013  0322 00 0 00070         ERA     FENCE.        CHECK IF GIVEN
      00014  0100 00 0 00063         TZE     DIALER        ERROR IF NO PROBLEM NUMBER
      00015                          CALL    GTPROB(PROB,DIALER) REFORMAT PROBLEM NO.
      00020                          CALL    GETCOM(2)     PROGRAMMER NO.
      00022  0602 00 0 00067         SLW     PROG          ..
      00023  0322 00 0 00070         ERA     FENCE.        INSURE PROG. SPECIFIED
      00024  0100 00 0 00063         TZE     DIALER        .. ERROR IF NOT
      00025                          CALL    ISIN(PROB,PROG) SEE IF DESIRED USER LOGGED IN
      00030  0737 00 2 00000         PAC     ,2            .. USER NO. OR 0
      00031 -3 00000 2 00050         TXL     NOTIN,2,0     SKIP TO ERROR SECTION IF NOT LOGGED IN
      00032                          NZTBIT  USROPT,2,,DIALBT IS THIS USER ACCEPTING ADOPTEES
      00035  0020 00 0 00056         TRA     NODIAL        .. NO, ERROR
      00036                          XEC.A   LAC(USER,1)   USER NO. OF DIALER
      00040  0636 00 1 00071         SCA     USR,1         .. SAVE
      00041  0756 00 2 00000         PCA     ,2            SET UP ADOPT WORD
      00042                          XEC.A   SLW(ADOPT,1)  .. PUT AWAY
      00044                          SCHEDL  =2,USR,=0     TELL SCHEDL USER NOW DEAD

      00050  0500 00 0 00066  NOTIN  CLA     PROB          HERE IF USER NOT LOGGED IN
      00051  0560 00 0 00067         LDQ     PROG          ..
      00052 -0603 00 0 00072         DST     NOTCM         PROB-PROG TO COMMENT
      00053                          TYPE    (/ T0000  0000 IS NOT LOGGED IN/),NOTCM
      00055  0020 00 0 00063         TRA     DIALER        SKIP

      00056  0500 00 0 00066  NODIAL CLA     PROB          HERE IF USER NOT ACCEPTING ADOPTEES
      00057  0560 00 0 00067         LDQ     PROG          ..
      00060 -0603 00 0 00077         DST     NDLCM         ..
      00061                          TYPE    (/ T0000  0000 NOT DIALABLE/),NDLCM

      00063                   DIALER TYPE    (/ DIAL COMMAND INCORRECT/)
      00065  0074 00 4 00000         TSX     DEAD,4        .. AND DIE


      00066  0 00000 0 00000  PROB   PZE                   PROB-PROG OF DIALEE
      00067  0 00000 0 00000  PROG   PZE                   ..
      00070 -377777777777     FENCE. OCT     777777777777
      00071  0 00000 0 00000  USR    PZE                   ..
1       M1416 3845  PETER R. BOS .... DIAL COMMAND FOR ATTACHED CONSOLES ....    01/12/70 1033.1 PAGE 2

      00072                          RMT     *
      00072  606300000000     NOTCM  BCI     / T0000  0000 IS NOT LOGGED IN/                                  .001
      00077  606300000000     NDLCM  BCI     / T0000  0000 NOT DIALABLE/                                      .001
      00104  602431214360     ..249  BCI     / DIAL COMMAND INCORRECT/                                        .001
                                     END

        LITERALS
      00110  000000000000
      00111  000000000002
1       M1416 3845  PETER R. BOS .... DIAL COMMAND FOR ATTACHED CONSOLES ....    01/12/70 1033.1 PAGE 1
                        POST PROCESSOR ASSEMBLY DATA

        112 IS THE FIRST LOCATION NOT USED BY THIS PROGRAM

0REFERENCES TO DEFINED SYMBOLS
          1      A
          2      B
      72127      C     7
         50      N
          4      P
      74653     LA
      74652     LB
      74654     M0
      72175     MQ
      72177     OV
      74672     PB
      74671     Q0
      74670     Q1
      74667     Q2
      74666     Q3
      74665     Q4
      74664     Q5
      74663     Q6
      74662     Q7
      74661     Q8
      74660     Q9
      72176     SI
      72174     SQ
      72162    ILC
      75402    IOD
      72171    IR1
      72170    IR2
      72167    IR3
      72166    IR4
      72165    IR5
      72164    IR6
      72163    IR7
          1    .F.
          0    .I.
      72173    LAC
      74657    Q10
      74656    Q11
      74655    Q12
          0    TMP
         71    USR    40,   46
          0   BASE
      74501   DATE
          0   DEAD    65
          7   DIAL     0
      72203   DVCK
      72201   FLMD
          1   GETA    32,   36,   42
      72202   IOCK
          4   ISIN    25
          1   .ATR
       4000   .CLC
1       M1416 3845  PETER R. BOS .... DIAL COMMAND FOR ATTACHED CONSOLES ....    01/12/70 1033.1 PAGE 2
                        POST PROCESSOR ASSEMBLY DATA

         10   .CPY
          2   .DSK
        100   .LGN
        200   .LGT
        400   .LOG
         20   .MEM
       2000   .SAV
      10000   .SUB
          4   .SYS
       1000   .UFL
         40   .USR
      72200   MTMD
         66   PROB    12,   16,   26,   50,   56
         67   PROG    22,   27,   51,   57
      73315   Q1U1
      72627   Q1U2
      73315   Q3U1
      72556   Q3U2
      74602   QLEN
      74557   QMAX
      74556   QMIN
      72204   SLTS
      74616   SWAP
      77137   TAU1
      77066   TAU2
      77015   TAU3
      76744   TAU4
      76673   TAU5
      74502   USER    37
      74516   (MQ)
      74520   (OV)
      74517   (SI)
      74515   (SQ)
      75065  ADOPT    43
      74651  AMASK
      72205  ASTAT
      75207  AWAKE
      72206  BSTAT
      74474  COMSW
      73442  DBUF1
         20  D.COM
          4  D.DIR
          1  D.DSK
          2  D.OPT
         40  D.SAV
         10  D.TSF
      74647  DMASK
      74473  DSKSW
      74443  DUSER
      74526  ENBSW
      77777  ENBWD
      74641  FENCE
      72434  FSBCT
      72435  FSBLK
      76551  ITIME
1       M1416 3845  PETER R. BOS .... DIAL COMMAND FOR ATTACHED CONSOLES ....    01/12/70 1033.1 PAGE 3
                        POST PROCESSOR ASSEMBLY DATA

      77461  ..001
      75717  ..028
      74357  ..180
      72216  ..211
      72215  ..212
      72207  ..218
          5  ..247    54,   77
          5  ..248    62,  104
        104  ..249    64,  110
          4  ..250    64,  110
         24  LCBUF
      77604  LEVEL
         20  L.COM
         40  L.CPU
          4  L.DIR
          1  L.DSK
        100  L.MEM
          2  L.OPT
         10  L.TSF
      74644  LMASK
         12  MAXLV
         77  NDLCM    60,   62,  104
         72  NOTCM    52,   54,   77
         50  NOTIN    31
      74643  NULLS
      74322  PBUFF
      74646  PMASK
      72157  PRIND
      76500  PROBN
      76427  PROGN
      72172  PTIRS
          0  Q.CUR
          1  Q.MAX
          2  Q.MIN
         11  Q.TBL
      74555  QKILL
      77254  QLIST
          3  QUITL
      76041  RCODE
      72160  RLIND
      74645  RMASK
      74636  SAVED
      74604  SHIFT
      74533  STNBY
      74475  SWPSW
      74650  TMASK
      76305  UFDNM
          2  UFLBT
      76356  UNAME
      76622  UTIME
          6  WRFLX    53,   61,   63
      74503  (ILC)
      74513  (IR0)
      74512  (IR1)
      74511  (IR2)
1       M1416 3845  PETER R. BOS .... DIAL COMMAND FOR ATTACHED CONSOLES ....    01/12/70 1033.1 PAGE 4
                        POST PROCESSOR ASSEMBLY DATA

      74510  (IR3)
      74507  (IR4)
      74506  (IR5)
      74505  (IR6)
      74504  (IR7)
      74514  (LAC)
         12 ACTFIL
         60 AFS1LN
        366 AFS2LN
         32 AFSCON
         26 AFSENL
      73362 AFSTU1
      72727 AFSTU2
      74442 ATLOST
      72212 ATRILC
      72231 AUTHOR
      74454 AUTOND
      74603 AVQLEN
      74447 BASEAD
      74622 BEGTIM
      74445 BKGATT
      74444 BKGKEY
      74470 BKGPCT
      74471 BKGTIM
      74634 BKRPRV
      74642 BLANKS
      72230 BLIPCH
      72227 BLIPDT
      72226 BLIPTM
      72221 BREAKL
      72222 BRKILC
      72213 BTRILC
          5 CDEPTH
      72432 CHNPTR
        100 CLKBIT
      74453 CLKTIM
         24 CLNGTH
      74640 CMFL00
      74415 COMBUF
      72241 COMCTR
      72240 COMFSW
      75575 COMMND
      74460 COMPCT
      74441 COMPTR
      77462 COMRLC
      74461 COMTIM
      74631 CTSSID
      74630 CURUSR
      74500 DATEYR
      74446 DEMKEY
        200 DIALBT    34
         63 DIALER    14,   17,   24,   55
      74457 DISKSW
      74464 DSKPCT
      74465 DSKTIM
1       M1416 3845  PETER R. BOS .... DIAL COMMAND FOR ATTACHED CONSOLES ....    01/12/70 1033.1 PAGE 5
                        POST PROCESSOR ASSEMBLY DATA

      74545 DUMMY0
      74544 DUMMY1
      74543 DUMMY2
      74542 DUMMY3
      74541 DUMMY4
      74540 DUMMY5
      74537 DUMMY6
      74536 DUMMY7
      74535 DUMMY8
      74534 DUMMY9
      72555 EMCOND
      74612 EMPLVL
         10 ENBBIT
      74527 ESTTIM
         70 FENCE.    13,   23
      74530 FIBPTR
      74531 FIBRUN
      74635 FORCOD
         10 FSBENL
        120 FSBLKL
          1 FULBIT
      74611 FULLEN
      74613 FULLVL
          2 GETCOM    10,   20
         10 GPHBIT
         43 GROUPS
      76112 GRPNO.
      77210 GRPTBL
          3 GTPROB    15
      74605 HANGUP
          2 HUNGBT
      74606 INACTV
         20 INHBIT
         20 INPBIT
       2000 INTBIT
      74554 KILLDT
      74551 KILLSW
      74553 KILLTM
      77655 LENGTH
      74607 LEVINC
      74617 LEVTIM
      10000 LOGTBT
      72127 LOWCOM
      72156 MACOND
      74615 MAXLVL
      74621 MAXTIM
      72161 MEMBND
          4 MESGBT
      74614 MINLVL
      74571 MXUSRS
       1000 NBACBT
          4 NBKBIT
          2 NCVBIT
      10000 NDEMBT
      77777 NEWTOP
1       M1416 3845  PETER R. BOS .... DIAL COMMAND FOR ATTACHED CONSOLES ....    01/12/70 1033.1 PAGE 6
                        POST PROCESSOR ASSEMBLY DATA

      74626 NEWUSR
       4000 NFIBBT
       2000 NFORBT
        400 NINTBT
       1000 NKILBT
         56 NODIAL    35
          1 NOTIME
      20000 NPRCBT
        200 NQTBIT
     700000 NTIMCD
      74532 NUSERS
        660 NWDSPT
      74451 NWORDS
      75014 OKPROB
      74743 OKPROG
      72214 OLDILC
      77461 OLDTOP
      74627 OLDUSR
      74620 PAYTIM
      74625 PAYUSR
      74462 PRMPCT
      74463 PRMTIM
         45 Q1U1LN
        100 Q1U2LN
          0 Q3U1LN
         51 Q3U2LN
          4 Q.DNDT
          6 Q.DNTM
         10 Q.DNVR
          3 Q.UPDT
          5 Q.UPTM
          7 Q.UPVR
      74550 QLOSER
      74610 QNTWAT
      74560 QUANTM
        100 R636BT
          2 RCALBT
      74452 RCLKDT
          1 RCOMBT
        200 RDSKBT
         40 RKLDBT
       2000 ROPRBT
         20 RPATBT
          4 RPROBT
         10 RPRVBT
          4 RSTFBT
       1000 RSYSBT
        400 RTSSBT
        100 SAVEBT
      72225 SAVEM1
          4 SB.CHN
          1 SB.CMD
         10 SB.ERR
          2 SB.TSX
          5 SCHEDL    44
1       M1416 3845  PETER R. BOS .... DIAL COMMAND FOR ATTACHED CONSOLES ....    01/12/70 1033.1 PAGE 7
                        POST PROCESSOR ASSEMBLY DATA

      77726 STATUS
      74450 STOPSW
      77411 STRTIM
      72266 SUBCOM
      76234 SUBNAM
      76163 SUBSWS
      74547 SWPMAX
      74546 SWPMIN
      74466 SWPPCT
      74467 SWPTIM
      74455 SWPWAT
         40 SYSBIT
      74623 SYSDAT
      74477 SYSNAM
      74624 SYSTIM
          7 TEST00     0,    7
      75136 TIMINC
      77533 TIMLEV
      74476 TIMNOW
      72210 TINHIB
      74472 TOTTIM
         77 TPWRSW
      74633 TSRCOD
      74637 TSSDC.
      72130 TSSFID
      72234 TSSFIL
      72233 TSSFSW
         24 TSSMAX
      72132 TSSTBL
      75453 UARRAY
          1 UBACBT
       1000 UCBFBT
      75260 UCHARG
        200 UCHNBT
      75331 UCLOCK
        400 UCMLBT
      72242 UCOMBF
        100 UCOMBT
      74414 UCOMND
      74413 UCOMSW
         10 UDEMBT
      72211 UENBWD
      72223 UFERTN
          4 UFIBBT
          1 UFLBIT
          2 UFORBT
      72224 UILOCK
      75646 UNITID
         20 UPRCBT
      72232 URCODE
         10 USRBIT
      72236 USRFIL
      75770 USROPT    33
      74456 USRWAT
      75524 USWICH
1       M1416 3845  PETER R. BOS .... DIAL COMMAND FOR ATTACHED CONSOLES ....    01/12/70 1033.1 PAGE 8
                        POST PROCESSOR ASSEMBLY DATA

      72433 WATCOM
      77462 WATTIM
         16 WDSLIN
      77340 WRKTIM
       2000 XEQBIT
      74524 (DVCK)
      74522 (FLMD)
      74523 (IOCK)
      74521 (MTMD)
      74525 (SLTS)

0 NO ERROR IN ABOVE ASSEMBLY.


    ED   BCD 09/18/68 2044.6   32730         00000
           BEGIN                                                            00010___
       COMMENT .. CONTEXT EDITOR FOR CARD IMAGE PROGRAMS .. $,              00020___
           INTEGER BLANK,TAB,STAR,FENCE,TNAME,ENAME,TCLASS,OLDNAM,CLASS,L   00030  **** LINE TRUNCATED
            ,LINENO,LINCR,HILINE,COUNT,EDCT,NEWNAM,K,I,N,Q,J,PRC,OP,PRCT,   00040___
            STR1,TLP,STR2,ESTR,XXWORD,PRINAM,TLINI,SAVCT,BLANKS,STR2M1,     00050___
            STR2P1,STRDIF,STR1P1,EDWD,INPWD $,                              00060___
           INTEGER PROCEDURE LS,NUM,GET,COMARG $,                           00070___
           INTEGER ARRAY FAP,MAD,MADTRN,ALGOL,GPSS,XXXCWD,CCT $,            00080___
           INTEGER ARRAY LINE(85),EDLIN,TLIN,WHOAM(2) $,                    00090___
           BOOLEAN OK,MODIFY,GLOBAL,VERMOD,NDCHAR,TRNCSW $,                 00100___
           BOOLEAN PROCEDURE UNTAB $,                                       00110___
           PROCEDURE RED,DELETE,WRFLEX,SETTAB,DASIGN,DSEEK,RDTYPE,BLACK,    00120___
            PRCARD,WRLINE,MOVETO,VERPRN,RDCARD,CLOSE,SETCOL,SETBCD,DFILE,   00130___
            RENAME,CHFILE,UPDATE,CHNCOM,FLIP,RESET,WRCARD,WHOAMI $,         00140___
           TNAME .BCD. '(INPT1' $,                                          00150___
           ENAME .BCD. '(INPUT' $,                                          00160___
           BLANKS .BCD. ' ' $,                                              00170___
           PRESET                                                           00180___
                BEGIN                                                       00190___
                FENCE = 777777777777C $,                                    00200___
                BLANK = 60C $,                                              00210___
                TAB = 72C $,                                                00220___
                STAR = 545757575757C $,                                     00230___
                END $,                                                      00240___
       COMMENT .......... TAB SETTINGS .......... $,                        00250___
           PRESET                                                           00260___
                BEGIN                                                       00270___
                FAP = 3,8,16,30 $,                                          00280___
                MAD = 12,12,17,22,27,32,37,42,47,52,57,62,67 $,             00290___
                MADTRN = 12,7,12,17,22,27,32,37,42,47,52,57,62 $,           00300___
                ALGOL = 12,11,16,21,26,31,36,41,46,51,56,61,66 $,           00310___
                GPSS = 11,2,7,19,25,31,37,43,49,55,61,67 $,                 00320___
                END $,                                                      00330___
           PRESET                                                           00340___
                BEGIN                                                       00350___
                LENGTH = 0 $,                                               00360___
                LINENO = 0 $,                                               00370___
                HILINE = 0 $,                                               00380___
                LINCR = 10 $,                                               00390___
                VERMOD = 0B $,                                              00400___
                TRNCSW = 1B $,                                              00410___
                OK = 0B $,                                                  00420___
                END $,                                                      00430___
           SWITCH RQUEST = APPEND,BLKOUT,BOTTOM,BRIEF,CHANGE,CLIP,COLON,    00440___
            DELLIN,FILE,FIND,INSERT,KILL,LOCATE,MERGE,NEXLIN,OVRLAY,        00450___
            XPRINT,QUIT,RETYPE,SERIAL,TABSET,TOP,VERIFY,WRITE $,            00460___
           XXXCWD .BCD. '000000APPEND BLANKBOTTOM BRIEFCHANGE  CLIP COLON   00470___
 DELETE  FILE  FINDINSERT  KILLLOCATE MERGE  NEXTOVRLAY PRINT  QUITRETYPE   00480___
 SERIALTABSET   TOPVERIFY WRITE' $,                                         00490___
           XXWORD .BCD. '000000     A    BL     B    BR     C    CL    CO   00500___
      D    FL     F     I     K     L     M     N     O     P     Q     R   00510___
      S    TA     T    VE     W' $,                                         00520___
           PRESET CCT = 24 $,                                               00530___
       COMMENT .......... START OF MAIN PROGRAM .......... $,               00540___
           WHOAMI(WHOAM TO 2) $,                                            00550___
           TCLASS = WHOAM(1) $,                                             00560___
           RED() $,                                                         00570___
           DELETE(TNAME,TCLASS,0,ERROR) $,                                  00580___
           DELETE(ENAME,TCLASS,0,ERROR) $,                                  00590___
           EDWD = .BCI. 'EDIT:' $,                                          00600___
           INPWD = .BCI. 'INPUT:' $,                                        00610___
           OLDNAM = COMARG(1) $,                                            00620___
           CLASS = COMARG(2) $,                                             00630___
           NEWNAM = COMARG(3) $,                                            00640___
           IF OLDNAM EQL FENCE                                              00650___
           THEN BEGIN                                                       00660___
                WRFLEX(.BCI. 'NO FILE OR CLASS NAME GIVEN.' ,0) $,          00670___
                GOTO ERROR $,                                               00680___
                END                                                         00690___
           ELSE IF CLASS EQL FENCE                                          00700___
                THEN BEGIN                                                  00710___
                     CLASS = OLDNAM $,                                      00720___
                     NEWNAM = OLDNAM = FENCE $,                             00730___
                     END $,                                                 00740___
           IF CLASS EQL .BCD. '   FAP' OR CLASS EQL .BCD. '  PEST'          00750___
           THEN BEGIN                                                       00760___
                SETTAB(FAP) $,                                              00770___
                TRNCSW = FALSE $,                                           00780___
                END                                                         00790___
           ELSE IF CLASS EQL .BCD. 'MADTRN' OR CLASS EQL .BCD. 'FORTRN'     00800___
                THEN SETTAB(MADTRN)                                         00810___
                ELSE IF CLASS EQL .BCD. '   MAD'                            00820___
                     THEN SETTAB(MAD)                                       00830___
                     ELSE IF CLASS EQL .BCD. ' ALGOL'                       00840___
                          THEN SETTAB(ALGOL)                                00850___
                          ELSE IF CLASS EQL .BCD. '  GPSS'                  00860___
                               THEN SETTAB(GPSS)                            00870___
                               ELSE IF CLASS NEQ .BCD. ' COMIT'             00880___
                                    THEN WRFLEX(.BCI. 'TABS NOT SET' ,0)    00890___
                                          $,                                00900___
           DASIGN(ENAME,TCLASS,ERROR) $,                                    00910___
           IF OLDNAM EQL FENCE                                              00920___
           THEN GOTO PINPUT $,                                              00930___
           DSEEK(OLDNAM,CLASS,PINPUT) $,                                    00940___
           OK = TRUE $,                                                     00950___
           IF NEWNAM NEQ FENCE                                              00960___
           THEN OLDNAM = NEWNAM $,                                          00970___
       COMMENT .......... CONTROL WORD DISPATCHER .......... $,             00980___
 PEDIT $   RED() $,                                                         00990___
           WRFLEX(EDWD,0) $,                                                01000___
 NEXT $    RDTYPE(EDLIN,COUNT) $,                                           01010___
           IF COUNT EQL 0                                                   01020___
           THEN GOTO PINPUT $,                                              01030___
           EDCT = 0 $,                                                      01040___
           XXXCWD = GET() $,                                                01050___
           FOR I = 1 STEP 1 UNTIL CCT                                       01060___
           DO   IF XXXCWD EQL XXWORD(I) OR XXXCWD EQL XXXCWD(I)             01070___
                THEN GOTO RQUEST(I) $,                                      01080___
       COMMENT .......... NOT A REQUEST .......... $,                       01090___
           WRFLEX(.BCI. 'NOT A REQUEST:' ,0) $,                             01100___
 PCARD $   BLACK() $,                                                       01110___
           PRCARD(EDLIN,COUNT) $,                                           01120___
           RED() $,                                                         01130___
           GOTO NEXT $,                                                     01140___
       COMMENT .......... INSERT,INPUT MODE .......... $,                   01150___
 PINPUT $  WRFLEX(INPWD,0) $,                                               01160___
           BLACK() $,                                                       01170___
 INPUT $   RDTYPE(EDLIN,COUNT) $,                                           01180___
           IF COUNT EQL 0                                                   01190___
           THEN GOTO PEDIT $,                                               01200___
           IF UNTAB(EDLIN) AND TRNCSW                                       01210___
           THEN BEGIN                                                       01220___
                RED() $,                                                    01230___
                WRFLEX(.BCI. 'TRUNCATED:' ,0) $,                            01240___
                PRCARD(EDLIN,72) $,                                         01250___
                BLACK() $,                                                  01260___
                END $,                                                      01270___
           WRLINE() $,                                                      01280___
           LINENO = 0 $,                                                    01290___
           FOR I = 1 STEP 1 UNTIL 72                                        01300___
           DO LINE(I) = EDLIN(I) $,                                         01310___
           LENGTH = EDLIN $,                                                01320___
           GOTO INPUT $,                                                    01330___
 OVRLAY $  MOVETO(TLIN) $,                                                  01340___
           FOR I = 1 STEP 1 UNTIL TLIN                                      01350___
           DO   IF TLIN(I) NEQ BLANK                                        01360___
                THEN LINE(I) = TLIN(I) $,                                   01370___
           IF TLIN GRT LENGTH                                               01380___
           THEN LENGTH = TLIN $,                                            01390___
           VERPRN() $,                                                      01400___
           GOTO NEXT $,                                                     01410___
 BLKOUT $  MOVETO(TLIN) $,                                                  01420___
           FOR I = 1 STEP 1 UNTIL TLIN                                      01430___
           DO   IF TLIN(I) NEQ BLANK                                        01440___
                THEN LINE(I) = BLANK $,                                     01450___
           VERPRN() $,                                                      01460___
           GOTO NEXT $,                                                     01470___
       COMMENT .......... DELETE LINE OR CARDS .......... $,                01480___
 DELLIN $  IF (N = NUM()) EQL 0                                             01490___
           THEN N = 1 $,                                                    01500___
           FOR I = 2 STEP 1 UNTIL N                                         01510___
           DO   BEGIN                                                       01520___
                IF NOT OK                                                   01530___
                THEN GOTO EOF $,                                            01540___
                RDCARD(LINE,LENGTH,LINENO,EOF) $,                           01550___
                END $,                                                      01560___
           LENGTH = LINENO = 0 $,                                           01570___
           GOTO NEXT $,                                                     01580___
       COMMENT .......... RETYPE CURRENT CARD .......... $,                 01590___
 INSERT $  IF EDCT GEQ COUNT                                                01600___
           THEN GOTO PINPUT $,                                              01610___
           WRLINE() $,                                                      01620___
 RETYPE $  MOVETO(LINE) $,                                                  01630___
           LENGTH = LINE $,                                                 01640___
           GOTO NEXT $,                                                     01650___
       COMMENT .......... NEXT CARD .......... $,                           01660___
 NEXLIN $  IF (N = NUM()) EQL 0                                             01670___
           THEN N = 1 $,                                                    01680___
           FOR I = 1 STEP 1 UNTIL N                                         01690___
           DO   BEGIN                                                       01700___
                WRLINE() $,                                                 01710___
                IF NOT OK                                                   01720___
                THEN CLOSE() $,                                             01730___
                RDCARD(LINE,LENGTH,LINENO,EOF) $,                           01740___
                END $,                                                      01750___
           VERPRN() $,                                                      01760___
           GOTO NEXT $,                                                     01770___
       COMMENT ......... FIND MATCHING CARD .......... $,                   01780___
 FIND $    MOVETO(TLIN) $,                                                  01790___
 FIND2 $   WRLINE() $,                                                      01800___
           IF NOT OK                                                        01810___
           THEN CLOSE() $,                                                  01820___
           RDCARD(LINE,LENGTH,LINENO,EOF) $,                                01830___
           FOR I = 1 STEP 1 UNTIL TLIN                                      01840___
           DO   IF TLIN(I) NEQ BLANK AND TLIN(I) NEQ LINE(I)                01850___
                THEN GOTO FIND2 $,                                          01860___
           VERPRN() $,                                                      01870___
           GOTO NEXT $,                                                     01880___
       COMMENT .......... LOCATE LINE WITH CHAR. STRING ... $,              01890___
 LOCATE $  WRLINE() $,                                                      01900___
           IF NOT OK                                                        01910___
           THEN CLOSE() $,                                                  01920___
           RDCARD(LINE,LENGTH,LINENO,EOF) $,                                01930___
           FOR I = 1 STEP 1 UNTIL 84                                        01940___
           DO   BEGIN                                                       01950___
                J = I $,                                                    01960___
                FOR K = EDCT+1 STEP 1 UNTIL COUNT                           01970___
                DO   BEGIN                                                  01980___
                     IF J GRT 84                                            01990___
                     THEN GOTO LOCATE $,                                    02000___
                     IF EDLIN(K) NEQ LINE(J)                                02010___
                     THEN GOTO LOC2 $,                                      02020___
                     J = J+1 $,                                             02030___
                     END $,                                                 02040___
                VERPRN() $,                                                 02050___
                GOTO NEXT $,                                                02060___
 LOC2 $         END $,                                                      02070___
           GOTO LOCATE $,                                                   02080___
       COMMENT .......... PRINT CARD OR CARDS .......... $,                 02090___
 XPRINT $  N = NUM() $,                                                     02100___
           BLACK() $,                                                       02110___
           PRC = 72 $,                                                      02120___
           IF (OP = GET()) EQL .BCD. 'LINENO' OR OP EQL .BCD. '     L'      02130___
           THEN PRC = 80 $,                                                 02140___
 PRINT1 $  PRCT = LENGTH $,                                                 02150___
           IF PRCT GRT PRC                                                  02160___
           THEN PRCT = PRC $,                                               02170___
           PRCARD(LINE,PRCT) $,                                             02180___
           IF (N = N-1) LEQ 0                                               02190___
           THEN GOTO EPRINT $,                                              02200___
           WRLINE() $,                                                      02210___
           IF NOT OK                                                        02220___
           THEN GOTO EOF $,                                                 02230___
           RDCARD(LINE,LENGTH,LINENO,EOF) $,                                02240___
           GOTO PRINT1 $,                                                   02250___
 EPRINT $  RED() $,                                                         02260___
           GOTO NEXT $,                                                     02270___
       COMMENT .......... TOP,GO TO TOP OF CARD FILE .......... $,          02280___
 TOP $     WRLINE() $,                                                      02290___
           IF OK                                                            02300___
           THEN BEGIN                                                       02310___
                RDCARD(LINE,LENGTH,LINENO,ENDTOP) $,                        02320___
                GOTO TOP $,                                                 02330___
                END $,                                                      02340___
 ENDTOP $  CLOSE() $,                                                       02350___
           GOTO NEXT $,                                                     02360___
       COMMENT .. BOTTOM,GOTO BOTTOM OF CARD FILE .. $,                     02370___
 BOTTOM $  WRLINE() $,                                                      02380___
           IF OK                                                            02390___
           THEN BEGIN                                                       02400___
                RDCARD(LINE,LENGTH,LINENO,ENDBOT) $,                        02410___
                GOTO BOTTOM $,                                              02420___
                END $,                                                      02430___
 ENDBOT $  LENGTH = 0 $,                                                    02440___
           OK = FALSE $,                                                    02450___
           GOTO PINPUT $,                                                   02460___
       COMMENT .. CHANGE,REPLACE CHARACTER STRING .. $,                     02470___
 CHANGE $  Q = EDLIN(STR1 = EDCT = EDCT+1) $,                               02480___
           STR1P1 = STR1+1 $,                                               02490___
           FOR EDCT = EDCT+1 STEP 1 WHILE EDLIN(EDCT) NEQ Q AND EDCT LEQ    02500___
            COUNT                                                           02510___
           DO   BEGIN                                                       02520___
                END $,                                                      02530___
           STRDIF = (STR2M1 = (STR2P1 = (STR2 = EDCT)+1)-2)-STR1 $,         02540___
           FOR EDCT = EDCT+1 STEP 1 WHILE EDLIN(EDCT) NEQ Q AND EDCT LEQ    02550___
            COUNT                                                           02560___
           DO   BEGIN                                                       02570___
                END $,                                                      02580___
           EDCT = (ESTR = EDCT)+1 $,                                        02590___
           IF (N = NUM()) EQL 0                                             02600___
           THEN N = 1 $,                                                    02610___
           GLOBAL = ((OP = GET()) EQL .BCD. '     G' OR OP EQL .BCD. 'GLO   02620___
 BAL' ) $,                                                                  02630___
 REPEAT $  IF LENGTH LEQ 0                                                  02640___
           THEN GOTO ECHNG2 $,                                              02650___
           MODIFY = FALSE $,                                                02660___
           IF N LEQ 1                                                       02670___
           THEN MODIFY = TRUE $,                                            02680___
           FOR I = 1 STEP 1 UNTIL 72                                        02690___
           DO TLIN(I) = LINE(I) $,                                          02700___
           LENGTH = TLP = 1 $,                                              02710___
 FNDSTR $  FOR TLP = TLP STEP 1 UNTIL 72                                    02720___
           DO   BEGIN                                                       02730___
                J = TLP $,                                                  02740___
                FOR I = STR1P1 STEP 1 UNTIL STR2M1                          02750___
                DO   BEGIN                                                  02760___
                     IF EDLIN(I) NEQ TLIN(J) OR J GRT 72                    02770___
                     THEN GOTO FNDS2 $,                                     02780___
                     J = J+1 $,                                             02790___
                     END $,                                                 02800___
                GOTO FOUND $,                                               02810___
 FNDS2 $        LINE(LENGTH) = TLIN(TLP) $,                                 02820___
                IF LENGTH GRT 72                                            02830___
                THEN GOTO ECHNG $,                                          02840___
                LENGTH = LENGTH+1 $,                                        02850___
                END $,                                                      02860___
           LINE(LENGTH) = BLANK $,                                          02870___
           GOTO ECHNG $,                                                    02880___
 FOUND $   TLP = TLP+STRDIF $,                                              02890___
           MODIFY = TRUE $,                                                 02900___
           FOR I = STR2P1 STEP 1 WHILE I LES ESTR                           02910___
           DO   BEGIN                                                       02920___
                LINE(LENGTH) = EDLIN(I) $,                                  02930___
                IF LENGTH GEQ 72                                            02940___
                THEN GOTO ECHNG $,                                          02950___
                LENGTH = LENGTH+1 $,                                        02960___
                END $,                                                      02970___
           IF GLOBAL                                                        02980___
           THEN GOTO FNDSTR $,                                              02990___
           FOR TLP = TLP STEP 1 UNTIL 72                                    03000___
           DO   BEGIN                                                       03010___
                LINE(LENGTH) = TLIN(TLP) $,                                 03020___
                IF LENGTH GEQ 72                                            03030___
                THEN GOTO ECHNG $,                                          03040___
                LENGTH = LENGTH+1 $,                                        03050___
                END $,                                                      03060___
           LINE(LENGTH) = BLANK $,                                          03070___
 ECHNG $   FOR LENGTH = LENGTH+1 STEP 1 UNTIL 84                            03080___
           DO LINE(LENGTH) = BLANK $,                                       03090___
           LENGTH = 84 $,                                                   03100___
           IF MODIFY                                                        03110___
           THEN VERPRN() $,                                                 03120___
 ECHNG2 $  IF (N = N-1) LEQ 0                                               03130___
           THEN GOTO NEXT $,                                                03140___
           WRLINE() $,                                                      03150___
           IF NOT OK                                                        03160___
           THEN GOTO EOF $,                                                 03170___
           RDCARD(LINE,LENGTH,LINENO,EOF) $,                                03180___
           GOTO REPEAT $,                                                   03190___
       COMMENT .......... SERIAL,SET LINE INCREMENT .......... $,           03200___
 SERIAL $  IF (LINCR = NUM()) EQL 0                                         03210___
           THEN LINCR = 10 $,                                               03220___
           GOTO NEXT $,                                                     03230___
       COMMENT .......... TABSET,SET CONSOLE TABS .......... $,             03240___
 TABSET $  TLIN = 0 $,                                                      03250___
           FOR I = 1 STEP 1 UNTIL 30                                        03260___
           DO   BEGIN                                                       03270___
                IF (TLIN(I) = TLINI = NUM()) EQL 0                          03280___
                THEN BEGIN                                                  03290___
                     SETTAB(TLIN) $,                                        03300___
                     GOTO NEXT $,                                           03310___
                     END $,                                                 03320___
                IF I GRT 1 AND TLINI LEQ TLIN(I-1) OR TLINI GRT 84          03330___
                THEN BEGIN                                                  03340___
 TABERR $            WRFLEX(.BCI. 'ILLEGAL TAB SETTING IGNORED:' ,0) $,     03350___
                     GOTO PCARD $,                                          03360___
                     END $,                                                 03370___
                TLIN = I $,                                                 03380___
                END $,                                                      03390___
       COMMENT .. CONTROL SHOULD NEVER GET HERE, BUT .... $,                03400___
           GOTO TABERR $,                                                   03410___
       COMMENT .......... VERIFY MODE .......... $,                         03420___
 VERIFY $  VERMOD = TRUE $,                                                 03430___
           EDWD = .BCI. 'EDIT:' $,                                          03440___
           INPWD = .BCI. 'INPUT:' $,                                        03450___
           GOTO NEXT $,                                                     03460___
       COMMENT .......... BRIEF MODE .......... $,                          03470___
 BRIEF $   VERMOD = FALSE $,                                                03480___
           EDWD = .BCI. 'E:' $,                                             03490___
           INPWD = .BCI. 'I:' $,                                            03500___
           GOTO NEXT $,                                                     03510___
 COLON $   IF (OP = GET()) EQL .BCD. '  TEXT' OR OP EQL .BCD. '     T'      03520___
           THEN SETCOL(0)                                                   03530___
           ELSE IF OP EQL .BCD. 'BACKSP' OR OP EQL .BCD. '     B'           03540___
                THEN SETCOL(1)                                              03550___
                ELSE BEGIN                                                  03560___
                     WRFLEX(.BCI. 'ILLEGAL ARGUMENT OF COLON REQUEST:' ,0   03570___
                      ) $,                                                  03580___
                     GOTO PCARD $,                                          03590___
                     END $,                                                 03600___
           GOTO NEXT $,                                                     03610___
 CLIP $    IF (OP = GET()) EQL .BCD. '    ON'                               03620___
           THEN TRNCSW = TRUE                                               03630___
           ELSE IF OP EQL .BCD. '   OFF'                                    03640___
                THEN TRNCSW = FALSE                                         03650___
                ELSE BEGIN                                                  03660___
                     WRFLEX(.BCI. 'ILLEGAL ARGUMENT OF CLIP REQUEST:' ,0)   03670___
                      $,                                                    03680___
                     GOTO PCARD $,                                          03690___
                     END $,                                                 03700___
           GOTO NEXT $,                                                     03710___
 KILL $                                                                     03720___
 MERGE $                                                                    03730___
 APPEND $                                                                   03740___
 WRITE $                                                                    03750___
 NULL $    WRFLEX(.BCI. 'THIS FUNCTION NOT YET CODED:' ,0) $,               03760___
           GOTO PCARD $,                                                    03770___
       COMMENT .......... FILE,END OF EDITING .......... $,                 03780___
 FILE $    IF (PRINAM = GET()) EQL BLANKS                                   03790___
           THEN BEGIN                                                       03800___
                IF (PRINAM = OLDNAM) EQL FENCE                              03810___
                THEN BEGIN                                                  03820___
                     SETBCD() $,                                            03830___
                     WRFLEX(.BCI. 'NO FILE NAME GIVEN' ,0) $,               03840___
                     GOTO NEXT $,                                           03850___
                     END $,                                                 03860___
                END $,                                                      03870___
 FILE1 $   WRLINE() $,                                                      03880___
           IF OK                                                            03890___
           THEN BEGIN                                                       03900___
                RDCARD(LINE,LENGTH,LINENO,XEND) $,                          03910___
                GOTO FILE1 $,                                               03920___
                END $,                                                      03930___
 XEND $    DFILE(NOFILE) $,                                                 03940___
           RENAME(ENAME,TCLASS,PRINAM,CLASS,NODEL) $,                       03950___
 L3 $      CHFILE(TNAME,TCLASS,1,-0,-0,L4) $,                               03960___
           DELETE(TNAME,TCLASS,0,L4) $,                                     03970___
 L4 $      UPDATE() $,                                                      03980___
 ERROR $   BLACK() $,                                                       03990___
          WRFLEX(STAR,1) $,                                                 04000___
           CHNCOM(0) $,                                                     04010___
 NODEL $   FLIP() $,                                                        04020___
           GOTO PEDIT $,                                                    04030___
       COMMENT ............. QUIT, DELETE TEMP. FILES, LEAVE ....... $,     04040___
 QUIT $    RESET() $,                                                       04050___
          CHFILE(ENAME,TCLASS,1,-0,-0,L3) $,                                04060___
          DELETE(ENAME,TCLASS,0,L3) $,                                      04070___
           GOTO L3 $,                                                       04080___
       COMMENT .......... END OF FILE READING EDIT FILE .......... $,       04090___
 EOF $     RED() $,                                                         04100___
           WRFLEX(.BCI. 'END OF FILE REACHED BY:' ,0) $,                    04110___
           LENGTH = 0 $,                                                    04120___
           OK = FALSE $,                                                    04130___
           GOTO PCARD $,                                                    04140___
       COMMENT .......... HERE FOR DISK FILE ERROR .......... $,            04150___
 NOFILE $  WRFLEX(.BCI. 'NOTHING IN FILE' ,0) $,                            04160___
           OK = FALSE $,                                                    04170___
           LENGTH = LINENO = HILINE = 0 $,                                  04180___
           DASIGN(ENAME,TCLASS,ERROR) $,                                    04190___
           GOTO PINPUT $,                                                   04200___
       COMMENT .... ATTEMPT TO TERMINATE, THEN REVERSE FILES ..... $,       04210___
                                                                            04220___
           DEFINE PROCEDURE CLOSE TOBE                                      04230___
                BEGIN                                                       04240___
                DFILE(NOFILE) $,                                            04250___
                FLIP() $,                                                   04260___
                END $,                                                      04270___
                                                                            04280___
       COMMENT ..... REVERSE AND RE-OPEN FILES $,                           04290___
                                                                            04300___
           DEFINE PROCEDURE FLIP TOBE                                       04310___
                BEGIN                                                       04320___
          CHFILE(TNAME,TCLASS,1,-0,-0,IGNERR) $,                            04330___
 IGNERR $ DELETE(TNAME,TCLASS,0,ERROR) $,                                   04340___
                CHFILE(ENAME,TCLASS,16,TNAME,TCLASS,ERROR) $,               04350___
                UPDATE() $,                                                 04360___
                DSEEK(TNAME,TCLASS,NOFILE) $,                               04370___
                OK = TRUE $,                                                04380___
                DASIGN(ENAME,TCLASS,ERROR) $,                               04390___
                LENGTH = LINENO = HILINE = 0 $,                             04400___
                END $,                                                      04410___
                                                                            04420___
       COMMENT .......... PROCEDURE TO SET UP LINENO,ETC. ..... $,          04430___
                                                                            04440___
           DEFINE PROCEDURE WRLINE TOBE                                     04450___
                BEGIN                                                       04460___
                IF LENGTH NEQ 0                                             04470___
                THEN BEGIN                                                  04480___
                     IF LINENO LEQ HILINE                                   04490___
                     THEN LINENO = HILINE+LINCR $,                          04500___
                     WRCARD(LINE,LENGTH,LINENO,ERROR) $,                    04510___
                     IF LINENO GRT HILINE                                   04520___
                     THEN HILINE = LINENO $,                                04530___
                     END $,                                                 04540___
                END $,                                                      04550___
                                                                            04560___
       COMMENT ..... PROCEDURE TO VERIFY LINE ........ $,                   04570___
                                                                            04580___
           DEFINE PROCEDURE VERPRN TOBE                                     04590___
                BEGIN                                                       04600___
                IF VERMOD                                                   04610___
                THEN BEGIN                                                  04620___
                     BLACK() $,                                             04630___
                     PRCARD(LINE,72) $,                                     04640___
                     RED() $,                                               04650___
                     END $,                                                 04660___
                END $,                                                      04670___
                                                                            04680___
       COMMENT ....... PROCEDURES GET AND NUM(UTILITY)... $,                04690___
                                                                            04700___
           DEFINE INTEGER PROCEDURE GET TOBE                                04710___
                BEGIN                                                       04720___
                SAVCT = EDCT $,                                             04730___
                NDCHAR = TRUE $,                                            04740___
                XXWORD = BLANKS $,                                          04750___
                FOR EDCT = EDCT+1 WHILE (NDCHAR OR (EDLIN(EDCT) NEQ BLANK   04760___
                 AND EDLIN(EDCT) NEQ TAB)) AND EDCT LEQ COUNT               04770___
                DO   IF EDLIN(EDCT) NEQ TAB AND EDLIN(EDCT) NEQ BLANK       04780___
                     THEN BEGIN                                             04790___
                          XXWORD = LS(XXWORD,6) .V. EDLIN(EDCT) $,          04800___
                          NDCHAR = FALSE $,                                 04810___
                          END $,                                            04820___
                XXWORD = XXWORD $,                                          04830___
                END $,                                                      04840___
                                                                            04850___
           DEFINE INTEGER PROCEDURE NUM TOBE                                04860___
                BEGIN                                                       04870___
                SAVCT = EDCT $,                                             04880___
                NDCHAR = TRUE $,                                            04890___
                XXWORD = 0 $,                                               04900___
                FOR EDCT = EDCT+1 WHILE (NDCHAR OR (EDLIN(EDCT) NEQ BLANK   04910___
                 AND EDLIN(EDCT) NEQ TAB)) AND EDCT LEQ COUNT               04920___
                DO   IF EDLIN(EDCT) LES 10                                  04930___
                     THEN BEGIN                                             04940___
                          XXWORD = XXWORD*10+EDLIN(EDCT) $,                 04950___
                          NDCHAR = FALSE $,                                 04960___
                          END $,                                            04970___
                XXWORD = XXWORD $,                                          04980___
                END $,                                                      04990___
                                                                            05000___
       COMMENT ... PROCEDURE TO MOVE AND UN-TAB 'EDLIN' $,                  05010___
                                                                            05020___
           DEFINE PROCEDURE MOVETO(LIN) WHERE INTEGER ARRAY LIN TOBE        05030___
                BEGIN                                                       05040___
                IF EDLIN(EDCT) NEQ BLANK                                    05050___
                THEN EDCT = EDCT-1 $,                                       05060___
                I = 0 $,                                                    05070___
                FOR I = I+1 WHILE I LEQ 84 AND EDCT LES 84                  05080___
                DO LIN(I) = EDLIN(EDCT = EDCT+1) $,                         05090___
                IF UNTAB(LIN) AND TRNCSW                                    05100___
                THEN BEGIN                                                  05110___
                     BLACK() $,                                             05120___
                     WRFLEX(.BCI. 'TRUNCATED:' ,0) $,                       05130___
                     PRCARD(LIN,72) $,                                      05140___
                     RED() $,                                               05150___
                     END $,                                                 05160___
                END $,                                                      05170___
                                                                            05180___
           END FINI                                                         05190___
1PAGE 1      COMPILATION LISTING


 00030                                 PSE   16
 00031                                 TRA   (L000
         (L001
 00032   RQUEST                        TRA   APPEND
 00033                                 TRA   BLKOUT
 00034                                 TRA   BOTTOM
 00035                                 TRA   BRIEF
 00036                                 TRA   CHANGE
 00037                                 TRA   CLIP
 00040                                 TRA   COLON
 00041                                 TRA   DELLIN
 00042                                 TRA   FILE
 00043                                 TRA   FIND
 00044                                 TRA   INSERT
 00045                                 TRA   KILL
 00046                                 TRA   LOCATE
 00047                                 TRA   MERGE
 00050                                 TRA   NEXLIN
 00051                                 TRA   OVRLAY
 00052                                 TRA   XPRINT
 00053                                 TRA   QUIT
 00054                                 TRA   RETYPE
 00055                                 TRA   SERIAL
 00056                                 TRA   TABSET
 00057                                 TRA   TOP
 00060                                 TRA   VERIFY
 00061                                 TRA   WRITE
 00062   (L000                         TSX   WHOAMI,4
 00063                                 TXH   WHOAM,,2
 00064                                 LAC   1,1
 00065                                 CLA   WHOAM,1
 00066                                 STO   TCLASS
 00067                                 TSX   RED,4
 00070                                 TSX   DELETE,4
 00071                                 TXH   TNAME
 00072                                 TXH   TCLASS
 00073                                 TXH   0
 00074                                 TXH   ERROR
 00075                                 TSX   DELETE,4
 00076                                 TXH   ENAME
 00077                                 TXH   TCLASS
 00100                                 TXH   0
 00101                                 TXH   ERROR
 00102                                 CLA   )S001
 00103                                 STO   EDWD
 00104                                 CLA   )S002
 00105                                 STO   INPWD
 00106                                 TSX   COMARG,4
 00107                                 TXH   1
 00110                                 STO   OLDNAM
 00111                                 TSX   COMARG,4
1PAGE 2      COMPILATION LISTING


 00112                                 TXH   2
 00113                                 STO   CLASS
 00114                                 TSX   COMARG,4
 00115                                 TXH   3
 00116                                 STO   NEWNAM
 00117                                 CLA   OLDNAM
 00120                                 SUB   FENCE
 00121                                 TNZ   (L002
 00122                                 TSX   WRFLEX,4
 00123                                 TXH   )S003
 00124                                 TXH   0
 00125                                 TRA   ERROR
 00126                                 TRA   (L003
 00127   (L002                         CLA   CLASS
 00130                                 SUB   FENCE
 00131                                 TNZ   (L004
 00132                                 CLA   OLDNAM
 00133                                 STO   CLASS
 00134                                 CLA   FENCE
 00135                                 STO   OLDNAM
 00136                                 STO   NEWNAM
         (L004
 00137   (L003                         CLA   CLASS
 00140                                 SUB   )S004
 00141                                 TZE   (L005
 00142                                 CLA   CLASS
 00143                                 SUB   )S005
 00144                                 TNZ   (L006
 00145   (L005                         TSX   SETTAB,4
 00146                                 TXH   FAP
 00147                                 CAL   FALSE
 00150                                 SLW   TRNCSW
 00151                                 TRA   (L007
 00152   (L006                         CLA   CLASS
 00153                                 SUB   )S006
 00154                                 TZE   (L010
 00155                                 CLA   CLASS
 00156                                 SUB   )S007
 00157                                 TNZ   (L011
 00160   (L010                         TSX   SETTAB,4
 00161                                 TXH   MADTRN
 00162                                 TRA   (L012
 00163   (L011                         CLA   CLASS
 00164                                 SUB   )S010
 00165                                 TNZ   (L013
 00166                                 TSX   SETTAB,4
 00167                                 TXH   MAD
 00170                                 TRA   (L014
 00171   (L013                         CLA   CLASS
 00172                                 SUB   )S011
 00173                                 TNZ   (L015
1PAGE 3      COMPILATION LISTING


 00174                                 TSX   SETTAB,4
 00175                                 TXH   ALGOL
 00176                                 TRA   (L016
 00177   (L015                         CLA   CLASS
 00200                                 SUB   )S012
 00201                                 TNZ   (L017
 00202                                 TSX   SETTAB,4
 00203                                 TXH   GPSS
 00204                                 TRA   (L020
 00205   (L017                         CLA   CLASS
 00206                                 SUB   )S013
 00207                                 TZE   (L021
 00210                                 TSX   WRFLEX,4
 00211                                 TXH   )S014
 00212                                 TXH   0
         (L021
         (L020
         (L016
         (L014
         (L012
 00213   (L007                         TSX   DASIGN,4
 00214                                 TXH   ENAME
 00215                                 TXH   TCLASS
 00216                                 TXH   ERROR
 00217                                 CLA   OLDNAM
 00220                                 SUB   FENCE
 00221                                 TNZ   (L022
 00222                                 TRA   PINPUT
 00223   (L022                         TSX   DSEEK,4
 00224                                 TXH   OLDNAM
 00225                                 TXH   CLASS
 00226                                 TXH   PINPUT
 00227                                 CAL   TRUE
 00230                                 SLW   OK
 00231                                 CLA   NEWNAM
 00232                                 SUB   FENCE
 00233                                 TZE   (L023
 00234                                 CLA   NEWNAM
 00235                                 STO   OLDNAM
         (L023
 00236   PEDIT                         TSX   RED,4
 00237                                 TSX   WRFLEX,4
 00240                                 TXH   EDWD
 00241                                 TXH   0
 00242   NEXT                          TSX   RDTYPE,4
 00243                                 TXH   EDLIN
 00244                                 TXH   COUNT
 00245                                 CLA   COUNT
 00246                                 TNZ   (L024
 00247                                 TRA   PINPUT
 00250   (L024                         CLA   0
1PAGE 4      COMPILATION LISTING


 00251                                 STO   EDCT
 00252                                 TSX   GET,4
 00253                                 STO   XXXCWD
 00254   (L025                         CLA   1
 00255                                 STO   I
 00256   (L026                         LXA   CCT,4
 00257                                 SXD   (L027,4
 00260                                 LXA   I,4
 00261   (L027                         TXH   (L030,4
 00262                                 LAC   I,1
 00263                                 CLA   XXXCWD
 00264                                 SUB   XXWORD,1
 00265                                 TZE   (L031
 00266                                 CLA   XXXCWD
 00267                                 SUB   XXXCWD,1
 00270                                 TNZ   (L032
 00271   (L031                         LAC   I,1
 00272                                 TRA   RQUEST,1
 00273   (L032                         LXA   I,4
 00274                                 TXI   *+1,4,1
 00275                                 SXA   I,4
 00276                                 TRA   (L026
 00277   (L030                         TSX   WRFLEX,4
 00300                                 TXH   )S015
 00301                                 TXH   0
 00302   PCARD                         TSX   BLACK,4
 00303                                 TSX   PRCARD,4
 00304                                 TXH   EDLIN
 00305                                 TXH   COUNT
 00306                                 TSX   RED,4
 00307                                 TRA   NEXT
 00310   PINPUT                        TSX   WRFLEX,4
 00311                                 TXH   INPWD
 00312                                 TXH   0
 00313                                 TSX   BLACK,4
 00314   INPUT                         TSX   RDTYPE,4
 00315                                 TXH   EDLIN
 00316                                 TXH   COUNT
 00317                                 CLA   COUNT
 00320                                 TNZ   (L033
 00321                                 TRA   PEDIT
 00322   (L033                         TSX   UNTAB,4
 00323                                 TXH   EDLIN
 00324                                 TZE   (L034
 00325                                 CAL   TRNCSW
 00326                                 TZE   (L034
 00327                                 TSX   RED,4
 00330                                 TSX   WRFLEX,4
 00331                                 TXH   )S016
 00332                                 TXH   0
 00333                                 TSX   PRCARD,4
1PAGE 5      COMPILATION LISTING


 00334                                 TXH   EDLIN
 00335                                 TXH   110
 00336                                 TSX   BLACK,4
 00337   (L034                         TSX   WRLINE,4
 00340                                 CLA   0
 00341                                 STO   LINENO
 00342   (L035                         CLA   1
 00343                                 STO   I
 00344                                 LXA   I,4
 00345   (L036                         TXH   (L037,4,110
 00346                                 LAC   I,1
 00347                                 CLA   EDLIN,1
 00350                                 STO   LINE,1
 00351                                 LXA   I,4
 00352                                 TXI   *+1,4,1
 00353                                 SXA   I,4
 00354                                 TRA   (L036
 00355   (L037                         CLA   EDLIN
 00356                                 STO   LENGTH
 00357                                 TRA   INPUT
 00360   OVRLAY                        TSX   MOVETO,4
 00361                                 TXH   TLIN
 00362   (L040                         CLA   1
 00363                                 STO   I
 00364   (L041                         LXA   TLIN,4
 00365                                 SXD   (L042,4
 00366                                 LXA   I,4
 00367   (L042                         TXH   (L043,4
 00370                                 LAC   I,1
 00371                                 CLA   TLIN,1
 00372                                 SUB   BLANK
 00373                                 TZE   (L044
 00374                                 CLA   TLIN,1
 00375                                 STO   LINE,1
 00376   (L044                         LXA   I,4
 00377                                 TXI   *+1,4,1
 00400                                 SXA   I,4
 00401                                 TRA   (L041
 00402   (L043                         CLA   TLIN
 00403                                 SUB   LENGTH
 00404                                 TMI   (L045
 00405                                 TZE   (L045
 00406                                 CLA   TLIN
 00407                                 STO   LENGTH
 00410   (L045                         TSX   VERPRN,4
 00411                                 TRA   NEXT
 00412   BLKOUT                        TSX   MOVETO,4
 00413                                 TXH   TLIN
 00414   (L046                         CLA   1
 00415                                 STO   I
 00416   (L047                         LXA   TLIN,4
1PAGE 6      COMPILATION LISTING


 00417                                 SXD   (L050,4
 00420                                 LXA   I,4
 00421   (L050                         TXH   (L051,4
 00422                                 LAC   I,1
 00423                                 CLA   TLIN,1
 00424                                 SUB   BLANK
 00425                                 TZE   (L052
 00426                                 CLA   BLANK
 00427                                 STO   LINE,1
 00430   (L052                         LXA   I,4
 00431                                 TXI   *+1,4,1
 00432                                 SXA   I,4
 00433                                 TRA   (L047
 00434   (L051                         TSX   VERPRN,4
 00435                                 TRA   NEXT
 00436   DELLIN                        TSX   NUM,4
 00437                                 STO   N
 00440                                 TNZ   (L053
 00441                                 CLA   1
 00442                                 STO   N
         (L053
 00443   (L054                         CLA   2
 00444                                 STO   I
 00445   (L055                         LXA   N,4
 00446                                 SXD   (L056,4
 00447                                 LXA   I,4
 00450   (L056                         TXH   (L057,4
 00451                                 CAL   OK
 00452                                 TNZ   (L060
 00453                                 TRA   EOF
 00454   (L060                         TSX   RDCARD,4
 00455                                 TXH   LINE
 00456                                 TXH   LENGTH
 00457                                 TXH   LINENO
 00460                                 TXH   EOF
 00461                                 LXA   I,4
 00462                                 TXI   *+1,4,1
 00463                                 SXA   I,4
 00464                                 TRA   (L055
 00465   (L057                         CLA   0
 00466                                 STO   LINENO
 00467                                 STO   LENGTH
 00470                                 TRA   NEXT
 00471   INSERT                        CLA   EDCT
 00472                                 SUB   COUNT
 00473                                 TZE   *+2
 00474                                 TMI   (L061
 00475                                 TRA   PINPUT
 00476   (L061                         TSX   WRLINE,4
 00477   RETYPE                        TSX   MOVETO,4
 00500                                 TXH   LINE
1PAGE 7      COMPILATION LISTING


 00501                                 CLA   LINE
 00502                                 STO   LENGTH
 00503                                 TRA   NEXT
 00504   NEXLIN                        TSX   NUM,4
 00505                                 STO   N
 00506                                 TNZ   (L062
 00507                                 CLA   1
 00510                                 STO   N
         (L062
 00511   (L063                         CLA   1
 00512                                 STO   I
 00513   (L064                         LXA   N,4
 00514                                 SXD   (L065,4
 00515                                 LXA   I,4
 00516   (L065                         TXH   (L066,4
 00517                                 TSX   WRLINE,4
 00520                                 CAL   OK
 00521                                 TNZ   (L067
 00522                                 TSX   CLOSE,4
 00523   (L067                         TSX   RDCARD,4
 00524                                 TXH   LINE
 00525                                 TXH   LENGTH
 00526                                 TXH   LINENO
 00527                                 TXH   EOF
 00530                                 LXA   I,4
 00531                                 TXI   *+1,4,1
 00532                                 SXA   I,4
 00533                                 TRA   (L064
 00534   (L066                         TSX   VERPRN,4
 00535                                 TRA   NEXT
 00536   FIND                          TSX   MOVETO,4
 00537                                 TXH   TLIN
 00540   FIND2                         TSX   WRLINE,4
 00541                                 CAL   OK
 00542                                 TNZ   (L070
 00543                                 TSX   CLOSE,4
 00544   (L070                         TSX   RDCARD,4
 00545                                 TXH   LINE
 00546                                 TXH   LENGTH
 00547                                 TXH   LINENO
 00550                                 TXH   EOF
 00551   (L071                         CLA   1
 00552                                 STO   I
 00553   (L072                         LXA   TLIN,4
 00554                                 SXD   (L073,4
 00555                                 LXA   I,4
 00556   (L073                         TXH   (L074,4
 00557                                 LAC   I,1
 00560                                 CLA   TLIN,1
 00561                                 SUB   BLANK
 00562                                 TZE   (L075
1PAGE 8      COMPILATION LISTING


 00563                                 CLA   TLIN,1
 00564                                 SUB   LINE,1
 00565                                 TZE   (L075
 00566                                 TRA   FIND2
 00567   (L075                         LXA   I,4
 00570                                 TXI   *+1,4,1
 00571                                 SXA   I,4
 00572                                 TRA   (L072
 00573   (L074                         TSX   VERPRN,4
 00574                                 TRA   NEXT
 00575   LOCATE                        TSX   WRLINE,4
 00576                                 CAL   OK
 00577                                 TNZ   (L076
 00600                                 TSX   CLOSE,4
 00601   (L076                         TSX   RDCARD,4
 00602                                 TXH   LINE
 00603                                 TXH   LENGTH
 00604                                 TXH   LINENO
 00605                                 TXH   EOF
 00606   (L077                         CLA   1
 00607                                 STO   I
 00610                                 LXA   I,4
 00611   (L100                         TXH   (L101,4,124
 00612                                 CLA   I
 00613                                 STO   J
 00614   (L102                         CLA   EDCT
 00615                                 ADD   1
 00616                                 STO   K
 00617   (L103                         LXA   COUNT,4
 00620                                 SXD   (L104,4
 00621                                 LXA   K,4
 00622   (L104                         TXH   (L105,4
 00623                                 CLA   J
 00624                                 SUB   124
 00625                                 TMI   (L106
 00626                                 TZE   (L106
 00627                                 TRA   LOCATE
 00630   (L106                         LAC   J,1
 00631                                 LAC   K,2
 00632                                 CLA   EDLIN,2
 00633                                 SUB   LINE,1
 00634                                 TZE   (L107
 00635                                 TRA   LOC2
 00636   (L107                         CLA   J
 00637                                 ADD   1
 00640                                 STO   J
 00641                                 LXA   K,4
 00642                                 TXI   *+1,4,1
 00643                                 SXA   K,4
 00644                                 TRA   (L103
 00645   (L105                         TSX   VERPRN,4
1PAGE 9      COMPILATION LISTING


 00646                                 TRA   NEXT
 00647   LOC2                          LXA   I,4
 00650                                 TXI   *+1,4,1
 00651                                 SXA   I,4
 00652                                 TRA   (L100
 00653   (L101                         TRA   LOCATE
 00654   XPRINT                        TSX   NUM,4
 00655                                 STO   N
 00656                                 TSX   BLACK,4
 00657                                 CLA   110
 00660                                 STO   PRC
 00661                                 TSX   GET,4
 00662                                 STO   OP
 00663                                 SUB   )S017
 00664                                 TZE   (L110
 00665                                 CLA   OP
 00666                                 SUB   )S020
 00667                                 TNZ   (L111
 00670   (L110                         CLA   120
 00671                                 STO   PRC
         (L111
 00672   PRINT1                        CLA   LENGTH
 00673                                 STO   PRCT
 00674                                 CLA   PRCT
 00675                                 SUB   PRC
 00676                                 TMI   (L112
 00677                                 TZE   (L112
 00700                                 CLA   PRC
 00701                                 STO   PRCT
 00702   (L112                         TSX   PRCARD,4
 00703                                 TXH   LINE
 00704                                 TXH   PRCT
 00705                                 CLA   N
 00706                                 SUB   1
 00707                                 STO   N
 00710                                 TZE   *+2
 00711                                 TPL   (L113
 00712                                 TRA   EPRINT
 00713   (L113                         TSX   WRLINE,4
 00714                                 CAL   OK
 00715                                 TNZ   (L114
 00716                                 TRA   EOF
 00717   (L114                         TSX   RDCARD,4
 00720                                 TXH   LINE
 00721                                 TXH   LENGTH
 00722                                 TXH   LINENO
 00723                                 TXH   EOF
 00724                                 TRA   PRINT1
 00725   EPRINT                        TSX   RED,4
 00726                                 TRA   NEXT
 00727   TOP                           TSX   WRLINE,4
1PAGE 10     COMPILATION LISTING


 00730                                 CAL   OK
 00731                                 TZE   (L115
 00732                                 TSX   RDCARD,4
 00733                                 TXH   LINE
 00734                                 TXH   LENGTH
 00735                                 TXH   LINENO
 00736                                 TXH   ENDTOP
 00737                                 TRA   TOP
         (L115
 00740   ENDTOP                        TSX   CLOSE,4
 00741                                 TRA   NEXT
 00742   BOTTOM                        TSX   WRLINE,4
 00743                                 CAL   OK
 00744                                 TZE   (L116
 00745                                 TSX   RDCARD,4
 00746                                 TXH   LINE
 00747                                 TXH   LENGTH
 00750                                 TXH   LINENO
 00751                                 TXH   ENDBOT
 00752                                 TRA   BOTTOM
         (L116
 00753   ENDBOT                        CLA   0
 00754                                 STO   LENGTH
 00755                                 CAL   FALSE
 00756                                 SLW   OK
 00757                                 TRA   PINPUT
 00760   CHANGE                        CLA   EDCT
 00761                                 ADD   1
 00762                                 STO   EDCT
 00763                                 STO   STR1
 00764                                 PAC   0,4
 00765                                 CLA   EDLIN,4
 00766                                 STO   Q
 00767                                 CLA   STR1
 00770                                 ADD   1
 00771                                 STO   STR1P1
 00772   (L117                         CLA   EDCT
 00773                                 ADD   1
 00774                                 STO   EDCT
 00775   (L120                         LAC   EDCT,1
 00776                                 CLA   EDLIN,1
 00777                                 SUB   Q
 01000                                 TZE   (L121
 01001                                 CLA   EDCT
 01002                                 SUB   COUNT
 01003                                 TZE   *+2
 01004                                 TPL   (L121
 01005                                 LXA   EDCT,4
 01006                                 TXI   *+1,4,1
 01007                                 SXA   EDCT,4
 01010                                 TRA   (L120
1PAGE 11     COMPILATION LISTING


 01011   (L121                         CLA   EDCT
 01012                                 STO   STR2
 01013                                 ADD   1
 01014                                 STO   STR2P1
 01015                                 SUB   2
 01016                                 STO   STR2M1
 01017                                 SUB   STR1
 01020                                 STO   STRDIF
 01021   (L122                         CLA   EDCT
 01022                                 ADD   1
 01023                                 STO   EDCT
 01024   (L123                         LAC   EDCT,1
 01025                                 CLA   EDLIN,1
 01026                                 SUB   Q
 01027                                 TZE   (L124
 01030                                 CLA   EDCT
 01031                                 SUB   COUNT
 01032                                 TZE   *+2
 01033                                 TPL   (L124
 01034                                 LXA   EDCT,4
 01035                                 TXI   *+1,4,1
 01036                                 SXA   EDCT,4
 01037                                 TRA   (L123
 01040   (L124                         CLA   EDCT
 01041                                 STO   ESTR
 01042                                 ADD   1
 01043                                 STO   EDCT
 01044                                 TSX   NUM,4
 01045                                 STO   N
 01046                                 TNZ   (L125
 01047                                 CLA   1
 01050                                 STO   N
 01051   (L125                         TSX   GET,4
 01052                                 STO   OP
 01053                                 SUB   )S021
 01054                                 TZE   (L126
 01055                                 CLA   OP
 01056                                 SUB   )S022
 01057                                 TNZ   (L127
 01060   (L126                         CAL   TRUE
 01061                                 TRA   *+2
 01062   (L127                         CAL   FALSE
 01063                                 SLW   GLOBAL
 01064   REPEAT                        CLA   LENGTH
 01065                                 TZE   *+2
 01066                                 TPL   (L130
 01067                                 TRA   ECHNG2
 01070   (L130                         CAL   FALSE
 01071                                 SLW   MODIFY
 01072                                 CLA   N
 01073                                 SUB   1
1PAGE 12     COMPILATION LISTING


 01074                                 TZE   *+2
 01075                                 TPL   (L131
 01076                                 CAL   TRUE
 01077                                 SLW   MODIFY
         (L131
 01100   (L132                         CLA   1
 01101                                 STO   I
 01102                                 LXA   I,4
 01103   (L133                         TXH   (L134,4,110
 01104                                 LAC   I,1
 01105                                 CLA   LINE,1
 01106                                 STO   TLIN,1
 01107                                 LXA   I,4
 01110                                 TXI   *+1,4,1
 01111                                 SXA   I,4
 01112                                 TRA   (L133
 01113   (L134                         CLA   1
 01114                                 STO   TLP
 01115                                 STO   LENGTH
         FNDSTR
 01116   (L135                         CLA   TLP
 01117                                 STO   TLP
 01120                                 LXA   TLP,4
 01121   (L136                         TXH   (L137,4,110
 01122                                 CLA   TLP
 01123                                 STO   J
 01124   (L140                         CLA   STR1P1
 01125                                 STO   I
 01126   (L141                         LXA   STR2M1,4
 01127                                 SXD   (L142,4
 01130                                 LXA   I,4
 01131   (L142                         TXH   (L143,4
 01132                                 LAC   J,1
 01133                                 LAC   I,2
 01134                                 CLA   EDLIN,2
 01135                                 SUB   TLIN,1
 01136                                 TNZ   (L144
 01137                                 CLA   J
 01140                                 SUB   110
 01141                                 TMI   (L145
 01142                                 TZE   (L145
 01143   (L144                         TRA   FNDS2
 01144   (L145                         CLA   J
 01145                                 ADD   1
 01146                                 STO   J
 01147                                 LXA   I,4
 01150                                 TXI   *+1,4,1
 01151                                 SXA   I,4
 01152                                 TRA   (L141
 01153   (L143                         TRA   FOUND
 01154   FNDS2                         LAC   LENGTH,1
1PAGE 13     COMPILATION LISTING


 01155                                 LAC   TLP,2
 01156                                 CLA   TLIN,2
 01157                                 STO   LINE,1
 01160                                 CLA   LENGTH
 01161                                 SUB   110
 01162                                 TMI   (L146
 01163                                 TZE   (L146
 01164                                 TRA   ECHNG
 01165   (L146                         CLA   LENGTH
 01166                                 ADD   1
 01167                                 STO   LENGTH
 01170                                 LXA   TLP,4
 01171                                 TXI   *+1,4,1
 01172                                 SXA   TLP,4
 01173                                 TRA   (L136
 01174   (L137                         LAC   LENGTH,1
 01175                                 CLA   BLANK
 01176                                 STO   LINE,1
 01177                                 TRA   ECHNG
 01200   FOUND                         CLA   TLP
 01201                                 ADD   STRDIF
 01202                                 STO   TLP
 01203                                 CAL   TRUE
 01204                                 SLW   MODIFY
 01205   (L147                         CLA   STR2P1
 01206                                 STO   I
 01207   (L150                         CLA   I
 01210                                 SUB   ESTR
 01211                                 TZE   (L151
 01212                                 TPL   (L151
 01213                                 LAC   LENGTH,1
 01214                                 LAC   I,2
 01215                                 CLA   EDLIN,2
 01216                                 STO   LINE,1
 01217                                 CLA   LENGTH
 01220                                 SUB   110
 01221                                 TZE   *+2
 01222                                 TMI   (L152
 01223                                 TRA   ECHNG
 01224   (L152                         CLA   LENGTH
 01225                                 ADD   1
 01226                                 STO   LENGTH
 01227                                 LXA   I,4
 01230                                 TXI   *+1,4,1
 01231                                 SXA   I,4
 01232                                 TRA   (L150
 01233   (L151                         CAL   GLOBAL
 01234                                 TZE   (L153
 01235                                 TRA   FNDSTR
         (L153
 01236   (L154                         CLA   TLP
1PAGE 14     COMPILATION LISTING


 01237                                 STO   TLP
 01240                                 LXA   TLP,4
 01241   (L155                         TXH   (L156,4,110
 01242                                 LAC   LENGTH,1
 01243                                 LAC   TLP,2
 01244                                 CLA   TLIN,2
 01245                                 STO   LINE,1
 01246                                 CLA   LENGTH
 01247                                 SUB   110
 01250                                 TZE   *+2
 01251                                 TMI   (L157
 01252                                 TRA   ECHNG
 01253   (L157                         CLA   LENGTH
 01254                                 ADD   1
 01255                                 STO   LENGTH
 01256                                 LXA   TLP,4
 01257                                 TXI   *+1,4,1
 01260                                 SXA   TLP,4
 01261                                 TRA   (L155
 01262   (L156                         LAC   LENGTH,1
 01263                                 CLA   BLANK
 01264                                 STO   LINE,1
         ECHNG
 01265   (L160                         CLA   LENGTH
 01266                                 ADD   1
 01267                                 STO   LENGTH
 01270                                 LXA   LENGTH,4
 01271   (L161                         TXH   (L162,4,124
 01272                                 LAC   LENGTH,1
 01273                                 CLA   BLANK
 01274                                 STO   LINE,1
 01275                                 LXA   LENGTH,4
 01276                                 TXI   *+1,4,1
 01277                                 SXA   LENGTH,4
 01300                                 TRA   (L161
 01301   (L162                         CLA   124
 01302                                 STO   LENGTH
 01303                                 CAL   MODIFY
 01304                                 TZE   (L163
 01305                                 TSX   VERPRN,4
         (L163
 01306   ECHNG2                        CLA   N
 01307                                 SUB   1
 01310                                 STO   N
 01311                                 TZE   *+2
 01312                                 TPL   (L164
 01313                                 TRA   NEXT
 01314   (L164                         TSX   WRLINE,4
 01315                                 CAL   OK
 01316                                 TNZ   (L165
 01317                                 TRA   EOF
1PAGE 15     COMPILATION LISTING


 01320   (L165                         TSX   RDCARD,4
 01321                                 TXH   LINE
 01322                                 TXH   LENGTH
 01323                                 TXH   LINENO
 01324                                 TXH   EOF
 01325                                 TRA   REPEAT
 01326   SERIAL                        TSX   NUM,4
 01327                                 STO   LINCR
 01330                                 TNZ   (L166
 01331                                 CLA   12
 01332                                 STO   LINCR
 01333   (L166                         TRA   NEXT
 01334   TABSET                        CLA   0
 01335                                 STO   TLIN
 01336   (L167                         CLA   1
 01337                                 STO   I
 01340                                 LXA   I,4
 01341   (L170                         TXH   (L171,4,36
 01342                                 TSX   NUM,4
 01343                                 STO   TLINI
 01344                                 LAC   I,1
 01345                                 STO   TLIN,1
 01346                                 TNZ   (L172
 01347                                 TSX   SETTAB,4
 01350                                 TXH   TLIN
 01351                                 TRA   NEXT
 01352   (L172                         CLA   I
 01353                                 SUB   1
 01354                                 TMI   (L173
 01355                                 TZE   (L173
 01356                                 CLA   I
 01357                                 SUB   1
 01360                                 PAC   0,4
 01361                                 CLA   TLINI
 01362                                 SUB   TLIN,4
 01363                                 TMI   (L174
 01364                                 TZE   (L174
 01365   (L173                         CLA   TLINI
 01366                                 SUB   124
 01367                                 TMI   (L175
 01370                                 TZE   (L175
         (L174
 01371   TABERR                        TSX   WRFLEX,4
 01372                                 TXH   )S023
 01373                                 TXH   0
 01374                                 TRA   PCARD
 01375   (L175                         CLA   I
 01376                                 STO   TLIN
 01377                                 LXA   I,4
 01400                                 TXI   *+1,4,1
 01401                                 SXA   I,4
1PAGE 16     COMPILATION LISTING


 01402                                 TRA   (L170
 01403   (L171                         TRA   TABERR
 01404   VERIFY                        CAL   TRUE
 01405                                 SLW   VERMOD
 01406                                 CLA   )S001
 01407                                 STO   EDWD
 01410                                 CLA   )S002
 01411                                 STO   INPWD
 01412                                 TRA   NEXT
 01413   BRIEF                         CAL   FALSE
 01414                                 SLW   VERMOD
 01415                                 CLA   )S024
 01416                                 STO   EDWD
 01417                                 CLA   )S025
 01420                                 STO   INPWD
 01421                                 TRA   NEXT
 01422   COLON                         TSX   GET,4
 01423                                 STO   OP
 01424                                 SUB   )S026
 01425                                 TZE   (L176
 01426                                 CLA   OP
 01427                                 SUB   )S027
 01430                                 TNZ   (L177
 01431   (L176                         TSX   SETCOL,4
 01432                                 TXH   0
 01433                                 TRA   (L200
 01434   (L177                         CLA   OP
 01435                                 SUB   )S030
 01436                                 TZE   (L201
 01437                                 CLA   OP
 01440                                 SUB   )S031
 01441                                 TNZ   (L202
 01442   (L201                         TSX   SETCOL,4
 01443                                 TXH   1
 01444                                 TRA   (L203
 01445   (L202                         TSX   WRFLEX,4
 01446                                 TXH   )S032
 01447                                 TXH   0
 01450                                 TRA   PCARD
         (L203
 01451   (L200                         TRA   NEXT
 01452   CLIP                          TSX   GET,4
 01453                                 STO   OP
 01454                                 SUB   )S033
 01455                                 TNZ   (L204
 01456                                 CAL   TRUE
 01457                                 SLW   TRNCSW
 01460                                 TRA   (L205
 01461   (L204                         CLA   OP
 01462                                 SUB   )S034
 01463                                 TNZ   (L206
1PAGE 17     COMPILATION LISTING


 01464                                 CAL   FALSE
 01465                                 SLW   TRNCSW
 01466                                 TRA   (L207
 01467   (L206                         TSX   WRFLEX,4
 01470                                 TXH   )S035
 01471                                 TXH   0
 01472                                 TRA   PCARD
         (L207
 01473   (L205                         TRA   NEXT
         KILL
         MERGE
         APPEND
         WRITE
 01474   NULL                          TSX   WRFLEX,4
 01475                                 TXH   )S036
 01476                                 TXH   0
 01477                                 TRA   PCARD
 01500   FILE                          TSX   GET,4
 01501                                 STO   PRINAM
 01502                                 SUB   BLANKS
 01503                                 TNZ   (L210
 01504                                 CLA   OLDNAM
 01505                                 STO   PRINAM
 01506                                 SUB   FENCE
 01507                                 TNZ   (L211
 01510                                 TSX   SETBCD,4
 01511                                 TSX   WRFLEX,4
 01512                                 TXH   )S037
 01513                                 TXH   0
 01514                                 TRA   NEXT
         (L211
         (L210
 01515   FILE1                         TSX   WRLINE,4
 01516                                 CAL   OK
 01517                                 TZE   (L212
 01520                                 TSX   RDCARD,4
 01521                                 TXH   LINE
 01522                                 TXH   LENGTH
 01523                                 TXH   LINENO
 01524                                 TXH   XEND
 01525                                 TRA   FILE1
         (L212
 01526   XEND                          TSX   DFILE,4
 01527                                 TXH   NOFILE
 01530                                 TSX   RENAME,4
 01531                                 TXH   ENAME
 01532                                 TXH   TCLASS
 01533                                 TXH   PRINAM
 01534                                 TXH   CLASS
 01535                                 TXH   NODEL
 01536   L3                            CLS   0
1PAGE 18     COMPILATION LISTING


 01537                                 STO   (C002
 01540                                 CLS   0
 01541                                 STO   (C003
 01542                                 TSX   CHFILE,4
 01543                                 TXH   TNAME
 01544                                 TXH   TCLASS
 01545                                 TXH   1
 01546                                 TXH   (C002
 01547                                 TXH   (C003
 01550                                 TXH   L4
 01551                                 TSX   DELETE,4
 01552                                 TXH   TNAME
 01553                                 TXH   TCLASS
 01554                                 TXH   0
 01555                                 TXH   L4
 01556   L4                            TSX   UPDATE,4
 01557   ERROR                         TSX   BLACK,4
 01560                                 TSX   WRFLEX,4
 01561                                 TXH   STAR
 01562                                 TXH   1
 01563                                 TSX   CHNCOM,4
 01564                                 TXH   0
 01565   NODEL                         TSX   FLIP,4
 01566                                 TRA   PEDIT
 01567   QUIT                          TSX   RESET,4
 01570                                 CLS   0
 01571                                 STO   (C002
 01572                                 CLS   0
 01573                                 STO   (C003
 01574                                 TSX   CHFILE,4
 01575                                 TXH   ENAME
 01576                                 TXH   TCLASS
 01577                                 TXH   1
 01600                                 TXH   (C002
 01601                                 TXH   (C003
 01602                                 TXH   L3
 01603                                 TSX   DELETE,4
 01604                                 TXH   ENAME
 01605                                 TXH   TCLASS
 01606                                 TXH   0
 01607                                 TXH   L3
 01610                                 TRA   L3
 01611   EOF                           TSX   RED,4
 01612                                 TSX   WRFLEX,4
 01613                                 TXH   )S040
 01614                                 TXH   0
 01615                                 CLA   0
 01616                                 STO   LENGTH
 01617                                 CAL   FALSE
 01620                                 SLW   OK
 01621                                 TRA   PCARD
1PAGE 19     COMPILATION LISTING


 01622   NOFILE                        TSX   WRFLEX,4
 01623                                 TXH   )S041
 01624                                 TXH   0
 01625                                 CAL   FALSE
 01626                                 SLW   OK
 01627                                 CLA   0
 01630                                 STO   HILINE
 01631                                 STO   LINENO
 01632                                 STO   LENGTH
 01633                                 TSX   DASIGN,4
 01634                                 TXH   ENAME
 01635                                 TXH   TCLASS
 01636                                 TXH   ERROR
 01637                                 TRA   PINPUT
 01640                                 TRA   (L213
 01641   CLOSE                         TRA   (L214
 01642   (L215                         TSX   DFILE,4
 01643                                 TXH   NOFILE
 01644                                 TSX   FLIP,4
 01645   RETURN                        AXT   **,4
 01646                                 TRA   1,4
 01647   (L214                         SXA   RETURN,4
 01650                                 TRA   (L215
 01651   (L213                         TRA   (L216
 01652   FLIP                          TRA   (L217
 01653   (L220                         CLS   0
 01654                                 STO   (C011
 01655                                 CLS   0
 01656                                 STO   (C012
 01657                                 TSX   CHFILE,4
 01660                                 TXH   TNAME
 01661                                 TXH   TCLASS
 01662                                 TXH   1
 01663                                 TXH   (C011
 01664                                 TXH   (C012
 01665                                 TXH   IGNERR
 01666   IGNERR                        TSX   DELETE,4
 01667                                 TXH   TNAME
 01670                                 TXH   TCLASS
 01671                                 TXH   0
 01672                                 TXH   ERROR
 01673                                 TSX   CHFILE,4
 01674                                 TXH   ENAME
 01675                                 TXH   TCLASS
 01676                                 TXH   20
 01677                                 TXH   TNAME
 01700                                 TXH   TCLASS
 01701                                 TXH   ERROR
 01702                                 TSX   UPDATE,4
 01703                                 TSX   DSEEK,4
 01704                                 TXH   TNAME
1PAGE 20     COMPILATION LISTING


 01705                                 TXH   TCLASS
 01706                                 TXH   NOFILE
 01707                                 CAL   TRUE
 01710                                 SLW   OK
 01711                                 TSX   DASIGN,4
 01712                                 TXH   ENAME
 01713                                 TXH   TCLASS
 01714                                 TXH   ERROR
 01715                                 CLA   0
 01716                                 STO   HILINE
 01717                                 STO   LINENO
 01720                                 STO   LENGTH
 01721   RETURN                        AXT   **,4
 01722                                 TRA   1,4
 01723   (L217                         SXA   RETURN,4
 01724                                 TRA   (L220
 01725   (L216                         TRA   (L221
 01726   WRLINE                        TRA   (L222
 01727   (L223                         CLA   LENGTH
 01730                                 TZE   (L224
 01731                                 CLA   LINENO
 01732                                 SUB   HILINE
 01733                                 TZE   *+2
 01734                                 TPL   (L225
 01735                                 CLA   HILINE
 01736                                 ADD   LINCR
 01737                                 STO   LINENO
 01740   (L225                         TSX   WRCARD,4
 01741                                 TXH   LINE
 01742                                 TXH   LENGTH
 01743                                 TXH   LINENO
 01744                                 TXH   ERROR
 01745                                 CLA   LINENO
 01746                                 SUB   HILINE
 01747                                 TMI   (L226
 01750                                 TZE   (L226
 01751                                 CLA   LINENO
 01752                                 STO   HILINE
         (L226
         (L224
 01753   RETURN                        AXT   **,4
 01754                                 TRA   1,4
 01755   (L222                         SXA   RETURN,4
 01756                                 TRA   (L223
 01757   (L221                         TRA   (L227
 01760   VERPRN                        TRA   (L230
 01761   (L231                         CAL   VERMOD
 01762                                 TZE   (L232
 01763                                 TSX   BLACK,4
 01764                                 TSX   PRCARD,4
 01765                                 TXH   LINE
1PAGE 21     COMPILATION LISTING


 01766                                 TXH   110
 01767                                 TSX   RED,4
         (L232
 01770   RETURN                        AXT   **,4
 01771                                 TRA   1,4
 01772   (L230                         SXA   RETURN,4
 01773                                 TRA   (L231
 01774   (L227                         TRA   (L233
 01775   GET                           TRA   (L234
 01776   (L235                         CLA   EDCT
 01777                                 STO   SAVCT
 02000                                 CAL   TRUE
 02001                                 SLW   NDCHAR
 02002                                 CLA   BLANKS
 02003                                 STO   XXWORD
 02004   (L236                         CLA   EDCT
 02005                                 ADD   1
 02006                                 STO   EDCT
 02007                                 CAL   NDCHAR
 02010                                 TNZ   (L237
 02011                                 LAC   EDCT,1
 02012                                 CLA   EDLIN,1
 02013                                 SUB   BLANK
 02014                                 TZE   (L240
 02015                                 CLA   EDLIN,1
 02016                                 SUB   TAB
 02017                                 TZE   (L240
 02020   (L237                         CLA   EDCT
 02021                                 SUB   COUNT
 02022                                 TZE   *+2
 02023                                 TPL   (L240
 02024                                 LAC   EDCT,1
 02025                                 CLA   EDLIN,1
 02026                                 SUB   TAB
 02027                                 TZE   (L241
 02030                                 CLA   EDLIN,1
 02031                                 SUB   BLANK
 02032                                 TZE   (L241
 02033                                 TSX   LS,4
 02034                                 TXH   XXWORD
 02035                                 TXH   6
 02036                                 LAC   EDCT,1
 02037                                 ORA   EDLIN,1
 02040                                 STO   XXWORD
 02041                                 CAL   FALSE
 02042                                 SLW   NDCHAR
 02043   (L241                         TRA   (L236
 02044   (L240                         CLA   XXWORD
 02045                                 STO   XXWORD
 02046   RETURN                        AXT   **,4
 02047                                 TRA   1,4
1PAGE 22     COMPILATION LISTING


 02050   (L234                         SXA   RETURN,4
 02051                                 TRA   (L235
 02052   (L233                         TRA   (L242
 02053   NUM                           TRA   (L243
 02054   (L244                         CLA   EDCT
 02055                                 STO   SAVCT
 02056                                 CAL   TRUE
 02057                                 SLW   NDCHAR
 02060                                 CLA   0
 02061                                 STO   XXWORD
 02062   (L245                         CLA   EDCT
 02063                                 ADD   1
 02064                                 STO   EDCT
 02065                                 CAL   NDCHAR
 02066                                 TNZ   (L246
 02067                                 LAC   EDCT,1
 02070                                 CLA   EDLIN,1
 02071                                 SUB   BLANK
 02072                                 TZE   (L247
 02073                                 CLA   EDLIN,1
 02074                                 SUB   TAB
 02075                                 TZE   (L247
 02076   (L246                         CLA   EDCT
 02077                                 SUB   COUNT
 02100                                 TZE   *+2
 02101                                 TPL   (L247
 02102                                 LAC   EDCT,1
 02103                                 CLA   EDLIN,1
 02104                                 SUB   12
 02105                                 TZE   (L250
 02106                                 TPL   (L250
 02107                                 LDQ   XXWORD
 02110                                 MPY   12
 02111                                 XCA
 02112                                 ADD   EDLIN,1
 02113                                 STO   XXWORD
 02114                                 CAL   FALSE
 02115                                 SLW   NDCHAR
 02116   (L250                         TRA   (L245
 02117   (L247                         CLA   XXWORD
 02120                                 STO   XXWORD
 02121   RETURN                        AXT   **,4
 02122                                 TRA   1,4
 02123   (L243                         SXA   RETURN,4
 02124                                 TRA   (L244
 02125   (L242                         TRA   (L251
 02126   MOVETO                        TRA   (L252
 02127   (L253                         LAC   EDCT,1
 02130                                 CLA   EDLIN,1
 02131                                 SUB   BLANK
 02132                                 TZE   (L254
1PAGE 23     COMPILATION LISTING


 02133                                 CLA   EDCT
 02134                                 SUB   1
 02135                                 STO   EDCT
 02136   (L254                         CLA   0
 02137                                 STO   I
 02140   (L255                         CLA   I
 02141                                 ADD   1
 02142                                 STO   I
 02143                                 CLA   I
 02144                                 SUB   124
 02145                                 TZE   *+2
 02146                                 TPL   (L256
 02147                                 CLA   EDCT
 02150                                 SUB   124
 02151                                 TZE   (L256
 02152                                 TPL   (L256
 02153                                 CLA   EDCT
 02154                                 ADD   1
 02155                                 STO   EDCT
 02156                                 LAC   I,1
 02157                                 PAC   0,4
 02160                                 CLA   EDLIN,4
 02161                                 STO   LIN,1
 02162                                 TRA   (L255
 02163   (L256                         TSX   UNTAB,4
 02164                                 TXH   LIN
 02165                                 TZE   (L257
 02166                                 CAL   TRNCSW
 02167                                 TZE   (L257
 02170                                 TSX   BLACK,4
 02171                                 TSX   WRFLEX,4
 02172                                 TXH   )S016
 02173                                 TXH   0
 02174                                 TSX   PRCARD,4
 02175                                 TXH   LIN
 02176                                 TXH   110
 02177                                 TSX   RED,4
         (L257
 02200   RETURN                        AXT   **,4
 02201                                 TRA   1,4
 02202   (L252                         SXA   RETURN,4
 02203                                 CLA   1,4
 02204                                 STA   2161
 02205                                 STA   2164
 02206                                 STA   2175
 02207                                 TRA   (L253
           BEGIN                                                            00010___
       COMMENT ..... GENERAL ROUTINE TO INTERPRET TABS ..... $,             00020___
           INTEGER ARRAY TABS(30),TCARD(84) $,                              00030___
           INTEGER I,COL,TAB $,                                             00040___
           BOOLEAN PRVTB,THSTB,COLVAL,VAL $,                                00050___
           PRESET TABS = 0 $,                                               00060___
           PRESET COLVAL = 1B $,                                            00070___
       COMMENT ..... ENTRY TO SET UP TAB SETTINGS ..... $,                  00080___
                                                                            00090___
           DEFINE PROCEDURE SETTAB(CARD) WHERE INTEGER ARRAY CARD TOBE      00100___
                BEGIN                                                       00110___
                FOR I = 0 STEP 1 UNTIL CARD                                 00120___
                DO TABS(I) = CARD(I) $,                                     00130___
                END $,                                                      00140___
                                                                            00150___
       COMMENT .... ENTRY TO SET INTERPRETATION OF COLON CHAR. ... $,       00160___
                                                                            00170___
           DEFINE PROCEDURE SETCOL(WORD) WHERE BOOLEAN WORD TOBE            00180___
                COLVAL = WORD $,                                            00190___
                                                                            00200___
       COMMENT ..... ENTRY TO UNPACK CARD WITH TABS ..... $,                00210___
                                                                            00220___
           DEFINE BOOLEAN PROCEDURE UNTAB(CARD) WHERE INTEGER ARRAY CARD    00230___
            TOBE                                                            00240___
                BEGIN                                                       00250___
                FOR I = 1 STEP 1 UNTIL 84                                   00260___
                DO   BEGIN                                                  00270___
                     TCARD(I) = CARD(I) $,                                  00280___
                     CARD(I) = .BCD. '00000 ' $,                            00290___
                     END $,                                                 00300___
                CARD = COL = TAB = 1 $,                                     00310___
                PRVTB = COLVAL $,                                           00320___
                FOR I = 1 STEP 1 UNTIL 84                                   00330___
                DO   BEGIN                                                  00340___
                     IF (TCARD = TCARD(I)) EQL 55C                          00350___
                     THEN BEGIN                                             00360___
                          VAL = FALSE $,                                    00370___
                          GOTO RETURN $,                                    00380___
                          END $,                                            00390___
                     IF COL GRT 72                                          00400___
                     THEN BEGIN                                             00410___
                          IF TCARD NEQ 60C                                  00420___
                          THEN BEGIN                                        00430___
                               VAL = TRUE $,                                00440___
                               GOTO RETURN $,                               00450___
                               END $,                                       00460___
                          END                                               00470___
                     ELSE BEGIN                                             00480___
                          THSTB = COLVAL $,                                 00490___
                          IF TCARD EQL 72C                                  00500___
                          THEN BEGIN                                        00510___
                               THSTB = TRUE $,                              00520___
 TABSET $                      IF TAB GRT TABS                              00530___
                               THEN COL = COL+2                             00540___
                               ELSE IF TABS(TAB) LEQ COL                    00550___
                                    THEN BEGIN                              00560___
                                         TAB = TAB+1 $,                     00570___
                                         GOTO TABSET $,                     00580___
                                         END                                00590___
                                    ELSE COL = TABS(TAB) $,                 00600___
                               END                                          00610___
                          ELSE IF PRVTB AND TCARD EQL 35C                   00620___
                               THEN BEGIN                                   00630___
                                    IF COL GRT 1                            00640___
                                    THEN BEGIN                              00650___
                                         COL = COL-1 $,                     00660___
 UNSET $                                 IF TAB GRT 1 AND TABS(TAB) GRT     00670___
                                          COL                               00680___
                                         THEN BEGIN                         00690___
                                              TAB = TAB-1 $,                00700___
                                              GOTO UNSET $,                 00710___
                                              END $,                        00720___
                                         END $,                             00730___
                                    END                                     00740___
                               ELSE BEGIN                                   00750___
                                    IF (CARD(COL) = TCARD) NEQ .BCD. '000   00760___
 00 ' AND COL GRT CARD              THEN CARD = COL $,                      00770___
                                    COL = COL+1 $,                          00780___
                                    END $,                                  00790___
                          PRVTB = THSTB $,                                  00800___
                          END $,                                            00810___
                     END $,                                                 00820___
                VAL = FALSE $,                                              00830___
                END $,                                                      00840___
                                                                            00850___
           END FINI                                                         00860___
1PAGE 1      COMPILATION LISTING


 00001   SETTAB                        TRA   (L000
         (L001
 00002   (L002                         CLA   0
 00003                                 STO   I
 00004   (L003                         LXA   CARD,4
 00005                                 SXD   (L004,4
 00006                                 LXA   I,4
 00007   (L004                         TXH   (L005,4
 00010                                 LAC   I,1
 00011                                 CLA   CARD,1
 00012                                 STO   TABS,1
 00013                                 LXA   I,4
 00014                                 TXI   *+1,4,1
 00015                                 SXA   I,4
 00016                                 TRA   (L003
         (L005
 00017   RETURN                        AXT   **,4
 00020                                 TRA   1,4
 00021   (L000                         SXA   RETURN,4
 00022                                 CLA   1,4
 00023                                 STA   4
 00024                                 STA   11
 00025                                 TRA   (L001
 00026   SETCOL                        TRA   (L006
 00027   (L007                         CAL   WORD
 00030                                 SLW   COLVAL
 00031   RETURN                        AXT   **,4
 00032                                 TRA   1,4
 00033   (L006                         SXA   RETURN,4
 00034                                 CLA   1,4
 00035                                 STA   27
 00036                                 TRA   (L007
 00037   UNTAB                         TRA   (L010
         (L011
 00040   (L012                         CLA   1
 00041                                 STO   I
 00042                                 LXA   I,4
 00043   (L013                         TXH   (L014,4,124
 00044                                 LAC   I,1
 00045                                 CLA   CARD,1
 00046                                 STO   TCARD,1
 00047                                 CLA   )S001
 00050                                 STO   CARD,1
 00051                                 LXA   I,4
 00052                                 TXI   *+1,4,1
 00053                                 SXA   I,4
 00054                                 TRA   (L013
 00055   (L014                         CLA   1
 00056                                 STO   TAB
 00057                                 STO   COL
 00060                                 STO   CARD
1PAGE 2      COMPILATION LISTING


 00061                                 CAL   COLVAL
 00062                                 SLW   PRVTB
 00063   (L015                         CLA   1
 00064                                 STO   I
 00065                                 LXA   I,4
 00066   (L016                         TXH   (L017,4,124
 00067                                 LAC   I,1
 00070                                 CLA   TCARD,1
 00071                                 STO   TCARD
 00072                                 SUB   55
 00073                                 TNZ   (L020
 00074                                 CAL   FALSE
 00075                                 SLW   VAL
 00076                                 TRA   RETURN
 00077   (L020                         CLA   COL
 00100                                 SUB   110
 00101                                 TMI   (L021
 00102                                 TZE   (L021
 00103                                 CLA   TCARD
 00104                                 SUB   60
 00105                                 TZE   (L022
 00106                                 CAL   TRUE
 00107                                 SLW   VAL
 00110                                 TRA   RETURN
 00111   (L022                         TRA   (L023
 00112   (L021                         CAL   COLVAL
 00113                                 SLW   THSTB
 00114                                 CLA   TCARD
 00115                                 SUB   72
 00116                                 TNZ   (L024
 00117                                 CAL   TRUE
 00120                                 SLW   THSTB
 00121   TABSET                        CLA   TAB
 00122                                 SUB   TABS
 00123                                 TMI   (L025
 00124                                 TZE   (L025
 00125                                 CLA   COL
 00126                                 ADD   2
 00127                                 STO   COL
 00130                                 TRA   (L026
 00131   (L025                         LAC   TAB,1
 00132                                 CLA   TABS,1
 00133                                 SUB   COL
 00134                                 TZE   *+2
 00135                                 TPL   (L027
 00136                                 CLA   TAB
 00137                                 ADD   1
 00140                                 STO   TAB
 00141                                 TRA   TABSET
 00142                                 TRA   (L030
 00143   (L027                         LAC   TAB,1
1PAGE 3      COMPILATION LISTING


 00144                                 CLA   TABS,1
 00145                                 STO   COL
         (L030
 00146   (L026                         TRA   (L031
 00147   (L024                         CAL   PRVTB
 00150                                 TZE   (L032
 00151                                 CLA   TCARD
 00152                                 SUB   35
 00153                                 TNZ   (L032
 00154                                 CLA   COL
 00155                                 SUB   1
 00156                                 TMI   (L033
 00157                                 TZE   (L033
 00160                                 CLA   COL
 00161                                 SUB   1
 00162                                 STO   COL
 00163   UNSET                         CLA   TAB
 00164                                 SUB   1
 00165                                 TMI   (L034
 00166                                 TZE   (L034
 00167                                 LAC   TAB,1
 00170                                 CLA   TABS,1
 00171                                 SUB   COL
 00172                                 TMI   (L034
 00173                                 TZE   (L034
 00174                                 CLA   TAB
 00175                                 SUB   1
 00176                                 STO   TAB
 00177                                 TRA   UNSET
         (L034
 00200   (L033                         TRA   (L035
 00201   (L032                         LAC   COL,1
 00202                                 CLA   TCARD
 00203                                 STO   CARD,1
 00204                                 SUB   )S001
 00205                                 TZE   (L036
 00206                                 CLA   COL
 00207                                 SUB   CARD
 00210                                 TMI   (L036
 00211                                 TZE   (L036
 00212                                 CLA   COL
 00213                                 STO   CARD
 00214   (L036                         CLA   COL
 00215                                 ADD   1
 00216                                 STO   COL
         (L035
 00217   (L031                         CAL   THSTB
 00220                                 SLW   PRVTB
 00221   (L023                         LXA   I,4
 00222                                 TXI   *+1,4,1
 00223                                 SXA   I,4
1PAGE 4      COMPILATION LISTING


 00224                                 TRA   (L016
 00225   (L017                         CAL   FALSE
 00226                                 SLW   VAL
 00227   RETURN                        AXT   **,4
 00230                                 TRA   1,4
 00231   (L010                         SXA   RETURN,4
 00232                                 CLA   1,4
 00233                                 STA   45
 00234                                 STA   50
 00235                                 STA   60
 00236                                 STA   203
 00237                                 STA   207
 00240                                 STA   213
 00241                                 TRA   (L011
1                                                                                                PAGE 1
                           NCLIB --- SUBROUTINE ENTRIES TO AVOID LOADING LIBRARY


                                     PCC     ON
                                     PMC     ON

                       00002         ENTRY   CHNCOM        EXIT TO CTSS
                       00031         ENTRY   COMARG        GET PARAMETER FROM COMMAND LIST
                       00007         ENTRY   SETBCD        SET CONSOLE IN 6-BIT MODE
                       00010         ENTRY   SETFUL        SET CONSOLE IN 12-BIT MODE
                       00011         ENTRY   SETBRK        SET CONSOLE INTERRUPT PROCEDURE
                       00012         ENTRY   WHOAMI        DETERMINE THE USER
                       00013         ENTRY   RED           CHANGE CONSOLE TO RED
                       00022         ENTRY   BLACK         CHANGE CONSOLE TO BLACK

                              TSSX   MACRO   A             CALL CORE A
                                     AXC     *+1,4         .
                                     TIA     =H'A          ..
                              TSSX   END                   ..


            LINKAGE DIRECTOR
      00000  000000000000
      00001  233045234644

      00002 -0500 60 4 00001  EXIT   CAL*    1,4           EXIT TO CTSS
      00003  0621 00 0 00006         STA     CHNARG
      00004 -0774 00 4 00005         AXC     *+1,4         EXIT TO NEXT COMMAND
      00005  0101 00 0 00045         TIA     =HCHNCOM      .. OR GO DEAD OR DORMANT
      00006  0 00000 0 00000  CHNARG PZE     **            ..

                       00002  CHNCOM SYN     EXIT          CHNCOM SAME AS EXIT

      00007  0101 00 0 00047  SETBCD TIA     =HSETBCD      SET CONSOLE IN 6-BIT MODE

      00010  0101 00 0 00051  SETFUL TIA     =HSETFUL      SET CONSOLE IN 12-BIT MODE

      00011  0101 00 0 00050  SETBRK TIA     =HSETBRK      SET CONSOLE INTERRUPT PROCEDURE

      00012  0101 00 0 00052  WHOAMI TIA     =HWHOAMI      DETERMINE THE USER

      00013  0634 00 4 00041  RED    SXA     X4,4          COLOR SHIFT TO RED
      00014  0074 00 4 00010         TSX     SETFUL,4      SET CONSOLE IN 12-BIT MODE
      00015                          TSSX    WRFLXA        GIVE RED COLOR SHIFT
      00015 -0774 00 4 00016         AXC     *+1,4                                                            .001
      00016  0101 00 0 00053         TIA     =HWRFLXA          ..                                             .001
      00017  0 00001 0 00043                 REDS,,1       ..
      00020  0074 00 4 00007         TSX     SETBCD,4      RETURN CONSOLE TO 6-BIT MODE
      00021  0020 00 0 00041         TRA     X4            RETURN

      00022  0634 00 4 00041  BLACK  SXA     X4,4          COLOR SHIFT TO BLACK
      00023  0074 00 4 00010         TSX     SETFUL,4      SET CONSOLE IN 12-BIT MODE
      00024                          TSSX    WRFLXA        GIVE BLACK COLOR SHIFT
      00024 -0774 00 4 00025         AXC     *+1,4                                                            .001
      00025  0101 00 0 00053         TIA     =HWRFLXA          ..                                             .001
      00026  0 00001 0 00044                 BLACKS,,1     ..
1                                                                                                PAGE 2
                           NCLIB --- SUBROUTINE ENTRIES TO AVOID LOADING LIBRARY

      00027  0074 00 4 00007         TSX     SETBCD,4      RETURN CONSOLE TO 6-BIT MODE
      00030  0020 00 0 00041         TRA     X4            RETURN

      00031  0634 00 4 00041  COMARG SXA     X4,4          GET PARAMETER FROM COMMAND LIST
      00032 -0500 60 4 00001         CAL*    1,4           NUMBER OF DESIRED PARAMETER
      00033  0602 00 0 00036         SLW     CARGNO        ..
      00034                          TSSX    GETCOM        PICK UP ARGUMENT
      00034 -0774 00 4 00035         AXC     *+1,4                                                            .001
      00035  0101 00 0 00046         TIA     =HGETCOM          ..                                             .001
      00036  0 00000 0 00000  CARGNO PZE     **            ..
      00037 -0130 00 0 00000         XCL                   LOGICAL AC TO MQ
      00040  0131 00 0 00000         XCA                   RETURN TO ARITH. AC
      00041  0774 00 4 00000  X4     AXT     **,4          RETURN TO PROGRAM
      00042  0020 00 4 00001         TRA     1,4           ..

      00043 +013300570057     REDS   OCT     013300570057  COLOR SHIFT(RED), NULL, NULL
      00044 +013200570057     BLACKS OCT     013200570057  COLOR SHIFT(BLACK), NULL, NULL
1                                                                                                PAGE 3
                           LITERALS AND CROSS-REFERENCE LISTING FOR NCLIB

                                     TTL     LITERALS AND CROSS-REFERENCE LISTING FOR NCLIB

                                     END

        LITERALS
      00045  233045234644
      00046  272563234644
      00047  622563222324
      00050  622563225142
      00051  622563266443
      00052  663046214431
      00053  665126436721
1                                                                                                PAGE 1
                        POST PROCESSOR ASSEMBLY DATA

         54 IS THE FIRST LOCATION NOT USED BY THIS PROGRAM

0REFERENCES TO DEFINED SYMBOLS
         41     X4    13,   21,   22,   30,   31
         13    RED     0
          2   EXIT     7
         43   REDS    17
         22  BLACK     0
         44 BLACKS    26
         36 CARGNO    33
          6 CHNARG     3
          2 CHNCOM     0,    7
         31 COMARG     0
          7 SETBCD     0,   20,   27
         11 SETBRK     0
         10 SETFUL     0,   14,   23
         12 WHOAMI     0

0 NO ERROR IN ABOVE ASSEMBLY.
1                                                                                                PAGE 1
                           EDUTL --- UTILITY ROUTINES FOR 'ED' IN ALGOL


                       00004         ENTRY   WRFLEX        OUTPUT ON TYPEWRITER
                       00007         ENTRY   WFLEXA        OUTPUT ON TYPEWRITER W/O C/R
                       00032         ENTRY   LS


            LINKAGE DIRECTOR
      00000  000000000000
      00001  665126432567

      00002  0101 00 0 00042  WRFLXA TIA     =HWRFLXA

      00003  0101 00 0 00043  WRFLX  TIA     =HWRFLX

      00004  0634 00 1 00027  WRFLEX SXA     XR1,1         OUTPUT ON TYPEWRITER
      00005  0774 00 1 00003         AXT     WRFLX,1       ..
      00006  0020 00 0 00011         TRA     WRITE         ..

      00007  0634 00 1 00027  WFLEXA SXA     XR1,1         ..
      00010  0774 00 1 00002         AXT     WRFLXA,1      ..

      00011  0634 00 1 00025  WRITE  SXA     WR.2,1        SAVE ROUTINE TO CALL
      00012  0634 00 4 00030         SXA     XR4,4
      00013 -0500 60 4 00002         CAL*    2,4           GET COUNT
      00014 -0100 00 0 00021         TNZ     WR.1          BCD OR BCI
      00015 -0500 60 4 00001         CAL*    1,4           BCI
      00016  0622 00 0 00026         STD     WR.2+1        ..
      00017  0621 00 0 00026         STA     WR.2+1        ..
      00020  0020 00 0 00025         TRA     WR.2          ..
      00021  0767 00 0 00022  WR.1   ALS     18            ..
      00022  0622 00 0 00026         STD     WR.2+1        ..
      00023 -0500 00 4 00001         CAL     1,4           .
      00024  0621 00 0 00026         STA     WR.2+1        ..
      00025  0074 00 4 00000  WR.2   TSX     **,4          ..
      00026  0 00000 0 00000         ***     **,,**        ..
      00027  0774 00 1 00000  XR1    AXT     **,1          ..
      00030  0774 00 4 00000  XR4    AXT     **,4          ..
      00031  0020 00 4 00001         TRA     1,4

      00032  0634 00 1 00040  LS     SXA     LSX1,1        SAVE INDEX 1
      00033 -0500 60 4 00002         CAL*    2,4           GET SHIFT
      00034  0737 00 1 00000         PAC     ,1            ..
      00035  0560 60 4 00001         LDQ*    1,4           GET WORD
      00036 -0763 00 1 00000         LGL     0,1           SHIFT IT
      00037  0131 00 0 00000         XCA                   AND LEAVE IN ARITHMETIC AC
      00040  0774 00 1 00000  LSX1   AXT     **,1          ..
      00041  0020 00 4 00001         TRA     1,4           ..

                                     END

        LITERALS
      00042  665126436721
      00043  665126436760
1                                                                                                PAGE 1
                        POST PROCESSOR ASSEMBLY DATA

         44 IS THE FIRST LOCATION NOT USED BY THIS PROGRAM

0REFERENCES TO DEFINED SYMBOLS
         32     LS     0
         27    XR1     4,    7
         30    XR4    12
         40   LSX1    32
         21   WR.1    14
         25   WR.2    11,   16,   17,   20,   22,   24
          3  WRFLX     5
         11  WRITE     6
          7 WFLEXA     0
          4 WRFLEX     0
          2 WRFLXA    10

0 NO ERROR IN ABOVE ASSEMBLY.
1PAGE 1                    EDIOP --- I/O SUBROUTINES FOR 'ED', ALGOL VERSION              17 HR 42 MN  9 SEC  3/01/68

 SUBROUTINE ENTRY POINTS
                       00003        DSEEK
                       00044        RDCARD
                       00224        DASIGN
                       00264        WRCARD
                       00404        DFILE
                       00436        RENAME
                       00714        UPDATE
                       00717        CHFILE
                       00713        RESET
                       00720        IODIAG
                       00734        WRFLX
                       00735        WRFLXA
                       00573        RDTYPE
                       00633        PRCARD

  TRANSFER VECTOR
      00000  475145632551           PRNTER
      00001  622563222324           SETBCD
      00002  242543256325           DELETE


                                    *      PMC     ON


                                           ENTRY   DSEEK         TO OPEN CARD FILE FOR READING
                                           ENTRY   RDCARD        TO READ A CARD FROM CARD FILE

                                           ENTRY   DASIGN        TO OPEN CARD FILE FOR WRITING
                                           ENTRY   WRCARD        TO WRITE A CARD INTO FILE
                                           ENTRY   DFILE         TO CLOSE OUT THE WRITE FILE

                                           ENTRY   RENAME        TO RENAME A FILE

                                           ENTRY   UPDATE        TO UPDATE USER UFD
                                           ENTRY   CHFILE        TO CHANGE THE NAME/MODE OF A FILE
                                           ENTRY   RESET         TO RESET USER FILE STATUS
                                           ENTRY   IODIAG

                                           ENTRY   WRFLX
                                           ENTRY   WRFLXA

                                           ENTRY   RDTYPE        TO READ A LINE FROM CONSOLE
                                           ENTRY   PRCARD        TO PRINT A LINE ON CONSOLE

                                           EXTERN  PRNTER,SETBCD,DELETE

                                           MACRO
                                    LOC    0       N(A)
                                           IFF     0,/CRS/LOC
                                    LOC    SYN     *
                                           TSX     N,4
                                           ARG     (A)
                                    0      END
1PAGE 2                    EDIOP --- I/O SUBROUTINES FOR 'ED', ALGOL VERSION              17 HR 42 MN  9 SEC  3/01/68


                                    ARG    MACRO   PARS
                                           IRP     PARS
                                           PAR     PARS
                                           IRP
                                    ARG    END

                                    SYSENT MACRO   NAME
                                           REM
                                           IRP     NAME
                                    NAME   TIA     =H'NAME
                                           IRP
                                    SYSENT END

                                    PAR    OPSYN   PTH
                                    BLK    OPSYN   TIX           FLAG NON-DECR. BLKS

                       00660        BUFLN  EQU     432           CURRENT LENGTH OF DISK/DRUM RECORDS
                       00016        CRDLN  EQU     14
                       00003        SWN    EQU     3

                       00676        RDLN   EQU     BUFLN+CRDLN
                       00220        SMBLN  EQU     BUFLN/SWN
                       00236        WBLN   EQU     SMBLN+CRDLN

                       02014        BUFSUM EQU     BUFLN+RDLN+WBLN  SUM OF BUFFERS TAKEN FROM MEM-BOUND
1PAGE 3                    CARD-IMAGE INPUT FROM DISK                                     17 HR 42 MN  9 SEC  3/01/68

      00003  0634 00 4 00652        DSEEK  SXA     X4,4          OPEN A FILE FOR READING
      00004  0500 60 4 00001               CLA*    1,4           GET FIRST NAME
      00005  0560 60 4 00002               LDQ*    2,4           GET SECOND NAME
      00006 -0603 00 0 01010               DST     RD            SAVE FOR READING
      00007 -0500 00 4 00003               CAL     3,4           POSSIBLE ERROR RETURN
      00010  0621 00 0 00162               STA     ERRTN         ..
      00011 -0500 00 0 01026               CAL     RB.           FIND LOCATION OF READ BUFFER
      00012  0020 00 0 00013        GETRB  TRA     *+1           ONE-SHOT SWITCH
                                                   GETBUF(RDBF)
      00015  0621 00 0 01026               STA     RB.
      00016 -0625 00 0 00012               STL     GETRB         CLOSE THIS PATH
      00017  0621 00 0 01030               STA     RE.
      00020  0621 00 0 01027               STA     R.
      00021  0600 00 0 00002               STZ     NXTEOF
                                                   OPEN(=HR,RD,RD+1,M,M,ERSEEK,ERRCOD)
                                                   RPRIME()
      00033 -0520 00 0 01025               NZT     EOFCT
      00034 -0625 00 0 00002               STL     NXTEOF
      00035  0020 00 0 00652               TRA     X4            RETURN

      00036 -0500 00 0 01024        ERSEEK CAL     ERRCOD
      00037  0402 00 0 01040               SUB     =12           IS IT FILE NOT FOUND
      00040 -0100 00 0 00475               TNZ     ERRTRA        NO, FAKE 'FERRTN'
                                                   WRFLX((RD,,4))
      00043  0020 00 0 00162               TRA     ERRTN

      00044  0634 00 4 00652        RDCARD SXA     X4,4          READ A CARD FROM FILE
      00045 -0500 00 4 00001               CAL     1,4           LINE ARRAY
      00046  0621 00 0 00117               STA     RDLIN         ..
      00047 -0500 00 4 00002               CAL     2,4           LENGTH
      00050  0621 00 0 00123               STA     LENGTH        ..
      00051 -0500 00 4 00003               CAL     3,4           LINENO
      00052  0621 00 0 00147               STA     RDLNO         ..
      00053 -0500 00 4 00004               CAL     4,4           POSSIBLE ERROR RETURN
      00054  0621 00 0 00162               STA     ERRTN         ..
      00055  0520 00 0 00002               ZET     NXTEOF
      00056  0020 00 0 00157               TRA     RCLOS
      00057  0520 00 0 01025               ZET     RWAIT
                                                   FWAIT(RD,RD+1)
      00063  0600 00 0 01025               STZ     RWAIT
      00064  0774 00 4 00016               AXT     CRDLN,4
      00065  0535 00 1 01027               LAC     R.,1
      00066 -0500 00 1 00000               CAL     0,1
      00067  0602 00 4 00021               SLW     BUF+CRDLN,4
      00070  1 77777 1 00071               TXI     *+1,1,-1
      00071  2 00001 4 00066               TIX     *-3,4,1
      00072 -0500 00 0 01027               CAL     R.
      00073  0361 00 0 01000               ACL     CRDF
      00074  0621 00 0 01027               STA     R.
      00075  0361 00 0 01000               ACL     CRDF
      00076 -0340 00 0 01030               LAS     RE.
      00077  0020 00 0 00151               TRA     RDREC
      00100  0774 00 0 00000               AXT     0,0
                       00101        RDUNP  SYN     *
1PAGE 4                    CARD-IMAGE INPUT FROM DISK                                     17 HR 42 MN  9 SEC  3/01/68

      00101  0020 00 0 00102        CHARSW TRA     *+1           ONE-SHOT SWITCH
      00102 -0500 00 0 00017               CAL     BUF+12        GET CHARACTERS FROM ID FIELD
      00103 -0320 00 0 01101               ANA     =O777777000000               ..
      00104  0602 00 0 01006               SLW     SEQCHR        3 CHARS IN SEQUENCE FIELD
      00105 -0320 00 0 01100               ANA     =O777700000000               ..
      00106  0602 00 0 01007               SLW     SQCHR1        2 CHARS IN SEQUENCE FIELD
      00107 -0625 00 0 00101               STL     CHARSW        DON'T GO THROUGH THIS SEQUENCE AGAIN
      00110  0774 00 1 00000               AXT     0,1           ..
      00111  0774 00 2 00016               AXT     14,2          ..
      00112  0560 00 2 00021        RDC1   LDQ     BUF+14,2      UNPACK CARD
      00113  0774 00 4 00006               AXT     6,4           ..
      00114 -0754 00 0 00000        RDC2   ZAC                   ..
      00115 -0763 00 0 00006               LGL     6             ..
      00116  1 77777 1 00117               TXI     *+1,1,-1      .. COUNTS CHARACTERS
      00117  0602 00 1 00000        RDLIN  SLW     **,1          ..
      00120  2 00001 4 00114               TIX     RDC2,4,1      ..
      00121  2 00001 2 00112               TIX     RDC1,2,1      ..
      00122  0756 00 1 00000               PCA     0,1           CHARACTER COUNT
      00123  0602 00 0 00000        LENGTH SLW     **            .. SAVE IT
      00124 -0500 00 0 00017               CAL     BUF+12        COLUMNS 73-78
      00125  0560 00 0 00020               LDQ     BUF+13        COLUMNS 79-84
      00126 -0763 00 0 00014               LGL     12            COLUMNS 75-80 TO AC
      00127  0602 00 0 00001               SLW     TNUM
      00130 -0320 00 0 01067               ANA     =H
      00131  0771 00 0 00004               ARS     4
      00132  0114 06 0 00773               CVR     TB4,,6
      00133 -0320 00 0 00001               ANA     TNUM
      00134 -0130 00 0 00000               XCL
      00135  0600 00 0 00001               STZ     TNUM          ..
      00136  0774 00 4 00006               AXT     6,4           ..
      00137 -0754 00 0 00000        RDDTBC ZAC                   CONVERT LINE NUMBER TO BINARY
      00140 -0763 00 0 00003               LGL     3             ..
      00141  0401 00 0 00001               ADM     TNUM          ..
      00142 -0763 00 0 00003               LGL     3             ..
      00143  0401 00 0 00001               ADM     TNUM          ..
      00144  0361 00 0 00001               ACL     TNUM          ..
      00145  0602 00 0 00001               SLW     TNUM          ..
      00146  2 00001 4 00137               TIX     RDDTBC,4,1    ..
      00147  0602 00 0 00000        RDLNO  SLW     **            SAVE BINARY LINE NUMBER
      00150  0020 00 0 00652               TRA     X4            RETURN

      00151  0520 00 0 00000        RDREC  ZET     EOFSW
      00152  0020 00 0 00155               TRA     RDEOF1
                                                   RPRIME()
      00154  0020 00 0 00101               TRA     RDUNP

      00155 -0625 00 0 00002        RDEOF1 STL     NXTEOF
      00156  0020 00 0 00101               TRA     RDUNP

                                    RCLOS          CLOSE(RD,RD+1)
      00162  0020 00 0 00000        ERRTN  TRA     **

      00163  0634 00 4 00222        RPRIME SXA     RPRX,4
      00164 -0500 00 0 01030               CAL     RE.
1PAGE 5                    CARD-IMAGE INPUT FROM DISK                                     17 HR 42 MN  9 SEC  3/01/68

      00165  0402 00 0 01027               SUB     R.
      00166  0100 00 0 00177               TZE     NOMOVE
      00167  0734 00 4 00000               PAX     ,4
      00170  0535 00 1 01027               LAC     R.,1
      00171  0535 00 2 01026               LAC     RB.,2
      00172  0560 00 1 00000               LDQ     0,1
      00173 -0600 00 2 00000               STQ     0,2
      00174  1 77777 1 00175               TXI     *+1,1,-1
      00175  1 77777 2 00176               TXI     *+1,2,-1
      00176  2 00001 4 00172               TIX     *-4,4,1
      00177  0361 00 0 01026        NOMOVE ACL     RB.
      00200  0621 00 0 00213               STA     RDLOC
      00201  0621 00 0 01030               STA     RE.
      00202 -0500 00 0 01026               CAL     RB.
      00203  0621 00 0 01027               STA     R.
      00204  0774 00 4 00660               AXT     BUFLN,4
      00205  0634 00 4 01025               SXA     EOFCT,4
      00206 -0625 00 0 00000               STL     EOFSW
                                                   RDFILE(RD,RD+1,=0)
      00213                         RDLOC  ARG     ((**,,BUFLN)EOFRD,EOFCT)
      00216  0600 00 0 00000               STZ     EOFSW
      00217 -0500 00 0 01030        EOFRD  CAL     RE.
      00220  0361 00 0 01025               ACL     EOFCT
      00221  0621 00 0 01030               STA     RE.
      00222  0774 00 4 00000        RPRX   AXT     **,4
      00223  0020 00 4 00001               TRA     1,4
1PAGE 6                    CARD-IMAGE OUTPUT TO DISK                                      17 HR 42 MN  9 SEC  3/01/68

      00224  0634 00 4 00652        DASIGN SXA     X4,4          OPEN FILE FOR WRITING
      00225  0500 60 4 00001               CLA*    1,4           GET FIRST NAME
      00226  0560 60 4 00002               LDQ*    2,4           SECOND NAME
      00227 -0603 00 0 01014               DST     WR            SAVE WRITE NAMES
      00230 -0500 00 4 00003               CAL     3,4           GET LOCATION OF ERR. RETURN
      00231  0621 00 0 00162               STA     ERRTN         ..
      00232 -0500 00 0 01031               CAL     WB.
      00233  0020 00 0 00234        GETWB  TRA     *+1           ONE-SHOT SWITCH
                                                   GETBUF(BUFCON)
      00236  0621 00 0 00262               STA     WBUFFS        ..
                                                   GETBUF(WRBF)
      00241  0621 00 0 01031               STA     WB.
      00242  0621 00 0 00402               STA     WRLOC
      00243 -0625 00 0 00233               STL     GETWB         CLOSE THIS PATH
      00244  0621 00 0 01032               STA     W.
      00245  0361 00 0 01004               ACL     SMBF
      00246  0621 00 0 01033               STA     WE.
      00247  0774 00 4 00003               AXT     SWN,4
      00250  0634 00 4 01034               SXA     WRCT,4
      00251  0600 00 0 01035               STZ     WRSW
                                                   OPEN(=HW,WR,WR+1,=O20)
                                                   BUFFER(WR,WR+1)
      00262                         WBUFFS ARG     ((**,,BUFLN))
      00263  0020 00 0 00652               TRA     X4            RETURN

      00264 -0520 60 4 00002        WRCARD NZT*    2,4           WRITE A CARD INTO FILE
      00265  0020 00 4 00005               TRA     5,4           SKIP IF NOTHING TO WRITE
      00266  0634 00 4 00652               SXA     X4,4          ..
      00267 -0500 00 4 00001               CAL     1,4           MOVE PARAMETERS (BASE)
      00270  0621 00 0 00276               STA     WRC1+1        ..
      00271 -0500 00 4 00002               CAL     2,4           .. (LENGTH)
      00272  0621 00 0 00277               STA     WRC1+2        ..
      00273  0500 00 4 00004               CLA     4,4           POSSIBLE ERROR RETURN
      00274  0621 00 0 00162               STA     ERRTN         ..
                                    WRC1           PACK(**,**)   PACK CHARACTERS INTO CARD IMAGE
      00300  0522 00 0 00652               XEC     X4
      00301  0560 60 4 00003               LDQ*    3,4
      00302 -0754 00 0 00000               PXD     ,0
      00303  0221 00 0 01047               DVP     =1000000
      00304  0560 00 0 01036               LDQ     =0
      00305  0765 00 0 00002               LRS     2
      00306  0774 00 1 00006               AXT     6,1
      00307  0225 06 1 00773               VDP     DTAB,1,6
      00310  2 00001 1 00307               TIX     *-1,1,1
      00311 -0130 00 0 00000               XCL
      00312  0560 00 0 01067               LDQ     =H            BLANKS TO MQ
      00313 -0765 00 0 00014               LGR     12            SHIFT LINE NUMBER TO COLUMN 75-80
      00314  0044 00 0 00000               PAI                   PREPARE TO TEST FOR NUMBER W/ 6 DIGITS
      00315 -0501 00 0 01007               ORA     SQCHR1        ..
      00316 -0054 00  000017               LFT     17            TEST FOR NUMBER .GE. 100000
      00317  0020 00 0 00321               TRA     *+2           NON-ZERO, LEAVE 2-CHAR. ID
      00320 -0501 00 0 01006               ORA     SEQCHR        'OR' IN 3 CHARS OF ID
      00321  0602 00 0 00017               SLW     BUF+12        PLACE LINE NUMBER INTO CARD IMAGE
      00322 -0600 00 0 00020               STQ     BUF+13        ..
1PAGE 7                    CARD-IMAGE OUTPUT TO DISK                                      17 HR 42 MN  9 SEC  3/01/68

      00323 -0520 00 0 01035               NZT     WRSW
      00324  0020 00 0 00354               TRA     WRCX
      00325  0600 00 0 01035               STZ     WRSW
      00326  0520 00 0 01034               ZET     WWAIT
      00327  0020 00 0 00335               TRA     WRCY
                                                   FWAIT(WR,WR+1)
      00333 -0500 00 0 01005               CAL     WB1
      00334  0020 00 0 00337               TRA     *+3
      00335 -0500 00 0 01034        WRCY   CAL     WRCT
      00336  0402 00 0 01037               SUB     =1
      00337  0621 00 0 01034               STA     WRCT
      00340 -0500 00 0 01032               CAL     W.
      00341  0402 00 0 01033               SUB     WE.
      00342  0100 00 0 00351               TZE     WRCZ
      00343  0734 00 4 00000               PAX     ,4
      00344  0535 00 2 01031               LAC     WB.,2
      00345  0560 00 2 00220               LDQ     SMBLN,2
      00346 -0600 00 2 00000               STQ     0,2
      00347  1 77777 2 00350               TXI     *+1,2,-1
      00350  2 00001 4 00345               TIX     *-3,4,1
      00351  0361 00 0 01031        WRCZ   ACL     WB.
      00352  0621 00 0 01032               STA     W.
      00353  0020 00 0 00355               TRA     *+2
      00354 -0500 00 0 01032        WRCX   CAL     W.
      00355  0737 00 2 00000               PAC     ,2
      00356  0361 00 0 01000               ACL     CRDF
      00357 -0340 00 0 01033               LAS     WE.
      00360  0774 00 0 00000               AXT     0,0
      00361 -0625 00 0 01035               STL     WRSW
      00362  0602 00 0 01032               SLW     W.
      00363  0774 00 4 00016               AXT     CRDLN,4
      00364  0560 00 4 00021               LDQ     BUF+CRDLN,4
      00365 -0600 00 2 00000               STQ     0,2
      00366  1 77777 2 00367               TXI     *+1,2,-1
      00367  2 00001 4 00364               TIX     *-3,4,1
      00370 -0520 00 0 01035               NZT     WRSW
      00371  0020 00 0 00652               TRA     X4
      00372 -0774 00 1 00725               AXC     WRWAIT,1
      00373 -0520 00 0 01034               NZT     WRCT
      00374 -0774 00 1 00724               AXC     WRFILE,1
      00375 -0774 00 4 00376               AXC     *+1,4
      00376  0020 00 1 00000               TRA     0,1
      00377                                ARG     (WR,WR+1,=0)
      00402                         WRLOC  ARG     ((**,,SMBLN))
      00403  0020 00 0 00652               TRA     X4            RETURN

      00404  0634 00 4 00652        DFILE  SXA     X4,4          CLOSE OUT WRITE FILE
      00405 -0500 00 4 00001               CAL     1,4
      00406  0621 00 0 00162               STA     ERRTN
      00407 -0500 00 0 01031               CAL     WB.
      00410 -0520 00 0 01035               NZT     WRSW
      00411  0020 00 0 00417               TRA     WCLOS
      00412 -0520 00 0 01034               NZT     WWAIT
                                                   FWAIT(WR,WR+1)
1PAGE 8                    CARD-IMAGE OUTPUT TO DISK                                      17 HR 42 MN  9 SEC  3/01/68

      00416 -0500 00 0 01033               CAL     WE.
      00417  0602 00 0 00001        WCLOS  SLW     TNUM
      00420  0621 00 0 00431               STA     WRLC1
      00421 -0500 00 0 01032               CAL     W.
      00422  0402 00 0 00001               SUB     TNUM
      00423  0100 00 0 00432               TZE     WCL1
      00424  0602 00 0 00001               SLW     TNUM
                                                   WRWAIT(WR,WR+1,=0)
      00431  2 00001 0 00000        WRLC1  BLK     **,,TNUM
                                    WCL1           CLOSE(WR,WR+1)
      00435  0020 00 0 00652               TRA     X4            RETURN
1PAGE 9                    UTILITY DISK SUBROUTINES                                       17 HR 42 MN  9 SEC  3/01/68

      00436  0634 00 4 00652        RENAME SXA     X4,4          RENAME A FILE
      00437  0500 60 4 00001               CLA*    1,4           OLD 1
      00440  0560 60 4 00002               LDQ*    2,4           OLD 2
      00441 -0603 00 0 01020               DST     OLD           ..
      00442  0500 60 4 00003               CLA*    3,4           NEW 1
      00443  0560 60 4 00004               LDQ*    4,4           NEW 2
      00444 -0603 00 0 01016               DST     NEW           ..
      00445 -0500 00 4 00005               CAL     5,4           ERROR RETURN
      00446  0621 00 0 00162               STA     ERRTN         ..
      00447  0600 00 0 00023               STZ     ARY+1         SET MODE TO ZERO, IN CASE NO FILE
                                                   FSTATE(NEW,NEW+1(ARY,,2)*)
      00455 -0500 00 0 00023               CAL     ARY+1
      00456 -0320 00 0 01044               ANA     =O176
      00457  0602 00 0 00021               SLW     MODES
                                                   DELETE(NEW,NEW+1,=0,ERRTN)
                                                   CHFILE(OLD,OLD+1,MODES,NEW,NEW+1,ERRTN)
      00474  0020 00 0 00652               TRA     X4            RETURN

1PAGE 10                   ERROR TRAPS FOR DISK I/O                                       17 HR 42 MN  9 SEC  3/01/68

      00475 -3 00513 0 00476        ERRTRA TXL     *+1,,ERX4+2   MAKE IT LOOK LIKE MAD STMT LABEL
      00476  0634 00 4 00511               SXA     ERX4,4
                                                   SETBCD()
                                                   PRNTER()
                                                   WRFLXA((DOYOU,,4))
                                                   RDYES(*+2)
      00505  0020 00 0 00162               TRA     ERRTN
                                                   WRFLX((TRYMSG,,6))
                                                   DORMNT()
      00511  0774 00 4 00000        ERX4   AXT     **,4
      00512  0020 00 4 00000               TRA     0,4

      00513 -3 00543 0 00514        TIRRTN TXL     *+1,,TIRX4+2  AS AT 'ERRTRA'
      00514  0634 00 4 00541               SXA     TIRX4,4
      00515 -0500 00 4 00000               CAL     0,4
      00516  0737 00 2 00000               PAC     ,2            GET S/R LOCATION
      00517  0560 60 2 00000               LDQ*    0,2           GET S/R NAME (ASSUME TSX-TIA-BCD)
      00520 -0600 00 0 00746               STQ     LOCKMS+6      SAVE FOR PRINTING
      00521 -0320 00 0 01045               ANA     =O77777
      00522  0402 00 0 00777               SUB     OPNC
      00523 -0100 00 0 00525               TNZ     *+2
      00524  1 77777 4 00525               TXI     *+1,4,-1
      00525  0500 60 4 00001               CLA*    1,4
      00526  0560 60 4 00002               LDQ*    2,4
      00527 -0603 00 0 00740               DST     LOCKMS        PUT FILE-NAME IN MESSAGE
                                                   SETBCD()
                                                   WRFLXA((LOCKMS,,10))
                                                   WRFLXA((LOCKM1,,2))
                                                   RDYES(ERRTN)
                                                   TILOCK(=0)
      00541  0774 00 4 00000        TIRX4  AXT     **,4
      00542  0020 00 4 00000               TRA     0,4
1PAGE 11                   OBTAIN I/O BUFFERS FROM USER'S MEMORY BOUND                    17 HR 42 MN  9 SEC  3/01/68

      00543  0634 00 4 00553        GETBUF SXA     GETBX4,4      SAVE
      00544  0600 00 0 00003               STZ     BUF           RESET WORD
                                                   GETMEM()      FIND CURRENT MEMORY BOUND
      00546  0621 00 0 00003               STA     BUF           (=FIRST LOCATION FOR RETURNED BUFFER)
      00547  0522 00 0 00553               XEC     GETBX4        RESTOR X4
      00550  0361 60 4 00001               ACL*    1,4           ADD CALLER'S DESIRED BUFFER LENGTH
                                                   SETMEM()      EXTEND MEMORY TO CONTAIN NEW BUFFER
      00552 -0500 00 0 00003               CAL     BUF           RETURN ADDRESS OF NEW BUFFER IN AC
      00553  0774 00 4 00000        GETBX4 AXT     **,4          ..
      00554  0020 00 4 00002               TRA     2,4           RETURN
1PAGE 12                   CONSOLE INPUT-OUTPUT                                           17 HR 42 MN  9 SEC  3/01/68

      00555  0634 00 4 00570        RDYES  SXA     RDX4,4        SKELETON READ-LEFT-JUSTIFIED ROUTINE
                                    RDJ1           RDFLXA((BUF,,1))  READ ONE WORD FROM CONSOLE
      00560  0560 00 0 00003               LDQ     BUF           ..
      00561 -0754 00 0 00000               PXD     ,0            ..
      00562 -0763 00 0 00006               LGL     6             ..
      00563  0402 00 0 01043               SUB     =O77          CHECK FOR INPUT FROM 'WRMESS'
      00564  0100 00 0 00556               TZE     RDJ1          IGNORE INTER-CONSOLE COMMUNICATIONS
      00565 -0500 00 0 00003               CAL     BUF
      00566  0771 00 0 00022               ARS     18
      00567  0402 00 0 01046               SUB     =H000YES
      00570  0774 00 4 00000        RDX4   AXT     **,4          ..
      00571 -0100 60 4 00001               TNZ*    1,4
      00572  0020 00 4 00002               TRA     2,4           RETURN TO CALLER

      00573  0634 00 4 00652        RDTYPE SXA     X4,4          READ A LINE FROM USER CONSOLE
      00574 -0500 00 4 00001               CAL     1,4           GET ARRAY BASE FOR LINE
      00575  0621 00 0 00624               STA     RLIN          ..
      00576 -0500 00 4 00002               CAL     2,4           GET BASE OF LOCATION LENGTH
      00577  0621 00 0 00614               STA     RLEN          ..
                                    RDT3           RDFLXA(BUF)   READ LINE FROM CONSOLE
      00602  0734 00 4 00000               PAX     0,4           CHAR. COUNT TO IR4
      00603  0560 00 0 00003               LDQ     BUF           GET 1ST WORD FROM INPUT BUFFER
      00604 -0754 00 0 00000               PXD     ,0            ..
      00605 -0763 00 0 00006               LGL     6             ..
      00606  0402 00 0 01043               SUB     =O77          IS IT INTER-CONSOLE COMMUNICATIONS BUF.
      00607  0100 00 0 00600               TZE     RDT3          YES, IGNORE LINE
      00610 -3 00124 4 00612               TXL     *+2,4,84      SKIP IF COUNT.LE.84
      00611  0774 00 4 00125               AXT     85,4          OTHERWISE SET COUNT= 85
      00612  1 77777 4 00613               TXI     *+1,4,-1      REDUCE COUNT BY ONE
      00613  0754 00 4 00000               PXA     0,4           COUNT TO AC
      00614  0602 00 0 00000        RLEN   SLW     **            RETURN COUNT TO CALLER
      00615  0774 00 1 00000               AXT     0,1           ..
      00616  0774 00 2 00016               AXT     14,2          ..
      00617  0560 00 2 00021        RDT1   LDQ     BUF+14,2      MOVE CHARACTERS TO CALLER ARRAY
      00620  0774 00 4 00006               AXT     6,4           ..
      00621 -0754 00 0 00000        RDT2   ZAC                   ..
      00622 -0763 00 0 00006               LGL     6             ..
      00623  1 77777 1 00624               TXI     *+1,1,-1      ..
      00624  0602 00 1 00000        RLIN   SLW     **,1          ..
      00625  2 00001 4 00621               TIX     RDT2,4,1      ..
      00626  2 00001 2 00617               TIX     RDT1,2,1      ..
      00627 -0774 00 1 00125               AXC     85,1          PLACE RETURN CHARACTER AT END OF STRING
      00630 -0500 00 0 01042               CAL     =O55          ..
      00631  0602 60 0 00624               SLW*    RLIN          ..
      00632  0020 00 0 00652               TRA     X4            RETURN

      00633  0634 00 4 00652        PRCARD SXA     X4,4          PRINT CARD ON USER CONSOLE
      00634  0520 60 4 00002               ZET*    2,4           IS LENGTH= 0
      00635  0020 00 0 00641               TRA     PRC1          NO, SKIP
                                                   WRFLX(*)      YES, TYPE RETURN ONLY
      00640  0020 00 0 00652               TRA     X4            AND RETURN
      00641 -0500 00 4 00001        PRC1   CAL     1,4           MOVE PARAMETERS (ARRAY BASE ADDRESS)
      00642  0621 00 0 00646               STA     PRC2+1        ..
      00643 -0500 00 4 00002               CAL     2,4           .. (LOCATION OF LENGTH)
1PAGE 13                   CONSOLE INPUT-OUTPUT                                           17 HR 42 MN  9 SEC  3/01/68

      00644  0621 00 0 00647               STA     PRC2+2        ..
                                    PRC2           PACK(**,**)   PACK CHARACTERS INTO CARD IMAGE
                                                   WRFLX((BUF,,14))  TYPE LINE TO USER'S CONSOLE
      00652  0774 00 4 00000        X4     AXT     **,4          RETURN
      00653  0020 00 4 00001               TRA     1,4           ..
1PAGE 14                   FORM CARD IMAGE BUFFER FROM UNPACKED INPUT ARRAY               17 HR 42 MN  9 SEC  3/01/68

      00654  0634 00 4 00711        PACK   SXA     PKX4,4        UTILITY ROUTINE TO PACK CHARACTER STRING
      00655 -0500 00 4 00001               CAL     1,4           GET LOCATION OF CHARACTER STRING
      00656  0621 00 0 00667               STA     PKLIN         ..
      00657 -0500 60 4 00002               CAL*    2,4           GET LENGTH OF STRING
      00660  0737 00 4 00000               PAC     ,4            LENGTH TO XR.
      00661  1 77777 4 00662               TXI     *+1,4,-1      ..
      00662 -0634 00 4 00674               SXD     PKLEN,4       ..
      00663 -0774 00 1 00001               AXC     1,1           FOR ALGOL
      00664  0774 00 2 00016               AXT     14,2          ..
      00665  0560 00 0 01067        PK1    LDQ     =H            PACK CHARACTERS INTO CARD IMAGE
      00666  0774 00 4 00006               AXT     6,4           ..
      00667 -0500 00 1 00000        PKLIN  CAL     **,1          ..
      00670 -0773 00 0 00006               RQL     6             ..
      00671 -0765 00 0 00006               LGR     6             ..
      00672 -0773 00 0 00006               RQL     6             ..
      00673  1 77777 1 00674               TXI     *+1,1,-1      MOVE FORWD. IN STORAGE
      00674 -3 00000 1 00701        PKLEN  TXL     PKEND,1,**    .. SKIP IF NO MORE CHARACTERS
      00675  2 00001 4 00667               TIX     PKLIN,4,1     ..
      00676 -0600 00 2 00021               STQ     BUF+14,2      ..
      00677  2 00001 2 00665               TIX     PK1,2,1       ..
      00700  0020 00 0 00711               TRA     PKX4          AND RETURN
      00701 -2 00001 4 00704        PKEND  TNX     *+3,4,1       FILL OUT REST OF WORD WITH BLANKS
      00702 -0773 00 0 00006               RQL     6             ..
      00703  0020 00 0 00701               TRA     PKEND         ..
      00704 -0600 00 2 00021               STQ     BUF+14,2      SAVE LAST NON-BLANK WORD
      00705  0560 00 0 01067               LDQ     =H            ..
      00706 -2 00001 2 00711        PKBLK  TNX     PKX4,2,1      FILL OUT REST OF LINE WITH BLANK WORDS
      00707 -0600 00 2 00021               STQ     BUF+14,2      ..
      00710  0020 00 0 00706               TRA     PKBLK         ..
      00711  0774 00 4 00000        PKX4   AXT     **,4          HERE FOR RETURN
      00712  0020 00 4 00003               TRA     3,4           ..
1PAGE 15                   SYSTEM SUBROUTINE ENTRIES                                      17 HR 42 MN  9 SEC  3/01/68

                                                   DIRECT CALLS PROVIDED AS ENTRY POINTS

      00713  0101 00 0 01065        RESET  TIA     =HRESETF      DIFFERENT NAMES FOR SAME FUNCTION

      00714                                SYSENT  (UPDATE,FSTATE,DELFIL,CHFILE,IODIAG)


                                                   CALLS FOR DISK I/O

      00721                                SYSENT  (OPEN,BUFFER,RDFILE,WRFILE,WRWAIT,FWAIT,CLOSE)


                                                   SYSTEM ERROR TRAPS

      00730                                SYSENT  (FERRTN,TILOCK)


                                                   OTHER CALLS TO CTSS SUPERVISOR

      00732                                SYSENT  (GETMEM,SETMEM,WRFLX,WRFLXA,RDFLXA,DORMNT)
1PAGE 16                   VARIABLES AND CONSTANTS FOR EDIOP                              17 HR 42 MN  9 SEC  3/01/68

      00740  606060606060           LOCKMS BCI     2,
      00742  603162601443                  BCI     5, IS 'LOCKED' ON CALL TO 'NAME'
      00747  333333575757                  VFD     H18/...,O18/575757

      00750  244660704664           DOYOU  BCI     4,DO YOU WISH TO PROCEED,

      00754  634660662131           LOCKM1 BCI     1,TO WAI
      00755  637360575757                  VFD     H6/T,O30/7360575757

      00756  637047256014           TRYMSG BCI     6,TYPE 'START' TO REPEAT LAST CALL

      00764 -0 00000 0 00000        M      MZE                   ..

      00765 +000006065000                  DEC     1E5B31,1E4B25,1E3B19,1E2B13,1E1B7,1E0B1
                       00773        DTAB   SYN     *

      00773  170000000773           TB4    VFD     O6/17,30/*
                                           DUP     1,3
                                           VFD     O6/,30/TB4

      00777  0 00000 0 00721        OPNC   PZE     OPEN          CHECK ON TILOCK RETURN

      01000  0 00000 0 00016        CRDF   PZE     CRDLN
      01001  0 00000 0 00660        BUFCON PZE     BUFLN
      01002  0 00000 0 00676        RDBF   PZE     RDLN
      01003  0 00000 0 00236        WRBF   PZE     WBLN

      01004  0 00000 0 00220        SMBF   PZE     SMBLN
      01005  0 00000 0 00002        WB1    PZE     SWN-1

      01006  606060000000           SEQCHR BCI     1,   000      COL 73-75
      01007  606000000000           SQCHR1 BCI     1,  0000      COL 73-74

      01010  545454545454           RD     BCI     2,************
      01012  604546636026                  BCI     2, NOT FOUND.

      01014  535353535353           WR     BCI     2,$$$$$$$$$$$$
      01016  141414141414           NEW    BCI     2,''''''''''''
      01020  131313131313           OLD    BCI     2,============

      01022  404040404040           FILNAM BCI     2,------------

                       01022        FN     SYN     FILNAM

      01024  0 00000 0 00000        ERRCOD PZE     **            ..

      01025  0 00000 0 00000        EOFCT  PZE     **

                       01025        RWAIT  EQU     EOFCT

      01026  0 00000 0 00000        RB.    PZE     **
      01027  0 00000 0 00000        R.     PZE     **
      01030  0 00000 0 00000        RE.    PZE     **

1PAGE 17                   VARIABLES AND CONSTANTS FOR EDIOP                              17 HR 42 MN  9 SEC  3/01/68

      01031  0 00000 0 00000          WB.  PZE     **
      01032  0 00000 0 00000          W.   PZE     **
      01033  0 00000 0 00000          WE.  PZE     **

      01034  0 00000 0 00000        WRCT   PZE     **

                       01034        WWAIT  SYN     WRCT

      01035  0 00000 0 00000        WRSW   PZE     **

                       00000        EOFSW  EQU     0             USE LOWER CORE FOR TEMPORARIES
                       00001        TNUM   EQU     1             ..
                       00002        NXTEOF EQU     2             ..

                       00003        BUF    EQU     3             (BSS 14, 14-WORD LINE-BUFFER)
                       00021        MODES  EQU     17            ..
                       00022        ARY    EQU     18            (BSS 2, READ BUFFER FOR 'FSTATE')

                       00022        TEMP   SYN     ARY
1PAGE 18                   LITERALS AND CROSS-REFERENCE LISTING FOR EDIOP                 17 HR 42 MN  9 SEC  3/01/68


                       01036               END

  LITERALS
      01036  000000000000
      01037  000000000001
      01040  000000000014
      01041  000000000020
      01042  000000000055
      01043  000000000077
      01044  000000000176
      01045  000000077777
      01046  000000702562
      01047  000003641100
      01050  226426262551
      01051  233026314325
      01052  234346622560
      01053  242543263143
      01054  244651444563
      01055  262551516345
      01056  266263216325
      01057  266621316360
      01060  272563442544
      01061  314624312127
      01062  464725456060
      01063  512426314325
      01064  512426436721
      01065  512562256326
      01066  516060606060
      01067  606060606060
      01070  622563442544
      01071  633143462342
      01072  644724216325
      01073  665126314325
      01074  665126436721
      01075  665126436760
      01076  665166213163
      01077  666060606060
      01100  777700000000
      01101  777777000000

      01102 IS THE FIRST LOCATION NOT USED BY THIS PROGRAM

    NO ERROR IN ABOVE ASSEMBLY
1PAGE 19                   LITERALS AND CROSS-REFERENCE LISTING FOR EDIOP                 17 HR 42 MN  9 SEC  3/01/68

 DEFINITION SYMBOL REFERENCES
        764      M    26,   27,  764
       1022     FN  1024
       1010     RD     6,   24,   25,   42,   61,   62,  160,  161,  210,  211, 1010
       1027     R.    20,   65,   72,   74,  165,  170,  203, 1027
       1032     W.   244,  340,  352,  354,  362,  421, 1032
       1014     WR   227,  254,  255,  260,  261,  331,  332,  377,  400,  414,  415,  426,  427,  433,  434, 1014
        652     X4     3,   35,   44,  150,  224,  263,  266,  300,  371,  403,  404,  435,  436,  474,  573,  632,  633
                     640,  652
         22    ARY   447,  453,  455, 1036, 1036
          3    BUF    67,  102,  112,  124,  125,  321,  322,  364,  544,  546,  552,  557,  560,  565,  601,  603,  617
                     651,  676,  704,  707, 1036
       1016    NEW   444,  451,  452,  461,  462,  471,  472, 1016
       1020    OLD   441,  466,  467, 1020
        665    PK1   665,  677
       1026    RB.    11,   15,  171,  177,  202, 1026
       1030    RE.    17,   76,  164,  201,  217,  221, 1030
          3    SWN     3,    3,  247, 1005
        773    TB4   132,  773,  774,  775,  776
       1005    WB1   333, 1005
       1031    WB.   232,  241,  344,  351,  407, 1031
       1033    WE.   246,  341,  357,  416, 1033
       1000   CRDF    73,   75,  356, 1000
        773   DTAB   307,  773
        511   ERX4   475,  476,  511
        721   OPEN    22,  252,  721,  777
        777   OPNC   522,  777
        654   PACK   275,  645,  654
        711   PKX4   654,  700,  706,  711
        641   PRC1   635,  641
        645   PRC2   642,  644,  645
       1002   RDBF    14, 1002
        112   RDC1   112,  121
        114   RDC2   114,  120
        556   RDJ1   556,  564
        676   RDLN     3,    3, 1002
        617   RDT1   617,  626
        621   RDT2   621,  625
        600   RDT3   600,  607
        570   RDX4   555,  570
        614   RLEN   577,  614
        624   RLIN   575,  624,  631
        222   RPRX   163,  222
       1004   SMBF   245, 1004
         22   TEMP  1036
          1   TNUM   127,  133,  135,  141,  143,  144,  145,  417,  422,  424,  431, 1036
        236   WBLN     3,    3, 1003
        432   WCL1   423,  432
       1003   WRBF   240, 1003
        275   WRC1   270,  272,  275
       1034   WRCT   250,  335,  337,  373, 1034, 1035
        354   WRCX   324,  354
        335   WRCY   327,  335
        351   WRCZ   342,  351
1PAGE 20                   LITERALS AND CROSS-REFERENCE LISTING FOR EDIOP                 17 HR 42 MN  9 SEC  3/01/68

       1035   WRSW   251,  323,  325,  361,  370,  410, 1035
        660  BUFLN     3,    3,    3,    3,  204,  213,  262, 1001
        727  CLOSE   157,  432,  727
         16  CRDLN     3,    3,    3,   64,   67,  363,  364, 1000
        404  DFILE     3,    3,  404
        750  DOYOU   502,  750
          3  DSEEK     3,    3,    3
       1025  EOFCT    33,  205,  215,  220, 1025, 1026
        217  EOFRD   214,  217
          0  EOFSW   151,  206,  216, 1036
        162  ERRTN    10,   43,   54,  162,  231,  274,  406,  446,  464,  473,  505,  536
        726  FWAIT    60,  330,  413,  726
         12  GETRB    12,   16
        233  GETWB   233,  243
         21  MODES   457,  470, 1036
        706  PKBLK   706,  710
        701  PKEND   674,  701,  703
        674  PKLEN   662,  674
        667  PKLIN   656,  667,  675
        157  RCLOS    56,  157
        117  RDLIN    46,  117
        147  RDLNO    52,  147
        213  RDLOC   200,  213
        151  RDREC    77,  151
        101  RDUNP   101,  154,  156
        555  RDYES   503,  535,  555
        713  RESET     3,    3,  713
       1025  RWAIT    57,   63, 1026
        220  SMBLN     3,    3,  345,  402, 1004
        541  TIRX4   513,  514,  541
        417  WCLOS   411,  417
        734  WRFLX     3,    3,   41,  506,  636,  650,  734
        431  WRLC1   420,  431
        402  WRLOC   242,  402
       1034  WWAIT   326,  412, 1035
       1001 BUFCON   235, 1001
        722 BUFFER   257,  722
       2014 BUFSUM     3
        101 CHARSW   101,  107
        717 CHFILE     3,    3,  465,  717
        224 DASIGN     3,    3,  224
          2 DELETE   460
        716 DELFIL   716
        737 DORMNT   510,  737
       1024 ERRCOD    31,   36, 1024
        475 ERRTRA    40,  475
         36 ERSEEK    30,   36
        730 FERRTN   730
       1022 FILNAM  1022, 1024
        715 FSTATE   450,  715
        543 GETBUF    13,  234,  237,  543
        553 GETBX4   543,  547,  553
        732 GETMEM   545,  732
        720 IODIAG     3,    3,  720
1PAGE 21                   LITERALS AND CROSS-REFERENCE LISTING FOR EDIOP                 17 HR 42 MN  9 SEC  3/01/68

        123 LENGTH    50,  123
        754 LOCKM1   534,  754
        740 LOCKMS   520,  527,  532,  740
        177 NOMOVE   166,  177
          2 NXTEOF    21,   34,   55,  155, 1036
        633 PRCARD     3,    3,  633
          0 PRNTER   500
         44 RDCARD     3,    3,   44
        137 RDDTBC   137,  146
        155 RDEOF1   152,  155
        723 RDFILE   207,  723
        736 RDFLXA   556,  600,  736
        573 RDTYPE     3,    3,  573
        436 RENAME     3,    3,  436
        163 RPRIME    32,  153,  163
       1006 SEQCHR   104,  320, 1006
          1 SETBCD   477,  530
        733 SETMEM   551,  733
       1007 SQCHR1   106,  315, 1007
        731 TILOCK   537,  731
        513 TIRRTN   513
        756 TRYMSG   507,  756
        714 UPDATE     3,    3,  714
        262 WBUFFS   236,  262
        264 WRCARD     3,    3,  264
        724 WRFILE   374,  724
        735 WRFLXA     3,    3,  501,  531,  533,  735
        725 WRWAIT   372,  425,  725
1       PRNTER - (DUMMY MODULE FOR THE ED COMMAND)                                               PAGE 1

                              *          (CALLS PRNTER VIA NEXCOM.)
                       00000         ENTRY   PRNTER
      00000 -0500 00 0 00005  PRNTER CAL     =HPRNTER
      00001  0560 00 0 00003         LDQ     =O-71
      00002  0101 00 0 00004         TIA     =HNEXCOM
                                     END

        LITERALS
      00003  400000000071
      00004  452567234644
      00005  475145632551
1       PRNTER - (DUMMY MODULE FOR THE ED COMMAND)                                               PAGE 1
                        POST PROCESSOR ASSEMBLY DATA

          6 IS THE FIRST LOCATION NOT USED BY THIS PROGRAM

0REFERENCES TO DEFINED SYMBOLS
          0 PRNTER     0

0 NO ERROR IN ABOVE ASSEMBLY.


   EDA   BCD 05/10/69 1840.2   32929         00000
1     MAD PROGRAM LISTING ... ... ...                 FILE  EDITOR   MAD            04/23/69    1348.3
-
                 ..  EDIT BY CONTEXT PROGRAM.                                                          LM00001
                                                                                                       LM00002
                 ..  J. H. SALTZER, NOVEMBER, 1964.                                                    LM00003
                 ..  LAST MODIFICATION, APRIL, 1967.                                                   LM00004
                 ..  MODIFIED OCTOBER, 1967 BY PETER R. BOS                                            LM00005
                 ..  TO ALLOW SETTING BREAK CHARACTER 'MCHNG'                                          LM00006
                                                                                                       LM00007
                 .. DECLARATIONS.                                                                      LM00008
                                                                                                       LM00009
                  VECTOR VALUES FENCE = 777777777777K                                             *001 LM00010
                  VECTOR VALUES RETURN = 55K                                                      *002 LM00011
                  VECTOR VALUES IN = $(INPUT$                                                     *003 LM00012
                  VECTOR VALUES IN1 = $(INPT1$                                                    *004 LM00013
                  VECTOR VALUES BRIEF = 0B                                                        *005 LM00014
                  VECTOR VALUES OK = 0B                                                           *006 LM00015
                  VECTOR VALUES BUFSIZ = 360                                                      *007 LM00016
                  DIMENSION LINE(361), EDLIN(361)                                                 *008 LM00017
                  DIMENSION REDS(1), BLACKS(1)                                                    *009 LM00018
                  DIMENSION ATNAM(2)                                                              *010 LM00019
                  NORMAL MODE IS INTEGER                                                          *011 LM00020
                  BOOLEAN OK, GLOBAL, FSTPAS                                                      *012 LM00021
                  BOOLEAN CHNG, CLRSW, BRIEF                                                      *013 LM00022
                                                                                                       LM00023
      . . .      . . . . . . . . . . . . . . . . . . . . . . . . . . . . . .                           LM00024
                                                                                                       LM00025
                 ..  INITIALIZATION.                                                                   LM00026
                                                                                                       LM00027
                  SECOND NAME OF INTERMEDIATE FILES NOW PROGNO                                         LM00028
                                                                                                       LM00029
                  WHOAMI.(ATNAM(2)...2)                                                           *014 LM00030
                  FI = ATNAM(1)                                                                   *015 LM00031
                  GETVAL.(BLANK, TAB, DEFALT, MCHNG, REDS(1), BLACKS(1))                          *016 LM00032
                  CLRNAM.(IN, FI, CHN, 1B)                                                        *017 LM00033
                  CLRNAM.(IN1, FI, CHN, 1B)                                                       *018 LM00034
                  ASSIGN.(IN, FI)                                                                 *019 LM00035
                  OLDNAM = COMARG.(1)                                                             *020 LM00036
                  OLDSEC = DEFALT                                                                 *021 LM00037
                  WHENEVER OLDNAM .E. FENCE, TRANSFER TO INSERT                                   *022 LM00038
                  OLDSEC = COMARG.(2)                                                             *023 LM00039
                  WHENEVER OLDSEC .E. FENCE, OLDSEC = DEFALT                                      *024 LM00040
                  SEEK.(OLDNAM, OLDSEC, INSERT)                                                   *025 LM00041
                  FSTPAS = 1B                                                                     *026 LM00042
                  OK = 1B                                                                         *027 LM00043
                                                                                                       LM00044
                 ..  ENTER EDIT MODE.                                                                  LM00045
                                                                                                       LM00046
      EDIT        WHENEVER .NOT. BRIEF, PRINT COMMENT $0E1D1I1T$                                  *028 LM00047
                                                                                                       LM00048
                 ..  OBTAIN NEXT REQUEST.                                                              LM00049
                                                                                                       LM00050
      NXRQ        COUNT = TYPEIN.(EDLIN, BUFSIZ)                                                  *029 LM00051
                  WHENEVER EDLIN(1) .E. MCHNG .AND. COUNT .L. 3                                   *030 LM00052
                1      , TRANSFER TO INSERT                                                       *030 LM00053
                  WHENEVER COUNT .L. 2, TRANSFER TO NXRQ                                          *031 LM00054
                  EDCT = 0                                                                        *032 LM00055
                  CWD = GET.(0)                                                                   *033 LM00056
                                                                                                       LM00057
                  WHENEVER CWD .E. $DELETE$ .OR. CWD .E. $     D$                                 *034 LM00058
                    N = BIN.(GET.(0))                                                             *035 LM00059
                    THROUGH DREAD, FOR I = 1, 1, I .GE. N                                         *036 LM00060
       DREAD          LENGTH = READ.(LINE, BUFSIZ, EOF)                                           *037 LM00061
                    LENGTH = 0                                                                    *038 LM00062
                                                                                                       LM00063
                  OR WHENEVER CWD .E. $  NEXT$ .OR. CWD .E. $     N$                              *039 LM00064
                    N = BIN.(GET.(0))                                                             *040 LM00065
                    WHENEVER N .E. 0, N = 1                                                       *041 LM00066
                    THROUGH NXT, FOR I = 1, 1, I .G. N                                            *042 LM00067
                      WRITE.(LINE, LENGTH)                                                        *043 LM00068
                      WHENEVER .NOT. OK, CLSOUT.                                                  *044 LM00069
                      LENGTH = READ.(LINE, BUFSIZ, EOF)                                           *045 LM00070
       NXT            CONTINUE                                                                    *046 LM00071
                                                                                                       LM00072
                  OR WHENEVER CWD .E. $INSERT$ .OR. CWD .E. $     I$                              *047 LM00073
                    WRITE.(LINE, LENGTH)                                                          *048 LM00074
                    TRANSFER TO RETYPE                                                            *049 LM00075
                                                                                                       LM00076
      INSERT        WHENEVER .NOT. BRIEF, PRINT COMMENT $0I1N1P1U1T$                              *050 LM00077
       INPUT        COUNT = TYPEIN.(EDLIN, BUFSIZ)                                                *051 LM00078
                    WHENEVER COUNT .L. 3 .AND. EDLIN(1) .E. MCHNG                                 *052 LM00079
                1      , TRANSFER TO EDIT                                                         *052 LM00080
                    WRITE.(LINE, LENGTH)                                                          *053 LM00081
                    THROUGH MVLP, FOR I = 1, 1, I .G. COUNT                                       *054 LM00082
       MVLP           LINE(I) = EDLIN(I)                                                          *055 LM00083
                    LENGTH = COUNT                                                                *056 LM00084
                    TRANSFER TO INPUT                                                             *057 LM00085
                                                                                                       LM00086
                  OR WHENEVER CWD .E. $BOTTOM$ .OR. CWD .E. $     B$                              *058 LM00087
                    WRITE.(LINE, LENGTH)                                                          *059 LM00088
                    LENGTH = 0                                                                    *060 LM00089
                    WHENEVER OK, BOTTOM.                                                          *061 LM00090
                    TRANSFER TO INSERT                                                            *062 LM00091
                                                                                                       LM00092
                  OR WHENEVER CWD .E. $APPEND$ .OR. CWD .E. $     A$                              *063 LM00093
                    WHENEVER LENGTH .G. 0, LENGTH = LENGTH - 1                                    *064 LM00094
                    TRANSFER TO APPEND                                                            *065 LM00095
                                                                                                       LM00096
                  OR WHENEVER CWD .E. $RETYPE$ .OR. CWD .E. $     R$                              *066 LM00097
       RETYPE       LENGTH = 0                                                                    *067 LM00098
      APPEND        THROUGH RPLC, FOR EDCT = EDCT + 1, 1, EDCT .G. COUNT                          *068 LM00099
                      LENGTH = LENGTH + 1                                                         *069 LM00100
       RPLC           LINE(LENGTH) = EDLIN(EDCT)                                                  *070 LM00101
                                                                                                       LM00102
                  OR WHENEVER CWD .E. $ ERASE$ .OR. CWD .E. $     E$                              *071 LM00103
                    WHENEVER EDLIN(EDCT+1) .NE. BLANK, SETERS.(EDLIN(EDCT+1))                     *072 LM00104
                                                                                                       LM00105
                  OR WHENEVER CWD .E. $  KILL$ .OR. CWD .E. $     K$                              *073 LM00106
                    WHENEVER EDLIN(EDCT+1) .NE. BLANK, SETKIL.(EDLIN(EDCT+1))                     *074 LM00107
                                                                                                       LM00108
                 ..  MODIFICATION ALLOWS SETTING 'MCHNG'. PRB.                                         LM00109
                                                                                                       LM00110
                  OR WHENEVER CWD .E. $ BREAK$ .OR. CWD .E. $    BR$                              *075 LM00111
                    WHENEVER EDLIN(EDCT) .E. RETURN                                               *076 LM00112
                      MCHNG = RETURN                                                              *077 LM00113
                    OR WHENEVER EDLIN(EDCT+1) .NE. BLANK                                          *078 LM00114
                      MCHNG = EDLIN(EDCT+1)                                                       *079 LM00115
                    END OF CONDITIONAL                                                            *080 LM00116
                                                                                                       LM00117
                  OR WHENEVER CWD .E. $VERIFY$ .OR. CWD .E. $     V$                              *081 LM00118
                    CWD = GET.(0)                                                                 *082 LM00119
                    WHENEVER CWD .E. $    ON$                                                     *083 LM00120
                      BRIEF = 0B                                                                  *084 LM00121
                    OR WHENEVER CWD .E. $   OFF$                                                  *085 LM00122
                      BRIEF = 1B                                                                  *086 LM00123
                    END OF CONDITIONAL                                                            *087 LM00124
                                                                                                       LM00125
                  OR WHENEVER CWD .E. $LOCATE$ .OR. CWD .E. $     L$                              *088 LM00126
                    LOCATE = 1                                                                    *089 LM00127
                    TRANSFER TO FIND                                                              *090 LM00128
                                                                                                       LM00129
                  OR WHENEVER CWD .E. $  FIND$ .OR. CWD .E. $     F$                              *091 LM00130
                    LOCATE = 0                                                                    *092 LM00131
      FIND          WHENEVER EDCT+1 .GE. COUNT                                                    *093 LM00132
                      COUNT = OCOUNT                                                              *094 LM00133
                      EDCT = EDCT + 1                                                             *095 LM00134
                    END OF CONDITIONAL                                                            *096 LM00135
                    OCOUNT = COUNT                                                                *097 LM00136
       NTFND        WRITE.(LINE, LENGTH)                                                          *098 LM00137
                    WHENEVER  .NOT. OK, CLSOUT.                                                   *099 LM00138
                    LENGTH = READ.(LINE, BUFSIZ, EOF)                                             *100 LM00139
                    THROUGH LOCSCN, FOR K=0, 1,K.G.LOCATE*(LENGTH-COUNT+EDCT)                     *101 LM00140
                      J = K                                                                       *102 LM00141
                      THROUGH LOOK, FOR I = EDCT+1, 1, I .GE. COUNT                               *103 LM00142
                        J = J + 1                                                                 *104 LM00143
       TAGN             WHENEVER LINE(J) .E. EDLIN(I), TRANSFER TO LOOK                           *105 LM00144
                        WHENEVER (LINE(J).E. TAB) .AND. (EDLIN(I) .E. BLANK)                      *106 LM00145
                1        , TRANSFER TO LOOK                                                       *106 LM00146
                        WHENEVER EDLIN(I-1) .NE. BLANK .OR. I .E. EDCT + 1                        *107 LM00147
                1        , TRANSFER TO LOCSCN                                                     *107 LM00148
                        WHENEVER LINE(J) .NE. BLANK .AND. LINE(J) .NE. TAB                        *108 LM00149
                1        , TRANSFER TO LOCSCN                                                     *108 LM00150
                        J = J + 1                                                                 *109 LM00151
                        TRANSFER TO TAGN                                                          *110 LM00152
       LOOK             WHENEVER I .E. EDCT+1, FNDST = J                                          *111 LM00153
                      FNDND = J                                                                   *112 LM00154
                      WHENEVER .NOT. BRIEF, PRNT.(FNDST, FNDND)                                   *113 LM00155
                      TRANSFER TO NXRQ                                                            *114 LM00156
        LOCSCN        CONTINUE                                                                    *115 LM00157
                    TRANSFER TO NTFND                                                             *116 LM00158
                                                                                                       LM00159
                  OR WHENEVER CWD .E. $ PRINT$ .OR. CWD .E. $     P$                              *117 LM00160
                    NPRNT = BIN.(GET.(0))                                                         *118 LM00161
      PNTLP         WHENEVER LENGTH .E. 0                                                         *119 LM00162
                      PRINT COMMENT $0N1O0 1C1U1R1R1E1N1T0 1L1I1N1E0.$                            *120 LM00163
                    OTHERWISE                                                                     *121 LM00164
                      TYPOUT.(LINE, LENGTH)                                                       *122 LM00165
                    END OF CONDITIONAL                                                            *123 LM00166
                    NPRNT = NPRNT - 1                                                             *124 LM00167
                    WHENEVER NPRNT .G. 0                                                          *125 LM00168
                      WRITE.(LINE, LENGTH)                                                        *126 LM00169
                      LENGTH = READ.(LINE, BUFSIZ, EOF)                                           *127 LM00170
                      TRANSFER TO PNTLP                                                           *128 LM00171
                    END OF CONDITIONAL                                                            *129 LM00172
                                                                                                       LM00173
                  OR WHENEVER CWD .E. $   TOP$ .OR. CWD .E. $     T$                              *130 LM00174
       TOPLP        WRITE.(LINE, LENGTH)                                                          *131 LM00175
                    WHENEVER OK, BOTTOM.                                                          *132 LM00176
                    CLSOUT.                                                                       *133 LM00177
                                                                                                       LM00178
                  OR WHENEVER CWD .E. $CHANGE$ .OR. CWD .E. $     C$                              *134 LM00179
                                                                                                       LM00180
      . . .       . . . . . . . . . . . . . . . . . . . . . . . . . . . . . .                          LM00181
                                                                                                       LM00182
                 ..  DELINEATE QUOTED STRINGS.                                                         LM00183
                                                                                                       LM00184
                    EDCT = EDCT+1                                                                 *135 LM00185
                    QUOTE = EDLIN(EDCT)                                                           *136 LM00186
                    STR1 = EDCT                                                                   *137 LM00187
      QLOOP         THROUGH QLOOP, FOR EDCT = EDCT+1, 1,                                          *138 LM00188
                1      (EDLIN(EDCT) .E. QUOTE) .OR. (EDCT .GE. COUNT)                             *138 LM00189
                    STR2 = EDCT                                                                   *139 LM00190
      QLOOP1        THROUGH QLOOP1, FOR EDCT = EDCT+1, 1,                                         *140 LM00191
                1      (EDLIN(EDCT) .E. QUOTE) .OR. (EDCT .GE. COUNT)                             *140 LM00192
                    EST2 = EDCT                                                                   *141 LM00193
                                                                                                       LM00194
                 .. CHECK FOR ITERATION COUNT AND GLOBAL REQUEST.                                      LM00195
                                                                                                       LM00196
                    EDCT = EDCT + 1                                                               *142 LM00197
                    TEM = 1                                                                       *143 LM00198
                    GLOBAL = 0B                                                                   *144 LM00199
      ARGLP         CWD = GET.(0)                                                                 *145 LM00200
                    WHENEVER CWD .E. $ $                                                          *146 LM00201
                      TRANSFER TO SHIFT                                                           *147 LM00202
                    OR WHENEVER CWD .E. $     G$                                                  *148 LM00203
                      WHENEVER STR2 .NE. STR1+1, GLOBAL = 1B                                      *149 LM00204
                    OTHERWISE                                                                     *150 LM00205
                      TEM = BIN.(CWD)                                                             *151 LM00206
                    END OF CONDITIONAL                                                            *152 LM00207
                    TRANSFER TO ARGLP                                                             *153 LM00208
                                                                                                       LM00209
                 .. SHIFT LINE TO BOTTOM OF BUFFER.                                                    LM00210
                                                                                                       LM00211
       SHIFT        THROUGH MVDWN, FOR I = LENGTH, -1, I .L. 1                                    *154 LM00212
      MVDWN           LINE(BUFSIZ+I-LENGTH) = LINE(I)                                             *155 LM00213
                    DOWN = BUFSIZ-LENGTH+1                                                        *156 LM00214
                    UP = 0                                                                        *157 LM00215
                    CHNG = 0B                                                                     *158 LM00216
                    CHST = LENGTH + 1                                                             *159 LM00217
                    CHEND = LENGTH                                                                *160 LM00218
                                                                                                       LM00219
                 .. SEARCH FOR PRESENCE OF FIRST STRING.                                               LM00220
                                                                                                       LM00221
      SRCHLP        UP = UP + 1                                                                   *161 LM00222
      SRTST           WHENEVER DOWN .G. BUFSIZ, TRANSFER TO GIVUP                                 *162 LM00223
                      J = DOWN                                                                    *163 LM00224
                      THROUGH COMPAR, FOR I = STR1+1, 1, I .GE. STR2                              *164 LM00225
                        WHENEVER J .GE. BUFSIZ, TRANSFER TO GIVUP                                 *165 LM00226
                        WHENEVER EDLIN(I) .NE. LINE(J), TRANSFER TO NOCOMP                        *166 LM00227
       COMPAR           J = J + 1                                                                 *167 LM00228
                      TRANSFER TO STFND                                                           *168 LM00229
                                                                                                       LM00230
      NOCOMP          LINE(UP) = LINE(DOWN)                                                       *169 LM00231
                      DOWN = DOWN + 1                                                             *170 LM00232
                    TRANSFER TO SRCHLP                                                            *171 LM00233
                                                                                                       LM00234
                 .. STRING FOUND, REPLACE WITH SECOND STRING.                                          LM00235
                                                                                                       LM00236
      STFND         CHNG = 1B                                                                     *172 LM00237
                    DOWN = DOWN + (STR2-STR1-1)                                                   *173 LM00238
                    CHST = UP                                                                     *174 LM00239
                    THROUGH REPLAC, FOR I = STR2 + 1, 1, I .GE. EST2                              *175 LM00240
                      LINE(UP) = EDLIN(I)                                                         *176 LM00241
                      UP = UP + 1                                                                 *177 LM00242
       REPLAC         WHENEVER UP .G. DOWN, TRANSFER TO GIVUP                                     *178 LM00243
                    CHEND = UP - 1                                                                *179 LM00244
                    WHENEVER GLOBAL, TRANSFER TO SRTST                                            *180 LM00245
                                                                                                       LM00246
                 .. MOVE REST OF LINE BACK UP.                                                         LM00247
                                                                                                       LM00248
      GIVUP         THROUGH FILOUT, FOR UP = UP, 1, DOWN .G. BUFSIZ                               *181 LM00249
                      LINE(UP) = LINE(DOWN)                                                       *182 LM00250
      FILOUT          DOWN = DOWN + 1                                                             *183 LM00251
                    LENGTH = UP - 1                                                               *184 LM00252
                    TEM = TEM - 1                                                                 *185 LM00253
                    WHENEVER .NOT. BRIEF .AND. (TEM .G. 0 .THEN. CHNG)                            *186 LM00254
                1        , PRNT.(CHST, CHEND)                                                     *186 LM00255
                    CANON.(LINE, LENGTH, BUFSIZ)                                                  *187 LM00256
                    WHENEVER TEM .G. 0                                                            *188 LM00257
                      WRITE.(LINE, LENGTH)                                                        *189 LM00258
                      LENGTH = READ.(LINE, BUFSIZ, EOF)                                           *190 LM00259
                      TRANSFER TO SHIFT                                                           *191 LM00260
                    END OF CONDITIONAL                                                            *192 LM00261
                                                                                                       LM00262
      . . . .     . . . . . . . . . . . . . . . . . . . . . . . . . . . .                              LM00263
                                                                                                       LM00264
                  OR WHENEVER CWD .E. $ SPLIT$ .OR. CWD .E. $     S$                              *193 LM00265
                    TOPNAM = GET.(0)                                                              *194 LM00266
                    WHENEVER TOPNAM .E. $ $, TRANSFER TO NONAME                                   *195 LM00267
                    WHENEVER TOPNAM .E. OLDNAM .AND. FSTPAS                                       *196 LM00268
      NEWNM           PRINT COMMENT $0P1L1E1A1S1E0 1U1S1E0 1A1N1O1T1H1E1R0 1N1A                   *197 LM00269
                1 1M1E0.$                                                                         *197 LM00270
                      TRANSFER TO NXRQ                                                            *198 LM00271
                    END OF CONDITIONAL                                                            *199 LM00272
                    SECNAM = GET.(0)                                                              *200 LM00273
                  WHENEVER SECNAM .E. $ $, SECNAM = OLDSEC                                        *201 LM00274
                    CLRNAM.(TOPNAM, SECNAM, NEWNM, 1B)                                            *202 LM00275
                    CLOSEW.                                                                       *203 LM00276
                    RENAME.(IN, FI, TOPNAM, SECNAM)                                               *204 LM00277
                    ASSIGN.(IN, FI)                                                               *205 LM00278
                    OLDNAM = FENCE                                                                *206 LM00279
                    TRANSFER TO TOPLP                                                             *207 LM00280
                                                                                                       LM00281
                  OR WHENEVER CWD .E. $  QUIT$ .OR. CWD .E. $     Q$                              *208 LM00282
                    ENDRD.                                                                        *209 LM00283
                    CLOSEW.                                                                       *210 LM00284
                    DELFIL.(IN1, FI, DLQ1)                                                        *211 LM00285
      DLQ1          DELFIL.(IN, FI, DLQ2)                                                         *212 LM00286
      DLQ2          TRANSFER TO CHN                                                               *213 LM00287
                                                                                                       LM00288
                  OR WHENEVER CWD .E. $  FILE$                                                    *214 LM00289
                    PRINAM = GET.(0)                                                              *215 LM00290
                    CLRSW = 1B                                                                    *216 LM00291
                    WHENEVER PRINAM .E. $ $                                                       *217 LM00292
                      PRINAM = OLDNAM                                                             *218 LM00293
                      SECNAM = OLDSEC                                                             *219 LM00294
                      CLRSW = 0B                                                                  *220 LM00295
                    OTHERWISE                                                                     *221 LM00296
                      SECNAM = GET.(0)                                                            *222 LM00297
                      WHENEVER SECNAM .E. $ $                                                     *223 LM00298
                        SECNAM = OLDSEC                                                           *224 LM00299
                      END OF CONDITIONAL                                                          *225 LM00300
                    END OF CONDITIONAL                                                            *226 LM00301
                    WHENEVER PRINAM .E. FENCE                                                     *227 LM00302
      NONAME          PRINT COMMENT $0N1O0 1F1I1L1E0 1N1A1M1E0 1G1I1V1E1N0.$                      *228 LM00303
                      TRANSFER TO NXRQ                                                            *229 LM00304
                    END OF CONDITIONAL                                                            *230 LM00305
                    WRITE.(LINE, LENGTH)                                                          *231 LM00306
                    LENGTH = 0                                                                    *232 LM00307
                    WHENEVER OK, BOTTOM.                                                          *233 LM00308
                    CLRNAM.(PRINAM, SECNAM, NEWNM, CLRSW)                                         *234 LM00309
                    CLOSEW.                                                                       *235 LM00310
                    DELFIL.(IN1, FI, DL1)                                                         *236 LM00311
      DL1           RENAME.(IN, FI, PRINAM, SECNAM)                                               *237 LM00312
      CHN           EXIT.                                                                         *238 LM00313
                                                                                                       LM00314
                  OTHERWISE                                                                       *239 LM00315
                    PRINT COMMENT $0N1O1T0 1A0 1R1E1Q1U1E1S1T0:$                                  *240 LM00316
                    TYPOUT.(EDLIN, COUNT)                                                         *241 LM00317
                                                                                                       LM00318
                  END OF CONDITIONAL                                                              *242 LM00319
                  TRANSFER TO NXRQ                                                                *243 LM00320
                                                                                                       LM00321
      EOF         PRINTCOMMENT $0E1N1D0 1O1F0 1F1I1L1E0 1R1E1A1C1H1E1D0 1B1Y0:$                   *244 LM00322
                  TYPOUT.(EDLIN, COUNT)                                                           *245 LM00323
                  LENGTH = 0                                                                      *246 LM00324
                  OK = 0B                                                                         *247 LM00325
                  TRANSFER TO NXRQ                                                                *248 LM00326
                                                                                                       LM00327
                 . . . . . . . . . . . . . . . . . . . . . . . . . . . . . .                           LM00328
                                                                                                       LM00329
                 .. SUBROUTINES.                                                                       LM00330
                                                                                                       LM00331
       CLSOUT.   .. FUNCTION TO MOVE POINTER BACK TO TOP OF FILE.                                      LM00332
                                                                                                       LM00333
                  INTERNAL FUNCTION                                                               *249 LM00334
                  ENTRY TO CLSOUT.                                                                *250 LM00335
                    CLOSEW.                                                                       *251 LM00336
                    DELFIL.(IN1, FI, DL2)                                                         *252 LM00337
      DL2           CHFILE.(IN, FI, -0, IN1)                                                      *253 LM00338
                    SEEK.(IN1, FI, CHN)                                                           *254 LM00339
                    ASSIGN.(IN, FI)                                                               *255 LM00340
                    OK = 1B                                                                       *256 LM00341
                    LENGTH = 0                                                                    *257 LM00342
                    FSTPAS = 0B                                                                   *258 LM00343
                    FUNCTION RETURN                                                               *259 LM00344
                  END OF FUNCTION                                                                 *260 LM00345
                                                                                                       LM00346
        GET.     .. FUNCTION TO OBTAIN ARGUMENT WORD IN HOLLERITH.                                     LM00347
                                                                                                       LM00348
                  INTERNAL FUNCTION                                                               *261 LM00349
                  ENTRY TO GET.                                                                   *262 LM00350
                    WORD = $ $                                                                    *263 LM00351
      SCANLP        THROUGH SCANLP, FOR EDCT = EDCT, 1,                                           *264 LM00352
                1   (EDLIN(EDCT+1).NE.BLANK) .OR. (EDCT+1.GE.COUNT)                               *264 LM00353
       GTLP         EDCT = EDCT + 1                                                               *265 LM00354
                    WHENEVER EDLIN(EDCT) .E. BLANK, FUNCTION RETURN WORD                          *266 LM00355
                    WHENEVER EDLIN(EDCT) .E. TAB .OR. EDCT .GE. COUNT                             *267 LM00356
                      EDCT = EDCT - 1                                                             *268 LM00357
                      FUNCTION RETURN WORD                                                        *269 LM00358
                    END OF CONDITIONAL                                                            *270 LM00359
                    WORD = (WORD .LS. 6) .V. HOL.(EDLIN(EDCT))                                    *271 LM00360
                    TRANSFER TO GTLP                                                              *272 LM00361
                  END OF FUNCTION                                                                 *273 LM00362
                                                                                                       LM00363
       PRNT.     ..  FUNCTION TO PRINT A LINE WITH COLOR SHIFTS.                                       LM00364
                                                                                                       LM00365
                  INTERNAL FUNCTION(STAR, EN)                                                     *274 LM00366
                  ENTRY TO PRNT.                                                                  *275 LM00367
                    TYPOUT.(LINE, STAR-1)                                                         *276 LM00368
                    TYPOUT.(REDS, 1)                                                              *277 LM00369
                    TYPOUT.(LINE(STAR-1), EN-STAR+1)                                              *278 LM00370
                    TYPOUT.(BLACKS, 1)                                                            *279 LM00371
                    TYPOUT.(LINE(EN), LENGTH-EN)                                                  *280 LM00372
                    FUNCTION RETURN                                                               *281 LM00373
                  END OF FUNCTION                                                                 *282 LM00374
                                                                                                       LM00375
                  END OF PROGRAM                                                                  *283 LM00376
1MAD PROGRAM,TYPE NOV 1963      (ALL NUMBERS ARE OCTAL)
0TOTAL LOCATIONS   03713 TRANSFER VECTOR LENGTH  00030 PROGRAM BEGINS    01555
0VARIABLE STORAGE (A=ARRAY,C=COMMON,E=ERASABLE,DIGIT=MODE)
      APPEND 00034   4        DLQ1   00041   4        GTLP   00047   4        NONAME 00056   4        RETYPE 00062   4
      ARGLP  00035   4        DLQ2   00042   4        IN1    00673 A 1        NPRNT  01455   1        RPLC   00033   4
      ATNAM  00073 A 1        DOWN   00110   1        INPUT  00050   4        N      01456   1        SCANLP 00033   4
      BLACKS 00075 A 1        DREAD  00033   4        IN     00674 A 1        NTFND  00057   4        SECNAM 01470   1
      BLANK  00076   1        EDCT   00111   1        INSERT 00051   4        NXRQ   00060   4        SHIFT  00063   4
      BRIEF  00077 A 2        EDIT   00043   4        I      00675   1        NXT    00033   4        SRCHLP 00064   4
      BUFSIZ 00100 A 1        EDLIN  00663 A 1        J      00676   1        OCOUNT 01457   1        SRTST  00065   4
      CHEND  00101   1        EOF    00044   4        K      00677   1        OK     01460 A 2        STFND  00066   4
      CHNG   00102   2        EST2   00664   1        LENGTH 00700   1        OLDNAM 01461   1        STR1   01471   1
      CHN    00036   4        FENCE  00665 A 1        LINE   01452 A 1        OLDSEC 01462   1        STR2   01472   1
      CHST   00103   1        FILOUT 00033   4        LOCATE 01453   1        PNTLP  00061   4        TAB    01473   1
      CLRSW  00104   2        FIND   00045   4        LOCSCN 00052   4        PRINAM 01463   1        TAGN   00067   4
      COMPAR 00033   4        FI     00666   1        LOOK   00053   4        QLOOP1 00033   4        TEM    01474   1
      COUNT  00105   1        FNDND  00667   1        MCHNG  01454   1        QLOOP  00033   4        TOPLP  00070   4
      CWD    00106   1        FNDST  00670   1        MVDWN  00033   4        QUOTE  01464   1        TOPNAM 01475   1
      DEFALT 00107   1        FSTPAS 00671   2        MVLP   00033   4        REDS   01466 A 1        UP     01476   1
      DL1    00037   4        GIVUP  00046   4        NEWNM  00054   4        REPLAC 00033   4        WORD   01477   1
      DL2    00040   4        GLOBAL 00672   2        NOCOMP 00055   4        RETURN 01467 A 1
0FUNCTION DICTIONARY
      ASSIGN 00000   1        BIN    00001   1        BOTTOM 00002   1        CANON  00003   1        CHFILE 00004   1
      CLOSEW 00005   1        CLRNAM 00006   1        COMARG 00007   1        DELFIL 00010   1        ENDRD  00011   1
      EXIT   00012   1        GETVAL 00013   1        HOL    00014   1        .PCOMT 00015   1        .SETUP 00016   1
      READ   00017   1        RENAME 00020   1        SEEK   00021   1        SETERS 00022   1        SETKIL 00023   1
      TYPEIN 00024   1        TYPOUT 00025   1        WHOAMI 00026   1        WRITE  00027   1        CLSOUT 00030   1
      GET    00031   1        PRNT   00032   1
0ABSOLUTE CONSTANTS
 01504 +000000000006     01520 -206026314325     01524 -206050643163     01544 -206060606050     01553 -206247433163
 01547 -206060606062     01536 -206060606027     01546 -206060606060     01510 +233021452725     01532 -206060606023
 01552 -206060634647     01550 -206060606063     01517 -204751314563     01543 -206060606047     01521 -206026314524
 01535 -206060606026     01513 -034623216325     01541 -206060606043     01525 -206060462626     01527 -206060604645
 01554 -252551312670     01551 -206060606065     01515 -202251252142     01526 -206060602251     01522 -206042314343
 01540 -206060606042     01516 -202551216225     01534 -206060606025     01514 -112563704725     01545 -206060606051
 01505 +214747254524     01530 -206060606021     01506 +224663634644     01531 -206060606022     01512 +314562255163
 01537 -206060606031     01523 -206045256763     01542 -206060606045     01511 +242543256325     01533 -206060606024
 01500 +000000000000     01503 +000000000003     01502 +000000000002     01501 +000000000001     01507 +233000000000
0STATEMENT DICTIONARY
 00034 TXL -302146002133       00035 TXL -302676002673       00036 TXL -303402003401       00037 TXL -303401003374
 00040 TXL -303460003451       00041 TXL -303301003275       00042 TXL -303302003301       00043 TXL -301645001637
 00044 TXL -303430003416       00045 TXL -302334002327       00046 TXL -303117003105       00047 TXL -303543003540
 00050 TXL -302026002022       00051 TXL -302022002014       00052 TXL -302506002505       00053 TXL -302475002465
 00054 TXL -303226003214       00055 TXL -303032003026       00056 TXL -303351003340       00057 TXL -302346002343
 00060 TXL -301651001645       00061 TXL -302527002524       00062 TXL -302133002131       00063 TXL -302734002722
 00064 TXL -302764002761       00065 TXL -302771002764       00066 TXL -303040003036       00067 TXL -302424002416
 00070 TXL -302575002572
0PROGRAM
                 VECTOR VALUES FENCE = 777777777777K                                001  LM00010
 01555 TSX +0 07400 4 00016    00665     -3 77777 7 77777
                 VECTOR VALUES RETURN = 55K                                         002  LM00011
 01467     +0 00000 0 00055
                 VECTOR VALUES IN = $(INPUT$                                        003  LM00012
 00674     -3 43145 4 76463
                 VECTOR VALUES IN1 = $(INPT1$                                       004  LM00013
 00673     -3 43145 4 76301
                 VECTOR VALUES BRIEF = 0B                                           005  LM00014
 00077     +0 00000 0 00000
                 VECTOR VALUES OK = 0B                                              006  LM00015
 01460     +0 00000 0 00000
                 VECTOR VALUES BUFSIZ = 360                                         007  LM00016
 00100     +0 00000 0 00550
                 DIMENSION LINE(361), EDLIN(361)                                    008  LM00017
                 DIMENSION REDS(1), BLACKS(1)                                       009  LM00018
                 D'N ATNAM(2)                                                       010  LM00019
                 NORMAL MODE IS INTEGER                                             011  LM00020
                 BOOLEAN OK, GLOBAL, FSTPAS                                         012  LM00021
                 BOOLEAN CHNG, CLRSW, BRIEF                                         013  LM00022
                 WHOAMI.(ATNAM(2)...2)                                              014  LM00030
 01556 TSX +0 07400 4 00026    01557 TIX +2 01502 0 00071
                 FI = ATNAM(1)                                                      015  LM00031
 01560 CLA +0 50000 0 00072    01561 STO +0 60100 0 00666
                 GETVAL.(BLANK, TAB, DEFALT, MCHNG, REDS(1), BLACKS(1))             016  LM00032
 01562 TSX +0 07400 4 00013    01563 TXH +3 00000 0 00076    01564 TXH +3 00000 0 01473    01565 TXH +3 00000 0 00107
 01566 TXH +3 00000 0 01454    01567 TXH +3 00000 0 01465    01570 TXH +3 00000 0 00074
                 CLRNAM.(IN, FI, CHN, 1B)                                           017  LM00033
 01571 TSX +0 07400 4 00006    01572 TXH +3 00000 0 00674    01573 TXH +3 00000 0 00666    01574 TXH +3 00000 0 00036
 01575 TXH +3 00000 0 01501
                 CLRNAM.(IN1, FI, CHN, 1B)                                          018  LM00034
 01576 TSX +0 07400 4 00006    01577 TXH +3 00000 0 00673    01600 TXH +3 00000 0 00666    01601 TXH +3 00000 0 00036
 01602 TXH +3 00000 0 01501
                 ASSIGN.(IN, FI)                                                    019  LM00035
 01603 TSX +0 07400 4 00000    01604 TXH +3 00000 0 00674    01605 TXH +3 00000 0 00666
                 OLDNAM = COMARG.(1)                                                020  LM00036
 01606 TSX +0 07400 4 00007    01607 TXH +3 00000 0 01501    01610 STO +0 60100 0 01461
                 OLDSEC = DEFALT                                                    021  LM00037
 01611 CLA +0 50000 0 00107    01612 STO +0 60100 0 01462
                 WHENEVER OLDNAM .E. FENCE, TRANSFER TO INSERT                      022  LM00038
 01613 CLA +0 50000 0 01461    01614 SUB +0 40200 0 00665    01615 TNZ -0 10000 0 01617    01616 TRA +0 02000 0 00051
                 OLDSEC = COMARG.(2)                                                023  LM00039
 01617 TSX +0 07400 4 00007    01620 TXH +3 00000 0 01502    01621 STO +0 60100 0 01462
                 WHENEVER OLDSEC .E. FENCE, OLDSEC = DEFALT                         024  LM00040
 01622 CLA +0 50000 0 01462    01623 SUB +0 40200 0 00665    01624 TNZ -0 10000 0 01627    01625 CLA +0 50000 0 00107
 01626 STO +0 60100 0 01462
                 SEEK.(OLDNAM, OLDSEC, INSERT)                                      025  LM00041
 01627 TSX +0 07400 4 00021    01630 TXH +3 00000 0 01461    01631 TXH +3 00000 0 01462    01632 TXH +3 00000 0 00051
                 FSTPAS = 1B                                                        026  LM00042
 01633 CLA +0 50000 0 01501    01634 STO +0 60100 0 00671
                 OK = 1B                                                            027  LM00043
 01635 CLA +0 50000 0 01501    01636 STO +0 60100 0 01460
      EDIT       WHENEVER .NOT. BRIEF, PRINT COMMENT $0E1D1I1T$                     028  LM00047
 01637 ZET +0 52000 0 00077    01640 TRA +0 02000 0 01645    01641 TSX +0 07400 4 00015    01642     +0 00000 0 00002
 01643     +0 02501 2 40131    01644     +0 16360 6 06060
      NXRQ       COUNT = TYPEIN.(EDLIN, BUFSIZ)                                     029  LM00051
 01645 TSX +0 07400 4 00024    01646 TXH +3 00000 0 00663    01647 TXH +3 00000 0 00100    01650 STO +0 60100 0 00105
                 WHENEVER EDLIN(1) .E. MCHNG .AND. COUNT .L. 3                      030  LM00052
                1     , TRANSFER TO INSERT                                          030  LM00053
 01651 CLA +0 50000 0 00105    01652 SUB +0 40200 0 01503    01653 TZE +0 10000 0 01661    01654 TPL +0 12000 0 01661
 01655 CLA +0 50000 0 00662    01656 SUB +0 40200 0 01454    01657 TNZ -0 10000 0 01661    01660 TRA +0 02000 0 00051
                 WHENEVER COUNT .L. 2, TRANSFER TO NXRQ                             031  LM00054
 01661 CLA +0 50000 0 00105    01662 SUB +0 40200 0 01502    01663 TZE +0 10000 0 01666    01664 TPL +0 12000 0 01666
 01665 TRA +0 02000 0 00060
                 EDCT = 0                                                           032  LM00055
 01666 CLA +0 50000 0 01500    01667 STO +0 60100 0 00111
                 CWD = GET.(0)                                                      033  LM00056
 01670 TSX +0 07400 4 00031    01671 TXH +3 00000 0 01500    01672 STO +0 60100 0 00106
                 WHENEVER CWD .E. $DELETE$ .OR. CWD .E. $     D$                    034  LM00058
 01673 CLA +0 50000 0 00106    01674 SUB +0 40200 0 01533    01675 TZE +0 10000 0 01701    01676 CLA +0 50000 0 00106
 01677 SUB +0 40200 0 01511    01700 TNZ -0 10000 0 01732
                   N = BIN.(GET.(0))                                                035  LM00059
 01701 TSX +0 07400 4 00031    01702 TXH +3 00000 0 01500    01703 STO +0 60100 0 03710    01704 TSX +0 07400 4 00001
 01705 TXH +3 00000 0 03710    01706 STO +0 60100 0 01456
                   THROUGH DREAD, FOR I = 1, 1, I .GE. N                            036  LM00060
 01707 CLA +0 50000 0 01501    01710 STO +0 60100 0 00675    01711 TRA +0 02000 0 01715    01712 CLA +0 50000 0 00675
 01713 ADD +0 40000 0 01501    01714 STO +0 60100 0 00675    01715 CLA +0 50000 0 00675    01716 SUB +0 40200 0 01456
 01717 TZE +0 10000 0 01727    01720 TPL +0 12000 0 01727
       DREAD         LENGTH = READ.(LINE, BUFSIZ, EOF)                              037  LM00061
 01721 TSX +0 07400 4 00017    01722 TXH +3 00000 0 01452    01723 TXH +3 00000 0 00100    01724 TXH +3 00000 0 00044
 01725 STO +0 60100 0 00700    01726 TRA +0 02000 0 01712
                   LENGTH = 0                                                       038  LM00062
 01727 CLA +0 50000 0 01500    01730 STO +0 60100 0 00700
                 OR WHENEVER CWD .E. $  NEXT$ .OR. CWD .E. $     N$                 039  LM00064
 01731 TRA +0 02000 0 03415    01732 CLA +0 50000 0 00106    01733 SUB +0 40200 0 01542    01734 TZE +0 10000 0 01740
 01735 CLA +0 50000 0 00106    01736 SUB +0 40200 0 01523    01737 TNZ -0 10000 0 02002
                   N = BIN.(GET.(0))                                                040  LM00065
 01740 TSX +0 07400 4 00031    01741 TXH +3 00000 0 01500    01742 STO +0 60100 0 03710    01743 TSX +0 07400 4 00001
 01744 TXH +3 00000 0 03710    01745 STO +0 60100 0 01456
                   WHENEVER N .E. 0, N = 1                                          041  LM00066
 01746 CLA +0 50000 0 01456    01747 SUB +0 40200 0 01500    01750 TNZ -0 10000 0 01753    01751 CLA +0 50000 0 01501
 01752 STO +0 60100 0 01456
                   THROUGH NXT, FOR I = 1, 1, I .G. N                               042  LM00067
 01753 CLA +0 50000 0 01501    01754 STO +0 60100 0 00675    01755 TRA +0 02000 0 01761    01756 CLA +0 50000 0 00675
 01757 ADD +0 40000 0 01501    01760 STO +0 60100 0 00675    01761 CLA +0 50000 0 00675    01762 SUB +0 40200 0 01456
 01763 TZE +0 10000 0 01765    01764 TPL +0 12000 0 02001
                     WRITE.(LINE, LENGTH)                                           043  LM00068
 01765 TSX +0 07400 4 00027    01766 TXH +3 00000 0 01452    01767 TXH +3 00000 0 00700
                     WHENEVER .NOT. OK, CLSOUT.                                     044  LM00069
 01770 ZET +0 52000 0 01460    01771 TRA +0 02000 0 01773    01772 TSX +0 07400 4 00030
                     LENGTH = READ.(LINE, BUFSIZ, EOF)                              045  LM00070
 01773 TSX +0 07400 4 00017    01774 TXH +3 00000 0 01452    01775 TXH +3 00000 0 00100    01776 TXH +3 00000 0 00044
 01777 STO +0 60100 0 00700
       NXT           CONTINUE                                                       046  LM00071
 02000 TRA +0 02000 0 01756
                 OR WHENEVER CWD .E. $INSERT$ .OR. CWD .E. $     I$                 047  LM00073
 02001 TRA +0 02000 0 03415    02002 CLA +0 50000 0 00106    02003 SUB +0 40200 0 01537    02004 TZE +0 10000 0 02010
 02005 CLA +0 50000 0 00106    02006 SUB +0 40200 0 01512    02007 TNZ -0 10000 0 02064
                   WRITE.(LINE, LENGTH)                                             048  LM00074
 02010 TSX +0 07400 4 00027    02011 TXH +3 00000 0 01452    02012 TXH +3 00000 0 00700
                   TRANSFER TO RETYPE                                               049  LM00075
 02013 TRA +0 02000 0 00062
      INSERT       WHENEVER .NOT. BRIEF, PRINT COMMENT $0I1N1P1U1T$                 050  LM00077
 02014 ZET +0 52000 0 00077    02015 TRA +0 02000 0 02022    02016 TSX +0 07400 4 00015    02017     +0 00000 0 00002
 02020     +0 03101 4 50147    02021     +0 16401 6 36060
       INPUT       COUNT = TYPEIN.(EDLIN, BUFSIZ)                                   051  LM00078
 02022 TSX +0 07400 4 00024    02023 TXH +3 00000 0 00663    02024 TXH +3 00000 0 00100    02025 STO +0 60100 0 00105
                   WHENEVER COUNT .L. 3 .AND. EDLIN(1) .E. MCHNG                    052  LM00079
                1     , TRANSFER TO EDIT                                            052  LM00080
 02026 CLA +0 50000 0 00662    02027 SUB +0 40200 0 01454    02030 TNZ -0 10000 0 02036    02031 CLA +0 50000 0 00105
 02032 SUB +0 40200 0 01503    02033 TZE +0 10000 0 02036    02034 TPL +0 12000 0 02036    02035 TRA +0 02000 0 00043
                   WRITE.(LINE, LENGTH)                                             053  LM00081
 02036 TSX +0 07400 4 00027    02037 TXH +3 00000 0 01452    02040 TXH +3 00000 0 00700
                   THROUGH MVLP, FOR I = 1, 1, I .G. COUNT                          054  LM00082
 02041 CLA +0 50000 0 01501    02042 STO +0 60100 0 00675    02043 TRA +0 02000 0 02047    02044 CLA +0 50000 0 00675
 02045 ADD +0 40000 0 01501    02046 STO +0 60100 0 00675    02047 CLA +0 50000 0 00675    02050 SUB +0 40200 0 00105
 02051 TZE +0 10000 0 02053    02052 TPL +0 12000 0 02060
       MVLP          LINE(I) = EDLIN(I)                                             055  LM00083
 02053 LXA +0 53400 1 00675    02054 LXA +0 53400 2 00675    02055 CLA +0 50000 2 00663    02056 STO +0 60100 1 01452
 02057 TRA +0 02000 0 02044
                   LENGTH = COUNT                                                   056  LM00084
 02060 CLA +0 50000 0 00105    02061 STO +0 60100 0 00700
                   TRANSFER TO INPUT                                                057  LM00085
 02062 TRA +0 02000 0 00050
                 OR WHENEVER CWD .E. $BOTTOM$ .OR. CWD .E. $     B$                 058  LM00087
 02063 TRA +0 02000 0 03415    02064 CLA +0 50000 0 00106    02065 SUB +0 40200 0 01531    02066 TZE +0 10000 0 02072
 02067 CLA +0 50000 0 00106    02070 SUB +0 40200 0 01506    02071 TNZ -0 10000 0 02104
                   WRITE.(LINE, LENGTH)                                             059  LM00088
 02072 TSX +0 07400 4 00027    02073 TXH +3 00000 0 01452    02074 TXH +3 00000 0 00700
                   LENGTH = 0                                                       060  LM00089
 02075 CLA +0 50000 0 01500    02076 STO +0 60100 0 00700
                   WHENEVER OK, BOTTOM.                                             061  LM00090
 02077 NZT -0 52000 0 01460    02100 TRA +0 02000 0 02102    02101 TSX +0 07400 4 00002
                   TRANSFER TO INSERT                                               062  LM00091
 02102 TRA +0 02000 0 00051
                 OR WHENEVER CWD .E. $APPEND$ .OR. CWD .E. $     A$                 063  LM00093
 02103 TRA +0 02000 0 03415    02104 CLA +0 50000 0 00106    02105 SUB +0 40200 0 01530    02106 TZE +0 10000 0 02112
 02107 CLA +0 50000 0 00106    02110 SUB +0 40200 0 01505    02111 TNZ -0 10000 0 02123
                   WHENEVER LENGTH .G. 0, LENGTH = LENGTH - 1                       064  LM00094
 02112 CLA +0 50000 0 00700    02113 SUB +0 40200 0 01500    02114 TZE +0 10000 0 02121    02115 TMI -0 12000 0 02121
 02116 CLA +0 50000 0 00700    02117 SUB +0 40200 0 01501    02120 STO +0 60100 0 00700
                   TRANSFER TO APPEND                                               065  LM00095
 02121 TRA +0 02000 0 00034
                 OR WHENEVER CWD .E. $RETYPE$ .OR. CWD .E. $     R$                 066  LM00097
 02122 TRA +0 02000 0 03415    02123 CLA +0 50000 0 00106    02124 SUB +0 40200 0 01545    02125 TZE +0 10000 0 02131
 02126 CLA +0 50000 0 00106    02127 SUB +0 40200 0 01514    02130 TNZ -0 10000 0 02157
       RETYPE      LENGTH = 0                                                       067  LM00098
 02131 CLA +0 50000 0 01500    02132 STO +0 60100 0 00700
      APPEND       THROUGH RPLC, FOR EDCT = EDCT + 1, 1, EDCT .G. COUNT             068  LM00099
 02133 CLA +0 50000 0 00111    02134 ADD +0 40000 0 01501    02135 STO +0 60100 0 00111    02136 TRA +0 02000 0 02142
 02137 CLA +0 50000 0 00111    02140 ADD +0 40000 0 01501    02141 STO +0 60100 0 00111    02142 CLA +0 50000 0 00111
 02143 SUB +0 40200 0 00105    02144 TZE +0 10000 0 02146    02145 TPL +0 12000 0 02156
                     LENGTH = LENGTH + 1                                            069  LM00100
 02146 CLA +0 50000 0 00700    02147 ADD +0 40000 0 01501    02150 STO +0 60100 0 00700
       RPLC          LINE(LENGTH) = EDLIN(EDCT)                                     070  LM00101
 02151 LXA +0 53400 1 00700    02152 LXA +0 53400 2 00111    02153 CLA +0 50000 2 00663    02154 STO +0 60100 1 01452
 02155 TRA +0 02000 0 02137
                 OR WHENEVER CWD .E. $ ERASE$ .OR. CWD .E. $     E$                 071  LM00103
 02156 TRA +0 02000 0 03415    02157 CLA +0 50000 0 00106    02160 SUB +0 40200 0 01534    02161 TZE +0 10000 0 02165
 02162 CLA +0 50000 0 00106    02163 SUB +0 40200 0 01516    02164 TNZ -0 10000 0 02203
                   WHENEVER EDLIN(EDCT+1) .NE. BLANK, SETERS.(EDLIN(EDCT+1))        072  LM00104
 02165 CLA +0 50000 0 00111    02166 ADD +0 40000 0 01501    02167 PAX +0 73400 1 00000    02170 CLA +0 50000 1 00663
 02171 SUB +0 40200 0 00076    02172 TZE +0 10000 0 02202    02173 CLA +0 50000 0 00111    02174 ADD +0 40000 0 01501
 02175 SUB +0 40200 0 02176    02176 TXH +3 00000 0 00663    02177 STA +0 62100 0 02201    02200 TSX +0 07400 4 00022
 02201 TXH +3 00000 0 00000
                 OR WHENEVER CWD .E. $  KILL$ .OR. CWD .E. $     K$                 073  LM00106
 02202 TRA +0 02000 0 03415    02203 CLA +0 50000 0 00106    02204 SUB +0 40200 0 01540    02205 TZE +0 10000 0 02211
 02206 CLA +0 50000 0 00106    02207 SUB +0 40200 0 01522    02210 TNZ -0 10000 0 02227
                   WHENEVER EDLIN(EDCT+1) .NE. BLANK, SETKIL.(EDLIN(EDCT+1))        074  LM00107
 02211 CLA +0 50000 0 00111    02212 ADD +0 40000 0 01501    02213 PAX +0 73400 1 00000    02214 CLA +0 50000 1 00663
 02215 SUB +0 40200 0 00076    02216 TZE +0 10000 0 02226    02217 CLA +0 50000 0 00111    02220 ADD +0 40000 0 01501
 02221 SUB +0 40200 0 02222    02222 TXH +3 00000 0 00663    02223 STA +0 62100 0 02225    02224 TSX +0 07400 4 00023
 02225 TXH +3 00000 0 00000
                 OR WHENEVER CWD .E. $ BREAK$ .OR. CWD .E. $    BR$                 075  LM00111
 02226 TRA +0 02000 0 03415    02227 CLA +0 50000 0 00106    02230 SUB +0 40200 0 01526    02231 TZE +0 10000 0 02235
 02232 CLA +0 50000 0 00106    02233 SUB +0 40200 0 01515    02234 TNZ -0 10000 0 02260
                   WHENEVER EDLIN(EDCT) .E. RETURN                                  076  LM00112
 02235 LXA +0 53400 1 00111    02236 CLA +0 50000 1 00663    02237 SUB +0 40200 0 01467    02240 TNZ -0 10000 0 02244
                     MCHNG = RETURN                                                 077  LM00113
 02241 CLA +0 50000 0 01467    02242 STO +0 60100 0 01454
                   OR WHENEVER EDLIN(EDCT+1) .NE. BLANK                             078  LM00114
 02243 TRA +0 02000 0 02257    02244 CLA +0 50000 0 00111    02245 ADD +0 40000 0 01501    02246 PAX +0 73400 1 00000
 02247 CLA +0 50000 1 00663    02250 SUB +0 40200 0 00076    02251 TZE +0 10000 0 02257
                     MCHNG = EDLIN(EDCT+1)                                          079  LM00115
 02252 CLA +0 50000 0 00111    02253 ADD +0 40000 0 01501    02254 PAX +0 73400 2 00000    02255 CLA +0 50000 2 00663
 02256 STO +0 60100 0 01454
                   END OF CONDITIONAL                                               080  LM00116
                 OR WHENEVER CWD .E. $VERIFY$ .OR. CWD .E. $     V$                 081  LM00118
 02257 TRA +0 02000 0 03415    02260 CLA +0 50000 0 00106    02261 SUB +0 40200 0 01551    02262 TZE +0 10000 0 02266
 02263 CLA +0 50000 0 00106    02264 SUB +0 40200 0 01554    02265 TNZ -0 10000 0 02305
                   CWD = GET.(0)                                                    082  LM00119
 02266 TSX +0 07400 4 00031    02267 TXH +3 00000 0 01500    02270 STO +0 60100 0 00106
                   WHENEVER CWD .E. $    ON$                                        083  LM00120
 02271 CLA +0 50000 0 00106    02272 SUB +0 40200 0 01527    02273 TNZ -0 10000 0 02277
                     BRIEF = 0B                                                     084  LM00121
 02274 CLA +0 50000 0 01500    02275 STO +0 60100 0 00077
                   OR WHENEVER CWD .E. $   OFF$                                     085  LM00122
 02276 TRA +0 02000 0 02304    02277 CLA +0 50000 0 00106    02300 SUB +0 40200 0 01525    02301 TNZ -0 10000 0 02304
                     BRIEF = 1B                                                     086  LM00123
 02302 CLA +0 50000 0 01501    02303 STO +0 60100 0 00077
                   END OF CONDITIONAL                                               087  LM00124
                 OR WHENEVER CWD .E. $LOCATE$ .OR. CWD .E. $     L$                 088  LM00126
 02304 TRA +0 02000 0 03415    02305 CLA +0 50000 0 00106    02306 SUB +0 40200 0 01541    02307 TZE +0 10000 0 02313
 02310 CLA +0 50000 0 00106    02311 SUB +0 40200 0 01513    02312 TNZ -0 10000 0 02317
                   LOCATE = 1                                                       089  LM00127
 02313 CLA +0 50000 0 01501    02314 STO +0 60100 0 01453
                   TRANSFER TO FIND                                                 090  LM00128
 02315 TRA +0 02000 0 00045
                 OR WHENEVER CWD .E. $  FIND$ .OR. CWD .E. $     F$                 091  LM00130
 02316 TRA +0 02000 0 03415    02317 CLA +0 50000 0 00106    02320 SUB +0 40200 0 01535    02321 TZE +0 10000 0 02325
 02322 CLA +0 50000 0 00106    02323 SUB +0 40200 0 01521    02324 TNZ -0 10000 0 02510
                   LOCATE = 0                                                       092  LM00131
 02325 CLA +0 50000 0 01500    02326 STO +0 60100 0 01453
      FIND         WHENEVER EDCT+1 .GE. COUNT                                       093  LM00132
 02327 CLA +0 50000 0 00111    02330 ADD +0 40000 0 01501    02331 SUB +0 40200 0 00105    02332 TZE +0 10000 0 02334
 02333 TMI -0 12000 0 02341
                     COUNT = OCOUNT                                                 094  LM00133
 02334 CLA +0 50000 0 01457    02335 STO +0 60100 0 00105
                     EDCT = EDCT + 1                                                095  LM00134
 02336 CLA +0 50000 0 00111    02337 ADD +0 40000 0 01501    02340 STO +0 60100 0 00111
                   END OF CONDITIONAL                                               096  LM00135
                   OCOUNT = COUNT                                                   097  LM00136
 02341 CLA +0 50000 0 00105    02342 STO +0 60100 0 01457
       NTFND       WRITE.(LINE, LENGTH)                                             098  LM00137
 02343 TSX +0 07400 4 00027    02344 TXH +3 00000 0 01452    02345 TXH +3 00000 0 00700
                   WHENEVER  .NOT. OK, CLSOUT.                                      099  LM00138
 02346 ZET +0 52000 0 01460    02347 TRA +0 02000 0 02351    02350 TSX +0 07400 4 00030
                   LENGTH = READ.(LINE, BUFSIZ, EOF)                                100  LM00139
 02351 TSX +0 07400 4 00017    02352 TXH +3 00000 0 01452    02353 TXH +3 00000 0 00100    02354 TXH +3 00000 0 00044
 02355 STO +0 60100 0 00700
                   THROUGH LOCSCN, FOR K=0, 1,K.G.LOCATE*(LENGTH-COUNT+EDCT)        101  LM00140
 02356 CLA +0 50000 0 01500    02357 STO +0 60100 0 00677    02360 TRA +0 02000 0 02364    02361 CLA +0 50000 0 00677
 02362 ADD +0 40000 0 01501    02363 STO +0 60100 0 00677    02364 CLA +0 50000 0 00700    02365 SUB +0 40200 0 00105
 02366 ADD +0 40000 0 00111    02367 XCA +0 13100 0 00000    02370 MPY +0 20000 0 01453    02371 XCA +0 13100 0 00000
 02372 CHS +0 76000 0 00002    02373 ADD +0 40000 0 00677    02374 TZE +0 10000 0 02376    02375 TPL +0 12000 0 02506
                     J = K                                                          102  LM00141
 02376 CLA +0 50000 0 00677    02377 STO +0 60100 0 00676
                     THROUGH LOOK, FOR I = EDCT+1, 1, I .GE. COUNT                  103  LM00142
 02400 CLA +0 50000 0 00111    02401 ADD +0 40000 0 01501    02402 STO +0 60100 0 00675    02403 TRA +0 02000 0 02407
 02404 CLA +0 50000 0 00675    02405 ADD +0 40000 0 01501    02406 STO +0 60100 0 00675    02407 CLA +0 50000 0 00675
 02410 SUB +0 40200 0 00105    02411 TZE +0 10000 0 02475    02412 TPL +0 12000 0 02475
                       J = J + 1                                                    104  LM00143
 02413 CLA +0 50000 0 00676    02414 ADD +0 40000 0 01501    02415 STO +0 60100 0 00676
       TAGN            WHENEVER LINE(J) .E. EDLIN(I), TRANSFER TO LOOK              105  LM00144
 02416 LXA +0 53400 1 00676    02417 LXA +0 53400 2 00675    02420 CLA +0 50000 1 01452    02421 SUB +0 40200 2 00663
 02422 TNZ -0 10000 0 02424    02423 TRA +0 02000 0 00053
                       WHENEVER (LINE(J).E. TAB) .AND. (EDLIN(I) .E. BLANK)         106  LM00145
                1       , TRANSFER TO LOOK                                          106  LM00146
 02424 LXA +0 53400 1 00675    02425 CLA +0 50000 1 00663    02426 SUB +0 40200 0 00076    02427 TNZ -0 10000 0 02435
 02430 LXA +0 53400 1 00676    02431 CLA +0 50000 1 01452    02432 SUB +0 40200 0 01473    02433 TNZ -0 10000 0 02435
 02434 TRA +0 02000 0 00053
                       WHENEVER EDLIN(I-1) .NE. BLANK .OR. I .E. EDCT + 1           107  LM00147
                1       , TRANSFER TO LOCSCN                                        107  LM00148
 02435 CLA +0 50000 0 00111    02436 ADD +0 40000 0 01501    02437 CHS +0 76000 0 00002    02440 ADD +0 40000 0 00675
 02441 TZE +0 10000 0 02450    02442 CLA +0 50000 0 00675    02443 SUB +0 40200 0 01501    02444 PAX +0 73400 1 00000
 02445 CLA +0 50000 1 00663    02446 SUB +0 40200 0 00076    02447 TZE +0 10000 0 02451    02450 TRA +0 02000 0 00052
                       WHENEVER LINE(J) .NE. BLANK .AND. LINE(J) .NE. TAB           108  LM00149
                1       , TRANSFER TO LOCSCN                                        108  LM00150
 02451 LXA +0 53400 1 00676    02452 CLA +0 50000 1 01452    02453 SUB +0 40200 0 01473    02454 TZE +0 10000 0 02461
 02455 CLA +0 50000 1 01452    02456 SUB +0 40200 0 00076    02457 TZE +0 10000 0 02461    02460 TRA +0 02000 0 00052
                       J = J + 1                                                    109  LM00151
 02461 CLA +0 50000 0 00676    02462 ADD +0 40000 0 01501    02463 STO +0 60100 0 00676
                       TRANSFER TO TAGN                                             110  LM00152
 02464 TRA +0 02000 0 00067
       LOOK            WHENEVER I .E. EDCT+1, FNDST = J                             111  LM00153
 02465 CLA +0 50000 0 00111    02466 ADD +0 40000 0 01501    02467 CHS +0 76000 0 00002    02470 ADD +0 40000 0 00675
 02471 TNZ -0 10000 0 02474    02472 CLA +0 50000 0 00676    02473 STO +0 60100 0 00670    02474 TRA +0 02000 0 02404
                     FNDND = J                                                      112  LM00154
 02475 CLA +0 50000 0 00676    02476 STO +0 60100 0 00667
                     WHENEVER .NOT. BRIEF, PRNT.(FNDST, FNDND)                      113  LM00155
 02477 ZET +0 52000 0 00077    02500 TRA +0 02000 0 02504    02501 TSX +0 07400 4 00032    02502 TXH +3 00000 0 00670
 02503 TXH +3 00000 0 00667
                     TRANSFER TO NXRQ                                               114  LM00156
 02504 TRA +0 02000 0 00060
        LOCSCN       CONTINUE                                                       115  LM00157
 02505 TRA +0 02000 0 02361
                   TRANSFER TO NTFND                                                116  LM00158
 02506 TRA +0 02000 0 00057
                 OR WHENEVER CWD .E. $ PRINT$ .OR. CWD .E. $     P$                 117  LM00160
 02507 TRA +0 02000 0 03415    02510 CLA +0 50000 0 00106    02511 SUB +0 40200 0 01543    02512 TZE +0 10000 0 02516
 02513 CLA +0 50000 0 00106    02514 SUB +0 40200 0 01517    02515 TNZ -0 10000 0 02564
                   NPRNT = BIN.(GET.(0))                                            118  LM00161
 02516 TSX +0 07400 4 00031    02517 TXH +3 00000 0 01500    02520 STO +0 60100 0 03710    02521 TSX +0 07400 4 00001
 02522 TXH +3 00000 0 03710    02523 STO +0 60100 0 01455
      PNTLP        WHENEVER LENGTH .E. 0                                            119  LM00162
 02524 CLA +0 50000 0 00700    02525 SUB +0 40200 0 01500    02526 TNZ -0 10000 0 02540
                     PRINT COMMENT $0N1O0 1C1U1R1R1E1N1T0 1L1I1N1E0.$               120  LM00163
 02527 TSX +0 07400 4 00015    02530     +0 00000 0 00006    02531     +0 04501 4 60060    02532     +0 12301 6 40151
 02533     +0 15101 2 50145    02534     +0 16300 6 00143    02535     +0 13101 4 50125    02536     +0 03360 6 06060
                   OTHERWISE                                                        121  LM00164
 02537 TRA +0 02000 0 02543
                     TYPOUT.(LINE, LENGTH)                                          122  LM00165
 02540 TSX +0 07400 4 00025    02541 TXH +3 00000 0 01452    02542 TXH +3 00000 0 00700
                   END OF CONDITIONAL                                               123  LM00166
                   NPRNT = NPRNT - 1                                                124  LM00167
 02543 CLA +0 50000 0 01455    02544 SUB +0 40200 0 01501    02545 STO +0 60100 0 01455
                   WHENEVER NPRNT .G. 0                                             125  LM00168
 02546 CLA +0 50000 0 01455    02547 SUB +0 40200 0 01500    02550 TZE +0 10000 0 02563    02551 TMI -0 12000 0 02563
                     WRITE.(LINE, LENGTH)                                           126  LM00169
 02552 TSX +0 07400 4 00027    02553 TXH +3 00000 0 01452    02554 TXH +3 00000 0 00700
                     LENGTH = READ.(LINE, BUFSIZ, EOF)                              127  LM00170
 02555 TSX +0 07400 4 00017    02556 TXH +3 00000 0 01452    02557 TXH +3 00000 0 00100    02560 TXH +3 00000 0 00044
 02561 STO +0 60100 0 00700
                     TRANSFER TO PNTLP                                              128  LM00171
 02562 TRA +0 02000 0 00061
                   END OF CONDITIONAL                                               129  LM00172
                 OR WHENEVER CWD .E. $   TOP$ .OR. CWD .E. $     T$                 130  LM00174
 02563 TRA +0 02000 0 03415    02564 CLA +0 50000 0 00106    02565 SUB +0 40200 0 01550    02566 TZE +0 10000 0 02572
 02567 CLA +0 50000 0 00106    02570 SUB +0 40200 0 01552    02571 TNZ -0 10000 0 02602
       TOPLP       WRITE.(LINE, LENGTH)                                             131  LM00175
 02572 TSX +0 07400 4 00027    02573 TXH +3 00000 0 01452    02574 TXH +3 00000 0 00700
                   WHENEVER OK, BOTTOM.                                             132  LM00176
 02575 NZT -0 52000 0 01460    02576 TRA +0 02000 0 02600    02577 TSX +0 07400 4 00002
                   CLSOUT.                                                          133  LM00177
 02600 TSX +0 07400 4 00030
                 OR WHENEVER CWD .E. $CHANGE$ .OR. CWD .E. $     C$                 134  LM00179
 02601 TRA +0 02000 0 03415    02602 CLA +0 50000 0 00106    02603 SUB +0 40200 0 01532    02604 TZE +0 10000 0 02610
 02605 CLA +0 50000 0 00106    02606 SUB +0 40200 0 01510    02607 TNZ -0 10000 0 03172
                   EDCT = EDCT+1                                                    135  LM00185
 02610 CLA +0 50000 0 00111    02611 ADD +0 40000 0 01501    02612 STO +0 60100 0 00111
                   QUOTE = EDLIN(EDCT)                                              136  LM00186
 02613 LXA +0 53400 2 00111    02614 CLA +0 50000 2 00663    02615 STO +0 60100 0 01464
                   STR1 = EDCT                                                      137  LM00187
 02616 CLA +0 50000 0 00111    02617 STO +0 60100 0 01471
      QLOOP        THROUGH QLOOP, FOR EDCT = EDCT+1, 1,                             138  LM00188
                1     (EDLIN(EDCT) .E. QUOTE) .OR. (EDCT .GE. COUNT)                138  LM00189
 02620 CLA +0 50000 0 00111    02621 ADD +0 40000 0 01501    02622 STO +0 60100 0 00111    02623 TRA +0 02000 0 02627
 02624 CLA +0 50000 0 00111    02625 ADD +0 40000 0 01501    02626 STO +0 60100 0 00111    02627 CLA +0 50000 0 00111
 02630 SUB +0 40200 0 00105    02631 TZE +0 10000 0 02640    02632 TPL +0 12000 0 02640    02633 LXA +0 53400 1 00111
 02634 CLA +0 50000 1 00663    02635 SUB +0 40200 0 01464    02636 TZE +0 10000 0 02640    02637 TRA +0 02000 0 02624
                   STR2 = EDCT                                                      139  LM00190
 02640 CLA +0 50000 0 00111    02641 STO +0 60100 0 01472
      QLOOP1       THROUGH QLOOP1, FOR EDCT = EDCT+1, 1,                            140  LM00191
                1     (EDLIN(EDCT) .E. QUOTE) .OR. (EDCT .GE. COUNT)                140  LM00192
 02642 CLA +0 50000 0 00111    02643 ADD +0 40000 0 01501    02644 STO +0 60100 0 00111    02645 TRA +0 02000 0 02651
 02646 CLA +0 50000 0 00111    02647 ADD +0 40000 0 01501    02650 STO +0 60100 0 00111    02651 CLA +0 50000 0 00111
 02652 SUB +0 40200 0 00105    02653 TZE +0 10000 0 02662    02654 TPL +0 12000 0 02662    02655 LXA +0 53400 1 00111
 02656 CLA +0 50000 1 00663    02657 SUB +0 40200 0 01464    02660 TZE +0 10000 0 02662    02661 TRA +0 02000 0 02646
                   EST2 = EDCT                                                      141  LM00193
 02662 CLA +0 50000 0 00111    02663 STO +0 60100 0 00664
                   EDCT = EDCT + 1                                                  142  LM00197
 02664 CLA +0 50000 0 00111    02665 ADD +0 40000 0 01501    02666 STO +0 60100 0 00111
                   TEM = 1                                                          143  LM00198
 02667 CLA +0 50000 0 01501    02670 STO +0 60100 0 01474
                   GLOBAL = 0B                                                      144  LM00199
 02671 CLA +0 50000 0 01500    02672 STO +0 60100 0 00672
      ARGLP        CWD = GET.(0)                                                    145  LM00200
 02673 TSX +0 07400 4 00031    02674 TXH +3 00000 0 01500    02675 STO +0 60100 0 00106
                   WHENEVER CWD .E. $ $                                             146  LM00201
 02676 CLA +0 50000 0 00106    02677 SUB +0 40200 0 01546    02700 TNZ -0 10000 0 02703
                     TRANSFER TO SHIFT                                              147  LM00202
 02701 TRA +0 02000 0 00063
                   OR WHENEVER CWD .E. $     G$                                     148  LM00203
 02702 TRA +0 02000 0 02721    02703 CLA +0 50000 0 00106    02704 SUB +0 40200 0 01536    02705 TNZ -0 10000 0 02716
                     WHENEVER STR2 .NE. STR1+1, GLOBAL = 1B                         149  LM00204
 02706 CLA +0 50000 0 01471    02707 ADD +0 40000 0 01501    02710 CHS +0 76000 0 00002    02711 ADD +0 40000 0 01472
 02712 TZE +0 10000 0 02715    02713 CLA +0 50000 0 01501    02714 STO +0 60100 0 00672
                   OTHERWISE                                                        150  LM00205
 02715 TRA +0 02000 0 02721
                     TEM = BIN.(CWD)                                                151  LM00206
 02716 TSX +0 07400 4 00001    02717 TXH +3 00000 0 00106    02720 STO +0 60100 0 01474
                   END OF CONDITIONAL                                               152  LM00207
                   TRANSFER TO ARGLP                                                153  LM00208
 02721 TRA +0 02000 0 00035
       SHIFT       THROUGH MVDWN, FOR I = LENGTH, -1, I .L. 1                       154  LM00212
 02722 CLA +0 50000 0 00700    02723 STO +0 60100 0 00675    02724 TRA +0 02000 0 02730    02725 CLS +0 50200 0 01501
 02726 ADD +0 40000 0 00675    02727 STO +0 60100 0 00675    02730 CLA +0 50000 0 00675    02731 SUB +0 40200 0 01501
 02732 TZE +0 10000 0 02734    02733 TMI -0 12000 0 02744
      MVDWN          LINE(BUFSIZ+I-LENGTH) = LINE(I)                                155  LM00213
 02734 CLA +0 50000 0 00100    02735 ADD +0 40000 0 00675    02736 SUB +0 40200 0 00700    02737 PAX +0 73400 1 00000
 02740 LXA +0 53400 2 00675    02741 CLA +0 50000 2 01452    02742 STO +0 60100 1 01452    02743 TRA +0 02000 0 02725
                   DOWN = BUFSIZ-LENGTH+1                                           156  LM00214
 02744 CLA +0 50000 0 00100    02745 SUB +0 40200 0 00700    02746 ADD +0 40000 0 01501    02747 STO +0 60100 0 00110
                   UP = 0                                                           157  LM00215
 02750 CLA +0 50000 0 01500    02751 STO +0 60100 0 01476
                   CHNG = 0B                                                        158  LM00216
 02752 CLA +0 50000 0 01500    02753 STO +0 60100 0 00102
                   CHST = LENGTH + 1                                                159  LM00217
 02754 CLA +0 50000 0 00700    02755 ADD +0 40000 0 01501    02756 STO +0 60100 0 00103
                   CHEND = LENGTH                                                   160  LM00218
 02757 CLA +0 50000 0 00700    02760 STO +0 60100 0 00101
      SRCHLP       UP = UP + 1                                                      161  LM00222
 02761 CLA +0 50000 0 01476    02762 ADD +0 40000 0 01501    02763 STO +0 60100 0 01476
      SRTST          WHENEVER DOWN .G. BUFSIZ, TRANSFER TO GIVUP                    162  LM00223
 02764 CLA +0 50000 0 00110    02765 SUB +0 40200 0 00100    02766 TZE +0 10000 0 02771    02767 TMI -0 12000 0 02771
 02770 TRA +0 02000 0 00046
                     J = DOWN                                                       163  LM00224
 02771 CLA +0 50000 0 00110    02772 STO +0 60100 0 00676
                     THROUGH COMPAR, FOR I = STR1+1, 1, I .GE. STR2                 164  LM00225
 02773 CLA +0 50000 0 01471    02774 ADD +0 40000 0 01501    02775 STO +0 60100 0 00675    02776 TRA +0 02000 0 03002
 02777 CLA +0 50000 0 00675    03000 ADD +0 40000 0 01501    03001 STO +0 60100 0 00675    03002 CLA +0 50000 0 00675
 03003 SUB +0 40200 0 01472    03004 TZE +0 10000 0 03025    03005 TPL +0 12000 0 03025
                       WHENEVER J .GE. BUFSIZ, TRANSFER TO GIVUP                    165  LM00226
 03006 CLA +0 50000 0 00676    03007 SUB +0 40200 0 00100    03010 TZE +0 10000 0 03012    03011 TMI -0 12000 0 03013
 03012 TRA +0 02000 0 00046
                       WHENEVER EDLIN(I) .NE. LINE(J), TRANSFER TO NOCOMP           166  LM00227
 03013 LXA +0 53400 1 00675    03014 LXA +0 53400 2 00676    03015 CLA +0 50000 1 00663    03016 SUB +0 40200 2 01452
 03017 TZE +0 10000 0 03021    03020 TRA +0 02000 0 00055
       COMPAR          J = J + 1                                                    167  LM00228
 03021 CLA +0 50000 0 00676    03022 ADD +0 40000 0 01501    03023 STO +0 60100 0 00676    03024 TRA +0 02000 0 02777
                     TRANSFER TO STFND                                              168  LM00229
 03025 TRA +0 02000 0 00066
      NOCOMP         LINE(UP) = LINE(DOWN)                                          169  LM00231
 03026 LXA +0 53400 1 01476    03027 LXA +0 53400 2 00110    03030 CLA +0 50000 2 01452    03031 STO +0 60100 1 01452
                     DOWN = DOWN + 1                                                170  LM00232
 03032 CLA +0 50000 0 00110    03033 ADD +0 40000 0 01501    03034 STO +0 60100 0 00110
                   TRANSFER TO SRCHLP                                               171  LM00233
 03035 TRA +0 02000 0 00064
      STFND        CHNG = 1B                                                        172  LM00237
 03036 CLA +0 50000 0 01501    03037 STO +0 60100 0 00102
                   DOWN = DOWN + (STR2-STR1-1)                                      173  LM00238
 03040 CLA +0 50000 0 01472    03041 SUB +0 40200 0 01471    03042 SUB +0 40200 0 01501    03043 ADD +0 40000 0 00110
 03044 STO +0 60100 0 00110
                   CHST = UP                                                        174  LM00239
 03045 CLA +0 50000 0 01476    03046 STO +0 60100 0 00103
                   THROUGH REPLAC, FOR I = STR2 + 1, 1, I .GE. EST2                 175  LM00240
 03047 CLA +0 50000 0 01472    03050 ADD +0 40000 0 01501    03051 STO +0 60100 0 00675    03052 TRA +0 02000 0 03056
 03053 CLA +0 50000 0 00675    03054 ADD +0 40000 0 01501    03055 STO +0 60100 0 00675    03056 CLA +0 50000 0 00675
 03057 SUB +0 40200 0 00664    03060 TZE +0 10000 0 03077    03061 TPL +0 12000 0 03077
                     LINE(UP) = EDLIN(I)                                            176  LM00241
 03062 LXA +0 53400 1 01476    03063 LXA +0 53400 2 00675    03064 CLA +0 50000 2 00663    03065 STO +0 60100 1 01452
                     UP = UP + 1                                                    177  LM00242
 03066 CLA +0 50000 0 01476    03067 ADD +0 40000 0 01501    03070 STO +0 60100 0 01476
       REPLAC        WHENEVER UP .G. DOWN, TRANSFER TO GIVUP                        178  LM00243
 03071 CLA +0 50000 0 01476    03072 SUB +0 40200 0 00110    03073 TZE +0 10000 0 03076    03074 TMI -0 12000 0 03076
 03075 TRA +0 02000 0 00046    03076 TRA +0 02000 0 03053
                   CHEND = UP - 1                                                   179  LM00244
 03077 CLA +0 50000 0 01476    03100 SUB +0 40200 0 01501    03101 STO +0 60100 0 00101
                   WHENEVER GLOBAL, TRANSFER TO SRTST                               180  LM00245
 03102 NZT -0 52000 0 00672    03103 TRA +0 02000 0 03105    03104 TRA +0 02000 0 00065
      GIVUP        THROUGH FILOUT, FOR UP = UP, 1, DOWN .G. BUFSIZ                  181  LM00249
 03105 CLA +0 50000 0 01476    03106 STO +0 60100 0 01476    03107 TRA +0 02000 0 03113    03110 CLA +0 50000 0 01476
 03111 ADD +0 40000 0 01501    03112 STO +0 60100 0 01476    03113 CLA +0 50000 0 00110    03114 SUB +0 40200 0 00100
 03115 TZE +0 10000 0 03117    03116 TPL +0 12000 0 03127
                     LINE(UP) = LINE(DOWN)                                          182  LM00250
 03117 LXA +0 53400 1 01476    03120 LXA +0 53400 2 00110    03121 CLA +0 50000 2 01452    03122 STO +0 60100 1 01452
      FILOUT         DOWN = DOWN + 1                                                183  LM00251
 03123 CLA +0 50000 0 00110    03124 ADD +0 40000 0 01501    03125 STO +0 60100 0 00110    03126 TRA +0 02000 0 03110
                   LENGTH = UP - 1                                                  184  LM00252
 03127 CLA +0 50000 0 01476    03130 SUB +0 40200 0 01501    03131 STO +0 60100 0 00700
                   TEM = TEM - 1                                                    185  LM00253
 03132 CLA +0 50000 0 01474    03133 SUB +0 40200 0 01501    03134 STO +0 60100 0 01474
                   WHENEVER .NOT. BRIEF .AND. (TEM .G. 0 .THEN. CHNG)               186  LM00254
                1       , PRNT.(CHST, CHEND)                                        186  LM00255
 03135 ZET +0 52000 0 00102    03136 TRA +0 02000 0 03143    03137 CLA +0 50000 0 01474    03140 SUB +0 40200 0 01500
 03141 TZE +0 10000 0 03143    03142 TPL +0 12000 0 03150    03143 ZET +0 52000 0 00077    03144 TRA +0 02000 0 03150
 03145 TSX +0 07400 4 00032    03146 TXH +3 00000 0 00103    03147 TXH +3 00000 0 00101
                   CANON.(LINE, LENGTH, BUFSIZ)                                     187  LM00256
 03150 TSX +0 07400 4 00003    03151 TXH +3 00000 0 01452    03152 TXH +3 00000 0 00700    03153 TXH +3 00000 0 00100
                   WHENEVER TEM .G. 0                                               188  LM00257
 03154 CLA +0 50000 0 01474    03155 SUB +0 40200 0 01500    03156 TZE +0 10000 0 03171    03157 TMI -0 12000 0 03171
                     WRITE.(LINE, LENGTH)                                           189  LM00258
 03160 TSX +0 07400 4 00027    03161 TXH +3 00000 0 01452    03162 TXH +3 00000 0 00700
                     LENGTH = READ.(LINE, BUFSIZ, EOF)                              190  LM00259
 03163 TSX +0 07400 4 00017    03164 TXH +3 00000 0 01452    03165 TXH +3 00000 0 00100    03166 TXH +3 00000 0 00044
 03167 STO +0 60100 0 00700
                     TRANSFER TO SHIFT                                              191  LM00260
 03170 TRA +0 02000 0 00063
                   END OF CONDITIONAL                                               192  LM00261
                 OR WHENEVER CWD .E. $ SPLIT$ .OR. CWD .E. $     S$                 193  LM00265
 03171 TRA +0 02000 0 03415    03172 CLA +0 50000 0 00106    03173 SUB +0 40200 0 01547    03174 TZE +0 10000 0 03200
 03175 CLA +0 50000 0 00106    03176 SUB +0 40200 0 01553    03177 TNZ -0 10000 0 03261
                   TOPNAM = GET.(0)                                                 194  LM00266
 03200 TSX +0 07400 4 00031    03201 TXH +3 00000 0 01500    03202 STO +0 60100 0 01475
                   WHENEVER TOPNAM .E. $ $, TRANSFER TO NONAME                      195  LM00267
 03203 CLA +0 50000 0 01475    03204 SUB +0 40200 0 01546    03205 TNZ -0 10000 0 03207    03206 TRA +0 02000 0 00056
                   WHENEVER TOPNAM .E. OLDNAM .AND. FSTPAS                          196  LM00268
 03207 NZT -0 52000 0 00671    03210 TRA +0 02000 0 03227    03211 CLA +0 50000 0 01475    03212 SUB +0 40200 0 01461
 03213 TNZ -0 10000 0 03227
      NEWNM          PRINT COMMENT $0P1L1E1A1S1E0 1U1S1E0 1A1N1O1T1H1E1R0 1N1A      197  LM00269
                11M1E0.$                                                            197  LM00270
 03214 TSX +0 07400 4 00015    03215     +0 00000 0 00010    03216     +0 04701 4 30125    03217     +0 12101 6 20125
 03220     +0 06001 6 40162    03221     +0 12500 6 00121    03222     +0 14501 4 60163    03223     +0 13001 2 50151
 03224     +0 06001 4 50121    03225     +0 14401 2 50033
                     TRANSFER TO NXRQ                                               198  LM00271
 03226 TRA +0 02000 0 00060
                   END OF CONDITIONAL                                               199  LM00272
                   SECNAM = GET.(0)                                                 200  LM00273
 03227 TSX +0 07400 4 00031    03230 TXH +3 00000 0 01500    03231 STO +0 60100 0 01470
                 WHENEVER SECNAM .E. $ $, SECNAM = OLDSEC                           201  LM00274
 03232 CLA +0 50000 0 01470    03233 SUB +0 40200 0 01546    03234 TNZ -0 10000 0 03237    03235 CLA +0 50000 0 01462
 03236 STO +0 60100 0 01470
                   CLRNAM.(TOPNAM, SECNAM, NEWNM, 1B)                               202  LM00275
 03237 TSX +0 07400 4 00006    03240 TXH +3 00000 0 01475    03241 TXH +3 00000 0 01470    03242 TXH +3 00000 0 00054
 03243 TXH +3 00000 0 01501
                   CLOSEW.                                                          203  LM00276
 03244 TSX +0 07400 4 00005
                   RENAME.(IN, FI, TOPNAM, SECNAM)                                  204  LM00277
 03245 TSX +0 07400 4 00020    03246 TXH +3 00000 0 00674    03247 TXH +3 00000 0 00666    03250 TXH +3 00000 0 01475
 03251 TXH +3 00000 0 01470
                   ASSIGN.(IN, FI)                                                  205  LM00278
 03252 TSX +0 07400 4 00000    03253 TXH +3 00000 0 00674    03254 TXH +3 00000 0 00666
                   OLDNAM = FENCE                                                   206  LM00279
 03255 CLA +0 50000 0 00665    03256 STO +0 60100 0 01461
                   TRANSFER TO TOPLP                                                207  LM00280
 03257 TRA +0 02000 0 00070
                 OR WHENEVER CWD .E. $  QUIT$ .OR. CWD .E. $     Q$                 208  LM00282
 03260 TRA +0 02000 0 03415    03261 CLA +0 50000 0 00106    03262 SUB +0 40200 0 01544    03263 TZE +0 10000 0 03267
 03264 CLA +0 50000 0 00106    03265 SUB +0 40200 0 01524    03266 TNZ -0 10000 0 03303
                   ENDRD.                                                           209  LM00283
 03267 TSX +0 07400 4 00011
                   CLOSEW.                                                          210  LM00284
 03270 TSX +0 07400 4 00005
                   DELFIL.(IN1, FI, DLQ1)                                           211  LM00285
 03271 TSX +0 07400 4 00010    03272 TXH +3 00000 0 00673    03273 TXH +3 00000 0 00666    03274 TXH +3 00000 0 00041
      DLQ1         DELFIL.(IN, FI, DLQ2)                                            212  LM00286
 03275 TSX +0 07400 4 00010    03276 TXH +3 00000 0 00674    03277 TXH +3 00000 0 00666    03300 TXH +3 00000 0 00042
      DLQ2         TRANSFER TO CHN                                                  213  LM00287
 03301 TRA +0 02000 0 00036
                 OR WHENEVER CWD .E. $  FILE$                                       214  LM00289
 03302 TRA +0 02000 0 03415    03303 CLA +0 50000 0 00106    03304 SUB +0 40200 0 01520    03305 TNZ -0 10000 0 03403
                   PRINAM = GET.(0)                                                 215  LM00290
 03306 TSX +0 07400 4 00031    03307 TXH +3 00000 0 01500    03310 STO +0 60100 0 01463
                   CLRSW = 1B                                                       216  LM00291
 03311 CLA +0 50000 0 01501    03312 STO +0 60100 0 00104
                   WHENEVER PRINAM .E. $ $                                          217  LM00292
 03313 CLA +0 50000 0 01463    03314 SUB +0 40200 0 01546    03315 TNZ -0 10000 0 03325
                     PRINAM = OLDNAM                                                218  LM00293
 03316 CLA +0 50000 0 01461    03317 STO +0 60100 0 01463
                     SECNAM = OLDSEC                                                219  LM00294
 03320 CLA +0 50000 0 01462    03321 STO +0 60100 0 01470
                     CLRSW = 0B                                                     220  LM00295
 03322 CLA +0 50000 0 01500    03323 STO +0 60100 0 00104
                   OTHERWISE                                                        221  LM00296
 03324 TRA +0 02000 0 03335
                     SECNAM = GET.(0)                                               222  LM00297
 03325 TSX +0 07400 4 00031    03326 TXH +3 00000 0 01500    03327 STO +0 60100 0 01470
                     WHENEVER SECNAM .E. $ $                                        223  LM00298
 03330 CLA +0 50000 0 01470    03331 SUB +0 40200 0 01546    03332 TNZ -0 10000 0 03335
                       SECNAM = OLDSEC                                              224  LM00299
 03333 CLA +0 50000 0 01462    03334 STO +0 60100 0 01470
                     END OF CONDITIONAL                                             225  LM00300
                   END OF CONDITIONAL                                               226  LM00301
                   WHENEVER PRINAM .E. FENCE                                        227  LM00302
 03335 CLA +0 50000 0 01463    03336 SUB +0 40200 0 00665    03337 TNZ -0 10000 0 03352
      NONAME         PRINT COMMENT $0N1O0 1F1I1L1E0 1N1A1M1E0 1G1I1V1E1N0.$         228  LM00303
 03340 TSX +0 07400 4 00015    03341     +0 00000 0 00007    03342     +0 04501 4 60060    03343     +0 12601 3 10143
 03344     +0 12500 6 00145    03345     +0 12101 4 40125    03346     +0 06001 2 70131    03347     +0 16501 2 50145
 03350     +0 03360 6 06060
                     TRANSFER TO NXRQ                                               229  LM00304
 03351 TRA +0 02000 0 00060
                   END OF CONDITIONAL                                               230  LM00305
                   WRITE.(LINE, LENGTH)                                             231  LM00306
 03352 TSX +0 07400 4 00027    03353 TXH +3 00000 0 01452    03354 TXH +3 00000 0 00700
                   LENGTH = 0                                                       232  LM00307
 03355 CLA +0 50000 0 01500    03356 STO +0 60100 0 00700
                   WHENEVER OK, BOTTOM.                                             233  LM00308
 03357 NZT -0 52000 0 01460    03360 TRA +0 02000 0 03362    03361 TSX +0 07400 4 00002
                   CLRNAM.(PRINAM, SECNAM, NEWNM, CLRSW)                            234  LM00309
 03362 TSX +0 07400 4 00006    03363 TXH +3 00000 0 01463    03364 TXH +3 00000 0 01470    03365 TXH +3 00000 0 00054
 03366 TXH +3 00000 0 00104
                   CLOSEW.                                                          235  LM00310
 03367 TSX +0 07400 4 00005
                   DELFIL.(IN1, FI, DL1)                                            236  LM00311
 03370 TSX +0 07400 4 00010    03371 TXH +3 00000 0 00673    03372 TXH +3 00000 0 00666    03373 TXH +3 00000 0 00037
      DL1          RENAME.(IN, FI, PRINAM, SECNAM)                                  237  LM00312
 03374 TSX +0 07400 4 00020    03375 TXH +3 00000 0 00674    03376 TXH +3 00000 0 00666    03377 TXH +3 00000 0 01463
 03400 TXH +3 00000 0 01470
      CHN          EXIT.                                                            238  LM00313
 03401 TSX +0 07400 4 00012
                 OTHERWISE                                                          239  LM00315
 03402 TRA +0 02000 0 03415
                   PRINT COMMENT $0N1O1T0 1A0 1R1E1Q1U1E1S1T0:$                     240  LM00316
 03403 TSX +0 07400 4 00015    03404     +0 00000 0 00005    03405     +0 04501 4 60163    03406     +0 06001 2 10060
 03407     +0 15101 2 50150    03410     +0 16401 2 50162    03411     +0 16300 3 56060
                   TYPOUT.(EDLIN, COUNT)                                            241  LM00317
 03412 TSX +0 07400 4 00025    03413 TXH +3 00000 0 00663    03414 TXH +3 00000 0 00105
                 END OF CONDITIONAL                                                 242  LM00319
                 TRANSFER TO NXRQ                                                   243  LM00320
 03415 TRA +0 02000 0 00060
      EOF        PRINTCOMMENT $0E1N1D0 1O1F0 1F1I1L1E0 1R1E1A1C1H1E1D0 1B1Y0:$      244  LM00322
 03416 TSX +0 07400 4 00015    03417     +0 00000 0 00010    03420     +0 02501 4 50124    03421     +0 06001 4 60126
 03422     +0 06001 2 60131    03423     +0 14301 2 50060    03424     +0 15101 2 50121    03425     +0 12301 3 00125
 03426     +0 12400 6 00122    03427     +0 17000 3 56060
                 TYPOUT.(EDLIN, COUNT)                                              245  LM00323
 03430 TSX +0 07400 4 00025    03431 TXH +3 00000 0 00663    03432 TXH +3 00000 0 00105
                 LENGTH = 0                                                         246  LM00324
 03433 CLA +0 50000 0 01500    03434 STO +0 60100 0 00700
                 OK = 0B                                                            247  LM00325
 03435 CLA +0 50000 0 01500    03436 STO +0 60100 0 01460
                 TRANSFER TO NXRQ                                                   248  LM00326
 03437 TRA +0 02000 0 00060
                 INTERNAL FUNCTION                                                  249  LM00334
 03440 TRA +0 02000 0 03510
                 ENTRY TO CLSOUT.                                                   250  LM00335
 03441 TRA +0 02000 0 03444    00030 TTR +0 02100 0 03442    03442 SXA +0 63400 2 03477    03443 TSX +0 07400 2 03477
                   CLOSEW.                                                          251  LM00336
 03444 TSX +0 07400 4 00005
                   DELFIL.(IN1, FI, DL2)                                            252  LM00337
 03445 TSX +0 07400 4 00010    03446 TXH +3 00000 0 00673    03447 TXH +3 00000 0 00666    03450 TXH +3 00000 0 00040
      DL2          CHFILE.(IN, FI, -0, IN1)                                         253  LM00338
 03451 CLS +0 50200 0 01500    03452 STO +0 60100 0 03507    03453 TSX +0 07400 4 00004    03454 TXH +3 00000 0 00674
 03455 TXH +3 00000 0 00666    03456 TXH +3 00000 0 03507    03457 TXH +3 00000 0 00673
                   SEEK.(IN1, FI, CHN)                                              254  LM00339
 03460 TSX +0 07400 4 00021    03461 TXH +3 00000 0 00673    03462 TXH +3 00000 0 00666    03463 TXH +3 00000 0 00036
                   ASSIGN.(IN, FI)                                                  255  LM00340
 03464 TSX +0 07400 4 00000    03465 TXH +3 00000 0 00674    03466 TXH +3 00000 0 00666
                   OK = 1B                                                          256  LM00341
 03467 CLA +0 50000 0 01501    03470 STO +0 60100 0 01460
                   LENGTH = 0                                                       257  LM00342
 03471 CLA +0 50000 0 01500    03472 STO +0 60100 0 00700
                   FSTPAS = 0B                                                      258  LM00343
 03473 CLA +0 50000 0 01500    03474 STO +0 60100 0 00671
                   FUNCTION RETURN                                                  259  LM00344
 03475 TRA +0 02000 0 03503
                 END OF FUNCTION                                                    260  LM00345
 03476 TSX +0 07400 4 00012    03477 TXH +3 00000 0 00000    03500 SXD -0 63400 1 03477    03501 SXA +0 63400 4 03503
 03502 TRA +0 02000 2 00001    03503 AXT +0 77400 4 00000    03504 LXA +0 53400 2 03477    03505 LXD -0 53400 1 03477
 03506 TRA +0 02000 4 00001
                 INTERNAL FUNCTION                                                  261  LM00349
 03510 TRA +0 02000 0 03616
                 ENTRY TO GET.                                                      262  LM00350
 03511 TRA +0 02000 0 03514    00031 TTR +0 02100 0 03512    03512 SXA +0 63400 2 03605    03513 TSX +0 07400 2 03605
                   WORD = $ $                                                       263  LM00351
 03514 CLA +0 50000 0 01546    03515 STO +0 60100 0 01477
      SCANLP       THROUGH SCANLP, FOR EDCT = EDCT, 1,                              264  LM00352
                1  (EDLIN(EDCT+1).NE.BLANK) .OR. (EDCT+1.GE.COUNT)                  264  LM00353
 03516 CLA +0 50000 0 00111    03517 STO +0 60100 0 00111    03520 TRA +0 02000 0 03524    03521 CLA +0 50000 0 00111
 03522 ADD +0 40000 0 01501    03523 STO +0 60100 0 00111    03524 CLA +0 50000 0 00111    03525 ADD +0 40000 0 01501
 03526 SUB +0 40200 0 00105    03527 TZE +0 10000 0 03540    03530 TPL +0 12000 0 03540    03531 CLA +0 50000 0 00111
 03532 ADD +0 40000 0 01501    03533 PAX +0 73400 1 00000    03534 CLA +0 50000 1 00663    03535 SUB +0 40200 0 00076
 03536 TNZ -0 10000 0 03540    03537 TRA +0 02000 0 03521
       GTLP        EDCT = EDCT + 1                                                  265  LM00354
 03540 CLA +0 50000 0 00111    03541 ADD +0 40000 0 01501    03542 STO +0 60100 0 00111
                   WHENEVER EDLIN(EDCT) .E. BLANK, FUNCTION RETURN WORD             266  LM00355
 03543 LXA +0 53400 1 00111    03544 CLA +0 50000 1 00663    03545 SUB +0 40200 0 00076    03546 TNZ -0 10000 0 03551
 03547 CLA +0 50000 0 01477    03550 TRA +0 02000 0 03611
                   WHENEVER EDLIN(EDCT) .E. TAB .OR. EDCT .GE. COUNT                267  LM00356
 03551 CLA +0 50000 0 00111    03552 SUB +0 40200 0 00105    03553 TZE +0 10000 0 03561    03554 TPL +0 12000 0 03561
 03555 LXA +0 53400 1 00111    03556 CLA +0 50000 1 00663    03557 SUB +0 40200 0 01473    03560 TNZ -0 10000 0 03566
                     EDCT = EDCT - 1                                                268  LM00357
 03561 CLA +0 50000 0 00111    03562 SUB +0 40200 0 01501    03563 STO +0 60100 0 00111
                     FUNCTION RETURN WORD                                           269  LM00358
 03564 CLA +0 50000 0 01477    03565 TRA +0 02000 0 03611
                   END OF CONDITIONAL                                               270  LM00359
                   WORD = (WORD .LS. 6) .V. HOL.(EDLIN(EDCT))                       271  LM00360
 03566 CLA +0 50000 0 00111    03567 SUB +0 40200 0 03570    03570 TXH +3 00000 0 00663    03571 STA +0 62100 0 03573
 03572 TSX +0 07400 4 00014    03573 TXH +3 00000 0 00000    03574 STO +0 60100 0 03615    03575 CAL -0 50000 0 01504
 03576 STA +0 62100 0 03600    03577 CAL -0 50000 0 01477    03600 ALS +0 76700 0 00000    03601 ORA -0 50100 0 03615
 03602 SLW +0 60200 0 01477
                   TRANSFER TO GTLP                                                 272  LM00361
 03603 TRA +0 02000 0 00047
                 END OF FUNCTION                                                    273  LM00362
 03604 TSX +0 07400 4 00012    03605 TXH +3 00000 0 00000    03606 SXD -0 63400 1 03605    03607 SXA +0 63400 4 03611
 03610 TRA +0 02000 2 00001    03611 AXT +0 77400 4 00000    03612 LXA +0 53400 2 03605    03613 LXD -0 53400 1 03605
 03614 TRA +0 02000 4 00001
                 INTERNAL FUNCTION(STAR, EN)                                        274  LM00366
 03616 TRA +0 02000 0 03707
                 ENTRY TO PRNT.                                                     275  LM00367
 03617 TRA +0 02000 0 03622    00032 TTR +0 02100 0 03620    03620 SXA +0 63400 2 03666    03621 TSX +0 07400 2 03666
                   TYPOUT.(LINE, STAR-1)                                            276  LM00368
 03622 CLA +0 50000 0 00024    03623 SUB +0 40200 0 01501    03624 STO +0 60100 0 03706    03625 TSX +0 07400 4 00025
 03626 TXH +3 00000 0 01452    03627 TXH +3 00000 0 03706
                   TYPOUT.(REDS, 1)                                                 277  LM00369
 03630 TSX +0 07400 4 00025    03631 TXH +3 00000 0 01466    03632 TXH +3 00000 0 01501
                   TYPOUT.(LINE(STAR-1), EN-STAR+1)                                 278  LM00370
 03633 CLA +0 50000 0 00024    03634 SUB +0 40200 0 00024    03635 ADD +0 40000 0 01501    03636 STO +0 60100 0 03706
 03637 CLA +0 50000 0 00024    03640 SUB +0 40200 0 01501    03641 SUB +0 40200 0 03642    03642 TXH +3 00000 0 01452
 03643 STA +0 62100 0 03645    03644 TSX +0 07400 4 00025    03645 TXH +3 00000 0 00000    03646 TXH +3 00000 0 03706
                   TYPOUT.(BLACKS, 1)                                               279  LM00371
 03647 TSX +0 07400 4 00025    03650 TXH +3 00000 0 00075    03651 TXH +3 00000 0 01501
                   TYPOUT.(LINE(EN), LENGTH-EN)                                     280  LM00372
 03652 CLA +0 50000 0 00700    03653 SUB +0 40200 0 00024    03654 STO +0 60100 0 03706    03655 CLA +0 50000 0 00024
 03656 SUB +0 40200 0 03657    03657 TXH +3 00000 0 01452    03660 STA +0 62100 0 03662    03661 TSX +0 07400 4 00025
 03662 TXH +3 00000 0 00000    03663 TXH +3 00000 0 03706
                   FUNCTION RETURN                                                  281  LM00373
 03664 TRA +0 02000 0 03702
                 END OF FUNCTION                                                    282  LM00374
 03665 TSX +0 07400 4 00012    03666 TXH +3 00000 0 00000    03667 SXD -0 63400 1 03666    03670 SXA +0 63400 4 03702
 03671 CLA +0 50000 4 00001    03672 STA +0 62100 0 03622    03673 STA +0 62100 0 03634    03674 STA +0 62100 0 03637
 03675 CLA +0 50000 4 00002    03676 STA +0 62100 0 03633    03677 STA +0 62100 0 03653    03700 STA +0 62100 0 03655
 03701 TRA +0 02000 2 00001    03702 AXT +0 77400 4 00000    03703 LXA +0 53400 2 03666    03704 LXD -0 53400 1 03666
 03705 TRA +0 02000 4 00001
                 END OF PROGRAM                                                     283  LM00376
 03707 TSX +0 07400 4 00012
1     MAD PROGRAM LISTING ... ... ...                 FILE  EDAVAL   MAD            04/23/69    1348.8
-
                 ..  ROUTINE TO RETURN INITIAL VALUES TO EDITOR FOR                                    LM00001
                 ..  EDITING ASCII FILES.                                                              LM00002
                                                                                                       LM00003
                  EXTERNAL FUNCTION(BLANK, TAB, DEFALT, MCHNG, RED, BLACK)                        *001 LM00004
                  NORMAL MODE IS INTEGER                                                          *002 LM00005
                  ENTRY TO GETVAL.                                                                *003 LM00006
                    BLANK  = 040K                                                                 *004 LM00007
                    TAB    = 011K                                                                 *005 LM00008
                    DEFALT = $ ASCII$                                                             *006 LM00009
                    MCHNG  = 056K                                                                 *007 LM00010
                    RED    = 016K                                                                 *008 LM00011
                    BLACK  = 017K                                                                 *009 LM00012
                    FUNCTION RETURN                                                               *010 LM00013
                  END OF FUNCTION                                                                 *011 LM00014
1MAD PROGRAM,TYPE NOV 1963      (ALL NUMBERS ARE OCTAL)
0TOTAL LOCATIONS   00061 TRANSFER VECTOR LENGTH  00001 PROGRAM BEGINS    00012
0 PROGRAM IS AN EXTERNAL FUNCTION.   THE FOLLOWING ARE ENTRIES
      GETVAL 00013   0
0FUNCTION DICTIONARY
      EXIT   00000   1
0ABSOLUTE CONSTANTS
 00005 +000000000017     00004 +000000000016     00007 +000000000056     00011 -202162233131     00003 +000000000011
 00006 +000000000040     00002 +000000000001     00010 +233000000000
0PROGRAM
                 EXTERNAL FUNCTION(BLANK, TAB, DEFALT, MCHNG, RED, BLACK)           001  LM00004
                 N'R                                                                002  LM00005
                 E'O GETVAL.                                                        003  LM00006
 00012 TRA +0 02000 0 00015    00013 SXA +0 63400 2 00033    00014 TSX +0 07400 2 00033
                   BLANK  = 040K                                                    004  LM00007
 00015 CLA +0 50000 0 00006    00016 STO +0 60100 0 00024
                   TAB    = 011K                                                    005  LM00008
 00017 CLA +0 50000 0 00003    00020 STO +0 60100 0 00024
                   DEFALT = $ ASCII$                                                006  LM00009
 00021 CLA +0 50000 0 00011    00022 STO +0 60100 0 00024
                   MCHNG  = 056K                                                    007  LM00010
 00023 CLA +0 50000 0 00007    00024 STO +0 60100 0 00024
                   RED    = 016K                                                    008  LM00011
 00025 CLA +0 50000 0 00004    00026 STO +0 60100 0 00024
                   BLACK  = 017K                                                    009  LM00012
 00027 CLA +0 50000 0 00005    00030 STO +0 60100 0 00024
                   F'N                                                              010  LM00013
 00031 TRA +0 02000 0 00053
                 E'N                                                                011  LM00014
 00032 TSX +0 07400 4 00000    00033 TXH +3 00000 0 00000    00034 SXD -0 63400 1 00033    00035 SXA +0 63400 4 00053
 00036 CLA +0 50000 4 00001    00037 STA +0 62100 0 00016    00040 CLA +0 50000 4 00002    00041 STA +0 62100 0 00020
 00042 CLA +0 50000 4 00003    00043 STA +0 62100 0 00022    00044 CLA +0 50000 4 00004    00045 STA +0 62100 0 00024
 00046 CLA +0 50000 4 00005    00047 STA +0 62100 0 00026    00050 CLA +0 50000 4 00006    00051 STA +0 62100 0 00030
 00052 TRA +0 02000 2 00001    00053 AXT +0 77400 4 00000    00054 LXA +0 53400 2 00033    00055 LXD -0 53400 1 00033
 00056 TRA +0 02000 4 00001
