1     MAD PROGRAM LISTING ... ... ...                 FILE   ADMIN   MAD            04/27/69    0852.4
-
      ADMIN       *  ADMINISTRATIVE PRIVLEGED COMMANDS                                                 LM00001
                  *                                                                                    LM00002
                  * WRITTEN BY R. A. ROACH    MARCH 1969                                               LM00003
                  *                                                                                    LM00004
                  * ONLY M1416 USERS WITH EITHER PATCH PRIVILEGES OR                                   LM00005
                  * 16 PRIVILEGES MAY HAVE ACCESS TO ADMIN'S FUNCTIONS.                                LM00006
                  * (EXCEPT THE OPERATOR (C33 960) MAY USE HELLO.)                                     LM00007
                  *                                                                                    LM00008
                  * FOR A LIST OF THE AVAILABLE FUNCTIONS:                                             LM00009
                  *          ADMIN (HELP)                                                              LM00010
                  *                                                                                    LM00011
                  * FOR THE CORRECT USAGE OF A FUNCTION:                                               LM00012
                  *          ADMIN FUNCT (HELP)                                                        LM00013
                  *                                                                                    LM00014
                  *  WHEN 'USER' IS A POSSIBLE ARGUMENT, IT MAY                                        LM00015
                  *  BE SPECIFIED IN ANY OF THREE DIFFERENT WAYS:                                      LM00016
                  *   1.  NONE - ASSUMES CURRENT USER                                                  LM00017
                  *   2.  PROB PROG                                                                    LM00018
                  *   3.  LINE NO.                                                                     LM00019
                  *                                                                                    LM00020
                  *                                                                                    LM00021
                  * LOADING INSTRUCTIONS:                                                              LM00022
                  *   LAED NCLOAD ADMIN ADUTIL DELTEM (SRCH) XLIBE                                     LM00023
                  *                                                                                    LM00024
                  *                                                                                    LM00025
                  *  CONSTANTS AND STORAGE DECLARATIONS                                                LM00026
                  *                                                                                    LM00027
                  DIMENSION B1(0), B2(0), B3(0), B4(0), B5(0)                                     *001 LM00028
                  DIMENSION WHO(3), ME(1), PROB(1), COMBUF(20)                                    *002 LM00029
                  DIMENSION PROBN(0), PROGN(0), TUCARD(27)                                        *003 LM00030
                  DIMENSION TEMP(7)                                                               *004 LM00031
                  *                                                                                    LM00032
                  EQUIVALENCE (PROG,PROB(1)), (SLPCMD,FENCE)                                      *005 LM00033
                  EQUIVALENCE (T0,TEMP(0)), (T1,TEMP(1)), (T2,TEMP(2)), (T3,TEMP(3))              *006 LM00034
                  EQUIVALENCE (T4,TEMP(4)), (T5,TEMP(5)), (T6,TEMP(6)), (T7,TEMP(7))              *007 LM00035
                  *                                                                                    LM00036
                  VECTOR VALUES STAR  = $     *$                                                  *008 LM00037
                  VECTOR VALUES M0 = -0                                                           *009 LM00038
                  VECTOR VALUES M1 = -1                                                           *010 LM00039
                  VECTOR VALUES M2 = -2                                                           *011 LM00040
                  VECTOR VALUES M = 0                                                             *012 LM00041
                  VECTOR VALUES TEMP(0)...TEMP(7) = 0                                             *013 LM00042
                  *                                                                                    LM00043
                  VECTOR VALUES MFD    = $M.F.D.$                                                 *014 LM00044
                  VECTOR VALUES FILE   = $(FILE)$                                                 *015 LM00045
                  VECTOR VALUES M1416  = $ M1416$                                                 *016 LM00046
                  VECTOR VALUES CMFL02 = $CMFL02$                                                 *017 LM00047
                  VECTOR VALUES TU = $TIMUSD$                                                     *018 LM00048
                  VECTOR VALUES TA = $TIMACC$                                                     *019 LM00049
                  VECTOR VALUES R = $R$                                                           *020 LM00050
                  VECTOR VALUES W = $W$                                                           *021 LM00051
                  VECTOR VALUES N = $N$                                                           *022 LM00052
                  VECTOR VALUES ALL    = $ALL   $                                                 *023 LM00053
                  VECTOR VALUES USER   = $USER  $                                                 *024 LM00054
                  VECTOR VALUES COMMND = $COMMND$                                                 *025 LM00055
                  VECTOR VALUES PROBN  = $PROBN $                                                 *026 LM00056
                  VECTOR VALUES PROGN  = $PROGN $                                                 *027 LM00057
                  VECTOR VALUES UNAME  = $UNAME $                                                 *028 LM00058
                  VECTOR VALUES USROPT = $USROPT$                                                 *029 LM00059
                  VECTOR VALUES URCODE = $URCODE$                                                 *030 LM00060
                  VECTOR VALUES RCODE  = $RCODE $                                                 *031 LM00061
                  VECTOR VALUES NINTBT = $NINTBT$                                                 *032 LM00062
                  VECTOR VALUES RCALBT = $RCALBT$                                                 *033 LM00063
                  VECTOR VALUES RPROBT = $RPROBT$                                                 *034 LM00064
                  VECTOR VALUES RPRVBT = $RPRVBT$                                                 *035 LM00065
                  VECTOR VALUES RPATBT = $RPATBT$                                                 *036 LM00066
                  VECTOR VALUES STRTIM = $STRTIM$                                                 *037 LM00067
                  VECTOR VALUES WRKTIM = $WRKTIM$                                                 *038 LM00068
                  VECTOR VALUES TIMNOW = $TIMNOW$                                                 *039 LM00069
                  VECTOR VALUES UNITID = $UNITID$                                                 *040 LM00070
                  VECTOR VALUES TAU1   = $TAU1  $                                                 *041 LM00071
                  VECTOR VALUES TAU5   = $TAU5  $                                                 *042 LM00072
                  VECTOR VALUES ADOPT  = $ADOPT $                                                 *043 LM00073
                  VECTOR VALUES MESGPT = $MESGPT$                                                 *044 LM00074
                  VECTOR VALUES SYSMSG = $SYSMSG$                                                 *045 LM00075
                  VECTOR VALUES FSTST  = $FS.TST$                                                 *046 LM00076
                  VECTOR VALUES SAVING = $SAVING$                                                 *047 LM00077
                  *                                                                                    LM00078
                  *                                                                                    LM00079
                  VECTOR VALUES HELP = $(HELP)$                                                   *048 LM00080
                  VECTOR VALUES X = $'X$                                                          *049 LM00081
                  VECTOR VALUES ADMIN = $ 'UADMIN '8$                                             *050 LM00082
                  VECTOR VALUES RED = $'R'8$                                                      *051 LM00083
                  VECTOR VALUES BLACK = $'B'8$                                                    *052 LM00084
                  VECTOR VALUES ON = $ ON 'X$                                                     *053 LM00085
                  VECTOR VALUES BL = $ '8$                                                        *054 LM00086
                  VECTOR VALUES KEY22 = 000000K                                                   *055 LM00087
                  *  ... CHANGE TO 20000K TO MAKE EFFECTIVE ...                                        LM00088
                  VECTOR VALUES NULLS = 575757575757K                                             *056 LM00089
                  *                                                                                    LM00090
                  VECTOR VALUES SLPCMD = 777777777777K, $YES$, $.$                                *057 LM00091
                  *                                                                                    LM00092
                  *                                                                                    LM00093
                  *                                                                                    LM00094
                  *  INITIALIZATION                                                                    LM00095
                  *                                                                                    LM00096
                  NORMAL MODE IS INTEGER                                                          *058 LM00097
                  WHOAMI.(WHO(3)...4)                                                             *059 LM00098
                  ATTNAM.(ME(1)...2)                                                              *060 LM00099
                  GETTM.(DATE,TIME)                                                               *061 LM00100
                  FERRTN.(IOERR)                                                                  *062 LM00101
                  SETBRK.(OUT)                                                                    *063 LM00102
                  PCTL.(1)                                                                        *064 LM00103
                  *                                                                                    LM00104
                  USER = GLOC.(COMMON.(USER))                                                     *065 LM00105
                  *                                                                                    LM00106
                  *  SET COMMAND NAME TO ZERO TO HIDE IT -                                             LM00107
                  SLOC.(0,COMMON.(COMMND)+USER)                                                   *066 LM00108
                  *                                                                                    LM00109
                  RCODE = GLOC.(COMMON.(RCODE)+USER)                                              *067 LM00110
                  RPATBT = COMMON.(RPATBT)                                                        *068 LM00111
                  RCALBT = COMMON.(RCALBT)                                                        *069 LM00112
                  RPROBT = COMMON.(RPROBT)                                                        *070 LM00113
                  RPRVBT = COMMON.(RPRVBT)                                                        *071 LM00114
                  *                                                                                    LM00115
                  NINTBT = COMMON.(NINTBT).LS.18                                                  *072 LM00116
                  USROPT = COMMON.(USROPT)+USER                                                   *073 LM00117
                  N = COMMON.(N)                                                                  *074 LM00118
                  *                                                                                    LM00119
                  GCLS.(COMBUF,0)                                                                 *075 LM00120
                  WHENEVER COMBUF.E.$ ADMIN$, M = 1                                               *076 LM00121
                  *                                                                                    LM00122
                  *  TEST FOR OK USER                                                                  LM00123
                  *                                                                                    LM00124
                  WHENEVER COMBUF(M).E.$ HELLO$ .AND. WHO(3).E.$ C0033$ .AND.                     *077 LM00125
                1  WHO(2) .E. $   960$, TRANSFER TO USEROK                                        *077 LM00126
                  BITS = RCALBT.V.RPROBT.V.RPRVBT                                                 *078 LM00127
                  WHENEVER WHO(3).E.M1416 .AND. (RCODE.A.BITS.E.BITS .OR. RCODE.A.                *079 LM00128
                1   RPATBT.E.RPATBT), TRANSFER TO USEROK                                          *079 LM00129
                  *                                                                                    LM00130
                  *  OTHERWISE, PRETEND THAT ADMIN DOESN'T EXIST                                       LM00131
                  TSK.                                                                            *080 LM00132
                  *                                                                                    LM00133
      USEROK      WHENEVER COMBUF(M).E.HELP .OR. COMBUF(M).E.FENCE                                *081 LM00134
                    PRFULL.($'* 'R'1CORRECT USAGE IS:'B'*'*'8$,                                   *082 LM00135
                1   $  '5ADMIN FUNCTION ARGS'*'*'8$,                                              *082 LM00136
                2   $WHERE THE FUNCTION MAY BE ANY OF THE FOLLOWING:'*'8$)                        *082 LM00137
                  *                                                                                    LM00138
                    PRFULL.(FMT1...100,FMT2...100)                                                *083 LM00139
                  *                                                                                    LM00140
                    VECTOR VALUES FMT1 =                                                          *084 LM00141
                1   $'6CNDRLA - CLEARS ALL PRESENT USERS TAU VECTORS (36)'*'8$,                   *084 LM00142
                2   $'4COPY   - COPY ACCOUNTING FILES FROM '4CMFL02 (10)'*'8$,                    *084 LM00143
                3   $'6DELALL - DELETES ALL FILES FROM A DIRECTORY'*'8$,                          *084 LM00144
                4   $'6DELTEM - DELETES TEMPORARY FILES FROM A DIRECTORY'*'8$,                    *084 LM00145
                5   $'5ERASE  - ELIMINATES A FILE DIRECTORY'*'8$,                                 *084 LM00146
                6   $'5HELLO  - MODIFIES DIALUP MESSAGE'*'8$,                                     *084 LM00147
                7   $'5INPUT  - ENTER A LINE INTO A USER''S INPUT BUFFER'*'8$,                    *084 LM00148
                8   $'4KILL   - LOGS A USER OUT'*'8$,                                             *084 LM00149
                9   $'5MONTH  - UPDATE AND RESET TIMUSD (36)'*'8$,777777777777K                   *084 LM00150
                  *                                                                                    LM00151
                    VECTOR VALUES FMT2 =                                                          *085 LM00152
                1   $'5PATCH  - PATCHES CORE '1A (20)'*'8$,                                       *085 LM00153
                2   $'2PB     - ASSIGNS A PERCENTAGE TO A USER'*'8$,                              *085 LM00154
                3   $'6PRNTON - PRINT MESSAGE ONLINE'*'8$,                                        *085 LM00155
                4   $'6RDTIMU - PRINT TIME USED BY A USER'*'8$,                                   *085 LM00156
                5   $'6SETTAU - RESET A '3TAU VECTOR OF A USER'*'8$,                              *085 LM00157
                6   $'3SPY    - SPY ON A USER'*'8$,                                               *085 LM00158
                7   $'6SQZUFD - COMPACT A 'UU.F.D.'L'*'8$,                                        *085 LM00159
                8   $'6UPATCH - PATCH ARRAY ENTRY OF PRESENT USER (20)'*'8$,                      *085 LM00160
                9   $'6UPDATE - UPDATE '4CMFL02 WITH ACCOUNTING FILES(10)'*'8$,                   *085 LM00161
                0   $'5WRITE  - WRITE A MESSAGE AT A USER'*'8$,777777777777K                      *085 LM00162
                  *                                                                                    LM00163
                    PRFULL.($'1FOR THE CORRECT USAGE OF A FUNCTION:'*'*'8$,                       *086 LM00164
                1   $     '5ADMIN FUNCT 'U(HELP)$)                                                *086 LM00165
                  *                                                                                    LM00166
                  *                                                                                    LM00167
                  *                                                                                    LM00168
                  *                                                                                    LM00169
                  * **********************************************************                         LM00170
                  * **********************************************************                         LM00171
                  * **********************************************************                         LM00172
                  *                                                                                    LM00173
                  *                            CNDRLA                                                  LM00174
                  *                                                                                    LM00175
                  * **********************************************************                         LM00176
                  * **********************************************************                         LM00177
                  * **********************************************************                         LM00178
                  *                                                                                    LM00179
      CNDRLA      *  RESET THE TAU VECTORS(USED) OF ALL USERS LOGGED IN.                               LM00180
                  *                                                                                    LM00181
                  *  USAGE:  ADMIN CNDRLA                                                              LM00182
                  *                                                                                    LM00183
                  EQUIVALENCE (T0,MAXI), (T6,TAULOC)                                              *087 LM00184
                  *                                                                                    LM00185
                  OR WHENEVER COMBUF(M) .E. $CNDRLA$                                              *088 LM00186
                    M = M+1                                                                       *089 LM00187
                    WHENEVER COMBUF(M) .E. HELP                                                   *090 LM00188
                      PRFULL.(ADMIN...2,CURCOM.(0))                                               *091 LM00189
                    OTHERWISE                                                                     *092 LM00190
                      WHENEVER COMBUF(M).NE.FENCE, TRANSFER TO ERR1                               *093 LM00191
                      CHKPRV.(BITS.V.RPATBT)                                                      *094 LM00192
                      MAXI = 5 * (N+1)                                                            *095 LM00193
                      TAULOC = COMMON.(TAU5)                                                      *096 LM00194
                  *                                                                                    LM00195
                      PCTL.(3)                                                                    *097 LM00196
                      PRFULL.(X,WHO(3)...M2,$ RESETTING TIMUSD.$)                                 *098 LM00197
                      PCTL.(1)                                                                    *099 LM00198
                  *                                                                                    LM00199
                  *      M1416 4301 RESETTING TIMUSD.                                                  LM00200
                  *                                                                                    LM00201
                      NONINT.                                                                     *100 LM00202
                      THROUGH CND1, FOR I = 0,1,I.G.MAXI                                          *101 LM00203
      CND1            SLOC.(GLOC.(TAULOC+I).A.77776K7,TAULOC+I)                                   *102 LM00204
                      INT.                                                                        *103 LM00205
                    END OF CONDITIONAL                                                            *104 LM00206
                  *                                                                                    LM00207
                  *                                                                                    LM00208
                  *                                                                                    LM00209
                  * **********************************************************                         LM00210
                  * **********************************************************                         LM00211
                  * **********************************************************                         LM00212
                  *                                                                                    LM00213
                  *                            COPY                                                    LM00214
                  *                                                                                    LM00215
                  * **********************************************************                         LM00216
                  * **********************************************************                         LM00217
                  * **********************************************************                         LM00218
                  *                                                                                    LM00219
      COPY        * COPY AN ACCOUNTING FILE FROM M1416 CMFL02                                          LM00220
                  *                                                                                    LM00221
                  * USAGE:  ADMIN COPY N1 -N2- -N3- -N4-                                               LM00222
                  *                                                                                    LM00223
                  EQUIVALENCE (T0,N1), (T1,N2), (T2,N3), (T3,N4), (T7,MODE)                       *105 LM00224
                  *                                                                                    LM00225
                  OR WHENEVER COMBUF(M) .E. $  COPY$                                              *106 LM00226
                    M = M+1                                                                       *107 LM00227
                    WHENEVER COMBUF(M) .E. HELP                                                   *108 LM00228
                      PRFULL.(ADMIN...2,CURCOM.(0),$ N1 -N2- -N3- -N4-$)                          *109 LM00229
                    OTHERWISE                                                                     *110 LM00230
                      N1 = COMBUF(M)                                                              *111 LM00231
                      N2 = COMBUF(M+1)                                                            *112 LM00232
                      N3 = COMBUF(M+2)                                                            *113 LM00233
                      N4 = COMBUF(M+3)                                                            *114 LM00234
                      WHENEVER N2 .E. FENCE                                                       *115 LM00235
                        N2 = TA                                                                   *116 LM00236
                        N3 = N1                                                                   *117 LM00237
                        N4 = N2                                                                   *118 LM00238
                      OR WHENEVER N3 .E. FENCE                                                    *119 LM00239
                        N3 = N1                                                                   *120 LM00240
                        N4 = N2                                                                   *121 LM00241
                      OR WHENEVER N4 .E. FENCE                                                    *122 LM00242
                        N4 = N2                                                                   *123 LM00243
                      OR WHENEVER N1 .E. FENCE                                                    *124 LM00244
                        TRANSFER TO ERR2                                                          *125 LM00245
                      OR WHENEVER COMBUF(M+4).NE. FENCE                                           *126 LM00246
                        M = M+4                                                                   *127 LM00247
                        TRANSFER TO ERR1                                                          *128 LM00248
                      END OF CONDITIONAL                                                          *129 LM00249
                      M = M+4                                                                     *130 LM00250
                      WHENEVER ME(1).E.M1416 .AND. ME.E.CMFL02 .AND.                              *131 LM00251
                1          N3.E.N1 .AND. N4.E.N2, TRANSFER TO ERR0                                *131 LM00252
                      CHKPRV.(RPRVBT)                                                             *132 LM00253
                  *                                                                                    LM00254
                        ... GET RID OF PREVIOUS DATE TIME                                              LM00255
                      UNLINK.(DATE,TIME,NULL.)                                                    *133 LM00256
                      CHFILE.(DATE,TIME,1,M0,M0,NULL.)                                            *134 LM00257
                      DELFIL.(DATE,TIME,NULL.)                                                    *135 LM00258
                      OPEN.(W,DATE,TIME,120K)                                                     *136 LM00259
                      GETBUF.(B1,432)                                                             *137 LM00260
                      GETBUF.(B2,432)                                                             *138 LM00261
                      GETBUF.(B3,432)                                                             *139 LM00262
                      GETBUF.(B4,432)                                                             *140 LM00263
                      BUFFER.(DATE,TIME,B4(B4+432)...432)                                         *141 LM00264
                      ATTACH.(M1416,CMFL02)                                                       *142 LM00265
                      NONINT.                                                                     *143 LM00266
                      OPEN.(R,N1,N2)                                                              *144 LM00267
                      COPY.(N1,N2,DATE,TIME,B1(B1+432),B2(B2+432),B3(B3+432),                     *145 LM00268
                1           432,IOERR)                                                            *145 LM00269
                      CLOSE.(N1,N2)                                                               *146 LM00270
                      INT.                                                                        *147 LM00271
                      CLOSE.(DATE,TIME)                                                           *148 LM00272
                      ATTACH.(ME(1),ME)                                                           *149 LM00273
                      MODE = 124K                                                                 *150 LM00274
                      FSTATE.(N3,N4,TUCARD(1)...2,CPY1)                                           *151 LM00275
                      MODE = TUCARD.A.777K                                                        *152 LM00276
      CPY1            UNLINK.(N3,N4,NULL.)                                                        *153 LM00277
                      CHFILE.(N3,N4,1,M0,M0,NULL.)                                                *154 LM00278
                      DELFIL.(N3,N4,NULL.)                                                        *155 LM00279
                      CHFILE.(DATE,TIME,MODE,N3,N4)                                               *156 LM00280
                    END OF CONDITIONAL                                                            *157 LM00281
                  *                                                                                    LM00282
                  *                                                                                    LM00283
                  * **********************************************************                         LM00284
                  * **********************************************************                         LM00285
                  * **********************************************************                         LM00286
                  *                                                                                    LM00287
                  *                            DELALL                                                  LM00288
                  *                                                                                    LM00289
                  * **********************************************************                         LM00290
                  * **********************************************************                         LM00291
                  * **********************************************************                         LM00292
                  *                                                                                    LM00293
      DELALL      * DELETE ALL OF A USER'S FILES AND HIS UFD.                                          LM00294
                  *                                                                                    LM00295
                  *  USAGE:   ADMIN DELALL USER                                                        LM00296
                  *                                                                                    LM00297
                  OR WHENEVER COMBUF(M) .E. $DELALL$                                              *158 LM00298
                    M = M+1                                                                       *159 LM00299
                    WHENEVER COMBUF(M) .E. HELP                                                   *160 LM00300
                      PRFULL.(ADMIN...2,CURCOM.(0),$ 'LUSER$)                                     *161 LM00301
                    OTHERWISE                                                                     *162 LM00302
                      GETUSR.(ERR3,DEL0,ERR5)                                                     *163 LM00303
      DEL0            ATTACH.(PROB,PROG)                                                          *164 LM00304
                      DELALL.                                                                     *165 LM00305
                      TRANSFER TO ERASE0                                                          *166 LM00306
                    END OF CONDITIONAL                                                            *167 LM00307
                  *                                                                                    LM00308
                  *                                                                                    LM00309
                  *                                                                                    LM00310
                  * **********************************************************                         LM00311
                  * **********************************************************                         LM00312
                  * **********************************************************                         LM00313
                  *                                                                                    LM00314
                  *                            DELTEM                                                  LM00315
                  *                                                                                    LM00316
                  * **********************************************************                         LM00317
                  * **********************************************************                         LM00318
                  * **********************************************************                         LM00319
                  *                                                                                    LM00320
      DELTEM      * DELETE TEMPORARY FILES OF A USER                                                   LM00321
                  *                                                                                    LM00322
                  *  USAGE:  ADMIN DELTEM USER                                                         LM00323
                  *                                                                                    LM00324
                  OR WHENEVER COMBUF(M) .E. $DELTEM$                                              *168 LM00325
                    M = M+1                                                                       *169 LM00326
                    WHENEVER COMBUF(M) .E. HELP                                                   *170 LM00327
                      PRFULL.(ADMIN...2,CURCOM.(0),$ 'LUSER$)                                     *171 LM00328
                    OTHERWISE                                                                     *172 LM00329
                      GETUSR.(ERR3,DEL1,ERR5)                                                     *173 LM00330
      DEL1            ATTACH.(PROB,PROG)                                                          *174 LM00331
                      DELTEM.                                                                     *175 LM00332
                    END OF CONDITIONAL                                                            *176 LM00333
                  *                                                                                    LM00334
                  *                                                                                    LM00335
                  *                                                                                    LM00336
                  * **********************************************************                         LM00337
                  * **********************************************************                         LM00338
                  * **********************************************************                         LM00339
                  *                                                                                    LM00340
                  *                            ERASE                                                   LM00341
                  *                                                                                    LM00342
                  * **********************************************************                         LM00343
                  * **********************************************************                         LM00344
                  * **********************************************************                         LM00345
                  *                                                                                    LM00346
      ERASE       * ERASE A UFD FROM THE SYSTEM                                                        LM00347
                  *                                                                                    LM00348
                  *    USAGE:  ADMIN ERASE USER                                                        LM00349
                  *                                                                                    LM00350
                  OR WHENEVER COMBUF(M) .E. $ ERASE$                                              *177 LM00351
                    M = M+1                                                                       *178 LM00352
                    WHENEVER COMBUF(M) .E. HELP                                                   *179 LM00353
                      PRFULL.(ADMIN...2,CURCOM.(0),$ 'LUSER$)                                     *180 LM00354
                    OTHERWISE                                                                     *181 LM00355
                      GETUSR.(ERR3,ERASE0,ERR5)                                                   *182 LM00356
      ERASE0          ATTACH.(PROB,PROG)                                                          *183 LM00357
                      ALLOT.(1,0,0)                                                               *184 LM00358
                      ALLOT.(2,0,0)                                                               *185 LM00359
                      ALLOT.(3,0,0)                                                               *186 LM00360
                      DELMFD.(PROB,PROG)                                                          *187 LM00361
                    END OF CONDITIONAL                                                            *188 LM00362
                  *                                                                                    LM00363
                  *                                                                                    LM00364
                  *                                                                                    LM00365
                  * **********************************************************                         LM00366
                  * **********************************************************                         LM00367
                  * **********************************************************                         LM00368
                  *                                                                                    LM00369
                  *                            HELLO                                                   LM00370
                  *                                                                                    LM00371
                  * **********************************************************                         LM00372
                  * **********************************************************                         LM00373
                  * **********************************************************                         LM00374
                  *                                                                                    LM00375
      HELLO       * UPDATE/RESET THE DIALUP MESSAGE                                                    LM00376
                  *                                                                                    LM00377
                  * USAGE: ADMIN HELLO ARG                                                             LM00378
                  *                                                                                    LM00379
                  * WHERE ARG MAY BE:                                                                  LM00380
                  *   1. NOTHING - SETS NEXT COMEDOWN MESSAGE                                          LM00381
                  *   2. 'NEWMES' - ALLOWS NEW MESSAGE TO BE TYPED IN                                  LM00382
                  *   3. 'RESET' - RESETS MESSAGE SWITCH TO KEEP IT FROM BEING                         LM00383
                  *                 PRINTED UPON A DIALUP.                                             LM00384
                  *                                                                                    LM00385
                  EQUIVALENCE (HELMES(13),TUCARD(13))                                             *189 LM00386
                  VECTOR VALUES HELMES = $NEXT COMEDOW$                                           *190 LM00387
                  VECTOR VALUES HELMES(2) = 453560575757K                                         *191 LM00388
                  *                                                                                    LM00389
                  OR WHENEVER COMBUF(M) .E. $ HELLO$                                              *192 LM00390
                    M = M+1                                                                       *193 LM00391
                    WHENEVER COMBUF(M) .E. HELP                                                   *194 LM00392
                      PRFULL.(FMT4...100)                                                         *195 LM00393
                      VECTOR VALUES FMT4 = $ 'UADMIN HELLO 'LARG'*'8$,                            *196 LM00394
                1     $WHERE '=ARG'= MAY BE:'*'8$,                                                *196 LM00395
                2     $  1.   NONE   - SETS 'U'=NEXT COMDOWN:'='L MESSAGE'*'8$,                   *196 LM00396
                3     $  2. '='6NEWMES'= - ALLOWS COMPLETELY NEW MESSAGE'*'8$,                    *196 LM00397
                4     $  3. '='5RESET'=  - RESETS MESSAGE SWITCH$,777777777777K                   *196 LM00398
                  *                                                                                    LM00399
                    OTHERWISE                                                                     *197 LM00400
                      MESGPT = COMMON.(MESGPT)                                                    *198 LM00401
                      SYSMSG = COMMON.(SYSMSG)                                                    *199 LM00402
                      WHENEVER COMBUF(M) .E. $NEWMES$                                             *200 LM00403
                        PRFULA.($'R'1TYPE: 'B'8$)                                                 *201 LM00404
                        RDFLXC.(HELMES,84)                                                        *202 LM00405
                      OR WHENEVER COMBUF(M) .E. $ RESET$                                          *203 LM00406
                        SLOC.(0,MESGPT)                                                           *204 LM00407
                        TRANSFER TO OUT                                                           *205 LM00408
                      OR WHENEVER COMBUF(M) .E. FENCE                                             *206 LM00409
                        PRFULA.($'R'X$,HELMES...3,$'B'8$)                                         *207 LM00410
                        RDFLXC.(HELMES(3),66)                                                     *208 LM00411
                      OTHERWISE                                                                   *209 LM00412
                        TRANSFER TO ERR1                                                          *210 LM00413
                      END OF CONDITIONAL                                                          *211 LM00414
                      THROUGH HEL1, FOR I = 0,1,I.G.13                                            *212 LM00415
      HEL1            SLOC.(HELMES(I),SYSMSG+I)                                                   *213 LM00416
                      SLOC.(16K6.V.SYSMSG,MESGPT)                                                 *214 LM00417
                    END OF CONDITIONAL                                                            *215 LM00418
                  *                                                                                    LM00419
                  *                                                                                    LM00420
                  *                                                                                    LM00421
                  * **********************************************************                         LM00422
                  * **********************************************************                         LM00423
                  * **********************************************************                         LM00424
                  *                                                                                    LM00425
                  *                            INPUT                                                   LM00426
                  *                                                                                    LM00427
                  * **********************************************************                         LM00428
                  * **********************************************************                         LM00429
                  * **********************************************************                         LM00430
                  *                                                                                    LM00431
      INPUT       * INPUT A LINE TO A USER'S INPUT BUFFER                                              LM00432
                  *                                                                                    LM00433
                  * USAGE: ADMIN INPUT USER -(DRMT)-                                                   LM00434
                  *                                                                                    LM00435
                  DIMENSION INPMES(14)                                                            *216 LM00436
                  EQUIVALENCE (INPMES,TACARD), (DRMTSW,T0)                                        *217 LM00437
                  BOOLEAN DRMTSW                                                                  *218 LM00438
                  *                                                                                    LM00439
                  OR WHENEVER COMBUF(M) .E. $ INPUT$                                              *219 LM00440
                    M = M+1                                                                       *220 LM00441
                    WHENEVER COMBUF(M) .E. HELP                                                   *221 LM00442
                      PRFULL.(ADMIN...2,CURCOM.(0),$ '4USER -(DRMT)-$)                            *222 LM00443
                    OTHERWISE                                                                     *223 LM00444
                      GETUSR.(ERR3,ERR4,INP1)                                                     *224 LM00445
      INP1            WHENEVER COMBUF(M) .E. $(DRMT)$                                             *225 LM00446
                        DRMTSW = 1B                                                               *226 LM00447
                      OR WHENEVER COMBUF(M) .E. FENCE                                             *227 LM00448
                        DRMTSW = 0B                                                               *228 LM00449
                      OTHERWISE                                                                   *229 LM00450
                        TRANSFER TO ERR1                                                          *230 LM00451
                      END OF CONDITIONAL                                                          *231 LM00452
                      PRFULA.($'R'1TYPE: 'B'8$)                                                   *232 LM00453
                      RDFLXA.(INPMES(14)...14)                                                    *233 LM00454
                      NONINT.                                                                     *234 LM00455
                      WHENEVER DRMTSW                                                             *235 LM00456
                        RSSWB.(USR)                                                               *236 LM00457
                        SCHEDL.(2,USR,1)                                                          *237 LM00458
                      END OF CONDITIONAL                                                          *238 LM00459
                      ENTLIN.(INPMES(14)...14,USR,ERR7)                                           *239 LM00460
                      INT.                                                                        *240 LM00461
                    END OF CONDITIONAL                                                            *241 LM00462
                  *                                                                                    LM00463
                  *                                                                                    LM00464
                  *                                                                                    LM00465
                  * **********************************************************                         LM00466
                  * **********************************************************                         LM00467
                  * **********************************************************                         LM00468
                  *                                                                                    LM00469
                  *                            KILL                                                    LM00470
                  *                                                                                    LM00471
                  * **********************************************************                         LM00472
                  * **********************************************************                         LM00473
                  * **********************************************************                         LM00474
                  *                                                                                    LM00475
      KILL        * LOG A USER OUT                                                                     LM00476
                  *                                                                                    LM00477
                  * USAGE: ADMIN KILL USER                                                             LM00478
                  *                                                                                    LM00479
                  OR WHENEVER COMBUF(M) .E. $  KILL$                                              *242 LM00480
                    M = M+1                                                                       *243 LM00481
                    WHENEVER COMBUF(M) .E. HELP                                                   *244 LM00482
                      PRFULL.(ADMIN...2,CURCOM.(0),$ 'LUSER$)                                     *245 LM00483
                    OTHERWISE                                                                     *246 LM00484
                      GETUSR.(ERR3,ERR4,ERR5)                                                     *247 LM00485
                      WHENEVER COMBUF(M).NE.FENCE, TRANSFER TO ERR1                               *248 LM00486
                      PCTL.(3)                                                                    *249 LM00487
                      PRFULL.(X,WHO(3)...M2,ON,WHO,$ KILLING'X$,                                  *250 LM00488
                1           PROB...2,$.$)                                                         *250 LM00489
                      PCTL.(1)                                                                    *251 LM00490
                  *                                                                                    LM00491
                  *   M1416 4301 0N 800251 KILLING M1416 9324.                                         LM00492
                  *                                                                                    LM00493
                      KILL.(USR)                                                                  *252 LM00494
                    END OF CONDITIONAL                                                            *253 LM00495
                  *                                                                                    LM00496
                  *                                                                                    LM00497
                  *                                                                                    LM00498
                  * **********************************************************                         LM00499
                  * **********************************************************                         LM00500
                  * **********************************************************                         LM00501
                  *                                                                                    LM00502
                  *                            MONTH                                                   LM00503
                  *                                                                                    LM00504
                  * **********************************************************                         LM00505
                  * **********************************************************                         LM00506
                  * **********************************************************                         LM00507
                  *                                                                                    LM00508
      MONTH       * UPDATE TIMUSD AND RESET TAU VECTORS                                                LM00509
                  *                                                                                    LM00510
                  * USAGE:   ADMIN MONTH -NAME1- -NAME2-                                               LM00511
                  *                                                                                    LM00512
                  * E'E (T0,N1), (T1,N2), (TUCARD(8),LENGTH), (T6,TAULOC)                              LM00513
                  EQUIVALENCE (T7,LEN)                                                            *254 LM00514
                  EQUIVALENCE (TUCARD(2),DAYTIM), (TUCARD(1),DATELU)                              *255 LM00515
                  *                                                                                    LM00516
                  OR WHENEVER COMBUF(M) .E. $ MONTH$                                              *256 LM00517
                    M = M+1                                                                       *257 LM00518
                    WHENEVER COMBUF(M) .E. HELP                                                   *258 LM00519
                      PRFULL.($ 'UADMIN MONTH 'L-NAME1- -NAME2-$)                                 *259 LM00520
                    OTHERWISE                                                                     *260 LM00521
                      CHKPRV.(BITS.V.RPATBT)                                                      *261 LM00522
                      N1 = COMBUF(M)                                                              *262 LM00523
                      N2 = COMBUF(M+1)                                                            *263 LM00524
                      WHENEVER N1 .E. FENCE                                                       *264 LM00525
                        N1 = TU                                                                   *265 LM00526
                        N2 = TA                                                                   *266 LM00527
                      OR WHENEVER N2 .E. FENCE                                                    *267 LM00528
                        N2 = TA                                                                   *268 LM00529
                      OR WHENEVER COMBUF(M+2) .NE. FENCE                                          *269 LM00530
                        TRANSFER TO ERR1                                                          *270 LM00531
                      END OF CONDITIONAL                                                          *271 LM00532
                      LEN = 5*(N+1)                                                               *272 LM00533
                      TAULOC = COMMON.(TAU5)                                                      *273 LM00534
                      GETBUF.(B5,LEN)                                                             *274 LM00535
                      ATTACH.(M1416,CMFL02)                                                       *275 LM00536
                      FSTATE.(TU,TA,LENGTH...8)                                                   *276 LM00537
                  *                                                                                    LM00538
                      PCTL.(3)                                                                    *277 LM00539
                      PRFULL.(X,WHO(3)...M2,ON,WHO,$ RESETTING TIMUSD AT 'X$,                     *278 LM00540
                1       DATE,X,TIME,$.$)                                                          *278 LM00541
                      PCTL.(1)                                                                    *279 LM00542
                  *                                                                                    LM00543
                  *    M1416 4301 ON 800251 RESETTING TIMUSD AT 12/31 2359.1.                          LM00544
                  *                                                                                    LM00545
                  *                                                                                    LM00546
                  * GO NON-INTERRUPTABLE, RENAME PRESENT TIMUSD TIMACC TO                              LM00547
                  * DATE-TIME, SETFIL A NEW ONE, MOVFIL THE OLD ONE TO MY                              LM00548
                  * DIRECTORY, GET ALL TAU VECTORS AND PROBNO-PROGNO'S.                                LM00549
                  *                                                                                    LM00550
                      NONINT.                                                                     *280 LM00551
                      DATE = RJUST.(DATE)                                                         *281 LM00552
                      CHFILE.(TU,TA,20K,DATE,TIME)                                                *282 LM00553
                      SETFIL.(TU,TA,DAYTIM,DATELU,120K,2)                                         *283 LM00554
                      MOVFIL.(DATE,TIME,ME(1),ME)                                                 *284 LM00555
                      GETARY.(TAULOC,B5(B5+LEN)...LEN)                                            *285 LM00556
                      GETPRB.                                                                     *286 LM00557
                  *                                                                                    LM00558
                  *  RESET ALL TIME USED IN CORE A TO ZERO                                             LM00559
                  *                                                                                    LM00560
                      THROUGH MON1, FOR I = 0,1,I.G.LEN                                           *287 LM00561
      MON1            SLOC.(GLOC.(TAULOC+I).A.77776K7,TAULOC+I)                                   *288 LM00562
                      INT.                                                                        *289 LM00563
                  *                                                                                    LM00564
                  *                                                                                    LM00565
                      ATTACH.(ME(1),ME)                                                           *290 LM00566
                      LEN = N+1                                                                   *291 LM00567
                      TU = DATE                                                                   *292 LM00568
                      TA = TIME                                                                   *293 LM00569
                      STATUS = $RW$                                                               *294 LM00570
      MON2            READTU.(PROBN(PROBN),PROGN(PROGN),N,MONEOF)                                 *295 LM00571
                      UPSHFT.                                                                     *296 LM00572
                      WRWAIT.(TU,TA,RELLOC,TUCARD(27)...28)                                       *297 LM00573
                      TRANSFER TO MON2                                                            *298 LM00574
                  *                                                                                    LM00575
                  *  ALL USERS WHICH WERE FOUND IN TIMUSD HAVE BEEN UPDATED,                           LM00576
                  *  NOW CREATE ADDITIONAL CARDS FOR THOSE NOT FOUND.                                  LM00577
                  *                                                                                    LM00578
      MONEOF          THROUGH MON3, FOR J = 0,1,J.G.27                                            *299 LM00579
      MON3            TUCARD(J) = $$                                                              *300 LM00580
                      BFOPEN.(W,TU,TA,B1(B1+432),B2(B2+432),B3(B3+432),IOERR)                     *301 LM00581
                      THROUGH MON4, FOR I = 0,1,I.G.N                                             *302 LM00582
                      WHENEVER PROBN(PROBN+I) .NE. 0                                              *303 LM00583
                        TUCARD(27) = PROBN(PROBN+I)                                               *304 LM00584
                        TUCARD(26) = PROGN(PROGN+I)                                               *305 LM00585
                        TUCARD(13) = DATE                                                         *306 LM00586
                        TUCARD(12) = TIME                                                         *307 LM00587
                        UPSHFT.                                                                   *308 LM00588
                        BFWRIT.(TU,TA,TUCARD(27)...28,IOERR)                                      *309 LM00589
                      END OF CONDITIONAL                                                          *310 LM00590
      MON4            CONTINUE                                                                    *311 LM00591
                      BFCLOS.(TU,TA,IOERR)                                                        *312 LM00592
                      UNLINK.(N1,N2,NULL.)                                                        *313 LM00593
                      CHFILE.(N1,N2,1,M0,M0,NULL.)                                                *314 LM00594
                      DELFIL.(N1,N2,NULL.)                                                        *315 LM00595
                      CHFILE.(TU,TA,124K,N1,N2)                                                   *316 LM00596
                    END OF CONDITIONAL                                                            *317 LM00597
                  *                                                                                    LM00598
                  *                                                                                    LM00599
                  *                                                                                    LM00600
                  * **********************************************************                         LM00601
                  * **********************************************************                         LM00602
                  * **********************************************************                         LM00603
                  *                                                                                    LM00604
                  *                            PATCH                                                   LM00605
                  *                                                                                    LM00606
                  * **********************************************************                         LM00607
                  * **********************************************************                         LM00608
                  * **********************************************************                         LM00609
                  *                                                                                    LM00610
      PATCH       * PATCH CORE A                                                                       LM00611
                  *                                                                                    LM00612
                  * USAGE:  ADMIN PATCH LOC -DELTA- LHALF RHALF                                        LM00613
                  * WHERE 'LOC' IS EITHER AN OCTAL LOCATION, COMMON VARIABLE,                          LM00614
                  * OR ENTRY POINT.  DELTA MAY BE ' '+' OR '-' LENGTH'.                                LM00615
                  * (IF LENGTH ENDS WITH A '.', IT IS ASSUMED TO BE                                    LM00616
                  * DECIMAL, OTHERWISE, OCTAL.)                                                        LM00617
                  *                                                                                    LM00618
                  EQUIVALENCE (T0,UPATSW), (T1,NAMESW), (T2,DELTA), (T3,LOC)                      *318 LM00619
                  EQUIVALENCE (T4,LHALF), (T5,RHALF), (T6,TEST), (T7,KEYS)                        *319 LM00620
                  EQUIVALENCE (TUCARD,PATMES)                                                     *320 LM00621
                  DIMENSION PATMES(2)                                                             *321 LM00622
                  BOOLEAN UPATSW,NAMESW                                                           *322 LM00623
                  *                                                                                    LM00624
                  DEFINE UNARY OPERATOR .ENK., PRECEDENCE HIGHER THAN .LS.                        *323 LM00625
                  MODE STRUCTURE .ENK. 1 TO 1                                                     *324 LM00626
             XEC      =76000000004K                                                               *325 LM00627
             STQ      B                                                                           *326 LM00628
             OUT      MQ                                                                          *327 LM00629
             END                                                                                  *328 LM00630
                  *                                                                                    LM00631
                  OR WHENEVER COMBUF(M) .E. $ PATCH$                                              *329 LM00632
                    M = M+1                                                                       *330 LM00633
                    WHENEVER COMBUF(M) .E. HELP                                                   *331 LM00634
                      PRFULL.(FMT3...100)                                                         *332 LM00635
                      VECTOR VALUES FMT3 =$ 'UADMIN PATCH 'LLOC -DELTA- LHALF RHALF$,             *333 LM00636
                1     $'* WHERE '=LOC'= IS EITHER AN OCTAL LOCATION, COMMON V$,                   *333 LM00637
                2     $ARIABLE, '* OR AN ENTRY POINT.  '1 DELTA MAY BE '=+'= $,                   *333 LM00638
                3     $OR '=-'= LENGTH.'* ('1IF LENGTH ENDS WITH A '=.'=, IT $,                   *333 LM00639
                4     $IS ASSUMED DECIMAL, OTHERWISE, OCTAL.)$,777777777777K                      *333 LM00640
                    OTHERWISE                                                                     *334 LM00641
      PAT1            WHENEVER COMBUF(M) .E. FENCE, TRANSFER TO ERR2                              *335 LM00642
                      WHENEVER ZEL.(COMBUF(M)).A.$YYYYYY$ .E. 0                                   *336 LM00643
                        NAMESW = 0B                                                               *337 LM00644
                        LOC = BCOCT.(COMBUF(M))                                                   *338 LM00645
                      OTHERWISE                                                                   *339 LM00646
                        NAMESW = 1B                                                               *340 LM00647
                        PATMES = BZ57.(COMBUF(M))                                                 *341 LM00648
                        WHENEVER .NOT.UPATSW, PATMES(1) = NULLS                                   *342 LM00649
                        PATMES(2) = NULLS                                                         *343 LM00650
                        LOC = COMLOC.(LJUST.(COMBUF(M)),PAT2)                                     *344 LM00651
                        TRANSFER TO PAT3                                                          *345 LM00652
      PAT2              LOC = ENTRY.(COMBUF(M))                                                   *346 LM00653
                      END OF CONDITIONAL                                                          *347 LM00654
      PAT3            M = M+1                                                                     *348 LM00655
                  *                                                                                    LM00656
                  *  TEST FOR THE DELTA OPTION (ON PATCH ONLY)                                         LM00657
                  *                                                                                    LM00658
                      WHENEVER UPATSW, TRANSFER TO PAT4                                           *349 LM00659
                      WHENEVER (COMBUF(M).E.$     +$ .OR. COMBUF(M).E.$     -$)                   *350 LM00660
                1       .AND. ZEL.(COMBUF(M+1)).A.$     0$.E.0                                    *350 LM00661
                        WHENEVER COMBUF(M+1).A.77K .E. $00000.$                                   *351 LM00662
                          DELTA = BCDEC.(COMBUF(M+1).RS.6)                                        *352 LM00663
                        OR WHENEVER ZEL.(COMBUF(M+1)).A.$YYYYYY$ .NE. 0                           *353 LM00664
                          DELTA = BCDEC.(COMBUF(M+1))                                             *354 LM00665
                        OTHERWISE                                                                 *355 LM00666
                          DELTA = BCOCT.(COMBUF(M+1))                                             *356 LM00667
                        END OF CONDITIONAL                                                        *357 LM00668
                        WHENEVER COMBUF(M).E.$     -$, DELTA = -DELTA                             *358 LM00669
                        LOC = LOC + DELTA                                                         *359 LM00670
                        PATMES(1) = (COMBUF(M).LS.24).V.60575757K                                 *360 LM00671
                        PATMES(2) = BZ57.(COMBUF(M+1))                                            *361 LM00672
                        M = M+2                                                                   *362 LM00673
                      END OF CONDITIONAL                                                          *363 LM00674
      PAT4            WHENEVER UPATSW, LOC = LOC + USER                                           *364 LM00675
                      WHENEVER .NOT. NAMESW                                                       *365 LM00676
                        PATMES = BZ57.(OCABC.(LOC))                                               *366 LM00677
                        PATMES(1) = NULLS                                                         *367 LM00678
                        PATMES(2) = NULLS                                                         *368 LM00679
                      END OF CONDITIONAL                                                          *369 LM00680
                      LHALF = COMBUF(M)                                                           *370 LM00681
                      RHALF = COMBUF(M+1)                                                         *371 LM00682
                      M = M+2                                                                     *372 LM00683
                      WHENEVER LHALF.V.RHALF .E. FENCE, TRANSFER TO ERR2                          *373 LM00684
                      WHENEVER COMBUF(M).NE.FENCE, TRANSFER TO ERR1                               *374 LM00685
                      TEST = GLOC.(LOC)                                                           *375 LM00686
                      WHENEVER LHALF.E.STAR, LHALF = OCLBC.(TEST)                                 *376 LM00687
                      WHENEVER RHALF.E.STAR, RHALF = OCRBC.(TEST)                                 *377 LM00688
                      LHALF = ZEL.(LHALF)                                                         *378 LM00689
                      RHALF = ZEL.(RHALF)                                                         *379 LM00690
                      WHENEVER (LHALF.V.RHALF).A.$YYYYYY$.NE.0, TRANSFER TO ERR6                  *380 LM00691
      PATTST          WHENEVER .ENK.KEYS.A.KEY22 .NE. KEY22 .AND. WHO.NE.$(FIB)$                  *381 LM00692
                        GETTM.(DATE,TIME)                                                         *382 LM00693
                        PRFULL.($'R'1KEY 22 NOT SET AT 'X$,TIME,BLACK)                            *383 LM00694
                        SNOOZE.(10,SLPCMD(2))                                                     *384 LM00695
                        TRANSFER TO PATTST                                                        *385 LM00696
                      END OF CONDITIONAL                                                          *386 LM00697
                      PCTL.(3)                                                                    *387 LM00698
                      PRFULL.(X,WHO(3)...M2,ON,WHO,$ PATCHING 'X$,PATMES...3,                     *388 LM00699
                1    $'L FROM '8$,OCLBC.(TEST),OCRBC.(TEST),$ TO '8$,                             *388 LM00700
                2    LHALF,RHALF,$.$)                                                             *388 LM00701
                      PCTL.(1)                                                                    *389 LM00702
                  *                                                                                    LM00703
                  *  M1416 4301 ON 800280 PATCHING RCODE(USER) FROM X TO Y                             LM00704
                  *  M1416 4301 ON 800280 PATCHING QUANTM FROM X TO Y                                  LM00705
                  *  M1416 4301 ON 800280 PATCHING SLPTIM + 15. FROM X TO Y                            LM00706
                  *  M1416 4301 ON 800280 PATCHING 76125 FROM X TO Y                                   LM00707
                  *                                                                                    LM00708
                      SLOC.((BCOCT.(LHALF).LS.18).V.BCOCT.(RHALF),LOC)                            *390 LM00709
                    END OF CONDITIONAL                                                            *391 LM00710
                  *                                                                                    LM00711
                  *                                                                                    LM00712
                  *                                                                                    LM00713
                  * **********************************************************                         LM00714
                  * **********************************************************                         LM00715
                  * **********************************************************                         LM00716
                  *                                                                                    LM00717
                  *                            PB                                                      LM00718
                  *                                                                                    LM00719
                  * **********************************************************                         LM00720
                  * **********************************************************                         LM00721
                  * **********************************************************                         LM00722
                  *                                                                                    LM00723
      PB          * ASSIGN A PERCENTAGE OF THE CPU TIME TO A USER                                      LM00724
                  *                                                                                    LM00725
                  * USAGE:  ADMIN PB N USER (N = THE PERCENTAGE)                                       LM00726
                  *                                                                                    LM00727
                  EQUIVALENCE (T0,PB)                                                             *392 LM00728
                  *                                                                                    LM00729
                  OR WHENEVER COMBUF(M) .E. $    PB$                                              *393 LM00730
                    M = M+1                                                                       *394 LM00731
                    PB = BCDEC.(COMBUF(M))                                                        *395 LM00732
                    WHENEVER COMBUF(M) .E. HELP                                                   *396 LM00733
                      PRFULL.(ADMIN...2,CURCOM.(0),$ 'LN USER$)                                   *397 LM00734
                    OR WHENEVER ZEL.(COMBUF(M)).A.$$ .NE. 0 .OR. PB.G.100                         *398 LM00735
                      TRANSFER TO ERR0                                                            *399 LM00736
                    OTHERWISE                                                                     *400 LM00737
                      M = M+1                                                                     *401 LM00738
                      GETUSR.(PB0,ERR4,ERR5)                                                      *402 LM00739
      PB0             PCTL.(3)                                                                    *403 LM00740
                      PRFULL.(X,WHO(3)...M2,ON,WHO,$ SETTING PERCENTAGE OF 'X$,                   *404 LM00741
                1     PROB...2,$ TO 'X$,BZ57.(DEFBC.(PB)),$.$)                                    *404 LM00742
                      PCTL.(1)                                                                    *405 LM00743
                  *                                                                                    LM00744
                  *      M1416 4301 ON 800251 SETTING PERCENTAGE OF                                    LM00745
                  *      M1416 9324 TO 15.                                                             LM00746
                  *                                                                                    LM00747
                      SLOC.(PB,COMMON.($PB$)+USR)                                                 *406 LM00748
                      SLOC.(GLOC.(COMMON.(TIMNOW)),COMMON.(STRTIM)+USR)                           *407 LM00749
                      SLOC.(0,COMMON.(WRKTIM)+USR)                                                *408 LM00750
                    END OF CONDITIONAL                                                            *409 LM00751
                  *                                                                                    LM00752
                  *                                                                                    LM00753
                  *                                                                                    LM00754
                  * **********************************************************                         LM00755
                  * **********************************************************                         LM00756
                  * **********************************************************                         LM00757
                  *                                                                                    LM00758
                  *                            PRNTON                                                  LM00759
                  *                                                                                    LM00760
                  * **********************************************************                         LM00761
                  * **********************************************************                         LM00762
                  * **********************************************************                         LM00763
                  *                                                                                    LM00764
      PRNTON      * PRINT A MESSAGE (OR FILE) ONLINE                                                   LM00765
                  *                                                                                    LM00766
                  * USAGE:  ADMIN PRNTON -NAME1 NAME2-                                                 LM00767
                  *                                                                                    LM00768
                  OR WHENEVER COMBUF(M) .E. $PRNTON$                                              *410 LM00769
                    M = M+1                                                                       *411 LM00770
                    WHENEVER COMBUF(M) .E. HELP                                                   *412 LM00771
                      PRFULL.(ADMIN...2,CURCOM.(0),$ 'L-NAME1 NAME2-$)                            *413 LM00772
                    OTHERWISE                                                                     *414 LM00773
                      PRNTON.(COMBUF(M),COMBUF(M+1))                                              *415 LM00774
                    END OF CONDITIONAL                                                            *416 LM00775
                  *                                                                                    LM00776
                  *                                                                                    LM00777
                  *                                                                                    LM00778
                  * **********************************************************                         LM00779
                  * **********************************************************                         LM00780
                  * **********************************************************                         LM00781
                  *                                                                                    LM00782
                  *                            RDTIMU                                                  LM00783
                  *                                                                                    LM00784
                  * **********************************************************                         LM00785
                  * **********************************************************                         LM00786
                  * **********************************************************                         LM00787
                  *                                                                                    LM00788
      RDTIMU      * FIND THE TIME USED BY A USER                                                       LM00789
                  *                                                                                    LM00790
                  * USAGE:  ADMIN RDTIMU USER -NAME1- -NAME2-                                          LM00791
                  *                                                                                    LM00792
                  * E'E (T0,N1), (T1,N2) (T6,TAULOC)                                                   LM00793
                  EQUIVALENCE (T2,NOTLIN), (T3,FOUND), (T4,SHFT), (T5,TAU)                        *417 LM00794
                  EQUIVALENCE (TUCARD(27),USED(5)), (TUCARD(21),ALTD(5))                          *418 LM00795
                  DIMENSION ALTD(0),USED(0)                                                       *419 LM00796
                  BOOLEAN NOTLIN, FOUND                                                           *420 LM00797
                  *                                                                                    LM00798
                  OR WHENEVER COMBUF(M) .E. $RDTIMU$                                              *421 LM00799
                    M = M+1                                                                       *422 LM00800
                    WHENEVER COMBUF(M) .E. HELP                                                   *423 LM00801
                      PRFULL.(ADMIN...2,CURCOM.(0),$ '4USER -NAME1- -NAME2-$)                     *424 LM00802
                    OTHERWISE                                                                     *425 LM00803
                      NOTLIN = 1B                                                                 *426 LM00804
                      GETUSR.(RTU0,RTU1,ERR5)                                                     *427 LM00805
      RTU0            NOTLIN = 0B                                                                 *428 LM00806
      RTU1            WHENEVER COMBUF(M) .E. FENCE                                                *429 LM00807
                        NONINT.                                                                   *430 LM00808
                        ATTACH.(M1416,CMFL02)                                                     *431 LM00809
                        TRANSFER TO RTU2                                                          *432 LM00810
                      END OF CONDITIONAL                                                          *433 LM00811
                      TU = COMBUF(M)                                                              *434 LM00812
                      M = M+1                                                                     *435 LM00813
                      WHENEVER COMBUF(M) .NE. FENCE                                               *436 LM00814
                        TA = COMBUF(M)                                                            *437 LM00815
                        M = M+1                                                                   *438 LM00816
                      END OF CONDITIONAL                                                          *439 LM00817
                      WHENEVER COMBUF(M) .NE. FENCE, TRANSFER TO ERR1                             *440 LM00818
                  *                                                                                    LM00819
      RTU2            STATUS = R                                                                  *441 LM00820
                      READTU.(PROB,PROG,1,RTU3)                                                   *442 LM00821
                      NAME = TUCARD(25)                                                           *443 LM00822
                      FOUND = 1B                                                                  *444 LM00823
                      BFCLOS.(TU,TA,RTU3)                                                         *445 LM00824
                  *                                                                                    LM00825
      RTU3            INT.                                                                        *446 LM00826
                      WHENEVER NOTLIN .AND. .NOT.FOUND                                            *447 LM00827
                        PRFULL.($'1NEVER HEARD OF 'X$,PROB...2)                                   *448 LM00828
                        TRANSFER TO OUT                                                           *449 LM00829
                      OR WHENEVER NOTLIN                                                          *450 LM00830
                        THROUGH RTU4, FOR I = 1,1,I.G.5                                           *451 LM00831
                          ALTD(I) = 0                                                             *452 LM00832
                          USED(I) = BCDEC.(TUCARD(10-I))*60                                       *453 LM00833
      RTU4              CONTINUE                                                                  *454 LM00834
                      OTHERWISE                                                                   *455 LM00835
                        TAULOC = COMMON.(TAU5)                                                    *456 LM00836
                        THROUGH RTU5, FOR I = 4,-1,I.L.0                                          *457 LM00837
                          TAU = GLOC.(TAULOC+I*(N+1)+USR)                                         *458 LM00838
                          USED(5-I) = TAU.A.17777777K                                             *459 LM00839
                          ALTD(5-I) = TAU.RS.14                                                   *460 LM00840
                          WHENEVER ALTD(5-I).NE.0, ALTD(5-I)=ALTD(5-I).V.377K                     *461 LM00841
      RTU5                CONTINUE                                                                *462 LM00842
                      END OF CONDITIONAL                                                          *463 LM00843
                      PRFULL.(X,NAME,X,PROB...2)                                                  *464 LM00844
                      THROUGH RTU6, FOR I = 1,1,I.G.5                                             *465 LM00845
                      WHENEVER ALTD(I).V.USED(I) .NE. 0                                           *466 LM00846
                        SHFT = DEFBC.(I).LS.12.V.$0000  $                                         *467 LM00847
                        PRFULL.(BZEL.(SHFT),BZEL.(MINS.(ALTD(I))),                                *468 LM00848
                1         BZEL.(MINS.(USED(I))))                                                  *468 LM00849
                      END OF CONDITIONAL                                                          *469 LM00850
      RTU6            CONTINUE                                                                    *470 LM00851
                      WHENEVER FOUND, PRFULL.($'1LAST LOGOUT 'X$,                                 *471 LM00852
                1   TUCARD(13).A.7777K8.V.$00/00$.V.(TUCARD(13).RS.6.A.7777K2),                   *471 LM00853
                2     TUCARD(12),$ FROM $,X,TUCARD(11),$.$)                                       *471 LM00854
                  *                                                                                    LM00855
                  *     LAST LOGOUT 12/31 1832.1 FROM 800251.                                          LM00856
                  *                                                                                    LM00857
                      WHENEVER .NOT.NOTLIN, PRFULL.($'1NOW ON UNIT 'X$,                           *472 LM00858
                1     GLOC.(COMMON.(UNITID)+USR),$ LINE $,BZ57.(DEFBC.(USR)))                     *472 LM00859
                  *                                                                                    LM00860
                  *      NOW ON UNIT 800251 LINE 31                                                    LM00861
                  *                                                                                    LM00862
                    END OF CONDITIONAL                                                            *473 LM00863
                  *                                                                                    LM00864
                  *                                                                                    LM00865
                  *                                                                                    LM00866
                  * **********************************************************                         LM00867
                  * **********************************************************                         LM00868
                  * **********************************************************                         LM00869
                  *                                                                                    LM00870
                  *                            SETTAU                                                  LM00871
                  *                                                                                    LM00872
                  * **********************************************************                         LM00873
                  * **********************************************************                         LM00874
                  * **********************************************************                         LM00875
                  *                                                                                    LM00876
      SETTAU      * SET/RESET TAU VECTORS IN CORE A FOR A USER                                         LM00877
                  *                                                                                    LM00878
                  * USAGE:  ADMIN SETTAU SHFT ALTD USED USER                                           LM00879
                  *                                                                                    LM00880
                  * E'E (T4,SHFT), (T5,TAU), (T6,TAULOC)                                               LM00881
                  * E'E (TUCARD(27),USED(5)), (TUCARD(21),ALTD(5))                                     LM00882
                  EQUIVALENCE (OUSED,USED(1)), (OALTD,ALTD(1))                                    *474 LM00883
                  EQUIVALENCE (NUSED,USED(2)), (NALTD,ALTD(2))                                    *475 LM00884
                  *                                                                                    LM00885
                  OR WHENEVER COMBUF(M) .E. $SETTAU$                                              *476 LM00886
                    M = M+1                                                                       *477 LM00887
                    WHENEVER COMBUF(M) .E. HELP                                                   *478 LM00888
                      PRFULL.(ADMIN...2,CURCOM.(0),$ 'LSHIFT ALTD USED USER$)                     *479 LM00889
                    OTHERWISE                                                                     *480 LM00890
                      SHFT = COMBUF(M)                                                            *481 LM00891
                      ALTD = COMBUF(M+1)                                                          *482 LM00892
                      USED = COMBUF(M+2)                                                          *483 LM00893
                      M = M+3                                                                     *484 LM00894
                      WHENEVER SHFT.V.ALTD.V.USED .E. FENCE, TRANSFER TO ERR2                     *485 LM00895
                      SHFT = BCDEC.(SHFT)                                                         *486 LM00896
                      WHENEVER SHFT.E.0 .OR. SHFT.G.5, TRANSFER TO ERR0                           *487 LM00897
                      GETUSR.(SET0,ERR4,ERR5)                                                     *488 LM00898
      SET0            TAULOC = COMMON.(TAU1) - (SHFT-1)*(N+1) + USR                               *489 LM00899
                      TAU = GLOC.(TAULOC)                                                         *490 LM00900
                      OUSED = TAU.A.17777777K                                                     *491 LM00901
                      OALTD = TAU.RS.14.V.377K                                                    *492 LM00902
                  *                                                                                    LM00903
                      WHENEVER USED .E. STAR                                                      *493 LM00904
                        NUSED = OUSED                                                             *494 LM00905
                      OTHERWISE                                                                   *495 LM00906
                        WHENEVER ZEL.(USED).A.$$.NE.0, TRANSFER TO ERR0                           *496 LM00907
                        NUSED = BCDEC.(USED) * 3600                                               *497 LM00908
                      END OF CONDITIONAL                                                          *498 LM00909
                  *                                                                                    LM00910
                      WHENEVER ALTD .E. STAR                                                      *499 LM00911
                        NALTD = OALTD                                                             *500 LM00912
                      OTHERWISE                                                                   *501 LM00913
                        WHENEVER ZEL.(ALTD).A.$$ .NE. 0, TRANSFER TO ERR0                         *502 LM00914
                        NALTD = BCDEC.(ALTD) * 3600                                               *503 LM00915
                      END OF CONDITIONAL                                                          *504 LM00916
                  *                                                                                    LM00917
                      PCTL.(3)                                                                    *505 LM00918
                      PRFULL.(X,WHO(3)...M2,ON,WHO,$ SETTING '3TAU'X$,                            *506 LM00919
                1     BZ57.(DEFBC.(SHFT)),$ OF'X$,PROB...2,$ FROM $,                              *506 LM00920
                2     BZ57.(DEFBC.(OALTD/3600)),BL,BZ57.(DEFBC.(OUSED/3600)),                     *506 LM00921
                3     $ TO '8$,BZ57.(DEFBC.(NALTD/3600)),BL,                                      *506 LM00922
                4     BZ57.(DEFBC.(NUSED/3600)),$.$)                                              *506 LM00923
                        PCTL.(1)                                                                  *507 LM00924
                  *                                                                                    LM00925
                  *     M1416 3579 ON 800251 SETTING TAU1 OF M1416 4301                                LM00926
                  *          FROM 600 10 TO 300 30.                                                    LM00927
                  *                                                                                    LM00928
                      SLOC.(NALTD.LS.14.A.77776K7.V.NUSED.A.17777777K,TAULOC)                     *508 LM00929
                  *                                                                                    LM00930
                    END OF CONDITIONAL                                                            *509 LM00931
                  *                                                                                    LM00932
                  *                                                                                    LM00933
                  *                                                                                    LM00934
                  * **********************************************************                         LM00935
                  * **********************************************************                         LM00936
                  * **********************************************************                         LM00937
                  *                                                                                    LM00938
                  *                            SPY                                                     LM00939
                  *                                                                                    LM00940
                  * **********************************************************                         LM00941
                  * **********************************************************                         LM00942
                  * **********************************************************                         LM00943
                  *                                                                                    LM00944
      SPY         * SPY ON ANOTHER USER                                                                LM00945
                  *                                                                                    LM00946
                  * USAGE:  ADMIN SPY USER                                                             LM00947
                  *                                                                                    LM00948
                  EQUIVALENCE (OLDM,T0)                                                           *510 LM00949
                  *                                                                                    LM00950
                  OR WHENEVER COMBUF(M) .E. $   SPY$                                              *511 LM00951
                    M = M+1                                                                       *512 LM00952
                    WHENEVER COMBUF(M) .E. HELP                                                   *513 LM00953
                      PRFULL.($'UADMIN SPY 'LUSER$)                                               *514 LM00954
                    OTHERWISE                                                                     *515 LM00955
                      OLDM = M                                                                    *516 LM00956
      SPY1            GETUSR.(ERR3,SPY3,ERR5)                                                     *517 LM00957
                      PRFULL.($'1USER FOUND:'X$,PROB...2,$ LINE $,                                *518 LM00958
                1     BZ57.(DEFBC.(USR)))                                                         *518 LM00959
                      ADOPT = COMMON.(ADOPT)                                                      *519 LM00960
                      SLOC.(3K5.V.USR,ADOPT+USER)                                                 *520 LM00961
                      SLOC.(GLOC.(ADOPT+USR).V.7000003K5,ADOPT+USR)                               *521 LM00962
      SPY2            SNOOZE.(1800,SLPCMD(2))                                                     *522 LM00963
                  *  ... SLEEP FOR 30 MINUTES, THEN CALL SLEEP AGAIN.                                  LM00964
                      TRANSFER TO SPY2                                                            *523 LM00965
                  *                                                                                    LM00966
      SPY3            GETTM.(DATE,TIME)                                                           *524 LM00967
                      PRFULL.(X,PROB...2,$ IS NOT LOGGED IN - 'X$,TIME)                           *525 LM00968
                      SNOOZE.(15,SLPCMD(2))                                                       *526 LM00969
                      M = OLDM                                                                    *527 LM00970
                      TRANSFER TO SPY1                                                            *528 LM00971
                    END OF CONDITIONAL                                                            *529 LM00972
                  *                                                                                    LM00973
                  *                                                                                    LM00974
                  *                                                                                    LM00975
                  * **********************************************************                         LM00976
                  * **********************************************************                         LM00977
                  * **********************************************************                         LM00978
                  *                                                                                    LM00979
                  *                             SQZUFD                                                 LM00980
                  *                                                                                    LM00981
                  * **********************************************************                         LM00982
                  * **********************************************************                         LM00983
                  * **********************************************************                         LM00984
                  *                                                                                    LM00985
      SQZUFD      * COMPACT A USER U.F.D ELIMINATING HOLES                                             LM00986
                  *                                                                                    LM00987
                  * USAGE:  ADMIN SQZUFD USER1 USER2 ...                                               LM00988
                  *    ANY USER MAY BE FOLLOWED BY '(DRUM)' OR '(DISK)' TO                             LM00989
                  *    INDICATE WHERE THE FINAL UFD IS TO RESIDE.                                      LM00990
                  *                                                                                    LM00991
                  EQUIVALENCE (T0,N1), (T1,N2), (T2,NSTICK), (T3,STICKY)                          *530 LM00992
                  EQUIVALENCE (TUCARD(8),LENGTH), (TUCARD(5),DEV), (TUCARD(27),BUFF)              *531 LM00993
                  DIMENSION BUFF(0)                                                               *532 LM00994
                  *                                                                                    LM00995
                  OR WHENEVER COMBUF(M) .E. $SQZUFD$                                              *533 LM00996
                    M = M+1                                                                       *534 LM00997
                    WHENEVER COMBUF(M) .E. HELP                                                   *535 LM00998
                      PRFULL.(FMT5...100)                                                         *536 LM00999
                      VECTOR VALUES FMT5 = $ 'UADMIN SQZUFD 'LUSER1 USER2 ... $,                  *537 LM01000
                1   $'*  USER MAY BE FOLLOWED BY '='4(DISK)'= OR '='4(DRUM)'=$,                   *537 LM01001
                2   $'*  TO INDICATE WHERE THE FINAL UFD IS TO RESIDE.$,                          *537 LM01002
                3   777777777777K                                                                 *537 LM01003
                    OTHERWISE                                                                     *538 LM01004
                      GETBUF.(B1,432)                                                             *539 LM01005
                      GETBUF.(B2,432)                                                             *540 LM01006
                      GETBUF.(B3,432)                                                             *541 LM01007
                      GETBUF.(B4,432)                                                             *542 LM01008
                      GETBUF.(B5,432)                                                             *543 LM01009
                      FSTST = ENTRY.(FSTST)                                                       *544 LM01010
                      NSTICK = ENTRY.(SAVING) + 1                                                 *545 LM01011
                      STICKY = NSTICK + 6                                                         *546 LM01012
                      NSTICK = GLOC.(NSTICK)*13                                                   *547 LM01013
                      ATTACH.(MFD,FILE)                                                           *548 LM01014
                      FERRTN.(SQZERR)                                                             *549 LM01015
                  *                                                                                    LM01016
      SQZ1            GETUSR.(ERR3,SQZ2,ERR5)                                                     *550 LM01017
      SQZ2            NONINT.                                                                     *551 LM01018
                      FSTATE.(PROB,PROG,LENGTH...8,NOUFD)                                         *552 LM01019
                      TRANSFER TO SQZUFD                                                          *553 LM01020
      NOUFD           PRFULL.($'R'X$,PROB...2,$ NOT FOUND.'B$)                                    *554 LM01021
                      TRANSFER TO SQZOUT                                                          *555 LM01022
                  *                                                                                    LM01023
      SQZUFD          WHENEVER COMBUF(M) .E. $(DRUM)$                                             *556 LM01024
                        DEV = 1                                                                   *557 LM01025
                        M = M+1                                                                   *558 LM01026
                      OR WHENEVER COMBUF(M) .E. $(DISK)$                                          *559 LM01027
                        DEV = 2                                                                   *560 LM01028
                        M = M+1                                                                   *561 LM01029
                      END OF CONDITIONAL                                                          *562 LM01030
                      THROUGH SQZ3, FOR I = 0,13,I.G.NSTICK                                       *563 LM01031
                        N1 = GLOC.(STICKY+I)                                                      *564 LM01032
                        N2 = GLOC.(STICKY+I+1)                                                    *565 LM01033
                        WHENEVER N1 .E. PROB .AND. N2 .E. PROG                                    *566 LM01034
                          INT.                                                                    *567 LM01035
                          PRFULL.(RED,X,PROB...2,                                                 *568 LM01036
                1         $ HAS INFORMATION IN THE STICKIES.'B$)                                  *568 LM01037
                          TRANSFER TO SQZOUT                                                      *569 LM01038
                        END OF CONDITIONAL                                                        *570 LM01039
      SQZ3            CONTINUE                                                                    *571 LM01040
                      SLOC.(FENCE,FSTST)                                                          *572 LM01041
                  *                                                                                    LM01042
                  *  OPEN PROB PROG, DELETE PREVIOUS PROG PROB IF ANY,                                 LM01043
                  *  COPY PROB PROG INTO PROG PROB GETTING RID OF 0 ENTRIES.                           LM01044
                  *                                                                                    LM01045
                      ALLOT.(2,32767)                                                             *573 LM01046
                      ALLOT.(1,32767)                                                             *574 LM01047
                      BFOPEN.(R,PROB,PROG,B1(B1+432),B2(B2+432),M0,SQZERR)                        *575 LM01048
                      CHFILE.(PROG,PROB,1,M0,M0,NULL.)                                            *576 LM01049
                      DELFIL.(PROG,PROB,NULL.)                                                    *577 LM01050
                      BFOPEN.(W,PROG,PROB,B3(B3+432),B4(B4+432),B5(B5+432),                       *578 LM01051
                1     SQZERR)                                                                     *578 LM01052
                      BFREAD.(PROB,PROG,BUFF...3,SQZEOF,M0,SQZERR)                                *579 LM01053
                      BFWRIT.(PROG,PROB,BUFF...3,SQZERR)                                          *580 LM01054
      SQZ5            BFREAD.(PROB,PROG,BUFF...7,SQZEOF,M0,SQZERR)                                *581 LM01055
                      WHENEVER BUFF.V.BUFF(M1).NE.0,                                              *582 LM01056
                1       BFWRIT.(PROG,PROB,BUFF...7,SQZERR)                                        *582 LM01057
                      TRANSFER TO SQZ5                                                            *583 LM01058
                  *                                                                                    LM01059
      SQZEOF          BFCLOS.(PROB,PROG,SQZERR)                                                   *584 LM01060
                      BFCLOS.(PROG,PROB,SQZERR)                                                   *585 LM01061
      SQZ6            CHFILE.(PROB,PROG,1)                                                        *586 LM01062
                      DELFIL.(PROB,PROG)                                                          *587 LM01063
                      CHFILE.(PROG,PROB,104K,PROB,PROG)                                           *588 LM01064
                  *                                                                                    LM01065
                  *  IF UFD IS TO BE ON THE DRUM, USE THE COPY ROUTINE                                 LM01066
                  *  TO TRANSFER IT.                                                                   LM01067
                  *                                                                                    LM01068
                      WHENEVER DEV .E. 1                                                          *589 LM01069
                      DEV = 2                                                                     *590 LM01070
                      OPEN.(R,PROB,PROG)                                                          *591 LM01071
                      OPEN.(W,PROG,PROB,0,1)                                                      *592 LM01072
                      BUFFER.(PROG,PROB,B4(B4+432)...432)                                         *593 LM01073
                      COPY.(PROB,PROG,PROG,PROB,B1(B1+432),B2(B2+432),                            *594 LM01074
                1     B3(B3+432),432,SQZERR)                                                      *594 LM01075
                      CLOSE.(PROB,PROG)                                                           *595 LM01076
                      CLOSE.(PROG,PROB)                                                           *596 LM01077
                      TRANSFER TO SQZ6                                                            *597 LM01078
                      END OF CONDITIONAL                                                          *598 LM01079
                  *                                                                                    LM01080
      SQZOUT          RESETF.                                                                     *599 LM01081
                      SLOC.(0,FSTST)                                                              *600 LM01082
                      INT.                                                                        *601 LM01083
                      WHENEVER COMBUF(M).NE. FENCE, TRANSFER TO SQZ1                              *602 LM01084
                      TRANSFER TO OUT                                                             *603 LM01085
                  *                                                                                    LM01086
      SQZERR          PRDIAG.                                                                     *604 LM01087
                      TRANSFER TO SQZOUT                                                          *605 LM01088
                    END OF CONDITIONAL                                                            *606 LM01089
                  *                                                                                    LM01090
                  *                                                                                    LM01091
                  *                                                                                    LM01092
                  * **********************************************************                         LM01093
                  * **********************************************************                         LM01094
                  * **********************************************************                         LM01095
                  *                                                                                    LM01096
                  *                            UPATCH                                                  LM01097
                  *                                                                                    LM01098
                  * **********************************************************                         LM01099
                  * **********************************************************                         LM01100
                  * **********************************************************                         LM01101
                  *                                                                                    LM01102
      UPATCH      * PATCH PRESENT USERS ARRAY ENTRY IN CORE A                                          LM01103
                  *                                                                                    LM01104
                  * USAGE:  ADMIN UPATCH LOC LHALF RHALF                                               LM01105
                  *                                                                                    LM01106
                  * E'E (T0,UPATSW), (TUCARD,PATMES)                                                   LM01107
                  *                                                                                    LM01108
                  OR WHENEVER COMBUF(M) .E. $UPATCH$                                              *607 LM01109
                    M = M+1                                                                       *608 LM01110
                    WHENEVER COMBUF(M) .E. HELP                                                   *609 LM01111
                      PRFULL.(ADMIN...2,CURCOM.(0),$ 'LLOC LHALF RHALF$)                          *610 LM01112
                    OTHERWISE                                                                     *611 LM01113
                      UPATSW = 1B                                                                 *612 LM01114
                      PATMES(1) = $(USER)$                                                        *613 LM01115
                      TRANSFER TO PAT1                                                            *614 LM01116
                    END OF CONDITIONAL                                                            *615 LM01117
                  *                                                                                    LM01118
                  *                                                                                    LM01119
                  *                                                                                    LM01120
                  *                                                                                    LM01121
                  *                                                                                    LM01122
                  *                                                                                    LM01123
                  * **********************************************************                         LM01124
                  * **********************************************************                         LM01125
                  * **********************************************************                         LM01126
                  *                                                                                    LM01127
                  *                          UPDATE                                                    LM01128
                  *                                                                                    LM01129
                  *                                                                                    LM01130
                  *                                                                                    LM01131
                  * **********************************************************                         LM01132
                  * **********************************************************                         LM01133
                  * **********************************************************                         LM01134
                  *                                                                                    LM01135
                  *                                                                                    LM01136
      UPDATE      * UPDATE CMFL02 WITH ACCOUNTING FILES                                                LM01137
                  *                                                                                    LM01138
                  * USAGE:   ADMIN UPDATE N1 -N2- -N3- -N4-                                            LM01139
                  *                                                                                    LM01140
                  E'E (T0,N1), (T1,N2), (T2,N3), (T3,N4), (T7,MODE)                                    LM01141
                                                                                                       LM01142
                  OR WHENEVER COMBUF(M) .E. $UPDATE$                                              *616 LM01143
                    M = M+1                                                                       *617 LM01144
                    WHENEVER COMBUF(M) .E. HELP                                                   *618 LM01145
                      PRFULL.(ADMIN...2,CURCOM.(0),$ N1 -N2- -N3- -N4-$)                          *619 LM01146
                    OTHERWISE                                                                     *620 LM01147
                      N1 = COMBUF(M)                                                              *621 LM01148
                      N2 = COMBUF(M+1)                                                            *622 LM01149
                      N3 = COMBUF(M+2)                                                            *623 LM01150
                      N4 = COMBUF(M+3)                                                            *624 LM01151
                      WHENEVER N2 .E. FENCE                                                       *625 LM01152
                        N2 = TA                                                                   *626 LM01153
                        N3 = N1                                                                   *627 LM01154
                        N4 = N2                                                                   *628 LM01155
                      OR WHENEVER N3 .E. FENCE                                                    *629 LM01156
                        N3 = N1                                                                   *630 LM01157
                        N4 = N2                                                                   *631 LM01158
                      OR WHENEVER N4 .E. FENCE                                                    *632 LM01159
                        N4 = N2                                                                   *633 LM01160
                      OR WHENEVER N1 .E. FENCE                                                    *634 LM01161
                        TRANSFER TO ERR2                                                          *635 LM01162
                      OR WHENEVER COMBUF(M+4).NE.FENCE                                            *636 LM01163
                        M = M+4                                                                   *637 LM01164
                        TRANSFER TO ERR1                                                          *638 LM01165
                      END OF CONDITIONAL                                                          *639 LM01166
                  *                                                                                    LM01167
                      WHENEVER ME(1).E.M1416 .AND. ME.E.CMFL02 .AND.                              *640 LM01168
                1       N3.E.N1 .AND. N4.E.N2, TRANSFER TO ERR0                                   *640 LM01169
                      CHKPRV.(RPRVBT)                                                             *641 LM01170
                  *                                                                                    LM01171
                      GETBUF.(B1,432)                                                             *642 LM01172
                      GETBUF.(B2,432)                                                             *643 LM01173
                      GETBUF.(B3,432)                                                             *644 LM01174
                      GETBUF.(B4,432)                                                             *645 LM01175
                      OPEN.(R,N1,N2)                                                              *646 LM01176
                      ATTACH.(M1416,CMFL02)                                                       *647 LM01177
                      NONINT.                                                                     *648 LM01178
                      CHFILE.(DATE,TIME,1,M0,M0,NULL.)                                            *649 LM01179
                      DELFIL.(DATE,TIME,NULL.)                                                    *650 LM01180
                      OPEN.(W,DATE,TIME,120K)                                                     *651 LM01181
                      BUFFER.(DATE,TIME,B4(B4+432)...432)                                         *652 LM01182
                      COPY.(N1,N2,DATE,TIME,B1(B1+432),B2(B2+432),B3(B3+432),                     *653 LM01183
                1           432,IOERR)                                                            *653 LM01184
                      CLOSE.(DATE,TIME)                                                           *654 LM01185
                      CLOSE.(N1,N2)                                                               *655 LM01186
                      MODE = 120K                                                                 *656 LM01187
                      FSTATE.(N3,N4,TUCARD(1)...2,UPD1)                                           *657 LM01188
                      MODE = TUCARD.A.777K                                                        *658 LM01189
      UPD1            CHFILE.(N3,N4,1,M0,M0,NULL.)                                                *659 LM01190
                      DELFIL.(N3,N4,NULL.)                                                        *660 LM01191
                      CHFILE.(DATE,TIME,MODE,N3,N4)                                               *661 LM01192
                      INT.                                                                        *662 LM01193
                    END OF CONDITIONAL                                                            *663 LM01194
                  *                                                                                    LM01195
                  *                                                                                    LM01196
                  *                                                                                    LM01197
                  * **********************************************************                         LM01198
                  * **********************************************************                         LM01199
                  * **********************************************************                         LM01200
                  *                                                                                    LM01201
                  *                            WRITE                                                   LM01202
                  *                                                                                    LM01203
                  * **********************************************************                         LM01204
                  * **********************************************************                         LM01205
                  * **********************************************************                         LM01206
                  *                                                                                    LM01207
      WRITE       * WRITE A MESSAGE AT A USER                                                          LM01208
                  *                                                                                    LM01209
                  * USAGE: ADMIN WRITE USER                                                            LM01210
                  *                                                                                    LM01211
                  OR WHENEVER COMBUF(M) .E. $ WRITE$                                              *664 LM01212
                    M = M+1                                                                       *665 LM01213
                    WHENEVER COMBUF(M) .E. HELP                                                   *666 LM01214
                      PRFULL.(ADMIN...2,CURCOM.(0),$ 'LUSER$)                                     *667 LM01215
                    OTHERWISE                                                                     *668 LM01216
                      GETUSR.(ERR3,ERR4,ERR5)                                                     *669 LM01217
                      SETFUL.                                                                     *670 LM01218
                      WRITE.(USR)                                                                 *671 LM01219
                      SETBCD.                                                                     *672 LM01220
                    END OF CONDITIONAL                                                            *673 LM01221
                  *                                                                                    LM01222
                  *                                                                                    LM01223
                  *                                                                                    LM01224
                  OTHERWISE                                                                       *674 LM01225
                    WHENEVER M.E.0                                                                *675 LM01226
                      M = 1                                                                       *676 LM01227
                      TRANSFER TO USEROK                                                          *677 LM01228
                    OTHERWISE                                                                     *678 LM01229
                      PRFULL.($'R'X$,COMBUF(M),$ IS NOT A VALID FUNCTION.'B$)                     *679 LM01230
                    END OF CONDITIONAL                                                            *680 LM01231
                  END OF CONDITIONAL                                                              *681 LM01232
      OUT         RESETF.                                                                         *682 LM01233
                  ATTACH.(ME(1),ME,EXITM.)                                                        *683 LM01234
                  EXITM.                                                                          *684 LM01235
                  *                                                                                    LM01236
                  * **********************************************************                         LM01237
                  * **********************************************************                         LM01238
                  * **********************************************************                         LM01239
                  *                                                                                    LM01240
                  *                    ERROR PROCESSOR                                                 LM01241
                  *                                                                                    LM01242
                  * **********************************************************                         LM01243
                  * **********************************************************                         LM01244
                  * **********************************************************                         LM01245
                  *                                                                                    LM01246
                  *                                                                                    LM01247
                  *                                                                                    LM01248
      IOERR       PRFULA.(RED)                                                                    *685 LM01249
                  PRDIAG.                                                                         *686 LM01250
                  PRFULA.(BLACK)                                                                  *687 LM01251
                  TRANSFER TO OUT                                                                 *688 LM01252
                  *                                                                                    LM01253
      ERR0        PRFULL.($'R'1ILLEGAL USAGE.'B$)                                                 *689 LM01254
                  TRANSFER TO OUT                                                                 *690 LM01255
                  *                                                                                    LM01256
      ERR1        PRFULL.($'R'1ILLEGAL ARGUMENT: 'X$,COMBUF(M),BLACK)                             *691 LM01257
                  TRANSFER TO OUT                                                                 *692 LM01258
                  *                                                                                    LM01259
      ERR2        PRFULL.($'R'1MISSING ARGUMENT(S)'B$)                                            *693 LM01260
                  TRANSFER TO OUT                                                                 *694 LM01261
                  *                                                                                    LM01262
      ERR3        PRFULL.($'R'1MISSING OR ILLEGAL USER SPECIFICATION.'B$)                         *695 LM01263
                  TRANSFER TO OUT                                                                 *696 LM01264
                  *                                                                                    LM01265
      ERR5        PRFULL.($'R'1LINE '8$,BZ57.(DEFBC.(USR)),$ IS EMPTY.'B$)                        *697 LM01266
                  TRANSFER TO OUT                                                                 *698 LM01267
                  *                                                                                    LM01268
      ERR4        PRFULL.(RED,X,PROB...2,$ IS NOT LOGGED IN.'B$)                                  *699 LM01269
                  TRANSFER TO OUT                                                                 *700 LM01270
                  *                                                                                    LM01271
      ERR6        PRFULL.(RED,LHALF,RHALF,$ NOT OCTAL.'B$)                                        *701 LM01272
                  TRANSFER TO OUT                                                                 *702 LM01273
                  *                                                                                    LM01274
      ERR7        PRFULL.($'R'1SYSTEM ERROR: FULL RETURN FROM '6ENTLIN.'B$)                       *703 LM01275
                  TRANSFER TO OUT                                                                 *704 LM01276
                  *                                                                                    LM01277
                  *                                                                                    LM01278
                  *                                                                                    LM01279
                  * **********************************************************                         LM01280
                  * **********************************************************                         LM01281
                  * **********************************************************                         LM01282
                  *                                                                                    LM01283
                  *                    INTERNAL FUNCTIONS                                              LM01284
                  *                                                                                    LM01285
                  * **********************************************************                         LM01286
                  * **********************************************************                         LM01287
                  * **********************************************************                         LM01288
                  *                                                                                    LM01289
                  *                                                                                    LM01290
                  *                                                                                    LM01291
      CHKPRV      * CHECK FOR NECESSARY PRIVILEGES.                                                    LM01292
                  *                                                                                    LM01293
                  * USAGE:  CHKPRV.(CODE)                                                              LM01294
                  *                                                                                    LM01295
                  INTERNAL FUNCTION (CODE)                                                        *705 LM01296
                  ENTRY TO CHKPRV.                                                                *706 LM01297
                  WHENEVER RCODE.A.CODE.E.CODE, FUNCTION RETURN                                   *707 LM01298
                  PRFULL.($'R'1INSUFFICIENT PRIVILEGES.  '1NEED AT LEAST '8$,                     *708 LM01299
                1   BZ57.(OCRBC.(CODE)),BLACK)                                                    *708 LM01300
                  TRANSFER TO OUT                                                                 *709 LM01301
                  END OF FUNCTION                                                                 *710 LM01302
                  *                                                                                    LM01303
                  *                                                                                    LM01304
                  *                                                                                    LM01305
      COMMON      * RETURN THE VALUE (OR LOCATION) OF A COMMON VARIABLE                                LM01306
                  *                                                                                    LM01307
                  * USAGE:   COMMON.(SYMBOL)                                                           LM01308
                  *                                                                                    LM01309
                  INTERNAL FUNCTION (SYMBOL)                                                      *711 LM01310
                  ENTRY TO COMMON.                                                                *712 LM01311
                  FUNCTION RETURN COMLOC.(LJUST.(SYMBOL),COMERR)                                  *713 LM01312
                  *                                                                                    LM01313
      COMERR      PRFULL.($'R'X$,BZ57.(RJUST.(SYMBOL)),$ WAS NOT FOUND.'B$)                       *714 LM01314
                  TRANSFER TO OUT                                                                 *715 LM01315
                  *                                                                                    LM01316
                  *                                                                                    LM01317
                  *                                                                                    LM01318
      ENTRY       * RETURN THE LOCATION OF A CORE A ENTRY                                              LM01319
                  *                                                                                    LM01320
                  * USAGE:   ENTRY.(SYMBOL)                                                            LM01321
                  *                                                                                    LM01322
                  ENTRY TO ENTRY.                                                                 *716 LM01323
                  FUNCTION RETURN ACORE.(LJUST.(SYMBOL),COMERR).RS.18                             *717 LM01324
                  END OF FUNCTION                                                                 *718 LM01325
                  *                                                                                    LM01326
                  *                                                                                    LM01327
                  *                                                                                    LM01328
      CURCOM      * GET THE NAME OF THE CURRENT FUNCTION                                               LM01329
                  * WITH LEADING BLANKS STIRPPED OFF.                                                  LM01330
                  *                                                                                    LM01331
                  INTERNAL FUNCTION CURCOM.(X) = BZ57.(COMBUF(M-1))                               *719 LM01332
                  *                                                                                    LM01333
                  *                                                                                    LM01334
                  *                                                                                    LM01335
      INT         *  RESET THE NON INTERUPT BIT                                                        LM01336
                  *                                                                                    LM01337
                  INTERNAL FUNCTION                                                               *720 LM01338
                  ENTRY TO INT.                                                                   *721 LM01339
                  SLOC.(GLOC.(USROPT).A..N.NINTBT,USROPT)                                         *722 LM01340
                  FUNCTION RETURN                                                                 *723 LM01341
                  *                                                                                    LM01342
                  *                                                                                    LM01343
                  *                                                                                    LM01344
      NONINT      *  SET THE NON-INTERUPT BIT                                                          LM01345
                  *                                                                                    LM01346
                  ENTRY TO NONINT.                                                                *724 LM01347
                  SLOC.(GLOC.(USROPT).V.NINTBT,USROPT)                                            *725 LM01348
                  FUNCTION RETURN                                                                 *726 LM01349
                  END OF FUNCTION                                                                 *727 LM01350
                  *                                                                                    LM01351
                  *                                                                                    LM01352
                  *                                                                                    LM01353
      GETUSR      * GET A USER NUMBER, PROBNO, PROGNO AND NAME FROM                                    LM01354
                  * THE 'USER' SPECIFICATION.                                                          LM01355
                  * WRITTEN BY D.A. ANDERSON                                                           LM01356
                  *                                                                                    LM01357
                  * USAGE:  GETUSR.(NONE,NOTIN,LNMTY)                                                  LM01358
                  * WHERE NONE = LOC TO TRANSFER IF NO USER SPECIFIED                                  LM01359
                  *      NOTIN = LOC TO TRANSFER IF PROB-PROG GIVEN BUT NOT IN                         LM01360
                  *      LNMTY = LOC TO TRANSFER IF USER NO. GIVEN BUT NOT IN                          LM01361
                  *                                                                                    LM01362
                  INTERNAL FUNCTION (NONE,NOTIN,LNMTY)                                            *728 LM01363
                  STATEMENT LABEL NONE,NOTIN,LNMTY                                                *729 LM01364
                  ENTRY TO GETUSR.                                                                *730 LM01365
                  *                                                                                    LM01366
                  WHENEVER COMBUF(M).E.FENCE                                                      *731 LM01367
                     USR = USER                                                                   *732 LM01368
                     GTUSR.(LNMTY)                                                                *733 LM01369
                     TRANSFER TO NONE                                                             *734 LM01370
                  OR WHENEVER ZEL.(COMBUF(M)).A.$$.E.0                                            *735 LM01371
                     USR = BCDEC.(COMBUF(M))                                                      *736 LM01372
                     WHENEVER USR.G.N, TRANSFER TO ERR3                                           *737 LM01373
                     WHENEVER USR.E.0                                                             *738 LM01374
                        PROB = $ BACKG$                                                           *739 LM01375
                        PROG = $ROUND$                                                            *740 LM01376
                        NAME = $$                                                                 *741 LM01377
                     OTHERWISE                                                                    *742 LM01378
                        GTUSR.(LNMTY)                                                             *743 LM01379
                     END OF CONDITIONAL                                                           *744 LM01380
                     M = M+1                                                                      *745 LM01381
                  OR WHENEVER COMBUF(M) .E. STAR                                                  *746 LM01382
                     USR = USER                                                                   *747 LM01383
                     GTUSR.(LNMTY)                                                                *748 LM01384
                     M = M+1                                                                      *749 LM01385
                  OTHERWISE                                                                       *750 LM01386
                     PROB = REPROB.(COMBUF(M))                                                    *751 LM01387
                     M = M+1                                                                      *752 LM01388
                     WHENEVER COMBUF(M).E.FENCE, TRANSFER TO ERR3                                 *753 LM01389
                     PROG = COMBUF(M)                                                             *754 LM01390
                     M = M+1                                                                      *755 LM01391
                     GETPRB.                                                                      *756 LM01392
      GTUSR1         THROUGH GTUSR1, FOR USR = 1,1,USR.G.N .OR.                                   *757 LM01393
                1       (PROB.E.PROBN(PROBN+N-USR+1).AND.                                         *757 LM01394
                2        PROG.E.PROGN(PROGN+N-USR+1))                                             *757 LM01395
                     WHENEVER USR.G.N                                                             *758 LM01396
                        USR = 0                                                                   *759 LM01397
                        NAME = $$                                                                 *760 LM01398
                        TRANSFER TO NOTIN                                                         *761 LM01399
                     END OF CONDITIONAL                                                           *762 LM01400
                     NAME = GLOC.(COMMON.(UNAME)+USR)                                             *763 LM01401
                  END OF CONDITIONAL                                                              *764 LM01402
                  FUNCTION RETURN                                                                 *765 LM01403
                  END OF FUNCTION                                                                 *766 LM01404
                  *                                                                                    LM01405
                  *                                                                                    LM01406
                  *                                                                                    LM01407
                  *                                                                                    LM01408
      GTUSR       * GIVEN A LINE NO., SETUP PROB,PROG AND NAME                                         LM01409
                  *                                                                                    LM01410
                  * USAGE   GTUSR.                                                                     LM01411
                  *                                                                                    LM01412
                  INTERNAL FUNCTION (LNMTY)                                                       *767 LM01413
                  ENTRY TO GTUSR.                                                                 *768 LM01414
                  *                                                                                    LM01415
                  PROB = GLOC.(COMMON.($PROBN$)+USR)                                              *769 LM01416
                  WHENEVER PROB.E.0                                                               *770 LM01417
                    M = M+1                                                                       *771 LM01418
                    TRANSFER TO LNMTY                                                             *772 LM01419
                    END OF CONDITIONAL                                                            *773 LM01420
                  PROG = GLOC.(COMMON.($PROGN$)+USR)                                              *774 LM01421
                  NAME = GLOC.(COMMON.(UNAME)+USR)                                                *775 LM01422
                  FUNCTION RETURN                                                                 *776 LM01423
                  END OF FUNCTION                                                                 *777 LM01424
                  *                                                                                    LM01425
                  *                                                                                    LM01426
                  *                                                                                    LM01427
                  *                                                                                    LM01428
      GETPRB      * ROUTINE TO SNATCH THE PROBN AND PROGN ARRAYS                                       LM01429
                  *                                                                                    LM01430
                  * USAGE:  GETPRB.                                                                    LM01431
                  *                                                                                    LM01432
                  BOOLEAN PRBSW                                                                   *778 LM01433
                  VECTOR VALUES PRBSW = 1B                                                        *779 LM01434
                  INTERNAL FUNCTION                                                               *780 LM01435
                  ENTRY TO GETPRB.                                                                *781 LM01436
                  *                                                                                    LM01437
                  WHENEVER PRBSW                                                                  *782 LM01438
                    PRBSW = 0B                                                                    *783 LM01439
                    GETBUF.(PROBN,N)                                                              *784 LM01440
                    GETBUF.(PROGN,N)                                                              *785 LM01441
                  END OF CONDITIONAL                                                              *786 LM01442
                  GETARY.(COMMON.($PROBN$)+1,PROBN(PROBN+N)...N)                                  *787 LM01443
                  GETARY.(COMMON.($PROGN$)+1,PROGN(PROGN+N)...N)                                  *788 LM01444
                  FUNCTION RETURN                                                                 *789 LM01445
                  END OF FUNCTION                                                                 *790 LM01446
                  *                                                                                    LM01447
                  *                                                                                    LM01448
                  *                                                                                    LM01449
      READTU      * ROUTINE TO READ TIMUSD TIMACC LOOKING FOR PROB(S)/PROG(S)                          LM01450
                  *                                                                                    LM01451
                  * USAGE:  READTU.(PROB(0),PROG(0),COUNT,EOF)                                         LM01452
                  *                                                                                    LM01453
                  BOOLEAN FRSTSW                                                                  *791 LM01454
                  VECTOR VALUES FRSTSW = 1B                                                       *792 LM01455
                  INTERNAL FUNCTION (PRB,PRG,COUNT,EOF)                                           *793 LM01456
                  STATEMENT LABEL EOF                                                             *794 LM01457
                  ENTRY TO READTU.                                                                *795 LM01458
                  WHENEVER FRSTSW                                                                 *796 LM01459
                     FRSTSW = 0B                                                                  *797 LM01460
                     GETBUF.(B1,432)                                                              *798 LM01461
                     GETBUF.(B2,432)                                                              *799 LM01462
                     GETBUF.(B3,432)                                                              *800 LM01463
                     BFOPEN.(STATUS,TU,TA,B1(B1+432),B2(B2+432),M0,IOERR)                         *801 LM01464
                     BUFFER.(TU,TA,B3(B3+432)...432)                                              *802 LM01465
                     RELLOC = 1                                                                   *803 LM01466
                  OTHERWISE                                                                       *804 LM01467
      RDTU1          RELLOC = RELLOC + 28                                                         *805 LM01468
                  END OF CONDITIONAL                                                              *806 LM01469
                  BFREAD.(TU,TA,TUCARD(27)...28,BEOF,M0,IOERR)                                    *807 LM01470
                  THROUGH RDTU2, FOR I = 0,1,I.G.COUNT                                            *808 LM01471
      RDTU2       WHENEVER PRB(I).E.TUCARD(27) .AND. PRG(I).E.TUCARD(26), FUNCTION RETURN         *809 LM01472
                  TRANSFER TO RDTU1                                                               *810 LM01473
                  *                                                                                    LM01474
      BEOF        BFCLOS.(TU,TA,IOERR)                                                            *811 LM01475
                  TRANSFER TO EOF                                                                 *812 LM01476
                  *                                                                                    LM01477
                  END OF FUNCTION                                                                 *813 LM01478
                  *                                                                                    LM01479
                  *                                                                                    LM01480
                  *                                                                                    LM01481
      UPSHFT      * UPDATE TUCARD WITH TIME USED FROM B5 TAU VECTORS                                   LM01482
                  *                                                                                    LM01483
                  * USAGE:  UPSHFT.                                                                    LM01484
                  *                                                                                    LM01485
                  INTERNAL FUNCTION                                                               *814 LM01486
                  ENTRY TO UPSHFT.                                                                *815 LM01487
                  THROUGH UPS1, FOR J = 0,1,J.G.4                                                 *816 LM01488
                    WHENEVER TUCARD(27).NE.$ C0056$, TUCARD(9-J) = 0                              *817 LM01489
                    TUCARD(9-J) = DEFBC.( B5(B5+J*LEN+I).A.17777777K/60 +                         *818 LM01490
                1                      BCDEC.(TUCARD(9-J)))                                       *818 LM01491
      UPS1        CONTINUE                                                                        *819 LM01492
                  PROBN(PROBN+I) = 0                                                              *820 LM01493
                  FUNCTION RETURN                                                                 *821 LM01494
                  END OF FUNCTION                                                                 *822 LM01495
                  *                                                                                    LM01496
                  *                                                                                    LM01497
                  *                                                                                    LM01498
                  END OF PROGRAM                                                                  *823 LM01499
                                         MODE STRUCTURE .ENK. 1 TO 1          324  LM00626
 (THE NUMERIC FORM OF THE OPERATOR-MODE ARGUMENT IS    11101 )
1MAD PROGRAM,TYPE NOV 1963      (ALL NUMBERS ARE OCTAL)
0TOTAL LOCATIONS   07741 TRANSFER VECTOR LENGTH  00102 PROGRAM BEGINS    01402
0VARIABLE STORAGE (A=ARRAY,C=COMMON,E=ERASABLE,DIGIT=MODE)
      ADMIN  00264 A 1        FENCE  00122   1        MON4   00115   4        RDTU1  00240   4        SYSMSG 00770 A 1
      ADOPT  00265 A 1        FILE   00327 A 1        MONEOF 00227   4        RDTU2  00115   4        T0     00132   1
      ALL    00266 A 1        FMT1   00444 A 1        M      00743 A 1        RED    00756 A 1        T1     00131   1
      ALTD   00146 A 1        FMT2   00555 A 1        N1     00132   1        RELLOC 00757   1        T2     00130   1
      B1     00267 A 1        FMT3   00627 A 1        N2     00131   1        RHALF  00125   1        T3     00127   1
      B2     00270 A 1        FMT4   00672 A 1        N3     00130   1        RPATBT 00760 A 1        T4     00126   1
      B3     00271 A 1        FMT5   00724 A 1        N4     00127   1        RPROBT 00761 A 1        T5     00125   1
      B4     00272 A 1        FOUND  00127   2        NALTD  00144   1        RPRVBT 00762 A 1        T6     00124   1
      B5     00273 A 1        FRSTSW 00725 A 2        NAME   00744   1        R      00763 A 1        T7     00123   1
      BEOF   00206   4        FSTST  00726 A 1        NAMESW 00131   2        RTU0   00241   4        TACARD 00205   1
      BITS   00274   1        GTUSR1 00115   4        NINTBT 00745 A 1        RTU1   00242   4        TA     00771 A 1
      BLACK  00275 A 1        HEL1   00115   4        NOTLIN 00130   2        RTU2   00243   4        TAU1   00772 A 1
      BL     00276 A 1        HELMES 00166 A 1        NOUFD  00230   4        RTU3   00244   4        TAU5   00773 A 1
      BUFF   00133 A 1        HELP   00727 A 1        N      00746 A 1        RTU4   00115   4        TAULOC 00124   1
      CMFL02 00277 A 1        INP1   00224   4        NSTICK 00130   1        RTU5   00115   4        TAU    00125   1
      CND1   00115   4        INPMES 00205 A 1        NULLS  00747 A 1        RTU6   00115   4        TEMP   00132 A 1
      COMBUF 00324 A 1        IOERR  00225   4        NUSED  00136   1        SAVING 00764 A 1        TEST   00124   1
      COMERR 00207   4        I      00730   1        OALTD  00145   1        SET0   00245   4        TIME   00774   1
      COMMND 00325 A 1        J      00731   1        OLDM   00132   1        SHFT   00126   1        TIMNOW 00775 A 1
      CPY1   00210   4        KEY22  00732 A 1        ON     00750 A 1        SLPCMD 00122 A 1        TUCARD 00166 A 1
      DATELU 00165   1        KEYS   00123   1        OUSED  00137   1        SPY1   00246   4        TU     00776 A 1
      DATE   00326   1        LENGTH 00156   1        OUT    00231   4        SPY2   00247   4        UNAME  00777 A 1
      DAYTIM 00164   1        LEN    00123   1        PAT1   00232   4        SPY3   00250   4        UNITID 01000 A 1
      DEL0   00211   4        LHALF  00126   1        PAT2   00233   4        SQZ1   00251   4        UPATSW 00132   2
      DEL1   00212   4        LOC    00127   1        PAT3   00234   4        SQZ2   00252   4        UPD1   00261   4
      DELTA  00130   1        M0     00733 A 1        PAT4   00235   4        SQZ3   00115   4        UPS1   00115   4
      DEV    00161   1        M1416  00734 A 1        PATMES 00166 A 1        SQZ5   00253   4        URCODE 01001 A 1
      DRMTSW 00132   2        M1     00735 A 1        PATTST 00236   4        SQZ6   00254   4        USED   00140 A 1
      ERASE0 00213   4        M2     00736 A 1        PB0    00237   4        SQZEOF 00255   4        USEROK 00262   4
      ERR0   00214   4        MAXI   00132   1        PB     00132   1        SQZERR 00256   4        USER   01002 A 1
      ERR1   00215   4        ME     00740 A 1        PRBSW  00751 A 2        SQZOUT 00257   4        USROPT 01003 A 1
      ERR2   00216   4        MESGPT 00741 A 1        PROBN  00752 A 1        SQZUFD 00260   4        USR    01004   1
      ERR3   00217   4        MFD    00742 A 1        PROB   00117 A 1        STAR   00765 A 1        WHO    01010 A 1
      ERR4   00220   4        MODE   00123   1        PROGN  00753 A 1        STATUS 00766   1        WRKTIM 01011 A 1
      ERR5   00221   4        MON1   00115   4        PROG   00116   1        STICKY 00127   1        W      01012 A 1
      ERR6   00222   4        MON2   00226   4        RCALBT 00754 A 1        STRTIM 00767 A 1        X      01013 A 1
      ERR7   00223   4        MON3   00115   4        RCODE  00755 A 1
0FUNCTION DICTIONARY
      ACORE  00000   1        ALLOT  00001   1        ATTACH 00002   1        ATTNAM 00003   1        BCDEC  00004   1
      BCOCT  00005   1        BFCLOS 00006   1        BFOPEN 00007   1        BFREAD 00010   1        BFWRIT 00011   1
      BUFFER 00012   1        BZ57   00013   1        BZEL   00014   1        CHFILE 00015   1        CLOSE  00016   1
      COMLOC 00017   1        COPY   00020   1        DEFBC  00021   1        DELALL 00022   1        DELFIL 00023   1
      DELMFD 00024   1        DELTEM 00025   1        ENTLIN 00026   1        EXITM  00027   1        EXIT   00030   1
      FERRTN 00031   1        FSTATE 00032   1        GCLS   00033   1        GETARY 00034   1        GETBUF 00035   1
      GETTM  00036   1        GLOC   00037   1        .SETUP 00040   1        KILL   00041   1        LJUST  00042   1
      MINS   00043   1        MOVFIL 00044   1        NULL   00045   1        OCABC  00046   1        OCLBC  00047   1
      OCRBC  00050   1        OPEN   00051   1        PCTL   00052   1        PRDIAG 00053   1        PRFULA 00054   1
      PRFULL 00055   1        PRNTON 00056   1        RDFLXA 00057   1        RDFLXC 00060   1        REPROB 00061   1
      RESETF 00062   1        RJUST  00063   1        RSSWB  00064   1        SCHEDL 00065   1        SETBCD 00066   1
      SETBRK 00067   1        SETFIL 00070   1        SETFUL 00071   1        SLOC   00072   1        SNOOZE 00073   1
      TSK    00074   1        UNLINK 00075   1        WHOAMI 00076   1        WRITE  00077   1        WRWAIT 00100   1
      ZEL    00101   1        CHKPRV 00102   1        COMMON 00103   1        CURCOM 00104   1        ENTRY  00105   1
      GETPRB 00106   1        GETUSR 00107   1        GTUSR  00110   1        INT    00111   1        NONINT 00112   1
      READTU 00113   1        UPSHFT 00114   1
0ABSOLUTE CONSTANTS
 01025 +000000000011     01266 -202300000506     01232 -075146274560     01231 -075146224560     01236 -114664452460
 01264 -202221234227     01202 -052433142260     01223 -066360264664     01336 -206621626045     01122 +216263601410
 01263 -202163604325     01074 +140145252524     01155 +272562336060     01235 -113165314325     01156 +312545636047
 01347 -226426263123     01107 +145114013145     01211 -053314226060     01070 +062545634331     01151 +265146446014
 01150 +256364514560     01153 +266443436051     01240 -115146513560     01345 -226325446025     01113 +145114016270
 01132 +236321433314     01312 -204546636046     01142 +252460314533     01233 -076370331422     01277 -203162602544
 01203 -052560141060     01111 +145114014331     01123 +216331464533     01141 +252331263123     01341 -222551606247
 01144 +252721436064     01222 -065160314343     01216 -056374623414     01344 -226231452760     01112 +145114014431
 01215 -056335601467     01121 +215127644425     01103 +142260606060     01363 -246221272533     01170 -032527214360
 01106 +145114013143     01163 +331422606060     01171 -033124602664     01356 -236021606521     01337 -206651316325
 01362 -244724216325     01377 -346462255134     01316 -205130214326     01303 -204330214326     01252 -201443434623
 01361 -244721632330     01043 +000000000104     01023 +000000000007     01055 +000000077777     01147 +256233142260
 01346 -226331234231     01214 -056063302560     01354 -233146456031     01205 -052646514421     01274 -203021626031
 01373 -342431624234     01375 -342451644434     01126 +226060606060     01225 -066445243314     01311 -204546636026
 01343 -225071642624     01032 +000000000017     01166 -006014676060     01143 +252460314560     01357 -236043462727
 01300 -203162604546     01052 +000000003410     01370 -300000300000     01056 +000000300000     01165 +351467606060
 01271 -202646644524     01077 +140164622551     01105 +144364622551     01213 -056062477060     01117 +146421244431
 01331 -206060624770     01313 -204626146760     01125 +216414676060     01207 -052760140363     01054 +000000007020
 01335 -206462255160     01137 +246064622524     01152 +266360214363     01254 -201443623031     01342 -222563632164
 01304 -204331452560     01221 -064560644531     01076 +140145466660     01272 -202651464460     01355 -236014676060
 01305 -204346274664     01073 +140143216263     01063 +000061000060     01400 -377700000000     01057 +000000777700
 01053 +000000006060     01027 +000000000014     01047 +000000000377     01061 +000017777777     01040 +000000000074
 01136 +246046266014     01241 -116030252151     01075 +140145256525     01120 +214425024060     01140 +250140604045
 01242 -116040452144     01234 -112463314464     01174 -042502406060     01173 -042501604521     01251 -201443404521
 01230 -075145634645     01226 -072260606060     01334 -206346601467     01367 -276060606060     01146 +256046266014
 01127 +232545632127     01210 -052760472551     01332 -206225636331     01340 -222551606060     01253 -201443456064
 01323 -206060604722     01333 -206346601410     01176 -046014106060     01104 +144360265146     01161 +314527601467
 01026 +000000000012     01262 -202163601467     01224 -066360622563     01371 -306002026045     01110 +145114014225
 01376 -342631223460     01062 +000060575757     01035 +000000000030     01022 +000000000006     01041 +000000000077
 01326 -206060606020     01327 -206060606040     01324 -206060606000     01372 -307070707070     01314 -204721632330
 01071 +076000000004     01330 -206060606060     01036 +000000000033     01037 +000000000034     01245 -116660606060
 01033 +000000000020     01124 +216360146760     01160 +314464622460     01024 +000000000010     01066 +024060606060
 01301 -204045214425     01200 -052144250140     01352 -233060144340     01162 +314560444645     01256 -201464212444
 01307 -204446456330     01164 +336060606060     01206 -052714676060     01302 -204231434331     01321 -206042314343
 01031 +000000000016     01374 -342451446334     01177 -046334406060     01243 -116040742451     01250 -201404646225
 01276 -203145476463     01060 +000016000000     01030 +000000000015     01042 +000000000102     01101 +142214106060
 01115 +145114676060     01227 -072535601422     01114 +145114016370     01204 -052566442562     01267 -202551216225
 01135 +242543632544     01244 -116060606060     01255 -201443646225     01134 +242543214343     01051 +000000000777
 01045 +000000000124     01050 +000000000660     01044 +000000000120     01167 -006040450440     01065 +024060404503
 01310 -204501604045     01320 -206023464770     01401 -377760000000     01157 +314464622433     01353 -233145276063
 01315 -205125622563     01017 +000000000003     01021 +000000000005     01131 +234524514321     01172 -034734606060
 01257 -201464743025     01273 -202664452363     01067 +052124443145     01325 -206060606014     01212 -053514541454
 01360 -244523633146     01217 -062660216026     01364 -246221272560     01237 -115125236360     01350 -233025602346
 01072 +140126465160     01046 +000000000144     01246 -141410606060     01366 -263145273514     01270 -202646434346
 01220 -062660633025     01145 +256021457060     01306 -204421706022     01351 -233025602664     01365 -263025512560
 01247 -141454141060     01261 -202151276214     01201 -052363314645     01175 -043145602664     01317 -206014052124
 01100 +141060606060     01102 +142214541454     01154 +272560316235     01133 +236360646221     01064 +012346515125
 01116 +145460145114     01275 -203025434346     01265 -202300000303     01322 -206060110600     01260 -202124443145
 01034 +000000000022     01014 +000000000000     01016 +000000000002     01020 +000000000004     01015 +000000000001
 01130 +233000000000
0STATEMENT DICTIONARY
 00206 TXL -307577007573       00207 TXL -306735006721       00210 TXL -302242002236       00211 TXL -302317002314
 00212 TXL -302355002352       00213 TXL -302412002407       00214 TXL -306525006520       00215 TXL -306541006526
 00216 TXL -306550006542       00217 TXL -306562006551       00220 TXL -306610006600       00221 TXL -306577006563
 00222 TXL -306620006611       00223 TXL -306632006621       00224 TXL -302611002605       00225 TXL -306514006512
 00226 TXL -303201003164       00227 TXL -303222003210       00230 TXL -305475005467       00231 TXL -306505006504
 00232 TXL -303377003372       00233 TXL -303470003461       00234 TXL -303473003470       00235 TXL -303647003642
 00236 TXL -303762003747       00237 TXL -304141004137       00240 TXL -307540007535       00241 TXL -304323004321
 00242 TXL -304327004323       00243 TXL -304363004361       00244 TXL -304401004400       00245 TXL -305031005014
 00246 TXL -305275005271       00247 TXL -305350005345       00250 TXL -305354005351       00251 TXL -305460005454
 00252 TXL -305461005460       00253 TXL -305713005704       00254 TXL -305744005740       00255 TXL -305734005730
 00256 TXL -306061006060       00257 TXL -306046006045       00260 TXL -305502005476       00261 TXL -306410006401
 00262 TXL -301556001547
0PROGRAM
                 D'N B1(0), B2(0), B3(0), B4(0), B5(0)                              001  LM00028
                 D'N WHO(3), ME(1), PROB(1), COMBUF(20)                             002  LM00029
                 D'N PROBN(0), PROGN(0), TUCARD(27)                                 003  LM00030
                 D'N TEMP(7)                                                        004  LM00031
                 E'E (PROG,PROB(1)), (SLPCMD,FENCE)                                 005  LM00033
                 E'E (T0,TEMP(0)), (T1,TEMP(1)), (T2,TEMP(2)), (T3,TEMP(3))         006  LM00034
                 E'E (T4,TEMP(4)), (T5,TEMP(5)), (T6,TEMP(6)), (T7,TEMP(7))         007  LM00035
                 V'S STAR  = $     *$                                               008  LM00037
 01402 TSX +0 07400 4 00040    00765     -2 06060 6 06054
                 V'S M0 = -0                                                        009  LM00038
 00733     -0 00000 0 00000
                 V'S M1 = -1                                                        010  LM00039
 00735     -0 00000 0 00001
                 V'S M2 = -2                                                        011  LM00040
 00736     -0 00000 0 00002
                 V'S M = 0                                                          012  LM00041
 00743     +0 00000 0 00000
                 V'S TEMP(0)...TEMP(7) = 0                                          013  LM00042
 00123     +0 00000 0 00000    00124     +0 00000 0 00000    00125     +0 00000 0 00000    00126     +0 00000 0 00000
 00127     +0 00000 0 00000    00130     +0 00000 0 00000    00131     +0 00000 0 00000    00132     +0 00000 0 00000
                 V'S MFD    = $M.F.D.$                                              014  LM00044
 00742     -0 43326 3 32433
                 V'S FILE   = $(FILE)$                                              015  LM00045
 00327     -3 42631 4 32534
                 V'S M1416  = $ M1416$                                              016  LM00046
 00734     -2 04401 0 40106
                 V'S CMFL02 = $CMFL02$                                              017  LM00047
 00277     +2 34426 4 30002
                 V'S TU = $TIMUSD$                                                  018  LM00048
 00776     -2 33144 6 46224
                 V'S TA = $TIMACC$                                                  019  LM00049
 00771     -2 33144 2 12323
                 V'S R = $R$                                                        020  LM00050
 00763     -1 16060 6 06060
                 V'S W = $W$                                                        021  LM00051
 01012     -2 66060 6 06060
                 V'S N = $N$                                                        022  LM00052
 00746     -0 56060 6 06060
                 V'S ALL    = $ALL   $                                              023  LM00053
 00266     +2 14343 6 06060
                 V'S USER   = $USER  $                                              024  LM00054
 01002     -2 46225 5 16060
                 V'S COMMND = $COMMND$                                              025  LM00055
 00325     +2 34644 4 44524
                 V'S PROBN  = $PROBN $                                              026  LM00056
 00752     -0 75146 2 24560
                 V'S PROGN  = $PROGN $                                              027  LM00057
 00753     -0 75146 2 74560
                 V'S UNAME  = $UNAME $                                              028  LM00058
 00777     -2 44521 4 42560
                 V'S USROPT = $USROPT$                                              029  LM00059
 01003     -2 46251 4 64763
                 V'S URCODE = $URCODE$                                              030  LM00060
 01001     -2 45123 4 62425
                 V'S RCODE  = $RCODE $                                              031  LM00061
 00755     -1 12346 2 42560
                 V'S NINTBT = $NINTBT$                                              032  LM00062
 00745     -0 53145 6 32263
                 V'S RCALBT = $RCALBT$                                              033  LM00063
 00754     -1 12321 4 32263
                 V'S RPROBT = $RPROBT$                                              034  LM00064
 00761     -1 14751 4 62263
                 V'S RPRVBT = $RPRVBT$                                              035  LM00065
 00762     -1 14751 6 52263
                 V'S RPATBT = $RPATBT$                                              036  LM00066
 00760     -1 14721 6 32263
                 V'S STRTIM = $STRTIM$                                              037  LM00067
 00767     -2 26351 6 33144
                 V'S WRKTIM = $WRKTIM$                                              038  LM00068
 01011     -2 65142 6 33144
                 V'S TIMNOW = $TIMNOW$                                              039  LM00069
 00775     -2 33144 4 54666
                 V'S UNITID = $UNITID$                                              040  LM00070
 01000     -2 44531 6 33124
                 V'S TAU1   = $TAU1  $                                              041  LM00071
 00772     -2 32164 0 16060
                 V'S TAU5   = $TAU5  $                                              042  LM00072
 00773     -2 32164 0 56060
                 V'S ADOPT  = $ADOPT $                                              043  LM00073
 00265     +2 12446 4 76360
                 V'S MESGPT = $MESGPT$                                              044  LM00074
 00741     -0 42562 2 74763
                 V'S SYSMSG = $SYSMSG$                                              045  LM00075
 00770     -2 27062 4 46227
                 V'S FSTST  = $FS.TST$                                              046  LM00076
 00726     +2 66233 6 36263
                 V'S SAVING = $SAVING$                                              047  LM00077
 00764     -2 22165 3 14527
                 V'S HELP = $(HELP)$                                                048  LM00080
 00727     -3 43025 4 34734
                 V'S X = $'X$                                                       049  LM00081
 01013     +1 46760 6 06060
                 V'S ADMIN = $ 'UADMIN '8$                                          050  LM00082
 00263     +3 14560 1 41060    00264     -2 01464 2 12444
                 V'S RED = $'R'8$                                                   051  LM00083
 00756     +1 45114 1 06060
                 V'S BLACK = $'B'8$                                                 052  LM00084
 00275     +1 42214 1 06060
                 V'S ON = $ ON 'X$                                                  053  LM00085
 00750     -2 04645 6 01467
                 V'S BL = $ '8$                                                     054  LM00086
 00276     -2 01410 6 06060
                 V'S KEY22 = 000000K                                                055  LM00087
 00732     +0 00000 0 00000
                 V'S NULLS = 575757575757K                                          056  LM00089
 00747     -1 75757 5 75757
                 V'S SLPCMD = 777777777777K, $YES$, $.$                             057  LM00091
 00120     +3 36060 6 06060    00121     -3 02562 6 06060    00122     -3 77777 7 77777
                 N'R                                                                058  LM00097
                 WHOAMI.(WHO(3)...4)                                                059  LM00098
 01403 TSX +0 07400 4 00076    01404 TIX +2 01020 0 01005
                 ATTNAM.(ME(1)...2)                                                 060  LM00099
 01405 TSX +0 07400 4 00003    01406 TIX +2 01016 0 00737
                 GETTM.(DATE,TIME)                                                  061  LM00100
 01407 TSX +0 07400 4 00036    01410 TXH +3 00000 0 00326    01411 TXH +3 00000 0 00774
                 FERRTN.(IOERR)                                                     062  LM00101
 01412 TSX +0 07400 4 00031    01413 TXH +3 00000 0 00225
                 SETBRK.(OUT)                                                       063  LM00102
 01414 TSX +0 07400 4 00067    01415 TXH +3 00000 0 00231
                 PCTL.(1)                                                           064  LM00103
 01416 TSX +0 07400 4 00052    01417 TXH +3 00000 0 01015
                 USER = GLOC.(COMMON.(USER))                                        065  LM00105
 01420 TSX +0 07400 4 00103    01421 TXH +3 00000 0 01002    01422 STO +0 60100 0 07732    01423 TSX +0 07400 4 00037
 01424 TXH +3 00000 0 07732    01425 STO +0 60100 0 01002
                 SLOC.(0,COMMON.(COMMND)+USER)                                      066  LM00108
 01426 TSX +0 07400 4 00103    01427 TXH +3 00000 0 00325    01430 ADD +0 40000 0 01002    01431 STO +0 60100 0 07732
 01432 TSX +0 07400 4 00072    01433 TXH +3 00000 0 01014    01434 TXH +3 00000 0 07732
                 RCODE = GLOC.(COMMON.(RCODE)+USER)                                 067  LM00110
 01435 TSX +0 07400 4 00103    01436 TXH +3 00000 0 00755    01437 ADD +0 40000 0 01002    01440 STO +0 60100 0 07732
 01441 TSX +0 07400 4 00037    01442 TXH +3 00000 0 07732    01443 STO +0 60100 0 00755
                 RPATBT = COMMON.(RPATBT)                                           068  LM00111
 01444 TSX +0 07400 4 00103    01445 TXH +3 00000 0 00760    01446 STO +0 60100 0 00760
                 RCALBT = COMMON.(RCALBT)                                           069  LM00112
 01447 TSX +0 07400 4 00103    01450 TXH +3 00000 0 00754    01451 STO +0 60100 0 00754
                 RPROBT = COMMON.(RPROBT)                                           070  LM00113
 01452 TSX +0 07400 4 00103    01453 TXH +3 00000 0 00761    01454 STO +0 60100 0 00761
                 RPRVBT = COMMON.(RPRVBT)                                           071  LM00114
 01455 TSX +0 07400 4 00103    01456 TXH +3 00000 0 00762    01457 STO +0 60100 0 00762
                 NINTBT = COMMON.(NINTBT).LS.18                                     072  LM00116
 01460 TSX +0 07400 4 00103    01461 TXH +3 00000 0 00745    01462 STO +0 60100 0 07732    01463 CAL -0 50000 0 01034
 01464 STA +0 62100 0 01466    01465 CAL -0 50000 0 07732    01466 ALS +0 76700 0 00000    01467 SLW +0 60200 0 00745
                 USROPT = COMMON.(USROPT)+USER                                      073  LM00117
 01470 TSX +0 07400 4 00103    01471 TXH +3 00000 0 01003    01472 ADD +0 40000 0 01002    01473 STO +0 60100 0 01003
                 N = COMMON.(N)                                                     074  LM00118
 01474 TSX +0 07400 4 00103    01475 TXH +3 00000 0 00746    01476 STO +0 60100 0 00746
                 GCLS.(COMBUF,0)                                                    075  LM00120
 01477 TSX +0 07400 4 00033    01500 TXH +3 00000 0 00324    01501 TXH +3 00000 0 01014
                 W'R COMBUF.E.$ ADMIN$, M = 1                                       076  LM00121
 01502 CLA +0 50000 0 00324    01503 SUB +0 40200 0 01260    01504 TNZ -0 10000 0 01507    01505 CLA +0 50000 0 01015
 01506 STO +0 60100 0 00743
                 W'R COMBUF(M).E.$ HELLO$ .AND. WHO(3).E.$ C0033$ .AND.             077  LM00125
                1 WHO(2) .E. $   960$, T'O USEROK                                   077  LM00126
 01507 CLA +0 50000 0 01006    01510 SUB +0 40200 0 01322    01511 TNZ -0 10000 0 01522    01512 CLA +0 50000 0 01005
 01513 SUB +0 40200 0 01265    01514 TNZ -0 10000 0 01522    01515 LXA +0 53400 1 00743    01516 CLA +0 50000 1 00324
 01517 SUB +0 40200 0 01275    01520 TNZ -0 10000 0 01522    01521 TRA +0 02000 0 00262
                 BITS = RCALBT.V.RPROBT.V.RPRVBT                                    078  LM00127
 01522 CAL -0 50000 0 00754    01523 ORA -0 50100 0 00761    01524 ORA -0 50100 0 00762    01525 SLW +0 60200 0 00274
                 W'R WHO(3).E.M1416 .AND. (RCODE.A.BITS.E.BITS .OR. RCODE.A.        079  LM00128
                1  RPATBT.E.RPATBT), T'O USEROK                                     079  LM00129
 01526 CAL -0 50000 0 00755    01527 ANA -0 32000 0 00760    01530 SLW +0 60200 0 07732    01531 CLA +0 50000 0 07732
 01532 SUB +0 40200 0 00760    01533 TZE +0 10000 0 01542    01534 CAL -0 50000 0 00755    01535 ANA -0 32000 0 00274
 01536 SLW +0 60200 0 07732    01537 CLA +0 50000 0 07732    01540 SUB +0 40200 0 00274    01541 TNZ -0 10000 0 01546
 01542 CLA +0 50000 0 01005    01543 SUB +0 40200 0 00734    01544 TNZ -0 10000 0 01546    01545 TRA +0 02000 0 00262
                 TSK.                                                               080  LM00132
 01546 TSX +0 07400 4 00074
      USEROK     W'R COMBUF(M).E.HELP .OR. COMBUF(M).E.FENCE                        081  LM00134
 01547 LXA +0 53400 1 00743    01550 CLA +0 50000 1 00324    01551 SUB +0 40200 0 00122    01552 TZE +0 10000 0 01556
 01553 CLA +0 50000 1 00324    01554 SUB +0 40200 0 00727    01555 TNZ -0 10000 0 01625
                   PRFULL.($'* 'R'1CORRECT USAGE IS:'B'*'*'8$,                      082  LM00135
                1  $  '5ADMIN FUNCTION ARGS'*'*'8$,                                 082  LM00136
                2  $WHERE THE FUNCTION MAY BE ANY OF THE FOLLOWING:'*'8$)           082  LM00137
 01556 TSX +0 07400 4 00055    01557 TXH +3 00000 0 01116    01560 TXH +3 00000 0 01064    01561 TXH +3 00000 0 01133
 01562 TXH +3 00000 0 01154    01563 TXH +3 00000 0 01102    01564 TXH +3 00000 0 01100    01565 TXH +3 00000 0 01317
 01566 TXH +3 00000 0 01175    01567 TXH +3 00000 0 01201    01570 TXH +3 00000 0 01261    01571 TXH +3 00000 0 01247
 01572 TXH +3 00000 0 01365    01573 TXH +3 00000 0 01351    01574 TXH +3 00000 0 01201    01575 TXH +3 00000 0 01306
 01576 TXH +3 00000 0 01145    01577 TXH +3 00000 0 01220    01600 TXH +3 00000 0 01270    01601 TXH +3 00000 0 01366
 01602 TXH +3 00000 0 01246
                   PRFULL.(FMT1...100,FMT2...100)                                   083  LM00139
 01603 TSX +0 07400 4 00055    01604 TIX +2 01046 0 00444    01605 TIX +2 01046 0 00555
                   V'S FMT1 =                                                       084  LM00141
                1  $'6CNDRLA - CLEARS ALL PRESENT USERS TAU VECTORS (36)'*'8$,      084  LM00142
                2  $'4COPY   - COPY ACCOUNTING FILES FROM '4CMFL02 (10)'*'8$,       084  LM00143
                3  $'6DELALL - DELETES ALL FILES FROM A DIRECTORY'*'8$,             084  LM00144
                4  $'6DELTEM - DELETES TEMPORARY FILES FROM A DIRECTORY'*'8$,       084  LM00145
                5  $'5ERASE  - ELIMINATES A FILE DIRECTORY'*'8$,                    084  LM00146
                6  $'5HELLO  - MODIFIES DIALUP MESSAGE'*'8$,                        084  LM00147
                7  $'5INPUT  - ENTER A LINE INTO A USER''S INPUT BUFFER'*'8$,       084  LM00148
                8  $'4KILL   - LOGS A USER OUT'*'8$,                                084  LM00149
                9  $'5MONTH  - UPDATE AND RESET TIMUSD (36)'*'8$,777777777777K      084  LM00150
 00330     -3 77777 7 77777    00331     +1 06060 6 06060    00332     +0 30634 1 45414    00333     -0 46462 2 46074
 00334     -2 22563 6 06331    00335     +2 14524 6 05125    00336     -0 72421 6 32560    00337     +3 06060 4 06064
 00340     +1 40544 4 64563    00341     -2 46314 5 41410    00342     -2 46225 5 16046    00343     -0 62762 6 02160
 00344     -2 06060 4 06043    00345     +1 40442 3 14343    00346     +1 06060 6 06060    00347     +2 62551 1 45414
 00350     -2 46360 2 26426    00351     +1 46260 3 14547    00352     -2 06462 2 55114    00353     +3 14563 4 66021
 00354     -2 04331 4 52560    00355     -0 56325 5 16021    00356     -2 36060 4 06025    00357     +1 40531 4 54764
 00360     +1 41060 6 06060    00361     -2 22127 2 51454    00362     -2 44760 4 42562    00363     -2 26024 3 12143
 00364     -0 62431 2 63125    00365     -0 66060 4 06044    00366     +1 40530 2 54343    00367     -1 17014 5 41410
 00370     +3 15125 2 36346    00371     +2 63143 2 56024    00372     -2 32562 6 02160    00373     -0 33144 3 14521
 00374     +2 56060 4 06025    00375     +1 40525 5 12162    00376     +1 06060 6 06060    00377     -0 65170 1 45414
 00400     +2 43151 2 52363    00401     -1 14644 6 02160    00402     +3 14325 6 26026    00403     -1 12151 7 06026
 00404     -2 06325 4 44746    00405     +2 54325 6 32562    00406     +2 54460 4 06024    00407     +1 40624 2 54363
 00410     +1 06060 6 06060    00411     -0 65170 1 45414    00412     +2 43151 2 52363    00413     -1 14644 6 02160
 00414     +3 14325 6 26026    00415     -2 02143 4 36026    00416     +2 54325 6 32562    00417     -0 34360 4 06024
 00420     +1 40624 2 54321    00421     +1 06060 6 06060    00422     +0 10034 1 45414    00423     +2 64300 0 26074
 00424     -0 46014 0 42344    00425     +2 56260 2 65146    00426     -0 52760 2 63143    00427     +2 34664 4 56331
 00430     -0 64770 6 02123    00431     -2 06060 4 06023    00432     +1 40423 4 64770    00433     +1 41060 6 06060
 00434     -3 40306 3 41454    00435     +2 36346 5 16260    00436     -2 32164 6 06525    00437     -2 46225 5 16260
 00440     +2 56225 4 56360    00441     +2 14343 6 04751    00442     -0 32521 5 16260    00443     -0 32160 4 06023
 00444     +1 40623 4 52451
                   V'S FMT2 =                                                       085  LM00152
                1  $'5PATCH  - PATCHES CORE '1A (20)'*'8$,                          085  LM00153
                2  $'2PB     - ASSIGNS A PERCENTAGE TO A USER'*'8$,                 085  LM00154
                3  $'6PRNTON - PRINT MESSAGE ONLINE'*'8$,                           085  LM00155
                4  $'6RDTIMU - PRINT TIME USED BY A USER'*'8$,                      085  LM00156
                5  $'6SETTAU - RESET A '3TAU VECTOR OF A USER'*'8$,                 085  LM00157
                6  $'3SPY    - SPY ON A USER'*'8$,                                  085  LM00158
                7  $'6SQZUFD - COMPACT A 'UU.F.D.'L'*'8$,                           085  LM00159
                8  $'6UPATCH - PATCH ARRAY ENTRY OF PRESENT USER (20)'*'8$,         085  LM00160
                9  $'6UPDATE - UPDATE '4CMFL02 WITH ACCOUNTING FILES(10)'*'8$,      085  LM00161
                0  $'5WRITE  - WRITE A MESSAGE AT A USER'*'8$,777777777777K         085  LM00162
 00445     -3 77777 7 77777    00446     +1 45414 1 06060    00447     +2 16064 6 22551    00450     +2 72560 2 16360
 00451     -2 04425 6 26221    00452     -1 13163 2 56021    00453     +2 56060 4 06066    00454     +1 40566 5 13163
 00455     +1 41060 6 06060    00456     -3 40100 3 41454    00457     -2 02631 4 32562    00460     -2 44563 3 14527
 00461     +3 06021 2 32346    00462     +0 00260 6 63163    00463     +1 40423 4 42643    00464     -0 72421 6 32560
 00465     -2 32560 4 06064    00466     +1 40664 4 72421    00467     +3 41454 1 41060    00470     +2 55160 7 40200
 00471     +2 54563 6 06462    00472     +2 66047 5 12562    00473     -0 56351 7 06046    00474     -1 15121 7 06025
 00475     +2 16323 3 06021    00476     +2 33060 4 06047    00477     +1 40664 4 72163    00500     -0 31454 1 41060
 00501     +3 32633 2 43314    00502     -2 02160 1 46464    00503     -0 64447 2 12363    00504     +2 62460 4 06023
 00505     +1 40662 5 07164    00506     +1 45414 1 06060    00507     +2 16064 6 22551    00510     -0 77060 4 64560
 00511     -2 06060 4 06062    00512     +1 40362 4 77060    00513     -1 41410 6 06060    00514     -2 06462 2 55114
 00515     -1 16046 2 66021    00516     -2 06525 2 36346    00517     -2 01403 6 32164    00520     +2 56225 6 36021
 00521     +2 16460 4 06051    00522     +1 40662 2 56363    00523     +1 45414 1 06060    00524     +2 16064 6 22551
 00525     +2 52460 2 27060    00526     +3 14425 6 06462    00527     -1 13145 6 36063    00530     -0 46460 4 06047
 00531     +1 40651 2 46331    00532     +2 51454 1 41060    00533     -2 04645 4 33145    00534     +2 56262 2 12725
 00535     -1 13145 6 36044    00536     -0 64560 4 06047    00537     +1 40647 5 14563    00540     -1 41410 6 06060
 00541     -2 06462 2 55114    00542     +2 56063 4 66021    00543     +2 32545 6 32127    00544     -2 02160 4 72551
 00545     -2 26231 2 74562    00546     -2 06060 4 06021    00547     +1 40247 2 26060    00550     +0 03414 5 41410
 00551     +1 40121 6 07402    00552     -2 02346 5 12560    00553     +2 16323 3 02562    00554     +3 06060 4 06047
 00555     +1 40547 2 16323
                   PRFULL.($'1FOR THE CORRECT USAGE OF A FUNCTION:'*'*'8$,          086  LM00164
                1  $     '5ADMIN FUNCT 'U(HELP)$)                                   086  LM00165
 01606 TSX +0 07400 4 00055    01607 TXH +3 00000 0 01072    01610 TXH +3 00000 0 01350    01611 TXH +3 00000 0 01237
 01612 TXH +3 00000 0 01364    01613 TXH +3 00000 0 01217    01614 TXH +3 00000 0 01360    01615 TXH +3 00000 0 01212
 01616 TXH +3 00000 0 01100    01617 TXH +3 00000 0 01325    01620 TXH +3 00000 0 01067    01621 TXH +3 00000 0 01273
 01622 TXH +3 00000 0 01257    01623 TXH +3 00000 0 01172
                 E'E (T0,MAXI), (T6,TAULOC)                                         087  LM00184
                 O'R COMBUF(M) .E. $CNDRLA$                                         088  LM00186
 01624 TRA +0 02000 0 06504    01625 LXA +0 53400 1 00743    01626 CLA +0 50000 1 00324    01627 SUB +0 40200 0 01131
 01630 TNZ -0 10000 0 01740
                   M = M+1                                                          089  LM00187
 01631 CLA +0 50000 0 00743    01632 ADD +0 40000 0 01015    01633 STO +0 60100 0 00743
                   W'R COMBUF(M) .E. HELP                                           090  LM00188
 01634 LXA +0 53400 1 00743    01635 CLA +0 50000 1 00324    01636 SUB +0 40200 0 00727    01637 TNZ -0 10000 0 01647
                     PRFULL.(ADMIN...2,CURCOM.(0))                                  091  LM00189
 01640 TSX +0 07400 4 00104    01641 TXH +3 00000 0 01014    01642 STO +0 60100 0 07732    01643 TSX +0 07400 4 00055
 01644 TIX +2 01016 0 00264    01645 TXH +3 00000 0 07732
                   O'E                                                              092  LM00190
 01646 TRA +0 02000 0 01737
                     W'R COMBUF(M).NE.FENCE, T'O ERR1                               093  LM00191
 01647 LXA +0 53400 1 00743    01650 CLA +0 50000 1 00324    01651 SUB +0 40200 0 00122    01652 TZE +0 10000 0 01654
 01653 TRA +0 02000 0 00215
                     CHKPRV.(BITS.V.RPATBT)                                         094  LM00192
 01654 CAL -0 50000 0 00274    01655 ORA -0 50100 0 00760    01656 SLW +0 60200 0 07732    01657 TSX +0 07400 4 00102
 01660 TXH +3 00000 0 07732
                     MAXI = 5 * (N+1)                                               095  LM00193
 01661 CLA +0 50000 0 00746    01662 ADD +0 40000 0 01015    01663 XCA +0 13100 0 00000    01664 MPY +0 20000 0 01021
 01665 STQ -0 60000 0 00132
                     TAULOC = COMMON.(TAU5)                                         096  LM00194
 01666 TSX +0 07400 4 00103    01667 TXH +3 00000 0 00773    01670 STO +0 60100 0 00124
                     PCTL.(3)                                                       097  LM00196
 01671 TSX +0 07400 4 00052    01672 TXH +3 00000 0 01017
                     PRFULL.(X,WHO(3)...M2,$ RESETTING TIMUSD.$)                    098  LM00197
 01673 TSX +0 07400 4 00055    01674 TXH +3 00000 0 01013    01675 TIX +2 00736 0 01005    01676 TXH +3 00000 0 01315
 01677 TXH +3 00000 0 01353    01700 TXH +3 00000 0 01157
                     PCTL.(1)                                                       099  LM00198
 01701 TSX +0 07400 4 00052    01702 TXH +3 00000 0 01015
                     NONINT.                                                        100  LM00202
 01703 TSX +0 07400 4 00112
                     T'H CND1, FOR I = 0,1,I.G.MAXI                                 101  LM00203
 01704 CLA +0 50000 0 01014    01705 STO +0 60100 0 00730    01706 TRA +0 02000 0 01712    01707 CLA +0 50000 0 00730
 01710 ADD +0 40000 0 01015    01711 STO +0 60100 0 00730    01712 CLA +0 50000 0 00730    01713 SUB +0 40200 0 00132
 01714 TZE +0 10000 0 01716    01715 TPL +0 12000 0 01736
      CND1           SLOC.(GLOC.(TAULOC+I).A.77776K7,TAULOC+I)                      102  LM00204
 01716 CLA +0 50000 0 00124    01717 ADD +0 40000 0 00730    01720 STO +0 60100 0 07732    01721 CLA +0 50000 0 00124
 01722 ADD +0 40000 0 00730    01723 STO +0 60100 0 07733    01724 TSX +0 07400 4 00037    01725 TXH +3 00000 0 07733
 01726 STO +0 60100 0 07733    01727 CAL -0 50000 0 07733    01730 ANA -0 32000 0 01401    01731 SLW +0 60200 0 07733
 01732 TSX +0 07400 4 00072    01733 TXH +3 00000 0 07733    01734 TXH +3 00000 0 07732    01735 TRA +0 02000 0 01707
                     INT.                                                           103  LM00205
 01736 TSX +0 07400 4 00111
                   E'L                                                              104  LM00206
                 E'E (T0,N1), (T1,N2), (T2,N3), (T3,N4), (T7,MODE)                  105  LM00224
                 O'R COMBUF(M) .E. $  COPY$                                         106  LM00226
 01737 TRA +0 02000 0 06504    01740 LXA +0 53400 1 00743    01741 CLA +0 50000 1 00324    01742 SUB +0 40200 0 01320
 01743 TNZ -0 10000 0 02264
                   M = M+1                                                          107  LM00227
 01744 CLA +0 50000 0 00743    01745 ADD +0 40000 0 01015    01746 STO +0 60100 0 00743
                   W'R COMBUF(M) .E. HELP                                           108  LM00228
 01747 LXA +0 53400 1 00743    01750 CLA +0 50000 1 00324    01751 SUB +0 40200 0 00727    01752 TNZ -0 10000 0 01765
                     PRFULL.(ADMIN...2,CURCOM.(0),$ N1 -N2- -N3- -N4-$)             109  LM00229
 01753 TSX +0 07400 4 00104    01754 TXH +3 00000 0 01014    01755 STO +0 60100 0 07733    01756 TSX +0 07400 4 00055
 01757 TIX +2 01016 0 00264    01760 TXH +3 00000 0 07733    01761 TXH +3 00000 0 01310    01762 TXH +3 00000 0 01065
 01763 TXH +3 00000 0 01167
                   O'E                                                              110  LM00230
 01764 TRA +0 02000 0 02263
                     N1 = COMBUF(M)                                                 111  LM00231
 01765 LXA +0 53400 2 00743    01766 CLA +0 50000 2 00324    01767 STO +0 60100 0 00132
                     N2 = COMBUF(M+1)                                               112  LM00232
 01770 CLA +0 50000 0 00743    01771 ADD +0 40000 0 01015    01772 PAX +0 73400 2 00000    01773 CLA +0 50000 2 00324
 01774 STO +0 60100 0 00131
                     N3 = COMBUF(M+2)                                               113  LM00233
 01775 CLA +0 50000 0 00743    01776 ADD +0 40000 0 01016    01777 PAX +0 73400 2 00000    02000 CLA +0 50000 2 00324
 02001 STO +0 60100 0 00130
                     N4 = COMBUF(M+3)                                               114  LM00234
 02002 CLA +0 50000 0 00743    02003 ADD +0 40000 0 01017    02004 PAX +0 73400 2 00000    02005 CLA +0 50000 2 00324
 02006 STO +0 60100 0 00127
                     W'R N2 .E. FENCE                                               115  LM00235
 02007 CLA +0 50000 0 00131    02010 SUB +0 40200 0 00122    02011 TNZ -0 10000 0 02021
                       N2 = TA                                                      116  LM00236
 02012 CLA +0 50000 0 00771    02013 STO +0 60100 0 00131
                       N3 = N1                                                      117  LM00237
 02014 CLA +0 50000 0 00132    02015 STO +0 60100 0 00130
                       N4 = N2                                                      118  LM00238
 02016 CLA +0 50000 0 00131    02017 STO +0 60100 0 00127
                     O'R N3 .E. FENCE                                               119  LM00239
 02020 TRA +0 02000 0 02056    02021 CLA +0 50000 0 00130    02022 SUB +0 40200 0 00122    02023 TNZ -0 10000 0 02031
                       N3 = N1                                                      120  LM00240
 02024 CLA +0 50000 0 00132    02025 STO +0 60100 0 00130
                       N4 = N2                                                      121  LM00241
 02026 CLA +0 50000 0 00131    02027 STO +0 60100 0 00127
                     O'R N4 .E. FENCE                                               122  LM00242
 02030 TRA +0 02000 0 02056    02031 CLA +0 50000 0 00127    02032 SUB +0 40200 0 00122    02033 TNZ -0 10000 0 02037
                       N4 = N2                                                      123  LM00243
 02034 CLA +0 50000 0 00131    02035 STO +0 60100 0 00127
                     O'R N1 .E. FENCE                                               124  LM00244
 02036 TRA +0 02000 0 02056    02037 CLA +0 50000 0 00132    02040 SUB +0 40200 0 00122    02041 TNZ -0 10000 0 02044
                       T'O ERR2                                                     125  LM00245
 02042 TRA +0 02000 0 00216
                     O'R COMBUF(M+4).NE. FENCE                                      126  LM00246
 02043 TRA +0 02000 0 02056    02044 CLA +0 50000 0 00743    02045 ADD +0 40000 0 01020    02046 PAX +0 73400 1 00000
 02047 CLA +0 50000 1 00324    02050 SUB +0 40200 0 00122    02051 TZE +0 10000 0 02056
                       M = M+4                                                      127  LM00247
 02052 CLA +0 50000 0 00743    02053 ADD +0 40000 0 01020    02054 STO +0 60100 0 00743
                       T'O ERR1                                                     128  LM00248
 02055 TRA +0 02000 0 00215
                     E'L                                                            129  LM00249
                     M = M+4                                                        130  LM00250
 02056 CLA +0 50000 0 00743    02057 ADD +0 40000 0 01020    02060 STO +0 60100 0 00743
                     W'R ME(1).E.M1416 .AND. ME.E.CMFL02 .AND.                      131  LM00251
                1         N3.E.N1 .AND. N4.E.N2, T'O ERR0                           131  LM00252
 02061 CLA +0 50000 0 00127    02062 SUB +0 40200 0 00131    02063 TNZ -0 10000 0 02076    02064 CLA +0 50000 0 00130
 02065 SUB +0 40200 0 00132    02066 TNZ -0 10000 0 02076    02067 CLA +0 50000 0 00740    02070 SUB +0 40200 0 00277
 02071 TNZ -0 10000 0 02076    02072 CLA +0 50000 0 00737    02073 SUB +0 40200 0 00734    02074 TNZ -0 10000 0 02076
 02075 TRA +0 02000 0 00214
                     CHKPRV.(RPRVBT)                                                132  LM00253
 02076 TSX +0 07400 4 00102    02077 TXH +3 00000 0 00762
                     UNLINK.(DATE,TIME,NULL.)                                       133  LM00256
 02100 TSX +0 07400 4 00075    02101 TXH +3 00000 0 00326    02102 TXH +3 00000 0 00774    02103 TXH +3 00000 0 00045
                     CHFILE.(DATE,TIME,1,M0,M0,NULL.)                               134  LM00257
 02104 TSX +0 07400 4 00015    02105 TXH +3 00000 0 00326    02106 TXH +3 00000 0 00774    02107 TXH +3 00000 0 01015
 02110 TXH +3 00000 0 00733    02111 TXH +3 00000 0 00733    02112 TXH +3 00000 0 00045
                     DELFIL.(DATE,TIME,NULL.)                                       135  LM00258
 02113 TSX +0 07400 4 00023    02114 TXH +3 00000 0 00326    02115 TXH +3 00000 0 00774    02116 TXH +3 00000 0 00045
                     OPEN.(W,DATE,TIME,120K)                                        136  LM00259
 02117 TSX +0 07400 4 00051    02120 TXH +3 00000 0 01012    02121 TXH +3 00000 0 00326    02122 TXH +3 00000 0 00774
 02123 TXH +3 00000 0 01044
                     GETBUF.(B1,432)                                                137  LM00260
 02124 TSX +0 07400 4 00035    02125 TXH +3 00000 0 00267    02126 TXH +3 00000 0 01050
                     GETBUF.(B2,432)                                                138  LM00261
 02127 TSX +0 07400 4 00035    02130 TXH +3 00000 0 00270    02131 TXH +3 00000 0 01050
                     GETBUF.(B3,432)                                                139  LM00262
 02132 TSX +0 07400 4 00035    02133 TXH +3 00000 0 00271    02134 TXH +3 00000 0 01050
                     GETBUF.(B4,432)                                                140  LM00263
 02135 TSX +0 07400 4 00035    02136 TXH +3 00000 0 00272    02137 TXH +3 00000 0 01050
                     BUFFER.(DATE,TIME,B4(B4+432)...432)                            141  LM00264
 02140 CLA +0 50000 0 00272    02141 ADD +0 40000 0 01050    02142 SUB +0 40200 0 02143    02143 TXH +3 00000 0 00272
 02144 STA +0 62100 0 02150    02145 TSX +0 07400 4 00012    02146 TXH +3 00000 0 00326    02147 TXH +3 00000 0 00774
 02150 TIX +2 01050 0 00000
                     ATTACH.(M1416,CMFL02)                                          142  LM00265
 02151 TSX +0 07400 4 00002    02152 TXH +3 00000 0 00734    02153 TXH +3 00000 0 00277
                     NONINT.                                                        143  LM00266
 02154 TSX +0 07400 4 00112
                     OPEN.(R,N1,N2)                                                 144  LM00267
 02155 TSX +0 07400 4 00051    02156 TXH +3 00000 0 00763    02157 TXH +3 00000 0 00132    02160 TXH +3 00000 0 00131
                     COPY.(N1,N2,DATE,TIME,B1(B1+432),B2(B2+432),B3(B3+432),        145  LM00268
                1          432,IOERR)                                               145  LM00269
 02161 CLA +0 50000 0 00271    02162 ADD +0 40000 0 01050    02163 SUB +0 40200 0 02164    02164 TXH +3 00000 0 00271
 02165 STA +0 62100 0 02207    02166 CLA +0 50000 0 00270    02167 ADD +0 40000 0 01050    02170 SUB +0 40200 0 02171
 02171 TXH +3 00000 0 00270    02172 STA +0 62100 0 02206    02173 CLA +0 50000 0 00267    02174 ADD +0 40000 0 01050
 02175 SUB +0 40200 0 02176    02176 TXH +3 00000 0 00267    02177 STA +0 62100 0 02205    02200 TSX +0 07400 4 00020
 02201 TXH +3 00000 0 00132    02202 TXH +3 00000 0 00131    02203 TXH +3 00000 0 00326    02204 TXH +3 00000 0 00774
 02205 TXH +3 00000 0 00000    02206 TXH +3 00000 0 00000    02207 TXH +3 00000 0 00000    02210 TXH +3 00000 0 01050
 02211 TXH +3 00000 0 00225
                     CLOSE.(N1,N2)                                                  146  LM00270
 02212 TSX +0 07400 4 00016    02213 TXH +3 00000 0 00132    02214 TXH +3 00000 0 00131
                     INT.                                                           147  LM00271
 02215 TSX +0 07400 4 00111
                     CLOSE.(DATE,TIME)                                              148  LM00272
 02216 TSX +0 07400 4 00016    02217 TXH +3 00000 0 00326    02220 TXH +3 00000 0 00774
                     ATTACH.(ME(1),ME)                                              149  LM00273
 02221 TSX +0 07400 4 00002    02222 TXH +3 00000 0 00737    02223 TXH +3 00000 0 00740
                     MODE = 124K                                                    150  LM00274
 02224 CLA +0 50000 0 01045    02225 STO +0 60100 0 00123
                     FSTATE.(N3,N4,TUCARD(1)...2,CPY1)                              151  LM00275
 02226 TSX +0 07400 4 00032    02227 TXH +3 00000 0 00130    02230 TXH +3 00000 0 00127    02231 TIX +2 01016 0 00165
 02232 TXH +3 00000 0 00210
                     MODE = TUCARD.A.777K                                           152  LM00276
 02233 CAL -0 50000 0 00166    02234 ANA -0 32000 0 01051    02235 SLW +0 60200 0 00123
      CPY1           UNLINK.(N3,N4,NULL.)                                           153  LM00277
 02236 TSX +0 07400 4 00075    02237 TXH +3 00000 0 00130    02240 TXH +3 00000 0 00127    02241 TXH +3 00000 0 00045
                     CHFILE.(N3,N4,1,M0,M0,NULL.)                                   154  LM00278
 02242 TSX +0 07400 4 00015    02243 TXH +3 00000 0 00130    02244 TXH +3 00000 0 00127    02245 TXH +3 00000 0 01015
 02246 TXH +3 00000 0 00733    02247 TXH +3 00000 0 00733    02250 TXH +3 00000 0 00045
                     DELFIL.(N3,N4,NULL.)                                           155  LM00279
 02251 TSX +0 07400 4 00023    02252 TXH +3 00000 0 00130    02253 TXH +3 00000 0 00127    02254 TXH +3 00000 0 00045
                     CHFILE.(DATE,TIME,MODE,N3,N4)                                  156  LM00280
 02255 TSX +0 07400 4 00015    02256 TXH +3 00000 0 00326    02257 TXH +3 00000 0 00774    02260 TXH +3 00000 0 00123
 02261 TXH +3 00000 0 00130    02262 TXH +3 00000 0 00127
                   E'L                                                              157  LM00281
                 O'R COMBUF(M) .E. $DELALL$                                         158  LM00298
 02263 TRA +0 02000 0 06504    02264 LXA +0 53400 1 00743    02265 CLA +0 50000 1 00324    02266 SUB +0 40200 0 01134
 02267 TNZ -0 10000 0 02322
                   M = M+1                                                          159  LM00299
 02270 CLA +0 50000 0 00743    02271 ADD +0 40000 0 01015    02272 STO +0 60100 0 00743
                   W'R COMBUF(M) .E. HELP                                           160  LM00300
 02273 LXA +0 53400 1 00743    02274 CLA +0 50000 1 00324    02275 SUB +0 40200 0 00727    02276 TNZ -0 10000 0 02310
                     PRFULL.(ADMIN...2,CURCOM.(0),$ 'LUSER$)                        161  LM00301
 02277 TSX +0 07400 4 00104    02300 TXH +3 00000 0 01014    02301 STO +0 60100 0 07733    02302 TSX +0 07400 4 00055
 02303 TIX +2 01016 0 00264    02304 TXH +3 00000 0 07733    02305 TXH +3 00000 0 01255    02306 TXH +3 00000 0 01244
                   O'E                                                              162  LM00302
 02307 TRA +0 02000 0 02321
                     GETUSR.(ERR3,DEL0,ERR5)                                        163  LM00303
 02310 TSX +0 07400 4 00107    02311 TXH +3 00000 0 00217    02312 TXH +3 00000 0 00211    02313 TXH +3 00000 0 00221
      DEL0           ATTACH.(PROB,PROG)                                             164  LM00304
 02314 TSX +0 07400 4 00002    02315 TXH +3 00000 0 00117    02316 TXH +3 00000 0 00116
                     DELALL.                                                        165  LM00305
 02317 TSX +0 07400 4 00022
                     T'O ERASE0                                                     166  LM00306
 02320 TRA +0 02000 0 00213
                   E'L                                                              167  LM00307
                 O'R COMBUF(M) .E. $DELTEM$                                         168  LM00325
 02321 TRA +0 02000 0 06504    02322 LXA +0 53400 1 00743    02323 CLA +0 50000 1 00324    02324 SUB +0 40200 0 01135
 02325 TNZ -0 10000 0 02357
                   M = M+1                                                          169  LM00326
 02326 CLA +0 50000 0 00743    02327 ADD +0 40000 0 01015    02330 STO +0 60100 0 00743
                   W'R COMBUF(M) .E. HELP                                           170  LM00327
 02331 LXA +0 53400 1 00743    02332 CLA +0 50000 1 00324    02333 SUB +0 40200 0 00727    02334 TNZ -0 10000 0 02346
                     PRFULL.(ADMIN...2,CURCOM.(0),$ 'LUSER$)                        171  LM00328
 02335 TSX +0 07400 4 00104    02336 TXH +3 00000 0 01014    02337 STO +0 60100 0 07733    02340 TSX +0 07400 4 00055
 02341 TIX +2 01016 0 00264    02342 TXH +3 00000 0 07733    02343 TXH +3 00000 0 01255    02344 TXH +3 00000 0 01244
                   O'E                                                              172  LM00329
 02345 TRA +0 02000 0 02356
                     GETUSR.(ERR3,DEL1,ERR5)                                        173  LM00330
 02346 TSX +0 07400 4 00107    02347 TXH +3 00000 0 00217    02350 TXH +3 00000 0 00212    02351 TXH +3 00000 0 00221
      DEL1           ATTACH.(PROB,PROG)                                             174  LM00331
 02352 TSX +0 07400 4 00002    02353 TXH +3 00000 0 00117    02354 TXH +3 00000 0 00116
                     DELTEM.                                                        175  LM00332
 02355 TSX +0 07400 4 00025
                   E'L                                                              176  LM00333
                 O'R COMBUF(M) .E. $ ERASE$                                         177  LM00351
 02356 TRA +0 02000 0 06504    02357 LXA +0 53400 1 00743    02360 CLA +0 50000 1 00324    02361 SUB +0 40200 0 01267
 02362 TNZ -0 10000 0 02432
                   M = M+1                                                          178  LM00352
 02363 CLA +0 50000 0 00743    02364 ADD +0 40000 0 01015    02365 STO +0 60100 0 00743
                   W'R COMBUF(M) .E. HELP                                           179  LM00353
 02366 LXA +0 53400 1 00743    02367 CLA +0 50000 1 00324    02370 SUB +0 40200 0 00727    02371 TNZ -0 10000 0 02403
                     PRFULL.(ADMIN...2,CURCOM.(0),$ 'LUSER$)                        180  LM00354
 02372 TSX +0 07400 4 00104    02373 TXH +3 00000 0 01014    02374 STO +0 60100 0 07733    02375 TSX +0 07400 4 00055
 02376 TIX +2 01016 0 00264    02377 TXH +3 00000 0 07733    02400 TXH +3 00000 0 01255    02401 TXH +3 00000 0 01244
                   O'E                                                              181  LM00355
 02402 TRA +0 02000 0 02431
                     GETUSR.(ERR3,ERASE0,ERR5)                                      182  LM00356
 02403 TSX +0 07400 4 00107    02404 TXH +3 00000 0 00217    02405 TXH +3 00000 0 00213    02406 TXH +3 00000 0 00221
      ERASE0         ATTACH.(PROB,PROG)                                             183  LM00357
 02407 TSX +0 07400 4 00002    02410 TXH +3 00000 0 00117    02411 TXH +3 00000 0 00116
                     ALLOT.(1,0,0)                                                  184  LM00358
 02412 TSX +0 07400 4 00001    02413 TXH +3 00000 0 01015    02414 TXH +3 00000 0 01014    02415 TXH +3 00000 0 01014
                     ALLOT.(2,0,0)                                                  185  LM00359
 02416 TSX +0 07400 4 00001    02417 TXH +3 00000 0 01016    02420 TXH +3 00000 0 01014    02421 TXH +3 00000 0 01014
                     ALLOT.(3,0,0)                                                  186  LM00360
 02422 TSX +0 07400 4 00001    02423 TXH +3 00000 0 01017    02424 TXH +3 00000 0 01014    02425 TXH +3 00000 0 01014
                     DELMFD.(PROB,PROG)                                             187  LM00361
 02426 TSX +0 07400 4 00024    02427 TXH +3 00000 0 00117    02430 TXH +3 00000 0 00116
                   E'L                                                              188  LM00362
                 E'E (HELMES(13),TUCARD(13))                                        189  LM00386
                 V'S HELMES = $NEXT COMEDOW$                                        190  LM00387
 00165     -0 64425 2 44666    00166     -0 52567 6 36023
                 V'S HELMES(2) = 453560575757K                                      191  LM00388
 00164     -0 53560 5 75757
                 O'R COMBUF(M) .E. $ HELLO$                                         192  LM00390
 02431 TRA +0 02000 0 06504    02432 LXA +0 53400 1 00743    02433 CLA +0 50000 1 00324    02434 SUB +0 40200 0 01275
 02435 TNZ -0 10000 0 02554
                   M = M+1                                                          193  LM00391
 02436 CLA +0 50000 0 00743    02437 ADD +0 40000 0 01015    02440 STO +0 60100 0 00743
                   W'R COMBUF(M) .E. HELP                                           194  LM00392
 02441 LXA +0 53400 1 00743    02442 CLA +0 50000 1 00324    02443 SUB +0 40200 0 00727    02444 TNZ -0 10000 0 02450
                     PRFULL.(FMT4...100)                                            195  LM00393
 02445 TSX +0 07400 4 00055    02446 TIX +2 01046 0 00672
                     V'S FMT4 = $ 'UADMIN HELLO 'LARG'*'8$,                         196  LM00394
                1    $WHERE '=ARG'= MAY BE:'*'8$,                                   196  LM00395
                2    $  1.   NONE   - SETS 'U'=NEXT COMDOWN:'='L MESSAGE'*'8$,      196  LM00396
                3    $  2. '='6NEWMES'= - ALLOWS COMPLETELY NEW MESSAGE'*'8$,       196  LM00397
                4    $  3. '='5RESET'=  - RESETS MESSAGE SWITCH$,777777777777K      196  LM00398
 00630     -3 77777 7 77777    00631     -2 63163 2 33060    00632     -2 22127 2 56062    00633     -2 36260 4 42562
 00634     -0 06051 2 56225    00635     +2 56314 1 36060    00636     +1 31405 5 12562    00637     -2 06003 3 36014
 00640     +2 51454 1 41060    00641     -0 42562 6 22127    00642     -3 06045 2 56660    00643     -0 74325 6 32543
 00644     -2 66260 2 34644    00645     -0 06021 4 34346    00646     -0 42562 1 41360    00647     +1 31406 4 52566
 00650     -2 06002 3 36014    00651     +2 72514 5 41410    00652     -2 04425 6 26221    00653     -0 53514 1 31443
 00654     +2 34644 2 44666    00655     +1 34525 6 76360    00656     -2 36260 1 46414    00657     -2 06040 6 06225
 00660     -2 04546 4 52560    00661     -2 06001 3 36060    00662     +1 06060 6 06060    00663     +2 22535 1 45414
 00664     +1 36044 2 17060    00665     +1 41321 5 12714    00666     -2 63025 5 12560    00667     -1 12714 5 41410
 00670     -0 34660 1 44321    00671     +3 14560 3 02543    00672     -2 01464 2 12444
                   O'E                                                              197  LM00400
 02447 TRA +0 02000 0 02553
                     MESGPT = COMMON.(MESGPT)                                       198  LM00401
 02450 TSX +0 07400 4 00103    02451 TXH +3 00000 0 00741    02452 STO +0 60100 0 00741
                     SYSMSG = COMMON.(SYSMSG)                                       199  LM00402
 02453 TSX +0 07400 4 00103    02454 TXH +3 00000 0 00770    02455 STO +0 60100 0 00770
                     W'R COMBUF(M) .E. $NEWMES$                                     200  LM00403
 02456 LXA +0 53400 1 00743    02457 CLA +0 50000 1 00324    02460 SUB +0 40200 0 01204    02461 TNZ -0 10000 0 02472
                       PRFULA.($'R'1TYPE: 'B'8$)                                    201  LM00404
 02462 TSX +0 07400 4 00054    02463 TXH +3 00000 0 01114    02464 TXH +3 00000 0 01227    02465 TXH +3 00000 0 01100
                       RDFLXC.(HELMES,84)                                           202  LM00405
 02466 TSX +0 07400 4 00060    02467 TXH +3 00000 0 00166    02470 TXH +3 00000 0 01045
                     O'R COMBUF(M) .E. $ RESET$                                     203  LM00406
 02471 TRA +0 02000 0 02520    02472 LXA +0 53400 1 00743    02473 CLA +0 50000 1 00324    02474 SUB +0 40200 0 01315
 02475 TNZ -0 10000 0 02503
                       SLOC.(0,MESGPT)                                              204  LM00407
 02476 TSX +0 07400 4 00072    02477 TXH +3 00000 0 01014    02500 TXH +3 00000 0 00741
                       T'O OUT                                                      205  LM00408
 02501 TRA +0 02000 0 00231
                     O'R COMBUF(M) .E. FENCE                                        206  LM00409
 02502 TRA +0 02000 0 02520    02503 LXA +0 53400 1 00743    02504 CLA +0 50000 1 00324    02505 SUB +0 40200 0 00122
 02506 TNZ -0 10000 0 02517
                       PRFULA.($'R'X$,HELMES...3,$'B'8$)                            207  LM00410
 02507 TSX +0 07400 4 00054    02510 TXH +3 00000 0 01115    02511 TIX +2 01017 0 00166    02512 TXH +3 00000 0 01101
                       RDFLXC.(HELMES(3),66)                                        208  LM00411
 02513 TSX +0 07400 4 00060    02514 TXH +3 00000 0 00163    02515 TXH +3 00000 0 01042
                     O'E                                                            209  LM00412
 02516 TRA +0 02000 0 02520
                       T'O ERR1                                                     210  LM00413
 02517 TRA +0 02000 0 00215
                     E'L                                                            211  LM00414
                     T'H HEL1, FOR I = 0,1,I.G.13                                   212  LM00415
 02520 CLA +0 50000 0 01014    02521 STO +0 60100 0 00730    02522 TRA +0 02000 0 02526    02523 CLA +0 50000 0 00730
 02524 ADD +0 40000 0 01015    02525 STO +0 60100 0 00730    02526 CLA +0 50000 0 00730    02527 SUB +0 40200 0 01030
 02530 TZE +0 10000 0 02532    02531 TPL +0 12000 0 02545
      HEL1           SLOC.(HELMES(I),SYSMSG+I)                                      213  LM00416
 02532 CLA +0 50000 0 00770    02533 ADD +0 40000 0 00730    02534 STO +0 60100 0 07733    02535 CLA +0 50000 0 00730
 02536 SUB +0 40200 0 02537    02537 TXH +3 00000 0 00166    02540 STA +0 62100 0 02542    02541 TSX +0 07400 4 00072
 02542 TXH +3 00000 0 00000    02543 TXH +3 00000 0 07733    02544 TRA +0 02000 0 02523
                     SLOC.(16K6.V.SYSMSG,MESGPT)                                    214  LM00417
 02545 CAL -0 50000 0 01060    02546 ORA -0 50100 0 00770    02547 SLW +0 60200 0 07733    02550 TSX +0 07400 4 00072
 02551 TXH +3 00000 0 07733    02552 TXH +3 00000 0 00741
                   E'L                                                              215  LM00418
                 D'N INPMES(14)                                                     216  LM00436
                 E'E (INPMES,TACARD), (DRMTSW,T0)                                   217  LM00437
                 BOOLEAN DRMTSW                                                     218  LM00438
                 O'R COMBUF(M) .E. $ INPUT$                                         219  LM00440
 02553 TRA +0 02000 0 06504    02554 LXA +0 53400 1 00743    02555 CLA +0 50000 1 00324    02556 SUB +0 40200 0 01276
 02557 TNZ -0 10000 0 02651
                   M = M+1                                                          220  LM00441
 02560 CLA +0 50000 0 00743    02561 ADD +0 40000 0 01015    02562 STO +0 60100 0 00743
                   W'R COMBUF(M) .E. HELP                                           221  LM00442
 02563 LXA +0 53400 1 00743    02564 CLA +0 50000 1 00324    02565 SUB +0 40200 0 00727    02566 TNZ -0 10000 0 02601
                     PRFULL.(ADMIN...2,CURCOM.(0),$ '4USER -(DRMT)-$)               222  LM00443
 02567 TSX +0 07400 4 00104    02570 TXH +3 00000 0 01014    02571 STO +0 60100 0 07733    02572 TSX +0 07400 4 00055
 02573 TIX +2 01016 0 00264    02574 TXH +3 00000 0 07733    02575 TXH +3 00000 0 01250    02576 TXH +3 00000 0 01243
 02577 TXH +3 00000 0 01177
                   O'E                                                              223  LM00444
 02600 TRA +0 02000 0 02650
                     GETUSR.(ERR3,ERR4,INP1)                                        224  LM00445
 02601 TSX +0 07400 4 00107    02602 TXH +3 00000 0 00217    02603 TXH +3 00000 0 00220    02604 TXH +3 00000 0 00224
      INP1           W'R COMBUF(M) .E. $(DRMT)$                                     225  LM00446
 02605 LXA +0 53400 1 00743    02606 CLA +0 50000 1 00324    02607 SUB +0 40200 0 01374    02610 TNZ -0 10000 0 02614
                       DRMTSW = 1B                                                  226  LM00447
 02611 CLA +0 50000 0 01015    02612 STO +0 60100 0 00132
                     O'R COMBUF(M) .E. FENCE                                        227  LM00448
 02613 TRA +0 02000 0 02624    02614 LXA +0 53400 1 00743    02615 CLA +0 50000 1 00324    02616 SUB +0 40200 0 00122
 02617 TNZ -0 10000 0 02623
                       DRMTSW = 0B                                                  228  LM00449
 02620 CLA +0 50000 0 01014    02621 STO +0 60100 0 00132
                     O'E                                                            229  LM00450
 02622 TRA +0 02000 0 02624
                       T'O ERR1                                                     230  LM00451
 02623 TRA +0 02000 0 00215
                     E'L                                                            231  LM00452
                     PRFULA.($'R'1TYPE: 'B'8$)                                      232  LM00453
 02624 TSX +0 07400 4 00054    02625 TXH +3 00000 0 01114    02626 TXH +3 00000 0 01227    02627 TXH +3 00000 0 01100
                     RDFLXA.(INPMES(14)...14)                                       233  LM00454
 02630 TSX +0 07400 4 00057    02631 TIX +2 01031 0 00167
                     NONINT.                                                        234  LM00455
 02632 TSX +0 07400 4 00112
                     W'R DRMTSW                                                     235  LM00456
 02633 NZT -0 52000 0 00132    02634 TRA +0 02000 0 02643
                       RSSWB.(USR)                                                  236  LM00457
 02635 TSX +0 07400 4 00064    02636 TXH +3 00000 0 01004
                       SCHEDL.(2,USR,1)                                             237  LM00458
 02637 TSX +0 07400 4 00065    02640 TXH +3 00000 0 01016    02641 TXH +3 00000 0 01004    02642 TXH +3 00000 0 01015
                     E'L                                                            238  LM00459
                     ENTLIN.(INPMES(14)...14,USR,ERR7)                              239  LM00460
 02643 TSX +0 07400 4 00026    02644 TIX +2 01031 0 00167    02645 TXH +3 00000 0 01004    02646 TXH +3 00000 0 00223
                     INT.                                                           240  LM00461
 02647 TSX +0 07400 4 00111
                   E'L                                                              241  LM00462
                 O'R COMBUF(M) .E. $  KILL$                                         242  LM00480
 02650 TRA +0 02000 0 06504    02651 LXA +0 53400 1 00743    02652 CLA +0 50000 1 00324    02653 SUB +0 40200 0 01321
 02654 TNZ -0 10000 0 02726
                   M = M+1                                                          243  LM00481
 02655 CLA +0 50000 0 00743    02656 ADD +0 40000 0 01015    02657 STO +0 60100 0 00743
                   W'R COMBUF(M) .E. HELP                                           244  LM00482
 02660 LXA +0 53400 1 00743    02661 CLA +0 50000 1 00324    02662 SUB +0 40200 0 00727    02663 TNZ -0 10000 0 02675
                     PRFULL.(ADMIN...2,CURCOM.(0),$ 'LUSER$)                        245  LM00483
 02664 TSX +0 07400 4 00104    02665 TXH +3 00000 0 01014    02666 STO +0 60100 0 07733    02667 TSX +0 07400 4 00055
 02670 TIX +2 01016 0 00264    02671 TXH +3 00000 0 07733    02672 TXH +3 00000 0 01255    02673 TXH +3 00000 0 01244
                   O'E                                                              246  LM00484
 02674 TRA +0 02000 0 02725
                     GETUSR.(ERR3,ERR4,ERR5)                                        247  LM00485
 02675 TSX +0 07400 4 00107    02676 TXH +3 00000 0 00217    02677 TXH +3 00000 0 00220    02700 TXH +3 00000 0 00221
                     W'R COMBUF(M).NE.FENCE, T'O ERR1                               248  LM00486
 02701 LXA +0 53400 1 00743    02702 CLA +0 50000 1 00324    02703 SUB +0 40200 0 00122    02704 TZE +0 10000 0 02706
 02705 TRA +0 02000 0 00215
                     PCTL.(3)                                                       249  LM00487
 02706 TSX +0 07400 4 00052    02707 TXH +3 00000 0 01017
                     PRFULL.(X,WHO(3)...M2,ON,WHO,$ KILLING'X$,                     250  LM00488
                1          PROB...2,$.$)                                            250  LM00489
 02710 TSX +0 07400 4 00055    02711 TXH +3 00000 0 01013    02712 TIX +2 00736 0 01005    02713 TXH +3 00000 0 00750
 02714 TXH +3 00000 0 01010    02715 TXH +3 00000 0 01302    02716 TXH +3 00000 0 01206    02717 TIX +2 01016 0 00117
 02720 TXH +3 00000 0 01164
                     PCTL.(1)                                                       251  LM00490
 02721 TSX +0 07400 4 00052    02722 TXH +3 00000 0 01015
                     KILL.(USR)                                                     252  LM00494
 02723 TSX +0 07400 4 00041    02724 TXH +3 00000 0 01004
                   E'L                                                              253  LM00495
                 E'E (T7,LEN)                                                       254  LM00514
                 E'E (TUCARD(2),DAYTIM), (TUCARD(1),DATELU)                         255  LM00515
                 O'R COMBUF(M) .E. $ MONTH$                                         256  LM00517
 02725 TRA +0 02000 0 06504    02726 LXA +0 53400 1 00743    02727 CLA +0 50000 1 00324    02730 SUB +0 40200 0 01307
 02731 TNZ -0 10000 0 03354
                   M = M+1                                                          257  LM00518
 02732 CLA +0 50000 0 00743    02733 ADD +0 40000 0 01015    02734 STO +0 60100 0 00743
                   W'R COMBUF(M) .E. HELP                                           258  LM00519
 02735 LXA +0 53400 1 00743    02736 CLA +0 50000 1 00324    02737 SUB +0 40200 0 00727    02740 TNZ -0 10000 0 02751
                     PRFULL.($ 'UADMIN MONTH 'L-NAME1- -NAME2-$)                    259  LM00520
 02741 TSX +0 07400 4 00055    02742 TXH +3 00000 0 01256    02743 TXH +3 00000 0 01162    02744 TXH +3 00000 0 01352
 02745 TXH +3 00000 0 01200    02746 TXH +3 00000 0 01301    02747 TXH +3 00000 0 01066
                   O'E                                                              260  LM00521
 02750 TRA +0 02000 0 03353
                     CHKPRV.(BITS.V.RPATBT)                                         261  LM00522
 02751 CAL -0 50000 0 00274    02752 ORA -0 50100 0 00760    02753 SLW +0 60200 0 07733    02754 TSX +0 07400 4 00102
 02755 TXH +3 00000 0 07733
                     N1 = COMBUF(M)                                                 262  LM00523
 02756 LXA +0 53400 2 00743    02757 CLA +0 50000 2 00324    02760 STO +0 60100 0 00132
                     N2 = COMBUF(M+1)                                               263  LM00524
 02761 CLA +0 50000 0 00743    02762 ADD +0 40000 0 01015    02763 PAX +0 73400 2 00000    02764 CLA +0 50000 2 00324
 02765 STO +0 60100 0 00131
                     W'R N1 .E. FENCE                                               264  LM00525
 02766 CLA +0 50000 0 00132    02767 SUB +0 40200 0 00122    02770 TNZ -0 10000 0 02776
                       N1 = TU                                                      265  LM00526
 02771 CLA +0 50000 0 00776    02772 STO +0 60100 0 00132
                       N2 = TA                                                      266  LM00527
 02773 CLA +0 50000 0 00771    02774 STO +0 60100 0 00131
                     O'R N2 .E. FENCE                                               267  LM00528
 02775 TRA +0 02000 0 03013    02776 CLA +0 50000 0 00131    02777 SUB +0 40200 0 00122    03000 TNZ -0 10000 0 03004
                       N2 = TA                                                      268  LM00529
 03001 CLA +0 50000 0 00771    03002 STO +0 60100 0 00131
                     O'R COMBUF(M+2) .NE. FENCE                                     269  LM00530
 03003 TRA +0 02000 0 03013    03004 CLA +0 50000 0 00743    03005 ADD +0 40000 0 01016    03006 PAX +0 73400 1 00000
 03007 CLA +0 50000 1 00324    03010 SUB +0 40200 0 00122    03011 TZE +0 10000 0 03013
                       T'O ERR1                                                     270  LM00531
 03012 TRA +0 02000 0 00215
                     E'L                                                            271  LM00532
                     LEN = 5*(N+1)                                                  272  LM00533
 03013 CLA +0 50000 0 00746    03014 ADD +0 40000 0 01015    03015 XCA +0 13100 0 00000    03016 MPY +0 20000 0 01021
 03017 STQ -0 60000 0 00123
                     TAULOC = COMMON.(TAU5)                                         273  LM00534
 03020 TSX +0 07400 4 00103    03021 TXH +3 00000 0 00773    03022 STO +0 60100 0 00124
                     GETBUF.(B5,LEN)                                                274  LM00535
 03023 TSX +0 07400 4 00035    03024 TXH +3 00000 0 00273    03025 TXH +3 00000 0 00123
                     ATTACH.(M1416,CMFL02)                                          275  LM00536
 03026 TSX +0 07400 4 00002    03027 TXH +3 00000 0 00734    03030 TXH +3 00000 0 00277
                     FSTATE.(TU,TA,LENGTH...8)                                      276  LM00537
 03031 TSX +0 07400 4 00032    03032 TXH +3 00000 0 00776    03033 TXH +3 00000 0 00771    03034 TIX +2 01024 0 00156
                     PCTL.(3)                                                       277  LM00539
 03035 TSX +0 07400 4 00052    03036 TXH +3 00000 0 01017
                     PRFULL.(X,WHO(3)...M2,ON,WHO,$ RESETTING TIMUSD AT 'X$,        278  LM00540
                1      DATE,X,TIME,$.$)                                             278  LM00541
 03037 TSX +0 07400 4 00055    03040 TXH +3 00000 0 01013    03041 TIX +2 00736 0 01005    03042 TXH +3 00000 0 00750
 03043 TXH +3 00000 0 01010    03044 TXH +3 00000 0 01315    03045 TXH +3 00000 0 01353    03046 TXH +3 00000 0 01160
 03047 TXH +3 00000 0 01124    03050 TXH +3 00000 0 00326    03051 TXH +3 00000 0 01013    03052 TXH +3 00000 0 00774
 03053 TXH +3 00000 0 01164
                     PCTL.(1)                                                       279  LM00542
 03054 TSX +0 07400 4 00052    03055 TXH +3 00000 0 01015
                     NONINT.                                                        280  LM00551
 03056 TSX +0 07400 4 00112
                     DATE = RJUST.(DATE)                                            281  LM00552
 03057 TSX +0 07400 4 00063    03060 TXH +3 00000 0 00326    03061 STO +0 60100 0 00326
                     CHFILE.(TU,TA,20K,DATE,TIME)                                   282  LM00553
 03062 TSX +0 07400 4 00015    03063 TXH +3 00000 0 00776    03064 TXH +3 00000 0 00771    03065 TXH +3 00000 0 01033
 03066 TXH +3 00000 0 00326    03067 TXH +3 00000 0 00774
                     SETFIL.(TU,TA,DAYTIM,DATELU,120K,2)                            283  LM00554
 03070 TSX +0 07400 4 00070    03071 TXH +3 00000 0 00776    03072 TXH +3 00000 0 00771    03073 TXH +3 00000 0 00164
 03074 TXH +3 00000 0 00165    03075 TXH +3 00000 0 01044    03076 TXH +3 00000 0 01016
                     MOVFIL.(DATE,TIME,ME(1),ME)                                    284  LM00555
 03077 TSX +0 07400 4 00044    03100 TXH +3 00000 0 00326    03101 TXH +3 00000 0 00774    03102 TXH +3 00000 0 00737
 03103 TXH +3 00000 0 00740
                     GETARY.(TAULOC,B5(B5+LEN)...LEN)                               285  LM00556
 03104 CLA +0 50000 0 00273    03105 ADD +0 40000 0 00123    03106 SUB +0 40200 0 03107    03107 TXH +3 00000 0 00273
 03110 STA +0 62100 0 03113    03111 TSX +0 07400 4 00034    03112 TXH +3 00000 0 00124    03113 TIX +2 00123 0 00000
                     GETPRB.                                                        286  LM00557
 03114 TSX +0 07400 4 00106
                     T'H MON1, FOR I = 0,1,I.G.LEN                                  287  LM00561
 03115 CLA +0 50000 0 01014    03116 STO +0 60100 0 00730    03117 TRA +0 02000 0 03123    03120 CLA +0 50000 0 00730
 03121 ADD +0 40000 0 01015    03122 STO +0 60100 0 00730    03123 CLA +0 50000 0 00730    03124 SUB +0 40200 0 00123
 03125 TZE +0 10000 0 03127    03126 TPL +0 12000 0 03147
      MON1           SLOC.(GLOC.(TAULOC+I).A.77776K7,TAULOC+I)                      288  LM00562
 03127 CLA +0 50000 0 00124    03130 ADD +0 40000 0 00730    03131 STO +0 60100 0 07733    03132 CLA +0 50000 0 00124
 03133 ADD +0 40000 0 00730    03134 STO +0 60100 0 07732    03135 TSX +0 07400 4 00037    03136 TXH +3 00000 0 07732
 03137 STO +0 60100 0 07732    03140 CAL -0 50000 0 07732    03141 ANA -0 32000 0 01401    03142 SLW +0 60200 0 07732
 03143 TSX +0 07400 4 00072    03144 TXH +3 00000 0 07732    03145 TXH +3 00000 0 07733    03146 TRA +0 02000 0 03120
                     INT.                                                           289  LM00563
 03147 TSX +0 07400 4 00111
                     ATTACH.(ME(1),ME)                                              290  LM00566
 03150 TSX +0 07400 4 00002    03151 TXH +3 00000 0 00737    03152 TXH +3 00000 0 00740
                     LEN = N+1                                                      291  LM00567
 03153 CLA +0 50000 0 00746    03154 ADD +0 40000 0 01015    03155 STO +0 60100 0 00123
                     TU = DATE                                                      292  LM00568
 03156 CLA +0 50000 0 00326    03157 STO +0 60100 0 00776
                     TA = TIME                                                      293  LM00569
 03160 CLA +0 50000 0 00774    03161 STO +0 60100 0 00771
                     STATUS = $RW$                                                  294  LM00570
 03162 CLA +0 50000 0 01245    03163 STO +0 60100 0 00766
      MON2           READTU.(PROBN(PROBN),PROGN(PROGN),N,MONEOF)                    295  LM00571
 03164 CLA +0 50000 0 00753    03165 SUB +0 40200 0 03166    03166 TXH +3 00000 0 00753    03167 STA +0 62100 0 03176
 03170 CLA +0 50000 0 00752    03171 SUB +0 40200 0 03172    03172 TXH +3 00000 0 00752    03173 STA +0 62100 0 03175
 03174 TSX +0 07400 4 00113    03175 TXH +3 00000 0 00000    03176 TXH +3 00000 0 00000    03177 TXH +3 00000 0 00746
 03200 TXH +3 00000 0 00227
                     UPSHFT.                                                        296  LM00572
 03201 TSX +0 07400 4 00114
                     WRWAIT.(TU,TA,RELLOC,TUCARD(27)...28)                          297  LM00573
 03202 TSX +0 07400 4 00100    03203 TXH +3 00000 0 00776    03204 TXH +3 00000 0 00771    03205 TXH +3 00000 0 00757
 03206 TIX +2 01037 0 00133
                     T'O MON2                                                       298  LM00574
 03207 TRA +0 02000 0 00226
      MONEOF         T'H MON3, FOR J = 0,1,J.G.27                                   299  LM00579
 03210 CLA +0 50000 0 01014    03211 STO +0 60100 0 00731    03212 TRA +0 02000 0 03216    03213 CLA +0 50000 0 00731
 03214 ADD +0 40000 0 01015    03215 STO +0 60100 0 00731    03216 CLA +0 50000 0 00731    03217 SUB +0 40200 0 01036
 03220 TZE +0 10000 0 03222    03221 TPL +0 12000 0 03226
      MON3           TUCARD(J) = $$                                                 300  LM00580
 03222 LXA +0 53400 1 00731    03223 CLA +0 50000 0 01330    03224 STO +0 60100 1 00166    03225 TRA +0 02000 0 03213
                     BFOPEN.(W,TU,TA,B1(B1+432),B2(B2+432),B3(B3+432),IOERR)        301  LM00581
 03226 CLA +0 50000 0 00271    03227 ADD +0 40000 0 01050    03230 SUB +0 40200 0 03231    03231 TXH +3 00000 0 00271
 03232 STA +0 62100 0 03253    03233 CLA +0 50000 0 00270    03234 ADD +0 40000 0 01050    03235 SUB +0 40200 0 03236
 03236 TXH +3 00000 0 00270    03237 STA +0 62100 0 03252    03240 CLA +0 50000 0 00267    03241 ADD +0 40000 0 01050
 03242 SUB +0 40200 0 03243    03243 TXH +3 00000 0 00267    03244 STA +0 62100 0 03251    03245 TSX +0 07400 4 00007
 03246 TXH +3 00000 0 01012    03247 TXH +3 00000 0 00776    03250 TXH +3 00000 0 00771    03251 TXH +3 00000 0 00000
 03252 TXH +3 00000 0 00000    03253 TXH +3 00000 0 00000    03254 TXH +3 00000 0 00225
                     T'H MON4, FOR I = 0,1,I.G.N                                    302  LM00582
 03255 CLA +0 50000 0 01014    03256 STO +0 60100 0 00730    03257 TRA +0 02000 0 03263    03260 CLA +0 50000 0 00730
 03261 ADD +0 40000 0 01015    03262 STO +0 60100 0 00730    03263 CLA +0 50000 0 00730    03264 SUB +0 40200 0 00746
 03265 TZE +0 10000 0 03267    03266 TPL +0 12000 0 03322
                     W'R PROBN(PROBN+I) .NE. 0                                      303  LM00583
 03267 CLA +0 50000 0 00752    03270 ADD +0 40000 0 00730    03271 PAX +0 73400 1 00000    03272 CLA +0 50000 1 00752
 03273 SUB +0 40200 0 01014    03274 TZE +0 10000 0 03321
                       TUCARD(27) = PROBN(PROBN+I)                                  304  LM00584
 03275 CLA +0 50000 0 00752    03276 ADD +0 40000 0 00730    03277 PAX +0 73400 2 00000    03300 CLA +0 50000 2 00752
 03301 STO +0 60100 0 00133
                       TUCARD(26) = PROGN(PROGN+I)                                  305  LM00585
 03302 CLA +0 50000 0 00753    03303 ADD +0 40000 0 00730    03304 PAX +0 73400 2 00000    03305 CLA +0 50000 2 00753
 03306 STO +0 60100 0 00134
                       TUCARD(13) = DATE                                            306  LM00586
 03307 CLA +0 50000 0 00326    03310 STO +0 60100 0 00151
                       TUCARD(12) = TIME                                            307  LM00587
 03311 CLA +0 50000 0 00774    03312 STO +0 60100 0 00152
                       UPSHFT.                                                      308  LM00588
 03313 TSX +0 07400 4 00114
                       BFWRIT.(TU,TA,TUCARD(27)...28,IOERR)                         309  LM00589
 03314 TSX +0 07400 4 00011    03315 TXH +3 00000 0 00776    03316 TXH +3 00000 0 00771    03317 TIX +2 01037 0 00133
 03320 TXH +3 00000 0 00225
                     E'L                                                            310  LM00590
      MON4           C'E                                                            311  LM00591
 03321 TRA +0 02000 0 03260
                     BFCLOS.(TU,TA,IOERR)                                           312  LM00592
 03322 TSX +0 07400 4 00006    03323 TXH +3 00000 0 00776    03324 TXH +3 00000 0 00771    03325 TXH +3 00000 0 00225
                     UNLINK.(N1,N2,NULL.)                                           313  LM00593
 03326 TSX +0 07400 4 00075    03327 TXH +3 00000 0 00132    03330 TXH +3 00000 0 00131    03331 TXH +3 00000 0 00045
                     CHFILE.(N1,N2,1,M0,M0,NULL.)                                   314  LM00594
 03332 TSX +0 07400 4 00015    03333 TXH +3 00000 0 00132    03334 TXH +3 00000 0 00131    03335 TXH +3 00000 0 01015
 03336 TXH +3 00000 0 00733    03337 TXH +3 00000 0 00733    03340 TXH +3 00000 0 00045
                     DELFIL.(N1,N2,NULL.)                                           315  LM00595
 03341 TSX +0 07400 4 00023    03342 TXH +3 00000 0 00132    03343 TXH +3 00000 0 00131    03344 TXH +3 00000 0 00045
                     CHFILE.(TU,TA,124K,N1,N2)                                      316  LM00596
 03345 TSX +0 07400 4 00015    03346 TXH +3 00000 0 00776    03347 TXH +3 00000 0 00771    03350 TXH +3 00000 0 01045
 03351 TXH +3 00000 0 00132    03352 TXH +3 00000 0 00131
                   E'L                                                              317  LM00597
                 E'E (T0,UPATSW), (T1,NAMESW), (T2,DELTA), (T3,LOC)                 318  LM00619
                 E'E (T4,LHALF), (T5,RHALF), (T6,TEST), (T7,KEYS)                   319  LM00620
                 E'E (TUCARD,PATMES)                                                320  LM00621
                 D'N PATMES(2)                                                      321  LM00622
                 BOOLEAN UPATSW,NAMESW                                              322  LM00623
                 DEFINE UNARY OPERATOR .ENK., PRECEDENCE HIGHER THAN .LS.           323  LM00625
                 MODE STRUCTURE .ENK. 1 TO 1                                        324  LM00626
                 O'R COMBUF(M) .E. $ PATCH$                                         329  LM00632
 03353 TRA +0 02000 0 06504    03354 LXA +0 53400 1 00743    03355 CLA +0 50000 1 00324    03356 SUB +0 40200 0 01314
 03357 TNZ -0 10000 0 04052
                   M = M+1                                                          330  LM00633
 03360 CLA +0 50000 0 00743    03361 ADD +0 40000 0 01015    03362 STO +0 60100 0 00743
                   W'R COMBUF(M) .E. HELP                                           331  LM00634
 03363 LXA +0 53400 1 00743    03364 CLA +0 50000 1 00324    03365 SUB +0 40200 0 00727    03366 TNZ -0 10000 0 03372
                     PRFULL.(FMT3...100)                                            332  LM00635
 03367 TSX +0 07400 4 00055    03370 TIX +2 01046 0 00627
                     V'S FMT3 =$ 'UADMIN PATCH 'LLOC -DELTA- LHALF RHALF$,          333  LM00636
                1    $'* WHERE '=LOC'= IS EITHER AN OCTAL LOCATION, COMMON V$,      333  LM00637
                2    $ARIABLE, '* OR AN ENTRY POINT.  '1 DELTA MAY BE '=+'= $,      333  LM00638
                3    $OR '=-'= LENGTH.'* ('1IF LENGTH ENDS WITH A '=.'=, IT $,      333  LM00639
                4    $IS ASSUMED DECIMAL, OTHERWISE, OCTAL.)$,777777777777K         333  LM00640
 00556     -3 77777 7 77777    00557     +3 33460 6 06060    00560     -2 04623 6 32143    00561     -1 16631 6 22573
 00562     -3 36046 6 33025    00563     +2 52331 4 42143    00564     -2 44425 2 46024    00565     +3 16260 2 16262
 00566     +1 37360 3 16360    00567     +2 16014 1 33314    00570     -2 06631 6 33060    00571     +3 06025 4 52462
 00572     -2 04325 4 52763    00573     -2 07414 0 13126    00574     +2 76330 3 31454    00575     +1 41360 4 32545
 00576     -0 65160 1 41340    00577     +1 41320 1 41360    00600     +2 17060 2 22560    00601     +2 54363 2 16044
 00602     -2 06014 0 16024    00603     -0 74631 4 56333    00604     +2 54563 5 17060    00605     -0 65160 2 14560
 00606     +2 57360 1 45460    00607     +2 15131 2 12243    00610     -0 44446 4 56065    00611     -0 64573 6 02346
 00612     -0 34623 2 16331    00613     -0 62363 2 14360    00614     +2 55160 2 14560    00615     -2 26025 3 16330
 00616     -0 62314 1 36031    00617     -1 12560 1 41343    00620     +1 45460 6 63025    00621     +3 02143 2 66060
 00622     +3 02143 2 66051    00623     -0 36321 4 06043    00624     -0 62360 4 02425    00625     +2 33060 1 44343
 00626     +3 14560 4 72163    00627     -2 01464 2 12444
                   O'E                                                              334  LM00641
 03371 TRA +0 02000 0 04051
      PAT1           W'R COMBUF(M) .E. FENCE, T'O ERR2                              335  LM00642
 03372 LXA +0 53400 1 00743    03373 CLA +0 50000 1 00324    03374 SUB +0 40200 0 00122    03375 TNZ -0 10000 0 03377
 03376 TRA +0 02000 0 00216
                     W'R ZEL.(COMBUF(M)).A.$YYYYYY$ .E. 0                           336  LM00643
 03377 CLA +0 50000 0 00743    03400 SUB +0 40200 0 03401    03401 TXH +3 00000 0 00324    03402 STA +0 62100 0 03404
 03403 TSX +0 07400 4 00101    03404 TXH +3 00000 0 00000    03405 STO +0 60100 0 07733    03406 CAL -0 50000 0 07733
 03407 ANA -0 32000 0 01372    03410 SLW +0 60200 0 07733    03411 CLA +0 50000 0 07733    03412 SUB +0 40200 0 01014
 03413 TNZ -0 10000 0 03426
                       NAMESW = 0B                                                  337  LM00644
 03414 CLA +0 50000 0 01014    03415 STO +0 60100 0 00131
                       LOC = BCOCT.(COMBUF(M))                                      338  LM00645
 03416 CLA +0 50000 0 00743    03417 SUB +0 40200 0 03420    03420 TXH +3 00000 0 00324    03421 STA +0 62100 0 03423
 03422 TSX +0 07400 4 00005    03423 TXH +3 00000 0 00000    03424 STO +0 60100 0 00127
                     O'E                                                            339  LM00646
 03425 TRA +0 02000 0 03470
                       NAMESW = 1B                                                  340  LM00647
 03426 CLA +0 50000 0 01015    03427 STO +0 60100 0 00131
                       PATMES = BZ57.(COMBUF(M))                                    341  LM00648
 03430 CLA +0 50000 0 00743    03431 SUB +0 40200 0 03432    03432 TXH +3 00000 0 00324    03433 STA +0 62100 0 03435
 03434 TSX +0 07400 4 00013    03435 TXH +3 00000 0 00000    03436 STO +0 60100 0 00166
                       W'R .NOT.UPATSW, PATMES(1) = NULLS                           342  LM00649
 03437 ZET +0 52000 0 00132    03440 TRA +0 02000 0 03443    03441 CLA +0 50000 0 00747    03442 STO +0 60100 0 00165
                       PATMES(2) = NULLS                                            343  LM00650
 03443 CLA +0 50000 0 00747    03444 STO +0 60100 0 00164
                       LOC = COMLOC.(LJUST.(COMBUF(M)),PAT2)                        344  LM00651
 03445 CLA +0 50000 0 00743    03446 SUB +0 40200 0 03447    03447 TXH +3 00000 0 00324    03450 STA +0 62100 0 03452
 03451 TSX +0 07400 4 00042    03452 TXH +3 00000 0 00000    03453 STO +0 60100 0 07733    03454 TSX +0 07400 4 00017
 03455 TXH +3 00000 0 07733    03456 TXH +3 00000 0 00233    03457 STO +0 60100 0 00127
                       T'O PAT3                                                     345  LM00652
 03460 TRA +0 02000 0 00234
      PAT2             LOC = ENTRY.(COMBUF(M))                                      346  LM00653
 03461 CLA +0 50000 0 00743    03462 SUB +0 40200 0 03463    03463 TXH +3 00000 0 00324    03464 STA +0 62100 0 03466
 03465 TSX +0 07400 4 00105    03466 TXH +3 00000 0 00000    03467 STO +0 60100 0 00127
                     E'L                                                            347  LM00654
      PAT3           M = M+1                                                        348  LM00655
 03470 CLA +0 50000 0 00743    03471 ADD +0 40000 0 01015    03472 STO +0 60100 0 00743
                     W'R UPATSW, T'O PAT4                                           349  LM00659
 03473 NZT -0 52000 0 00132    03474 TRA +0 02000 0 03476    03475 TRA +0 02000 0 00235
                     W'R (COMBUF(M).E.$     +$ .OR. COMBUF(M).E.$     -$)           350  LM00660
                1      .AND. ZEL.(COMBUF(M+1)).A.$     0$.E.0                       350  LM00661
 03476 CLA +0 50000 0 00743    03477 ADD +0 40000 0 01015    03500 SUB +0 40200 0 03501    03501 TXH +3 00000 0 00324
 03502 STA +0 62100 0 03504    03503 TSX +0 07400 4 00101    03504 TXH +3 00000 0 00000    03505 STO +0 60100 0 07733
 03506 CAL -0 50000 0 07733    03507 ANA -0 32000 0 01324    03510 SLW +0 60200 0 07733    03511 CLA +0 50000 0 07733
 03512 SUB +0 40200 0 01014    03513 TNZ -0 10000 0 03642    03514 LXA +0 53400 1 00743    03515 CLA +0 50000 1 00324
 03516 SUB +0 40200 0 01327    03517 TZE +0 10000 0 03523    03520 CLA +0 50000 1 00324    03521 SUB +0 40200 0 01326
 03522 TNZ -0 10000 0 03642
                       W'R COMBUF(M+1).A.77K .E. $00000.$                           351  LM00662
 03523 CLA +0 50000 0 00743    03524 ADD +0 40000 0 01015    03525 PAX +0 73400 1 00000    03526 CAL -0 50000 1 00324
 03527 ANA -0 32000 0 01041    03530 SLW +0 60200 0 07733    03531 CLA +0 50000 0 07733    03532 SUB +0 40200 0 01036
 03533 TNZ -0 10000 0 03550
                         DELTA = BCDEC.(COMBUF(M+1).RS.6)                           352  LM00663
 03534 CLA +0 50000 0 00743    03535 ADD +0 40000 0 01015    03536 PAX +0 73400 1 00000    03537 CAL -0 50000 0 01022
 03540 STA +0 62100 0 03542    03541 CAL -0 50000 1 00324    03542 LGR -0 76500 0 00000    03543 SLW +0 60200 0 07733
 03544 TSX +0 07400 4 00004    03545 TXH +3 00000 0 07733    03546 STO +0 60100 0 00130
                       O'R ZEL.(COMBUF(M+1)).A.$YYYYYY$ .NE. 0                      353  LM00664
 03547 TRA +0 02000 0 03607    03550 CLA +0 50000 0 00743    03551 ADD +0 40000 0 01015    03552 SUB +0 40200 0 03553
 03553 TXH +3 00000 0 00324    03554 STA +0 62100 0 03556    03555 TSX +0 07400 4 00101    03556 TXH +3 00000 0 00000
 03557 STO +0 60100 0 07733    03560 CAL -0 50000 0 07733    03561 ANA -0 32000 0 01372    03562 SLW +0 60200 0 07733
 03563 CLA +0 50000 0 07733    03564 SUB +0 40200 0 01014    03565 TZE +0 10000 0 03577
                         DELTA = BCDEC.(COMBUF(M+1))                                354  LM00665
 03566 CLA +0 50000 0 00743    03567 ADD +0 40000 0 01015    03570 SUB +0 40200 0 03571    03571 TXH +3 00000 0 00324
 03572 STA +0 62100 0 03574    03573 TSX +0 07400 4 00004    03574 TXH +3 00000 0 00000    03575 STO +0 60100 0 00130
                       O'E                                                          355  LM00666
 03576 TRA +0 02000 0 03607
                         DELTA = BCOCT.(COMBUF(M+1))                                356  LM00667
 03577 CLA +0 50000 0 00743    03600 ADD +0 40000 0 01015    03601 SUB +0 40200 0 03602    03602 TXH +3 00000 0 00324
 03603 STA +0 62100 0 03605    03604 TSX +0 07400 4 00005    03605 TXH +3 00000 0 00000    03606 STO +0 60100 0 00130
                       E'L                                                          357  LM00668
                       W'R COMBUF(M).E.$     -$, DELTA = -DELTA                     358  LM00669
 03607 LXA +0 53400 1 00743    03610 CLA +0 50000 1 00324    03611 SUB +0 40200 0 01327    03612 TNZ -0 10000 0 03615
 03613 CLS +0 50200 0 00130    03614 STO +0 60100 0 00130
                       LOC = LOC + DELTA                                            359  LM00670
 03615 CLA +0 50000 0 00127    03616 ADD +0 40000 0 00130    03617 STO +0 60100 0 00127
                       PATMES(1) = (COMBUF(M).LS.24).V.60575757K                    360  LM00671
 03620 LXA +0 53400 1 00743    03621 CAL -0 50000 0 01035    03622 STA +0 62100 0 03624    03623 CAL -0 50000 1 00324
 03624 ALS +0 76700 0 00000    03625 ORA -0 50100 0 01062    03626 SLW +0 60200 0 00165
                       PATMES(2) = BZ57.(COMBUF(M+1))                               361  LM00672
 03627 CLA +0 50000 0 00743    03630 ADD +0 40000 0 01015    03631 SUB +0 40200 0 03632    03632 TXH +3 00000 0 00324
 03633 STA +0 62100 0 03635    03634 TSX +0 07400 4 00013    03635 TXH +3 00000 0 00000    03636 STO +0 60100 0 00164
                       M = M+2                                                      362  LM00673
 03637 CLA +0 50000 0 00743    03640 ADD +0 40000 0 01016    03641 STO +0 60100 0 00743
                     E'L                                                            363  LM00674
      PAT4           W'R UPATSW, LOC = LOC + USER                                   364  LM00675
 03642 NZT -0 52000 0 00132    03643 TRA +0 02000 0 03647    03644 CLA +0 50000 0 00127    03645 ADD +0 40000 0 01002
 03646 STO +0 60100 0 00127
                     W'R .NOT. NAMESW                                               365  LM00676
 03647 ZET +0 52000 0 00131    03650 TRA +0 02000 0 03663
                       PATMES = BZ57.(OCABC.(LOC))                                  366  LM00677
 03651 TSX +0 07400 4 00046    03652 TXH +3 00000 0 00127    03653 STO +0 60100 0 07733    03654 TSX +0 07400 4 00013
 03655 TXH +3 00000 0 07733    03656 STO +0 60100 0 00166
                       PATMES(1) = NULLS                                            367  LM00678
 03657 CLA +0 50000 0 00747    03660 STO +0 60100 0 00165
                       PATMES(2) = NULLS                                            368  LM00679
 03661 CLA +0 50000 0 00747    03662 STO +0 60100 0 00164
                     E'L                                                            369  LM00680
                     LHALF = COMBUF(M)                                              370  LM00681
 03663 LXA +0 53400 2 00743    03664 CLA +0 50000 2 00324    03665 STO +0 60100 0 00126
                     RHALF = COMBUF(M+1)                                            371  LM00682
 03666 CLA +0 50000 0 00743    03667 ADD +0 40000 0 01015    03670 PAX +0 73400 2 00000    03671 CLA +0 50000 2 00324
 03672 STO +0 60100 0 00125
                     M = M+2                                                        372  LM00683
 03673 CLA +0 50000 0 00743    03674 ADD +0 40000 0 01016    03675 STO +0 60100 0 00743
                     W'R LHALF.V.RHALF .E. FENCE, T'O ERR2                          373  LM00684
 03676 CAL -0 50000 0 00126    03677 ORA -0 50100 0 00125    03700 SLW +0 60200 0 07733    03701 CLA +0 50000 0 07733
 03702 SUB +0 40200 0 00122    03703 TNZ -0 10000 0 03705    03704 TRA +0 02000 0 00216
                     W'R COMBUF(M).NE.FENCE, T'O ERR1                               374  LM00685
 03705 LXA +0 53400 1 00743    03706 CLA +0 50000 1 00324    03707 SUB +0 40200 0 00122    03710 TZE +0 10000 0 03712
 03711 TRA +0 02000 0 00215
                     TEST = GLOC.(LOC)                                              375  LM00686
 03712 TSX +0 07400 4 00037    03713 TXH +3 00000 0 00127    03714 STO +0 60100 0 00124
                     W'R LHALF.E.STAR, LHALF = OCLBC.(TEST)                         376  LM00687
 03715 CLA +0 50000 0 00126    03716 SUB +0 40200 0 00765    03717 TNZ -0 10000 0 03723    03720 TSX +0 07400 4 00047
 03721 TXH +3 00000 0 00124    03722 STO +0 60100 0 00126
                     W'R RHALF.E.STAR, RHALF = OCRBC.(TEST)                         377  LM00688
 03723 CLA +0 50000 0 00125    03724 SUB +0 40200 0 00765    03725 TNZ -0 10000 0 03731    03726 TSX +0 07400 4 00050
 03727 TXH +3 00000 0 00124    03730 STO +0 60100 0 00125
                     LHALF = ZEL.(LHALF)                                            378  LM00689
 03731 TSX +0 07400 4 00101    03732 TXH +3 00000 0 00126    03733 STO +0 60100 0 00126
                     RHALF = ZEL.(RHALF)                                            379  LM00690
 03734 TSX +0 07400 4 00101    03735 TXH +3 00000 0 00125    03736 STO +0 60100 0 00125
                     W'R (LHALF.V.RHALF).A.$YYYYYY$.NE.0, T'O ERR6                  380  LM00691
 03737 CAL -0 50000 0 00126    03740 ORA -0 50100 0 00125    03741 ANA -0 32000 0 01372    03742 SLW +0 60200 0 07733
 03743 CLA +0 50000 0 07733    03744 SUB +0 40200 0 01014    03745 TZE +0 10000 0 03747    03746 TRA +0 02000 0 00222
      PATTST         W'R .ENK.KEYS.A.KEY22 .NE. KEY22 .AND. WHO.NE.$(FIB)$          381  LM00692
 03747 CLA +0 50000 0 01010    03750 SUB +0 40200 0 01376    03751 TZE +0 10000 0 04000    03752 XEC +0 52200 0 01071
 03753 STQ -0 60000 0 00123    03754 XCL -0 13000 0 00000    03755 ANA -0 32000 0 00732    03756 SLW +0 60200 0 07733
 03757 CLA +0 50000 0 07733    03760 SUB +0 40200 0 00732    03761 TZE +0 10000 0 04000
                       GETTM.(DATE,TIME)                                            382  LM00693
 03762 TSX +0 07400 4 00036    03763 TXH +3 00000 0 00326    03764 TXH +3 00000 0 00774
                       PRFULL.($'R'1KEY 22 NOT SET AT 'X$,TIME,BLACK)               383  LM00694
 03765 TSX +0 07400 4 00055    03766 TXH +3 00000 0 01110    03767 TXH +3 00000 0 01371    03770 TXH +3 00000 0 01224
 03771 TXH +3 00000 0 01262    03772 TXH +3 00000 0 00774    03773 TXH +3 00000 0 00275
                       SNOOZE.(10,SLPCMD(2))                                        384  LM00695
 03774 TSX +0 07400 4 00073    03775 TXH +3 00000 0 01026    03776 TXH +3 00000 0 00120
                       T'O PATTST                                                   385  LM00696
 03777 TRA +0 02000 0 00236
                     E'L                                                            386  LM00697
                     PCTL.(3)                                                       387  LM00698
 04000 TSX +0 07400 4 00052    04001 TXH +3 00000 0 01017
                     PRFULL.(X,WHO(3)...M2,ON,WHO,$ PATCHING 'X$,PATMES...3,        388  LM00699
                1   $'L FROM '8$,OCLBC.(TEST),OCRBC.(TEST),$ TO '8$,                388  LM00700
                2   LHALF,RHALF,$.$)                                                388  LM00701
 04002 TSX +0 07400 4 00050    04003 TXH +3 00000 0 00124    04004 STO +0 60100 0 07733    04005 TSX +0 07400 4 00047
 04006 TXH +3 00000 0 00124    04007 STO +0 60100 0 07732    04010 TSX +0 07400 4 00055    04011 TXH +3 00000 0 01013
 04012 TIX +2 00736 0 01005    04013 TXH +3 00000 0 00750    04014 TXH +3 00000 0 01010    04015 TXH +3 00000 0 01314
 04016 TXH +3 00000 0 01161    04017 TIX +2 01017 0 00166    04020 TXH +3 00000 0 01104    04021 TXH +3 00000 0 01176
 04022 TXH +3 00000 0 07732    04023 TXH +3 00000 0 07733    04024 TXH +3 00000 0 01333    04025 TXH +3 00000 0 00126
 04026 TXH +3 00000 0 00125    04027 TXH +3 00000 0 01164
                     PCTL.(1)                                                       389  LM00702
 04030 TSX +0 07400 4 00052    04031 TXH +3 00000 0 01015
                     SLOC.((BCOCT.(LHALF).LS.18).V.BCOCT.(RHALF),LOC)               390  LM00709
 04032 TSX +0 07400 4 00005    04033 TXH +3 00000 0 00125    04034 STO +0 60100 0 07733    04035 TSX +0 07400 4 00005
 04036 TXH +3 00000 0 00126    04037 STO +0 60100 0 07732    04040 CAL -0 50000 0 01034    04041 STA +0 62100 0 04043
 04042 CAL -0 50000 0 07732    04043 ALS +0 76700 0 00000    04044 ORA -0 50100 0 07733    04045 SLW +0 60200 0 07733
 04046 TSX +0 07400 4 00072    04047 TXH +3 00000 0 07733    04050 TXH +3 00000 0 00127
                   E'L                                                              391  LM00710
                 E'E (T0,PB)                                                        392  LM00728
                 O'R COMBUF(M) .E. $    PB$                                         393  LM00730
 04051 TRA +0 02000 0 06504    04052 LXA +0 53400 1 00743    04053 CLA +0 50000 1 00324    04054 SUB +0 40200 0 01323
 04055 TNZ -0 10000 0 04223
                   M = M+1                                                          394  LM00731
 04056 CLA +0 50000 0 00743    04057 ADD +0 40000 0 01015    04060 STO +0 60100 0 00743
                   PB = BCDEC.(COMBUF(M))                                           395  LM00732
 04061 CLA +0 50000 0 00743    04062 SUB +0 40200 0 04063    04063 TXH +3 00000 0 00324    04064 STA +0 62100 0 04066
 04065 TSX +0 07400 4 00004    04066 TXH +3 00000 0 00000    04067 STO +0 60100 0 00132
                   W'R COMBUF(M) .E. HELP                                           396  LM00733
 04070 LXA +0 53400 1 00743    04071 CLA +0 50000 1 00324    04072 SUB +0 40200 0 00727    04073 TNZ -0 10000 0 04105
                     PRFULL.(ADMIN...2,CURCOM.(0),$ 'LN USER$)                      397  LM00734
 04074 TSX +0 07400 4 00104    04075 TXH +3 00000 0 01014    04076 STO +0 60100 0 07733    04077 TSX +0 07400 4 00055
 04100 TIX +2 01016 0 00264    04101 TXH +3 00000 0 07733    04102 TXH +3 00000 0 01253    04103 TXH +3 00000 0 01340
                   O'R ZEL.(COMBUF(M)).A.$$ .NE. 0 .OR. PB.G.100                    398  LM00735
 04104 TRA +0 02000 0 04222    04105 CLA +0 50000 0 00132    04106 SUB +0 40200 0 01046    04107 TZE +0 10000 0 04111
 04110 TPL +0 12000 0 04126    04111 CLA +0 50000 0 00743    04112 SUB +0 40200 0 04113    04113 TXH +3 00000 0 00324
 04114 STA +0 62100 0 04116    04115 TSX +0 07400 4 00101    04116 TXH +3 00000 0 00000    04117 STO +0 60100 0 07733
 04120 CAL -0 50000 0 07733    04121 ANA -0 32000 0 01330    04122 SLW +0 60200 0 07733    04123 CLA +0 50000 0 07733
 04124 SUB +0 40200 0 01014    04125 TZE +0 10000 0 04130
                     T'O ERR0                                                       399  LM00736
 04126 TRA +0 02000 0 00214
                   O'E                                                              400  LM00737
 04127 TRA +0 02000 0 04222
                     M = M+1                                                        401  LM00738
 04130 CLA +0 50000 0 00743    04131 ADD +0 40000 0 01015    04132 STO +0 60100 0 00743
                     GETUSR.(PB0,ERR4,ERR5)                                         402  LM00739
 04133 TSX +0 07400 4 00107    04134 TXH +3 00000 0 00237    04135 TXH +3 00000 0 00220    04136 TXH +3 00000 0 00221
      PB0            PCTL.(3)                                                       403  LM00740
 04137 TSX +0 07400 4 00052    04140 TXH +3 00000 0 01017
                     PRFULL.(X,WHO(3)...M2,ON,WHO,$ SETTING PERCENTAGE OF 'X$,      404  LM00741
                1    PROB...2,$ TO 'X$,BZ57.(DEFBC.(PB)),$.$)                       404  LM00742
 04141 TSX +0 07400 4 00021    04142 TXH +3 00000 0 00132    04143 STO +0 60100 0 07733    04144 TSX +0 07400 4 00013
 04145 TXH +3 00000 0 07733    04146 STO +0 60100 0 07733    04147 TSX +0 07400 4 00055    04150 TXH +3 00000 0 01013
 04151 TIX +2 00736 0 01005    04152 TXH +3 00000 0 00750    04153 TXH +3 00000 0 01010    04154 TXH +3 00000 0 01332
 04155 TXH +3 00000 0 01210    04156 TXH +3 00000 0 01127    04157 TXH +3 00000 0 01146    04160 TXH +3 00000 0 01367
 04161 TIX +2 01016 0 00117    04162 TXH +3 00000 0 01334    04163 TXH +3 00000 0 07733    04164 TXH +3 00000 0 01164
                     PCTL.(1)                                                       405  LM00743
 04165 TSX +0 07400 4 00052    04166 TXH +3 00000 0 01015
                     SLOC.(PB,COMMON.($PB$)+USR)                                    406  LM00748
 04167 TSX +0 07400 4 00103    04170 TXH +3 00000 0 01226    04171 ADD +0 40000 0 01004    04172 STO +0 60100 0 07733
 04173 TSX +0 07400 4 00072    04174 TXH +3 00000 0 00132    04175 TXH +3 00000 0 07733
                     SLOC.(GLOC.(COMMON.(TIMNOW)),COMMON.(STRTIM)+USR)              407  LM00749
 04176 TSX +0 07400 4 00103    04177 TXH +3 00000 0 00767    04200 ADD +0 40000 0 01004    04201 STO +0 60100 0 07733
 04202 TSX +0 07400 4 00103    04203 TXH +3 00000 0 00775    04204 STO +0 60100 0 07732    04205 TSX +0 07400 4 00037
 04206 TXH +3 00000 0 07732    04207 STO +0 60100 0 07732    04210 TSX +0 07400 4 00072    04211 TXH +3 00000 0 07732
 04212 TXH +3 00000 0 07733
                     SLOC.(0,COMMON.(WRKTIM)+USR)                                   408  LM00750
 04213 TSX +0 07400 4 00103    04214 TXH +3 00000 0 01011    04215 ADD +0 40000 0 01004    04216 STO +0 60100 0 07733
 04217 TSX +0 07400 4 00072    04220 TXH +3 00000 0 01014    04221 TXH +3 00000 0 07733
                   E'L                                                              409  LM00751
                 O'R COMBUF(M) .E. $PRNTON$                                         410  LM00769
 04222 TRA +0 02000 0 06504    04223 LXA +0 53400 1 00743    04224 CLA +0 50000 1 00324    04225 SUB +0 40200 0 01230
 04226 TNZ -0 10000 0 04265
                   M = M+1                                                          411  LM00770
 04227 CLA +0 50000 0 00743    04230 ADD +0 40000 0 01015    04231 STO +0 60100 0 00743
                   W'R COMBUF(M) .E. HELP                                           412  LM00771
 04232 LXA +0 53400 1 00743    04233 CLA +0 50000 1 00324    04234 SUB +0 40200 0 00727    04235 TNZ -0 10000 0 04250
                     PRFULL.(ADMIN...2,CURCOM.(0),$ 'L-NAME1 NAME2-$)               413  LM00772
 04236 TSX +0 07400 4 00104    04237 TXH +3 00000 0 01014    04240 STO +0 60100 0 07733    04241 TSX +0 07400 4 00055
 04242 TIX +2 01016 0 00264    04243 TXH +3 00000 0 07733    04244 TXH +3 00000 0 01251    04245 TXH +3 00000 0 01173
 04246 TXH +3 00000 0 01174
                   O'E                                                              414  LM00773
 04247 TRA +0 02000 0 04264
                     PRNTON.(COMBUF(M),COMBUF(M+1))                                 415  LM00774
 04250 CLA +0 50000 0 00743    04251 ADD +0 40000 0 01015    04252 SUB +0 40200 0 04253    04253 TXH +3 00000 0 00324
 04254 STA +0 62100 0 04263    04255 CLA +0 50000 0 00743    04256 SUB +0 40200 0 04257    04257 TXH +3 00000 0 00324
 04260 STA +0 62100 0 04262    04261 TSX +0 07400 4 00056    04262 TXH +3 00000 0 00000    04263 TXH +3 00000 0 00000
                   E'L                                                              416  LM00775
                 E'E (T2,NOTLIN), (T3,FOUND), (T4,SHFT), (T5,TAU)                   417  LM00794
                 E'E (TUCARD(27),USED(5)), (TUCARD(21),ALTD(5))                     418  LM00795
                 D'N ALTD(0),USED(0)                                                419  LM00796
                 BOOLEAN NOTLIN, FOUND                                              420  LM00797
                 O'R COMBUF(M) .E. $RDTIMU$                                         421  LM00799
 04264 TRA +0 02000 0 06504    04265 LXA +0 53400 1 00743    04266 CLA +0 50000 1 00324    04267 SUB +0 40200 0 01234
 04270 TNZ -0 10000 0 04717
                   M = M+1                                                          422  LM00800
 04271 CLA +0 50000 0 00743    04272 ADD +0 40000 0 01015    04273 STO +0 60100 0 00743
                   W'R COMBUF(M) .E. HELP                                           423  LM00801
 04274 LXA +0 53400 1 00743    04275 CLA +0 50000 1 00324    04276 SUB +0 40200 0 00727    04277 TNZ -0 10000 0 04313
                     PRFULL.(ADMIN...2,CURCOM.(0),$ '4USER -NAME1- -NAME2-$)        424  LM00802
 04300 TSX +0 07400 4 00104    04301 TXH +3 00000 0 01014    04302 STO +0 60100 0 07733    04303 TSX +0 07400 4 00055
 04304 TIX +2 01016 0 00264    04305 TXH +3 00000 0 07733    04306 TXH +3 00000 0 01250    04307 TXH +3 00000 0 01242
 04310 TXH +3 00000 0 01140    04311 TXH +3 00000 0 01120
                   O'E                                                              425  LM00803
 04312 TRA +0 02000 0 04716
                     NOTLIN = 1B                                                    426  LM00804
 04313 CLA +0 50000 0 01015    04314 STO +0 60100 0 00130
                     GETUSR.(RTU0,RTU1,ERR5)                                        427  LM00805
 04315 TSX +0 07400 4 00107    04316 TXH +3 00000 0 00241    04317 TXH +3 00000 0 00242    04320 TXH +3 00000 0 00221
      RTU0           NOTLIN = 0B                                                    428  LM00806
 04321 CLA +0 50000 0 01014    04322 STO +0 60100 0 00130
      RTU1           W'R COMBUF(M) .E. FENCE                                        429  LM00807
 04323 LXA +0 53400 1 00743    04324 CLA +0 50000 1 00324    04325 SUB +0 40200 0 00122    04326 TNZ -0 10000 0 04334
                       NONINT.                                                      430  LM00808
 04327 TSX +0 07400 4 00112
                       ATTACH.(M1416,CMFL02)                                        431  LM00809
 04330 TSX +0 07400 4 00002    04331 TXH +3 00000 0 00734    04332 TXH +3 00000 0 00277
                       T'O RTU2                                                     432  LM00810
 04333 TRA +0 02000 0 00243
                     E'L                                                            433  LM00811
                     TU = COMBUF(M)                                                 434  LM00812
 04334 LXA +0 53400 2 00743    04335 CLA +0 50000 2 00324    04336 STO +0 60100 0 00776
                     M = M+1                                                        435  LM00813
 04337 CLA +0 50000 0 00743    04340 ADD +0 40000 0 01015    04341 STO +0 60100 0 00743
                     W'R COMBUF(M) .NE. FENCE                                       436  LM00814
 04342 LXA +0 53400 1 00743    04343 CLA +0 50000 1 00324    04344 SUB +0 40200 0 00122    04345 TZE +0 10000 0 04354
                       TA = COMBUF(M)                                               437  LM00815
 04346 LXA +0 53400 2 00743    04347 CLA +0 50000 2 00324    04350 STO +0 60100 0 00771
                       M = M+1                                                      438  LM00816
 04351 CLA +0 50000 0 00743    04352 ADD +0 40000 0 01015    04353 STO +0 60100 0 00743
                     E'L                                                            439  LM00817
                     W'R COMBUF(M) .NE. FENCE, T'O ERR1                             440  LM00818
 04354 LXA +0 53400 1 00743    04355 CLA +0 50000 1 00324    04356 SUB +0 40200 0 00122    04357 TZE +0 10000 0 04361
 04360 TRA +0 02000 0 00215
      RTU2           STATUS = R                                                     441  LM00820
 04361 CLA +0 50000 0 00763    04362 STO +0 60100 0 00766
                     READTU.(PROB,PROG,1,RTU3)                                      442  LM00821
 04363 TSX +0 07400 4 00113    04364 TXH +3 00000 0 00117    04365 TXH +3 00000 0 00116    04366 TXH +3 00000 0 01015
 04367 TXH +3 00000 0 00244
                     NAME = TUCARD(25)                                              443  LM00822
 04370 CLA +0 50000 0 00135    04371 STO +0 60100 0 00744
                     FOUND = 1B                                                     444  LM00823
 04372 CLA +0 50000 0 01015    04373 STO +0 60100 0 00127
                     BFCLOS.(TU,TA,RTU3)                                            445  LM00824
 04374 TSX +0 07400 4 00006    04375 TXH +3 00000 0 00776    04376 TXH +3 00000 0 00771    04377 TXH +3 00000 0 00244
      RTU3           INT.                                                           446  LM00826
 04400 TSX +0 07400 4 00111
                     W'R NOTLIN .AND. .NOT.FOUND                                    447  LM00827
 04401 ZET +0 52000 0 00127    04402 TRA +0 02000 0 04415    04403 NZT -0 52000 0 00130    04404 TRA +0 02000 0 04415
                       PRFULL.($'1NEVER HEARD OF 'X$,PROB...2)                      448  LM00828
 04405 TSX +0 07400 4 00055    04406 TXH +3 00000 0 01075    04407 TXH +3 00000 0 01241    04410 TXH +3 00000 0 01136
 04411 TXH +3 00000 0 01367    04412 TIX +2 01016 0 00117
                       T'O OUT                                                      449  LM00829
 04413 TRA +0 02000 0 00231
                     O'R NOTLIN                                                     450  LM00830
 04414 TRA +0 02000 0 04545    04415 NZT -0 52000 0 00130    04416 TRA +0 02000 0 04451
                       T'H RTU4, FOR I = 1,1,I.G.5                                  451  LM00831
 04417 CLA +0 50000 0 01015    04420 STO +0 60100 0 00730    04421 TRA +0 02000 0 04425    04422 CLA +0 50000 0 00730
 04423 ADD +0 40000 0 01015    04424 STO +0 60100 0 00730    04425 CLA +0 50000 0 00730    04426 SUB +0 40200 0 01021
 04427 TZE +0 10000 0 04431    04430 TPL +0 12000 0 04450
                         ALTD(I) = 0                                                452  LM00832
 04431 LXA +0 53400 1 00730    04432 CLA +0 50000 0 01014    04433 STO +0 60100 1 00146
                         USED(I) = BCDEC.(TUCARD(10-I))*60                          453  LM00833
 04434 CLA +0 50000 0 01026    04435 SUB +0 40200 0 00730    04436 SUB +0 40200 0 04437    04437 TXH +3 00000 0 00166
 04440 STA +0 62100 0 04442    04441 TSX +0 07400 4 00004    04442 TXH +3 00000 0 00000    04443 XCA +0 13100 0 00000
 04444 MPY +0 20000 0 01040    04445 LXA +0 53400 1 00730    04446 STQ -0 60000 1 00140
      RTU4             C'E                                                          454  LM00834
 04447 TRA +0 02000 0 04422
                     O'E                                                            455  LM00835
 04450 TRA +0 02000 0 04545
                       TAULOC = COMMON.(TAU5)                                       456  LM00836
 04451 TSX +0 07400 4 00103    04452 TXH +3 00000 0 00773    04453 STO +0 60100 0 00124
                       T'H RTU5, FOR I = 4,-1,I.L.0                                 457  LM00837
 04454 CLA +0 50000 0 01020    04455 STO +0 60100 0 00730    04456 TRA +0 02000 0 04462    04457 CLS +0 50200 0 01015
 04460 ADD +0 40000 0 00730    04461 STO +0 60100 0 00730    04462 CLA +0 50000 0 00730    04463 SUB +0 40200 0 01014
 04464 TZE +0 10000 0 04466    04465 TMI -0 12000 0 04545
                         TAU = GLOC.(TAULOC+I*(N+1)+USR)                            458  LM00838
 04466 CLA +0 50000 0 00746    04467 ADD +0 40000 0 01015    04470 XCA +0 13100 0 00000    04471 MPY +0 20000 0 00730
 04472 XCA +0 13100 0 00000    04473 ADD +0 40000 0 00124    04474 ADD +0 40000 0 01004    04475 STO +0 60100 0 07733
 04476 TSX +0 07400 4 00037    04477 TXH +3 00000 0 07733    04500 STO +0 60100 0 00125
                         USED(5-I) = TAU.A.17777777K                                459  LM00839
 04501 CAL -0 50000 0 00125    04502 ANA -0 32000 0 01061    04503 SLW +0 60200 0 07733    04504 CLA +0 50000 0 01021
 04505 SUB +0 40200 0 00730    04506 PAX +0 73400 1 00000    04507 CLA +0 50000 0 07733    04510 STO +0 60100 1 00140
                         ALTD(5-I) = TAU.RS.14                                      460  LM00840
 04511 CAL -0 50000 0 01031    04512 STA +0 62100 0 04514    04513 CAL -0 50000 0 00125    04514 LGR -0 76500 0 00000
 04515 SLW +0 60200 0 07733    04516 CLA +0 50000 0 01021    04517 SUB +0 40200 0 00730    04520 PAX +0 73400 1 00000
 04521 CLA +0 50000 0 07733    04522 STO +0 60100 1 00146
                         W'R ALTD(5-I).NE.0, ALTD(5-I)=ALTD(5-I).V.377K             461  LM00841
 04523 CLA +0 50000 0 01021    04524 SUB +0 40200 0 00730    04525 PAX +0 73400 1 00000    04526 CLA +0 50000 1 00146
 04527 SUB +0 40200 0 01014    04530 TZE +0 10000 0 04544    04531 CLA +0 50000 0 01021    04532 SUB +0 40200 0 00730
 04533 PAX +0 73400 1 00000    04534 CAL -0 50000 1 00146    04535 ORA -0 50100 0 01047    04536 SLW +0 60200 0 07733
 04537 CLA +0 50000 0 01021    04540 SUB +0 40200 0 00730    04541 PAX +0 73400 1 00000    04542 CLA +0 50000 0 07733
 04543 STO +0 60100 1 00146
      RTU5               C'E                                                        462  LM00842
 04544 TRA +0 02000 0 04457
                     E'L                                                            463  LM00843
                     PRFULL.(X,NAME,X,PROB...2)                                     464  LM00844
 04545 TSX +0 07400 4 00055    04546 TXH +3 00000 0 01013    04547 TXH +3 00000 0 00744    04550 TXH +3 00000 0 01013
 04551 TIX +2 01016 0 00117
                     T'H RTU6, FOR I = 1,1,I.G.5                                    465  LM00845
 04552 CLA +0 50000 0 01015    04553 STO +0 60100 0 00730    04554 TRA +0 02000 0 04560    04555 CLA +0 50000 0 00730
 04556 ADD +0 40000 0 01015    04557 STO +0 60100 0 00730    04560 CLA +0 50000 0 00730    04561 SUB +0 40200 0 01021
 04562 TZE +0 10000 0 04564    04563 TPL +0 12000 0 04641
                     W'R ALTD(I).V.USED(I) .NE. 0                                   466  LM00846
 04564 LXA +0 53400 1 00730    04565 LXA +0 53400 2 00730    04566 CAL -0 50000 1 00146    04567 ORA -0 50100 2 00140
 04570 SLW +0 60200 0 07733    04571 CLA +0 50000 0 07733    04572 SUB +0 40200 0 01014    04573 TZE +0 10000 0 04640
                       SHFT = DEFBC.(I).LS.12.V.$0000  $                            467  LM00847
 04574 TSX +0 07400 4 00021    04575 TXH +3 00000 0 00730    04576 STO +0 60100 0 07733    04577 CAL -0 50000 0 01027
 04600 STA +0 62100 0 04602    04601 CAL -0 50000 0 07733    04602 ALS +0 76700 0 00000    04603 ORA -0 50100 0 01053
 04604 SLW +0 60200 0 00126
                       PRFULL.(BZEL.(SHFT),BZEL.(MINS.(ALTD(I))),                   468  LM00848
                1        BZEL.(MINS.(USED(I))))                                     468  LM00849
 04605 CLA +0 50000 0 00730    04606 SUB +0 40200 0 04607    04607 TXH +3 00000 0 00140    04610 STA +0 62100 0 04612
 04611 TSX +0 07400 4 00043    04612 TXH +3 00000 0 00000    04613 STO +0 60100 0 07733    04614 TSX +0 07400 4 00014
 04615 TXH +3 00000 0 07733    04616 STO +0 60100 0 07733    04617 CLA +0 50000 0 00730    04620 SUB +0 40200 0 04621
 04621 TXH +3 00000 0 00146    04622 STA +0 62100 0 04624    04623 TSX +0 07400 4 00043    04624 TXH +3 00000 0 00000
 04625 STO +0 60100 0 07732    04626 TSX +0 07400 4 00014    04627 TXH +3 00000 0 07732    04630 STO +0 60100 0 07732
 04631 TSX +0 07400 4 00014    04632 TXH +3 00000 0 00126    04633 STO +0 60100 0 07734    04634 TSX +0 07400 4 00055
 04635 TXH +3 00000 0 07734    04636 TXH +3 00000 0 07732    04637 TXH +3 00000 0 07733
                     E'L                                                            469  LM00850
      RTU6           C'E                                                            470  LM00851
 04640 TRA +0 02000 0 04555
                     W'R FOUND, PRFULL.($'1LAST LOGOUT 'X$,                         471  LM00852
                1  TUCARD(13).A.7777K8.V.$00/00$.V.(TUCARD(13).RS.6.A.7777K2),      471  LM00853
                2    TUCARD(12),$ FROM $,X,TUCARD(11),$.$)                          471  LM00854
 04641 NZT -0 52000 0 00127    04642 TRA +0 02000 0 04670    04643 CAL -0 50000 0 01022    04644 STA +0 62100 0 04646
 04645 CAL -0 50000 0 00151    04646 LGR -0 76500 0 00000    04647 ANA -0 32000 0 01057    04650 SLW +0 60200 0 07734
 04651 CAL -0 50000 0 00151    04652 ANA -0 32000 0 01400    04653 ORA -0 50100 0 01063    04654 ORA -0 50100 0 07734
 04655 SLW +0 60200 0 07734    04656 TSX +0 07400 4 00055    04657 TXH +3 00000 0 01073    04660 TXH +3 00000 0 01305
 04661 TXH +3 00000 0 01355    04662 TXH +3 00000 0 07734    04663 TXH +3 00000 0 00152    04664 TXH +3 00000 0 01272
 04665 TXH +3 00000 0 01013    04666 TXH +3 00000 0 00153    04667 TXH +3 00000 0 01164
                     W'R .NOT.NOTLIN, PRFULL.($'1NOW ON UNIT 'X$,                   472  LM00858
                1    GLOC.(COMMON.(UNITID)+USR),$ LINE $,BZ57.(DEFBC.(USR)))        472  LM00859
 04670 ZET +0 52000 0 00130    04671 TRA +0 02000 0 04716    04672 TSX +0 07400 4 00021    04673 TXH +3 00000 0 01004
 04674 STO +0 60100 0 07734    04675 TSX +0 07400 4 00013    04676 TXH +3 00000 0 07734    04677 STO +0 60100 0 07734
 04700 TSX +0 07400 4 00103    04701 TXH +3 00000 0 01000    04702 ADD +0 40000 0 01004    04703 STO +0 60100 0 07733
 04704 TSX +0 07400 4 00037    04705 TXH +3 00000 0 07733    04706 STO +0 60100 0 07733    04707 TSX +0 07400 4 00055
 04710 TXH +3 00000 0 01076    04711 TXH +3 00000 0 01221    04712 TXH +3 00000 0 01355    04713 TXH +3 00000 0 07733
 04714 TXH +3 00000 0 01304    04715 TXH +3 00000 0 07734
                   E'L                                                              473  LM00863
                 E'E (OUSED,USED(1)), (OALTD,ALTD(1))                               474  LM00883
                 E'E (NUSED,USED(2)), (NALTD,ALTD(2))                               475  LM00884
                 O'R COMBUF(M) .E. $SETTAU$                                         476  LM00886
 04716 TRA +0 02000 0 06504    04717 LXA +0 53400 1 00743    04720 CLA +0 50000 1 00324    04721 SUB +0 40200 0 01342
 04722 TNZ -0 10000 0 05247
                   M = M+1                                                          477  LM00887
 04723 CLA +0 50000 0 00743    04724 ADD +0 40000 0 01015    04725 STO +0 60100 0 00743
                   W'R COMBUF(M) .E. HELP                                           478  LM00888
 04726 LXA +0 53400 1 00743    04727 CLA +0 50000 1 00324    04730 SUB +0 40200 0 00727    04731 TNZ -0 10000 0 04745
                     PRFULL.(ADMIN...2,CURCOM.(0),$ 'LSHIFT ALTD USED USER$)        479  LM00889
 04732 TSX +0 07400 4 00104    04733 TXH +3 00000 0 01014    04734 STO +0 60100 0 07734    04735 TSX +0 07400 4 00055
 04736 TIX +2 01016 0 00264    04737 TXH +3 00000 0 07734    04740 TXH +3 00000 0 01254    04741 TXH +3 00000 0 01152
 04742 TXH +3 00000 0 01137    04743 TXH +3 00000 0 01335
                   O'E                                                              480  LM00890
 04744 TRA +0 02000 0 05246
                     SHFT = COMBUF(M)                                               481  LM00891
 04745 LXA +0 53400 2 00743    04746 CLA +0 50000 2 00324    04747 STO +0 60100 0 00126
                     ALTD = COMBUF(M+1)                                             482  LM00892
 04750 CLA +0 50000 0 00743    04751 ADD +0 40000 0 01015    04752 PAX +0 73400 2 00000    04753 CLA +0 50000 2 00324
 04754 STO +0 60100 0 00146
                     USED = COMBUF(M+2)                                             483  LM00893
 04755 CLA +0 50000 0 00743    04756 ADD +0 40000 0 01016    04757 PAX +0 73400 2 00000    04760 CLA +0 50000 2 00324
 04761 STO +0 60100 0 00140
                     M = M+3                                                        484  LM00894
 04762 CLA +0 50000 0 00743    04763 ADD +0 40000 0 01017    04764 STO +0 60100 0 00743
                     W'R SHFT.V.ALTD.V.USED .E. FENCE, T'O ERR2                     485  LM00895
 04765 CAL -0 50000 0 00126    04766 ORA -0 50100 0 00146    04767 ORA -0 50100 0 00140    04770 SLW +0 60200 0 07734
 04771 CLA +0 50000 0 07734    04772 SUB +0 40200 0 00122    04773 TNZ -0 10000 0 04775    04774 TRA +0 02000 0 00216
                     SHFT = BCDEC.(SHFT)                                            486  LM00896
 04775 TSX +0 07400 4 00004    04776 TXH +3 00000 0 00126    04777 STO +0 60100 0 00126
                     W'R SHFT.E.0 .OR. SHFT.G.5, T'O ERR0                           487  LM00897
 05000 CLA +0 50000 0 00126    05001 SUB +0 40200 0 01021    05002 TZE +0 10000 0 05004    05003 TPL +0 12000 0 05007
 05004 CLA +0 50000 0 00126    05005 SUB +0 40200 0 01014    05006 TNZ -0 10000 0 05010    05007 TRA +0 02000 0 00214
                     GETUSR.(SET0,ERR4,ERR5)                                        488  LM00898
 05010 TSX +0 07400 4 00107    05011 TXH +3 00000 0 00245    05012 TXH +3 00000 0 00220    05013 TXH +3 00000 0 00221
      SET0           TAULOC = COMMON.(TAU1) - (SHFT-1)*(N+1) + USR                  489  LM00899
 05014 CLA +0 50000 0 00746    05015 ADD +0 40000 0 01015    05016 STO +0 60100 0 07734    05017 CLA +0 50000 0 00126
 05020 SUB +0 40200 0 01015    05021 XCA +0 13100 0 00000    05022 MPY +0 20000 0 07734    05023 STQ -0 60000 0 07734
 05024 TSX +0 07400 4 00103    05025 TXH +3 00000 0 00772    05026 SUB +0 40200 0 07734    05027 ADD +0 40000 0 01004
 05030 STO +0 60100 0 00124
                     TAU = GLOC.(TAULOC)                                            490  LM00900
 05031 TSX +0 07400 4 00037    05032 TXH +3 00000 0 00124    05033 STO +0 60100 0 00125
                     OUSED = TAU.A.17777777K                                        491  LM00901
 05034 CAL -0 50000 0 00125    05035 ANA -0 32000 0 01061    05036 SLW +0 60200 0 00137
                     OALTD = TAU.RS.14.V.377K                                       492  LM00902
 05037 CAL -0 50000 0 01031    05040 STA +0 62100 0 05042    05041 CAL -0 50000 0 00125    05042 LGR -0 76500 0 00000
 05043 ORA -0 50100 0 01047    05044 SLW +0 60200 0 00145
                     W'R USED .E. STAR                                              493  LM00904
 05045 CLA +0 50000 0 00140    05046 SUB +0 40200 0 00765    05047 TNZ -0 10000 0 05053
                       NUSED = OUSED                                                494  LM00905
 05050 CLA +0 50000 0 00137    05051 STO +0 60100 0 00136
                     O'E                                                            495  LM00906
 05052 TRA +0 02000 0 05072
                       W'R ZEL.(USED).A.$$.NE.0, T'O ERR0                           496  LM00907
 05053 TSX +0 07400 4 00101    05054 TXH +3 00000 0 00140    05055 STO +0 60100 0 07734    05056 CAL -0 50000 0 07734
 05057 ANA -0 32000 0 01330    05060 SLW +0 60200 0 07734    05061 CLA +0 50000 0 07734    05062 SUB +0 40200 0 01014
 05063 TZE +0 10000 0 05065    05064 TRA +0 02000 0 00214
                       NUSED = BCDEC.(USED) * 3600                                  497  LM00908
 05065 TSX +0 07400 4 00004    05066 TXH +3 00000 0 00140    05067 XCA +0 13100 0 00000    05070 MPY +0 20000 0 01054
 05071 STQ -0 60000 0 00136
                     E'L                                                            498  LM00909
                     W'R ALTD .E. STAR                                              499  LM00911
 05072 CLA +0 50000 0 00146    05073 SUB +0 40200 0 00765    05074 TNZ -0 10000 0 05100
                       NALTD = OALTD                                                500  LM00912
 05075 CLA +0 50000 0 00145    05076 STO +0 60100 0 00144
                     O'E                                                            501  LM00913
 05077 TRA +0 02000 0 05117
                       W'R ZEL.(ALTD).A.$$ .NE. 0, T'O ERR0                         502  LM00914
 05100 TSX +0 07400 4 00101    05101 TXH +3 00000 0 00146    05102 STO +0 60100 0 07734    05103 CAL -0 50000 0 07734
 05104 ANA -0 32000 0 01330    05105 SLW +0 60200 0 07734    05106 CLA +0 50000 0 07734    05107 SUB +0 40200 0 01014
 05110 TZE +0 10000 0 05112    05111 TRA +0 02000 0 00214
                       NALTD = BCDEC.(ALTD) * 3600                                  503  LM00915
 05112 TSX +0 07400 4 00004    05113 TXH +3 00000 0 00146    05114 XCA +0 13100 0 00000    05115 MPY +0 20000 0 01054
 05116 STQ -0 60000 0 00144
                     E'L                                                            504  LM00916
                     PCTL.(3)                                                       505  LM00918
 05117 TSX +0 07400 4 00052    05120 TXH +3 00000 0 01017
                     PRFULL.(X,WHO(3)...M2,ON,WHO,$ SETTING '3TAU'X$,               506  LM00919
                1    BZ57.(DEFBC.(SHFT)),$ OF'X$,PROB...2,$ FROM $,                 506  LM00920
                2    BZ57.(DEFBC.(OALTD/3600)),BL,BZ57.(DEFBC.(OUSED/3600)),        506  LM00921
                3    $ TO '8$,BZ57.(DEFBC.(NALTD/3600)),BL,                         506  LM00922
                4    BZ57.(DEFBC.(NUSED/3600)),$.$)                                 506  LM00923
 05121 LDQ +0 56000 0 00136    05122 PXD -0 75400 0 00000    05123 LLS +0 76300 0 00000    05124 DVP +0 22100 0 01054
 05125 STQ -0 60000 0 07734    05126 TSX +0 07400 4 00021    05127 TXH +3 00000 0 07734    05130 STO +0 60100 0 07734
 05131 TSX +0 07400 4 00013    05132 TXH +3 00000 0 07734    05133 STO +0 60100 0 07734    05134 LDQ +0 56000 0 00144
 05135 PXD -0 75400 0 00000    05136 LLS +0 76300 0 00000    05137 DVP +0 22100 0 01054    05140 STQ -0 60000 0 07733
 05141 TSX +0 07400 4 00021    05142 TXH +3 00000 0 07733    05143 STO +0 60100 0 07733    05144 TSX +0 07400 4 00013
 05145 TXH +3 00000 0 07733    05146 STO +0 60100 0 07733    05147 LDQ +0 56000 0 00137    05150 PXD -0 75400 0 00000
 05151 LLS +0 76300 0 00000    05152 DVP +0 22100 0 01054    05153 STQ -0 60000 0 07732    05154 TSX +0 07400 4 00021
 05155 TXH +3 00000 0 07732    05156 STO +0 60100 0 07732    05157 TSX +0 07400 4 00013    05160 TXH +3 00000 0 07732
 05161 STO +0 60100 0 07732    05162 LDQ +0 56000 0 00145    05163 PXD -0 75400 0 00000    05164 LLS +0 76300 0 00000
 05165 DVP +0 22100 0 01054    05166 STQ -0 60000 0 07735    05167 TSX +0 07400 4 00021    05170 TXH +3 00000 0 07735
 05171 STO +0 60100 0 07735    05172 TSX +0 07400 4 00013    05173 TXH +3 00000 0 07735    05174 STO +0 60100 0 07735
 05175 TSX +0 07400 4 00021    05176 TXH +3 00000 0 00126    05177 STO +0 60100 0 07736    05200 TSX +0 07400 4 00013
 05201 TXH +3 00000 0 07736    05202 STO +0 60100 0 07736    05203 TSX +0 07400 4 00055    05204 TXH +3 00000 0 01013
 05205 TIX +2 00736 0 01005    05206 TXH +3 00000 0 00750    05207 TXH +3 00000 0 01010    05210 TXH +3 00000 0 01332
 05211 TXH +3 00000 0 01207    05212 TXH +3 00000 0 01125    05213 TXH +3 00000 0 07736    05214 TXH +3 00000 0 01313
 05215 TIX +2 01016 0 00117    05216 TXH +3 00000 0 01272    05217 TXH +3 00000 0 07735    05220 TXH +3 00000 0 00276
 05221 TXH +3 00000 0 07732    05222 TXH +3 00000 0 01333    05223 TXH +3 00000 0 07733    05224 TXH +3 00000 0 00276
 05225 TXH +3 00000 0 07734    05226 TXH +3 00000 0 01164
                       PCTL.(1)                                                     507  LM00924
 05227 TSX +0 07400 4 00052    05230 TXH +3 00000 0 01015
                     SLOC.(NALTD.LS.14.A.77776K7.V.NUSED.A.17777777K,TAULOC)        508  LM00929
 05231 CAL -0 50000 0 00136    05232 ANA -0 32000 0 01061    05233 SLW +0 60200 0 07736    05234 CAL -0 50000 0 01031
 05235 STA +0 62100 0 05237    05236 CAL -0 50000 0 00144    05237 ALS +0 76700 0 00000    05240 ANA -0 32000 0 01401
 05241 ORA -0 50100 0 07736    05242 SLW +0 60200 0 07736    05243 TSX +0 07400 4 00072    05244 TXH +3 00000 0 07736
 05245 TXH +3 00000 0 00124
                   E'L                                                              509  LM00931
                 E'E (OLDM,T0)                                                      510  LM00949
                 O'R COMBUF(M) .E. $   SPY$                                         511  LM00951
 05246 TRA +0 02000 0 06504    05247 LXA +0 53400 1 00743    05250 CLA +0 50000 1 00324    05251 SUB +0 40200 0 01331
 05252 TNZ -0 10000 0 05373
                   M = M+1                                                          512  LM00952
 05253 CLA +0 50000 0 00743    05254 ADD +0 40000 0 01015    05255 STO +0 60100 0 00743
                   W'R COMBUF(M) .E. HELP                                           513  LM00953
 05256 LXA +0 53400 1 00743    05257 CLA +0 50000 1 00324    05260 SUB +0 40200 0 00727    05261 TNZ -0 10000 0 05267
                     PRFULL.($'UADMIN SPY 'LUSER$)                                  514  LM00954
 05262 TSX +0 07400 4 00055    05263 TXH +3 00000 0 01117    05264 TXH +3 00000 0 01213    05265 TXH +3 00000 0 01105
                   O'E                                                              515  LM00955
 05266 TRA +0 02000 0 05372
                     OLDM = M                                                       516  LM00956
 05267 CLA +0 50000 0 00743    05270 STO +0 60100 0 00132
      SPY1           GETUSR.(ERR3,SPY3,ERR5)                                        517  LM00957
 05271 TSX +0 07400 4 00107    05272 TXH +3 00000 0 00217    05273 TXH +3 00000 0 00250    05274 TXH +3 00000 0 00221
                     PRFULL.($'1USER FOUND:'X$,PROB...2,$ LINE $,                   518  LM00958
                1    BZ57.(DEFBC.(USR)))                                            518  LM00959
 05275 TSX +0 07400 4 00021    05276 TXH +3 00000 0 01004    05277 STO +0 60100 0 07736    05300 TSX +0 07400 4 00013
 05301 TXH +3 00000 0 07736    05302 STO +0 60100 0 07736    05303 TSX +0 07400 4 00055    05304 TXH +3 00000 0 01077
 05305 TXH +3 00000 0 01271    05306 TXH +3 00000 0 01165    05307 TIX +2 01016 0 00117    05310 TXH +3 00000 0 01304
 05311 TXH +3 00000 0 07736
                     ADOPT = COMMON.(ADOPT)                                         519  LM00960
 05312 TSX +0 07400 4 00103    05313 TXH +3 00000 0 00265    05314 STO +0 60100 0 00265
                     SLOC.(3K5.V.USR,ADOPT+USER)                                    520  LM00961
 05315 CLA +0 50000 0 00265    05316 ADD +0 40000 0 01002    05317 STO +0 60100 0 07736    05320 CAL -0 50000 0 01056
 05321 ORA -0 50100 0 01004    05322 SLW +0 60200 0 07735    05323 TSX +0 07400 4 00072    05324 TXH +3 00000 0 07735
 05325 TXH +3 00000 0 07736
                     SLOC.(GLOC.(ADOPT+USR).V.7000003K5,ADOPT+USR)                  521  LM00962
 05326 CLA +0 50000 0 00265    05327 ADD +0 40000 0 01004    05330 STO +0 60100 0 07736    05331 CLA +0 50000 0 00265
 05332 ADD +0 40000 0 01004    05333 STO +0 60100 0 07735    05334 TSX +0 07400 4 00037    05335 TXH +3 00000 0 07735
 05336 STO +0 60100 0 07735    05337 CAL -0 50000 0 07735    05340 ORA -0 50100 0 01370    05341 SLW +0 60200 0 07735
 05342 TSX +0 07400 4 00072    05343 TXH +3 00000 0 07735    05344 TXH +3 00000 0 07736
      SPY2           SNOOZE.(1800,SLPCMD(2))                                        522  LM00963
 05345 TSX +0 07400 4 00073    05346 TXH +3 00000 0 01052    05347 TXH +3 00000 0 00120
                     T'O SPY2                                                       523  LM00965
 05350 TRA +0 02000 0 00247
      SPY3           GETTM.(DATE,TIME)                                              524  LM00967
 05351 TSX +0 07400 4 00036    05352 TXH +3 00000 0 00326    05353 TXH +3 00000 0 00774
                     PRFULL.(X,PROB...2,$ IS NOT LOGGED IN - 'X$,TIME)              525  LM00968
 05354 TSX +0 07400 4 00055    05355 TXH +3 00000 0 01013    05356 TIX +2 01016 0 00117    05357 TXH +3 00000 0 01300
 05360 TXH +3 00000 0 01357    05361 TXH +3 00000 0 01143    05362 TXH +3 00000 0 01166    05363 TXH +3 00000 0 00774
                     SNOOZE.(15,SLPCMD(2))                                          526  LM00969
 05364 TSX +0 07400 4 00073    05365 TXH +3 00000 0 01032    05366 TXH +3 00000 0 00120
                     M = OLDM                                                       527  LM00970
 05367 CLA +0 50000 0 00132    05370 STO +0 60100 0 00743
                     T'O SPY1                                                       528  LM00971
 05371 TRA +0 02000 0 00246
                   E'L                                                              529  LM00972
                 E'E (T0,N1), (T1,N2), (T2,NSTICK), (T3,STICKY)                     530  LM00992
                 E'E (TUCARD(8),LENGTH), (TUCARD(5),DEV), (TUCARD(27),BUFF)         531  LM00993
                 D'N BUFF(0)                                                        532  LM00994
                 O'R COMBUF(M) .E. $SQZUFD$                                         533  LM00996
 05372 TRA +0 02000 0 06504    05373 LXA +0 53400 1 00743    05374 CLA +0 50000 1 00324    05375 SUB +0 40200 0 01343
 05376 TNZ -0 10000 0 06063
                   M = M+1                                                          534  LM00997
 05377 CLA +0 50000 0 00743    05400 ADD +0 40000 0 01015    05401 STO +0 60100 0 00743
                   W'R COMBUF(M) .E. HELP                                           535  LM00998
 05402 LXA +0 53400 1 00743    05403 CLA +0 50000 1 00324    05404 SUB +0 40200 0 00727    05405 TNZ -0 10000 0 05411
                     PRFULL.(FMT5...100)                                            536  LM00999
 05406 TSX +0 07400 4 00055    05407 TIX +2 01046 0 00724
                     V'S FMT5 = $ 'UADMIN SQZUFD 'LUSER1 USER2 ... $,               537  LM01000
                1  $'*  USER MAY BE FOLLOWED BY '='4(DISK)'= OR '='4(DRUM)'=$,      537  LM01001
                2  $'*  TO INDICATE WHERE THE FINAL UFD IS TO RESIDE.$,             537  LM01002
                3  777777777777K                                                    537  LM01003
 00673     -3 77777 7 77777    00674     +3 36060 6 06060    00675     -1 12562 3 12425    00676     +3 16260 6 34660
 00677     -0 36064 2 62460    00700     +2 56026 3 14521    00701     +2 55125 6 06330    00702     +2 16325 6 06630
 00703     -2 03145 2 43123    00704     +1 45460 6 06346    00705     +1 41360 6 06060    00706     -3 42451 6 44434
 00707     -1 16014 1 31404    00710     -0 23414 1 36046    00711     +1 40474 2 43162    00712     -2 02270 6 01413
 00713     -0 34346 6 62524    00714     -2 02225 6 02646    00715     +2 55160 4 42170    00716     +1 45460 6 06462
 00717     +3 33333 6 06060    00720     -2 46225 5 10260    00721     -2 46225 5 10160    00722     -2 42624 6 01443
 00723     +3 14560 6 25071    00724     -2 01464 2 12444
                   O'E                                                              538  LM01004
 05410 TRA +0 02000 0 06062
                     GETBUF.(B1,432)                                                539  LM01005
 05411 TSX +0 07400 4 00035    05412 TXH +3 00000 0 00267    05413 TXH +3 00000 0 01050
                     GETBUF.(B2,432)                                                540  LM01006
 05414 TSX +0 07400 4 00035    05415 TXH +3 00000 0 00270    05416 TXH +3 00000 0 01050
                     GETBUF.(B3,432)                                                541  LM01007
 05417 TSX +0 07400 4 00035    05420 TXH +3 00000 0 00271    05421 TXH +3 00000 0 01050
                     GETBUF.(B4,432)                                                542  LM01008
 05422 TSX +0 07400 4 00035    05423 TXH +3 00000 0 00272    05424 TXH +3 00000 0 01050
                     GETBUF.(B5,432)                                                543  LM01009
 05425 TSX +0 07400 4 00035    05426 TXH +3 00000 0 00273    05427 TXH +3 00000 0 01050
                     FSTST = ENTRY.(FSTST)                                          544  LM01010
 05430 TSX +0 07400 4 00105    05431 TXH +3 00000 0 00726    05432 STO +0 60100 0 00726
                     NSTICK = ENTRY.(SAVING) + 1                                    545  LM01011
 05433 TSX +0 07400 4 00105    05434 TXH +3 00000 0 00764    05435 ADD +0 40000 0 01015    05436 STO +0 60100 0 00130
                     STICKY = NSTICK + 6                                            546  LM01012
 05437 CLA +0 50000 0 00130    05440 ADD +0 40000 0 01022    05441 STO +0 60100 0 00127
                     NSTICK = GLOC.(NSTICK)*13                                      547  LM01013
 05442 TSX +0 07400 4 00037    05443 TXH +3 00000 0 00130    05444 XCA +0 13100 0 00000    05445 MPY +0 20000 0 01030
 05446 STQ -0 60000 0 00130
                     ATTACH.(MFD,FILE)                                              548  LM01014
 05447 TSX +0 07400 4 00002    05450 TXH +3 00000 0 00742    05451 TXH +3 00000 0 00327
                     FERRTN.(SQZERR)                                                549  LM01015
 05452 TSX +0 07400 4 00031    05453 TXH +3 00000 0 00256
      SQZ1           GETUSR.(ERR3,SQZ2,ERR5)                                        550  LM01017
 05454 TSX +0 07400 4 00107    05455 TXH +3 00000 0 00217    05456 TXH +3 00000 0 00252    05457 TXH +3 00000 0 00221
      SQZ2           NONINT.                                                        551  LM01018
 05460 TSX +0 07400 4 00112
                     FSTATE.(PROB,PROG,LENGTH...8,NOUFD)                            552  LM01019
 05461 TSX +0 07400 4 00032    05462 TXH +3 00000 0 00117    05463 TXH +3 00000 0 00116    05464 TIX +2 01024 0 00156
 05465 TXH +3 00000 0 00230
                     T'O SQZUFD                                                     553  LM01020
 05466 TRA +0 02000 0 00260
      NOUFD          PRFULL.($'R'X$,PROB...2,$ NOT FOUND.'B$)                       554  LM01021
 05467 TSX +0 07400 4 00055    05470 TXH +3 00000 0 01115    05471 TIX +2 01016 0 00117    05472 TXH +3 00000 0 01311
 05473 TXH +3 00000 0 01225    05474 TXH +3 00000 0 01126
                     T'O SQZOUT                                                     555  LM01022
 05475 TRA +0 02000 0 00257
      SQZUFD         W'R COMBUF(M) .E. $(DRUM)$                                     556  LM01024
 05476 LXA +0 53400 1 00743    05477 CLA +0 50000 1 00324    05500 SUB +0 40200 0 01375    05501 TNZ -0 10000 0 05510
                       DEV = 1                                                      557  LM01025
 05502 CLA +0 50000 0 01015    05503 STO +0 60100 0 00161
                       M = M+1                                                      558  LM01026
 05504 CLA +0 50000 0 00743    05505 ADD +0 40000 0 01015    05506 STO +0 60100 0 00743
                     O'R COMBUF(M) .E. $(DISK)$                                     559  LM01027
 05507 TRA +0 02000 0 05521    05510 LXA +0 53400 1 00743    05511 CLA +0 50000 1 00324    05512 SUB +0 40200 0 01373
 05513 TNZ -0 10000 0 05521
                       DEV = 2                                                      560  LM01028
 05514 CLA +0 50000 0 01016    05515 STO +0 60100 0 00161
                       M = M+1                                                      561  LM01029
 05516 CLA +0 50000 0 00743    05517 ADD +0 40000 0 01015    05520 STO +0 60100 0 00743
                     E'L                                                            562  LM01030
                     T'H SQZ3, FOR I = 0,13,I.G.NSTICK                              563  LM01031
 05521 CLA +0 50000 0 01014    05522 STO +0 60100 0 00730    05523 TRA +0 02000 0 05527    05524 CLA +0 50000 0 00730
 05525 ADD +0 40000 0 01030    05526 STO +0 60100 0 00730    05527 CLA +0 50000 0 00730    05530 SUB +0 40200 0 00130
 05531 TZE +0 10000 0 05533    05532 TPL +0 12000 0 05573
                       N1 = GLOC.(STICKY+I)                                         564  LM01032
 05533 CLA +0 50000 0 00127    05534 ADD +0 40000 0 00730    05535 STO +0 60100 0 07736    05536 TSX +0 07400 4 00037
 05537 TXH +3 00000 0 07736    05540 STO +0 60100 0 00132
                       N2 = GLOC.(STICKY+I+1)                                       565  LM01033
 05541 CLA +0 50000 0 00127    05542 ADD +0 40000 0 00730    05543 ADD +0 40000 0 01015    05544 STO +0 60100 0 07736
 05545 TSX +0 07400 4 00037    05546 TXH +3 00000 0 07736    05547 STO +0 60100 0 00131
                       W'R N1 .E. PROB .AND. N2 .E. PROG                            566  LM01034
 05550 CLA +0 50000 0 00131    05551 SUB +0 40200 0 00116    05552 TNZ -0 10000 0 05572    05553 CLA +0 50000 0 00132
 05554 SUB +0 40200 0 00117    05555 TNZ -0 10000 0 05572
                         INT.                                                       567  LM01035
 05556 TSX +0 07400 4 00111
                         PRFULL.(RED,X,PROB...2,                                    568  LM01036
                1        $ HAS INFORMATION IN THE STICKIES.'B$)                     568  LM01037
 05557 TSX +0 07400 4 00055    05560 TXH +3 00000 0 00756    05561 TXH +3 00000 0 01013    05562 TIX +2 01016 0 00117
 05563 TXH +3 00000 0 01274    05564 TXH +3 00000 0 01205    05565 TXH +3 00000 0 01354    05566 TXH +3 00000 0 01214
 05567 TXH +3 00000 0 01346    05570 TXH +3 00000 0 01147
                         T'O SQZOUT                                                 569  LM01038
 05571 TRA +0 02000 0 00257
                       E'L                                                          570  LM01039
      SQZ3           C'E                                                            571  LM01040
 05572 TRA +0 02000 0 05524
                     SLOC.(FENCE,FSTST)                                             572  LM01041
 05573 TSX +0 07400 4 00072    05574 TXH +3 00000 0 00122    05575 TXH +3 00000 0 00726
                     ALLOT.(2,32767)                                                573  LM01046
 05576 TSX +0 07400 4 00001    05577 TXH +3 00000 0 01016    05600 TXH +3 00000 0 01055
                     ALLOT.(1,32767)                                                574  LM01047
 05601 TSX +0 07400 4 00001    05602 TXH +3 00000 0 01015    05603 TXH +3 00000 0 01055
                     BFOPEN.(R,PROB,PROG,B1(B1+432),B2(B2+432),M0,SQZERR)           575  LM01048
 05604 CLA +0 50000 0 00270    05605 ADD +0 40000 0 01050    05606 SUB +0 40200 0 05607    05607 TXH +3 00000 0 00270
 05610 STA +0 62100 0 05623    05611 CLA +0 50000 0 00267    05612 ADD +0 40000 0 01050    05613 SUB +0 40200 0 05614
 05614 TXH +3 00000 0 00267    05615 STA +0 62100 0 05622    05616 TSX +0 07400 4 00007    05617 TXH +3 00000 0 00763
 05620 TXH +3 00000 0 00117    05621 TXH +3 00000 0 00116    05622 TXH +3 00000 0 00000    05623 TXH +3 00000 0 00000
 05624 TXH +3 00000 0 00733    05625 TXH +3 00000 0 00256
                     CHFILE.(PROG,PROB,1,M0,M0,NULL.)                               576  LM01049
 05626 TSX +0 07400 4 00015    05627 TXH +3 00000 0 00116    05630 TXH +3 00000 0 00117    05631 TXH +3 00000 0 01015
 05632 TXH +3 00000 0 00733    05633 TXH +3 00000 0 00733    05634 TXH +3 00000 0 00045
                     DELFIL.(PROG,PROB,NULL.)                                       577  LM01050
 05635 TSX +0 07400 4 00023    05636 TXH +3 00000 0 00116    05637 TXH +3 00000 0 00117    05640 TXH +3 00000 0 00045
                     BFOPEN.(W,PROG,PROB,B3(B3+432),B4(B4+432),B5(B5+432),          578  LM01051
                1    SQZERR)                                                        578  LM01052
 05641 CLA +0 50000 0 00273    05642 ADD +0 40000 0 01050    05643 SUB +0 40200 0 05644    05644 TXH +3 00000 0 00273
 05645 STA +0 62100 0 05666    05646 CLA +0 50000 0 00272    05647 ADD +0 40000 0 01050    05650 SUB +0 40200 0 05651
 05651 TXH +3 00000 0 00272    05652 STA +0 62100 0 05665    05653 CLA +0 50000 0 00271    05654 ADD +0 40000 0 01050
 05655 SUB +0 40200 0 05656    05656 TXH +3 00000 0 00271    05657 STA +0 62100 0 05664    05660 TSX +0 07400 4 00007
 05661 TXH +3 00000 0 01012    05662 TXH +3 00000 0 00116    05663 TXH +3 00000 0 00117    05664 TXH +3 00000 0 00000
 05665 TXH +3 00000 0 00000    05666 TXH +3 00000 0 00000    05667 TXH +3 00000 0 00256
                     BFREAD.(PROB,PROG,BUFF...3,SQZEOF,M0,SQZERR)                   579  LM01053
 05670 TSX +0 07400 4 00010    05671 TXH +3 00000 0 00117    05672 TXH +3 00000 0 00116    05673 TIX +2 01017 0 00133
 05674 TXH +3 00000 0 00255    05675 TXH +3 00000 0 00733    05676 TXH +3 00000 0 00256
                     BFWRIT.(PROG,PROB,BUFF...3,SQZERR)                             580  LM01054
 05677 TSX +0 07400 4 00011    05700 TXH +3 00000 0 00116    05701 TXH +3 00000 0 00117    05702 TIX +2 01017 0 00133
 05703 TXH +3 00000 0 00256
      SQZ5           BFREAD.(PROB,PROG,BUFF...7,SQZEOF,M0,SQZERR)                   581  LM01055
 05704 TSX +0 07400 4 00010    05705 TXH +3 00000 0 00117    05706 TXH +3 00000 0 00116    05707 TIX +2 01023 0 00133
 05710 TXH +3 00000 0 00255    05711 TXH +3 00000 0 00733    05712 TXH +3 00000 0 00256
                     W'R BUFF.V.BUFF(M1).NE.0,                                      582  LM01056
                1      BFWRIT.(PROG,PROB,BUFF...7,SQZERR)                           582  LM01057
 05713 LXA +0 53400 2 00735    05714 CAL -0 50000 0 00133    05715 ORA -0 50100 2 00133    05716 SLW +0 60200 0 07736
 05717 CLA +0 50000 0 07736    05720 SUB +0 40200 0 01014    05721 TZE +0 10000 0 05727    05722 TSX +0 07400 4 00011
 05723 TXH +3 00000 0 00116    05724 TXH +3 00000 0 00117    05725 TIX +2 01023 0 00133    05726 TXH +3 00000 0 00256
                     T'O SQZ5                                                       583  LM01058
 05727 TRA +0 02000 0 00253
      SQZEOF         BFCLOS.(PROB,PROG,SQZERR)                                      584  LM01060
 05730 TSX +0 07400 4 00006    05731 TXH +3 00000 0 00117    05732 TXH +3 00000 0 00116    05733 TXH +3 00000 0 00256
                     BFCLOS.(PROG,PROB,SQZERR)                                      585  LM01061
 05734 TSX +0 07400 4 00006    05735 TXH +3 00000 0 00116    05736 TXH +3 00000 0 00117    05737 TXH +3 00000 0 00256
      SQZ6           CHFILE.(PROB,PROG,1)                                           586  LM01062
 05740 TSX +0 07400 4 00015    05741 TXH +3 00000 0 00117    05742 TXH +3 00000 0 00116    05743 TXH +3 00000 0 01015
                     DELFIL.(PROB,PROG)                                             587  LM01063
 05744 TSX +0 07400 4 00023    05745 TXH +3 00000 0 00117    05746 TXH +3 00000 0 00116
                     CHFILE.(PROG,PROB,104K,PROB,PROG)                              588  LM01064
 05747 TSX +0 07400 4 00015    05750 TXH +3 00000 0 00116    05751 TXH +3 00000 0 00117    05752 TXH +3 00000 0 01043
 05753 TXH +3 00000 0 00117    05754 TXH +3 00000 0 00116
                     W'R DEV .E. 1                                                  589  LM01069
 05755 CLA +0 50000 0 00161    05756 SUB +0 40200 0 01015    05757 TNZ -0 10000 0 06045
                     DEV = 2                                                        590  LM01070
 05760 CLA +0 50000 0 01016    05761 STO +0 60100 0 00161
                     OPEN.(R,PROB,PROG)                                             591  LM01071
 05762 TSX +0 07400 4 00051    05763 TXH +3 00000 0 00763    05764 TXH +3 00000 0 00117    05765 TXH +3 00000 0 00116
                     OPEN.(W,PROG,PROB,0,1)                                         592  LM01072
 05766 TSX +0 07400 4 00051    05767 TXH +3 00000 0 01012    05770 TXH +3 00000 0 00116    05771 TXH +3 00000 0 00117
 05772 TXH +3 00000 0 01014    05773 TXH +3 00000 0 01015
                     BUFFER.(PROG,PROB,B4(B4+432)...432)                            593  LM01073
 05774 CLA +0 50000 0 00272    05775 ADD +0 40000 0 01050    05776 SUB +0 40200 0 05777    05777 TXH +3 00000 0 00272
 06000 STA +0 62100 0 06004    06001 TSX +0 07400 4 00012    06002 TXH +3 00000 0 00116    06003 TXH +3 00000 0 00117
 06004 TIX +2 01050 0 00000
                     COPY.(PROB,PROG,PROG,PROB,B1(B1+432),B2(B2+432),               594  LM01074
                1    B3(B3+432),432,SQZERR)                                         594  LM01075
 06005 CLA +0 50000 0 00271    06006 ADD +0 40000 0 01050    06007 SUB +0 40200 0 06010    06010 TXH +3 00000 0 00271
 06011 STA +0 62100 0 06033    06012 CLA +0 50000 0 00270    06013 ADD +0 40000 0 01050    06014 SUB +0 40200 0 06015
 06015 TXH +3 00000 0 00270    06016 STA +0 62100 0 06032    06017 CLA +0 50000 0 00267    06020 ADD +0 40000 0 01050
 06021 SUB +0 40200 0 06022    06022 TXH +3 00000 0 00267    06023 STA +0 62100 0 06031    06024 TSX +0 07400 4 00020
 06025 TXH +3 00000 0 00117    06026 TXH +3 00000 0 00116    06027 TXH +3 00000 0 00116    06030 TXH +3 00000 0 00117
 06031 TXH +3 00000 0 00000    06032 TXH +3 00000 0 00000    06033 TXH +3 00000 0 00000    06034 TXH +3 00000 0 01050
 06035 TXH +3 00000 0 00256
                     CLOSE.(PROB,PROG)                                              595  LM01076
 06036 TSX +0 07400 4 00016    06037 TXH +3 00000 0 00117    06040 TXH +3 00000 0 00116
                     CLOSE.(PROG,PROB)                                              596  LM01077
 06041 TSX +0 07400 4 00016    06042 TXH +3 00000 0 00116    06043 TXH +3 00000 0 00117
                     T'O SQZ6                                                       597  LM01078
 06044 TRA +0 02000 0 00254
                     E'L                                                            598  LM01079
      SQZOUT         RESETF.                                                        599  LM01081
 06045 TSX +0 07400 4 00062
                     SLOC.(0,FSTST)                                                 600  LM01082
 06046 TSX +0 07400 4 00072    06047 TXH +3 00000 0 01014    06050 TXH +3 00000 0 00726
                     INT.                                                           601  LM01083
 06051 TSX +0 07400 4 00111
                     W'R COMBUF(M).NE. FENCE, T'O SQZ1                              602  LM01084
 06052 LXA +0 53400 1 00743    06053 CLA +0 50000 1 00324    06054 SUB +0 40200 0 00122    06055 TZE +0 10000 0 06057
 06056 TRA +0 02000 0 00251
                     T'O OUT                                                        603  LM01085
 06057 TRA +0 02000 0 00231
      SQZERR         PRDIAG.                                                        604  LM01087
 06060 TSX +0 07400 4 00053
                     T'O SQZOUT                                                     605  LM01088
 06061 TRA +0 02000 0 00257
                   E'L                                                              606  LM01089
                 O'R COMBUF(M) .E. $UPATCH$                                         607  LM01109
 06062 TRA +0 02000 0 06504    06063 LXA +0 53400 1 00743    06064 CLA +0 50000 1 00324    06065 SUB +0 40200 0 01361
 06066 TNZ -0 10000 0 06116
                   M = M+1                                                          608  LM01110
 06067 CLA +0 50000 0 00743    06070 ADD +0 40000 0 01015    06071 STO +0 60100 0 00743
                   W'R COMBUF(M) .E. HELP                                           609  LM01111
 06072 LXA +0 53400 1 00743    06073 CLA +0 50000 1 00324    06074 SUB +0 40200 0 00727    06075 TNZ -0 10000 0 06110
                     PRFULL.(ADMIN...2,CURCOM.(0),$ 'LLOC LHALF RHALF$)             610  LM01112
 06076 TSX +0 07400 4 00104    06077 TXH +3 00000 0 01014    06100 STO +0 60100 0 07736    06101 TSX +0 07400 4 00055
 06102 TIX +2 01016 0 00264    06103 TXH +3 00000 0 07736    06104 TXH +3 00000 0 01252    06105 TXH +3 00000 0 01303
 06106 TXH +3 00000 0 01316
                   O'E                                                              611  LM01113
 06107 TRA +0 02000 0 06115
                     UPATSW = 1B                                                    612  LM01114
 06110 CLA +0 50000 0 01015    06111 STO +0 60100 0 00132
                     PATMES(1) = $(USER)$                                           613  LM01115
 06112 CLA +0 50000 0 01377    06113 STO +0 60100 0 00165
                     T'O PAT1                                                       614  LM01116
 06114 TRA +0 02000 0 00232
                   E'L                                                              615  LM01117
                 O'R COMBUF(M) .E. $UPDATE$                                         616  LM01143
 06115 TRA +0 02000 0 06504    06116 LXA +0 53400 1 00743    06117 CLA +0 50000 1 00324    06120 SUB +0 40200 0 01362
 06121 TNZ -0 10000 0 06424
                   M = M+1                                                          617  LM01144
 06122 CLA +0 50000 0 00743    06123 ADD +0 40000 0 01015    06124 STO +0 60100 0 00743
                   W'R COMBUF(M) .E. HELP                                           618  LM01145
 06125 LXA +0 53400 1 00743    06126 CLA +0 50000 1 00324    06127 SUB +0 40200 0 00727    06130 TNZ -0 10000 0 06143
                     PRFULL.(ADMIN...2,CURCOM.(0),$ N1 -N2- -N3- -N4-$)             619  LM01146
 06131 TSX +0 07400 4 00104    06132 TXH +3 00000 0 01014    06133 STO +0 60100 0 07736    06134 TSX +0 07400 4 00055
 06135 TIX +2 01016 0 00264    06136 TXH +3 00000 0 07736    06137 TXH +3 00000 0 01310    06140 TXH +3 00000 0 01065
 06141 TXH +3 00000 0 01167
                   O'E                                                              620  LM01147
 06142 TRA +0 02000 0 06423
                     N1 = COMBUF(M)                                                 621  LM01148
 06143 LXA +0 53400 2 00743    06144 CLA +0 50000 2 00324    06145 STO +0 60100 0 00132
                     N2 = COMBUF(M+1)                                               622  LM01149
 06146 CLA +0 50000 0 00743    06147 ADD +0 40000 0 01015    06150 PAX +0 73400 2 00000    06151 CLA +0 50000 2 00324
 06152 STO +0 60100 0 00131
                     N3 = COMBUF(M+2)                                               623  LM01150
 06153 CLA +0 50000 0 00743    06154 ADD +0 40000 0 01016    06155 PAX +0 73400 2 00000    06156 CLA +0 50000 2 00324
 06157 STO +0 60100 0 00130
                     N4 = COMBUF(M+3)                                               624  LM01151
 06160 CLA +0 50000 0 00743    06161 ADD +0 40000 0 01017    06162 PAX +0 73400 2 00000    06163 CLA +0 50000 2 00324
 06164 STO +0 60100 0 00127
                     W'R N2 .E. FENCE                                               625  LM01152
 06165 CLA +0 50000 0 00131    06166 SUB +0 40200 0 00122    06167 TNZ -0 10000 0 06177
                       N2 = TA                                                      626  LM01153
 06170 CLA +0 50000 0 00771    06171 STO +0 60100 0 00131
                       N3 = N1                                                      627  LM01154
 06172 CLA +0 50000 0 00132    06173 STO +0 60100 0 00130
                       N4 = N2                                                      628  LM01155
 06174 CLA +0 50000 0 00131    06175 STO +0 60100 0 00127
                     O'R N3 .E. FENCE                                               629  LM01156
 06176 TRA +0 02000 0 06234    06177 CLA +0 50000 0 00130    06200 SUB +0 40200 0 00122    06201 TNZ -0 10000 0 06207
                       N3 = N1                                                      630  LM01157
 06202 CLA +0 50000 0 00132    06203 STO +0 60100 0 00130
                       N4 = N2                                                      631  LM01158
 06204 CLA +0 50000 0 00131    06205 STO +0 60100 0 00127
                     O'R N4 .E. FENCE                                               632  LM01159
 06206 TRA +0 02000 0 06234    06207 CLA +0 50000 0 00127    06210 SUB +0 40200 0 00122    06211 TNZ -0 10000 0 06215
                       N4 = N2                                                      633  LM01160
 06212 CLA +0 50000 0 00131    06213 STO +0 60100 0 00127
                     O'R N1 .E. FENCE                                               634  LM01161
 06214 TRA +0 02000 0 06234    06215 CLA +0 50000 0 00132    06216 SUB +0 40200 0 00122    06217 TNZ -0 10000 0 06222
                       T'O ERR2                                                     635  LM01162
 06220 TRA +0 02000 0 00216
                     O'R COMBUF(M+4).NE.FENCE                                       636  LM01163
 06221 TRA +0 02000 0 06234    06222 CLA +0 50000 0 00743    06223 ADD +0 40000 0 01020    06224 PAX +0 73400 1 00000
 06225 CLA +0 50000 1 00324    06226 SUB +0 40200 0 00122    06227 TZE +0 10000 0 06234
                       M = M+4                                                      637  LM01164
 06230 CLA +0 50000 0 00743    06231 ADD +0 40000 0 01020    06232 STO +0 60100 0 00743
                       T'O ERR1                                                     638  LM01165
 06233 TRA +0 02000 0 00215
                     E'L                                                            639  LM01166
                     W'R ME(1).E.M1416 .AND. ME.E.CMFL02 .AND.                      640  LM01168
                1      N3.E.N1 .AND. N4.E.N2, T'O ERR0                              640  LM01169
 06234 CLA +0 50000 0 00127    06235 SUB +0 40200 0 00131    06236 TNZ -0 10000 0 06251    06237 CLA +0 50000 0 00130
 06240 SUB +0 40200 0 00132    06241 TNZ -0 10000 0 06251    06242 CLA +0 50000 0 00740    06243 SUB +0 40200 0 00277
 06244 TNZ -0 10000 0 06251    06245 CLA +0 50000 0 00737    06246 SUB +0 40200 0 00734    06247 TNZ -0 10000 0 06251
 06250 TRA +0 02000 0 00214
                     CHKPRV.(RPRVBT)                                                641  LM01170
 06251 TSX +0 07400 4 00102    06252 TXH +3 00000 0 00762
                     GETBUF.(B1,432)                                                642  LM01172
 06253 TSX +0 07400 4 00035    06254 TXH +3 00000 0 00267    06255 TXH +3 00000 0 01050
                     GETBUF.(B2,432)                                                643  LM01173
 06256 TSX +0 07400 4 00035    06257 TXH +3 00000 0 00270    06260 TXH +3 00000 0 01050
                     GETBUF.(B3,432)                                                644  LM01174
 06261 TSX +0 07400 4 00035    06262 TXH +3 00000 0 00271    06263 TXH +3 00000 0 01050
                     GETBUF.(B4,432)                                                645  LM01175
 06264 TSX +0 07400 4 00035    06265 TXH +3 00000 0 00272    06266 TXH +3 00000 0 01050
                     OPEN.(R,N1,N2)                                                 646  LM01176
 06267 TSX +0 07400 4 00051    06270 TXH +3 00000 0 00763    06271 TXH +3 00000 0 00132    06272 TXH +3 00000 0 00131
                     ATTACH.(M1416,CMFL02)                                          647  LM01177
 06273 TSX +0 07400 4 00002    06274 TXH +3 00000 0 00734    06275 TXH +3 00000 0 00277
                     NONINT.                                                        648  LM01178
 06276 TSX +0 07400 4 00112
                     CHFILE.(DATE,TIME,1,M0,M0,NULL.)                               649  LM01179
 06277 TSX +0 07400 4 00015    06300 TXH +3 00000 0 00326    06301 TXH +3 00000 0 00774    06302 TXH +3 00000 0 01015
 06303 TXH +3 00000 0 00733    06304 TXH +3 00000 0 00733    06305 TXH +3 00000 0 00045
                     DELFIL.(DATE,TIME,NULL.)                                       650  LM01180
 06306 TSX +0 07400 4 00023    06307 TXH +3 00000 0 00326    06310 TXH +3 00000 0 00774    06311 TXH +3 00000 0 00045
                     OPEN.(W,DATE,TIME,120K)                                        651  LM01181
 06312 TSX +0 07400 4 00051    06313 TXH +3 00000 0 01012    06314 TXH +3 00000 0 00326    06315 TXH +3 00000 0 00774
 06316 TXH +3 00000 0 01044
                     BUFFER.(DATE,TIME,B4(B4+432)...432)                            652  LM01182
 06317 CLA +0 50000 0 00272    06320 ADD +0 40000 0 01050    06321 SUB +0 40200 0 06322    06322 TXH +3 00000 0 00272
 06323 STA +0 62100 0 06327    06324 TSX +0 07400 4 00012    06325 TXH +3 00000 0 00326    06326 TXH +3 00000 0 00774
 06327 TIX +2 01050 0 00000
                     COPY.(N1,N2,DATE,TIME,B1(B1+432),B2(B2+432),B3(B3+432),        653  LM01183
                1          432,IOERR)                                               653  LM01184
 06330 CLA +0 50000 0 00271    06331 ADD +0 40000 0 01050    06332 SUB +0 40200 0 06333    06333 TXH +3 00000 0 00271
 06334 STA +0 62100 0 06356    06335 CLA +0 50000 0 00270    06336 ADD +0 40000 0 01050    06337 SUB +0 40200 0 06340
 06340 TXH +3 00000 0 00270    06341 STA +0 62100 0 06355    06342 CLA +0 50000 0 00267    06343 ADD +0 40000 0 01050
 06344 SUB +0 40200 0 06345    06345 TXH +3 00000 0 00267    06346 STA +0 62100 0 06354    06347 TSX +0 07400 4 00020
 06350 TXH +3 00000 0 00132    06351 TXH +3 00000 0 00131    06352 TXH +3 00000 0 00326    06353 TXH +3 00000 0 00774
 06354 TXH +3 00000 0 00000    06355 TXH +3 00000 0 00000    06356 TXH +3 00000 0 00000    06357 TXH +3 00000 0 01050
 06360 TXH +3 00000 0 00225
                     CLOSE.(DATE,TIME)                                              654  LM01185
 06361 TSX +0 07400 4 00016    06362 TXH +3 00000 0 00326    06363 TXH +3 00000 0 00774
                     CLOSE.(N1,N2)                                                  655  LM01186
 06364 TSX +0 07400 4 00016    06365 TXH +3 00000 0 00132    06366 TXH +3 00000 0 00131
                     MODE = 120K                                                    656  LM01187
 06367 CLA +0 50000 0 01044    06370 STO +0 60100 0 00123
                     FSTATE.(N3,N4,TUCARD(1)...2,UPD1)                              657  LM01188
 06371 TSX +0 07400 4 00032    06372 TXH +3 00000 0 00130    06373 TXH +3 00000 0 00127    06374 TIX +2 01016 0 00165
 06375 TXH +3 00000 0 00261
                     MODE = TUCARD.A.777K                                           658  LM01189
 06376 CAL -0 50000 0 00166    06377 ANA -0 32000 0 01051    06400 SLW +0 60200 0 00123
      UPD1           CHFILE.(N3,N4,1,M0,M0,NULL.)                                   659  LM01190
 06401 TSX +0 07400 4 00015    06402 TXH +3 00000 0 00130    06403 TXH +3 00000 0 00127    06404 TXH +3 00000 0 01015
 06405 TXH +3 00000 0 00733    06406 TXH +3 00000 0 00733    06407 TXH +3 00000 0 00045
                     DELFIL.(N3,N4,NULL.)                                           660  LM01191
 06410 TSX +0 07400 4 00023    06411 TXH +3 00000 0 00130    06412 TXH +3 00000 0 00127    06413 TXH +3 00000 0 00045
                     CHFILE.(DATE,TIME,MODE,N3,N4)                                  661  LM01192
 06414 TSX +0 07400 4 00015    06415 TXH +3 00000 0 00326    06416 TXH +3 00000 0 00774    06417 TXH +3 00000 0 00123
 06420 TXH +3 00000 0 00130    06421 TXH +3 00000 0 00127
                     INT.                                                           662  LM01193
 06422 TSX +0 07400 4 00111
                   E'L                                                              663  LM01194
                 O'R COMBUF(M) .E. $ WRITE$                                         664  LM01212
 06423 TRA +0 02000 0 06504    06424 LXA +0 53400 1 00743    06425 CLA +0 50000 1 00324    06426 SUB +0 40200 0 01337
 06427 TNZ -0 10000 0 06461
                   M = M+1                                                          665  LM01213
 06430 CLA +0 50000 0 00743    06431 ADD +0 40000 0 01015    06432 STO +0 60100 0 00743
                   W'R COMBUF(M) .E. HELP                                           666  LM01214
 06433 LXA +0 53400 1 00743    06434 CLA +0 50000 1 00324    06435 SUB +0 40200 0 00727    06436 TNZ -0 10000 0 06450
                     PRFULL.(ADMIN...2,CURCOM.(0),$ 'LUSER$)                        667  LM01215
 06437 TSX +0 07400 4 00104    06440 TXH +3 00000 0 01014    06441 STO +0 60100 0 07736    06442 TSX +0 07400 4 00055
 06443 TIX +2 01016 0 00264    06444 TXH +3 00000 0 07736    06445 TXH +3 00000 0 01255    06446 TXH +3 00000 0 01244
                   O'E                                                              668  LM01216
 06447 TRA +0 02000 0 06460
                     GETUSR.(ERR3,ERR4,ERR5)                                        669  LM01217
 06450 TSX +0 07400 4 00107    06451 TXH +3 00000 0 00217    06452 TXH +3 00000 0 00220    06453 TXH +3 00000 0 00221
                     SETFUL.                                                        670  LM01218
 06454 TSX +0 07400 4 00071
                     WRITE.(USR)                                                    671  LM01219
 06455 TSX +0 07400 4 00077    06456 TXH +3 00000 0 01004
                     SETBCD.                                                        672  LM01220
 06457 TSX +0 07400 4 00066
                   E'L                                                              673  LM01221
                 O'E                                                                674  LM01225
 06460 TRA +0 02000 0 06504
                   W'R M.E.0                                                        675  LM01226
 06461 CLA +0 50000 0 00743    06462 SUB +0 40200 0 01014    06463 TNZ -0 10000 0 06470
                     M = 1                                                          676  LM01227
 06464 CLA +0 50000 0 01015    06465 STO +0 60100 0 00743
                     T'O USEROK                                                     677  LM01228
 06466 TRA +0 02000 0 00262
                   O'E                                                              678  LM01229
 06467 TRA +0 02000 0 06504
                     PRFULL.($'R'X$,COMBUF(M),$ IS NOT A VALID FUNCTION.'B$)        679  LM01230
 06470 CLA +0 50000 0 00743    06471 SUB +0 40200 0 06472    06472 TXH +3 00000 0 00324    06473 STA +0 62100 0 06476
 06474 TSX +0 07400 4 00055    06475 TXH +3 00000 0 01115    06476 TXH +3 00000 0 00000    06477 TXH +3 00000 0 01300
 06500 TXH +3 00000 0 01356    06501 TXH +3 00000 0 01171    06502 TXH +3 00000 0 01201    06503 TXH +3 00000 0 01163
                   E'L                                                              680  LM01231
                 E'L                                                                681  LM01232
      OUT        RESETF.                                                            682  LM01233
 06504 TSX +0 07400 4 00062
                 ATTACH.(ME(1),ME,EXITM.)                                           683  LM01234
 06505 TSX +0 07400 4 00002    06506 TXH +3 00000 0 00737    06507 TXH +3 00000 0 00740    06510 TXH +3 00000 0 00027
                 EXITM.                                                             684  LM01235
 06511 TSX +0 07400 4 00027
      IOERR      PRFULA.(RED)                                                       685  LM01249
 06512 TSX +0 07400 4 00054    06513 TXH +3 00000 0 00756
                 PRDIAG.                                                            686  LM01250
 06514 TSX +0 07400 4 00053
                 PRFULA.(BLACK)                                                     687  LM01251
 06515 TSX +0 07400 4 00054    06516 TXH +3 00000 0 00275
                 T'O OUT                                                            688  LM01252
 06517 TRA +0 02000 0 00231
      ERR0       PRFULL.($'R'1ILLEGAL USAGE.'B$)                                    689  LM01254
 06520 TSX +0 07400 4 00055    06521 TXH +3 00000 0 01106    06522 TXH +3 00000 0 01170    06523 TXH +3 00000 0 01363
 06524 TXH +3 00000 0 01103
                 T'O OUT                                                            690  LM01255
 06525 TRA +0 02000 0 00231
      ERR1       PRFULL.($'R'1ILLEGAL ARGUMENT: 'X$,COMBUF(M),BLACK)                691  LM01257
 06526 CLA +0 50000 0 00743    06527 SUB +0 40200 0 06530    06530 TXH +3 00000 0 00324    06531 STA +0 62100 0 06537
 06532 TSX +0 07400 4 00055    06533 TXH +3 00000 0 01106    06534 TXH +3 00000 0 01170    06535 TXH +3 00000 0 01121
 06536 TXH +3 00000 0 01215    06537 TXH +3 00000 0 00000    06540 TXH +3 00000 0 00275
                 T'O OUT                                                            692  LM01258
 06541 TRA +0 02000 0 00231
      ERR2       PRFULL.($'R'1MISSING ARGUMENT(S)'B$)                               693  LM01260
 06542 TSX +0 07400 4 00055    06543 TXH +3 00000 0 01112    06544 TXH +3 00000 0 01344    06545 TXH +3 00000 0 01121
 06546 TXH +3 00000 0 01216    06547 TXH +3 00000 0 01126
                 T'O OUT                                                            694  LM01261
 06550 TRA +0 02000 0 00231
      ERR3       PRFULL.($'R'1MISSING OR ILLEGAL USER SPECIFICATION.'B$)            695  LM01263
 06551 TSX +0 07400 4 00055    06552 TXH +3 00000 0 01112    06553 TXH +3 00000 0 01344    06554 TXH +3 00000 0 01222
 06555 TXH +3 00000 0 01144    06556 TXH +3 00000 0 01341    06557 TXH +3 00000 0 01141    06560 TXH +3 00000 0 01123
 06561 TXH +3 00000 0 01103
                 T'O OUT                                                            696  LM01264
 06562 TRA +0 02000 0 00231
      ERR5       PRFULL.($'R'1LINE '8$,BZ57.(DEFBC.(USR)),$ IS EMPTY.'B$)           697  LM01266
 06563 TSX +0 07400 4 00021    06564 TXH +3 00000 0 01004    06565 STO +0 60100 0 07736    06566 TSX +0 07400 4 00013
 06567 TXH +3 00000 0 07736    06570 STO +0 60100 0 07736    06571 TSX +0 07400 4 00055    06572 TXH +3 00000 0 01111
 06573 TXH +3 00000 0 01203    06574 TXH +3 00000 0 07736    06575 TXH +3 00000 0 01277    06576 TXH +3 00000 0 01233
                 T'O OUT                                                            698  LM01267
 06577 TRA +0 02000 0 00231
      ERR4       PRFULL.(RED,X,PROB...2,$ IS NOT LOGGED IN.'B$)                     699  LM01269
 06600 TSX +0 07400 4 00055    06601 TXH +3 00000 0 00756    06602 TXH +3 00000 0 01013    06603 TIX +2 01016 0 00117
 06604 TXH +3 00000 0 01300    06605 TXH +3 00000 0 01357    06606 TXH +3 00000 0 01142    06607 TXH +3 00000 0 01103
                 T'O OUT                                                            700  LM01270
 06610 TRA +0 02000 0 00231
      ERR6       PRFULL.(RED,LHALF,RHALF,$ NOT OCTAL.'B$)                           701  LM01272
 06611 TSX +0 07400 4 00055    06612 TXH +3 00000 0 00756    06613 TXH +3 00000 0 00126    06614 TXH +3 00000 0 00125
 06615 TXH +3 00000 0 01312    06616 TXH +3 00000 0 01132    06617 TXH +3 00000 0 01126
                 T'O OUT                                                            702  LM01273
 06620 TRA +0 02000 0 00231
      ERR7       PRFULL.($'R'1SYSTEM ERROR: FULL RETURN FROM '6ENTLIN.'B$)          703  LM01275
 06621 TSX +0 07400 4 00055    06622 TXH +3 00000 0 01113    06623 TXH +3 00000 0 01345    06624 TXH +3 00000 0 01240
 06625 TXH +3 00000 0 01153    06626 TXH +3 00000 0 01150    06627 TXH +3 00000 0 01151    06630 TXH +3 00000 0 01070
 06631 TXH +3 00000 0 01211
                 T'O OUT                                                            704  LM01276
 06632 TRA +0 02000 0 00231
                 I'N (CODE)                                                         705  LM01296
 06633 TRA +0 02000 0 06706
                 E'O CHKPRV.                                                        706  LM01297
 06634 TRA +0 02000 0 06637    00102 TTR +0 02100 0 06635    06635 SXA +0 63400 2 06671    06636 TSX +0 07400 2 06671
                 W'R RCODE.A.CODE.E.CODE, F'N                                       707  LM01298
 06637 CAL -0 50000 0 00755    06640 ANA -0 32000 0 00024    06641 SLW +0 60200 0 06705    06642 CLA +0 50000 0 06705
 06643 SUB +0 40200 0 00024    06644 TNZ -0 10000 0 06646    06645 TRA +0 02000 0 06701
                 PRFULL.($'R'1INSUFFICIENT PRIVILEGES.  '1NEED AT LEAST '8$,        708  LM01299
                1  BZ57.(OCRBC.(CODE)),BLACK)                                       708  LM01300
 06646 TSX +0 07400 4 00050    06647 TXH +3 00000 0 00024    06650 STO +0 60100 0 06705    06651 TSX +0 07400 4 00013
 06652 TXH +3 00000 0 06705    06653 STO +0 60100 0 06705    06654 TSX +0 07400 4 00055    06655 TXH +3 00000 0 01107
 06656 TXH +3 00000 0 01347    06657 TXH +3 00000 0 01156    06660 TXH +3 00000 0 01235    06661 TXH +3 00000 0 01155
 06662 TXH +3 00000 0 01074    06663 TXH +3 00000 0 01263    06664 TXH +3 00000 0 01122    06665 TXH +3 00000 0 06705
 06666 TXH +3 00000 0 00275
                 T'O OUT                                                            709  LM01301
 06667 TRA +0 02000 0 00231
                 E'N                                                                710  LM01302
 06670 TSX +0 07400 4 00030    06671 TXH +3 00000 0 00000    06672 SXD -0 63400 1 06671    06673 SXA +0 63400 4 06701
 06674 CLA +0 50000 4 00001    06675 STA +0 62100 0 06640    06676 STA +0 62100 0 06643    06677 STO +0 60100 0 06647
 06700 TRA +0 02000 2 00001    06701 AXT +0 77400 4 00000    06702 LXA +0 53400 2 06671    06703 LXD -0 53400 1 06671
 06704 TRA +0 02000 4 00001
                 I'N (SYMBOL)                                                       711  LM01310
 06706 TRA +0 02000 0 06775
                 E'O COMMON.                                                        712  LM01311
 06707 TRA +0 02000 0 06712    00103 TTR +0 02100 0 06710    06710 SXA +0 63400 2 06760    06711 TSX +0 07400 2 06760
                 F'N COMLOC.(LJUST.(SYMBOL),COMERR)                                 713  LM01312
 06712 TSX +0 07400 4 00042    06713 TXH +3 00000 0 00024    06714 STO +0 60100 0 06774    06715 TSX +0 07400 4 00017
 06716 TXH +3 00000 0 06774    06717 TXH +3 00000 0 00207    06720 TRA +0 02000 0 06770
      COMERR     PRFULL.($'R'X$,BZ57.(RJUST.(SYMBOL)),$ WAS NOT FOUND.'B$)          714  LM01314
 06721 TSX +0 07400 4 00063    06722 TXH +3 00000 0 00024    06723 STO +0 60100 0 06774    06724 TSX +0 07400 4 00013
 06725 TXH +3 00000 0 06774    06726 STO +0 60100 0 06774    06727 TSX +0 07400 4 00055    06730 TXH +3 00000 0 01115
 06731 TXH +3 00000 0 06774    06732 TXH +3 00000 0 01336    06733 TXH +3 00000 0 01223    06734 TXH +3 00000 0 01202
                 T'O OUT                                                            715  LM01315
 06735 TRA +0 02000 0 00231
                 E'O ENTRY.                                                         716  LM01323
 06736 TRA +0 02000 0 06741    00105 TTR +0 02100 0 06737    06737 SXA +0 63400 2 06760    06740 TSX +0 07400 2 06760
                 F'N ACORE.(LJUST.(SYMBOL),COMERR).RS.18                            717  LM01324
 06741 TSX +0 07400 4 00042    06742 TXH +3 00000 0 00024    06743 STO +0 60100 0 06774    06744 TSX +0 07400 4 00000
 06745 TXH +3 00000 0 06774    06746 TXH +3 00000 0 00207    06747 STO +0 60100 0 06774    06750 CAL -0 50000 0 01034
 06751 STA +0 62100 0 06753    06752 CAL -0 50000 0 06774    06753 LGR -0 76500 0 00000    06754 SLW +0 60200 0 06774
 06755 CLA +0 50000 0 06774    06756 TRA +0 02000 0 06770
                 E'N                                                                718  LM01325
 06757 TSX +0 07400 4 00030    06760 TXH +3 00000 0 00000    06761 SXD -0 63400 1 06760    06762 SXA +0 63400 4 06770
 06763 CLA +0 50000 4 00001    06764 STO +0 60100 0 06713    06765 STO +0 60100 0 06722    06766 STO +0 60100 0 06742
 06767 TRA +0 02000 2 00001    06770 AXT +0 77400 4 00000    06771 LXA +0 53400 2 06760    06772 LXD -0 53400 1 06760
 06773 TRA +0 02000 4 00001
                 I'N CURCOM.(X) = BZ57.(COMBUF(M-1))                                719  LM01332
 06775 TRA +0 02000 0 07020    00104 TTR +0 02100 0 06776    06776 SXA +0 63400 2 07010    06777 TSX +0 07400 2 07010
 07000 CLA +0 50000 0 00743    07001 SUB +0 40200 0 01015    07002 SUB +0 40200 0 07003    07003 TXH +3 00000 0 00324
 07004 STA +0 62100 0 07006    07005 TSX +0 07400 4 00013    07006 TXH +3 00000 0 00000    07007 TRA +0 02000 0 07014
 07010 TXH +3 00000 0 00000    07011 SXD -0 63400 1 07010    07012 SXA +0 63400 4 07014    07013 TRA +0 02000 2 00001
 07014 AXT +0 77400 4 00000    07015 LXA +0 53400 2 07010    07016 LXD -0 53400 1 07010    07017 TRA +0 02000 4 00001
                 I'N                                                                720  LM01338
 07020 TRA +0 02000 0 07071
                 E'O INT.                                                           721  LM01339
 07021 TRA +0 02000 0 07024    00111 TTR +0 02100 0 07022    07022 SXA +0 63400 2 07057    07023 TSX +0 07400 2 07057
                 SLOC.(GLOC.(USROPT).A..N.NINTBT,USROPT)                            722  LM01340
 07024 CAL -0 50000 0 00745    07025 COM +0 76000 0 00006    07026 SLW +0 60200 0 07067    07027 TSX +0 07400 4 00037
 07030 TXH +3 00000 0 01003    07031 STO +0 60100 0 07070    07032 CAL -0 50000 0 07070    07033 ANA -0 32000 0 07067
 07034 SLW +0 60200 0 07070    07035 TSX +0 07400 4 00072    07036 TXH +3 00000 0 07070    07037 TXH +3 00000 0 01003
                 F'N                                                                723  LM01341
 07040 TRA +0 02000 0 07063
                 E'O NONINT.                                                        724  LM01347
 07041 TRA +0 02000 0 07044    00112 TTR +0 02100 0 07042    07042 SXA +0 63400 2 07057    07043 TSX +0 07400 2 07057
                 SLOC.(GLOC.(USROPT).V.NINTBT,USROPT)                               725  LM01348
 07044 TSX +0 07400 4 00037    07045 TXH +3 00000 0 01003    07046 STO +0 60100 0 07070    07047 CAL -0 50000 0 07070
 07050 ORA -0 50100 0 00745    07051 SLW +0 60200 0 07070    07052 TSX +0 07400 4 00072    07053 TXH +3 00000 0 07070
 07054 TXH +3 00000 0 01003
                 F'N                                                                726  LM01349
 07055 TRA +0 02000 0 07063
                 E'N                                                                727  LM01350
 07056 TSX +0 07400 4 00030    07057 TXH +3 00000 0 00000    07060 SXD -0 63400 1 07057    07061 SXA +0 63400 4 07063
 07062 TRA +0 02000 2 00001    07063 AXT +0 77400 4 00000    07064 LXA +0 53400 2 07057    07065 LXD -0 53400 1 07057
 07066 TRA +0 02000 4 00001
                 I'N (NONE,NOTIN,LNMTY)                                             728  LM01363
 07071 TRA +0 02000 0 07320
                 S'L NONE,NOTIN,LNMTY                                               729  LM01364
                 E'O GETUSR.                                                        730  LM01365
 07072 TRA +0 02000 0 07075    00107 TTR +0 02100 0 07073    07073 SXA +0 63400 2 07277    07074 TSX +0 07400 2 07277
                 W'R COMBUF(M).E.FENCE                                              731  LM01367
 07075 LXA +0 53400 1 00743    07076 CLA +0 50000 1 00324    07077 SUB +0 40200 0 00122    07100 TNZ -0 10000 0 07107
                    USR = USER                                                      732  LM01368
 07101 CLA +0 50000 0 01002    07102 STO +0 60100 0 01004
                    GTUSR.(LNMTY)                                                   733  LM01369
 07103 TSX +0 07400 4 00110    07104 TXH +3 00000 0 00024
                    T'O NONE                                                        734  LM01370
 07105 TRA +0 02000 0 00024
                 O'R ZEL.(COMBUF(M)).A.$$.E.0                                       735  LM01371
 07106 TRA +0 02000 0 07275    07107 CLA +0 50000 0 00743    07110 SUB +0 40200 0 07111    07111 TXH +3 00000 0 00324
 07112 STA +0 62100 0 07114    07113 TSX +0 07400 4 00101    07114 TXH +3 00000 0 00000    07115 STO +0 60100 0 07317
 07116 CAL -0 50000 0 07317    07117 ANA -0 32000 0 01330    07120 SLW +0 60200 0 07317    07121 CLA +0 50000 0 07317
 07122 SUB +0 40200 0 01014    07123 TNZ -0 10000 0 07160
                    USR = BCDEC.(COMBUF(M))                                         736  LM01372
 07124 CLA +0 50000 0 00743    07125 SUB +0 40200 0 07126    07126 TXH +3 00000 0 00324    07127 STA +0 62100 0 07131
 07130 TSX +0 07400 4 00004    07131 TXH +3 00000 0 00000    07132 STO +0 60100 0 01004
                    W'R USR.G.N, T'O ERR3                                           737  LM01373
 07133 CLA +0 50000 0 01004    07134 SUB +0 40200 0 00746    07135 TZE +0 10000 0 07140    07136 TMI -0 12000 0 07140
 07137 TRA +0 02000 0 00217
                    W'R USR.E.0                                                     738  LM01374
 07140 CLA +0 50000 0 01004    07141 SUB +0 40200 0 01014    07142 TNZ -0 10000 0 07152
                       PROB = $ BACKG$                                              739  LM01375
 07143 CLA +0 50000 0 01264    07144 STO +0 60100 0 00117
                       PROG = $ROUND$                                               740  LM01376
 07145 CLA +0 50000 0 01236    07146 STO +0 60100 0 00116
                       NAME = $$                                                    741  LM01377
 07147 CLA +0 50000 0 01330    07150 STO +0 60100 0 00744
                    O'E                                                             742  LM01378
 07151 TRA +0 02000 0 07154
                       GTUSR.(LNMTY)                                                743  LM01379
 07152 TSX +0 07400 4 00110    07153 TXH +3 00000 0 00024
                    E'L                                                             744  LM01380
                    M = M+1                                                         745  LM01381
 07154 CLA +0 50000 0 00743    07155 ADD +0 40000 0 01015    07156 STO +0 60100 0 00743
                 O'R COMBUF(M) .E. STAR                                             746  LM01382
 07157 TRA +0 02000 0 07275    07160 LXA +0 53400 1 00743    07161 CLA +0 50000 1 00324    07162 SUB +0 40200 0 00765
 07163 TNZ -0 10000 0 07174
                    USR = USER                                                      747  LM01383
 07164 CLA +0 50000 0 01002    07165 STO +0 60100 0 01004
                    GTUSR.(LNMTY)                                                   748  LM01384
 07166 TSX +0 07400 4 00110    07167 TXH +3 00000 0 00024
                    M = M+1                                                         749  LM01385
 07170 CLA +0 50000 0 00743    07171 ADD +0 40000 0 01015    07172 STO +0 60100 0 00743
                 O'E                                                                750  LM01386
 07173 TRA +0 02000 0 07275
                    PROB = REPROB.(COMBUF(M))                                       751  LM01387
 07174 CLA +0 50000 0 00743    07175 SUB +0 40200 0 07176    07176 TXH +3 00000 0 00324    07177 STA +0 62100 0 07201
 07200 TSX +0 07400 4 00061    07201 TXH +3 00000 0 00000    07202 STO +0 60100 0 00117
                    M = M+1                                                         752  LM01388
 07203 CLA +0 50000 0 00743    07204 ADD +0 40000 0 01015    07205 STO +0 60100 0 00743
                    W'R COMBUF(M).E.FENCE, T'O ERR3                                 753  LM01389
 07206 LXA +0 53400 1 00743    07207 CLA +0 50000 1 00324    07210 SUB +0 40200 0 00122    07211 TNZ -0 10000 0 07213
 07212 TRA +0 02000 0 00217
                    PROG = COMBUF(M)                                                754  LM01390
 07213 LXA +0 53400 2 00743    07214 CLA +0 50000 2 00324    07215 STO +0 60100 0 00116
                    M = M+1                                                         755  LM01391
 07216 CLA +0 50000 0 00743    07217 ADD +0 40000 0 01015    07220 STO +0 60100 0 00743
                    GETPRB.                                                         756  LM01392
 07221 TSX +0 07400 4 00106
      GTUSR1        T'H GTUSR1, FOR USR = 1,1,USR.G.N .OR.                          757  LM01393
                1      (PROB.E.PROBN(PROBN+N-USR+1).AND.                            757  LM01394
                2       PROG.E.PROGN(PROGN+N-USR+1))                                757  LM01395
 07222 CLA +0 50000 0 01015    07223 STO +0 60100 0 01004    07224 TRA +0 02000 0 07230    07225 CLA +0 50000 0 01004
 07226 ADD +0 40000 0 01015    07227 STO +0 60100 0 01004    07230 CLA +0 50000 0 00753    07231 ADD +0 40000 0 00746
 07232 SUB +0 40200 0 01004    07233 ADD +0 40000 0 01015    07234 PAX +0 73400 2 00000    07235 CLA +0 50000 0 00116
 07236 SUB +0 40200 2 00753    07237 TNZ -0 10000 0 07250    07240 CLA +0 50000 0 00752    07241 ADD +0 40000 0 00746
 07242 SUB +0 40200 0 01004    07243 ADD +0 40000 0 01015    07244 PAX +0 73400 2 00000    07245 CLA +0 50000 0 00117
 07246 SUB +0 40200 2 00752    07247 TZE +0 10000 0 07255    07250 CLA +0 50000 0 01004    07251 SUB +0 40200 0 00746
 07252 TZE +0 10000 0 07254    07253 TPL +0 12000 0 07255    07254 TRA +0 02000 0 07225
                    W'R USR.G.N                                                     758  LM01396
 07255 CLA +0 50000 0 01004    07256 SUB +0 40200 0 00746    07257 TZE +0 10000 0 07266    07260 TMI -0 12000 0 07266
                       USR = 0                                                      759  LM01397
 07261 CLA +0 50000 0 01014    07262 STO +0 60100 0 01004
                       NAME = $$                                                    760  LM01398
 07263 CLA +0 50000 0 01330    07264 STO +0 60100 0 00744
                       T'O NOTIN                                                    761  LM01399
 07265 TRA +0 02000 0 00024
                    E'L                                                             762  LM01400
                    NAME = GLOC.(COMMON.(UNAME)+USR)                                763  LM01401
 07266 TSX +0 07400 4 00103    07267 TXH +3 00000 0 00777    07270 ADD +0 40000 0 01004    07271 STO +0 60100 0 07317
 07272 TSX +0 07400 4 00037    07273 TXH +3 00000 0 07317    07274 STO +0 60100 0 00744
                 E'L                                                                764  LM01402
                 F'N                                                                765  LM01403
 07275 TRA +0 02000 0 07313
                 E'N                                                                766  LM01404
 07276 TSX +0 07400 4 00030    07277 TXH +3 00000 0 00000    07300 SXD -0 63400 1 07277    07301 SXA +0 63400 4 07313
 07302 CLA +0 50000 4 00001    07303 STA +0 62100 0 07105    07304 CLA +0 50000 4 00002    07305 STA +0 62100 0 07265
 07306 CLA +0 50000 4 00003    07307 STO +0 60100 0 07104    07310 STO +0 60100 0 07153    07311 STO +0 60100 0 07167
 07312 TRA +0 02000 2 00001    07313 AXT +0 77400 4 00000    07314 LXA +0 53400 2 07277    07315 LXD -0 53400 1 07277
 07316 TRA +0 02000 4 00001
                 I'N (LNMTY)                                                        767  LM01413
 07320 TRA +0 02000 0 07375
                 E'O GTUSR.                                                         768  LM01414
 07321 TRA +0 02000 0 07324    00110 TTR +0 02100 0 07322    07322 SXA +0 63400 2 07362    07323 TSX +0 07400 2 07362
                 PROB = GLOC.(COMMON.($PROBN$)+USR)                                 769  LM01416
 07324 TSX +0 07400 4 00103    07325 TXH +3 00000 0 01231    07326 ADD +0 40000 0 01004    07327 STO +0 60100 0 07374
 07330 TSX +0 07400 4 00037    07331 TXH +3 00000 0 07374    07332 STO +0 60100 0 00117
                 W'R PROB.E.0                                                       770  LM01417
 07333 CLA +0 50000 0 00117    07334 SUB +0 40200 0 01014    07335 TNZ -0 10000 0 07342
                   M = M+1                                                          771  LM01418
 07336 CLA +0 50000 0 00743    07337 ADD +0 40000 0 01015    07340 STO +0 60100 0 00743
                   T'O LNMTY                                                        772  LM01419
 07341 TRA +0 02000 0 00024
                   E'L                                                              773  LM01420
                 PROG = GLOC.(COMMON.($PROGN$)+USR)                                 774  LM01421
 07342 TSX +0 07400 4 00103    07343 TXH +3 00000 0 01232    07344 ADD +0 40000 0 01004    07345 STO +0 60100 0 07374
 07346 TSX +0 07400 4 00037    07347 TXH +3 00000 0 07374    07350 STO +0 60100 0 00116
                 NAME = GLOC.(COMMON.(UNAME)+USR)                                   775  LM01422
 07351 TSX +0 07400 4 00103    07352 TXH +3 00000 0 00777    07353 ADD +0 40000 0 01004    07354 STO +0 60100 0 07374
 07355 TSX +0 07400 4 00037    07356 TXH +3 00000 0 07374    07357 STO +0 60100 0 00744
                 F'N                                                                776  LM01423
 07360 TRA +0 02000 0 07370
                 E'N                                                                777  LM01424
 07361 TSX +0 07400 4 00030    07362 TXH +3 00000 0 00000    07363 SXD -0 63400 1 07362    07364 SXA +0 63400 4 07370
 07365 CLA +0 50000 4 00001    07366 STA +0 62100 0 07341    07367 TRA +0 02000 2 00001    07370 AXT +0 77400 4 00000
 07371 LXA +0 53400 2 07362    07372 LXD -0 53400 1 07362    07373 TRA +0 02000 4 00001
                 BOOLEAN PRBSW                                                      778  LM01433
                 V'S PRBSW = 1B                                                     779  LM01434
 00751     +0 00000 0 00001
                 I'N                                                                780  LM01435
 07375 TRA +0 02000 0 07456
                 E'O GETPRB.                                                        781  LM01436
 07376 TRA +0 02000 0 07401    00106 TTR +0 02100 0 07377    07377 SXA +0 63400 2 07445    07400 TSX +0 07400 2 07445
                 W'R PRBSW                                                          782  LM01438
 07401 NZT -0 52000 0 00751    07402 TRA +0 02000 0 07413
                   PRBSW = 0B                                                       783  LM01439
 07403 CLA +0 50000 0 01014    07404 STO +0 60100 0 00751
                   GETBUF.(PROBN,N)                                                 784  LM01440
 07405 TSX +0 07400 4 00035    07406 TXH +3 00000 0 00752    07407 TXH +3 00000 0 00746
                   GETBUF.(PROGN,N)                                                 785  LM01441
 07410 TSX +0 07400 4 00035    07411 TXH +3 00000 0 00753    07412 TXH +3 00000 0 00746
                 E'L                                                                786  LM01442
                 GETARY.(COMMON.($PROBN$)+1,PROBN(PROBN+N)...N)                     787  LM01443
 07413 CLA +0 50000 0 00752    07414 ADD +0 40000 0 00746    07415 SUB +0 40200 0 07416    07416 TXH +3 00000 0 00752
 07417 STA +0 62100 0 07426    07420 TSX +0 07400 4 00103    07421 TXH +3 00000 0 01231    07422 ADD +0 40000 0 01015
 07423 STO +0 60100 0 07455    07424 TSX +0 07400 4 00034    07425 TXH +3 00000 0 07455    07426 TIX +2 00746 0 00000
                 GETARY.(COMMON.($PROGN$)+1,PROGN(PROGN+N)...N)                     788  LM01444
 07427 CLA +0 50000 0 00753    07430 ADD +0 40000 0 00746    07431 SUB +0 40200 0 07432    07432 TXH +3 00000 0 00753
 07433 STA +0 62100 0 07442    07434 TSX +0 07400 4 00103    07435 TXH +3 00000 0 01232    07436 ADD +0 40000 0 01015
 07437 STO +0 60100 0 07455    07440 TSX +0 07400 4 00034    07441 TXH +3 00000 0 07455    07442 TIX +2 00746 0 00000
                 F'N                                                                789  LM01445
 07443 TRA +0 02000 0 07451
                 E'N                                                                790  LM01446
 07444 TSX +0 07400 4 00030    07445 TXH +3 00000 0 00000    07446 SXD -0 63400 1 07445    07447 SXA +0 63400 4 07451
 07450 TRA +0 02000 2 00001    07451 AXT +0 77400 4 00000    07452 LXA +0 53400 2 07445    07453 LXD -0 53400 1 07445
 07454 TRA +0 02000 4 00001
                 BOOLEAN FRSTSW                                                     791  LM01454
                 V'S FRSTSW = 1B                                                    792  LM01455
 00725     +0 00000 0 00001
                 I'N (PRB,PRG,COUNT,EOF)                                            793  LM01456
 07456 TRA +0 02000 0 07621
                 S'L EOF                                                            794  LM01457
                 E'O READTU.                                                        795  LM01458
 07457 TRA +0 02000 0 07462    00113 TTR +0 02100 0 07460    07460 SXA +0 63400 2 07601    07461 TSX +0 07400 2 07601
                 W'R FRSTSW                                                         796  LM01459
 07462 NZT -0 52000 0 00725    07463 TRA +0 02000 0 07535
                    FRSTSW = 0B                                                     797  LM01460
 07464 CLA +0 50000 0 01014    07465 STO +0 60100 0 00725
                    GETBUF.(B1,432)                                                 798  LM01461
 07466 TSX +0 07400 4 00035    07467 TXH +3 00000 0 00267    07470 TXH +3 00000 0 01050
                    GETBUF.(B2,432)                                                 799  LM01462
 07471 TSX +0 07400 4 00035    07472 TXH +3 00000 0 00270    07473 TXH +3 00000 0 01050
                    GETBUF.(B3,432)                                                 800  LM01463
 07474 TSX +0 07400 4 00035    07475 TXH +3 00000 0 00271    07476 TXH +3 00000 0 01050
                    BFOPEN.(STATUS,TU,TA,B1(B1+432),B2(B2+432),M0,IOERR)            801  LM01464
 07477 CLA +0 50000 0 00270    07500 ADD +0 40000 0 01050    07501 SUB +0 40200 0 07502    07502 TXH +3 00000 0 00270
 07503 STA +0 62100 0 07516    07504 CLA +0 50000 0 00267    07505 ADD +0 40000 0 01050    07506 SUB +0 40200 0 07507
 07507 TXH +3 00000 0 00267    07510 STA +0 62100 0 07515    07511 TSX +0 07400 4 00007    07512 TXH +3 00000 0 00766
 07513 TXH +3 00000 0 00776    07514 TXH +3 00000 0 00771    07515 TXH +3 00000 0 00000    07516 TXH +3 00000 0 00000
 07517 TXH +3 00000 0 00733    07520 TXH +3 00000 0 00225
                    BUFFER.(TU,TA,B3(B3+432)...432)                                 802  LM01465
 07521 CLA +0 50000 0 00271    07522 ADD +0 40000 0 01050    07523 SUB +0 40200 0 07524    07524 TXH +3 00000 0 00271
 07525 STA +0 62100 0 07531    07526 TSX +0 07400 4 00012    07527 TXH +3 00000 0 00776    07530 TXH +3 00000 0 00771
 07531 TIX +2 01050 0 00000
                    RELLOC = 1                                                      803  LM01466
 07532 CLA +0 50000 0 01015    07533 STO +0 60100 0 00757
                 O'E                                                                804  LM01467
 07534 TRA +0 02000 0 07540
      RDTU1         RELLOC = RELLOC + 28                                            805  LM01468
 07535 CLA +0 50000 0 00757    07536 ADD +0 40000 0 01037    07537 STO +0 60100 0 00757
                 E'L                                                                806  LM01469
                 BFREAD.(TU,TA,TUCARD(27)...28,BEOF,M0,IOERR)                       807  LM01470
 07540 TSX +0 07400 4 00010    07541 TXH +3 00000 0 00776    07542 TXH +3 00000 0 00771    07543 TIX +2 01037 0 00133
 07544 TXH +3 00000 0 00206    07545 TXH +3 00000 0 00733    07546 TXH +3 00000 0 00225
                 T'H RDTU2, FOR I = 0,1,I.G.COUNT                                   808  LM01471
 07547 CLA +0 50000 0 01014    07550 STO +0 60100 0 00730    07551 TRA +0 02000 0 07555    07552 CLA +0 50000 0 00730
 07553 ADD +0 40000 0 01015    07554 STO +0 60100 0 00730    07555 CLA +0 50000 0 00730    07556 SUB +0 40200 0 00024
 07557 TZE +0 10000 0 07561    07560 TPL +0 12000 0 07572
      RDTU2      W'R PRB(I).E.TUCARD(27) .AND. PRG(I).E.TUCARD(26), F'N             809  LM01472
 07561 LXA +0 53400 1 00730    07562 CLA +0 50000 1 00024    07563 SUB +0 40200 0 00134    07564 TNZ -0 10000 0 07571
 07565 CLA +0 50000 1 00024    07566 SUB +0 40200 0 00133    07567 TNZ -0 10000 0 07571    07570 TRA +0 02000 0 07615
 07571 TRA +0 02000 0 07552
                 T'O RDTU1                                                          810  LM01473
 07572 TRA +0 02000 0 00240
      BEOF       BFCLOS.(TU,TA,IOERR)                                               811  LM01475
 07573 TSX +0 07400 4 00006    07574 TXH +3 00000 0 00776    07575 TXH +3 00000 0 00771    07576 TXH +3 00000 0 00225
                 T'O EOF                                                            812  LM01476
 07577 TRA +0 02000 0 00024
                 E'N                                                                813  LM01478
 07600 TSX +0 07400 4 00030    07601 TXH +3 00000 0 00000    07602 SXD -0 63400 1 07601    07603 SXA +0 63400 4 07615
 07604 CLA +0 50000 4 00001    07605 STA +0 62100 0 07565    07606 CLA +0 50000 4 00002    07607 STA +0 62100 0 07562
 07610 CLA +0 50000 4 00003    07611 STA +0 62100 0 07556    07612 CLA +0 50000 4 00004    07613 STA +0 62100 0 07577
 07614 TRA +0 02000 2 00001    07615 AXT +0 77400 4 00000    07616 LXA +0 53400 2 07601    07617 LXD -0 53400 1 07601
 07620 TRA +0 02000 4 00001
                 I'N                                                                814  LM01486
 07621 TRA +0 02000 0 07731
                 E'O UPSHFT.                                                        815  LM01487
 07622 TRA +0 02000 0 07625    00114 TTR +0 02100 0 07623    07623 SXA +0 63400 2 07717    07624 TSX +0 07400 2 07717
                 T'H UPS1, FOR J = 0,1,J.G.4                                        816  LM01488
 07625 CLA +0 50000 0 01014    07626 STO +0 60100 0 00731    07627 TRA +0 02000 0 07633    07630 CLA +0 50000 0 00731
 07631 ADD +0 40000 0 01015    07632 STO +0 60100 0 00731    07633 CLA +0 50000 0 00731    07634 SUB +0 40200 0 01020
 07635 TZE +0 10000 0 07637    07636 TPL +0 12000 0 07710
                   W'R TUCARD(27).NE.$ C0056$, TUCARD(9-J) = 0                      817  LM01489
 07637 CLA +0 50000 0 00133    07640 SUB +0 40200 0 01266    07641 TZE +0 10000 0 07647    07642 CLA +0 50000 0 01025
 07643 SUB +0 40200 0 00731    07644 PAX +0 73400 1 00000    07645 CLA +0 50000 0 01014    07646 STO +0 60100 1 00166
                   TUCARD(9-J) = DEFBC.( B5(B5+J*LEN+I).A.17777777K/60 +            818  LM01490
                1                     BCDEC.(TUCARD(9-J)))                          818  LM01491
 07647 CLA +0 50000 0 01025    07650 SUB +0 40200 0 00731    07651 SUB +0 40200 0 07652    07652 TXH +3 00000 0 00166
 07653 STA +0 62100 0 07655    07654 TSX +0 07400 4 00004    07655 TXH +3 00000 0 00000    07656 STO +0 60100 0 07727
 07657 LDQ +0 56000 0 00731    07660 MPY +0 20000 0 00123    07661 XCA +0 13100 0 00000    07662 ADD +0 40000 0 00273
 07663 ADD +0 40000 0 00730    07664 PAX +0 73400 1 00000    07665 CAL -0 50000 1 00273    07666 ANA -0 32000 0 01061
 07667 SLW +0 60200 0 07730    07670 LDQ +0 56000 0 07730    07671 PXD -0 75400 0 00000    07672 LLS +0 76300 0 00000
 07673 DVP +0 22100 0 01040    07674 XCA +0 13100 0 00000    07675 ADD +0 40000 0 07727    07676 STO +0 60100 0 07730
 07677 TSX +0 07400 4 00021    07700 TXH +3 00000 0 07730    07701 STO +0 60100 0 07730    07702 CLA +0 50000 0 01025
 07703 SUB +0 40200 0 00731    07704 PAX +0 73400 1 00000    07705 CLA +0 50000 0 07730    07706 STO +0 60100 1 00166
      UPS1       C'E                                                                819  LM01492
 07707 TRA +0 02000 0 07630
                 PROBN(PROBN+I) = 0                                                 820  LM01493
 07710 CLA +0 50000 0 00752    07711 ADD +0 40000 0 00730    07712 PAX +0 73400 1 00000    07713 CLA +0 50000 0 01014
 07714 STO +0 60100 1 00752
                 F'N                                                                821  LM01494
 07715 TRA +0 02000 0 07723
                 E'N                                                                822  LM01495
 07716 TSX +0 07400 4 00030    07717 TXH +3 00000 0 00000    07720 SXD -0 63400 1 07717    07721 SXA +0 63400 4 07723
 07722 TRA +0 02000 2 00001    07723 AXT +0 77400 4 00000    07724 LXA +0 53400 2 07717    07725 LXD -0 53400 1 07717
 07726 TRA +0 02000 4 00001
                 E'M                                                                823  LM01499
 07731 TSX +0 07400 4 00030
