


AARCHV   BCD 10/04/70 1545.9   42312         00000
1     MAD PROGRAM LISTING ... ... ...                 FILE   ARCHV   MAD            02/27/70    1738.3
-
                                                                                                       LM00001
                  ARCHIV COMMAND--DON WAGNER 9 SEPT 1965                                               LM00002
                    MODIFIED BY R. ROACH 9/27/68                                                       LM00003
                                                                                                       LM00004
                                                                                                       LM00005
                  LOADING-- 'ARCHV MAD' HAS TWO INSERTS,                                               LM00006
                  'ASUBS MAD' AND 'AFORM MAD'.                                                         LM00007
                      MAD ARCHV                                                                        LM00008
                      LAED NCLOAD ARCHV (SRCH) XLIBE                                                   LM00009
                      SAVE ARCHIV                                                                      LM00010
                      RENAME ARCHIV SAVED ARCHIV TSSDC.                                                LM00011
                                                                                                       LM00012
                  INITIALIZATION                                                                       LM00013
                                                                                                       LM00014
                  WHENEVER COMARG.(1).A.77K.E.77K                                                 *001 LM00015
                       PRMESS.( $ARCHIV KEY NM1 NM2 FL1 FL2 ...$)                                 *002 LM00016
                    PRMESS.($WHERE KEY = COMBIN, TABLE, PRINT, DELETE, REPLAC$)                   *003 LM00017
                       PRMESS.($XTRACT, OR UPDATE$)                                               *004 LM00018
                       PRMESS.($ALL KEYS MAY BE ABBREVIATED BY FIRST LETTER.$)                    *005 LM00019
      OUT              CHNCOM.(0)                                                                 *006 LM00020
                  END OF CONDITIONAL                                                              *007 LM00021
                  KEY=COMARG.(1)                                                                  *008 LM00022
                  WHENEVER KEY .E. $  TOFF$                                                       *009 LM00023
                    TOFF = 1B                                                                     *010 LM00024
                    BOOLEAN TOFF                                                                  *011 LM00025
                    VECTOR VALUES TOFF = 0B                                                       *012 LM00026
                    KEY = $     T$                                                                *013 LM00027
                  END OF CONDITIONAL                                                              *014 LM00028
                  WHENEVER KEY .E. $   TON$                                                       *015 LM00029
                     TON = 1B                                                                     *016 LM00030
                     KEY = $     T$                                                               *017 LM00031
                     BOOLEAN TON                                                                  *018 LM00032
                      VECTOR VALUES TON = 0B                                                      *019 LM00033
                  END OF CONDITIONAL                                                              *020 LM00034
                  NM1=COMARG.(2)                                                                  *021 LM00035
                  NM2=COMARG.(3)                                                                  *022 LM00036
                  SETBRK.(OUT)                                                                    *023 LM00037
                                                                                                       LM00038
                  GETTM.(DATE,TIME)                                                               *024 LM00039
                    DIMENSION ANAM(2)                                                             *025 LM00040
                    EQUIVALENCE (NM1,ANAM(0)), (NM2,ANAM(1))                                      *026 LM00041
                  WHENEVER NM1.A.77K.E.77K .OR. NM2.A.77K.E.77K                                   *027 LM00042
                       PRMESS.($NOT ENOUGH ARGUMENTS$)                                            *028 LM00043
                       CHNCOM.(0)                                                                 *029 LM00044
                  END OF CONDITIONAL                                                              *030 LM00045
                                                                                                       LM00046
                  FILTAB IS A TABLE OF SPECIFIED FILES.                                                LM00047
                  FILTAB(0) CONTAINS COUNT.                                                            LM00048
                                                                                                       LM00049
                  WHENEVER NM2.E.$SOURCE$.OR.NM2.E.$ARCHIV$                                       *031 LM00050
                     NAMTYP=1B                                                                    *032 LM00051
                     THROUGH IN00, FOR FILTAB=0,2,COMARG.(FILTAB+4).A.77K.E.77K                   *033 LM00052
                1       .OR.FILTAB.E.FILTBZ                                                       *033 LM00053
                     FILTAB(FILTAB+1)=COMARG.(FILTAB+4)                                           *034 LM00054
                     WHENEVER COMARG.(FILTAB+5).A.77K.E.77K                                       *035 LM00055
                     PRMESS.( $LAST ARGUMENT INCOMPLETE, RETYPE REQUEST$)                         *036 LM00056
                     CHNCOM.(0)                                                                   *037 LM00057
                     OTHERWISE                                                                    *038 LM00058
                        FILTAB(FILTAB+2)=COMARG.(FILTAB+5)                                        *039 LM00059
                     END OF CONDITIONAL                                                           *040 LM00060
      IN00           CONTINUE                                                                     *041 LM00061
                  OTHERWISE                                                                       *042 LM00062
                     NAMTYP=0B                                                                    *043 LM00063
                     THROUGH IN01, FOR FILTAB=0,1,COMARG.(FILTAB+4).A.77K.E.77K                   *044 LM00064
                1       .OR. FILTAB.E.FILTBZ                                                      *044 LM00065
      IN01        FILTAB(FILTAB+1)=COMARG.(FILTAB+4)                                              *045 LM00066
                  END OF CONDITIONAL                                                              *046 LM00067
                                                                                                       LM00068
                  TEMPORARY FILE NAME IS PROB PROG                                                     LM00069
                                                                                                       LM00070
                  WHOAMI.(WHBUF(8)...8)                                                           *047 LM00071
                    DIMENSION WHBUF(8)                                                            *048 LM00072
                    DIMENSION TFIL(2)                                                             *049 LM00073
                  TM1=WHBUF(8)                                                                    *050 LM00074
                  TM2=WHBUF(7)                                                                    *051 LM00075
                    EQUIVALENCE (TM1,TFIL(0)), (TM2,TFIL(1))                                      *052 LM00076
                                                                                                       LM00077
                  COMBIN--MAKE ORIGINAL ARCHIV                                                         LM00078
                                                                                                       LM00079
                  WHENEVER KEY.E.$COMBIN$ .OR. KEY.E.$     C$                                     *053 LM00080
                  FSTATE.(NM1,NM2,FSBUF(8)...8,CM01)                                              *054 LM00081
                  WHENEVER NAMTYP                                                                 *055 LM00082
                  THROUGH CMP1A, FOR I=1,2,I.G.FILTAB                                             *056 LM00083
      CMP1A       WHENEVER FILTAB(I).E.NM1.AND.FILTAB(I+1).E.NM2, TRANSFER TO CM01                *057 LM00084
                  OTHERWISE                                                                       *058 LM00085
                  THROUGH CMP1B, FOR I = 1,1,I.G.FILTAB                                           *059 LM00086
      CMP1B       WHENEVER FILTAB(I).E.NM1, TRANSFER TO CM01                                      *060 LM00087
                  END OF CONDITIONAL                                                              *061 LM00088
                  PRMESS.($ YOU HAVE NOT INCLUDED THE OLD$,NM1,NM2,$.$)                           *062 LM00089
                  PRMESA.($ IS THIS OK,$)                                                         *063 LM00090
                  WHENEVER .NOT. YES.(0), TRANSFER TO FORGET                                      *064 LM00091
      CM01        CONTINUE                                                                        *065 LM00092
                  WHENEVER NAMTYP                                                                 *066 LM00093
                  THROUGH CM03A, FOR FILTBP=1,2,FILTBP.G.FILTAB                                   *067 LM00094
                  WHENEVER .NOT.CPFIL.(FILTAB(FILTBP),FILTAB(FILTBP+1)),                          *068 LM00095
                1    PRNTER.(61K)                                                                 *068 LM00096
      CM03A       CONTINUE                                                                        *069 LM00097
                  OTHERWISE                                                                       *070 LM00098
                  THROUGH CM03, FOR FILTBP=1,1,FILTBP.G.FILTAB                                    *071 LM00099
                  WHENEVER .NOT. CPFIL.(FILTAB(FILTBP),NM2),                                      *072 LM00100
                1    PRNTER.(61K)                                                                 *072 LM00101
      CM03        CONTINUE                                                                        *073 LM00102
                  END OF CONDITIONAL                                                              *074 LM00103
                  WHENEVER TMOPSW, CLS.(NM1,NM2)                                                  *075 LM00104
                  TRANSFER TO EXT                                                                 *076 LM00105
      FORGET      PRMESS.($NOTHING DONE.$)                                                        *077 LM00106
                  CHNCOM.(0)                                                                      *078 LM00107
                                                                                                       LM00108
                  TABLE--PRINT TABLE OF CONTENTS.                                                      LM00109
                                                                                                       LM00110
                  OR WHENEVER KEY.E.$ TABLE$ .OR. KEY.E.$     T$                                  *079 LM00111
                  COPYSW=0B                                                                       *080 LM00112
                  PRSSW=0B                                                                        *081 LM00113
                  VECTOR VALUES BL = 605757575757K                                                *082 LM00114
                  VECTOR VALUES CR = 555757575757K                                                *083 LM00115
      TB01        WHENEVER FILTAB.E.0                                                             *084 LM00116
                            GNEXT.(TFNF)                                                          *085 LM00117
                     WHENEVER FIRST                                                               *086 LM00118
                        FIRST = 0B                                                                *087 LM00119
                        WHENEVER TOFF, OFF.($ARCHIV$,$OUTPUT$)                                    *088 LM00120
                        WHENEVER TON, OFFON.($ARCHIV$,$OUTPUT$)                                   *089 LM00121
                            PRMESS.                                                               *090 LM00122
                        PRMESS.($ ***$,NM1,BL,NM2,BL,BL,DATE,BL,TIME)                             *091 LM00123
                       PRMESS.                                                                    *092 LM00124
                     END OF CONDITIONAL                                                           *093 LM00125
                  BOOLEAN FIRST                                                                   *094 LM00126
                  VECTOR VALUES FIRST = 1B                                                        *095 LM00127
                  OTHERWISE                                                                       *096 LM00128
                       SEARCH.(TFNF)                                                              *097 LM00129
                        WHENEVER FIRST                                                            *098 LM00130
                       FIRST = 0B                                                                 *099 LM00131
                            WHENEVER TOFF, OFF.($ARCHIV$,$OUTPUT$)                                *100 LM00132
                            WHENEVER TON, OFFON.($ARCHIV$,$OUTPUT$)                               *101 LM00133
                       END OF CONDITIONAL                                                         *102 LM00134
                  END OF CONDITIONAL                                                              *103 LM00135
                  PTLNMK.                                                                         *104 LM00136
                  TRANSFER TO TB01                                                                *105 LM00137
                                                                                                       LM00138
      TFNF        PRMESS.                                                                         *106 LM00139
                  TRANSFER TO FNF                                                                 *107 LM00140
                                                                                                       LM00141
                  DELETE--REMOVE ENTRIES                                                               LM00142
                                                                                                       LM00143
                  OR WHENEVER KEY.E.$DELETE$ .OR. KEY.E.$     D$                                  *108 LM00144
      DL01        COPYSW=1B                                                                       *109 LM00145
                  PRSSW=1B                                                                        *110 LM00146
                  WMRKSW=1B                                                                       *111 LM00147
                  SEARCH.(REN)                                                                    *112 LM00148
                  COPYSW=0B                                                                       *113 LM00149
                  GNEXT.(REN)                                                                     *114 LM00150
                  TRANSFER TO DL01                                                                *115 LM00151
                                                                                                       LM00152
                  XTRACT-                                                                              LM00153
                                                                                                       LM00154
                  OR WHENEVER KEY.E.$XTRACT$ .OR. KEY.E.$     X$ .OR. KEY.E.$    XT$              *116 LM00155
      XT01        COPYSW=0B                                                                       *117 LM00156
                  PRSSW=1B                                                                        *118 LM00157
                  WHENEVER FILTAB.NE.0                                                            *119 LM00158
                       SEARCH.(FNF)                                                               *120 LM00159
                  OTHERWISE                                                                       *121 LM00160
                       WHENEVER .NOT. GOTNXT, GNEXT.(FNF)                                         *122 LM00161
                  END OF CONDITIONAL                                                              *123 LM00162
                  NW1=FLN1.(PRLNMK)                                                               *124 LM00163
                  NW2=FLN2.(PRLNMK)                                                               *125 LM00164
                  COPYSW=1B                                                                       *126 LM00165
                  WMRKSW=0B                                                                       *127 LM00166
                  GNEXT.(XT02)                                                                    *128 LM00167
                  GOTNXT=1B                                                                       *129 LM00168
                  TRANSFER TO XT03                                                                *130 LM00169
      XT02        NAMO=1B                                                                         *131 LM00170
      XT03        WHENEVER CLS.(NW1,NW2)                                                          *132 LM00171
                       WHENEVER KEY.E.$    XT$, CHFILE.(NW1,NW2,001K,-0,-0)                       *133 LM00172
                  END OF CONDITIONAL                                                              *134 LM00173
                  WHENEVER NAMO,TRANSFER TO FNF                                                   *135 LM00174
                  TRANSFER TO XT01                                                                *136 LM00175
                                                                                                       LM00176
                  REPLAC                                                                               LM00177
                                                                                                       LM00178
                  OR WHENEVER KEY.E.$REPLAC$ .OR. KEY.E.$     R$ .OR. KEY.E.$    RD$              *137 LM00179
      RP01        COPYSW=1B                                                                       *138 LM00180
                  PRSSW=1B                                                                        *139 LM00181
                  WMRKSW=1B                                                                       *140 LM00182
                  WHENEVER FILTAB.NE.0                                                            *141 LM00183
                       SEARCH.(RP02)                                                              *142 LM00184
                  OTHERWISE                                                                       *143 LM00185
                       WHENEVER .NOT. GOTNXT, GNEXT.(RP02)                                        *144 LM00186
                  END OF CONDITIONAL                                                              *145 LM00187
                  GOTNXT=0B                                                                       *146 LM00188
                  WHENEVER .NOT. CPFIL.(FLN1.(PRLNMK),FLN2.(PRLNMK))                              *147 LM00189
                       PRNTER.(61K)                                                               *148 LM00190
                       COPYSW=1B                                                                  *149 LM00191
                  OTHERWISE                                                                       *150 LM00192
                  WHENEVER DELST.L.DELSTZ                                                         *151 LM00193
                       DELST=DELST+1                                                              *152 LM00194
                       DELST1(DELST)=FLN1.(PRLNMK)                                                *153 LM00195
                       DELST2(DELST)=FLN2.(PRLNMK)                                                *154 LM00196
                  END OF CONDITIONAL                                                              *155 LM00197
                       COPYSW=0B                                                                  *156 LM00198
                  END OF CONDITIONAL                                                              *157 LM00199
                  GNEXT.(RP02)                                                                    *158 LM00200
                  GOTNXT=1B                                                                       *159 LM00201
                  TRANSFER TO RP01                                                                *160 LM00202
      RP02        WHENEVER NAMTYP                                                                 *161 LM00203
                     TYP=1                                                                        *162 LM00204
                  OTHERWISE                                                                       *163 LM00205
                     TYP=0                                                                        *164 LM00206
                  END OF CONDITIONAL                                                              *165 LM00207
                  THROUGH RP03, FOR JI=1,1,JI+TYP*(JI-1).G.FILTAB                                 *166 LM00208
                  WHENEVER NAMTYP                                                                 *167 LM00209
                     JJ=2*JI-1                                                                    *168 LM00210
                     CNM2=FILTAB(JJ+1)                                                            *169 LM00211
                  OTHERWISE                                                                       *170 LM00212
                     JJ=JI                                                                        *171 LM00213
                     CNM2=NM2                                                                     *172 LM00214
                  END OF CONDITIONAL                                                              *173 LM00215
                  WHENEVER .NOT. FILFND(JI)                                                       *174 LM00216
                  PRMESS.(FILTAB(JJ),BL,CNM2,$ ADDED$,606346605757K,NM1,BL,NM2)                   *175 LM00217
                       WHENEVER .NOT. CPFIL.(FILTAB(JJ),CNM2)                                     *176 LM00218
                            PRNTER.(61K)                                                          *177 LM00219
                       OTHERWISE                                                                  *178 LM00220
                            FILFND(JI)=1B                                                         *179 LM00221
                       WHENEVER DELST.L.DELSTZ                                                    *180 LM00222
                            DELST=DELST+1                                                         *181 LM00223
                            DELST1(DELST)=FILTAB(JJ)                                              *182 LM00224
                            DELST2(DELST)=CNM2                                                    *183 LM00225
                       END OF CONDITIONAL                                                         *184 LM00226
                       END OF CONDITIONAL                                                         *185 LM00227
      RP03        END OF CONDITIONAL                                                              *186 LM00228
                  WHENEVER CLS.(NM1,NM2)                                                          *187 LM00229
                  WHENEVER KEY.E.$    RD$                                                         *188 LM00230
                       THROUGH RPD01, FOR I=1,1,I.G.DELST                                         *189 LM00231
      RPD01                 DELT.(DELST1(I),DELST2(I))                                            *190 LM00232
                  END OF CONDITIONAL                                                              *191 LM00233
                  END OF CONDITIONAL                                                              *192 LM00234
                  TRANSFER TO EXT                                                                 *193 LM00235
                  BOOLEAN GOTNXT                                                                  *194 LM00236
                  DIMENSION DELST1(100), DELST2(100)                                              *195 LM00237
                  VECTOR VALUES DELSTZ=100                                                        *196 LM00238
                                                                                                       LM00239
                  UPDATE--CONDITIONAL REPLAC                                                           LM00240
                                                                                                       LM00241
                  OR WHENEVER KEY.E.$UPDATE$ .OR. KEY.E.$     U$                                  *197 LM00242
      UP01        COPYSW=1B                                                                       *198 LM00243
                  PRSSW=1B                                                                        *199 LM00244
                  WMRKSW=1B                                                                       *200 LM00245
                  WHENEVER FILTAB.NE.0                                                            *201 LM00246
                       SEARCH.(REN)                                                               *202 LM00247
                  OTHERWISE                                                                       *203 LM00248
                       WHENEVER .NOT. GOTNXT, GNEXT.(REN)                                         *204 LM00249
                  END OF CONDITIONAL                                                              *205 LM00250
                  FSTATE.(FLN1.(PRLNMK),FLN2.(PRLNMK),FSBUF(8)...8,UP02)                          *206 LM00251
                  WHENEVER FSBUF(2).A.377777777777K.G.DATTM.(PRLNMK).A.377777777777K              *207 LM00252
                       PTLNMK.                                                                    *208 LM00253
                       COPYSW=0B                                                                  *209 LM00254
                       WHENEVER .NOT. CPFIL.(FLN1.(PRLNMK),FLN2.(PRLNMK)), COPYSW=1B              *210 LM00255
                  OTHERWISE                                                                       *211 LM00256
      UP02             COPYSW=1B                                                                  *212 LM00257
                  END OF CONDITIONAL                                                              *213 LM00258
                  GNEXT.(REN)                                                                     *214 LM00259
                  GOTNXT=1B                                                                       *215 LM00260
                  TRANSFER TO UP01                                                                *216 LM00261
                                                                                                       LM00262
                  ERROR                                                                                LM00263
                                                                                                       LM00264
                  OTHERWISE                                                                       *217 LM00265
                  PRMESS.(KEY,$ -- NOT A VALID ARGUMENT.$)                                        *218 LM00266
                  CHNCOM.(0)                                                                      *219 LM00267
                  END OF CONDITIONAL                                                              *220 LM00268
                                                                                                       LM00269
                  GRACEFUL EXIT                                                                        LM00270
                                                                                                       LM00271
      SPC         PRMESS.                                                                         *221 LM00272
                  TRANSFER TO FNF                                                                 *222 LM00273
      REN         CLS.(NM1,NM2)                                                                   *223 LM00274
      FNF         WHENEVER NAMTYP                                                                 *224 LM00275
                     THROUGH FN01A, FOR I = 1,1,I.G.FILTAB/2                                      *225 LM00276
                     WHENEVER .NOT.FILFND(I)                                                      *226 LM00277
                  PRMESS.(FILTAB(2*I-1),BL,FILTAB(2*I),$ NOT FOUND I$,                            *227 LM00278
                1  456057575757K,NM1,BL,NM2)                                                      *227 LM00279
      FN01A          END OF CONDITIONAL                                                           *228 LM00280
                  OTHERWISE                                                                       *229 LM00281
                     THROUGH FNO1B, FOR I=1,1,I.G.FILTAB                                          *230 LM00282
                     WHENEVER .NOT.FILFND(I)                                                      *231 LM00283
                       PRMESS.(FILTAB(I),BL,NM2,$ NOT FOUND I$,456057575757K,                     *232 LM00284
                1   NM1,BL,NM2)                                                                   *232 LM00285
      FNO1B          END OF CONDITIONAL                                                           *233 LM00286
                  END OF CONDITIONAL                                                              *234 LM00287
      EXT         CHNCOM.(0)                                                                      *235 LM00288
                  PRMESS.($FRAM$)                                                                 *236 LM00289
                  PRMESS.($NOTIFY SYSTEMS STAFF$)                                                 *237 LM00290
                  DORMNT.                                                                         *238 LM00291
                                                                                                       LM00292
                  ASUBS CONTAINS INTERNAL FUNCTIONS SEARCH., GNEXT., CPFIL.,                           LM00293
                  CLS., YES.                                                                           LM00294
                  AFORM CONTAINS INTERNAL FUNCTIONS MKLNMK., BDLNMK., DATTM.,                          LM00295
                  FLN1., FLN2., CNT.                                                                   LM00296
                  AFORM CONTAINS ALL INFORMATION ON THE ACTUAL LINE MARK FORMA                         LM00297
                                                                                                       LM00298
                  INSERT FILE ASUBS                                                               *239 LM00299
                  SEARCH. FINDS THE NEXT 'SUPER LINE MARK' WHOSE                                  *239 LM00001
                  NAME IS IN THE TABLE FILTAB SET UP DURING                                       *239 LM00002
                  INITIALIZATION.                                                                 *239 LM00003
                                                                                                  *239 LM00004
                  THE SEARCH WILL INCLUDE PRLNMK, THE PRESENT LINE MARK,                          *239 LM00005
                  IFF PRSSW.E.1B                                                                  *239 LM00006
                                                                                                  *239 LM00007
                  INTERNAL FUNCTION (EOFXT)                                                       *240 LM00008
                  STATEMENT LABEL EOFXT                                                           *241 LM00009
                  ENTRY TO SEARCH.                                                                *242 LM00010
                  WHENEVER NAMTYP                                                                 *243 LM00011
                     WHENEVER .NOT. COPYSW                                                        *244 LM00012
                     THROUGH SR00A, FOR I=1,1,I.G.FILTAB                                          *245 LM00013
      SR00A       WHENEVER .NOT. FILFND(I), TRANSFER TO SRP0A                                     *246 LM00014
                     BFCLOS.(NM1,NM2,GERR)                                                        *247 LM00015
                     AROPSW=0B                                                                    *248 LM00016
                     TRANSFER TO EOFXT                                                            *249 LM00017
                  END OF CONDITIONAL                                                              *250 LM00018
      SRP0A       CONTINUE                                                                        *251 LM00019
                  WHENEVER PRSSW.AND.AROPSW, TRANSFER TO SR02A                                    *252 LM00020
      SR01A       GNEXT.(EOFXT)                                                                   *253 LM00021
      SR02A       THROUGH SR03A, FOR FILTBP=1,2,FILTBP.G.FILTAB                                   *254 LM00022
                  PNTR=(FILTBP+1)/2                                                               *255 LM00023
                  WHENEVER FLN1.(PRLNMK).E.FILTAB(FILTBP)                                         *256 LM00024
                1    .AND.FLN2.(PRLNMK).E.FILTAB(FILTBP+1)                                        *256 LM00025
                2    .AND..NOT.FILFND(PNTR)                                                       *256 LM00026
                  FILFND(PNTR)=1B                                                                 *257 LM00027
                  FUNCTION RETURN                                                                 *258 LM00028
      SR03A       END OF CONDITIONAL                                                              *259 LM00029
                  TRANSFER TO SR01A                                                               *260 LM00030
                  OTHERWISE                                                                       *261 LM00031
                  WHENEVER .NOT.COPYSW                                                            *262 LM00032
                     THROUGH SR00, FOR I=1,1,I.G.FILTAB                                           *263 LM00033
      SR00           WHENEVER .NOT.FILFND(I), TRANSFER TO SRP0                                    *264 LM00034
                     BFCLOS.(NM1,NM2,GERR)                                                        *265 LM00035
                     AROPSW=0B                                                                    *266 LM00036
                     TRANSFER TO EOFXT                                                            *267 LM00037
                  END OF CONDITIONAL                                                              *268 LM00038
      SRP0        CONTINUE                                                                        *269 LM00039
                  WHENEVER PRSSW.AND.AROPSW, TRANSFER TO SR02                                     *270 LM00040
      SR01        GNEXT.(EOFXT)                                                                   *271 LM00041
      SR02        WHENEVER FLN2.(PRLNMK).NE.NM2                                                   *272 LM00042
                     TRANSFER TO SR01                                                             *273 LM00043
                  OTHERWISE                                                                       *274 LM00044
                     THROUGH SR03, FOR FILTBP=1,1,FILTBP.G.FILTAB                                 *275 LM00045
                  WHENEVER FLN1.(PRLNMK).E.FILTAB(FILTBP)                                         *276 LM00046
                1    .AND..NOT.FILFND(FILTBP)                                                     *276 LM00047
                        FILFND(FILTBP)=1B                                                         *277 LM00048
                        FUNCTION RETURN                                                           *278 LM00049
      SR03           END OF CONDITIONAL                                                           *279 LM00050
                  TRANSFER TO SR01                                                                *280 LM00051
                  END OF CONDITIONAL                                                              *281 LM00052
                  END OF CONDITIONAL                                                              *282 LM00053
                  END OF FUNCTION                                                                 *283 LM00054
                                                                                                       LM00055
                  GNEXT. FINDS THE NEXT 'SUPER LINE MARK,' READING                                     LM00056
                  SERIALLY THROUGH THE ARCHIV FILE AND COPYING IT                                      LM00057
                  INTO THE TEMPORARY FILE IFF COPYSW.E.1B.                                             LM00058
                  PRLNMK, THE PRESENT LINE MARK, IS COPIED IFF WMRKSW.E.1B                             LM00059
                                                                                                       LM00060
                  INTERNAL FUNCTION (EOFXT)                                                       *284 LM00061
                  STATEMENT LABEL EOFXT                                                           *285 LM00062
                  ENTRY TO GNEXT.                                                                 *286 LM00063
                  WHENEVER .NOT. AROPSW                                                           *287 LM00064
                       BFOPEN.($R$,NM1,NM2,BUF1(BUFZ),BUF2(BUFZ),-0,GERR)                         *288 LM00065
                       BFREAD.(NM1,NM2,PRLNMK(LMKZ)...LMKZ,FRMER,EOFCT,GERR)                      *289 LM00066
                       WHENEVER BDLNMK.(PRLNMK)                                                   *290 LM00067
                       TRANSFER TO FRMER                                                          *291 LM00068
                       END OF CONDITIONAL                                                         *292 LM00069
                  AROPSW=1B                                                                       *293 LM00070
                  FUNCTION RETURN                                                                 *294 LM00071
                  END OF CONDITIONAL                                                              *295 LM00072
                  WHENEVER COPYSW .AND. .NOT. TMOPSW                                              *296 LM00073
                       DELETE.(TM1,TM2,0,OUT)                                                     *297 LM00074
                       BFOPEN.($W$,TM1,TM2,BUF3(BUFZ),BUF4(BUFZ),BUF5(BUFZ),                      *298 LM00075
                1        GERR)                                                                    *298 LM00076
                       TMOPSW=1B                                                                  *299 LM00077
                  END OF CONDITIONAL                                                              *300 LM00078
                  WHENEVER COPYSW .AND. WMRKSW                                                    *301 LM00079
                       BFWRIT.(TM1,TM2,PRLNMK(LMKZ)...LMKZ,GERR)                                  *302 LM00080
                  END OF CONDITIONAL                                                              *303 LM00081
                  WHENEVER .NOT. ADJSW                                                            *304 LM00082
                       AFZ=CNT.(PRLNMK)                                                           *305 LM00083
                       THROUGH COPY, FOR I=CPBUFZ,CPBUFZ,I.GE.AFZ                                 *306 LM00084
                            BFREAD.(NM1,NM2,CPBUF(CPBUFZ)...CPBUFZ,                               *307 LM00085
                1             FRMER,EOFCT,GERR)                                                   *307 LM00086
                            WHENEVER COPYSW                                                       *308 LM00087
                                 BFWRIT.(TM1,TM2,CPBUF(CPBUFZ)...CPBUFZ,GERR)                     *309 LM00088
                            END OF CONDITIONAL                                                    *310 LM00089
      COPY             CONTINUE                                                                   *311 LM00090
                       REMN=CPBUFZ-(I-AFZ)                                                        *312 LM00091
                       BFREAD.(NM1,NM2,CPBUF(REMN)...REMN,                                        *313 LM00092
                1        FRMER,EOFCT,GERR)                                                        *313 LM00093
                       WHENEVER COPYSW                                                            *314 LM00094
                            WHENEVER .NOT. WMRKSW                                                 *315 LM00095
                                 THROUGH FXT, FOR I = 27, -9, I.L.0                               *316 LM00096
                                 WHENEVER ((CPBUF (1) .RS. I) .A. 777K) .E. 000K                  *317 LM00097
                                 CPBUF (1) = CPBUF (1) .V. 003K .LS. I                            *318 LM00098
                                 TRANSFER TO EFXT                                                 *319 LM00099
      FXT                        END OF CONDITIONAL                                               *320 LM00100
      EFXT                  END OF CONDITIONAL                                                    *321 LM00101
                            BFWRIT.(TM1,TM2,CPBUF(REMN)...REMN,GERR)                              *322 LM00102
                       END OF CONDITIONAL                                                         *323 LM00103
                  END OF CONDITIONAL                                                              *324 LM00104
                  BFREAD.(NM1,NM2,PRLNMK(LMKZ)...LMKZ,EOF,EOFCT,GERR)                             *325 LM00105
                  WHENEVER BDLNMK.(PRLNMK),TRANSFER TO FRMER                                      *326 LM00106
                  ADJSW=0B                                                                        *327 LM00107
                  FUNCTION RETURN                                                                 *328 LM00108
      EOF         BFCLOS.(NM1,NM2,GERR)                                                           *329 LM00109
                  AROPSW=0B                                                                       *330 LM00110
                  TRANSFER TO EOFXT                                                               *331 LM00111
      FRMER       PRMESS.($ARCHIV FORMAT ERROR IN$,NM1,BL,NM2)                                    *332 LM00112
                  BFCLOS.($   ALL$,-0,GERR)                                                       *333 LM00113
                  CHNCOM.(1)                                                                      *334 LM00114
      GERR        PRNTER.(61K)                                                                    *335 LM00115
                  CHNCOM.(1)                                                                      *336 LM00116
                  END OF FUNCTION                                                                 *337 LM00117
                                                                                                       LM00118
                  CPFIL.(A,B) COPIES FILE A B INTO THE TEMPORARY FILE.                                 LM00119
                  CPFIL. ALWAYS MAKES THE LINE MARK NWLNMK AND WRITES                                  LM00120
                  IT AT THE BEGINNING OF THE ENTRY UNLESS THE FILE IS AN                               LM00121
                  ARCHIV FILE ALREADY.                                                                 LM00122
                                                                                                       LM00123
                  RETURNS 1B IFF SUCCESSFUL                                                            LM00124
                                                                                                       LM00125
                  BOOLEAN CPFIL.                                                                  *338 LM00126
                  INTERNAL FUNCTION(A,B)                                                          *339 LM00127
                  ENTRY TO CPFIL.                                                                 *340 LM00128
                  WHENEVER .NOT. MKLNMK.(A,B,CT)                                                  *341 LM00129
                       FUNCTION RETURN 0B                                                         *342 LM00130
                  OTHERWISE                                                                       *343 LM00131
                       WHENEVER .NOT. TMOPSW                                                      *344 LM00132
                            DELETE.(TM1,TM2,0,OUT)                                                *345 LM00133
                            BFOPEN.($W$,TM1,TM2,BUF3(BUFZ),BUF4(BUFZ),                            *346 LM00134
                1             BUF5(BUFZ),GERR)                                                    *346 LM00135
                            TMOPSW=1B                                                             *347 LM00136
                       END OF CONDITIONAL                                                         *348 LM00137
                       BFOPEN.($R$,A,B,BUF6(BUFZ),BUF7(BUFZ),-0,GERR)                             *349 LM00138
                       FRSTSW=1B                                                                  *350 LM00139
                       THROUGH CPF01, FOR I=CPBUFZ,CPBUFZ,I.G.CT                                  *351 LM00140
                            BFREAD.(A,B,CPBUF(CPBUFZ)...CPBUFZ,                                   *352 LM00141
                1             CPFEF,EOFCT,GERR)                                                   *352 LM00142
                            WHENEVER BDLNMK.(CPBUF(CPBUFZ-LMKZ)) .AND. FRSTSW                     *353 LM00143
                                 BFWRIT.(TM1,TM2,NWLNMK(LMKZ)...LMKZ,GERR)                        *354 LM00144
                            END OF CONDITIONAL                                                    *355 LM00145
                       FRSTSW=0B                                                                  *356 LM00146
      CPF01                 BFWRIT.(TM1,TM2,CPBUF(CPBUFZ)...CPBUFZ,GERR)                          *357 LM00147
                       REMN=CPBUFZ-(I-CT)                                                         *358 LM00148
                       BFREAD.(A,B,CPBUF(REMN)...REMN,CPFEF,EOFCT,GERR)                           *359 LM00149
                       WHENEVER  BDLNMK.(CPBUF(REMN-LMKZ)) .AND. FRSTSW                           *360 LM00150
                            BFWRIT.(TM1,TM2,NWLNMK(LMKZ)...LMKZ,GERR)                             *361 LM00151
                       END OF CONDITIONAL                                                         *362 LM00152
                                                                                                       LM00153
                      ERASE '003' CHARACTER AT END                                                     LM00154
                                                                                                       LM00155
                  THROUGH FDLOOP, FOR I = 27,-9,(I.L.0)                                           *363 LM00156
                       WHENEVER ((CPBUF(1).RS.I).A.777K).E.003K,                                  *364 LM00157
                1           CPBUF(1) = CPBUF(1) .EX. (3K.LS.I)                                    *364 LM00158
      FDLOOP      CONTINUE                                                                        *365 LM00159
                       BFWRIT.(TM1,TM2,CPBUF(REMN)...REMN,GERR)                                   *366 LM00160
                       BFCLOS.(A,B,GERR)                                                          *367 LM00161
                       FUNCTION RETURN 1B                                                         *368 LM00162
                  END OF CONDITIONAL                                                              *369 LM00163
      CPFEF       PRINT COMMENT $ERROR IN FSTATE.--NOTIFY SYSTEMS STAFF.$                         *370 LM00164
                  PRINT COMMENT $DORMNT CALLED$                                                   *371 LM00165
                  DORMNT.                                                                         *372 LM00166
                  END OF FUNCTION                                                                 *373 LM00167
                  NORMAL MODE IS INTEGER                                                          *374 LM00168
                  BOOLEAN COPYSW, PRSSW, WMRKSW, AROPSW, TMOPSW, FRSTSW                           *375 LM00169
                  BOOLEAN NAMO, ADJSW, NAMTYP                                                     *376 LM00170
                  VECTOR VALUES BUFZ=432                                                          *377 LM00171
                  DIMENSION BUF1(432), BUF2(432), BUF3(432), BUF4(432), BUF5(432),                *378 LM00172
                1   BUF6(432), BUF7(432)                                                          *378 LM00173
                  DIMENSION CPBUF(432)                                                            *379 LM00174
                    VECTOR VALUES CPBUFZ=432                                                      *380 LM00175
                  VECTOR VALUES FILTBZ=16                                                         *381 LM00176
                  DIMENSION FILTAB(16)                                                            *382 LM00177
                  BOOLEAN FILFND                                                                  *383 LM00178
                  DIMENSION FILFND(16)                                                            *384 LM00179
                                                                                                       LM00180
                  CLS.(A,B) CLOSES THE TEMPORARY FILE AND RENAMES IT A B                               LM00181
                                                                                                       LM00182
                  BOOLEAN CLS.                                                                    *385 LM00183
                  INTERNAL FUNCTION (A,B)                                                         *386 LM00184
                  ENTRY TO CLS.                                                                   *387 LM00185
                  WHENEVER TMOPSW                                                                 *388 LM00186
                       BFCLOS.(TM1,TM2,GERR)                                                      *389 LM00187
                       TMOPSW=0B                                                                  *390 LM00188
                       DIMENSION FNM(2)                                                           *391 LM00189
                       FNM(0)=A                                                                   *392 LM00190
                       FNM(1)=B                                                                   *393 LM00191
                       FSTATE.(A,B,FSBUF(8)...8,NFND)                                             *394 LM00192
                         EQUIVALENCE (MODE,FSBUF(7))                                              *395 LM00193
                       MODE=MODE.A.134K                                                           *396 LM00194
      CL01        DELETE.(A,B,0,NDEL1)                                                            *397 LM00195
                  CHFILE.(TM1,TM2,-0,A,B)                                                         *398 LM00196
                       WHENEVER MODE.NE.000K .AND. KEY.NE.$    XT$                                *399 LM00197
                            CHFILE.(A,B,MODE,-0,-0)                                               *400 LM00198
                       MODEP = (OCRBC.(MODE).A.777777K).V.575757K6                                *401 LM00199
                       PRMESS.(A,BL,B,BL,$CREATED IN '$,MODEP,$' MODE.$)                          *402 LM00200
                       END OF CONDITIONAL                                                         *403 LM00201
                       FUNCTION RETURN 1B                                                         *404 LM00202
      NDEL1            FUNCTION RETURN 0B                                                         *405 LM00203
                  OTHERWISE                                                                       *406 LM00204
                       FUNCTION RETURN 0B                                                         *407 LM00205
                  END OF CONDITIONAL                                                              *408 LM00206
      NFND        MODE=000K                                                                       *409 LM00207
                  TRANSFER TO CL01                                                                *410 LM00208
                  END OF FUNCTION                                                                 *411 LM00209
                                                                                                       LM00210
                                                                                                       LM00211
                  YES. READS A LINE AND RETURNS 1B IFF IT IS 'YES'                                     LM00212
                                                                                                       LM00213
                  BOOLEAN YES.                                                                    *412 LM00214
                  INTERNAL FUNCTION                                                               *413 LM00215
                  ENTRY TO YES.                                                                   *414 LM00216
                  RDFLXC.(YESNO,6)                                                                *415 LM00217
                  WHENEVER YESNO.E.$YES   $                                                       *416 LM00218
                       FUNCTION RETURN 1B                                                         *417 LM00219
                  OTHERWISE                                                                       *418 LM00220
                       FUNCTION RETURN 0B                                                         *419 LM00221
                  END OF CONDITIONAL                                                              *420 LM00222
                  END OF FUNCTION                                                                 *421 LM00223
                                                                                                       LM00224
                  DELT. DELETES A FILE AND TELLS YOU ABOUT IT.                                         LM00225
                  RETURNS 1B IFF SUCCESSFUL.                                                           LM00226
                                                                                                       LM00227
                  BOOLEAN DELT.                                                                   *422 LM00228
                  INTERNAL FUNCTION (A,B)                                                         *423 LM00229
                  ENTRY TO DELT.                                                                  *424 LM00230
                  FNM(0)=A                                                                        *425 LM00231
                  FNM(1)=B                                                                        *426 LM00232
                  DELETE.(A,B,0,NOTDEL)                                                           *427 LM00233
                       PRMESS.(A,BL,B,$ DELETED.$)                                                *428 LM00234
                       FUNCTION RETURN 1B                                                         *429 LM00235
      NOTDEL      PRMESS.(A,BL,B,$ NOT DELETED.$)                                                 *430 LM00236
                  FUNCTION RETURN 0B                                                              *431 LM00237
                  END OF FUNCTION                                                                 *432 LM00238
                  INSERT FILE AFORM                                                               *433 LM00300
                                                                                                  *433 LM00001
                      THE FORMAT OF 'SUPER LINE MARK' IN ASCII ARCHIV FILES                       *433 LM00002
                      IS DEFINED AS FOLLOWS:                                                      *433 LM00003
                      FF NL NL NL DEL DEL DEL DEL                                                 *433 LM00004
                      NAME1 SP SP NAME2 SP SP MM/DD/YY SP SP                                      *433 LM00005
                      HHMM.M SP SP ZZZZZZ DEL DEL DEL DEL NL NL NL NL                             *433 LM00006
                      TOTALLING 14 WORDS.  ZZZZZZ IS THE WORD COUNT.                              *433 LM00007
                      THE FOLLOWING INTERNAL FUNCTIONS DIDDLE                                     *433 LM00008
                      WITH THIS INFO AND ARE CALLED BY THE REST OF THE                            *433 LM00009
                      ARCHIV ROUTINES.                                                            *433 LM00010
                           D.R. WIDRIG  APRIL 1967                                                *433 LM00011
                                                                                                  *433 LM00012
                      MKLNMK.(A,B,CT) MAKES A 'SUPER LINE MARK' FOR 'A B'                         *433 LM00013
                      IN NWLNMK AND SET 'CT' = FILE SIZE. THE ROUTINE                             *433 LM00014
                      RETURNS 1B IF OK, 0B IF FILE DOES NOT EXIST.                                *433 LM00015
                                                                                                  *433 LM00016
                  INTERNAL FUNCTION (A,B,CT)                                                      *434 LM00017
                  ENTRY TO MKLNMK.                                                                *435 LM00018
                  BOOLEAN MKLNMK.                                                                 *436 LM00019
                  FSTATE.(A,B,CT...1,NTFND)                                                       *437 LM00020
                  RCONV.(BZEL.(DEFBC.(CT)),NWLNMK(4),NWLNMK(3))                                   *438 LM00021
                                                                                                       LM00022
                      PREPARE LINE MARK                                                                LM00023
                                                                                                       LM00024
                  VECTOR VALUES NWLNMK(13) = 177 177 011 011K, 014 012 012 012K                   *439 LM00025
                  VECTOR VALUES NWLNMK(1) = 012 012 012 012K, 177 177 177 177K                    *440 LM00026
                  LCONV.(A,NWLNMK(12),NWLNMK(11))                                                 *441 LM00027
                  LCONV.(B,NWLNMK(10),NWLNMK(9))                                                  *442 LM00028
                                                                                                       LM00029
                      GET TIME OF CREATION, IF NOT ALREADY DONE                                        LM00030
                                                                                                       LM00031
                  VECTOR VALUES GOTTM = 0B                                                        *443 LM00032
                  WHENEVER .NOT. GOTTM                                                            *444 LM00033
                       GOTTM = 1B                                                                 *445 LM00034
                       GETTIM.(PDATE,PTIME)                                                       *446 LM00035
                       RCONV.(PTIME,NWLNMK(6),NWLNMK(5))                                          *447 LM00036
                       TEMP1 = (PDATE.A.7777K8) .V. $00/00/$ .V.                                  *448 LM00037
                1           ((PDATE.RS.6).A.7777K2)                                               *448 LM00038
                       LCONV.(TEMP1,NWLNMK(8),NWLNMK(7))                                          *449 LM00039
                       NWLNMK(7) = (NWLNMK(7).A.777777K6) .V.                                     *450 LM00040
                1           TSSASC.((PDATE.RS.6).A.77K).LS.9 .V.                                  *450 LM00041
                2           TSSASC.(PDATE.A.77K)                                                  *450 LM00042
                  END OF CONDITIONAL                                                              *451 LM00043
                  FUNCTION RETURN 1B                                                              *452 LM00044
                                                                                                       LM00045
      NTFND       FUNCTION RETURN 0B                                                              *453 LM00046
                  END OF FUNCTION                                                                 *454 LM00047
                                                                                                       LM00048
                      BDLNMK.(LMK) RETURNS 1B IF LMK(LMKZ)...LMKZ                                      LM00049
                      IS NOT A 'SUPER LINE MARK', 0B IF IT IS.                                         LM00050
                                                                                                       LM00051
                  BOOLEAN BDLNMK.                                                                 *455 LM00052
                  INTERNAL FUNCTION BDLNMK.(LMK)=(LMK(14) .NE. NWLNMK(14)) .OR.                   *456 LM00053
                1      (LMK(13) .NE. NWLNMK(13)) .OR. (LMK(2) .NE. NWLNMK(2))                     *456 LM00054
                2      .OR. (LMK(1) .NE. NWLNMK(1))                                               *456 LM00055
                                                                                                       LM00056
                      DATTM.(LMK) RETURNS THE DATE AND TIME OF ARCHIVING                               LM00057
                      OF THE FILE HEADED BY LMK(LMKZ)...LMKZ IN FILE SYSTEM                            LM00058
                      FORMAT.                                                                          LM00059
                                                                                                       LM00060
                  INTERNAL FUNCTION (LMK)                                                         *457 LM00061
                  ENTRY TO DATTM.                                                                 *458 LM00062
                  TEMP1 = CONVL.(LMK(8),LMK(7))                                                   *459 LM00063
                  TEMP1 = (TEMP1.A.7777K8) .V. ((TEMP1.LS.6).A.7777K4)                            *460 LM00064
                  TEMP1 = TEMP1 .V. (CONVR.(LMK(8),LMK(7)).A.7777K)                               *461 LM00065
                  TEMP2 = CONVR.(LMK(6),LMK(5))                                                   *462 LM00066
                                                                                                       LM00067
                      NOW, CONVERT IBM BCD INTO FILE SYSTEM FORMAT                                     LM00068
                                                                                                       LM00069
                  FUNCTION RETURN (BCDEC.(TEMP1.A.7777K).LS. 27) .V.                              *463 LM00070
                1      (BCDEC.((TEMP1.RS.12).A.7777K).LS.18) .V.                                  *463 LM00071
                2      (BCDEC.(TEMP1.RS.24).LS.23) .V.                                            *463 LM00072
                3      (BCDEC.(TEMP2.RS.24)*3600 +                                                *463 LM00073
                4      BCDEC.((TEMP2.RS.12).A.7777K)*60 +                                         *463 LM00074
                5      BCDEC.(TEMP2.A.77K)*6)                                                     *463 LM00075
                  END OF FUNCTION                                                                 *464 LM00076
                                                                                                       LM00077
                      INTERNAL FUNCTIONS TO GET NAMES AND COUNTS                                       LM00078
                                                                                                       LM00079
                  INTERNAL FUNCTION CNT.(LMK) = BCDEC.(CONVR.(LMK(4),LMK(3)))                     *465 LM00080
                  INTERNAL FUNCTION FLN1.(LMK) = CONVL.(LMK(12),LMK(11))                          *466 LM00081
                  INTERNAL FUNCTION FLN2.(LMK) = CONVL.(LMK(10),LMK(9))                           *467 LM00082
                                                                                                       LM00083
                      PTLNMK. PRINTS OUT THE CURRENT 'SUPER LINE MARK'                                 LM00084
                                                                                                       LM00085
                  INTERNAL FUNCTION                                                               *468 LM00086
                  ENTRY TO PTLNMK.                                                                *469 LM00087
                  PRMESS. (CONVL.(PRLNMK(12),PRLNMK(11)), BL,                                     *470 LM00088
                1      CONVL.(PRLNMK(10),PRLNMK(9)), BL,                                          *470 LM00089
                2      CONVL.(PRLNMK(8),PRLNMK(7)),                                               *470 LM00090
                3      CONVR.(PRLNMK(8),PRLNMK(7)) .LS. 24 .V. 60575757K,                         *470 LM00091
                4      CONVR.(PRLNMK(6),PRLNMK(5)), BL,                                           *470 LM00092
                5      CONVR.(PRLNMK(4),PRLNMK(3)) )                                              *470 LM00093
                  FUNCTION RETURN                                                                 *471 LM00094
                  END OF FUNCTION                                                                 *472 LM00095
                                                                                                       LM00096
                  DIMENSION PRLNMK(14),NWLNMK(14)                                                 *473 LM00097
                  VECTOR VALUES LMKZ = 14                                                         *474 LM00098
                  DIMENSION FSBUF (432)                                                           *475 LM00099
                                                                                                       LM00100
                      UTILITY ROUTINES FOR ASCII-BCD AND BCD-ASCII                                     LM00101
                      NOT VERY PLEASANT BUT WIDRIG GETS LAZY SOMETIMES                                 LM00102
                                                                                                       LM00103
                                                                                                       LM00104
                      THIS ROUTINE CONVERTS 6 BCD CHARS TO 8 ASCII                                     LM00105
                      RIGHT-ADJUSTED WITH LEADING BLANKS                                               LM00106
                                                                                                       LM00107
                  INTERNAL FUNCTION (ARG1,ARG2,ARG3)                                              *476 LM00108
                  ENTRY TO RCONV.                                                                 *477 LM00109
                  ARG2 = 040 040K6 .V. (TSSASC.(ARG1.RS.30).LS.9) .V.                             *478 LM00110
                1      TSSASC.((ARG1.RS.24).A.77K)                                                *478 LM00111
                  ARG3 = (TSSASC.((ARG1.RS.18).A.77K).LS.27)                                      *479 LM00112
                1      .V. (TSSASC.((ARG1.RS.12).A.77K).LS.18)                                    *479 LM00113
                2      .V. (TSSASC.((ARG1.RS.6).A.77K) .LS. 9)                                    *479 LM00114
                3      .V. TSSASC.(ARG1.A.77K)                                                    *479 LM00115
                  FUNCTION RETURN                                                                 *480 LM00116
                  END OF FUNCTION                                                                 *481 LM00117
                                                                                                       LM00118
                      THIS ROUTINE CONVERTS 6 BCD CHARS TO 8 ASCII                                     LM00119
                      LEFT-ADJUSTED WITH TRAILING BLANKS                                               LM00120
                                                                                                       LM00121
                  INTERNAL FUNCTION (ARG1,ARG2,ARG3)                                              *482 LM00122
                  ENTRY TO LCONV.                                                                 *483 LM00123
                  ARG2 = (TSSASC.((ARG1.RS.30)).LS.27)                                            *484 LM00124
                1      .V. (TSSASC.((ARG1.RS.24).A.77K).LS.18)                                    *484 LM00125
                2      .V. (TSSASC.((ARG1.RS.18).A.77K).LS.9)                                     *484 LM00126
                3      .V. TSSASC.((ARG1.RS.12).A.77K)                                            *484 LM00127
                  ARG3 = 040 040K .V. (TSSASC.((ARG1.RS.6).A.77K).LS.27) .V.                      *485 LM00128
                1      (TSSASC.(ARG1.A.77K).LS.18)                                                *485 LM00129
                  FUNCTION RETURN                                                                 *486 LM00130
                  END OF FUNCTION                                                                 *487 LM00131
                                                                                                       LM00132
                      THIS ROUTINE CONVERTS THE RIGHT 6 ASCII CHARS                                    LM00133
                      INTO 6 BCD CHARS                                                                 LM00134
                                                                                                       LM00135
                  INTERNAL FUNCTION (ARG2,ARG3)                                                   *488 LM00136
                  ENTRY TO CONVR.                                                                 *489 LM00137
                  FUNCTION RETURN (ASCTSS.(ARG2.RS.9).LS.30) .V. (ASCTSS.(ARG2).LS.24) .V.        *490 LM00138
                1      (ASCTSS.(ARG3.RS.27).LS.18) .V.                                            *490 LM00139
                2      (ASCTSS.(ARG3.RS.18).LS.12) .V.                                            *490 LM00140
                3      (ASCTSS.(ARG3.RS.9).LS.6) .V. ASCTSS.(ARG3)                                *490 LM00141
                  END OF FUNCTION                                                                 *491 LM00142
                                                                                                       LM00143
                      THIS ROUTINE CONVERTS THE RIGHT 6 ASCII CHARS                                    LM00144
                      INTO 6 BCD CHARS                                                                 LM00145
                                                                                                       LM00146
                  INTERNAL FUNCTION (ARG2,ARG3)                                                   *492 LM00147
                  ENTRY TO CONVL.                                                                 *493 LM00148
                  FUNCTION RETURN (ASCTSS.(ARG2.RS.27).LS.30).V.(ASCTSS.(ARG2.RS.18).LS.24)       *494 LM00149
                1      .V. (ASCTSS.(ARG2.RS.9).LS.18)                                             *494 LM00150
                2      .V. (ASCTSS.(ARG2) .LS. 12)                                                *494 LM00151
                3      .V. (ASCTSS.(ARG3.RS.27).LS.6)                                             *494 LM00152
                4      .V. (ASCTSS.(ARG3.RS.18))                                                  *494 LM00153
                  END OF FUNCTION                                                                 *495 LM00154
                  END OF PROGRAM                                                                  *496 LM00301
       THE FOLLOWING NAMES HAVE OCCURRED ONLY ONCE IN THIS PROGRAM.
       THEY WILL ALL BE ASSIGNED TO THE SAME LOCATION, AND
       COMPILATION WILL CONTINUE.
      SPC
1MAD PROGRAM,TYPE NOV 1963      (ALL NUMBERS ARE OCTAL)
0TOTAL LOCATIONS   15356 TRANSFER VECTOR LENGTH  00035 PROGRAM BEGINS    10512
0VARIABLE STORAGE (A=ARRAY,C=COMMON,E=ERASABLE,DIGIT=MODE)
      ADJSW  01006   2        CPF01  00056   4        FORGET 00756   4        NTFND  00764   4        SR03   00056   4
      AFZ    01007   1        CPFEF  00750   4        FRMER  00757   4        NW1    10231   1        SRP0A  00775   4
      ANAM   00061 A 1        CR     07626 A 1        FRSTSW 10216   2        NW2    10232   1        SRP0   00776   4
      AROPSW 01010   2        CT     07627   1        FSBUF  00745 A 1        NWLNMK 10251 A 1        TB01   00777   4
      BL     01011 A 1        DATE   07630   1        FXT    00056   4        OUT    00765   4        TEMP1  10276   1
      BUF1   01672 A 1        DELST1 07775 A 1        GERR   00760   4        PDATE  10252   1        TEMP2  10277   1
      BUF2   02553 A 1        DELST2 10142 A 1        GOTNXT 10217   2        PNTR   10253   1        TFIL   00064 A 1
      BUF3   03434 A 1        DELST  10143   1        GOTTM  10220 A 2        PRLNMK 10272 A 1        TFNF   01000   4
      BUF4   04315 A 1        DELSTZ 10144 A 1        IN00   00056   4        PRSSW  10273   2        TIME   10300   1
      BUF5   05176 A 1        DL01   00751   4        IN01   00056   4        PTIME  10274   1        TM1    00064   1
      BUF6   06057 A 1        EFXT   00752   4        I      10221   1        REMN   10275   1        TM2    00063   1
      BUF7   06740 A 1        EOFCT  10145   1        JI     10222   1        REN    00766   4        TMOPSW 10301   2
      BUFZ   06741 A 1        EOF    00753   4        JJ     10223   1        RP01   00767   4        TOFF   10302 A 2
      CL01   00746   4        EXT    00754   4        KEY    10224   1        RP02   00770   4        TON    10303 A 2
      CM01   00747   4        FDLOOP 00056   4        LMKZ   10225 A 1        RP03   00056   4        TYP    10304   1
      CM03A  00056   4        FILFND 10166 A 2        MODEP  10226   1        RPD01  00056   4        UP01   01001   4
      CM03   00056   4        FILTAB 10207 A 1        MODE   00736   1        SPC    00056   4        UP02   01002   4
      CMP1A  00056   4        FILTBP 10210   1        NAMO   10227   2        SR00A  00056   4        WHBUF  10315 A 1
      CMP1B  00056   4        FILTBZ 10211 A 1        NAMTYP 10230   2        SR00   00056   4        WMRKSW 10316   2
      CNM2   06742   1        FIRST  10212 A 2        NDEL1  00761   4        SR01A  00771   4        XT01   01003   4
      COPY   00056   4        FN01A  00056   4        NFND   00762   4        SR01   00772   4        XT02   01004   4
      COPYSW 06743   2        FNF    00755   4        NM1    00061   1        SR02A  00773   4        XT03   01005   4
      CPBUF  07624 A 1        FNM    10215 A 1        NM2    00060   1        SR02   00774   4        YESNO  10317   1
      CPBUFZ 07625 A 1        FNO1B  00056   4        NOTDEL 00763   4        SR03A  00056   4
0FUNCTION DICTIONARY
      ASCTSS 00000   1        BCDEC  00001   1        BFCLOS 00002   1        BFOPEN 00003   1        BFREAD 00004   1
      BFWRIT 00005   1        BZEL   00006   1        CHFILE 00007   1        CHNCOM 00010   1        COMARG 00011   1
      DEFBC  00012   1        DELETE 00013   1        DORMNT 00014   1        EXIT   00015   1        FSTATE 00016   1
      GETTIM 00017   1        GETTM  00020   1        .PCOMT 00021   1        .SETUP 00022   1        OCRBC  00023   1
      OFFON  00024   1        OFF    00025   1        PRMESA 00026   1        PRMESS 00027   1        PRNTER 00030   1
      RDFLXC 00031   1        SETBRK 00032   1        TSSASC 00033   1        WHOAMI 00034   1        BDLNMK 00035   2
      CLS    00036   2        CNT    00037   1        CONVL  00040   1        CONVR  00041   1        CPFIL  00042   2
      DATTM  00043   1        DELT   00044   2        FLN1   00045   1        FLN2   00046   1        GNEXT  00047   1
      LCONV  00050   1        MKLNMK 00051   2        PTLNMK 00052   1        RCONV  00053   1        SEARCH 00054   1
      YES    00055   2
0ABSOLUTE CONSTANTS
 10346 +000000040040     10354 +040040000000     10336 +000000000036     10351 +000060575757     10332 +000000000022
 10333 +000000000027     10344 +000000007020     10334 +000000000030     10340 +000000000074     10331 +000000000014
 10345 +000000007777     10353 +000077770000     10511 -377777000000     10352 +000061000061     10510 -377700000000
 10347 +000000777700     10370 +254325632524     10444 -204546636024     10367 +252433606060     10434 -202425432563
 10503 -302562606060     10326 +000000000006     10355 +146044462425     10366 +246031456014     10364 +235125216325
 10431 -175757000000     10350 +000000777777     10342 +000000000134     10447 -206060214343     10427 -116031456060
 10471 -236025515146     10437 -202646514421     10343 +000000000777     10330 +000000000011     10335 +000000000033
 10501 -266060606060     10430 -116060606060     10372 +262660606060     10411 -046260626321     10462 -206270626325
 10413 -054663312670     10373 +265121446060     10415 -056057575757     10420 -066445246031     10445 -204546636026
 10375 +276444254563     10406 -033124602151     10470 -236021606521     10441 -204040604546     10401 +377777777777
 10477 -244724216325     10455 -206060606064     10464 -206346605757     10432 -202124242524     10453 -206060606051
 10450 -206060605124     10456 -206060606067     10457 -206060606763     10365 +242543256325     10452 -206060606024
 10446 -205454546060     10421 -066463476463     10463 -206321224325     10374 +276024464525     10412 -054663303145
 10337 +000000000061     10377 +316260464273     10440 -203162606330     10400 +336060606060     10376 +302560464324
 10475 -242425246063     10472 -236031452343     10360 +216525604546     10465 -207046646030     10451 -206060606023
 10327 +000000000010     10476 -242562636060     10423 -072560512550     10506 -336051256370     10410 -044743256325
 10473 -236031452346     10404 -032162636021     10325 +000000000005     10324 +000000000004     10466 -224664512325
 10474 -236260606060     10425 -112764442545     10417 -066427306021     10414 -054663602545     10323 +000000000003
 10322 +000000000002     10460 -206060634645     10454 -206060606063     10461 -206063462626     10320 +000000000000
 10426 -113360606060     10443 -204325636325     10435 -202631516263     10467 -232524602270     10361 +225125653121
 10433 -202225602122     10504 -306260442170     10356 +214343604225     10422 -072421632560     10505 -336046516064
 10502 -276351212363     10424 -112547432123     10405 -032563257360     10416 -056373602425     10371 +257360475131
 10507 -336063212243     10363 +234644223145     10402 -022570601360     10500 -263025512560     10403 -030260333333
 10436 -202643016026     10407 -040160454402     10442 -204225706045     10357 +215123303165     10341 +000000000077
 10321 +000000000001     10362 +233000000000
0STATEMENT DICTIONARY
 00746 TXL -313406013401       00747 TXL -311132011132       00750 TXL -313315013304       00751 TXL -311340011336
 00752 TXL -312705012705       00753 TXL -312744012740       00754 TXL -312173012171       00755 TXL -312062012060
 00756 TXL -311226011222       00757 TXL -312757012747       00760 TXL -312771012767       00761 TXL -313463013461
 00762 TXL -313470013466       00763 TXL -313606013577       00764 TXL -313755013753       00765 TXL -310562010560
 00766 TXL -312060012055       00767 TXL -311465011463       00770 TXL -311554011552       00771 TXL -312250012246
 00772 TXL -312355012353       00773 TXL -312262012250       00774 TXL -312361012355       00775 TXL -312241012241
 00776 TXL -312346012346       00777 TXL -311246011243       01000 TXL -311326011325       01001 TXL -311744011742
 01002 TXL -312034012032       01003 TXL -311367011365       01004 TXL -311424011422       01005 TXL -311430011424
0PROGRAM
                 W'R COMARG.(1).A.77K.E.77K                                         001  LM00015
 10512 TSX +0 07400 4 00022    10513 TSX +0 07400 4 00011    10514 TXH +3 00000 0 10321    10515 STO +0 60100 0 15352
 10516 CAL -0 50000 0 15352    10517 ANA -0 32000 0 10341    10520 SLW +0 60200 0 15352    10521 CLA +0 50000 0 15352
 10522 SUB +0 40200 0 10341    10523 TNZ -0 10000 0 10562
                      PRMESS.( $ARCHIV KEY NM1 NM2 FL1 FL2 ...$)                    002  LM00016
 10524 TSX +0 07400 4 00027    10525 TXH +3 00000 0 10357    10526 TXH +3 00000 0 10442    10527 TXH +3 00000 0 10407
 10530 TXH +3 00000 0 10436    10531 TXH +3 00000 0 10403
                   PRMESS.($WHERE KEY = COMBIN, TABLE, PRINT, DELETE, REPLAC$)      003  LM00017
 10532 TSX +0 07400 4 00027    10533 TXH +3 00000 0 10500    10534 TXH +3 00000 0 10402    10535 TXH +3 00000 0 10363
 10536 TXH +3 00000 0 10507    10537 TXH +3 00000 0 10371    10540 TXH +3 00000 0 10416    10541 TXH +3 00000 0 10405
 10542 TXH +3 00000 0 10424
                      PRMESS.($XTRACT, OR UPDATE$)                                  004  LM00018
 10543 TSX +0 07400 4 00027    10544 TXH +3 00000 0 10502    10545 TXH +3 00000 0 10505    10546 TXH +3 00000 0 10422
                      PRMESS.($ALL KEYS MAY BE ABBREVIATED BY FIRST LETTER.$)       005  LM00019
 10547 TSX +0 07400 4 00027    10550 TXH +3 00000 0 10356    10551 TXH +3 00000 0 10504    10552 TXH +3 00000 0 10433
 10553 TXH +3 00000 0 10361    10554 TXH +3 00000 0 10467    10555 TXH +3 00000 0 10435    10556 TXH +3 00000 0 10443
 10557 TXH +3 00000 0 10426
      OUT             CHNCOM.(0)                                                    006  LM00020
 10560 TSX +0 07400 4 00010    10561 TXH +3 00000 0 10320
                 E'L                                                                007  LM00021
                 KEY=COMARG.(1)                                                     008  LM00022
 10562 TSX +0 07400 4 00011    10563 TXH +3 00000 0 10321    10564 STO +0 60100 0 10224
                 W'R KEY .E. $  TOFF$                                               009  LM00023
 10565 CLA +0 50000 0 10224    10566 SUB +0 40200 0 10461    10567 TNZ -0 10000 0 10574
                   TOFF = 1B                                                        010  LM00024
 10570 CLA +0 50000 0 10321    10571 STO +0 60100 0 10302
                   BOOLEAN TOFF                                                     011  LM00025
                   V'S TOFF = 0B                                                    012  LM00026
 10302     +0 00000 0 00000
                   KEY = $     T$                                                   013  LM00027
 10572 CLA +0 50000 0 10454    10573 STO +0 60100 0 10224
                 E'L                                                                014  LM00028
                 W'R KEY .E. $   TON$                                               015  LM00029
 10574 CLA +0 50000 0 10224    10575 SUB +0 40200 0 10460    10576 TNZ -0 10000 0 10603
                    TON = 1B                                                        016  LM00030
 10577 CLA +0 50000 0 10321    10600 STO +0 60100 0 10303
                    KEY = $     T$                                                  017  LM00031
 10601 CLA +0 50000 0 10454    10602 STO +0 60100 0 10224
                    BOOLEAN TON                                                     018  LM00032
                     V'S TON = 0B                                                   019  LM00033
 10303     +0 00000 0 00000
                 E'L                                                                020  LM00034
                 NM1=COMARG.(2)                                                     021  LM00035
 10603 TSX +0 07400 4 00011    10604 TXH +3 00000 0 10322    10605 STO +0 60100 0 00061
                 NM2=COMARG.(3)                                                     022  LM00036
 10606 TSX +0 07400 4 00011    10607 TXH +3 00000 0 10323    10610 STO +0 60100 0 00060
                 SETBRK.(OUT)                                                       023  LM00037
 10611 TSX +0 07400 4 00032    10612 TXH +3 00000 0 00765
                 GETTM.(DATE,TIME)                                                  024  LM00039
 10613 TSX +0 07400 4 00020    10614 TXH +3 00000 0 07630    10615 TXH +3 00000 0 10300
                   D'N ANAM(2)                                                      025  LM00040
                   EQUIVALENCE (NM1,ANAM(0)), (NM2,ANAM(1))                         026  LM00041
                 W'R NM1.A.77K.E.77K .OR. NM2.A.77K.E.77K                           027  LM00042
 10616 CAL -0 50000 0 00060    10617 ANA -0 32000 0 10341    10620 SLW +0 60200 0 15352    10621 CLA +0 50000 0 15352
 10622 SUB +0 40200 0 10341    10623 TZE +0 10000 0 10632    10624 CAL -0 50000 0 00061    10625 ANA -0 32000 0 10341
 10626 SLW +0 60200 0 15352    10627 CLA +0 50000 0 15352    10630 SUB +0 40200 0 10341    10631 TNZ -0 10000 0 10641
                      PRMESS.($NOT ENOUGH ARGUMENTS$)                               028  LM00043
 10632 TSX +0 07400 4 00027    10633 TXH +3 00000 0 10414    10634 TXH +3 00000 0 10417    10635 TXH +3 00000 0 10425
 10636 TXH +3 00000 0 10474
                      CHNCOM.(0)                                                    029  LM00044
 10637 TSX +0 07400 4 00010    10640 TXH +3 00000 0 10320
                 E'L                                                                030  LM00045
                 W'R NM2.E.$SOURCE$.OR.NM2.E.$ARCHIV$                               031  LM00050
 10641 CLA +0 50000 0 00060    10642 SUB +0 40200 0 10357    10643 TZE +0 10000 0 10647    10644 CLA +0 50000 0 00060
 10645 SUB +0 40200 0 10466    10646 TNZ -0 10000 0 10755
                    NAMTYP=1B                                                       032  LM00051
 10647 CLA +0 50000 0 10321    10650 STO +0 60100 0 10230
                    T'H IN00, FOR FILTAB=0,2,COMARG.(FILTAB+4).A.77K.E.77K          033  LM00052
                1      .OR.FILTAB.E.FILTBZ                                          033  LM00053
 10651 CLA +0 50000 0 10320    10652 STO +0 60100 0 10207    10653 TRA +0 02000 0 10657    10654 CLA +0 50000 0 10207
 10655 ADD +0 40000 0 10322    10656 STO +0 60100 0 10207    10657 CLA +0 50000 0 10207    10660 SUB +0 40200 0 10211
 10661 TZE +0 10000 0 10754    10662 CLA +0 50000 0 10207    10663 ADD +0 40000 0 10324    10664 STO +0 60100 0 15352
 10665 TSX +0 07400 4 00011    10666 TXH +3 00000 0 15352    10667 STO +0 60100 0 15352    10670 CAL -0 50000 0 15352
 10671 ANA -0 32000 0 10341    10672 SLW +0 60200 0 15352    10673 CLA +0 50000 0 15352    10674 SUB +0 40200 0 10341
 10675 TZE +0 10000 0 10754
                    FILTAB(FILTAB+1)=COMARG.(FILTAB+4)                              034  LM00054
 10676 CLA +0 50000 0 10207    10677 ADD +0 40000 0 10324    10700 STO +0 60100 0 15352    10701 TSX +0 07400 4 00011
 10702 TXH +3 00000 0 15352    10703 STO +0 60100 0 15352    10704 CLA +0 50000 0 10207    10705 ADD +0 40000 0 10321
 10706 PAX +0 73400 1 00000    10707 CLA +0 50000 0 15352    10710 STO +0 60100 1 10207
                    W'R COMARG.(FILTAB+5).A.77K.E.77K                               035  LM00055
 10711 CLA +0 50000 0 10207    10712 ADD +0 40000 0 10325    10713 STO +0 60100 0 15352    10714 TSX +0 07400 4 00011
 10715 TXH +3 00000 0 15352    10716 STO +0 60100 0 15352    10717 CAL -0 50000 0 15352    10720 ANA -0 32000 0 10341
 10721 SLW +0 60200 0 15352    10722 CLA +0 50000 0 15352    10723 SUB +0 40200 0 10341    10724 TNZ -0 10000 0 10740
                    PRMESS.( $LAST ARGUMENT INCOMPLETE, RETYPE REQUEST$)            036  LM00056
 10725 TSX +0 07400 4 00027    10726 TXH +3 00000 0 10404    10727 TXH +3 00000 0 10425    10730 TXH +3 00000 0 10473
 10731 TXH +3 00000 0 10410    10732 TXH +3 00000 0 10506    10733 TXH +3 00000 0 10423    10734 TXH +3 00000 0 10476
                    CHNCOM.(0)                                                      037  LM00057
 10735 TSX +0 07400 4 00010    10736 TXH +3 00000 0 10320
                    O'E                                                             038  LM00058
 10737 TRA +0 02000 0 10753
                       FILTAB(FILTAB+2)=COMARG.(FILTAB+5)                           039  LM00059
 10740 CLA +0 50000 0 10207    10741 ADD +0 40000 0 10325    10742 STO +0 60100 0 15352    10743 TSX +0 07400 4 00011
 10744 TXH +3 00000 0 15352    10745 STO +0 60100 0 15352    10746 CLA +0 50000 0 10207    10747 ADD +0 40000 0 10322
 10750 PAX +0 73400 1 00000    10751 CLA +0 50000 0 15352    10752 STO +0 60100 1 10207
                    E'L                                                             040  LM00060
      IN00          CONTINUE                                                        041  LM00061
 10753 TRA +0 02000 0 10654
                 O'E                                                                042  LM00062
 10754 TRA +0 02000 0 11020
                    NAMTYP=0B                                                       043  LM00063
 10755 CLA +0 50000 0 10320    10756 STO +0 60100 0 10230
                    T'H IN01, FOR FILTAB=0,1,COMARG.(FILTAB+4).A.77K.E.77K          044  LM00064
                1      .OR. FILTAB.E.FILTBZ                                         044  LM00065
 10757 CLA +0 50000 0 10320    10760 STO +0 60100 0 10207    10761 TRA +0 02000 0 10765    10762 CLA +0 50000 0 10207
 10763 ADD +0 40000 0 10321    10764 STO +0 60100 0 10207    10765 CLA +0 50000 0 10207    10766 SUB +0 40200 0 10211
 10767 TZE +0 10000 0 11020    10770 CLA +0 50000 0 10207    10771 ADD +0 40000 0 10324    10772 STO +0 60100 0 15352
 10773 TSX +0 07400 4 00011    10774 TXH +3 00000 0 15352    10775 STO +0 60100 0 15352    10776 CAL -0 50000 0 15352
 10777 ANA -0 32000 0 10341    11000 SLW +0 60200 0 15352    11001 CLA +0 50000 0 15352    11002 SUB +0 40200 0 10341
 11003 TZE +0 10000 0 11020
      IN01       FILTAB(FILTAB+1)=COMARG.(FILTAB+4)                                 045  LM00066
 11004 CLA +0 50000 0 10207    11005 ADD +0 40000 0 10324    11006 STO +0 60100 0 15352    11007 TSX +0 07400 4 00011
 11010 TXH +3 00000 0 15352    11011 STO +0 60100 0 15352    11012 CLA +0 50000 0 10207    11013 ADD +0 40000 0 10321
 11014 PAX +0 73400 1 00000    11015 CLA +0 50000 0 15352    11016 STO +0 60100 1 10207    11017 TRA +0 02000 0 10762
                 E'L                                                                046  LM00067
                 WHOAMI.(WHBUF(8)...8)                                              047  LM00071
 11020 TSX +0 07400 4 00034    11021 TIX +2 10327 0 10305
                   D'N WHBUF(8)                                                     048  LM00072
                   D'N TFIL(2)                                                      049  LM00073
                 TM1=WHBUF(8)                                                       050  LM00074
 11022 CLA +0 50000 0 10305    11023 STO +0 60100 0 00064
                 TM2=WHBUF(7)                                                       051  LM00075
 11024 CLA +0 50000 0 10306    11025 STO +0 60100 0 00063
                   EQUIVALENCE (TM1,TFIL(0)), (TM2,TFIL(1))                         052  LM00076
                 W'R KEY.E.$COMBIN$ .OR. KEY.E.$     C$                             053  LM00080
 11026 CLA +0 50000 0 10224    11027 SUB +0 40200 0 10451    11030 TZE +0 10000 0 11034    11031 CLA +0 50000 0 10224
 11032 SUB +0 40200 0 10363    11033 TNZ -0 10000 0 11231
                 FSTATE.(NM1,NM2,FSBUF(8)...8,CM01)                                 054  LM00081
 11034 TSX +0 07400 4 00016    11035 TXH +3 00000 0 00061    11036 TXH +3 00000 0 00060    11037 TIX +2 10327 0 00735
 11040 TXH +3 00000 0 00747
                 W'R NAMTYP                                                         055  LM00082
 11041 NZT -0 52000 0 10230    11042 TRA +0 02000 0 11072
                 T'H CMP1A, FOR I=1,2,I.G.FILTAB                                    056  LM00083
 11043 CLA +0 50000 0 10321    11044 STO +0 60100 0 10221    11045 TRA +0 02000 0 11051    11046 CLA +0 50000 0 10221
 11047 ADD +0 40000 0 10322    11050 STO +0 60100 0 10221    11051 CLA +0 50000 0 10221    11052 SUB +0 40200 0 10207
 11053 TZE +0 10000 0 11055    11054 TPL +0 12000 0 11071
      CMP1A      W'R FILTAB(I).E.NM1.AND.FILTAB(I+1).E.NM2, T'O CM01                057  LM00084
 11055 CLA +0 50000 0 10221    11056 ADD +0 40000 0 10321    11057 PAX +0 73400 1 00000    11060 CLA +0 50000 1 10207
 11061 SUB +0 40200 0 00060    11062 TNZ -0 10000 0 11070    11063 LXA +0 53400 1 10221    11064 CLA +0 50000 1 10207
 11065 SUB +0 40200 0 00061    11066 TNZ -0 10000 0 11070    11067 TRA +0 02000 0 00747    11070 TRA +0 02000 0 11046
                 O'E                                                                058  LM00085
 11071 TRA +0 02000 0 11112
                 T'H CMP1B, FOR I = 1,1,I.G.FILTAB                                  059  LM00086
 11072 CLA +0 50000 0 10321    11073 STO +0 60100 0 10221    11074 TRA +0 02000 0 11100    11075 CLA +0 50000 0 10221
 11076 ADD +0 40000 0 10321    11077 STO +0 60100 0 10221    11100 CLA +0 50000 0 10221    11101 SUB +0 40200 0 10207
 11102 TZE +0 10000 0 11104    11103 TPL +0 12000 0 11112
      CMP1B      W'R FILTAB(I).E.NM1, T'O CM01                                      060  LM00087
 11104 LXA +0 53400 1 10221    11105 CLA +0 50000 1 10207    11106 SUB +0 40200 0 00061    11107 TNZ -0 10000 0 11111
 11110 TRA +0 02000 0 00747    11111 TRA +0 02000 0 11075
                 E'L                                                                061  LM00088
                 PRMESS.($ YOU HAVE NOT INCLUDED THE OLD$,NM1,NM2,$.$)              062  LM00089
 11112 TSX +0 07400 4 00027    11113 TXH +3 00000 0 10465    11114 TXH +3 00000 0 10360    11115 TXH +3 00000 0 10472
 11116 TXH +3 00000 0 10475    11117 TXH +3 00000 0 10376    11120 TXH +3 00000 0 00061    11121 TXH +3 00000 0 00060
 11122 TXH +3 00000 0 10400
                 PRMESA.($ IS THIS OK,$)                                            063  LM00090
 11123 TSX +0 07400 4 00026    11124 TXH +3 00000 0 10440    11125 TXH +3 00000 0 10377
                 W'R .NOT. YES.(0), T'O FORGET                                      064  LM00091
 11126 TSX +0 07400 4 00055    11127 TXH +3 00000 0 10320    11130 TNZ -0 10000 0 11132    11131 TRA +0 02000 0 00756
      CM01       CONTINUE                                                           065  LM00092
                 W'R NAMTYP                                                         066  LM00093
 11132 NZT -0 52000 0 10230    11133 TRA +0 02000 0 11167
                 T'H CM03A, FOR FILTBP=1,2,FILTBP.G.FILTAB                          067  LM00094
 11134 CLA +0 50000 0 10321    11135 STO +0 60100 0 10210    11136 TRA +0 02000 0 11142    11137 CLA +0 50000 0 10210
 11140 ADD +0 40000 0 10322    11141 STO +0 60100 0 10210    11142 CLA +0 50000 0 10210    11143 SUB +0 40200 0 10207
 11144 TZE +0 10000 0 11146    11145 TPL +0 12000 0 11166
                 W'R .NOT.CPFIL.(FILTAB(FILTBP),FILTAB(FILTBP+1)),                  068  LM00095
                1   PRNTER.(61K)                                                    068  LM00096
 11146 CLA +0 50000 0 10210    11147 ADD +0 40000 0 10321    11150 SUB +0 40200 0 11151    11151 TXH +3 00000 0 10207
 11152 STA +0 62100 0 11161    11153 CLA +0 50000 0 10210    11154 SUB +0 40200 0 11155    11155 TXH +3 00000 0 10207
 11156 STA +0 62100 0 11160    11157 TSX +0 07400 4 00042    11160 TXH +3 00000 0 00000    11161 TXH +3 00000 0 00000
 11162 TNZ -0 10000 0 11165    11163 TSX +0 07400 4 00030    11164 TXH +3 00000 0 10337
      CM03A      CONTINUE                                                           069  LM00097
 11165 TRA +0 02000 0 11137
                 O'E                                                                070  LM00098
 11166 TRA +0 02000 0 11214
                 T'H CM03, FOR FILTBP=1,1,FILTBP.G.FILTAB                           071  LM00099
 11167 CLA +0 50000 0 10321    11170 STO +0 60100 0 10210    11171 TRA +0 02000 0 11175    11172 CLA +0 50000 0 10210
 11173 ADD +0 40000 0 10321    11174 STO +0 60100 0 10210    11175 CLA +0 50000 0 10210    11176 SUB +0 40200 0 10207
 11177 TZE +0 10000 0 11201    11200 TPL +0 12000 0 11214
                 W'R .NOT. CPFIL.(FILTAB(FILTBP),NM2),                              072  LM00100
                1   PRNTER.(61K)                                                    072  LM00101
 11201 CLA +0 50000 0 10210    11202 SUB +0 40200 0 11203    11203 TXH +3 00000 0 10207    11204 STA +0 62100 0 11206
 11205 TSX +0 07400 4 00042    11206 TXH +3 00000 0 00000    11207 TXH +3 00000 0 00060    11210 TNZ -0 10000 0 11213
 11211 TSX +0 07400 4 00030    11212 TXH +3 00000 0 10337
      CM03       CONTINUE                                                           073  LM00102
 11213 TRA +0 02000 0 11172
                 E'L                                                                074  LM00103
                 W'R TMOPSW, CLS.(NM1,NM2)                                          075  LM00104
 11214 NZT -0 52000 0 10301    11215 TRA +0 02000 0 11221    11216 TSX +0 07400 4 00036    11217 TXH +3 00000 0 00061
 11220 TXH +3 00000 0 00060
                 T'O EXT                                                            076  LM00105
 11221 TRA +0 02000 0 00754
      FORGET     PRMESS.($NOTHING DONE.$)                                           077  LM00106
 11222 TSX +0 07400 4 00027    11223 TXH +3 00000 0 10412    11224 TXH +3 00000 0 10374    11225 TXH +3 00000 0 10400
                 CHNCOM.(0)                                                         078  LM00107
 11226 TSX +0 07400 4 00010    11227 TXH +3 00000 0 10320
                 O'R KEY.E.$ TABLE$ .OR. KEY.E.$     T$                             079  LM00111
 11230 TRA +0 02000 0 12053    11231 CLA +0 50000 0 10224    11232 SUB +0 40200 0 10454    11233 TZE +0 10000 0 11237
 11234 CLA +0 50000 0 10224    11235 SUB +0 40200 0 10463    11236 TNZ -0 10000 0 11330
                 COPYSW=0B                                                          080  LM00112
 11237 CLA +0 50000 0 10320    11240 STO +0 60100 0 06743
                 PRSSW=0B                                                           081  LM00113
 11241 CLA +0 50000 0 10320    11242 STO +0 60100 0 10273
                 V'S BL = 605757575757K                                             082  LM00114
 01011     -2 05757 5 75757
                 V'S CR = 555757575757K                                             083  LM00115
 07626     -1 55757 5 75757
      TB01       W'R FILTAB.E.0                                                     084  LM00116
 11243 CLA +0 50000 0 10207    11244 SUB +0 40200 0 10320    11245 TNZ -0 10000 0 11303
                           GNEXT.(TFNF)                                             085  LM00117
 11246 TSX +0 07400 4 00047    11247 TXH +3 00000 0 01000
                    W'R FIRST                                                       086  LM00118
 11250 NZT -0 52000 0 10212    11251 TRA +0 02000 0 11302
                       FIRST = 0B                                                   087  LM00119
 11252 CLA +0 50000 0 10320    11253 STO +0 60100 0 10212
                       W'R TOFF, OFF.($ARCHIV$,$OUTPUT$)                            088  LM00120
 11254 NZT -0 52000 0 10302    11255 TRA +0 02000 0 11261    11256 TSX +0 07400 4 00025    11257 TXH +3 00000 0 10357
 11260 TXH +3 00000 0 10421
                       W'R TON, OFFON.($ARCHIV$,$OUTPUT$)                           089  LM00121
 11261 NZT -0 52000 0 10303    11262 TRA +0 02000 0 11266    11263 TSX +0 07400 4 00024    11264 TXH +3 00000 0 10357
 11265 TXH +3 00000 0 10421
                           PRMESS.                                                  090  LM00122
 11266 TSX +0 07400 4 00027
                       PRMESS.($ ***$,NM1,BL,NM2,BL,BL,DATE,BL,TIME)                091  LM00123
 11267 TSX +0 07400 4 00027    11270 TXH +3 00000 0 10446    11271 TXH +3 00000 0 00061    11272 TXH +3 00000 0 01011
 11273 TXH +3 00000 0 00060    11274 TXH +3 00000 0 01011    11275 TXH +3 00000 0 01011    11276 TXH +3 00000 0 07630
 11277 TXH +3 00000 0 01011    11300 TXH +3 00000 0 10300
                      PRMESS.                                                       092  LM00124
 11301 TSX +0 07400 4 00027
                    E'L                                                             093  LM00125
                 BOOLEAN FIRST                                                      094  LM00126
                 V'S FIRST = 1B                                                     095  LM00127
 10212     +0 00000 0 00001
                 O'E                                                                096  LM00128
 11302 TRA +0 02000 0 11323
                      SEARCH.(TFNF)                                                 097  LM00129
 11303 TSX +0 07400 4 00054    11304 TXH +3 00000 0 01000
                       W'R FIRST                                                    098  LM00130
 11305 NZT -0 52000 0 10212    11306 TRA +0 02000 0 11323
                      FIRST = 0B                                                    099  LM00131
 11307 CLA +0 50000 0 10320    11310 STO +0 60100 0 10212
                           W'R TOFF, OFF.($ARCHIV$,$OUTPUT$)                        100  LM00132
 11311 NZT -0 52000 0 10302    11312 TRA +0 02000 0 11316    11313 TSX +0 07400 4 00025    11314 TXH +3 00000 0 10357
 11315 TXH +3 00000 0 10421
                           W'R TON, OFFON.($ARCHIV$,$OUTPUT$)                       101  LM00133
 11316 NZT -0 52000 0 10303    11317 TRA +0 02000 0 11323    11320 TSX +0 07400 4 00024    11321 TXH +3 00000 0 10357
 11322 TXH +3 00000 0 10421
                      E'L                                                           102  LM00134
                 E'L                                                                103  LM00135
                 PTLNMK.                                                            104  LM00136
 11323 TSX +0 07400 4 00052
                 T'O TB01                                                           105  LM00137
 11324 TRA +0 02000 0 00777
      TFNF       PRMESS.                                                            106  LM00139
 11325 TSX +0 07400 4 00027
                 T'O FNF                                                            107  LM00140
 11326 TRA +0 02000 0 00755
                 O'R KEY.E.$DELETE$ .OR. KEY.E.$     D$                             108  LM00144
 11327 TRA +0 02000 0 12053    11330 CLA +0 50000 0 10224    11331 SUB +0 40200 0 10452    11332 TZE +0 10000 0 11336
 11333 CLA +0 50000 0 10224    11334 SUB +0 40200 0 10365    11335 TNZ -0 10000 0 11354
      DL01       COPYSW=1B                                                          109  LM00145
 11336 CLA +0 50000 0 10321    11337 STO +0 60100 0 06743
                 PRSSW=1B                                                           110  LM00146
 11340 CLA +0 50000 0 10321    11341 STO +0 60100 0 10273
                 WMRKSW=1B                                                          111  LM00147
 11342 CLA +0 50000 0 10321    11343 STO +0 60100 0 10316
                 SEARCH.(REN)                                                       112  LM00148
 11344 TSX +0 07400 4 00054    11345 TXH +3 00000 0 00766
                 COPYSW=0B                                                          113  LM00149
 11346 CLA +0 50000 0 10320    11347 STO +0 60100 0 06743
                 GNEXT.(REN)                                                        114  LM00150
 11350 TSX +0 07400 4 00047    11351 TXH +3 00000 0 00766
                 T'O DL01                                                           115  LM00151
 11352 TRA +0 02000 0 00751
                 O'R KEY.E.$XTRACT$ .OR. KEY.E.$     X$ .OR. KEY.E.$    XT$         116  LM00155
 11353 TRA +0 02000 0 12053    11354 CLA +0 50000 0 10224    11355 SUB +0 40200 0 10457    11356 TZE +0 10000 0 11365
 11357 CLA +0 50000 0 10224    11360 SUB +0 40200 0 10456    11361 TZE +0 10000 0 11365    11362 CLA +0 50000 0 10224
 11363 SUB +0 40200 0 10502    11364 TNZ -0 10000 0 11452
      XT01       COPYSW=0B                                                          117  LM00156
 11365 CLA +0 50000 0 10320    11366 STO +0 60100 0 06743
                 PRSSW=1B                                                           118  LM00157
 11367 CLA +0 50000 0 10321    11370 STO +0 60100 0 10273
                 W'R FILTAB.NE.0                                                    119  LM00158
 11371 CLA +0 50000 0 10207    11372 SUB +0 40200 0 10320    11373 TZE +0 10000 0 11377
                      SEARCH.(FNF)                                                  120  LM00159
 11374 TSX +0 07400 4 00054    11375 TXH +3 00000 0 00755
                 O'E                                                                121  LM00160
 11376 TRA +0 02000 0 11403
                      W'R .NOT. GOTNXT, GNEXT.(FNF)                                 122  LM00161
 11377 ZET +0 52000 0 10217    11400 TRA +0 02000 0 11403    11401 TSX +0 07400 4 00047    11402 TXH +3 00000 0 00755
                 E'L                                                                123  LM00162
                 NW1=FLN1.(PRLNMK)                                                  124  LM00163
 11403 TSX +0 07400 4 00045    11404 TXH +3 00000 0 10272    11405 STO +0 60100 0 10231
                 NW2=FLN2.(PRLNMK)                                                  125  LM00164
 11406 TSX +0 07400 4 00046    11407 TXH +3 00000 0 10272    11410 STO +0 60100 0 10232
                 COPYSW=1B                                                          126  LM00165
 11411 CLA +0 50000 0 10321    11412 STO +0 60100 0 06743
                 WMRKSW=0B                                                          127  LM00166
 11413 CLA +0 50000 0 10320    11414 STO +0 60100 0 10316
                 GNEXT.(XT02)                                                       128  LM00167
 11415 TSX +0 07400 4 00047    11416 TXH +3 00000 0 01004
                 GOTNXT=1B                                                          129  LM00168
 11417 CLA +0 50000 0 10321    11420 STO +0 60100 0 10217
                 T'O XT03                                                           130  LM00169
 11421 TRA +0 02000 0 01005
      XT02       NAMO=1B                                                            131  LM00170
 11422 CLA +0 50000 0 10321    11423 STO +0 60100 0 10227
      XT03       W'R CLS.(NW1,NW2)                                                  132  LM00171
 11424 TSX +0 07400 4 00036    11425 TXH +3 00000 0 10231    11426 TXH +3 00000 0 10232    11427 TZE +0 10000 0 11445
                      W'R KEY.E.$    XT$, CHFILE.(NW1,NW2,001K,-0,-0)               133  LM00172
 11430 CLA +0 50000 0 10224    11431 SUB +0 40200 0 10457    11432 TNZ -0 10000 0 11445    11433 CLS +0 50200 0 10320
 11434 STO +0 60100 0 15352    11435 CLS +0 50200 0 10320    11436 STO +0 60100 0 15353    11437 TSX +0 07400 4 00007
 11440 TXH +3 00000 0 10231    11441 TXH +3 00000 0 10232    11442 TXH +3 00000 0 10321    11443 TXH +3 00000 0 15353
 11444 TXH +3 00000 0 15352
                 E'L                                                                134  LM00173
                 W'R NAMO,T'O FNF                                                   135  LM00174
 11445 NZT -0 52000 0 10227    11446 TRA +0 02000 0 11450    11447 TRA +0 02000 0 00755
                 T'O XT01                                                           136  LM00175
 11450 TRA +0 02000 0 01003
                 O'R KEY.E.$REPLAC$ .OR. KEY.E.$     R$ .OR. KEY.E.$    RD$         137  LM00179
 11451 TRA +0 02000 0 12053    11452 CLA +0 50000 0 10224    11453 SUB +0 40200 0 10450    11454 TZE +0 10000 0 11463
 11455 CLA +0 50000 0 10224    11456 SUB +0 40200 0 10453    11457 TZE +0 10000 0 11463    11460 CLA +0 50000 0 10224
 11461 SUB +0 40200 0 10424    11462 TNZ -0 10000 0 11734
      RP01       COPYSW=1B                                                          138  LM00180
 11463 CLA +0 50000 0 10321    11464 STO +0 60100 0 06743
                 PRSSW=1B                                                           139  LM00181
 11465 CLA +0 50000 0 10321    11466 STO +0 60100 0 10273
                 WMRKSW=1B                                                          140  LM00182
 11467 CLA +0 50000 0 10321    11470 STO +0 60100 0 10316
                 W'R FILTAB.NE.0                                                    141  LM00183
 11471 CLA +0 50000 0 10207    11472 SUB +0 40200 0 10320    11473 TZE +0 10000 0 11477
                      SEARCH.(RP02)                                                 142  LM00184
 11474 TSX +0 07400 4 00054    11475 TXH +3 00000 0 00770
                 O'E                                                                143  LM00185
 11476 TRA +0 02000 0 11503
                      W'R .NOT. GOTNXT, GNEXT.(RP02)                                144  LM00186
 11477 ZET +0 52000 0 10217    11500 TRA +0 02000 0 11503    11501 TSX +0 07400 4 00047    11502 TXH +3 00000 0 00770
                 E'L                                                                145  LM00187
                 GOTNXT=0B                                                          146  LM00188
 11503 CLA +0 50000 0 10320    11504 STO +0 60100 0 10217
                 W'R .NOT. CPFIL.(FLN1.(PRLNMK),FLN2.(PRLNMK))                      147  LM00189
 11505 TSX +0 07400 4 00046    11506 TXH +3 00000 0 10272    11507 STO +0 60100 0 15353    11510 TSX +0 07400 4 00045
 11511 TXH +3 00000 0 10272    11512 STO +0 60100 0 15352    11513 TSX +0 07400 4 00042    11514 TXH +3 00000 0 15352
 11515 TXH +3 00000 0 15353    11516 TNZ -0 10000 0 11524
                      PRNTER.(61K)                                                  148  LM00190
 11517 TSX +0 07400 4 00030    11520 TXH +3 00000 0 10337
                      COPYSW=1B                                                     149  LM00191
 11521 CLA +0 50000 0 10321    11522 STO +0 60100 0 06743
                 O'E                                                                150  LM00192
 11523 TRA +0 02000 0 11545
                 W'R DELST.L.DELSTZ                                                 151  LM00193
 11524 CLA +0 50000 0 10143    11525 SUB +0 40200 0 10144    11526 TZE +0 10000 0 11543    11527 TPL +0 12000 0 11543
                      DELST=DELST+1                                                 152  LM00194
 11530 CLA +0 50000 0 10143    11531 ADD +0 40000 0 10321    11532 STO +0 60100 0 10143
                      DELST1(DELST)=FLN1.(PRLNMK)                                   153  LM00195
 11533 TSX +0 07400 4 00045    11534 TXH +3 00000 0 10272    11535 LXA +0 53400 1 10143    11536 STO +0 60100 1 07775
                      DELST2(DELST)=FLN2.(PRLNMK)                                   154  LM00196
 11537 TSX +0 07400 4 00046    11540 TXH +3 00000 0 10272    11541 LXA +0 53400 1 10143    11542 STO +0 60100 1 10142
                 E'L                                                                155  LM00197
                      COPYSW=0B                                                     156  LM00198
 11543 CLA +0 50000 0 10320    11544 STO +0 60100 0 06743
                 E'L                                                                157  LM00199
                 GNEXT.(RP02)                                                       158  LM00200
 11545 TSX +0 07400 4 00047    11546 TXH +3 00000 0 00770
                 GOTNXT=1B                                                          159  LM00201
 11547 CLA +0 50000 0 10321    11550 STO +0 60100 0 10217
                 T'O RP01                                                           160  LM00202
 11551 TRA +0 02000 0 00767
      RP02       W'R NAMTYP                                                         161  LM00203
 11552 NZT -0 52000 0 10230    11553 TRA +0 02000 0 11557
                    TYP=1                                                           162  LM00204
 11554 CLA +0 50000 0 10321    11555 STO +0 60100 0 10304
                 O'E                                                                163  LM00205
 11556 TRA +0 02000 0 11561
                    TYP=0                                                           164  LM00206
 11557 CLA +0 50000 0 10320    11560 STO +0 60100 0 10304
                 E'L                                                                165  LM00207
                 T'H RP03, FOR JI=1,1,JI+TYP*(JI-1).G.FILTAB                        166  LM00208
 11561 CLA +0 50000 0 10321    11562 STO +0 60100 0 10222    11563 TRA +0 02000 0 11567    11564 CLA +0 50000 0 10222
 11565 ADD +0 40000 0 10321    11566 STO +0 60100 0 10222    11567 CLA +0 50000 0 10222    11570 SUB +0 40200 0 10321
 11571 XCA +0 13100 0 00000    11572 MPY +0 20000 0 10304    11573 XCA +0 13100 0 00000    11574 ADD +0 40000 0 10222
 11575 SUB +0 40200 0 10207    11576 TZE +0 10000 0 11600    11577 TPL +0 12000 0 11675
                 W'R NAMTYP                                                         167  LM00209
 11600 NZT -0 52000 0 10230    11601 TRA +0 02000 0 11615
                    JJ=2*JI-1                                                       168  LM00210
 11602 LDQ +0 56000 0 10322    11603 MPY +0 20000 0 10222    11604 XCA +0 13100 0 00000    11605 SUB +0 40200 0 10321
 11606 STO +0 60100 0 10223
                    CNM2=FILTAB(JJ+1)                                               169  LM00211
 11607 CLA +0 50000 0 10223    11610 ADD +0 40000 0 10321    11611 PAX +0 73400 2 00000    11612 CLA +0 50000 2 10207
 11613 STO +0 60100 0 06742
                 O'E                                                                170  LM00212
 11614 TRA +0 02000 0 11621
                    JJ=JI                                                           171  LM00213
 11615 CLA +0 50000 0 10222    11616 STO +0 60100 0 10223
                    CNM2=NM2                                                        172  LM00214
 11617 CLA +0 50000 0 00060    11620 STO +0 60100 0 06742
                 E'L                                                                173  LM00215
                 W'R .NOT. FILFND(JI)                                               174  LM00216
 11621 LXA +0 53400 1 10222    11622 ZET +0 52000 1 10166    11623 TRA +0 02000 0 11674
                 PRMESS.(FILTAB(JJ),BL,CNM2,$ ADDED$,606346605757K,NM1,BL,NM2)      175  LM00217
 11624 CLA +0 50000 0 10223    11625 SUB +0 40200 0 11626    11626 TXH +3 00000 0 10207    11627 STA +0 62100 0 11631
 11630 TSX +0 07400 4 00027    11631 TXH +3 00000 0 00000    11632 TXH +3 00000 0 01011    11633 TXH +3 00000 0 06742
 11634 TXH +3 00000 0 10432    11635 TXH +3 00000 0 10464    11636 TXH +3 00000 0 00061    11637 TXH +3 00000 0 01011
 11640 TXH +3 00000 0 00060
                      W'R .NOT. CPFIL.(FILTAB(JJ),CNM2)                             176  LM00218
 11641 CLA +0 50000 0 10223    11642 SUB +0 40200 0 11643    11643 TXH +3 00000 0 10207    11644 STA +0 62100 0 11646
 11645 TSX +0 07400 4 00042    11646 TXH +3 00000 0 00000    11647 TXH +3 00000 0 06742    11650 TNZ -0 10000 0 11654
                           PRNTER.(61K)                                             177  LM00219
 11651 TSX +0 07400 4 00030    11652 TXH +3 00000 0 10337
                      O'E                                                           178  LM00220
 11653 TRA +0 02000 0 11674
                           FILFND(JI)=1B                                            179  LM00221
 11654 LXA +0 53400 1 10222    11655 CLA +0 50000 0 10321    11656 STO +0 60100 1 10166
                      W'R DELST.L.DELSTZ                                            180  LM00222
 11657 CLA +0 50000 0 10143    11660 SUB +0 40200 0 10144    11661 TZE +0 10000 0 11674    11662 TPL +0 12000 0 11674
                           DELST=DELST+1                                            181  LM00223
 11663 CLA +0 50000 0 10143    11664 ADD +0 40000 0 10321    11665 STO +0 60100 0 10143
                           DELST1(DELST)=FILTAB(JJ)                                 182  LM00224
 11666 LXA +0 53400 1 10143    11667 LXA +0 53400 2 10223    11670 CLA +0 50000 2 10207    11671 STO +0 60100 1 07775
                           DELST2(DELST)=CNM2                                       183  LM00225
 11672 CLA +0 50000 0 06742    11673 STO +0 60100 1 10142
                      E'L                                                           184  LM00226
                      E'L                                                           185  LM00227
      RP03       E'L                                                                186  LM00228
 11674 TRA +0 02000 0 11564
                 W'R CLS.(NM1,NM2)                                                  187  LM00229
 11675 TSX +0 07400 4 00036    11676 TXH +3 00000 0 00061    11677 TXH +3 00000 0 00060    11700 TZE +0 10000 0 11732
                 W'R KEY.E.$    RD$                                                 188  LM00230
 11701 CLA +0 50000 0 10224    11702 SUB +0 40200 0 10450    11703 TNZ -0 10000 0 11732
                      T'H RPD01, FOR I=1,1,I.G.DELST                                189  LM00231
 11704 CLA +0 50000 0 10321    11705 STO +0 60100 0 10221    11706 TRA +0 02000 0 11712    11707 CLA +0 50000 0 10221
 11710 ADD +0 40000 0 10321    11711 STO +0 60100 0 10221    11712 CLA +0 50000 0 10221    11713 SUB +0 40200 0 10143
 11714 TZE +0 10000 0 11716    11715 TPL +0 12000 0 11732
      RPD01                DELT.(DELST1(I),DELST2(I))                               190  LM00232
 11716 CLA +0 50000 0 10221    11717 SUB +0 40200 0 11720    11720 TXH +3 00000 0 10142    11721 STA +0 62100 0 11730
 11722 CLA +0 50000 0 10221    11723 SUB +0 40200 0 11724    11724 TXH +3 00000 0 07775    11725 STA +0 62100 0 11727
 11726 TSX +0 07400 4 00044    11727 TXH +3 00000 0 00000    11730 TXH +3 00000 0 00000    11731 TRA +0 02000 0 11707
                 E'L                                                                191  LM00233
                 E'L                                                                192  LM00234
                 T'O EXT                                                            193  LM00235
 11732 TRA +0 02000 0 00754
                 BOOLEAN GOTNXT                                                     194  LM00236
                 D'N DELST1(100), DELST2(100)                                       195  LM00237
                 V'S DELSTZ=100                                                     196  LM00238
 10144     +0 00000 0 00144
                 O'R KEY.E.$UPDATE$ .OR. KEY.E.$     U$                             197  LM00242
 11733 TRA +0 02000 0 12053    11734 CLA +0 50000 0 10224    11735 SUB +0 40200 0 10455    11736 TZE +0 10000 0 11742
 11737 CLA +0 50000 0 10224    11740 SUB +0 40200 0 10477    11741 TNZ -0 10000 0 12042
      UP01       COPYSW=1B                                                          198  LM00243
 11742 CLA +0 50000 0 10321    11743 STO +0 60100 0 06743
                 PRSSW=1B                                                           199  LM00244
 11744 CLA +0 50000 0 10321    11745 STO +0 60100 0 10273
                 WMRKSW=1B                                                          200  LM00245
 11746 CLA +0 50000 0 10321    11747 STO +0 60100 0 10316
                 W'R FILTAB.NE.0                                                    201  LM00246
 11750 CLA +0 50000 0 10207    11751 SUB +0 40200 0 10320    11752 TZE +0 10000 0 11756
                      SEARCH.(REN)                                                  202  LM00247
 11753 TSX +0 07400 4 00054    11754 TXH +3 00000 0 00766
                 O'E                                                                203  LM00248
 11755 TRA +0 02000 0 11762
                      W'R .NOT. GOTNXT, GNEXT.(REN)                                 204  LM00249
 11756 ZET +0 52000 0 10217    11757 TRA +0 02000 0 11762    11760 TSX +0 07400 4 00047    11761 TXH +3 00000 0 00766
                 E'L                                                                205  LM00250
                 FSTATE.(FLN1.(PRLNMK),FLN2.(PRLNMK),FSBUF(8)...8,UP02)             206  LM00251
 11762 TSX +0 07400 4 00046    11763 TXH +3 00000 0 10272    11764 STO +0 60100 0 15353    11765 TSX +0 07400 4 00045
 11766 TXH +3 00000 0 10272    11767 STO +0 60100 0 15352    11770 TSX +0 07400 4 00016    11771 TXH +3 00000 0 15352
 11772 TXH +3 00000 0 15353    11773 TIX +2 10327 0 00735    11774 TXH +3 00000 0 01002
                 W'R FSBUF(2).A.377777777777K.G.DATTM.(PRLNMK).A.377777777777K      207  LM00252
 11775 TSX +0 07400 4 00043    11776 TXH +3 00000 0 10272    11777 STO +0 60100 0 15353    12000 CAL -0 50000 0 15353
 12001 ANA -0 32000 0 10401    12002 SLW +0 60200 0 15353    12003 CAL -0 50000 0 00743    12004 ANA -0 32000 0 10401
 12005 SLW +0 60200 0 15352    12006 CLA +0 50000 0 15352    12007 SUB +0 40200 0 15353    12010 TZE +0 10000 0 12032
 12011 TMI -0 12000 0 12032
                      PTLNMK.                                                       208  LM00253
 12012 TSX +0 07400 4 00052
                      COPYSW=0B                                                     209  LM00254
 12013 CLA +0 50000 0 10320    12014 STO +0 60100 0 06743
                      W'R .NOT. CPFIL.(FLN1.(PRLNMK),FLN2.(PRLNMK)), COPYSW=1B      210  LM00255
 12015 TSX +0 07400 4 00046    12016 TXH +3 00000 0 10272    12017 STO +0 60100 0 15353    12020 TSX +0 07400 4 00045
 12021 TXH +3 00000 0 10272    12022 STO +0 60100 0 15352    12023 TSX +0 07400 4 00042    12024 TXH +3 00000 0 15352
 12025 TXH +3 00000 0 15353    12026 TNZ -0 10000 0 12031    12027 CLA +0 50000 0 10321    12030 STO +0 60100 0 06743
                 O'E                                                                211  LM00256
 12031 TRA +0 02000 0 12034
      UP02            COPYSW=1B                                                     212  LM00257
 12032 CLA +0 50000 0 10321    12033 STO +0 60100 0 06743
                 E'L                                                                213  LM00258
                 GNEXT.(REN)                                                        214  LM00259
 12034 TSX +0 07400 4 00047    12035 TXH +3 00000 0 00766
                 GOTNXT=1B                                                          215  LM00260
 12036 CLA +0 50000 0 10321    12037 STO +0 60100 0 10217
                 T'O UP01                                                           216  LM00261
 12040 TRA +0 02000 0 01001
                 O'E                                                                217  LM00265
 12041 TRA +0 02000 0 12053
                 PRMESS.(KEY,$ -- NOT A VALID ARGUMENT.$)                           218  LM00266
 12042 TSX +0 07400 4 00027    12043 TXH +3 00000 0 10224    12044 TXH +3 00000 0 10441    12045 TXH +3 00000 0 10470
 12046 TXH +3 00000 0 10406    12047 TXH +3 00000 0 10375    12050 TXH +3 00000 0 10400
                 CHNCOM.(0)                                                         219  LM00267
 12051 TSX +0 07400 4 00010    12052 TXH +3 00000 0 10320
                 E'L                                                                220  LM00268
      SPC        PRMESS.                                                            221  LM00272
 12053 TSX +0 07400 4 00027
                 T'O FNF                                                            222  LM00273
 12054 TRA +0 02000 0 00755
      REN        CLS.(NM1,NM2)                                                      223  LM00274
 12055 TSX +0 07400 4 00036    12056 TXH +3 00000 0 00061    12057 TXH +3 00000 0 00060
      FNF        W'R NAMTYP                                                         224  LM00275
 12060 NZT -0 52000 0 10230    12061 TRA +0 02000 0 12135
                    T'H FN01A, FOR I = 1,1,I.G.FILTAB/2                             225  LM00276
 12062 CLA +0 50000 0 10321    12063 STO +0 60100 0 10221    12064 TRA +0 02000 0 12070    12065 CLA +0 50000 0 10221
 12066 ADD +0 40000 0 10321    12067 STO +0 60100 0 10221    12070 LDQ +0 56000 0 10207    12071 PXD -0 75400 0 00000
 12072 LLS +0 76300 0 00000    12073 DVP +0 22100 0 10322    12074 XCA +0 13100 0 00000    12075 CHS +0 76000 0 00002
 12076 ADD +0 40000 0 10221    12077 TZE +0 10000 0 12101    12100 TPL +0 12000 0 12134
                    W'R .NOT.FILFND(I)                                              226  LM00277
 12101 LXA +0 53400 1 10221    12102 ZET +0 52000 1 10166    12103 TRA +0 02000 0 12133
                 PRMESS.(FILTAB(2*I-1),BL,FILTAB(2*I),$ NOT FOUND I$,               227  LM00278
                1 456057575757K,NM1,BL,NM2)                                         227  LM00279
 12104 LDQ +0 56000 0 10322    12105 MPY +0 20000 0 10221    12106 XCA +0 13100 0 00000    12107 SUB +0 40200 0 12110
 12110 TXH +3 00000 0 10207    12111 STA +0 62100 0 12124    12112 LDQ +0 56000 0 10322    12113 MPY +0 20000 0 10221
 12114 XCA +0 13100 0 00000    12115 SUB +0 40200 0 10321    12116 SUB +0 40200 0 12117    12117 TXH +3 00000 0 10207
 12120 STA +0 62100 0 12122    12121 TSX +0 07400 4 00027    12122 TXH +3 00000 0 00000    12123 TXH +3 00000 0 01011
 12124 TXH +3 00000 0 00000    12125 TXH +3 00000 0 10445    12126 TXH +3 00000 0 10420    12127 TXH +3 00000 0 10415
 12130 TXH +3 00000 0 00061    12131 TXH +3 00000 0 01011    12132 TXH +3 00000 0 00060
      FN01A         E'L                                                             228  LM00280
 12133 TRA +0 02000 0 12065
                 O'E                                                                229  LM00281
 12134 TRA +0 02000 0 12171
                    T'H FNO1B, FOR I=1,1,I.G.FILTAB                                 230  LM00282
 12135 CLA +0 50000 0 10321    12136 STO +0 60100 0 10221    12137 TRA +0 02000 0 12143    12140 CLA +0 50000 0 10221
 12141 ADD +0 40000 0 10321    12142 STO +0 60100 0 10221    12143 CLA +0 50000 0 10221    12144 SUB +0 40200 0 10207
 12145 TZE +0 10000 0 12147    12146 TPL +0 12000 0 12171
                    W'R .NOT.FILFND(I)                                              231  LM00283
 12147 LXA +0 53400 1 10221    12150 ZET +0 52000 1 10166    12151 TRA +0 02000 0 12170
                      PRMESS.(FILTAB(I),BL,NM2,$ NOT FOUND I$,456057575757K,        232  LM00284
                1  NM1,BL,NM2)                                                      232  LM00285
 12152 CLA +0 50000 0 10221    12153 SUB +0 40200 0 12154    12154 TXH +3 00000 0 10207    12155 STA +0 62100 0 12157
 12156 TSX +0 07400 4 00027    12157 TXH +3 00000 0 00000    12160 TXH +3 00000 0 01011    12161 TXH +3 00000 0 00060
 12162 TXH +3 00000 0 10445    12163 TXH +3 00000 0 10420    12164 TXH +3 00000 0 10415    12165 TXH +3 00000 0 00061
 12166 TXH +3 00000 0 01011    12167 TXH +3 00000 0 00060
      FNO1B         E'L                                                             233  LM00286
 12170 TRA +0 02000 0 12140
                 E'L                                                                234  LM00287
      EXT        CHNCOM.(0)                                                         235  LM00288
 12171 TSX +0 07400 4 00010    12172 TXH +3 00000 0 10320
                 PRMESS.($FRAM$)                                                    236  LM00289
 12173 TSX +0 07400 4 00027    12174 TXH +3 00000 0 10373
                 PRMESS.($NOTIFY SYSTEMS STAFF$)                                    237  LM00290
 12175 TSX +0 07400 4 00027    12176 TXH +3 00000 0 10413    12177 TXH +3 00000 0 10462    12200 TXH +3 00000 0 10411
 12201 TXH +3 00000 0 10372
                 DORMNT.                                                            238  LM00291
 12202 TSX +0 07400 4 00014
                 INSERT FILE ASUBS                                                  239  LM00299
                 INTERNAL FUNCTION (EOFXT)                                          240  LM00008
 12203 TRA +0 02000 0 12432
                 STATEMENT LABEL EOFXT                                              241  LM00009
                 E'O SEARCH.                                                        242  LM00010
 12204 TRA +0 02000 0 12207    00054 TTR +0 02100 0 12205    12205 SXA +0 63400 2 12414    12206 TSX +0 07400 2 12414
                 W'R NAMTYP                                                         243  LM00011
 12207 NZT -0 52000 0 10230    12210 TRA +0 02000 0 12316
                    W'R .NOT. COPYSW                                                244  LM00012
 12211 ZET +0 52000 0 06743    12212 TRA +0 02000 0 12241
                    T'H SR00A, FOR I=1,1,I.G.FILTAB                                 245  LM00013
 12213 CLA +0 50000 0 10321    12214 STO +0 60100 0 10221    12215 TRA +0 02000 0 12221    12216 CLA +0 50000 0 10221
 12217 ADD +0 40000 0 10321    12220 STO +0 60100 0 10221    12221 CLA +0 50000 0 10221    12222 SUB +0 40200 0 10207
 12223 TZE +0 10000 0 12225    12224 TPL +0 12000 0 12232
      SR00A      W'R .NOT. FILFND(I), T'O SRP0A                                     246  LM00014
 12225 LXA +0 53400 1 10221    12226 ZET +0 52000 1 10166    12227 TRA +0 02000 0 12231    12230 TRA +0 02000 0 00775
 12231 TRA +0 02000 0 12216
                    BFCLOS.(NM1,NM2,GERR)                                           247  LM00015
 12232 TSX +0 07400 4 00002    12233 TXH +3 00000 0 00061    12234 TXH +3 00000 0 00060    12235 TXH +3 00000 0 00760
                    AROPSW=0B                                                       248  LM00016
 12236 CLA +0 50000 0 10320    12237 STO +0 60100 0 01010
                    T'O EOFXT                                                       249  LM00017
 12240 TRA +0 02000 0 00024
                 E'L                                                                250  LM00018
      SRP0A      CONTINUE                                                           251  LM00019
                 W'R PRSSW.AND.AROPSW, T'O SR02A                                    252  LM00020
 12241 NZT -0 52000 0 01010    12242 TRA +0 02000 0 12246    12243 NZT -0 52000 0 10273    12244 TRA +0 02000 0 12246
 12245 TRA +0 02000 0 00773
      SR01A      GNEXT.(EOFXT)                                                      253  LM00021
 12246 TSX +0 07400 4 00047    12247 TXH +3 00000 0 00024
      SR02A      T'H SR03A, FOR FILTBP=1,2,FILTBP.G.FILTAB                          254  LM00022
 12250 CLA +0 50000 0 10321    12251 STO +0 60100 0 10210    12252 TRA +0 02000 0 12256    12253 CLA +0 50000 0 10210
 12254 ADD +0 40000 0 10322    12255 STO +0 60100 0 10210    12256 CLA +0 50000 0 10210    12257 SUB +0 40200 0 10207
 12260 TZE +0 10000 0 12262    12261 TPL +0 12000 0 12314
                 PNTR=(FILTBP+1)/2                                                  255  LM00023
 12262 CLA +0 50000 0 10210    12263 ADD +0 40000 0 10321    12264 LRS +0 76500 0 00043    12265 DVP +0 22100 0 10322
 12266 STQ -0 60000 0 10253
                 W'R FLN1.(PRLNMK).E.FILTAB(FILTBP)                                 256  LM00024
                1   .AND.FLN2.(PRLNMK).E.FILTAB(FILTBP+1)                           256  LM00025
                2   .AND..NOT.FILFND(PNTR)                                          256  LM00026
 12267 LXA +0 53400 1 10253    12270 ZET +0 52000 1 10166    12271 TRA +0 02000 0 12313    12272 CLA +0 50000 0 10210
 12273 ADD +0 40000 0 10321    12274 STO +0 60100 0 12431    12275 TSX +0 07400 4 00046    12276 TXH +3 00000 0 10272
 12277 LXA +0 53400 2 12431    12300 SUB +0 40200 2 10207    12301 TNZ -0 10000 0 12313    12302 TSX +0 07400 4 00045
 12303 TXH +3 00000 0 10272    12304 LXA +0 53400 2 10210    12305 SUB +0 40200 2 10207    12306 TNZ -0 10000 0 12313
                 FILFND(PNTR)=1B                                                    257  LM00027
 12307 LXA +0 53400 1 10253    12310 CLA +0 50000 0 10321    12311 STO +0 60100 1 10166
                 F'N                                                                258  LM00028
 12312 TRA +0 02000 0 12425
      SR03A      E'L                                                                259  LM00029
 12313 TRA +0 02000 0 12253
                 T'O SR01A                                                          260  LM00030
 12314 TRA +0 02000 0 00771
                 O'E                                                                261  LM00031
 12315 TRA +0 02000 0 12413
                 W'R .NOT.COPYSW                                                    262  LM00032
 12316 ZET +0 52000 0 06743    12317 TRA +0 02000 0 12346
                    T'H SR00, FOR I=1,1,I.G.FILTAB                                  263  LM00033
 12320 CLA +0 50000 0 10321    12321 STO +0 60100 0 10221    12322 TRA +0 02000 0 12326    12323 CLA +0 50000 0 10221
 12324 ADD +0 40000 0 10321    12325 STO +0 60100 0 10221    12326 CLA +0 50000 0 10221    12327 SUB +0 40200 0 10207
 12330 TZE +0 10000 0 12332    12331 TPL +0 12000 0 12337
      SR00          W'R .NOT.FILFND(I), T'O SRP0                                    264  LM00034
 12332 LXA +0 53400 1 10221    12333 ZET +0 52000 1 10166    12334 TRA +0 02000 0 12336    12335 TRA +0 02000 0 00776
 12336 TRA +0 02000 0 12323
                    BFCLOS.(NM1,NM2,GERR)                                           265  LM00035
 12337 TSX +0 07400 4 00002    12340 TXH +3 00000 0 00061    12341 TXH +3 00000 0 00060    12342 TXH +3 00000 0 00760
                    AROPSW=0B                                                       266  LM00036
 12343 CLA +0 50000 0 10320    12344 STO +0 60100 0 01010
                    T'O EOFXT                                                       267  LM00037
 12345 TRA +0 02000 0 00024
                 E'L                                                                268  LM00038
      SRP0       CONTINUE                                                           269  LM00039
                 W'R PRSSW.AND.AROPSW, T'O SR02                                     270  LM00040
 12346 NZT -0 52000 0 01010    12347 TRA +0 02000 0 12353    12350 NZT -0 52000 0 10273    12351 TRA +0 02000 0 12353
 12352 TRA +0 02000 0 00774
      SR01       GNEXT.(EOFXT)                                                      271  LM00041
 12353 TSX +0 07400 4 00047    12354 TXH +3 00000 0 00024
      SR02       W'R FLN2.(PRLNMK).NE.NM2                                           272  LM00042
 12355 TSX +0 07400 4 00046    12356 TXH +3 00000 0 10272    12357 SUB +0 40200 0 00060    12360 TZE +0 10000 0 12363
                    T'O SR01                                                        273  LM00043
 12361 TRA +0 02000 0 00772
                 O'E                                                                274  LM00044
 12362 TRA +0 02000 0 12413
                    T'H SR03, FOR FILTBP=1,1,FILTBP.G.FILTAB                        275  LM00045
 12363 CLA +0 50000 0 10321    12364 STO +0 60100 0 10210    12365 TRA +0 02000 0 12371    12366 CLA +0 50000 0 10210
 12367 ADD +0 40000 0 10321    12370 STO +0 60100 0 10210    12371 CLA +0 50000 0 10210    12372 SUB +0 40200 0 10207
 12373 TZE +0 10000 0 12375    12374 TPL +0 12000 0 12412
                 W'R FLN1.(PRLNMK).E.FILTAB(FILTBP)                                 276  LM00046
                1   .AND..NOT.FILFND(FILTBP)                                        276  LM00047
 12375 LXA +0 53400 1 10210    12376 ZET +0 52000 1 10166    12377 TRA +0 02000 0 12411    12400 TSX +0 07400 4 00045
 12401 TXH +3 00000 0 10272    12402 LXA +0 53400 2 10210    12403 SUB +0 40200 2 10207    12404 TNZ -0 10000 0 12411
                       FILFND(FILTBP)=1B                                            277  LM00048
 12405 LXA +0 53400 1 10210    12406 CLA +0 50000 0 10321    12407 STO +0 60100 1 10166
                       FUNCTION RETURN                                              278  LM00049
 12410 TRA +0 02000 0 12425
      SR03          E'L                                                             279  LM00050
 12411 TRA +0 02000 0 12366
                 T'O SR01                                                           280  LM00051
 12412 TRA +0 02000 0 00772
                 E'L                                                                281  LM00052
                 E'L                                                                282  LM00053
                 END OF FUNCTION                                                    283  LM00054
 12413 TSX +0 07400 4 00015    12414 TXH +3 00000 0 00000    12415 SXD -0 63400 1 12414    12416 SXA +0 63400 4 12425
 12417 CLA +0 50000 4 00001    12420 STA +0 62100 0 12240    12421 STO +0 60100 0 12247    12422 STA +0 62100 0 12345
 12423 STO +0 60100 0 12354    12424 TRA +0 02000 2 00001    12425 AXT +0 77400 4 00000    12426 LXA +0 53400 2 12414
 12427 LXD -0 53400 1 12414    12430 TRA +0 02000 4 00001
                 INTERNAL FUNCTION (EOFXT)                                          284  LM00061
 12432 TRA +0 02000 0 13007
                 STATEMENT LABEL EOFXT                                              285  LM00062
                 E'O GNEXT.                                                         286  LM00063
 12433 TRA +0 02000 0 12436    00047 TTR +0 02100 0 12434    12434 SXA +0 63400 2 12774    12435 TSX +0 07400 2 12774
                 W'R .NOT. AROPSW                                                   287  LM00064
 12436 ZET +0 52000 0 01010    12437 TRA +0 02000 0 12504
                      BFOPEN.($R$,NM1,NM2,BUF1(BUFZ),BUF2(BUFZ),-0,GERR)            288  LM00065
 12440 CLS +0 50200 0 10320    12441 STO +0 60100 0 13006    12442 CLA +0 50000 0 06741    12443 SUB +0 40200 0 12444
 12444 TXH +3 00000 0 02553    12445 STA +0 62100 0 12457    12446 CLA +0 50000 0 06741    12447 SUB +0 40200 0 12450
 12450 TXH +3 00000 0 01672    12451 STA +0 62100 0 12456    12452 TSX +0 07400 4 00003    12453 TXH +3 00000 0 10430
 12454 TXH +3 00000 0 00061    12455 TXH +3 00000 0 00060    12456 TXH +3 00000 0 00000    12457 TXH +3 00000 0 00000
 12460 TXH +3 00000 0 13006    12461 TXH +3 00000 0 00760
                      BFREAD.(NM1,NM2,PRLNMK(LMKZ)...LMKZ,FRMER,EOFCT,GERR)         289  LM00066
 12462 CLA +0 50000 0 10225    12463 SUB +0 40200 0 12464    12464 TXH +3 00000 0 10272    12465 STA +0 62100 0 12471
 12466 TSX +0 07400 4 00004    12467 TXH +3 00000 0 00061    12470 TXH +3 00000 0 00060    12471 TIX +2 10225 0 00000
 12472 TXH +3 00000 0 00757    12473 TXH +3 00000 0 10145    12474 TXH +3 00000 0 00760
                      W'R BDLNMK.(PRLNMK)                                           290  LM00067
 12475 TSX +0 07400 4 00035    12476 TXH +3 00000 0 10272    12477 TZE +0 10000 0 12501
                      T'O FRMER                                                     291  LM00068
 12500 TRA +0 02000 0 00757
                      E'L                                                           292  LM00069
                 AROPSW=1B                                                          293  LM00070
 12501 CLA +0 50000 0 10321    12502 STO +0 60100 0 01010
                 FUNCTION RETURN                                                    294  LM00071
 12503 TRA +0 02000 0 13002
                 E'L                                                                295  LM00072
                 W'R COPYSW .AND. .NOT. TMOPSW                                      296  LM00073
 12504 ZET +0 52000 0 10301    12505 TRA +0 02000 0 12543    12506 NZT -0 52000 0 06743    12507 TRA +0 02000 0 12543
                      DELETE.(TM1,TM2,0,OUT)                                        297  LM00074
 12510 TSX +0 07400 4 00013    12511 TXH +3 00000 0 00064    12512 TXH +3 00000 0 00063    12513 TXH +3 00000 0 10320
 12514 TXH +3 00000 0 00765
                      BFOPEN.($W$,TM1,TM2,BUF3(BUFZ),BUF4(BUFZ),BUF5(BUFZ),         298  LM00075
                1       GERR)                                                       298  LM00076
 12515 CLA +0 50000 0 06741    12516 SUB +0 40200 0 12517    12517 TXH +3 00000 0 05176    12520 STA +0 62100 0 12537
 12521 CLA +0 50000 0 06741    12522 SUB +0 40200 0 12523    12523 TXH +3 00000 0 04315    12524 STA +0 62100 0 12536
 12525 CLA +0 50000 0 06741    12526 SUB +0 40200 0 12527    12527 TXH +3 00000 0 03434    12530 STA +0 62100 0 12535
 12531 TSX +0 07400 4 00003    12532 TXH +3 00000 0 10501    12533 TXH +3 00000 0 00064    12534 TXH +3 00000 0 00063
 12535 TXH +3 00000 0 00000    12536 TXH +3 00000 0 00000    12537 TXH +3 00000 0 00000    12540 TXH +3 00000 0 00760
                      TMOPSW=1B                                                     299  LM00077
 12541 CLA +0 50000 0 10321    12542 STO +0 60100 0 10301
                 E'L                                                                300  LM00078
                 W'R COPYSW .AND. WMRKSW                                            301  LM00079
 12543 NZT -0 52000 0 10316    12544 TRA +0 02000 0 12560    12545 NZT -0 52000 0 06743    12546 TRA +0 02000 0 12560
                      BFWRIT.(TM1,TM2,PRLNMK(LMKZ)...LMKZ,GERR)                     302  LM00080
 12547 CLA +0 50000 0 10225    12550 SUB +0 40200 0 12551    12551 TXH +3 00000 0 10272    12552 STA +0 62100 0 12556
 12553 TSX +0 07400 4 00005    12554 TXH +3 00000 0 00064    12555 TXH +3 00000 0 00063    12556 TIX +2 10225 0 00000
 12557 TXH +3 00000 0 00760
                 E'L                                                                303  LM00081
                 W'R .NOT. ADJSW                                                    304  LM00082
 12560 ZET +0 52000 0 01006    12561 TRA +0 02000 0 12716
                      AFZ=CNT.(PRLNMK)                                              305  LM00083
 12562 TSX +0 07400 4 00037    12563 TXH +3 00000 0 10272    12564 STO +0 60100 0 01007
                      T'H COPY, FOR I=CPBUFZ,CPBUFZ,I.GE.AFZ                        306  LM00084
 12565 CLA +0 50000 0 07625    12566 STO +0 60100 0 10221    12567 TRA +0 02000 0 12573    12570 CLA +0 50000 0 10221
 12571 ADD +0 40000 0 07625    12572 STO +0 60100 0 10221    12573 CLA +0 50000 0 10221    12574 SUB +0 40200 0 01007
 12575 TZE +0 10000 0 12626    12576 TPL +0 12000 0 12626
                           BFREAD.(NM1,NM2,CPBUF(CPBUFZ)...CPBUFZ,                  307  LM00085
                1            FRMER,EOFCT,GERR)                                      307  LM00086
 12577 CLA +0 50000 0 07625    12600 SUB +0 40200 0 12601    12601 TXH +3 00000 0 07624    12602 STA +0 62100 0 12606
 12603 TSX +0 07400 4 00004    12604 TXH +3 00000 0 00061    12605 TXH +3 00000 0 00060    12606 TIX +2 07625 0 00000
 12607 TXH +3 00000 0 00757    12610 TXH +3 00000 0 10145    12611 TXH +3 00000 0 00760
                           W'R COPYSW                                               308  LM00087
 12612 NZT -0 52000 0 06743    12613 TRA +0 02000 0 12625
                                BFWRIT.(TM1,TM2,CPBUF(CPBUFZ)...CPBUFZ,GERR)        309  LM00088
 12614 CLA +0 50000 0 07625    12615 SUB +0 40200 0 12616    12616 TXH +3 00000 0 07624    12617 STA +0 62100 0 12623
 12620 TSX +0 07400 4 00005    12621 TXH +3 00000 0 00064    12622 TXH +3 00000 0 00063    12623 TIX +2 07625 0 00000
 12624 TXH +3 00000 0 00760
                           E'L                                                      310  LM00089
      COPY            CONTINUE                                                      311  LM00090
 12625 TRA +0 02000 0 12570
                      REMN=CPBUFZ-(I-AFZ)                                           312  LM00091
 12626 CLA +0 50000 0 10221    12627 SUB +0 40200 0 01007    12630 CHS +0 76000 0 00002    12631 ADD +0 40000 0 07625
 12632 STO +0 60100 0 10275
                      BFREAD.(NM1,NM2,CPBUF(REMN)...REMN,                           313  LM00092
                1       FRMER,EOFCT,GERR)                                           313  LM00093
 12633 CLA +0 50000 0 10275    12634 SUB +0 40200 0 12635    12635 TXH +3 00000 0 07624    12636 STA +0 62100 0 12642
 12637 TSX +0 07400 4 00004    12640 TXH +3 00000 0 00061    12641 TXH +3 00000 0 00060    12642 TIX +2 10275 0 00000
 12643 TXH +3 00000 0 00757    12644 TXH +3 00000 0 10145    12645 TXH +3 00000 0 00760
                      W'R COPYSW                                                    314  LM00094
 12646 NZT -0 52000 0 06743    12647 TRA +0 02000 0 12716
                           W'R .NOT. WMRKSW                                         315  LM00095
 12650 ZET +0 52000 0 10316    12651 TRA +0 02000 0 12705
                                T'H FXT, FOR I = 27, -9, I.L.0                      316  LM00096
 12652 CLA +0 50000 0 10335    12653 STO +0 60100 0 10221    12654 TRA +0 02000 0 12660    12655 CLS +0 50200 0 10330
 12656 ADD +0 40000 0 10221    12657 STO +0 60100 0 10221    12660 CLA +0 50000 0 10221    12661 SUB +0 40200 0 10320
 12662 TZE +0 10000 0 12664    12663 TMI -0 12000 0 12705
                                W'R ((CPBUF (1) .RS. I) .A. 777K) .E. 000K          317  LM00097
 12664 CAL -0 50000 0 10221    12665 STA +0 62100 0 12667    12666 CAL -0 50000 0 07623    12667 LGR -0 76500 0 00000
 12670 ANA -0 32000 0 10343    12671 SLW +0 60200 0 13006    12672 CLA +0 50000 0 13006    12673 SUB +0 40200 0 10320
 12674 TNZ -0 10000 0 12704
                                CPBUF (1) = CPBUF (1) .V. 003K .LS. I               318  LM00098
 12675 CAL -0 50000 0 10221    12676 STA +0 62100 0 12700    12677 CAL -0 50000 0 10323    12700 ALS +0 76700 0 00000
 12701 ORA -0 50100 0 07623    12702 SLW +0 60200 0 07623
                                T'O EFXT                                            319  LM00099
 12703 TRA +0 02000 0 00752
      FXT                       E'L                                                 320  LM00100
 12704 TRA +0 02000 0 12655
      EFXT                 E'L                                                      321  LM00101
                           BFWRIT.(TM1,TM2,CPBUF(REMN)...REMN,GERR)                 322  LM00102
 12705 CLA +0 50000 0 10275    12706 SUB +0 40200 0 12707    12707 TXH +3 00000 0 07624    12710 STA +0 62100 0 12714
 12711 TSX +0 07400 4 00005    12712 TXH +3 00000 0 00064    12713 TXH +3 00000 0 00063    12714 TIX +2 10275 0 00000
 12715 TXH +3 00000 0 00760
                      E'L                                                           323  LM00103
                 E'L                                                                324  LM00104
                 BFREAD.(NM1,NM2,PRLNMK(LMKZ)...LMKZ,EOF,EOFCT,GERR)                325  LM00105
 12716 CLA +0 50000 0 10225    12717 SUB +0 40200 0 12720    12720 TXH +3 00000 0 10272    12721 STA +0 62100 0 12725
 12722 TSX +0 07400 4 00004    12723 TXH +3 00000 0 00061    12724 TXH +3 00000 0 00060    12725 TIX +2 10225 0 00000
 12726 TXH +3 00000 0 00753    12727 TXH +3 00000 0 10145    12730 TXH +3 00000 0 00760
                 W'R BDLNMK.(PRLNMK),T'O FRMER                                      326  LM00106
 12731 TSX +0 07400 4 00035    12732 TXH +3 00000 0 10272    12733 TZE +0 10000 0 12735    12734 TRA +0 02000 0 00757
                 ADJSW=0B                                                           327  LM00107
 12735 CLA +0 50000 0 10320    12736 STO +0 60100 0 01006
                 F'N                                                                328  LM00108
 12737 TRA +0 02000 0 13002
      EOF        BFCLOS.(NM1,NM2,GERR)                                              329  LM00109
 12740 TSX +0 07400 4 00002    12741 TXH +3 00000 0 00061    12742 TXH +3 00000 0 00060    12743 TXH +3 00000 0 00760
                 AROPSW=0B                                                          330  LM00110
 12744 CLA +0 50000 0 10320    12745 STO +0 60100 0 01010
                 T'O EOFXT                                                          331  LM00111
 12746 TRA +0 02000 0 00024
      FRMER      PRMESS.($ARCHIV FORMAT ERROR IN$,NM1,BL,NM2)                       332  LM00112
 12747 TSX +0 07400 4 00027    12750 TXH +3 00000 0 10357    12751 TXH +3 00000 0 10437    12752 TXH +3 00000 0 10471
 12753 TXH +3 00000 0 10427    12754 TXH +3 00000 0 00061    12755 TXH +3 00000 0 01011    12756 TXH +3 00000 0 00060
                 BFCLOS.($   ALL$,-0,GERR)                                          333  LM00113
 12757 CLS +0 50200 0 10320    12760 STO +0 60100 0 13006    12761 TSX +0 07400 4 00002    12762 TXH +3 00000 0 10447
 12763 TXH +3 00000 0 13006    12764 TXH +3 00000 0 00760
                 CHNCOM.(1)                                                         334  LM00114
 12765 TSX +0 07400 4 00010    12766 TXH +3 00000 0 10321
      GERR       PRNTER.(61K)                                                       335  LM00115
 12767 TSX +0 07400 4 00030    12770 TXH +3 00000 0 10337
                 CHNCOM.(1)                                                         336  LM00116
 12771 TSX +0 07400 4 00010    12772 TXH +3 00000 0 10321
                 END OF FUNCTION                                                    337  LM00117
 12773 TSX +0 07400 4 00015    12774 TXH +3 00000 0 00000    12775 SXD -0 63400 1 12774    12776 SXA +0 63400 4 13002
 12777 CLA +0 50000 4 00001    13000 STA +0 62100 0 12746    13001 TRA +0 02000 2 00001    13002 AXT +0 77400 4 00000
 13003 LXA +0 53400 2 12774    13004 LXD -0 53400 1 12774    13005 TRA +0 02000 4 00001
                 BOOLEAN CPFIL.                                                     338  LM00126
                 INTERNAL FUNCTION(A,B)                                             339  LM00127
 13007 TRA +0 02000 0 13351
                 E'O CPFIL.                                                         340  LM00128
 13010 TRA +0 02000 0 13013    00042 TTR +0 02100 0 13011    13011 SXA +0 63400 2 13324    13012 TSX +0 07400 2 13324
                 W'R .NOT. MKLNMK.(A,B,CT)                                          341  LM00129
 13013 TSX +0 07400 4 00051    13014 TXH +3 00000 0 00024    13015 TXH +3 00000 0 00024    13016 TXH +3 00000 0 07627
 13017 TNZ -0 10000 0 13023
                      F'N 0B                                                        342  LM00130
 13020 CLA +0 50000 0 10320    13021 TRA +0 02000 0 13344
                 O'E                                                                343  LM00131
 13022 TRA +0 02000 0 13304
                      W'R .NOT. TMOPSW                                              344  LM00132
 13023 ZET +0 52000 0 10301    13024 TRA +0 02000 0 13060
                           DELETE.(TM1,TM2,0,OUT)                                   345  LM00133
 13025 TSX +0 07400 4 00013    13026 TXH +3 00000 0 00064    13027 TXH +3 00000 0 00063    13030 TXH +3 00000 0 10320
 13031 TXH +3 00000 0 00765
                           BFOPEN.($W$,TM1,TM2,BUF3(BUFZ),BUF4(BUFZ),               346  LM00134
                1            BUF5(BUFZ),GERR)                                       346  LM00135
 13032 CLA +0 50000 0 06741    13033 SUB +0 40200 0 13034    13034 TXH +3 00000 0 05176    13035 STA +0 62100 0 13054
 13036 CLA +0 50000 0 06741    13037 SUB +0 40200 0 13040    13040 TXH +3 00000 0 04315    13041 STA +0 62100 0 13053
 13042 CLA +0 50000 0 06741    13043 SUB +0 40200 0 13044    13044 TXH +3 00000 0 03434    13045 STA +0 62100 0 13052
 13046 TSX +0 07400 4 00003    13047 TXH +3 00000 0 10501    13050 TXH +3 00000 0 00064    13051 TXH +3 00000 0 00063
 13052 TXH +3 00000 0 00000    13053 TXH +3 00000 0 00000    13054 TXH +3 00000 0 00000    13055 TXH +3 00000 0 00760
                           TMOPSW=1B                                                347  LM00136
 13056 CLA +0 50000 0 10321    13057 STO +0 60100 0 10301
                      E'L                                                           348  LM00137
                      BFOPEN.($R$,A,B,BUF6(BUFZ),BUF7(BUFZ),-0,GERR)                349  LM00138
 13060 CLS +0 50200 0 10320    13061 STO +0 60100 0 13350    13062 CLA +0 50000 0 06741    13063 SUB +0 40200 0 13064
 13064 TXH +3 00000 0 06740    13065 STA +0 62100 0 13077    13066 CLA +0 50000 0 06741    13067 SUB +0 40200 0 13070
 13070 TXH +3 00000 0 06057    13071 STA +0 62100 0 13076    13072 TSX +0 07400 4 00003    13073 TXH +3 00000 0 10430
 13074 TXH +3 00000 0 00024    13075 TXH +3 00000 0 00024    13076 TXH +3 00000 0 00000    13077 TXH +3 00000 0 00000
 13100 TXH +3 00000 0 13350    13101 TXH +3 00000 0 00760
                      FRSTSW=1B                                                     350  LM00139
 13102 CLA +0 50000 0 10321    13103 STO +0 60100 0 10216
                      T'H CPF01, FOR I=CPBUFZ,CPBUFZ,I.G.CT                         351  LM00140
 13104 CLA +0 50000 0 07625    13105 STO +0 60100 0 10221    13106 TRA +0 02000 0 13112    13107 CLA +0 50000 0 10221
 13110 ADD +0 40000 0 07625    13111 STO +0 60100 0 10221    13112 CLA +0 50000 0 10221    13113 SUB +0 40200 0 07627
 13114 TZE +0 10000 0 13116    13115 TPL +0 12000 0 13170
                           BFREAD.(A,B,CPBUF(CPBUFZ)...CPBUFZ,                      352  LM00141
                1            CPFEF,EOFCT,GERR)                                      352  LM00142
 13116 CLA +0 50000 0 07625    13117 SUB +0 40200 0 13120    13120 TXH +3 00000 0 07624    13121 STA +0 62100 0 13125
 13122 TSX +0 07400 4 00004    13123 TXH +3 00000 0 00024    13124 TXH +3 00000 0 00024    13125 TIX +2 07625 0 00000
 13126 TXH +3 00000 0 00750    13127 TXH +3 00000 0 10145    13130 TXH +3 00000 0 00760
                           W'R BDLNMK.(CPBUF(CPBUFZ-LMKZ)) .AND. FRSTSW             353  LM00143
 13131 NZT -0 52000 0 10216    13132 TRA +0 02000 0 13154    13133 CLA +0 50000 0 07625    13134 SUB +0 40200 0 10225
 13135 SUB +0 40200 0 13136    13136 TXH +3 00000 0 07624    13137 STA +0 62100 0 13141    13140 TSX +0 07400 4 00035
 13141 TXH +3 00000 0 00000    13142 TZE +0 10000 0 13154
                                BFWRIT.(TM1,TM2,NWLNMK(LMKZ)...LMKZ,GERR)           354  LM00144
 13143 CLA +0 50000 0 10225    13144 SUB +0 40200 0 13145    13145 TXH +3 00000 0 10251    13146 STA +0 62100 0 13152
 13147 TSX +0 07400 4 00005    13150 TXH +3 00000 0 00064    13151 TXH +3 00000 0 00063    13152 TIX +2 10225 0 00000
 13153 TXH +3 00000 0 00760
                           E'L                                                      355  LM00145
                      FRSTSW=0B                                                     356  LM00146
 13154 CLA +0 50000 0 10320    13155 STO +0 60100 0 10216
      CPF01                BFWRIT.(TM1,TM2,CPBUF(CPBUFZ)...CPBUFZ,GERR)             357  LM00147
 13156 CLA +0 50000 0 07625    13157 SUB +0 40200 0 13160    13160 TXH +3 00000 0 07624    13161 STA +0 62100 0 13165
 13162 TSX +0 07400 4 00005    13163 TXH +3 00000 0 00064    13164 TXH +3 00000 0 00063    13165 TIX +2 07625 0 00000
 13166 TXH +3 00000 0 00760    13167 TRA +0 02000 0 13107
                      REMN=CPBUFZ-(I-CT)                                            358  LM00148
 13170 CLA +0 50000 0 10221    13171 SUB +0 40200 0 07627    13172 CHS +0 76000 0 00002    13173 ADD +0 40000 0 07625
 13174 STO +0 60100 0 10275
                      BFREAD.(A,B,CPBUF(REMN)...REMN,CPFEF,EOFCT,GERR)              359  LM00149
 13175 CLA +0 50000 0 10275    13176 SUB +0 40200 0 13177    13177 TXH +3 00000 0 07624    13200 STA +0 62100 0 13204
 13201 TSX +0 07400 4 00004    13202 TXH +3 00000 0 00024    13203 TXH +3 00000 0 00024    13204 TIX +2 10275 0 00000
 13205 TXH +3 00000 0 00750    13206 TXH +3 00000 0 10145    13207 TXH +3 00000 0 00760
                      W'R  BDLNMK.(CPBUF(REMN-LMKZ)) .AND. FRSTSW                   360  LM00150
 13210 NZT -0 52000 0 10216    13211 TRA +0 02000 0 13233    13212 CLA +0 50000 0 10275    13213 SUB +0 40200 0 10225
 13214 SUB +0 40200 0 13215    13215 TXH +3 00000 0 07624    13216 STA +0 62100 0 13220    13217 TSX +0 07400 4 00035
 13220 TXH +3 00000 0 00000    13221 TZE +0 10000 0 13233
                           BFWRIT.(TM1,TM2,NWLNMK(LMKZ)...LMKZ,GERR)                361  LM00151
 13222 CLA +0 50000 0 10225    13223 SUB +0 40200 0 13224    13224 TXH +3 00000 0 10251    13225 STA +0 62100 0 13231
 13226 TSX +0 07400 4 00005    13227 TXH +3 00000 0 00064    13230 TXH +3 00000 0 00063    13231 TIX +2 10225 0 00000
 13232 TXH +3 00000 0 00760
                      E'L                                                           362  LM00152
                 T'H FDLOOP, FOR I = 27,-9,(I.L.0)                                  363  LM00156
 13233 CLA +0 50000 0 10335    13234 STO +0 60100 0 10221    13235 TRA +0 02000 0 13241    13236 CLS +0 50200 0 10330
 13237 ADD +0 40000 0 10221    13240 STO +0 60100 0 10221    13241 CLA +0 50000 0 10221    13242 SUB +0 40200 0 10320
 13243 TZE +0 10000 0 13245    13244 TMI -0 12000 0 13265
                      W'R ((CPBUF(1).RS.I).A.777K).E.003K,                          364  LM00157
                1          CPBUF(1) = CPBUF(1) .EX. (3K.LS.I)                       364  LM00158
 13245 CAL -0 50000 0 10221    13246 STA +0 62100 0 13250    13247 CAL -0 50000 0 07623    13250 LGR -0 76500 0 00000
 13251 ANA -0 32000 0 10343    13252 SLW +0 60200 0 13350    13253 CLA +0 50000 0 13350    13254 SUB +0 40200 0 10323
 13255 TNZ -0 10000 0 13264    13256 CAL -0 50000 0 10221    13257 STA +0 62100 0 13261    13260 CAL -0 50000 0 10323
 13261 ALS +0 76700 0 00000    13262 ERA +0 32200 0 07623    13263 SLW +0 60200 0 07623
      FDLOOP     C'E                                                                365  LM00159
 13264 TRA +0 02000 0 13236
                      BFWRIT.(TM1,TM2,CPBUF(REMN)...REMN,GERR)                      366  LM00160
 13265 CLA +0 50000 0 10275    13266 SUB +0 40200 0 13267    13267 TXH +3 00000 0 07624    13270 STA +0 62100 0 13274
 13271 TSX +0 07400 4 00005    13272 TXH +3 00000 0 00064    13273 TXH +3 00000 0 00063    13274 TIX +2 10275 0 00000
 13275 TXH +3 00000 0 00760
                      BFCLOS.(A,B,GERR)                                             367  LM00161
 13276 TSX +0 07400 4 00002    13277 TXH +3 00000 0 00024    13300 TXH +3 00000 0 00024    13301 TXH +3 00000 0 00760
                      F'N 1B                                                        368  LM00162
 13302 CLA +0 50000 0 10321    13303 TRA +0 02000 0 13344
                 E'L                                                                369  LM00163
      CPFEF      PRINT COMMENT $ERROR IN FSTATE.--NOTIFY SYSTEMS STAFF.$            370  LM00164
 13304 TSX +0 07400 4 00021    13305     +0 00000 0 00007    13306     +2 55151 4 65160    13307     +3 14560 2 66263
 13310     +2 16325 3 34040    13311     -0 54663 3 12670    13312     -2 06270 6 26325    13313     -0 46260 6 26321
 13314     +2 62633 6 06060
                 PRINT COMMENT $DORMNT CALLED$                                      371  LM00165
 13315 TSX +0 07400 4 00021    13316     +0 00000 0 00003    13317     +2 44651 4 44563    13320     -2 02321 4 34325
 13321     +2 46060 6 06060
                 DORMNT.                                                            372  LM00166
 13322 TSX +0 07400 4 00014
                 END OF FUNCTION                                                    373  LM00167
 13323 TSX +0 07400 4 00015    13324 TXH +3 00000 0 00000    13325 SXD -0 63400 1 13324    13326 SXA +0 63400 4 13344
 13327 CLA +0 50000 4 00001    13330 STO +0 60100 0 13014    13331 STO +0 60100 0 13074    13332 STO +0 60100 0 13123
 13333 STO +0 60100 0 13202    13334 STO +0 60100 0 13277    13335 CLA +0 50000 4 00002    13336 STO +0 60100 0 13015
 13337 STO +0 60100 0 13075    13340 STO +0 60100 0 13124    13341 STO +0 60100 0 13203    13342 STO +0 60100 0 13300
 13343 TRA +0 02000 2 00001    13344 AXT +0 77400 4 00000    13345 LXA +0 53400 2 13324    13346 LXD -0 53400 1 13324
 13347 TRA +0 02000 4 00001
                 NORMAL MODE IS INTEGER                                             374  LM00168
                 BOOLEAN COPYSW, PRSSW, WMRKSW, AROPSW, TMOPSW, FRSTSW              375  LM00169
                 BOOLEAN NAMO, ADJSW, NAMTYP                                        376  LM00170
                 V'S BUFZ=432                                                       377  LM00171
 06741     +0 00000 0 00660
                 D'N BUF1(432), BUF2(432), BUF3(432), BUF4(432), BUF5(432),         378  LM00172
                1  BUF6(432), BUF7(432)                                             378  LM00173
                 D'N CPBUF(432)                                                     379  LM00174
                   V'S CPBUFZ=432                                                   380  LM00175
 07625     +0 00000 0 00660
                 V'S FILTBZ=16                                                      381  LM00176
 10211     +0 00000 0 00020
                 D'N FILTAB(16)                                                     382  LM00177
                 BOOLEAN FILFND                                                     383  LM00178
                 D'N FILFND(16)                                                     384  LM00179
                 BOOLEAN CLS.                                                       385  LM00183
                 INTERNAL FUNCTION (A,B)                                            386  LM00184
 13351 TRA +0 02000 0 13522
                 E'O CLS.                                                           387  LM00185
 13352 TRA +0 02000 0 13355    00036 TTR +0 02100 0 13353    13353 SXA +0 63400 2 13472    13354 TSX +0 07400 2 13472
                 W'R TMOPSW                                                         388  LM00186
 13355 NZT -0 52000 0 10301    13356 TRA +0 02000 0 13464
                      BFCLOS.(TM1,TM2,GERR)                                         389  LM00187
 13357 TSX +0 07400 4 00002    13360 TXH +3 00000 0 00064    13361 TXH +3 00000 0 00063    13362 TXH +3 00000 0 00760
                      TMOPSW=0B                                                     390  LM00188
 13363 CLA +0 50000 0 10320    13364 STO +0 60100 0 10301
                      D'N FNM(2)                                                    391  LM00189
                      FNM(0)=A                                                      392  LM00190
 13365 CLA +0 50000 0 00024    13366 STO +0 60100 0 10215
                      FNM(1)=B                                                      393  LM00191
 13367 CLA +0 50000 0 00024    13370 STO +0 60100 0 10214
                      FSTATE.(A,B,FSBUF(8)...8,NFND)                                394  LM00192
 13371 TSX +0 07400 4 00016    13372 TXH +3 00000 0 00024    13373 TXH +3 00000 0 00024    13374 TIX +2 10327 0 00735
 13375 TXH +3 00000 0 00762
                        EQUIVALENCE (MODE,FSBUF(7))                                 395  LM00193
                      MODE=MODE.A.134K                                              396  LM00194
 13376 CAL -0 50000 0 00736    13377 ANA -0 32000 0 10342    13400 SLW +0 60200 0 00736
      CL01       DELETE.(A,B,0,NDEL1)                                               397  LM00195
 13401 TSX +0 07400 4 00013    13402 TXH +3 00000 0 00024    13403 TXH +3 00000 0 00024    13404 TXH +3 00000 0 10320
 13405 TXH +3 00000 0 00761
                 CHFILE.(TM1,TM2,-0,A,B)                                            398  LM00196
 13406 CLS +0 50200 0 10320    13407 STO +0 60100 0 13520    13410 TSX +0 07400 4 00007    13411 TXH +3 00000 0 00064
 13412 TXH +3 00000 0 00063    13413 TXH +3 00000 0 13520    13414 TXH +3 00000 0 00024    13415 TXH +3 00000 0 00024
                      W'R MODE.NE.000K .AND. KEY.NE.$    XT$                        399  LM00197
 13416 CLA +0 50000 0 10224    13417 SUB +0 40200 0 10457    13420 TZE +0 10000 0 13457    13421 CLA +0 50000 0 00736
 13422 SUB +0 40200 0 10320    13423 TZE +0 10000 0 13457
                           CHFILE.(A,B,MODE,-0,-0)                                  400  LM00198
 13424 CLS +0 50200 0 10320    13425 STO +0 60100 0 13520    13426 CLS +0 50200 0 10320    13427 STO +0 60100 0 13521
 13430 TSX +0 07400 4 00007    13431 TXH +3 00000 0 00024    13432 TXH +3 00000 0 00024    13433 TXH +3 00000 0 00736
 13434 TXH +3 00000 0 13521    13435 TXH +3 00000 0 13520
                      MODEP = (OCRBC.(MODE).A.777777K).V.575757K6                   401  LM00199
 13436 TSX +0 07400 4 00023    13437 TXH +3 00000 0 00736    13440 STO +0 60100 0 13521    13441 CAL -0 50000 0 13521
 13442 ANA -0 32000 0 10350    13443 ORA -0 50100 0 10431    13444 SLW +0 60200 0 10226
                      PRMESS.(A,BL,B,BL,$CREATED IN '$,MODEP,$' MODE.$)             402  LM00200
 13445 TSX +0 07400 4 00027    13446 TXH +3 00000 0 00024    13447 TXH +3 00000 0 01011    13450 TXH +3 00000 0 00024
 13451 TXH +3 00000 0 01011    13452 TXH +3 00000 0 10364    13453 TXH +3 00000 0 10366    13454 TXH +3 00000 0 10226
 13455 TXH +3 00000 0 10355    13456 TXH +3 00000 0 10400
                      E'L                                                           403  LM00201
                      F'N 1B                                                        404  LM00202
 13457 CLA +0 50000 0 10321    13460 TRA +0 02000 0 13514
      NDEL1           F'N 0B                                                        405  LM00203
 13461 CLA +0 50000 0 10320    13462 TRA +0 02000 0 13514
                 O'E                                                                406  LM00204
 13463 TRA +0 02000 0 13466
                      F'N 0B                                                        407  LM00205
 13464 CLA +0 50000 0 10320    13465 TRA +0 02000 0 13514
                 E'L                                                                408  LM00206
      NFND       MODE=000K                                                          409  LM00207
 13466 CLA +0 50000 0 10320    13467 STO +0 60100 0 00736
                 T'O CL01                                                           410  LM00208
 13470 TRA +0 02000 0 00746
                 END OF FUNCTION                                                    411  LM00209
 13471 TSX +0 07400 4 00015    13472 TXH +3 00000 0 00000    13473 SXD -0 63400 1 13472    13474 SXA +0 63400 4 13514
 13475 CLA +0 50000 4 00001    13476 STA +0 62100 0 13365    13477 STO +0 60100 0 13372    13500 STO +0 60100 0 13402
 13501 STO +0 60100 0 13414    13502 STO +0 60100 0 13431    13503 STO +0 60100 0 13446    13504 CLA +0 50000 4 00002
 13505 STA +0 62100 0 13367    13506 STO +0 60100 0 13373    13507 STO +0 60100 0 13403    13510 STO +0 60100 0 13415
 13511 STO +0 60100 0 13432    13512 STO +0 60100 0 13450    13513 TRA +0 02000 2 00001    13514 AXT +0 77400 4 00000
 13515 LXA +0 53400 2 13472    13516 LXD -0 53400 1 13472    13517 TRA +0 02000 4 00001
                 BOOLEAN YES.                                                       412  LM00214
                 INTERNAL FUNCTION                                                  413  LM00215
 13522 TRA +0 02000 0 13552
                 E'O YES.                                                           414  LM00216
 13523 TRA +0 02000 0 13526    00055 TTR +0 02100 0 13524    13524 SXA +0 63400 2 13542    13525 TSX +0 07400 2 13542
                 RDFLXC.(YESNO,6)                                                   415  LM00217
 13526 TSX +0 07400 4 00031    13527 TXH +3 00000 0 10317    13530 TXH +3 00000 0 10326
                 W'R YESNO.E.$YES   $                                               416  LM00218
 13531 CLA +0 50000 0 10317    13532 SUB +0 40200 0 10503    13533 TNZ -0 10000 0 13537
                      F'N 1B                                                        417  LM00219
 13534 CLA +0 50000 0 10321    13535 TRA +0 02000 0 13546
                 O'E                                                                418  LM00220
 13536 TRA +0 02000 0 13541
                      F'N 0B                                                        419  LM00221
 13537 CLA +0 50000 0 10320    13540 TRA +0 02000 0 13546
                 E'L                                                                420  LM00222
                 END OF FUNCTION                                                    421  LM00223
 13541 TSX +0 07400 4 00015    13542 TXH +3 00000 0 00000    13543 SXD -0 63400 1 13542    13544 SXA +0 63400 4 13546
 13545 TRA +0 02000 2 00001    13546 AXT +0 77400 4 00000    13547 LXA +0 53400 2 13542    13550 LXD -0 53400 1 13542
 13551 TRA +0 02000 4 00001
                 BOOLEAN DELT.                                                      422  LM00228
                 INTERNAL FUNCTION (A,B)                                            423  LM00229
 13552 TRA +0 02000 0 13633
                 E'O DELT.                                                          424  LM00230
 13553 TRA +0 02000 0 13556    00044 TTR +0 02100 0 13554    13554 SXA +0 63400 2 13611    13555 TSX +0 07400 2 13611
                 FNM(0)=A                                                           425  LM00231
 13556 CLA +0 50000 0 00024    13557 STO +0 60100 0 10215
                 FNM(1)=B                                                           426  LM00232
 13560 CLA +0 50000 0 00024    13561 STO +0 60100 0 10214
                 DELETE.(A,B,0,NOTDEL)                                              427  LM00233
 13562 TSX +0 07400 4 00013    13563 TXH +3 00000 0 00024    13564 TXH +3 00000 0 00024    13565 TXH +3 00000 0 10320
 13566 TXH +3 00000 0 00763
                      PRMESS.(A,BL,B,$ DELETED.$)                                   428  LM00234
 13567 TSX +0 07400 4 00027    13570 TXH +3 00000 0 00024    13571 TXH +3 00000 0 01011    13572 TXH +3 00000 0 00024
 13573 TXH +3 00000 0 10434    13574 TXH +3 00000 0 10367
                      F'N 1B                                                        429  LM00235
 13575 CLA +0 50000 0 10321    13576 TRA +0 02000 0 13627
      NOTDEL     PRMESS.(A,BL,B,$ NOT DELETED.$)                                    430  LM00236
 13577 TSX +0 07400 4 00027    13600 TXH +3 00000 0 00024    13601 TXH +3 00000 0 01011    13602 TXH +3 00000 0 00024
 13603 TXH +3 00000 0 10444    13604 TXH +3 00000 0 10370    13605 TXH +3 00000 0 10400
                 F'N 0B                                                             431  LM00237
 13606 CLA +0 50000 0 10320    13607 TRA +0 02000 0 13627
                 E'N                                                                432  LM00238
 13610 TSX +0 07400 4 00015    13611 TXH +3 00000 0 00000    13612 SXD -0 63400 1 13611    13613 SXA +0 63400 4 13627
 13614 CLA +0 50000 4 00001    13615 STA +0 62100 0 13556    13616 STO +0 60100 0 13563    13617 STO +0 60100 0 13570
 13620 STO +0 60100 0 13600    13621 CLA +0 50000 4 00002    13622 STA +0 62100 0 13560    13623 STO +0 60100 0 13564
 13624 STO +0 60100 0 13572    13625 STO +0 60100 0 13602    13626 TRA +0 02000 2 00001    13627 AXT +0 77400 4 00000
 13630 LXA +0 53400 2 13611    13631 LXD -0 53400 1 13611    13632 TRA +0 02000 4 00001
                 INSERT FILE AFORM                                                  433  LM00300
                 INTERNAL FUNCTION (A,B,CT)                                         434  LM00017
 13633 TRA +0 02000 0 14001
                 E'O MKLNMK.                                                        435  LM00018
 13634 TRA +0 02000 0 13637    00051 TTR +0 02100 0 13635    13635 SXA +0 63400 2 13756    13636 TSX +0 07400 2 13756
                 B'N MKLNMK.                                                        436  LM00019
                 FSTATE.(A,B,CT...1,NTFND)                                          437  LM00020
 13637 TSX +0 07400 4 00016    13640 TXH +3 00000 0 00024    13641 TXH +3 00000 0 00024    13642 TIX +2 10321 0 00024
 13643 TXH +3 00000 0 00764
                 RCONV.(BZEL.(DEFBC.(CT)),NWLNMK(4),NWLNMK(3))                      438  LM00021
 13644 TSX +0 07400 4 00012    13645 TXH +3 00000 0 00024    13646 STO +0 60100 0 13777    13647 TSX +0 07400 4 00006
 13650 TXH +3 00000 0 13777    13651 STO +0 60100 0 13777    13652 TSX +0 07400 4 00053    13653 TXH +3 00000 0 13777
 13654 TXH +3 00000 0 10245    13655 TXH +3 00000 0 10246
                 V'S NWLNMK(13) = 177 177 011 011K, 014 012 012 012K                439  LM00025
 10233     +0 14012 0 12012    10234     +1 77177 0 11011
                 V'S NWLNMK(1) = 012 012 012 012K, 177 177 177 177K                 440  LM00026
 10247     +1 77177 1 77177    10250     +0 12012 0 12012
                 LCONV.(A,NWLNMK(12),NWLNMK(11))                                    441  LM00027
 13656 TSX +0 07400 4 00050    13657 TXH +3 00000 0 00024    13660 TXH +3 00000 0 10235    13661 TXH +3 00000 0 10236
                 LCONV.(B,NWLNMK(10),NWLNMK(9))                                     442  LM00028
 13662 TSX +0 07400 4 00050    13663 TXH +3 00000 0 00024    13664 TXH +3 00000 0 10237    13665 TXH +3 00000 0 10240
                 V'S GOTTM = 0B                                                     443  LM00032
 10220     +0 00000 0 00000
                 W'R .NOT. GOTTM                                                    444  LM00033
 13666 ZET +0 52000 0 10220    13667 TRA +0 02000 0 13751
                      GOTTM = 1B                                                    445  LM00034
 13670 CLA +0 50000 0 10321    13671 STO +0 60100 0 10220
                      GETTIM.(PDATE,PTIME)                                          446  LM00035
 13672 TSX +0 07400 4 00017    13673 TXH +3 00000 0 10252    13674 TXH +3 00000 0 10274
                      RCONV.(PTIME,NWLNMK(6),NWLNMK(5))                             447  LM00036
 13675 TSX +0 07400 4 00053    13676 TXH +3 00000 0 10274    13677 TXH +3 00000 0 10243    13700 TXH +3 00000 0 10244
                      TEMP1 = (PDATE.A.7777K8) .V. $00/00/$ .V.                     448  LM00037
                1          ((PDATE.RS.6).A.7777K2)                                  448  LM00038
 13701 CAL -0 50000 0 10326    13702 STA +0 62100 0 13704    13703 CAL -0 50000 0 10252    13704 LGR -0 76500 0 00000
 13705 ANA -0 32000 0 10347    13706 SLW +0 60200 0 13777    13707 CAL -0 50000 0 10252    13710 ANA -0 32000 0 10510
 13711 ORA -0 50100 0 10352    13712 ORA -0 50100 0 13777    13713 SLW +0 60200 0 10276
                      LCONV.(TEMP1,NWLNMK(8),NWLNMK(7))                             449  LM00039
 13714 TSX +0 07400 4 00050    13715 TXH +3 00000 0 10276    13716 TXH +3 00000 0 10241    13717 TXH +3 00000 0 10242
                      NWLNMK(7) = (NWLNMK(7).A.777777K6) .V.                        450  LM00040
                1          TSSASC.((PDATE.RS.6).A.77K).LS.9 .V.                     450  LM00041
                2          TSSASC.(PDATE.A.77K)                                     450  LM00042
 13720 CAL -0 50000 0 10252    13721 ANA -0 32000 0 10341    13722 SLW +0 60200 0 13777    13723 TSX +0 07400 4 00033
 13724 TXH +3 00000 0 13777    13725 STO +0 60100 0 13777    13726 CAL -0 50000 0 10326    13727 STA +0 62100 0 13731
 13730 CAL -0 50000 0 10252    13731 LGR -0 76500 0 00000    13732 ANA -0 32000 0 10341    13733 SLW +0 60200 0 14000
 13734 TSX +0 07400 4 00033    13735 TXH +3 00000 0 14000    13736 STO +0 60100 0 14000    13737 CAL -0 50000 0 10330
 13740 STA +0 62100 0 13742    13741 CAL -0 50000 0 14000    13742 ALS +0 76700 0 00000    13743 SLW +0 60200 0 14000
 13744 CAL -0 50000 0 10242    13745 ANA -0 32000 0 10511    13746 ORA -0 50100 0 14000    13747 ORA -0 50100 0 13777
 13750 SLW +0 60200 0 10242
                 E'L                                                                451  LM00043
                 F'N 1B                                                             452  LM00044
 13751 CLA +0 50000 0 10321    13752 TRA +0 02000 0 13773
      NTFND      F'N 0B                                                             453  LM00046
 13753 CLA +0 50000 0 10320    13754 TRA +0 02000 0 13773
                 E'N                                                                454  LM00047
 13755 TSX +0 07400 4 00015    13756 TXH +3 00000 0 00000    13757 SXD -0 63400 1 13756    13760 SXA +0 63400 4 13773
 13761 CLA +0 50000 4 00001    13762 STO +0 60100 0 13640    13763 STO +0 60100 0 13657    13764 CLA +0 50000 4 00002
 13765 STO +0 60100 0 13641    13766 STO +0 60100 0 13663    13767 CLA +0 50000 4 00003    13770 STA +0 62100 0 13642
 13771 STO +0 60100 0 13645    13772 TRA +0 02000 2 00001    13773 AXT +0 77400 4 00000    13774 LXA +0 53400 2 13756
 13775 LXD -0 53400 1 13756    13776 TRA +0 02000 4 00001
                 B'N BDLNMK.                                                        455  LM00052
                 INTERNAL FUNCTION BDLNMK.(LMK)=(LMK(14) .NE. NWLNMK(14)) .OR.      456  LM00053
                1     (LMK(13) .NE. NWLNMK(13)) .OR. (LMK(2) .NE. NWLNMK(2))        456  LM00054
                2     .OR. (LMK(1) .NE. NWLNMK(1))                                  456  LM00055
 14001 TRA +0 02000 0 14047    00035 TTR +0 02100 0 14002    14002 SXA +0 63400 2 14026    14003 TSX +0 07400 2 14026
 14004 CLA +0 50000 0 00023    14005 SUB +0 40200 0 10250    14006 TNZ -0 10000 0 14022    14007 CLA +0 50000 0 00022
 14010 SUB +0 40200 0 10247    14011 TNZ -0 10000 0 14022    14012 CLA +0 50000 0 00007    14013 SUB +0 40200 0 10234
 14014 TNZ -0 10000 0 14022    14015 CLA +0 50000 0 00006    14016 SUB +0 40200 0 10233    14017 TNZ -0 10000 0 14022
 14020 PXD -0 75400 0 00000    14021 TRA +0 02000 0 14023    14022 CLA +0 50000 0 10321    14023 TRA +0 02000 0 14043
 14024 PZE +0 00000 0 00001    14025 PZE +0 00000 0 00013    14026 TXH +3 00000 0 00000    14027 SXD -0 63400 1 14026
 14030 SXA +0 63400 4 14043    14031 CLA +0 50000 4 00001    14032 SUB +0 40200 0 14024    14033 STA +0 62100 0 14004
 14034 SUB +0 40200 0 14024    14035 STA +0 62100 0 14007    14036 SUB +0 40200 0 14025    14037 STA +0 62100 0 14012
 14040 SUB +0 40200 0 14024    14041 STA +0 62100 0 14015    14042 TRA +0 02000 2 00001    14043 AXT +0 77400 4 00000
 14044 LXA +0 53400 2 14026    14045 LXD -0 53400 1 14026    14046 TRA +0 02000 4 00001
                 INTERNAL FUNCTION (LMK)                                            457  LM00061
 14047 TRA +0 02000 0 14253
                 E'O DATTM.                                                         458  LM00062
 14050 TRA +0 02000 0 14053    00043 TTR +0 02100 0 14051    14051 SXA +0 63400 2 14224    14052 TSX +0 07400 2 14224
                 TEMP1 = CONVL.(LMK(8),LMK(7))                                      459  LM00063
 14053 TSX +0 07400 4 00040    14054 TXH +3 00000 0 00014    14055 TXH +3 00000 0 00015    14056 STO +0 60100 0 10276
                 TEMP1 = (TEMP1.A.7777K8) .V. ((TEMP1.LS.6).A.7777K4)               460  LM00064
 14057 CAL -0 50000 0 10326    14060 STA +0 62100 0 14062    14061 CAL -0 50000 0 10276    14062 ALS +0 76700 0 00000
 14063 ANA -0 32000 0 10353    14064 SLW +0 60200 0 14247    14065 CAL -0 50000 0 10276    14066 ANA -0 32000 0 10510
 14067 ORA -0 50100 0 14247    14070 SLW +0 60200 0 10276
                 TEMP1 = TEMP1 .V. (CONVR.(LMK(8),LMK(7)).A.7777K)                  461  LM00065
 14071 TSX +0 07400 4 00041    14072 TXH +3 00000 0 00014    14073 TXH +3 00000 0 00015    14074 STO +0 60100 0 14247
 14075 CAL -0 50000 0 14247    14076 ANA -0 32000 0 10345    14077 ORA -0 50100 0 10276    14100 SLW +0 60200 0 10276
                 TEMP2 = CONVR.(LMK(6),LMK(5))                                      462  LM00066
 14101 TSX +0 07400 4 00041    14102 TXH +3 00000 0 00016    14103 TXH +3 00000 0 00017    14104 STO +0 60100 0 10277
                 F'N (BCDEC.(TEMP1.A.7777K).LS. 27) .V.                             463  LM00070
                1     (BCDEC.((TEMP1.RS.12).A.7777K).LS.18) .V.                     463  LM00071
                2     (BCDEC.(TEMP1.RS.24).LS.23) .V.                               463  LM00072
                3     (BCDEC.(TEMP2.RS.24)*3600 +                                   463  LM00073
                4     BCDEC.((TEMP2.RS.12).A.7777K)*60 +                            463  LM00074
                5     BCDEC.(TEMP2.A.77K)*6)                                        463  LM00075
 14105 CAL -0 50000 0 10277    14106 ANA -0 32000 0 10341    14107 SLW +0 60200 0 14247    14110 TSX +0 07400 4 00001
 14111 TXH +3 00000 0 14247    14112 XCA +0 13100 0 00000    14113 MPY +0 20000 0 10326    14114 STQ -0 60000 0 14247
 14115 CAL -0 50000 0 10331    14116 STA +0 62100 0 14120    14117 CAL -0 50000 0 10277    14120 LGR -0 76500 0 00000
 14121 ANA -0 32000 0 10345    14122 SLW +0 60200 0 14250    14123 TSX +0 07400 4 00001    14124 TXH +3 00000 0 14250
 14125 XCA +0 13100 0 00000    14126 MPY +0 20000 0 10340    14127 STQ -0 60000 0 14250    14130 CAL -0 50000 0 10334
 14131 STA +0 62100 0 14133    14132 CAL -0 50000 0 10277    14133 LGR -0 76500 0 00000    14134 SLW +0 60200 0 14251
 14135 TSX +0 07400 4 00001    14136 TXH +3 00000 0 14251    14137 XCA +0 13100 0 00000    14140 MPY +0 20000 0 10344
 14141 XCA +0 13100 0 00000    14142 ADD +0 40000 0 14250    14143 ADD +0 40000 0 14247    14144 STO +0 60100 0 14251
 14145 CAL -0 50000 0 10334    14146 STA +0 62100 0 14150    14147 CAL -0 50000 0 10276    14150 LGR -0 76500 0 00000
 14151 SLW +0 60200 0 14250    14152 TSX +0 07400 4 00001    14153 TXH +3 00000 0 14250    14154 STO +0 60100 0 14250
 14155 CAL -0 50000 0 10333    14156 STA +0 62100 0 14160    14157 CAL -0 50000 0 14250    14160 ALS +0 76700 0 00000
 14161 SLW +0 60200 0 14250    14162 CAL -0 50000 0 10331    14163 STA +0 62100 0 14165    14164 CAL -0 50000 0 10276
 14165 LGR -0 76500 0 00000    14166 ANA -0 32000 0 10345    14167 SLW +0 60200 0 14247    14170 TSX +0 07400 4 00001
 14171 TXH +3 00000 0 14247    14172 STO +0 60100 0 14247    14173 CAL -0 50000 0 10332    14174 STA +0 62100 0 14176
 14175 CAL -0 50000 0 14247    14176 ALS +0 76700 0 00000    14177 SLW +0 60200 0 14247    14200 CAL -0 50000 0 10276
 14201 ANA -0 32000 0 10345    14202 SLW +0 60200 0 14252    14203 TSX +0 07400 4 00001    14204 TXH +3 00000 0 14252
 14205 STO +0 60100 0 14252    14206 CAL -0 50000 0 10335    14207 STA +0 62100 0 14211    14210 CAL -0 50000 0 14252
 14211 ALS +0 76700 0 00000    14212 ORA -0 50100 0 14247    14213 ORA -0 50100 0 14250    14214 ORA -0 50100 0 14251
 14215 SLW +0 60200 0 14252    14216 CLA +0 50000 0 14252    14217 TRA +0 02000 0 14243
                 E'N                                                                464  LM00076
 14220 TSX +0 07400 4 00015    14221 PZE +0 00000 0 00001    14222 PZE +0 00000 0 00013    14223 PZE +0 00000 0 00005
 14224 TXH +3 00000 0 00000    14225 SXD -0 63400 1 14224    14226 SXA +0 63400 4 14243    14227 CLA +0 50000 4 00001
 14230 SUB +0 40200 0 14223    14231 STO +0 60100 0 14103    14232 SUB +0 40200 0 14221    14233 STO +0 60100 0 14102
 14234 SUB +0 40200 0 14221    14235 STO +0 60100 0 14055    14236 STO +0 60100 0 14073    14237 SUB +0 40200 0 14221
 14240 STO +0 60100 0 14054    14241 STO +0 60100 0 14072    14242 TRA +0 02000 2 00001    14243 AXT +0 77400 4 00000
 14244 LXA +0 53400 2 14224    14245 LXD -0 53400 1 14224    14246 TRA +0 02000 4 00001
                 INTERNAL FUNCTION CNT.(LMK) = BCDEC.(CONVR.(LMK(4),LMK(3)))        465  LM00080
 14253 TRA +0 02000 0 14307    00037 TTR +0 02100 0 14254    14254 SXA +0 63400 2 14271    14255 TSX +0 07400 2 14271
 14256 TSX +0 07400 4 00041    14257 TXH +3 00000 0 00020    14260 TXH +3 00000 0 00021    14261 STO +0 60100 0 14306
 14262 TSX +0 07400 4 00001    14263 TXH +3 00000 0 14306    14264 TRA +0 02000 0 14302    14265 PZE +0 00000 0 00001
 14266 PZE +0 00000 0 00013    14267 PZE +0 00000 0 00005    14270 PZE +0 00000 0 00003    14271 TXH +3 00000 0 00000
 14272 SXD -0 63400 1 14271    14273 SXA +0 63400 4 14302    14274 CLA +0 50000 4 00001    14275 SUB +0 40200 0 14270
 14276 STO +0 60100 0 14260    14277 SUB +0 40200 0 14265    14300 STO +0 60100 0 14257    14301 TRA +0 02000 2 00001
 14302 AXT +0 77400 4 00000    14303 LXA +0 53400 2 14271    14304 LXD -0 53400 1 14271    14305 TRA +0 02000 4 00001
                 INTERNAL FUNCTION FLN1.(LMK) = CONVL.(LMK(12),LMK(11))             466  LM00081
 14307 TRA +0 02000 0 14337    00045 TTR +0 02100 0 14310    14310 SXA +0 63400 2 14322    14311 TSX +0 07400 2 14322
 14312 TSX +0 07400 4 00040    14313 TXH +3 00000 0 00010    14314 TXH +3 00000 0 00011    14315 TRA +0 02000 0 14333
 14316 PZE +0 00000 0 00001    14317 PZE +0 00000 0 00013    14320 PZE +0 00000 0 00005    14321 PZE +0 00000 0 00003
 14322 TXH +3 00000 0 00000    14323 SXD -0 63400 1 14322    14324 SXA +0 63400 4 14333    14325 CLA +0 50000 4 00001
 14326 SUB +0 40200 0 14317    14327 STO +0 60100 0 14314    14330 SUB +0 40200 0 14316    14331 STO +0 60100 0 14313
 14332 TRA +0 02000 2 00001    14333 AXT +0 77400 4 00000    14334 LXA +0 53400 2 14322    14335 LXD -0 53400 1 14322
 14336 TRA +0 02000 4 00001
                 INTERNAL FUNCTION FLN2.(LMK) = CONVL.(LMK(10),LMK(9))              467  LM00082
 14337 TRA +0 02000 0 14370    00046 TTR +0 02100 0 14340    14340 SXA +0 63400 2 14353    14341 TSX +0 07400 2 14353
 14342 TSX +0 07400 4 00040    14343 TXH +3 00000 0 00012    14344 TXH +3 00000 0 00013    14345 TRA +0 02000 0 14364
 14346 PZE +0 00000 0 00001    14347 PZE +0 00000 0 00013    14350 PZE +0 00000 0 00005    14351 PZE +0 00000 0 00003
 14352 PZE +0 00000 0 00011    14353 TXH +3 00000 0 00000    14354 SXD -0 63400 1 14353    14355 SXA +0 63400 4 14364
 14356 CLA +0 50000 4 00001    14357 SUB +0 40200 0 14352    14360 STO +0 60100 0 14344    14361 SUB +0 40200 0 14346
 14362 STO +0 60100 0 14343    14363 TRA +0 02000 2 00001    14364 AXT +0 77400 4 00000    14365 LXA +0 53400 2 14353
 14366 LXD -0 53400 1 14353    14367 TRA +0 02000 4 00001
                 INTERNAL FUNCTION                                                  468  LM00086
 14370 TRA +0 02000 0 14471
                 E'O PTLNMK.                                                        469  LM00087
 14371 TRA +0 02000 0 14374    00052 TTR +0 02100 0 14372    14372 SXA +0 63400 2 14453    14373 TSX +0 07400 2 14453
                 PRMESS. (CONVL.(PRLNMK(12),PRLNMK(11)), BL,                        470  LM00088
                1     CONVL.(PRLNMK(10),PRLNMK(9)), BL,                             470  LM00089
                2     CONVL.(PRLNMK(8),PRLNMK(7)),                                  470  LM00090
                3     CONVR.(PRLNMK(8),PRLNMK(7)) .LS. 24 .V. 60575757K,            470  LM00091
                4     CONVR.(PRLNMK(6),PRLNMK(5)), BL,                              470  LM00092
                5     CONVR.(PRLNMK(4),PRLNMK(3)) )                                 470  LM00093
 14374 TSX +0 07400 4 00041    14375 TXH +3 00000 0 10266    14376 TXH +3 00000 0 10267    14377 STO +0 60100 0 14463
 14400 TSX +0 07400 4 00041    14401 TXH +3 00000 0 10264    14402 TXH +3 00000 0 10265    14403 STO +0 60100 0 14464
 14404 TSX +0 07400 4 00041    14405 TXH +3 00000 0 10262    14406 TXH +3 00000 0 10263    14407 STO +0 60100 0 14465
 14410 CAL -0 50000 0 10334    14411 STA +0 62100 0 14413    14412 CAL -0 50000 0 14465    14413 ALS +0 76700 0 00000
 14414 ORA -0 50100 0 10351    14415 SLW +0 60200 0 14465    14416 TSX +0 07400 4 00040    14417 TXH +3 00000 0 10262
 14420 TXH +3 00000 0 10263    14421 STO +0 60100 0 14466    14422 TSX +0 07400 4 00040    14423 TXH +3 00000 0 10260
 14424 TXH +3 00000 0 10261    14425 STO +0 60100 0 14467    14426 TSX +0 07400 4 00040    14427 TXH +3 00000 0 10256
 14430 TXH +3 00000 0 10257    14431 STO +0 60100 0 14470    14432 TSX +0 07400 4 00027    14433 TXH +3 00000 0 14470
 14434 TXH +3 00000 0 01011    14435 TXH +3 00000 0 14467    14436 TXH +3 00000 0 01011    14437 TXH +3 00000 0 14466
 14440 TXH +3 00000 0 14465    14441 TXH +3 00000 0 14464    14442 TXH +3 00000 0 01011    14443 TXH +3 00000 0 14463
                 F'N                                                                471  LM00094
 14444 TRA +0 02000 0 14457
                 E'N                                                                472  LM00095
 14445 TSX +0 07400 4 00015    14446 PZE +0 00000 0 00001    14447 PZE +0 00000 0 00013    14450 PZE +0 00000 0 00005
 14451 PZE +0 00000 0 00003    14452 PZE +0 00000 0 00011    14453 TXH +3 00000 0 00000    14454 SXD -0 63400 1 14453
 14455 SXA +0 63400 4 14457    14456 TRA +0 02000 2 00001    14457 AXT +0 77400 4 00000    14460 LXA +0 53400 2 14453
 14461 LXD -0 53400 1 14453    14462 TRA +0 02000 4 00001
                 D'N PRLNMK(14),NWLNMK(14)                                          473  LM00097
                 V'S LMKZ = 14                                                      474  LM00098
 10225     +0 00000 0 00016
                 D'N FSBUF (432)                                                    475  LM00099
                 INTERNAL FUNCTION (ARG1,ARG2,ARG3)                                 476  LM00108
 14471 TRA +0 02000 0 14646
                 E'O RCONV.                                                         477  LM00109
 14472 TRA +0 02000 0 14475    00053 TTR +0 02100 0 14473    14473 SXA +0 63400 2 14617    14474 TSX +0 07400 2 14617
                 ARG2 = 040 040K6 .V. (TSSASC.(ARG1.RS.30).LS.9) .V.                478  LM00110
                1     TSSASC.((ARG1.RS.24).A.77K)                                   478  LM00111
 14475 CAL -0 50000 0 10334    14476 STA +0 62100 0 14500    14477 CAL -0 50000 0 00024    14500 LGR -0 76500 0 00000
 14501 ANA -0 32000 0 10341    14502 SLW +0 60200 0 14642    14503 TSX +0 07400 4 00033    14504 TXH +3 00000 0 14642
 14505 STO +0 60100 0 14642    14506 CAL -0 50000 0 10336    14507 STA +0 62100 0 14511    14510 CAL -0 50000 0 00024
 14511 LGR -0 76500 0 00000    14512 SLW +0 60200 0 14643    14513 TSX +0 07400 4 00033    14514 TXH +3 00000 0 14643
 14515 STO +0 60100 0 14643    14516 CAL -0 50000 0 10330    14517 STA +0 62100 0 14521    14520 CAL -0 50000 0 14643
 14521 ALS +0 76700 0 00000    14522 ORA -0 50100 0 10354    14523 ORA -0 50100 0 14642    14524 SLW +0 60200 0 00024
                 ARG3 = (TSSASC.((ARG1.RS.18).A.77K).LS.27)                         479  LM00112
                1     .V. (TSSASC.((ARG1.RS.12).A.77K).LS.18)                       479  LM00113
                2     .V. (TSSASC.((ARG1.RS.6).A.77K) .LS. 9)                       479  LM00114
                3     .V. TSSASC.(ARG1.A.77K)                                       479  LM00115
 14525 CAL -0 50000 0 00024    14526 ANA -0 32000 0 10341    14527 SLW +0 60200 0 14643    14530 TSX +0 07400 4 00033
 14531 TXH +3 00000 0 14643    14532 STO +0 60100 0 14643    14533 CAL -0 50000 0 10326    14534 STA +0 62100 0 14536
 14535 CAL -0 50000 0 00024    14536 LGR -0 76500 0 00000    14537 ANA -0 32000 0 10341    14540 SLW +0 60200 0 14642
 14541 TSX +0 07400 4 00033    14542 TXH +3 00000 0 14642    14543 STO +0 60100 0 14642    14544 CAL -0 50000 0 10330
 14545 STA +0 62100 0 14547    14546 CAL -0 50000 0 14642    14547 ALS +0 76700 0 00000    14550 SLW +0 60200 0 14642
 14551 CAL -0 50000 0 10331    14552 STA +0 62100 0 14554    14553 CAL -0 50000 0 00024    14554 LGR -0 76500 0 00000
 14555 ANA -0 32000 0 10341    14556 SLW +0 60200 0 14644    14557 TSX +0 07400 4 00033    14560 TXH +3 00000 0 14644
 14561 STO +0 60100 0 14644    14562 CAL -0 50000 0 10332    14563 STA +0 62100 0 14565    14564 CAL -0 50000 0 14644
 14565 ALS +0 76700 0 00000    14566 SLW +0 60200 0 14644    14567 CAL -0 50000 0 10332    14570 STA +0 62100 0 14572
 14571 CAL -0 50000 0 00024    14572 LGR -0 76500 0 00000    14573 ANA -0 32000 0 10341    14574 SLW +0 60200 0 14645
 14575 TSX +0 07400 4 00033    14576 TXH +3 00000 0 14645    14577 STO +0 60100 0 14645    14600 CAL -0 50000 0 10335
 14601 STA +0 62100 0 14603    14602 CAL -0 50000 0 14645    14603 ALS +0 76700 0 00000    14604 ORA -0 50100 0 14644
 14605 ORA -0 50100 0 14642    14606 ORA -0 50100 0 14643    14607 SLW +0 60200 0 00024
                 F'N                                                                480  LM00116
 14610 TRA +0 02000 0 14636
                 E'N                                                                481  LM00117
 14611 TSX +0 07400 4 00015    14612 PZE +0 00000 0 00001    14613 PZE +0 00000 0 00013    14614 PZE +0 00000 0 00005
 14615 PZE +0 00000 0 00003    14616 PZE +0 00000 0 00011    14617 TXH +3 00000 0 00000    14620 SXD -0 63400 1 14617
 14621 SXA +0 63400 4 14636    14622 CLA +0 50000 4 00001    14623 STA +0 62100 0 14477    14624 STA +0 62100 0 14510
 14625 STA +0 62100 0 14525    14626 STA +0 62100 0 14535    14627 STA +0 62100 0 14553    14630 STA +0 62100 0 14571
 14631 CLA +0 50000 4 00002    14632 STA +0 62100 0 14524    14633 CLA +0 50000 4 00003    14634 STA +0 62100 0 14607
 14635 TRA +0 02000 2 00001    14636 AXT +0 77400 4 00000    14637 LXA +0 53400 2 14617    14640 LXD -0 53400 1 14617
 14641 TRA +0 02000 4 00001
                 INTERNAL FUNCTION (ARG1,ARG2,ARG3)                                 482  LM00122
 14646 TRA +0 02000 0 15030
                 E'O LCONV.                                                         483  LM00123
 14647 TRA +0 02000 0 14652    00050 TTR +0 02100 0 14650    14650 SXA +0 63400 2 15001    14651 TSX +0 07400 2 15001
                 ARG2 = (TSSASC.((ARG1.RS.30)).LS.27)                               484  LM00124
                1     .V. (TSSASC.((ARG1.RS.24).A.77K).LS.18)                       484  LM00125
                2     .V. (TSSASC.((ARG1.RS.18).A.77K).LS.9)                        484  LM00126
                3     .V. TSSASC.((ARG1.RS.12).A.77K)                               484  LM00127
 14652 CAL -0 50000 0 10331    14653 STA +0 62100 0 14655    14654 CAL -0 50000 0 00024    14655 LGR -0 76500 0 00000
 14656 ANA -0 32000 0 10341    14657 SLW +0 60200 0 15024    14660 TSX +0 07400 4 00033    14661 TXH +3 00000 0 15024
 14662 STO +0 60100 0 15024    14663 CAL -0 50000 0 10332    14664 STA +0 62100 0 14666    14665 CAL -0 50000 0 00024
 14666 LGR -0 76500 0 00000    14667 ANA -0 32000 0 10341    14670 SLW +0 60200 0 15025    14671 TSX +0 07400 4 00033
 14672 TXH +3 00000 0 15025    14673 STO +0 60100 0 15025    14674 CAL -0 50000 0 10330    14675 STA +0 62100 0 14677
 14676 CAL -0 50000 0 15025    14677 ALS +0 76700 0 00000    14700 SLW +0 60200 0 15025    14701 CAL -0 50000 0 10334
 14702 STA +0 62100 0 14704    14703 CAL -0 50000 0 00024    14704 LGR -0 76500 0 00000    14705 ANA -0 32000 0 10341
 14706 SLW +0 60200 0 15026    14707 TSX +0 07400 4 00033    14710 TXH +3 00000 0 15026    14711 STO +0 60100 0 15026
 14712 CAL -0 50000 0 10332    14713 STA +0 62100 0 14715    14714 CAL -0 50000 0 15026    14715 ALS +0 76700 0 00000
 14716 SLW +0 60200 0 15026    14717 CAL -0 50000 0 10336    14720 STA +0 62100 0 14722    14721 CAL -0 50000 0 00024
 14722 LGR -0 76500 0 00000    14723 SLW +0 60200 0 15027    14724 TSX +0 07400 4 00033    14725 TXH +3 00000 0 15027
 14726 STO +0 60100 0 15027    14727 CAL -0 50000 0 10335    14730 STA +0 62100 0 14732    14731 CAL -0 50000 0 15027
 14732 ALS +0 76700 0 00000    14733 ORA -0 50100 0 15026    14734 ORA -0 50100 0 15025    14735 ORA -0 50100 0 15024
 14736 SLW +0 60200 0 00024
                 ARG3 = 040 040K .V. (TSSASC.((ARG1.RS.6).A.77K).LS.27) .V.         485  LM00128
                1     (TSSASC.(ARG1.A.77K).LS.18)                                   485  LM00129
 14737 CAL -0 50000 0 00024    14740 ANA -0 32000 0 10341    14741 SLW +0 60200 0 15027    14742 TSX +0 07400 4 00033
 14743 TXH +3 00000 0 15027    14744 STO +0 60100 0 15027    14745 CAL -0 50000 0 10332    14746 STA +0 62100 0 14750
 14747 CAL -0 50000 0 15027    14750 ALS +0 76700 0 00000    14751 SLW +0 60200 0 15027    14752 CAL -0 50000 0 10326
 14753 STA +0 62100 0 14755    14754 CAL -0 50000 0 00024    14755 LGR -0 76500 0 00000    14756 ANA -0 32000 0 10341
 14757 SLW +0 60200 0 15026    14760 TSX +0 07400 4 00033    14761 TXH +3 00000 0 15026    14762 STO +0 60100 0 15026
 14763 CAL -0 50000 0 10335    14764 STA +0 62100 0 14766    14765 CAL -0 50000 0 15026    14766 ALS +0 76700 0 00000
 14767 ORA -0 50100 0 10346    14770 ORA -0 50100 0 15027    14771 SLW +0 60200 0 00024
                 F'N                                                                486  LM00130
 14772 TRA +0 02000 0 15020
                 E'N                                                                487  LM00131
 14773 TSX +0 07400 4 00015    14774 PZE +0 00000 0 00001    14775 PZE +0 00000 0 00013    14776 PZE +0 00000 0 00005
 14777 PZE +0 00000 0 00003    15000 PZE +0 00000 0 00011    15001 TXH +3 00000 0 00000    15002 SXD -0 63400 1 15001
 15003 SXA +0 63400 4 15020    15004 CLA +0 50000 4 00001    15005 STA +0 62100 0 14654    15006 STA +0 62100 0 14665
 15007 STA +0 62100 0 14703    15010 STA +0 62100 0 14721    15011 STA +0 62100 0 14737    15012 STA +0 62100 0 14754
 15013 CLA +0 50000 4 00002    15014 STA +0 62100 0 14736    15015 CLA +0 50000 4 00003    15016 STA +0 62100 0 14771
 15017 TRA +0 02000 2 00001    15020 AXT +0 77400 4 00000    15021 LXA +0 53400 2 15001    15022 LXD -0 53400 1 15001
 15023 TRA +0 02000 4 00001
                 INTERNAL FUNCTION (ARG2,ARG3)                                      488  LM00136
 15030 TRA +0 02000 0 15176
                 E'O CONVR.                                                         489  LM00137
 15031 TRA +0 02000 0 15034    00041 TTR +0 02100 0 15032    15032 SXA +0 63400 2 15150    15033 TSX +0 07400 2 15150
                 F'N (ASCTSS.(ARG2.RS.9).LS.30) .V. (ASCTSS.(ARG2).LS.24) .V.       490  LM00138
                1     (ASCTSS.(ARG3.RS.27).LS.18) .V.                               490  LM00139
                2     (ASCTSS.(ARG3.RS.18).LS.12) .V.                               490  LM00140
                3     (ASCTSS.(ARG3.RS.9).LS.6) .V. ASCTSS.(ARG3)                   490  LM00141
 15034 TSX +0 07400 4 00000    15035 TXH +3 00000 0 00024    15036 STO +0 60100 0 15170    15037 CAL -0 50000 0 10330
 15040 STA +0 62100 0 15042    15041 CAL -0 50000 0 00024    15042 LGR -0 76500 0 00000    15043 SLW +0 60200 0 15171
 15044 TSX +0 07400 4 00000    15045 TXH +3 00000 0 15171    15046 STO +0 60100 0 15171    15047 CAL -0 50000 0 10326
 15050 STA +0 62100 0 15052    15051 CAL -0 50000 0 15171    15052 ALS +0 76700 0 00000    15053 SLW +0 60200 0 15171
 15054 CAL -0 50000 0 10332    15055 STA +0 62100 0 15057    15056 CAL -0 50000 0 00024    15057 LGR -0 76500 0 00000
 15060 SLW +0 60200 0 15172    15061 TSX +0 07400 4 00000    15062 TXH +3 00000 0 15172    15063 STO +0 60100 0 15172
 15064 CAL -0 50000 0 10331    15065 STA +0 62100 0 15067    15066 CAL -0 50000 0 15172    15067 ALS +0 76700 0 00000
 15070 SLW +0 60200 0 15172    15071 CAL -0 50000 0 10335    15072 STA +0 62100 0 15074    15073 CAL -0 50000 0 00024
 15074 LGR -0 76500 0 00000    15075 SLW +0 60200 0 15173    15076 TSX +0 07400 4 00000    15077 TXH +3 00000 0 15173
 15100 STO +0 60100 0 15173    15101 CAL -0 50000 0 10332    15102 STA +0 62100 0 15104    15103 CAL -0 50000 0 15173
 15104 ALS +0 76700 0 00000    15105 SLW +0 60200 0 15173    15106 TSX +0 07400 4 00000    15107 TXH +3 00000 0 00024
 15110 STO +0 60100 0 15174    15111 CAL -0 50000 0 10334    15112 STA +0 62100 0 15114    15113 CAL -0 50000 0 15174
 15114 ALS +0 76700 0 00000    15115 SLW +0 60200 0 15174    15116 CAL -0 50000 0 10330    15117 STA +0 62100 0 15121
 15120 CAL -0 50000 0 00024    15121 LGR -0 76500 0 00000    15122 SLW +0 60200 0 15175    15123 TSX +0 07400 4 00000
 15124 TXH +3 00000 0 15175    15125 STO +0 60100 0 15175    15126 CAL -0 50000 0 10336    15127 STA +0 62100 0 15131
 15130 CAL -0 50000 0 15175    15131 ALS +0 76700 0 00000    15132 ORA -0 50100 0 15174    15133 ORA -0 50100 0 15173
 15134 ORA -0 50100 0 15172    15135 ORA -0 50100 0 15171    15136 ORA -0 50100 0 15170    15137 SLW +0 60200 0 15175
 15140 CLA +0 50000 0 15175    15141 TRA +0 02000 0 15164
                 E'N                                                                491  LM00142
 15142 TSX +0 07400 4 00015    15143 PZE +0 00000 0 00001    15144 PZE +0 00000 0 00013    15145 PZE +0 00000 0 00005
 15146 PZE +0 00000 0 00003    15147 PZE +0 00000 0 00011    15150 TXH +3 00000 0 00000    15151 SXD -0 63400 1 15150
 15152 SXA +0 63400 4 15164    15153 CLA +0 50000 4 00001    15154 STO +0 60100 0 15107    15155 STA +0 62100 0 15120
 15156 CLA +0 50000 4 00002    15157 STO +0 60100 0 15035    15160 STA +0 62100 0 15041    15161 STA +0 62100 0 15056
 15162 STA +0 62100 0 15073    15163 TRA +0 02000 2 00001    15164 AXT +0 77400 4 00000    15165 LXA +0 53400 2 15150
 15166 LXD -0 53400 1 15150    15167 TRA +0 02000 4 00001
                 INTERNAL FUNCTION (ARG2,ARG3)                                      492  LM00147
 15176 TRA +0 02000 0 15351
                 E'O CONVL.                                                         493  LM00148
 15177 TRA +0 02000 0 15202    00040 TTR +0 02100 0 15200    15200 SXA +0 63400 2 15323    15201 TSX +0 07400 2 15323
                 F'N (ASCTSS.(ARG2.RS.27).LS.30).V.(ASCTSS.(ARG2.RS.18).LS.24)      494  LM00149
                1     .V. (ASCTSS.(ARG2.RS.9).LS.18)                                494  LM00150
                2     .V. (ASCTSS.(ARG2) .LS. 12)                                   494  LM00151
                3     .V. (ASCTSS.(ARG3.RS.27).LS.6)                                494  LM00152
                4     .V. (ASCTSS.(ARG3.RS.18))                                     494  LM00153
 15202 CAL -0 50000 0 10332    15203 STA +0 62100 0 15205    15204 CAL -0 50000 0 00024    15205 LGR -0 76500 0 00000
 15206 SLW +0 60200 0 15343    15207 TSX +0 07400 4 00000    15210 TXH +3 00000 0 15343    15211 STO +0 60100 0 15343
 15212 CAL -0 50000 0 10335    15213 STA +0 62100 0 15215    15214 CAL -0 50000 0 00024    15215 LGR -0 76500 0 00000
 15216 SLW +0 60200 0 15344    15217 TSX +0 07400 4 00000    15220 TXH +3 00000 0 15344    15221 STO +0 60100 0 15344
 15222 CAL -0 50000 0 10326    15223 STA +0 62100 0 15225    15224 CAL -0 50000 0 15344    15225 ALS +0 76700 0 00000
 15226 SLW +0 60200 0 15344    15227 TSX +0 07400 4 00000    15230 TXH +3 00000 0 00024    15231 STO +0 60100 0 15345
 15232 CAL -0 50000 0 10331    15233 STA +0 62100 0 15235    15234 CAL -0 50000 0 15345    15235 ALS +0 76700 0 00000
 15236 SLW +0 60200 0 15345    15237 CAL -0 50000 0 10330    15240 STA +0 62100 0 15242    15241 CAL -0 50000 0 00024
 15242 LGR -0 76500 0 00000    15243 SLW +0 60200 0 15346    15244 TSX +0 07400 4 00000    15245 TXH +3 00000 0 15346
 15246 STO +0 60100 0 15346    15247 CAL -0 50000 0 10332    15250 STA +0 62100 0 15252    15251 CAL -0 50000 0 15346
 15252 ALS +0 76700 0 00000    15253 SLW +0 60200 0 15346    15254 CAL -0 50000 0 10332    15255 STA +0 62100 0 15257
 15256 CAL -0 50000 0 00024    15257 LGR -0 76500 0 00000    15260 SLW +0 60200 0 15347    15261 TSX +0 07400 4 00000
 15262 TXH +3 00000 0 15347    15263 STO +0 60100 0 15347    15264 CAL -0 50000 0 10334    15265 STA +0 62100 0 15267
 15266 CAL -0 50000 0 15347    15267 ALS +0 76700 0 00000    15270 SLW +0 60200 0 15347    15271 CAL -0 50000 0 10335
 15272 STA +0 62100 0 15274    15273 CAL -0 50000 0 00024    15274 LGR -0 76500 0 00000    15275 SLW +0 60200 0 15350
 15276 TSX +0 07400 4 00000    15277 TXH +3 00000 0 15350    15300 STO +0 60100 0 15350    15301 CAL -0 50000 0 10336
 15302 STA +0 62100 0 15304    15303 CAL -0 50000 0 15350    15304 ALS +0 76700 0 00000    15305 ORA -0 50100 0 15347
 15306 ORA -0 50100 0 15346    15307 ORA -0 50100 0 15345    15310 ORA -0 50100 0 15344    15311 ORA -0 50100 0 15343
 15312 SLW +0 60200 0 15350    15313 CLA +0 50000 0 15350    15314 TRA +0 02000 0 15337
                 E'N                                                                495  LM00154
 15315 TSX +0 07400 4 00015    15316 PZE +0 00000 0 00001    15317 PZE +0 00000 0 00013    15320 PZE +0 00000 0 00005
 15321 PZE +0 00000 0 00003    15322 PZE +0 00000 0 00011    15323 TXH +3 00000 0 00000    15324 SXD -0 63400 1 15323
 15325 SXA +0 63400 4 15337    15326 CLA +0 50000 4 00001    15327 STO +0 60100 0 15230    15330 STA +0 62100 0 15241
 15331 STA +0 62100 0 15256    15332 STA +0 62100 0 15273    15333 CLA +0 50000 4 00002    15334 STA +0 62100 0 15204
 15335 STA +0 62100 0 15214    15336 TRA +0 02000 2 00001    15337 AXT +0 77400 4 00000    15340 LXA +0 53400 2 15323
 15341 LXD -0 53400 1 15323    15342 TRA +0 02000 4 00001
                 END OF PROGRAM                                                     496  LM00301
 15351 TSX +0 07400 4 00015
1      ARCHV         MAP

1PAGE 1            NUMERIC STORAGE MAP OF  ARCHV

       NAME ORIGIN ENTRY       NAME ORIGIN ENTRY       NAME ORIGIN ENTRY       NAME ORIGIN ENTRY

      (MAIN) 00030 10542      TSSASC 15406 15410      ASCTSS 15406 15412      PRMESA 15627 15635
      PRMESS 15627 15633      .SETUP 15751 15773      ENDJOB 15751 15757      EXITM  15751 15757
      EXIT   15751 15754      DELETE 16006 16007      OFFON  16162 16421      OFF    16162 16423
      ON     16162 16406      SLEEP  16162 16342      DEAD   16162 16337      DORMNT 16162 16334
      NEXCOM 16162 16326      CHNCOM 16162 16323      WRFLXA 16162 16173      WRFLX  16162 16167
      SSPRNT 16162 16456      FSTATE 17446 17446      UPDATE 17450 17455      CLOSE  17450 17454
      BUFFER 17450 17453      FWAIT  17450 17452      FCHECK 17450 17451      OPEN   17450 17450
      WHOAMI 17464 17464      WRWAIT 17466 17467      WRFILE 17466 17466      .PCOMT 17472 17476
      BFCLOS 17526 20150      BFCODE 17526 20144      BFWRIT 17526 17707      BFREAD 17526 17704
      BFOPEN 17526 17540      COMARG 20412 20416      RDFLXC 20446 20453      RDFLXB 20446 20452
      GETTM  20631 20634      GETTIM 20631 20632      PRNTER 20717 20722      GNAM   22231 22233
      DERBC  22351 22356      DELBC  22351 22353      DEFBC  22351 22361      OCLBC  22401 22413
      OCRBC  22401 22416      OCDBC  22401 22403      OCABC  22401 22406      BCDEC  22437 22441
      BZEL   22463 22465      COLT   22505 22507      RDWAIT 22607 22610      RDFILE 22607 22607
      DELFIL 22613 22614      CHFILE 22613 22613      IODIAG 22617 22617      SAVBRK 22621 22623
      SETBRK 22621 22622      GETBRK 22621 22621      GETCOM 22627 22627      GETIME 22631 22631
      RDFLXA 22633 22633
1PAGE 2         ALPHABETIC STORAGE MAP OF  ARCHV

       NAME ORIGIN ENTRY       NAME ORIGIN ENTRY       NAME ORIGIN ENTRY       NAME ORIGIN ENTRY

      ON     16162 16406      OFF    16162 16423      BZEL   22463 22465      COLT   22505 22507
      DEAD   16162 16337      EXIT   15751 15754      GNAM   22231 22233      OPEN   17450 17450
      BCDEC  22437 22441      CLOSE  17450 17454      DEFBC  22351 22361      DELBC  22351 22353
      DERBC  22351 22356      EXITM  15751 15757      FWAIT  17450 17452      GETTM  20631 20634
      OCABC  22401 22406      OCDBC  22401 22403      OCLBC  22401 22413      OCRBC  22401 22416
      OFFON  16162 16421      SLEEP  16162 16342      WRFLX  16162 16167      ASCTSS 15406 15412
      BFCLOS 17526 20150      BFCODE 17526 20144      BFOPEN 17526 17540      BFREAD 17526 17704
      BFWRIT 17526 17707      BUFFER 17450 17453      CHFILE 22613 22613      CHNCOM 16162 16323
      COMARG 20412 20416      DELETE 16006 16007      DELFIL 22613 22614      DORMNT 16162 16334
      ENDJOB 15751 15757      FCHECK 17450 17451      FSTATE 17446 17446      GETBRK 22621 22621
      GETCOM 22627 22627      GETIME 22631 22631      GETTIM 20631 20632      IODIAG 22617 22617
      .PCOMT 17472 17476      .SETUP 15751 15773      NEXCOM 16162 16326      PRMESA 15627 15635
      PRMESS 15627 15633      PRNTER 20717 20722      RDFILE 22607 22607      RDFLXA 22633 22633
      RDFLXB 20446 20452      RDFLXC 20446 20453      RDWAIT 22607 22610      SAVBRK 22621 22623
      SETBRK 22621 22622      SSPRNT 16162 16456      TSSASC 15406 15410      UPDATE 17450 17455
      WHOAMI 17464 17464      WRFILE 17466 17466      WRFLXA 16162 16173      WRWAIT 17466 17467
       22401 00030 10542

      MEMORY BOUND IS    22635


 ADMIN   BCD 05/12/69 2008.5   83791         00000
