1      ADMIN UTILITY PACKAGE     D.A. ANDERSON   04/26/69                        04/26/69 2215.2 PAGE 1

                       00016         ENTRY   WRITE         TO WRITE AT A USER
                       00063         ENTRY   PCTL          SET CONSOLE OUTPUT DESTINATION
                       00107         ENTRY   SETBCD        KEEP TRACK OF CONSOLE MODE
                       00111         ENTRY   SETFUL          DITTO
                       00113         ENTRY   WRFLX         DIVERT CONSOLE OUTPUT
                       00121         ENTRY   WRFLXA          DITTO
                       00164         ENTRY   PRNTON        PRINT A MESSAGE ONLINE


                                     EXTERN  COMLOC,SETLOC,RSSWB,RDFLXA
                                     EXTERN  FSTATE,GETMEM,SETMEM,OPEN,RDFILE,CLOSE,WHOAMI,PRINT


 M                            CALL   MACRO   NAME,LIST
                                     TSX     NAME,4
                                     IRP     LIST
                                     PAR     LIST
                                     IRP
                              CALL   END
1      ADMIN UTILITY PACKAGE     D.A. ANDERSON   04/26/69                        04/26/69 2215.2 PAGE 2
                         WRITE


        TRANSFER VECTOR
      00000  234644434623     COMLOC
      00001  622563434623     SETLOC
      00002  516262662260     RSSWB
      00003  512426436721     RDFLXA
      00004  266263216325     FSTATE
      00005  272563442544     GETMEM
      00006  622563442544     SETMEM
      00007  464725456060     OPEN
      00010  512426314325     RDFILE
      00011  234346622560     CLOSE
      00012  663046214431     WHOAMI
      00013  475131456360     PRINT

            LINKAGE DIRECTOR
      00014  000000000000
      00015  665131632560

      00016  0634 00 4 00053  WRITE  SXA     WX4,4         WRITE AT A USER
      00017 -0500 60 4 00001         CAL*    1,4           WHO IS HE
      00020  0602 00 0 01031         SLW     USER
      00021  0074 00 4 00124         TSX     .WRFXA,4      ASK FOR A MESSAGE
      00022 -1 00004 0 00055         MON     TYPE,,TYPEL     (FORCE 12-BIT MODE)
      00023 -0500 00 0 00061         CAL     MZE           FORCE OUTPUT IN SIX-BIT MODE
      00024  0520 00 0 01032         ZET     FULL            UNLESS WE READ IT IN FULL MODE
      00025 -0500 00 0 00062         CAL     MON             ..
      00026  0630 00 0 00040         STP     WRTIT           ..
      00027  0074 00 4 00756         TSX     RDFLXX,4      WAIT AND READ MESSAGE
      00030  0 00016 0 01033         PZE     BUFF,,14        ..
      00031 -0320 00 0 01130         ANA     =O40000       BIT ON IF NOT DONE
      00032  0602 00 0 01051         SLW     DONE          SAVE FOR END TEST
      00033  0074 00 4 00002         TSX     RSSWB,4       FLUSH ANY BUFFERED OUTPUT
      00034  3 00000 0 01031         PAR     USER            FOR TARGET USER
      00035 -0520 00 0 01051  WRLP   NZT     DONE          IS THIS THE LAST
      00036  0020 00 0 00046         TRA     WRLST           YES.
      00037  0074 00 4 00124         TSX     .WRFXA,4      WRITE AT HIM
      00040  0 00016 0 01033  WRTIT  ***     BUFF,,14        ..
      00041  0 00000 0 01031         PZE     USER            ..
      00042  0074 00 4 00756         TSX     RDFLXX,4       READ NEXT INSTALLMENT
      00043  0 00016 0 01033                 BUFF,,14        ..
      00044 -0320 00 0 01130         ANA     =O40000         ..
      00045 -0100 00 0 00035         TNZ     WRLP          LOOP UNTIL DONE

      00046 -0500 00 0 00040  WRLST  CAL     WRTIT         GET OUTPUT MODE
      00047  0630 00 0 00051         STP     *+2             INTO THIS CALL
      00050  0074 00 4 00116         TSX     .WRFX,4       WRITE LAST CHUNK
      00051  0 00016 0 01033         ***     BUFF,,14        ..
      00052  0 00000 0 01031         PZE     USER            ..
      00053  0774 00 4 00000  WX4    AXT     **,4          RESTORE
      00054  0020 00 4 00002         TRA     2,4             AND RETURN
1      ADMIN UTILITY PACKAGE     D.A. ANDERSON   04/26/69                        04/26/69 2215.2 PAGE 3
                         WRITE

      00055 +013300570057     TYPE   OCT     013300570057  RED SHIFT
      00056  006301700147            12BIT   /*TYPE: /
      00057  012500350060
      00060 +013200570057            OCT     013200570057  BLACK SHIFT
                       00004  TYPEL  EQU     *-TYPE
      00061 -0 00000 0 00000  MZE    MZE
      00062 -1 00000 0 00000  MON    MON
1      ADMIN UTILITY PACKAGE     D.A. ANDERSON   04/26/69                        04/26/69 2215.2 PAGE 4
                          PCTL - PRINT CONTROL

      00063  0634 00 4 00105  PCTL   SXA     LX4,4         SET CONSOLE OUTPUT DESTINATION
      00064 -0500 60 4 00001         CAL*    1,4           GET NEW FLAG
      00065 -0625 00 0 01052         STL     CON           ASSUME ON FOR CONCOLE
      00066 -0625 00 0 01053         STL     PRT             AND PRINTER
      00067  0760 00 0 00001         LBT                   CHECK ASSUMPTIONS
      00070  0600 00 0 01052         STZ     CON             FLUSH CONSOLE
      00071  0771 00 0 00001         ARS     1             GET ON-LINE BIT
      00072  0760 00 0 00001         LBT                     ..
      00073  0600 00 0 01053         STZ     PRT             THAT NEITHER
      00074  0520 00 0 01053         ZET     PRT           IS THE PRINTER ON
      00075  0020 00 0 00105         TRA     LX4             YES, EXIT
      00076  0534 00 4 00712         LXA     OUTLEN,4        NO, CLOSE ANY PARTIAL LINE
      00077 -3 00000 4 00105         TXL     LX4,4,0         WEREN'T NONE
      00100  0074 00 4 00717         TSX     SAVE,4        SAVE REGISTERS
      00101  0074 00 7 00710         TSX     RST,7         RESTORE POINTERS
      00102  0074 00 7 00650         TSX     PR,7          PRINT LINE
      00103  0074 00 7 00714         TSX     SAV,7         SAVE NEW POINTERS
      00104  0074 00 4 00737         TSX     RESTOR,4      RESTORE REGISTERS
      00105  0774 00 4 00000  LX4    AXT     **,4            ..
      00106  0020 00 4 00002         TRA     2,4           RETURN

      00107  0600 00 0 01032  SETBCD STZ     FULL          KEEP TRACK
      00110  0101 00 0 01140         TIA     =HSETBCD         ..

      00111 -0625 00 0 01032  SETFUL STL     FULL          DITTO
      00112  0101 00 0 01141         TIA     =HSETFUL        ..
1      ADMIN UTILITY PACKAGE     D.A. ANDERSON   04/26/69                        04/26/69 2215.2 PAGE 5
                          WRFLX AND WRFLXA WRITE AROUNDS

      00113 -0520 00 0 01053  WRFLX  NZT     PRT           IF PRINTING ONLY
      00114 -0520 00 0 01052         NZT     CON             ON THE USER'S CONSOLE,
      00115  0020 00 0 00117         TRA     *+2             ..
      00116  0101 00 0 01143  .WRFX  TIA     =HWRFLX         DO IT RIGHT AWAY
      00117 -0625 00 0 01054         STL     EXTRA         REMEMBER THE CR
      00120  0020 00 0 00126         TRA     JOIN            ..

      00121 -0520 00 0 01053  WRFLXA NZT     PRT           SAME HERE
      00122 -0520 00 0 01052         NZT     CON             ..
      00123  0020 00 0 00125         TRA     *+2             ..
      00124  0101 00 0 01142  .WRFXA TIA     =HWRFLXA        ..
      00125  0600 00 0 01054         STZ     EXTRA         NO CR

      00126 -0520 00 0 01053  JOIN   NZT     PRT           SHOULD WE PRINT ON-LINE
      00127  0020 00 0 00146         TRA     CON.Q           NO, CHECK FOR CONSOLE
      00130  0634 00 4 00145         SXA     JX4,4         SAVE RETURN
      00131  0560 00 0 01032         LDQ     FULL          LINE IS 12-BIT IF FULL .NE. 0
      00132  0500 00 4 00001         CLA     1,4           UNLESS 1,4 IS NEGATIVE
      00133  0602 00 0 00144         SLW     JP              ..
      00134  0120 00 0 00142         TPL     *+6             ..
      00135  0771 00 0 00017         ARS     15            GET PREFIX
      00136 -0734 00 4 00000         PDX     ,4              ..
      00137  3 00001 4 00142         TXH     *+3,4,1       IS IT MEANINGFUL
      00140  0754 00 4 00000         PXA     ,4            YES, USE IT FOR FLAG
      00141  0131 00 0 00000         XCA                     ..
      00142 -0600 00 0 01055         STQ     12BIT           ..

      00143  0074 00 4 00463         TSX     PRNT,4        PRINT THE LINE
      00144  0 00000 0 00000  JP             **,,**          ..
      00145  0774 00 4 00000  JX4    AXT     **,4          RESTORE RETURN

      00146 -0520 00 0 01052  CON.Q  NZT     CON           PRINT ON THE CONSOLE
      00147  0020 00 0 00153         TRA     SKIPCS          NO, SKIP OVER CALLING SEQ.
      00150 -0520 00 0 01054         NZT     EXTRA           YES, WHICH CALL WAS THIS
      00151  0101 00 0 01142         TIA     =HWRFLXA        ..
      00152  0101 00 0 01143         TIA     =HWRFLX         ..

      00153  0604 00 0 01056  SKIPCS STI     SI            SAVE TEMPS
      00154  0441 00 4 00002         LDI     2,4           IS 'USER' SPECIFIED
      00155 -0625 00 0 01054         STL     EXTRA         ASSUME YES
      00156  0444 00 0 01134         OFT     =O477777700000   ..
      00157  0600 00 0 01054         STZ     EXTRA           NOPE
      00160  0441 00 0 01056         LDI     SI            RESTORE
      00161 -0520 00 0 01054         NZT     EXTRA         RETURN AFTER CALLING SEQ.
      00162  0020 00 4 00002         TRA     2,4             ..
      00163  0020 00 4 00003         TRA     3,4             ..
1      ADMIN UTILITY PACKAGE     D.A. ANDERSON   04/26/69                        04/26/69 2215.2 PAGE 6
                          PRNTON - PRINT ONLINE

                              ************************************************************************
                              ******************    FROM  M1416  5886  ON  800280    *****************
                              ************************************************************************

      00164  0634 00 4 00427  PRNTON SXA     PRT4,4        PRINT ON THE ON-LINE PRINTER
      00165  0634 00 1 00426         SXA     PRT1,1          ..
      00166 -0500 60 4 00001         CAL*    1,4           GET POSSIBLE NAME1 OF FILE
      00167  0602 00 0 01061         SLW     N1              ..
      00170  0322 00 0 01063         ERA     FENCE         CHECK FOR END OF ARGUMENT STRING
      00171  0602 00 0 01064         SLW     CONFL           ..
      00172  0100 00 0 00254         TZE     CONIN         INPUT FROM CONSOLE IF NO NAME
      00173 -0500 60 4 00002         CAL*    2,4             ..
      00174  0602 00 0 01062         SLW     N2            GRAB NAME2

      00175                          CALL    FSTATE(N1,N2(TEMP,,1)) GET FILE LENGTH
      00201 -0520 00 0 01030         NZT     TEMP          IF LENGTH ZERO,
      00202  0020 00 0 00431         TRA     NOMESS          NO INPUT.

      00203  0074 00 4 00005         TSX     GETMEM,4      GET BEGINNING OF BUFFER
      00204  0621 00 0 00372         STA     INPUT         SAVE FOR LATER
      00205  0621 00 0 00224         STA     R               AND FOR FILE READ
      00206  0400 00 0 01030         ADD     TEMP          EXTEND AS NECESSARY
      00207  0737 00 4 00000         PAC     ,4              ..
      00210 -0634 00 4 00240         SXD     END.Q,4       INSERT IN END TESTS
      00211 -0634 00 4 00374         SXD     FINISQ,4        ..
      00212  0400 00 0 01124         ADD     =14           JUST IN CASE
      00213  0074 00 4 00006         TSX     SETMEM,4      SET NEW MEMORY BOUND
      00214                          CALL    OPEN(=HR,N1,N2)
      00220                          CALL    RDFILE(N1,N2,=0) GULP
      00224  2 01030 0 00000  R      BLK     **,,TEMP        ..
      00225                          CALL    CLOSE(N1,N2)

      00230  0535 00 1 00372         LAC     INPUT,1       CHECK FOR AND REFORMAT CARD IMAGE RECORDS

      00231  0441 00 1 00000  FL     LDI     0,1           CHECK FIRST WORD OF EACH RECORD
      00232 -0056 00  777777         LNT     /             IS IT A LINEMARK
      00233  0020 00 0 00242         TRA     CARD            NO, MUST BE CARDIMAGE RECORD
      00234  0756 00 1 00000         PCA     ,1              YES
      00235  0401 00 1 00000         ADM     0,1           MOVE TO NEXT RECORD
      00236  0737 00 1 00000         PAC     ,1              ..
      00237  1 77777 1 00240         TXI     *+1,1,-1      SKIP LINEMARK TOO
      00240  3 00000 1 00231  END.Q  TXH     FL,1,**       LOOP UNTIL OUT OF INPUT
      00241  0020 00 0 00323         TRA     PHEAD           THEN GO PRINT

      00242  0774 00 4 00014  CARD   AXT     12,4          CARD-IMAGE, PRINT 12 WORDS
      00243 -0500 00 0 01123         CAL     =13           SET RECORD LENGTH TO 13
      00244  0560 00 1 00000         LDQ     0,1           MOVE RECORD DOWN
      00245  0601 00 1 00000         STO     0,1             TO MAKE ROOM FOR CONTROL WORD
      00246  0131 00 0 00000         XCA                     ..
      00247  1 77777 1 00250         TXI     *+1,1,-1        ..
      00250  2 00001 4 00244         TIX     *-4,4,1       LOOP FOR 12 WORDS
      00251  0560 00 0 01137         LDQ     =H            BLANK OUT LAST WORD
      00252 -0603 00 1 00000         DST     0,1             ..
      00253  1 77776 1 00240         TXI     END.Q,1,-2    LOOK AT NEXT
1      ADMIN UTILITY PACKAGE     D.A. ANDERSON   04/26/69                        04/26/69 2215.2 PAGE 7
                          PRNTON - PRINT ONLINE

      00254  0074 00 4 00005  CONIN  TSX     GETMEM,4      GET BASE ADDRESS FOR INPUT
      00255  0621 00 0 00372         STA     INPUT         SAVE FOR PRINTING
      00256  0737 00 1 00000         PAC     ,1            REMEMBER FOR READING
      00257  0400 00 0 01127         ADD     =100          MAKE SOME ROOM
      00260  0737 00 4 00000         PAC     ,4              ..
      00261 -0634 00 4 00270         SXD     XTND.Q,4      INSERT IN END TEST
      00262  0074 00 4 00006         TSX     SETMEM,4      SET IT

      00263  0074 00 4 00124  INL    TSX     .WRFXA,4      ASK FOR INPUT
      00264 -1 00004 0 00055         MON     TYPE,,TYPEL     ..
      00265  1 77777 1 00266         TXI     *+1,1,-1      BUMP POINTER
      00266  0636 00 1 00272         SCA     CONPTR,1      AND INSERT IN CALL
      00267  1 77727 1 00270         TXI     *+1,1,-41     TEST FOR POSSIBLE P.M.V.
      00270 -3 00000 1 00312  XTND.Q TXL     XTND,1,**       YES, EXTEND MEMORY BOUND
      00271  0074 00 4 00756  XTND.R TSX     RDFLXX,4      READ NEXT LINE
      00272  0 00051 0 00000  CONPTR         **,,41          ..
      00273  0734 00 4 00000         PAX     ,4            PLAY WITH COUNT
      00274 -3 00000 4 00320         TXL     CONEND,4,0    DONE IF JUST CR
      00275  3 37777 4 00277         TXH     *+2,4,16383   IGNORE PARTIAL FLAG
      00276  1 00005 4 00300         TXI     *+2,4,5         MAKE DIVIDE WORK
      00277  0774 00 4 00366         AXT     6*41,4          ..
      00300  0754 00 4 00000         PXA     ,4              ..
      00301 -0130 00 0 00000         XCL                     ..
      00302 -0754 00 0 00000         ZAC                   GET NUMBER OF FULL WORDS
      00303  0221 00 0 01121         DVP     =6              ..
      00304 -0130 00 0 00000         XCL                     ..
      00305  0535 00 1 00272         LAC     CONPTR,1      GET CONTROL WORD LOC'N
      00306  0602 00 1 77777         SLW     -1,1            ..
      00307  0401 00 0 00272         ADM     CONPTR        GET NEW NEXT LOCATION
      00310  0737 00 1 00000         PAC     ,1              ..
      00311  0020 00 0 00263         TRA     INL           GO FOR NEXT LINE

      00312  0074 00 4 00005  XTND   TSX     GETMEM,4      EXTEND MEMORY BOUND
      00313  0400 00 0 01127         ADD     =100
      00314  0737 00 4 00000         PAC     ,4
      00315 -0634 00 4 00270         SXD     XTND.Q,4
      00316  0074 00 4 00006         TSX     SETMEM,4
      00317  0020 00 0 00271         TRA     XTND.R

      00320  0535 00 1 00272  CONEND LAC     CONPTR,1      GET LAST LOCATION USED
      00321  1 00001 1 00322         TXI     *+1,1,1         ..
      00322 -0634 00 1 00374         SXD     FINISQ,1        AND SAVE FOR END TEST

      00323 -0534 00 4 00374  PHEAD  LXD     FINISQ,4      HAVE WE ANY INPUT
      00324  0756 00 4 00000         PCA     ,4              ..
      00325  0322 00 0 00372         ERA     INPUT         NOT IF BEGINNING AND
      00326 -0320 00 0 01131         ANA     =O77777         END ARE THE SAME
      00327  0100 00 0 00431         TZE     NOMESS          ..

      00330                          CALL    WHOAMI((ME,,4)) SET UP HEADER
      00332 -0500 00 0 01136         CAL     =H  ON
      00333  0602 00 0 00455         SLW     ME+2
      00334 -0500 00 0 00456         CAL     ME+3
      00335  0560 00 0 00457         LDQ     ME+4
      00336 -0765 00 0 00022         LGR     18
1      ADMIN UTILITY PACKAGE     D.A. ANDERSON   04/26/69                        04/26/69 2215.2 PAGE 8
                          PRNTON - PRINT ONLINE

      00337 -0600 00 0 00457         STQ     ME+4
      00340 -0500 00 0 00455         CAL     ME+2
      00341  0560 00 0 00456         LDQ     ME+3
      00342 -0765 00 0 00022         LGR     18
      00343 -0600 00 0 00456         STQ     ME+3
      00344 -0500 00 0 00454         CAL     ME+1
      00345  0560 00 0 00455         LDQ     ME+2
      00346 -0765 00 0 00022         LGR     18
      00347 -0600 00 0 00455         STQ     ME+2
      00350 -0500 00 0 00453         CAL     ME
      00351  0560 00 0 00454         LDQ     ME+1
      00352 -0765 00 0 00022         LGR     18
      00353 -0600 00 0 00454         STQ     ME+1
      00354 -0501 00 0 01133         ORA     =HOM 000
      00355  0602 00 0 00453         SLW     ME

      00356  0074 00 4 00013         TSX     PRINT,4         AND PRINT IT
      00357  2 00014 0 00436         PTW     STARS,,12
      00360  0074 00 4 00013         TSX     PRINT,4
      00361  0 00014 0 00447                 ID,,12
      00362  0074 00 4 00013         TSX     PRINT,4
      00363  0 00014 0 00436                 STARS,,12
      00364  0074 00 4 00013         TSX     PRINT,4
      00365  0 00001 0 01137                 =H      ,,1

      00366  0520 00 0 01064         ZET     CONFL         IS THIS FROM THE CONSOLE
      00367  0020 00 0 00372         TRA     *+3             NO
      00370 -0500 00 0 01032         CAL     FULL            YES, 12-BIT IF
      00371  0602 00 0 01055         SLW     12BIT             FULL IS SET

      00372 -0774 00 1 00000  INPUT  AXC     **,1          SET STARTING LOCATION
      00373 -0625 00 0 01054         STL     EXTRA         APPEND CR'S

      00374 -3 00000 1 00424  FINISQ TXL     OUT,1,**      ARE WE DONE YET
      00375 -0500 00 1 00000         CAL     0,1           GET NEXT CONTROL WORD
      00376  1 77777 1 00377         TXI     *+1,1,-1        AND SET START LOC'N OF LINE
      00377  0636 00 1 00416         SCA     PRTL,1          ..
      00400  0767 00 0 00022         ALS     18            SET LINE LENGTH FROM CONTROL WORD
      00401  0622 00 0 00416         STD     PRTL            ..
      00402 -0520 00 0 01064         NZT     CONFL         IS MODE KNOWN
      00403  0020 00 0 00415         TRA     PRNTIT          YES, SKIP
      00404 -0734 00 4 00000         PDX     ,4              NO, DEFINE
      00405 -0754 00 0 00000         ZAC                     ..
      00406 -0501 00 1 00000         ORA     0,1           COMBINE ALL WORDS OF LINE
      00407  1 77777 1 00410         TXI     *+1,1,-1        ..
      00410  2 00001 4 00406         TIX     *-2,4,1         ..
      00411  0044 00 0 00000         PAI                     ..
      00412 -0625 00 0 01055         STL     12BIT         ASSUME FULL-MODE
      00413  0444 00 0 01144         OFT     =O720072007200 IF ALL OFF,
      00414  0600 00 0 01055         STZ     12BIT           MUST HAVE BEEN SIXBIT

      00415  0074 00 4 00463  PRNTIT TSX     PRNT,4        CALL HAIRY PRINT ROUTINE
      00416  0 00000 0 00000  PRTL           **,,**          ..
      00417 -0500 00 0 00416         CAL     PRTL          COMPUTE LOCATION OF NEXT LINE
      00420  0771 00 0 00022         ARS     18              ..
1      ADMIN UTILITY PACKAGE     D.A. ANDERSON   04/26/69                        04/26/69 2215.2 PAGE 9
                          PRNTON - PRINT ONLINE

      00421  0401 00 0 00416         ADM     PRTL            ..
      00422  0737 00 1 00000         PAC     ,1              ..
      00423  0020 00 0 00374         TRA     FINISQ        CHECK FOR DONE

      00424  0074 00 4 00013  OUT    TSX     PRINT,4       ALL DONE, SIGN OFF.
      00425  2 00002 0 00434         PTW     THANKS,,2       ..

      00426  0774 00 1 00000  PRT1   AXT     **,1          RESTORE
      00427  0774 00 4 00000  PRT4   AXT     **,4            ..
      00430  0020 00 4 00003         TRA     3,4             ..

      00431  0074 00 4 00116  NOMESS TSX     .WRFX,4       NO INPUT, GRIPE.
      00432 -0 00003 0 01065         MZE     NOINP,,NOINPL   ..
      00433  0020 00 0 00426         TRA     PRT1

      00434  606330214542     THANKS BCI     / THANK YOU./
      00435  607046643357

                       00436  STARS  DUP     1,9
      00436  545454545454            BCI     /******/
      00437  545454545454
      00440  545454545454
      00441  545454545454
      00442  545454545454
      00443  545454545454
      00444  545454545454
      00445  545454545454
      00446  545454545454
                       00447  ID     DUP     1,3
      00447  545454545454            BCI     /******/
      00450  545454545454
      00451  545454545454
      00452  606060602651            BCI     1,    FROM
      00453  606060604401     ME     BCI     4,    M1416  5886  ON  800280
      00454  040106606005
      00455  101006606046
      00456  456060100000
      00457  606060606060            BCI     4,       *****************
      00460  605454545454
      00461  545454545454
      00462  545454545454
1      ADMIN UTILITY PACKAGE     D.A. ANDERSON   04/26/69                        04/26/69 2215.2 PAGE 10
                           PRNT - PRINT ONLINE INTERNAL SUBROUTINE

      00463  0634 00 4 00706  PRNT   SXA     PX4,4         PRINT ONLINE
      00464 -0500 00 4 00001         CAL     1,4           FIND LINE
      00465  0771 00 0 00022         ARS     18              ..
      00466  0621 00 0 00501         STA     INLEN         SAVE LENGTH
      00467  0401 00 4 00001         ADM     1,4             ..
      00470  0621 00 0 00566         STA     INPLOC        AND LOCATION
      00471  0074 00 4 00717         TSX     SAVE,4        SAVE THE WORLD
      00472 -0500 00 0 01070         CAL     SIXCON        GET CONSTANTS FOR 6-BIT MODE
      00473  0520 00 0 01055         ZET     12BIT           UNLESS MODE IS FULL
      00474 -0500 00 0 01071         CAL     FULCON          ..
      00475  0621 00 0 00567         STA     INNO          SET NUMBER CHARS PER WORD
      00476  0771 00 0 00022         ARS     18              ..
      00477  0621 00 0 00571         STA     SFT             AND NUMBER BITS PER CHAR
      00500  0074 00 7 00710         TSX     RST,7         RESTORE OUTPUT POINTERS
      00501  0774 00 1 00000  INLEN  AXT     **,1          RECALL LENGTH
      00502  0522 00 0 00567         XEC     INNO          SET UP
      00503  1 00001 4 00504         TXI     *+1,4,1         ..
      00504  0560 60 0 00566         LDQ*    INPLOC          ..

      00505  0074 00 7 00564  PL     TSX     GTC,7         GET NEXT CHARACTER
      00506  0054 00  000200         RFT     200           SHOULD IT BE IGNORED
      00507  0020 00 0 00505         TRA     PL              YES
      00510  0054 00  000100         RFT     100           IS IT CONTROL
      00511  0020 00 0 00515         TRA     CONTRL          YES
      00512 -0520 00 0 01072         NZT     FILLED        IS OUTPUT LINE FULL
      00513  0074 00 7 00550         TSX     STC,7           NO, STORE CHARACTER
      00514  0020 00 0 00505         TRA     PL            LOOP

      00515 -0320 00 0 01126  CONTRL ANA     =O77          REMOVE CONTROL BIT
      00516  0737 00 3 00000         PAC     ,3              ..
      00517  0020 60 3 00520         TRA*    *+1,3         GO TO FUNCTION
      00520  0 00000 0 00524                 CR
      00521  0 00000 0 00530                 TAB
      00522  0 00000 0 00526                 BS
      00523  0 00000 0 00540                 LF

      00524  0074 00 7 00650  CR     TSX     PR,7          CARRIAGE RETURN, PRINT LINE
      00525  0020 00 0 00505         TRA     PL

      00526  0074 00 7 00564  BS     TSX     GTC,7         BACKSPACE, IGNORE NEXT CHAR
      00527  0020 00 0 00505         TRA     PL              ..

      00530  0754 00 6 00000  TAB    PXA     ,6            TAB, GET LINE LENGTH
      00531  0734 00 3 00000         PAX     ,3
      00532  2 00012 3 00532         TIX     *,3,10
      00533  3 00011 3 00544         TXH     SKIP,3,9
      00534  1 77766 3 00535         TXI     *+1,3,-10
      00535  0756 00 3 00000         PCA     ,3
      00536  0734 00 3 00000         PAX     ,3
      00537  0020 00 0 00544         TRA     SKIP

      00540  0634 00 6 00542  LF     SXA     *+2,6         LINE FEED, SAVE CURRENT POSITION
      00541  0074 00 7 00650         TSX     PR,7          PRINT LINE
      00542  0774 00 3 00000         AXT     **,3          THEN SPACE OUT TO OLD POSITION
      00543 -3 00000 3 00505         TXL     PL,3,0          ..
1      ADMIN UTILITY PACKAGE     D.A. ANDERSON   04/26/69                        04/26/69 2215.2 PAGE 11
                           PRNT - PRINT ONLINE INTERNAL SUBROUTINE

      00544 -0500 00 0 01125  SKIP   CAL     =O60          INSERT SPACES
      00545  0074 00 7 00550         TSX     STC,7           ..
      00546  2 00001 3 00544         TIX     SKIP,3,1        ..
      00547  0020 00 0 00505         TRA     PL              ..

      00550 -0765 00 0 00006  STC    LGR     6             STORE CHAR IN OUTPUT
      00551 -0500 00 2 01117         CAL     OUTWRD+20,2     ..
      00552 -0763 00 0 00006         LGL     6             APPEND TO WORD
      00553  0602 00 2 01117         SLW     OUTWRD+20,2
      00554  1 00001 6 00555         TXI     *+1,6,1       BUMP CHAR. COUNT
      00555 -0140 00 7 00001         TNO     1,7           EXIT IF NOT FULL
      00556  2 00001 2 00561         TIX     *+3,2,1       MOVE TO NEXT WORD OTHERWISE
      00557 -0625 00 0 01072         STL     FILLED        LINE IS FULL
      00560  0020 00 7 00001         TRA     1,7
      00561 -0500 00 0 01122         CAL     =7            SET OVERFLOW BITS
      00562  0602 00 2 01117         SLW     OUTWRD+20,2     IN NEW WORD
      00563  0020 00 7 00001         TRA     1,7

      00564  2 00001 4 00570  GTC    TIX     GTC1,4,1      GET NEXT INPUT CHARACTER
      00565 -2 00001 1 00702         TNX     INPDON,1,1    EXIT IF NONE LEFT
      00566  0560 00 1 00000  INPLOC LDQ     **,1          GRAB NEXT WORD
      00567  0774 00 4 00000  INNO   AXT     **,4          SET NUMBER CHARS LEFT IN THIS WORD
      00570 -0754 00 0 00000  GTC1   ZAC                   FLUSH GARBAGE
      00571 -0763 00 0 00000  SFT    LGL     **            GET HI-ORDER N-2 BITS OF CHAR
      00572  0734 00 3 00000         PAX     ,3            CHECK FOR GOOD CHAR
      00573 -3 00077 3 00575         TXL     *+2,3,63      IF 'IGNORE IN SIXBIT' FLAG IS ON,
      00574  1 77700 3 00575         TXI     *+1,3,-64       RESET IT.
      00575  3 00037 3 00564         TXH     GTC,3,31      TRY NEXT IF TOO LARGE
      00576 -0754 00 0 00000         ZAC                   COMPUTE POSITION IN TABLE WORD
      00577 -0763 00 0 00002         LGL     2               OF TRANSLATION FOR THIS CHAR
      00600  0602 00 0 01030         SLW     TEMP            ..
      00601  0767 00 0 00003         ALS     3               ..
      00602  0400 00 0 01030         ADD     TEMP            ..
      00603  0737 00 5 00000         PAC     ,5              ..
      00604 -0500 00 3 00647         CAL     CVTBL,3       GET TRANSLATION
      00605  0771 00 5 00000         ARS     ,5              ..
      00606  0044 00 0 00000         PAI                   IN SI AND LAC
      00607  0020 00 7 00001         TRA     1,7

      00610 +200200200200            OCT     200200200200
      00611 +200200071070            OCT     200200071070
      00612 +067066065064            OCT     067066065064
      00613 +063062200200            OCT     063062200200
      00614 +200200200200            OCT     200200200200
      00615 +200200051050            OCT     200200051050
      00616 +047046045044            OCT     047046045044
      00617 +043042041200            OCT     043042041200
      00620 +200100102200            OCT     200100102200
      00621 +200200031030            OCT     200200031030
      00622 +027026025024            OCT     027026025024
      00623 +023022021020            OCT     023022021020
      00624 +200200200200            OCT     200200200200
      00625 +200200200200            OCT     200200200200
      00626 +103200200200            OCT     103200200200
      00627 +073200200200            OCT     073200200200
1      ADMIN UTILITY PACKAGE     D.A. ANDERSON   04/26/69                        04/26/69 2215.2 PAGE 12
                           PRNT - PRINT ONLINE INTERNAL SUBROUTINE

      00630 +200200200074            OCT     200200200074
      00631 +073101071070            OCT     073101071070
      00632 +067066065064            OCT     067066065064
      00633 +063062061060            OCT     063062061060
      00634 +200200100054            OCT     200200100054
      00635 +053200051050            OCT     053200051050
      00636 +047046045044            OCT     047046045044
      00637 +043042041040            OCT     043042041040
      00640 +200200033034            OCT     200200033034
      00641 +033200031030            OCT     033200031030
      00642 +027026025024            OCT     027026025024
      00643 +023022021020            OCT     023022021020
      00644 +200200200014            OCT     200200200014
      00645 +013200011010            OCT     013200011010
      00646 +007006005004            OCT     007006005004
      00647 +003002001000     CVTBL  OCT     003002001000

      00650  0634 00 7 00700  PR     SXA     PR7,7         PRINT THIS LINE
      00651  0634 00 4 00677         SXA     PR4,4           ..
      00652  0754 00 6 00000         PXA     ,6            GET LINE LENGTH
      00653  0131 00 0 00000         XCA                     ..
      00654 -0754 00 0 00000         ZAC                     ..
      00655  0221 00 0 01121         DVP     =6            COMPUTE NUMBER HOLES IN CURRENT OUTPUT WORD
      00656  0100 00 0 00664         TZE     *+6           DON'T FILL IF ZERO
      00657  0402 00 0 01121         SUB     =6              ..
      00660  0734 00 3 00000         PAX     ,3              ..
      00661 -0500 00 0 01125         CAL     =O60          PAD WITH SPACES
      00662  0074 00 7 00550         TSX     STC,7           ..
      00663  2 00001 3 00661         TIX     *-2,3,1         ..
      00664 -0520 00 0 01072         NZT     FILLED        COMPUTE LENGTH OF OUTPUT LINE
      00665  1 77754 2 00667         TXI     *+2,2,-20       ..
      00666  1 77753 2 00667         TXI     *+1,2,-21       ..
      00667 -0636 00 2 00671         SCD     *+2,2         SET IN CALL
      00670  0074 00 4 00013         TSX     PRINT,4       PRINT THE LINE
      00671  0 00000 0 01073                 OUTWRD,,**      ..
      00672  0774 00 6 00000         AXT     0,6           RESET LINE LENGTH
      00673  0774 00 2 00024         AXT     20,2            AND WORD POINTER
      00674 -0500 00 0 01122         CAL     =7            SET OVERFLOW BITS
      00675  0602 00 0 01073         SLW     OUTWRD          ..
      00676  0600 00 0 01072         STZ     FILLED          ..
      00677  0774 00 4 00000  PR4    AXT     **,4            ..
      00700  0774 00 7 00000  PR7    AXT     **,7          RESTORE AND
      00701  0020 00 7 00001         TRA     1,7             RETURN

      00702  0520 00 0 01054  INPDON ZET     EXTRA         INPUT DONE, IF EXTRA CR,
      00703  0074 00 7 00650         TSX     PR,7            PRINT LAST LINE
      00704  0074 00 7 00714         TSX     SAV,7         SAVE OUTPUT POINTERS
      00705  0074 00 4 00737         TSX     RESTOR,4      RESTORE REGISTERS
      00706  0774 00 4 00000  PX4    AXT     **,4            ..
      00707  0020 00 4 00002         TRA     2,4           RETURN

      00710  0140 00 0 00711  RST    TOV     *+1           RESTORE OUTPUT POINTERS
      00711  0774 00 2 00024  OUTSIZ AXT     20,2            ..
      00712  0774 00 6 00000  OUTLEN AXT     0,6             ..
      00713  0020 00 7 00001         TRA     1,7
1      ADMIN UTILITY PACKAGE     D.A. ANDERSON   04/26/69                        04/26/69 2215.2 PAGE 13
                           PRNT - PRINT ONLINE INTERNAL SUBROUTINE

      00714  0634 00 2 00711  SAV    SXA     OUTSIZ,2      SAVE OUTPUT POINTERS
      00715  0634 00 6 00712         SXA     OUTLEN,6        ..
      00716  0020 00 7 00001         TRA     1,7             ..
1      ADMIN UTILITY PACKAGE     D.A. ANDERSON   04/26/69                        04/26/69 2215.2 PAGE 14
                           SAVE AND RESTOR

      00717  0604 00 0 01056  SAVE   STI     SI            SAVE REGISTERS
      00720 -0600 00 0 01057         STQ     MQ              ..
      00721  0602 00 0 01060         SLW     LAC           (LIKE UNTO PMTI)
      00722  0634 00 1 00754         SXA     SX1,1
      00723  0634 00 2 00753         SXA     SX2,2
      00724  0634 00 3 00750         SXA     SX3,3
      00725  0774 00 1 00000         AXT     0,1
      00726  0774 00 3 77777         AXT     -1,3
      00727  0634 00 1 01117         SXA     MTM,1
      00730  0760 00 0 00016         LMTM
      00731  0520 00 0 01117         ZET     MTM
      00732  0634 00 3 00750         SXA     SX3,3
      00733  0634 00 5 00747         SXA     SX5,5
      00734  0634 00 6 00746         SXA     SX6,6
      00735  0634 00 7 00745         SXA     SX7,7
      00736  0020 00 4 00001         TRA     1,4

      00737  0441 00 0 01056  RESTOR LDI     SI            RESTORE REGISTERS
      00740  0560 00 0 01057         LDQ     MQ
      00741 -0500 00 0 01060         CAL     LAC
      00742 -0760 00 0 00003         SSM
      00743 -0760 00 0 00001         PBT
      00744  0760 00 0 00002         CHS
      00745  0774 00 7 00000  SX7    AXT     **,7
      00746  0774 00 6 00000  SX6    AXT     **,6
      00747  0774 00 5 00000  SX5    AXT     **,5
      00750  0774 00 3 00000  SX3    AXT     **,3
      00751  0520 00 0 01117         ZET     MTM
      00752 -0760 00 0 00016         EMTM                  BLEUGH
      00753  0774 00 2 00000  SX2    AXT     **,2
      00754  0774 00 1 00000  SX1    AXT     **,1
      00755  0020 00 4 00001         TRA     1,4
1      ADMIN UTILITY PACKAGE     D.A. ANDERSON   04/26/69                        04/26/69 2215.2 PAGE 15
                           RDFLXX

      00756  0634 00 4 01026  RDFLXX SXA     RD4,4         READ A LINE, REMOVE CARRIAGE RETURN
      00757  0634 00 1 01025         SXA     RD1,1           ..
      00760 -0500 00 4 00001         CAL     1,4           FIND BUFFER AND COUNT
      00761  0602 00 0 00765         SLW     RPTR            ..
      00762  0737 00 4 00000         PAC     ,4            REMEMBER LOCATION
      00763 -0634 00 4 01005         SXD     RADJ,4          ..
      00764  0074 00 4 00003         TSX     RDFLXA,4      READ THE LINE
      00765  0 00000 0 00000  RPTR           **,,**          ..
      00766  0602 00 0 01051         SLW     DONE          SAVE COUNT
      00767  0734 00 4 00000         PAX     ,4            IS THERE
      00770  3 37777 4 01025         TXH     RD1,4,16383     A CARRIAGE RETURN
      00771 -0520 00 0 01032         NZT     FULL          IS THIS 12-BIT
      00772  1 77777 4 00774         TXI     *+2,4,-1          DECREMENT COUNT
      00773  1 77776 4 00774         TXI     *+1,4,-2      (FULL)
      00774  0634 00 4 01051         SXA     DONE,4          ..
      00775  0131 00 0 00000         XCA                   LOCATE CR TO REMOVE
      00776 -0754 00 0 00000         ZAC                     ..
      00777  0221 00 0 01121         DVP     =6              ..
      01000  0734 00 4 00000         PAX     ,4              ..
      01001  0131 00 0 00000         XCA                     ..
      01002  0737 00 1 00000         PAC     ,1            COMPUTE WORD LOCATION
      01003 -3 00000 4 01005         TXL     *+2,4,0         ..
      01004  1 77777 1 01005         TXI     *+1,1,-1        ..
      01005  1 00000 1 01006  RADJ   TXI     *+1,1,**        ..
      01006  0200 00 0 01121         MPY     =6              AND POSITION WITHIN WORD
      01007  0131 00 0 00000         XCA                     ..
      01010  0734 00 4 00000         PAX     ,4              ..
      01011  3 00000 4 01013         TXH     *+2,4,0         ..
      01012  0774 00 4 00044         AXT     36,4            ..
      01013  0520 00 0 01032         ZET     FULL          IF FULL,
      01014  1 77772 4 01015         TXI     *+1,4,-6        RE-POSITION
      01015 -0500 00 1 77777         CAL     -1,1          PICK UP WORD
      01016  0771 00 4 00052         ARS     42,4          REMOVE CR
      01017  0560 00 0 01137         LDQ     =H              ..
      01020  0520 00 0 01032         ZET     FULL          IF FULL,
      01021  0560 00 0 01132         LDQ     =H0 0 0         USE FULL-MODE BLANKS
      01022 -0763 00 4 00052         LGL     42,4          AND REPLACE WITH BLANKS
      01023  0602 00 1 77777         SLW     -1,1            ..
      01024 -0500 00 0 01051         CAL     DONE          RECALL COUNT
      01025  0774 00 1 00000  RD1    AXT     **,1            ..
      01026  0774 00 4 00000  RD4    AXT     **,4            ..
      01027  0020 00 4 00002         TRA     2,4             ..
1      ADMIN UTILITY PACKAGE     D.A. ANDERSON   04/26/69                        04/26/69 2215.2 PAGE 16
                           STORAGE LOCATIONS

      01030  0 00000 0 00000  TEMP
      01031  0 00000 0 00000  USER
      01032  0 00000 0 00000  FULL
      01033                   BUFF   BSS     14
      01051  0 00000 0 00000  DONE
      01052  0 00000 0 00000  CON
      01053  0 00000 0 00000  PRT
      01054  0 00000 0 00000  EXTRA
      01055  0 00000 0 00000  12BIT
      01056  0 00000 0 00000  SI
      01057  0 00000 0 00000  MQ
      01060  0 00000 0 00000  LAC
      01061  0 00000 0 00000  N1
      01062  0 00000 0 00000  N2
      01063 -377777777777     FENCE  OCT     777777777777
      01064  0 00000 0 00000  CONFL
      01065  454660314547     NOINP  BCI     /NO INPUT GIVEN./
      01066  646360273165
      01067  254533575757
                       00003  NOINPL EQU     *-NOINP
      01070  000004000006     SIXCON VFD     18/4,18/6
      01071  000012000003     FULCON VFD     18/10,18/3
      01072  0 00000 0 00000  FILLED
      01073 +000000000007     OUTWRD OCT     7
      01074                          BSS     19
      01117  0 00000 0 00000  MTM
1      ADMIN UTILITY PACKAGE     D.A. ANDERSON   04/26/69                        04/26/69 2215.2 PAGE 17
                           STORAGE LOCATIONS

                                     END

        LITERALS
      01120  000000000000
      01121  000000000006
      01122  000000000007
      01123  000000000015
      01124  000000000016
      01125  000000000060
      01126  000000000077
      01127  000000000144
      01130  000000040000
      01131  000000077777
      01132  006000600060
      01133  464460000000
      01134  477777700000
      01135  516060606060
      01136  606046456060
      01137  606060606060
      01140  622563222324
      01141  622563266443
      01142  665126436721
      01143  665126436760
      01144  720072007200
1      ADMIN UTILITY PACKAGE     D.A. ANDERSON   04/26/69                        04/26/69 2215.2 PAGE 1
                        POST PROCESSOR ASSEMBLY DATA

       1145 IS THE FIRST LOCATION NOT USED BY THIS PROGRAM

0REFERENCES TO DEFINED SYMBOLS
        224      R   205
        526     BS   522
        524     CR   520
        231     FL   240
        447     ID   361
        144     JP   133
        540     LF   523
        453     ME   331,  333,  334,  335,  337,  340,  341,  343,  344,  345,  347,  350,  351,  353,  355
       1057     MQ   720,  740
       1061     N1   167,  176,  216,  221,  226
       1062     N2   174,  177,  217,  222,  227
        505     PL   507,  514,  525,  527,  543,  547
        650     PR   102,  524,  541,  703
       1056     SI   153,  160,  717,  737
       1052    CON    65,   70,  114,  122,  146
        564    GTC   505,  526,  575
        263    INL   311
        145    JX4   130
       1060    LAC   721,  741
        105    LX4    63,   75,   77
         62    MON    25
       1117    MTM   727,  731,  751
         61    MZE    23
        424    OUT   374
        677    PR4   651
        700    PR7   650
       1053    PRT    66,   73,   74,  113,  121,  126
        706    PX4   463
       1025    RD1   757,  770
       1026    RD4   756
        710    RST   101,  500
        714    SAV   103,  704
        571    SFT   477
        550    STC   513,  545,  662
        754    SX1   722
        753    SX2   723
        750    SX3   724,  732
        747    SX5   733
        746    SX6   734
        745    SX7   735
        530    TAB   521
         53    WX4    16
       1033   BUFF    30,   40,   43,   51
        242   CARD   233
       1051   DONE    32,   35,  766,  774, 1024
       1032   FULL    24,  107,  111,  131,  370,  771, 1013, 1020
        570   GTC1   564
        567   INNO   475,  502
        126   JOIN   120
          7   OPEN   214
         63   PCTL     0
1      ADMIN UTILITY PACKAGE     D.A. ANDERSON   04/26/69                        04/26/69 2215.2 PAGE 2
                        POST PROCESSOR ASSEMBLY DATA

        463   PRNT   143,  415
        426   PRT1   165,  433
        427   PRT4   164
        416   PRTL   377,  401,  417,  421
       1005   RADJ   763
        765   RPTR   761
        717   SAVE   100,  471
        544   SKIP   533,  537,  546
       1030   TEMP   200,  201,  206,  224,  600,  602
         55   TYPE    22,   61,  264
       1031   USER    20,   34,   41,   52
         35   WRLP    45
        312   XTND   270
       1055  12BIT   142,  371,  412,  414,  473
         11  CLOSE   225
       1064  CONFL   171,  366,  402
        254  CONIN   172
        146  CON.Q   127
        647  CVTBL   604
        240  END.Q   210,  253
       1054  EXTRA   117,  125,  150,  155,  157,  161,  373,  702
       1063  FENCE   170
        501  INLEN   466
        372  INPUT   204,  230,  255,  325
        116  .WRFX    50,  431
       1065  NOINP   432, 1070
        323  PHEAD   241
         13  PRINT   356,  360,  362,  364,  424,  670
          2  RSSWB    33
        436  STARS   357,  363
          4  TYPEL    22,   61,  264
        113  WRFLX     0
         16  WRITE     0
         46  WRLST    36
         40  WRTIT    26,   46
          0 COMLOC
        320 CONEND   274
        272 CONPTR   266,  305,  307,  320
        515 CONTRL   511
       1072 FILLED   512,  557,  664,  676
        374 FINISQ   211,  322,  323,  423
          4 FSTATE   175
       1071 FULCON   474
          5 GETMEM   203,  254,  312
        702 INPDON   565
        566 INPLOC   470,  504
        124 .WRFXA    21,   37,  263
          3 NOINPL   432, 1070
        431 NOMESS   202,  327
        712 OUTLEN    76,  715
        711 OUTSIZ   714
       1073 OUTWRD   551,  553,  562,  671,  675
        415 PRNTIT   403
        164 PRNTON     0
         10 RDFILE   220
1      ADMIN UTILITY PACKAGE     D.A. ANDERSON   04/26/69                        04/26/69 2215.2 PAGE 3
                        POST PROCESSOR ASSEMBLY DATA

          3 RDFLXA   764
        756 RDFLXX    27,   42,  271
        737 RESTOR   104,  705
        107 SETBCD     0
        111 SETFUL     0
          1 SETLOC
          6 SETMEM   213,  262,  316
       1070 SIXCON   472
        153 SKIPCS   147
        434 THANKS   425
         12 WHOAMI   330
        121 WRFLXA     0
        270 XTND.Q   261,  315
        271 XTND.R   317

0 NO ERROR IN ABOVE ASSEMBLY.
1            DELTEM, DTEMLG, DELALL - DELETE FILES FROM U.F.D.                   03/20/69 1946.0 PAGE 1

                                             2/3/66 - NOEL I. MORRIS


                       00013         ENTRY   DELTEM        DELETE ALL TEMPS.
                       00016         ENTRY   DTEMLG        DELETE TEMPS THIS AUTHOR
                       00021         ENTRY   DELALL        DELETE ALL FILES

                                     UNLIST
 M                            CALL   MACRON  NAME,LIST     SUBROUTINE CALL MACRO
 M                            SAVE   MACRO   ID,LIST       SAVE BASIC MACHINE CONDITIONS


                                     EXTERN  ATTNAM,FERRTN,TILOCK,FSTATE,GETMEM,SETMEM,OPEN
                                     EXTERN  RDFILE,CLOSE,CHFILE,DELFIL


      00013  0600 00 0 00157  DELTEM STZ     AUTHSW        NO AUTH. RESTRICTION
      00014 -0625 00 0 00160         STL     TEMSW         TEMPORARIES ONLY
      00015  0020 00 0 00023         TRA     GO

      00016 -0625 00 0 00157  DTEMLG STL     AUTHSW        TEMPS OF CURRENT AUTHOR ONLY (LOGOUT)
      00017 -0625 00 0 00160         STL     TEMSW         ..
      00020  0020 00 0 00023         TRA     GO

      00021  0600 00 0 00157  DELALL STZ     AUTHSW        EVERYBODY GOES ...
      00022  0600 00 0 00160         STZ     TEMSW         ..

      00023  0634 00 4 00144  GO     SXA     X4,4          SAVE LINKAGE

      00024  0520 00 0 00157         ZET     AUTHSW        DO WE NEED AUTHOR NO. (MACRO BELOW)
      00025                          CALL    ATTNAM((FNAME,,3)) YES, GET AUTHOR NO. (3RD WORD)

      00027  0074 00 4 00001         TSX     FERRTN,4      SET UP FILE SYSTEM ERROR RETURN
      00030  0 00000 0 00140         PZE     RSILK         ..
      00031  0621 00 0 00143         STA     RSERR+1       SAVE OLD RETURN

      00032  0074 00 4 00002         TSX     TILOCK,4      SET INTERLOCK RETURN
      00033  0 00000 0 00133         PZE     INC           ..
      00034  0621 00 0 00141         STA     RSILK+1       SAVE OLD INTERLOCK RETURN

      00035                          CALL    FSTATE(U,F(LTH,,1)) GET LENGTH OF U.F.D.
      00041  0500 00 0 00151         CLA     LTH           DECREASE BY 3
      00042  0402 00 0 00162         SUB     =3            ..
      00043  0601 00 0 00151         STO     LTH           ..

      00044  0074 00 4 00004         TSX     GETMEM,4      GET MEMBND
      00045  0621 00 0 00150         STA     MB            SAVE IT
      00046  0621 00 0 00062         STA     RD+4          ..
      00047  0361 00 0 00151         ACL     LTH           INCREASE BY LENGTH OF U.F.D.
      00050  0621 00 0 00153         STA     TOP           ..
      00051  0074 00 4 00005         TSX     SETMEM,4      RESET MEMORY BOUND

      00052                          CALL    OPEN(=HR,U,F) OPEN THE U.F.D.
      00056                   RD     CALL    RDFILE(U,F,=4(**,...,LTH)) READ IT IN
      00063                          CALL    CLOSE(U,F)    AND CLOSE IT
1            DELTEM, DTEMLG, DELALL - DELETE FILES FROM U.F.D.                   03/20/69 1946.0 PAGE 2

      00066 -0500 00 0 00150         CAL     MB            GET BEGINNING LOC'N FOR U.F.D.
      00067 -0340 00 0 00153  DLP    LAS     TOP           COMPARE TO TOP
      00070  0020 00 0 00136         TRA     ENDEL         ..
      00071  0020 00 0 00136         TRA     ENDEL         ..
      00072  0621 00 0 00152         STA     POINTR        SAVE U.F.D. POINTER
      00073  0737 00 4 00000         PAC     ,4            POINTER IN XR4

      00074  0520 00 4 00000         ZET     0,4           IS PRIMARY NAME ZERO .Q.
      00075  0020 00 0 00100         TRA     *+3           NO, CONTINUE
      00076 -0520 00 4 00001         NZT     1,4           IS SECONDARY NAME ZERO .Q.
      00077  0020 00 0 00133         TRA     INC           YES, SKIP THIS ENTRY

      00100  0441 00 4 00004         LDI     4,4           GET MODE, ILOCK, ETC.
      00101  0054 00  700000         RFT     700000        IS FILE LINKED (DEVICE = 0) .Q.
      00102  0020 00 0 00104         TRA     *+2           NO, SKIP
      00103  0020 00 0 00133         TRA     INC           YES, IGNORE LINKED FILE

      00104 -0056 00  002000         LNT     002000        IS FILE TEMPORARY .Q.
      00105 -0520 00 0 00160         NZT     TEMSW         OR ARE WE AFTER ALL FILES .Q.
      00106  0020 00 0 00110         TRA     *+2           YES, SKIP
      00107  0020 00 0 00133         TRA     INC           NO, IGNORE FILE

      00110 -0500 00 4 00003         CAL     3,4           GET AUTHOR OF FILE
      00111 -0320 00 0 00165         ANA     =O777777      ..
      00112  0322 00 0 00156         ERA     AUTHNO        IS AUTHOR THIS USER .Q.
      00113  0520 00 0 00157         ZET     AUTHSW        OR DON'T WE CARE .Q.
      00114 -0100 00 0 00133         TNZ     INC           IF NOT, IGNORE FILE

      00115  0500 00 4 00000         CLA     0,4           GET PRIMARY NAME
      00116  0560 00 4 00001         LDQ     1,4           AND SECONDARY NAME
      00117 -0603 00 0 00154         DST     FNAME         ..

      00120                          CALL    CHFILE(FNAME,FNAME+1,=1,=-0,=-0,*+1) MAKE IT '001' MODE
      00127                          CALL    DELFIL(FNAME,FNAME+1,*+1) DELETE IT

      00133 -0500 00 0 00152  INC    CAL     POINTR        GET U.F.D. POINTER
      00134  0361 00 0 00164         ACL     =7            STEP BY SEVEN
      00135  0020 00 0 00067         TRA     DLP           CONTINUE LOOP

      00136 -0500 00 0 00150  ENDEL  CAL     MB            GET OLD MEMBND
      00137  0074 00 4 00005         TSX     SETMEM,4      RESET MEMORY BOUND

      00140  0074 00 4 00002  RSILK  TSX     TILOCK,4      RESET INTERLOCK RETURN
      00141  0 00000 0 00000         PZE     **            MUST BE A 'PZE' ******

      00142  0074 00 4 00001  RSERR  TSX     FERRTN,4      RESET OLD ERROR RETURN
      00143  0 00000 0 00000         PZE     **            MUST BE A 'PZE' ******
      00144  0774 00 4 00000  X4     AXT     **,4          RESTORE XR4
      00145  0020 00 4 00001         TRA     1,4           RETURN


      00146  643326332433     U      BCI     1,U.F.D.
      00147  742631432534     F      BCI     1,(FILE)
      00150  0 00000 0 00000  MB     PZE
      00151  0 00000 0 00000  LTH    PZE
      00152  0 00000 0 00000  POINTR PZE
1            DELTEM, DTEMLG, DELALL - DELETE FILES FROM U.F.D.                   03/20/69 1946.0 PAGE 3

      00153  0 00000 0 00000  TOP    PZE
      00154                   FNAME  BSS     2
      00156  0 00000 0 00000  AUTHNO PZE                   AUTHOR NUMBER
      00157  0 00000 0 00000  AUTHSW PZE                   SWITCH TO DELETE AUTHOR'S FILES ONLY
      00160  0 00000 0 00000  TEMSW  PZE                   SWITCH TO DELETE TEMP FILES ONLY

      00161                          RMT     *             REMOTE SEQUENCES.

                                     END

        LITERALS
      00161  000000000001
      00162  000000000003
      00163  000000000004
      00164  000000000007
      00165  000000777777
      00166  400000000000
      00167  516060606060
1            DELTEM, DTEMLG, DELALL - DELETE FILES FROM U.F.D.                   03/20/69 1946.0 PAGE 1
                        POST PROCESSOR ASSEMBLY DATA

        170 IS THE FIRST LOCATION NOT USED BY THIS PROGRAM

0REFERENCES TO DEFINED SYMBOLS
        147      F    37,   55,   60,   65
        146      U    36,   54,   57,   64
         23     GO    15,   20
        150     MB    45,   66,  136
         56     RD    46
        144     X4    23
         67    DLP   135
        133    INC    33,   77,  103,  107,  114
        151    LTH    40,   41,   43,   47,   62
        153    TOP    50,   67
          6   OPEN    52
         10  CLOSE    63
        136  ENDEL    70,   71
        154  FNAME    26,  117,  121,  122,  130,  131
        142  RSERR    31
        140  RSILK    30,   34
        160  TEMSW    14,   17,   22,  105
          0 ATTNAM    25
        156 AUTHNO   112
        157 AUTHSW    13,   16,   21,   24,  113
         11 CHFILE   120
         21 DELALL     0
         12 DELFIL   127
         13 DELTEM     0
         16 DTEMLG     0
          1 FERRTN    27,  142
          3 FSTATE    35
          4 GETMEM    44
        152 POINTR    72,  133
          7 RDFILE    56
          5 SETMEM    51,  137
          2 TILOCK    32,  140

0 NO ERROR IN ABOVE ASSEMBLY.


APENDA   BCD 09/20/68 1803.6    8315         00000
1     MAD PROGRAM LISTING ... ... ...                 FILE  APENDA   MAD            09/20/68    1746.2
-
                  M1416-3845  PETER R. BOS  1/4/67 -- APEND/APENDA SAVED                               LM00001
                                                                                                       LM00002
                  USAGE ...                                                                            LM00003
                     'APEND' OR 'APENDA' NAME1 NAME2 -'*'- ARGS ...                                    LM00004
                                                                                                       LM00005
                     IF '*' IS SPECIFIED, ARGS ARE ASSUMED AS SINGLE                                   LM00006
                     FIRST NAMES OF FILES, NAME2 BEING USED AS GENERIC                                 LM00007
                     SECONDARY NAME.                                                                   LM00008
                     IF '*' IS NOT SPECIFIED, ARGS ARE ASSUMED AS                                      LM00009
                     NAME1-NAME2 PAIRS.                                                                LM00010
                                                                                                       LM00011
                     FILE SYSTEM ERRORS ON SUB-FILES ARE NOT DETECTED                                  LM00012
                     UNTIL PREVIOUS FILES HAVE BEEN PROCESSED. ERROR                                   LM00013
                     RETURN IS TO PRNTER VIA NEXCOM.                                                   LM00014
                                                                                                       LM00015
                     'APENDA' WILL APPEND FILES TO NAME1 NAME2 WITH                                    LM00016
                     ARCHIV FORMAT HEADERS INSERTED.                                                   LM00017
                     'APEND' WILL APPEND FILES WITHOUT THE HEADERS.                                    LM00018
                     EXECUTING THE PROGRAM UNDER A DIFFERENT NAME WILL                                 LM00019
                     CAUSE AN ERROR COMMENT, AND NO EXECUTION.                                         LM00020
                                                                                                       LM00021
                  NORMAL MODE IS INTEGER                                                          *001 LM00022
                  FUNCTION NAME EXTFN                                                             *002 LM00023
                  DIMENSION CBUF(20), WBUF(432)                                                   *003 LM00024
                  EQUIVALENCE (N1,CBUF(1)), (N2,CBUF(2))                                          *004 LM00025
                  BOOLEAN TN2                                                                     *005 LM00026
                                                                                                       LM00027
                  FERRTN.(IOERR.)                                                                 *006 LM00028
                  GCLS.(CBUF,0)                                                                   *007 LM00029
                  WHENEVER CBUF(0).E.$ APEND$                                                     *008 LM00030
                    EXTFN=APPEND.                                                                 *009 LM00031
                  OTHERWISE                                                                       *010 LM00032
                    EXTFN=ARCHA.                                                                  *011 LM00033
                  END OF CONDITIONAL                                                              *012 LM00034
                  WHENEVER CBUF(1).E.FNS.OR.CBUF(2).E.FNS                                         *013 LM00035
                    PRINT COMMENT $ARGUMENTS NAME1 NAME2 -'*'- ARGS$                              *014 LM00036
                    CHNCOM.(0)                                                                    *015 LM00037
                  END OF CONDITIONAL                                                              *016 LM00038
                  WHENEVER CBUF(3).E.$     *$                                                     *017 LM00039
                    TN2=0B                                                                        *018 LM00040
                    K=4                                                                           *019 LM00041
                    Q=1                                                                           *020 LM00042
                  OTHERWISE                                                                       *021 LM00043
                    TN2=1B                                                                        *022 LM00044
                    K=3                                                                           *023 LM00045
                    Q=2                                                                           *024 LM00046
                  END OF CONDITIONAL                                                              *025 LM00047
                  OPEN.($W$,N1,N2)                                                                *026 LM00048
                  BUFFER.(N1,N2,WBUF(432)...432)                                                  *027 LM00049
                                                                                                       LM00050
                  THROUGH WRLOOP, FOR I=K,Q,CBUF(I).E.FNS                                         *028 LM00051
                    FIL1=CBUF(I)                                                                  *029 LM00052
                    WHENEVER TN2                                                                  *030 LM00053
                      FIL2=CBUF(I+1)                                                              *031 LM00054
                      WHENEVER FIL2.E.FNS                                                         *032 LM00055
                        FIL2=N2                                                                   *033 LM00056
                        I=I-1                                                                     *034 LM00057
                      END OF CONDITIONAL                                                          *035 LM00058
                    OTHERWISE                                                                     *036 LM00059
                      FIL2=N2                                                                     *037 LM00060
                    END OF CONDITIONAL                                                            *038 LM00061
                    EXTFN(0).(N1,N2,FIL1,FIL2)                                                    *039 LM00062
      WRLOOP      CONTINUE                                                                        *040 LM00063
                                                                                                       LM00064
                  CLOSE.($ALL$,-0)                                                                *041 LM00065
                  CHNCOM.(0)                                                                      *042 LM00066
                                                                                                       LM00067
                  VECTOR VALUES FNS=777777777777K                                                 *043 LM00068
                                                                                                       LM00069
                  END OF PROGRAM                                                                  *044 LM00070
1MAD PROGRAM,TYPE NOV 1963      (ALL NUMBERS ARE OCTAL)
0TOTAL LOCATIONS   01114 TRANSFER VECTOR LENGTH  00014 PROGRAM BEGINS    00746
0VARIABLE STORAGE (A=ARRAY,C=COMMON,E=ERASABLE,DIGIT=MODE)
      CBUF   00041 A 1        FIL2   00044   1        K      00047   1        Q      00050   1        WBUF   00732 A 1
      EXTFN  00042   3        FNS    00045 A 1        N1     00040   1        TN2    00051   2        WRLOOP 00014   4
      FIL1   00043   1        I      00046   1        N2     00037   1
0FUNCTION DICTIONARY
      APPEND 00000   1        ARCHA  00001   1        BUFFER 00002   1        CHNCOM 00003   1        CLOSE  00004   1
      EXIT   00005   1        FERRTN 00006   1        GCLS   00007   1        IOERR  00010   1        .PCOMT 00011   1
      .SETUP 00012   1        OPEN   00013   1
0ABSOLUTE CONSTANTS
 00741 +214343606060     00740 +000000000660     00745 -266060606060     00735 +000000000002     00736 +000000000003
 00737 +000000000004     00744 -206060606054     00743 -202147254524     00733 +000000000000     00734 +000000000001
 00742 +233000000000
0PROGRAM
                 N'S INTEGER                                                        001  LM00022
                 FUNCTION NAME EXTFN                                                002  LM00023
                 D'N CBUF(20), WBUF(432)                                            003  LM00024
                 EQUIVALENCE (N1,CBUF(1)), (N2,CBUF(2))                             004  LM00025
                 BOOLEAN TN2                                                        005  LM00026
                 FERRTN.(IOERR.)                                                    006  LM00028
 00746 TSX +0 07400 4 00012    00747 TSX +0 07400 4 00006    00750 TXH +3 00000 0 00010
                 GCLS.(CBUF,0)                                                      007  LM00029
 00751 TSX +0 07400 4 00007    00752 TXH +3 00000 0 00041    00753 TXH +3 00000 0 00733
                 W'R CBUF(0).E.$ APEND$                                             008  LM00030
 00754 CLA +0 50000 0 00041    00755 SUB +0 40200 0 00743    00756 TNZ -0 10000 0 00762
                   EXTFN=APPEND.                                                    009  LM00031
 00757 CLA +0 50000 0 00000    00760 STO +0 60100 0 00042
                 O'E                                                                010  LM00032
 00761 TRA +0 02000 0 00764
                   EXTFN=ARCHA.                                                     011  LM00033
 00762 CLA +0 50000 0 00001    00763 STO +0 60100 0 00042
                 E'L                                                                012  LM00034
                 W'R CBUF(1).E.FNS.OR.CBUF(2).E.FNS                                 013  LM00035
 00764 CLA +0 50000 0 00037    00765 SUB +0 40200 0 00045    00766 TZE +0 10000 0 00772    00767 CLA +0 50000 0 00040
 00770 SUB +0 40200 0 00045    00771 TNZ -0 10000 0 01004
                   PRINT COMMENT $ARGUMENTS NAME1 NAME2 -'*'- ARGS$                 014  LM00036
 00772 TSX +0 07400 4 00011    00773     +0 00000 0 00006    00774     +2 15127 6 44425    00775     -0 56362 6 04521
 00776     -0 42501 6 04521    00777     -0 42502 6 04014    01000     -1 41440 6 02151    01001     +2 76260 6 06060
                   CHNCOM.(0)                                                       015  LM00037
 01002 TSX +0 07400 4 00003    01003 TXH +3 00000 0 00733
                 E'L                                                                016  LM00038
                 W'R CBUF(3).E.$     *$                                             017  LM00039
 01004 CLA +0 50000 0 00036    01005 SUB +0 40200 0 00744    01006 TNZ -0 10000 0 01016
                   TN2=0B                                                           018  LM00040
 01007 CLA +0 50000 0 00733    01010 STO +0 60100 0 00051
                   K=4                                                              019  LM00041
 01011 CLA +0 50000 0 00737    01012 STO +0 60100 0 00047
                   Q=1                                                              020  LM00042
 01013 CLA +0 50000 0 00734    01014 STO +0 60100 0 00050
                 O'E                                                                021  LM00043
 01015 TRA +0 02000 0 01024
                   TN2=1B                                                           022  LM00044
 01016 CLA +0 50000 0 00734    01017 STO +0 60100 0 00051
                   K=3                                                              023  LM00045
 01020 CLA +0 50000 0 00736    01021 STO +0 60100 0 00047
                   Q=2                                                              024  LM00046
 01022 CLA +0 50000 0 00735    01023 STO +0 60100 0 00050
                 E'L                                                                025  LM00047
                 OPEN.($W$,N1,N2)                                                   026  LM00048
 01024 TSX +0 07400 4 00013    01025 TXH +3 00000 0 00745    01026 TXH +3 00000 0 00040    01027 TXH +3 00000 0 00037
                 BUFFER.(N1,N2,WBUF(432)...432)                                     027  LM00049
 01030 TSX +0 07400 4 00002    01031 TXH +3 00000 0 00040    01032 TXH +3 00000 0 00037    01033 TIX +2 00740 0 00052
                 T'H WRLOOP, FOR I=K,Q,CBUF(I).E.FNS                                028  LM00051
 01034 CLA +0 50000 0 00047    01035 STO +0 60100 0 00046    01036 TRA +0 02000 0 01042    01037 CLA +0 50000 0 00046
 01040 ADD +0 40000 0 00050    01041 STO +0 60100 0 00046    01042 LXA +0 53400 1 00046    01043 CLA +0 50000 1 00041
 01044 SUB +0 40200 0 00045    01045 TZE +0 10000 0 01101
                   FIL1=CBUF(I)                                                     029  LM00052
 01046 LXA +0 53400 2 00046    01047 CLA +0 50000 2 00041    01050 STO +0 60100 0 00043
                   W'R TN2                                                          030  LM00053
 01051 NZT -0 52000 0 00051    01052 TRA +0 02000 0 01071
                     FIL2=CBUF(I+1)                                                 031  LM00054
 01053 CLA +0 50000 0 00046    01054 ADD +0 40000 0 00734    01055 PAX +0 73400 2 00000    01056 CLA +0 50000 2 00041
 01057 STO +0 60100 0 00044
                     W'R FIL2.E.FNS                                                 032  LM00055
 01060 CLA +0 50000 0 00044    01061 SUB +0 40200 0 00045    01062 TNZ -0 10000 0 01070
                       FIL2=N2                                                      033  LM00056
 01063 CLA +0 50000 0 00037    01064 STO +0 60100 0 00044
                       I=I-1                                                        034  LM00057
 01065 CLA +0 50000 0 00046    01066 SUB +0 40200 0 00734    01067 STO +0 60100 0 00046
                     E'L                                                            035  LM00058
                   O'E                                                              036  LM00059
 01070 TRA +0 02000 0 01073
                     FIL2=N2                                                        037  LM00060
 01071 CLA +0 50000 0 00037    01072 STO +0 60100 0 00044
                   E'L                                                              038  LM00061
                   EXTFN(0).(N1,N2,FIL1,FIL2)                                       039  LM00062
 01073 TSX +0 07400 4 00042    01074 TXH +3 00000 0 00040    01075 TXH +3 00000 0 00037    01076 TXH +3 00000 0 00043
 01077 TXH +3 00000 0 00044
      WRLOOP     CONTINUE                                                           040  LM00063
 01100 TRA +0 02000 0 01037
                 CLOSE.($ALL$,-0)                                                   041  LM00065
 01101 CLS +0 50200 0 00733    01102 STO +0 60100 0 01111    01103 TSX +0 07400 4 00004    01104 TXH +3 00000 0 00741
 01105 TXH +3 00000 0 01111
                 CHNCOM.(0)                                                         042  LM00066
 01106 TSX +0 07400 4 00003    01107 TXH +3 00000 0 00733
                 V'S FNS=777777777777K                                              043  LM00068
 00045     -3 77777 7 77777
                 END OF PROGRAM                                                     044  LM00070
 01110 TSX +0 07400 4 00005
1     MAD PROGRAM LISTING ... ... ...                 FILE   ARCHA   MAD            09/20/68    1746.4
-
                  ARCHA. - ARCHIV APPEND FUNCTION.                                                     LM00001
                                                                                                       LM00002
                  CALLING SEQUENCE IS                                                                  LM00003
                     ARCHA.(NAME1,NAME2,NAME3,NAME4)                                                   LM00004
                                                                                                       LM00005
                  ARCHA WILL APPEND NAME3 NAME4 TO FILE NAME1 NAME2,                                   LM00006
                  WITH ARCHIV FORMAT HEADER INSERTED.                                                  LM00007
                                                                                                       LM00008
                  EXTERNAL FUNCTION (N1,N2,N3,N4)                                                 *001 LM00009
                  NORMAL MODE IS INTEGER                                                          *002 LM00010
                                                                                                       LM00011
                  ENTRY TO ARCHA.                                                                 *003 LM00012
                  FSTATE.(N3,N4,LTH...1)                                                          *004 LM00013
                  DAYTIM.(DATE,TIME)                                                              *005 LM00014
                  MM=DATE.A.777700000000K                                                         *006 LM00015
                  DD=DATE.A.77770000K                                                             *007 LM00016
                  YY=DATE.A.7777K                                                                 *008 LM00017
                  HDR(8)=N4                                                                       *009 LM00018
                  HDR(9)=N3                                                                       *010 LM00019
                  HDR(7)=$ 00000$.V.(MM.RS.6).V.$000/00$.V.(DD.RS.12)                             *011 LM00020
                  HDR(6)=$/00000$.V.(YY.LS.18).V.$000 00$.V.(TIME.RS.24)                          *012 LM00021
                  HDR(5)=(TIME.LS.12).V.$0000  $                                                  *013 LM00022
                  HDR(4)=BZEL.(DEFBC.(LTH))                                                       *014 LM00023
                  WRWAIT.(N1,N2,0,HDR(14)...14,-0,-0)                                             *015 LM00024
                  APPEND.(N1,N2,N3,N4)                                                            *016 LM00025
                  FUNCTION RETURN                                                                 *017 LM00026
                                                                                                       LM00027
                  VECTOR VALUES HDR(14)=777777000000K                                             *018 LM00028
                  VECTOR VALUES HDR(13)=777777000000K                                             *019 LM00029
                  VECTOR VALUES HDR(12)=777777000000K                                             *020 LM00030
                  VECTOR VALUES HDR(11)=777777000000K                                             *021 LM00031
                  VECTOR VALUES HDR(10)=777777000011K                                             *022 LM00032
                  VECTOR VALUES HDR(9)=$NAME1$                                                    *023 LM00033
                  VECTOR VALUES HDR(8)=$NAME2$                                                    *024 LM00034
                  VECTOR VALUES HDR(7)=$ MM/DD$                                                   *025 LM00035
                  VECTOR VALUES HDR(6)=$/YY HH$                                                   *026 LM00036
                  VECTOR VALUES HDR(5)=$MM.M  $                                                   *027 LM00037
                  VECTOR VALUES HDR(4)=$NNNNNN$                                                   *028 LM00038
                  VECTOR VALUES HDR(3)=$      $                                                   *029 LM00039
                  VECTOR VALUES HDR(2)=$   000$                                                   *030 LM00040
                  VECTOR VALUES HDR(1)=$00    $                                                   *031 LM00041
                                                                                                       LM00042
                  END OF FUNCTION                                                                 *032 LM00043
1MAD PROGRAM,TYPE NOV 1963      (ALL NUMBERS ARE OCTAL)
0TOTAL LOCATIONS   00226 TRANSFER VECTOR LENGTH  00007 PROGRAM BEGINS    00055
0 PROGRAM IS AN EXTERNAL FUNCTION.   THE FOLLOWING ARE ENTRIES
      ARCHA  00056   0
0VARIABLE STORAGE (A=ARRAY,C=COMMON,E=ERASABLE,DIGIT=MODE)
      DATE   00010   1        HDR    00030 A 1        MM     00032   1        TIME   00033   1        YY     00034   1
      DD     00011   1        LTH    00031   1
0FUNCTION DICTIONARY
      APPEND 00000   1        BZEL   00001   1        DAYTIM 00002   1        DEFBC  00003   1        EXIT   00004   1
      FSTATE 00005   1        WRWAIT 00006   1
0ABSOLUTE CONSTANTS
 00041 +000000000016     00035 +000000000000     00044 +000000006060     00046 +000000600000     00053 -210000000000
 00042 +000000000022     00043 +000000000030     00047 +000000610000     00052 -200000000000     00037 +000000000006
 00040 +000000000014     00045 +000000007777     00050 +000077770000     00054 -377700000000     00036 +000000000001
 00051 +233000000000
0PROGRAM
                 EXTERNAL FUNCTION (N1,N2,N3,N4)                                    001  LM00009
                 N'S INTEGER                                                        002  LM00010
                 ENTRY TO ARCHA.                                                    003  LM00012
 00055 TRA +0 02000 0 00060    00056 SXA +0 63400 2 00174    00057 TSX +0 07400 2 00174
                 FSTATE.(N3,N4,LTH...1)                                             004  LM00013
 00060 TSX +0 07400 4 00005    00061 TXH +3 00000 0 00024    00062 TXH +3 00000 0 00024    00063 TIX +2 00036 0 00031
                 DAYTIM.(DATE,TIME)                                                 005  LM00014
 00064 TSX +0 07400 4 00002    00065 TXH +3 00000 0 00010    00066 TXH +3 00000 0 00033
                 MM=DATE.A.777700000000K                                            006  LM00015
 00067 CAL -0 50000 0 00010    00070 ANA -0 32000 0 00054    00071 SLW +0 60200 0 00032
                 DD=DATE.A.77770000K                                                007  LM00016
 00072 CAL -0 50000 0 00010    00073 ANA -0 32000 0 00050    00074 SLW +0 60200 0 00011
                 YY=DATE.A.7777K                                                    008  LM00017
 00075 CAL -0 50000 0 00010    00076 ANA -0 32000 0 00045    00077 SLW +0 60200 0 00034
                 HDR(8)=N4                                                          009  LM00018
 00100 CLA +0 50000 0 00024    00101 STO +0 60100 0 00020
                 HDR(9)=N3                                                          010  LM00019
 00102 CLA +0 50000 0 00024    00103 STO +0 60100 0 00017
                 HDR(7)=$ 00000$.V.(MM.RS.6).V.$000/00$.V.(DD.RS.12)                011  LM00020
 00104 CAL -0 50000 0 00040    00105 STA +0 62100 0 00107    00106 CAL -0 50000 0 00011    00107 LGR -0 76500 0 00000
 00110 SLW +0 60200 0 00222    00111 CAL -0 50000 0 00037    00112 STA +0 62100 0 00114    00113 CAL -0 50000 0 00032
 00114 LGR -0 76500 0 00000    00115 ORA -0 50100 0 00052    00116 ORA -0 50100 0 00047    00117 ORA -0 50100 0 00222
 00120 SLW +0 60200 0 00021
                 HDR(6)=$/00000$.V.(YY.LS.18).V.$000 00$.V.(TIME.RS.24)             012  LM00021
 00121 CAL -0 50000 0 00043    00122 STA +0 62100 0 00124    00123 CAL -0 50000 0 00033    00124 LGR -0 76500 0 00000
 00125 SLW +0 60200 0 00222    00126 CAL -0 50000 0 00042    00127 STA +0 62100 0 00131    00130 CAL -0 50000 0 00034
 00131 ALS +0 76700 0 00000    00132 ORA -0 50100 0 00053    00133 ORA -0 50100 0 00046    00134 ORA -0 50100 0 00222
 00135 SLW +0 60200 0 00022
                 HDR(5)=(TIME.LS.12).V.$0000  $                                     013  LM00022
 00136 CAL -0 50000 0 00040    00137 STA +0 62100 0 00141    00140 CAL -0 50000 0 00033    00141 ALS +0 76700 0 00000
 00142 ORA -0 50100 0 00044    00143 SLW +0 60200 0 00023
                 HDR(4)=BZEL.(DEFBC.(LTH))                                          014  LM00023
 00144 TSX +0 07400 4 00003    00145 TXH +3 00000 0 00031    00146 STO +0 60100 0 00222    00147 TSX +0 07400 4 00001
 00150 TXH +3 00000 0 00222    00151 STO +0 60100 0 00024
                 WRWAIT.(N1,N2,0,HDR(14)...14,-0,-0)                                015  LM00024
 00152 CLS +0 50200 0 00035    00153 STO +0 60100 0 00222    00154 CLS +0 50200 0 00035    00155 STO +0 60100 0 00223
 00156 TSX +0 07400 4 00006    00157 TXH +3 00000 0 00024    00160 TXH +3 00000 0 00024    00161 TXH +3 00000 0 00035
 00162 TIX +2 00041 0 00012    00163 TXH +3 00000 0 00223    00164 TXH +3 00000 0 00222
                 APPEND.(N1,N2,N3,N4)                                               016  LM00025
 00165 TSX +0 07400 4 00000    00166 TXH +3 00000 0 00024    00167 TXH +3 00000 0 00024    00170 TXH +3 00000 0 00024
 00171 TXH +3 00000 0 00024
                 FUNCTION RETURN                                                    017  LM00026
 00172 TRA +0 02000 0 00216
                 V'S HDR(14)=777777000000K                                          018  LM00028
 00012     -3 77777 0 00000
                 V'S HDR(13)=777777000000K                                          019  LM00029
 00013     -3 77777 0 00000
                 V'S HDR(12)=777777000000K                                          020  LM00030
 00014     -3 77777 0 00000
                 V'S HDR(11)=777777000000K                                          021  LM00031
 00015     -3 77777 0 00000
                 V'S HDR(10)=777777000011K                                          022  LM00032
 00016     -3 77777 0 00011
                 V'S HDR(9)=$NAME1$                                                 023  LM00033
 00017     -0 52144 2 50160
                 V'S HDR(8)=$NAME2$                                                 024  LM00034
 00020     -0 52144 2 50260
                 V'S HDR(7)=$ MM/DD$                                                025  LM00035
 00021     -2 04444 6 12424
                 V'S HDR(6)=$/YY HH$                                                026  LM00036
 00022     -2 17070 6 03030
                 V'S HDR(5)=$MM.M  $                                                027  LM00037
 00023     -0 44433 4 46060
                 V'S HDR(4)=$NNNNNN$                                                028  LM00038
 00024     -0 54545 4 54545
                 V'S HDR(3)=$      $                                                029  LM00039
 00025     -2 06060 6 06060
                 V'S HDR(2)=$   000$                                                030  LM00040
 00026     -2 06060 0 00000
                 V'S HDR(1)=$00    $                                                031  LM00041
 00027     +0 00060 6 06060
                 END OF FUNCTION                                                    032  LM00043
 00173 TSX +0 07400 4 00004    00174 TXH +3 00000 0 00000    00175 SXD -0 63400 1 00174    00176 SXA +0 63400 4 00216
 00177 CLA +0 50000 4 00001    00200 STO +0 60100 0 00157    00201 STO +0 60100 0 00166    00202 CLA +0 50000 4 00002
 00203 STO +0 60100 0 00160    00204 STO +0 60100 0 00167    00205 CLA +0 50000 4 00003    00206 STO +0 60100 0 00061
 00207 STA +0 62100 0 00102    00210 STO +0 60100 0 00170    00211 CLA +0 50000 4 00004    00212 STO +0 60100 0 00062
 00213 STA +0 62100 0 00100    00214 STO +0 60100 0 00171    00215 TRA +0 02000 2 00001    00216 AXT +0 77400 4 00000
 00217 LXA +0 53400 2 00174    00220 LXD -0 53400 1 00174    00221 TRA +0 02000 4 00001
1     MAD PROGRAM LISTING ... ... ...                 FILE  APPEND   MAD            09/20/68    1746.7
-
                  APPEND. - APPEND FILE.                                                               LM00001
                                                                                                       LM00002
                  CALLING SEQUENCE IS                                                                  LM00003
                     APPEND.(NAME1,NAME2,NAME3,NAME4)                                                  LM00004
                                                                                                       LM00005
                  APPENDS NAME3 NAME4 TO FILE NAME1 NAME2.                                             LM00006
                  NAME1 NAME2 IS ASSUMED OPEN FOR WRITING                                              LM00007
                  AND BUFFERED.                                                                        LM00008
                                                                                                       LM00009
                  EXTERNAL FUNCTION (N1,N2,N3,N4)                                                 *001 LM00010
                  NORMAL MODE IS INTEGER                                                          *002 LM00011
                  DIMENSION BUF(864)                                                              *003 LM00012
                                                                                                       LM00013
                  ENTRY TO APPEND.                                                                *004 LM00014
                  OPEN.($R$,N3,N4,-0,-0)                                                          *005 LM00015
      RD          RDWAIT.(N3,N4,0,BUF(864)...864,EOF,CT)                                          *006 LM00016
                  WRWAIT.(N1,N2,0,BUF(864)...864,-0,-0)                                           *007 LM00017
                  TRANSFER TO RD                                                                  *008 LM00018
      EOF         WHENEVER CT.NE.0, WRWAIT.(N1,N2,0,BUF(864)...CT,-0,-0)                          *009 LM00019
                  CLOSE.(N3,N4)                                                                   *010 LM00020
                  FUNCTION RETURN                                                                 *011 LM00021
                                                                                                       LM00022
                  END OF FUNCTION                                                                 *012 LM00023
1MAD PROGRAM,TYPE NOV 1963      (ALL NUMBERS ARE OCTAL)
0TOTAL LOCATIONS   01674 TRANSFER VECTOR LENGTH  00005 PROGRAM BEGINS    01557
0 PROGRAM IS AN EXTERNAL FUNCTION.   THE FOLLOWING ARE ENTRIES
      APPEND 01560   0
0VARIABLE STORAGE (A=ARRAY,C=COMMON,E=ERASABLE,DIGIT=MODE)
      BUF    01550 A 1        CT     01551   1        EOF    00006   4        RD     00007   4
0FUNCTION DICTIONARY
      CLOSE  00000   1        EXIT   00001   1        OPEN   00002   1        RDWAIT 00003   1        WRWAIT 00004   1
0ABSOLUTE CONSTANTS
 01554 +000000001540     01556 -116060606060     01552 +000000000000     01553 +000000000001     01555 +233000000000
0STATEMENT DICTIONARY
 00006 TXL -301635001617       00007 TXL -301603001574
0PROGRAM
                 EXTERNAL FUNCTION (N1,N2,N3,N4)                                    001  LM00010
                 N'S INTEGER                                                        002  LM00011
                 D'N BUF(864)                                                       003  LM00012
                 ENTRY TO APPEND.                                                   004  LM00014
 01557 TRA +0 02000 0 01562    01560 SXA +0 63400 2 01642    01561 TSX +0 07400 2 01642
                 OPEN.($R$,N3,N4,-0,-0)                                             005  LM00015
 01562 CLS +0 50200 0 01552    01563 STO +0 60100 0 01670    01564 CLS +0 50200 0 01552    01565 STO +0 60100 0 01671
 01566 TSX +0 07400 4 00002    01567 TXH +3 00000 0 01556    01570 TXH +3 00000 0 00024    01571 TXH +3 00000 0 00024
 01572 TXH +3 00000 0 01671    01573 TXH +3 00000 0 01670
      RD         RDWAIT.(N3,N4,0,BUF(864)...864,EOF,CT)                             006  LM00016
 01574 TSX +0 07400 4 00003    01575 TXH +3 00000 0 00024    01576 TXH +3 00000 0 00024    01577 TXH +3 00000 0 01552
 01600 TIX +2 01554 0 00010    01601 TXH +3 00000 0 00006    01602 TXH +3 00000 0 01551
                 WRWAIT.(N1,N2,0,BUF(864)...864,-0,-0)                              007  LM00017
 01603 CLS +0 50200 0 01552    01604 STO +0 60100 0 01671    01605 CLS +0 50200 0 01552    01606 STO +0 60100 0 01670
 01607 TSX +0 07400 4 00004    01610 TXH +3 00000 0 00024    01611 TXH +3 00000 0 00024    01612 TXH +3 00000 0 01552
 01613 TIX +2 01554 0 00010    01614 TXH +3 00000 0 01670    01615 TXH +3 00000 0 01671
                 T'O RD                                                             008  LM00018
 01616 TRA +0 02000 0 00007
      EOF        W'R CT.NE.0, WRWAIT.(N1,N2,0,BUF(864)...CT,-0,-0)                  009  LM00019
 01617 CLA +0 50000 0 01551    01620 SUB +0 40200 0 01552    01621 TZE +0 10000 0 01635    01622 CLS +0 50200 0 01552
 01623 STO +0 60100 0 01671    01624 CLS +0 50200 0 01552    01625 STO +0 60100 0 01670    01626 TSX +0 07400 4 00004
 01627 TXH +3 00000 0 00024    01630 TXH +3 00000 0 00024    01631 TXH +3 00000 0 01552    01632 TIX +2 01551 0 00010
 01633 TXH +3 00000 0 01670    01634 TXH +3 00000 0 01671
                 CLOSE.(N3,N4)                                                      010  LM00020
 01635 TSX +0 07400 4 00000    01636 TXH +3 00000 0 00024    01637 TXH +3 00000 0 00024
                 FUNCTION RETURN                                                    011  LM00021
 01640 TRA +0 02000 0 01664
                 END OF FUNCTION                                                    012  LM00023
 01641 TSX +0 07400 4 00001    01642 TXH +3 00000 0 00000    01643 SXD -0 63400 1 01642    01644 SXA +0 63400 4 01664
 01645 CLA +0 50000 4 00001    01646 STO +0 60100 0 01610    01647 STO +0 60100 0 01627    01650 CLA +0 50000 4 00002
 01651 STO +0 60100 0 01611    01652 STO +0 60100 0 01630    01653 CLA +0 50000 4 00003    01654 STO +0 60100 0 01570
 01655 STO +0 60100 0 01575    01656 STO +0 60100 0 01636    01657 CLA +0 50000 4 00004    01660 STO +0 60100 0 01571
 01661 STO +0 60100 0 01576    01662 STO +0 60100 0 01637    01663 TRA +0 02000 2 00001    01664 AXT +0 77400 4 00000
 01665 LXA +0 53400 2 01642    01666 LXD -0 53400 1 01642    01667 TRA +0 02000 4 00001
1            DUMMY I/O ERROR RETURN - EXITS VIA PRNTER.                                          PAGE 1

                                     PCC     ON
                                     NOLNK
                       00000         ENTRY   IOERR
                                     LBL     IOCHN
                                     PCC     OFF


                              *
                              *  ERROR RETURN MAY BE SET BY 'FERRTN.(IOERR.)'
                              *

      00000  0074 00 4 00006  IOERR  TSX     CLOSE,4       CLOSE ALL FILES.
 TD   00001  3 00000 0 00007         TXH     =HALL
 TD   00002  3 00000 0 00011         TXH     =-0

      00003 -0500 00 0 00014         CAL     =HPRNTER
      00004  0560 00 0 00012         LDQ     =O-71         DON'T WASTE WORDS.
      00005  0101 00 0 00013         TIA     =HNEXCOM      GO AWAY QUIETLY.

      00006  0101 00 0 00010  CLOSE  TIA     =HCLOSE
                                     END

        LITERALS
      00007  214343606060
      00010  234346622560
      00011  400000000000
      00012  400000000071
      00013  452567234644
      00014  475145632551
1            DUMMY I/O ERROR RETURN - EXITS VIA PRNTER.                                          PAGE 1
                        POST PROCESSOR ASSEMBLY DATA

         15 IS THE FIRST LOCATION NOT USED BY THIS PROGRAM

0REFERENCES TO DEFINED SYMBOLS
          6  CLOSE     0
          0  IOERR     0

0 NO ERROR IN ABOVE ASSEMBLY.
1            DAYTIM. - GIVE DATE AND TIME MMDDYY HHMM.M                                          PAGE 1

                                     PCC     ON
                                     NOLNK
                       00000         ENTRY   DAYTIM
                                     LBL     TIME
                                     PCC     OFF


                              *
                              *  CALLING SEQUENCE IS
                              *      TSX     DAYTIM,4
                              *      TXH     DATE
                              *      TXH     TIME
                              *
      00000  0636 00 4 00036  DAYTIM SCA     TX4,4         SAVE XR4.
      00001  0074 00 4 00043         TSX     GETIME,4      GET DATE AND TIME.
      00002  0602 00 0 00042         SLW     TIME          ..
      00003  0535 00 4 00036         LAC     TX4,4         RESTORE XR4.
      00004 -0600 60 4 00001         STQ*    1,4           RETURN DATE.
      00005  0560 00 0 00042         LDQ     TIME          CONVERT TIME.
      00006 -0754 00 0 00000         ZAC                   ..
      00007  0221 00 0 00047         DVP     =360          GET RID OF SMALL FRACTIONS.
      00010 -0754 00 0 00000         ZAC                   ..
      00011  0221 00 0 00045         DVP     =10           GET 1/10 MIN.
      00012 -0501 00 0 00050         ORA     =O3300        ..
      00013  0602 00 0 00041         SLW     HHMM.M        ..
      00014 -0754 00 0 00000         ZAC                   ..
      00015  0221 00 0 00045         DVP     =10           GET SINGLE MIN.
      00016  0767 00 0 00014         ALS     12            SHIFT TO POSITION.
      00017 -0602 00 0 00041         ORS     HHMM.M        ..
      00020 -0754 00 0 00000         ZAC                   ..
      00021  0221 00 0 00044         DVP     =6            GET 10'S MIN.
      00022  0767 00 0 00022         ALS     18            SHIFT.
      00023 -0602 00 0 00041         ORS     HHMM.M        ..
      00024 -0754 00 0 00000         ZAC                   ..
      00025  0221 00 0 00046         DVP     =24           ONLY 24 HRS.
      00026  0131 00 0 00000         XCA                   ..
      00027 -0754 00 0 00000         ZAC                   ..
      00030  0221 00 0 00045         DVP     =10           GET SINGLE HRS.
      00031  0767 00 0 00030         ALS     24            SHIFT.
      00032 -0602 00 0 00041         ORS     HHMM.M        ..
      00033  0131 00 0 00000         XCA                   10'S OF HRS ARE LEFT.
      00034  0767 00 0 00036         ALS     30            SHIFT.
      00035 -0501 00 0 00041         ORA     HHMM.M        OR IN REST OF TIME.
      00036 -0774 00 4 00000  TX4    AXC     -,4           ..
      00037  0602 60 4 00002         SLW*    2,4           ..
      00040  0020 00 4 00003         TRA     3,4           RETURN.


      00041  0 00000 0 00000  HHMM.M PZE
      00042  0 00000 0 00000  TIME   PZE

      00043  0101 00 0 00051  GETIME TIA     =HGETIME

                                     END
1            DAYTIM. - GIVE DATE AND TIME MMDDYY HHMM.M                                          PAGE 2

        LITERALS
      00044  000000000006
      00045  000000000012
      00046  000000000030
      00047  000000000550
      00050  000000003300
      00051  272563314425
1            DAYTIM. - GIVE DATE AND TIME MMDDYY HHMM.M                                          PAGE 1
                        POST PROCESSOR ASSEMBLY DATA

         52 IS THE FIRST LOCATION NOT USED BY THIS PROGRAM

0REFERENCES TO DEFINED SYMBOLS
         36    TX4     0,    3
         42   TIME     2,    5
          0 DAYTIM     0
         43 GETIME     1
         41 HHMM.M    13,   17,   23,   32,   35

0 NO ERROR IN ABOVE ASSEMBLY.


ARCHIV   BCD 02/08/69 2405.0   40680         00000
1     MAD PROGRAM LISTING ... ... ...                 FILE   ARCHV   MAD            11/25/68    2032.6
-
                                                                                                       LM00001
                  ARCHIV COMMAND--DON WAGNER 9 SEPT 1965                                               LM00002
                    MODIFIED BY R. ROACH 9/27/68                                                       LM00003
                                                                                                       LM00004
                                                                                                       LM00005
                  LOADING-- 'ARCHV MAD' HAS TWO INSERTS,                                               LM00006
                  'ASUBS MAD' AND 'AFORM MAD'.                                                         LM00007
                      MAD ARCHV                                                                        LM00008
                      LAED NCLOAD ARCHV (SRCH) XLIBE                                                   LM00009
                      SAVE ARCHIV                                                                      LM00010
                      RENAME ARCHIV SAVED ARCHIV TSSDC.                                                LM00011
                                                                                                       LM00012
                  INITIALIZATION                                                                       LM00013
                                                                                                       LM00014
                  WHENEVER COMARG.(1).A.77K.E.77K                                                 *001 LM00015
                       PRMESS.( $ARCHIV KEY NM1 NM2 FL1 FL2 ...$)                                 *002 LM00016
                    PRMESS.($WHERE KEY = COMBIN, TABLE, PRINT, DELETE, REPLAC$)                   *003 LM00017
                       PRMESS.($XTRACT, OR UPDATE$)                                               *004 LM00018
                       PRMESS.($ALL KEYS MAY BE ABBREVIATED BY FIRST LETTER.$)                    *005 LM00019
      OUT              CHNCOM.(0)                                                                 *006 LM00020
                  END OF CONDITIONAL                                                              *007 LM00021
                  KEY=COMARG.(1)                                                                  *008 LM00022
                  WHENEVER KEY .E. $  TOFF$                                                       *009 LM00023
                    TOFF = 1B                                                                     *010 LM00024
                    BOOLEAN TOFF                                                                  *011 LM00025
                    VECTOR VALUES TOFF = 0B                                                       *012 LM00026
                    KEY = $     T$                                                                *013 LM00027
                  END OF CONDITIONAL                                                              *014 LM00028
                  WHENEVER KEY .E. $   TON$                                                       *015 LM00029
                     TON = 1B                                                                     *016 LM00030
                     KEY = $     T$                                                               *017 LM00031
                     BOOLEAN TON                                                                  *018 LM00032
                      VECTOR VALUES TON = 0B                                                      *019 LM00033
                  END OF CONDITIONAL                                                              *020 LM00034
                  NM1=COMARG.(2)                                                                  *021 LM00035
                  NM2=COMARG.(3)                                                                  *022 LM00036
                  SETBRK.(OUT)                                                                    *023 LM00037
                                                                                                       LM00038
                  GETTM.(DATE,TIME)                                                               *024 LM00039
                    DIMENSION ANAM(2)                                                             *025 LM00040
                    EQUIVALENCE (NM1,ANAM(0)), (NM2,ANAM(1))                                      *026 LM00041
                  WHENEVER NM1.A.77K.E.77K .OR. NM2.A.77K.E.77K                                   *027 LM00042
                       PRMESS.($NOT ENOUGH ARGUMENTS$)                                            *028 LM00043
                       CHNCOM.(0)                                                                 *029 LM00044
                  END OF CONDITIONAL                                                              *030 LM00045
                                                                                                       LM00046
                  FILTAB IS A TABLE OF SPECIFIED FILES.                                                LM00047
                  FILTAB(0) CONTAINS COUNT.                                                            LM00048
                                                                                                       LM00049
                  WHENEVER NM2.E.$SOURCE$.OR.NM2.E.$ARCHIV$                                       *031 LM00050
                     NAMTYP=1B                                                                    *032 LM00051
                     THROUGH IN00, FOR FILTAB=0,2,COMARG.(FILTAB+4).A.77K.E.77K                   *033 LM00052
                1       .OR.FILTAB.E.FILTBZ                                                       *033 LM00053
                     FILTAB(FILTAB+1)=COMARG.(FILTAB+4)                                           *034 LM00054
                     WHENEVER COMARG.(FILTAB+5).A.77K.E.77K                                       *035 LM00055
                     PRMESS.( $LAST ARGUMENT INCOMPLETE, RETYPE REQUEST$)                         *036 LM00056
                     CHNCOM.(0)                                                                   *037 LM00057
                     OTHERWISE                                                                    *038 LM00058
                        FILTAB(FILTAB+2)=COMARG.(FILTAB+5)                                        *039 LM00059
                     END OF CONDITIONAL                                                           *040 LM00060
      IN00           CONTINUE                                                                     *041 LM00061
                  OTHERWISE                                                                       *042 LM00062
                     NAMTYP=0B                                                                    *043 LM00063
                     THROUGH IN01, FOR FILTAB=0,1,COMARG.(FILTAB+4).A.77K.E.77K                   *044 LM00064
                1       .OR. FILTAB.E.FILTBZ                                                      *044 LM00065
      IN01        FILTAB(FILTAB+1)=COMARG.(FILTAB+4)                                              *045 LM00066
                  END OF CONDITIONAL                                                              *046 LM00067
                                                                                                       LM00068
                  TEMPORARY FILE NAME IS PROB PROG                                                     LM00069
                                                                                                       LM00070
                  WHOAMI.(WHBUF(8)...8)                                                           *047 LM00071
                    DIMENSION WHBUF(8)                                                            *048 LM00072
                    DIMENSION TFIL(2)                                                             *049 LM00073
                  TM1=WHBUF(8)                                                                    *050 LM00074
                  TM2=WHBUF(7)                                                                    *051 LM00075
                    EQUIVALENCE (TM1,TFIL(0)), (TM2,TFIL(1))                                      *052 LM00076
                                                                                                       LM00077
                  COMBIN--MAKE ORIGINAL ARCHIV                                                         LM00078
                                                                                                       LM00079
                  WHENEVER KEY.E.$COMBIN$ .OR. KEY.E.$     C$                                     *053 LM00080
                  FSTATE.(NM1,NM2,FSBUF(8)...8,CM01)                                              *054 LM00081
                  WHENEVER NAMTYP                                                                 *055 LM00082
                  THROUGH CMP1A, FOR I=1,2,I.G.FILTAB                                             *056 LM00083
      CMP1A       WHENEVER FILTAB(I).E.NM1.AND.FILTAB(I+1).E.NM2, TRANSFER TO CM01                *057 LM00084
                  OTHERWISE                                                                       *058 LM00085
                  THROUGH CMP1B, FOR I = 1,1,I.G.FILTAB                                           *059 LM00086
      CMP1B       WHENEVER FILTAB(I).E.NM1, TRANSFER TO CM01                                      *060 LM00087
                  END OF CONDITIONAL                                                              *061 LM00088
                  PRMESS.($ YOU HAVE NOT INCLUDED THE OLD$,NM1,NM2,$.$)                           *062 LM00089
                  PRMESA.($ IS THIS OK,$)                                                         *063 LM00090
                  WHENEVER .NOT. YES.(0), TRANSFER TO FORGET                                      *064 LM00091
      CM01        CONTINUE                                                                        *065 LM00092
                  WHENEVER NAMTYP                                                                 *066 LM00093
                  THROUGH CM03A, FOR FILTBP=1,2,FILTBP.G.FILTAB                                   *067 LM00094
                  WHENEVER .NOT.CPFIL.(FILTAB(FILTBP),FILTAB(FILTBP+1)),                          *068 LM00095
                1    PRNTER.(61K)                                                                 *068 LM00096
      CM03A       CONTINUE                                                                        *069 LM00097
                  OTHERWISE                                                                       *070 LM00098
                  THROUGH CM03, FOR FILTBP=1,1,FILTBP.G.FILTAB                                    *071 LM00099
                  WHENEVER .NOT. CPFIL.(FILTAB(FILTBP),NM2),                                      *072 LM00100
                1    PRNTER.(61K)                                                                 *072 LM00101
      CM03        CONTINUE                                                                        *073 LM00102
                  END OF CONDITIONAL                                                              *074 LM00103
                  WHENEVER TMOPSW, CLS.(NM1,NM2)                                                  *075 LM00104
                  TRANSFER TO EXT                                                                 *076 LM00105
      FORGET      PRMESS.($NOTHING DONE.$)                                                        *077 LM00106
                  CHNCOM.(0)                                                                      *078 LM00107
                                                                                                       LM00108
                  TABLE--PRINT TABLE OF CONTENTS.                                                      LM00109
                                                                                                       LM00110
                  OR WHENEVER KEY.E.$ TABLE$ .OR. KEY.E.$     T$                                  *079 LM00111
                  COPYSW=0B                                                                       *080 LM00112
                  PRSSW=0B                                                                        *081 LM00113
                  VECTOR VALUES BL = 605757575757K                                                *082 LM00114
                  VECTOR VALUES CR = 555757575757K                                                *083 LM00115
      TB01        WHENEVER FILTAB.E.0                                                             *084 LM00116
                            GNEXT.(TFNF)                                                          *085 LM00117
                     WHENEVER FIRST                                                               *086 LM00118
                        FIRST = 0B                                                                *087 LM00119
                        WHENEVER TOFF, OFF.($ARCHIV$,$OUTPUT$)                                    *088 LM00120
                        WHENEVER TON, OFFON.($ARCHIV$,$OUTPUT$)                                   *089 LM00121
                            PRMESS.                                                               *090 LM00122
                        PRMESS.($ ***$,NM1,BL,NM2,BL,BL,DATE,BL,TIME)                             *091 LM00123
                       PRMESS.                                                                    *092 LM00124
                     END OF CONDITIONAL                                                           *093 LM00125
                  BOOLEAN FIRST                                                                   *094 LM00126
                  VECTOR VALUES FIRST = 1B                                                        *095 LM00127
                  OTHERWISE                                                                       *096 LM00128
                       SEARCH.(TFNF)                                                              *097 LM00129
                        WHENEVER FIRST                                                            *098 LM00130
                       FIRST = 0B                                                                 *099 LM00131
                            WHENEVER TOFF, OFF.($ARCHIV$,$OUTPUT$)                                *100 LM00132
                            WHENEVER TON, OFFON.($ARCHIV$,$OUTPUT$)                               *101 LM00133
                       END OF CONDITIONAL                                                         *102 LM00134
                  END OF CONDITIONAL                                                              *103 LM00135
                  TEMP = INF2-INF1                                                                *104 LM00136
                  PRMESS.(BL,PRLNMK(INF1),BL,PRLNMK(INF1-1)...TEMP)                               *105 LM00137
                  TRANSFER TO TB01                                                                *106 LM00138
                                                                                                       LM00139
      TFNF        PRMESS.                                                                         *107 LM00140
                  TRANSFER TO FNF                                                                 *108 LM00141
                                                                                                       LM00142
                  DELETE--REMOVE ENTRIES                                                               LM00143
                                                                                                       LM00144
                  OR WHENEVER KEY.E.$DELETE$ .OR. KEY.E.$     D$                                  *109 LM00145
      DL01        COPYSW=1B                                                                       *110 LM00146
                  PRSSW=1B                                                                        *111 LM00147
                  WMRKSW=1B                                                                       *112 LM00148
                  SEARCH.(REN)                                                                    *113 LM00149
                  COPYSW=0B                                                                       *114 LM00150
                  GNEXT.(REN)                                                                     *115 LM00151
                  TRANSFER TO DL01                                                                *116 LM00152
                                                                                                       LM00153
                  XTRACT-                                                                              LM00154
                                                                                                       LM00155
                  OR WHENEVER KEY.E.$XTRACT$ .OR. KEY.E.$     X$ .OR. KEY.E.$    XT$              *117 LM00156
      XT01        COPYSW=0B                                                                       *118 LM00157
                  PRSSW=1B                                                                        *119 LM00158
                  WHENEVER FILTAB.NE.0                                                            *120 LM00159
                       SEARCH.(FNF)                                                               *121 LM00160
                  OTHERWISE                                                                       *122 LM00161
                       WHENEVER .NOT. GOTNXT, GNEXT.(FNF)                                         *123 LM00162
                  END OF CONDITIONAL                                                              *124 LM00163
                  NW1=FLN1.(PRLNMK)                                                               *125 LM00164
                  NW2=FLN2.(PRLNMK)                                                               *126 LM00165
                  COPYSW=1B                                                                       *127 LM00166
                  WMRKSW=0B                                                                       *128 LM00167
                  GNEXT.(XT02)                                                                    *129 LM00168
                  GOTNXT=1B                                                                       *130 LM00169
                  TRANSFER TO XT03                                                                *131 LM00170
      XT02        NAMO=1B                                                                         *132 LM00171
      XT03        WHENEVER CLS.(NW1,NW2)                                                          *133 LM00172
                       WHENEVER KEY.E.$    XT$, CHFILE.(NW1,NW2,001K,-0,-0)                       *134 LM00173
                  END OF CONDITIONAL                                                              *135 LM00174
                  WHENEVER NAMO,TRANSFER TO FNF                                                   *136 LM00175
                  TRANSFER TO XT01                                                                *137 LM00176
                                                                                                       LM00177
                  REPLAC                                                                               LM00178
                                                                                                       LM00179
                  OR WHENEVER KEY.E.$REPLAC$ .OR. KEY.E.$     R$ .OR. KEY.E.$    RD$              *138 LM00180
      RP01        COPYSW=1B                                                                       *139 LM00181
                  PRSSW=1B                                                                        *140 LM00182
                  WMRKSW=1B                                                                       *141 LM00183
                  WHENEVER FILTAB.NE.0                                                            *142 LM00184
                       SEARCH.(RP02)                                                              *143 LM00185
                  OTHERWISE                                                                       *144 LM00186
                       WHENEVER .NOT. GOTNXT, GNEXT.(RP02)                                        *145 LM00187
                  END OF CONDITIONAL                                                              *146 LM00188
                  GOTNXT=0B                                                                       *147 LM00189
                  WHENEVER .NOT. CPFIL.(FLN1.(PRLNMK),FLN2.(PRLNMK))                              *148 LM00190
                       PRNTER.(61K)                                                               *149 LM00191
                       COPYSW=1B                                                                  *150 LM00192
                  OTHERWISE                                                                       *151 LM00193
                  WHENEVER DELST.L.DELSTZ                                                         *152 LM00194
                       DELST=DELST+1                                                              *153 LM00195
                       DELST1(DELST)=FLN1.(PRLNMK)                                                *154 LM00196
                       DELST2(DELST)=FLN2.(PRLNMK)                                                *155 LM00197
                  END OF CONDITIONAL                                                              *156 LM00198
                       COPYSW=0B                                                                  *157 LM00199
                  END OF CONDITIONAL                                                              *158 LM00200
                  GNEXT.(RP02)                                                                    *159 LM00201
                  GOTNXT=1B                                                                       *160 LM00202
                  TRANSFER TO RP01                                                                *161 LM00203
      RP02        WHENEVER NAMTYP                                                                 *162 LM00204
                     TYP=1                                                                        *163 LM00205
                  OTHERWISE                                                                       *164 LM00206
                     TYP=0                                                                        *165 LM00207
                  END OF CONDITIONAL                                                              *166 LM00208
                  THROUGH RP03, FOR JI=1,1,JI+TYP*(JI-1).G.FILTAB                                 *167 LM00209
                  WHENEVER NAMTYP                                                                 *168 LM00210
                     JJ=2*JI-1                                                                    *169 LM00211
                     CNM2=FILTAB(JJ+1)                                                            *170 LM00212
                  OTHERWISE                                                                       *171 LM00213
                     JJ=JI                                                                        *172 LM00214
                     CNM2=NM2                                                                     *173 LM00215
                  END OF CONDITIONAL                                                              *174 LM00216
                  WHENEVER .NOT. FILFND(JI)                                                       *175 LM00217
                  PRMESS.(FILTAB(JJ),BL,CNM2,$ ADDED$,606346605757K,NM1,BL,NM2)                   *176 LM00218
                       WHENEVER .NOT. CPFIL.(FILTAB(JJ),CNM2)                                     *177 LM00219
                            PRNTER.(61K)                                                          *178 LM00220
                       OTHERWISE                                                                  *179 LM00221
                            FILFND(JI)=1B                                                         *180 LM00222
                       WHENEVER DELST.L.DELSTZ                                                    *181 LM00223
                            DELST=DELST+1                                                         *182 LM00224
                            DELST1(DELST)=FILTAB(JJ)                                              *183 LM00225
                            DELST2(DELST)=CNM2                                                    *184 LM00226
                       END OF CONDITIONAL                                                         *185 LM00227
                       END OF CONDITIONAL                                                         *186 LM00228
      RP03        END OF CONDITIONAL                                                              *187 LM00229
                  WHENEVER CLS.(NM1,NM2)                                                          *188 LM00230
                  WHENEVER KEY.E.$    RD$                                                         *189 LM00231
                       THROUGH RPD01, FOR I=1,1,I.G.DELST                                         *190 LM00232
      RPD01                 DELT.(DELST1(I),DELST2(I))                                            *191 LM00233
                  END OF CONDITIONAL                                                              *192 LM00234
                  END OF CONDITIONAL                                                              *193 LM00235
                  TRANSFER TO EXT                                                                 *194 LM00236
                  BOOLEAN GOTNXT                                                                  *195 LM00237
                  DIMENSION DELST1(100), DELST2(100)                                              *196 LM00238
                  VECTOR VALUES DELSTZ=100                                                        *197 LM00239
                                                                                                       LM00240
                  UPDATE--CONDITIONAL REPLAC                                                           LM00241
                                                                                                       LM00242
                  OR WHENEVER KEY.E.$UPDATE$ .OR. KEY.E.$     U$                                  *198 LM00243
      UP01        COPYSW=1B                                                                       *199 LM00244
                  PRSSW=1B                                                                        *200 LM00245
                  WMRKSW=1B                                                                       *201 LM00246
                  WHENEVER FILTAB.NE.0                                                            *202 LM00247
                       SEARCH.(REN)                                                               *203 LM00248
                  OTHERWISE                                                                       *204 LM00249
                       WHENEVER .NOT. GOTNXT, GNEXT.(REN)                                         *205 LM00250
                  END OF CONDITIONAL                                                              *206 LM00251
                  FSTATE.(FLN1.(PRLNMK),FLN2.(PRLNMK),FSBUF(8)...8,UP02)                          *207 LM00252
                  WHENEVER FSBUF(2).A.377777777777K.G.DATTM.(PRLNMK).A.377777777777K              *208 LM00253
                       TEMP = INF2-INF1                                                           *209 LM00254
                       PRMESS.(PRLNMK(INF1),BL,PRLNMK(INF1-1)...TEMP)                             *210 LM00255
                       COPYSW=0B                                                                  *211 LM00256
                       WHENEVER .NOT. CPFIL.(FLN1.(PRLNMK),FLN2.(PRLNMK)), COPYSW=1B              *212 LM00257
                  OTHERWISE                                                                       *213 LM00258
      UP02             COPYSW=1B                                                                  *214 LM00259
                  END OF CONDITIONAL                                                              *215 LM00260
                  GNEXT.(REN)                                                                     *216 LM00261
                  GOTNXT=1B                                                                       *217 LM00262
                  TRANSFER TO UP01                                                                *218 LM00263
                                                                                                       LM00264
                  PRINT                                                                                LM00265
                                                                                                       LM00266
                  OR WHENEVER KEY .E.$ PRINT$ .OR. KEY.E.$     P$                                 *219 LM00267
                  SAVBRK.                                                                         *220 LM00268
                  SETBRK.(EXT)                                                                    *221 LM00269
      PRP1        COPYSW=0B                                                                       *222 LM00270
                  PRSSW=0B                                                                        *223 LM00271
                  WHENEVER FILTAB.NE.0                                                            *224 LM00272
                       SEARCH.(SPC)                                                               *225 LM00273
                  OTHERWISE                                                                       *226 LM00274
                       GNEXT.(SPC)                                                                *227 LM00275
                  END OF CONDITIONAL                                                              *228 LM00276
                  PRMESS.                                                                         *229 LM00277
                  TEMP = INF2-INF1 - 1                                                            *230 LM00278
                  PRMESS.(PRLNMK(INF1)...TEMP)                                                    *231 LM00279
                  PRMESS.                                                                         *232 LM00280
                  CT=CNT.(PRLNMK)                                                                 *233 LM00281
                  THROUGH PR02, FOR I=0,0,I.GE.CT                                                 *234 LM00282
                       BFREAD.(NM1,NM2,PRTBUF(PRTZ)...1,                                          *235 LM00283
                1        FRMER,EOFCT,GERR)                                                        *235 LM00284
                       I=I+1                                                                      *236 LM00285
                       WHENEVER PRTBUF(PRTZ).A.777777K6 .E. 777777K6                              *237 LM00286
                            WCT=PRTBUF(PRTZ).A.777777K                                            *238 LM00287
                            WHENEVER WCT.E.0,PRMESS.                                              *239 LM00288
                            THROUGH PR01, FOR J=PRTZ,PRTZ,J.G.WCT                                 *240 LM00289
                              BFREAD.(NM1,NM2,PRTBUF(PRTZ)...PRTZ,                                *241 LM00290
                1               FRMER,EOFCT,GERR)                                                 *241 LM00291
                  TEMP = -PRTZ                                                                    *242 LM00292
      PR01                  PRMESS.(PRTBUF(PRTZ)...TEMP)                                          *243 LM00293
                            RMNT=PRTZ-(J-WCT)                                                     *244 LM00294
                            WHENEVER RMNT.NE.0                                                    *245 LM00295
                              BFREAD.(NM1,NM2,PRTBUF(RMNT)...RMNT,                                *246 LM00296
                1               FRMER,EOFCT,GERR)                                                 *246 LM00297
                            TEMP = -RMNT                                                          *247 LM00298
                            PRMESS.(PRTBUF(RMNT)...TEMP)                                          *248 LM00299
                            END OF CONDITIONAL                                                    *249 LM00300
                            I=I+WCT                                                               *250 LM00301
                       OTHERWISE                                                                  *251 LM00302
                            BFREAD.(NM1,NM2,PRTBUF(PRTZ-1)...13,                                  *252 LM00303
                1             FRMER,EOFCT,GERR)                                                   *252 LM00304
                       I=I+13                                                                     *253 LM00305
                  TEMP1 = (PRTBUF(PRTZ-13).A.7777K8).V.60575757K                                  *254 LM00306
                  TEMP = -11                                                                      *255 LM00307
                  PRMESS.(PRTBUF(PRTZ-12),TEMP1,PRTBUF(PRTZ)...TEMP)                              *256 LM00308
      PR02             END OF CONDITIONAL                                                         *257 LM00309
                       ADJSW=1B                                                                   *258 LM00310
                       TRANSFER TO PRP1                                                           *259 LM00311
                  DIMENSION PRTBUF(22)                                                            *260 LM00312
                    VECTOR VALUES PRTZ=22                                                         *261 LM00313
                                                                                                       LM00314
                  ERROR                                                                                LM00315
                                                                                                       LM00316
                  OTHERWISE                                                                       *262 LM00317
                  PRMESS.(KEY,$ -- NOT A VALID ARGUMENT.$)                                        *263 LM00318
                  CHNCOM.(0)                                                                      *264 LM00319
                  END OF CONDITIONAL                                                              *265 LM00320
                                                                                                       LM00321
                  GRACEFUL EXIT                                                                        LM00322
                                                                                                       LM00323
      SPC         PRMESS.                                                                         *266 LM00324
                  TRANSFER TO FNF                                                                 *267 LM00325
      REN         CLS.(NM1,NM2)                                                                   *268 LM00326
      FNF         WHENEVER NAMTYP                                                                 *269 LM00327
                     THROUGH FN01A, FOR I = 1,1,I.G.FILTAB/2                                      *270 LM00328
                     WHENEVER .NOT.FILFND(I)                                                      *271 LM00329
                  PRMESS.(FILTAB(2*I-1),BL,FILTAB(2*I),$ NOT FOUND I$,                            *272 LM00330
                1  456057575757K,NM1,BL,NM2)                                                      *272 LM00331
      FN01A          END OF CONDITIONAL                                                           *273 LM00332
                  OTHERWISE                                                                       *274 LM00333
                     THROUGH FNO1B, FOR I=1,1,I.G.FILTAB                                          *275 LM00334
                     WHENEVER .NOT.FILFND(I)                                                      *276 LM00335
                       PRMESS.(FILTAB(I),BL,NM2,$ NOT FOUND I$,456057575757K,                     *277 LM00336
                1   NM1,BL,NM2)                                                                   *277 LM00337
      FNO1B          END OF CONDITIONAL                                                           *278 LM00338
                  END OF CONDITIONAL                                                              *279 LM00339
      EXT         CHNCOM.(0)                                                                      *280 LM00340
                  PRMESS.($FRAM$)                                                                 *281 LM00341
                  PRMESS.($NOTIFY SYSTEMS STAFF$)                                                 *282 LM00342
                  DORMNT.                                                                         *283 LM00343
                                                                                                       LM00344
                  ASUBS CONTAINS INTERNAL FUNCTIONS SEARCH., GNEXT., CPFIL.,                           LM00345
                  CLS., YES.                                                                           LM00346
                  AFORM CONTAINS INTERNAL FUNCTIONS MKLNMK., BDLNMK., DATTM.,                          LM00347
                  FLN1., FLN2., CNT.                                                                   LM00348
                  AFORM CONTAINS ALL INFORMATION ON THE ACTUAL LINE MARK FORMA                         LM00349
                                                                                                       LM00350
                  INSERT FILE ASUBS                                                               *284 LM00351
                  SEARCH. FINDS THE NEXT 'SUPER LINE MARK' WHOSE                                  *284 LM00001
                  NAME IS IN THE TABLE FILTAB SET UP DURING                                       *284 LM00002
                  INITIALIZATION.                                                                 *284 LM00003
                                                                                                  *284 LM00004
                  THE SEARCH WILL INCLUDE PRLNMK, THE PRESENT LINE MARK,                          *284 LM00005
                  IFF PRSSW.E.1B                                                                  *284 LM00006
                                                                                                  *284 LM00007
                  INTERNAL FUNCTION (EOFXT)                                                       *285 LM00008
                  STATEMENT LABEL EOFXT                                                           *286 LM00009
                  ENTRY TO SEARCH.                                                                *287 LM00010
                  WHENEVER NAMTYP                                                                 *288 LM00011
                     WHENEVER .NOT. COPYSW                                                        *289 LM00012
                     THROUGH SR00A, FOR I=1,1,I.G.FILTAB                                          *290 LM00013
      SR00A       WHENEVER .NOT. FILFND(I), TRANSFER TO SRP0A                                     *291 LM00014
                     BFCLOS.(NM1,NM2,GERR)                                                        *292 LM00015
                     AROPSW=0B                                                                    *293 LM00016
                     TRANSFER TO EOFXT                                                            *294 LM00017
                  END OF CONDITIONAL                                                              *295 LM00018
      SRP0A       CONTINUE                                                                        *296 LM00019
                  WHENEVER PRSSW.AND.AROPSW, TRANSFER TO SR02A                                    *297 LM00020
      SR01A       GNEXT.(EOFXT)                                                                   *298 LM00021
      SR02A       THROUGH SR03A, FOR FILTBP=1,2,FILTBP.G.FILTAB                                   *299 LM00022
                  PNTR=(FILTBP+1)/2                                                               *300 LM00023
                  WHENEVER FLN1.(PRLNMK).E.FILTAB(FILTBP)                                         *301 LM00024
                1    .AND.FLN2.(PRLNMK).E.FILTAB(FILTBP+1)                                        *301 LM00025
                2    .AND..NOT.FILFND(PNTR)                                                       *301 LM00026
                  FILFND(PNTR)=1B                                                                 *302 LM00027
                  FUNCTION RETURN                                                                 *303 LM00028
      SR03A       END OF CONDITIONAL                                                              *304 LM00029
                  TRANSFER TO SR01A                                                               *305 LM00030
                  OTHERWISE                                                                       *306 LM00031
                  WHENEVER .NOT.COPYSW                                                            *307 LM00032
                     THROUGH SR00, FOR I=1,1,I.G.FILTAB                                           *308 LM00033
      SR00           WHENEVER .NOT.FILFND(I), TRANSFER TO SRP0                                    *309 LM00034
                     BFCLOS.(NM1,NM2,GERR)                                                        *310 LM00035
                     AROPSW=0B                                                                    *311 LM00036
                     TRANSFER TO EOFXT                                                            *312 LM00037
                  END OF CONDITIONAL                                                              *313 LM00038
      SRP0        CONTINUE                                                                        *314 LM00039
                  WHENEVER PRSSW.AND.AROPSW, TRANSFER TO SR02                                     *315 LM00040
      SR01        GNEXT.(EOFXT)                                                                   *316 LM00041
      SR02        WHENEVER FLN2.(PRLNMK).NE.NM2                                                   *317 LM00042
                     TRANSFER TO SR01                                                             *318 LM00043
                  OTHERWISE                                                                       *319 LM00044
                     THROUGH SR03, FOR FILTBP=1,1,FILTBP.G.FILTAB                                 *320 LM00045
                  WHENEVER FLN1.(PRLNMK).E.FILTAB(FILTBP)                                         *321 LM00046
                1    .AND..NOT.FILFND(FILTBP)                                                     *321 LM00047
                        FILFND(FILTBP)=1B                                                         *322 LM00048
                        FUNCTION RETURN                                                           *323 LM00049
      SR03           END OF CONDITIONAL                                                           *324 LM00050
                  TRANSFER TO SR01                                                                *325 LM00051
                  END OF CONDITIONAL                                                              *326 LM00052
                  END OF CONDITIONAL                                                              *327 LM00053
                  END OF FUNCTION                                                                 *328 LM00054
                                                                                                       LM00055
                  GNEXT. FINDS THE NEXT 'SUPER LINE MARK,' READING                                     LM00056
                  SERIALLY THROUGH THE ARCHIV FILE AND COPYING IT                                      LM00057
                  INTO THE TEMPORARY FILE IFF COPYSW.E.1B.                                             LM00058
                  PRLNMK, THE PRESENT LINE MARK, IS COPIED IFF WMRKSW.E.1B                             LM00059
                                                                                                       LM00060
                  INTERNAL FUNCTION (EOFXT)                                                       *329 LM00061
                  STATEMENT LABEL EOFXT                                                           *330 LM00062
                  ENTRY TO GNEXT.                                                                 *331 LM00063
                  WHENEVER .NOT. AROPSW                                                           *332 LM00064
                       BFOPEN.($R$,NM1,NM2,BUF1(BUFZ),BUF2(BUFZ),-0,GERR)                         *333 LM00065
                       BFREAD.(NM1,NM2,PRLNMK(LMKZ)...LMKZ,FRMER,EOFCT,GERR)                      *334 LM00066
                       WHENEVER BDLNMK.(PRLNMK)                                                   *335 LM00067
                       WHENEVER PRLNMK(LMKZ).E.555555555555K                                      *336 LM00068
                            PRINT COMMENT $ARCHIV FILE HAS OLD FORMAT.$                           *337 LM00069
                            PRINT COMMENT $USE NWARCH SAVED IN PUBLIC FILE TO R                   *338 LM00070
                1 EFORMAT.$                                                                       *338 LM00071
                            PRINT COMMENT $LINK NWARCH SAVED M1416 CMFL04$                        *339 LM00072
                            PRINT COMMENT $RESUME NWARCH$                                         *340 LM00073
                            PRINT COMMENT $FOR INSTRUCTIONS.$                                     *341 LM00074
                            CHNCOM.(0)                                                            *342 LM00075
                       OTHERWISE                                                                  *343 LM00076
                            TRANSFER TO FRMER                                                     *344 LM00077
                       END OF CONDITIONAL                                                         *345 LM00078
                       END OF CONDITIONAL                                                         *346 LM00079
                  AROPSW=1B                                                                       *347 LM00080
                  FUNCTION RETURN                                                                 *348 LM00081
                  END OF CONDITIONAL                                                              *349 LM00082
                  WHENEVER COPYSW .AND. .NOT. TMOPSW                                              *350 LM00083
                       DELETE.(TM1,TM2,0,OUT)                                                     *351 LM00084
                       BFOPEN.($W$,TM1,TM2,BUF3(BUFZ),BUF4(BUFZ),BUF5(BUFZ),                      *352 LM00085
                1        GERR)                                                                    *352 LM00086
                       TMOPSW=1B                                                                  *353 LM00087
                  END OF CONDITIONAL                                                              *354 LM00088
                  WHENEVER COPYSW .AND. WMRKSW                                                    *355 LM00089
                       BFWRIT.(TM1,TM2,PRLNMK(LMKZ)...LMKZ,GERR)                                  *356 LM00090
                  END OF CONDITIONAL                                                              *357 LM00091
                  WHENEVER .NOT. ADJSW                                                            *358 LM00092
                       AFZ=CNT.(PRLNMK)                                                           *359 LM00093
                       THROUGH COPY, FOR I=CPBUFZ,CPBUFZ,I.G.AFZ                                  *360 LM00094
                            BFREAD.(NM1,NM2,CPBUF(CPBUFZ)...CPBUFZ,                               *361 LM00095
                1             FRMER,EOFCT,GERR)                                                   *361 LM00096
                            WHENEVER COPYSW                                                       *362 LM00097
                                 BFWRIT.(TM1,TM2,CPBUF(CPBUFZ)...CPBUFZ,GERR)                     *363 LM00098
                            END OF CONDITIONAL                                                    *364 LM00099
      COPY             CONTINUE                                                                   *365 LM00100
                       REMN=CPBUFZ-(I-AFZ)                                                        *366 LM00101
                       WHENEVER REMN.NE.0                                                         *367 LM00102
                            BFREAD.(NM1,NM2,CPBUF(REMN)...REMN,                                   *368 LM00103
                1             FRMER,EOFCT,GERR)                                                   *368 LM00104
                            WHENEVER COPYSW                                                       *369 LM00105
                                 BFWRIT.(TM1,TM2,CPBUF(REMN)...REMN,GERR)                         *370 LM00106
                            END OF CONDITIONAL                                                    *371 LM00107
                       END OF CONDITIONAL                                                         *372 LM00108
                  END OF CONDITIONAL                                                              *373 LM00109
                  BFREAD.(NM1,NM2,PRLNMK(LMKZ)...LMKZ,EOF,EOFCT,GERR)                             *374 LM00110
                  WHENEVER BDLNMK.(PRLNMK),TRANSFER TO FRMER                                      *375 LM00111
                  ADJSW=0B                                                                        *376 LM00112
                  FUNCTION RETURN                                                                 *377 LM00113
      EOF         BFCLOS.(NM1,NM2,GERR)                                                           *378 LM00114
                  AROPSW=0B                                                                       *379 LM00115
                  TRANSFER TO EOFXT                                                               *380 LM00116
      FRMER       PRMESS.($ARCHIV FORMAT ERROR IN$,NM1,BL,NM2)                                    *381 LM00117
                  BFCLOS.($   ALL$,-0,GERR)                                                       *382 LM00118
                  CHNCOM.(1)                                                                      *383 LM00119
      GERR        PRNTER.(61K)                                                                    *384 LM00120
                  CHNCOM.(1)                                                                      *385 LM00121
                  END OF FUNCTION                                                                 *386 LM00122
                                                                                                       LM00123
                  CPFIL.(A,B) COPIES FILE A B INTO THE TEMPORARY FILE.                                 LM00124
                  CPFIL. ALWAYS MAKES THE LINE MARK NWLNMK AND WRITES                                  LM00125
                  IT AT THE BEGINNING OF THE ENTRY UNLESS THE FILE IS AN                               LM00126
                  ARCHIV FILE ALREADY.                                                                 LM00127
                                                                                                       LM00128
                  RETURNS 1B IFF SUCCESSFUL                                                            LM00129
                                                                                                       LM00130
                  BOOLEAN CPFIL.                                                                  *387 LM00131
                  INTERNAL FUNCTION(A,B)                                                          *388 LM00132
                  ENTRY TO CPFIL.                                                                 *389 LM00133
                  WHENEVER .NOT. MKLNMK.(A,B,CT)                                                  *390 LM00134
                       FUNCTION RETURN 0B                                                         *391 LM00135
                  OTHERWISE                                                                       *392 LM00136
                       WHENEVER .NOT. TMOPSW                                                      *393 LM00137
                            DELETE.(TM1,TM2,0,OUT)                                                *394 LM00138
                            BFOPEN.($W$,TM1,TM2,BUF3(BUFZ),BUF4(BUFZ),                            *395 LM00139
                1             BUF5(BUFZ),GERR)                                                    *395 LM00140
                            TMOPSW=1B                                                             *396 LM00141
                       END OF CONDITIONAL                                                         *397 LM00142
                       BFOPEN.($R$,A,B,BUF6(BUFZ),BUF7(BUFZ),-0,GERR)                             *398 LM00143
                       FRSTSW=1B                                                                  *399 LM00144
                       THROUGH CPF01, FOR I=CPBUFZ,CPBUFZ,I.G.CT                                  *400 LM00145
                            BFREAD.(A,B,CPBUF(CPBUFZ)...CPBUFZ,                                   *401 LM00146
                1             CPFEF,EOFCT,GERR)                                                   *401 LM00147
                            WHENEVER BDLNMK.(CPBUF(CPBUFZ-LMKZ)) .AND. FRSTSW                     *402 LM00148
                                 BFWRIT.(TM1,TM2,NWLNMK(LMKZ)...LMKZ,GERR)                        *403 LM00149
                            END OF CONDITIONAL                                                    *404 LM00150
                       FRSTSW=0B                                                                  *405 LM00151
      CPF01                 BFWRIT.(TM1,TM2,CPBUF(CPBUFZ)...CPBUFZ,GERR)                          *406 LM00152
                       REMN=CPBUFZ-(I-CT)                                                         *407 LM00153
                       BFREAD.(A,B,CPBUF(REMN)...REMN,CPFEF,EOFCT,GERR)                           *408 LM00154
                       WHENEVER  BDLNMK.(CPBUF(REMN-LMKZ)) .AND. FRSTSW                           *409 LM00155
                            BFWRIT.(TM1,TM2,NWLNMK(LMKZ)...LMKZ,GERR)                             *410 LM00156
                       END OF CONDITIONAL                                                         *411 LM00157
                       BFWRIT.(TM1,TM2,CPBUF(REMN)...REMN,GERR)                                   *412 LM00158
                       BFCLOS.(A,B,GERR)                                                          *413 LM00159
                       FUNCTION RETURN 1B                                                         *414 LM00160
                  END OF CONDITIONAL                                                              *415 LM00161
      CPFEF       PRINT COMMENT $ERROR IN FSTATE.--NOTIFY SYSTEMS STAFF.$                         *416 LM00162
                  PRINT COMMENT $DORMNT CALLED$                                                   *417 LM00163
                  DORMNT.                                                                         *418 LM00164
                  END OF FUNCTION                                                                 *419 LM00165
                  NORMAL MODE IS INTEGER                                                          *420 LM00166
                  BOOLEAN COPYSW, PRSSW, WMRKSW, AROPSW, TMOPSW, FRSTSW                           *421 LM00167
                  BOOLEAN NAMO, ADJSW, NAMTYP                                                     *422 LM00168
                  VECTOR VALUES BUFZ=432                                                          *423 LM00169
                  DIMENSION BUF1(432), BUF2(432), BUF3(432), BUF4(432), BUF5(432),                *424 LM00170
                1   BUF6(432), BUF7(432)                                                          *424 LM00171
                  DIMENSION CPBUF(432)                                                            *425 LM00172
                    VECTOR VALUES CPBUFZ=432                                                      *426 LM00173
                  VECTOR VALUES FILTBZ=16                                                         *427 LM00174
                  DIMENSION FILTAB(16)                                                            *428 LM00175
                  BOOLEAN FILFND                                                                  *429 LM00176
                  DIMENSION FILFND(16)                                                            *430 LM00177
                                                                                                       LM00178
                  CLS.(A,B) CLOSES THE TEMPORARY FILE AND RENAMES IT A B                               LM00179
                                                                                                       LM00180
                  BOOLEAN CLS.                                                                    *431 LM00181
                  INTERNAL FUNCTION (A,B)                                                         *432 LM00182
                  ENTRY TO CLS.                                                                   *433 LM00183
                  WHENEVER TMOPSW                                                                 *434 LM00184
                       BFCLOS.(TM1,TM2,GERR)                                                      *435 LM00185
                       TMOPSW=0B                                                                  *436 LM00186
                       DIMENSION FNM(2)                                                           *437 LM00187
                       FNM(0)=A                                                                   *438 LM00188
                       FNM(1)=B                                                                   *439 LM00189
                       FSTATE.(A,B,FSBUF(8)...8,NFND)                                             *440 LM00190
                         EQUIVALENCE (MODE,FSBUF(7))                                              *441 LM00191
                       MODE=MODE.A.134K                                                           *442 LM00192
      CL01        DELETE.(A,B,0,NDEL1)                                                            *443 LM00193
                  CHFILE.(TM1,TM2,-0,A,B)                                                         *444 LM00194
                       WHENEVER MODE.NE.000K .AND. KEY.NE.$    XT$                                *445 LM00195
                            CHFILE.(A,B,MODE,-0,-0)                                               *446 LM00196
                       MODEP = (OCRBC.(MODE).A.777777K).V.575757K6                                *447 LM00197
                       PRMESS.(A,BL,B,BL,$CREATED IN '$,MODEP,$' MODE.$)                          *448 LM00198
                       END OF CONDITIONAL                                                         *449 LM00199
                       FUNCTION RETURN 1B                                                         *450 LM00200
      NDEL1            FUNCTION RETURN 0B                                                         *451 LM00201
                  OTHERWISE                                                                       *452 LM00202
                       FUNCTION RETURN 0B                                                         *453 LM00203
                  END OF CONDITIONAL                                                              *454 LM00204
      NFND        MODE=000K                                                                       *455 LM00205
                  TRANSFER TO CL01                                                                *456 LM00206
                  END OF FUNCTION                                                                 *457 LM00207
                                                                                                       LM00208
                                                                                                       LM00209
                  YES. READS A LINE AND RETURNS 1B IFF IT IS 'YES'                                     LM00210
                                                                                                       LM00211
                  BOOLEAN YES.                                                                    *458 LM00212
                  INTERNAL FUNCTION                                                               *459 LM00213
                  ENTRY TO YES.                                                                   *460 LM00214
                  RDFLXC.(YESNO,6)                                                                *461 LM00215
                  WHENEVER YESNO.E.$YES   $                                                       *462 LM00216
                       FUNCTION RETURN 1B                                                         *463 LM00217
                  OTHERWISE                                                                       *464 LM00218
                       FUNCTION RETURN 0B                                                         *465 LM00219
                  END OF CONDITIONAL                                                              *466 LM00220
                  END OF FUNCTION                                                                 *467 LM00221
                                                                                                       LM00222
                  DELT. DELETES A FILE AND TELLS YOU ABOUT IT.                                         LM00223
                  RETURNS 1B IFF SUCCESSFUL.                                                           LM00224
                                                                                                       LM00225
                  BOOLEAN DELT.                                                                   *468 LM00226
                  INTERNAL FUNCTION (A,B)                                                         *469 LM00227
                  ENTRY TO DELT.                                                                  *470 LM00228
                  FNM(0)=A                                                                        *471 LM00229
                  FNM(1)=B                                                                        *472 LM00230
                  DELETE.(A,B,0,NOTDEL)                                                           *473 LM00231
                       PRMESS.(A,BL,B,$ DELETED.$)                                                *474 LM00232
                       FUNCTION RETURN 1B                                                         *475 LM00233
      NOTDEL      PRMESS.(A,BL,B,$ NOT DELETED.$)                                                 *476 LM00234
                  FUNCTION RETURN 0B                                                              *477 LM00235
                  END OF FUNCTION                                                                 *478 LM00236
                  INSERT FILE AFORM                                                               *479 LM00352
                  THE FORMAT OF THE 'SUPER LINE MARK' IN ARCHIV FILES                             *479 LM00001
                  IS:                                                                             *479 LM00002
                  777777000000K,..,..,..,777777000011K,FLN1,FLN2,                                 *479 LM00003
                  $ MM/DD/YY HHMM.M  $,                                                           *479 LM00004
                  $ZZZZZZ$,$$,$   000$,$00    $                                                   *479 LM00005
                  TOTALLING 14 WORDS, WHERE ZZZZZZ IS FILE WORD COUNT.                            *479 LM00006
                  THIS INFORMATION SHLD NOT BE KNOWN ANYWHERE IN THE PROGRAM                      *479 LM00007
                  EXCEPT IN THE FLLWING INTERNAL FUNCTIONS AND V'S STATEMENTS.                    *479 LM00008
                                                                                                  *479 LM00009
                  MKLNMK.(A,B,CT) MAKS A LINE MARK FOR A B IN NWLNMK AND SETS                     *479 LM00010
                  CT=FILE SIZE IN WORDS.  MKLNMK CALLS FSTATE.                                    *479 LM00011
                                                                                                  *479 LM00012
                  MKLNMK. RETURNS 1B IFF FILE EXISTS.                                             *479 LM00013
                                                                                                  *479 LM00014
                  BOOLEAN MKLNMK.                                                                 *480 LM00015
                  INTERNAL FUNCTION (A,B,CT)                                                      *481 LM00016
                  ENTRY TO MKLNMK.                                                                *482 LM00017
                  OLDERR=FERRTN.(NTFND)                                                           *483 LM00018
                  FSTATE.(A,B,FSBUF(8)...8)                                                       *484 LM00019
                  FERRTN.(OLDERR)                                                                 *485 LM00020
                  CT=FSBUF(8)                                                                     *486 LM00021
                  VECTOR VALUES NWLNMK(11)...NWLNMK(14)=777777000000K                             *487 LM00022
                  VECTOR VALUES NWLNMK(10)=777777000011K                                          *488 LM00023
                  NWLNMK(9)=A                                                                     *489 LM00024
                  NWLNMK(8)=B                                                                     *490 LM00025
                  WHENEVER .NOT. GOTTM                                                            *491 LM00026
                    BOOLEAN GOTTM                                                                 *492 LM00027
                       GETTM.(PDATE,PTIME)                                                        *493 LM00028
                       NWLNMK(7)=(PDATE.RS.6).V.$ 00000$                                          *494 LM00029
                       NWLNMK(6) = (DEFBC.(GTDYTM.(0).RS.27).LS.18)                               *495 LM00030
                1           .V.(PTIME.RS.24)                                                      *495 LM00031
                2                .V.$/00 00$                                                      *495 LM00032
                                                                                                       LM00033
                       NWLNMK(5)=(PTIME.LS.12).V.$0000  $                                         *496 LM00034
                       GOTTM=1B                                                                   *497 LM00035
                  END OF CONDITIONAL                                                              *498 LM00036
                  NWLNMK(4)=BZEL.(DEFBC.(FSBUF(8)))                                               *499 LM00037
                  VECTOR VALUES NWLNMK(3)=$      $                                                *500 LM00038
                  VECTOR VALUES NWLNMK(2)=$   000$                                                *501 LM00039
                  VECTOR VALUES NWLNMK(1)=$00    $                                                *502 LM00040
                  FUNCTION RETURN 1B                                                              *503 LM00041
      NTFND       FERRTN.(OLDERR)                                                                 *504 LM00042
                  FUNCTION RETURN 0B                                                              *505 LM00043
                  END OF FUNCTION                                                                 *506 LM00044
                                                                                                       LM00045
                  BDLNMK.(LMK) RETURNS 1B IF LMK(LMKZ)...LMKZ IS 'BAD,'                                LM00046
                  THAT IS, NOT A VALID LINE MARK.                                                      LM00047
                                                                                                       LM00048
                  BOOLEAN BDLNMK.                                                                 *507 LM00049
                  INTERNAL FUNCTION(LMK)                                                          *508 LM00050
                  ENTRY TO BDLNMK.                                                                *509 LM00051
                  WHENEVER (LMK(14).NE.777777000000K .AND. LMK(14).NE.0)                          *510 LM00052
                1 .OR.LMK(13).NE.777777000000K                                                    *510 LM00053
                2 .OR.LMK(12).NE.777777000000K                                                    *510 LM00054
                3 .OR.LMK(11).NE.777777000000K                                                    *510 LM00055
                4 .OR.LMK(10).NE.777777000011K                                                    *510 LM00056
                5 .OR.LMK(7).A.776060776060K .NE. $ 00/00$                                        *510 LM00057
                6 .OR.LMK(6).A.776060776060K .NE. $/00 00$                                        *510 LM00058
                7 .OR.LMK(5).A.606077607777K .NE. $00.0  $                                        *510 LM00059
                8 .OR.LMK(4).A.60K.NE.0                                                           *510 LM00060
                       FUNCTION RETURN 1B                                                         *511 LM00061
                  OTHERWISE                                                                       *512 LM00062
                       FUNCTION RETURN 0B                                                         *513 LM00063
                  END OF CONDITIONAL                                                              *514 LM00064
                  END OF FUNCTION                                                                 *515 LM00065
                                                                                                       LM00066
                  THE FOLLOWING DINK ROUTINES GET VARIOUS PIECES                                       LM00067
                  OF INFORMATION OUT OF A LINE MARK.                                                   LM00068
                                                                                                       LM00069
                  DATTM.(LMK) GETS DATE AND TIME IN FSTATE. FORMAT.                                    LM00070
                                                                                                       LM00071
                  INTERNAL FUNCTION DATTM.(LMK)=                                                  *516 LM00072
                1      (BCDEC.((LMK(6).RS.18).A.7777K).LS.27).A.777K9                             *516 LM00073
                2   .V.(BCDEC.((LMK(7).RS.18).A.7777K).LS.23).A.74K7                              *516 LM00074
                3   .V.(BCDEC.(LMK(7).A.7777K).LS.18).A.37K6                                      *516 LM00075
                4   .V.(BCDEC.(LMK(6).A.7777K)*3600                                               *516 LM00076
                6      +BCDEC.(LMK(5).RS.24)*60                                                   *516 LM00077
                5      +BCDEC.((LMK(5).RS.12).A.77K)*6)                                           *516 LM00078
                                                                                                       LM00079
                  CNT.(LMK) GETS FILE WORD COUNT                                                       LM00080
                  FLN1.(LMK) AND FLN2.(LMK) GET RESPECTIVE FILE NAMES                                  LM00081
                                                                                                       LM00082
                  INTERNAL FUNCTION CNT.(LMK)=BCDEC.(LMK(4))                                      *517 LM00083
                  INTERNAL FUNCTION FLN1.(LMK)=LMK(9)                                             *518 LM00084
                  INTERNAL FUNCTION FLN2.(LMK)=LMK(8)                                             *519 LM00085
                                                                                                       LM00086
                  INF1 AND INF2 ARE LIMITS OF INTEREST FOR PRINT AND TABLE.                            LM00087
                  LMKZ IS LINE MARK SIZE                                                               LM00088
                  PRLNMK IS 'PRESENT LINE MARK,' READ FROM ARCHIV FILE.                                LM00089
                  NWLNMK IS 'NEW LINE MARK,' GENERATED BY MKLNMK.                                      LM00090
                                                                                                       LM00091
                  VECTOR VALUES INF1=9                                                            *520 LM00092
                  VECTOR VALUES INF2=4                                                            *521 LM00093
                  DIMENSION PRLNMK(14), NWLNMK(14)                                                *522 LM00094
                  VECTOR VALUES LMKZ=14                                                           *523 LM00095
                  DIMENSION FSBUF(432)                                                            *524 LM00096
                  END OF PROGRAM                                                                  *525 LM00353
1MAD PROGRAM,TYPE NOV 1963      (ALL NUMBERS ARE OCTAL)
0TOTAL LOCATIONS   14745 TRANSFER VECTOR LENGTH  00035 PROGRAM BEGINS    10555
0VARIABLE STORAGE (A=ARRAY,C=COMMON,E=ERASABLE,DIGIT=MODE)
      ADJSW  01002   2        CR     07622 A 1        GOTTM  10214   2        OUT    00757   4        SR03A  00051   4
      AFZ    01003   1        CT     07623   1        IN00   00051   4        PDATE  10252   1        SR03   00051   4
      ANAM   00054 A 1        DATE   07624   1        IN01   00051   4        PNTR   10253   1        SRP0A  00771   4
      AROPSW 01004   2        DELST1 07771 A 1        INF1   10215 A 1        PR01   00051   4        SRP0   00772   4
      BL     01005 A 1        DELST2 10136 A 1        INF2   10216 A 1        PR02   00051   4        TB01   00773   4
      BUF1   01666 A 1        DELST  10137   1        I      10217   1        PRLNMK 10272 A 1        TEMP1  10327   1
      BUF2   02547 A 1        DELSTZ 10140 A 1        JI     10220   1        PRP1   00760   4        TEMP   10330   1
      BUF3   03430 A 1        DL01   00744   4        JJ     10221   1        PRSSW  10273   2        TFIL   00057 A 1
      BUF4   04311 A 1        EOFCT  10141   1        J      10222   1        PRTBUF 10322 A 1        TFNF   00774   4
      BUF5   05172 A 1        EOF    00745   4        KEY    10223   1        PRTZ   10323 A 1        TIME   10331   1
      BUF6   06053 A 1        EXT    00746   4        LMKZ   10224 A 1        PTIME  10324   1        TM1    00057   1
      BUF7   06734 A 1        FILFND 10162 A 2        MODEP  10225   1        REMN   10325   1        TM2    00056   1
      BUFZ   06735 A 1        FILTAB 10203 A 1        MODE   00731   1        REN    00761   4        TMOPSW 10332   2
      CL01   00741   4        FILTBP 10204   1        NAMO   10226   2        RMNT   10326   1        TOFF   10333 A 2
      CM01   00742   4        FILTBZ 10205 A 1        NAMTYP 10227   2        RP01   00762   4        TON    10334 A 2
      CM03A  00051   4        FIRST  10206 A 2        NDEL1  00753   4        RP02   00763   4        TYP    10335   1
      CM03   00051   4        FN01A  00051   4        NFND   00754   4        RP03   00051   4        UP01   00775   4
      CMP1A  00051   4        FNF    00747   4        NM1    00054   1        RPD01  00051   4        UP02   00776   4
      CMP1B  00051   4        FNM    10211 A 1        NM2    00053   1        SPC    00764   4        WCT    10336   1
      CNM2   06736   1        FNO1B  00051   4        NOTDEL 00755   4        SR00A  00051   4        WHBUF  10347 A 1
      COPY   00051   4        FORGET 00750   4        NTFND  00756   4        SR00   00051   4        WMRKSW 10350   2
      COPYSW 06737   2        FRMER  00751   4        NW1    10230   1        SR01A  00765   4        XT01   00777   4
      CPBUF  07620 A 1        FRSTSW 10212   2        NW2    10231   1        SR01   00766   4        XT02   01000   4
      CPBUFZ 07621 A 1        FSBUF  00740 A 1        NWLNMK 10250 A 1        SR02A  00767   4        XT03   01001   4
      CPF01  00051   4        GERR   00752   4        OLDERR 10251   1        SR02   00770   4        YESNO  10351   1
      CPFEF  00743   4        GOTNXT 10213   2
0FUNCTION DICTIONARY
      BCDEC  00000   1        BFCLOS 00001   1        BFOPEN 00002   1        BFREAD 00003   1        BFWRIT 00004   1
      BZEL   00005   1        CHFILE 00006   1        CHNCOM 00007   1        COMARG 00010   1        DEFBC  00011   1
      DELETE 00012   1        DORMNT 00013   1        EXIT   00014   1        FERRTN 00015   1        FSTATE 00016   1
      GETTM  00017   1        GTDYTM 00020   1        .PCOMT 00021   1        .SETUP 00022   1        OCRBC  00023   1
      OFFON  00024   1        OFF    00025   1        PRMESA 00026   1        PRMESS 00027   1        PRNTER 00030   1
      RDFLXC 00031   1        SAVBRK 00032   1        SETBRK 00033   1        WHOAMI 00034   1        BDLNMK 00035   2
      CLS    00036   2        CNT    00037   1        CPFIL  00040   2        DATTM  00041   1        DELT   00042   2
      FLN1   00043   1        FLN2   00044   1        GNEXT  00045   1        MKLNMK 00046   2        SEARCH 00047   1
      YES    00050   2
0ABSOLUTE CONSTANTS
 10551 -377000000000     10405 +000740000000     10366 +000000000027     10403 +000037000000     10377 +000000007020
 10400 +000000007777     10373 +000000000074     10554 -377777000011     10465 -200000610000     10550 -376060776060
 10402 +000033006060     10520 -206077607777     10371 +000000000060     10376 +000000006060     10525 -210000600000
 10365 +000000000022     10370 +000000000033     10367 +000000000030     10464 -200000000000     10421 +254325632524
 10500 -204546636024     10420 +252433606060     10470 -202425432563     10543 -302562606060     10360 +000000000006
 10406 +146044462425     10417 +246031456014     10415 +235125216325     10463 -175757000000     10375 +000000000134
 10504 -206060214343     10460 -116031456060     10531 -236025515146     10473 -202646514421     10541 -266060606060
 10462 -155555555555     10461 -116060606060     10423 +262660606060     10442 -046260626321     10521 -206270626325
 10444 -054663312670     10424 +265121446060     10446 -056057575757     10451 -066445246031     10501 -204546636026
 10426 +276444254563     10437 -033124602151     10530 -236021606521     10475 -204040604546     10363 +000000000014
 10362 +000000000013     10404 +000060575757     10552 -377700000000     10364 +000000000015     10401 +000000777777
 10553 -377777000000     10502 -204751314563     10510 -206060606047     10432 +377777777777     10537 -244724216325
 10513 -206060606064     10523 -206346605757     10466 -202124242524     10511 -206060606051     10505 -206060605124
 10514 -206060606067     10515 -206060606763     10416 +242543256325     10507 -206060606024     10503 -205454546060
 10452 -066463476463     10522 -206321224325     10425 +276024464525     10443 -054663303145     10372 +000000000061
 10430 +316260464273     10474 -203162606330     10431 +336060606060     10427 +302560464324     10535 -242425246063
 10532 -236031452343     10411 +216525604546     10524 -207046646030     10506 -206060606023     10361 +000000000010
 10536 -242562636060     10454 -072560512550     10546 -336051256370     10441 -044743256325     10533 -236031452346
 10435 -032162636021     10357 +000000000005     10356 +000000000004     10526 -224664512325     10534 -236260606060
 10456 -112764442545     10450 -066427306021     10445 -054663602545     10355 +000000000003     10354 +000000000002
 10516 -206060634645     10512 -206060606063     10517 -206063462626     10352 +000000000000     10457 -113360606060
 10477 -204325636325     10471 -202631516263     10527 -232524602270     10412 +225125653121     10467 -202225602122
 10544 -306260442170     10407 +214343604225     10453 -072421632560     10545 -336046516064     10542 -276351212363
 10455 -112547432123     10436 -032563257360     10447 -056373602425     10422 +257360475131     10547 -336063212243
 10414 +234644223145     10433 -022570601360     10540 -263025512560     10434 -030260333333     10472 -202643016026
 10440 -040160454402     10476 -204225706045     10410 +215123303165     10374 +000000000077     10353 +000000000001
 10413 +233000000000
0STATEMENT DICTIONARY
 00741 TXL -313756013751       00742 TXL -311175011175       00743 TXL -313665013654       00744 TXL -311423011421
 00745 TXL -313346013342       00746 TXL -312556012554       00747 TXL -312445012443       00750 TXL -311271011265
 00751 TXL -313361013351       00752 TXL -313373013371       00753 TXL -314033014031       00754 TXL -314040014036
 00755 TXL -314156014147       00756 TXL -314312014310       00757 TXL -310625010623       00760 TXL -312157012155
 00761 TXL -312443012440       00762 TXL -311550011546       00763 TXL -311637011635       00764 TXL -312437012436
 00765 TXL -312633012631       00766 TXL -312740012736       00767 TXL -312645012633       00770 TXL -312744012740
 00771 TXL -312624012624       00772 TXL -312731012731       00773 TXL -311311011306       00774 TXL -311411011410
 00775 TXL -312027012025       00776 TXL -312136012134       00777 TXL -311452011450       01000 TXL -311507011505
 01001 TXL -311513011507
0PROGRAM
                 W'R COMARG.(1).A.77K.E.77K                                         001  LM00015
 10555 TSX +0 07400 4 00022    10556 TSX +0 07400 4 00010    10557 TXH +3 00000 0 10353    10560 STO +0 60100 0 14741
 10561 CAL -0 50000 0 14741    10562 ANA -0 32000 0 10374    10563 SLW +0 60200 0 14741    10564 CLA +0 50000 0 14741
 10565 SUB +0 40200 0 10374    10566 TNZ -0 10000 0 10625
                      PRMESS.( $ARCHIV KEY NM1 NM2 FL1 FL2 ...$)                    002  LM00016
 10567 TSX +0 07400 4 00027    10570 TXH +3 00000 0 10410    10571 TXH +3 00000 0 10476    10572 TXH +3 00000 0 10440
 10573 TXH +3 00000 0 10472    10574 TXH +3 00000 0 10434
                   PRMESS.($WHERE KEY = COMBIN, TABLE, PRINT, DELETE, REPLAC$)      003  LM00017
 10575 TSX +0 07400 4 00027    10576 TXH +3 00000 0 10540    10577 TXH +3 00000 0 10433    10600 TXH +3 00000 0 10414
 10601 TXH +3 00000 0 10547    10602 TXH +3 00000 0 10422    10603 TXH +3 00000 0 10447    10604 TXH +3 00000 0 10436
 10605 TXH +3 00000 0 10455
                      PRMESS.($XTRACT, OR UPDATE$)                                  004  LM00018
 10606 TSX +0 07400 4 00027    10607 TXH +3 00000 0 10542    10610 TXH +3 00000 0 10545    10611 TXH +3 00000 0 10453
                      PRMESS.($ALL KEYS MAY BE ABBREVIATED BY FIRST LETTER.$)       005  LM00019
 10612 TSX +0 07400 4 00027    10613 TXH +3 00000 0 10407    10614 TXH +3 00000 0 10544    10615 TXH +3 00000 0 10467
 10616 TXH +3 00000 0 10412    10617 TXH +3 00000 0 10527    10620 TXH +3 00000 0 10471    10621 TXH +3 00000 0 10477
 10622 TXH +3 00000 0 10457
      OUT             CHNCOM.(0)                                                    006  LM00020
 10623 TSX +0 07400 4 00007    10624 TXH +3 00000 0 10352
                 E'L                                                                007  LM00021
                 KEY=COMARG.(1)                                                     008  LM00022
 10625 TSX +0 07400 4 00010    10626 TXH +3 00000 0 10353    10627 STO +0 60100 0 10223
                 W'R KEY .E. $  TOFF$                                               009  LM00023
 10630 CLA +0 50000 0 10223    10631 SUB +0 40200 0 10517    10632 TNZ -0 10000 0 10637
                   TOFF = 1B                                                        010  LM00024
 10633 CLA +0 50000 0 10353    10634 STO +0 60100 0 10333
                   BOOLEAN TOFF                                                     011  LM00025
                   V'S TOFF = 0B                                                    012  LM00026
 10333     +0 00000 0 00000
                   KEY = $     T$                                                   013  LM00027
 10635 CLA +0 50000 0 10512    10636 STO +0 60100 0 10223
                 E'L                                                                014  LM00028
                 W'R KEY .E. $   TON$                                               015  LM00029
 10637 CLA +0 50000 0 10223    10640 SUB +0 40200 0 10516    10641 TNZ -0 10000 0 10646
                    TON = 1B                                                        016  LM00030
 10642 CLA +0 50000 0 10353    10643 STO +0 60100 0 10334
                    KEY = $     T$                                                  017  LM00031
 10644 CLA +0 50000 0 10512    10645 STO +0 60100 0 10223
                    BOOLEAN TON                                                     018  LM00032
                     V'S TON = 0B                                                   019  LM00033
 10334     +0 00000 0 00000
                 E'L                                                                020  LM00034
                 NM1=COMARG.(2)                                                     021  LM00035
 10646 TSX +0 07400 4 00010    10647 TXH +3 00000 0 10354    10650 STO +0 60100 0 00054
                 NM2=COMARG.(3)                                                     022  LM00036
 10651 TSX +0 07400 4 00010    10652 TXH +3 00000 0 10355    10653 STO +0 60100 0 00053
                 SETBRK.(OUT)                                                       023  LM00037
 10654 TSX +0 07400 4 00033    10655 TXH +3 00000 0 00757
                 GETTM.(DATE,TIME)                                                  024  LM00039
 10656 TSX +0 07400 4 00017    10657 TXH +3 00000 0 07624    10660 TXH +3 00000 0 10331
                   D'N ANAM(2)                                                      025  LM00040
                   EQUIVALENCE (NM1,ANAM(0)), (NM2,ANAM(1))                         026  LM00041
                 W'R NM1.A.77K.E.77K .OR. NM2.A.77K.E.77K                           027  LM00042
 10661 CAL -0 50000 0 00053    10662 ANA -0 32000 0 10374    10663 SLW +0 60200 0 14741    10664 CLA +0 50000 0 14741
 10665 SUB +0 40200 0 10374    10666 TZE +0 10000 0 10675    10667 CAL -0 50000 0 00054    10670 ANA -0 32000 0 10374
 10671 SLW +0 60200 0 14741    10672 CLA +0 50000 0 14741    10673 SUB +0 40200 0 10374    10674 TNZ -0 10000 0 10704
                      PRMESS.($NOT ENOUGH ARGUMENTS$)                               028  LM00043
 10675 TSX +0 07400 4 00027    10676 TXH +3 00000 0 10445    10677 TXH +3 00000 0 10450    10700 TXH +3 00000 0 10456
 10701 TXH +3 00000 0 10534
                      CHNCOM.(0)                                                    029  LM00044
 10702 TSX +0 07400 4 00007    10703 TXH +3 00000 0 10352
                 E'L                                                                030  LM00045
                 W'R NM2.E.$SOURCE$.OR.NM2.E.$ARCHIV$                               031  LM00050
 10704 CLA +0 50000 0 00053    10705 SUB +0 40200 0 10410    10706 TZE +0 10000 0 10712    10707 CLA +0 50000 0 00053
 10710 SUB +0 40200 0 10526    10711 TNZ -0 10000 0 11020
                    NAMTYP=1B                                                       032  LM00051
 10712 CLA +0 50000 0 10353    10713 STO +0 60100 0 10227
                    T'H IN00, FOR FILTAB=0,2,COMARG.(FILTAB+4).A.77K.E.77K          033  LM00052
                1      .OR.FILTAB.E.FILTBZ                                          033  LM00053
 10714 CLA +0 50000 0 10352    10715 STO +0 60100 0 10203    10716 TRA +0 02000 0 10722    10717 CLA +0 50000 0 10203
 10720 ADD +0 40000 0 10354    10721 STO +0 60100 0 10203    10722 CLA +0 50000 0 10203    10723 SUB +0 40200 0 10205
 10724 TZE +0 10000 0 11017    10725 CLA +0 50000 0 10203    10726 ADD +0 40000 0 10356    10727 STO +0 60100 0 14741
 10730 TSX +0 07400 4 00010    10731 TXH +3 00000 0 14741    10732 STO +0 60100 0 14741    10733 CAL -0 50000 0 14741
 10734 ANA -0 32000 0 10374    10735 SLW +0 60200 0 14741    10736 CLA +0 50000 0 14741    10737 SUB +0 40200 0 10374
 10740 TZE +0 10000 0 11017
                    FILTAB(FILTAB+1)=COMARG.(FILTAB+4)                              034  LM00054
 10741 CLA +0 50000 0 10203    10742 ADD +0 40000 0 10356    10743 STO +0 60100 0 14741    10744 TSX +0 07400 4 00010
 10745 TXH +3 00000 0 14741    10746 STO +0 60100 0 14741    10747 CLA +0 50000 0 10203    10750 ADD +0 40000 0 10353
 10751 PAX +0 73400 1 00000    10752 CLA +0 50000 0 14741    10753 STO +0 60100 1 10203
                    W'R COMARG.(FILTAB+5).A.77K.E.77K                               035  LM00055
 10754 CLA +0 50000 0 10203    10755 ADD +0 40000 0 10357    10756 STO +0 60100 0 14741    10757 TSX +0 07400 4 00010
 10760 TXH +3 00000 0 14741    10761 STO +0 60100 0 14741    10762 CAL -0 50000 0 14741    10763 ANA -0 32000 0 10374
 10764 SLW +0 60200 0 14741    10765 CLA +0 50000 0 14741    10766 SUB +0 40200 0 10374    10767 TNZ -0 10000 0 11003
                    PRMESS.( $LAST ARGUMENT INCOMPLETE, RETYPE REQUEST$)            036  LM00056
 10770 TSX +0 07400 4 00027    10771 TXH +3 00000 0 10435    10772 TXH +3 00000 0 10456    10773 TXH +3 00000 0 10533
 10774 TXH +3 00000 0 10441    10775 TXH +3 00000 0 10546    10776 TXH +3 00000 0 10454    10777 TXH +3 00000 0 10536
                    CHNCOM.(0)                                                      037  LM00057
 11000 TSX +0 07400 4 00007    11001 TXH +3 00000 0 10352
                    O'E                                                             038  LM00058
 11002 TRA +0 02000 0 11016
                       FILTAB(FILTAB+2)=COMARG.(FILTAB+5)                           039  LM00059
 11003 CLA +0 50000 0 10203    11004 ADD +0 40000 0 10357    11005 STO +0 60100 0 14741    11006 TSX +0 07400 4 00010
 11007 TXH +3 00000 0 14741    11010 STO +0 60100 0 14741    11011 CLA +0 50000 0 10203    11012 ADD +0 40000 0 10354
 11013 PAX +0 73400 1 00000    11014 CLA +0 50000 0 14741    11015 STO +0 60100 1 10203
                    E'L                                                             040  LM00060
      IN00          CONTINUE                                                        041  LM00061
 11016 TRA +0 02000 0 10717
                 O'E                                                                042  LM00062
 11017 TRA +0 02000 0 11063
                    NAMTYP=0B                                                       043  LM00063
 11020 CLA +0 50000 0 10352    11021 STO +0 60100 0 10227
                    T'H IN01, FOR FILTAB=0,1,COMARG.(FILTAB+4).A.77K.E.77K          044  LM00064
                1      .OR. FILTAB.E.FILTBZ                                         044  LM00065
 11022 CLA +0 50000 0 10352    11023 STO +0 60100 0 10203    11024 TRA +0 02000 0 11030    11025 CLA +0 50000 0 10203
 11026 ADD +0 40000 0 10353    11027 STO +0 60100 0 10203    11030 CLA +0 50000 0 10203    11031 SUB +0 40200 0 10205
 11032 TZE +0 10000 0 11063    11033 CLA +0 50000 0 10203    11034 ADD +0 40000 0 10356    11035 STO +0 60100 0 14741
 11036 TSX +0 07400 4 00010    11037 TXH +3 00000 0 14741    11040 STO +0 60100 0 14741    11041 CAL -0 50000 0 14741
 11042 ANA -0 32000 0 10374    11043 SLW +0 60200 0 14741    11044 CLA +0 50000 0 14741    11045 SUB +0 40200 0 10374
 11046 TZE +0 10000 0 11063
      IN01       FILTAB(FILTAB+1)=COMARG.(FILTAB+4)                                 045  LM00066
 11047 CLA +0 50000 0 10203    11050 ADD +0 40000 0 10356    11051 STO +0 60100 0 14741    11052 TSX +0 07400 4 00010
 11053 TXH +3 00000 0 14741    11054 STO +0 60100 0 14741    11055 CLA +0 50000 0 10203    11056 ADD +0 40000 0 10353
 11057 PAX +0 73400 1 00000    11060 CLA +0 50000 0 14741    11061 STO +0 60100 1 10203    11062 TRA +0 02000 0 11025
                 E'L                                                                046  LM00067
                 WHOAMI.(WHBUF(8)...8)                                              047  LM00071
 11063 TSX +0 07400 4 00034    11064 TIX +2 10361 0 10337
                   D'N WHBUF(8)                                                     048  LM00072
                   D'N TFIL(2)                                                      049  LM00073
                 TM1=WHBUF(8)                                                       050  LM00074
 11065 CLA +0 50000 0 10337    11066 STO +0 60100 0 00057
                 TM2=WHBUF(7)                                                       051  LM00075
 11067 CLA +0 50000 0 10340    11070 STO +0 60100 0 00056
                   EQUIVALENCE (TM1,TFIL(0)), (TM2,TFIL(1))                         052  LM00076
                 W'R KEY.E.$COMBIN$ .OR. KEY.E.$     C$                             053  LM00080
 11071 CLA +0 50000 0 10223    11072 SUB +0 40200 0 10506    11073 TZE +0 10000 0 11077    11074 CLA +0 50000 0 10223
 11075 SUB +0 40200 0 10414    11076 TNZ -0 10000 0 11274
                 FSTATE.(NM1,NM2,FSBUF(8)...8,CM01)                                 054  LM00081
 11077 TSX +0 07400 4 00016    11100 TXH +3 00000 0 00054    11101 TXH +3 00000 0 00053    11102 TIX +2 10361 0 00730
 11103 TXH +3 00000 0 00742
                 W'R NAMTYP                                                         055  LM00082
 11104 NZT -0 52000 0 10227    11105 TRA +0 02000 0 11135
                 T'H CMP1A, FOR I=1,2,I.G.FILTAB                                    056  LM00083
 11106 CLA +0 50000 0 10353    11107 STO +0 60100 0 10217    11110 TRA +0 02000 0 11114    11111 CLA +0 50000 0 10217
 11112 ADD +0 40000 0 10354    11113 STO +0 60100 0 10217    11114 CLA +0 50000 0 10217    11115 SUB +0 40200 0 10203
 11116 TZE +0 10000 0 11120    11117 TPL +0 12000 0 11134
      CMP1A      W'R FILTAB(I).E.NM1.AND.FILTAB(I+1).E.NM2, T'O CM01                057  LM00084
 11120 CLA +0 50000 0 10217    11121 ADD +0 40000 0 10353    11122 PAX +0 73400 1 00000    11123 CLA +0 50000 1 10203
 11124 SUB +0 40200 0 00053    11125 TNZ -0 10000 0 11133    11126 LXA +0 53400 1 10217    11127 CLA +0 50000 1 10203
 11130 SUB +0 40200 0 00054    11131 TNZ -0 10000 0 11133    11132 TRA +0 02000 0 00742    11133 TRA +0 02000 0 11111
                 O'E                                                                058  LM00085
 11134 TRA +0 02000 0 11155
                 T'H CMP1B, FOR I = 1,1,I.G.FILTAB                                  059  LM00086
 11135 CLA +0 50000 0 10353    11136 STO +0 60100 0 10217    11137 TRA +0 02000 0 11143    11140 CLA +0 50000 0 10217
 11141 ADD +0 40000 0 10353    11142 STO +0 60100 0 10217    11143 CLA +0 50000 0 10217    11144 SUB +0 40200 0 10203
 11145 TZE +0 10000 0 11147    11146 TPL +0 12000 0 11155
      CMP1B      W'R FILTAB(I).E.NM1, T'O CM01                                      060  LM00087
 11147 LXA +0 53400 1 10217    11150 CLA +0 50000 1 10203    11151 SUB +0 40200 0 00054    11152 TNZ -0 10000 0 11154
 11153 TRA +0 02000 0 00742    11154 TRA +0 02000 0 11140
                 E'L                                                                061  LM00088
                 PRMESS.($ YOU HAVE NOT INCLUDED THE OLD$,NM1,NM2,$.$)              062  LM00089
 11155 TSX +0 07400 4 00027    11156 TXH +3 00000 0 10524    11157 TXH +3 00000 0 10411    11160 TXH +3 00000 0 10532
 11161 TXH +3 00000 0 10535    11162 TXH +3 00000 0 10427    11163 TXH +3 00000 0 00054    11164 TXH +3 00000 0 00053
 11165 TXH +3 00000 0 10431
                 PRMESA.($ IS THIS OK,$)                                            063  LM00090
 11166 TSX +0 07400 4 00026    11167 TXH +3 00000 0 10474    11170 TXH +3 00000 0 10430
                 W'R .NOT. YES.(0), T'O FORGET                                      064  LM00091
 11171 TSX +0 07400 4 00050    11172 TXH +3 00000 0 10352    11173 TNZ -0 10000 0 11175    11174 TRA +0 02000 0 00750
      CM01       CONTINUE                                                           065  LM00092
                 W'R NAMTYP                                                         066  LM00093
 11175 NZT -0 52000 0 10227    11176 TRA +0 02000 0 11232
                 T'H CM03A, FOR FILTBP=1,2,FILTBP.G.FILTAB                          067  LM00094
 11177 CLA +0 50000 0 10353    11200 STO +0 60100 0 10204    11201 TRA +0 02000 0 11205    11202 CLA +0 50000 0 10204
 11203 ADD +0 40000 0 10354    11204 STO +0 60100 0 10204    11205 CLA +0 50000 0 10204    11206 SUB +0 40200 0 10203
 11207 TZE +0 10000 0 11211    11210 TPL +0 12000 0 11231
                 W'R .NOT.CPFIL.(FILTAB(FILTBP),FILTAB(FILTBP+1)),                  068  LM00095
                1   PRNTER.(61K)                                                    068  LM00096
 11211 CLA +0 50000 0 10204    11212 ADD +0 40000 0 10353    11213 SUB +0 40200 0 11214    11214 TXH +3 00000 0 10203
 11215 STA +0 62100 0 11224    11216 CLA +0 50000 0 10204    11217 SUB +0 40200 0 11220    11220 TXH +3 00000 0 10203
 11221 STA +0 62100 0 11223    11222 TSX +0 07400 4 00040    11223 TXH +3 00000 0 00000    11224 TXH +3 00000 0 00000
 11225 TNZ -0 10000 0 11230    11226 TSX +0 07400 4 00030    11227 TXH +3 00000 0 10372
      CM03A      CONTINUE                                                           069  LM00097
 11230 TRA +0 02000 0 11202
                 O'E                                                                070  LM00098
 11231 TRA +0 02000 0 11257
                 T'H CM03, FOR FILTBP=1,1,FILTBP.G.FILTAB                           071  LM00099
 11232 CLA +0 50000 0 10353    11233 STO +0 60100 0 10204    11234 TRA +0 02000 0 11240    11235 CLA +0 50000 0 10204
 11236 ADD +0 40000 0 10353    11237 STO +0 60100 0 10204    11240 CLA +0 50000 0 10204    11241 SUB +0 40200 0 10203
 11242 TZE +0 10000 0 11244    11243 TPL +0 12000 0 11257
                 W'R .NOT. CPFIL.(FILTAB(FILTBP),NM2),                              072  LM00100
                1   PRNTER.(61K)                                                    072  LM00101
 11244 CLA +0 50000 0 10204    11245 SUB +0 40200 0 11246    11246 TXH +3 00000 0 10203    11247 STA +0 62100 0 11251
 11250 TSX +0 07400 4 00040    11251 TXH +3 00000 0 00000    11252 TXH +3 00000 0 00053    11253 TNZ -0 10000 0 11256
 11254 TSX +0 07400 4 00030    11255 TXH +3 00000 0 10372
      CM03       CONTINUE                                                           073  LM00102
 11256 TRA +0 02000 0 11235
                 E'L                                                                074  LM00103
                 W'R TMOPSW, CLS.(NM1,NM2)                                          075  LM00104
 11257 NZT -0 52000 0 10332    11260 TRA +0 02000 0 11264    11261 TSX +0 07400 4 00036    11262 TXH +3 00000 0 00054
 11263 TXH +3 00000 0 00053
                 T'O EXT                                                            076  LM00105
 11264 TRA +0 02000 0 00746
      FORGET     PRMESS.($NOTHING DONE.$)                                           077  LM00106
 11265 TSX +0 07400 4 00027    11266 TXH +3 00000 0 10443    11267 TXH +3 00000 0 10425    11270 TXH +3 00000 0 10431
                 CHNCOM.(0)                                                         078  LM00107
 11271 TSX +0 07400 4 00007    11272 TXH +3 00000 0 10352
                 O'R KEY.E.$ TABLE$ .OR. KEY.E.$     T$                             079  LM00111
 11273 TRA +0 02000 0 12436    11274 CLA +0 50000 0 10223    11275 SUB +0 40200 0 10512    11276 TZE +0 10000 0 11302
 11277 CLA +0 50000 0 10223    11300 SUB +0 40200 0 10522    11301 TNZ -0 10000 0 11413
                 COPYSW=0B                                                          080  LM00112
 11302 CLA +0 50000 0 10352    11303 STO +0 60100 0 06737
                 PRSSW=0B                                                           081  LM00113
 11304 CLA +0 50000 0 10352    11305 STO +0 60100 0 10273
                 V'S BL = 605757575757K                                             082  LM00114
 01005     -2 05757 5 75757
                 V'S CR = 555757575757K                                             083  LM00115
 07622     -1 55757 5 75757
      TB01       W'R FILTAB.E.0                                                     084  LM00116
 11306 CLA +0 50000 0 10203    11307 SUB +0 40200 0 10352    11310 TNZ -0 10000 0 11346
                           GNEXT.(TFNF)                                             085  LM00117
 11311 TSX +0 07400 4 00045    11312 TXH +3 00000 0 00774
                    W'R FIRST                                                       086  LM00118
 11313 NZT -0 52000 0 10206    11314 TRA +0 02000 0 11345
                       FIRST = 0B                                                   087  LM00119
 11315 CLA +0 50000 0 10352    11316 STO +0 60100 0 10206
                       W'R TOFF, OFF.($ARCHIV$,$OUTPUT$)                            088  LM00120
 11317 NZT -0 52000 0 10333    11320 TRA +0 02000 0 11324    11321 TSX +0 07400 4 00025    11322 TXH +3 00000 0 10410
 11323 TXH +3 00000 0 10452
                       W'R TON, OFFON.($ARCHIV$,$OUTPUT$)                           089  LM00121
 11324 NZT -0 52000 0 10334    11325 TRA +0 02000 0 11331    11326 TSX +0 07400 4 00024    11327 TXH +3 00000 0 10410
 11330 TXH +3 00000 0 10452
                           PRMESS.                                                  090  LM00122
 11331 TSX +0 07400 4 00027
                       PRMESS.($ ***$,NM1,BL,NM2,BL,BL,DATE,BL,TIME)                091  LM00123
 11332 TSX +0 07400 4 00027    11333 TXH +3 00000 0 10503    11334 TXH +3 00000 0 00054    11335 TXH +3 00000 0 01005
 11336 TXH +3 00000 0 00053    11337 TXH +3 00000 0 01005    11340 TXH +3 00000 0 01005    11341 TXH +3 00000 0 07624
 11342 TXH +3 00000 0 01005    11343 TXH +3 00000 0 10331
                      PRMESS.                                                       092  LM00124
 11344 TSX +0 07400 4 00027
                    E'L                                                             093  LM00125
                 BOOLEAN FIRST                                                      094  LM00126
                 V'S FIRST = 1B                                                     095  LM00127
 10206     +0 00000 0 00001
                 O'E                                                                096  LM00128
 11345 TRA +0 02000 0 11366
                      SEARCH.(TFNF)                                                 097  LM00129
 11346 TSX +0 07400 4 00047    11347 TXH +3 00000 0 00774
                       W'R FIRST                                                    098  LM00130
 11350 NZT -0 52000 0 10206    11351 TRA +0 02000 0 11366
                      FIRST = 0B                                                    099  LM00131
 11352 CLA +0 50000 0 10352    11353 STO +0 60100 0 10206
                           W'R TOFF, OFF.($ARCHIV$,$OUTPUT$)                        100  LM00132
 11354 NZT -0 52000 0 10333    11355 TRA +0 02000 0 11361    11356 TSX +0 07400 4 00025    11357 TXH +3 00000 0 10410
 11360 TXH +3 00000 0 10452
                           W'R TON, OFFON.($ARCHIV$,$OUTPUT$)                       101  LM00133
 11361 NZT -0 52000 0 10334    11362 TRA +0 02000 0 11366    11363 TSX +0 07400 4 00024    11364 TXH +3 00000 0 10410
 11365 TXH +3 00000 0 10452
                      E'L                                                           102  LM00134
                 E'L                                                                103  LM00135
                 TEMP = INF2-INF1                                                   104  LM00136
 11366 CLA +0 50000 0 10216    11367 SUB +0 40200 0 10215    11370 STO +0 60100 0 10330
                 PRMESS.(BL,PRLNMK(INF1),BL,PRLNMK(INF1-1)...TEMP)                  105  LM00137
 11371 CLA +0 50000 0 10215    11372 SUB +0 40200 0 10353    11373 SUB +0 40200 0 11374    11374 TXH +3 00000 0 10272
 11375 STA +0 62100 0 11406    11376 CLA +0 50000 0 10215    11377 SUB +0 40200 0 11400    11400 TXH +3 00000 0 10272
 11401 STA +0 62100 0 11404    11402 TSX +0 07400 4 00027    11403 TXH +3 00000 0 01005    11404 TXH +3 00000 0 00000
 11405 TXH +3 00000 0 01005    11406 TIX +2 10330 0 00000
                 T'O TB01                                                           106  LM00138
 11407 TRA +0 02000 0 00773
      TFNF       PRMESS.                                                            107  LM00140
 11410 TSX +0 07400 4 00027
                 T'O FNF                                                            108  LM00141
 11411 TRA +0 02000 0 00747
                 O'R KEY.E.$DELETE$ .OR. KEY.E.$     D$                             109  LM00145
 11412 TRA +0 02000 0 12436    11413 CLA +0 50000 0 10223    11414 SUB +0 40200 0 10507    11415 TZE +0 10000 0 11421
 11416 CLA +0 50000 0 10223    11417 SUB +0 40200 0 10416    11420 TNZ -0 10000 0 11437
      DL01       COPYSW=1B                                                          110  LM00146
 11421 CLA +0 50000 0 10353    11422 STO +0 60100 0 06737
                 PRSSW=1B                                                           111  LM00147
 11423 CLA +0 50000 0 10353    11424 STO +0 60100 0 10273
                 WMRKSW=1B                                                          112  LM00148
 11425 CLA +0 50000 0 10353    11426 STO +0 60100 0 10350
                 SEARCH.(REN)                                                       113  LM00149
 11427 TSX +0 07400 4 00047    11430 TXH +3 00000 0 00761
                 COPYSW=0B                                                          114  LM00150
 11431 CLA +0 50000 0 10352    11432 STO +0 60100 0 06737
                 GNEXT.(REN)                                                        115  LM00151
 11433 TSX +0 07400 4 00045    11434 TXH +3 00000 0 00761
                 T'O DL01                                                           116  LM00152
 11435 TRA +0 02000 0 00744
                 O'R KEY.E.$XTRACT$ .OR. KEY.E.$     X$ .OR. KEY.E.$    XT$         117  LM00156
 11436 TRA +0 02000 0 12436    11437 CLA +0 50000 0 10223    11440 SUB +0 40200 0 10515    11441 TZE +0 10000 0 11450
 11442 CLA +0 50000 0 10223    11443 SUB +0 40200 0 10514    11444 TZE +0 10000 0 11450    11445 CLA +0 50000 0 10223
 11446 SUB +0 40200 0 10542    11447 TNZ -0 10000 0 11535
      XT01       COPYSW=0B                                                          118  LM00157
 11450 CLA +0 50000 0 10352    11451 STO +0 60100 0 06737
                 PRSSW=1B                                                           119  LM00158
 11452 CLA +0 50000 0 10353    11453 STO +0 60100 0 10273
                 W'R FILTAB.NE.0                                                    120  LM00159
 11454 CLA +0 50000 0 10203    11455 SUB +0 40200 0 10352    11456 TZE +0 10000 0 11462
                      SEARCH.(FNF)                                                  121  LM00160
 11457 TSX +0 07400 4 00047    11460 TXH +3 00000 0 00747
                 O'E                                                                122  LM00161
 11461 TRA +0 02000 0 11466
                      W'R .NOT. GOTNXT, GNEXT.(FNF)                                 123  LM00162
 11462 ZET +0 52000 0 10213    11463 TRA +0 02000 0 11466    11464 TSX +0 07400 4 00045    11465 TXH +3 00000 0 00747
                 E'L                                                                124  LM00163
                 NW1=FLN1.(PRLNMK)                                                  125  LM00164
 11466 TSX +0 07400 4 00043    11467 TXH +3 00000 0 10272    11470 STO +0 60100 0 10230
                 NW2=FLN2.(PRLNMK)                                                  126  LM00165
 11471 TSX +0 07400 4 00044    11472 TXH +3 00000 0 10272    11473 STO +0 60100 0 10231
                 COPYSW=1B                                                          127  LM00166
 11474 CLA +0 50000 0 10353    11475 STO +0 60100 0 06737
                 WMRKSW=0B                                                          128  LM00167
 11476 CLA +0 50000 0 10352    11477 STO +0 60100 0 10350
                 GNEXT.(XT02)                                                       129  LM00168
 11500 TSX +0 07400 4 00045    11501 TXH +3 00000 0 01000
                 GOTNXT=1B                                                          130  LM00169
 11502 CLA +0 50000 0 10353    11503 STO +0 60100 0 10213
                 T'O XT03                                                           131  LM00170
 11504 TRA +0 02000 0 01001
      XT02       NAMO=1B                                                            132  LM00171
 11505 CLA +0 50000 0 10353    11506 STO +0 60100 0 10226
      XT03       W'R CLS.(NW1,NW2)                                                  133  LM00172
 11507 TSX +0 07400 4 00036    11510 TXH +3 00000 0 10230    11511 TXH +3 00000 0 10231    11512 TZE +0 10000 0 11530
                      W'R KEY.E.$    XT$, CHFILE.(NW1,NW2,001K,-0,-0)               134  LM00173
 11513 CLA +0 50000 0 10223    11514 SUB +0 40200 0 10515    11515 TNZ -0 10000 0 11530    11516 CLS +0 50200 0 10352
 11517 STO +0 60100 0 14741    11520 CLS +0 50200 0 10352    11521 STO +0 60100 0 14742    11522 TSX +0 07400 4 00006
 11523 TXH +3 00000 0 10230    11524 TXH +3 00000 0 10231    11525 TXH +3 00000 0 10353    11526 TXH +3 00000 0 14742
 11527 TXH +3 00000 0 14741
                 E'L                                                                135  LM00174
                 W'R NAMO,T'O FNF                                                   136  LM00175
 11530 NZT -0 52000 0 10226    11531 TRA +0 02000 0 11533    11532 TRA +0 02000 0 00747
                 T'O XT01                                                           137  LM00176
 11533 TRA +0 02000 0 00777
                 O'R KEY.E.$REPLAC$ .OR. KEY.E.$     R$ .OR. KEY.E.$    RD$         138  LM00180
 11534 TRA +0 02000 0 12436    11535 CLA +0 50000 0 10223    11536 SUB +0 40200 0 10505    11537 TZE +0 10000 0 11546
 11540 CLA +0 50000 0 10223    11541 SUB +0 40200 0 10511    11542 TZE +0 10000 0 11546    11543 CLA +0 50000 0 10223
 11544 SUB +0 40200 0 10455    11545 TNZ -0 10000 0 12017
      RP01       COPYSW=1B                                                          139  LM00181
 11546 CLA +0 50000 0 10353    11547 STO +0 60100 0 06737
                 PRSSW=1B                                                           140  LM00182
 11550 CLA +0 50000 0 10353    11551 STO +0 60100 0 10273
                 WMRKSW=1B                                                          141  LM00183
 11552 CLA +0 50000 0 10353    11553 STO +0 60100 0 10350
                 W'R FILTAB.NE.0                                                    142  LM00184
 11554 CLA +0 50000 0 10203    11555 SUB +0 40200 0 10352    11556 TZE +0 10000 0 11562
                      SEARCH.(RP02)                                                 143  LM00185
 11557 TSX +0 07400 4 00047    11560 TXH +3 00000 0 00763
                 O'E                                                                144  LM00186
 11561 TRA +0 02000 0 11566
                      W'R .NOT. GOTNXT, GNEXT.(RP02)                                145  LM00187
 11562 ZET +0 52000 0 10213    11563 TRA +0 02000 0 11566    11564 TSX +0 07400 4 00045    11565 TXH +3 00000 0 00763
                 E'L                                                                146  LM00188
                 GOTNXT=0B                                                          147  LM00189
 11566 CLA +0 50000 0 10352    11567 STO +0 60100 0 10213
                 W'R .NOT. CPFIL.(FLN1.(PRLNMK),FLN2.(PRLNMK))                      148  LM00190
 11570 TSX +0 07400 4 00044    11571 TXH +3 00000 0 10272    11572 STO +0 60100 0 14742    11573 TSX +0 07400 4 00043
 11574 TXH +3 00000 0 10272    11575 STO +0 60100 0 14741    11576 TSX +0 07400 4 00040    11577 TXH +3 00000 0 14741
 11600 TXH +3 00000 0 14742    11601 TNZ -0 10000 0 11607
                      PRNTER.(61K)                                                  149  LM00191
 11602 TSX +0 07400 4 00030    11603 TXH +3 00000 0 10372
                      COPYSW=1B                                                     150  LM00192
 11604 CLA +0 50000 0 10353    11605 STO +0 60100 0 06737
                 O'E                                                                151  LM00193
 11606 TRA +0 02000 0 11630
                 W'R DELST.L.DELSTZ                                                 152  LM00194
 11607 CLA +0 50000 0 10137    11610 SUB +0 40200 0 10140    11611 TZE +0 10000 0 11626    11612 TPL +0 12000 0 11626
                      DELST=DELST+1                                                 153  LM00195
 11613 CLA +0 50000 0 10137    11614 ADD +0 40000 0 10353    11615 STO +0 60100 0 10137
                      DELST1(DELST)=FLN1.(PRLNMK)                                   154  LM00196
 11616 TSX +0 07400 4 00043    11617 TXH +3 00000 0 10272    11620 LXA +0 53400 1 10137    11621 STO +0 60100 1 07771
                      DELST2(DELST)=FLN2.(PRLNMK)                                   155  LM00197
 11622 TSX +0 07400 4 00044    11623 TXH +3 00000 0 10272    11624 LXA +0 53400 1 10137    11625 STO +0 60100 1 10136
                 E'L                                                                156  LM00198
                      COPYSW=0B                                                     157  LM00199
 11626 CLA +0 50000 0 10352    11627 STO +0 60100 0 06737
                 E'L                                                                158  LM00200
                 GNEXT.(RP02)                                                       159  LM00201
 11630 TSX +0 07400 4 00045    11631 TXH +3 00000 0 00763
                 GOTNXT=1B                                                          160  LM00202
 11632 CLA +0 50000 0 10353    11633 STO +0 60100 0 10213
                 T'O RP01                                                           161  LM00203
 11634 TRA +0 02000 0 00762
      RP02       W'R NAMTYP                                                         162  LM00204
 11635 NZT -0 52000 0 10227    11636 TRA +0 02000 0 11642
                    TYP=1                                                           163  LM00205
 11637 CLA +0 50000 0 10353    11640 STO +0 60100 0 10335
                 O'E                                                                164  LM00206
 11641 TRA +0 02000 0 11644
                    TYP=0                                                           165  LM00207
 11642 CLA +0 50000 0 10352    11643 STO +0 60100 0 10335
                 E'L                                                                166  LM00208
                 T'H RP03, FOR JI=1,1,JI+TYP*(JI-1).G.FILTAB                        167  LM00209
 11644 CLA +0 50000 0 10353    11645 STO +0 60100 0 10220    11646 TRA +0 02000 0 11652    11647 CLA +0 50000 0 10220
 11650 ADD +0 40000 0 10353    11651 STO +0 60100 0 10220    11652 CLA +0 50000 0 10220    11653 SUB +0 40200 0 10353
 11654 XCA +0 13100 0 00000    11655 MPY +0 20000 0 10335    11656 XCA +0 13100 0 00000    11657 ADD +0 40000 0 10220
 11660 SUB +0 40200 0 10203    11661 TZE +0 10000 0 11663    11662 TPL +0 12000 0 11760
                 W'R NAMTYP                                                         168  LM00210
 11663 NZT -0 52000 0 10227    11664 TRA +0 02000 0 11700
                    JJ=2*JI-1                                                       169  LM00211
 11665 LDQ +0 56000 0 10354    11666 MPY +0 20000 0 10220    11667 XCA +0 13100 0 00000    11670 SUB +0 40200 0 10353
 11671 STO +0 60100 0 10221
                    CNM2=FILTAB(JJ+1)                                               170  LM00212
 11672 CLA +0 50000 0 10221    11673 ADD +0 40000 0 10353    11674 PAX +0 73400 2 00000    11675 CLA +0 50000 2 10203
 11676 STO +0 60100 0 06736
                 O'E                                                                171  LM00213
 11677 TRA +0 02000 0 11704
                    JJ=JI                                                           172  LM00214
 11700 CLA +0 50000 0 10220    11701 STO +0 60100 0 10221
                    CNM2=NM2                                                        173  LM00215
 11702 CLA +0 50000 0 00053    11703 STO +0 60100 0 06736
                 E'L                                                                174  LM00216
                 W'R .NOT. FILFND(JI)                                               175  LM00217
 11704 LXA +0 53400 1 10220    11705 ZET +0 52000 1 10162    11706 TRA +0 02000 0 11757
                 PRMESS.(FILTAB(JJ),BL,CNM2,$ ADDED$,606346605757K,NM1,BL,NM2)      176  LM00218
 11707 CLA +0 50000 0 10221    11710 SUB +0 40200 0 11711    11711 TXH +3 00000 0 10203    11712 STA +0 62100 0 11714
 11713 TSX +0 07400 4 00027    11714 TXH +3 00000 0 00000    11715 TXH +3 00000 0 01005    11716 TXH +3 00000 0 06736
 11717 TXH +3 00000 0 10466    11720 TXH +3 00000 0 10523    11721 TXH +3 00000 0 00054    11722 TXH +3 00000 0 01005
 11723 TXH +3 00000 0 00053
                      W'R .NOT. CPFIL.(FILTAB(JJ),CNM2)                             177  LM00219
 11724 CLA +0 50000 0 10221    11725 SUB +0 40200 0 11726    11726 TXH +3 00000 0 10203    11727 STA +0 62100 0 11731
 11730 TSX +0 07400 4 00040    11731 TXH +3 00000 0 00000    11732 TXH +3 00000 0 06736    11733 TNZ -0 10000 0 11737
                           PRNTER.(61K)                                             178  LM00220
 11734 TSX +0 07400 4 00030    11735 TXH +3 00000 0 10372
                      O'E                                                           179  LM00221
 11736 TRA +0 02000 0 11757
                           FILFND(JI)=1B                                            180  LM00222
 11737 LXA +0 53400 1 10220    11740 CLA +0 50000 0 10353    11741 STO +0 60100 1 10162
                      W'R DELST.L.DELSTZ                                            181  LM00223
 11742 CLA +0 50000 0 10137    11743 SUB +0 40200 0 10140    11744 TZE +0 10000 0 11757    11745 TPL +0 12000 0 11757
                           DELST=DELST+1                                            182  LM00224
 11746 CLA +0 50000 0 10137    11747 ADD +0 40000 0 10353    11750 STO +0 60100 0 10137
                           DELST1(DELST)=FILTAB(JJ)                                 183  LM00225
 11751 LXA +0 53400 1 10137    11752 LXA +0 53400 2 10221    11753 CLA +0 50000 2 10203    11754 STO +0 60100 1 07771
                           DELST2(DELST)=CNM2                                       184  LM00226
 11755 CLA +0 50000 0 06736    11756 STO +0 60100 1 10136
                      E'L                                                           185  LM00227
                      E'L                                                           186  LM00228
      RP03       E'L                                                                187  LM00229
 11757 TRA +0 02000 0 11647
                 W'R CLS.(NM1,NM2)                                                  188  LM00230
 11760 TSX +0 07400 4 00036    11761 TXH +3 00000 0 00054    11762 TXH +3 00000 0 00053    11763 TZE +0 10000 0 12015
                 W'R KEY.E.$    RD$                                                 189  LM00231
 11764 CLA +0 50000 0 10223    11765 SUB +0 40200 0 10505    11766 TNZ -0 10000 0 12015
                      T'H RPD01, FOR I=1,1,I.G.DELST                                190  LM00232
 11767 CLA +0 50000 0 10353    11770 STO +0 60100 0 10217    11771 TRA +0 02000 0 11775    11772 CLA +0 50000 0 10217
 11773 ADD +0 40000 0 10353    11774 STO +0 60100 0 10217    11775 CLA +0 50000 0 10217    11776 SUB +0 40200 0 10137
 11777 TZE +0 10000 0 12001    12000 TPL +0 12000 0 12015
      RPD01                DELT.(DELST1(I),DELST2(I))                               191  LM00233
 12001 CLA +0 50000 0 10217    12002 SUB +0 40200 0 12003    12003 TXH +3 00000 0 10136    12004 STA +0 62100 0 12013
 12005 CLA +0 50000 0 10217    12006 SUB +0 40200 0 12007    12007 TXH +3 00000 0 07771    12010 STA +0 62100 0 12012
 12011 TSX +0 07400 4 00042    12012 TXH +3 00000 0 00000    12013 TXH +3 00000 0 00000    12014 TRA +0 02000 0 11772
                 E'L                                                                192  LM00234
                 E'L                                                                193  LM00235
                 T'O EXT                                                            194  LM00236
 12015 TRA +0 02000 0 00746
                 BOOLEAN GOTNXT                                                     195  LM00237
                 D'N DELST1(100), DELST2(100)                                       196  LM00238
                 V'S DELSTZ=100                                                     197  LM00239
 10140     +0 00000 0 00144
                 O'R KEY.E.$UPDATE$ .OR. KEY.E.$     U$                             198  LM00243
 12016 TRA +0 02000 0 12436    12017 CLA +0 50000 0 10223    12020 SUB +0 40200 0 10513    12021 TZE +0 10000 0 12025
 12022 CLA +0 50000 0 10223    12023 SUB +0 40200 0 10537    12024 TNZ -0 10000 0 12144
      UP01       COPYSW=1B                                                          199  LM00244
 12025 CLA +0 50000 0 10353    12026 STO +0 60100 0 06737
                 PRSSW=1B                                                           200  LM00245
 12027 CLA +0 50000 0 10353    12030 STO +0 60100 0 10273
                 WMRKSW=1B                                                          201  LM00246
 12031 CLA +0 50000 0 10353    12032 STO +0 60100 0 10350
                 W'R FILTAB.NE.0                                                    202  LM00247
 12033 CLA +0 50000 0 10203    12034 SUB +0 40200 0 10352    12035 TZE +0 10000 0 12041
                      SEARCH.(REN)                                                  203  LM00248
 12036 TSX +0 07400 4 00047    12037 TXH +3 00000 0 00761
                 O'E                                                                204  LM00249
 12040 TRA +0 02000 0 12045
                      W'R .NOT. GOTNXT, GNEXT.(REN)                                 205  LM00250
 12041 ZET +0 52000 0 10213    12042 TRA +0 02000 0 12045    12043 TSX +0 07400 4 00045    12044 TXH +3 00000 0 00761
                 E'L                                                                206  LM00251
                 FSTATE.(FLN1.(PRLNMK),FLN2.(PRLNMK),FSBUF(8)...8,UP02)             207  LM00252
 12045 TSX +0 07400 4 00044    12046 TXH +3 00000 0 10272    12047 STO +0 60100 0 14742    12050 TSX +0 07400 4 00043
 12051 TXH +3 00000 0 10272    12052 STO +0 60100 0 14741    12053 TSX +0 07400 4 00016    12054 TXH +3 00000 0 14741
 12055 TXH +3 00000 0 14742    12056 TIX +2 10361 0 00730    12057 TXH +3 00000 0 00776
                 W'R FSBUF(2).A.377777777777K.G.DATTM.(PRLNMK).A.377777777777K      208  LM00253
 12060 TSX +0 07400 4 00041    12061 TXH +3 00000 0 10272    12062 STO +0 60100 0 14742    12063 CAL -0 50000 0 14742
 12064 ANA -0 32000 0 10432    12065 SLW +0 60200 0 14742    12066 CAL -0 50000 0 00736    12067 ANA -0 32000 0 10432
 12070 SLW +0 60200 0 14741    12071 CLA +0 50000 0 14741    12072 SUB +0 40200 0 14742    12073 TZE +0 10000 0 12134
 12074 TMI -0 12000 0 12134
                      TEMP = INF2-INF1                                              209  LM00254
 12075 CLA +0 50000 0 10216    12076 SUB +0 40200 0 10215    12077 STO +0 60100 0 10330
                      PRMESS.(PRLNMK(INF1),BL,PRLNMK(INF1-1)...TEMP)                210  LM00255
 12100 CLA +0 50000 0 10215    12101 SUB +0 40200 0 10353    12102 SUB +0 40200 0 12103    12103 TXH +3 00000 0 10272
 12104 STA +0 62100 0 12114    12105 CLA +0 50000 0 10215    12106 SUB +0 40200 0 12107    12107 TXH +3 00000 0 10272
 12110 STA +0 62100 0 12112    12111 TSX +0 07400 4 00027    12112 TXH +3 00000 0 00000    12113 TXH +3 00000 0 01005
 12114 TIX +2 10330 0 00000
                      COPYSW=0B                                                     211  LM00256
 12115 CLA +0 50000 0 10352    12116 STO +0 60100 0 06737
                      W'R .NOT. CPFIL.(FLN1.(PRLNMK),FLN2.(PRLNMK)), COPYSW=1B      212  LM00257
 12117 TSX +0 07400 4 00044    12120 TXH +3 00000 0 10272    12121 STO +0 60100 0 14742    12122 TSX +0 07400 4 00043
 12123 TXH +3 00000 0 10272    12124 STO +0 60100 0 14741    12125 TSX +0 07400 4 00040    12126 TXH +3 00000 0 14741
 12127 TXH +3 00000 0 14742    12130 TNZ -0 10000 0 12133    12131 CLA +0 50000 0 10353    12132 STO +0 60100 0 06737
                 O'E                                                                213  LM00258
 12133 TRA +0 02000 0 12136
      UP02            COPYSW=1B                                                     214  LM00259
 12134 CLA +0 50000 0 10353    12135 STO +0 60100 0 06737
                 E'L                                                                215  LM00260
                 GNEXT.(REN)                                                        216  LM00261
 12136 TSX +0 07400 4 00045    12137 TXH +3 00000 0 00761
                 GOTNXT=1B                                                          217  LM00262
 12140 CLA +0 50000 0 10353    12141 STO +0 60100 0 10213
                 T'O UP01                                                           218  LM00263
 12142 TRA +0 02000 0 00775
                 O'R KEY .E.$ PRINT$ .OR. KEY.E.$     P$                            219  LM00267
 12143 TRA +0 02000 0 12436    12144 CLA +0 50000 0 10223    12145 SUB +0 40200 0 10510    12146 TZE +0 10000 0 12152
 12147 CLA +0 50000 0 10223    12150 SUB +0 40200 0 10502    12151 TNZ -0 10000 0 12425
                 SAVBRK.                                                            220  LM00268
 12152 TSX +0 07400 4 00032
                 SETBRK.(EXT)                                                       221  LM00269
 12153 TSX +0 07400 4 00033    12154 TXH +3 00000 0 00746
      PRP1       COPYSW=0B                                                          222  LM00270
 12155 CLA +0 50000 0 10352    12156 STO +0 60100 0 06737
                 PRSSW=0B                                                           223  LM00271
 12157 CLA +0 50000 0 10352    12160 STO +0 60100 0 10273
                 W'R FILTAB.NE.0                                                    224  LM00272
 12161 CLA +0 50000 0 10203    12162 SUB +0 40200 0 10352    12163 TZE +0 10000 0 12167
                      SEARCH.(SPC)                                                  225  LM00273
 12164 TSX +0 07400 4 00047    12165 TXH +3 00000 0 00764
                 O'E                                                                226  LM00274
 12166 TRA +0 02000 0 12171
                      GNEXT.(SPC)                                                   227  LM00275
 12167 TSX +0 07400 4 00045    12170 TXH +3 00000 0 00764
                 E'L                                                                228  LM00276
                 PRMESS.                                                            229  LM00277
 12171 TSX +0 07400 4 00027
                 TEMP = INF2-INF1 - 1                                               230  LM00278
 12172 CLA +0 50000 0 10216    12173 SUB +0 40200 0 10215    12174 SUB +0 40200 0 10353    12175 STO +0 60100 0 10330
                 PRMESS.(PRLNMK(INF1)...TEMP)                                       231  LM00279
 12176 CLA +0 50000 0 10215    12177 SUB +0 40200 0 12200    12200 TXH +3 00000 0 10272    12201 STA +0 62100 0 12203
 12202 TSX +0 07400 4 00027    12203 TIX +2 10330 0 00000
                 PRMESS.                                                            232  LM00280
 12204 TSX +0 07400 4 00027
                 CT=CNT.(PRLNMK)                                                    233  LM00281
 12205 TSX +0 07400 4 00037    12206 TXH +3 00000 0 10272    12207 STO +0 60100 0 07623
                 T'H PR02, FOR I=0,0,I.GE.CT                                        234  LM00282
 12210 CLA +0 50000 0 10352    12211 STO +0 60100 0 10217    12212 TRA +0 02000 0 12216    12213 CLA +0 50000 0 10217
 12214 ADD +0 40000 0 10352    12215 STO +0 60100 0 10217    12216 CLA +0 50000 0 10217    12217 SUB +0 40200 0 07623
 12220 TZE +0 10000 0 12421    12221 TPL +0 12000 0 12421
                      BFREAD.(NM1,NM2,PRTBUF(PRTZ)...1,                             235  LM00283
                1       FRMER,EOFCT,GERR)                                           235  LM00284
 12222 CLA +0 50000 0 10323    12223 SUB +0 40200 0 12224    12224 TXH +3 00000 0 10322    12225 STA +0 62100 0 12231
 12226 TSX +0 07400 4 00003    12227 TXH +3 00000 0 00054    12230 TXH +3 00000 0 00053    12231 TIX +2 10353 0 00000
 12232 TXH +3 00000 0 00751    12233 TXH +3 00000 0 10141    12234 TXH +3 00000 0 00752
                      I=I+1                                                         236  LM00285
 12235 CLA +0 50000 0 10217    12236 ADD +0 40000 0 10353    12237 STO +0 60100 0 10217
                      W'R PRTBUF(PRTZ).A.777777K6 .E. 777777K6                      237  LM00286
 12240 LXA +0 53400 1 10323    12241 CAL -0 50000 1 10322    12242 ANA -0 32000 0 10553    12243 SLW +0 60200 0 14742
 12244 CLA +0 50000 0 14742    12245 SUB +0 40200 0 10553    12246 TNZ -0 10000 0 12353
                           WCT=PRTBUF(PRTZ).A.777777K                               238  LM00287
 12247 CAL -0 50000 1 10322    12250 ANA -0 32000 0 10401    12251 SLW +0 60200 0 10336
                           W'R WCT.E.0,PRMESS.                                      239  LM00288
 12252 CLA +0 50000 0 10336    12253 SUB +0 40200 0 10352    12254 TNZ -0 10000 0 12256    12255 TSX +0 07400 4 00027
                           T'H PR01, FOR J=PRTZ,PRTZ,J.G.WCT                        240  LM00289
 12256 CLA +0 50000 0 10323    12257 STO +0 60100 0 10222    12260 TRA +0 02000 0 12264    12261 CLA +0 50000 0 10222
 12262 ADD +0 40000 0 10323    12263 STO +0 60100 0 10222    12264 CLA +0 50000 0 10222    12265 SUB +0 40200 0 10336
 12266 TZE +0 10000 0 12270    12267 TPL +0 12000 0 12314
                             BFREAD.(NM1,NM2,PRTBUF(PRTZ)...PRTZ,                   241  LM00290
                1              FRMER,EOFCT,GERR)                                    241  LM00291
 12270 CLA +0 50000 0 10323    12271 SUB +0 40200 0 12272    12272 TXH +3 00000 0 10322    12273 STA +0 62100 0 12277
 12274 TSX +0 07400 4 00003    12275 TXH +3 00000 0 00054    12276 TXH +3 00000 0 00053    12277 TIX +2 10323 0 00000
 12300 TXH +3 00000 0 00751    12301 TXH +3 00000 0 10141    12302 TXH +3 00000 0 00752
                 TEMP = -PRTZ                                                       242  LM00292
 12303 CLS +0 50200 0 10323    12304 STO +0 60100 0 10330
      PR01                 PRMESS.(PRTBUF(PRTZ)...TEMP)                             243  LM00293
 12305 CLA +0 50000 0 10323    12306 SUB +0 40200 0 12307    12307 TXH +3 00000 0 10322    12310 STA +0 62100 0 12312
 12311 TSX +0 07400 4 00027    12312 TIX +2 10330 0 00000    12313 TRA +0 02000 0 12261
                           RMNT=PRTZ-(J-WCT)                                        244  LM00294
 12314 CLA +0 50000 0 10222    12315 SUB +0 40200 0 10336    12316 CHS +0 76000 0 00002    12317 ADD +0 40000 0 10323
 12320 STO +0 60100 0 10326
                           W'R RMNT.NE.0                                            245  LM00295
 12321 CLA +0 50000 0 10326    12322 SUB +0 40200 0 10352    12323 TZE +0 10000 0 12347
                             BFREAD.(NM1,NM2,PRTBUF(RMNT)...RMNT,                   246  LM00296
                1              FRMER,EOFCT,GERR)                                    246  LM00297
 12324 CLA +0 50000 0 10326    12325 SUB +0 40200 0 12326    12326 TXH +3 00000 0 10322    12327 STA +0 62100 0 12333
 12330 TSX +0 07400 4 00003    12331 TXH +3 00000 0 00054    12332 TXH +3 00000 0 00053    12333 TIX +2 10326 0 00000
 12334 TXH +3 00000 0 00751    12335 TXH +3 00000 0 10141    12336 TXH +3 00000 0 00752
                           TEMP = -RMNT                                             247  LM00298
 12337 CLS +0 50200 0 10326    12340 STO +0 60100 0 10330
                           PRMESS.(PRTBUF(RMNT)...TEMP)                             248  LM00299
 12341 CLA +0 50000 0 10326    12342 SUB +0 40200 0 12343    12343 TXH +3 00000 0 10322    12344 STA +0 62100 0 12346
 12345 TSX +0 07400 4 00027    12346 TIX +2 10330 0 00000
                           E'L                                                      249  LM00300
                           I=I+WCT                                                  250  LM00301
 12347 CLA +0 50000 0 10217    12350 ADD +0 40000 0 10336    12351 STO +0 60100 0 10217
                      O'E                                                           251  LM00302
 12352 TRA +0 02000 0 12420
                           BFREAD.(NM1,NM2,PRTBUF(PRTZ-1)...13,                     252  LM00303
                1            FRMER,EOFCT,GERR)                                      252  LM00304
 12353 CLA +0 50000 0 10323    12354 SUB +0 40200 0 10353    12355 SUB +0 40200 0 12356    12356 TXH +3 00000 0 10322
 12357 STA +0 62100 0 12363    12360 TSX +0 07400 4 00003    12361 TXH +3 00000 0 00054    12362 TXH +3 00000 0 00053
 12363 TIX +2 10364 0 00000    12364 TXH +3 00000 0 00751    12365 TXH +3 00000 0 10141    12366 TXH +3 00000 0 00752
                      I=I+13                                                        253  LM00305
 12367 CLA +0 50000 0 10217    12370 ADD +0 40000 0 10364    12371 STO +0 60100 0 10217
                 TEMP1 = (PRTBUF(PRTZ-13).A.7777K8).V.60575757K                     254  LM00306
 12372 CLA +0 50000 0 10323    12373 SUB +0 40200 0 10364    12374 PAX +0 73400 1 00000    12375 CAL -0 50000 1 10322
 12376 ANA -0 32000 0 10552    12377 ORA -0 50100 0 10404    12400 SLW +0 60200 0 10327
                 TEMP = -11                                                         255  LM00307
 12401 CLS +0 50200 0 10362    12402 STO +0 60100 0 10330
                 PRMESS.(PRTBUF(PRTZ-12),TEMP1,PRTBUF(PRTZ)...TEMP)                 256  LM00308
 12403 CLA +0 50000 0 10323    12404 SUB +0 40200 0 12405    12405 TXH +3 00000 0 10322    12406 STA +0 62100 0 12417
 12407 CLA +0 50000 0 10323    12410 SUB +0 40200 0 10363    12411 SUB +0 40200 0 12412    12412 TXH +3 00000 0 10322
 12413 STA +0 62100 0 12415    12414 TSX +0 07400 4 00027    12415 TXH +3 00000 0 00000    12416 TXH +3 00000 0 10327
 12417 TIX +2 10330 0 00000
      PR02            E'L                                                           257  LM00309
 12420 TRA +0 02000 0 12213
                      ADJSW=1B                                                      258  LM00310
 12421 CLA +0 50000 0 10353    12422 STO +0 60100 0 01002
                      T'O PRP1                                                      259  LM00311
 12423 TRA +0 02000 0 00760
                 D'N PRTBUF(22)                                                     260  LM00312
                   V'S PRTZ=22                                                      261  LM00313
 10323     +0 00000 0 00026
                 O'E                                                                262  LM00317
 12424 TRA +0 02000 0 12436
                 PRMESS.(KEY,$ -- NOT A VALID ARGUMENT.$)                           263  LM00318
 12425 TSX +0 07400 4 00027    12426 TXH +3 00000 0 10223    12427 TXH +3 00000 0 10475    12430 TXH +3 00000 0 10530
 12431 TXH +3 00000 0 10437    12432 TXH +3 00000 0 10426    12433 TXH +3 00000 0 10431
                 CHNCOM.(0)                                                         264  LM00319
 12434 TSX +0 07400 4 00007    12435 TXH +3 00000 0 10352
                 E'L                                                                265  LM00320
      SPC        PRMESS.                                                            266  LM00324
 12436 TSX +0 07400 4 00027
                 T'O FNF                                                            267  LM00325
 12437 TRA +0 02000 0 00747
      REN        CLS.(NM1,NM2)                                                      268  LM00326
 12440 TSX +0 07400 4 00036    12441 TXH +3 00000 0 00054    12442 TXH +3 00000 0 00053
      FNF        W'R NAMTYP                                                         269  LM00327
 12443 NZT -0 52000 0 10227    12444 TRA +0 02000 0 12520
                    T'H FN01A, FOR I = 1,1,I.G.FILTAB/2                             270  LM00328
 12445 CLA +0 50000 0 10353    12446 STO +0 60100 0 10217    12447 TRA +0 02000 0 12453    12450 CLA +0 50000 0 10217
 12451 ADD +0 40000 0 10353    12452 STO +0 60100 0 10217    12453 LDQ +0 56000 0 10203    12454 PXD -0 75400 0 00000
 12455 LLS +0 76300 0 00000    12456 DVP +0 22100 0 10354    12457 XCA +0 13100 0 00000    12460 CHS +0 76000 0 00002
 12461 ADD +0 40000 0 10217    12462 TZE +0 10000 0 12464    12463 TPL +0 12000 0 12517
                    W'R .NOT.FILFND(I)                                              271  LM00329
 12464 LXA +0 53400 1 10217    12465 ZET +0 52000 1 10162    12466 TRA +0 02000 0 12516
                 PRMESS.(FILTAB(2*I-1),BL,FILTAB(2*I),$ NOT FOUND I$,               272  LM00330
                1 456057575757K,NM1,BL,NM2)                                         272  LM00331
 12467 LDQ +0 56000 0 10354    12470 MPY +0 20000 0 10217    12471 XCA +0 13100 0 00000    12472 SUB +0 40200 0 12473
 12473 TXH +3 00000 0 10203    12474 STA +0 62100 0 12507    12475 LDQ +0 56000 0 10354    12476 MPY +0 20000 0 10217
 12477 XCA +0 13100 0 00000    12500 SUB +0 40200 0 10353    12501 SUB +0 40200 0 12502    12502 TXH +3 00000 0 10203
 12503 STA +0 62100 0 12505    12504 TSX +0 07400 4 00027    12505 TXH +3 00000 0 00000    12506 TXH +3 00000 0 01005
 12507 TXH +3 00000 0 00000    12510 TXH +3 00000 0 10501    12511 TXH +3 00000 0 10451    12512 TXH +3 00000 0 10446
 12513 TXH +3 00000 0 00054    12514 TXH +3 00000 0 01005    12515 TXH +3 00000 0 00053
      FN01A         E'L                                                             273  LM00332
 12516 TRA +0 02000 0 12450
                 O'E                                                                274  LM00333
 12517 TRA +0 02000 0 12554
                    T'H FNO1B, FOR I=1,1,I.G.FILTAB                                 275  LM00334
 12520 CLA +0 50000 0 10353    12521 STO +0 60100 0 10217    12522 TRA +0 02000 0 12526    12523 CLA +0 50000 0 10217
 12524 ADD +0 40000 0 10353    12525 STO +0 60100 0 10217    12526 CLA +0 50000 0 10217    12527 SUB +0 40200 0 10203
 12530 TZE +0 10000 0 12532    12531 TPL +0 12000 0 12554
                    W'R .NOT.FILFND(I)                                              276  LM00335
 12532 LXA +0 53400 1 10217    12533 ZET +0 52000 1 10162    12534 TRA +0 02000 0 12553
                      PRMESS.(FILTAB(I),BL,NM2,$ NOT FOUND I$,456057575757K,        277  LM00336
                1  NM1,BL,NM2)                                                      277  LM00337
 12535 CLA +0 50000 0 10217    12536 SUB +0 40200 0 12537    12537 TXH +3 00000 0 10203    12540 STA +0 62100 0 12542
 12541 TSX +0 07400 4 00027    12542 TXH +3 00000 0 00000    12543 TXH +3 00000 0 01005    12544 TXH +3 00000 0 00053
 12545 TXH +3 00000 0 10501    12546 TXH +3 00000 0 10451    12547 TXH +3 00000 0 10446    12550 TXH +3 00000 0 00054
 12551 TXH +3 00000 0 01005    12552 TXH +3 00000 0 00053
      FNO1B         E'L                                                             278  LM00338
 12553 TRA +0 02000 0 12523
                 E'L                                                                279  LM00339
      EXT        CHNCOM.(0)                                                         280  LM00340
 12554 TSX +0 07400 4 00007    12555 TXH +3 00000 0 10352
                 PRMESS.($FRAM$)                                                    281  LM00341
 12556 TSX +0 07400 4 00027    12557 TXH +3 00000 0 10424
                 PRMESS.($NOTIFY SYSTEMS STAFF$)                                    282  LM00342
 12560 TSX +0 07400 4 00027    12561 TXH +3 00000 0 10444    12562 TXH +3 00000 0 10521    12563 TXH +3 00000 0 10442
 12564 TXH +3 00000 0 10423
                 DORMNT.                                                            283  LM00343
 12565 TSX +0 07400 4 00013
                 INSERT FILE ASUBS                                                  284  LM00351
                 INTERNAL FUNCTION (EOFXT)                                          285  LM00008
 12566 TRA +0 02000 0 13015
                 STATEMENT LABEL EOFXT                                              286  LM00009
                 E'O SEARCH.                                                        287  LM00010
 12567 TRA +0 02000 0 12572    00047 TTR +0 02100 0 12570    12570 SXA +0 63400 2 12777    12571 TSX +0 07400 2 12777
                 W'R NAMTYP                                                         288  LM00011
 12572 NZT -0 52000 0 10227    12573 TRA +0 02000 0 12701
                    W'R .NOT. COPYSW                                                289  LM00012
 12574 ZET +0 52000 0 06737    12575 TRA +0 02000 0 12624
                    T'H SR00A, FOR I=1,1,I.G.FILTAB                                 290  LM00013
 12576 CLA +0 50000 0 10353    12577 STO +0 60100 0 10217    12600 TRA +0 02000 0 12604    12601 CLA +0 50000 0 10217
 12602 ADD +0 40000 0 10353    12603 STO +0 60100 0 10217    12604 CLA +0 50000 0 10217    12605 SUB +0 40200 0 10203
 12606 TZE +0 10000 0 12610    12607 TPL +0 12000 0 12615
      SR00A      W'R .NOT. FILFND(I), T'O SRP0A                                     291  LM00014
 12610 LXA +0 53400 1 10217    12611 ZET +0 52000 1 10162    12612 TRA +0 02000 0 12614    12613 TRA +0 02000 0 00771
 12614 TRA +0 02000 0 12601
                    BFCLOS.(NM1,NM2,GERR)                                           292  LM00015
 12615 TSX +0 07400 4 00001    12616 TXH +3 00000 0 00054    12617 TXH +3 00000 0 00053    12620 TXH +3 00000 0 00752
                    AROPSW=0B                                                       293  LM00016
 12621 CLA +0 50000 0 10352    12622 STO +0 60100 0 01004
                    T'O EOFXT                                                       294  LM00017
 12623 TRA +0 02000 0 00024
                 E'L                                                                295  LM00018
      SRP0A      CONTINUE                                                           296  LM00019
                 W'R PRSSW.AND.AROPSW, T'O SR02A                                    297  LM00020
 12624 NZT -0 52000 0 01004    12625 TRA +0 02000 0 12631    12626 NZT -0 52000 0 10273    12627 TRA +0 02000 0 12631
 12630 TRA +0 02000 0 00767
      SR01A      GNEXT.(EOFXT)                                                      298  LM00021
 12631 TSX +0 07400 4 00045    12632 TXH +3 00000 0 00024
      SR02A      T'H SR03A, FOR FILTBP=1,2,FILTBP.G.FILTAB                          299  LM00022
 12633 CLA +0 50000 0 10353    12634 STO +0 60100 0 10204    12635 TRA +0 02000 0 12641    12636 CLA +0 50000 0 10204
 12637 ADD +0 40000 0 10354    12640 STO +0 60100 0 10204    12641 CLA +0 50000 0 10204    12642 SUB +0 40200 0 10203
 12643 TZE +0 10000 0 12645    12644 TPL +0 12000 0 12677
                 PNTR=(FILTBP+1)/2                                                  300  LM00023
 12645 CLA +0 50000 0 10204    12646 ADD +0 40000 0 10353    12647 LRS +0 76500 0 00043    12650 DVP +0 22100 0 10354
 12651 STQ -0 60000 0 10253
                 W'R FLN1.(PRLNMK).E.FILTAB(FILTBP)                                 301  LM00024
                1   .AND.FLN2.(PRLNMK).E.FILTAB(FILTBP+1)                           301  LM00025
                2   .AND..NOT.FILFND(PNTR)                                          301  LM00026
 12652 LXA +0 53400 1 10253    12653 ZET +0 52000 1 10162    12654 TRA +0 02000 0 12676    12655 CLA +0 50000 0 10204
 12656 ADD +0 40000 0 10353    12657 STO +0 60100 0 13014    12660 TSX +0 07400 4 00044    12661 TXH +3 00000 0 10272
 12662 LXA +0 53400 2 13014    12663 SUB +0 40200 2 10203    12664 TNZ -0 10000 0 12676    12665 TSX +0 07400 4 00043
 12666 TXH +3 00000 0 10272    12667 LXA +0 53400 2 10204    12670 SUB +0 40200 2 10203    12671 TNZ -0 10000 0 12676
                 FILFND(PNTR)=1B                                                    302  LM00027
 12672 LXA +0 53400 1 10253    12673 CLA +0 50000 0 10353    12674 STO +0 60100 1 10162
                 F'N                                                                303  LM00028
 12675 TRA +0 02000 0 13010
      SR03A      E'L                                                                304  LM00029
 12676 TRA +0 02000 0 12636
                 T'O SR01A                                                          305  LM00030
 12677 TRA +0 02000 0 00765
                 O'E                                                                306  LM00031
 12700 TRA +0 02000 0 12776
                 W'R .NOT.COPYSW                                                    307  LM00032
 12701 ZET +0 52000 0 06737    12702 TRA +0 02000 0 12731
                    T'H SR00, FOR I=1,1,I.G.FILTAB                                  308  LM00033
 12703 CLA +0 50000 0 10353    12704 STO +0 60100 0 10217    12705 TRA +0 02000 0 12711    12706 CLA +0 50000 0 10217
 12707 ADD +0 40000 0 10353    12710 STO +0 60100 0 10217    12711 CLA +0 50000 0 10217    12712 SUB +0 40200 0 10203
 12713 TZE +0 10000 0 12715    12714 TPL +0 12000 0 12722
      SR00          W'R .NOT.FILFND(I), T'O SRP0                                    309  LM00034
 12715 LXA +0 53400 1 10217    12716 ZET +0 52000 1 10162    12717 TRA +0 02000 0 12721    12720 TRA +0 02000 0 00772
 12721 TRA +0 02000 0 12706
                    BFCLOS.(NM1,NM2,GERR)                                           310  LM00035
 12722 TSX +0 07400 4 00001    12723 TXH +3 00000 0 00054    12724 TXH +3 00000 0 00053    12725 TXH +3 00000 0 00752
                    AROPSW=0B                                                       311  LM00036
 12726 CLA +0 50000 0 10352    12727 STO +0 60100 0 01004
                    T'O EOFXT                                                       312  LM00037
 12730 TRA +0 02000 0 00024
                 E'L                                                                313  LM00038
      SRP0       CONTINUE                                                           314  LM00039
                 W'R PRSSW.AND.AROPSW, T'O SR02                                     315  LM00040
 12731 NZT -0 52000 0 01004    12732 TRA +0 02000 0 12736    12733 NZT -0 52000 0 10273    12734 TRA +0 02000 0 12736
 12735 TRA +0 02000 0 00770
      SR01       GNEXT.(EOFXT)                                                      316  LM00041
 12736 TSX +0 07400 4 00045    12737 TXH +3 00000 0 00024
      SR02       W'R FLN2.(PRLNMK).NE.NM2                                           317  LM00042
 12740 TSX +0 07400 4 00044    12741 TXH +3 00000 0 10272    12742 SUB +0 40200 0 00053    12743 TZE +0 10000 0 12746
                    T'O SR01                                                        318  LM00043
 12744 TRA +0 02000 0 00766
                 O'E                                                                319  LM00044
 12745 TRA +0 02000 0 12776
                    T'H SR03, FOR FILTBP=1,1,FILTBP.G.FILTAB                        320  LM00045
 12746 CLA +0 50000 0 10353    12747 STO +0 60100 0 10204    12750 TRA +0 02000 0 12754    12751 CLA +0 50000 0 10204
 12752 ADD +0 40000 0 10353    12753 STO +0 60100 0 10204    12754 CLA +0 50000 0 10204    12755 SUB +0 40200 0 10203
 12756 TZE +0 10000 0 12760    12757 TPL +0 12000 0 12775
                 W'R FLN1.(PRLNMK).E.FILTAB(FILTBP)                                 321  LM00046
                1   .AND..NOT.FILFND(FILTBP)                                        321  LM00047
 12760 LXA +0 53400 1 10204    12761 ZET +0 52000 1 10162    12762 TRA +0 02000 0 12774    12763 TSX +0 07400 4 00043
 12764 TXH +3 00000 0 10272    12765 LXA +0 53400 2 10204    12766 SUB +0 40200 2 10203    12767 TNZ -0 10000 0 12774
                       FILFND(FILTBP)=1B                                            322  LM00048
 12770 LXA +0 53400 1 10204    12771 CLA +0 50000 0 10353    12772 STO +0 60100 1 10162
                       FUNCTION RETURN                                              323  LM00049
 12773 TRA +0 02000 0 13010
      SR03          E'L                                                             324  LM00050
 12774 TRA +0 02000 0 12751
                 T'O SR01                                                           325  LM00051
 12775 TRA +0 02000 0 00766
                 E'L                                                                326  LM00052
                 E'L                                                                327  LM00053
                 END OF FUNCTION                                                    328  LM00054
 12776 TSX +0 07400 4 00014    12777 TXH +3 00000 0 00000    13000 SXD -0 63400 1 12777    13001 SXA +0 63400 4 13010
 13002 CLA +0 50000 4 00001    13003 STA +0 62100 0 12623    13004 STO +0 60100 0 12632    13005 STA +0 62100 0 12730
 13006 STO +0 60100 0 12737    13007 TRA +0 02000 2 00001    13010 AXT +0 77400 4 00000    13011 LXA +0 53400 2 12777
 13012 LXD -0 53400 1 12777    13013 TRA +0 02000 4 00001
                 INTERNAL FUNCTION (EOFXT)                                          329  LM00061
 13015 TRA +0 02000 0 13411
                 STATEMENT LABEL EOFXT                                              330  LM00062
                 E'O GNEXT.                                                         331  LM00063
 13016 TRA +0 02000 0 13021    00045 TTR +0 02100 0 13017    13017 SXA +0 63400 2 13376    13020 TSX +0 07400 2 13376
                 W'R .NOT. AROPSW                                                   332  LM00064
 13021 ZET +0 52000 0 01004    13022 TRA +0 02000 0 13140
                      BFOPEN.($R$,NM1,NM2,BUF1(BUFZ),BUF2(BUFZ),-0,GERR)            333  LM00065
 13023 CLS +0 50200 0 10352    13024 STO +0 60100 0 13410    13025 CLA +0 50000 0 06735    13026 SUB +0 40200 0 13027
 13027 TXH +3 00000 0 02547    13030 STA +0 62100 0 13042    13031 CLA +0 50000 0 06735    13032 SUB +0 40200 0 13033
 13033 TXH +3 00000 0 01666    13034 STA +0 62100 0 13041    13035 TSX +0 07400 4 00002    13036 TXH +3 00000 0 10461
 13037 TXH +3 00000 0 00054    13040 TXH +3 00000 0 00053    13041 TXH +3 00000 0 00000    13042 TXH +3 00000 0 00000
 13043 TXH +3 00000 0 13410    13044 TXH +3 00000 0 00752
                      BFREAD.(NM1,NM2,PRLNMK(LMKZ)...LMKZ,FRMER,EOFCT,GERR)         334  LM00066
 13045 CLA +0 50000 0 10224    13046 SUB +0 40200 0 13047    13047 TXH +3 00000 0 10272    13050 STA +0 62100 0 13054
 13051 TSX +0 07400 4 00003    13052 TXH +3 00000 0 00054    13053 TXH +3 00000 0 00053    13054 TIX +2 10224 0 00000
 13055 TXH +3 00000 0 00751    13056 TXH +3 00000 0 10141    13057 TXH +3 00000 0 00752
                      W'R BDLNMK.(PRLNMK)                                           335  LM00067
 13060 TSX +0 07400 4 00035    13061 TXH +3 00000 0 10272    13062 TZE +0 10000 0 13135
                      W'R PRLNMK(LMKZ).E.555555555555K                              336  LM00068
 13063 LXA +0 53400 1 10224    13064 CLA +0 50000 1 10272    13065 SUB +0 40200 0 10462    13066 TNZ -0 10000 0 13134
                           PRINT COMMENT $ARCHIV FILE HAS OLD FORMAT.$              337  LM00069
 13067 TSX +0 07400 4 00021    13070     +0 00000 0 00005    13071     +2 15123 3 03165    13072     -2 02631 4 32560
 13073     +3 02162 6 04643    13074     +2 46026 4 65144    13075     +2 16333 6 06060
                           PRINT COMMENT $USE NWARCH SAVED IN PUBLIC FILE TO R      338  LM00070
                1EFORMAT.$                                                          338  LM00071
 13076 TSX +0 07400 4 00021    13077     +0 00000 0 00010    13100     -2 46225 6 04566    13101     +2 15123 3 06062
 13102     +2 16525 2 46031    13103     -0 56047 6 42243    13104     +3 12360 2 63143    13105     +2 56063 4 66051
 13106     +2 52646 5 14421    13107     -2 33360 6 06060
                           PRINT COMMENT $LINK NWARCH SAVED M1416 CMFL04$           339  LM00072
 13110 TSX +0 07400 4 00021    13111     +0 00000 0 00005    13112     -0 33145 4 26045    13113     -2 62151 2 33060
 13114     -2 22165 2 52460    13115     -0 40104 0 10660    13116     +2 34426 4 30004
                           PRINT COMMENT $RESUME NWARCH$                            340  LM00073
 13117 TSX +0 07400 4 00021    13120     +0 00000 0 00003    13121     -1 12562 6 44425    13122     -2 04566 2 15123
 13123     +3 06060 6 06060
                           PRINT COMMENT $FOR INSTRUCTIONS.$                        341  LM00074
 13124 TSX +0 07400 4 00021    13125     +0 00000 0 00003    13126     +2 64651 6 03145    13127     -2 26351 6 42363
 13130     +3 14645 6 23360
                           CHNCOM.(0)                                               342  LM00075
 13131 TSX +0 07400 4 00007    13132 TXH +3 00000 0 10352
                      O'E                                                           343  LM00076
 13133 TRA +0 02000 0 13135
                           T'O FRMER                                                344  LM00077
 13134 TRA +0 02000 0 00751
                      E'L                                                           345  LM00078
                      E'L                                                           346  LM00079
                 AROPSW=1B                                                          347  LM00080
 13135 CLA +0 50000 0 10353    13136 STO +0 60100 0 01004
                 FUNCTION RETURN                                                    348  LM00081
 13137 TRA +0 02000 0 13404
                 E'L                                                                349  LM00082
                 W'R COPYSW .AND. .NOT. TMOPSW                                      350  LM00083
 13140 ZET +0 52000 0 10332    13141 TRA +0 02000 0 13177    13142 NZT -0 52000 0 06737    13143 TRA +0 02000 0 13177
                      DELETE.(TM1,TM2,0,OUT)                                        351  LM00084
 13144 TSX +0 07400 4 00012    13145 TXH +3 00000 0 00057    13146 TXH +3 00000 0 00056    13147 TXH +3 00000 0 10352
 13150 TXH +3 00000 0 00757
                      BFOPEN.($W$,TM1,TM2,BUF3(BUFZ),BUF4(BUFZ),BUF5(BUFZ),         352  LM00085
                1       GERR)                                                       352  LM00086
 13151 CLA +0 50000 0 06735    13152 SUB +0 40200 0 13153    13153 TXH +3 00000 0 05172    13154 STA +0 62100 0 13173
 13155 CLA +0 50000 0 06735    13156 SUB +0 40200 0 13157    13157 TXH +3 00000 0 04311    13160 STA +0 62100 0 13172
 13161 CLA +0 50000 0 06735    13162 SUB +0 40200 0 13163    13163 TXH +3 00000 0 03430    13164 STA +0 62100 0 13171
 13165 TSX +0 07400 4 00002    13166 TXH +3 00000 0 10541    13167 TXH +3 00000 0 00057    13170 TXH +3 00000 0 00056
 13171 TXH +3 00000 0 00000    13172 TXH +3 00000 0 00000    13173 TXH +3 00000 0 00000    13174 TXH +3 00000 0 00752
                      TMOPSW=1B                                                     353  LM00087
 13175 CLA +0 50000 0 10353    13176 STO +0 60100 0 10332
                 E'L                                                                354  LM00088
                 W'R COPYSW .AND. WMRKSW                                            355  LM00089
 13177 NZT -0 52000 0 10350    13200 TRA +0 02000 0 13214    13201 NZT -0 52000 0 06737    13202 TRA +0 02000 0 13214
                      BFWRIT.(TM1,TM2,PRLNMK(LMKZ)...LMKZ,GERR)                     356  LM00090
 13203 CLA +0 50000 0 10224    13204 SUB +0 40200 0 13205    13205 TXH +3 00000 0 10272    13206 STA +0 62100 0 13212
 13207 TSX +0 07400 4 00004    13210 TXH +3 00000 0 00057    13211 TXH +3 00000 0 00056    13212 TIX +2 10224 0 00000
 13213 TXH +3 00000 0 00752
                 E'L                                                                357  LM00091
                 W'R .NOT. ADJSW                                                    358  LM00092
 13214 ZET +0 52000 0 01002    13215 TRA +0 02000 0 13320
                      AFZ=CNT.(PRLNMK)                                              359  LM00093
 13216 TSX +0 07400 4 00037    13217 TXH +3 00000 0 10272    13220 STO +0 60100 0 01003
                      T'H COPY, FOR I=CPBUFZ,CPBUFZ,I.G.AFZ                         360  LM00094
 13221 CLA +0 50000 0 07621    13222 STO +0 60100 0 10217    13223 TRA +0 02000 0 13227    13224 CLA +0 50000 0 10217
 13225 ADD +0 40000 0 07621    13226 STO +0 60100 0 10217    13227 CLA +0 50000 0 10217    13230 SUB +0 40200 0 01003
 13231 TZE +0 10000 0 13233    13232 TPL +0 12000 0 13262
                           BFREAD.(NM1,NM2,CPBUF(CPBUFZ)...CPBUFZ,                  361  LM00095
                1            FRMER,EOFCT,GERR)                                      361  LM00096
 13233 CLA +0 50000 0 07621    13234 SUB +0 40200 0 13235    13235 TXH +3 00000 0 07620    13236 STA +0 62100 0 13242
 13237 TSX +0 07400 4 00003    13240 TXH +3 00000 0 00054    13241 TXH +3 00000 0 00053    13242 TIX +2 07621 0 00000
 13243 TXH +3 00000 0 00751    13244 TXH +3 00000 0 10141    13245 TXH +3 00000 0 00752
                           W'R COPYSW                                               362  LM00097
 13246 NZT -0 52000 0 06737    13247 TRA +0 02000 0 13261
                                BFWRIT.(TM1,TM2,CPBUF(CPBUFZ)...CPBUFZ,GERR)        363  LM00098
 13250 CLA +0 50000 0 07621    13251 SUB +0 40200 0 13252    13252 TXH +3 00000 0 07620    13253 STA +0 62100 0 13257
 13254 TSX +0 07400 4 00004    13255 TXH +3 00000 0 00057    13256 TXH +3 00000 0 00056    13257 TIX +2 07621 0 00000
 13260 TXH +3 00000 0 00752
                           E'L                                                      364  LM00099
      COPY            CONTINUE                                                      365  LM00100
 13261 TRA +0 02000 0 13224
                      REMN=CPBUFZ-(I-AFZ)                                           366  LM00101
 13262 CLA +0 50000 0 10217    13263 SUB +0 40200 0 01003    13264 CHS +0 76000 0 00002    13265 ADD +0 40000 0 07621
 13266 STO +0 60100 0 10325
                      W'R REMN.NE.0                                                 367  LM00102
 13267 CLA +0 50000 0 10325    13270 SUB +0 40200 0 10352    13271 TZE +0 10000 0 13320
                           BFREAD.(NM1,NM2,CPBUF(REMN)...REMN,                      368  LM00103
                1            FRMER,EOFCT,GERR)                                      368  LM00104
 13272 CLA +0 50000 0 10325    13273 SUB +0 40200 0 13274    13274 TXH +3 00000 0 07620    13275 STA +0 62100 0 13301
 13276 TSX +0 07400 4 00003    13277 TXH +3 00000 0 00054    13300 TXH +3 00000 0 00053    13301 TIX +2 10325 0 00000
 13302 TXH +3 00000 0 00751    13303 TXH +3 00000 0 10141    13304 TXH +3 00000 0 00752
                           W'R COPYSW                                               369  LM00105
 13305 NZT -0 52000 0 06737    13306 TRA +0 02000 0 13320
                                BFWRIT.(TM1,TM2,CPBUF(REMN)...REMN,GERR)            370  LM00106
 13307 CLA +0 50000 0 10325    13310 SUB +0 40200 0 13311    13311 TXH +3 00000 0 07620    13312 STA +0 62100 0 13316
 13313 TSX +0 07400 4 00004    13314 TXH +3 00000 0 00057    13315 TXH +3 00000 0 00056    13316 TIX +2 10325 0 00000
 13317 TXH +3 00000 0 00752
                           E'L                                                      371  LM00107
                      E'L                                                           372  LM00108
                 E'L                                                                373  LM00109
                 BFREAD.(NM1,NM2,PRLNMK(LMKZ)...LMKZ,EOF,EOFCT,GERR)                374  LM00110
 13320 CLA +0 50000 0 10224    13321 SUB +0 40200 0 13322    13322 TXH +3 00000 0 10272    13323 STA +0 62100 0 13327
 13324 TSX +0 07400 4 00003    13325 TXH +3 00000 0 00054    13326 TXH +3 00000 0 00053    13327 TIX +2 10224 0 00000
 13330 TXH +3 00000 0 00745    13331 TXH +3 00000 0 10141    13332 TXH +3 00000 0 00752
                 W'R BDLNMK.(PRLNMK),T'O FRMER                                      375  LM00111
 13333 TSX +0 07400 4 00035    13334 TXH +3 00000 0 10272    13335 TZE +0 10000 0 13337    13336 TRA +0 02000 0 00751
                 ADJSW=0B                                                           376  LM00112
 13337 CLA +0 50000 0 10352    13340 STO +0 60100 0 01002
                 F'N                                                                377  LM00113
 13341 TRA +0 02000 0 13404
      EOF        BFCLOS.(NM1,NM2,GERR)                                              378  LM00114
 13342 TSX +0 07400 4 00001    13343 TXH +3 00000 0 00054    13344 TXH +3 00000 0 00053    13345 TXH +3 00000 0 00752
                 AROPSW=0B                                                          379  LM00115
 13346 CLA +0 50000 0 10352    13347 STO +0 60100 0 01004
                 T'O EOFXT                                                          380  LM00116
 13350 TRA +0 02000 0 00024
      FRMER      PRMESS.($ARCHIV FORMAT ERROR IN$,NM1,BL,NM2)                       381  LM00117
 13351 TSX +0 07400 4 00027    13352 TXH +3 00000 0 10410    13353 TXH +3 00000 0 10473    13354 TXH +3 00000 0 10531
 13355 TXH +3 00000 0 10460    13356 TXH +3 00000 0 00054    13357 TXH +3 00000 0 01005    13360 TXH +3 00000 0 00053
                 BFCLOS.($   ALL$,-0,GERR)                                          382  LM00118
 13361 CLS +0 50200 0 10352    13362 STO +0 60100 0 13410    13363 TSX +0 07400 4 00001    13364 TXH +3 00000 0 10504
 13365 TXH +3 00000 0 13410    13366 TXH +3 00000 0 00752
                 CHNCOM.(1)                                                         383  LM00119
 13367 TSX +0 07400 4 00007    13370 TXH +3 00000 0 10353
      GERR       PRNTER.(61K)                                                       384  LM00120
 13371 TSX +0 07400 4 00030    13372 TXH +3 00000 0 10372
                 CHNCOM.(1)                                                         385  LM00121
 13373 TSX +0 07400 4 00007    13374 TXH +3 00000 0 10353
                 END OF FUNCTION                                                    386  LM00122
 13375 TSX +0 07400 4 00014    13376 TXH +3 00000 0 00000    13377 SXD -0 63400 1 13376    13400 SXA +0 63400 4 13404
 13401 CLA +0 50000 4 00001    13402 STA +0 62100 0 13350    13403 TRA +0 02000 2 00001    13404 AXT +0 77400 4 00000
 13405 LXA +0 53400 2 13376    13406 LXD -0 53400 1 13376    13407 TRA +0 02000 4 00001
                 BOOLEAN CPFIL.                                                     387  LM00131
                 INTERNAL FUNCTION(A,B)                                             388  LM00132
 13411 TRA +0 02000 0 13721
                 E'O CPFIL.                                                         389  LM00133
 13412 TRA +0 02000 0 13415    00040 TTR +0 02100 0 13413    13413 SXA +0 63400 2 13674    13414 TSX +0 07400 2 13674
                 W'R .NOT. MKLNMK.(A,B,CT)                                          390  LM00134
 13415 TSX +0 07400 4 00046    13416 TXH +3 00000 0 00024    13417 TXH +3 00000 0 00024    13420 TXH +3 00000 0 07623
 13421 TNZ -0 10000 0 13425
                      F'N 0B                                                        391  LM00135
 13422 CLA +0 50000 0 10352    13423 TRA +0 02000 0 13714
                 O'E                                                                392  LM00136
 13424 TRA +0 02000 0 13654
                      W'R .NOT. TMOPSW                                              393  LM00137
 13425 ZET +0 52000 0 10332    13426 TRA +0 02000 0 13462
                           DELETE.(TM1,TM2,0,OUT)                                   394  LM00138
 13427 TSX +0 07400 4 00012    13430 TXH +3 00000 0 00057    13431 TXH +3 00000 0 00056    13432 TXH +3 00000 0 10352
 13433 TXH +3 00000 0 00757
                           BFOPEN.($W$,TM1,TM2,BUF3(BUFZ),BUF4(BUFZ),               395  LM00139
                1            BUF5(BUFZ),GERR)                                       395  LM00140
 13434 CLA +0 50000 0 06735    13435 SUB +0 40200 0 13436    13436 TXH +3 00000 0 05172    13437 STA +0 62100 0 13456
 13440 CLA +0 50000 0 06735    13441 SUB +0 40200 0 13442    13442 TXH +3 00000 0 04311    13443 STA +0 62100 0 13455
 13444 CLA +0 50000 0 06735    13445 SUB +0 40200 0 13446    13446 TXH +3 00000 0 03430    13447 STA +0 62100 0 13454
 13450 TSX +0 07400 4 00002    13451 TXH +3 00000 0 10541    13452 TXH +3 00000 0 00057    13453 TXH +3 00000 0 00056
 13454 TXH +3 00000 0 00000    13455 TXH +3 00000 0 00000    13456 TXH +3 00000 0 00000    13457 TXH +3 00000 0 00752
                           TMOPSW=1B                                                396  LM00141
 13460 CLA +0 50000 0 10353    13461 STO +0 60100 0 10332
                      E'L                                                           397  LM00142
                      BFOPEN.($R$,A,B,BUF6(BUFZ),BUF7(BUFZ),-0,GERR)                398  LM00143
 13462 CLS +0 50200 0 10352    13463 STO +0 60100 0 13720    13464 CLA +0 50000 0 06735    13465 SUB +0 40200 0 13466
 13466 TXH +3 00000 0 06734    13467 STA +0 62100 0 13501    13470 CLA +0 50000 0 06735    13471 SUB +0 40200 0 13472
 13472 TXH +3 00000 0 06053    13473 STA +0 62100 0 13500    13474 TSX +0 07400 4 00002    13475 TXH +3 00000 0 10461
 13476 TXH +3 00000 0 00024    13477 TXH +3 00000 0 00024    13500 TXH +3 00000 0 00000    13501 TXH +3 00000 0 00000
 13502 TXH +3 00000 0 13720    13503 TXH +3 00000 0 00752
                      FRSTSW=1B                                                     399  LM00144
 13504 CLA +0 50000 0 10353    13505 STO +0 60100 0 10212
                      T'H CPF01, FOR I=CPBUFZ,CPBUFZ,I.G.CT                         400  LM00145
 13506 CLA +0 50000 0 07621    13507 STO +0 60100 0 10217    13510 TRA +0 02000 0 13514    13511 CLA +0 50000 0 10217
 13512 ADD +0 40000 0 07621    13513 STO +0 60100 0 10217    13514 CLA +0 50000 0 10217    13515 SUB +0 40200 0 07623
 13516 TZE +0 10000 0 13520    13517 TPL +0 12000 0 13572
                           BFREAD.(A,B,CPBUF(CPBUFZ)...CPBUFZ,                      401  LM00146
                1            CPFEF,EOFCT,GERR)                                      401  LM00147
 13520 CLA +0 50000 0 07621    13521 SUB +0 40200 0 13522    13522 TXH +3 00000 0 07620    13523 STA +0 62100 0 13527
 13524 TSX +0 07400 4 00003    13525 TXH +3 00000 0 00024    13526 TXH +3 00000 0 00024    13527 TIX +2 07621 0 00000
 13530 TXH +3 00000 0 00743    13531 TXH +3 00000 0 10141    13532 TXH +3 00000 0 00752
                           W'R BDLNMK.(CPBUF(CPBUFZ-LMKZ)) .AND. FRSTSW             402  LM00148
 13533 NZT -0 52000 0 10212    13534 TRA +0 02000 0 13556    13535 CLA +0 50000 0 07621    13536 SUB +0 40200 0 10224
 13537 SUB +0 40200 0 13540    13540 TXH +3 00000 0 07620    13541 STA +0 62100 0 13543    13542 TSX +0 07400 4 00035
 13543 TXH +3 00000 0 00000    13544 TZE +0 10000 0 13556
                                BFWRIT.(TM1,TM2,NWLNMK(LMKZ)...LMKZ,GERR)           403  LM00149
 13545 CLA +0 50000 0 10224    13546 SUB +0 40200 0 13547    13547 TXH +3 00000 0 10250    13550 STA +0 62100 0 13554
 13551 TSX +0 07400 4 00004    13552 TXH +3 00000 0 00057    13553 TXH +3 00000 0 00056    13554 TIX +2 10224 0 00000
 13555 TXH +3 00000 0 00752
                           E'L                                                      404  LM00150
                      FRSTSW=0B                                                     405  LM00151
 13556 CLA +0 50000 0 10352    13557 STO +0 60100 0 10212
      CPF01                BFWRIT.(TM1,TM2,CPBUF(CPBUFZ)...CPBUFZ,GERR)             406  LM00152
 13560 CLA +0 50000 0 07621    13561 SUB +0 40200 0 13562    13562 TXH +3 00000 0 07620    13563 STA +0 62100 0 13567
 13564 TSX +0 07400 4 00004    13565 TXH +3 00000 0 00057    13566 TXH +3 00000 0 00056    13567 TIX +2 07621 0 00000
 13570 TXH +3 00000 0 00752    13571 TRA +0 02000 0 13511
                      REMN=CPBUFZ-(I-CT)                                            407  LM00153
 13572 CLA +0 50000 0 10217    13573 SUB +0 40200 0 07623    13574 CHS +0 76000 0 00002    13575 ADD +0 40000 0 07621
 13576 STO +0 60100 0 10325
                      BFREAD.(A,B,CPBUF(REMN)...REMN,CPFEF,EOFCT,GERR)              408  LM00154
 13577 CLA +0 50000 0 10325    13600 SUB +0 40200 0 13601    13601 TXH +3 00000 0 07620    13602 STA +0 62100 0 13606
 13603 TSX +0 07400 4 00003    13604 TXH +3 00000 0 00024    13605 TXH +3 00000 0 00024    13606 TIX +2 10325 0 00000
 13607 TXH +3 00000 0 00743    13610 TXH +3 00000 0 10141    13611 TXH +3 00000 0 00752
                      W'R  BDLNMK.(CPBUF(REMN-LMKZ)) .AND. FRSTSW                   409  LM00155
 13612 NZT -0 52000 0 10212    13613 TRA +0 02000 0 13635    13614 CLA +0 50000 0 10325    13615 SUB +0 40200 0 10224
 13616 SUB +0 40200 0 13617    13617 TXH +3 00000 0 07620    13620 STA +0 62100 0 13622    13621 TSX +0 07400 4 00035
 13622 TXH +3 00000 0 00000    13623 TZE +0 10000 0 13635
                           BFWRIT.(TM1,TM2,NWLNMK(LMKZ)...LMKZ,GERR)                410  LM00156
 13624 CLA +0 50000 0 10224    13625 SUB +0 40200 0 13626    13626 TXH +3 00000 0 10250    13627 STA +0 62100 0 13633
 13630 TSX +0 07400 4 00004    13631 TXH +3 00000 0 00057    13632 TXH +3 00000 0 00056    13633 TIX +2 10224 0 00000
 13634 TXH +3 00000 0 00752
                      E'L                                                           411  LM00157
                      BFWRIT.(TM1,TM2,CPBUF(REMN)...REMN,GERR)                      412  LM00158
 13635 CLA +0 50000 0 10325    13636 SUB +0 40200 0 13637    13637 TXH +3 00000 0 07620    13640 STA +0 62100 0 13644
 13641 TSX +0 07400 4 00004    13642 TXH +3 00000 0 00057    13643 TXH +3 00000 0 00056    13644 TIX +2 10325 0 00000
 13645 TXH +3 00000 0 00752
                      BFCLOS.(A,B,GERR)                                             413  LM00159
 13646 TSX +0 07400 4 00001    13647 TXH +3 00000 0 00024    13650 TXH +3 00000 0 00024    13651 TXH +3 00000 0 00752
                      F'N 1B                                                        414  LM00160
 13652 CLA +0 50000 0 10353    13653 TRA +0 02000 0 13714
                 E'L                                                                415  LM00161
      CPFEF      PRINT COMMENT $ERROR IN FSTATE.--NOTIFY SYSTEMS STAFF.$            416  LM00162
 13654 TSX +0 07400 4 00021    13655     +0 00000 0 00007    13656     +2 55151 4 65160    13657     +3 14560 2 66263
 13660     +2 16325 3 34040    13661     -0 54663 3 12670    13662     -2 06270 6 26325    13663     -0 46260 6 26321
 13664     +2 62633 6 06060
                 PRINT COMMENT $DORMNT CALLED$                                      417  LM00163
 13665 TSX +0 07400 4 00021    13666     +0 00000 0 00003    13667     +2 44651 4 44563    13670     -2 02321 4 34325
 13671     +2 46060 6 06060
                 DORMNT.                                                            418  LM00164
 13672 TSX +0 07400 4 00013
                 END OF FUNCTION                                                    419  LM00165
 13673 TSX +0 07400 4 00014    13674 TXH +3 00000 0 00000    13675 SXD -0 63400 1 13674    13676 SXA +0 63400 4 13714
 13677 CLA +0 50000 4 00001    13700 STO +0 60100 0 13416    13701 STO +0 60100 0 13476    13702 STO +0 60100 0 13525
 13703 STO +0 60100 0 13604    13704 STO +0 60100 0 13647    13705 CLA +0 50000 4 00002    13706 STO +0 60100 0 13417
 13707 STO +0 60100 0 13477    13710 STO +0 60100 0 13526    13711 STO +0 60100 0 13605    13712 STO +0 60100 0 13650
 13713 TRA +0 02000 2 00001    13714 AXT +0 77400 4 00000    13715 LXA +0 53400 2 13674    13716 LXD -0 53400 1 13674
 13717 TRA +0 02000 4 00001
                 NORMAL MODE IS INTEGER                                             420  LM00166
                 BOOLEAN COPYSW, PRSSW, WMRKSW, AROPSW, TMOPSW, FRSTSW              421  LM00167
                 BOOLEAN NAMO, ADJSW, NAMTYP                                        422  LM00168
                 V'S BUFZ=432                                                       423  LM00169
 06735     +0 00000 0 00660
                 D'N BUF1(432), BUF2(432), BUF3(432), BUF4(432), BUF5(432),         424  LM00170
                1  BUF6(432), BUF7(432)                                             424  LM00171
                 D'N CPBUF(432)                                                     425  LM00172
                   V'S CPBUFZ=432                                                   426  LM00173
 07621     +0 00000 0 00660
                 V'S FILTBZ=16                                                      427  LM00174
 10205     +0 00000 0 00020
                 D'N FILTAB(16)                                                     428  LM00175
                 BOOLEAN FILFND                                                     429  LM00176
                 D'N FILFND(16)                                                     430  LM00177
                 BOOLEAN CLS.                                                       431  LM00181
                 INTERNAL FUNCTION (A,B)                                            432  LM00182
 13721 TRA +0 02000 0 14072
                 E'O CLS.                                                           433  LM00183
 13722 TRA +0 02000 0 13725    00036 TTR +0 02100 0 13723    13723 SXA +0 63400 2 14042    13724 TSX +0 07400 2 14042
                 W'R TMOPSW                                                         434  LM00184
 13725 NZT -0 52000 0 10332    13726 TRA +0 02000 0 14034
                      BFCLOS.(TM1,TM2,GERR)                                         435  LM00185
 13727 TSX +0 07400 4 00001    13730 TXH +3 00000 0 00057    13731 TXH +3 00000 0 00056    13732 TXH +3 00000 0 00752
                      TMOPSW=0B                                                     436  LM00186
 13733 CLA +0 50000 0 10352    13734 STO +0 60100 0 10332
                      D'N FNM(2)                                                    437  LM00187
                      FNM(0)=A                                                      438  LM00188
 13735 CLA +0 50000 0 00024    13736 STO +0 60100 0 10211
                      FNM(1)=B                                                      439  LM00189
 13737 CLA +0 50000 0 00024    13740 STO +0 60100 0 10210
                      FSTATE.(A,B,FSBUF(8)...8,NFND)                                440  LM00190
 13741 TSX +0 07400 4 00016    13742 TXH +3 00000 0 00024    13743 TXH +3 00000 0 00024    13744 TIX +2 10361 0 00730
 13745 TXH +3 00000 0 00754
                        EQUIVALENCE (MODE,FSBUF(7))                                 441  LM00191
                      MODE=MODE.A.134K                                              442  LM00192
 13746 CAL -0 50000 0 00731    13747 ANA -0 32000 0 10375    13750 SLW +0 60200 0 00731
      CL01       DELETE.(A,B,0,NDEL1)                                               443  LM00193
 13751 TSX +0 07400 4 00012    13752 TXH +3 00000 0 00024    13753 TXH +3 00000 0 00024    13754 TXH +3 00000 0 10352
 13755 TXH +3 00000 0 00753
                 CHFILE.(TM1,TM2,-0,A,B)                                            444  LM00194
 13756 CLS +0 50200 0 10352    13757 STO +0 60100 0 14070    13760 TSX +0 07400 4 00006    13761 TXH +3 00000 0 00057
 13762 TXH +3 00000 0 00056    13763 TXH +3 00000 0 14070    13764 TXH +3 00000 0 00024    13765 TXH +3 00000 0 00024
                      W'R MODE.NE.000K .AND. KEY.NE.$    XT$                        445  LM00195
 13766 CLA +0 50000 0 10223    13767 SUB +0 40200 0 10515    13770 TZE +0 10000 0 14027    13771 CLA +0 50000 0 00731
 13772 SUB +0 40200 0 10352    13773 TZE +0 10000 0 14027
                           CHFILE.(A,B,MODE,-0,-0)                                  446  LM00196
 13774 CLS +0 50200 0 10352    13775 STO +0 60100 0 14070    13776 CLS +0 50200 0 10352    13777 STO +0 60100 0 14071
 14000 TSX +0 07400 4 00006    14001 TXH +3 00000 0 00024    14002 TXH +3 00000 0 00024    14003 TXH +3 00000 0 00731
 14004 TXH +3 00000 0 14071    14005 TXH +3 00000 0 14070
                      MODEP = (OCRBC.(MODE).A.777777K).V.575757K6                   447  LM00197
 14006 TSX +0 07400 4 00023    14007 TXH +3 00000 0 00731    14010 STO +0 60100 0 14071    14011 CAL -0 50000 0 14071
 14012 ANA -0 32000 0 10401    14013 ORA -0 50100 0 10463    14014 SLW +0 60200 0 10225
                      PRMESS.(A,BL,B,BL,$CREATED IN '$,MODEP,$' MODE.$)             448  LM00198
 14015 TSX +0 07400 4 00027    14016 TXH +3 00000 0 00024    14017 TXH +3 00000 0 01005    14020 TXH +3 00000 0 00024
 14021 TXH +3 00000 0 01005    14022 TXH +3 00000 0 10415    14023 TXH +3 00000 0 10417    14024 TXH +3 00000 0 10225
 14025 TXH +3 00000 0 10406    14026 TXH +3 00000 0 10431
                      E'L                                                           449  LM00199
                      F'N 1B                                                        450  LM00200
 14027 CLA +0 50000 0 10353    14030 TRA +0 02000 0 14064
      NDEL1           F'N 0B                                                        451  LM00201
 14031 CLA +0 50000 0 10352    14032 TRA +0 02000 0 14064
                 O'E                                                                452  LM00202
 14033 TRA +0 02000 0 14036
                      F'N 0B                                                        453  LM00203
 14034 CLA +0 50000 0 10352    14035 TRA +0 02000 0 14064
                 E'L                                                                454  LM00204
      NFND       MODE=000K                                                          455  LM00205
 14036 CLA +0 50000 0 10352    14037 STO +0 60100 0 00731
                 T'O CL01                                                           456  LM00206
 14040 TRA +0 02000 0 00741
                 END OF FUNCTION                                                    457  LM00207
 14041 TSX +0 07400 4 00014    14042 TXH +3 00000 0 00000    14043 SXD -0 63400 1 14042    14044 SXA +0 63400 4 14064
 14045 CLA +0 50000 4 00001    14046 STA +0 62100 0 13735    14047 STO +0 60100 0 13742    14050 STO +0 60100 0 13752
 14051 STO +0 60100 0 13764    14052 STO +0 60100 0 14001    14053 STO +0 60100 0 14016    14054 CLA +0 50000 4 00002
 14055 STA +0 62100 0 13737    14056 STO +0 60100 0 13743    14057 STO +0 60100 0 13753    14060 STO +0 60100 0 13765
 14061 STO +0 60100 0 14002    14062 STO +0 60100 0 14020    14063 TRA +0 02000 2 00001    14064 AXT +0 77400 4 00000
 14065 LXA +0 53400 2 14042    14066 LXD -0 53400 1 14042    14067 TRA +0 02000 4 00001
                 BOOLEAN YES.                                                       458  LM00212
                 INTERNAL FUNCTION                                                  459  LM00213
 14072 TRA +0 02000 0 14122
                 E'O YES.                                                           460  LM00214
 14073 TRA +0 02000 0 14076    00050 TTR +0 02100 0 14074    14074 SXA +0 63400 2 14112    14075 TSX +0 07400 2 14112
                 RDFLXC.(YESNO,6)                                                   461  LM00215
 14076 TSX +0 07400 4 00031    14077 TXH +3 00000 0 10351    14100 TXH +3 00000 0 10360
                 W'R YESNO.E.$YES   $                                               462  LM00216
 14101 CLA +0 50000 0 10351    14102 SUB +0 40200 0 10543    14103 TNZ -0 10000 0 14107
                      F'N 1B                                                        463  LM00217
 14104 CLA +0 50000 0 10353    14105 TRA +0 02000 0 14116
                 O'E                                                                464  LM00218
 14106 TRA +0 02000 0 14111
                      F'N 0B                                                        465  LM00219
 14107 CLA +0 50000 0 10352    14110 TRA +0 02000 0 14116
                 E'L                                                                466  LM00220
                 END OF FUNCTION                                                    467  LM00221
 14111 TSX +0 07400 4 00014    14112 TXH +3 00000 0 00000    14113 SXD -0 63400 1 14112    14114 SXA +0 63400 4 14116
 14115 TRA +0 02000 2 00001    14116 AXT +0 77400 4 00000    14117 LXA +0 53400 2 14112    14120 LXD -0 53400 1 14112
 14121 TRA +0 02000 4 00001
                 BOOLEAN DELT.                                                      468  LM00226
                 INTERNAL FUNCTION (A,B)                                            469  LM00227
 14122 TRA +0 02000 0 14203
                 E'O DELT.                                                          470  LM00228
 14123 TRA +0 02000 0 14126    00042 TTR +0 02100 0 14124    14124 SXA +0 63400 2 14161    14125 TSX +0 07400 2 14161
                 FNM(0)=A                                                           471  LM00229
 14126 CLA +0 50000 0 00024    14127 STO +0 60100 0 10211
                 FNM(1)=B                                                           472  LM00230
 14130 CLA +0 50000 0 00024    14131 STO +0 60100 0 10210
                 DELETE.(A,B,0,NOTDEL)                                              473  LM00231
 14132 TSX +0 07400 4 00012    14133 TXH +3 00000 0 00024    14134 TXH +3 00000 0 00024    14135 TXH +3 00000 0 10352
 14136 TXH +3 00000 0 00755
                      PRMESS.(A,BL,B,$ DELETED.$)                                   474  LM00232
 14137 TSX +0 07400 4 00027    14140 TXH +3 00000 0 00024    14141 TXH +3 00000 0 01005    14142 TXH +3 00000 0 00024
 14143 TXH +3 00000 0 10470    14144 TXH +3 00000 0 10420
                      F'N 1B                                                        475  LM00233
 14145 CLA +0 50000 0 10353    14146 TRA +0 02000 0 14177
      NOTDEL     PRMESS.(A,BL,B,$ NOT DELETED.$)                                    476  LM00234
 14147 TSX +0 07400 4 00027    14150 TXH +3 00000 0 00024    14151 TXH +3 00000 0 01005    14152 TXH +3 00000 0 00024
 14153 TXH +3 00000 0 10500    14154 TXH +3 00000 0 10421    14155 TXH +3 00000 0 10431
                 F'N 0B                                                             477  LM00235
 14156 CLA +0 50000 0 10352    14157 TRA +0 02000 0 14177
                 E'N                                                                478  LM00236
 14160 TSX +0 07400 4 00014    14161 TXH +3 00000 0 00000    14162 SXD -0 63400 1 14161    14163 SXA +0 63400 4 14177
 14164 CLA +0 50000 4 00001    14165 STA +0 62100 0 14126    14166 STO +0 60100 0 14133    14167 STO +0 60100 0 14140
 14170 STO +0 60100 0 14150    14171 CLA +0 50000 4 00002    14172 STA +0 62100 0 14130    14173 STO +0 60100 0 14134
 14174 STO +0 60100 0 14142    14175 STO +0 60100 0 14152    14176 TRA +0 02000 2 00001    14177 AXT +0 77400 4 00000
 14200 LXA +0 53400 2 14161    14201 LXD -0 53400 1 14161    14202 TRA +0 02000 4 00001
                 INSERT FILE AFORM                                                  479  LM00352
                 BOOLEAN MKLNMK.                                                    480  LM00015
                 INTERNAL FUNCTION (A,B,CT)                                         481  LM00016
 14203 TRA +0 02000 0 14337
                 E'O MKLNMK.                                                        482  LM00017
 14204 TRA +0 02000 0 14207    00046 TTR +0 02100 0 14205    14205 SXA +0 63400 2 14315    14206 TSX +0 07400 2 14315
                 OLDERR=FERRTN.(NTFND)                                              483  LM00018
 14207 TSX +0 07400 4 00015    14210 TXH +3 00000 0 00756    14211 STO +0 60100 0 10251
                 FSTATE.(A,B,FSBUF(8)...8)                                          484  LM00019
 14212 TSX +0 07400 4 00016    14213 TXH +3 00000 0 00024    14214 TXH +3 00000 0 00024    14215 TIX +2 10361 0 00730
                 FERRTN.(OLDERR)                                                    485  LM00020
 14216 TSX +0 07400 4 00015    14217 TXH +3 00000 0 10251
                 CT=FSBUF(8)                                                        486  LM00021
 14220 CLA +0 50000 0 00730    14221 STO +0 60100 0 00024
                 V'S NWLNMK(11)...NWLNMK(14)=777777000000K                          487  LM00022
 10232     -3 77777 0 00000    10233     -3 77777 0 00000    10234     -3 77777 0 00000    10235     -3 77777 0 00000
                 V'S NWLNMK(10)=777777000011K                                       488  LM00023
 10236     -3 77777 0 00011
                 NWLNMK(9)=A                                                        489  LM00024
 14222 CLA +0 50000 0 00024    14223 STO +0 60100 0 10237
                 NWLNMK(8)=B                                                        490  LM00025
 14224 CLA +0 50000 0 00024    14225 STO +0 60100 0 10240
                 W'R .NOT. GOTTM                                                    491  LM00026
 14226 ZET +0 52000 0 10214    14227 TRA +0 02000 0 14300
                   BOOLEAN GOTTM                                                    492  LM00027
                      GETTM.(PDATE,PTIME)                                           493  LM00028
 14230 TSX +0 07400 4 00017    14231 TXH +3 00000 0 10252    14232 TXH +3 00000 0 10324
                      NWLNMK(7)=(PDATE.RS.6).V.$ 00000$                             494  LM00029
 14233 CAL -0 50000 0 10360    14234 STA +0 62100 0 14236    14235 CAL -0 50000 0 10252    14236 LGR -0 76500 0 00000
 14237 ORA -0 50100 0 10464    14240 SLW +0 60200 0 10241
                      NWLNMK(6) = (DEFBC.(GTDYTM.(0).RS.27).LS.18)                  495  LM00030
                1          .V.(PTIME.RS.24)                                         495  LM00031
                2               .V.$/00 00$                                         495  LM00032
 14241 CAL -0 50000 0 10367    14242 STA +0 62100 0 14244    14243 CAL -0 50000 0 10324    14244 LGR -0 76500 0 00000
 14245 SLW +0 60200 0 14335    14246 TSX +0 07400 4 00020    14247 TXH +3 00000 0 10352    14250 STO +0 60100 0 14336
 14251 CAL -0 50000 0 10370    14252 STA +0 62100 0 14254    14253 CAL -0 50000 0 14336    14254 LGR -0 76500 0 00000
 14255 SLW +0 60200 0 14336    14256 TSX +0 07400 4 00011    14257 TXH +3 00000 0 14336    14260 STO +0 60100 0 14336
 14261 CAL -0 50000 0 10365    14262 STA +0 62100 0 14264    14263 CAL -0 50000 0 14336    14264 ALS +0 76700 0 00000
 14265 ORA -0 50100 0 14335    14266 ORA -0 50100 0 10525    14267 SLW +0 60200 0 10242
                      NWLNMK(5)=(PTIME.LS.12).V.$0000  $                            496  LM00034
 14270 CAL -0 50000 0 10363    14271 STA +0 62100 0 14273    14272 CAL -0 50000 0 10324    14273 ALS +0 76700 0 00000
 14274 ORA -0 50100 0 10376    14275 SLW +0 60200 0 10243
                      GOTTM=1B                                                      497  LM00035
 14276 CLA +0 50000 0 10353    14277 STO +0 60100 0 10214
                 E'L                                                                498  LM00036
                 NWLNMK(4)=BZEL.(DEFBC.(FSBUF(8)))                                  499  LM00037
 14300 TSX +0 07400 4 00011    14301 TXH +3 00000 0 00730    14302 STO +0 60100 0 14336    14303 TSX +0 07400 4 00005
 14304 TXH +3 00000 0 14336    14305 STO +0 60100 0 10244
                 V'S NWLNMK(3)=$      $                                             500  LM00038
 10245     -2 06060 6 06060
                 V'S NWLNMK(2)=$   000$                                             501  LM00039
 10246     -2 06060 0 00000
                 V'S NWLNMK(1)=$00    $                                             502  LM00040
 10247     +0 00060 6 06060
                 F'N 1B                                                             503  LM00041
 14306 CLA +0 50000 0 10353    14307 TRA +0 02000 0 14331
      NTFND      FERRTN.(OLDERR)                                                    504  LM00042
 14310 TSX +0 07400 4 00015    14311 TXH +3 00000 0 10251
                 F'N 0B                                                             505  LM00043
 14312 CLA +0 50000 0 10352    14313 TRA +0 02000 0 14331
                 END OF FUNCTION                                                    506  LM00044
 14314 TSX +0 07400 4 00014    14315 TXH +3 00000 0 00000    14316 SXD -0 63400 1 14315    14317 SXA +0 63400 4 14331
 14320 CLA +0 50000 4 00001    14321 STO +0 60100 0 14213    14322 STA +0 62100 0 14222    14323 CLA +0 50000 4 00002
 14324 STO +0 60100 0 14214    14325 STA +0 62100 0 14224    14326 CLA +0 50000 4 00003    14327 STA +0 62100 0 14221
 14330 TRA +0 02000 2 00001    14331 AXT +0 77400 4 00000    14332 LXA +0 53400 2 14315    14333 LXD -0 53400 1 14315
 14334 TRA +0 02000 4 00001
                 BOOLEAN BDLNMK.                                                    507  LM00049
                 INTERNAL FUNCTION(LMK)                                             508  LM00050
 14337 TRA +0 02000 0 14464
                 E'O BDLNMK.                                                        509  LM00051
 14340 TRA +0 02000 0 14343    00035 TTR +0 02100 0 14341    14341 SXA +0 63400 2 14427    14342 TSX +0 07400 2 14427
                 W'R (LMK(14).NE.777777000000K .AND. LMK(14).NE.0)                  510  LM00052
                1.OR.LMK(13).NE.777777000000K                                       510  LM00053
                2.OR.LMK(12).NE.777777000000K                                       510  LM00054
                3.OR.LMK(11).NE.777777000000K                                       510  LM00055
                4.OR.LMK(10).NE.777777000011K                                       510  LM00056
                5.OR.LMK(7).A.776060776060K .NE. $ 00/00$                           510  LM00057
                6.OR.LMK(6).A.776060776060K .NE. $/00 00$                           510  LM00058
                7.OR.LMK(5).A.606077607777K .NE. $00.0  $                           510  LM00059
                8.OR.LMK(4).A.60K.NE.0                                              510  LM00060
 14343 CAL -0 50000 0 00020    14344 ANA -0 32000 0 10371    14345 SLW +0 60200 0 14463    14346 CLA +0 50000 0 14463
 14347 SUB +0 40200 0 10352    14350 TNZ -0 10000 0 14416    14351 CAL -0 50000 0 00017    14352 ANA -0 32000 0 10520
 14353 SLW +0 60200 0 14463    14354 CLA +0 50000 0 14463    14355 SUB +0 40200 0 10402    14356 TNZ -0 10000 0 14416
 14357 CAL -0 50000 0 00016    14360 ANA -0 32000 0 10550    14361 SLW +0 60200 0 14463    14362 CLA +0 50000 0 14463
 14363 SUB +0 40200 0 10525    14364 TNZ -0 10000 0 14416    14365 CAL -0 50000 0 00015    14366 ANA -0 32000 0 10550
 14367 SLW +0 60200 0 14463    14370 CLA +0 50000 0 14463    14371 SUB +0 40200 0 10465    14372 TNZ -0 10000 0 14416
 14373 CLA +0 50000 0 00012    14374 SUB +0 40200 0 10554    14375 TNZ -0 10000 0 14416    14376 CLA +0 50000 0 00011
 14377 SUB +0 40200 0 10553    14400 TNZ -0 10000 0 14416    14401 CLA +0 50000 0 00010    14402 SUB +0 40200 0 10553
 14403 TNZ -0 10000 0 14416    14404 CLA +0 50000 0 00007    14405 SUB +0 40200 0 10553    14406 TNZ -0 10000 0 14416
 14407 CLA +0 50000 0 00006    14410 SUB +0 40200 0 10352    14411 TZE +0 10000 0 14415    14412 CLA +0 50000 0 00006
 14413 SUB +0 40200 0 10553    14414 TNZ -0 10000 0 14416    14415 TRA +0 02000 0 14421
                      F'N 1B                                                        511  LM00061
 14416 CLA +0 50000 0 10353    14417 TRA +0 02000 0 14457
                 O'E                                                                512  LM00062
 14420 TRA +0 02000 0 14423
                      F'N 0B                                                        513  LM00063
 14421 CLA +0 50000 0 10352    14422 TRA +0 02000 0 14457
                 E'L                                                                514  LM00064
                 END OF FUNCTION                                                    515  LM00065
 14423 TSX +0 07400 4 00014    14424 PZE +0 00000 0 00004    14425 PZE +0 00000 0 00001    14426 PZE +0 00000 0 00003
 14427 TXH +3 00000 0 00000    14430 SXD -0 63400 1 14427    14431 SXA +0 63400 4 14457    14432 CLA +0 50000 4 00001
 14433 SUB +0 40200 0 14424    14434 STA +0 62100 0 14343    14435 SUB +0 40200 0 14425    14436 STA +0 62100 0 14351
 14437 SUB +0 40200 0 14425    14440 STA +0 62100 0 14357    14441 SUB +0 40200 0 14425    14442 STA +0 62100 0 14365
 14443 SUB +0 40200 0 14426    14444 STA +0 62100 0 14373    14445 SUB +0 40200 0 14425    14446 STA +0 62100 0 14376
 14447 SUB +0 40200 0 14425    14450 STA +0 62100 0 14401    14451 SUB +0 40200 0 14425    14452 STA +0 62100 0 14404
 14453 SUB +0 40200 0 14425    14454 STA +0 62100 0 14407    14455 STA +0 62100 0 14412    14456 TRA +0 02000 2 00001
 14457 AXT +0 77400 4 00000    14460 LXA +0 53400 2 14427    14461 LXD -0 53400 1 14427    14462 TRA +0 02000 4 00001
                 INTERNAL FUNCTION DATTM.(LMK)=                                     516  LM00072
                1     (BCDEC.((LMK(6).RS.18).A.7777K).LS.27).A.777K9                516  LM00073
                2  .V.(BCDEC.((LMK(7).RS.18).A.7777K).LS.23).A.74K7                 516  LM00074
                3  .V.(BCDEC.(LMK(7).A.7777K).LS.18).A.37K6                         516  LM00075
                4  .V.(BCDEC.(LMK(6).A.7777K)*3600                                  516  LM00076
                6     +BCDEC.(LMK(5).RS.24)*60                                      516  LM00077
                5     +BCDEC.((LMK(5).RS.12).A.77K)*6)                              516  LM00078
 14464 TRA +0 02000 0 14640    00041 TTR +0 02100 0 14465    14465 SXA +0 63400 2 14612    14466 TSX +0 07400 2 14612
 14467 CAL -0 50000 0 10363    14470 STA +0 62100 0 14472    14471 CAL -0 50000 0 00017    14472 LGR -0 76500 0 00000
 14473 ANA -0 32000 0 10374    14474 SLW +0 60200 0 14634    14475 TSX +0 07400 4 00000    14476 TXH +3 00000 0 14634
 14477 XCA +0 13100 0 00000    14500 MPY +0 20000 0 10360    14501 STQ -0 60000 0 14634    14502 CAL -0 50000 0 10367
 14503 STA +0 62100 0 14505    14504 CAL -0 50000 0 00017    14505 LGR -0 76500 0 00000    14506 SLW +0 60200 0 14635
 14507 TSX +0 07400 4 00000    14510 TXH +3 00000 0 14635    14511 XCA +0 13100 0 00000    14512 MPY +0 20000 0 10373
 14513 STQ -0 60000 0 14635    14514 CAL -0 50000 0 00016    14515 ANA -0 32000 0 10400    14516 SLW +0 60200 0 14636
 14517 TSX +0 07400 4 00000    14520 TXH +3 00000 0 14636    14521 XCA +0 13100 0 00000    14522 MPY +0 20000 0 10377
 14523 XCA +0 13100 0 00000    14524 ADD +0 40000 0 14635    14525 ADD +0 40000 0 14634    14526 STO +0 60100 0 14636
 14527 CAL -0 50000 0 00015    14530 ANA -0 32000 0 10400    14531 SLW +0 60200 0 14635    14532 TSX +0 07400 4 00000
 14533 TXH +3 00000 0 14635    14534 STO +0 60100 0 14635    14535 CAL -0 50000 0 10365    14536 STA +0 62100 0 14540
 14537 CAL -0 50000 0 14635    14540 ALS +0 76700 0 00000    14541 ANA -0 32000 0 10403    14542 SLW +0 60200 0 14635
 14543 CAL -0 50000 0 10365    14544 STA +0 62100 0 14546    14545 CAL -0 50000 0 00015    14546 LGR -0 76500 0 00000
 14547 ANA -0 32000 0 10400    14550 SLW +0 60200 0 14634    14551 TSX +0 07400 4 00000    14552 TXH +3 00000 0 14634
 14553 STO +0 60100 0 14634    14554 CAL -0 50000 0 10366    14555 STA +0 62100 0 14557    14556 CAL -0 50000 0 14634
 14557 ALS +0 76700 0 00000    14560 ANA -0 32000 0 10405    14561 SLW +0 60200 0 14634    14562 CAL -0 50000 0 10365
 14563 STA +0 62100 0 14565    14564 CAL -0 50000 0 00016    14565 LGR -0 76500 0 00000    14566 ANA -0 32000 0 10400
 14567 SLW +0 60200 0 14637    14570 TSX +0 07400 4 00000    14571 TXH +3 00000 0 14637    14572 STO +0 60100 0 14637
 14573 CAL -0 50000 0 10370    14574 STA +0 62100 0 14576    14575 CAL -0 50000 0 14637    14576 ALS +0 76700 0 00000
 14577 ANA -0 32000 0 10551    14600 ORA -0 50100 0 14634    14601 ORA -0 50100 0 14635    14602 ORA -0 50100 0 14636
 14603 SLW +0 60200 0 14637    14604 CLA +0 50000 0 14637    14605 TRA +0 02000 0 14630    14606 PZE +0 00000 0 00004
 14607 PZE +0 00000 0 00001    14610 PZE +0 00000 0 00003    14611 PZE +0 00000 0 00005    14612 TXH +3 00000 0 00000
 14613 SXD -0 63400 1 14612    14614 SXA +0 63400 4 14630    14615 CLA +0 50000 4 00001    14616 SUB +0 40200 0 14611
 14617 STA +0 62100 0 14471    14620 STA +0 62100 0 14504    14621 SUB +0 40200 0 14607    14622 STA +0 62100 0 14514
 14623 STA +0 62100 0 14564    14624 SUB +0 40200 0 14607    14625 STA +0 62100 0 14527    14626 STA +0 62100 0 14545
 14627 TRA +0 02000 2 00001    14630 AXT +0 77400 4 00000    14631 LXA +0 53400 2 14612    14632 LXD -0 53400 1 14612
 14633 TRA +0 02000 4 00001
                 INTERNAL FUNCTION CNT.(LMK)=BCDEC.(LMK(4))                         517  LM00083
 14640 TRA +0 02000 0 14665    00037 TTR +0 02100 0 14641    14641 SXA +0 63400 2 14652    14642 TSX +0 07400 2 14652
 14643 TSX +0 07400 4 00000    14644 TXH +3 00000 0 00020    14645 TRA +0 02000 0 14661    14646 PZE +0 00000 0 00004
 14647 PZE +0 00000 0 00001    14650 PZE +0 00000 0 00003    14651 PZE +0 00000 0 00005    14652 TXH +3 00000 0 00000
 14653 SXD -0 63400 1 14652    14654 SXA +0 63400 4 14661    14655 CLA +0 50000 4 00001    14656 SUB +0 40200 0 14646
 14657 STO +0 60100 0 14644    14660 TRA +0 02000 2 00001    14661 AXT +0 77400 4 00000    14662 LXA +0 53400 2 14652
 14663 LXD -0 53400 1 14652    14664 TRA +0 02000 4 00001
                 INTERNAL FUNCTION FLN1.(LMK)=LMK(9)                                518  LM00084
 14665 TRA +0 02000 0 14712    00043 TTR +0 02100 0 14666    14666 SXA +0 63400 2 14677    14667 TSX +0 07400 2 14677
 14670 CLA +0 50000 0 00013    14671 TRA +0 02000 0 14706    14672 PZE +0 00000 0 00004    14673 PZE +0 00000 0 00001
 14674 PZE +0 00000 0 00003    14675 PZE +0 00000 0 00005    14676 PZE +0 00000 0 00011    14677 TXH +3 00000 0 00000
 14700 SXD -0 63400 1 14677    14701 SXA +0 63400 4 14706    14702 CLA +0 50000 4 00001    14703 SUB +0 40200 0 14676
 14704 STA +0 62100 0 14670    14705 TRA +0 02000 2 00001    14706 AXT +0 77400 4 00000    14707 LXA +0 53400 2 14677
 14710 LXD -0 53400 1 14677    14711 TRA +0 02000 4 00001
                 INTERNAL FUNCTION FLN2.(LMK)=LMK(8)                                519  LM00085
 14712 TRA +0 02000 0 14740    00044 TTR +0 02100 0 14713    14713 SXA +0 63400 2 14725    14714 TSX +0 07400 2 14725
 14715 CLA +0 50000 0 00014    14716 TRA +0 02000 0 14734    14717 PZE +0 00000 0 00004    14720 PZE +0 00000 0 00001
 14721 PZE +0 00000 0 00003    14722 PZE +0 00000 0 00005    14723 PZE +0 00000 0 00011    14724 PZE +0 00000 0 00010
 14725 TXH +3 00000 0 00000    14726 SXD -0 63400 1 14725    14727 SXA +0 63400 4 14734    14730 CLA +0 50000 4 00001
 14731 SUB +0 40200 0 14724    14732 STA +0 62100 0 14715    14733 TRA +0 02000 2 00001    14734 AXT +0 77400 4 00000
 14735 LXA +0 53400 2 14725    14736 LXD -0 53400 1 14725    14737 TRA +0 02000 4 00001
                 V'S INF1=9                                                         520  LM00092
 10215     +0 00000 0 00011
                 V'S INF2=4                                                         521  LM00093
 10216     +0 00000 0 00004
                 D'N PRLNMK(14), NWLNMK(14)                                         522  LM00094
                 V'S LMKZ=14                                                        523  LM00095
 10224     +0 00000 0 00016
                 D'N FSBUF(432)                                                     524  LM00096
                 END OF PROGRAM                                                     525  LM00353
 14740 TSX +0 07400 4 00014


  BLIP   BCD 10/04/70 1548.6     905         00000
