1       M1416 3845  PETER R. BOS ....... SET BLIP SEQUENCE OPTION .........      05/30/69 1958.3 PAGE 1

                                     PCC     ON
                                     LBL     BLIP
                                     PCC     OFF

                                     EXTERN  SETBRK,GETCOM,BCDEC,SETFUL,WRFLXA,RDFLXA
                                     EXTERN  SETBLP,SETBCD,WRFLX,CHNCOM


        TRANSFER VECTOR
      00000  622563225142     SETBRK
      00001  272563234644     GETCOM
      00002  222324252360     BCDEC
      00003  622563266443     SETFUL
      00004  665126436721     WRFLXA
      00005  512426436721     RDFLXA
      00006  622563224347     SETBLP
      00007  622563222324     SETBCD
      00010  665126436760     WRFLX
      00011  233045234644     CHNCOM

      00012  0074 00 4 00000         TSX     SETBRK,4      SET INTERRUPT
      00013  3 00000 0 00050         PAR     CHN           .. EXIT
      00014  0074 00 4 00001         TSX     GETCOM,4      GET ARG, NO. SECONDS INTERVAL
      00015  0 00000 0 00001         PZE     1             ..
      00016 -0340 00 0 00017         LAS     *+1           CHECK FOR FENCE
      00017 -377777777777            OCT     777777777777  ..
      00020 -0500 00 0 00063         CAL     =H     2      YES, USE DEFAULT VALUE
      00021  0602 00 0 00062         SLW     T             ..
      00022  0074 00 4 00002         TSX     BCDEC,4       CONVERT TO BINARY
      00023  3 00000 0 00062         PAR     T             ..
      00024  0602 00 0 00062         SLW     T             ..
      00025  0100 00 0 00043         TZE     RESET         T=0 TURNS OFF BLIP
      00026  0074 00 4 00003         TSX     SETFUL,4      SET 12-BIT MODE
      00027  0074 00 4 00004         TSX     WRFLXA,4      ASK FOR INPUT
      00030  0 00003 0 00052         PZE     TYPE,,3       ..
      00031  0074 00 4 00005         TSX     RDFLXA,4      READ IT
      00032  0 00001 0 00061         PZE     WD,,1         ..
      00033  0044 00 0 00000         PAI                   RETURN CODE FROM RDLINE
      00034  0054 00  040000         RFT     40000         WAS LINE INCOMPLETE
      00035  0020 00 0 00043         TRA     RESET         YES, SKIP (USE ALL 3 CHARS)
      00036  0771 00 0 00001         ARS     1             12-BIT CHAR COUNT
      00037  0734 00 1 00000         PAX     ,1            ..
      00040 -0500 00 0 00061         CAL     WD            REMOVE C.R. FROM CHAR
      00041  0322 00 1 00061         ERA     CVT,1         ..
      00042  0602 00 0 00061         SLW     WD            ..
      00043  0074 00 4 00006  RESET  TSX     SETBLP,4      SET BLIP OPTION
      00044  3 00000 0 00061         PAR     WD            ..
      00045  3 00000 0 00062         PAR     T             ..
      00046  0074 00 4 00010         TSX     WRFLX,4       ..
      00047  0 00001 0 00055         PZE     STAR,,1       ..
      00050  0074 00 4 00011  CHN    TSX     CHNCOM,4      AND EXIT
      00051  0 00000 0 00000         PZE     0             ..
1       M1416 3845  PETER R. BOS ....... SET BLIP SEQUENCE OPTION .........      05/30/69 1958.3 PAGE 2


      00052 +013300630170     TYPE   OCT     013300630170,014701250035,006001320057
      00053 +014701250035
      00054 +006001320057
      00055  545757575757     STAR   BCI     /*/
      00056 +000000000002            OCT     000000000002,000000020037,000200370037
      00057 +000000020037
      00060 +000200370037
                       00061  CVT    SYN     *             ..
      00061  0 00000 0 00000  WD     PZE                   BLIP CHAR
      00062  0 00000 0 00000  T      PZE                   TIME INTERVAL

                                     END

        LITERALS
      00063  606060606002
1       M1416 3845  PETER R. BOS ....... SET BLIP SEQUENCE OPTION .........      05/30/69 1958.3 PAGE 1
                        POST PROCESSOR ASSEMBLY DATA

         64 IS THE FIRST LOCATION NOT USED BY THIS PROGRAM

0REFERENCES TO DEFINED SYMBOLS
         62      T    21,   23,   24,   45
         61     WD    32,   40,   42,   44
         50    CHN    13
         61    CVT    41,   61
         55   STAR    47
         52   TYPE    30
          2  BCDEC    22
         43  RESET    25,   35
         10  WRFLX    46
         11 CHNCOM    50
          1 GETCOM    14
          5 RDFLXA    31
          7 SETBCD
          6 SETBLP    43
          0 SETBRK    12
          3 SETFUL    26
          4 WRFLXA    27

0 NO ERROR IN ABOVE ASSEMBLY.


  CALL   BCD 10/04/70 1548.6   25034         00000
1     MAD PROGRAM LISTING ... ... ...                 FILE   CALL0   MAD            02/08/68    1708.9
-
                      CALL COMMAND FOR FILE SYSTEM EXERCISING                                          LM00001
                                                                                                       LM00002
                      LOADING INSTRUCTIONS ...                                                         LM00003
                                                                                                       LM00004
                           MAD CALL0 (LIST)                                                            LM00005
                           MAD CALL1 (LIST)                                                            LM00006
                           FAP CALL2 (LIST)                                                            LM00007
                           FAP CALL3 (LIST)                                                            LM00008
                           LAED NCLOAD CALL0 CALL1 CALL2                                               LM00009
                                CALL3 (SQZ) (SRCH) (CFL5) XLIBE                                        LM00010
                           SAVE CALL                                                                   LM00011
                                                                                                       LM00012
                      D.R. WIDRIG  DEC. 1965                                                           LM00013
                                                                                                       LM00014
                      MAJOR REVISION  MAY 1966  D.R. WIDRIG                                            LM00015
                                                                                                       LM00016
                  NORMAL MODE IS INTEGER                                                          *001 LM00017
                  BOOLEAN STOP,FIRST                                                              *002 LM00018
                                                                                                       LM00019
                  DIMENSION A(9),ARRY(9),SN(9),BUFF(432),MESSAG(20),ARG(20)                       *003 LM00020
                  VECTOR VALUES COMNDS=$UPDMFD$,1,$DELMFD$,2,$ATTACH$,3,$MOVFIL$,4,               *004 LM00021
                1      $SETFIL$,5,$  LINK$,6,$ ALLOT$,7,$UPDATE$,8,$RSFILE$,40                    *004 LM00022
                2      ,$  OPEN$,10,$BUFFER$,11,$RDFILE$,12,$RDWAIT$,13,                          *004 LM00023
                3      $WRFILE$,14,$WRWAIT$,15,$TRFILE$,16,$FCHECK$,17,                           *004 LM00024
                4      $ CLOSE$,18,$ FWAIT$,19,                                                   *004 LM00025
                5      $SETPRI$,20,$RESETF$,21,$CHFILE$,22,$DELFIL$,23,                           *004 LM00026
                6      $FSTATE$,24,$UNLINK$,25,$STORGE$,26,$ATTNAM$,27,                           *004 LM00027
                7      $ MOUNT$,30,$UMOUNT$,31,$VERIFY$,32,$ LABEL$,33,                           *004 LM00028
                8      $TAPFIL$,34,$BVERFY$,35,$BLABEL$,36,$IODIAG$,28,                           *004 LM00029
                9      $PRNTER$,39,$  EXIT$,41,777777777777K,40                                   *004 LM00030
                  VECTOR VALUES TABENT = 2                                                        *005 LM00031
                                                                                                       LM00032
                  VECTOR VALUES FSTAT = 0,$ INACT$,575757576051K,575757576066K,                   *006 LM00033
                1      575757605166K                                                              *006 LM00034
                  VECTOR VALUES FDEV = 0,$ DRUM $,$ DISK $,$ TAPE $                               *007 LM00035
                  VECTOR VALUES FENCE = 777777777777K                                             *008 LM00036
                  VECTOR VALUES NULLS = 575757575757K                                             *009 LM00037
                  VECTOR VALUES SP = 575757575760K                                                *010 LM00038
                  VECTOR VALUES B3 = 575760K6                                                     *011 LM00039
                  VECTOR VALUES MZE = 4K11                                                        *012 LM00040
                  VECTOR VALUES ALL = $   ALL$                                                    *013 LM00041
                  VECTOR VALUES NOSTOP = $  (GO)$                                                 *014 LM00042
                  VECTOR VALUES FNS = $ (FNS)$                                                    *015 LM00043
                  VECTOR VALUES STAR = $(STAR)$                                                   *016 LM00044
                                                                                                       LM00045
                  VECTOR VALUES MXARG = 9                                                         *017 LM00046
                  VECTOR VALUES CHNARG = 0                                                        *018 LM00047
                  VECTOR VALUES LMAX = 20                                                         *019 LM00048
                  VECTOR VALUES CMAX = 72                                                         *020 LM00049
                                                                                                       LM00050
                  VECTOR VALUES STOP = 1B                                                         *021 LM00051
                  VECTOR VALUES FIRST = 1B                                                        *022 LM00052
                                                                                                       LM00053
                      SET STANDARD ERROR RETURN                                                        LM00054
                                                                                                       LM00055
                  FERRTN.(S(39))                                                                  *023 LM00056
                                                                                                       LM00057
                      CLEAR DATA AREAS AND                                                             LM00058
                      FIGURE OUT HOW TO GET ARGUMENTS                                                  LM00059
                                                                                                       LM00060
      START       THROUGH PRIME1, FOR I = 0,1,(I.G.MXARG)                                         *024 LM00061
                       ARRY(I) = MZE                                                              *025 LM00062
                       SN(I) = - 1                                                                *026 LM00063
      PRIME1      CONTINUE                                                                        *027 LM00064
                                                                                                       LM00065
                  WHENEVER FIRST                                                                  *028 LM00066
                       GCLS.(ARG,0)                                                               *029 LM00067
                  OTHERWISE                                                                       *030 LM00068
                       PRMESA.($CALL  $)                                                          *031 LM00069
                       GTWDBI.                                                                    *032 LM00070
                                                                                                       LM00071
                      SECOND GO-AROUND, READ INPUT LINE AND FORMAT IT                                  LM00072
                                                                                                       LM00073
                       THROUGH LOOP1, FOR I = 1,1,(I.G.LMAX)                                      *033 LM00074
                            ARG(I) = FENCE                                                        *034 LM00075
                            GTWDB.(ARG(I),EMPTY)                                                  *035 LM00076
      LOOP1            CONTINUE                                                                   *036 LM00077
                  END OF CONDITIONAL                                                              *037 LM00078
      EMPTY       J = 1                                                                           *038 LM00079
                                                                                                       LM00080
                      GET ALL THE PERTINENT ARGUMENTS PROCESSED                                        LM00081
                                                                                                       LM00082
                  THROUGH IN, FOR I = 0,1,(I.G.MXARG)                                             *039 LM00083
                       ARRY(I) = ARG(J)                                                           *040 LM00084
                       SN(I) = 1                                                                  *041 LM00085
                       WHENEVER (ARRY(I) .E. $     *$)                                            *042 LM00086
                            ARRY(I) = MZE                                                         *043 LM00087
                            SN(I) = - 1                                                           *044 LM00088
                       OR WHENEVER (ARRY(I) .E. NOSTOP)                                           *045 LM00089
                            STOP = 0B                                                             *046 LM00090
                            I = I - 1                                                             *047 LM00091
                       OR WHENEVER (ARRY(I) .E. FENCE)                                            *048 LM00092
                            ARRY(I) = MZE                                                         *049 LM00093
                            SN(I) = -1                                                            *050 LM00094
                            TRANSFER TO SELECT                                                    *051 LM00095
                       OR WHENEVER (ARRY(I) .E. FNS)                                              *052 LM00096
                            ARRY(I) = FENCE                                                       *053 LM00097
                       OR WHENEVER (ARRY(I) .E. STAR)                                             *054 LM00098
                            ARRY(I) = $     *$                                                    *055 LM00099
                       END OF CONDITIONAL                                                         *056 LM00100
                       J = J + 1                                                                  *057 LM00101
                                                                                                       LM00102
      IN          CONTINUE                                                                        *058 LM00103
                                                                                                       LM00104
                      SELECT THE PROPER ROUTINE AND BRANCH                                             LM00105
                                                                                                       LM00106
      SELECT      THROUGH SELECT, FOR I = 0,TABENT,(COMNDS(I).E.ARRY).OR.                         *059 LM00107
                1      (COMNDS(I).E.FENCE)                                                        *059 LM00108
                  SUBNAM.(LJUST.(ARRY))                                                           *060 LM00109
                  TRANSFER TO S(COMNDS(I+1))                                                      *061 LM00110
                                                                                                       LM00111
                      PRIVILEGED COMMANDS                                                              LM00112
                                                                                                       LM00113
      S(1)        CALL.(PROBN.(ARRY(1)),PROGN.(ARRY(2)))                                          *062 LM00114
                  TRANSFER TO KAPUT                                                               *063 LM00115
                                                                                                       LM00116
      S(2)        CALL.(PROBN.(ARRY(1)),PROGN.(ARRY(2)))                                          *064 LM00117
                  TRANSFER TO KAPUT                                                               *065 LM00118
                                                                                                       LM00119
      S(3)        CALL.(PROBN.(ARRY(1)),PROGN.(ARRY(2)))                                          *066 LM00120
                  TRANSFER TO KAPUT                                                               *067 LM00121
                                                                                                       LM00122
      S(4)        CALL.(ARRY(1),ARRY(2),PROBN.(ARRY(3)),PROGN.(ARRY(4)))                          *068 LM00123
                  TRANSFER TO KAPUT                                                               *069 LM00124
                                                                                                       LM00125
      S(5)        CALL.(ARRY(1),ARRY(2),DATECV.(ARRY(3),S(40)).V.                                 *070 LM00126
                1      TIMECV.(ARRY(4),S(40)),                                                    *070 LM00127
                2      DATECV.(ARRY(5),S(40)).V.BCDEC.(ARRY(6)),                                  *070 LM00128
                3      SN(7)*BCOCT.(ARRY(7)),SN(8)*BCDEC.(ARRY(8)))                               *070 LM00129
                  TRANSFER TO KAPUT                                                               *071 LM00130
                                                                                                       LM00131
      S(6)        CALL.(ARRY(1),ARRY(2),PROBN.(ARRY(3)),PROGN.(ARRY(4)),                          *072 LM00132
                1      ARRY(5),ARRY(6),SN(7)*BCOCT.(ARRY(7)))                                     *072 LM00133
                  TRANSFER TO KAPUT                                                               *073 LM00134
                                                                                                       LM00135
      S(7)        CALL.(BCDEC.(ARRY(1)),SN(2)*BCDEC.(ARRY(2)),                                    *074 LM00136
                1      SN(3)*BCDEC.(ARRY(3)))                                                     *074 LM00137
                  TRANSFER TO KAPUT                                                               *075 LM00138
                                                                                                       LM00139
      S(8)        CALL.                                                                           *076 LM00140
                  TRANSFER TO KAPUT                                                               *077 LM00141
                                                                                                       LM00142
      S(9)       RSFILE.(ARRY(1),ARRY(2))                                                              LM00143
                 T'O KAPUT                                                                             LM00144
                                                                                                       LM00145
                      FILE READING AND WRITING, ETC.                                                   LM00146
                                                                                                       LM00147
      S(10)       CALL.(ARRY(1),ARRY(2),ARRY(3),SN(4)*BCOCT.(ARRY(4)),                            *078 LM00148
                1      SN(5)*BCDEC.(ARRY(5)))                                                     *078 LM00149
                  CHNARG = 1                                                                      *079 LM00150
                  TRANSFER TO KAPUT                                                               *080 LM00151
                                                                                                       LM00152
      S(11)       FLINE = BCDEC.(ARRY(3))                                                         *081 LM00153
                  CALL.(ARRY(1),ARRY(2),BUFF(432)...FLINE)                                        *082 LM00154
                  TRANSFER TO KAPUT                                                               *083 LM00155
                                                                                                       LM00156
      S(12)                                                                                       *084 LM00157
                                                                                                       LM00158
      S(13)       WHENEVER SN(4) .L. 0                                                            *085 LM00159
                       COUNT = 1                                                                  *086 LM00160
                  OTHERWISE                                                                       *087 LM00161
                       COUNT = BCDEC.(ARRY(4))                                                    *088 LM00162
                       WHENEVER COUNT .G. 20, COUNT = 20                                          *089 LM00163
                  END OF CONDITIONAL                                                              *090 LM00164
                  CALL.(ARRY(1),ARRY(2),BCDEC.(ARRY(3)),ARG(20)...COUNT,                          *091 LM00165
                1      EOF1,COUNT)                                                                *091 LM00166
                  TRANSFER TO PWORD                                                               *092 LM00167
                                                                                                       LM00168
      EOF1        PRMESS.($EOF$)                                                                  *093 LM00169
                                                                                                       LM00170
      PWORD       COUNT = 20 - COUNT                                                              *094 LM00171
                  THROUGH LOOP13, FOR I = 20,-1,(I.LE.COUNT)                                      *095 LM00172
                       PRMESS.(OCLBC.(ARG(I)),OCRBC.(ARG(I)))                                     *096 LM00173
      LOOP13      CONTINUE                                                                        *097 LM00174
                  TRANSFER TO KAPUT                                                               *098 LM00175
                                                                                                       LM00176
      S(14)                                                                                       *099 LM00177
                                                                                                       LM00178
      S(15)       FLINE = (BCOCT.(ARRY(4)).LS.18) .V. BCOCT.(ARRY(5))                             *100 LM00179
                  CALL.(ARRY(1),ARRY(2),BCDEC.(ARRY(3)),FLINE...1,EOF2)                           *101 LM00180
                  TRANSFER TO KAPUT                                                               *102 LM00181
                                                                                                       LM00182
      EOF2        PRMESS.($EOF$)                                                                  *103 LM00183
                  TRANSFER TO KAPUT                                                               *104 LM00184
                                                                                                       LM00185
                      SINCE 'TRFILE' IS SUCH A HANDY WAY TO MAKE DUMMY                                 LM00186
                      FILES, THIS ENTRY WORKS IN TWO WAYS, DEPENDING ON                                LM00187
                      WHETHER OR NOT THIS IS THE FIRST FUNCTION REQUESTED                              LM00188
                      OF 'CALL'.                                                                       LM00189
                                                                                                       LM00190
      S(16)       WHENEVER FIRST                                                                  *105 LM00191
                       OPEN.($W$,ARRY(1),ARRY(2))                                                 *106 LM00192
                       BUFFER.(ARRY(1),ARRY(2),BUFF(432)...432)                                   *107 LM00193
                       TRFILE.(ARRY(1),ARRY(2),BCDEC.(ARRY(3)))                                   *108 LM00194
                       CLOSE.(ARRY(1),ARRY(2))                                                    *109 LM00195
                  OTHERWISE                                                                       *110 LM00196
                       CALL.(ARRY(1),ARRY(2),BCDEC.(ARRY(3)))                                     *111 LM00197
                  END OF CONDITIONAL                                                              *112 LM00198
                  TRANSFER TO KAPUT                                                               *113 LM00199
                                                                                                       LM00200
      S(17)       CALL.(ARRY(1),ARRY(2),FINISH)                                                   *114 LM00201
                  TRANSFER TO KAPUT                                                               *115 LM00202
                                                                                                       LM00203
      FINISH      PRMESS.($FINISH$)                                                               *116 LM00204
                  TRANSFER TO KAPUT                                                               *117 LM00205
                                                                                                       LM00206
      S(18)       CALL.(ARRY(1),ARRY(2))                                                          *118 LM00207
                  TRANSFER TO KAPUT                                                               *119 LM00208
                                                                                                       LM00209
      S(19)       CALL.(ARRY(1),ARRY(2))                                                          *120 LM00210
                  TRANSFER TO KAPUT                                                               *121 LM00211
                                                                                                       LM00212
                      MISCELLANEOUS FILE MANIPULATIONS                                                 LM00213
                                                                                                       LM00214
      S(20)       CALL.(ARRY(1).A.7K)                                                             *122 LM00215
                  TRANSFER TO KAPUT                                                               *123 LM00216
                                                                                                       LM00217
      S(21)       CALL.                                                                           *124 LM00218
                  TRANSFER TO KAPUT                                                               *125 LM00219
                                                                                                       LM00220
      S(22)       CALL.(ARRY(1),ARRY(2),SN(3)*BCOCT.(ARRY(3)),                                    *126 LM00221
                1      ARRY(4),ARRY(5))                                                           *126 LM00222
                  TRANSFER TO KAPUT                                                               *127 LM00223
                                                                                                       LM00224
      S(23)       CALL.(ARRY(1),ARRY(2))                                                          *128 LM00225
                  TRANSFER TO KAPUT                                                               *129 LM00226
                                                                                                       LM00227
      S(24)       CALL.(ARRY(1),ARRY(2),A(8)...8)                                                 *130 LM00228
                  WHENEVER (A(7) .RS. 35) .E. 1                                                   *131 LM00229
                       LBIT = 575757604360K                                                       *132 LM00230
                  OTHERWISE                                                                       *133 LM00231
                       LBIT = NULLS                                                               *134 LM00232
                  END OF CONDITIONAL                                                              *135 LM00233
                  PRMESS.(BZEL.(DEFBC.(A(8))),LBIT,OCRBC.(A(7)).V.B3,                             *136 LM00234
                1      FSTAT(A(6)),FDEV(A(5)),BZEL.(DEFBC.(A(4))),SP,                             *136 LM00235
                2      BZEL.(DEFBC.(A(3))),SP,CVDATE.(A(2)),CVTIME.(A(2)),                        *136 LM00236
                3      SP,CVDATE.(A(1)),BZEL.(DERBC.(A(1))))                                      *136 LM00237
                  TRANSFER TO KAPUT                                                               *137 LM00238
                                                                                                       LM00239
      S(25)       CALL.(ARRY(1),ARRY(2))                                                          *138 LM00240
                  TRANSFER TO KAPUT                                                               *139 LM00241
                                                                                                       LM00242
      S(26)       CALL.(BCOCT.(ARRY(1)),ALLOTD,USED)                                              *140 LM00243
                  PRMESS.(BZEL.(DEFBC.(ALLOTD)),BZEL.(DEFBC.(USED)))                              *141 LM00244
                  TRANSFER TO KAPUT                                                               *142 LM00245
                                                                                                       LM00246
      S(27)       CALL.(A(4)...4)                                                                 *143 LM00247
                  PRMESS.(A(4),SP,A(3),BZEL.(DERBC.(A(2))),                                       *144 LM00248
                1      A(1) .V. 575757576000K)                                                    *144 LM00249
                  TRANSFER TO KAPUT                                                               *145 LM00250
                                                                                                       LM00251
      S(28)       CALL.(A(7)...7)                                                                 *146 LM00252
                  WHENEVER (A(7) .A. 1K6) .NE. 0                                                  *147 LM00253
                       LBIT = 575740214060K                                                       *148 LM00254
                  OTHERWISE                                                                       *149 LM00255
                       LBIT = NULLS                                                               *150 LM00256
                  END OF CONDITIONAL                                                              *151 LM00257
                  PRMESS.(LBIT,(OCABC.(A(7)).LS.6).V.$00000 $,A(6),                               *152 LM00258
                1      DEFBC.(A(5)).V.B3,(DEFBC.(A(4)).LS.6).V.                                   *152 LM00259
                2      575757600060K,A(3),SP,A(2),OCABC.(A(1)))                                   *152 LM00260
                  TRANSFER TO KAPUT                                                               *153 LM00261
                                                                                                       LM00262
                                                                                                       LM00263
                      TAPE HANDLING COMMANDS                                                           LM00264
                                                                                                       LM00265
      S(30)       PRMESS.($ TYPE MESSAGE$)                                                        *154 LM00266
                  RDFLXC.(MESSAG(1),CMAX)                                                         *155 LM00267
                  CALL.(SN(1)*BCDEC.(ARRY(1)),BCDEC.(ARRY(2)),                                    *156 LM00268
                1      MESSAG(20)...LMAX)                                                         *156 LM00269
                  TRANSFER TO KAPUT                                                               *157 LM00270
                                                                                                       LM00271
      S(31)       PRMESS.($ TYPE MESSAGE$)                                                        *158 LM00272
                  RDFLXC.(MESSAG(1),CMAX)                                                         *159 LM00273
                  WHENEVER ARRY(1).E.ALL                                                          *160 LM00274
                       ARRY(1) = $ALL$                                                            *161 LM00275
                  OTHERWISE                                                                       *162 LM00276
                       ARRY(1) = BCDEC.(ARRY(1))                                                  *163 LM00277
                  END OF CONDITIONAL                                                              *164 LM00278
                  CALL.(ARRY(1),MESSAG(20)...LMAX)                                                *165 LM00279
                  TRANSFER TO KAPUT                                                               *166 LM00280
                                                                                                       LM00281
      S(32)       PRMESS.($ TYPE BCD LABEL$)                                                      *167 LM00282
                  RDFLXC.(MESSAG(1),24)                                                           *168 LM00283
                  CALL.(BCDEC.(ARRY(1)),MESSAG(4)...4)                                            *169 LM00284
                  TRANSFER TO KAPUT                                                               *170 LM00285
                                                                                                       LM00286
      S(33)       PRMESS.($ TYPE BCD LABEL$)                                                      *171 LM00287
                  RDFLXC.(MESSAG(1),24)                                                           *172 LM00288
                  CALL.(BCDEC.(ARRY(1)),MESSAG(4)...4)                                            *173 LM00289
                  TRANSFER TO KAPUT                                                               *174 LM00290
                                                                                                       LM00291
      S(34)       CALL.(ARRY(1),ARRY(2),BCDEC.(ARRY(3)),                                          *175 LM00292
                1      SN(4)*BCDEC.(ARRY(4)))                                                     *175 LM00293
                  TRANSFER TO KAPUT                                                               *176 LM00294
                                                                                                       LM00295
      S(35)       PRMESS.($ TYPE OCTAL LABEL$)                                                    *177 LM00296
                  RDFLXC.(MESSAG(1),24)                                                           *178 LM00297
                  THROUGH LOOP35, FOR I=1,1,I.G.4                                                 *179 LM00298
                  MESSAG(21-I) = BCOCT.(MESSAG(I))                                                *180 LM00299
      LOOP35      CONTINUE                                                                        *181 LM00300
                  VERIFY.(BCDEC.(ARRY(1)),MESSAG(20)...4)                                         *182 LM00301
                  TRANSFER TO KAPUT                                                               *183 LM00302
                                                                                                       LM00303
      S(36)       PRMESS.($ TYPE OCTAL LABEL$)                                                    *184 LM00304
                  RDFLXC.(MESSAG(1),24)                                                           *185 LM00305
                  THROUGH LOOP36, FOR I=1,1,I.G.4                                                 *186 LM00306
                       MESSAG(21-I) = BCOCT.(MESSAG(I))                                           *187 LM00307
      LOOP36      CONTINUE                                                                        *188 LM00308
                  LABEL.(BCDEC.(ARRY(1)),MESSAG(20)...4)                                          *189 LM00309
                  TRANSFER TO KAPUT                                                               *190 LM00310
                                                                                                       LM00311
                      ERROR COMMENT AND EXIT                                                           LM00312
                                                                                                       LM00313
      S(39)       PRNTER.                                                                         *191 LM00314
                  TRANSFER TO KAPUT                                                               *192 LM00315
                                                                                                       LM00316
      S(40)       PRMESS.($ FILE CALL $,ARRY,$ NOT UNDERSTOOD$)                                   *193 LM00317
      KAPUT       WHENEVER .NOT. STOP                                                             *194 LM00318
                       FIRST = 0B                                                                 *195 LM00319
                       TRANSFER TO START                                                          *196 LM00320
                  OTHERWISE                                                                       *197 LM00321
      S(41)            EXIT.(CHNARG)                                                              *198 LM00322
                  END OF CONDITIONAL                                                              *199 LM00323
                                                                                                       LM00324
                  END OF PROGRAM                                                                  *200 LM00325
1MAD PROGRAM,TYPE NOV 1963      (ALL NUMBERS ARE OCTAL)
0TOTAL LOCATIONS   02775 TRANSFER VECTOR LENGTH  00041 PROGRAM BEGINS    01335
0VARIABLE STORAGE (A=ARRAY,C=COMMON,E=ERASABLE,DIGIT=MODE)
      ALLOTD 00124   1        COUNT  01177   1        FSTAT  01214 A 1        LOOP35 00041   4        SELECT 00050   4
      ALL    00125 A 1        EMPTY  00042   4        IN     00041   4        LOOP36 00041   4        SN     01263 A 1
      ARG    00152 A 1        EOF1   00043   4        I      01215   1        MESSAG 01245 A 1        SP     01264 A 1
      ARRY   00164 A 1        EOF2   00044   4        J      01216   1        MXARG  01246 A 1        S      00122 A 4
      A      00176 A 1        FDEV   01203 A 1        KAPUT  00046   4        MZE    01247 A 1        STAR   01265 A 1
      B3     00177 A 1        FENCE  01204 A 1        LBIT   01217   1        NOSTOP 01250 A 1        START  00123   4
      BUFF   01060 A 1        FINISH 00045   4        LMAX   01220 A 1        NULLS  01251 A 1        STOP   01266 A 2
      CHNARG 01061 A 1        FIRST  01205 A 2        LOOP13 00041   4        PRIME1 00041   4        TABENT 01267 A 1
      CMAX   01062 A 1        FLINE  01206   1        LOOP1  00041   4        PWORD  00047   4        USED   01270   1
      COMNDS 01176 A 1        FNS    01207 A 1
0FUNCTION DICTIONARY
      BCDEC  00000   1        BCOCT  00001   1        BUFFER 00002   1        BZEL   00003   1        CALL   00004   1
      CLOSE  00005   1        CVDATE 00006   1        CVTIME 00007   1        DATECV 00010   1        DEFBC  00011   1
      DERBC  00012   1        EXIT   00013   1        FERRTN 00014   1        GCLS   00015   1        GTWDBI 00016   1
      GTWDB  00017   1        .SETUP 00020   1        LABEL  00021   1        LJUST  00022   1        OCABC  00023   1
      OCLBC  00024   1        OCRBC  00025   1        OPEN   00026   1        PRMESA 00027   1        PRMESS 00030   1
      PRNTER 00031   1        PROBN  00032   1        PROGN  00033   1        RDFLXC 00034   1        SUBNAM 00035   1
      TIMECV 00036   1        TRFILE 00037   1        VERIFY 00040   1
0ABSOLUTE CONSTANTS
 01323 -064624606060     01321 -052425516263     01331 -204546636064     01330 -202631432560     01301 +000000000025
 01317 -032122254360     01322 -062363214360     01302 +000000000030     01311 +222543606060     01310 +222324604321
 01307 +214343606060     01315 +256060606060     01320 -042562622127     01333 -206370472560     01304 +000000000060
 01326 -175757600060     01274 +000000000006     01324 -175740214060     01306 +000001000000     01325 -175757576000
 01273 +000000000004     01327 -175757604360     01303 +000000000043     01276 +000000000010     01275 +000000000007
 01316 +263145316230     01305 +000000000660     01334 -266060606060     01277 +000000000022     01314 +254626606060
 01300 +000000000024     01332 -206060606054     01312 +232143436060     01271 +000000000000     01272 +000000000001
 01313 +233000000000
0STATEMENT DICTIONARY
 00042 TXL -301420001416       00043 TXL -302027002025       00044 TXL -302117002115       00045 TXL -302164002162
 00046 TXL -302754002752       00047 TXL -302032002027       00050 TXL -301533001515       00051 TXL -302762002760
 00052 TXL -302752002743       00053 TXL -302742002741       00056 TXL -302700002674       00057 TXL -302633002627
 00060 TXL -302626002611       00061 TXL -302577002573       00062 TXL -302561002555       00063 TXL -302535002531
 00064 TXL -302511002505       00066 TXL -302424002422       00067 TXL -302402002400       00070 TXL -302360002351
 00071 TXL -302350002345       00072 TXL -302231002225       00073 TXL -302224002221       00074 TXL -302220002205
 00075 TXL -302204002203       00076 TXL -302202002175       00077 TXL -302174002171       00100 TXL -302170002165
 00101 TXL -302161002155       00102 TXL -302122002120       00103 TXL -302103002067       00104 TXL -302067002067
 00105 TXL -301776001772       00106 TXL -301772001772       00107 TXL -301765001762       00110 TXL -301757001737
 00112 TXL -301736001735       00113 TXL -301734001713       00114 TXL -301712001667       00115 TXL -301666001620
 00116 TXL -301617001604       00117 TXL -301603001572       00120 TXL -301571001560       00121 TXL -301557001546
 00123 TXL -301352001340
0PROGRAM
                 N'R                                                                001  LM00017
                 B'N STOP,FIRST                                                     002  LM00018
                 D'N A(9),ARRY(9),SN(9),BUFF(432),MESSAG(20),ARG(20)                003  LM00020
                 V'S COMNDS=$UPDMFD$,1,$DELMFD$,2,$ATTACH$,3,$MOVFIL$,4,            004  LM00021
                1     $SETFIL$,5,$  LINK$,6,$ ALLOT$,7,$UPDATE$,8,$RSFILE$,40       004  LM00022
                2     ,$  OPEN$,10,$BUFFER$,11,$RDFILE$,12,$RDWAIT$,13,             004  LM00023
                3     $WRFILE$,14,$WRWAIT$,15,$TRFILE$,16,$FCHECK$,17,              004  LM00024
                4     $ CLOSE$,18,$ FWAIT$,19,                                      004  LM00025
                5     $SETPRI$,20,$RESETF$,21,$CHFILE$,22,$DELFIL$,23,              004  LM00026
                6     $FSTATE$,24,$UNLINK$,25,$STORGE$,26,$ATTNAM$,27,              004  LM00027
                7     $ MOUNT$,30,$UMOUNT$,31,$VERIFY$,32,$ LABEL$,33,              004  LM00028
                8     $TAPFIL$,34,$BVERFY$,35,$BLABEL$,36,$IODIAG$,28,              004  LM00029
                9     $PRNTER$,39,$  EXIT$,41,777777777777K,40                      004  LM00030
 01335 TSX +0 07400 4 00020    01063     +0 00000 0 00050    01064     -3 77777 7 77777    01065     +0 00000 0 00051
 01066     -2 06025 6 73163    01067     +0 00000 0 00047    01070     -0 75145 6 32551    01071     +0 00000 0 00034
 01072     +3 14624 3 12127    01073     +0 00000 0 00044    01074     +2 24321 2 22543    01075     +0 00000 0 00043
 01076     +2 26525 5 12670    01077     +0 00000 0 00042    01100     -2 32147 2 63143    01101     +0 00000 0 00041
 01102     -2 04321 2 22543    01103     +0 00000 0 00040    01104     -2 52551 3 12670    01105     +0 00000 0 00037
 01106     -2 44446 6 44563    01107     +0 00000 0 00036    01110     -2 04446 6 44563    01111     +0 00000 0 00033
 01112     +2 16363 4 52144    01113     +0 00000 0 00032    01114     -2 26346 5 12725    01115     +0 00000 0 00031
 01116     -2 44543 3 14542    01117     +0 00000 0 00030    01120     +2 66263 2 16325    01121     +0 00000 0 00027
 01122     +2 42543 2 63143    01123     +0 00000 0 00026    01124     +2 33026 3 14325    01125     +0 00000 0 00025
 01126     -1 12562 2 56326    01127     +0 00000 0 00024    01130     -2 22563 4 75131    01131     +0 00000 0 00023
 01132     -2 02666 2 13163    01133     +0 00000 0 00022    01134     -2 02343 4 66225    01135     +0 00000 0 00021
 01136     +2 62330 2 52342    01137     +0 00000 0 00020    01140     -2 35126 3 14325    01141     +0 00000 0 00017
 01142     -2 65166 2 13163    01143     +0 00000 0 00016    01144     -2 65126 3 14325    01145     +0 00000 0 00015
 01146     -1 12466 2 13163    01147     +0 00000 0 00014    01150     -1 12426 3 14325    01151     +0 00000 0 00013
 01152     +2 26426 2 62551    01153     +0 00000 0 00012    01154     -2 06046 4 72545    01155     +0 00000 0 00050
 01156     -1 16226 3 14325    01157     +0 00000 0 00010    01160     -2 44724 2 16325    01161     +0 00000 0 00007
 01162     -2 02143 4 34663    01163     +0 00000 0 00006    01164     -2 06043 3 14542    01165     +0 00000 0 00005
 01166     -2 22563 2 63143    01167     +0 00000 0 00004    01170     -0 44665 2 63143    01171     +0 00000 0 00003
 01172     +2 16363 2 12330    01173     +0 00000 0 00002    01174     +2 42543 4 42624    01175     +0 00000 0 00001
 01176     -2 44724 4 42624
                 V'S TABENT = 2                                                     005  LM00031
 01267     +0 00000 0 00002
                 V'S FSTAT = 0,$ INACT$,575757576051K,575757576066K,                006  LM00033
                1     575757605166K                                                 006  LM00034
 01210     -1 75757 6 05166    01211     -1 75757 5 76066    01212     -1 75757 5 76051    01213     -2 03145 2 12363
 01214     +0 00000 0 00000
                 V'S FDEV = 0,$ DRUM $,$ DISK $,$ TAPE $                            007  LM00035
 01200     -2 06321 4 72560    01201     -2 02431 6 24260    01202     -2 02451 6 44460    01203     +0 00000 0 00000
                 V'S FENCE = 777777777777K                                          008  LM00036
 01204     -3 77777 7 77777
                 V'S NULLS = 575757575757K                                          009  LM00037
 01251     -1 75757 5 75757
                 V'S SP = 575757575760K                                             010  LM00038
 01264     -1 75757 5 75760
                 V'S B3 = 575760K6                                                  011  LM00039
 00177     -1 75760 0 00000
                 V'S MZE = 4K11                                                     012  LM00040
 01247     -0 00000 0 00000
                 V'S ALL = $   ALL$                                                 013  LM00041
 00125     -2 06060 2 14343
                 V'S NOSTOP = $  (GO)$                                              014  LM00042
 01250     -2 06074 2 74634
                 V'S FNS = $ (FNS)$                                                 015  LM00043
 01207     -2 07426 4 56234
                 V'S STAR = $(STAR)$                                                016  LM00044
 01265     -3 46263 2 15134
                 V'S MXARG = 9                                                      017  LM00046
 01246     +0 00000 0 00011
                 V'S CHNARG = 0                                                     018  LM00047
 01061     +0 00000 0 00000
                 V'S LMAX = 20                                                      019  LM00048
 01220     +0 00000 0 00024
                 V'S CMAX = 72                                                      020  LM00049
 01062     +0 00000 0 00110
                 V'S STOP = 1B                                                      021  LM00051
 01266     +0 00000 0 00001
                 V'S FIRST = 1B                                                     022  LM00052
 01205     +0 00000 0 00001
                 FERRTN.(S(39))                                                     023  LM00056
 01336 TSX +0 07400 4 00014    01337 TXH +3 00000 0 00053
      START      T'H PRIME1, FOR I = 0,1,(I.G.MXARG)                                024  LM00061
 01340 CLA +0 50000 0 01271    01341 STO +0 60100 0 01215    01342 TRA +0 02000 0 01346    01343 CLA +0 50000 0 01215
 01344 ADD +0 40000 0 01272    01345 STO +0 60100 0 01215    01346 CLA +0 50000 0 01215    01347 SUB +0 40200 0 01246
 01350 TZE +0 10000 0 01352    01351 TPL +0 12000 0 01360
                      ARRY(I) = MZE                                                 025  LM00062
 01352 LXA +0 53400 1 01215    01353 CLA +0 50000 0 01247    01354 STO +0 60100 1 00164
                      SN(I) = - 1                                                   026  LM00063
 01355 CLS +0 50200 0 01272    01356 STO +0 60100 1 01263
      PRIME1     C'E                                                                027  LM00064
 01357 TRA +0 02000 0 01343
                 W'R FIRST                                                          028  LM00066
 01360 NZT -0 52000 0 01205    01361 TRA +0 02000 0 01366
                      GCLS.(ARG,0)                                                  029  LM00067
 01362 TSX +0 07400 4 00015    01363 TXH +3 00000 0 00152    01364 TXH +3 00000 0 01271
                 O'E                                                                030  LM00068
 01365 TRA +0 02000 0 01416
                      PRMESA.($CALL  $)                                             031  LM00069
 01366 TSX +0 07400 4 00027    01367 TXH +3 00000 0 01312
                      GTWDBI.                                                       032  LM00070
 01370 TSX +0 07400 4 00016
                      T'H LOOP1, FOR I = 1,1,(I.G.LMAX)                             033  LM00074
 01371 CLA +0 50000 0 01272    01372 STO +0 60100 0 01215    01373 TRA +0 02000 0 01377    01374 CLA +0 50000 0 01215
 01375 ADD +0 40000 0 01272    01376 STO +0 60100 0 01215    01377 CLA +0 50000 0 01215    01400 SUB +0 40200 0 01220
 01401 TZE +0 10000 0 01403    01402 TPL +0 12000 0 01416
                           ARG(I) = FENCE                                           034  LM00075
 01403 LXA +0 53400 1 01215    01404 CLA +0 50000 0 01204    01405 STO +0 60100 1 00152
                           GTWDB.(ARG(I),EMPTY)                                     035  LM00076
 01406 CLA +0 50000 0 01215    01407 SUB +0 40200 0 01410    01410 TXH +3 00000 0 00152    01411 STA +0 62100 0 01413
 01412 TSX +0 07400 4 00017    01413 TXH +3 00000 0 00000    01414 TXH +3 00000 0 00042
      LOOP1           C'E                                                           036  LM00077
 01415 TRA +0 02000 0 01374
                 E'L                                                                037  LM00078
      EMPTY      J = 1                                                              038  LM00079
 01416 CLA +0 50000 0 01272    01417 STO +0 60100 0 01216
                 T'H IN, FOR I = 0,1,(I.G.MXARG)                                    039  LM00083
 01420 CLA +0 50000 0 01271    01421 STO +0 60100 0 01215    01422 TRA +0 02000 0 01426    01423 CLA +0 50000 0 01215
 01424 ADD +0 40000 0 01272    01425 STO +0 60100 0 01215    01426 CLA +0 50000 0 01215    01427 SUB +0 40200 0 01246
 01430 TZE +0 10000 0 01432    01431 TPL +0 12000 0 01515
                      ARRY(I) = ARG(J)                                              040  LM00084
 01432 LXA +0 53400 1 01215    01433 LXA +0 53400 2 01216    01434 CLA +0 50000 2 00152    01435 STO +0 60100 1 00164
                      SN(I) = 1                                                     041  LM00085
 01436 CLA +0 50000 0 01272    01437 STO +0 60100 1 01263
                      W'R (ARRY(I) .E. $     *$)                                    042  LM00086
 01440 CLA +0 50000 1 00164    01441 SUB +0 40200 0 01332    01442 TNZ -0 10000 0 01450
                           ARRY(I) = MZE                                            043  LM00087
 01443 CLA +0 50000 0 01247    01444 STO +0 60100 1 00164
                           SN(I) = - 1                                              044  LM00088
 01445 CLS +0 50200 0 01272    01446 STO +0 60100 1 01263
                      O'R (ARRY(I) .E. NOSTOP)                                      045  LM00089
 01447 TRA +0 02000 0 01511    01450 LXA +0 53400 1 01215    01451 CLA +0 50000 1 00164    01452 SUB +0 40200 0 01250
 01453 TNZ -0 10000 0 01462
                           STOP = 0B                                                046  LM00090
 01454 CLA +0 50000 0 01271    01455 STO +0 60100 0 01266
                           I = I - 1                                                047  LM00091
 01456 CLA +0 50000 0 01215    01457 SUB +0 40200 0 01272    01460 STO +0 60100 0 01215
                      O'R (ARRY(I) .E. FENCE)                                       048  LM00092
 01461 TRA +0 02000 0 01511    01462 LXA +0 53400 1 01215    01463 CLA +0 50000 1 00164    01464 SUB +0 40200 0 01204
 01465 TNZ -0 10000 0 01474
                           ARRY(I) = MZE                                            049  LM00093
 01466 CLA +0 50000 0 01247    01467 STO +0 60100 1 00164
                           SN(I) = -1                                               050  LM00094
 01470 CLS +0 50200 0 01272    01471 STO +0 60100 1 01263
                           T'O SELECT                                               051  LM00095
 01472 TRA +0 02000 0 00050
                      O'R (ARRY(I) .E. FNS)                                         052  LM00096
 01473 TRA +0 02000 0 01511    01474 LXA +0 53400 1 01215    01475 CLA +0 50000 1 00164    01476 SUB +0 40200 0 01207
 01477 TNZ -0 10000 0 01503
                           ARRY(I) = FENCE                                          053  LM00097
 01500 CLA +0 50000 0 01204    01501 STO +0 60100 1 00164
                      O'R (ARRY(I) .E. STAR)                                        054  LM00098
 01502 TRA +0 02000 0 01511    01503 LXA +0 53400 1 01215    01504 CLA +0 50000 1 00164    01505 SUB +0 40200 0 01265
 01506 TNZ -0 10000 0 01511
                           ARRY(I) = $     *$                                       055  LM00099
 01507 CLA +0 50000 0 01332    01510 STO +0 60100 1 00164
                      E'L                                                           056  LM00100
                      J = J + 1                                                     057  LM00101
 01511 CLA +0 50000 0 01216    01512 ADD +0 40000 0 01272    01513 STO +0 60100 0 01216
      IN         C'E                                                                058  LM00103
 01514 TRA +0 02000 0 01423
      SELECT     T'H SELECT, FOR I = 0,TABENT,(COMNDS(I).E.ARRY).OR.                059  LM00107
                1     (COMNDS(I).E.FENCE)                                           059  LM00108
 01515 CLA +0 50000 0 01271    01516 STO +0 60100 0 01215    01517 TRA +0 02000 0 01523    01520 CLA +0 50000 0 01215
 01521 ADD +0 40000 0 01267    01522 STO +0 60100 0 01215    01523 LXA +0 53400 1 01215    01524 CLA +0 50000 1 01176
 01525 SUB +0 40200 0 01204    01526 TZE +0 10000 0 01533    01527 CLA +0 50000 1 01176    01530 SUB +0 40200 0 00164
 01531 TZE +0 10000 0 01533    01532 TRA +0 02000 0 01520
                 SUBNAM.(LJUST.(ARRY))                                              060  LM00109
 01533 TSX +0 07400 4 00022    01534 TXH +3 00000 0 00164    01535 STO +0 60100 0 02763    01536 TSX +0 07400 4 00035
 01537 TXH +3 00000 0 02763
                 T'O S(COMNDS(I+1))                                                 061  LM00110
 01540 CLA +0 50000 0 01215    01541 ADD +0 40000 0 01272    01542 PAX +0 73400 1 00000    01543 CLA +0 50000 1 01176
 01544 PAX +0 73400 2 00000    01545 TRA +0 02000 2 00122
      S(1)       CALL.(PROBN.(ARRY(1)),PROGN.(ARRY(2)))                             062  LM00114
 01546 TSX +0 07400 4 00033    01547 TXH +3 00000 0 00162    01550 STO +0 60100 0 02763    01551 TSX +0 07400 4 00032
 01552 TXH +3 00000 0 00163    01553 STO +0 60100 0 02764    01554 TSX +0 07400 4 00004    01555 TXH +3 00000 0 02764
 01556 TXH +3 00000 0 02763
                 T'O KAPUT                                                          063  LM00115
 01557 TRA +0 02000 0 00046
      S(2)       CALL.(PROBN.(ARRY(1)),PROGN.(ARRY(2)))                             064  LM00117
 01560 TSX +0 07400 4 00033    01561 TXH +3 00000 0 00162    01562 STO +0 60100 0 02764    01563 TSX +0 07400 4 00032
 01564 TXH +3 00000 0 00163    01565 STO +0 60100 0 02763    01566 TSX +0 07400 4 00004    01567 TXH +3 00000 0 02763
 01570 TXH +3 00000 0 02764
                 T'O KAPUT                                                          065  LM00118
 01571 TRA +0 02000 0 00046
      S(3)       CALL.(PROBN.(ARRY(1)),PROGN.(ARRY(2)))                             066  LM00120
 01572 TSX +0 07400 4 00033    01573 TXH +3 00000 0 00162    01574 STO +0 60100 0 02764    01575 TSX +0 07400 4 00032
 01576 TXH +3 00000 0 00163    01577 STO +0 60100 0 02763    01600 TSX +0 07400 4 00004    01601 TXH +3 00000 0 02763
 01602 TXH +3 00000 0 02764
                 T'O KAPUT                                                          067  LM00121
 01603 TRA +0 02000 0 00046
      S(4)       CALL.(ARRY(1),ARRY(2),PROBN.(ARRY(3)),PROGN.(ARRY(4)))             068  LM00123
 01604 TSX +0 07400 4 00033    01605 TXH +3 00000 0 00160    01606 STO +0 60100 0 02764    01607 TSX +0 07400 4 00032
 01610 TXH +3 00000 0 00161    01611 STO +0 60100 0 02763    01612 TSX +0 07400 4 00004    01613 TXH +3 00000 0 00163
 01614 TXH +3 00000 0 00162    01615 TXH +3 00000 0 02763    01616 TXH +3 00000 0 02764
                 T'O KAPUT                                                          069  LM00124
 01617 TRA +0 02000 0 00046
      S(5)       CALL.(ARRY(1),ARRY(2),DATECV.(ARRY(3),S(40)).V.                    070  LM00126
                1     TIMECV.(ARRY(4),S(40)),                                       070  LM00127
                2     DATECV.(ARRY(5),S(40)).V.BCDEC.(ARRY(6)),                     070  LM00128
                3     SN(7)*BCOCT.(ARRY(7)),SN(8)*BCDEC.(ARRY(8)))                  070  LM00129
 01620 TSX +0 07400 4 00000    01621 TXH +3 00000 0 00154    01622 XCA +0 13100 0 00000    01623 MPY +0 20000 0 01253
 01624 STQ -0 60000 0 02764    01625 TSX +0 07400 4 00001    01626 TXH +3 00000 0 00155    01627 XCA +0 13100 0 00000
 01630 MPY +0 20000 0 01254    01631 STQ -0 60000 0 02763    01632 TSX +0 07400 4 00000    01633 TXH +3 00000 0 00156
 01634 STO +0 60100 0 02765    01635 TSX +0 07400 4 00010    01636 TXH +3 00000 0 00157    01637 TXH +3 00000 0 00052
 01640 STO +0 60100 0 02766    01641 CAL -0 50000 0 02766    01642 ORA -0 50100 0 02765    01643 SLW +0 60200 0 02766
 01644 TSX +0 07400 4 00036    01645 TXH +3 00000 0 00160    01646 TXH +3 00000 0 00052    01647 STO +0 60100 0 02765
 01650 TSX +0 07400 4 00010    01651 TXH +3 00000 0 00161    01652 TXH +3 00000 0 00052    01653 STO +0 60100 0 02767
 01654 CAL -0 50000 0 02767    01655 ORA -0 50100 0 02765    01656 SLW +0 60200 0 02767    01657 TSX +0 07400 4 00004
 01660 TXH +3 00000 0 00163    01661 TXH +3 00000 0 00162    01662 TXH +3 00000 0 02767    01663 TXH +3 00000 0 02766
 01664 TXH +3 00000 0 02763    01665 TXH +3 00000 0 02764
                 T'O KAPUT                                                          071  LM00130
 01666 TRA +0 02000 0 00046
      S(6)       CALL.(ARRY(1),ARRY(2),PROBN.(ARRY(3)),PROGN.(ARRY(4)),             072  LM00132
                1     ARRY(5),ARRY(6),SN(7)*BCOCT.(ARRY(7)))                        072  LM00133
 01667 TSX +0 07400 4 00001    01670 TXH +3 00000 0 00155    01671 XCA +0 13100 0 00000    01672 MPY +0 20000 0 01254
 01673 STQ -0 60000 0 02767    01674 TSX +0 07400 4 00033    01675 TXH +3 00000 0 00160    01676 STO +0 60100 0 02766
 01677 TSX +0 07400 4 00032    01700 TXH +3 00000 0 00161    01701 STO +0 60100 0 02765    01702 TSX +0 07400 4 00004
 01703 TXH +3 00000 0 00163    01704 TXH +3 00000 0 00162    01705 TXH +3 00000 0 02765    01706 TXH +3 00000 0 02766
 01707 TXH +3 00000 0 00157    01710 TXH +3 00000 0 00156    01711 TXH +3 00000 0 02767
                 T'O KAPUT                                                          073  LM00134
 01712 TRA +0 02000 0 00046
      S(7)       CALL.(BCDEC.(ARRY(1)),SN(2)*BCDEC.(ARRY(2)),                       074  LM00136
                1     SN(3)*BCDEC.(ARRY(3)))                                        074  LM00137
 01713 TSX +0 07400 4 00000    01714 TXH +3 00000 0 00161    01715 XCA +0 13100 0 00000    01716 MPY +0 20000 0 01260
 01717 STQ -0 60000 0 02767    01720 TSX +0 07400 4 00000    01721 TXH +3 00000 0 00162    01722 XCA +0 13100 0 00000
 01723 MPY +0 20000 0 01261    01724 STQ -0 60000 0 02766    01725 TSX +0 07400 4 00000    01726 TXH +3 00000 0 00163
 01727 STO +0 60100 0 02765    01730 TSX +0 07400 4 00004    01731 TXH +3 00000 0 02765    01732 TXH +3 00000 0 02766
 01733 TXH +3 00000 0 02767
                 T'O KAPUT                                                          075  LM00138
 01734 TRA +0 02000 0 00046
      S(8)       CALL.                                                              076  LM00140
 01735 TSX +0 07400 4 00004
                 T'O KAPUT                                                          077  LM00141
 01736 TRA +0 02000 0 00046
      S(10)      CALL.(ARRY(1),ARRY(2),ARRY(3),SN(4)*BCOCT.(ARRY(4)),               078  LM00148
                1     SN(5)*BCDEC.(ARRY(5)))                                        078  LM00149
 01737 TSX +0 07400 4 00000    01740 TXH +3 00000 0 00157    01741 XCA +0 13100 0 00000    01742 MPY +0 20000 0 01256
 01743 STQ -0 60000 0 02767    01744 TSX +0 07400 4 00001    01745 TXH +3 00000 0 00160    01746 XCA +0 13100 0 00000
 01747 MPY +0 20000 0 01257    01750 STQ -0 60000 0 02766    01751 TSX +0 07400 4 00004    01752 TXH +3 00000 0 00163
 01753 TXH +3 00000 0 00162    01754 TXH +3 00000 0 00161    01755 TXH +3 00000 0 02766    01756 TXH +3 00000 0 02767
                 CHNARG = 1                                                         079  LM00150
 01757 CLA +0 50000 0 01272    01760 STO +0 60100 0 01061
                 T'O KAPUT                                                          080  LM00151
 01761 TRA +0 02000 0 00046
      S(11)      FLINE = BCDEC.(ARRY(3))                                            081  LM00153
 01762 TSX +0 07400 4 00000    01763 TXH +3 00000 0 00161    01764 STO +0 60100 0 01206
                 CALL.(ARRY(1),ARRY(2),BUFF(432)...FLINE)                           082  LM00154
 01765 TSX +0 07400 4 00004    01766 TXH +3 00000 0 00163    01767 TXH +3 00000 0 00162    01770 TIX +2 01206 0 00200
                 T'O KAPUT                                                          083  LM00155
 01771 TRA +0 02000 0 00046
      S(12)                                                                         084  LM00157
      S(13)      W'R SN(4) .L. 0                                                    085  LM00159
 01772 CLA +0 50000 0 01257    01773 SUB +0 40200 0 01271    01774 TZE +0 10000 0 02001    01775 TPL +0 12000 0 02001
                      COUNT = 1                                                     086  LM00160
 01776 CLA +0 50000 0 01272    01777 STO +0 60100 0 01177
                 O'E                                                                087  LM00161
 02000 TRA +0 02000 0 02012
                      COUNT = BCDEC.(ARRY(4))                                       088  LM00162
 02001 TSX +0 07400 4 00000    02002 TXH +3 00000 0 00160    02003 STO +0 60100 0 01177
                      W'R COUNT .G. 20, COUNT = 20                                  089  LM00163
 02004 CLA +0 50000 0 01177    02005 SUB +0 40200 0 01300    02006 TZE +0 10000 0 02012    02007 TMI -0 12000 0 02012
 02010 CLA +0 50000 0 01300    02011 STO +0 60100 0 01177
                 E'L                                                                090  LM00164
                 CALL.(ARRY(1),ARRY(2),BCDEC.(ARRY(3)),ARG(20)...COUNT,             091  LM00165
                1     EOF1,COUNT)                                                   091  LM00166
 02012 TSX +0 07400 4 00000    02013 TXH +3 00000 0 00161    02014 STO +0 60100 0 02767    02015 TSX +0 07400 4 00004
 02016 TXH +3 00000 0 00163    02017 TXH +3 00000 0 00162    02020 TXH +3 00000 0 02767    02021 TIX +2 01177 0 00126
 02022 TXH +3 00000 0 00043    02023 TXH +3 00000 0 01177
                 T'O PWORD                                                          092  LM00167
 02024 TRA +0 02000 0 00047
      EOF1       PRMESS.($EOF$)                                                     093  LM00169
 02025 TSX +0 07400 4 00030    02026 TXH +3 00000 0 01314
      PWORD      COUNT = 20 - COUNT                                                 094  LM00171
 02027 CLA +0 50000 0 01300    02030 SUB +0 40200 0 01177    02031 STO +0 60100 0 01177
                 T'H LOOP13, FOR I = 20,-1,(I.LE.COUNT)                             095  LM00172
 02032 CLA +0 50000 0 01300    02033 STO +0 60100 0 01215    02034 TRA +0 02000 0 02040    02035 CLS +0 50200 0 01272
 02036 ADD +0 40000 0 01215    02037 STO +0 60100 0 01215    02040 CLA +0 50000 0 01215    02041 SUB +0 40200 0 01177
 02042 TZE +0 10000 0 02066    02043 TMI -0 12000 0 02066
                      PRMESS.(OCLBC.(ARG(I)),OCRBC.(ARG(I)))                        096  LM00173
 02044 CLA +0 50000 0 01215    02045 SUB +0 40200 0 02046    02046 TXH +3 00000 0 00152    02047 STA +0 62100 0 02051
 02050 TSX +0 07400 4 00025    02051 TXH +3 00000 0 00000    02052 STO +0 60100 0 02767    02053 CLA +0 50000 0 01215
 02054 SUB +0 40200 0 02055    02055 TXH +3 00000 0 00152    02056 STA +0 62100 0 02060    02057 TSX +0 07400 4 00024
 02060 TXH +3 00000 0 00000    02061 STO +0 60100 0 02766    02062 TSX +0 07400 4 00030    02063 TXH +3 00000 0 02766
 02064 TXH +3 00000 0 02767
      LOOP13     C'E                                                                097  LM00174
 02065 TRA +0 02000 0 02035
                 T'O KAPUT                                                          098  LM00175
 02066 TRA +0 02000 0 00046
      S(14)                                                                         099  LM00177
      S(15)      FLINE = (BCOCT.(ARRY(4)).LS.18) .V. BCOCT.(ARRY(5))                100  LM00179
 02067 TSX +0 07400 4 00001    02070 TXH +3 00000 0 00157    02071 STO +0 60100 0 02767    02072 TSX +0 07400 4 00001
 02073 TXH +3 00000 0 00160    02074 STO +0 60100 0 02766    02075 CAL -0 50000 0 01277    02076 STA +0 62100 0 02100
 02077 CAL -0 50000 0 02766    02100 ALS +0 76700 0 00000    02101 ORA -0 50100 0 02767    02102 SLW +0 60200 0 01206
                 CALL.(ARRY(1),ARRY(2),BCDEC.(ARRY(3)),FLINE...1,EOF2)              101  LM00180
 02103 TSX +0 07400 4 00000    02104 TXH +3 00000 0 00161    02105 STO +0 60100 0 02767    02106 TSX +0 07400 4 00004
 02107 TXH +3 00000 0 00163    02110 TXH +3 00000 0 00162    02111 TXH +3 00000 0 02767    02112 TIX +2 01272 0 01206
 02113 TXH +3 00000 0 00044
                 T'O KAPUT                                                          102  LM00181
 02114 TRA +0 02000 0 00046
      EOF2       PRMESS.($EOF$)                                                     103  LM00183
 02115 TSX +0 07400 4 00030    02116 TXH +3 00000 0 01314
                 T'O KAPUT                                                          104  LM00184
 02117 TRA +0 02000 0 00046
      S(16)      W'R FIRST                                                          105  LM00191
 02120 NZT -0 52000 0 01205    02121 TRA +0 02000 0 02145
                      OPEN.($W$,ARRY(1),ARRY(2))                                    106  LM00192
 02122 TSX +0 07400 4 00026    02123 TXH +3 00000 0 01334    02124 TXH +3 00000 0 00163    02125 TXH +3 00000 0 00162
                      BUFFER.(ARRY(1),ARRY(2),BUFF(432)...432)                      107  LM00193
 02126 TSX +0 07400 4 00002    02127 TXH +3 00000 0 00163    02130 TXH +3 00000 0 00162    02131 TIX +2 01305 0 00200
                      TRFILE.(ARRY(1),ARRY(2),BCDEC.(ARRY(3)))                      108  LM00194
 02132 TSX +0 07400 4 00000    02133 TXH +3 00000 0 00161    02134 STO +0 60100 0 02767    02135 TSX +0 07400 4 00037
 02136 TXH +3 00000 0 00163    02137 TXH +3 00000 0 00162    02140 TXH +3 00000 0 02767
                      CLOSE.(ARRY(1),ARRY(2))                                       109  LM00195
 02141 TSX +0 07400 4 00005    02142 TXH +3 00000 0 00163    02143 TXH +3 00000 0 00162
                 O'E                                                                110  LM00196
 02144 TRA +0 02000 0 02154
                      CALL.(ARRY(1),ARRY(2),BCDEC.(ARRY(3)))                        111  LM00197
 02145 TSX +0 07400 4 00000    02146 TXH +3 00000 0 00161    02147 STO +0 60100 0 02767    02150 TSX +0 07400 4 00004
 02151 TXH +3 00000 0 00163    02152 TXH +3 00000 0 00162    02153 TXH +3 00000 0 02767
                 E'L                                                                112  LM00198
                 T'O KAPUT                                                          113  LM00199
 02154 TRA +0 02000 0 00046
      S(17)      CALL.(ARRY(1),ARRY(2),FINISH)                                      114  LM00201
 02155 TSX +0 07400 4 00004    02156 TXH +3 00000 0 00163    02157 TXH +3 00000 0 00162    02160 TXH +3 00000 0 00045
                 T'O KAPUT                                                          115  LM00202
 02161 TRA +0 02000 0 00046
      FINISH     PRMESS.($FINISH$)                                                  116  LM00204
 02162 TSX +0 07400 4 00030    02163 TXH +3 00000 0 01316
                 T'O KAPUT                                                          117  LM00205
 02164 TRA +0 02000 0 00046
      S(18)      CALL.(ARRY(1),ARRY(2))                                             118  LM00207
 02165 TSX +0 07400 4 00004    02166 TXH +3 00000 0 00163    02167 TXH +3 00000 0 00162
                 T'O KAPUT                                                          119  LM00208
 02170 TRA +0 02000 0 00046
      S(19)      CALL.(ARRY(1),ARRY(2))                                             120  LM00210
 02171 TSX +0 07400 4 00004    02172 TXH +3 00000 0 00163    02173 TXH +3 00000 0 00162
                 T'O KAPUT                                                          121  LM00211
 02174 TRA +0 02000 0 00046
      S(20)      CALL.(ARRY(1).A.7K)                                                122  LM00215
 02175 CAL -0 50000 0 00163    02176 ANA -0 32000 0 01275    02177 SLW +0 60200 0 02767    02200 TSX +0 07400 4 00004
 02201 TXH +3 00000 0 02767
                 T'O KAPUT                                                          123  LM00216
 02202 TRA +0 02000 0 00046
      S(21)      CALL.                                                              124  LM00218
 02203 TSX +0 07400 4 00004
                 T'O KAPUT                                                          125  LM00219
 02204 TRA +0 02000 0 00046
      S(22)      CALL.(ARRY(1),ARRY(2),SN(3)*BCOCT.(ARRY(3)),                       126  LM00221
                1     ARRY(4),ARRY(5))                                              126  LM00222
 02205 TSX +0 07400 4 00001    02206 TXH +3 00000 0 00161    02207 XCA +0 13100 0 00000    02210 MPY +0 20000 0 01260
 02211 STQ -0 60000 0 02767    02212 TSX +0 07400 4 00004    02213 TXH +3 00000 0 00163    02214 TXH +3 00000 0 00162
 02215 TXH +3 00000 0 02767    02216 TXH +3 00000 0 00160    02217 TXH +3 00000 0 00157
                 T'O KAPUT                                                          127  LM00223
 02220 TRA +0 02000 0 00046
      S(23)      CALL.(ARRY(1),ARRY(2))                                             128  LM00225
 02221 TSX +0 07400 4 00004    02222 TXH +3 00000 0 00163    02223 TXH +3 00000 0 00162
                 T'O KAPUT                                                          129  LM00226
 02224 TRA +0 02000 0 00046
      S(24)      CALL.(ARRY(1),ARRY(2),A(8)...8)                                    130  LM00228
 02225 TSX +0 07400 4 00004    02226 TXH +3 00000 0 00163    02227 TXH +3 00000 0 00162    02230 TIX +2 01276 0 00166
                 W'R (A(7) .RS. 35) .E. 1                                           131  LM00229
 02231 CAL -0 50000 0 01303    02232 STA +0 62100 0 02234    02233 CAL -0 50000 0 00167    02234 LGR -0 76500 0 00000
 02235 SLW +0 60200 0 02767    02236 CLA +0 50000 0 02767    02237 SUB +0 40200 0 01272    02240 TNZ -0 10000 0 02244
                      LBIT = 575757604360K                                          132  LM00230
 02241 CLA +0 50000 0 01327    02242 STO +0 60100 0 01217
                 O'E                                                                133  LM00231
 02243 TRA +0 02000 0 02246
                      LBIT = NULLS                                                  134  LM00232
 02244 CLA +0 50000 0 01251    02245 STO +0 60100 0 01217
                 E'L                                                                135  LM00233
                 PRMESS.(BZEL.(DEFBC.(A(8))),LBIT,OCRBC.(A(7)).V.B3,                136  LM00234
                1     FSTAT(A(6)),FDEV(A(5)),BZEL.(DEFBC.(A(4))),SP,                136  LM00235
                2     BZEL.(DEFBC.(A(3))),SP,CVDATE.(A(2)),CVTIME.(A(2)),           136  LM00236
                3     SP,CVDATE.(A(1)),BZEL.(DERBC.(A(1))))                         136  LM00237
 02246 TSX +0 07400 4 00012    02247 TXH +3 00000 0 00175    02250 STO +0 60100 0 02767    02251 TSX +0 07400 4 00003
 02252 TXH +3 00000 0 02767    02253 STO +0 60100 0 02767    02254 TSX +0 07400 4 00006    02255 TXH +3 00000 0 00175
 02256 STO +0 60100 0 02766    02257 TSX +0 07400 4 00007    02260 TXH +3 00000 0 00174    02261 STO +0 60100 0 02765
 02262 TSX +0 07400 4 00006    02263 TXH +3 00000 0 00174    02264 STO +0 60100 0 02764    02265 TSX +0 07400 4 00011
 02266 TXH +3 00000 0 00173    02267 STO +0 60100 0 02763    02270 TSX +0 07400 4 00003    02271 TXH +3 00000 0 02763
 02272 STO +0 60100 0 02763    02273 TSX +0 07400 4 00011    02274 TXH +3 00000 0 00172    02275 STO +0 60100 0 02770
 02276 TSX +0 07400 4 00003    02277 TXH +3 00000 0 02770    02300 STO +0 60100 0 02770    02301 CLA +0 50000 0 00171
 02302 SUB +0 40200 0 02303    02303 TXH +3 00000 0 01203    02304 STA +0 62100 0 02332    02305 CLA +0 50000 0 00170
 02306 SUB +0 40200 0 02307    02307 TXH +3 00000 0 01214    02310 STA +0 62100 0 02331    02311 TSX +0 07400 4 00025
 02312 TXH +3 00000 0 00167    02313 STO +0 60100 0 02771    02314 CAL -0 50000 0 02771    02315 ORA -0 50100 0 00177
 02316 SLW +0 60200 0 02771    02317 TSX +0 07400 4 00011    02320 TXH +3 00000 0 00166    02321 STO +0 60100 0 02772
 02322 TSX +0 07400 4 00003    02323 TXH +3 00000 0 02772    02324 STO +0 60100 0 02772    02325 TSX +0 07400 4 00030
 02326 TXH +3 00000 0 02772    02327 TXH +3 00000 0 01217    02330 TXH +3 00000 0 02771    02331 TXH +3 00000 0 00000
 02332 TXH +3 00000 0 00000    02333 TXH +3 00000 0 02770    02334 TXH +3 00000 0 01264    02335 TXH +3 00000 0 02763
 02336 TXH +3 00000 0 01264    02337 TXH +3 00000 0 02764    02340 TXH +3 00000 0 02765    02341 TXH +3 00000 0 01264
 02342 TXH +3 00000 0 02766    02343 TXH +3 00000 0 02767
                 T'O KAPUT                                                          137  LM00238
 02344 TRA +0 02000 0 00046
      S(25)      CALL.(ARRY(1),ARRY(2))                                             138  LM00240
 02345 TSX +0 07400 4 00004    02346 TXH +3 00000 0 00163    02347 TXH +3 00000 0 00162
                 T'O KAPUT                                                          139  LM00241
 02350 TRA +0 02000 0 00046
      S(26)      CALL.(BCOCT.(ARRY(1)),ALLOTD,USED)                                 140  LM00243
 02351 TSX +0 07400 4 00001    02352 TXH +3 00000 0 00163    02353 STO +0 60100 0 02772    02354 TSX +0 07400 4 00004
 02355 TXH +3 00000 0 02772    02356 TXH +3 00000 0 00124    02357 TXH +3 00000 0 01270
                 PRMESS.(BZEL.(DEFBC.(ALLOTD)),BZEL.(DEFBC.(USED)))                 141  LM00244
 02360 TSX +0 07400 4 00011    02361 TXH +3 00000 0 01270    02362 STO +0 60100 0 02772    02363 TSX +0 07400 4 00003
 02364 TXH +3 00000 0 02772    02365 STO +0 60100 0 02772    02366 TSX +0 07400 4 00011    02367 TXH +3 00000 0 00124
 02370 STO +0 60100 0 02771    02371 TSX +0 07400 4 00003    02372 TXH +3 00000 0 02771    02373 STO +0 60100 0 02771
 02374 TSX +0 07400 4 00030    02375 TXH +3 00000 0 02771    02376 TXH +3 00000 0 02772
                 T'O KAPUT                                                          142  LM00245
 02377 TRA +0 02000 0 00046
      S(27)      CALL.(A(4)...4)                                                    143  LM00247
 02400 TSX +0 07400 4 00004    02401 TIX +2 01273 0 00172
                 PRMESS.(A(4),SP,A(3),BZEL.(DERBC.(A(2))),                          144  LM00248
                1     A(1) .V. 575757576000K)                                       144  LM00249
 02402 CAL -0 50000 0 00175    02403 ORA -0 50100 0 01325    02404 SLW +0 60200 0 02772    02405 TSX +0 07400 4 00012
 02406 TXH +3 00000 0 00174    02407 STO +0 60100 0 02771    02410 TSX +0 07400 4 00003    02411 TXH +3 00000 0 02771
 02412 STO +0 60100 0 02771    02413 TSX +0 07400 4 00030    02414 TXH +3 00000 0 00172    02415 TXH +3 00000 0 01264
 02416 TXH +3 00000 0 00173    02417 TXH +3 00000 0 02771    02420 TXH +3 00000 0 02772
                 T'O KAPUT                                                          145  LM00250
 02421 TRA +0 02000 0 00046
      S(28)      CALL.(A(7)...7)                                                    146  LM00252
 02422 TSX +0 07400 4 00004    02423 TIX +2 01275 0 00167
                 W'R (A(7) .A. 1K6) .NE. 0                                          147  LM00253
 02424 CAL -0 50000 0 00167    02425 ANA -0 32000 0 01306    02426 SLW +0 60200 0 02772    02427 CLA +0 50000 0 02772
 02430 SUB +0 40200 0 01271    02431 TZE +0 10000 0 02435
                      LBIT = 575740214060K                                          148  LM00254
 02432 CLA +0 50000 0 01324    02433 STO +0 60100 0 01217
                 O'E                                                                149  LM00255
 02434 TRA +0 02000 0 02437
                      LBIT = NULLS                                                  150  LM00256
 02435 CLA +0 50000 0 01251    02436 STO +0 60100 0 01217
                 E'L                                                                151  LM00257
                 PRMESS.(LBIT,(OCABC.(A(7)).LS.6).V.$00000 $,A(6),                  152  LM00258
                1     DEFBC.(A(5)).V.B3,(DEFBC.(A(4)).LS.6).V.                      152  LM00259
                2     575757600060K,A(3),SP,A(2),OCABC.(A(1)))                      152  LM00260
 02437 TSX +0 07400 4 00023    02440 TXH +3 00000 0 00175    02441 STO +0 60100 0 02772    02442 TSX +0 07400 4 00011
 02443 TXH +3 00000 0 00172    02444 STO +0 60100 0 02771    02445 CAL -0 50000 0 01274    02446 STA +0 62100 0 02450
 02447 CAL -0 50000 0 02771    02450 ALS +0 76700 0 00000    02451 ORA -0 50100 0 01326    02452 SLW +0 60200 0 02771
 02453 TSX +0 07400 4 00011    02454 TXH +3 00000 0 00171    02455 STO +0 60100 0 02770    02456 CAL -0 50000 0 02770
 02457 ORA -0 50100 0 00177    02460 SLW +0 60200 0 02770    02461 TSX +0 07400 4 00023    02462 TXH +3 00000 0 00167
 02463 STO +0 60100 0 02767    02464 CAL -0 50000 0 01274    02465 STA +0 62100 0 02467    02466 CAL -0 50000 0 02767
 02467 ALS +0 76700 0 00000    02470 ORA -0 50100 0 01304    02471 SLW +0 60200 0 02767    02472 TSX +0 07400 4 00030
 02473 TXH +3 00000 0 01217    02474 TXH +3 00000 0 02767    02475 TXH +3 00000 0 00170    02476 TXH +3 00000 0 02770
 02477 TXH +3 00000 0 02771    02500 TXH +3 00000 0 00173    02501 TXH +3 00000 0 01264    02502 TXH +3 00000 0 00174
 02503 TXH +3 00000 0 02772
                 T'O KAPUT                                                          153  LM00261
 02504 TRA +0 02000 0 00046
      S(30)      PRMESS.($ TYPE MESSAGE$)                                           154  LM00266
 02505 TSX +0 07400 4 00030    02506 TXH +3 00000 0 01333    02507 TXH +3 00000 0 01320    02510 TXH +3 00000 0 01315
                 RDFLXC.(MESSAG(1),CMAX)                                            155  LM00267
 02511 TSX +0 07400 4 00034    02512 TXH +3 00000 0 01244    02513 TXH +3 00000 0 01062
                 CALL.(SN(1)*BCDEC.(ARRY(1)),BCDEC.(ARRY(2)),                       156  LM00268
                1     MESSAG(20)...LMAX)                                            156  LM00269
 02514 TSX +0 07400 4 00000    02515 TXH +3 00000 0 00162    02516 STO +0 60100 0 02772    02517 TSX +0 07400 4 00000
 02520 TXH +3 00000 0 00163    02521 XCA +0 13100 0 00000    02522 MPY +0 20000 0 01262    02523 STQ -0 60000 0 02771
 02524 TSX +0 07400 4 00004    02525 TXH +3 00000 0 02771    02526 TXH +3 00000 0 02772    02527 TIX +2 01220 0 01221
                 T'O KAPUT                                                          157  LM00270
 02530 TRA +0 02000 0 00046
      S(31)      PRMESS.($ TYPE MESSAGE$)                                           158  LM00272
 02531 TSX +0 07400 4 00030    02532 TXH +3 00000 0 01333    02533 TXH +3 00000 0 01320    02534 TXH +3 00000 0 01315
                 RDFLXC.(MESSAG(1),CMAX)                                            159  LM00273
 02535 TSX +0 07400 4 00034    02536 TXH +3 00000 0 01244    02537 TXH +3 00000 0 01062
                 W'R ARRY(1).E.ALL                                                  160  LM00274
 02540 CLA +0 50000 0 00163    02541 SUB +0 40200 0 00125    02542 TNZ -0 10000 0 02546
                      ARRY(1) = $ALL$                                               161  LM00275
 02543 CLA +0 50000 0 01307    02544 STO +0 60100 0 00163
                 O'E                                                                162  LM00276
 02545 TRA +0 02000 0 02551
                      ARRY(1) = BCDEC.(ARRY(1))                                     163  LM00277
 02546 TSX +0 07400 4 00000    02547 TXH +3 00000 0 00163    02550 STO +0 60100 0 00163
                 E'L                                                                164  LM00278
                 CALL.(ARRY(1),MESSAG(20)...LMAX)                                   165  LM00279
 02551 TSX +0 07400 4 00004    02552 TXH +3 00000 0 00163    02553 TIX +2 01220 0 01221
                 T'O KAPUT                                                          166  LM00280
 02554 TRA +0 02000 0 00046
      S(32)      PRMESS.($ TYPE BCD LABEL$)                                         167  LM00282
 02555 TSX +0 07400 4 00030    02556 TXH +3 00000 0 01333    02557 TXH +3 00000 0 01310    02560 TXH +3 00000 0 01311
                 RDFLXC.(MESSAG(1),24)                                              168  LM00283
 02561 TSX +0 07400 4 00034    02562 TXH +3 00000 0 01244    02563 TXH +3 00000 0 01302
                 CALL.(BCDEC.(ARRY(1)),MESSAG(4)...4)                               169  LM00284
 02564 TSX +0 07400 4 00000    02565 TXH +3 00000 0 00163    02566 STO +0 60100 0 02772    02567 TSX +0 07400 4 00004
 02570 TXH +3 00000 0 02772    02571 TIX +2 01273 0 01241
                 T'O KAPUT                                                          170  LM00285
 02572 TRA +0 02000 0 00046
      S(33)      PRMESS.($ TYPE BCD LABEL$)                                         171  LM00287
 02573 TSX +0 07400 4 00030    02574 TXH +3 00000 0 01333    02575 TXH +3 00000 0 01310    02576 TXH +3 00000 0 01311
                 RDFLXC.(MESSAG(1),24)                                              172  LM00288
 02577 TSX +0 07400 4 00034    02600 TXH +3 00000 0 01244    02601 TXH +3 00000 0 01302
                 CALL.(BCDEC.(ARRY(1)),MESSAG(4)...4)                               173  LM00289
 02602 TSX +0 07400 4 00000    02603 TXH +3 00000 0 00163    02604 STO +0 60100 0 02772    02605 TSX +0 07400 4 00004
 02606 TXH +3 00000 0 02772    02607 TIX +2 01273 0 01241
                 T'O KAPUT                                                          174  LM00290
 02610 TRA +0 02000 0 00046
      S(34)      CALL.(ARRY(1),ARRY(2),BCDEC.(ARRY(3)),                             175  LM00292
                1     SN(4)*BCDEC.(ARRY(4)))                                        175  LM00293
 02611 TSX +0 07400 4 00000    02612 TXH +3 00000 0 00160    02613 XCA +0 13100 0 00000    02614 MPY +0 20000 0 01257
 02615 STQ -0 60000 0 02772    02616 TSX +0 07400 4 00000    02617 TXH +3 00000 0 00161    02620 STO +0 60100 0 02771
 02621 TSX +0 07400 4 00004    02622 TXH +3 00000 0 00163    02623 TXH +3 00000 0 00162    02624 TXH +3 00000 0 02771
 02625 TXH +3 00000 0 02772
                 T'O KAPUT                                                          176  LM00294
 02626 TRA +0 02000 0 00046
      S(35)      PRMESS.($ TYPE OCTAL LABEL$)                                       177  LM00296
 02627 TSX +0 07400 4 00030    02630 TXH +3 00000 0 01333    02631 TXH +3 00000 0 01322    02632 TXH +3 00000 0 01317
                 RDFLXC.(MESSAG(1),24)                                              178  LM00297
 02633 TSX +0 07400 4 00034    02634 TXH +3 00000 0 01244    02635 TXH +3 00000 0 01302
                 T'H LOOP35, FOR I=1,1,I.G.4                                        179  LM00298
 02636 CLA +0 50000 0 01272    02637 STO +0 60100 0 01215    02640 TRA +0 02000 0 02644    02641 CLA +0 50000 0 01215
 02642 ADD +0 40000 0 01272    02643 STO +0 60100 0 01215    02644 CLA +0 50000 0 01215    02645 SUB +0 40200 0 01273
 02646 TZE +0 10000 0 02650    02647 TPL +0 12000 0 02665
                 MESSAG(21-I) = BCOCT.(MESSAG(I))                                   180  LM00299
 02650 CLA +0 50000 0 01215    02651 SUB +0 40200 0 02652    02652 TXH +3 00000 0 01245    02653 STA +0 62100 0 02655
 02654 TSX +0 07400 4 00001    02655 TXH +3 00000 0 00000    02656 STO +0 60100 0 02772    02657 CLA +0 50000 0 01301
 02660 SUB +0 40200 0 01215    02661 PAX +0 73400 1 00000    02662 CLA +0 50000 0 02772    02663 STO +0 60100 1 01245
      LOOP35     C'E                                                                181  LM00300
 02664 TRA +0 02000 0 02641
                 VERIFY.(BCDEC.(ARRY(1)),MESSAG(20)...4)                            182  LM00301
 02665 TSX +0 07400 4 00000    02666 TXH +3 00000 0 00163    02667 STO +0 60100 0 02772    02670 TSX +0 07400 4 00040
 02671 TXH +3 00000 0 02772    02672 TIX +2 01273 0 01221
                 T'O KAPUT                                                          183  LM00302
 02673 TRA +0 02000 0 00046
      S(36)      PRMESS.($ TYPE OCTAL LABEL$)                                       184  LM00304
 02674 TSX +0 07400 4 00030    02675 TXH +3 00000 0 01333    02676 TXH +3 00000 0 01322    02677 TXH +3 00000 0 01317
                 RDFLXC.(MESSAG(1),24)                                              185  LM00305
 02700 TSX +0 07400 4 00034    02701 TXH +3 00000 0 01244    02702 TXH +3 00000 0 01302
                 T'H LOOP36, FOR I=1,1,I.G.4                                        186  LM00306
 02703 CLA +0 50000 0 01272    02704 STO +0 60100 0 01215    02705 TRA +0 02000 0 02711    02706 CLA +0 50000 0 01215
 02707 ADD +0 40000 0 01272    02710 STO +0 60100 0 01215    02711 CLA +0 50000 0 01215    02712 SUB +0 40200 0 01273
 02713 TZE +0 10000 0 02715    02714 TPL +0 12000 0 02732
                      MESSAG(21-I) = BCOCT.(MESSAG(I))                              187  LM00307
 02715 CLA +0 50000 0 01215    02716 SUB +0 40200 0 02717    02717 TXH +3 00000 0 01245    02720 STA +0 62100 0 02722
 02721 TSX +0 07400 4 00001    02722 TXH +3 00000 0 00000    02723 STO +0 60100 0 02772    02724 CLA +0 50000 0 01301
 02725 SUB +0 40200 0 01215    02726 PAX +0 73400 1 00000    02727 CLA +0 50000 0 02772    02730 STO +0 60100 1 01245
      LOOP36     C'E                                                                188  LM00308
 02731 TRA +0 02000 0 02706
                 LABEL.(BCDEC.(ARRY(1)),MESSAG(20)...4)                             189  LM00309
 02732 TSX +0 07400 4 00000    02733 TXH +3 00000 0 00163    02734 STO +0 60100 0 02772    02735 TSX +0 07400 4 00021
 02736 TXH +3 00000 0 02772    02737 TIX +2 01273 0 01221
                 T'O KAPUT                                                          190  LM00310
 02740 TRA +0 02000 0 00046
      S(39)      PRNTER.                                                            191  LM00314
 02741 TSX +0 07400 4 00031
                 T'O KAPUT                                                          192  LM00315
 02742 TRA +0 02000 0 00046
      S(40)      PRMESS.($ FILE CALL $,ARRY,$ NOT UNDERSTOOD$)                      193  LM00317
 02743 TSX +0 07400 4 00030    02744 TXH +3 00000 0 01330    02745 TXH +3 00000 0 01312    02746 TXH +3 00000 0 00164
 02747 TXH +3 00000 0 01331    02750 TXH +3 00000 0 01321    02751 TXH +3 00000 0 01323
      KAPUT      W'R .NOT. STOP                                                     194  LM00318
 02752 ZET +0 52000 0 01266    02753 TRA +0 02000 0 02760
                      FIRST = 0B                                                    195  LM00319
 02754 CLA +0 50000 0 01271    02755 STO +0 60100 0 01205
                      T'O START                                                     196  LM00320
 02756 TRA +0 02000 0 00123
                 O'E                                                                197  LM00321
 02757 TRA +0 02000 0 02762
      S(41)           EXIT.(CHNARG)                                                 198  LM00322
 02760 TSX +0 07400 4 00013    02761 TXH +3 00000 0 01061
                 E'L                                                                199  LM00323
                 E'M                                                                200  LM00325
 02762 TSX +0 07400 4 00013
1     MAD PROGRAM LISTING ... ... ...                 FILE   CALL1   MAD            02/08/68    1708.5
-
                      TIME/DATE CONVERTERS, ALSO PROBNO/PROGNO CONVERTERS                              LM00001
                      THIS PROGRAM MUST BE EDITED AND RE-COMPILED WHEN                                 LM00002
                      THE NEW 'LOGIN' (PSN 50) TAKES EFFECT                                            LM00003
                           D.R. WIDRIG  DEC. 1965                                                      LM00004
                                                                                                       LM00005
                      REVISED TO RELAX ERROR CHECKING MAY 1966                                         LM00006
                           D.R. WIDRIG  MAY 1966                                                       LM00007
                                                                                                       LM00008
                  EXTERNAL FUNCTION (X1,Y)                                                        *001 LM00009
                  NORMAL MODE IS INTEGER                                                          *002 LM00010
                  STATEMENT LABEL Y                                                               *003 LM00011
                                                                                                       LM00012
                  VECTOR VALUES MESS1 = $ILLEGA******.....$,0,777777777777K                       *004 LM00013
                                                                                                       LM00014
                  VECTOR VALUES DMASK = 766074607160K                                             *005 LM00015
                  VECTOR VALUES TMASK = 777774607060K                                             *006 LM00016
                  VECTOR VALUES PMASK = 776060606060K                                             *007 LM00017
                                                                                                       LM00018
                      CONVERT BCD DATE TO I/O FORMAT                                                   LM00019
                                                                                                       LM00020
                  ENTRY TO DATECV.                                                                *008 LM00021
                  MESS1(1) = $L DATE$                                                             *009 LM00022
                  X = ZEL.(X1)                                                                    *010 LM00023
                  WHENEVER (X.A.DMASK) .NE. 0, TRANSFER TO BAD                                    *011 LM00024
                  MM = BCDEC.(X.RS.24)                                                            *012 LM00025
                  DD = BCDEC.((X.RS.12).A.7777K)                                                  *013 LM00026
                  YY = BCDEC.(X.A.7777K)                                                          *014 LM00027
                  FUNCTION RETURN (YY.LS.27).V.(MM.LS.23).V.(DD.LS.18)                            *015 LM00028
                                                                                                       LM00029
      BAD         MESS1(3) = X                                                                    *016 LM00030
                  PRNTP.(MESS1)                                                                   *017 LM00031
                  TRANSFER TO Y                                                                   *018 LM00032
                                                                                                       LM00033
                      CONVERT I/O DATE TO BCD                                                          LM00034
                                                                                                       LM00035
                  ENTRY TO CVDATE.                                                                *019 LM00036
                  D = X1.RS.18                                                                    *020 LM00037
                  FUNCTION RETURN (DERBC.(D.A.37K).LS.12).V.(DERBC.((D.RS.5).A.17K)               *021 LM00038
                1      .LS.24).V.(DERBC.((D.RS.9).A.377K))                                        *021 LM00039
                                                                                                       LM00040
                      CONVERT TIME TO I/O FORMAT                                                       LM00041
                                                                                                       LM00042
                  ENTRY TO TIMECV.                                                                *022 LM00043
                  MESS1(1) = $L TIME$                                                             *023 LM00044
                  X = ZEL.(X1)                                                                    *024 LM00045
                  WHENEVER (X.A.TMASK) .NE. 0, TRANSFER TO BAD                                    *025 LM00046
                  HH = BCDEC.((X.RS.12).A.7777K)                                                  *026 LM00047
                  MM = BCDEC.(X.A.7777K)                                                          *027 LM00048
                  WHENEVER (HH.G.23).OR.(MM.G.59), TRANSFER TO BAD                                *028 LM00049
                  FUNCTION RETURN HH*3600+MM*60                                                   *029 LM00050
                                                                                                       LM00051
                      CONVERT I/O TIME TO BCD                                                          LM00052
                                                                                                       LM00053
                  ENTRY TO CVTIME.                                                                *030 LM00054
                  D = X1.A.777777K                                                                *031 LM00055
                  HH = D/3600                                                                     *032 LM00056
                  FUNCTION RETURN ((DERBC.(HH).LS.12).V.                                          *033 LM00057
                1      (DERBC.((D-HH*3600)/60)).V.$  0000$)                                       *033 LM00058
                                                                                                       LM00059
                      CHECK VALIDITY OF PROGNO                                                         LM00060
                                                                                                       LM00061
                  ENTRY TO PROGN.                                                                 *034 LM00062
                  MESS1(1) = $L PRGN$                                                             *035 LM00063
                  X = X1                                                                          *036 LM00064
                  WHENEVER (X.E.$(FILE)$).OR.(X.E.$.FILE.$), FUNCTION RETURN X                    *037 LM00065
                  WHENEVER (ZEL.(X).A.PMASK) .E. 0, FUNCTION RETURN X                             *038 LM00066
                  WHENEVER (X.A.777777776060K).E. $CMFL00$, FUNCTION RETURN X                     *039 LM00067
                                                                                                       LM00068
      BAD1        MESS1(3) = X                                                                    *040 LM00069
                  PRNTP.(MESS1)                                                                   *041 LM00070
                  FUNCTION RETURN X                                                               *042 LM00071
                                                                                                       LM00072
                      REDUCE PROBNO TO STANDARD FORM                                                   LM00073
                                                                                                       LM00074
                  ENTRY TO PROBN.                                                                 *043 LM00075
                  MESS1(1) = $L PRBN$                                                             *044 LM00076
                  X = X1                                                                          *045 LM00077
                  WHENEVER (X.A.60K).NE.0, FUNCTION RETURN X                                      *046 LM00078
                  THROUGH LOOP1, FOR I=6,6,I.E.30                                                 *047 LM00079
                  WHENEVER (((X.RS.I).A.60K).NE.0),                                               *048 LM00080
                1      FUNCTION RETURN BZEL.((((X.RS.I).A.77K).LS.24).V.                          *048 LM00081
                2      ((77777777K.RS.(24-I)).A.X))                                               *048 LM00082
      LOOP1       CONTINUE                                                                        *049 LM00083
                  TRANSFER TO BAD1                                                                *050 LM00084
                                                                                                       LM00085
                  END OF FUNCTION                                                                 *051 LM00086
1MAD PROGRAM,TYPE NOV 1963      (ALL NUMBERS ARE OCTAL)
0TOTAL LOCATIONS   00555 TRANSFER VECTOR LENGTH  00006 PROGRAM BEGINS    00070
0 PROGRAM IS AN EXTERNAL FUNCTION.   THE FOLLOWING ARE ENTRIES
      PROBN  00436   0        PROGN  00366   0        CVTIME 00324   0        TIMECV 00245   0        CVDATE 00167   0
      DATECV 00071   0
0VARIABLE STORAGE (A=ARRAY,C=COMMON,E=ERASABLE,DIGIT=MODE)
      BAD1   00007   4        DMASK  00012 A 1        I      00015   1        MM     00023   1        X      00026   1
      BAD    00010   4        D      00013   1        LOOP1  00006   4        PMASK  00024 A 1        YY     00027   1
      DD     00011   1        HH     00014   1        MESS1  00022 A 1        TMASK  00025 A 1
0FUNCTION DICTIONARY
      BCDEC  00000   1        BZEL   00001   1        DERBC  00002   1        EXIT   00003   1        PRNTP  00004   1
      ZEL    00005   1
0ABSOLUTE CONSTANTS
 00050 +000000000077     00055 +000077777777     00043 +000000000036     00033 +000000000006     00045 +000000000060
 00062 -036047512245     00057 +234426430000     00067 -377777776060     00066 -342631432534     00060 +332631432533
 00063 -036047512745     00065 -206000000000     00054 +000000777777     00052 +000000007020     00047 +000000000074
 00046 +000000000073     00064 -036063314425     00044 +000000000037     00036 +000000000017     00032 +000000000005
 00051 +000000000377     00034 +000000000011     00042 +000000000033     00040 +000000000027     00037 +000000000022
 00053 +000000007777     00035 +000000000014     00041 +000000000030     00030 +000000000000     00061 -036024216325
 00031 +000000000001     00056 +233000000000
0STATEMENT DICTIONARY
 00007 TXL -300431000427       00010 TXL -300163000161
0PROGRAM
                 EXTERNAL FUNCTION (X1,Y)                                           001  LM00009
                 N'R                                                                002  LM00010
                 S'L Y                                                              003  LM00011
                 V'S MESS1 = $ILLEGA******.....$,0,777777777777K                    004  LM00013
 00016     -3 77777 7 77777    00017     +0 00000 0 00000    00020     +3 33333 3 33360    00021     -1 45454 5 45454
 00022     +3 14343 2 52721
                 V'S DMASK = 766074607160K                                          005  LM00015
 00012     -3 66074 6 07160
                 V'S TMASK = 777774607060K                                          006  LM00016
 00025     -3 77774 6 07060
                 V'S PMASK = 776060606060K                                          007  LM00017
 00024     -3 76060 6 06060
                 E'O DATECV.                                                        008  LM00021
 00070 TRA +0 02000 0 00073    00071 SXA +0 63400 2 00527    00072 TSX +0 07400 2 00527
                 MESS1(1) = $L DATE$                                                009  LM00022
 00073 CLA +0 50000 0 00061    00074 STO +0 60100 0 00021
                 X = ZEL.(X1)                                                       010  LM00023
 00075 TSX +0 07400 4 00005    00076 TXH +3 00000 0 00024    00077 STO +0 60100 0 00026
                 W'R (X.A.DMASK) .NE. 0, T'O BAD                                    011  LM00024
 00100 CAL -0 50000 0 00026    00101 ANA -0 32000 0 00012    00102 SLW +0 60200 0 00550    00103 CLA +0 50000 0 00550
 00104 SUB +0 40200 0 00030    00105 TZE +0 10000 0 00107    00106 TRA +0 02000 0 00010
                 MM = BCDEC.(X.RS.24)                                               012  LM00025
 00107 CAL -0 50000 0 00041    00110 STA +0 62100 0 00112    00111 CAL -0 50000 0 00026    00112 LGR -0 76500 0 00000
 00113 SLW +0 60200 0 00550    00114 TSX +0 07400 4 00000    00115 TXH +3 00000 0 00550    00116 STO +0 60100 0 00023
                 DD = BCDEC.((X.RS.12).A.7777K)                                     013  LM00026
 00117 CAL -0 50000 0 00035    00120 STA +0 62100 0 00122    00121 CAL -0 50000 0 00026    00122 LGR -0 76500 0 00000
 00123 ANA -0 32000 0 00053    00124 SLW +0 60200 0 00550    00125 TSX +0 07400 4 00000    00126 TXH +3 00000 0 00550
 00127 STO +0 60100 0 00011
                 YY = BCDEC.(X.A.7777K)                                             014  LM00027
 00130 CAL -0 50000 0 00026    00131 ANA -0 32000 0 00053    00132 SLW +0 60200 0 00550    00133 TSX +0 07400 4 00000
 00134 TXH +3 00000 0 00550    00135 STO +0 60100 0 00027
                 F'N (YY.LS.27).V.(MM.LS.23).V.(DD.LS.18)                           015  LM00028
 00136 CAL -0 50000 0 00037    00137 STA +0 62100 0 00141    00140 CAL -0 50000 0 00011    00141 ALS +0 76700 0 00000
 00142 SLW +0 60200 0 00550    00143 CAL -0 50000 0 00040    00144 STA +0 62100 0 00146    00145 CAL -0 50000 0 00023
 00146 ALS +0 76700 0 00000    00147 SLW +0 60200 0 00551    00150 CAL -0 50000 0 00042    00151 STA +0 62100 0 00153
 00152 CAL -0 50000 0 00027    00153 ALS +0 76700 0 00000    00154 ORA -0 50100 0 00551    00155 ORA -0 50100 0 00550
 00156 SLW +0 60200 0 00551    00157 CLA +0 50000 0 00551    00160 TRA +0 02000 0 00544
      BAD        MESS1(3) = X                                                       016  LM00030
 00161 CLA +0 50000 0 00026    00162 STO +0 60100 0 00017
                 PRNTP.(MESS1)                                                      017  LM00031
 00163 TSX +0 07400 4 00004    00164 TXH +3 00000 0 00022
                 T'O Y                                                              018  LM00032
 00165 TRA +0 02000 0 00024
                 E'O CVDATE.                                                        019  LM00036
 00166 TRA +0 02000 0 00171    00167 SXA +0 63400 2 00527    00170 TSX +0 07400 2 00527
                 D = X1.RS.18                                                       020  LM00037
 00171 CAL -0 50000 0 00037    00172 STA +0 62100 0 00174    00173 CAL -0 50000 0 00024    00174 LGR -0 76500 0 00000
 00175 SLW +0 60200 0 00013
                 F'N (DERBC.(D.A.37K).LS.12).V.(DERBC.((D.RS.5).A.17K)              021  LM00038
                1     .LS.24).V.(DERBC.((D.RS.9).A.377K))                           021  LM00039
 00176 CAL -0 50000 0 00034    00177 STA +0 62100 0 00201    00200 CAL -0 50000 0 00013    00201 LGR -0 76500 0 00000
 00202 ANA -0 32000 0 00051    00203 SLW +0 60200 0 00551    00204 TSX +0 07400 4 00002    00205 TXH +3 00000 0 00551
 00206 STO +0 60100 0 00551    00207 CAL -0 50000 0 00032    00210 STA +0 62100 0 00212    00211 CAL -0 50000 0 00013
 00212 LGR -0 76500 0 00000    00213 ANA -0 32000 0 00036    00214 SLW +0 60200 0 00550    00215 TSX +0 07400 4 00002
 00216 TXH +3 00000 0 00550    00217 STO +0 60100 0 00550    00220 CAL -0 50000 0 00041    00221 STA +0 62100 0 00223
 00222 CAL -0 50000 0 00550    00223 ALS +0 76700 0 00000    00224 SLW +0 60200 0 00550    00225 CAL -0 50000 0 00013
 00226 ANA -0 32000 0 00044    00227 SLW +0 60200 0 00552    00230 TSX +0 07400 4 00002    00231 TXH +3 00000 0 00552
 00232 STO +0 60100 0 00552    00233 CAL -0 50000 0 00035    00234 STA +0 62100 0 00236    00235 CAL -0 50000 0 00552
 00236 ALS +0 76700 0 00000    00237 ORA -0 50100 0 00550    00240 ORA -0 50100 0 00551    00241 SLW +0 60200 0 00552
 00242 CLA +0 50000 0 00552    00243 TRA +0 02000 0 00544
                 E'O TIMECV.                                                        022  LM00043
 00244 TRA +0 02000 0 00247    00245 SXA +0 63400 2 00527    00246 TSX +0 07400 2 00527
                 MESS1(1) = $L TIME$                                                023  LM00044
 00247 CLA +0 50000 0 00064    00250 STO +0 60100 0 00021
                 X = ZEL.(X1)                                                       024  LM00045
 00251 TSX +0 07400 4 00005    00252 TXH +3 00000 0 00024    00253 STO +0 60100 0 00026
                 W'R (X.A.TMASK) .NE. 0, T'O BAD                                    025  LM00046
 00254 CAL -0 50000 0 00026    00255 ANA -0 32000 0 00025    00256 SLW +0 60200 0 00552    00257 CLA +0 50000 0 00552
 00260 SUB +0 40200 0 00030    00261 TZE +0 10000 0 00263    00262 TRA +0 02000 0 00010
                 HH = BCDEC.((X.RS.12).A.7777K)                                     026  LM00047
 00263 CAL -0 50000 0 00035    00264 STA +0 62100 0 00266    00265 CAL -0 50000 0 00026    00266 LGR -0 76500 0 00000
 00267 ANA -0 32000 0 00053    00270 SLW +0 60200 0 00552    00271 TSX +0 07400 4 00000    00272 TXH +3 00000 0 00552
 00273 STO +0 60100 0 00014
                 MM = BCDEC.(X.A.7777K)                                             027  LM00048
 00274 CAL -0 50000 0 00026    00275 ANA -0 32000 0 00053    00276 SLW +0 60200 0 00552    00277 TSX +0 07400 4 00000
 00300 TXH +3 00000 0 00552    00301 STO +0 60100 0 00023
                 W'R (HH.G.23).OR.(MM.G.59), T'O BAD                                028  LM00049
 00302 CLA +0 50000 0 00023    00303 SUB +0 40200 0 00046    00304 TZE +0 10000 0 00306    00305 TPL +0 12000 0 00312
 00306 CLA +0 50000 0 00014    00307 SUB +0 40200 0 00040    00310 TZE +0 10000 0 00313    00311 TMI -0 12000 0 00313
 00312 TRA +0 02000 0 00010
                 F'N HH*3600+MM*60                                                  029  LM00050
 00313 LDQ +0 56000 0 00023    00314 MPY +0 20000 0 00047    00315 STQ -0 60000 0 00552    00316 LDQ +0 56000 0 00014
 00317 MPY +0 20000 0 00052    00320 XCA +0 13100 0 00000    00321 ADD +0 40000 0 00552    00322 TRA +0 02000 0 00544
                 E'O CVTIME.                                                        030  LM00054
 00323 TRA +0 02000 0 00326    00324 SXA +0 63400 2 00527    00325 TSX +0 07400 2 00527
                 D = X1.A.777777K                                                   031  LM00055
 00326 CAL -0 50000 0 00024    00327 ANA -0 32000 0 00054    00330 SLW +0 60200 0 00013
                 HH = D/3600                                                        032  LM00056
 00331 LDQ +0 56000 0 00013    00332 PXD -0 75400 0 00000    00333 LLS +0 76300 0 00000    00334 DVP +0 22100 0 00052
 00335 STQ -0 60000 0 00014
                 F'N ((DERBC.(HH).LS.12).V.                                         033  LM00057
                1     (DERBC.((D-HH*3600)/60)).V.$  0000$)                          033  LM00058
 00336 LDQ +0 56000 0 00014    00337 MPY +0 20000 0 00052    00340 XCA +0 13100 0 00000    00341 CHS +0 76000 0 00002
 00342 ADD +0 40000 0 00013    00343 LRS +0 76500 0 00043    00344 DVP +0 22100 0 00047    00345 STQ -0 60000 0 00552
 00346 TSX +0 07400 4 00002    00347 TXH +3 00000 0 00552    00350 STO +0 60100 0 00552    00351 TSX +0 07400 4 00002
 00352 TXH +3 00000 0 00014    00353 STO +0 60100 0 00551    00354 CAL -0 50000 0 00035    00355 STA +0 62100 0 00357
 00356 CAL -0 50000 0 00551    00357 ALS +0 76700 0 00000    00360 ORA -0 50100 0 00552    00361 ORA -0 50100 0 00065
 00362 SLW +0 60200 0 00552    00363 CLA +0 50000 0 00552    00364 TRA +0 02000 0 00544
                 E'O PROGN.                                                         034  LM00062
 00365 TRA +0 02000 0 00370    00366 SXA +0 63400 2 00527    00367 TSX +0 07400 2 00527
                 MESS1(1) = $L PRGN$                                                035  LM00063
 00370 CLA +0 50000 0 00063    00371 STO +0 60100 0 00021
                 X = X1                                                             036  LM00064
 00372 CLA +0 50000 0 00024    00373 STO +0 60100 0 00026
                 W'R (X.E.$(FILE)$).OR.(X.E.$.FILE.$), F'N X                        037  LM00065
 00374 CLA +0 50000 0 00026    00375 SUB +0 40200 0 00060    00376 TZE +0 10000 0 00402    00377 CLA +0 50000 0 00026
 00400 SUB +0 40200 0 00066    00401 TNZ -0 10000 0 00404    00402 CLA +0 50000 0 00026    00403 TRA +0 02000 0 00544
                 W'R (ZEL.(X).A.PMASK) .E. 0, F'N X                                 038  LM00066
 00404 TSX +0 07400 4 00005    00405 TXH +3 00000 0 00026    00406 STO +0 60100 0 00552    00407 CAL -0 50000 0 00552
 00410 ANA -0 32000 0 00024    00411 SLW +0 60200 0 00552    00412 CLA +0 50000 0 00552    00413 SUB +0 40200 0 00030
 00414 TNZ -0 10000 0 00417    00415 CLA +0 50000 0 00026    00416 TRA +0 02000 0 00544
                 W'R (X.A.777777776060K).E. $CMFL00$, F'N X                         039  LM00067
 00417 CAL -0 50000 0 00026    00420 ANA -0 32000 0 00067    00421 SLW +0 60200 0 00552    00422 CLA +0 50000 0 00552
 00423 SUB +0 40200 0 00057    00424 TNZ -0 10000 0 00427    00425 CLA +0 50000 0 00026    00426 TRA +0 02000 0 00544
      BAD1       MESS1(3) = X                                                       040  LM00069
 00427 CLA +0 50000 0 00026    00430 STO +0 60100 0 00017
                 PRNTP.(MESS1)                                                      041  LM00070
 00431 TSX +0 07400 4 00004    00432 TXH +3 00000 0 00022
                 F'N X                                                              042  LM00071
 00433 CLA +0 50000 0 00026    00434 TRA +0 02000 0 00544
                 E'O PROBN.                                                         043  LM00075
 00435 TRA +0 02000 0 00440    00436 SXA +0 63400 2 00527    00437 TSX +0 07400 2 00527
                 MESS1(1) = $L PRBN$                                                044  LM00076
 00440 CLA +0 50000 0 00062    00441 STO +0 60100 0 00021
                 X = X1                                                             045  LM00077
 00442 CLA +0 50000 0 00024    00443 STO +0 60100 0 00026
                 W'R (X.A.60K).NE.0, F'N X                                          046  LM00078
 00444 CAL -0 50000 0 00026    00445 ANA -0 32000 0 00045    00446 SLW +0 60200 0 00552    00447 CLA +0 50000 0 00552
 00450 SUB +0 40200 0 00030    00451 TZE +0 10000 0 00454    00452 CLA +0 50000 0 00026    00453 TRA +0 02000 0 00544
                 T'H LOOP1, FOR I=6,6,I.E.30                                        047  LM00079
 00454 CLA +0 50000 0 00033    00455 STO +0 60100 0 00015    00456 TRA +0 02000 0 00462    00457 CLA +0 50000 0 00015
 00460 ADD +0 40000 0 00033    00461 STO +0 60100 0 00015    00462 CLA +0 50000 0 00015    00463 SUB +0 40200 0 00043
 00464 TZE +0 10000 0 00525
                 W'R (((X.RS.I).A.60K).NE.0),                                       048  LM00080
                1     F'N BZEL.((((X.RS.I).A.77K).LS.24).V.                         048  LM00081
                2     ((77777777K.RS.(24-I)).A.X))                                  048  LM00082
 00465 CAL -0 50000 0 00015    00466 STA +0 62100 0 00470    00467 CAL -0 50000 0 00026    00470 LGR -0 76500 0 00000
 00471 ANA -0 32000 0 00045    00472 SLW +0 60200 0 00552    00473 CLA +0 50000 0 00552    00474 SUB +0 40200 0 00030
 00475 TZE +0 10000 0 00524    00476 CLA +0 50000 0 00041    00477 SUB +0 40200 0 00015    00500 STA +0 62100 0 00502
 00501 CAL -0 50000 0 00055    00502 LGR -0 76500 0 00000    00503 ANA -0 32000 0 00026    00504 SLW +0 60200 0 00552
 00505 CAL -0 50000 0 00015    00506 STA +0 62100 0 00510    00507 CAL -0 50000 0 00026    00510 LGR -0 76500 0 00000
 00511 ANA -0 32000 0 00050    00512 SLW +0 60200 0 00551    00513 CAL -0 50000 0 00041    00514 STA +0 62100 0 00516
 00515 CAL -0 50000 0 00551    00516 ALS +0 76700 0 00000    00517 ORA -0 50100 0 00552    00520 SLW +0 60200 0 00552
 00521 TSX +0 07400 4 00001    00522 TXH +3 00000 0 00552    00523 TRA +0 02000 0 00544
      LOOP1      C'E                                                                049  LM00083
 00524 TRA +0 02000 0 00457
                 T'O BAD1                                                           050  LM00084
 00525 TRA +0 02000 0 00007
                 E'N                                                                051  LM00086
 00526 TSX +0 07400 4 00003    00527 TXH +3 00000 0 00000    00530 SXD -0 63400 1 00527    00531 SXA +0 63400 4 00544
 00532 CLA +0 50000 4 00001    00533 STO +0 60100 0 00076    00534 STA +0 62100 0 00173    00535 STO +0 60100 0 00252
 00536 STA +0 62100 0 00326    00537 STA +0 62100 0 00372    00540 STA +0 62100 0 00442    00541 CLA +0 50000 4 00002
 00542 STA +0 62100 0 00165    00543 TRA +0 02000 2 00001    00544 AXT +0 77400 4 00000    00545 LXA +0 53400 2 00527
 00546 LXD -0 53400 1 00527    00547 TRA +0 02000 4 00001
1            FUNCTION DISPATCHER FOR 'CALL' COMMAND                                              PAGE 1
                           D.R. WIDRIG  MAY 1966


                       00042         ENTRY   SUBNAM        TO SET NAME AND CALL
                       00057         ENTRY   CALL          TO CALL SUBROUTINE
                       00161         ENTRY   GCLS          SHORT FORM TO REPLACE LIBRARY KLUDGE

                              SUBS   MACRO   NAME          MACRO TO GENERATE TABLE OF CALLS
                                     BCI     1,'NAME
                                     TTR     $'NAME
                              SUBS   END


        TRANSFER VECTOR
      00000  644724442624     UPDMFD
      00001  242543442624     DELMFD
      00002  216363212330     ATTACH
      00003  444665263143     MOVFIL
      00004  622563263143     SETFIL
      00005  433145426060     LINK
      00006  214343466360     ALLOT
      00007  644724216325     UPDATE
      00010  464725456060     OPEN
      00011  226426262551     BUFFER
      00012  512426314325     RDFILE
      00013  512466213163     RDWAIT
      00014  665126314325     WRFILE
      00015  665166213163     WRWAIT
      00016  635126314325     TRFILE
      00017  262330252342     FCHECK
      00020  234346622560     CLOSE
      00021  266621316360     FWAIT
      00022  622563475131     SETPRI
      00023  512562256326     RESETF
      00024  233026314325     CHFILE
      00025  242543263143     DELFIL
      00026  266263216325     FSTATE
      00027  644543314542     UNLINK
      00030  626346512725     STORGE
      00031  216363452144     ATTNAM
      00032  314624312127     IODIAG
      00033  444664456360     MOUNT
      00034  644446644563     UMOUNT
      00035  652551312670     VERIFY
      00036  432122254360     LABEL
      00037  632147263143     TAPFIL

            LINKAGE DIRECTOR
      00040  000000000000
      00041  626422452144

      00042  0636 00 4 00055  SUBNAM SCA     SUBX4,4       SAVE LINKAGE
      00043 -0500 60 4 00001         CAL*    1,4           GET LEFT-JUSTIFIED TEST WORD
      00044  0774 00 4 00100         AXT     NCALLS,4      INITIALIZE LOOP COUNTER
1            FUNCTION DISPATCHER FOR 'CALL' COMMAND                                              PAGE 2
                           D.R. WIDRIG  MAY 1966

      00045 -0340 00 4 00161         LAS     CALLS+NCALLS,4 TEST WORD AGAINST TABLE
      00046  0020 00 0 00050         TRA     *+2           NOPE, TRY SOME MORE
      00047  0020 00 0 00053         TRA     NAMFND        AHH.. SET UP TRANSFER
      00050  2 00002 4 00045         TIX     *-3,4,2       LOOP

      00051  0500 00 0 00060         CLA     RET           NOT FOUND, SET 1,4 RETURN
      00052  0020 00 0 00054         TRA     NAMFND+1      ..

      00053  0500 60 4 00162  NAMFND CLA*    CALLS+NCALLS+1,4 PICK UP TRANSFER VECTOR
      00054  0601 00 0 00057         STO     CALL          AND PLANT TRANFER LOCATION

      00055 -0774 00 4 00000  SUBX4  AXC     **,4          RESTORE LINKAGE
      00056  0020 00 4 00002         TRA     2,4           AND RETURN TO MAIN PROGRAM

      00057  0 00000 0 00000  CALL   ***     **            LINKAGE TO FUNCTION SELECTED
      00060  0020 00 4 00001  RET    TRA     1,4           DUMMY RETURN
1            FUNCTION DISPATCHER FOR 'CALL' COMMAND                                              PAGE 3
                           D.R. WIDRIG  MAY 1966

                                             TABLE OF ALLOWABLE CALLS

      00061                   CALLS  SUBS    UPDMFD
      00063                          SUBS    DELMFD
      00065                          SUBS    ATTACH
      00067                          SUBS    MOVFIL
      00071                          SUBS    SETFIL
      00073                          SUBS    LINK
      00075                          SUBS    ALLOT

      00077                          SUBS    UPDATE
      00101                          SUBS    OPEN
      00103                          SUBS    BUFFER
      00105                          SUBS    RDFILE
      00107                          SUBS    RDWAIT
      00111                          SUBS    WRFILE
      00113                          SUBS    WRWAIT
      00115                          SUBS    TRFILE
      00117                          SUBS    FCHECK
      00121                          SUBS    CLOSE
      00123                          SUBS    FWAIT

      00125                          SUBS    SETPRI
      00127                          SUBS    RESETF
      00131                          SUBS    CHFILE
      00133                          SUBS    DELFIL
      00135                          SUBS    FSTATE
      00137                          SUBS    UNLINK
      00141                          SUBS    STORGE
      00143                          SUBS    ATTNAM
      00145                          SUBS    IODIAG
      00147                          SUBS    MOUNT
      00151                          SUBS    UMOUNT
      00153                          SUBS    VERIFY
      00155                          SUBS    LABEL
      00157                          SUBS    TAPFIL

                       00100  NCALLS EQU     *-CALLS
1            FUNCTION DISPATCHER FOR 'CALL' COMMAND                                              PAGE 4
                           D.R. WIDRIG  MAY 1966

                                             SHORT 'GCLS' TO REPLACE ABOMINATION IN LIBRARY

      00161  0636 00 4 00177  GCLS   SCA     GCLX4,4       SAVE LINKAGE
      00162  0636 00 2 00176         SCA     GCLX2,2       AND IR2
      00163  0500 00 4 00001         CLA     1,4           GET POINTER TO BUFFER
      00164  0621 00 0 00172         STA     INTO          SET UP RETURN OPERATION

      00165  0074 00 4 00201         TSX     GETCLS,4      CALL UP SUPERVISOR
      00166  0 00000 0 00202         PZE     BUFF,,0       CURRENT COMMAND BUFFER

      00167  0774 00 4 00000         AXT     0,4           NOW MOVE WORDS TO 'CALL'
      00170  0774 00 2 00000         AXT     0,2           IR2 IS THE 'FROM' POINTER

      00171 -0500 00 2 00202  STORE  CAL     BUFF,2        GET SUPERVISOR WORD
      00172  0602 00 4 00000  INTO   SLW     **,4          GIVE TO 'CALL' MAIN PROGRAM
      00173  1 77777 2 00174         TXI     *+1,2,-1      MOVE 'FROM' POINTER UP ONE
      00174  1 00001 4 00175         TXI     *+1,4,1       MOVE 'TO' POINTER DOWN ONE
      00175 -3 00023 4 00171         TXL     STORE,4,19    LOOP

      00176 -0774 00 2 00000  GCLX2  AXC     **,2          DONE, RESTORE THE SCENE
      00177 -0774 00 4 00000  GCLX4  AXC     **,4          AND THE LINKAGE
      00200  0020 00 4 00003         TRA     3,4           AND GO HOME

      00201  0101 00 0 00226  GETCLS TIA     =HGETCLS      SUPERVISOR CALL
      00202                   BUFF   BSS     20            TEMPORARY STORAGE FOR RETURN GOODIES

                                     END

        LITERALS
      00226  272563234362
1            FUNCTION DISPATCHER FOR 'CALL' COMMAND                                              PAGE 1
                        POST PROCESSOR ASSEMBLY DATA

        227 IS THE FIRST LOCATION NOT USED BY THIS PROGRAM

0REFERENCES TO DEFINED SYMBOLS
         60    RET    51
        202   BUFF   166,  171
         57   CALL     0,   54
        161   GCLS     0
        172   INTO   164
          5   LINK    74
         10   OPEN   102
          6  ALLOT    76
         61  CALLS    45,   53,  161
         20  CLOSE   122
         21  FWAIT   124
        176  GCLX2   162
        177  GCLX4   161
         36  LABEL   156
         33  MOUNT   150
        171  STORE   175
         55  SUBX4    42
          2 ATTACH    66
         31 ATTNAM   144
         11 BUFFER   104
         24 CHFILE   132
         25 DELFIL   134
          1 DELMFD    64
         17 FCHECK   120
         26 FSTATE   136
        201 GETCLS   165
         32 IODIAG   146
          3 MOVFIL    70
         53 NAMFND    47,   52
        100 NCALLS    44,   45,   53,  161
         12 RDFILE   106
         13 RDWAIT   110
         23 RESETF   130
          4 SETFIL    72
         22 SETPRI   126
         30 STORGE   142
         42 SUBNAM     0
         37 TAPFIL   160
         16 TRFILE   116
         34 UMOUNT   152
         27 UNLINK   140
          7 UPDATE   100
          0 UPDMFD    62
         35 VERIFY   154
         14 WRFILE   112
         15 WRWAIT   114

0 NO ERROR IN ABOVE ASSEMBLY.
1            SUBROUTINES TO REPLACE CRUD IN LIBRARY                                              PAGE 1
                           D.R. WIDRIG  AUGUST 1966

                       00002         ENTRY   .SETUP        CALLED BY MAD MAIN PROGS
                       00003         ENTRY   EXIT          CALLED BY MAD PROGS


            LINKAGE DIRECTOR
      00000  000000000000
      00001  336225636447

      00002  0020 00 4 00001  .SETUP TRA     1,4           RETURN

      00003  0101 00 0 00004  EXIT   TIA     =HCHNCOM      THAT'S ALL

                                     END

        LITERALS
      00004  233045234644
1            SUBROUTINES TO REPLACE CRUD IN LIBRARY                                              PAGE 1
                        POST PROCESSOR ASSEMBLY DATA

          5 IS THE FIRST LOCATION NOT USED BY THIS PROGRAM

0REFERENCES TO DEFINED SYMBOLS
          3   EXIT     0
          2 .SETUP     0

0 NO ERROR IN ABOVE ASSEMBLY.


CHBALL   BCD 09/18/68 2206.0    2588         00000
1     MAD PROGRAM LISTING ... ... ...                 FILE  CHBALL   MAD            02/08/68    1717.7
-
                  CHBALL COMMAND - REVISED 11/08/67  PETER R. BOS                                      LM00001
                                                                                                       LM00002
                  'CHBALL' -BALL-                                                                      LM00003
                     WHERE BALL MAY BE '938', '963', OR NOT                                            LM00004
                     GIVEN, IN WHICH CASE THE OPPOSITE TYPE                                            LM00005
                     FROM THAT CURRENTLY IN USE WILL BE ASSUMED.                                       LM00006
                                                                                                       LM00007
                  NORMAL MODE IS INTEGER                                                          *001 LM00008
                  UIDLOC=COMLOC.($UNITID$)+GLOC.(COMLOC.($USER$))                                 *002 LM00009
                  OLDID=GLOC.(UIDLOC)                                                             *003 LM00010
                  OLDTYP=OLDID.RS.24                                                              *004 LM00011
                  OLDID=OLDID.A.77777777K                                                         *005 LM00012
                                                                                                       LM00013
                  BALL=COMARG.(1)                                                                 *006 LM00014
                                                                                                       LM00015
                  WHENEVER BALL.E.$   963$                                                        *007 LM00016
                    WHENEVER OLDTYP.RS.6.E.$000008$, CHNCOM.(0)                                   *008 LM00017
                    TRANSFER TO CHBALL                                                            *009 LM00018
                  OR WHENEVER BALL.E.$   938$                                                     *010 LM00019
                    WHENEVER OLDTYP.RS.6.E.$000002$, CHNCOM.(0)                                   *011 LM00020
                    TRANSFER TO CHBALL                                                            *012 LM00021
                  OR WHENEVER BALL.E.777777777777K                                                *013 LM00022
      CHBALL        WHENEVER OLDTYP.E.$000020$                                                    *014 LM00023
                      NEWID=OLDID.V.$820000$                                                      *015 LM00024
                      TRANSFER TO SET                                                             *016 LM00025
                    OR WHENEVER OLDTYP.E.$000082$                                                 *017 LM00026
                      NEWID=OLDID.V.$200000$                                                      *018 LM00027
                      TRANSFER TO SET                                                             *019 LM00028
                    OR WHENEVER OLDTYP.E.$000080$                                                 *020 LM00029
                      NEWID=OLDID.V.$280000$                                                      *021 LM00030
                      TRANSFER TO SET                                                             *022 LM00031
                    OR WHENEVER OLDTYP.E.$000028$                                                 *023 LM00032
                      NEWID=OLDID.V.$800000$                                                      *024 LM00033
      SET             SLOC.(NEWID,UIDLOC)                                                         *025 LM00034
                    OTHERWISE                                                                     *026 LM00035
                      PRMESS.($THIS COMMAND FOR 1050'S AND 2741'S ONLY$)                          *027 LM00036
                    END OF CONDITIONAL                                                            *028 LM00037
                  OTHERWISE                                                                       *029 LM00038
                    PRMESS.($'CHBALL 963' OR 'CHBALL 938'$)                                       *030 LM00039
                  END OF CONDITIONAL                                                              *031 LM00040
                                                                                                       LM00041
                  CHNCOM.(0)                                                                      *032 LM00042
                                                                                                       LM00043
                  END OF PROGRAM                                                                  *033 LM00044
1MAD PROGRAM,TYPE NOV 1963      (ALL NUMBERS ARE OCTAL)
0TOTAL LOCATIONS   00242 TRANSFER VECTOR LENGTH  00010 PROGRAM BEGINS    00061
0VARIABLE STORAGE (A=ARRAY,C=COMMON,E=ERASABLE,DIGIT=MODE)
      BALL   00013   1        NEWID  00014   1        OLDTYP 00016   1        SET    00012   4        UIDLOC 00017   1
      CHBALL 00011   4        OLDID  00015   1
0FUNCTION DICTIONARY
      CHNCOM 00000   1        COMARG 00001   1        COMLOC 00002   1        EXIT   00003   1        GLOC   00004   1
      .SETUP 00005   1        PRMESS 00006   1        SLOC   00007   1
0ABSOLUTE CONSTANTS
 00041 +110310146060     00045 +302221434360     00052 -204651601423     00046 -036011060314     00042 +142330222143
 00047 -054370606060     00036 +040114626046     00043 +214524600207     00033 +000500146260     00051 -202646516001
 00050 -064444214524     00055 -233031626023     00037 +100000000000     00027 +000000000210     00035 +021000000000
 00030 +000000001000     00034 +020000000000     00031 +000000001002     00040 +100200000000     00026 +000000000200
 00060 -377777777777     00022 +000000000002     00053 -206060110310     00020 +000000000000     00024 +000000000010
 00023 +000000000006     00054 -206060110603     00032 +000077777777     00025 +000000000030     00056 -244531633124
 00057 -246225516060     00021 +000000000001     00044 +233000000000
0STATEMENT DICTIONARY
 00011 TXL -300156000153       00012 TXL -300214000211
0PROGRAM
                 N'S INTEGER                                                        001  LM00008
                 UIDLOC=COMLOC.($UNITID$)+GLOC.(COMLOC.($USER$))                    002  LM00009
 00061 TSX +0 07400 4 00005    00062 TSX +0 07400 4 00002    00063 TXH +3 00000 0 00057    00064 STO +0 60100 0 00237
 00065 TSX +0 07400 4 00004    00066 TXH +3 00000 0 00237    00067 STO +0 60100 0 00237    00070 TSX +0 07400 4 00002
 00071 TXH +3 00000 0 00056    00072 ADD +0 40000 0 00237    00073 STO +0 60100 0 00017
                 OLDID=GLOC.(UIDLOC)                                                003  LM00010
 00074 TSX +0 07400 4 00004    00075 TXH +3 00000 0 00017    00076 STO +0 60100 0 00015
                 OLDTYP=OLDID.RS.24                                                 004  LM00011
 00077 CAL -0 50000 0 00025    00100 STA +0 62100 0 00102    00101 CAL -0 50000 0 00015    00102 LGR -0 76500 0 00000
 00103 SLW +0 60200 0 00016
                 OLDID=OLDID.A.77777777K                                            005  LM00012
 00104 CAL -0 50000 0 00015    00105 ANA -0 32000 0 00032    00106 SLW +0 60200 0 00015
                 BALL=COMARG.(1)                                                    006  LM00014
 00107 TSX +0 07400 4 00001    00110 TXH +3 00000 0 00021    00111 STO +0 60100 0 00013
                 W'R BALL.E.$   963$                                                007  LM00016
 00112 CLA +0 50000 0 00013    00113 SUB +0 40200 0 00054    00114 TNZ -0 10000 0 00131
                   W'R OLDTYP.RS.6.E.$000008$, CHNCOM.(0)                           008  LM00017
 00115 CAL -0 50000 0 00023    00116 STA +0 62100 0 00120    00117 CAL -0 50000 0 00016    00120 LGR -0 76500 0 00000
 00121 SLW +0 60200 0 00237    00122 CLA +0 50000 0 00237    00123 SUB +0 40200 0 00024    00124 TNZ -0 10000 0 00127
 00125 TSX +0 07400 4 00000    00126 TXH +3 00000 0 00020
                   T'O CHBALL                                                       009  LM00018
 00127 TRA +0 02000 0 00011
                 O'R BALL.E.$   938$                                                010  LM00019
 00130 TRA +0 02000 0 00234    00131 CLA +0 50000 0 00013    00132 SUB +0 40200 0 00053    00133 TNZ -0 10000 0 00150
                   W'R OLDTYP.RS.6.E.$000002$, CHNCOM.(0)                           011  LM00020
 00134 CAL -0 50000 0 00023    00135 STA +0 62100 0 00137    00136 CAL -0 50000 0 00016    00137 LGR -0 76500 0 00000
 00140 SLW +0 60200 0 00237    00141 CLA +0 50000 0 00237    00142 SUB +0 40200 0 00022    00143 TNZ -0 10000 0 00146
 00144 TSX +0 07400 4 00000    00145 TXH +3 00000 0 00020
                   T'O CHBALL                                                       012  LM00021
 00146 TRA +0 02000 0 00011
                 O'R BALL.E.777777777777K                                           013  LM00022
 00147 TRA +0 02000 0 00234    00150 CLA +0 50000 0 00013    00151 SUB +0 40200 0 00060    00152 TNZ -0 10000 0 00226
      CHBALL       W'R OLDTYP.E.$000020$                                            014  LM00023
 00153 CLA +0 50000 0 00016    00154 SUB +0 40200 0 00026    00155 TNZ -0 10000 0 00163
                     NEWID=OLDID.V.$820000$                                         015  LM00024
 00156 CAL -0 50000 0 00015    00157 ORA -0 50100 0 00040    00160 SLW +0 60200 0 00014
                     T'O SET                                                        016  LM00025
 00161 TRA +0 02000 0 00012
                   O'R OLDTYP.E.$000082$                                            017  LM00026
 00162 TRA +0 02000 0 00225    00163 CLA +0 50000 0 00016    00164 SUB +0 40200 0 00031    00165 TNZ -0 10000 0 00173
                     NEWID=OLDID.V.$200000$                                         018  LM00027
 00166 CAL -0 50000 0 00015    00167 ORA -0 50100 0 00034    00170 SLW +0 60200 0 00014
                     T'O SET                                                        019  LM00028
 00171 TRA +0 02000 0 00012
                   O'R OLDTYP.E.$000080$                                            020  LM00029
 00172 TRA +0 02000 0 00225    00173 CLA +0 50000 0 00016    00174 SUB +0 40200 0 00030    00175 TNZ -0 10000 0 00203
                     NEWID=OLDID.V.$280000$                                         021  LM00030
 00176 CAL -0 50000 0 00015    00177 ORA -0 50100 0 00035    00200 SLW +0 60200 0 00014
                     T'O SET                                                        022  LM00031
 00201 TRA +0 02000 0 00012
                   O'R OLDTYP.E.$000028$                                            023  LM00032
 00202 TRA +0 02000 0 00225    00203 CLA +0 50000 0 00016    00204 SUB +0 40200 0 00027    00205 TNZ -0 10000 0 00215
                     NEWID=OLDID.V.$800000$                                         024  LM00033
 00206 CAL -0 50000 0 00015    00207 ORA -0 50100 0 00037    00210 SLW +0 60200 0 00014
      SET            SLOC.(NEWID,UIDLOC)                                            025  LM00034
 00211 TSX +0 07400 4 00007    00212 TXH +3 00000 0 00014    00213 TXH +3 00000 0 00017
                   O'E                                                              026  LM00035
 00214 TRA +0 02000 0 00225
                     PRMESS.($THIS COMMAND FOR 1050'S AND 2741'S ONLY$)             027  LM00036
 00215 TSX +0 07400 4 00006    00216 TXH +3 00000 0 00055    00217 TXH +3 00000 0 00050    00220 TXH +3 00000 0 00051
 00221 TXH +3 00000 0 00033    00222 TXH +3 00000 0 00043    00223 TXH +3 00000 0 00036    00224 TXH +3 00000 0 00047
                   E'L                                                              028  LM00037
                 O'E                                                                029  LM00038
 00225 TRA +0 02000 0 00234
                   PRMESS.($'CHBALL 963' OR 'CHBALL 938'$)                          030  LM00039
 00226 TSX +0 07400 4 00006    00227 TXH +3 00000 0 00042    00230 TXH +3 00000 0 00046    00231 TXH +3 00000 0 00052
 00232 TXH +3 00000 0 00045    00233 TXH +3 00000 0 00041
                 E'L                                                                031  LM00040
                 CHNCOM.(0)                                                         032  LM00042
 00234 TSX +0 07400 4 00000    00235 TXH +3 00000 0 00020
                 END OF PROGRAM                                                     033  LM00044
 00236 TSX +0 07400 4 00003


CHMODE   BCD 09/18/68 2206.0   11391         00000
1     MAD PROGRAM LISTING ... ... ...                 FILE   CHMDE   MAD            02/08/68    1720.8
-
      DELET      ..DELETE, CHMODE, AND RENAME COMMANDS.                                                LM00001
                                                                                                       LM00002
                 ..DELETE A(1) B(1) A(2) B(2) ... A(N) B(N)                                            LM00003
                 ..DELETES ALL VERSIONS OF FILES A(I) B(I), IF POSSIBLE                                LM00004
                 ..IF NOT, PRINTS COMMENT.                                                             LM00005
                 ..IF B(I) = '*', ANY FILE WITH PRIMARY NAME A(I)                                      LM00006
                 ..WILL BE DELETED                                                                     LM00007
                 ..IF A(I) = '*', ANY FILE WITH SECONDARY NAME B(I) WILL                               LM00008
                 ..BE DELETED                                                                          LM00009
                                                                                                       LM00010
                 ..CHMODE A(1) B(1) M(1) A(2) B(2) M(2) ... A(N) B(N) M(N)                             LM00011
                 ..WHERE M(I) IS 0, 1, 2, 3, T, P, R1, OR R2                                           LM00012
                                                                                                       LM00013
                 ..IF NOT, PRINTS COMMENT                                                              LM00014
                 ..A(I) OR B(I) MAY BE '*', SAME CONVENTIONS AS ABOVE                                  LM00015
                                                                                                       LM00016
                 ..RENAME A(1) B(1) C(1) D(1) ... A(N) B(N) C(N) D(N)                                  LM00017
                 ..FILES A(I) B(I) ARE RENAMED TO C(I) D(I) ONLY IF MODE                               LM00018
                 ..ALLOWS IT, AND IF ALL PREVIOUS COPIES OF C(I) D(I) ARE                              LM00019
                 ..DELETED. IF NOT, PRINTS COMMENT                                                     LM00020
                 ..IF C(I) = '*', THEN A(I) MUST BE '*', AND ONLY SECONDARY                            LM00021
                 ..NAME IS CHANGED                                                                     LM00022
                 ..IF D(I) = '*', THEN B(I) MUST BE '*', OR MISSING, AND                               LM00023
                 ..ONLY PRIMARY NAME IS CHANGED, FOR ALL A(I)                                          LM00024
                 ..THE LAST D(N) MISSING IS ASSUMED B(N)                                               LM00025
                                                                                                       LM00026
      DELT        FDR=0                                                                           *001 LM00027
                                                                                                       LM00028
                  WHENEVER COMARG.(0,COM).E.$DELETE$                                              *002 LM00029
                  CM=1                                                                            *003 LM00030
                  OR WHENEVER COM.E.$CHMODE$                                                      *004 LM00031
                  CM=2                                                                            *005 LM00032
                  OR WHENEVER COM.E.$RENAME$                                                      *006 LM00033
                  CM=3                                                                            *007 LM00034
                  END OF CONDITIONAL                                                              *008 LM00035
                                                                                                       LM00036
      ARG         THROUGH ARG, FOR A=1,1,A.E.19.OR.COMARG.(A,A(A)).E.FENCE                        *009 LM00037
                  A(A)=$$                                                                         *010 LM00038
                  THROUGH ARGCK, FOR I=1,2,I.G.A-1                                                *011 LM00039
                  MODF=0                                                                          *012 LM00040
                  MODG=0                                                                          *013 LM00041
                                                                                                       LM00042
                  WHENEVER I+CM.G.A-1                                                             *014 LM00043
                  TRANSFER TO ER(CM)                                                              *015 LM00044
      ER(1)       MES5=$$                                                                         *016 LM00045
                  MES5(1)=A(I)                                                                    *017 LM00046
      ERA         EXECUTE PRNTP.(MES5)                                                            *018 LM00047
                  EXECUTE CHNCOM.(0)                                                              *019 LM00048
      ER(2)       MES5=A(I)                                                                       *020 LM00049
                  MES5(1)=A(I+1)                                                                  *021 LM00050
                  TRANSFER TO ERA                                                                 *022 LM00051
      ER(3)       WHENEVER I+CM-1.G.A-1, TRANSFER TO ER(2)                                        *023 LM00052
                  A(I+3)=A(I+1)                                                                   *024 LM00053
                  END OF CONDITIONAL                                                              *025 LM00054
                                                                                                       LM00055
                  WHENEVER A(I).E.0.AND.A(I+1).E.0                                                *026 LM00056
                  EXECUTE PRNTP.(MES6)                                                            *027 LM00057
                  TRANSFER TO ARGCK                                                               *028 LM00058
                  OR WHENEVER A(I).E.ASTRSK                                                       *029 LM00059
                  WHENEVER CM.E.3.AND.A(I+2).NE.ASTRSK, TRANSFER TO ARGC                          *030 LM00060
                  E1=4                                                                            *031 LM00061
                  TRANSFER TO STAR                                                                *032 LM00062
                  OR WHENEVER A(I+1).E.ASTRSK                                                     *033 LM00063
                  WHENEVER CM.E.3.AND.A(I+3).NE.ASTRSK, TRANSFER TO ARGC                          *034 LM00064
                  E1=3                                                                            *035 LM00065
                  TRANSFER TO STAR                                                                *036 LM00066
                  OR WHENEVER CM.E.3.AND.A(I+2).E.ASTRSK                                          *037 LM00067
                  TRANSFER TO ASTER                                                               *038 LM00068
                  OR WHENEVER CM.E.3.AND.A(I+3).E.ASTRSK                                          *039 LM00069
                  TRANSFER TO ASTER                                                               *040 LM00070
                  END OF CONDITIONAL                                                              *041 LM00071
                                                                                                       LM00072
      ARGC        EXECUTE FSTATE.(A(I),A(I+1),FV(1)...1,NOFIL)                                    *042 LM00073
                                                                                                       LM00074
                  EXECUTE EXEC.                                                                   *043 LM00075
      ARGCK       I=I+CM-1                                                                        *044 LM00076
                  EXECUTE CHNCOM.(0)                                                              *045 LM00077
                                                                                                       LM00078
      NOFIL       MES2(1)=A(I)                                                                    *046 LM00079
                  MES2(2)=A(I+1)                                                                  *047 LM00080
                  EXECUTE PRNTP.(MES2)                                                            *048 LM00081
                  TRANSFER TO ARGCK                                                               *049 LM00082
                                                                                                       LM00083
      ASTER       EXECUTE PRNTP.(MES10)                                                           *050 LM00084
                  TRANSFER TO ARGCK                                                               *051 LM00085
                                                                                                       LM00086
      STAR        WHENEVER FDR.E.1, TRANSFER TO SCA                                               *052 LM00087
                  WHENEVER FDR.E.2, TRANSFER TO STR                                               *053 LM00088
                  EXECUTE UPDATE.                                                                 *054 LM00089
                  EXECUTE LDFIL.($U.F.D.$,$(FILE)$,SCAN.)                                         *055 LM00090
                  EXECUTE PRNTP.(MES4)                                                            *056 LM00091
      STR         MES11=A(I)                                                                      *057 LM00092
                  MES11(1)=A(I+1)                                                                 *058 LM00093
                  EXECUTE PRNTP.(MES11)                                                           *059 LM00094
                  FDR=2                                                                           *060 LM00095
                  TRANSFER TO ARGCK                                                               *061 LM00096
                                                                                                       LM00097
                                                                                                       LM00098
                  INTERNAL FUNCTION(LODAD)                                                        *062 LM00099
                  ENTRY TO SCAN.                                                                  *063 LM00100
                  FDR=1                                                                           *064 LM00101
      SCA         AVJ=I+E1-3                                                                      *065 LM00102
                  THROUGH SC, FOR J=E1+1,7,J.GE.(LODAD)                                           *066 LM00103
                  WHENEVER LODAD(1K5-J).E.A(AVJ), TRANSFER TO GRARG                               *067 LM00104
      SC1         P=(LODAD(1K5-J-8+E1).LS.18).RS.33                                               *068 LM00105
                  F=(LODAD(1K5-J-7+E1).LS.18).RS.33                                               *069 LM00106
                  WHENEVER F.NE.0, J=J+P-1                                                        *070 LM00107
      SC          CONTINUE                                                                        *071 LM00108
                  WHENEVER A(I+4-E1).E.ASTRSK.AND.MODG.E.0,TRANSFERTOERK(5-E1)                    *072 LM00109
                  TRANSFER TO ARGCK                                                               *073 LM00110
                                                                                                       LM00111
      ERK(1)      MES12(3)=$SECOND$                                                               *074 LM00112
                  TRANSFER TO ERKA                                                                *075 LM00113
      ERK(2)      MES12(3)=$ FIRST$                                                               *076 LM00114
      ERKA        MES12(5)=A(I+E1-3)                                                              *077 LM00115
                  EXECUTE PRNTP.(MES12)                                                           *078 LM00116
                  TRANSFER TO ARGCK                                                               *079 LM00117
                                                                                                       LM00118
      GRARG       A(I+4-E1)=LODAD(1K5-J-7+2*E1)                                                   *080 LM00119
                  WHENEVER CM.E.3,A(I+6-E1)=A(I+4-E1)                                             *081 LM00120
                  WHENEVER A(I+4-E1).E.ASTRSK, MODG=1                                             *082 LM00121
                  EXECUTE EXEC.                                                                   *083 LM00122
                  TRANSFER TO SC1                                                                 *084 LM00123
                  END OF FUNCTION                                                                 *085 LM00124
                                                                                                       LM00125
                                                                                                       LM00126
                  INTERNAL FUNCTION                                                               *086 LM00127
                  ENTRY TO EXEC.                                                                  *087 LM00128
                  TRANSFER TO FUN(CM)                                                             *088 LM00129
                                                                                                       LM00130
      FUN(1)      WHENEVER DELETE.(A(I)).E.0, TRANSFER TO FUNA                                    *089 LM00131
                  MES3(1)=A(I)                                                                    *090 LM00132
                  MES3(2)=A(I+1)                                                                  *091 LM00133
                  EXECUTE PRNTP.(MES3)                                                            *092 LM00134
      FUNA        FUNCTION RETURN                                                                 *093 LM00135
                                                                                                       LM00136
      FUN(2)      WHENEVER MODF .E. 1, TRANSFER TO FUNB                                           *094 LM00137
                  GETMOD.(A(I+2),FUNB1)                                                           *095 LM00138
                  EXECUTE PRNTP.(MES7)                                                            *096 LM00139
                  TRANSFER TO ARGCK                                                               *097 LM00140
      FUNB1       MODF = 1                                                                        *098 LM00141
      FUNB        CHFILE. (A(I),A(I+1),A(I+2),-0,-0,FUNB2)                                        *099 LM00142
                  TRANSFER TO FUNA                                                                *100 LM00143
      FUNB2       MES8(1)=A(I)                                                                    *101 LM00144
                  MES8(2)=A(I+1)                                                                  *102 LM00145
                  EXECUTE PRNTP.(MES8)                                                            *103 LM00146
                  FUNCTION RETURN                                                                 *104 LM00147
                                                                                                       LM00148
      FUN(3)      WHENEVER RENAME.(A(I),A(I+2)).E.0, TRANSFER TO FUNA                             *105 LM00149
                  MES9(1)=A(I)                                                                    *106 LM00150
                  MES9(2)=A(I+1)                                                                  *107 LM00151
                  EXECUTE PRNTP.(MES9)                                                            *108 LM00152
                  FUNCTION RETURN                                                                 *109 LM00153
                  END OF FUNCTION                                                                 *110 LM00154
                                                                                                       LM00155
                                                                                                       LM00156
                  VECTOR VALUES MES2=$ FILE$,0,0,$ NOT FOUND$,777777777777K                       *111 LM00157
                  VECTOR VALUES MES3=$ FILE$,0,0,$ NOT DELETED$,777777777777K                     *112 LM00158
                  VECTOR VALUES MES4=$ ERROR IN READING FILE DIRECTORY$,                          *113 LM00159
                1 777777777777K                                                                   *113 LM00160
                  VECTOR VALUES MES5(2)=$ INCOMPLETE SET OF ARGUMENTS$,                           *114 LM00161
                1 777777777777K                                                                   *114 LM00162
                  VECTOR VALUES MES6=$ FILE NAME ILLEGAL$,777777777777K                           *115 LM00163
                  VECTOR VALUES MES7=$ ILLEGAL MODE DEFINITION$,777777777777K                     *116 LM00164
                  VECTOR VALUES MES8=$ FILE$,0,0,$ MODE NOT CHANGED$,                             *117 LM00165
                1 777777777777K                                                                   *117 LM00166
                  VECTOR VALUES MES9=$ FILE$,0,0,$ NOT RENAMED$,777777777777K                     *118 LM00167
                  VECTOR VALUES MES10=$ ILLEGAL USE OF ASTERISK$,777777777777K                    *119 LM00168
                  VECTOR VALUES MES11(2)=$ IGNORED$,777777777777K                                 *120 LM00169
                  VECTOR VALUES MES12=$ NO FILE WITH $,0,$ NAME $,0,$ FOUND$,                     *121 LM00170
                1 777777777777K                                                                   *121 LM00171
                                                                                                       LM00172
                  VECTOR VALUES ASTRSK=$     *$                                                   *122 LM00173
                  VECTOR VALUES FENCE=777777777777K                                               *123 LM00174
                  NORMAL MODE IS INTEGER                                                          *124 LM00175
                  DIMENSION A(19),FV(1)                                                           *125 LM00176
                  END OF PROGRAM                                                                  *126 LM00177
       THE FOLLOWING NAMES HAVE OCCURRED ONLY ONCE IN THIS PROGRAM.
       THEY WILL ALL BE ASSIGNED TO THE SAME LOCATION, AND
       COMPILATION WILL CONTINUE.
      DELT
1MAD PROGRAM,TYPE NOV 1963      (ALL NUMBERS ARE OCTAL)
0TOTAL LOCATIONS   01252 TRANSFER VECTOR LENGTH  00014 PROGRAM BEGINS    00245
0VARIABLE STORAGE (A=ARRAY,C=COMMON,E=ERASABLE,DIGIT=MODE)
      ARGCK  00017   4        E1     00101   1        FUNB2  00035   4        MES12  00132 A 1        MODF   00214   1
      ARGC   00020   4        ERA    00022   4        FUNB   00036   4        MES2   00140 A 1        MODG   00215   1
      ARG    00016   4        ERKA   00023   4        FUN    00042 A 4        MES3   00146 A 1        NOFIL  00044   4
      A      00074 A 1        ERK    00026 A 4        FV     00106 A 1        MES4   00155 A 1        P      00216   1
      ASTER  00021   4        ER     00032 A 4        GRARG  00043   4        MES5   00165 A 1        SC1    00045   4
      ASTRSK 00075 A 1        FDR    00102   1        I      00107   1        MES6   00171 A 1        SCA    00046   4
      AVJ    00076   1        FENCE  00103 A 1        J      00110   1        MES7   00176 A 1        SC     00016   4
      CM     00077   1        F      00104   1        MES10  00115 A 1        MES8   00205 A 1        STAR   00047   4
      COM    00100   1        FUNA   00033   4        MES11  00122 A 1        MES9   00213 A 1        STR    00050   4
      DELT   00016   4        FUNB1  00034   4
0FUNCTION DICTIONARY
      CHFILE 00000   1        CHNCOM 00001   1        COMARG 00002   1        DELETE 00003   1        EXIT   00004   1
      FSTATE 00005   1        GETMOD 00006   1        .SETUP 00007   1        LDFIL  00010   1        PRNTP  00011   1
      RENAME 00012   1        UPDATE 00013   1        EXEC   00014   1        SCAN   00015   1
0ABSOLUTE CONSTANTS
 00225 +000000000006     00240 -202631516263     00242 -222523464524     00224 +000000000005     00232 +000000000041
 00230 +000000000022     00227 +000000000010     00233 +000000100000     00226 +000000000007     00244 -342631432534
 00243 -243326332433     00223 +000000000004     00241 -206060606060     00231 +000000000023     00222 +000000000003
 00237 -112545214425     00221 +000000000002     00235 +233044462425     00236 +242543256325     00217 +000000000000
 00220 +000000000001     00234 +233000000000
0STATEMENT DICTIONARY
 00017 TXL -300555000550       00020 TXL -300547000531       00021 TXL -300574000572       00022 TXL -300362000360
 00023 TXL -300766000760       00024 TXL -300760000756       00025 TXL -300755000753       00027 TXL -300407000375
 00030 TXL -300367000364       00031 TXL -300355000353       00033 TXL -301113001112       00034 TXL -301134001132
 00035 TXL -301171001166       00036 TXL -301165001134       00037 TXL -301220001201       00040 TXL -301117001113
 00041 TXL -301100001067       00043 TXL -301010000771       00044 TXL -300562000557       00045 TXL -300705000666
 00046 TXL -300643000637       00047 TXL -300601000575       00050 TXL -300617000614
0PROGRAM
      DELT       FDR=0                                                              001  LM00027
 00245 TSX +0 07400 4 00007    00246 CLA +0 50000 0 00217    00247 STO +0 60100 0 00102
                 WHENEVER COMARG.(0,COM).E.$DELETE$                                 002  LM00029
 00250 TSX +0 07400 4 00002    00251 TXH +3 00000 0 00217    00252 TXH +3 00000 0 00100    00253 SUB +0 40200 0 00236
 00254 TNZ -0 10000 0 00260
                 CM=1                                                               003  LM00030
 00255 CLA +0 50000 0 00220    00256 STO +0 60100 0 00077
                 OR WHENEVER COM.E.$CHMODE$                                         004  LM00031
 00257 TRA +0 02000 0 00273    00260 CLA +0 50000 0 00100    00261 SUB +0 40200 0 00235    00262 TNZ -0 10000 0 00266
                 CM=2                                                               005  LM00032
 00263 CLA +0 50000 0 00221    00264 STO +0 60100 0 00077
                 OR WHENEVER COM.E.$RENAME$                                         006  LM00033
 00265 TRA +0 02000 0 00273    00266 CLA +0 50000 0 00100    00267 SUB +0 40200 0 00237    00270 TNZ -0 10000 0 00273
                 CM=3                                                               007  LM00034
 00271 CLA +0 50000 0 00222    00272 STO +0 60100 0 00077
                 END OF CONDITIONAL                                                 008  LM00035
      ARG        THROUGH ARG, FOR A=1,1,A.E.19.OR.COMARG.(A,A(A)).E.FENCE           009  LM00037
 00273 CLA +0 50000 0 00220    00274 STO +0 60100 0 00074    00275 TRA +0 02000 0 00301    00276 CLA +0 50000 0 00074
 00277 ADD +0 40000 0 00220    00300 STO +0 60100 0 00074    00301 CLA +0 50000 0 00074    00302 SUB +0 40200 0 00303
 00303 TXH +3 00000 0 00074    00304 STA +0 62100 0 00307    00305 TSX +0 07400 4 00002    00306 TXH +3 00000 0 00074
 00307 TXH +3 00000 0 00000    00310 SUB +0 40200 0 00103    00311 TZE +0 10000 0 00316    00312 CLA +0 50000 0 00074
 00313 SUB +0 40200 0 00231    00314 TZE +0 10000 0 00316    00315 TRA +0 02000 0 00276
                 A(A)=$$                                                            010  LM00038
 00316 LXA +0 53400 1 00074    00317 CLA +0 50000 0 00241    00320 STO +0 60100 1 00074
                 THROUGH ARGCK, FOR I=1,2,I.G.A-1                                   011  LM00039
 00321 CLA +0 50000 0 00220    00322 STO +0 60100 0 00107    00323 TRA +0 02000 0 00327    00324 CLA +0 50000 0 00107
 00325 ADD +0 40000 0 00221    00326 STO +0 60100 0 00107    00327 CLA +0 50000 0 00074    00330 SUB +0 40200 0 00220
 00331 CHS +0 76000 0 00002    00332 ADD +0 40000 0 00107    00333 TZE +0 10000 0 00335    00334 TPL +0 12000 0 00555
                 MODF=0                                                             012  LM00040
 00335 CLA +0 50000 0 00217    00336 STO +0 60100 0 00214
                 MODG=0                                                             013  LM00041
 00337 CLA +0 50000 0 00217    00340 STO +0 60100 0 00215
                 WHENEVER I+CM.G.A-1                                                014  LM00043
 00341 CLA +0 50000 0 00074    00342 SUB +0 40200 0 00220    00343 STO +0 60100 0 01247    00344 CLA +0 50000 0 00107
 00345 ADD +0 40000 0 00077    00346 SUB +0 40200 0 01247    00347 TZE +0 10000 0 00420    00350 TMI -0 12000 0 00420
                 TRANSFER TO ER(CM)                                                 015  LM00044
 00351 LXA +0 53400 2 00077    00352 TRA +0 02000 2 00032
      ER(1)      MES5=$$                                                            016  LM00045
 00353 CLA +0 50000 0 00241    00354 STO +0 60100 0 00165
                 MES5(1)=A(I)                                                       017  LM00046
 00355 LXA +0 53400 2 00107    00356 CLA +0 50000 2 00074    00357 STO +0 60100 0 00164
      ERA        EXECUTE PRNTP.(MES5)                                               018  LM00047
 00360 TSX +0 07400 4 00011    00361 TXH +3 00000 0 00165
                 EXECUTE CHNCOM.(0)                                                 019  LM00048
 00362 TSX +0 07400 4 00001    00363 TXH +3 00000 0 00217
      ER(2)      MES5=A(I)                                                          020  LM00049
 00364 LXA +0 53400 2 00107    00365 CLA +0 50000 2 00074    00366 STO +0 60100 0 00165
                 MES5(1)=A(I+1)                                                     021  LM00050
 00367 CLA +0 50000 0 00107    00370 ADD +0 40000 0 00220    00371 PAX +0 73400 2 00000    00372 CLA +0 50000 2 00074
 00373 STO +0 60100 0 00164
                 TRANSFER TO ERA                                                    022  LM00051
 00374 TRA +0 02000 0 00022
      ER(3)      WHENEVER I+CM-1.G.A-1, TRANSFER TO ER(2)                           023  LM00052
 00375 CLA +0 50000 0 00074    00376 SUB +0 40200 0 00220    00377 STO +0 60100 0 01247    00400 CLA +0 50000 0 00107
 00401 ADD +0 40000 0 00077    00402 SUB +0 40200 0 00220    00403 SUB +0 40200 0 01247    00404 TZE +0 10000 0 00407
 00405 TMI -0 12000 0 00407    00406 TRA +0 02000 0 00030
                 A(I+3)=A(I+1)                                                      024  LM00053
 00407 CLA +0 50000 0 00107    00410 ADD +0 40000 0 00220    00411 STO +0 60100 0 01247    00412 CLA +0 50000 0 00107
 00413 ADD +0 40000 0 00222    00414 PAX +0 73400 1 00000    00415 LXA +0 53400 2 01247    00416 CLA +0 50000 2 00074
 00417 STO +0 60100 1 00074
                 END OF CONDITIONAL                                                 025  LM00054
                 WHENEVER A(I).E.0.AND.A(I+1).E.0                                   026  LM00056
 00420 CLA +0 50000 0 00107    00421 ADD +0 40000 0 00220    00422 PAX +0 73400 1 00000    00423 CLA +0 50000 1 00074
 00424 SUB +0 40200 0 00217    00425 TNZ -0 10000 0 00436    00426 LXA +0 53400 1 00107    00427 CLA +0 50000 1 00074
 00430 SUB +0 40200 0 00217    00431 TNZ -0 10000 0 00436
                 EXECUTE PRNTP.(MES6)                                               027  LM00057
 00432 TSX +0 07400 4 00011    00433 TXH +3 00000 0 00171
                 TRANSFER TO ARGCK                                                  028  LM00058
 00434 TRA +0 02000 0 00017
                 OR WHENEVER A(I).E.ASTRSK                                          029  LM00059
 00435 TRA +0 02000 0 00531    00436 LXA +0 53400 1 00107    00437 CLA +0 50000 1 00074    00440 SUB +0 40200 0 00075
 00441 TNZ -0 10000 0 00460
                 WHENEVER CM.E.3.AND.A(I+2).NE.ASTRSK, TRANSFER TO ARGC             030  LM00060
 00442 CLA +0 50000 0 00107    00443 ADD +0 40000 0 00221    00444 PAX +0 73400 1 00000    00445 CLA +0 50000 1 00074
 00446 SUB +0 40200 0 00075    00447 TZE +0 10000 0 00454    00450 CLA +0 50000 0 00077    00451 SUB +0 40200 0 00222
 00452 TNZ -0 10000 0 00454    00453 TRA +0 02000 0 00020
                 E1=4                                                               031  LM00061
 00454 CLA +0 50000 0 00223    00455 STO +0 60100 0 00101
                 TRANSFER TO STAR                                                   032  LM00062
 00456 TRA +0 02000 0 00047
                 OR WHENEVER A(I+1).E.ASTRSK                                        033  LM00063
 00457 TRA +0 02000 0 00531    00460 CLA +0 50000 0 00107    00461 ADD +0 40000 0 00220    00462 PAX +0 73400 1 00000
 00463 CLA +0 50000 1 00074    00464 SUB +0 40200 0 00075    00465 TNZ -0 10000 0 00504
                 WHENEVER CM.E.3.AND.A(I+3).NE.ASTRSK, TRANSFER TO ARGC             034  LM00064
 00466 CLA +0 50000 0 00107    00467 ADD +0 40000 0 00222    00470 PAX +0 73400 1 00000    00471 CLA +0 50000 1 00074
 00472 SUB +0 40200 0 00075    00473 TZE +0 10000 0 00500    00474 CLA +0 50000 0 00077    00475 SUB +0 40200 0 00222
 00476 TNZ -0 10000 0 00500    00477 TRA +0 02000 0 00020
                 E1=3                                                               035  LM00065
 00500 CLA +0 50000 0 00222    00501 STO +0 60100 0 00101
                 TRANSFER TO STAR                                                   036  LM00066
 00502 TRA +0 02000 0 00047
                 OR WHENEVER CM.E.3.AND.A(I+2).E.ASTRSK                             037  LM00067
 00503 TRA +0 02000 0 00531    00504 CLA +0 50000 0 00107    00505 ADD +0 40000 0 00221    00506 PAX +0 73400 1 00000
 00507 CLA +0 50000 1 00074    00510 SUB +0 40200 0 00075    00511 TNZ -0 10000 0 00517    00512 CLA +0 50000 0 00077
 00513 SUB +0 40200 0 00222    00514 TNZ -0 10000 0 00517
                 TRANSFER TO ASTER                                                  038  LM00068
 00515 TRA +0 02000 0 00021
                 OR WHENEVER CM.E.3.AND.A(I+3).E.ASTRSK                             039  LM00069
 00516 TRA +0 02000 0 00531    00517 CLA +0 50000 0 00107    00520 ADD +0 40000 0 00222    00521 PAX +0 73400 1 00000
 00522 CLA +0 50000 1 00074    00523 SUB +0 40200 0 00075    00524 TNZ -0 10000 0 00531    00525 CLA +0 50000 0 00077
 00526 SUB +0 40200 0 00222    00527 TNZ -0 10000 0 00531
                 TRANSFER TO ASTER                                                  040  LM00070
 00530 TRA +0 02000 0 00021
                 END OF CONDITIONAL                                                 041  LM00071
      ARGC       EXECUTE FSTATE.(A(I),A(I+1),FV(1)...1,NOFIL)                       042  LM00073
 00531 CLA +0 50000 0 00107    00532 ADD +0 40000 0 00220    00533 SUB +0 40200 0 00534    00534 TXH +3 00000 0 00074
 00535 STA +0 62100 0 00544    00536 CLA +0 50000 0 00107    00537 SUB +0 40200 0 00540    00540 TXH +3 00000 0 00074
 00541 STA +0 62100 0 00543    00542 TSX +0 07400 4 00005    00543 TXH +3 00000 0 00000    00544 TXH +3 00000 0 00000
 00545 TIX +2 00220 0 00105    00546 TXH +3 00000 0 00044
                 EXECUTE EXEC.                                                      043  LM00075
 00547 TSX +0 07400 4 00014
      ARGCK      I=I+CM-1                                                           044  LM00076
 00550 CLA +0 50000 0 00107    00551 ADD +0 40000 0 00077    00552 SUB +0 40200 0 00220    00553 STO +0 60100 0 00107
 00554 TRA +0 02000 0 00324
                 EXECUTE CHNCOM.(0)                                                 045  LM00077
 00555 TSX +0 07400 4 00001    00556 TXH +3 00000 0 00217
      NOFIL      MES2(1)=A(I)                                                       046  LM00079
 00557 LXA +0 53400 2 00107    00560 CLA +0 50000 2 00074    00561 STO +0 60100 0 00137
                 MES2(2)=A(I+1)                                                     047  LM00080
 00562 CLA +0 50000 0 00107    00563 ADD +0 40000 0 00220    00564 PAX +0 73400 2 00000    00565 CLA +0 50000 2 00074
 00566 STO +0 60100 0 00136
                 EXECUTE PRNTP.(MES2)                                               048  LM00081
 00567 TSX +0 07400 4 00011    00570 TXH +3 00000 0 00140
                 TRANSFER TO ARGCK                                                  049  LM00082
 00571 TRA +0 02000 0 00017
      ASTER      EXECUTE PRNTP.(MES10)                                              050  LM00084
 00572 TSX +0 07400 4 00011    00573 TXH +3 00000 0 00115
                 TRANSFER TO ARGCK                                                  051  LM00085
 00574 TRA +0 02000 0 00017
      STAR       WHENEVER FDR.E.1, TRANSFER TO SCA                                  052  LM00087
 00575 CLA +0 50000 0 00102    00576 SUB +0 40200 0 00220    00577 TNZ -0 10000 0 00601    00600 TRA +0 02000 0 00046
                 WHENEVER FDR.E.2, TRANSFER TO STR                                  053  LM00088
 00601 CLA +0 50000 0 00102    00602 SUB +0 40200 0 00221    00603 TNZ -0 10000 0 00605    00604 TRA +0 02000 0 00050
                 EXECUTE UPDATE.                                                    054  LM00089
 00605 TSX +0 07400 4 00013
                 EXECUTE LDFIL.($U.F.D.$,$(FILE)$,SCAN.)                            055  LM00090
 00606 TSX +0 07400 4 00010    00607 TXH +3 00000 0 00243    00610 TXH +3 00000 0 00244    00611 TXH +3 00000 0 00015
                 EXECUTE PRNTP.(MES4)                                               056  LM00091
 00612 TSX +0 07400 4 00011    00613 TXH +3 00000 0 00155
      STR        MES11=A(I)                                                         057  LM00092
 00614 LXA +0 53400 2 00107    00615 CLA +0 50000 2 00074    00616 STO +0 60100 0 00122
                 MES11(1)=A(I+1)                                                    058  LM00093
 00617 CLA +0 50000 0 00107    00620 ADD +0 40000 0 00220    00621 PAX +0 73400 2 00000    00622 CLA +0 50000 2 00074
 00623 STO +0 60100 0 00121
                 EXECUTE PRNTP.(MES11)                                              059  LM00094
 00624 TSX +0 07400 4 00011    00625 TXH +3 00000 0 00122
                 FDR=2                                                              060  LM00095
 00626 CLA +0 50000 0 00221    00627 STO +0 60100 0 00102
                 TRANSFER TO ARGCK                                                  061  LM00096
 00630 TRA +0 02000 0 00017
                 INTERNAL FUNCTION(LODAD)                                           062  LM00099
 00631 TRA +0 02000 0 01061
                 ENTRY TO SCAN.                                                     063  LM00100
 00632 TRA +0 02000 0 00635    00015 TTR +0 02100 0 00633    00633 SXA +0 63400 2 01042    00634 TSX +0 07400 2 01042
                 FDR=1                                                              064  LM00101
 00635 CLA +0 50000 0 00220    00636 STO +0 60100 0 00102
      SCA        AVJ=I+E1-3                                                         065  LM00102
 00637 CLA +0 50000 0 00107    00640 ADD +0 40000 0 00101    00641 SUB +0 40200 0 00222    00642 STO +0 60100 0 00076
                 THROUGH SC, FOR J=E1+1,7,J.GE.(LODAD)                              066  LM00103
 00643 CLA +0 50000 0 00101    00644 ADD +0 40000 0 00220    00645 STO +0 60100 0 00110    00646 TRA +0 02000 0 00652
 00647 CLA +0 50000 0 00110    00650 ADD +0 40000 0 00226    00651 STO +0 60100 0 00110    00652 CLA +0 50000 0 00110
 00653 SUB +0 40200 0 00024    00654 TZE +0 10000 0 00734    00655 TPL +0 12000 0 00734
                 WHENEVER LODAD(1K5-J).E.A(AVJ), TRANSFER TO GRARG                  067  LM00104
 00656 CLA +0 50000 0 00233    00657 SUB +0 40200 0 00110    00660 PAX +0 73400 1 00000    00661 LXA +0 53400 2 00076
 00662 CLA +0 50000 1 00024    00663 SUB +0 40200 2 00074    00664 TNZ -0 10000 0 00666    00665 TRA +0 02000 0 00043
      SC1        P=(LODAD(1K5-J-8+E1).LS.18).RS.33                                  068  LM00105
 00666 CLA +0 50000 0 00233    00667 SUB +0 40200 0 00110    00670 SUB +0 40200 0 00227    00671 ADD +0 40000 0 00101
 00672 PAX +0 73400 1 00000    00673 CAL -0 50000 0 00230    00674 STA +0 62100 0 00676    00675 CAL -0 50000 1 00024
 00676 ALS +0 76700 0 00000    00677 SLW +0 60200 0 01060    00700 CAL -0 50000 0 00232    00701 STA +0 62100 0 00703
 00702 CAL -0 50000 0 01060    00703 LGR -0 76500 0 00000    00704 SLW +0 60200 0 00216
                 F=(LODAD(1K5-J-7+E1).LS.18).RS.33                                  069  LM00106
 00705 CLA +0 50000 0 00233    00706 SUB +0 40200 0 00110    00707 SUB +0 40200 0 00226    00710 ADD +0 40000 0 00101
 00711 PAX +0 73400 1 00000    00712 CAL -0 50000 0 00230    00713 STA +0 62100 0 00715    00714 CAL -0 50000 1 00024
 00715 ALS +0 76700 0 00000    00716 SLW +0 60200 0 01060    00717 CAL -0 50000 0 00232    00720 STA +0 62100 0 00722
 00721 CAL -0 50000 0 01060    00722 LGR -0 76500 0 00000    00723 SLW +0 60200 0 00104
                 WHENEVER F.NE.0, J=J+P-1                                           070  LM00107
 00724 CLA +0 50000 0 00104    00725 SUB +0 40200 0 00217    00726 TZE +0 10000 0 00733    00727 CLA +0 50000 0 00110
 00730 ADD +0 40000 0 00216    00731 SUB +0 40200 0 00220    00732 STO +0 60100 0 00110
      SC         CONTINUE                                                           071  LM00108
 00733 TRA +0 02000 0 00647
                 WHENEVER A(I+4-E1).E.ASTRSK.AND.MODG.E.0,TRANSFERTOERK(5-E1)       072  LM00109
 00734 CLA +0 50000 0 00215    00735 SUB +0 40200 0 00217    00736 TNZ -0 10000 0 00752    00737 CLA +0 50000 0 00107
 00740 ADD +0 40000 0 00223    00741 SUB +0 40200 0 00101    00742 PAX +0 73400 1 00000    00743 CLA +0 50000 1 00074
 00744 SUB +0 40200 0 00075    00745 TNZ -0 10000 0 00752    00746 CLA +0 50000 0 00224    00747 SUB +0 40200 0 00101
 00750 PAX +0 73400 2 00000    00751 TRA +0 02000 2 00026
                 TRANSFER TO ARGCK                                                  073  LM00110
 00752 TRA +0 02000 0 00017
      ERK(1)     MES12(3)=$SECOND$                                                  074  LM00112
 00753 CLA +0 50000 0 00242    00754 STO +0 60100 0 00127
                 TRANSFER TO ERKA                                                   075  LM00113
 00755 TRA +0 02000 0 00023
      ERK(2)     MES12(3)=$ FIRST$                                                  076  LM00114
 00756 CLA +0 50000 0 00240    00757 STO +0 60100 0 00127
      ERKA       MES12(5)=A(I+E1-3)                                                 077  LM00115
 00760 CLA +0 50000 0 00107    00761 ADD +0 40000 0 00101    00762 SUB +0 40200 0 00222    00763 PAX +0 73400 2 00000
 00764 CLA +0 50000 2 00074    00765 STO +0 60100 0 00125
                 EXECUTE PRNTP.(MES12)                                              078  LM00116
 00766 TSX +0 07400 4 00011    00767 TXH +3 00000 0 00132
                 TRANSFER TO ARGCK                                                  079  LM00117
 00770 TRA +0 02000 0 00017
      GRARG      A(I+4-E1)=LODAD(1K5-J-7+2*E1)                                      080  LM00119
 00771 LDQ +0 56000 0 00221    00772 MPY +0 20000 0 00101    00773 STQ -0 60000 0 01060    00774 CLA +0 50000 0 00233
 00775 SUB +0 40200 0 00110    00776 SUB +0 40200 0 00226    00777 ADD +0 40000 0 01060    01000 STO +0 60100 0 01060
 01001 CLA +0 50000 0 00107    01002 ADD +0 40000 0 00223    01003 SUB +0 40200 0 00101    01004 PAX +0 73400 1 00000
 01005 LXA +0 53400 2 01060    01006 CLA +0 50000 2 00024    01007 STO +0 60100 1 00074
                 WHENEVER CM.E.3,A(I+6-E1)=A(I+4-E1)                                081  LM00120
 01010 CLA +0 50000 0 00077    01011 SUB +0 40200 0 00222    01012 TNZ -0 10000 0 01026    01013 CLA +0 50000 0 00107
 01014 ADD +0 40000 0 00223    01015 SUB +0 40200 0 00101    01016 STO +0 60100 0 01060    01017 CLA +0 50000 0 00107
 01020 ADD +0 40000 0 00225    01021 SUB +0 40200 0 00101    01022 PAX +0 73400 1 00000    01023 LXA +0 53400 2 01060
 01024 CLA +0 50000 2 00074    01025 STO +0 60100 1 00074
                 WHENEVER A(I+4-E1).E.ASTRSK, MODG=1                                082  LM00121
 01026 CLA +0 50000 0 00107    01027 ADD +0 40000 0 00223    01030 SUB +0 40200 0 00101    01031 PAX +0 73400 1 00000
 01032 CLA +0 50000 1 00074    01033 SUB +0 40200 0 00075    01034 TNZ -0 10000 0 01037    01035 CLA +0 50000 0 00220
 01036 STO +0 60100 0 00215
                 EXECUTE EXEC.                                                      083  LM00122
 01037 TSX +0 07400 4 00014
                 TRANSFER TO SC1                                                    084  LM00123
 01040 TRA +0 02000 0 00045
                 END OF FUNCTION                                                    085  LM00124
 01041 TSX +0 07400 4 00004    01042 TXH +3 00000 0 00000    01043 SXD -0 63400 1 01042    01044 SXA +0 63400 4 01054
 01045 CLA +0 50000 4 00001    01046 STA +0 62100 0 00653    01047 STA +0 62100 0 00662    01050 STA +0 62100 0 00675
 01051 STA +0 62100 0 00714    01052 STA +0 62100 0 01006    01053 TRA +0 02000 2 00001    01054 AXT +0 77400 4 00000
 01055 LXA +0 53400 2 01042    01056 LXD -0 53400 1 01042    01057 TRA +0 02000 4 00001
                 INTERNAL FUNCTION                                                  086  LM00127
 01061 TRA +0 02000 0 01246
                 ENTRY TO EXEC.                                                     087  LM00128
 01062 TRA +0 02000 0 01065    00014 TTR +0 02100 0 01063    01063 SXA +0 63400 2 01234    01064 TSX +0 07400 2 01234
                 TRANSFER TO FUN(CM)                                                088  LM00129
 01065 LXA +0 53400 2 00077    01066 TRA +0 02000 2 00042
      FUN(1)     WHENEVER DELETE.(A(I)).E.0, TRANSFER TO FUNA                       089  LM00131
 01067 CLA +0 50000 0 00107    01070 SUB +0 40200 0 01071    01071 TXH +3 00000 0 00074    01072 STA +0 62100 0 01074
 01073 TSX +0 07400 4 00003    01074 TXH +3 00000 0 00000    01075 SUB +0 40200 0 00217    01076 TNZ -0 10000 0 01100
 01077 TRA +0 02000 0 00033
                 MES3(1)=A(I)                                                       090  LM00132
 01100 LXA +0 53400 2 00107    01101 CLA +0 50000 2 00074    01102 STO +0 60100 0 00145
                 MES3(2)=A(I+1)                                                     091  LM00133
 01103 CLA +0 50000 0 00107    01104 ADD +0 40000 0 00220    01105 PAX +0 73400 2 00000    01106 CLA +0 50000 2 00074
 01107 STO +0 60100 0 00144
                 EXECUTE PRNTP.(MES3)                                               092  LM00134
 01110 TSX +0 07400 4 00011    01111 TXH +3 00000 0 00146
      FUNA       FUNCTION RETURN                                                    093  LM00135
 01112 TRA +0 02000 0 01240
      FUN(2)     WHENEVER MODF .E. 1, TRANSFER TO FUNB                              094  LM00137
 01113 CLA +0 50000 0 00214    01114 SUB +0 40200 0 00220    01115 TNZ -0 10000 0 01117    01116 TRA +0 02000 0 00036
                 GETMOD.(A(I+2),FUNB1)                                              095  LM00138
 01117 CLA +0 50000 0 00107    01120 ADD +0 40000 0 00221    01121 SUB +0 40200 0 01122    01122 TXH +3 00000 0 00074
 01123 STA +0 62100 0 01125    01124 TSX +0 07400 4 00006    01125 TXH +3 00000 0 00000    01126 TXH +3 00000 0 00034
                 EXECUTE PRNTP.(MES7)                                               096  LM00139
 01127 TSX +0 07400 4 00011    01130 TXH +3 00000 0 00176
                 TRANSFER TO ARGCK                                                  097  LM00140
 01131 TRA +0 02000 0 00017
      FUNB1      MODF = 1                                                           098  LM00141
 01132 CLA +0 50000 0 00220    01133 STO +0 60100 0 00214
      FUNB       CHFILE. (A(I),A(I+1),A(I+2),-0,-0,FUNB2)                           099  LM00142
 01134 CLS +0 50200 0 00217    01135 STO +0 60100 0 01244    01136 CLS +0 50200 0 00217    01137 STO +0 60100 0 01245
 01140 CLA +0 50000 0 00107    01141 ADD +0 40000 0 00221    01142 SUB +0 40200 0 01143    01143 TXH +3 00000 0 00074
 01144 STA +0 62100 0 01161    01145 CLA +0 50000 0 00107    01146 ADD +0 40000 0 00220    01147 SUB +0 40200 0 01150
 01150 TXH +3 00000 0 00074    01151 STA +0 62100 0 01160    01152 CLA +0 50000 0 00107    01153 SUB +0 40200 0 01154
 01154 TXH +3 00000 0 00074    01155 STA +0 62100 0 01157    01156 TSX +0 07400 4 00000    01157 TXH +3 00000 0 00000
 01160 TXH +3 00000 0 00000    01161 TXH +3 00000 0 00000    01162 TXH +3 00000 0 01245    01163 TXH +3 00000 0 01244
 01164 TXH +3 00000 0 00035
                 TRANSFER TO FUNA                                                   100  LM00143
 01165 TRA +0 02000 0 00033
      FUNB2      MES8(1)=A(I)                                                       101  LM00144
 01166 LXA +0 53400 2 00107    01167 CLA +0 50000 2 00074    01170 STO +0 60100 0 00204
                 MES8(2)=A(I+1)                                                     102  LM00145
 01171 CLA +0 50000 0 00107    01172 ADD +0 40000 0 00220    01173 PAX +0 73400 2 00000    01174 CLA +0 50000 2 00074
 01175 STO +0 60100 0 00203
                 EXECUTE PRNTP.(MES8)                                               103  LM00146
 01176 TSX +0 07400 4 00011    01177 TXH +3 00000 0 00205
                 FUNCTION RETURN                                                    104  LM00147
 01200 TRA +0 02000 0 01240
      FUN(3)     WHENEVER RENAME.(A(I),A(I+2)).E.0, TRANSFER TO FUNA                105  LM00149
 01201 CLA +0 50000 0 00107    01202 ADD +0 40000 0 00221    01203 SUB +0 40200 0 01204    01204 TXH +3 00000 0 00074
 01205 STA +0 62100 0 01214    01206 CLA +0 50000 0 00107    01207 SUB +0 40200 0 01210    01210 TXH +3 00000 0 00074
 01211 STA +0 62100 0 01213    01212 TSX +0 07400 4 00012    01213 TXH +3 00000 0 00000    01214 TXH +3 00000 0 00000
 01215 SUB +0 40200 0 00217    01216 TNZ -0 10000 0 01220    01217 TRA +0 02000 0 00033
                 MES9(1)=A(I)                                                       106  LM00150
 01220 LXA +0 53400 2 00107    01221 CLA +0 50000 2 00074    01222 STO +0 60100 0 00212
                 MES9(2)=A(I+1)                                                     107  LM00151
 01223 CLA +0 50000 0 00107    01224 ADD +0 40000 0 00220    01225 PAX +0 73400 2 00000    01226 CLA +0 50000 2 00074
 01227 STO +0 60100 0 00211
                 EXECUTE PRNTP.(MES9)                                               108  LM00152
 01230 TSX +0 07400 4 00011    01231 TXH +3 00000 0 00213
                 FUNCTION RETURN                                                    109  LM00153
 01232 TRA +0 02000 0 01240
                 END OF FUNCTION                                                    110  LM00154
 01233 TSX +0 07400 4 00004    01234 TXH +3 00000 0 00000    01235 SXD -0 63400 1 01234    01236 SXA +0 63400 4 01240
 01237 TRA +0 02000 2 00001    01240 AXT +0 77400 4 00000    01241 LXA +0 53400 2 01234    01242 LXD -0 53400 1 01234
 01243 TRA +0 02000 4 00001
                 VECTOR VALUES MES2=$ FILE$,0,0,$ NOT FOUND$,777777777777K          111  LM00157
 00133     -3 77777 7 77777    00134     -0 66445 2 46060    00135     -2 04546 6 36026    00136     +0 00000 0 00000
 00137     +0 00000 0 00000    00140     -2 02631 4 32560
                 VECTOR VALUES MES3=$ FILE$,0,0,$ NOT DELETED$,777777777777K        112  LM00158
 00141     -3 77777 7 77777    00142     +2 54325 6 32524    00143     -2 04546 6 36024    00144     +0 00000 0 00000
 00145     +0 00000 0 00000    00146     -2 02631 4 32560
                 VECTOR VALUES MES4=$ ERROR IN READING FILE DIRECTORY$,             113  LM00159
                1777777777777K                                                      113  LM00160
 00147     -3 77777 7 77777    00150     -1 17060 6 06060    00151     +3 15125 2 36346    00152     +2 63143 2 56024
 00153     +2 12431 4 52760    00154     -2 03145 6 05125    00155     -2 02551 5 14651
                 VECTOR VALUES MES5(2)=$ INCOMPLETE SET OF ARGUMENTS$,              114  LM00161
                1777777777777K                                                      114  LM00162
 00156     -3 77777 7 77777    00157     +2 54563 6 26060    00160     -2 02151 2 76444    00161     -2 22563 6 04626
 00162     -0 74325 6 32560    00163     -2 03145 2 34644
                 VECTOR VALUES MES6=$ FILE NAME ILLEGAL$,777777777777K              115  LM00163
 00166     -3 77777 7 77777    00167     -0 34325 2 72143    00170     -0 52144 2 56031    00171     -2 02631 4 32560
                 VECTOR VALUES MES7=$ ILLEGAL MODE DEFINITION$,777777777777K        116  LM00164
 00172     -3 77777 7 77777    00173     -0 53163 3 14645    00174     +2 56024 2 52631    00175     +2 14360 4 44624
 00176     -2 03143 4 32527
                 VECTOR VALUES MES8=$ FILE$,0,0,$ MODE NOT CHANGED$,                117  LM00165
                1777777777777K                                                      117  LM00166
 00177     -3 77777 7 77777    00200     +2 14527 2 52460    00201     -0 54663 6 02330    00202     -2 04446 2 42560
 00203     +0 00000 0 00000    00204     +0 00000 0 00000    00205     -2 02631 4 32560
                 VECTOR VALUES MES9=$ FILE$,0,0,$ NOT RENAMED$,777777777777K        118  LM00167
 00206     -3 77777 7 77777    00207     +2 54521 4 42524    00210     -2 04546 6 36051    00211     +0 00000 0 00000
 00212     +0 00000 0 00000    00213     -2 02631 4 32560
                 VECTOR VALUES MES10=$ ILLEGAL USE OF ASTERISK$,777777777777K       119  LM00168
 00111     -3 77777 7 77777    00112     -2 32551 3 16242    00113     -2 04626 6 02162    00114     +2 14360 6 46225
 00115     -2 03143 4 32527
                 VECTOR VALUES MES11(2)=$ IGNORED$,777777777777K                    120  LM00169
 00116     -3 77777 7 77777    00117     +2 52460 6 06060    00120     -2 03127 4 54651
                 VECTOR VALUES MES12=$ NO FILE WITH $,0,$ NAME $,0,$ FOUND$,        121  LM00170
                1777777777777K                                                      121  LM00171
 00123     -3 77777 7 77777    00124     -2 02646 6 44524    00125     +0 00000 0 00000    00126     -2 04521 4 42560
 00127     +0 00000 0 00000    00130     +3 06060 6 06060    00131     -0 32560 6 63163    00132     -2 04546 6 02631
                 VECTOR VALUES ASTRSK=$     *$                                      122  LM00173
 00075     -2 06060 6 06054
                 VECTOR VALUES FENCE=777777777777K                                  123  LM00174
 00103     -3 77777 7 77777
                 NORMAL MODE IS INTEGER                                             124  LM00175
                 DIMENSION A(19),FV(1)                                              125  LM00176
                 END OF PROGRAM                                                     126  LM00177
 01246 TSX +0 07400 4 00004
1                                                                                                PAGE 1
                           FILE NAME -- GETMD FAP

                                             ROUTINE TO CHANGE NMEMONICS FOR MODE TO
                                             OCTAL EQUIVALENTS.
                                             G. SCHROEDER            JUNE,1965
                       00002         ENTRY   GETMOD
                              SAVXR  MACRO
                                     SXA     X1,1
                                     SXA     X2,2
                                     SXA     X4,4
                              SAVXR  END
                              RSTXR  MACRO
                                     LXA     X1,1
                                     LXA     X2,2
                                     LXA     X4,4
                              RSTXR  END

            LINKAGE DIRECTOR
      00000  000000000000
      00001  272563444624

      00002                   GETMOD SAVXR
      00005  0774 00 2 00006         AXT     6,2
      00006  0600 00 0 00040         STZ     MODE
      00007  0560 60 4 00001         LDQ*    1,4
      00010 -0754 00 0 00000  NEXT   ZAC
      00011 -0763 00 0 00006         LGL     6
      00012  0100 00 0 00031         TZE     DECR
      00013 -0340 00 0 00041         LAS     BLANK
      00014  0020 00 0 00016         TRA     *+2
      00015  0020 00 0 00031         TRA     DECR
      00016  0774 00 1 00005         AXT     5,1
      00017 -0340 00 1 00054  CCR    LAS     TABLE+5,1
      00020  0020 00 0 00022         TRA     *+2
      00021  0020 00 0 00027         TRA     GCHAR
      00022  2 00001 1 00017         TIX     CCR,1,1
      00023                          RSTXR
      00026  0020 00 4 00003         TRA     3,4
      00027 -0500 00 1 00047  GCHAR  CAL     CHAR+5,1
      00030 -0602 00 0 00040         ORS     MODE
      00031  2 00001 2 00010  DECR   TIX     NEXT,2,1
      00032                          RSTXR
      00035  0500 00 0 00040         CLA     MODE
      00036  0601 60 4 00001         STO*    1,4
      00037  0020 60 4 00002         TRA*    2,4
      00040  0 00000 0 00000  MODE   PZE     0
      00041 +000000000060     BLANK  OCT     60
      00042 +000000000001     CHAR   OCT     1
      00043 +000000000004            OCT     4
      00044 +000000000010            OCT     10
      00045 +000000000020            OCT     20
      00046 +000000000100            OCT     100
      00047  000000000063     TABLE  BCI     1,00000T      TEMPORARY
      00050  000000000051            BCI     1,00000R      READ-ONLY
      00051  000000000066            BCI     1,00000W      WRITE-ONLY
      00052  000000000065            BCI     1,00000V      PRIVATE
      00053  000000000047            BCI     1,00000P      PROTECTED
1                                                                                                PAGE 2
                           FILE NAME -- GETMD FAP

      00054  0 00000 0 00000  X1     PZE     0
      00055  0 00000 0 00000  X2     PZE     0
      00056  0 00000 0 00000  X4     PZE     0
                                     END
1                                                                                                PAGE 1
                        POST PROCESSOR ASSEMBLY DATA

         57 IS THE FIRST LOCATION NOT USED BY THIS PROGRAM

0REFERENCES TO DEFINED SYMBOLS
         54     X1     2,   23,   32
         55     X2     3,   24,   33
         56     X4     4,   25,   34
         17    CCR    22
         42   CHAR    27
         31   DECR    12,   15
         40   MODE     6,   30,   35
         10   NEXT    31
         41  BLANK    13
         27  GCHAR    21
         47  TABLE    17
          2 GETMOD     0

0 NO ERROR IN ABOVE ASSEMBLY.


COMFIL   BCD 09/18/68 2206.0     403         00000
1                                                                                                PAGE 1
                           FILE NAME -- COMFL FAP


                                             COMFIL --- SWITCH USER TO SPECIFIED COMMON FILE

      00000  0074 00 4 00013         TSX     GETCOM,4      GET PARAMETER
      00001  0 00000 0 00001         PZE     1             FIRST ARGUMENT

      00002 -0320 00 0 00017         ANA     =O77          REMOVE ALL BUT FIRST CHARACTER
      00003  0602 00 0 00016         SLW     TEMP          ..
      00004  0402 00 0 00017         SUB     =O77          CHECK FOR FENCE
      00005  0100 00 0 00007         TZE     *+2           FENCE = 0
      00006 -0500 00 0 00016         CAL     TEMP          ..
      00007  0074 00 4 00014         TSX     COMFIL,4      SWITCH DIRECTORY
      00010  0000 00 0 00010         HTR     *             (1,4) RETURN NOT USED CURRENTLY
      00011  0074 00 4 00015         TSX     CHNCOM,4      END OF COMMAND
      00012  0 00000 0 00000         PZE                   ..

      00013  0101 00 0 00022  GETCOM TIA     =HGETCOM      ..
      00014  0101 00 0 00021  COMFIL TIA     =HCOMFIL      ..
      00015  0101 00 0 00020  CHNCOM TIA     =HCHNCOM      ..

      00016  0 00000 0 00000  TEMP   PZE                   ..

                                     END

        LITERALS
      00017  000000000077
      00020  233045234644
      00021  234644263143
      00022  272563234644
1                                                                                                PAGE 1
                        POST PROCESSOR ASSEMBLY DATA

         23 IS THE FIRST LOCATION NOT USED BY THIS PROGRAM

0REFERENCES TO DEFINED SYMBOLS
         16   TEMP     3,    6
         15 CHNCOM    11
         14 COMFIL     7
         13 GETCOM     0

0 NO ERROR IN ABOVE ASSEMBLY.


DELFIB   BCD 10/04/70 1548.8    3996         00000
1     MAD PROGRAM LISTING ... ... ...                 FILE  DELFIB   MAD            05/04/69    1507.9
-
       DELFIB         DELETE A FIB JOB.                                                                LM00001
                                                                                                       LM00002
                      3/9/66 - NOEL I. MORRIS                                                          LM00003
                                                                                                       LM00004
                                                                                                       LM00005
                  NORMAL MODE IS INTEGER                                                          *001 LM00006
                  DIMENSION CARD (13), BUFF1 (431), BUFF2 (431)                                   *002 LM00007
                                                                                                       LM00008
                      PRESET DECLARATIONS.                                                             LM00009
                                                                                                       LM00010
                  VECTOR VALUES FIBJOB = $FIBJOB$                                                 *003 LM00011
                  VECTOR VALUES   FILE = $  FILE$                                                 *004 LM00012
                  VECTOR VALUES  C0056 = $ C0056$                                                 *005 LM00013
                  VECTOR VALUES FIBMON = $ 99995$                                                 *006 LM00014
                  VECTOR VALUES     RW = $RW$                                                     *007 LM00015
                  VECTOR VALUES RELLOC = 1                                                        *008 LM00016
                  VECTOR VALUES  FENCE = 777777777777K                                            *009 LM00017
                  VECTOR VALUES    MZE = -0                                                       *010 LM00018
                                                                                                       LM00019
                  EQUIVALENCE (PROBN, NOJOB (5)), (PROGN, NOJOB (6)),                             *011 LM00020
                1      (JOBNAM, NOJOB (1))                                                        *011 LM00021
                                                                                                       LM00022
                                                                                                       LM00023
                      PICK UP JOB NAME AND SET UP.                                                     LM00024
                                                                                                       LM00025
                  JOBNAM = COMARG. (1)                                                            *012 LM00026
                  WHENEVER JOBNAM .E. FENCE                                                       *013 LM00027
                       PRNTP. (USAGE)                                                             *014 LM00028
                       VECTOR VALUES USAGE = $ USAGE IS 'DELFIB  JOBNAM' .$,                      *015 LM00029
                1           777777777777K                                                         *015 LM00030
                       TRANSFER TO CHN                                                            *016 LM00031
                  END OF CONDITIONAL                                                              *017 LM00032
                                                                                                       LM00033
                  WHOAMI. (CARD (1) ... 2)                                                        *018 LM00034
                  PROBN = CARD (1)                                                                *019 LM00035
                  PROGN = CARD                                                                    *020 LM00036
                                                                                                       LM00037
                  FERRTN. (ERROR)                                                                 *021 LM00038
                                                                                                       LM00039
                                                                                                       LM00040
                      LINK TO FIBJOB FILE AND SEARCH FOR USER'S JOB.                                   LM00041
                                                                                                       LM00042
                  LINK. (FIBJOB, FILE, C0056, FIBMON, MZE, MZE, 120K, ERR1)                       *022 LM00043
                  BFOPEN. (RW, FIBJOB, FILE, BUFF1 (431), MZE, MZE, ERR1)                         *023 LM00044
                  UNLINK. (FIBJOB, FILE)                                                          *024 LM00045
                                                                                                       LM00046
      READ        BFREAD. (FIBJOB, FILE, CARD (13) ... 14, NOTFND, CT, ERROR)                     *025 LM00047
                  RELLOC = RELLOC + 14                                                            *026 LM00048
                                                                                                       LM00049
                  WHENEVER  CARD (13) .NE. PROBN .OR.                                             *027 LM00050
                1      CARD (11) .NE. PROGN .OR.                                                  *027 LM00051
                2      CARD (10) .NE. JOBNAM,                                                     *027 LM00052
                3           TRANSFER TO READ                                                      *027 LM00053
                                                                                                       LM00054
                                                                                                       LM00055
                      CARD FOUND.  REWRITE FILE DELETING IT.                                           LM00056
                                                                                                       LM00057
                  BUFFER. (FIBJOB, FILE, BUFF2 (431) ... 432)                                     *028 LM00058
                                                                                                       LM00059
      RWLOOP      BFREAD. (FIBJOB, FILE, CARD (13) ... 14, RWFIN, CT, ERROR)                      *029 LM00060
                  WRWAIT. (FIBJOB, FILE, RELLOC - 14, CARD (13) ... 14)                           *030 LM00061
                                                                                                       LM00062
                  RELLOC = RELLOC + 14                                                            *031 LM00063
                  TRANSFER TO RWLOOP                                                              *032 LM00064
                                                                                                       LM00065
      RWFIN       TRFILE. (FIBJOB, FILE, RELLOC - 14, TRERR)                                      *033 LM00066
                                                                                                       LM00067
      TRERR       CONTINUE                                                                        *034 LM00068
      CLOS        BFCLOS. (FIBJOB, FILE, ERROR)                                                   *035 LM00069
      CHN         CHNCOM. (0)                                                                     *036 LM00070
                                                                                                       LM00071
                                                                                                       LM00072
                      FILE SYSTEM ERROR ENCOUNTERED.                                                   LM00073
                                                                                                       LM00074
      ERR1        UNLINK. (FIBJOB, FILE)                                                          *037 LM00075
      ERROR       DSKER.                                                                          *038 LM00076
                                                                                                       LM00077
                                                                                                       LM00078
                      FIB JOB NOT FOUND.                                                               LM00079
                                                                                                       LM00080
      NOTFND      PRNTP. (NOJOB)                                                                  *039 LM00081
                  VECTOR VALUES NOJOB = $ JOB  000000  NOT FOUND FOR   000000000000.$,            *040 LM00082
                1      777777777777K                                                              *040 LM00083
                  TRANSFER TO CLOS                                                                *041 LM00084
                                                                                                       LM00085
                                                                                                       LM00086
                                                                                                       LM00087
                  END OF PROGRAM                                                                  *042 LM00088
1MAD PROGRAM,TYPE NOV 1963      (ALL NUMBERS ARE OCTAL)
0TOTAL LOCATIONS   02021 TRANSFER VECTOR LENGTH  00020 PROGRAM BEGINS    01647
0VARIABLE STORAGE (A=ARRAY,C=COMMON,E=ERASABLE,DIGIT=MODE)
      BUFF1  00722 A 1        CT     01622   1        FIBMON 01625 A 1        NOTFND 00036   4        RWFIN  00040   4
      BUFF2  01602 A 1        ERR1   00034   4        FILE   01626 A 1        PROBN  00024   1        RWLOOP 00041   4
      C0056  01603 A 1        ERROR  00035   4        JOBNAM 00030   1        PROGN  00023   1        RW     01631 A 1
      CARD   01621 A 1        FENCE  01623 A 1        MZE    01627 A 1        READ   00037   4        TRERR  00042   4
      CHN    00032   4        FIBJOB 01624 A 1        NOJOB  00031 A 1        RELLOC 01630 A 1        USAGE  01637 A 1
      CLOS   00033   4
0FUNCTION DICTIONARY
      BFCLOS 00000   1        BFOPEN 00001   1        BFREAD 00002   1        BUFFER 00003   1        CHNCOM 00004   1
      COMARG 00005   1        DSKER  00006   1        EXIT   00007   1        FERRTN 00010   1        .SETUP 00011   1
      LINK   00012   1        PRNTP  00013   1        TRFILE 00014   1        UNLINK 00015   1        WHOAMI 00016   1
      WRWAIT 00017   1
0ABSOLUTE CONSTANTS
 01640 +000000000000     01645 +000000000660     01643 +000000000016     01644 +000000000120     01642 +000000000002
 01641 +000000000001     01646 +233000000000
0STATEMENT DICTIONARY
 00032 TXL -302006002004       00033 TXL -302004002000       00034 TXL -302011002006       00035 TXL -302012002011
 00036 TXL -302014002012       00037 TXL -301724001715       00040 TXL -302000001770       00041 TXL -301754001745
 00042 TXL -302000002000
0PROGRAM
                 N'R                                                                001  LM00006
                 D'N CARD (13), BUFF1 (431), BUFF2 (431)                            002  LM00007
                 V'S FIBJOB = $FIBJOB$                                              003  LM00011
 01647 TSX +0 07400 4 00011    01624     +2 63122 4 14622
                 V'S   FILE = $  FILE$                                              004  LM00012
 01626     -2 06026 3 14325
                 V'S  C0056 = $ C0056$                                              005  LM00013
 01603     -2 02300 0 00506
                 V'S FIBMON = $ 99995$                                              006  LM00014
 01625     -2 01111 1 11105
                 V'S     RW = $RW$                                                  007  LM00015
 01631     -1 16660 6 06060
                 V'S RELLOC = 1                                                     008  LM00016
 01630     +0 00000 0 00001
                 V'S  FENCE = 777777777777K                                         009  LM00017
 01623     -3 77777 7 77777
                 V'S    MZE = -0                                                    010  LM00018
 01627     -0 00000 0 00000
                 E'E (PROBN, NOJOB (5)), (PROGN, NOJOB (6)),                        011  LM00020
                1     (JOBNAM, NOJOB (1))                                           011  LM00021
                 JOBNAM = COMARG. (1)                                               012  LM00026
 01650 TSX +0 07400 4 00005    01651 TXH +3 00000 0 01641    01652 STO +0 60100 0 00030
                 W'R JOBNAM .E. FENCE                                               013  LM00027
 01653 CLA +0 50000 0 00030    01654 SUB +0 40200 0 01623    01655 TNZ -0 10000 0 01661
                      PRNTP. (USAGE)                                                014  LM00028
 01656 TSX +0 07400 4 00013    01657 TXH +3 00000 0 01637
                      V'S USAGE = $ USAGE IS 'DELFIB  JOBNAM' .$,                   015  LM00029
                1          777777777777K                                            015  LM00030
 01632     -3 77777 7 77777    01633     -0 41460 3 36060    01634     -2 04146 2 24521    01635     +2 54326 3 12260
 01636     -2 03162 6 01424    01637     -2 06462 2 12725
                      T'O CHN                                                       016  LM00031
 01660 TRA +0 02000 0 00032
                 E'L                                                                017  LM00032
                 WHOAMI. (CARD (1) ... 2)                                           018  LM00034
 01661 TSX +0 07400 4 00016    01662 TIX +2 01642 0 01620
                 PROBN = CARD (1)                                                   019  LM00035
 01663 CLA +0 50000 0 01620    01664 STO +0 60100 0 00024
                 PROGN = CARD                                                       020  LM00036
 01665 CLA +0 50000 0 01621    01666 STO +0 60100 0 00023
                 FERRTN. (ERROR)                                                    021  LM00038
 01667 TSX +0 07400 4 00010    01670 TXH +3 00000 0 00035
                 LINK. (FIBJOB, FILE, C0056, FIBMON, MZE, MZE, 120K, ERR1)          022  LM00043
 01671 TSX +0 07400 4 00012    01672 TXH +3 00000 0 01624    01673 TXH +3 00000 0 01626    01674 TXH +3 00000 0 01603
 01675 TXH +3 00000 0 01625    01676 TXH +3 00000 0 01627    01677 TXH +3 00000 0 01627    01700 TXH +3 00000 0 01644
 01701 TXH +3 00000 0 00034
                 BFOPEN. (RW, FIBJOB, FILE, BUFF1 (431), MZE, MZE, ERR1)            023  LM00044
 01702 TSX +0 07400 4 00001    01703 TXH +3 00000 0 01631    01704 TXH +3 00000 0 01624    01705 TXH +3 00000 0 01626
 01706 TXH +3 00000 0 00043    01707 TXH +3 00000 0 01627    01710 TXH +3 00000 0 01627    01711 TXH +3 00000 0 00034
                 UNLINK. (FIBJOB, FILE)                                             024  LM00045
 01712 TSX +0 07400 4 00015    01713 TXH +3 00000 0 01624    01714 TXH +3 00000 0 01626
      READ       BFREAD. (FIBJOB, FILE, CARD (13) ... 14, NOTFND, CT, ERROR)        025  LM00047
 01715 TSX +0 07400 4 00002    01716 TXH +3 00000 0 01624    01717 TXH +3 00000 0 01626    01720 TIX +2 01643 0 01604
 01721 TXH +3 00000 0 00036    01722 TXH +3 00000 0 01622    01723 TXH +3 00000 0 00035
                 RELLOC = RELLOC + 14                                               026  LM00048
 01724 CLA +0 50000 0 01630    01725 ADD +0 40000 0 01643    01726 STO +0 60100 0 01630
                 W'R  CARD (13) .NE. PROBN .OR.                                     027  LM00050
                1     CARD (11) .NE. PROGN .OR.                                     027  LM00051
                2     CARD (10) .NE. JOBNAM,                                        027  LM00052
                3          T'O READ                                                 027  LM00053
 01727 CLA +0 50000 0 01607    01730 SUB +0 40200 0 00030    01731 TNZ -0 10000 0 01740    01732 CLA +0 50000 0 01606
 01733 SUB +0 40200 0 00023    01734 TNZ -0 10000 0 01740    01735 CLA +0 50000 0 01604    01736 SUB +0 40200 0 00024
 01737 TZE +0 10000 0 01741    01740 TRA +0 02000 0 00037
                 BUFFER. (FIBJOB, FILE, BUFF2 (431) ... 432)                        028  LM00058
 01741 TSX +0 07400 4 00003    01742 TXH +3 00000 0 01624    01743 TXH +3 00000 0 01626    01744 TIX +2 01645 0 00723
      RWLOOP     BFREAD. (FIBJOB, FILE, CARD (13) ... 14, RWFIN, CT, ERROR)         029  LM00060
 01745 TSX +0 07400 4 00002    01746 TXH +3 00000 0 01624    01747 TXH +3 00000 0 01626    01750 TIX +2 01643 0 01604
 01751 TXH +3 00000 0 00040    01752 TXH +3 00000 0 01622    01753 TXH +3 00000 0 00035
                 WRWAIT. (FIBJOB, FILE, RELLOC - 14, CARD (13) ... 14)              030  LM00061
 01754 CLA +0 50000 0 01630    01755 SUB +0 40200 0 01643    01756 STO +0 60100 0 02016    01757 TSX +0 07400 4 00017
 01760 TXH +3 00000 0 01624    01761 TXH +3 00000 0 01626    01762 TXH +3 00000 0 02016    01763 TIX +2 01643 0 01604
                 RELLOC = RELLOC + 14                                               031  LM00063
 01764 CLA +0 50000 0 01630    01765 ADD +0 40000 0 01643    01766 STO +0 60100 0 01630
                 T'O RWLOOP                                                         032  LM00064
 01767 TRA +0 02000 0 00041
      RWFIN      TRFILE. (FIBJOB, FILE, RELLOC - 14, TRERR)                         033  LM00066
 01770 CLA +0 50000 0 01630    01771 SUB +0 40200 0 01643    01772 STO +0 60100 0 02016    01773 TSX +0 07400 4 00014
 01774 TXH +3 00000 0 01624    01775 TXH +3 00000 0 01626    01776 TXH +3 00000 0 02016    01777 TXH +3 00000 0 00042
      TRERR      C'E                                                                034  LM00068
      CLOS       BFCLOS. (FIBJOB, FILE, ERROR)                                      035  LM00069
 02000 TSX +0 07400 4 00000    02001 TXH +3 00000 0 01624    02002 TXH +3 00000 0 01626    02003 TXH +3 00000 0 00035
      CHN        CHNCOM. (0)                                                        036  LM00070
 02004 TSX +0 07400 4 00004    02005 TXH +3 00000 0 01640
      ERR1       UNLINK. (FIBJOB, FILE)                                             037  LM00075
 02006 TSX +0 07400 4 00015    02007 TXH +3 00000 0 01624    02010 TXH +3 00000 0 01626
      ERROR      DSKER.                                                             038  LM00076
 02011 TSX +0 07400 4 00006
      NOTFND     PRNTP. (NOJOB)                                                     039  LM00081
 02012 TSX +0 07400 4 00013    02013 TXH +3 00000 0 00031
                 V'S NOJOB = $ JOB  000000  NOT FOUND FOR   000000000000.$,         040  LM00082
                1     777777777777K                                                 040  LM00083
 00021     -3 77777 7 77777    00022     +3 36060 6 06060    00023     +0 00000 0 00000    00024     +0 00000 0 00000
 00025     +2 64651 6 06060    00026     +2 64664 4 52460    00027     -2 06045 4 66360    00030     +0 00000 0 00000
 00031     -2 04146 2 26060
                 T'O CLOS                                                           041  LM00084
 02014 TRA +0 02000 0 00033
                 E'M                                                                042  LM00088
 02015 TSX +0 07400 4 00007


  DIAL   BCD 10/04/70 1548.8    3056         00000
