1                    MAD I FOR CTSS ... R M GRAHAM ... FEB 1964                  03/15/69 1107.8 PAGE 1

                              *      TO PRODUCE COMMAND, DO
                              *         FAP MAD01
                              *         FAP MAD02
                              *         FAP MAD03
                              *         COMBIN * MAD ABS MAD01 MAD02 MAD03
                              *         LDABS MAD
                              *         SAVE MAD
                              *         RENAME MAD SAVED MAD TSSDC.
                              *
                                     ABS
             2 00016 1 20000  BLK    OPD     200016120000
             3 00011 1 20000  PAR    OPD     300011120000
             3 00011 1 20000  TXH    OPD     300011120000
             3 00013 5 20050  IOBT   OPSYN   IORT
            -0634 11 1 60000  ZDC    OPSYN   ZSD
             0634 11 1 20000  ZAD    OPSYN   ZSA
            -3 00011 1 60000  BRANCH OPSYN   BRA


                              *              MICHIGAN ALGORITHM DECODER


                              *              PART I OF TRANSLATION


                      000144  GETMAD BOOL    144           ORIGIN OF COMMUNICATION REGION
                      016350  PARTI  BOOL    16350
                       16040  MTXLNG EQU     7200          LENGTH OF MATRIX
                       03410  MTXBUF EQU     MTXLNG/4      LENGTH OF MTX BUFFER
                       01130  MARKER EQU     600           AMOUNT OF MTX FOR MAX STMT
                      100000  XP.    BOOL    100000
                      200000  FL.    BOOL    200000
                      300000  TM.    BOOL    300000
                      400000  VR.    BOOL    400000
                      500000  CN.    BOOL    500000
                      500001  IC.    BOOL    500001
                      600000  IP.    BOOL    600000
                      700000  FN.    BOOL    700000
                      000040  LMI.   BOOL    40
                      000020  LPL.   BOOL    20
                      000073  LCM.   BOOL    73
                      000063  T.     BOOL    63
                      000015  RT.    BOOL    15
                      000005  EQ.    BOOL    5
                      000052  RP.    BOOL    52
                      000053  LP.    BOOL    53
                      000026  CM.    BOOL    26
                      000054  RC.    BOOL    54
                      000055  LC.    BOOL    55
                      000063  BL.    BOOL    63
                      000103  FNOP.  BOOL    103
                      000013  LEQ.   BOOL    13
1                    MAD I FOR CTSS ... R M GRAHAM ... FEB 1964                  03/15/69 1107.8 PAGE 2

                      000054  LST.   BOOL    54
                      000030  H.     BOOL    30
                      000043  L.     BOOL    43
                      000062  S.     BOOL    62
                      000033  LPT.   BOOL    33
                      000053  LDS.   BOOL    53
                      000060  BLK.   BOOL    60
                      000074  LPRN.  BOOL    74
                      000034  RPRN.  BOOL    34
                      000014  LPRIM. BOOL    14
                       01440  MST.C  EQU     800           CMST TABLE SIZE
                       00310  PLT.C  EQU     200           PLT TABLE SIZE
                       00400  TT.C   EQU     256           CTT TABLE SIZE
                       01212  ABC.C  EQU     650           CABC TABLE SIZE
                       01130  MT.C   EQU     600           MT TABLE SIZE
                       01130  DIM.C  EQU     600           DIM TABLE SIZE
                       01212  ET.C   EQU     650           ET TABLE SIZE
                       00310  ERS.C  EQU     200           ERS TABLE SIZE
                       00454  PCT.C  EQU     300           PCT TABLE SIZE
                       00062  IFT.C  EQU     50            IFT TABLE SIZE
                       00310  SCPT.C EQU     200           SCPT TABLE SIZE
                       01147  L1     EQU 615                LENGTH OF S
                       00074  L3     EQU     60            LENGTH OF FOR
                       00310  L7     EQU     200           LENGTH OF V
                       00113  L15    EQU     75            LENGTH OF CPY
                       00050  L17    EQU     40            LENGTH OF PL
                       00074  L18    EQU     60            LENGTH OF STLREG
                       00014  L32    EQU 12                 LENGTH OF DIC
                       00062  L35    EQU     50            LENGTH OF IF
                       00144  L42    EQU 100                MAX NR EQUIV GROUPS
                       00124  L53    EQU     84            LENGTH OF XPL
                       00036  L62    EQU 30                 MAX NUMBER OF DEFINED OPNS
1                    MAD I FOR CTSS ... R M GRAHAM ... FEB 1964                  03/15/69 1107.8 PAGE 3

                              *              MACRO DEFINITIONS


                              ERROR  MACRO   N,A
                                     IFF     1,,A
                                     STR     ER'N,,ER'N'X-ER'N
                                     IFF     0,,A
                                     STR     ER'N,1,ER'N'X-ER'N
                              ERROR  END


                              MTXROW MACRO   A1,A2,A3
                                     CALL    MTRX
                                     PAR     A1
                                     PAR     A2
                                     PAR     A3
                              MTXROW END


                              DEFN   MACRO   X
                                     IRP     X
                              X      MACRO
                                     CALL    X
                              X      END
                                     IRP
                              DEFN   END


                              DFTB   MACRO   X
                                     IRP     X
                              X      MACRO   Y1,Y2,Y3
                                     IFF     0,,Y1
                                     LDQ     Y1
                                     CALL    P'X'R
                                     IFF     0,,Y2
                                     LDQ     Y2
                                     IFF     0,,Y2
                                     CALL    P'X'R
                                     IFF     0,,Y3
                                     LDQ     Y3
                                     IFF     0,,Y3
                                     CALL    P'X'R
                              X      END
                                     IRP
                              DFTB   END


                              STMTDC MACRO   A,C,L,G
                                     BCI     1,A
                                     IFF     0,,G
                                     VFD     6/0,H6/L,6/C,18/G
                                     IFF     1,,G
                                     VFD     12/0,6/C,18/P3
                              STMTDC END
1                    MAD I FOR CTSS ... R M GRAHAM ... FEB 1964                  03/15/69 1107.8 PAGE 4

                              TCTRA  MACRO   X
                                     ZAC
                                     IFF     0,,X
                                     LDQ     X
                                     CALL    CDLTRA
                              TCTRA  END


                              FCTRA  MACRO   X
                                     CLA     =1
                                     IFF     0,,X
                                     LDQ     X
                                     CALL    CDLTRA
                              FCTRA  END


                              CHR    MACRO   A,B
                                     IFF     0,,B
                                     PZE     A,4,B
                                     IFF     1,,B
                                     PZE     TY1,,TY1
                              CHR    END


                              OPCODE MACRO   PREC,TYPE,UNFL
                                     IFF     0,,UNFL
                                     VFD     17/TYPE,1/1,4/PREC
                                     IFF     1,,UNFL
                                     VFD     17/TYPE,1/0,4/PREC
                              OPCODE END


                              STORE  MACRO   T
                                     CALL    STORE
                                     BLK     T,,T'.C
                              STORE  END


                              DUMMY  MACRO   X
                                     IFF     0,,X
                                     CLA     X
                                     CALL    DUMMY
                              DUMMY  END


                              ADDANL MACRO   X
                                     IFF     0,,X
                                     CLA     X
                                     CALL    ADDANL
                              ADDANL END


                              GENTST MACRO   NAME,ZOP,XOP,MSK,CON
                              NAME   MACRO   X,C1,T1,C2,T2,C3,T3,C4,T4,F
                                     LDI     X
                                     IFF     0,,T2
1                    MAD I FOR CTSS ... R M GRAHAM ... FEB 1964                  03/15/69 1107.8 PAGE 5

                                     GTST1   ZOP,CON,C1,T1,C2,T2,C3,T3,C4,T4,F
                                     IFF     1,,T2
                                     GTST2   ZOP,XOP,MSK,CON,C1,T1,C2
                              NAME   END
                              GENTST END


                              GTST1  MACRO   ZOP,CON,C1,T1,C2,T2,C3,T3,C4,T4,F
                                     CAL     CON
                                     ZOP     C1
                                     TIF     T1
                                     ZOP     C2-C1
                                     TIF     T2
                                     IFF     0,,T3
                                     GTST3   ZOP,C2,C3,T3,C4,T4,F
                                     IFF     1,,T3
                                     GTST4   C3
                              GTST1  END


                              GTST3  MACRO   ZOP,C2,C3,T3,C4,T4,F
                                     ZOP     C3-C2
                                     TIF     T3
                                     IFF     0,,T4
                                     GTST5   ZOP,C3,C4,T4,F
                                     IFF     1,,T4
                                     GTST4   C4
                              GTST3  END


                              GTST5  MACRO   ZOP,C3,C4,T4,F
                                     ZOP     C4-C3
                                     TIF     T4
                                     GTST4   F
                              GTST5  END


                              GTST4  MACRO   F
                                     IFF     1,,F
                                     ERROR   15
                                     IFF     0,,F
                                     TRA     F
                              GTST4  END


                              GTST2  MACRO   ZOP,XOP,MSK,CON,C1,T1,C2
                                     IFF     0,XX,C2
                                     GTST6   ZOP,XOP,MSK,C1,T1,C2
                                     IFF     1,XX,C2
                                     GTST7   ZOP,XOP,MSK,CON,C1,T1
                              GTST2  END
1                    MAD I FOR CTSS ... R M GRAHAM ... FEB 1964                  03/15/69 1107.8 PAGE 6

                              GTST6  MACRO   ZOP,XOP,MSK,C1,T1,C2
                                     ZOP     C1
                                     XOP     MSK
                                     IFF     1,,C2
                                     ERROR   15
                                     IFF     0,,C2
                                     TRA     C2
                                     IFF     1,,C2
                                     GTST8   T1
                                     IFF     0,,C2
                                     GTST9   T1
                              GTST6  END


                              GTST8  MACRO   T1
                                     IFF     0,,T1
                                     TRA     T1
                              GTST8  END


                              GTST9  MACRO   T1
                                     IFF     1,,T1
                                     ERROR   15
                                     IFF     0,,T1
                                     GTST15  T1
                              GTST9  END


                              GTST15 MACRO   T1
                                     IFF     0,XX,T1
                                     TRA     T1
                              GTST15 END


                              GTST7  MACRO   ZOP,XOP,MSK,CON,C1,T1
                                     IFF     0,,T1
                                     GTST11  ZOP,CON,C1,T1
                                     IFF     1,,T1
                                     GTST12  ZOP,XOP,MSK,C1
                              GTST7  END


                              GTST11 MACRO   ZOP,CON,C1,T1
                                     CAL     CON
                                     ZOP     C1
                                     TIF     T1
                              GTST11 END


                              GTST12 MACRO   ZOP,XOP,MSK,C1
                                     ZOP     C1
                                     XOP     MSK
                                     TRA     *+2
                                     ERROR   15
                              GTST12 END
1                    MAD I FOR CTSS ... R M GRAHAM ... FEB 1964                  03/15/69 1107.8 PAGE 7

                              OPND   MACRO   X
                                     LDQ     ='X
                                     CALL    OPND
                              OPND   END


                              SPRINT MACRO   A,B
                                     TSX     SPRINT,4
                                     PZE     A,,B
                              SPRINT END


                              SDUMP  MACRO   A,B
                                     TSX     SDUMP,4
                                     PZE     A,,B
                              SDUMP  END


                              TTSET  MACRO   X
                                     TTT     X
                                     ORA     .FN
                                     SLW     X24
                              TTSET  END


                              ABREV  MACRO   ABRV,CNT,LOCA
                                     VFD     H12/ABRV,6/CNT,18/LOCA
                              ABREV  END


      00000                          DFTB    (MST,TTT,ABC,ETT,PLT,MTT,DIM,ERS,PCT,IFT,SCPT)
 M                            ETT    MACRO   Y1,Y2,Y3                                                         .001
 M                            IFT    MACRO   Y1,Y2,Y3                                                         .001
      00000                          DEFN    (CMPMTX,GENER,DICTRY,DSCAN,SET,TSTSC,PRLIST)
 M                            SET    MACRO                                                                    .001
      00000                          DEFN    (TYPE,LOOP,CPYN,CPYBAK,CM1,LOOPFL,LOOPSC)
      00000                          DEFN    (GETDF,GTMODE,GTOPNC,GETDFX,ITGR,NAM,ADR)
      00000                          GENTST  TSTOPN,IIR,RFT,77777,=O77777
      00000                          GENTST  TSTCLS,IIL,LFT,700000,=O700000000000
      00000                          GENTST  TSTCON,IIL,LFT,777777,=O777777000000
1                    MAD I FOR CTSS ... R M GRAHAM ... FEB 1964                  03/15/69 1107.8 PAGE 8

                              *              COMMUNICATION REGION AND PARAMETERS LEFT BY GETMAD
                                             NEEDED FOR SETTING MAD AS COMMAND
                      000024  COMORG BOOL    24            LOCATION FOR STARTING COMMAND
                       00024         ORG     COMORG
      00024  0021 00 0 00144         TTR     PASS1


                       00144         ORG    GETMAD
      00144  0020 00 0 16350  PASS1  TRA     START.
      00145                   PASS2  BSS     1
      00146                   PASS3  BSS     1
      00147                   SDUMP  BSS     1
      00150                   SEARCH BSS     1
      00151                   INSERT BSS     1
      00152                   IDNOW  BSS     1
      00153                   SSSSW  BSS     1
      00154                   STFLAD BSS     1             FLAD OF SYMBOL TABLE IF USED
      00155                   EQ.CT  BSS     1             NUMBER OF EQUIVALENCE GROUPS
      00156                   NORMD  BSS     1             NORMAL MODE (INITIALLY FLOATING POINT)
      00157                   CONF   BSS     1
      00160                   CON1   BSS     1
      00161                   COMLOC BSS     1
      00162                   TVSTRT BSS     1
      00163                   UPBRK  BSS     1
      00164                   PRSTRT BSS     1
      00165                   SUCCES BSS     1
      00166                   UNSCCS BSS     1
      00167                   HICOM. BSS     1
      00170                   PRGTVS BSS     1
      00171                   MTXOVF BSS     1
      00172                   SPRINT BSS     1
      00173                   P.FNAM BSS     1
      00174  0 00000 0 00000  LIST.F PZE     0             SWITCH, SET TO '   BCD' FOR LISTING
      00175                   SYM.FL BSS     1
      00176  0 00000 0 00000  SYMFSW PZE     0             SWITCH, SET TO 'SYMTAB' FOR SYMBOL TABLE
      00177                   RESETF BSS     1
      00200                   CHNCOM BSS     1
      00201                   DELFIL BSS     1
      00202                   WRFLX  BSS     1
      00203                   RDFLX  BSS     1
      00204                   CHNXIT BSS     1
      00205                   SETMEM BSS     1
      00206                   (BFOPN BSS     1
      00207                   (BFRD  BSS     1
      00210                   (BFWR  BSS     1
      00211                   (BFCL  BSS     1
      00212                   (BFCOD BSS     1
      00213                   (EOFCT BSS     1
      00214                   GETCOM BSS     1
      00215                   TTYOUT BSS     1
1                    MAD I FOR CTSS ... R M GRAHAM ... FEB 1964                  03/15/69 1107.8 PAGE 9

                       77777  TABLES SYN     -1
                       77120  WB1    SYN     -432
                       76240  WB2    SYN     WB1-432
                       75360  B1     SYN     WB2-432
                       74500  B2     SYN     B1-432
                       73620  RB1    SYN     B2-432
                       72740  RB2    SYN     RB1-432
                       72737  MST    SYN     RB2-1
                       71276  TT     SYN     MST-MST.C-1
                       70675  ABC    SYN     TT-TT.C-1
                       67462  PLT    SYN     ABC-ABC.C-1
                       00620  CDIMTB EQU     400
                       67151  CDIM   SYN     PLT-PLT.C-1
                       66330  CDIM.  SYN     CDIM-CDIMTB-1
                       65507  INST   SYN     CDIM.-CDIMTB-1
                       47446  MTX    SYN     INST-MTXLNG-1 MATRIX
                       62077  MTXB   SYN     INST-MTXBUF
                       56467  MTXA   SYN     MTXB-MTXBUF


                       47445  ERS    SYN     MTX-1         PART I-II TABLES
                       47134  MT     SYN     ERS-ERS.C-1
                       46003  DIM    SYN     MT-MT.C-1
                       44652  PCT    SYN     DIM-DIM.C-1
                       44175  IFT    SYN     PCT-PCT.C-1
                       44112  SCPT   SYN     IFT-IFT.C-1
                       43601  ET     SYN     SCPT-SCPT.C-1


                       42351  BUFFER SYN     ET-ET.C-14    PARTI WORKING STORE
                       42336  LINE   SYN     BUFFER-11
                       42314  RD     SYN     LINE-18
                       42313  RDX    SYN     RD-1
                       42271  RDA    SYN     RDX-18
                       42270  STLREG SYN     RDA-1
                       42173  IF     SYN     STLREG-L18-1
                       42110  PL     SYN     IF-L35-1
                       41530  V      SYN     PL-L17-L7
                       41526  FOR    SYN     V-2
                       41317  CPY    SYN     FOR-L3-L15
                       41316  XPL    SYN     CPY-1
                       40023  S      SYN     XPL-L53-L1
                       40023  L      SYN     S
                       40023  E      SYN     S
                       40007  DIC    SYN     S-L32
                       37127  BB1    SYN     DIC-432
                       36247  BB2    SYN     BB1-432
1                    MAD I FOR CTSS ... R M GRAHAM ... FEB 1964                  03/15/69 1107.8 PAGE 10

                       16350         ORG     PARTI
      16350  0500 00 0 32446  START. CLA     =O77777
      16351  0074 00 4 00205         TSX     SETMEM,4
      16352  0074 00 4 00214         TSX     GETCOM,4
      16353  0 00000 0 00001         PZE     1
      16354  0602 00 0 00173         SLW     P.FNAM
      16355  0602 00 0 16366         SLW     F..MAD
      16356  0602 00 0 00175         SLW     SYM.FL
      16357  0602 00 0 16374         SLW     LSTFIL
      16360  0602 00 0 16376         SLW     SYMFIL
      16361  0322 00 0 16440         ERA     FENCE.
      16362 -0100 00 0 16400         TNZ     OK
      16363  0074 00 4 00215         TSX     TTYOUT,4
      16364  0 00003 0 16371         PZE     NOPRIM,,3
      16365  0020 00 0 00200         TRA     CHNCOM
      16366  0 00000 0 00000  F..MAD PZE
      16367  606060442124            BCI     1,   MAD
      16370  0101 00 0 32576  (LFTM) TIA     =H(LFTM)
      16371  263143256045     NOPRIM BCI     3,FILE NAME MISSING.
      16374  264521442501     LSTFIL BCI     2,FNAME1   BCD
      16376  264521442501     SYMFIL BCI     2,FNAME1SYMTAB

      16400  0074 00 4 00206  OK     TSX     (BFOPN,4
      16401  3 00000 0 32542         TXH     =HR
      16402  3 00000 0 16366         TXH     F..MAD
      16403  3 00000 0 16367         TXH     F..MAD+1
      16404  3 00000 0 73620         TXH     RB1
      16405  3 00000 0 72740         TXH     RB2
      16406  3 00000 0 32537         TXH     =-0
      16407  3 00000 0 32537         TXH     =-0           MODE
      16410  3 00000 0 00204         TXH     CHNXIT
      16411  0074 00 4 00201         TSX     DELFIL,4
      16412  3 00000 0 17133         TXH     MTX.FL
      16413  3 00000 0 17134         TXH     MTX.FL+1
      16414  3 00000 0 16415         TXH     *+1
      16415  0074 00 4 00201         TSX     DELFIL,4
      16416  3 00000 0 17135         TXH     C.O.DE
      16417  3 00000 0 17136         TXH     C.O.DE+1
      16420  3 00000 0 16421         TXH     *+1
      16421  0074 00 4 00214  OK1    TSX     GETCOM,4
      16422  0 00000 0 00002                 2
      16423  0774 00 4 00006         AXT     EAT-BAT,4
      16424 -0340 00 4 16442         LAS     EAT,4
      16425  0020 00 0 16427         TRA     *+2
      16426  0020 60 4 16443         TRA*    EAT+1,4
      16427  2 00002 4 16424         TIX     *-3,4,2
      16430  0500 00 0 16422  OK2    CLA     OK1+1
      16431  0400 00 0 32403         ADD     =1
      16432  0621 00 0 16422         STA     OK1+1
      16433  0020 00 0 16421         TRA     OK1

      16434  744331626334     BAT    BCI     1,(LIST)
      16435  0 00000 0 16442                 A1
      16436  746270442234            BCI     1,(SYMB)
      16437  0 00000 0 16445                 A2
      16440 -377777777777     FENCE. OCT     777777777777
1                    MAD I FOR CTSS ... R M GRAHAM ... FEB 1964                  03/15/69 1107.8 PAGE 11

      16441  0 00000 0 16450                 A4
                       16442  EAT    SYN     *

      16442  0500 00 0 32556  A1     CLA     =H   BCD
      16443  0601 00 0 00174         STO     LIST.F
      16444  0020 00 0 16430         TRA     OK2
      16445  0500 00 0 32562  A2     CLA     =HSYMTAB
      16446  0601 00 0 00176         STO     SYMFSW
      16447  0020 00 0 16430         TRA     OK2
      16450 -0520 00 0 00174  A4     NZT     LIST.F
      16451  0020 00 0 16456         TRA     OK3
      16452  0074 00 4 00201         TSX     DELFIL,4
      16453  3 00000 0 16374         TXH     LSTFIL
      16454  3 00000 0 16375         TXH     LSTFIL+1
      16455  3 00000 0 16456         TXH     OK3
      16456 -0520 00 0 00176  OK3    NZT     SYMFSW
      16457  0020 00 0 16465         TRA     OPEN1
      16460  0074 00 4 00201         TSX     DELFIL,4
      16461  3 00000 0 16376         TXH     SYMFIL
      16462  3 00000 0 16377         TXH     SYMFIL+1
      16463  3 00000 0 16465         TXH     OPEN1
      16464  0020 00 0 16465         TRA     OPEN1
      16465 -0520 00 0 00174  OPEN1  NZT     LIST.F        IS LISTING FILE WANTED
      16466  0020 00 0 16500         TRA     NOLIST
      16467  0074 00 4 00206         TSX     (BFOPN,4
      16470  3 00000 0 32563         TXH     =HW
      16471  3 00000 0 00173         TXH     P.FNAM
      16472  3 00000 0 00174         TXH     P.FNAM+1
      16473  3 00000 0 77120         TXH     WB1
      16474  3 00000 0 76240         TXH     WB2
      16475  3 00000 0 32537         TXH     =-0
      16476  3 00000 0 32402         TXH     =0
      16477  3 00000 0 00204         TXH     CHNXIT
      16500 -0760 00 0 00016  NOLIST EMTM
      16501  0760 00 0 00140         SLF
      16502  0074 00 4 16370         TSX     (LFTM),4
      16503  0500 00 0 16673         CLA     TRAERR
      16504  0601 00 0 00002         STO     2
      16505  0774 00 4 00311  PX1    AXT     PLT.C+1,4
      16506  0634 00 4 67462         SXA     PLT,4
      16507  0600 00 0 72737         STZ     MST
      16510  0774 00 4 01437         AXT     MST.C-1,4
      16511 -0634 00 4 72737         SXD     MST,4
      16512  0600 00 0 71276         STZ     TT
      16513  0774 00 4 00377         AXT     TT.C-1,4
      16514 -0634 00 4 71276         SXD     TT,4
      16515  0600 00 0 70675         STZ     ABC
      16516  0774 00 4 01211         AXT     ABC.C-1,4
      16517 -0634 00 4 70675         SXD     ABC,4
      16520  0500 00 0 32471         CLA     =O233000000000
      16521  0601 00 0 70673         STO     ABC-2
      16522  0500 00 0 32455         CLA     =O1000000
      16523  0601 00 0 70674         STO     ABC-1
      16524  0500 00 0 32403         CLA     =1
      16525  0601 00 0 70671         STO     ABC-4
      16526  0500 00 0 32456         CLA     =O3000000
1                    MAD I FOR CTSS ... R M GRAHAM ... FEB 1964                  03/15/69 1107.8 PAGE 12

      16527  0601 00 0 70672         STO     ABC-3
      16530  0774 00 4 00004         AXT     4,4
      16531  0634 00 4 70675         SXA     ABC,4
      16532  0774 00 4 01131         AXT     MT.C+1,4
      16533  0634 00 4 47134         SXA     MT,4
      16534  0774 00 4 01131         AXT     DIM.C+1,4
      16535  0634 00 4 46003         SXA     DIM,4
      16536  0774 00 4 01213         AXT     ET.C+1,4
      16537  0634 00 4 43601         SXA     ET,4
      16540  0774 00 4 00311         AXT     ERS.C+1,4
      16541  0634 00 4 47445         SXA     ERS,4
      16542  0774 00 4 00455         AXT     PCT.C+1,4
      16543  0634 00 4 44652         SXA     PCT,4
      16544  0774 00 4 00063         AXT     IFT.C+1,4
      16545  0634 00 4 44175         SXA     IFT,4
      16546  0774 00 4 00311         AXT     SCPT.C+1,4
      16547  0634 00 4 44112         SXA     SCPT,4
      16550  0560 00 0 32560         LDQ     =H
      16551 -0600 00 0 42313         STQ     RDX
      16552 -0600 00 0 42333         STQ     RD+15

      16553  0074 00 4 16674         TSX     GETIME,4      GET TIME AND DATE FROM SUPERVISOR
      16554  0602 00 0 31341         SLW     TIME          IN 60THS OF A SECOND
      16555 -0600 00 0 31340         STQ     DATE          MMDDYY
      16556 -0763 00 0 00014         LGL     12
      16557  0767 00 0 00006         ALS     6
      16560 -0501 00 0 32427         ORA     =H00000/
      16561 -0763 00 0 00014         LGL     12
      16562  0767 00 0 00006         ALS     6
      16563 -0501 00 0 32427         ORA     =H00000/
      16564  0602 00 0 31337         SLW     DATE-1
      16565 -0130 00 0 00000         XCL
      16566 -0501 00 0 32457         ORA     =H00
      16567  0602 00 0 31340         SLW     DATE

      16570 -0500 00 0 31341         CAL     TIME
      16571  0400 00 0 32437         ADD     =180          FOR ROUNDING
      16572  0131 00 0 00000         XCA
      16573 -0754 00 0 00000         ZAC
      16574  0221 00 0 32443         DVP     =3600
      16575 -0600 00 0 16676         STQ     MINS
      16576  0131 00 0 00000         XCA
      16577 -0754 00 0 00000         ZAC
      16600  0221 00 0 32440         DVP     =360
      16601 -0600 00 0 16675         STQ     10THS
      16602  0560 00 0 16676         LDQ     MINS
      16603 -0754 00 0 00000         ZAC
      16604  0221 00 0 32433         DVP     =60
      16605 -0600 00 0 16677         STQ     HOURS
      16606  0601 00 0 16676         STO     MINS
      16607  0074 00 4 16702         TSX     BTDC,4
      16610  0601 00 0 16677         STO     HOURS
      16611  0560 00 0 16676         LDQ     MINS
      16612  0074 00 4 16702         TSX     BTDC,4
      16613  0601 00 0 16676         STO     MINS
      16614  0560 00 0 16675         LDQ     10THS
1                    MAD I FOR CTSS ... R M GRAHAM ... FEB 1964                  03/15/69 1107.8 PAGE 13

      16615  0074 00 4 16702         TSX     BTDC,4
      16616 -0765 00 0 00006         LGR     6
      16617 -0500 00 0 32417         CAL     =H00000.
      16620 -0765 00 0 00006         LGR     6
      16621 -0500 00 0 16676         CAL     MINS
      16622 -0765 00 0 00014         LGR     12
      16623 -0500 00 0 16677         CAL     HOURS
      16624 -0765 00 0 00014         LGR     12
      16625 -0600 00 0 31341         STQ     TIME

      16626  0500 00 0 00173         CLA     P.FNAM
      16627  0601 00 0 31333         STO     HEAD+10
      16630                          SPRINT  HEAD,17
      16632                          SPRINT  HEAD1,3
      16634  0600 00 0 47446         STZ     MTX
      16635  0600 00 0 42110         STZ PL
      16636  0600 00 0 41526         STZ FOR                INITIALIZE PROGRAM
      16637  0600 00 0 31447         STZ     BSRFL
      16640  0600 00 0 42173         STZ IF
      16641  0600 00 0 42270         STZ STLREG
      16642  0600 00 0 31357         STZ FLAGS
      16643  0600 00 0 41316         STZ XPL
      16644  0500 00 0 31402         CLA     F
      16645  0601 00 0 00154         STO     STFLAD
      16646  0361 00 0 32403         ACL     =1
      16647  0601 00 0 31402         STO     F
      16650  0600 00 0 31473         STZ     EOFINS
      16651  0600 00 0 31475         STZ     EOFFLG
      16652  0600 00 0 31462         STZ     ERDPFL
      16653  0600 00 0 31455         STZ     TAB1FL
      16654  0600 00 0 31454         STZ     TAB2FL
      16655  0600 00 0 31453         STZ     DPNXFL
      16656  0600 00 0 31452         STZ     MTRXFL
      16657                          MTT     (=H.MTX  ),=1
      16663 -0625 00 0 31446         STL     REMKFL
      16664 -0500 00 0 32550         CAL     =H FIRST
      16665  0602 00 0 30317         SLW     ERRXX5
      16666 -0500 00 0 32547         CAL     =H CARD
      16667  0602 00 0 30320         SLW     ERRXX6
      16670 -0500 00 0 00173         CAL     P.FNAM
      16671  0602 00 0 30321         SLW     ERRXX7
      16672  0020 00 0 17346         TRA     P1STRT

      16673  0020 00 0 30217  TRAERR TRA     ERR
      16674  0101 00 0 32477  GETIME TIA     =HGETIME
      16675  0 00000 0 00000  10THS  PZE
      16676  0 00000 0 00000  MINS   PZE
      16677  0 00000 0 00000  HOURS  PZE
      16700  0 00000 0 00000  TEMP   PZE
      16701  0 00000 0 00000  EOFCT  PZE     0

      16702  0634 00 4 16713  BTDC   SXA     BTDCX,4
      16703  0600 00 0 16700         STZ     TEMP
      16704  0774 00 4 00044         AXT     36,4
      16705 -0754 00 0 00000  BTDC1  ZAC
      16706  0221 00 0 32412         DVP     =10
1                    MAD I FOR CTSS ... R M GRAHAM ... FEB 1964                  03/15/69 1107.8 PAGE 14

      16707  0767 00 4 00044         ALS     36,4
      16710 -0602 00 0 16700         ORS     TEMP
      16711  2 00006 4 16705         TIX     BTDC1,4,6
      16712 -0500 00 0 16700         CAL     TEMP
      16713  0774 00 4 00000  BTDCX  AXT     **,4
      16714  0020 00 4 00001         TRA     1,4

                                          THIS SECTION READS ONE STMT AND FIRST
                                         CARD OF NEXT STMT. UNPACKED STMT(ONE CHAR/WD IN K6)
                                         IS LEFT IN E-REGION. COPY OF STMT IS WRITTEN ON
                                         TAPMTX FOR OCTAL LISTING AND ON TAPSYS FOR DEC LISTING


      16715  0520 00 0 31453  P1     ZET     DPNXFL
      16716  0074 00 4 30325         CALL    DUMPXZ
      16717  0534 00 4 31377  P1XXXX LXA     I,4
      16720 -3 00000 4 16722         TXL     *+2,4,0
      16721  0 07400 4 24434         CALL    DIAMTX
      16722  0634 00 0 31377         ZAD     I
      16723  0560 00 0 32560         LDQ     =H
      16724 -0600 00 0 42333         STQ     RD+15
      16725  0520 00 0 31446         ZET     REMKFL
      16726  0020 00 0 17341         TRA     RE25
      16727  0520 00 0 31475  P1A    ZET     EOFFLG
      16730  0020 00 0 17431         TRA     RE20
      16731  0600 00 0 31422         STZ     CMA
      16732  0600 00 0 31466         STZ     SIGMA
      16733  0600 00 0 31370         STZ     AT
      16734  0600 00 0 31465         STZ     PRIME
      16735  0600 00 0 31467         STZ     EF4
      16736  0600 00 0 31470         STZ     EF23
      16737  0600 00 0 31471         STZ     EF28
      16740  0600 00 0 31472         STZ     EF33
      16741  0600 00 0 31363         STZ THISST             PROCESS NEXT
      16742  0774 00 1 77776         AXT     -2,1
      16743  0500 00 0 16366         CLA     F..MAD
      16744  0601 00 0 30321         STO     ERRXX7
      16745  0500 00 0 42334         CLA     RD+16
      16746  0601 00 0 30317         STO     ERRXX5
      16747  0500 00 0 42335         CLA     RD+17
      16750  0601 00 0 30320         STO     ERRXX6
      16751  0500 00 0 42314         CLA RD                 SAVE
      16752  0601 00 0 31373         STO SN                 STATEMENT
      16753  0500 00 0 42315         CLA RD+1               LABEL
      16754  0601 00 0 31414         STO SNPT
      16755  0560 00 0 32411         LDQ     =9
      16756  0500 00 0 31352         CLA ID1
      16757  0400 00 0 32403         ADD     =1
      16760  0040 00 0 17020         TLQ RE31
      16761  0601 00 0 31352         STO ID1
      16762 -0501 00 0 31351         ORA     ID10
      16763 -0501 00 0 31350  RE35   ORA ID100
      16764 -0501 00 0 31346  RE36   ORA IDENT
      16765  0602 00 0 42333         SLW     RD+15
1                    MAD I FOR CTSS ... R M GRAHAM ... FEB 1964                  03/15/69 1107.8 PAGE 15

      16766  0560 00 0 42333  RE24   LDQ     RD+15
      16767 -0763 00 0 00022         LGL     18
      16770 -0773 00 0 00036         RQL     30
      16771 -0600 00 0 31372         STQ     A
      16772 -0500 00 0 42334         CAL     RD+16
      16773  0560 00 0 42335         LDQ     RD+17
      16774 -0765 00 0 00030         LGR     24
      16775 -0501 00 0 31372         ORA     A
      16776 -0534 00 2 47446         LXD     MTX,2
      16777  0602 00 2 47447         SLW     MTX+1,2
      17000 -0600 00 2 47451         STQ     MTX+3,2
      17001  0560 00 0 32026         LDQ     .BCD
      17002 -0600 00 2 47450         STQ     MTX+2,2
      17003  1 77775 2 17004         TXI     *+1,2,-3
      17004  0774 00 4 00014         AXT     12,4
      17005  1 77777 2 17006         TXI     *+1,2,-1
      17006  0560 00 4 42330         LDQ     RD+12,4
      17007 -0600 00 2 47446         STQ     MTX,2
      17010  2 00001 4 17005         TIX     *-3,4,1
      17011  0774 00 4 00014         AXT     12,4
      17012  0500 00 2 47446         CLA     MTX,2
      17013  0402 00 0 32560         SUB     =H
      17014 -0100 00 0 17041         TNZ     P1MZ
      17015  1 00001 2 17016         TXI     *+1,2,1
      17016  2 00001 4 17012         TIX     *-4,4,1
      17017  1 00003 2 17045         TXI     P1MW,2,3
      17020  0600 00 0 31352  RE31   STZ ID1
      17021 -0773 00 0 00006         RQL 6
      17022  0500 00 0 31351         CLA ID10
      17023  0400 00 0 32436         ADD     =O100
      17024  0040 00 0 17027         TLQ RE32
      17025  0601 00 0 31351         STO ID10
      17026  0020 00 0 16763         TRA RE35
      17027  0600 00 0 31351  RE32   STZ ID10
      17030 -0773 00 0 00006         RQL 6
      17031  0500 00 0 31350         CLA ID100
      17032  0400 00 0 32445         ADD     =O10000
      17033  0040 00 0 17036         TLQ RE33
      17034  0601 00 0 31350         STO ID100
      17035  0020 00 0 16764         TRA RE36
      17036  0600 00 0 31350  RE33   STZ     ID100
      17037 -0754 00 0 00000         ZAC
      17040  0020 00 0 16764         TRA     RE36
      17041 -0754 00 4 00000  P1MZ   PXD     ,4
      17042 -0534 00 4 47446         LXD     MTX,4
      17043  0767 00 0 00014         ALS     12
      17044 -0602 00 4 47447         ORS     MTX+1,4
      17045 -0634 00 2 47446  P1MW   SXD     MTX,2
      17046 -0534 00 2 47446  RECLOS LXD     MTX,2
      17047  3 65347 2 17144  RE265  TXH     SKP1,2,-MTXLNG+MTXBUF-1 CHECK BUFFER OVERFLOW
      17050  3 61737 2 17113  RE264  TXH     RE268,2,-MTXLNG-1      IS STMT TOO LONG
      17051  0600 00 0 47446         STZ     MTX
      17052 -0625 00 0 31467         STL     EF4
      17053  0535 00 4 17050         LAC     RE264,4
      17054  0020 00 4 00000         TRA     0,4
      17055 -0535 00 2 47446  RE262  LDC     MTX,2
1                    MAD I FOR CTSS ... R M GRAHAM ... FEB 1964                  03/15/69 1107.8 PAGE 16

      17056  1 65350 2 17057         TXI     *+1,2,-MTXLNG+MTXBUF COMPUTE AND
      17057 -0634 00 2 17142         SXD     RE253,2        SET WORD COUNT IN BUFFER
      17060  0774 00 4 70760         AXT     -MTXLNG+2*MTXBUF,4
      17061 -0634 00 4 47446         SXD     MTX,4
      17062  0774 00 4 17142         AXT     RE253,4        GET LOCA OF SECOND BUFF CHAN COMMAND
      17063 -0500 00 0 17141         CAL     RE252
      17064  0634 00 4 17067  RE263  SXA     RE256,4
      17065  0621 00 0 17050         STA     RE264          SET OVERFLOW EXIT
      17066  0622 00 0 17047         STD     RE265          SET OVERFLOW LIMIT
      17067  0560 00 0 00000  RE256  LDQ     **
      17070 -0600 00 0 17103         STQ     RE255
      17071  0074 00 4 00210         TSX     (BFWR,4
      17072  3 00000 0 17133         TXH     MTX.FL
      17073  3 00000 0 17134         TXH     MTX.FL+1
      17074  3 00001 0 17103         TXH     RE255,,1
      17075  3 00000 0 17422         TXH     EOF
      17076  3 00000 0 16701         TXH     EOFCT
      17077  3 00000 0 00204         TXH     CHNXIT
      17100  0074 00 4 00210         TSX     (BFWR,4
      17101  3 00000 0 17133         TXH     MTX.FL
      17102  3 00000 0 17134         TXH     MTX.FL+1
      17103  3 00000 0 00000  RE255  TXH     **,,**
      17104  3 00000 0 17422         TXH     EOF
      17105  3 00000 0 16701         TXH     EOFCT
      17106  3 00000 0 00204         TXH     CHNXIT
      17107  0500 00 0 00171         CLA     MTXOVF
      17110  0400 00 0 32403         ADD     =1
      17111  0601 00 0 00171         STO     MTXOVF
      17112  0020 00 0 17144         TRA     SKP1
      17113  0074 00 4 00206  RE268  TSX     (BFOPN,4
      17114  3 00000 0 32563         TXH     =HW
      17115  3 00000 0 17133         TXH     MTX.FL
      17116  3 00000 0 17134         TXH     MTX.FL+1
      17117  3 00000 0 75360         TXH     B1
      17120  3 00000 0 74500         TXH     B2
      17121  3 00000 0 32537         TXH     =-0
      17122  3 00000 0 32403         TXH     =1            TEMP. MODE
      17123  3 00000 0 00204         TXH     CHNXIT
      17124  0774 00 4 17143  RE261  AXT     RE254,4        GET LOCA OF FIRST BUFF CHAN COMMAND
      17125 -0500 00 0 17140         CAL     RE251
      17126  0020 00 0 17064         TRA     RE263
      17127 -0500 00 0 17137  RE266  CAL     RE267
      17130  0621 00 0 17050         STA     RE264
      17131  0622 00 0 17047         STD     RE265
      17132  0020 00 0 17144         TRA     SKP1
      17133  443363336733     MTX.FL BCI     2,M.T.X.O.V.F.
      17135  233346332433     C.O.DE BCI     2,C.O.D.E.O.V.
      17137  3 65347 0 17124  RE267  TXH     RE261,,-MTXLNG+MTXBUF-1
      17140  3 63067 0 17055  RE251  TXH     RE262,,-MTXLNG+MARKER-1
      17141  3 66477 0 17127  RE252  TXH     RE266,,-MTXLNG+MTXBUF-1+MARKER
      17142  3 00000 0 62077  RE253  TXH     MTXB,,**
      17143  3 03410 0 56467  RE254  TXH     MTXA,,MTXBUF
      17144  0774 00 2 00001  SKP1   AXT     1,2
      17145  0560 00 0 32413         LDQ     =11
      17146 -0600 00 0 31372         STQ     A
      17147 -0500 00 0 42315         CAL     RD+1
1                    MAD I FOR CTSS ... R M GRAHAM ... FEB 1964                  03/15/69 1107.8 PAGE 17

      17150 -0320 00 0 32435         ANA     =O77
      17151  0774 00 4 00000         AXT     0,4
      17152  0520 00 0 31465  P1J    ZET     PRIME
      17153  0020 00 0 17240         TRA     P1B
      17154  0602 00 4 41612  P1U    SLW     V+50,4
      17155  0602 00 1 40023         SLW     E,1
      17156 -0520 00 0 31466         NZT     SIGMA
      17157  0020 00 0 17176         TRA     P1D
      17160  0402 00 0 32424         SUB     =H00000$
      17161 -0100 00 0 17163         TNZ     *+2
      17162  0600 00 0 31466         STZ     SIGMA
      17163  1 77777 1 17164  P1C    TXI     *+1,1,-1
      17164  1 77777 4 17165  P1E    TXI     *+1,4,-1
      17165  2 00001 2 17173  P1F    TIX     P1G,2,1
      17166  0534 00 2 31372         LXA     A,2
      17167 -2 00001 2 17312         TNX     P1H,2,1
      17170  0634 00 2 31372         SXA     A,2
      17171  0560 00 2 42330         LDQ     RD+12,2
      17172  0774 00 2 00006         AXT     6,2
      17173 -0754 00 0 00000  P1G    ZAC
      17174 -0763 00 0 00006         LGL     6
      17175  0020 00 0 17152         TRA     P1J
      17176  0044 00 0 00000  P1D    PAI
      17177 -0500 00 0 32435         CAL     =O77
      17200  0051 00  000060         IIR     BLK.
      17201  0046 00 0 17164         TIF     P1E
      17202  0051 00  000014         IIR     BLK.-LPRN.
      17203  0046 00 0 17234         TIF     P1K
      17204  0051 00  000040         IIR     LPRN.-RPRN.
      17205  0046 00 0 17226         TIF     P1L
      17206  0051 00  000047         IIR     RPRN.-LCM.
      17207  0046 00 0 17221         TIF     P1M
      17210  0051 00  000020         IIR     LCM.-LDS.
      17211  0046 00 0 17217         TIF     P1N
      17212  0051 00  000047         IIR     LDS.-LPRIM.
      17213  0046 00 0 17215         TIF     *+2
      17214  0020 00 0 17163         TRA     P1C
      17215 -0625 00 0 31465         STL     PRIME
      17216  0020 00 0 17165         TRA     P1F
      17217 -0625 00 0 31466  P1N    STL     SIGMA
      17220  0020 00 0 17163         TRA     P1C
      17221  0520 00 0 31370  P1M    ZET     AT
      17222  0020 00 0 17163         TRA     P1C
      17223 -0520 00 0 31422         NZT     CMA
      17224 -0634 00 1 31422         SXD     CMA,1
      17225  0020 00 0 17163         TRA     P1C
      17226  0500 00 0 31370  P1L    CLA     AT
      17227  0402 00 0 32403         SUB     =1
      17230  0601 00 0 31370         STO     AT
      17231  0120 00 0 17163         TPL     P1C
      17232 -0625 00 0 31471         STL     EF28
      17233  0020 00 0 17163         TRA     P1C
      17234  0500 00 0 31370  P1K    CLA     AT
      17235  0400 00 0 32403         ADD     =1
      17236  0601 00 0 31370         STO     AT
      17237  0020 00 0 17163         TRA     P1C
1                    MAD I FOR CTSS ... R M GRAHAM ... FEB 1964                  03/15/69 1107.8 PAGE 18

      17240  0601 00 0 31371  P1B    STO     B
      17241  0601 00 0 31365         STO     ION
      17242 -0600 00 0 31367         STQ     TAG
      17243 -0500 00 1 40022         CAL     E-1,1
      17244  0767 00 0 00006         ALS     6
      17245 -0602 00 0 31371         ORS     B
      17246  0634 00 2 17304         SXA     P1Q,2
      17247  0774 00 2 00041         AXT     ABTAB-ABTOP,2
      17250 -0500 00 2 31175         CAL     ABTAB,2
      17251  0771 00 0 00030         ARS     24
      17252  0402 00 0 31371         SUB     B
      17253  0100 00 0 17257         TZE     P1R
      17254  2 00001 2 17250         TIX     *-4,2,1
      17255 -0625 00 0 31472         STL     EF33
      17256  0020 00 0 17301         TRA     P1Z
      17257  0560 00 2 31175  P1R    LDQ     ABTAB,2
      17260 -0763 00 0 00014         LGL     12
      17261 -0754 00 0 00000         ZAC
      17262 -0763 00 0 00006         LGL     6
      17263  0734 00 2 00000         PAX     ,2
      17264 -0763 00 0 00022         LGL     18
      17265  0621 00 0 17266         STA     P1V
      17266  0560 00 0 00000  P1V    LDQ     **
      17267 -0754 00 0 00000  P1T    ZAC
      17270 -0763 00 0 00006         LGL     6
      17271  0100 00 0 17306         TZE     P1S
      17272  0601 00 4 41612         STO     V+50,4
      17273  0601 00 1 40023         STO     E,1
      17274  1 77777 4 17275         TXI     *+1,4,-1
      17275  0402 00 0 32426         SUB     =H00000
      17276  0100 00 0 17300         TZE     *+2
      17277  1 77777 1 17300         TXI     *+1,1,-1
      17300  2 00001 2 17267         TIX     P1T,2,1
      17301  0600 00 0 31465  P1Z    STZ     PRIME
      17302  0500 00 0 31365         CLA     ION
      17303  0560 00 0 31367         LDQ     TAG
      17304  0774 00 2 00000  P1Q    AXT     **,2
      17305  0020 00 0 17154         TRA     P1U
      17306 -0500 00 0 17266  P1S    CAL     P1V
      17307  0400 00 0 32403         ADD     =1
      17310  0621 00 0 17266         STA     P1V
      17311  0020 00 0 17266         TRA     P1V
      17312  3 76631 1 17315  P1H    TXH     *+3,1,-L1
      17313 -0625 00 0 31470         STL     EF23
      17314  0774 00 1 77776         AXT     -2,1
      17315  0560 00 0 32560         LDQ     =H
      17316 -0600 00 4 41612         STQ     V+50,4
      17317 -3 77662 4 17321         TXL     *+2,4,-78
      17320  1 77777 4 17316         TXI     *-2,4,-1
      17321  0634 00 1 17340         SXA     P1W,1
      17322  0774 00 1 00001         AXT     1,1
      17323  0774 00 2 00000         AXT     0,2
      17324  0441 00 0 42315         LDI     RD+1
      17325  0057 00  000077         RIR     77
      17326  0055 00  000060         SIR     60
      17327  0604 00 0 42315         STI     RD+1
1                    MAD I FOR CTSS ... R M GRAHAM ... FEB 1964                  03/15/69 1107.8 PAGE 19

      17330  0774 00 4 00006  P1X    AXT     6,4
      17331 -0500 00 1 41730         CAL     V+128,1
      17332 -0765 00 0 00006         LGR     6
      17333  1 00001 1 17334         TXI     *+1,1,1
      17334  2 00001 4 17331         TIX     *-3,4,1
      17335 -0600 00 2 42332         STQ     RD+14,2
      17336  1 00001 2 17337         TXI     *+1,2,1
      17337 -3 00014 2 17330         TXL     P1X,2,12
      17340  0774 00 1 00000  P1W    AXT     **,1
      17341                   RE25   SPRINT  RDX,19
      17343 -0760 00 0 00143         SLT     3
      17344  0020 00 0 17346         TRA     P1STRT
      17345                          ERROR   32,XX
      17346  0074 00 4 32063  P1STRT TSX     READC,4
      17347  0774 00 4 00014  RE21   AXT     12,4
      17350  0500 00 4 42330         CLA     RD+12,4
      17351  0402 00 0 32560         SUB     =H
      17352 -0100 00 0 17355         TNZ     *+3
      17353  2 00001 4 17350         TIX     *-3,4,1
      17354  0020 00 0 17346         TRA     P1STRT
      17355  0560 00 0 42330         LDQ     RD+12
      17356 -0600 00 0 42334         STQ     RD+16
      17357  0560 00 0 42331         LDQ     RD+13
      17360 -0600 00 0 42335         STQ     RD+17
      17361  0560 00 0 32560         LDQ     =H
      17362 -0600 00 0 42330         STQ     RD+12
      17363 -0600 00 0 42331         STQ     RD+13
      17364 -0600 00 0 42332         STQ     RD+14
      17365  0560 00 0 42315  RE2X.  LDQ     RD+1
      17366 -0763 00 0 00030         LGL 24
      17367 -0754 00 0 00000         PXD ,0
      17370 -0763 00 0 00006         LGL 6
      17371  0734 00 2 00000         PAX ,2
      17372 -3 00057 2 17374         TXL *+2,2,47
      17373 -3 00060 2 17425         TXL RE2,2,48           NEW STATEMENT  (BLANK)
      17374 -3 00011 2 17417         TXL RE9,2,9            CONTINUATION  0,...,9
      17375 -3 00050 2 17377         TXL *+2,2,40
      17376 -3 00051 2 17407         TXL     RMK,2,41      REMARK (R)
      17377 -3 00053 2 17401         TXL     REBAD,2,43
      17400 -3 00054 2 17425         TXL     RE2,2,44
      17401  0760 00 0 00143  REBAD  SLN     3
      17402 -0500 00 0 42315         CAL     RD+1
      17403  0767 00 0 00022         ALS     18
      17404 -0320 00 0 32464         ANA     =O7700000000
      17405 -0501 00 0 32467         ORA     =H'0' IN
      17406  0602 00 0 31751         SLW     ER32+3
      17407  0441 00 0 42315  RMK    LDI     RD+1
      17410  0057 00  007700         RIR     7700
      17411  0055 00  006000         SIR     6000
      17412  0604 00 0 42315         STI     RD+1
      17413  0520 00 0 31446  RMK.   ZET     REMKFL
      17414  0020 00 0 17341         TRA     RE25
      17415 -0625 00 0 31446         STL     REMKFL
      17416  0020 00 0 17433         TRA     RE26
      17417  0520 00 0 31446  RE9    ZET     REMKFL
      17420  0020 00 0 17341         TRA     RE25
1                    MAD I FOR CTSS ... R M GRAHAM ... FEB 1964                  03/15/69 1107.8 PAGE 20

      17421  0020 00 0 16766         TRA     RE24
      17422  0520 00 0 31473  EOF    ZET     EOFINS
      17423  0020 00 0 22035         TRA     T36A
      17424 -0625 00 0 31475         STL     EOFFLG
      17425 -0520 00 0 31446  RE2    NZT     REMKFL
      17426  0020 00 0 17433         TRA     RE26
      17427  0600 00 0 31446         STZ     REMKFL
      17430  0020 00 0 16727         TRA     P1A
      17431                   RE20   ERROR   10,XX
      17432  0020 00 0 17756         TRA T5ALTR
      17433  0560 00 0 32414  RE26   LDQ     =O15
      17434 -0600 00 1 40023         STQ     E,1
      17435  0520 00 0 31465  P1Y    ZET     PRIME
      17436 -0625 00 0 31472         STL     EF33
      17437  0520 00 0 31466  AN15   ZET     SIGMA
      17440 -0625 00 0 31471         STL     EF28
      17441  0520 00 0 31370         ZET     AT
      17442 -0625 00 0 31471         STL     EF28
      17443  0520 00 0 31467         ZET     EF4
      17444                          ERROR   4,XX
      17445  0520 00 0 31470         ZET     EF23
      17446                          ERROR   23,XX
      17447  0520 00 0 31471         ZET     EF28
      17450                          ERROR   28,XX
      17451  0520 00 0 31472         ZET     EF33
      17452                          ERROR   33,XX
      17453  0500 00 0 31467         CLA     EF4
      17454  0400 00 0 31470         ADD     EF23
      17455  0400 00 0 31471         ADD     EF28
      17456  0400 00 0 31472         ADD     EF33
      17457 -0100 00 0 22742         TNZ     T44+1
1                    MAD I FOR CTSS ... R M GRAHAM ... FEB 1964                  03/15/69 1107.8 PAGE 21

                                          STMT KIND IS NOW DETERMINED
                                          AND CONTROL THEN GOES TO PROPER GENERATOR


      17460  0774 00 1 77776         AXT     -2,1
      17461  0634 00 1 17522  ANLXX  SXA     ALPHA,1
      17462 -0500 00 0 32421         CAL     =O37
      17463  0601 00 1 40022         STO E-1,1
      17464  3 00000 0 22452  DEFSWT TXH     SAPCD,0,0     TXL WHEN DEFINE OPN SEQ
      17465  0074 00 4 26340  FTST   TSX TYPE,4
      17466  0020 00 0 17534         TRA     AN9
      17467  0020 00 0 17471         TRA *+2
      17470                          ERROR   13
      17471  0774 00 2 00006         AXT     6,2
      17472  0600 00 0 31401         STZ NAME
      17473  0600 00 0 31461         STZ     DIGTSW
      17474  0767 00 2 00044  AN1    ALS 36,2
      17475 -0602 00 0 31401         ORS NAME               COLLECT MAXIMUM OF 6
      17476  0074 00 4 26340         TSX TYPE,4             INITIAL CHARACTERS
      17477  0020 00 0 20272         TRA     T8
      17500  0020 00 0 17502         TRA AN2                THEN STMT IS
      17501  0020 00 0 20272         TRA     T8
      17502  1 00006 2 17503  AN2    TXI *+1,2,6
      17503 -3 00044 2 17474         TXL AN1,2,36
      17504  0600 00 0 31456         STZ     CONTFL
      17505  0600 00 0 31457         STZ     PGCMFL
      17506  0600 00 0 31460         STZ     ERASFL
      17507  0500 00 0 31401  AN100  CLA NAME
      17510 -0534 00 4 30615         LXD F8,4
      17511  0340 00 4 30615         CAS F8,4               LOOK UP INITIAL
      17512  0020 00 0 17514         TRA *+2                6 CHARACTERS
      17513  0020 00 0 17516         TRA     AN40          IN DICTIONARY
      17514  2 00002 4 17511         TIX *-3,4,2
      17515                          ERROR   13
      17516  0500 00 4 30616  AN40   CLA     F8+1,4
      17517  0601 00 0 31355         STO TERMLT             SAVE FINAL LETTER
      17520  0020 60 4 30616         TRA*    F8+1,4
      17521  0600 00 0 31401  P3     STZ     NAME
      17522  0774 00 1 00000  ALPHA  AXT     **,1
      17523  0622 00 0 17524         STD *+1                SET SKIP COUNT
      17524  2 00000 1 17525         TIX     *+1,1,**      SKIP TO NEXT GROUP
      17525  0774 00 2 00006         AXT     6,2
      17526  0500 00 1 40023  AN8    CLA E,1                COLLECT NEXT 6 CHARACTERS
      17527  0767 00 2 00044         ALS 36,2
      17530 -0602 00 0 31401         ORS NAME               CHARACTERS OF STMT
      17531  1 00006 2 17532         TXI *+1,2,6
      17532  3 00044 2 17507         TXH AN100,2,36
      17533  1 77777 1 17526         TXI AN8,1,-1
      17534  0402 00 0 32414  AN9    SUB     =O15
      17535  0100 00 0 17537         TZE     *+2           BLANK CARD
      17536  0020 00 0 20272         TRA     T8
      17537                          TSTSC
      17540  0020 00 0 22741         TRA     T44
1                    MAD I FOR CTSS ... R M GRAHAM ... FEB 1964                  03/15/69 1107.8 PAGE 22

                                                           DIMENSION STATEMENT


      17541  0074 00 4 24064  T1     CALL    SET
      17542  0074 00 4 24032         CALL    TSTSC
      17543  0074 00 4 25344         CALL    DSCAN
      17544  0774 00 1 77777         AXT     -1,1
      17545  0774 00 2 00000  BETA   AXT     **,2
      17546                   T1A    TSTCLS  (S,2),VR.
      17552                          DUMMY   (V,1)
      17554  0520 00 0 31457         ZET     PGCMFL
      17555  0020 00 0 17660         TRA     T1C
      17556  0502 00 0 31460         CLS     ERASFL
      17557 -0100 00 0 17663         TNZ     T1E
      17560                          TSTOPN  (S+1,2),LP.
      17564                   T1J    TSTCON  (S+2,2),IC.
      17570                          DIM     (V,1)
      17572  0500 00 1 41531         CLA     V+1,1
      17573  0601 00 0 31372         STO     A
      17574  0600 00 0 31371         STZ     B
      17575                          TSTOPN  (S+3,2),CM.,XX,T1B
      17601                          TSTCLS  (S+4,2),VR.
      17605                          DUMMY   (V+2,1)
      17607  0560 00 1 41532         LDQ     V+2,1
      17610 -0600 00 0 31371         STQ     B
      17611                          MTT     ,=1
      17614                          TSTOPN  (S+5,2),LP.,XX,T1D
      17620                          TSTCON  (S+6,2),IC.
      17624                          TSTOPN  (S+7,2),RP.
      17630  0500 00 1 41533         CLA     V+3,1
      17631  0767 00 0 00022         ALS     18
      17632  0622 00 0 31372         STD     A
      17633  1 77775 2 17634         TXI     *+1,2,-3
      17634  1 77777 1 17635         TXI     *+1,1,-1
      17635  1 77776 2 17636  T1D    TXI     *+1,2,-2
      17636  1 77777 1 17637         TXI     *+1,1,-1
      17637                   T1B    TSTOPN  (S+3,2),RP.
      17643  1 77773 2 17644         TXI     *+1,2,-5
      17644  1 77776 1 17645         TXI     *+1,1,-2
      17645                          DIM     A,B
      17651                          TSTOPN  (S-1,2),CM.(T1A),RC.(P1)
      17660                   T1C    PCT     (V,1)
      17662  0020 00 0 17671         TRA     T1G
      17663  0120 00 0 17667  T1E    TPL     T1F
      17664  0601 00 0 31460         STO     ERASFL
      17665                          ERS     CC
      17667                   T1F    ERS     (V,1)
      17671                   T1G    TSTOPN  (S+1,2),CM.(T1H),LP.(T1J),RC.(P1)
      17702  1 77776 2 17703  T1H    TXI     *+1,2,-2
      17703  1 77777 1 17546         TXI     T1A,1,-1
1                    MAD I FOR CTSS ... R M GRAHAM ... FEB 1964                  03/15/69 1107.8 PAGE 23

                                                 INTEGER MODE


      17704  0500 00 0 32403  T2     CLA     =1
      17705  0601 00 0 31374  T2X    STO     MODE
      17706  0074 00 4 24064         CALL    SET
      17707  0074 00 4 24032  P177X  CALL    TSTSC
      17710  0074 00 4 25344         CALL    DSCAN
      17711  0534 00 2 17545         LXA     BETA,2
      17712  0774 00 1 77777         AXT     -1,1
      17713                   T2A    TSTCLS  (S,2),VR.(T2B),FN.(T2B)
      17722                   T2B    MTT     (V,1),MODE
      17726  1 77776 2 17727         TXI     *+1,2,-2
      17727  1 77777 1 17730         TXI     *+1,1,-1
      17730                          TSTOPN  (S-1,2),CM.(T2A),RC.(P1)
1                    MAD I FOR CTSS ... R M GRAHAM ... FEB 1964                  03/15/69 1107.8 PAGE 24

                                                 BOOLEAN MODE


      17737  0500 00 0 32404  T3     CLA     =2
      17740  0020 00 0 17705         TRA T2X


                                           OTHERWISE


      17741 -0500 00 0 32054  T4     CAL TXH                SET SWITCH FOR TRUE
      17742  0020 00 0 20617         TRA T13X               AND GO TO OR WHENEVER
1                    MAD I FOR CTSS ... R M GRAHAM ... FEB 1964                  03/15/69 1107.8 PAGE 25

                                             END OF PROGRAM


      17743  0600 00 0 31424  T5     STZ TRATAG             RESET TRANSFER SWITCH
      17744  0074 00 4 24032         CALL    TSTSC
      17745  0074 00 4 24113         CALL    DICTRY
      17746                          TTSET   =HEXIT        SET CALL TO EXIT AT END OF PGM
      17752                          MTXROW  =4,.F,X24
      17756                   T5ALTR MTXROW  =0,.PEND,=0
      17762  0534 00 4 00171         LXA     MTXOVF,4       IS PART OF MTX ON TAPE
      17763 -3 00001 4 20042         TXL     T5AXX,4,1
      17764  0500 00 0 17767         CLA     T5CLOS
      17765  0601 00 0 17144         STO     SKP1
      17766  0020 00 0 17046         TRA     RECLOS
      17767  0020 00 0 17770  T5CLOS TRA     *+1
      17770 -0535 00 2 47446         LDC     MTX,2
      17771  0534 00 4 17103         LXA     RE255,4
      17772 -3 56470 4 17776         TXL     T5AB,4,MTXA+1
      17773  0774 00 4 56467         AXT     MTXA,4         NOW IN BUFFER A
      17774  1 70760 2 17775         TXI     *+1,2,-MTXLNG+2*MTXBUF
      17775  0020 00 0 20000         TRA     T5AC
      17776  0774 00 4 62077  T5AB   AXT     MTXB,4         NOW IN BUFFER B
      17777  1 65350 2 20000         TXI     *+1,2,-MTXLNG+MTXBUF
      20000 -3 00000 2 20024  T5AC   TXL     T5AD,2,0       TEST FOR EMPTY BUFFER
      20001  0634 00 4 20015         SXA     T5AA,4
      20002 -0634 00 2 20015         SXD     T5AA,2
      20003  0074 00 4 00210         TSX     (BFWR,4
      20004  3 00000 0 17133         TXH     MTX.FL
      20005  3 00000 0 17134         TXH     MTX.FL+1
      20006  3 00001 0 20015         TXH     T5AA,,1
      20007  3 00000 0 17422         TXH     EOF
      20010  3 00000 0 16701         TXH     EOFCT
      20011  3 00000 0 00204         TXH     CHNXIT
      20012  0074 00 4 00210         TSX     (BFWR,4
      20013  3 00000 0 17133         TXH     MTX.FL
      20014  3 00000 0 17134         TXH     MTX.FL+1
      20015  3 00000 0 00000  T5AA   TXH     **,,**
      20016  3 00000 0 17422         TXH     EOF
      20017  3 00000 0 16701         TXH     EOFCT
      20020  3 00000 0 00204         TXH     CHNXIT
      20021  0534 00 4 00171         LXA     MTXOVF,4
      20022  1 00001 4 20023         TXI     *+1,4,1
      20023  0634 00 4 00171         SXA     MTXOVF,4
      20024  0074 00 4 00211  T5AD   TSX     (BFCL,4
      20025  3 00000 0 17133         TXH     MTX.FL
      20026  3 00000 0 17134         TXH     MTX.FL+1
      20027  3 00000 0 00204         TXH     CHNXIT
      20030  0074 00 4 00206         TSX     (BFOPN,4
      20031  3 00000 0 32542         TXH     =HR
      20032  3 00000 0 17133         TXH     MTX.FL
      20033  3 00000 0 17134         TXH     MTX.FL+1
      20034  3 00000 0 73620         TXH     RB1
      20035  3 00000 0 72740         TXH     RB2
      20036  3 00000 0 32537         TXH     =-0
      20037  3 00000 0 32537         TXH     =-0           MODE ARG
1                    MAD I FOR CTSS ... R M GRAHAM ... FEB 1964                  03/15/69 1107.8 PAGE 26

      20040  3 00000 0 00204         TXH     CHNXIT
      20041  0020 00 0 20047         TRA     T5AX
      20042  0074 00 4 00201  T5AXX  TSX     DELFIL,4
      20043  3 00000 0 17133         TXH     MTX.FL
      20044  3 00000 0 17134         TXH     MTX.FL+1
      20045  3 00000 0 20046         TXH     *+1
      20046  0600 00 0 00171         STZ     MTXOVF
      20047 -0534 00 1 42270  T5AX   LXD     STLREG,1
      20050 -3 00000 1 20064         TXL T5C,1,0            ARE THER STMT LABEL VECTORS
      20051                   T5B    MTT     (STLREG,1),=4
      20055                          DIM     (STLREG,1),(STLREG+1,1),=0
      20063  2 00002 1 20051         TIX T5B,1,2
      20064 -0500 00 0 31403  T5C    CAL IF.1               CHECK FOLLOWING---
      20065 -0320 00 0 32435         ANA     =O77
      20066  0100 00 0 20070         TZE *+2                ALL COMPOUND CONDITIONALS CLOSED
      20067                          ERROR   16,XX
      20070 -0534 00 4 41526         LXD FOR,4
      20071 -3 00000 4 20073         TXL *+2,4,0            ALL THROUGH STMTS CLOSED
      20072                          ERROR   17,XX
      20073  0 07400 4 24032         CALL    TSTSC
      20074  0500 00 0 24336         CLA XFNSW
      20075 -0120 00 0 20077         TMI *+2                NOT IN EXTERNAL FNDFN
      20076                          ERROR   18,XX
      20077  0500 00 0 24327         CLA IFNSW
      20100 -0120 00 0 20102         TMI *+2                NOT IN INTERNAL FN DFN
      20101                          ERROR   19,XX
      20102  0534 00 4 00155         LXA EQ.CT,4            NUMBER OF EQUIV CLASSES NOT TOO LARGE
      20103 -3 00144 4 20105         TXL *+2,4,L42
      20104                          ERROR   20,XX
      20105  0 07400 4 24434         CALL    DIAMTX
      20106                          STORE   PLT
      20110                          STORE   MT
      20112                          STORE   DIM
      20114                          STORE   ET
      20116                          STORE   ERS
      20120                          STORE   PCT
      20122                          STORE   IFT
      20124                          STORE   SCPT
      20126 -0634 00 0 72737         ZDC     MST
      20127 -0634 00 0 71276         ZDC     TT
      20130 -0634 00 0 70675         ZDC     ABC
      20131  0441 00 0 32402         LDI     =0
      20132  0520 00 0 31454         ZET     TAB2FL
      20133  0055 00  000004         SIR     4
      20134 -0520 00 0 31455         NZT     TAB1FL
      20135  0020 00 0 20154         TRA     T5DUMP
      20136  0774 00 1 00026         AXT     DRM1-DRM10,1  PRINT PART I TABLES
      20137 -0500 00 1 20210    DRM5 CAL     DRM1,1
      20140  0621 00 0 20141         STA     *+1
      20141  0502 00 0 00000         CLS     **
      20142  0100 00 0 20153         TZE     DRM2
      20143  0400 00 1 20210         ADD     DRM1,1
      20144  0601 00 0 20152         STO     DRM3+1
      20145  0560 00 1 20211         LDQ     DRM1+1,1
      20146 -0600 00 0 20161         STQ     DRM4+1
      20147  0074 00 4 00202         TSX     WRFLX,4
1                    MAD I FOR CTSS ... R M GRAHAM ... FEB 1964                  03/15/69 1107.8 PAGE 27

      20150  0 00002 0 20160         PZE     DRM4,,2
      20151                   DRM3   SDUMP   **,**
      20153  2 00002 1 20137  DRM2   TIX     DRM5,1,2
      20154  0520 00 0 31453  T5DUMP ZET     DPNXFL
      20155  0074 00 4 30325         CALL    DUMPXZ
      20156 -3 00000 0 00145  ERRSW  TXL     PASS2,0,0
      20157  0020 00 0 00166         TRA     UNSCCS
      20160  605454545460     DRM4   BCI     2, ****
                       20162  DRM10  SYN     *
      20162  2 72737 0 72737         BLK     MST,,MST
      20163  446263606060            BCD 1MST
      20164  2 71276 0 71276         BLK     TT,,TT
      20165  636360606060            BCD 1TT
      20166  2 70675 0 70675         BLK     ABC,,ABC
      20167  212223606060            BCD 1ABC
      20170  2 47134 0 47134         BLK     MT,,MT
      20171  446360606060            BCD 1MT
      20172  2 46003 0 46003         BLK     DIM,,DIM
      20173  243144606060            BCD 1DIM
      20174  2 44652 0 44652         BLK     PCT,,PCT
      20175  472363606060            BCD 1PCT
      20176  2 47445 0 47445         BLK     ERS,,ERS
      20177  255162606060            BCD 1ERS
      20200  2 43601 0 43601         BLK     ET,,ET
      20201  256360606060            BCD 1ET
      20202  2 67462 0 67462         BLK     PLT,,PLT
      20203  474363606060            BCD 1PLT
      20204  2 44175 0 44175         BLK     IFT,,IFT
      20205  312663606060            BCD 1IFT
      20206  2 44112 0 44112         BLK     SCPT,,SCPT
      20207  622347636060            BCD 1SCPT
                       20210  DRM1   SYN     *


                                                            SUBROUTINE TO SHIFT ALL TABLES FOR PART


      20210 -0500 60 4 00001  STORE  CAL*    1,4            GET CURRENT TABLE INDEX
      20211  0734 00 2 00000         PAX     ,2             (CURRENT INDEX IS LOWER LIMIT)
      20212  0737 00 1 00000         PAC     ,1
      20213 -0500 00 4 00001         CAL     1,4
      20214  0622 00 0 20225         STD     STORA          SET UPPER LIMIT = LENGTH OF TABLE
      20215  0621 00 0 20226         STA     STORB          SET BASE ADDRESS
      20216  0621 00 0 20227         STA     STORC
      20217  0622 00 0 20220         STD     *+1
      20220  1 00000 1 20221         TXI     *+1,1,**       GET NUMBER OF ENTRIES
      20221  1 00001 1 20222         TXI     *+1,1,1        IN TABLE (TABLE LENGTH-CURRENT INDEX+1)
      20222  0754 00 1 00000         PXA     ,1
      20223  0601 60 4 00001         STO*    1,4            REPLACE CURRENT INDEX BY NUMBER OF ENTRI
      20224  0774 00 1 00001         AXT     1,1
      20225  3 00000 2 20232  STORA  TXH     STORD,2,**
      20226  0560 00 2 00000  STORB  LDQ     **,2           MOVE TABLE
      20227 -0600 00 1 00000  STORC  STQ     **,1           ENTRIES
1                    MAD I FOR CTSS ... R M GRAHAM ... FEB 1964                  03/15/69 1107.8 PAGE 28

      20230  1 00001 1 20231         TXI     *+1,1,1        SO LAST ENTRY
      20231  1 00001 2 20225         TXI     STORA,2,1      IS AT BASE-1
      20232  0020 00 4 00002  STORD  TRA     2,4
1                    MAD I FOR CTSS ... R M GRAHAM ... FEB 1964                  03/15/69 1107.8 PAGE 29

                                                            PAUSE NO.


      20233  0074 00 4 24113  T6     CALL    DICTRY
      20234  0534 00 1 17522         LXA     ALPHA,1
      20235  1 77770 1 20236         TXI *+1,1,-8
      20236  0600 00 0 31372         STZ A
      20237  0500 00 1 40023  T6B    CLA E,1
      20240  0402 00 0 32414         SUB     =O15
      20241  0100 00 0 20247         TZE T6A
      20242  0500 00 0 31372         CLA A                  COLLECT DIGITS
      20243  0767 00 0 00003         ALS 3                  OF
      20244  0361 00 1 40023         ACL E,1                OCTAL NUMBER
      20245  0621 00 0 31372         STA A
      20246  1 77777 1 20237         TXI T6B,1,-1
      20247                   T6A    MTXROW  =0,.HLT,A
      20253  0020 00 0 23640         TRA ENDSMT
1                    MAD I FOR CTSS ... R M GRAHAM ... FEB 1964                  03/15/69 1107.8 PAGE 30

                                                            TRANSFER TO


      20254  0074 00 4 24113  T7     CALL    DICTRY
      20255  0074 00 4 24064         CALL    SET
      20256  0074 00 4 25344         CALL    DSCAN
      20257  0074 00 4 26447         CALL    CMPMTX
      20260                          ADDANL  (L+1,1)
      20262                          MTXROW  =0,.JMP,PAR
      20266  0500 00 0 31363         CLA THISST             IF LAST STMT IS NOT IN
      20267 -0100 00 0 20271         TNZ *+2                CONDITIONAL CLASS
      20270 -0634 00 4 31424         SXD TRATAG,4           SET TRANSFER TAG
      20271  0020 00 0 23640         TRA ENDSMT
1                    MAD I FOR CTSS ... R M GRAHAM ... FEB 1964                  03/15/69 1107.8 PAGE 31

                              *                            SUBSTITUTION AND EXECUTE


      20272  0500 00 0 32462  T8     CLA     =O3700000000
      20273  0601 00 0 31355         STO TERMLT
      20274  0074 00 4 24113  T15    CALL    DICTRY
      20275  0074 00 4 24064         CALL    SET
      20276  0074 00 4 25344         CALL    DSCAN
      20277  0074 00 4 26447         CALL    CMPMTX
      20300                          TSTCLS  (L+1,1),TM.,ENDSMT,XX
      20304                          TSTCLS  (L+1,1),FN.
      20310                          ADDANL  (L+1,1)
      20312                          MTXROW  =4,.F,PAR
      20316  0020 00 0 23640         TRA ENDSMT
1                    MAD I FOR CTSS ... R M GRAHAM ... FEB 1964                  03/15/69 1107.8 PAGE 32

                                                 WHENEVER B.RC/WHENEVER B, STMT .RC


      20317  0074 00 4 24113  T9X    CALL    DICTRY
      20320  0074 00 4 24032         CALL    TSTSC
      20321 -0534 00 4 31422         LXD CMA,4
      20322 -3 00000 4 20567         TXL T12,4,0            DETERMINE WHICH TYPE OF CONDITIONAL
      20323  0020 00 0 20324         TRA T9


                                                 WHENEVER B, STMT .RC


      20324  0500 00 0 32414  T9     CLA     =O15
      20325  0601 00 4 40023         STO E,4
      20326  0500 00 0 31373         CLA SN
      20327  0601 00 0 31405         STO SNT     SAVE STMT LABEL
      20330  0500 00 0 32560         CLA     =H
      20331  0601 00 0 31373         STO SN                 SET STMT LABEL TO BLANKS
      20332  0601 00 0 31414         STO SNPT
      20333 -0500 00 0 32054         CAL TXH                SET SIMPLE CONDITIONAL SWITCH
      20334  0630 00 0 23640         STP     WHENSW        RESET SWITCH
      20335  0074 00 4 24064         CALL    SET
      20336 -0634 00 4 31363         SXD THISST,4
      20337  0074 00 4 25344         CALL    DSCAN
      20340  0074 00 4 26447         CALL    CMPMTX
      20341 -0500 00 0 31402         CAL     F
      20342  0602 00 0 31413         SLW FLTM               SAVE FLAD FOR FLASE TRANSFER
      20343  0361 00 0 32403         ACL     =1
      20344  0602 00 0 31402         SLW F
      20345  0560 00 0 31413         LDQ FLTM
      20346  0074 00 4 27617         CALL    CDLTRA
      20347 -0534 00 1 31422         LXD     CMA,1
      20350  1 77777 1 17461         TXI ANLXX,1,-1
1                    MAD I FOR CTSS ... R M GRAHAM ... FEB 1964                  03/15/69 1107.8 PAGE 33

                                         THROUGH S, FOR VALUES OF /THROUGH S, FOR


      20351                   T10X   DICTRY
      20352                          TSTSC
      20353                          SET
      20354 -0534 00 4 31422         LXD     CMA,4
      20355  0500 00 0 32414         CLA     =O15
      20356  0601 00 4 40023         STO E,4
      20357                          DSCAN
      20360                          TSTOPN  (S-2,2),LC.,T10XB,XX
      20364                          TSTOPN  (S-1,2),RP.
      20370                          TSTOPN  (S-3,2),LP.
      20374                          TSTCON  (S-2,2),IC.
      20400  0500 00 0 41532         CLA V+2
      20401  0767 00 0 00022         ALS 18
      20402  0622 00 2 40017         STD S-4,2              CONSTRUCT WORD WITH
      20403  0500 00 2 40017         CLA S-4,2
      20404  0601 00 2 40022         STO S-1,2              SUBSCRIPT IN DECREMENT
      20405                          TSTOPN  (S-5,2),LC.
      20411                   T10XB  TSTCLS  (S-1,2),VR.
      20415                          LOOPFL
      20416 -0500 00 0 32054         CAL TXH                SET THROUGH SWITCH
      20417  0630 00 0 23652         STP FORSW
      20420 -0500 00 2 40022         CAL S-1,2
      20421  0622 00 1 41527         STD     FOR+1,1
      20422  0560 00 0 41531         LDQ V+1
      20423 -0600 00 1 41526         STQ     FOR,1
      20424 -0500 00 2 40022         CAL S-1,2
      20425 -0320 00 0 32465         ANA     =O77777000000
      20426 -0100 00 0 20430         TNZ *+2                IF STMT LABEL OF SCOPE
      20427                          SCPT
      20430  0774 00 2 00000         AXT     0,2
      20431 -0534 00 1 31422         LXD CMA,1
      20432  1 77777 1 20433         TXI *+1,1,-1           IF CHAR COUNT TO = SIGN IS GREATER
      20433  0634 00 1 17522         SXA     ALPHA,1
      20434                   T10XA  TYPE
      20435  0020 00 0 20440         TRA *+3
      20436  1 00001 2 20434         TXI T10XA,2,1          FIND = SIGN
      20437  0761 00 0 00000         NOP
      20440 -3 00011 2 20553         TXL T11,2,9
      20441  0020 00 0 20442         TRA T10
1                    MAD I FOR CTSS ... R M GRAHAM ... FEB 1964                  03/15/69 1107.8 PAGE 34

                                                            FOR VALUES OF V=


      20442  0500 00 0 32461  T10    CLA     =O2613000000
      20443  0601 00 0 31355         STO TERMLT
      20444                          SET
      20445                          DSCAN
      20446  0500 00 0 31406         CLA FTM
      20447  0400 00 0 32403         ADD     =1
      20450  0601 00 0 31407         STO FTMC               SET UP FLADS
      20451  0500 00 0 31402         CLA F
      20452  0601 00 0 31410         STO FTMB
      20453  0361 00 0 32403         ACL     =1
      20454  0601 00 0 31402         STO F
      20455  0534 00 1 17545         LXA     BETA,1
      20456  1 00001 1 20457         TXI     *+1,1,1
      20457                          CPYN
      20460 -0734 00 2 00000         PDX     ,2
      20461  0500 00 2 40023  T10D   CLA     S,2
      20462  0601 00 0 31450         STO     TR
      20463  0634 00 2 20526         SXA     T10C,2
      20464                          CMPMTX
      20465                          MTXROW  FTM,.EQUAL,F
      20471                          MTXROW  =0,.JMP,FTMB
      20475                          MTXROW  =0,.FLD,F
      20501  0500 00 0 31402         CLA F
      20502  0361 00 0 32403         ACL     =1
      20503  0601 00 0 31402         STO F
      20504                          TSTOPN  TR,CM.(T10A),RC.(T10B)
      20513                   T10A   MTXROW  =0,.JMP,F
      20517                          MTXROW  =0,.FLD,F
      20523  0500 00 0 31402         CLA F
      20524  0361 00 0 32403         ACL     =1
      20525  0601 00 0 31402         STO F
      20526  0774 00 1 00000  T10C   AXT     **,1
      20527                          CPYBAK
      20530 -0534 00 2 31450         LXD     TR,2
      20531  0020 00 0 20461         TRA     T10D
      20532                   T10B   MTXROW  =0,.JMP,FTMC
      20536                          MTXROW  =0,.FLD,FTM
      20542                          MTXROW  =0,.JMP,FTM
      20546                          MTXROW  =0,.FLD,FTMB
      20552  0020 00 0 23640         TRA ENDSMT
1                    MAD I FOR CTSS ... R M GRAHAM ... FEB 1964                  03/15/69 1107.8 PAGE 35

                                                            FOR V=


      20553  0500 00 0 32463  T11    CLA     =O5103000000
      20554  0601 00 0 31355         STO TERMLT
      20555                          SET
      20556                          DSCAN
      20557  0534 00 1 17545         LXA     BETA,1
      20560  1 00001 1 20561         TXI     *+1,1,1
      20561                          LOOP
      20562                          TSTOPN  TR,RC.
      20566  0020 00 0 23640         TRA     ENDSMT
1                    MAD I FOR CTSS ... R M GRAHAM ... FEB 1964                  03/15/69 1107.8 PAGE 36

                                                            WHENEVER B .RC


      20567 -0500 00 0 31403  T12    CAL IF.1               INCREASE CONDITIONAL NESTING
      20570  0361 00 0 32403         ACL     =1
      20571 -0320 00 0 32435         ANA     =O77
      20572  0734 00 4 00000         PAX ,4                 IS DEPTH TOO GREAT
      20573 -3 00062 4 20575         TXL     *+2,4,L35
      20574                          ERROR   24
      20575 -0501 00 0 31361         ORA WHNCNT
      20576  0621 00 0 31403         STA IF.1
      20577  0500 00 0 31361         CLA WHNCNT
      20600  0400 00 0 32436         ADD     =64
      20601  0601 00 0 31361         STO WHNCNT
      20602  0500 00 0 31404         CLA IF.2               SAVE CURRENT COUNTERS AND
      20603  0601 00 4 42173         STO IF,4
      20604 -0500 00 0 31403         CAL IF.1               SET UP FOR NEW CONDITIONAL
      20605  0621 00 0 31404         STA IF.2
      20606 -0634 00 0 31404         ZDC     IF.2
      20607                   T12X   SET
      20610                          DSCAN
      20611                          CMPMTX
      20612                          FCTRA   IF.2
      20615  0020 00 0 23640         TRA ENDSMT
1                    MAD I FOR CTSS ... R M GRAHAM ... FEB 1964                  03/15/69 1107.8 PAGE 37

                                                            OR WHENEVER B


      20616 -0500 00 0 32053  T13    CAL TXL                SET SWITCH FOR CONDITION B
      20617  0630 00 0 20642  T13X   STP T13Y
      20620                          TSTSC
      20621 -0500 00 0 31403         CAL IF.1               IS THIS STMT IN SCOPE OF CONDITIONAL
      20622 -0320 00 0 32435         ANA     =O77
      20623 -0100 00 0 20625         TNZ *+2
      20624                          ERROR   3
      20625                          MTXROW  =0,.JMP,IF.1
      20631                          MTXROW  =0,.FLD,IF.2
      20635  0600 00 0 31424         STZ TRATAG             RESET TRANSFER TAG
      20636                          DICTRY
      20637 -0534 00 4 31404         LXD IF.2,4
      20640  1 00001 4 20641         TXI *+1,4,1
      20641 -0634 00 4 31404         SXD IF.2,4
      20642  3 00000 0 20607  T13Y   TXH T12X,0,0           TXL FOR CONDITION B
      20643  0020 00 0 23640         TRA ENDSMT
1                    MAD I FOR CTSS ... R M GRAHAM ... FEB 1964                  03/15/69 1107.8 PAGE 38

                                                            END OF CONDITIONAL


      20644                   T14    MTXROW  =0,.FLD,IF.1
      20650                          TSTSC
      20651                          MTXROW  =0,.FLD,IF.2
      20655  0600 00 0 31424         STZ TRATAG
      20656                          DICTRY
      20657 -0500 00 0 31403         CAL IF.1
      20660 -0320 00 0 32435         ANA     =O77
      20661 -0100 00 0 20663         TNZ *+2                OF CONDITIONAL
      20662                          ERROR   25
      20663  0734 00 4 00000         PAX ,4
      20664 -0500 00 4 42173         CAL IF,4               REDUCE SCOPE
      20665  0602 00 0 31404         SLW IF.2
      20666  0621 00 0 31403         STA IF.1
      20667  0020 00 0 23640         TRA ENDSMT
1                    MAD I FOR CTSS ... R M GRAHAM ... FEB 1964                  03/15/69 1107.8 PAGE 39

                                                            INTERNAL FUNCTION


      20670  0500 00 0 24327  T16    CLA IFNSW              IS THIS STMT
      20671 -0120 00 0 20673         TMI *+2                NOT IN SCOPE OF INTERNAL FN DFN
      20672                          ERROR   19
      20673                          TSTSC
      20674  0500 00 0 31424         CLA TRATAG             SAVE
      20675  0601 00 0 31430         STO SAVTRA             TRANSFER TAG
      20676  0500 00 0 31412         CLA IFLFA              SAVE
      20677  0601 00 0 31433         STO SVPRLG             FLAD FOR EXTERNAL FN
      20700  0500 00 0 31364         CLA ETYCNT             SAVE ENTRY TAG
      20701  0601 00 0 31434         STO SVETYS             FOR EXTERNAL FN
      20702  0500 00 0 31402         CLA F
      20703  0601 00 0 31412         STO IFLFA              SET FLAD FOR INTERNAL FN
      20704  0361 00 0 32403         ACL     =1
      20705  0601 00 0 31372         STO A
      20706  0361 00 0 32403         ACL     =1
      20707  0601 00 0 31402         STO F
      20710                          MTXROW  =0,.JMP,A
      20714                          MTXROW  =0,.INTF,=0
      20720 -0500 00 0 32054         CAL TXH                TURN ON INTERNAL
      20721  0630 00 0 24327         STP IFNSW              FN SWITCH
      20722  0500 00 0 41526         CLA FOR
      20723  0601 00 0 31425         STO ITRFOR             SAVE STATUS
      20724  0500 00 0 31403         CLA IF.1               OF THRU LOOPS AND CONDITIONALS
      20725  0601 00 0 31426         STO ITRIF1
      20726  0500 00 0 31404         CLA IF.2
      20727  0601 00 0 31427         STO ITRIF2
      20730  0600 00 0 31364  T16X   STZ ETYCNT             ZERO ENTRY TAG
      20731                          SET
      20732                          DSCAN
      20733  0534 00 2 17545         LXA     BETA,2
      20734                          TSTCLS  (S,2),FN.,T20,XX
      20740  0441 00 2 40023         LDI     S,2
      20741  0051 00  000053         IIR     LP.
      20742  0054 00  077777         RFT     77777
      20743  1 00001 2 20763         TXI T16DX,2,1
      20744                   T16D   TSTCLS  (S+1,2),FN.(T16E),VR.(T16E)
      20753  1 77776 2 20754  T16E   TXI     *+1,2,-2
      20754      U                   TSTOPN  (S,2),CM.(T16D),RP.(T16DX)
      20763                   T16DX  TSTOPN  (S+1,2),RC.
      20767  0500 00 0 31423         CLA LAMBDA             GET
      20770  0760 00 0 00006         COM                    DUMMY
      20771  0734 00 1 00000         PAX ,1                 VARIABLE COUNT
      20772  0560 00 0 24327         LDQ IFNSW              WHAT TYPE OF FN
      20773  0162 00 0 21007         TQP T16A               IS IT
      20774 -0634 00 1 41316         SXD XPL,1              EXTERNAL FN SO SET UP
      20775                          PLT     XPL
      20777 -3 00000 1 16715         TXL     P1,1,0        EXIT IF LIST IS EMPTY
      21000  0534 00 2 31423         LXA LAMBDA,2
      21001  1 00001 2 21002  T16C   TXI *+1,2,1
      21002  0560 00 2 41530         LDQ V,2                GET NEXT
      21003 -0600 00 1 41316         STQ XPL,1              PARAMETER AND
      21004                          PLT
1                    MAD I FOR CTSS ... R M GRAHAM ... FEB 1964                  03/15/69 1107.8 PAGE 40

      21005  2 00001 1 21001         TIX T16C,1,1
      21006  0020 00 0 16715         TRA     P1
      21007 -0634 00 1 42110  T16A   SXD PL,1               INTERNAL FN SO SET UP
      21010                          PLT     PL
      21012 -3 00000 1 16715         TXL     P1,1,0        EXIT IF LIST IS EMPTY
      21013  0534 00 2 31423         LXA LAMBDA,2
      21014  1 00001 2 21015  T16B   TXI *+1,2,1            GET NEXT PARAMETER
      21015  0560 00 2 41530         LDQ V,2                AND PUT ON LIST
      21016 -0600 00 1 42110         STQ PL,1
      21017                          PLT
      21020  2 00001 1 21014         TIX T16B,1,1
      21021  0020 00 0 16715         TRA     P1
1                    MAD I FOR CTSS ... R M GRAHAM ... FEB 1964                  03/15/69 1107.8 PAGE 41

                                                            END OF FUNCTION


      21022  0500 00 0 24327  T17    CLA IFNSW
      21023 -0120 00 0 21077         TMI T17A               IS THIS END OF AN INTERNAL FN
      21024 -0500 00 0 32053         CAL TXL                YES--SO TURN OFF
      21025  0630 00 0 24327         STP IFNSW              INTERNAL FUNCTION SWITCH
      21026  0500 00 0 31425         CLA ITRFOR
      21027  0402 00 0 41526         SUB FOR                ARE THRU AND CONDITIONAL
      21030  0100 00 0 21032         TZE     *+2
      21031                          ERROR   17
      21032  0500 00 0 31426         CLA     ITRIF1
      21033  0400 00 0 31427         ADD ITRIF2
      21034  0402 00 0 31403         SUB IF.1               COUNTERS BACK TO STATUS
      21035  0402 00 0 31404         SUB IF.2               BEFORE FUNCTION DEFINITION
      21036  0100 00 0 21040         TZE *+2
      21037                          ERROR   16
      21040                   XX174  TSTSC
      21041                          TTSET   =HEXIT
      21045                          MTXROW  =4,.F,X24
      21051  0500 00 0 31364         CLA ETYCNT             TEST ENTRY TAG
      21052 -0100 00 0 21054         TNZ *+2
      21053                          ERROR   31
      21054                          MTXROW  =0,.FEND,IFLFA
      21060  3 00000 0 17756  T17C   TXH     T5ALTR,0,0     TXL FOR END OF EXTERNAL FUNCTION
      21061  0500 00 0 31412         CLA IFLFA
      21062  0361 00 0 32403         ACL     =1
      21063  0601 00 0 31372         STO A
      21064                          MTXROW  =0,.FLD,A
      21070  0500 00 0 31433         CLA SVPRLG             RESTORE EXTERNAL FN
      21071  0601 00 0 31412         STO IFLFA              FLAD
      21072  0500 00 0 31434         CLA SVETYS             AND
      21073  0601 00 0 31364         STO ETYCNT             ENTRY TAG
      21074  0500 00 0 31430         CLA SAVTRA             AND
      21075  0601 00 0 31424         STO TRATAG             TRANSFER TAG
      21076  0020 00 0 16715         TRA     P1
      21077  0500 00 0 24336  T17A   CLA XFNSW              NOT INTERNAL, SO IS IT END
      21100  0120 00 0 21102         TPL *+2                OF EXTERNAL FN
      21101                          ERROR   25
      21102 -0500 00 0 32053         CAL TXL                SET SWITCHES
      21103  0630 00 0 21060         STP T17C               FOR END OF EXTERNAL FUNCTION
      21104  0630 00 0 24336         STP XFNSW
      21105  0020 00 0 21040         TRA     XX174
1                    MAD I FOR CTSS ... R M GRAHAM ... FEB 1964                  03/15/69 1107.8 PAGE 42

                                                            ENTRY TO F.


      21106  0500 00 0 24327  T18    CLA IFNSW
      21107  0120 00 0 21113         TPL T18C               IS THIS ENTRY TO INTERNAL FN
      21110  0500 00 0 24336         CLA XFNSW              NO THEN IS THIS ENTRY
      21111  0120 00 0 21113         TPL T18C               TO EXTERNAL FN
      21112                          ERROR   25
      21113  0601 00 0 31364  T18C   STO ETYCNT             SET ENTRY TAG
      21114                          TSTSC
      21115  0600 00 0 31424         STZ TRATAG             RESET TRANSFER TAG
      21116                          DICTRY
      21117                          SET
      21120                          DSCAN
      21121                          TSTCLS  (S-1,2),FN.
      21125                          TSTOPN  (S-2,2),LC.
      21131                          MTXROW  =0,.JMP,F
      21135  0500 00 0 24327         CLA IFNSW              IS THIS IN
      21136  0120 00 0 21144         TPL T18A               INTERNAL FN
      21137                          MTXROW  =0,.XFNTY,V+1
      21143  0020 00 0 21156         TRA T18B
      21144                   T18A   ADDANL  (S-1,2)
      21146                          MTXROW  =0,.IFNTY,PAR
      21152  0500 00 2 40022         CLA S-1,2
      21153  0734 00 4 00000         PAX ,4
      21154                          IFT     (V,4)
      21156                   T18B   MTXROW  =2,.PRLG,IFLFA
      21162                          MTXROW  =0,.FLD,F
      21166 -0500 00 0 31402         CAL F
      21167  0361 00 0 32403         ACL     =1
      21170  0602 00 0 31402         SLW F
      21171  0020 00 0 23640         TRA ENDSMT
1                    MAD I FOR CTSS ... R M GRAHAM ... FEB 1964                  03/15/69 1107.8 PAGE 43

                                                            FUNCTION RETURN E


      21172  0500 00 0 24327  T19    CLA IFNSW              IS THIS RETURN FROM
      21173  0120 00 0 21177         TPL T19C               INTERNAL
      21174  0500 00 0 24336         CLA XFNSW              OR
      21175  0120 00 0 21177         TPL T19C               EXTERNAL FN
      21176                          ERROR   25
      21177                   T19C   DICTRY
      21200                          SET
      21201  0500 00 1 40023         CLA E,1
      21202  0402 00 0 32414         SUB     =O15
      21203  0100 00 0 21221         TZE     T19A
      21204                          DSCAN
      21205                          CMPMTX
      21206                          GENER
      21207                          ADDANL  (L+1,1)
      21211                   T19B   MTXROW  IFLFA,.RTNB,PAR
      21215  0500 00 0 31363  T19D   CLA THISST
      21216 -0100 00 0 21220         TNZ *+2
      21217 -0634 00 4 31424         SXD TRATAG,4
      21220  0020 00 0 23640         TRA ENDSMT
      21221                   T19A   MTXROW  IFLFA,.RTN,=0
      21225  0020 00 0 21215         TRA T19D
1                    MAD I FOR CTSS ... R M GRAHAM ... FEB 1964                  03/15/69 1107.8 PAGE 44

                                            EXPRESSION TYPE INTERNAL FUNCTION


      21226  0500 00 2 40023  T20    CLA S,2
      21227  0734 00 4 00000         PAX ,4
      21230                          IFT     (V,4)
      21232                          ADDANL  (S,2)
      21234                          MTXROW  =0,.IFNTY,PAR
      21240                          MTXROW  =2,.PRLG,IFLFA
      21244  1 77777 2 21245         TXI *+1,2,-1
      21245                          TSTOPN  (S,2),FNOP.
      21251  0774 00 1 00000         AXT     0,1
      21252  0774 00 4 77777         AXT     -1,4
      21253                   T20C   TSTCLS  (S+1,2),VR.(T20D),FN.(T20D)
      21262  1 77777 4 21263  T20D   TXI *+1,4,-1
      21263  1 00001 1 21264         TXI *+1,1,1
      21264  0500 00 4 41530         CLA V,4                ADD NAME TO INTERNAL
      21265  0601 00 1 42110         STO PL,1               FUNCTION PARAMETER LIST
      21266  1 77776 2 21267         TXI *+1,2,-2
      21267                          TSTOPN  (S,2),CM.(T20C),RP.(T20DX)
      21276                   T20DX  TSTOPN  (S+1,2),EQ.
      21302 -0634 00 1 42110         SXD PL,1
      21303                          PLT     PL
      21305                   T20E   PLT     (PL,1)
      21307  2 00001 1 21305         TIX T20E,1,1
      21310  0500 00 2 40024         CLA     S+1,2
      21311  0560 00 0 32024         LDQ     .LC
      21312 -0600 00 2 40024         STQ     S+1,2
      21313 -0734 00 2 00000         PDX     ,2
      21314                          CMPMTX
      21315                          GENER
      21316                          ADDANL  (L+1,1)
      21320                          MTXROW  IFLFA,.RTNB,PAR
      21324 -0500 00 0 32053         CAL TXL
      21325  0630 00 0 24327         STP IFNSW
      21326                          MTXROW  =0,.FEND,IFLFA
      21332 -0500 00 0 31412         CAL IFLFA
      21333  0400 00 0 32403         ADD     =1
      21334  0602 00 0 31372         SLW A
      21335                          MTXROW  =0,.FLD,A
      21341  0500 00 0 31433         CLA SVPRLG             RESTORE EXTERNAL FN
      21342  0601 00 0 31412         STO IFLFA              FLAD
      21343  0500 00 0 31434         CLA SVETYS             AND
      21344  0601 00 0 31364         STO ETYCNT             ENTRY TAG
      21345  0020 00 0 16715         TRA     P1
1                    MAD I FOR CTSS ... R M GRAHAM ... FEB 1964                  03/15/69 1107.8 PAGE 45

                                                            ERROR RETURN


      21346  0500 00 0 24327  T21    CLA IFNSW              IS THIS ERROR RETURN FROM
      21347  0120 00 0 21353         TPL T21A               INTERNAL FN
      21350  0500 00 0 24336         CLA XFNSW              OR
      21351  0120 00 0 21353         TPL T21A               FROM EXTERNAL FN
      21352                          ERROR   25
      21353                   T21A   DICTRY
      21354  0500 00 0 24327         CLA IFNSW
      21355  0120 00 0 21360         TPL T21B
      21356 -0500 00 0 41316         CAL XPL                GET EXTERNAL PARAMETER CNT
      21357  0020 00 0 21361         TRA T21C
      21360 -0500 00 0 42110  T21B   CAL PL                 GET INTERNAL PARAMETER CNT
      21361  0771 00 0 00022  T21C   ARS 18
      21362  0400 00 0 32403         ADD     =1
      21363  0601 00 0 31375         STO PAR
      21364                          MTXROW  IFLFA,.ERR,PAR
      21370                          TTSET   =HERROR
      21374                          MTXROW  =4,.F,X24
      21400  0500 00 0 31363         CLA THISST
      21401 -0100 00 0 21403         TNZ *+2
      21402 -0634 00 4 31424         SXD TRATAG,4           SET TRANSFER TAG IF NECESSARY
      21403  0020 00 0 23640         TRA ENDSMT
1                    MAD I FOR CTSS ... R M GRAHAM ... FEB 1964                  03/15/69 1107.8 PAGE 46

                                                            EXTERNAL FUNCTION


      21404  0500 00 0 32554  T22    CLA     =H  *001
      21405  0402 00 0 42333         SUB     RD+15
      21406  0100 00 0 21410         TZE     *+2
      21407                          ERROR   25
      21410  0500 00 0 31402         CLA     F
      21411  0601 00 0 31412         STO     IFLFA
      21412  0361 00 0 32403         ACL     =1
      21413  0601 00 0 31402         STO F
      21414                          MTXROW  =0,.EXTF,=0
      21420 -0500 00 0 32054         CAL TXH
      21421  0630 00 0 24336         STP XFNSW              SET EXTERNAL FN SWITCH
      21422  0020 00 0 20730         TRA T16X
1                    MAD I FOR CTSS ... R M GRAHAM ... FEB 1964                  03/15/69 1107.8 PAGE 47

                                                            EQUIVALENCE


      21423                   T23    SET
      21424                          TSTSC
      21425                          DSCAN
      21426  0534 00 2 17545         LXA     BETA,2
      21427  0774 00 1 00000         AXT     0,1
      21430                   T23A   ETT     =0
      21432  0500 00 0 43601         CLA     ET
      21433  0601 00 0 31372         STO     A
      21434 -0634 00 0 31372         ZDC     A
      21435                          TSTOPN  (S,2),LP.
      21441                   T23B   TSTCLS  (S+1,2),VR.
      21445  1 77777 1 21446         TXI *+1,1,-1
      21446 -0534 00 4 31372         LXD     A,4
      21447  1 00002 4 21450         TXI     *+1,4,2
      21450 -0634 00 4 31372         SXD     A,4
      21451                          DUMMY   (V,1)
      21453                          ETT     (V,1)
      21455                          TSTOPN  (S+2,2),LP.,T23F,XX
      21461                          ETT     =0
      21463  0020 00 0 21500         TRA     T23E
      21464                   T23F   TSTCON  (S+3,2),IC.
      21470                          TSTOPN  (S+4,2),RP.
      21474                          ETT     (V+1,1)
      21476  1 77777 1 21477         TXI *+1,1,-1
      21477  1 77775 2 21500         TXI     *+1,2,-3
      21500                   T23E   TSTOPN  (S+2,2),CM.(T23C),RP.(T23D)
      21507 -0534 00 4 31372  T23D   LXD     A,4
      21510 -0754 00 4 00000         PXD     ,4
      21511  0534 00 4 31372         LXA     A,4
      21512  0601 00 4 43601         STO     ET,4
      21513  0500 00 0 00155         CLA EQ.CT
      21514  0400 00 0 32403         ADD     =1
      21515  0601 00 0 00155         STO EQ.CT
      21516  1 77774 2 21517         TXI     *+1,2,-4
      21517                          TSTOPN  (S-1,2),CM.(T23A),RC.(P1)
      21526  1 77776 2 21441  T23C   TXI     T23B,2,-2
1                    MAD I FOR CTSS ... R M GRAHAM ... FEB 1964                  03/15/69 1107.8 PAGE 48

                                                            ERASABLE
      21527 -0625 00 0 31460  T24    STL     ERASFL
      21530  0020 00 0 17541         TRA     T1


                                                            PRINT FORMAT


      21531  0560 00 0 32510  T25    LDQ     =H.PRINT
      21532  0020 00 0 21605         TRA     T34X


                                                            PRINT ON LINE FORMAT


      21533  0560 00 0 32502  T26    LDQ     =H.COMNT
      21534  0020 00 0 21605         TRA     T34X


                                                            PUNCH FORMAT


      21535  0560 00 0 32513  T27    LDQ     =H.PUNCH
      21536  0020 00 0 21605         TRA     T34X
1                    MAD I FOR CTSS ... R M GRAHAM ... FEB 1964                  03/15/69 1107.8 PAGE 49

                              *                            PRINT RESULTS


      21537  0500 00 0 21603  T28    CLA     T28E
      21540  0621 00 0 21560         STA     T28B
      21541                   T28A   DICTRY
      21542                          SET
      21543  0500 00 0 32037         CLA     .IOLC
      21544  0601 00 2 40022         STO     S-1,2
      21545                          DSCAN
      21546  0500 00 0 32021         CLA     .RPARN
      21547  0601 00 2 40023         STO     S,2
      21550  0500 00 0 32023         CLA     .RC
      21551  0601 00 2 40024         STO     S+1,2
      21552  1 77777 2 21553         TXI     *+1,2,-1
      21553 -0500 00 0 00154         CAL     STFLAD
      21554 -0320 00 0 32607         ANA     =O777777677777
      21555 -0501 00 0 32452         ORA     =O600000      MAKE SURE TAG=6
      21556  0602 00 0 00154         SLW     STFLAD        SYMBOL TABLE
      21557                          CMPMTX
      21560  0020 00 0 00000  T28B   TRA     **
      21561                   T28C   TTSET   =H.PRSLT
      21565                   T28D   MTXROW  =4,.F,X24
      21571                          MTXROW  =0,.P,STFLAD
      21575                          PRLIST
      21576                          MTXROW  =0,.P,=0
      21602  0020 00 0 23640         TRA     ENDSMT
      21603  0 00000 0 21561  T28E   PZE     T28C
1                    MAD I FOR CTSS ... R M GRAHAM ... FEB 1964                  03/15/69 1107.8 PAGE 50

                                                            READ FORMAT


      21604  0560 00 0 32516  T29    LDQ     =H.READ
      21605 -0500 00 0 32053  T34X   CAL     TXL
      21606  0630 00 0 21671         STP     TPFMSW
      21607 -0500 00 0 32054         CAL     TXH
      21610  0020 00 0 21624         TRA     T34Y


                                                            WRITE BINARY TAPE


      21611  0560 00 0 32535  T31    LDQ     =H.WBIN
      21612  0020 00 0 21616         TRA     T34Z


                                                            WRITE BCD TAPE


      21613  0560 00 0 32534  T32    LDQ     =H.TAPWR
      21614  0020 00 0 21621         TRA T34W


                                                            READ BINARY TAPE


      21615  0560 00 0 32514  T33    LDQ     =H.RBIN
      21616 -0500 00 0 32053  T34Z   CAL     TXL
      21617  0020 00 0 21622         TRA T34V
1                    MAD I FOR CTSS ... R M GRAHAM ... FEB 1964                  03/15/69 1107.8 PAGE 51

                                                            READ BCD TAPE


      21620  0560 00 0 32533  T34    LDQ     =H.TAPRD
      21621 -0500 00 0 32054  T34W   CAL     TXH
      21622  0630 00 0 21671  T34V   STP     TPFMSW
      21623 -0500 00 0 32053         CAL TXL
      21624  0630 00 0 21662  T34Y   STP     FMTSW
      21625 -0600 00 0 31365         STQ     ION
      21626                          DICTRY
      21627                          TTSET   ION
      21633                          MTXROW  =4,.IOFN,X24
      21637                          SET
      21640                          DSCAN
      21641  0534 00 1 17545         LXA     BETA,1
      21642  1 00001 1 21643         TXI     *+1,1,1
      21643  0500 00 1 40023         CLA     S,1
      21644 -0734 00 2 00000  T34A   PDX     ,2
      21645  0500 00 2 40023         CLA     S,2
      21646  0601 00 0 31450         STO     TR
      21647                          TSTOPN  (S+1,1),LP.,T34B,XX
      21653  0634 00 2 21713  T34AX  SXA     T34G,2
      21654  0500 00 0 32037         CLA     .IOLC
      21655  0601 00 1 40023         STO S,1                SET UP TO
      21656                          CMPMTX
      21657  0500 00 0 32025         CLA     .TXI           SET PREFIXES
      21660  0601 00 0 31432         STO PSINGR             FOR I/O TYPE
      21661  0601 00 0 31431         STO     PBLCKR         PARAMETERS
      21662 -3 00000 0 21670  FMTSW  BRANCH  FMTSW1
      21663 -0500 00 0 32053         CAL     TXL
      21664  0630 00 0 21662         STP     FMTSW
      21665  0500 00 0 32042         CLA     .FMT
      21666  0601 00 0 31432         STO     PSINGR
      21667  0601 00 0 31431         STO     PBLCKR
      21670                   FMTSW1 CM1
      21671 -3 00000 0 21676  TPFMSW BRANCH  TPFSW1
      21672 -0500 00 0 32053         CAL     TXL
      21673  0630 00 0 21671         STP     TPFMSW
      21674 -0500 00 0 32054         CAL     TXH
      21675  0630 00 0 21662         STP     FMTSW
      21676  0500 00 1 40023  TPFSW1 CLA     L,1
      21677  0402 00 0 32023         SUB .RC
      21700  0100 00 0 21702         TZE *+2
      21701                          ERROR   15
      21702                   T34F   TSTOPN  TR,CM.(T34G),RC.(IOEXIT),RP.(T34C)
      21713  0774 00 1 00000  T34G   AXT     **,1
      21714  0500 00 0 31450  T34E   CLA     TR
      21715  0020 00 0 21644         TRA     T34A
      21716  0500 00 1 40024  T34B   CLA     S+1,1
      21717 -0734 00 4 00000         PDX     ,4
      21720                          TSTOPN  (S,4),EQ.,XX,T34AX
      21724  0634 00 1 21726         SXA     T34D,1
      21725                          LOOPFL
      21726  0774 00 1 00000  T34D   AXT     **,1
      21727  1 77777 1 21730         TXI     *+1,1,-1
1                    MAD I FOR CTSS ... R M GRAHAM ... FEB 1964                  03/15/69 1107.8 PAGE 52

      21730                          LOOP
      21731                          TSTOPN  TR,CM.
      21735  0020 00 0 21714         TRA     T34E
      21736 -0534 00 1 41526  T34C   LXD     FOR,1
      21737                          LOOPSC
      21740  0534 00 1 21713         LXA     T34G,1
      21741  1 77777 1 21742         TXI     *+1,1,-1
      21742  0634 00 1 21713         SXA     T34G,1
      21743  0560 00 1 40023         LDQ     S,1
      21744 -0600 00 0 31450         STQ     TR
      21745  0020 00 0 21702         TRA     T34F
      21746                   IOEXIT MTXROW  =0,.TXI,=0
      21752  0020 00 0 23640         TRA ENDSMT
                              *                   PROGRAM PARAMETER
      21753                   T35    ERROR   13
                              *
                              *
                              *
                              *
                              *
                              *
                              *
                              *                   INSERT FILE
                              *
      21754  0520 00 0 31473  T36    ZET     EOFINS
      21755                          ERROR   34
      21756                          SET
      21757                          TSTSC
      21760  0560 00 0 32560         LDQ     =H
      21761 -0600 00 0 31401         STQ     NAME
      21762  0774 00 4 00007         AXT     7,4
      21763  0500 00 1 40023  T36C   CLA     E,1
      21764  0402 00 0 32414         SUB     =O15
      21765  0100 00 0 21775         TZE     T36B
      21766 -0500 00 0 31401         CAL     NAME
      21767  0767 00 0 00006         ALS     6
      21770 -0501 00 1 40023         ORA     E,1
      21771  1 77777 1 21772         TXI     *+1,1,-1
      21772  0602 00 0 31401         SLW     NAME
      21773  2 00001 4 21763         TIX     T36C,4,1
      21774                          ERROR   12
      21775  0500 00 0 31401  T36B   CLA     NAME
      21776  0402 00 0 32560         SUB     =H
      21777 -0100 00 0 22001         TNZ     *+2
      22000                          ERROR   22
      22001  0774 00 4 00022         AXT     18,4
      22002  0500 00 4 42336         CLA     RD+18,4
      22003  0601 00 4 42313         STO     RDA+18,4
      22004  2 00001 4 22002         TIX     *-2,4,1
      22005  0500 00 0 16366         CLA     F..MAD
      22006  0601 00 0 31474         STO     TF.MAD
      22007  0500 00 0 31401         CLA     NAME
      22010  0601 00 0 16366         STO     F..MAD
      22011  0500 00 0 32264         CLA     LINCT1
      22012  0601 00 0 32265         STO     TLNCT1        SAVE LINE-MARK COUNTER
      22013  0600 00 0 32264         STZ     LINCT1        ZERO OUT COUNTER
1                    MAD I FOR CTSS ... R M GRAHAM ... FEB 1964                  03/15/69 1107.8 PAGE 53

      22014  0500 00 0 31446         CLA     REMKFL
      22015  0601 00 0 22053         STO     REMKSV
      22016 -0625 00 0 31446         STL     REMKFL
      22017  0500 00 0 31475         CLA     EOFFLG
      22020  0601 00 0 31476         STO     EOFXX
      22021  0600 00 0 31475         STZ     EOFFLG
      22022 -0625 00 0 31473         STL     EOFINS
      22023  0074 00 4 00206         TSX     (BFOPN,4
      22024  3 00000 0 32542         TXH     =HR
      22025  3 00000 0 16366         TXH     F..MAD
      22026  3 00000 0 16367         TXH     F..MAD+1
      22027  3 00000 0 37127         TXH     BB1
      22030  3 00000 0 36247         TXH     BB2
      22031  3 00000 0 32537         TXH     =-0
      22032  3 00000 0 32537         TXH     =-0           MODE
      22033  3 00000 0 00204         TXH     CHNXIT
      22034  0020 00 0 17346         TRA     P1STRT
      22035  0600 00 0 31473  T36A   STZ     EOFINS
      22036  0500 00 0 31476         CLA     EOFXX
      22037  0601 00 0 31475         STO     EOFFLG
      22040  0500 00 0 31474         CLA     TF.MAD
      22041  0601 00 0 16366         STO     F..MAD
      22042  0500 00 0 32265         CLA     TLNCT1        RESTORE LINE-MARK COUNTER
      22043  0601 00 0 32264         STO     LINCT1        ..
      22044  0774 00 4 00022         AXT     18,4
      22045  0500 00 4 42313         CLA     RDA+18,4
      22046  0601 00 4 42336         STO     RD+18,4
      22047  2 00001 4 22045         TIX     *-2,4,1
      22050  0520 00 0 22053         ZET     REMKSV        WAS LAST CARD OF ORIGINAL DECK REMARK
      22051  0020 00 0 17413         TRA     RMK.          YES
      22052  0020 00 0 17365         TRA     RE2X.         NO, TEST COLUM 11 AGAIN
      22053  0 00000 0 00000  REMKSV PZE
1                    MAD I FOR CTSS ... R M GRAHAM ... FEB 1964                  03/15/69 1107.8 PAGE 54

                                                            DEFINE BINARY OPERATION


      22054  0600 00 0 31354  T37    STZ UNTAG              ZERO UNARY TAG
      22055                   T37X   SET
      22056                          TSTSC
      22057  0500 00 1 40023         CLA E,1
      22060  0402 00 0 32417         SUB     =H00000.
      22061  0100 00 0 22063         TZE *+2
      22062                          ERROR   3
      22063                          GETDF
      22064  0602 00 0 31376         SLW PBR
      22065  1 77765 1 22066         TXI     *+1,1,-11
      22066                          TSTOPN  (E,1),H.(T37D),L.(T37F),S.(T37C)
      22077  0500 00 0 32404  T37C   CLA     =2
      22100  1 77772 1 22105         TXI     T37E,1,-6
      22101  0500 00 0 32402  T37D   CLA     =0
      22102  1 77766 1 22105         TXI T37E,1,-10
      22103  0500 00 0 32403  T37F   CLA     =1
      22104  1 77767 1 22105         TXI T37E,1,-9
      22105  0601 00 0 31375  T37E   STO PAR
      22106  0500 00 1 40023         CLA E,1                GET. COMPARISON OPN
      22107  0402 00 0 32417         SUB     =H00000.
      22110 -0100 00 0 22113         TNZ T37G
      22111                          GETDF
      22112  0020 00 0 22116         TRA T37H
      22113  0500 00 1 40023  T37G   CLA E,1                NOT DFN TYPE SO,
      22114  0560 00 0 32560         LDQ     =H
      22115 -0763 00 0 00036         LGL 30
      22116 -0534 00 4 30764  T37H   LXD F12,4
      22117 -0340 00 4 31133         LAS     OPCD.,4
      22120  0020 00 0 22122         TRA *+2                OPN IN TABLE
      22121  0020 00 0 22124         TRA T37J
      22122  2 00001 4 22117         TIX     *-3,4,1
      22123                          ERROR   14
      22124 -0500 00 4 30764  T37J   CAL     F12,4
      22125 -0320 00 0 32454         ANA     =O777777
      22126  0601 00 0 31372         STO A
      22127  0534 00 4 31375         LXA PAR,4
      22130  0020 00 4 22133         TRA *+3,4
      22131  0020 00 0 22154         TRA T37L               PRECEDENCE SAME AS--SO USE REF PREC
      22132  0020 00 0 22174         TRA T37K               PREC LOWER THAN--SO LOOK FOR GLB
      22133  0500 00 0 32455         CLA     =O1000000
      22134  0601 00 0 31371         STO     B
      22135 -0534 00 4 30764         LXD F12,4
      22136 -0500 00 4 30764  T37M   CAL     F12,4
      22137 -0320 00 0 32454         ANA     =O777777
      22140  0340 00 0 31372         CAS A                  SMALLEST PRECEDENCE
      22141  0020 00 0 22167         TRA T37N               GREATER THAN A
      22142  0761 00 0 00000         NOP
      22143  2 00001 4 22136  T37P   TIX     T37M,4,1
      22144  0500 00 0 31371  T37T   CLA B
      22145  0402 00 0 31372         SUB A                  DIFFERENCE PRECEDENCES
      22146  0760 00 0 00001         LBT                    INCREMENT IS
      22147  0020 00 0 22151         TRA *+2                HALF OF
1                    MAD I FOR CTSS ... R M GRAHAM ... FEB 1964                  03/15/69 1107.8 PAGE 55

      22150                          ERROR   2             DIFFERENCE
      22151  0771 00 0 00001         ARS     1
      22152  0361 00 0 31372         ACL A                  ADD
      22153  0602 00 0 31372         SLW A                  AND STORE RESULTING PRECEDENCE
      22154 -0534 00 4 30764  T37L   LXD     F12,4
      22155  1 00001 4 22156         TXI     *+1,4,1
      22156 -3 00146 4 22160         TXL     *+2,4,F12-BGNF12+L62
      22157                          ERROR   2
      22160 -0634 00 4 30764         SXD F12,4
      22161  0500 00 0 31354         CLA UNTAG
      22162 -0501 00 0 31372         ORA     A
      22163  0602 00 4 30764         SLW     F12,4
      22164 -0500 00 0 31376         CAL PBR
      22165  0602 00 4 31133         SLW     OPCD.,4
      22166  0020 00 0 16715         TRA P1
      22167  0340 00 0 31371  T37N   CAS B                  PREC GREATER THAN REFERENCE
      22170  0020 00 0 22143         TRA T37P               IS IT
      22171  0020 00 0 22143         TRA T37P               ALSO LESS THAN
      22172  0601 00 0 31371         STO B                  CURRENT LEAST UPPER BOUND
      22173  0020 00 0 22143         TRA T37P
      22174  0600 00 0 31371  T37K   STZ B                  CURRENT GLB = 0
      22175 -0534 00 4 30764         LXD F12,4
      22176 -0500 00 4 30764  T37R   CAL     F12,4
      22177 -0320 00 0 32454         ANA     =O777777
      22200  0340 00 0 31372         CAS A                  SEARCH FOR GLB
      22201  0020 00 0 22204         TRA *+3
      22202  0020 00 0 22204         TRA *+2
      22203  0020 00 0 22212         TRA T37S
      22204  2 00001 4 22176  T37V   TIX     T37R,4,1
      22205  0500 00 0 31371         CLA B
      22206  0560 00 0 31372         LDQ A
      22207 -0600 00 0 31371         STQ     B             INTERCHANGE TWO PRECEDENCES
      22210  0601 00 0 31372         STO A
      22211  0020 00 0 22144         TRA T37T
      22212  0340 00 0 31371  T37S   CAS B                  PREC LESS THAN REF
      22213  0601 00 0 31371         STO B                  SO IS IT GREATER
      22214  0020 00 0 22204         TRA T37V               THAN CURRENT GLB
      22215  0020 00 0 22204         TRA T37V
1                    MAD I FOR CTSS ... R M GRAHAM ... FEB 1964                  03/15/69 1107.8 PAGE 56


      22216  1 77777 1 22217  GETDF  TXI     *+1,1,-1
      22217  0634 00 4 22241  GETDFX SXA     GD1,4
      22220  0774 00 2 00000         AXT     0,2
      22221  0600 00 0 31401         STZ     NAME
      22222  0767 00 2 00044  T37B   ALS     36,2
      22223 -0602 00 0 31401         ORS     NAME
      22224                          TYPE
      22225  0020 00 0 22233         TRA     T37A
      22226  0020 00 0 22230         TRA     *+2
      22227                          ERROR   14
      22230  1 00006 2 22231         TXI     *+1,2,6
      22231 -3 00044 2 22222         TXL     T37B,2,36
      22232                          ERROR   14
      22233  0402 00 0 32417  T37A   SUB     =H00000.
      22234  0100 00 0 22236         TZE     *+2
      22235                          ERROR   14
      22236  0560 00 0 32560         LDQ     =H
      22237 -0763 00 2 00044         LGL     36,2
      22240 -0501 00 0 31401         ORA     NAME
      22241  0774 00 4 00000  GD1    AXT     **,4
      22242  0020 00 4 00001         TRA 1,4
1                    MAD I FOR CTSS ... R M GRAHAM ... FEB 1964                  03/15/69 1107.8 PAGE 57

                                                            SAME SEQUENCE AS


      22243  0500 00 0 17464  T38    CLA     DEFSWT
      22244 -0120 00 0 22246         TMI     *+2
      22245                          ERROR   13
      22246 -0500 00 0 32054         CAL TXH                TURN OFF DEFINE SWITCH
      22247  0630 00 0 17464         STP     DEFSWT
      22250                          SET
      22251                          GTMODE
      22252  0601 00 0 31372         STO A
      22253                          GTOPNC
      22254 -0501 00 0 32561         ORA     =HSAM 00
      22255  0602 00 0 31371         SLW B
      22256                          GTMODE
      22257  0601 00 0 31375         STO PAR
      22260                          MTXROW  A,B,PAR
      22264  0500 00 1 40023         CLA     E,1
      22265  0402 00 0 32414         SUB     =O15
      22266  0020 00 0 16715         TRA     P1
      22267                          ERROR   15
1                    MAD I FOR CTSS ... R M GRAHAM ... FEB 1964                  03/15/69 1107.8 PAGE 58

                                         MODE STRUCTURE


      22270                   T39    SET
      22271 -0500 00 0 32053         CAL TXL
      22272  0630 00 0 17464         STP DEFSWT
      22273                          MTXROW  =0,.DEF,=0
      22277 -0625 00 0 31451         STL     MXOPFL
      22300                   T39C   GTMODE
      22301  0601 00 0 31372         STO A
      22302                          GTOPNC
      22303  0601 00 0 31371         STO B
      22304                          GTMODE
      22305  0601 00 0 31375         STO PAR
      22306                          TSTOPN  (E,1),RT.(T39D),LCM.(T39D),T.(T39A)
      22317 -0500 00 0 32540  T39A   CAL     =HMOD 00
      22320 -0602 00 0 31371         ORS B
      22321                          MTXROW  A,B,PAR
      22325  1 77776 1 22326         TXI     *+1,1,-2
      22326                          GTMODE
      22327  0601 00 0 31372         STO A
      22330                          TSTOPN  (E,1),LCM.(T39H),RT.(T39H),T39E
      22337                   T39E   GTOPNC
      22340 -0501 00 0 32540         ORA     =HMOD 00
      22341  0602 00 0 31371         SLW B
      22342                          GTMODE
      22343  0601 00 0 31375         STO PAR
      22344                   T39G   MTXROW  A,B,PAR
      22350                          TSTOPN  (E,1),RT.(P1),LCM.(T39B)
      22357  1 77777 1 22360  T39B   TXI     *+1,1,-1
      22360  0500 00 1 40023         CLA     E,1
      22361  0402 00 0 32430         SUB     =H00000S
      22362 -0100 00 0 22300         TNZ     T39C
      22363  0634 00 1 17522         SXA     ALPHA,1
      22364  0020 00 0 17465         TRA     FTST
      22365 -0500 00 0 32472  T39D   CAL     =HCNV 00
      22366 -0602 00 0 31371         ORS B
      22367  0020 00 0 22344         TRA T39G
      22370  0500 00 0 32540  T39H   CLA     =HMOD 00
      22371  0601 00 0 31371         STO B
      22372  0600 00 0 31375         STZ PAR
      22373  0020 00 0 22344         TRA T39G
1                    MAD I FOR CTSS ... R M GRAHAM ... FEB 1964                  03/15/69 1107.8 PAGE 59


      22374  0634 00 4 22403  GTMODE SXA     GM1,4
      22375                          TYPE
      22376  0020 00 0 22401         TRA     GM2
      22377                          ERROR   8
      22400  0020 00 0 22403         TRA     GM1
      22401 -0754 00 0 00000  GM2    ZAC
      22402  1 00001 1 22403         TXI     *+1,1,1
      22403  0774 00 4 00000  GM1    AXT     **,4
      22404  0020 00 4 00001         TRA     1,4


      22405  0634 00 4 22427  GTOPNC SXA     GC1,4
      22406                          TYPE
      22407  0020 00 0 22412         TRA     *+3
      22410                          ERROR   15
      22411                          ERROR   15
      22412  0402 00 0 32417         SUB     =H00000.
      22413 -0100 00 0 22431         TNZ     GC2
      22414  0500 00 1 40023         CLA     E,1           TEST FOR SPECIAL OPERATORS .DIF AND .RTN
      22415  0402 00 0 32417         SUB     =H00000.
      22416  0100 00 0 22435         TZE     GC4
      22417                          GETDFX
      22420 -0534 00 4 30764  GC3    LXD     F12,4
      22421 -0340 00 4 31133         LAS     OPCD.,4
      22422  0020 00 0 22424         TRA     *+2
      22423  0020 00 0 22426         TRA     *+3
      22424  2 00001 4 22421         TIX     *-3,4,1
      22425                          ERROR   14
      22426  0754 00 4 00000         PXA     ,4
      22427  0774 00 4 00000  GC1    AXT     **,4
      22430  0020 00 4 00001         TRA     1,4
      22431  0500 00 1 40022  GC2    CLA     E-1,1
      22432  0560 00 0 32560         LDQ     =H
      22433 -0763 00 0 00036         LGL     30
      22434  0020 00 0 22420         TRA     GC3
      22435                   GC4    GETDF
      22436  0602 00 0 22451         SLW     GC5
      22437  0402 00 0 32473         SUB     =HDIF
      22440 -0100 00 0 22443         TNZ     *+3
      22441  0500 00 0 32420         CLA     =O35            USE CODE FOR .DIF
      22442  0020 00 0 22427         TRA     GC1
      22443  0500 00 0 22451         CLA     GC5
      22444  0402 00 0 32543         SUB     =HRTN
      22445  0100 00 0 22447         TZE     *+2
      22446                          ERROR   14
      22447  0500 00 0 32434         CLA     =O76            USE CODE FOR .RTNB
      22450  0020 00 0 22427         TRA     GC1
      22451  0 00000 0 00000  GC5    PZE
1                    MAD I FOR CTSS ... R M GRAHAM ... FEB 1964                  03/15/69 1107.8 PAGE 60

                                                            PROCESS SAP CODE


      22452 -0625 00 0 31451  SAPCD  STL     MXOPFL
      22453  0560 00 0 31414         LDQ     SNPT
      22454 -0763 00 0 00006         LGL     6
      22455 -0754 00 0 00000         ZAC
      22456 -0763 00 0 00030         LGL     24
      22457  0767 00 0 00014         ALS     12
      22460  0602 00 0 31372         SLW     A
      22461  0402 00 0 32474         SUB     =HEND 00
      22462 -0100 00 0 22472         TNZ     SP1
      22463                          MTXROW  (=H   000),A,(=H   000)
      22467 -0500 00 0 32054         CAL     TXH
      22470  0630 00 0 17464         STP     DEFSWT
      22471  0020 00 0 16715         TRA     P1
      22472  0774 00 1 77776  SP1    AXT     -2,1
      22473                          ADR
      22474  0602 00 0 31375         SLW     PAR
      22475                          TSTOPN  (E-1,1),RT.(SP15),LCM.(SP16)
      22504                   SP16   TYPE
      22505  0020 00 0 22514         TRA     SP17
      22506  0761 00 0 00000         NOP
      22507                          NAM
      22510 -3 00014 2 22512         TXL     *+2,2,12
      22511                          ERROR   12
      22512  0771 00 0 00030         ARS     24
      22513 -0602 00 0 31372         ORS     A
      22514                   SP17   TSTOPN  (E-1,1),RT.(SP15),LCM.(SP18)
      22523                   SP18   ADR
      22524                          TSTOPN  (E-1,1),RT.
      22530  0602 00 0 31371  SP19   SLW     B
      22531                          MTXROW  B,A,PAR
      22535  0020 00 0 16715         TRA     P1
      22536 -0500 00 0 32555  SP15   CAL     =H   000
      22537  0020 00 0 22530         TRA     SP19
1                    MAD I FOR CTSS ... R M GRAHAM ... FEB 1964                  03/15/69 1107.8 PAGE 61


      22540  0634 00 4 22551  ADR    SXA     SP2,4
      22541                          TYPE
      22542  0020 00 0 22604         TRA     SP3
      22543  0020 00 0 22554         TRA     SP4
      22544                          ITGR
      22545 -0320 00 0 32446         ANA     =O77777
      22546 -0501 00 0 32555         ORA     =H   000
      22547  0534 00 4 22551  SP24   LXA     SP2,4
      22550  0020 00 4 00001         TRA     1,4
      22551  0774 00 4 00000  SP2    AXT     **,4
      22552 -0500 00 0 31401         CAL     NAME
      22553  0020 00 4 00001         TRA     1,4
      22554                   SP4    NAM
      22555 -3 00022 2 22557         TXL     *+2,2,18
      22556                          ERROR   12
      22557 -0320 00 0 32605         ANA     =O777777000000
      22560  0602 00 0 31401  SP11   SLW     NAME
      22561                          TSTOPN  (E-1,1),LCM.(SP2),RT.(SP2),LMI.(SP13),LPL.(SP14)
      22574  0500 00 0 32447  SP13   CLA     =O100000
      22575 -0602 00 0 31401         ORS     NAME
      22576                   SP14   TYPE
      22577                          ERROR   15
      22600                          ERROR   15
      22601                          ITGR
      22602  0621 00 0 31401         STA     NAME
      22603  0020 00 0 22551         TRA     SP2
      22604                   SP3    TSTOPN  (E-1,1),LST.(SP12),LEQ.(SP20),LCM.(SP21),RT.(SP21)
      22617 -0500 00 0 32555  SP21   CAL     =H   000
      22620  0020 00 0 22560         TRA     SP11
      22621 -0500 00 0 32545  SP12   CAL     =H*  000
      22622  1 77777 1 22560         TXI     SP11,1,-1
      22623                   SP20   TYPE
      22624  0020 00 0 22650         TRA     SP22
      22625  0020 00 0 22634         TRA     SP23
      22626  0074 00 4 25421         CALL    N2OPND
      22627 -0130 00 0 00000  SP28   XCL
      22630                          ABC
      22631 -0501 00 0 32451         ORA     =H000K00
      22632  0767 00 0 00022  SP25   ALS     18
      22633  1 77777 1 22547         TXI     SP24,1,-1
      22634  0 07400 4 25366  SP23   CALL    VROPND
      22635 -0130 00 0 00000         XCL
      22636  0500 00 1 40023         CLA     E,1
      22637  0402 00 0 32417         SUB     =H00000.
      22640  0100 00 0 22645         TZE     SP26
      22641                          MST
      22642 -0501 00 0 32453         ORA     =H000V00
      22643  0767 00 0 00022         ALS     18
      22644  1 77777 1 22560         TXI     SP11,1,-1
      22645                   SP26   TTT
      22646 -0501 00 0 32450         ORA     =H000F00
      22647  1 77777 1 22632         TXI     SP25,1,-1
1                    MAD I FOR CTSS ... R M GRAHAM ... FEB 1964                  03/15/69 1107.8 PAGE 62

      22650                   SP22   TSTOPN  (E-1,1),LPT.(SP27),LDS.(SP29)
      22657  0 07400 4 25417  SP27   CALL    N1OPND
      22660  0020 00 0 22627         TRA     SP28
      22661  0074 00 4 26233  SP29   CALL    ALOPND
      22662  0020 00 0 22627         TRA     SP28
      22663                          ERROR   27
1                    MAD I FOR CTSS ... R M GRAHAM ... FEB 1964                  03/15/69 1107.8 PAGE 63


      22664  0634 00 4 22700  ITGR   SXA     SP5,4
      22665  0601 00 0 31441  SP7    STO     EXP
      22666                          TYPE
      22667  0020 00 0 22677         TRA     SP6
      22670                          ERROR   15
      22671  0500 00 0 31441         CLA     EXP
      22672  0767 00 0 00002         ALS     2
      22673  0400 00 0 31441         ADD     EXP
      22674  0767 00 0 00001         ALS     1
      22675  0400 00 1 40022         ADD     E-1,1
      22676  0020 00 0 22665         TRA     SP7
      22677 -0500 00 0 31441  SP6    CAL     EXP
      22700  0774 00 4 00000  SP5    AXT     **,4
      22701  0020 00 4 00001         TRA     1,4
1                    MAD I FOR CTSS ... R M GRAHAM ... FEB 1964                  03/15/69 1107.8 PAGE 64


      22702  0634 00 4 22721  NAM    SXA     SP8,4
      22703  0774 00 2 00006         AXT     6,2
      22704  0600 00 0 31401         STZ     NAME
      22705  0767 00 2 00044  SP10   ALS     36,2
      22706 -0602 00 0 31401         ORS     NAME
      22707                          TYPE
      22710  0020 00 0 22715         TRA     SP9
      22711  0761 00 0 00000         NOP
      22712  1 00006 2 22713         TXI     *+1,2,6
      22713 -3 00044 2 22705         TXL     SP10,2,36
      22714                          ERROR   12
      22715  0560 00 0 32560  SP9    LDQ     =H
      22716 -0754 00 0 00000         ZAC
      22717 -0763 00 2 00044         LGL     36,2
      22720 -0501 00 0 31401         ORA     NAME
      22721  0774 00 4 00000  SP8    AXT     **,4
      22722  0020 00 4 00001         TRA     1,4
1                    MAD I FOR CTSS ... R M GRAHAM ... FEB 1964                  03/15/69 1107.8 PAGE 65

                              *                DEBUG PRINT OUT CONTROL STATEMENT


      22723  0600 00 0 31462  T40    STZ     ERDPFL
      22724  0020 00 0 16715         TRA     P1


                                         DEFINE UNARY OPERATION


      22725  0500 00 0 32455  T41    CLA     =O1000000
      22726  0601 00 0 31354         STO     UNTAG
      22727  0020 00 0 22055         TRA T37X


                                         MODE NUMBER


      22730                   T42    SET
      22731  0500 00 1 40023         CLA E,1
      22732  0340 00 0 32410         CAS     =8
      22733  0761 00 0 00000         NOP
      22734                          ERROR   8
      22735  0601 00 0 31374         STO     MODE
      22736  1 77777 1 17707         TXI     P177X,1,-1


                              *                DEBUG PRINT OUT CONTROL STATEMENT


      22737  0600 00 0 31452  T43    STZ     MTRXFL
      22740  0020 00 0 16715         TRA     P1


                                                            CONTINUE


      22741 -0625 00 0 31456  T44    STL     CONTFL
      22742                          DICTRY
      22743  0020 00 0 23640         TRA     ENDSMT
1                    MAD I FOR CTSS ... R M GRAHAM ... FEB 1964                  03/15/69 1107.8 PAGE 66

                                                            VECTOR VALUES


      22744                   T45    TSTSC
      22745                          SET
      22746                          DSCAN
      22747  0534 00 1 17545         LXA     BETA,1
      22750                          TSTCLS  (S,1),VR.
      22754                          DUMMY   V+1
      22756                          MST     V+1
      22760 -0501 00 0 32062         ORA     .VR
      22761  0602 00 0 41530         SLW     V
      22762                          MTT     V+1
      22764                          DIM     V+1
      22766 -0534 00 4 31362         LXD     CC,4
      22767  1 77777 4 22770         TXI     *+1,4,-1
      22770 -0634 00 4 41530         SXD     V,4
      22771                          TSTOPN  (S+1,1),LP.,T45R,XX
      22775                   T45S   TSTOPN  (S+1,1),EQ.(T45A),BL.(T45F)
      23004 -0500 00 0 32054  T45A   CAL     TXH
      23005  0630 00 0 23111  T45K   STP     T45MW
      23006  0560 00 1 40025         LDQ     S+2,1
      23007  0500 00 1 40025         CLA S+2,1              FIND
      23010  0402 00 0 31765         SUB     .MINUS
      23011 -0100 00 0 23013         TNZ T45B               ELEMENT
      23012  0020 00 0 23016         TRA     T45BX
      23013  0500 00 1 40025  T45B   CLA S+2,1              VECTOR
      23014  0402 00 0 31764         SUB     .PLUS
      23015 -0100 00 0 23017         TNZ T45C
      23016  0560 00 1 40026  T45BX  LDQ     S+3,1
      23017 -0600 00 0 31372  T45C   STQ     A
      23020                          TSTCLS  A,VR.(T45E),FN.(T45M),CN.(T45GX)
      23031 -0500 00 0 31372  T45GX  CAL     A
      23032  0771 00 0 00022         ARS     18
      23033 -0320 00 0 32446         ANA     =O77777
      23034  0131 00 0 00000         XCA
      23035                   T45G   MTT
      23036                          MTXROW  =0,.SAVLC,V
      23042 -0500 00 0 41530         CAL V
      23043  0771 00 0 00022         ARS 18
      23044 -0320 00 0 32446         ANA     =O77777
      23045  0601 00 0 31372         STO A                  OF VECTOR IN DIMENSION TABLE
      23046                          DIM     A,=0
      23052  0500 00 0 32024         CLA     .LC
      23053  0601 00 1 40024         STO     S+1,1
      23054  0534 00 1 31423         LXA LAMBDA,1           SET UP TO SCAN VECTOR
      23055  1 00001 1 23056  T45N   TXI *+1,1,1
      23056  1 00002 2 23057         TXI *+1,2,2
      23057                          TSTOPN  (S+1,2),RP.,T45P,XX
      23063                          TSTCLS  (S+1,2),FN.(T45T),CN.(T45Q),VR.(T45T)
      23074  0500 00 2 40023  T45Q   CLA     S,2
      23075  0402 00 0 31765         SUB     .MINUS
      23076 -0100 00 0 23103         TNZ T45D
      23077  1 00001 2 23100         TXI *+1,2,1
      23100  0502 00 1 41530         CLS V,1                YES SO REVERSE SIGN
1                    MAD I FOR CTSS ... R M GRAHAM ... FEB 1964                  03/15/69 1107.8 PAGE 67

      23101  0601 00 1 41530         STO V,1                OF CONSTANT
      23102  0020 00 0 23107         TRA T45L
      23103  0500 00 2 40023  T45D   CLA S,2
      23104  0402 00 0 31764         SUB     .PLUS
      23105 -0100 00 0 23107         TNZ T45L
      23106  1 00001 2 23107         TXI *+1,2,1            STEP OVER IT
      23107  0560 00 0 32016  T45L   LDQ     .CONST
      23110 -0600 00 0 31371  T45V   STQ     B
      23111 -3 00000 0 23225  T45MW  TXL     T45X,0,0
      23112                          MTXROW  =0,B,(V,1)
      23116                          TSTOPN  (S,2),CM.(T45N),LC.(T45W)
      23125                   T45W   MTXROW  =0,.RSTLC,=0
      23131  0020 00 0 16715         TRA     P1
      23132                   T45R   TSTCON  (S+2,1),IC.
      23136                          TSTOPN  (S+3,1),RP.
      23142  0500 00 0 41532         CLA V+2                ADD
      23143 -0320 00 0 32446         ANA     =O77777
      23144  0767 00 0 00022         ALS 18                 SUBSCRIPT
      23145  0361 00 0 41530         ACL V                  TO
      23146  0602 00 0 41530         SLW V                  LENGTH OF VECTOR
      23147  1 77775 1 22775         TXI T45S,1,-3
      23150  0560 00 0 32406  T45E   LDQ     =4
      23151  0020 00 0 23035         TRA     T45G
      23152 -0500 00 0 32062  T45MX  CAL     .VR
      23153  0630 00 0 00153         STP     SSSSW
      23154  0560 00 0 32403         LDQ     =1
      23155  0020 00 0 23035         TRA     T45G
      23156                   T45M   TSTOPN  (S+3,1),CM.(T45MZ),RC.(T45MG)
      23165                   T45MZ  TSTCON  (S+4,1),IC.,T45MX,XX
      23171 -0500 00 1 40027         CAL S+4,1
      23172  0402 00 0 31764         SUB     .PLUS
      23173 -0100 00 0 23201         TNZ T45MG
      23174                          TSTCON  (S+5,1),IC.,XX,T45MG
      23200  0020 00 0 23152         TRA     T45MX
      23201  0560 00 0 32405  T45MG  LDQ     =3
      23202  0020 00 0 23035         TRA     T45G
      23203                   T45P   TSTOPN  (S-1,2),LP.
      23207                          TSTCON  (S,2),IC.
      23213                          TSTCLS  (S-2,2),VR.
      23217  0500 00 1 41530         CLA V,1                PUT SUBSCRIPT
      23220  1 00001 1 23221         TXI *+1,1,1            IN
      23221 -0320 00 0 32446         ANA     =O77777
      23222  0767 00 0 00022         ALS 18                 LABEL NAME
      23223  0622 00 2 40021         STD     S-2,2
      23224  1 00003 2 23235         TXI     T45T,2,3
      23225  0534 00 2 31445  T45X   LXA     OPL,2
      23226  1 00001 2 23227         TXI     *+1,2,1
      23227                   T45X1  MTXROW  =0,B,(V,1)
      23233  2 00001 2 23227         TIX     T45X1,2,1
      23234  0020 00 0 23125         TRA     T45W
      23235                   T45T   DUMMY   (V,1)
      23237                          ADDANL  (S+1,2)
      23241  0601 00 1 41530         STO     V,1
      23242  0560 00 0 32041         LDQ     .TXL
      23243  0020 00 0 23110         TRA     T45V
      23244                   T45F   TSTCLS  (S+2,1),VR.
1                    MAD I FOR CTSS ... R M GRAHAM ... FEB 1964                  03/15/69 1107.8 PAGE 68

      23250                          TSTOPN  (S+3,1),LP.
      23254                          TSTOPN  (S+5,1),RP.
      23260                          TSTCON  (S+4,1),IC.
      23264                          TSTOPN  (S+6,1),EQ.
      23270  0500 00 1 40025         CLA     S+2,1
      23271  0734 00 4 00000         PAX     ,4
      23272  0560 00 4 41531         LDQ     V+1,4
      23273 -0600 00 0 31372         STQ     A
      23274  0500 00 4 41530         CLA     V,4
      23275  0402 00 0 41531         SUB     V+1
      23276  0100 00 0 23300         TZE     *+2
      23277                          ERROR   15
      23300 -0534 00 4 31362         LXD     CC,4
      23301 -3 00001 4 23303         TXL     *+2,4,1
      23302                          ERROR   15
      23303 -0534 00 4 41530         LXD     V,4
      23304  0754 00 4 00000         PXA     ,4
      23305  0402 00 0 31372         SUB     A
      23306  0621 00 0 31445         STA     OPL
      23307  0100 00 0 23312         TZE     *+3
      23310 -0120 00 0 23312         TMI     *+2
      23311                          ERROR   15
      23312  0534 00 4 31372         LXA     A,4
      23313 -0634 00 4 41530         SXD     V,4
      23314 -0500 00 0 32053         CAL     TXL
      23315  1 77773 1 23005         TXI     T45K,1,-5
1                    MAD I FOR CTSS ... R M GRAHAM ... FEB 1964                  03/15/69 1107.8 PAGE 69

                              *                DEBUG PRINT OUT CONTROL STATEMENT


      23316 -0625 00 0 31452  T46    STL     MTRXFL
      23317  0020 00 0 16715         TRA     P1


                              *                DEBUG PRINT OUT CONTROL STATEMENT


      23320 -0625 00 0 31455  T47    STL     TAB1FL
      23321  0020 00 0 16715         TRA     P1


                              *                DEBUG PRINT OUT CONTROL STATEMENT


      23322 -0625 00 0 31454  T48    STL     TAB2FL
      23323  0020 00 0 16715         TRA     P1


                              *                DEBUG PRINT OUT CONTROL STATEMENT


      23324 -0625 00 0 31453  T49    STL     DPNXFL
      23325  0020 00 0 16717         TRA     P1XXXX


                              *                DEBUG PRINT OUT CONTROL STATEMENT


      23326 -0625 00 0 31462  T50    STL     ERDPFL
      23327  0020 00 0 16715         TRA     P1
1                    MAD I FOR CTSS ... R M GRAHAM ... FEB 1964                  03/15/69 1107.8 PAGE 70

                                                            REWIND TAPE


      23330  0560 00 0 32523  T51    LDQ     =H.RWT
      23331 -0600 00 0 31365  T51X   STQ     ION
      23332                          DICTRY
      23333                          SET
      23334                          DSCAN
      23335                          CMPMTX
      23336                          TTSET   ION
      23342                          MTXROW  =4,.F,X24
      23346                          ADDANL  (L+1,1)
      23350                          MTXROW  =0,.P,PAR
      23354  0020 00 0 23640         TRA ENDSMT
1                    MAD I FOR CTSS ... R M GRAHAM ... FEB 1964                  03/15/69 1107.8 PAGE 71

                                                            END OF FILE TAPE


      23355  0560 00 0 32503  T52    LDQ     =H.EFT
      23356  0020 00 0 23331         TRA     T51X


                              *                            READ DATA


      23357                   T53    DICTRY
      23360                          TTSET   =H.RDATA
      23364  0500 00 0 00154  T53B   CLA     STFLAD
      23365 -0320 00 0 32607         ANA     =O777777677777
      23366 -0501 00 0 32452         ORA     =O600000      MAKE SURE TAG=6
      23367  0601 00 0 00154         STO     STFLAD        SO SET
      23370                          MTXROW  =4,.IOFN,X24
      23374                          MTXROW  =0,.P,STFLAD
      23400  0020 00 0 23640         TRA     ENDSMT
1                    MAD I FOR CTSS ... R M GRAHAM ... FEB 1964                  03/15/69 1107.8 PAGE 72

                              *                            PRINT COMMENT


      23401                   T54    DICTRY
      23402                          SET
      23403                          DSCAN
      23404                          TTSET   =H.PCOMT
      23410                          MTXROW  =4,.IOFN,X24
      23414  0500 00 0 31362         CLA     CC
      23415  0771 00 0 00022         ARS     18            GET NR WDS
      23416  0601 00 0 31372         STO     A             IN COMMENT
      23417                          MTXROW  =0,.CONST,A
      23423  0774 00 1 77777         AXT     -1,1
      23424  0534 00 2 17545         LXA     BETA,2
      23425  0441 00 2 40023  T54A   LDI     S,2
      23426 -0500 00 0 32610         CAL     =O777777700000
      23427  0440 00 0 32541         IIS     =O500001100000
      23430  0046 00 0 23432         TIF     *+2
      23431                          ERROR   3
      23432                          MTXROW  =0,.CONST,(V,1)
      23436  1 77777 1 23437         TXI     *+1,1,-1
      23437  1 77776 2 23440         TXI     *+1,2,-2
      23440                          TSTOPN  (S-1,2),CM.(T54A),RC.(ENDSMT)
1                    MAD I FOR CTSS ... R M GRAHAM ... FEB 1964                  03/15/69 1107.8 PAGE 73

                                                            BACKSPACE RECORD OF TAPE


      23447  0560 00 0 32501  T55    LDQ     =H.BSR
      23450  0020 00 0 23331         TRA     T51X


                                                            BACKSPACE FILE OF TAPE


      23451  0560 00 0 32500  T56    LDQ     =H.BSF
      23452  0020 00 0 23331         TRA     T51X
1                    MAD I FOR CTSS ... R M GRAHAM ... FEB 1964                  03/15/69 1107.8 PAGE 74

      23453 -0625 00 0 31457  T57    STL     PGCMFL
      23454  0020 00 0 17541         TRA     T1
1                    MAD I FOR CTSS ... R M GRAHAM ... FEB 1964                  03/15/69 1107.8 PAGE 75

                                                            FUNCTION NAME


      23455  0500 00 0 32405  T58    CLA     =3
      23456  0020 00 0 17705         TRA T2X


                                                            STATEMENT LABEL


      23457  0500 00 0 32406  T59    CLA     =4
      23460  0020 00 0 17705         TRA T2X


                                                            FLOATING POINT


      23461 -0754 00 0 00000  T60    PXD ,0
      23462  0020 00 0 17705         TRA T2X
1                    MAD I FOR CTSS ... R M GRAHAM ... FEB 1964                  03/15/69 1107.8 PAGE 76

                                                        NORMAL MODE IS


      23463                   T61    SET
      23464                          TSTSC
      23465  0500 00 1 40024         CLA     E+1,1
      23466  0402 00 0 32414         SUB     =O15
      23467  0100 00 0 23513         TZE     T61F
      23470  0774 00 2 00006         AXT     6,2
      23471 -0754 00 0 00000         PXD ,0
      23472  0767 00 0 00006  T61A   ALS 6
      23473 -0501 00 1 40023         ORA E,1                COLLECT FIRST 6 CHARACTERS
      23474  1 77777 1 23475         TXI *+1,1,-1           OF MODE NAME
      23475  2 00001 2 23472         TIX T61A,2,1
      23476  0774 00 4 00004         AXT     MODTAB-MODXXX,4
      23477 -0340 00 4 23527  T61B   LAS     MODTAB,4
      23500  0020 00 0 23502         TRA *+2
      23501  0020 00 0 23505         TRA T61C
      23502 -3 00000 4 23504         TXL     *+2,4,0
      23503  1 77777 4 23477         TXI     T61B,4,-1
      23504                          ERROR   8
      23505  0754 00 4 00000  T61C   PXA     ,4
      23506  0520 00 0 23530  T61G   ZET     T61D
      23507  0020 00 0 23520         TRA     T61E
      23510  0601 00 0 00156         STO NORMD              MODE CELL
      23511 -0625 00 0 23530         STL     T61D
      23512  0020 00 0 16715         TRA P1
      23513  0500 00 1 40023  T61F   CLA     E,1
      23514  0340 00 0 32410         CAS     =8
      23515  0761 00 0 00000         NOP
      23516                          ERROR   8
      23517  0020 00 0 23506         TRA     T61G
      23520  0402 00 0 00156  T61E   SUB     NORMD
      23521  0100 00 0 16715         TZE     P1
      23522                          ERROR   8


                       23523  MODXXX SYN     *
      23523  626321632544            BCD 1STATEM
      23524  266445236331            BCD 1FUNCTI
      23525  224646432521            BCD 1BOOLEA            OF MODE NAME
      23526  314563252725            BCI     1,INTEGE
      23527  264346216331     MODTAB BCI     1,FLOATI
      23530  0 00000 0 00000  T61D   PZE
1                    MAD I FOR CTSS ... R M GRAHAM ... FEB 1964                  03/15/69 1107.8 PAGE 77

                                                            SET LIST TO


      23531  0560 00 0 32531  T62    LDQ     =H.SET
      23532  0020 00 0 23331         TRA     T51X


                                                            SAVE RETURN


      23533  0560 00 0 32526  T63    LDQ     =H.SAVRN
      23534                   T63X   TTSET
      23537  0500 00 0 24327         CLA IFNSW              IS THIS IN
      23540  0120 00 0 23544         TPL T63A               INTERNAL
      23541  0500 00 0 24336         CLA XFNSW              OR
      23542  0120 00 0 23544         TPL T63A               EXTERNAL FN
      23543                          ERROR   25
      23544                   T63A   DICTRY
      23545                          MTXROW  =4,.IOFN,X24
      23551                          MTXROW  =0,.SRRTN,IFLFA
      23555  0020 00 0 21746         TRA     IOEXIT


                                                            SAVE DATA


      23556  0560 00 0 32525  T64    LDQ     =H.SAVE
      23557  0020 00 0 23563         TRA     T66X


                                                            RESTORE RETURN


      23560  0560 00 0 32521  T65    LDQ     =H.RSTRN
      23561  0020 00 0 23534         TRA T63X


                                                            RESTORE DATA


      23562  0560 00 0 32520  T66    LDQ     =H.RSTOR
      23563 -0500 00 0 32053  T66X   CAL     TXL
      23564  0630 00 0 21671         STP     TPFMSW
      23565 -0500 00 0 32053         CAL     TXL
      23566  0020 00 0 21624         TRA     T34Y
1                    MAD I FOR CTSS ... R M GRAHAM ... FEB 1964                  03/15/69 1107.8 PAGE 78

                                             FORMAT VARIABLE


      23567  0604 00 0 23577  T67    STI     T67S
      23570  0441 00 0 00154         LDI     STFLAD
      23571  0056 00  600000         RNT     600000          IF TAG .NE. 6
      23572  0055 00  500000         SIR     500000        THEN SET IT = 5
      23573  0604 00 0 00154         STI     STFLAD
      23574  0441 00 0 23577         LDI     T67S
      23575  0500 00 0 32537         CLA     =-0           SET MODE TO -0  AND
      23576  0020 00 0 17705         TRA     T2X           GO PROCESS LIKE INTEGER STATEMENT
                              *
      23577  0 00000 0 00000  T67S   PZE


                              *              UNLOAD TAPE


      23600  0560 00 0 32522  T68    LDQ     =H.RUN
      23601  0020 00 0 23331         TRA     T51X


                              *              SET LOW DENSITY


      23602  0560 00 0 32530  T69    LDQ     =H.SETLO
      23603  0020 00 0 23331         TRA     T51X


                              *              SET HIGH DENSITY


      23604  0560 00 0 32527  T70    LDQ     =H.SETHI
      23605  0020 00 0 23331         TRA     T51X


                              *              LOOK AT FORMAT


      23606  0560 00 0 32504  T71    LDQ     =H.LOOK
      23607  0020 00 0 21605         TRA     T34X
1                    MAD I FOR CTSS ... R M GRAHAM ... FEB 1964                  03/15/69 1107.8 PAGE 79

                              *              READ AND PRINT DATA


      23610                   T72    DICTRY
      23611                          TTSET   =H.RPDTA
      23615  0020 00 0 23364         TRA     T53B


                              *              PRINT BCD RESULTS


      23616  0500 00 0 23626  T73    CLA     T73B
      23617  0621 00 0 21560         STA     T28B
      23620  0020 00 0 21541         TRA     T28A
      23621                   T73A   TTSET   =H.PRBCD
      23625  0020 00 0 21565         TRA     T28D
      23626  0 00000 0 23621  T73B   PZE     T73A


                              *              PRINT OCTAL RESULTS


      23627  0500 00 0 23637  T74    CLA     T74B
      23630  0621 00 0 21560         STA     T28B
      23631  0020 00 0 21541         TRA     T28A
      23632                   T74A   TTSET   =H.PROCT
      23636  0020 00 0 21565         TRA     T28D
      23637  0 00000 0 23632  T74B   PZE     T74A
1                    MAD I FOR CTSS ... R M GRAHAM ... FEB 1964                  03/15/69 1107.8 PAGE 80

                                         END OF STATEMENT ROUTINE - ALL EXECUTABLE
                                         STATEMENTS RETURN HERE


                       23640  ENDSMT SYN     *
      23640 -3 00000 0 23652  WHENSW TXL     FORSW,0,0     TXH IF IN SCOPE OF SIMP COND.
      23641  0500 00 0 31405         CLA     SNT
      23642  0601 00 0 31373         STO SN                 RESTORE STMT LABEL
      23643                          MTXROW  =0,.FLD,FLTM
      23647  0600 00 0 31424         STZ TRATAG             RESET TRANSFER TAG
      23650 -0500 00 0 32053         CAL TXL
      23651  0630 00 0 23640         STP     WHENSW
      23652 -3 00000 0 16715  FORSW  TXL     P1,0,0        TXH IF IN SCOPE OF THROUGH
      23653  0500 00 0 31373         CLA SN
      23654  0100 00 0 16715         TZE     P1
      23655 -0534 00 1 41526         LXD FOR,1
      23656  0500 00 1 41526  EN2    CLA FOR,1
      23657  0402 00 0 41527         SUB V-1
      23660 -0100 00 0 16715         TNZ     P1
      23661 -0534 00 2 31373         LXD SN,2
      23662  0600 00 0 31372         STZ A                  THE SCOPE OF LAST UNSATISFIED
      23663  0500 00 1 41527         CLA FOR+1,1
      23664  0622 00 0 31372         STD A                  THROUGH STMT
      23665 -0754 00 2 00000         PXD ,2
      23666  0402 00 0 31372         SUB A
      23667 -0100 00 0 16715         TNZ     P1
      23670  0600 00 0 31424         STZ TRATAG             RESET TRANSFER TAG
      23671                          LOOPSC
      23672  3 00000 1 23656         TXH EN2,1,0
      23673 -0500 00 0 32053         CAL TXL
      23674  0630 00 0 23652         STP FORSW              IF DEPTH=0 TURN OFF THRU SWITCH)
      23675  0020 00 0 16715         TRA     P1
1                    MAD I FOR CTSS ... R M GRAHAM ... FEB 1964                  03/15/69 1107.8 PAGE 81


      23676 -0534 00 1 41526  LOOPFL LXD     FOR,1
      23677  1 00002 1 23700         TXI     *+1,1,2
      23700 -3 00074 1 23702         TXL     *+2,1,L3
      23701                          ERROR   24
      23702 -0634 00 1 41526         SXD     FOR,1
      23703 -0500 00 0 31402         CAL F
      23704  0602 00 1 41527         SLW     FOR+1,1
      23705  0602 00 0 31406         SLW FTM                INCREMENT AND TEST AND EXIT
      23706  0361 00 0 32404         ACL     =2
      23707  0602 00 0 31402         SLW     F
      23710  0020 00 4 00001         TRA     1,4


      23711  0634 00 4 23733  LOOPSC SXA     LPSC1,4
      23712  0500 00 0 31402         CLA F
      23713  0601 00 0 31372         STO A                  SET UP FLADS
      23714  0601 00 0 31371         STO B
      23715  0500 00 1 41527         CLA FOR+1,1
      23716  0621 00 0 31372         STA A
      23717  0361 00 0 32403         ACL     =1
      23720  0621 00 0 31371         STA B
      23721                          MTXROW  =0,.JMP,A
      23725                          MTXROW  =0,.FLD,B
      23731  1 77776 1 23732         TXI *+1,1,-2           DECREASE NESTING
      23732 -0634 00 1 41526         SXD FOR,1              DEPTH
      23733  0774 00 4 00000  LPSC1  AXT     **,4
      23734  0020 00 4 00001         TRA     1,4
1                    MAD I FOR CTSS ... R M GRAHAM ... FEB 1964                  03/15/69 1107.8 PAGE 82


      23735  0634 00 4 24030  LOOP   SXA     LPXT,4
      23736                          CPYN
      23737 -0734 00 2 00000         PDX     ,2
      23740                          TSTOPN  (S,2),CM.
      23744  0500 00 2 40023         CLA     S,2
      23745  0601 00 0 31450         STO     TR
      23746  0634 00 2 23764         SXA     LP2,2
      23747                          CMPMTX
      23750  0500 00 0 31402         CLA F
      23751  0601 00 0 31411         STO FTMA
      23752  0361 00 0 32403         ACL     =1
      23753  0601 00 0 31402         STO F
      23754                          MTXROW  =0,.JMP,FTMA
      23760                          MTXROW  =0,.FLD,FTM
      23764  0774 00 1 00000  LP2    AXT     **,1
      23765                          CPYBAK
      23766  0534 00 1 23764         LXA     LP2,1
      23767  0500 00 0 31764         CLA     .PLUS
      23770  0601 00 1 40023         STO S,1
      23771 -0534 00 2 31450         LXD     TR,2
      23772                          TSTOPN  (S,2),CM.
      23776  0500 00 2 40023         CLA     S,2
      23777  0601 00 0 31450         STO     TR
      24000  0634 00 2 24003         SXA     LP1,2
      24001                          CMPMTX
      24002                          CPYBAK
      24003  0774 00 2 00000  LP1    AXT     **,2
      24004                          CMPMTX
      24005                          MTXROW  =0,.FLD,FTMA
      24011  0534 00 2 24003         LXA     LP1,2
      24012  0500 00 0 32024         CLA .LC
      24013  0601 00 2 40023         STO S,2
      24014 -0534 00 2 31450         LXD     TR,2
      24015  0500 00 2 40023         CLA     S,2
      24016  0601 00 0 31450         STO     TR
      24017  0634 00 2 24027         SXA     LP3,2
      24020                          CMPMTX
      24021  0500 00 0 31406         CLA FTM                WHICH CONSTITUTES TEST
      24022  0361 00 0 32403         ACL     =1
      24023  0601 00 0 31376         STO PBR
      24024                          TCTRA   PBR
      24027  0774 00 1 00000  LP3    AXT     **,1
      24030  0774 00 4 00000  LPXT   AXT     **,4
      24031  0020 00 4 00001         TRA     1,4


                                             SUBROUTINE TO TEST IF INSIDE SCOPE OF SIMPLE CONDITIONA
1                    MAD I FOR CTSS ... R M GRAHAM ... FEB 1964                  03/15/69 1107.8 PAGE 83

      24032  0520 00 0 31363  TSTSC  ZET     THISST
      24033                          ERROR   1,XX
      24034  0020 00 4 00001         TRA     1,4
1                    MAD I FOR CTSS ... R M GRAHAM ... FEB 1964                  03/15/69 1107.8 PAGE 84

                                                            COPY NAME OF VAR FROM S TO CPY


      24035  0774 00 2 00000  CPYN   AXT     0,2
      24036  0500 00 1 40023         CLA     S,1
      24037  0560 00 0 32024         LDQ     .LC
      24040 -0600 00 1 40023         STQ     S,1
      24041  0622 00 0 24044         STD     CPYNX
      24042  0500 00 1 40023  CPYNY  CLA S,1
      24043  0601 00 2 41317         STO CPY,2
      24044 -3 00000 1 24047  CPYNX  TXL     *+3,1,**
      24045  1 77777 2 24046         TXI     *+1,2,-1
      24046  1 77777 1 24042         TXI     CPYNY,1,-1
      24047  0634 00 2 24055         SXA     CPYBAK,2
      24050                          TSTOPN  (S,1),EQ.
      24054  0020 00 4 00001         TRA 1,4


      24055  0774 00 2 00000  CPYBAK AXT     **,2
      24056  0560 00 2 41317  CPYK1  LDQ     CPY,2
      24057 -0600 00 1 40023         STQ     S,1
      24060  1 00001 1 24061         TXI     *+1,1,1
      24061 -3 00000 2 24063         TXL     *+2,2,0
      24062  1 00001 2 24056         TXI     CPYK1,2,1
      24063  0020 00 4 00001         TRA     1,4
1                    MAD I FOR CTSS ... R M GRAHAM ... FEB 1964                  03/15/69 1107.8 PAGE 85

                                                            SETS UP E-REGION FOR DECOMPOSE


      24064 -0500 00 0 31355  SET    CAL TERMLT
      24065 -0320 00 0 32460         ANA     =O77000000
      24066  0622 00 0 24074         STD SETX               CHARACTERS IN STMT TYPE
      24067  0560 00 0 31355         LDQ TERMLT
      24070 -0763 00 0 00006         LGL 6
      24071 -0754 00 0 00000         ZAC
      24072 -0763 00 0 00006         LGL 6                  OF STMT TUPE
      24073  0534 00 1 17522         LXA     ALPHA,1
      24074  2 00000 1 24075  SETX   TIX *+1,1,**           SKIP OVER STMT TYPE
      24075  0560 00 0 32446         LDQ     =O77777
      24076 -0600 00 0 31423         STQ LAMBDA             SET NAME INDEX
      24077  0402 00 1 40022         SUB E-1,1
      24100  0100 00 0 24102         TZE *+2
      24101                          ERROR   13
      24102  0754 00 1 00000         PXA     ,1
      24103  0734 00 2 00000         PAX     ,2
      24104  0500 00 0 32024         CLA .LC
      24105  0601 00 2 40022         STO S-1,2
      24106  0634 00 2 17545         SXA     BETA,2
      24107  1 00001 2 24110         TXI     *+1,2,1
      24110 -0634 00 2 31450         SXD     TR,2
      24111  1 77777 2 24112         TXI     *+1,2,-1
      24112  0020 00 4 00001  TRA14  TRA     1,4
1                    MAD I FOR CTSS ... R M GRAHAM ... FEB 1964                  03/15/69 1107.8 PAGE 86

                                                            MAKE STATEMENT DICTIONARY ENTRY


      24113  0634 00 4 24235  DICTRY SXA     DC3,4
      24114  0500 00 0 31373         CLA     SN
      24115  0402 00 0 32560         SUB     =H
      24116 -0100 00 0 24133         TNZ DC1
      24117 -0500 00 0 31414         CAL SNPT
      24120  0771 00 0 00014         ARS 12
      24121  0402 00 0 32457         SUB     =H00
      24122 -0100 00 0 24133         TNZ DC1
      24123  0600 00 0 31373         STZ SN                 NO---
      24124  0520 00 0 31456         ZET     CONTFL
      24125  0020 00 4 00001         TRA     1,4
      24126  0500 00 0 31424         CLA TRATAG
      24127  0600 00 0 31424         STZ TRATAG             RESET TRANSFER TAG
      24130  0100 00 4 00001         TZE 1,4
      24131                          ERROR   29
      24132  0020 00 4 00001         TRA 1,4
      24133  0634 00 1 24237  DC1    SXA     XA1,1
      24134  0634 00 2 24236         SXA     XB1,2
      24135  0600 00 0 31424         STZ TRATAG             RESET TRANSFER TAG
      24136 -0500 00 0 32054         CAL TXH
      24137  0630 00 0 24230         STP DC20
      24140  0774 00 1 00006         AXT     6,1
      24141  0774 00 2 77777         AXT     -1,2
      24142  0560 00 0 31373         LDQ SN
      24143 -0754 00 0 00000  DC2    PXD ,0
      24144 -0763 00 0 00006         LGL 6                  DECOMPOSE COLS 1-6 OF
      24145  0601 00 2 40007         STO DIC,2              STMT LABEL
      24146  0402 00 0 32424         SUB     =H00000$
      24147 -0100 00 0 24151         TNZ     *+2
      24150                          ERROR   30
      24151  0402 00 0 32407         SUB     =5
      24152  0100 00 0 24154         TZE *+2                ONE CHARACTER PER WORD
      24153  1 77777 2 24154         TXI *+1,2,-1           DELETING BLANKS
      24154  2 00001 1 24143         TIX DC2,1,1
      24155  0774 00 1 00004         AXT     4,1
      24156  0560 00 0 31414         LDQ SNPT
      24157 -0754 00 0 00000  DC7    PXD ,0
      24160 -0763 00 0 00006         LGL 6
      24161  0601 00 2 40007         STO DIC,2              DECOMPOSE COLS 7-10
      24162  0402 00 0 32424         SUB     =H00000$
      24163 -0100 00 0 24165         TNZ     *+2
      24164                          ERROR   30
      24165  0402 00 0 32407         SUB     =5
      24166  0100 00 0 24170         TZE *+2
      24167  1 77777 2 24170         TXI *+1,2,-1
      24170  2 00001 1 24157         TIX DC7,1,1
      24171  0500 00 0 32414         CLA     =O15
      24172  0601 00 2 40007         STO DIC,2
      24173  0500 00 0 32024         CLA .LC
      24174  0601 00 0 40007         STO DIC
      24175  0500 00 0 32403         CLA     =1
      24176  0601 00 0 31423         STO LAMBDA
1                    MAD I FOR CTSS ... R M GRAHAM ... FEB 1964                  03/15/69 1107.8 PAGE 87

      24177  0774 00 4 00014         AXT     L32,4
      24200 -0634 00 4 31450         SXD     TR,4
      24201  0774 00 3 00013         AXT     L32-1,3
      24202                          DSCAN
      24203                          TSTCLS  DIC+1,VR.
      24207                          DUMMY   V-1
      24211                          TSTOPN  DIC+2,LP.(DC9),RC.(DC10)
      24220                   DC10   ADDANL  DIC+1
      24222                          MTXROW  =0,.DICT,PAR
      24226  0500 00 0 40010         CLA DIC+1
      24227  0601 00 0 31373         STO SN
      24230  3 00000 0 24264  DC20   TXH DC4,0,0
      24231                          MTT     V-1,=4
      24235  0774 00 4 00000  DC3    AXT     **,4
      24236  0774 00 2 00000  XB1    AXT     **,2
      24237  0774 00 1 00000  XA1    AXT     **,1
      24240  0020 00 4 00001         TRA 1,4
      24241                   DC9    TSTOPN  DIC+4,RP.
      24245                          TSTCON  DIC+3,IC.
      24251  0500 00 0 41530         CLA V
      24252  0601 00 0 31415         STO MAXLNG
      24253  0767 00 0 00022         ALS 18
      24254  0622 00 0 40010         STD DIC+1              STORE SUBSCRIPT
      24255 -0500 00 0 32053         CAL TXL
      24256  0630 00 0 24230         STP DC20
      24257                          TSTOPN  DIC+5,RC.
      24263  0020 00 0 24220         TRA     DC10
      24264 -0534 00 2 42270  DC4    LXD STLREG,2           SEE
      24265  0500 00 0 41527         CLA V-1                IF
      24266  0340 00 2 42270  DC5    CAS STLREG,2           THIS STMT LABEL VECTOR
      24267  0020 00 0 24271         TRA *+2
      24270  0020 00 0 24306         TRA DC6X               HAS BEEN ENTERED IN TABLE
      24271  2 00001 2 24266         TIX DC5,2,1
      24272 -0534 00 2 42270  DC58   LXD STLREG,2
      24273  1 00002 2 24274         TXI *+1,2,2            IF NOT, ENTER IT
      24274 -3 00074 2 24301         TXL DC12,2,L18         UNLESS TABLE IS FULL
      24275                          ERROR   26
      24276  0500 00 0 24300         CLA PASS58
      24277  0601 00 0 24272         STO DC58
      24300  0020 00 0 24235  PASS58 TRA DC3
      24301 -0634 00 2 42270  DC12   SXD STLREG,2
      24302  0601 00 2 42270         STO STLREG,2
      24303  0500 00 0 31415  DC6    CLA MAXLNG
      24304  0601 00 2 42271         STO STLREG+1,2         SAVE MAXIMUM SUBSCRIPT
      24305  0020 00 0 24235         TRA DC3
      24306  0500 00 2 42271  DC6X   CLA STLREG+1,2         IN TABLE --- SO FIND
      24307  0402 00 0 31415         SUB MAXLNG             WHICH IS MAXIMUM SUBSCRIPT
      24310  0120 00 0 24235         TPL DC3
      24311  0020 00 0 24303         TRA DC6
1                    MAD I FOR CTSS ... R M GRAHAM ... FEB 1964                  03/15/69 1107.8 PAGE 88

                                         THIS SUBROUTINE ANALYZES ADDRESSES
                                         OF MATRIX ENTRY AND THEN STORES
                                         ANY VAR,FN NAMES OR CONSTANTS IN
                                         PROPER TABLES AND REPLACES EACH
                                         BY THEIR TABLE INDEX.ADDRESS TO BE ANALYZED IS IN MQ


      24312  0601 00 0 31375  ADDANL STO PAR
      24313  0120 00 4 00001         TPL 1,4                EXIT IF FLAD OR TEMP
      24314  0634 00 4 24361         SXA     XC8,4
      24315  0534 00 4 31375         LXA PAR,4
      24316  0560 00 4 41530         LDQ     V,4
      24317  0771 00 0 00017         ARS 15
      24320 -0734 00 4 00000         PDX ,4                 WHAT IS
      24321  0634 00 4 24354         SXA     ADX,4
      24322  0131 00 0 00000         XCA
      24323  0020 00 4 24327         TRA     IFNSW,4       ADDRESS
      24324  0020 00 0 24327         TRA     IFNSW         FN NAME
      24325                          ERROR   8
      24326  0020 00 0 24354         TRA     ADX
      24327 -3 00000 0 24336  IFNSW  TXL XFNSW,0,0          TXH WHEN INSIDE INTERNAL FN DFN
      24330 -0534 00 4 42110         LXD PL,4               IS EXTERNAL FN
      24331 -3 00000 4 24336         TXL XFNSW,4,0          PARAM LIST EMPTY
      24332  0340 00 4 42110  ADC    CAS PL,4
      24333  0020 00 0 24335         TRA *+2                IS NAME ON
      24334  0020 00 0 24346         TRA ADB                PARAM LIST
      24335  2 00001 4 24332         TIX ADC,4,1
      24336 -3 00000 0 24354  XFNSW  TXL ADX,0,0            TXH WHEN INSIDE EXTERNAL FN DFN
      24337 -0534 00 4 41316         LXD XPL,4              IS EXTERNAL FN
      24340 -3 00000 4 24354         TXL ADX,4,0            PARAM LIST EMPTY
      24341  0340 00 4 41316  AD2    CAS XPL,4              IS THIS
      24342  0020 00 0 24344         TRA *+2                ADDRESS
      24343  0020 00 0 24352         TRA AD4                A PARAMETER
      24344  2 00001 4 24341         TIX AD2,4,1
      24345  0020 00 0 24354         TRA ADX
      24346 -0500 00 0 32546  ADB    CAL     =O600000000000 SET PFX TO INT FN PAR
      24347  0630 00 0 31375  AD6    STP     PAR
      24350  0634 00 4 31375         SXA     PAR,4
      24351  0020 00 0 24360         TRA ADY
      24352 -0500 00 0 32466  AD4    CAL     =O100000000000 SET PFX TO EXT FN PAR
      24353  0020 00 0 24347         TRA AD6
      24354  0774 00 4 00000  ADX    AXT     **,4
      24355  0131 00 0 00000         XCA
      24356  0522 00 4 24366         XEC     AD7,4         STORE NAME (CONST) IN PROPER TABLE
      24357  0621 00 0 31375         STA     PAR
      24360  0500 00 0 31375  ADY    CLA PAR
      24361  0774 00 4 00000  XC8    AXT     **,4          GET ANALYZED ADDRESS
      24362  0020 00 4 00001         TRA 1,4                AND RETURN
      24363  0074 00 4 25204         CALL    PTTTR
      24364                          ERROR   4
      24365  0 07400 4 25206         CALL    PABCR
      24366  0 07400 4 25202  AD7    CALL    PMSTR
1                    MAD I FOR CTSS ... R M GRAHAM ... FEB 1964                  03/15/69 1107.8 PAGE 89

                                             STORE ROW OF MATRIX AND INCREASE ROW INDEX (I)
                                             CALLING SEQUENCE IS TSX MTRX,4
                                                            *** A-OPERAND
                                                            *** OPERATION
                                                            *** B-OPERAND


      24367  0020 00 0 24370  MTRX   TRA     *+1
      24370 -0500 00 0 24407         CAL     MTRXA
      24371  0621 00 0 24367         STA     MTRX
      24372 -0500 60 4 00002         CAL*    2,4
      24373  0402 00 0 32032         SUB     .EXTF
      24374  0100 00 0 24367         TZE     MTRX
      24375  0634 00 4 24406         SXA     MTRXB,4
      24376  0560 00 0 32532         LDQ     =H.SETUP
      24377  0074 00 4 25204         CALL    PTTTR
      24400 -0501 00 0 32061         ORA     .FN
      24401  0602 00 0 24433         SLW     MTRXC
      24402                          MTXROW  =4,.IOFN,MTRXC
      24406  0774 00 4 00000  MTRXB  AXT     **,4
      24407  0020 00 0 24410  MTRXA  TRA     *+1
      24410  0500 60 4 00001         CLA*    1,4             GET A OPERAND
      24411  0560 60 4 00003         LDQ*    3,4            GET B-OPERAND
      24412  0634 00 4 24431         SXA     XC3,4
      24413 -0534 00 4 47446         LXD     MTX,4
      24414  1 77775 4 24415         TXI     *+1,4,-3
      24415 -0634 00 4 47446         SXD     MTX,4
      24416  0601 00 4 47444         STO     MTX-2,4        STORE A-OPERAND
      24417 -0600 00 4 47446         STQ     MTX,4          STORE B-OPERAND
      24420  0534 00 4 24431         LXA     XC3,4
      24421 -0500 60 4 00002         CAL*    2,4            GET OPERATION
      24422 -0520 00 0 31451         NZT     MXOPFL
      24423 -0320 00 0 32441         ANA     =O777
      24424 -0534 00 4 47446         LXD     MTX,4
      24425  0602 00 4 47445         SLW     MTX-1,4       STORE OPERATION
      24426  0500 00 0 31377         CLA     I
      24427  0400 00 0 32403         ADD     =1            INCREASE ROW INDEX
      24430  0601 00 0 31377         STO     I
      24431  0774 00 4 00000  XC3    AXT     **,4
      24432  0020 00 4 00004         TRA     4,4
      24433  0 00000 0 00000  MTRXC  PZE
1                    MAD I FOR CTSS ... R M GRAHAM ... FEB 1964                  03/15/69 1107.8 PAGE 90

      24434 -0520 00 0 31452  DIAMTX NZT     MTRXFL
      24435  0020 00 4 00001         TRA     1,4
      24436  0634 00 1 24455         SXA     MT7,1
      24437  0634 00 2 24456         SXA     MT8,2
      24440  0634 00 4 24457         SXA     MT1,4
      24441 -0534 00 4 30764         LXD     F12,4
      24442 -0634 00 4 24517         SXD     MT100,4
      24443  0500 00 0 31377         CLA     I
      24444  0767 00 0 00001         ALS     1
      24445  0400 00 0 31377         ADD     I
      24446  0734 00 4 00000         PAX     ,4
      24447  0634 00 0 31377         ZAD     I
      24450 -0634 00 4 24453         SXD     MT3,4
      24451 -0534 00 4 47446         LXD     MTX,4
      24452 -0634 00 4 24454         SXD     MT5,4
      24453  1 00000 4 24454  MT3    TXI     *+1,4,**
      24454  3 00000 4 24461  MT5    TXH     MT11,4,**
      24455  0774 00 1 00000  MT7    AXT     **,1
      24456  0774 00 2 00000  MT8    AXT     **,2
      24457  0774 00 4 00000  MT1    AXT     **,4
      24460  0020 00 4 00001         TRA     1,4
      24461  1 77775 4 24462  MT11   TXI     *+1,4,-3
      24462  0634 00 4 24532         SXA     MT6,4
      24463  0560 00 4 47445         LDQ     MTX-1,4
      24464 -0600 00 0 31445         STQ     OPL
      24465  0560 00 4 47446         LDQ     MTX,4
      24466 -0600 00 0 31443         STQ     TYP
      24467 -0500 00 0 31377         CAL     I
      24470  0400 00 0 32403         ADD     =1
      24471  0602 00 0 31377         SLW     I
      24472  0560 00 4 47444         LDQ     MTX-2,4       GET A-OPND
      24473 -0600 00 0 31442         STQ     CODE
      24474 -0500 00 0 31377         CAL     I
      24475 -0765 00 0 00022         LGR     18
      24476  0074 00 4 25172         TSX     OCTAL,4
      24477  0767 00 0 00006         ALS     6             GET ROW NUMBER
      24500 -0501 00 0 32552         ORA     =H  000
      24501  0602 00 0 42336         SLW     LINE
      24502 -0500 00 0 32560         CAL     =H
      24503  0774 00 4 00012         AXT     10,4
      24504  0602 00 4 42351         SLW     LINE+11,4
      24505  2 00001 4 24504         TIX     *-1,4,1
      24506  0441 00 0 31445         LDI     OPL
      24507 -0054 00  700000         LFT     700000
      24510  0020 00 0 24546         TRA     MT200
      24511  0774 00 2 77777         AXT     -1,2          GET INDEX OF A-OPND IN LINE
      24512  0074 00 1 24754         TSX     PRSSAD,1
      24513  0560 00 0 31443         LDQ     TYP
      24514 -0600 00 0 31442         STQ     CODE
      24515 -0500 00 0 31445         CAL     OPL
      24516  0734 00 1 00000         PAX     ,1
      24517  3 00000 1 24534  MT100  TXH     MT9,1,**
      24520 -0500 00 1 31133         CAL     OPCD.,1       GET OPN
      24521  0602 00 0 42343  MT15   SLW     LINE+5        CODE
      24522  0774 00 2 77771         AXT     -7,2          GET INDEX OF B-OPND IN LINE
      24523 -3 00046 1 24527         TXL     MT10,1,38
1                    MAD I FOR CTSS ... R M GRAHAM ... FEB 1964                  03/15/69 1107.8 PAGE 91

      24524 -3 00047 1 24544         TXL     MT13,1,39     .CONST
      24525 -3 00061 1 24527         TXL     MT10,1,49
      24526 -3 00062 1 24540         TXL     MT14,1,50     .XFNTY
      24527  0074 00 1 24754  MT10   TSX     PRSSAD,1
      24530  0074 00 4 00202  MT101  TSX     WRFLX,4
      24531  0 00013 0 42336         PZE     LINE,,11
      24532  0774 00 4 00000  MT6    AXT     **,4
      24533  0020 00 0 24454         TRA     MT5
      24534 -0765 00 0 00022  MT9    LGR     18
      24535  0074 00 4 25172         TSX     OCTAL,4
      24536  0602 00 0 42336         SLW     LINE
      24537  0020 00 0 24521         TRA     MT15
      24540  0560 00 0 31442  MT14   LDQ     CODE
      24541 -0500 00 0 32524         CAL     =H.
      24542 -0774 00 1 24527         AXC     MT10,1
      24543  0020 00 0 25045         TRA     SAD31
      24544 -0774 00 1 24527  MT13   AXC     MT10,1
      24545  0020 00 0 24772         TRA     SAD21


      24546  0057 00  007777  MT200  RIR     7777
      24547 -0046 00 0 00000         PIA
      24550 -0501 00 0 32442         ORA     =H0000
      24551  0602 00 0 42340         SLW     LINE+2
      24552 -0051 00  444624         IIL     444624
      24553 -0500 00 0 32605         CAL     =O777777000000
      24554  0046 00 0 24650         TIF     MT209
      24555 -0051 00  670341         IIL     444624-234565
      24556  0046 00 0 24650         TIF     MT209
      24557 -0051 00  416421         IIL     234565-622144
      24560  0046 00 0 24650         TIF     MT209
      24561  0774 00 1 00000         AXT     0,1
      24562  0441 00 0 31443         LDI     TYP
      24563  0074 00 4 24662         CALL    MT201
      24564 -0500 00 0 31445         CAL     OPL
      24565 -0320 00 0 32444         ANA     =O7777
      24566 -0100 00 0 24576         TNZ     MT202
      24567  0500 00 0 31442         CLA     CODE
      24570  0402 00 0 32555         SUB     =H   000
      24571  0100 00 0 24622         TZE     MT204
      24572  0500 00 0 32432         CLA     =H00000,
      24573  0601 00 1 41530         STO     V,1
      24574  0601 00 1 41531         STO     V+1,1
      24575  1 77776 1 24620         TXI     MT203,1,-2
      24576  0560 00 0 32432  MT202  LDQ     =H00000,
      24577 -0600 00 1 41530         STQ     V,1
      24600  1 77777 1 24601         TXI     *+1,1,-1
      24601 -0765 00 0 00006         LGR     6
      24602  0601 00 1 41530         STO     V,1
      24603  1 77777 1 24604         TXI     *+1,1,-1
      24604 -0754 00 0 00000         ZAC
      24605 -0763 00 0 00006         LGL     6
      24606  0601 00 1 41530         STO     V,1
      24607  0402 00 0 32426         SUB     =H00000
      24610  0100 00 0 24612         TZE     *+2
1                    MAD I FOR CTSS ... R M GRAHAM ... FEB 1964                  03/15/69 1107.8 PAGE 92

      24611  1 77777 1 24612         TXI     *+1,1,-1
      24612  0500 00 0 31442         CLA     CODE
      24613  0402 00 0 32555         SUB     =H   000
      24614  0100 00 0 24622         TZE     MT204
      24615  0500 00 0 32432         CLA     =H00000,
      24616  0601 00 1 41530         STO     V,1
      24617  1 77777 1 24620         TXI     MT203,1,-1
      24620  0441 00 0 31442  MT203  LDI     CODE
      24621  0074 00 4 24662         CALL    MT201
      24622 -0634 00 1 24634  MT204  SXD     MT205,1
      24623 -3 00000 1 24530         TXL     MT101,1,0
      24624  0774 00 4 00000         AXT     0,4
      24625  0774 00 1 00000         AXT     0,1
      24626  0774 00 2 00006  MT206  AXT     6,2
      24627  0600 00 0 31401         STZ     NAME
      24630  0500 00 1 41530  MT207  CLA     V,1
      24631  0767 00 2 00044         ALS     36,2
      24632 -0602 00 0 31401         ORS     NAME
      24633  1 77777 1 24634         TXI     *+1,1,-1
      24634 -3 00000 1 24642  MT205  TXL     MT208,1,**
      24635  1 00006 2 24636         TXI     *+1,2,6
      24636 -3 00044 2 24630         TXL     MT207,2,36
      24637  0500 00 0 31401         CLA     NAME
      24640  0601 00 4 42341         STO     LINE+3,4
      24641  1 77777 4 24626         TXI     MT206,4,-1
      24642  0560 00 0 32560  MT208  LDQ     =H
      24643 -0754 00 0 00000         ZAC
      24644 -0763 00 2 00044         LGL     36,2
      24645 -0501 00 0 31401         ORA     NAME
      24646  0602 00 4 42341         SLW     LINE+3,4
      24647  0020 00 0 24530         TRA     MT101
      24650  0534 00 4 31445  MT209  LXA     OPL,4
      24651 -3 00000 4 24654         TXL     MT210,4,0
      24652  0500 00 4 31133         CLA     OPCD.,4
      24653  0601 00 0 42341         STO     LINE+3
      24654  0500 00 0 31442  MT210  CLA     CODE
      24655  0767 00 0 00022         ALS     18
      24656 -0501 00 0 31443         ORA     TYP
      24657 -0501 00 0 32553         ORA     =H  0..0
      24660  0602 00 0 42342         SLW     LINE+4
      24661  0020 00 0 24530         TRA     MT101


      24662 -0500 00 0 32604  MT201  CAL     =O770000000000
      24663 -0051 00  420000         IIL     420000        K
      24664  0046 00 0 24737         TIF     MT228
      24665 -0051 00  270000         IIL     420000-650000 V
      24666  0046 00 0 24737         TIF     MT228
      24667 -0051 00  430000         IIL     650000-260000 F
      24670  0046 00 0 24737         TIF     MT228
      24671 -0051 00  260000         IIL     260000
      24672 -0046 00 0 00000         PIA
      24673 -0130 00 0 00000         XCL
      24674  0774 00 2 00003         AXT     3,2
1                    MAD I FOR CTSS ... R M GRAHAM ... FEB 1964                  03/15/69 1107.8 PAGE 93

      24675  0600 00 0 31371         STZ     B
      24676 -0754 00 0 00000  MT220  ZAC
      24677 -0763 00 0 00006         LGL     6
      24700  0601 00 1 41530         STO     V,1
      24701  0402 00 0 32426         SUB     =H00000
      24702  0100 00 0 24705         TZE     *+3
      24703 -0625 00 0 31371         STL     B
      24704  1 77777 1 24705         TXI     *+1,1,-1
      24705  2 00001 2 24676         TIX     MT220,2,1
      24706 -0754 00 0 00000  MT227  ZAC
      24707 -0763 00 0 00003         LGL     3
      24710  0100 00 0 24714         TZE     MT221
      24711  0500 00 0 32422         CLA     =H00000-
      24712  0601 00 1 41530  MT224  STO     V,1
      24713  1 77777 1 24723         TXI     MT222,1,-1
      24714 -0600 00 0 31372  MT221  STQ     A
      24715 -0520 00 0 31372         NZT     A
      24716  0020 00 0 24736         TRA     MT223
      24717 -0520 00 0 31371         NZT     B
      24720  0020 00 0 24723         TRA     MT222
      24721  0500 00 0 32415         CLA     =H00000+
      24722  0020 00 0 24712         TRA     MT224
      24723  0774 00 2 00005  MT222  AXT     5,2
      24724  0600 00 0 31371         STZ     B
      24725 -0754 00 0 00000  MT225  ZAC
      24726 -0763 00 0 00003         LGL     3
      24727  0601 00 1 41530         STO     V,1
      24730  0100 00 0 24733         TZE     *+3
      24731  1 77777 1 24732         TXI     *+1,1,-1
      24732 -0625 00 0 31371         STL     B
      24733  2 00001 2 24725         TIX     MT225,2,1
      24734 -0520 00 0 31371         NZT     B
      24735  1 77777 1 24736         TXI     *+1,1,-1
      24736  0020 00 4 00001  MT223  TRA     1,4
      24737 -0046 00 0 00000  MT228  PIA
      24740 -0130 00 0 00000         XCL
      24741 -0754 00 0 00000         ZAC
      24742 -0763 00 0 00006         LGL     6
      24743  0601 00 1 41530         STO     V,1
      24744  1 77777 1 24745         TXI     *+1,1,-1
      24745  0774 00 2 00004         AXT     4,2
      24746 -0754 00 0 00000  MT233  ZAC
      24747 -0763 00 0 00003         LGL     3
      24750  0601 00 1 41530         STO     V,1
      24751  1 77777 1 24752         TXI     *+1,1,-1
      24752  2 00001 2 24746         TIX     MT233,2,1
      24753  0020 00 0 24706         TRA     MT227


      24754  0560 00 0 31442  PRSSAD LDQ     CODE
      24755 -0754 00 0 00000         ZAC
      24756 -0763 00 0 00003         LGL     3
      24757  0734 00 4 00000         PAX     ,4
      24760  0020 00 4 24770         TRA     SAD2,4
1                    MAD I FOR CTSS ... R M GRAHAM ... FEB 1964                  03/15/69 1107.8 PAGE 94

      24761  0020 00 0 25040         TRA     SAD4           P=7  (FN)
      24762  0020 00 0 25004         TRA     SAD5             6  (PRM)
      24763  0020 00 0 25110         TRA     SAD6             5  (CONS)
      24764  0020 00 0 25010         TRA     SAD7             4  (VR)
      24765  0020 00 0 25050         TRA     SAD8             3  (TM)
      24766  0020 00 0 25061         TRA     SAD9             2  (FLD)
      24767  0020 00 0 25000         TRA     SAD10            1  (XPR)
      24770 -0520 00 0 31442  SAD2   NZT     CODE          0 OTHER
      24771  0020 00 1 00001         TRA     1,1
      24772  0560 00 0 31442  SAD21  LDQ     CODE          CONSTANT
      24773  0074 00 4 25172         TSX     OCTAL,4
      24774  0602 00 2 42336         SLW     LINE,2
      24775  0074 00 4 25172         TSX     OCTAL,4
      24776  0602 00 2 42337         SLW     LINE+1,2
      24777  0020 00 1 00001         TRA     1,1
      25000  0534 00 4 31442  SAD10  LXA     CODE,4         GET EXTERNAL FUNCTION DUMMY
      25001  0500 00 4 41316         CLA     XPL,4          PARAMETER NAME
      25002  0560 00 0 32570         LDQ     =H(EFP)
      25003  0020 00 0 25013         TRA     SAD15
      25004  0534 00 4 31442  SAD5   LXA     CODE,4         GET INTERNAL FUNCTION DUMMY
      25005 -0500 00 4 42110         CAL     PL,4          PARAMETER NAME
      25006  0560 00 0 32575         LDQ     =H(IFP)
      25007  0020 00 0 25013         TRA     SAD15
      25010  0074 00 4 25147  SAD7   CALL    SAD3,MST
      25012  0560 00 0 32602         LDQ     =H(VR)
      25013  0602 00 2 42337  SAD15  SLW     LINE+1,2
      25014 -0600 00 2 42336         STQ     LINE,2
      25015 -0534 00 4 31442         LXD     CODE,4
      25016 -3 00000 4 25025         TXL     SAD16,4,0     IS THERE A CONSTANT PART
      25017  0754 00 4 00000         PXA     ,4
      25020 -0765 00 0 00022         LGR     18
      25021  0074 00 4 25172         TSX     OCTAL,4
      25022 -0501 00 0 32537         ORA     =H-00000
      25023  0602 00 2 42340         SLW     LINE+2,2
      25024  1 77777 2 25025         TXI     *+1,2,-1
      25025  0560 00 0 31442  SAD16  LDQ     CODE
      25026 -0763 00 0 00022         LGL     18
      25027 -0754 00 0 00000         ZAC
      25030 -0763 00 0 00003         LGL     3
      25031  0100 00 1 00001         TZE     1,1
      25032 -0765 00 0 00022         LGR     18
      25033  0074 00 4 25172         TSX     OCTAL,4
      25034  0767 00 0 00030         ALS     24
      25035 -0501 00 0 32565         ORA     =H,0
      25036  0602 00 2 42340         SLW     LINE+2,2
      25037  0020 00 1 00001         TRA     1,1
      25040  0074 00 4 25147  SAD4   CALL    SAD3,TT
      25042  0560 00 0 32524         LDQ     =H.
      25043 -0600 00 2 42340         STQ     LINE+2,2
      25044  0560 00 0 32573         LDQ     =H(FN)
      25045 -0600 00 2 42336  SAD31  STQ     LINE,2
      25046  0602 00 2 42337  SAD30  SLW     LINE+1,2
      25047  0020 00 1 00001         TRA     1,1
      25050 -0763 00 0 00022  SAD8   LGL     18
      25051 -0754 00 0 00000         ZAC
      25052 -0763 00 0 00017         LGL     15
1                    MAD I FOR CTSS ... R M GRAHAM ... FEB 1964                  03/15/69 1107.8 PAGE 95

      25053  0560 00 0 32601         LDQ     =H(TMP)
      25054 -0600 00 2 42336  SAD18  STQ     LINE,2
      25055 -0765 00 0 00022         LGR     18            GET TEMP NR
      25056  0074 00 4 25172         TSX     OCTAL,4
      25057 -0501 00 0 32546         ORA     =H 00000
      25060  0020 00 0 25046         TRA     SAD30
      25061 -0754 00 0 00000  SAD9   ZAC
      25062 -0763 00 0 00017         LGL     15
      25063  0601 00 0 31442         STO     CODE          SAVE POSSIBLE FLAD INDEX
      25064 -0754 00 0 00000         ZAC
      25065 -0763 00 0 00003         LGL     3
      25066  0734 00 4 00000         PAX     ,4             GET FLAD TYPE
      25067 -0754 00 0 00000         ZAC
      25070 -0763 00 0 00017         LGL     15
      25071 -3 00002 4 25075         TXL     SAD22,4,2      DETERMINE TYPE OF FLAD
      25072 -3 00003 4 25077         TXL     SAD23,4,3
      25073  0560 00 0 32572         LDQ     =H(FLD)       REGULAR FLAD
      25074  0020 00 0 25054         TRA     SAD18
      25075  0560 00 0 32603  SAD22  LDQ     =H(WHN)       WHEN TYPE FLAD
      25076  0020 00 0 25054         TRA     SAD18
      25077  0560 00 0 31442  SAD23  LDQ     CODE
      25100  0601 00 0 31442         STO     CODE
      25101 -0773 00 0 00022         RQL     18
      25102  0074 00 4 25172         TSX     OCTAL,4
      25103 -0501 00 0 32537         ORA     =H-00000
      25104  0602 00 2 42340         SLW     LINE+2,2
      25105  0500 00 0 31442         CLA     CODE
      25106  0560 00 0 32600         LDQ     =H(ORW)
      25107  0020 00 0 25054         TRA     SAD18
      25110  0074 00 4 25147  SAD6   CALL    SAD3,ABC
      25112  0602 00 0 31442         SLW     CODE
      25113 -0754 00 0 00000         ZAC
      25114 -0763 00 0 00017         LGL     15
      25115  0734 00 4 00000         PAX     ,4
      25116 -3 00000 4 25124         TXL     SAD24,4,0      DETERMINE MODE
      25117 -3 00001 4 25135         TXL     SAD25,4,1
      25120 -3 00002 4 25127         TXL     SAD26,4,2
      25121  0767 00 0 00014         ALS     12            OTHER MODE
      25122 -0501 00 0 32577         ORA     =H(M=0)
      25123  0020 00 0 25125         TRA     SAD20
      25124 -0500 00 0 32571  SAD24  CAL     =H(FC)        FLOATING POINT
      25125  0602 00 2 42336  SAD20  SLW     LINE,2
      25126  1 77777 2 24772         TXI     SAD21,2,-1
      25127 -0500 00 0 31442  SAD26  CAL     CODE          BOOLEAN
      25130 -0501 00 0 32557         ORA     =H     0
      25131  0560 00 0 32470         LDQ     =HB
      25132 -0600 00 2 42340         STQ     LINE+2,2
      25133  0560 00 0 32567         LDQ     =H(BC)
      25134  0020 00 0 25045         TRA     SAD31
      25135 -0754 00 0 00000  SAD25  ZAC                   INTEGER MODE
      25136 -0763 00 0 00003         LGL     3
      25137  0100 00 0 25145         TZE     SAD27
      25140  0560 00 0 32544         LDQ     =H$           ALPHABETIC CONSTANT
      25141 -0600 00 2 42340         STQ     LINE+2,2
      25142 -0500 00 0 31442         CAL     CODE
      25143  0560 00 0 32566         LDQ     =H(AC) $
1                    MAD I FOR CTSS ... R M GRAHAM ... FEB 1964                  03/15/69 1107.8 PAGE 96

      25144  0020 00 0 25045         TRA     SAD31
      25145 -0500 00 0 32574  SAD27  CAL     =H(IC)        INTEGER CONSTANT
      25146  0020 00 0 25125         TRA     SAD20
      25147 -0500 00 4 00001  SAD3   CAL     1,4
      25150  0621 00 0 25157         STA     SAD1
      25151  0621 00 0 25161         STA     SAD11
      25152  0621 00 0 25167         STA     SAD12
      25153  0634 00 4 25170         SXA     SAD13,4
      25154  0534 00 4 31442         LXA     CODE,4
      25155 -0754 00 4 00000         PXD     ,4
      25156  0601 00 0 31463         STO     SAD14
      25157  0534 00 4 00000  SAD1   LXA     **,4
      25160  2 00001 4 25161         TIX     *+1,4,1
      25161 -0500 00 4 00000  SAD11  CAL     **,4
      25162 -0320 00 0 32465         ANA     =O77777000000
      25163  0402 00 0 31463         SUB     SAD14
      25164  0100 00 0 25166         TZE     *+2
      25165  2 00002 4 25161         TIX     SAD11,4,2
      25166  1 00001 4 25167         TXI     *+1,4,1
      25167 -0500 00 4 00000  SAD12  CAL     **,4
      25170  0774 00 4 00000  SAD13  AXT     **,4
      25171  0020 00 4 00002         TRA     2,4


      25172 -0754 00 0 00000  OCTAL  ZAC
      25173  0634 00 4 25200         SXA     OTLX,4
      25174  0774 00 4 00006         AXT     6,4
      25175  0767 00 0 00003         ALS     3
      25176 -0763 00 0 00003         LGL     3
      25177  2 00001 4 25175         TIX     *-2,4,1
      25200  0774 00 4 00000  OTLX   AXT     **,4
      25201  0020 00 4 00001         TRA     1,4
1                    MAD I FOR CTSS ... R M GRAHAM ... FEB 1964                  03/15/69 1107.8 PAGE 97

      25202 -0500 00 0 25316  PMSTR  CAL     TB21
      25203  0020 00 0 25251         TRA     TB5
      25204 -0500 00 0 25317  PTTTR  CAL     TB22
      25205  0020 00 0 25251         TRA     TB5
      25206 -0500 00 0 25320  PABCR  CAL     TB23
      25207  0020 00 0 25251         TRA     TB5
      25210 -0500 00 0 25321  PDIMR  CAL     TB24
      25211  0020 00 0 25227         TRA     TB7
      25212 -0500 00 0 25322  PMTTR  CAL     TB25
      25213  0020 00 0 25227         TRA     TB7
      25214 -0500 00 0 25323  PPCTR  CAL     TB26
      25215  0020 00 0 25227         TRA     TB7
      25216 -0500 00 0 25324  PERSR  CAL     TB27
      25217  0020 00 0 25227         TRA     TB7
      25220 -0500 00 0 25325  PETTR  CAL     TB28
      25221  0020 00 0 25227         TRA     TB7
      25222 -0500 00 0 25326  PPLTR  CAL     TB29
      25223  0020 00 0 25227         TRA     TB7
      25224 -0500 00 0 25327  PIFTR  CAL     TB30
      25225  0020 00 0 25227         TRA     TB7
      25226 -0500 00 0 25330  PSCPTR CAL     TB31
      25227  0621 00 0 25236  TB7    STA     TB3
      25230  0621 00 0 25235         STA     TB8
      25231  0621 00 0 25233         STA     TB1
      25232  0634 00 4 25240         SXA     TB2,4
      25233  0534 00 4 00000  TB1    LXA     **,4
      25234 -2 00001 4 25242         TNX     TB4,4,1
      25235  0634 00 4 00000  TB8    SXA     **,4
      25236 -0600 00 4 00000  TB3    STQ     **,4
      25237  0754 00 4 00000         PXA     ,4
      25240  0774 00 4 00000  TB2    AXT     **,4
      25241  0020 00 4 00001         TRA     1,4
      25242 -0737 00 4 00000  TB4    PDC     ,4
      25243 -0500 00 4 25330         CAL     TB31,4
      25244  0100 00 0 25240         TZE     TB2
      25245  0600 00 4 25330         STZ     TB31,4
      25246  0602 00 0 31535         SLW     ER7
      25247                          ERROR   7,XX
      25250  0020 00 0 25240         TRA     TB2
      25251 -0600 00 0 31463  TB5    STQ     SAD14
      25252  0634 00 4 25240         SXA     TB2,4
      25253  0634 00 1 25273         SXA     TB13,1
      25254  0602 00 0 31464         SLW     TB6
      25255  0621 00 0 25311         STA     TB9
      25256  0621 00 0 25275         STA     TB12
      25257  0621 00 0 25303         STA     TB15
      25260  0767 00 0 00022         ALS     18
      25261  0622 00 0 25263         STD     TB11
      25262  0074 00 4 00150         CALL    SEARCH
      25263  0 00000 0 31463  TB11   PZE     SAD14,,**
      25264  0020 00 0 25275         TRA     TB12
      25265  1 77777 1 25266         TXI     *+1,1,-1
      25266 -0500 00 0 32606         CAL     =O777777077777
      25267  0320 60 0 25311         ANS*    TB9
      25270  0500 60 0 25311  TB14   CLA*    TB9
      25271 -0734 00 1 00000         PDX     ,1
1                    MAD I FOR CTSS ... R M GRAHAM ... FEB 1964                  03/15/69 1107.8 PAGE 98

      25272  0754 00 1 00000         PXA     ,1
      25273  0774 00 1 00000  TB13   AXT     **,1
      25274  0020 00 0 25240         TRA     TB2
      25275  0500 00 0 00000  TB12   CLA     **
      25276 -0320 00 0 32446         ANA     =O77777
      25277 -0760 00 0 00003         SSM
      25300  0767 00 0 00022         ALS     18
      25301  0400 60 0 25275         ADD*    TB12
      25302 -0120 00 0 25313         TMI     TB17
      25303  0534 00 4 00000  TB15   LXA     **,4
      25304  1 00001 4 25305         TXI     *+1,4,1
      25305 -0754 00 4 00000         PXD     ,4
      25306  0131 00 0 00000         XCA
      25307  0500 00 0 31463         CLA     SAD14
      25310  0074 00 4 00151         CALL    INSERT
      25311  3 00000 1 00000  TB9    TXH     **,1,
      25312  1 77777 1 25270         TXI     TB14,1,-1
      25313  0534 00 1 25273  TB17   LXA     TB13,1
      25314 -0500 00 0 31464         CAL     TB6
      25315  0020 00 0 25242         TRA     TB4


      25316  0 00001 0 72737  TB21   PZE     MST,,1
      25317  0 00002 0 71276  TB22   PZE     TT,,2
      25320  0 00003 0 70675  TB23   PZE     ABC,,3
      25321  0 00004 0 46003  TB24   PZE     DIM,,4
      25322  0 00005 0 47134  TB25   PZE     MT,,5
      25323  0 00006 0 44652  TB26   PZE     PCT,,6
      25324  0 00007 0 47445  TB27   PZE     ERS,,7
      25325  0 00010 0 43601  TB28   PZE U   ET,,8
      25326  0 00011 0 67462  TB29   PZE     PLT,,9
      25327  0 00012 0 44175  TB30   PZE     IFT,,10
      25330  0 00013 0 44112  TB31   PZE     SCPT,,11
      25331  446263606060            BCI     1,MST
      25332  636360606060            BCI     1,TT
      25333  212223606060            BCI     1,ABC
      25334  243144606060            BCI     1,DIM
      25335  446360606060            BCI     1,MT
      25336  472363606060            BCI     1,PCT
      25337  255162606060            BCI     1,ERS
      25340  256360606060            BCI     1,ET
      25341  474363606060            BCI     1,PLT
      25342  312663606060            BCI     1,IFT
      25343  622347636060            BCI     1,SCPT
1                    MAD I FOR CTSS ... R M GRAHAM ... FEB 1964                  03/15/69 1107.8 PAGE 99

                                          THIS SECTION DECOMPOSES A STATEMENT INTO
                                          ITS ELEMENTS (OPERATIONS, PUNCTUATION, AND
                                          OPERANDS)
                                          STATEMENT IS IN E-REGION, 1 CHAR PER WD IN K6 POSITION
                                         ELEMENTS ARE PUT IN S-REGION AS ONE WD ENTRIES
                                         CONTAINS TYPE IN S1,AND FOR OPN-S2=PREC,S4=CODE
                                         FOR OPND-S2=ADD CONST OR MODE,S3=TAG,S4=V INDEX
                                         (ALL NAMES AND CONSTANTS ARE IN V-REGION)


      25344  0634 00 4 26326  DSCAN  SXA     XC5,4
      25345  0600 00 0 31362         STZ     CC
      25346  0634 00 0 26261         ZAD     D9
      25347  0500 00 1 40023  D22    CLA E,1          GET NXT CHAR
      25350  1 77777 1 25351         TXI *+1,1,-1
      25351  0734 00 4 00000         PAX ,4                 WHAT IS NEXT CHARACTER
      25352 -0500 00 4 26446  ADCHAR CAL     CHARAC,4
      25353 -0737 00 4 00000         PDC     ,4
      25354  0020 00 4 00000         TRA     0,4
1                    MAD I FOR CTSS ... R M GRAHAM ... FEB 1964                  03/15/69 1107.8 PAGE 100

                                          ASSEMBLE NAME


      25355  0074 00 4 25366  D1     CALL    VROPND
      25356  0441 00 0 32062         LDI     .VR
      25357  0442 00 0 31423  D21X   OSI     LAMBDA
      25360  0604 00 2 40023         STI     S,2
      25361  0534 00 4 31423         LXA LAMBDA,4
      25362  0602 00 4 41530         SLW V,4                STORE NAME IN V REGION
      25363  1 77777 4 25364         TXI     *+1,4,-1
      25364  0634 00 4 31423         SXA     LAMBDA,4
      25365  1 77777 2 25347         TXI     D22,2,-1


      25366  0634 00 4 25411  VROPND SXA     D1C,4
      25367  0774 00 4 00006         AXT     6,4
      25370  0600 00 0 31401         STZ NAME
      25371  0500 00 1 40022         CLA E-1,1
      25372  0767 00 4 00044  D1A    ALS 36,4               ACCUMULATE UP TO 6
      25373 -0602 00 0 31401         ORS NAME               CHARACTERS
      25374  0634 00 4 25404         SXA     D1B,4
      25375  0074 00 4 26340         TSX TYPE,4       NXT CHAR IS
      25376  1 00001 1 25404         TXI D1B,1,1            END OF NAME
      25377  0761 00 0 00000         NOP
      25400  0534 00 4 25404         LXA     D1B,4
      25401  1 00006 4 25402         TXI *+1,4,6
      25402 -3 00044 4 25372         TXL D1A,4,36
      25403                          ERROR   12
      25404  0774 00 4 00000  D1B    AXT     **,4
      25405  0560 00 0 32560         LDQ     =H
      25406 -0754 00 0 00000         ZAC
      25407 -0763 00 4 00044         LGL 36,4
      25410 -0501 00 0 31401         ORA NAME
      25411  0774 00 4 00000  D1C    AXT     **,4
      25412  0020 00 4 00001         TRA     1,4
1                    MAD I FOR CTSS ... R M GRAHAM ... FEB 1964                  03/15/69 1107.8 PAGE 101

                                          ASSEMBLE AND CONVERT NUMERIC CONSTANT


      25413  0074 00 4 25417  D2X    CALL    N1OPND
      25414  0020 00 0 25357         TRA     D21X
      25415  0074 00 4 25421  D2     CALL    N2OPND
      25416  0020 00 0 25357         TRA     D21X


      25417 -0500 00 0 32054  N1OPND CAL     TXH
      25420  0020 00 0 25422         TRA *+2
      25421 -0500 00 0 32053  N2OPND CAL     TXL
      25422  0634 00 4 25664         SXA     D2YXY,4
      25423  0630 00 0 25444         STP PTSW               SET . SWITCH
      25424  0600 00 0 31367         STZ TAG
      25425 -0634 00 1 25457         SXD BGNNR,1            SAVE INDEX OF FIRST DIGIT
      25426 -0500 00 0 32054         CAL TXH
      25427  0630 00 0 25434         STP D2A
      25430  0600 00 0 31441         STZ EXP
      25431  0600 00 0 31400         STZ PT                 INITIALIZE
      25432  0600 00 0 31401         STZ NAME
      25433  0140 00 0 25434         TOV *+1
      25434  3 00000 0 25467  D2A    TXH D2OVER,0,0         TXL IF MANTISSA OVERFLOWED
      25435  0500 00 0 31401         CLA NAME
      25436  0767 00 0 00002         ALS 2
      25437  0400 00 0 31401         ADD NAME               COLLECT NEXT DIGIT
      25440  0767 00 0 00001         ALS 1
      25441  0400 00 1 40022         ADD E-1,1
      25442  0140 00 0 25465         TOV OVER1              IS INTEGER .G. 2 .P. 35
      25443  0601 00 0 31401         STO NAME
      25444 -3 00000 0 25450  PTSW   TXL D2B,0,0            TXH IF . HAS BEEN PASSED
      25445  0500 00 0 31400         CLA PT
      25446  0400 00 0 32403         ADD     =1
      25447  0601 00 0 31400         STO PT
      25450  0074 00 4 26340  D2B    CALL    TYPE
      25451  0020 00 0 25454         TRA *+3
      25452  0020 00 0 25546         TRA D2E
      25453  0020 00 0 25434         TRA D2A                MORE DIGITS
      25454  0402 00 0 32417         SUB     =H00000.
      25455 -0100 00 0 25646         TNZ D2F                NEXT
      25456  0074 00 4 26340         CALL    TYPE
      25457  1 00000 0 25473  BGNNR  TXI D2C,,**            OPN SO END OF NUMBER
      25460  0020 00 0 25477         TRA D2D
      25461  0500 00 0 25444         CLA PTSW               DECIMAL PART FOLLOWS
      25462  0602 00 0 25444         SLW PTSW
      25463 -0120 00 0 25434         TMI D2A
      25464                          ERROR   15
      25465 -0500 00 0 32053  OVER1  CAL TXL                SET OVERFLOW SWITCH
      25466  0630 00 0 25434         STP D2A
      25467  0500 00 0 31367  D2OVER CLA TAG
      25470  0400 00 0 32403         ADD     =1
      25471  0601 00 0 31367         STO TAG                AFTER MANTISSA OVERFLOW
      25472  0020 00 0 25444         TRA PTSW
1                    MAD I FOR CTSS ... R M GRAHAM ... FEB 1964                  03/15/69 1107.8 PAGE 102

      25473  0500 00 0 25444  D2C    CLA PTSW
      25474  0602 00 0 25444         SLW PTSW               . OCCURS AT END OF NUMBER
      25475 -0120 00 0 25646         TMI D2F
      25476                          ERROR   15
      25477  0402 00 0 32416  D2D    SUB     =H00000E
      25500  0100 00 0 25502         TZE *+2
      25501  1 00001 1 25646         TXI D2F,1,1            NOT EXP-SO BACK UP
      25502  0074 00 4 26340         TSX TYPE,4
      25503  1 00001 1 25506         TXI D2L,1,1
      25504  1 00002 1 25646         TXI D2F,1,2            DFN OP-SO BACK UP
      25505  1 00001 1 25506         TXI D2L,1,1
      25506  0402 00 0 32417  D2L    SUB     =H00000.
      25507 -0100 00 0 25511         TNZ *+2
      25510  1 00001 1 25646         TXI D2F,1,1            CONFIGURATION IS .E. (DEFINED OP)
      25511  0500 00 0 25444         CLA     PTSW
      25512  0602 00 0 25444         SLW PTSW
      25513 -0120 00 0 25515         TMI *+2
      25514                          ERROR   15
      25515  0074 00 4 26340  D2LXX  TSX TYPE,4
      25516  0020 00 0 25521         TRA D2H
      25517                          ERROR   15
      25520  0020 00 0 25533         TRA D2G
      25521  0402 00 0 32415  D2H    SUB     =16
      25522  0100 00 0 25530         TZE D2J                + OR - SIGN
      25523  0402 00 0 32415         SUB     =16
      25524  0100 00 0 25526         TZE *+2
      25525                          ERROR   15
      25526  0502 00 0 32402         CLS     =0
      25527  0601 00 0 31441         STO EXP                MAKE EXPONENT NEGATIVE
      25530  0074 00 4 26340  D2J    TSX TYPE,4
      25531                          ERROR   15
      25532                          ERROR   15
      25533  0621 00 0 31441  D2G    STA EXP                SAVE DIGIT OF EXPONENT
      25534  0074 00 4 26340         TSX TYPE,4
      25535  0020 00 0 25646         TRA D2F
      25536                          ERROR   15
      25537  0500 00 0 31441         CLA EXP
      25540  0767 00 0 00002         ALS 2                  CONVERT EXP
      25541  0400 00 0 31441         ADD EXP
      25542  0767 00 0 00001         ALS 1
      25543  0361 00 1 40022         ACL E-1,1
      25544  0601 00 0 31441         STO EXP
      25545  1 77777 1 25646         TXI D2F,1,-1
      25546  0402 00 0 32416  D2E    SUB     =H00000E
      25547 -0100 00 0 25553         TNZ *+4                E=EXPONENT
      25550  0500 00 0 25444         CLA PTSW
      25551  0602 00 0 25444         SLW PTSW
      25552  0020 00 0 25515         TRA D2LXX
      25553  0400 00 0 32405         ADD     =3
      25554  0100 00 0 25634         TZE D2BOL              B=BOOLEAN
      25555  0402 00 0 32415         SUB     =16
      25556  0100 00 0 25560         TZE D2OCT              K=OCTAL
      25557  0020 00 0 25646         TRA D2F
      25560 -0634 00 1 25563  D2OCT  SXD D2TX,1
      25561 -0634 00 1 25600         SXD D2OA,1
      25562 -0534 00 4 25457         LXD BGNNR,4            FIND NUMBER OF DIGITS(BGNR-D2TX)
1                    MAD I FOR CTSS ... R M GRAHAM ... FEB 1964                  03/15/69 1107.8 PAGE 103

      25563  2 00000 4 25564  D2TX   TIX *+1,4,**           IN CONSTANT
      25564 -3 00014 4 25566         TXL *+2,4,12           CHECK FOR TOO LONG
      25565                          ERROR   27,XX
      25566 -0534 00 1 25457         LXD BGNNR,1            GET INDEX OF INITIAL
      25567  0600 00 0 31401         STZ NAME               DIGIT AND SET UP SCAN
      25570 -0500 00 1 40022  D2OB   CAL E-1,1
      25571  0765 00 0 00003         LRS 3                  COLLECT OCTAL DIGITS
      25572  0100 00 0 25574         TZE *+2                IS DIGIT GREATER THAN 7
      25573                          ERROR   27,XX
      25574 -0500 00 0 31401         CAL NAME
      25575  0763 00 0 00003         LLS 3
      25576  0602 00 0 31401         SLW NAME
      25577  1 77777 1 25600         TXI *+1,1,-1
      25600  3 00000 1 25570  D2OA   TXH D2OB,1,**         IS THIS LAST DIGIT
      25601  0074 00 4 26340         TSX TYPE,4             IS THERE AN OCTAL SCALE FACTOR
      25602  1 00001 1 25654         TXI D2IC,1,1
      25603  1 00001 1 25654         TXI D2IC,1,1
      25604  0601 00 0 31441         STO EXP                YES--
      25605  0074 00 4 26340         TSX TYPE,4
      25606  1 00001 1 25616         TXI D2CT,1,1
      25607  1 00001 1 25616         TXI D2CT,1,1
      25610  0500 00 0 31441         CLA EXP
      25611  0767 00 0 00002         ALS 2                  CONVERT SCALE FACTOR
      25612  0400 00 0 31441         ADD EXP
      25613  0767 00 0 00001         ALS 1
      25614  0400 00 1 40022         ADD E-1,1
      25615  0601 00 0 31441         STO EXP
      25616  0500 00 0 31441  D2CT   CLA EXP
      25617  0767 00 0 00001         ALS 1                  TIMES 3 TO GET AMOUNT OF SHIFT
      25620  0400 00 0 31441         ADD EXP
      25621  0621 00 0 25627         STA D2TXH
      25622  0402 00 0 32423         SUB     =36
      25623 -0120 00 0 25625         TMI     *+2
      25624                          ERROR   27
      25625 -0754 00 0 00000         PXD ,0
      25626  0560 00 0 31401         LDQ NAME
      25627 -0763 00 0 00000  D2TXH  LGL **                 SHIFT CONSTANT BY SCALE FACTOR
      25630  0100 00 0 25632         TZE *+2
      25631                          ERROR   27
      25632 -0600 00 0 31401         STQ     NAME
      25633  0020 00 0 25654         TRA D2IC
      25634  0500 00 0 25444  D2BOL  CLA PTSW               BOOLEAN CONSTANT
      25635 -0120 00 0 25637         TMI *+2
      25636                          ERROR   15
      25637  0500 00 0 31401         CLA NAME
      25640  0100 00 0 25644         TZE *+4                BOOLEAN CONSTANT MUST
      25641  0402 00 0 32403         SUB     =1
      25642  0100 00 0 25644         TZE *+2                EITHER 0 OR 1
      25643                          ERROR   15
      25644 -0500 00 0 32056         CAL     .BC
      25645  0020 00 0 25655         TRA D2Y                EXIT WITH BOOLEAN MODE
      25646  0500 00 0 25444  D2F    CLA PTSW
      25647  1 00001 1 25650         TXI *+1,1,1            TEST IF FLOATING OR INTEGER
      25650  0120 00 0 25666         TPL D2K
      25651  0500 00 0 25434         CLA D2A
      25652  0120 00 0 25654         TPL *+2
1                    MAD I FOR CTSS ... R M GRAHAM ... FEB 1964                  03/15/69 1107.8 PAGE 104

      25653                          ERROR   27
      25654 -0500 00 0 32057  D2IC   CAL     .IC
      25655  0602 00 0 31367  D2Y    SLW TAG                SAVE MODE
      25656  0074 00 4 26340         TSX TYPE,4             IS NEXT A LETTER
      25657  0020 00 0 25661         TRA D2YXX
      25660  0020 00 0 25766         TRA D2MD               IF SO-- MAY BE OTHER MODE
      25661  1 00001 1 25662  D2YXX  TXI *+1,1,1
      25662  0441 00 0 31367         LDI     TAG
      25663 -0500 00 0 31401         CAL     NAME
      25664  0774 00 4 00000  D2YXY  AXT     **,4
      25665  0020 00 4 00001         TRA     1,4
      25666  0500 00 0 31441  D2K    CLA EXP
      25667  0402 00 0 31400         SUB PT
      25670  0400 00 0 31367         ADD TAG                COMPUTE TRUE EXPONENT
      25671  0734 00 4 00000         PAX ,4
      25672  0601 00 0 31441         STO EXP
      25673 -3 00054 4 25676         TXL     *+3,4,44
      25674                          ERROR   27
      25675  0600 00 0 31441         STZ EXP
      25676  0140 00 0 25677         TOV *+1
      25677  0560 00 0 31401         LDQ NAME
      25700 -0754 00 0 00000         PXD ,0                 COUNT
      25701  0763 00 0 00011         LLS 9                  THE
      25702  0774 00 4 00011         AXT     9,4
      25703  1 77777 4 25704         TXI *+1,4,-1           OF
      25704  0771 00 0 00001         ARS 1                  BITS TO BE SHIFTED OFF
      25705 -0100 00 0 25703         TNZ *-2                TO GET MANTISSA .L. 2 .P. 27
      25706 -0754 00 4 00000         PXD ,4
      25707 -0760 00 0 00003         SSM                    COMPUTE AMOUNT
      25710  0767 00 0 00011         ALS 9                  TO ADD TO
      25711  0400 00 0 31345         ADD EXPQ8              BINARY EXPONENT TO
      25712  0601 00 0 31367         STO TAG                COMPENSATE
      25713  0500 00 0 31401         CLA     NAME
      25714  0765 00 4 00010         LRS 8,4                TAKE HIGH 27 BITS OF MANTISSA
      25715 -0501 00 0 31320         ORA EXPNT              INSERT EXPONENT
      25716  0300 00 0 31320         FAD EXPNT              AND NORMALIZE
      25717  0601 00 0 31375         STO PAR
      25720  0500 00 0 31401         CLA NAME
      25721  0560 00 0 32402         LDQ     =0
      25722  0765 00 4 00010         LRS 8,4
      25723 -0773 00 0 00001         RQL 1
      25724  0500 00 0 31375         CLA PAR
      25725  0162 00 0 25734         TQP NORND
      25726  0560 00 0 32536         LDQ     =O377000000000
      25727 -0600 00 0 31375         STQ PAR
      25730  0320 00 0 31375         ANS PAR
      25731  0560 00 0 31375         LDQ PAR
      25732 -0620 00 0 31347         SLQ LBQ1
      25733  0300 00 0 31347         FAD LBQ1
      25734  0361 00 0 31367  NORND  ACL TAG
      25735  0601 00 0 31401         STO NAME               COMPENSATE EXPONENT FOR ROUNDING
      25736  0500 00 0 31441         CLA EXP
      25737  0734 00 4 00000         PAX ,4
      25740 -0120 00 0 25753         TMI D2M
      25741  0140 00 0 25742         TOV *+1
      25742  0560 00 0 31401         LDQ NAME
1                    MAD I FOR CTSS ... R M GRAHAM ... FEB 1964                  03/15/69 1107.8 PAGE 105

      25743 -2 00046 4 25746         TNX     *+3,4,38
      25744  0260 00 0 26004         FMP     MPLY-38
      25745  0131 00 0 00000         XCA
      25746  0260 00 4 26052         FMP MPLY,4             MULTIPLY BY POWER OF TEN IF
      25747 -0140 00 0 25751         TNO *+2                EXPONENT IS POSITIVE
      25750                          ERROR   27
      25751  0601 00 0 31401         STO NAME
      25752  0020 00 0 25763         TRA D2N
      25753  0500 00 0 31401  D2M    CLA NAME
      25754  0161 00 0 25755         TQO *+1
      25755 -2 00046 4 25760         TNX     *+3,4,38
      25756  0241 00 0 26004         FDP     MPLY-38
      25757  0131 00 0 00000         XCA
      25760  0241 00 4 26052         FDP MPLY,4             DIVIDE BY POWER OF TEN IF
      25761  0161 00 0 25765         TQO     P12X
      25762 -0600 00 0 31401         STQ NAME
      25763 -0500 00 0 32060  D2N    CAL     .CN
      25764  0020 00 0 25655         TRA D2Y                EXIT WITH FLOATING MODE
      25765                   P12X   ERROR   27
      25766  0402 00 0 32423  D2MD   SUB     =36
      25767 -0100 00 0 25661         TNZ D2YXX              IS THIS CONSTANT OF ANOTHER MODE
      25770  0074 00 4 26340         TSX TYPE,4             YES--
      25771  0761 00 0 00000         NOP
      25772                          ERROR   15
      25773  0402 00 0 32410         SUB     =8
      25774 -0120 00 0 26000         TMI D2YYY
      25775                          ERROR   15,XX
      25776 -0500 00 0 32060         CAL     .CN
      25777  0020 00 0 25664         TRA D2YXY
      26000  0500 00 1 40022  D2YYY  CLA E-1,1
      26001  0767 00 0 00022         ALS 18                 ASSEMBLE MODE CODE
      26002 -0501 00 0 32060         ORA     .CN
      26003  0020 00 0 25664         TRA D2YXY
      26004 +377454732313            DEC 1E38,1E37,1E36,1E35,1E34,1E33,1E32,1E31,1E30,1E29,1E28,1E27
      26020 +327512676456            DEC 1E26,1E25,1E24,1E23,1E22,1E21,1E20,1E19,1E18,1E17,1E16,1E15
      26034 +257553630410            DEC     1E14,1E13,1E12,1E11,1E10,1E9,1E8,1E7,1E6,1E5,1E4,1E3,1E2
      26051 +204500000000            DEC 1E1,1E0
                       26052  MPLY   SYN     *-1
1                    MAD I FOR CTSS ... R M GRAHAM ... FEB 1964                  03/15/69 1107.8 PAGE 106

                                          LEFT PAREN


      26053  0500 00 0 32022  D3     CLA     .LPARN
      26054  0601 00 2 40023  D3X    STO     S,2
      26055  0534 00 4 26261         LXA     D9,4
      26056  1 00001 4 26057         TXI *+1,4,1      INCREASE LEVEL
      26057  0634 00 4 26261         SXA     D9,4
      26060  0500 00 0 31450         CLA     TR
      26061  0622 00 2 40023         STD     S,2
      26062 -0634 00 2 31450         SXD     TR,2
      26063  0020 00 0 26175         TRA     D21


                                          RIGHT PAREN


      26064  0534 00 4 26261  D4     LXA     D9,4
      26065  1 77777 4 26066         TXI *+1,4,-1     DECREASE LEVEL
      26066  0634 00 4 26261         SXA     D9,4
      26067 -0534 00 4 31450         LXD     TR,4
      26070  0560 00 4 40023         LDQ     S,4
      26071 -0754 00 2 00000         PXD     ,2
      26072  0622 00 4 40023         STD     S,4
      26073 -0600 00 0 31450         STQ     TR
      26074  0500 00 0 32021         CLA     .RPARN
      26075  0020 00 0 26174         TRA D21XX
1                    MAD I FOR CTSS ... R M GRAHAM ... FEB 1964                  03/15/69 1107.8 PAGE 107

                                          POINT


      26076  0074 00 4 26340  D5     CALL    TYPE
      26077  0020 00 0 26127         TRA D5A                FUNCTION NAME OR ...
      26100  0020 00 0 26102         TRA D5B                LETTER---DEFINED OPN
      26101  0020 00 0 25413         TRA D2X                DIGIT---FLOATING CONSTANT


      26102  0774 00 4 00006  D5B    AXT     6,4
      26103  0600 00 0 31401         STZ NAME
      26104  0767 00 4 00044  D5C    ALS 36,4
      26105 -0602 00 0 31401         ORS NAME               COLLECT UP TO 6 LETTERS
      26106  0634 00 4 26113         SXA     XC15,4
      26107  0074 00 4 26340         CALL    TYPE
      26110  0020 00 0 26117         TRA D5D                END OF DEFINED OPN
      26111  0020 00 0 26113         TRA *+2
      26112                          ERROR   14
      26113  0774 00 4 00000  XC15   AXT     **,4
      26114  1 00006 4 26115         TXI *+1,4,6
      26115 -3 00044 4 26104         TXL D5C,4,36
      26116                          ERROR   14
      26117  0402 00 0 32417  D5D    SUB     =H00000.
      26120  0100 00 0 26122         TZE *+2
      26121                          ERROR   14
      26122  0560 00 0 32560         LDQ     =H
      26123  0534 00 4 26113         LXA     XC15,4
      26124 -0763 00 4 00044         LGL 36,4
      26125 -0501 00 0 31401         ORA NAME
      26126  0020 00 0 26165         TRA D7X


      26127  0402 00 0 32417  D5A    SUB     =H00000.
      26130  0100 00 0 26156         TZE D5E
      26131                   D5AX   TSTOPN  (S-1,2),RP.,D5H,XX
      26135                          TSTCLS  (S-1,2),VR.
      26141 -0055 00  700000         SIL     FN.
      26142  0604 00 2 40022         STI     S-1,2
      26143  0500 00 1 40022         CLA     E-1,1
      26144  0402 00 0 32433         SUB     =H00000(
      26145  0100 00 0 26154         TZE     D5HX
      26146  1 00001 1 25347         TXI D22,1,1
      26147  0500 00 1 40022  D5H    CLA     E-1,1
      26150  0402 00 0 32433         SUB     =H00000(
      26151  0100 00 0 26154         TZE     D5HX
      26152  0500 00 0 32045         CLA     .FNOP
      26153  1 00001 1 26174         TXI     D21XX,1,1
      26154  0500 00 0 32045  D5HX   CLA     .FNOP
      26155  0020 00 0 26054         TRA     D3X
1                    MAD I FOR CTSS ... R M GRAHAM ... FEB 1964                  03/15/69 1107.8 PAGE 108

      26156  0500 00 1 40023  D5E    CLA E,1                POSSIBLE BLOCK NOTATION...
      26157  0402 00 0 32417         SUB     =H00000.
      26160 -0100 00 0 26131         TNZ     D5AX
      26161 -0500 00 0 32031  D5F    CAL ...                GET BLOCK CODE
      26162  1 77777 1 26174         TXI D21XX,1,-1
1                    MAD I FOR CTSS ... R M GRAHAM ... FEB 1964                  03/15/69 1107.8 PAGE 109

                                          EQUALS SIGN


      26163  0500 00 0 31770  D6     CLA     .EQUAL
      26164  0020 00 0 26304         TRA     D9X
1                    MAD I FOR CTSS ... R M GRAHAM ... FEB 1964                  03/15/69 1107.8 PAGE 110

                                                            DEFINED TYPE OPERATOR


      26165 -0534 00 4 30764  D7X    LXD     F12,4
      26166 -0340 00 4 31133  D7B    LAS     OPCD.,4
      26167  0020 00 0 26171         TRA *+2
      26170  0020 00 0 26173         TRA D7A
      26171  2 00001 4 26166         TIX     D7B,4,1
      26172                          ERROR   14
      26173  0754 00 4 00000  D7A    PXA     ,4
      26174  0601 00 2 40023  D21XX  STO S,2
      26175  1 77777 2 25347  D21    TXI D22,2,-1
1                    MAD I FOR CTSS ... R M GRAHAM ... FEB 1964                  03/15/69 1107.8 PAGE 111

                                          ALFA CONSTANT


      26176  0 07400 4 26233  D8     CALL    ALOPND
      26177  0020 00 0 26227         TRA     D8E           6 OR LESS CHAR
      26200  0441 00 0 32055         LDI     .AC           MORE THAN 6 CHAR
      26201  0442 00 0 31423         OSI     LAMBDA
      26202  0604 00 2 40023         STI     S,2
      26203  0534 00 4 31423         LXA     LAMBDA,4
      26204  0602 00 4 41530         SLW     V,4
      26205  1 77777 4 26206         TXI     *+1,4,-1
      26206  0634 00 4 31423         SXA     LAMBDA,4
      26207  0500 00 0 31775         CLA     .CMA
      26210  0601 00 2 40024         STO S+1,2
      26211  1 77777 2 26212         TXI *+1,2,-1
      26212 -0534 00 4 31450         LXD     TR,4
      26213  0500 00 4 40023         CLA     S,4
      26214  0622 00 2 40023         STD     S,2
      26215 -0754 00 2 00000         PXD     ,2
      26216  0622 00 4 40023         STD     S,4
      26217  0601 00 0 31450         STO     TR
      26220  0534 00 4 26261         LXA     D9,4
      26221  3 00000 4 26225         TXH     D8X,4,0
      26222 -0534 00 4 31362         LXD     CC,4
      26223  1 00001 4 26224         TXI     *+1,4,1
      26224 -0634 00 4 31362         SXD     CC,4
      26225  1 00001 1 26226  D8X    TXI     *+1,1,1
      26226  1 77777 2 26176         TXI     D8,2,-1
      26227 -0500 00 0 32055  D8E    CAL     .AC
      26230 -0774 00 4 25356         AXC     D21X-1,4
      26231  0634 00 4 25664         SXA     D2YXY,4
      26232  0020 00 0 25655         TRA D2Y


      26233  0634 00 4 26254  ALOPND SXA     D8R,4
      26234  0774 00 4 00000         AXT     0,4
      26235  0600 00 0 31401         STZ NAME
      26236  0500 00 1 40023  D8C    CLA E,1
      26237  1 77777 1 26240         TXI *+1,1,-1
      26240  0340 00 0 32424         CAS     =H00000$
      26241  1 00006 4 26244         TXI *+3,4,6
      26242  0020 00 0 26250         TRA D8B                $IS END OF ALPHA CONSTANT
      26243  1 00006 4 26244         TXI *+1,4,6
      26244  3 00044 4 26256         TXH D8A,4,36           MORE THAN 6 CHARACTERS
      26245  0767 00 4 00044         ALS 36,4
      26246 -0602 00 0 31401         ORS NAME               COLLECT UP TO 6 CHARACTERS IN
      26247  0020 00 0 26236         TRA D8C                ONE WORD
      26250  0560 00 0 32560  D8B    LDQ     =H
      26251 -0754 00 0 00000         ZAC
      26252 -0763 00 4 00044         LGL 36,4
      26253 -0602 00 0 31401         ORS     NAME
      26254  0774 00 4 00000  D8R    AXT     **,4
      26255  0020 00 4 00001         TRA     1,4
1                    MAD I FOR CTSS ... R M GRAHAM ... FEB 1964                  03/15/69 1107.8 PAGE 112

      26256 -0500 00 0 31401  D8A    CAL     NAME
      26257  0534 00 4 26254         LXA     D8R,4
      26260  0020 00 4 00002         TRA     2,4
1                    MAD I FOR CTSS ... R M GRAHAM ... FEB 1964                  03/15/69 1107.8 PAGE 113

                                          COMMA


      26261  0774 00 4 00000  D9     AXT     **,4
      26262  0500 00 1 40023         CLA     E,1
      26263  0402 00 0 32417         SUB     =H00000.
      26264 -0100 00 0 26277         TNZ     D9B
      26265  0500 00 1 40024         CLA     E+1,1
      26266  0402 00 0 32417         SUB     =H00000.
      26267 -0100 00 0 26277         TNZ     D9B
      26270  0500 00 1 40025         CLA     E+2,1
      26271  0402 00 0 32417         SUB     =H00000.
      26272 -0100 00 0 26277         TNZ     D9B
      26273  0500 00 1 40026         CLA     E+3,1
      26274  0402 00 0 32432         SUB     =H00000,
      26275 -0100 00 0 26277         TNZ     D9B
      26276  1 77775 1 26161         TXI     D5F,1,-3
      26277  3 00000 4 26303  D9B    TXH     D9A,4,0
      26300 -0534 00 4 31362         LXD     CC,4
      26301  1 00001 4 26302         TXI     *+1,4,1
      26302 -0634 00 4 31362         SXD     CC,4
      26303  0500 00 0 31775  D9A    CLA     .CMA
      26304  0601 00 2 40023  D9X    STO     S,2
      26305 -0534 00 4 31450         LXD     TR,4
      26306  0500 00 4 40023         CLA     S,4
      26307  0622 00 2 40023         STD     S,2
      26310 -0754 00 2 00000         PXD     ,2
      26311  0622 00 4 40023         STD     S,4
      26312  0601 00 0 31450         STO     TR
      26313  0020 00 0 26175         TRA     D21
1                    MAD I FOR CTSS ... R M GRAHAM ... FEB 1964                  03/15/69 1107.8 PAGE 114

                                          END OF STATEMENT


      26314  0500 00 0 32023  D10    CLA .RC
      26315  0601 00 2 40023         STO S,2
      26316 -0534 00 4 31362         LXD     CC,4
      26317  1 00001 4 26320         TXI     *+1,4,1
      26320 -0634 00 4 31362         SXD     CC,4
      26321 -0534 00 4 31450         LXD     TR,4
      26322  0560 00 4 40023         LDQ     S,4
      26323 -0754 00 2 00000         PXD     ,2
      26324  0622 00 4 40023         STD     S,4
      26325 -0600 00 0 31450         STQ     TR
      26326  0774 00 4 00000  XC5    AXT     **,4
      26327  0020 00 4 00001         TRA 1,4
1                    MAD I FOR CTSS ... R M GRAHAM ... FEB 1964                  03/15/69 1107.8 PAGE 115

      26330  0500 00 0 31767  D71    CLA     .DIV
      26331  0020 00 0 26174         TRA D21XX


      26332  0500 00 0 31766  D72    CLA     .MPLY
      26333  0020 00 0 26174         TRA D21XX


      26334  0500 00 0 31765  D73    CLA     .MINUS
      26335  0020 00 0 26174         TRA D21XX


      26336  0500 00 0 31764  D74    CLA     .PLUS
      26337  0020 00 0 26174         TRA D21XX
1                    MAD I FOR CTSS ... R M GRAHAM ... FEB 1964                  03/15/69 1107.8 PAGE 116

                                          GET NXT NON-BLANK CHAR AND DETERMINE TYPE
                                          CALLING SQN IS TSX TYPE ,4
                                          ---(PUNCT EXIT)
                                          ---(LTR EXIT)
                                          ---(DIGIT EXIT)


      26340 -0500 00 0 25352  TYPE   CAL     ADCHAR
      26341  0402 00 1 40023         SUB     E,1
      26342  0621 00 0 26345         STA     TY2
      26343  0500 00 1 40023         CLA     E,1
      26344  1 77777 1 26345         TXI *+1,1,-1
      26345  0020 60 0 00000  TY2    TRA*    **
      26346                   TY1    ERROR   11


      26347                          CHR                   77
      26350                          CHR                   76
      26351                          CHR                   75
      26352                          CHR     1,D3          74   (
      26353                          CHR     1,D9          73   ,
      26354                          CHR                   72
      26355                          CHR     2,D1          71   Z
      26356                          CHR     2,D1          70   Y
      26357                          CHR     2,D1          67   X
      26360                          CHR     2,D1          66   W
      26361                          CHR     2,D1          65   V
      26362                          CHR     2,D1          64   U
      26363                          CHR     2,D1          63   T
      26364                          CHR     2,D1          62   S
      26365                          CHR     1,D71         61   /
      26366                          CHR                   60
      26367                          CHR                   57
      26370                          CHR                   56
      26371                          CHR                   55
      26372                          CHR     1,D72         54   *
      26373                          CHR     1,D8          53   $
      26374                          CHR                   52
      26375                          CHR     2,D1          51   R
      26376                          CHR     2,D1          50   Q
      26377                          CHR     2,D1          47   P
      26400                          CHR     2,D1          46   O
      26401                          CHR     2,D1          45   N
      26402                          CHR     2,D1          44   M
      26403                          CHR     2,D1          43   L
      26404                          CHR     2,D1          42   K
      26405                          CHR     2,D1          41   J
      26406                          CHR     1,D73         40   -
      26407                          CHR                   37
      26410                          CHR                   36
      26411                          CHR                   35
      26412                          CHR     1,D4          34   )
1                    MAD I FOR CTSS ... R M GRAHAM ... FEB 1964                  03/15/69 1107.8 PAGE 117

      26413                          CHR     1,D5          33   .
      26414                          CHR                   32
      26415                          CHR     2,D1          31   I
      26416                          CHR     2,D1          30   H
      26417                          CHR     2,D1          27   G
      26420                          CHR     2,D1          26   F
      26421                          CHR     2,D1          25   E
      26422                          CHR     2,D1          24   D
      26423                          CHR     2,D1          23   C
      26424                          CHR     2,D1          22   B
      26425                          CHR     2,D1          21   A
      26426                          CHR     1,D74         20   +
      26427                          CHR                   17
      26430                          CHR                   16
      26431                          CHR     1,D10         15   .RC
      26432                          CHR                   14
      26433                          CHR     1,D6          13   =
      26434                          CHR                   12
      26435                          CHR     3,D2          11   9
      26436                          CHR     3,D2          10   8
      26437                          CHR     3,D2          7   7
      26440                          CHR     3,D2          6   6
      26441                          CHR     3,D2          5   5
      26442                          CHR     3,D2          4   4
      26443                          CHR     3,D2          3   3
      26444                          CHR     3,D2          2   2
      26445                          CHR     3,D2          1   1
      26446                   CHARAC CHR     3,D2          0   0
1                    MAD I FOR CTSS ... R M GRAHAM ... FEB 1964                  03/15/69 1107.8 PAGE 118

                                         THIS SECTION TRANSLATES AN EXPRESSION INTO
                                         MATRIX FORM


      26447  0634 00 4 26624  CMPMTX SXA     XC9,4
      26450  0500 00 0 32023         CLA     .RC
      26451  0601 00 2 40023         STO     S,2
      26452  0441 00 2 40022         LDI     S-1,2
      26453 -0054 00  700000         LFT     700000
      26454  0020 00 0 26461         TRA     CYY
      26455  0051 00  000054         IIR     RC.
      26456  0054 00  077777         RFT     77777
      26457  0020 00 0 26461         TRA     *+2
      26460                          ERROR   15
      26461 -0754 00 2 00000  CYY    PXD     ,2
      26462 -0734 00 1 00000         PDX ,1                 SET L-REGION INDEX
      26463  1 00001 1 26464  CY     TXI *+1,1,1
      26464  1 00001 2 26465  CZ     TXI *+1,2,1
      26465  0560 00 2 40023         LDQ     S,2
      26466 -0754 00 0 00000         ZAC
      26467 -0763 00 0 00003         LGL 3
      26470 -0100 00 0 26567         TNZ     C4
      26471  0500 00 2 40023         CLA     S,2
      26472  0734 00 4 00000  CWX    PAX     ,4
      26473  0560 00 4 30764         LDQ     F12,4
      26474 -0754 00 0 00000         ZAC
      26475 -0763 00 0 00021         LGL     17
      26476  0601 00 0 31443         STO     TYP
      26477 -0754 00 0 00000         ZAC
      26500 -0763 00 0 00001         LGL     1
      26501  0601 00 0 31444         STO     UNF
      26502 -0754 00 0 00000         ZAC
      26503 -0763 00 0 00022         LGL     18
      26504  0601 00 0 31356         STO     PREC
      26505  0500 00 0 31443         CLA     TYP
      26506  0402 00 0 32403         SUB     =1
      26507  0100 00 0 26575         TZE     C1
      26510  0402 00 0 32405         SUB     =3
      26511  0100 00 0 26567         TZE     C4
      26512  0402 00 0 32412         SUB     =10
      26513 -0100 00 0 26521         TNZ     CXX
      26514  0560 00 1 40024         LDQ     L+1,1
      26515 -0763 00 0 00003         LGL     3
      26516 -0100 00 0 26521         TNZ     CXX
      26517  0500 00 0 32047         CLA     .VFN
      26520  0020 00 0 26570         TRA     C4X
      26521  0074 00 4 27174  CXX    CALL    SCOPE
      26522  0534 00 4 31443         LXA     TYP,4
      26523  0020 00 4 26544         TRA CX,4
      26524  0020 00 0 26561         TRA     C44           .FNLC
      26525  0020 00 0 26544         TRA CX                 */ .P.
      26526  0020 00 0 27120         TRA     C21           .FNOP
      26527  0020 00 0 27047         TRA C15                .THEN.
      26530  0020 00 0 27047         TRA C15                .OR.
1                    MAD I FOR CTSS ... R M GRAHAM ... FEB 1964                  03/15/69 1107.8 PAGE 119

      26531  0020 00 0 27041         TRA C13                .AND.
      26532  0020 00 0 27011         TRA C12                .NOT.
      26533  0020 00 0 26544         TRA CX                 RELATIONS
      26534  0020 00 0 26544         TRA     CX                 =
      26535  0020 00 0 26572         TRA C7                 IO.LC
      26536  0020 00 0 27123         TRA C6                 ...
      26537  0020 00 0 26630         TRA C5                 (
      26540                          ERROR   4
      26541  0020 00 0 26611         TRA C3                 .LC
      26542  0020 00 0 26626         TRA C2                 ,
      26543  0020 00 0 26544         TRA CX                 + -
      26544                   CX     GENER
      26545 -0520 00 0 31444         NZT     UNF
      26546  0020 00 0 26567         TRA     C4
      26547                          OPND    2
      26551                          ADDANL
      26552                          MTXROW  =0,(S,2),PAR
      26556  0500 00 0 31377         CLA I
      26557  0601 00 1 40024         STO     L+1,1
      26560  0020 00 0 26464         TRA     CZ


      26561  0074 00 4 27264  C44    CALL    SCASS
      26562                          TSTOPN  (L,1),RC.,XC9
1                    MAD I FOR CTSS ... R M GRAHAM ... FEB 1964                  03/15/69 1107.8 PAGE 120

                                                            OPERAND OR )


      26567  0500 00 2 40023  C4     CLA S,2                THEN
      26570  0601 00 1 40023  C4X    STO     L,1
      26571  0020 00 0 26463         TRA CY


                                                            IO.LC


      26572  0074 00 4 27127  C7     TSX PARAM,4            COMPILE LEFT MOST PARAMETER
      26573  0534 00 4 26624         LXA     XC9,4
      26574  0020 00 4 00001         TRA 1,4                RETURN
1                    MAD I FOR CTSS ... R M GRAHAM ... FEB 1964                  03/15/69 1107.8 PAGE 121

                                                            + OR -


      26575                   C1     TSTOPN  (S-1,2),RP.,CXX,XX
      26601 -0054 00  700000         LFT     700000
      26602  0020 00 0 26521         TRA     CXX
      26603  0500 00 2 40023         CLA S,2                UNARY---
      26604  0402 00 0 31764         SUB     .PLUS
      26605  0100 00 0 26464         TZE CZ                 PASS OVER UNARY +
      26606  0500 00 0 32014         CLA     .NEG
      26607  0601 00 2 40023         STO     S,2
      26610  0020 00 0 26472         TRA     CWX
1                    MAD I FOR CTSS ... R M GRAHAM ... FEB 1964                  03/15/69 1107.8 PAGE 122

                                                            .LC-END OF EXPRESSION


      26611  0074 00 4 27566  C3     CALL    CLASS
      26612  0020 00 0 26616         TRA 3C1                (VR),(TM),(CONS)
      26613  0020 00 0 26620         TRA 3C2                (BTM)
      26614  0020 00 0 26620         TRA 3C2                F(RC)
      26615  0020 00 0 26620         TRA 3C2                T(RC)
      26616                   3C1    OPND    2
      26620                   3C2    TSTOPN  (L+2,1),RC.
      26624  0774 00 4 00000  XC9    AXT     **,4
      26625  0020 00 4 00001         TRA 1,4


                                                            OP IS COMMA


      26626  0074 00 4 27127  C2     TSX PARAM,4            COMPILE PARAMETER
      26627  0020 00 0 26567         TRA C4
1                    MAD I FOR CTSS ... R M GRAHAM ... FEB 1964                  03/15/69 1107.8 PAGE 123

                                                            OP IS (


      26630                   C5     TSTCLS  (S-1,2),VR.,C2A,XX
      26634                          TSTOPN  OPL,RP.
      26640  0500 00 1 40025         CLA L+2,1              IS ELEMENT A SUBSCRIPTED
      26641  0402 00 0 31773         SUB .S                 VARIABLE
      26642 -0100 00 0 26647         TNZ C2J
      26643  0500 00 1 40026         CLA L+3,1
      26644  0601 00 1 40027         STO L+4,1              REMOVE
      26645  0500 00 1 40025         CLA L+2,1
      26646  0601 00 1 40026         STO L+3,1              MATCHING )
      26647  0500 00 1 40024  C2J    CLA L+1,1
      26650  0601 00 1 40025         STO L+2,1              FROM LIST
      26651  1 77777 1 26464         TXI CZ,1,-1
1                    MAD I FOR CTSS ... R M GRAHAM ... FEB 1964                  03/15/69 1107.8 PAGE 124

                                                            SUBSCRIPTED VARIABLE


      26652                   C2A    GENER
      26653                          TSTOPN  OPL,RP.(C2B),CM.(C2AX)


                                                            ARRAY VARIABLE WITH DIMENSION .GE. 2


      26662  0500 00 1 40025  C2AX   CLA     L+2,1
      26663  0402 00 0 31773         SUB .S                 IS FIRST SUBSCRIPT SUBSCRIPTED
      26664 -0100 00 0 26667         TNZ C2K
      26665  0500 00 1 40031         CLA L+6,1        YES SO GET PUNCTUATION AFTER SECOND SUBSCRIPT
      26666  0020 00 0 26670         TRA *+2
      26667  0500 00 1 40027  C2K    CLA L+4,1        NO, GET PUNCTUATION FOLLOWING SECOND SUBSCRIPT
      26670  0601 00 0 31372         STO     A
      26671                          TSTOPN  A,RP.,XX,C2L


                                                            ARRAY WITH DIMENSION = 2


      26675                          OPND    2
      26677                          ADDANL
      26700  0601 00 0 31372         STO A                  ROW SUBSCRIPT
      26701                          TSTCLS  (L+3,1),FL.,XX,C2M
      26705                          MTXROW  =0,.FLD,(L+3,1)
      26711  0600 00 0 31375         STZ PAR
      26712  0020 00 0 26715         TRA C2N
      26713                   C2M    ADDANL  (L+3,1)
      26715                   C2N    MTXROW  A,.MTX2,PAR
      26721                          ADDANL  (S-1,2)
      26723                          MTXROW  =0,.P,PAR
      26727  0500 00 0 31377         CLA I
      26730  0601 00 1 40027         STO L+4,1
      26731  1 77775 1 26752         TXI C2C,1,-3


                                                            ARRAY WITH DIMENSION .G. 2


      26732  0 07400 4 27127  C2L    CALL    PARAM
      26733                          TTSET   =H.MTX
      26737                          MTXROW  =4,.F,X24
      26743                          ADDANL  (S-1,2)
      26745                          MTXROW  =0,.P,PAR
      26751                          PRLIST
      26752  0500 00 0 31773  C2C    CLA .S
1                    MAD I FOR CTSS ... R M GRAHAM ... FEB 1964                  03/15/69 1107.8 PAGE 125

      26753  0601 00 1 40023         STO L,1                PUT SS OPN ON LIST
      26754  0020 00 0 26463         TRA CY


                                                            VARIABLE IS ONE DIMENSIONAL VECTOR


      26755                   C2B    TSTCON  (L+1,1),IC.,XX,C2D
      26761  0500 00 1 40024         CLA L+1,1
      26762  0734 00 4 00000         PAX ,4                 INSERT CONST SUBSCRIPT
      26763  0500 00 4 41530         CLA V,4                INTO VAR MAME
      26764  0767 00 0 00022         ALS 18
      26765  0622 00 2 40022         STD S-1,2
      26766  1 77776 1 26464         TXI CZ,1,-2
      26767  0500 00 1 40025  C2D    CLA L+2,1
      26770  0402 00 0 31773         SUB .S                 IS SUBSCRIPT
      26771  0100 00 0 26775         TZE C2H                SUBSCRIPTED
      26772  0500 00 1 40024         CLA     L+1,1
      26773  0601 00 1 40025         STO L+2,1              REMOVE PAREN FROM LIST
      26774  1 77777 1 26752         TXI C2C,1,-1
      26775                   C2H    ADDANL  (L+1,1)
      26777  0601 00 0 31372         STO A
      27000                          ADDANL  (L+3,1)
      27002                          MTXROW  A,.S,PAR
      27006  0500 00 0 31377         CLA I
      27007  0601 00 1 40027         STO L+4,1
      27010  1 77775 1 26752         TXI C2C,1,-3
1                    MAD I FOR CTSS ... R M GRAHAM ... FEB 1964                  03/15/69 1107.8 PAGE 126

                                                            .NOT.


      27011  0 07400 4 27566  C12    CALL    CLASS
      27012  0020 00 0 27026         TRA C12C               (VR),(TM),(CONS)
      27013  0020 00 0 27023         TRA C12B               (BTM)
      27014  0020 00 0 27021         TRA C12D               IF F(RC)
      27015  0502 00 0 32447         CLS     =O100000
      27016  0400 00 1 40024  C12E   ADD L+1,1
      27017  0601 00 1 40024         STO L+1,1
      27020  0020 00 0 26464         TRA CZ
      27021  0500 00 0 32447  C12D   CLA     =O100000
      27022  0020 00 0 27016         TRA C12E
      27023 -0500 00 0 47446  C12B   CAL MTX                (BTM) SO REVERSE LAST RELATION ON LIST
      27024  0074 00 4 27537         CALL    RVSR
      27025  0020 00 0 26464         TRA CZ
      27026                   C12C   OPND    1
      27030                          ADDANL
      27031                          MTXROW  PAR,.E.,=0
      27035 -0500 00 0 31315         CAL PBTMR
      27036 -0501 00 0 47446         ORA MTX                PUT BOOLEAN TEMP NAME
      27037  0602 00 1 40024         SLW L+1,1              ON LIST
      27040  0020 00 0 26464         TRA CZ
1                    MAD I FOR CTSS ... R M GRAHAM ... FEB 1964                  03/15/69 1107.8 PAGE 127

                                                            .AND.


      27041  0074 00 4 27566  C13    CALL    CLASS
      27042  0020 00 0 27054         TRA C15B               (VR),(TM),(CONS)
      27043  0020 00 0 26567         TRA C4                 (BTM)
      27044  0020 00 0 26567         TRA C4                 F(RC)
      27045  0560 00 0 31317         LDQ FPRCR              T(RC)
      27046  0020 00 0 27070         TRA C15E
1                    MAD I FOR CTSS ... R M GRAHAM ... FEB 1964                  03/15/69 1107.8 PAGE 128

                                                            .OR. .THEN.


      27047  0074 00 4 27566  C15    CALL    CLASS
      27050  0020 00 0 27054         TRA C15B               (VR),(TM),(CONS)
      27051  0020 00 0 26567         TRA C4                 (BTM)
      27052  0020 00 0 27067         TRA C15A               F(RC)
      27053  0020 00 0 26567         TRA C4                 T(RC)
      27054                   C15B   OPND    1
      27056                          ADDANL
      27057                          MTXROW  PAR,.NE.,=0
      27063 -0500 00 0 31315         CAL PBTMR              PUT BOOLEAN TEMP
      27064 -0501 00 0 47446         ORA MTX                NAME ON LIST
      27065  0602 00 1 40024         SLW L+1,1
      27066  0020 00 0 26567         TRA C4
      27067  0560 00 0 31316  C15A   LDQ TPRCR              F(RC)
      27070 -0500 00 1 40024  C15E   CAL L+1,1
      27071 -0600 00 1 40024         STQ L+1,1              PUT CHAIN (LENGTH ONE) ON LIST
      27072  0074 00 4 27552         CALL    UCHAIN
      27073 -0600 00 0 31375         STQ PAR
      27074 -0534 00 4 47446         LXD MTX,4
      27075  0500 00 4 47445         CLA MTX-1,4
      27076  0402 00 0 32006         SUB .FLD
      27077  0100 00 0 27113         TZE C15C
      27100 -0500 00 0 47446         CAL MTX
      27101  0074 00 4 27537         CALL    RVSR
      27102 -0500 00 0 47446  C15D   CAL MTX
      27103  0622 00 1 40024         STD L+1,1
      27104  0771 00 0 00022         ARS 18
      27105  0621 00 1 40024         STA L+1,1
      27106                          MTXROW  =0,.FLD,PAR
      27112  0020 00 0 26567         TRA C4
      27113                   C15C   MTXROW  =0,.JMP,=0
      27117  0020 00 0 27102         TRA C15D
1                    MAD I FOR CTSS ... R M GRAHAM ... FEB 1964                  03/15/69 1107.8 PAGE 129

                                                            FUNCTION VALUE


      27120  0074 00 4 27127  C21    TSX PARAM,4            COUMPILE LEFT MOST ARGUMENT
      27121  0500 00 0 31776         CLA     .F
      27122  0020 00 0 26570         TRA     C4X
1                    MAD I FOR CTSS ... R M GRAHAM ... FEB 1964                  03/15/69 1107.8 PAGE 130

                                                            BLOCK NOTATION...


      27123  0074 00 4 27125  C6     TSX C20X,4             COMPILE RIGHT ELEM OF BLOCK
      27124  0020 00 0 26567         TRA C4
1                    MAD I FOR CTSS ... R M GRAHAM ... FEB 1964                  03/15/69 1107.8 PAGE 131

                                              SUBROUTINE TO COMPUTE AND SET ADDRESS FOR PARAMETER


      27125  0500 00 0 32034  C20X   CLA .STD               THIS ENTRY FOR RIGHT ELEMENT OF BLOCK
      27126  0020 00 0 27130         TRA *+2                (ADDRESS STORED IN DECREMENT OF PARAM)
      27127  0500 00 0 32020  PARAM  CLA .STA               THIS ENTRY FOR REGULAR PARAMETER
      27130  0601 00 0 31371         STO B
      27131  0634 00 4 27172         SXA     XC17,4
      27132                          GENER
      27133  0500 00 1 40025         CLA L+2,1
      27134  0402 00 0 31773         SUB .S                 IS PARAMETER A SUBSCRIPTED VARIABLE
      27135 -0100 00 0 27172         TNZ     XC17
      27136                          ADDANL  (L+1,1)
      27140  0601 00 0 31372         STO A
      27141                          ADDANL  (L+3,1)
      27143                          MTXROW  A,.TAGA,PAR
      27147  0500 00 1 40027         CLA L+4,1
      27150  0402 00 0 32031         SUB ...
      27151 -0100 00 0 27161         TNZ C20Y
      27152  0560 00 1 40030         LDQ L+5,1              THIS IS LEFT ELEMENT OF BLOCK
      27153 -0763 00 0 00003         LGL 3
      27154  0402 00 0 32404         SUB     =2
      27155 -0100 00 0 27161         TNZ C20Y
      27156  0500 00 1 40030         CLA L+5,1              RIGHT ELEM WAS FLAD, SO
      27157  0601 00 1 40026         STO L+3,1              USE SAME FLAD
      27160  0020 00 0 27165         TRA C20Z
      27161 -0500 00 0 31402  C20Y   CAL F                  GET FLAD
      27162  0602 00 1 40026         SLW L+3,1              FOR STA (OR STD)
      27163  0361 00 0 32403         ACL     =1
      27164  0602 00 0 31402         SLW F
      27165                   C20Z   MTXROW  (L+3,1),B,I
      27171  1 77776 1 27172         TXI *+1,1,-2
      27172  0774 00 4 00000  XC17   AXT     **,4
      27173  0020 00 4 00001         TRA 1,4
1                    MAD I FOR CTSS ... R M GRAHAM ... FEB 1964                  03/15/69 1107.8 PAGE 132

                                         THIS SUBROUTINE COMPILES INSTRUCTIONS
                                         FROM LIST UNTIL PREC(S) .GE. PREC(OPN ON LIST)


      27174  0634 00 4 27215  SCOPE  SXA     XC11,4
      27175  0500 00 1 40025         CLA L+2,1
      27176  0402 00 0 31773         SUB .S                 TEST FOR SUBSCRIPTED LEFT OPERAND
      27177 -0100 00 0 27202         TNZ SC3                AND
      27200 -0500 00 1 40027         CAL L+4,1              PASS OVER GETTING RIGHT OPN
      27201  0020 00 0 27203         TRA *+2
      27202 -0500 00 1 40025  SC3    CAL L+2,1              GET RIGHT OPN
      27203  0601 00 0 31445         STO     OPL
      27204  0734 00 4 00000         PAX     ,4
      27205 -0320 00 0 32564         ANA     =O700000000000
      27206  0100 00 0 27210         TZE     *+2
      27207                          ERROR   21
      27210 -0500 00 4 30764         CAL     F12,4
      27211  0602 00 0 31366         SLW     OPTM
      27212 -0320 00 0 32454         ANA     =O777777
      27213  0560 00 0 31356         LDQ PREC
      27214  0040 00 0 27217         TLQ SC4                IS PREC.(LEFT) .L. PREC.(RIGHT)
      27215  0774 00 4 00000  XC11   AXT     **,4
      27216  0020 00 4 00001         TRA 1,4                RETURN
      27217 -0500 00 0 31366  SC4    CAL     OPTM
      27220  0771 00 0 00001         ARS     1
      27221 -0734 00 4 00000         PDX     ,4
      27222  0020 00 4 27242         TRA SCX,4              PROPER GENERATOR
      27223  0020 00 0 27242         TRA SCX                * / .P.
      27224  0020 00 0 27253         TRA     SCA           .F
      27225  0020 00 0 27527         TRA SCX2               .THEN.
      27226  0020 00 0 27332         TRA SCX3               .OR.
      27227  0020 00 0 27447         TRA SCX1               .AND.
      27230                          ERROR   4
      27231  0020 00 0 27315         TRA SCX4               RELATIONS
      27232  0020 00 0 27242         TRA SCX                =
      27233                          ERROR   4
      27234                          ERROR   4
      27235                          ERROR   4
      27236                          ERROR   4
      27237                          ERROR   4
      27240                          ERROR   4
      27241  0761 00 0 00000         NOP                    +-
      27242  0074 00 4 27715  SCX    CALL    GENER
      27243  0074 00 4 27600         CALL    SETADD
      27244                          MTXROW  A,OPL,PAR
      27250  0500 00 0 31377         CLA I                  PUT NAME OF
      27251  0601 00 1 40024         STO L+1,1              RESULT ON LIST
      27252  0020 00 0 27202         TRA SC3
      27253  0074 00 4 27264  SCA    CALL    SCASS
      27254  0500 00 0 31445         CLA     OPL
      27255  0402 00 0 32047         SUB     .VFN
      27256 -0100 00 0 27262         TNZ     SCA3
      27257  0500 00 0 31377         CLA     I
      27260  0601 00 1 40023         STO     L,1
      27261  1 00001 1 27202         TXI     SC3,1,1
1                    MAD I FOR CTSS ... R M GRAHAM ... FEB 1964                  03/15/69 1107.8 PAGE 133

      27262                   SCA3   PRLIST
      27263  0020 00 0 27202         TRA     SC3


      27264  0634 00 4 27313  SCASS  SXA     SCAXX,4
      27265  0500 00 1 40025         CLA     L+2,1
      27266  0402 00 0 31773         SUB     .S
      27267 -0100 00 0 27304         TNZ     SCA1
      27270                          ADDANL  (L+1,1)
      27272  0601 00 0 31372         STO     A
      27273                          ADDANL  (L+3,1)
      27275                          MTXROW  A,.S,PAR
      27301  0500 00 0 31377         CLA     I
      27302  0601 00 0 31375         STO     PAR
      27303  1 77776 1 27306         TXI     SCA2,1,-2
      27304                   SCA1   ADDANL  (L+1,1)
      27306                   SCA2   MTXROW  =4,.F,PAR
      27312  1 77776 1 27313         TXI     *+1,1,-2
      27313  0774 00 4 00000  SCAXX  AXT     **,4
      27314  0020 00 4 00001         TRA     1,4
1                    MAD I FOR CTSS ... R M GRAHAM ... FEB 1964                  03/15/69 1107.8 PAGE 134

                                                            RELATIONS


      27315  0074 00 4 27600  SCX4   TSX SETADD,4           PROCESS ADDRESSES FOR TRIPLE
      27316                          MTXROW  A,.DIF,PAR
      27322                          MTXROW  I,OPL,=0
      27326 -0500 00 0 31315         CAL PBTMR
      27327 -0501 00 0 47446         ORA MTX                PUT BOOLEAN TEMP
      27330  0602 00 1 40024         SLW L+1,1              ON LIST
      27331  0020 00 0 27202         TRA SC3
1                    MAD I FOR CTSS ... R M GRAHAM ... FEB 1964                  03/15/69 1107.8 PAGE 135

                                                            .OR.


      27332  0074 00 4 27566  SCX3   CALL    CLASS
      27333  0020 00 0 27434         TRA SCX6               (VR),(TM),(CONS)
      27334  0020 00 0 27401         TRA SCY5               (BTM)
      27335  0020 00 0 27350         TRA SCY25              F(RC)
      27336  0560 00 1 40026  SCY2   LDQ L+3,1              T(RC)
      27337 -0773 00 0 00023         RQL 19                 IS RIGHT OPND (BTM)
      27340  0162 00 0 27407         TQP SCY3
      27341 -0500 00 1 40024  SCY1   CAL L+1,1              X(P,D)--X(R,C)
      27342  0734 00 4 00000         PAX ,4                 GET D
      27343 -0500 00 1 40026         CAL L+3,1
      27344  0622 00 4 47446         STD MTX,4              S2(M(D,3))=R
      27345 -0500 00 1 40024         CAL L+1,1
      27346  0622 00 1 40026         STD L+3,1              L(J-3)=T(P,C)
      27347  1 77776 1 27202         TXI SC3,1,-2
      27350 -0500 00 1 40024  SCY25  CAL L+1,1              F(R,C)
      27351  0074 00 4 27552         CALL    UCHAIN
      27352 -0600 00 0 31375         STQ PAR
      27353 -0534 00 4 47446         LXD MTX,4
      27354  0500 00 4 47445         CLA MTX-1,4
      27355  0402 00 0 32006         SUB .FLD
      27356  0100 00 0 27374         TZE SCY255
      27357 -0500 00 0 47446         CAL MTX
      27360  0074 00 4 27537         TSX RVSR,4
      27361 -0500 00 0 31316  SCY256 CAL TPRCR
      27362  0602 00 1 40024         SLW L+1,1              LIST
      27363 -0500 00 0 47446         CAL MTX
      27364  0622 00 1 40024         STD L+1,1
      27365  0771 00 0 00022         ARS 18
      27366  0621 00 1 40024         STA L+1,1
      27367                          MTXROW  =0,.FLD,PAR
      27373  0020 00 0 27336         TRA SCY2
      27374                   SCY255 MTXROW  =0,.JMP,=0
      27400  0020 00 0 27361         TRA SCY256
      27401  0560 00 1 40026  SCY5   LDQ L+3,1
      27402 -0773 00 0 00023         RQL 19                 IS RIGHT OPND T(R,C)
      27403  0162 00 0 27416         TQP SCY6
      27404  0560 00 1 40026  SCY5X  LDQ L+3,1              BTM(C)--X(P,D)
      27405 -0500 00 1 40024         CAL L+1,1
      27406  0020 00 0 27411         TRA SCY4
      27407  0560 00 1 40024  SCY3   LDQ L+1,1              X(P,D)--BTM(C)
      27410 -0500 00 1 40026         CAL L+3,1
      27411 -0734 00 4 00000  SCY4   PDX ,4
      27412 -0600 00 4 47446         STQ MTX,4              M(C,3)=X(P)
      27413 -0600 00 1 40026         STQ L+3,1
      27414  0622 00 1 40026         STD L+3,1              L(J-3)=X(C,D)
      27415  1 77776 1 27202         TXI SC3,1,-2
      27416  0560 00 0 31316  SCY6   LDQ TPRCR              BTM(R)--BTM(C)
      27417 -0500 00 1 40026  SCY61  CAL L+3,1              GET C
      27420 -0734 00 4 00000         PDX ,4
      27421 -0600 00 4 47446         STQ MTX,4              M(C,3)=X(0)
      27422 -0600 00 1 40026         STQ L+3,1
      27423  0771 00 0 00022         ARS 18
1                    MAD I FOR CTSS ... R M GRAHAM ... FEB 1964                  03/15/69 1107.8 PAGE 136

      27424  0621 00 1 40026         STA L+3,1              L(J-3)=X(0,C)
      27425 -0501 00 1 40024         ORA L+1,1              GET R
      27426 -0734 00 4 00000         PDX ,4
      27427 -0600 00 4 47446         STQ MTX,4
      27430  0622 00 1 40026         STD L+3,1
      27431  0767 00 0 00022         ALS 18
      27432  0622 00 4 47446         STD MTX,4              M(R,3)=X(C)
      27433  1 77776 1 27202         TXI SC3,1,-2
      27434                   SCX6   OPND    1
      27436                          ADDANL
      27437                          MTXROW  PAR,.NE.,=0
      27443 -0500 00 0 31315         CAL PBTMR
      27444 -0501 00 0 47446         ORA MTX                PUT BOOLEAN TEMP
      27445  0602 00 1 40024         SLW L+1,1              NAME ON LIST
      27446  0020 00 0 27217         TRA SC4                APPLY RULES AGAIN
1                    MAD I FOR CTSS ... R M GRAHAM ... FEB 1964                  03/15/69 1107.8 PAGE 137

                                                            .AND.


      27447  0074 00 4 27566  SCX1   CALL    CLASS
      27450  0020 00 0 27434         TRA SCX6               (VR),(TM),(CONS)
      27451  0020 00 0 27513         TRA SCZ2               (BTM)
      27452  0020 00 0 27504         TRA SCZ4               F(RC)
      27453 -0500 00 1 40024         CAL L+1,1              LEFT IS T(RC)
      27454  0074 00 4 27552         CALL    UCHAIN
      27455 -0600 00 0 31375         STQ PAR
      27456 -0534 00 4 47446         LXD MTX,4
      27457  0500 00 4 47445         CLA MTX-1,4
      27460  0402 00 0 32006         SUB .FLD
      27461  0100 00 0 27477         TZE SCX156
      27462 -0500 00 0 47446         CAL MTX
      27463  0074 00 4 27537         TSX RVSR,4
      27464 -0500 00 0 31317  SCX155 CAL FPRCR              PUT CHAIN ON
      27465  0602 00 1 40024         SLW L+1,1              LIST
      27466 -0500 00 0 47446         CAL MTX
      27467  0622 00 1 40024         STD L+1,1
      27470  0771 00 0 00022         ARS 18
      27471  0621 00 1 40024         STA L+1,1
      27472                          MTXROW  =0,.FLD,PAR
      27476  0020 00 0 27504         TRA SCZ4
      27477                   SCX156 MTXROW  =0,.JMP,=0
      27503  0020 00 0 27464         TRA SCX155
      27504  0560 00 1 40026  SCZ4   LDQ L+3,1
      27505 -0773 00 0 00023         RQL 19                 WHAT IS RIGHT OPND
      27506  0162 00 0 27510         TQP SCZ6
      27507  0020 00 0 27341         TRA SCY1               F(P,D)--F(R,C)
      27510 -0500 00 1 40026  SCZ6   CAL L+3,1              F(P,D)--BTM(C)
      27511  0074 00 4 27537         TSX RVSR,4
      27512  0020 00 0 27407         TRA SCY3
      27513  0560 00 1 40026  SCZ2   LDQ L+3,1
      27514 -0773 00 0 00023         RQL 19                 WHAT IS RIGHT OPND
      27515  0162 00 0 27521         TQP SCZ5
      27516 -0500 00 1 40024         CAL L+1,1              BTM(C)--F(P,D)
      27517  0074 00 4 27537         TSX RVSR,4
      27520  0020 00 0 27404         TRA SCY5X
      27521 -0500 00 1 40024  SCZ5   CAL L+1,1              BTM(C)--BTM(R)
      27522  0074 00 4 27537         TSX RVSR,4
      27523 -0500 00 1 40026         CAL L+3,1
      27524  0074 00 4 27537         TSX RVSR,4
      27525  0560 00 0 31317         LDQ FPRCR
      27526  0020 00 0 27417         TRA SCY61
1                    MAD I FOR CTSS ... R M GRAHAM ... FEB 1964                  03/15/69 1107.8 PAGE 138

                                                            .THEN.


      27527  0074 00 4 27566  SCX2   CALL    CLASS
      27530  0020 00 0 27434         TRA SCX6               (VR),(TM),(CONS)
      27531  0020 00 0 27534         TRA SCW2               (BTM)
      27532  0020 00 0 27336         TRA SCY2               F(RC)
      27533  0020 00 0 27350         TRA SCY25              T(RC)
      27534 -0500 00 1 40024  SCW2   CAL L+1,1
      27535  0074 00 4 27537         TSX RVSR,4
      27536  0020 00 0 27401         TRA SCY5
1                    MAD I FOR CTSS ... R M GRAHAM ... FEB 1964                  03/15/69 1107.8 PAGE 139

                                         SUBROUTINE TO REVERSE RELATION WHOSE INDEX IS IN S2(AC)


      27537  0634 00 4 27550  RVSR   SXA     RVX4,4
      27540 -0734 00 4 00000         PDX ,4
      27541 -0500 00 4 47445         CAL MTX-1,4            REVERSE RELATION
      27542  0634 00 4 27545         SXA     RVXX4,4
      27543  0734 00 4 00000         PAX ,4                 ON LIST
      27544 -0500 00 4 31331         CAL INVREL+13,4
      27545  0774 00 4 00000  RVXX4  AXT     **,4
      27546  0602 00 4 47445         SLW MTX-1,4
      27547  0600 00 4 47446         STZ MTX,4
      27550  0774 00 4 00000  RVX4   AXT     **,4
      27551  0020 00 4 00001         TRA 1,4
1                    MAD I FOR CTSS ... R M GRAHAM ... FEB 1964                  03/15/69 1107.8 PAGE 140

                                         SUBROUTINE TO UNCHAIN AND INSERT FLAD


      27552  0634 00 4 27564  UCHAIN SXA     SV3,4
      27553  0560 00 0 31402         LDQ F
      27554 -0734 00 4 00000  CHBAK  PDX ,4                 GET INDEX OF NEXT ELEM IN CHAIN
      27555 -3 00000 4 27561         TXL CHOUT,4,0          IS THIS END OF CHAIN
      27556 -0500 00 4 47446         CAL MTX,4              GET NEXT ELEMENT OF CHAIN
      27557 -0600 00 4 47446         STQ MTX,4              REPLACE WITH FLAD
      27560  0020 00 0 27554         TRA CHBAK
      27561  0500 00 0 31402  CHOUT  CLA F
      27562  0400 00 0 32403         ADD     =1
      27563  0601 00 0 31402         STO F
      27564  0774 00 4 00000  SV3    AXT     **,4
      27565  0020 00 4 00001         TRA 1,4
1                    MAD I FOR CTSS ... R M GRAHAM ... FEB 1964                  03/15/69 1107.8 PAGE 141

                                         SUBROUTIN TO IDENTIFY THE CLASS OF AN OPERAND


      27566  0441 00 1 40024  CLASS  LDI     L+1,1
      27567 -0051 00  300000         IIL     TM.
      27570 -0054 00  700000         LFT     700000
      27571  0020 00 4 00001         TRA 1,4
      27572 -0057 00  077777         RIL     77777
      27573 -0046 00 0 00000         PIA
      27574  0767 00 0 00003         ALS     3
      27575  0622 00 0 27576         STD *+1
      27576  2 00000 4 27577         TIX     *+1,4,**
      27577  0020 00 4 00001         TRA 1,4
1                    MAD I FOR CTSS ... R M GRAHAM ... FEB 1964                  03/15/69 1107.8 PAGE 142

                                         PROCESS ADDRESSES FOR TRIPLE


      27600  0634 00 4 27615  SETADD SXA     STADX,4
      27601                          OPND    1
      27603  0601 00 0 31370         STO AT                 GET LEFT OPERAND
      27604  1 77776 1 27605         TXI *+1,1,-2
      27605                          OPND    2
      27607  0601 00 0 31371         STO B
      27610                          ADDANL  AT
      27612  0601 00 0 31372         STO A                  ANALYSE ADDRESSES
      27613                          ADDANL  B
      27615  0774 00 4 00000  STADX  AXT     **,4
      27616  0020 00 4 00001         TRA 1,4
1                    MAD I FOR CTSS ... R M GRAHAM ... FEB 1964                  03/15/69 1107.8 PAGE 143

                                         SUBROUTINE TO SET UP CONDITIONAL TRANSFER
                                         MQ=TRANSFER FLAD, A=0 IF TRUE TRANSFER


      27617  0634 00 4 27635  CDLTRA SXA     CDT6,4
      27620 -0600 00 0 31360         STQ TFLAD
      27621 -0100 00 0 27703         TNZ CDT1
      27622  0074 00 4 27566         CALL    CLASS
      27623  0020 00 0 27671         TRA CDT2               OTHER
      27624  0020 00 0 27665         TRA CDT3               (BTM)
      27625  0020 00 0 27637         TRA CDT4               F(RC)
      27626  0560 00 0 31360  CDT5   LDQ TFLAD              T(RC)
      27627 -0500 00 1 40024         CAL L+1,1
      27630 -0734 00 4 00000  CDT7   PDX ,4
      27631 -3 00000 4 27635         TXL CDT6,4,0           UNCHAIN, INSERTING TRANSFER FLAD
      27632 -0500 00 4 47446         CAL MTX,4
      27633 -0600 00 4 47446         STQ MTX,4
      27634  0020 00 0 27630         TRA CDT7
      27635  0774 00 4 00000  CDT6   AXT     **,4
      27636  0020 00 4 00001         TRA 1,4
      27637 -0500 00 1 40024  CDT4   CAL L+1,1
      27640  0074 00 4 27552         CALL    UCHAIN
      27641 -0600 00 0 31375         STQ PAR
      27642 -0534 00 4 47446         LXD MTX,4
      27643  0500 00 4 47445         CLA MTX-1,4
      27644  0402 00 0 32006         SUB .FLD
      27645  0100 00 0 27660         TZE CDT9
      27646 -0500 00 0 47446         CAL MTX
      27647  0074 00 4 27537         TSX RVSR,4
      27650 -0534 00 4 47446         LXD MTX,4
      27651  0560 00 0 31360         LDQ TFLAD
      27652 -0600 00 4 47446         STQ MTX,4
      27653                   CDT13  MTXROW  =0,.FLD,PAR
      27657  0020 00 0 27635         TRA CDT6
      27660                   CDT9   MTXROW  =0,.JMP,TFLAD
      27664  0020 00 0 27653         TRA CDT13
      27665 -0534 00 4 47446  CDT3   LXD MTX,4              RESULT IS(BTM)
      27666  0560 00 0 31360         LDQ TFLAD              INSERT TRANSFER FLAD
      27667 -0600 00 4 47446         STQ MTX,4
      27670  0020 00 0 27635         TRA CDT6
      27671  0500 00 0 31772  CDT2   CLA .NE.
      27672  0601 00 0 31376  CDT10  STO PBR                RESULT IS VARIABLE, CONSTANT, OR FUNCTIO
      27673                          OPND    1
      27675                          ADDANL
      27676                          MTXROW  PAR,PBR,TFLAD
      27702  0020 00 0 27635         TRA CDT6
      27703  0074 00 4 27566  CDT1   CALL    CLASS
      27704  0020 00 0 27710         TRA CDT11              OTHER
      27705  0020 00 0 27712         TRA CDT12              (BTM)
      27706  0020 00 0 27626         TRA CDT5               F(RC)
      27707  0020 00 0 27637         TRA CDT4               T(RC)
      27710  0500 00 0 31771  CDT11  CLA     .E.
      27711  0020 00 0 27672         TRA CDT10
      27712 -0500 00 0 47446  CDT12  CAL MTX
      27713  0074 00 4 27537         TSX RVSR,4             REVERSE LAST TRANSFER
1                    MAD I FOR CTSS ... R M GRAHAM ... FEB 1964                  03/15/69 1107.8 PAGE 144

      27714  0020 00 0 27665         TRA CDT3
1                    MAD I FOR CTSS ... R M GRAHAM ... FEB 1964                  03/15/69 1107.8 PAGE 145

                                         SUBROUTINE TO COMPILE TRIPLES TO GENERATE A
                                         BOOLEAN VALUE IF T(RC),F(RC),OR(BTM)


      27715  0634 00 4 27762  GENER  SXA     C10XIT,4
      27716  0074 00 4 27566         CALL    CLASS
      27717  0020 00 0 27762         TRA C10XIT             (VR),(TM),(CONS)
      27720  0020 00 0 27722         TRA C10BT
      27721  0020 00 0 27764         TRA C10BF              F(RC)
      27722  0500 00 0 32027  C10BT  CLA .GZROB             T(RC)
      27723  0560 00 0 32033         LDQ .GONEB
      27724  0601 00 0 31375  C10IN  STO PAR
      27725 -0600 00 0 31376         STQ PBR
      27726 -0500 00 1 40024         CAL L+1,1
      27727  0074 00 4 27552         CALL    UCHAIN
      27730 -0600 00 0 31371         STQ B
      27731                          MTXROW  =0,PAR,=0
      27735                          MTXROW  =0,.JMP,F
      27741                          MTXROW  =0,.FLD,B
      27745                          MTXROW  =0,PBR,=0
      27751  0500 00 0 31377         CLA I
      27752  0601 00 1 40024         STO L+1,1
      27753                          MTXROW  =0,.FLD,F
      27757 -0500 00 0 31402         CAL F
      27760  0400 00 0 32403         ADD     =1
      27761  0602 00 0 31402         SLW F
      27762  0774 00 4 00000  C10XIT AXT     **,4
      27763  0020 00 4 00001         TRA 1,4
      27764  0500 00 0 32033  C10BF  CLA .GONEB             ADDRESS IS F(R,C)
      27765  0560 00 0 32027         LDQ .GZROB
      27766  0020 00 0 27724         TRA C10IN
1                    MAD I FOR CTSS ... R M GRAHAM ... FEB 1964                  03/15/69 1107.8 PAGE 146

                                         TEST TO SEE IF NAME IN AC IS DUMMY VARIABLE


      27767  0634 00 4 27774  DUMMY  SXA     DUMD,4
      27770  0560 00 0 24336         LDQ     XFNSW         IN EXT FN
      27771  0162 00 0 27776         TQP DUMX
      27772  0560 00 0 24327  DUMC   LDQ IFNSW              IN INTERNAL FN
      27773  0162 00 0 30005         TQP DUMI
      27774  0774 00 4 00000  DUMD   AXT     **,4
      27775  0020 00 4 00001         TRA     1,4
      27776 -0534 00 4 41316  DUMX   LXD     XPL,4
      27777 -3 00000 4 27772         TXL     DUMC,4,0      IS LIST EMPTY
      30000  0340 00 4 41316  DUMA   CAS XPL,4              IS IT ON EXTERNAL FN DUMMY VARIABLE LIST
      30001  0020 00 0 30003         TRA     *+2
      30002  0020 00 0 30014         TRA DUMER             YES
      30003  2 00001 4 30000         TIX DUMA,4,1
      30004  0020 00 0 27772         TRA DUMC
      30005 -0534 00 4 42110  DUMI   LXD     PL,4
      30006 -3 00000 4 27774         TXL DUMD,4,0           IS LIST EMPTY
      30007  0340 00 4 42110  DUME   CAS PL,4              IS IT ON INTERNAL FN DUMMY VARIABLE LIST
      30010  0020 00 0 30012         TRA *+2
      30011  0020 00 0 30014         TRA DUMER              YES
      30012  2 00001 4 30007         TIX DUME,4,1
      30013  0020 00 0 27774         TRA     DUMD
      30014                   DUMER  ERROR   6,XX
1                    MAD I FOR CTSS ... R M GRAHAM ... FEB 1964                  03/15/69 1107.8 PAGE 147

                                         THIS SUBROUTINE COMPILES PARAMETER LIST


      30015  0634 00 4 30035  PRLIST SXA     XC12,4
      30016  0500 00 0 31777         CLA .P                 SET PREFIXES
      30017  0601 00 0 31432         STO PSINGR             FOR
      30020  0500 00 0 32007         CLA .TIX               STANDARD TYPE
      30021  0601 00 0 31431         STO PBLCKR             PARAMETERS
      30022                   PRL1   CM1
      30023                          TSTOPN  (L,1),CM.(PRL1),RP.(PRL2)
      30032  0500 00 0 31377  PRL2   CLA     I
      30033  0601 00 1 40023         STO L,1                SO PUT NAME OF RESULT
      30034  1 00001 1 30035         TXI *+1,1,1            ON LIST
      30035  0774 00 4 00000  XC12   AXT     **,4
      30036  0020 00 4 00001         TRA 1,4
1                    MAD I FOR CTSS ... R M GRAHAM ... FEB 1964                  03/15/69 1107.8 PAGE 148

                                                            COMPILE ONE PARAMETER


      30037  0634 00 4 30073  CM1    SXA     C18X,4
      30040  0500 00 1 40025         CLA L+2,1              IS
      30041  0402 00 0 32031         SUB ...                PARAMETER A
      30042  0100 00 0 30075         TZE CM2                BLOCK
      30043  0500 00 0 31432         CLA PSINGR             NO, SINGLE ELEMENT SO GET PREFIX
      30044  0560 00 0 32402         LDQ     =0
      30045  0340 00 0 32042         CAS     .FMT          IF .FMT, DECR = STFLAD
      30046  0020 00 0 30050         TRA     *+2           OTHERWISE, DECR=0
      30047  0020 00 0 30157         TRA     CM10          .FMT
      30050 -0600 00 0 31372  CM12   STQ     A
      30051  0601 00 0 31371  CM3    STO B
      30052                          TSTCLS  (L+1,1),FL.,XX,CM4
      30056                          MTXROW  =0,.FLD,(L+1,1)
      30062  0600 00 0 31375         STZ PAR
      30063  0020 00 0 30066         TRA CM9
      30064                   CM4    ADDANL  (L+1,1)
      30066                   CM9    MTXROW  A,B,PAR
      30072  1 77776 1 30073         TXI *+1,1,-2
      30073  0774 00 4 00000  C18X   AXT     **,4
      30074  0020 00 4 00001         TRA 1,4
      30075                   CM2    TSTCLS  (L+3,1),FL.(CM7),XP.(CM5),IP.(CM5),VR.(CM5),CM5X
      30110                   CM5X   TSTCLS  (L+3,1),CN.(CM5)
      30115                   CM5    ADDANL  (L+3,1)
      30117  0601 00 0 31372         STO A
      30120  0020 00 0 30133         TRA CM8
      30121                   CM7    MTXROW  =0,.FLD,(L+3,1)
      30125  0600 00 0 31372         STZ A
      30126 -0500 00 1 40024         CAL L+1,1              IF LOW END SPECIFICATION IS
      30127  0402 00 1 40026         SUB L+3,1              SAME FLAD
      30130 -0100 00 0 30133         TNZ CM8
      30131  0600 00 1 40024         STZ L+1,1              THEN BOTH ARE TAKEN CARE OF
      30132  0020 00 0 30153         TRA     CM6
      30133                   CM8    TSTCLS  (L+1,1),FL.(CM6),XP.(CM6),IP.(CM6),VR.(CM6),CM6X
      30146                   CM6X   TSTCLS  (L+1,1),CN.(CM6)
      30153  0500 00 1 40024  CM6    CLA L+1,1              MOVE
      30154  0601 00 1 40026         STO L+3,1              LOW END OF BLOCK INTO POSITION
      30155  0500 00 0 31431         CLA PBLCKR             GET BLOCK PREFIX
      30156  1 77776 1 30051         TXI CM3,1,-2
      30157  0560 00 0 00154  CM10   LDQ     STFLAD
      30160 -0534 00 4 47446         LXD     MTX,4         IF .STA, THEN .FLD, CHANGE
      30161  0500 00 4 47445         CLA     MTX-1,4           TO .STD INSTEAD
      30162  0402 00 0 32020         SUB     .STA
      30163 -0100 00 0 30166         TNZ     CM11
      30164  0500 00 0 32034         CLA     .STD
      30165  0601 00 4 47445         STO     MTX-1,4
      30166  0500 00 0 31432  CM11   CLA     PSINGR
      30167  0020 00 0 30050         TRA     CM12
1                    MAD I FOR CTSS ... R M GRAHAM ... FEB 1964                  03/15/69 1107.8 PAGE 149

                                         PROCESS NEXT OPERAND FROM LIST, SET TAG IF SUBSCRIPTED


      30170 -0600 00 0 31367  OPND   STQ TAG
      30171  0441 00 1 40024         LDI     L+1,1
      30172 -0054 00  700000         LFT     700000
      30173  0020 00 0 30175         TRA     *+2
      30174                          ERROR   22
      30175  0500 00 1 40025         CLA L+2,1
      30176  0402 00 0 31773         SUB .S                 IS OPERAND SUBSCRIPTED
      30177  0100 00 0 30202         TZE OPN1
      30200  0500 00 1 40024  OPN2   CLA L+1,1              NO, SO RETURN NAME
      30201  0020 00 4 00001         TRA 1,4
      30202  0634 00 4 30215  OPN1   SXA     XC13,4
      30203                          ADDANL  (L+3,1)
      30205                          MTXROW  TAG,.TAG,PAR
      30211  0500 00 0 31367         CLA TAG                PROPER TAG IN
      30212  0767 00 0 00017         ALS 15                 VARIABLE NAME
      30213 -0501 00 1 40024         ORA L+1,1              AND
      30214  0602 00 1 40026         SLW L+3,1
      30215  0774 00 4 00000  XC13   AXT     **,4
      30216  1 77776 1 30200         TXI OPN2,1,-2
1                    MAD I FOR CTSS ... R M GRAHAM ... FEB 1964                  03/15/69 1107.8 PAGE 150

                              *              GET ERROR NUMBER AND PRINT WITH COMMENT


      30217 -0634 00 2 31437  ERR    SXD     X25,2          SAVE
      30220 -0634 00 1 31436         SXD     X24,1          REGISTERS
      30221 -0634 00 4 31440         SXD     X26,4
      30222  0601 00 0 31416         STO     ERRXX1
      30223 -0600 00 0 31417         STQ     ERRXX2
      30224  0771 00 0 00043         ARS     35
      30225  0602 00 0 31420         SLW     ERRXX3
      30226  0604 00 0 31421         STI     ERRXX4
      30227 -0500 00 0 32054         CAL     TXH
      30230  0630 00 0 20156         STP     ERRSW
      30231 -0500 00 0 00000         CAL     0              GET
      30232  0402 00 0 32403         SUB     =1
      30233  0621 00 0 30245         STA     GETERC
      30234 -0765 00 0 00017         LGR     15             NUMBER
      30235 -0500 00 0 32560         CAL     =H
      30236  0774 00 4 00005         AXT     5,4            CONVERT
      30237  0767 00 0 00003         ALS     3              TO
      30240 -0763 00 0 00003         LGL     3              OCTAL
      30241  2 00001 4 30237         TIX     *-2,4,1
      30242  0602 00 0 30310         SLW     ER106
      30243  0074 00 4 00202         TSX     WRFLX,4
      30244  0 00014 0 30306         PZE     ER105,,12
      30245 -0500 00 0 00000  GETERC CAL     **             GET LOCATION AND WORD COUNT
      30246 -0734 00 2 00000         PDX     ,2             OF COMMENT
      30247  0621 00 0 30266         STA     ERC2
      30250  0625 00 0 31435         STT     RTNSW
      30251 -0500 00 0 32560         CAL     =H
      30252  0602 00 0 42351         SLW     BUFFER
      30253 -3 00012 2 30304  ERC4   TXL     ERC1,2,10
      30254 -0500 00 0 32412         CAL     =10
      30255  0734 00 1 00000  ERC5   PAX     ,1
      30256  0601 00 0 42366         STO     BUFFER+13
      30257  0361 00 0 30266         ACL     ERC2
      30260  0621 00 0 30266         STA     ERC2
      30261 -0500 00 0 42366         CAL     BUFFER+13
      30262  0361 00 0 32403         ACL     =1
      30263  0767 00 0 00022         ALS     18
      30264  0622 00 0 30273         STD     ERC6+1
      30265  0774 00 4 77777         AXT     -1,4
      30266 -0500 00 1 00000  ERC2   CAL     **,1
      30267  0602 00 4 42351  ERC7   SLW     BUFFER,4
      30270  1 77777 4 30271         TXI     *+1,4,-1
      30271  2 00001 1 30266         TIX     ERC2,1,1
      30272  0074 00 4 00202  ERC6   TSX     WRFLX,4
      30273  0 00000 0 42351         PZE     BUFFER,,**
      30274  2 00012 2 30253         TIX     ERC4,2,10
      30275  0 07400 4 30322         CALL    DUMPXX
      30276 -0534 00 2 31437         LXD     X25,2
      30277 -0534 00 1 31436         LXD     X24,1
      30300 -0534 00 4 31440         LXD     X26,4
      30301  0520 00 0 31435         ZET     RTNSW
      30302  0020 60 0 00000         TRA*    0
1                    MAD I FOR CTSS ... R M GRAHAM ... FEB 1964                  03/15/69 1107.8 PAGE 151

      30303  0020 00 0 23640         TRA     ENDSMT
      30304  0754 00 2 00000  ERC1   PXA     ,2
      30305  0020 00 0 30255         TRA     ERC5
      30306  605454545454     ER105  BCI     2, ***** ERROR
      30310  0 00000 0 00000  ER106  PZE
      30311  603145606263            BCI     6, IN STATEMENT BEGINNING ON CARD
      30317  0 00000 0 00000  ERRXX5 PZE
      30320  0 00000 0 00000  ERRXX6 PZE
      30321  0 00000 0 00000  ERRXX7 PZE
1                    MAD I FOR CTSS ... R M GRAHAM ... FEB 1964                  03/15/69 1107.8 PAGE 152

                              *              SUBROUTINE TO DUMP WORKING STORAGE


      30322  0520 00 0 31462  DUMPXX ZET     ERDPFL
      30323  0020 00 0 30325         TRA     *+2
      30324  0020 00 4 00001         TRA     1,4
      30325  0634 00 4 30353  DUMPXZ SXA     DUMPXT,4
      30326  0074 00 4 00147         TSX     SDUMP,4
      30327  0020 00 0 30353         TRA     DUMPXT
      30330 -0500 00 0 30356         CAL     DMP224
      30331  0534 00 4 00171         LXA     MTXOVF,4
      30332  3 00002 4 30335         TXH     *+3,4,2
      30333  0500 00 0 30355         CLA     DMP223
      30334  0402 00 0 47446         SUB     MTX
      30335  0622 00 0 30345         STD     DMP222+1
      30336                          SDUMP   DIC,BUFFER+13
      30340                          SDUMP   BGNF12-L62,OPCD.
      30342                          SDUMP   FRSTMP,LASTMP-1
      30344                   DMP222 SDUMP   MTX,**
      30346                          SDUMP   0,0
      30350                          SDUMP   0,0
      30352  0600 00 0 31453         STZ     DPNXFL
      30353  0774 00 4 00000  DUMPXT AXT     **,4
      30354  0020 00 4 00001         TRA     1,4
      30355  1 47446 0 00000  DMP223 PON     ,,MTX
      30356  0 65507 0 00000  DMP224 PZE     ,,INST
1                    MAD I FOR CTSS ... R M GRAHAM ... FEB 1964                  03/15/69 1107.8 PAGE 153

                                          TABLES AND CONSTANTS


                                          THE FOLLOWING TABLES ARE THE DICTIONARIES
                                          OF STATEMENT TYPES--THE ENTRIES ARE
                                          TWO WORDS--WD1 IS BCD LTR GROUP
                                          WD2 IS A TXI GI,0 TO THE
                                          PROPER GENERATOR GI


                       30357  BGNF8  SYN *
      30357                          STMTDC  PRINTF,11,T,T25
      30361                          STMTDC  READFO,10,T,T29
      30363                          STMTDC  VECTOR,12,S,T45
      30365                          STMTDC  TRANSF,10,O,T7
      30367                          STMTDC  THROUG,7,H,T10X
      30371                          STMTDC  ENDOFC,16,L,T14
      30373                          STMTDC  WHENEV,8,R,T9X
      30375                          STMTDC  PRINTC,12,T,T54
      30377                          STMTDC  PRINTR,12,S,T28
      30401                          STMTDC  PRINTB,15,S,T73
      30403                          STMTDC  READDA,8,A,T53
      30405                          STMTDC  READAN,16,A,T72
      30407                          STMTDC  FORMAT,14,E,T67
      30411                          STMTDC  LOOKAT,12,T,T71
      30413                          STMTDC  INTEGE,7,R,T2
      30415                          STMTDC  ENDOFP,12,M,T5
      30417                          STMTDC  DIMENS,9,N,T1
      30421                          STMTDC  CONTIN,8,E,T44
      30423                          STMTDC  EXECUT,7,E,T15
      30425                          STMTDC  FUNCTI,6
      30427                          STMTDC  INTERN,16,N,T16
      30431                          STMTDC  ONRETU,14,N,T19
      30433                          STMTDC  UNCTIO,13,N,T17
      30435                          STMTDC  EXTERN,16,N,T22
      30437                          STMTDC  ENDOFF,6
      30441                          STMTDC  ENTRYT,7,O,T18
      30443                          STMTDC  ORWHEN,10,R,T13
      30445                          STMTDC  OTHERW,9,E,T4
      30447                          STMTDC  ERASAB,8,E,T24
      30451                          STMTDC  NORMAL,12,S,T61
      30453                          STMTDC  EQUIVA,11,E,T23
      30455                          STMTDC  BOOLEA,7,N,T3
      30457                          STMTDC  PROGRA,7
      30461                          STMTDC  COMMON,13,N,T57
      30463                          STMTDC  PUNCHF,11,T,T27
      30465                          STMTDC  READBI,14,E,T33
      30467                          STMTDC  WRITEB,6
      30471                          STMTDC  INARYT,15,E,T31
      30473                          STMTDC  PRINTO,6
      30475                          STMTDC  CTALRE,17,S,T74
      30477                          STMTDC  NLINEF,17,T,T26
      30501                          STMTDC  FLOATI,13,T,T60
      30503                          STMTDC  READBC,11,E,T34
1                    MAD I FOR CTSS ... R M GRAHAM ... FEB 1964                  03/15/69 1107.8 PAGE 154

      30505                          STMTDC  CDTAPE,12,E,T32
      30507                          STMTDC  ERRORR,11,N,T21
      30511                          STMTDC  BACKSP,6
      30513                          STMTDC  ACEREC,21,E,T55
      30515                          STMTDC  ILETAP,13,E,T52
      30517                          STMTDC  ONNAME,12,E,T58
      30521                          STMTDC  PAUSEN,7,O,T6
      30523                          STMTDC  REWIND,10,E,T51
      30525                          STMTDC  RESTOR,5
      30527                          STMTDC  REDATA,11,A,T66
      30531                          STMTDC  RERETU,13,N,T65
      30533                          STMTDC  SAVERE,10,N,T63
      30535                          STMTDC  SAVEDA,8,A,T64
      30537                          STMTDC  SETLIS,9,O,T62
      30541                          STMTDC  STATEM,14,L,T59
      30543                          STMTDC  ACEFIL,19,E,T56
      30545                          STMTDC  BINARY,20,R,T37
      30547                          STMTDC  DEFINE,6
      30551                          STMTDC  MODENU,10,R,T42
      30553                          STMTDC  MODEST,13,E,T39
      30555                          STMTDC  UNARYO,19,R,T41
      30557                          STMTDC  SAMESE,14,S,T38
      30561                          STMTDC  INSERT,10,E,T36
      30563                          STMTDC  PARAME,16,R,T35
      30565                          STMTDC  DIAGNO,10
      30567                          STMTDC  MTRXON,16,N,T46
      30571                          STMTDC  ITABLE,17,S,T47
      30573                          STMTDC  IITABL,18,S,T48
      30575                          STMTDC  DUMPON,16,N,T50
      30577                          STMTDC  DUMPOF,17,F,T40
      30601                          STMTDC  DUMPNE,18,T,T49
      30603                          STMTDC  MTRXOF,17,F,T43
      30605                          STMTDC  UNLOAD,10,E,T68
      30607                          STMTDC  SETLOW,17,E,T69
      30611                          STMTDC  SETHIG,18,E,T70
      30613                          STMTDC  READON,16,T,T29
      30615  0 00236 0 00000  F8     PZE ,,F8-BGNF8
1                    MAD I FOR CTSS ... R M GRAHAM ... FEB 1964                  03/15/69 1107.8 PAGE 155

                                                            THIS IS OPERATION TABLE--2 WORD ENTRIES
                                          WD1--OPN IN BCD
                                          WD2--F12(OPN)WITH S2=PREC,S4=OP CODE


      30616                          BSS     L62
                       30654  BGNF12 SYN *
      30654                          OPCODE                .SRRTN
      30655                          OPCODE                .PRLG
      30656                          OPCODE  12            EX
      30657                          OPCODE  15,14         .VFN
      30660                          OPCODE  ,16           .FNLC
      30661                          OPCODE  ,14           .FNOP
      30662                          OPCODE                .PEND
      30663                          OPCODE                .PRLG
      30664                          OPCODE                .FMT
      30665                          OPCODE                .TXL
      30666                          OPCODE                .RTNB
      30667                          OPCODE  ,7            .IOLC
      30670                          OPCODE                .IFNTY
      30671                          OPCODE                .TAGA
      30672                          OPCODE                .STD
      30673                          OPCODE                .GONEB
      30674                          OPCODE  14            .RS.
      30675                          OPCODE  14            .LS.
      30676                          OPCODE  14,,XX              .N.
      30677                          OPCODE  13            .A.
      30700                          OPCODE                .EXTF
      30701                          OPCODE  ,6            ...
      30702                          OPCODE                .XFNTY
      30703                          OPCODE  12            .V.
      30704                          OPCODE                .GZROB
      30705                          OPCODE                .BCD
      30706                          OPCODE                .TXI
      30707                          OPCODE  ,3            .LC
      30710                          OPCODE                .RC
      30711                          OPCODE  ,5            (
      30712                          OPCODE  ,4            )
      30713                          OPCODE                .STA
      30714                          OPCODE                .INTF
      30715                          OPCODE                .CONST
      30716                          OPCODE                .FEND
      30717                          OPCODE  10,,XX              .NEG
      30720                          OPCODE                .ERR
      30721                          OPCODE                .RTN
      30722                          OPCODE                .RSTLC
      30723                          OPCODE                .SAVLC
      30724                          OPCODE                .TIX
      30725                          OPCODE                .FLD
      30726                          OPCODE                .DEF
      30727                          OPCODE                .DIF
      30730                          OPCODE                .DICT
      30731                          OPCODE                .MTX2
      30732                          OPCODE                .HLT
1                    MAD I FOR CTSS ... R M GRAHAM ... FEB 1964                  03/15/69 1107.8 PAGE 156

      30733                          OPCODE                .JMP
      30734                          OPCODE                .P
      30735                          OPCODE  15,14         .F
      30736                          OPCODE  ,2            ,
      30737                          OPCODE                .TAG
      30740                          OPCODE                .S
      30741                          OPCODE  3,13          .THEN.
      30742                          OPCODE  7,9           .LE.
      30743                          OPCODE  7,9           .L.
      30744                          OPCODE  7,9           .GE.
      30745                          OPCODE  7,9           .G.
      30746                          OPCODE  7,9           .NE.
      30747                          OPCODE  7,9           .E.
      30750                          OPCODE  4             .EXOR.
      30751                          OPCODE  11,15         .P.
      30752                          OPCODE  14,,XX              .ABS.
      30753                          OPCODE  6,10          .NOT.
      30754                          OPCODE  2             .EQV.
      30755                          OPCODE  5,11          .AND.
      30756                          OPCODE  4,12          .OR.
      30757                          OPCODE  1,8           =
      30760                          OPCODE  9,15          /
      30761                          OPCODE  9,15          *
      30762                          OPCODE  8,1           -
      30763                          OPCODE  8,1           +
      30764  0 00110 0 00000  F12    PZE     ,,F12-BGNF12  D=CURRENT TABLE SIZE
1                    MAD I FOR CTSS ... R M GRAHAM ... FEB 1964                  03/15/69 1107.8 PAGE 157

      30765                          BSS     L62
      31023  336251516345            BCI     1,.SRRTN
      31024  334751432760            BCI     1,.PRLG
      31025  256760606060            BCI     1,EX
      31026  336526456060            BCI     1,.VFN
      31027  332645432360            BCI     1,.FNLC
      31030  332645464760            BCI     1,.FNOP
      31031  334725452460            BCI     1,.PEND
      31032  333146264560            BCI     1,.IOFN
      31033  332644636060            BCI     1,.FMT
      31034  336367436060            BCD 1.TXL
      31035  335163452260            BCD 1.RTNB
      31036  333146432360            BCI     1,.IOLC
      31037  333126456370            BCD 1.IFNTY
      31040  336321272160            BCD 1.TAGA
      31041  336263246060            BCD 1.STD
      31042  332746452522            BCD 1.GONEB
      31043  516260606060            BCI     1,RS
      31044  436260606060            BCI     1,LS
      31045  456060606060            BCI     1,N
      31046  216060606060            BCI     1,A
      31047  332567632660            BCD 1.EXTF
      31050  333333606060            BCI     1,...
      31051  336726456370            BCD 1.XFNTY
      31052  656060606060            BCI     1,V
      31053  332771514622            BCD 1.GZROB
      31054  332223246060            BCI     1,.BCD
      31055  336263516060            BCI     1,.STR
      31056  334323606060            BCI     1,.LC
      31057  335123606060            BCI     1,.RC
      31060  746060606060            BCI     1,(
      31061  346060606060            BCI     1,)
      31062  336263216060            BCD 1.STA
      31063  333145632660            BCD 1.INTF
      31064  332346456263            BCD 1.CONST
      31065  332625452460            BCD 1.FEND
      31066  452527606060            BCD 1NEG
      31067  332551516060            BCD 1.ERR
      31070  335163456060            BCD 1.RTN
      31071  335162634323            BCD 1.RSTLC
      31072  336221654323            BCD 1.SAVLC
      31073  336331676060            BCD 1.TIX
      31074  332643246060            BCD 1.FLD
      31075  332425266060            BCD 1.DEF
      31076  332431266060            BCD 1.DIF
      31077  332431236360            BCD 1.DICT
      31100  334463670260            BCD 1.MTX2
      31101  333043636060            BCI     1,.HLT
      31102  334144476060            BCD 1.JMP
      31103  334760606060            BCD 1.P
      31104  332660606060            BCD 1.F
      31105  736060606060            BCI     1,,
      31106  336321276060            BCD 1.TAG
      31107  336260606060            BCD 1.S
      31110  633025456060            BCD 1THEN
      31111  432560606060            BCD 1LE
1                    MAD I FOR CTSS ... R M GRAHAM ... FEB 1964                  03/15/69 1107.8 PAGE 158

      31112  436060606060            BCD 1L
      31113  272560606060            BCD 1GE
      31114  276060606060            BCD 1G
      31115  452560606060            BCD 1NE
      31116  256060606060            BCD 1E
      31117  256746516060            BCD 1EXOR
      31120  476060606060            BCD 1P
      31121  212262606060            BCD 1ABS
      31122  454663606060            BCD 1NOT
      31123  255065606060            BCD 1EQV
      31124  214524606060            BCD 1AND
      31125  465160606060            BCD 1OR
      31126  136060606060            BCD 1=
      31127  616060606060            BCD 1/
      31130  546060606060            BCD 1*
      31131  406060606060            BCD 1-
      31132  206060606060            BCD 1+
      31133  545400606060     OPCD.  BCD 1**0


                       31134  ABTOP  SYN     *
      31134                          ABREV   TO,9,BV1
      31135                          ABREV   WR,6,BV2
      31136                          ABREV   OR,9,BV3
      31137                          ABREV   EL,16,BV4
      31140                          ABREV   OE,7,BV5
      31141                          ABREV   TH,5,BV6
      31142                          ABREV   EM,12,BV7
      31143                          ABREV   FN,13,BV8
      31144                          ABREV   EO,6,BV9
      31145                          ABREV   VS,11,BV10
      31146                          ABREV   EN,13,BV11
      31147                          ABREV   PT,10,BV12
      31150                          ABREV   RT,9,BV13
      31151                          ABREV   RA,17,BV14
      31152                          ABREV   PS,11,BV15
      31153                          ABREV   DN,7,BV16
      31154                          ABREV   NS,12,BV17
      31155                          ABREV   PN,12,BV18
      31156                          ABREV   CE,6,BV19
      31157                          ABREV   EE,9,BV20
      31160                          ABREV   IR,5,BV21
      31161                          ABREV   FT,12,BV22
      31162                          ABREV   SL,13,BV23
      31163                          ABREV   BN,5,BV24
      31164                          ABREV   FE,13,BV25
      31165                          ABREV   NR,20,BV26
      31166                          ABREV   IE,9,BV27
      31167                          ABREV   FF,11,BV28
      31170                          ABREV   IN,15,BV29
      31171                          BSS     4
                       31175  ABTAB  SYN     *
1                    MAD I FOR CTSS ... R M GRAHAM ... FEB 1964                  03/15/69 1107.8 PAGE 159

      31175  512145622625     BV1    BCI     2,RANSFER T
      31177  302545256525     BV2    BCI     1,HENEVE
      31200  516066302545     BV3    BCI     2,R WHENEVE
      31202  452460462660     BV4    BCI     3,ND OF CONDITIONA
      31205  633025516631     BV5    BCI     2,THERWIS
      31207  305146642760     BV6    BCI     1,HROUG
      31210  452460462660     BV7    BCI     2,ND OF PROGRA
      31212  644523633146     BV8    BCI     3,UNCTION RETUR
      31215  456351706063     BV9    BCI     1,NTRY T
      31216  252363465160     BV10   BCI     2,ECTOR VALUE
      31220  452460462660     BV11   BCI     3,ND OF FUNCTIO
      31223  513145636026     BV12   BCI     2,RINT FORMA
      31225  252124602646     BV13   BCI     2,EAD FORMA
      31227  252124602145     BV14   BCI     3,EAD AND PRINT DAT
      31232  513145636051     BV15   BCI     2,RINT RESULT
      31234  314425456231     BV16   BCI     2,IMENSIO
      31236  465144214360     BV17   BCI     2,ORMAL MODE I
      31240  514627512144     BV18   BCI     2,ROGRAM COMMO
      31242  464563314564     BV19   BCI     1,ONTINU
      31243  506431652143     BV20   BCI     2,QUIVALENC
      31245  456325272560     BV21   BCI     1,NTEGE
      31246  434621633145     BV22   BCI     2,LOATING POIN
      31250  632163254425     BV23   BCI     3,TATEMENT LABE
      31253  464643252160     BV24   BCI     1,OOLEA
      31254  465144216360     BV25   BCI     3,ORMAT VARIABL
      31257  465144214360     BV26   BCI     4,ORMAL MODE IS INTEGE
      31263  456225516360     BV27   BCI     2,NSERT FIL
      31265  465160652143     BV28   BCI     2,OR VALUES O
      31267  456325514521     BV29   BCI     3,NTERNAL FUNCTIO
      31272                          BSS     13
1                    MAD I FOR CTSS ... R M GRAHAM ... FEB 1964                  03/15/69 1107.8 PAGE 160

                                          CONSTANTS


      31307  0 00000 0 00017         PZE 15                 INVERSE RELATION OF .LE.
      31310  0 00000 0 00020         PZE 16                                     .L.
      31311  0 00000 0 00021         PZE 17                                     .GE.
      31312  0 00000 0 00022         PZE 18                                     .G.
      31313  0 00000 0 00015         PZE 13                                     .NE.
      31314  0 00000 0 00016  INVREL PZE 14                                     .E.


      31315  3 00000 1 00000  PBTMR  PTH 0,1,0
      31316  3 00000 3 00000  TPRCR  PTH 0,3,0
      31317  3 00000 2 00000  FPRCR  PTH 0,2,0
      31320 +233000000000     EXPNT  DEC 155B8
      31321  016060606060     HEAD   BCI     1,1
      31322  442124604751            BCI     8,MAD PROGRAM LISTING ... ... ...
      31332  263143256060            BCI     6,FILE  XXXXXX   MAD
      31340  545454545454     DATE   BCI     1,******
      31341  545454545454     TIME   BCI     1,******
      31342  406060606060     HEAD1  BCI     3,-
      31345 +010000000000     EXPQ8  OCT 10000000000
      31346  606054000000     IDENT  BCI     1,  *000
      31347  0 00000 0 00001  LBQ1   PZE     1
1                    MAD I FOR CTSS ... R M GRAHAM ... FEB 1964                  03/15/69 1107.8 PAGE 161

                                         TEMPORARIES


                       31350  FRSTMP SYN     *
      31350  0 00000 0 00000  ID100  PZE
      31351  0 00000 0 00000  ID10   PZE
      31352  0 00000 0 00000  ID1    PZE
      31353  0 00000 0 00000  SKPSW.
      31354  0 00000 0 00000  UNTAG
      31355  0 00000 0 00000  TERMLT
      31356  0 00000 0 00000  PREC
      31357  0 00000 0 00000  FLAGS
      31360  0 00000 0 00000  TFLAD
      31361  0 00000 0 00000  WHNCNT
      31362  0 00000 0 00000  CC
      31363  0 00000 0 00000  THISST
      31364  0 00000 0 00000  ETYCNT
      31365  0 00000 0 00000  ION
      31366  0 00000 0 00000  OPTM   PZE
      31367  0 00000 0 00000  TAG    PZE
      31370  0 00000 0 00000  AT     PZE
      31371  0 00000 0 00000  B      PZE
      31372  0 00000 0 00000  A      PZE
      31373  0 00000 0 00000  SN     PZE
      31374  0 00000 0 00000  MODE   PZE
      31375  0 00000 0 00000  PAR    PZE
      31376  0 00000 0 00000  PBR    PZE
      31377  3 00000 0 00000  I      PTH
      31400  0 00000 0 00000  PT     PZE
      31401  0 00000 0 00000  NAME   PZE
      31402  2 00000 4 00000  F      PTW ,4
      31403  2 00000 2 00000  IF.1   PTW ,2
      31404  2 00000 3 00000  IF.2   PTW ,3
      31405  0 00000 0 00000  SNT
      31406  0 00000 0 00000  FTM
      31407  0 00000 0 00000  FTMC
      31410  0 00000 0 00000  FTMB
      31411  0 00000 0 00000  FTMA
      31412  0 00000 0 00000  IFLFA
      31413  0 00000 0 00000  FLTM
      31414  0 00000 0 00000  SNPT
      31415  0 00000 0 00000  MAXLNG
      31416  0 00000 0 00000  ERRXX1 PZE
      31417  0 00000 0 00000  ERRXX2 PZE
      31420  0 00000 0 00000  ERRXX3 PZE
      31421  0 00000 0 00000  ERRXX4
      31422  0 00000 0 00000  CMA
      31423  0 00000 0 00000  LAMBDA
      31424  0 00000 0 00000  TRATAG
      31425  0 00000 0 00000  ITRFOR
      31426  0 00000 0 00000  ITRIF1
      31427  0 00000 0 00000  ITRIF2
      31430  0 00000 0 00000  SAVTRA
      31431  0 00000 0 00000  PBLCKR PZE
1                    MAD I FOR CTSS ... R M GRAHAM ... FEB 1964                  03/15/69 1107.8 PAGE 162

      31432  0 00000 0 00000  PSINGR PZE
      31433  0 00000 0 00000  SVPRLG
      31434  0 00000 0 00000  SVETYS
      31435  0 00000 0 00000  RTNSW  PZE
      31436  0 00000 0 00000  X24    PZE
      31437  0 00000 0 00000  X25    PZE
      31440  0 00000 0 00000  X26    PZE
      31441  0 00000 0 00000  EXP    PZE
      31442  0 00000 0 00000  CODE   PZE
      31443  0 00000 0 00000  TYP
      31444  0 00000 0 00000  UNF
      31445  0 00000 0 00000  OPL
      31446  0 00000 0 00000  REMKFL
      31447  0 00000 0 00000  BSRFL
      31450  0 00000 0 00000  TR
      31451  0 00000 0 00000  MXOPFL
      31452  0 00000 0 00000  MTRXFL
      31453  0 00000 0 00000  DPNXFL
      31454  0 00000 0 00000  TAB2FL
      31455  0 00000 0 00000  TAB1FL
      31456  0 00000 0 00000  CONTFL
      31457  0 00000 0 00000  PGCMFL
      31460  0 00000 0 00000  ERASFL
      31461  0 00000 0 00000  DIGTSW
      31462  0 00000 0 00000  ERDPFL
      31463  0 00000 0 00000  SAD14
      31464  0 00000 0 00000  TB6
      31465  0 00000 0 00000  PRIME
      31466  0 00000 0 00000  SIGMA
      31467  0 00000 0 00000  EF4
      31470  0 00000 0 00000  EF23
      31471  0 00000 0 00000  EF28
      31472  0 00000 0 00000  EF33
      31473  0 00000 0 00000  EOFINS
      31474  0 00000 0 00000  TF.MAD
      31475  0 00000 0 00000  EOFFLG
      31476  0 00000 0 00000  EOFXX
      31477  0 00000 0 00000  IRSAVE
                       31500  LASTMP SYN     *
1                    MAD I FOR CTSS ... R M GRAHAM ... FEB 1964                  03/15/69 1107.8 PAGE 163

      31500  314343252721     ER1    BCI     9,ILLEGAL STATEMENT IN SCOPE OF SIMPLE CONDITIONAL.
                       31511  ER1X   SYN     *
      31511  634646604421     ER2    BCI     5,TOO MANY DEFINED OPERATORS.
                       31516  ER2X   SYN     *
      31516  314343252721     ER3    BCI     5,ILLEGAL STATEMENT FORMATION.
                       31523  ER3X   SYN     *
      31523  442124016025     ER4    BCI     5,MAD1 ERROR, SEE A.E.NEUMAN.
                       31530  ER4X   SYN     *
      31530  314343252721     ER6    BCI     5,ILLEGAL USE OF DUMMY VARIABLE.
                       31535  ER6X   SYN     *
      31535  545454545454     ER7    BCI     4,******TABLE IS FULL.
                       31541  ER7X   SYN     *
      31541  314565214331     ER8    BCI     5,INVALID OR INCONSISTANT MODE.
                       31546  ER8X   SYN     *
      31546  314523464447     ER10   BCI     4,INCOMPLETE PROGRAM.
                       31552  ER10X  SYN     *
      31552  314343252721     ER11   BCI     5,ILLEGAL CHARACTER ON CARD.
                       31557  ER11X  SYN     *
      31557  452144256063     ER12   BCI     7,NAME TOO LONG OR ILLEGAL PUNCTUATION.
                       31566  ER12X  SYN     *
      31566  314343252721     ER13   BCI     7,ILLEGAL STATEMENT TYPE OR PUNCTUATION.
                       31575  ER13X  SYN     *
      31575  644524252631     ER14   BCI     8,UNDEFINED OPERATION OR ILLEGAL PUNCTUATION.
                       31605  ER14X  SYN     *
      31605  314343252721     ER15   BCI     6,ILLEGAL FORMATION OR PUNCTUATION.
                       31613  ER15X  SYN     *
      31613  443162623145     ER16   BCI     8,MISSING END OF CONDITIONAL OR ILLEGAL NESTING.
                       31623  ER16X  SYN     *
      31623  443162623145     ER17   BCI     7,MISSING THROUGH SCOPE OR ILLEGAL NESTING.
                       31632  ER17X  SYN     *
      31632  256763255145     ER18   BCI     6,EXTERNAL FUNCTION NOT TERMINATED.
                       31640  ER18X  SYN     *
      31640  314563255145     ER19   BCI     9,INTERNAL FUNCTION NOT TERMINATED ORILLEGAL NESTING.
                       31651  ER19X  SYN     *
      31651  634646604421     ER20   BCI     5,TOO MANY EQUIVALENCE CLASSES.
                       31656  ER20X  SYN     *
      31656  443162623145     ER21   BCI     6,MISSING OPERATION OR PUNCTUATION.
                       31664  ER21X  SYN     *
      31664  443162623145     ER22   BCI     3,MISSING OPERAND.
                       31667  ER22X  SYN     *
      31667  626321632544     ER23   BCI     4,STATEMENT TOO LONG.
                       31673  ER23X  SYN     *
      31673  452562633145     ER24   BCI     4,NESTING DEPTH EXCEEDED.
                       31677  ER24X  SYN     *
      31677  443162623145     ER25   BCI     9,MISSING FUNCTION DECLARATION OR ILLEGAL FORMATION.
                       31710  ER25X  SYN     *
      31710  634646604421     ER26   BCI     6,TOO MANY STATEMENT LABEL VECTORS.
                       31716  ER26X  SYN     *
      31716  234645626321     ER27   BCI     4,CONSTANT OUT OF RANGE.
                       31722  ER27X  SYN     *
      31722  314343252721     ER28   BCI     5,ILLEGAL () OR $ STRUCTURE.
                       31727  ER28X  SYN     *
      31727  454660662170     ER29   BCI     6,NO WAY TO REACH THIS STATEMENT.
                       31735  ER29X  SYN     *
      31735  314343252721     ER30   BCI     4,ILLEGAL STATEMENT LABEL.
                       31741  ER30X  SYN     *
1                    MAD I FOR CTSS ... R M GRAHAM ... FEB 1964                  03/15/69 1107.8 PAGE 164

      31741  633031626026     ER31   BCI     5,THIS FUNCTION HAS NO ENTRY.
                       31746  ER31X  SYN     *
      31746  314343252721     ER32   BCI     6,ILLEGAL CHARACTER '*' IN COLUMN 11.
                       31754  ER32X  SYN     *
      31754  314343252721     ER33   BCI     4,ILLEGAL ABBREVIATION.
                       31760  ER33X  SYN     *
      31760  452562632524     ER34   BCI     4,NESTED INSERT FILE.
                       31764  ER34X  SYN     *
1                    MAD I FOR CTSS ... R M GRAHAM ... FEB 1964                  03/15/69 1107.8 PAGE 165

      31764 +000000000001     .PLUS  OCT     1
      31765 +000000000002     .MINUS OCT     2
      31766 +000000000003     .MPLY  OCT     3
      31767 +000000000004     .DIV   OCT     4
      31770 +000000000005     .EQUAL OCT     5
      31771 +000000000015     .E.    OCT     15
      31772 +000000000016     .NE.   OCT     16
      31773 +000000000024     .S     OCT     24
      31774 +000000000025     .TAG   OCT     25
      31775 +000000000026     .CMA   OCT     26
      31776 +000000000027     .F     OCT     27
      31777 +000000000030     .P     OCT     30
      32000 +000000000031     .JMP   OCT     31
      32001 +000000000032     .HLT   OCT     32
      32002 +000000000033     .MTX2  OCT     33
      32003 +000000000034     .DICT  OCT     34
      32004 +000000000035     .DIF   OCT     35
      32005 +000000000036     .DEF   OCT     36
      32006 +000000000037     .FLD   OCT     37
      32007 +000000000040     .TIX   OCT     40
      32010 +000000000041     .SAVLC OCT     41
      32011 +000000000042     .RSTLC OCT     42
      32012 +000000000043     .RTN   OCT     43
      32013 +000000000044     .ERR   OCT     44
      32014 +000000000045     .NEG   OCT     45
      32015 +000000000046     .FEND  OCT     46
      32016 +000000000047     .CONST OCT     47
      32017 +000000000050     .INTF  OCT     50
      32020 +000000000051     .STA   OCT     51
      32021 +000000000052     .RPARN OCT     52
      32022 +000000000053     .LPARN OCT     53
      32023 +000000000054     .RC    OCT     54
      32024 +000000000055     .LC    OCT     55
      32025 +000000000056     .TXI   OCT     56
      32026 +000000000057     .BCD   OCT     57
      32027 +000000000060     .GZROB OCT     60
      32030 +000000000062     .XFNTY OCT     62
      32031 +000000000063     ...    OCT     63
      32032 +000000000064     .EXTF  OCT     64
      32033 +000000000071     .GONEB OCT     71
      32034 +000000000072     .STD   OCT     72
      32035 +000000000073     .TAGA  OCT     73
      32036 +000000000074     .IFNTY OCT     74
      32037 +000000000075     .IOLC  OCT     75
      32040 +000000000076     .RTNB  OCT     76
      32041 +000000000077     .TXL   OCT     77
      32042 +000000000100     .FMT   OCT     100
      32043 +000000000101     .IOFN  OCT     101
      32044 +000000000102     .PEND  OCT     102
      32045 +000000000103     .FNOP  OCT     103
      32046 +000000000104     .FNLC  OCT     104
      32047 +000000000105     .VFN   OCT     105
      32050 +000000000106     EX     OCT     106
      32051 +000000000107     .PRLG  OCT     107
      32052 +000000000110     .SRRTN OCT     110
      32053 -3 00000 0 00000  TXL    TXL     ,,
1                    MAD I FOR CTSS ... R M GRAHAM ... FEB 1964                  03/15/69 1107.8 PAGE 166

      32054  3 00000 0 00000  TXH    TXH     ,,
      32055 -100001100000     .AC    OCT     500001100000
      32056 -100002000000     .BC    OCT     500002000000
      32057 -100001000000     .IC    OCT     500001000000
      32060 -100000000000     .CN    OCT     500000000000
      32061 -300000000000     .FN    OCT     700000000000
      32062 -000000000000     .VR    OCT     400000000000


1                    MAD I FOR CTSS ... R M GRAHAM ... FEB 1964                  03/15/69 1107.8 PAGE 167

                                             NEW READ ROUTINES USED WITH BUFFERED I/O

      32063  0634 00 4 32251  READC  SXA     READX,4       SAVE LINKAGE
      32064  0774 00 4 42314         AXT     RD,4          ASSUMED MODE IS LINE-MARK
      32065  0634 00 4 32120         SXA     GOMAN+3,4     SET POINTER
      32066 -0625 00 0 32271         STL     LINSW1        SET LINE-MARK SWITCH
      32067  0600 00 0 32266         STZ     GR72          RESET TRUNCATION SWITCH
      32070  0774 00 4 00012         AXT     10,4          SET TAB MARKER
      32071 -0634 00 4 32160         SXD     TABMK,4       ..
      32072  0074 00 4 00207         TSX     (BFRD,4
      32073  3 00000 0 16366         TXH     F..MAD
      32074  3 00000 0 16367         TXH     F..MAD+1
      32075  3 00001 0 32263         TXH     TDUMMY,,1
      32076  3 00000 0 17422         TXH     EOF
      32077  3 00000 0 16701         TXH     EOFCT
      32100  3 00000 0 00204         TXH     CHNXIT
      32101 -0500 00 0 32263         CAL     TDUMMY        GET FIRST WORD OF IMAGE
      32102  0734 00 4 00000         PAX     0,4           SAVE POSSIBLE WORD COUNT
      32103 -0320 00 0 32605         ANA     =O777777000000 MASK OUT POSSIBLE COUNT
      32104  0322 00 0 32605         ERA     =O777777000000 TEST FOR LINE-MARK
      32105  0100 00 0 32114         TZE     GOMAN-1       LINE-MARK, READ REST OF LINE
      32106  0600 00 0 32271         STZ     LINSW1        CARD IMAGE, RESET SWITCH
      32107 -0500 00 0 32263         CAL     TDUMMY        GET FIRST WORD
      32110  0602 00 0 42314         SLW     RD            RESTORE IT TO READ BUFFER
      32111  0774 00 4 42315         AXT     RD+1,4        SET READ ROUTINE FOR REST OF WORDS
      32112  0634 00 4 32120         SXA     GOMAN+3,4     ..
      32113  0774 00 4 00015         AXT     13,4          RESET REMAINING WORD COUNT TO 13
      32114 -0634 00 4 32120         SXD     GOMAN+3,4     SET WORD COUNT

                                             READ REST OF LINE OR CARD

      32115  0074 00 4 00207  GOMAN  TSX     (BFRD,4
      32116  3 00000 0 16366         TXH     F..MAD
      32117  3 00000 0 16367         TXH     F..MAD+1
      32120  3 00000 0 00000         TXH     **,,**
      32121  3 00000 0 17422         TXH     EOF
      32122  3 00000 0 16701         TXH     EOFCT
      32123  3 00000 0 00204         TXH     CHNXIT
      32124 -0520 00 0 32271         NZT     LINSW1        TEST FOR LINE-MARKED OR CARD IMAGE
      32125  0020 00 0 32251         TRA     READX         CARD-IMAGE, EXIT

                                          THIS SECTION MAKES A CARD IMAGE FROM A LINE-MARKED ONE

      32126  0074 00 4 32165         TSX     SETGT,4       SET COUNTERS, ETC.
      32127  0074 00 4 32174  GULP   TSX     GET,4         GET A CHARACTER IN AC
      32130 -0340 00 0 32425         LAS     =O57          TEST FOR NULL CHARACTER
      32131  0020 00 0 32147         TRA     EORT          MAY BE A TAB OR END CHARACTER
      32132  0020 00 0 32127         TRA     GULP          NULL, IGNORE
      32133 -0340 00 0 32420         LAS     =O35          TEST FOR BACKSPACE
      32134  0020 00 0 32145         TRA     SWAL          IGNORE IF NOT BACKSPACE
      32135  0020 00 0 32137         TRA     *+2           BACKSPACE, MOVE POINTER BACK
      32136  0020 00 0 32145         TRA     SWAL          NOT BACKSPACE, STORE
      32137  3 00013 7 32145         TXH     SWAL,7,11     BACKSPACE MUST BE IN COLUMN 12
      32140 -3 00012 7 32145         TXL     SWAL,7,10     IF NOT IN 12, ASSUME A LEGAL COLON
      32141  1 77777 7 32142         TXI     *+1,7,-1      MOVE POINTER BACK
      32142 -3 00110 7 32127         TXL     GULP,7,72     MUST STOP AT FIRST CHARACTER
1                    MAD I FOR CTSS ... R M GRAHAM ... FEB 1964                  03/15/69 1107.8 PAGE 168

      32143  0774 00 7 00000         AXT     0,7           OVERSHOOT, RESET POINTER
      32144  0020 00 0 32127         TRA     GULP          CONTINUE

      32145  0074 00 4 32206  SWAL   TSX     TAKE,4        PLACE CHARACTER IN LINE
      32146  0020 00 0 32127         TRA     GULP          GET NEXT CHARACTER

      32147 -0340 00 0 32435  EORT   LAS     =O77          TEST FOR TAB OR END MARK
      32150  0761 00 0 00000         NOP                   IGNORE GREATER THAN
      32151  0020 00 0 32214         TRA     POLISH        END MARK, POLISH OFF STRING
      32152 -0340 00 0 32431         LAS     =O72          NOT END, TEST FOR TAB
      32153  0020 00 0 32145         TRA     SWAL          NOT TAB, CONTINUE
      32154  0020 00 0 32156         TRA     *+2           TAB, FILL WITH BLANKS
      32155  0020 00 0 32145         TRA     SWAL          NOT TAB, CONTINUE
      32156 -0500 00 0 32426         CAL     =H00000       TAB, FILL WITH BLANKS
      32157  0074 00 4 32206         TSX     TAKE,4        INSERT BLANK
      32160 -3 00000 7 32157  TABMK  TXL     *-1,7,**      TEST FOR ENOUGH BLANKS
      32161 -0534 00 4 32160         LXD     TABMK,4       ..
      32162  1 00005 4 32163         TXI     *+1,4,5       INCREMENT POINTER
      32163 -0634 00 4 32160         SXD     TABMK,4       SAVE POINT
      32164  0020 00 0 32127         TRA     GULP          RETURN TO ROUTINE

      32165  0760 00 0 00016  SETGT  LMTM                  SETUP, NEED LOTS OF INDEX REGISTERS
      32166  0774 00 7 00000         AXT     0,7           SET CHARACTER POINTER
      32167  0774 00 6 00000         AXT     0,6           SET WORD COUNTER
      32170 -0535 00 5 32120         LDC     GOMAN+3,5     GET NEGATIVE OF WORD COUNT
      32171 -0634 00 5 32203         SXD     GET+7,5       SAVE FOR LATER TESTS
      32172  0774 00 5 00007         AXT     7,5           SET CHARACTER INDEX
      32173  0020 00 4 00001         TRA     1,4           RETURN

      32174 -0754 00 0 00000  GET    ZAC                   CLEAR AC
      32175  0560 00 6 42314         LDQ     RD,6          GET WORD FROM BUFFER
      32176 -0763 00 0 00006         LGL     6             GET NEXT CHARACTER
      32177 -0600 00 6 42314         STQ     RD,6          SAVE NEW WORD
      32200  2 00001 5 32205         TIX     *+5,5,1       TEST CHARACTER COUNT
      32201  0774 00 5 00007         AXT     7,5           COUNT EXHAUSTED, GET NEW WORD
      32202  1 77777 6 32203         TXI     *+1,6,-1      DECREMENT WORD COUNT
      32203  3 00000 6 32174         TXH     GET,6,**      TEST AGAINST SAVED COUNT
      32204 -0500 00 0 32435         CAL     =O77          DONE, SEND END MARK
      32205  0020 00 4 00001         TRA     1,4           RETURN

      32206  1 00001 7 32207  TAKE   TXI     *+1,7,1       INCREMENT POINTER
      32207  0602 00 7 32402         SLW     STRNG,7       SAVE CHARACTER
      32210 -3 00110 7 32213         TXL     *+3,7,72      ONLY ALLOW 72 CHARACTERS
      32211 -0625 00 0 32266         STL     GR72          MORE THAN 72, SET TRUNCATION SWITCH
      32212  0020 00 0 32214         TRA     POLISH        PRETEND COMPLETION
      32213  0020 00 4 00001         TRA     1,4           RETURN

      32214 -0500 00 0 32426  POLISH CAL     =H00000       FILL WITH ENOUGH BLANKS
      32215  3 00107 7 32220         TXH     *+3,7,71      TEST CHARACTER COUNT
      32216  0074 00 4 32206         TSX     TAKE,4        INSERT BLANK
      32217  0020 00 0 32215         TRA     *-2
      32220 -0754 00 0 00000         ZAC                   CLEAR AC FOR 'OR'ING
      32221  0774 00 7 00001         AXT     1,7           FINISHED, NOW REPACK CHARACTERS
      32222  0774 00 6 00000         AXT     0,6           RESET WORD COUNT
      32223  0774 00 5 00006  PWORD  AXT     6,5           SET CHARACTER COUNT
      32224 -0501 00 7 32402         ORA     STRNG,7       INSERT CHARACTER
1                    MAD I FOR CTSS ... R M GRAHAM ... FEB 1964                  03/15/69 1107.8 PAGE 169

      32225 -2 00001 5 32231         TNX     *+4,5,1       CHECK CHARACTER COUNT
      32226  1 00001 7 32227         TXI     *+1,7,1       INCREMENT CHARACTER POINTER
      32227  0767 00 0 00006         ALS     6             RESET AC FOR NEXT CHARACTER
      32230  0020 00 0 32224         TRA     PWORD+1       GET NEXT CHARACTER
      32231  0602 00 6 42314         SLW     RD,6          STORE COMPLETE WORD
      32232  1 77777 6 32233         TXI     *+1,6,-1      GET NEW WORD COUNT
      32233  1 00001 7 32234         TXI     *+1,7,1       INCREMENT STRING POINTER
      32234  3 00107 7 32237         TXH     *+3,7,71      TEST FOR COMPLETION
      32235 -0754 00 0 00000         ZAC                   NOT DONE, GET NEXT WORD
      32236  0020 00 0 32223         TRA     PWORD         ..
      32237  0500 00 0 32264         CLA     LINCT1        NOW ADD LINE-COUNT SEQUENCING
      32240  0400 00 0 32403         ADD     =1            GET NEXT SEQUENCE NUMBER
      32241  0601 00 0 32264         STO     LINCT1        SAVE FOR NEXT CALL
      32242  0131 00 0 00000         XCA                   CONVERT BINARY TO BCD
      32243  0074 00 4 16702         TSX     BTDC,4        ..
      32244  0560 00 0 32560         LDQ     =H            POSITION NUMBER AND BLANKS
      32245 -0765 00 0 00014         LGR     12            ..
      32246 -0501 00 0 32551         ORA     =H LM000      REDUCE COUNT TO 5 DIGITS
      32247  0602 00 0 42330         SLW     RD+12         FIRST 6 CHARACTERS
      32250 -0600 00 0 42331         STQ     RD+13         LAST 2 NUMBERS AND FOUR BLANKS
      32251  0774 00 4 00000  READX  AXT     **,4          RESTORE LINKAGE
      32252 -0760 00 0 00016         EMTM                  BACK TO THREE TAGS
      32253 -0520 00 0 32266         NZT     GR72          TEST TRUNCATION SWITCH
      32254  0020 00 4 00001         TRA     1,4           RETURN
      32255  0074 00 4 00202         TSX     WRFLX,4       TRUNCATION, ANNOUNCE THIS FACT
      32256  0 00002 0 32267         PZE     TRNMS,,2      ..
      32257  0074 00 4 00202         TSX     WRFLX,4       PRINT TRUNCATED LINE
      32260  0 00016 0 42314         PZE     RD,,14        ..
      32261  0534 00 4 32251         LXA     READX,4       RESTORE LINKAGE
      32262  0020 00 4 00001         TRA     1,4           RETURN TO MAIN PROGRAM
      32263  0 00000 0 00000  TDUMMY
      32264  0 00000 0 00000  LINCT1 PZE     0             LINE COUNTER
      32265  0 00000 0 00000  TLNCT1 PZE     0             TEMPORARY LINE COUNTER
      32266  0 00000 0 00000  GR72   PZE     0             TRUNCATION SWITCH
      32267  606351644523     TRNMS  BCI     2, TRUNCATED..
      32270  216325243333
      32271  0 00000 0 00000  LINSW1
      32402                   STRNG  BES     72
                                     END

        LITERALS
      32402  000000000000
      32403  000000000001
      32404  000000000002
      32405  000000000003
      32406  000000000004
      32407  000000000005
      32410  000000000010
      32411  000000000011
      32412  000000000012
      32413  000000000013
      32414  000000000015
      32415  000000000020
      32416  000000000025
      32417  000000000033
      32420  000000000035
1                    MAD I FOR CTSS ... R M GRAHAM ... FEB 1964                  03/15/69 1107.8 PAGE 170

      32421  000000000037
      32422  000000000040
      32423  000000000044
      32424  000000000053
      32425  000000000057
      32426  000000000060
      32427  000000000061
      32430  000000000062
      32431  000000000072
      32432  000000000073
      32433  000000000074
      32434  000000000076
      32435  000000000077
      32436  000000000100
      32437  000000000264
      32440  000000000550
      32441  000000000777
      32442  000000006060
      32443  000000007020
      32444  000000007777
      32445  000000010000
      32446  000000077777
      32447  000000100000
      32450  000000260000
      32451  000000420000
      32452  000000600000
      32453  000000650000
      32454  000000777777
      32455  000001000000
      32456  000003000000
      32457  000060606060
      32460  000077000000
      32461  002613000000
      32462  003700000000
      32463  005103000000
      32464  007700000000
      32465  077777000000
      32466  100000000000
      32467  140014603145
      32470  226060606060
      32471  233000000000
      32472  234565600000
      32473  243126606060
      32474  254524600000
      32475  255151465160
      32476  256731636060
      32477  272563314425
      32500  332262266060
      32501  332262516060
      32502  332346444563
      32503  332526636060
      32504  334346464260
      32505  334463676060
      32506  334723464463
      32507  334751222324
      32510  334751314563
1                    MAD I FOR CTSS ... R M GRAHAM ... FEB 1964                  03/15/69 1107.8 PAGE 171

      32511  334751462363
      32512  334751624363
      32513  334764452330
      32514  335122314560
      32515  335124216321
      32516  335125212460
      32517  335147246321
      32520  335162634651
      32521  335162635145
      32522  335164456060
      32523  335166636060
      32524  336060606060
      32525  336221652560
      32526  336221655145
      32527  336225633031
      32530  336225634346
      32531  336225636060
      32532  336225636447
      32533  336321475124
      32534  336321476651
      32535  336622314560
      32536  377000000000
      32537  400000000000
      32540  444624600000
      32541  500001100000
      32542  516060606060
      32543  516345606060
      32544  536060606060
      32545  546060000000
      32546  600000000000
      32547  602321512460
      32550  602631516263
      32551  604344000000
      32552  606000000060
      32553  606000333300
      32554  606054000001
      32555  606060000000
      32556  606060222324
      32557  606060606000
      32560  606060606060
      32561  622144600000
      32562  627044632122
      32563  666060606060
      32564  700000000000
      32565  730060606060
      32566  742123346053
      32567  742223346060
      32570  742526473460
      32571  742623346060
      32572  742643243460
      32573  742645346060
      32574  743123346060
      32575  743126473460
      32576  744326634434
      32577  744413003460
      32600  744651663460
1                    MAD I FOR CTSS ... R M GRAHAM ... FEB 1964                  03/15/69 1107.8 PAGE 172

      32601  746344473460
      32602  746551346060
      32603  746630453460
      32604  770000000000
      32605  777777000000
      32606  777777077777
      32607  777777677777
      32610  777777700000
