1                    MAD III FOR CTSS ... R M GRAHAM ... MAR 1964                03/15/69 1117.9 PAGE 1
                        POST PROCESSOR ASSEMBLY DATA

      12064 IS THE FIRST LOCATION NOT USED BY THIS PROGRAM

0REFERENCES TO DEFINED SYMBOLS
        400      A  7424,10661,10675,10702,10721,10726,10746,10753,10773,11000,11017,11024,11043,11050,11067,11110,11160
                   11165,11177,11201,11203,11220,11223,11243,11246,11260,11274,11304,11321,11336,11353,11377,11472,11515
                   11533,11550,11575,11604,11636,11640,11666,11710,11713,11735,11740,11775,12010,12017,12032,12045,12053
       1000      B  7425,10661,10703,10727,10754,11001,11025,11051,11072,11111,11127,11147,11161,11176,11224,11247,11261
                   11264,11272,11275,11306,11322,11323,11340,11354,11355,11417,11437,11471,11513,11532,11546,11552,11554
                   11557,11575,11601,11602,11604,11614,11620,11636,11640,11665,11672,11711,11736,11760,12006,12030,12046
         15      E 10660,10410
          0      F 10660,10347,10350,10351,10353,10354,10355,10357,10360,10361,10363,10364,10365,10367,10370,10371,10372
                   10401,10403,10404,10405,10416,10417,10420,10425,10427,10437,10455,10456,10457,10465,10477,10507,10514
                   10543,10544,10545,10553
         17      G 10660,10412
        500      I  4317, 4321, 4323, 4761, 5236, 5475
         21      L 10660,10414
         13      P 10660,10403,10404,10405,10406
       1400      T  7426,10661,10662,10677,10701,10706,10723,10725,10732,10750,10752,10757,10775,10777,11004,11021,11023
                   11030,11045,11047,11054,11064,11066,11075,11105,11107,11114,11122,11126,11133,11141,11146,11157,11171
                   11213,11222,11236,11245,11303,11312,11320,11327,11335,11344,11352,11361,11364,11372,11376,11404,11412
                   11416,11424,11432,11436,11470,11474,11476,11510,11512,11517,11527,11531,11543,11545,11562,11570,11572
                   11607,11631,11633,11635,11654,11664,11676,11707,11715,11723,11734,11742,11750,11757,11765,11767,12001
                   12003,12005,12023,12025,12027,12044,12055,12057
          1      X 10660,10350,10351,10352,10354,10355,10356,10360,10361,10362,10364,10365,10366,10370,10372,10373,10374
                   10402,10404,10405,10406,10416,10417,10420,10421,10422,10423,10424,10425,10426,10430,10440,10452,10453
                   10456,10457,10460,10466,10470,10471,10500,10510,10513,10515,10521,10522,10532,10535,10536,10537,10540
                   10542,10543,10544,10545,10546,10547,10550,10551,10554,10562,10566,10660
          0      Z 10660,10347,10352,10353,10356,10357,10362,10363,10366,10367,10371,10373,10374,10375,10376,10377,10400
                   10401,10402,10403,10404,10406,10407,10410,10411,10412,10413,10414,10415,10417,10421,10422,10423,10424
                   10425,10426,10427,10430,10431,10432,10433,10434,10435,10436,10437,10440,10441,10442,10443,10444,10445
                   10446,10447,10450,10451,10452,10453,10454,10455,10460,10461,10462,10463,10464,10465,10466,10467,10470
                   10471,10472,10473,10474,10475,10476,10477,10500,10501,10502,10503,10504,10505,10506,10507,10510,10511
                   10512,10513,10514,10515,10516,10517,10520,10521,10522,10523,10524,10525,10526,10527,10530,10531,10532
                   10533,10534,10535,10536,10537,10540,10541,10542,10544,10546,10547,10550,10551,10552,10553,10554,10555
                   10556,10557,10560,10561,10562,10563,10564,10565,10566,10567,10570,10660
        471     AA  4354, 4653, 5435, 5707, 5714, 6057
        474     AB  4362, 5616, 6101, 6107, 6124, 6137, 6217, 6422, 6432, 6527, 6532
          5     AC 10661,10665,10713,10735,10764,11006,11032,11057,11061,11101,11116,11135,11151,11174,11205,11230,11256
                   11267,11277,11314,11331,11346,11366,11406,11426,11445,11461,11502,11521,11535,11563,11613,11632,11643
                   11661,11700,11725,11752,12000,12022,12035
          3     AT 10661,10666,10670,10711,10714,10736,10740,10762,10765,11010,11012,11033,11036,11056,11100,11102,11152
                   11155,11206,11211,11231,11234,11255,11266,11300,11302,11315,11317,11332,11334,11347,11351,11367,11371
                   11627,11660,11662,11702,11705,11727,11732,12037,12042
      75360     B1   216, 2204, 5072
      74500     B2   216, 2205, 5073
          2     BN 10660,10375,10400,10407,10410,10411,10412,10413,10414,10415,10422,10431,10441,10455,10460,10461,10462
                   10463,10467,10472,10473,10501,10516,10523,10524,10531,10541,10547,10555
          4     BT 10661,10667,10671,10712,10715,10737,10741,10763,10766,11011,11013,11034,11037,11117,11121,11136,11140
                   11153,11156,11173,11207,11212,11232,11235,11407,11411,11427,11431,11444,11460,11462,11464,11501,11503
                   11505,11522,11524,11536,11540,11626,11657,11663,11703,11706,11730,11733,11754,11756,11771,12013,12040
                   12043
       3000     C1  7431,10661,11225,11253
       3400     CF  7432,10661,11400,11401,11420,11421,11440,11441
       5000     DT  7436,10661,11565,11566,11644,11645,11650,11651
1                    MAD III FOR CTSS ... R M GRAHAM ... MAR 1964                03/15/69 1117.9 PAGE 2
                        POST PROCESSOR ASSEMBLY DATA

      11255     ES 10410
       6000     FF  7437,10661,11615,11617,12061
          3     FN 10660,10371,10374,10376,10423,10432,10442,10462,10502,10517,10525,10550,10552,10556,10557,10563
         20     GE 10660,10413
      11277     GS 10412
        527     H1   177
        530     H2   201
        531     H3   203
        532     H4   205
        533     H5  7465
        534     H6  7637
        535     H7  7640
        536     H8  7641
        537     H9  7642
         22     LE 10660,10415
       5400     LM  7430,10661
       2000     LP  7427,10661,11305,11337,11514,11621,11622,11774,12007,12016,12031
         67     LS 10660,10537
          5     M5 10660,10434,10444,10474,10526
          6     M6 10660,10435,10445,10475,10527
          7     M7 10660,10436,10446,10476,10530
        472     MA  4355, 4376, 4654, 6071
        475     MB  4363, 4400, 6075
          6     MQ 10661,10664,10710,10734,10761,11007,11035,11060,11077,11120,11137,11154,11210,11233,11257,11270,11301
                   11316,11333,11350,11370,11410,11430,11446,11463,11504,11523,11537,11564,11571,11610,11634,11642,11656
                   11704,11731,11755,11772,12002,12014,12024,12036
        477     MT  6046
         16     NE 10660,10411
        467     OP  4310, 4327, 4364, 4374, 5270, 5273, 5360, 5552, 5605, 6773, 7023, 7060, 7166, 7173, 7346
      67462     PL   216,  466, 4253
         70     RS 10660,10540
      12524     S1   216, 3512
      11644     S2   216, 3513
      14537     SD   216, 4142, 4150, 4152, 4160, 4161, 4162, 4163, 4164, 4165, 4166, 4167, 4176, 4200, 4251, 5150, 5153
                    5155, 5162
          4     ST 10660,10377,10410,10411,10412,10413,10414,10415,10424,10433,10443,10447,10451,10454,10463,10464,10503
                   10505,10506,10511,10513,10520,10533,10542,10551,10553,10554,10555,10556,10560,10561,10562,10564,10567
                   10570
       4000     TV  7433,10661,11162,11556,11667
        551     (R  2201
        550     (W  3454, 3507, 5067, 7465
         12    ABS 10660,10401,10402
       5530    AD1  5443
       5456    AD2  5446
       5451    AD3  5447
       5521    AD4  5465
       5630    AD5  5622
       5523    AD6  5520, 5650, 5673, 5674
       5636    AD7  5627, 5667
       5612    AD8  5536, 5571
       5675    AD9  5654
       5433    ADA  5422
       5614    ADB  5421, 5713
       5423    ADC  5404
       5620    ADT  5420
1                    MAD III FOR CTSS ... R M GRAHAM ... MAR 1964                03/15/69 1117.9 PAGE 3
                        POST PROCESSOR ASSEMBLY DATA

        301    ALL   273,10123
         65    ANA 10660,10535
        556    AQ0   277, 1700, 1712, 3462, 3515, 4066, 4476, 4651, 5225, 5423, 6263, 6751, 7465
        555    AQ1   233,  413,  431,  434, 1362, 1434, 1660, 1736, 2166, 2170, 2232, 2244, 2572, 2624, 2672, 2702, 2725
                    3556, 3720, 3730, 4322, 4450, 4472, 4505, 4507, 4640, 4645, 4711, 4777, 5022, 5061, 5075, 5121, 6146
                    6163, 6207, 6333, 6357, 6372, 6410, 6506, 6535, 6557, 6673, 6727
        566    AQ2  2660, 2741, 3010, 3163
        575    AQ3  2254, 2755, 5363
        572    AQ4  2570, 4350, 4511, 5230, 6725
        573    AQ8  2644, 3142, 4343
        574    AQ9  2275
       5204    BC1  5165, 5167
       5134    BC2  4764, 6662
       5042    BC3  4765, 5024, 5044, 6644
       4766    BC4  5021, 5023
       4765    BC5  4260, 4767, 5205
       5001    BC6
       5033    BC7  4766
       5023    BC8  4770
       5015    BC9  4771, 5011
      17645    BCD   216, 1444, 1475, 1477, 1504, 1507, 1525, 1534, 1541, 1546, 1550, 1560, 1565, 1571, 1574, 1607, 1620
                    1621, 1627, 1640, 1645, 2133, 2135, 2142, 2146, 2153, 2271, 2414, 4230, 4411, 4733, 4735, 4742, 4750
                    4753, 5202, 5514, 7127
      13716    BIN   216, 1667, 1670, 1673, 1677, 1703, 1704, 1714, 1720, 1732, 1733, 1734, 1735, 1737, 1741, 1750, 1752
                    1755, 1756, 1757, 1760, 1761, 1763, 2034, 2035, 2041, 2042, 2045, 2046, 2050, 2051, 2052, 2054, 2056
                    3442, 4040, 4051, 4052, 4054, 4055, 4056
      12064    BOT  4224,12064
       2400    BTA 10661,11450,11455,11573,11577
       2125    BW2  2101, 2111
       2351    BW3  2174
       2152    BW4
       2154    BW5  2156, 6643
       2122    BW6  2114
       2124    BW7  2115
       2155    BW9  2231, 2233
       1353    CA1  1543, 1637
       1347    CA2  1626
       1350    CA3  1533
       1345    CA4  1540, 1564, 1570
       1351    CA5  1642
         66    COM 10660,10536
        502    CON  4337, 4344, 4351, 4664, 5143, 6037, 6062
      71276    CTT   216, 3653, 3661, 3662, 3664, 3671, 4070, 4073, 4076, 4101, 4102
       7076    DE1  7004
       7021    DE2  7013
       7307    DE3  7271
       7314    DE4  7302
       7073    DE5  7067, 7111
       7340    DE6  7333
       7147    DE7  7144
       7362    DE8  7107, 7112, 7152
       7153    DE9  7161, 7172
         36    DEF   715,10660
       6276    DF1  6273
       6342    DF2  6312, 6353, 6355
1                    MAD III FOR CTSS ... R M GRAHAM ... MAR 1964                03/15/69 1117.9 PAGE 4
                        POST PROCESSOR ASSEMBLY DATA

       6345    DF3  6306
       6330    DF4  6322
       6320    DF5  6323
       6270    DF6  6336
       6336    DF7  6344
       6316    DF8  6356, 6360
       6307    DF9  6351
         35    DIF 10660,10455,10456,10457,10460,10461,10462,10463
          4    DIV 10660,10363,10364,10365,10366
        610    DQ1  6151
        611    DQ2  4562
        612    DQ8  5741
       5025    EOF   242,  251, 2002, 2432, 2441, 2460, 2505, 2520, 2552, 3523, 3755, 4007, 4016, 4120, 4127,12064
         10    EQV 10660,10400
       2375    ER1  2377
       2405    ER2  2407
       2417    ER3  4412, 5302, 5515
       2416    ER5  2363
        106    ERA 10660,10566
         44    ERR 10660,10506
         27    FCN   707,10660,10427,10430,10431,10432,10433,10434,10435,10436
         37    FLD   713,10660,10464
        100    FMT 10660,10561,10562
        506    FNR  6150, 6152, 6166, 6547
      11314    GES 10413
        540    H10 10106
        541    H11   214
        542    H12   215
        543    H13   262
        544    H14  3762, 4022
        545    H15  7467
        546    H16  7466
        547    H17   303
       2073    ID1  1770
       2074    ID2  1772, 2030
       2075    ID3  1774, 2022
         33    ILC    71
       4234    IN1  5557
       4236    IN2  5610
          5    INT   216
        521    IR1  4532, 4541, 4550, 4553, 4616, 4620, 4624, 6113, 6130
        522    IR2  4566, 4571, 4627, 4632, 4635, 6114, 6131
       3230    IR3  2770
       3012    IR5  2763, 3001
       2773    IR6  3027, 3227
       3042    IR7  3035
       3072    IR8  3053, 3055
       3100    IR9  3054
       3030    IRB  3021
        100    K10    31
        101    K11    32
        104    K12    33,   41,   76,   77,  103
        103    K13    42
        102    K14    50
        105    K15    34,   75
1                    MAD III FOR CTSS ... R M GRAHAM ... MAR 1964                03/15/69 1117.9 PAGE 5
                        POST PROCESSOR ASSEMBLY DATA

        106    K16    35,   74
        107    K17    37,   72,  103
         70    K50    51
         45    K51    67
         66    K52    43,   44
          1    LAC 10661,10705,10731,10756,11003,11027,11053,11074,11113,11132,11175,11363,11403,11423,11447,11457,11500
                   11561,11606,11630,11647,11653,11701,11726,11753,12004,12026,12041
      11346    LES 10415
        463    LOC  3554, 3557, 3674, 4030, 4267, 4636, 4641, 4706, 4712, 5136, 5156, 5542, 5575, 5705, 6111, 6126, 6135
                    6140, 6213, 6232, 6332, 6366, 6373, 6424, 6521, 6542, 6556, 6563, 6564, 6672, 6701, 6702, 6713, 6730
                    6764
      11331    LSQ 10414
      12013    LSS 10537
       5364    MA5  5362
       5267    MA7  5263
       5312    MA8  5265, 5267, 5275, 5277
       5276    MA9  5272
       4070    MP2  2064
       3767    MP3  3761
       4037    MP4  4063
       4053    MP7  4061
          3    MPY 10660,10357,10360,10361,10362
        644    MQ6  4577
        643    MQ7  4576
        634    MQA   226, 1373, 1411, 1456, 1676, 1702, 2531, 2631, 2647, 2777, 3037, 3223, 3604, 4262, 4467, 5135, 5233
                    5237, 5325, 5331, 5365, 5373, 5471, 5476, 6000, 6006, 6074, 6313, 6315, 6450, 6472, 6502, 6724, 7150
                    7155, 7174, 7216, 7312, 7330, 7347, 7465
        637    MQD  3125, 4207, 6454, 6640
        635    MQT  1707, 4453, 4454, 4536, 4604, 5340, 5711, 5716, 6042, 6067, 6170, 7047, 7062, 7260
         45    NEG 10660,10507,10510
      11266    NES 10411
       6037    OP1  6031, 6033, 6035, 6055
       6061    OP2  6102
       6165    OP3  6211
       6261    OP4  6250, 6264
       6262    OP5  6252
       6251    OP6  6262
       6144    OP7  6122, 6420, 6553, 6667, 6706
       6236    OP8  6226
       6201    OP9  6156
         61    ORA 10660,10532
         30    PAR   706,10660,10437,10440,10441,10442,10443,10444,10445,10446
        462    PLC  5430, 7334
        571    PQ1  6757, 7045, 7465
        570    PQ2  4674, 6167
        567    PQ3  5524, 5633, 6056, 6077, 6550, 6664
        553    PQ4   274, 2206, 2207, 3461, 3514, 4707, 5074, 5555, 6202, 6274, 6307, 7465
        552    PQ5   667
        554    PQ6  4737
       6663    PR1  6656
       6664    PR2  5125
       6644    PR3  6641
       6737    PR5  6750
       6747    PR6  6736, 6752
       6750    PR7  6740
1                    MAD III FOR CTSS ... R M GRAHAM ... MAR 1964                03/15/69 1117.9 PAGE 6
                        POST PROCESSOR ASSEMBLY DATA

       6613    PR8  6616, 6617, 6630, 6635
       6605    PR9  6636
       2463    QQ1  2500
       2472    QQ2  2467
       2510    QQ3  2446
       2504    QQ4  2450, 2452, 2453
       2556    QQ5  2422, 2511, 2556
       2545    QQ6  2542
       2551    QQ7  2545
       2523    QQ8  2543, 2555
      73620    RB1   216, 3457
      72740    RB2   216, 3460
      11771    RSS 10540
         43    RTN 10660,10505
       2711    SC1  2737
       2610    SC2  2577, 2614, 2675
       2644    SC3  2637
       2646    SC4  2632, 2634
       2660    SC5  2654
       2715    SC6  2712
       2662    SC7  2651
       2716    SC9  2600
        445    SD1   375
        444    SD2   403
        430    SD3   416
        414    SD4   417,  427
        436    SD5   420
        433    SD6   423
        407    SD7   444
        417    SD8   432
        424    SD9   435
       4321    ST1  4313, 4316
       4345    ST2  4342
       4352    ST3  4347
       4650    ST4  4366
       4361    ST5  5267
       4443    ST7  4427, 4434, 4644, 4646, 4657, 4671
       4656    ST8  4455
       4673    ST9  4461, 4473
         51    STA 10660,10513
         72    STD 10660,10542
         24    SUB   704,10660,10416,10417,10420,10421,10422,10423,10424
         25    TAG   705,10660,10425,10426
       6022    TEM  4242, 4367, 4370, 4372, 5166, 5170, 5172, 5173, 5461, 5462, 5522, 5620, 5621, 5624, 5626, 5644, 5645
                    5652, 5653, 5656, 5657, 5662, 5665, 5671, 5677, 6154, 6157, 6561, 6570, 6676
          2    TFR 10661,10663,10673,10700,10707,10717,10724,10733,10743,10751,10760,10770,10776,11005,11015,11022,11031
                   11041,11046,11055,11063,11065,11076,11104,11106,11115,11123,11125,11134,11142,11166,11170,11172,11214
                   11216,11221,11237,11241,11311,11313,11326,11330,11343,11345,11360,11362,11365,11373,11375,11405,11413
                   11415,11425,11433,11435,11467,11475,11477,11507,11511,11520,11526,11530,11542,11544,11567,11612,11646
                   11652,11655,11673,11675,11677,11716,11720,11722,11724,11743,11745,11747,11751,11764,11766,11770,12051
                   12056,12060
        606    TQ1  4524, 4537, 4544, 5532, 5565, 5670
         31    TRA 10660,10447
      47445    TTB   216, 5354, 5364, 7441
        515    TVS  3566, 3677, 4026
1                    MAD III FOR CTSS ... R M GRAHAM ... MAR 1964                03/15/69 1117.9 PAGE 7
                        POST PROCESSOR ASSEMBLY DATA

         77    TXL 10660,10557,10560
      77120    WB1   216
      76240    WB2   216
       1447    WB3  1522
       1474    WB4  4134, 4135
       1524    WB5  1474, 4144, 4145
       1505    WB6  1547
       1506    WB7  1523, 1647
       1522    WB8  1505, 1646
       1550    WB9  1524
       6364    WCD  6413, 6430, 6433, 6441, 6460, 6467, 6473, 6503, 6525, 6530, 6533
       6366    WI3  6402
       6415    WP1  6407
       6416    WP2  6406
       6411    WP3  6415
       6453    WP4  6446
       6461    WP5  6455
       6475    WP6  6464
       6444    WP7  6504
       6502    WP8  6500
       6573    WP9  6155, 6567
       2037    WT1  1665
       1671    WT2  2033
       1701    WT3  1662, 1671
       1741    WT5  2040
       1710    WT6  4147, 4204
       2040    WT7  1705, 1730
       1762    WT8  4062
       2033    WT9  1740
       4400    ZTA 10661,11453
       6030    ZXT  6106, 6141, 7460,11200,11202,11204,11262,11265,11273,11276,11307,11324,11341,11356,11451,11454,11534
                   11551,11553,11555,11560,11600,11603,11625,11637,12062
      14576   AABC   216, 4250, 6316, 6320, 6324, 6327, 6330, 6405, 6411
      11113   ABSS 10401,10402
       6036   ACXT  7454,10676,10704,10722,10730,10747,10755,10774,11002,11044,11052,11131,11145,11150,11163,11227,11244
                   11250,11252,11254,11473,11516,11574,11616,11670
       5664   AD10  5701
       5656   AD11  5675
       5655   AD12  5700
       5436   AD13  5617
       5522   AD14  5631
       5774   AD15  5765
       6003   AD16  5771
       5455   AD17  5453
       5517   AD18  5467
       5722   AD19  5445
       5730   AD20  5724
       5731   AD21  5727
       5563   AD22  5450
       5560   AD23  5611
       5745   AD24  5735, 5742
       5762   AD25  5744
       6005   ADC1  5415, 6011
       6010   ADCF  5414
       5640   ADDT  5411
1                    MAD III FOR CTSS ... R M GRAHAM ... MAR 1964                03/15/69 1117.9 PAGE 8
                        POST PROCESSOR ASSEMBLY DATA

       5373   ADEC  4477, 4675
       6012   ADFF  5407
       5704   ADLM  5410
       5702   ADLP  5417
       6023   ADT1  5436, 5452, 5460, 5463, 5470, 5472, 5477, 5500, 5502, 5526, 5530, 5556, 5561, 5563, 5643, 5646, 5723
                    5760, 5761
       6024   ADT2  4554, 4557, 4561, 4563, 4572, 4601, 4607, 4612, 5434, 5560, 5615
       6025   ADT3  5402, 5451, 5456, 5533, 5566, 5640, 5672, 5702, 5704
       6026   ADT4  5743
      14662   ADTT   216,  456, 3547, 3563, 3650, 3665, 4240, 5762, 5763, 5767, 5772, 5773, 6001
       5733   ADTV  5413
      11700   ANAS 10535
        557   AQ16  1604, 1606, 5142, 6030
        560   AQ17  6032
        561   AQ18  6036
        562   AQ19  6034
        577   AQ20  1442, 1446, 2032, 2044
        564   AQ22  6100
        563   AQ26  6060
        605   AQ48  1576, 1601, 2131, 3467, 3472, 3475, 4731, 6054
        565   AQ51  4336
       5041   BC11
       5077   BC12  5063
        374   BC13  5101, 5105
       5130   BC14  5043
       5043   BC15  5120, 5122, 6663
       5122   BC16  5045
       5142   BC17  5137
       5114   BC18  5046, 5055, 5077
       5163   BC19  5145, 5147
       5021   BC20  4776
       5133   BC21
       5206   BC22  5152
       5126   BC23  4772, 4773, 5047, 5052, 5056
       5127   BC24  5054
       5123   BC26  5042
       5054   BC27  6660, 6661
       5124   BC28  6657
       4746   BC29  4725, 4751
       4752   BC30  4746, 4757
       5203   BC31  5171, 5174
       5170   BC32  5203
       4760   BC34  6771, 7165
       4722   BCDS  4304, 6770
      11205   BEQV 10400
       2347   BW10  2155
       2355   BW11  2100
       2233   BW12  2157
       2225   BW13  2160, 2221
       2345   BW14  2161, 2162
       2211   BW17  2175
       2234   BW18  2154
       2231   BW19  2165
       2354   BW20  2173
       2102   BW21  2077
1                    MAD III FOR CTSS ... R M GRAHAM ... MAR 1964                03/15/69 1117.9 PAGE 9
                        POST PROCESSOR ASSEMBLY DATA

       2145   BW22  2140, 2147
       2140   BW23  2104, 2144
       2346   BW24  2214, 2220
       2237   BW.1  2246, 2330
       2266   BW.2  2263
       2271   BW.3  2264
       2335   BW.T  2261, 2337
       2343   BW.X  2236, 2265, 2267, 2331
       2356   BWT1  2112
       2357   BWT2  2105, 2110, 2113, 2117
       2360   BWT3  2172, 6655
       2361   BWT5  2106, 2107, 2125
      70675   CABC   216, 3704, 4137, 4141, 5330, 7442
      67151   CDIM   216, 2444, 2464, 2475, 2477
      72737   CMST   216, 2463, 2465, 2472, 2510, 2524, 2526, 2536, 2565, 2571, 2601, 2602, 2604, 2606, 2610, 2617, 2620
                    2621, 2623, 2643, 2646, 2657, 2671, 2700, 2701, 2704, 2706, 2710, 2723, 2724, 2727, 2731, 2740, 2742
                    2743, 2747, 3640, 3645, 3713, 5254, 5264, 5276, 5301, 5304, 6574, 6612, 6614, 6620, 6621, 6622, 6623
                    6624, 6625, 6626, 6627, 6723, 6754, 6756, 7443
      47044   CODE   216, 2120, 2126, 2134, 2141, 2234, 2251, 2347, 2350, 2352, 2353, 2356, 2750, 2753, 2762, 2773, 2775
                    2776, 3007, 3012, 3016, 3024, 3026, 3030, 3036, 3114, 3116, 3117, 3121, 3124, 3127, 3141, 3147, 3225
                    3230, 4222, 4246, 4445, 4446, 4475, 4500, 4501, 4502, 4514, 4520, 4526, 4535, 4547, 4552, 4565, 4570
                    4575, 4603, 4615, 4631, 4637, 4643, 4700, 4705, 4710, 4714, 4715, 4717, 4722, 4740, 4743, 4754, 5123
                    5130, 5131, 5712, 5717, 5730, 6103, 6104, 6105, 6212, 6214, 6216, 6220, 6222, 6364, 6365, 6367, 6375
                    6377, 6400, 6401, 6403, 6537, 6645, 6650, 6651, 6652, 6654
        716   COM0  3076
        717   COM1   421,  436, 1443, 1544, 1572, 1643, 2145, 4734, 4747
        720   COM2  3432
        732   COM3  3561, 3570, 3601, 3607, 3625
        771   COM4  3635
       1004   COM5  3643
       1016   COM6  3647
       1022   COM7  4133
       1026   COM8  5305, 5310
       1037   COM9  4174
      11752   COMS 10536
        160   CON1  6005
        157   CONF  6010
       7342   DE10  7335
       7170   DE11  7160
       7204   DE12  7200
       7233   DE13  7231, 7253
       7064   DE14  7065, 7070, 7140, 7147, 7215, 7225, 7232, 7254
       7251   DE15  7244
       7113   DE16  7121
       7044   DE17  7035
       7051   DE18  7031, 7043, 7046
       7032   DE19  7026
       7327   DE20  7315
       7122   DE22  7106, 7115
       7412   DE24  7356
       7361   DE25  7371, 7372, 7373, 7374, 7375, 7376, 7377, 7400, 7401, 7402, 7403, 7404, 7405, 7406
       7407   DE26  7366, 7370
       7411   DE27  7367
       7366   DE28  7362
       7020   DET1  6775, 7002, 7011, 7015, 7151, 7156, 7236, 7242, 7246
1                    MAD III FOR CTSS ... R M GRAHAM ... MAR 1964                03/15/69 1117.9 PAGE 10
                        POST PROCESSOR ASSEMBLY DATA

       7075   DET2  6776, 7022, 7030, 7032, 7036, 7042, 7044, 7050, 7054, 7057, 7063
       7344   DET3  7255, 7262, 7263, 7267, 7274, 7300, 7304, 7326, 7331
       7414   DET4  4462, 7355, 7365, 7411
       7345   DET5  7256, 7307, 7316
       6340   DF10  6326
       6325   DF11  6317
       6357   DF12  6314
       6361   DFT1  6301, 6311, 6352
       6362   DFT2  6277, 6300, 6305
       6363   DFT3  6303, 6354
         34   DICT 10660,10454
        613   DQ13  2103
        607   DQ22  4037, 4042, 4044, 4047
       5025   EOF.  5005, 5016, 5106, 5115,12064
      12035   ERAS 10566
      11617   ERRS 10506
       2420   ERT1  2364, 2365, 2366, 2372, 2401
         14   EXOR 10660,10407
      11151   EXPS 10403,10404,10406
      11561   FCNS 10427,10430,10431,10432,10433,10434,10435,10436
      11074   FDIV 10363
         46   FEND 10660,10511
      17620   FLAD   216, 3162, 3166, 3222, 4205, 4217, 4232, 6120, 6123, 6125, 6127, 6416, 6421, 6423, 6425, 6511, 6520
                    6522, 6551, 6554, 6555, 6560, 6665, 6670, 6671, 6674, 6704, 6707, 6712, 6726, 6734, 6737, 6741, 6742
                    6743, 6744, 6745, 6746, 6747
      11363   FLAS 10351,10355,10361,10365,10405,10457
      11403   FLBS 10350,10354,10360,10364,10370,10456
       6120   FLDS 10464
       2333   FLOC  2241, 2243, 2262, 2335
      11027   FMPY 10357
      11640   FMTS 10561,10562
        501   FNSW  3535, 6147, 6203, 6240, 6540, 6566
      13551   FTEM   216, 4244, 6201
      11423   FXBS 10372,10416,10420,10425,10543,10545
         32   HALT 10660,10450,10451
       4224   INIT   146
      65507   INST   216, 4272, 4274, 4275, 4277, 4301, 4326, 4414, 4415, 4752, 4762, 5033, 5034, 5036, 5037, 5245, 5247
                    5504, 5506, 6044, 6045, 6050, 6051, 6052, 7102, 7104, 7132, 7133, 7135
       3046   IR10  3056, 3057, 3060, 3061, 3062, 3063, 3064, 3065, 3066, 3067, 3070, 3071, 3072, 3073
       3124   IR11  3022, 3023
       3144   IR12  3126, 3132
       3102   IR13  3077, 3145
       3161   IR14  3233
       3164   IR15  3172, 3173, 3174, 3175, 3176, 3177, 3200, 3201, 3202, 3203, 3204, 3205, 3206, 3207, 3210, 3211, 3212
                    3213, 3214, 3215, 3216, 3217
       3165   IR16  4206
       3167   IR17  3165
       3216   IR18  3167, 3171
       3222   IR19  3170
        523   IR1A  4533, 4542, 4555, 4606, 4621, 4623, 6115, 6132
       3010   IR20  3004
       3142   IR21  3135
       3024   IR22  2767, 2772
       3076   IR23  3015
       2752   IR24  3123
1                    MAD III FOR CTSS ... R M GRAHAM ... MAR 1964                03/15/69 1117.9 PAGE 11
                        POST PROCESSOR ASSEMBLY DATA

       3147   IR25  2771
       3053   IR26  3047
        524   IR2A  4573, 4611, 4626, 4634, 6116, 6133
       3234   IRT1  2761, 3032, 3034, 3041, 3042, 3051, 3052, 3224, 3231, 3232
       3235   IRT2  3043, 3100, 3161, 3226
       3236   IRT3  2116, 2247, 2250, 2751
       3237   IRT4  3104, 3113, 3115, 3120
      20633   LINK   216, 4224, 4225, 4234, 5534, 5537, 5540, 5541, 5543, 5554, 6243, 6245, 6247, 6251, 6253, 6254, 6255
                    6256, 6257, 6260, 6261, 6265, 6267, 6270, 6275, 6276, 6302, 6310, 6335, 6343, 6345, 6442, 6444, 6453
                    6461, 6471, 6475, 6507
       2334   LLOC  2245, 2266, 2335
       1410   LOW.  1370, 1400, 1403, 1411, 3705, 3717
       5340   MA10  5335
       5334   MA11  6210
       5337   MA12  6164
       5300   MA13  5266
       5311   MA14  5306
       5367   MAT1  5210, 5223, 5227, 5232, 5251, 5253, 5261, 5314, 5322, 5323, 5333, 5336, 5343, 5345, 5347, 5350, 5353
       5370   MAT2  5234, 5240, 5241, 5243, 5326, 5327, 5342, 5351
       5371   MAT3  5256, 5317
       5372   MAT4  5260, 5312, 5315, 5320
       4150   MP17  4172
       4151   MP18  4155
       3640   MP22  3633
       3670   MP25  3651
       4217   MP28  4210
       3546   MP29  3543
       4126   MP2Y  4106, 4113
       4073   MP2Z  4112
       4152   MP30  4170
       4171   MP31  4151
       4160   MP32  4153
       4063   MP33  2005
       4156   MP34  4154
       3540   MP36  3536
       3771   MP37  3774
       4201   MP39  4143
       3526   MP40  3505
       4222   MP42
       3466   MP50  3474
       3475   MP51  3470
       3631   MP..  3621
        642   MQ34  4515, 4516
        620   MQ77  2274
        641   MQDA  5531, 5564
        621   MQDT  5262, 6304
        630   MQMD  4431
        622   MQPD  4527, 7266, 7277
        631   MQTA  3025, 3102, 7001, 7010, 7226, 7241
       6032   MQXT  7455,11020,11026,11073,11112
         33   MTX2 10660,10452,10453,10660
      11132   NEGS 10507,10510
        101   NFCN 10660,10563,10564
       6247   OP10  6241
       6113   OP11  6200, 6223, 6234
1                    MAD III FOR CTSS ... R M GRAHAM ... MAR 1964                03/15/69 1117.9 PAGE 12
                        POST PROCESSOR ASSEMBLY DATA

       6140   OP13  6143
       6244   OP14  6246
      10660   OPM1  5737
      10657   OPMD  4423, 4425, 4435, 5733, 5736, 5745, 6040, 6041, 6063, 6064, 7114, 7117, 7120, 7122, 7137, 7141, 7154
                    7170, 7171, 7362, 7363,10657,10347,10660
       7255   OPND  7052, 7056
       6235   OPT1  6066, 6072
      11725   ORAS 10532
         40   PAR2 10660,10465,10466,10467,10470,10471,10472,10473,10474,10475,10476
      11575   PARS 10437,10440,10441,10442,10443,10444,10445,10446
        451   PBCD  4227
        452   PBIN  3441
      14635   PETY   216, 3632, 3637, 3760, 3763, 3765, 3767, 3771, 3773, 3777, 4021, 4024, 4025, 4031, 4035, 4053, 4241
                    6224, 6227, 6231, 6233
          1   PLUS 10660,10347,10350,10351,10352
      10000   PPLC   216,  462
        620   PPSD   216, 5152
       6601   PR10  6600, 6604, 6605, 6606
       6631   PR11  6607, 6613, 6634
       6603   PR12  6575
       6636   PR13  6633
       6633   PR14  6576
       6637   PR15  6603
       6620   PR16  6615
       6721   PR4A  6717
       6726   PR4B  6720, 6765
       6756   PR4C  6762
       6754   PR4T  6722
        107   PRLG 10660,10567
        241   PRL.   234
      13716   PTEM   216, 4243, 6022, 6573
      13551   REBN   216, 1764, 1771, 1773, 1775, 2001, 3444
         76   RTNB 10660,10553,10554,10555,10556
      11615   RTNS 10505
       2707   SC1A  2744
       2717   SC1B  2677
       2562   SC2A  2560
       2740   SC2B  2561
       2676   SC7A  2615
          2   SCRA   216
          4   SCRB   216
      11644   SD10   216,  430,  433,  440,  443
        446   SD11   376
        447   SD12   377
       6050   SQXT  6134, 7461,11456,11576,11605
       4474   ST10  4701
       4702   ST11  4662
       4305   ST12  6767, 7163
       4415   ST13  4421
       4367   ST14  4655, 6076
       4705   ST15  4332
       4636   ST16  4513, 4543, 4545, 4556, 4574, 4600, 4614, 4630, 4633
       4472   ST17  4451
       4644   ST18  4560, 4564
       4547   ST19  4523
1                    MAD III FOR CTSS ... R M GRAHAM ... MAR 1964                03/15/69 1117.9 PAGE 13
                        POST PROCESSOR ASSEMBLY DATA

       4565   ST20  4525
       4544   ST21  4540
       4514   ST22  4504
       4423   ST23  4402
       4535   ST24  4506, 4510, 4512, 4531
       4575   ST25  4517
       4631   ST26  4617, 4622
       4634   ST27  4534, 4546
       4615   ST28  4602, 4605
       4623   ST29  4610
       4433   ST30  4426
       4626   ST31  4613
       4611   ST32  4625
       4557   ST34  4551, 4567
       4436   ST36  7071
       4434   ST37  4432, 4647, 4667, 4672
       4462   ST38  4435, 4436, 4440
       4437   ST39  4424, 4442, 4466
      11521   STAS 10513
      11535   STDS 10542
          5   STOR 10660,10367,10370,10371,10372,10373,10374,10375,10376,10377
       4721   STT1  4444, 4452, 4457, 4474, 4676, 5544, 5577, 5726
      11457   SUBS 10417,10421,10422,10423,10424
        327   TAB1  3477, 3522
        332   TAB2  4000, 4006
        334   TAB3  2513, 2517
        336   TAB4  2425, 2431
        340   TAB5  4110, 4117
        342   TAB6  2447, 2457
         73   TAGA   712,10660,10543,10544,10545,10546,10547,10550,10551
      11444   TAGS 10426
      14525   TMTX   216, 7067
      11552   TRAS 10447
      11554   TXLS 10557,10560
       1574   WB10  1473
       1473   WB11  4201, 4202
       1471   WB12  1514, 1517, 1521
       1645   WB13  1573
       1440   WB14  1426
       1476   WB15  1427
       1526   WB16  1430
       1551   WB17  1431
       1556   WB18  1432
       1575   WB19  1436
       1603   WB20  1433
       1442   WB21  1510
       1511   WB22  1437
       1520   WB23  1467
       1450   WB24  1435
       1624   WB25  1612
       1622   WB26  1617
       1513   WB2.  1462
       1512   WB31  1441
       1650   WBT1  1451, 1500, 1613, 1622
       1651   WBT2  1454, 1502
1                    MAD III FOR CTSS ... R M GRAHAM ... MAR 1964                03/15/69 1117.9 PAGE 14
                        POST PROCESSOR ASSEMBLY DATA

       1652   WBT3  1471, 1503
       6377   WCD1  6452, 6510, 6536
       6504   WP10  6443, 6474
       6547   WP11  6541
       6403   WPCD  6266, 6337
       1725   WT10  1722
       1726   WT11  1723
       1730   WT12  1724, 1726, 1727
       1727   WT13  1725
       2041   WT14  1746
       2062   WT15  1743
       2060   WT16  2043
       1754   WT17
       2007   WT18  1767, 2016
       2014   WT19  2011
       2017   WT20  2013
       2005   WT21  4064, 4065, 4067
       1664   WT22  1656
       1675   WT23  1661
       1706   WT24  1663
       1731   WT25  1657
       1770   WT26  2031
       2032   WT29  2006
       2064   WTT1  1666, 2036
       2065   WTT2  1711, 1721
       2066   WTT3  1715, 1716
       2070   WTT4  2027
       2071   WTT5  2025
       2072   WTT6  2007, 2012, 2015, 2023
       2067   WTT7  2017
      11053   XDIV 10366
      11003   XMPY 10362
        604   (4K5
       6056  AACXT  7456,11402
        525  ABASE  4357, 5433
       7440  ACODE  7264, 7265, 7311
       5707  ADBTA  5416
       6027  ADFNR  5525, 5634, 6153, 6571
       5425  ADLIT  5375
       5714  ADZTA  5412
        470  AOPND  4276, 4341, 4352, 4723, 4726, 4736, 7051, 7204, 7206, 7220, 7222, 7227, 7351
        576  AQ330  5746
        600  AQ384  1344, 1625, 1633, 1636
        616  AQ512  2014
        714  AQBCD  4302, 4416, 4763
        711  AQCON  4330
        715  AQDEF   703, 4305
        617  AQEOF  6647
        707  AQFCN  5361
        713  AQFLD  4314
        706  AQPAR  4365, 5550, 5603, 6272
        704  AQSUB  5271
        705  AQTAG  4311
       6077  BACXT  7457,11422,11443
        526  BBASE  4325, 4356, 5257, 5614
1                    MAD III FOR CTSS ... R M GRAHAM ... MAR 1964                03/15/69 1117.9 PAGE 15
                        POST PROCESSOR ASSEMBLY DATA

         57  BCDOP   714,10660
       2076  BCDWR  2255, 2756
        260  BLSW.   225,  230
        473  BOPND  4300, 4346, 4360, 4713, 4741, 6230, 7055, 7207, 7211, 7212, 7214, 7230, 7234, 7353
       2322  BW.1A  2324, 2327, 2423
       2247  BW.1B
       2440  BW.1D  2424
       2312  BW.3A  2321
       2337  BW.3B  2325
       2306  BW.3C  2276, 2302
       2273  BW.3D  2305
       2336  BW.T1  2273, 2303, 2311, 2314, 2316, 2317, 2320, 2341
       1343  CADDR  1472, 2370, 3560, 3567, 3600, 3606, 4404, 4464, 5175, 5473, 5507, 7124
      65510  CDIM.   216, 2342, 2440, 2504, 2525, 2527, 2535, 2540, 2551
       2747  CILOC  2733
       1043  COM10  4221
       1045  COM11  2371, 2400, 2410, 2412
       1064  COM12  4465, 4471
       1075  COM13  2063
       1107  COM14  2061
       1133  COM15  5141, 7343
       1141  COM16  5474, 5510, 5512
       1160  COM17  2416
       1163  COM18  4157
       1170  COM19  7125, 7131
       1203  COM20  5176, 5200
       1220  COM22  4405, 4407
       1235  COM23  5613
       1242  COM24  3660, 6004
       1250  COM25  6145
       1256  COM26  6341
       1264  COM27  6237
       1271  COM28  5207
       1276  COM29  7017, 7203, 7250, 7306
       1310  COM30  7074
       1322  COM31  7146
       1331  COM32  5637
       1335  COM33  1447
       1336  COM34  1453
       1337  COM35  1516
       1340  COM36  1455
       1341  COM37  1520
       1342  COM39  7025
        755  COM3A  3562, 3572, 3575, 3602, 3611, 3614, 3631
         47  CONST   711,10660
        466  CURPL  4252, 4254, 6160, 6162, 6165, 6204, 6206
       7105  DECNV  7422
       7162  DEEND  7417
       7423  DEFOP  6777, 7000, 7076
       7173  DEJMP  7420
       7102  DEMOD  7415
       7234  DEOUT  7421
       7143  DESAM  7416
       6107  DICTS 10454
         64  EFBGN 10660,10534
1                    MAD III FOR CTSS ... R M GRAHAM ... MAR 1964                03/15/69 1117.9 PAGE 16
                        POST PROCESSOR ASSEMBLY DATA

         62  EFETY   710,10660,10533
      15647  ELINK   216, 4236, 5567, 5572, 5573, 5574, 5576, 5607, 6242, 6244
        615  EQ128  4214
        614  EQ146  4212, 4213
        155  EQ.CT
       2362  ERROR  2060, 2062, 3657, 4156, 4470, 5140, 5206, 5612, 5636, 6003, 6144, 6236, 6340, 7016, 7073, 7145, 7202
                    7247, 7305, 7342
      11230  EXORS 10407
       6240  FENDS 10511
       2421  FINIS  2355
      10705  FPLUS 10347
      11253  GENOS 10541
      11251  GENZS 10531
      11556  HALTS 10450,10451
       1407  HIGH.  1367, 1374, 1375, 1411, 3716
        152  IDNOW
         50  IFBGN 10660,10512
         74  IFETY 10660,10552
       6766  INDEF  4307
       4227  INIT1
       2750  INREW  2344, 4223
         56  IOPAR 10660,10514,10515,10516,10517,10520,10521,10522,10523,10524,10525,10526,10527,10530
        670  IQALS  4203, 6465
        703  IQLAS  7162
        674  IQPSE  3033, 7034
        657  IQSTA  6476
        671  IQSTD  6470
        656  IQSTO  6501
        665  IQSUB  6457
        700  IQTSX  4530
        673  IQTTR  6215
        664  IQTXH  5546, 5601, 6426, 7164
        672  IQTXL  5160
       3160  IR25.  3154
       7453  JCODE  7175, 7176
       6054  LACXT  7462,11712,11714,11737,11741,11762,11777,12012,12021,12034,12047,12054
       7444  LCODE  7275, 7276, 7314
       5322  MAABC  5216
       4272  MAD3A  4720, 6047, 6053, 6117, 6546, 6572, 6772, 7072, 7142, 7167
       3431  MAD3B  6735, 6753
       5210  MADET  4353, 4361
       5353  MAFCN  5214
       5227  MAFLT  5221
       5336  MAPAR  5215
       3760  MAP.X  3673, 3760
       5232  MATEM  5220
       5253  MAVAR  5217
          2  MINUS 10660,10353,10354,10355,10356
       5027  M.T.X  5002, 5003, 5013, 5014
       3646  MP22.  3641
       3637  MP22X  4001
       4015  MP22Y  3770, 4002
       4132  MP2Z.  4071, 4075
        655  MQ100   404
        645  MQ2CI  3574, 3613
1                    MAD III FOR CTSS ... R M GRAHAM ... MAR 1964                03/15/69 1117.9 PAGE 17
                        POST PROCESSOR ASSEMBLY DATA

        646  MQCON  7310
        636  MQCT6  6711
        650  MQIND  7027
        627  MQMDP  7273
        625  MQMDT  4430, 6065
        624  MQMPD  7364
        626  MQMTA  7024
        633  MQPDA  4456
        623  MQPDD  3031
        640  MQPDT  2774, 4521, 5545, 5600
        647  MQPSE  7033
        632  MQPTA  6342
      11642  MTX2S 10452,10453,10660
      11577  NFCNS 10563,10564
        156  NORMD
       3240  OPBGN  3047, 3421
      10571  OPMDF  7362,10657
       7354  OPMTL  4401
       3424  OPSTR
       3421  OPTAB  3047, 3050, 3101, 3421, 7006, 7007, 7021
       3427  OPTIX
       3423  OPTNX
       3426  OPTXH
       3430  OPTXI  3144
       3422  OPTXL
        461  PAABC  4247
        456  PADTT  4237
      11604  PAR2S 10465,10466,10467,10470,10471,10472,10473,10474,10475,10476
        144  PASS1 12064
        145  PASS2
        146  PASS3
        457  PCODE  4245
        453  PFLAD  4231
        454  PLINK  4233
         24  PPBCD   216,  451
         31  PPBIN   216
         24  PPREL   216,  513
        144  PPSEQ   216, 4440
        144  PPTEM   216, 5627, 5667
        460  PREBN  3443
        102  PREND 10660,10565
          6  PRINT   216
      11601  PRLGS 10567
          7  PUNCH   216
        203  RDFLX    45
       5026  R.CNT  5004, 5010
       1357  ROGHL  3703
       1411  ROREL  2260, 2473, 2533, 2537, 3706, 3724, 3727, 3744, 3747
         42  RSTLC 10660,10504
      11606  RTNBS 10553,10554,10555,10556
         41  SAVLC 10660,10477,10500,10501,10502,10503
        375  SDUMP    65,  147
        110  SRRTN 10660,10570
      11173  STORS 10367,10371,10373,10374,10375,10376,10377
       6103  STRXT 11641
1                    MAD III FOR CTSS ... R M GRAHAM ... MAR 1964                03/15/69 1117.9 PAGE 18
                        POST PROCESSOR ASSEMBLY DATA

      11500  TAGAS 10544,10546,10547,10550,10551
      12063  TMTXF  4436, 7064
        476  TOPND  4320, 4340, 4345, 5630, 5642, 5664, 6061
        163  UPBRK  1412, 1414, 1457, 1461, 1745, 2605, 2636, 2640, 2653, 2655, 3003, 3005, 3134, 3136, 3603, 3605, 3615
                    3735, 4034, 5134, 5426, 5431, 7332, 7336, 7340
        654  WQ279  1754
        653  WQ479  2055, 4050
        652  WQTXL  1557
       1425  WRBCD  2121, 3636, 3644, 3670, 4136, 4175
        263  WRFLX   202,  304,  442, 2411, 2413, 2415, 4406, 4410, 5177, 5201, 5307, 5511, 5513
       1760  WT17.  2057
       1655  WTBIN  2123, 2707, 2711, 2735, 4072, 4140, 4177
      10661  XPLUS 10352
        211  (BFCL
        207  (BFRD
        210  (BFWR
       6034 ACMQXT  7463
       6020 ADFFX4  6012
        602 AQBLMI  1531
        601 AQBLPL  1527
        710 AQEFTY  4333
        712 AQTAGA  5274
       7601 ASGNBF  7566
      10107 BFCLOS   211,  307,  315,  321, 3435
      10102 BFCODE   212
       7470 BFOPEN   206, 2200, 3453, 3506, 5066
       7643 BFREAD   207, 2211, 2222, 5001, 5012
       7645 BFWRIT   210,  236,  245, 1776, 2426, 2435, 2454, 2501, 2514, 2546, 3517, 3751, 4003, 4012, 4114, 4123, 5102
                    5111
       1653 B.S.S.   310,  311, 1777, 2000, 3446, 3450, 3451, 3455, 3456
      10217 BUFADR 10140,10145,10165,10203
      10100 BUFFCT  7670, 7724, 7733
       7776 BUFFIO  7761
      10253 BUFPTR  7571, 7576, 7620, 7624, 7664, 7727, 7762, 7771, 7775,10012,10041,10056,10065,10067
        660 BUFSIZ  7604, 7616, 7750, 7756,10036,10164,10217,10253
      10003 CHGBCT 10015,10023,10027,10063
        261 CHNCOM   200,  326
       7757 CHNGBF  7750
        272 CHNXIT   204,  244,  253,  272, 2004, 2434, 2443, 2462, 2507, 2522, 2554, 3463, 3516, 3525, 3757, 4011, 4020
                    4122, 4131, 5007, 5020, 5076, 5110, 5117
       5031 C.O.DE  2202, 2203, 2212, 2213, 2223, 2224, 3436, 3437, 5070, 5071, 5103, 5104, 5112, 5113
      10167 CLOSAL 10122,10125
      10147 CLOSIT 10135,10144
       7607 CMNXIT 10166
        514 COMBRK  1416, 1420, 1463, 1465, 2633, 2635, 2650, 2652, 3000, 3002, 3131, 3133, 3533
        161 COMLOC  2603, 3526, 5146
        516 COMREL  3540, 4265
       6773 DEFINE   702
        201 DELFIL  3447, 3500
        505 DICETY  5161, 5163, 6112
        504 DICLOC  5144, 5154, 5164, 6110
       6202 EFBGNS 10534
       6224 EFETYS  4335,10533
      10220 EOFRET  7570,10001,10133
      10105 ERRCOD 10102,10103,10225
1                    MAD III FOR CTSS ... R M GRAHAM ... MAR 1964                03/15/69 1117.9 PAGE 19
                        POST PROCESSOR ASSEMBLY DATA

       7464 EXCODE  7237, 7240, 7251
       7567 FILLBF
      10235 FINDN1 10233,10241
      10243 FINDN2 10240
      10132 FLUSH1
      10142 FLUSH2 10137
      10756 FMINUS 10353
        507 FNFLAD  6015, 6017, 6173, 6177, 6436, 6440, 6514, 6516
        511 FNFNRS  6013, 6171, 6175, 6435, 6512, 6517
         71 GENONE 10660,10541
         60 GENZER 10660,10531
         31 GETBRK     0,   31,   40
        214 GETCOM
      10232 GETFIL  7517, 7660,10126
      10174 GETNXT 10154
        167 HICOM.  1513, 1742, 3616, 3740
       6146 IFBGNS 10512
       6212 IFETYS 10552
        151 INSERT
      11626 IOPARS 10514,10515,10516,10517,10520,10521,10522,10523,10524,10525,10526,10527,10530
      10213 IOSUBR
        663 IQAXT4  6523
        667 IQCAL5  4146
        666 IQCLA4  6451
        675 IQLXA1  4522
        676 IQLXA2  6526
        677 IQLXD1  6531
        661 IQSXA4  6434
        662 IQSXD1  6431
        660 IQTRA2  6505
        701 IQTRA4  6534
        702 IQTRAD  6766
       2746 IR2BEG  2575, 2720
        517 LDRREL  3545, 4263
        250 LIST.C   222,  223
        174 LIST.F   216
        256 L.MARK   235,  241
       4274 MAD3A1  4271, 4420, 5124
        144 MADCOM   110,  144
       2364 MADERR  2210, 2215, 2217, 2226, 2230, 2471, 3075, 3221, 4422, 5025, 5041, 5133, 5406, 5442, 5444, 7116
       5333 MAEPAR  5222
       5223 MANULL  5235
      10160 MOVEUP 10163
       4021 MP22Y.  3776
        651 MQINDS  1615, 1616
       7740 MRKEOF  7736
        503 MSTDEC  4324, 4650, 5255
        303 NEXCOM   300
       7346 OPMTL1  7105, 7143
       7606 OPNRET  7575, 7600, 7633
      10130 P   N1 10200
      10131 P   N2
        550 P   (W  7465, 7504
       7634 P  ALL 10117,10153,10172,10201
        556 P  AQ0  7465, 7507,10216
1                    MAD III FOR CTSS ... R M GRAHAM ... MAR 1964                03/15/69 1117.9 PAGE 20
                        POST PROCESSOR ASSEMBLY DATA

        634 P  MQA  7465, 7731,10014
       7556 P  OPN  7537, 7544, 7551
        571 P  PQ1  7465, 7717
        553 P  PQ4  7465, 7563
       7610 P  XR1  7470, 7646,10071,10107,10226
       7611 P  XR2  7471, 7647, 7701, 7712,10072,10110,10227
       7612 P  XR4  7472, 7523, 7650, 7671, 7677, 7710,10073,10111,10230
       7530 P ARG4  7526
       7540 P ARG5  7533, 7534
       7545 P ARG6  7542
       7552 P ARG7  7546, 7547
       7636 P BSIZ
      10030 P EOF1 10000
      10047 P EOF2 10031
      10053 P EOF3
      10164 P FINI 10160,10174
       7752 P GIVE  7702, 7704, 7707, 7711, 7745, 7767,10020,10026
      10010 P HELP  7777,10046,10062
       7510 P INIT  7506
       7635 P MODE  7476, 7562
       7465 P OPEN  7556
      10255 P READ  7505, 7535, 7541, 7565, 7643, 7645, 7673, 7764, 7766,10114,10210
      10251 P RTN1 10246
      10242 P RTN2 10235,10250
       7614 P (EOF  7567
      10226 P (ERR  7564, 7605, 7632,10052,10132,10152,10222
       2745 PARTSW  2562, 2564, 2567, 2576, 2611, 2676
      10201 PB3ALL 10120
      10126 PCLOS1 10167,10171
      10106 PCLOSE   272,10147
        455 PELINK  4235
      10036 PEOF01 10033
      10254 PEOFCT  7614, 7725, 7740, 7741, 7743,10024,10025,10030,10034,10035,10053,10074,10221
      10231 PERRET  7474, 7652,10113
       7572 PFILL1
       7574 PFILL2
       7467 PFWAIT  7627,10047
        153 PGCERS  4261, 5734
      10223 PIORTN 10202
        173 P.FNAM   237,  240,  246,  247,  322,  323, 3445, 3464
      10262 PNAME1  7514, 7560, 7602, 7630, 7654,10050,10130,10150,10214
      10263 PNAME2  7516, 7561, 7603, 7631, 7656,10051,10131,10151,10215
         36 PPAABC   216,  461, 6326
         24 PPADTT   216, 5771
        620 PPCDIM   216, 2325, 2543, 2544
      26210 PPCODE   216,  457, 2154, 2163, 2347, 2350, 2351, 2352, 2353, 2354, 5042, 5057, 5127, 5130, 5131, 5132
        764 PPELNK   216,  455, 5571
       1750 PPFLAD   216,  453, 6122, 6420, 6553, 6667, 6706
      16040 PPINST   216, 4270, 4765, 4774, 5033, 5034, 5035, 5036, 5037, 5040, 6646
        764 PPLINK   216,  454, 5536
       1130 PPMRK1   216, 5033, 5034, 5036, 5037
       2260 PPMRK2   216, 2347, 2350, 2352, 2353, 5130, 5131
        310 PPOPMD   216, 7121, 7161, 7360,10347,10657,10347
         36 PPPETY   216, 6226
         33 PPREBN   216,  460, 2001
1                    MAD III FOR CTSS ... R M GRAHAM ... MAR 1964                03/15/69 1117.9 PAGE 21
                        POST PROCESSOR ASSEMBLY DATA

       6574 PRENDS  4413, 5303, 5516,10565
        170 PRGTVS  3565
        216 PRLINE   172,  271, 1506, 2152, 3431, 3624, 3634, 3642, 3646, 4132, 4173, 4220, 7126, 7130
        302 PRNTER   276
        164 PRSTRT  3576, 3723, 3764, 4266
      10202 PSYSIO  7573, 7577,10002,10141,10146
      10264 PTABLE  7510, 7511, 7512, 7521, 7522, 7531, 7543, 7553, 7572, 7574, 7621, 7626, 7662, 7666, 7726, 7757, 7760
                    7763, 7770, 7773, 7776,10005,10006,10011,10032,10043,10044,10054,10060,10061,10066,10070,10134,10142
                   10161,10162,10176,10177,10205,10236,10244
       7624 P(EOF1  7615, 7623
      10225 P(ERR0  7501, 7527, 7536, 7661, 7675, 7706
       7751 P(TAKE  7676, 7700, 7713, 7715, 7756, 7765,10007
       7637 RDFILE 10256
       7641 RDWAIT 10260
        512 RELBIT  2626, 2645, 2661, 2662, 2760, 3011, 3105, 3143
        513 RELCON  1421, 1423, 1466, 1470, 1552, 1554, 1753, 2641, 2656, 3006, 3137, 3532, 3537, 3542, 3544, 3552, 3553
                    3555, 3577, 3772, 4264
        177 RESETF   325
      10064 RETURN  7744, 7755,10045
       1364 ROGHL1  1361
       1366 ROGHL2
       1372 ROGHL3  1363, 1366, 1404
       1404 ROGHL4  1371, 1401, 1402
       1405 ROGHLX  1357, 1365
       6142 RSTLCS 10504
      10071 RSTXRS  7723
        465 SATEST  2164, 2167, 3433, 5060, 5062, 6637
       3146 SAVIND  3150, 3160
       6135 SAVLCS 10477,10500,10501,10502,10503
        520 SAVLOC  6136, 6142
       7646 SAVXRS  7644
        171 SBTEST  4255, 4775, 5000
       2332 SEQNSW  2151, 2235, 2343
         32 SETBRK    70
        205 SETMEM
        154 SIMPIO  2556, 2622, 2625, 2670, 2673, 2705, 2730, 6703, 6714
        172 SPRINT
        254 SPRXIT   220
      12061 SRRTNS 10570
       7634 STATUS  7503, 7557,10201
        307 SUCCES   165, 2713
        321 SUCCXX   306,  314
        176 SYMFSW   313, 2150, 2421, 3504, 3626, 3672, 3775, 4074
        175 SYM.FL   316,  317, 2427, 2430, 2436, 2437, 2455, 2456, 2502, 2503, 2515, 2516, 2547, 2550, 3501, 3502, 3510
                    3511, 3520, 3521, 3752, 3753, 4004, 4005, 4013, 4014, 4115, 4116, 4124, 4125
       7604 SYSBUF  7555
        344 TAB7.0  3754
        347 TAB7.1   345, 3676
        351 TAB7.2  3702
        353 TAB7.3  3700, 3710, 3712, 3715
        355 TAB7.4  3707, 3722
        357 TAB7.5  2240, 3725, 3732, 3734
        361 TAB7.6  3726, 3731, 6675, 6677
        363 TAB7.7  3736, 3742
        365 TAB7.8  3743, 3745, 6715, 6731, 6733
1                    MAD III FOR CTSS ... R M GRAHAM ... MAR 1964                03/15/69 1117.9 PAGE 22
                        POST PROCESSOR ASSEMBLY DATA

        367 TAB7.9   345, 3746, 3750, 3754, 6370, 6371, 6404, 6543, 6545
         62 TABSIZ  7510, 7511, 7512, 7521, 7522, 7531, 7543, 7553, 7572, 7574, 7621, 7626, 7662, 7666, 7726, 7757, 7760
                    7763, 7770, 7773, 7776,10005,10006,10011,10032,10043,10044,10054,10060,10061,10066,10070,10134,10142
                   10161,10162,10174,10176,10177,10205,10234,10236,10244,10253,10264,10265
       7675 TESTRD
       7716 TESTWC  7705
       7706 TESTWR  7674
        370 TRNER.   305
      10264 TSPACE  7477, 7607,10155,10173,10232
       7736 TSTEOF
        215 TTYOUT   266, 3630
        270 TTYXIT   263
        464 TVSIZE  3530
        162 TVSTRT  3527, 3531, 3534, 3541, 3546, 4032, 5777
        304 UNSCCS   166, 2417
      10101 WORDCT 10010,10016
       7640 WRFILE 10257
       7642 WRWAIT 10261
       7745 XCHNGE  7732, 7737, 7742
      10731 XMINUS 10356,10455,10460,10461,10462,10463
      10256 XMTFIL 10207,10211
        603 (15K10
        212 (BFCOD
        206 (BFOPN
       7466 (BUFFR  7601
        213 (EOFCT   243,  252, 2003, 2216, 2227, 2433, 2442, 2461, 2506, 2521, 2553, 3524, 3756, 4010, 4017, 4121, 4130
                    5006, 5017, 5107, 5116

0 NO ERROR IN ABOVE ASSEMBLY.
