1      M1416 3845  PETER R. BOS  4/14/68 ..... LOGIN COMMAND FOR CTSS .......    12/03/70 1722.5 PAGE 1

                                     PCC     ON
                       00056         ENTRY   0             MAIN PROGRAM FOR LOGIN
                       00056         ENTRY   TEST00        ENTRY POINT FOR TESTING
                                     LBL     LOGN
                                     PCC     OFF

                                     EXTERN  GETA,WHOAMI,GETCLS,GTPROB,WRFLX,CHNCOM,BCDEC,GTPASS
                                     EXTERN  LOGOUT,SETERR,PTERR,IOERR,ATTACH,GETMEM,SETMEM,LJUST
                                     EXTERN  BFOPEN,BFREAD,BFCLOS,BCOCT,RJUST,ISIN,WRFLXA,RDFLXA
                                     EXTERN  SLEEP,DEFBC,GTDYTM,FTIME,PRINT,NEXCOM,LGNRPT,CLOCIN
                                     EXTERN  WSCOPE,FSTATE,PRDIAG,RESETF,CLOSE,DEAD,SETCLS,HNGUSR
                                     EXTERN  SETBRK,MESSG,SCHEDL,NOTIM

                                     UNLIST


                       00056  TEST00 SYN     *             ENTRY FOR TEST MAIN PROG
      00056  0760 00 0 00016  LOGIN  LMTM                  GETA RUNS IN 7-TAG MODE
      00057                          CALL    WHOAMI((WHO,,7)) GET INFO IF ANY
      00061                          XEC.A   CAL(USER)     GET USER NO.
      00063  0602 00 0 01626         SLW     USR           SAVE ..
      00064  0737 00 1 00000         PAC     ,1            -(USER) TO XR1
      00065                          CALL    GETCLS((COMD,,0)) PICK UP COMMAND LINE
      00067 -0500 00 0 01667         CAL     SPROB         CHECK PROBLEM NO.
      00070  0322 00 0 01717         ERA     FENCE.        ..
      00071  0100 00 0 01545         TZE     LOGER1        FENCE IS NOT PROBLEM NO.
      00072 -0500 00 0 01670         CAL     SNAME         CHECK NAME
      00073  0322 00 0 01717         ERA     FENCE.        ..
      00074 -0100 00 0 00104         TNZ     LOGN.0        SKIP IF GIVEN
      00075  3 77775 1 01545         TXH     LOGER1,1,-3   CHORT FORM FOR FOREGROUND ONLY
      00076 -3 00000 1 01545         TXL     LOGER1,1,0    ..

      00077 -0500 00 0 01667         CAL     SPROB         HERE FOR NEW FORMAT, NAME ONLY
      00100  0602 00 0 01670         SLW     SNAME         .. SAVE NAME
      00101  0600 00 0 01667         STZ     SPROB         .. RESET PROBN FOR LGNRPT
      00102 -0625 00 0 01652         STL     ANYPRB        .. SET SWITCH
      00103  0020 00 0 00107         TRA     LOGN.1        ..

      00104                   LOGN.0 CALL    GTPROB(SPROB,LOGER1) CONVERT PROBNO.

      00107                   LOGN.1 CALL    LJUST(SNAME)  LEFT JUSTIFY USER NAME
      00111  0601 00 0 01651         STO     LNAME         FOR UACCNT SEARCH

      00112 -3 77776 1 00123         TXL     LOGN1,1,-2    SKIP IF NOT FIB
      00113 -0500 00 0 77417         CAL     WPROBN        IF CURRENT USER IS FIBMON
      00114  0322 00 0 01714         ERA     LGNFIB+1      .. ALL IS OK
      00115 -0100 00 0 00121         TNZ     *+4           ..
      00116 -0500 00 0 77425         CAL     WNAME         ..
      00117  0322 00 0 01715         ERA     LGNFIB+2      ..
      00120  0100 00 0 00123         TZE     LOGN1         ..
      00121  0074 00 4 01472         TSX     CKFIB,4       OTHERWISE, USER BEING LOGGED IN
      00122  0020 00 0 01545         TRA     LOGER1        .. HAD BETTER BE FIBMON
1      M1416 3845  PETER R. BOS  4/14/68 ..... LOGIN COMMAND FOR CTSS .......    12/03/70 1722.5 PAGE 2

      00123  3 77775 1 00130  LOGN1  TXH     LOGN2,1,-3    SKIP IF DAEMON OR FIB
      00124 -3 00000 1 00130         TXL     LOGN2,1,0     .. OR BACKGROUND
      00125                          CALL    GTPASS(WUNIT) GET THE PASSWORD
      00127  0601 00 0 01647         STO     PASSW         SAVE ..
      00130                   LOGN2  STLBIT  USROPT,1,NINTBT SET NON-INTERRUPT BIT NOW
      00135 -3 00000 1 00137         TXL     *+2,1,0       NEED PROGN ON BACKGROUND
      00136 -3 77775 1 00151         TXL     LOGN3,1,-3    SKIP IF NOT FIB OR DAEMON
      00137 -0500 00 0 01671         CAL     SPROG         CHECK PROGRAMMER NO.
      00140  0322 00 0 01717         ERA     FENCE.        ..
      00141  0100 00 0 01545         TZE     LOGER1        .. CAN'T LOGIN WITHOUT ONE
      00142 -3 77776 1 00151         TXL     LOGN3,1,-2    SKIP NEXT IF NOT FIB
      00143  0560 00 0 02155         LDQ     =99999        LOTS OF TIME FOR FIBMON
      00144  0074 00 4 01472         TSX     CKFIB,4       IS THIS FIBMON
      00145  0560 00 0 01672         LDQ     STIME         .. NO, USE EST. TIME GIVEN
      00146  0200 00 0 01730         MPY     1MIN          CONVERT TO 60THS
      00147                          XEC.A   STQ(ESTTIM)   AND PUT IN A-CORE

      00151 -0520 00 0 77417  LOGN3  NZT     WPROBN        SEE IF THERE IS OLD USER TO LOG OUT
      00152  0020 00 0 00155         TRA     LOGN4         NO OLD USER, SKIP
      00153 -0754 00 0 00000         ZAC                   .. INDICATE NORMAL LOGOUT
      00154  0074 00 4 00010         TSX     LOGOUT,4      AND LOGOUT THE OLD USER

1      M1416 3845  PETER R. BOS  4/14/68 ..... LOGIN COMMAND FOR CTSS .......    12/03/70 1722.5 PAGE 3
                           SET ERROR PROCEDURE


      00155                   LOGN4  CALL    SETERR(ERROR,LOCK) SET UP TO CATCH FILE ERRORS
      00160 -0500 00 0 01667         CAL     SPROB         SAVE PROBLEM NUMBER OF USER LOGGING IN
      00161  0602 00 0 77367         SLW     RPROB         IN THE REPORT CARD
      00162 -0500 00 0 01670         CAL     SNAME         ALSO SAVE HIS NAME IN THE REPORT CARD
      00163  0602 00 0 77403         SLW     RNAME         ..
      00164  0600 00 0 77370         STZ     RPROG         RESET HIS PROGRAMMER NUMBER
      00165  0774 00 4 00006         AXT     6,4           AND ALL OF HIS TIME USED VECTORS
      00166 -0500 00 0 01712         CAL     BLANK         ..
      00167  0602 00 4 77403         SLW     RCON+1,4      ..
      00170  2 00001 4 00167         TIX     *-1,4,1       ..

      00171 -0500 00 0 00034         CAL     PRINT         SET UP PRDIAG TO PRINT ONLINE
      00172  0621 60 0 00012         STA*    PTERR         ..
      00173                          CALL    ATTACH(SYSFIL,SYSFIL+1) ATTACH TO SYSTEM FILES
      00176  0074 00 4 00015         TSX     GETMEM,4      GET OLD MEMORY BOUND
      00177  0602 00 0 01645         SLW     OLDMEM        SAVE
      00200  0621 00 0 00240         STA     OPN2+4        ..
      00201  0621 00 0 00452         STA     OPN3+4        RE-USE SAME BUFFERS
      00202  0621 00 0 00742         STA     OPN4+4        ..
      00203  0401 00 0 02154         ADM     =432          ..
      00204  0621 00 0 00241         STA     OPN2+5        ..
      00205  0621 00 0 00453         STA     OPN3+5        ..
      00206  0621 00 0 00743         STA     OPN4+5        ..
      00207  0401 00 0 02154         ADM     =432          ..
      00210  0074 00 4 00016         TSX     SETMEM,4      SET NEW MEMORY BOUND
      00211 -0625 00 0 01646         STL     INFO          FROM THIS POINT ON, MUST CLEAR BUFFERS

1      M1416 3845  PETER R. BOS  4/14/68 ..... LOGIN COMMAND FOR CTSS .......    12/03/70 1722.5 PAGE 4
                           READ ACCOUNTING FILE (UACCNT TIMACC)


      00212  0057 00  777777  LOGN5  RIR     /             RESET RIGHT HALF IND
      00213  0074 00 4 00037         TSX     CLOCIN,4      UPDATE THE CLOCK
      00214                          XEC.A   STZ(UTIME,1)  START CHARGING USER NOW
      00216                          XEC.A   STZ(TAU1,1)   ..
      00220                          XEC.A   STZ(TAU2,1)   ..
      00222                          XEC.A   STZ(TAU3,1)   ..
      00224                          XEC.A   STZ(TAU4,1)   ..
      00226                          XEC.A   STZ(TAU5,1)   ..
      00230                          XEC.A   STZ(UCHARG,1) ..
      00232                          XEC.A   STZ(UCLOCK,1) ..

      00234                   OPN2   CALL    BFOPEN(=HR,UACCNT,TIMACC,-,-,=-0,IOERR)
      00244                   RDUA   CALL    BFREAD(UACCNT,TIMACC,(CARD,,28),ENDUA,TMP.,IOERR)
      00253  0054 00  000001         RFT     1             WAS PROBLEM NUMBER FOUND
      00254  0020 00 0 00267         TRA     CKNM          YES, GO CHECK FOR NAME
      00255 -0500 00 0 77426         CAL     USTAR         NO, CHECK IF THIS IS PROBLEM CARD
      00256  0322 00 0 02166         ERA     =H*           PROBLEM CARD BEGINS WITH '*'
      00257 -0100 00 0 00244         TNZ     RDUA          NOT PROBLEM CARD, KEEP LOOKING
      00260 -0500 00 0 77427  RDUA1  CAL     UPROBN        COMPARE PROBNO
      00261  0520 00 0 01652         ZET     ANYPRB        DID USER SPECIFY PROBNO
      00262  0602 00 0 01667         SLW     SPROB         .. NO, ANY OLD ONE WILL DO
      00263  0322 00 0 01667         ERA     SPROB         ..
      00264 -0100 00 0 00244         TNZ     RDUA          NOT SAME, LOOK SOME MORE
      00265  0055 00  000001         SIR     1             FOUND PROBN, SET INDIC.
      00266  0020 00 0 00244         TRA     RDUA          AND READ ANOTHER CARD

      00267 -0500 00 0 77426  CKNM   CAL     USTAR         HERE TO CHECK NAME.
      00270  0322 00 0 02166         ERA     =H*           IF PROBLEM CARD, WE MISSED HIM
      00271  0520 00 0 01652         ZET     ANYPRB        .. UNLESS WE'RE ONLY POKING AROUND
      00272  0100 00 0 00260         TZE     RDUA1         .. IN WHICH CASE, POKE SOME MORE
      00273  0100 00 0 00313         TZE     ENDUA         WE MISSED USER
      00274 -0500 00 0 77426         CAL     UNAM          GET NAME FROM UACCNT
      00275  0322 00 0 01651         ERA     LNAME         COMPARE
      00276 -0100 00 0 00244         TNZ     RDUA          WRONG USER, KEEP LOOKING
      00277  0055 00  000002         SIR     2             FOUND USER NAME
      00300 -3 00000 1 00302         TXL     *+2,1,0       USE PROGN IF BACKGROUND
      00301 -3 77775 1 00307         TXL     CKPASS,1,-3   SKIP PASSWORD CHECK IF FIB, DAEMON
      00302 -0500 00 0 77427         CAL     UPROGN        CHECK FOR PROGN MATCH INSTEAD
      00303  0322 00 0 01671         ERA     SPROG         ..
      00304 -0100 00 0 00244         TNZ     RDUA          KEEP LOOKING FOR USER
      00305  0055 00  000004         SIR     4             PROGN MATCHES, SET PASSWORD FLAG
      00306  0020 00 0 00313         TRA     ENDUA         AND SKIP
      00307 -0500 00 0 77436  CKPASS CAL     UPASSW        HERE TO CHECK PASSWORD
      00310  0322 00 0 01647         ERA     PASSW         ..
      00311 -0100 00 0 00244         TNZ     RDUA          GOT USER, BUT WRONG PASSWORD
      00312  0055 00  000004         SIR     4             PASSWORD FOUND, SET PASSWORD FLAG

      00313                   ENDUA  CALL    BFCLOS(UACCNT,TIMACC,IOERR) DONE, CLOSE FILE
      00317  0056 00  000003         RNT     3             WAS USER FOUND ..
      00320  0020 00 0 00326         TRA     UNFND         NO, GO COMPLAIN
      00321  0054 00  000004         RFT     4             YES, WAS PASSWORD FOUND
      00322  0020 00 0 00340         TRA     OKUSR         YES, SKIP.
      00323  0500 00 0 01732         CLA     PASSWD        HERE IF PASSWORD NOT FOUND
1      M1416 3845  PETER R. BOS  4/14/68 ..... LOGIN COMMAND FOR CTSS .......    12/03/70 1722.5 PAGE 5
                           READ ACCOUNTING FILE (UACCNT TIMACC)

      00324  0560 00 0 01733         LDQ     PASSWD+1      ..
      00325  0020 00 0 00332         TRA     NFUA          ..
      00326  0560 00 0 01670  UNFND  LDQ     SNAME         HERE IF USER NOT FOUND
      00327  0500 00 0 01667         CLA     SPROB         ..
      00330  0520 00 0 01652         ZET     ANYPRB        DID HE GIVE US ONE.Q
      00331  0500 00 0 02167         CLA     =O575757575757  .. THEN WE WON'T GIVE HIM ONE EITHER
      00332 -0603 00 0 01757  NFUA   DST     NFND          INSERT IN COMMENT
      00333                          TYPE    (6, T0000  NAME NOT FOUND IN DIRECTORY),NFND
      00335                          CALL    LGNRPT(8)     REPORT THAT USER WAS NOT FOUND
      00337  0020 00 0 01545         TRA     LOGER1        AND EXIT

      00340 -0500 00 0 01667  OKUSR  CAL     SPROB         SET UP PROBLEM NO. ON REPORT CARD
      00341  0602 00 0 77367         SLW     RPROB         .. IN CASE WE JUST NOW FOUND IT
      00342 -0500 00 0 77427         CAL     UPROGN        SAVE PROGRAMMER NUMBER IN REPORT CARD
      00343  0602 00 0 77370         SLW     RPROG         ..
      00344                          CALL    BCDEC(UPRTGP) HERE IF USER FOUND IN UACCNT
      00346  0601 00 0 01630         STO     GRP           SAVE PARTY GROUP
      00347                          CALL    BCOCT(URCOD)  RESTRICTION CODE
      00351  0601 00 0 01631         STO     RCOD          ..
      00352 -0500 00 0 77432         CAL     UFD           HOME FILE DIRECTORY
      00353  0602 00 0 77424         SLW     WUFDNM        .. SAVE IN WHOAMI ARRAY
      00354 -0500 00 0 77427         CAL     UPROGN        ..
      00355  0602 00 0 77420         SLW     WPROGN        ..
      00356 -0500 00 0 01667         CAL     SPROB         PROBLEM NUMBER
      00357  0602 00 0 77417         SLW     WPROBN        ..
      00360                          CALL    RJUST(UNAM)   RIGHT-ADJUST USER NAME
      00362  0601 00 0 77425         STO     WNAME         ..
      00363                          CALL    RJUST(UFLAGS) BLANK RIGHT CURRENTLY
      00365  0601 00 0 01650         STO     TMP.          ..
      00366                          CALL    BCOCT(TMP.)   CONVERT FROM SPREAD OCTAL
      00370  0601 00 0 01632         STO     FLGS          AND SAVE
      00371                          CALL    RJUST(UNTGP)  COMES WITH A BLANK ON THE RIGHT
      00373  0601 00 0 77433         STO     UNTGP         ..
      00374                          CALL    BCDEC(UNTGP)  UNIT GROUP
      00376  0601 00 0 01633         STO     UNT           ..
      00377 -0500 00 0 77431         CAL     USTNBY        SAVE STANDBY FLAG
      00400 -0320 00 0 02160         ANA     =O171717171717 WIPE ZONE BITS.
      00401  0602 00 0 01634         SLW     SBIND         ..
      00402  0774 00 2 00005         AXT     5,2           FIVE SHIFTS FOR TIME ALLOTTED
      00403                   TALP   CALL    BCDEC((UTA1+5,2)) .. WITH 'EFA'
      00405  0131 00 0 00000         XCA                   ..
      00406  0200 00 0 01730         MPY     1MIN          CONVERT TO 60THS
      00407 -0600 00 2 77412         STQ     TA+5,2        SAVE
      00410  2 00001 2 00403         TIX     TALP,2,1      LOOP FOR ALL SHIFTS
      00411  3 77776 1 00423         TXH     CKFLG,1,-2    SKIP IF FIB
      00412                          XEC.A   LAC(SHIFT,2)  GET SHIFT NUMBER NOW
      00414  0520 00 2 77404         ZET     TA-1,2        CHECK IF NO TIME ALLOTTED
      00415  0020 00 0 00423         TRA     CKFLG         USER HAS TIME ALLOTTED, SKIP
      00416                          TYPE    (6, NO TIME ALLOTTED FOR THIS SHIFT)
      00420                          CALL    LGNRPT(2)     REPORT THAT HE HAS NO TIME ALLOTTED
      00422  0020 00 0 01545         TRA     LOGER1        AND EXIT

      00423  0441 00 0 01632  CKFLG  LDI     FLGS          GET INDICATORS FROM ACCOUNTING SYSTEM
      00424  0056 00  000001         RNT     NOFUND        (SET IF USER ACCOUNT OUT OF $$)
      00425  0020 00 0 00433         TRA     FLG.1         BIT OFF, SKIP
1      M1416 3845  PETER R. BOS  4/14/68 ..... LOGIN COMMAND FOR CTSS .......    12/03/70 1722.5 PAGE 6
                           READ ACCOUNTING FILE (UACCNT TIMACC)

      00426                          TYPE    (5, YOUR ACCOUNT IS OUT OF FUNDS)
      00430                          CALL    LGNRPT(4)     REPORT ACCOUNT OUT OF FUNDS
      00432  0020 00 0 01613         TRA     NOLOG         .. DO NOT LOG IN USER
      00433  0056 00  000002  FLG.1  RNT     CUTDAT        CHECK FOR USER ACCOUNT EXPIRED BY DATE
      00434  0020 00 0 00442         TRA     FLG.2         NO, SKIP
      00435                          TYPE    (8, YOUR ACCOUNT HAS REACHED ITS TERMINATION DATE)
      00437                          CALL    LGNRPT(5)     REPORT ACCOUNT REACHED EXPIRATION DATE
      00441  0020 00 0 01613         TRA     NOLOG         .. AND DO NOT LOG IN USER
                       00442  FLG.2  SYN     *             .. INSERT NEXT FLAG TEST HERE
                       00442  ENDFLG SYN     *

1      M1416 3845  PETER R. BOS  4/14/68 ..... LOGIN COMMAND FOR CTSS .......    12/03/70 1722.5 PAGE 7
                           CHECK FOR USER ON LEGAL UNIT (GRPUNI TIMACC)


      00442  3 77775 1 00554  LOGN6  TXH     CHKIN,1,-3    DON'T CHECK UNIT GROUP FOR FIB, DAEMON
      00443 -3 00000 1 00554         TXL     CHKIN,1,0     .. OR BACKGROUND
      00444 -0520 00 0 01633         NZT     UNT           WAS UNIT GROUP SPECIFIED
      00445  0020 00 0 00554         TRA     CHKIN         NO UNIT GROUP SPECIFIED, SKIP
      00446                   OPN3   CALL    BFOPEN(=HR,GRPUNI,TIMACC,-,-,=-0,IOERR)
      00456  0774 00 2 00000         AXT     0,2           SET COUNT TO 0
      00457  0057 00  777777         RIR     /             RESET BITS
      00460                   RDUNI  CALL    BFREAD(GRPUNI,TIMACC,(CARD,,14),EOFUNI,TMP.,IOERR)
      00467  2 00016 2 00460         TIX     RDUNI,2,14    SKIP FOLLOWING CARDS IF WRONG GRP
      00470                          CALL    BCDEC(CARD+1) WORD COUNT OF CARDS FOLLOWING
      00472  0734 00 2 00000         PAX     ,2            ..
      00473                          CALL    BCDEC(CARD)   UNIT GROUP
      00475  0322 00 0 01633         ERA     UNT           CHECK IF RIGHT GROUP
      00476  0100 00 0 00500         TZE     UNIFND        ZOW .. GOT IT
      00477  1 00016 2 00460         TXI     RDUNI,2,14    KEEP LOOKING FOR UNIT GROUP

      00500                   UNIFND CALL    BFREAD(GRPUNI,TIMACC,(CARD,,14),ENDUNI,TMP.,IOERR)
      00507  0057 00  000001         RIR     1             RESET FORBID FLAG
      00510 -0500 00 0 77426         CAL     CARD          FIRST WORD OF CARD INDICATES
      00511 -0320 00 0 02160         ANA     =O171717171717 FORBIDDEN UNIT IF NON-ZERO,
      00512  0100 00 0 00515         TZE     *+3           AND ALLOWED UNIT IF ZERO.
      00513  0055 00  000001         SIR     1             FORBIDDEN UNIT, SET FLAG
      00514  0020 00 0 00516         TRA     *+2           ..
      00515  0055 00  000002         SIR     2             ALLOWED UNIT, SET OTHER FLAG
      00516  0774 00 4 00013         AXT     11,4          NOW SCAN CARD FOR THIS UNITID
      00517 -0500 00 4 77442         CAL     CARD+12,4     .. WORDS 2 THRU 12 OF CARD
      00520  0322 00 0 77422         ERA     WUNIT         ..
      00521  0100 00 0 00527         TZE     FCON          FOUND UNIT, SKIP
      00522  2 00001 4 00517         TIX     *-3,4,1       NEXT WORD ON CARD
      00523  2 00016 2 00500         TIX     UNIFND,2,14   NEXT CARD IN FILE

      00524  0057 00  000001  ENDUNI RIR     1             RESET FORBID FLAG
      00525  0054 00  000002         RFT     2             WERE ANY ALLOWED CONSOLES FOUND
      00526  0055 00  000001         SIR     1             YES, BUT NOT THIS CONSOLE
      00527  0056 00  000001  FCON   RNT     1             MAY USER USE THIS CONSOLE .Q.
      00530  0020 00 0 00546         TRA     XITUNI        YES, CONTINUE
      00531                          TYPE    (5, USER MAY NOT USE THIS CONSOLE)
      00533                          CALL    LGNRPT(9)     REPORT ILLEGAL CONSOLE ID
      00535  0020 00 0 00546         TRA     XITUNI        NO, CONTINUE

      00536                   EOFUNI CALL    DEFBC(UNT)    HERE ON EOF. UNIT GROUP NOT FOUND
      00540  0601 00 0 02017         STO     NOUNI+2       ..
      00541                          TYPE    (5, UNIT GROUP 000000 NOT FOUND),NOUNI
      00543                          CALL    LGNRPT(10)    REPORT ERROR IN ACCOUNT FILES
      00545  0055 00  000001         SIR     1             AND SET ERROR INDIC.
      00546                   XITUNI CALL    BFCLOS(GRPUNI,TIMACC,IOERR) CLOSE FILE,
      00552  0054 00  000001         RFT     1             CHECK IF USER ALLOWED
      00553  0020 00 0 01545         TRA     LOGER1        USER NOT TO BE LOGGED IN, EXIT

1      M1416 3845  PETER R. BOS  4/14/68 ..... LOGIN COMMAND FOR CTSS .......    12/03/70 1722.5 PAGE 8
                           CHECK FOR USER ALREADY LOGGED IN


      00554                   CHKIN  CALL    ISIN(WPROBN,WPROGN) IS THIS USER LOGGED IN
      00557  0100 00 0 00657         TZE     LOGN7         NO, SKIP
      00560  0737 00 2 00000         PAC     ,2            USER'S LINE TO X2 (COM)
      00561 -3 77776 2 00641         TXL     UFNDER,2,-2   ERROR IF USER NOT FIB
      00562  3 77775 1 00641         TXH     UFNDER,1,-3   CAN'T ASK QUESTION ON DAEMON
      00563 -3 00000 1 00641         TXL     UFNDER,1,0    .. OR BACKGROUND
      00564  0020 00 0 00565  NXFND  TRA     *+1           ONLY ASK ABOUT FIB JOB ONCE
      00565  0074 00 4 01452         TSX     BCLEAR,4      MAKE SURE NOTHING LEFT LYING AROUND
      00566                          TYPE    (8, IF YOU LOG IN, YOUR FIB JOB WILL BE DELETED)
      00570                          TYPEA   (4, DO YOU WISH TO LOG IN,)
      00572                          STZBIT  USROPT,1,NINTBT RESET NON-INTERRUPT BIT
      00577                          CALL    RDFLXA((TMP.,,1)) READ REPLY
      00601                          STLBIT  USROPT,1,NINTBT SET NON-INTERRUPT BIT AGAIN
      00606 -0500 00 0 01650         CAL     TMP.          GET ANSWER
      00607  0771 00 0 00014         ARS     12            ..
      00610  0322 00 0 01644         ERA     YES           'YES(CR)'
      00611 -0100 00 0 00615         TNZ     FIBIN         NO, LET FIB JOB RUN
      00612  0774 00 4 00620         AXT     KFIB,4        SET UP TO KILL FIB NEXT TIME
      00613  0634 00 4 00564         SXA     NXFND,4       ..
      00614  0020 00 0 00554         TRA     CHKIN         MAKE SURE USER STILL ON FIB

      00615                   FIBIN  CALL    LGNRPT(7)     REPORT FIB JOB RUNNING
      00617  0020 00 0 01613         TRA     NOLOG         ..

      00620                   KFIB   CALL    NOTIM(=1,=7)  KILL FIB
      00623 -0625 00 0 00564         STL     NXFND         ONLY KILL ONCE
      00624                          STZBIT  USROPT,1,NINTBT SIT AND WAIT
      00631 -0500 00 0 02147         CAL     =5            WHILE FIB USER GETS
      00632  0074 00 4 00030         TSX     SLEEP,4       LOGGED OUT ..
      00633                          STLBIT  USROPT,1,NINTBT SET NON-INTERRUPT BIT AGAIN
      00640  0020 00 0 00554         TRA     CHKIN         SEE IF USER LOGGED OUT YET

      00641 -3 77776 1 00644  UFNDER TXL     UFNDR1,1,-2   SKIP IF NOT FIB
      00642 -0500 00 0 02173         CAL     =H     1      LOG FIBMON BACK IN AND DEFER JOB
      00643  0020 00 0 01551         TRA     FIXFIB        ..
      00644  0500 00 0 77417  UFNDR1 CLA     WPROBN        USER ALREADY LOGGED IN
      00645  0560 00 0 77420         LDQ     WPROGN        AND NOT ON FIB
      00646 -0603 00 0 02036         DST     ALRDY         SET UP COMMENT
      00647                          XEC.A   CAL(UNITID,2) GET OTHER CONSOLE'S ID
      00651  0602 00 0 02044         SLW     ALRDY+6
      00652                          TYPE    (7, T0000  0000 ALREADY LOGGED IN FROM 000000),ALRDY
      00654                          CALL    LGNRPT(6)     REPORT ALREADY LOGGED IN
      00656  0020 00 0 01545         TRA     LOGER1        EXIT

1      M1416 3845  PETER R. BOS  4/14/68 ..... LOGIN COMMAND FOR CTSS .......    12/03/70 1722.5 PAGE 9
                           CHECK USER PARTY GROUP STATUS


      00657 -0500 00 0 01667  LOGN7  CAL     SPROB         CHECK FOR SPECIAL PROBNO
      00660  0322 00 0 02171         ERA     =H C0056      PROBLEM C0056 HAS TAU ZERO AT LOGIN
      00661  0602 00 0 01642         SLW     C56USR        ..
      00662  3 77775 1 00734         TXH     LOGN8,1,-3    FIB AND DAEMON HAVE NO GROUP
      00663 -3 00000 1 00734         TXL     LOGN8,1,0     .. NEITHER DOES BACKGROUND
      00664 -0500 00 0 77425         CAL     WNAME         CHECK FOR SPECIAL USER 'SYSMSG'
      00665  0322 00 0 02176         ERA     =HSYSMSG      .. USED FOR ONLINE OUTPUT
      00666 -0501 00 0 01642         ORA     C56USR        .. ONLY ON PROBLEM C0056
      00667  0602 00 0 01643         SLW     MSGUSR        ..
      00670  0100 00 0 00734         TZE     LOGN8         .. HAS NO PARTY GROUP
      00671  0057 00  777777         RIR     /             RESET SI RIGHT HALF
      00672  0535 00 2 01630         LAC     GRP,2         GET USER'S GROUP NUMBER
      00673 -3 00000 2 00705         TXL     OKGRP,2,0     CHECK FOR INVALID GROUP
      00674  3 77734 2 00705         TXH     OKGRP,2,-GROUPS-1
      00675                          CALL    DEFBC(GRP)
      00677  0601 00 0 02050         STO     BADGRP+3      ..
      00700                          TYPE    (6, PARTY GRP NUMBER 000000 IS WRONG),BADGRP
      00702                          CALL    LGNRPT(10)    REPORT ERROR IN PARTY GROUP
      00704  0020 00 0 01545         TRA     LOGER1        EXIT
      00705                   OKGRP  XEC.A   CAL(GRPTBL,2) GET USERS GROUP ENTRY
      00707  0621 00 0 01635         STA     MAXLIN        MAX PRIMARY LINES IN GROUP
      00710  0771 00 0 00022         ARS     18            ..
      00711  0621 00 0 01636         STA     ACTLIN        CURRENT NO. USERS IN GROUP
      00712 -0340 00 0 01635         LAS     MAXLIN        IF CURRENT .GE. MAX,
      00713  0761 00 0 00000         NOP                   ..
      00714  0055 00  000001         SIR     1             SET INDIC TO LOG IN STANDBY
      00715                          XEC.A   CAL(STNBY)    GET NO STANDBY USERS
      00717  0602 00 0 01637         SLW     NSBY          SAVE
      00720                          XEC.A   CLA(NUSERS)   GET NUMBER OF USERS NOW
      00722                          XEC.A   SUB(MXUSRS)   IF N .L. MAX, RESULT NEG.
      00724  0056 00  000001         RNT     1             TEST IF USER TO BE PRIME
      00725  0402 00 0 01637         SUB     NSBY          YES, GET STANDBY COUNT ALSO
      00726  0120 00 0 01620         TPL     HNGU          IF RESULT +, NO ROOM FOR USER
      00727  0056 00  000001         RNT     1             ..
      00730  0020 00 0 00733         TRA     SVIND         GO SAVE INDS.
      00731 -0520 00 0 01634         NZT     SBIND         IS NON-ZERO IF USER MAY BE STANDBY
      00732  0020 00 0 01620         TRA     HNGU          USER NOT TO LOG IN STANDBY

      00733  0604 00 0 01641  SVIND  STI     PRTYIN        SAVE SI FOR LATER

1      M1416 3845  PETER R. BOS  4/14/68 ..... LOGIN COMMAND FOR CTSS .......    12/03/70 1722.5 PAGE 10
                           READ USER TIME USED (TIMUSD TIMACC)


      00734 -0520 00 0 01642  LOGN8  NZT     C56USR        IF C0056 (SWITCH IS 0),
      00735  3 77775 1 01003         TXH     LOGN8A,1,-3   AND ON FIB OR DAEMON, DON'T READ TIMUSD

      00736                   OPN4   CALL    BFOPEN(=HR,TIMUSD,TIMACC,-,-,=-0,IOERR)
      00746                   RDTMU  CALL    BFREAD(TIMUSD,TIMACC,(CARD,,28),EOFTMU,TMP.,IOERR)
      00755 -0500 00 0 01667         CAL     SPROB         CKECK IF THIS IS USER'S TIME CARDS
      00756  0322 00 0 77426         ERA     TPROBN        ..
      00757 -0100 00 0 00746         TNZ     RDTMU         NO, LOOK AGAIN
      00760 -0500 00 0 77420         CAL     WPROGN        ..
      00761  0322 00 0 77427         ERA     TPROGN        ..
      00762 -0100 00 0 00746         TNZ     RDTMU         KEEP LOOKING FOR USER
      00763  0774 00 2 00005         AXT     5,2           FOUND USER, GET TIME USED
      00764                   TULP   CALL    BCDEC((TTU1+5,2)) CONVERT TO BINARY
      00766  0131 00 0 00000         XCA                   ..
      00767  0200 00 0 01731         MPY     1SEC          CONVERT SECONDS TO 60THS
      00770 -0600 00 2 77417         STQ     TU+5,2        SAVE
      00771  2 00001 2 00764         TIX     TULP,2,1      LOOP FOR ALL SHIFTS
      00772  0020 00 0 00777         TRA     CLOSTM        GO CLOSE FILE

      00773  0774 00 4 00005  EOFTMU AXT     5,4           HERE ON EOF .. USER NOT FOUND
      00774  0600 00 4 77417         STZ     TU+5,4        CLEAR TIME USED
      00775  2 00001 4 00774         TIX     *-1,4,1       ..
      00776  0600 00 0 77444         STZ     TLAST         AND DON'T PRINT LOGOUT COMMENT
      00777                   CLOSTM CALL    BFCLOS(TIMUSD,TIMACC,IOERR)

      01003  0074 00 4 00015  LOGN8A TSX     GETMEM,4      GET MEMORY BOUND NOW
      01004  0621 00 0 01010         STA     *+4           ..
      01005  0402 00 0 01645         SUB     OLDMEM        COMPARE WITH OLD
      01006  0734 00 4 00000         PAX     ,4            DIFFERENCE
      01007 -3 00000 4 01014         TXL     *+5,4,0       NO CHANGE, SKIP
      01010  0600 00 4 00000         STZ     -,4           ZEROED BUFFERS TELL NO TALES
      01011  2 00001 4 01010         TIX     *-1,4,1       ..
      01012 -0500 00 0 01645         CAL     OLDMEM        RESET MEMORY BOUND
      01013  0074 00 4 00016         TSX     SETMEM,4      ..
      01014  0074 00 4 00011         TSX     SETERR,4      SET UP ERROR ROUTINES TO IGNORE ERRORS
      01015 -0754 00 0 00000         ZAC                   RESET PRINTING OF DIAGNOSTICS TO WRFLX
      01016  0621 60 0 00012         STA*    PTERR         ..

      01017  0774 00 2 00005         AXT     5,2           SET UP TAU VECTORS IN SUPERVISOR
      01020  0756 00 1 00000         PCA     ,1            USER NO
      01021  0737 00 3 00000         PAC     ,3            -USER NO.
      01022  0560 00 2 77412  SETTM  LDQ     TA+5,2        ALLOTTED TIME (60THS)
      01023 -0763 00 0 00034         LGL     28            DROP LOW ORDER 8 BITS
      01024  0520 00 0 01642         ZET     C56USR        IF NOT C56 USER,
      01025  0560 00 2 77417         LDQ     TU+5,2        GET TIME USED (60THS)
      01026 -0773 00 0 00016         RQL     14            LEFT ADJUST IN MQ
      01027 -0763 00 0 00026         LGL     22            AND SHIFT WHOLE TAU TO AC
      01030                          XEC.A   ACL(TAU1,3)   ADD IN TIME USED BY LOGIN
      01032                          XEC.A   SLW(TAU1,3)   STORE RESULT
      01034  1 00051 3 01035         TXI     *+1,3,N+1     ON TO NEXT SHIFT
      01035  2 00001 2 01022         TIX     SETTM,2,1     .. FIVE SHIFTS
1      M1416 3845  PETER R. BOS  4/14/68 ..... LOGIN COMMAND FOR CTSS .......    12/03/70 1722.5 PAGE 11
                           READ USER TIME USED (TIMUSD TIMACC)

      01036 -0500 00 0 77417         CAL     WPROBN        SET PROB-PROG FOR SCHEDL
      01037                          XEC.A   SLW(PROBN,1)  ..
      01041 -0500 00 0 77420         CAL     WPROGN        ..
      01042                          XEC.A   SLW(PROGN,1)  ..
      01044                          SCHEDL  =8,USR,=1     TELL SCHEDL USER LOGGING IN
      01050                          NZTBIT  ,1,,NOTIME    SEE IF USER OUT OF TIME, ETC.
      01053  0020 00 0 01117         TRA     LOGN9         .. NO PROBLEM, CONTINUE
      01054 -0046 00 0 00000         PIA                   EXTRACT NOTIME CODE
      01055  0771 00 0 00017         ARS     15            ..
      01056 -0320 00 0 02150         ANA     =O7           ..
      01057  0737 00 4 00000         PAC     ,4            ..
      01060 -3 77772 4 01066         TXL     NTIME,4,-NTCMS SKIP IF NOT INTERESTING
      01061 -0500 00 4 01070         CAL     NTMCOM,4      PICK UP POINTER TO COMMENT
      01062  0100 00 0 01066         TZE     NTIME         SKIP IF NONE
      01063  0602 00 0 01065         SLW     *+2           ..
      01064  0074 00 4 00004         TSX     WRFLX,4       TYPE COMMENT TO USER
      01065  0 00000 0 00000         PZE     -,,-          ..
      01066                   NTIME  CALL    LGNRPT(3)     REPORT UNSUCCESSFUL LOGIN
      01070  0020 00 0 01613         TRA     NOLOG         AND TELL USER NO LOGIN

                       01070  NTMCOM SYN     *-1           TABLE OF COMMENTS
      01071  0 00005 0 01076         PZE     SYSDWN,,5     ..
      01072  0 00007 0 01103         PZE     TIMOUT,,7     ..
      01073  0 00000 0 00000         PZE     0             ..
      01074  0 00000 0 00000         PZE     0             ..
      01075  0 00005 0 01112         PZE     HUNGUP,,5     ..
                       00006  NTCMS  EQU     *-NTMCOM      ..

      01076  602363626260     SYSDWN BCI     5, CTSS IS BEING BROUGHT DOWN
      01103  602143434663     TIMOUT BCI     7, ALLOTTED TIME EXCEEDED FOR THIS SHIFT
      01112  607046645160     HUNGUP BCI     5, YOUR DATA PHONE IS HUNG UP

1      M1416 3845  PETER R. BOS  4/14/68 ..... LOGIN COMMAND FOR CTSS .......    12/03/70 1722.5 PAGE 12
                           ATTACH TO USER AND CHECK PARTY GROUP


      01117                   LOGN9  CALL    ATTACH(WPROBN,WUFDNM,NOUSR) ATTACH TO USER
      01123  3 77775 1 01153         TXH     LOGN10,1,-3   FIB AND DAEMON HAVE NO GROUP
      01124 -3 00000 1 01153         TXL     LOGN10,1,0    ..
      01125 -0520 00 0 01643         NZT     MSGUSR        NEITHER DOES C0056 SYSMSG
      01126  0020 00 0 01153         TRA     LOGN10        ..
      01127  0441 00 0 01641         LDI     PRTYIN        RESTORE SI
      01130  0056 00  000001         RNT     1             IS USER TO BE LOGGED IN AS STANDBY
      01131  0020 00 0 01142         TRA     LOGPR         NO, GO LOG IN AS PRIME

      01132  0502 00 0 01630  LOGSB  CLS     GRP           STANDBY USER, MAKE GROUP NEGATIVE
      01133  0601 00 0 01630         STO     GRP           ..
      01134  0500 00 0 01637         CLA     NSBY          INCREASE STANDBY COUNT
      01135  0400 00 0 02145         ADD     =1            ..
      01136                          XEC.A   STO(STNBY)    ..
      01140                          TYPE    (6, STANDBY LINE HAS BEEN ASSIGNED)

      01142 -0500 00 0 01636  LOGPR  CAL     ACTLIN        INCREASE NO USERS IN GROUP
      01143  0361 00 0 02145         ACL     =1            ..
      01144  0767 00 0 00022         ALS     18            ..
      01145  0535 00 2 01630         LAC     GRP,2         GET GOUP NUMBER
      01146                          XEC.A   STD(GRPTBL,2) SET LEFT HALF GROUP ENTRY
      01150  0500 00 0 01630         CLA     GRP           SET UP USER GROUP NUMBER
      01151                          XEC.A   STO(GRPNO.,1) ..

      01153                   LOGN10 XEC.A   CLA(NUSERS)   INCREASE NO. USERS ON CTSS
      01155  0400 00 0 02145         ADD     =1            ..
      01156                          XEC.A   STO(NUSERS)   ..
      01160  0601 00 0 01627         STO     USRS          .. SAVE
      01161 -0500 00 0 77425         CAL     WNAME         SET ALL INFO IN SUPERVISOR COMMON
      01162                          XEC.A   SLW(UNAME,1)  ..
      01164 -0500 00 0 77424         CAL     WUFDNM        ..
      01165                          XEC.A   SLW(UFDNM,1)  ..
      01167                          XEC.A   LDI(RCODE,1)  FIX UP RCODE
      01171  0057 00  777777         RIR     /             RIGHT HALF ONLY SET BY LOGIN
      01172  0442 00 0 01631         OSI     RCOD          ..
      01173  0051 00  001000         IIR     RSYSBT        INVERT SUBSYSTEM RESTRICTION BIT
      01174                          XEC.A   STI(RCODE,1)  ..
      01176  0604 00 0 01631         STI     RCOD          SAVE FOR LATER
      01177                          CALL    BCDEC(WPROGN) GET AUTHOR NO. FROM PROGN
      01201                          XEC.A   STO(AUTHOR)   ..
      01203                          XEC.A   STZ(OKPROB,1) ..
      01205                          XEC.A   STZ(ADOPT,1)  MAKE SURE USER UNADOPTABLE
      01207  0074 00 4 00032         TSX     GTDYTM,4      GET FILE SYSTEM DATE/TIME NOW
      01210                          XEC.A   SLW(ITIME,1)  TIME LOGGED IN
      01212  0602 00 0 01640         SLW     FILTIM        SAVE ALSO
      01213  3 00000 1 01216         TXH     *+3,1,0       SKIP IF NOT BACKGROUND
      01214 -0500 00 0 02162         CAL     =HBACKGR      BACKGROUND UNITID
      01215  0020 00 0 01223         TRA     LOGN11        ..
      01216 -3 77775 1 01226         TXL     LOGGDN,1,-3   SKIP IF NOT FIB OR DAEMON
      01217 -3 77776 1 01222         TXL     *+3,1,-2      FIB UNITID IS
      01220 -0500 00 0 02177         CAL     =H(FIB)       ..
      01221  0020 00 0 01223         TRA     *+2           ..
      01222 -0500 00 0 02163         CAL     =HDAEMON      DAEMON UNITID
1      M1416 3845  PETER R. BOS  4/14/68 ..... LOGIN COMMAND FOR CTSS .......    12/03/70 1722.5 PAGE 13
                           ATTACH TO USER AND CHECK PARTY GROUP

      01223  0602 00 0 77422  LOGN11 SLW     WUNIT         ..
      01224                          XEC.A   SLW(UNITID,1)

1      M1416 3845  PETER R. BOS  4/14/68 ..... LOGIN COMMAND FOR CTSS .......    12/03/70 1722.5 PAGE 14
                           USER NOW LOGGED IN, PRINT MESSAGE


      01226  0500 00 0 77417  LOGGDN CLA     WPROBN        GET PROB-PROG FOR LOGIN MESSAGE
      01227  0560 00 0 77420         LDQ     WPROGN        ..
      01230 -0603 00 0 01653         DST     LGNCM1        ..
      01231                          CALL    FTIME(FILTIM,LGNCM1+4,LGNCM1+6) ..
      01235  0560 00 0 01657         LDQ     LGNCM1+4      CONVERT MMDDYY TO MM/DD/YY
      01236 -0763 00 0 00014         LGL     12            ..
      01237  0767 00 0 00006         ALS     6             ..
      01240 -0763 00 0 00014         LGL     12            ..
      01241  0767 00 0 00006         ALS     6             ..
      01242 -0501 00 0 02157         ORA     =H00/00/      MM/DD/
      01243  0602 00 0 01657         SLW     LGNCM1+4      ..
      01244 -0130 00 0 00000         XCL
      01245 -0501 00 0 02156         ORA     =O57575760    YY
      01246  0602 00 0 01660         SLW     LGNCM1+5      ..
      01247 -0500 00 0 01661         CAL     LGNCM1+6      CONVERT TIME 0NNN.N TO ' NNN.N'
      01250  0771 00 0 00036         ARS     30            ..
      01251 -0100 00 0 01254         TNZ     *+3           ..
      01252 -0500 00 0 02170         CAL     =H 00000      ..
      01253 -0602 00 0 01661         ORS     LGNCM1+6      PUT IN COMMENT
      01254 -0500 00 0 77422         CAL     WUNIT         PUT UNITID ON LINE ALSO
      01255  0602 00 0 01663         SLW     LGNCM1+8      ..
      01256  0074 00 4 00031         TSX     DEFBC,4       CONVERT NUSERS FOR PRINTING
      01257  3 00000 0 01627         PAR     USRS          ..
      01260 -0765 00 0 00014         LGR     12            ..
      01261 -0500 00 0 02172         CAL     =H  RS=       .. 'USERS= 00'
      01262 -0765 00 0 00030         LGR     24            ..
      01263 -0600 00 0 01665         STQ     LGNCM1+10     .. PUT IN LINE
      01264  0074 00 4 00034         TSX     PRINT,4       PRINT LOGIN MESSAGE ON-LINE
      01265  0 00013 0 01653         PZE     LGNCM1,,11    ..
      01266                          CALL    LGNRPT(0)     REPORT A SUCESSFUL LOGIN
      01270 -3 77775 1 01312         TXL     LGDIN1,1,-3   SKIP IF NOT FIB OR DAEMON
      01271                          STZBIT  USROPT,1,NINTBT RESET NON-INTERRUPT BIT
      01276 -3 77776 1 01306         TXL     DAEM,1,-2     SKIP IF DAEMON
      01277                          CALL    WRFLX((LGNCM1,,9)) PRINT LOGIN MESSAGE FOR FIB JOB
      01301  0074 00 4 01472         TSX     CKFIB,4       CHECK IF FIBMON LOGGING IN
      01302  0020 00 0 01431         TRA     CHN           .. NO, SKIP
      01303 -0500 00 0 01734         CAL     FIBMON        ELSE, NEXCOM TO FIB MONITOR
      01304  0560 00 0 01735         LDQ     FIBMON+1      ..
      01305  0020 00 0 01310         TRA     NXCM          ..
      01306 -0500 00 0 01736  DAEM   CAL     DAEMON        'DAEMON' IS NOW A COMMAND
      01307  0560 00 0 01717         LDQ     FENCE.        ..
      01310  0074 00 4 00035  NXCM   TSX     NEXCOM,4      AND GO TO DAEMON MAIN CONTROL
      01311  0020 00 0 01607         TRA     DIE1          IF CONTROL EVER GETS BACK, GO DEAD

      01312 -0500 00 0 77420  LGDIN1 CAL     WPROGN        CONVERT PROG TO 'PROGL'
      01313  0767 00 0 00006         ALS     6             MAKE ROOM FOR 'L'
      01314 -0501 00 0 02152         ORA     =H00000L      ..
      01315  0602 00 0 01751         SLW     PROGL         SAVE RESULT.
      01316                          CALL    CHECK(URGENT,MAIL) CHECK FOR ALL KINDS OF THINGS
      01321                          CALL    CHECK(URGENT,POST) ..
      01324                          CALL    CHECK(MAIL,BOX) ..
      01327                          CALL    CHECK(PROGL,SAVED.) ..
      01332                          CALL    WRFLX((LGNCM1,,9)) .. TYPE LOGIN MESSAGE TO USER
1      M1416 3845  PETER R. BOS  4/14/68 ..... LOGIN COMMAND FOR CTSS .......    12/03/70 1722.5 PAGE 15
                           USER NOW LOGGED IN, PRINT MESSAGE

      01334 -0520 00 0 77444         NZT     TLAST         SEE IF LAST LOGOUT THIS MONTH
      01335  0020 00 0 01362         TRA     UFDCMT        NO, SKIP PRINTING SILLY COMMENT
      01336  0560 00 0 77444         LDQ     TLAST         YES, CONVERT MMDDYY TO NICE FORMAT
      01337 -0763 00 0 00014         LGL     12            ..
      01340  0767 00 0 00006         ALS     6             ..
      01341 -0763 00 0 00014         LGL     12            ..
      01342  0767 00 0 00006         ALS     6             ..
      01343 -0501 00 0 02157         ORA     =H00/00/      ..
      01344  0602 00 0 02064         SLW     LSTLGT+3      ..
      01345 -0130 00 0 00000         XCL                   ..
      01346 -0501 00 0 02156         ORA     =O57575760    ..
      01347  0602 00 0 02065         SLW     LSTLGT+4      ..
      01350 -0500 00 0 77445         CAL     TLAST+1       GET TIME LAST LOGOUT
      01351  0602 00 0 02066         SLW     LSTLGT+5      ..
      01352  0771 00 0 00036         ARS     30            CHECK FOR LEADING 0.
      01353 -0100 00 0 01356         TNZ     *+3           ..
      01354 -0500 00 0 02170         CAL     =H 00000      ..
      01355 -0602 00 0 02066         ORS     LSTLGT+5      ..
      01356 -0500 00 0 77446         CAL     TUNIT         GET UNIT LAST LOGOUT
      01357  0602 00 0 02070         SLW     LSTLGT+7      ..
      01360                          TYPE    (8, LAST LOGOUT WAS  00/00/00    0000.0 FROM),LSTLGT

      01362 -0500 00 0 77424  UFDCMT CAL     WUFDNM        SEE IF USER IS 'UFDLESS'
      01363 -0340 00 0 77420         LAS     WPROGN        IF UFDNM .NE. PROGN, NO OWN UFD
      01364  0020 00 0 01366         TRA     *+2           ..
      01365  0020 00 0 01400         TRA     MESG          USER HAS OWN UFD, SKIP
      01366  0602 00 0 02076         SLW     HOME+5        INSERT NAME2 OF UFD IN COMMENT
      01367  0771 00 0 00036         ARS     30            SEE IF BLANK LEADING
      01370  0322 00 0 02153         ERA     =O60          ..
      01371  0602 00 0 01650         SLW     TMP.          ZERO IF LEADING BLANK.
      01372  0560 00 0 77417         LDQ     WPROBN        GET PROBN (NAME1 OF UFD)
      01373  0520 00 0 01650         ZET     TMP.          IF NO LEADING BLANK (EG CMFL01)
      01374 -0773 00 0 00006         RQL     6             MAKE ONE
      01375 -0600 00 0 02075         STQ     HOME+4        ..
      01376                          TYPE    (6, HOME FILE DIRECTORY IS),HOME

      01400 -0520 00 0 01643  MESG   NZT     MSGUSR        IS THIS USER 'SYSMSG'
      01401  0020 00 0 01421         TRA     SYSMS.        .. YES (SWITCH 0)
      01402                          STZBIT  USROPT,1,NINTBT RESET NO-INTERRUPT BIT NOW.
      01407  0441 00 0 01631         LDI     RCOD          GET USERS OWN RESTRICTION CODE
      01410                          XEC.A   STI(URCODE)   MAKE COMMAND NON-PRIVILEGED
      01412                          CALL    SETBRK(CHN)   SET INTERRUPT LEVEL
      01414                          CALL    MESSG(MESSAG,TODAY,*+1) PRINT MESSAGE OF DAY
      01420  0020 00 0 01424         TRA     SYSNM         GO PRINT SYSTEM NAME

      01421  0756 00 1 00000  SYSMS. PCA     ,1            HERE IF USER IS SYSMSG
      01422                          XEC.A   SLW(SYSMSG)   SET LINE NUMBER FOR OPERATOR OUTPUT

      01424  0560 00 0 77421  SYSNM  LDQ     WSYSNM        GET SYSTEM NAME
      01425  0500 00 0 02175         CLA     =O626060575757 AND TWO BLANKS
      01426 -0603 00 0 02102         DST     CTSSIS+3      ..
      01427                          TYPE    (5, CTSS BEING USED IS),CTSSIS
      01431                   CHN    CALL    CHNCOM(0)     EXIT VIA CHNCOM
1      M1416 3845  PETER R. BOS  4/14/68 ..... LOGIN COMMAND FOR CTSS .......    12/03/70 1722.5 PAGE 16
                           SUBROUTINES, ETC.


      01433  0634 00 4 01450  CHECK  SXA     CHX4,4        CHECK FOR NON-ZERO FILES
      01434  0500 60 4 00001         CLA*    1,4           FILE NAME1
      01435  0560 60 4 00002         LDQ*    2,4           FILE NAME2
      01436 -0603 00 0 02106         DST     UHAVE+2       PUT INTO COMMENT
      01437                          CALL    FSTATE(UHAVE+2,UHAVE+3,(TMP.,,1),CHX4)
      01444 -0520 00 0 01650         NZT     TMP.          TEST FOR NON-ZERO LENGTH
      01445  0020 00 0 01450         TRA     CHX4          IGNORE ZERO LENGTH FILE
      01446                          TYPE    (4, YOU HAVE),UHAVE TELL USER HE HAS
      01450  0774 00 4 00000  CHX4   AXT     -,4           ..
      01451  0020 00 4 00003         TRA     3,4           RETURN

      01452  0634 00 4 01467  BCLEAR SXA     CLX4,4        CLEAR I/O BUFFERS AFTER ERRORS
      01453 -0520 00 0 01646         NZT     INFO          DO WE NEED TO .Q.
      01454  0020 00 0 01467         TRA     CLX4          NO USEFUL STUFF IN BUFFERS
      01455  0074 00 4 00015         TSX     GETMEM,4      GET CURRENT MEMBND
      01456  0621 00 0 01462         STA     *+4           ..
      01457  0402 00 0 01645         SUB     OLDMEM        FIND BUFFER SIZE
      01460  0734 00 4 00000         PAX     ,4            ..
      01461 -3 00000 4 01467         TXL     CLX4,4,0      ..
      01462  0600 00 4 00000         STZ     -,4           CLEAR BUFFER AREA
      01463  2 00001 4 01462         TIX     *-1,4,1       .. JUST IN CASE
      01464  0774 00 4 00034         AXT     28,4          ..
      01465  0600 00 4 77462         STZ     CARD+28,4     THAT TOO
      01466  2 00001 4 01465         TIX     *-1,4,1       ..
      01467  0774 00 4 00000  CLX4   AXT     -,4           ..
      01470  0600 00 0 01647         STZ     PASSW         DON'T FORGET HIM
      01471  0020 00 4 00001         TRA     1,4           RETURN

      01472  0774 00 7 00003  CKFIB  AXT     3,7           CHECK FOR 'LOGIN C0056 FIBMON 99995'
      01473 -0500 00 7 01672         CAL     COMD+4,7      ..
      01474  0322 00 7 01717         ERA     LGNFIB+4,7    ..
      01475 -0100 00 4 00001         TNZ     1,4           NOT FIBMON, RETURN 1,4
      01476  2 00001 7 01473         TIX     *-3,7,1       ..
      01477  0020 00 4 00002         TRA     2,4           IS FIBMON, RETURN 2,4
1      M1416 3845  PETER R. BOS  4/14/68 ..... LOGIN COMMAND FOR CTSS .......    12/03/70 1722.5 PAGE 17
                           ERROR PROCEDURE


      01500  0074 00 4 00042  ERROR  TSX     PRDIAG,4      CALLED BY IOERR
      01501                          TYPE    (6, DISK ERROR IN ACCOUNTING FILES)
      01503  0020 00 0 01512         TRA     ERRXIT        ..

      01504  0601 00 0 01531  LOCK   STO     LCKD+4        FILE IS LOCKED, GET FILE NAME
      01505 -0600 00 0 01533         STQ     LCKD+6        ..
      01506  0074 00 4 00034         TSX     PRINT,4       COMPLAIN ABOUT LOCKED FILE
      01507  0 00011 0 01525         PZE     LCKD,,9       ..
      01510                          TYPE    (6, TIME ACCOUNTING FILE IS LOCKED)

      01512                   ERRXIT CALL    CLOSE(=HALL,=-0,*+1) CLOSE ALL FILES
      01516                          CALL    RESETF(*+1)   RESET ANY THAT GOT AWAY
      01520  0074 00 4 01452         TSX     BCLEAR,4      CLEAR OUT BUFFERS
      01521  0535 00 1 01626         LAC     USR,1         GET USER NO AGAIN
      01522                          CALL    LGNRPT(10)    REPORT ERROR IN FILES
      01524  0020 00 0 01543         TRA     LOGER2        AND EXIT QUIETLY

      01525  606331442560     LCKD   BCI     3, TIME ACCOUNTING FILE
      01530  314325605757            VFD     H18/ILE,O18/605757,36/0,O36/605757575757,36/0
      01534  603162604346            BCI     2, IS LOCKED.


      01536  0500 00 0 77417  NOUSR  CLA     WPROBN        HERE IF USER NOT IN M.F.D.
      01537  0560 00 0 77424         LDQ     WUFDNM        ..
      01540 -0603 00 0 02124         DST     NMFD          INSERT UFD NAME INTO COMMENT
      01541                          TYPE    (5, T0000  0000 NOT IN M.F.D.),NMFD

      01543                   LOGER2 XEC.A   STZ(PROBN,1)  RESET USER PROBLEM NUMBER

      01545                   LOGER1 TYPE    (4, LOGIN COMMAND INCORRECT)

      01547 -3 77776 1 01566  DIE2   TXL     LOGERR,1,-2   SKIP IF NOT FIB
      01550 -0500 00 0 02174         CAL     =H     2      MAKE FIB DELETE THIS JOB
      01551  0602 00 0 01735  FIXFIB SLW     FIBMON+1      ..
      01552  0074 00 4 01472         TSX     CKFIB,4       IF FIBMON CANNOT LOGIN,
      01553  0020 00 0 01555         TRA     *+2           ..
      01554  0020 00 0 01566         TRA     LOGERR        .. GIVE UP
      01555                          CALL    SETCLS((LGNFIB,,0)) ELSE CHEAT A LITTLE
      01557  0074 00 4 01452         TSX     BCLEAR,4      DON'T LEAVE ANY AROUND
      01560                          STZBIT  USROPT,1,NINTBT RESET NO-INTERRUPT BIT,
      01565  0020 00 0 00056         TRA     LOGIN         AND START OVER

      01566                   LOGERR CALL    RESETF(*+1)   RESET ANY THAT GOT AWAY
      01570  0074 00 4 01452         TSX     BCLEAR,4      CLEAN UP
      01571                          STZBIT  USROPT,1,NINTBT IN CASE CTSS FORGETS.
      01576                          XEC.A   ZET(PROBN,1)  IS ANY USER LOGGED IN
      01600  0020 00 0 01605         TRA     DIE           YES, EXIT
      01601                          CALL    ATTACH(=0,=1,*+1) NO, DETACH USER
      01605  3 77775 1 01607  DIE    TXH     DIE1,1,-3     SKIP IF FIB OR DAEMON
      01606  0074 00 4 00045         TSX     DEAD,4        GO DEAD FOR NORMAL USER
1      M1416 3845  PETER R. BOS  4/14/68 ..... LOGIN COMMAND FOR CTSS .......    12/03/70 1722.5 PAGE 18
                           ERROR PROCEDURE

      01607                   DIE1   SCHEDL  =2,USR,=0     FIB OR DAEMON, SCHEDULE SELF DEAD

      01613                   NOLOG  TYPE    (2, NO LOGIN)
      01615                          XEC.A   STZ(PROBN,1)  TSK
      01617  0020 00 0 01547         TRA     DIE2          GO CHECK UP ON FIB

      01620  0074 00 4 01452  HNGU   TSX     BCLEAR,4      WIPE OUT BUFFERS
      01621                          TYPE    (5, SYSTEM FULL, TRY AGAIN LATER)
      01623                          CALL    LGNRPT(1)     REPORT SYSTEM FULL
      01625  0074 00 4 00047         TSX     HNGUSR,4      GO HANG UP USER CONSOLE

1      M1416 3845  PETER R. BOS  4/14/68 ..... LOGIN COMMAND FOR CTSS .......    12/03/70 1722.5 PAGE 19
                           STORAGE AND CONSTANTS


                      000001  NOFUND BOOL    1             NON-ZERO IF USER OUT OF FUNDS
                      000002  CUTDAT BOOL    2             NON-ZERO IF USER REACHED TERMINATION DATE

      01626  0 00000 0 00000  USR    PZE                   USER NUMBER
      01627  0 00000 0 00000  USRS   PZE                   NUMBER OF USERS AFTER LOGIN
      01630  0 00000 0 00000  GRP    PZE                   USER PARTY GROUP
      01631  0 00000 0 00000  RCOD   PZE                   USER RESTRICTION CODE
      01632  0 00000 0 00000  FLGS   PZE                   USER ACCOUNTING FLAGS
      01633  0 00000 0 00000  UNT    PZE                   USER UNIT GROUP
      01634  0 00000 0 00000  SBIND  PZE                   NON-ZERO IF USER MAY BE STANDBY
      01635  0 00000 0 00000  MAXLIN PZE                   MAX. PRIME LINES IN GROUP
      01636  0 00000 0 00000  ACTLIN PZE                   NO. OF USERS IN GROUP
      01637  0 00000 0 00000  NSBY   PZE                   NO. STANDBY USERS IN SYSTEM
      01640  0 00000 0 00000  FILTIM PZE                   FILE SYSTEM DATE/TIME NOW
      01641  0 00000 0 00000  PRTYIN PZE                   SI SAVED FROM PARTY GROUP
      01642  0 00000 0 00000  C56USR PZE                   ZERO IF USER IS SYSTEM MAINTENANCE
      01643  0 00000 0 00000  MSGUSR PZE                   ZERO IF USER IS C0056 SYSMSG
      01644  000070256255     YES    VFD     H30/00YES,O6/55
      01645  0 00000 0 00000  OLDMEM PZE                   PREVIOUS MEMORY BOUND
      01646  0 00000 0 00000  INFO   PZE                   NON-ZERO IF DISK BUFFERS CONTAIN STUFF
      01647  0 00000 0 00000  PASSW  PZE                   USER TYPED PASSWORD
      01650  0 00000 0 00000  TMP.   PZE                   TEMPORARY
      01651  0 00000 0 00000  LNAME  PZE                   LEFT-ADJUSTED USER NAME FOR UACCNT
      01652  0 00000 0 00000  ANYPRB PZE                   NON-ZERO IF USER LOGGING IN BY NAME ONLY

      01653  606300000000     LGNCM1 BCI     9, T0000  0000 LOGGED IN  00/00/00    0000.0 FROM 000000
      01664  606060646225            BCI     2,   USERS= 00

      01666                   COMD   BSS     20            COMMAND BUFFER
                       01667  SPROB  EQU     COMD+1        ..
                       01670  SNAME  EQU     COMD+2        ..
                       01671  SPROG  EQU     COMD+3        ..
                       01672  STIME  EQU     COMD+4        ..

      01712  606060606060     BLANK  BCI     1,
      01713  604346273145     LGNFIB BCI     4, LOGIN C0056FIBMON 99995
      01717 -377777777777     FENCE. OCT     777777777777
      01720  602646514421     FMTERR BCI     8, FORMAT ERROR IN ACCOUNTING FILE
      01730  000000007020     1MIN   VFD     36/60*60
      01731  000000000074     1SEC   VFD     36/60
      01732  604721626266     PASSWD VFD     O6/60,H48/PASSWORD,O18/575757
      01734  263122444645     FIBMON BCI     2,FIBMON     0
      01736  242125444645     DAEMON BCI     1,DAEMON
      01737 -377777777777            OCT     777777777777

      01740  475163702747     PRTYGP BCI     1,PRTYGP
      01741  275147644531     GRPUNI BCI     1,GRPUNI
      01742  642123234563     UACCNT BCI     1,UACCNT
      01743  633144646224     TIMUSD BCI     1,TIMUSD
      01744  633144212323     TIMACC BCI     1,TIMACC
1      M1416 3845  PETER R. BOS  4/14/68 ..... LOGIN COMMAND FOR CTSS .......    12/03/70 1722.5 PAGE 20
                           STORAGE AND CONSTANTS

      01745  645127254563     URGENT BCI     1,URGENT
      01746  606044213143     MAIL   BCI     1,  MAIL
      01747  606047466263     POST   BCI     1,  POST
      01750  606060224667     BOX    BCI     1,   BOX
      01751  0 00000 0 00000  PROGL  PZE
      01752  606221652524     SAVED. BCI     1, SAVED

      01753  442562622127     MESSAG BCI     1,MESSAG
      01754  606346242170     TODAY  BCI     1, TODAY

      01755                   SYSFIL CTSSID                SYSTEM FILE DIRECTORY

1      M1416 3845  PETER R. BOS  4/14/68 ..... LOGIN COMMAND FOR CTSS .......    12/03/70 1722.5 PAGE 21
                           COMMON STORAGE


                                     INSERT  TEMPB         COMMON PACKAGE FOR LOGIN/LOGOUT

                                             .... COMMON PACKAGE FOR LOGIN/LOGOUT .....

                       77426         KOMMON  27            CARD IMAGE BUFFER
                       77426  CARD   KOMMON  1             ..

                                             CARD ENTRIES FOR UACCNT TIMACC

                       77426  UNAM   SYN     CARD          USER NAME
                       77427  UPROGN SYN     CARD+1        USER PROGRAMMER NO.
                       77430  UPRTGP SYN     CARD+2        USER PARTY GROUP
                       77431  USTNBY SYN     CARD+3        IF NON-ZERO, USER MAY BE STANDBY
                       77432  UFD    SYN     CARD+4        USER FILE DIRECTORY
                       77433  UNTGP  SYN     CARD+5        USER UNIT GROUP
                       77434  URCOD  SYN     CARD+6        USER RESTRICTION CODE
                       77435  UFLAGS SYN     CARD+7        INDICATORS
                       77436  UPASSW SYN     CARD+8        USER PASSWORD
                       77444  UDRUM  SYN     CARD+14       USER DRUM ALLOTMENT
                       77445  UDISK  SYN     CARD+15       USER DISK ALLOTMENT
                       77446  UTAPE  SYN     CARD+16       USER TAPE ALLOTMENT
                       77447  UTA1   SYN     CARD+17       SHIFT 1 TIME ALLOTTED
                       77450  UTA2   SYN     CARD+18       SHIFT 2 TIME ALLOTTED
                       77451  UTA3   SYN     CARD+19       SHIFT 3 TIME ALLOTTED
                       77452  UTA4   SYN     CARD+20       SHIFT 4 TIME ALLOTTED
                       77453  UTA5   SYN     CARD+21       SHIFT 5 TIME ALLOTTED (FIB)

                       77426  USTAR  SYN     CARD          PROBLEM MASTER CARD
                       77427  UPROBN SYN     CARD+1        PROBLEM NUMBER


                                             CARD ENTRIES FOR TIMUSD TIMACC

                       77426  TPROBN SYN     CARD          USER PROBLEM NUMBER
                       77427  TPROGN SYN     CARD+1        USER PROGRAMMER NO.
                       77430  TNAME  SYN     CARD+2        USER NAME
                       77444  TLAST  SYN     CARD+14       DATE/TIME LAST LOGOUT
                       77446  TUNIT  SYN     CARD+16       UNITID LAST LOGOUT
                       77450  TTU1   SYN     CARD+18       SHIFT 1 TIME USED
                       77451  TTU2   SYN     CARD+19       SHIFT 2 TIME USED
                       77452  TTU3   SYN     CARD+20       SHIFT 3 TIME USED
                       77453  TTU4   SYN     CARD+21       SHIFT 4 TIME USED
                       77454  TTU5   SYN     CARD+22       SHIFT 5 TIME USED (FIB)
                       77455  TCON   SYN     CARD+23       CONSOLE TIME USED


                       77417         KOMMON  6             VECTOR FOR 'WHOAMI'
                       77417  WHO    KOMMON  1             ..

                       77417  WPROBN SYN     WHO           USER PROBLEM NO.
                       77420  WPROGN SYN     WHO+1         USER PROGRAMMER NO.
                       77421  WSYSNM SYN     WHO+2         SYSTEM NAME
1      M1416 3845  PETER R. BOS  4/14/68 ..... LOGIN COMMAND FOR CTSS .......    12/03/70 1722.5 PAGE 22
                           COMMON STORAGE

                       77422  WUNIT  SYN     WHO+3         CONSOLE UNITID
                       77423  WLOGNM SYN     WHO+4         NAME OF LOGIN COMMAND
                       77424  WUFDNM SYN     WHO+5         USER HOME FILE DIRECTORY
                       77425  WNAME  SYN     WHO+6         USER NAME


                       77412         KOMMON  4             TIME ALLOTTED/USED
                       77412  TU     KOMMON  1             ..
                       77405         KOMMON  4             ..
                       77405  TA     KOMMON  1             ..


                       77367         KOMMON  13
                       77367  RCARD  KOMMON  1             REPORT CARD (REPORT TIMACC)

                       77367  RPROB  SYN     RCARD         REPORTED PROBLEM NUMBER
                       77370  RPROG  SYN     RCARD+1       REPORTED PROGRAMMER NUMBER
                       77371  RUNIT  SYN     RCARD+2       REPORTED UNIT ID
                       77372  RDATE  SYN     RCARD+3       REPORTED DATE
                       77373  RTIME  SYN     RCARD+4       REPORTED TIME
                       77374  RFLAGS SYN     RCARD+5       REPORTED FLAGS
                       77375  RTU1   SYN     RCARD+6       REPORTED TIME USED - SHIFT 1
                       77376  RTU2   SYN     RCARD+7       REPORTED TIME USED - SHIFT 2
                       77377  RTU3   SYN     RCARD+8       REPORTED TIME USED - SHIFT 3
                       77400  RTU4   SYN     RCARD+9       REPORTED TIME USED - SHIFT 4
                       77401  RTU5   SYN     RCARD+10      REPORTED TIME USED - SHIFT 5
                       77402  RCON   SYN     RCARD+11      REPORTED CONSOLE TIME USED
                       77403  RNAME  SYN     RCARD+12      REPORTED USER'S NAME


      01757                          RMT     *             REMOTE SEQUENCES
      01757  606300000000     NFND   BCI     6, T0000  NAME NOT FOUND IN DIRECTORY                            .001
      01765  604546606331     ..248  BCI     6, NO TIME ALLOTTED FOR THIS SHIFT                               .001
      01773  607046645160     ..250  BCI     5, YOUR ACCOUNT IS OUT OF FUNDS                                  .001
      02000  607046645160     ..252  BCI     8, YOUR ACCOUNT HAS REACHED ITS TERMINATION DATE                 .001
      02010  606462255160     ..254  BCI     5, USER MAY NOT USE THIS CONSOLE                                 .001
      02015  606445316360     NOUNI  BCI     5, UNIT GROUP 000000 NOT FOUND                                   .001
      02022  603126607046     ..257  BCI     8, IF YOU LOG IN, YOUR FIB JOB WILL BE DELETED                   .001
      02032  602446607046     ..259  BCI     4, DO YOU WISH TO LOG IN,                                        .001
      02036  606300000000     ALRDY  BCI     7, T0000  0000 ALREADY LOGGED IN FROM 000000                     .001
      02045  604721516370     BADGRP BCI     6, PARTY GRP NUMBER 000000 IS WRONG                              .001
      02053  606263214524     ..263  BCI     6, STANDBY LINE HAS BEEN ASSIGNED                                .001
      02061  604321626360     LSTLGT BCI     8, LAST LOGOUT WAS  00/00/00    0000.0 FROM                      .001
      02071  603046442560     HOME   BCI     6, HOME FILE DIRECTORY IS                                        .001
      02077  602363626260     CTSSIS BCI     5, CTSS BEING USED IS                                            .001
      02104  607046646030     UHAVE  BCI     4, YOU HAVE                                                      .001
      02110  602431624260     ..269  BCI     6, DISK ERROR IN ACCOUNTING FILES                                .001
      02116  606331442560     ..271  BCI     6, TIME ACCOUNTING FILE IS LOCKED                                .001
      02124  606300000000     NMFD   BCI     5, T0000  0000 NOT IN M.F.D.                                     .001
      02131  604346273145     ..274  BCI     4, LOGIN COMMAND INCORRECT                                       .001
      02135  604546604346     ..276  BCI     2, NO LOGIN                                                      .001
      02137  606270626325     ..278  BCI     5, SYSTEM FULL, TRY AGAIN LATER                                  .001
                                     END
1      M1416 3845  PETER R. BOS  4/14/68 ..... LOGIN COMMAND FOR CTSS .......    12/03/70 1722.5 PAGE 23
                           COMMON STORAGE

        LITERALS
      02144  000000000000
      02145  000000000001
      02146  000000000002
      02147  000000000005
      02150  000000000007
      02151  000000000010
      02152  000000000043
      02153  000000000060
      02154  000000000660
      02155  000000303237
      02156  000057575760
      02157  000061000061
      02160  171717171717
      02161  214343606060
      02162  222123422751
      02163  242125444645
      02164  400000000000
      02165  516060606060
      02166  546060606060
      02167  575757575757
      02170  600000000000
      02171  602300000506
      02172  606051621360
      02173  606060606001
      02174  606060606002
      02175  626060575757
      02176  627062446227
      02177  742631223460
1      M1416 3845  PETER R. BOS  4/14/68 ..... LOGIN COMMAND FOR CTSS .......    12/03/70 1722.5 PAGE 1
                        POST PROCESSOR ASSEMBLY DATA

       77366 IS THE LAST LOCATION NOT USED BY THIS PROGRAM
       2200 IS THE FIRST LOCATION NOT USED BY THIS PROGRAM

0REFERENCES TO DEFINED SYMBOLS
      72127      C    56
         50      N  1034
      77405     TA   407,  414, 1022, 1757
      77412     TU   770,  774, 1025, 1757
       1750    BOX  1326
       1431    CHN  1302, 1413
       1605    DIE  1600
       1630    GRP   346,  672,  676, 1132, 1133, 1145, 1150
      77432    UFD   352, 1757
       1633    UNT   376,  444,  475,  537
       1626    USR    63, 1046, 1521, 1611
      77417    WHO    60, 1757
       1644    YES   610
       1730   1MIN   146,  406
       1731   1SEC   767
      77426   CARD   247,  463,  471,  474,  503,  510,  517,  751, 1465, 1757
       1450   CHX4  1433, 1443, 1445
        267   CKNM   254
       1467   CLX4  1452, 1454, 1461
       1666   COMD    66, 1473, 1712
       1306   DAEM  1276
         45   DEAD  1606
       1607   DIE1  1311, 1605
       1547   DIE2  1617
        527   FCON   521
       1632   FLGS   370,  423
          0   GETA    61,  130,  133,  147,  214,  216,  220,  222,  224,  226,  230,  232,  412,  572,  575,  601,  604
                     624,  627,  633,  636,  647,  705,  715,  720,  722, 1030, 1032, 1037, 1042, 1050, 1136, 1146, 1151
                    1153, 1156, 1162, 1165, 1167, 1174, 1201, 1203, 1205, 1210, 1224, 1271, 1274, 1402, 1405, 1410, 1422
                    1543, 1560, 1563, 1571, 1574, 1576, 1615
       1620   HNGU   726,  732
       2071   HOME  1366, 1375, 1377, 2077
       1646   INFO   211, 1453
         25   ISIN   554
        620   KFIB   612
       1525   LCKD  1504, 1505, 1507
       1504   LOCK   157
       1746   MAIL  1320, 1325
       1400   MESG  1365
       1757   NFND   332,  334, 1765
        332   NFUA   325
       2124   NMFD  1540, 1542, 2131
       1637   NSBY   717,  725, 1134
       1310   NXCM  1305
        234   OPN2   200,  204
        446   OPN3   201,  205
        736   OPN4   202,  206
       1747   POST  1323
       1631   RCOD   351, 1172, 1176, 1407
      77402   RCON   167, 1757
1      M1416 3845  PETER R. BOS  4/14/68 ..... LOGIN COMMAND FOR CTSS .......    12/03/70 1722.5 PAGE 2
                        POST PROCESSOR ASSEMBLY DATA

        244   RDUA   257,  264,  266,  276,  304,  311
      77375   RTU1  1757
      77376   RTU2  1757
      77377   RTU3  1757
      77400   RTU4  1757
      77401   RTU5  1757
        403   TALP   410
      77137   TAU1   217, 1031, 1033
      77066   TAU2   221
      77015   TAU3   223
      76744   TAU4   225
      76673   TAU5   227
      77455   TCON  1757
       1650   TMP.   251,  365,  367,  465,  505,  600,  606,  753, 1371, 1373, 1442, 1444
      77450   TTU1   765, 1757
      77451   TTU2  1757
      77452   TTU3  1757
      77453   TTU4  1757
      77454   TTU5  1757
        764   TULP   771
      77426   UNAM   274,  361, 1757
      74502   USER    62
       1627   USRS  1160, 1257
      77447   UTA1   404, 1757
      77450   UTA2  1757
      77451   UTA3  1757
      77452   UTA4  1757
      77453   UTA5  1757
      75065  ADOPT  1206
       2036  ALRDY   646,  651,  653, 2045
          6  BCDEC   344,  374,  403,  470,  473,  764, 1177
         23  BCOCT   347,  366
       1712  BLANK   166
       1433  CHECK  1316, 1321, 1324, 1327
        554  CHKIN   442,  443,  445,  614,  640
       1472  CKFIB   121,  144, 1301, 1552
        423  CKFLG   411,  415
         44  CLOSE  1512
         31  DEFBC   536,  675, 1256
        313  ENDUA   250,  273,  306
       1500  ERROR   156
        615  FIBIN   611
        433  FLG.1   425
        442  FLG.2   434,  442
         33  FTIME  1231
         13  IOERR   243,  252,  316,  455,  466,  506,  551,  745,  754, 1002
      76551  ITIME  1211
          6  ..247   334, 1765
       1765  ..248   417, 1773
          6  ..249   417, 1773
       1773  ..250   427, 2000
          5  ..251   427, 2000
       2000  ..252   436, 2010
         10  ..253   436, 2010
       2010  ..254   532, 2015
1      M1416 3845  PETER R. BOS  4/14/68 ..... LOGIN COMMAND FOR CTSS .......    12/03/70 1722.5 PAGE 3
                        POST PROCESSOR ASSEMBLY DATA

          5  ..255   532, 2015
          5  ..256   542, 2022
       2022  ..257   567, 2032
         10  ..258   567, 2032
       2032  ..259   571, 2036
          4  ..260   571, 2036
          7  ..261   653, 2045
          6  ..262   701, 2053
       2053  ..263  1141, 2061
          6  ..264  1141, 2061
         10  ..265  1361, 2071
          6  ..266  1377, 2077
          5  ..267  1430, 2104
          4  ..268  1447, 2110
       2110  ..269  1502, 2116
          6  ..270  1502, 2116
       2116  ..271  1511, 2124
          6  ..272  1511, 2124
          5  ..273  1542, 2131
       2131  ..274  1546, 2135
          4  ..275  1546, 2135
       2135  ..276  1614, 2137
          2  ..277  1614, 2137
       2137  ..278  1622, 2144
          5  ..279  1622, 2144
         17  LJUST   107
       1651  LNAME   111,  275
         56  LOGIN  1565
        123  LOGN1   112,  120
        130  LOGN2   123,  124
        151  LOGN3   136,  142
        155  LOGN4   152
        212  LOGN5
        442  LOGN6
        657  LOGN7   557
        734  LOGN8   662,  663,  670
       1117  LOGN9  1053
       1142  LOGPR  1131
       1132  LOGSB
         51  MESSG  1414
       1613  NOLOG   432,  441,  617, 1070
         53  NOTIM   620
       2015  NOUNI   540,  542, 2022
       1536  NOUSR  1122
          6  NTCMS  1060, 1076
       1066  NTIME  1060, 1062
        564  NXFND   613,  623
        705  OKGRP   673,  674
        340  OKUSR   322
       1647  PASSW   127,  310, 1470
         34  PRINT   171, 1264, 1506
      76500  PROBN  1040, 1544, 1577, 1616
       1751  PROGL  1315, 1330
      76427  PROGN  1043
         12  PTERR   172, 1016
1      M1416 3845  PETER R. BOS  4/14/68 ..... LOGIN COMMAND FOR CTSS .......    12/03/70 1722.5 PAGE 4
                        POST PROCESSOR ASSEMBLY DATA

      77367  RCARD  1757
      76041  RCODE  1170, 1175
      77372  RDATE  1757
        746  RDTMU   757,  762
        260  RDUA1   272
        460  RDUNI   467,  477
         24  RJUST   360,  363,  371
      77403  RNAME   163, 1757
      77367  RPROB   161,  341, 1757
      77370  RPROG   164,  343, 1757
      77373  RTIME  1757
      77371  RUNIT  1757
       1634  SBIND   401,  731
       1022  SETTM  1035
      74604  SHIFT   413
         30  SLEEP   632
       1670  SNAME    72,  100,  110,  162,  326, 1712
       1667  SPROB    67,   77,  101,  105,  160,  262,  263,  327,  340,  356,  657,  755, 1712
       1671  SPROG   137,  303, 1712
       1672  STIME   145, 1712
      74533  STNBY   716, 1137
        733  SVIND   730
       1424  SYSNM  1420
      77444  TLAST   776, 1334, 1336, 1350, 1757
      77430  TNAME  1757
       1754  TODAY  1416
      77446  TUNIT  1356, 1757
      77445  UDISK  1757
      77444  UDRUM  1757
      76305  UFDNM  1166
       2104  UHAVE  1436, 1440, 1441, 1447, 2110
      76356  UNAME  1163
        326  UNFND   320
      77433  UNTGP   372,  373,  375, 1757
      77434  URCOD   350, 1757
      77426  USTAR   255,  267, 1757
      77446  UTAPE  1757
      76622  UTIME   215
      77425  WNAME   116,  362,  664, 1161, 1757
          4  WRFLX   333,  416,  426,  435,  531,  541,  566,  652,  700, 1064, 1140, 1277, 1332, 1360, 1376, 1427, 1446
                    1501, 1510, 1541, 1545, 1613, 1621
      77422  WUNIT   126,  520, 1223, 1254, 1757
       1636 ACTLIN   711, 1142
       1652 ANYPRB   102,  261,  271,  330
         14 ATTACH   173, 1117, 1601
      72231 AUTHOR  1202
       2045 BADGRP   677,  701, 2053
       1452 BCLEAR   565, 1520, 1557, 1570, 1620
         22 BFCLOS   313,  546,  777
         20 BFOPEN   234,  446,  736
         21 BFREAD   244,  460,  500,  746
       1642 C56USR   661,  666,  734, 1024
          5 CHNCOM  1431
        307 CKPASS   301
         37 CLOCIN   213
1      M1416 3845  PETER R. BOS  4/14/68 ..... LOGIN COMMAND FOR CTSS .......    12/03/70 1722.5 PAGE 5
                        POST PROCESSOR ASSEMBLY DATA

        777 CLOSTM   772
       2077 CTSSIS  1426, 1430, 2104
          2 CUTDAT   433, 1626
       1736 DAEMON  1306
        442 ENDFLG   442
        524 ENDUNI   504
        773 EOFTMU   752
        536 EOFUNI   464
       1512 ERRXIT  1503
      74527 ESTTIM   150
       1717 FENCE.    70,   73,  140, 1307
       1734 FIBMON  1303, 1304, 1551
       1640 FILTIM  1212, 1232
       1551 FIXFIB   643
       1720 FMTERR
         41 FSTATE  1437
          2 GETCLS    65
         15 GETMEM   176, 1003, 1455
         43 GROUPS   674
      76112 GRPNO.  1152
      77210 GRPTBL   706, 1147
       1741 GRPUNI   450,  461,  501,  547
         32 GTDYTM  1207
          7 GTPASS   125
          3 GTPROB   104
         47 HNGUSR  1625
       1112 HUNGUP  1075
       1312 LGDIN1  1270
       1653 LGNCM1  1230, 1233, 1234, 1235, 1243, 1246, 1247, 1253, 1255, 1263, 1265, 1300, 1333
       1713 LGNFIB   114,  117, 1474, 1556
         36 LGNRPT   335,  420,  430,  437,  533,  543,  615,  654,  702, 1066, 1266, 1522, 1623
       1545 LOGER1    71,   75,   76,  106,  122,  141,  337,  422,  553,  656,  704
       1543 LOGER2  1524
       1566 LOGERR  1547, 1554
       1226 LOGGDN  1216
       1153 LOGN10  1123, 1124, 1126
       1223 LOGN11  1215
       1003 LOGN8A   735
        104 LOGN.0    74
        107 LOGN.1   103
         10 LOGOUT   154
       2061 LSTLGT  1344, 1347, 1351, 1355, 1357, 1361, 2071
       1635 MAXLIN   707,  712
       1753 MESSAG  1415
       1643 MSGUSR   667, 1125, 1400
      74571 MXUSRS   723
         35 NEXCOM  1310
        400 NINTBT   132,  574,  603,  626,  635, 1273, 1404, 1562, 1573
          1 NOFUND   424, 1626
          1 NOTIME  1052
       1070 NTMCOM  1061, 1071, 1076
      74532 NUSERS   721, 1154, 1157
      75014 OKPROB  1204
       1645 OLDMEM   177, 1005, 1012, 1457
       1732 PASSWD   323,  324
1      M1416 3845  PETER R. BOS  4/14/68 ..... LOGIN COMMAND FOR CTSS .......    12/03/70 1722.5 PAGE 6
                        POST PROCESSOR ASSEMBLY DATA

         42 PRDIAG  1500
       1740 PRTYGP
       1641 PRTYIN   733, 1127
         27 RDFLXA   577
         43 RESETF  1516, 1566
      77374 RFLAGS  1757
       1000 RSYSBT  1173
       1752 SAVED.  1331
         52 SCHEDL  1044, 1607
         50 SETBRK  1412
         46 SETCLS  1555
         11 SETERR   155, 1014
         16 SETMEM   210, 1013
       1076 SYSDWN  1071
       1755 SYSFIL   174,  175
      74534 SYSMSG  1423
       1421 SYSMS.  1401
         56 TEST00     0,   56
       1744 TIMACC   237,  246,  315,  451,  462,  502,  550,  741,  750, 1001
       1103 TIMOUT  1072
       1743 TIMUSD   740,  747, 1000
      77426 TPROBN   756, 1757
      77427 TPROGN   761, 1757
       1742 UACCNT   236,  245,  314
      75260 UCHARG   231
      75331 UCLOCK   233
       1362 UFDCMT  1335
      77435 UFLAGS   364, 1757
        641 UFNDER   561,  562,  563
        644 UFNDR1   641
        500 UNIFND   476,  523
      75646 UNITID   650, 1225
      77436 UPASSW   307, 1757
      77427 UPROBN   260, 1757
      77427 UPROGN   302,  342,  354, 1757
      77430 UPRTGP   345, 1757
      72232 URCODE  1411
       1745 URGENT  1317, 1322
      75770 USROPT   131,  134,  573,  576,  602,  605,  625,  630,  634,  637, 1272, 1275, 1403, 1406, 1561, 1564, 1572
                    1575
      77431 USTNBY   377, 1757
      75524 USWICH  1051
          1 WHOAMI    57
      77423 WLOGNM  1757
      77417 WPROBN   113,  151,  357,  555,  644, 1036, 1120, 1226, 1372, 1536, 1757
      77420 WPROGN   355,  556,  645,  760, 1041, 1200, 1227, 1312, 1363, 1757
         26 WRFLXA   570
         40 WSCOPE
      77421 WSYSNM  1424, 1757
      77424 WUFDNM   353, 1121, 1164, 1362, 1537, 1757
        546 XITUNI   530,  535

0 NO ERROR IN ABOVE ASSEMBLY.
1      M1416 3845  PETER R. BOS  4/11/68 .... MAIN PROGRAM FOR LOGOUT            12/03/70 1727.0 PAGE 1

                                     PCC     ON
                       00011         ENTRY   0             MAIN PROGRAM
                       00011         ENTRY   TEST00        FOR TEST PURPOSES
                                     LBL     LGTM
                                     PCC     OFF

                                     EXTERN  LOGOUT,GETCOM,GETA,SETCLS,NEXCOM,HNGUSR,WHOAMI


        TRANSFER VECTOR
      00000  434627466463     LOGOUT
      00001  272563234644     GETCOM
      00002  272563216060     GETA
      00003  622563234362     SETCLS
      00004  452567234644     NEXCOM
      00005  304527646251     HNGUSR
      00006  663046214431     WHOAMI

        LINKAGE DIRECTOR
      00007  000000000000
      00010  000000000000

                       00001  TV     EQU     1             PRINT TRANSFER VECTOR

                                     UNLIST


                       00011  TEST00 SYN     *             ENTER HERE ON TEST
      00011  0760 00 0 00016         LMTM                  LOGOUT RUNS IN 7-TAG MODE
      00012                          CALL    WHOAMI((WHO,,7)) GET INFO ON USER FOR LOGOUT
      00014                          CALL    GETCOM(0)     GET COMMAND NAME
      00016  0322 00 0 00043         ERA     =HLOGOUT      CHECK FOR AUTOLOGOUT
      00017  0074 00 4 00000         TSX     LOGOUT,4      AC NON-ZERO FOR AUTOLOGOUT

      00020                          XEC.A   ZET(AUTOND)   IF OPERATOR INITIATED
      00022  0020 00 0 00035         TRA     HNG           AUTOLOG, JUST HANG UP
      00023                          XEC.A   LAC(USER,1)   ELSE, CHECK USER FOR FIB LINE
      00025 -3 77776 1 00035         TXL     HNG,1,-2      FIB IS LINE 1.

      00026 -0500 00 0 77423         CAL     WLOGNM        .. GET LOGIN COMMAND NAME
      00027  0602 00 0 00036         SLW     LGNFIB        GIVE IT TO FIB
      00030                          CALL    SETCLS((LGNFIB,,0)) SET UP COMMAND
      00032 -0500 00 0 00036         CAL     LGNFIB        TO LOG IN THE FIB MONITOR
      00033  0560 00 0 00037         LDQ     LGNFIB+1      ..
      00034  0074 00 4 00004         TSX     NEXCOM,4      ..

      00035  0074 00 4 00005  HNG    TSX     HNGUSR,4      HANG UP USER CONSOLE


      00036  604346273145     LGNFIB BCI     4, LOGIN C0056FIBMON 99995
      00037  602300000506
      00040  263122444645
      00041  601111111105
      00042 -377777777777            OCT     777777777777
1      M1416 3845  PETER R. BOS  4/11/68 .... MAIN PROGRAM FOR LOGOUT            12/03/70 1727.0 PAGE 2


                                     INSERT  TEMPB         COMMON PACKAGE

                                             .... COMMON PACKAGE FOR LOGIN/LOGOUT .....

                       77426         KOMMON  27            CARD IMAGE BUFFER
                       77426  CARD   KOMMON  1             ..

                                             CARD ENTRIES FOR UACCNT TIMACC

                       77426  UNAM   SYN     CARD          USER NAME
                       77427  UPROGN SYN     CARD+1        USER PROGRAMMER NO.
                       77430  UPRTGP SYN     CARD+2        USER PARTY GROUP
                       77431  USTNBY SYN     CARD+3        IF NON-ZERO, USER MAY BE STANDBY
                       77432  UFD    SYN     CARD+4        USER FILE DIRECTORY
                       77433  UNTGP  SYN     CARD+5        USER UNIT GROUP
                       77434  URCOD  SYN     CARD+6        USER RESTRICTION CODE
                       77435  UFLAGS SYN     CARD+7        INDICATORS
                       77436  UPASSW SYN     CARD+8        USER PASSWORD
                       77444  UDRUM  SYN     CARD+14       USER DRUM ALLOTMENT
                       77445  UDISK  SYN     CARD+15       USER DISK ALLOTMENT
                       77446  UTAPE  SYN     CARD+16       USER TAPE ALLOTMENT
                       77447  UTA1   SYN     CARD+17       SHIFT 1 TIME ALLOTTED
                       77450  UTA2   SYN     CARD+18       SHIFT 2 TIME ALLOTTED
                       77451  UTA3   SYN     CARD+19       SHIFT 3 TIME ALLOTTED
                       77452  UTA4   SYN     CARD+20       SHIFT 4 TIME ALLOTTED
                       77453  UTA5   SYN     CARD+21       SHIFT 5 TIME ALLOTTED (FIB)

                       77426  USTAR  SYN     CARD          PROBLEM MASTER CARD
                       77427  UPROBN SYN     CARD+1        PROBLEM NUMBER


                                             CARD ENTRIES FOR TIMUSD TIMACC

                       77426  TPROBN SYN     CARD          USER PROBLEM NUMBER
                       77427  TPROGN SYN     CARD+1        USER PROGRAMMER NO.
                       77430  TNAME  SYN     CARD+2        USER NAME
                       77444  TLAST  SYN     CARD+14       DATE/TIME LAST LOGOUT
                       77446  TUNIT  SYN     CARD+16       UNITID LAST LOGOUT
                       77450  TTU1   SYN     CARD+18       SHIFT 1 TIME USED
                       77451  TTU2   SYN     CARD+19       SHIFT 2 TIME USED
                       77452  TTU3   SYN     CARD+20       SHIFT 3 TIME USED
                       77453  TTU4   SYN     CARD+21       SHIFT 4 TIME USED
                       77454  TTU5   SYN     CARD+22       SHIFT 5 TIME USED (FIB)
                       77455  TCON   SYN     CARD+23       CONSOLE TIME USED


                       77417         KOMMON  6             VECTOR FOR 'WHOAMI'
                       77417  WHO    KOMMON  1             ..

                       77417  WPROBN SYN     WHO           USER PROBLEM NO.
                       77420  WPROGN SYN     WHO+1         USER PROGRAMMER NO.
                       77421  WSYSNM SYN     WHO+2         SYSTEM NAME
                       77422  WUNIT  SYN     WHO+3         CONSOLE UNITID
1      M1416 3845  PETER R. BOS  4/11/68 .... MAIN PROGRAM FOR LOGOUT            12/03/70 1727.0 PAGE 3

                       77423  WLOGNM SYN     WHO+4         NAME OF LOGIN COMMAND
                       77424  WUFDNM SYN     WHO+5         USER HOME FILE DIRECTORY
                       77425  WNAME  SYN     WHO+6         USER NAME


                       77412         KOMMON  4             TIME ALLOTTED/USED
                       77412  TU     KOMMON  1             ..
                       77405         KOMMON  4             ..
                       77405  TA     KOMMON  1             ..


                       77367         KOMMON  13
                       77367  RCARD  KOMMON  1             REPORT CARD (REPORT TIMACC)

                       77367  RPROB  SYN     RCARD         REPORTED PROBLEM NUMBER
                       77370  RPROG  SYN     RCARD+1       REPORTED PROGRAMMER NUMBER
                       77371  RUNIT  SYN     RCARD+2       REPORTED UNIT ID
                       77372  RDATE  SYN     RCARD+3       REPORTED DATE
                       77373  RTIME  SYN     RCARD+4       REPORTED TIME
                       77374  RFLAGS SYN     RCARD+5       REPORTED FLAGS
                       77375  RTU1   SYN     RCARD+6       REPORTED TIME USED - SHIFT 1
                       77376  RTU2   SYN     RCARD+7       REPORTED TIME USED - SHIFT 2
                       77377  RTU3   SYN     RCARD+8       REPORTED TIME USED - SHIFT 3
                       77400  RTU4   SYN     RCARD+9       REPORTED TIME USED - SHIFT 4
                       77401  RTU5   SYN     RCARD+10      REPORTED TIME USED - SHIFT 5
                       77402  RCON   SYN     RCARD+11      REPORTED CONSOLE TIME USED
                       77403  RNAME  SYN     RCARD+12      REPORTED USER'S NAME


                                     END

        LITERALS
      00043  434627466463
1      M1416 3845  PETER R. BOS  4/11/68 .... MAIN PROGRAM FOR LOGOUT            12/03/70 1727.0 PAGE 1
                        POST PROCESSOR ASSEMBLY DATA

       77366 IS THE LAST LOCATION NOT USED BY THIS PROGRAM
         44 IS THE FIRST LOCATION NOT USED BY THIS PROGRAM

0REFERENCES TO DEFINED SYMBOLS
      72127      C    11
      77405     TA    43
      77412     TU    43
          1     TV    11
         35    HNG    22,   25
      77432    UFD    43
      77417    WHO    13,   43
      77426   CARD    43
          2   GETA    20,   23
      77402   RCON    43
      77375   RTU1    43
      77376   RTU2    43
      77377   RTU3    43
      77400   RTU4    43
      77401   RTU5    43
      77455   TCON    43
      77450   TTU1    43
      77451   TTU2    43
      77452   TTU3    43
      77453   TTU4    43
      77454   TTU5    43
      77426   UNAM    43
      74502   USER    24
      77447   UTA1    43
      77450   UTA2    43
      77451   UTA3    43
      77452   UTA4    43
      77453   UTA5    43
      77367  RCARD    43
      77372  RDATE    43
      77403  RNAME    43
      77367  RPROB    43
      77370  RPROG    43
      77373  RTIME    43
      77371  RUNIT    43
      77444  TLAST    43
      77430  TNAME    43
      77446  TUNIT    43
      77445  UDISK    43
      77444  UDRUM    43
      77433  UNTGP    43
      77434  URCOD    43
      77426  USTAR    43
      77446  UTAPE    43
      77425  WNAME    43
      77422  WUNIT    43
      74454 AUTOND    21
          1 GETCOM    14
          5 HNGUSR    35
         36 LGNFIB    27,   31,   32,   33
1      M1416 3845  PETER R. BOS  4/11/68 .... MAIN PROGRAM FOR LOGOUT            12/03/70 1727.0 PAGE 2
                        POST PROCESSOR ASSEMBLY DATA

          0 LOGOUT    17
          4 NEXCOM    34
      77374 RFLAGS    43
          3 SETCLS    30
         11 TEST00     0,   11
      77426 TPROBN    43
      77427 TPROGN    43
      77435 UFLAGS    43
      77436 UPASSW    43
      77427 UPROBN    43
      77427 UPROGN    43
      77430 UPRTGP    43
      77431 USTNBY    43
          6 WHOAMI    12
      77423 WLOGNM    26,   43
      77417 WPROBN    43
      77420 WPROGN    43
      77421 WSYSNM    43
      77424 WUFDNM    43

0 NO ERROR IN ABOVE ASSEMBLY.
1      M1416 3845  PETER R. BOS  4/13/68 ..... LOGOUT COMMAND FOR CTSS ......    12/03/70 1955.2 PAGE 1

                                     PCC     ON
                                     NOLNK
                       00042         ENTRY   LOGOUT
                                     LBL     LOGT
                                     PCC     OFF

                                     EXTERN  ABSTIM,ATTACH,BCDEC,BFCLOS,BFOPEN,BFREAD,BUFFER
                                     EXTERN  BZEL,CLOSE,DEFBC,DTEMLG,FINDSB,FTIME,FWAIT,GETA
                                     EXTERN  GETMEM,GTDYTM,IOERR,LDOPT,LGTRPT,MINS,PRDIAG
                                     EXTERN  PRINT,PTERR,RESETF,RSTERR,SCHEDL,SETERR,SETMEM
                                     EXTERN  UMOUNT,VACUUM,WRFLX,WRWAIT,WSCOPE

                                     UNLIST


      00042  0634 00 4 00605  LOGOUT SXA     LGTX4,4       SAVE LINKAGE
      00043  0634 00 2 00606         SXA     LGTX2,2       ..
      00044  0634 00 1 00607         SXA     LGTX1,1       ..
      00045  0602 00 0 00773         SLW     AUTOSW        NON-ZERO INDICATES AUTO-LOGOUT
      00046                          XEC.A   CAL(USER)     GET USER NUMBER
      00050  0602 00 0 00764         SLW     USR           SAVE
      00051  0737 00 1 00000         PAC     ,1            -(USER) TO XR1
      00052                          STLBIT  USROPT,1,NINTBT SET NO-INTERRUPT BIT

      00057  0074 00 4 00033         TSX     SETERR,4      SET UP ERROR ROUTINE TO IGNORE ERROR
      00060 -0754 00 0 00000         ZAC                   ..
      00061  0621 60 0 00027         STA*    PTERR         AND GIVE DIAGNOSTIC VIA WRFLX
      00062                          CALL    ATTACH(WPROBN,WUFDNM) ATTACH USER TO OWN FILES
      00065                          CALL    UMOUNT(=HALL,(UMTMES,,5)) UNMOUNT ALL TAPES
      00070 -0520 00 0 00773         NZT     AUTOSW        IS THIS AUTO-LOGOUT
      00071  0074 00 4 00012         TSX     DTEMLG,4      NO, GO DELETE TEMPS (THIS AUTHOR ONLY)

      00072 -0520 00 0 00773         NZT     AUTOSW        IS THIS AUTOLOG.Q
      00073  0020 00 0 00111         TRA     LOGT1A        NO, SKIP EXPLANATION.
      00074                          NZTBIT  ,1,,NOTIME    GET NOTIME
      00077  0020 00 0 00111         TRA     LOGT1A        NOT SIGNIFICANT
      00100 -0046 00 0 00000         PIA                   THERE'S A REASON
      00101  0771 00 0 00017         ARS     15            ..
      00102 -0320 00 0 01001         ANA     =O7           ..
      00103  0737 00 4 00000         PAC     ,4            ..
      00104 -3 77771 4 00111         TXL     LOGT1A,4,-NTCMS SKIP UNKNOWN
      00105 -0500 00 4 00643         CAL     NTMCOM,4      KNOWN NOTIME CODE, EXPLAIN TO USER
      00106  0602 00 0 00110         SLW     *+2           ..
      00107  0074 00 4 00037         TSX     WRFLX,4       ..
      00110  0 00000 0 00000         PZE     -,,-          ..

      00111 -0500 00 0 01000  LOGT1A CAL     =1            WAKE UP THE DAEMON
      00112                          XEC.A   SLW(AWAKE+2)  ..
      00114                          XEC.A   ZET(AUTOND)   IS THIS OPERATOR INITIATED AUTO-LOG
      00116  0020 00 0 00127         TRA     LOGT1         YES, SKIP
      00117                          XEC.A   SLW(AWAKE+1)  WAKE UP THE FIBMON
      00121  0756 00 1 00000         PCA     ,1            IS THIS USER SYSTEM OUTPUT LINE
      00122                          XEC.A   SUB(SYSMSG)   .. 'C0056 SYSMSG'
      00124 -0100 00 0 00127         TNZ     LOGT1         .. NO
      00125                          XEC.A   STZ(SYSMSG)   .. YES, RESET LINE NUMBER
1      M1416 3845  PETER R. BOS  4/13/68 ..... LOGOUT COMMAND FOR CTSS ......    12/03/70 1955.2 PAGE 2
                           SET UP LOGOUT MESSAGE AND TIME CARD


      00127                   LOGT1  XEC.A   CAL(UTIME,1)  PICK UP TOTAL TIME USED
      00131  0602 00 0 00772         SLW     TIMU          SAVE
      00132                          XEC.A   CAL(ITIME,1)  GET TIME USER LOGGED IN
      00134  0602 00 0 00770         SLW     TIMEON        SAVE ALSO
      00135  0074 00 4 00020         TSX     GTDYTM,4      GET FILE SYSTEM TIME NOW
      00136  0602 00 0 00767         SLW     FILTIM        AND AGAIN...
      00137  0500 00 0 77417         CLA     WPROBN        GET USER PROBNO
      00140  0560 00 0 77420         LDQ     WPROGN        AND PROGNO
      00141 -0603 00 0 00652         DST     LGTCM1        INSERT INTO LOGOUT COMMENT
      00142 -0603 00 0 77367         DST     RCARD         INSERT INTO REPORT CARD
      00143 -0500 00 0 77425         CAL     WNAME         ALSO SAVE USER'S NAME
      00144  0602 00 0 77403         SLW     RNAME         ..
      00145                          CALL    FTIME(FILTIM,LGTCM1+4,LGTCM1+6) CONVERT TIME NOW
      00151  0560 00 0 00656         LDQ     LGTCM1+4      MMDDYY
      00152 -0763 00 0 00014         LGL     12            ..
      00153  0767 00 0 00006         ALS     6             ..
      00154 -0763 00 0 00014         LGL     12            ..
      00155  0767 00 0 00006         ALS     6             ..
      00156 -0501 00 0 01006         ORA     =H00/00/      MM/DD/
      00157  0602 00 0 00656         SLW     LGTCM1+4      INSERT INTO COMMENT
      00160 -0130 00 0 00000         XCL                   YY0000
      00161 -0501 00 0 01005         ORA     =O57575760    YY
      00162  0602 00 0 00657         SLW     LGTCM1+5      PUT YEAR INTO COMMENT
      00163 -0500 00 0 00660         CAL     LGTCM1+6      GET TIME OF LOGOUT
      00164 -0765 00 0 00036         LGR     30            REPLACE POSSIBLE LEADING 0 BY BLANK
      00165 -0100 00 0 00170         TNZ     *+3           ..
      00166 -0500 00 0 01013         CAL     =H 00000      ..
      00167 -0602 00 0 00660         ORS     LGTCM1+6      ..
      00170 -0500 00 0 77422         CAL     WUNIT         GET UNITID OF THIS LOGOUT
      00171  0602 00 0 77371         SLW     RUNIT         SAVE IN REPORT CARD
      00172  0602 00 0 00662         SLW     LGTCM1+8      ADD TO COMMENT
      00173                          XEC.A   CAL(NUSERS)   CONVERT NUMBER OF USERS LEFT
      00175  0402 00 0 01000         SUB     =1            ..
      00176  0601 00 0 00776         STO     TMP.          ..
      00177                          CALL    DEFBC(TMP.)   ..
      00201 -0765 00 0 00014         LGR     12            ..
      00202 -0500 00 0 01015         CAL     =H  RS=       .. 'USERS= 00'
      00203 -0765 00 0 00030         LGR     24            ..
      00204 -0600 00 0 00664         STQ     LGTCM1+10     .. PUT IN LINE
      00205                          CALL    MINS(TIMU)    CONVERT TIME USED
      00207  0601 00 0 00776         STO     TMP.          ..
      00210                          CALL    BZEL(TMP.)    BLANKS LEADING
      00212  0601 00 0 00671         STO     LGTCM2+3      AND INSERT IN LOGOUT MESSAGE
      00213                          CALL    WRFLX((LGTCM1,,9)) TYPE LOGOUT MESSAGE TO USER
      00215                          CALL    WRFLX((LGTCM2,,5)) ..

      00217  0074 00 4 00026         TSX     PRINT,4       PRINT LOGOUT COMMENT ON-LINE
      00220  0 00021 0 00652         PZE     LGTCM1,,17    ..
1      M1416 3845  PETER R. BOS  4/13/68 ..... LOGOUT COMMAND FOR CTSS ......    12/03/70 1955.2 PAGE 3
                           FIND USER IN TIMUSD TIMACC


      00221                   LOGT2  CALL    SETERR(ERROR,LOCK) SET UP FILE ERROR PROCEDURE
      00224  0600 00 0 00761         STZ     ERRSW         RESET ERROR INDIC.
      00225 -0500 00 0 00026         CAL     PRINT         SET UP PRDIAG TO PRINT ONLINE
      00226  0621 60 0 00027         STA*    PTERR         ..
      00227  0774 00 4 00442         AXT     PANIC,4       ERROR RETURN LOCATION
      00230  0634 00 4 00636         SXA     ERRTRA,4      ..
      00231  0074 00 4 00017         TSX     GETMEM,4      GET MEMORY BOUND NOW
      00232  0602 00 0 00763         SLW     OLDMEM        SAVE.
      00233  0621 00 0 00251         STA     OPN1+4        GET DISK BUFFER SPACE
      00234  0401 00 0 01004         ADM     =432          ..
      00235  0621 00 0 00252         STA     OPN1+5        ..
      00236  0401 00 0 01004         ADM     =432          ..
      00237  0621 00 0 00260         STA     BUF1+3        ..
      00240  0401 00 0 01004         ADM     =432          ..
      00241  0074 00 4 00034         TSX     SETMEM,4      SET NEW MEMORY BOUND

      00242                          CALL    ATTACH(SYSFIL,SYSFIL+1) ATTACH TO SYSTEM FILES
      00245                   OPN1   CALL    BFOPEN(=HRW,TIMUSD,TIMACC,-,-,=-0,IOERR)
      00255                   BUF1   CALL    BUFFER(TIMUSD,TIMACC,(-,,432))
      00261  0774 00 2 00001         AXT     1,2           INITIAL RELLOC
      00262  0600 00 0 00776         STZ     TMP.          MAKE SURE EOFCT STARTS OUT 0
      00263                   RDTMU  CALL    BFREAD(TIMUSD,TIMACC,(CARD,,28),EOF,TMP.,IOERR)
      00272 -0500 00 0 77426         CAL     TPROBN        GET PROBNO FROM CARD
      00273  0322 00 0 77417         ERA     WPROBN        COMPARE WITH USER'S PROBN
      00274 -0100 00 0 00300         TNZ     TXI           NOT SAME, SKIP TO READ NEXT CARDS
      00275 -0500 00 0 77427         CAL     TPROGN        COMPARE PROGNO
      00276  0322 00 0 77420         ERA     WPROGN        ..
      00277  0100 00 0 00320         TZE     GOTCRD        FOUND USER, SKIP
      00300  1 00034 2 00263  TXI    TXI     RDTMU,2,28    NOT FOUND, INCREMENT RELLOC AND REPEAT

      00301  0774 00 4 00034  EOF    AXT     28,4          HERE ON EOF READING TIMUSD FILE
      00302 -0500 00 0 01016         CAL     =H            BLANK OUT CARD IMAGES
      00303  0602 00 4 77462         SLW     CARD+28,4     ..
      00304  2 00001 4 00303         TIX     *-1,4,1       ..
      00305 -0520 00 0 00776         NZT     TMP.          CHECK FOR BAD WORD COUNT ON FILE
      00306  0020 00 0 00317         TRA     APPEND        FILE OK, SKIP
      00307  0500 00 0 01003         CLA     =28           ELSE, COMPUTE NO. OF WORDS TO ADD
      00310  0402 00 0 00776         SUB     TMP.          (EOFCT)
      00311  0601 00 0 00776         STO     TMP.          ..
      00312                          CALL    WRWAIT(TIMUSD,TIMACC,=0,(CARD,...,TMP.))
      00317  0774 00 2 00000  APPEND AXT     0,2           HERE IF USER NOT IN TIMUSD.
      00320  0754 00 2 00000  GOTCRD PXA     ,2            SAVE RELLOC OF USER IN TIMUSD
      00321  0602 00 0 00766         SLW     RELLOC        ..

1      M1416 3845  PETER R. BOS  4/13/68 ..... LOGOUT COMMAND FOR CTSS ......    12/03/70 1955.2 PAGE 4
                           WRITE USED TIME INTO ACCOUNTING FILE

      00322  0756 00 1 00000  LOGT3  PCA     ,1            -USER NO
      00323  0737 00 3 00000         PAC     ,3            TO X3
      00324 -0500 00 0 77417         CAL     WPROBN        CHECK FOR SPECIAL PROBLEM NO.
      00325  0322 00 0 01014         ERA     =H C0056      PROBLEM C56 HAS TAU'S CLEARED AT LOGIN
      00326  0602 00 0 00762         SLW     C56USR        ZERO=SPECIAL USER
      00327  0774 00 2 00005         AXT     5,2           5 SHIFTS
      00330                   GTMU   XEC.A   CAL(TAU1,3)   GET TAU FROM A-CORE
      00332 -0320 00 0 00755         ANA     MSKTMU        MASK OUT ALLOTMENT
      00333 -0130 00 0 00000         XCL                   ..
      00334 -0754 00 0 00000         ZAC                   ..
      00335  0221 00 0 00756         DVP     1SEC          CONVERT TO SECONDS
      00336 -0600 00 0 00776         STQ     TMP.          SAVE IN ORDER TO CALCULATE DELTA TU
      00337                          CALL    BCDEC((TCON,2)) CONVERT TO BINARY
      00341  0601 00 2 77402         STO     RCON,2        SAVE IN REPORT CARD
      00342  0500 00 0 00776         CLA     TMP.          GET CURRENT USAGE
      00343  0601 00 2 77417         STO     TU+5,2        SAVE
      00344  0520 00 0 00762         ZET     C56USR        C0056'S TIME IS DELTA TIME
      00345  0402 00 2 77402         SUB     RCON,2        SUBTRACT OLD USAGE
      00346  0601 00 2 77402         STO     RCON,2        AND SAVE ON REPORT CARD
      00347  1 00051 3 00350         TXI     *+1,3,N+1     NEXT SHIFT
      00350  2 00001 2 00330         TIX     GTMU,2,1      REPEAT TILL DONE

      00351                          CALL    ABSTIM(TIMEON) CONVERT TIME LOGGED IN
      00353  0601 00 0 00776         STO     TMP.          TO ABSOLUTE
      00354                          CALL    ABSTIM(FILTIM) CONVERT TIME NOW.
      00356  0402 00 0 00776         SUB     TMP.          COMPUTE TIME AT CONSOLE
      00357  0601 00 0 00771         STO     TIMEIN        AND SAVE
      00360                          CALL    DEFBC(TIMEIN) CONVERT FOR REPORT CARD
      00362  0601 00 0 77402         STO     RCON          AND SAVE THE CONSOLE TIME USED

      00363  0774 00 2 00005         AXT     5,2           FIVE SHIFTS
      00364 -0754 00 0 00000  TMLP   ZAC                   CLEAR AC
      00365 -0520 00 0 00762         NZT     C56USR        TEST FOR SPECIAL USER
      00366                          CALL    BCDEC((TTU1+5,2)) YES, CONVERT OLD TAU'S
      00370  0400 00 2 77417         ADD     TU+5,2        ADD IN INCREMENT OR TOTAL
      00371  0601 00 0 00776         STO     TMP.          ..
      00372                          CALL    DEFBC(TMP.)   CONVERT BACK TO BCD
      00374  0601 00 2 77455         STO     TTU1+5,2      AND PUT BACK INTO CARD FOR TIMUSD
      00375                          CALL    DEFBC((RCON,2)) CONVERT DELTA TIME USED
      00377  0601 00 2 77402         STO     RCON,2        AND SAVE IN REPORT CARD
      00400  2 00001 2 00364         TIX     TMLP,2,1      DO FOR ALL SHIFTS

      00401 -0500 00 0 77417         CAL     WPROBN        SET UP PROBN, PROG, AND NAME
      00402  0602 00 0 77426         SLW     TPROBN        ..
      00403 -0500 00 0 77420         CAL     WPROGN        ..
      00404  0602 00 0 77427         SLW     TPROGN        ..
      00405 -0500 00 0 77425         CAL     WNAME         ..
      00406  0602 00 0 77430         SLW     TNAME         ..
      00407  0322 00 0 01010         ERA     =HFIBMON      CONSOLE TIME OF FIBMON IS STATISTIC
      00410  0100 00 0 00412         TZE     *+2           ..
      00411  3 77776 1 00421         TXH     SKPCON,1,-2   SKIP NEXT IF FIB.

      00412                          CALL    BCDEC(TCON)   GET CONSOLE TIME USED BEFORE
      00414  0400 00 0 00771         ADD     TIMEIN        ADD TIME USED THIS SESSION
      00415  0601 00 0 00776         STO     TMP.          ..
1      M1416 3845  PETER R. BOS  4/13/68 ..... LOGOUT COMMAND FOR CTSS ......    12/03/70 1955.2 PAGE 5
                           WRITE USED TIME INTO ACCOUNTING FILE

      00416                          CALL    DEFBC(TMP.)   ..
      00420  0601 00 0 77455         STO     TCON          AND PUT BACK ON CARD

      00421 -0500 00 0 77422  SKPCON CAL     WUNIT         GET UNITID NOW
      00422  0602 00 0 77446         SLW     TUNIT         SAVE FOR LOGIN MESSAGE NEXT TIME
      00423                          CALL    FTIME(FILTIM,TLAST,TLAST+1) UPDATE LAST LOGOUT

      00427                   WTMU   CALL    WRWAIT(TIMUSD,TIMACC,RELLOC,(CARD,,28))
      00434                          CALL    BFCLOS(TIMUSD,TIMACC,IOERR)

      00440                          CALL    LGTRPT(0)     WRITE LOGOUT STATISTIC

      00442  0074 00 4 00017  PANIC  TSX     GETMEM,4      GET MEMORY BOUND NOW
      00443  0621 00 0 00446         STA     *+3           ..
      00444  0402 00 0 00763         SUB     OLDMEM        LESS OLD MEMBND
      00445  0734 00 4 00000         PAX     ,4            BUFFER SIZE
      00446  0600 00 4 00000         STZ     -,4           ZEROED BUFFERS TELL NO TALES .....
      00447  2 00001 4 00446         TIX     *-1,4,1       ..
      00450 -0500 00 0 00763         CAL     OLDMEM        RESET USER MEMORY SIZE
      00451  0074 00 4 00034         TSX     SETMEM,4      ..
      00452  0774 00 4 00034         AXT     28,4          THAT TOO ..
      00453  0600 00 4 77462         STZ     CARD+28,4     ..
      00454  2 00001 4 00453         TIX     *-1,4,1       ..
      00455                          CALL    CLOSE(=HALL,=-0,*+1)
      00461                          CALL    RESETF(*+1)   IN CASE WE MISSED ANY
      00463                          CALL    ATTACH(=0,=1,*+1) DETACH USER
      00467  0074 00 4 00031         TSX     RSTERR,4      AND RESTORE ERROR SETTINGS.

1      M1416 3845  PETER R. BOS  4/13/68 ..... LOGOUT COMMAND FOR CTSS ......    12/03/70 1955.2 PAGE 6
                           UPGRADE STANDBY USERS, AND LOG OUT USER


      00470  0535 00 1 00764  LOGT4  LAC     USR,1         RELOAD USER NUMBER
      00471                          XEC.A   CLA(GRPNO.,1) GET USER PARTY GROUP
      00473  0601 00 0 00765         STO     GRP           ..
      00474  3 77775 1 00536         TXH     UNPTCH,1,-3   FIB AND DAEMON HAVE NO GROUP
      00475 -3 00000 1 00536         TXL     UNPTCH,1,0    NOT BACKGROUND EITHER
      00476  0737 00 2 00000         PAC     ,2            GROUP NO. TO X2
      00477                          XEC.A   CAL(GRPTBL,2) GET PARTY GROUP WORD
      00501  0621 00 0 00774         STA     MAXLIN        MAX NO USERS PRIMARY IN GROUP
      00502  0771 00 0 00022         ARS     18            ..
      00503  0621 00 0 00775         STA     ACTLIN        TOTAL NO USERS LOGGED IN ON THIS GROUP
      00504  0402 00 0 01000         SUB     =1            DECREASE BY THIS USER
      00505  0120 00 0 00507         TPL     *+2           NOT NEGATIVE, PLEASE
      00506 -0754 00 0 00000         ZAC                   ..
      00507  0767 00 0 00022         ALS     18            BACK TO DECREMENT
      00510                          XEC.A   STD(GRPTBL,2) AND REPLACE IN A-CORE
      00512  0500 00 0 00765         CLA     GRP           GET USER GROUP
      00513 -0120 00 0 00527         TMI     LOGSBY        IF NEGATIVE, USER IS STANDBY
      00514  0500 00 0 00775         CLA     ACTLIN        SEE IF STANDBY TO UPGRADE
      00515  0402 00 0 00774         SUB     MAXLIN        ..
      00516 -0120 00 0 00536         TMI     UNPTCH        N .L. MAX, NO STANDBY
      00517                          CALL    FINDSB(GRP)   FIND STANDBY USER
      00521  0100 00 0 00536         TZE     UNPTCH        FUNNY, SHOULD HAVE ONE...
      00522  0737 00 2 00000         PAC     ,2            USER LINE TO X2
      00523                          XEC.A   CLA(GRPNO.,2) GET HIS GROUP,
      00525                          XEC.A   SLW(GRPNO.,2) AND MAKE HIM PRIME
      00527                   LOGSBY XEC.A   CLA(STNBY)    UPDATE STANDBY COUNT
      00531  0402 00 0 01000         SUB     =1            ..
      00532  0120 00 0 00534         TPL     *+2           DON'T LET COUNT GET NEGATIVE
      00533 -0754 00 0 00000         ZAC                   ..
      00534                          XEC.A   STO(STNBY)    ..

      00536                   UNPTCH XEC.A   STZ(PB,1)     RESET USER PERCENTAGE
      00540                          XEC.A   STZ(GRPNO.,1) CLEAR USER PARTY GROUP
      00542                          XEC.A   STZ(UTIME,1)  TIME USED
      00544                          XEC.A   STZ(OKPROB,1) FORBID I/C COMMUNICATION
      00546                          XEC.A   STZ(SUBNAM,1) RESET SUBSYSTEM STATUS
      00550                          XEC.A   STZ(SUBSWS,1) ..
      00552                          XEC.A   LDI(RCODE,1)  RESET RESTRICTION CODE
      00554  0057 00  777777         RIR     /             ..
      00555                          XEC.A   STI(RCODE,1)  ..
      00557  0074 00 4 00022         TSX     LDOPT,4       RESET USER OPTIONS
      00560  0 00000 0 00000         PZE     0             ..
      00561  0074 00 4 00036         TSX     VACUUM,4      PICK UP ADOPTEES
      00562 -0500 00 0 77422         CAL     WUNIT         CHECK FOR USER ON ARDS SCOPE
      00563  0771 00 0 00036         ARS     30            ARDS HAS UNITID '9'
      00564  0322 00 0 01002         ERA     =9            ..
      00565 -0100 00 0 00570         TNZ     *+3           NOT ARDS USER, SKIP.
      00566  0074 00 4 00041         TSX     WSCOPE,4      ELSE, SIGN HIM OFF SCOPE.
      00567  3 00000 0 00000         PTH     0,0,0         ..
      00570                          SCHEDL  =9,USR,=0     TELL SCHEDL USER LOGGING OUT
      00574                          XEC.A   STZ(PROBN,1)  REMOVE USER PROBNO FROM ACORE
      00576                          XEC.A   CLA(NUSERS)   DECREASE NO. OF USERS
      00600  0402 00 0 01000         SUB     =1            ..
1      M1416 3845  PETER R. BOS  4/13/68 ..... LOGOUT COMMAND FOR CTSS ......    12/03/70 1955.2 PAGE 7
                           UPGRADE STANDBY USERS, AND LOG OUT USER

      00601  0120 00 0 00603         TPL     *+2           BUT NOT LESS THAN 0
      00602 -0754 00 0 00000         ZAC                   ..
      00603                          XEC.A   STO(NUSERS)   ..

      00605  0774 00 4 00000  LGTX4  AXT     -,4           RESTORE LINKAGE
      00606  0774 00 2 00000  LGTX2  AXT     -,2           ..
      00607  0774 00 1 00000  LGTX1  AXT     -,1           ..
      00610  0020 00 4 00001         TRA     1,4           RETURN TO CALLER.

1      M1416 3845  PETER R. BOS  4/13/68 ..... LOGOUT COMMAND FOR CTSS ......    12/03/70 1955.2 PAGE 8
                           ERROR HANDLING AND TEMPORARY STORAGE


      00611 -0625 00 0 00761  ERROR  STL     ERRSW         HERE ON FILE I/O ERROR
      00612 -0603 00 0 00757         DST     FILNAM        SAVE FILE NAME
      00613  0074 00 4 00025         TSX     PRDIAG,4      PRINT ERROR DIAGNOSTIC ON-LINE
      00614                          CALL    FWAIT(FILNAM,FILNAM+1,*+1) WAIT ON FILE
      00620                          CALL    CLOSE(FILNAM,FILNAM+1,*+1) TRY TO CLOSE IT
      00624                          CALL    LGTRPT(10)    REPORT FAILURE
      00626  0020 00 0 00636         TRA     ERRTRA        AND GO TO ERROR EXIT
      00627 -0625 00 0 00761  LOCK   STL     ERRSW         HERE FOR FILE LOCK
      00630  0601 00 0 00750         STO     LCKD+4        FILE NAME TO COMMENT
      00631 -0600 00 0 00752         STQ     LCKD+6        ..
      00632  0074 00 4 00026         TSX     PRINT,4       PRINT ON-LINE TO OPERATOR
      00633  0 00011 0 00744         PZE     LCKD,,9       ..
      00634                          CALL    LGTRPT(10)    REPORT FAILURE
      00636  0021 00 0 00000  ERRTRA TTR     **            AND GO AWAY.


      00637                   SYSFIL CTSSID                SYSTEM FILE DIRECTORY

      00641  633144646224     TIMUSD BCI     1,TIMUSD
      00642  633144212323     TIMACC BCI     1,TIMACC
      00643  606060606060     BLANK  BCI     1,

                       00643  NTMCOM SYN     *-1           TABLE OF NOTIME ERROR COMMENTS
      00644  0 00005 0 00673         PZE     SYSDWN,,5
      00645  0 00007 0 00700         PZE     TIMOUT,,7
      00646  0 00006 0 00707         PZE     TINACT,,6
      00647  0 00005 0 00715         PZE     FIBOVR,,5
      00650  0 00005 0 00722         PZE     HUNGUP,,5
      00651  0 00010 0 00727         PZE     LOADED,,8
                       00007  NTCMS  EQU     *-NTMCOM

      00652  606300000000     LGTCM1 BCI     9, T0000  0000 LOGGED OUT 00/00/00    0000.0 FROM 000000
      00663  606060646225            BCI     3,   USERS= 00
      00666  606346632143     LGTCM2 BCI     5, TOTAL TIME USED =0000.0 MIN.

      00673  602363626260     SYSDWN BCI     5, CTSS IS BEING BROUGHT DOWN
      00700  602143434663     TIMOUT BCI     7, ALLOTTED TIME EXCEEDED FOR THIS SHIFT
      00707  604421673144     TINACT BCI     6, MAXIMUM INACTIVE TIME EXCEEDED
      00715  602562633144     FIBOVR BCI     5, ESTIMATED JOB TIME EXCEEDED
      00722  607046645160     HUNGUP BCI     5, YOUR DATA PHONE IS HUNG UP
      00727  606270626325     LOADED BCI     8, SYSTEM LOAD EXCESSIVE, STANDBY LINE REVOKED

      00737  602143436063     UMTMES BCI     5, ALL TAPES UNMOUNTED BY LOGOUT
      00744  606331442560     LCKD   BCI     3, TIME ACCOUNTING FILE
      00747  314325605757            VFD     H18/ILE,O18/605757,36/0,O36/605757575757,36/0
      00753  603162604346            BCI     2, IS LOCKED
      00755 +000017777777     MSKTMU OCT     17777777
      00756 +000000000074     1SEC   DEC     60

      00757                   FILNAM BSS     2
      00761  0 00000 0 00000  ERRSW  PZE
      00762  0 00000 0 00000  C56USR PZE
1      M1416 3845  PETER R. BOS  4/13/68 ..... LOGOUT COMMAND FOR CTSS ......    12/03/70 1955.2 PAGE 9
                           ERROR HANDLING AND TEMPORARY STORAGE

      00763  0 00000 0 00000  OLDMEM PZE
      00764  0 00000 0 00000  USR    PZE
      00765  0 00000 0 00000  GRP    PZE
      00766  0 00000 0 00000  RELLOC PZE
      00767  0 00000 0 00000  FILTIM PZE
      00770  0 00000 0 00000  TIMEON PZE
      00771  0 00000 0 00000  TIMEIN PZE
      00772  0 00000 0 00000  TIMU   PZE
      00773  0 00000 0 00000  AUTOSW PZE
      00774  0 00000 0 00000  MAXLIN PZE
      00775  0 00000 0 00000  ACTLIN PZE
      00776  0 00000 0 00000  TMP.   PZE

1      M1416 3845  PETER R. BOS  4/13/68 ..... LOGOUT COMMAND FOR CTSS ......    12/03/70 1955.2 PAGE 10
                           COMMON STORAGE


                                     INSERT  TEMPB         COMMON PACKAGE FOR LOGIN/LOGOUT

                                             .... COMMON PACKAGE FOR LOGIN/LOGOUT .....

                       77426         KOMMON  27            CARD IMAGE BUFFER
                       77426  CARD   KOMMON  1             ..

                                             CARD ENTRIES FOR UACCNT TIMACC

                       77426  UNAM   SYN     CARD          USER NAME
                       77427  UPROGN SYN     CARD+1        USER PROGRAMMER NO.
                       77430  UPRTGP SYN     CARD+2        USER PARTY GROUP
                       77431  USTNBY SYN     CARD+3        IF NON-ZERO, USER MAY BE STANDBY
                       77432  UFD    SYN     CARD+4        USER FILE DIRECTORY
                       77433  UNTGP  SYN     CARD+5        USER UNIT GROUP
                       77434  URCOD  SYN     CARD+6        USER RESTRICTION CODE
                       77435  UFLAGS SYN     CARD+7        INDICATORS
                       77436  UPASSW SYN     CARD+8        USER PASSWORD
                       77444  UDRUM  SYN     CARD+14       USER DRUM ALLOTMENT
                       77445  UDISK  SYN     CARD+15       USER DISK ALLOTMENT
                       77446  UTAPE  SYN     CARD+16       USER TAPE ALLOTMENT
                       77447  UTA1   SYN     CARD+17       SHIFT 1 TIME ALLOTTED
                       77450  UTA2   SYN     CARD+18       SHIFT 2 TIME ALLOTTED
                       77451  UTA3   SYN     CARD+19       SHIFT 3 TIME ALLOTTED
                       77452  UTA4   SYN     CARD+20       SHIFT 4 TIME ALLOTTED
                       77453  UTA5   SYN     CARD+21       SHIFT 5 TIME ALLOTTED (FIB)

                       77426  USTAR  SYN     CARD          PROBLEM MASTER CARD
                       77427  UPROBN SYN     CARD+1        PROBLEM NUMBER


                                             CARD ENTRIES FOR TIMUSD TIMACC

                       77426  TPROBN SYN     CARD          USER PROBLEM NUMBER
                       77427  TPROGN SYN     CARD+1        USER PROGRAMMER NO.
                       77430  TNAME  SYN     CARD+2        USER NAME
                       77444  TLAST  SYN     CARD+14       DATE/TIME LAST LOGOUT
                       77446  TUNIT  SYN     CARD+16       UNITID LAST LOGOUT
                       77450  TTU1   SYN     CARD+18       SHIFT 1 TIME USED
                       77451  TTU2   SYN     CARD+19       SHIFT 2 TIME USED
                       77452  TTU3   SYN     CARD+20       SHIFT 3 TIME USED
                       77453  TTU4   SYN     CARD+21       SHIFT 4 TIME USED
                       77454  TTU5   SYN     CARD+22       SHIFT 5 TIME USED (FIB)
                       77455  TCON   SYN     CARD+23       CONSOLE TIME USED


                       77417         KOMMON  6             VECTOR FOR 'WHOAMI'
                       77417  WHO    KOMMON  1             ..

                       77417  WPROBN SYN     WHO           USER PROBLEM NO.
                       77420  WPROGN SYN     WHO+1         USER PROGRAMMER NO.
                       77421  WSYSNM SYN     WHO+2         SYSTEM NAME
                       77422  WUNIT  SYN     WHO+3         CONSOLE UNITID
1      M1416 3845  PETER R. BOS  4/13/68 ..... LOGOUT COMMAND FOR CTSS ......    12/03/70 1955.2 PAGE 11
                           COMMON STORAGE

                       77423  WLOGNM SYN     WHO+4         NAME OF LOGIN COMMAND
                       77424  WUFDNM SYN     WHO+5         USER HOME FILE DIRECTORY
                       77425  WNAME  SYN     WHO+6         USER NAME


                       77412         KOMMON  4             TIME ALLOTTED/USED
                       77412  TU     KOMMON  1             ..
                       77405         KOMMON  4             ..
                       77405  TA     KOMMON  1             ..


                       77367         KOMMON  13
                       77367  RCARD  KOMMON  1             REPORT CARD (REPORT TIMACC)

                       77367  RPROB  SYN     RCARD         REPORTED PROBLEM NUMBER
                       77370  RPROG  SYN     RCARD+1       REPORTED PROGRAMMER NUMBER
                       77371  RUNIT  SYN     RCARD+2       REPORTED UNIT ID
                       77372  RDATE  SYN     RCARD+3       REPORTED DATE
                       77373  RTIME  SYN     RCARD+4       REPORTED TIME
                       77374  RFLAGS SYN     RCARD+5       REPORTED FLAGS
                       77375  RTU1   SYN     RCARD+6       REPORTED TIME USED - SHIFT 1
                       77376  RTU2   SYN     RCARD+7       REPORTED TIME USED - SHIFT 2
                       77377  RTU3   SYN     RCARD+8       REPORTED TIME USED - SHIFT 3
                       77400  RTU4   SYN     RCARD+9       REPORTED TIME USED - SHIFT 4
                       77401  RTU5   SYN     RCARD+10      REPORTED TIME USED - SHIFT 5
                       77402  RCON   SYN     RCARD+11      REPORTED CONSOLE TIME USED
                       77403  RNAME  SYN     RCARD+12      REPORTED USER'S NAME


      00777                          RMT     *             REMOTE SEQUENCES

                                     END

        LITERALS
      00777  000000000000
      01000  000000000001
      01001  000000000007
      01002  000000000011
      01003  000000000034
      01004  000000000660
      01005  000057575760
      01006  000061000061
      01007  214343606060
      01010  263122444645
      01011  400000000000
      01012  516660606060
      01013  600000000000
      01014  602300000506
      01015  606051621360
      01016  606060606060
1      M1416 3845  PETER R. BOS  4/13/68 ..... LOGOUT COMMAND FOR CTSS ......    12/03/70 1955.2 PAGE 1
                        POST PROCESSOR ASSEMBLY DATA

       77366 IS THE LAST LOCATION NOT USED BY THIS PROGRAM
       1017 IS THE FIRST LOCATION NOT USED BY THIS PROGRAM

0REFERENCES TO DEFINED SYMBOLS
      72127      C    42
         50      N   347
      74672     PB   537
      77405     TA   777
      77412     TU   343,  370,  777
        301    EOF   267
        765    GRP   473,  512,  520
        300    TXI   274
      77432    UFD   777
        764    USR    50,  470,  572
      77417    WHO   777
        756   1SEC   335
        255   BUF1   237
          7   BZEL   210
      77426   CARD   266,  303,  316,  433,  453,  777
         16   GETA    46,   52,   55,   74,  112,  114,  117,  122,  125,  127,  132,  173,  330,  471,  477,  510,  523
                     525,  527,  534,  536,  540,  542,  544,  546,  550,  552,  555,  574,  576,  603
        330   GTMU   350
        744   LCKD   630,  631,  633
        627   LOCK   223
         24   MINS   205
        245   OPN1   233,  235
      77402   RCON   341,  345,  346,  362,  376,  377,  777
      77375   RTU1   777
      77376   RTU2   777
      77377   RTU3   777
      77400   RTU4   777
      77401   RTU5   777
      77137   TAU1   331
      77455   TCON   340,  413,  420,  777
        772   TIMU   131,  206
        364   TMLP   400
        776   TMP.   176,  200,  207,  211,  262,  270,  305,  310,  311,  316,  336,  342,  353,  356,  371,  373,  415
                     417
      77450   TTU1   367,  374,  777
      77451   TTU2   777
      77452   TTU3   777
      77453   TTU4   777
      77454   TTU5   777
      77426   UNAM   777
      74502   USER    47
      77447   UTA1   777
      77450   UTA2   777
      77451   UTA3   777
      77452   UTA4   777
      77453   UTA5   777
        427   WTMU
      75207  AWAKE   113,  120
          2  BCDEC   337,  366,  412
        643  BLANK
1      M1416 3845  PETER R. BOS  4/13/68 ..... LOGOUT COMMAND FOR CTSS ......    12/03/70 1955.2 PAGE 2
                        POST PROCESSOR ASSEMBLY DATA

         10  CLOSE   455,  620
         11  DEFBC   177,  360,  372,  375,  416
        611  ERROR   222
        761  ERRSW   224,  611,  627
         14  FTIME   145,  423
         15  FWAIT   614
         21  IOERR   254,  271,  437
      76551  ITIME   133
         22  LDOPT   557
        607  LGTX1    44
        606  LGTX2    43
        605  LGTX4    42
        127  LOGT1   116,  124
        221  LOGT2
        322  LOGT3
        470  LOGT4
          7  NTCMS   104,  652
        442  PANIC   227
         26  PRINT   217,  225,  632
      76500  PROBN   575
         27  PTERR    61,  226
      77367  RCARD   142,  777
      76041  RCODE   553,  556
      77372  RDATE   777
        263  RDTMU   300
      77403  RNAME   144,  777
      77367  RPROB   777
      77370  RPROG   777
      77373  RTIME   777
      77371  RUNIT   171,  777
      74533  STNBY   530,  535
      77444  TLAST   425,  426,  777
      77430  TNAME   406,  777
      77446  TUNIT   422,  777
      77445  UDISK   777
      77444  UDRUM   777
      77433  UNTGP   777
      77434  URCOD   777
      77426  USTAR   777
      77446  UTAPE   777
      76622  UTIME   130,  543
      77425  WNAME   143,  405,  777
         37  WRFLX   107,  213,  215
      77422  WUNIT   170,  421,  562,  777
          0 ABSTIM   351,  354
        775 ACTLIN   503,  514
        317 APPEND   306
          1 ATTACH    62,  242,  463
      74454 AUTOND   115
        773 AUTOSW    45,   70,   72
          3 BFCLOS   434
          4 BFOPEN   245
          5 BFREAD   263
          6 BUFFER   255
        762 C56USR   326,  344,  365
1      M1416 3845  PETER R. BOS  4/13/68 ..... LOGOUT COMMAND FOR CTSS ......    12/03/70 1955.2 PAGE 3
                        POST PROCESSOR ASSEMBLY DATA

         12 DTEMLG    71
        636 ERRTRA   230,  626
        715 FIBOVR   647
        757 FILNAM   612,  615,  616,  621,  622
        767 FILTIM   136,  146,  355,  424
         13 FINDSB   517
         17 GETMEM   231,  442
        320 GOTCRD   277
      76112 GRPNO.   472,  524,  526,  541
      77210 GRPTBL   500,  511
         20 GTDYTM   135
        722 HUNGUP   650
        652 LGTCM1   141,  147,  150,  151,  157,  162,  163,  167,  172,  204,  214,  220
        666 LGTCM2   212,  216
         23 LGTRPT   440,  624,  634
        727 LOADED   651
         42 LOGOUT     0
        527 LOGSBY   513
        111 LOGT1A    73,   77,  104
        774 MAXLIN   501,  515
        755 MSKTMU   332
        400 NINTBT    54
          1 NOTIME    76
        643 NTMCOM   105,  644,  652
      74532 NUSERS   174,  577,  604
      75014 OKPROB   545
        763 OLDMEM   232,  444,  450
         25 PRDIAG   613
        766 RELLOC   321,  432
         30 RESETF   461
      77374 RFLAGS   777
         31 RSTERR   467
         32 SCHEDL   570
         33 SETERR    57,  221
         34 SETMEM   241,  451
        421 SKPCON   411
      76234 SUBNAM   547
      76163 SUBSWS   551
        673 SYSDWN   644
        637 SYSFIL   243,  244
      74534 SYSMSG   123,  126
        642 TIMACC   250,  257,  265,  314,  431,  436
        771 TIMEIN   357,  361,  414
        770 TIMEON   134,  352
        700 TIMOUT   645
        641 TIMUSD   247,  256,  264,  313,  430,  435
        707 TINACT   646
      77426 TPROBN   272,  402,  777
      77427 TPROGN   275,  404,  777
      77435 UFLAGS   777
         35 UMOUNT    65
        737 UMTMES    67
        536 UNPTCH   474,  475,  516,  521
      77436 UPASSW   777
      77427 UPROBN   777
1      M1416 3845  PETER R. BOS  4/13/68 ..... LOGOUT COMMAND FOR CTSS ......    12/03/70 1955.2 PAGE 4
                        POST PROCESSOR ASSEMBLY DATA

      77427 UPROGN   777
      77430 UPRTGP   777
      75770 USROPT    53,   56
      77431 USTNBY   777
      75524 USWICH    75
         36 VACUUM   561
      77423 WLOGNM   777
      77417 WPROBN    63,  137,  273,  324,  401,  777
      77420 WPROGN   140,  276,  403,  777
         40 WRWAIT   312,  427
         41 WSCOPE   566
      77421 WSYSNM   777
      77424 WUFDNM    64,  777

0 NO ERROR IN ABOVE ASSEMBLY.
1       REPORT - RECORD ATTEMPTED LOGINS AND LOGOUTS - R. ROACH                  12/03/70 1728.5 PAGE 1

                              *
                              * REPORT WILL WRITE INTO A FILE CALLED 'REPORT TIMACC' A RECORD OF
                              * LOGINS, ATTEMPTED LOGINS AND LOGOUTS.  THE FORMAT OF THIS FILE IS
                              *
                              * PROB PROG DATE TIME UNIT FLAGS DT1 DT2 DT3 DT4 DT5 CON NAME
                              *
                              * FLAGS DECRIBE THE ACTION TAKING PLACE, THE FORMAT OF THE FLAGS
                              * IS A SPREAD OCTAL WORD 'CNNFF' AS DEFINED BELOW.
                              *
                              * C - COMMAND FLAG
                              * 0 FOR LOGIN
                              * 1 FOR LOGOUT
                              * 2 FOR OTOLOG
                              * 4 OTHERWISE
                              *
                              * NN - NOTIME FLAGS (ON LOGOUT)
                              * 00 FOR SYSTEM COMEDOWN
                              * 01 FOR EXCEEDED SHIFT ALLOTTMENT
                              * 02 FOR USER INACTIVE TOO LONG
                              * 04 FOR USER HUNG UP
                              * 10 FOR USER EXCEEDED ESTTIM OF FIB
                              * 20 FOR USER LOGGED OUT BY LOAD LEVELER
                              *
                              * FFF - ERROR FLAGS DETECTED BY LOGIN (OR LOGOUT)
                              * 001 FOR SYSTEM FULL
                              * 002 FOR NO TIME ALLOTTED ON PRESENT SHIFT
                              * 003 FOR ALLOTTED TIME EXCEEDED ON PRESENT SHIFT
                              * 004 FOR OUT OF FUNDS
                              * 005 FOR PAST EXPIRATION DATE
                              * 006 FOR ALREAD LOGGED IN
                              * 007 FOR HAS FIB JOB RUNNING
                              * 010 FOR NOT IN UACCNT (INCLUDES INCORRECT PASSWORD)
                              * 011 ILLEGAL UNITID
                              * 012 SYSTEM OR MACHINE ERROR, ERROR IN ACCOUNTING FILES (INCL. LOGOUT)
                              *
                       00040         ENTRY   LGNRPT        LOGIN REPORT
                       00027         ENTRY   LGTRPT        LOGOUT REPORT

                                     EXTERN  GETCOM,GETMEM,SETMEM,GTDYTM,OCRBC,FTIME,ATTNAM
                                     EXTERN  ATTACH,FSTATE,OPEN,BUFFER,TRFILE,WRWAIT,CLOSE
                                     EXTERN  PRINT,PTERR,SETERR,RSTERR,PRDIAG,DERBC

                                     UNLIST  NO LISTING OF EQU, COMMON, MACRO, OR BEQU

1       REPORT - RECORD ATTEMPTED LOGINS AND LOGOUTS - R. ROACH                  12/03/70 1728.5 PAGE 2

      00027  0634 00 4 00236  LGTRPT SXA     XR4,4         SAVE INDEX REGISTER 4
      00030  0600 00 0 77374         STZ     RFLAGS        RESET THE FLAGS
      00031                          CALL    GETCOM(0)     GET THE COMMAND NAME
      00033  0322 00 0 77423         ERA     WLOGNM        SEE IF USER LOGGING IN
      00034 -0100 00 0 00046         TNZ     TSTCOM        NO, CAN USE REGULAR CODING
      00035  0560 00 0 00306         LDQ     =H100000      OTHERWISE PRETEND IT'S A LOGOUT
      00036  0600 00 0 77374         STZ     RFLAGS        RESET FLAGS
      00037  0020 00 0 00064         TRA     GOTIT         AND BEGIN PROCESSING

      00040  0634 00 4 00236  LGNRPT SXA     XR4,4         SAVE INDEX REGISTER 4
      00041  0600 00 0 77374         STZ     RFLAGS        RESET FLAGS
      00042  0774 00 4 00006         AXT     6,4           STORE BLANKS IN TIME USED VECOTRS
      00043 -0500 00 0 00315         CAL     =H            ..
      00044  0602 00 4 77403         SLW     RCON+1,4      ..
      00045  2 00001 4 00044         TIX     *-1,4,1       ..
      00046                   TSTCOM CALL    GETCOM(0)     GET COMMAND NAME
      00050  0560 00 0 00277         LDQ     =0            ASSUME 'LOGIN' AT FIRST
      00051 -0340 00 0 77423         LAS     WLOGNM        CHECK WITH LOGIN'S NAME
      00052  0020 00 0 00054         TRA     *+2           SKIP IF NOT A LOGIN
      00053  0020 00 0 00064         TRA     GOTIT         BRANCH IF A LOGIN
      00054  0560 00 0 00307         LDQ     =H200000      ASSUME AN AUTOMATIC LOGOUT
      00055 -0340 00 0 00313         LAS     =HOTOLOG      CHECK FOR 'OTOLOG'
      00056  0560 00 0 00310         LDQ     =H400000      NON-DEFINED IF .GT. 'OTOLOG'
      00057  0020 00 0 00064         TRA     GOTIT         BRANCH IF 'OTOLOG' OR GREATER
      00060  0560 00 0 00306         LDQ     =H100000      MUST BE 'LOGOUT'
      00061  0322 00 0 00312         ERA     =HLOGOUT      CHECK TO MAKE SURE
      00062  0100 00 0 00064         TZE     GOTIT         EXIT IF ASSUMPTION RIGHT
      00063  0560 00 0 00310         LDQ     =H400000      BUT UNDEFINED COMMAND IF NOT

      00064 -0130 00 0 00000  GOTIT  XCL                   MOVE COMMAND FLAG TO AC
      00065 -0602 00 0 77374         ORS     RFLAGS        AND SAVE IN THE FLAGS
      00066                          XEC.A   CAL(USWICH,1) GET THE USWICH VECTOR
      00070 -0320 00 0 00304         ANA     =O700000      NOTIME BITS IN TAG ONLY
      00071  0767 00 0 00003         ALS     3             MOVE INTO POSITION
      00072  0520 00 0 77374         ZET     RFLAGS        AND SAVE IF NOT A LOGIN
      00073 -0602 00 0 77374         ORS     RFLAGS        ..
      00074  0534 00 4 00236         LXA     XR4,4         RESTORE INDEX REGISTER 4
      00075 -0500 00 4 00001         CAL     1,4             TO OBTAIN THE CALLING FLAGS
      00076  0621 00 0 77374         STA     RFLAGS        SAVE IN RFLAGS (BINARY)
      00077 -0320 00 0 00317         ANA     =O777777700000 MAKE SURE THE FLAGS WERE PRESENT
      00100  0322 00 0 00311         ERA     =O300000000000 AS A PAR INSTRUCTION
      00101  0100 00 0 00103         TZE     *+2           SKIP IF THEY WERE THERE
      00102  0634 00 0 77374         ZSA     RFLAGS        BUT RESET RFLAGS 'FFF' IF NOT THERE
      00103 -0500 00 0 77374         CAL     RFLAGS        COMPACT FLAGS INTO MQ FOR LATER CONVERSION
      00104 -0765 00 0 00011         LGR     9             MOVE 'FFF' INTO MQ
      00105  0771 00 0 00011         ARS     9             ..
      00106 -0765 00 0 00006         LGR     6             MOVE 'NN' INTO MQ
      00107  0771 00 0 00006         ARS     6             ..
      00110 -0765 00 0 00025         LGR     21            MOVE 'C' INTO MQ
      00111 -0600 00 0 77374         STQ     RFLAGS        SAVE IN RFLAGS
      00112                          CALL    OCRBC(RFLAGS) CONVERT TO SPREAD OCTAL
      00114  0601 00 0 77374         STO     RFLAGS        AND SAVE BACK IN RFLAGS

      00115  0074 00 4 00003         TSX     GTDYTM,4      GET THE DATE AND TIME
      00116  0602 00 0 77373         SLW     RTIME         SAVE FOR LATER CONVERSION
      00117                          CALL    FTIME(RTIME,RDATE,RTIME) CONVERT TO MMDDYY HHMM.M
1       REPORT - RECORD ATTEMPTED LOGINS AND LOGOUTS - R. ROACH                  12/03/70 1728.5 PAGE 3

      00123 -0500 00 0 77422         CAL     WUNIT         SAVE CURRENT UNIT ID
      00124  0602 00 0 77371         SLW     RUNIT         INTO THE REPORT CARD

      00125                          XEC.A   CAL(MXUSRS)   GET MAX USERS
      00127  0602 00 0 00274         SLW     LNGTH         SAVE IN TEMPORARY LOCATION
      00130  0074 00 4 00023         TSX     DERBC,4       CONVERT TO BCD
      00131  3 00000 0 00274         PAR     LNGTH         ..
      00132  0767 00 0 00022         ALS     18
      00133  0602 00 0 77404         SLW     RCARD+13      SAVE IN THE LAST WORD
      00134                          XEC.A   CAL(NUSERS)   GET THE NO. OF USERS
      00136  0602 00 0 00274         SLW     LNGTH         ..
      00137  0074 00 4 00023         TSX     DERBC,4       ..
      00140  3 00000 0 00274         PAR     LNGTH         ..
      00141 -0320 00 0 00305         ANA     =O777777      STORE IN RIGHT HALF OF LAST WORD
      00142 -0501 00 0 77404         ORA     RCARD+13      ..
      00143 -0501 00 0 00314         ORA     =H 00 00      INSERT LEADING BLANKS
      00144  0602 00 0 77404         SLW     RCARD+13      ..


      00145 -0500 00 0 00016         CAL     PRINT         SETUP ERRORS TO PRINT ONLINE
      00146  0621 60 0 00017         STA*    PTERR         ..
      00147                          CALL    SETERR(IOERR,ILOCK) REFLECT ALL ERRORS TO REPORT
      00152                          CALL    ATTNAM((HOME,,2)) SAVE CURRENT DIRECTORY ATTACHMENT
      00154                          CALL    ATTACH(SYSFIL,SYSFIL+1) ATTACH SYSTEM DIRECTORY

      00157  0074 00 4 00001         TSX     GETMEM,4      GET CURRENT MEMORY BOUND
      00160  0621 00 0 00174         STA     BUFF+3        AND OBTAIN AN I/O BUFFER
      00161  0621 00 0 00273         STA     MEM
      00162  0400 00 0 00303         ADD     =432          ..
      00163  0074 00 4 00002         TSX     SETMEM,4      ..

      00164                          CALL    OPEN(=HW,REPORT,TIMACC,=O120)
      00171                   BUFF   CALL    BUFFER(REPORT,TIMACC(**,,432))
      00175                          CALL    FSTATE(REPORT,TIMACC(LNGTH,,1)) GET LENGTH
      00201  0560 00 0 00274         LDQ     LNGTH         TEST LENGTH FOR MULTIPLE OF CARD IMAGE
      00202 -0754 00 0 00000         ZAC                   ..
      00203  0221 00 0 00301         DVP     =14           ..
      00204  0100 00 0 00215         TZE     LENGOK        BRANCH IF LENGTH OK
      00205  0200 00 0 00301         MPY     =14           BUT TRFILE TO MULTIPLE OF 14 IF NOT
      00206  0131 00 0 00000         XCA                   ..
      00207  0400 00 0 00300         ADD     =1            ..
      00210  0601 00 0 00274         STO     LNGTH         ..
      00211                          CALL    TRFILE(REPORT,TIMACC,LNGTH)
      00215                   LENGOK CALL    WRWAIT(REPORT,TIMACC,=0(RCARD,,14))
      00222                          CALL    CLOSE(REPORT,TIMACC)
      00225  0500 00 0 00273  OUT    CLA     MEM           RESTORE PREVIOUS MEMORY BOUND
      00226  0100 00 0 00230         TZE     *+2           SKIP IF NEVER SET
      00227  0074 00 4 00002         TSX     SETMEM,4      ..
      00230  0600 00 0 00273         STZ     MEM           RESET MEM FLAG
      00231                          CALL    ATTACH(HOME,HOME+1,*) REATTACH TO PROPER DIRECTORY
      00235  0074 00 4 00021         TSX     RSTERR,4      RESET ERROR RETURNS
      00236  0774 00 4 00000  XR4    AXT     **,4          RESTORE INDEX REGISTER 4
      00237  0020 00 4 00001         TRA     1,4           RETURN
1       REPORT - RECORD ATTEMPTED LOGINS AND LOGOUTS - R. ROACH                  12/03/70 1728.5 PAGE 4

      00240  0074 00 4 00022  IOERR  TSX     PRDIAG,4      PRINT DIAGNOSTIC ONLINE
      00241                   EREXIT CALL    SETERR(OUT,OUT)
      00244                          CALL    CLOSE(REPORT,TIMACC,*)
      00250  0020 00 0 00225         TRA     OUT           ..

      00251  0601 00 0 00262  ILOCK  STO     LCKD+4        FILE INTERLOCK RETURN
      00252 -0600 00 0 00264         STQ     LCKD+6        ..
      00253  0074 00 4 00016         TSX     PRINT,4       ..
      00254  0 00011 0 00256         PZE     LCKD,,9       ..
      00255  0020 00 0 00241         TRA     EREXIT        TAKE ERROR EXIT

      00256  606331442560     LCKD   BCI     3, TIME ACCOUNTING FILE
      00257  212323466445
      00260  633145276026
      00261  314325605757            VFD     H18/ILE,O18/605757,36/0,O36/605757575757,36/0
      00262  000000000000
      00263  605757575757
      00264  000000000000
      00265  603162604346            BCI     2, IS LOCKED.
      00266  234225243360

1       REPORT - RECORD ATTEMPTED LOGINS AND LOGOUTS - R. ROACH                  12/03/70 1728.5 PAGE 5
                           STORAGE LOCATIONS AND CONSTANTS

      00267  512547465163     REPORT BCI     1,REPORT
      00270  633144212323     TIMACC BCI     1,TIMACC
      00271                   SYSFIL CTSSID
      00273  0 00000 0 00000  MEM    PZE     0,0,0         MEMORY BOUND
      00274  0 00000 0 00000  LNGTH  PZE     0             LENGTH OF REPORT TIMACC
      00275                   HOME   BSS     2             HOME DIRECTORY
                                     INSERT  TEMPB

                                             .... COMMON PACKAGE FOR LOGIN/LOGOUT .....

                       77426         KOMMON  27            CARD IMAGE BUFFER
                       77426  CARD   KOMMON  1             ..

                                             CARD ENTRIES FOR UACCNT TIMACC

                       77426  UNAM   SYN     CARD          USER NAME
                       77427  UPROGN SYN     CARD+1        USER PROGRAMMER NO.
                       77430  UPRTGP SYN     CARD+2        USER PARTY GROUP
                       77431  USTNBY SYN     CARD+3        IF NON-ZERO, USER MAY BE STANDBY
                       77432  UFD    SYN     CARD+4        USER FILE DIRECTORY
                       77433  UNTGP  SYN     CARD+5        USER UNIT GROUP
                       77434  URCOD  SYN     CARD+6        USER RESTRICTION CODE
                       77435  UFLAGS SYN     CARD+7        INDICATORS
                       77436  UPASSW SYN     CARD+8        USER PASSWORD
                       77444  UDRUM  SYN     CARD+14       USER DRUM ALLOTMENT
                       77445  UDISK  SYN     CARD+15       USER DISK ALLOTMENT
                       77446  UTAPE  SYN     CARD+16       USER TAPE ALLOTMENT
                       77447  UTA1   SYN     CARD+17       SHIFT 1 TIME ALLOTTED
                       77450  UTA2   SYN     CARD+18       SHIFT 2 TIME ALLOTTED
                       77451  UTA3   SYN     CARD+19       SHIFT 3 TIME ALLOTTED
                       77452  UTA4   SYN     CARD+20       SHIFT 4 TIME ALLOTTED
                       77453  UTA5   SYN     CARD+21       SHIFT 5 TIME ALLOTTED (FIB)

                       77426  USTAR  SYN     CARD          PROBLEM MASTER CARD
                       77427  UPROBN SYN     CARD+1        PROBLEM NUMBER


                                             CARD ENTRIES FOR TIMUSD TIMACC

                       77426  TPROBN SYN     CARD          USER PROBLEM NUMBER
                       77427  TPROGN SYN     CARD+1        USER PROGRAMMER NO.
                       77430  TNAME  SYN     CARD+2        USER NAME
                       77444  TLAST  SYN     CARD+14       DATE/TIME LAST LOGOUT
                       77446  TUNIT  SYN     CARD+16       UNITID LAST LOGOUT
                       77450  TTU1   SYN     CARD+18       SHIFT 1 TIME USED
                       77451  TTU2   SYN     CARD+19       SHIFT 2 TIME USED
                       77452  TTU3   SYN     CARD+20       SHIFT 3 TIME USED
                       77453  TTU4   SYN     CARD+21       SHIFT 4 TIME USED
                       77454  TTU5   SYN     CARD+22       SHIFT 5 TIME USED (FIB)
                       77455  TCON   SYN     CARD+23       CONSOLE TIME USED


                       77417         KOMMON  6             VECTOR FOR 'WHOAMI'
                       77417  WHO    KOMMON  1             ..
1       REPORT - RECORD ATTEMPTED LOGINS AND LOGOUTS - R. ROACH                  12/03/70 1728.5 PAGE 6
                           STORAGE LOCATIONS AND CONSTANTS

                       77417  WPROBN SYN     WHO           USER PROBLEM NO.
                       77420  WPROGN SYN     WHO+1         USER PROGRAMMER NO.
                       77421  WSYSNM SYN     WHO+2         SYSTEM NAME
                       77422  WUNIT  SYN     WHO+3         CONSOLE UNITID
                       77423  WLOGNM SYN     WHO+4         NAME OF LOGIN COMMAND
                       77424  WUFDNM SYN     WHO+5         USER HOME FILE DIRECTORY
                       77425  WNAME  SYN     WHO+6         USER NAME


                       77412         KOMMON  4             TIME ALLOTTED/USED
                       77412  TU     KOMMON  1             ..
                       77405         KOMMON  4             ..
                       77405  TA     KOMMON  1             ..


                       77367         KOMMON  13
                       77367  RCARD  KOMMON  1             REPORT CARD (REPORT TIMACC)

                       77367  RPROB  SYN     RCARD         REPORTED PROBLEM NUMBER
                       77370  RPROG  SYN     RCARD+1       REPORTED PROGRAMMER NUMBER
                       77371  RUNIT  SYN     RCARD+2       REPORTED UNIT ID
                       77372  RDATE  SYN     RCARD+3       REPORTED DATE
                       77373  RTIME  SYN     RCARD+4       REPORTED TIME
                       77374  RFLAGS SYN     RCARD+5       REPORTED FLAGS
                       77375  RTU1   SYN     RCARD+6       REPORTED TIME USED - SHIFT 1
                       77376  RTU2   SYN     RCARD+7       REPORTED TIME USED - SHIFT 2
                       77377  RTU3   SYN     RCARD+8       REPORTED TIME USED - SHIFT 3
                       77400  RTU4   SYN     RCARD+9       REPORTED TIME USED - SHIFT 4
                       77401  RTU5   SYN     RCARD+10      REPORTED TIME USED - SHIFT 5
                       77402  RCON   SYN     RCARD+11      REPORTED CONSOLE TIME USED
                       77403  RNAME  SYN     RCARD+12      REPORTED USER'S NAME


      00277                          RMT     *
                                     END

        LITERALS
      00277  000000000000
      00300  000000000001
      00301  000000000016
      00302  000000000120
      00303  000000000660
      00304  000000700000
      00305  000000777777
      00306  010000000000
      00307  020000000000
      00310  040000000000
      00311  300000000000
      00312  434627466463
      00313  466346434627
      00314  600000600000
      00315  606060606060
      00316  666060606060
      00317  777777700000
1       REPORT - RECORD ATTEMPTED LOGINS AND LOGOUTS - R. ROACH                  12/03/70 1728.5 PAGE 1
                        POST PROCESSOR ASSEMBLY DATA

       77366 IS THE LAST LOCATION NOT USED BY THIS PROGRAM
        320 IS THE FIRST LOCATION NOT USED BY THIS PROGRAM

0REFERENCES TO DEFINED SYMBOLS
      72127      C    27
      77405     TA   277
      77412     TU   277
        273    MEM   161,  225,  230
        225    OUT   242,  243,  250
      77432    UFD   277
      77417    WHO   277
        236    XR4    27,   40,   74
        171   BUFF   160
      77426   CARD   277
         24   GETA    66,  125,  134
        275   HOME   153,  232,  233
        256   LCKD   251,  252,  254
         11   OPEN   164
      77402   RCON    44,  277
      77375   RTU1   277
      77376   RTU2   277
      77377   RTU3   277
      77400   RTU4   277
      77401   RTU5   277
      77455   TCON   277
      77450   TTU1   277
      77451   TTU2   277
      77452   TTU3   277
      77453   TTU4   277
      77454   TTU5   277
      77426   UNAM   277
      77447   UTA1   277
      77450   UTA2   277
      77451   UTA3   277
      77452   UTA4   277
      77453   UTA5   277
         15  CLOSE   222,  244
         23  DERBC   130,  137
          5  FTIME   117
         64  GOTIT    37,   53,   57,   62
        251  ILOCK   151
        240  IOERR   150
        274  LNGTH   127,  131,  136,  140,  200,  201,  210,  214
          4  OCRBC   112
         16  PRINT   145,  253
         17  PTERR   146
      77367  RCARD   133,  142,  144,  221,  277
      77372  RDATE   121,  277
      77403  RNAME   277
      77367  RPROB   277
      77370  RPROG   277
      77373  RTIME   116,  120,  122,  277
      77371  RUNIT   124,  277
      77444  TLAST   277
1       REPORT - RECORD ATTEMPTED LOGINS AND LOGOUTS - R. ROACH                  12/03/70 1728.5 PAGE 2
                        POST PROCESSOR ASSEMBLY DATA

      77430  TNAME   277
      77446  TUNIT   277
      77445  UDISK   277
      77444  UDRUM   277
      77433  UNTGP   277
      77434  URCOD   277
      77426  USTAR   277
      77446  UTAPE   277
      77425  WNAME   277
      77422  WUNIT   123,  277
          7 ATTACH   154,  231
          6 ATTNAM   152
         12 BUFFER   171
        241 EREXIT   255
         10 FSTATE   175
          0 GETCOM    31,   46
          1 GETMEM   157
          3 GTDYTM   115
        215 LENGOK   204
         40 LGNRPT     0
         27 LGTRPT     0
      74571 MXUSRS   126
      74532 NUSERS   135
         22 PRDIAG   240
        267 REPORT   166,  172,  176,  212,  216,  223,  245
      77374 RFLAGS    30,   36,   41,   65,   72,   73,   76,  102,  103,  111,  113,  114,  277
         21 RSTERR   235
         20 SETERR   147,  241
          2 SETMEM   163,  227
        271 SYSFIL   155,  156
        270 TIMACC   167,  173,  177,  213,  217,  224,  246
      77426 TPROBN   277
      77427 TPROGN   277
         13 TRFILE   211
         46 TSTCOM    34
      77435 UFLAGS   277
      77436 UPASSW   277
      77427 UPROBN   277
      77427 UPROGN   277
      77430 UPRTGP   277
      77431 USTNBY   277
      75524 USWICH    67
      77423 WLOGNM    33,   51,  277
      77417 WPROBN   277
      77420 WPROGN   277
         14 WRWAIT   215
      77421 WSYSNM   277
      77424 WUFDNM   277

0 NO ERROR IN ABOVE ASSEMBLY.
1       UTILITY ENTRIES FOR LOGIN/LOGOUT                                         12/03/70 1730.3 PAGE 1

                       00000         ENTRY   ISIN
                       00001         ENTRY   FINDSB
                       00002         ENTRY   KILL
                       00003         ENTRY   NOTIM
                       00004         ENTRY   LDOPT

      00000  0101 00 0 00006  ISIN   TIA     =HISIN
      00001  0101 00 0 00005  FINDSB TIA     =HFINDSB
      00002  0101 00 0 00007  KILL   TIA     =HKILL
      00003  0101 00 0 00011  NOTIM  TIA     =HNOTIM
      00004  0101 00 0 00010  LDOPT  TIA     =HLDOPT
                                     END

        LITERALS
      00005  263145246222
      00006  316231456060
      00007  423143436060
      00010  432446476360
      00011  454663314460
1       UTILITY ENTRIES FOR LOGIN/LOGOUT                                         12/03/70 1730.3 PAGE 1
                        POST PROCESSOR ASSEMBLY DATA

         12 IS THE FIRST LOCATION NOT USED BY THIS PROGRAM

0REFERENCES TO DEFINED SYMBOLS
          0   ISIN     0
          2   KILL     0
          4  LDOPT     0
          3  NOTIM     0
          1 FINDSB     0

0 NO ERROR IN ABOVE ASSEMBLY.


LOGLIB   BCD 02/20/71 1656.3   12309         00000


 MESSG   BCD 11/27/70 2309.3    1156         00000
1       M1416 3845  PETER R. BOS .... PRINT MESSAGE FILE FOR HELLO, LOGIN ....   11/27/70 2306.9 PAGE 1

                                     PCC     ON
                                     NOLNK
                       00020         ENTRY   MESSG
                                     LBL     MESG
                                     PCC     OFF

                                     EXTERN  BFCLOS,BFOPEN,BFREAD,FSTATE,GETMEM,IOERR,PRDIAG
                                     EXTERN  PTERR,RESETF,RSTCPU,RSTERR,SETERR,SETMEM,TSSFIL
                                     EXTERN  USRFIL,WRFLX

                                     UNLIST


      00020                   MESSG  SAVE    MS(X4)        SAVE LINKAGE
      00021  0500 60 4 00001         CLA*    1,4           PICK UP FILE NAME
      00022  0560 60 4 00002         LDQ*    2,4           ..
      00023 -0603 00 0 00121         DST     MSGFIL        ..
      00024  0074 00 4 00013         TSX     SETERR,4      SET ERROR PROCEDURE
      00025  3 00000 0 00103         PAR     ERROR         ..
      00026  3 00000 0 00105         PAR     LOCK          ..
      00027 -0754 00 0 00000         ZAC                   PRDIAG PRINTS VIA WRFLX
      00030  0621 60 0 00007         STA*    PTERR         ..
      00031  0074 00 4 00004         TSX     GETMEM,4      EXTEND MEMORY BOUND FOR BUFFER SPACE
      00032  0602 00 0 00124         SLW     OLDMEM        ..
      00033  0621 00 0 00053         STA     OPN+4         ..
      00034  0401 00 0 00151         ADM     =432          ..
      00035  0621 00 0 00054         STA     OPN+5         ..
      00036  0401 00 0 00151         ADM     =432          ..
      00037  0074 00 4 00014         TSX     SETMEM,4      ..
      00040  0074 00 4 00015         TSX     TSSFIL,4      SWITCH TO PUBLIC FILES
      00041  0600 00 0 00123         STZ     TMP           ..
      00042                          CALL    FSTATE(MSGFIL,MSGFIL+1,(TMP,,1),XIT)
      00047                   OPN    CALL    BFOPEN(=HR,MSGFIL,MSGFIL+1,-,-,=-0,IOERR)
      00057                   RD     CALL    BFREAD(MSGFIL,MSGFIL+1,(LINE,,14),EOF,TMP,IOERR)
      00066  0074 00 4 00017         TSX     WRFLX,4       PRINT LINE AT USER
      00067  0 00014 0 00125         PZE     LINE,,12      ..
      00070  0020 00 0 00057         TRA     RD            RETURN FOR NEXT LINE
      00071                   EOF    CALL    BFCLOS(MSGFIL,MSGFIL+1,IOERR)  CLOSE FILE

      00075  0074 00 4 00016  XIT    TSX     USRFIL,4      RESTORE USER TO OWN FILES
      00076 -0500 00 0 00124         CAL     OLDMEM        RESET MEMORY SIZE
      00077  0074 00 4 00014         TSX     SETMEM,4      ..
      00100  0074 00 4 00012         TSX     RSTERR,4      RESTORE ERROR PROCEDURE
      00101                          RETURN  (4,4),MS(X4)  RETURN TO CALLER


      00103  0074 00 4 00006  ERROR  TSX     PRDIAG,4      HERE FOR FILE ERROR, PRINT DIAGNOSTIC
      00104  0020 00 0 00111         TRA     ERRXIT        ..

      00105  0601 00 0 00144  LOCK   STO     LCKCM+1       HERE FOR FILE INTERLOCK
      00106 -0600 00 0 00146         STQ     LCKCM+3       ..
      00107  0074 00 4 00017         TSX     WRFLX,4       PRINT FILE INTERLOCK COMMENT
      00110  0 00006 0 00143         PZE     LCKCM,,6      ..
      00111  0074 00 4 00011  ERRXIT TSX     RSTCPU,4      RESTORE MACHINE CONDITIONS
      00112  0074 00 4 00010         TSX     RESETF,4      RESET ANY ACTIVE FILE
1       M1416 3845  PETER R. BOS .... PRINT MESSAGE FILE FOR HELLO, LOGIN ....   11/27/70 2306.9 PAGE 2

      00113  0074 00 4 00016         TSX     USRFIL,4      RETURN USER TO OWN FILES
      00114 -0500 00 0 00124         CAL     OLDMEM        RESET MEMORY BOUND
      00115  0074 00 4 00014         TSX     SETMEM,4      ..
      00116  0074 00 4 00012         TSX     RSTERR,4      RESTORE ERROR PROCEDURE
      00117                          RESTOR  MS(X4)        RESTORE LINKAGE
      00120  0020 60 4 00003         TRA*    3,4           GIVE ERROR RETURN


      00121                   MSGFIL BSS     2             FILE NAME
      00123  0 00000 0 00000  TMP    PZE
      00124  0 00000 0 00000  OLDMEM PZE
      00125                   LINE   BSS     14

      00143  602631432560     LCKCM  BCI     / FILE  NAME1/
      00145  605757575757            BCI     / /
      00146  604521442502            BCI     / NAME2 IS LOCKED/

      00151                          RMT     *
                                     END

        LITERALS
      00151  000000000660
      00152  400000000000
      00153  516060606060
1       M1416 3845  PETER R. BOS .... PRINT MESSAGE FILE FOR HELLO, LOGIN ....   11/27/70 2306.9 PAGE 1
                        POST PROCESSOR ASSEMBLY DATA

        154 IS THE FIRST LOCATION NOT USED BY THIS PROGRAM

0REFERENCES TO DEFINED SYMBOLS
         57     RD    70
         71    EOF    63
         47    OPN    33,   35
        123    TMP    41,   45,   64
         75    XIT    46
        125   LINE    62,   67
        105   LOCK    26
        101   MSX4    20,  117
        103  ERROR    25
          5  IOERR    56,   65,   74
        143  LCKCM   105,  106,  110
         20  MESSG     0
          7  PTERR    30
         17  WRFLX    66,  107
          0 BFCLOS    71
          1 BFOPEN    47
          2 BFREAD    57
        111 ERRXIT   104
          3 FSTATE    42
          4 GETMEM    31
        121 MSGFIL    23,   43,   44,   51,   52,   60,   61,   72,   73
        124 OLDMEM    32,   76,  114
          6 PRDIAG   103
         10 RESETF   112
         11 RSTCPU   111
         12 RSTERR   100,  116
         13 SETERR    24
         14 SETMEM    37,   77,  115
         15 TSSFIL    40
         16 USRFIL    75,  113

0 NO ERROR IN ABOVE ASSEMBLY.


DELTEM   BCD 11/27/70 2309.3    1686         00000
1            DELTEM, DTEMLG, DELALL - DELETE FILES FROM U.F.D.                   11/27/70 2306.4 PAGE 1

                                             2/3/66 - NOEL I. MORRIS


                       00013         ENTRY   DELTEM        DELETE ALL TEMPS.
                       00016         ENTRY   DTEMLG        DELETE TEMPS THIS AUTHOR
                       00021         ENTRY   DELALL        DELETE ALL FILES

                                     UNLIST


                                     EXTERN  ATTNAM,FERRTN,TILOCK,FSTATE,GETMEM,SETMEM,OPEN
                                     EXTERN  RDFILE,CLOSE,CHFILE,DELFIL


      00013  0600 00 0 00157  DELTEM STZ     AUTHSW        NO AUTH. RESTRICTION
      00014 -0625 00 0 00160         STL     TEMSW         TEMPORARIES ONLY
      00015  0020 00 0 00023         TRA     GO

      00016 -0625 00 0 00157  DTEMLG STL     AUTHSW        TEMPS OF CURRENT AUTHOR ONLY (LOGOUT)
      00017 -0625 00 0 00160         STL     TEMSW         ..
      00020  0020 00 0 00023         TRA     GO

      00021  0600 00 0 00157  DELALL STZ     AUTHSW        EVERYBODY GOES ...
      00022  0600 00 0 00160         STZ     TEMSW         ..

      00023  0634 00 4 00144  GO     SXA     X4,4          SAVE LINKAGE

      00024  0520 00 0 00157         ZET     AUTHSW        DO WE NEED AUTHOR NO. (MACRO BELOW)
      00025                          CALL    ATTNAM((FNAME,,3)) YES, GET AUTHOR NO. (3RD WORD)

      00027  0074 00 4 00001         TSX     FERRTN,4      SET UP FILE SYSTEM ERROR RETURN
      00030  0 00000 0 00140         PZE     RSILK         ..
      00031  0621 00 0 00143         STA     RSERR+1       SAVE OLD RETURN

      00032  0074 00 4 00002         TSX     TILOCK,4      SET INTERLOCK RETURN
      00033  0 00000 0 00133         PZE     INC           ..
      00034  0621 00 0 00141         STA     RSILK+1       SAVE OLD INTERLOCK RETURN

      00035                          CALL    FSTATE(U,F(LTH,,1)) GET LENGTH OF U.F.D.
      00041  0500 00 0 00151         CLA     LTH           DECREASE BY 3
      00042  0402 00 0 00162         SUB     =3            ..
      00043  0601 00 0 00151         STO     LTH           ..

      00044  0074 00 4 00004         TSX     GETMEM,4      GET MEMBND
      00045  0621 00 0 00150         STA     MB            SAVE IT
      00046  0621 00 0 00062         STA     RD+4          ..
      00047  0361 00 0 00151         ACL     LTH           INCREASE BY LENGTH OF U.F.D.
      00050  0621 00 0 00153         STA     TOP           ..
      00051  0074 00 4 00005         TSX     SETMEM,4      RESET MEMORY BOUND

      00052                          CALL    OPEN(=HR,U,F) OPEN THE U.F.D.
      00056                   RD     CALL    RDFILE(U,F,=4(**,...,LTH)) READ IT IN
      00063                          CALL    CLOSE(U,F)    AND CLOSE IT
1            DELTEM, DTEMLG, DELALL - DELETE FILES FROM U.F.D.                   11/27/70 2306.4 PAGE 2

      00066 -0500 00 0 00150         CAL     MB            GET BEGINNING LOC'N FOR U.F.D.
      00067 -0340 00 0 00153  DLP    LAS     TOP           COMPARE TO TOP
      00070  0020 00 0 00136         TRA     ENDEL         ..
      00071  0020 00 0 00136         TRA     ENDEL         ..
      00072  0621 00 0 00152         STA     POINTR        SAVE U.F.D. POINTER
      00073  0737 00 4 00000         PAC     ,4            POINTER IN XR4

      00074  0520 00 4 00000         ZET     0,4           IS PRIMARY NAME ZERO .Q.
      00075  0020 00 0 00100         TRA     *+3           NO, CONTINUE
      00076 -0520 00 4 00001         NZT     1,4           IS SECONDARY NAME ZERO .Q.
      00077  0020 00 0 00133         TRA     INC           YES, SKIP THIS ENTRY

      00100  0441 00 4 00004         LDI     4,4           GET MODE, ILOCK, ETC.
      00101  0054 00  700000         RFT     700000        IS FILE LINKED (DEVICE = 0) .Q.
      00102  0020 00 0 00104         TRA     *+2           NO, SKIP
      00103  0020 00 0 00133         TRA     INC           YES, IGNORE LINKED FILE

      00104 -0056 00  002000         LNT     002000        IS FILE TEMPORARY .Q.
      00105 -0520 00 0 00160         NZT     TEMSW         OR ARE WE AFTER ALL FILES .Q.
      00106  0020 00 0 00110         TRA     *+2           YES, SKIP
      00107  0020 00 0 00133         TRA     INC           NO, IGNORE FILE

      00110 -0500 00 4 00003         CAL     3,4           GET AUTHOR OF FILE
      00111 -0320 00 0 00165         ANA     =O777777      ..
      00112  0322 00 0 00156         ERA     AUTHNO        IS AUTHOR THIS USER .Q.
      00113  0520 00 0 00157         ZET     AUTHSW        OR DON'T WE CARE .Q.
      00114 -0100 00 0 00133         TNZ     INC           IF NOT, IGNORE FILE

      00115  0500 00 4 00000         CLA     0,4           GET PRIMARY NAME
      00116  0560 00 4 00001         LDQ     1,4           AND SECONDARY NAME
      00117 -0603 00 0 00154         DST     FNAME         ..

      00120                          CALL    CHFILE(FNAME,FNAME+1,=1,=-0,=-0,*+1) MAKE IT '001' MODE
      00127                          CALL    DELFIL(FNAME,FNAME+1,*+1) DELETE IT

      00133 -0500 00 0 00152  INC    CAL     POINTR        GET U.F.D. POINTER
      00134  0361 00 0 00164         ACL     =7            STEP BY SEVEN
      00135  0020 00 0 00067         TRA     DLP           CONTINUE LOOP

      00136 -0500 00 0 00150  ENDEL  CAL     MB            GET OLD MEMBND
      00137  0074 00 4 00005         TSX     SETMEM,4      RESET MEMORY BOUND

      00140  0074 00 4 00002  RSILK  TSX     TILOCK,4      RESET INTERLOCK RETURN
      00141  0 00000 0 00000         PZE     **            MUST BE A 'PZE' ******

      00142  0074 00 4 00001  RSERR  TSX     FERRTN,4      RESET OLD ERROR RETURN
      00143  0 00000 0 00000         PZE     **            MUST BE A 'PZE' ******
      00144  0774 00 4 00000  X4     AXT     **,4          RESTORE XR4
      00145  0020 00 4 00001         TRA     1,4           RETURN


      00146  643326332433     U      BCI     1,U.F.D.
      00147  742631432534     F      BCI     1,(FILE)
      00150  0 00000 0 00000  MB     PZE
      00151  0 00000 0 00000  LTH    PZE
      00152  0 00000 0 00000  POINTR PZE
1            DELTEM, DTEMLG, DELALL - DELETE FILES FROM U.F.D.                   11/27/70 2306.4 PAGE 3

      00153  0 00000 0 00000  TOP    PZE
      00154                   FNAME  BSS     2
      00156  0 00000 0 00000  AUTHNO PZE                   AUTHOR NUMBER
      00157  0 00000 0 00000  AUTHSW PZE                   SWITCH TO DELETE AUTHOR'S FILES ONLY
      00160  0 00000 0 00000  TEMSW  PZE                   SWITCH TO DELETE TEMP FILES ONLY

      00161                          RMT     *             REMOTE SEQUENCES.

                                     END

        LITERALS
      00161  000000000001
      00162  000000000003
      00163  000000000004
      00164  000000000007
      00165  000000777777
      00166  400000000000
      00167  516060606060
1            DELTEM, DTEMLG, DELALL - DELETE FILES FROM U.F.D.                   11/27/70 2306.4 PAGE 1
                        POST PROCESSOR ASSEMBLY DATA

        170 IS THE FIRST LOCATION NOT USED BY THIS PROGRAM

0REFERENCES TO DEFINED SYMBOLS
        147      F    37,   55,   60,   65
        146      U    36,   54,   57,   64
         23     GO    15,   20
        150     MB    45,   66,  136
         56     RD    46
        144     X4    23
         67    DLP   135
        133    INC    33,   77,  103,  107,  114
        151    LTH    40,   41,   43,   47,   62
        153    TOP    50,   67
          6   OPEN    52
         10  CLOSE    63
        136  ENDEL    70,   71
        154  FNAME    26,  117,  121,  122,  130,  131
        142  RSERR    31
        140  RSILK    30,   34
        160  TEMSW    14,   17,   22,  105
          0 ATTNAM    25
        156 AUTHNO   112
        157 AUTHSW    13,   16,   21,   24,  113
         11 CHFILE   120
         21 DELALL     0
         12 DELFIL   127
         13 DELTEM     0
         16 DTEMLG     0
          1 FERRTN    27,  142
          3 FSTATE    35
          4 GETMEM    44
        152 POINTR    72,  133
          7 RDFILE    56
          5 SETMEM    51,  137
          2 TILOCK    32,  140

0 NO ERROR IN ABOVE ASSEMBLY.


GTPROB   BCD 11/27/70 2309.3     901         00000
1            GTPROB - GET PROBLEM NUMBER FOR LOGIN COMMAND.                      11/27/70 2307.1 PAGE 1

                                             2/19/66 - NOEL I. MORRIS

                              * * * * * * * * * * * * * * * * * * * * * * * * * * * * * * * * * * * *
                              *
                              *      CALLING SEQUENCE -
                              *
                              *      GTPROB. (PROBN, ERR)
                              *
                              *      PROBN  - CONTAINS UNCONVERTED PROBLEM NUMBER.  AT COMPLETION
                              *              OF CONVERSION, IT WILL CONTAIN CONVERTED PROBLEM NUMBER.
                              *      ERR    - ERROR LOCATION FOR ILLEGAL PROBLEM NUMBER.
                              *
                              *
                              * * * * * * * * * * * * * * * * * * * * * * * * * * * * * * * * * * * *


                       00001         ENTRY   GTPROB

                                     UNLIST


                                     EXTERN  WRFLX

      00001  0634 00 2 00035  GTPROB SXA     GTPX,2        SAVE XR2

      00002  0560 60 4 00001         LDQ*    1,4           GET UNCONVERTED PROBLEM NUMBER
      00003 -0600 00 0 00037         STQ     BAD           SAVE FOR ERROR COMMENT

      00004  0774 00 2 00036         AXT     30,2          EXTRACT THE LETTER
      00005 -0754 00 0 00000  PBLOOP ZAC                   ..
      00006 -0763 00 0 00006         LGL     6             ..
      00007 -0340 00 0 00044         LAS     =H00000       CHECK FOR NON-BLANK
      00010  0020 00 0 00022         TRA     FCHAR         NON-BLANK FOUND
      00011  0020 00 0 00013         TRA     *+2           ..
      00012  0020 00 0 00022         TRA     FCHAR         ..
      00013  2 00006 2 00005         TIX     PBLOOP,2,6    ..

      00014  0634 00 4 00017  ERR    SXA     SVX4,4        SAVE XR4
      00015                          TYPE    (5,       IS NOT A PROBLEM NUMBER),BAD
      00017  0774 00 4 00000  SVX4   AXT     **,4          RESTORE XR4
      00020  0522 00 0 00035         XEC     GTPX          RESTORE XR2
      00021  0020 60 4 00002         TRA*    2,4           ERROR RETURN


      00022  0767 00 0 00030  FCHAR  ALS     24            SHIFT TO CORRECT POSITION
      00023 -0501 00 0 00046         ORA     =H 00000      AND OR IN PRECEDING BLANK
      00024  0602 60 4 00001         SLW*    1,4           SAVE THIS PART
      00025 -0320 00 0 00045         ANA     =H0 0000      MUST BE NON-NUMERIC
      00026  0100 00 0 00014         TZE     ERR           ..

      00027 -0754 00 0 00000         ZAC                   ..
      00030 -0765 00 2 00044         LGR     36,2          RIGHT-JUSTIFY REMAINING CHARACTERS
      00031 -0130 00 0 00000         XCL                   ..
      00032 -0602 60 4 00001         ORS*    1,4           OR INTO PROBLEM NUMBER
      00033 -0320 00 0 00047         ANA     =O777760606060 MUST BE NUMERIC
      00034 -0100 00 0 00014         TNZ     ERR           ..
1            GTPROB - GET PROBLEM NUMBER FOR LOGIN COMMAND.                      11/27/70 2307.1 PAGE 2

      00035  0774 00 2 00000  GTPX   AXT     **,2          RESTORE XR2
      00036  0020 00 4 00003         TRA     3,4           RETURN


      00037                          RMT     *             REMOTE SEQUENCES.
      00037  606060606060     BAD    BCI     5,       IS NOT A PROBLEM NUMBER                                 .001
      00040  603162604546
      00041  636021604751
      00042  462243254460
      00043  456444222551

                                     END

        LITERALS
      00044  000000000060
      00045  006000000000
      00046  600000000000
      00047  777760606060
1            GTPROB - GET PROBLEM NUMBER FOR LOGIN COMMAND.                      11/27/70 2307.1 PAGE 1
                        POST PROCESSOR ASSEMBLY DATA

         50 IS THE FIRST LOCATION NOT USED BY THIS PROGRAM

0REFERENCES TO DEFINED SYMBOLS
         37    BAD     3,   16,   44
         14    ERR    26,   34
         35   GTPX     1,   20
         17   SVX4    14
         22  FCHAR    10,   12
          5  ..001    16,   44
          0  WRFLX    15
          1 GTPROB     0
          5 PBLOOP    13

0 NO ERROR IN ABOVE ASSEMBLY.


GTPASS   BCD 12/03/70 1711.4    2789         00000
1            GTPASS - GET PASSWORD FOR LOGIN.                                    12/03/70 1707.9 PAGE 1

                                             2/28/66 - NOEL I. MORRIS


                       00006         ENTRY   GTPASS

                                     UNLIST
 M                            TYPE   MACRO   N,MESS,LOC    MACRO TO TYPE LINE ON USER CONSOLE
 M                            TYPEA  MACRO   N,MESS,LOC    TYPE LINE ON USER CONSOLE


                                     EXTERN  SETFUL,SETBCD,WRFLXA,GETIME,RDFLXA,RJUST


                      000055  CR     BOOL    0055          CARRIAGE RETURN
                      000117  POFF   BOOL    0117          TURN PRINTER OFF
                      000175  PON    BOOL    0175          TURN PRINTER ON
                      000136  CRW    BOOL    0136          CARRIAGE RETURN W/O LINE FEED
                      000132  BLACK  BOOL    0132          BLACK SHIFT
                      000133  RED    BOOL    0133          RED SHIFT
                      000135  BS     BOOL    0135          BACKSPACE
                      000057  NULL   BOOL    0057          NULL CHARACTER
1            GTPASS - GET PASSWORD FOR LOGIN.                                    12/03/70 1707.9 PAGE 2
                           GTPASS - GET UNITID AND DISPATCH ON IT.

      00006  0634 00 4 00153  GTPASS SXA     GTX4,4        SAVE XRS
      00007  0634 00 2 00154         SXA     GTX2,2        ..
      00010  0634 00 1 00155         SXA     GTX1,1        ..

      00011 -0500 60 4 00001         CAL*    1,4           GET UNIT I.D.
      00012  0771 00 0 00036         ARS     30            RIGHT JUSTIFY FIRST CHARACTER
      00013  0734 00 4 00000         PAX     ,4            TO X4
      00014 -3 00011 4 00016         TXL     *+2,4,TLEN    SEE IF NOT IN TABLE
      00015  0774 00 4 00003         AXT     3,4           IF SO, USE TELEX CODE
      00016  0754 00 4 00000         PXA     ,4            BACK TO AC
      00017  0737 00 1 00000         PAC     ,1            AND PLACE IN XR1

      00020  0074 00 4 00000         TSX     SETFUL,4      ENTER TWELVE BIT MODE

      00021  0522 00 1 00022         XEC     TABLE,1       TAKE THE APPROPRIATE ACTION FOR CONSOLE

                       00022  TABLE  SYN     *
      00022  0020 00 0 00073         TRA     TTY           HIGH-SPEED LINE
      00023  0020 00 0 00073         TRA     TTY           TELETYPE
      00024  0020 00 0 00073         TRA     TTY           1050
      00025  0020 00 0 00076         TRA     TELEX         TELEX
      00026  0020 00 0 00076         TRA     TELEX         TWX
      00027  0020 00 0 00076         TRA     TELEX         INKTRONIC
      00030  0020 00 0 00073         TRA     TTY           TELETYPE
      00031  0020 00 0 00073         TRA     TTY           MODEL 37
      00032  0020 00 0 00034         TRA     DATEL         2741 OR DATEL (LIKE 2741 EXCEPT NO P-OFF)
      00033  0020 00 0 00073         TRA     TTY           ARDS STORAGE TUBE
                       00011  TLEN   EQU     *-1-TABLE     LENGTH OF TABLE
1            GTPASS - GET PASSWORD FOR LOGIN.                                    12/03/70 1707.9 PAGE 3
                           DATEL - CHECK ID, TYPE GARBAGE IF A DATEL

      00034  0534 00 4 00153  DATEL  LXA     GTX4,4        RESTORE X4
      00035 -0500 60 4 00001         CAL*    1,4           GET ID
      00036  0771 00 0 00014         ARS     12            2741 IS 800NNN
      00037 -0320 00 0 00344         ANA     =O60          DATEL IS 800ANN
      00040  0100 00 0 00073         TZE     TTY           IF 2741, SKIP TO ASK FOR PASSWORD

      00041  0074 00 4 00003         TSX     GETIME,4      SAME RANDOM CHARS AS FOR TELEX
      00042 -0600 00 0 00257         STQ     RAN           .. BUT NEED BACKSPACE SINCE NO CRW
      00043 -0501 00 0 00343         ORA     =1            ..
      00044 -0602 00 0 00257         ORS     RAN           ..

      00045  0774 00 1 00030         AXT     24,1          24 WORDS TOTAL
      00046  0774 00 2 00003  LINE   AXT     3,2           FILL IN GROUPS OF 3
      00047  0774 00 3 00044  WRD    AXT     36,3          SHIFT INDEX
      00050  0500 00 0 00257  CHR    CLA     RAN           GENERATE RANDOM CHAR
      00051  0767 00 0 00022         ALS     18            ..
      00052  0400 00 0 00257         ADD     RAN           ..
      00053  0400 00 0 00257         ADD     RAN           ..
      00054  0400 00 0 00257         ADD     RAN           ..
      00055  0601 00 0 00257         STO     RAN           SAVE FOR NEXT CHAR
      00056  0771 00 0 00035         ARS     29            ..
      00057 -0320 00 0 00346         ANA     =O77          USE AS TABLE INDEX
      00060  0737 00 4 00000         PAC     ,4            ..
      00061 -0500 00 4 00157         CAL     CHRTB,4       ..
      00062  0767 00 3 00044         ALS     36,3          POSITION
      00063 -0602 00 1 00316         ORS     TRASH+24,1    INSERT

      00064  2 00014 3 00050         TIX     CHR,3,12      ..
      00065 -2 00001 2 00067         TNX     *+2,2,1       SKIP 3 WORDS OUT OF 6
      00066  2 00001 1 00047         TIX     WRD,1,1       ..
      00067  2 00004 1 00046         TIX     LINE,1,4      ..

      00070                          CALL    WRFLXA((PASSWD,,28))  NOW TYPE IT

                              PASSWD REMOTE  VFD(12/RED,H48/0P1A1S1S,H48/1W1O1R1D,$
                                     ETC     12/CR,12/BLACK,12/POFF)

                              TRASH  REMOTE  VFD(36/0,36/0,36/0,12/BS,12/BS,12/BS,$
                                     ETC     12/BS,12/BS,12/BS,12/BS,12/BS,12/BS)
                                     REMOTE  VFD(36/0,36/0,36/0,12/BS,12/BS,12/BS,$
                                     ETC     12/BS,12/BS,12/BS,12/BS,12/BS,12/BS)
                                     REMOTE  VFD(36/0,36/0,36/0,12/BS,12/BS,12/BS,$
                                     ETC     12/BS,12/BS,12/BS,12/BS,12/BS,12/BS)
                                     REMOTE  VFD(36/0,36/0,36/0,12/BS,12/BS,12/BS,$
                                     ETC     12/BS,12/BS,12/BS,12/BS,12/BS,12/BS)

      00072  0020 00 0 00125         TRA     OK            SKIP TO READ PASSWORD
1            GTPASS - GET PASSWORD FOR LOGIN.                                    12/03/70 1707.9 PAGE 4
                           TTY - ASK FOR PASSWORD AND TURN PRINTER OFF.

      00073                   TTY    CALL    WRFLXA((PASS,,4)) TYPE 'PASSWORD' AND 'P-OFF'


      00075  0020 00 0 00125         TRA     OK            NOW GO READ THE PASSWORD
1            GTPASS - GET PASSWORD FOR LOGIN.                                    12/03/70 1707.9 PAGE 5
                           TELEX - TYPE RANDOM CHARACTERS FOR PASSWORD.

      00076  0074 00 4 00003  TELEX  TSX     GETIME,4      DATE AND TIME NOW ARE RANDOM ENOUGH
      00077 -0600 00 0 00257         STQ     RAN           ..
      00100 -0501 00 0 00343         ORA     =1            INSURE NUMBER IS ODD
      00101 -0602 00 0 00257         ORS     RAN           ..

      00102  0774 00 1 00020         AXT     16,1          16 WORDS OF GARBAGE
      00103  0774 00 2 00003         AXT     3,2           IN GROUPS OF THREE

      00104  0774 00 3 00044  NXWD   AXT     36,3          SHIFT INDEX
      00105  0500 00 0 00257  GCHAR  CLA     RAN           GENERATE RANDOM NUMBER
      00106  0767 00 0 00022         ALS     18            ..
      00107  0400 00 0 00257         ADD     RAN           ..
      00110  0400 00 0 00257         ADD     RAN           ..
      00111  0400 00 0 00257         ADD     RAN           ..
      00112  0601 00 0 00257         STO     RAN           ..

      00113  0771 00 0 00035         ARS     29            GET RANDOM PART OF NUMBER
      00114 -0320 00 0 00345         ANA     =O67          MAKE SURE IT'S LEGAL BCD
      00115  0767 00 3 00044         ALS     36,3          SHIFT TO POSITION
      00116 -0602 00 1 00342         ORS     GARBGE+16,1   AND OR INTO LINE

      00117  2 00014 3 00105         TIX     GCHAR,3,12    3 CHARACTERS PER WORD
      00120 -2 00001 2 00122         TNX     *+2,2,1       AFTER EVERY THIRD WORD
      00121  2 00001 1 00104         TIX     NXWD,1,1      ..
      00122  2 00002 1 00103         TIX     NXWD-1,1,2    SKIP A WORD

      00123                          CALL    WRFLXA((PASS,,20)) PRINT THE STUFF NOW

                              PASS   REMOTE  VFD(12/RED,H48/0P1A1S1S,H48/1W1O1R1D,12/CR,$
                                     ETC     12/BLACK,12/POFF)

                              GARBGE REMOTE  VFD(36/0,36/0,36/0,12/CRW,12/NULL,12/NULL)
                                     REMOTE  VFD(36/0,36/0,36/0,12/CRW,12/NULL,12/NULL)
                                     REMOTE  VFD(36/0,36/0,36/0,12/CRW,12/NULL,12/NULL)
                                     REMOTE  VFD(36/0,36/0,36/0,12/CRW,12/NULL,12/NULL)

1            GTPASS - GET PASSWORD FOR LOGIN.                                    12/03/70 1707.9 PAGE 6
                           READ IN THE PASSWORD AND RETURN

      00125  0074 00 4 00001  OK     TSX     SETBCD,4      BACK TO 6-BIT MODE

      00126                          CALL    RDFLXA((PASSW,,1)) READ THE PASSWORD

      00130  0044 00 0 00000         PAI                   LOOK AT WORD RETURNED FROM RDFLXA
      00131  0054 00  040000         RFT     40000         IF BIT 21 IS ON,
      00132  0020 00 0 00144         TRA     NOFIX         WE DO NOT HAVE TO ERASE C.R.

      00133  0602 00 0 00261         SLW     TMP.          PROGRAMMED MULTIPLICATION BY 6
      00134  0767 00 0 00001         ALS     1             ..
      00135  0361 00 0 00261         ACL     TMP.          ..
      00136  0767 00 0 00001         ALS     1             ..
      00137  0737 00 4 00000         PAC     ,4            PLACE IN XR4
      00140 -0500 00 0 00347         CAL     =O350000000000 WILL CHANGE C.R. TO BLANK
      00141  0771 00 4 77772         ARS     -6,4          MOVE INTO POSITION
      00142  0322 00 0 00260         ERA     PASSW         AND FIX THAT C.R.
      00143  0602 00 0 00260         SLW     PASSW         ..

      00144  0074 00 4 00000  NOFIX  TSX     SETFUL,4      ENTER 12-BIT MODE AGAIN

      00145                          CALL    WRFLXA((P.ON,,1)) TURN THE PRINTER BACK ON

                              P.ON   REMOTE  VFD(12/PON,12/NULL,12/NULL)

      00147  0074 00 4 00001         TSX     SETBCD,4      FINALLY BACK TO 6-BIT MODE

      00150                          CALL    RJUST(PASSW)  RIGHT-JUSTIFY THE PASSWORD
      00152  0600 00 0 00260         STZ     PASSW         DON'T LEAVE PASSWORD AROUND

      00153  0774 00 4 00000  GTX4   AXT     **,4          RESTORE XRS
      00154  0774 00 2 00000  GTX2   AXT     **,2          ..
      00155  0774 00 1 00000  GTX1   AXT     **,1          ..
      00156  0020 00 4 00002         TRA     2,4           AND RETURN
1            GTPASS - GET PASSWORD FOR LOGIN.                                    12/03/70 1707.9 PAGE 7
                           STORAGE AND CONSTANTS.

                       00157  CHRTB  SYN     *             CHAR TABLE FOR DATEL BLOT
      00157 +000000000021            OCT     021,022,023,024,025,026,027,030
      00167 +000000000031            OCT     031,041,042,043,044,045,046,047
      00177 +000000000050            OCT     050,051,053,062,063,064,065,066
      00207 +000000000067            OCT     067,070,071,104,121,122,123,124
      00217 +000000000125            OCT     125,126,127,130,131,141,142,143
      00227 +000000000144            OCT     144,145,146,147,150,151,162,163
      00237 +000000000164            OCT     164,165,166,167,170,171,000,001
      00247 +000000000002            OCT     002,003,004,005,006,007,010,011

      00257  0 00000 0 00000  RAN    PZE
      00260  0 00000 0 00000  PASSW  PZE
      00261  0 00000 0 00000  TMP.   PZE


      00262                          RMT     *             REMOTE SEQUENCES.


                                     END

1            GTPASS - GET PASSWORD FOR LOGIN.                                    12/03/70 1707.9 PAGE 1
                        POST PROCESSOR ASSEMBLY DATA

        350 IS THE FIRST LOCATION NOT USED BY THIS PROGRAM

0REFERENCES TO DEFINED SYMBOLS
        135     BS     6,  271,  272,  273,  277,  300,  301,  305,  306,  307,  313,  314,  315
         55     CR     6,  265,  321
        125     OK    72,   75
         50    CHR    64
        136    CRW     6,  325,  331,  335,  341
        175    PON     6,  342
        257    RAN    42,   44,   50,   52,   53,   54,   55,   77,  101,  105,  107,  110,  111,  112
        133    RED     6,  262,  316
         73    TTY    22,   23,   24,   30,   31,   33,   40
         47    WRD    66
        155   GTX1    10
        154   GTX2     7
        153   GTX4     6,   34
         46   LINE    67
         57   NULL     6,  325,  331,  335,  341,  342
        104   NXWD   121,  122
        316   PASS    74,  124
        342   P.ON   146
        117   POFF     6,  265,  321
         11   TLEN    14,   34
        261   TMP.   133,  135
        132  BLACK     6,  265,  321
        157  CHRTB    61,  157
         34  DATEL    32
        105  GCHAR   117
        274  ..003
        302  ..004
        310  ..005
        326  ..008
        332  ..009
        336  ..010
        144  NOFIX   132
        260  PASSW   127,  142,  143,  151,  152
          5  RJUST   150
         22  TABLE    21,   22,   34
         76  TELEX    25,   26,   27
        266  TRASH    63
        322 GARBGE   116
          3 GETIME    41,   76
          6 GTPASS     0
        262 PASSWD    71
          4 RDFLXA   126
          1 SETBCD   125,  147
          0 SETFUL    20,  144
          2 WRFLXA    70,   73,  123,  145

0 NO ERROR IN ABOVE ASSEMBLY.


  GETA   BCD 11/27/70 2309.3    1387         00000
1            GETA - EXECUTE INSTRUCTIONS TO A-CORE.                              11/27/70 2306.2 PAGE 1

                                             2/3/66 - NOEL I. MORRIS

                              *-*-*-*-*-*-*-*-*-*-*-*-*-*-*-*-*-*-*-*-*-*-*-*-*-*-*-*-*-*-*-*-*-*-*-*
                              *
                              *      TO EXECUTE AN INSTRUCTION REFERRING TO A-CORE -
                              *
                              *      TSX     GETA,7        XR7 MAY NOT BE USED FOR INDEXING
                              *      OPCODE  LOCN,TAG      ..
                              *
                              *      ALL MEMORY REFERENCE INSTRUCTIONS WILL WORK WITH
                              *      THIS SUBROUTINE EXCEPT THE FOLLOWING -
                              *
                              *      ANS                   AND TO STORAGE
                              *      DXXX                  ALL DOUBLE-PRECISION OPERATIONS
                              *
                              *
                              *-*-*-*-*-*-*-*-*-*-*-*-*-*-*-*-*-*-*-*-*-*-*-*-*-*-*-*-*-*-*-*-*-*-*-*


                       00002         ENTRY   GETA


        TRANSFER VECTOR
      00000  272563434623     GETLOC
      00001  622563434623     SETLOC

      00002  0634 00 7 00040  GETA   SXA     X7,7          SAVE XR7
      00003  0074 00 7 00057         TSX     SAVE,7        SAVE MACHINE CONDITIONS
      00004 -0754 00 0 00000         ZAC                   INSURE ZERO TAG
      00005  0625 00 0 00073         STT     INSTR         ..

      00006  0534 00 7 00040         LXA     X7,7          RESTORE XR7
      00007  0560 00 7 00001         LDQ     1,7           GET INSTRUCTION
      00010 -0620 00 0 00073         SLQ     INSTR         SAVE IT
      00011 -0130 00 0 00000         XCL                   ..
      00012  0044 00 0 00000         PAI                   INTO SI
      00013 -0056 00  041400         LNT     41400         IS IT INDEX TRANSMISSION .Q.
      00014  0020 00 0 00053         TRA     GETEFA        NO
      00015  0625 00 0 00073         STT     INSTR         YES, SAVE TAG

      00016  0621 00 0 00027  STA    STA     ADDR1         SAVE ADDRESS
      00017  0621 00 0 00036         STA     ADDR2         ..
      00020  0621 00 0 00043         STA     ADDR3         ..

      00021 -0051 00  060000         IIL     60000         IS IT STORE CLASS .Q.
      00022 -0054 00  370000         LFT     370000        ..
      00023  0020 00 0 00042         TRA     GET           NO, GO TO GETLOC

      00024 -0056 00  002000         LNT     2000          IS IT BYTE STORE .Q.
      00025  0020 00 0 00031         TRA     PUT           NO, SKIP GETLOC
      00026  0074 00 4 00000         TSX     GETLOC,4      GET LOC'N CONTENTS
      00027  3 00000 0 00000  ADDR1  PTH     **            ..
      00030  0602 00 0 00074         SLW     C(LOC)        AND SAVE
1            GETA - EXECUTE INSTRUCTIONS TO A-CORE.                              11/27/70 2306.2 PAGE 2

      00031  0074 00 7 00065  PUT    TSX     RESTOR,7      RESTORE MACHINE CONDITIONS
      00032  0522 00 0 00073         XEC     INSTR         EXECUTE INSTRUCTION
      00033  0074 00 7 00057         TSX     SAVE,7        SAVE MACHINE CONDITIONS

      00034 -0500 00 0 00074         CAL     C(LOC)        GET LOC'N CONTENTS NOW
      00035  0074 00 4 00001         TSX     SETLOC,4      AND RESET THEM
      00036  3 00000 0 00000  ADDR2  PTH     **            ..
      00037  0074 00 7 00065         TSX     RESTOR,7      RESTORE MACHINE CONDITIONS
      00040  0774 00 7 00000  X7     AXT     **,7          RESTORE XR7
      00041  0020 00 7 00002         TRA     2,7           RETURN


      00042  0074 00 4 00000  GET    TSX     GETLOC,4      GET LOC'N CONTENTS
      00043  3 00000 0 00000  ADDR3  PTH     **            ..
      00044  0602 00 0 00074         SLW     C(LOC)        AND SAVE

      00045  0074 00 7 00065         TSX     RESTOR,7      RESTORE CONSOLE
      00046  0534 00 7 00040         LXA     X7,7          RESTORE XR7
      00047  0522 00 0 00073         XEC     INSTR         EXECUTE INSTRUCTION
      00050  0020 00 7 00002         TRA     2,7           RETURN
      00051  0020 00 7 00003         TRA     3,7           RETURN FOR 'ZET', 'CAS', ETC.
      00052  0020 00 7 00004         TRA     4,7           ..


      00053  0625 00 0 00054  GETEFA STT     *+1           CALCULATE EFFECTIVE ADDRESS
      00054  0756 00 0 00000         PCA     ,**           ..
      00055  0361 00 7 00001         ACL     1,7           ..
      00056  0020 00 0 00016         TRA     STA           ..


      00057  0634 00 4 00071  SAVE   SXA     X4,4          SAVE MACHINE CONDITIONS
      00060  0602 00 0 00075         SLW     LAC           LOGICAL AC
      00061  0601 00 0 00076         STO     AAC           ARITH. AC
      00062 -0600 00 0 00077         STQ     MQ            SAVE MQ
      00063  0604 00 0 00100         STI     SI            AND SI
      00064  0020 00 7 00001         TRA     1,7           RETURN

      00065  0500 00 0 00076  RESTOR CLA     AAC           ARITH. AC
      00066 -0501 00 0 00075         ORA     LAC           LOGICAL AC
      00067  0560 00 0 00077         LDQ     MQ            MQ
      00070  0441 00 0 00100         LDI     SI            SI
      00071  0774 00 4 00000  X4     AXT     **,4          RESTORE XR4
      00072  0020 00 7 00001         TRA     1,7           RETURN


      00073  0 00000 0 00074  INSTR  ***     C(LOC),**
      00074  0 00000 0 00000  C(LOC) PZE
      00075  0 00000 0 00000  LAC    PZE
      00076  0 00000 0 00000  AAC    PZE
      00077  0 00000 0 00000  MQ     PZE
      00100  0 00000 0 00000  SI     PZE

                                     EXTERN  GETLOC,SETLOC
1            GETA - EXECUTE INSTRUCTIONS TO A-CORE.                              11/27/70 2306.2 PAGE 3

                                     END
1            GETA - EXECUTE INSTRUCTIONS TO A-CORE.                              11/27/70 2306.2 PAGE 1
                        POST PROCESSOR ASSEMBLY DATA

        101 IS THE FIRST LOCATION NOT USED BY THIS PROGRAM

0REFERENCES TO DEFINED SYMBOLS
         77     MQ    62,   67
        100     SI    63,   70
         71     X4    57
         40     X7     2,    6,   46
         76    AAC    61,   65
         42    GET    23
         75    LAC    60,   66
         31    PUT    25
         16    STA    56
          2   GETA     0
         57   SAVE     3,   33
         27  ADDR1    16
         36  ADDR2    17
         43  ADDR3    20
         73  INSTR     5,   10,   15,   32,   47
         74 C(LOC)    30,   34,   44,   73
         53 GETEFA    14
          0 GETLOC    26,   42
         65 RESTOR    31,   37,   45
          1 SETLOC    35

0 NO ERROR IN ABOVE ASSEMBLY.


SETERR   BCD 11/27/70 2309.3    2485         00000
1      M1416 3845  PETER R. BOS  4/12/68 ..... FILE SYSTEM ERROR PROCESSOR       11/27/70 2306.0 PAGE 1

                                     PCC     ON
                                     NOLNK
                       00012         ENTRY   SETERR        SET UP ERROR PROCEDURE
                       00047         ENTRY   RSTERR        RESTORE PREVIOUS ERROR RETURNS
                       00061         ENTRY   IOERR         EXTERNAL ENTRY TO ERROR ROUTINE
                       00122         ENTRY   PRDIAG        PRINT ERROR DIAGNOSTIC
                       00161         ENTRY   PTERR         ENTRY TO SET EXTERNAL PRINT ROUTINE
                                     LBL     IOERR
                                     PCC     OFF

                                     EXTERN  FERRTN,TILOCK,IODIAG,SX4,RX4,SVCPU,RSTCPU,OCRBC
                                     EXTERN  DERBC,WRFLX

                                     UNLIST


                                             CALLING SEQUENCE ....
                                                TSX  SETERR,4
                                               -PZE  ERTN-
                                               -PZE  LKRTN-

                       00012  SETERR SYN     *             ..
      00012  0604 00 0 00216         STI     INDICS        SAVE THE INDICATORS
      00013 -0500 00 4 00001         CAL     1,4           GET POSSIBLE ERROR RETURN
      00014  0044 00 0 00000         PAI                   ..
      00015  0444 00 0 00220         OFT     =O477777700000 TEST FOR RETURN GIVEN
      00016  0020 00 0 00027         TRA     NOERT         NO RETURNS AT ALL, SKIP
      00017  0621 00 0 00213         STA     ERRET         YES, SAVE ERROR RETURN.
      00020  1 77777 4 00021         TXI     *+1,4,-1      INCREMENT RETURN LOC'N
      00021 -0500 00 4 00001         CAL     1,4           TEST FOR FILE-LOCK RETURN GIVEN
      00022  0044 00 0 00000         PAI                   ..
      00023  0444 00 0 00220         OFT     =O477777700000 ..
      00024  0020 00 0 00030         TRA     NOERT+1       NO LOCK RETURN GIVEN, SKIP
      00025  0621 00 0 00214         STA     LKRET         SAVE FILE LOCK RETURN LOC.
      00026  1 77777 4 00031         TXI     *+3,4,-1      INCREMENT RETURN LOCATION
      00027  0600 00 0 00213  NOERT  STZ     ERRET         NO FILE ERROR RETURN
      00030  0600 00 0 00214         STZ     LKRET         NO FILE LOCK RETURN
      00031  0441 00 0 00216         LDI     INDICS        RESTORE INDICATORS JUST IN CASE
      00032  0520 00 0 00215         ZET     SETSW         TEST FOR PREVIOUS SETERR
      00033  0020 00 4 00001         TRA     1,4           YES, EXIT
      00034 -0625 00 0 00215         STL     SETSW         NO, SET SWITCH FOR SETERR CALLED
      00035  0634 00 4 00044         SXA     STX4,4        SAVE LINKAGE.
      00036  0074 00 4 00000         TSX     FERRTN,4      SET STANDARD FILE ERROR RETURN
      00037  0 00000 0 00061         PZE     IOERR         ..
      00040  0602 00 0 00054         SLW     OLDERR+1      SAVE PREVIOUS ERROR RETURN
      00041  0074 00 4 00001         TSX     TILOCK,4      SET FILE INTERLOCK RETURN
      00042  0 00000 0 00101         PZE     IOLOK         ..
      00043  0602 00 0 00056         SLW     OLDLOK+1      SAVE PREVIOUS SETTING
      00044  0774 00 4 00000  STX4   AXT     -,4           RESTORE LINKAGE
      00045  0441 00 0 00216         LDI     INDICS        RESTORE INDICATORS
                                     RMT
                              INDICS BSS     1             STORAGE FOR INDICATORS
                                     RMT
      00046  0020 00 4 00001         TRA     1,4           RETURN TO CALLER
1      M1416 3845  PETER R. BOS  4/12/68 ..... FILE SYSTEM ERROR PROCESSOR       11/27/70 2306.0 PAGE 2

                                             RESTORE PREVIOUS ERROR SETTINGS

      00047 -0520 00 0 00215  RSTERR NZT     SETSW         TEST IF ERROR ROUTINE SET UP
      00050  0020 00 4 00001         TRA     1,4           NO, JUST EXIT
      00051  0600 00 0 00215         STZ     SETSW         YES, RESET SWITCH
      00052  0634 00 4 00057         SXA     RSX4,4        SAVE LINKAGE
      00053  0074 00 4 00000  OLDERR TSX     FERRTN,4      RESTORE FILE ERROR RETURN
      00054  0 00000 0 00000         PZE     -             ..
      00055  0074 00 4 00001  OLDLOK TSX     TILOCK,4      RESTORE FILE INTERLOCK RETURN
      00056  0 00000 0 00000         PZE     -             ..
      00057  0774 00 4 00000  RSX4   AXT     -,4           RESTORE LINKAGE
      00060  0020 00 4 00001         TRA     1,4           RETURN


                                             PROCESS FILE I/O ERRORS

      00061  0522 60 0 00003  IOERR  XEC*    SX4           SAVE USER XR4.
      00062  0074 00 4 00005         TSX     SVCPU,4       SAVE MACHINE CONDITIONS
      00063 -0520 00 0 00213         NZT     ERRET         TEST FOR ERROR RETURN GIVEN
      00064  0020 00 0 00075         TRA     NOERR         NONE, SKIP
      00065                          CALL    IODIAG((TMP,,6)) YES, GET FILE NAME
      00067 -0500 00 0 00211         CAL     TMP+4         NAME 1 OF FILE INVOLVED IN ERROR
      00070 -0760 00 0 00003         SSM                   MAKE SIGN BIT SAME AS P BIT
      00071 -0760 00 0 00001         PBT                   ..
      00072  0760 00 0 00003         SSP                   ..
      00073  0560 00 0 00212         LDQ     TMP+5         NAME2 OF FILE INVOLVED
      00074  0020 60 0 00213         TRA*    ERRET         AND GO TO USER SUPPLIED ERROR ROUTINE
      00075  0074 00 4 00122  NOERR  TSX     PRDIAG,4      HERE FOR NO USER ERROR RETURN.
      00076  0074 00 4 00006         TSX     RSTCPU,4      RESTORE MACHINE CONDITIONS
      00077  0522 60 0 00004         XEC*    RX4           RESTORE USER XR4
      00100  0020 00 4 00001         TRA     1,4           RETURN TO USER PROGRAM IGNORING CALL


                                             PROCESS FILE INTERLOCKS

      00101  0522 60 0 00003  IOLOK  XEC*    SX4           SAVE USER XR4
      00102  0074 00 4 00005         TSX     SVCPU,4       SAVE BASIC MACHINE CONDITIONS
      00103  0522 60 0 00004         XEC*    RX4           RESTORE XR4
      00104 -0500 60 4 00002         CAL*    2,4           I/O CALL MUST BE 'OPEN', PICK UP
      00105 -0760 00 0 00003         SSM                   ..
      00106 -0760 00 0 00001         PBT                   FILE NAME FROM CALLING SEQUENCE
      00107  0760 00 0 00003         SSP                   ..
      00110  0560 60 4 00003         LDQ*    3,4           ..
      00111  0520 00 0 00214         ZET     LKRET         TEST FOR USER SUPPLIED ROUTINE
      00112  0020 60 0 00214         TRA*    LKRET         YES, GO TO USER ERROR ROUTINE
      00113  0602 00 0 00200         SLW     LKCOM+1       NO, SET UP FILE LOCK COMMENT
      00114 -0600 00 0 00202         STQ     LKCOM+3       ..
      00115                          CALL    PTCMT((LKCOM,,6)) PRINT COMMENT
      00117  0074 00 4 00006         TSX     RSTCPU,4      RESTORE USER MACHINE CONDITIONS
      00120  0522 60 0 00004         XEC*    RX4           ..
      00121  0020 00 4 00001         TRA     1,4           RETURN IGNORING LOCKED FILE
1      M1416 3845  PETER R. BOS  4/12/68 ..... FILE SYSTEM ERROR PROCESSOR       11/27/70 2306.0 PAGE 3

                                             PRDIAG .... PRINT ERROR DIAGNOSTIC

      00122  0634 00 4 00153  PRDIAG SXA     PRX4,4        SAVE LINKAGE
      00123                          CALL    IODIAG((TMP,,6)) GET FILE SYSTEM DIAGNOSTIC
      00125  0500 00 0 00211         CLA     TMP+4         FILE NAME
      00126  0560 00 0 00212         LDQ     TMP+5         ..
      00127 -0603 00 0 00174         DST     DIAG+10       ..
      00130 -0500 00 0 00206         CAL     TMP+1         NAME OF FCOR ENTRY
      00131  0602 00 0 00172         SLW     DIAG+8        ..
      00132                          CALL    OCRBC(TMP)    LOCATION OF CALL
      00134 -0501 00 0 00221         ORA     =O570000000000 ..
      00135  0602 00 0 00167         SLW     DIAG+5        ..
      00136  0560 00 0 00176         LDQ     I.O           'I/O '
      00137 -0500 00 0 00210         CAL     TMP+3         I/O ERROR CODE IF ANY
      00140 -0100 00 0 00143         TNZ     *+3           IF ZERO, ORDINARY ERROR
      00141  0560 00 0 00222         LDQ     =O575757575757 ..
      00142 -0500 00 0 00207         CAL     TMP+2         ERROR CODE.
      00143 -0600 00 0 00162         STQ     DIAG          ..
      00144  0602 00 0 00205         SLW     TMP           CONVERT ERROR CODE
      00145                          CALL    DERBC(TMP)    ..
      00147 -0501 00 0 00223         ORA     =O575760000000 ..
      00150  0602 00 0 00164         SLW     DIAG+2        ..

      00151  0074 00 4 00155         TSX     PTCMT,4       PRINT DIAGNOSTIC
      00152  0 00014 0 00162         PZE     DIAG,,12      ..
      00153  0774 00 4 00000  PRX4   AXT     -,4           RESTORE LINKAGE
      00154  0020 00 4 00001         TRA     1,4           RETURN TO CALLER


      00155 -0500 00 0 00161  PTCMT  CAL     PTERR         TEST FOR USER SUPPLIED PRINT ROUTINE
      00156 -0320 00 0 00217         ANA     =O77777       ..
      00157 -0100 60 0 00161         TNZ*    PTERR         YES, GO TO USER PRINT ROUTINE
      00160  0021 60 0 00011         TTR*    WRFLX         NO, DEFAULT IS WRFLX


                                             PTERR MUST BE SET UP EXTERNALLY ....
                                                AXT  SUBR,4
                                                PXA  ,4
                                                STA* PTERR

      00161  0021 00 0 00000  PTERR  TTR     **            LOCATION OF USER SUPPLIED PRINT ROUTINE


                                             ..... STORAGE AND CONSTANTS ......

      00162  000000000000     DIAG   VFD     36/0,H30/ERROR,O6/57,36/0,O6/60,
      00163  255151465157
      00164  000000000000
      00165  602646644524            ETC     H30/FOUND,O6/60,H12/AT,O18/605757,
      00166  602163605757
      00167  000000000000            ETC     36/0,O6/60,H12/IN,O6/60,H24/CALL,O6/60,
      00170  603145602321
      00171  434360634660            ETC     H12/TO,O6/60,36/0,O6/60,H18/FOR,
      00172  000000000000
      00173  602646516057            ETC     O12/6057,36/0,36/0
      00174  000000000000
1      M1416 3845  PETER R. BOS  4/12/68 ..... FILE SYSTEM ERROR PROCESSOR       11/27/70 2306.0 PAGE 4

      00175  000000000000
      00176  316146605757     I.O    VFD     H18/I/O,O18/605757
      00177  263143256060     LKCOM  VFD     H24/FILE,O12/6060,36/0,O36/605757575757,
      00200  000000000000
      00201  605757575757
      00202  000000000000            ETC     36/0,O12/6060,H12/IS,O12/6060,H36/LOCKED
      00203  606031626060
      00204  434623422524

      00205                   TMP    BSS     6             TEMPORARY ARRAY

      00213  0021 00 0 00000  ERRET  TTR     **            USER ERROR RETURN
      00214  0021 00 0 00000  LKRET  TTR     **            USER INTERLOCK RETURN
      00215  0 00000 0 00000  SETSW  PZE     0             SWITCH TO INDICATE SETERR CALLED

                                     END
                                              REMOTE SEQUENCES
1      M1416 3845  PETER R. BOS  4/12/68 ..... FILE SYSTEM ERROR PROCESSOR       11/27/70 2306.0 PAGE 1
                        POST PROCESSOR ASSEMBLY DATA

        224 IS THE FIRST LOCATION NOT USED BY THIS PROGRAM

0REFERENCES TO DEFINED SYMBOLS
        176    I.O   136
          4    RX4    77,  103,  120
          3    SX4    61,  101
        205    TMP    66,   67,   73,  124,  125,  126,  130,  133,  137,  142,  144,  146
        162   DIAG   127,  131,  135,  143,  150,  152
        153   PRX4   122
         57   RSX4    52
         44   STX4    35
         10  DERBC   145
        213  ERRET    17,   27,   63,   74
         61  IOERR     0,   37
        101  IOLOK    42
        177  LKCOM   113,  114,  116
        214  LKRET    25,   30,  111,  112
         75  NOERR    64
         27  NOERT    16,   24
          7  OCRBC   132
        155  PTCMT   115,  151
        161  PTERR     0,  155,  157
        215  SETSW    32,   34,   47,   51
          5  SVCPU    62,  102
         11  WRFLX   160
          0 FERRTN    36,   53
        216 INDICS    12,   31,   45
          2 IODIAG    65,  123
         53 OLDERR    40
         55 OLDLOK    43
        122 PRDIAG     0,   75
          6 RSTCPU    76,  117
         47 RSTERR     0
         12 SETERR     0,   12
          1 TILOCK    41,   55

0 NO ERROR IN ABOVE ASSEMBLY.


 SVCPU   BCD 11/27/70 2309.3    1807         00000
1      M1416 3845  PETER R. BOS  4/12/68 ..... USER SAVE/RESTORE ROUTINES ....   11/27/70 2306.1 PAGE 1

                                     PCC     ON
                                     NOLNK
                       00000         ENTRY   SX4           SAVE XR4.
                       00001         ENTRY   SVCPU         SAVE BASIC MACHINE CONDITIONS
                       00053         ENTRY   RSTCPU        RESTORE BASIC MACHINE CONDITIONS
                       00052         ENTRY   RX4           RESTORE XR4
                       00112         ENTRY   RTNILC        RETURN LOCATION
                                     LBL     SVCPU
                                     PCC     OFF


                                             CALLING SEQUENCE ....  XEC*  SX4

      00000  0634 00 4 00116  SX4    SXA     X4,4          SAVE USER XR4.


                                             CALLING SEQUENCE ....
                                                TSX  SVCPU,4
                                               -PZE  ILC-

      00001  0634 00 4 00041  SVCPU  SXA     SVX4,4        SAVE LINKAGE
      00002  0634 00 1 00113         SXA     X1,1          SAVE INDEX REGISTERS
      00003  0634 00 2 00114         SXA     X2,2          ..
      00004  0634 00 3 00115         SXA     X3,3          ..
      00005  0600 00 0 00127         STZ     MTMD          RESET 3-TAG INDIC.
      00006  0774 00 3 00000         AXT     0,3           TEST FOR 3-TAG MODE
      00007  0774 00 1 77777         AXT     -1,1          ..
      00010  0634 00 3 00127         SXA     MTMD,3        ..
      00011  0760 00 0 00016         LMTM                  ..
      00012  0520 00 0 00127         ZET     MTMD          IF IN 3-TAG MODE,
      00013  0634 00 3 00115         SXA     X3,3          SAVE XR3 AGAIN.
      00014  0634 00 5 00117         SXA     X5,5          SAVE REMAINING INDEX REGISTERS
      00015  0634 00 6 00120         SXA     X6,6          ..
      00016  0634 00 7 00121         SXA     X7,7          ..
      00017 -0600 00 0 00124         STQ     MQ            MQ REGISTER
      00020  0602 00 0 00122         SLW     LAC           AC P, 1-35
      00021  0771 00 0 00002         ARS     2             ..
      00022  0601 00 0 00123         STO     SQ            AC S, Q
      00023  0604 00 0 00125         STI     SI            SENSE INDICATORS
      00024  0600 00 0 00126         STZ     OV            RESET AC OVERFLOW INDIC.
      00025 -0140 00 0 00027         TNO     *+2           TEST FOR OVERFLOW TRIGGER ON
      00026 -0625 00 0 00126         STL     OV            YES, SET OVERFLOW INDIC.
      00027  0600 00 0 00130         STZ     DVCK          RESET DIVIDE CHECK INDIC.
      00030  0760 00 0 00012         DCT                   TEST FOR DIVIDE CHECK
      00031 -0625 00 0 00130         STL     DVCK          YES, SET INDICATOR
      00032 -0754 00 0 00000         ZAC                   SAVE SENSE LIGHT STATUS
      00033  0774 00 4 00004         AXT     4,4           .. FOUR SENSE LIGHTS
      00034  0767 00 0 00001         ALS     1             ..
      00035 -0760 00 4 00145         SLT     5,4           TEST SENSE LIGHT
      00036 -0501 00 0 00133         ORA     =1            LIGHT OFF, ADD BIT
      00037  2 00001 4 00034         TIX     *-3,4,1       REPEAT
      00040  0602 00 0 00131         SLW     SLTS          SAVE SENSE LIGHT STATUS
      00041  0774 00 4 00000  SVX4   AXT     -,4           RESTORE LINKAGE
      00042 -0500 00 4 00001         CAL     1,4           TEST FOR ILC SUPPLIED
      00043  0044 00 0 00000         PAI                   ..
      00044  0444 00 0 00134         OFT     =O477777700000 MUST BE OFF
1      M1416 3845  PETER R. BOS  4/12/68 ..... USER SAVE/RESTORE ROUTINES ....   11/27/70 2306.1 PAGE 2

      00045  0020 00 0 00050         TRA     *+3           NO ILC SUPPLIED, SKIP
      00046  0621 00 0 00112         STA     RTNILC        ELSE, SAVE USER ILC
      00047  0020 00 4 00002         TRA     2,4           AND RETURN 2,4
      00050  0634 00 0 00112         ZSA     RTNILC        INDICATE NO ILC
      00051  0020 00 4 00001         TRA     1,4           AND RETURN 1,4 TO USER PROGRAM


                                             CALLING SEQUENCE ....  XEC*  RX4

      00052  0534 00 4 00116  RX4    LXA     X4,4          RESTORE USER XR4


                                             CALLING SEQUENCE ....
                                                TSX  RSTCPU,4

      00053  0634 00 4 00110  RSTCPU SXA     RSX4,4        SAVE LINKAGE
      00054  0221 00 0 00132         DVP     =0            TURN ON DIVIDE CHECK TRIGGER
      00055 -0520 00 0 00130         NZT     DVCK          TEST FOR USER DIVIDE CHECK STATUS
      00056  0760 00 0 00012         DCT                   TURN TRIGGER OFF
      00057  0761 00 0 00000         NOP                   DON'T TRUST HARDWARE
      00060  0774 00 4 00004         AXT     4,4           4 SENSE LIGHTS
      00061 -0500 00 0 00131         CAL     SLTS          GET SENSE LIGHT STATUS
      00062 -0765 00 0 00004         LGR     4             ..
      00063 -0763 00 0 00001         LGL     1             SENSE LIGHT BIT TO 35
      00064  0760 00 0 00001         LBT                   TEST FOR LIGHT ON
      00065  0760 00 4 00145         SLN     5,4           YES, TURN ON SENSE LIGHT
      00066  2 00001 4 00063         TIX     *-3,4,1       LOOP TILL DONE.
      00067  0441 00 0 00125         LDI     SI            RESTORE SENSE INDICATORS
      00070  0560 00 0 00123         LDQ     SQ            AC S, Q BITS
      00071  0500 00 0 00071         CLA     *             ..
      00072  0763 00 0 00001         LLS     1             SET SIGN BIT
      00073  0767 00 0 00044         ALS     36            TURN ON OVERFLOW LIGHT, SET Q BIT.
      00074 -0501 00 0 00122         ORA     LAC           RESTORE REST OF AC
      00075 -0520 00 0 00126         NZT     OV            TEST FOR USER OVERFLOW STATUS
      00076  0140 00 0 00077         TOV     *+1           TURN OFF OVERFLOW TRIGGER
      00077  0560 00 0 00124         LDQ     MQ            RESTORE MQ
      00100  0534 00 1 00113         LXA     X1,1          RESTORE INDEX REGISTERS
      00101  0534 00 2 00114         LXA     X2,2          ..
      00102  0534 00 3 00115         LXA     X3,3          ..
      00103  0534 00 5 00117         LXA     X5,5          ..
      00104  0534 00 6 00120         LXA     X6,6          ..
      00105  0534 00 7 00121         LXA     X7,7          ..
      00106  0520 00 0 00127         ZET     MTMD          TEST FOR 3-TAG MODE
      00107 -0760 00 0 00016         EMTM                  YES, ENTER 3-TAG MODE
      00110  0774 00 4 00000  RSX4   AXT     -,4           RESTORE LINKAGE
      00111  0020 00 4 00001         TRA     1,4           RETURN TO USER PROGRAM


      00112  0021 00 0 00000  RTNILC TTR     **            RETURN LOCATION ..


                                             ...... STORAGE ......
      00113  0 00000 0 00000  X1     PZE                   INDEX REGISTERS
      00114  0 00000 0 00000  X2     PZE                   ..
      00115  0 00000 0 00000  X3     PZE                   ..
      00116  0 00000 0 00000  X4     PZE                   ..
1      M1416 3845  PETER R. BOS  4/12/68 ..... USER SAVE/RESTORE ROUTINES ....   11/27/70 2306.1 PAGE 3

      00117  0 00000 0 00000  X5     PZE                   ..
      00120  0 00000 0 00000  X6     PZE                   ..
      00121  0 00000 0 00000  X7     PZE                   ..
      00122  0 00000 0 00000  LAC    PZE                   ACCUMULATOR
      00123  0 00000 0 00000  SQ     PZE                   AC S, Q BITS
      00124  0 00000 0 00000  MQ     PZE                   MQ REGISTER
      00125  0 00000 0 00000  SI     PZE                   SENSE INDICATORS
      00126  0 00000 0 00000  OV     PZE                   AC OVERFLOW STATUS
      00127  0 00000 0 00000  MTMD   PZE                   3-TAG STATUS
      00130  0 00000 0 00000  DVCK   PZE                   DIVIDE CHECK STATUS
      00131  0 00000 0 00000  SLTS   PZE                   SENSE LIGHTS

                                     END

        LITERALS
      00132  000000000000
      00133  000000000001
      00134  477777700000
1      M1416 3845  PETER R. BOS  4/12/68 ..... USER SAVE/RESTORE ROUTINES ....   11/27/70 2306.1 PAGE 1
                        POST PROCESSOR ASSEMBLY DATA

        135 IS THE FIRST LOCATION NOT USED BY THIS PROGRAM

0REFERENCES TO DEFINED SYMBOLS
        124     MQ    17,   77
        126     OV    24,   26,   75
        125     SI    23,   67
        123     SQ    22,   70
        113     X1     2,  100
        114     X2     3,  101
        115     X3     4,   13,  102
        116     X4     0,   52
        117     X5    14,  103
        120     X6    15,  104
        121     X7    16,  105
        122    LAC    20,   74
         52    RX4     0
          0    SX4     0
        130   DVCK    27,   31,   55
        127   MTMD     5,   10,   12,  106
        110   RSX4    53
        131   SLTS    40,   61
         41   SVX4     1
          1  SVCPU     0
         53 RSTCPU     0
        112 RTNILC     0,   46,   50

0 NO ERROR IN ABOVE ASSEMBLY.


   MAD   BCD 02/20/71 1656.3  162705         00000
