


  LOAD   BCD 02/20/71 1656.0   23977         00000
1            FAP     FOREGROUND BSS LOADER FOR NEW DISK ROUTINES, JUNE 65   LO   05/12/69 1717.9 PAGE 1

                              *SYMBOLIC PROGRAM FOR COMMANDS L, LOAD, LOADGO, VLOAD, NCLOAD.
                              *
                              *
                              *      MODIFIED SEPT 1965, L. ODLAND
                              *      .. REMOVE OLD WRITEAROUNDS (.DLETE AND .DUMP)
                              *      .. REMOVE OPTION (OLD) TO CALL OLD LOADER
                              *
                              *      MODIFIED JUNE 1965, L. ODLAND                                  LO
                              *      .. CHANGE TO IMPROVE TIMING, NEW DISK ROUTINES.                LO
                              *              READ 864 WORDS (2 TRACKS) AT A TIME,                   LO
                              *              TNEN PROGRAM UNPACKS THE BUFFER.                       LO
                              *              SHORTEN THE DBUFS FOR CODING SPACE.                    LO
                              *
                              *      MODIFIED JUNE 1965, M. WAGNER                                  LO
                              *              CHANGE FOR DIFFERENT RETURN FROM GETCF                 LO
                              *
                              *      MODIFIED JUNE 65, ODLAND.  FABRY CGANGES FOR MADBUG.           LO
                              *      .. (CONT) FILNAM AS FIRST TWO ARGUMENTS FOLLOWING
                              *              LOAD, RESUMES FILNAM SAVED AFTER LOAD ERROR.           LO
                              *
                              *      MODIFIED OCTOBER 64   LOUIS POUZIN
                              *      .. (SYS)              SEARCHES LIBRARY IN SYSTEM FILES
                              *      .. (CFL*)             LOADS FROM COMFIL *
                              *      .. (ORG)              SETS STARTING ADDRESS TO THE ENTRY NAME
                              *              SPECIFIED AS NEXT ARGUMENT
                              *      .. (MORE)             DOESN'T PRINT 'NEED'. EXPECTS 'USE' AND GO
                              *                            TO CHNCOM
                              *      .. (NEED)             SETS NEXT NAME INTO LIST OF MISSING S/R
                              *      .. MOVIE TABLE COPIED ONTO TOP OF CORE WHEN 'MOVIE)' IS
                              *      ..      IN SOME TRANSFER VECTOR AND CORE TO MOVE DOWN.
                              *      ..      MOVIE TABLE DUMPED AS A T MODE FILE '(MOVIE TABLE)'
                              *      .. DUMMY ENTRY IN MOVIE TABLE CONTAINS '1ST COMMON NOT USED'
                              *      .. (OLD)              CALLS THE OLD LOADER.
                              *      .. LOC 27 OCT         CONTAINS MOVIE KEYWORD = CAL* $MOVIE)
                              *      .. NCLOAD FIXED FOR COMMON USED, BUT NO ERASABLE.
                              *      .. COMMON ADDRESSES RELOCATED WITH SAME PARITY AS FAP LISTING
                              *      .. VARIOUS MEANS OF SAVING ROOM IN ORDER NOT TO INCREASE LENGTH
                              *      .. THE SAME FAP PROGRAM PRODUCES 2 DIFFERENT LOADERS
                              *      .. ACCORDING TO THE 'MODLOD FAP' FILE INSERTED.
                              *      .. A REGULAR LOADER, WHICH STARTS LOADING AT (5200)8
                              *      .. AND AN EXTENDED LOADER, WITH LARGER TABLES,
                              *      .. LOADING FROM (7000)8
                              *      MODIFIED FEB 1965, L. ODLAND (FAP NOW HAS EVEN PSEUDO OP )     LO


                                     PCC     ON
                              *
                              LOAD   MACRO
                              MODE   SET     0             REGULAR LOADER
                              LOAD   END
                              *
                              HLOAD  MACRO
                              MODE   SET     1             HUGE LOADER
                              HLOAD  END
                              *
1            FAP     FOREGROUND BSS LOADER FOR NEW DISK ROUTINES, JUNE 65   LO   05/12/69 1717.9 PAGE 2

                                     INSERT  MODLOD
      00000                          LOAD
                              * MODLOD SHOULD CONTAIN
                              *      HLOAD                 FOR HUGE LOADER
                              *      LOAD                  FOR REGULAR LOADER
                              *
                              OLD1   MACRO   A
                                     ORG     *-1
                                     PZE     1
                                     NZT     K
                                     TRA     A
                                     STZ     K
                                     TRA     OLDCOM
                              A      SYN     *
                              OLD1   END
                              OLD2   MACRO
                              OLDCOM SYN     *
                                     LAS     OLD
                                     TRA     K-1
                                     TRA     *+2
                                     TRA     K-1
                                     TSX     WRFLX,4
                                     PZE     OLDM,,5
                                     TIA     *+1
                                     BCI     1,DEAD
                              OLD    BCI     1, (OLD)
                              OLDM   BCI     5,ARG (OLD) NO LONGER AVAILABLE
                                     ORG     OLDCOM
                              OLD2   END
                                     COUNT   800
                                     LBL     NCLOAD,PLEASE
                              *              THEN OCTPAT 0 ... FROM 'THERE' THRU (23)8
                                     PMC     ON
                                     PCC     ON
                              *
                              TYPE   MACRO   N,COM,LOC
                                     TSX     WRFLX,4
                                             LOC,,N
                                     PMC     OFF
                                     RMT
                              LOC    BCI     N,COM
                                     RMT
                                     PMC     ON
                              TYPE   END
                              *
                              LOCATE MACRO   A
                              A      EQU     *-HERE+THERE  DEFINE LOCATION SYMBOL FOR USE AFTER MOVE
                              LOCATE END
                              *
             0101 71 1 20000  TSS    OPD     010171120000
                              *
                       00003  NOEP   EQU     3             NO. OF ENTRY POINTS FROM SUPERVISOR
                       00660  NWDS   EQU     432           NO. OF WORDS PER TRACK                   LO
1            FAP     FOREGROUND BSS LOADER FOR NEW DISK ROUTINES, JUNE 65   LO   05/12/69 1717.9 PAGE 3

  BINARY CARD NO. NCLOAD00
      00000  0634 00 4 00446  WHICH  SXA     SVXC,4        SAVE MACHINE CONDITIONS
      00001  0074 00 4 00401         TSX     SAVMC,4       ..
      00002  0441 00 0 04572         LDI     =1            ALL SWITCHES RESET, BUT USELIB SET.
      00003  0074 00 4 04545         TSX     GETCOM,4      FIND OUT WHICH COMMAND THIS IS
      00004  0 00000 0 00000  K      PZE     0
                                     IFF     MODE,1        NEXT IF REG. LOAD
      00005                          OLD1                  TO GO TO MACRO 'OLD2'
                       00004         ORG     *-1                                                              .001

  BINARY CARD NO. NCLOAD01
      00004  0 00000 0 00001         PZE     1                                                                .001
      00005 -0520 00 0 00004         NZT     K                                                                .001
      00006  0020 00 0 00011         TRA     ..001                                                            .001
      00007  0600 00 0 00004         STZ     K                                                                .001
      00010  0020 00 0 02751         TRA     OLDCOM                                                           .001
                       00011  ..001  SYN     *                                                                .001
      00011  0774 00 4 00012         AXT     NUMCOM,4
      00012 -0340 00 4 00031         LAS     COMTAB+NUMCOM,4
      00013  0020 00 0 00015         TRA     *+2
      00014  0020 00 4 00032         TRA     COMTAB+NUMCOM+1,4
      00015  2 00002 4 00012         TIX     *-3,4,2
      00016  0020 00 0 00330         TRA     DEBUG         ASSUME THIS IS A DEBUGGING COMMAND
                              *
                              MAC1   MACRO
                                     BCI     1,     L
                                     TRA     AM
                              MAC1   END
                              *
                              MAC2   MACRO
                                     BCI     1,  LOAD
                                     TRA     LOAD
                                     BCI     1, VLOAD
                                     TRA     VLOAD
                                     BCI     1,NCLOAD
                                     TRA     NCLOAD
                                     BCI     1,LOADGO
                                     TRA     LOADGO
                              MAC2   END
                              *
                                     IFF     MODE,1        REGUL. LOADER
      00017                   COMTAB MAC2
      00017  606043462124            BCI     1,  LOAD                                                         .001
      00020  0020 00 0 03660         TRA     LOAD                                                             .001
      00021  606543462124            BCI     1, VLOAD                                                         .001
      00022  0020 00 0 03645         TRA     VLOAD                                                            .001
      00023  452343462124            BCI     1,NCLOAD                                                         .001
      00024  0020 00 0 03644         TRA     NCLOAD                                                           .001
      00025  434621242746            BCI     1,LOADGO                                                         .001
      00026  0020 00 0 03657         TRA     LOADGO                                                           .001
                                     IFF     MODE          HUGE LOADER
                              COMTAB MAC1
      00027  606060646225            BCI     1,   USE
1            FAP     FOREGROUND BSS LOADER FOR NEW DISK ROUTINES, JUNE 65   LO   05/12/69 1717.9 PAGE 4

  BINARY CARD NO. NCLOAD02
      00030  0441 00 0 01470         LDI     TEMP          RESTORE SI, SINCE REENTRY TO LOADER.
                       00012  NUMCOM EQU     *-COMTAB
      00031 -0500 00 0 01476  (USE)  CAL     CCF           RESTORE CURRENT COMMON FILE SWITCHING
      00032  0074 00 5 01446         TSX     SWD+1,5
                              *      TRA     USE
                              *
                              HEADIN MACRO                 THIS CODE IS BURIED INTO DISK BUFFER
                              *                            AND IS LOST ONCE LOADING IS STARTED
                              *                            PURPOSE, ROOM SAVING.
                              HERE   SYN     *
                              THERE  BOOL    11            MOVING ROUTINE WILL SIT IN LOC. THERE TO 23
                              *
                              *      PROGRAM TO MOVE CORE IMAGE DOWN
                              *
                                     LOCATE  CHNCM.        CHNCOM CALLED BY MOVING ROUTINE
                                     TIA     CHNCM.+1
                              (CHNC) BCI     1,CHNCOM
                                     LOCATE  SETMM.        SETMEM CALLED BY MOVING ROUTINE
                                     TIA     SETMM.+1
                              (SETM) BCI     1,SETMEM
                                     LOCATE  MOVER.
                                     LOCATE  CAL.
                                     LDQ     **,3
                                     LOCATE  SLW.
                                     STQ     **,3
                                     TIX     CAL.,3,1
                                     EMTM
                                     TSX     SETMM.,4
                                     TSX     CHNCM.,4
                                     TXH     1             KEEP CORE IMAGE
                                     LOCATE  PROG.         PROG. SHOULD BE LOCATION 24 OCTAL
                              MOVLEN EQU     *-HERE        LENGTH OF MOVING ROUTINE
                              NEWORG EQU     THERE+MOVLEN+NOEP+1  NEW ORGIN FOR MOVED PROG
                              *
                              MAC3   MACRO
                              AM     SYN     *
                                     TSX     GETCOM,4
                                     PZE     1
                                     AXT     AK-LTAB,4
                                     LAS     AK,4
                                     TRA     *+2
                                     TRA     AK+1,4
                                     TIX     *-3,4,2
                                     SXA     BEGIN         CLEAR INITIAL VALUE FOR IX7
                                     TRA     LOAD          GO TO NORMAL LOADING
                              LTAB   MAC2                  INSERT ARGUMENT TABLE
                              AK     SYN     *
                              MAC3   END
                              *
                                     IFF     MODE
                                     MAC3
                              *
                              *      NCLOAD COMMAND - DOES NOT FORCE ANY COMMON ON USER.
                              *
                              NCLOAD SIR     NC            SET SWITCH NO ERASABLE
1            FAP     FOREGROUND BSS LOADER FOR NEW DISK ROUTINES, JUNE 65   LO   05/12/69 1717.9 PAGE 5

                              *
                              *      VLOAD  COMMAND
                              *
                              VLOAD  AXT     MOVLEN,4      MOVE MOVING ROUTINE TO LOWER CORE
                                     CAL     HERE+MOVLEN,4
                                     SLW     THERE+MOVLEN,4
                                     TIX     *-2,4,1
                                     SIR     NCV           SET SWITCH MOVE CORE DOWN
                              *       SET NEGATIVE RELOCATABLE DECREMENT                            LO
                                     AXC     END+1-NEWORG,4
                                     SXD     RLOCD,4                                                LO
                              *      THIS SEQUENCE IS THERE ONLY BECAUSE THE 'SET'
                              *      PSEUDO DOESN'T WORK IN FAP.
                                     CAL     =O777776777777  DISCARD BIT 17
                                     ANS     RLOCD         TO MAKE EVEN
                              *      END OF SEQUENCE
                                     TRA     BEGIN
                              *
                              *      LOADGO COMMAND
                              *
                              LOADGO SIR     GO
                              *
                              *      LOAD COMMAND
                              *
                              LOAD   ZSD     RLOCD         NO RELOCATION DOWN THE CORE
                              BEGIN  AXT     MODE,7        ADDRESS MAY BE ZEROED FROM MAC3
                                     TXI     *+1,7,1
                                     SXA     *+2,7
                                     TSX     GETCOM,4
                                     PZE     **
                                     LAS     HCONT
                                     TXI     BEGIN1,7,-1
                                     TXI     *+2,7,1                                                LO
                                     TXI     BEGIN1,7,-1
                                     SXA     *+2,7                                                  LO
                                     TSX     GETCOM,4                                               LO
                                     PZE     **                                                     LO
                                     SLW     RSNAME                                                 LO
                                     AXT     CONSIZ,4
                                     CAL     CONEND,4
                                     SLW     CONPAT,4
                                     TIX     *-2,4,1
                                     CAL     CONTRA
                                     SLW     GODEAD
                              BEGIN1 TSX     GETCF,4
                                     TZE     USE1
                                     STA     HCF           SAVE HOME COMMON FILE NO.                LO
                                     STA     CCF                                                    LO
                                     TRA     USE1
                              CONSEQ EQU     *
                                     CAL     HCF
                                     TSX     SWD,5
                                     CAL     A+6                                                    LO
                                     LDQ     A+7                                                    LO
                                     TIA     A+5                                                    LO
                                     BCI     1,NEXCOM                                               LO
1            FAP     FOREGROUND BSS LOADER FOR NEW DISK ROUTINES, JUNE 65   LO   05/12/69 1717.9 PAGE 6

                                     BCI     1,RESUME                                               LO
                              RSNAME BCI     1,******                                               LO
                              CONEND EQU     *
                              CONSIZ EQU     CONEND-CONSEQ
                              HCONT  BCI     1,(CONT)
                              CONTRA TRA     A
                                     ORG     HERE
                              HEADIN END
                              *
1            FAP     FOREGROUND BSS LOADER FOR NEW DISK ROUTINES, JUNE 65   LO   05/12/69 1717.9 PAGE 7
                           USE                 ENTRY FROM FLEXO USE COMMAND

                                     TTL     USE                 ENTRY FROM FLEXO USE COMMAND
                              *
      00033  0774 00 7 00000  USE    AXT     0,7
                       00034  USE1   SYN     *
      00034  0057 00  000144         RIR     BUG+TSPASS+LIBSW
      00035 -0534 00 4 01226         LXD     TAG,4         REMOVE DUMMY ENTRIES FROM TABLE
      00036  0600 00 4 02603         STZ     TABL-1,4
      00037  0600 00 4 02602         STZ     TABL-2,4
      00040  0600 00 4 02601         STZ     TABL-3,4
      00041  0600 00 4 02604         STZ     TABL,4
      00042  0074 00 4 04557         TSX     GETMEM,4
      00043  0621 00 0 01471         STA     S
                              *
1            FAP     FOREGROUND BSS LOADER FOR NEW DISK ROUTINES, JUNE 65   LO   05/12/69 1717.9 PAGE 8
                                               REQUEST PROCESSING SECTION

                                     TTL                         REQUEST PROCESSING SECTION
                              *
                       00044  NEXT   SYN     *
      00044  0074 00 4 04560         TSX     USRFIL,4      RESET TO USER'S FILES
      00045  0057 00  020040         RIR     LIBSW+ENAM
      00046  0054 00  000100         RFT     TSPASS
      00047  0020 00 0 00161         TRA     DONE
                       00050  SKLB   SYN     *
      00050  1 00001 7 00051         TXI     *+1,7,1
      00051  0634 00 7 00053         SXA     LSTCNT,7
      00052  0074 00 4 04545         TSX     GETCOM,4
      00053  0 00000 0 00000  LSTCNT PZE     **

  BINARY CARD NO. NCLOAD03
      00054  0774 00 4 00020         AXT     NOSPEC,4      SEARCH FOR SPECIAL ARGUMENTS
      00055 -0340 00 4 00145         LAS     SPECTB+NOSPEC,4
      00056  0020 00 0 00060         TRA     *+2
      00057  0020 00 0 00123         TRA     XECSPC        GO ACT ON IT
      00060  2 00002 4 00055         TIX     *-3,4,2       ASSUME FILE NAME IF NOT FOUND
      00061  0602 00 0 01500  J      SLW     NAME1         SAVE NAME
      00062 -0320 00 0 04630         ANA     =O777777770077  ERASE COMMON FILE NO.
      00063  0322 00 0 04625         ERA     =H(CFL0)      CHECK PATTERN
      00064 -0100 00 0 00072         TNZ     Y             NOT A COMMON FILE NO.
      00065 -0500 00 0 01500         CAL     NAME1
      00066  0771 00 0 00006         ARS     6
      00067 -0320 00 0 04577         ANA     =O77          COMMON FILE NO.
      00070  0074 00 5 01445         TSX     SWD,5         SWITCH TO THIS COMFIL
      00071  0020 00 0 00050         TRA     SKLB          TO NEXT ARG.
      00072  0056 00  020000  Y      RNT     ENAM
      00073  0020 00 0 00106         TRA     P             NOT AN ENTRY NAME
      00074 -0500 00 0 01500         CAL     NAME1
      00075  0074 00 4 01275         TSX     LJUST,4       LEFT JUSTIFY
      00076  0054 00  400000         RFT     ORG
      00077  0602 00 0 01467         SLW     ORIGIN        SAVE STARTING ENTRY NAME

  BINARY CARD NO. NCLOAD04
      00100  0057 00  400000         RIR     ORG
      00101  0074 00 5 01245         TSX     CKPLL,5       CHECK ROUTINE ALREADY LOADED
      00102  0020 00 0 00104         TRA     *+2           YES
      00103  0074 00 4 01257         TSX     MISNAM,4      NO. ENTER IN MISSING S/R LIST
      00104  0056 00  000040         RNT     LIBSW
      00105  0020 00 0 00044         TRA     NEXT

      00106  0074 00 4 00526  P      TSX     OPEN,4        FIND THIS FILE                           LO
 TD   00107  3 00000 0 04612         TXH     =HR           OPEN FOR READING                         LO
 TD   00110  3 00000 0 01500         TXH     NAME1         NAME LIST                                LO
 TD   00111  3 00000 0 01501         TXH     NAME1+1                                                LO
 TD   00112  3 00000 0 04607         TXH     =-0                                                    LO
 TD   00113  3 00000 0 04607         TXH     =-0                                                    LO
 TD   00114  3 00000 0 00461         TXH     OPNERR        COMPLAIN AND GO TO NEXT                  LO
 TD   00115  3 00000 0 04511         TXH     OPNLOC                                                 LO
      00116  0634 00 0 00540         SXA     RDCNT,0       INITIALIZE POSITION IN BUFFER            LO
      00117  0600 00 0 00524         STZ     RDEFT         INITIALIZE EOF TEST                      LO
      00120  0074 00 4 00505         TSX     RDFILE,4      READ FIRST 2 TRACKS                      LO
      00121  0057 00  001630         RIR     LLFLG+EFLIB+LIBLD+SKIP+MULPC
1            FAP     FOREGROUND BSS LOADER FOR NEW DISK ROUTINES, JUNE 65   LO   05/12/69 1717.9 PAGE 9
                                               REQUEST PROCESSING SECTION

      00122  0020 00 0 00537         TRA     BSS           GO READ FILE
      00123  0522 00 4 00146  XECSPC XEC     SPECTB+NOSPEC+1,4       EXECUTE TABLE ENTRY

  BINARY CARD NO. NCLOAD05
      00124  0020 00 0 00050         TRA     SKLB
                              *
                              *      TABLE OF SPECIAL ARGUMENT PARAMETERS
                              *
      00125 -377777777777     SPECTB OCT     777777777777  FENCE
      00126  0020 00 0 00161         TRA     DONE
      00127  607462706234            BCI     1, (SYS)      USE NEXT AS A LIBRARY IN SYSTEM FILE
      00130  0020 00 0 00153         TRA     SYSLIB
      00131  744331222534            BCI     1,(LIBE)      USE NEXT ARG AS LIBRARY
      00132  0020 00 0 00154         TRA     LIBRY
      00133  744543312234            BCI     1,(NLIB)      KILL TSS LIBRARY SEARCH
      00134  0057 00  000001         RIR     USELIB
      00135  607443312234            BCI     1, (LIB)      RESTOR TSS LIBRARY SEARCH
      00136  0055 00  000001         SIR     USELIB
      00137  607446512734            BCI     1, (ORG)      SET STARTING ADDRESS
      00140  0055 00  420000         SIR     ORG+ENAM
      00141  744446512534            BCI     1,(MORE)      GO CHNCOM
      00142  0020 00 0 00145         TRA     MORE
      00143  744525252434            BCI     1,(NEED)      ENTER NEXT NAME IN MISSING S/R LIST
      00144  0055 00  020000         SIR     ENAM
                       00020  NOSPEC EQU     *-SPECTB
                              *

      00145 -0500 00 0 01475  MORE   CAL     HCF
      00146  0074 00 5 01446         TSX     SWD+1,5       RESTORE HOME COMMON FILE
      00147  0604 00 0 01470         STI     TEMP          SAVE LOADER'S CONDITIONS

  BINARY CARD NO. NCLOAD06
      00150  0074 00 4 04556         TSX     CHNCOM,4
 TD   00151  3 00000 0 00001         TXH     1
      00152  0020 00 0 00031         TRA     (USE)

      00153  0074 00 4 04554  SYSLIB TSX     TSSFIL,4      LIBRARY IN SYSTEM FILES

                       00154  LIBRY  SYN     *             LIBRARY FILE
      00154  0074 00 5 01166         TSX     TVPASS,5      WHAT IS NEEDED...
      00155 -0520 00 0 02605         NZT     FMR           ARE THERE ANY MISSING ROUTINES
      00156  1 00001 7 00044         TXI     NEXT,7,1      NO. GO TO NEXT ARGUMENT
      00157  0055 00  000040         SIR     LIBSW
      00160  0020 00 0 00050         TRA     SKLB

                       00161  DONE   SYN     *
      00161  0074 00 5 01166         TSX     TVPASS,5      FILL UP TRANSFER VECTORS                 LO
      00162 -0500 00 0 04617         CAL     =HTSLIB1           GET LIBRARY FILE NAME
      00163  0520 00 0 02605         ZET     FMR           ARE THERE ANY MISSING ROUTINES
      00164  0020 00 0 00363         TRA     NEEDLB        YES. TRY LIBRARY.
                              *
1            FAP     FOREGROUND BSS LOADER FOR NEW DISK ROUTINES, JUNE 65   LO   05/12/69 1717.9 PAGE 10
                           START               ENTRY FROM FLEXO START COMMAND

                                     TTL     START               ENTRY FROM FLEXO START COMMAND
                              *
                       00165  START  SYN     *
      00165 -0500 00 0 01475         CAL     HCF
      00166  0074 00 5 01445         TSX     SWD,5         RESTORE INITIAL SWITCHING
      00167  0054 00  000004         RFT     BUG
      00170  0020 00 0 00200         TRA     START1        DO NOT NEED MAIN PROG TO DEBUG
      00171 -0500 00 0 01467         CAL     ORIGIN        CHECK STARTING ENTRY LOADED
      00172  0074 00 5 01245         TSX     CKPLL,5
      00173  0020 00 0 00177         TRA     AH            LOADED

  BINARY CARD NO. NCLOAD07
      00174  0100 00 0 01363         TZE     NOPRG         NO ENTRY SET AND NO (MAIN)
      00175  0074 00 4 01257         TSX     MISNAM,4
      00176  0020 00 0 00363         TRA     NEEDLB        GO TRY TO LOAD IT
      00177  0621 00 0 00313  AH     STA     PROG          SET STARTING ADDRESS
                       00200  START1 SYN     *
      00200 -0534 00 6 01226         LXD     TAG,6         NUMBER OF ENTRIES IN MOVIE TABLE
      00201  1 00004 6 00202         TXI     *+1,6,4       INCREASE BY 4, FOR DUMMY ENTRIES
      00202  0560 00 0 02601         LDQ     TABL-3
      00203 -0600 00 0 01477         STQ     SNAME         IN CASE OF CORE OVERFLOW
      00204  3 00764 6 01366         TXH     TBOVL,6,TABLNG  CHECKS OVERFLOW
      00205 -0500 00 0 01471         CAL     S
      00206  0056 00  044000         RNT     NCV+MOVT      SKIP IF MOVIE NEED BE MOVED
      00207  0020 00 0 00213         TRA     R
      00210  0754 00 6 00000         PXA     ,6
      00211  0074 00 5 01311         TSX     INCMEM,5      INCREASE M.B. FOR MOVIE
      00212  0621 00 0 00241         STA     W             NEW M.B.
      00213  0734 00 3 00000  R      PAX     ,3
      00214  0074 00 4 01244         TSX     RLOCD,4       RELOCATE IN LOWER CORE
      00215  0754 00 3 00000         PXA     ,3
      00216  1 77777 3 00217         TXI     *+1,3,-1      SETS NEW ORIGIN FOR MOVIE
      00217  0621 00 6 02610         STA     TABL+4,6

  BINARY CARD NO. NCLOAD08
      00220  0560 00 0 01473         LDQ     LOWCOM        SETS LOWEST COMMON NOT USED
      00221 -0600 00 6 02606         STQ     TABL+2,6      INTO DUMMY ENTRY
      00222  0560 00 0 02603         LDQ     PRMSK
      00223 -0600 00 6 02607         STQ     TABL+3,6
      00224  0560 00 0 00125         LDQ     FENCE
      00225 -0600 00 6 02605         STQ     TABL+1,6
      00226  0634 00 6 00027         SXA     KEYWD,6
      00227  0056 00  040000         RNT     NCV
      00230 -0500 00 0 00240         CAL     U             ANY WORD WITH TABL+1 IN THE ADDRESS
      00231  0402 00 0 00027         SUB     KEYWD         ELSE, LAC = M.B.
      00232  0621 00 0 00027         STA     KEYWD
      00233 -0634 00 6 00027         SXD     KEYWD,6       FILL UP KEYWORD
      00234 -0535 00 4 00027         LDC     KEYWD,4
      00235  0056 00  044000         RNT     NCV+MOVT
      00236  0020 00 0 00243         TRA     V
      00237  0634 00 3 02604         SXA     TABL,3
      00240  0560 00 6 02605  U      LDQ     TABL+1,6      MOVE MOVIE TABLE
      00241 -0600 00 6 00000  W      STQ     **,6          ONTO THE TOP OF THE USER'S PROGRAM
      00242  2 00001 6 00240         TIX     U,6,1
                       00243  V      SYN     *
1            FAP     FOREGROUND BSS LOADER FOR NEW DISK ROUTINES, JUNE 65   LO   05/12/69 1717.9 PAGE 11
                           START               ENTRY FROM FLEXO START COMMAND

      00243 -0534 00 6 00027         LXD     KEYWD,6

  BINARY CARD NO. NCLOAD09
      00244  1 77774 6 00245         TXI     *+1,6,-4
      00245  0054 00  040000         RFT     NCV
      00246  0054 00  004000         RFT     MOVT
      00247  1 00004 6 00251         TXI     *+2,6,4
      00250  0600 00 0 00027         STZ     KEYWD         MOVIE TABLE WILL BE LOST
      00251 -0634 00 6 00272         SXD     X,6
      00252  1 02605 4 00253         TXI     *+1,4,TABL+1  ADDRESS OF END OF TABLE
      00253  0634 00 4 00272         SXA     X,4           SET IN DISK CALL
      00254  0074 00 4 00531         TSX     DELFIL,4      DELETE OLD MOVIE FILE                    LO
 TD   00255  3 00000 0 01502         TXH     MOVFIL                                                 LO
 TD   00256  3 00000 0 01503         TXH     MOVFIL+1                                               LO
 TD   00257  3 00000 0 00260         TXH     *+1           NOT FOUND OKAY                           LO
      00260  0074 00 4 00526         TSX     OPEN,4        OPEN NEW MOVIE FILE                      LO
 TD   00261  3 00000 0 04624         TXH     =HW           FOR WRITING                              LO
 TD   00262  3 00000 0 01502         TXH     MOVFIL                                                 LO
 TD   00263  3 00000 0 01503         TXH     MOVFIL+1                                               LO
 TD   00264  3 00000 0 04572         TXH     =1            TEMPORARY MODE                           LO
 TD   00265  3 00000 0 04573         TXH     =2            ON THE DISK                              LO
      00266  0074 00 4 00532         TSX     WRFILE,4      DUMP MOVIE TABLE                         LO
 TD   00267  3 00000 0 01502         TXH     MOVFIL                                                 LO

  BINARY CARD NO. NCLOAD10
 TD   00270  3 00000 0 01503         TXH     MOVFIL+1                                               LO
 TD   00271  3 00000 0 04571         TXH     =0                                                     LO
      00272  3 00000 0 00000  X      TXH     **,,**                                                 LO
 TD   00273  3 00000 0 04607         TXH     =-0                                                    LO
 TD   00274  3 00000 0 04607         TXH     =-0                                                    LO
      00275  0074 00 4 00530         TSX     CLOSE,4       CLOSE MOVIE FILE                         LO
 TD   00276  3 00000 0 01502         TXH     MOVFIL                                                 LO
 TD   00277  3 00000 0 01503         TXH     MOVFIL+1                                               LO
      00300  0054 00  000004         RFT     BUG           IS THIS A DEBUGGING COMMAND
      00301  0020 00 0 00373         TRA     GOBUG         YES
      00302  0054 00  040000         RFT     NCV           **SHOULD CORE BE MOVED DOWN
      00303  0020 00 0 00315         TRA     MOVR          ***YES, GO DO IT
      00304  0604 00 0 01470         STI     TEMP          SAVE LOADER'S CONDITIONS
      00305 -0760 00 0 00016         EMTM
      00306  0056 00  000002         RNT     GO            *** IS THIS LOAD AND GO
      00307  0074 00 4 04556  AJ     TSX     CHNCOM,4      RETURN TO TSS
 TD   00310  3 00000 0 00001         TXH     1             A ONE FOR DORMNT CALL TO CHNCOM
      00311                          TYPE    2,(EXECUTION.)
      00311  0074 00 4 04551         TSX     WRFLX,4                                                          .001
      00312  0 00002 0 04562                 ..002,,2                                                         .001
                                     PMC     ON                                                               .001
      00313  0074 00 4 00000  PROG   TSX     **,4          TRANSFER TO MAIN PROGRAM OR STARTING ADDRES

  BINARY CARD NO. NCLOAD11
      00314  0020 00 0 00307         TRA     AJ
                              *
                              *
                              *      REPEAT TTR TO (MAIN) FOR ALL ENTRY POINTS FROM SUPERVISOR
      00315 -0500 00 0 00313  MOVR   CAL     PROG          GET TTR TO MAIN
                       00316  DUP    DUP     1,NOEP
1            FAP     FOREGROUND BSS LOADER FOR NEW DISK ROUTINES, JUNE 65   LO   05/12/69 1717.9 PAGE 12
                           START               ENTRY FROM FLEXO START COMMAND

      00316  0602 00 0 00024         SLW     PROG.+*-DUP
      00317  0602 00 0 00025
      00320  0602 00 0 00026
                              *      SET UP LOWER CORE TO MOVE USER PROGRAM
      00321  0534 00 3 01471         LXA     S,3
      00322  0634 00 3 00015         SXA     CAL.,3
      00323  0074 00 4 01244         TSX     RLOCD,4
      00324  0634 00 3 00016         SXA     SLW.,3
      00325  0754 00 3 00000         PXA     ,3
      00326  2 00030 3 00327         TIX     *+1,3,NEWORG  NO. OF WORDS TO BE MOVED
      00327  0020 00 0 00015         TRA     MOVER.        GO MOVE CORE DOWN
                              *
                              *      DEBUGGING COMMANDS -
                              *
                       00330  DEBUG  SYN     *
      00330  0442 00 0 01470         OSI     TEMP          RESTORE LOADER'S CONDITIONS
      00331  0056 00  140000         RNT     NCV+COMSET
      00332  0020 00 0 00336         TRA     D             OK
      00333                          TYPE    5,( ILLEGAL SEQUENCE OF COMMANDS.)
      00333  0074 00 4 04551         TSX     WRFLX,4                                                          .001
      00334  0 00005 0 04564                 ..003,,5                                                         .001
                                     PMC     ON                                                               .001
      00335  0020 00 0 01352         TRA     A             EXIT TO DORMNT
                       00336  D      SYN     *
      00336 -0634 00 0 01244         ZSD     RLOCD
      00337  0055 00  000005         SIR     BUG+USELIB

  BINARY CARD NO. NCLOAD12
      00340  0057 00  240142         RIR     GO+TSPASS+LIBSW+NCV+NC
      00341  0774 00 7 00000         AXT     0,7
      00342 -0340 00 0 00371         LAS     DBGNAM        CHECK FOR PM
      00343  0020 00 0 00345         TRA     *+2
      00344 -0500 00 0 00372         CAL     DBGNAM+1      GET 'FLEXPM' ENTRY NAME
      00345  0074 00 4 01275         TSX     LJUST,4       LEFT JUSTIFY ANYHOW
      00346  0602 00 0 00400         SLW     DBNAME              SAVE THE NAME
      00347  0074 00 5 01245         TSX     CKPLL,5             SEE IF IT IS LOADED YET
      00350  0020 00 0 00375         TRA     DBOK                YES, GO TO IT
      00351  0600 00 0 02605         STZ     FMR
      00352  0074 00 4 01257         TSX     MISNAM,4      ENTER MISSING NAME IN TABLE
      00353 -0534 00 4 01226         LXD     TAG,4               GET POINTER TO 'DUMMY' ENTRIES IN MOV
      00354  0600 00 4 02604         STZ     TABL,4              REMOVE THEM
      00355  0600 00 4 02603         STZ     TABL-1,4
      00356  0600 00 4 02602         STZ     TABL-2,4
      00357  0600 00 4 02601         STZ     TABL-3,4
      00360  0074 00 4 04557         TSX     GETMEM,4            GET THE CURRENT MEMORY BOUND
      00361  0621 00 0 01471         STA     S                   SAVE IT FOR LOADING THE NEW PROGRAM
      00362 -0500 00 0 04620         CAL     =HTSLIB2      GET DEBUG LIBRARY FILE NAME
                              *
1            FAP     FOREGROUND BSS LOADER FOR NEW DISK ROUTINES, JUNE 65   LO   05/12/69 1717.9 PAGE 13


                                     TTL
                              *
                       00363  NEEDLB SYN     *
      00363  0054 00  000001         RFT     USELIB        CAN WE USE TSSLIB

  BINARY CARD NO. NCLOAD13
      00364  0054 00  000100         RFT     TSPASS        HAVE WE TRIED TSSLIB.
      00365  0020 00 0 01326         TRA     NEED          YES, GO LIST MISSING ROUTINES.
      00366  0055 00  000140         SIR     TSPASS+LIBSW  NO, TRY IT
      00367  0074 00 4 04554         TSX     TSSFIL,4      ALLOW READING OF TSS FILES
      00370  0020 00 0 00061         TRA     J             TO LIBRARY PROCESS
                              *
                              *      TABLE OF DEBUG COMMANDS WHICH NEED SPECIAL PROCESSING
                              *
      00371  606060604744     DBGNAM BCI     1,    PM
      00372  264325674744            BCI     1,FLEXPM
                              *
                              *
      00373 -0500 00 0 00400  GOBUG  CAL     DBNAME        GET THE ENTRY POINT NAME
      00374  0074 00 5 01245         TSX     CKPLL,5       FIND ITS ORIGIN
      00375  0621 00 0 00377  DBOK   STA     DBSTRT              SAVE THE ENTRY POINT
      00376  0074 00 4 00426         TSX     RESMC,4             RESTORE THE MACHINE CONDITIONS
      00377  0020 00 0 01330  DBSTRT TRA     NEED1         AND GO TO THE SUBPROGRAM
                              *                            ADDRESS MAY BE MODIFIED
                              *
      00400  0 00000 0 00000  DBNAME                             THE DESIRED ENTRY NAME
                              *
1            FAP     FOREGROUND BSS LOADER FOR NEW DISK ROUTINES, JUNE 65   LO   05/12/69 1717.9 PAGE 14
                           SAVE THE MACHINE CONDITIONS FOR 'DEBUG' ENTRY

                                     TTL     SAVE THE MACHINE CONDITIONS FOR 'DEBUG' ENTRY
                              *
                       00401  SAVMC  SYN     *
      00401 -0600 00 0 00455         STQ     BMQ                 SAVE THE MQ.
      00402  0604 00 0 00456         STI     BSI                 THE SI.
      00403  0634 00 1 00450         SXA     SVXA,1              SAVE THE XR'S (EXCEPT XR 4)
      00404  0634 00 2 00447         SXA     SVXB,2
      00405  0634 00 3 00440         SXA     X3,3
      00406  0774 00 2 00000         AXT     0,2
      00407  0774 00 3 77777         AXT     -1,3

  BINARY CARD NO. NCLOAD14
      00410  0634 00 2 00454         SXA     3XMOD,2       SAVE INDEX MODE
 D    00411 -3 00000 2 00414         TXL     H,2           SKIP IF 7IX'S MODE
      00412  0760 00 0 00016         LMTM
      00413  0634 00 3 00440         SXA     X3,3
      00414  0634 00 5 00441  H      SXA     X5,5
      00415  0634 00 6 00442         SXA     X6,6
      00416  0634 00 7 00443         SXA     X7,7
      00417  0602 00 0 00457         SLW     BAC                 SAVE THE LOGICAL AC.
      00420  0771 00 0 00002         ARS     2                   SHIFT AND
      00421  0601 00 0 00460         STO     BSQ                 SAVE THE SIGN, Q, AND P BITS
      00422  0600 00 0 00453         STZ     OVF
      00423 -0140 00 0 00425         TNO     *+2
      00424 -0625 00 0 00453         STL     OVF           SAVE OVERFLOW
      00425  0020 00 4 00001         TRA     1,4                 AND EXIT
                              *
1            FAP     FOREGROUND BSS LOADER FOR NEW DISK ROUTINES, JUNE 65   LO   05/12/69 1717.9 PAGE 15
                           RESTORE THE MACHINE CONDITIONS FOR 'DEBUG' ENTRY

                                     TTL     RESTORE THE MACHINE CONDITIONS FOR 'DEBUG' ENTRY
                              *
      00426  1 77777 4 00427  RESMC  TXI     *+1,4,-1            BUMP THE RETURN POINTER
      00427  0636 00 4 00452         SCA     RESMX,4       THEN SAVE IT
      00430  0500 00 0 00430         CLA     *
      00431  0560 00 0 00460         LDQ     BSQ
      00432  0763 00 0 00001         LLS     1             SET BIT S
      00433  0767 00 0 00044         ALS     36            TURNS OVERFLOW ON. SET Q

  BINARY CARD NO. NCLOAD15
      00434 -0501 00 0 00457         ORA     BAC           RESTORE AC
      00435 -0520 00 0 00453         NZT     OVF           SKIP OVERFLOW ON
      00436  0140 00 0 00437         TOV     *+1           OVERFLOW OFF
      00437  0560 00 0 00455         LDQ     BMQ                 RESTORVHE MQ.
      00440  0774 00 3 00000  X3     AXT     **,3
      00441  0774 00 5 00000  X5     AXT     **,5
      00442  0774 00 6 00000  X6     AXT     **,6
      00443  0774 00 7 00000  X7     AXT     **,7
      00444  0520 00 0 00454         ZET     3XMOD
      00445 -0760 00 0 00016         EMTM
      00446  0774 00 4 00000  SVXC   AXT     **,4
      00447  0774 00 2 00000  SVXB   AXT     **,2
      00450  0774 00 1 00000  SVXA   AXT     **,1
      00451  0441 00 0 00456         LDI     BSI                 RESTORE THE SI.
      00452  0020 00 0 00000  RESMX  TRA     **                  EXIT
                              *
      00453  0 00000 0 00000  OVF    PZE     0             NON ZERO IF OVERFLOW ON
      00454  0 00000 0 00000  3XMOD  PZE     0             77777 IF 3 X'S, 0 IF 7 X'S
      00455  0 00000 0 00000  BMQ                                MQ. STORAGE
      00456  0 00000 0 00000  BSI                                SI. STORAGE
      00457  0 00000 0 00000  BAC                                LOGICAL AC. STORAGE

  BINARY CARD NO. NCLOAD16
      00460  0 00000 0 00000  BSQ                                SIGN, QBIT STORAGE
1            FAP     FOREGROUND BSS LOADER FOR NEW DISK ROUTINES, JUNE 65   LO   05/12/69 1717.9 PAGE 16
                           ERROR RETURN FROM OPEN, NEW DISK ROUTINES              LO

                                     TTL     ERROR RETURN FROM OPEN, NEW DISK ROUTINES              LO
                              *
                              *ERROR RETURN FROM OLD SEEK WAS  PZE  NEXT,                           LO
                              *DISK ROUTINES COMPLAINED, AND PROGRAM WENT TO NEXT.                  LO
                              *WE MUST COMPLAIN FOR NEW DISK ROUTINES.                              LO
                              *
      00461  0560 00 0 01500  OPNERR LDQ     NAME1         THE FILE NAME                            LO
      00462 -0500 00 0 04511         CAL     OPNLOC        THE ERROR CODE                           LO
      00463  0322 00 0 04575         ERA     =12           TEST NOT FOUND                           LO
      00464 -0100 00 0 00471         TNZ     OPNER1        NO, GO PRINT IT                          LO
      00465 -0600 00 0 01527         STQ     COM3+1                                                 LO
      00466  0074 00 4 04551         TSX     (WFLX),4      YES, PRINT NOT FOUND                     LO
      00467  0 00005 0 01526         PZE     COM3,,5                                                LO
      00470  0020 00 0 00044         TRA     NEXT          RETURN TO NEXT                           LO

      00471 -0600 00 0 01527  OPNER1 STQ     COM4+7                                                 LO
      00472  0560 00 0 04511         LDQ     OPNLOC        THE ERROR CODE                           LO
      00473 -0754 00 0 00000         PXD     0,0                                                    LO
      00474  0221 00 0 04574         DVP     =10           DIVIDE BY 10                             LO
      00475 -0130 00 0 00000         XCL                                                            LO
      00476 -0773 00 0 00036         RQL     30            2 DIGITS                                 LO
      00477 -0763 00 0 00022         LGL     18                                                     LO
      00500 -0501 00 0 01517         ORA     COM4-1        FOR DIAGNOSTIC                           LO
      00501  0602 00 0 01522         SLW     COM4+2                                                 LO
      00502  0074 00 4 04551         TSX     (WFLX),4      PRINT DIAGNOSTIC                         LO
      00503  0 00011 0 01520         PZE     COM4,,9                                                LO

  BINARY CARD NO. NCLOAD17
      00504  0020 00 0 00044         TRA     NEXT          RETURN TO NEXT                           LO
1            FAP     FOREGROUND BSS LOADER FOR NEW DISK ROUTINES, JUNE 65   LO   05/12/69 1717.9 PAGE 17
                           SUBROUTINE RDFILE FOR NEW DISK ROUTINES                LO

                                     TTL     SUBROUTINE RDFILE FOR NEW DISK ROUTINES                LO
                              *
                              *SUBROUTINE TO READ 864 WORDS (2 TRACKS) TO DBUF1.                    LO
                              *
      00505  0634 00 4 00515  RDFILE SXA     RFILX,4       SAVE CALLING LIMKAGE                     LO
      00506  0074 00 4 00527         TSX     RDWAIT,4      READ AND DELAY                           LO
 TD   00507  3 00000 0 01500         TXH     NAME1                                                  LO
 TD   00510  3 00000 0 01501         TXH     NAME1+1                                                LO
 TD   00511  3 00000 0 04571         TXH     =0                                                     LO
      00512  3 01540 0 02751         TXH     DBUF1,,2*NWDS    NEXT 2 TRACKS TO DBUF1                LO
 TD   00513  3 00000 0 00517         TXH     RDEOF                                                  LO
 TD   00514  3 00000 0 00525         TXH     REFCT                                                  LO
      00515  0774 00 4 00000  RFILX  AXT     **,4          RESTORE LINKAGE                          LO
      00516  0020 00 4 00001         TRA     1,4           RETURN                                   LO
                              *
                              *END OF FILE RETURN, SET TO EXIT WHEN BUFFER EMPTY                    LO
                              *
      00517  0535 00 4 00525  RDEOF  LAC     REFCT,4       NUMBER OF WORDS READ                     LO
      00520 -0634 00 4 00543         SXD     RDTST,4       FOR EOF TEST                             LO
      00521 -0625 00 0 00524         STL     RDEFT         SET EOF FLAG                             LO
      00522 -3 00000 4 00545         TXL     RDOUT,4,0     OUT FOR NO WORDS READ                    LO
      00523  0020 00 0 00515         TRA     RFILX         EXIT FROM RDFILE                         LO
      00524  0 00000 0 00000  RDEFT  PZE
      00525  0 00000 0 00000  REFCT  PZE                                                            LO
                              *ADD NEW SUPERVISOR ENTRIES AND CONSTANTS.                            LO
      00526  0101 00 0 04610  OPEN   TIA     =HOPEN                                                 LO
      00527  0101 00 0 04611  RDWAIT TIA     =HRDWAIT                                               LO

  BINARY CARD NO. NCLOAD18
      00530  0101 00 0 04602  CLOSE  TIA     =HCLOSE                                                LO
      00531  0101 00 0 04604  DELFIL TIA     =HDELFIL                                               LO
      00532  0101 00 0 04623  WRFILE TIA     =HWRFILE                                               LO
                              *
1            FAP     FOREGROUND BSS LOADER FOR NEW DISK ROUTINES, JUNE 65   LO   05/12/69 1717.9 PAGE 18
                           READ SECTION.. READS ONE BINARY RECORD (SINGLE BUFFER)

                                     TTL     READ SECTION.. READS ONE BINARY RECORD (SINGLE BUFFER)
                              *
      00533 -0500 00 0 01477  AL     CAL     SNAME         PICK 1ST NAME ON 1ST PROG CARD
      00534  0074 00 4 01257         TSX     MISNAM,4      ENTER IN MISSING LIST
      00535  0055 00  000200         SIR     LLFLG         AND SET FLAG FOR ONE MORE PASS
      00536  0055 00  000010  SKPPR  SIR     SKIP
                       00537  BSS    SYN     *
                              *MOVE 28 WORDS FROM INPUT BUFFER DBUF1 TO WORKING BUFFER.             LO
      00537  0634 00 1 00563  READ   SXA     READX,1       SAVE XRS                                 LO
      00540  0774 00 1 00000  RDCNT  AXT     **,1          XR1 = POSITION IN DBUF1                  LO
      00541 -0520 00 0 00524         NZT     RDEFT         HAS EOF BEEN REACHED                     LO
      00542  0020 00 0 00551         TRA     READ1         NO, CONTINUE                             LO
      00543  3 00000 1 00551  RDTST  TXH     READ1,1,**    YES, IS BUFFER EMPTY                     LO
      00544 -3 00000 1 00551         TXL     READ1,1,0     NO, CONTINUE                             LO
      00545  0074 00 4 00530  RDOUT  TSX     CLOSE,4       YES, CLOSE THE FILE                      LO
 TD   00546  3 00000 0 01500         TXH     NAME1                                                  LO
 TD   00547  3 00000 0 01501         TXH     NAME1+1                                                LO
      00550  0020 00 0 01154         TRA     EFLS          AND EXIT                                 LO
      00551  0774 00 2 00034  READ1  AXT     28,2          NO, MOVE 28 WORDS                        LO
      00552  3 76240 1 00556  READ2  TXH     READ3,1,-2*NWDS   IS BUFFER EMPTY                      LO
      00553 -3 00000 1 00556         TXL     READ3,1,0                                              LO

  BINARY CARD NO. NCLOAD19
      00554  0074 00 4 00505         TSX     RDFILE,4      YES, READ NEXT 2 TRACKS                  LO
      00555  0774 00 1 00000         AXT     0,1           NEW POSITION IN DBUF1                    LO
      00556  0500 00 1 02751  READ3  CLA     DBUF1,1       MOVE FROM READ BUFFER                    LO
      00557  0601 00 2 04545         STO     IM+28,2          TO WORKIN G BUFFER                    LO
      00560  1 77777 1 00561         TXI     *+1,1,-1                                               LO
      00561  2 00001 2 00552         TIX     READ2,2,1                                              LO
      00562  0634 00 1 00540         SXA     RDCNT,1       SAVE FINAL POSITION IN BUFFER            LO
      00563  0774 00 1 00000  READX  AXT     **,1          RESTORE XRS                              LO
                              *
1            FAP     FOREGROUND BSS LOADER FOR NEW DISK ROUTINES, JUNE 65   LO   05/12/69 1717.9 PAGE 19
                           CARD PROCESSING SECTION.. ENTERED AFTER READ

                                     TTL     CARD PROCESSING SECTION.. ENTERED AFTER READ
                              *
                       00564  LBIN   SYN     *
      00564 -0500 00 0 04511         CAL     IM
      00565 -0320 00 0 04627         ANA     =O777777000000  KEEP LEFT HALF
      00566 -0057 00  777777         RIL     /             CLEAR INDICATORS LEFT
      00567  0043 00 0 00000         OAI                   SET INDICATORS LEFT
      00570 -0056 00  000500         LNT     500           IS IT BINARY
      00571  0020 00 0 01373         TRA     ILLCD         NO, ILLEGAL
      00572 -0057 00  000500         RIL     500           YES, REMOVE COL BIN BITS FROM WORD COUNT
      00573  0604 00 0 01470         STI     TEMP          SET WORD COUNT IN DECREMENT
      00574 -0534 00 2 01470         LXD     TEMP,2        WORD COUNT
      00575 -3 00000 2 00537         TXL     READ,2,0      IGNORE CARD WITH ZERO WORD COUNT
      00576  3 00026 2 01373         TXH     ILLCD,2,22    TEST FOR ILLEGAL WORD COUNT
      00577 -0054 00  400000         LFT     400000

  BINARY CARD NO. NCLOAD20
      00600  0020 00 0 00605         TRA     TSTPC         PROGRAM CARD
      00601 -0056 00  200000         LNT     200000
      00602  0020 00 0 00610         TRA     TSTSK         ABSOLUTE CARD
      00603  0057 00  000020         RIR     MULPC         MUST BE RELOCATABLE CARD
      00604  1 00002 2 00610         TXI     TSTSK,2,2     SO INCREASE WORD COUNT BY 2
                              *
      00605  0054 00  000020  TSTPC  RFT     MULPC
      00606  0020 00 0 00610         TRA     TSTSK
      00607  0057 00  000010         RIR     SKIP
      00610  0054 00  000010  TSTSK  RFT     SKIP
      00611  0020 00 0 00537         TRA     READ          YES, IGNORE CARD
      00612  0520 00 0 04512  SUM    ZET     IM+1          NO, DO CHECKSUM
      00613 -0054 00  100000         LFT     100000
      00614  0020 00 0 00624         TRA     SUMOK         IGNORE CHECKSUM
      00615 -0500 00 0 04511         CAL     IM            COMPUTE CHECKSUM
      00616  0774 00 4 00000         AXT     0,4           ..
      00617  0361 00 4 04513         ACL     IM+2,4        ..
      00620  1 77777 4 00621         TXI     *+1,4,-1      ..
      00621  2 00001 2 00617         TIX     *-2,2,1       ..
      00622  0322 00 0 04512         ERA     IM+1          ..
      00623 -0100 00 0 01414         TNZ     SUMNG         CHECKSUM ERROR

  BINARY CARD NO. NCLOAD21
      00624 -0534 00 2 01470  SUMOK  LXD     TEMP,2        RESTORE WORD COUNT
      00625  0774 00 1 00000         AXT     0,1           RESTORE IR1
      00626 -0054 00  400000         LFT     400000
      00627  0020 00 0 01034         TRA     PRCD          PROGRAM CARD, SO PROCESS IT
      00630  0056 00  001000         RNT     LIBLD         IF LOADING IN PROCESS
      00631  0020 00 0 00536         TRA     SKPPR         ELSE SKIP PROGRAM
      00632 -0056 00  200000         LNT     200000
      00633  0020 00 0 00705         TRA     ABSCD         ABSOLUTE CARD, SO LOAD IT
                              *
1            FAP     FOREGROUND BSS LOADER FOR NEW DISK ROUTINES, JUNE 65   LO   05/12/69 1717.9 PAGE 20
                                               LOAD RELOCATABLE CARD

                                     TTL                         LOAD RELOCATABLE CARD
                              *
                              *                            IX1=0 ON BEGINNING
      00634  0534 00 3 04511         LXA     IM,3
      00635  0774 00 6 00001         AXT     1,6           DIRECT RELOCATION CODE
      00636  0074 00 4 01230         TSX     RLOC,4        MAKE ABSOLUTE LOADING ADDRESS
      00637 -0634 00 3 00640         SXD     *+1,3         SAVE IT
      00640  1 00000 2 00641         TXI     *+1,2,**
      00641  0634 00 2 00702         SXA     LRG,2
      00642 -0534 00 2 01470         LXD     TEMP,2        RESTORE WORD COUNT
      00643  0774 00 1 00000         AXT     0,1
      00644  0560 00 0 04513         LDQ     IM+2          1ST WORD RELOC BITS
      00645  0774 00 5 00045         AXT     37,5
      00646  0055 00  010000         SIR     DECREM        SET DECREMENT FLAG
      00647  0774 00 6 00000  L      AXT     0,6           IX6 HOLDS RELOCATION CODE

  BINARY CARD NO. NCLOAD22
      00650  0020 00 0 00656         TRA     B
      00651 -0763 00 0 00001  .AA    LGL     1
      00652  0760 00 0 00001         LBT
      00653  0020 00 0 00662         TRA     STP           IX6 = 0 FOR ABS. = 1 FOR DIR RELOC
      00654  1 00001 6 00655         TXI     *+1,6,1
      00655  3 00001 6 00662         TXH     STP,6,1       IX6 = 2 FOR REV RELOC
      00656  2 00001 5 00651  B      TIX     .AA,5,1       IX5 = BITS COUNT
      00657  0560 00 0 04514         LDQ     IM+3          2ND WORD RELOC BITS
      00660  0774 00 5 00044         AXT     36,5
      00661  0020 00 0 00651         TRA     .AA
      00662 -0500 00 1 04515  STP    CAL     IM+4,1        WORD TO LOAD
      00663 -0734 00 3 00000         PDX     ,3
      00664  0056 00  010000         RNT     DECREM
      00665  0734 00 3 00000         PAX     ,3
 D    00666 -3 00000 6 00671         TXL     F,6           SKIP IF NO RELOCATION
      00667  0074 00 4 01230         TSX     RLOC,4
      00670  0074 00 4 01244         TSX     RLOCD,4       SUBTRACT DISTANCE CORE WILL BE MOVED DOWN
      00671  0056 00  010000  F      RNT     DECREM
      00672  0020 00 0 00677         TRA     E             ADDRESS FIELD
      00673 -0754 00 3 00000         PXD     ,3

  BINARY CARD NO. NCLOAD23
      00674  0622 00 1 04515         STD     IM+4,1
      00675  0057 00  010000         RIR     DECREM
      00676  0020 00 0 00647         TRA     L
      00677  0754 00 3 00000  E      PXA     ,3
      00700  0621 00 1 04515         STA     IM+4,1
      00701 -0500 00 1 04515         CAL     IM+4,1        MOVE IM
      00702  0602 00 2 00000  LRG    SLW     **,2          TO ABSOLUTE LOCATION
      00703 -2 00001 2 00537         TNX     READ,2,1
      00704  1 77777 1 00646         TXI     L-1,1,-1
                              *
1            FAP     FOREGROUND BSS LOADER FOR NEW DISK ROUTINES, JUNE 65   LO   05/12/69 1717.9 PAGE 21
                                              LOAD ABSOLUTE CARD

                                     TTL                        LOAD ABSOLUTE CARD
                              *
      00705  0534 00 3 04511  ABSCD  LXA     IM,3          RELOCATE ABS CARD TO LOWER MEMORY
      00706  0074 00 4 01243         TSX     COMN,4
      00707  0634 00 3 00711         SXA     *+2,3
      00710 -0500 00 1 04513         CAL     IM+2,1        MOVE IM
      00711  0602 00 1 00000         SLW     **,1          TO ABS LOCATION
      00712 -2 00001 2 00537         TNX     READ,2,1
      00713  1 77777 1 00710         TXI     *-3,1,-1      ..
                              *
1            FAP     FOREGROUND BSS LOADER FOR NEW DISK ROUTINES, JUNE 65   LO   05/12/69 1717.9 PAGE 22
                                               PROCESS PROGRAM CARD

                                     TTL                         PROCESS PROGRAM CARD
                              *
      00714 -0534 00 6 01226  PLPC   LXD     TAG,6
      00715 -0754 00 2 00000         PXD     0,2           DECR. = NO. OF TABLE ENTRIES
      00716  0401 00 0 01226         ADM     TAG
      00717  0622 00 0 01226         STD     TAG           UPDATE TAG FOR ENTRIES ON THIS CARD

  BINARY CARD NO. NCLOAD24
      00720  0054 00  000020         RFT     MULPC         IS THIS A CONTINUATION CARD
      00721  1 00002 1 01011         TXI     LPFA,1,2      YES
      00722  0500 00 0 04514         CLA     IM+3          LOWEST COMMON                            LO
      00723  0760 00 0 00003         SSP                   DELETE SIGN (EVEN SIGNAL)                LO
      00724  0056 00  100000         RNT     COMSET        HAS COMMON RELOCATION BEEN SET
      00725  0020 00 0 00736         TRA     1STCOM        NO, SO SET IT
      00726  0100 00 0 00760         TZE     LPCA          ZERO IF NO COMMON IN A FAP PROG.
      00727  0734 00 3 00000         PAX     ,3
      00730  0054 00  200000         RFT     NC
      00731  3 77461 3 01425         TXH     COMERR,3,-ERASLE-1  WITH NCLOAD ERASABLE NOT ALLOWED
      00732  0560 00 0 01473         LDQ     LOWCOM
      00733 -0130 00 0 00000         XCL
      00734  0040 00 0 01425         TLQ     COMERR        ATTEMPT TO CHANGE COMMON RELOC.
      00735  0020 00 0 00760         TRA     LPCA
                              *
      00736  0100 00 0 00741  1STCOM TZE     *+3           SET COMMON RELOCATION
      00737 -0340 00 0 04600         LAS     =O77461
      00740  0057 00  200000         RIR     NC            ERASABLE MUST BE USED
      00741 -0500 00 0 04600         CAL     =O77461       SET TO 77461 IF ERASABLE USED
      00742  0621 00 0 01473         STA     LOWCOM        LOWEST COMMON NOT USED
      00743  0760 00 0 00006         COM

  BINARY CARD NO. NCLOAD25
      00744  0400 00 0 01471         ADD     S             + END OF LOADER+1
      00745  0760 00 0 00001         LBT                   SKIP IF ODD
      00746  0020 00 0 00750         TRA     *+2
      00747  0400 00 0 04572         ADD     =1            COMMON RELOCATION MADE EVEN
      00750  0734 00 3 00000         PAX     ,3
      00751 -0634 00 3 01243         SXD     COMN,3
      00752  2 04632 3 00753         TIX     *+1,3,END+1   COMMON LENGTH INCLUDING ERASABLE
      00753  0054 00  200000         RFT     NC
      00754  1 77462 3 00755         TXI     *+1,3,-ERASLE  REMOVE ERASABLE IF NCLOAD
      00755  0754 00 3 00000         PXA     ,3            SET MEMORY INCREMENT
      00756  0074 00 5 01311         TSX     INCMEM,5      SET PROGRAM BREAK
      00757  0055 00  100000         SIR     COMSET        SET SWITCH COMMON SET
                       00760  LPCA   SYN     *
      00760  1 77776 2 00761         TXI     *+1,2,-2      ADJUST WORD COUNT FOR FIRST PROGRAM CARD
      00761  0634 00 2 01024         SXA     LPG,2         ..
      00762  3 00762 6 01366         TXH     TBOVL,6,TABLNG-2  TABLE OVERFLOW TEST
      00763  0534 00 3 01471         LXA     S,3           LOCATION OF THIS VECTOR
                              ****************** IBM MOD 37, CHANGE FOR EVEN PSEUDO OP ********     LO
      00764  0754 00 3 00000         PXA     ,3                                                     LO
      00765  0560 00 0 04514         LDQ     IM+3          LOAD 4TH WORD OF PROGRAM CARD            LO
      00766  0162 00 0 00773         TQP     *+5           IS EVEN LOADING REQUIRED, NO             LO
      00767  0760 00 0 00001         LBT                   YES, IS ADDRESS ALREADY EVEN             LO
1            FAP     FOREGROUND BSS LOADER FOR NEW DISK ROUTINES, JUNE 65   LO   05/12/69 1717.9 PAGE 23
                                               PROCESS PROGRAM CARD

  BINARY CARD NO. NCLOAD26
      00770  0020 00 0 00773         TRA     *+3           YES                                      LO
      00771  1 00001 3 00772         TXI     *+1,3,1       NO, ADD ONE                              LO
      00772  0634 00 3 01471         SXA     S,3           AND STORE NEW LOAD ADDRESS               LO
                              ****************** END OF IBM MOD 37 ****************************     LO
      00773  0074 00 4 01244         TSX     RLOCD,4
      00774  0634 00 3 01474         SXA     LADD,3        RELOCATED DOWN THE CORE
      00775  0754 00 3 00000         PXA     ,3
      00776  0621 00 6 02604         STA     TABL,6        ENTER IT IN MOVIE TABLE
      00777  0500 00 0 04513         CLA     IM+2          8L, NO. IN VECTOR
      01000  0622 00 6 02603         STD     TABL-1,6      ENTER IT
      01001  0621 00 0 01472         STA     T             PROGRAM LENGTH
      01002 -0734 00 2 00000         PDX     0,2           NO. IN VECTOR
      01003  3 00000 2 01006         TXH     *+3,2,0       TEST FOR NO TV
      01004 -0500 00 0 02603         CAL     PRMSK         TXL MARKER FOR NO TV
      01005  0602 00 6 02603         SLW     TABL-1,6      ..
      01006 -0500 00 0 01472         CAL     T             UPDAT M. B.                              LO
      01007  0074 00 5 01311         TSX     INCMEM,5      BY PROGRAM LENGTH                        LO
      01010  0534 00 2 01024         LXA     LPG,2         RESTORE WORD COUNT
      01011 -0500 00 1 04516  LPFA   CAL     IM+5,1        RELOCATE ENTRY POINTS
      01012  0400 00 0 01474         ADD     LADD          ..
      01013  0621 00 1 04516         STA     IM+5,1        ..

  BINARY CARD NO. NCLOAD27
      01014  1 77776 1 01015         TXI     *+1,1,-2      ..
      01015  2 00002 2 01011         TIX     LPFA,2,2      ..
      01016  0774 00 1 00000         AXT     0,1
      01017 -0534 00 4 01226         LXD     TAG,4         NO. OF ENTRIES IN TABLE
      01020  3 00764 4 01366         TXH     TBOVL,4,TABLNG    ERROR, TABLE OVERFLOW
      01021  1 77777 4 01022         TXI     *+1,4,-1
      01022  0054 00  000020         RFT     MULPC
      01023  1 00002 1 01024         TXI     *+1,1,2       ADDJUST IR1 FOR CONT. PR. CARD
      01024  0774 00 2 00000  LPG    AXT     **,2          WORD COUNT ON PROGRAM CARD
      01025  0500 00 1 04515         CLA     IM+4,1        MOVE NAMES AND ENTRY POINTS
      01026  0601 00 4 02604         STO     TABL,4        INTO BSS TABLE
      01027  1 77777 4 01030         TXI     *+1,4,-1      ..
      01030  1 77777 1 01031         TXI     *+1,1,-1      ..
      01031  2 00001 2 01025         TIX     LPG+1,2,1     ..
      01032  0055 00  000020  AA     SIR     MULPC
      01033  0020 00 0 00537         TRA     READ          GET NEXT CARD
                              *
1            FAP     FOREGROUND BSS LOADER FOR NEW DISK ROUTINES, JUNE 65   LO   05/12/69 1717.9 PAGE 24
                                               LIBRARY SEARCH SECTION

                                     TTL                         LIBRARY SEARCH SECTION
                              *
                       01034  PRCD   SYN     *
      01034  0634 00 2 01024         SXA     LPG,2         SAVE WORD COUNT
      01035  0054 00  000020  LSPC   RFT     MULPC         IS THIS A CONTINUATION PROGRAM CARD
      01036  1 00002 1 01075         TXI     LSBB,1,2      YES, SET FOR 8L NAME
      01037  0054 00  000040         RFT     LIBSW         SKIP IF NOT LIBRARY

  BINARY CARD NO. NCLOAD28
      01040  0056 00  001000         RNT     LIBLD         WERE WE LOADING A PREVIOUS ROUTINE
      01041  1 00000 0 01057  LSTRV  TXI     LSB,,**       NO
                              *
                       01042  LSA    SYN     *                                                      LO
      01042 -0534 00 2 01041         LXD     LSTRV,2       CHECK TRA VEC OF LAST ROUTINE LOADED
      01043 -3 00000 2 01057         TXL     LSB,2,0       SKIP IF NO VECTOR
      01044  0754 00 2 00000         PXA     ,2            (E-O)COMPUTE LAST LOC.+1 OF T.V.
      01045  0400 00 0 01474         ADD     LADD          (E-0)LOAD ADDRESS OF LAST ROUTINE
      01046  0737 00 3 00000         PAC     ,3
      01047  0074 00 4 01244         TSX     RLOCD,4       RELOCATE UP THE CORE
      01050  0636 00 3 01051         SCA     LSA1,3
      01051 -0500 00 2 00000  LSA1   CAL     **,2          NAME IN VECTOR
      01052  0074 00 5 01245         TSX     CKPLL,5       CHECK FOR PREVIOUS LOADING
      01053  0020 00 0 01056         TRA     LSA2          ALREADY LOADED
      01054  0074 00 4 01257         TSX     MISNAM,4      ENTER NAME IN MISSING S/R LIST
      01055  0055 00  000200         SIR     LLFLG
      01056  2 00001 2 01051  LSA2   TIX     LSA1,2,1      GET NEXT NAME IN VECTOR
                              *
1            FAP     FOREGROUND BSS LOADER FOR NEW DISK ROUTINES, JUNE 65   LO   05/12/69 1717.9 PAGE 25
                           EXAMINE PROGRAM CARD FOR NAMES OF MISSING ROUTINES

                                     TTL     EXAMINE PROGRAM CARD FOR NAMES OF MISSING ROUTINES
                              *
                       01057  LSB    SYN     *
      01057  0054 00  000400         RFT     EFLIB
      01060  0020 00 0 01151         TRA     LSB1          END OF FILE
      01061  0055 00  001000         SIR     LIBLD         SET LOADING FILE
      01062  0056 00  000040         RNT     LIBSW
      01063  0020 00 0 01067         TRA     LSB2          GO LOAD FILE

  BINARY CARD NO. NCLOAD29
      01064  0057 00  001000         RIR     LIBLD         LIBRARY. CONDITIONAL LOADING
      01065 -0520 00 0 02605         NZT     FMR           ANY MORE MISSING ROUTINES
      01066  0020 00 0 01145         TRA     LSF           NO. CLOSE FILE
                       01067  LSB2   SYN     *
      01067 -0500 00 0 04515         CAL     IM+4          GET FIRST NAME
      01070  0602 00 0 01477         SLW     SNAME         FOR DIAGNOSTICS
      01071  0500 00 0 04513         CLA     IM+2          8L
      01072  0622 00 0 01041         STD     LSTRV         NO. IN TRANSFER VECTOR
      01073  0534 00 2 01024         LXA     LPG,2         RESTORE IR2
      01074  1 77776 2 01075         TXI     *+1,2,-2      REDUCE WORD COUNT BY 2
      01075  0535 00 4 01100  LSBB   LAC     NMR,4
      01076  1 02605 4 01077         TXI     *+1,4,FMR
      01077  0634 00 4 01103         SXA     LSC,4
      01100 -0774 00 5 00000  NMR    AXC     **,5          NUMBER OF MISSING ROUTINES
      01101  0500 00 1 04516         CLA     IM+5,1        IX1 = 0 ON BEGINNING, 2 FOR MULPC ON
      01102 -0120 00 0 01116  LSBB1  TMI     LSD1          LOOK FOR PRIMARY NAMES FIRST
      01103 -0500 00 5 00000  LSC    CAL     **,5          MISSING NAME
      01104  0100 00 0 01115         TZE     LSD
      01105  0322 00 1 04515         ERA     IM+4,1        NAME ON PROGRAM CARD
      01106 -0100 00 0 01115         TNZ     LSD
      01107  0056 00  001000         RNT     LIBLD         IF NOT YET LOADING

  BINARY CARD NO. NCLOAD30
      01110  0056 00  000020         RNT     MULPC         IF NOT 1ST PROG. CARD
      01111  0020 00 0 01113         TRA     *+2           ELSE, ENTRY FITS
      01112  0020 00 0 00533         TRA     AL            THEN TOO LATE. FOR NEXT PASS
      01113  0055 00  001000         SIR     LIBLD         FOUND
      01114  0600 60 0 01103         STZ*    LSC           REMOVE NAME FROM LIST OF MISSING ROUTINES
      01115  2 00001 5 01103  LSD    TIX     LSC,5,1
      01116  1 77776 1 01117  LSD1   TXI     *+1,1,-2      SET FOR NEXT NAME ON PROGRAM CARD
      01117  2 00002 2 01100         TIX     NMR,2,2
      01120  0774 00 1 00000         AXT     0,1           RESTORE IR1
      01121  0502 00 0 01102         CLS     LSBB1
      01122  0601 00 0 01102         STO     LSBB1         CHANGE TMI TO TPL OR TPL TO TMI
      01123 -0120 00 0 01130         TMI     LSE           HAVE LOOKED AT SECONDARY NAMES YET
      01124  0534 00 2 01024         LXA     LPG,2         NO
      01125  0054 00  000020         RFT     MULPC         IS THAT A CONTINUATION PROGRAM CARD
      01126  1 00002 1 01100         TXI     NMR,1,2       YES, ADJUST FOR 8L NAME
      01127  1 77776 2 01100         TXI     NMR,2,-2      NO, REDUCE WORD COUNT
                       01130  LSE    SYN     *
      01130  0056 00  001000         RNT     LIBLD         IF LOADING IN PROCESS
      01131  0020 00 0 01032         TRA     AA            ELSE NO DELETIONS
      01132  0535 00 5 01100         LAC     NMR,5         NUMBER OF MISSING ROUTINES
      01133  0774 00 3 00000         AXT     0,3
1            FAP     FOREGROUND BSS LOADER FOR NEW DISK ROUTINES, JUNE 65   LO   05/12/69 1717.9 PAGE 26
                           EXAMINE PROGRAM CARD FOR NAMES OF MISSING ROUTINES

  BINARY CARD NO. NCLOAD31
      01134  0522 00 0 01103  AD     XEC     LSC           GET MISSING ENTRY NAMES
      01135  0100 00 0 01140         TZE     AG
      01136  0602 00 3 02605         SLW     FMR,3         MAKE UP FRESH LIST
      01137  1 77777 3 01140         TXI     *+1,3,-1
      01140  2 00001 5 01134  AG     TIX     AD,5,1
      01141  0634 00 3 01100         SXA     NMR,3         SAVE COUNT OF MISSING S/R
      01142  0600 00 3 02605         STZ     FMR,3         FREES ONE CELL AHEAD
      01143  0534 00 2 01024         LXA     LPG,2         RESTORE WORD COUNT
      01144  0020 00 0 00714         TRA     PLPC          GO PROCESS PROGRAM CARD AND LOAD PROGRAM
                              *
                              *
      01145  0074 00 4 00530  LSF    TSX     CLOSE,4       HERE FOR NO MORE MISSING ROUTINES        LO
 TD   01146  3 00000 0 01500         TXH     NAME1                                                  LO
 TD   01147  3 00000 0 01501         TXH     NAME1+1                                                LO
      01150  0020 00 0 00044         TRA     NEXT          RETURN FOR NEXT REQUEST
                              *
      01151  0056 00  000040  LSB1   RNT     LIBSW
      01152  0020 00 0 00044         TRA     NEXT          NEXT ARGUMENT
      01153  0020 00 0 01157         TRA     EFLS1         YES, RETURN TO REPOSITION TAPE
      01154  0055 00  000400  EFLS   SIR     EFLIB         END OF FILE
      01155  0054 00  001000         RFT     LIBLD         WERE WE LOADING A PROGRAM
      01156  0020 00 0 01042         TRA     LSA           YES, GO FINISH UP
      01157  0520 00 0 02605  EFLS1  ZET     FMR           ARE THERE ANY MORE MISSING SUBROUTINES

  BINARY CARD NO. NCLOAD32
      01160  0056 00  000200         RNT     LLFLG         IS LOWER LEVEL FLAG ON
      01161  0020 00 0 00044         TRA     NEXT          BACK TO REQUEST SECTION
      01162 -0500 00 0 04617         CAL     =HTSLIB1      REGULAR LIBRARY NAME
      01163  0056 00  000004         RNT     BUG           IS THIS A DEBUG COMMAND
      01164  0020 00 0 00106         TRA     P             MAKE ANOTHER PASS ON SAME LIBRARY
      01165  0020 00 0 00061         TRA     J             TRY REGULAR LIBRARY
                              *
1            FAP     FOREGROUND BSS LOADER FOR NEW DISK ROUTINES, JUNE 65   LO   05/12/69 1717.9 PAGE 27
                           TVPASS.. REPLACE TRANSFER VECTORS W/ TTR'S

                                     TTL     TVPASS.. REPLACE TRANSFER VECTORS W/ TTR'S
                              *
                       01166  TVPASS SYN     *
      01166  0774 00 2 00004         AXT     4,2           SET IR2 FOR PASS2. SKIP MOVIE.
      01167  0020 00 0 01225         TRA     PASS2
                              *
      01170 -0500 00 2 02605  VEC    CAL     TABL+1,2
      01171  0100 00 0 01225         TZE     PASS2         SKIP (MAIN) ENTRY NAME
                              *
      01172 -0320 00 0 02603  G3     ANA     PRMSK         SVN 0,,0
      01173 -0100 00 0 01225         TNZ     PASS2         BCD OR NO TRA VECTOR
      01174  0500 00 2 02605         CLA     TABL+1,2      NUMBER
      01175 -0734 00 6 00000         PDX     0,6           IN VECTOR TO IR4
      01176  0771 00 0 00022         ARS     18            PLUS
      01177  0401 00 2 02606         ADM     TABL+2,2      LOCATION OF THIS VECTOR
      01200  0737 00 3 00000         PAC     ,3
      01201  0074 00 4 01244         TSX     RLOCD,4       RELOCATE UP THE CORE
      01202  0636 00 3 01204         SCA     BA,3
      01203 -0534 00 1 01226  NXTVC  LXD     TAG,1

  BINARY CARD NO. NCLOAD33
      01204 -0500 00 6 00000  BA     CAL     **,6          BCD NAME IN VECTOR
      01205 -0320 00 0 02603         ANA     PRMSK         SVN 0,,0
      01206  0100 00 0 01224         TZE     TIXVEC        NOT BCD
      01207 -0500 60 0 01204         CAL*    BA
      01210 -0340 00 1 02605  NXTNAM LAS     TABL+1,1      LOOK FOR
      01211  0021 00 0 01213  TTR    TTR     G4            NAME
      01212  0020 00 0 01216         TRA     FIX
      01213  2 00002 1 01210  G4     TIX     NXTNAM,1,2
      01214  0074 00 4 01257         TSX     MISNAM,4      ENTER NAME IN MISSING S/R LIST
      01215  0020 00 0 01224         TRA     TIXVEC        NEXT WORD IN T.V.
                              *
      01216  0500 00 0 01211  FIX    CLA     TTR           FOUND, INSERT TTR
      01217  0601 60 0 01204         STO*    BA                   ..
      01220  0500 00 1 02606         CLA     TABL+2,1      PICK UP
      01221  0621 60 0 01204         STA*    BA            AND STORE STARTING ADDRESS
      01222  3 00004 1 01224         TXH     TIXVEC,1,4    SKIP IF NOT 'MOVIE)'
      01223  0055 00  004000         SIR     MOVT
      01224  2 00001 6 01203  TIXVEC TIX     NXTVC,6,1
      01225  1 00002 2 01226  PASS2  TXI     *+1,2,2
      01226 -3 00004 2 01170  TAG    TXL     VEC,2,4       NO. OF TABLE ENTRIES IN DECR. INTIAL = 4
      01227  0020 00 5 00001         TRA     1,5
                              *
1            FAP     FOREGROUND BSS LOADER FOR NEW DISK ROUTINES, JUNE 65   LO   05/12/69 1717.9 PAGE 28
                           ROUTINE FOR ADJUSTING REL. FIELD WHILE LOADING

                                     TTL     ROUTINE FOR ADJUSTING REL. FIELD WHILE LOADING
                              *

  BINARY CARD NO. NCLOAD34
      01230 -0500 00 0 01230  RLOC   CAL     *             JUST TO GET PFX=-0
      01231  0630 00 0 01237         STP     C             SET TMI
      01232  0754 00 3 00000         PXA     ,3            ADDRESS TO RELOCATE
      01233 -0760 00 0 00003         SSM
      01234 -3 00001 6 01236         TXL     *+2,6,1       SKIP IF DIRECT RELOCATION
      01235  0630 00 0 01237         STP     C             SET TPL
      01236  0400 00 0 01472         ADD     T             + PROGRAM LENGTH
      01237 -0120 00 0 01243  C      TMI     COMN          CHANGED TO TPL IF REVERSE RELOC.
      01240  0402 00 0 01471         SUB     S             - CURRENT MEM BOUND
      01241  0734 00 3 00000         PAX     ,3
      01242  0020 00 4 00001         TRA     1,4           RELOCATED ADDRESS IN IX3
      01243  1 00000 3 01242  COMN   TXI     *-1,3,**      ** = COMN
      01244  1 00000 3 01242  RLOCD  TXI     *-2,3,0 -END-1+NEWORG   CORE RELOCATION, MADE EVEN     LO
                              *
1            FAP     FOREGROUND BSS LOADER FOR NEW DISK ROUTINES, JUNE 65   LO   05/12/69 1717.9 PAGE 29
                           ROUTINE TO SEE IF PROGRAM ALREADY IN CORE

                                     TTL     ROUTINE TO SEE IF PROGRAM ALREADY IN CORE
                                             RETURNS 1,5 IF ALREADY LOADED OR 2,5 IF NOT
                              *
                       01245  CKPLL  SYN     *
      01245 -0534 00 4 01226         LXD     TAG,4
      01246 -3 00000 4 01254         TXL     CKPLR,4,0     OMIT CHECK FOR NO ENTRIES
      01247  1 77777 4 01250         TXI     *+1,4,-1
      01250 -0340 00 4 02604         LAS     TABL,4
      01251  0020 00 0 01253         TRA     *+2
      01252  0020 00 0 01255         TRA     CKPL1         PROGRAM ALREADY LOADED
      01253  2 00002 4 01250         TIX     *-3,4,2       CHECK ALTERNATE ENTRIES
                       01254  CKPLR  SYN     *             NOT IN

  BINARY CARD NO. NCLOAD35
      01254  0020 00 5 00002         TRA     2,5
                              *
      01255 -0500 00 4 02605  CKPL1  CAL     TABL+1,4            GET ITS ENTRY POINT
      01256  0020 00 5 00001         TRA     1,5
                              *. . . . . . . . . . . . . . . . . . . . . . . . . . . . . . . . . . . .

1            FAP     FOREGROUND BSS LOADER FOR NEW DISK ROUTINES, JUNE 65   LO   05/12/69 1717.9 PAGE 30
                           MISNAM. ENTERS NAME IN MISSING ROUTINES LIST.

                                     TTL     MISNAM. ENTERS NAME IN MISSING ROUTINES LIST.
                              *
                       01257  MISNAM SYN     *
      01257  0774 00 3 00000         AXT     0,3
      01260  0020 00 0 01262         TRA     *+2
      01261 -3 77634 3 01442  Q      TXL     MMSNG,3,-NMMSP  TEST TOO MANY MISSING S/R
      01262  0520 00 3 02605         ZET     FMR,3
      01263  0020 00 0 01267         TRA     AE
      01264  0100 00 0 01273         TZE     AF
      01265  0602 00 3 02605         SLW     FMR,3         ENTER NAME
      01266  0600 00 3 02606         STZ     FMR+1,3       FREE CELL AHEAD
      01267 -0340 00 3 02605  AE     LAS     FMR,3         TEST NAME ALREADY IN
      01270  0020 00 0 01272         TRA     *+2
      01271 -0754 00 0 00000         ZAC                   YES. FORGET IT
      01272  1 77777 3 01261         TXI     Q,3,-1        KEEP COUNTING MISSING S/R
      01273  0634 00 3 01100  AF     SXA     NMR,3         SAVE COUNT OF MISSING ROUTINES
      01274  0020 00 4 00001         TRA     1,4
                              *. . . . . . . . . . . . . . . . . . . . . . . . . . . . . . . . . .

1            FAP     FOREGROUND BSS LOADER FOR NEW DISK ROUTINES, JUNE 65   LO   05/12/69 1717.9 PAGE 31
                           LJUST.  LEFT JUSTIFIES A BLANKS LEAD BCD WORD

                                     TTL     LJUST.  LEFT JUSTIFIES A BLANKS LEAD BCD WORD
                              *
      01275  0774 00 3 00006  LJUST  AXT     6,3
      01276  0560 00 0 04615         LDQ     =H
      01277  0602 00 0 01470  Z      SLW     TEMP          SAVE WORD

  BINARY CARD NO. NCLOAD36
      01300  0771 00 0 00036         ARS     30
      01301  0322 00 0 04576         ERA     =H00000       CHECK LEFTMOST CHARACTER
      01302 -0100 00 0 01306         TNZ     AC            SKIP IF NOT BLANK
      01303 -0500 00 0 01470         CAL     TEMP
      01304 -0763 00 0 00006         LGL     6             1 SHIFT TO THE LEFT
      01305  2 00001 3 01277         TIX     Z,3,1
      01306 -0500 00 0 01470  AC     CAL     TEMP          WORD LEFT JUSTIFIED
      01307  0020 00 4 00001         TRA     1,4
      01310  0 00000 0 00000
                              *
1            FAP     FOREGROUND BSS LOADER FOR NEW DISK ROUTINES, JUNE 65   LO   05/12/69 1717.9 PAGE 32
                           ROUTINE TO INCREMENT PROGRAM BREAK AND MEMORY BOUND

                                     TTL     ROUTINE TO INCREMENT PROGRAM BREAK AND MEMORY BOUND
                              *
      01311  0100 00 5 00001  INCMEM TZE     1,5           RETURN IF NO INCREMENT
      01312  0621 00 0 01322         STA     G
      01313  0400 00 0 01471         ADD     S             NEW M.B.
      01314  0621 00 0 01471         STA     S
      01315  0771 00 0 00017         ARS     15
      01316 -0100 00 0 01432         TNZ     COROVR        TEST OVERFLOW MEMORY
      01317 -0500 00 0 01471         CAL     S
      01320  0074 00 4 04555         TSX     SETMEM,4
      01321  0621 00 0 01323         STA     N
      01322  0774 00 4 00000  G      AXT     **,4          INCREMENT
      01323  0600 00 4 00000  N      STZ     **,4          CLEAR MEMORY AREA

  BINARY CARD NO. NCLOAD37
      01324  2 00001 4 01323         TIX     *-1,4,1
      01325  0020 00 5 00001         TRA     1,5
                              *
1            FAP     FOREGROUND BSS LOADER FOR NEW DISK ROUTINES, JUNE 65   LO   05/12/69 1717.9 PAGE 33
                                               LIST MISSING ROUTINES

                                     TTL                         LIST MISSING ROUTINES
                              *

      01326  0054 00  000004  NEED   RFT     BUG           IS THIS A DEBUG COMMAND
      01327  0020 00 0 00165         TRA     START         YES, BYPASS NEED MESSAGE AND START
      01330  0774 00 1 00000  NEED1  AXT     0,1
      01331 -0500 00 0 04613         CAL     =H NEED
      01332  0560 00 0 04614         LDQ     =O605757575757 1 BLANK
      01333  0602 00 0 04511  M      SLW     IM
      01334  0774 00 2 00000         AXT     0,2
      01335 -0500 00 1 02605  NDLST  CAL     FMR,1         PICK UP NAME
      01336  0100 00 0 01344         TZE     NDOUT         ZERO = END OF LIST
      01337  1 77777 1 01340         TXI     *+1,1,-1      POINT TO NEXT WORD
      01340  0602 00 2 04512         SLW     IM+1,2        THIS NAME INTO OUTPUT LIST
      01341 -0600 00 2 04513         STQ     IM+2,2        FOLLOWED BY BLANKS
      01342  1 77776 2 01343         TXI     *+1,2,-2      UP OUTPUT COUNT
      01343  3 77762 2 01335         TXH     NDLST,2,-14   LOOP UNTIL FULL
      01344 -0636 00 2 01346  NDOUT  SCD     *+2,2
      01345  0074 00 4 04551         TSX     (WFLX),4      OUTPUT LINE TO FLEXO
      01346  0 00000 0 04511                 IM,,**        ..
      01347 -0500 00 0 04615         CAL     =H

  BINARY CARD NO. NCLOAD38
      01350  0520 00 1 02605         ZET     FMR,1         TEST FOR END
      01351  0020 00 0 01333         TRA     M             STILL MORE TO LIST
                              *      THIS SEQUENCE WILL BE MODIFIED IF THE (CONT) PARAMETER
                              *      IS USED.
                       01352  A      SYN     *
      01352  0604 00 0 01470         STI     TEMP          SAVE LOADER'S CONDITIONS
      01353 -0754 00 0 00000         ZAC
      01354  0074 00 5 01446         TSX     SWD+1,5       SWITCH TO USER FILES
      01355  0074 00 4 04547         TSX     DORMNT,4
      01356  0020 00 0 00031         TRA     (USE)         REENTRY POINT
      01357 -0500 00 0 01475  (DEAD) CAL     HCF
      01360  0074 00 5 01445         TSX     SWD,5
                                     IFF     MODE
                                     TSX     CHNCOM,4
                                     IFF     MODE
                                     PZE                   DEAD
                                     IFF     MODE,1                                                 LO
      01361  0101 00 0 01362         TIA     *+1                                                    LO
                                     IFF     MODE,1                                                 LO
      01362  242521246060            BCI     1,DEAD                                                 LO
                       01362  CONPAT EQU     *-1                                                    LO
                              *      END OF SEQUENCE
                              *
1            FAP     FOREGROUND BSS LOADER FOR NEW DISK ROUTINES, JUNE 65   LO   05/12/69 1717.9 PAGE 34
                                               ERROR DIAGNOSTIC SECTION

                                     TTL                         ERROR DIAGNOSTIC SECTION
                              *
      01363  0074 00 4 04551  NOPRG  TSX     (WFLX),4      MISSING MAIN PROGRAM
      01364  0 00003 0 01504                 COM1,,3
      01365  0020 00 0 01352         TRA     A             EXIT FROM LOADER
                              *. . . . . . . . . . . . . . . . . . . . . . . . . . . . . . . . . . . .

      01366 -0500 00 0 01477  TBOVL  CAL     SNAME         BSS TABLE OVERFLOW
      01367  0602 00 0 01516         SLW     COM2+7        ROUTINE NAME INTO COMMENT
      01370  0074 00 4 04551         TSX     (WFLX),4
      01371  0 00010 0 01507                 COM2,,8
      01372  0020 00 0 01357  GODEAD TRA     (DEAD)
                              *. . . . . . . . . . . . . . . . . . . . . . . . . . . . . . . . . . . .

      01373 -0500 00 0 01500  ILLCD  CAL     NAME1         ILLEGAL CARD IN DECK

  BINARY CARD NO. NCLOAD39
      01374  0602 00 0 01537         SLW     COM5+4        FILE NAME
      01375  0074 00 4 01403         TSX     OCBC,4        CONVERT LOADING ADDRESS
      01376  0602 00 0 01543         SLW     COM5+8
      01377 -0600 00 0 01541         STQ     COM5+6        SET PROGRAM NAME
      01400  0074 00 4 04551         TSX     (WFLX),4
      01401  0 00011 0 01533         PZE     COM5,,9
      01402  0020 00 0 01372         TRA     GODEAD
                              *. . . . . . . . . . . . . . . . . . . . . . . . . . . . . . . .

      01403 -0500 00 0 04511  OCBC   CAL     IM            ADDRESS TO CONVERT
      01404 -0765 00 0 00017         LGR     15            ONLY 5 DIGITS
      01405  0774 00 1 00005         AXT     5,1
      01406 -0500 00 0 04615         CAL     =H            JUST TO GET A RIGHT JUSTIFIED BLANK
      01407  0767 00 0 00003         ALS     3             CONVERT OCTAL TO BCD
      01410 -0763 00 0 00003         LGL     3
      01411  2 00001 1 01407         TIX     *-2,1,1
      01412  0560 00 0 01477         LDQ     SNAME         PROGRAM ENTRY NAME
      01413  0020 00 4 00001         TRA     1,4
                              *. . . . . . . . . . . . . . . . . . . . . . . . . . . . . . . . . . . .

      01414  0074 00 4 01403  SUMNG  TSX     OCBC,4        CHECKSUM ERROR
      01415  0057 00  000002         RIR     GO
      01416  0602 00 0 01552         SLW     COM6+6        INTO ERROR COMMENT
      01417 -0600 00 0 01550         STQ     COM6+4        PROGRAM NAME INTO ERROR COMMENT

  BINARY CARD NO. NCLOAD40
      01420 -0500 00 0 01500         CAL     NAME1         FILE NAME
      01421  0602 00 0 01554         SLW     COM6+8
      01422  0074 00 4 04551         TSX     (WFLX),4
      01423  0 00011 0 01544                 COM6,,9
      01424  0020 00 0 00624         TRA     SUMOK         IGNORE ERROR AFTER PRINTING
                              *. . . . . . . . . . . . . . . . . . . . . . . . . . . . . . . . . . . .

      01425 -0500 00 0 04515  COMERR CAL     IM+4          COMMON ERROR
      01426  0602 00 0 01556         SLW     COM7+1        PROG NAME INTO COMMENT
      01427  0074 00 4 04551         TSX     (WFLX),4
      01430  0 00010 0 01555                 COM7,,8
      01431  0020 00 0 01372         TRA     GODEAD
1            FAP     FOREGROUND BSS LOADER FOR NEW DISK ROUTINES, JUNE 65   LO   05/12/69 1717.9 PAGE 35
                                               ERROR DIAGNOSTIC SECTION

                              *. . . . . . . . . . . . . . . . . . . . . . . . . . . . . . . . . . . .

      01432 -0500 00 0 01471  COROVR CAL     S             PROGRAM OVERLAPS CORE SPACE
      01433  0602 00 0 04511         SLW     IM            SET FOR OCBC
      01434  0074 00 4 01403         TSX     OCBC,4
      01435  0602 00 0 01572         SLW     COM8+5        NO. INTO COMMENT
      01436 -0600 00 0 01566         STQ     COM8+1        PROGRAM NAME INTO COMMENT
      01437  0074 00 4 04551         TSX     (WFLX),4
      01440  0 00010 0 01565         PZE     COM8,,8
      01441  0020 00 0 01372         TRA     GODEAD
                              *. . . . . . . . . . . . . . . . . . . . . . . . . . . . . . . . . . . .

      01442  0074 00 4 04551  MMSNG  TSX     (WFLX),4      TOO MANY MISSING ROUTINES
      01443  0 00011 0 01575                 COM10,,9

  BINARY CARD NO. NCLOAD41
      01444  0020 00 0 01372         TRA     GODEAD
                              *. . . . . . . . . . . . . . . . . . . . . . . . . . . . . . . . . . . .

      01445  0602 00 0 01476  SWD    SLW     CCF           ROUTINE TO SWITCH TO COMMON FILE
      01446  0074 00 4 04553         TSX     COMFIL,4
 TD   01447  3 00000 0 01451         TXH     BUSY          COMFIL BUSY
      01450  0020 00 5 00001         TRA     1,5
      01451  0602 00 0 01605  BUSY   SLW     COM11         PROBLEM NO.
      01452 -0600 00 0 01606         STQ     COM11+1       USER NO.
      01453 -0500 00 0 01611         CAL     COM11+4
      01454 -0320 00 0 04631         ANA     =O777777777700
      01455 -0501 00 0 01476         ORA     CCF           SET COMMON FILE NO. IN MESSAGE
      01456  0602 00 0 01611         SLW     COM11+4
      01457 -0754 00 0 00000         ZAC
      01460  0074 00 4 04553         TSX     COMFIL,4      SWITCH TO USER FILES
      01461  3 00000 0 01451         BRN     BUSY
      01462  0074 00 4 04551         TSX     WRFLX,4
      01463  0 00012 0 01605         PZE     COM11,,10
      01464  0074 00 4 04547         TSX     DORMNT,4
      01465 -0500 00 0 01476         CAL     CCF
      01466  0020 00 0 01445         TRA     SWD           TRY AGAIN
                              *
1            FAP     FOREGROUND BSS LOADER FOR NEW DISK ROUTINES, JUNE 65   LO   05/12/69 1717.9 PAGE 36
                                               TEMPORARY STORAGE AND CONSTANTS

                                     TTL                         TEMPORARY STORAGE AND CONSTANTS
                              *
      01467  0 00000 0 00000  ORIGIN PZE                   BCD ENTRY FOR STARTING ADDRESS

  BINARY CARD NO. NCLOAD42
      01470  0 00000 0 00000  TEMP   PZE                   TEMPORARY FOR ANY STORAGE
      01471  0 00000 0 04632  S      PZE     END+1         CURRENT PROGRAM BREAK. INITIAL = 4632
      01472  0 00000 0 00000  T      PZE                   PROGRAM LENGTH
      01473  0 00000 0 00000  LOWCOM PZE                   LAST LOCATION NOT USED
      01474  0 00000 0 00000  LADD   PZE                   ABSOLUTE LOADING ADDRESS
      01475  0 00000 0 00000  HCF    PZE                   HOME COMMON FILE NO.
      01476  0 00000 0 00000  CCF    PZE                   CURRENT COMMON FILE NO.
                      000316  ERASLE BOOL    316           LENGTH OF ERASABLE
                      000001  USELIB BOOL    1             ON = TSSLIB ALLOWED
                      000002  GO     BOOL    2             ON = LOADGO
                      000004  BUG    BOOL    4             ON = DEBUG COMMAND
                      000010  SKIP   BOOL    10            ON = SKIP THIS ROUTINE
                      000020  MULPC  BOOL    20            ON = CONTINUATION PROG. CARD. UNDER WAY
                      000040  LIBSW  BOOL    40            ON = WHEN SEARCHING A LIBRARY
                      000100  TSPASS BOOL    100           ON = WHEN TSSLIB HAS BEEN SEARCHED
                      000200  LLFLG  BOOL    200           ON = LIBRARY LOADING CREATES NEW S/R MISSIN
                      000400  EFLIB  BOOL    400           ON = END OF LIBRARY REACHED
                      001000  LIBLD  BOOL    1000          ON = WHILE LOADING FROM LIBRARY
                      004000  MOVT   BOOL    4000          ON = 'MOVIE)' IN SOME T.V.
                      010000  DECREM BOOL    10000         ON = RELOCATING DECREMENT FIELD
                      020000  ENAM   BOOL    20000         ON = NEXT ARGUMENT IS ENTRY NAME
                      040000  NCV    BOOL    40000         ON = TO MOVE CORE DOWN
                      100000  COMSET BOOL    100000        ON = COMMON HAS BEEN SET
                      200000  NC     BOOL    200000        ON = NO ERASABLE REQUIRED
                      400000  ORG    BOOL    400000        ON = SET STARTING ADDRESS
      01477  545454545454     SNAME  BCI     1,******
      01500  000000000000     NAME1  BCI     2,000000   BSS
      01501  606060226262
      01502  744446653125     MOVFIL BCI     2,(MOVIETABLE)
      01503  632122432534
      01504  604546604421     COM1   BCI     3, NO MAIN PROGRAM
      01505  314560475146
      01506  275121446060
      01507  602262626063     COM2   BCI     8, BSS TABLE OVERFLOW, LAST PROGRAM LOADED, 000000
      01510  212243256046
      01511  652551264346
      01512  667360432162
      01513  636047514627

  BINARY CARD NO. NCLOAD43
      01514  512144604346
      01515  212425247360
      01516  000000000000
      01517  256000007360            BCI     1,E 00,                                                LO
      01520  606060255151     COM4   BCI     6,   ERROR CODE 00, DISK SUBR OPEN FOR
      01521  465160234624
      01522  256000007360
      01523  243162426062
      01524  642251604647
      01525  254560264651
1            FAP     FOREGROUND BSS LOADER FOR NEW DISK ROUTINES, JUNE 65   LO   05/12/69 1717.9 PAGE 37
                                               TEMPORARY STORAGE AND CONSTANTS

      01526  602631432560     COM3   BCI     5, FILE          BSS NOT FOUND                         LO
      01527  606060606060
      01530  606060226262
      01531  604546636026
      01532  466445246060
      01533  606060603143     COM5   BCI     9,    ILLEGAL CARD.. FILE 000000 PROG 000000 ADR. 000000
      01534  432527214360
      01535  232151243333
      01536  602631432560
      01537  000000000000

  BINARY CARD NO. NCLOAD44
      01540  604751462760
      01541  000000000000
      01542  602124513360
      01543  000000000000
      01544  602330252342     COM6   BCI     9, CHECKSUM ERROR IN PROG 000000, CARD 00000 FILE 000000
      01545  626444602551
      01546  514651603145
      01547  604751462760
      01550  000000000000
      01551  736023215124
      01552  600000000000
      01553  602631432560
      01554  000000000000
      01555  604751462760     COM7   BCI     8, PROG 000000 ATTEMPTS TO CHANGE COMMON RELOC.
      01556  000000000000
      01557  602163632544
      01560  476362606346
      01561  602330214527
      01562  256023464444
      01563  464560512543

  BINARY CARD NO. NCLOAD45
      01564  462333606060
      01565  604751462760     COM8   BCI     8, PROG 000000 OVERLAPS CORE BY 000000 OCTAL LOC.
      01566  000000000000
      01567  604665255143
      01570  214762602346
      01571  512560227060
      01572  000000000000
      01573  604623632143
      01574  604346233360
      01575  444651256063     COM10  BCI     8,MORE THAN 100 MISSING ROUTINES, LOADING STOPS.
      01576  302145600100
      01577  006044316262
      01600  314527605146
      01601  646331452562
      01602  736043462124
      01603  314527606263
      01604  464762336060
      01605  606060606060     COM11  BCI ,             IS USING COMFIL 0. TYPE 'START' TO TRY AGAIN.
      01606  606060606060
      01607  603162606462
1            FAP     FOREGROUND BSS LOADER FOR NEW DISK ROUTINES, JUNE 65   LO   05/12/69 1717.9 PAGE 38
                                               TEMPORARY STORAGE AND CONSTANTS

  BINARY CARD NO. NCLOAD46
      01610  314527602346
      01611  442631436000
      01612  336063704725
      01613  601462632151
      01614  631460634660
      01615  635170602127
      01616  213145336060
                              *
                                     IFF     MODE,1
      01617                   FILLER BSS     2             FILLER TO CAUSE LOADING AT (5200)8       LO
                                     IFF     MODE
                              FILLER BSS     58            FILLER TO CAUSE LOADING AT (7000)8       LO
                                     IFF     MODE,1
                       00764  TABLNG EQU     500
                                     IFF     MODE
                              TABLNG EQU     1200
      01621                          BSS     TABLNG-4      MOVIE TABLE

  BINARY CARD NO. NCLOAD47
      02601  444665312534            VFD     H36/MOVIE),36/KEYWD,O3/7,33/,36/*
      02602  000000000027
      02603  700000000000
      02604  000000002604
                       02604  TABL   SYN     *-1
                       02603  PRMSK  SYN     TABL-1        T.V. WORD PATTERN
                              *
                                     IFF     MODE,1
                       00144  NMMSP  EQU     100                 GIVE THE USER OF FAPBUG A BREAK
                                     IFF     MODE
                              NMMSP  EQU     250
      02751                   LLIST  BES     NMMSP
                       02605  FMR    SYN     LLIST-NMMSP
                              *
                       00660  DBL    EQU     NWDS          DISK BUFFER LENGTH = 1 TRACK             LO
                                     IFF     MODE,1
      02751                          OLD2                  INSERT MACRO FOR OLD LOADER CALLING
                       02751  OLDCOM SYN     *                                                                .001

  BINARY CARD NO. NCLOAD48
      02751 -0340 00 0 02761         LAS     OLD                                                              .001
      02752  0020 00 0 00003         TRA     K-1                                                              .001
      02753  0020 00 0 02755         TRA     *+2                                                              .001
      02754  0020 00 0 00003         TRA     K-1                                                              .001
      02755  0074 00 4 04551         TSX     WRFLX,4                                                          .001
      02756  0 00005 0 02762         PZE     OLDM,,5                                                          .001
      02757  0101 00 0 02760         TIA     *+1                                                              .001
      02760  242521246060            BCI     1,DEAD                                                           .001
      02761  607446432434     OLD    BCI     1, (OLD)                                                         .001
      02762  215127607446     OLDM   BCI     5,ARG (OLD) NO LONGER AVAILABLE                                  .001
      02763  432434604546
      02764  604346452725
      02765  516021652131
      02766  432122432560
                       02751         ORG     OLDCOM                                                           .001
1            FAP     FOREGROUND BSS LOADER FOR NEW DISK ROUTINES, JUNE 65   LO   05/12/69 1717.9 PAGE 39
                                               TEMPORARY STORAGE AND CONSTANTS

      02751                   DBUF1  BSS     DBL
      03631                          HEADIN                INSERT HERE LOADER'S PREFACE
                       03631  HERE   SYN     *                                                                .001
                      000011  THERE  BOOL    11                                                               .001
      03631                          LOCATE  CHNCM.                                                           .001
                       00011  CHNCM. EQU     *-HERE+THERE                                                     .002

  BINARY CARD NO. NCLOAD49
      03631  0101 00 0 00012         TIA     CHNCM.+1                                                         .001
      03632  233045234644     (CHNC) BCI     1,CHNCOM                                                         .001
      03633                          LOCATE  SETMM.                                                           .001
                       00013  SETMM. EQU     *-HERE+THERE                                                     .002
      03633  0101 00 0 00014         TIA     SETMM.+1                                                         .001
      03634  622563442544     (SETM) BCI     1,SETMEM                                                         .001
      03635                          LOCATE  MOVER.                                                           .001
                       00015  MOVER. EQU     *-HERE+THERE                                                     .002
      03635                          LOCATE  CAL.                                                             .001
                       00015  CAL.   EQU     *-HERE+THERE                                                     .002
      03635  0560 00 3 00000         LDQ     **,3                                                             .001
      03636                          LOCATE  SLW.                                                             .001
                       00016  SLW.   EQU     *-HERE+THERE                                                     .002
      03636 -0600 00 3 00000         STQ     **,3                                                             .001
      03637  2 00001 3 00015         TIX     CAL.,3,1                                                         .001
      03640 -0760 00 0 00016         EMTM                                                                     .001
      03641  0074 00 4 00013         TSX     SETMM.,4                                                         .001
      03642  0074 00 4 00011         TSX     CHNCM.,4                                                         .001
 TD   03643  3 00000 0 00001         TXH     1                                                                .001
      03644                          LOCATE  PROG.                                                            .001
                       00024  PROG.  EQU     *-HERE+THERE                                                     .002
                       00013  MOVLEN EQU     *-HERE                                                           .001
                       00030  NEWORG EQU     THERE+MOVLEN+NOEP+1                                              .001
                              MAC3   MACRO                                                                    .001
                              AM     SYN     *                                                                .001
                                     TSX     GETCOM,4                                                         .001
                                     PZE     1                                                                .001
                                     AXT     AK-LTAB,4                                                        .001
                                     LAS     AK,4                                                             .001
                                     TRA     *+2                                                              .001
                                     TRA     AK+1,4                                                           .001
                                     TIX     *-3,4,2                                                          .001
                                     SXA     BEGIN                                                            .001
                                     TRA     LOAD                                                             .001
                              LTAB   MAC2                                                                     .001
                              AK     SYN     *                                                                .001
                              MAC3   END                                                                      .001
                                     IFF     MODE                                                             .001
                                     MAC3                                                                     .001
      03644  0055 00  200000  NCLOAD SIR     NC                                                               .001
      03645  0774 00 4 00013  VLOAD  AXT     MOVLEN,4                                                         .001
      03646 -0500 00 4 03644         CAL     HERE+MOVLEN,4                                                    .001
      03647  0602 00 4 00024         SLW     THERE+MOVLEN,4                                                   .001
      03650  2 00001 4 03646         TIX     *-2,4,1                                                          .001
      03651  0055 00  040000         SIR     NCV                                                              .001
      03652 -0774 00 4 04602         AXC     END+1-NEWORG,4                                                   .001
      03653 -0634 00 4 01244         SXD     RLOCD,4                                                          .001
1            FAP     FOREGROUND BSS LOADER FOR NEW DISK ROUTINES, JUNE 65   LO   05/12/69 1717.9 PAGE 40
                                               TEMPORARY STORAGE AND CONSTANTS

      03654 -0500 00 0 04626         CAL     =O777776777777  DISCARD BIT 17                                   .001

  BINARY CARD NO. NCLOAD50
      03655  0320 00 0 01244         ANS     RLOCD                                                            .001
      03656  0020 00 0 03661         TRA     BEGIN                                                            .001
      03657  0055 00  000002  LOADGO SIR     GO                                                               .001
      03660 -0634 00 0 01244  LOAD   ZSD     RLOCD                                                            .001
      03661  0774 00 7 00000  BEGIN  AXT     MODE,7                                                           .001
      03662  1 00001 7 03663         TXI     *+1,7,1                                                          .001
      03663  0634 00 7 03665         SXA     *+2,7                                                            .001
      03664  0074 00 4 04545         TSX     GETCOM,4                                                         .001
      03665  0 00000 0 00000         PZE     **                                                               .001
      03666 -0340 00 0 03721         LAS     HCONT                                                            .001
      03667  1 77777 7 03704         TXI     BEGIN1,7,-1                                                      .001
      03670  1 00001 7 03672         TXI     *+2,7,1                                                          .001
      03671  1 77777 7 03704         TXI     BEGIN1,7,-1                                                      .001
      03672  0634 00 7 03674         SXA     *+2,7                                                            .001
      03673  0074 00 4 04545         TSX     GETCOM,4                                                         .001
      03674  0 00000 0 00000         PZE     **                                                               .001
      03675  0602 00 0 03720         SLW     RSNAME                                                           .001
      03676  0774 00 4 00010         AXT     CONSIZ,4                                                         .001
      03677 -0500 00 4 03721         CAL     CONEND,4                                                         .001
      03700  0602 00 4 01362         SLW     CONPAT,4                                                         .001

  BINARY CARD NO. NCLOAD51
      03701  2 00001 4 03677         TIX     *-2,4,1                                                          .001
      03702 -0500 00 0 03722         CAL     CONTRA                                                           .001
      03703  0602 00 0 01372         SLW     GODEAD                                                           .001
      03704  0074 00 4 04561  BEGIN1 TSX     GETCF,4                                                          .001
      03705  0100 00 0 00034         TZE     USE1                                                             .001
      03706  0621 00 0 01475         STA     HCF                                                              .001
      03707  0621 00 0 01476         STA     CCF                                                              .001
      03710  0020 00 0 00034         TRA     USE1                                                             .001
                       03711  CONSEQ EQU     *                                                                .001
      03711 -0500 00 0 01475         CAL     HCF                                                              .001
      03712  0074 00 5 01445         TSX     SWD,5                                                            .001
      03713 -0500 00 0 01360         CAL     A+6                                                              .001
      03714  0560 00 0 01361         LDQ     A+7                                                              .001
      03715  0101 00 0 01357         TIA     A+5                                                              .001
      03716  452567234644            BCI     1,NEXCOM                                               LO        .001
      03717  512562644425            BCI     1,RESUME                                               LO        .001
      03720  545454545454     RSNAME BCI     1,******                                               LO        .001
                       03721  CONEND EQU     *                                                                .001
                       00010  CONSIZ EQU     CONEND-CONSEQ                                                    .001
      03721  742346456334     HCONT  BCI     1,(CONT)                                                         .001
      03722  0020 00 0 01352  CONTRA TRA     A                                                                .001
                       03631         ORG     HERE                                                             .001
      03631                   DBUF2  BSS     DBL
      04511                   IM     BSS     28
                       04511  OPNLOC SYN     IM            ERROR CODE, DISK CALL TO OPEN            LO
                       00125  FENCE  SYN     SPECTB
                       00004  ZERO   SYN     K
                       00027  KEYWD  SYN     NEWORG-1      SHOULD BE 27 OCT.
                              *
                              *
1            FAP     FOREGROUND BSS LOADER FOR NEW DISK ROUTINES, JUNE 65   LO   05/12/69 1717.9 PAGE 41
                                               SUBROUTINE TABLE

                                     TTL                         SUBROUTINE TABLE
                              *

  BINARY CARD NO. NCLOAD52
      04545  0101 00 0 04546  GETCOM TSS     *+1
      04546  272563234644            BCI     1,GETCOM
      04547  0101 00 0 04550  DORMNT TSS     *+1
      04550  244651444563            BCI     1,DORMNT
      04551  0101 00 0 04552  (WFLX) TSS     *+1
                       04551  WRFLX  SYN     (WFLX)
      04552  665126436760            BCI     1,WRFLX
      04553  0101 00 0 04603  COMFIL TIA     =HCOMFIL
      04554  0101 00 0 04621  TSSFIL TSS     =HTSSFIL
      04555  0101 00 0 04616  SETMEM TIA     =HSETMEM
      04556  0101 00 0 04601  CHNCOM TIA     =HCHNCOM
      04557  0101 00 0 04606  GETMEM TIA     =HGETMEM
      04560  0101 00 0 04622  USRFIL TIA     =HUSRFIL
      04561  0101 00 0 04605  GETCF  TIA     =HGETCF
                              END    END                   SHOULD BE 4631 OR 6431                   LO
                                              REMOTE SEQUENCES
      04562  256725236463     ..002  BCI     2,EXECUTION.                                                     .001
      04563  314645336060
      04564  603143432527     ..003  BCI     5, ILLEGAL SEQUENCE OF COMMANDS.                                 .001
      04565  214360622550
      04566  642545232560
      04567  462660234644
      04570  442145246233

        LITERALS

  BINARY CARD NO. NCLOAD53
      04571  000000000000
      04572  000000000001
      04573  000000000002
      04574  000000000012
      04575  000000000014
      04576  000000000060
      04577  000000000077
      04600  000000077461
      04601  233045234644
      04602  234346622560
      04603  234644263143
      04604  242543263143
      04605  272563232660
      04606  272563442544
      04607  400000000000
      04610  464725456060
      04611  512466213163
      04612  516060606060
      04613  604525252460
      04614  605757575757

  BINARY CARD NO. NCLOAD54
      04615  606060606060
      04616  622563442544
1            FAP     FOREGROUND BSS LOADER FOR NEW DISK ROUTINES, JUNE 65   LO   05/12/69 1717.9 PAGE 42
                                               SUBROUTINE TABLE

      04617  636243312201
      04620  636243312202
      04621  636262263143
      04622  646251263143
      04623  665126314325
      04624  666060606060
      04625  742326430034
      04626  777776777777
      04627  777777000000
      04630  777777770077
      04631  777777777700
1            FAP     FOREGROUND BSS LOADER FOR NEW DISK ROUTINES, JUNE 65   LO   05/12/69 1717.9 PAGE 1
                        POST PROCESSOR ASSEMBLY DATA

       4632 IS THE FIRST LOCATION NOT USED BY THIS PROGRAM

0REFERENCES TO DEFINED SYMBOLS
       1352      A   335, 1352, 1365, 3713, 3714, 3715, 3722
        656      B   650
       1237      C  1231, 1235
        336      D   332,  336
        677      E   672
        671      F   666
       1322      G  1312
        414      H   411
         61      J   370, 1165
          4      K     5,    7, 2752, 2754, 4545
        647      L   676,  704
       1333      M  1351
       1323      N  1321
        106      P    73, 1164
       1261      Q  1272
        213      R   207
       1471      S    43,  205,  321,  361,  744,  763,  772, 1240, 1313, 1314, 1317, 1432
       1472      T  1001, 1006, 1236
        240      U   230,  242
        243      V   236,  243
        241      W   212
        272      X   251,  253
         72      Y    64
       1277      Z  1305
       1032     AA  1131
       1306     AC  1302
       1134     AD  1140
       1267     AE  1263
       1273     AF  1264
       1140     AG  1135
        177     AH   173
        307     AJ   314
        533     AL  1112
       1204     BA  1202, 1207, 1217, 1221
       1172     G3
       1213     G4  1211
          2     GO   306,  340, 1415, 1477, 3657
       4511     IM   557,  564,  612,  615,  617,  622,  634,  644,  657,  662,  674,  700,  701,  705,  710,  722,  765
                     777, 1011, 1013, 1025, 1067, 1071, 1101, 1105, 1333, 1340, 1341, 1346, 1403, 1425, 1433, 4545
     200000     NC   340,  730,  740,  753, 1477, 3644
        440     X3   405,  413
        441     X5   414
        442     X6   415
        443     X7   416
        457    BAC   417,  434
        455    BMQ   401,  437
        456    BSI   402,  451
        460    BSQ   421,  431
        537    BSS   122,  537
          4    BUG    34,  167,  300,  337, 1163, 1326, 1477
       1476    CCF    31, 1445, 1455, 1465, 3707
1            FAP     FOREGROUND BSS LOADER FOR NEW DISK ROUTINES, JUNE 65   LO   05/12/69 1717.9 PAGE 2
                        POST PROCESSOR ASSEMBLY DATA

        660    DBL  2751, 3631
        316    DUP   316,  317,  320
       4631    END   752, 1471, 3652
       1216    FIX  1212
       2605    FMR   155,  163,  351, 1065, 1076, 1136, 1142, 1157, 1262, 1265, 1266, 1267, 1335, 1350, 2751
       1475    HCF   145,  165, 1357, 3706, 3711
        651    .AA   656,  661
       1024    LPG   761, 1010, 1031, 1034, 1073, 1124, 1143
        702    LRG   641
       1042    LSA  1042, 1156
       1057    LSB  1041, 1043, 1057
       1103    LSC  1077, 1114, 1115, 1134
       1115    LSD  1104, 1106
       1130    LSE  1123, 1130
       1145    LSF  1066
      40000    NCV   206,  227,  235,  245,  302,  331,  340, 1477, 3651
       1100    NMR  1075, 1117, 1126, 1127, 1132, 1141, 1273
       2761    OLD  2751
     400000    ORG    76,  100,  140, 1477
        453    OVF   422,  424,  435
        662    STP   653,  655
        612    SUM
       1445    SWD    32,   70,  146,  166, 1354, 1360, 1466, 3712
       1226    TAG    35,  200,  353,  714,  716,  717, 1017, 1203, 1245
       1211    TTR  1216
         33    USE
       1170    VEC  1226
       1451   BUSY  1447, 1461
         15   CAL.   322, 3635, 3637
       1504   COM1  1364
       1507   COM2  1367, 1371
       1526   COM3   465,  467
       1520   COM4   471,  500,  501,  503
       1533   COM5  1374, 1376, 1377, 1401
       1544   COM6  1416, 1417, 1421, 1423
       1555   COM7  1426, 1430
       1565   COM8  1435, 1436, 1440
       1243   COMN   706,  751, 1237
        375   DBOK   350
        161   DONE    47,  126,  161
       1154   EFLS   550
      20000   ENAM    45,   72,  140,  144, 1477
       3631   HERE  3631, 3633, 3635, 3636, 3644, 3646, 3631
       1474   LADD   774, 1012, 1045
        564   LBIN   564
       3660   LOAD    20
        760   LPCA   726,  735,  760
       1011   LPFA   721, 1015
       1051   LSA1  1050, 1056
       1056   LSA2  1053
       1151   LSB1  1060
       1067   LSB2  1063, 1067
       1075   LSBB  1036
       1116   LSD1  1102
       1035   LSPC
1            FAP     FOREGROUND BSS LOADER FOR NEW DISK ROUTINES, JUNE 65   LO   05/12/69 1717.9 PAGE 3
                        POST PROCESSOR ASSEMBLY DATA

          0   MODE     0, 3661
        145   MORE   142
        315   MOVR   303
       4000   MOVT   206,  235,  246, 1223, 1477
       1326   NEED   365
         44   NEXT    44,  105,  156,  470,  504, 1150, 1152, 1161
          3   NOEP     0,  316, 3644
        660   NWDS     0,  512,  552, 2751
       1403   OCBC  1375, 1414, 1434
       2762   OLDM  2756
        526   OPEN   106,  260
        714   PLPC  1144
       1034   PRCD   627, 1034
        313   PROG   177,  315
        537   READ   575,  611,  703,  712, 1033
       1230   RLOC   636,  667
         10   SKIP   121,  536,  607,  610, 1477
         50   SKLB    50,   71,  124,  160
         16   SLW.   324, 3636
        450   SVXA   403
        447   SVXB   404
        446   SVXC     0
       2604   TABL    36,   37,   40,   41,  202,  217,  221,  223,  225,  237,  240,  252,  354,  355,  356,  357,  776
                    1000, 1005, 1026, 1170, 1174, 1177, 1210, 1220, 1250, 1255, 2605
       1470   TEMP    30,  147,  304,  330,  573,  574,  624,  642, 1277, 1303, 1306, 1352
         34   USE1    34, 3705, 3710
          4   ZERO  4545
        454  3XMOD   410,  444
        705  ABSCD   633
       3661  BEGIN  3656
       1255  CKPL1  1252
       1245  CKPLL   101,  172,  347,  374, 1052, 1245
       1254  CKPLR  1246, 1254
        530  CLOSE   275,  545, 1145
       1575  COM10  1443
       1605  COM11  1451, 1452, 1453, 1456, 1463
       2751  DBUF1   512,  556
       3631  DBUF2
        330  DEBUG    16,  330
        400  EFLIB   121, 1057, 1154, 1477
       1157  EFLS1  1153
        125  FENCE   224, 4545
       4561  GETCF  3704
        373  GOBUG   301
       3721  HCONT  3666
       1373  ILLCD   571,  576
         11  ..001     6,   11
       4562  ..002   312
       4564  ..003   334
         27  KEYWD   226,  231,  232,  233,  234,  243,  250, 2602, 4545
       1000  LIBLD   121,  630, 1040, 1061, 1064, 1107, 1113, 1130, 1155, 1477
        154  LIBRY   132,  154
         40  LIBSW    34,   45,  104,  157,  340,  366, 1037, 1062, 1151, 1477
       1275  LJUST    75,  345
        200  LLFLG   121,  535, 1055, 1160, 1477
1            FAP     FOREGROUND BSS LOADER FOR NEW DISK ROUTINES, JUNE 65   LO   05/12/69 1717.9 PAGE 4
                        POST PROCESSOR ASSEMBLY DATA

       2751  LLIST  2751
       1102  LSBB1  1121, 1122
       1041  LSTRV  1042, 1072
       1442  MMSNG  1261
         20  MULPC   121,  603,  605,  720, 1022, 1032, 1035, 1110, 1125, 1477
       1500  NAME1    61,   65,   74,  110,  111,  461,  507,  510,  546,  547, 1146, 1147, 1373, 1420
       1335  NDLST  1343
       1344  NDOUT  1336
       1330  NEED1   377
        144  NMMSP  1261, 2605, 2751
       1363  NOPRG   174
       1203  NXTVC  1224
       1225  PASS2  1167, 1171, 1173
       2603  PRMSK   222, 1004, 1172, 1205, 2605
         24  PROG.   316,  317,  320, 3644
        540  RDCNT   116,  562
        524  RDEFT   117,  521,  541
        517  RDEOF   513
        545  RDOUT   522
        543  RDTST   520
        551  READ1   542,  543,  544
        552  READ2   561
        556  READ3   552,  553
        563  READX   537
        525  REFCT   514,  517
        426  RESMC   376
        452  RESMX   427
        515  RFILX   505,  523
       1244  RLOCD   214,  323,  336,  670,  773, 1047, 1201, 3653, 3655, 3660
        401  SAVMC     1,  401
        536  SKPPR   631
       1477  SNAME   203,  533, 1070, 1366, 1412
        165  START   165, 1327
       1414  SUMNG   623
        624  SUMOK   614, 1424
       1366  TBOVL   204,  762, 1020
         11  THERE  3631, 3633, 3635, 3636, 3644, 3647
        605  TSTPC   600
        610  TSTSK   602,  604,  606
       3645  VLOAD    22
          0  WHICH
       4551  WRFLX   311,  333, 1462, 2755, 4552
         31  (USE)   152, 1356
        736 1STCOM   725
       3704 BEGIN1  3667, 3671
         11 CHNCM.  3631, 3642
       4556 CHNCOM   150,  307
       1425 COMERR   731,  734
       4553 COMFIL  1446, 1460
     100000 COMSET   331,  724,  757, 1477
         17 COMTAB    12,   14,   31
       3721 CONEND  3677, 3721
       1362 CONPAT  1363, 3700
       3711 CONSEQ  3711, 3721
         10 CONSIZ  3676, 3721
1            FAP     FOREGROUND BSS LOADER FOR NEW DISK ROUTINES, JUNE 65   LO   05/12/69 1717.9 PAGE 5
                        POST PROCESSOR ASSEMBLY DATA

       3722 CONTRA  3702
       1432 COROVR  1316
        371 DBGNAM   342,  344
        400 DBNAME   346,  373
        377 DBSTRT   375
      10000 DECREM   646,  664,  671,  675, 1477
        531 DELFIL   254
       4547 DORMNT  1355, 1464
        316 ERASLE   731,  754, 1477
       1617 FILLER
       4545 GETCOM     3,   52, 3664, 3673
       4557 GETMEM    42,  360
       1372 GODEAD  1402, 1431, 1441, 1444, 3703
       1311 INCMEM   211,  756, 1007
       3657 LOADGO    26
       1473 LOWCOM   220,  732,  742
         53 LSTCNT    51
       1257 MISNAM   103,  175,  352,  534, 1054, 1214, 1257
         15 MOVER.   327, 3635
       1502 MOVFIL   255,  256,  262,  263,  267,  270,  276,  277
         13 MOVLEN  3644, 3645, 3646, 3647
       3644 NCLOAD    24
        363 NEEDLB   164,  176,  363
         30 NEWORG   326, 3644, 3652, 4545
         20 NOSPEC    54,   55,  123,  145
         12 NUMCOM    11,   12,   14,   31
       1210 NXTNAM  1213
       2751 OLDCOM    10, 2751
        471 OPNER1   464
        461 OPNERR   114
       4511 OPNLOC   115,  462,  472, 4545
       1467 ORIGIN    77,  171
        505 RDFILE   120,  554
        527 RDWAIT   506
       3720 RSNAME  3675
       4555 SETMEM  1320
         13 SETMM.  3633, 3641
        125 SPECTB    55,  123,  145, 4545
        200 START1   170,  200
        153 SYSLIB   130
        764 TABLNG   204,  762, 1020, 1621
       1224 TIXVEC  1206, 1215, 1222
        100 TSPASS    34,   46,  340,  364,  366, 1477
       4554 TSSFIL   153,  367
       1166 TVPASS   154,  161, 1166
          1 USELIB   134,  136,  337,  363, 1477
       4560 USRFIL    44
        532 WRFILE   266
        123 XECSPC    57
       3632 (CHNC)
       1357 (DEAD)  1372
       3634 (SETM)
       4551 (WFLX)   466,  502, 1345, 1363, 1370, 1400, 1422, 1427, 1437, 1442, 4552
1            FAP     FOREGROUND BSS LOADER FOR NEW DISK ROUTINES, JUNE 65   LO   05/12/69 1717.9 PAGE 6
                        POST PROCESSOR ASSEMBLY DATA

0 NO ERROR IN ABOVE ASSEMBLY.


 LOGIN   BCD 02/20/71 1656.1   49734         00000
1       .... EQUIVALENCE, COMMON, AND MACRO INSERTS USED BY LOGIN/LOGOUT ....    12/03/70 1956.0 PAGE 1

                                                                                                      LOGE0003
                                     INSERT  EQU                                                      LOGE0004
                                                                                                      EQU00002
                                             ... CTSS EQUIVALENCE PACKAGE ...                         EQU00003
                                                                                                      EQU00004
                       00050  N      EQU     40            NO. OF CONSOLES THAT MAY BE CONNECTED      EQU00005
                       00001  A      EQU     1             FLAG FOR MEMORY UNIT A                     EQU00006
                       00002  B      EQU     2             FLAG FOR MEMORY UNIT B                     EQU00007
                       00004  P      EQU     4             FLAG FOR PROTECTED TRANSMISSION            EQU00008
                       00003  QUITL  EQU     3             MAX. USER BREAK LEVEL                      EQU00009
                       00024  LCBUF  EQU     20            LENGTH OF USER COMMAND BUFFER              EQU00010
                       00012  MAXLV  EQU     10            MAX. NO. OF LEVELS IN SCHEDULING QUEUES    EQU00011
                       00005  CDEPTH EQU     5             MAX. NO. OF SUB-COMMANDS                   EQU00012
                       00024  CLNGTH EQU     LCBUF         MAX. LENGTH OF SINGLE SUB-COMMAND          EQU00013
                       00660  NWDSPT EQU     432           NO. OF WORDS PER DISK RECORD               EQU00014
                       00000  BASE   EQU     0             STARTING LOCATION FOR ALL CTSS USERS       EQU00015
                       00016  WDSLIN EQU     14            NO. OF WORDS PER FULL TYPED LINE           EQU00016
                       00043  GROUPS EQU     35            MAX. NO. OF PARTY GROUPS                   EQU00017
                       00024  TSSMAX EQU     20            2*NUMBER OF SLOTS FOR TSSFIL'S             EQU00018
                       00012  ACTFIL EQU     10            MAX. NO. OF ACTIVE FILES FOR USER          EQU00019
                       00032  AFSCON EQU     26            ACTIVE FILE STATUS TABLE LENGTH CONSTANT   EQU00020
                       00026  AFSENL EQU     22            ACTIVE FILE STATUS TABLE LENGTH PER FILE   EQU00021
                       00060  AFS1LN EQU     AFSCON+1*AFSENL FILE STATUS TABLE FOR CTSS               EQU00022
                       00366  AFS2LN EQU     AFSCON+ACTFIL*AFSENL FILE STATUS TABLE FOR USER          EQU00023
                       00045  Q1U1LN EQU     1+9*4         LENGTH OF QUEUE FOR DISK/DRUM FOR CTSS     EQU00024
                       00100  Q1U2LN EQU     1+9*7         LENGTH OF QUEUE FOR DISK/DRUM FOR USER     EQU00025
                       00000  Q3U1LN EQU     0             LENGTH OF QUEUE FOR TAPE FOR CTSS          EQU00026
                       00051  Q3U2LN EQU     1+8*5         LENGTH OF QUEUE FOR TAPE FOR USER          EQU00027
                       00010  FSBENL EQU     8             FILE SAVE BLOCK ENTRY LENGTH PER FILE      EQU00028
                       00120  FSBLKL EQU     FSBENL*ACTFIL FILE STATUS BLOCK LENGTH FOR USAVE         EQU00029
                      077461  OLDTOP BOOL    77461         NORMAL END OF COMMON PACKAGE               EQU00030
                      077777  NEWTOP BOOL    77777         DESIRED END OF COMMON PACKAGE              EQU00031
                       77462  COMRLC EQU     OLDTOP-NEWTOP COMMON RELOCATION                          EQU00032
                                                                                                      EQU00033
                                             BLOCK EQUIVALENCES FOR QLOAD VARIABLES                   EQU00034
                                                                                                      EQU00035
                       00000  Q.CUR  EQU     0             CURRENT VALUE OF PARAMETER                 EQU00036
                       00001  Q.MAX  EQU     1             MAXIMUM VALUE                              EQU00037
                       00002  Q.MIN  EQU     2             MINIMUM VALUE (PLATEAU FOR MXUSRS)         EQU00038
                       00003  Q.UPDT EQU     3             TIME INCREMENT BEFORE INCREASING           EQU00039
                       00004  Q.DNDT EQU     4             TIME INCREMENT BEFORE DECREASING           EQU00040
                       00005  Q.UPTM EQU     5             TOTTIM TO INCREASE PARAMETER               EQU00041
                       00006  Q.DNTM EQU     6             TOTTIM TO DECREASE IT                      EQU00042
                       00007  Q.UPVR EQU     7             AMOUNT TO INCREMENT PARAMETER              EQU00043
                       00010  Q.DNVR EQU     8             AMOUNT TO DECREMENT PARAMETER              EQU00044
                       00011  Q.TBL  EQU     9             SIZE OF STANDARD PARAMATER BLOCK           EQU00045
                                                                                                      EQU00046
                                             BIT EQUIVALENCES FOR USER STATUS SWITCHES IN THE         EQU00047
                                             ARRAY 'USWICH'. THESE ARE ALTERABLE AT TRAP TIME.        EQU00048
                                                                                                      EQU00049
                                             .. RIGHT HALF EQUIVALENCES                               EQU00050
                                                                                                      EQU00051
                      000001  NOTIME BOOL    1             1 IF USER OUT OF TIME                      EQU00052
                      000002  HUNGBT BOOL    2             1 IF USER DATA PHONE HUNG UP               EQU00053
                      000004  MESGBT BOOL    4             1 IF OPERATOR MESSAGE TO BE SENT           EQU00054
                      000010  USRBIT BOOL    10            1 IF USER HAS BEEN INITIALIZED AT DIALUP   EQU00055
1       .... EQUIVALENCE, COMMON, AND MACRO INSERTS USED BY LOGIN/LOGOUT ....    12/03/70 1956.0 PAGE 2

                      000020  INPBIT BOOL    20            1 IF USER INPUT BUFFERS FULL               EQU00056
                                                                                                      EQU00057
                      700000  NTIMCD BOOL    700000        THREE BIT NOTIME CODE (0-7)                EQU00058
                                                           .. 0 = UNSPECIFIED                         EQU00059
                                                           .. 1 = SYSTEM COMEDOWN                     EQU00060
                                                           .. 2 = ALLOTTED TIME EXCEEDED              EQU00061
                                                           .. 3 = INACTIVE TIME EXCEEDED              EQU00062
                                                           .. 4 = FIB ESTTIM EXCEEDED                 EQU00063
                                                           .. 5 = USER HUNG UP PHONE                  EQU00064
                                                           .. 6 = QLOAD KILL                          EQU00065
                                                           .. 7 = OTHER (LOGIN, ETC.)                 EQU00066
                                                                                                      EQU00067
                                             .. LEFT HALF EQUIVALENCES                                EQU00068
                                                                                                      EQU00069
                      000100  UCOMBT BOOL    100           1 IF CURRENT COMMAND INITIATED BY USER     EQU00070
                      000200  UCHNBT BOOL    200           1 IF USER COMMAND SET VIA CHNCOM           EQU00071
                      000400  UCMLBT BOOL    400           1 IF USER TYPED COMMAND LINE               EQU00072
                      001000  UCBFBT BOOL    1000          1 IF COMMAND BUFFER SET UP                 EQU00073
                      002000  INTBIT BOOL    2000          1 IF USER HIT INTERRUPT                    EQU00074
                      010000  LOGTBT BOOL    10000         1 IF USER WAITING FOR LOGOUT               EQU00075
                                                                                                      EQU00076
                                             BIT EQUIVALENCES FOR USER OPTION BITS FOUND IN           EQU00077
                                             'USROPT'. THESE MUST NEVER BE SET AT TRAP TIME           EQU00078
                                                                                                      EQU00079
                                             .. RIGHT HALF EQUIVALENCES                               EQU00080
                                                                                                      EQU00081
                      000001  UFLBIT BOOL    1             1 IF TO LOAD COMMAND FROM USER UFD FIRST   EQU00082
                      000002  UFLBT  BOOL    2             1 IF TO LOAD FROM OTHER UFD IF NOT FOUND   EQU00083
                      000004  RSTFBT BOOL    4             1 IF FILES TO BE RESET ON DISK COMMAND     EQU00084
                      000010  ENBBIT BOOL    10            1 IF USER SUBSYSTEM ENABLED                EQU00085
                      000020  INHBIT BOOL    20            1 IF SUBSYSTEM INHIBITED FOR END OF COMMANDEQU00086
                      000040  SYSBIT BOOL    40            1 IF CURRENT USER PROGRAM IS SUBSYSTEM     EQU00087
                      000100  SAVEBT BOOL    100           1 IF SUBSYSTEM SAVE ENABLED                EQU00088
                      000200  DIALBT BOOL    200           1 IF USER 'DIALABLE'                       EQU00089
                                                                                                      EQU00090
                                             .. LEFT HALF EQUIVALENCES                                EQU00091
                                                                                                      EQU00092
                      000100  CLKBIT BOOL    100           1 IF USER SIMULATED INTERVAL TIMER ON      EQU00093
                      000200  NQTBIT BOOL    200           1 IF USER MAY NOT 'QUIT' CURRENT COMMAND   EQU00094
                      000400  NINTBT BOOL    400           1 IF USER NOT TO BE INTERRUPTED            EQU00095
                      001000  NKILBT BOOL    1000          1 IF USER IMMUNE TO AUTO-LOGOUT            EQU00096
                      002000  XEQBIT BOOL    2000          1 IF CURRENT USER PROGRAM EXECUTE-ONLY     EQU00097
                                                                                                      EQU00098
                                             BIT DEFINITIONS FOR TYPEWRITER MODE SWITCHES.            EQU00099
                                             THESE ARE COMMON TO BOTH USWICH AND USROPT               EQU00100
                                                                                                      EQU00101
                      000001  FULBIT BOOL    1             1 IF USER IN 12-BIT MODE                   EQU00102
                      000002  NCVBIT BOOL    2             1 IF USER IN NO-CONVERT MODE               EQU00103
                      000004  NBKBIT BOOL    4             1 IF USER IN NO-BREAK MODE                 EQU00104
                      000010  GPHBIT BOOL    10            1 IF USER IN GRAPHIC INPUT MODE            EQU00105
                                                                                                      EQU00106
                      000077  TPWRSW BOOL    77            MASK FOR TYPEWRITER SWITCHES               EQU00107
                                                                                                      EQU00108
                                             BIT EQUIVALENCES FOR SUBSYSTEM STATUS SWITCHES           EQU00109
                                                                                                      EQU00110
                      000001  SB.CMD BOOL    1             1 IF SUBSYSTEM ENABLED FOR NEW COMMAND     EQU00111
1       .... EQUIVALENCE, COMMON, AND MACRO INSERTS USED BY LOGIN/LOGOUT ....    12/03/70 1956.0 PAGE 3

                      000002  SB.TSX BOOL    2             1 IF SUBSYSTEM ENABLED FOR DEAD/DORMNT CALLEQU00112
                      000004  SB.CHN BOOL    4             1 IF SUBSYSTEM ENABLED FOR END OF CHAIN    EQU00113
                      000010  SB.ERR BOOL    10            1 IF SUBSYSTEM ENABLED FOR ERROR           EQU00114
                                                                                                      EQU00115
                                             BIT EQUIVALENCES FOR COMMAND TYPE SPECIFICATION          EQU00116
                                             WITHIN THE COMMAND PROCESSOR                             EQU00117
                                                                                                      EQU00118
                      000001  .ATR   BOOL    1             1 IF COMMAND IS A-CORE TRANSFER            EQU00119
                      000002  .DSK   BOOL    2             1 IF CORE IMAGE TO BE LOADED FROM DISK     EQU00120
                      000004  .SYS   BOOL    4             1 IF COMMAND MAY BE LOADED FROM SYSTEM ONLYEQU00121
                      000010  .CPY   BOOL    10            1 IF COMMAND BUFFER TO BE COPIED           EQU00122
                      000020  .MEM   BOOL    20            1 IF USER CORE IMAGE REQUIRED              EQU00123
                      000040  .USR   BOOL    40            1 IF COMMAND MAY BE ISSUED BY USER         EQU00124
                      000100  .LGN   BOOL    100           1 IF COMMAND USABLE WHEN LOGGED IN         EQU00125
                      000200  .LGT   BOOL    200           1 IF COMMAND USABLE WHEN LOGGED OUT        EQU00126
                      000400  .LOG   BOOL    400           1 IF COMMAND IS LOGOUT, OTOLOG, ETC.       EQU00127
                      001000  .UFL   BOOL    1000          1 IF COMMAND TO BE LOADED FROM USER UFD    EQU00128
                      002000  .SAV   BOOL    2000          1 IF USER CORE IMAGE TO BE PRESERVED       EQU00129
                      004000  .CLC   BOOL    4000          1 IF USER COMMAND COUNTER PRESERVED        EQU00130
                      010000  .SUB   BOOL    10000         1 IF COMMAND IMMUNE TO SUBSYS TRAP         EQU00131
                                                                                                      EQU00132
                                             BIT EQUIVALENCES FOR USER DUMP AND RESTORE OPTIONS       EQU00133
                                                                                                      EQU00134
                      000001  D.DSK  BOOL    1             ACTIVE FILE STATUS                         EQU00135
                      000002  D.OPT  BOOL    2             USER OPTIONS                               EQU00136
                      000004  D.DIR  BOOL    4             DIRECTORY SWITCHING                        EQU00137
                      000010  D.TSF  BOOL    10            TSSFIL SWITCHING                           EQU00138
                      000020  D.COM  BOOL    20            COMMAND BUFFERS                            EQU00139
                      000040  D.SAV  BOOL    40            MACH. COND., CORE IMAGE                    EQU00140
                                                                                                      EQU00141
                      000001  L.DSK  BOOL    1             ACTIVE FILE STATUS                         EQU00142
                      000002  L.OPT  BOOL    2             USER OPTIONS                               EQU00143
                      000004  L.DIR  BOOL    4             DIRECTORY SWITCHING                        EQU00144
                      000010  L.TSF  BOOL    10            TSSFIL SWITCHING                           EQU00145
                      000020  L.COM  BOOL    20            COMMAND BUFFERS                            EQU00146
                      000040  L.CPU  BOOL    40            MACHINE CONDITIONS                         EQU00147
                      000100  L.MEM  BOOL    100           CORE IMAGE                                 EQU00148
                                                                                                      EQU00149
                                             BIT EQUIVALENCES FOR USER RESTRICTION CODE IN            EQU00150
                                             'RCODE' ARRAY AND 'URCODE'                               EQU00151
                                                                                                      EQU00152
                                             .. RIGHT HALF EQUIVALENCES                               EQU00153
                                                                                                      EQU00154
                      000001  RCOMBT BOOL    1             1 IF USER MAY USE COMMON FILES             EQU00155
                      000002  RCALBT BOOL    2             1 IF USER MAY MAKE PRIVILEGED FILE CALLS   EQU00156
                      000004  RPROBT BOOL    4             1 IF USER MAY MODIFY 'P' FILE OF OTHER USEREQU00157
                      000010  RPRVBT BOOL    10            1 IF USER MAY READ 'V' FILE OF OTHER USER  EQU00158
                      000020  RPATBT BOOL    20            1 IF USER MAY PATCH THE SUPERVISOR         EQU00159
                      000040  RKLDBT BOOL    40            1 IF USER MAY USE THE ESL DISPLAY (KLUDGE) EQU00160
                      000100  R636BT BOOL    100           1 IF USER MAY USE THE 636 TAPE CALLS       EQU00161
                      000200  RDSKBT BOOL    200           1 IF USER MAY NOT USE DISK LOADED COMMANDS EQU00162
                      000400  RTSSBT BOOL    400           1 IF USER MAY NOT ALTER FILE DIRECTORY     EQU00163
                      001000  RSYSBT BOOL    1000          1 IF USER MAY ALTER SUBSYSTEM STATUS       EQU00164
                      002000  ROPRBT BOOL    2000          1 IF USER MAY USE OPERATOR FUNCTIONS       EQU00165
                                                                                                      EQU00166
                                             .. LEFT HALF EQUIVALENCES                                EQU00167
1       .... EQUIVALENCE, COMMON, AND MACRO INSERTS USED BY LOGIN/LOGOUT ....    12/03/70 1956.0 PAGE 4

                                                                                                      EQU00168
                      000001  UBACBT BOOL    1             USER IS BACKGROUND SYSTEM                  EQU00169
                      000002  UFORBT BOOL    2             USER IS FOREGROUND                         EQU00170
                      000004  UFIBBT BOOL    4             USER IS FIB                                EQU00171
                      000010  UDEMBT BOOL    10            USER IS INCREMENTAL DUMPER (DAEMON)        EQU00172
                      000020  UPRCBT BOOL    20            USER IS PRIVILEGED COMMAND                 EQU00173
                                                                                                      EQU00174
                      001000  NBACBT BOOL    1000          USER IS NOT BACKGROUND SYSTEM              EQU00175
                      002000  NFORBT BOOL    2000          USER IS NOT FOREGROUND                     EQU00176
                      004000  NFIBBT BOOL    4000          USER IS NOT FIB                            EQU00177
                      010000  NDEMBT BOOL    10000         USER IS NOT INCREMENTAL DUMPER             EQU00178
                      020000  NPRCBT BOOL    20000         USER IS NOT PRIVILEGED COMMAND             EQU00179
                                                                                                      EQU00180
                                                                                                      EQU00181
                                                                                                      EQU00182
                                                                                                      EQU00184
                              COMNAM MACRO   NAME          TO GENERATE CTSS MODULE NAMES              EQU00185
                                     BCI     1,NAME'8A     .. MACRO MUST BE CORRECTED EVERY TIME      EQU00186
                              COMNAM END                   .. CTSS IS REASSEMBLED...                  EQU00187
                                                                                                      EQU00188
                              CTSSID MACRO                 CTSS FILE DIRECTORY NAME                   EQU00189
                                     BCI     2, M1416CMFL02                                           EQU00190
                              CTSSID END                                                              EQU00191
                                                                                                      EQU00192
                              TSSFID MACRO                 SYSTEM TSSFIL NAME                         EQU00193
                                     BCI     2, M1416CMFL04                                           EQU00194
                              TSSFID END                                                              EQU00195
                                                                                                      EQU00196
                              SCHEDL MACRO   EVENT,USER,ARG CALL SCHEDULING ALGORITHM                 EQU00197
                                     TSX     SCHEDL,4      ..                                         EQU00198
                                     PAR     EVENT         ..                                         EQU00199
                                     PAR     USER          ..                                         EQU00200
                                     PAR     ARG           ..                                         EQU00201
                              SCHEDL END                                                              EQU00202
                                                                                                      EQU00203
                              SETAB  MACRO   A,B,C         SET CORE SWITCHES IN FILE SYSTEM           EQU00204
                                     TSX     SETAB,4       ..                                         EQU00205
                                     IFF     1,*,A         ..                                         EQU00206
                                     PAR     M0            ..                                         EQU00207
                                     IFF     0,*,A         ..                                         EQU00208
                                     PAR     A             ..                                         EQU00209
                                     IFF     1,*,B         ..                                         EQU00210
                                     PAR     M0            ..                                         EQU00211
                                     IFF     0,*,B         ..                                         EQU00212
                                     PAR     B             ..                                         EQU00213
                                     IFF     1,*,C         ..                                         EQU00214
                                     PAR     M0            ..                                         EQU00215
                                     IFF     0,*,C         ..                                         EQU00216
                                     PAR     C             ..                                         EQU00217
                              SETAB  END                                                              EQU00218
                                                                                                      EQU00219
                              TYPEX  MACRO   NAME,LOC,N,USERNO,OPTION,MODE                            EQU00220
                                     TSX     NAME,4        ..                                         EQU00221
                                     IFF     MODE,,,       ..                                         EQU00222
                                     MZE     LOC,,N        ..                                         EQU00223
                                     IFF     MODE,0,,      ..                                         EQU00224
1       .... EQUIVALENCE, COMMON, AND MACRO INSERTS USED BY LOGIN/LOGOUT ....    12/03/70 1956.0 PAGE 5

                                     PZE     LOC,,N        ..                                         EQU00225
                                     PZE     USERNO,,OPTION                                           EQU00226
                              TYPEX  END                                                              EQU00227
                                                                                                      EQU00228
                              TYPE   MACRO   MESG,LOC,N    TYPE COMMENT TO CURRENT USER               EQU00229
                                     TYPEX   WRFLX,LOC,N,USER,.F.,0                                   EQU00230
                                     RMT                                                              EQU00231
                                     PMC     ON                                                       EQU00232
                              LOC    BCI     MESG                                                     EQU00233
                                     PMC     OFF                                                      EQU00234
                              N      EQU     *-LOC                                                    EQU00235
                                     RMT                                                              EQU00236
                              TYPE   END                                                              EQU00237
                                                                                                      EQU00238
                              TYPEA  MACRO   MESG,LOC,N    TYPE COMMENT TO USER W/O C.R.              EQU00239
                                     TYPEX   WRFLXA,LOC,N,USER,.F.,0                                  EQU00240
                                     RMT                                                              EQU00241
                                     PMC     ON                                                       EQU00242
                              LOC    BCI     MESG                                                     EQU00243
                                     PMC     OFF                                                      EQU00244
                              N      EQU     *-LOC                                                    EQU00245
                                     RMT                                                              EQU00246
                              TYPEA  END                                                              EQU00247
                                                                                                      EQU00248
                              TYPEF  MACRO   MESG,LOC,N    TYPE COMMENT IN FULL MODE                  EQU00249
                                     TYPEX   WRFLX,LOC,N,USER,.F.,1                                   EQU00250
                                     RMT                                                              EQU00251
                                     PMC     ON                                                       EQU00252
                              LOC    12BIT   MESG                                                     EQU00253
                                     PMC     OFF                                                      EQU00254
                              N      EQU     *-LOC                                                    EQU00255
                                     RMT                                                              EQU00256
                              TYPEF  END                                                              EQU00257
                                                                                                      EQU00258
                              WRTYPE MACRO   L,LOC,N,USERNO,MODE TYPE LINE ON USER CONSOLE            EQU00259
                                     TSX     $.WRFX'L,4    ..                                         EQU00260
                                     IFF     MODE,,,       ..                                         EQU00261
                                     MZE     LOC,,N        ..                                         EQU00262
                                     IFF     MODE,0,,      ..                                         EQU00263
                                     PZE     LOC,,N        ..                                         EQU00264
                                     PZE     USERNO        ..                                         EQU00265
                                     TRA     *+1           .. NULL FULL RETURN                        EQU00266
                              WRTYPE END                                                              EQU00267
                                                                                                      EQU00268
                              WTYPE  MACRO   USERNO,MESG,LOC,N TYPE COMMENT TO FOREGROUND USER        EQU00269
                                     WRTYPE  ,LOC,N,USERNO,0                                          EQU00270
                                     RMT                                                              EQU00271
                                     PMC     ON                                                       EQU00272
                              LOC    BCI     MESG                                                     EQU00273
                                     PMC     OFF                                                      EQU00274
                              N      EQU     *-LOC                                                    EQU00275
                                     RMT                                                              EQU00276
                              WTYPE  END                                                              EQU00277
                                                                                                      EQU00278
                              WTYPEA MACRO   USERNO,MESG,LOC,N TYPE COMMENT W/O C.R.                  EQU00279
                                     WRTYPE  A,LOC,N,USERNO,0                                         EQU00280
1       .... EQUIVALENCE, COMMON, AND MACRO INSERTS USED BY LOGIN/LOGOUT ....    12/03/70 1956.0 PAGE 6

                                     RMT                                                              EQU00281
                                     PMC     ON                                                       EQU00282
                              LOC    BCI     MESG                                                     EQU00283
                                     PMC     OFF                                                      EQU00284
                              N      EQU     *-LOC                                                    EQU00285
                                     RMT                                                              EQU00286
                              WTYPEA END                                                              EQU00287
                                                                                                      EQU00288
                              WTYPEF MACRO   USERNO,MESG,LOC,N TYPE COMMENT IN FULL MODE              EQU00289
                                     WRTYPE  ,LOC,N,USERNO,1                                          EQU00290
                                     RMT                                                              EQU00291
                                     PMC     ON                                                       EQU00292
                              LOC    12BIT   MESG                                                     EQU00293
                                     PMC     OFF                                                      EQU00294
                              N      EQU     *-LOC                                                    EQU00295
                                     RMT                                                              EQU00296
                              WTYPEF END                                                              EQU00297
                                                                                                      EQU00298
                       00000  .I.    EQU     0             CODE FOR IGNORE OPTION IN TYPEX            EQU00299
                       00001  .F.    EQU     1             CODE FOR FORCE OPTION IN TYPEX             EQU00300
                                                                                                      EQU00301
                              TEMPS  MACRO   SYMBOL        GENERATE TEPORARY STORAGE                  EQU00302
                                     IRP     SYMBOL        ..                                         EQU00303
                              SYMBOL PZE     0             ..                                         EQU00304
                                     IRP                   ..                                         EQU00305
                              TEMPS  END                                                              EQU00306
                                                                                                      EQU00307
                              LDISW  MACRO   LOC,T         LOAD USER SWITCHES                         EQU00308
                                     IFF     1,,LOC        ..                                         EQU00309
                                     LDI     USWICH,T      ..                                         EQU00310
                                     IFF     0,,LOC        ..                                         EQU00311
                                     LDI     LOC,T         ..                                         EQU00312
                              LDISW  END                                                              EQU00313
                                                                                                      EQU00314
                              STISW  MACRO   LOC,T         STORE USER SWITCHES                        EQU00315
                                     IFF     1,,LOC        ..                                         EQU00316
                                     STI     USWICH,T      ..                                         EQU00317
                                     IFF     0,,LOC        ..                                         EQU00318
                                     STI     LOC,T         ..                                         EQU00319
                              STISW  END                                                              EQU00320
                                                                                                      EQU00321
                                                                                                      EQU00323
1       .... EQUIVALENCE, COMMON, AND MACRO INSERTS USED BY LOGIN/LOGOUT ....    12/03/70 1956.0 PAGE 7

                                                                                                      LOGE0006
                                     INSERT  BEQU                                                     LOGE0007
                                                                                                      BEQU0001
                                             *** B-CORE EQUIVALENCES AND MACROS. ***                  BEQU0002
                                                                                                      BEQU0003
                                                                                                      BEQU0005
                              XEC.A  MACRO   OP,VARF       EXECUTE AN INSTRUCTION REFERRING TO A-CORE BEQU0006
                                     PMC     OFF                                                      BEQU0007
                                     TSX     $GETA,7                                                  BEQU0008
                                     OP      VARF                                                     BEQU0009
                              XEC.A  END                                                              BEQU0010
                                                                                                      BEQU0011
                      077461  C      SETB    77461                                                    BEQU0012
                                                                                                      BEQU0013
             0 20013 0 06665  KOMMON OPSYN   COMMON                                                   BEQU0014
                                                                                                      BEQU0015
                                     MACRO                                                            BEQU0016
                              S      COMMON  M             MACRO TO REDEFINE COMMON                   BEQU0017
                              S      SYN     C                                                        BEQU0018
                              TMP    SET     M                                                        BEQU0019
                              C      SET     C-TMP                                                    BEQU0020
                              COMMON END                                                              BEQU0021
                                                                                                      BEQU0022
                                     MACRO                                                            BEQU0023
                              S      COMBSS  M                                                        BEQU0024
                              TMP    SET     M                                                        BEQU0025
                              C      SET     C-TMP                                                    BEQU0026
                              S      SYN     C+1                                                      BEQU0027
                              COMBSS END                                                              BEQU0028
                                                                                                      BEQU0029
                                     MACRO                                                            BEQU0030
                              S      COMBES  M                                                        BEQU0031
                              S      SYN     C+1                                                      BEQU0032
                              TMP    SET     M                                                        BEQU0033
                              C      SET     C-TMP                                                    BEQU0034
                              COMBES END                                                              BEQU0035
                                                                                                      BEQU0036
                                                                                                      BEQU0037
                              LDISW  MACRO   S,X                                                      BEQU0038
                                     IFF     1,S                                                      BEQU0039
                                     XEC.A   LDI(USWICH,X)                                            BEQU0040
                                     IFF     0,S                                                      BEQU0041
                                     XEC.A   LDI(S,X)                                                 BEQU0042
                              LDISW  END                                                              BEQU0043
                                                                                                      BEQU0044
                              STISW  MACRO   S,X                                                      BEQU0045
                                     IFF     1,S                                                      BEQU0046
                                     XEC.A   STI(USWICH,X)                                            BEQU0047
                                     IFF     0,S                                                      BEQU0048
                                     XEC.A   STI(S,X)                                                 BEQU0049
                              STISW  END                                                              BEQU0050
                                                                                                      BEQU0051
                                                                                                      BEQU0052
                              TYPEX  MACRON  NAME,LOC,N,USERNO,OPTION,MODE                            BEQU0053
                                     TSX     NAME,4                                                   BEQU0054
                                     IFF     MODE,,,                                                  BEQU0055
1       .... EQUIVALENCE, COMMON, AND MACRO INSERTS USED BY LOGIN/LOGOUT ....    12/03/70 1956.0 PAGE 8

                                     MON     LOC,,N                                                   BEQU0056
                                     IFF     MODE,0,,                                                 BEQU0057
                                     MZE     LOC,,N                                                   BEQU0058
                                     IFF     0,,USERNO                                                BEQU0059
                                     PZE     USERNO,,OPTION                                           BEQU0060
                              TYPEX  END                                                              BEQU0061
                                                                                                      BEQU0062
                              TYPE   MACRO   MESG,LOC,N    REDEFINE FOR B-CORE                        BEQU0063
                                     TYPEX   WRFLX,LOC,N,0,.F.,0                                      BEQU0064
                                     RMT                                                              BEQU0065
                                     PMC     ON                                                       BEQU0066
                              LOC    BCI     MESG                                                     BEQU0067
                                     PMC     OFF                                                      BEQU0068
                              N      EQU     *-LOC                                                    BEQU0069
                                     RMT                                                              BEQU0070
                              TYPE   END                                                              BEQU0071
                                                                                                      BEQU0072
                              TYPEA  MACRO   MESG,LOC,N    REDEFINE FOR B-CORE                        BEQU0073
                                     TYPEX   WRFLXA,LOC,N,0,.F.,0                                     BEQU0074
                                     RMT                                                              BEQU0075
                                     PMC     ON                                                       BEQU0076
                              LOC    BCI     MESG                                                     BEQU0077
                                     PMC     OFF                                                      BEQU0078
                              N      EQU     *-LOC                                                    BEQU0079
                                     RMT                                                              BEQU0080
                              TYPEA  END                                                              BEQU0081
                                                                                                      BEQU0082
                              TYPEF  MACRO   MESG,LOC,N                                               BEQU0083
                                     TYPEX   WRFLX,LOC,N,0,.F.,1                                      BEQU0084
                                     RMT                                                              BEQU0085
                                     PMC     ON                                                       BEQU0086
                              LOC    12BIT   MESG                                                     BEQU0087
                                     PMC     OFF                                                      BEQU0088
                              N      EQU     *-LOC                                                    BEQU0089
                                     RMT                                                              BEQU0090
                              TYPEF  END                                                              BEQU0091
                                                                                                      BEQU0092
                                                                                                      BEQU0094
1       .... EQUIVALENCE, COMMON, AND MACRO INSERTS USED BY LOGIN/LOGOUT ....    12/03/70 1956.0 PAGE 9

                                                                                                      LOGE0009
                                     INSERT  COMMON                                                   LOGE0010
                                                                                                      COMM0002
                                             .... CTSS COMMON STORAGE ....                            COMM0003
                                                                                                      COMM0004
                                     COMMON  COMRLC        RELOCATE COMMON TO TOP OF CORE             COMM0005
                                                                                                      COMM0006
                              ENBWD  COMMON  1             COMMON TRAP ENABLE WORD                    COMM0007
                                                                                                      COMM0008
                                             TABLES SET BY SCHEDL.                                    COMM0009
                                                                                                      COMM0010
                              STATUS COMBSS  N+1           CURRENT USER STATUS (0-6)                  COMM0011
                              LENGTH COMBSS  N+1           LENGTH OF USER PROGRAM                     COMM0012
                              LEVEL  COMBSS  N+1           USER PRIORITY LEVEL (0...MAXLVL)           COMM0013
                              TIMLEV COMBSS  N+1           ELAPSED TIME RUN AT CURRENT LEVEL          COMM0014
                              WATTIM COMBSS  N+1           TIME USER BEGAN WAITING, -1= NOT WAITING   COMM0015
                              STRTIM COMBSS  N+1           TIME USER ENTERED WORKING STATUS           COMM0016
                              WRKTIM COMBSS  N+1           TIME USER HAS RUN SINCE STRTIM             COMM0017
                              QLIST  COMBSS  N+1+MAXLV+1   QUEUE POSITION LIST OF WORKING USERS       COMM0018
                                                                                                      COMM0019
                                             TABLES SET BY INITILIZATION PROGRAM                      COMM0020
                                                                                                      COMM0021
                              GRPTBL COMBSS  GROUPS+1      PARTY GROUP TABLE                          COMM0022
                                                                                                      COMM0023
                                             TABLES SET BY LOGIN, UPDATED BY TIME ACC.                COMM0024
                                                                                                      COMM0025
                              TAU1   COMBSS  N+1           USER TIME ALLOTTED BY SHIFT                COMM0026
                              TAU2   COMBSS  N+1           ..                                         COMM0027
                              TAU3   COMBSS  N+1           ..                                         COMM0028
                              TAU4   COMBSS  N+1           .. WEEKEND                                 COMM0029
                              TAU5   COMBSS  N+1           FIB TIME                                   COMM0030
                              UTIME  COMBSS  N+1           TIME USER HAS USED SINCE LOGIN             COMM0031
                                                                                                      COMM0032
                                             TABLES SET BY LOGIN                                      COMM0033
                                                                                                      COMM0034
                              ITIME  COMBSS  N+1           TIME USER LOGGED IN                        COMM0035
                              PROBN  COMBSS  N+1           USER PROBLEM NO.                           COMM0036
                              PROGN  COMBSS  N+1           USER PROGRAMMER NO.                        COMM0037
                              UNAME  COMBSS  N+1           USER NAME                                  COMM0038
                              UFDNM  COMBSS  N+1           USER HOME FILE DIRECTORY                   COMM0039
                              SUBNAM COMBSS  N+1           USER SUBSYSTEM NAME                        COMM0040
                              SUBSWS COMBSS  N+1           USER SUBSYSTEM STATUS BITS                 COMM0041
                              GRPNO. COMBSS  N+1           USER GROUP NUMBER                          COMM0042
                              RCODE  COMBSS  N+1           USER RESTRICTION CODE                      COMM0043
                              USROPT COMBSS  N+1           USER OPTIONS                               COMM0044
                                                                                                      COMM0045
                                             OTHER USER TABLES                                        COMM0046
                                                                                                      COMM0047
                                     COMBSS  N+1           SPARE USER ARRAY.....                      COMM0048
                              UNITID COMBSS  N+1           USER CONSOLE IDENT. CODE                   COMM0049
                              COMMND COMBSS  N+1           NAME OF USER COMMAND                       COMM0050
                              USWICH COMBSS  N+1           USER BINARY SWITCHES                       COMM0051
                              UARRAY COMBSS  N+1           USER-SETTABLE ARRAY                        COMM0052
                              IOD    COMBSS  N+1           TOTAL WORD COUNT OF USER DUMP              COMM0053
                              UCLOCK COMBSS  N+1           TIME CURRENT USER COMMAND HAS RUN          COMM0054
                              UCHARG COMBSS  N+1           .. SAME AS UCLOCK BUT INCLUDES SWAP TIME   COMM0055
1       .... EQUIVALENCE, COMMON, AND MACRO INSERTS USED BY LOGIN/LOGOUT ....    12/03/70 1956.0 PAGE 10

                              AWAKE  COMBSS  N+1           TIME TO RESTART USER (ALARM CLOCK)         COMM0056
                              TIMINC COMBSS  N+1           USER INTERVAL TIMER INCREMENT              COMM0057
                              ADOPT  COMBSS  N+1           ADOPT ARRAY EXPLAINED IN PMTA MODULE       COMM0058
                              OKPROB COMBSS  N+1           ..                                         COMM0059
                              OKPROG COMBSS  N+1           ..                                         COMM0060
                              PB     COMBSS  N+1           PB(0)=PERCENT OF TOTTIM TO RUN BACKGROUND  COMM0061
                                             PB(1)-PB(N)=PERCENTAGE TO MEET WHEN USER IN WORKING STAT COMM0062
                                                                                                      COMM0063
                                             MISCELLANEOUS CONSTANTS                                  COMM0064
                                                                                                      COMM0065
                              Q0     COMMON  1             LITERAL 0                                  COMM0066
                              Q1     COMMON  1             LITERAL 1                                  COMM0067
                              Q2     COMMON  1             LITERAL 2                                  COMM0068
                              Q3     COMMON  1             LITERAL 3                                  COMM0069
                              Q4     COMMON  1             LITERAL 4                                  COMM0070
                              Q5     COMMON  1             LITERAL 5                                  COMM0071
                              Q6     COMMON  1             LITERAL 6                                  COMM0072
                              Q7     COMMON  1             LITERAL 7                                  COMM0073
                              Q8     COMMON  1             LITERAL 8                                  COMM0074
                              Q9     COMMON  1             LITERAL 9                                  COMM0075
                              Q10    COMMON  1             LITERAL 10                                 COMM0076
                              Q11    COMMON  1             LITERAL 11                                 COMM0077
                              Q12    COMMON  1             LITERAL 12                                 COMM0078
                              M0     COMMON  1             LITERAL -0                                 COMM0079
                              LA     COMMON  1             FLAG FOR TRANSMISSION IN A-CORE            COMM0080
                              LB     COMMON  1             FLAG FOR TRANSMISSION IN B-CORE            COMM0081
                              AMASK  COMMON  1             OCT  000000077777                          COMM0082
                              TMASK  COMMON  1             OCT  000000700000                          COMM0083
                              DMASK  COMMON  1             OCT  077777000000                          COMM0084
                              PMASK  COMMON  1             OCT  700000000000                          COMM0085
                              RMASK  COMMON  1             OCT  000000777777                          COMM0086
                              LMASK  COMMON  1             OCT  777777000000                          COMM0087
                              NULLS  COMMON  1             OCT  575757575757                          COMM0088
                              BLANKS COMMON  1             OCT  606060606060                          COMM0089
                              FENCE  COMMON  1             OCT  777777777777                          COMM0090
                              CMFL00 COMMON  1             BCI  1,CMFL00                              COMM0091
                              TSSDC. COMMON  1             BCI  1,TSSDC.                              COMM0092
                              SAVED  COMMON  1             BCI  1, SAVED                              COMM0093
                              FORCOD COMMON  1             BASIC RESTRICTION CODE FOR FOREGROUND      COMM0094
                              BKRPRV COMMON  1             PRIVILEGED RESTRICTION CODE FOR BACKGROUND COMM0095
                              TSRCOD COMMON  1             SUPERVISOR RESTRICTION CODE                COMM0096
                              CTSSID COMBSS  2             SYSTEM FILE DIRECTORY NAME                 COMM0097
                                                                                                      COMM0098
                                             VARIABLES SET AND CHANGED BY SCHEDL.                     COMM0099
                                                                                                      COMM0100
                              CURUSR COMMON  1             CURRENT USER NO. (RUNNING OR SWAPPING)     COMM0101
                              OLDUSR COMMON  1             OLD USER WHEN SWAP NON-ZERO                COMM0102
                              NEWUSR COMMON  1             NEW USER WHEN SWAP NON-ZERO                COMM0103
                              PAYUSR COMMON  1             USER BEING CHARGED FOR TIME                COMM0104
                              SYSTIM COMMON  1             TIME SYSTEM WAS INITIALIZED                COMM0105
                              SYSDAT COMMON  1             DATE SYSTEM WAS INITIALIZED                COMM0106
                              BEGTIM COMMON  1             TIME CURUSR BEGAN RUNNING                  COMM0107
                              MAXTIM COMMON  1             CURUSR RUNS AT SAME LEVEL UNTIL MAXTIM     COMM0108
                              PAYTIM COMMON  1             LAST TIME A USER WAS CHARGED FOR TIME      COMM0109
                              LEVTIM COMMON  1             LAST TIME CURUSR RAN AT HIS CUR. LEVEL     COMM0110
                              SWAP   COMMON  1             NON-ZERO MEANS RUN NEWUSR ASAP             COMM0111
1       .... EQUIVALENCE, COMMON, AND MACRO INSERTS USED BY LOGIN/LOGOUT ....    12/03/70 1956.0 PAGE 11

                              MAXLVL COMMON  1             MAX. PRIORITY LEVEL (0...MAXLVL)           COMM0112
                              MINLVL COMMON  1             THE MINIMUM LEVEL ALLOWED                  COMM0113
                              FULLVL COMMON  1             INITIAL LEVEL FOR HALF TO FULL CORE USER   COMM0114
                              EMPLVL COMMON  1             INITIAL LEVEL EMPTY CORE USER              COMM0115
                              FULLEN COMMON  1             LENGTH FOR ENTRY AT LEVEL 'FULLVL'         COMM0116
                              QNTWAT COMMON  1             QUANTUM WAITING TIME BEFORE LEVEL CHANGE   COMM0117
                              LEVINC COMMON  1             INCREASE IN PRIORITY ON EACH INTERACTION   COMM0118
                              INACTV COMMON  1             MAX. TIME(60THS) INACTIVE BEFORE LOGOUT    COMM0119
                              HANGUP COMMON  1             MAX TIME(60THS) BEFORE INACTIVE LINE HUNGUPCOMM0120
                              SHIFT  COMMON  1             CURRENT SHIFT NUMBER                       COMM0121
                                                                                                      COMM0122
                                             VARIABLES SET AND CHANGED BY QLOAD                       COMM0123
                                                                                                      COMM0124
                              AVQLEN COMMON  1             AVERAGE QUEUE LENGTH (FLOATING PT.)        COMM0125
                              QLEN   COMMON  1             NUMBER OF USERS IN QUEUES                  COMM0126
                              MXUSRS COMBSS  Q.TBL         MAXIMUM NUMBER OF USERS ALLOWED ON         COMM0127
                              QUANTM COMBSS  Q.TBL         MAX. RUNNING TIME AT LEVEL 0               COMM0128
                              QMAX   COMMON  1             QUEUE THRESHOLD TO CUT MXUSRS              COMM0129
                              QMIN   COMMON  1             QUEUE THRESHOLD TO RAISE MXUSRS            COMM0130
                              QKILL  COMMON  1             QUEUE THRESHOLD TO KILL STANDBY USER       COMM0131
                              KILLDT COMMON  1             TIME INTERVAL BEFORE KILL                  COMM0132
                              KILLTM COMMON  1             TOTTIM TO KILL LOSER                       COMM0133
                              KILLSW COMBSS  2             NON-ZERO IF KILLING ALLOWED                COMM0134
                              QLOSER COMMON  1             LAST USER KILLED,,NO. KILLS                COMM0135
                              SWPMAX COMMON  1             SWAP TIME THRESHOLD TO RAISE QUANTM        COMM0136
                              SWPMIN COMMON  1             SWAP TIME THRESHOLD TO CUT QUANTM          COMM0137
                                                                                                      COMM0138
                                             RESERVED VARIABLES FOR DEBUGGING, ETC.                   COMM0139
                                                                                                      COMM0140
                              DUMMY0 COMMON  1             ..                                         COMM0141
                              DUMMY1 COMMON  1             ..                                         COMM0142
                              DUMMY2 COMMON  1             ..                                         COMM0143
                              DUMMY3 COMMON  1             ..                                         COMM0144
                              DUMMY4 COMMON  1             ..                                         COMM0145
                              DUMMY5 COMMON  1             ..                                         COMM0146
                              DUMMY6 COMMON  1             ..                                         COMM0147
                              DUMMY7 COMMON  1             ..                                         COMM0148
                                                                                                      COMM0149
                                             OPERATOR MESSAGE AND ONLINE PRINTER STATUS               COMM0150
                                                                                                      COMM0151
                              PRDOWN COMMON  1             NON-ZERO IF PRINTER NOT FUNCTIONING        COMM0152
                              SYSMSG COMMON  1             LINE NUMBER OF SYSTEM OUTPUT CONSOLE       COMM0153
                                                                                                      COMM0154
                                             VARIABLES SET BY LOGIN                                   COMM0155
                                                                                                      COMM0156
                              STNBY  COMMON  1             NO. STANDBY USER IN SYSTEM                 COMM0157
                              NUSERS COMMON  1             NO. OF FOREGROUND USERS LOGGED IN          COMM0158
                              FIBRUN COMMON  1             SET BY LOGOUT..INDIC. TO RUN FIB           COMM0159
                              FIBPTR COMMON  1             POINTS TO CURRENT FIB USER IN FILE         COMM0160
                              ESTTIM COMMON  1             TIME LIMIT FOR CURRENT FIB JOB             COMM0161
                                                                                                      COMM0162
                                             TRAP TIME SAVE AREA                                      COMM0163
                                                                                                      COMM0164
                              ENBSW  COMMON  1             ZERO IF MACHINE STATUS SAVED AT TRAP       COMM0165
                              (SLTS) COMMON  1             .. SENSE LIGHTS, MQ OVERFLOW               COMM0166
                              (DVCK) COMMON  1             .. DIVIDE CHECK STATUS                     COMM0167
1       .... EQUIVALENCE, COMMON, AND MACRO INSERTS USED BY LOGIN/LOGOUT ....    12/03/70 1956.0 PAGE 12

                              (IOCK) COMMON  1             .. I/O CHECK STATUS (NOT USED)             COMM0168
                              (FLMD) COMMON  1             .. FLOATING TRAP MODE                      COMM0169
                              (MTMD) COMMON  1             .. MULTIPLE TAG MODE                       COMM0170
                              (OV)   COMMON  1             .. AC OVERFLOW                             COMM0171
                              (SI)   COMMON  1             .. SENSE INDICATORS                        COMM0172
                              (MQ)   COMMON  1             .. MQ REGISTER                             COMM0173
                              (SQ)   COMMON  1             .. SIGN AND Q BITS                         COMM0174
                              (LAC)  COMMON  1             .. ACCUMULATOR P, 1-35                     COMM0175
                              (IR0)  COMMON  1             .. INDEX REGISTERS                         COMM0176
                              (IR1)  COMMON  1             ..                                         COMM0177
                              (IR2)  COMMON  1             ..                                         COMM0178
                              (IR3)  COMMON  1             ..                                         COMM0179
                              (IR4)  COMMON  1             ..                                         COMM0180
                              (IR5)  COMMON  1             ..                                         COMM0181
                              (IR6)  COMMON  1             ..                                         COMM0182
                              (IR7)  COMMON  1             ..                                         COMM0183
                              (ILC)  COMMON  1             .. LOCATION COUNTER, MEMORY FLAGS          COMM0184
                                                                                                      COMM0185
                                             OTHER VARIABLES                                          COMM0186
                                                                                                      COMM0187
                              USER   COMMON  1             CURRENT USER NO.                           COMM0188
                              DATE   COMMON  1             TODAYS DATE BCI 1,MM/DD                    COMM0189
                              DATEYR COMMON  1             TODAYS DATE BCI 1,MMDDYY                   COMM0190
                              SYSNAM COMMON  1             SYSTEM NAME                                COMM0191
                              TIMNOW COMMON  1             TIME OF DAY IN BINARY                      COMM0192
                              SWPSW  COMMON  1             NON-ZERO WHEN SWAPING USERS                COMM0193
                              COMSW  COMMON  1             NON-ZERO WHEN LOADING COMMAND              COMM0194
                              DSKSW  COMMON  1             NON-ZERO WHEN SWAPPING FROM DISK           COMM0195
                              TOTTIM COMMON  1             TOTAL TIME SYSTEM HAS RUN                  COMM0196
                              BKGTIM COMMON  1             TOTAL TIME BACKGROUND HAS RUN              COMM0197
                              BKGPCT COMMON  1             PERCENTAGE BACKGROUND HAS RUN              COMM0198
                              SWPTIM COMMON  1             TOTAL TIME SPENT SWAPPING                  COMM0199
                              SWPPCT COMMON  1             PERCENTAGE SWAP TIME                       COMM0200
                              DSKTIM COMMON  1             TOTAL TIME SWAPPING FROM DISK              COMM0201
                              DSKPCT COMMON  1             PERCENTAGE DISK SWAP TIME                  COMM0202
                              PRMTIM COMMON  1             TOTAL TIME SWAPPING WHEN OLDUSR PREEMPTED  COMM0203
                              PRMPCT COMMON  1             PERCENTAGE SWAP TIME PREEMPTING            COMM0204
                              COMTIM COMMON  1             TOTAL TIME SPENT LOADING COMMANDS          COMM0205
                              COMPCT COMMON  1             PERCENTAGE COMMAND LOAD TIME               COMM0206
                              DISKSW COMMON  1             NON-ZERO IF DISK SWAP FORCED               COMM0207
                              USRWAT COMMON  1             USER DISK WAIT TIME IN CYCLES              COMM0208
                              SWPWAT COMMON  1             SWAP DISK/DRUM WAIT TIME IN CYCLES         COMM0209
                              AUTOND COMMON  1             NON-ZERO TO LOGOUT ALL FOREGROUND USERS    COMM0210
                              CLKTIM COMMON  1             NO. OF CLOCK INCREMENTS BEFORE CLOCK TRAP  COMM0211
                              RCLKDT COMMON  1             TIME INTERVAL TO READ THE CHRONOLOG CLOCK  COMM0212
                              NWORDS COMMON  1             NO. OF WORDS CURRENT OR INCOMING USER NEEDSCOMM0213
                              STOPSW COMMON  1             NON-ZERO IF BACKGROUND STOPPED             COMM0214
                              BASEAD COMMON  1             PZE BASE                                   COMM0215
                              DEMKEY COMMON  1             CONSOLE ENTRY KEYS, REFERENCED BY DAEMON   COMM0216
                              BKGATT COMMON  1             IF NON-ZERO, BACKGROUND NEEDS ATTENTION    COMM0217
                              BKGKEY COMMON  1             BACKGROUND KEY CODE ISSUED BY OPERATOR     COMM0218
                              DUSER  COMMON  1             DUMMY USER TO RUN WHEN IDLE                COMM0219
                              ATLOST COMMON  1             NON-ZERO IF TRAP LOST ON CHANNEL A         COMM0220
                              COMPTR COMMON  1             .. POINTER TO CURRENT USER COMMAND         COMM0221
                              COMBUF COMBSS  LCBUF         .. CURRENT USER COMMAND IF TYPED AT CONSOLECOMM0222
                              UCOMND COMMON  1             CURRENT USER COMMAND BEING PROCESSED       COMM0223
1       .... EQUIVALENCE, COMMON, AND MACRO INSERTS USED BY LOGIN/LOGOUT ....    12/03/70 1956.0 PAGE 13

                              UCOMSW COMMON  1             COMMAND FLAGS FOR CURRENT COMMAND          COMM0224
                                     COMBSS  2*WDSLIN      .. SPARE BUFFER                            COMM0225
                              PBUFF  COMBSS  2*WDSLIN+1    COMMON PRINT/PUNCH UTILITY BUFFER          COMM0226
                              DBUF1  COMBSS  NWDSPT        COMMON DISK BUFFER(S)                      COMM0227
                              AFSTU1 COMBSS  AFS1LN        ACTIVE FILE STATUS TABLE FOR CTSS          COMM0228
                              Q1U1   COMBSS  Q1U1LN        QUEUE FOR DISK/DRUM FOR CTSS               COMM0229
                              Q3U1   COMBSS  Q3U1LN        QUEUE FOR TAPE FOR CTSS                    COMM0230
                              AFSTU2 COMBSS  AFS2LN        ACTIVE FILE STATUS TABLE FOR CURRENT USER  COMM0231
                              Q1U2   COMBSS  Q1U2LN        QUEUE FOR DISK/DRUM FOR CURRENT USER       COMM0232
                              Q3U2   COMBSS  Q3U2LN        QUEUE FOR TAPE FOR CURRENT USER            COMM0233
                                                                                                      COMM0234
                              EMCOND COMMON  1             USER MACHINE CONDITION STATUS TABLE        COMM0235
                              FSBLK  COMBSS  FSBLKL        .. FILE STATUS AREA FOR USAVE              COMM0236
                              FSBCT  COMMON  1             .. WORD COUNT FOR FILE STATUS BLOCK        COMM0237
                              WATCOM COMMON  1             .. INDICATES WAITING COMMAND IN CHAIN      COMM0238
                              CHNPTR COMMON  1             .. POINTER TO COMMAND BUFFER IN CHAIN      COMM0239
                              SUBCOM COMBSS  CLNGTH*CDEPTH .. USER SUB-COMMAND TABLES                 COMM0240
                              UCOMBF COMBSS  LCBUF         .. CURRENT COMMAND BUFFER FOR USER         COMM0241
                              COMCTR COMMON  1             .. CURRENT COMMAND LOCATION COUNTER        COMM0242
                              COMFSW COMMON  1             .. FROM LAST USER CALL TO 'COMFIL'         COMM0243
                              USRFIL COMBSS  2             .. LAST DIRECTORY ATTACHMENT IF IN TSSFIL  COMM0244
                              TSSFIL COMBSS  2             .. ATTACHMENT IF TSSFSW NON-ZERO           COMM0245
                              TSSFSW COMMON  1             .. NON-ZERO IF USER READING TSS FILES      COMM0246
                              URCODE COMMON  1             .. RESTRICTION CODE OF CURRENT USER        COMM0247
                              AUTHOR COMMON  1             .. USER'S AUTHOR NUMBER                    COMM0248
                              BLIPCH COMMON  1             .. BLIP OPTION CHARACTER SEQUENCE          COMM0249
                              BLIPDT COMMON  1             .. TIME INTERVAL                           COMM0250
                              BLIPTM COMMON  1             .. TIME SINCE LAST 'BLIP'                  COMM0251
                              SAVEM1 COMMON  1             .. C(77777)                                COMM0252
                              UILOCK COMMON  1             .. CORE B RETURN IN CASE OF FILE LOCKED    COMM0253
                              UFERTN COMMON  1             .. USER STANDARD DISK ERROR RETURN         COMM0254
                              BRKILC COMMON  1             .. USER ILC WHEN HE HIT INTERRUPT SEQ.     COMM0255
                              BREAKL COMMON  1             .. USER BREAK LEVEL COUNT                  COMM0256
                                     COMBSS  QUITL         .. USER BREAK LEVELS                       COMM0257
                                     COMMON  1             .. SPARE MACHINE CONDITION REGISTER        COMM0258
                              OLDILC COMMON  1             .. USER ILC SAVED                          COMM0259
                              BTRILC COMMON  1             .. CHANNEL B TRAP CONDITIONS SAVED         COMM0260
                              ATRILC COMMON  1             .. CHANNEL A TRAP CONDITIONS SAVED         COMM0261
                              UENBWD COMMON  1             .. USER ENABLE WORD                        COMM0262
                              TINHIB COMMON  1             .. NON-ZERO IF USER INHIBITED FROM TRAPS   COMM0263
                                     COMMON  1             .. SPARE REGISTER                          COMM0264
                              BSTAT  COMMON  1             .. CHANNEL B SAVED                         COMM0265
                              ASTAT  COMMON  1             .. CHANNEL A SAVED                         COMM0266
                              SLTS   COMMON  1             .. SENSE LIGHTS                            COMM0267
                              DVCK   COMMON  1             .. NON-ZERO IF DIVIDE CHECK ON             COMM0268
                              IOCK   COMMON  1             .. NON-ZERO IF I/O CHECK ON                COMM0269
                              FLMD   COMMON  1             .. NON-ZERO IF USER IN FLOATING TRAP MODE  COMM0270
                              MTMD   COMMON  1             .. NON-ZERO IF USER IN MULTIPLE TAG MODE   COMM0271
                              OV     COMMON  1             .. NON-ZERO IF AC OVERFLOW ON              COMM0272
                              SI     COMMON  1             .. USER SENSE INDICATORS                   COMM0273
                              MQ     COMMON  1             .. MQ                                      COMM0274
                              SQ     COMMON  1             .. SIGN AND Q BITS                         COMM0275
                              LAC    COMMON  1             .. LOGICAL AC                              COMM0276
                              PTIRS  COMMON  1             .. USER INDEX TABLE (IR0= 0)               COMM0277
                              IR1    COMMON  1             ..                                         COMM0278
                              IR2    COMMON  1             ..                                         COMM0279
1       .... EQUIVALENCE, COMMON, AND MACRO INSERTS USED BY LOGIN/LOGOUT ....    12/03/70 1956.0 PAGE 14

                              IR3    COMMON  1             ..                                         COMM0280
                              IR4    COMMON  1             ..                                         COMM0281
                              IR5    COMMON  1             ..                                         COMM0282
                              IR6    COMMON  1             ..                                         COMM0283
                              IR7    COMMON  1             ..                                         COMM0284
                              ILC    COMMON  1             .. CURRENT USER INSTRUCTION COUNTER        COMM0285
                              MEMBND COMMON  1             .. NO. OF WORDS OF MEMORY ASSIGNED TO USER COMM0286
                              RLIND  COMMON  1             .. USER RELOCATION SETTING                 COMM0287
                              PRIND  COMMON  1             .. USER PROTECTION SETTING                 COMM0288
                              MACOND COMMON  1             .. NON-ZERO IF MACHINE CONDITIONS SAVED    COMM0289
                                                                                                      COMM0290
                              TSSTBL COMBSS  TSSMAX        TSSFIL TABLE SET BY LOGIN                  COMM0291
                              TSSFID COMBSS  2             .. SYSTEM TSSFIL NAME                      COMM0292
                                                                                                      COMM0293
                              LOWCOM COMMON  0             COMMON BREAK                               COMM0294
                                                                                                      COMM0295
1       .... EQUIVALENCE, COMMON, AND MACRO INSERTS USED BY LOGIN/LOGOUT ....    12/03/70 1956.0 PAGE 15

                                                                                                      LOGE0012
                                     INSERT  MACRO                                                    LOGE0013
                                                                                                      MACR0001
                                             .... CTSS MACRO INSERT ....                              MACR0002
                                                                                                      MACR0003
                                                                                                      MACR0005
                                             SUBROUTINE CALL MACRO ....                               MACR0006
                                                                                                      MACR0007
                              CALL   MACRON  NAME,LIST     SUBROUTINE CALL MACRO                      MACR0008
                                     PMC     OFF                                                      MACR0009
                                     MTSX    NAME,,        MAY BE (SUBR,TAG)                          MACR0010
                                     IRP     LIST          ..                                         MACR0011
                                     CALL1   LIST,,,       ARGUMENT MAY BE (A,T,D)                    MACR0012
                                     IRP                   ..                                         MACR0013
                              CALL   END                   ..                                         MACR0014
                                                                                                      MACR0015
                              CALL1  MACRO   A,T,D         FIRST LEVEL ARGUMENT DECODER               MACR0016
                                     IFF     0,...,T       TAG OF '...' IS FOR BLK                    MACR0017
                                     CALL2   A,T,D,        NO '...', GO TO NEXT LEVEL                 MACR0018
                                     IFF     1,...,T       '...' SPECIFIED                            MACR0019
                                     BLK     A,,D          .. USE MAD BLOCK NOTATION                  MACR0020
                              CALL1  END                   ..                                         MACR0021
                                                                                                      MACR0022
                              CALL2  MACRO   A,T,D         HERE IF NOT BLK ARGUMENT                   MACR0023
                                     IFF     0,,T          IF TAG SPECIFIED, GO ON                    MACR0024
                                     CALL3   A,T,D,        ..                                         MACR0025
                                     IFF     1,,T          ELSE, USE 'PAR' (PTH)                      MACR0026
                                     CALL4   A,D,          GO SEE ABOUT DECREMENT FIELD               MACR0027
                              CALL2  END                   ..                                         MACR0028
                                                                                                      MACR0029
                              CALL3  MACRO   A,T,D         NOT PAR, DECODE FOR EFA, STR               MACR0030
                                     IFF     0,,D          IF ADDRESS, TAG, DECREMENT ALL GIVEN,      MACR0031
                                     STR     A,T,D         USE STR PREFIX                             MACR0032
                                     IFF     1,,D          NO DECREMENT GIVEN, USE EFA                MACR0033
                                     EFA     A,T           ..                                         MACR0034
                              CALL3  END                   ..                                         MACR0035
                                                                                                      MACR0036
                              CALL4  MACRO   A,D           DECODE ARGUMENTS FOR 'PAR'                 MACR0037
                                     IFF     0,,D          IF DECREMENT SPECIFIED,                    MACR0038
                                     PAR     A,,D          ASSEMBLE IT                                MACR0039
                                     IFF     1,,D          IF NO DECREMENT,                           MACR0040
                                     PAR     A             ASSEMBLE ADDRESS ONLY                      MACR0041
                              CALL4  END                   ..                                         MACR0042
                                                                                                      MACR0043
                              MTSX   MACRO   NAME,TAG      GENERATE TSX WITH DEFAULT TAG OF 4         MACR0044
                                     IFF     0,,TAG        IF TAG SPECIFIED,                          MACR0045
                                     TSX     NAME,TAG      ASSEMBLE WITH TAG GIVEN                    MACR0046
                                     IFF     1,,TAG        .. NO TAG SPECIFIED, USE TAG OF 4          MACR0047
                                     TSX     NAME,4        FOR STANDARD SUBROUTINE CALL               MACR0048
                              MTSX   END                   ..                                         MACR0049
                                                                                                      MACR0050
                                                                                                      MACR0051
                                             SAVE, RESTORE MACROS ....                                MACR0052
                                                                                                      MACR0053
                              SAVE   MACRO   ID,LIST       SAVE BASIC MACHINE CONDITIONS              MACR0054
                                     PMC     OFF           .. NO PRINTING                             MACR0055
1       .... EQUIVALENCE, COMMON, AND MACRO INSERTS USED BY LOGIN/LOGOUT ....    12/03/70 1956.0 PAGE 16

                                     IRP     LIST          .. E.G. 'AC', 'X1'                         MACR0056
                                     SAV1    (ID),LIST,,   CONTEXT FREE MACROS                        MACR0057
                                     IRP                   ..                                         MACR0058
                              SAVE   END                   ..                                         MACR0059
                                                                                                      MACR0060
                              RESTOR MACRON  ID,LIST,FLG   RESTORE MACRO FOR BASIC MACH. COND.        MACR0061
                                     PMC     OFF           ..                                         MACR0062
                                     IRP     LIST          USED IN SAME MANNER AS SAVE                MACR0063
                                     IFF     1,*,FLG       IF '*' SPECIFIED,                          MACR0064
                                     RST1    (ID),0,LIST,, ASSEMBLES 'AXT' FOR 'X1' ... 'X7'          MACR0065
                                     IFF     0,*,FLG       IF NO '*' SPECIFIED,                       MACR0066
                                     RST1    (ID),,LIST,,  ASSEMBLES 'LXA' FOR 'X1'...'X7'            MACR0067
                                     IRP                   ..                                         MACR0068
                              RESTOR END                   ..                                         MACR0069
                                                                                                      MACR0070
                              RETURN MACRO   LOC,ID,LIST   RESTORE WITH OPTIONAL RETURN               MACR0071
                                     PMC     OFF           .. DON'T PRINT EXPANSION                   MACR0072
                                     IRP     LIST          .. ASSEMBLES 'AXT' FOR X1 ... X7,          MACR0073
                                     RST1    (ID),0,LIST,, .. DEFINING DESIRED SYMBOL                 MACR0074
                                     IRP                   ..                                         MACR0075
                                     IFF     0,,LOC        IF RETURN LOCATION GIVEN,                  MACR0076
                                     TRA     LOC           USE AS TRANSFER ADDRESS (E.G. (1,4) )      MACR0077
                              RETURN END                   ..                                         MACR0078
                                                                                                      MACR0079
                              SAV1   MACRO   ID,REG,LOC    MACRO TO PRODUCE CODE TO SAVE ITEM         MACR0080
                                     IFF     1,,LOC        IF LOCATION NOT SPECIFIED,                 MACR0081
                                     SV'REG  ID'REG        USE NAME OF ITEM WITH PREFIX               MACR0082
                                     IFF     0,,LOC        IF LOCATION SPECIFIED,                     MACR0083
                                     SV'REG  LOC           USE SPECIFIED LOCATION                     MACR0084
                              SAV1   END                   ..                                         MACR0085
                                                                                                      MACR0086
                              RST1   MACRO   ID,FLAG,REG,LOC MACRO TO RESTORE ITEM                    MACR0087
                                     IFF     1,,LOC        IF LOCATION NOT SPECIFIED                  MACR0088
                                     LD'REG  ID'REG,FLAG,  USE REGISTER NAME AND PREFIX               MACR0089
                                     IFF     0,,LOC        IF SPECIFIED,                              MACR0090
                                     LD'REG  LOC,FLAG,     USE IT                                     MACR0091
                              RST1   END                   ..                                         MACR0092
                                                                                                      MACR0093
                              DFNX   MACRO   N             MACRO TO DEFINE SVX1 ... SVX7              MACR0094
                                     IRP     N             AS MANY AS DESIRED..                       MACR0095
                                     SVXN    SVX'N,N       THIS BECAUSE OF FAP MACRO COMPILER..       MACR0096
                                     LDXN    LDX'N,N       .. WHICH WON'T CONCATENATE LOCATION FIELD  MACR0097
                                     IRP                   ..                                         MACR0098
                              DFNX   END                   ..                                         MACR0099
                                                                                                      MACR0100
                              SVXN   MACRO   NAME,N        MACRO TO DEFINE SINGLE SVX(N) OPERATION    MACR0101
                              NAME   MACRO   LOC           DEFINE MACRO                               MACR0102
                                     SXA     LOC,N         .. AS SXA  LOC,TAG                         MACR0103
                              NAME   END                   ..                                         MACR0104
                              SVXN   END                   ..                                         MACR0105
                                                                                                      MACR0106
                              LDXN   MACRO   NAME,N        DEFINE LOAD INDEX MACROS                   MACR0107
                              NAME   MACRO   LOC,FLG       ..                                         MACR0108
                                     IFF     1,,FLG        IF SECOND SUBFIELD OMITTED,                MACR0109
                                     LXA     LOC,N         ASSEMBLE LXA  LOC,TAG                      MACR0110
                                     IFF     0,,FLG        IF NOT OMITTED, (USED BY RETURN)           MACR0111
1       .... EQUIVALENCE, COMMON, AND MACRO INSERTS USED BY LOGIN/LOGOUT ....    12/03/70 1956.0 PAGE 17

                              LOC    AXT     -,N           ASSEMBLE AXT  **,TAG                       MACR0112
                              NAME   END                   ..                                         MACR0113
                              LDXN   END                   ..                                         MACR0114
                                                                                                      MACR0115
             0602 71 1 60000  SVAC   OPSYN   SLW           OPERATIONS FOR SAVE/RESTOR .. AC           MACR0116
            -0500 71 1 60000  LDAC   OPSYN   CAL           ..                                         MACR0117
            -0600 71 1 60000  SVMQ   OPSYN   STQ           .. MQ                                      MACR0118
             0560 71 1 60000  LDMQ   OPSYN   LDQ           ..                                         MACR0119
             0604 71 1 20000  SVSI   OPSYN   STI           .. SI                                      MACR0120
             0441 71 1 20000  LDSI   OPSYN   LDI           ..                                         MACR0121
      00000                          DFNX    (1,2,3,4,5,6,7) .. X1 TO X7                              MACR0122
                                                                                                      MACR0123
                                                                                                      MACR0124
                              TYPE   MACRO   MESG,LOC,N    TYPE COMMENT TO USER                       MACR0125
                                     TSX     WRFLX,4       ..                                         MACR0126
                                     MZE     LOC,,N        .. IN SIX-BIT MODE                         MACR0127
                                     RMT                                                              MACR0128
                                     PMC     ON                                                       MACR0129
                              LOC    BCI     MESG                                                     MACR0130
                                     PMC     OFF                                                      MACR0131
                              N      EQU     *-LOC                                                    MACR0132
                                     RMT                                                              MACR0133
                              TYPE   END                                                              MACR0134
                                                                                                      MACR0135
                              TYPEA  MACRO   MESG,LOC,N    TYPE COMMENT WITHOUT CR                    MACR0136
                                     TSX     WRFLXA,4      ..                                         MACR0137
                                     MZE     LOC,,N        .. FORCE SIX-BIT MODE                      MACR0138
                                     RMT                                                              MACR0139
                                     PMC     ON                                                       MACR0140
                              LOC    BCI     MESG                                                     MACR0141
                                     PMC     OFF                                                      MACR0142
                              N      EQU     *-LOC                                                    MACR0143
                                     RMT                                                              MACR0144
                              TYPEA  END                                                              MACR0145
                                                                                                      MACR0146
                              TYPEF  MACRO   MESG,LOC,N    TYPE COMMENT IN FULL MODE                  MACR0147
                                     TSX     WRFLX,4       ..                                         MACR0148
                                     MON     LOC,,N        .. FORCE 12-BIT MODE                       MACR0149
                                     RMT                                                              MACR0150
                                     PMC     ON                                                       MACR0151
                              LOC    12BIT   MESG                                                     MACR0152
                                     PMC     OFF                                                      MACR0153
                              N      EQU     *-LOC                                                    MACR0154
                                     RMT                                                              MACR0155
                              TYPEF  END                                                              MACR0156
                                                                                                      MACR0157
                                                                                                      MACR0158
                                             WHENEVER MACRO ....                                      MACR0159
                                                                                                      MACR0160
                              WHEN   MACRO   A,TF,LOC,OP,VAR .. 'A' IS EXPR., 'TF' IS T OR F          MACR0161
                                     PMC     OFF           .. NO NEED TO PRINT JUNK                   MACR0162
                                     IFF     1,T,TF        SEE IF CONDITION 'TRUE'                    MACR0163
                                     GENIF   (A),0,0,(LOC),(OP),(VAR) ..                              MACR0164
                                     IFF     1,F,TF        SEE IF CONDITION 'FALSE'                   MACR0165
                                     GENIF   (A),0,1,(LOC),(OP),(VAR) ..                              MACR0166
                              WHEN   END                   ..                                         MACR0167
1       .... EQUIVALENCE, COMMON, AND MACRO INSERTS USED BY LOGIN/LOGOUT ....    12/03/70 1956.0 PAGE 18

                                                                                                      MACR0168
                              GENIF  MACRO   IF1,IF2,IF3,LOC,OP,VAR                                   MACR0169
                                     IFF     IF1,IF2,IF3   SEE IF CONDITION MET                       MACR0170
                              LOC    OP      VAR           YES, ASSEMBLE OPERATION                    MACR0171
                              GENIF  END                   ..                                         MACR0172
                                                                                                      MACR0173
                                                                                                      MACR0174
                                             OVERLAY MACRO ....                                       MACR0175
                                                                                                      MACR0176
                              OVLBGN MACRO                 TO OVERLAY UNNECESSARY CODE                MACR0177
                                     PMC     OFF           ..                                         MACR0178
                                     UNLIST                ..                                         MACR0179
                              OVLORG SET     *             SET ORIGIN FOR OVLEND                      MACR0180
                              OVLBGN END                   ..                                         MACR0181
                                                                                                      MACR0182
                              OVLEND MACRO                 USED AT END OF SECTION TO BE OVERLAID      MACR0183
                                     ORG     OVLORG        RE-ORIGIN TO PREVIOUS OVLBGN               MACR0184
                                     LIST                  .. AND LIST ASSEMBLY                       MACR0185
                              OVLEND END                   ..                                         MACR0186
                                                                                                      MACR0187
                                                                                                      MACR0188
                                             BIT MANIPULATION MACROS ....                             MACR0189
                                                                                                      MACR0190
                              DEFINE MACRO   OPN           DEFINE ALL COMBINATIONS OF MACROS          MACR0191
                                     IRP     OPN           (STL, STZ, NZT, ZET)                       MACR0192
                                     DFIN1   OPN,OPN'BIT,OPN'BT,OPN'BT1,OPN'BT2                       MACR0193
                                     IRP                   ..                                         MACR0194
                              DEFINE END                   ..                                         MACR0195
                                                                                                      MACR0196
                              DFIN1  MACRO   XXX,XXXBIT,XXXBT,XXXBT1,XXXBT2                           MACR0197
                              XXXBIT MACRON  LOC,T,B1,B2   LOADS SENSE INDICATORS FROM 'LOC,T'        MACR0198
                                     LDISW   LOC,T,        .. GET WORD INTO SI                        MACR0199
                                     XXX'BT  B1,B2,        OPERATE ON BITS                            MACR0200
                                     IFF     1,STL,XXX     IN CASE OF STLBIT, STZBIT                  MACR0201
                                     STISW   LOC,T,        STORE NEW VALUE                            MACR0202
                                     IFF     1,STZ,XXX     ..                                         MACR0203
                                     STISW   LOC,T,        ..                                         MACR0204
                              XXXBIT END                   ..                                         MACR0205
                              XXXBT  MACRON  B1,B2         EXAMINE OR MODIFY BINARY SWITCHES IN SI    MACR0206
                                     IFF     0,,B1         SEE IF ANY LEFT HALF BITS INVOLVED         MACR0207
                                     XXX'BT1 B1,B2,        .. IF SO, GO CHECK FOR RIGHT HALF          MACR0208
                                     IFF     1,,B1         NO LEFT HALF BITS USED,                    MACR0209
                                     XXX'R   B2            .. TEST OR MODIFY RIGHT HALF BITS          MACR0210
                              XXXBT  END                   ..                                         MACR0211
                              XXXBT1 MACRO   B1,B2         TEST WHETHER FULL WORD OR LEFT HALF        MACR0212
                                     IFF     0,,B2         SEE IF ANY RIGHT HALF BITS USED            MACR0213
                                     XXX'F   =VO18/B1,O18/B2                                          MACR0214
                                     IFF     1,,B2         IF NO RIGHT HALF BITS INVOLVED,            MACR0215
                                     XXX'L   B1            .. SET UP LEFT HALF OPERATION              MACR0216
                              XXXBT1 END                   ..                                         MACR0217
                              DFIN1  END                   ..                                         MACR0218
                                                                                                      MACR0219
      00000                          DEFINE  (STL,STZ,NZT,ZET) DEFINE ALL MACROS                      MACR0220
                                                                                                      MACR0221
             0055 11  120001  STLR   OPSYN   SIR           OPERATION CODES FOR BIT MACROS             MACR0222
            -0055 11  120001  STLL   OPSYN   SIL           ..                                         MACR0223
1       .... EQUIVALENCE, COMMON, AND MACRO INSERTS USED BY LOGIN/LOGOUT ....    12/03/70 1956.0 PAGE 19

             0442 71 1 20000  STLF   OPSYN   OSI           ..                                         MACR0224
             0057 11  120001  STZR   OPSYN   RIR           ..                                         MACR0225
            -0057 11  120001  STZL   OPSYN   RIL           ..                                         MACR0226
             0445 71 1 20000  STZF   OPSYN   RIS           ..                                         MACR0227
             0056 11  120001  NZTR   OPSYN   RNT           ..                                         MACR0228
            -0056 11  120001  NZTL   OPSYN   LNT           ..                                         MACR0229
             0446 71 1 20000  NZTF   OPSYN   ONT           ..                                         MACR0230
             0054 11  120001  ZETR   OPSYN   RFT           ..                                         MACR0231
            -0054 11  120001  ZETL   OPSYN   LFT           ..                                         MACR0232
             0444 71 1 20000  ZETF   OPSYN   OFT           ..                                         MACR0233
                                                                                                      MACR0235
1       .... EQUIVALENCE, COMMON, AND MACRO INSERTS USED BY LOGIN/LOGOUT ....    12/03/70 1956.0 PAGE 20

                                                                                                      LOGE0015
                                     INSERT  TEMPB                                                    LOGE0016
                                                                                                      TEMP0001
                                             .... COMMON PACKAGE FOR LOGIN/LOGOUT .....               TEMP0002
                                                                                                      TEMP0003
                       77426         KOMMON  27            CARD IMAGE BUFFER                          TEMP0004
                       77426  CARD   KOMMON  1             ..                                         TEMP0005
                                                                                                      TEMP0006
                                             CARD ENTRIES FOR UACCNT TIMACC                           TEMP0007
                                                                                                      TEMP0008
                       77426  UNAM   SYN     CARD          USER NAME                                  TEMP0009
                       77427  UPROGN SYN     CARD+1        USER PROGRAMMER NO.                        TEMP0010
                       77430  UPRTGP SYN     CARD+2        USER PARTY GROUP                           TEMP0011
                       77431  USTNBY SYN     CARD+3        IF NON-ZERO, USER MAY BE STANDBY           TEMP0012
                       77432  UFD    SYN     CARD+4        USER FILE DIRECTORY                        TEMP0013
                       77433  UNTGP  SYN     CARD+5        USER UNIT GROUP                            TEMP0014
                       77434  URCOD  SYN     CARD+6        USER RESTRICTION CODE                      TEMP0015
                       77435  UFLAGS SYN     CARD+7        INDICATORS                                 TEMP0016
                       77436  UPASSW SYN     CARD+8        USER PASSWORD                              TEMP0017
                       77444  UDRUM  SYN     CARD+14       USER DRUM ALLOTMENT                        TEMP0018
                       77445  UDISK  SYN     CARD+15       USER DISK ALLOTMENT                        TEMP0019
                       77446  UTAPE  SYN     CARD+16       USER TAPE ALLOTMENT                        TEMP0020
                       77447  UTA1   SYN     CARD+17       SHIFT 1 TIME ALLOTTED                      TEMP0021
                       77450  UTA2   SYN     CARD+18       SHIFT 2 TIME ALLOTTED                      TEMP0022
                       77451  UTA3   SYN     CARD+19       SHIFT 3 TIME ALLOTTED                      TEMP0023
                       77452  UTA4   SYN     CARD+20       SHIFT 4 TIME ALLOTTED                      TEMP0024
                       77453  UTA5   SYN     CARD+21       SHIFT 5 TIME ALLOTTED (FIB)                TEMP0025
                                                                                                      TEMP0026
                       77426  USTAR  SYN     CARD          PROBLEM MASTER CARD                        TEMP0027
                       77427  UPROBN SYN     CARD+1        PROBLEM NUMBER                             TEMP0028
                                                                                                      TEMP0029
                                                                                                      TEMP0030
                                             CARD ENTRIES FOR TIMUSD TIMACC                           TEMP0031
                                                                                                      TEMP0032
                       77426  TPROBN SYN     CARD          USER PROBLEM NUMBER                        TEMP0033
                       77427  TPROGN SYN     CARD+1        USER PROGRAMMER NO.                        TEMP0034
                       77430  TNAME  SYN     CARD+2        USER NAME                                  TEMP0035
                       77444  TLAST  SYN     CARD+14       DATE/TIME LAST LOGOUT                      TEMP0036
                       77446  TUNIT  SYN     CARD+16       UNITID LAST LOGOUT                         TEMP0037
                       77450  TTU1   SYN     CARD+18       SHIFT 1 TIME USED                          TEMP0038
                       77451  TTU2   SYN     CARD+19       SHIFT 2 TIME USED                          TEMP0039
                       77452  TTU3   SYN     CARD+20       SHIFT 3 TIME USED                          TEMP0040
                       77453  TTU4   SYN     CARD+21       SHIFT 4 TIME USED                          TEMP0041
                       77454  TTU5   SYN     CARD+22       SHIFT 5 TIME USED (FIB)                    TEMP0042
                       77455  TCON   SYN     CARD+23       CONSOLE TIME USED                          TEMP0043
                                                                                                      TEMP0044
                                                                                                      TEMP0045
                       77417         KOMMON  6             VECTOR FOR 'WHOAMI'                        TEMP0046
                       77417  WHO    KOMMON  1             ..                                         TEMP0047
                                                                                                      TEMP0048
                       77417  WPROBN SYN     WHO           USER PROBLEM NO.                           TEMP0049
                       77420  WPROGN SYN     WHO+1         USER PROGRAMMER NO.                        TEMP0050
                       77421  WSYSNM SYN     WHO+2         SYSTEM NAME                                TEMP0051
                       77422  WUNIT  SYN     WHO+3         CONSOLE UNITID                             TEMP0052
                       77423  WLOGNM SYN     WHO+4         NAME OF LOGIN COMMAND                      TEMP0053
                       77424  WUFDNM SYN     WHO+5         USER HOME FILE DIRECTORY                   TEMP0054
1       .... EQUIVALENCE, COMMON, AND MACRO INSERTS USED BY LOGIN/LOGOUT ....    12/03/70 1956.0 PAGE 21

                       77425  WNAME  SYN     WHO+6         USER NAME                                  TEMP0055
                                                                                                      TEMP0056
                                                                                                      TEMP0057
                       77412         KOMMON  4             TIME ALLOTTED/USED                         TEMP0058
                       77412  TU     KOMMON  1             ..                                         TEMP0059
                       77405         KOMMON  4             ..                                         TEMP0060
                       77405  TA     KOMMON  1             ..                                         TEMP0061
                                                                                                      TEMP0062
                                                                                                      TEMP0063
                       77367         KOMMON  13                                                       TEMP0064
                       77367  RCARD  KOMMON  1             REPORT CARD (REPORT TIMACC)                TEMP0065
                                                                                                      TEMP0066
                       77367  RPROB  SYN     RCARD         REPORTED PROBLEM NUMBER                    TEMP0067
                       77370  RPROG  SYN     RCARD+1       REPORTED PROGRAMMER NUMBER                 TEMP0068
                       77371  RUNIT  SYN     RCARD+2       REPORTED UNIT ID                           TEMP0069
                       77372  RDATE  SYN     RCARD+3       REPORTED DATE                              TEMP0070
                       77373  RTIME  SYN     RCARD+4       REPORTED TIME                              TEMP0071
                       77374  RFLAGS SYN     RCARD+5       REPORTED FLAGS                             TEMP0072
                       77375  RTU1   SYN     RCARD+6       REPORTED TIME USED - SHIFT 1               TEMP0073
                       77376  RTU2   SYN     RCARD+7       REPORTED TIME USED - SHIFT 2               TEMP0074
                       77377  RTU3   SYN     RCARD+8       REPORTED TIME USED - SHIFT 3               TEMP0075
                       77400  RTU4   SYN     RCARD+9       REPORTED TIME USED - SHIFT 4               TEMP0076
                       77401  RTU5   SYN     RCARD+10      REPORTED TIME USED - SHIFT 5               TEMP0077
                       77402  RCON   SYN     RCARD+11      REPORTED CONSOLE TIME USED                 TEMP0078
                       77403  RNAME  SYN     RCARD+12      REPORTED USER'S NAME                       TEMP0079
                                                                                                      TEMP0080
                                                                                                      TEMP0081
                                     END                                                              LOGE0017
1       .... EQUIVALENCE, COMMON, AND MACRO INSERTS USED BY LOGIN/LOGOUT ....    12/03/70 1956.0 PAGE 1
                        POST PROCESSOR ASSEMBLY DATA

       77366 IS THE LAST LOCATION NOT USED BY THIS PROGRAM
          0 IS THE FIRST LOCATION NOT USED BY THIS PROGRAM


0 NO ERROR IN ABOVE ASSEMBLY.
