1                    MAD III FOR CTSS ... R M GRAHAM ... MAR 1964                03/15/69 1117.9 PAGE 1

                                     ABS
                      000031  GETBRK BOOL    31
                       00031         ORG     GETBRK
      00031  0101 00 0 00100         TIA     K10
      00032  0101 00 0 00101  SETBRK TIA     K11
      00033 -0634 00 4 00104  ILC    SXD     K12,4
      00034  0602 00 0 00105         SLW     K15
      00035 -0600 00 0 00106         STQ     K16
      00036  0771 00 0 00043         ARS     35
      00037  0601 00 0 00107         STO     K17
      00040  0074 00 4 00031         TSX     GETBRK,4
      00041  0621 00 0 00104         STA     K12
      00042  0500 00 0 00103         CLA     K13
      00043  0601 00 0 00066         STO     K52
      00044  0020 00 0 00065         TRA     K52-1
      00045  0074 00 4 00203  K51    TSX     RDFLX,4
      00046  0 00000 0 00000         PZE     0
      00047  0500 00 0 00000         CLA     0
      00050  0402 00 0 00102         SUB     K14
      00051  0100 00 0 00070         TZE     K50
      00052  0560 00 0 00001         LDQ     1
      00053  0774 00 4 00006         AXT     6,4
      00054 -0773 00 0 00003         RQL     3
      00055 -0763 00 0 00003         LGL     3
      00056  2 00001 4 00054         TIX     *-2,4,1
      00057  0560 00 0 00000         LDQ     0
      00060  0774 00 4 00006         AXT     6,4
      00061 -0773 00 0 00003         RQL     3
      00062 -0763 00 0 00003         LGL     3
      00063  2 00001 4 00061         TIX     *-2,4,1
      00064  0602 00 0 00066         SLW     *+2
      00065  0074 00 4 00375         TSX     SDUMP,4
      00066  0 00000 0 00000  K52    PZE     **,,**
      00067  0020 00 0 00045         TRA     K51
      00070  0074 00 4 00032  K50    TSX     SETBRK,4
      00071  0 00000 0 00033         PZE     ILC
      00072  0500 00 0 00107         CLA     K17
      00073  0767 00 0 00043         ALS     35
      00074  0560 00 0 00106         LDQ     K16
      00075 -0501 00 0 00105         ORA     K15
      00076 -0534 00 4 00104         LXD     K12,4
      00077  0020 60 0 00104         TRA*    K12
      00100  272563225142     K10    BCI     1,GETBRK
      00101  622563225142     K11    BCI     1,SETBRK
      00102  512563645145     K14    BCI     1,RETURN
      00103  0 00107 0 00104  K13    PZE     K12,,K17
      00104  0 00000 0 00000  K12    PZE
      00105  0 00000 0 00000  K15    PZE
      00106  0 00000 0 00000  K16    PZE
      00107  0 00000 0 00000  K17    PZE

             3 00013 5 20050  IOBT   OPSYN   IORT
            -0754 01 1 20000  PXD    OPD     475401120000
             3 00011 1 20000  TXH    OPD     300011120000
            -3 00011 1 20000  TXL    OPD     700011120000
                      000144  MADCOM BOOL    144
1                    MAD III FOR CTSS ... R M GRAHAM ... MAR 1964                03/15/69 1117.9 PAGE 2

                       00144         ORG     MADCOM
      00144                   PASS1  BSS     1
      00145                   PASS2  BSS     1
      00146  0020 00 0 04224  PASS3  TRA     INIT
      00147  0020 00 0 00375         TRA     SDUMP
      00150                          BSS     1             SEARCH
      00151                   INSERT BSS     1
      00152                   IDNOW  BSS     1
      00153                   PGCERS BSS 1                  PZE PGMCOM,,ERAS
      00154  0 00000 0 00000  SIMPIO PZE
      00155  0 00000 0 00000  EQ.CT  PZE
      00156  0 00000 0 00000  NORMD  PZE
      00157  0 00000 0 00000  CONF   PZE
      00160  0 00000 0 00000  CON1   PZE
      00161  0 00000 0 00000  COMLOC PZE
      00162  0 00000 0 00000  TVSTRT PZE
      00163  0 00000 0 00000  UPBRK  PZE
      00164  0 00000 0 00000  PRSTRT PZE
      00165  0020 00 0 00307         TRA     SUCCES        SUCCESSFUL EXIT
      00166  0020 00 0 00304         TRA     UNSCCS        UNSUCCESSFUL EXIT
      00167                   HICOM. BSS     1
      00170  0 00000 0 00000  PRGTVS PZE
      00171  0 00000 0 00000  SBTEST PZE
      00172  0020 00 0 00216  SPRINT TRA     PRLINE
      00173                   P.FNAM BSS     1
      00174                   LIST.F BSS     1
      00175                   SYM.FL BSS     1             FOR SYMTAB
      00176                   SYMFSW BSS     1
      00177  0101 00 0 00527  RESETF TIA     H1
      00200  0020 00 0 00261         TRA     CHNCOM
      00201  0101 00 0 00530  DELFIL TIA     H2
      00202  0020 00 0 00263         TRA     WRFLX
      00203  0101 00 0 00531  RDFLX  TIA     H3
      00204  0020 00 0 00272         TRA     CHNXIT
      00205  0101 00 0 00532  SETMEM TIA     H4
      00206  0021 00 0 07470  (BFOPN TTR     BFOPEN
      00207  0021 00 0 07643  (BFRD  TTR     BFREAD
      00210  0021 00 0 07645  (BFWR  TTR     BFWRIT
      00211  0021 00 0 10107  (BFCL  TTR     BFCLOS
      00212  0021 00 0 10102  (BFCOD TTR     BFCODE
      00213  0 00000 0 00000  (EOFCT PZE     0
      00214  0101 00 0 00541  GETCOM TIA     H11
      00215  0101 00 0 00542  TTYOUT TIA     H12
                              *
                              *      MAD III INTERNAL PARAMETERS (PP)
                              *
                       10000  PPLC   EQU     4096          DIFFERENCE FACTOR FOR DEFINED LITERALS
                       00620  PPCDIM EQU     400           CDIM TABLE SIZE
                       00310  PPOPMD EQU     200           OP-MODE TABLE SIZE (SEARCH STARTS AT 128)
                       00024  PPBCD  EQU 20                 LINE BUFFER SIZE
                       00031  PPBIN  EQU 25                 SMALL BINARY BUFFER SIZE
                       01750  PPFLAD EQU 1000               FLOATING ADDRESS TABLE SIZE
                       00764  PPLINK EQU     500       LINK TABLE SIZE
                       00764  PPELNK EQU     500     EXTERNAL LINK TABLE SIZE
                       00024  PPADTT EQU 20                 ADDITIONAL TRANSFER TABLE SIZE
                       00036  PPPETY EQU 30                 PROGRAM ENTRY TABLE SIZE
1                    MAD III FOR CTSS ... R M GRAHAM ... MAR 1964                03/15/69 1117.9 PAGE 3

                       00036  PPAABC EQU 30                 ADDITIONAL ABCON TABLE SIZE
                       00620  PPSD   EQU     400           STATEMENT DICT BUFFER SIZE
                       00144  PPTEM  EQU     100           TEMPORARY TABLES' SIZE
                       00033  PPREBN EQU     27
                       26210  PPCODE EQU     12*950
                       16040  PPINST EQU     7200
                       00024  PPREL  EQU 20                 COMMON-TV SEPARATION
                       01130  PPMRK1 EQU     600           MAX STATEMENT MTX
                       02260  PPMRK2 EQU     1200          MAX CODE OUT
                       00144  PPSEQ  EQU     100           MAX SEQUENCE LENGTH
                       00002  SCRA   EQU     2
                       00004  SCRB   EQU     4
                       00006  PRINT  EQU     6
                       00007  PUNCH  EQU     7
                       00005  INT    EQU     5
                              *      COMMON STORAGE
                       77120  WB1    SYN     -432
                       76240  WB2    SYN     WB1-432
                       75360  B1     SYN     WB2-432
                       74500  B2     SYN     B1-432
                       73620  RB1    SYN     B2-432
                       72740  RB2    SYN     RB1-432
                       72737  CMST   SYN     RB2-1
                       71276  CTT    SYN     CMST-800-1
                       70675  CABC   SYN     CTT-256-1
                       67462  PL     SYN     CABC-650-1
                       67151  CDIM   SYN     PL-200-1
                       65510  CDIM.  SYN     CDIM-PPCDIM-1-PPCDIM
                       65507  INST   SYN     CDIM.-1 HIGH END OF MTX OF PART 1
                       47445  TTB    SYN     INST-PPINST-1-1   CTTBUF OF PART II
                              *              PART III STORAGE
                       47044  CODE   SYN     TTB-256-1
                       20633  LINK   SYN     CODE-PPCODE-1
                       17645  BCD    SYN     LINK-PPLINK-2
                       17620  FLAD   SYN     BCD-PPBCD-1
                       15647  ELINK  SYN     FLAD-PPFLAD-1
                       14662  ADTT   SYN     ELINK-PPELNK-1
                       14635  PETY   SYN     ADTT-PPADTT-1
                       14576  AABC   SYN     PETY-PPPETY-1
                       14537  SD     SYN     AABC-PPAABC-1
                       13716  PTEM   SYN     SD-PPSD-1
                       13551  FTEM   SYN     PTEM-PPTEM-1
                       13716  BIN    SYN     PTEM
                       13551  REBN   SYN     FTEM
                       12524  S1     SYN     FTEM-PPTEM-1-432
                       11644  S2     SYN     S1-432
                       11644  SD10   SYN     S2
                       14525  TMTX   SYN     SD-10    HIGH END OF OPMD EXPANSION
                                                           COMMON SUBROUTINES

      00216 -0520 00 0 00174  PRLINE NZT     LIST.F
      00217  0020 00 4 00002         TRA     2,4
      00220  0634 00 4 00254         SXA     SPRXIT,4
      00221 -0500 00 4 00001         CAL     1,4
      00222  0621 00 0 00250         STA     LIST.C
      00223  0622 00 0 00250         STD     LIST.C
1                    MAD III FOR CTSS ... R M GRAHAM ... MAR 1964                03/15/69 1117.9 PAGE 4

      00224  0771 00 0 00022         ARS     18
      00225  0625 00 0 00260         STT     BLSW.         SAVE PZE OR MZE IN CALLING SEQUENCE
      00226 -0320 00 0 00634         ANA     MQA
      00227  0774 00 4 00001         AXT     1,4
      00230 -0520 00 0 00260         NZT     BLSW.         IF NON ZERO, INSERT BLANK WORD
      00231  0020 00 0 00234         TRA     *+3
      00232  0774 00 4 00002         AXT     2,4           ACCOUNT FOR EXTRA WORD
      00233  0361 00 0 00555         ACL     AQ1           **
      00234 -0634 00 4 00241         SXD     PRL.,4
      00235  0621 00 0 00256         STA     L.MARK
      00236  0074 00 4 07645         TSX     BFWRIT,4
      00237  3 00000 0 00173         TXH     P.FNAM
      00240  3 00000 0 00174         TXH     P.FNAM+1
      00241  3 00000 0 00256  PRL.   TXH     L.MARK,,**
      00242  3 00000 0 05025         TXH     EOF
      00243  3 00000 0 00213         TXH     (EOFCT
      00244  3 00000 0 00272         TXH     CHNXIT
      00245  0074 00 4 07645         TSX     BFWRIT,4
      00246  3 00000 0 00173         TXH     P.FNAM
      00247  3 00000 0 00174         TXH     P.FNAM+1
      00250  3 00000 0 00000  LIST.C TXH     **,,**
      00251  3 00000 0 05025         TXH     EOF
      00252  3 00000 0 00213         TXH     (EOFCT
      00253  3 00000 0 00272         TXH     CHNXIT
      00254  0774 00 4 00000  SPRXIT AXT     **,4
      00255  0020 00 4 00002         TRA     2,4
      00256 -377777000000     L.MARK OCT     777777000000,606060606060
      00260  0 00000 0 00000  BLSW.  PZE     0,,**         NON ZERO IF BLANK WORD SHOULD BE INSERTED
      00261 -0754 00 0 00000  CHNCOM ZAC
      00262  0101 00 0 00543         TIA     H13
      00263  0634 00 4 00270  WRFLX  SXA     TTYXIT,4
      00264  0500 00 4 00001         CLA     1,4
      00265  0601 00 0 00267         STO     *+2
      00266  0074 00 4 00215         TSX     TTYOUT,4
      00267  0 00000 0 00000         PZE     **,,**
      00270  0774 00 4 00000  TTYXIT AXT     **,4
      00271  0020 00 0 00216         TRA     PRLINE
                       00272  CHNXIT SYN     *
      00272  0074 00 4 10106         TSX     P$CLOSE,4
      00273  3 00000 0 00301         TXH     ALL
      00274  3 00000 0 00553         TXH     PQ4
      00275  3 00000 0 00276         TXH     *+1
      00276 -0500 00 0 00302         CAL     PRNTER
      00277  0560 00 0 00556         LDQ     AQ0
      00300  0074 00 4 00303         TSX     NEXCOM,4
                              *
      00301  214343606060     ALL    BCI     1,ALL
      00302  475145632551     PRNTER BCI     1,PRNTER
      00303  0101 00 0 00547  NEXCOM TIA     H17
      00304  0074 00 4 00263  UNSCCS TSX     WRFLX,4
      00305  0 00004 0 00370         PZE     TRNER.,,4
      00306  0020 00 0 00321         TRA     SUCCXX
      00307  0074 00 4 10107  SUCCES TSX     BFCLOS,4
      00310  3 00000 0 01653         TXH     B.S.S.
      00311  3 00000 0 01654         TXH     B.S.S.+1
      00312  3 00000 0 00313         TXH     *+1
1                    MAD III FOR CTSS ... R M GRAHAM ... MAR 1964                03/15/69 1117.9 PAGE 5

      00313 -0520 00 0 00176         NZT     SYMFSW
      00314  0020 00 0 00321         TRA     SUCCXX
      00315  0074 00 4 10107         TSX     BFCLOS,4
      00316  3 00000 0 00175         TXH     SYM.FL
      00317  3 00000 0 00176         TXH     SYM.FL+1
      00320  3 00000 0 00321         TXH     *+1
      00321  0074 00 4 10107  SUCCXX TSX     BFCLOS,4
      00322  3 00000 0 00173         TXH     P.FNAM
      00323  3 00000 0 00174         TXH     P.FNAM+1
      00324  3 00000 0 00325         TXH     *+1
      00325  0074 00 4 00177         TSX     RESETF,4
      00326  0020 00 0 00261         TRA     CHNCOM
      00327  632122432560     TAB1   BCI     1,TABLE
      00330  0 00000 0 00000         PZE
      00331  442124606060            BCI     1,MAD
      00332  254563517060     TAB2   BCI     1,ENTRY
      00333  0 00000 0 00000         PZE
      00334  627044224643     TAB3   BCI     1,SYMBOL
      00335  0 00000 0 00000         PZE
      00336  622550454662     TAB4   BCI     1,SEQNOS
      00337  0 00000 0 00000         PZE
      00340  636560606060     TAB5   BCI     1,TV
      00341  0 00000 0 00000         PZE
      00342  243144606060     TAB6   BCI     1,DIM
      00343  0 00000 0 00000         PZE
      00344  442147606060     TAB7.0 BCI     1,MAP
      00345  0 00000 0 00022                 TAB7.9-TAB7.1+1+1
      00346  432545276330            BCI     1,LENGTH
      00347  0 00000 0 00000  TAB7.1 PZE     0,,**
      00350  636560606060            BCI     1,TV
      00351  0 00000 0 00000  TAB7.2 PZE     0,,**
      00352  652151606060            BCI     1,VAR
      00353  0 00000 0 00000  TAB7.3 PZE     **,,**
      00354  433163606060            BCI     1,LIT
      00355  0 00000 0 00000  TAB7.4 PZE     **,,**
      00356  475146276060            BCI     1,PROG
      00357  0 00000 0 00000  TAB7.5 PZE     **,,**
      00360  632544476060            BCI     1,TEMP
      00361  0 00000 0 00000  TAB7.6 PZE     **,,**
      00362  234644444645            BCI     1,COMMON
      00363  0 00000 0 00000  TAB7.7 PZE     **,,**
      00364  627044632122            BCI     1,SYMTAB
      00365  0 00000 0 00000  TAB7.8 PZE     **,,**
      00366  475146434627            BCI     1,PROLOG
      00367  0 00000 0 00000  TAB7.9 PZE     **,,**

      00370  606060606060     TRNER. BCI     4,      TRANSLATION ERROR
      00374  0 00000 0 00000  BC13   PZE
1                    MAD III FOR CTSS ... R M GRAHAM ... MAR 1964                03/15/69 1117.9 PAGE 6

      00375  0634 00 4 00445  SDUMP  SXA     SD1,4           DUMP 8 LOCATIONS PER LINE IN OCTAL
      00376  0634 00 2 00446         SXA     SD11,2          ALWAYS DUMP A MULTIPLE OF 8 LOCATIONS
      00377  0634 00 1 00447         SXA     SD12,1          ADR OF FIRST LOC ON LINE ENDS IN ZERO
      00400 -0500 00 4 00001         CAL     1,4             FIRSTLOC,,LASTLOC
      00401 -0734 00 4 00000         PDX     ,4              GET LAST LOC
      00402  1 00001 4 00403         TXI     *+1,4,1         CALCULATE FIRST LOC NOT NEEDED
      00403 -0636 00 4 00444         SCD     SD2,4           SAVE FOR END TEST
      00404 -0320 00 0 00655         ANA     MQ100           CALCULATE FIRST LOC TO DUMP
      00405  0737 00 1 00000         PAC     ,1              POINTER TO NEXT LOC TO DUMP
      00406  0140 00 0 00407         TOV     *+1             OV IS USED TO COUNT BCD CHARS
      00407  0756 00 1 00000  SD7    PCA     ,1              GET FIRST LOC FOR CURRENT LINE
      00410 -0765 00 0 00022         LGR     18              IN MQ TO BE EXPANDED
      00411  0774 00 2 00006         AXT     6,2             6 CHARACTERS IN THE MQ
      00412  0774 00 4 00012         AXT     10,4
      00413 -0500 00 0 00555         CAL     AQ1             SET UP FOR OVERFLOW WHEN WORD IS FULL
      00414  0767 00 0 00003  SD4    ALS     3               FORM FIRST HALF OF BCD CHARACTER
      00415 -0763 00 0 00003         LGL     3               FORM LAST HALF
      00416  0140 00 0 00430         TOV     SD3             CHECK FOR FULL AC
      00417  2 00001 2 00414  SD8    TIX     SD4,2,1         BACK FOR NEXT CHARACTER IN MQ IF ANY
      00420 -3 00001 4 00436         TXL     SD5,4,1         CHECK FOR END OF CURRENT LINE
      00421  0560 00 0 00717         LDQ     COM1            PUT A BLANK BETWEEN NUMBERS IN LINE
      00422 -0763 00 0 00006         LGL     6               FOR PROPER SPACING
      00423  0140 00 0 00433         TOV     SD6             AND CHECK IF AC IS FULL
      00424  0560 00 1 00000  SD9    LDQ     0,1             GET NEXT LOC TO CONVERT
      00425  1 77777 1 00426         TXI     *+1,1,-1        MOVE LOC POINTER UP
      00426  0774 00 2 00014         AXT     12,2            12 CHARACTERS IN THE MQ
      00427  0020 00 0 00414         TRA     SD4             EXPAND THEM
      00430  0602 00 4 11644  SD3    SLW     SD10,4          STORE FULL AC IN OUTPUT LINE
      00431 -0500 00 0 00555         CAL     AQ1             SET AC TO START NEW WORD
      00432  1 77777 4 00417         TXI     SD8,4,-1        AND CONTINUE
      00433  0602 00 4 11644  SD6    SLW     SD10,4          DITTO
      00434 -0500 00 0 00555         CAL     AQ1             ..
      00435  1 77777 4 00424         TXI     SD9,4,-1        ..
      00436  0560 00 0 00717  SD5    LDQ     COM1            FILL OUT LAST WORD WITH BLANKS
      00437 -0763 00 0 00014         LGL     12
      00440  0602 00 4 11644         SLW     SD10,4          AND STORE IT
      00441  0140 00 0 00442         TOV     *+1             TURN OFF THE OVERFLOW
      00442  0074 00 4 00263         TSX     WRFLX,4
      00443  0 00012 0 11632         PZE     SD10-10,,10
      00444  3 00000 1 00407  SD2    TXH     SD7,1,**        GO FOR NEW LINE IF NEEDED
      00445  0774 00 4 00000  SD1    AXT     **,4            OTHERWISE RETURN
      00446  0774 00 2 00000  SD11   AXT     **,2            ..
      00447  0774 00 1 00000  SD12   AXT     **,1            ..
      00450  0020 00 4 00002         TRA     2,4             ..
1                    MAD III FOR CTSS ... R M GRAHAM ... MAR 1964                03/15/69 1117.9 PAGE 7

                                         REGION INITIALIZATION CONSTANTS

      00451  0 00000 0 00024  PBCD   PZE PPBCD
      00452  0 00024 0 00024  PBIN   PZE 20,,20
      00453  0 00000 0 01750  PFLAD  PZE PPFLAD
      00454  0 00000 0 00764  PLINK  PZE PPLINK
      00455  0 00000 0 00764  PELINK PZE     PPELNK
      00456  0 00000 0 14662  PADTT  PZE ADTT
      00457  0 26210 0 26210  PCODE  PZE PPCODE,,PPCODE
      00460  0 00033 0 00033  PREBN  PZE PPREBN,,PPREBN
      00461  0 00000 0 00036  PAABC  PZE PPAABC
      00462  0 00000 0 10000  PLC    PZE     PPLC

                                         PROGRAM VARIABLES

      00463  0 00000 0 00000  LOC    PZE
      00464  0 00000 0 00000  TVSIZE PZE
      00465  0 00000 0 00000  SATEST PZE
      00466  0 00000 0 67462  CURPL  PZE     PL
      00467  0 00000 0 00000  OP     PZE
      00470  0 00000 0 00000  AOPND  PZE
      00471  0 00000 0 00000  AA     PZE
      00472  0 00000 0 00000  MA     PZE
      00473  0 00000 0 00000  BOPND  PZE
      00474  0 00000 0 00000  AB     PZE
      00475  0 00000 0 00000  MB     PZE
      00476  3 00000 0 00000  TOPND  PTH
      00477  0 00000 0 00000  MT     PZE
      00500  0 00000 0 00000  I      PZE
      00501  0 00000 0 00000  FNSW   PZE
      00502  0 00000 0 00020  CON    PZE 16
      00503  0 00000 0 00000  MSTDEC PZE
      00504  0 00000 0 00000  DICLOC PZE
      00505  0 00000 0 00000  DICETY PZE
      00506  0 00000 0 00000  FNR    PZE
      00507 +000000000000     FNFLAD OCT     0,0           TEMPS FOR FUNCTION FLADS
      00511  0 00000 0 00000  FNFNRS PZE     0 NON-ZERO TO USE TEMP (FLAD+1) FOR FN FLAD
      00512  0 00000 0 00000  RELBIT PZE
      00513  0 00000 0 00024  RELCON PZE PPREL
      00514  0 00000 0 00000  COMBRK PZE
      00515  0 00000 0 00000  TVS    PZE
      00516  0 00000 0 00000  COMREL PZE
      00517  0 00000 0 00000  LDRREL PZE
      00520  0 00000 0 00000  SAVLOC PZE
      00521  0 00000 0 00000  IR1    PZE
      00522  0 00000 0 00000  IR2    PZE
      00523  0 00000 0 00000  IR1A   PZE
      00524  0 00000 0 00000  IR2A   PZE
      00525  0 00000 0 00000  ABASE  PZE
      00526  0 00000 0 00000  BBASE  PZE

                                         CONSTANTS

      00527  512562256326     H1     BCI     1,RESETF
      00530  242543263143     H2     BCI     1,DELFIL
      00531  512426436721     H3     BCI     1,RDFLXA
1                    MAD III FOR CTSS ... R M GRAHAM ... MAR 1964                03/15/69 1117.9 PAGE 8

      00532  622563442544     H4     BCI     1,SETMEM
      00533  464725456060     H5     BCI     1,OPEN
      00534  512426314325     H6     BCI     1,RDFILE
      00535  665126314325     H7     BCI     1,WRFILE
      00536  512466213163     H8     BCI     1,RDWAIT
      00537  665166213163     H9     BCI     1,WRWAIT
      00540  234346622560     H10    BCI     1,CLOSE
      00541  272563234644     H11    BCI     1,GETCOM
      00542  665126436760     H12    BCI     1,WRFLX
      00543  233045234644     H13    BCI     1,CHNCOM
      00544  744421314534     H14    BCI     1,(MAIN)
      00545  266621316360     H15    BCI     1,FWAIT
      00546  226426262551     H16    BCI     1,BUFFER
      00547  452567234644     H17    BCI     1,NEXCOM
      00550  666060606060     (W     BCI     1,W
      00551  516060606060     (R     BCI     1,R
      00552 -1 00000 0 00000  PQ5    MON
      00553 -0 00000 0 00000  PQ4    FOR
      00554 -2 00000 0 00000  PQ6    SIX
      00555  0 00000 0 00001  AQ1    PZE 1
      00556  0 00000 0 00000  AQ0    PZE
      00557  0 00000 0 00020  AQ16   PZE 16
      00560  0 00000 0 00021  AQ17   PZE 17
      00561  0 00000 0 00022  AQ18   PZE 18
      00562  0 00000 0 00023  AQ19   PZE 19
      00563  0 00000 0 00032  AQ26   PZE 26
      00564  0 00000 0 00026  AQ22   PZE 22
      00565  0 00000 0 00063  AQ51   PZE     51
      00566  0 00000 0 00002  AQ2    PZE 2
      00567  3 00000 0 00000  PQ3    PTH
      00570  2 00000 0 00000  PQ2    PTW
      00571  1 00000 0 00000  PQ1    PON
      00572  0 00000 0 00004  AQ4    PZE 4
      00573  0 00000 0 00010  AQ8    PZE 8
      00574  0 00000 0 00011  AQ9    PZE     9
      00575  0 00000 0 00003  AQ3    PZE 3
      00576 +000000000330     AQ330  OCT     330
      00577  0 00000 0 00024  AQ20   PZE 20
      00600  0 00000 0 00600  AQ384  PZE 384
      00601 +000000140400     AQBLPL OCT 000000140400
      00602 +000000141000     AQBLMI OCT 000000141000
      00603 +150000000000     (15K10 OCT     150000000000
      00604 +000000400000     (4K5   OCT     400000
      00605  0 00000 0 00060  AQ48   PZE 48
      00606  0 00000 1 00000  TQ1    PZE     0,1
      00607  0 00026 0 00000  DQ22   PZE 0,,22
      00610  0 00001 0 00000  DQ1    PZE     0,,1
      00611  0 00002 0 00000  DQ2    PZE     0,,2
      00612  0 00010 0 00000  DQ8    PZE     0,,8
      00613  0 00015 0 00000  DQ13   PZE     0,,13
      00614 +222000000000     EQ146  DEC 146B8
      00615 +200000000000     EQ128  DEC 2B2
      00616 +000000001000     AQ512  OCT 1000
      00617 -206060606061     AQEOF  OCT 606060606061
                                         LOGICAL
      00620 +000000000077     MQ77   OCT     77
1                    MAD III FOR CTSS ... R M GRAHAM ... MAR 1964                03/15/69 1117.9 PAGE 9

      00621 +077777700000     MQDT   OCT 077777700000
      00622 -377777000000     MQPD   OCT 777777000000
      00623 -377717000000     MQPDD  OCT     777717000000
      00624 -377770000000     MQMPD  OCT     777770000000
      00625 +000007700000     MQMDT  OCT     000007700000
      00626 +000000770000     MQMTA  OCT     000000770000
      00627 -370000000000     MQMDP  OCT     770000000000
      00630 +000007000000     MQMD   OCT     000007000000
      00631 +000000777777     MQTA   OCT 000000777777
      00632 -300000777777     MQPTA  OCT 700000777777
      00633 -377777077777     MQPDA  OCT     777777077777
      00634 +000000077777     MQA    OCT 000000077777
      00635 +000000700000     MQT    OCT 000000700000
      00636 -377777477777     MQCT6  OCT     777777477777
      00637 +077777000000     MQD    OCT 077777000000
      00640 -377777700000     MQPDT  OCT 777777700000
      00641 +077777077777     MQDA   OCT 077777077777
      00642 +003400000000     MQ34   OCT     003400000000
      00643 +070000000000     MQ7    OCT     070000000000
      00644 +060000000000     MQ6    OCT     060000000000
      00645 -377777770000     MQ2CI  OCT 777777770000
      00646 +000000001777     MQCON  OCT     000000001777
      00647 -377760000000     MQPSE  OCT     777760000000
      00650 +000060000000     MQIND  OCT     000060000000
      00651 +000300000000     MQINDS OCT     000300000000
      00652 -206367436040     WQTXL  OCT 606367436040
      00653 -000500000000     WQ479  OCT 400500000000
      00654 +200500000000     WQ279  OCT 200500000000
      00655 +000000077774     MQ100  OCT     77774
                                         INSTRUCTIONS
      00656  0601 00 0 00000  IQSTO  STO     0
      00657  0621 00 0 00000  IQSTA  STA     0
      00660  0020 00 2 00000  IQTRA2 TRA 0,2
      00661  0634 00 4 00000  IQSXA4 SXA     0,4
      00662 -0634 00 1 00000  IQSXD1 SXD     0,1
      00663  0774 00 4 00000  IQAXT4 AXT     0,4
      00664  3 00000 0 00000  IQTXH  TXH     0,0,0
      00665  0402 00 0 00000  IQSUB  SUB     0
      00666  0500 00 4 00000  IQCLA4 CLA 0,4
      00667 -0500 00 0 00552  IQCAL5 CAL PQ5
      00670  0767 00 0 00022  IQALS  ALS 18
      00671  0622 00 0 00000  IQSTD  STD     0
      00672 -3 00000 0 00000  IQTXL  TXL     0,0,0
      00673  0021 00 0 00000  IQTTR  TTR     0
      00674  0760 00 0 00000  IQPSE  PSE     0
      00675  0534 00 1 00000  IQLXA1 LXA     0,1
      00676  0534 00 2 00000  IQLXA2 LXA     0,2
      00677 -0534 00 1 00000  IQLXD1 LXD     0,1
      00700  0074 00 0 00000  IQTSX  TSX     0,0
      00701  0020 00 4 00000  IQTRA4 TRA     0,4
      00702  0020 00 0 06773  IQTRAD TRA DEFINE
      00703 -0340 00 0 00715  IQLAS  LAS     AQDEF
      00704  0 00000 0 00024  AQSUB  PZE SUB
      00705  0 00000 0 00025  AQTAG  PZE TAG
      00706  0 00000 0 00030  AQPAR  PZE PAR
      00707  0 00000 0 00027  AQFCN  PZE FCN
1                    MAD III FOR CTSS ... R M GRAHAM ... MAR 1964                03/15/69 1117.9 PAGE 10

      00710  0 00000 0 00062  AQEFTY PZE EFETY
      00711  0 00000 0 00047  AQCON  PZE CONST
      00712  0 00000 0 00073  AQTAGA PZE TAGA
      00713  0 00000 0 00037  AQFLD  PZE FLD
      00714  0 00000 0 00057  AQBCD  PZE     BCDOP
      00715  0 00000 0 00036  AQDEF  PZE DEF

                                         COMMENTS

      00716  006060606060     COM0   BCD 10
      00717  606060606060     COM1   BCD 1
      00720  014421246047     COM2   BCD 31MAD PROGRAM,TYPE
      00723  454665600111            BCI     2,NOV 1963
      00725  606074214343            BCD 5  (ALL NUMBERS ARE OCTAL)
      00732  006346632143     COM3   BCI     8,0TOTAL LOCATIONS         TRANSFER VECTOR LENGTH
      00742  606060606060            BCI     5,       PROGRAM BEGINS
      00747  602631516263            BCI     6, FIRST UNUSED COMMON/ERASABLE
      00755  432545276330     COM3A  BCI     5,LENGTH000000.  TV SIZE000000.
      00762  602545635170            BCI     2, ENTRY000000
      00764  336060263151            BCI     5,.  FIRST UNUSED COMMON000000.
      00771  006047514627     COM4   BCD 60 PROGRAM IS AN EXTERNAL FUNCTION.
      00777  606330256026            BCD 5 THE FOLLOWING ARE ENTRIES
      01004  006521513121     COM5   BCD  0VARIABLE STORAGE (A=ARRAY,C=COMMON,E=ERASABLE,DIGIT=MODE)
      01016  002664452363     COM6   BCD 40FUNCTION DICTIONARY
      01022  002122624643     COM7   BCD 40ABSOLUTE CONSTANTS
      01026  002151512170     COM8   BCD 90ARRAY VARIABLE            HAS NOT BEEN DIMENSIONED.
      01037  006263216325     COM9   BCD 40STATEMENT DICTIONARY
      01043  004751462751     COM10  BCD 20PROGRAM
      01045  002551514651     COM11  BCI     2,0ERROR
      01047  604721516360            BCI     2, PART III...
      01051  000000000000            BCI     2,000000000000
      01053  606351214562            BCI     9, TRANSLATION HALTED WITH STATEMENT ENDING
      01064  622550642545     COM12  BCD 9SEQUENCE FOR OP-MODE ARGUMENT        INCORRECT OR TOO LONG
      01075  002160652523     COM13  BCD  0A VECTOR VALUES STATEMENT ATTEMPTS TO PRESET ERASABLE
      01107  002160652523     COM14  BCI ,0A VECTOR VALUES STATEMENT ATTEMPTS TO PRESET COMMON WIT
      01121  434623216321            BCI ,LOCATABLE INFORMATION OR STATEMENT LABELS ASSIGNED TO COMMON
      01133  442131456062     COM15  BCD 6MAIN STORAGE AND ERASABLE OVERLAP
      01141  632544474651     COM16  BCD  TEMPORARY          SHOULD HAVE BEEN RESERVED BY OPERATOR
      01153  606060606060            BCD 5       IN STATEMENT ENDING
      01160  004421246025     COM17  BCD 30MAD ERROR
      01163  003124254563     COM18  BCD 50IDENTICAL STATEMENT LABELS
      01170  607463302560     COM19  BCD   (THE NUMERIC FORM OF THE OPERATOR-MODE ARGUMENT IS
      01202  603460606060            BCD 1 )
      01203  632544474651     COM20  BCD  TEMPORARY          RESERVED BUT NOT USED AS OPERAND IN STA
      01215  442545636047            BCD 3MENT PRECEDING
      01220  314565214331     COM22  BCD  INVALID OPERATOR-MODE COMBINATION          (OOO/M/M) IN TH
      01232  626321632544            BCD 3STATEMENT ENDING
      01235  004721512144     COM23  BCD 50PARAMETER USE TABLE EXCEEDED
      01242  002124243163     COM24  BCD 60ADDITIONAL TRANSFER TABLE EXCEEDED
      01250  002643462163     COM25  BCD 60FLOATING ADDRESS TABLE EXCEEDED
      01256  002124243163     COM26  BCD 60ADDITIONAL ABCON TABLE EXCEEDED
      01264  004751462751     COM27  BCD 50PROGRAM ENTRY TABLE EXCEEDED
      01271  006263465121     COM28  BCD 50STORAGE DICTIONARY EXCEEDED
      01276  314343252721     COM29  BCD  ILLEGAL OPERATION OR ADDRESS MNEMONIC IN DEFINING SEQUENCE
      01310  464725512163     COM30  BCD  OPERATION-MODE OR TRANSLATION MATRIX TABLE EXCEEDED
      01322  464725512163     COM31  BCD 7OPERATOR-MODE NOT IN TABLE
1                    MAD III FOR CTSS ... R M GRAHAM ... MAR 1964                03/15/69 1117.9 PAGE 11

      01331  632544474651     COM32  BCD 4TEMPORARY TABLE EXCEEDED
      01335  602100006060     COM33  BCD 1 A00
      01336  606000006060     COM34  BCD 1  00
      01337  000023000000     COM35  BCD 100C000
      01340  000025000000     COM36  BCD 100E000
      01341  000060000000     COM37  BCD 100 000
      01342  000000540000     COM39  BCD 1000*00

                                         CONVERT ADDRESS TO OCTAL SUBROUTINE (CA)
                                            ARG IN AC ADDRESS-RESULT INAC
      01343  0765 00 0 00017  CADDR  LRS 15
      01344  0500 00 0 00600         CLA AQ384
      01345  0763 00 0 00003  CA4    LLS 3
      01346  0767 00 0 00003         ALS 3
      01347  0763 00 0 00003  CA2    LLS 3
      01350  0767 00 0 00003  CA3    ALS 3
      01351  0763 00 0 00003  CA5    LLS 3
      01352  0767 00 0 00003         ALS 3
      01353  0763 00 0 00003  CA1    LLS 3
      01354  0767 00 0 00003         ALS 3
      01355  0763 00 0 00003         LLS 3
      01356  0020 00 4 00001         TRA 1,4
                                             FIND HIGH AND LOW ADDRESS IN A TWO ENTRY
                                             TABLE, WHERE THE BASE ADDRESS CONTAINS THE
                                             LENGTH.
                                             TSX           ROGHL,4
                                                           BA        BASE ADDRESS

                                             RETURN WITH ADDRESS IN 'HIGH.' AND 'LOW.'

      01357  0634 00 4 01405  ROGHL  SXA     ROGHLX,4
      01360  0500 00 4 00001         CLA     1,4
      01361  0621 00 0 01364         STA     ROGHL1
      01362  0401 00 0 00555         ADM     AQ1
      01363  0621 00 0 01372         STA     ROGHL3
      01364  0534 00 4 00000  ROGHL1 LXA     **,4
      01365 -3 00000 4 01405         TXL     ROGHLX,4,0    EMPTY
      01366  0500 60 0 01372  ROGHL2 CLA*    ROGHL3
      01367  0621 00 0 01407         STA     HIGH.
      01370  0621 00 0 01410         STA     LOW.
      01371  0020 00 0 01404         TRA     ROGHL4

      01372  0500 00 4 00000  ROGHL3 CLA     **,4
      01373 -0320 00 0 00634         ANA     MQA
      01374  0340 00 0 01407         CAS     HIGH.
      01375  0601 00 0 01407         STO     HIGH.
      01376  0761 00 0 00000         NOP
      01377  0761 00 0 00000         NOP
      01400  0340 00 0 01410         CAS     LOW.
      01401  0020 00 0 01404         TRA     ROGHL4
      01402  0020 00 0 01404         TRA     ROGHL4
      01403  0601 00 0 01410         STO     LOW.
      01404  2 00002 4 01372  ROGHL4 TIX     ROGHL3,4,2
      01405  0774 00 4 00000  ROGHLX AXT     **,4
      01406  0020 00 4 00002         TRA     2,4
1                    MAD III FOR CTSS ... R M GRAHAM ... MAR 1964                03/15/69 1117.9 PAGE 12

      01407 +000000000000     HIGH.  OCT     0,0
                       01410  LOW.   SYN     HIGH.+1

                                             RELOCATE ADDRESS AFTER PASS 2 OF MAD 3
                                             THIS MEANS THAT RELCON, UPBRK AND COMBRK
                                             HAVE BEEN SET.
      01411 -0320 00 0 00634  ROREL  ANA     MQA
      01412  0402 00 0 00163         SUB     UPBRK
      01413  0765 00 0 00000         LRS     0
      01414  0400 00 0 00163         ADD     UPBRK
      01415  0162 00 4 00001         TQP     1,4
      01416  0402 00 0 00514         SUB     COMBRK
      01417  0765 00 0 00000         LRS     0
      01420  0400 00 0 00514         ADD     COMBRK
      01421  0402 00 0 00513         SUB     RELCON
      01422  0162 00 4 00001         TQP     1,4
      01423  0400 00 0 00513         ADD     RELCON
      01424  0020 00 4 00001         TRA     1,4


                                         WRITE 4WD BCD GROUPS SUBROUTINE (WB)
                                         FORM 2WD INPUT BUFFER GROUPS
      01425  0500 00 4 00001  WRBCD  CLA     1,4
      01426  0621 00 0 01440         STA     WB14
      01427  0621 00 0 01476         STA     WB15
      01430  0621 00 0 01526         STA     WB16
      01431  0621 00 0 01551         STA     WB17
      01432  0621 00 0 01556         STA     WB18
      01433  0621 00 0 01603         STA     WB20
      01434  0400 00 0 00555         ADD     AQ1
      01435  0621 00 0 01450         STA     WB24
      01436  0621 00 0 01575         STA     WB19
      01437  0634 00 4 01511         SXA     WB22,4
      01440  0534 00 1 00000  WB14   LXA     **,1
      01441 -3 00000 1 01512         TXL     WB31,1,0
      01442  0534 00 2 00577  WB21   LXA     AQ20,2
      01443  0500 00 0 00717         CLA COM1
      01444  0601 00 2 17645         STO BCD,2
      01445  2 00001 2 01444         TIX *-1,2,1
      01446  0534 00 2 00577         LXA AQ20,2
      01447  0560 00 0 01335  WB3    LDQ     COM33
      01450 -0500 00 1 00000  WB24   CAL     **,1
      01451  0625 00 0 01650         STT     WBT1
      01452 -0760 00 0 00001         PBT
      01453  0560 00 0 01336         LDQ     COM34
      01454 -0600 00 0 01651         STQ     WBT2
      01455  0560 00 0 01340         LDQ     COM36         LOAD .E. CHECK VS. LOWEST HIGH MEMORY
      01456 -0320 00 0 00634         ANA     MQA
      01457  0402 00 0 00163         SUB     UPBRK
      01460  0765 00 0 00000         LRS     0
      01461  0400 00 0 00163         ADD     UPBRK
      01462  0162 00 0 01513         TQP     WB2.
      01463  0402 00 0 00514         SUB     COMBRK
      01464  0765 00 0 00000         LRS     0
      01465  0400 00 0 00514         ADD     COMBRK
1                    MAD III FOR CTSS ... R M GRAHAM ... MAR 1964                03/15/69 1117.9 PAGE 13

      01466  0402 00 0 00513         SUB     RELCON
      01467  0162 00 0 01520         TQP     WB23
      01470  0400 00 0 00513         ADD     RELCON
      01471 -0600 00 0 01652  WB12   STQ     WBT3
      01472  0074 00 4 01343         TSX     CADDR,4
      01473  3 00000 0 01574  WB11   TXH WB10               FORMAT CHANGE SWITCH 3
      01474  3 00000 0 01524  WB4    TXH WB5                FORMAT CHANGE SWITCH 1
      01475  0602 00 2 17647         SLW BCD+2,2
      01476  0500 00 1 00000  WB15   CLA     **,1
      01477  0601 00 2 17646         STO BCD+1,2
      01500 -0500 00 0 01650         CAL     WBT1
      01501  0771 00 0 00003         ARS     3
      01502  0361 00 0 01651         ACL     WBT2
      01503  0401 00 0 01652         ADM     WBT3
      01504  0602 00 2 17650         SLW     BCD+3,2
      01505  2 00004 2 01522  WB6    TIX WB8,2,4
      01506  0074 00 4 00216  WB7    TSX     PRLINE,4
      01507  0 00024 0 17621         PZE     BCD-20,,20
      01510  2 00002 1 01442         TIX     WB21,1,2
      01511  0774 00 4 00000  WB22   AXT     **,4
      01512  0020 00 4 00002  WB31   TRA     2,4
      01513 -0340 00 0 00167  WB2.   LAS     HICOM.        LOAD .E. CHECK BS LOWEST HIGH MEMORY
      01514  0020 00 0 01471         TRA     WB12
      01515  0761 00 0 00000         NOP
      01516  0560 00 0 01337         LDQ     COM35
      01517  0020 00 0 01471         TRA     WB12
      01520  0560 00 0 01341  WB23   LDQ     COM37
      01521  0020 00 0 01471         TRA     WB12
      01522  2 00002 1 01447  WB8    TIX WB3,1,2
      01523  0020 00 0 01506         TRA WB7
      01524  3 00000 0 01550  WB5    TXH WB9                FORMAT CHANGE SWITCH 2
      01525  0602 00 2 17645         SLW BCD,2
      01526  0560 00 1 00000  WB16   LDQ     **,1
      01527  0500 00 0 00601         CLA AQBLPL
      01530  0162 00 0 01532         TQP *+2
      01531  0500 00 0 00602         CLA AQBLMI
      01532  0763 00 0 00002         LLS 2
      01533  0074 00 4 01350         TSX CA3,4
      01534  0602 00 2 17646         SLW BCD+1,2
      01535 -0754 00 0 00000         PXD
      01536  0763 00 0 00003         LLS 3
      01537  0767 00 0 00003         ALS 3
      01540  0074 00 4 01345         TSX CA4,4
      01541  0602 00 2 17647         SLW BCD+2,2
      01542 -0754 00 0 00000         PXD
      01543  0074 00 4 01353         TSX CA1,4
      01544  0560 00 0 00717         LDQ COM1
      01545 -0763 00 0 00030         LGL 24
      01546  0602 00 2 17650         SLW BCD+3,2
      01547  0020 00 0 01505         TRA WB6
      01550  0602 00 2 17645  WB9    SLW BCD,2
      01551  0500 00 1 00000  WB17   CLA     **,1
      01552  0400 00 0 00513         ADD RELCON
      01553  0765 00 0 00022         LRS 18
      01554  0400 00 0 00513         ADD RELCON
      01555  0765 00 0 00021         LRS 17
1                    MAD III FOR CTSS ... R M GRAHAM ... MAR 1964                03/15/69 1117.9 PAGE 14

      01556 -0600 00 1 00000  WB18   STQ     **,1
      01557  0500 00 0 00652         CLA WQTXL
      01560  0601 00 2 17646         STO BCD+1,2
      01561 -0754 00 0 00000         PXD
      01562  0763 00 0 00002         LLS 2
      01563  0767 00 0 00003         ALS 3
      01564  0074 00 4 01345         TSX CA4,4
      01565  0602 00 2 17647         SLW BCD+2,2
      01566 -0754 00 0 00000         PXD
      01567  0763 00 0 00003         LLS 3
      01570  0074 00 4 01345         TSX CA4,4
      01571  0602 00 2 17650         SLW BCD+3,2
      01572 -0500 00 0 00717         CAL COM1
      01573  0020 00 0 01645         TRA WB13
      01574  0602 00 2 17645  WB10   SLW BCD,2
      01575  0560 00 1 00000  WB19   LDQ     **,1
      01576  0500 00 0 00605         CLA AQ48
      01577 -0763 00 0 00022         LGL 18
      01600  0767 00 0 00006         ALS 6
      01601 -0501 00 0 00605         ORA AQ48
      01602  0767 00 0 00006         ALS 6
      01603  0560 00 1 00000  WB20   LDQ     **,1
      01604 -0501 00 0 00557         ORA AQ16
      01605  0162 00 0 01607         TQP *+2
      01606  0400 00 0 00557         ADD AQ16
      01607  0602 00 2 17646         SLW BCD+1,2
      01610 -0754 00 0 00000         PXD
      01611  0763 00 0 00002         LLS 2
      01612 -0100 00 0 01624         TNZ     WB25
      01613 -0600 00 0 01650         STQ     WBT1
      01614  0131 00 0 00000         XCA
      01615 -0320 00 0 00651         ANA     MQINDS
      01616  0402 00 0 00651         SUB     MQINDS
      01617 -0100 00 0 01622         TNZ     WB26
      01620  0500 00 2 17646         CLA     BCD+1,2
      01621  0601 00 2 17646         STO     BCD+1,2
      01622  0560 00 0 01650  WB26   LDQ     WBT1
      01623 -0754 00 0 00000         PXD
      01624  0767 00 0 00011  WB25   ALS     9
      01625 -0501 00 0 00600         ORA AQ384
      01626  0074 00 4 01347         TSX CA2,4
      01627  0602 00 2 17647         SLW BCD+2,2
      01630 -0754 00 0 00000         PXD
      01631  0763 00 0 00003         LLS 3
      01632  0767 00 0 00011         ALS 9
      01633 -0501 00 0 00600         ORA AQ384
      01634  0763 00 0 00003         LLS 3
      01635  0767 00 0 00011         ALS 9
      01636 -0501 00 0 00600         ORA AQ384
      01637  0074 00 4 01353         TSX CA1,4
      01640  0602 00 2 17650         SLW BCD+3,2
      01641 -0754 00 0 00000         PXD
      01642  0074 00 4 01351         TSX CA5,4
      01643  0560 00 0 00717         LDQ COM1
      01644 -0763 00 0 00022         LGL 18
      01645  0602 00 2 17651  WB13   SLW BCD+4,2
1                    MAD III FOR CTSS ... R M GRAHAM ... MAR 1964                03/15/69 1117.9 PAGE 15

      01646  2 00005 2 01522         TIX WB8,2,5
      01647  0020 00 0 01506         TRA WB7
      01650  0 00000 0 00000  WBT1   PZE
      01651  0 00000 0 00000  WBT2   PZE
      01652  0 00000 0 00000  WBT3   PZE

                                         WRITE OUTPUT TAPE FROM 2 WD INPUT
                                         BUFFER ENTRIES SUBROUTINE (WT)
      01653  0 00000 0 00000  B.S.S. PZE
      01654  606060226262            BCI     1,   BSS
      01655  0500 00 4 00001  WTBIN  CLA     1,4
      01656  0621 00 0 01664         STA     WT22
      01657  0621 00 0 01731         STA     WT25
      01660  0400 00 0 00555         ADD     AQ1
      01661  0621 00 0 01675         STA     WT23
      01662  0621 00 0 01701         STA     WT3
      01663  0621 00 0 01706         STA     WT24
      01664  0534 00 1 00000  WT22   LXA     **,1
      01665 -3 00000 1 02037         TXL WT1,1,0
      01666 -0634 00 4 02064         SXD WTT1,4
      01667 -0534 00 4 13717         LXD BIN+1,4
      01670 -0534 00 2 13716         LXD BIN,2
      01671 -3 00023 2 01701  WT2    TXL WT3,2,19
      01672  0774 00 4 00031         AXT 25,4
      01673  0600 00 4 13716         STZ BIN,4
      01674  2 00001 4 01673         TIX *-1,4,1
      01675  0500 00 1 00000  WT23   CLA     **,1
      01676 -0320 00 0 00634         ANA MQA
      01677  0601 00 0 13666         STO BIN-24
      01700  0534 00 4 00556         LXA AQ0,4
      01701  0500 00 1 00000  WT3    CLA     **,1
      01702 -0320 00 0 00634         ANA MQA
      01703  0402 00 0 13665         SUB BIN-25
      01704  0402 00 0 13666         SUB BIN-24
      01705 -0100 00 0 02040         TNZ WT7
      01706  0500 00 1 00000  WT24   CLA     **,1
      01707 -0320 00 0 00635         ANA MQT
      01710 -0754 00 0 00000  WT6    PXD                    PXD OR CAL P=S OR ALS 18
      01711  0630 00 0 02065         STP WTT2
      01712  0560 00 0 00556         LDQ AQ0
      01713  0765 00 4 00000         LRS 0,4
      01714 -0602 00 0 13670         ORS BIN-22
      01715 -0600 00 0 02066         STQ WTT3
      01716 -0500 00 0 02066         CAL WTT3
      01717  0767 00 0 00001         ALS 1
      01720 -0602 00 0 13671         ORS BIN-21
      01721  0500 00 0 02065         CLA WTT2
      01722 -0120 00 0 01725         TMI WT10
      01723 -0100 00 0 01726         TNZ WT11
      01724  1 77776 4 01730         TXI WT12,4,-2
      01725 -0100 00 0 01727  WT10   TNZ WT13
      01726  1 77775 4 01730  WT11   TXI WT12,4,-3
      01727  1 77774 4 01730  WT13   TXI WT12,4,-4
      01730 -3 77667 4 02040  WT12   TXL WT7,4,-73
      01731 -0500 00 1 00000  WT25   CAL     **,1
      01732  0602 00 2 13716         SLW BIN,2
1                    MAD III FOR CTSS ... R M GRAHAM ... MAR 1964                03/15/69 1117.9 PAGE 16

      01733  0361 00 0 13667         ACL BIN-23
      01734  0602 00 0 13667         SLW BIN-23
      01735  0500 00 0 13665         CLA BIN-25
      01736  0400 00 0 00555         ADD AQ1
      01737  0601 00 0 13665         STO BIN-25
      01740  2 00001 2 02033         TIX WT9,2,1
      01741  0500 00 0 13666  WT5    CLA BIN-24
      01742  0340 00 0 00167         CAS     HICOM.
      01743  0020 00 0 02062         TRA     WT15
      01744  0761 00 0 00000         NOP
      01745  0340 00 0 00163         CAS     UPBRK
      01746  0020 00 0 02041         TRA     WT14
      01747  0761 00 0 00000         NOP
      01750  0500 00 0 13665         CLA     BIN-25
      01751  0767 00 0 00022         ALS 18
      01752  0400 00 0 13666         ADD BIN-24
      01753  0402 00 0 00513         SUB RELCON
      01754 -0501 00 0 00654  WT17   ORA     WQ279
      01755  0602 00 0 13666         SLW     BIN-24
      01756  0361 00 0 13670         ACL BIN-22
      01757  0361 00 0 13671         ACL BIN-21
      01760  0361 00 0 13667  WT17.  ACL     BIN-23
      01761  0602 00 0 13667         SLW BIN-23
      01762  0774 00 4 00030  WT8    AXT     24,4
      01763  0500 00 4 13716         CLA BIN,4
      01764  0601 00 4 13546         STO REBN-3,4
      01765  2 00001 4 01763         TIX     *-2,4,1
      01766  0774 00 2 00004         AXT     4,2
      01767  0020 00 0 02007         TRA     WT18
      01770  0500 00 0 02073  WT26   CLA     ID1
      01771  0601 00 0 13546         STO REBN-3
      01772  0500 00 0 02074         CLA ID2
      01773  0601 00 0 13547         STO REBN-2
      01774  0500 00 0 02075         CLA ID3
      01775  0601 00 0 13550         STO REBN-1
      01776  0074 00 4 07645         TSX     BFWRIT,4
      01777  3 00000 0 01653         TXH     B.S.S.
      02000  3 00000 0 01654         TXH     B.S.S.+1
      02001  3 00034 0 13516         TXH     REBN-PPREBN,,PPREBN+1
      02002  3 00000 0 05025         TXH     EOF
      02003  3 00000 0 00213         TXH     (EOFCT
      02004  3 00000 0 00272         TXH     CHNXIT
      02005 -3 00000 0 04063  WT21   TXL     MP33    SWITCHED AFTER PGM CARD
      02006  0020 00 0 02032         TRA     WT29
      02007  0500 00 2 02073  WT18   CLA WTT6+1,2
      02010  0771 00 0 00001         ARS 1
      02011  0100 00 0 02014         TZE WT19
      02012  0601 00 2 02073         STO WTT6+1,2
      02013  0020 00 0 02017         TRA WT20
      02014  0500 00 0 00616  WT19   CLA AQ512
      02015  0601 00 2 02073         STO WTT6+1,2
      02016  2 00001 2 02007         TIX WT18,2,1
      02017  0500 00 0 02067  WT20   CLA     WTT7
      02020  0767 00 0 00030         ALS     24
      02021  0767 00 0 00014         ALS 12
      02022  0601 00 0 02075         STO ID3
1                    MAD III FOR CTSS ... R M GRAHAM ... MAR 1964                03/15/69 1117.9 PAGE 17

      02023  0500 00 0 02072         CLA     WTT6
      02024  0767 00 0 00014         ALS     12
      02025 -0501 00 0 02071         ORA     WTT5
      02026  0767 00 0 00014         ALS     12
      02027 -0501 00 0 02070         ORA     WTT4
      02030  0602 00 0 02074         SLW     ID2
      02031  0020 00 0 01770         TRA     WT26
      02032  0534 00 2 00577  WT29   LXA     AQ20,2
      02033  2 00002 1 01671  WT9    TIX WT2,1,2
      02034 -0634 00 2 13716         SXD BIN,2
      02035 -0634 00 4 13717         SXD BIN+1,4
      02036 -0534 00 4 02064         LXD WTT1,4
      02037  0020 00 4 00002  WT1    TRA     2,4
      02040  1 00002 1 01741  WT7    TXI WT5,1,2
      02041  0500 00 0 13670  WT14   CLA     BIN-22
      02042  0400 00 0 13671         ADD     BIN-21
      02043 -0100 00 0 02060         TNZ     WT16
      02044  0534 00 2 00577         LXA     AQ20,2
      02045  0500 00 2 13716         CLA     BIN,2
      02046  0601 00 2 13714         STO     BIN-2,2
      02047  2 00001 2 02045         TIX     *-2,2,1
      02050  0600 00 0 13715         STZ     BIN-1
      02051  0600 00 0 13714         STZ     BIN-2
      02052  0500 00 0 13665         CLA     BIN-25
      02053  0767 00 0 00022         ALS     18
      02054  0400 00 0 13666         ADD     BIN-24
      02055  0402 00 0 00653         SUB     WQ479
      02056  0602 00 0 13666         SLW     BIN-24
      02057  0020 00 0 01760         TRA     WT17.
      02060  0074 00 4 02362  WT16   TSX     ERROR,4
      02061  0 00024 0 01107         PZE     COM14,,20
      02062  0074 00 4 02362  WT15   TSX ERROR,4            LOADING ERASABLE
      02063  0 00012 0 01075         PZE COM13,,10
      02064  0 73712 0 00000  WTT1   PZE     0,,-MP2+2
      02065  0 00000 0 00000  WTT2   PZE
      02066  0 00000 0 00000  WTT3   PZE
      02067 +000000001000     WTT7   OCT     1000
      02070 +000000001000     WTT4   OCT 1000
      02071 +000000001000     WTT5   OCT 1000
      02072 +000000001000     WTT6   OCT 1000
      02073  0 00000 0 00000  ID1    PZE
      02074  0 00000 0 00000  ID2    PZE
      02075 +100010001000     ID3    OCT     100010001000

                                            BCD WRITE ROUTINE  'BW)

      02076 -0763 00 0 00004  BCDWR  LGL     4
      02077 -0100 00 0 02102         TNZ     BW21
      02100  0500 00 0 02355         CLA     BW11
      02101  0601 00 0 02125         STO     BW2
      02102  0767 00 0 00022  BW21   ALS     18
      02103  0402 00 0 00613         SUB     DQ13
      02104  0622 00 0 02140         STD     BW23
      02105  0634 00 2 02357         SXA     BWT2,2
      02106  0634 00 1 02361         SXA     BWT5,1
      02107  0500 00 0 02361         CLA     BWT5
1                    MAD III FOR CTSS ... R M GRAHAM ... MAR 1964                03/15/69 1117.9 PAGE 18

      02110  0402 00 0 02357         SUB     BWT2
      02111  0100 00 0 02125         TZE     BW2
      02112  0500 00 0 02356         CLA     BWT1
      02113  0402 00 0 02357         SUB     BWT2
      02114  0621 00 0 02122         STA     BW6
      02115  0621 00 0 02124         STA     BW7
      02116  0500 00 0 03236         CLA     IRT3
      02117  0402 00 0 02357         SUB     BWT2
      02120  0601 00 2 47044         STO     CODE,2
      02121  0074 00 4 01425         TSX     WRBCD,4
      02122  0761 00 0 00000  BW6    NOP     **
      02123  0074 00 4 01655         TSX     WTBIN,4
      02124  0761 00 0 00000  BW7    NOP     **
      02125  0534 00 1 02361  BW2    LXA     BWT5,1
      02126  0500 00 1 47044         CLA     CODE,1
      02127  0765 00 0 00014         LRS     12
      02130  0767 00 0 00006         ALS     6
      02131 -0501 00 0 00605         ORA     AQ48
      02132  0763 00 0 00014         LLS     12
      02133  0602 00 0 17643         SLW     BCD-2
      02134  0500 00 1 47045         CLA     CODE+1,1
      02135  0601 00 0 17644         STO     BCD-1
      02136  0774 00 4 00015         AXT     13,4
      02137  1 77776 1 02140         TXI     *+1,1,-2
      02140 -3 00000 4 02145  BW23   TXL     BW22,4,**
      02141  0500 00 1 47044         CLA     CODE,1
      02142  0601 00 4 17643         STO     BCD-2,4
      02143  1 77777 1 02144         TXI     *+1,1,-1
      02144  1 77777 4 02140         TXI     BW23,4,-1
      02145  0500 00 0 00717  BW22   CLA     COM1
      02146  0601 00 4 17643         STO     BCD-2,4
      02147  2 00001 4 02145         TIX     BW22,4,1
      02150  0520 00 0 00176         ZET     SYMFSW
      02151 -0625 00 0 02332         STL     SEQNSW
      02152  0074 00 4 00216  BW4    TSX     PRLINE,4
      02153 -0 00017 0 17626         MZE     BCD-15,,15
      02154  3 26210 1 02234  BW5    TXH     BW18,1,PPCODE
      02155  0500 00 0 02347  BW9    CLA     BW10
      02156  0622 00 0 02154         STD     BW5
      02157 -0120 00 0 02233         TMI     BW12
      02160  0621 00 0 02225         STA     BW13
      02161  0630 00 0 02345         STP     BW14
      02162  0520 00 0 02345         ZET     BW14
      02163  0774 00 1 13104         AXT     PPCODE/2,1
      02164  0500 00 0 00465         CLA     SATEST
      02165  0100 00 0 02231         TZE     BW19
      02166  0402 00 0 00555         SUB     AQ1
      02167  0601 00 0 00465         STO     SATEST
      02170  0402 00 0 00555         SUB AQ1
      02171 -0100 00 0 02175         TNZ     *+4
      02172  0500 00 0 02360         CLA BWT3
      02173  0622 00 0 02354         STD BW20
      02174  0622 00 0 02351         STD     BW3
      02175  3 00000 0 02211         TXH     BW17,,0
      02176  0502 00 0 02175         CLS     *-1
      02177  0601 00 0 02175         STO     *-2
1                    MAD III FOR CTSS ... R M GRAHAM ... MAR 1964                03/15/69 1117.9 PAGE 19

      02200  0074 00 4 07470         TSX     BFOPEN,4
      02201  3 00000 0 00551         TXH     (R
      02202  3 00000 0 05031         TXH     C.O.DE
      02203  3 00000 0 05032         TXH     C.O.DE+1
      02204  3 00000 0 75360         TXH     B1
      02205  3 00000 0 74500         TXH     B2
      02206  3 00000 0 00553         TXH     PQ4
      02207  3 00000 0 00553         TXH     PQ4
      02210  3 00000 0 02364         TXH     MADERR
      02211  0074 00 4 07643  BW17   TSX     BFREAD,4
      02212  3 00000 0 05031         TXH     C.O.DE
      02213  3 00000 0 05032         TXH     C.O.DE+1
      02214  3 00001 0 02346         TXH     BW24,,1
      02215  3 00000 0 02364         TXH     MADERR
      02216  3 00000 0 00213         TXH     (EOFCT
      02217  3 00000 0 02364         TXH     MADERR
      02220  0500 00 0 02346         CLA     BW24
      02221  0622 00 0 02225         STD     BW13
      02222  0074 00 4 07643         TSX     BFREAD,4
      02223  3 00000 0 05031         TXH     C.O.DE
      02224  3 00000 0 05032         TXH     C.O.DE+1
      02225  3 00000 0 00000  BW13   TXH     **,,**
      02226  3 00000 0 02364         TXH     MADERR
      02227  3 00000 0 00213         TXH     (EOFCT
      02230  3 00000 0 02364         TXH     MADERR
      02231 -0500 00 0 02155  BW19   CAL     BW9
      02232  0361 00 0 00555         ACL     AQ1
      02233  0621 00 0 02155  BW12   STA     BW9
      02234 -0634 00 1 47044  BW18   SXD     CODE,1
                                             HERE TO WRITE OUT SEQUENCE NUMBERS

      02235 -0520 00 0 02332         NZT     SEQNSW        IS THERE A WAITING SEQUENCE NUMBER
      02236  0020 00 0 02343         TRA     BW.X
      02237  0020 00 0 02240  BW.1   TRA     *+1
      02240  0500 00 0 00357         CLA     TAB7.5        FIRST TIME THRU, SET UP FIRST
      02241  0621 00 0 02333         STA     FLOC
      02242  0771 00 0 00022         ARS     18            AND LAST LOCATION
      02243  0401 00 0 02333         ADM     FLOC          TO TEST BOUNDS
      02244  0402 00 0 00555         SUB     AQ1
      02245  0621 00 0 02334         STA     LLOC
      02246 -0625 00 0 02237         STL     BW.1
      02247  0634 00 1 03236  BW.1B  SXA     IRT3,1
      02250  0534 00 2 03236         LXA     IRT3,2
      02251  0560 00 1 47044         LDQ     CODE,1
      02252 -0754 00 0 00000         ZAC
      02253 -0763 00 0 00002         LGL     2
      02254  0402 00 0 00575         SUB     AQ3
      02255  0100 00 0 02076         TZE     BCDWR
      02256 -0130 00 0 00000         XCL
      02257  0771 00 0 00002         ARS     2
      02260  0074 00 4 01411         TSX     ROREL,4
      02261  0601 00 0 02335         STO     BW.T
      02262  0340 00 0 02333         CAS     FLOC          COMPARE ADDRESS TO FIRST LOCATION OF PGM
      02263  0020 00 0 02266         TRA     BW.2          .G. FIRST LOCATION, CHECK HIGH END
      02264  0020 00 0 02271         TRA     BW.3          .E. FIRST, SURELY O K
      02265  0020 00 0 02343         TRA     BW.X          .L. FIRST, NO GOOD
1                    MAD III FOR CTSS ... R M GRAHAM ... MAR 1964                03/15/69 1117.9 PAGE 20

      02266  0340 00 0 02334  BW.2   CAS     LLOC          COMPARE TO LAST LOCATION
      02267  0020 00 0 02343         TRA     BW.X          TO HIGH
      02270  0761 00 0 00000         NOP
      02271 -0500 00 0 17644  BW.3   CAL     BCD-1
      02272  0774 00 4 00000         AXT     0,4
      02273  0602 00 0 02336  BW.3D  SLW     BW.T1
      02274 -0320 00 0 00620         ANA     MQ77
      02275 -0340 00 0 00574         LAS     AQ9
      02276  0020 00 0 02306         TRA     BW.3C
      02277  0761 00 0 00000         NOP
      02300 -0765 00 0 00006         LGR     6
      02301  1 00006 4 02302         TXI     *+1,4,6
      02302  3 00036 4 02306         TXH     BW.3C,4,30
      02303 -0500 00 0 02336         CAL     BW.T1
      02304  0771 00 0 00006         ARS     6
      02305  0020 00 0 02273         TRA     BW.3D
      02306 -0754 00 0 00000  BW.3C  ZAC
      02307 -0765 00 4 00044         LGR     36,4
      02310  0774 00 4 00006         AXT     6,4
      02311  0600 00 0 02336         STZ     BW.T1
      02312 -0754 00 0 00000  BW.3A  ZAC
      02313 -0763 00 0 00003         LGL     3
      02314  0401 00 0 02336         ADM     BW.T1
      02315 -0763 00 0 00003         LGL     3
      02316  0401 00 0 02336         ADM     BW.T1
      02317  0401 00 0 02336         ADM     BW.T1
      02320  0601 00 0 02336         STO     BW.T1
      02321  2 00001 4 02312         TIX     BW.3A,4,1
      02322  0774 00 4 00000  BW.1A  AXT     0,4
      02323  1 77777 4 02324         TXI     *+1,4,-1
      02324  0634 00 4 02322         SXA     BW.1A,4
      02325  3 77160 4 02337         TXH     BW.3B,4,-PPCDIM
      02326  1 00001 4 02327         TXI     *+1,4,1
      02327  0634 00 4 02322         SXA     BW.1A,4
      02330 -0625 00 0 02237         STL     BW.1
      02331  0020 00 0 02343         TRA     BW.X

      02332  0 00000 0 00000  SEQNSW PZE     0
      02333 +000000000000     FLOC   OCT     0,0
                       02334  LLOC   SYN     FLOC+1
      02335  0 00000 0 00000  BW.T   PZE
      02336  0 00000 0 00000  BW.T1  PZE

      02337  0500 00 0 02335  BW.3B  CLA     BW.T
      02340  0767 00 0 00022         ALS     18
      02341 -0501 00 0 02336         ORA     BW.T1
      02342  0601 00 4 65507         STO     CDIM.-1,4
      02343  0600 00 0 02332  BW.X   STZ     SEQNSW
      02344  0020 00 0 02750         TRA     INREW

      02345  0 00000 0 00000  BW14   PZE
      02346  0 00000 0 00000  BW24   PZE
      02347  0 15364 0 33740  BW10   PZE     CODE-PPCODE/2,,PPCODE/2+PPMRK2
      02350  0 07722 0 41402         PZE     CODE-PPCODE/4,,PPCODE/4+PPMRK2
      02351 -0 05442 0 02352  BW3    MZE     *+1,,PPCODE/4
      02352  0 02260 0 33740         PZE     CODE-PPCODE/2,,PPMRK2
1                    MAD III FOR CTSS ... R M GRAHAM ... MAR 1964                03/15/69 1117.9 PAGE 21

      02353  1 07722 0 41402         PON     CODE-PPCODE/4,,PPCODE/4+PPMRK2
      02354 -0 05442 0 02352  BW20   MZE *-2,,PPCODE/4
      02355  0020 00 0 02421  BW11   TRA     FINIS
      02356  0 00000 0 47044  BWT1   PZE CODE
      02357  0 00000 0 00000  BWT2   PZE
      02360  0 00000 0 00000  BWT3   PZE
      02361  0 00000 0 00000  BWT5   PZE

                                             ERROR SUBROUTINE

      02362  0560 00 4 00001  ERROR  LDQ     1,4
      02363 -0600 00 0 02416         STQ     ER5
      02364 -0634 00 4 02420  MADERR SXD     ERT1,4
      02365 -0535 00 4 02420         LDC     ERT1,4
      02366  0601 00 0 02420         STO     ERT1
      02367  0754 00 4 00000         PXA     0,4
      02370  0074 00 4 01343         TSX CADDR,4
      02371  0602 00 0 01046         SLW COM11+1
      02372  0560 00 0 02420         LDQ ERT1
      02373  0774 00 4 00006         AXT     6,4
      02374 -0754 00 0 00000         PXD
      02375  0767 00 0 00003  ER1    ALS 3
      02376 -0763 00 0 00003         LGL 3
      02377  2 00001 4 02375         TIX ER1,4,1
      02400  0602 00 0 01051         SLW     COM11+4
      02401  0560 00 0 02420         LDQ ERT1
      02402 -0763 00 0 00022         LGL 18
      02403  0774 00 4 00006         AXT     6,4
      02404 -0754 00 0 00000         PXD
      02405  0767 00 0 00003  ER2    ALS 3
      02406 -0763 00 0 00003         LGL 3
      02407  2 00001 4 02405         TIX ER2,4,1
      02410  0602 00 0 01052         SLW     COM11+5
      02411  0074 00 4 00263         TSX     WRFLX,4
      02412  0 00015 0 01045         PZE     COM11,,13
      02413  0074 00 4 00263         TSX     WRFLX,4
      02414  0 00017 0 17626         PZE     BCD-15,,15
      02415  0074 00 4 00263         TSX     WRFLX,4
      02416  0 00003 0 01160  ER5    PZE     COM17,,3
      02417  0020 00 0 00304  ER3    TRA     UNSCCS
      02420  0 00000 0 00000  ERT1   PZE

                                             SUCCESSFUL COMPILATION (SC)

                                             FINISH SEQNO TABLE, CDIM AND CMST
      02421 -0520 00 0 00176  FINIS  NZT     SYMFSW
      02422  0020 00 0 02556         TRA     QQ5
      02423  0535 00 4 02322         LAC     BW.1A,4       SET UP COUNT OF SEQNOS
      02424 -0634 00 4 02440         SXD     BW.1D,4
      02425  0634 00 4 00337         SXA     TAB4+1,4
      02426  0074 00 4 07645         TSX     BFWRIT,4
      02427  3 00000 0 00175         TXH     SYM.FL
      02430  3 00000 0 00176         TXH     SYM.FL+1
      02431  3 00002 0 00336         TXH     TAB4,,2
      02432  3 00000 0 05025         TXH     EOF
      02433  3 00000 0 00213         TXH     (EOFCT
1                    MAD III FOR CTSS ... R M GRAHAM ... MAR 1964                03/15/69 1117.9 PAGE 22

      02434  3 00000 0 00272         TXH     CHNXIT
      02435  0074 00 4 07645         TSX     BFWRIT,4
      02436  3 00000 0 00175         TXH     SYM.FL
      02437  3 00000 0 00176         TXH     SYM.FL+1
      02440  3 00000 0 65510  BW.1D  TXH     CDIM.,,**
      02441  3 00000 0 05025         TXH     EOF
      02442  3 00000 0 00213         TXH     (EOFCT
      02443  3 00000 0 00272         TXH     CHNXIT
                                             NOW WRITE OUT DIMVEC AND CMST
      02444  0534 00 2 67151         LXA     CDIM,2
      02445  0754 00 2 00000         PXA     0,2
      02446 -3 00000 2 02510         TXL     QQ3,2,0
      02447  0601 00 0 00343         STO     TAB6+1
      02450 -0634 00 2 02504         SXD     QQ4,2
      02451 -0760 00 0 00003         SSM
      02452  0400 00 0 02504         ADD     QQ4
      02453  0621 00 0 02504         STA     QQ4
      02454  0074 00 4 07645         TSX     BFWRIT,4
      02455  3 00000 0 00175         TXH     SYM.FL
      02456  3 00000 0 00176         TXH     SYM.FL+1
      02457  3 00002 0 00342         TXH     TAB6,,2
      02460  3 00000 0 05025         TXH     EOF
      02461  3 00000 0 00213         TXH     (EOFCT
      02462  3 00000 0 00272         TXH     CHNXIT
      02463  0534 00 1 72737  QQ1    LXA     CMST,1
      02464 -0500 00 2 67151         CAL     CDIM,2
      02465 -0340 00 1 72737         LAS     CMST,1
      02466  0020 00 0 02470         TRA     *+2
      02467  0020 00 0 02472         TRA     QQ2
      02470  2 00002 1 02465         TIX     *-3,1,2
      02471  0074 00 4 02364         TSX     MADERR,4      MUST BE IN MST
      02472 -0500 00 1 72740  QQ2    CAL     CMST+1,1      GET ADDRESS OF SYMBOL
      02473  0074 00 4 01411         TSX     ROREL,4
      02474 -0765 00 0 00022         LGR     18
      02475 -0500 00 2 67152         CAL     CDIM+1,2      GET DIMENSION OF VARIABLE
      02476 -0763 00 0 00022         LGL     18
      02477  0602 00 2 67152         SLW     CDIM+1,2
      02500  2 00002 2 02463         TIX     QQ1,2,2
      02501  0074 00 4 07645         TSX     BFWRIT,4
      02502  3 00000 0 00175         TXH     SYM.FL
      02503  3 00000 0 00176         TXH     SYM.FL+1
      02504  3 00000 0 65510  QQ4    TXH     CDIM.,,**
      02505  3 00000 0 05025         TXH     EOF
      02506  3 00000 0 00213         TXH     (EOFCT
      02507  3 00000 0 00272         TXH     CHNXIT

      02510  0534 00 2 72737  QQ3    LXA     CMST,2        HERE TO WRITE OUT CMST
      02511 -3 00000 2 02556         TXL     QQ5,2,0
      02512  0754 00 2 00000         PXA     0,2
      02513  0601 00 0 00335         STO     TAB3+1
      02514  0074 00 4 07645         TSX     BFWRIT,4
      02515  3 00000 0 00175         TXH     SYM.FL
      02516  3 00000 0 00176         TXH     SYM.FL+1
      02517  3 00002 0 00334         TXH     TAB3,,2
      02520  3 00000 0 05025         TXH     EOF
      02521  3 00000 0 00213         TXH     (EOFCT
1                    MAD III FOR CTSS ... R M GRAHAM ... MAR 1964                03/15/69 1117.9 PAGE 23

      02522  3 00000 0 00272         TXH     CHNXIT
      02523  0774 00 1 00000  QQ8    AXT     0,1
      02524  0500 00 2 72737         CLA     CMST,2
      02525  0601 00 1 65510         STO     CDIM.,1
      02526 -0500 00 2 72740         CAL     CMST+1,2      GET CODE WORD FROM TABLE
      02527  0602 00 1 65511         SLW     CDIM.+1,1     SAVE PREFIX AND TAG
      02530  0771 00 0 00022         ARS     18
      02531 -0320 00 0 00634         ANA     MQA           LOOK AT DIMVEC LOCATION
      02532  0100 00 0 02535         TZE     *+3
      02533  0074 00 4 01411         TSX     ROREL,4       RELOCATE IT
      02534  0767 00 0 00022         ALS     18
      02535  0622 00 1 65511         STD     CDIM.+1,1
      02536  0500 00 2 72740         CLA     CMST+1,2      GET LOCATION OF VARIABLE
      02537  0074 00 4 01411         TSX     ROREL,4
      02540  0621 00 1 65511         STA     CDIM.+1,1
      02541  1 77776 1 02542         TXI     *+1,1,-2
      02542 -2 00002 2 02545         TNX     QQ6,2,2
      02543  3 77160 1 02524         TXH     QQ8+1,1,-PPCDIM
      02544 -0774 00 1 00620         AXC     PPCDIM,1
      02545 -0636 00 1 02551  QQ6    SCD     QQ7,1
      02546  0074 00 4 07645         TSX     BFWRIT,4
      02547  3 00000 0 00175         TXH     SYM.FL
      02550  3 00000 0 00176         TXH     SYM.FL+1
      02551  3 00000 0 65510  QQ7    TXH     CDIM.,,**
      02552  3 00000 0 05025         TXH     EOF
      02553  3 00000 0 00213         TXH     (EOFCT
      02554  3 00000 0 00272         TXH     CHNXIT
      02555  3 00002 2 02523         TXH     QQ8,2,2
                       02556  QQ5    SYN     *             END OF CDIM AND CMST WRITING

      02556  0500 00 0 00154         CLA     SIMPIO
      02557  0054 00  300000         RFT     300000
      02560  0020 00 0 02562         TRA     SC2A
      02561  0020 00 0 02740         TRA     SC2B          TAG=4, NO SYMBOL TABLE WANTED
      02562  0600 00 0 02745  SC2A   STZ     PARTSW
      02563  0056 00  600000         RNT     600000
      02564 -0625 00 0 02745         STL     PARTSW        TAG=5, WANT PARTIAL SYMBOL TABLE
      02565  0534 00 1 72737         LXA     CMST,1
      02566  0754 00 1 00000         PXA     0,1
      02567 -0520 00 0 02745         NZT     PARTSW
      02570  0400 00 0 00572         ADD AQ4
      02571  0621 00 0 72737         STA     CMST
      02572  0400 00 0 00555         ADD AQ1
      02573  0767 00 0 00001         ALS     1
      02574  0734 00 2 00000         PAX     0,2
      02575  0601 00 0 02746         STO     IR2BEG
      02576  0520 00 0 02745         ZET     PARTSW
      02577  0020 00 0 02610         TRA     SC2
      02600  0500 00 0 02716         CLA     SC9
      02601  0601 00 1 72735         STO     CMST-2,1
      02602  0601 00 1 72733         STO     CMST-4,1
      02603  0502 00 0 00161         CLS COMLOC
      02604  0601 00 1 72736         STO     CMST-1,1
      02605  0502 00 0 00163         CLS     UPBRK
      02606  0601 00 1 72734         STO     CMST-3,1
      02607  1 00004 1 02610         TXI     *+1,1,4
1                    MAD III FOR CTSS ... R M GRAHAM ... MAR 1964                03/15/69 1117.9 PAGE 24

      02610  0441 00 1 72740  SC2    LDI     CMST+1,1
      02611  0520 00 0 02745         ZET     PARTSW
      02612 -0054 00  100000         LFT     100000
      02613  0020 00 0 02616         TRA     *+3
      02614  2 00002 1 02610         TIX     SC2,1,2
      02615  0020 00 0 02676         TRA     SC7A
      02616 -0057 00  100000         RIL     100000
      02617  0604 00 2 72741         STI     CMST+2,2
      02620  0500 00 1 72737         CLA     CMST,1
      02621  0601 00 2 72737         STO     CMST,2
      02622  0500 00 0 00154         CLA     SIMPIO
      02623  0601 00 2 72740         STO     CMST+1,2
      02624  0400 00 0 00555         ADD     AQ1
      02625  0601 00 0 00154         STO     SIMPIO
      02626  0600 00 0 00512         STZ     RELBIT
      02627 -0046 00 0 00000         PIA
      02630  0771 00 0 00022         ARS     18
      02631 -0320 00 0 00634         ANA     MQA
      02632  0100 00 0 02646         TZE SC4
      02633  0402 00 0 00514         SUB     COMBRK
      02634 -0120 00 0 02646         TMI SC4
      02635  0400 00 0 00514         ADD     COMBRK
      02636  0402 00 0 00163         SUB     UPBRK
      02637  0120 00 0 02644         TPL SC3
      02640  0400 00 0 00163         ADD     UPBRK
      02641  0402 00 0 00513         SUB     RELCON
      02642  0767 00 0 00022         ALS     18
      02643  0622 00 2 72741         STD     CMST+2,2
      02644  0500 00 0 00573  SC3    CLA     AQ8
      02645  0601 00 0 00512         STO     RELBIT
      02646  0500 00 1 72740  SC4    CLA     CMST+1,1
      02647 -0320 00 0 00634         ANA     MQA
      02650  0402 00 0 00514         SUB     COMBRK
      02651 -0120 00 0 02662         TMI SC7
      02652  0400 00 0 00514         ADD     COMBRK
      02653  0402 00 0 00163         SUB     UPBRK
      02654  0120 00 0 02660         TPL SC5
      02655  0400 00 0 00163         ADD     UPBRK
      02656  0402 00 0 00513         SUB     RELCON
      02657  0621 00 2 72741         STA     CMST+2,2
      02660  0500 00 0 00566  SC5    CLA     AQ2
      02661 -0602 00 0 00512         ORS     RELBIT
      02662  0500 00 0 00512  SC7    CLA     RELBIT
      02663  0765 00 0 00003         LRS     3
      02664  0760 00 0 00001         LBT
      02665  0763 00 0 00001         LLS     1
      02666  0763 00 0 00002         LLS     2
      02667  0767 00 0 00017         ALS     15
      02670  0400 00 0 00154         ADD     SIMPIO
      02671  0601 00 2 72742         STO     CMST+3,2
      02672  0400 00 0 00555         ADD     AQ1
      02673  0621 00 0 00154         STA     SIMPIO
      02674  1 77774 2 02675         TXI     *+1,2,-4
      02675  2 00002 1 02610         TIX     SC2,1,2
      02676  0520 00 0 02745  SC7A   ZET     PARTSW
      02677  0020 00 0 02717         TRA     SC1B
1                    MAD III FOR CTSS ... R M GRAHAM ... MAR 1964                03/15/69 1117.9 PAGE 25

      02700  0500 00 0 72737         CLA     CMST
      02701  0601 00 0 72735         STO     CMST-2
      02702  0400 00 0 00555         ADD AQ1
      02703  0767 00 0 00001         ALS     1
      02704  0621 00 0 72737         STA     CMST
      02705  0500 00 0 00154         CLA     SIMPIO
      02706  0601 00 0 72736         STO     CMST-1
      02707  0074 00 4 01655  SC1A   TSX     WTBIN,4
      02710  0761 00 0 72737         NOP CMST
      02711  0074 00 4 01655  SC1    TSX WTBIN,4
      02712  0761 00 0 02715         NOP SC6
      02713  0020 00 0 00307         TRA     SUCCES
      02714  0 00000 0 00000         PZE
      02715  0 00000 0 00002  SC6    PZE     2
      02716  603333336060     SC9    BCI     1, ...
                              *
      02717  0754 00 2 00000  SC1B   PXA     0,2
      02720  0402 00 0 02746         SUB     IR2BEG
      02721  0760 00 0 00003         SSP
      02722  0771 00 0 00001         ARS     1
      02723  0600 00 2 72737         STZ     CMST,2
      02724  0621 00 2 72737         STA     CMST,2        LENGTH = (IR2BEG-IR2END)/2
      02725  0400 00 0 00555         ADD     AQ1
      02726  0767 00 0 00001         ALS     1
      02727  0601 00 2 72741         STO     CMST+2,2
      02730  0500 00 0 00154         CLA     SIMPIO
      02731  0601 00 2 72740         STO     CMST+1,2
      02732  0754 00 2 00000         PXA     0,2
      02733  0402 00 0 02747         SUB     CILOC
      02734  0621 00 0 02736         STA     *+2
      02735  0074 00 4 01655         TSX     WTBIN,4
      02736  0761 00 0 00000         NOP     **
      02737  0020 00 0 02711         TRA     SC1
                              *
      02740  0601 00 0 72736  SC2B   STO     CMST-1
      02741  0500 00 0 00566         CLA     AQ2
      02742  0601 00 0 72737         STO     CMST
      02743  0600 00 0 72735         STZ     CMST-2
      02744  0020 00 0 02707         TRA     SC1A
                              *
      02745  0 00000 0 00000  PARTSW PZE
      02746  0 00000 0 00000  IR2BEG PZE
      02747  000000072741     CILOC  VFD     36/CMST+2

                                         INSTRUCTION REWRITE ROUTINE (IR)

      02750 -0534 00 3 47044  INREW  LXD     CODE,3
      02751  0634 00 1 03236         SXA     IRT3,1
      02752 -0754 00 0 00000  IR24   PXD     0,0
      02753  0560 00 1 47044         LDQ     CODE,1
      02754 -0763 00 0 00002         LGL     2
      02755  0402 00 0 00575         SUB     AQ3
      02756  0100 00 0 02076         TZE     BCDWR
      02757  1 77776 1 02760         TXI     *+1,1,-2
      02760  0600 00 0 00512         STZ RELBIT
      02761  0600 00 0 03234         STZ IRT1
1                    MAD III FOR CTSS ... R M GRAHAM ... MAR 1964                03/15/69 1117.9 PAGE 26

      02762 -0500 00 1 47044         CAL     CODE,1
      02763  0100 00 0 03012         TZE IR5
      02764  0771 00 0 00017         ARS 15
      02765 -0734 00 4 00000         PDX 0,4
      02766  0020 00 4 02773         TRA     *+5,4
      02767  0020 00 0 03024         TRA     IR22          INTERNAL PARAMETER
      02770  0020 00 0 03230         TRA IR3                TEMP FLAD
      02771  0020 00 0 03147         TRA     IR25          FLAD
      02772  0020 00 0 03024         TRA     IR22          EXTERNAL PARAMETER
      02773 -0500 00 1 47043  IR6    CAL     CODE-1,1
      02774 -0320 00 0 00640         ANA MQPDT
      02775 -0501 00 1 47044         ORA     CODE,1
      02776  0602 00 1 47043         SLW     CODE-1,1
      02777 -0320 00 0 00634         ANA MQA
      03000  0402 00 0 00514         SUB COMBRK
      03001 -0120 00 0 03012         TMI IR5
      03002  0400 00 0 00514         ADD COMBRK
      03003  0402 00 0 00163         SUB UPBRK
      03004  0120 00 0 03010         TPL IR20
      03005  0400 00 0 00163         ADD UPBRK
      03006  0402 00 0 00513         SUB RELCON
      03007  0621 00 1 47043         STA     CODE-1,1
      03010  0500 00 0 00566  IR20   CLA AQ2
      03011  0601 00 0 00512         STO RELBIT
      03012 -0500 00 1 47042  IR5    CAL     CODE-2,1
      03013 -0760 00 0 00001         PBT
      03014  0020 00 0 03016         TRA *+2
      03015  0020 00 0 03076         TRA IR23
      03016  0500 00 1 47043         CLA     CODE-1,1
      03017  0771 00 0 00017         ARS 15
      03020 -0734 00 4 00000         PDX 0,4
      03021 -3 00000 4 03030         TXL IRB,4,0
      03022  0120 00 0 03124         TPL IR11
      03023  1 00004 4 03124         TXI IR11,4,4
      03024  0500 00 1 47044  IR22   CLA     CODE,1
      03025 -0320 00 0 00631         ANA     MQTA
      03026  0601 00 1 47044         STO     CODE,1
      03027  0020 00 0 02773         TRA     IR6
      03030 -0500 00 1 47043  IRB    CAL     CODE-1,1
      03031 -0320 00 0 00623         ANA     MQPDD
      03032  0602 00 0 03234         SLW IRT1
      03033  0500 00 0 00674         CLA IQPSE
      03034 -0400 00 0 03234         SBM IRT1
      03035 -0100 00 0 03042         TNZ IR7
      03036  0500 00 1 47043         CLA     CODE-1,1
      03037 -0320 00 0 00634         ANA MQA
      03040  0767 00 0 00022         ALS 18
      03041 -0602 00 0 03234         ORS IRT1
      03042  0500 00 0 03234  IR7    CLA IRT1
      03043 -0634 00 2 03235         SXD IRT2,2
      03044  0774 00 2 00016         AXT     14,2
      03045  0774 00 4 00100         AXT     64,4
      03046  1 77776 2 03047  IR10   TXI *+1,2,-2
      03047  3 00161 4 03053         TXH     IR26,4,OPTAB-OPBGN
      03050  0560 00 4 03421         LDQ OPTAB,4
      03051 -0620 00 0 03234         SLQ IRT1
1                    MAD III FOR CTSS ... R M GRAHAM ... MAR 1964                03/15/69 1117.9 PAGE 27

      03052  0340 00 0 03234         CAS IRT1               BINARY SEARCH FOR OP
      03053  0020 00 2 03073  IR26   TRA     IR8+1,2
      03054  0020 00 0 03100         TRA IR9
      03055  0020 00 2 03072         TRA     IR8,2
      03056  1 00040 4 03046         TXI IR10,4,32
      03057  1 77740 4 03046         TXI IR10,4,-32
      03060  1 00020 4 03046         TXI IR10,4,16
      03061  1 77760 4 03046         TXI IR10,4,-16
      03062  1 00010 4 03046         TXI IR10,4,8
      03063  1 77770 4 03046         TXI IR10,4,-8
      03064  1 00004 4 03046         TXI IR10,4,4
      03065  1 77774 4 03046         TXI IR10,4,-4
      03066  1 00002 4 03046         TXI IR10,4,2
      03067  1 77776 4 03046         TXI IR10,4,-2
      03070  1 00001 4 03046         TXI IR10,4,1
      03071  1 77777 4 03046         TXI IR10,4,-1
      03072  1 00001 4 03046  IR8    TXI IR10,4,1
      03073  1 77777 4 03046         TXI IR10,4,-1
      03074  0761 00 0 00000         NOP
      03075  0074 00 4 02364         TSX     MADERR,4
      03076  0500 00 0 00716  IR23   CLA COM0
      03077  0020 00 0 03102         TRA IR13
      03100 -0534 00 2 03235  IR9    LXD IRT2,2
      03101  0500 00 4 03421         CLA OPTAB,4
      03102 -0320 00 0 00631  IR13   ANA MQTA
      03103  0767 00 0 00022         ALS 18
      03104  0602 00 0 03237         SLW     IRT4
      03105  0500 00 0 00512         CLA RELBIT
      03106  0765 00 0 00003         LRS 3                  TEST FOR 00,010,100,1010
      03107  0760 00 0 00001         LBT                    CONFIGURATIONS
      03110  0763 00 0 00001         LLS 1
      03111  0763 00 0 00002         LLS 2
      03112  0767 00 0 00017         ALS 15
      03113 -0602 00 0 03237         ORS     IRT4
      03114  0500 00 1 47042         CLA     CODE-2,1
      03115  0621 00 0 03237         STA     IRT4
      03116  0500 00 1 47043         CLA     CODE-1,1
      03117  0601 00 2 47044         STO     CODE,2
      03120  0500 00 0 03237         CLA     IRT4
      03121  0601 00 2 47045         STO     CODE+1,2
      03122  1 77777 1 03123         TXI     *+1,1,-1
      03123  1 77776 2 02752         TXI     IR24,2,-2
      03124  0500 00 1 47042  IR11   CLA CODE-2,1
      03125 -0320 00 0 00637         ANA MQD
      03126  0100 00 0 03144         TZE IR12
      03127  0622 00 1 47043         STD     CODE-1,1
      03130  0771 00 0 00022         ARS 18
      03131  0402 00 0 00514         SUB COMBRK
      03132 -0120 00 0 03144         TMI IR12
      03133  0400 00 0 00514         ADD COMBRK
      03134  0402 00 0 00163         SUB UPBRK
      03135  0120 00 0 03142         TPL IR21
      03136  0400 00 0 00163         ADD UPBRK
      03137  0402 00 0 00513         SUB RELCON
      03140  0767 00 0 00022         ALS 18
      03141  0622 00 1 47043         STD     CODE-1,1
1                    MAD III FOR CTSS ... R M GRAHAM ... MAR 1964                03/15/69 1117.9 PAGE 28

      03142  0500 00 0 00573  IR21   CLA AQ8
      03143 -0602 00 0 00512         ORS RELBIT
      03144  0500 00 4 03431  IR12   CLA OPTXI+1,4
      03145  0020 00 0 03102         TRA IR13
                              *
      03146  0 00000 0 00000  SAVIND PZE
                              *
      03147  0500 00 1 47044  IR25   CLA     CODE,1        FLAD BINARY SEARCH
      03150  0604 00 0 03146         STI     SAVIND
      03151  0044 00 0 00000         PAI
      03152  0056 00  700000         RNT     700000        TEST FOR TAG = 7
      03153  0020 00 0 03155         TRA     *+2           NO
      03154  0020 00 0 03160         TRA     IR25.         YES, LEAVE IT UNTOUCHED
      03155  0054 00  400000         RFT     400000
      03156  0057 00  300000         RIR     300000
      03157 -0046 00 0 00000         PIA
      03160  0441 00 0 03146  IR25.  LDI     SAVIND
      03161 -0634 00 2 03235  IR14   SXD IRT2,2
      03162  0534 00 2 17620         LXA FLAD,2             2X TABLE SIZE
      03163  0534 00 4 00566         LXA AQ2,4
      03164  1 77776 2 03165  IR15   TXI *+1,2,-2
      03165  3 00000 4 03167  IR16   TXH IR17,4,**
      03166  0340 00 4 17620         CAS FLAD,4
      03167  0020 00 2 03217  IR17   TRA IR18+1,2
      03170  0020 00 0 03222         TRA IR19
      03171  0020 00 2 03216         TRA IR18,2
      03172  1 02000 4 03164         TXI IR15,4,1024
      03173  1 76000 4 03164         TXI IR15,4,-1024
      03174  1 01000 4 03164         TXI IR15,4,512
      03175  1 77000 4 03164         TXI IR15,4,-512
      03176  1 00400 4 03164         TXI IR15,4,256
      03177  1 77400 4 03164         TXI IR15,4,-256
      03200  1 00200 4 03164         TXI IR15,4,128
      03201  1 77600 4 03164         TXI IR15,4,-128
      03202  1 00100 4 03164         TXI IR15,4,64
      03203  1 77700 4 03164         TXI IR15,4,-64
      03204  1 00040 4 03164         TXI IR15,4,32
      03205  1 77740 4 03164         TXI IR15,4,-32
      03206  1 00020 4 03164         TXI IR15,4,16
      03207  1 77760 4 03164         TXI IR15,4,-16
      03210  1 00010 4 03164         TXI IR15,4,8
      03211  1 77770 4 03164         TXI IR15,4,-8
      03212  1 00004 4 03164         TXI IR15,4,4
      03213  1 77774 4 03164         TXI IR15,4,-4
      03214  1 00002 4 03164         TXI IR15,4,2
      03215  1 77776 4 03164         TXI IR15,4,-2
      03216  1 00002 4 03164  IR18   TXI IR15,4,2
      03217  1 77776 4 03164         TXI IR15,4,-2
      03220  0761 00 0 00000         NOP
      03221  0074 00 4 02364         TSX     MADERR,4
      03222  0500 00 4 17621  IR19   CLA FLAD+1,4
      03223 -0320 00 0 00634         ANA MQA
      03224  0400 00 0 03234         ADD IRT1
      03225  0601 00 1 47044         STO CODE,1
      03226 -0534 00 2 03235         LXD IRT2,2
      03227  0020 00 0 02773         TRA IR6
1                    MAD III FOR CTSS ... R M GRAHAM ... MAR 1964                03/15/69 1117.9 PAGE 29

      03230  0500 00 1 47044  IR3    CLA CODE,1            TEMP FLAD
      03231  0621 00 0 03234         STA IRT1
      03232  0402 00 0 03234         SUB IRT1
      03233  0020 00 0 03161         TRA IR14
      03234  0 00000 0 00000  IRT1   PZE
      03235  0 00000 0 00000  IRT2   PZE
      03236  0 00000 0 00000  IRT3   PZE
      03237  0 00000 0 00000  IRT4   PZE

                                         OPERATION TABLE

      03240 -300000636743     OPBGN  OCT -300000636743
      03241 -200000634567            OCT -200000634567
      03242 -100000626351            OCT -100000626351
      03243 -077400216723            OCT     -077400216723 AXC
      03244 -077300515043            OCT     -077300515043 RQL
      03245 -076500432751            OCT     -076500432751 LGR
      03246 -076300432743            OCT     -076300432743 LGL
      03247 -076003626244            OCT -076003626244      SSM
      03250 -076001472263            OCT -076001472263      PBT
      03251 -076000446225            OCT     -076000446225 MSE
      03252 -075400476724            OCT     -075400476724 PXD
      03253 -073700472423            OCT     -073700472423 PDC
      03254 -073400472467            OCT     -073400472467 PDX
      03255 -063400626724            OCT     -063400626724 SXD
      03256 -062500626343            OCT     -062500626343 STL
      03257 -062000624350            OCT     -062000624350 SLQ
      03260 -060200465162            OCT     -060200465162 ORS
      03261 -060000626350            OCT     -060000626350 STQ
      03262 -053500432423            OCT     -053500432423 LDC
      03263 -053400436724            OCT     -053400436724 LXD
      03264 -052000457163            OCT     -052000457163 NZT
      03265 -050100465121            OCT     -050100465121 ORA
      03266 -050000232143            OCT     -050000232143 CAL
      03267 -040000622244            OCT     -040000622244 SBM
      03270 -034000432162            OCT     -034000432162 LAS
      03271 -032000214521            OCT     -032000214521 ANA
      03272 -030600646244            OCT     -030600646244 USM
      03273 -030400642144            OCT     -030400642144 UAM
      03274 -030200642662            OCT     -030200642662 UFS
      03275 -030000642621            OCT     -030000642621 UFA
      03276 -026000642644            OCT     -026000642644 UFM
      03277 -020000444751            OCT     -020000444751 MPR
      03300 -014000634546            OCT     -014000634546 TNO
      03301 -013000672343            OCT     -013000672343 XCL
      03302 -012000634431            OCT     -012000634431 TMI
      03303 -010000634571            OCT     -010000634571 TNZ
      03304 -004600473121            OCT     -004600473121 PIA
      03305 -004200513121            OCT     -004200513121 RIA
      03306 -000000447125            OCT     -000000447125 MZE
      03307 +000000477125            OCT     000000477125 PZE
      03310 +002000635121            OCT     002000635121  TRA
      03311 +002100636351            OCT     002100636351  TTR
      03312 +004000634350            OCT     004000634350  TLQ
      03313 +004100313121            OCT     004100313121 IIA
      03314 +004200633146            OCT     004200633146 TIO
1                    MAD III FOR CTSS ... R M GRAHAM ... MAR 1964                03/15/69 1117.9 PAGE 30

      03315 +004300462131            OCT     004300462131 OAI
      03316 +004400472131            OCT     004400472131 PAI
      03317 +004600633126            OCT     004600633126 TIF
      03320 +007400636267            OCT     007400636267  TSX
      03321 +010000637125            OCT     010000637125  TZE
      03322 +012000634743            OCT     012000634743  TPL
      03323 +013100672321            OCT     013100672321  XCA
      03324 +014000634665            OCT     014000634665  TOV
      03325 +016100635046            OCT     016100635046  TQO
      03326 +016200635047            OCT     016200635047  TQP
      03327 +020000444770            OCT     020000444770  MPY
      03330 +022100246547            OCT     022100246547  DVP
      03331 +024100262447            OCT     024100262447  FDP
      03332 +026000264447            OCT     026000264447  FMP
      03333 +030000262124            OCT     030000262124  FAD
      03334 +030200266222            OCT     030200266222  FSB
      03335 +030400262144            OCT     030400262144  FAM
      03336 +030600266244            OCT     030600266244  FSM
      03337 +032000214562            OCT     032000214562  ANS
      03340 +032200255121            OCT     032200255121  ERA
      03341 +034000232162            OCT     034000232162  CAS
      03342 +036100212343            OCT     036100212343  ACL
      03343 +040000212424            OCT     040000212424  ADD
      03344 +040100212444            OCT     040100212444  ADM
      03345 +040200626422            OCT     040200626422  SUB
      03346 +042000304751            OCT     042000304751  HPR
      03347 +044000313162            OCT     044000313162 IIS
      03350 +044100432431            OCT     044100432431 LDI
      03351 +044200466231            OCT     044200466231 OSI
      03352 +044400462663            OCT     044400462663 OFT
      03353 +044500513162            OCT     044500513162 RIS
      03354 +044600464563            OCT     044600464563 ONT
      03355 +050000234321            OCT     050000234321  CLA
      03356 +050200234362            OCT     050200234362  CLS
      03357 +052000712563            OCT     052000712563  ZET
      03360 +052200672523            OCT     052200672523  XEC
      03361 +053400436721            OCT     053400436721  LXA
      03362 +053500432123            OCT     053500432123  LAC
      03363 +056000432450            OCT     056000432450  LDQ
      03364 +060000626371            OCT     060000626371  STZ
      03365 +060100626346            OCT     060100626346  STO
      03366 +060200624366            OCT     060200624366  SLW
      03367 +060400626331            OCT     060400626331 STI
      03370 +062100626321            OCT     062100626321  STA
      03371 +062200626324            OCT     062200626324  STD
      03372 +062500626363            OCT     062500626363  STT
      03373 +063000626347            OCT     063000626347  STP
      03374 +063400626721            OCT     063400626721  SXA
      03375 +073400472167            OCT     073400472167  PAX
      03376 +073700472123            OCT     073700472123  PAC
      03377 +075400476721            OCT     075400476721  PXA
      03400 +076000234344            OCT     076000234344  CLM
      03401 +076001432263            OCT 076001432263       LBT
      03402 +076002233062            OCT 076002233062       CHS
      03403 +076003626247            OCT 076003626247       SSP
      03404 +076006234644            OCT 076006234644       COM
1                    MAD III FOR CTSS ... R M GRAHAM ... MAR 1964                03/15/69 1117.9 PAGE 31

      03405 +076010514524            OCT 076010514524       RND
      03406 +076011265145            OCT     076011265145  FRN
      03407 +076012242363            OCT 076012242363       DCT
      03410 +076100454647            OCT     076100454647  NOP
      03411 +076300434362            OCT     076300434362  LLS
      03412 +076500435162            OCT     076500435162  LRS
      03413 +076700214362            OCT     076700214362  ALS
      03414 +077100215162            OCT     077100215162  ARS
      03415 +077400216763            OCT     077400216763  AXT
      03416 +100000636731            OCT 100000636731
      03417 +200000633167            OCT 200000633167
      03420 +300000636730            OCT 300000636730
      03421  0 00000 0 00161  OPTAB  PZE OPTAB-OPBGN
      03422 -300000636743     OPTXL  OCT     -300000636743 TXL
      03423 -200000634567     OPTNX  OCT     -200000634567 TNX
      03424 -100000626351     OPSTR  OCT     -100000626351 STR
      03425 +000000000000            OCT     0             PZE
      03426 +300000636730     OPTXH  OCT     300000636730  TXH
      03427 +200000633167     OPTIX  OCT     200000633167  TIX
      03430 +100000636731     OPTXI  OCT     100000636731  TXI

                                                            MAIN PROGRAM (MP)

      03431  0074 00 4 00216  MAD3B  TSX     PRLINE,4
      03432  0 00012 0 00720         PZE COM2,,10
      03433  0534 00 4 00465         LXA     SATEST,4
      03434 -3 00002 4 03437         TXL     *+3,4,2
      03435  0074 00 4 10107         TSX     BFCLOS,4
      03436  3 00000 0 05031         TXH     C.O.DE
      03437  3 00000 0 05032         TXH     C.O.DE+1
      03440  3 00000 0 03441         TXH     *+1
      03441  0500 00 0 00452         CLA     PBIN
      03442  0601 00 0 13716         STO     BIN
      03443  0500 00 0 00460         CLA     PREBN
      03444  0601 00 0 13551         STO     REBN
      03445  0500 00 0 00173         CLA     P.FNAM
      03446  0601 00 0 01653         STO     B.S.S.
      03447  0074 00 4 00201         TSX     DELFIL,4
      03450  3 00000 0 01653         TXH     B.S.S.
      03451  3 00000 0 01654         TXH     B.S.S.+1
      03452  3 00000 0 03453         TXH     *+1
      03453  0074 00 4 07470         TSX     BFOPEN,4
      03454  3 00000 0 00550         TXH     (W
      03455  3 00000 0 01653         TXH     B.S.S.
      03456  3 00000 0 01654         TXH     B.S.S.+1
      03457  3 00000 0 73620         TXH     RB1
      03460  3 00000 0 72740         TXH     RB2
      03461  3 00000 0 00553         TXH     PQ4
      03462  3 00000 0 00556         TXH     AQ0
      03463  3 00000 0 00272         TXH     CHNXIT
      03464  0560 00 0 00173         LDQ     P.FNAM
      03465 -0754 00 0 00000         ZAC
      03466 -0763 00 0 00006  MP50   LGL     6
      03467  0402 00 0 00605         SUB     AQ48
      03470 -0100 00 0 03475         TNZ     MP51
      03471 -0130 00 0 00000         XCL
1                    MAD III FOR CTSS ... R M GRAHAM ... MAR 1964                03/15/69 1117.9 PAGE 32

      03472 -0501 00 0 00605         ORA     AQ48
      03473 -0130 00 0 00000         XCL
      03474  0020 00 0 03466         TRA     MP50
      03475  0400 00 0 00605  MP51   ADD     AQ48
      03476 -0765 00 0 00006         LGR     6
      03477 -0600 00 0 00330         STQ     TAB1+1
      03500  0074 00 4 00201         TSX     DELFIL,4
      03501  3 00000 0 00175         TXH     SYM.FL
      03502  3 00000 0 00176         TXH     SYM.FL+1
      03503  3 00000 0 03504         TXH     *+1
      03504 -0520 00 0 00176         NZT     SYMFSW
      03505  0020 00 0 03526         TRA     MP40
      03506  0074 00 4 07470         TSX     BFOPEN,4
      03507  3 00000 0 00550         TXH     (W
      03510  3 00000 0 00175         TXH     SYM.FL
      03511  3 00000 0 00176         TXH     SYM.FL+1
      03512  3 00000 0 12524         TXH     S1
      03513  3 00000 0 11644         TXH     S2
      03514  3 00000 0 00553         TXH     PQ4
      03515  3 00000 0 00556         TXH     AQ0
      03516  3 00000 0 00272         TXH     CHNXIT
      03517  0074 00 4 07645         TSX     BFWRIT,4
      03520  3 00000 0 00175         TXH     SYM.FL
      03521  3 00000 0 00176         TXH     SYM.FL+1
      03522  3 00003 0 00327         TXH     TAB1,,3
      03523  3 00000 0 05025         TXH     EOF
      03524  3 00000 0 00213         TXH     (EOFCT
      03525  3 00000 0 00272         TXH     CHNXIT
      03526  0500 00 0 00161  MP40   CLA     COMLOC
      03527  0402 00 0 00162         SUB     TVSTRT
      03530  0601 00 0 00464         STO TVSIZE
      03531  0500 00 0 00162         CLA TVSTRT
      03532  0402 00 0 00513         SUB RELCON
      03533  0601 00 0 00514         STO COMBRK
      03534  0560 00 0 00162         LDQ TVSTRT
      03535 -0500 00 0 00501         CAL FNSW
      03536  0100 00 0 03540         TZE MP36
      03537 -0600 00 0 00513         STQ RELCON
      03540  0560 00 0 00516  MP36   LDQ COMREL
      03541  0500 00 0 00162         CLA TVSTRT
      03542  0402 00 0 00513         SUB RELCON
      03543  0100 00 0 03546         TZE MP29
      03544 -0600 00 0 00513         STQ RELCON
      03545  0402 00 0 00517         SUB LDRREL
      03546  0601 00 0 00162  MP29   STO TVSTRT
      03547  0500 00 0 14662         CLA ADTT
      03550  0771 00 0 00023         ARS 19
      03551 -0760 00 0 00003         SSM
      03552  0400 00 0 00513         ADD RELCON
      03553  0601 00 0 00513         STO RELCON
      03554  0500 00 0 00463         CLA LOC
      03555  0402 00 0 00513         SUB RELCON
      03556  0400 00 0 00555         ADD AQ1
      03557  0601 00 0 00463         STO LOC
      03560  0074 00 4 01343         TSX CADDR,4
      03561  0602 00 0 00735         SLW COM3+3
1                    MAD III FOR CTSS ... R M GRAHAM ... MAR 1964                03/15/69 1117.9 PAGE 33

      03562  0602 00 0 00756         SLW     COM3A+1
      03563  0500 00 0 14662         CLA ADTT
      03564  0771 00 0 00023         ARS 19
      03565  0400 00 0 00170         ADD PRGTVS
      03566  0601 00 0 00515         STO TVS
      03567  0074 00 4 01343         TSX CADDR,4
      03570  0602 00 0 00742         SLW     COM3+8
      03571 -0765 00 0 00030         LGR     24
      03572 -0602 00 0 00760         ORS     COM3A+3
      03573 -0130 00 0 00000         XCL
      03574 -0320 00 0 00645         ANA     MQ2CI
      03575 -0602 00 0 00761         ORS     COM3A+4
      03576  0500 00 0 00164         CLA PRSTRT
      03577  0402 00 0 00513         SUB RELCON
      03600  0074 00 4 01343         TSX CADDR,4
      03601  0602 00 0 00746         SLW     COM3+12
      03602  0602 00 0 00763         SLW     COM3A+6
      03603  0500 00 0 00163         CLA UPBRK
      03604 -0320 00 0 00634         ANA MQA
      03605  0601 00 0 00163         STO UPBRK
      03606  0074 00 4 01343         TSX CADDR,4
      03607  0602 00 0 00754         SLW     COM3+18
      03610 -0765 00 0 00030         LGR     24
      03611 -0602 00 0 00767         ORS     COM3A+10
      03612 -0130 00 0 00000         XCL
      03613 -0320 00 0 00645         ANA     MQ2CI
      03614 -0602 00 0 00770         ORS     COM3A+11
      03615  0500 00 0 00163         CLA     UPBRK
      03616  0402 00 0 00167         SUB     HICOM.
      03617 -0100 00 0 03624         TNZ     *+5
      03620  0774 00 1 00007         AXT     7,1
      03621 -0634 00 1 03631         SXD     MP..,1
      03622  0774 00 4 00015         AXT     13,4
      03623 -0634 00 4 03625         SXD     *+2,4
      03624  0074 00 4 00216         TSX     PRLINE,4
      03625  0 00023 0 00732         PZE     COM3,,19
      03626  0520 00 0 00176         ZET     SYMFSW        DON'T PRINT STAT LINE IF
      03627  0020 00 0 03632         TRA     *+3           SYMBOL TABEL WANTED
      03630  0074 00 4 00215         TSX     TTYOUT,4
      03631  0 00014 0 00755  MP..           COM3A,,12
      03632  0534 00 1 14635         LXA     PETY,1
      03633 -3 00000 1 03640         TXL MP22,1,0
      03634  0074 00 4 00216         TSX     PRLINE,4
      03635  0 00013 0 00771         PZE COM4,,11
      03636  0074 00 4 01425         TSX WRBCD,4
      03637  0761 00 0 14635  MP22X  NOP     PETY
      03640  0534 00 4 72737  MP22   LXA     CMST,4
      03641 -3 00000 4 03646         TXL     MP22.,4,0
      03642  0074 00 4 00216         TSX     PRLINE,4
      03643  0 00012 0 01004         PZE COM5,,10
      03644  0074 00 4 01425         TSX WRBCD,4
      03645  0761 00 0 72737         NOP     CMST
      03646  0074 00 4 00216  MP22.  TSX     PRLINE,4
      03647  0 00004 0 01016         PZE COM6,,4
      03650 -0534 00 1 14662         LXD     ADTT,1        GET ADDITIONAL T.V. SIZE IF ANY
      03651 -3 00000 1 03670         TXL     MP25,1,0      SKIP IF NONE
1                    MAD III FOR CTSS ... R M GRAHAM ... MAR 1964                03/15/69 1117.9 PAGE 34

      03652 -0634 00 1 03654         SXD     *+2,1         SAVE TO INCREMENT XR2 LATER
      03653  0534 00 2 71276         LXA     CTT,2         GET THE COUNT
      03654  1 00000 2 03655         TXI     *+1,2,**
      03655 -3 00200 2 03661         TXL     *+4,2,128     IF LESS THAN 128, OK
      03656  0754 00 2 00000         PXA     0,2           OTHERWISE AN ERROR
      03657  0074 00 4 02362         TSX     ERROR,4
      03660  0 00004 0 01244         PZE     COM24+2,,4
      03661  0535 00 4 71276         LAC     CTT,4
      03662  1 71276 4 03663         TXI     *+1,4,CTT
      03663  0634 00 4 03666         SXA     *+3,4
      03664  0634 00 2 71276         SXA     CTT,2
      03665  0500 00 1 14662         CLA     ADTT,1
      03666  0601 00 1 00000         STO     **,1
      03667  2 00001 1 03665         TIX     *-2,1,1
      03670  0074 00 4 01425  MP25   TSX WRBCD,4
      03671  0761 00 0 71276         NOP     CTT
                                             HERE TO PUT OUT 'MAP' PORTION
                                             OF SYMBOL TABLE FILE

      03672 -0520 00 0 00176         NZT     SYMFSW
      03673  0020 00 0 03760         TRA     MAP.X
      03674  0500 00 0 00463         CLA     LOC
      03675  0767 00 0 00022         ALS     18
      03676  0622 00 0 00347         STD     TAB7.1
      03677  0500 00 0 00515         CLA     TVS
      03700  0621 00 0 00353         STA     TAB7.3
      03701  0767 00 0 00022         ALS     18
      03702  0622 00 0 00351         STD     TAB7.2
      03703  0074 00 4 01357         TSX     ROGHL,4
      03704  0761 00 0 70675         NOP     CABC
      03705  0500 00 0 01410         CLA     LOW.
      03706  0074 00 4 01411         TSX     ROREL,4
      03707  0621 00 0 00355         STA     TAB7.4
      03710  0402 00 0 00353         SUB     TAB7.3
      03711  0767 00 0 00022         ALS     18
      03712  0622 00 0 00353         STD     TAB7.3
      03713  0534 00 4 72737         LXA     CMST,4
      03714  3 00000 4 03716         TXH     *+2,4,0
      03715  0600 00 0 00353         STZ     TAB7.3
      03716  0500 00 0 01407         CLA     HIGH.
      03717  0402 00 0 01410         SUB     LOW.
      03720  0400 00 0 00555         ADD     AQ1
      03721  0767 00 0 00022         ALS     18
      03722  0622 00 0 00355         STD     TAB7.4
      03723  0500 00 0 00164         CLA     PRSTRT
      03724  0074 00 4 01411         TSX     ROREL,4
      03725  0621 00 0 00357         STA     TAB7.5
      03726  0500 00 0 00361         CLA     TAB7.6
      03727  0074 00 4 01411         TSX     ROREL,4
      03730  0400 00 0 00555         ADD     AQ1
      03731  0621 00 0 00361         STA     TAB7.6
      03732  0402 00 0 00357         SUB     TAB7.5        TEMP START- PROG START
      03733  0767 00 0 00022         ALS     18            GIVES NO. LOCATIONS
      03734  0622 00 0 00357         STD     TAB7.5        OF PROGRAM INSTRUCTIONS
      03735  0500 00 0 00163         CLA     UPBRK
      03736  0621 00 0 00363         STA     TAB7.7
1                    MAD III FOR CTSS ... R M GRAHAM ... MAR 1964                03/15/69 1117.9 PAGE 35

      03737 -0760 00 0 00003         SSM
      03740  0400 00 0 00167         ADD     HICOM.
      03741  0767 00 0 00022         ALS     18
      03742  0622 00 0 00363         STD     TAB7.7
      03743 -0500 00 0 00365         CAL     TAB7.8        ADJUST SYMTAB ADDRESS
      03744  0074 00 4 01411         TSX     ROREL,4
      03745  0621 00 0 00365         STA     TAB7.8
      03746 -0500 00 0 00367         CAL     TAB7.9        ADJUST PROLOG ADDRESS
      03747  0074 00 4 01411         TSX     ROREL,4
      03750  0621 00 0 00367         STA     TAB7.9
      03751  0074 00 4 07645         TSX     BFWRIT,4
      03752  3 00000 0 00175         TXH     SYM.FL
      03753  3 00000 0 00176         TXH     SYM.FL+1
      03754  3 00024 0 00344         TXH     TAB7.0,,TAB7.9+1-TAB7.0
      03755  3 00000 0 05025         TXH     EOF
      03756  3 00000 0 00213         TXH     (EOFCT
      03757  3 00000 0 00272         TXH     CHNXIT
                       03760  MAP.X  SYN     *             END OF WRITING MAP


                                         WRITE PROGRAM CARD

      03760  0534 00 1 14635         LXA     PETY,1
      03761  3 00000 1 03767         TXH MP3,1,0
      03762  0500 00 0 00544         CLA     H14
      03763  0601 00 0 14633         STO     PETY-2
      03764  0500 00 0 00164         CLA PRSTRT
      03765  0601 00 0 14634         STO PETY-1
      03766  1 00002 1 03767         TXI *+1,1,2
      03767  0634 00 1 14635  MP3    SXA     PETY,1
      03770 -0634 00 1 04015         SXD     MP22Y,1
      03771  0500 00 1 14636  MP37   CLA PETY+1,1
      03772  0402 00 0 00513         SUB RELCON
      03773  0601 00 1 14636         STO PETY+1,1
      03774  2 00002 1 03771         TIX MP37,1,2
      03775 -0520 00 0 00176         NZT     SYMFSW
      03776  0020 00 0 04021         TRA     MP22Y.
      03777  0502 00 0 14635         CLS     PETY
      04000  0602 00 0 00333         SLW     TAB2+1
      04001  0400 00 0 03637         ADD     MP22X
      04002  0621 00 0 04015         STA     MP22Y
      04003  0074 00 4 07645         TSX     BFWRIT,4
      04004  3 00000 0 00175         TXH     SYM.FL
      04005  3 00000 0 00176         TXH     SYM.FL+1
      04006  3 00002 0 00332         TXH     TAB2,,2
      04007  3 00000 0 05025         TXH     EOF
      04010  3 00000 0 00213         TXH     (EOFCT
      04011  3 00000 0 00272         TXH     CHNXIT
      04012  0074 00 4 07645         TSX     BFWRIT,4
      04013  3 00000 0 00175         TXH     SYM.FL
      04014  3 00000 0 00176         TXH     SYM.FL+1
      04015  3 00000 0 00000  MP22Y  TXH     **,,**
      04016  3 00000 0 05025         TXH     EOF
      04017  3 00000 0 00213         TXH     (EOFCT
      04020  3 00000 0 00272         TXH     CHNXIT
      04021  0500 00 0 14633  MP22Y. CLA     PETY-2
1                    MAD III FOR CTSS ... R M GRAHAM ... MAR 1964                03/15/69 1117.9 PAGE 36

      04022  0402 00 0 00544         SUB     H14
      04023 -0100 00 0 04025         TNZ     *+2
      04024  0600 00 0 14633         STZ     PETY-2
      04025  0534 00 1 14635         LXA     PETY,1
      04026  0500 00 0 00515         CLA TVS
      04027  0767 00 0 00022         ALS 18
      04030  0400 00 0 00463         ADD LOC
      04031  0601 00 1 14633         STO PETY-2,1
      04032  0500 00 0 00162         CLA TVSTRT
      04033  0767 00 0 00022         ALS 18
      04034  0400 00 0 00163         ADD UPBRK
      04035  0601 00 1 14634         STO PETY-1,1
      04036  1 00002 1 04037         TXI *+1,1,2
      04037 -0534 00 2 00607  MP4    LXD DQ22,2
      04040  0600 00 2 13716         STZ BIN,2
      04041  2 00001 2 04040         TIX *-1,2,1
      04042 -0534 00 2 00607         LXD DQ22,2
      04043 -0754 00 1 00000         PXD 0,1
      04044  0402 00 0 00607         SUB DQ22
      04045 -0120 00 0 04047         TMI *+2
      04046 -0754 00 0 00000         PXD
      04047  0400 00 0 00607         ADD DQ22
      04050 -0501 00 0 00653         ORA     WQ479
      04051  0602 00 0 13666         SLW BIN-24
      04052  0602 00 0 13667         SLW BIN-23
      04053 -0500 00 1 14635  MP7    CAL PETY,1
      04054  0602 00 2 13716         SLW BIN,2
      04055  0361 00 0 13667         ACL BIN-23
      04056  0602 00 0 13667         SLW BIN-23
      04057  2 00001 2 04061         TIX *+2,2,1
      04060  0020 00 0 04062         TRA *+2
      04061  2 00001 1 04053         TIX MP7,1,1
      04062  0020 00 0 01762         TRA     WT8
      04063  2 00001 1 04037  MP33   TIX MP4,1,1
      04064  0500 00 0 02005         CLA     WT21     SWITCH WTBN
      04065  0602 00 0 02005         SLW     WT21
      04066  0534 00 5 00556         LXA     AQ0,5          INCREMENT ID
      04067  0020 00 0 02005         TRA     WT21

                                         WRITE BINARY TRANSFER VECTOR

      04070  0534 00 4 71276  MP2    LXA     CTT,4
      04071 -3 00000 4 04132         TXL     MP2Z.,4,0
      04072  0074 00 4 01655         TSX     WTBIN,4
      04073  0761 00 0 71276  MP2Z   NOP     CTT
      04074 -0520 00 0 00176         NZT     SYMFSW
      04075  0020 00 0 04132         TRA     MP2Z.
      04076  0534 00 4 71276         LXA     CTT,4         RESTORE CTT COUNT
      04077  0774 00 2 00001         AXT     1,2           COUNTER FOR NEW CTT
      04100  0774 00 1 00002         AXT     2,1           COUNTER FOR OLD
      04101  0500 00 1 71276         CLA     CTT,1         GET OLD LOCATION ( NAME)
      04102  0601 00 2 71276         STO     CTT,2         AND STORE MOVED DOWN
      04103 -2 00002 4 04106         TNX     *+3,4,2       COUNT ENTRIES
      04104  1 00001 2 04105         TXI     *+1,2,1
      04105  1 00002 1 04101         TXI     *-4,1,2
      04106 -0634 00 2 04126         SXD     MP2Y,2        STORE NEW COUNT
1                    MAD III FOR CTSS ... R M GRAHAM ... MAR 1964                03/15/69 1117.9 PAGE 37

      04107  0754 00 2 00000         PXA     0,2
      04110  0601 00 0 00341         STO     TAB5+1
      04111 -0760 00 0 00003         SSM
      04112  0400 00 0 04073         ADD     MP2Z
      04113  0621 00 0 04126         STA     MP2Y
      04114  0074 00 4 07645         TSX     BFWRIT,4
      04115  3 00000 0 00175         TXH     SYM.FL
      04116  3 00000 0 00176         TXH     SYM.FL+1
      04117  3 00002 0 00340         TXH     TAB5,,2
      04120  3 00000 0 05025         TXH     EOF
      04121  3 00000 0 00213         TXH     (EOFCT
      04122  3 00000 0 00272         TXH     CHNXIT
      04123  0074 00 4 07645         TSX     BFWRIT,4
      04124  3 00000 0 00175         TXH     SYM.FL
      04125  3 00000 0 00176         TXH     SYM.FL+1
      04126  3 00000 0 00000  MP2Y   TXH     **,,**
      04127  3 00000 0 05025         TXH     EOF
      04130  3 00000 0 00213         TXH     (EOFCT
      04131  3 00000 0 00272         TXH     CHNXIT
      04132  0074 00 4 00216  MP2Z.  TSX     PRLINE,4
      04133  0 00004 0 01022         PZE COM7,,4
      04134  0502 00 0 01474         CLS WB4                SET SWITCH IN
      04135  0601 00 0 01474         STO WB4                BCD OUTPUT ROUTINE
      04136  0074 00 4 01425         TSX WRBCD,4
      04137  0761 00 0 70675         NOP     CABC
      04140  0074 00 4 01655         TSX WTBIN,4
      04141  0761 00 0 70675         NOP     CABC

                                         LOAD AND WRITE STATEMENT DICTIONARY

      04142  0534 00 3 14537         LXA     SD,3
      04143 -3 00000 1 04201         TXL     MP39,1,0
      04144  0502 00 0 01524         CLS WB5                SET BCD FORMAT SWITCH 2
      04145  0601 00 0 01524         STO WB5
      04146  0500 00 0 00667         CLA IQCAL5
      04147  0601 00 0 01710         STO WT6
      04150  0500 00 1 14540  MP17   CLA     SD+1,1
      04151 -2 00002 2 04171  MP18   TNX     MP31,2,2
      04152  0340 00 2 14540  MP30   CAS     SD+1,2
      04153  0020 00 0 04160         TRA     MP32
      04154  0020 00 0 04156         TRA     MP34
      04155  0020 00 0 04151         TRA     MP18
      04156  0074 00 4 02362  MP34   TSX     ERROR,4
      04157  0 00005 0 01163         PZE     COM18,,5
      04160  0560 00 2 14540  MP32   LDQ     SD+1,2
      04161  0601 00 2 14540         STO     SD+1,2
      04162 -0600 00 1 14540         STQ     SD+1,1
      04163  0500 00 1 14537         CLA     SD,1
      04164  0560 00 2 14537         LDQ     SD,2
      04165 -0600 00 1 14537         STQ     SD,1
      04166  0601 00 2 14537         STO     SD,2
      04167  0500 00 1 14540         CLA     SD+1,1
      04170  2 00002 2 04152         TIX     MP30,2,2
      04171  0774 00 2 00000  MP31   AXT     0,2
      04172  2 00002 3 04150         TIX     MP17,3,2
      04173  0074 00 4 00216         TSX     PRLINE,4
1                    MAD III FOR CTSS ... R M GRAHAM ... MAR 1964                03/15/69 1117.9 PAGE 38

      04174  0 00004 0 01037         PZE COM9,,4
      04175  0074 00 4 01425         TSX WRBCD,4
      04176  0761 00 0 14537         NOP     SD
      04177  0074 00 4 01655         TSX WTBIN,4
      04200  0761 00 0 14537         NOP     SD

                                         LOAD AND WRITE PROGRAM

      04201  0502 00 0 01473  MP39   CLS WB11
      04202  0601 00 0 01473         STO WB11
      04203  0500 00 0 00670         CLA IQALS
      04204  0601 00 0 01710         STO WT6                SET BIN FORMAT SWITCH 2
      04205  0500 00 0 17620         CLA FLAD
      04206  0622 00 0 03165         STD IR16               COMPUTE FLAD TABLE SIZE
      04207 -0320 00 0 00637         ANA MQD                AND SET FLAD SEARCH
      04210  0100 00 0 04217         TZE MP28
      04211  0771 00 0 00011         ARS 9                  ROUTINE
      04212 -0501 00 0 00614         ORA EQ146
      04213  0300 00 0 00614         FAD EQ146
      04214  0402 00 0 00615         SUB EQ128
      04215  0771 00 0 00033         ARS 27
      04216  0767 00 0 00001         ALS 1
      04217  0621 00 0 17620  MP28   STA FLAD
      04220  0074 00 4 00216         TSX     PRLINE,4
      04221  0 00002 0 01043         PZE COM10,,2
      04222  0534 00 3 47044  MP42   LXA     CODE,3
      04223  0020 00 0 02751         TRA     INREW+1

                                                        MAD III INITIALIZATION

      04224  0774 00 1 06547  INIT   AXT     LINK-BOT,1
      04225  0600 00 1 20633         STZ     LINK,1
      04226  2 00001 1 04225         TIX     *-1,1,1
      04227  0500 00 0 00451  INIT1  CLA     PBCD
      04230  0601 00 0 17645         STO BCD
      04231  0500 00 0 00453         CLA PFLAD
      04232  0601 00 0 17620         STO FLAD
      04233  0500 00 0 00454         CLA PLINK
      04234  0601 00 0 20633  IN1    STO     LINK
      04235  0500 00 0 00455         CLA PELINK
      04236  0601 00 0 15647  IN2    STO     ELINK
      04237  0500 00 0 00456         CLA PADTT
      04240  0601 00 0 14662         STO ADTT
      04241  0600 00 0 14635         STZ     PETY
      04242  0500 00 0 06022         CLA     TEM
      04243  0601 00 0 13716         STO PTEM
      04244  0601 00 0 13551         STO FTEM
      04245  0500 00 0 00457         CLA PCODE
      04246  0601 00 0 47044         STO CODE
      04247  0500 00 0 00461         CLA PAABC
      04250  0601 00 0 14576         STO AABC
      04251  0600 00 0 14537         STZ     SD
      04252  0500 00 0 00466         CLA     CURPL
      04253  0402 00 0 67462         SUB     PL
      04254  0601 00 0 00466         STO     CURPL
      04255  0520 00 0 00171         ZET     SBTEST
1                    MAD III FOR CTSS ... R M GRAHAM ... MAR 1964                03/15/69 1117.9 PAGE 39

      04256  0020 00 0 04261         TRA     *+3
      04257 -0754 00 0 00000         PXD
      04260  0622 00 0 04765         STD     BC5
      04261  0500 00 0 00153         CLA     PGCERS
      04262 -0320 00 0 00634         ANA MQA
      04263  0601 00 0 00517         STO LDRREL
      04264  0400 00 0 00513         ADD RELCON
      04265  0601 00 0 00516         STO COMREL

                                         STATEMENT PROCESSING (ST)

      04266  0500 00 0 00164         CLA PRSTRT
      04267  0601 00 0 00463         STO LOC
      04270  0774 00 1 16040         AXT     PPINST,1
      04271  0020 00 0 04274         TRA     MAD3A1
      04272 -0534 00 1 65507  MAD3A  LXD INST,1
      04273  1 77775 1 04274         TXI     *+1,1,-3      BIT 35 = RESULT IN MQ
      04274 -0634 00 1 65507  MAD3A1 SXD     INST,1        BIT 34 = RESULT IN AC
      04275  0500 00 1 65507         CLA INST,1             BIT 33 = A(I) =T(I-1)
      04276  0601 00 0 00470         STO AOPND                   OR, IF OP(I-1)=TAG
      04277  0500 00 1 65511         CLA INST+2,1                A(I)=T(I-2)
      04300  0601 00 0 00473         STO BOPND              BIT 32=B(I)=T(I-1)
      04301 -0500 00 1 65510         CAL     INST+1,1
      04302 -0340 00 0 00714         LAS     AQBCD
      04303  0020 00 0 04305         TRA     *+2
      04304  1 77775 1 04722         TXI     BCDS,1,-3
      04305 -0340 00 0 00715  ST12   LAS     AQDEF
      04306  0020 00 0 04310         TRA     *+2
      04307  0020 00 0 06766         TRA     INDEF
      04310  0500 00 0 00467         CLA     OP
      04311  0340 00 0 00705         CAS     AQTAG         OR, IF OP(I-1)=TAG
      04312  0020 00 0 04314         TRA     *+2           B(I)=T(I-2)
      04313  0020 00 0 04321         TRA     ST1           BIT 31 = 1
      04314  0340 00 0 00713         CAS     AQFLD         BIT 30 = RESULT IN LAC
      04315  0020 00 0 04317         TRA     *+2
      04316  0020 00 0 04321         TRA     ST1
      04317  0500 00 0 00500         CLA     I
      04320  0621 00 0 00476         STA     TOPND
      04321  0500 00 0 00500  ST1    CLA     I
      04322  0400 00 0 00555         ADD AQ1
      04323  0601 00 0 00500         STO I
      04324  0600 00 0 00503         STZ MSTDEC
      04325  0600 00 0 00526         STZ     BBASE
      04326  0500 00 1 65510         CLA INST+1,1
      04327  0621 00 0 00467         STA     OP
      04330  0340 00 0 00711         CAS     AQCON
      04331  0020 00 0 04333         TRA     *+2
      04332  0020 00 0 04705         TRA     ST15
      04333  0340 00 0 00710         CAS     AQEFTY
      04334  0020 00 0 04336         TRA     *+2
      04335  0020 00 0 06224         TRA     EFETYS
      04336  0500 00 0 00565         CLA     AQ51
      04337  0320 00 0 00502         ANS CON                0=FLOATING
      04340  0500 00 0 00476         CLA TOPND              1=INTEGER(ALPHA)
      04341  0402 00 0 00470         SUB AOPND                3=FUNCTION NAME
      04342 -0100 00 0 04345         TNZ ST2                  4=STATEMENT
1                    MAD III FOR CTSS ... R M GRAHAM ... MAR 1964                03/15/69 1117.9 PAGE 40

      04343  0500 00 0 00573         CLA AQ8                2 = BOOLEAN
      04344 -0602 00 0 00502         ORS CON
      04345  0500 00 0 00476  ST2    CLA TOPND
      04346  0402 00 0 00473         SUB BOPND
      04347 -0100 00 0 04352         TNZ ST3
      04350  0500 00 0 00572         CLA AQ4
      04351 -0602 00 0 00502         ORS CON
      04352 -0500 00 0 00470  ST3    CAL AOPND
      04353  0074 00 4 05210         TSX MADET,4            ENTER MODE-ADDRESS
      04354  0601 00 0 00471         STO AA
      04355 -0600 00 0 00472         STQ MA
      04356  0500 00 0 00526         CLA     BBASE
      04357  0601 00 0 00525         STO ABASE
      04360 -0500 00 0 00473         CAL BOPND
      04361  0074 00 4 05210  ST5    TSX MADET,4
      04362  0601 00 0 00474         STO AB
      04363 -0600 00 0 00475         STQ MB
      04364  0500 00 0 00467         CLA OP
      04365  0402 00 0 00706         SUB AQPAR
      04366  0100 00 0 04650         TZE ST4
      04367 -0534 00 1 06022  ST14   LXD     TEM,1
      04370  0500 60 0 06022         CLA*    TEM
      04371  0120 00 0 04373         TPL     *+2
      04372  0600 60 0 06022         STZ*    TEM
      04373  2 00001 1 04370         TIX     *-3,1,1
      04374 -0500 00 0 00467         CAL     OP
      04375  0767 00 0 00003         ALS     3             - OPMD ENTRY -
      04376 -0501 00 0 00472         ORA     MA       OP+MODEA+MODEB+NEWMB+NEWMA+ENTRY
      04377  0767 00 0 00003         ALS     3                  - OR -
      04400 -0501 00 0 00475         ORA     MB       OP+MODEA+MODEB+0+MODERES+ENTRY
      04401  0074 00 4 07354         TSX     OPMTL,4       -OR-
      04402  3 00000 1 04423         TXH     ST23,1,0      OP+MODEA+MODEB+7+0+EXIT
      04403  0771 00 0 00025         ARS     21
      04404  0074 00 4 01343         TSX     CADDR,4
      04405  0602 00 0 01226         SLW     COM22+6
      04406  0074 00 4 00263         TSX     WRFLX,4
      04407 -0 00015 0 01220         MZE     COM22,,13
      04410  0074 00 4 00263         TSX     WRFLX,4
      04411  0 00017 0 17626         PZE     BCD-15,,15
      04412  0500 00 0 02417         CLA     ER3
      04413  0601 00 0 06574         STO     PRENDS
      04414 -0534 00 1 65507         LXD     INST,1
      04415  0500 00 1 65510  ST13   CLA     INST+1,1
      04416  0340 00 0 00714         CAS     AQBCD
      04417  0020 00 0 04421         TRA     *+2
      04420  0020 00 0 04274         TRA     MAD3A1
      04421  2 00003 1 04415         TIX     ST13,1,3
      04422  0074 00 4 02364         TSX     MADERR,4
      04423 -0634 00 1 10657  ST23   SXD OPMD,1
      04424  0621 00 0 04437         STA     ST39
      04425  0500 00 1 10657         CLA     OPMD,1
      04426  0621 00 0 04433         STA     ST30
      04427  0621 00 0 04443         STA     ST7
      04430 -0320 00 0 00625         ANA     MQMDT
      04431  0402 00 0 00630         SUB     MQMD
      04432 -0100 00 0 04434         TNZ     ST37
1                    MAD III FOR CTSS ... R M GRAHAM ... MAR 1964                03/15/69 1117.9 PAGE 41

      04433  0020 00 0 00000  ST30   TRA     **
      04434  0534 00 4 04443  ST37   LXA     ST7,4
      04435 -3 10657 4 04462         TXL     ST38,4,OPMD
      04436  3 12063 4 04462  ST36   TXH     ST38,4,TMTXF
      04437  0774 00 4 00000  ST39   AXT     **,4
      04440  3 00144 4 04462         TXH     ST38,4,PPSEQ
      04441  1 00001 4 04442         TXI     *+1,4,1
      04442  0634 00 4 04437         SXA     ST39,4
      04443  0500 00 0 00000  ST7    CLA **
      04444  0601 00 0 04721         STO STT1
      04445 -0534 00 2 47044         LXD CODE,2
      04446  0600 00 2 47044         STZ CODE,2
      04447  0765 00 0 00041         LRS 33
      04450  0400 00 0 00555         ADD AQ1
      04451 -0100 00 0 04472         TNZ     ST17
      04452  0500 00 0 04721         CLA     STT1
      04453 -0320 00 0 00635         ANA     MQT
      04454  0402 00 0 00635         SUB     MQT
      04455 -0100 00 0 04656         TNZ     ST8
      04456 -0500 00 0 00633         CAL     MQPDA
      04457  0320 00 0 04721         ANS     STT1
      04460 -0754 00 0 00000         PXD
      04461  0020 00 0 04673         TRA     ST9
      04462  0500 00 0 07414  ST38   CLA     DET4
      04463  0771 00 0 00025         ARS     21
      04464  0074 00 4 01343         TSX     CADDR,4
      04465  0601 00 0 01071         STO     COM12+5
      04466  0500 00 0 04437         CLA     ST39
      04467 -0320 00 0 00634         ANA     MQA
      04470  0074 00 4 02362         TSX     ERROR,4
      04471 -0 00012 0 01064         MZE     COM12,,10
      04472  0402 00 0 00555  ST17   SUB     AQ1
      04473 -0100 00 0 04673         TNZ ST9                TRA TO DECREMENT TYPE
      04474  0500 00 0 04721  ST10   CLA STT1
      04475  0601 00 2 47045         STO CODE+1,2
      04476  0560 00 0 00556         LDQ AQ0
      04477  0074 00 4 05373         TSX ADEC,4             ENTER ADDRESS DECODING
      04500  0621 00 2 47045         STA CODE+1,2
      04501  0601 00 2 47046         STO CODE+2,2           SUBROUTINE
      04502  0500 00 2 47045         CLA     CODE+1,2
      04503  0771 00 0 00041         ARS     33
      04504  0100 00 0 04514         TZE     ST22          NOT DECREMENT TYPE
      04505  0402 00 0 00555         SUB     AQ1
      04506  0100 00 0 04535         TZE     ST24
      04507  0402 00 0 00555         SUB     AQ1
      04510  0100 00 0 04535         TZE     ST24
      04511  0400 00 0 00572         ADD     AQ4
      04512  0100 00 0 04535         TZE     ST24
      04513  0020 00 0 04636         TRA     ST16          DECREMENT TYPE BUT
      04514  0500 00 2 47045  ST22   CLA     CODE+1,2      DOES NOT CHANGE IR
      04515 -0320 00 0 00642         ANA     MQ34
      04516  0402 00 0 00642         SUB     MQ34
      04517 -0100 00 0 04575         TNZ     ST25          NOT IR CHANGE TYPE
      04520  0500 00 2 47045         CLA     CODE+1,2
      04521 -0320 00 0 00640         ANA     MQPDT
      04522  0402 00 0 00675         SUB     IQLXA1
1                    MAD III FOR CTSS ... R M GRAHAM ... MAR 1964                03/15/69 1117.9 PAGE 42

      04523  0100 00 0 04547         TZE     ST19
      04524  0402 00 0 00606         SUB     TQ1
      04525  0100 00 0 04565         TZE     ST20
      04526  0500 00 2 47045         CLA     CODE+1,2
      04527 -0320 00 0 00622         ANA     MQPD
      04530  0402 00 0 00700         SUB     IQTSX
      04531 -0100 00 0 04535         TNZ     ST24
      04532  0600 00 0 00521         STZ     IR1
      04533  0600 00 0 00523         STZ     IR1A
      04534  0020 00 0 04634         TRA     ST27
      04535  0500 00 2 47045  ST24   CLA     CODE+1,2      ZERO APPROPRIATE IR
      04536 -0320 00 0 00635         ANA     MQT
      04537  0402 00 0 00606         SUB     TQ1
      04540 -0100 00 0 04544         TNZ     ST21
      04541  0600 00 0 00521         STZ     IR1
      04542  0600 00 0 00523         STZ     IR1A
      04543  0020 00 0 04636         TRA     ST16
      04544  0402 00 0 00606  ST21   SUB     TQ1
      04545 -0100 00 0 04636         TNZ     ST16
      04546  0020 00 0 04634         TRA     ST27
      04547  0500 00 2 47046  ST19   CLA     CODE+2,2
      04550  0402 00 0 00521         SUB     IR1
      04551  0100 00 0 04557         TZE     ST34
      04552  0500 00 2 47046         CLA     CODE+2,2
      04553  0601 00 0 00521         STO     IR1
      04554  0500 00 0 06024         CLA     ADT2
      04555  0601 00 0 00523         STO     IR1A
      04556  0020 00 0 04636         TRA     ST16
      04557  0500 00 0 06024  ST34   CLA     ADT2
      04560  0120 00 0 04644         TPL     ST18
      04561  0500 60 0 06024         CLA*    ADT2
      04562  0402 00 0 00611         SUB     DQ2
      04563  0601 60 0 06024         STO*    ADT2
      04564  0020 00 0 04644         TRA     ST18
      04565  0500 00 2 47046  ST20   CLA     CODE+2,2
      04566  0402 00 0 00522         SUB     IR2
      04567  0100 00 0 04557         TZE     ST34
      04570  0500 00 2 47046         CLA     CODE+2,2
      04571  0601 00 0 00522         STO     IR2
      04572  0500 00 0 06024         CLA     ADT2
      04573  0601 00 0 00524         STO     IR2A
      04574  0020 00 0 04636         TRA     ST16
      04575  0500 00 2 47045  ST25   CLA     CODE+1,2
      04576 -0320 00 0 00643         ANA     MQ7
      04577  0402 00 0 00644         SUB     MQ6
      04600 -0100 00 0 04636         TNZ     ST16          NOT A STORE OP
      04601  0500 00 0 06024         CLA     ADT2
      04602 -0120 00 0 04615         TMI     ST28
      04603  0500 00 2 47046         CLA CODE+2,2
      04604 -0320 00 0 00635         ANA     MQT
      04605  0100 00 0 04615         TZE     ST28
      04606  0500 00 0 00523         CLA     IR1A
      04607  0402 00 0 06024         SUB     ADT2
      04610  0100 00 0 04623         TZE     ST29
      04611  0500 00 0 00524  ST32   CLA     IR2A
      04612  0402 00 0 06024         SUB     ADT2
1                    MAD III FOR CTSS ... R M GRAHAM ... MAR 1964                03/15/69 1117.9 PAGE 43

      04613  0100 00 0 04626         TZE     ST31
      04614  0020 00 0 04636         TRA     ST16
      04615  0500 00 2 47046  ST28   CLA     CODE+2,2
      04616  0402 00 0 00521         SUB     IR1
      04617 -0100 00 0 04631         TNZ     ST26
      04620  0600 00 0 00521         STZ     IR1
      04621  0600 00 0 00523         STZ     IR1A
      04622  0020 00 0 04631         TRA     ST26
      04623  0600 00 0 00523  ST29   STZ     IR1A
      04624  0600 00 0 00521         STZ     IR1
      04625  0020 00 0 04611         TRA     ST32
      04626  0600 00 0 00524  ST31   STZ     IR2A
      04627  0600 00 0 00522         STZ     IR2
      04630  0020 00 0 04636         TRA ST16
      04631  0500 00 2 47046  ST26   CLA     CODE+2,2
      04632  0402 00 0 00522         SUB     IR2
      04633 -0100 00 0 04636         TNZ     ST16
      04634  0600 00 0 00524  ST27   STZ     IR2A
      04635  0600 00 0 00522         STZ     IR2
      04636  0500 00 0 00463  ST16   CLA     LOC
      04637  0621 00 2 47044         STA CODE,2
      04640  0400 00 0 00555         ADD AQ1                INCREASE LOC COUNTER
      04641  0601 00 0 00463         STO LOC
      04642  1 77775 2 04643         TXI     *+1,2,-3
      04643 -0634 00 2 47044         SXD     CODE,2
      04644 -0500 00 0 04443  ST18   CAL     ST7
      04645  0361 00 0 00555         ACL AQ1                INCREASE ADDRESS
      04646  0602 00 0 04443         SLW ST7
      04647  0020 00 0 04434         TRA     ST37          INTERPRET NEXT INSTRUCTION
      04650  0500 00 0 00503  ST4    CLA MSTDEC
      04651  0560 00 0 00556         LDQ AQ0
      04652  0771 00 0 00022         ARS 18
      04653  0601 00 0 00471         STO AA
      04654 -0600 00 0 00472         STQ MA
      04655  0020 00 0 04367         TRA ST14
      04656  0763 00 0 00017  ST8    LLS 15                 TEST PSEUDO-OP SEQUENCE
      04657  0621 00 0 04443         STA ST7
      04660 -0754 00 0 00000         PXD
      04661  0763 00 0 00003         LLS 3
      04662  0100 00 0 04702         TZE ST11                    -TESTS-
      04663  0734 00 1 00000         PAX 0,1                -1 + NEXT(F)+B+NEXT(T)
      04664  0500 00 0 00502         CLA CON
      04665  0771 00 1 00006         ARS     6,1
      04666  0760 00 0 00001         LBT                    WHERE B IS A CODE TO
      04667  0020 00 0 04434         TRA     ST37          INDICATE BINARY DECISION FUNCTIONS
      04670  0763 00 0 00017         LLS 15                0  EXIT
      04671  0621 00 0 04443         STA ST7               1  RESULT IN LAC
      04672  0020 00 0 04434         TRA     ST37          2  TRUE
      04673  0763 00 0 00017  ST9    LLS 15                3  A(I) = T(I-1)
      04674  0560 00 0 00570         LDQ PQ2
      04675  0074 00 4 05373         TSX ADEC,4            4  B(I)=T(I-1)
      04676  0622 00 0 04721         STD STT1
      04677  0767 00 0 00022         ALS 18                5  RESULT IN AC
      04700  0622 00 2 47044         STD CODE,2            6  RESULT IN MQ
      04701  0020 00 0 04474         TRA ST10
      04702  0763 00 0 00017  ST11   LLS 15
1                    MAD III FOR CTSS ... R M GRAHAM ... MAR 1964                03/15/69 1117.9 PAGE 44

      04703  0621 00 0 04704         STA *+1
      04704  0020 00 0 00000         TRA **
      04705 -0534 00 2 47044  ST15   LXD CODE,2
      04706  0500 00 0 00463         CLA LOC
      04707 -0501 00 0 00553         ORA PQ4
      04710  0602 00 2 47044         SLW CODE,2
      04711  0400 00 0 00555         ADD AQ1
      04712  0621 00 0 00463         STA LOC
      04713  0500 00 0 00473         CLA BOPND
      04714  0601 00 2 47045         STO CODE+1,2
      04715  0600 00 2 47046         STZ CODE+2,2
      04716  1 77775 2 04717         TXI *+1,2,-3
      04717 -0634 00 2 47044         SXD     CODE,2
      04720  0020 00 0 04272         TRA MAD3A
      04721  0 00000 0 00000  STT1   PZE

                                           BCD SEQUENCE (BC)

      04722 -0534 00 2 47044  BCDS   LXD     CODE,2
      04723  0500 00 0 00470         CLA     AOPND
      04724  0771 00 0 00014         ARS     12
      04725  0622 00 0 04746         STD     BC29
      04726  0500 00 0 00470         CLA     AOPND
      04727  0765 00 0 00014         LRS     12
      04730  0767 00 0 00006         ALS     6
      04731 -0501 00 0 00605         ORA     AQ48
      04732  0763 00 0 00014         LLS     12
      04733  0602 00 0 17643         SLW     BCD-2
      04734  0500 00 0 00717         CLA     COM1
      04735  0601 00 0 17642         STO     BCD-3
      04736  0500 00 0 00470         CLA     AOPND
      04737 -0501 00 0 00554         ORA     PQ6
      04740  0602 00 2 47044         SLW     CODE,2
      04741  0500 00 0 00473         CLA     BOPND
      04742  0601 00 0 17644         STO     BCD-1
      04743  0601 00 2 47045         STO     CODE+1,2
      04744  1 77776 2 04745         TXI     *+1,2,-2
      04745  0774 00 4 00014         AXT     12,4
      04746 -3 00000 4 04752  BC29   TXL     BC30,4,**
      04747  0500 00 0 00717         CLA     COM1
      04750  0601 00 4 17642         STO     BCD-3,4
      04751  1 77777 4 04746         TXI     BC29,4,-1
      04752  0500 00 1 65507  BC30   CLA     INST,1
      04753  0601 00 4 17642         STO     BCD-3,4
      04754  0601 00 2 47044         STO     CODE,2
      04755  1 77777 1 04756         TXI     *+1,1,-1
      04756  1 77777 2 04757         TXI     *+1,2,-1
      04757  2 00001 4 04752         TIX     BC30,4,1
      04760  3 00000 0 00000  BC34   TXH     0,,0          SWITCH TO LXD CODE, 2 IN DEFINE
      04761  0600 00 0 00500         STZ     I
      04762  0500 00 1 65510         CLA     INST+1,1
      04763  0402 00 0 00714         SUB AQBCD
      04764 -0100 00 0 05134         TNZ     BC2           TRA IF STATEMENT END
      04765  3 16040 1 05042  BC5    TXH     BC3,1,PPINST
      04766  0500 00 0 05033  BC4    CLA     BC7
      04767  0622 00 0 04765         STD     BC5
1                    MAD III FOR CTSS ... R M GRAHAM ... MAR 1964                03/15/69 1117.9 PAGE 45

      04770 -0120 00 0 05023         TMI     BC8
      04771  0621 00 0 05015         STA     BC9
      04772  0630 00 0 05126         STP     BC23
      04773  0520 00 0 05126         ZET     BC23
      04774  0774 00 1 07020         AXT     PPINST/2,1
      04775  0500 00 0 00171         CLA     SBTEST
      04776  0100 00 0 05021         TZE     BC20
      04777  0402 00 0 00555         SUB     AQ1
      05000  0601 00 0 00171         STO     SBTEST
      05001  0074 00 4 07643  BC6    TSX     BFREAD,4
      05002  3 00000 0 05027         TXH     M.T.X
      05003  3 00000 0 05030         TXH     M.T.X+1
      05004  3 00001 0 05026         TXH     R.CNT,,1
      05005  3 00000 0 05025         TXH     EOF.
      05006  3 00000 0 00213         TXH     (EOFCT
      05007  3 00000 0 00272         TXH     CHNXIT
      05010  0500 00 0 05026         CLA     R.CNT
      05011  0622 00 0 05015         STD     BC9
      05012  0074 00 4 07643         TSX     BFREAD,4
      05013  3 00000 0 05027         TXH     M.T.X
      05014  3 00000 0 05030         TXH     M.T.X+1
      05015  3 00000 0 00000  BC9    TXH     **,,**
      05016  3 00000 0 05025         TXH     EOF.
      05017  3 00000 0 00213         TXH     (EOFCT
      05020  3 00000 0 00272         TXH     CHNXIT
      05021 -0500 00 0 04766  BC20   CAL     BC4
      05022  0361 00 0 00555         ACL     AQ1
      05023  0621 00 0 04766  BC8    STA     BC4
      05024  0020 00 0 05042         TRA     BC3
      05025  0074 00 4 02364  EOF.   TSX     MADERR,4
      05026  0 00000 0 00000  R.CNT  PZE
      05027  443363336733     M.T.X  BCI     2,M.T.X.O.V.F.
      05031  233346332433     C.O.DE BCI     2,C.O.D.E.O.V.
      05033  0 10150 0 56467  BC7    PZE     INST-PPINST/2,,PPINST/2+PPMRK1
      05034  0 04540 0 62077         PZE     INST-PPINST/4,,PPINST/4+PPMRK1
      05035 -0 03410 0 05036         MZE     *+1,,PPINST/4
      05036  0 01127 0 56467         PZE     INST-PPINST/2,,PPMRK1-1
      05037  1 04540 0 62077         PON     INST-PPINST/4,,PPINST/4+PPMRK1
      05040 -0 03410 0 05036         MZE     *-2,,PPINST/4
      05041  0074 00 4 02364  BC11   TSX     MADERR,4
      05042  3 05442 2 05123  BC3    TXH BC26,2,PPCODE/4
      05043  0500 00 0 05130  BC15   CLA     BC14
      05044  0622 00 0 05042         STD     BC3
      05045 -0120 00 0 05122         TMI     BC16
      05046  0621 00 0 05114         STA     BC18
      05047  0630 00 0 05126         STP     BC23
      05050 -0754 00 2 00000         PXD     0,2
      05051 -0760 00 0 00003         SSM
      05052 -0520 00 0 05126         NZT BC23
      05053 -0754 00 0 00000         PXD
      05054  0400 00 0 05127  BC27   ADD BC24
      05055  0622 00 0 05114         STD     BC18
      05056  0520 00 0 05126         ZET     BC23
      05057  0774 00 2 13104         AXT     PPCODE/2,2
      05060  0500 00 0 00465         CLA     SATEST
      05061  0400 00 0 00555         ADD     AQ1
1                    MAD III FOR CTSS ... R M GRAHAM ... MAR 1964                03/15/69 1117.9 PAGE 46

      05062  0601 00 0 00465         STO     SATEST
      05063  3 00000 0 05077         TXH     BC12,,0
      05064  0502 00 0 05063         CLS     *-1
      05065  0601 00 0 05063         STO     *-2
      05066  0074 00 4 07470         TSX     BFOPEN,4
      05067  3 00000 0 00550         TXH     (W
      05070  3 00000 0 05031         TXH     C.O.DE
      05071  3 00000 0 05032         TXH     C.O.DE+1
      05072  3 00000 0 75360         TXH     B1
      05073  3 00000 0 74500         TXH     B2
      05074  3 00000 0 00553         TXH     PQ4
      05075  3 00000 0 00555         TXH     AQ1
      05076  3 00000 0 00272         TXH     CHNXIT
      05077 -0534 00 4 05114  BC12   LXD     BC18,4
      05100 -0754 00 4 00000         PXD     ,4
      05101  0601 00 0 00374         STO     BC13
      05102  0074 00 4 07645         TSX     BFWRIT,4
      05103  3 00000 0 05031         TXH     C.O.DE
      05104  3 00000 0 05032         TXH     C.O.DE+1
      05105  3 00001 0 00374         TXH     BC13,,1
      05106  3 00000 0 05025         TXH     EOF.
      05107  3 00000 0 00213         TXH     (EOFCT
      05110  3 00000 0 00272         TXH     CHNXIT
      05111  0074 00 4 07645         TSX     BFWRIT,4
      05112  3 00000 0 05031         TXH     C.O.DE
      05113  3 00000 0 05032         TXH     C.O.DE+1
      05114  3 00000 0 00000  BC18   TXH     **,,**
      05115  3 00000 0 05025         TXH     EOF.
      05116  3 00000 0 00213         TXH     (EOFCT
      05117  3 00000 0 00272         TXH     CHNXIT
      05120  0500 00 0 05043         CLA     BC15
      05121  0361 00 0 00555         ACL     AQ1
      05122  0621 00 0 05043  BC16   STA     BC15
      05123 -0634 00 2 47044  BC26   SXD     CODE,2
      05124  0020 00 0 04274  BC28   TRA     MAD3A1
      05125  0020 00 0 06664         TRA PR2
      05126  0 00000 0 00000  BC23   PZE
      05127  0 05442 0 00000  BC24   PZE     0,,PPCODE/4
      05130  0 02260 0 33740  BC14   PZE     CODE-PPCODE/2,,PPMRK2
      05131  1 07722 0 41402         PON     CODE-PPCODE/4,,PPCODE/4+PPMRK2
      05132 -0 05442 0 05130         MZE     *-2,,PPCODE/4
      05133  0074 00 4 02364  BC21   TSX     MADERR,4

                                         STATEMENT END SEQUENCE

      05134  0500 00 0 00163  BC2    CLA UPBRK
      05135 -0320 00 0 00634         ANA MQA
      05136  0402 00 0 00463         SUB LOC
      05137  0120 00 0 05142         TPL BC17
      05140  0074 00 4 02362         TSX ERROR,4            STORAGE OVERLAP
      05141 -0 00006 0 01133         MZE     COM15,,6
      05142  0500 00 0 00557  BC17   CLA AQ16
      05143  0601 00 0 00502         STO CON
      05144  0500 00 0 00504         CLA DICLOC
      05145  0100 00 0 05163         TZE BC19
      05146  0402 00 0 00161         SUB COMLOC
1                    MAD III FOR CTSS ... R M GRAHAM ... MAR 1964                03/15/69 1117.9 PAGE 47

      05147  0100 00 0 05163         TZE BC19
      05150  0534 00 4 14537         LXA     SD,4
      05151  1 00002 4 05152         TXI     *+1,4,2
      05152  3 00620 4 05206         TXH     BC22,4,PPSD
      05153  0634 00 4 14537         SXA     SD,4
      05154  0500 00 0 00504         CLA     DICLOC
      05155  0601 00 4 14540         STO SD+1,4
      05156  0500 00 0 00463         CLA LOC
      05157  0767 00 0 00022         ALS 18
      05160 -0501 00 0 00672         ORA IQTXL
      05161 -0501 00 0 00505         ORA DICETY
      05162  0602 00 4 14537         SLW SD,4
      05163  0600 00 0 00505  BC19   STZ DICETY
      05164  0600 00 0 00504         STZ DICLOC
      05165  0634 00 1 05204         SXA     BC1,1
      05166 -0534 00 1 06022         LXD     TEM,1
      05167 -3 00000 1 05204         TXL     BC1,1,0
      05170 -0520 60 0 06022  BC32   NZT*    TEM
      05171  0020 00 0 05203         TRA     BC31
      05172  0500 60 0 06022         CLA*    TEM
      05173  0600 60 0 06022         STZ*    TEM
      05174 -0120 00 0 05203         TMI     BC31
      05175  0074 00 4 01343         TSX     CADDR,4
      05176  0602 00 0 01205         SLW     COM20+2
      05177  0074 00 4 00263         TSX     WRFLX,4
      05200 -0 00015 0 01203         MZE     COM20,,13
      05201  0074 00 4 00263         TSX     WRFLX,4
      05202  0 00017 0 17626         PZE     BCD-15,,15
      05203  2 00001 1 05170  BC31   TIX     BC32,1,1
      05204  0774 00 1 00000  BC1    AXT     **,1
      05205  0020 00 0 04765         TRA     BC5
      05206  0074 00 4 02362  BC22   TSX     ERROR,4
      05207  0 00005 0 01271         PZE     COM28,,5

                                         MODE AND ADDRESS DETERMINATION SUBROUTINE (MA)
                                              (ARGUMENT IN AC)
                                           (RESULTS-ADDRESS IN AC, MODE IN MQ)
      05210  0602 00 0 05367  MADET  SLW MAT1
      05211  0771 00 0 00017         ARS 15                      -ADDRESS CODES-
      05212 -0734 00 1 00000         PDX 0,1                PREFIX     TYPE
      05213  0020 00 1 05223         TRA *+8,1                0     NULL OR CONSTANT
      05214  0020 00 0 05353         TRA MAFCN              1EXTERNAL PARAMETER
      05215  0020 00 0 05336         TRA MAPAR                2     FLOATING
      05216  0020 00 0 05322         TRA MAABC                3     TEMPORARY
      05217  0020 00 0 05253         TRA MAVAR                4     VARIABLE
      05220  0020 00 0 05232         TRA MATEM                5     ABCON
      05221  0020 00 0 05227         TRA MAFLT                6     PARAMETER
      05222  0020 00 0 05333         TRA MAEPAR             7FUNCTION
      05223 -0500 00 0 05367  MANULL CAL MAT1
      05224 -0760 00 0 00003         SSM
      05225  0560 00 0 00556         LDQ AQ0
      05226  0020 00 4 00001         TRA 1,4                  -ADDRESS OUTPUT-
      05227  0500 00 0 05367  MAFLT  CLA MAT1                 0+0+TAG+ADDRESS
      05230  0560 00 0 00572         LDQ AQ4                OR
      05231  0020 00 4 00001         TRA 1,4
      05232  0500 00 0 05367  MATEM  CLA MAT1                 2+0+0+TEMPNO.
1                    MAD III FOR CTSS ... R M GRAHAM ... MAR 1964                03/15/69 1117.9 PAGE 48

      05233 -0320 00 0 00634         ANA MQA                     OR
      05234  0601 00 0 05370         STO     MAT2
      05235  0100 00 0 05223         TZE MANULL
      05236  0500 00 0 00500         CLA I
      05237 -0320 00 0 00634         ANA MQA
      05240  0402 00 0 05370         SUB MAT2
      05241  0601 00 0 05370         STO MAT2
      05242  0767 00 0 00002         ALS 2
      05243  0402 00 0 05370         SUB MAT2
      05244  0767 00 0 00022         ALS 18
      05245  0361 00 0 65507         ACL     INST
      05246 -0734 00 1 00000         PDX     0,1
      05247  0560 00 1 65510         LDQ INST+1,1
      05250  0765 00 0 00022         LRS     18
      05251  0500 00 0 05367         CLA MAT1               RESULT
      05252  0020 00 4 00001         TRA 1,4
      05253  0534 00 1 05367  MAVAR  LXA     MAT1,1
      05254  0500 00 1 72737         CLA     CMST,1
      05255  0622 00 0 00503         STD     MSTDEC        ARRAY SN+DIM ADDRESS+MODE+ADDRESS
      05256  0621 00 0 05371         STA MAT3
      05257  0621 00 0 00526         STA     BBASE
      05260  0625 00 0 05372         STT     MAT4
      05261  0500 00 0 05367         CLA MAT1
      05262 -0320 00 0 00621         ANA MQDT
      05263  0100 00 0 05267         TZE MA7
      05264  0500 00 1 72737         CLA     CMST,1
      05265 -0120 00 0 05312         TMI MA8
      05266  0020 00 0 05300         TRA     MA13
      05267 -3 73417 4 05312  MA7    TXL MA8,4,-ST5
      05270  0500 00 0 00467         CLA OP
      05271  0402 00 0 00704         SUB AQSUB
      05272  0100 00 0 05276         TZE MA9
      05273  0500 00 0 00467         CLA OP
      05274  0402 00 0 00712         SUB AQTAGA
      05275 -0100 00 0 05312         TNZ MA8
      05276  0500 00 1 72737  MA9    CLA     CMST,1
      05277 -0120 00 0 05312         TMI MA8
      05300 -0760 00 0 00003  MA13   SSM
      05301  0601 00 1 72737         STO     CMST,1
      05302  0500 00 0 02417         CLA     ER3
      05303  0601 00 0 06574         STO     PRENDS
      05304  0500 00 1 72736         CLA     CMST-1,1
      05305  0601 00 0 01031         STO     COM8+3
      05306  0634 00 4 05311         SXA     MA14,4
      05307  0074 00 4 00263         TSX     WRFLX,4
      05310  0 00011 0 01026         PZE     COM8,,9
      05311  0774 00 4 00000  MA14   AXT     **,4
      05312  0560 00 0 05372  MA8    LDQ     MAT4
      05313 -0773 00 0 00025         RQL     21
      05314  0500 00 0 05367         CLA     MAT1
      05315  0625 00 0 05372         STT     MAT4
      05316  0771 00 0 00022         ARS 18
      05317  0400 00 0 05371         ADD MAT3               ADDRESS-ADD CONST
      05320 -0501 00 0 05372         ORA MAT4               ADD TAG
      05321  0020 00 4 00001         TRA 1,4
      05322  0534 00 1 05367  MAABC  LXA     MAT1,1
1                    MAD III FOR CTSS ... R M GRAHAM ... MAR 1964                03/15/69 1117.9 PAGE 49

      05323  0500 00 0 05367         CLA MAT1                    -ABCB ENTRY-
      05324  0771 00 0 00022         ARS 18                   0+0+0+ADDRESS
      05325 -0320 00 0 00634         ANA MQA
      05326  0601 00 0 05370         STO MAT2
      05327  0560 00 0 05370         LDQ MAT2
      05330  0500 00 1 70675         CLA     CABC,1
      05331 -0320 00 0 00634         ANA MQA
      05332  0020 00 4 00001         TRA 1,4
      05333  0534 00 1 05367  MAEPAR LXA MAT1,1
      05334  0500 00 1 00000  MA11   CLA **,1               PRESET TO EPL
      05335  0020 00 0 05340         TRA MA10
      05336  0534 00 1 05367  MAPAR  LXA MAT1,1
      05337  0500 00 1 00000  MA12   CLA **,1              -2+ADD CONST+TAG+PL INDEX
      05340 -0320 00 0 00635  MA10   ANA MQT
      05341  0771 00 0 00017         ARS 15                 -PL ENTRY-
      05342  0601 00 0 05370         STO MAT2               MODE+0+MODE+0
      05343  0500 00 0 05367         CLA MAT1
      05344  0765 00 0 00022         LRS 18
      05345  0621 00 0 05367         STA MAT1
      05346  0763 00 0 00044         LLS 36
      05347  0622 00 0 05367         STD MAT1
      05350  0500 00 0 05367         CLA MAT1
      05351  0560 00 0 05370         LDQ MAT2
      05352  0020 00 4 00001         TRA 1,4
      05353  0534 00 1 05367  MAFCN  LXA     MAT1,1
      05354  0500 00 1 47445         CLA TTB,1              -TT ENTRY-
      05355  0765 00 0 00022         LRS 18                 MODE RESULT+0+MODE RESULT+ADDRESS
      05356  0771 00 0 00017         ARS 15
      05357  0765 00 0 00040         LRS 32
      05360  0500 00 0 00467         CLA OP
      05361  0402 00 0 00707         SUB AQFCN
      05362  0100 00 0 05364         TZE MA5
      05363  0560 00 0 00575         LDQ AQ3
      05364  0500 00 1 47445  MA5    CLA TTB,1
      05365 -0320 00 0 00634         ANA MQA
      05366  0020 00 4 00001         TRA 1,4
      05367  0 00000 0 00000  MAT1   PZE
      05370  0 00000 0 00000  MAT2   PZE
      05371  0 00000 0 00000  MAT3   PZE
      05372  0 00000 0 00000  MAT4   PZE

                                         ADDRESS DECODING ROUTINE (AD)
                                           (ARGUMENT IN AC)
                                           (RESULT IN AC)
      05373 -0320 00 0 00634  ADEC   ANA MQA                     -ADDRESS TYPES-
      05374  0765 00 0 00014         LRS     12
      05375 -0100 00 0 05425         TNZ     ADLIT
      05376  0763 00 0 00004         LLS     4
      05377  0734 00 1 00000         PAX     0,1
      05400 -0754 00 0 00000         PXD     0,0
      05401  0763 00 0 00010         LLS     8
      05402  0601 00 0 06025         STO     ADT3
      05403  0020 00 1 05423         TRA *+16,1
      05404  0020 00 0 05423         TRA ADC                15 COMPLEMENT CONSTANT
      05405  0761 00 0 00000         NOP
      05406  0074 00 4 02364         TSX     MADERR,4
1                    MAD III FOR CTSS ... R M GRAHAM ... MAR 1964                03/15/69 1117.9 PAGE 50

      05407  0020 00 0 06012         TRA     ADFF
      05410  0020 00 0 05704         TRA     ADLM
      05411  0020 00 0 05640         TRA     ADDT
      05412  0020 00 0 05714         TRA ADZTA              9 ZTA
      05413  0020 00 0 05733         TRA ADTV               8 TV
      05414  0020 00 0 06010         TRA ADCF               7 CON F
      05415  0020 00 0 06005         TRA ADC1               6 CON 1
      05416  0020 00 0 05707         TRA ADBTA              5 BTA
      05417  0020 00 0 05702         TRA     ADLP
      05420  0020 00 0 05620         TRA ADT                3 T
      05421  0020 00 0 05614         TRA ADB                2 B
      05422  0020 00 0 05433         TRA ADA                1 A
      05423  0500 00 0 00556  ADC    CLA AQ0
      05424  0020 00 4 00002         TRA 2,4
      05425  0763 00 0 00014  ADLIT  LLS     12
      05426  0402 00 0 00163         SUB     UPBRK
      05427  0120 00 0 05431         TPL     *+2
      05430  0402 00 0 00462         SUB     PLC
      05431  0400 00 0 00163         ADD     UPBRK
      05432  0020 00 4 00001         TRA     1,4
      05433  0500 00 0 00525  ADA    CLA     ABASE
      05434  0601 00 0 06024         STO     ADT2
      05435 -0500 00 0 00471         CAL     AA
      05436  0602 00 0 06023  AD13   SLW     ADT1
      05437  0771 00 0 00017         ARS 15
      05440 -0734 00 1 00000         PDX 0,1
      05441  0020 00 1 05451         TRA *+8,1
      05442  0074 00 4 02364         TSX     MADERR,4
      05443  0020 00 0 05530         TRA AD1                PARAMETER
      05444  0074 00 4 02364         TSX     MADERR,4
      05445  0020 00 0 05722         TRA AD19
      05446  0020 00 0 05456         TRA AD2                TEMPORARY
      05447  0020 00 0 05451         TRA AD3                FLOATING ADDRESS
      05450  0020 00 0 05563         TRA AD22               EXTERNAL PARAMETER
      05451  0500 00 0 06025  AD3    CLA     ADT3
      05452  0400 00 0 06023         ADD     ADT1
      05453 -0100 00 0 05455         TNZ AD17
      05454  0020 00 4 00001         TRA 1,4
      05455  0020 00 4 00002  AD17   TRA 2,4
      05456  0500 00 0 06025  AD2    CLA     ADT3
      05457  0767 00 0 00017         ALS     15
      05460 -0602 00 0 06023         ORS     ADT1
      05461 -0534 00 1 06022         LXD     TEM,1
      05462  0500 60 0 06022         CLA*    TEM
      05463 -0340 00 0 06023         LAS     ADT1
      05464  0020 00 0 05466         TRA     *+2
      05465  0020 00 0 05521         TRA     AD4
      05466  2 00001 1 05462         TIX     *-4,1,1
      05467  0634 00 4 05517         SXA     AD18,4
      05470  0500 00 0 06023         CLA     ADT1
      05471 -0320 00 0 00634         ANA     MQA
      05472  0601 00 0 06023         STO     ADT1
      05473  0074 00 4 01343         TSX     CADDR,4
      05474  0602 00 0 01143         SLW     COM16+2
      05475  0500 00 0 00500         CLA     I
      05476 -0320 00 0 00634         ANA     MQA
1                    MAD III FOR CTSS ... R M GRAHAM ... MAR 1964                03/15/69 1117.9 PAGE 51

      05477  0402 00 0 06023         SUB     ADT1
      05500  0601 00 0 06023         STO     ADT1
      05501  0767 00 0 00001         ALS     1
      05502  0400 00 0 06023         ADD     ADT1
      05503  0767 00 0 00022         ALS     18
      05504  0400 00 0 65507         ADD     INST
      05505 -0734 00 4 00000         PDX     0,4
      05506  0500 00 4 65513         CLA     INST+4,4
      05507  0074 00 4 01343         TSX     CADDR,4
      05510  0602 00 0 01153         SLW     COM16+10
      05511  0074 00 4 00263         TSX     WRFLX,4
      05512 -0 00017 0 01141         MZE     COM16,,15
      05513  0074 00 4 00263         TSX     WRFLX,4
      05514  0 00017 0 17626         PZE     BCD-15,,15
      05515  0500 00 0 02417         CLA     ER3
      05516  0601 00 0 06574         STO     PRENDS
      05517  0774 00 4 00000  AD18   AXT     **,4
      05520  0020 00 0 05523         TRA     AD6
      05521 -0760 00 0 00003  AD4    SSM
      05522  0601 60 0 06022  AD14   STO*    TEM
      05523  0754 00 1 00000  AD6    PXA     0,1
      05524  0400 00 0 00567         ADD     PQ3
      05525  0400 00 0 06027         ADD     ADFNR
      05526  0601 00 0 06023         STO     ADT1
      05527  0020 00 4 00002         TRA     2,4
      05530  0500 00 0 06023  AD1    CLA ADT1
      05531 -0320 00 0 00641         ANA MQDA
      05532 -0501 00 0 00606         ORA     TQ1
      05533  0402 00 0 06025         SUB     ADT3
      05534 -0534 00 1 20633         LXD LINK,1
      05535  1 00002 1 05536         TXI *+1,1,2
      05536  3 00762 1 05612         TXH AD8,1,PPLINK-2
      05537 -0634 00 1 20633         SXD     LINK,1
      05540  0601 00 1 20633         STO LINK,1
      05541 -0600 00 1 20634         STQ LINK+1,1
      05542  0500 00 0 00463         CLA LOC
      05543 -0602 00 1 20634         ORS LINK+1,1
      05544  0500 00 0 04721         CLA     STT1
      05545 -0320 00 0 00640         ANA     MQPDT
      05546  0402 00 0 00664         SUB     IQTXH
      05547 -0100 00 0 05552         TNZ     *+3
      05550  0500 00 0 00706         CLA     AQPAR
      05551  0020 00 0 05553         TRA     *+2
      05552  0500 00 0 00467         CLA OP
      05553  0767 00 0 00022         ALS 18
      05554  0622 00 1 20634         STD LINK+1,1
      05555 -0500 00 0 00553         CAL     PQ4
      05556  0630 00 0 06023         STP     ADT1
      05557  0502 00 0 04234         CLS     IN1
      05560  0601 00 0 06024  AD23   STO     ADT2
      05561  0500 00 0 06023         CLA     ADT1
      05562  0020 00 4 00002         TRA 2,4
      05563  0500 00 0 06023  AD22   CLA ADT1
      05564 -0320 00 0 00641         ANA MQDA
      05565 -0501 00 0 00606         ORA     TQ1
      05566  0402 00 0 06025         SUB     ADT3
1                    MAD III FOR CTSS ... R M GRAHAM ... MAR 1964                03/15/69 1117.9 PAGE 52

      05567 -0534 00 1 15647         LXD ELINK,1
      05570  1 00002 1 05571         TXI *+1,1,2
      05571  3 00762 1 05612         TXH     AD8,1,PPELNK-2
      05572 -0634 00 1 15647         SXD     ELINK,1
      05573  0601 00 1 15647         STO ELINK,1
      05574 -0600 00 1 15650         STQ ELINK+1,1
      05575  0500 00 0 00463         CLA LOC
      05576 -0602 00 1 15650         ORS ELINK+1,1
      05577  0500 00 0 04721         CLA     STT1
      05600 -0320 00 0 00640         ANA     MQPDT
      05601  0402 00 0 00664         SUB     IQTXH
      05602 -0100 00 0 05605         TNZ     *+3
      05603  0500 00 0 00706         CLA     AQPAR
      05604  0020 00 0 05606         TRA     *+2
      05605  0500 00 0 00467         CLA OP
      05606  0767 00 0 00022         ALS 18
      05607  0622 00 1 15650         STD ELINK+1,1
      05610  0502 00 0 04236         CLS     IN2
      05611  0020 00 0 05560         TRA AD23
      05612  0074 00 4 02362  AD8    TSX ERROR,4            LINK TABLE EXCEEDED
      05613  0 00005 0 01235         PZE COM23,,5
      05614  0500 00 0 00526  ADB    CLA     BBASE
      05615  0601 00 0 06024         STO     ADT2
      05616 -0500 00 0 00474         CAL AB
      05617  0020 00 0 05436         TRA     AD13
      05620 -0534 00 1 06022  ADT    LXD     TEM,1
      05621 -0520 60 0 06022         NZT*    TEM
      05622  0020 00 0 05630         TRA     AD5
      05623  2 00001 1 05621         TIX     *-2,1,1
      05624 -0534 00 1 06022         LXD     TEM,1
      05625  1 00001 1 05626         TXI     *+1,1,1
      05626 -0634 00 1 06022         SXD     TEM,1
      05627  3 00144 1 05636         TXH     AD7,1,PPTEM
      05630  0500 00 0 00476  AD5    CLA     TOPND
      05631  0020 00 0 05522         TRA     AD14
      05632  0754 00 1 00000         PXA     0,1
      05633  0400 00 0 00567         ADD     PQ3
      05634  0400 00 0 06027         ADD     ADFNR
      05635  0020 00 4 00002         TRA     2,4
      05636  0074 00 4 02362  AD7    TSX     ERROR,4
      05637  0 00004 0 01331         PZE     COM32,,4
      05640  0500 00 0 06025  ADDT   CLA     ADT3
      05641  0767 00 0 00017         ALS     15
      05642  0400 00 0 00476         ADD     TOPND
      05643  0601 00 0 06023         STO     ADT1
      05644 -0534 00 1 06022         LXD     TEM,1
      05645  0500 60 0 06022         CLA*    TEM
      05646 -0340 00 0 06023         LAS     ADT1
      05647  0020 00 0 05651         TRA     *+2
      05650  0020 00 0 05523         TRA     AD6
      05651  2 00001 1 05645         TIX     *-4,1,1
      05652 -0534 00 1 06022         LXD     TEM,1
      05653 -0520 60 0 06022         NZT*    TEM
      05654  0020 00 0 05675         TRA     AD9
      05655  2 00001 1 05653  AD12   TIX     *-2,1,1
      05656 -0534 00 1 06022  AD11   LXD     TEM,1
1                    MAD III FOR CTSS ... R M GRAHAM ... MAR 1964                03/15/69 1117.9 PAGE 53

      05657  0520 60 0 06022         ZET*    TEM
      05660  1 00001 1 05661         TXI     *+1,1,1
      05661  1 00001 1 05662         TXI     *+1,1,1
      05662 -0634 00 1 06022         SXD     TEM,1
      05663  1 77777 1 05664         TXI     *+1,1,-1
      05664  0500 00 0 00476  AD10   CLA     TOPND
      05665  0601 60 0 06022         STO*    TEM
      05666  1 00001 1 05667         TXI     *+1,1,1
      05667  3 00144 1 05636         TXH     AD7,1,PPTEM
      05670  0400 00 0 00606         ADD     TQ1
      05671  0601 60 0 06022         STO*    TEM
      05672  0520 00 0 06025         ZET     ADT3
      05673  0020 00 0 05523         TRA     AD6
      05674  1 77777 1 05523         TXI     AD6,1,-1
      05675 -3 00001 1 05656  AD9    TXL     AD11,1,1
      05676  1 77777 1 05677         TXI     *+1,1,-1
      05677  0520 60 0 06022         ZET*    TEM
      05700  0020 00 0 05655         TRA     AD12
      05701  0020 00 0 05664         TRA     AD10
      05702  0500 00 0 06025  ADLP   CLA     ADT3
      05703  0020 00 0 05705         TRA     *+2
      05704  0502 00 0 06025  ADLM   CLS     ADT3
      05705  0400 00 0 00463         ADD     LOC
      05706  0020 00 4 00002         TRA     2,4
      05707  0500 00 0 00471  ADBTA  CLA AA
      05710  0767 00 0 00017         ALS 15
      05711 -0320 00 0 00635         ANA MQT
      05712 -0602 00 2 47045         ORS CODE+1,2
      05713  0020 00 0 05614         TRA ADB
      05714  0500 00 0 00471  ADZTA  CLA AA
      05715  0767 00 0 00017         ALS 15
      05716 -0320 00 0 00635         ANA MQT
      05717 -0602 00 2 47045         ORS CODE+1,2
      05720 -0754 00 0 00000         PXD
      05721  0020 00 4 00001         TRA 1,4
      05722 -0763 00 0 00001  AD19   LGL 1
      05723  0500 00 0 06023         CLA ADT1
      05724  0162 00 0 05730         TQP AD20
      05725  0767 00 0 00022         ALS 18
      05726  0622 00 0 04721         STD STT1
      05727  0020 00 0 05731         TRA AD21
      05730  0621 00 2 47045  AD20   STA CODE+1,2
      05731 -0754 00 0 00000  AD21   PXD
      05732  0020 00 4 00002         TRA 2,4
      05733 -0534 00 1 10657  ADTV   LXD     OPMD,1
      05734  0500 00 0 00153         CLA     PGCERS        CHECK FOR ODD MTX SUBSCRIPTION
      05735  0120 00 0 05745         TPL     AD24
      05736  0500 00 1 10657         CLA     OPMD,1
      05737  0402 00 0 10660         SUB     OPM1
      05740  0100 00 0 05743         TZE     *+3
      05741  0402 00 0 00612         SUB     DQ8
      05742 -0100 00 0 05745         TNZ     AD24
      05743  0500 00 0 06026         CLA     ADT4
      05744  0020 00 0 05762         TRA     AD25
      05745  0560 00 1 10657  AD24   LDQ     OPMD,1
      05746  0500 00 0 00576         CLA     AQ330
1                    MAD III FOR CTSS ... R M GRAHAM ... MAR 1964                03/15/69 1117.9 PAGE 54

      05747 -0763 00 0 00003         LGL     3
      05750  0767 00 0 00003         ALS 3
      05751 -0763 00 0 00003         LGL     3
      05752  0767 00 0 00003         ALS 3
      05753 -0763 00 0 00003         LGL     3
      05754  0767 00 0 00003         ALS 3
      05755 -0763 00 0 00003         LGL     3
      05756  0767 00 0 00003         ALS     3
      05757 -0763 00 0 00003         LGL     3
      05760  0602 00 0 06023         SLW ADT1
      05761  0500 00 0 06023         CLA ADT1
      05762 -0534 00 1 14662  AD25   LXD     ADTT,1
      05763  0340 00 1 14662         CAS ADTT,1
      05764  0020 00 0 05766         TRA *+2
      05765  0020 00 0 05774         TRA AD15
      05766  2 00001 1 05763         TIX *-3,1,1
      05767 -0534 00 1 14662         LXD ADTT,1
      05770  1 00002 1 05771         TXI *+1,1,2
      05771  3 00024 1 06003         TXH AD16,1,PPADTT
      05772 -0634 00 1 14662         SXD ADTT,1
      05773  0601 00 1 14662         STO ADTT,1
      05774 -0754 00 1 00000  AD15   PXD 0,1
      05775  0771 00 0 00023         ARS 19
      05776 -0760 00 0 00003         SSM
      05777  0400 00 0 00162         ADD TVSTRT
      06000 -0320 00 0 00634         ANA MQA
      06001  0601 00 1 14663         STO ADTT+1,1
      06002  0020 00 4 00002         TRA 2,4
      06003  0074 00 4 02362  AD16   TSX ERROR,4            ADTT TABLE EXCEEDED
      06004  0 00006 0 01242         PZE COM24,,6
      06005  0500 00 0 00160  ADC1   CLA CON1
      06006 -0320 00 0 00634         ANA MQA
      06007  0020 00 4 00002         TRA 2,4
      06010  0500 00 0 00157  ADCF   CLA CONF
      06011  0020 00 0 06006         TRA ADC1+1
      06012  0634 00 4 06020  ADFF   SXA     ADFFX4,4
      06013  0534 00 4 00511         LXA     FNFNRS,4
      06014  1 00001 4 06015         TXI     *+1,4,1
      06015  0500 00 0 00507         CLA     FNFLAD
      06016 -3 00000 4 06020         TXL     *+2,4,0
      06017  0500 00 0 00510         CLA     FNFLAD+1
      06020  0774 00 4 00000  ADFFX4 AXT     **,4
      06021  0020 00 4 00002         TRA     2,4
      06022  0 00000 1 13716  TEM    PZE     PTEM,1
      06023  0 00000 0 00000  ADT1   PZE
      06024  0 00000 0 00000  ADT2   PZE
      06025  0 00000 0 00000  ADT3   PZE
      06026  336264226260     ADT4   BCI     1,.SUBS
      06027  0 00000 0 00000  ADFNR  PZE

                                         EXITS FROM CODE GENERATION(OP)

      06030  0500 00 0 00557  ZXT    CLA AQ16
      06031  0020 00 0 06037         TRA OP1
      06032  0500 00 0 00560  MQXT   CLA AQ17
      06033  0020 00 0 06037         TRA OP1
1                    MAD III FOR CTSS ... R M GRAHAM ... MAR 1964                03/15/69 1117.9 PAGE 55

      06034  0500 00 0 00562  ACMQXT CLA     AQ19
      06035  0020 00 0 06037         TRA     OP1
      06036  0500 00 0 00561  ACXT   CLA AQ18
      06037  0601 00 0 00502  OP1    STO CON
      06040 -0534 00 1 10657         LXD OPMD,1
      06041  0500 00 1 10657         CLA     OPMD,1
      06042 -0320 00 0 00635         ANA MQT
      06043  0767 00 0 00003         ALS     3             STORE MODE OF RESULT
      06044 -0534 00 1 65507         LXD INST,1             IN OP
      06045  0622 00 1 65510         STD     INST+1,1
      06046  0601 00 0 00477         STO MT
      06047  0020 00 0 04272         TRA MAD3A
      06050 -0534 00 1 65507  SQXT   LXD INST,1
      06051  0500 00 1 65505         CLA INST-2,1
      06052  0622 00 1 65510         STD     INST+1,1
      06053  0020 00 0 04272         TRA MAD3A
      06054  0500 00 0 00605  LACXT  CLA     AQ48
      06055  0020 00 0 06037         TRA     OP1
      06056  0500 00 0 00567  AACXT  CLA PQ3
      06057  0601 00 0 00471         STO AA
      06060  0560 00 0 00563         LDQ AQ26
      06061  0601 00 0 00476  OP2    STO TOPND
      06062 -0600 00 0 00502         STQ CON
      06063 -0534 00 1 10657         LXD OPMD,1
      06064 -0500 00 1 10657         CAL     OPMD,1
      06065 -0320 00 0 00625         ANA     MQMDT
      06066  0622 00 0 06235         STD OPT1
      06067 -0320 00 0 00635         ANA MQT
      06070  0771 00 0 00017         ARS 15
      06071  0601 00 0 00472         STO MA
      06072  0500 00 0 06235         CLA OPT1
      06073  0771 00 0 00022         ARS 18
      06074 -0320 00 0 00634         ANA MQA
      06075  0601 00 0 00475         STO MB
      06076  0020 00 0 04367         TRA ST14
      06077  0500 00 0 00567  BACXT  CLA PQ3
      06100  0560 00 0 00564         LDQ AQ22
      06101  0601 00 0 00474         STO AB
      06102  0020 00 0 06061         TRA OP2
      06103 -0534 00 2 47044  STRXT  LXD     CODE,2
      06104  0502 00 2 47042         CLS     CODE-2,2
      06105  0601 00 2 47042         STO     CODE-2,2
      06106  0020 00 0 06030         TRA     ZXT
      06107  0500 00 0 00474  DICTS  CLA AB
      06110  0601 00 0 00504         STO DICLOC
      06111  0500 00 0 00463         CLA LOC
      06112  0601 00 0 00505         STO DICETY
      06113  0600 00 0 00521  OP11   STZ     IR1
      06114  0600 00 0 00522         STZ     IR2
      06115  0600 00 0 00523         STZ     IR1A
      06116  0600 00 0 00524         STZ     IR2A
      06117  0020 00 0 04272         TRA MAD3A
      06120 -0534 00 1 17620  FLDS   LXD FLAD,1
      06121  1 00002 1 06122         TXI *+1,1,2
      06122  3 01750 1 06144         TXH OP7,1,PPFLAD       TRA IF FLAD TABLE EXCEEDED
      06123 -0634 00 1 17620         SXD FLAD,1
1                    MAD III FOR CTSS ... R M GRAHAM ... MAR 1964                03/15/69 1117.9 PAGE 56

      06124  0500 00 0 00474         CLA AB
      06125  0601 00 1 17620         STO FLAD,1
      06126  0500 00 0 00463         CLA LOC
      06127  0601 00 1 17621         STO FLAD+1,1
      06130  0600 00 0 00521         STZ     IR1
      06131  0600 00 0 00522         STZ     IR2
      06132  0600 00 0 00523         STZ     IR1A
      06133  0600 00 0 00524         STZ     IR2A
      06134  0020 00 0 06050         TRA SQXT
      06135  0500 00 0 00463  SAVLCS CLA LOC
      06136  0601 00 0 00520         STO SAVLOC
      06137  0500 00 0 00474         CLA AB
      06140  0601 00 0 00463  OP13   STO LOC
      06141  0020 00 0 06030         TRA ZXT
      06142  0500 00 0 00520  RSTLCS CLA SAVLOC
      06143  0020 00 0 06140         TRA OP13
      06144  0074 00 4 02362  OP7    TSX ERROR,4
      06145  0 00006 0 01250         PZE COM25,,6
      06146  0500 00 0 00555  IFBGNS CLA AQ1
      06147 -0602 00 0 00501         ORS FNSW
      06150  0500 00 0 00506         CLA FNR
      06151  0400 00 0 00610         ADD     DQ1
      06152  0601 00 0 00506         STO FNR
      06153  0601 00 0 06027         STO     ADFNR
      06154  0500 00 0 06022         CLA     TEM
      06155  0601 00 0 06573         STO     WP9
      06156  0500 00 0 06201         CLA     OP9
      06157  0601 00 0 06022         STO     TEM
      06160  0500 60 0 00466         CLA*    CURPL
      06161  0771 00 0 00022         ARS     18
      06162  0400 00 0 00466         ADD     CURPL
      06163  0400 00 0 00555         ADD     AQ1
      06164  0621 00 0 05337         STA     MA12
      06165  0601 00 0 00466  OP3    STO     CURPL
      06166  0500 00 0 00506         CLA     FNR
      06167 -0501 00 0 00570         ORA     PQ2
      06170 -0501 00 0 00635         ORA     MQT
      06171  0534 00 4 00511         LXA     FNFNRS,4
      06172  3 00000 4 06174         TXH     *+2,4,0
      06173  0601 00 0 00507         STO     FNFLAD
      06174  1 77777 4 06175         TXI     *+1,4,-1
      06175  0634 00 4 00511         SXA     FNFNRS,4
      06176  3 77776 4 06200         TXH     *+2,4,-2
      06177  0601 00 0 00510         STO     FNFLAD+1
      06200  0020 00 0 06113         TRA     OP11
      06201  0 00000 1 13551  OP9    PZE     FTEM,1
      06202 -0500 00 0 00553  EFBGNS CAL PQ4
      06203  0602 00 0 00501         SLW FNSW
      06204  0500 60 0 00466         CLA*    CURPL
      06205  0771 00 0 00022         ARS     18
      06206  0400 00 0 00466         ADD     CURPL
      06207  0400 00 0 00555         ADD     AQ1
      06210  0621 00 0 05334         STA     MA11
      06211  0020 00 0 06165         TRA     OP3
      06212 -0534 00 2 47044  IFETYS LXD CODE,2
      06213  0500 00 0 00463         CLA LOC
1                    MAD III FOR CTSS ... R M GRAHAM ... MAR 1964                03/15/69 1117.9 PAGE 57

      06214  0601 00 2 47046         STO     CODE+2,2
      06215  0500 00 0 00673         CLA     IQTTR
      06216  0601 00 2 47045         STO     CODE+1,2
      06217  0500 00 0 00474         CLA AB
      06220  0601 00 2 47044         STO CODE,2
      06221  1 77775 2 06222         TXI     *+1,2,-3
      06222 -0634 00 2 47044         SXD     CODE,2
      06223  0020 00 0 06113         TRA     OP11
      06224  0534 00 1 14635  EFETYS LXA     PETY,1
      06225  1 00002 1 06226         TXI *+1,1,2
      06226  3 00036 1 06236         TXH OP8,1,PPPETY       TRA IF PR ENTRY TABLE EXCEEDED
      06227  0634 00 1 14635         SXA     PETY,1
      06230  0500 00 0 00473         CLA BOPND
      06231  0601 00 1 14635         STO PETY,1
      06232  0500 00 0 00463         CLA LOC
      06233  0601 00 1 14636         STO PETY+1,1
      06234  0020 00 0 06113         TRA     OP11
      06235  0 00000 0 00000  OPT1   PZE
      06236  0074 00 4 02362  OP8    TSX ERROR,4
      06237  0 00005 0 01264         PZE COM27,,5
      06240  0500 00 0 00501  FENDS  CLA FNSW
      06241 -0100 00 0 06247         TNZ OP10
      06242 -0534 00 1 15647         LXD ELINK,1
      06243 -0634 00 1 20633         SXD LINK,1
      06244  0500 00 1 15647  OP14   CLA ELINK,1
      06245  0601 00 1 20633         STO LINK,1
      06246  2 00001 1 06244         TIX OP14,1,1
      06247 -0534 00 3 20633  OP10   LXD LINK,3             -LINK DOUBLE ENTRIES-
      06250  0020 00 0 06261         TRA     OP4           0+PL INDEX+0 OR 1+ADD CON
      06251  0500 00 2 20633  OP6    CLA     LINK,2        0OR 2 + OP + 0 + LOC
      06252  0040 00 0 06262         TLQ OP5
      06253  0601 00 1 20633         STO LINK,1
      06254 -0600 00 2 20633         STQ LINK,2
      06255  0500 00 1 20634         CLA LINK+1,1           SORT LINK TABLE
      06256  0560 00 2 20634         LDQ LINK+1,2
      06257  0601 00 2 20634         STO LINK+1,2
      06260 -0600 00 1 20634         STQ LINK+1,1
      06261  0560 00 1 20633  OP4    LDQ LINK,1
      06262  2 00002 2 06251  OP5    TIX OP6,2,2
      06263  0534 00 2 00556         LXA AQ0,2
      06264  2 00002 3 06261         TIX OP4,3,2

                                         DIFFERENCE FCN ABCONS AND SET UP
                                         ADDITIONAL ABCON TABLE(DF)
      06265 -0534 00 1 20633         LXD LINK,1
      06266 -3 00000 1 06403         TXL WPCD,1,0
      06267  0600 00 1 20631         STZ LINK-2,1
      06270  0500 00 1 20634  DF6    CLA LINK+1,1
      06271  0771 00 0 00022         ARS 18
      06272  0402 00 0 00706         SUB AQPAR
      06273 -0100 00 0 06276         TNZ DF1
      06274 -0500 00 0 00553         CAL PQ4
      06275 -0602 00 1 20634         ORS LINK+1,1           PBIT=1 FOR OP=PAR
      06276  0500 00 1 20633  DF1    CLA LINK,1
      06277  0622 00 0 06362         STD DFT2               PAR NO. OF CURRENT LINK
      06300  0625 00 0 06362         STT     DFT2
1                    MAD III FOR CTSS ... R M GRAHAM ... MAR 1964                03/15/69 1117.9 PAGE 58

      06301  0621 00 0 06361         STA DFT1               CURRENT ADD CON
      06302  0500 00 1 20631         CLA LINK-2,1
      06303  0621 00 0 06363         STA DFT3               PREV ADD CON
      06304 -0320 00 0 00621         ANA     MQDT
      06305  0402 00 0 06362         SUB DFT2
      06306  0100 00 0 06345         TZE DF3                TRA IF SAME PAR NO.
      06307 -0500 00 0 00553  DF9    CAL PQ4
      06310 -0602 00 1 20633         ORS LINK,1             PBIT=1 FOR FIRST OF PAR GROUP
      06311  0500 00 0 06361         CLA DFT1
      06312  0100 00 0 06342         TZE DF2
      06313  0402 00 0 00634         SUB     MQA
      06314  0100 00 0 06357         TZE     DF12
      06315  0400 00 0 00634         ADD     MQA
      06316 -0534 00 2 14576  DF8    LXD AABC,2
      06317 -3 00000 2 06325         TXL DF11,2,0
      06320  0340 00 2 14576  DF5    CAS AABC,2
      06321  0020 00 0 06323         TRA *+2
      06322  0020 00 0 06330         TRA DF4
      06323  2 00001 2 06320         TIX DF5,2,1
      06324 -0534 00 2 14576         LXD AABC,2
      06325  1 00001 2 06326  DF11   TXI *+1,2,1
      06326  3 00036 2 06340         TXH DF10,2,PPAABC      TRA IF AABC TABLE EXCEEDED
      06327 -0634 00 2 14576         SXD AABC,2
      06330  0601 00 2 14576  DF4    STO AABC,2
      06331  0754 00 2 00000         PXA     0,2
      06332  0400 00 0 00463         ADD LOC
      06333  0402 00 0 00555         SUB AQ1
      06334  0767 00 0 00022         ALS 18
      06335  0622 00 1 20634         STD LINK+1,1
      06336  2 00002 1 06270  DF7    TIX DF6,1,2
      06337  0020 00 0 06403         TRA WPCD               TRA TO WRITE PROLOGUE CODE
      06340  0074 00 4 02362  DF10   TSX ERROR,4
      06341  0 00006 0 01256         PZE COM26,,6
      06342 -0500 00 0 00632  DF2    CAL MQPTA
      06343  0320 00 1 20634         ANS LINK+1,1
      06344  0020 00 0 06336         TRA DF7
      06345  0500 00 1 20632  DF3    CLA LINK-1,1
      06346  0767 00 0 00001         ALS 1
      06347 -0760 00 0 00001         PBT
      06350  0020 00 0 06352         TRA *+2
      06351  0020 00 0 06307         TRA DF9
      06352  0500 00 0 06361         CLA DFT1
      06353  0100 00 0 06342         TZE DF2
      06354  0402 00 0 06363         SUB DFT3
      06355  0100 00 0 06342         TZE DF2
      06356  0020 00 0 06316         TRA DF8
      06357  0502 00 0 00555  DF12   CLS     AQ1
      06360  0020 00 0 06316         TRA     DF8
      06361  0 00000 0 00000  DFT1   PZE
      06362  0 00000 0 00000  DFT2   PZE
      06363  0 00000 0 00000  DFT3   PZE

                                         WRITE CODE INTERLUDE (WI)
1                    MAD III FOR CTSS ... R M GRAHAM ... MAR 1964                03/15/69 1117.9 PAGE 59

      06364 -0600 00 2 47045  WCD    STQ CODE+1,2
      06365  0601 00 2 47046         STO CODE+2,2
      06366  0500 00 0 00463  WI3    CLA LOC
      06367  0601 00 2 47044         STO CODE,2
      06370 -0520 00 0 00367         NZT     TAB7.9
      06371  0601 00 0 00367         STO     TAB7.9
      06372  0400 00 0 00555         ADD AQ1
      06373  0601 00 0 00463         STO LOC
      06374  1 77775 2 06375         TXI *+1,2,-3
      06375 -0634 00 2 47044         SXD CODE,2
      06376  0020 00 4 00001         TRA 1,4
      06377 -0600 00 2 47045  WCD1   STQ CODE+1,2
      06400  0621 00 2 47045         STA CODE+1,2
      06401  0600 00 2 47046         STZ CODE+2,2
      06402  0020 00 0 06366         TRA WI3

                                         WRITE PROLOGUE CODE (WP)

      06403 -0534 00 2 47044  WPCD   LXD CODE,2             -LINK DOUBLE ENTRIES-
      06404  0600 00 0 00367         STZ     TAB7.9
      06405 -0534 00 1 14576         LXD     AABC,1        0 OR 4 + PAR NO + 0 OR 1 + ADD CON
      06406 -3 00000 1 06416         TXL WP2,1,0            0 OR 4 OR 6+ CON ADDR + 0 + INST ADDR
      06407 -0634 00 1 06415         SXD WP1,1
      06410  0534 00 1 00555         LXA AQ1,1
      06411  0560 00 1 14576  WP3    LDQ     AABC,1
      06412 -0754 00 0 00000         PXD     0,0
      06413  0074 00 4 06364         TSX     WCD,4
      06414  1 00001 1 06415         TXI *+1,1,1
      06415 -3 00000 1 06411  WP1    TXL WP3,1,**
      06416 -0534 00 1 17620  WP2    LXD FLAD,1
      06417  1 00004 1 06420         TXI     *+1,1,4
      06420  3 01750 1 06144         TXH OP7,1,PPFLAD       TRA IF FLAD TABLE EXCEEDED
      06421 -0634 00 1 17620         SXD FLAD,1
      06422  0500 00 0 00474         CLA AB
      06423  0601 00 1 17622         STO     FLAD+2,1
      06424  0500 00 0 00463         CLA LOC
      06425  0601 00 1 17623         STO     FLAD+3,1
      06426  0560 00 0 00664         LDQ IQTXH
      06427 -0754 00 0 00000         PXD
      06430  0074 00 4 06364         TSX WCD,4
      06431  0560 00 0 00662         LDQ     IQSXD1
      06432  0500 00 0 00474         CLA     AB
      06433  0074 00 4 06364         TSX     WCD,4
      06434  0560 00 0 00661         LDQ     IQSXA4
      06435  0534 00 4 00511         LXA     FNFNRS,4
      06436  0500 00 0 00507         CLA     FNFLAD
      06437  3 77776 4 06441         TXH     *+2,4,-2
      06440  0500 00 0 00510         CLA     FNFLAD+1
      06441  0074 00 4 06364         TSX     WCD,4
      06442 -0534 00 1 20633         LXD LINK,1
      06443 -3 00000 1 06504         TXL WP10,1,0           TRA IF NO PARAMETERS SET
      06444 -0500 00 1 20633  WP7    CAL LINK,1
      06445 -0760 00 0 00001         PBT
      06446  0020 00 0 06453         TRA WP4                TRA IF NOT FIRST OF PAR GROUP
      06447  0771 00 0 00022         ARS 18
      06450 -0320 00 0 00634         ANA MQA
1                    MAD III FOR CTSS ... R M GRAHAM ... MAR 1964                03/15/69 1117.9 PAGE 60

      06451  0560 00 0 00666         LDQ IQCLA4
      06452  0074 00 4 06377         TSX WCD1,4
      06453 -0500 00 1 20634  WP4    CAL LINK+1,1
      06454 -0320 00 0 00637         ANA MQD
      06455  0100 00 0 06461         TZE WP5                TRA IF NO DIFFERENCE
      06456  0771 00 0 00022         ARS 18
      06457  0560 00 0 00665         LDQ IQSUB
      06460  0074 00 4 06364         TSX WCD,4
      06461 -0500 00 1 20634  WP5    CAL LINK+1,1
      06462  0767 00 0 00001         ALS 1
      06463 -0760 00 0 00001         PBT                    TRA IF NOT DECREMENT
      06464  0020 00 0 06475         TRA WP6
      06465  0560 00 0 00670         LDQ IQALS
      06466 -0754 00 0 00000         PXD
      06467  0074 00 4 06364         TSX WCD,4
      06470  0560 00 0 00671         LDQ IQSTD
      06471 -0500 00 1 20634         CAL LINK+1,1
      06472 -0320 00 0 00634         ANA MQA
      06473  0074 00 4 06364         TSX WCD,4
      06474  0020 00 0 06504         TRA WP10
      06475 -0500 00 1 20634  WP6    CAL LINK+1,1
      06476  0560 00 0 00657         LDQ IQSTA
      06477 -0760 00 0 00001         PBT
      06500  0020 00 0 06502         TRA WP8                TRA IF NOT PARAMETER
      06501  0560 00 0 00656         LDQ IQSTO
      06502 -0320 00 0 00634  WP8    ANA MQA
      06503  0074 00 4 06364         TSX WCD,4
      06504  2 00002 1 06444  WP10   TIX WP7,1,2
      06505  0560 00 0 00660         LDQ IQTRA2
      06506  0500 00 0 00555         CLA AQ1
      06507  0622 00 0 20633         STD LINK
      06510  0074 00 4 06377         TSX WCD1,4
      06511 -0534 00 1 17620         LXD     FLAD,1        RESTOR FLAD POINTER
      06512  0534 00 4 00511         LXA     FNFNRS,4
      06513  1 00001 4 06514         TXI     *+1,4,1
      06514  0500 00 0 00507         CLA     FNFLAD
      06515 -3 00000 4 06517         TXL     *+2,4,0
      06516  0500 00 0 00510         CLA     FNFLAD+1
      06517  0634 00 4 00511         SXA     FNFNRS,4
      06520  0601 00 1 17620         STO     FLAD,1
      06521  0500 00 0 00463         CLA     LOC
      06522  0601 00 1 17621         STO     FLAD+1,1
      06523  0560 00 0 00663         LDQ     IQAXT4
      06524 -0754 00 0 00000         PXD     0,0
      06525  0074 00 4 06364         TSX     WCD,4
      06526  0560 00 0 00676         LDQ     IQLXA2
      06527  0500 00 0 00474         CLA     AB
      06530  0074 00 4 06364         TSX     WCD,4
      06531  0560 00 0 00677         LDQ     IQLXD1
      06532  0500 00 0 00474         CLA     AB
      06533  0074 00 4 06364         TSX     WCD,4
      06534  0560 00 0 00701         LDQ     IQTRA4
      06535  0500 00 0 00555         CLA     AQ1
      06536  0074 00 4 06377         TSX     WCD1,4
      06537 -0634 00 2 47044         SXD     CODE,2
      06540  0500 00 0 00501         CLA     FNSW
1                    MAD III FOR CTSS ... R M GRAHAM ... MAR 1964                03/15/69 1117.9 PAGE 61

      06541 -0100 00 0 06547         TNZ     WP11          TRA IF AN INTERNAL FUNCTION
      06542  0500 00 0 00463         CLA     LOC
      06543  0402 00 0 00367         SUB     TAB7.9        GIVE THE LENGTH OF PROLOG
      06544  0767 00 0 00022         ALS     18            THE '1' IS ALREADY TAKEN INTO ACCOUNT
      06545  0622 00 0 00367         STD     TAB7.9
      06546  0020 00 0 04272         TRA     MAD3A

      06547  0500 00 0 00506  WP11   CLA     FNR
      06550 -0501 00 0 00567         ORA PQ3
      06551 -0534 00 1 17620         LXD FLAD,1
      06552  1 00002 1 06553         TXI *+1,1,2
      06553  3 01750 1 06144         TXH OP7,1,PPFLAD       TRA IF FLAD TABLE EXCEEDED
      06554 -0634 00 1 17620         SXD FLAD,1
      06555  0602 00 1 17620         SLW FLAD,1
      06556  0500 00 0 00463         CLA LOC
      06557  0402 00 0 00555         SUB AQ1
      06560  0601 00 1 17621         STO FLAD+1,1
      06561  0500 00 0 06022         CLA     TEM
      06562  0771 00 0 00022         ARS 18
      06563  0400 00 0 00463         ADD LOC                INCREASE LOC COUNTER TO
      06564  0601 00 0 00463         STO LOC                ACCOUNT FOR TEMPORARY
      06565 -0754 00 0 00000         PXD
      06566  0621 00 0 00501         STA FNSW
      06567  0500 00 0 06573         CLA     WP9
      06570  0601 00 0 06022         STO     TEM
      06571  0600 00 0 06027         STZ     ADFNR
      06572  0020 00 0 04272         TRA MAD3A              BLOCK.
      06573  0 00000 1 13716  WP9    PZE     PTEM,1

                                             EXIT FROM MAD III - PART 1  (PR)


      06574  0534 00 1 72737  PRENDS LXA     CMST,1
      06575 -0634 00 1 06603         SXD     PR12,1
      06576 -0634 00 1 06633         SXD     PR14,1
      06577  1 00014 1 06600         TXI     *+1,1,12
      06600  0634 00 1 06601         SXA     PR10,1
      06601  0774 00 1 00000  PR10   AXT     **,1
      06602  1 77776 1 06603         TXI     *+1,1,-2
      06603 -3 00000 1 06637  PR12   TXL     PR15,1,**
      06604  0634 00 1 06601         SXA     PR10,1
      06605 -3 00012 1 06601  PR9    TXL     PR10,1,10
      06606  0500 00 0 06601         CLA     PR10
      06607  0621 00 0 06631         STA     PR11
      06610  0754 00 1 00000         PXA     0,1
      06611  0734 00 2 00000         PAX     0,2
      06612 -0500 00 1 72751         CAL     CMST+10,1
      06613 -3 00012 2 06631  PR8    TXL     PR11,2,10
      06614 -0340 00 2 72751         LAS     CMST+10,2
      06615  0020 00 0 06620         TRA     PR16
      06616  1 77766 2 06613         TXI     PR8,2,-10
      06617  1 77766 2 06613         TXI     PR8,2,-10
      06620  0500 00 1 72752  PR16   CLA     CMST+11,1
      06621  0560 00 2 72752         LDQ     CMST+11,2
      06622 -0600 00 1 72752         STQ     CMST+11,1
      06623  0601 00 2 72752         STO     CMST+11,2
1                    MAD III FOR CTSS ... R M GRAHAM ... MAR 1964                03/15/69 1117.9 PAGE 62

      06624 -0500 00 2 72751         CAL     CMST+10,2
      06625  0560 00 1 72751         LDQ     CMST+10,1
      06626 -0600 00 2 72751         STQ     CMST+10,2
      06627  0602 00 1 72751         SLW     CMST+10,1
      06630  1 77766 2 06613         TXI     PR8,2,-10
      06631  0774 00 2 00000  PR11   AXT     **,2
      06632  1 77776 2 06633         TXI     *+1,2,-2
      06633 -3 00000 2 06636  PR14   TXL     PR13,2,**
      06634  0634 00 2 06631         SXA     PR11,2
      06635  0020 00 0 06613         TRA     PR8
      06636  1 77766 1 06605  PR13   TXI     PR9,1,-10
      06637  0534 00 2 00465  PR15   LXA     SATEST,2
      06640  0500 00 0 00637         CLA     MQD
      06641  3 00001 2 06644         TXH     PR3,2,1
      06642 -0754 00 0 00000         PXD
      06643  0622 00 0 02154         STD BW5
      06644  0622 00 0 05042  PR3    STD     BC3
      06645 -0534 00 2 47044         LXD     CODE,2
      06646  0774 00 1 16040         AXT PPINST,1
      06647  0500 00 0 00617         CLA AQEOF
      06650  0601 00 2 47044         STO CODE,2
      06651  0601 00 2 47045         STO CODE+1,2
      06652  0601 00 2 47046         STO CODE+2,2
      06653  1 77775 2 06654         TXI *+1,2,-3
      06654 -0634 00 2 47044         SXD CODE,2
      06655 -0634 00 2 02360         SXD BWT3,2
      06656  0500 00 0 06663         CLA PR1
      06657  0601 00 0 05124         STO BC28
      06660  0500 00 0 05054         CLA BC27
      06661  0601 00 0 05053         STO BC27-1
      06662  0020 00 0 05134         TRA BC2
      06663 -0120 00 0 05043  PR1    TMI BC15
      06664 -0500 00 0 00567  PR2    CAL     PQ3
      06665 -0534 00 1 17620         LXD FLAD,1
      06666  1 00002 1 06667         TXI *+1,1,2
      06667  3 01750 1 06144         TXH OP7,1,PPFLAD       TRA IF FLAD TABLE EXCEEDED
      06670 -0634 00 1 17620         SXD FLAD,1
      06671  0602 00 1 17620         SLW FLAD,1
      06672  0500 00 0 00463         CLA LOC
      06673  0402 00 0 00555         SUB AQ1
      06674  0601 00 1 17621         STO FLAD+1,1
      06675  0621 00 0 00361         STA     TAB7.6
      06676  0500 00 0 06022         CLA     TEM
      06677  0622 00 0 00361         STD     TAB7.6        SAVE FIRST,,N OF TEMPORARY FOR SINGLE PGM.
      06700  0771 00 0 00022         ARS 18
      06701  0400 00 0 00463         ADD LOC
      06702  0601 00 0 00463         STO LOC
      06703  0500 00 0 00154         CLA SIMPIO
      06704 -0534 00 1 17620         LXD FLAD,1
      06705  1 00002 1 06706         TXI *+1,1,2
      06706  3 01750 1 06144         TXH OP7,1,PPFLAD
      06707 -0634 00 1 17620         SXD FLAD,1
      06710  0044 00 0 00000         PAI
      06711 -0320 00 0 00636         ANA     MQCT6
      06712  0601 00 1 17620         STO FLAD,1
      06713  0500 00 0 00463         CLA LOC
1                    MAD III FOR CTSS ... R M GRAHAM ... MAR 1964                03/15/69 1117.9 PAGE 63

      06714  0601 00 0 00154         STO SIMPIO
      06715  0601 00 0 00365         STO     TAB7.8        SET SYMBOL TABLE STARTING ADDRESS
      06716  0054 00  300000         RFT     300000
      06717  0020 00 0 06721         TRA     PR4A
      06720  0020 00 0 06726         TRA     PR4B          TAG=4, NO SYMBOL TABLE WANTED
      06721  0056 00  600000  PR4A   RNT     600000
      06722  0020 00 0 06754         TRA     PR4T          TAG=5, PARTIAL SYMBOL TABLE WANTED
      06723  0361 00 0 72737         ACL CMST
      06724 -0320 00 0 00634         ANA MQA
      06725  0400 00 0 00572         ADD AQ4
      06726  0601 00 1 17621  PR4B   STO     FLAD+1,1
      06727  0400 00 0 00555         ADD AQ1
      06730  0601 00 0 00463         STO LOC
      06731  0402 00 0 00365         SUB     TAB7.8        MINUS STARTING ADDRESS
      06732  0767 00 0 00022         ALS     18            GIVES LENGTH
      06733  0622 00 0 00365         STD     TAB7.8
      06734 -0534 00 3 17620         LXD     FLAD,3
      06735 -3 00000 1 03431         TXL MAD3B,1,0
      06736  0020 00 0 06747         TRA     PR6
      06737  0500 00 2 17620  PR5    CLA     FLAD,2
      06740  0040 00 0 06750         TLQ     PR7
      06741  0601 00 1 17620         STO FLAD,1
      06742 -0600 00 2 17620         STQ FLAD,2
      06743  0500 00 1 17621         CLA FLAD+1,1           SORT FLAD TABLE
      06744  0560 00 2 17621         LDQ FLAD+1,2
      06745  0601 00 2 17621         STO FLAD+1,2
      06746 -0600 00 1 17621         STQ FLAD+1,1           -SAVE FOR MAD3B-
      06747  0560 00 1 17620  PR6    LDQ     FLAD,1
      06750  2 00002 2 06737  PR7    TIX     PR5,2,2
      06751  0534 00 2 00556         LXA AQ0,2                 ADTV
      06752  2 00002 3 06747         TIX     PR6,3,2
      06753  0020 00 0 03431         TRA     MAD3B
                              *
      06754  0534 00 2 72737  PR4T   LXA     CMST,2
      06755  0774 00 4 00000         AXT     0,4           IR4 = NR LOCNS IN FINAL PARTIAL TABLE
      06756 -0500 00 2 72740  PR4C   CAL     CMST+1,2
      06757 -0320 00 0 00571         ANA     PQ1
      06760  0100 00 0 06762         TZE     *+2
      06761  1 00002 4 06762         TXI     *+1,4,2
      06762  2 00002 2 06756         TIX     PR4C,2,2
      06763  0754 00 4 00000         PXA     0,4
      06764  0400 00 0 00463         ADD     LOC
      06765  0020 00 0 06726         TRA     PR4B

                                         CODE FOR THE ADDITION OF DEFINED OPERATIONS

      06766  0500 00 0 00702  INDEF  CLA IQTRAD
      06767  0601 00 0 04305         STO ST12
      06770  0500 00 0 04722         CLA     BCDS
      06771  0601 00 0 04760         STO     BC34
      06772  0020 00 0 04272         TRA MAD3A
      06773  0602 00 0 00467  DEFINE SLW     OP
      06774  0771 00 0 00022         ARS 18
      06775  0601 00 0 07020         STO DET1
      06776  0600 00 0 07075         STZ     DET2
      06777  0534 00 1 07423         LXA DEFOP,1
1                    MAD III FOR CTSS ... R M GRAHAM ... MAR 1964                03/15/69 1117.9 PAGE 64

      07000 -0500 00 1 07423         CAL DEFOP,1
      07001 -0320 00 0 00631         ANA MQTA
      07002  0340 00 0 07020         CAS DET1
      07003  0020 00 0 07005         TRA *+2
      07004  0020 00 0 07076         TRA DE1               SPECIAL OPERATION
      07005  2 00001 1 07000         TIX *-5,1,1
      07006  0534 00 1 03421         LXA OPTAB,1
      07007 -0500 00 1 03421         CAL OPTAB,1
      07010 -0320 00 0 00631         ANA MQTA
      07011  0340 00 0 07020         CAS DET1
      07012  0020 00 0 07014         TRA *+2
      07013  0020 00 0 07021         TRA DE2               MACHINE OPERATION
      07014  2 00001 1 07007         TIX *-5,1,1           MACHINE OPERATION
      07015  0500 00 0 07020         CLA DET1
      07016  0074 00 4 02362         TSX ERROR,4
      07017 -0 00012 0 01276         MZE     COM29,,10
      07020  0 00000 0 00000  DET1   PZE
      07021  0560 00 1 03421  DE2    LDQ OPTAB,1
      07022 -0620 00 0 07075         SLQ DET2              STORE MACHINE OP
      07023 -0500 00 0 00467         CAL     OP
      07024 -0320 00 0 00626         ANA     MQMTA
      07025  0402 00 0 01342         SUB     COM39
      07026 -0100 00 0 07032         TNZ     DE19
      07027  0500 00 0 00650         CLA     MQIND
      07030 -0602 00 0 07075         ORS     DET2
      07031  0020 00 0 07051         TRA     DE18
      07032  0500 00 0 07075  DE19   CLA     DET2
      07033 -0320 00 0 00647         ANA     MQPSE
      07034  0402 00 0 00674         SUB     IQPSE
      07035 -0100 00 0 07044         TNZ     DE17
      07036  0500 00 0 07075         CLA     DET2
      07037  0765 00 0 00026         LRS     22
      07040  0767 00 0 00022         ALS     18
      07041  0763 00 0 00004         LLS     4
      07042  0601 00 0 07075         STO     DET2
      07043  0020 00 0 07051         TRA     DE18
      07044  0500 00 0 07075  DE17   CLA     DET2
      07045  0400 00 0 00571         ADD     PQ1
      07046 -0100 00 0 07051         TNZ     DE18
      07047  0500 00 0 00635         CLA     MQT
      07050 -0602 00 0 07075         ORS     DET2
      07051  0560 00 0 00470  DE18   LDQ     AOPND
      07052  0074 00 4 07255         TSX     OPND,4
      07053  0767 00 0 00022         ALS     18
      07054 -0602 00 0 07075         ORS     DET2
      07055  0560 00 0 00473         LDQ     BOPND
      07056  0074 00 4 07255         TSX     OPND,4
      07057 -0602 00 0 07075         ORS     DET2
      07060  0500 00 0 00467         CLA     OP
      07061  0767 00 0 00011         ALS     9
      07062 -0320 00 0 00635         ANA     MQT
      07063 -0501 00 0 07075         ORA     DET2
      07064  0602 00 0 12063  DE14   SLW     TMTXF
      07065  0534 00 1 07064         LXA     DE14,1
      07066  1 00001 1 07067         TXI     *+1,1,1
      07067  3 14525 1 07073         TXH     DE5,1,TMTX
1                    MAD III FOR CTSS ... R M GRAHAM ... MAR 1964                03/15/69 1117.9 PAGE 65

      07070  0634 00 1 07064         SXA     DE14,1
      07071 -0634 00 1 04436         SXD     ST36,1
      07072  0020 00 0 04272         TRA MAD3A
      07073  0074 00 4 02362  DE5    TSX     ERROR,4
      07074 -0 00012 0 01310         MZE     COM30,,10
      07075  0 00000 0 00000  DET2   PZE
      07076  0500 00 1 07423  DE1    CLA DEFOP,1
      07077  0771 00 0 00022         ARS 18
      07100  0621 00 0 07101         STA *+1
      07101  0020 00 0 00000         TRA **
      07102 -0534 00 2 65507  DEMOD  LXD     INST,2
      07103  1 77775 2 07104         TXI     *+1,2,-3
      07104 -0634 00 2 65507         SXD     INST,2
      07105  0074 00 4 07346  DECNV  TSX     OPMTL1,4
      07106  3 00000 1 07122         TXH     DE22,1,0
      07107 -0534 00 1 07362         LXD     DE8,1
      07110  1 77777 1 07111         TXI     *+1,1,-1
      07111 -3 00000 1 07073         TXL     DE5,1,0
      07112 -0634 00 1 07362         SXD     DE8,1
      07113  1 00001 1 07114  DE16   TXI     *+1,1,1
      07114  0340 00 1 10656         CAS     OPMD-1,1
      07115  0020 00 0 07122         TRA     DE22
      07116  0074 00 4 02364         TSX     MADERR,4
      07117  0560 00 1 10656         LDQ     OPMD-1,1
      07120 -0600 00 1 10657         STQ     OPMD,1
      07121 -3 00306 1 07113         TXL     DE16,1,PPOPMD-2
      07122  0601 00 1 10657  DE22   STO     OPMD,1
      07123  0771 00 0 00025         ARS     21
      07124  0074 00 4 01343         TSX     CADDR,4
      07125  0602 00 0 01201         SLW     COM19+9
      07126  0074 00 4 00216         TSX     PRLINE,4
      07127  0 00017 0 17626         PZE     BCD-15,,15
      07130  0074 00 4 00216         TSX     PRLINE,4
      07131  0 00013 0 01170         PZE     COM19,,11
      07132 -0534 00 2 65507         LXD     INST,2
      07133  0500 00 2 65511         CLA     INST+2,2
      07134  0767 00 0 00003         ALS     3
      07135 -0501 00 2 65507         ORA     INST,2
      07136  0767 00 0 00017         ALS     15
      07137 -0602 00 1 10657         ORS     OPMD,1
      07140  0500 00 0 07064         CLA     DE14
      07141  0621 00 1 10657         STA     OPMD,1
      07142  0020 00 0 04272         TRA     MAD3A
      07143  0074 00 4 07346  DESAM  TSX     OPMTL1,4
      07144  3 00000 1 07147         TXH     DE7,1,0
      07145  0074 00 4 02362         TSX ERROR,4
      07146  0 00007 0 01322         PZE COM31,,7
      07147  0500 00 0 07064  DE7    CLA     DE14
      07150 -0320 00 0 00634         ANA     MQA
      07151  0601 00 0 07020         STO     DET1
      07152 -0534 00 2 07362         LXD     DE8,2
      07153  1 00001 2 07154  DE9    TXI     *+1,2,1
      07154  0500 00 2 10657         CLA     OPMD,2
      07155 -0320 00 0 00634         ANA     MQA
      07156  0340 00 0 07020         CAS     DET1
      07157  0020 00 0 07161         TRA     *+2
1                    MAD III FOR CTSS ... R M GRAHAM ... MAR 1964                03/15/69 1117.9 PAGE 66

      07160  0020 00 0 07170         TRA     DE11
      07161 -3 00307 2 07153         TXL     DE9,2,PPOPMD-1
      07162  0500 00 0 00703  DEEND  CLA     IQLAS
      07163  0601 00 0 04305         STO ST12
      07164  0500 00 0 00664         CLA     IQTXH
      07165  0601 00 0 04760         STO     BC34
      07166  0600 00 0 00467         STZ     OP
      07167  0020 00 0 04272         TRA MAD3A
      07170  0500 00 1 10657  DE11   CLA     OPMD,1
      07171  0621 00 2 10657         STA     OPMD,2
      07172  0020 00 0 07153         TRA     DE9
      07173  0500 00 0 00467  DEJMP  CLA OP
      07174 -0320 00 0 00634         ANA MQA
      07175  0534 00 1 07453         LXA JCODE,1
      07176  0340 00 1 07453         CAS JCODE,1
      07177  0020 00 0 07201         TRA *+2
      07200  0020 00 0 07204         TRA DE12
      07201  2 00001 1 07176         TIX *-3,1,1
      07202  0074 00 4 02362         TSX ERROR,4
      07203 -0 00012 0 01276         MZE     COM29,,10
      07204  0500 00 0 00470  DE12   CLA AOPND
      07205  0767 00 0 00024         ALS     20
      07206  0602 00 0 00470         SLW AOPND
      07207  0500 00 0 00473         CLA BOPND
      07210  0767 00 0 00024         ALS     20
      07211  0602 00 0 00473         SLW BOPND
      07212  0500 00 0 00473         CLA     BOPND
      07213  0771 00 0 00024         ARS     20
      07214  0601 00 0 00473         STO BOPND
      07215  0500 00 0 07064         CLA     DE14
      07216 -0320 00 0 00634         ANA     MQA
      07217  0767 00 0 00024         ALS     20
      07220  0400 00 0 00470         ADD AOPND
      07221  0771 00 0 00002         ARS     2
      07222  0601 00 0 00470         STO AOPND
      07223 -0754 00 1 00000         PXD 0,1
      07224  0771 00 0 00003         ARS 3
      07225 -0501 00 0 07064         ORA     DE14
      07226 -0320 00 0 00631         ANA     MQTA
      07227 -0501 00 0 00470         ORA AOPND
      07230  0400 00 0 00473         ADD BOPND
      07231 -0501 00 0 07233         ORA DE13
      07232  0020 00 0 07064         TRA DE14
      07233 -1 00000 0 00000  DE13   MON
      07234 -0500 00 0 00473  DEOUT  CAL BOPND
      07235  0765 00 0 00022         LRS 18
      07236  0601 00 0 07020         STO DET1
      07237  0534 00 1 07464         LXA EXCODE,1
      07240  0500 00 1 07464         CLA EXCODE,1
      07241 -0320 00 0 00631         ANA MQTA
      07242  0340 00 0 07020         CAS DET1
      07243  0020 00 0 07245         TRA *+2
      07244  0020 00 0 07251         TRA DE15
      07245  2 00001 1 07240         TIX     *-5,1,1
      07246  0500 00 0 07020         CLA DET1
      07247  0074 00 4 02362         TSX ERROR,4
1                    MAD III FOR CTSS ... R M GRAHAM ... MAR 1964                03/15/69 1117.9 PAGE 67

      07250 -0 00012 0 01276         MZE     COM29,,10
      07251 -0500 00 1 07464  DE15   CAL EXCODE,1
      07252  0771 00 0 00022         ARS 18
      07253 -0501 00 0 07233         ORA     DE13
      07254  0020 00 0 07064         TRA DE14
                                                           OPERAND DECODING SUBROUTINE
      07255 -0620 00 0 07344  OPND   SLQ     DET3
      07256 -0600 00 0 07345         STQ     DET5
      07257  0131 00 0 00000         XCA
      07260 -0320 00 0 00635         ANA     MQT
      07261  0767 00 0 00003         ALS     3
      07262  0361 00 0 07344         ACL     DET3
      07263  0602 00 0 07344         SLW     DET3
      07264  0534 00 1 07440         LXA     ACODE,1
      07265 -0500 00 1 07440         CAL     ACODE,1
      07266 -0320 00 0 00622         ANA     MQPD
      07267 -0340 00 0 07344         LAS     DET3
      07270  0020 00 0 07272         TRA     *+2
      07271  0020 00 0 07307         TRA     DE3
      07272  2 00001 1 07265         TIX     *-5,1,1
      07273 -0500 00 0 00627         CAL     MQMDP
      07274  0320 00 0 07344         ANS     DET3
      07275  0534 00 1 07444         LXA     LCODE,1
      07276 -0500 00 1 07444         CAL     LCODE,1
      07277 -0320 00 0 00622         ANA     MQPD
      07300 -0340 00 0 07344         LAS     DET3
      07301  0020 00 0 07303         TRA     *+2
      07302  0020 00 0 07314         TRA     DE4
      07303  2 00001 1 07276         TIX     *-5,1,1
      07304  0500 00 0 07344         CLA     DET3
      07305  0074 00 4 02362         TSX     ERROR,4
      07306 -0 00012 0 01276         MZE     COM29,,10
      07307  0500 00 0 07345  DE3    CLA     DET5
      07310 -0320 00 0 00646         ANA     MQCON
      07311 -0501 00 1 07440         ORA     ACODE,1
      07312 -0320 00 0 00634         ANA     MQA
      07313  0020 00 4 00001         TRA     1,4
      07314  0500 00 1 07444  DE4    CLA     LCODE,1
      07315  0621 00 0 07327         STA     DE20
      07316  0560 00 0 07345         LDQ     DET5
      07317 -0763 00 0 00006         LGL     6
      07320 -0754 00 0 00000         PXD     0,0
      07321 -0763 00 0 00014         LGL     12
      07322  0734 00 1 00000         PAX     0,1
      07323 -0763 00 0 00002         LGL     2
      07324 -0754 00 0 00000         PXD     0,0
      07325  0763 00 0 00017         LLS     15
      07326  0601 00 0 07344         STO     DET3
      07327  0500 00 1 00000  DE20   CLA     **,1
      07330 -0320 00 0 00634         ANA     MQA
      07331  0400 00 0 07344         ADD     DET3
      07332  0402 00 0 00163         SUB     UPBRK
      07333  0120 00 0 07340         TPL     DE6
      07334  0400 00 0 00462         ADD     PLC
      07335  0120 00 0 07342         TPL     DE10
      07336  0400 00 0 00163         ADD     UPBRK
1                    MAD III FOR CTSS ... R M GRAHAM ... MAR 1964                03/15/69 1117.9 PAGE 68

      07337  0020 00 4 00001         TRA     1,4
      07340  0400 00 0 00163  DE6    ADD     UPBRK
      07341  0020 00 4 00001         TRA     1,4
      07342  0074 00 4 02362  DE10   TSX     ERROR,4
      07343 -0 00006 0 01133         MZE     COM15,,6
      07344  0 00000 0 00000  DET3   PZE
      07345  0 00000 0 00000  DET5   PZE
                                             OPMD BINARY SEARCH SUBROUTINE
      07346  0500 00 0 00467  OPMTL1 CLA     OP
      07347 -0320 00 0 00634         ANA     MQA
      07350  0767 00 0 00003         ALS     3
      07351 -0501 00 0 00470         ORA     AOPND
      07352  0767 00 0 00003         ALS     3
      07353 -0501 00 0 00473         ORA     BOPND
      07354  0767 00 0 00025  OPMTL  ALS     21
      07355  0601 00 0 07414         STO     DET4
      07356  0634 00 4 07412         SXA     DE24,4
      07357  0774 00 4 00020         AXT     16,4
      07360  0774 00 1 00111         AXT     PPOPMD-127,1
      07361  1 77776 4 07362  DE25   TXI     *+1,4,-2
      07362 -3 00066 1 07366  DE8    TXL     DE28,1,OPMD-OPMDF
      07363  0500 00 1 10657         CLA     OPMD,1
      07364 -0320 00 0 00624         ANA     MQMPD
      07365  0340 00 0 07414         CAS     DET4
      07366  0020 00 4 07407  DE28   TRA     DE26,4
      07367  0020 00 0 07411         TRA     DE27
      07370  0020 00 4 07410         TRA     DE26+1,4
      07371  1 00100 1 07361         TXI     DE25,1,64
      07372  1 77700 1 07361         TXI     DE25,1,-64
      07373  1 00040 1 07361         TXI     DE25,1,32
      07374  1 77740 1 07361         TXI     DE25,1,-32
      07375  1 00020 1 07361         TXI     DE25,1,16
      07376  1 77760 1 07361         TXI     DE25,1,-16
      07377  1 00010 1 07361         TXI     DE25,1,8
      07400  1 77770 1 07361         TXI     DE25,1,-8
      07401  1 00004 1 07361         TXI     DE25,1,4
      07402  1 77774 1 07361         TXI     DE25,1,-4
      07403  1 00002 1 07361         TXI     DE25,1,2
      07404  1 77776 1 07361         TXI     DE25,1,-2
      07405  1 00001 1 07361         TXI     DE25,1,1
      07406  1 77777 1 07361         TXI     DE25,1,-1
      07407  0761 00 0 00000  DE26   NOP
      07410  0774 00 1 00000         AXT     0,1
      07411  0500 00 0 07414  DE27   CLA     DET4
      07412  0774 00 4 00000  DE24   AXT     **,4
      07413  0020 00 4 00001         TRA     1,4
      07414  0 00000 0 00000  DET4   PZE
                                             SPECIAL DEFINED OPERATIONS TABLE
      07415  007102444624            VFD     18/DEMOD,H18/MOD
      07416  007143622144            VFD     18/DESAM,H18/SAM
      07417  007162254524            VFD     18/DEEND,H18/END
      07420  007173414447            VFD     18/DEJMP,H18/JMP
      07421  007234466463            VFD     18/DEOUT,H18/OUT
      07422  007105234565            VFD     18/DECNV,H18/CNV
      07423  0 00000 0 00006  DEFOP  PZE     6
                                         ADDRESS CODE TABLE FOR DEFINITIONS
1                    MAD III FOR CTSS ... R M GRAHAM ... MAR 1964                03/15/69 1117.9 PAGE 69

      07424  216060000400            VFD     O18/216060,18/A
      07425  226060001000            VFD     O18/226060,18/B
      07426  636060001400            VFD     O18/636060,18/T
      07427  434623002000            VFD     O18/434623,18/LP
      07430  434624005400            VFD     O18/434624,18/LM
      07431  230160003000            VFD     O18/230160,18/C1
      07432  232660003400            VFD     O18/232660,18/CF
      07433  636560004000            VFD     O18/636560,18/TV
      07434  606060000000            VFD     O18/606060,18/0
      07435  0 00000 0 00000         PZE
      07436  246360005000            VFD     O18/246360,18/DT
      07437  262660006000            VFD     O18/262660,18/FF
      07440  0 00000 0 00014  ACODE  PZE     12
                                             LETTER CODE FOR LITERALS
      07441  260000047445            VFD     O6/26,30/TTB
      07442  420000070675            VFD     O6/42,30/CABC
      07443  650000072737            VFD     O6/65,30/CMST
      07444  0 00000 0 00003  LCODE  PZE     3
                                             JUMP CODE FOR DEFINITIONS
      07445  000000004450            BCD 10000MQ
      07446  000000002123            BCD 10000AC
      07447  000000002263            BCD 10000BT
      07450  000000002163            BCD 10000AT
      07451  000000000000            BCD 1000000
      07452  000000004321            BCD 10000LA
      07453  0 00000 0 00006  JCODE  PZE     6
                                             EXIT CODE FOR DEFINITIONS
      07454  006036212360            VFD     18/ACXT,O18/212360
      07455  006032445060            VFD     18/MQXT,O18/445060
      07456  006056212123            VFD     18/AACXT,O18/212123
      07457  006077222123            VFD     18/BACXT,O18/222123
      07460  006030716060            VFD     18/ZXT,O18/716060
      07461  006050625060            VFD     18/SQXT,O18/625060
      07462  006054432123            VFD     18/LACXT,O18/432123
      07463  006034212350            VFD     18/ACMQXT,O18/212350
      07464  0 00000 0 00010  EXCODE PZE     8
1                    MAD III FOR CTSS ... R M GRAHAM ... MAR 1964                03/15/69 1117.9 PAGE 70

                                             BUFFERED I/O ROUTINES
                                     HEAD    P

                              *
                       00550  (W     SYN     0$(W
                       00556  AQ0    SYN     0$AQ0
                       00553  PQ4    SYN     0$PQ4
                       00571  PQ1    SYN     0$PQ1
                       00634  MQA    SYN     0$MQA
                              *
                              *
      07465  0101 00 0 00533  OPEN   TIA     0$H5
      07466  0101 00 0 00546  (BUFFR TIA     0$H16
      07467  0101 00 0 00545  FWAIT  TIA     0$H15
                              *
                              *
                              *BFOPEN.(STATUS,NAME1,NAME2,BUFF1(N),(BUFF2(N)),(BUFF3(N)),MODE,ERR)
                              *
                              *
                              *
      07470  0634 00 1 07610  BFOPEN SXA     XR1,1
      07471  0634 00 2 07611         SXA     XR2,2
      07472  0634 00 4 07612         SXA     XR4,4
      07473  0500 00 4 00010         CLA     8,4
      07474  0621 00 0 10231         STA     ERRET
      07475 -0500 60 4 00007         CAL*    7,4
      07476  0602 00 0 07635         SLW     MODE
      07477  0534 00 1 10264         LXA     TSPACE,1
      07500  0774 00 2 00001         AXT     1,2     ERRCOD 1 IF NONE LEFT
      07501 -3 00000 1 10225         TXL     (ERR0,1,0      ERR=NO MORE ROOM IN TABLE
      07502  0500 60 4 00001         CLA*    1,4
      07503  0601 00 0 07634         STO     STATUS
      07504  0402 00 0 00550         SUB     (W            IF STATUS CORRECT
      07505  0601 00 0 10255         STO     READ          =0 FOR WRITE     =NON-0 FOR READ
      07506  0100 00 0 07510         TZE     INIT
      07507  0500 00 0 00556         CLA AQ0
      07510  0601 00 1 10351  INIT   STO     TABLE+TABSIZ+3,1  +FOR READ     -FOR WRITE
      07511  0601 00 1 10352         STO     TABLE+TABSIZ+4,1
      07512  0601 00 1 10353         STO     TABLE+TABSIZ+5,1
      07513  0500 60 4 00002         CLA*    2,4
      07514  0601 00 0 10262         STO     NAME1
      07515  0560 60 4 00003         LDQ*    3,4
      07516 -0600 00 0 10263         STQ     NAME2
      07517  0074 00 4 10232         TSX     GETFIL,4
      07520  0020 00 0 07521         TRA     *+1
      07521  0601 00 1 10347         STO     TABLE+TABSIZ+1,1
      07522 -0600 00 1 10350         STQ     TABLE+TABSIZ+2,1
      07523  0534 00 4 07612         LXA     XR4,4
      07524  0774 00 2 00002         AXT     2,2     ERRCOD 2 IF NOT ENOUGH BUFFERS GIVEN
      07525  0500 60 4 00004         CLA*    4,4
      07526  0120 00 0 07530         TPL     ARG4
      07527  0100 00 0 10225         TZE     (ERR0          ERR=NO BUFFERS SPECIFIED
      07530  0500 00 4 00004  ARG4   CLA     4,4           BUFF1
      07531  0621 00 1 10351         STA     TABLE+TABSIZ+3,1
      07532  0500 60 4 00005         CLA*    5,4
      07533  0120 00 0 07540         TPL     ARG5
1                    MAD III FOR CTSS ... R M GRAHAM ... MAR 1964                03/15/69 1117.9 PAGE 71

      07534 -0100 00 0 07540         TNZ     ARG5
      07535 -0520 00 0 10255         NZT     READ
      07536  0020 00 0 10225         TRA     (ERR0          ERR=NEED MORE BUFFS FOR WRITE
      07537  0020 00 0 07556         TRA     OPN
      07540  0500 00 4 00005  ARG5   CLA     5,4
      07541 -0520 00 0 10255         NZT     READ
      07542  0020 00 0 07545         TRA     ARG6
      07543  0621 00 1 10352         STA     TABLE+TABSIZ+4,1  READ BUFF2
      07544  0020 00 0 07556         TRA     OPN
      07545  0500 60 4 00006  ARG6   CLA*    6,4
      07546  0120 00 0 07552         TPL     ARG7
      07547 -0100 00 0 07552         TNZ     ARG7
      07550  0500 00 4 00005         CLA     5,4
      07551  0020 00 0 07555         TRA     OPN-1
      07552  0500 00 4 00005  ARG7   CLA     5,4
      07553  0621 00 1 10352         STA     TABLE+TABSIZ+4,1  WRITE BUFF2
      07554  0500 00 4 00006         CLA     6,4
      07555  0621 00 0 07604         STA     SYSBUF
      07556  0074 00 4 07465  OPN    TSX     OPEN,4
      07557  3 00000 0 07634         TXH     STATUS
      07560  3 00000 0 10262         TXH     NAME1
      07561  3 00000 0 10263         TXH     NAME2
      07562  3 00000 0 07635         TXH     MODE
      07563  3 00000 0 00553         TXH     PQ4
      07564  3 00000 0 10226         TXH     (ERR
      07565 -0520 00 0 10255         NZT     READ
      07566  0020 00 0 07601         TRA     ASGNBF
                              *
      07567  0774 00 4 07614  FILLBF AXT     (EOF,4
      07570  0634 00 4 10220         SXA     EOFRET,4
      07571  0600 00 0 10253         STZ     BUFPTR        FILL BUFFER1
      07572  0500 00 1 10351  FILL1  CLA     TABLE+TABSIZ+3,1
      07573  0074 00 4 10202         TSX     SYSIO,4
      07574  0500 00 1 10352  FILL2  CLA     TABLE+TABSIZ+4,1
      07575  0100 00 0 07606         TZE     OPNRET
      07576 -0625 00 0 10253         STL     BUFPTR        FILL BUFFER 2
      07577  0074 00 4 10202         TSX     SYSIO,4
      07600  0020 00 0 07606         TRA     OPNRET
                              *
      07601  0074 00 4 07466  ASGNBF TSX     (BUFFR,4
      07602  3 00000 0 10262         TXH     NAME1
      07603  3 00000 0 10263         TXH     NAME2
      07604  3 00660 0 00000  SYSBUF TXH     **,,BUFSIZ
      07605  3 00000 0 10226         TXH     (ERR
      07606  1 77773 1 07607  OPNRET TXI     *+1,1,-5
      07607  0634 00 1 10264  CMNXIT SXA     TSPACE,1
      07610  0774 00 1 00000  XR1    AXT     **,1
      07611  0774 00 2 00000  XR2    AXT     **,2
      07612  0774 00 4 00000  XR4    AXT     **,4
      07613  0020 00 4 00001         TRA     1,4
                              *
                              *
      07614  0500 00 0 10254  (EOF   CLA     EOFCT
      07615 -0100 00 0 07624         TNZ     (EOF1
      07616  0774 00 4 00660         AXT     BUFSIZ,4
      07617 -0754 00 4 00000         PXD     0,4
1                    MAD III FOR CTSS ... R M GRAHAM ... MAR 1964                03/15/69 1117.9 PAGE 72

      07620 -0520 00 0 10253         NZT     BUFPTR
      07621  0622 00 1 10351         STD     TABLE+TABSIZ+3,1      LAST WORD IN BUFFER 1
      07622  0771 00 0 00022         ARS     18                     AND MARK EOF AT LAST
      07623  0020 00 0 07626         TRA     (EOF1+2
      07624  0520 00 0 10253  (EOF1  ZET     BUFPTR
      07625  0767 00 0 00022         ALS     18
      07626  0601 00 1 10353         STO     TABLE+TABSIZ+5,1
      07627  0074 00 4 07467         TSX     FWAIT,4       WAIT UNTIL FULL
      07630  3 00000 0 10262         TXH     NAME1
      07631  3 00000 0 10263         TXH     NAME2
      07632  3 00000 0 10226         TXH     (ERR
      07633  0020 00 0 07606         TRA     OPNRET
      07634                   STATUS BSS     1
      07635                   MODE   BSS     1
      07636 +000000000660     BSIZ   DEC     432     SIZE OF RECORD AND BUFFER
                              *
                              *
                              *
                              *BFREAD.ORBFWRIT.(NAME1,NAME2,BLOCK(N)...N,EOF,EOFCT,ERR)
                              *
                              *
                              *
      07637  0101 00 0 00534  RDFILE TIA     0$H6
      07640  0101 00 0 00535  WRFILE TIA     0$H7
      07641  0101 00 0 00536  RDWAIT TIA     0$H8
      07642  0101 00 0 00537  WRWAIT TIA     0$H9
      07643 -0625 00 0 10255  BFREAD STL     READ
      07644  0020 00 0 07646         TRA     SAVXRS
                              *
      07645  0600 00 0 10255  BFWRIT STZ     READ
                              *
      07646  0634 00 1 07610  SAVXRS SXA     XR1,1
      07647  0634 00 2 07611         SXA     XR2,2
      07650  0634 00 4 07612         SXA     XR4,4
      07651  0500 00 4 00006         CLA     6,4
      07652  0621 00 0 10231         STA     ERRET
      07653  0500 60 4 00001         CLA*    1,4
      07654  0601 00 0 10262         STO     NAME1
      07655  0560 60 4 00002         LDQ*    2,4
      07656 -0600 00 0 10263         STQ     NAME2
      07657  0774 00 2 00003         AXT     3,2     ERRCOD 3 IF FILE NOT OPEN
      07660  0074 00 4 10232         TSX     GETFIL,4
      07661  0020 00 0 10225         TRA     (ERR0          ERR= FILE N1 N2 NOT OPEN
      07662  0500 00 1 10352         CLA     TABLE+TABSIZ+4,1  ARE WE IN BUFFER 2
      07663 -0737 00 2 00000         PDC     0,2
      07664  0634 00 2 10253         SXA     BUFPTR,2
      07665  3 00000 2 07670         TXH     *+3,2,0
      07666  0500 00 1 10351         CLA     TABLE+TABSIZ+3,1
      07667 -0737 00 2 00000         PDC     0,2
      07670  0636 00 2 10100         SCA     BUFFCT,2
      07671  0534 00 4 07612         LXA     XR4,4
      07672  0774 00 2 00004         AXT     4,2     ERRCOD 4
      07673 -0520 00 0 10255         NZT     READ
      07674  0020 00 0 07706         TRA     TESTWR
      07675 -0120 00 0 10225  TESTRD TMI     (ERR0          ERR=TRYING TO READ A WRITE FILE
      07676  0621 00 0 07751         STA     (TAKE          BUFFER ADDR
1                    MAD III FOR CTSS ... R M GRAHAM ... MAR 1964                03/15/69 1117.9 PAGE 73

      07677  0500 00 0 07612         CLA     XR4
      07700  0625 00 0 07751         STT     (TAKE
      07701  0500 00 0 07611         CLA XR2
      07702  0625 00 0 07752         STT     GIVE
      07703  0500 00 4 00003         CLA     3,4
      07704  0621 00 0 07752         STA     GIVE          BLOCK ADDR
      07705  0020 00 0 07716         TRA    TESTWC
                              *
      07706  0120 00 0 10225  TESTWR TPL     (ERR0          ERR=TRYING TO WRITE A READ FILE
      07707  0621 00 0 07752         STA     GIVE          BUFFER ADDR
      07710  0500 00 0 07612         CLA     XR4
      07711  0625 00 0 07752         STT     GIVE
      07712  0500 00 0 07611         CLA XR2               TAKE FROM CALLER NO. WORDS COUNTED IN XR2
      07713  0625 00 0 07751         STT     (TAKE
      07714  0500 00 4 00003         CLA     3,4
      07715  0621 00 0 07751         STA     (TAKE          BLOCK ADDR
                              *
      07716 -0737 00 2 00000  TESTWC PDC     0,2           WORD COUNT
      07717 -0320 00 0 00571         ANA     PQ1
      07720 -0100 00 0 07723         TNZ     *+3           FAP CALL
      07721  0500 00 2 00000         CLA     0,2           MAD CALL
      07722  0737 00 2 00000         PAC     0,2
      07723 -3 00000 2 10071         TXL     RSTXRS,2,0    NO TRANSMISSION IF WC=0
      07724  0535 00 4 10100         LAC     BUFFCT,4
      07725  0600 00 0 10254         STZ     EOFCT
      07726  0500 00 1 10353         CLA     TABLE+TABSIZ+5,1
      07727  0520 00 0 10253         ZET     BUFPTR
      07730  0771 00 0 00022         ARS     18
      07731 -0320 00 0 00634         ANA     MQA
      07732  0100 00 0 07745         TZE     XCHNGE        NO EOFCT.BUFFER FULL.
      07733 -0400 00 0 10100         SBM     BUFFCT        ARE NO. OF WORDS LEFT IN BUFFER
      07734  0131 00 0 00000         XCA
      07735  0756 00 2 00000         PCA     0,2           WC
      07736  0040 00 0 07740  TSTEOF TLQ     MRKEOF
      07737  0020 00 0 07745         TRA     XCHNGE        GRTR OR EQL TO NO. ASKED FOR
      07740 -0600 00 0 10254  MRKEOF STQ     EOFCT         LESS THAN NO. ASKED FOR
      07741  0535 00 2 10254         LAC     EOFCT,2       NEW WC
      07742  3 00000 2 07745         TXH     XCHNGE,2,0
      07743 -0634 00 1 10254         SXD     EOFCT,1
      07744  0020 00 0 10064         TRA     RETURN
      07745 -0634 00 2 07755  XCHNGE SXD     GIVE+3,2
      07746  0774 00 2 00000         AXT     0,2
      07747 -3 00000 4 07751         TXL     *+2,4,0
      07750 -3 77120 4 07757         TXL     CHNGBF,4,-BUFSIZ
      07751  0500 00 0 00000  (TAKE  CLA     **,0
      07752  0601 00 0 00000  GIVE   STO     **,0
      07753  1 77777 4 07754         TXI     *+1,4,-1
      07754  1 77777 2 07755         TXI     *+1,2,-1
      07755 -3 00000 2 10064         TXL     RETURN,2,**
      07756  3 77120 4 07751         TXH     (TAKE,4,-BUFSIZ
      07757  0500 00 1 10351  CHNGBF CLA     TABLE+TABSIZ+3,1
      07760 -0520 00 1 10352         NZT     TABLE+TABSIZ+4,1
      07761  0020 00 0 07776         TRA     BUFFIO        1 BUFFER-EMPTY(FILL) IT FOR REUSE
      07762 -0520 00 0 10253         NZT     BUFPTR        2 BUFFERS-EMPYT(FILL) THIS ONE
      07763  0500 00 1 10352         CLA     TABLE+TABSIZ+4,1  WHILE USING OTHER
      07764  0520 00 0 10255         ZET     READ
1                    MAD III FOR CTSS ... R M GRAHAM ... MAR 1964                03/15/69 1117.9 PAGE 74

      07765  0621 00 0 07751         STA     (TAKE          READ FROM NEW BUFF
      07766 -0520 00 0 10255         NZT     READ
      07767  0621 00 0 07752         STA     GIVE          WRITE INTO NEW BUFF
      07770  0500 00 1 10351         CLA     TABLE+TABSIZ+3,1
      07771 -0520 00 0 10253         NZT     BUFPTR
      07772  0020 00 0 07775         TRA     *+3
      07773  0500 00 1 10352         CLA     TABLE+TABSIZ+4,1
      07774  0774 00 4 00000         AXT     0,4
      07775  0634 00 4 10253         SXA     BUFPTR,4      POINT TO OTHER BUFFER
      07776  0520 00 1 10353  BUFFIO ZET     TABLE+TABSIZ+5,1  IF NO EOF HIT PREVIOUSLY
      07777  0020 00 0 10010         TRA     HELP
      10000  0774 00 4 10030         AXT     EOF1,4        EMPTY(FILL) BUFFER
      10001  0634 00 4 10220         SXA     EOFRET,4
      10002  0074 00 4 10202         TSX     SYSIO,4
      10003  0774 00 4 00000  CHGBCT AXT     0,4
      10004 -0754 00 0 00000         PXD     0,0
      10005  0622 00 1 10351         STD     TABLE+TABSIZ+3,1
      10006  0622 00 1 10352         STD     TABLE+TABSIZ+4,1
      10007  0020 00 0 07751         TRA     (TAKE
                              *
      10010  0636 00 2 10101  HELP   SCA     WORDCT,2       NO. OF WORDS ALREADY TRANSMITTED
      10011  0500 00 1 10353         CLA     TABLE+TABSIZ+5,1  EOFCT
      10012  0520 00 0 10253         ZET     BUFPTR
      10013  0771 00 0 00022         ARS     18
      10014 -0320 00 0 00634         ANA     MQA
      10015  0100 00 0 10003         TZE     CHGBCT        EOF HIT IN OTHER BUFFER
      10016  0400 00 0 10101         ADD     WORDCT
      10017  0131 00 0 00000         XCA                   NO. OF WORDS WHICH CAN BE TRANSMITTED
      10020 -0535 00 4 07755         LDC     GIVE+3,4
      10021  0754 00 4 00000         PXA     0,4           NO. OF WORDS WHICH SHOULD BE TRANSMITTED
      10022  0040 00 0 10024         TLQ     *+2
      10023  0020 00 0 10003         TRA     CHGBCT
      10024 -0600 00 0 10254         STQ     EOFCT
      10025  0534 00 4 10254         LXA     EOFCT,4
      10026 -0636 00 4 07755         SCD     GIVE+3,4
      10027  0020 00 0 10003         TRA     CHGBCT
                              *
                              *
      10030  0500 00 0 10254  EOF1   CLA     EOFCT
      10031 -0100 00 0 10047         TNZ     EOF2
      10032  0520 00 1 10352         ZET     TABLE+TABSIZ+4,1
      10033  0020 00 0 10036         TRA     EOF01
      10034 -0634 00 1 10254         SXD     EOFCT,1
      10035  0636 00 2 10254         SCA     EOFCT,2
      10036  0774 00 4 00660  EOF01  AXT     BUFSIZ,4
      10037  0754 00 4 00000         PXA     0,4
      10040  0737 00 4 00000         PAC     0,4
      10041  0520 00 0 10253         ZET     BUFPTR
      10042  0767 00 0 00022         ALS     18
      10043  0601 00 1 10353         STO     TABLE+TABSIZ+5,1
      10044 -0520 00 1 10352         NZT     TABLE+TABSIZ+4,1
      10045  0020 00 0 10064         TRA     RETURN
      10046  0020 00 0 10010         TRA     HELP
      10047  0074 00 4 07467  EOF2   TSX     FWAIT,4
      10050  3 00000 0 10262         TXH     NAME1
      10051  3 00000 0 10263         TXH     NAME2
1                    MAD III FOR CTSS ... R M GRAHAM ... MAR 1964                03/15/69 1117.9 PAGE 75

      10052  3 00000 0 10226         TXH     (ERR
      10053  0600 00 0 10254  EOF3   STZ     EOFCT
      10054 -0520 00 1 10352         NZT     TABLE+TABSIZ+4,1
      10055  0020 00 0 10060         TRA     *+3
      10056 -0520 00 0 10253         NZT     BUFPTR        2 BUFFERS-EOF HIT WHILE TRANSM IN OTHER BUF
      10057  0767 00 0 00022         ALS     18
      10060  0601 00 1 10353         STO     TABLE+TABSIZ+5,1
      10061 -0520 00 1 10352         NZT     TABLE+TABSIZ+4,1
      10062  0020 00 0 10010         TRA     HELP
      10063  0020 00 0 10003         TRA     CHGBCT
                              *
                              *
      10064 -0756 00 4 00000  RETURN PCD     0,4
      10065  0520 00 0 10253         ZET     BUFPTR
      10066  0622 00 1 10352         STD     TABLE+TABSIZ+4,1
      10067 -0520 00 0 10253         NZT     BUFPTR
      10070  0622 00 1 10351         STD     TABLE+TABSIZ+3,1
      10071  0534 00 1 07610  RSTXRS LXA     XR1,1
      10072  0534 00 2 07611         LXA     XR2,2
      10073  0534 00 4 07612         LXA     XR4,4
      10074  0500 00 0 10254         CLA     EOFCT
      10075  0100 00 4 00001         TZE     1,4
      10076  0621 60 4 00005         STA*    5,4
      10077  0020 60 4 00004         TRA*    4,4
                              *
      10100  0 00000 0 00000  BUFFCT PZE     0
      10101  0 00000 0 00000  WORDCT PZE     0
                              *
                              *
                              *BFCODE.(0)
                              *
                              *
      10102  0500 00 0 10105  BFCODE CLA     ERRCOD
      10103  0600 00 0 10105         STZ     ERRCOD
      10104  0020 00 4 00001         TRA     1,4
      10105  0 00000 0 00000  ERRCOD PZE     0
                              *
                              *
                              *BFCLOS.(NAME1,NAME2,ERR)
                              *
                              *
                              *
      10106  0101 00 0 00540  CLOSE  TIA     0$H10
      10107  0634 00 1 07610  BFCLOS SXA     XR1,1
      10110  0634 00 2 07611         SXA     XR2,2
      10111  0634 00 4 07612         SXA     XR4,4
      10112  0500 00 4 00003         CLA     3,4
      10113  0621 00 0 10231         STA     ERRET
      10114  0600 00 0 10255         STZ     READ
      10115  0500 60 4 00001         CLA*    1,4
      10116  0560 60 4 00002         LDQ*    2,4
      10117 -0625 00 0 07634         STL     ALL
      10120  0340 00 0 10201         CAS     B3ALL
      10121  0020 00 0 10123         TRA     *+2
      10122  0020 00 0 10167         TRA     CLOSAL
      10123  0340 00 0 00301         CAS     0$ALL
1                    MAD III FOR CTSS ... R M GRAHAM ... MAR 1964                03/15/69 1117.9 PAGE 76

      10124  0020 00 0 10126         TRA     *+2
      10125  0020 00 0 10167         TRA     CLOSAL
      10126  0074 00 4 10232  CLOS1  TSX     GETFIL,4
      10127  0020 00 0 10130         TRA     *+1            ERR=TRYING TO CLOSE A FILE NOT OPENED
      10130  0601 00 0 10262  N1     STO     NAME1
      10131 -0600 00 0 10263  N2     STQ     NAME2
      10132  0774 00 4 10226  FLUSH1 AXT     (ERR,4
      10133  0634 00 4 10220         SXA     EOFRET,4
      10134  0500 00 1 10351         CLA     TABLE+TABSIZ+3,1
      10135  0120 00 0 10147         TPL     CLOSIT
      10136 -0734 00 4 00000         PDX     0,4
      10137 -3 00000 4 10142         TXL     FLUSH2,4,0
      10140 -0634 00 4 10217         SXD     BUFADR,4      TRANSMIT ONLY BUFFCT WORDS
      10141  0074 00 4 10202         TSX     SYSIO,4       WRITE BUFF 1
      10142  0500 00 1 10352  FLUSH2 CLA     TABLE+TABSIZ+4,1
      10143 -0734 00 4 00000         PDX     0,4
      10144 -3 00000 4 10147         TXL     CLOSIT,4,0
      10145 -0634 00 4 10217         SXD     BUFADR,4      TRANSMIT ONLY BUFFCT WORDS
      10146  0074 00 4 10202         TSX     SYSIO,4       WRITE BUFF 2
      10147  0074 00 4 10106  CLOSIT TSX     CLOSE,4
      10150  3 00000 0 10262         TXH     NAME1
      10151  3 00000 0 10263         TXH     NAME2
      10152  3 00000 0 10226         TXH     (ERR
      10153 -0520 00 0 07634         NZT     ALL
      10154  0020 00 0 10174         TRA     GETNXT
      10155  0534 00 4 10264         LXA     TSPACE,4
      10156  1 00005 4 10157         TXI     *+1,4,5
      10157 -0634 00 4 10160         SXD     *+1,4
      10160 -3 00000 1 10164  MOVEUP TXL     FINI,1,**
      10161  0500 00 1 10354         CLA     TABLE+TABSIZ+5+1,1
      10162  0601 00 1 10347         STO     TABLE+TABSIZ+1,1
      10163  1 77777 1 10160         TXI     MOVEUP,1,-1
      10164  0774 00 4 00660  FINI   AXT     BUFSIZ,4
      10165 -0634 00 4 10217         SXD     BUFADR,4
      10166  0020 00 0 07607         TRA     CMNXIT
      10167  0162 00 0 10126  CLOSAL TQP     CLOS1
      10170  0520 60 4 00002         ZET*    2,4
      10171  0020 00 0 10126         TRA     CLOS1
      10172  0600 00 0 07634         STZ     ALL
      10173  0534 00 1 10264         LXA     TSPACE,1
      10174  3 00061 1 10164  GETNXT TXH     FINI,1,TABSIZ-1
      10175  1 00005 1 10176         TXI     *+1,1,5
      10176  0500 00 1 10347         CLA     TABLE+TABSIZ+1,1
      10177  0560 00 1 10350         LDQ     TABLE+TABSIZ+2,1
      10200  0020 00 0 10130         TRA     N1
                              *
                       07634  ALL    SYN     STATUS
      10201  606060214343     B3ALL  BCI     1,   ALL
1                    MAD III FOR CTSS ... R M GRAHAM ... MAR 1964                03/15/69 1117.9 PAGE 77
                           INTERNAL SUBROUTINES

                              *
                              *
                              *      TSX     SYSIO,4       READ=0 FOR READ NON-0 FOR WRITE
                              *                            EOFRET MUST BE SET
                              *                            BUFFER ADDR MUST BE IN ADDR OF AC
                              *
      10202  0634 00 4 10223  SYSIO  SXA     IORTN,4
      10203  0621 00 0 10217         STA     BUFADR
      10204 -0774 00 4 00000         AXC     0,4
      10205 -0520 00 1 10352         NZT     TABLE+TABSIZ+4,1
      10206 -0774 00 4 00002         AXC     2,4
      10207  0500 00 4 10256         CLA     XMTFIL,4
      10210 -0520 00 0 10255         NZT     READ
      10211  0500 00 4 10257         CLA     XMTFIL+1,4
      10212  0621 00 0 10213         STA     *+1
      10213  0074 00 4 00000  IOSUBR TSX     **,4
      10214  3 00000 0 10262         TXH     NAME1
      10215  3 00000 0 10263         TXH     NAME2
      10216  3 00000 0 00556         TXH     AQ0
      10217  3 00660 0 00000  BUFADR TXH     **,,BUFSIZ
      10220  3 00000 0 00000  EOFRET TXH     **
      10221  3 00000 0 10254         TXH     EOFCT
      10222  3 00000 0 10226         TXH     (ERR
      10223  0774 00 4 00000  IORTN  AXT     **,4
      10224  0020 00 4 00001         TRA     1,4
                              *
      10225  0634 00 2 10105  (ERR0  SXA     ERRCOD,2
      10226  0534 00 1 07610  (ERR   LXA     XR1,1
      10227  0534 00 2 07611         LXA     XR2,2
      10230  0534 00 4 07612         LXA     XR4,4
      10231  0020 00 0 00000  ERRET  TRA     **
                              *
                              *
                              *      TSX     GETFIL,4      N1 N2 MUST BE IN ARITHM. AC AND MQ
                              *      TRA     1,4           N1 N2 NOT IN TABLE
                              *      TRA     2,4           N1 N2 IN TABLE
                              *                            C(XR1)-TABSIZ=PTR TO N1 N2 OR NEXT EMPTY
                              *                                   LOC IN TABLE
                              *
      10232  0534 00 1 10264  GETFIL LXA     TSPACE,1
      10233 -0634 00 1 10235         SXD     FINDN1,1
      10234  0774 00 1 00062         AXT     TABSIZ,1
      10235 -3 00000 1 10242  FINDN1 TXL     RTN2,1,**     IF MORE ENTRIES IN TABLE
      10236  0340 00 1 10347         CAS     TABLE+TABSIZ+1,1  TRY TO FIND N1
      10237  0020 00 0 10241         TRA     *+2
      10240  0020 00 0 10243         TRA     FINDN2
      10241  2 00005 1 10235         TIX     FINDN1,1,5
      10242  0020 00 4 00001  RTN2   TRA     1,4           N1 N2 NOT FOUND
      10243  0131 00 0 00000  FINDN2 XCA
      10244  0340 00 1 10350         CAS     TABLE+TABSIZ+2,1
      10245  0020 00 0 10247         TRA     *+2
      10246  0020 00 0 10251         TRA     RTN1
      10247  0131 00 0 00000         XCA
      10250  0020 00 0 10241         TRA     RTN2-1
      10251  0131 00 0 00000  RTN1   XCA
1                    MAD III FOR CTSS ... R M GRAHAM ... MAR 1964                03/15/69 1117.9 PAGE 78
                           INTERNAL SUBROUTINES

      10252  0020 00 4 00002         TRA     2,4           N1 N2 FOUND
                              *
                              *
                       00062  TABSIZ EQU     5*10
                       00660  BUFSIZ EQU     432
                              *
      10253  0 00000 0 00000  BUFPTR PZE     0
      10254  0 00000 0 00000  EOFCT  PZE     0
      10255  0 00000 0 00000  READ   PZE     0
      10256  0 00000 0 07637  XMTFIL PZE     RDFILE        1
      10257  0 00000 0 07640         PZE     WRFILE        2
      10260  0 00000 0 07641         PZE     RDWAIT        3
      10261  0 00000 0 07642         PZE     WRWAIT        THESE 4 MUST BE IN ORDER
      10262                   NAME1  BSS     1
      10263                   NAME2  BSS     1
                              *
      10264                   TSPACE BSS     0
      10264  0 00000 0 00062  TABLE  PZE     TABSIZ
      10265                          BSS     TABSIZ
1                    MAD III FOR CTSS ... R M GRAHAM ... MAR 1964                03/15/69 1117.9 PAGE 79
                           INTERNAL SUBROUTINES

                                             TRANSLATED SEQUENCES

                                     HEAD    0

      10657                   OPMD   BES     PPOPMD        2 ENTRIES, 0+OP+MODE A + MODE B
      10657  0 00066 0 00310         PZE     PPOPMD,,OPMD-OPMDF
                                                           OR  0+MODEB+MODEA+ENTRY
                                                           OR  TXL+0+0+ENTRY


                                             OPERATION-MODE TABLE

                       00000  Z      EQU     0
                       00000  F      EQU     0
                       00001  X      EQU     1
                       00002  BN     EQU     2
                       00003  FN     EQU     3
                       00004  ST     EQU     4
                       00005  M5     EQU     5
                       00006  M6     EQU     6
                       00007  M7     EQU     7

                              CTXA   MACRO   OPN,MODEA,MODEB,MRB,MRA,ENTRY
                                     VFD     9/OPN,3/MODEA,3/MODEB,3/MRB,3/MRA,15/ENTRY
                              CTXA   END
                              CTXB   MACRO   OPN,MODEA,MODEB,ENTRY
                                     VFD     9/OPN,3/MODEA,3/MODEB,O6/70,15/ENTRY
                              CTXB   END

                       00001  PLUS   EQU 1
                       00002  MINUS  EQU 2
                       00003  MPY    EQU 3
                       00004  DIV    EQU 4
                       00005  STOR   EQU 5
                       00010  EQV    EQU 8
                       00012  ABS    EQU 10
                       00013  P      EQU 11
                       00014  EXOR   EQU 12
                       00015  E      EQU 13
                       00016  NE     EQU 14
                       00017  G      EQU 15
                       00020  GE     EQU 16
                       00021  L      EQU 17
                       00022  LE     EQU 18
                       00024  SUB    EQU 20
                       00025  TAG    EQU 21
                       00027  FCN    EQU 23
                       00030  PAR    EQU 24
                       00031  TRA    EQU 25
                       00032  HALT   EQU 26
                       00033  MTX2   EQU 27
                       00034  DICT   EQU 28
                       00035  DIF    EQU 29
                       00036  DEF    EQU 30
                       00037  FLD    EQU 31
1                    MAD III FOR CTSS ... R M GRAHAM ... MAR 1964                03/15/69 1117.9 PAGE 80
                           INTERNAL SUBROUTINES

                       00040  PAR2   EQU 32
                       00041  SAVLC  EQU 33
                       00042  RSTLC  EQU 34
                       00043  RTN    EQU 35
                       00044  ERR    EQU 36
                       00045  NEG    EQU 37
                       00046  FEND   EQU 38
                       00047  CONST  EQU 39
                       00050  IFBGN  EQU 40
                       00051  STA    EQU 41
                       00056  IOPAR  EQU 46
                       00057  BCDOP  EQU     47
                       00060  GENZER EQU 48
                       00061  ORA    EQU     49
                       00062  EFETY  EQU 50
                       00064  EFBGN  EQU 52
                       00065  ANA    EQU     53
                       00066  COM    EQU     54
                       00067  LS     EQU     55
                       00070  RS     EQU     56
                       00071  GENONE EQU 57
                       00072  STD    EQU 58
                       00073  TAGA   EQU 59
                       00074  IFETY  EQU 60
                       00076  RTNB   EQU 62
                       00077  TXL    EQU 63
                       00100  FMT    EQU 64
                       00101  NFCN   EQU 65
                       00102  PREND  EQU     66
                       00106  ERA    EQU     70
                      000107  PRLG   BOOL    107
                      000110  SRRTN  BOOL    110


                       10347         ORG OPMD-PPOPMD
      10347                          CTXA    PLUS,F,F,Z,F,FPLUS
      10347  001000010705            VFD     9/PLUS,3/F,3/F,3/Z,3/F,15/FPLUS                                  .001
      10350                          CTXA    PLUS,F,X,F,F,FLBS
      10350  001010011403            VFD     9/PLUS,3/F,3/X,3/F,3/F,15/FLBS                                   .001
      10351                          CTXA    PLUS,X,F,F,F,FLAS
      10351  001100011363            VFD     9/PLUS,3/X,3/F,3/F,3/F,15/FLAS                                   .001
      10352                          CTXA    PLUS,X,X,Z,X,XPLUS
      10352  001110110661            VFD     9/PLUS,3/X,3/X,3/Z,3/X,15/XPLUS                                  .001
      10353                          CTXA    MINUS,F,F,Z,F,FMINUS
      10353  002000010756            VFD     9/MINUS,3/F,3/F,3/Z,3/F,15/FMINUS                                .001
      10354                          CTXA    MINUS,F,X,F,F,FLBS
      10354  002010011403            VFD     9/MINUS,3/F,3/X,3/F,3/F,15/FLBS                                  .001
      10355                          CTXA    MINUS,X,F,F,F,FLAS
      10355  002100011363            VFD     9/MINUS,3/X,3/F,3/F,3/F,15/FLAS                                  .001
      10356                          CTXA    MINUS,X,X,Z,X,XMINUS
      10356  002110110731            VFD     9/MINUS,3/X,3/X,3/Z,3/X,15/XMINUS                                .001
      10357                          CTXA    MPY,F,F,Z,F,FMPY
      10357  003000011027            VFD     9/MPY,3/F,3/F,3/Z,3/F,15/FMPY                                    .001
      10360                          CTXA    MPY,F,X,F,F,FLBS
      10360  003010011403            VFD     9/MPY,3/F,3/X,3/F,3/F,15/FLBS                                    .001
1                    MAD III FOR CTSS ... R M GRAHAM ... MAR 1964                03/15/69 1117.9 PAGE 81
                           INTERNAL SUBROUTINES

      10361                          CTXA    MPY,X,F,F,F,FLAS
      10361  003100011363            VFD     9/MPY,3/X,3/F,3/F,3/F,15/FLAS                                    .001
      10362                          CTXA    MPY,X,X,Z,X,XMPY
      10362  003110111003            VFD     9/MPY,3/X,3/X,3/Z,3/X,15/XMPY                                    .001
      10363                          CTXA    DIV,F,F,Z,F,FDIV
      10363  004000011074            VFD     9/DIV,3/F,3/F,3/Z,3/F,15/FDIV                                    .001
      10364                          CTXA    DIV,F,X,F,F,FLBS
      10364  004010011403            VFD     9/DIV,3/F,3/X,3/F,3/F,15/FLBS                                    .001
      10365                          CTXA    DIV,X,F,F,F,FLAS
      10365  004100011363            VFD     9/DIV,3/X,3/F,3/F,3/F,15/FLAS                                    .001
      10366                          CTXA    DIV,X,X,Z,X,XDIV
      10366  004110111053            VFD     9/DIV,3/X,3/X,3/Z,3/X,15/XDIV                                    .001
      10367                          CTXA    STOR,F,F,Z,Z,STORS
      10367  005000011173            VFD     9/STOR,3/F,3/F,3/Z,3/Z,15/STORS                                  .001
      10370                          CTXA    STOR,F,X,F,F,FLBS
      10370  005010011403            VFD     9/STOR,3/F,3/X,3/F,3/F,15/FLBS                                   .001
      10371                          CTXA    STOR,F,FN,Z,Z,STORS
      10371  005030011173            VFD     9/STOR,3/F,3/FN,3/Z,3/Z,15/STORS                                 .001
      10372                          CTXA    STOR,X,F,X,X,FXBS
      10372  005101111423            VFD     9/STOR,3/X,3/F,3/X,3/X,15/FXBS                                   .001
      10373                          CTXA    STOR,X,X,Z,Z,STORS
      10373  005110011173            VFD     9/STOR,3/X,3/X,3/Z,3/Z,15/STORS                                  .001
      10374                          CTXA    STOR,X,FN,Z,Z,STORS
      10374  005130011173            VFD     9/STOR,3/X,3/FN,3/Z,3/Z,15/STORS                                 .001
      10375                          CTXA    STOR,BN,BN,Z,Z,STORS
      10375  005220011173            VFD     9/STOR,3/BN,3/BN,3/Z,3/Z,15/STORS                                .001
      10376                          CTXA    STOR,FN,FN,Z,Z,STORS
      10376  005330011173            VFD     9/STOR,3/FN,3/FN,3/Z,3/Z,15/STORS                                .001
      10377                          CTXA    STOR,ST,ST,Z,Z,STORS
      10377  005440011173            VFD     9/STOR,3/ST,3/ST,3/Z,3/Z,15/STORS                                .001
      10400                          CTXA    EQV,BN,BN,Z,BN,BEQV
      10400  010220211205            VFD     9/EQV,3/BN,3/BN,3/Z,3/BN,15/BEQV                                 .001
      10401                          CTXA    ABS,Z,F,Z,F,ABSS
      10401  012000011113            VFD     9/ABS,3/Z,3/F,3/Z,3/F,15/ABSS                                    .001
      10402                          CTXA    ABS,Z,X,Z,X,ABSS
      10402  012010111113            VFD     9/ABS,3/Z,3/X,3/Z,3/X,15/ABSS                                    .001
      10403                          CTXA    P,F,F,Z,F,EXPS
      10403  013000011151            VFD     9/P,3/F,3/F,3/Z,3/F,15/EXPS                                      .001
      10404                          CTXA    P,F,X,Z,F,EXPS
      10404  013010011151            VFD     9/P,3/F,3/X,3/Z,3/F,15/EXPS                                      .001
      10405                          CTXA    P,X,F,F,F,FLAS
      10405  013100011363            VFD     9/P,3/X,3/F,3/F,3/F,15/FLAS                                      .001
      10406                          CTXA    P,X,X,Z,X,EXPS
      10406  013110111151            VFD     9/P,3/X,3/X,3/Z,3/X,15/EXPS                                      .001
      10407                          CTXA    EXOR,BN,BN,Z,BN,EXORS
      10407  014220211230            VFD     9/EXOR,3/BN,3/BN,3/Z,3/BN,15/EXORS                               .001
      10410                          CTXA    E,BN,ST,Z,Z,ES
      10410  015240011255            VFD     9/E,3/BN,3/ST,3/Z,3/Z,15/ES                                      .001
      10411                          CTXA    NE,BN,ST,Z,Z,NES
      10411  016240011266            VFD     9/NE,3/BN,3/ST,3/Z,3/Z,15/NES                                    .001
      10412                          CTXA    G,BN,ST,Z,Z,GS
      10412  017240011277            VFD     9/G,3/BN,3/ST,3/Z,3/Z,15/GS                                      .001
      10413                          CTXA    GE,BN,ST,Z,Z,GES
      10413  020240011314            VFD     9/GE,3/BN,3/ST,3/Z,3/Z,15/GES                                    .001
      10414                          CTXA    L,BN,ST,Z,Z,LSQ
1                    MAD III FOR CTSS ... R M GRAHAM ... MAR 1964                03/15/69 1117.9 PAGE 82
                           INTERNAL SUBROUTINES

      10414  021240011331            VFD     9/L,3/BN,3/ST,3/Z,3/Z,15/LSQ                                     .001
      10415                          CTXA    LE,BN,ST,Z,Z,LES
      10415  022240011346            VFD     9/LE,3/BN,3/ST,3/Z,3/Z,15/LES                                    .001
      10416                          CTXA    SUB,F,F,X,F,FXBS
      10416  024001011423            VFD     9/SUB,3/F,3/F,3/X,3/F,15/FXBS                                    .001
      10417                          CTXA    SUB,F,X,Z,F,SUBS
      10417  024010011457            VFD     9/SUB,3/F,3/X,3/Z,3/F,15/SUBS                                    .001
      10420                          CTXA    SUB,X,F,X,X,FXBS
      10420  024101111423            VFD     9/SUB,3/X,3/F,3/X,3/X,15/FXBS                                    .001
      10421                          CTXA    SUB,X,X,Z,X,SUBS
      10421  024110111457            VFD     9/SUB,3/X,3/X,3/Z,3/X,15/SUBS                                    .001
      10422                          CTXA    SUB,BN,X,Z,BN,SUBS
      10422  024210211457            VFD     9/SUB,3/BN,3/X,3/Z,3/BN,15/SUBS                                  .001
      10423                          CTXA    SUB,FN,X,Z,FN,SUBS
      10423  024310311457            VFD     9/SUB,3/FN,3/X,3/Z,3/FN,15/SUBS                                  .001
      10424                          CTXA    SUB,ST,X,Z,ST,SUBS
      10424  024410411457            VFD     9/SUB,3/ST,3/X,3/Z,3/ST,15/SUBS                                  .001
      10425                          CTXA    TAG,Z,F,X,Z,FXBS
      10425  025001011423            VFD     9/TAG,3/Z,3/F,3/X,3/Z,15/FXBS                                    .001
      10426                          CTXA    TAG,Z,X,Z,Z,TAGS
      10426  025010011444            VFD     9/TAG,3/Z,3/X,3/Z,3/Z,15/TAGS                                    .001
      10427                          CTXA    FCN,Z,F,Z,F,FCNS
      10427  027000011561            VFD     9/FCN,3/Z,3/F,3/Z,3/F,15/FCNS                                    .001
      10430                          CTXA    FCN,Z,X,Z,X,FCNS
      10430  027010111561            VFD     9/FCN,3/Z,3/X,3/Z,3/X,15/FCNS                                    .001
      10431                          CTXA    FCN,Z,BN,Z,BN,FCNS
      10431  027020211561            VFD     9/FCN,3/Z,3/BN,3/Z,3/BN,15/FCNS                                  .001
      10432                          CTXA    FCN,Z,FN,Z,FN,FCNS
      10432  027030311561            VFD     9/FCN,3/Z,3/FN,3/Z,3/FN,15/FCNS                                  .001
      10433                          CTXA    FCN,Z,ST,Z,ST,FCNS
      10433  027040411561            VFD     9/FCN,3/Z,3/ST,3/Z,3/ST,15/FCNS                                  .001
      10434                          CTXA    FCN,Z,M5,Z,M5,FCNS
      10434  027050511561            VFD     9/FCN,3/Z,3/M5,3/Z,3/M5,15/FCNS                                  .001
      10435                          CTXA    FCN,Z,M6,Z,M6,FCNS
      10435  027060611561            VFD     9/FCN,3/Z,3/M6,3/Z,3/M6,15/FCNS                                  .001
      10436                          CTXA    FCN,Z,M7,Z,M7,FCNS
      10436  027070711561            VFD     9/FCN,3/Z,3/M7,3/Z,3/M7,15/FCNS                                  .001
      10437                          CTXA    PAR,Z,F,Z,Z,PARS
      10437  030000011575            VFD     9/PAR,3/Z,3/F,3/Z,3/Z,15/PARS                                    .001
      10440                          CTXA    PAR,Z,X,Z,Z,PARS
      10440  030010011575            VFD     9/PAR,3/Z,3/X,3/Z,3/Z,15/PARS                                    .001
      10441                          CTXA    PAR,Z,BN,Z,Z,PARS
      10441  030020011575            VFD     9/PAR,3/Z,3/BN,3/Z,3/Z,15/PARS                                   .001
      10442                          CTXA    PAR,Z,FN,Z,Z,PARS
      10442  030030011575            VFD     9/PAR,3/Z,3/FN,3/Z,3/Z,15/PARS                                   .001
      10443                          CTXA    PAR,Z,ST,Z,Z,PARS
      10443  030040011575            VFD     9/PAR,3/Z,3/ST,3/Z,3/Z,15/PARS                                   .001
      10444                          CTXA    PAR,Z,M5,Z,Z,PARS
      10444  030050011575            VFD     9/PAR,3/Z,3/M5,3/Z,3/Z,15/PARS                                   .001
      10445                          CTXA    PAR,Z,M6,Z,Z,PARS
      10445  030060011575            VFD     9/PAR,3/Z,3/M6,3/Z,3/Z,15/PARS                                   .001
      10446                          CTXA    PAR,Z,M7,Z,Z,PARS
      10446  030070011575            VFD     9/PAR,3/Z,3/M7,3/Z,3/Z,15/PARS                                   .001
      10447                          CTXA    TRA,Z,ST,Z,Z,TRAS
      10447  031040011552            VFD     9/TRA,3/Z,3/ST,3/Z,3/Z,15/TRAS                                   .001
1                    MAD III FOR CTSS ... R M GRAHAM ... MAR 1964                03/15/69 1117.9 PAGE 83
                           INTERNAL SUBROUTINES

      10450                          CTXA    HALT,Z,Z,Z,Z,HALTS
      10450  032000011556            VFD     9/HALT,3/Z,3/Z,3/Z,3/Z,15/HALTS                                  .001
      10451                          CTXA    HALT,Z,ST,Z,Z,HALTS
      10451  032040011556            VFD     9/HALT,3/Z,3/ST,3/Z,3/Z,15/HALTS                                 .001
      10452                          CTXA    MTX2,X,Z,Z,X,MTX2S
      10452  033100111642            VFD     9/MTX2,3/X,3/Z,3/Z,3/X,15/MTX2S                                  .001
      10453                          CTXA    MTX2,X,X,Z,X,MTX2S
      10453  033110111642            VFD     9/MTX2,3/X,3/X,3/Z,3/X,15/MTX2S                                  .001
      10454                          CTXB    DICT,Z,ST,DICTS
      10454  034047006107            VFD     9/DICT,3/Z,3/ST,O6/70,15/DICTS                                   .001
      10455                          CTXA    DIF,F,F,Z,BN,XMINUS
      10455  035000210731            VFD     9/DIF,3/F,3/F,3/Z,3/BN,15/XMINUS                                 .001
      10456                          CTXA    DIF,F,X,F,F,FLBS
      10456  035010011403            VFD     9/DIF,3/F,3/X,3/F,3/F,15/FLBS                                    .001
      10457                          CTXA    DIF,X,F,F,F,FLAS
      10457  035100011363            VFD     9/DIF,3/X,3/F,3/F,3/F,15/FLAS                                    .001
      10460                          CTXA    DIF,X,X,Z,BN,XMINUS
      10460  035110210731            VFD     9/DIF,3/X,3/X,3/Z,3/BN,15/XMINUS                                 .001
      10461                          CTXA    DIF,BN,BN,Z,BN,XMINUS
      10461  035220210731            VFD     9/DIF,3/BN,3/BN,3/Z,3/BN,15/XMINUS                               .001
      10462                          CTXA    DIF,FN,FN,Z,BN,XMINUS
      10462  035330210731            VFD     9/DIF,3/FN,3/FN,3/Z,3/BN,15/XMINUS                               .001
      10463                          CTXA    DIF,ST,ST,Z,BN,XMINUS
      10463  035440210731            VFD     9/DIF,3/ST,3/ST,3/Z,3/BN,15/XMINUS                               .001
      10464                          CTXB    FLD,Z,ST,FLDS
      10464  037047006120            VFD     9/FLD,3/Z,3/ST,O6/70,15/FLDS                                     .001
      10465                          CTXA    PAR2,F,F,Z,Z,PAR2S
      10465  040000011604            VFD     9/PAR2,3/F,3/F,3/Z,3/Z,15/PAR2S                                  .001
      10466                          CTXA    PAR2,Z,X,Z,Z,PAR2S
      10466  040010011604            VFD     9/PAR2,3/Z,3/X,3/Z,3/Z,15/PAR2S                                  .001
      10467                          CTXA    PAR2,Z,BN,Z,Z,PAR2S
      10467  040020011604            VFD     9/PAR2,3/Z,3/BN,3/Z,3/Z,15/PAR2S                                 .001
      10470                          CTXA    PAR2,X,Z,Z,Z,PAR2S
      10470  040100011604            VFD     9/PAR2,3/X,3/Z,3/Z,3/Z,15/PAR2S                                  .001
      10471                          CTXA    PAR2,X,X,Z,Z,PAR2S
      10471  040110011604            VFD     9/PAR2,3/X,3/X,3/Z,3/Z,15/PAR2S                                  .001
      10472                          CTXA    PAR2,BN,Z,Z,Z,PAR2S
      10472  040200011604            VFD     9/PAR2,3/BN,3/Z,3/Z,3/Z,15/PAR2S                                 .001
      10473                          CTXA    PAR2,BN,BN,Z,Z,PAR2S
      10473  040220011604            VFD     9/PAR2,3/BN,3/BN,3/Z,3/Z,15/PAR2S                                .001
      10474                          CTXA    PAR2,M5,M5,Z,Z,PAR2S
      10474  040550011604            VFD     9/PAR2,3/M5,3/M5,3/Z,3/Z,15/PAR2S                                .001
      10475                          CTXA    PAR2,M6,M6,Z,Z,PAR2S
      10475  040660011604            VFD     9/PAR2,3/M6,3/M6,3/Z,3/Z,15/PAR2S                                .001
      10476                          CTXA    PAR2,M7,M7,Z,Z,PAR2S
      10476  040770011604            VFD     9/PAR2,3/M7,3/M7,3/Z,3/Z,15/PAR2S                                .001
      10477                          CTXB    SAVLC,Z,F,SAVLCS
      10477  041007006135            VFD     9/SAVLC,3/Z,3/F,O6/70,15/SAVLCS                                  .001
      10500                          CTXB    SAVLC,Z,X,SAVLCS
      10500  041017006135            VFD     9/SAVLC,3/Z,3/X,O6/70,15/SAVLCS                                  .001
      10501                          CTXB    SAVLC,Z,BN,SAVLCS
      10501  041027006135            VFD     9/SAVLC,3/Z,3/BN,O6/70,15/SAVLCS                                 .001
      10502                          CTXB    SAVLC,Z,FN,SAVLCS
      10502  041037006135            VFD     9/SAVLC,3/Z,3/FN,O6/70,15/SAVLCS                                 .001
      10503                          CTXB    SAVLC,Z,ST,SAVLCS
1                    MAD III FOR CTSS ... R M GRAHAM ... MAR 1964                03/15/69 1117.9 PAGE 84
                           INTERNAL SUBROUTINES

      10503  041047006135            VFD     9/SAVLC,3/Z,3/ST,O6/70,15/SAVLCS                                 .001
      10504                          CTXB    RSTLC,Z,Z,RSTLCS
      10504  042007006142            VFD     9/RSTLC,3/Z,3/Z,O6/70,15/RSTLCS                                  .001
      10505                          CTXA    RTN,ST,Z,Z,Z,RTNS
      10505  043400011615            VFD     9/RTN,3/ST,3/Z,3/Z,3/Z,15/RTNS                                   .001
      10506                          CTXA    ERR,ST,Z,Z,Z,ERRS
      10506  044400011617            VFD     9/ERR,3/ST,3/Z,3/Z,3/Z,15/ERRS                                   .001
      10507                          CTXA    NEG,Z,F,Z,F,NEGS
      10507  045000011132            VFD     9/NEG,3/Z,3/F,3/Z,3/F,15/NEGS                                    .001
      10510                          CTXA    NEG,Z,X,Z,X,NEGS
      10510  045010111132            VFD     9/NEG,3/Z,3/X,3/Z,3/X,15/NEGS                                    .001
      10511                          CTXB    FEND,Z,ST,FENDS
      10511  046047006240            VFD     9/FEND,3/Z,3/ST,O6/70,15/FENDS                                   .001
      10512                          CTXB    IFBGN,Z,Z,IFBGNS
      10512  050007006146            VFD     9/IFBGN,3/Z,3/Z,O6/70,15/IFBGNS                                  .001
      10513                          CTXA    STA,ST,X,Z,Z,STAS
      10513  051410011521            VFD     9/STA,3/ST,3/X,3/Z,3/Z,15/STAS                                   .001
      10514                          CTXA    IOPAR,F,F,Z,Z,IOPARS
      10514  056000011626            VFD     9/IOPAR,3/F,3/F,3/Z,3/Z,15/IOPARS                                .001
      10515                          CTXA    IOPAR,Z,X,Z,Z,IOPARS
      10515  056010011626            VFD     9/IOPAR,3/Z,3/X,3/Z,3/Z,15/IOPARS                                .001
      10516                          CTXA    IOPAR,Z,BN,Z,Z,IOPARS
      10516  056020011626            VFD     9/IOPAR,3/Z,3/BN,3/Z,3/Z,15/IOPARS                               .001
      10517                          CTXA    IOPAR,Z,FN,Z,Z,IOPARS
      10517  056030011626            VFD     9/IOPAR,3/Z,3/FN,3/Z,3/Z,15/IOPARS                               .001
      10520                          CTXA    IOPAR,Z,ST,Z,Z,IOPARS
      10520  056040011626            VFD     9/IOPAR,3/Z,3/ST,3/Z,3/Z,15/IOPARS                               .001
      10521                          CTXA    IOPAR,X,Z,Z,Z,IOPARS
      10521  056100011626            VFD     9/IOPAR,3/X,3/Z,3/Z,3/Z,15/IOPARS                                .001
      10522                          CTXA    IOPAR,X,X,Z,Z,IOPARS
      10522  056110011626            VFD     9/IOPAR,3/X,3/X,3/Z,3/Z,15/IOPARS                                .001
      10523                          CTXA    IOPAR,BN,Z,Z,Z,IOPARS
      10523  056200011626            VFD     9/IOPAR,3/BN,3/Z,3/Z,3/Z,15/IOPARS                               .001
      10524                          CTXA    IOPAR,BN,BN,Z,Z,IOPARS
      10524  056220011626            VFD     9/IOPAR,3/BN,3/BN,3/Z,3/Z,15/IOPARS                              .001
      10525                          CTXA    IOPAR,FN,Z,Z,Z,IOPARS
      10525  056300011626            VFD     9/IOPAR,3/FN,3/Z,3/Z,3/Z,15/IOPARS                               .001
      10526                          CTXA    IOPAR,M5,M5,Z,Z,IOPARS
      10526  056550011626            VFD     9/IOPAR,3/M5,3/M5,3/Z,3/Z,15/IOPARS                              .001
      10527                          CTXA    IOPAR,M6,M6,Z,Z,IOPARS
      10527  056660011626            VFD     9/IOPAR,3/M6,3/M6,3/Z,3/Z,15/IOPARS                              .001
      10530                          CTXA    IOPAR,M7,M7,Z,Z,IOPARS
      10530  056770011626            VFD     9/IOPAR,3/M7,3/M7,3/Z,3/Z,15/IOPARS                              .001
      10531                          CTXA    GENZER,Z,Z,Z,BN,GENZS
      10531  060000211251            VFD     9/GENZER,3/Z,3/Z,3/Z,3/BN,15/GENZS                               .001
      10532                          CTXA    ORA,X,X,Z,X,ORAS
      10532  061110111725            VFD     9/ORA,3/X,3/X,3/Z,3/X,15/ORAS                                    .001
      10533                          CTXB    EFETY,Z,ST,EFETYS
      10533  062047006224            VFD     9/EFETY,3/Z,3/ST,O6/70,15/EFETYS                                 .001
      10534                          CTXB    EFBGN,Z,Z,EFBGNS
      10534  064007006202            VFD     9/EFBGN,3/Z,3/Z,O6/70,15/EFBGNS                                  .001
      10535                          CTXA    ANA,X,X,Z,X,ANAS
      10535  065110111700            VFD     9/ANA,3/X,3/X,3/Z,3/X,15/ANAS                                    .001
      10536                          CTXA    COM,Z,X,Z,X,COMS
      10536  066010111752            VFD     9/COM,3/Z,3/X,3/Z,3/X,15/COMS                                    .001
1                    MAD III FOR CTSS ... R M GRAHAM ... MAR 1964                03/15/69 1117.9 PAGE 85
                           INTERNAL SUBROUTINES

      10537                          CTXA    LS,X,X,Z,X,LSS
      10537  067110112013            VFD     9/LS,3/X,3/X,3/Z,3/X,15/LSS                                      .001
      10540                          CTXA    RS,X,X,Z,X,RSS
      10540  070110111771            VFD     9/RS,3/X,3/X,3/Z,3/X,15/RSS                                      .001
      10541                          CTXA    GENONE,Z,Z,Z,BN,GENOS
      10541  071000211253            VFD     9/GENONE,3/Z,3/Z,3/Z,3/BN,15/GENOS                               .001
      10542                          CTXA    STD,ST,X,Z,Z,STDS
      10542  072410011535            VFD     9/STD,3/ST,3/X,3/Z,3/Z,15/STDS                                   .001
      10543                          CTXA    TAGA,F,F,X,F,FXBS
      10543  073001011423            VFD     9/TAGA,3/F,3/F,3/X,3/F,15/FXBS                                   .001
      10544                          CTXA    TAGA,F,X,Z,X,TAGAS
      10544  073010111500            VFD     9/TAGA,3/F,3/X,3/Z,3/X,15/TAGAS                                  .001
      10545                          CTXA    TAGA,X,F,X,X,FXBS
      10545  073101111423            VFD     9/TAGA,3/X,3/F,3/X,3/X,15/FXBS                                   .001
      10546                          CTXA    TAGA,X,X,Z,X,TAGAS
      10546  073110111500            VFD     9/TAGA,3/X,3/X,3/Z,3/X,15/TAGAS                                  .001
      10547                          CTXA    TAGA,BN,X,Z,X,TAGAS
      10547  073210111500            VFD     9/TAGA,3/BN,3/X,3/Z,3/X,15/TAGAS                                 .001
      10550                          CTXA    TAGA,FN,X,Z,X,TAGAS
      10550  073310111500            VFD     9/TAGA,3/FN,3/X,3/Z,3/X,15/TAGAS                                 .001
      10551                          CTXA    TAGA,ST,X,Z,X,TAGAS
      10551  073410111500            VFD     9/TAGA,3/ST,3/X,3/Z,3/X,15/TAGAS                                 .001
      10552                          CTXB    IFETY,Z,FN,IFETYS
      10552  074037006212            VFD     9/IFETY,3/Z,3/FN,O6/70,15/IFETYS                                 .001
      10553                          CTXA    RTNB,ST,F,Z,Z,RTNBS
      10553  076400011606            VFD     9/RTNB,3/ST,3/F,3/Z,3/Z,15/RTNBS                                 .001
      10554                          CTXA    RTNB,ST,X,Z,Z,RTNBS
      10554  076410011606            VFD     9/RTNB,3/ST,3/X,3/Z,3/Z,15/RTNBS                                 .001
      10555                          CTXA    RTNB,ST,BN,Z,Z,RTNBS
      10555  076420011606            VFD     9/RTNB,3/ST,3/BN,3/Z,3/Z,15/RTNBS                                .001
      10556                          CTXA    RTNB,ST,FN,Z,Z,RTNBS
      10556  076430011606            VFD     9/RTNB,3/ST,3/FN,3/Z,3/Z,15/RTNBS                                .001
      10557                          CTXA    TXL,Z,FN,Z,Z,TXLS
      10557  077030011554            VFD     9/TXL,3/Z,3/FN,3/Z,3/Z,15/TXLS                                   .001
      10560                          CTXA    TXL,Z,ST,Z,Z,TXLS
      10560  077040011554            VFD     9/TXL,3/Z,3/ST,3/Z,3/Z,15/TXLS                                   .001
      10561                          CTXA    FMT,ST,Z,Z,Z,FMTS
      10561  100400011640            VFD     9/FMT,3/ST,3/Z,3/Z,3/Z,15/FMTS                                   .001
      10562                          CTXA    FMT,ST,X,Z,Z,FMTS
      10562  100410011640            VFD     9/FMT,3/ST,3/X,3/Z,3/Z,15/FMTS                                   .001
      10563                          CTXA    NFCN,Z,FN,Z,FN,NFCNS
      10563  101030311577            VFD     9/NFCN,3/Z,3/FN,3/Z,3/FN,15/NFCNS                                .001
      10564                          CTXA    NFCN,Z,ST,Z,Z,NFCNS
      10564  101040011577            VFD     9/NFCN,3/Z,3/ST,3/Z,3/Z,15/NFCNS                                 .001
      10565                          CTXB    PREND,Z,Z,PRENDS
      10565  102007006574            VFD     9/PREND,3/Z,3/Z,O6/70,15/PRENDS                                  .001
      10566                          CTXA    ERA,X,X,Z,X,ERAS
      10566  106110112035            VFD     9/ERA,3/X,3/X,3/Z,3/X,15/ERAS                                    .001
      10567                          CTXA    PRLG,Z,ST,Z,Z,PRLGS
      10567  107040011601            VFD     9/PRLG,3/Z,3/ST,3/Z,3/Z,15/PRLGS                                 .001
      10570                          CTXA    SRRTN,Z,ST,Z,Z,SRRTNS
      10570  110040012061            VFD     9/SRRTN,3/Z,3/ST,3/Z,3/Z,15/SRRTNS                               .001
      10571  0 00000 0 00000  OPMDF  PZE
                       10660         ORG     OPMD+1
      10660                   OPM1   CTXA    MTX2,X,Z,Z,X,MTX2S
1                    MAD III FOR CTSS ... R M GRAHAM ... MAR 1964                03/15/69 1117.9 PAGE 86
                           INTERNAL SUBROUTINES

      10660  033100111642            VFD     9/MTX2,3/X,3/Z,3/Z,3/X,15/MTX2S                                  .001

                                         TRANSLATED SEQUENCES

            -1 00001 1 60000  TST    OPSYN MON

                       00001  LAC    EQU     1
                       00002  TFR    EQU     2
                       00003  AT     EQU     3
                       00004  BT     EQU     4
                       00005  AC     EQU     5
                       00006  MQ     EQU     6

                       00400  A      EQU     1*256
                       01000  B      EQU     2*256
                       01400  T      EQU     3*256
                       02000  LP     EQU     4*256
                       02400  BTA    EQU     5*256
                       03000  C1     EQU     6*256
                       03400  CF     EQU     7*256
                       04000  TV     EQU     8*256
                       04400  ZTA    EQU     9*256
                       05000  DT     EQU     10*256
                       05400  LM     EQU     11*256
                       06000  FF     EQU     12*256
      10661 -1 10664 1 10662  XPLUS  TST     *+1,LAC,*+3
      10662  0602 00 0 01400         SLW     T
      10663 -1 00000 2 10702         TST     *+15,TFR
      10664 -1 10665 6 10666         TST     *+2,MQ,*+1
      10665 -1 10702 5 10670         TST     *+3,AC,*+13
      10666 -1 10667 3 10672         TST     *+4,AT,*+1
      10667 -1 10677 4 10674         TST     *+5,BT,*+8
      10670 -1 10671 3 10703         TST     *+11,AT,*+1
      10671 -1 10701 4 10675         TST     *+4,BT,*+8
      10672  0131 00 0 00000         XCA
      10673 -1 00000 2 10703         TST     *+8,TFR
      10674  0131 00 0 00000         XCA
      10675  0400 00 0 00400         ADD     A
      10676 -1 00000 0 06036         TST     ACXT
      10677 -0600 00 0 01400         STQ     T
      10700 -1 00000 2 10702         TST     *+2,TFR
      10701  0601 00 0 01400         STO     T
      10702  0500 00 0 00400         CLA     A
      10703  0400 00 0 01000         ADD     B
      10704 -1 00000 0 06036         TST     ACXT
      10705 -1 10710 1 10706  FPLUS  TST     *+1,LAC,*+3
      10706  0602 00 0 01400         SLW   T
      10707 -1 00000 2 10726         TST     *+15,TFR
      10710 -1 10713 6 10711         TST   *+1,MQ,*+3
      10711 -1 10712 3 10716         TST    *+5,AT,*+1
      10712 -1 10723 4 10720         TST    *+6,BT,*+9
      10713 -1 10726 5 10714         TST    *+1,AC,*+11
      10714 -1 10715 3 10727         TST    *+11,AT,*+1
      10715 -1 10725 4 10721         TST    *+4,BT,*+8
      10716  0131 00 0 00000         XCA
1                    MAD III FOR CTSS ... R M GRAHAM ... MAR 1964                03/15/69 1117.9 PAGE 87
                           INTERNAL SUBROUTINES

      10717 -1 00000 2 10727         TST    *+8,TFR
      10720  0131 00 0 00000         XCA
      10721  0300 00 0 00400         FAD    A
      10722 -1 00000 0 06036         TST    ACXT
      10723 -0600 00 0 01400         STQ    T
      10724 -1 00000 2 10726         TST    *+2,TFR
      10725  0601 00 0 01400         STO    T
      10726  0500 00 0 00400         CLA    A
      10727  0300 00 0 01000         FAD    B
      10730 -1 00000 0 06036         TST    ACXT
      10731 -1 10734 1 10732  XMINUS TST     *+1,LAC,*+3
      10732  0602 00 0 01400         SLW     T
      10733 -1 00000 2 10753         TST     *+16,TFR
      10734 -1 10735 6 10736         TST     *+2,MQ,*+1
      10735 -1 10753 5 10740         TST     *+3,AC,*+14
      10736 -1 10737 3 10742         TST     *+4,AT,*+1
      10737 -1 10750 4 10744         TST     *+5,BT,*+9
      10740 -1 10741 3 10754         TST     *+12,AT,*+1
      10741 -1 10752 4 10745         TST     *+4,BT,*+9
      10742  0131 00 0 00000         XCA
      10743 -1 00000 2 10754         TST     *+9,TFR
      10744  0131 00 0 00000         XCA
      10745  0760 00 0 00002         CHS
      10746  0400 00 0 00400         ADD     A
      10747 -1 00000 0 06036         TST     ACXT
      10750 -0600 00 0 01400         STQ     T
      10751 -1 00000 2 10753         TST     *+2,TFR
      10752  0601 00 0 01400         STO     T
      10753  0500 00 0 00400         CLA     A
      10754  0402 00 0 01000         SUB     B
      10755 -1 00000 0 06036         TST     ACXT
      10756 -1 10761 1 10757  FMINUS TST     *+1,LAC,*+3
      10757  0602 00 0 01400         SLW   T
      10760 -1 00000 2 11000         TST     *+16,TFR
      10761 -1 10764 6 10762         TST   *+1,MQ,*+3
      10762 -1 10763 3 10767         TST    *+5,AT,*+1
      10763 -1 10775 4 10771         TST    *+6,BT,*+10
      10764 -1 11000 5 10765         TST    *+1,AC,*+12
      10765 -1 10766 3 11001         TST    *+12,AT,*+1
      10766 -1 10777 4 10772         TST    *+4,BT,*+9
      10767  0131 00 0 00000         XCA
      10770 -1 00000 2 11001         TST    *+9,TFR
      10771  0131 00 0 00000         XCA
      10772  0760 00 0 00002         CHS
      10773  0300 00 0 00400         FAD    A
      10774 -1 00000 0 06036         TST    ACXT
      10775 -0600 00 0 01400         STQ    T
      10776 -1 00000 2 11000         TST    *+2,TFR
      10777  0601 00 0 01400         STO    T
      11000  0500 00 0 00400         CLA    A
      11001  0302 00 0 01000         FSB    B
      11002 -1 00000 0 06036         TST    ACXT
      11003 -1 11006 1 11004  XMPY   TST     *+1,LAC,*+3
      11004  0602 00 0 01400         SLW   T
      11005 -1 00000 2 11024         TST     *+15,TFR
1                    MAD III FOR CTSS ... R M GRAHAM ... MAR 1964                03/15/69 1117.9 PAGE 88
                           INTERNAL SUBROUTINES

      11006 -1 11007 5 11010         TST   *+2,AC,*+1
      11007 -1 11024 6 11012         TST     *+3,MQ,*+13
      11010 -1 11011 3 11014         TST     *+4,AT,*+1
      11011 -1 11021 4 11016         TST     *+5,BT,*+8
      11012 -1 11013 3 11025         TST     *+11,AT,*+1
      11013 -1 11023 4 11017         TST     *+4,BT,*+8
      11014  0131 00 0 00000         XCA
      11015 -1 00000 2 11025         TST     *+8,TFR
      11016  0131 00 0 00000         XCA
      11017  0200 00 0 00400         MPY     A
      11020 -1 00000 0 06032         TST     MQXT
      11021  0601 00 0 01400         STO     T
      11022 -1 00000 2 11024         TST     *+2,TFR
      11023 -0600 00 0 01400         STQ     T
      11024  0560 00 0 00400         LDQ     A
      11025  0200 00 0 01000         MPY     B
      11026 -1 00000 0 06032         TST     MQXT
      11027 -1 11032 1 11030  FMPY   TST     *+1,LAC,*+3
      11030  0602 00 0 01400         SLW   T
      11031 -1 00000 2 11050         TST     *+15,TFR
      11032 -1 11035 5 11033         TST   *+1,AC,*+3
      11033 -1 11034 3 11040         TST    *+5,AT,*+1
      11034 -1 11045 4 11042         TST    *+6,BT,*+9
      11035 -1 11050 6 11036         TST    *+1,MQ,*+11
      11036 -1 11037 3 11051         TST    *+11,AT,*+1
      11037 -1 11047 4 11043         TST    *+4,BT,*+8
      11040  0131 00 0 00000         XCA
      11041 -1 00000 2 11051         TST    *+8,TFR
      11042  0131 00 0 00000         XCA
      11043  0260 00 0 00400         FMP    A
      11044 -1 00000 0 06036         TST    ACXT
      11045  0601 00 0 01400         STO    T
      11046 -1 00000 2 11050         TST    *+2,TFR
      11047 -0600 00 0 01400         STQ    T
      11050  0560 00 0 00400         LDQ    A
      11051  0260 00 0 01000         FMP    B
      11052 -1 00000 0 06036         TST    ACXT
      11053 -1 11056 1 11054  XDIV   TST     *+1,LAC,*+3
      11054  0602 00 0 01400         SLW     T
      11055 -1 00000 2 11067         TST     *+10,TFR
      11056 -1 11057 3 11061         TST     *+3,AT,*+1
      11057 -1 11060 5 11066         TST     *+7,AC,*+1
      11060 -1 11067 6 11064         TST     *+4,MQ,*+7
      11061 -1 11070 5 11062         TST     *+1,AC,*+7
      11062  0765 00 0 00043         LRS     35
      11063 -1 00000 2 11072         TST     *+7,TFR
      11064 -0600 00 0 01400         STQ     T
      11065 -1 00000 2 11067         TST     *+2,TFR
      11066  0601 00 0 01400         STO     T
      11067  0560 00 0 00400         LDQ     A
      11070 -0754 00 0 00000         PXD
      11071  0763 00 0 00000         LLS     0
      11072  0221 00 0 01000         DVP     B
      11073 -1 00000 0 06032         TST     MQXT
      11074 -1 11077 1 11075  FDIV   TST     *+1,LAC,*+3
1                    MAD III FOR CTSS ... R M GRAHAM ... MAR 1964                03/15/69 1117.9 PAGE 89
                           INTERNAL SUBROUTINES

      11075  0602 00 0 01400         SLW   T
      11076 -1 00000 2 11110         TST     *+10,TFR
      11077 -1 11101 6 11100         TST   *+1,MQ,*+2
      11100 -1 11107 3 11103         TST     *+3,AT,*+7
      11101 -1 11110 5 11102         TST     *+1,AC,*+7
      11102 -1 11105 3 11111         TST     *+7,AT,*+3
      11103  0131 00 0 00000         XCA
      11104 -1 00000 2 11111         TST     *+5,TFR
      11105  0601 00 0 01400         STO     T
      11106 -1 00000 2 11110         TST     *+2,TFR
      11107 -0600 00 0 01400         STQ     T
      11110  0500 00 0 00400         CLA     A
      11111  0241 00 0 01000         FDP     B
      11112 -1 00000 0 06032         TST     MQXT
      11113 -1 11116 1 11114  ABSS   TST     *+1,LAC,*+3
      11114  0602 00 0 01400         SLW   T
      11115 -1 00000 2 11127         TST     *+10,TFR
      11116 -1 11120 5 11117         TST   *+1,AC,*+2
      11117 -1 11126 4 11130         TST     *+9,BT,*+7
      11120 -1 11127 6 11121         TST     *+1,MQ,*+7
      11121 -1 11122 4 11124         TST     *+3,BT,*+1
      11122 -0600 00 0 01400         STQ     T
      11123 -1 00000 2 11127         TST     *+4,TFR
      11124  0131 00 0 00000         XCA
      11125 -1 00000 2 11130         TST     *+3,TFR
      11126  0601 00 0 01400         STO     T
      11127  0500 00 0 01000         CLA     B
      11130  0760 00 0 00003         SSP
      11131 -1 00000 0 06036         TST     ACXT
      11132 -1 11135 1 11133  NEGS   TST     *+1,LAC,*+3
      11133  0602 00 0 01400         SLW   T
      11134 -1 00000 2 11147         TST     *+11,TFR
      11135 -1 11137 5 11136         TST   *+1,AC,*+2
      11136 -1 11146 4 11144         TST     *+6,BT,*+8
      11137 -1 11147 6 11140         TST     *+1,MQ,*+8
      11140 -1 11141 4 11143         TST     *+3,BT,*+1
      11141 -0600 00 0 01400         STQ     T
      11142 -1 00000 2 11147         TST     *+5,TFR
      11143  0131 00 0 00000         XCA
      11144  0760 00 0 00002         CHS
      11145 -1 00000 0 06036         TST     ACXT
      11146  0601 00 0 01400         STO     T
      11147  0502 00 0 01000         CLS     B
      11150 -1 00000 0 06036         TST     ACXT
      11151 -1 11154 5 11152  EXPS   TST    *+1,AC,*+3
      11152 -1 11153 3 11161         TST    *+7,AT,*+1
      11153 -1 11157 4 11164         TST    *+9,BT,*+4
      11154 -1 11160 6 11155         TST    *+1,MQ,*+4
      11155 -1 11156 3 11167         TST    *+10,AT,*+1
      11156 -1 11171 4 11165         TST    *+7,BT,*+11
      11157  0601 00 0 01400         STO    T
      11160  0500 00 0 00400         CLA    A
      11161  0560 00 0 01000         LDQ    B
      11162  0074 00 4 04000         TSX    TV,4
      11163 -1 00000 0 06036         TST    ACXT
1                    MAD III FOR CTSS ... R M GRAHAM ... MAR 1964                03/15/69 1117.9 PAGE 90
                           INTERNAL SUBROUTINES

      11164  0131 00 0 00000         XCA
      11165  0500 00 0 00400         CLA    A
      11166 -1 00000 2 11162         TST    *-4,TFR
      11167  0131 00 0 00000         XCA
      11170 -1 00000 2 11161         TST    *-7,TFR
      11171 -0600 00 0 01400         STQ    T
      11172 -1 00000 2 11160         TST    *-10,TFR
      11173 -1 11176 4 11174  STORS  TST     *+1,BT,*+3
      11174 -1 11175 5 11177         TST     *+3,AC,*+1
      11175 -1 11203 1 11201         TST     *+4,LAC,*+6
      11176  0500 00 0 01000         CLA     B
      11177  0601 00 0 00400         STO     A
      11200 -1 00000 0 06030         TST     ZXT
      11201  0602 00 0 00400         SLW     A
      11202 -1 00000 0 06030         TST     ZXT
      11203 -0600 00 0 00400         STQ     A
      11204 -1 00000 0 06030         TST     ZXT
      11205 -1 11210 5 11206  BEQV   TST    *+1,AC,*+3
      11206 -1 11207 3 11224         TST    *+14,AT,*+1
      11207 -1 11222 4 11220         TST    *+9,BT,*+11
      11210 -1 11223 6 11211         TST    *+1,MQ,*+11
      11211 -1 11212 3 11215         TST    *+4,AT,*+1
      11212 -1 11213 4 11217         TST    *+5,BT,*+1
      11213 -0600 00 0 01400         STQ    T
      11214 -1 00000 2 11223         TST    *+7,TFR
      11215  0131 00 0 00000         XCA
      11216 -1 00000 2 11224         TST    *+6,TFR
      11217  0131 00 0 00000         XCA
      11220  0400 00 0 00400         ADD    A
      11221 -1 00000 2 11225         TST    *+4,TFR
      11222  0601 00 0 01400         STO    T
      11223  0500 00 0 00400         CLA    A
      11224  0400 00 0 01000         ADD    B
      11225  0402 00 0 03000         SUB    C1
      11226  0760 00 0 00003         SSP
      11227 -1 00000 0 06036         TST    ACXT
      11230 -1 11233 5 11231  EXORS  TST    *+1,AC,*+3
      11231 -1 11232 3 11247         TST    *+14,AT,*+1
      11232 -1 11236 4 11243         TST    *+9,BT,*+4
      11233 -1 11246 6 11234         TST    *+1,MQ,*+11
      11234 -1 11235 3 11240         TST    *+4,AT,*+1
      11235 -1 11245 4 11242         TST    *+5,BT,*+8
      11236  0601 00 0 01400         STO    T
      11237 -1 00000 2 11246         TST    *+7,TFR
      11240  0131 00 0 00000         XCA
      11241 -1 00000 2 11247         TST    *+6,TFR
      11242  0131 00 0 00000         XCA
      11243  0322 00 0 00400         ERA    A
      11244 -1 00000 0 06036         TST    ACXT
      11245 -0600 00 0 01400         STQ    T
      11246  0500 00 0 00400         CLA    A
      11247  0322 00 0 01000         ERA    B
      11250 -1 00000 0 06036         TST    ACXT
      11251 -0754 00 0 00000  GENZS  PXD 0,0
      11252 -1 00000 0 06036         TST ACXT
1                    MAD III FOR CTSS ... R M GRAHAM ... MAR 1964                03/15/69 1117.9 PAGE 91
                           INTERNAL SUBROUTINES

      11253  0500 00 0 03000  GENOS  CLA C1
      11254 -1 00000 0 06036         TST ACXT
      11255 -1 11260 3 11256  ES     TST    *+1,AT,*+3
      11256 -1 11257 5 11264         TST    *+6,AC,*+1
      11257 -1 11260 6 11263         TST    *+4,MQ,*+1
      11260 -0520 00 0 00400         NZT    A
      11261  0020 00 0 01000         TRA    B
      11262 -1 00000 0 06030         TST    ZXT
      11263  0131 00 0 00000         XCA
      11264  0100 00 0 01000         TZE    B
      11265 -1 00000 0 06030         TST    ZXT
      11266 -1 11274 3 11267  NES    TST    *+1,AT,*+6
      11267 -1 11270 5 11272         TST    *+3,AC,*+1
      11270 -1 11274 6 11271         TST    *+1,MQ,*+4
      11271  0131 00 0 00000         XCA
      11272 -0100 00 0 01000         TNZ    B
      11273 -1 00000 0 06030         TST    ZXT
      11274  0520 00 0 00400         ZET    A
      11275  0020 00 0 01000         TRA    B
      11276 -1 00000 0 06030         TST    ZXT
      11277 -1 11301 5 11300  GS     TST    *+1,AC,*+2
      11300 -1 11303 3 11305         TST    *+5,AT,*+3
      11301 -1 11304 6 11302         TST    *+1,MQ,*+3
      11302 -1 11312 3 11310         TST    *+6,AT,*+8
      11303  0601 00 0 01400         STO    T
      11304  0500 00 0 00400         CLA    A
      11305  0100 00 0 02002         TZE    LP+2
      11306  0120 00 0 01000         TPL    B
      11307 -1 00000 0 06030         TST    ZXT
      11310  0131 00 0 00000         XCA
      11311 -1 00000 2 11305         TST    *-4,TFR
      11312 -0600 00 0 01400         STQ    T
      11313 -1 00000 2 11304         TST    *-7,TFR
      11314 -1 11316 5 11315  GES    TST    *+1,AC,*+2
      11315 -1 11320 3 11322         TST    *+5,AT,*+3
      11316 -1 11321 6 11317         TST    *+1,MQ,*+3
      11317 -1 11327 3 11325         TST    *+6,AT,*+8
      11320  0601 00 0 01400         STO    T
      11321  0500 00 0 00400         CLA    A
      11322  0100 00 0 01000         TZE    B
      11323  0120 00 0 01000         TPL    B
      11324 -1 00000 0 06030         TST    ZXT
      11325  0131 00 0 00000         XCA
      11326 -1 00000 2 11322         TST    *-4,TFR
      11327 -0600 00 0 01400         STQ    T
      11330 -1 00000 2 11321         TST    *-7,TFR
      11331 -1 11333 5 11332  LSQ    TST    *+1,AC,*+2
      11332 -1 11335 3 11337         TST    *+5,AT,*+3
      11333 -1 11336 6 11334         TST    *+1,MQ,*+3
      11334 -1 11344 3 11342         TST    *+6,AT,*+8
      11335  0601 00 0 01400         STO    T
      11336  0500 00 0 00400         CLA    A
      11337  0100 00 0 02002         TZE    LP+2
      11340 -0120 00 0 01000         TMI    B
      11341 -1 00000 0 06030         TST    ZXT
1                    MAD III FOR CTSS ... R M GRAHAM ... MAR 1964                03/15/69 1117.9 PAGE 92
                           INTERNAL SUBROUTINES

      11342  0131 00 0 00000         XCA
      11343 -1 00000 2 11337         TST    *-4,TFR
      11344 -0600 00 0 01400         STQ    T
      11345 -1 00000 2 11336         TST    *-7,TFR
      11346 -1 11350 5 11347  LES    TST    *+1,AC,*+2
      11347 -1 11352 3 11354         TST    *+5,AT,*+3
      11350 -1 11353 6 11351         TST    *+1,MQ,*+3
      11351 -1 11361 3 11357         TST    *+6,AT,*+8
      11352  0601 00 0 01400         STO    T
      11353  0500 00 0 00400         CLA    A
      11354  0100 00 0 01000         TZE    B
      11355 -0120 00 0 01000         TMI    B
      11356 -1 00000 0 06030         TST    ZXT
      11357  0131 00 0 00000         XCA
      11360 -1 00000 2 11354         TST    *-4,TFR
      11361 -0600 00 0 01400         STQ    T
      11362 -1 00000 2 11353         TST    *-7,TFR
      11363 -1 11366 1 11364  FLAS   TST     *+1,LAC,*+3
      11364  0602 00 0 01400         SLW    T
      11365 -1 00000 2 11377         TST     *+10,TFR
      11366 -1 11370 5 11367         TST    *+1,AC,*+2
      11367 -1 11376 3 11400         TST    *+9,AT,*+7
      11370 -1 11377 6 11371         TST    *+1,MQ,*+7
      11371 -1 11372 3 11374         TST    *+3,AT,*+1
      11372 -0600 00 0 01400         STQ    T
      11373 -1 00000 2 11377         TST    *+4,TFR
      11374  0131 00 0 00000         XCA
      11375 -1 00000 2 11400         TST    *+3,TFR
      11376  0601 00 0 01400         STO    T
      11377  0500 00 0 00400         CLA    A
      11400 -0501 00 0 03400         ORA    CF
      11401  0300 00 0 03400         FAD    CF
      11402 -1 00000 0 06056         TST    AACXT
      11403 -1 11406 1 11404  FLBS   TST     *+1,LAC,*+3
      11404  0602 00 0 01400         SLW    T
      11405 -1 00000 2 11417         TST     *+10,TFR
      11406 -1 11410 5 11407         TST    *+1,AC,*+2
      11407 -1 11416 4 11420         TST    *+9,BT,*+7
      11410 -1 11417 6 11411         TST    *+1,MQ,*+7
      11411 -1 11412 4 11414         TST    *+3,BT,*+1
      11412 -0600 00 0 01400         STQ    T
      11413 -1 00000 2 11417         TST    *+4,TFR
      11414  0131 00 0 00000         XCA
      11415 -1 00000 2 11420         TST    *+3,TFR
      11416  0601 00 0 01400         STO    T
      11417  0500 00 0 01000         CLA    B
      11420 -0501 00 0 03400         ORA    CF
      11421  0300 00 0 03400         FAD    CF
      11422 -1 00000 0 06077         TST    BACXT
      11423 -1 11426 1 11424  FXBS   TST     *+1,LAC,*+3
      11424  0602 00 0 01400         SLW    T
      11425 -1 00000 2 11437         TST     *+10,TFR
      11426 -1 11430 5 11427         TST    *+1,AC,*+2
      11427 -1 11436 4 11440         TST    *+9,BT,*+7
      11430 -1 11437 6 11431         TST    *+1,MQ,*+7
1                    MAD III FOR CTSS ... R M GRAHAM ... MAR 1964                03/15/69 1117.9 PAGE 93
                           INTERNAL SUBROUTINES

      11431 -1 11432 4 11434         TST    *+3,BT,*+1
      11432 -0600 00 0 01400         STQ    T
      11433 -1 00000 2 11437         TST    *+4,TFR
      11434  0131 00 0 00000         XCA
      11435 -1 00000 2 11440         TST    *+3,TFR
      11436  0601 00 0 01400         STO    T
      11437  0500 00 0 01000         CLA    B
      11440 -0300 00 0 03400         UFA    CF
      11441  0322 00 0 03400         ERA    CF
      11442  0763 00 0 00000         LLS    0
      11443 -1 00000 0 06077         TST    BACXT
      11444 -1 11455 4 11445  TAGS   TST     *+1,BT,*+9
      11445 -1 11446 5 11453         TST     *+6,AC,*+1
      11446 -1 11447 6 11452         TST     *+4,MQ,*+1
      11447 -1 11455 1 11453         TST     *+4,LAC,*+6
      11450  0534 00 0 02400         LXA     BTA,0
      11451 -1 00000 0 06030         TST     ZXT
      11452  0131 00 0 00000         XCA
      11453  0734 00 0 04400         PAX     ZTA,0
      11454 -1 00000 0 06030         TST     ZXT
      11455  0534 00 0 02400         LXA     BTA,0
      11456 -1 00000 0 06050         TST     SQXT
      11457 -1 11461 1 11460  SUBS   TST     *+1,LAC,*+2
      11460 -1 11476 4 11466         TST     *+6,BT,*+14
      11461 -1 11463 5 11462         TST     *+1,AC,*+2
      11462 -1 11474 4 11466         TST     *+4,BT,*+10
      11463 -1 11471 6 11464         TST     *+1,MQ,*+6
      11464 -1 11470 4 11465         TST     *+1,BT,*+4
      11465  0131 00 0 00000         XCA
      11466  0734 00 1 00000         PAX     0,1
      11467 -1 00000 2 11472         TST     *+3,TFR
      11470 -0600 00 0 01400         STQ     T
      11471  0534 00 1 01000         LXA     B,1
      11472  0500 00 1 00400         CLA     A,1
      11473 -1 00000 0 06036         TST     ACXT
      11474  0601 00 0 01400         STO     T
      11475 -1 00000 2 11471         TST     *-4,TFR
      11476  0602 00 0 01400         SLW     T
      11477 -1 00000 2 11471         TST     *-6,TFR
      11500 -1 11502 1 11501  TAGAS  TST     *+1,LAC,*+2
      11501 -1 11517 4 11514         TST     *+11,BT,*+14
      11502 -1 11504 5 11503         TST     *+1,AC,*+2
      11503 -1 11512 4 11514         TST     *+9,BT,*+7
      11504 -1 11513 6 11505         TST     *+1,MQ,*+7
      11505 -1 11510 4 11506         TST     *+1,BT,*+3
      11506  0131 00 0 00000         XCA
      11507 -1 00000 2 11514         TST     *+5,TFR
      11510 -0600 00 0 01400         STQ     T
      11511 -1 00000 2 11513         TST     *+2,TFR
      11512  0601 00 0 01400         STO     T
      11513  0500 00 0 01000         CLA     B
      11514  0402 00 0 02001         SUB     LP+1
      11515  3 00000 0 00400         TXH     A
      11516 -1 00000 0 06036         TST     ACXT
      11517  0602 00 0 01400         SLW     T
1                    MAD III FOR CTSS ... R M GRAHAM ... MAR 1964                03/15/69 1117.9 PAGE 94
                           INTERNAL SUBROUTINES

      11520 -1 00000 2 11513         TST     *-5,TFR
      11521 -1 11523 5 11522  STAS   TST    *+1,AC,*+2
      11522 -1 11531 4 11533         TST    *+9,BT,*+7
      11523 -1 11532 6 11524         TST    *+1,MQ,*+7
      11524 -1 11527 4 11525         TST    *+1,BT,*+3
      11525  0131 00 0 00000         XCA
      11526 -1 00000 2 11533         TST    *+5,TFR
      11527 -0600 00 0 01400         STQ    T
      11530 -1 00000 2 11532         TST    *+2,TFR
      11531  0601 00 0 01400         STO    T
      11532  0500 00 0 01000         CLA    B
      11533  0621 00 0 00400         STA    A
      11534 -1 00000 0 06030         TST    ZXT
      11535 -1 11537 5 11536  STDS   TST    *+1,AC,*+2
      11536 -1 11545 4 11547         TST    *+9,BT,*+7
      11537 -1 11546 6 11540         TST    *+1,MQ,*+7
      11540 -1 11543 4 11541         TST    *+1,BT,*+3
      11541  0131 00 0 00000         XCA
      11542 -1 00000 2 11547         TST    *+5,TFR
      11543 -0600 00 0 01400         STQ    T
      11544 -1 00000 2 11546         TST    *+2,TFR
      11545  0601 00 0 01400         STO    T
      11546  0500 00 0 01000         CLA    B
      11547  0767 00 0 00022         ALS    18
      11550  0622 00 0 00400         STD    A
      11551 -1 00000 0 06030         TST    ZXT
      11552  0020 00 0 01000  TRAS   TRA B
      11553 -1 00000 0 06030         TST ZXT
      11554 -3 00000 0 01000  TXLS   TXL B
      11555 -1 00000 0 06030         TST ZXT
      11556  0074 00 4 04000  HALTS  TSX     TV,4
      11557  3 00000 0 01000         TXH B
      11560 -1 00000 0 06030         TST ZXT
      11561 -1 11563 1 11562  FCNS   TST     *+1,LAC,*+2    CHANGED 12/64 (FERREN MCINTYRE) (*)
      11562  0602 00 0 01400         SLW     T                            *
      11563 -1 11571 5 11564         TST     *+1,AC,*+6                   *
      11564 -1 11570 6 11565         TST     *+1,MQ,*+4                   *
      11565  0601 00 0 05000         STO     DT                           *
      11566 -0600 00 0 05001         STQ     DT+1                         *
      11567 -1 00000 2 11573         TST     *+4,TFR                      *
      11570  0601 00 0 01400         STO     T                            *
      11571 -1 11573 6 11572         TST     *+1,MQ,*+2                   *
      11572 -0600 00 0 01400         STQ     T                            *
      11573  0074 00 0 02400         TSX     BTA,0
      11574 -1 00000 0 06036         TST     ACXT
      11575  3 00400 0 01000  PARS   TXH B,0,A
      11576 -1 00000 0 06050         TST SQXT
      11577  0074 00 0 02400  NFCNS  TSX    BTA,0
      11600 -1 00000 0 06030         TST ZXT
      11601  0634 00 2 01000  PRLGS  SXA     B,2
      11602  0074 00 2 01000         TSX     B,2
      11603 -1 00000 0 06030         TST     ZXT
      11604  2 00400 0 01000  PAR2S  TIX B,0,A
      11605 -1 00000 0 06050         TST SQXT
      11606 -1 11610 1 11607  RTNBS  TST     *+1,LAC,*+2
1                    MAD III FOR CTSS ... R M GRAHAM ... MAR 1964                03/15/69 1117.9 PAGE 95
                           INTERNAL SUBROUTINES

      11607  0602 00 0 01400         SLW     T
      11610 -1 11613 6 11611         TST     *+1,MQ,*+3
      11611  0131 00 0 00000         XCA
      11612 -1 00000 2 11615         TST     *+3,TFR
      11613 -1 11614 5 11615         TST     *+2,AC,*+1
      11614  0500 00 0 01000         CLA     B
      11615  0020 00 0 06000  RTNS   TRA     FF
      11616 -1 00000 0 06036         TST     ACXT
      11617  0534 00 4 06000  ERRS   LXA     FF,4
      11620  0500 00 4 01000         CLA B,4
      11621  0621 00 0 02002         STA LP+2
      11622  0560 00 0 02002         LDQ LP+2
      11623  0040 00 0 00000         TLQ    0
      11624  3 00000 0 00000         TXH    0
      11625 -1 00000 0 06030         TST ZXT
      11626 -1 11627 4 11630  IOPARS TST     *+2,BT,*+1
      11627 -1 11636 3 11630         TST     *+1,AT,*+7
      11630 -1 11632 1 11631         TST     *+1,LAC,*+2
      11631  0602 00 0 01400         SLW     T
      11632 -1 11634 5 11633         TST     *+1,AC,*+2
      11633  0601 00 0 01400         STO     T
      11634 -1 11636 6 11635         TST     *+1,MQ,*+2
      11635 -0600 00 0 01400         STQ     T
      11636 -1 00400 7 01000         STR     B,7,A
      11637 -1 00000 0 06030         TST     ZXT
      11640  1 01000 1 00400  FMTS   TXI    A,1,B
      11641 -1 00000 0 06103         TST    STRXT
      11642 -1 11653 6 11643  MTX2S  TST     *+1,MQ,*+9     (CHANGED 12/64) FROM ARDEN VERSION
      11643 -1 11647 5 11644         TST     *+1,AC,*+4
      11644  0601 00 0 05000         STO     DT
      11645 -0600 00 0 05001         STQ     DT+1
      11646 -1 00000 2 11665         TST     *+15,TFR
      11647 -1 11656 1 11650         TST     *+1,LAC,*+7
      11650  0602 00 0 05000         SLW     DT
      11651 -0600 00 0 05001         STQ     DT+1
      11652 -1 00000 2 11665         TST     *+11,TFR
      11653 -1 11656 1 11654         TST     *+1,LAC,*+3
      11654  0602 00 0 01400         SLW     T
      11655 -1 00000 2 11665         TST     *+8,TFR
      11656 -1 11661 6 11657         TST     *+1,MQ,*+3
      11657 -1 11660 4 11666         TST     *+7,BT,*+1
      11660 -1 11664 3 11671         TST     *+9,AT,*+4
      11661 -1 11665 5 11662         TST     *+1,AC,*+4
      11662 -1 11663 3 11672         TST     *+8,AT,*+1
      11663 -1 11676 4 11674         TST     *+9,BT,*+11
      11664 -0600 00 0 01400         STQ     T
      11665  0560 00 0 01000         LDQ     B
      11666  0500 00 0 00400         CLA     A
      11667  0074 00 4 04000         TSX     TV,4
      11670 -1 00000 0 06036         TST     ACXT
      11671  0131 00 0 00000         XCA
      11672  0560 00 0 01000         LDQ     B
      11673 -1 00000 2 11667         TST     *-4,TFR
      11674  0131 00 0 00000         XCA
      11675 -1 00000 2 11666         TST     *-7,TFR
1                    MAD III FOR CTSS ... R M GRAHAM ... MAR 1964                03/15/69 1117.9 PAGE 96
                           INTERNAL SUBROUTINES

      11676  0601 00 0 01400         STO     T
      11677 -1 00000 2 11665         TST     *-10,TFR
      11700 -1 11701 5 11723  ANAS   TST    *+19,AC,*+1
      11701 -1 11704 1 11702         TST    *+1,LAC,*+3
      11702 -1 11703 3 11711         TST    *+7,AT,*+1
      11703 -1 11715 4 11713         TST    *+8,BT,*+10
      11704 -1 11710 6 11705         TST    *+1,MQ,*+4
      11705 -1 11706 3 11717         TST    *+10,AT,*+1
      11706 -1 11707 4 11721         TST    *+11,BT,*+1
      11707 -0600 00 0 01400         STQ    T
      11710 -0500 00 0 00400         CAL    A
      11711 -0320 00 0 01000         ANA    B
      11712 -1 00000 0 06054         TST    LACXT
      11713 -0320 00 0 00400         ANA    A
      11714 -1 00000 0 06054         TST    LACXT
      11715  0602 00 0 01400         SLW    T
      11716 -1 00000 2 11710         TST    *-6,TFR
      11717 -0130 00 0 00000         XCL
      11720 -1 00000 2 11711         TST    *-7,TFR
      11721 -0130 00 0 00000         XCL
      11722 -1 00000 2 11713         TST    *-7,TFR
      11723  0601 00 0 01400         STO    T
      11724 -1 00000 2 11710         TST    *-12,TFR
      11725 -1 11726 5 11750  ORAS   TST    *+19,AC,*+1
      11726 -1 11731 1 11727         TST    *+1,LAC,*+3
      11727 -1 11730 3 11736         TST    *+7,AT,*+1
      11730 -1 11742 4 11740         TST    *+8,BT,*+10
      11731 -1 11735 6 11732         TST    *+1,MQ,*+4
      11732 -1 11733 3 11744         TST    *+10,AT,*+1
      11733 -1 11734 4 11746         TST    *+11,BT,*+1
      11734 -0600 00 0 01400         STQ    T
      11735 -0500 00 0 00400         CAL    A
      11736 -0501 00 0 01000         ORA    B
      11737 -1 00000 0 06054         TST    LACXT
      11740 -0501 00 0 00400         ORA    A
      11741 -1 00000 0 06054         TST    LACXT
      11742  0602 00 0 01400         SLW    T
      11743 -1 00000 2 11735         TST    *-6,TFR
      11744 -0130 00 0 00000         XCL
      11745 -1 00000 2 11736         TST    *-7,TFR
      11746 -0130 00 0 00000         XCL
      11747 -1 00000 2 11740         TST    *-7,TFR
      11750  0601 00 0 01400         STO    T
      11751 -1 00000 2 11735         TST    *-12,TFR
      11752 -1 11753 5 11765  COMS   TST    *+11,AC,*+1
      11753 -1 11755 1 11754         TST    *+1,LAC,*+2
      11754 -1 11767 4 11761         TST     *+5,BT,*+11
      11755 -1 11760 6 11756         TST    *+1,MQ,*+3
      11756 -1 11757 4 11763         TST    *+5,BT,*+1
      11757 -0600 00 0 01400         STQ    T
      11760 -0500 00 0 01000         CAL    B
      11761  0760 00 0 00006         COM
      11762 -1 00000 0 06054         TST    LACXT
      11763 -0130 00 0 00000         XCL
      11764 -1 00000 2 11761         TST    *-3,TFR
1                    MAD III FOR CTSS ... R M GRAHAM ... MAR 1964                03/15/69 1117.9 PAGE 97
                           INTERNAL SUBROUTINES

      11765  0601 00 0 01400         STO     T
      11766 -1 00000 2 11760         TST    *-6,TFR
      11767  0602 00 0 01400         SLW     T
      11770 -1 00000 2 11760         TST     *-8,TFR
      11771 -1 12000 4 11772  RSS    TST     *+1,BT,*+7
      11772 -1 11774 6 11773         TST     *+1,MQ,*+2
      11773  0131 00 0 00000         XCA
      11774  0621 00 0 02002         STA     LP+2
      11775 -0500 00 0 00400         CAL     A
      11776 -0765 00 0 00000         LGR     0
      11777 -1 00000 0 06054         TST     LACXT
      12000 -1 12002 5 12001         TST     *+1,AC,*+2
      12001  0601 00 0 01400         STO     T
      12002 -1 12004 6 12003         TST     *+1,MQ,*+2
      12003 -0600 00 0 01400         STQ     T
      12004 -1 12006 1 12005         TST     *+1,LAC,*+2
      12005  0602 00 0 01400         SLW     T
      12006 -0500 00 0 01000         CAL     B
      12007  0621 00 0 02002         STA     LP+2
      12010 -0500 00 0 00400         CAL     A
      12011 -0765 00 0 00000         LGR     0
      12012 -1 00000 0 06054         TST     LACXT
      12013 -1 12022 4 12014  LSS    TST     *+1,BT,*+7
      12014 -1 12016 6 12015         TST     *+1,MQ,*+2
      12015  0131 00 0 00000         XCA
      12016  0621 00 0 02002         STA     LP+2
      12017 -0500 00 0 00400         CAL     A
      12020  0767 00 0 00000         ALS     0
      12021 -1 00000 0 06054         TST     LACXT
      12022 -1 12024 5 12023         TST     *+1,AC,*+2
      12023  0601 00 0 01400         STO     T
      12024 -1 12026 6 12025         TST     *+1,MQ,*+2
      12025 -0600 00 0 01400         STQ     T
      12026 -1 12030 1 12027         TST     *+1,LAC,*+2
      12027  0602 00 0 01400         SLW     T
      12030 -0500 00 0 01000         CAL     B
      12031  0621 00 0 02002         STA     LP+2
      12032 -0500 00 0 00400         CAL     A
      12033  0767 00 0 00000         ALS     0
      12034 -1 00000 0 06054         TST     LACXT
      12035 -1 12036 5 12044  ERAS   TST     *+7,AC,*+1
      12036 -1 12041 6 12037         TST     *+1,MQ,*+3
      12037 -1 12040 3 12050         TST     *+9,AT,*+1
      12040 -1 12055 4 12052         TST     *+10,BT,*+13
      12041 -1 12045 1 12042         TST     *+1,LAC,*+4
      12042 -1 12043 3 12046         TST     *+4,AT,*+1
      12043 -1 12057 4 12053         TST     *+8,BT,*+12
      12044  0601 00 0 01400         STO     T
      12045 -0500 00 0 00400         CAL     A
      12046  0322 00 0 01000         ERA     B
      12047 -1 00000 0 06054         TST     LACXT
      12050 -0130 00 0 00000         XCL
      12051 -1 00000 2 12046         TST     *-3,TFR
      12052 -0130 00 0 00000         XCL
      12053  0322 00 0 00400         ERA     A
1                    MAD III FOR CTSS ... R M GRAHAM ... MAR 1964                03/15/69 1117.9 PAGE 98
                           INTERNAL SUBROUTINES

      12054 -1 00000 0 06054         TST     LACXT
      12055 -0600 00 0 01400         STQ     T
      12056 -1 00000 2 12045         TST     *-9,TFR
      12057  0602 00 0 01400         SLW     T
      12060 -1 00000 2 12045         TST     *-11,TFR
      12061 -1 00000 7 06000  SRRTNS STR     FF,7
      12062 -1 00000 0 06030         TST     ZXT
      12063  0 00000 0 00000  TMTXF  PZE
                       05025  EOF    SYN     EOF.
                       12064  BOT    SYN     *
                       00144         END     PASS1
