1                    MAD I FOR CTSS ... R M GRAHAM ... FEB 1964                  03/15/69 1107.8 PAGE 1
                        POST PROCESSOR ASSEMBLY DATA

      32611 IS THE FIRST LOCATION NOT USED BY THIS PROGRAM

0REFERENCES TO DEFINED SYMBOLS
      31372      A 16771,16775,17146,17166,17170,17573,17632,17645,20236,20242,20245,20252,20705,20713,21063,21067,21334
                   21340,21433,21434,21446,21450,21507,21511,22126,22140,22145,22152,22153,22162,22200,22206,22210,22252
                   22261,22301,22322,22327,22345,22460,22465,22513,22533,23017,23020,23031,23045,23046,23273,23305,23312
                   23416,23422,23662,23664,23666,23713,23716,23724,24714,24715,26670,26671,26700,26716,26777,27003,27140
                   27144,27245,27272,27276,27317,27612,30050,30067,30117,30125
      31371      B 17240,17245,17252,17574,17610,17647,22134,22144,22167,22172,22174,22205,22207,22212,22213,22255,22262
                   22303,22320,22323,22341,22346,22366,22371,22530,22532,23110,23114,23231,23714,23720,23730,24675,24703
                   24717,24724,24732,24734,27130,27167,27607,27613,27730,27744,30051,30070
      40023      E   216,17155,17243,17273,17434,17463,17526,20237,20244,20325,20356,21201,21763,21770,22057,22066,22106
                   22113,22264,22306,22330,22350,22360,22414,22431,22475,22514,22524,22561,22604,22636,22650,22675,22731
                   23465,23473,23513,24077,25347,25371,25441,25543,25570,25614,26000,26143,26147,26156,26236,26262,26265
                   26270,26273,26341,26343
      31402      F 16644,16647,20341,20344,20451,20454,20470,20500,20501,20503,20516,20522,20523,20525,20702,20707,21134
                   21165,21166,21170,21410,21413,23703,23707,23712,23750,23753,27161,27164,27553,27561,27563,27740,27756
                   27757,27761
      31377      I 16717,16722,24426,24430,24443,24445,24447,24467,24471,24474,26556,26727,27006,27170,27250,27257,27301
                   27323,27751,30032
      40023      L   216,20260,20300,20304,20310,21207,21316,21676,23346,26514,26557,26562,26570,26620,26640,26643,26644
                   26645,26646,26647,26650,26662,26665,26667,26701,26710,26713,26730,26753,26755,26761,26767,26772,26773
                   26775,27000,27007,27016,27017,27037,27065,27070,27071,27103,27105,27133,27136,27141,27147,27152,27156
                   27157,27162,27166,27175,27200,27202,27251,27260,27265,27270,27273,27304,27330,27336,27341,27343,27345
                   27346,27350,27362,27364,27366,27401,27404,27405,27407,27410,27413,27414,27417,27422,27424,27425,27430
                   27445,27453,27465,27467,27471,27504,27510,27513,27516,27521,27523,27534,27566,27627,27637,27726,27752
                   30023,30033,30040,30052,30061,30064,30075,30110,30115,30124,30126,30127,30131,30133,30146,30153,30154
                   30171,30175,30200,30203,30213,30214
      40023      S   216,17546,17560,17564,17575,17601,17614,17620,17624,17637,17651,17671,17713,17730,20360,20364,20370
                   20374,20402,20403,20404,20405,20411,20420,20424,20461,20734,20740,20744,20754,20763,21121,21125,21144
                   21152,21226,21232,21245,21253,21267,21276,21310,21312,21435,21441,21455,21464,21470,21500,21517,21544
                   21547,21551,21643,21645,21647,21655,21716,21720,21743,22750,22771,22775,23006,23007,23013,23016,23053
                   23057,23063,23074,23103,23116,23132,23136,23156,23165,23171,23174,23203,23207,23213,23223,23237,23244
                   23250,23254,23260,23264,23270,23425,23440,23740,23744,23770,23772,23776,24013,24015,24036,24040,24042
                   24050,24057,24105,25360,26054,26061,26070,26072,26131,26135,26142,26174,26202,26210,26213,26214,26216
                   26304,26306,26307,26311,26315,26322,26324,26451,26452,26465,26471,26554,26567,26575,26603,26607,26630
                   26721,26743,26765
      41530      V   216,17154,17272,17316,17331,17552,17570,17572,17605,17607,17630,17660,17667,17722,20400,20422,21002
                   21015,21142,21154,21230,21264,21451,21453,21474,22754,22756,22761,22762,22764,22770,23041,23042,23100
                   23101,23115,23142,23145,23146,23217,23232,23235,23241,23272,23274,23275,23303,23313,23435,23657,24207
                   24231,24251,24265,24316,24573,24574,24577,24602,24606,24616,24630,24700,24712,24727,24743,24750,25362
                   26204,26763
      16442     A1 16435
      16445     A2 16437
      16450     A4 16441
      31370     AT 16733,17221,17226,17230,17234,17236,17441,27603,27610
      75360     B1   216,17117
      74500     B2   216,17120
      26575     C1 26507
      26626     C2 26542
      26611     C3 26541
      26567     C4 26470,26511,26546,26627,27043,27044,27051,27053,27066,27112,27124
      26630     C5 26537
      27123     C6 26536
1                    MAD I FOR CTSS ... R M GRAHAM ... FEB 1964                  03/15/69 1107.8 PAGE 2
                        POST PROCESSOR ASSEMBLY DATA

      26572     C7 26535
      31362     CC 17665,22766,23300,23414,25345,26222,26224,26300,26302,26316,26320
      26544     CX 26523,26525,26533,26534,26543
      26463     CY 26571,26754
      26464     CZ 26560,26605,26651,26766,27020,27025,27040
      25355     D1 26355,26356,26357,26360,26361,26362,26363,26364,26375,26376,26377,26400,26401,26402,26403,26404,26405
                   26415,26416,26417,26420,26421,26422,26423,26424,26425
      25415     D2 26435,26436,26437,26440,26441,26442,26443,26444,26445,26446
      26053     D3 26352
      26064     D4 26412
      26076     D5 26413
      26163     D6 26433
      26176     D8 26226,26373
      26261     D9 25346,26055,26057,26064,26066,26220,26353
      43601     ET   216,16537,20115,20200,21432,21512,25325
      32050     EX
      30615     F8 17510,17511,17516,17520,30615
         30     H.     0,22070,22072
      42173     IF   216,16640,20603,20664
      31776     .F 17754,20314,21047,21376,21567,23344,26741,27121,27310
      31777     .P 21573,21600,23352,23376,26725,26747,30016
      31773     .S 26641,26663,26752,26770,27004,27134,27176,27266,27277,30176
       1147     L1     0,  216,17312
         74     L3     0,  216,23700
        310     L7     0,  216
         43     L.     0,22072,22074
      47134     MT   216,16533,20111,20170,25322
      16400     OK 16362
      16715     P1 17656,17700,17735,20777,21006,21012,21021,21076,21345,21524,22166,22266,22353,22471,22535,22724,22740
                   23131,23317,23321,23323,23327,23512,23521,23652,23654,23660,23667,23675
      17521     P3 30426,30440,30460,30470,30474,30512,30526,30550,30566
      42110     PL   216,16635,21007,21010,21016,21265,21302,21303,21305,21360,24330,24332,25005,30005,30007
      31400     PT 25431,25445,25447,25667
      42314     RD   216,16552,16724,16745,16747,16751,16753,16765,16766,16772,16773,17006,17147,17171,17324,17327,17335
                   17350,17355,17356,17357,17360,17362,17363,17364,17365,17402,17407,17412,21405,22002,22046,32064,32110
                   32111,32175,32177,32231,32247,32250,32260
         62     S.     0,22074
      31373     SN 16752,20326,20331,23642,23653,23661,24114,24123,24142,24227
      17541     T1 21530,23454,30420
      17704     T2 30414
      17737     T3 30456
      17741     T4 30446
      17743     T5 30416
      20233     T6 30522
      20254     T7 30366
      20272     T8 17477,17501,17536
      20324     T9 20323
         63     T.     0,22314
      31450     TR 20462,20504,20530,20562,21646,21702,21714,21731,21744,23745,23771,23777,24014,24016,24110,24200,26060
                   26062,26067,26073,26212,26217,26305,26312,26321,26325
      71276     TT   216,16512,16514,20127,20164,25041,25317
      26616    3C1 26612
      26620    3C2 26613,26614,26615
      70675    ABC   216,16515,16517,16521,16523,16525,16527,16531,20130,20166,25111,25320
      24341    AD2 24344
1                    MAD I FOR CTSS ... R M GRAHAM ... FEB 1964                  03/15/69 1107.8 PAGE 3
                        POST PROCESSOR ASSEMBLY DATA

      24352    AD4 24343
      24347    AD6 24353
      24366    AD7 24356
      24346    ADB 24334
      24332    ADC 24335
      22540    ADR 22473,22523
      24354    ADX 24321,24326,24336,24340,24345
      24360    ADY 24351
      17474    AN1 17503
      17502    AN2 17500
      17526    AN8 17533
      17534    AN9 17466
      16434    BAT 16423
      37127    BB1   216,22027
      36247    BB2   216,22030
         63    BL.     0,23001
      31175    BV1 31134
      31177    BV2 31135
      31200    BV3 31136
      31202    BV4 31137
      31205    BV5 31140
      31207    BV6 31141
      31210    BV7 31142
      31212    BV8 31143
      31215    BV9 31144
      27011    C12 26532
      27041    C13 26531
      27047    C15 26527,26530
      27120    C21 26526
      26652    C2A 26633
      26755    C2B 26656
      26752    C2C 26731,26774,27010
      26767    C2D 26760
      26775    C2H 26771
      26647    C2J 26642
      26667    C2K 26664
      26732    C2L 26674
      26713    C2M 26704
      26715    C2N 26712
      26561    C44 26524
      26570    C4X 26520,27122
      30037    CM1 21670,30022
      30075    CM2 30042
      30051    CM3 30156
      30064    CM4 30055
      30115    CM5 30102,30104,30106,30114
      30153    CM6 30132,30136,30140,30142,30144,30152
      30121    CM7 30100
      30133    CM8 30120,30130
      30066    CM9 30063
      31422    CMA 16731,17223,17224,20321,20347,20354,20431
         26    CM.     0,17576,17653,17655,17673,17675,17732,17734,20506,20510,20756,20760,21271,21273,21502,21504,21521
                   21523,21704,21706,21732,23120,23122,23160,23162,23442,23444,23741,23773,26657,30025,30027
     500000    CN.     0,23026,23067,23071,30111,30147
      41317    CPY   216,24043,24056
1                    MAD I FOR CTSS ... R M GRAHAM ... FEB 1964                  03/15/69 1107.8 PAGE 4
                        POST PROCESSOR ASSEMBLY DATA

      26472    CWX 26610
      26521    CXX 26513,26516,26600,26602
      26461    CYY 26454
      26314    D10 26431
      25372    D1A 25402
      25404    D1B 25374,25376,25400
      25411    D1C 25366
      26175    D21 26063,26313
      25347    D22 25365,26146,26175
      25434    D2A 25427,25453,25463,25466,25651
      25450    D2B 25444
      25473    D2C 25457
      25477    D2D 25460
      25546    D2E 25452
      25646    D2F 25455,25475,25501,25504,25510,25535,25545,25557
      25533    D2G 25520
      25521    D2H 25516
      25530    D2J 25522
      25666    D2K 25650
      25506    D2L 25503,25505
      25753    D2M 25740
      25763    D2N 25752
      25413    D2X 26101
      25655    D2Y 25645,25764,26232
      26054    D3X 26155
      26127    D5A 26077
      26102    D5B 26100
      26104    D5C 26115
      26117    D5D 26110
      26156    D5E 26130
      26161    D5F 26276
      26147    D5H 26134
      26330    D71 26365
      26332    D72 26372
      26334    D73 26406
      26336    D74 26426
      26173    D7A 26170
      26166    D7B 26171
      26165    D7X 26126
      26256    D8A 26244
      26250    D8B 26242
      26236    D8C 26247
      26227    D8E 26177
      26254    D8R 26233,26257
      26225    D8X 26221
      26303    D9A 26277
      26277    D9B 26264,26267,26272,26275
      26304    D9X 26164
      24133    DC1 24116,24122
      24143    DC2 24154
      24235    DC3 24113,24300,24305,24310
      24264    DC4 24230
      24266    DC5 24271
      24303    DC6 24311
      24157    DC7 24170
1                    MAD I FOR CTSS ... R M GRAHAM ... FEB 1964                  03/15/69 1107.8 PAGE 5
                        POST PROCESSOR ASSEMBLY DATA

      24241    DC9 24214
      40007    DIC   216,24145,24161,24172,24174,24203,24211,24220,24226,24241,24245,24254,24257,30337
      46003    DIM   216,16535,20113,20172,25321
      16442    EAT 16423,16424,16426,16442
      31467    EF4 16735,17052,17443,17453
      23656    EN2 23672
      17422    EOF 17075,17104,20007,20016,32076,32121
          5    EQ.     0,21277,21721,22777,23001,23265,24051
      31500    ER1 24033
      31511    ER2 22150,22157
      31516    ER3 20624,22062,23431
      31523    ER4 17444,24364,26540,27230,27233,27234,27235,27236,27237,27240
      31530    ER6 30014
      31535    ER7 25246,25247
      31541    ER8 22377,22734,23504,23516,23522,24325
      30217    ERR 16673
      47445    ERS   216,16541,20117,20176,25324
      31441    EXP 22665,22671,22673,22677,25430,25527,25533,25537,25541,25544,25604,25610,25612,25615,25616,25620,25666
                   25672,25675,25736
      30764    F12 22116,22124,22135,22136,22154,22156,22160,22163,22175,22176,22420,24441,26165,26473,27210,30764
     200000    FL.     0,26702,30053,30077,30101,30135,30137
     700000    FN.     0,17717,20305,20736,20746,20750,21122,21257,23024,23026,23065,23067,26141
      41526    FOR   216,16636,20070,20421,20423,20722,21027,21736,23655,23656,23663,23676,23702,23704,23715,23732
      31406    FTM 20446,20466,20541,20545,23705,23763,24021
      22427    GC1 22405,22442,22450
      22431    GC2 22413
      22420    GC3 22434
      22435    GC4 22416
      22451    GC5 22436,22443
      22241    GD1 22217
      32174    GET 32127,32171,32203
      22403    GM1 22374,22400
      22401    GM2 22376
     500001    IC.     0,17565,17621,20375,21465,23133,23167,23175,23210,23261,24246,26756
      31352    ID1 16756,16761,17020
      44175    IFT   216,16545,20123,20204,25327
      31365    ION 17241,17302,21625,21627,23331,23336
     600000    IP.     0,30103,30105,30141,30143
      32055    .AC 26200,26227
      32056    .BC 25644
      32060    .CN 25763,25776,26002
      31771    .E. 27033,27710
      32061    .FN 17750,21043,21372,21563,21631,23340,23362,23406,23535,23613,23623,23634,24400,26735
      32057    .IC 25654
      32031    ... 26161,27150,30041
      32024    .LC 21311,23052,24012,24037,24104,24173
      32023    .RC 21550,21677,26314,26450
      32062    .VR 22760,23152,25356
        113    L15     0,  216
         50    L17     0,  216
         74    L18     0,  216,24274
         14    L32     0,  216,24177,24201
         62    L35     0,  216,20573
        144    L42     0,20103
        124    L53     0,  216
1                    MAD I FOR CTSS ... R M GRAHAM ... FEB 1964                  03/15/69 1107.8 PAGE 6
                        POST PROCESSOR ASSEMBLY DATA

         36    L62     0,22156,30341,30616,30765
         55    LC.     0,20362,20406,21126,23122
      24003    LP1 24000,24011
      23764    LP2 23746,23766
      24027    LP3 24017
         53    LP.     0,17561,17615,17675,17677,20371,20741,21436,21457,21651,22773,23204,23251,24213,24215
      72737    MST   216,16507,16511,20126,20162,25011,25316
      24457    MT1 24440
      24453    MT3 24450
      24454    MT5 24452,24533
      24532    MT6 24462
      24455    MT7 24436
      24456    MT8 24437
      24534    MT9 24517
      47446    MTX   216,16634,16776,16777,17000,17002,17007,17012,17042,17044,17045,17046,17051,17055,17061,17770,24413
                   24415,24416,24417,24424,24425,24451,24463,24465,24472,27023,27036,27064,27074,27075,27100,27102,27327
                   27344,27353,27354,27357,27363,27412,27421,27427,27432,27444,27456,27457,27462,27466,27541,27546,27547
                   27556,27557,27632,27633,27642,27643,27646,27650,27652,27665,27667,27712,30160,30161,30165,30334,30345
                   30355
      22702    NAM 22507,22554
      16421    OK1 16430,16432,16433
      16430    OK2 16444,16447
      16456    OK3 16451,16455
      31445    OPL 23225,23306,24464,24506,24515,24564,24650,26634,26653,27203,27246,27254,27324
      16727    P1A 17430
      17240    P1B 17153
      17163    P1C 17214,17220,17222,17225,17231,17233,17237
      17176    P1D 17157
      17164    P1E 17201
      17165    P1F 17216
      17173    P1G 17165
      17312    P1H 17167
      17152    P1J 17175
      17234    P1K 17203
      17226    P1L 17205
      17221    P1M 17207
      17217    P1N 17211
      17304    P1Q 17246
      17257    P1R 17253
      17306    P1S 17271
      17267    P1T 17300
      17154    P1U 17305
      17266    P1V 17265,17306,17310,17311
      17340    P1W 17321
      17330    P1X 17337
      17435    P1Y
      17301    P1Z 17256
      31375    PAR 20265,20315,21151,21214,21237,21323,21363,21367,22105,22127,22257,22263,22305,22324,22343,22347,22372
                   22474,22534,23353,24225,24312,24315,24347,24350,24357,24360,25717,25724,25727,25730,25731,26555,26711
                   26720,26726,26750,27005,27032,27060,27073,27111,27146,27247,27300,27302,27311,27321,27352,27372,27440
                   27455,27475,27641,27656,27677,27724,27733,30062,30071,30210
      31376    PBR 22064,22164,24023,24025,27672,27700,27725,27747
      44652    PCT   216,16543,20121,20174,25323
      67462    PLT   216,16506,20107,20202,25326
      16505    PX1
1                    MAD I FOR CTSS ... R M GRAHAM ... FEB 1964                  03/15/69 1107.8 PAGE 7
                        POST PROCESSOR ASSEMBLY DATA

      73620    RB1   216,16404,20034
      72740    RB2   216,16405,20035
         54    RC.     0,17655,17677,17734,20510,20563,20764,21523,21706,21710,23162,23444,24215,24260,26455,26563,26621
      42271    RDA   216,22003,22045
      42313    RDX   216,16551,17342
      17425    RE2 17373,17400
      17417    RE9 17374
      17407    RMK 17376
         52    RP.     0,17625,17640,20365,20760,21273,21471,21504,21710,23061,23137,23255,24242,26133,26577,26635,26655
                   26657,26672,30027
         15    RT.     0,22310,22312,22334,22352,22354,22477,22501,22516,22520,22525,22565,22567,22614
      27202    SC3 27177,27252,27261,27263,27331,27347,27415,27433
      27217    SC4 27214,27446
      27253    SCA 27224
      27242    SCX 27222,27223,27232
      24064    SET 17541,17706,20255,20275,20335,20353,20444,20555,20607,20731,21117,21200,21423,21542,21637,21756,22055
                   22250,22270,22730,22745,23333,23402,23463
      31405    SNT 20327,23641
      22472    SP1 22462
      22551    SP2 22540,22547,22564,22566,22603
      22604    SP3 22542
      22554    SP4 22543
      22700    SP5 22664
      22677    SP6 22667
      22665    SP7 22676
      22721    SP8 22702
      22715    SP9 22710
      27564    SV3 27552
      20442    T10 20441
      20553    T11 20440
      20567    T12 20322
      20616    T13 30444
      20644    T14 30372
      20274    T15 30424
      20670    T16 30430
      21022    T17 30434
      21106    T18 30442
      21172    T19 30432
      17546    T1A 17654,17703
      17637    T1B 17600
      17660    T1C 17555
      17635    T1D 17617
      17663    T1E 17557
      17667    T1F 17663
      17671    T1G 17662
      17702    T1H 17674
      17564    T1J 17676
      21226    T20 20737
      21346    T21 30510
      21404    T22 30436
      21423    T23 30454
      21527    T24 30450
      21531    T25 30360
      21533    T26 30500
      21535    T27 30464
1                    MAD I FOR CTSS ... R M GRAHAM ... FEB 1964                  03/15/69 1107.8 PAGE 8
                        POST PROCESSOR ASSEMBLY DATA

      21537    T28 30400
      21604    T29 30362,30614
      17713    T2A 17733
      17722    T2B 17716,17720
      17705    T2X 17740,23456,23460,23462,23576
      21611    T31 30472
      21613    T32 30506
      21615    T33 30466
      21620    T34 30504
      21753    T35 30564
      21754    T36 30562
      22054    T37 30546
      22243    T38 30560
      22270    T39 30554
      22723    T40 30600
      22725    T41 30556
      22730    T42 30552
      22737    T43 30604
      22741    T44 17457,17540,30422
      22744    T45 30364
      23316    T46 30570
      23320    T47 30572
      23322    T48 30574
      23324    T49 30602
      23326    T50 30576
      23330    T51 30524
      23355    T52 30516
      23357    T53 30404
      23401    T54 30376
      23447    T55 30514
      23451    T56 30544
      23453    T57 30462
      23455    T58 30520
      23457    T59 30542
      20051    T5B 20063
      20064    T5C 20050
      23461    T60 30502
      23463    T61 30452
      23531    T62 30540
      23533    T63 30534
      23556    T64 30536
      23560    T65 30532
      23562    T66 30530
      23567    T67 30410
      23600    T68 30606
      23602    T69 30610
      20247    T6A 20241
      20237    T6B 20246
      23604    T70 30612
      23606    T71 30412
      23610    T72 30406
      23616    T73 30402
      23627    T74 30476
      20317    T9X 30374
      31367    TAG 17242,17303,25424,25467,25471,25655,25662,25670,25712,25734,30170,30206,30211
1                    MAD I FOR CTSS ... R M GRAHAM ... FEB 1964                  03/15/69 1107.8 PAGE 9
                        POST PROCESSOR ASSEMBLY DATA

      25233    TB1 25231
      25240    TB2 25232,25244,25250,25252,25274
      25236    TB3 25227
      25242    TB4 25234,25315
      25251    TB5 25203,25205,25207
      31464    TB6 25254,25314
      25227    TB7 25211,25213,25215,25217,25221,25223,25225
      25235    TB8 25230
      25311    TB9 25255,25267,25270
     300000    TM.     0,20302,27567
      32054    TXH 17741,20333,20416,20720,21420,21607,21621,21674,22246,22467,23004,24136,25417,25426,30227
      32053    TXL 20616,21024,21102,21324,21605,21616,21623,21663,21672,22271,23314,23563,23565,23650,23673,24255,25421
                   25465
      26346    TY1 26347,26350,26351,26354,26366,26367,26370,26371,26374,26407,26410,26411,26414,26427,26430,26432,26434
      26345    TY2 26342
      31443    TYP 24466,24513,24562,24656,26476,26505,26522
      31444    UNF 26501,26545
     400000    VR.     0,17547,17602,17715,17717,20412,20750,21255,21257,21442,22751,23022,23024,23071,23214,23245,24204
                   26136,26632,30105,30143
      77120    WB1   216,16473
      76240    WB2   216,16474
      31436    X24 17751,17755,21044,21050,21373,21377,21564,21570,21632,21636,23341,23345,23363,23373,23407,23413,23536
                   23550,23614,23624,23635,26736,26742,30220,30277
      31437    X25 30217,30276
      31440    X26 30221,30300
      24237    XA1 24133
      24236    XB1 24134
      24431    XC3 24412,24420
      26326    XC5 25344
      24361    XC8 24314
      26624    XC9 26447,26566,26573
     100000    XP.     0,30101,30103,30137,30141
      41316    XPL   216,16643,20774,20775,21003,21356,24337,24341,25001,27776,30000
      17437   AN15
      17516   AN40 17513
      17545   BETA 17711,20455,20557,20733,21426,21641,22747,23424,24106
         60   BLK.     0,17200,17202
      16702   BTDC 16607,16612,16615,32243
      31216   BV10 31145
      31220   BV11 31146
      31223   BV12 31147
      31225   BV13 31150
      31227   BV14 31151
      31232   BV15 31152
      31234   BV16 31153
      31236   BV17 31154
      31240   BV18 31155
      31242   BV19 31156
      31243   BV20 31157
      31245   BV21 31160
      31246   BV22 31161
      31250   BV23 31162
      31253   BV24 31163
      31254   BV25 31164
      31257   BV26 31165
1                    MAD I FOR CTSS ... R M GRAHAM ... FEB 1964                  03/15/69 1107.8 PAGE 10
                        POST PROCESSOR ASSEMBLY DATA

      31263   BV27 31166
      31265   BV28 31167
      31267   BV29 31170
      27023   C12B 27013
      27026   C12C 27012
      27021   C12D 27014
      27016   C12E 27022
      27067   C15A 27052
      27054   C15B 27042,27050
      27113   C15C 27077
      27102   C15D 27117
      27070   C15E 27046
      30073   C18X 30037
      27125   C20X 27123
      27161   C20Y 27151,27155
      27165   C20Z 27160
      26662   C2AX 26660
      67151   CDIM   216
      27703   CDT1 27621
      27671   CDT2 27623
      27665   CDT3 27624,27714
      27637   CDT4 27625,27707
      27626   CDT5 27706
      27635   CDT6 27617,27631,27657,27670,27702
      27630   CDT7 27634
      27660   CDT9 27645
      30157   CM10 30047
      30166   CM11 30163
      30050   CM12 30167
      30110   CM5X 30107
      30146   CM6X 30145
      31442   CODE 24473,24514,24540,24567,24612,24620,24654,24754,24770,24772,25000,25004,25015,25025,25063,25077,25100
                   25105,25112,25127,25142,25154
        160   CON1
        157   CONF
      24035   CPYN 20457,23736
      25357   D21X 25414,25416,26230
      25616   D2CT 25606,25607
      25654   D2IC 25602,25603,25633
      25766   D2MD 25660
      25600   D2OA 25561
      25570   D2OB 25600
      25563   D2TX 25560
      26131   D5AX 26160
      26154   D5HX 26145,26151
      31340   DATE 16555,16564,16567
      24220   DC10 24216,24263
      24301   DC12 24274
      24230   DC20 24137,24256
      24272   DC58 24277
      24306   DC6X 24270
      20210   DRM1 20136,20137,20143,20145,20210
      20153   DRM2 20142
      20151   DRM3 20144
      20160   DRM4 20146,20150
1                    MAD I FOR CTSS ... R M GRAHAM ... FEB 1964                  03/15/69 1107.8 PAGE 11
                        POST PROCESSOR ASSEMBLY DATA

      20137   DRM5 20153
      30000   DUMA 30003
      27772   DUMC 27777,30004
      27774   DUMD 27767,30006,30013
      30007   DUME 30012
      30005   DUMI 27773
      27776   DUMX 27771
      31470   EF23 16736,17313,17445,17454
      31471   EF28 16737,17232,17440,17442,17447,17455
      31472   EF33 16740,17255,17436,17451,17456
      32147   EORT 32131
      31546   ER10 17431
      31552   ER11 26346
      31557   ER12 21774,22511,22556,22714,25403
      31566   ER13 17470,17515,21753,22245,24101
      31575   ER14 22123,22227,22232,22235,22425,22446,26112,26116,26121,26172
      31605   ER15 17551,17563,17567,17604,17623,17627,17642,17657,17701,17721,17736,20307,20367,20373,20377,20410,20414
                   20512,20565,20752,20762,20766,21124,21130,21250,21261,21275,21301,21440,21444,21467,21473,21506,21525
                   21701,21712,21734,22076,22267,22316,22356,22410,22411,22503,22522,22527,22573,22577,22600,22616,22656
                   22670,22753,23003,23030,23073,23124,23135,23141,23164,23206,23212,23216,23247,23253,23257,23263,23267
                   23277,23302,23311,23446,23743,23775,24053,24206,24217,24244,24250,24262,25464,25476,25514,25517,25525
                   25531,25532,25536,25636,25643,25772,25775,26140,26460,26565,26623,26637,26661,30031,30113,30151
      31613   ER16 20067,21037
      31623   ER17 20072,21031
      31632   ER18 20076
      31640   ER19 20101,20672
      31511   ER1X 24033,31511
      31651   ER20 20104
      31656   ER21 27207
      31664   ER22 22000,30174
      31667   ER23 17446
      31673   ER24 20574,23701
      31677   ER25 20662,21101,21112,21176,21352,21407,23543
      31710   ER26 24275
      31716   ER27 22663,25565,25573,25624,25631,25653,25674,25750,25765
      31722   ER28 17450
      31727   ER29 24131
      31516   ER2X 22150,22157,31516
      31735   ER30 24150,24164
      31741   ER31 21053
      31746   ER32 17345,17406
      31754   ER33 17452
      31760   ER34 21755
      31523   ER3X 20624,22062,23431,31523
      31530   ER4X 17444,24364,26540,27230,27233,27234,27235,27236,27237,27240,31530
      31535   ER6X 30014,31535
      31541   ER7X 25247,31541
      31546   ER8X 22377,22734,23504,23516,23522,24325,31546
      30304   ERC1 30253
      30266   ERC2 30247,30257,30260,30271
      30253   ERC4 30274
      30255   ERC5 30305
      30272   ERC6 30264
      30267   ERC7
       1212   ET.C     0,  216,16536,20115
1                    MAD I FOR CTSS ... R M GRAHAM ... FEB 1964                  03/15/69 1107.8 PAGE 12
                        POST PROCESSOR ASSEMBLY DATA

      31413   FLTM 20342,20345,23646
      31411   FTMA 23751,23757,24010
      31410   FTMB 20452,20474,20551
      31407   FTMC 20450,20535
      17465   FTST 22364
      32266   GR72 32067,32211,32253
      32127   GULP 32132,32142,32144,32146,32164
      31321   HEAD 16627,16631
      31351   ID10 16762,17022,17025,17027
      31403   IF.1 20064,20567,20576,20604,20621,20630,20647,20657,20666,20724,21034
      31404   IF.2 20602,20605,20606,20613,20634,20637,20641,20654,20665,20726,21035
      65507   INST   216,30356
      22664   ITGR 22544,22601
      32026   .BCD 17001
      31775   .CMA 26207,26303
      32005   .DEF 22275
      32004   .DIF 27320
      31767   .DIV 26330
      32013   .ERR 21366
      32006   .FLD 20477,20521,20540,20550,20633,20646,20653,21066,21164,21337,23645,23727,23762,24007,26707,27076,27110
                   27355,27371,27460,27474,27644,27655,27743,27755,30060,30123
      32042   .FMT 21665,30045
      32001   .HLT 20251
      32000   .JMP 20264,20473,20515,20534,20544,20627,20712,21133,23723,23756,27115,27376,27501,27662,27737
      32014   .NEG 26606
      31772   .NE. 27061,27441,27671
      32012   .RTN 21223
      32020   .STA 27127,30162
      32034   .STD 27125,30164
      31774   .TAG 30207
      32007   .TIX 30020
      32025   .TXI 21657,21750
      32041   .TXL 23242
      32047   .VFN 26517,27255
      31347   LBQ1 25732,25733
         73   LCM.     0,17206,17210,22312,22314,22332,22334,22354,22501,22520,22563,22565,22612,22614
         53   LDS.     0,17210,17212,22654
         13   LEQ.     0,22610,22612
      42336   LINE   216,24501,24504,24521,24531,24536,24551,24640,24646,24653,24660,24774,24776,25013,25014,25023,25036
                   25043,25045,25046,25054,25104,25125,25132,25141
         40   LMI.     0,22567,22571
      23735   LOOP 20561,21730
         20   LPL.     0,22571
         33   LPT.     0,22652,22654
      24030   LPXT 23735
         54   LST.     0,22606,22610
      16676   MINS 16575,16602,16606,16611,16613,16621
      31374   MODE 17705,17724,22735
      26052   MPLY 25744,25746,25756,25760,26053
      24527   MT10 24523,24525,24542,24544
      24461   MT11 24454
      24544   MT13 24524
      24540   MT14 24526
      24521   MT15 24537
       1130   MT.C     0,  216,16532,20111
1                    MAD I FOR CTSS ... R M GRAHAM ... FEB 1964                  03/15/69 1107.8 PAGE 13
                        POST PROCESSOR ASSEMBLY DATA

      24367   MTRX 17752,17756,20247,20262,20312,20465,20471,20475,20513,20517,20532,20536,20542,20546,20625,20631,20644
                   20651,20710,20714,21045,21054,21064,21131,21137,21146,21156,21162,21211,21221,21234,21240,21320,21326
                   21335,21364,21374,21414,21565,21571,21576,21633,21746,22260,22273,22321,22344,22463,22531,23036,23112
                   23125,23227,23342,23350,23370,23374,23410,23417,23432,23545,23551,23643,23721,23725,23754,23760,24005
                   24222,24371,24374,24402,26552,26705,26715,26723,26737,26745,27002,27031,27057,27106,27113,27143,27165
                   27244,27275,27306,27316,27322,27367,27374,27437,27472,27477,27653,27660,27676,27731,27735,27741,27745
                   27753,30056,30066,30121,30205
      56467   MTXA   216,17143,17772,17773
      62077   MTXB   216,17142,17776
      31401   NAME 17472,17475,17507,17521,17530,21761,21766,21772,21775,22007,22221,22223,22240,22552,22560,22575,22602
                   22704,22706,22720,24627,24632,24637,24645,25370,25373,25410,25432,25435,25437,25443,25567,25574,25576
                   25626,25632,25637,25663,25677,25713,25720,25735,25742,25751,25753,25762,26103,26105,26125,26235,26246
                   26253,26256
      30202   OPN1 30177
      30200   OPN2 30216
      30170   OPND 26550,26617,26676,27027,27055,27435,27602,27606,27674
      31366   OPTM 27211,27217
      25200   OTLX 25173
      25765   P12X 25761
      17045   P1MW 17017
      17041   P1MZ 17014
      31356   PREC 26504,27213
      30022   PRL1 30026
      30032   PRL2 30030
      25444   PTSW 25423,25461,25462,25472,25473,25474,25511,25512,25550,25551,25634,25646
      17431   RE20 16730
      17347   RE21
      16766   RE24 17421
      17341   RE25 16726,17414,17420
      17433   RE26 17416,17426
      17020   RE31 16760
      17027   RE32 17024
      17036   RE33 17033
      16763   RE35 17026
      16764   RE36 17035,17040
      17413   RMK. 22051
      27537   RVSR 27024,27101,27360,27463,27511,27517,27522,27524,27535,27647,27713
      27550   RVX4 27537
      25157   SAD1 25150
      24770   SAD2 24760
      25147   SAD3 25010,25040,25110
      25040   SAD4 24761
      25004   SAD5 24762
      25110   SAD6 24763
      25010   SAD7 24764
      25050   SAD8 24765
      25061   SAD9 24766
      27304   SCA1 27267
      27306   SCA2 27303
      27262   SCA3 27256
      44112   SCPT   216,16547,20125,20206,25330
      27534   SCW2 27531
      27447   SCX1 27227
      27527   SCX2 27225
      27332   SCX3 27226
1                    MAD I FOR CTSS ... R M GRAHAM ... FEB 1964                  03/15/69 1107.8 PAGE 14
                        POST PROCESSOR ASSEMBLY DATA

      27315   SCX4 27231
      27434   SCX6 27333,27450,27530
      27341   SCY1 27507
      27336   SCY2 27373,27532
      27407   SCY3 27340,27512
      27411   SCY4 27406
      27401   SCY5 27334,27536
      27416   SCY6 27403
      27513   SCZ2 27451
      27504   SCZ4 27452,27476
      27521   SCZ5 27515
      27510   SCZ6 27506
      24074   SETX 24066
      17144   SKP1 17047,17112,17132,17765
      31414   SNPT 16754,20332,22453,24117,24156
      22705   SP10 22713
      22560   SP11 22620,22622,22644
      22621   SP12 22607
      22574   SP13 22570
      22576   SP14 22572
      22536   SP15 22500,22517
      22504   SP16 22502
      22514   SP17 22505
      22523   SP18 22521
      22530   SP19 22537
      22623   SP20 22611
      22617   SP21 22613,22615
      22650   SP22 22624
      22634   SP23 22625
      22547   SP24 22633
      22632   SP25 22647
      22645   SP26 22640
      22657   SP27 22653
      22627   SP28 22660,22662
      22661   SP29 22655
      32145   SWAL 32134,32136,32137,32140,32153,32155
      20513   T10A 20507
      20532   T10B 20511
      20526   T10C 20463
      20461   T10D 20531
      20351   T10X 30370
      20607   T12X 20642
      20617   T13X 17742
      20642   T13Y 20617
      21007   T16A 20773
      21014   T16B 21020
      21001   T16C 21005
      20744   T16D 20757
      20753   T16E 20747,20751
      20730   T16X 21422
      21077   T17A 21023
      21060   T17C 21103
      21144   T18A 21136
      21156   T18B 21143
      21113   T18C 21107,21111
1                    MAD I FOR CTSS ... R M GRAHAM ... FEB 1964                  03/15/69 1107.8 PAGE 15
                        POST PROCESSOR ASSEMBLY DATA

      21221   T19A 21203
      21211   T19B
      21177   T19C 21173,21175
      21215   T19D 21225
      21253   T20C 21272
      21262   T20D 21256,21260
      21305   T20E 21307
      21353   T21A 21347,21351
      21360   T21B 21355
      21361   T21C 21357
      21430   T23A 21522
      21441   T23B 21526
      21526   T23C 21503
      21507   T23D 21505
      21500   T23E 21463
      21464   T23F 21460
      21541   T28A 23620,23631
      21560   T28B 21540,23617,23630
      21561   T28C 21603
      21565   T28D 23625,23636
      21603   T28E 21537
      21644   T34A 21715
      21716   T34B 21652
      21736   T34C 21711
      21726   T34D 21724
      21714   T34E 21735
      21702   T34F 21745
      21713   T34G 21653,21705,21740,21742
      21622   T34V 21617
      21621   T34W 21614
      21605   T34X 21532,21534,21536,23607
      21624   T34Y 21610,23566
      21616   T34Z 21612
      22035   T36A 17423
      21775   T36B 21765
      21763   T36C 21773
      22233   T37A 22225
      22222   T37B 22231
      22077   T37C 22075
      22101   T37D 22071
      22105   T37E 22100,22102,22104
      22103   T37F 22073
      22113   T37G 22110
      22116   T37H 22112
      22124   T37J 22121
      22174   T37K 22132
      22154   T37L 22131
      22136   T37M 22143
      22167   T37N 22141
      22143   T37P 22170,22171,22173
      22176   T37R 22204
      22212   T37S 22203
      22144   T37T 22211
      22204   T37V 22214,22215
      22055   T37X 22727
1                    MAD I FOR CTSS ... R M GRAHAM ... FEB 1964                  03/15/69 1107.8 PAGE 16
                        POST PROCESSOR ASSEMBLY DATA

      22317   T39A 22315
      22357   T39B 22355
      22300   T39C 22362
      22365   T39D 22311,22313
      22337   T39E 22336
      22344   T39G 22367,22373
      22370   T39H 22333,22335
      23004   T45A 23000
      23013   T45B 23011
      23017   T45C 23015
      23103   T45D 23076
      23150   T45E 23023
      23244   T45F 23002
      23035   T45G 23151,23155,23202
      23005   T45K 23315
      23107   T45L 23102,23105
      23156   T45M 23025
      23055   T45N 23121
      23203   T45P 23062
      23074   T45Q 23070
      23132   T45R 22774
      22775   T45S 23147
      23235   T45T 23066,23072,23224
      23110   T45V 23243
      23125   T45W 23123,23234
      23225   T45X 23111
      23331   T51X 23356,23450,23452,23532,23601,23603,23605
      23364   T53B 23615
      23425   T54A 23443
      20015   T5AA 20001,20002,20006
      17776   T5AB 17772
      20000   T5AC 17775
      20024   T5AD 20000
      20047   T5AX 20041
      23472   T61A 23475
      23477   T61B 23503
      23505   T61C 23501
      23530   T61D 23506,23511
      23520   T61E 23507
      23513   T61F 23467
      23506   T61G 23517
      23544   T63A 23540,23542
      23534   T63X 23561
      23563   T66X 23557
      23577   T67S 23567,23574
      23621   T73A 23626
      23626   T73B 23616
      23632   T74A 23637
      23637   T74B 23627
      32206   TAKE 32145,32157,32216
      25263   TB11 25261
      25275   TB12 25256,25264,25301
      25273   TB13 25253,25313
      25270   TB14 25312
      25303   TB15 25257
1                    MAD I FOR CTSS ... R M GRAHAM ... FEB 1964                  03/15/69 1107.8 PAGE 17
                        POST PROCESSOR ASSEMBLY DATA

      25313   TB17 25302
      25316   TB21 25202
      25317   TB22 25204
      25320   TB23 25206
      25321   TB24 25210
      25322   TB25 25212
      25323   TB26 25214
      25324   TB27 25216
      25325   TB28 25220
      25326   TB29 25222
      25327   TB30 25224
      25330   TB31 25226,25243,25245
      16700   TEMP 16703,16710,16712
      31341   TIME 16554,16570,16625
        400   TT.C     0,  216,16513
      26340   TYPE 17465,17476,20434,22224,22375,22406,22504,22541,22576,22623,22666,22707,25375,25450,25456,25502,25515
                   25530,25534,25601,25605,25656,25770,26076,26107
      27215   XC11 27174
      30035   XC12 30015
      30215   XC13 30202
      26113   XC15 26106,26123
      27172   XC17 27131,27135
      16675  10THS 16601,16614
       1212  ABC.C     0,  216,16516
      31175  ABTAB 17247,17250,17257,31175
      31134  ABTOP 17247,31134
      17522  ALPHA 17461,20234,20433,22363,24073
      17507  AN100 17532
      17461  ANLXX 20350
      30357  BGNF8 30357,30615
      25457  BGNNR 25425,25562,25566
      31447  BSRFL 16637
      16705  BTDC1 16711
      16713  BTDCX 16702
      27764  C10BF 27721
      27722  C10BT 27720
      27724  C10IN 27766
      66330  CDIM.   216
      27672  CDT10 27711
      27710  CDT11 27704
      27712  CDT12 27705
      27653  CDT13 27664
      27554  CHBAK 27560
      27561  CHOUT 27555
      27566  CLASS 26611,27011,27041,27047,27332,27447,27527,27622,27703,27716
      24056  CPYK1 24062
      24044  CPYNX 24041
      24042  CPYNY 24046
      26174  D21XX 26075,26153,26162,26331,26333,26335,26337
      25634  D2BOL 25554
      25515  D2LXX 25552
      25560  D2OCT 25556
      25627  D2TXH 25621
      25661  D2YXX 25657,25767
      25664  D2YXY 25422,25777,26003,26231
1                    MAD I FOR CTSS ... R M GRAHAM ... FEB 1964                  03/15/69 1107.8 PAGE 18
                        POST PROCESSOR ASSEMBLY DATA

      26000  D2YYY 25774
       1130  DIM.C     0,  216,16534,20113
      20162  DRM10 20136,20162
      25344  DSCAN 17543,17710,20256,20276,20337,20357,20445,20556,20610,20732,21120,21204,21425,21545,21640,22746,23334
                   23403,24202
      30014  DUMER 30002,30011
      27767  DUMMY 17553,17606,21452,22755,23236,24210
      16701  EOFCT 17076,17105,20010,20017,32077,32122
      31476  EOFXX 22020,22036
        155  EQ.CT 20102,21513,21515
      30306  ER105 30244
      30310  ER106 30242
      31552  ER10X 17431,31552
      31557  ER11X 26346,31557
      31566  ER12X 21774,22511,22556,22714,25403,31566
      31575  ER13X 17470,17515,21753,22245,24101,31575
      31605  ER14X 22123,22227,22232,22235,22425,22446,26112,26116,26121,26172,31605
      31613  ER15X 17551,17563,17567,17604,17623,17627,17642,17657,17701,17721,17736,20307,20367,20373,20377,20410,20414
                   20512,20565,20752,20762,20766,21124,21130,21250,21261,21275,21301,21440,21444,21467,21473,21506,21525
                   21701,21712,21734,22076,22267,22316,22356,22410,22411,22503,22522,22527,22573,22577,22600,22616,22656
                   22670,22753,23003,23030,23073,23124,23135,23141,23164,23206,23212,23216,23247,23253,23257,23263,23267
                   23277,23302,23311,23446,23743,23775,24053,24206,24217,24244,24250,24262,25464,25476,25514,25517,25525
                   25531,25532,25536,25636,25643,25772,25775,26140,26460,26565,26623,26637,26661,30031,30113,30151,31613
      31623  ER16X 20067,21037,31623
      31632  ER17X 20072,21031,31632
      31640  ER18X 20076,31640
      31651  ER19X 20101,20672,31651
      31656  ER20X 20104,31656
      31664  ER21X 27207,31664
      31667  ER22X 22000,30174,31667
      31673  ER23X 17446,31673
      31677  ER24X 20574,23701,31677
      31710  ER25X 20662,21101,21112,21176,21352,21407,23543,31710
      31716  ER26X 24275,31716
      31722  ER27X 22663,25565,25573,25624,25631,25653,25674,25750,25765,31722
      31727  ER28X 17450,31727
      31735  ER29X 24131,31735
      31741  ER30X 24150,24164,31741
      31746  ER31X 21053,31746
      31754  ER32X 17345,31754
      31760  ER33X 17452,31760
      31764  ER34X 21755,31764
      20156  ERRSW 30230
        310  ERS.C     0,  216,16540,20117
      31320  EXPNT 25715,25716
      31345  EXPQ8 25711
      31357  FLAGS 16642
      21662  FMTSW 21624,21664,21675
        103  FNOP.     0,21246
      23652  FORSW 20417,23640,23674
      31317  FPRCR 27045,27464,27525
      27715  GENER 21206,21315,26544,26652,27132,27242
      22216  GETDF 22063,22111,22435
      32115  GOMAN 32065,32105,32112,32114,32170
      31342  HEAD1 16633
1                    MAD I FOR CTSS ... R M GRAHAM ... FEB 1964                  03/15/69 1107.8 PAGE 19
                        POST PROCESSOR ASSEMBLY DATA

      16677  HOURS 16605,16610,16623
      31350  ID100 16763,17031,17034,17036
      31346  IDENT 16764
        152  IDNOW
      31412  IFLFA 20676,20703,21057,21061,21071,21161,21212,21222,21243,21321,21331,21332,21342,21365,21411,23554
      24327  IFNSW 20077,20670,20721,20772,21022,21025,21106,21135,21172,21325,21346,21354,23537,24323,24324,27772
         62  IFT.C     0,  216,16544,20123
      32003  .DICT 24224
      32032  .EXTF 21416,24373
      32015  .FEND 21056,21330
      32046  .FNLC
      32045  .FNOP 26152,26154
      32017  .INTF 20716
      32043  .IOFN 21635,23372,23412,23547,24404
      32037  .IOLC 21543,21654
      31766  .MPLY 26332
      32002  .MTX2 26717
      32044  .PEND 17760
      31764  .PLUS 23014,23104,23172,23767,26336,26604
      32051  .PRLG 21160,21242
      32040  .RTNB 21213,21322
      32035  .TAGA 27145
         74  LPRN.     0,17202,17204
      23733  LPSC1 23711
       1440  MST.C     0,  216,16510
      24517  MT100 24442
      24530  MT101 24623,24647,24661
      24546  MT200 24510
      24662  MT201 24563,24621
      24576  MT202 24566
      24620  MT203 24575,24617
      24622  MT204 24571,24614
      24634  MT205 24622
      24626  MT206 24641
      24630  MT207 24636
      24642  MT208 24634
      24650  MT209 24554,24556,24560
      24654  MT210 24651
      24676  MT220 24705
      24714  MT221 24710
      24723  MT222 24713,24720
      24736  MT223 24716
      24712  MT224 24722
      24725  MT225 24733
      24706  MT227 24753
      24737  MT228 24664,24666,24670
      24746  MT233 24752
      24407  MTRXA 24370
      24406  MTRXB 24375
      24433  MTRXC 24401,24405
        156  NORMD 23510,23520
      25734  NORND 25725
      25172  OCTAL 24476,24535,24773,24775,25021,25033,25056,25102
      31133  OPCD. 22117,22165,22421,24520,24652,26166,30341
      16465  OPEN1 16457,16463,16464
1                    MAD I FOR CTSS ... R M GRAHAM ... FEB 1964                  03/15/69 1107.8 PAGE 20
                        POST PROCESSOR ASSEMBLY DATA

      25465  OVER1 25442
      17707  P177X 22736
      25206  PABCR 22630,24365
      27127  PARAM 26572,26626,26732,27120
      16350  PARTI     0,16350
        144  PASS1    24
        145  PASS2 20156
        146  PASS3
      31315  PBTMR 27035,27063,27326,27443
        454  PCT.C     0,  216,16542,20121
      25210  PDIMR 17571,17646,17650,20056,20060,20062,22765,23047,23051
      25216  PERSR 17666,17670
      25220  PETTR 21431,21454,21462,21475
      25224  PIFTR 21155,21231
        310  PLT.C     0,  216,16505,20107
      25202  PMSTR 22641,22757,24366
      25212  PMTTR 16660,16662,17611,17613,17723,17725,20052,20054,22763,23035,24232,24234
      25214  PPCTR 17661
      25222  PPLTR 20776,21004,21011,21017,21304,21306
      31465  PRIME 16734,17152,17215,17301,17435
      25204  PTTTR 17747,21042,21371,21562,21630,22645,23337,23361,23405,23534,23612,23622,23633,24363,24377,26734
      32223  PWORD 32230,32236
        203  RDFLX
      17140  RE251 17125
      17141  RE252 17063
      17142  RE253 17057,17062
      17143  RE254 17124
      17103  RE255 17070,17074,17771
      17067  RE256 17064
      17124  RE261 17137
      17055  RE262 17140
      17064  RE263 17126
      17050  RE264 17053,17065,17130
      17047  RE265 17066,17131
      17127  RE266 17141
      17137  RE267 17127
      17113  RE268 17050
      17365  RE2X. 22052
      32063  READC 17346
      32251  READX 32063,32125,32261
      17401  REBAD 17377
         34  RPRN.     0,17204,17206
      31435  RTNSW 30250,30301
      27545  RVXX4 27542
      25000  SAD10 24767
      25161  SAD11 25151,25165
      25167  SAD12 25152
      25170  SAD13 25153
      31463  SAD14 25156,25163,25251,25263,25307
      25013  SAD15 25003,25007
      25025  SAD16 25016
      25054  SAD18 25074,25076,25107
      25125  SAD20 25123,25146
      24772  SAD21 24545,25126
      25075  SAD22 25071
1                    MAD I FOR CTSS ... R M GRAHAM ... FEB 1964                  03/15/69 1107.8 PAGE 21
                        POST PROCESSOR ASSEMBLY DATA

      25077  SAD23 25072
      25124  SAD24 25116
      25135  SAD25 25117
      25127  SAD26 25120
      25145  SAD27 25137
      25046  SAD30 25060
      25045  SAD31 24543,25134,25144
      22452  SAPCD 17464
      27264  SCASS 26561,27253
      27313  SCAXX 27264
      27174  SCOPE 26521
      27350  SCY25 27335,27533
      27404  SCY5X 27520
      27417  SCY61 27526
        147  SDUMP 20151,30326,30336,30340,30342,30344,30346,30350
      32165  SETGT 32126
      31466  SIGMA 16732,17156,17162,17217,17437
        153  SSSSW 23153
      27615  STADX 27600
      20225  STORA 20214,20231
      20226  STORB 20215
      20227  STORC 20216
      20232  STORD 20225
      20210  STORE 20106,20110,20112,20114,20116,20120,20122,20124
      32402  STRNG 32207,32224
      20434  T10XA 20436
      20411  T10XB 20363
      20763  T16DX 20743,20761
      21276  T20DX 21274
      21653  T34AX 21723
      23016  T45BX 23012
      23031  T45GX 23027
      23201  T45MG 23163,23173,23177
      23111  T45MW 23005
      23152  T45MX 23170,23200
      23165  T45MZ 23161
      23227  T45X1 23233
      20042  T5AXX 17763
      32160  TABMK 32071,32161,32163
      31360  TFLAD 27620,27626,27651,27663,27666,27701
      31316  TPRCR 27067,27361,27416
      24112  TRA14
      32267  TRNMS 32256
      24032  TSTSC 17537,17542,17707,17744,20073,20320,20352,20620,20650,20673,21040,21114,21424,21757,22056,22744,23464
      31354  UNTAG 22054,22161,22726
        163  UPBRK
        202  WRFLX 20147,24530,30243,30272,32255,32257
      24336  XFNSW 20074,21077,21104,21110,21174,21350,21421,23541,24327,24331,27770
      21040  XX174 21105
        211  (BFCL 20024
        207  (BFRD 32072,32115
        210  (BFWR 17071,17100,20003,20012
      25352 ADCHAR 26340
      24312 ADDANL 20261,20311,21145,21210,21233,21317,23240,23347,24221,26551,26677,26714,26722,26744,26776,27001,27030
                   27056,27137,27142,27271,27274,27305,27436,27611,27614,27675,30065,30116,30204
1                    MAD I FOR CTSS ... R M GRAHAM ... FEB 1964                  03/15/69 1107.8 PAGE 22
                        POST PROCESSOR ASSEMBLY DATA

      26233 ALOPND 22661,26176
      30654 BGNF12 22156,30341,30654,30764
      42351 BUFFER   216,30252,30256,30261,30267,30273,30337
      27762 C10XIT 27715,27717
        620 CDIMTB   216
      27617 CDLTRA 20346,20614,24026
      26446 CHARAC 25352
        200 CHNCOM 16365
        204 CHNXIT 16410,16477,17077,17106,17123,20011,20020,20027,20040,22033,32100,32123
      17135 C.O.DE 16416,16417
      26447 CMPMTX 20257,20277,20340,20464,20611,21205,21314,21557,21656,23335,23747,24001,24004,24020
        161 COMLOC
         24 COMORG     0,   24
      31456 CONTFL 17504,22741,24124
      24055 CPYBAK 20527,23765,24002,24047
      25467 D2OVER 25434
      17464 DEFSWT 22243,22247,22272,22470
        201 DELFIL 16411,16415,16452,16460,20042
      24434 DIAMTX 16721,20105
      24113 DICTRY 17745,20233,20254,20274,20317,20351,20636,20656,21116,21177,21353,21541,21626,22742,23332,23357,23401
                   23544,23610
      31461 DIGTSW 17473
      30344 DMP222 30335
      30355 DMP223 30333
      30356 DMP224 30330
      31453 DPNXFL 16655,16715,20154,23324,30352
      30353 DUMPXT 30325,30327
      30322 DUMPXX 30275
      30325 DUMPXZ 16716,20155
      23640 ENDSMT 20253,20271,20303,20316,20552,20566,20615,20643,20667,21171,21220,21403,21602,21752,22743,23354,23400
                   23445,23640,30303
      31475 EOFFLG 16651,16727,17424,22017,22021,22037
      31473 EOFINS 16650,17422,21754,22022,22035
      31460 ERASFL 17506,17556,17664,21527
      31462 ERDPFL 16652,22723,23326,30322
      31416 ERRXX1 30222
      31417 ERRXX2 30223
      31420 ERRXX3 30225
      31421 ERRXX4 30226
      30317 ERRXX5 16665,16746
      30320 ERRXX6 16667,16750
      30321 ERRXX7 16671,16744
      31364 ETYCNT 20700,20730,21051,21073,21113,21344
      16440 FENCE. 16361
      16366 F..MAD 16355,16402,16403,16743,22005,22010,22025,22026,22041,32073,32074,32116,32117
      21670 FMTSW1 21662
      31350 FRSTMP 30343,31350
        214 GETCOM 16352,16421
      22217 GETDFX 22417
      30245 GETERC 30233
      16674 GETIME 16553
        144 GETMAD     0,  144
      22374 GTMODE 22251,22256,22300,22304,22326,22342
      22405 GTOPNC 22253,22302,22337
        167 HICOM.
1                    MAD I FOR CTSS ... R M GRAHAM ... FEB 1964                  03/15/69 1107.8 PAGE 23
                        POST PROCESSOR ASSEMBLY DATA

        151 INSERT 25310
      31314 INVREL 27544
      21746 IOEXIT 21707,23555
      31477 IRSAVE
      31425 ITRFOR 20723,21026
      31426 ITRIF1 20725,21032
      31427 ITRIF2 20727,21033
      32016 .CONST 23107,23421,23434
      31770 .EQUAL 20467,26163
      32033 .GONEB 27723,27764
      32027 .GZROB 27722,27765
      32036 .IFNTY 21150,21236
      32022 .LPARN 26053
      31765 .MINUS 23010,23075,26334
      32021 .RPARN 21546,26074
      32011 .RSTLC 23127
      32010 .SAVLC 23040
      32052 .SRRTN 23553
      32030 .XFNTY 21141
      31423 LAMBDA 20767,21000,21013,23054,24076,24176,25357,25361,25364,26201,26203,26206
      31500 LASTMP 30343,31500
      32264 LINCT1 22011,22013,22043,32237,32241
      32271 LINSW1 32066,32106,32124
        174 LIST.F 16443,16450,16465
      23676 LOOPFL 20415,21725
      23711 LOOPSC 21737,23671
         14 LPRIM.     0,17212
      16374 LSTFIL 16357,16453,16454
       1130 MARKER     0,17140,17141
      31415 MAXLNG 24252,24303,24307
      23527 MODTAB 23476,23477
      23523 MODXXX 23476,23523
      31452 MTRXFL 16656,22737,23316,24434
       3410 MTXBUF     0,  216,17047,17056,17060,17137,17141,17143,17774,17777
      17133 MTX.FL 16412,16413,17072,17073,17101,17102,17115,17116,20004,20005,20013,20014,20025,20026,20032,20033,20043
                   20044
      16040 MTXLNG     0,  216,17047,17050,17056,17060,17137,17140,17141,17774,17777
        171 MTXOVF 17107,17111,17762,20021,20023,20046,30331
      31451 MXOPFL 22277,22452,24422
      25417 N1OPND 22657,25413
      25421 N2OPND 22626,25415
      16500 NOLIST 16466
      16371 NOPRIM 16364
      17346 P1STRT 16672,17344,17354,22034
      16717 P1XXXX 23325
      24300 PASS58 24276
      31431 PBLCKR 21661,21667,30021,30155
      31457 PGCMFL 17505,17554,23453
        173 P.FNAM 16354,16471,16472,16626,16670
      32214 POLISH 32151,32212
        170 PRGTVS
      30015 PRLIST 21575,26751,27262
      24754 PRSSAD 24512,24527
        164 PRSTRT
      25226 PSCPTR 20427
1                    MAD I FOR CTSS ... R M GRAHAM ... FEB 1964                  03/15/69 1107.8 PAGE 24
                        POST PROCESSOR ASSEMBLY DATA

      31432 PSINGR 21660,21666,30017,30043,30166
      17046 RECLOS 17766
      31446 REMKFL 16663,16725,17413,17415,17417,17425,17427,22014,22016
      22053 REMKSV 22015,22050
        177 RESETF
      31430 SAVTRA 20675,21074
        310 SCPT.C     0,  216,16546,20125
      27464 SCX155 27503
      27477 SCX156 27461
      27374 SCY255 27356
      27361 SCY256 27400
        150 SEARCH 25262
      27600 SETADD 27243,27315
        205 SETMEM 16351
      31353 SKPSW.
        172 SPRINT 16630,16632,17341
      16350 START.   144
        154 STFLAD 16645,21553,21556,21574,23364,23367,23377,23570,23573,30157
      42270 STLREG   216,16641,20047,20051,20055,20057,24264,24266,24272,24301,24302,24304,24306
        165 SUCCES
      31434 SVETYS 20701,21072,21343
      31433 SVPRLG 20677,21070,21341
      16376 SYMFIL 16360,16461,16462
        176 SYMFSW 16446,16456
        175 SYM.FL 16356
      17756 T5ALTR 17432,21060
      17767 T5CLOS 17764
      20154 T5DUMP 20135
      31455 TAB1FL 16653,20134,23320
      31454 TAB2FL 16654,20132,23322
      77777 TABLES   216
      32263 TDUMMY 32075,32101,32107
      31355 TERMLT 17517,20273,20443,20554,24064,24067
      31474 TF.MAD 22006,22040
      31363 THISST 16741,20266,20336,21215,21400,24032
      32265 TLNCT1 22012,22042
      21671 TPFMSW 21606,21622,21673,23564
      21676 TPFSW1 21671
      16673 TRAERR 16503
      31424 TRATAG 17743,20270,20635,20655,20674,21075,21115,21217,21402,23647,23670,24126,24127,24135
        215 TTYOUT 16363
        162 TVSTRT
      27552 UCHAIN 27072,27351,27454,27640,27727
        166 UNSCCS 20157
      25366 VROPND 22634,25355
      23640 WHENSW 20334,23651
      31361 WHNCNT 20575,20577,20601
        212 (BFCOD
        206 (BFOPN 16400,16467,17113,20030,22023
        213 (EOFCT
      16370 (LFTM) 16502

0 NO ERROR IN ABOVE ASSEMBLY.
1                    MAD II FOR CTSS ... R M GRAHAM ... MAR 1964                 03/15/69 1110.0 PAGE 1

                                         PART 2 OF MAD. THIS PART ASSIGNS
                                         STORAGE, CONDENSES TABLES, ETC.
                                     ABS
             3 00011 1 20000  PAR    OPD     300011120000
             2 00016 1 20000  BLK    OPD     200016120000

                                             PROGRAM PARAMETERS

                       01130  MTTAB  EQU     600           MT TABLE SIZE
                       01130  DIMTAB EQU     600           DIM TABLE SIZE
                       00310  ERSTAB EQU     200           ERS TABLE SIZE
                       00454  PCTTAB EQU     300           PCT TABLE SIZE
                       00062  IFTTAB EQU     50            IFT TABLE SIZE
                       00310  SCPTTB EQU     200           SCPT TABLE SIZE
                       01212  ETTAB  EQU     650           ET TABLE SIZE
                       00310  PLTTAB EQU     200           PLT TABLE SIZE
                       01440  CMSTTB EQU     800           CMST TABLE SIZE
                       00400  CTTTAB EQU     256           CTT TABLE SIZE
                       01212  CABCTB EQU     650           CABC TABLE SIZE
                       00620  DIMVTB EQU     400           DIMVEC TABLE SIZE
                       00620  CDIMTB SYN     DIMVTB           CDIM TABLE SIZE
                       01130  CMTTAB EQU     600           CMT TABLE SIZE
                       00454  ETELTB EQU     300           ETELTS TABLE SIZE
                       00144  ETGPMX EQU     100           MAX NO. OF ET GROUPS
                       16040  MTXLNG EQU     7200          LENGTH OF MATRIX

                                         REGIONAL TEMPORARY STORAGE

                      000144  GETMAD BOOL    144           ORIGIN OF COMMUNICATION REGION
                      013120  PART2  BOOL    13120
                       00144         ORG    GETMAD
      00144                   PASS1  BSS     1
      00145  0020 00 0 13120  PASS2  TRA     PART2
      00146                   PART3  BSS     1
      00147                   SDUMP  BSS     1             DUMMY CALL FOR DUMP
      00150  0021 00 0 15764  SEARCH TTR     SRCH2
      00151  0020 00 0 16103         TRA     INSERT
      00152                   IDNOW  BSS     1
      00153 +077461000144     PGCERS OCT     77461000144
      00154                   SYMBOL BSS     1
      00155                   ETGRPS BSS    1
      00156                   NORMMD BSS    1
      00157                   LOC233 BSS    1
      00160                   LOC1   BSS    1
                       00161  LOCEND SYN    LOC1+1
      00161                   DRAIN  BSS    1
      00162                   TTINIT BSS    1
      00163                   ERASBL BSS    1
      00164                   ADDRS  BSS    1
      00165                   SUCCES BSS     1
      00166                   TRAUNS BSS     1
      00167                   HICOM. BSS     1
      00170                   PRGTVS BSS     1
      00171                   SBTEST BSS     1
      00172                   SPRINT BSS     1
      00173                   P.FNAM BSS     1
1                    MAD II FOR CTSS ... R M GRAHAM ... MAR 1964                 03/15/69 1110.0 PAGE 2

      00174                   LIST.F BSS     1
      00175                          BSS     2             SYMBOL TABLE NAME, ETC.
      00177                   RESETF BSS     1
      00200                   CHNCOM BSS     1
      00201                   DELFIL BSS     1
      00202                   WRFLX  BSS     1
      00203                   RDFLX  BSS     1
      00204                   CHNXIT BSS     1
      00205                   SETMEM BSS     1
      00206                   (BFOPN BSS     1
      00207                   (BFRD  BSS     1
      00210                   (BFWR  BSS     1
      00211                   (BFCL  BSS     1
      00212                   (BFCOD BSS     1
      00213                   (EOFCT BSS     1
      00214                   GETCOM BSS     1
                              *      ORIGINS FOR TABLES COMMON TO ALL PARTS
                       77120  WB1    SYN     -432
                       76240  WB2    SYN     WB1-432
                       75360  B1     SYN     WB2-432
                       74500  B2     SYN     B1-432
                       73620  RB1    SYN     B2-432
                       72740  RB2    SYN     RB1-432
                       72737  CMST   SYN     RB2-1
                       71276  CTT    SYN     CMST-CMSTTB-1
                       70675  CABC   SYN     CTT-CTTTAB-1
                       67462  PLT    SYN     CABC-CABCTB-1
                       67151  CDIM   SYN     PLT-PLTTAB-1
                       66330  DIMVEC SYN     CDIM-CDIMTB-1
                       65507  INST   SYN     DIMVEC-DIMVTB-1
                       47446  MTX    SYN     INST-MTXLNG-1
                                             ORIGINS FOR TABLES COMMON TO PARTS I AND II
                       47445  ERS    SYN     MTX-1
                       47134  MT     SYN     ERS-ERSTAB-1
                       46003  DIM    SYN     MT-MTTAB-1
                       44652  PCT    SYN     DIM-DIMTAB-1
                       44175  IFT    SYN     PCT-PCTTAB-1
                       44112  SCPT   SYN     IFT-IFTTAB-1
                       43601  ET     SYN     SCPT-SCPTTB-1
                                             ORIGINS FOR TABLES INTERNAL TO PART II
                       47134  MSTBUF SYN     MT
                       42366  ETELTS SYN     ET-ETTAB-1
                       41712  ETLIST SYN     ETELTS-ETELTB
                       41546  ECLIST SYN     ETLIST-ETGPMX
                       41402  ETGFA  SYN     ECLIST-ETGPMX
                       41236  ETSPAN SYN     ETGFA-ETGPMX
                       40562  CMT    SYN     ETSPAN-ETELTB
                                             ORIGIN FOR TABLE COMMON TO PARTS I AND III
                       47445  CTTBUF SYN     ERS
                       46003  DIMCNT SYN    DIM
                       47134  MTCNT  SYN    MT
                       44652  PCTCNT SYN    PCT
                       47445  ERSCNT SYN    ERS
                       43601  ETCNT  SYN    ET
                       67462  PLTCNT SYN    PLT
                       44175  IFTCNT SYN    IFT
1                    MAD II FOR CTSS ... R M GRAHAM ... MAR 1964                 03/15/69 1110.0 PAGE 3

                       44112  SCPTCT SYN    SCPT
1                    MAD II FOR CTSS ... R M GRAHAM ... MAR 1964                 03/15/69 1110.0 PAGE 4

                       13120         ORG     PART2
      13120 -0500 00 0 00153  SEC0   CAL     PGCERS
      13121  0621 00 0 00164         STA ADDRS
      13122  0402 00 0 16330         SUB UNIT
      13123  0621 00 0 16335         STA LOWEND
      13124  0771 00 0 00022         ARS     18
      13125 -0320 00 0 16323         ANA MASKA
      13126  0602 00 0 00163         SLW     ERASBL
      13127  0602 00 0 00167         SLW     HICOM.
      13130  0600 00 0 66330         STZ DIMVEC
      13131  0600 00 0 67151         STZ CDIM
      13132  0600 00 0 40562         STZ CMT
      13133  0600 00 0 00170         STZ     PRGTVS
      13134  0074 00 4 16223         TSX     MDUMP,4
      13135  3 00000 0 13140         PAR     SEC1
      13136  3 00000 0 16264         PAR     HMAD2
      13137  3 00000 0 16337         PAR     ZERO
1                    MAD II FOR CTSS ... R M GRAHAM ... MAR 1964                 03/15/69 1110.0 PAGE 5

                                             SEC1. CONDENSE DIM TABLE TO DIMVEC AND CDIM

      13140 -0520 00 0 46003  SEC1   NZT     DIMCNT        TEST FOR EMPTY DIM TABLE
      13141  0020 00 0 13303         TRA     1B1
      13142  0534 00 2 46003         LXA     DIMCNT,2
      13143  0074 00 4 15764  1B2    TSX     SRCH2,4       SEE IF SYMBOL IS IN CDIM
      13144  0 67151 2 46003         PZE     DIM,2,CDIM
      13145  0020 00 0 13222         TRA     1B3           NOT YET IN CDIM
      13146  0500 00 2 46005         CLA     DIM+2,2       ALREADY IN CDIM
      13147  0100 00 0 13175         TZE     1B7           IS IT A VECTOR NOW
      13150  0500 00 1 67152         CLA     CDIM+1,1      NOT A VECTOR NOW
      13151 -0734 00 4 00000         PDX     0,4           LOCATION OF DIMVEC ENTRY, IF ANY
      13152  3 00000 4 13166         TXH     1B5,4,0       TEST PREVIOUS ENTRY FOR VECTOR
      13153  0534 00 4 66330         LXA     DIMVEC,4
      13154  1 00002 4 13155         TXI     *+1,4,2
      13155 -0754 00 4 00000         PXD     0,4           PREVIOUS ENTRY WAS VECTOR
      13156  0622 00 1 67152         STD     CDIM+1,1      MAKE NEW DIMVEC ENTRY
      13157  0500 00 2 46005         CLA     DIM+2,2
      13160  0601 00 4 66330         STO     DIMVEC,4
      13161  0500 00 2 46004         CLA     DIM+1,2
      13162  0771 00 0 00022         ARS     18
      13163  0601 00 4 66331         STO     DIMVEC+1,4
      13164  0634 00 4 66330         SXA     DIMVEC,4
      13165  0020 00 0 13175         TRA     1B7
      13166  0500 00 2 46005  1B5    CLA     DIM+2,2       NOT VECTOR NOW OR BEFORE
      13167  0402 00 4 66330         SUB     DIMVEC,4      CHECK FOR SAME DIMENSION VECTOR
      13170 -0100 00 0 13307         TNZ     1E1
      13171  0500 00 2 46004  1B6    CLA     DIM+1,2       CHECK FOR SAME ADDITIVE CONSTANT
      13172  0771 00 0 00022         ARS     18
      13173  0402 00 4 66331         SUB     DIMVEC+1,4
      13174 -0100 00 0 13332         TNZ     1E2
      13175  0500 00 1 67152  1B7    CLA     CDIM+1,1      TAKE LARGER LENGTH
      13176  0622 00 2 46004         STD     DIM+1,2
      13177  0340 00 2 46004         CAS     DIM+1,2
      13200  0020 00 0 13204         TRA     *+4
      13201  0020 00 0 13204         TRA     *+3
      13202  0500 00 2 46004         CLA     DIM+1,2
      13203  0601 00 1 67152         STO     CDIM+1,1
      13204  2 00003 2 13143  1B11   TIX     1B2,2,3
      13205  0534 00 1 67151         LXA     CDIM,1
      13206  3 00620 1 13417         TXH     1E5,1,CDIMTB  TEST FOR TABLE TOO LARGE
      13207  0500 00 1 67152         CLA     CDIM+1,1
      13210  0400 00 0 16330         ADD     UNIT          CHANGE ARRAYS TO ACTUAL LENGTHS
      13211  0601 00 1 67152         STO     CDIM+1,1
      13212  2 00002 1 13207         TIX     *-3,1,2
      13213  0534 00 2 66330         LXA     DIMVEC,2
      13214 -3 00000 2 13254         TXL     1B21,2,0      SEE IF ALL DIM. VECTORS ARE IN CDIM
      13215  0074 00 4 15764         TSX     SRCH2,4
      13216  0 67151 2 66330         PZE     DIMVEC,2,CDIM
      13217  0020 00 0 13365         TRA     1E4
      13220  2 00002 2 13215  1B20   TIX     *-3,2,2
      13221  0020 00 0 13254         TRA     1B21
      13222  0634 00 1 13231  1B3    SXA     1B9,1         NOT YET IN CDIM, SAVE XA
      13223  0074 00 4 15764         TSX     SRCH2,4       SEE IF IT IS IN CMST
      13224  0 72737 2 46003         PZE     DIM,2,CMST
      13225  0020 00 0 13270         TRA     1B10          NOT YET IN CMST, PUT IT IN
1                    MAD II FOR CTSS ... R M GRAHAM ... MAR 1964                 03/15/69 1110.0 PAGE 6

      13226  0500 00 1 72740         CLA     CMST+1,1      ALREADY IN CMST, SET ARRAY FLAG
      13227 -0760 00 0 00003         SSM
      13230  0601 00 1 72740         STO     CMST+1,1
      13231  0774 00 1 00000  1B9    AXT     **,1
      13232  0500 00 2 46005         CLA     DIM+2,2
      13233  0100 00 0 13244         TZE     1B12          VECTOR
      13234  0534 00 4 66330         LXA     DIMVEC,4      NOT A VECTOR, MAKE DIMVEC ENTRY
      13235  1 00002 4 13236         TXI     *+1,4,2
      13236  0601 00 4 66330         STO     DIMVEC,4
      13237  0500 00 2 46004         CLA     DIM+1,2
      13240  0771 00 0 00022         ARS     18
      13241  0601 00 4 66331         STO     DIMVEC+1,4    ADDITIVE CONSTANT
      13242 -0754 00 4 00000         PXD     0,4
      13243  0634 00 4 66330         SXA     DIMVEC,4
      13244  0622 00 2 46004  1B12   STD     DIM+1,2
      13245  0500 00 2 46003         CLA     DIM,2
      13246  0560 00 2 46004         LDQ     DIM+1,2
      13247  0074 00 4 16103         TSX     INSERT,4
      13250  3 00000 0 67151         PAR     CDIM
      13251 -0754 00 0 00000         ZAC
      13252  0625 00 1 67152         STT     CDIM+1,1      DELETE 1-LINK INDICATOR
      13253  0020 00 0 13204         TRA     1B11
      13254  0074 00 4 16223  1B21   TSX     MDUMP,4
      13255  3 00000 0 13603         PAR     SEC5
      13256  3 00000 0 16265         PAR     HSEC1
      13257  3 00000 0 16277         PAR     HDIM
      13260  3 00000 0 46003         PAR     DIM
      13261  3 00000 0 16300         PAR     HCDIM
      13262  3 00000 0 67151         PAR     CDIM
      13263  3 00000 0 16301         PAR     HDIMVC
      13264  3 00000 0 66330         PAR     DIMVEC
      13265  3 00000 0 16302         PAR     HCMST
      13266  3 00000 0 72737         PAR     CMST
      13267  3 00000 0 16337         PAR     ZERO
      13270  0502 00 0 72737  1B10   CLS     CMST          MAKE ENTRY IN CMST
      13271  0402 00 0 16330         SUB     UNIT
      13272  0767 00 0 00022         ALS     18
      13273  0131 00 0 00000         XCA
      13274  0500 00 2 46003         CLA     DIM,2
      13275  0074 00 4 16103         TSX     INSERT,4
      13276  3 00000 0 72737         PAR     CMST
      13277  0500 00 0 72737         CLA     CMST
      13300  0402 00 0 13534         SUB     4C3
      13301  0120 00 0 13556         TPL     4E3
      13302  0020 00 0 13231         TRA     1B9
      13303 -0500 00 0 13306  1B1    CAL     1D1
      13304  0630 00 0 13444         STP 4A6                SEC4
      13305  0630 00 0 15030         STP 7D4                SEC7
      13306 -3 00000 0 13603  1D1    BRA     SEC5
      13307 -0634 00 4 13315  1E1    SXD 1E3,4
      13310  0500 00 2 46003         CLA     DIM,2
      13311  0601 00 0 13320         STO 1F1
      13312  0074 00 4 15735         TSX ERROR,4
      13313  0 00014 0 13316         PZE 1F2,,12
      13314 -0534 00 4 13315         LXD 1E3,4
      13315 -3 00000 0 13171  1E3    TXL     1B6,,**       SAVES XC
1                    MAD II FOR CTSS ... R M GRAHAM ... MAR 1964                 03/15/69 1110.0 PAGE 7

      13316  606330256021     1F2    BCI     2, THE ARRAY
      13320  606060606060     1F1    BCD 1
      13321  603021626046            BCD 8 HAS OCCURRED WITH MORE THAN ONE DIMENSION VECTO
      13331  513360606060            BCD 1R.
      13332 -0634 00 4 13315  1E2    SXD 1E3,4
      13333  0500 00 2 46003         CLA     DIM,2         ARRAY NAME
      13334  0601 00 0 13351         STO 1F3
      13335  0500 00 4 46005         CLA DIM+2,4            DIMENSION VECTOR
      13336  0601 00 0 13364         STO 1F4
      13337  0074 00 4 15735         TSX ERROR,4
      13340  0 00022 0 13343         PZE 1F5,,18
      13341 -0534 00 4 13315         LXD 1E3,4
      13342  0020 00 0 13175         TRA     1B7
      13343  602431442545     1F5    BCI     6, DIMENSION INFORMATION FOR ARRAY
      13351  606060606060     1F3    BCD 1
      13352  604623236451            BCD 8 OCCURS WITH CONFLICTING SUBSCRIPTS IN ITS DIMEN
      13362  623146456065            BCD 2SION VECTOR
      13364  606060606060     1F4    BCD 1
      13365 -0634 00 4 13315  1E4    SXD 1E3,4
      13366  0500 00 2 66330         CLA     DIMVEC,2
      13367  0601 00 0 13400         STO 1F6
      13370  0074 00 4 15735         TSX ERROR,4
      13371  0 00021 0 13376         PZE 1F7,,17
      13372 -0534 00 4 13315         LXD 1E3,4
      13373  0500 00 0 15377         CLA 9A4             SET SWITCH IN SEC 9 TO IGNORE MISSING NAMES
      13374  0602 00 0 15377         SLW 9A4
      13375  0020 00 0 13220         TRA     1B20
      13376  606330256021     1F7    BCI     2, THE ARRAY
      13400  606060606060     1F6    BCD 8       HAS NOT BEEN DIMENSIONED. IT OCCURS AS TH
      13410  256024314425            BCD 7E DIMENSION VECTOR FOR ANOTHER ARRAY.
      13417  0074 00 4 15735  1E5    TSX ERROR,4
      13420  0 00017 0 13422         PZE 1F8,,15
      13421  0020 00 0 15651         TRA 13B2               PART 2 CANNOT BE CONTINUED
      13422  606330316260     1F8    BCI     8, THIS PROGRAM CONTAINS TOO MANY DISTINCT ARRAY N
      13432  214425623360            BCI     7,AMES.  COMPILATION CANNOT BE CONTINUED.
1                    MAD II FOR CTSS ... R M GRAHAM ... MAR 1964                 03/15/69 1110.0 PAGE 8

                                             SEC4. USE PCT TO ASSIGN ADDRESSES
                                         IN CMST. TAG ARRAY NAMES IN CMST. ENTER
                                         NAMES NOT ALREADY IN CMST.
                                             THIS SECTION IS EXECUTED AFTER SEC5 FOR MIT SYSTEM

      13441  0500 00 0 44652  SEC4   CLA PCTCNT             TEST FOR EMPTY PCT
      13442  0100 00 0 13516         TZE 4A1
      13443  0534 00 2 44652         LXA PCTCNT,2
      13444  3 00000 0 13454  4A6    TXH     4A3,,         TXL (SEC1) IF CDIM IS EMPTY
      13445  0074 00 4 15764         TSX SRCH2,4            SEE IF IT IS AN ARRAY
      13446  0 67151 2 44652         PZE     PCT,2,CDIM
      13447 -3 00000 0 13454  4A5    TXL     4A3,,         NOT AN ARRAY
      13450  0500 00 0 13466         CLA 4B1                ARRAY, SET SWITCH TO TXH
      13451  0602 00 0 13466         SLW 4B1
      13452  0500 00 1 67152         CLA CDIM+1,1           SAVE LENGTH
      13453  0020 00 0 13457         TRA 4A4
      13454 -0500 00 0 13447  4A3    CAL 4A5                INDIVIDUAL VARIABLE
      13455  0630 00 0 13466         STP 4B1                SET SWITCH TO TXL
      13456  0500 00 0 16330         CLA UNIT
      13457  0760 00 0 00006  4A4    COM
      13460  0400 00 0 16330         ADD     UNIT
      13461  0621 00 0 16341         STA     LENGTH          SET LENGTH
      13462  0074 00 4 15764         TSX SRCH2,4            FIND NAME IN CMST
      13463  0 72737 2 44652         PZE     PCT,2,CMST
      13464  0020 00 0 13521         TRA     4B2           NOT IN CMST,SO PUT IT IN
      13465  0500 00 1 72740  4A7    CLA     CMST+1,1      ALREADY IN CMST
      13466 -3 00000 0 13471  4B1    TXL     *+3,,
      13467 -0760 00 0 00003         SSM
      13470  0601 00 1 72740         STO CMST+1,1           SET NEGATIVE IF ARRAY
      13471 -0320 00 0 16323         ANA MASKA              RETAIN ADDRESS ONLY
      13472  0100 00 0 13475         TZE 4B5
      13473  0402 00 0 00163         SUB     ERASBL        PREVIOUS ADDRESS V. PRESENT
      13474 -0100 00 0 13535  4B6    TNZ 4E1
      13475  0500 00 0 00163  4B5    CLA     ERASBL        ASSIGN ADDRESSES
      13476  0621 00 1 72740         STA     CMST+1,1
      13477  0400 00 0 16341         ADD     LENGTH
      13500  0621 00 0 00163         STA     ERASBL
      13501 -0500 00 0 16334         CAL MASKT              ERASE 1-LINK INDICATOR
      13502  0320 00 1 72740         ANS CMST+1,1
      13503  2 00001 2 13444         TIX 4A6,2,1
      13504  0500 00 0 00164         CLA     ADDRS
      13505  0601 00 0 16340         STO     PGCTOP
      13506  0074 00 4 16223         TSX     MDUMP,4
      13507  3 00000 0 13761         PAR     SEC6
      13510  3 00000 0 16266         PAR     HSEC4
      13511  3 00000 0 16307         PAR     HPCT
      13512  3 00000 0 44652         PAR     PCT
      13513  3 00000 0 16302         PAR     HCMST
      13514  3 00000 0 72737         PAR     CMST
      13515  3 00000 0 16337         PAR     ZERO
      13516  0600 00 0 00164  4A1    STZ ADDRS              SET STARTING ADDRESS TO ZERO
      13517  0600 00 0 16340         STZ     PGCTOP
      13520  0020 00 0 13761         TRA     SEC6
      13521  0500 00 0 72737  4B2    CLA     CMST          MAKE ENTRY IN CMST
      13522  0400 00 0 16330         ADD     UNIT
      13523  0767 00 0 00022         ALS     18
1                    MAD II FOR CTSS ... R M GRAHAM ... MAR 1964                 03/15/69 1110.0 PAGE 9

      13524  0131 00 0 00000         XCA
      13525  0500 00 2 44652         CLA     PCT,2
      13526  0074 00 4 16103         TSX     INSERT,4
      13527  3 00000 0 72737         PAR     CMST
      13530  0500 00 0 72737         CLA     CMST          CHECK FOR TABLE SIZE EXCEEDED
      13531  0402 00 0 13534         SUB     4C3
      13532  0120 00 0 13556         TPL     4E3
      13533  0020 00 0 13465         TRA     4A7
      13534  0 00000 0 01441  4C3    PZE     CMSTTB+1
      13535 -0634 00 4 13543  4E1    SXD 4E2,4
      13536  0500 00 2 44652         CLA     PCT,2
      13537  0601 00 0 13546         STO 4F2
      13540  0074 00 4 15735         TSX ERROR,4
      13541  0 00012 0 13544         PZE 4F1,,10
      13542 -0534 00 4 13543         LXD 4E2,4
      13543 -3 00000 0 13475  4E2    TXL 4B6+1,,**          SAVES XC
      13544  606330256062     4F1    BCI     2, THE SYMBOL
      13546  606060606060     4F2    BCD 8       OCCURS MORE THAN ONCE IN PROGRAM COMMON.
      13556  0074 00 4 15735  4E3    TSX     ERROR,4
      13557  0 00022 0 13561         PZE     4F3,,18
      13560  0020 00 0 15651         TRA     13B2
      13561  606060606060     4F3    BCI     9,      THIS PROGRAM CONTAINS TOO MANY DISTINCT VARIABL
      13572  602145246146            BCI    9, AND/OR ARRAY NAMES.  COMPILATION CANNOT BE CONTINUED.
1                    MAD II FOR CTSS ... R M GRAHAM ... MAR 1964                 03/15/69 1110.0 PAGE 10

                                             SEC5. USE ERS TO ASSIGN ADDRESSES
                                         IN CMST. TAG ARRAY NAMES IN CMST. ENTER
                                         NAMES NOT ALREADY IN CMST.
                                             THIS SECTION IS EXECUTED AFTER SEC1 FOR MIT SYSTEM

      13603  0500 00 0 47445  SEC5   CLA ERSCNT             TEST FOR EMPTY ERS
      13604  0100 00 0 13441         TZE     SEC4
      13605  0534 00 2 47445         LXA ERSCNT,2
      13606  1 77777 2 13607         TXI *+1,2,-1           ADVANCE TO FIRST ENTRY
      13607  0500 00 0 00153  5A2    CLA PGCERS
      13610  0771 00 0 00022         ARS 18
      13611  0602 00 0 13720         SLW 5C1               INITIALIZE ERASABLE ADDRESS
      13612 -0754 00 2 00000         PXD 0,2                SET UP LOOP
      13613  0402 00 2 47444         SUB ERS-1,2
      13614  0622 00 0 13615         STD 5A3
      13615 -3 00000 2 13676  5A3    TXL 5B2,2,**           DECR=BEGINNING OF NEXT GROUP
      13616  0074 00 4 15764         TSX SRCH2,4            SEE IF IT IS AN ARRAY
      13617  0 67151 2 47445         PZE     ERS,2,CDIM
      13620 -3 00000 0 13625  5A4    TXL     5A5,,         NOT AN ARRAY
      13621  0500 00 0 13637         CLA 5B1                ARRAY, SET SWITCH TO TXH
      13622  0602 00 0 13637         SLW 5B1
      13623  0500 00 1 67152         CLA CDIM+1,1           SAVE LENGTH
      13624  0020 00 0 13630         TRA 5A6
      13625 -0500 00 0 13620  5A5    CAL 5A4                INDIVIDUAL VARIABLE
      13626  0630 00 0 13637         STP 5B1                SET SWITCH TO TXL
      13627  0500 00 0 16330         CLA UNIT
      13630  0760 00 0 00006  5A6    COM
      13631  0400 00 0 16330         ADD UNIT               FORM TWOS COMPLEMENT
      13632  0621 00 0 16341         STA LENGTH
      13633  0074 00 4 15764         TSX SRCH2,4            FIND NAME IN CMST
      13634  0 72737 2 47445         PZE     ERS,2,CMST
      13635  0020 00 0 13705         TRA     5B4           NOT IN CMST,SO PUT IT IN
      13636  0500 00 1 72740  5A7    CLA     CMST+1,1      ALREADY IN CMST
      13637 -3 00000 0 13642  5B1    TXL     *+3,,
      13640 -0760 00 0 00003         SSM
      13641  0601 00 1 72740         STO CMST+1,1           SET NEGATIVE IF ARRAY
      13642 -0320 00 0 16323         ANA MASKA              RETAIN ADDRESS ONLY
      13643  0100 00 0 13646         TZE 5B3
      13644  0402 00 0 13720         SUB 5C1
      13645 -0100 00 0 13721         TNZ 5E1
      13646  0500 00 0 13720  5B3    CLA 5C1
      13647  0621 00 1 72740         STA CMST+1,1
      13650  0400 00 0 16341         ADD LENGTH             UPDATE ERASEABLE ADDRESS
      13651  0621 00 0 13720         STA 5C1
      13652 -0500 00 0 16334         CAL MASKT
      13653  0320 00 1 72740         ANS CMST+1,1           ERASE 1-LINK INDICATOR
      13654  2 00001 2 13615         TIX 5A3,2,1            TEST FOR END OF ERS
      13655  0500 00 0 13720         CLA 5C1
      13656 -0320 00 0 16323         ANA MASKA
      13657  0340 00 0 00163         CAS ERASBL             CHOOSE LOWEST ERASEABLE BREAK
      13660  0500 00 0 00163         CLA ERASBL
      13661  0761 00 0 00000         NOP
      13662  0601 00 0 00167         STO     HICOM.
      13663  0601 00 0 00163         STO ERASBL
      13664  0074 00 4 16223         TSX     MDUMP,4
      13665  3 00000 0 13441         PAR     SEC4
1                    MAD II FOR CTSS ... R M GRAHAM ... MAR 1964                 03/15/69 1110.0 PAGE 11

      13666  3 00000 0 16267         PAR     HSEC5
      13667  3 00000 0 16310         PAR     HERS
      13670  3 00000 0 47445         PAR     ERS
      13671  3 00000 0 16300         PAR     HCDIM
      13672  3 00000 0 67151         PAR     CDIM
      13673  3 00000 0 16302         PAR     HCMST
      13674  3 00000 0 72737         PAR     CMST
      13675  3 00000 0 16337         PAR     ZERO
      13676  0500 00 0 13720  5B2    CLA 5C1                END OF GROUP
      13677  0340 00 0 00163         CAS ERASBL             CHOOSE LOWEST ERASEABLE BREAK
      13700  2 00001 2 13607         TIX 5A2,2,1
      13701  0761 00 0 00000         NOP
      13702  0601 00 0 00163         STO ERASBL
      13703  2 00001 2 13607         TIX 5A2,2,1
      13704  0000 00 0 13704         HTR *                  IMPOSSIBLE END OF LOOP
      13705  0500 00 0 72737  5B4    CLA     CMST          MAKE ENTRY IN CMST
      13706  0400 00 0 16330         ADD     UNIT
      13707  0767 00 0 00022         ALS     18
      13710  0131 00 0 00000         XCA
      13711  0500 00 2 47445         CLA     ERS,2
      13712  0074 00 4 16103         TSX     INSERT,4
      13713  3 00000 0 72737         PAR     CMST
      13714  0500 00 0 72737         CLA     CMST          CHECK FOR TABLE SIZE EXCEEDED
      13715  0402 00 0 13534         SUB     4C3
      13716  0120 00 0 13556         TPL     4E3
      13717  0020 00 0 13636         TRA     5A7
      13720  0 00000 0 00000  5C1    PZE                    TEMPORARY STORAGE
      13721 -0634 00 4 13727  5E1    SXD 5E2,4
      13722  0500 00 2 47445         CLA     ERS,2
      13723  0601 00 0 13732         STO 5F2
      13724  0074 00 4 15735         TSX ERROR,4
      13725  0 00031 0 13730         PZE 5F1,,25
      13726 -0534 00 4 13727         LXD 5E2,4
      13727 -3 00000 0 13646  5E2    TXL 5B3,,**            SAVES XC
      13730  606330256062     5F1    BCI     2, THE SYMBOL
      13732  606060606060     5F2    BCD 8       CAUSES A CONFLICTING ASSIGNMENT OF STORAG
      13742  256024642560            BCD 8E DUE TO OCCURRENCES IN MORE THAN ONE PROGRAM CO
      13752  444446456060            BCD 7MMON        AND/OR ERASABLE STATEMENT.
1                    MAD II FOR CTSS ... R M GRAHAM ... MAR 1964                 03/15/69 1110.0 PAGE 12

                                                 SEC6.  PROCESS CTT AND ET

      13761  0500 00 0 00164  SEC6   CLA ADDRS              SET INITIAL TT ADDRESS
      13762  0400 00 0 16332         ADD TTGAP              WORKING SPACE FOR PART III
      13763  0601 00 0 00164         STO ADDRS
      13764  0621 00 0 00162         STA TTINIT
      13765 -0520 00 0 71276         NZT     CTT           CHECK FOR EMPTY CTT
      13766  0020 00 0 14052         TRA     6A18
      13767  0600 00 0 47445         STZ     CTTBUF
      13770  0534 00 2 71276         LXA CTT,2              CHECK FOR USE OF FUNCTION NAMES
      13771  0074 00 4 15764  6A16   TSX     SRCH2,4           AS VARIABLE NAMES
      13772  0 72737 2 71276         PZE     CTT,2,CMST
      13773  0020 00 0 13775         TRA *+2
      13774  0074 00 4 14642         TSX 6E6,4              USED AS VARIABLE, ALSO
      13775  2 00002 2 13771         TIX 6A16,2,2
      13776  0500 00 0 44175         CLA IFTCNT             TEST FOR EMPTY IFT
      13777  0100 00 0 14147         TZE 6A20
      14000  0534 00 2 71276  6A24   LXA CTT,2
      14001 -0634 00 2 14031         SXD 6A27,2             SET SIZE OF CTTBUF
      14002  0534 00 1 16337         LXA ZERO,1
      14003  0500 00 2 71276  6A29   CLA     CTT,2         SEE IF SYMBOL IS AN INTERNAL FUNCTION
      14004  3 00000 0 14012  6A22   TXH     6A23,,        TXL (6A20) IF IFT IS EMPTY
      14005  0534 00 4 44175         LXA     IFTCNT,4
      14006  0340 00 4 44175         CAS IFT,4
      14007  0020 00 0 14011         TRA *+2
      14010  0020 00 0 14027         TRA 6A21               INTERNAL FUNCTION
      14011  2 00001 4 14006         TIX *-3,4,1
      14012 -0534 00 4 14031  6A23   LXD     6A27,4        MAKE ENTRY IN CTTBUF, EXTERNAL FUNCTION
      14013  0601 00 4 47445         STO CTTBUF,4
      14014  0500 00 2 71277         CLA CTT+1,2            SAVE CHAINING INDEX
      14015  0601 00 4 47446         STO CTTBUF+1,4
      14016  0500 00 0 00164         CLA ADDRS
      14017  0621 00 4 47446         STA CTTBUF+1,4
      14020  1 77776 4 14021         TXI *+1,4,-2
      14021 -0634 00 4 14031         SXD 6A27,4
      14022  0500 00 0 00164         CLA     ADDRS         EXTERNAL FUNCTION, ASSIGN ADDRESS
      14023  0621 00 2 71277         STA CTT+1,2
      14024  0400 00 0 16330         ADD UNIT
      14025  0601 00 0 00164         STO ADDRS              UPDATE ADDRS
      14026  1 00001 1 14027         TXI *+1,1,1            UPDATE SIZE OF TRANSFER VECTOR
      14027  2 00002 2 14003  6A21   TIX     6A29,2,2
      14030  0634 00 1 00170         SXA     PRGTVS,1
      14031  3 00000 0 14052  6A27   TXH 6A18,,**           SET TO TXL(6A20) FOR EMPTY IFT
      14032  0534 00 2 71276         LXA     CTT,2
      14033  0500 00 2 71277  6A25   CLA CTT+1,2            ASSIGN ADDRESSES TO INTERNAL
      14034 -0320 00 0 16323         ANA MASKA                  FUNCTIONS
      14035 -0100 00 0 14051         TNZ 6A28
      14036 -0534 00 4 14031         LXD 6A27,4
      14037  0500 00 2 71276         CLA CTT,2              MAKE ENTRY IN CTTBUF, INTERNAL FUNCTION
      14040  0601 00 4 47445         STO CTTBUF,4
      14041  0500 00 2 71277         CLA CTT+1,2            SAVE CHAINING INDEX
      14042  0601 00 4 47446         STO CTTBUF+1,4
      14043  0500 00 0 00164         CLA ADDRS
      14044  0621 00 4 47446         STA CTTBUF+1,4
      14045  0400 00 0 16330         ADD UNIT
      14046  0601 00 0 00164         STO ADDRS              UPDATE ADDRS
1                    MAD II FOR CTSS ... R M GRAHAM ... MAR 1964                 03/15/69 1110.0 PAGE 13

      14047  1 77776 4 14050         TXI *+1,4,-2
      14050 -0634 00 4 14031         SXD 6A27,4
      14051  2 00002 2 14033  6A28   TIX 6A25,2,2
      14052  0534 00 2 71276  6A18   LXA     CTT,2         MOVE REORDERED CTT INTO CTT
      14053  0634 00 2 47445         SXA     CTTBUF,2      SET SIZE OF SECOND COPY OF CTT
      14054  0500 00 2 47445         CLA CTTBUF,2
      14055  0601 00 2 71276         STO CTT,2
      14056  2 00001 2 14054         TIX *-2,2,1
      14057  0074 00 4 16146         TSX     SORT,4
      14060  0 00000 0 47445         PZE     CTTBUF        SORT SECOND COPY OF CTT BY INDEX
      14061  0500 00 0 00164         CLA     ADDRS         SET UP DRAIN LOCATION
      14062  0601 00 0 00161         STO DRAIN
      14063  0400 00 0 16330         ADD UNIT
      14064  0601 00 0 00164         STO ADDRS
      14065  0600 00 0 42366         STZ     ETELTS
      14066  0500 00 0 43601         CLA     ETCNT
      14067  0100 00 0 14106         TZE     6A30          TEST FOR EMPTY ET
      14070  0534 00 4 43601         LXA ETCNT,4
      14071  0534 00 2 00155         LXA ETGRPS,2
      14072 -0754 00 4 00000         PXD 0,4                SET UP STARTING INDEX OF GROUP
      14073  0601 00 2 41712  6A2    STO ETLIST,2
      14074  0600 00 2 41546         STZ ECLIST,2
      14075  0402 00 4 43601         SUB ET,4
      14076  0402 00 0 16324         SUB DEC1               INDEX OF NEXT GROUP
      14077 -0734 00 4 00000         PDX 0,4
      14100  2 00001 2 14073         TIX 6A2,2,1
      14101  0600 00 0 41712         STZ ETLIST
      14102  0534 00 2 00155         LXA ETGRPS,2
      14103  0500 00 2 41546         CLA ECLIST,2           FIND FIRST ZERO GROUP MARK
      14104  0100 00 0 14153         TZE 6A3
      14105  2 00001 2 14103  6A19   TIX *-2,2,1
      14106 -0534 00 4 42366  6A30   LXD     ETELTS,4
      14107  0600 00 0 42366         STZ     ETELTS
      14110  0634 00 4 42366         SXA     ETELTS,4
      14111  0600 00 0 41236         STZ     ETSPAN
      14112  0634 00 4 41236         SXA     ETSPAN,4
      14113  0500 00 0 00155         CLA     ETGRPS
      14114  0601 00 0 41712         STO     ETLIST
      14115  0601 00 0 41546         STO     ECLIST
      14116  0601 00 0 41402         STO     ETGFA
      14117  0074 00 4 16223         TSX     MDUMP,4
      14120  3 00000 0 15171         PAR     SEC8
      14121  3 00000 0 16270         PAR     HSEC6
      14122  3 00000 0 16313         PAR     HET
      14123  3 00000 0 43601         PAR     ET
      14124  3 00000 0 16320         PAR     HETLST
      14125  3 00000 0 41712         PAR     ETLIST
      14126  3 00000 0 16317         PAR     HECLST
      14127  3 00000 0 41546         PAR     ECLIST
      14130  3 00000 0 16316         PAR     HETLTS
      14131  3 00000 0 42366         PAR     ETELTS
      14132  3 00000 0 16315         PAR     HETGFA
      14133  3 00000 0 41402         PAR     ETGFA
      14134  3 00000 0 16314         PAR     HETSPN
      14135  3 00000 0 41236         PAR     ETSPAN
      14136  3 00000 0 16302         PAR     HCMST
1                    MAD II FOR CTSS ... R M GRAHAM ... MAR 1964                 03/15/69 1110.0 PAGE 14

      14137  3 00000 0 72737         PAR     CMST
      14140  3 00000 0 16300         PAR     HCDIM
      14141  3 00000 0 67151         PAR     CDIM
      14142  3 00000 0 16303         PAR     HCTT
      14143  3 00000 0 71276         PAR     CTT
      14144  3 00000 0 16321         PAR     HCTBUF
      14145  3 00000 0 47445         PAR     CTTBUF
      14146  3 00000 0 16337         PAR     ZERO
      14147 -0500 00 0 14152  6A20   CAL *+3                SET SWITCHES FOR EMPTY IFT
      14150  0630 00 0 14004         STP 6A22
      14151  0630 00 0 14031         STP 6A27
      14152 -3 00000 0 14000         TXL     6A24,,
      14153 -0634 00 2 14450  6A3    SXD 6C1,2              REMEMBER INDEX OF FIRST GROUP
      14154  0502 00 0 16330         CLS UNIT
      14155  0601 00 2 41546         STO ECLIST,2           SET GROUP MARK TO -1
      14156  0600 00 0 42366         STZ ETELTS             ERASE LIST OF ELEMENTS
      14157  0600 00 2 41402         STZ ETGFA,2            SET GROUP FLOATING ADDRESS
      14160 -0534 00 2 14450  6A4    LXD 6C1,2              LOOK FOR NEGATIVE GROUP MARK
      14161  0500 00 2 41546         CLA ECLIST,2
      14162 -0120 00 0 14165         TMI 6A5
      14163  2 00001 2 14161         TIX *-2,2,1
      14164  0020 00 0 14252         TRA 6B1                EQUIVALENCE CLASS NOW DETERMINED
      14165  0602 00 2 41546  6A5    SLW ECLIST,2           ERASE NEGATIVE MARK
      14166 -0634 00 2 14451         SXD 6C2,2              REMEMBER GROUP INDEX
      14167  0500 00 2 41712         CLA ETLIST,2           OBTAIN GROUP ADDRESS
      14170 -0734 00 4 00000         PDX 0,4
      14171  0500 00 2 41713         CLA ETLIST+1,2
      14172  0622 00 0 14174         STD 6A6                SET END OF GROUP TEST
      14173  1 77777 4 14174         TXI *+1,4,-1           MOVE TO FIRST ELT OF GROUP
      14174 -3 00000 4 14160  6A6    TXL 6A4,4,**           END OF GROUP TEST
      14175 -0534 00 2 14451         LXD 6C2,2              RESTORE XB
      14176 -0534 00 1 42366         LXD ETELTS,1
      14177  0500 00 4 43601         CLA ET,4
      14200 -3 00000 1 14206         TXL 6A8,1,0            TEST FOR EMPTY ELT LIST
      14201  0340 00 1 42366  6A10   CAS ETELTS,1
      14202  0020 00 0 14204         TRA *+2
      14203  0020 00 0 14245         TRA 6A9                ALREADY IN ELT LIST
      14204  2 00002 1 14201         TIX 6A10,1,2
      14205 -0534 00 1 42366         LXD ETELTS,1
      14206  1 00002 1 14207  6A8    TXI *+1,1,2
      14207  3 00454 1 14552         TXH 6E4,1,ETELTB
      14210 -0634 00 1 42366         SXD ETELTS,1           UPDATE ETELTS COUNT
      14211  0601 00 1 42366         STO ETELTS,1           ENTER NEW ELEMENT
      14212  0500 00 4 43602         CLA ET+1,4
      14213  0400 00 2 41402         ADD ETGFA,2
      14214  0601 00 1 42367         STO ETELTS+1,1         COMPUTE RELATIVE ADDRESS
      14215  0601 00 0 14453         STO 6C4
      14216 -0534 00 2 14450         LXD 6C1,2              LOOK FOR OTHER OCCURRENCES
      14217  0500 00 2 41546  6A13   CLA ECLIST,2           FIND ZERO GROUP MARKS
      14220 -0100 00 0 14234         TNZ 6A12
      14221  0500 00 2 41713         CLA ETLIST+1,2
      14222  0622 00 0 14227         STD 6A11
      14223  0500 00 2 41712         CLA ETLIST,2
      14224 -0734 00 1 00000         PDX 0,1
      14225  1 77777 1 14226         TXI *+1,1,-1
      14226  0500 00 4 43601         CLA ET,4
1                    MAD II FOR CTSS ... R M GRAHAM ... MAR 1964                 03/15/69 1110.0 PAGE 15

      14227 -3 00000 1 14234  6A11   TXL 6A12,1,**          END OF GROUP TEST
      14230  0340 00 1 43601         CAS ET,1
      14231  0020 00 0 14233         TRA *+2
      14232  0020 00 0 14237         TRA 6A14               OCCURRENCE FOUND
      14233  2 00002 1 14227         TIX 6A11,1,2
      14234  2 00001 2 14217  6A12   TIX 6A13,2,1
      14235  2 00002 4 14174  6A15   TIX 6A6,4,2
      14236  0020 00 0 14160         TRA 6A4
      14237  0502 00 0 16330  6A14   CLS UNIT
      14240  0601 00 2 41546         STO ECLIST,2           SET GROUP MARK NEGATIVE
      14241  0500 00 0 14453         CLA 6C4
      14242  0402 00 1 43602         SUB ET+1,1             COMPUTE FLOATING ADDRESS FOR
      14243  0601 00 2 41402         STO ETGFA,2                THIS GROUP
      14244  0020 00 0 14234         TRA 6A12               GO TO SEARCH NEXT GROUP
      14245  0500 00 4 43602  6A9    CLA ET+1,4             TEST FOR CONFLICTING ASSIGNMENTS
      14246  0400 00 2 41402         ADD ETGFA,2
      14247  0402 00 1 42367         SUB ETELTS+1,1
      14250 -0100 00 0 14527         TNZ 6E3                CONFLICT
      14251  0020 00 0 14235         TRA 6A15               GO TO NEXT ELEMENT
      14252 -0534 00 2 42366  6B1    LXD ETELTS,2           FIND SPAN OF ARRAYS AND ANY
      14253  0500 00 0 14360         CLA 6B5                    PRE-ASSIGNED ADDRESSES
      14254  0602 00 0 14360         SLW 6B5                SET SWITCHES TO TXH
      14255  0630 00 0 14307         STP 6B14
      14256  0074 00 4 15764  6B2    TSX     SRCH2,4
      14257  0 67151 2 42366         PZE     ETELTS,2,CDIM
      14260 -3 00000 0 14266  6B3    TXL     6B4,,         NOT AN ARRAY
      14261  0500 00 0 14276         CLA 6B6                ARRAY, SET SWITCH TO TXH
      14262  0602 00 0 14276         SLW 6B6
      14263  0500 00 1 67152         CLA CDIM+1,1
      14264 -0320 00 0 16323         ANA MASKA
      14265  0020 00 0 14271         TRA 6B7
      14266 -0500 00 0 14260  6B4    CAL 6B3                INDIVIDUAL VARIABLE
      14267  0630 00 0 14276         STP 6B6                SET SWITCH TO TXL
      14270  0500 00 0 16330         CLA UNIT
      14271  0601 00 2 41236  6B7    STO ETSPAN,2           SAVE DIMENSION
      14272  0074 00 4 15764         TSX SRCH2,4
      14273  0 72737 2 42366         PZE     ETELTS,2,CMST FIND NAME IN CMST
      14274  0020 00 0 14435         TRA     6B22          NOT IN CMST,SO PUT IT IN
      14275  0500 00 1 72740  6B23   CLA     CMST+1,1      ALREADY IN CMST
      14276 -3 00000 0 14301  6B6    TXL     *+3,,
      14277 -0760 00 0 00003         SSM
      14300  0601 00 1 72740         STO CMST+1,1           SET NEGATIVE IF ARRAY
      14301 -0500 00 0 16334         CAL MASKT
      14302  0320 00 1 72740         ANS CMST+1,1
      14303  0500 00 1 72740         CLA CMST+1,1
      14304 -0320 00 0 16323         ANA MASKA
      14305 -0100 00 0 14360         TNZ 6B5                CHECK FOR EXISTING ADDRESS
      14306  2 00002 2 14256  6B8    TIX 6B2,2,2
      14307  3 00000 0 14367  6B14   TXH     6B15,,
      14310 -0534 00 2 42366         LXD ETELTS,2           NO PREVIOUS ADDRESSES
      14311  0600 00 0 14454         STZ 6C5
      14312  0600 00 0 14451         STZ 6C2
      14313  0500 00 2 41236  6B9    CLA ETSPAN,2           FIND LARGEST SPAN NEEDED
      14314  0402 00 2 42367         SUB ETELTS+1,2
      14315  0340 00 0 14454         CAS 6C5
      14316  0601 00 0 14454         STO 6C5
1                    MAD II FOR CTSS ... R M GRAHAM ... MAR 1964                 03/15/69 1110.0 PAGE 16

      14317  0761 00 0 00000         NOP
      14320  0500 00 2 42367         CLA ETELTS+1,2
      14321  0340 00 0 14451         CAS 6C2
      14322  0601 00 0 14451         STO 6C2
      14323  0761 00 0 00000         NOP
      14324  2 00002 2 14313         TIX 6B9,2,2
      14325  0500 00 0 14454         CLA 6C5
      14326  0402 00 0 16330         SUB UNIT
      14327  0601 00 0 14454         STO 6C5                SPAN BELOW FLOATING ZERO
      14330 -0534 00 2 42366         LXD ETELTS,2
      14331  0500 00 2 42367  6B13   CLA ETELTS+1,2         COMPUTE ADDRESS OF ELT.
      14332  0400 00 0 14454         ADD 6C5
      14333  0400 00 0 00164         ADD ADDRS
      14334  0601 00 0 14452         STO 6C3
      14335  0074 00 4 15764  6B10   TSX     SRCH2,4       FIND ELT IN CMST
      14336  0 72737 2 42366         PZE     ETELTS,2,CMST
      14337  0020 00 0 14600         TRA 6E5                SHOULD BE IN CMST BY NOW
      14340  0500 00 1 72740         CLA CMST+1,1
      14341 -0320 00 0 16323         ANA MASKA
      14342  0100 00 0 14346         TZE 6B11
      14343  0402 00 0 14452         SUB 6C3
      14344  0100 00 0 14350         TZE 6B12
      14345  0074 00 4 14455         TSX 6E1,4              CONFLICT
      14346  0500 00 0 14452  6B11   CLA 6C3
      14347  0621 00 1 72740         STA CMST+1,1           ASSIGN ADDRESS
      14350  2 00002 2 14331  6B12   TIX 6B13,2,2           RETURN FROM 6E1
      14351  0500 00 0 00164         CLA ADDRS              UPDATE ADDRS
      14352  0400 00 0 14451         ADD 6C2
      14353  0400 00 0 16330         ADD UNIT
      14354  0400 00 0 14454         ADD 6C5
      14355  0601 00 0 00164         STO ADDRS
      14356 -0534 00 2 14450         LXD 6C1,2
      14357  0020 00 0 14105         TRA 6A19               GO TO BEGIN NEXT EQUIVALENCE CLASS
      14360  3 00000 0 14306  6B5    TXH     6B8,,         TXH FOR FIRST TIME ONLY
      14361  0601 00 0 14451         STO 6C2                REMEMBER ADDRESS
      14362 -0500 00 0 14260         CAL 6B3
      14363  0630 00 0 14360         STP 6B5                SET TO TXL
      14364  0630 00 0 14307         STP 6B14
      14365 -0634 00 2 14454         SXD 6C5,2              REMEMBER WHICH ELT HAD ADDRESS
      14366  0020 00 0 14306         TRA 6B8
      14367  0500 00 0 14451  6B15   CLA 6C2                ASSIGN ADDRESSES
      14370 -0534 00 2 14454         LXD 6C5,2
      14371  0402 00 2 42367         SUB ETELTS+1,2
      14372  0601 00 0 14452         STO 6C3                BASE ADDRESS OF GROUP
      14373 -0534 00 2 42366         LXD ETELTS,2
      14374  0500 00 2 42367  6B20   CLA ETELTS+1,2
      14375  0400 00 0 14452         ADD 6C3                COMPUTE ADDRESS OF ELT
      14376  0601 00 0 14451         STO 6C2
      14377  0402 00 0 16335         SUB LOWEND
      14400  0402 00 2 41236         SUB ETSPAN,2           CHECK FOR OFF LIMITS
      14401 -0120 00 0 14663         TMI 6E7
      14402  0500 00 0 00153         CLA PGCERS
      14403  0760 00 0 00003         SSP
      14404  0771 00 0 00022         ARS 18
      14405  0402 00 0 14451         SUB 6C2
      14406 -0120 00 0 14713         TMI 6E8
1                    MAD II FOR CTSS ... R M GRAHAM ... MAR 1964                 03/15/69 1110.0 PAGE 17

      14407  0500 00 0 16340         CLA     PGCTOP        TEST FOR OVERLAP OF
      14410  0402 00 0 14451         SUB     6C2               TRANSFER VECTOR
      14411  0120 00 0 14417         TPL     6B21
      14412  0500 00 0 14451         CLA 6C2                MAKE SURE ENTIRE VECTOR IS
      14413  0402 00 2 41236         SUB ETSPAN,2               HIGH ENOUGH TO BE IN ERASABLE
      14414  0400 00 0 16330         ADD UNIT
      14415  0402 00 0 00163         SUB ERASBL
      14416 -0120 00 0 14743         TMI 6E9
      14417  0074 00 4 15764  6B21   TSX     SRCH2,4       FIND ELT IN CMST
      14420  0 72737 2 42366         PZE     ETELTS,2,CMST
      14421  0020 00 0 14600         TRA 6E5                SHOULD BE IN CMST BY NOW
      14422  0500 00 1 72740         CLA CMST+1,1
      14423 -0320 00 0 16323         ANA MASKA
      14424  0100 00 0 14430         TZE 6B16               GO TO ASSIGN ADDRESS
      14425  0402 00 0 14451         SUB 6C2
      14426  0100 00 0 14432         TZE 6B17
      14427  0074 00 4 14455         TSX 6E1,4              CONFLICT
      14430  0500 00 0 14451  6B16   CLA 6C2                ASSIGN ADDRESS
      14431  0621 00 1 72740         STA CMST+1,1
      14432  2 00002 2 14374  6B17   TIX 6B20,2,2           RETURN FROM 6E1
      14433 -0534 00 2 14450         LXD 6C1,2
      14434  0020 00 0 14105         TRA 6A19
      14435  0500 00 0 72737  6B22   CLA     CMST          MAKE ENTRY IN CMST
      14436  0400 00 0 16330         ADD     UNIT
      14437  0767 00 0 00022         ALS     18
      14440  0131 00 0 00000         XCA
      14441  0500 00 2 42366         CLA     ETELTS,2
      14442  0074 00 4 16103         TSX     INSERT,4
      14443  3 00000 0 72737         PAR     CMST
      14444  0500 00 0 72737         CLA     CMST
      14445  0402 00 0 13534         SUB     4C3
      14446  0120 00 0 13556         TPL     4E3
      14447  0020 00 0 14275         TRA     6B23
      14450  0 00000 0 00000  6C1    PZE                    TEMPORARY STORAGE
      14451  0 00000 0 00000  6C2    PZE
      14452  0 00000 0 00000  6C3    PZE
      14453  0 00000 0 00000  6C4    PZE
      14454  0 00000 0 00000  6C5    PZE
      14455 -0634 00 4 14535  6E1    SXD 6E2,4
      14456 -0754 00 0 00000         PXD 0,0
      14457  0621 00 1 72740         STA CMST+1,1           DELETE CONFLICTING ADDRESS
      14460  0500 00 2 42366         CLA     ETELTS,2
      14461  0601 00 0 14470         STO 6F2
      14462  0074 00 4 15735         TSX ERROR,4
      14463  0 00041 0 14466         PZE 6F1,,33
      14464 -0534 00 4 14535         LXD 6E2,4
      14465  0020 00 4 00003         TRA 3,4
      14466  606330256062     6F1    BCI     2, THE SYMBOL
      14470  606060606060     6F2    BCD 8       CAUSES A CONFLICTING ASSIGNMENT OF STORAG
      14500  256024642560            BCD 8E DUE TO AN EQUIVALENCE STATEMENT WHICH IS
      14510  606060606060            BCD 8            INCONSISTENT WITH OTHER EQUVALENCE,
      14520  475146275121            BCD 7PROGRAM COMMON, OR ERASABLE STATEMENTS.
      14527 -0634 00 4 14535  6E3    SXD 6E2,4
      14530  0500 00 4 43601         CLA ET,4
      14531  0601 00 0 14540         STO 6F4
      14532  0074 00 4 15735         TSX ERROR,4
1                    MAD II FOR CTSS ... R M GRAHAM ... MAR 1964                 03/15/69 1110.0 PAGE 18

      14533  0 00014 0 14536         PZE 6F3,,12
      14534 -0534 00 4 14535         LXD 6E2,4
      14535 -3 00000 0 14235  6E2    TXL 6A15,,**
      14536  606330256062     6F3    BCI     2, THE SYMBOL
      14540  606060606060     6F4    BCD 8        OCCURS IN CONFLICTING EQUIVALENCE DECLAR
      14550  216331464562            BCD 2ATIONS.
      14552  0074 00 4 15735  6E4    TSX ERROR,4
      14553  0 00023 0 14555         PZE     6F13,,19
      14554  0020 00 0 15651         TRA 13B2
      14555  606060606060     6F13   BCI     9,      THIS PROGRAM CONTAINS TOO MANY DISTINCT SYMBOLS
      14566  314560255064            BCD 8IN EQUIVALENCE STATEMENTS.  COMPILATION CANNOT B
      14576  256023464563            BCD 2E CONTINUED.
      14600 -0634 00 4 14535  6E5    SXD 6E2,4
      14601  0500 00 2 42366         CLA     ETELTS,2
      14602  0601 00 0 14615         STO 6F6
      14603  0074 00 4 15735         TSX     ERROR,4
      14604 -0 00033 0 14607         MZE     6F5,,27
      14605 -0534 00 4 14535         LXD 6E2,4
      14606  0020 00 0 14350         TRA     6B12
      14607  604746626231     6F5    BCI     6, POSSIBLE MACHINE ERROR. THE SYMBOL
      14615  606060606060     6F6    BCD 8       SHOULD BE IN THE CONDENSED MAIN SYMBOL TA
      14625  224325736022            BCD 8BLE, BUT IT CANNOT BE FOUND.
      14635  475125626260            BCD 5PRESS START TO SEARCH AGAIN.
      14642 -0634 00 4 14535  6E6    SXD 6E2,4
      14643  0500 00 2 71276         CLA     CTT,2
      14644  0601 00 0 14654         STO 6F8
      14645  0074 00 4 15735         TSX ERROR,4
      14646  0 00012 0 14651         PZE 6F7,,10
      14647 -0534 00 4 14535         LXD 6E2,4
      14650  0020 00 4 00001         TRA 1,4
      14651  633025602664     6F7    BCI     3,THE FUNCTION NAME
      14654  606060606060     6F8    BCI     7,      . HAS BEEN USED AS A VARIABLE NAME.
      14663 -0634 00 4 14535  6E7    SXD 6E2,4
      14664  0500 00 2 42366         CLA ETELTS,2
      14665  0601 00 0 14674         STO 6F10
      14666  0074 00 4 15735         TSX ERROR,4
      14667  0 00021 0 14672         PZE 6F9,,17
      14670 -0534 00 4 14535         LXD 6E2,4
      14671  0020 00 0 14432         TRA 6B17
      14672  606330256065     6F9    BCI     2, THE VECTOR
      14674  606060606060     6F10   BCD 8       HAS EXTENDED OFF THE LOW END OF STORAGE B
      14704  252321646225            BCD 7ECAUSE OF AN EQUIVALENCE DECLARATION.
      14713 -0634 00 4 14535  6E8    SXD 6E2,4
      14714  0500 00 2 42366         CLA ETELTS,2
      14715  0601 00 0 14724         STO 6F12
      14716  0074 00 4 15735         TSX ERROR,4
      14717  0 00021 0 14722         PZE 6F11,,17
      14720 -0534 00 4 14535         LXD 6E2,4
      14721  0020 00 0 14432         TRA 6B17
      14722  606330256065     6F11   BCI     2, THE VECTOR
      14724  606060606060     6F12   BCD 8       HAS EXTENDED OFF THE HIGH END OF STORAGE
      14734  222523216462            BCD 7BECAUSE OF AN EQUIVALENCE DECLARATION.
      14743 -0634 00 4 14535  6E9    SXD 6E2,4
      14744  0500 00 2 42366         CLA ETELTS,2
      14745  0601 00 0 14754         STO 6F14
      14746  0074 00 4 15735         TSX ERROR,4
1                    MAD II FOR CTSS ... R M GRAHAM ... MAR 1964                 03/15/69 1110.0 PAGE 19

      14747  0 00024 0 14752         PZE 6F15,,20
      14750 -0534 00 4 14535         LXD 6E2,4
      14751  0020 00 0 14432         TRA 6B17
      14752  606330256065     6F15   BCI     2, THE VECTOR
      14754  606060606060     6F14   BCD 8       SHOULD BE ENTIRELY IN PROGRAM COMMON OR E
      14764  512162212243            BCD 8RASABLE BECAUSE OF AN EQUIVALENCE DECLARATION, B
      14774  646360316260            BCI     2,UT IS NOT.
1                    MAD II FOR CTSS ... R M GRAHAM ... MAR 1964                 03/15/69 1110.0 PAGE 20


                                         SEC.7 ASSIGN ADDRESSES TO ALL REMAINING
                                         ELEMENTS OF CMST
                                             (THIS SECTION IS NOW EXECUTED AFTER SEC 8.)

      14776  0604 00 0 15261  SEC7   STI     SAVIND        SAVE INDICATORS
      14777  0500 00 0 72737         CLA     CMST          TEST FOR EMPTY CMST
      15000  0100 00 0 15052         TZE     7D13
      15001  0500 00 0 00156         CLA     NORMMD
      15002  0402 00 0 16326         SUB     FOUR
      15003 -0100 00 0 15006         TNZ     7D18          SET SWITCH
      15004  0502 00 0 15104         CLS     7D20              IF NORMAL MODE IS STATEMENT LABEL
      15005  0020 00 0 15007         TRA     *+2
      15006 -0500 00 0 15104  7D18   CAL     7D20
      15007  0601 00 0 15104         STO     7D20
      15010  0500 00 0 44112         CLA     SCPTCT        TEST FOR EMPTY SCPT
      15011 -0100 00 0 15014         TNZ     7D8
      15012 -0500 00 0 15135         CAL     7E2           SET SWITCH AT 7D10
      15013  0630 00 0 15074         STP     7D10
      15014  0534 00 2 72737  7D8    LXA CMST,2             ASSIGN ADDRESSES TO REMAINING
      15015  0500 00 2 72740  7D2    CLA CMST+1,2               ELEMENTS OF CMST
      15016 -0320 00 0 16323         ANA MASKA
      15017 -0100 00 0 15045         TNZ 7D3
      15020  0520 00 0 15107         ZET     7C3
      15021  0020 00 0 15030         TRA     7D4
      15022  0074 00 4 15764         TSX     SRCH2,4       FIND MODE
      15023  0 40562 2 72737         PZE     CMST,2,CMT
      15024  0020 00 0 15104         TRA     7D20          NOT IN CMT,CHECK NORMAL MODE
      15025  0500 00 1 40563         CLA     CMT+1,1
      15026  0402 00 0 16326         SUB     FOUR
      15027 -0100 00 0 15045         TNZ     7D3           SKIP IF NOT STATEMENT LABEL
      15030  3 00000 0 15065  7D4    TXH     7D5,,         TXL (SEC1) IF CDIM IS EMPTY
      15031  0074 00 4 15764         TSX SRCH2,4
      15032  0 67151 2 72737         PZE     CMST,2,CDIM
      15033  0020 00 0 15065         TRA 7D5                NOT AN ARRAY
      15034  0500 00 2 72740         CLA CMST+1,2           ARRAY, SET INDICATOR
      15035 -0320 00 0 16334         ANA MASKT              ERASE 1-LINK INDICATOR
      15036 -0760 00 0 00003         SSM
      15037  0601 00 2 72740         STO CMST+1,2
      15040  0500 00 1 67152         CLA CDIM+1,1           UPDATE ADDRS BY LENGTH
      15041  0400 00 0 00164  7D6    ADD ADDRS
      15042  0621 00 0 00164         STA ADDRS
      15043  0402 00 0 16330         SUB UNIT
      15044  0621 00 2 72740         STA CMST+1,2           ASSIGN ADDRESS
      15045  2 00002 2 15015  7D3    TIX 7D2,2,2
      15046  0520 00 0 15107         ZET     7C3
      15047  0020 00 0 15052         TRA     7D13
      15050 -0625 00 0 15107         STL     7C3
      15051  0020 00 0 15014         TRA     7D8
      15052  0441 00 0 15261  7D13   LDI     SAVIND        RESTORE INDICATORS
      15053  0074 00 4 16223         TSX     MDUMP,4
      15054  3 00000 0 15361         PAR     SEC9
      15055  3 00000 0 16271         PAR     HSEC7
      15056  3 00000 0 16312         PAR     HSCPT
      15057  3 00000 0 44112         PAR     SCPT
1                    MAD II FOR CTSS ... R M GRAHAM ... MAR 1964                 03/15/69 1110.0 PAGE 21

      15060  3 00000 0 16302         PAR     HCMST
      15061  3 00000 0 72737         PAR     CMST
      15062  3 00000 0 16300         PAR     HCDIM
      15063  3 00000 0 67151         PAR     CDIM
      15064  3 00000 0 16337         PAR     ZERO
      15065 -0500 00 2 72740  7D5    CAL CMST+1,2           CATCH 1-LINK CHAINS
      15066 -0320 00 0 15106         ANA     7C2
      15067 -0100 00 0 15072         TNZ 7D15
      15070  0500 00 0 16330  7D14   CLA     UNIT
      15071  0020 00 0 15041         TRA 7D6
      15072 -0500 00 0 16334  7D15   CAL     MASKT         ERASE 1-LINK INDICATOR
      15073  0320 00 2 72740         ANS     CMST+1,2
      15074  3 00000 0 15110  7D10   TXH     7E6,,         TXL (7D1) IF SCPT IS EMPTY
      15075  0534 00 4 44112         LXA SCPTCT,4
      15076  0500 00 2 72737         CLA CMST,2             SEE IF SYMBOL IS A SCOPE
      15077  0340 00 4 44112  7D12   CAS SCPT,4
      15100  0020 00 0 15102         TRA *+2
      15101  0020 00 0 15133         TRA 7D11               SCOPE,IGNORE
      15102  2 00001 4 15077         TIX 7D12,4,1
      15103  0020 00 0 15110         TRA 7E6                NOT SCOPE, SO COMMENT
      15104  3 00000 0 15030  7D20   TXH     7D4,,
      15105  0020 00 0 15045         TRA     7D3
      15106  0 00000 1 00000  7C2    PZE     0,1,0
      15107  0 00000 0 00000  7C3    PZE
      15110  3 00000 0 15125  7E6    TXH     7E7,,         SWITCH TO PRINT ONLY ONCE
      15111 -0500 00 0 15135         CAL 7E2
      15112  0630 00 0 15110         STP 7E6                SET SWITCH HERE
      15113  0074 00 4 00202         TSX     WRFLX,4
      15114  2 00013 0 15136         BLK     7F7,,11
      15115  0441 00 0 00154         LDI     SYMBOL
      15116  0054 00  100000         RFT     100000
      15117  0020 00 0 15122         TRA     *+3           DELETE PART OF COMMENT
      15120  0056 00  200000         RNT     200000        FOR SIMPLE I/O
      15121  0074 00 4 00202         TSX     WRFLX,4
      15122  2 00011 0 15151         BLK     7F9,,9
      15123  0074 00 4 00202         TSX     WRFLX,4
      15124  2 00005 0 15162         BLK     7F10,,5
      15125  0500 00 2 72737  7E7    CLA CMST,2             SET UP NAME OF VARIABLE WITH ONE
      15126  0601 00 0 15170         STO 7F8+1                  OCCURRENCE
      15127  0074 00 4 00202         TSX     WRFLX,4
      15130  0 00002 0 15167         PZE     7F8,,2
      15131  0054 00  300000         RFT     300000        DELETE DRAIN ASSIGNMENT FOR SIMPLE I/O
      15132  0020 00 0 15070         TRA     7D14
      15133  0500 00 0 00161  7D11   CLA DRAIN              ASSIGN DOWN THE DRAIN
      15134  0621 00 2 72740         STA CMST+1,2
      15135 -3 00000 0 15045  7E2    TXL     7D3,,
      15136  606330256026     7F7    BCD 8 THE FOLLOWING NAMES HAVE OCCURRED ONLY ONCE IN
      15146  633031626047            BCD 3THIS PROGRAM.
      15151  606330257060     7F9    BCI     9, THEY WILL ALL BE ASSIGNED TO THE SAME LOCATION, AND
      15162  602346444731     7F10   BCI     5, COMPILATION WILL CONTINUE.
      15167  606060606060     7F8    BCD 2
1                    MAD II FOR CTSS ... R M GRAHAM ... MAR 1964                 03/15/69 1110.0 PAGE 22

                                             SEC8. CONDENSE MT TO CMT.
                                         WATCH FOR CONSISTENCY ON DUPLICATIONS.
                                             (THIS SECTION IS NOW EXECUTED AFTER SEC 6.)

      15171  0500 00 0 47134  SEC8   CLA MTCNT              TEST FOR EMPTY MT
      15172  0100 00 0 15361         TZE SEC9
      15173  0604 00 0 15261         STI     SAVIND
      15174  0534 00 2 47134         LXA MTCNT,2
      15175  0074 00 4 15764  8A2    TSX     SRCH2,4
      15176  0 40562 2 47134         PZE     MT,2,CMT
      15177  0020 00 0 15220         TRA 8B1                NOT YET IN CMT
      15200  0500 00 2 47135         CLA MT+1,2
      15201  0402 00 1 40563         SUB CMT+1,1                ENTRY
      15202 -0100 00 0 15241         TNZ 8E1                CONFLICT, JUMP TO DIAGNOSTIC
      15203  2 00002 2 15175  8A4    TIX 8A2,2,2
      15204  0500 00 0 40562         CLA CMT
      15205  0402 00 0 15240         SUB 8C2
      15206  0120 00 0 15335         TPL 8E3                CMT  SIZE EXCEEDED
      15207  0441 00 0 15261         LDI     SAVIND
      15210  0074 00 4 16223         TSX     MDUMP,4
      15211  3 00000 0 14776         PAR     SEC7
      15212  3 00000 0 16272         PAR     HSEC8
      15213  3 00000 0 16305         PAR     HMT
      15214  3 00000 0 47134         PAR     MT
      15215  3 00000 0 16306         PAR     HCMT
      15216  3 00000 0 40562         PAR     CMT
      15217  3 00000 0 16337         PAR     ZERO
      15220  0534 00 4 40562  8B1    LXA CMT,4              MAKE ENTRY IN CMT
      15221  0500 00 0 40562         CLA CMT
      15222  0400 00 0 16325         ADD TWO
      15223  0601 00 0 40562         STO CMT                UPDATE CMT SIZE
      15224 -0634 00 4 15225  8B2    SXD *+1,4
      15225  3 00000 1 15233         TXH 8B3,1,**           POINT IN TABLE
      15226  0500 00 4 40562         CLA CMT,4
      15227  0601 00 4 40560         STO CMT-2,4            MOVE PAIR DOWN
      15230  0500 00 4 40563         CLA CMT+1,4
      15231  0601 00 4 40561         STO CMT-1,4
      15232  2 00002 4 15224         TIX 8B2,4,2
      15233  0500 00 2 47134  8B3    CLA     MT,2          MAKE NEW ENTRY
      15234  0601 00 1 40562         STO CMT,1
      15235  0500 00 2 47135         CLA MT+1,2
      15236  0601 00 1 40563         STO CMT+1,1
      15237  0020 00 0 15203         TRA 8A4
      15240  0 00000 0 01131  8C2    PZE CMTTAB+1           CMT  SIZE  + 1
                              *
                              *              NOTE - IF MODE ENTRIES OF -0 AND ANYTHING ELSE ARE
                              *              FOUND, THE ANYTHING ELSE IS GIVEN A SIGN OF MINUS (TO
                              *              SHOW WANT 2 BIT IN CMST) AND A TAG OF 1 (TO SHOW THAT
                              *              ADDRESS IS A MODE, AND NOT JUST ABSENCE OF ONE)
                              *              HOWEVER, IF ANYTHING ELSE  =-0,IS GIVEN TAG OF 0
      15241  0500 00 2 47135  8E1    CLA     MT+1,2
      15242  0560 00 1 40563         LDQ     CMT+1,1
      15243 -0120 00 0 15266         TMI     8E5
      15244  0162 00 0 15272         TQP     8E33          AC IS POS - UNLESS MQ NEG, IS ERROR
      15245  0131 00 0 00000         XCA
      15246  0044 00 0 00000         PAI
1                    MAD II FOR CTSS ... R M GRAHAM ... MAR 1964                 03/15/69 1110.0 PAGE 23

      15247  0621 00 0 15260         STA     TSTL
      15250  0131 00 0 00000         XCA
      15251  0056 00  100000         RNT     100000
      15252  0020 00 0 15262         TRA     8E6
      15253  0402 00 0 15260         SUB     TSTL          TABLE ETY IS -0 WITH TAG OF 1
      15254  0621 00 0 15260         STA     TSTL
      15255  0520 00 0 15260         ZET     TSTL
      15256  0020 00 0 15272         TRA     8E33          NOT SAME
      15257  0020 00 0 15203         TRA     8A4           ARE SAME
                              *
      15260  0 00000 0 00000  TSTL   PZE
      15261  0 00000 0 00000  SAVIND PZE
                              *
      15262 -0760 00 0 00003  8E6    SSM                   MQ IS NEG
      15263 -0501 00 0 15271         ORA     TQ1
      15264  0601 00 1 40563         STO     CMT+1,1
      15265  0020 00 0 15203         TRA     8A4
                              *
      15266  0131 00 0 00000  8E5    XCA
      15267  0120 00 0 15262         TPL     8E6
      15270  0020 00 0 15203         TRA     8A4
                              *
      15271  0 00000 1 00000  TQ1    PZE     0,1
                              *
      15272 -0634 00 4 15300  8E33   SXD     8E2,4
      15273  0500 00 2 47134         CLA     MT,2
      15274  0601 00 0 15303         STO 8F2
      15275  0074 00 4 15735         TSX ERROR,4
      15276  0 00034 0 15301         PZE 8F1,,28
      15277 -0534 00 4 15300         LXD 8E2,4
      15300 -3 00000 0 15203  8E2    TXL 8A4,,**            SAVES XC
      15301  606330256062     8F1    BCI     2, THE SYMBOL
      15303  606060606060     8F2    BCD 8       HAS OCCURRED IN MODE DECLARATIONS (POSSIB
      15313  437060216260            BCD 8LY AS STATEMENT LABELS) AND/OR VECTOR VALUE STAT
      15323  254425456362            BCD 8EMENTS            CAUSING CONFLICTING ASSIGNMENT
      15333  626046266044            BCD 2S OF MODE.
      15335  0074 00 4 15735  8E3    TSX ERROR,4
      15336  0 00021 0 15340         PZE     8F3,,17
      15337  0020 00 0 15651         TRA 13B2
      15340  606060606060     8F3    BCI     9,      THIS PROGRAM CONTAINS TOO MANY DISTINCT MODE DE
      15351  432151216331            BCD 8LARATIONS. COMPILATION CANNOT BE CONTINUED.
1                    MAD II FOR CTSS ... R M GRAHAM ... MAR 1964                 03/15/69 1110.0 PAGE 24

                                             SEC9. FIND CDIM ENTRY FOR ARRAYS.
                                             SET UP WORD IN CMST FOR PART III.

      15361  0534 00 2 72737  SEC9   LXA     CMST,2
      15362 -3 00000 2 15433         TXL 9B5,2,0            TEST FOR EMPTY CMST
      15363  0500 00 2 72740  9A1    CLA CMST+1,2
      15364  0622 00 0 15457         STD 9C2                SAVE CHAIN INDEX
      15365 -0634 00 2 15460         SXD 9C3,2              SAVE XB
      15366  0120 00 0 15455         TPL 9B1
      15367  0074 00 4 15764         TSX SRCH2,4            SEARCH CDIM
      15370  0 67151 2 72737         PZE     CMST,2,CDIM
      15371  0020 00 0 15461         TRA 9E1                SHOULD BE IN CDIM
      15372  0500 00 1 67152         CLA CDIM+1,1
      15373 -0734 00 2 00000         PDX 0,2
      15374 -3 00000 2 15455         TXL 9B1,2,0            NO DIM. VECTOR IF ARRAY IS VECTOR
      15375  0074 00 4 15764  9A2    TSX     SRCH2,4       SEARCH CMST FOR ADDRESS
      15376  0 72737 2 66330         PZE     DIMVEC,2,CMST     OF DIMENSION VECTOR
      15377 -3 00000 0 15523  9A4    TXL     9E3,,         SHOULD BE IN CMST BY NOW (SEE SEC.1)
      15400  0500 00 1 72740         CLA CMST+1,1
      15401 -0320 00 0 16323         ANA     MASKA
      15402  0402 00 2 66331         SUB     DIMVEC+1,2    SUBTRACT SUBSCRIPT
      15403  0767 00 0 00022         ALS     18
      15404 -0534 00 2 15460  9B2    LXD     9C3,2         RESTORE XB
      15405  0131 00 0 00000         XCA
      15406  0500 00 2 72740         CLA     CMST+1,2      SAVE DIM. VECTOR ADDRESS
      15407 -0734 00 4 00000         PDX     0,4               (OR ZERO) IN MSTBUF
      15410 -0600 00 4 47134         STQ     MSTBUF,4
      15411  0074 00 4 15764         TSX SRCH2,4
      15412  0 40562 2 72737         PZE     CMST,2,CMT
      15413  0020 00 0 15453         TRA 9B4                NOT IN CMT, NORMAL MODE
      15414  0500 00 1 40563         CLA CMT+1,1            PUT MODE INTO WORD
      15415  0120 00 0 15417         TPL     9B3
      15416  0100 00 0 15451         TZE     9B4A
      15417  0767 00 0 00017  9B3    ALS 15
      15420  0625 00 2 72740         STT     CMST+1,2
      15421  0120 00 0 15424         TPL     *+3
      15422 -0500 00 0 15532         CAL     PON           IF NEG,
      15423 -0602 00 2 72740         ORS     CMST+1,2      SET 2 BIT IN CMST
      15424  2 00002 2 15363         TIX 9A1,2,2
      15425  0074 00 4 16146         TSX     SORT,4        SORT CMST BY INDEX
      15426  0 00000 0 72737         PZE     CMST
      15427  0534 00 2 72737         LXA     CMST,2        SET DIM. VECTOR ADDRESS IN CMST
      15430  0500 00 2 47135         CLA     MSTBUF+1,2
      15431  0622 00 2 72740         STD     CMST+1,2
      15432  2 00002 2 15430         TIX     *-2,2,2
      15433  0074 00 4 16223  9B5    TSX     MDUMP,4
      15434  3 00000 0 15533         PAR     SEC10
      15435  3 00000 0 16273         PAR     HSEC9
      15436  3 00000 0 16322         PAR     HMSTBF
      15437  3 00000 0 47134         PAR     MSTBUF
      15440  3 00000 0 16302         PAR     HCMST
      15441  3 00000 0 72737         PAR     CMST
      15442  3 00000 0 16300         PAR     HCDIM
      15443  3 00000 0 67151         PAR     CDIM
      15444  3 00000 0 16301         PAR     HDIMVC
      15445  3 00000 0 66330         PAR     DIMVEC
1                    MAD II FOR CTSS ... R M GRAHAM ... MAR 1964                 03/15/69 1110.0 PAGE 25

      15446  3 00000 0 16306         PAR     HCMT
      15447  3 00000 0 40562         PAR     CMT
      15450  3 00000 0 16337         PAR     ZERO
                              *
      15451  0502 00 0 00156  9B4A   CLS     NORMMD
      15452  0020 00 0 15417         TRA     9B3
                              *
      15453  0500 00 0 00156  9B4    CLA NORMMD             PICK UP NORMAL MODE
      15454  0020 00 0 15417         TRA 9B3
      15455 -0754 00 0 00000  9B1    PXD 0,0                SET TO CLEAR DECREMENT
      15456  0020 00 0 15404         TRA 9B2
      15457  0 00000 0 00000  9C2    PZE
      15460  0 00000 0 00000  9C3    PZE
      15461 -0634 00 4 15300  9E1    SXD 8E2,4
      15462  0500 00 2 72737         CLA     CMST,2
      15463  0601 00 0 15476         STO 9F2
      15464  0074 00 4 15735         TSX     ERROR,4
      15465 -0 00033 0 15470         MZE     9F1,,9F3-9F1
      15466 -0534 00 4 15300         LXD 8E2,4
      15467  0020 00 0 15455         TRA     9B1
      15470  604746626231     9F1    BCI     6, POSSIBLE MACHINE ERROR. THE SYMBOL
      15476  606060606060     9F2    BCD 8       SHOULD BE IN THE CONDENSED DIMENSION TABL
      15506  257360226463            BCD 8E, BUT IT CANNOT BE FOUND.
      15516  475125626260            BCI     5,PRESS START TO SEARCH AGAIN.
                       15523  9F3    SYN     *
      15523 -0634 00 4 15300  9E3    SXD 8E2,4
      15524  0500 00 2 66330         CLA     DIMVEC,2
      15525  0601 00 0 14615         STO 6F6
      15526  0074 00 4 15735         TSX     ERROR,4
      15527 -0 00033 0 14607         MZE     6F5,,27
      15530 -0534 00 4 15300         LXD 8E2,4
      15531  0020 00 0 15455         TRA     9B1
                              *
      15532  1 00000 0 00000  PON    PON
1                    MAD II FOR CTSS ... R M GRAHAM ... MAR 1964                 03/15/69 1110.0 PAGE 26

                                             SEC10.  SET UP WORD IN CTT AND CTTBUF FOR PART III.

      15533 -0520 00 0 71276  SEC10  NZT     CTT
      15534  0020 00 0 15572         TRA     SEC11
      15535  0534 00 2 47445         LXA     CTTBUF,2
      15536 -0500 00 0 16334  10A2   CAL     MASKT         ERASE 1-LINK INDICATOR
      15537  0320 00 2 47446         ANS     CTTBUF+1,2
      15540  0320 00 2 71277         ANS     CTT+1,2
      15541  0074 00 4 15764         TSX SRCH2,4            FIND MODE
      15542  0 40562 2 47445         PZE     CTTBUF,2,CMT
      15543  0074 00 4 15570         TSX     10A1,4        NOT IN CMT, USE NORMAL MODE
      15544  0500 00 1 40563         CLA CMT+1,1            PUT MODE INTO WORD
      15545  0767 00 0 00017         ALS     15
      15546 -0602 00 2 47446         ORS     CTTBUF+1,2
      15547  0074 00 4 15764         TSX     SRCH2,4
      15550  0 40562 2 71276         PZE     CTT,2,CMT     FIND MODE OF NAME IN CTT
      15551  0074 00 4 15570         TSX     10A1,4        NOT IN CMT, USE NORMAL MODE
      15552  0500 00 1 40563         CLA     CMT+1,1
      15553  0767 00 0 00017         ALS     15
      15554 -0602 00 2 71277         ORS     CTT+1,2
      15555  2 00002 2 15536         TIX 10A2,2,2
      15556  0074 00 4 16223         TSX     MDUMP,4
      15557  3 00000 0 15572         PAR     SEC11
      15560  3 00000 0 16274         PAR     HSEC10
      15561  3 00000 0 16321         PAR     HCTBUF
      15562  3 00000 0 47445         PAR     CTTBUF
      15563  3 00000 0 16303         PAR     HCTT
      15564  3 00000 0 71276         PAR     CTT
      15565  3 00000 0 16306         PAR     HCMT
      15566  3 00000 0 40562         PAR     CMT
      15567  3 00000 0 16337         PAR     ZERO
      15570  0500 00 0 00156  10A1   CLA NORMMD             PICK UP NORMAL MODE
      15571  0020 00 4 00002         TRA     2,4
1                    MAD II FOR CTSS ... R M GRAHAM ... MAR 1964                 03/15/69 1110.0 PAGE 27

                                             SEC11. PUT MODES IN PLT

      15572  0500 00 0 67462  SEC11  CLA PLTCNT
      15573  0100 00 0 15622         TZE    SEC13
      15574  0534 00 2 67462         LXA PLTCNT,2           SET MODES
      15575  1 77777 2 15576         TXI *+1,2,-1
      15576 -0500 00 2 67462  11A3   CAL PLT,2
      15577 -0320 00 0 16333         ANA MASKP
      15600  0100 00 0 15607         TZE 11A7
      15601  0074 00 4 15764         TSX SRCH2,4
      15602  0 40562 2 67462         PZE     PLT,2,CMT
      15603  0020 00 0 15620         TRA 11A2               NOT IN CMT, NORMAL MODE
      15604  0500 00 1 40563         CLA CMT+1,1
      15605  0767 00 0 00017  11A6   ALS 15
      15606  0601 00 2 67462         STO PLT,2
      15607  2 00001 2 15576  11A7   TIX 11A3,2,1
      15610  0074 00 4 16223         TSX     MDUMP,4
      15611  3 00000 0 15622         PAR     SEC13
      15612  3 00000 0 16275         PAR     HSEC11
      15613  3 00000 0 16311         PAR     HPLT
      15614  3 00000 0 67462         PAR     PLT
      15615  3 00000 0 16306         PAR     HCMT
      15616  3 00000 0 40562         PAR     CMT
      15617  3 00000 0 16337         PAR     ZERO
      15620  0500 00 0 00156  11A2   CLA NORMMD             PICK UP NORMAL MODE
      15621  0020 00 0 15605         TRA 11A6
1                    MAD II FOR CTSS ... R M GRAHAM ... MAR 1964                 03/15/69 1110.0 PAGE 28

                                             SEC13.        SORT ABCONS AND ASSIGN ADDRESSES.

      15622  0534 00 2 70675  SEC13  LXA     CABC,2        ASSIGN SEQUENTIAL ADDRESSES
      15623  0500 00 0 00164         CLA ADDRS
      15624 -0602 00 2 70676  13A2   ORS CABC+1,2
      15625  0400 00 0 16330         ADD UNIT
      15626  2 00002 2 15624         TIX 13A2,2,2
      15627  0601 00 0 00164         STO ADDRS
      15630  0771 00 0 00017         ARS     15            TEST FOR TOO LARGE STORAGE ALLOCATION
      15631 -0100 00 0 15712         TNZ     13E2
      15632  0534 00 2 16331         LXA ABCEND,2
      15633  0074 00 4 15764  13A3   TSX     SRCH2,4       SAVE ADDRESSES OF PERMANENT ABCONS
      15634  0 70675 2 16331         PZE     ABCEND,2,CABC
      15635  0020 00 0 15654         TRA 13E1
      15636  0500 00 1 70676         CLA CABC+1,1
      15637  0601 00 2 00161         STO LOCEND,2
      15640  2 00001 2 15633  13A1   TIX     13A3,2,1
      15641  0074 00 4 16146         TSX     SORT,4        SORT BY INDEX FOR PART III
      15642  0 00000 0 70675         PZE     CABC
      15643  0074 00 4 16223  13B1   TSX     MDUMP,4
      15644  3 00000 0 15651         PAR     13B2
      15645  3 00000 0 16276         PAR     HSEC13
      15646  3 00000 0 16304         PAR     HCABC
      15647  3 00000 0 70675         PAR     CABC
      15650  3 00000 0 16337         PAR     ZERO
      15651 -3 00000 0 00146  13B2   TXL     PART3,,
      15652  0020 00 0 00166         TRA     TRAUNS
      15653  0 00000 0 00000  13C2   PZE
      15654 -0634 00 4 15653  13E1   SXD 13C2,4
      15655  0074 00 4 15735         TSX ERROR,4
      15656 -0 00031 0 15661         MZE     13F1,,25
      15657 -0534 00 4 15653         LXD 13C2,4
      15660  0020 00 0 15640         TRA     13A1
      15661  606060606060     13F1   BCI     9,      POSSIBLE MACHINE ERROR. A PERMANENT CONSTANT WH
      15672  233060623046            BCD 8CH SHOULD BE IN THE CONDENSED TABLE OF CONSTANTS
      15702  602321454546            BCI     8, CANNOT BE  FOUND.  PRESS START TO SEARCH AGAIN.
      15712  0074 00 4 15735  13E2   TSX     ERROR,4
      15713  0 00020 0 15715         PZE     13F2,,13F3-13F2
      15714  0020 00 0 15643         TRA     13B1
      15715  626346512127     13F2   BCD 8STORAGE ALLOCATED (NOT INCLUDING OBJECT PROGRAM
      15725  314562635164            BCD 8INSTRUCTIONS) EXCEEDS AVAILABLE STORAGE.
                       15735  13F3   SYN     *
1                    MAD II FOR CTSS ... R M GRAHAM ... MAR 1964                 03/15/69 1110.0 PAGE 29


                                         ERROR SWITCH SUBROUTINE AND OUTPUT SUBROUTINES

      15735  0500 00 0 15651  ERROR  CLA     13B2
      15736  0602 00 0 15651         SLW 13B2
1                    MAD II FOR CTSS ... R M GRAHAM ... MAR 1964                 03/15/69 1110.0 PAGE 30


                                             1WT SUBROUTINE

                                             WRITES B WORDS STARTING AT A BY CALLING ON PRLINE
                                             CALLING SEQUENCE - TSX 1WT,4
                                                                PZE A,,B

      15737  0634 00 4 15760         SXA     1WT2,4
      15740  0634 00 1 15761         SXA    1WT4,1
      15741  0500 00 4 00001         CLA    1,4
      15742 -0734 00 1 00000         PDX    0,1
      15743  0621 00 0 15747         STA    1WT6
      15744  0621 00 0 15757         STA    1WT7
      15745 -2 00015 1 15755  1WT8   TNX     1WT5,1,13
      15746  0074 00 4 00202         TSX     WRFLX,4
      15747 -0 00015 0 00000  1WT6   MZE     **,,13
      15750  0534 00 4 15747         LXA    1WT6,4
      15751  1 00015 4 15752         TXI     *+1,4,13
      15752  0634 00 4 15747         SXA    1WT6,4
      15753  0634 00 4 15757         SXA    1WT7,4
      15754  0020 00 0 15745         TRA    1WT8
      15755 -0634 00 1 15757  1WT5   SXD    1WT7,1
      15756  0074 00 4 00202         TSX     WRFLX,4
      15757 -0 00000 0 00000  1WT7   MZE    **,,**
      15760  0774 00 4 00000  1WT2   AXT    **,4
      15761  0774 00 1 00000  1WT4   AXT    **,1
      15762  0020 00 4 00002         TRA    2,4
      15763  606060606060     1WT9   BCI     1,
1                    MAD II FOR CTSS ... R M GRAHAM ... MAR 1964                 03/15/69 1110.0 PAGE 31

                              *
1                    MAD II FOR CTSS ... R M GRAHAM ... MAR 1964                 03/15/69 1110.0 PAGE 32

                                         THIS SUBROUTINE SEARCHES A 2-ENTRY SORTED TABLE.
                                         CALLING SEQUENCE - TSX SRCH2,4
                                                                PZE ARG,T,TABLE
                                             WHERE T IS A TAG FOR ARG AND
                                         SIZE OF TABLE IN ADDRESS OF TABLE

                                         ON EXIT XA CONTAINS POINT IN TABLE
                                         WHERE ARG IS OR OUGHT TO BE.
      15764 -0634 00 2 16022  SRCH2  SXD SRCH7,2            SAVE XB
      15765  0500 00 4 00001         CLA 1,4
      15766  0771 00 0 00022         ARS 18
      15767  0621 00 0 16015         STA SRCH5A
      15770  0621 00 0 15772         STA SRCH5
      15771  0601 00 0 16102         STO     SRCHT         SAVE TABLE LOCATION
      15772  0500 00 0 00000  SRCH5  CLA     **
      15773 -0320 00 0 16077         ANA     SRCH6
      15774  0100 00 0 16074         TZE     SRCHU1        EMPTY TABLE
      15775  0402 00 0 16102         SUB     SRCHT
      15776  0621 00 0 16020         STA SRCHE              LOCATION OF TABLE
      15777  0621 00 0 16025         STA SRCHF
      16000  0400 00 0 16102         ADD     SRCHT
      16001  0767 00 0 00022         ALS 18
      16002  0622 00 0 16071         STD SRCH4
      16003  0622 00 0 16066         STD SRCHU5
      16004  0771 00 0 00011         ARS 9
      16005 -0501 00 0 16100         ORA PWR
      16006  0300 00 0 16100         FAD PWR
      16007  0402 00 0 16101         SUB 1BIT
      16010  0771 00 0 00033         ARS 27
      16011  0767 00 0 00001         ALS 1
      16012  0621 00 0 16014         STA     *+2
      16013 -0500 60 4 00001         CAL*    1,4
      16014  0774 00 2 00000         AXT     **,2
      16015  0535 00 1 00000  SRCH5A LAC     **,1          SIZE
      16016 -0634 00 1 16024         SXD SRCH3,1
      16017  0774 00 1 00000         AXT     0,1
      16020 -0340 00 0 00000  SRCHE  LAS     **             TABLE
      16021  0020 00 2 16070         TRA SRCHL,2
      16022  1 00000 0 16071  SRCH7  TXI SRCH4,,**          SAVES XB
      16023  1 00002 1 16066         TXI     SRCHU5,1,2    ARG IS BELOW LOWEST ENTRY
      16024 -3 00000 1 16030  SRCH3  TXL SRCH8,1,**         ASSURE RANGE
      16025 -0340 00 1 00000  SRCHF  LAS     **,1           TABLE
      16026  1 77776 2 16070         TXI SRCHL,2,-2         TRY LARGER ENTRY
      16027  1 00000 0 16071         TXI     SRCH4,,**     ENTRY FOUND
      16030  1 77776 2 16067  SRCH8  TXI SRCHR,2,-2         TRY SMALLER ENTRY
      16031  1 40000 1 16024         TXI SRCH3,1,+16384
      16032  1 40000 1 16024         TXI SRCH3,1,-16384
      16033  1 20000 1 16024         TXI SRCH3,1,+8192
      16034  1 60000 1 16024         TXI SRCH3,1,-8192
      16035  1 10000 1 16024         TXI SRCH3,1,+4096
      16036  1 70000 1 16024         TXI SRCH3,1,-4096
      16037  1 04000 1 16024         TXI SRCH3,1,+2048
      16040  1 74000 1 16024         TXI SRCH3,1,-2048
      16041  1 02000 1 16024         TXI SRCH3,1,+1024
      16042  1 76000 1 16024         TXI SRCH3,1,-1024
      16043  1 01000 1 16024         TXI SRCH3,1,+512
1                    MAD II FOR CTSS ... R M GRAHAM ... MAR 1964                 03/15/69 1110.0 PAGE 33

      16044  1 77000 1 16024         TXI SRCH3,1,-512
      16045  1 00400 1 16024         TXI SRCH3,1,+256
      16046  1 77400 1 16024         TXI SRCH3,1,-256
      16047  1 00200 1 16024         TXI SRCH3,1,+128
      16050  1 77600 1 16024         TXI SRCH3,1,-128
      16051  1 00100 1 16024         TXI SRCH3,1,+64
      16052  1 77700 1 16024         TXI SRCH3,1,-64
      16053  1 00040 1 16024         TXI SRCH3,1,+32
      16054  1 77740 1 16024         TXI SRCH3,1,-32
      16055  1 00020 1 16024         TXI SRCH3,1,+16
      16056  1 77760 1 16024         TXI SRCH3,1,-16
      16057  1 00010 1 16024         TXI SRCH3,1,+8
      16060  1 77770 1 16024         TXI SRCH3,1,-8
      16061  1 00004 1 16024         TXI SRCH3,1,+4
      16062  1 77774 1 16024         TXI SRCH3,1,-4
      16063  1 00002 1 16024         TXI SRCH3,1,+2
      16064  1 77776 1 16024         TXI SRCH3,1,-2
      16065  1 00002 1 16066         TXI *+1,1,2
      16066  1 00000 1 16075  SRCHU5 TXI SRCHU,1,**         SIZE
      16067  0020 00 2 16067  SRCHR  TRA *,2
      16070  0020 00 2 16070  SRCHL  TRA *,2
      16071  1 00000 1 16072  SRCH4  TXI *+1,1,**     SIZE
      16072 -0534 00 2 16022         LXD SRCH7,2
      16073  0020 00 4 00003         TRA 3,4
      16074  0774 00 1 00002  SRCHU1 AXT     2,1
      16075 -0534 00 2 16022  SRCHU  LXD SRCH7,2
      16076  0020 00 4 00002         TRA     2,4
      16077 +000000077777     SRCH6  OCT     77777
      16100 +222000000000     PWR    DEC 146B8
      16101 +200000000000     1BIT   DEC 2B2
      16102                   SRCHT  BSS     1
                              *              SUBROUTINE INSERT TO ADD (ACC) AND (MQ)
                              *              TO TABLE IN POSITION GIVEN BY XA.
                              *
                              *              CALLING SEQUENCE - TSX INSERT,4
                              *                                 TXH TABLE
                              *
                              *              ALSO PUTS 1 IN TAG OF (MQ).
                              *
      16103  0634 00 4 16142  INSERT SXA     IN1,4
      16104  0601 00 0 16144         STO     IN3
      16105  0500 00 4 00001         CLA     1,4
      16106  0621 00 0 16122         STA     IN2
      16107  0621 00 0 16125         STA     IN6
      16110  0621 00 0 16133         STA     IN10
      16111  0621 00 0 16137         STA     IN12
      16112  0621 00 0 16141         STA     IN13
      16113  0400 00 0 16330         ADD     UNIT
      16114  0621 00 0 16127         STA     IN8
      16115  0621 00 0 16136         STA     IN11
      16116  0402 00 0 16325         SUB     TWO
      16117  0621 00 0 16130         STA     IN9
      16120  0402 00 0 16330         SUB     UNIT
      16121  0621 00 0 16126         STA     IN7
      16122  0534 00 4 00000  IN2    LXA     **,4          (TABLE)
      16123 -0634 00 4 16124  IN4    SXD     *+1,4
1                    MAD II FOR CTSS ... R M GRAHAM ... MAR 1964                 03/15/69 1110.0 PAGE 34

      16124  3 00000 1 16132         TXH     IN5,1,**      POINT IN TABLE
      16125  0500 00 4 00000  IN6    CLA     **,4          (TABLE)
      16126  0601 00 4 00000  IN7    STO     **,4          (TABLE-2)
      16127  0500 00 4 00000  IN8    CLA     **,4          (TABLE+1)
      16130  0601 00 4 00000  IN9    STO     **,4          (TABLE-1)
      16131  2 00002 4 16123         TIX     IN4,4,2
      16132  0500 00 0 16144  IN5    CLA     IN3
      16133  0601 00 1 00000  IN10   STO     **,1          (TABLE)
      16134  0131 00 0 00000         XCA
      16135 -0501 00 0 16145         ORA     IN14          PUT 1 IN TAG
      16136  0601 00 1 00000  IN11   STO     **,1          (TABLE+1)
      16137  0534 00 4 00000  IN12   LXA     **,4          (TABLE)
      16140  1 00002 4 16141         TXI     *+1,4,2
      16141  0634 00 4 00000  IN13   SXA     **,4          (TABLE)
      16142  0774 00 4 00000  IN1    AXT     **,4
      16143  0020 00 4 00002         TRA     2,4
      16144  0 00000 0 00000  IN3    PZE
      16145 +000000100000     IN14   OCT     100000
1                    MAD II FOR CTSS ... R M GRAHAM ... MAR 1964                 03/15/69 1110.0 PAGE 35

                              *
                              *              SUBROUTINE SORT TO SORT 2-ENTRY TABLE
                              *              ON DECREMENT OF SECOND ENTRY
                              *
                              *              CALLING SEQUENCE - TSX SORT,4
                              *                                 PZE TABLE
                              *
                              *              TABLE SIZE IN ADDRESS OF TABLE
                              *
      16146  0634 00 1 16214  SORT   SXA     S1,1
      16147  0634 00 2 16215         SXA     S10,2
      16150  0500 00 4 00001         CLA     1,4
      16151  0621 00 0 16203         STA     S7
      16152  0621 00 0 16204         STA     S7+1
      16153  0621 00 0 16205         STA     S7+2
      16154  0621 00 0 16206         STA     S7+3
      16155  0400 00 0 16330         ADD     UNIT
      16156  0621 00 0 16207         STA     S7+4
      16157  0621 00 0 16210         STA     S7+5
      16160  0621 00 0 16211         STA     S7+6
      16161  0621 00 0 16212         STA     S7+7
      16162  0621 00 0 16173         STA     S8
      16163  0621 00 0 16176         STA     S9
      16164  0500 60 4 00001         CLA*    1,4           SIZE OF TABLE
      16165  0734 00 1 00000         PAX     0,1
      16166 -3 00002 1 16214  S2     TXL     S1,1,2
      16167 -0754 00 1 00000         PXD     0,1
      16170 -0734 00 2 00000         PDX     0,2
      16171  0634 00 2 16202         SXA     S5,2
      16172  1 77776 2 16173         TXI     *+1,2,-2      XB=XA-2
      16173 -0500 00 1 00000  S8     CAL     **,1          (TABLE+1)
      16174 -0320 00 0 16217         ANA     S3
      16175  0131 00 0 00000         XCA
      16176 -0500 00 2 00000  S9     CAL     **,2          (TABLE+1)
      16177 -0320 00 0 16217         ANA     S3
      16200  0040 00 0 16220         TLQ     S4            GO TO SAVE LARGER INDEX
      16201  2 00002 2 16176  S6     TIX     *-3,2,2
      16202  0774 00 2 00000  S5     AXT     **,2          SAVE NEW LARGEST ELEMENT
      16203  0500 00 1 00000  S7     CLA     **,1          (TABLE)
      16204  0560 00 2 00000         LDQ     **,2          (TABLE)
      16205  0601 00 2 00000         STO     **,2          (TABLE)
      16206 -0600 00 1 00000         STQ     **,1          (TABLE)
      16207  0500 00 1 00000         CLA     **,1          (TABLE+1)
      16210  0560 00 2 00000         LDQ     **,2          (TABLE+1)
      16211  0601 00 2 00000         STO     **,2          (TABLE+1)
      16212 -0600 00 1 00000         STQ     **,1          (TABLE+1)
      16213  2 00002 1 16166         TIX     S2,1,2
      16214  0774 00 1 00000  S1     AXT     **,1
      16215  0774 00 2 00000  S10    AXT     **,2
      16216  0020 00 4 00002         TRA     2,4
      16217 +077777000000     S3     OCT     77777000000
      16220  0131 00 0 00000  S4     XCA                   SAVE LARGER VALUE
      16221  0634 00 2 16202         SXA     S5,2          SAVE XB
      16222  0020 00 0 16201         TRA     S6
1                    MAD II FOR CTSS ... R M GRAHAM ... MAR 1964                 03/15/69 1110.0 PAGE 36

                              *
                              *      SUBROUTINE MDUMP TO PUT OUT DUMP ON REQUEST
                              *
      16223  0056 00  000004  MDUMP  RNT     4             IS DUMP REQUESTED
      16224  0020 60 4 00001         TRA*    1,4           NO
      16225  0634 00 4 16232         SXA     MD1,4         YES
      16226  0500 60 4 00002         CLA*    2,4           OBTAIN SECTION HEADING
      16227  0601 00 0 16261         STO     MD2+1
      16230  0074 00 4 00202         TSX     WRFLX,4
      16231  2 00002 0 16260         BLK     MD2,,2
      16232  0774 00 4 00000  MD1    AXT     **,4
      16233  1 77776 4 16234         TXI     *+1,4,-2
      16234  0500 60 4 00001  MD3    CLA*    1,4
      16235  0100 00 0 16256         TZE     MD5
      16236  0601 00 0 16263         STO     MD4+1
      16237  0634 00 4 16242         SXA     *+3,4
      16240  0074 00 4 00202         TSX     WRFLX,4
      16241  2 00002 0 16262         BLK     MD4,,2
      16242  0774 00 4 00000         AXT     **,4
      16243  0500 00 4 00002         CLA     2,4           COMPUTE DUMP PARAMETER
      16244  0767 00 0 00022         ALS     18
      16245  0400 00 4 00002         ADD     2,4
      16246  0402 60 4 00002         SUB*    2,4
      16247 -0320 00 0 16336         ANA     MASKP2
      16250  0601 00 0 16253         STO     *+3
      16251  0634 00 4 16254         SXA     *+3,4
      16252  0074 00 4 00147         TSX     SDUMP,4
      16253  2 00000 0 00000         BLK     **,,**
      16254  0774 00 4 00000         AXT     **,4
      16255  1 77776 4 16234         TXI     MD3,4,-2
      16256  0534 00 4 16232  MD5    LXA     MD1,4         DONE
      16257  0020 60 4 00001         TRA*    1,4
      16260  605454545454     MD2    BCI     2, *****
      16262  606060606060     MD4    BCI     2,
1                    MAD II FOR CTSS ... R M GRAHAM ... MAR 1964                 03/15/69 1110.0 PAGE 37

                                         CONSTANTS

      16264  442124600260     HMAD2  BCD 1MAD 2
      16265  622523600160     HSEC1  BCD 1SEC 1
      16266  622523600460     HSEC4  BCD 1SEC 4
      16267  622523600560     HSEC5  BCD 1SEC 5
      16270  622523600660     HSEC6  BCD 1SEC 6
      16271  622523600760     HSEC7  BCD 1SEC 7
      16272  622523601060     HSEC8  BCD 1SEC 8
      16273  622523601160     HSEC9  BCD 1SEC 9
      16274  622523600100     HSEC10 BCD 1SEC 10
      16275  622523600101     HSEC11 BCD 1SEC 11
      16276  622523600103     HSEC13 BCD 1SEC 13
      16277  243144606060     HDIM   BCD 1DIM
      16300  232431446060     HCDIM  BCD 1CDIM
      16301  243144652523     HDIMVC BCD 1DIMVEC
      16302  234462636060     HCMST  BCD 1CMST
      16303  236363606060     HCTT   BCD 1CTT
      16304  232122236060     HCABC  BCD 1CABC
      16305  446360606060     HMT    BCD 1MT
      16306  234463606060     HCMT   BCD 1CMT
      16307  472363606060     HPCT   BCD 1PCT
      16310  255162606060     HERS   BCD 1ERS
      16311  474363606060     HPLT   BCD 1PLT
      16312  622347636060     HSCPT  BCD 1SCPT
      16313  256360606060     HET    BCD 1ET
      16314  256362472145     HETSPN BCD 1ETSPAN
      16315  256327262160     HETGFA BCD 1ETGFA
      16316  256325436362     HETLTS BCD 1ETELTS
      16317  252343316263     HECLST BCD 1ECLIST
      16320  256343316263     HETLST BCD 1ETLIST
      16321  236363226426     HCTBUF BCI     1,CTTBUF
      16322  446263226426     HMSTBF BCI     1,MSTBUF
      16323 +000000077777     MASKA  OCT 77777
      16324  0 00001 0 00000  DEC1   PZE 0,0,1
      16325 +000000000002     TWO    DEC 2
      16326 +000000000004     FOUR   DEC     4
                              *
                              *              THE NEXT THREE WORDS MUST BE TOGETHER
                              *
      16327 +233000000000     ABC233 OCT 233000000000
      16330 +000000000001     UNIT   DEC 1
      16331  0 00000 0 00002  ABCEND PZE 2
      16332 +000000000024     TTGAP  DEC 20                 GAP FOR USE IN PART 3
      16333 -3 00000 0 00000  MASKP  SVN
      16334 -377777077777     MASKT  OCT 777777077777
      16335 +000000000027     LOWEND OCT 27
      16336 +277777777777     MASKP2 OCT     277777777777
      16337 +000000000000     ZERO   DEC 0
      16340  0 00000 0 00000  PGCTOP PZE
      16341  0 00000 0 00000  LENGTH PZE
                                     END
1                    MAD II FOR CTSS ... R M GRAHAM ... MAR 1964                 03/15/69 1110.0 PAGE 1
                        POST PROCESSOR ASSEMBLY DATA

      16342 IS THE FIRST LOCATION NOT USED BY THIS PROGRAM

0REFERENCES TO DEFINED SYMBOLS
      75360     B1   215
      74500     B2   215
      43601     ET   215,14075,14123,14177,14212,14226,14230,14242,14245,14530
      47134     MT   215,15176,15200,15214,15233,15235,15241,15273
      16214     S1 16146,16166
      16166     S2 16213
      16217     S3 16174,16177
      16220     S4 16200
      16202     S5 16171,16221
      16201     S6 16222
      16203     S7 16151,16152,16153,16154,16156,16157,16160,16161
      16173     S8 16162
      16176     S9 16163
      13303    1B1 13141
      13143    1B2 13204
      13222    1B3 13145
      13166    1B5 13152
      13171    1B6 13315
      13175    1B7 13147,13165,13342
      13231    1B9 13222,13302
      13306    1D1 13303
      13307    1E1 13170
      13332    1E2 13174
      13315    1E3 13307,13314,13332,13341,13365,13372
      13365    1E4 13217
      13417    1E5 13206
      13320    1F1 13311
      13316    1F2 13313
      13351    1F3 13334
      13364    1F4 13336
      13343    1F5 13340
      13400    1F6 13367
      13376    1F7 13371
      13422    1F8 13420
      13516    4A1 13442
      13454    4A3 13444,13447
      13457    4A4 13453
      13447    4A5 13454
      13444    4A6 13304,13503
      13465    4A7 13533
      13466    4B1 13450,13451,13455
      13521    4B2 13464
      13475    4B5 13472
      13474    4B6 13543
      13534    4C3 13300,13531,13715,14445
      13535    4E1 13474
      13543    4E2 13535,13542
      13556    4E3 13301,13532,13716,14446
      13544    4F1 13541
      13546    4F2 13537
      13561    4F3 13557
1                    MAD II FOR CTSS ... R M GRAHAM ... MAR 1964                 03/15/69 1110.0 PAGE 2
                        POST PROCESSOR ASSEMBLY DATA

      13607    5A2 13700,13703
      13615    5A3 13614,13654
      13620    5A4 13625
      13625    5A5 13620
      13630    5A6 13624
      13636    5A7 13717
      13637    5B1 13621,13622,13626
      13676    5B2 13615
      13646    5B3 13643,13727
      13705    5B4 13635
      13720    5C1 13611,13644,13646,13651,13655,13676
      13721    5E1 13645
      13727    5E2 13721,13726
      13730    5F1 13725
      13732    5F2 13723
      14073    6A2 14100
      14153    6A3 14104
      14160    6A4 14174,14236
      14165    6A5 14162
      14174    6A6 14172,14235
      14206    6A8 14200
      14245    6A9 14203
      14252    6B1 14164
      14256    6B2 14306
      14260    6B3 14266,14362
      14266    6B4 14260
      14360    6B5 14253,14254,14305,14363
      14276    6B6 14261,14262,14267
      14271    6B7 14265
      14306    6B8 14360,14366
      14313    6B9 14324
      14450    6C1 14153,14160,14216,14356,14433
      14451    6C2 14166,14175,14312,14321,14322,14352,14361,14367,14376,14405,14410,14412,14425,14430
      14452    6C3 14334,14343,14346,14372,14375
      14453    6C4 14215,14241
      14454    6C5 14311,14315,14316,14325,14327,14332,14354,14365,14370
      14455    6E1 14345,14427
      14535    6E2 14455,14464,14527,14534,14600,14605,14642,14647,14663,14670,14713,14720,14743,14750
      14527    6E3 14250
      14552    6E4 14207
      14600    6E5 14337,14421
      14642    6E6 13774
      14663    6E7 14401
      14713    6E8 14406
      14743    6E9 14416
      14466    6F1 14463
      14470    6F2 14461
      14536    6F3 14533
      14540    6F4 14531
      14607    6F5 14604,15527
      14615    6F6 14602,15525
      14651    6F7 14646
      14654    6F8 14644
      14672    6F9 14667
      15106    7C2 15066
1                    MAD II FOR CTSS ... R M GRAHAM ... MAR 1964                 03/15/69 1110.0 PAGE 3
                        POST PROCESSOR ASSEMBLY DATA

      15107    7C3 15020,15046,15050
      15015    7D2 15045
      15045    7D3 15017,15027,15105,15135
      15030    7D4 13305,15021,15104
      15065    7D5 15030,15033
      15041    7D6 15071
      15014    7D8 15011,15051
      15135    7E2 15012,15111
      15110    7E6 15074,15103,15112
      15125    7E7 15110
      15136    7F7 15114
      15167    7F8 15126,15130
      15151    7F9 15122
      15175    8A2 15203
      15203    8A4 15237,15257,15265,15270,15300
      15220    8B1 15177
      15224    8B2 15232
      15233    8B3 15225
      15240    8C2 15205
      15241    8E1 15202
      15300    8E2 15272,15277,15461,15466,15523,15530
      15335    8E3 15206
      15266    8E5 15243
      15262    8E6 15252,15267
      15301    8F1 15276
      15303    8F2 15274
      15340    8F3 15336
      15363    9A1 15424
      15375    9A2
      15377    9A4 13373,13374
      15455    9B1 15366,15374,15467,15531
      15404    9B2 15456
      15417    9B3 15415,15452,15454
      15453    9B4 15413
      15433    9B5 15362
      15457    9C2 15364
      15460    9C3 15365,15404
      15461    9E1 15371
      15523    9E3 15377
      15470    9F1 15465
      15476    9F2 15463
      15523    9F3 15465,15523
      40562    CMT   215,13132,15023,15025,15176,15201,15204,15216,15220,15221,15223,15226,15227,15230,15231,15234,15236
                   15242,15264,15412,15414,15447,15542,15544,15550,15552,15566,15602,15604,15616
      71276    CTT   215,13765,13770,13772,14000,14003,14014,14023,14032,14033,14037,14041,14052,14055,14143,14643,15533
                   15540,15550,15554,15564
      46003    DIM   215,13144,13146,13157,13161,13166,13171,13176,13177,13202,13224,13232,13237,13244,13245,13246,13260
                   13274,13310,13333,13335
      47445    ERS   215,13613,13617,13634,13670,13711,13722
      16313    HET 14122
      16305    HMT 15213
      44175    IFT   215,14006
      16142    IN1 16103
      16122    IN2 16106
      16144    IN3 16104,16132
1                    MAD II FOR CTSS ... R M GRAHAM ... MAR 1964                 03/15/69 1110.0 PAGE 4
                        POST PROCESSOR ASSEMBLY DATA

      16123    IN4 16131
      16132    IN5 16124
      16125    IN6 16107
      16126    IN7 16121
      16127    IN8 16114
      16130    IN9 16117
      16232    MD1 16225,16256
      16260    MD2 16227,16231
      16234    MD3 16255
      16262    MD4 16236,16241
      16256    MD5 16235
      47446    MTX   215
      44652    PCT   215,13446,13463,13512,13525,13536
      67462    PLT   215,15576,15602,15606,15614
      15532    PON 15422
      16100    PWR 16005,16006
      73620    RB1   215
      72740    RB2   215
      16215    S10 16147
      15271    TQ1 15263
      16325    TWO 15222,16116
      77120    WB1   215
      76240    WB2   215
      15570   10A1 15543,15551
      15536   10A2 15555
      15620   11A2 15603
      15576   11A3 15607
      15605   11A6 15621
      15607   11A7 15600
      15640   13A1 15660
      15624   13A2 15626
      15633   13A3 15640
      15643   13B1 15714
      15651   13B2 13421,13560,14554,15337,15644,15735,15736
      15653   13C2 15654,15657
      15654   13E1 15635
      15712   13E2 15631
      15661   13F1 15656
      15715   13F2 15713
      15735   13F3 15713,15735
      13270   1B10 13225
      13204   1B11 13253
      13244   1B12 13233
      13220   1B20 13375
      13254   1B21 13214,13221
      16101   1BIT 16007
      15760   1WT2 15737
      15761   1WT4 15740
      15755   1WT5 15745
      15747   1WT6 15743,15750,15752
      15757   1WT7 15744,15753,15755
      15745   1WT8 15754
      15763   1WT9
      14201   6A10 14204
      14227   6A11 14222,14233
1                    MAD II FOR CTSS ... R M GRAHAM ... MAR 1964                 03/15/69 1110.0 PAGE 5
                        POST PROCESSOR ASSEMBLY DATA

      14234   6A12 14220,14227,14244
      14217   6A13 14234
      14237   6A14 14232
      14235   6A15 14251,14535
      13771   6A16 13775
      14052   6A18 13766,14031
      14105   6A19 14357,14434
      14147   6A20 13777
      14027   6A21 14010
      14004   6A22 14150
      14012   6A23 14004
      14000   6A24 14152
      14033   6A25 14051
      14031   6A27 14001,14012,14021,14036,14050,14151
      14051   6A28 14035
      14003   6A29 14027
      14106   6A30 14067
      14335   6B10
      14346   6B11 14342
      14350   6B12 14344,14606
      14331   6B13 14350
      14307   6B14 14255,14364
      14367   6B15 14307
      14430   6B16 14424
      14432   6B17 14426,14671,14721,14751
      14374   6B20 14432
      14417   6B21 14411
      14435   6B22 14274
      14275   6B23 14447
      14674   6F10 14665
      14722   6F11 14717
      14724   6F12 14715
      14555   6F13 14553
      14754   6F14 14745
      14752   6F15 14747
      15074   7D10 15013
      15133   7D11 15101
      15077   7D12 15102
      15052   7D13 15000,15047
      15070   7D14 15132
      15072   7D15 15067
      15006   7D18 15003
      15104   7D20 15004,15006,15007,15024
      15162   7F10 15124
      15272   8E33 15244,15256
      15451   9B4A 15416
      70675   CABC   215,15622,15624,15634,15636,15642,15647
      67151   CDIM   215,13131,13144,13150,13156,13175,13203,13205,13207,13211,13216,13250,13252,13262,13446,13452,13617
                   13623,13672,14141,14257,14263,15032,15040,15063,15370,15372,15443
      72737   CMST   215,13224,13226,13230,13266,13270,13276,13277,13463,13465,13470,13476,13502,13514,13521,13527,13530
                   13634,13636,13641,13647,13653,13674,13705,13713,13714,13772,14137,14273,14275,14300,14302,14303,14336
                   14340,14347,14420,14422,14431,14435,14443,14444,14457,14777,15014,15015,15023,15032,15034,15037,15044
                   15061,15065,15073,15076,15125,15134,15361,15363,15370,15376,15400,15406,15412,15420,15423,15426,15427
                   15431,15441,15462
      16324   DEC1 14076
1                    MAD II FOR CTSS ... R M GRAHAM ... MAR 1964                 03/15/69 1110.0 PAGE 6
                        POST PROCESSOR ASSEMBLY DATA

      16326   FOUR 15002,15026
      16306   HCMT 15215,15446,15565,15615
      16303   HCTT 14142,15563
      16277   HDIM 13257
      16310   HERS 13667
      16307   HPCT 13511
      16311   HPLT 15613
      16133   IN10 16110
      16136   IN11 16115
      16137   IN12 16111
      16141   IN13 16112
      16145   IN14 16135
      65507   INST   215
        160   LOC1   161
      44112   SCPT   215,15057,15077
      13120   SEC0
      13140   SEC1 13135
      13441   SEC4 13604,13665
      13603   SEC5 13255,13306
      13761   SEC6 13507,13520
      14776   SEC7 15211
      15171   SEC8 14120
      15361   SEC9 15054,15172
      16146   SORT 14057,15425,15641
      15260   TSTL 15247,15253,15254,15255
      16330   UNIT 13122,13210,13271,13456,13460,13522,13627,13631,13706,14024,14045,14063,14154,14237,14270,14326,14353
                   14414,14436,15043,15070,15625,16113,16120,16155
      16337   ZERO 13137,13267,13515,13675,14002,14146,15064,15217,15450,15567,15617,15650
        164  ADDRS 13121,13504,13516,13761,13763,14016,14022,14025,14043,14046,14061,14064,14333,14351,14355,15041,15042
                   15623,15627
        161  DRAIN 14062,15133
      15735  ERROR 13312,13337,13370,13417,13540,13556,13724,14462,14532,14552,14603,14645,14666,14716,14746,15275,15335
                   15464,15526,15655,15712
      43601  ETCNT   215,14066,14070
      41402  ETGFA   215,14116,14133,14157,14213,14243,14246
       1212  ETTAB     0,  215
      16304  HCABC 15646
      16300  HCDIM 13261,13671,14140,15062,15442
      16302  HCMST 13265,13513,13673,14136,15060,15440
      16264  HMAD2 13136
      16312  HSCPT 15056
      16265  HSEC1 13256
      16266  HSEC4 13510
      16267  HSEC5 13666
      16270  HSEC6 14121
      16271  HSEC7 15055
      16272  HSEC8 15212
      16273  HSEC9 15435
        152  IDNOW
      16323  MASKA 13125,13471,13642,13656,14034,14264,14304,14341,14423,15016,15401
      16333  MASKP 15577
      16334  MASKT 13501,13652,14301,15035,15072,15536
      16223  MDUMP 13134,13254,13506,13664,14117,15053,15210,15433,15556,15610,15643
      47134  MTCNT   215,15171,15174
       1130  MTTAB     0,  215
1                    MAD II FOR CTSS ... R M GRAHAM ... MAR 1964                 03/15/69 1110.0 PAGE 7
                        POST PROCESSOR ASSEMBLY DATA

      13120  PART2     0,  145,13120
        146  PART3 15651
        144  PASS1
        145  PASS2
        203  RDFLX
        147  SDUMP 16252
      15533  SEC10 15434
      15572  SEC11 15534,15557
      15622  SEC13 15573,15611
      15764  SRCH2   150,13143,13215,13223,13445,13462,13616,13633,13771,14256,14272,14335,14417,15022,15031,15175,15367
                   15375,15411,15541,15547,15601,15633
      16024  SRCH3 16016,16031,16032,16033,16034,16035,16036,16037,16040,16041,16042,16043,16044,16045,16046,16047,16050
                   16051,16052,16053,16054,16055,16056,16057,16060,16061,16062,16063,16064
      16071  SRCH4 16002,16022,16027
      15772  SRCH5 15770
      16077  SRCH6 15773
      16022  SRCH7 15764,16072,16075
      16030  SRCH8 16024
      16020  SRCHE 15776
      16025  SRCHF 15777
      16070  SRCHL 16021,16026
      16067  SRCHR 16030
      16102  SRCHT 15771,15775,16000
      16075  SRCHU 16066
      16332  TTGAP 13762
        202  WRFLX 15113,15121,15123,15127,15746,15756,16230,16240
        211  (BFCL
        207  (BFRD
        210  (BFWR
      16327 ABC233
      16331 ABCEND 15632,15634
       1212 CABCTB     0,  215
        620 CDIMTB     0,  215,13206
        200 CHNCOM
        204 CHNXIT
       1440 CMSTTB     0,  215,13534
       1130 CMTTAB     0,15240
      47445 CTTBUF   215,13767,14013,14015,14017,14040,14042,14044,14053,14054,14060,14145,15535,15537,15542,15546,15562
        400 CTTTAB     0,  215
        201 DELFIL
      46003 DIMCNT   215,13140,13142
       1130 DIMTAB     0,  215
      66330 DIMVEC   215,13130,13153,13160,13163,13164,13167,13173,13213,13216,13234,13236,13241,13243,13264,13366,15376
                   15402,15445,15524
        620 DIMVTB     0,  215
      41546 ECLIST   215,14074,14103,14115,14127,14155,14161,14165,14217,14240
        163 ERASBL 13126,13473,13475,13500,13657,13660,13663,13677,13702,14415
      47445 ERSCNT   215,13603,13605
        310 ERSTAB     0,  215
        454 ETELTB     0,  215,14207
      42366 ETELTS   215,14065,14106,14107,14110,14131,14156,14176,14201,14205,14210,14211,14214,14247,14252,14257,14273
                   14310,14314,14320,14330,14331,14336,14371,14373,14374,14420,14441,14460,14601,14664,14714,14744
        144 ETGPMX     0,  215
        155 ETGRPS 14071,14102,14113
      41712 ETLIST   215,14073,14101,14114,14125,14167,14171,14221,14223
1                    MAD II FOR CTSS ... R M GRAHAM ... MAR 1964                 03/15/69 1110.0 PAGE 8
                        POST PROCESSOR ASSEMBLY DATA

      41236 ETSPAN   215,14111,14112,14135,14271,14313,14400,14413
        214 GETCOM
        144 GETMAD     0,  144
      16321 HCTBUF 14144,15561
      16301 HDIMVC 13263,15444
      16317 HECLST 14126
      16315 HETGFA 14132
      16320 HETLST 14124
      16316 HETLTS 14130
      16314 HETSPN 14134
        167 HICOM. 13127,13662
      16322 HMSTBF 15436
      16274 HSEC10 15560
      16275 HSEC11 15612
      16276 HSEC13 15645
      44175 IFTCNT   215,13776,14005
         62 IFTTAB     0,  215
      16103 INSERT   151,13247,13275,13526,13712,14442
      16341 LENGTH 13461,13477,13632,13650
        174 LIST.F
        157 LOC233
        161 LOCEND   161,15637
      16335 LOWEND 13123,14377
      16336 MASKP2 16247
      47134 MSTBUF   215,15410,15430,15437
      16040 MTXLNG     0,  215
        156 NORMMD 15001,15451,15453,15570,15620
      44652 PCTCNT   215,13441,13443
        454 PCTTAB     0,  215
        153 PGCERS 13120,13607,14402
      16340 PGCTOP 13505,13517,14407
        173 P.FNAM
      67462 PLTCNT   215,15572,15574
        310 PLTTAB     0,  215
        170 PRGTVS 13133,14030
        177 RESETF
      15261 SAVIND 14776,15052,15173,15207
        171 SBTEST
      44112 SCPTCT   215,15010,15075
        310 SCPTTB     0,  215
        150 SEARCH
        205 SETMEM
        172 SPRINT
      16015 SRCH5A 15767
      16074 SRCHU1 15774
      16066 SRCHU5 16003,16023
        165 SUCCES
        154 SYMBOL 15115
        166 TRAUNS 15652
        162 TTINIT 13764
        212 (BFCOD
        206 (BFOPN
        213 (EOFCT
1                    MAD II FOR CTSS ... R M GRAHAM ... MAR 1964                 03/15/69 1110.0 PAGE 9
                        POST PROCESSOR ASSEMBLY DATA

0 NO ERROR IN ABOVE ASSEMBLY.
