1     MAD PROGRAM LISTING ... ... ...                 FILE       G   MAD            02/07/68    2000.6
-
                  EXTERNAL FUNCTION                                                               *001 LM00001
                  NORMAL MODE IS INTEGER                                                          *002 LM00002
                  BOOLEAN WRKBLE                                                                  *003 LM00003
                  PROGRAM COMMON LIST(84),MAX,FROM(20),TO(20),                                    *004 LM00004
                1 FSUB(20),TSUB(20),USES(60),CURCOR,PATCH,SKIP                                    *004 LM00005
                  VECTOR VALUES CR=556060606060K                                                  *005 LM00006
                  VECTOR VALUES USER=$(USER) SAVED$                                               *006 LM00007
                  VECTOR VALUES TTR=0021K8                                                        *007 LM00008
                  VECTOR VALUES FRESH=$*FRESH SAVED$                                              *008 LM00009
                  VECTOR VALUES MADBUG=$(MDBG) SAVED$                                             *009 LM00010
                                                                                                       LM00011
                 GO TO USER PROGRAM                                                                    LM00012
                                                                                                       LM00013
                  ENTRY TO G.                                                                     *010 LM00014
                  SPACE.                                                                          *011 LM00015
                  LOAD.                                                                           *012 LM00016
                  BRKREG.(FIRST,COUNT)                                                            *013 LM00017
                  WHENEVER LIST(LIST).NE.CR                                                       *014 LM00018
                  FWRKBL.                                                                         *015 LM00019
                  GETSL.(NUM,ERROR)                                                               *016 LM00020
                  COM(2)=SNLOC.(NUM)                                                              *017 LM00021
                  SPACE.                                                                          *018 LM00022
                  WHENEVER LIST(LIST).NE.CR,SYNTAX.                                               *019 LM00023
                  WHENEVER COM(2).E.SNLOC.(1),COM(2)=COM(2)+1                                     *020 LM00024
                  OTHERWISE                                                                       *021 LM00025
                  COM(2)=0                                                                        *022 LM00026
                  END OF CONDITIONAL                                                              *023 LM00027
                                                                                                       LM00028
                  FLAG=BRK.(FIRST)                                                                *024 LM00029
                  WDITCH.($INS$)                                                                  *025 LM00030
                  WDITCH.($BRK$)                                                                  *026 LM00031
                  WDITCH.($VAR$)                                                                  *027 LM00032
                  WDITCH.($COMMON$)                                                               *028 LM00033
                                                                                                       LM00034
                  WHENEVER FLAG.E.0                                                               *029 LM00035
                  WSETUP.($TEMP$,USER,2,32)                                                       *030 LM00036
                  LOC=ENTRY.($(MDBG)$)                                                            *031 LM00037
                  WSEEK.($TEMP$)                                                                  *032 LM00038
                  WHENEVER COM(2).E.0                                                             *033 LM00039
                  WHENEVER WGET.(32).E.0                                                          *034 LM00040
                  WSET.(31,LOC-2)                                                                 *035 LM00041
                  WSET.(32,1)                                                                     *036 LM00042
                  END OF CONDITIONAL                                                              *037 LM00043
                  PRINT.(COM1)                                                                    *038 LM00044
                  VECTOR VALUES COM1=29,$USER WILL SOON BE IN CONTROL.$                           *039 LM00045
                  OTHERWISE                                                                       *040 LM00046
                  WSET.(1,LOC-3)                                                                  *041 LM00047
                  END OF CONDITIONAL                                                              *042 LM00048
                  WDITCH.($TEMP$)                                                                 *043 LM00049
                  END OF CONDITIONAL                                                              *044 LM00050
                                                                                                       LM00051
                  CHMODE.(USER,0)                                                                 *045 LM00052
                  VECTOR VALUES COM=$RESUME(USER)$,0,777777777777K                                *046 LM00053
                  XEQ.(1,COM)                                                                     *047 LM00054
                                                                                                       LM00055
                  WHENEVER FSTAT.(USER).E.0                                                       *048 LM00056
                  PRINT.(LOST)                                                                    *049 LM00057
                  VECTOR VALUES LOST=38,$MANUAL RESTART.  USER CORE IMAGE LOST.                   *050 LM00058
                1 $                                                                               *050 LM00059
                  PRINT.(RESUME)                                                                  *051 LM00060
                  VECTOR VALUES RESUME=25,$*FRESH HAS BEEN RESTORED.$                             *052 LM00061
                  COPY.(FRESH,USER)                                                               *053 LM00062
                  DELETE.(MADBUG)                                                                 *054 LM00063
                  PRINT.(0)                                                                       *055 LM00064
                  READY.                                                                          *056 LM00065
                  END OF CONDITIONAL                                                              *057 LM00066
                                                                                                       LM00067
                  LIST=0                                                                          *058 LM00068
                  FLAG=BRK.(FIRST)                                                                *059 LM00069
                  WHENEVER FLAG.L.0.OR.FLAG.G.12,FLAG=0                                           *060 LM00070
                  ADDCOM.(WHY(7*FLAG))                                                            *061 LM00071
                  VECTOR VALUES WHY=21,$MANUAL RESTART.  USER            $,                       *062 LM00072
                1 22,$BREAKPOINT ENCOUNTERED            $,                                        *062 LM00073
                2 24,$ARRAY DIMENSION EXCEEDED            $,                                      *062 LM00074
                3 15,$INTERRUPT WHILE                     $,                                      *062 LM00075
                4 13,$DORMNT CALLED                       $,                                      *062 LM00076
                5 11,$DEAD CALLED                         $,                                      *062 LM00077
                6 11,$EXIT CALLED                         $,                                      *062 LM00078
                7 13,$ENDJOB CALLED                       $                                       *062 LM00079
                  VECTOR VALUES WHY(56)=                                                          *063 LM00080
                1 12,$ERROR CALLED                        $,                                      *063 LM00081
                2 33,$DOUBLE PRECISION ODD ADDRESS TRAP   $,                                      *063 LM00082
                3 32,$FLOATING POINT DIVIDE CHECK TRAP    $,                                      *063 LM00083
                4 31,$FLOATING POINT AC OVERFLOW TRAP     $,                                      *063 LM00084
                4 31,$FLOATING POINT MQ OVERFLOW TRAP     $                                       *063 LM00085
                                                                                                       LM00086
                  WHENEVER FLAG.E.0                                                               *064 LM00087
                  WSETUP.($TEMP$,USER,2,1)                                                        *065 LM00088
                  ABSLOC=WGET.(1).A.77777K                                                        *066 LM00089
                  WDITCH.($TEMP$)                                                                 *067 LM00090
                  DELETE.(MADBUG)                                                                 *068 LM00091
                  THROUGH STEP,FOR I=1,1,I.G.10                                                   *069 LM00092
                  WSETUP.($TEMP$,USER,ABSLOC+SKIP+1,1)                                            *070 LM00093
                  INST=WGET.(1)                                                                   *071 LM00094
                  WDITCH.($TEMP$)                                                                 *072 LM00095
                  WHENEVER INST.A.7000007K5.NE.7K11.AND.INST.A.7777767K5.NE.                      *073 LM00096
                1 21K8,TRANSFER TO NOSTEP                                                         *073 LM00097
      STEP        ABSLOC=INST.A.77777K                                                            *074 LM00098
      NOSTEP      CONTINUE                                                                        *075 LM00099
                                                                                                       LM00100
                  OTHERWISE                                                                       *076 LM00101
                  ABSLOC=BRK.(FIRST+1).A.77777K                                                   *077 LM00102
                  END OF CONDITIONAL                                                              *078 LM00103
                                                                                                       LM00104
                  INPROG=ORGNAM.(ABSLOC)                                                          *079 LM00105
                  GWORKA.(WRKING)                                                                 *080 LM00106
                  LTJUST.(WRKING)                                                                 *081 LM00107
                  WHENEVER WRKING.NE.INPROG                                                       *082 LM00108
                  WHENEVER WRKBLE.(INPROG)                                                        *083 LM00109
                  WORK(1)=$WORK 0$.V.(INPROG.RS.30)                                               *084 LM00110
                  WORK(2)=$00000 $.V.(INPROG.LS.6)                                                *085 LM00111
                  PRINT.(WORK)                                                                    *086 LM00112
                  VECTOR VALUES WORK=11,$WORK ******$                                             *087 LM00113
                  SWORK.(INPROG)                                                                  *088 LM00114
                  OTHERWISE                                                                       *089 LM00115
                  ADDCOM.(UNWRK)                                                                  *090 LM00116
                  VECTOR VALUES UNWRK=12,$ IN PROGRAM $                                           *091 LM00117
                  ADDNAM.(INPROG)                                                                 *092 LM00118
                  END OF CONDITIONAL                                                              *093 LM00119
                  END OF CONDITIONAL                                                              *094 LM00120
                                                                                                       LM00121
                  WHENEVER WRKBLE.(INPROG),MAP.($PROG$,PFIRST,COUNT)                              *095 LM00122
                  WHENEVER WRKBLE.(INPROG).AND.ABSLOC.GE.PFIRST.AND                               *096 LM00123
                1 .ABSLOC.L.PFIRST+COUNT                                                          *096 LM00124
                  NUM=SNNAM.(ABSLOC)                                                              *097 LM00125
                  PFIRST=SNLOC.(NUM)                                                              *098 LM00126
                  WHENEVER ABSLOC.E.PFIRST                                                        *099 LM00127
                  ADDCOM.(AT)                                                                     *100 LM00128
                  VECTOR VALUES AT=14,$ AT STATEMENT $                                            *101 LM00129
                  OTHERWISE                                                                       *102 LM00130
                  ADDCOM.(WITHIN)                                                                 *103 LM00131
                  VECTOR VALUES WITHIN=18,$ WITHIN STATEMENT $                                    *104 LM00132
                  END OF CONDITIONAL                                                              *105 LM00133
                  ADDSL.(NUM)                                                                     *106 LM00134
                  OTHERWISE                                                                       *107 LM00135
                  ORG.(INPROG,START,COUNT)                                                        *108 LM00136
                  RELLOC=ABSLOC-START                                                             *109 LM00137
                  ADDCOM.(JUSTAT)                                                                 *110 LM00138
                  VECTOR VALUES JUSTAT=4,$ AT $                                                   *111 LM00139
                  ADDOCT.(RELLOC)                                                                 *112 LM00140
                  ADDCOM.(RELOCT)                                                                 *113 LM00141
                  VECTOR VALUES RELOCT=15,$ RELATIVE OCTAL$                                       *114 LM00142
                  END OF CONDITIONAL                                                              *115 LM00143
                                                                                                       LM00144
                  WHENEVER FLAG.E.2                                                               *116 LM00145
                  ADDCOM.(COM3)                                                                   *117 LM00146
                  VECTOR VALUES COM3=19,$ BY A REFERENCE TO $                                     *118 LM00147
                  ADDNAM.(VARNAM.(BRK.(FIRST+2).A.77777K))                                        *119 LM00148
                  LIST=LIST+1                                                                     *120 LM00149
                  LIST(LIST)=$($                                                                  *121 LM00150
                  ADDNUM.(BRK.(FIRST+1).RS.18)                                                    *122 LM00151
                  LIST=LIST+1                                                                     *123 LM00152
                  LIST(LIST)=$)$                                                                  *124 LM00153
                  END OF CONDITIONAL                                                              *125 LM00154
                                                                                                       LM00155
                  ADDCOM.(COM2)                                                                   *126 LM00156
                  VECTOR VALUES COM2=1,$.$                                                        *127 LM00157
                  CRTYPE.                                                                         *128 LM00158
                  PRINT.(0)                                                                       *129 LM00159
                  READY.                                                                          *130 LM00160
                                                                                                       LM00161
      ERROR       PRINT.(COM4)                                                                    *131 LM00162
                  VECTOR VALUES COM4=10,$TRY AGAIN.$                                              *132 LM00163
                  READY.                                                                          *133 LM00164
                                                                                                       LM00165
                  END OF FUNCTION                                                                 *134 LM00166
1MAD PROGRAM,TYPE NOV 1963      (ALL NUMBERS ARE OCTAL)
0TOTAL LOCATIONS   01111 TRANSFER VECTOR LENGTH  00045 PROGRAM BEGINS    00353 FIRST UNUSED COMMON/ERASABLE  77107
0 PROGRAM IS AN EXTERNAL FUNCTION.   THE FOLLOWING ARE ENTRIES
      G      00354   0
0VARIABLE STORAGE (A=ARRAY,C=COMMON,E=ERASABLE,DIGIT=MODE)
      ABSLOC 00050   1        CURCOR 77112  C1        I      00111   1        PATCH  77111  C1        TSUB   77234 AC1
      AT     00054 A 1        ERROR  00046   4        JUSTAT 00113 A 1        PFIRST 00130   1        TTR    00145 A 1
      COM1   00062 A 1        FIRST  00103   1        LIST   77461 AC1        RELLOC 00131   1        UNWRK  00150 A 1
      COM2   00064 A 1        FLAG   00104   1        LOC    00114   1        RELOCT 00135 A 1        USER   00152 A 1
      COM3   00071 A 1        FRESH  00106 A 1        LOST   00124 A 1        RESUME 00143 A 1        USES   77207 AC1
      COM4   00074 A 1        FROM   77333 AC1        MADBUG 00126 A 1        SKIP   77110  C1        WHY    00305 A 1
      COM    00100 A 1        FSUB   77261 AC1        MAX    77334  C1        START  00144   1        WITHIN 00311 A 1
      COUNT  00101   1        INPROG 00107   1        NOSTEP 00047   4        STEP   00045   4        WORK   00314 A 1
      CR     00102 A 1        INST   00110   1        NUM    00127   1        TO     77306 AC1        WRKING 00315   1
0FUNCTION DICTIONARY
      ADDCOM 00000   1        ADDNAM 00001   1        ADDNUM 00002   1        ADDOCT 00003   1        ADDSL  00004   1
      BRKREG 00005   1        BRK    00006   1        CHMODE 00007   1        COPY   00010   1        CRTYPE 00011   1
      DELETE 00012   1        ENTRY  00013   1        EXIT   00014   1        FSTAT  00015   1        FWRKBL 00016   1
      GETSL  00017   1        GWORKA 00020   1        LOAD   00021   1        LTJUST 00022   1        MAP    00023   1
      ORGNAM 00024   1        ORG    00025   1        PRINT  00026   1        READY  00027   1        SNLOC  00030   1
      SNNAM  00031   1        SPACE  00032   1        SWORK  00033   1        SYNTAX 00034   1        VARNAM 00035   1
      WDITCH 00036   1        WGET   00037   1        WRKBLE 00040   2        WSEEK  00041   1        WSET   00042   1
      WSETUP 00043   1        XEQ    00044   1
0ABSOLUTE CONSTANTS
 00341 +346060606060     00326 +000000000022     00351 -346060606060     00342 -075146276060     00332 +000000000060
 00322 +000000000006     00345 -264651426000     00327 +000000000036     00346 -300000000000     00347 -300000700000
 00334 +002100000000     00352 -377776700000     00324 +000000000012     00333 +000000077777     00323 +000000000007
 00325 +000000000014     00321 +000000000003     00330 +000000000037     00350 -344424222734     00331 +000000000040
 00320 +000000000002     00343 -232544476060     00337 +234644444645     00344 -252151606060     00335 +225142606060
 00340 +314562606060     00316 +000000000000     00317 +000000000001     00336 +233000000000
0STATEMENT DICTIONARY
 00046 TXL -301074001072       00047 TXL -300652000652
0PROGRAM
                 EXTERNAL FUNCTION                                                  001  LM00001
                 NORMAL MODE IS INTEGER                                             002  LM00002
                 BOOLEAN WRKBLE                                                     003  LM00003
                 PROGRAM COMMON LIST(84),MAX,FROM(20),TO(20),                       004  LM00004
                1FSUB(20),TSUB(20),USES(60),CURCOR,PATCH,SKIP                       004  LM00005
                 VECTOR VALUES CR=556060606060K                                     005  LM00006
 00102     -1 56060 6 06060
                 VECTOR VALUES USER=$(USER) SAVED$                                  006  LM00007
 00151     -2 06221 6 52524    00152     -3 46462 2 55134
                 VECTOR VALUES TTR=0021K8                                           007  LM00008
 00145     +0 02100 0 00000
                 VECTOR VALUES FRESH=$*FRESH SAVED$                                 008  LM00009
 00105     -2 06221 6 52524    00106     -1 42651 2 56230
                 VECTOR VALUES MADBUG=$(MDBG) SAVED$                                009  LM00010
 00125     -2 06221 6 52524    00126     -3 44424 2 22734
                 ENTRY TO G.                                                        010  LM00014
 00353 TRA +0 02000 0 00356    00354 SXA +0 63400 2 01076    00355 TSX +0 07400 2 01076
                 SPACE.                                                             011  LM00015
 00356 TSX +0 07400 4 00032
                 LOAD.                                                              012  LM00016
 00357 TSX +0 07400 4 00021
                 BRKREG.(FIRST,COUNT)                                               013  LM00017
 00360 TSX +0 07400 4 00005    00361 TXH +3 00000 0 00103    00362 TXH +3 00000 0 00101
                 WHENEVER LIST(LIST).NE.CR                                          014  LM00018
 00363 LXA +0 53400 1 77461    00364 CLA +0 50000 1 77461    00365 SUB +0 40200 0 00102    00366 TZE +0 10000 0 00415
                 FWRKBL.                                                            015  LM00019
 00367 TSX +0 07400 4 00016
                 GETSL.(NUM,ERROR)                                                  016  LM00020
 00370 TSX +0 07400 4 00017    00371 TXH +3 00000 0 00127    00372 TXH +3 00000 0 00046
                 COM(2)=SNLOC.(NUM)                                                 017  LM00021
 00373 TSX +0 07400 4 00030    00374 TXH +3 00000 0 00127    00375 STO +0 60100 0 00076
                 SPACE.                                                             018  LM00022
 00376 TSX +0 07400 4 00032
                 WHENEVER LIST(LIST).NE.CR,SYNTAX.                                  019  LM00023
 00377 LXA +0 53400 1 77461    00400 CLA +0 50000 1 77461    00401 SUB +0 40200 0 00102    00402 TZE +0 10000 0 00404
 00403 TSX +0 07400 4 00034
                 WHENEVER COM(2).E.SNLOC.(1),COM(2)=COM(2)+1                        020  LM00024
 00404 TSX +0 07400 4 00030    00405 TXH +3 00000 0 00317    00406 CHS +0 76000 0 00002    00407 ADD +0 40000 0 00076
 00410 TNZ -0 10000 0 00414    00411 CLA +0 50000 0 00076    00412 ADD +0 40000 0 00317    00413 STO +0 60100 0 00076
                 OTHERWISE                                                          021  LM00025
 00414 TRA +0 02000 0 00417
                 COM(2)=0                                                           022  LM00026
 00415 CLA +0 50000 0 00316    00416 STO +0 60100 0 00076
                 END OF CONDITIONAL                                                 023  LM00027
                 FLAG=BRK.(FIRST)                                                   024  LM00029
 00417 TSX +0 07400 4 00006    00420 TXH +3 00000 0 00103    00421 STO +0 60100 0 00104
                 WDITCH.($INS$)                                                     025  LM00030
 00422 TSX +0 07400 4 00036    00423 TXH +3 00000 0 00340
                 WDITCH.($BRK$)                                                     026  LM00031
 00424 TSX +0 07400 4 00036    00425 TXH +3 00000 0 00335
                 WDITCH.($VAR$)                                                     027  LM00032
 00426 TSX +0 07400 4 00036    00427 TXH +3 00000 0 00344
                 WDITCH.($COMMON$)                                                  028  LM00033
 00430 TSX +0 07400 4 00036    00431 TXH +3 00000 0 00337
                 WHENEVER FLAG.E.0                                                  029  LM00035
 00432 CLA +0 50000 0 00104    00433 SUB +0 40200 0 00316    00434 TNZ -0 10000 0 00502
                 WSETUP.($TEMP$,USER,2,32)                                          030  LM00036
 00435 TSX +0 07400 4 00043    00436 TXH +3 00000 0 00343    00437 TXH +3 00000 0 00152    00440 TXH +3 00000 0 00320
 00441 TXH +3 00000 0 00331
                 LOC=ENTRY.($(MDBG)$)                                               031  LM00037
 00442 TSX +0 07400 4 00013    00443 TXH +3 00000 0 00350    00444 STO +0 60100 0 00114
                 WSEEK.($TEMP$)                                                     032  LM00038
 00445 TSX +0 07400 4 00041    00446 TXH +3 00000 0 00343
                 WHENEVER COM(2).E.0                                                033  LM00039
 00447 CLA +0 50000 0 00076    00450 SUB +0 40200 0 00316    00451 TNZ -0 10000 0 00472
                 WHENEVER WGET.(32).E.0                                             034  LM00040
 00452 TSX +0 07400 4 00037    00453 TXH +3 00000 0 00331    00454 SUB +0 40200 0 00316    00455 TNZ -0 10000 0 00467
                 WSET.(31,LOC-2)                                                    035  LM00041
 00456 CLA +0 50000 0 00114    00457 SUB +0 40200 0 00320    00460 STO +0 60100 0 01106    00461 TSX +0 07400 4 00042
 00462 TXH +3 00000 0 00330    00463 TXH +3 00000 0 01106
                 WSET.(32,1)                                                        036  LM00042
 00464 TSX +0 07400 4 00042    00465 TXH +3 00000 0 00331    00466 TXH +3 00000 0 00317
                 END OF CONDITIONAL                                                 037  LM00043
                 PRINT.(COM1)                                                       038  LM00044
 00467 TSX +0 07400 4 00026    00470 TXH +3 00000 0 00062
                 VECTOR VALUES COM1=29,$USER WILL SOON BE IN CONTROL.$              039  LM00045
 00055     -2 35146 4 33360    00056     +3 14560 2 34645    00057     -0 64560 2 22560    00060     +3 14343 6 06246
 00061     -2 46225 5 16066    00062     +0 00000 0 00035
                 OTHERWISE                                                          040  LM00046
 00471 TRA +0 02000 0 00500
                 WSET.(1,LOC-3)                                                     041  LM00047
 00472 CLA +0 50000 0 00114    00473 SUB +0 40200 0 00321    00474 STO +0 60100 0 01106    00475 TSX +0 07400 4 00042
 00476 TXH +3 00000 0 00317    00477 TXH +3 00000 0 01106
                 END OF CONDITIONAL                                                 042  LM00048
                 WDITCH.($TEMP$)                                                    043  LM00049
 00500 TSX +0 07400 4 00036    00501 TXH +3 00000 0 00343
                 END OF CONDITIONAL                                                 044  LM00050
                 CHMODE.(USER,0)                                                    045  LM00052
 00502 TSX +0 07400 4 00007    00503 TXH +3 00000 0 00152    00504 TXH +3 00000 0 00316
                 VECTOR VALUES COM=$RESUME(USER)$,0,777777777777K                   046  LM00053
 00075     -3 77777 7 77777    00076     +0 00000 0 00000    00077     -3 46462 2 55134    00100     -1 12562 6 44425
                 XEQ.(1,COM)                                                        047  LM00054
 00505 TSX +0 07400 4 00044    00506 TXH +3 00000 0 00317    00507 TXH +3 00000 0 00100
                 WHENEVER FSTAT.(USER).E.0                                          048  LM00056
 00510 TSX +0 07400 4 00015    00511 TXH +3 00000 0 00152    00512 SUB +0 40200 0 00316    00513 TNZ -0 10000 0 00530
                 PRINT.(LOST)                                                       049  LM00057
 00514 TSX +0 07400 4 00026    00515 TXH +3 00000 0 00124
                 VECTOR VALUES LOST=38,$MANUAL RESTART.  USER CORE IMAGE LOST.      050  LM00058
                1$                                                                  050  LM00059
 00115     -2 33360 6 06060    00116     +2 72560 4 34662    00117     -1 12560 3 14421    00120     -2 22551 6 02346
 00121     -1 16333 6 06064    00122     -2 05125 6 26321    00123     -0 42145 6 42143    00124     +0 00000 0 00046
                 PRINT.(RESUME)                                                     051  LM00060
 00516 TSX +0 07400 4 00026    00517 TXH +3 00000 0 00143
                 VECTOR VALUES RESUME=25,$*FRESH HAS BEEN RESTORED.$                052  LM00061
 00136     +3 36060 6 06060    00137     -2 26346 5 12524    00140     +2 52545 6 05125    00141     -2 03021 6 26022
 00142     -1 42651 2 56230    00143     +0 00000 0 00031
                 COPY.(FRESH,USER)                                                  053  LM00062
 00520 TSX +0 07400 4 00010    00521 TXH +3 00000 0 00106    00522 TXH +3 00000 0 00152
                 DELETE.(MADBUG)                                                    054  LM00063
 00523 TSX +0 07400 4 00012    00524 TXH +3 00000 0 00126
                 PRINT.(0)                                                          055  LM00064
 00525 TSX +0 07400 4 00026    00526 TXH +3 00000 0 00316
                 READY.                                                             056  LM00065
 00527 TSX +0 07400 4 00027
                 END OF CONDITIONAL                                                 057  LM00066
                 LIST=0                                                             058  LM00068
 00530 CLA +0 50000 0 00316    00531 STO +0 60100 0 77461
                 FLAG=BRK.(FIRST)                                                   059  LM00069
 00532 TSX +0 07400 4 00006    00533 TXH +3 00000 0 00103    00534 STO +0 60100 0 00104
                 WHENEVER FLAG.L.0.OR.FLAG.G.12,FLAG=0                              060  LM00070
 00535 CLA +0 50000 0 00104    00536 SUB +0 40200 0 00325    00537 TZE +0 10000 0 00541    00540 TPL +0 12000 0 00545
 00541 CLA +0 50000 0 00104    00542 SUB +0 40200 0 00316    00543 TZE +0 10000 0 00547    00544 TPL +0 12000 0 00547
 00545 CLA +0 50000 0 00316    00546 STO +0 60100 0 00104
                 ADDCOM.(WHY(7*FLAG))                                               061  LM00071
 00547 LDQ +0 56000 0 00323    00550 MPY +0 20000 0 00104    00551 XCA +0 13100 0 00000    00552 SUB +0 40200 0 00553
 00553 TXH +3 00000 0 00305    00554 STA +0 62100 0 00556    00555 TSX +0 07400 4 00000    00556 TXH +3 00000 0 00000
                 VECTOR VALUES WHY=21,$MANUAL RESTART.  USER            $,          062  LM00072
                122,$BREAKPOINT ENCOUNTERED            $,                           062  LM00073
                224,$ARRAY DIMENSION EXCEEDED            $,                         062  LM00074
                315,$INTERRUPT WHILE                     $,                         062  LM00075
                413,$DORMNT CALLED                       $,                         062  LM00076
                511,$DEAD CALLED                         $,                         062  LM00077
                611,$EXIT CALLED                         $,                         062  LM00078
                713,$ENDJOB CALLED                       $                          062  LM00079
 00216     -2 06060 6 06060    00217     -2 06060 6 06060    00220     -2 06060 6 06060    00221     +2 46060 6 06060
 00222     -2 02321 4 34325    00223     +2 54524 4 14622    00224     +0 00000 0 00015    00225     -2 06060 6 06060
 00226     -2 06060 6 06060    00227     -2 06060 6 06060    00230     -2 06060 6 06060    00231     +2 14343 2 52460
 00232     +2 56731 6 36023    00233     +0 00000 0 00013    00234     -2 06060 6 06060    00235     -2 06060 6 06060
 00236     -2 06060 6 06060    00237     -2 06060 6 06060    00240     +2 14343 2 52460    00241     +2 42521 2 46023
 00242     +0 00000 0 00013    00243     -2 06060 6 06060    00244     -2 06060 6 06060    00245     -2 06060 6 06060
 00246     +2 46060 6 06060    00247     -2 02321 4 34325    00250     +2 44651 4 44563    00251     +0 00000 0 00015
 00252     -2 06060 6 06060    00253     -2 06060 6 06060    00254     -2 06060 6 06060    00255     +3 14325 6 06060
 00256     -2 44763 6 06630    00257     +3 14563 2 55151    00260     +0 00000 0 00017    00261     -2 06060 6 06060
 00262     -2 06060 6 06060    00263     +2 32525 2 42524    00264     +3 14645 6 02567    00265     +2 43144 2 54562
 00266     +2 15151 2 17060    00267     +0 00000 0 00030    00270     -2 06060 6 06060    00271     -2 06060 6 06060
 00272     +2 55125 2 46060    00273     -0 52346 6 44563    00274     -0 63145 6 36025    00275     +2 25125 2 14247
 00276     +0 00000 0 00026    00277     -2 06060 6 06060    00300     -2 06060 6 06060    00301     -2 22551 6 06060
 00302     -1 16333 6 06064    00303     -2 05125 6 26321    00304     -0 42145 6 42143    00305     +0 00000 0 00025
                 VECTOR VALUES WHY(56)=                                             063  LM00080
                112,$ERROR CALLED                        $,                         063  LM00081
                233,$DOUBLE PRECISION ODD ADDRESS TRAP   $,                         063  LM00082
                332,$FLOATING POINT DIVIDE CHECK TRAP    $,                         063  LM00083
                431,$FLOATING POINT AC OVERFLOW TRAP     $,                         063  LM00084
                431,$FLOATING POINT MQ OVERFLOW TRAP     $                          063  LM00085
 00153     -0 76060 6 06060    00154     -0 66660 6 35121    00155     -0 66525 5 12643    00156     -0 56360 4 45060
 00157     -0 52760 4 74631    00160     +2 64346 2 16331    00161     +0 00000 0 00037    00162     -0 76060 6 06060
 00163     -0 66660 6 35121    00164     -0 66525 5 12643    00165     -0 56360 2 12360    00166     -0 52760 4 74631
 00167     +2 64346 2 16331    00170     +0 00000 0 00037    00171     +2 14760 6 06060    00172     +2 52342 6 06351
 00173     +3 12425 6 02330    00174     -0 56360 2 43165    00175     -0 52760 4 74631    00176     +2 64346 2 16331
 00177     +0 00000 0 00040    00200     -1 12147 6 06060    00201     -1 12562 6 26063    00202     +2 42460 2 12424
 00203     -2 23146 4 56046    00204     -2 04751 2 52331    00205     +2 44664 2 24325    00206     +0 00000 0 00041
 00207     -2 06060 6 06060    00210     -2 06060 6 06060    00211     -2 06060 6 06060    00212     -2 06060 6 06060
 00213     +2 32143 4 32524    00214     +2 55151 4 65160    00215     +0 00000 0 00014
                 WHENEVER FLAG.E.0                                                  064  LM00087
 00557 CLA +0 50000 0 00104    00560 SUB +0 40200 0 00316    00561 TNZ -0 10000 0 00653
                 WSETUP.($TEMP$,USER,2,1)                                           065  LM00088
 00562 TSX +0 07400 4 00043    00563 TXH +3 00000 0 00343    00564 TXH +3 00000 0 00152    00565 TXH +3 00000 0 00320
 00566 TXH +3 00000 0 00317
                 ABSLOC=WGET.(1).A.77777K                                           066  LM00089
 00567 TSX +0 07400 4 00037    00570 TXH +3 00000 0 00317    00571 STO +0 60100 0 01106    00572 CAL -0 50000 0 01106
 00573 ANA -0 32000 0 00333    00574 SLW +0 60200 0 00050
                 WDITCH.($TEMP$)                                                    067  LM00090
 00575 TSX +0 07400 4 00036    00576 TXH +3 00000 0 00343
                 DELETE.(MADBUG)                                                    068  LM00091
 00577 TSX +0 07400 4 00012    00600 TXH +3 00000 0 00126
                 THROUGH STEP,FOR I=1,1,I.G.10                                      069  LM00092
 00601 CLA +0 50000 0 00317    00602 STO +0 60100 0 00111    00603 TRA +0 02000 0 00607    00604 CLA +0 50000 0 00111
 00605 ADD +0 40000 0 00317    00606 STO +0 60100 0 00111    00607 CLA +0 50000 0 00111    00610 SUB +0 40200 0 00324
 00611 TZE +0 10000 0 00613    00612 TPL +0 12000 0 00652
                 WSETUP.($TEMP$,USER,ABSLOC+SKIP+1,1)                               070  LM00093
 00613 CLA +0 50000 0 00050    00614 ADD +0 40000 0 77110    00615 ADD +0 40000 0 00317    00616 STO +0 60100 0 01106
 00617 TSX +0 07400 4 00043    00620 TXH +3 00000 0 00343    00621 TXH +3 00000 0 00152    00622 TXH +3 00000 0 01106
 00623 TXH +3 00000 0 00317
                 INST=WGET.(1)                                                      071  LM00094
 00624 TSX +0 07400 4 00037    00625 TXH +3 00000 0 00317    00626 STO +0 60100 0 00110
                 WDITCH.($TEMP$)                                                    072  LM00095
 00627 TSX +0 07400 4 00036    00630 TXH +3 00000 0 00343
                 WHENEVER INST.A.7000007K5.NE.7K11.AND.INST.A.7777767K5.NE.         073  LM00096
                121K8,TRANSFER TO NOSTEP                                            073  LM00097
 00631 CAL -0 50000 0 00110    00632 ANA -0 32000 0 00352    00633 SLW +0 60200 0 01106    00634 CLA +0 50000 0 01106
 00635 SUB +0 40200 0 00334    00636 TZE +0 10000 0 00646    00637 CAL -0 50000 0 00110    00640 ANA -0 32000 0 00347
 00641 SLW +0 60200 0 01106    00642 CLA +0 50000 0 01106    00643 SUB +0 40200 0 00346    00644 TZE +0 10000 0 00646
 00645 TRA +0 02000 0 00047
      STEP       ABSLOC=INST.A.77777K                                               074  LM00098
 00646 CAL -0 50000 0 00110    00647 ANA -0 32000 0 00333    00650 SLW +0 60200 0 00050    00651 TRA +0 02000 0 00604
      NOSTEP     CONTINUE                                                           075  LM00099
                 OTHERWISE                                                          076  LM00101
 00652 TRA +0 02000 0 00664
                 ABSLOC=BRK.(FIRST+1).A.77777K                                      077  LM00102
 00653 CLA +0 50000 0 00103    00654 ADD +0 40000 0 00317    00655 STO +0 60100 0 01106    00656 TSX +0 07400 4 00006
 00657 TXH +3 00000 0 01106    00660 STO +0 60100 0 01106    00661 CAL -0 50000 0 01106    00662 ANA -0 32000 0 00333
 00663 SLW +0 60200 0 00050
                 END OF CONDITIONAL                                                 078  LM00103
                 INPROG=ORGNAM.(ABSLOC)                                             079  LM00105
 00664 TSX +0 07400 4 00024    00665 TXH +3 00000 0 00050    00666 STO +0 60100 0 00107
                 GWORKA.(WRKING)                                                    080  LM00106
 00667 TSX +0 07400 4 00020    00670 TXH +3 00000 0 00315
                 LTJUST.(WRKING)                                                    081  LM00107
 00671 TSX +0 07400 4 00022    00672 TXH +3 00000 0 00315
                 WHENEVER WRKING.NE.INPROG                                          082  LM00108
 00673 CLA +0 50000 0 00315    00674 SUB +0 40200 0 00107    00675 TZE +0 10000 0 00726
                 WHENEVER WRKBLE.(INPROG)                                           083  LM00109
 00676 TSX +0 07400 4 00040    00677 TXH +3 00000 0 00107    00700 TZE +0 10000 0 00722
                 WORK(1)=$WORK 0$.V.(INPROG.RS.30)                                  084  LM00110
 00701 CAL -0 50000 0 00327    00702 STA +0 62100 0 00704    00703 CAL -0 50000 0 00107    00704 LGR -0 76500 0 00000
 00705 ORA -0 50100 0 00345    00706 SLW +0 60200 0 00313
                 WORK(2)=$00000 $.V.(INPROG.LS.6)                                   085  LM00111
 00707 CAL -0 50000 0 00322    00710 STA +0 62100 0 00712    00711 CAL -0 50000 0 00107    00712 ALS +0 76700 0 00000
 00713 ORA -0 50100 0 00332    00714 SLW +0 60200 0 00312
                 PRINT.(WORK)                                                       086  LM00112
 00715 TSX +0 07400 4 00026    00716 TXH +3 00000 0 00314
                 VECTOR VALUES WORK=11,$WORK ******$                                087  LM00113
 00312     -1 45454 5 45460    00313     -2 64651 4 26054    00314     +0 00000 0 00013
                 SWORK.(INPROG)                                                     088  LM00114
 00717 TSX +0 07400 4 00033    00720 TXH +3 00000 0 00107
                 OTHERWISE                                                          089  LM00115
 00721 TRA +0 02000 0 00726
                 ADDCOM.(UNWRK)                                                     090  LM00116
 00722 TSX +0 07400 4 00000    00723 TXH +3 00000 0 00150
                 VECTOR VALUES UNWRK=12,$ IN PROGRAM $                              091  LM00117
 00146     -0 62751 2 14460    00147     -2 03145 6 04751    00150     +0 00000 0 00014
                 ADDNAM.(INPROG)                                                    092  LM00118
 00724 TSX +0 07400 4 00001    00725 TXH +3 00000 0 00107
                 END OF CONDITIONAL                                                 093  LM00119
                 END OF CONDITIONAL                                                 094  LM00120
                 WHENEVER WRKBLE.(INPROG),MAP.($PROG$,PFIRST,COUNT)                 095  LM00122
 00726 TSX +0 07400 4 00040    00727 TXH +3 00000 0 00107    00730 TZE +0 10000 0 00735    00731 TSX +0 07400 4 00023
 00732 TXH +3 00000 0 00342    00733 TXH +3 00000 0 00130    00734 TXH +3 00000 0 00101
                 WHENEVER WRKBLE.(INPROG).AND.ABSLOC.GE.PFIRST.AND                  096  LM00123
                1.ABSLOC.L.PFIRST+COUNT                                             096  LM00124
 00735 CLA +0 50000 0 00130    00736 ADD +0 40000 0 00101    00737 CHS +0 76000 0 00002    00740 ADD +0 40000 0 00050
 00741 TZE +0 10000 0 00773    00742 TPL +0 12000 0 00773    00743 CLA +0 50000 0 00050    00744 SUB +0 40200 0 00130
 00745 TZE +0 10000 0 00747    00746 TMI -0 12000 0 00773    00747 TSX +0 07400 4 00040    00750 TXH +3 00000 0 00107
 00751 TZE +0 10000 0 00773
                 NUM=SNNAM.(ABSLOC)                                                 097  LM00125
 00752 TSX +0 07400 4 00031    00753 TXH +3 00000 0 00050    00754 STO +0 60100 0 00127
                 PFIRST=SNLOC.(NUM)                                                 098  LM00126
 00755 TSX +0 07400 4 00030    00756 TXH +3 00000 0 00127    00757 STO +0 60100 0 00130
                 WHENEVER ABSLOC.E.PFIRST                                           099  LM00127
 00760 CLA +0 50000 0 00050    00761 SUB +0 40200 0 00130    00762 TNZ -0 10000 0 00766
                 ADDCOM.(AT)                                                        100  LM00128
 00763 TSX +0 07400 4 00000    00764 TXH +3 00000 0 00054
                 VECTOR VALUES AT=14,$ AT STATEMENT $                               101  LM00129
 00051     -2 36060 6 06060    00052     +2 16325 4 42545    00053     -2 02163 6 06263    00054     +0 00000 0 00016
                 OTHERWISE                                                          102  LM00130
 00765 TRA +0 02000 0 00770
                 ADDCOM.(WITHIN)                                                    103  LM00131
 00766 TSX +0 07400 4 00000    00767 TXH +3 00000 0 00311
                 VECTOR VALUES WITHIN=18,$ WITHIN STATEMENT $                       104  LM00132
 00306     +2 54425 4 56360    00307     -0 56062 6 32163    00310     -2 06631 6 33031    00311     +0 00000 0 00022
                 END OF CONDITIONAL                                                 105  LM00133
                 ADDSL.(NUM)                                                        106  LM00134
 00770 TSX +0 07400 4 00004    00771 TXH +3 00000 0 00127
                 OTHERWISE                                                          107  LM00135
 00772 TRA +0 02000 0 01010
                 ORG.(INPROG,START,COUNT)                                           108  LM00136
 00773 TSX +0 07400 4 00025    00774 TXH +3 00000 0 00107    00775 TXH +3 00000 0 00144    00776 TXH +3 00000 0 00101
                 RELLOC=ABSLOC-START                                                109  LM00137
 00777 CLA +0 50000 0 00050    01000 SUB +0 40200 0 00144    01001 STO +0 60100 0 00131
                 ADDCOM.(JUSTAT)                                                    110  LM00138
 01002 TSX +0 07400 4 00000    01003 TXH +3 00000 0 00113
                 VECTOR VALUES JUSTAT=4,$ AT $                                      111  LM00139
 00112     -2 02163 6 06060    00113     +0 00000 0 00004
                 ADDOCT.(RELLOC)                                                    112  LM00140
 01004 TSX +0 07400 4 00003    01005 TXH +3 00000 0 00131
                 ADDCOM.(RELOCT)                                                    113  LM00141
 01006 TSX +0 07400 4 00000    01007 TXH +3 00000 0 00135
                 VECTOR VALUES RELOCT=15,$ RELATIVE OCTAL$                          114  LM00142
 00132     -2 32143 6 06060    00133     +3 16525 6 04623    00134     -2 05125 4 32163    00135     +0 00000 0 00017
                 END OF CONDITIONAL                                                 115  LM00143
                 WHENEVER FLAG.E.2                                                  116  LM00145
 01010 CLA +0 50000 0 00104    01011 SUB +0 40200 0 00320    01012 TNZ -0 10000 0 01064
                 ADDCOM.(COM3)                                                      117  LM00146
 01013 TSX +0 07400 4 00000    01014 TXH +3 00000 0 00071
                 VECTOR VALUES COM3=19,$ BY A REFERENCE TO $                        118  LM00147
 00065     -2 06060 6 06060    00066     -0 52325 6 06346    00067     -1 12526 2 55125    00070     -2 02270 6 02160
 00071     +0 00000 0 00023
                 ADDNAM.(VARNAM.(BRK.(FIRST+2).A.77777K))                           119  LM00148
 01015 CLA +0 50000 0 00103    01016 ADD +0 40000 0 00320    01017 STO +0 60100 0 01106    01020 TSX +0 07400 4 00006
 01021 TXH +3 00000 0 01106    01022 STO +0 60100 0 01106    01023 CAL -0 50000 0 01106    01024 ANA -0 32000 0 00333
 01025 SLW +0 60200 0 01106    01026 TSX +0 07400 4 00035    01027 TXH +3 00000 0 01106    01030 STO +0 60100 0 01106
 01031 TSX +0 07400 4 00001    01032 TXH +3 00000 0 01106
                 LIST=LIST+1                                                        120  LM00149
 01033 CLA +0 50000 0 77461    01034 ADD +0 40000 0 00317    01035 STO +0 60100 0 77461
                 LIST(LIST)=$($                                                     121  LM00150
 01036 LXA +0 53400 1 77461    01037 CLA +0 50000 0 00351    01040 STO +0 60100 1 77461
                 ADDNUM.(BRK.(FIRST+1).RS.18)                                       122  LM00151
 01041 CLA +0 50000 0 00103    01042 ADD +0 40000 0 00317    01043 STO +0 60100 0 01106    01044 TSX +0 07400 4 00006
 01045 TXH +3 00000 0 01106    01046 STO +0 60100 0 01106    01047 CAL -0 50000 0 00326    01050 STA +0 62100 0 01052
 01051 CAL -0 50000 0 01106    01052 LGR -0 76500 0 00000    01053 SLW +0 60200 0 01106    01054 TSX +0 07400 4 00002
 01055 TXH +3 00000 0 01106
                 LIST=LIST+1                                                        123  LM00152
 01056 CLA +0 50000 0 77461    01057 ADD +0 40000 0 00317    01060 STO +0 60100 0 77461
                 LIST(LIST)=$)$                                                     124  LM00153
 01061 LXA +0 53400 1 77461    01062 CLA +0 50000 0 00341    01063 STO +0 60100 1 77461
                 END OF CONDITIONAL                                                 125  LM00154
                 ADDCOM.(COM2)                                                      126  LM00156
 01064 TSX +0 07400 4 00000    01065 TXH +3 00000 0 00064
                 VECTOR VALUES COM2=1,$.$                                           127  LM00157
 00063     +3 36060 6 06060    00064     +0 00000 0 00001
                 CRTYPE.                                                            128  LM00158
 01066 TSX +0 07400 4 00011
                 PRINT.(0)                                                          129  LM00159
 01067 TSX +0 07400 4 00026    01070 TXH +3 00000 0 00316
                 READY.                                                             130  LM00160
 01071 TSX +0 07400 4 00027
      ERROR      PRINT.(COM4)                                                       131  LM00162
 01072 TSX +0 07400 4 00026    01073 TXH +3 00000 0 00074
                 VECTOR VALUES COM4=10,$TRY AGAIN.$                                 132  LM00163
 00072     +2 13145 3 36060    00073     -2 35170 6 02127    00074     +0 00000 0 00012
                 READY.                                                             133  LM00164
 01074 TSX +0 07400 4 00027
                 END OF FUNCTION                                                    134  LM00166
 01075 TSX +0 07400 4 00014    01076 TXH +3 00000 0 00000    01077 SXD -0 63400 1 01076    01100 SXA +0 63400 4 01102
 01101 TRA +0 02000 2 00001    01102 AXT +0 77400 4 00000    01103 LXA +0 53400 2 01076    01104 LXD -0 53400 1 01076
 01105 TRA +0 02000 4 00001
1     MAD PROGRAM LISTING ... ... ...                 FILE   GETSL   MAD            02/07/68    2000.7
-
                  EXTERNAL FUNCTION(NUM,BAD)                                                      *001 LM00001
                  NORMAL MODE IS INTEGER                                                          *002 LM00002
                  STATEMENT LABEL BAD                                                             *003 LM00003
                  PROGRAM COMMON LIST(84)                                                         *004 LM00004
                                                                                                       LM00005
                 GET STATEMENT LABEL FROM INPUT LIST                                                   LM00006
                                                                                                       LM00007
                  ENTRY TO GETSL.                                                                 *005 LM00008
                                                                                                       LM00009
                  LASCRD.(END)                                                                    *006 LM00010
                  WHENEVER END.E.0                                                                *007 LM00011
                  PRINT.(COM3)                                                                    *008 LM00012
                  VECTOR VALUES COM3=25,$NULL PROGRAM.  TRY AGAIN.$                               *009 LM00013
                  READY.                                                                          *010 LM00014
                  END OF CONDITIONAL                                                              *011 LM00015
                                                                                                       LM00016
                  WHENEVER LIST(LIST).E.$*$                                                       *012 LM00017
                  LIST=LIST+1                                                                     *013 LM00018
                  NUM=STAR                                                                        *014 LM00019
                  TRANSFER TO AND                                                                 *015 LM00020
                  END OF CONDITIONAL                                                              *016 LM00021
                                                                                                       LM00022
                  WHENEVER LIST(LIST).E.$/$                                                       *017 LM00023
                  LIST=LIST+1                                                                     *018 LM00024
                  LASCRD.(NUM)                                                                    *019 LM00025
                  TRANSFER TO AND                                                                 *020 LM00026
                  END OF CONDITIONAL                                                              *021 LM00027
                                                                                                       LM00028
                  WHENEVER LIST(LIST).RS.30.LE.9                                                  *022 LM00029
                  GETNUM.(NUM,NOREAD)                                                             *023 LM00030
                  TRANSFER TO CHECK                                                               *024 LM00031
                  END OF CONDITIONAL                                                              *025 LM00032
                                                                                                       LM00033
                  GETNAM.(NAME,NOREAD)                                                            *026 LM00034
                  WHENEVER LIST(LIST).E.$($                                                       *027 LM00035
                  LIST=LIST+1                                                                     *028 LM00036
                  GETNUM.(SUB,NOREAD)                                                             *029 LM00037
                  WHENEVER LIST(LIST).NE.$)$,TRANSFER TO NOREAD                                   *030 LM00038
                  LIST=LIST+1                                                                     *031 LM00039
                  OTHERWISE                                                                       *032 LM00040
                  SUB=0                                                                           *033 LM00041
                  END OF CONDITIONAL                                                              *034 LM00042
                                                                                                       LM00043
                  SLNUM.(NUM,NAME,SUB)                                                            *035 LM00044
                  WHENEVER NUM.E.0                                                                *036 LM00045
                  LIST=0                                                                          *037 LM00046
                  ADDNAM.(NAME)                                                                   *038 LM00047
                  WHENEVER SUB.NE.0                                                               *039 LM00048
                  LIST=LIST+1                                                                     *040 LM00049
                  LIST(LIST)=$($                                                                  *041 LM00050
                  ADDNUM.(SUB)                                                                    *042 LM00051
                  LIST=LIST+1                                                                     *043 LM00052
                  LIST(LIST)=$)$                                                                  *044 LM00053
                  END OF CONDITIONAL                                                              *045 LM00054
                  ADDCOM.(COM4)                                                                   *046 LM00055
                  VECTOR VALUES COM4=29,$ IS NOT A STATEMENT LABEL IN $                           *047 LM00056
                  GWORKA.(WORK)                                                                   *048 LM00057
                  ADDNAM.(WORK)                                                                   *049 LM00058
                  ADDCOM.(COM5)                                                                   *050 LM00059
                  VECTOR VALUES COM5=1,$.$                                                        *051 LM00060
                  CRTYPE.                                                                         *052 LM00061
                  TRANSFER TO BAD                                                                 *053 LM00062
                  END OF CONDITIONAL                                                              *054 LM00063
      AND         WHENEVER LIST(LIST).E.$+$.OR.LIST(LIST).E.$-$                                   *055 LM00064
                  GETNUM.(SUB,NOREAD)                                                             *056 LM00065
                  NUM=NUM+SUB                                                                     *057 LM00066
                  END OF CONDITIONAL                                                              *058 LM00067
                                                                                                       LM00068
      CHECK       WHENEVER NUM.LE.0.OR.NUM.G.END                                                  *059 LM00069
                  PRINT.(COM1)                                                                    *060 LM00070
                  VECTOR VALUES COM1=41,$STATEMENT LABEL REFERENC$,                               *061 LM00071
                1 $E OUT OF PROGRAM.$                                                             *061 LM00072
                  TRANSFER TO BAD                                                                 *062 LM00073
                  END OF CONDITIONAL                                                              *063 LM00074
                  STAR=NUM                                                                        *064 LM00075
                  FUNCTION RETURN                                                                 *065 LM00076
                                                                                                       LM00077
      NOREAD      PRINT.(COM2)                                                                    *066 LM00078
                  VECTOR VALUES COM2=27,$STATEMENT LABEL UNREADABLE.$                             *067 LM00079
                  TRANSFER TO BAD                                                                 *068 LM00080
                                                                                                       LM00081
                 ADD STATEMENT LABEL TO OUTPUT LIST                                                    LM00082
                                                                                                       LM00083
                  ENTRY TO ADDSL.                                                                 *069 LM00084
                  SLNAM.(NUM,NAME,SUB,DEV)                                                        *070 LM00085
                                                                                                       LM00086
                  WHENEVER NAME.E.$      $                                                        *071 LM00087
                  ADDNUM.(DEV)                                                                    *072 LM00088
                  FUNCTION RETURN                                                                 *073 LM00089
                  END OF CONDITIONAL                                                              *074 LM00090
                  ADDNAM.(NAME)                                                                   *075 LM00091
                                                                                                       LM00092
                  WHENEVER SUB.NE.0                                                               *076 LM00093
                  LIST=LIST+1                                                                     *077 LM00094
                  LIST(LIST)=$($                                                                  *078 LM00095
                  ADDNUM.(SUB)                                                                    *079 LM00096
                  LIST=LIST+1                                                                     *080 LM00097
                  LIST(LIST)=$)$                                                                  *081 LM00098
                  END OF CONDITIONAL                                                              *082 LM00099
                                                                                                       LM00100
                  WHENEVER DEV.G.0                                                                *083 LM00101
                  LIST=LIST+1                                                                     *084 LM00102
                  LIST(LIST)=$+$                                                                  *085 LM00103
                  END OF CONDITIONAL                                                              *086 LM00104
                  WHENEVER DEV.NE.0,ADDNUM.(DEV)                                                  *087 LM00105
                  FUNCTION RETURN                                                                 *088 LM00106
                  END OF FUNCTION                                                                 *089 LM00107
1MAD PROGRAM,TYPE NOV 1963      (ALL NUMBERS ARE OCTAL)
0TOTAL LOCATIONS   00425 TRANSFER VECTOR LENGTH  00015 PROGRAM BEGINS    00077 FIRST UNUSED COMMON/ERASABLE  77334
0 PROGRAM IS AN EXTERNAL FUNCTION.   THE FOLLOWING ARE ENTRIES
      ADDSL  00311   0        GETSL  00100   0
0VARIABLE STORAGE (A=ARRAY,C=COMMON,E=ERASABLE,DIGIT=MODE)
      AND    00016   4        COM2   00036 A 1        COM5   00054 A 1        LIST   77461 AC1        STAR   00060   1
      CHECK  00017   4        COM3   00044 A 1        DEV    00055   1        NAME   00057   1        SUB    00061   1
      COM1   00030 A 1        COM4   00052 A 1        END    00056   1        NOREAD 00020   4        WORK   00062   1
0FUNCTION DICTIONARY
      ADDCOM 00000   1        ADDNAM 00001   1        ADDNUM 00002   1        CRTYPE 00003   1        EXIT   00004   1
      GETNAM 00005   1        GETNUM 00006   1        GWORKA 00007   1        LASCRD 00010   1        PRINT  00011   1
      READY  00012   1        SLNAM  00013   1        SLNUM  00014   1
0ABSOLUTE CONSTANTS
 00074 -206060606060     00067 +206060606060     00072 -006060606060     00071 +346060606060     00076 -346060606060
 00065 +000000000011     00066 +000000000036     00075 -216060606060     00073 -146060606060     00063 +000000000000
 00064 +000000000001     00070 +233000000000
0STATEMENT DICTIONARY
 00016 TXL -300261000252       00017 TXL -300277000267       00020 TXL -300307000305
0PROGRAM
                 EXTERNAL FUNCTION(NUM,BAD)                                         001  LM00001
                 NORMAL MODE IS INTEGER                                             002  LM00002
                 STATEMENT LABEL BAD                                                003  LM00003
                 PROGRAM COMMON LIST(84)                                            004  LM00004
                 ENTRY TO GETSL.                                                    005  LM00008
 00077 TRA +0 02000 0 00102    00100 SXA +0 63400 2 00372    00101 TSX +0 07400 2 00372
                 LASCRD.(END)                                                       006  LM00010
 00102 TSX +0 07400 4 00010    00103 TXH +3 00000 0 00056
                 WHENEVER END.E.0                                                   007  LM00011
 00104 CLA +0 50000 0 00056    00105 SUB +0 40200 0 00063    00106 TNZ -0 10000 0 00112
                 PRINT.(COM3)                                                       008  LM00012
 00107 TSX +0 07400 4 00011    00110 TXH +3 00000 0 00044
                 VECTOR VALUES COM3=25,$NULL PROGRAM.  TRY AGAIN.$                  009  LM00013
 00037     +3 36060 6 06060    00040     -2 02127 2 13145    00041     +3 36060 6 35170    00042     -1 14627 5 12144
 00043     -0 56443 4 36047    00044     +0 00000 0 00031
                 READY.                                                             010  LM00014
 00111 TSX +0 07400 4 00012
                 END OF CONDITIONAL                                                 011  LM00015
                 WHENEVER LIST(LIST).E.$*$                                          012  LM00017
 00112 LXA +0 53400 1 77461    00113 CLA +0 50000 1 77461    00114 SUB +0 40200 0 00073    00115 TNZ -0 10000 0 00124
                 LIST=LIST+1                                                        013  LM00018
 00116 CLA +0 50000 0 77461    00117 ADD +0 40000 0 00064    00120 STO +0 60100 0 77461
                 NUM=STAR                                                           014  LM00019
 00121 CLA +0 50000 0 00060    00122 STO +0 60100 0 00000
                 TRANSFER TO AND                                                    015  LM00020
 00123 TRA +0 02000 0 00016
                 END OF CONDITIONAL                                                 016  LM00021
                 WHENEVER LIST(LIST).E.$/$                                          017  LM00023
 00124 LXA +0 53400 1 77461    00125 CLA +0 50000 1 77461    00126 SUB +0 40200 0 00075    00127 TNZ -0 10000 0 00136
                 LIST=LIST+1                                                        018  LM00024
 00130 CLA +0 50000 0 77461    00131 ADD +0 40000 0 00064    00132 STO +0 60100 0 77461
                 LASCRD.(NUM)                                                       019  LM00025
 00133 TSX +0 07400 4 00010    00134 TXH +3 00000 0 00000
                 TRANSFER TO AND                                                    020  LM00026
 00135 TRA +0 02000 0 00016
                 END OF CONDITIONAL                                                 021  LM00027
                 WHENEVER LIST(LIST).RS.30.LE.9                                     022  LM00029
 00136 LXA +0 53400 1 77461    00137 CAL -0 50000 0 00066    00140 STA +0 62100 0 00142    00141 CAL -0 50000 1 77461
 00142 LGR -0 76500 0 00000    00143 SLW +0 60200 0 00422    00144 CLA +0 50000 0 00422    00145 SUB +0 40200 0 00065
 00146 TZE +0 10000 0 00150    00147 TPL +0 12000 0 00154
                 GETNUM.(NUM,NOREAD)                                                023  LM00030
 00150 TSX +0 07400 4 00006    00151 TXH +3 00000 0 00000    00152 TXH +3 00000 0 00020
                 TRANSFER TO CHECK                                                  024  LM00031
 00153 TRA +0 02000 0 00017
                 END OF CONDITIONAL                                                 025  LM00032
                 GETNAM.(NAME,NOREAD)                                               026  LM00034
 00154 TSX +0 07400 4 00005    00155 TXH +3 00000 0 00057    00156 TXH +3 00000 0 00020
                 WHENEVER LIST(LIST).E.$($                                          027  LM00035
 00157 LXA +0 53400 1 77461    00160 CLA +0 50000 1 77461    00161 SUB +0 40200 0 00076    00162 TNZ -0 10000 0 00202
                 LIST=LIST+1                                                        028  LM00036
 00163 CLA +0 50000 0 77461    00164 ADD +0 40000 0 00064    00165 STO +0 60100 0 77461
                 GETNUM.(SUB,NOREAD)                                                029  LM00037
 00166 TSX +0 07400 4 00006    00167 TXH +3 00000 0 00061    00170 TXH +3 00000 0 00020
                 WHENEVER LIST(LIST).NE.$)$,TRANSFER TO NOREAD                      030  LM00038
 00171 LXA +0 53400 1 77461    00172 CLA +0 50000 1 77461    00173 SUB +0 40200 0 00071    00174 TZE +0 10000 0 00176
 00175 TRA +0 02000 0 00020
                 LIST=LIST+1                                                        031  LM00039
 00176 CLA +0 50000 0 77461    00177 ADD +0 40000 0 00064    00200 STO +0 60100 0 77461
                 OTHERWISE                                                          032  LM00040
 00201 TRA +0 02000 0 00204
                 SUB=0                                                              033  LM00041
 00202 CLA +0 50000 0 00063    00203 STO +0 60100 0 00061
                 END OF CONDITIONAL                                                 034  LM00042
                 SLNUM.(NUM,NAME,SUB)                                               035  LM00044
 00204 TSX +0 07400 4 00014    00205 TXH +3 00000 0 00000    00206 TXH +3 00000 0 00057    00207 TXH +3 00000 0 00061
                 WHENEVER NUM.E.0                                                   036  LM00045
 00210 CLA +0 50000 0 00000    00211 SUB +0 40200 0 00063    00212 TNZ -0 10000 0 00252
                 LIST=0                                                             037  LM00046
 00213 CLA +0 50000 0 00063    00214 STO +0 60100 0 77461
                 ADDNAM.(NAME)                                                      038  LM00047
 00215 TSX +0 07400 4 00001    00216 TXH +3 00000 0 00057
                 WHENEVER SUB.NE.0                                                  039  LM00048
 00217 CLA +0 50000 0 00061    00220 SUB +0 40200 0 00063    00221 TZE +0 10000 0 00240
                 LIST=LIST+1                                                        040  LM00049
 00222 CLA +0 50000 0 77461    00223 ADD +0 40000 0 00064    00224 STO +0 60100 0 77461
                 LIST(LIST)=$($                                                     041  LM00050
 00225 LXA +0 53400 1 77461    00226 CLA +0 50000 0 00076    00227 STO +0 60100 1 77461
                 ADDNUM.(SUB)                                                       042  LM00051
 00230 TSX +0 07400 4 00002    00231 TXH +3 00000 0 00061
                 LIST=LIST+1                                                        043  LM00052
 00232 CLA +0 50000 0 77461    00233 ADD +0 40000 0 00064    00234 STO +0 60100 0 77461
                 LIST(LIST)=$)$                                                     044  LM00053
 00235 LXA +0 53400 1 77461    00236 CLA +0 50000 0 00071    00237 STO +0 60100 1 77461
                 END OF CONDITIONAL                                                 045  LM00054
                 ADDCOM.(COM4)                                                      046  LM00055
 00240 TSX +0 07400 4 00000    00241 TXH +3 00000 0 00052
                 VECTOR VALUES COM4=29,$ IS NOT A STATEMENT LABEL IN $              047  LM00056
 00045     -0 36031 4 56060    00046     -2 36043 2 12225    00047     +2 16325 4 42545    00050     -2 36021 6 06263
 00051     -2 03162 6 04546    00052     +0 00000 0 00035
                 GWORKA.(WORK)                                                      048  LM00057
 00242 TSX +0 07400 4 00007    00243 TXH +3 00000 0 00062
                 ADDNAM.(WORK)                                                      049  LM00058
 00244 TSX +0 07400 4 00001    00245 TXH +3 00000 0 00062
                 ADDCOM.(COM5)                                                      050  LM00059
 00246 TSX +0 07400 4 00000    00247 TXH +3 00000 0 00054
                 VECTOR VALUES COM5=1,$.$                                           051  LM00060
 00053     +3 36060 6 06060    00054     +0 00000 0 00001
                 CRTYPE.                                                            052  LM00061
 00250 TSX +0 07400 4 00003
                 TRANSFER TO BAD                                                    053  LM00062
 00251 TRA +0 02000 0 00000
                 END OF CONDITIONAL                                                 054  LM00063
      AND        WHENEVER LIST(LIST).E.$+$.OR.LIST(LIST).E.$-$                      055  LM00064
 00252 LXA +0 53400 1 77461    00253 CLA +0 50000 1 77461    00254 SUB +0 40200 0 00072    00255 TZE +0 10000 0 00261
 00256 CLA +0 50000 1 77461    00257 SUB +0 40200 0 00067    00260 TNZ -0 10000 0 00267
                 GETNUM.(SUB,NOREAD)                                                056  LM00065
 00261 TSX +0 07400 4 00006    00262 TXH +3 00000 0 00061    00263 TXH +3 00000 0 00020
                 NUM=NUM+SUB                                                        057  LM00066
 00264 CLA +0 50000 0 00000    00265 ADD +0 40000 0 00061    00266 STO +0 60100 0 00000
                 END OF CONDITIONAL                                                 058  LM00067
      CHECK      WHENEVER NUM.LE.0.OR.NUM.G.END                                     059  LM00069
 00267 CLA +0 50000 0 00000    00270 SUB +0 40200 0 00056    00271 TZE +0 10000 0 00273    00272 TPL +0 12000 0 00277
 00273 CLA +0 50000 0 00000    00274 SUB +0 40200 0 00063    00275 TZE +0 10000 0 00277    00276 TPL +0 12000 0 00302
                 PRINT.(COM1)                                                       060  LM00070
 00277 TSX +0 07400 4 00011    00300 TXH +3 00000 0 00030
                 VECTOR VALUES COM1=41,$STATEMENT LABEL REFERENC$,                  061  LM00071
                1$E OUT OF PROGRAM.$                                                061  LM00072
 00021     +2 75121 4 43360    00022     -0 62660 4 75146    00023     +2 56046 6 46360    00024     +2 62551 2 54523
 00025     +2 22543 6 05125    00026     +2 54563 6 04321    00027     -2 26321 6 32544    00030     +0 00000 0 00051
                 TRANSFER TO BAD                                                    062  LM00073
 00301 TRA +0 02000 0 00000
                 END OF CONDITIONAL                                                 063  LM00074
                 STAR=NUM                                                           064  LM00075
 00302 CLA +0 50000 0 00000    00303 STO +0 60100 0 00060
                 FUNCTION RETURN                                                    065  LM00076
 00304 TRA +0 02000 0 00416
      NOREAD     PRINT.(COM2)                                                       066  LM00078
 00305 TSX +0 07400 4 00011    00306 TXH +3 00000 0 00036
                 VECTOR VALUES COM2=27,$STATEMENT LABEL UNREADABLE.$                067  LM00079
 00031     -0 32533 6 06060    00032     -1 12521 2 42122    00033     +2 22543 6 06445    00034     +2 54563 6 04321
 00035     -2 26321 6 32544    00036     +0 00000 0 00033
                 TRANSFER TO BAD                                                    068  LM00080
 00307 TRA +0 02000 0 00000
                 ENTRY TO ADDSL.                                                    069  LM00084
 00310 TRA +0 02000 0 00313    00311 SXA +0 63400 2 00372    00312 TSX +0 07400 2 00372
                 SLNAM.(NUM,NAME,SUB,DEV)                                           070  LM00085
 00313 TSX +0 07400 4 00013    00314 TXH +3 00000 0 00000    00315 TXH +3 00000 0 00057    00316 TXH +3 00000 0 00061
 00317 TXH +3 00000 0 00055
                 WHENEVER NAME.E.$      $                                           071  LM00087
 00320 CLA +0 50000 0 00057    00321 SUB +0 40200 0 00074    00322 TNZ -0 10000 0 00326
                 ADDNUM.(DEV)                                                       072  LM00088
 00323 TSX +0 07400 4 00002    00324 TXH +3 00000 0 00055
                 FUNCTION RETURN                                                    073  LM00089
 00325 TRA +0 02000 0 00416
                 END OF CONDITIONAL                                                 074  LM00090
                 ADDNAM.(NAME)                                                      075  LM00091
 00326 TSX +0 07400 4 00001    00327 TXH +3 00000 0 00057
                 WHENEVER SUB.NE.0                                                  076  LM00093
 00330 CLA +0 50000 0 00061    00331 SUB +0 40200 0 00063    00332 TZE +0 10000 0 00351
                 LIST=LIST+1                                                        077  LM00094
 00333 CLA +0 50000 0 77461    00334 ADD +0 40000 0 00064    00335 STO +0 60100 0 77461
                 LIST(LIST)=$($                                                     078  LM00095
 00336 LXA +0 53400 1 77461    00337 CLA +0 50000 0 00076    00340 STO +0 60100 1 77461
                 ADDNUM.(SUB)                                                       079  LM00096
 00341 TSX +0 07400 4 00002    00342 TXH +3 00000 0 00061
                 LIST=LIST+1                                                        080  LM00097
 00343 CLA +0 50000 0 77461    00344 ADD +0 40000 0 00064    00345 STO +0 60100 0 77461
                 LIST(LIST)=$)$                                                     081  LM00098
 00346 LXA +0 53400 1 77461    00347 CLA +0 50000 0 00071    00350 STO +0 60100 1 77461
                 END OF CONDITIONAL                                                 082  LM00099
                 WHENEVER DEV.G.0                                                   083  LM00101
 00351 CLA +0 50000 0 00055    00352 SUB +0 40200 0 00063    00353 TZE +0 10000 0 00363    00354 TMI -0 12000 0 00363
                 LIST=LIST+1                                                        084  LM00102
 00355 CLA +0 50000 0 77461    00356 ADD +0 40000 0 00064    00357 STO +0 60100 0 77461
                 LIST(LIST)=$+$                                                     085  LM00103
 00360 LXA +0 53400 1 77461    00361 CLA +0 50000 0 00067    00362 STO +0 60100 1 77461
                 END OF CONDITIONAL                                                 086  LM00104
                 WHENEVER DEV.NE.0,ADDNUM.(DEV)                                     087  LM00105
 00363 CLA +0 50000 0 00055    00364 SUB +0 40200 0 00063    00365 TZE +0 10000 0 00370    00366 TSX +0 07400 4 00002
 00367 TXH +3 00000 0 00055
                 FUNCTION RETURN                                                    088  LM00106
 00370 TRA +0 02000 0 00416
                 END OF FUNCTION                                                    089  LM00107
 00371 TSX +0 07400 4 00004    00372 TXH +3 00000 0 00000    00373 SXD -0 63400 1 00372    00374 SXA +0 63400 4 00416
 00375 CLA +0 50000 4 00001    00376 STA +0 62100 0 00122    00377 STO +0 60100 0 00134    00400 STO +0 60100 0 00151
 00401 STO +0 60100 0 00205    00402 STA +0 62100 0 00210    00403 STA +0 62100 0 00264    00404 STA +0 62100 0 00266
 00405 STA +0 62100 0 00267    00406 STA +0 62100 0 00273    00407 STA +0 62100 0 00302    00410 STO +0 60100 0 00314
 00411 CLA +0 50000 4 00002    00412 STA +0 62100 0 00251    00413 STA +0 62100 0 00301    00414 STA +0 62100 0 00307
 00415 TRA +0 02000 2 00001    00416 AXT +0 77400 4 00000    00417 LXA +0 53400 2 00372    00420 LXD -0 53400 1 00372
 00421 TRA +0 02000 4 00001
1     MAD PROGRAM LISTING ... ... ...                 FILE  GETVAR   MAD            02/07/68    2000.7
-
                  EXTERNAL FUNCTION (NAME,LINSUB)                                                 *001 LM00001
                  NORMAL MODE IS INTEGER                                                          *002 LM00002
                  PROGRAM COMMON LIST(84)                                                         *003 LM00003
                  DIMENSION SUBS(15)                                                              *004 LM00004
                                                                                                       LM00005
                 GET VARIABLE NAME FROM INPUT LIST                                                     LM00006
                                                                                                       LM00007
                  ENTRY TO GETVAR.                                                                *005 LM00008
                                                                                                       LM00009
                  WHENEVER LIST(LIST).E.$*$                                                       *006 LM00010
                  NAME=STARNM                                                                     *007 LM00011
                  LINSUB=STARSB                                                                   *008 LM00012
                  LIST=LIST+1                                                                     *009 LM00013
                  FUNCTION RETURN                                                                 *010 LM00014
                  END OF CONDITIONAL                                                              *011 LM00015
                                                                                                       LM00016
                  GETNAM.(NAME)                                                                   *012 LM00017
                  JUNK=SYMTAB.(NAME)                                                              *013 LM00018
                  WHENEVER JUNK.E.0                                                               *014 LM00019
                  LIST=0                                                                          *015 LM00020
                  ADDNAM.(NAME)                                                                   *016 LM00021
                  ADDCOM.(COM9)                                                                   *017 LM00022
                  VECTOR VALUES COM9=22,$ IS NOT A VARIABLE IN $                                  *018 LM00023
                  GWORK.(NAME)                                                                    *019 LM00024
                  ADDNAM.(NAME)                                                                   *020 LM00025
                  ADDCOM.(COM10)                                                                  *021 LM00026
                  VECTOR VALUES COM10=13,$.  TRY AGAIN.$                                          *022 LM00027
                  CRTYPE.                                                                         *023 LM00028
                  READY.                                                                          *024 LM00029
                  END OF CONDITIONAL                                                              *025 LM00030
                                                                                                       LM00031
                  WHENEVER LIST(LIST).NE.$($                                                      *026 LM00032
                  LINSUB=0                                                                        *027 LM00033
                  TRANSFER TO RETURN                                                              *028 LM00034
                  END OF CONDITIONAL                                                              *029 LM00035
                                                                                                       LM00036
                  WHENEVER JUNK.G.0                                                               *030 LM00037
                  LIST=0                                                                          *031 LM00038
                  ADDNAM.(NAME)                                                                   *032 LM00039
                  ADDCOM.(COM12)                                                                  *033 LM00040
                  VECTOR VALUES COM12=29,$ IS NOT AN ARRAY.  TRY AGAIN.$                          *034 LM00041
                  CRTYPE.                                                                         *035 LM00042
                  READY.                                                                          *036 LM00043
                  END OF CONDITIONAL                                                              *037 LM00044
                                                                                                       LM00045
                  LIST=LIST+1                                                                     *038 LM00046
                  GETNUM.(SUBS(1))                                                                *039 LM00047
                  WHENEVER LIST(LIST).E.$)$                                                       *040 LM00048
                  LIST=LIST+1                                                                     *041 LM00049
                  LINSUB=SUBS(1)                                                                  *042 LM00050
                  TRANSFER TO CKSUB                                                               *043 LM00051
                  END OF CONDITIONAL                                                              *044 LM00052
                                                                                                       LM00053
                  DIMVEC=(JUNK.A.77777K6).RS.18                                                   *045 LM00054
                  WHENEVER DIMVEC.E.0                                                             *046 LM00055
                  LIST=0                                                                          *047 LM00056
                  ADDNAM.(NAME)                                                                   *048 LM00057
                  ADDCOM.(COM1)                                                                   *049 LM00058
                  VECTOR VALUES COM1=31,$ IS A LINEAR ARRAY.  TRY AGAIN.$                         *050 LM00059
                  CRTYPE.                                                                         *051 LM00060
                  READY.                                                                          *052 LM00061
                  END OF CONDITIONAL                                                              *053 LM00062
                                                                                                       LM00063
                  COUNT=VAR.(DIMVEC)                                                              *054 LM00064
                  WHENEVER COUNT.G.15.OR.COUNT.L.2                                                *055 LM00065
                  LIST=0                                                                          *056 LM00066
                  ADDCOM.(COM2)                                                                   *057 LM00067
                  VECTOR VALUES COM2=24,$THE DIMENSION VECTOR OF $                                *058 LM00068
                  ADDNAM.(NAME)                                                                   *059 LM00069
                  ADDCOM.(COM11)                                                                  *060 LM00070
                  VECTOR VALUES COM11=23,$ CANNOT BE INTERPRETED.$                                *061 LM00071
                  CRTYPE.                                                                         *062 LM00072
                  PRINT.(COM3)                                                                    *063 LM00073
                  VECTOR VALUES COM3=74,$USE A LINEAR SUBSCRIPT O$,                               *064 LM00074
                1 $R CORRECT THE DIMENSION VECTOR IN YOUR CORE IMAGE.$                            *064 LM00075
                  READY.                                                                          *065 LM00076
                  END OF CONDITIONAL                                                              *066 LM00077
                                                                                                       LM00078
                  THROUGH GETSUB,FOR SUBS=2,1,SUBS.G.COUNT                                        *067 LM00079
                                                                                                       LM00080
                  WHENEVER LIST(LIST).E.$)$                                                       *068 LM00081
      BADCNT      LIST=0                                                                          *069 LM00082
                  ADDCOM.(COM4)                                                                   *070 LM00083
                  VECTOR VALUES COM4=24,$THE DIMENSION VECTOR OF $                                *071 LM00084
                  ADDNAM.(NAME)                                                                   *072 LM00085
                  ADDCOM.(COM5)                                                                   *073 LM00086
                  VECTOR VALUES COM5=11,$ CALLS FOR $                                             *074 LM00087
                  ADDNUM.(COUNT)                                                                  *075 LM00088
                  ADDCOM.(COM6)                                                                   *076 LM00089
                  VECTOR VALUES COM6=24,$ SUBSCRIPTS.  TRY AGAIN.$                                *077 LM00090
                  CRTYPE.                                                                         *078 LM00091
                  READY.                                                                          *079 LM00092
                  END OF CONDITIONAL                                                              *080 LM00093
                                                                                                       LM00094
                  WHENEVER LIST(LIST).NE.$,$,SYNTAX.                                              *081 LM00095
                  LIST=LIST+1                                                                     *082 LM00096
      GETSUB      GETNUM.(SUBS(SUBS))                                                             *083 LM00097
                                                                                                       LM00098
                  WHENEVER LIST(LIST).NE.$)$,TRANSFER TO BADCNT                                   *084 LM00099
                  LIST=LIST+1                                                                     *085 LM00100
                                                                                                       LM00101
                  MULT=1                                                                          *086 LM00102
                  VAL=VAR.(DIMVEC-1)                                                              *087 LM00103
                  THROUGH CALC, FOR SUBS=SUBS-1,-1,SUBS.L.1                                       *088 LM00104
                  VAL=VAL+MULT*(SUBS(SUBS)-1)                                                     *089 LM00105
      CALC        MULT=MULT*VAR.(DIMVEC-SUBS)                                                     *090 LM00106
                  LINSUB=VAL                                                                      *091 LM00107
                                                                                                       LM00108
      CKSUB       WHENEVER LINSUB.L.0.OR.LINSUB.G.DIM.(NAME)                                      *092 LM00109
                  LIST=0                                                                          *093 LM00110
                  ADDCOM.(COM7)                                                                   *094 LM00111
                  VECTOR VALUES COM7=20,$YOU HAVE REFERED TO $                                    *095 LM00112
                  ADDNAM.(NAME)                                                                   *096 LM00113
                  LIST=LIST+1                                                                     *097 LM00114
                  LIST(LIST)=$($                                                                  *098 LM00115
                  ADDNUM.(LINSUB)                                                                 *099 LM00116
                  LIST=LIST+1                                                                     *100 LM00117
                  LIST(LIST)=$)$                                                                  *101 LM00118
                  ADDCOM.(COM8)                                                                   *102 LM00119
                  VECTOR VALUES COM8=40,$ WHICH IS OUTSIDE THE ARRAY.  $,                         *103 LM00120
                1 $TRY AGAIN.$                                                                    *103 LM00121
                  CRTYPE.                                                                         *104 LM00122
                  READY.                                                                          *105 LM00123
                  END OF CONDITIONAL                                                              *106 LM00124
                                                                                                       LM00125
      RETURN      STARNM=NAME                                                                     *107 LM00126
                  STARSB=LINSUB                                                                   *108 LM00127
                  FUNCTION RETURN                                                                 *109 LM00128
                  END OF FUNCTION                                                                 *110 LM00129
1MAD PROGRAM,TYPE NOV 1963      (ALL NUMBERS ARE OCTAL)
0TOTAL LOCATIONS   00620 TRANSFER VECTOR LENGTH  00016 PROGRAM BEGINS    00174 FIRST UNUSED COMMON/ERASABLE  77334
0 PROGRAM IS AN EXTERNAL FUNCTION.   THE FOLLOWING ARE ENTRIES
      GETVAR 00175   0
0VARIABLE STORAGE (A=ARRAY,C=COMMON,E=ERASABLE,DIGIT=MODE)
      BADCNT 00017   4        COM1   00047 A 1        COM6   00107 A 1        DIMVEC 00133   1        RETURN 00021   4
      CALC   00016   4        COM2   00054 A 1        COM7   00114 A 1        GETSUB 00016   4        STARNM 00136   1
      CKSUB  00020   4        COM3   00072 A 1        COM8   00124 A 1        JUNK   00134   1        STARSB 00137   1
      COM10  00025 A 1        COM4   00077 A 1        COM9   00131 A 1        LIST   77461 AC1        SUBS   00157 A 1
      COM11  00032 A 1        COM5   00102 A 1        COUNT  00132   1        MULT   00135   1        VAL    00160   1
      COM12  00040 A 1
0FUNCTION DICTIONARY
      ADDCOM 00000   1        ADDNAM 00001   1        ADDNUM 00002   1        CRTYPE 00003   1        DIM    00004   1
      EXIT   00005   1        GETNAM 00006   1        GETNUM 00007   1        GWORK  00010   1        PRINT  00011   1
      READY  00012   1        SYMTAB 00013   1        SYNTAX 00014   1        VAR    00015   1
0ABSOLUTE CONSTANTS
 00172 -336060606060     00164 +000000000017     00163 +000000000002     00165 +000000000022     00166 +077777000000
 00170 +346060606060     00173 -346060606060     00161 +000000000000     00171 -146060606060     00162 +000000000001
 00167 +233000000000
0STATEMENT DICTIONARY
 00017 TXL -300375000373       00020 TXL -300520000506       00021 TXL -300552000550
0PROGRAM
                 EXTERNAL FUNCTION (NAME,LINSUB)                                    001  LM00001
                 NORMAL MODE IS INTEGER                                             002  LM00002
                 PROGRAM COMMON LIST(84)                                            003  LM00003
                 DIMENSION SUBS(15)                                                 004  LM00004
                 ENTRY TO GETVAR.                                                   005  LM00008
 00174 TRA +0 02000 0 00177    00175 SXA +0 63400 2 00556    00176 TSX +0 07400 2 00556
                 WHENEVER LIST(LIST).E.$*$                                          006  LM00010
 00177 LXA +0 53400 1 77461    00200 CLA +0 50000 1 77461    00201 SUB +0 40200 0 00171    00202 TNZ -0 10000 0 00213
                 NAME=STARNM                                                        007  LM00011
 00203 CLA +0 50000 0 00136    00204 STO +0 60100 0 00000
                 LINSUB=STARSB                                                      008  LM00012
 00205 CLA +0 50000 0 00137    00206 STO +0 60100 0 00000
                 LIST=LIST+1                                                        009  LM00013
 00207 CLA +0 50000 0 77461    00210 ADD +0 40000 0 00162    00211 STO +0 60100 0 77461
                 FUNCTION RETURN                                                    010  LM00014
 00212 TRA +0 02000 0 00611
                 END OF CONDITIONAL                                                 011  LM00015
                 GETNAM.(NAME)                                                      012  LM00017
 00213 TSX +0 07400 4 00006    00214 TXH +3 00000 0 00000
                 JUNK=SYMTAB.(NAME)                                                 013  LM00018
 00215 TSX +0 07400 4 00013    00216 TXH +3 00000 0 00000    00217 STO +0 60100 0 00134
                 WHENEVER JUNK.E.0                                                  014  LM00019
 00220 CLA +0 50000 0 00134    00221 SUB +0 40200 0 00161    00222 TNZ -0 10000 0 00241
                 LIST=0                                                             015  LM00020
 00223 CLA +0 50000 0 00161    00224 STO +0 60100 0 77461
                 ADDNAM.(NAME)                                                      016  LM00021
 00225 TSX +0 07400 4 00001    00226 TXH +3 00000 0 00000
                 ADDCOM.(COM9)                                                      017  LM00022
 00227 TSX +0 07400 4 00000    00230 TXH +3 00000 0 00131
                 VECTOR VALUES COM9=22,$ IS NOT A VARIABLE IN $                     018  LM00023
 00125     -2 03145 6 06060    00126     -1 13121 2 24325    00127     -2 36021 6 06521    00130     -2 03162 6 04546
 00131     +0 00000 0 00026
                 GWORK.(NAME)                                                       019  LM00024
 00231 TSX +0 07400 4 00010    00232 TXH +3 00000 0 00000
                 ADDNAM.(NAME)                                                      020  LM00025
 00233 TSX +0 07400 4 00001    00234 TXH +3 00000 0 00000
                 ADDCOM.(COM10)                                                     021  LM00026
 00235 TSX +0 07400 4 00000    00236 TXH +3 00000 0 00025
                 VECTOR VALUES COM10=13,$.  TRY AGAIN.$                             022  LM00027
 00022     +3 36060 6 06060    00023     -2 02127 2 13145    00024     +3 36060 6 35170    00025     +0 00000 0 00015
                 CRTYPE.                                                            023  LM00028
 00237 TSX +0 07400 4 00003
                 READY.                                                             024  LM00029
 00240 TSX +0 07400 4 00012
                 END OF CONDITIONAL                                                 025  LM00030
                 WHENEVER LIST(LIST).NE.$($                                         026  LM00032
 00241 LXA +0 53400 1 77461    00242 CLA +0 50000 1 77461    00243 SUB +0 40200 0 00173    00244 TZE +0 10000 0 00250
                 LINSUB=0                                                           027  LM00033
 00245 CLA +0 50000 0 00161    00246 STO +0 60100 0 00000
                 TRANSFER TO RETURN                                                 028  LM00034
 00247 TRA +0 02000 0 00021
                 END OF CONDITIONAL                                                 029  LM00035
                 WHENEVER JUNK.G.0                                                  030  LM00037
 00250 CLA +0 50000 0 00134    00251 SUB +0 40200 0 00161    00252 TZE +0 10000 0 00264    00253 TMI -0 12000 0 00264
                 LIST=0                                                             031  LM00038
 00254 CLA +0 50000 0 00161    00255 STO +0 60100 0 77461
                 ADDNAM.(NAME)                                                      032  LM00039
 00256 TSX +0 07400 4 00001    00257 TXH +3 00000 0 00000
                 ADDCOM.(COM12)                                                     033  LM00040
 00260 TSX +0 07400 4 00000    00261 TXH +3 00000 0 00040
                 VECTOR VALUES COM12=29,$ IS NOT AN ARRAY.  TRY AGAIN.$             034  LM00041
 00033     +2 72131 4 53360    00034     -2 06351 7 06021    00035     -1 15121 7 03360    00036     -2 36021 4 56021
 00037     -2 03162 6 04546    00040     +0 00000 0 00035
                 CRTYPE.                                                            035  LM00042
 00262 TSX +0 07400 4 00003
                 READY.                                                             036  LM00043
 00263 TSX +0 07400 4 00012
                 END OF CONDITIONAL                                                 037  LM00044
                 LIST=LIST+1                                                        038  LM00046
 00264 CLA +0 50000 0 77461    00265 ADD +0 40000 0 00162    00266 STO +0 60100 0 77461
                 GETNUM.(SUBS(1))                                                   039  LM00047
 00267 TSX +0 07400 4 00007    00270 TXH +3 00000 0 00156
                 WHENEVER LIST(LIST).E.$)$                                          040  LM00048
 00271 LXA +0 53400 1 77461    00272 CLA +0 50000 1 77461    00273 SUB +0 40200 0 00170    00274 TNZ -0 10000 0 00303
                 LIST=LIST+1                                                        041  LM00049
 00275 CLA +0 50000 0 77461    00276 ADD +0 40000 0 00162    00277 STO +0 60100 0 77461
                 LINSUB=SUBS(1)                                                     042  LM00050
 00300 CLA +0 50000 0 00156    00301 STO +0 60100 0 00000
                 TRANSFER TO CKSUB                                                  043  LM00051
 00302 TRA +0 02000 0 00020
                 END OF CONDITIONAL                                                 044  LM00052
                 DIMVEC=(JUNK.A.77777K6).RS.18                                      045  LM00054
 00303 CAL -0 50000 0 00134    00304 ANA -0 32000 0 00166    00305 SLW +0 60200 0 00615    00306 CAL -0 50000 0 00165
 00307 STA +0 62100 0 00311    00310 CAL -0 50000 0 00615    00311 LGR -0 76500 0 00000    00312 SLW +0 60200 0 00133
                 WHENEVER DIMVEC.E.0                                                046  LM00055
 00313 CLA +0 50000 0 00133    00314 SUB +0 40200 0 00161    00315 TNZ -0 10000 0 00326
                 LIST=0                                                             047  LM00056
 00316 CLA +0 50000 0 00161    00317 STO +0 60100 0 77461
                 ADDNAM.(NAME)                                                      048  LM00057
 00320 TSX +0 07400 4 00001    00321 TXH +3 00000 0 00000
                 ADDCOM.(COM1)                                                      049  LM00058
 00322 TSX +0 07400 4 00000    00323 TXH +3 00000 0 00047
                 VECTOR VALUES COM1=31,$ IS A LINEAR ARRAY.  TRY AGAIN.$            050  LM00059
 00041     +3 36060 6 06060    00042     -2 02127 2 13145    00043     +3 36060 6 35170    00044     -2 02151 5 12170
 00045     -0 33145 2 52151    00046     -2 03162 6 02160    00047     +0 00000 0 00037
                 CRTYPE.                                                            051  LM00060
 00324 TSX +0 07400 4 00003
                 READY.                                                             052  LM00061
 00325 TSX +0 07400 4 00012
                 END OF CONDITIONAL                                                 053  LM00062
                 COUNT=VAR.(DIMVEC)                                                 054  LM00064
 00326 TSX +0 07400 4 00015    00327 TXH +3 00000 0 00133    00330 STO +0 60100 0 00132
                 WHENEVER COUNT.G.15.OR.COUNT.L.2                                   055  LM00065
 00331 CLA +0 50000 0 00132    00332 SUB +0 40200 0 00163    00333 TZE +0 10000 0 00335    00334 TMI -0 12000 0 00341
 00335 CLA +0 50000 0 00132    00336 SUB +0 40200 0 00164    00337 TZE +0 10000 0 00355    00340 TMI -0 12000 0 00355
                 LIST=0                                                             056  LM00066
 00341 CLA +0 50000 0 00161    00342 STO +0 60100 0 77461
                 ADDCOM.(COM2)                                                      057  LM00067
 00343 TSX +0 07400 4 00000    00344 TXH +3 00000 0 00054
                 VECTOR VALUES COM2=24,$THE DIMENSION VECTOR OF $                   058  LM00068
 00050     -0 65160 4 62660    00051     -0 56065 2 52363    00052     -0 42545 6 23146    00053     -2 33025 6 02431
 00054     +0 00000 0 00030
                 ADDNAM.(NAME)                                                      059  LM00069
 00345 TSX +0 07400 4 00001    00346 TXH +3 00000 0 00000
                 ADDCOM.(COM11)                                                     060  LM00070
 00347 TSX +0 07400 4 00000    00350 TXH +3 00000 0 00032
                 VECTOR VALUES COM11=23,$ CANNOT BE INTERPRETED.$                   061  LM00071
 00026     +2 56325 2 43360    00027     -0 56325 5 14751    00030     -2 36022 2 56031    00031     -2 02321 4 54546
 00032     +0 00000 0 00027
                 CRTYPE.                                                            062  LM00072
 00351 TSX +0 07400 4 00003
                 PRINT.(COM3)                                                       063  LM00073
 00352 TSX +0 07400 4 00011    00353 TXH +3 00000 0 00072
                 VECTOR VALUES COM3=74,$USE A LINEAR SUBSCRIPT O$,                  064  LM00074
                1$R CORRECT THE DIMENSION VECTOR IN YOUR CORE IMAGE.$               064  LM00075
 00055     +2 53360 6 06060    00056     +2 56031 4 42127    00057     -2 45160 2 34651    00060     -2 03145 6 07046
 00061     -2 52523 6 34651    00062     -0 56231 4 64560    00063     +2 56024 3 14425    00064     +2 52363 6 06330
 00065     -1 16023 4 65151    00066     -1 13147 6 36046    00067     -2 06264 2 26223    00070     -0 33145 2 52151
 00071     -2 46225 6 02160    00072     +0 00000 0 00112
                 READY.                                                             065  LM00076
 00354 TSX +0 07400 4 00012
                 END OF CONDITIONAL                                                 066  LM00077
                 THROUGH GETSUB,FOR SUBS=2,1,SUBS.G.COUNT                           067  LM00079
 00355 CLA +0 50000 0 00163    00356 STO +0 60100 0 00157    00357 TRA +0 02000 0 00363    00360 CLA +0 50000 0 00157
 00361 ADD +0 40000 0 00162    00362 STO +0 60100 0 00157    00363 CLA +0 50000 0 00157    00364 SUB +0 40200 0 00132
 00365 TZE +0 10000 0 00367    00366 TPL +0 12000 0 00430
                 WHENEVER LIST(LIST).E.$)$                                          068  LM00081
 00367 LXA +0 53400 1 77461    00370 CLA +0 50000 1 77461    00371 SUB +0 40200 0 00170    00372 TNZ -0 10000 0 00411
      BADCNT     LIST=0                                                             069  LM00082
 00373 CLA +0 50000 0 00161    00374 STO +0 60100 0 77461
                 ADDCOM.(COM4)                                                      070  LM00083
 00375 TSX +0 07400 4 00000    00376 TXH +3 00000 0 00077
                 VECTOR VALUES COM4=24,$THE DIMENSION VECTOR OF $                   071  LM00084
 00073     -0 65160 4 62660    00074     -0 56065 2 52363    00075     -0 42545 6 23146    00076     -2 33025 6 02431
 00077     +0 00000 0 00030
                 ADDNAM.(NAME)                                                      072  LM00085
 00377 TSX +0 07400 4 00001    00400 TXH +3 00000 0 00000
                 ADDCOM.(COM5)                                                      073  LM00086
 00401 TSX +0 07400 4 00000    00402 TXH +3 00000 0 00102
                 VECTOR VALUES COM5=11,$ CALLS FOR $                                074  LM00087
 00100     -2 02646 5 16060    00101     -2 02321 4 34362    00102     +0 00000 0 00013
                 ADDNUM.(COUNT)                                                     075  LM00088
 00403 TSX +0 07400 4 00002    00404 TXH +3 00000 0 00132
                 ADDCOM.(COM6)                                                      076  LM00089
 00405 TSX +0 07400 4 00000    00406 TXH +3 00000 0 00107
                 VECTOR VALUES COM6=24,$ SUBSCRIPTS.  TRY AGAIN.$                   077  LM00090
 00103     +2 12721 3 14533    00104     -2 06063 5 17060    00105     -1 13147 6 36233    00106     -2 06264 2 26223
 00107     +0 00000 0 00030
                 CRTYPE.                                                            078  LM00091
 00407 TSX +0 07400 4 00003
                 READY.                                                             079  LM00092
 00410 TSX +0 07400 4 00012
                 END OF CONDITIONAL                                                 080  LM00093
                 WHENEVER LIST(LIST).NE.$,$,SYNTAX.                                 081  LM00095
 00411 LXA +0 53400 1 77461    00412 CLA +0 50000 1 77461    00413 SUB +0 40200 0 00172    00414 TZE +0 10000 0 00416
 00415 TSX +0 07400 4 00014
                 LIST=LIST+1                                                        082  LM00096
 00416 CLA +0 50000 0 77461    00417 ADD +0 40000 0 00162    00420 STO +0 60100 0 77461
      GETSUB     GETNUM.(SUBS(SUBS))                                                083  LM00097
 00421 CLA +0 50000 0 00157    00422 SUB +0 40200 0 00423    00423 TXH +3 00000 0 00157    00424 STA +0 62100 0 00426
 00425 TSX +0 07400 4 00007    00426 TXH +3 00000 0 00000    00427 TRA +0 02000 0 00360
                 WHENEVER LIST(LIST).NE.$)$,TRANSFER TO BADCNT                      084  LM00099
 00430 LXA +0 53400 1 77461    00431 CLA +0 50000 1 77461    00432 SUB +0 40200 0 00170    00433 TZE +0 10000 0 00435
 00434 TRA +0 02000 0 00017
                 LIST=LIST+1                                                        085  LM00100
 00435 CLA +0 50000 0 77461    00436 ADD +0 40000 0 00162    00437 STO +0 60100 0 77461
                 MULT=1                                                             086  LM00102
 00440 CLA +0 50000 0 00162    00441 STO +0 60100 0 00135
                 VAL=VAR.(DIMVEC-1)                                                 087  LM00103
 00442 CLA +0 50000 0 00133    00443 SUB +0 40200 0 00162    00444 STO +0 60100 0 00615    00445 TSX +0 07400 4 00015
 00446 TXH +3 00000 0 00615    00447 STO +0 60100 0 00160
                 THROUGH CALC, FOR SUBS=SUBS-1,-1,SUBS.L.1                          088  LM00104
 00450 CLA +0 50000 0 00157    00451 SUB +0 40200 0 00162    00452 STO +0 60100 0 00157    00453 TRA +0 02000 0 00457
 00454 CLS +0 50200 0 00162    00455 ADD +0 40000 0 00157    00456 STO +0 60100 0 00157    00457 CLA +0 50000 0 00157
 00460 SUB +0 40200 0 00162    00461 TZE +0 10000 0 00463    00462 TMI -0 12000 0 00504
                 VAL=VAL+MULT*(SUBS(SUBS)-1)                                        089  LM00105
 00463 LXA +0 53400 1 00157    00464 CLA +0 50000 1 00157    00465 SUB +0 40200 0 00162    00466 XCA +0 13100 0 00000
 00467 MPY +0 20000 0 00135    00470 XCA +0 13100 0 00000    00471 ADD +0 40000 0 00160    00472 STO +0 60100 0 00160
      CALC       MULT=MULT*VAR.(DIMVEC-SUBS)                                        090  LM00106
 00473 CLA +0 50000 0 00133    00474 SUB +0 40200 0 00157    00475 STO +0 60100 0 00615    00476 TSX +0 07400 4 00015
 00477 TXH +3 00000 0 00615    00500 XCA +0 13100 0 00000    00501 MPY +0 20000 0 00135    00502 STQ -0 60000 0 00135
 00503 TRA +0 02000 0 00454
                 LINSUB=VAL                                                         091  LM00107
 00504 CLA +0 50000 0 00160    00505 STO +0 60100 0 00000
      CKSUB      WHENEVER LINSUB.L.0.OR.LINSUB.G.DIM.(NAME)                         092  LM00109
 00506 TSX +0 07400 4 00004    00507 TXH +3 00000 0 00000    00510 CHS +0 76000 0 00002    00511 ADD +0 40000 0 00000
 00512 TZE +0 10000 0 00514    00513 TPL +0 12000 0 00520    00514 CLA +0 50000 0 00000    00515 SUB +0 40200 0 00161
 00516 TZE +0 10000 0 00550    00517 TPL +0 12000 0 00550
                 LIST=0                                                             093  LM00110
 00520 CLA +0 50000 0 00161    00521 STO +0 60100 0 77461
                 ADDCOM.(COM7)                                                      094  LM00111
 00522 TSX +0 07400 4 00000    00523 TXH +3 00000 0 00114
                 VECTOR VALUES COM7=20,$YOU HAVE REFERED TO $                       095  LM00112
 00110     -0 66060 6 06060    00111     +2 55125 2 46063    00112     -2 52560 5 12526    00113     -3 04664 6 03021
 00114     +0 00000 0 00024
                 ADDNAM.(NAME)                                                      096  LM00113
 00524 TSX +0 07400 4 00001    00525 TXH +3 00000 0 00000
                 LIST=LIST+1                                                        097  LM00114
 00526 CLA +0 50000 0 77461    00527 ADD +0 40000 0 00162    00530 STO +0 60100 0 77461
                 LIST(LIST)=$($                                                     098  LM00115
 00531 LXA +0 53400 1 77461    00532 CLA +0 50000 0 00173    00533 STO +0 60100 1 77461
                 ADDNUM.(LINSUB)                                                    099  LM00116
 00534 TSX +0 07400 4 00002    00535 TXH +3 00000 0 00000
                 LIST=LIST+1                                                        100  LM00117
 00536 CLA +0 50000 0 77461    00537 ADD +0 40000 0 00162    00540 STO +0 60100 0 77461
                 LIST(LIST)=$)$                                                     101  LM00118
 00541 LXA +0 53400 1 77461    00542 CLA +0 50000 0 00170    00543 STO +0 60100 1 77461
                 ADDCOM.(COM8)                                                      102  LM00119
 00544 TSX +0 07400 4 00000    00545 TXH +3 00000 0 00124
                 VECTOR VALUES COM8=40,$ WHICH IS OUTSIDE THE ARRAY.  $,            103  LM00120
                1$TRY AGAIN.$                                                       103  LM00121
 00115     +2 13145 3 36060    00116     -2 35170 6 02127    00117     -1 12170 3 36060    00120     -2 33025 6 02151
 00121     -2 36231 2 42560    00122     -2 03162 6 04664    00123     -2 06630 3 12330    00124     +0 00000 0 00050
                 CRTYPE.                                                            104  LM00122
 00546 TSX +0 07400 4 00003
                 READY.                                                             105  LM00123
 00547 TSX +0 07400 4 00012
                 END OF CONDITIONAL                                                 106  LM00124
      RETURN     STARNM=NAME                                                        107  LM00126
 00550 CLA +0 50000 0 00000    00551 STO +0 60100 0 00136
                 STARSB=LINSUB                                                      108  LM00127
 00552 CLA +0 50000 0 00000    00553 STO +0 60100 0 00137
                 FUNCTION RETURN                                                    109  LM00128
 00554 TRA +0 02000 0 00611
                 END OF FUNCTION                                                    110  LM00129
 00555 TSX +0 07400 4 00005    00556 TXH +3 00000 0 00000    00557 SXD -0 63400 1 00556    00560 SXA +0 63400 4 00611
 00561 CLA +0 50000 4 00001    00562 STA +0 62100 0 00204    00563 STO +0 60100 0 00214    00564 STO +0 60100 0 00216
 00565 STO +0 60100 0 00226    00566 STO +0 60100 0 00232    00567 STO +0 60100 0 00234    00570 STO +0 60100 0 00257
 00571 STO +0 60100 0 00321    00572 STO +0 60100 0 00346    00573 STO +0 60100 0 00400    00574 STO +0 60100 0 00507
 00575 STO +0 60100 0 00525    00576 STA +0 62100 0 00550    00577 CLA +0 50000 4 00002    00600 STA +0 62100 0 00206
 00601 STA +0 62100 0 00246    00602 STA +0 62100 0 00301    00603 STA +0 62100 0 00505    00604 STA +0 62100 0 00511
 00605 STA +0 62100 0 00514    00606 STO +0 60100 0 00535    00607 STA +0 62100 0 00552    00610 TRA +0 02000 2 00001
 00611 AXT +0 77400 4 00000    00612 LXA +0 53400 2 00556    00613 LXD -0 53400 1 00556    00614 TRA +0 02000 4 00001
1     MAD PROGRAM LISTING ... ... ...                 FILE     INS   MAD            02/07/68    2000.9
-
                  EXTERNAL FUNCTION(A1,A2)                                                        *001 LM00001
                  NORMAL MODE IS INTEGER                                                          *002 LM00002
                  BOOLEAN WSEEK                                                                   *003 LM00003
                  PROGRAM COMMON LIST(84),MAX,FROM(20),TO(20),                                    *004 LM00004
                1 FSUB(20),TSUB(20),USES(60),CURCOR,PATCH,SKIP                                    *004 LM00005
                  VECTOR VALUES SAVED=$****** SAVED$                                              *005 LM00006
                                                                                                       LM00007
                 RETURN VALUE OF INSTRUCTION AT ABSOLUTE LOCATION A1                                   LM00008
                                                                                                       LM00009
                  ENTRY TO INS.                                                                   *006 LM00010
                  ISETUP.                                                                         *007 LM00011
                  FUNCTION RETURN WGET.(A1-IFUDGE)                                                *008 LM00012
                                                                                                       LM00013
                 SET VALUE OF INSTRUCTION AT ABSOLUTE LOCATION                                         LM00014
                 A1 TO A2                                                                              LM00015
                                                                                                       LM00016
                  ENTRY TO SETINS.                                                                *009 LM00017
                  ISETUP.                                                                         *010 LM00018
                  WSET.(A1-IFUDGE,A2)                                                             *011 LM00019
                  FUNCTION RETURN                                                                 *012 LM00020
                                                                                                       LM00021
                 SETUP INS IN WINDOW                                                                   LM00022
                                                                                                       LM00023
                  INTERNAL FUNCTION                                                               *013 LM00024
                  ENTRY TO ISETUP.                                                                *014 LM00025
                  WHENEVER WSEEK.($INS$),FUNCTION RETURN                                          *015 LM00026
                  SAVED=CURCOR                                                                    *016 LM00027
                  MAP.($PROG$,START,COUNT)                                                        *017 LM00028
                  IFUDGE=START-1                                                                  *018 LM00029
                  MAP.($PROLOG$,START,PCOUNT)                                                     *019 LM00030
                  WSETUP.($INS$,SAVED,SKIP+IFUDGE+2,COUNT+PCOUNT)                                 *020 LM00031
                  FUNCTION RETURN                                                                 *021 LM00032
                  END OF FUNCTION                                                                 *022 LM00033
                  END OF FUNCTION                                                                 *023 LM00034
1MAD PROGRAM,TYPE NOV 1963      (ALL NUMBERS ARE OCTAL)
0TOTAL LOCATIONS   00147 TRANSFER VECTOR LENGTH  00006 PROGRAM BEGINS    00024 FIRST UNUSED COMMON/ERASABLE  77107
0 PROGRAM IS AN EXTERNAL FUNCTION.   THE FOLLOWING ARE ENTRIES
      SETINS 00037   0        INS    00025   0
0VARIABLE STORAGE (A=ARRAY,C=COMMON,E=ERASABLE,DIGIT=MODE)
      COUNT  00010   1        FSUB   77261 AC1        MAX    77334  C1        SAVED  00014 A 1        TO     77306 AC1
      CURCOR 77112  C1        IFUDGE 00011   1        PATCH  77111  C1        SKIP   77110  C1        TSUB   77234 AC1
      FROM   77333 AC1        LIST   77461 AC1        PCOUNT 00012   1        START  00015   1        USES   77207 AC1
0FUNCTION DICTIONARY
      EXIT   00000   1        MAP    00001   1        WGET   00002   1        WSEEK  00003   2        WSET   00004   1
      WSETUP 00005   1        ISETUP 00006   1
0ABSOLUTE CONSTANTS
 00017 +000000000002     00023 -075146434627     00022 -075146276060     00021 +314562606060     00016 +000000000001
 00020 +233000000000
0PROGRAM
                 EXTERNAL FUNCTION(A1,A2)                                           001  LM00001
                 NORMAL MODE IS INTEGER                                             002  LM00002
                 BOOLEAN WSEEK                                                      003  LM00003
                 PROGRAM COMMON LIST(84),MAX,FROM(20),TO(20),                       004  LM00004
                1FSUB(20),TSUB(20),USES(60),CURCOR,PATCH,SKIP                       004  LM00005
                 VECTOR VALUES SAVED=$****** SAVED$                                 005  LM00006
 00013     -2 06221 6 52524    00014     -1 45454 5 45454
                 ENTRY TO INS.                                                      006  LM00010
 00024 TRA +0 02000 0 00027    00025 SXA +0 63400 2 00127    00026 TSX +0 07400 2 00127
                 ISETUP.                                                            007  LM00011
 00027 TSX +0 07400 4 00006
                 FUNCTION RETURN WGET.(A1-IFUDGE)                                   008  LM00012
 00030 CLA +0 50000 0 00000    00031 SUB +0 40200 0 00011    00032 STO +0 60100 0 00144    00033 TSX +0 07400 4 00002
 00034 TXH +3 00000 0 00144    00035 TRA +0 02000 0 00140
                 ENTRY TO SETINS.                                                   009  LM00017
 00036 TRA +0 02000 0 00041    00037 SXA +0 63400 2 00127    00040 TSX +0 07400 2 00127
                 ISETUP.                                                            010  LM00018
 00041 TSX +0 07400 4 00006
                 WSET.(A1-IFUDGE,A2)                                                011  LM00019
 00042 CLA +0 50000 0 00000    00043 SUB +0 40200 0 00011    00044 STO +0 60100 0 00144    00045 TSX +0 07400 4 00004
 00046 TXH +3 00000 0 00144    00047 TXH +3 00000 0 00000
                 FUNCTION RETURN                                                    012  LM00020
 00050 TRA +0 02000 0 00140
                 INTERNAL FUNCTION                                                  013  LM00024
 00051 TRA +0 02000 0 00126
                 ENTRY TO ISETUP.                                                   014  LM00025
 00052 TRA +0 02000 0 00055    00006 TTR +0 02100 0 00053    00053 SXA +0 63400 2 00114    00054 TSX +0 07400 2 00114
                 WHENEVER WSEEK.($INS$),FUNCTION RETURN                             015  LM00026
 00055 TSX +0 07400 4 00003    00056 TXH +3 00000 0 00021    00057 TZE +0 10000 0 00061    00060 TRA +0 02000 0 00120
                 SAVED=CURCOR                                                       016  LM00027
 00061 CLA +0 50000 0 77112    00062 STO +0 60100 0 00014
                 MAP.($PROG$,START,COUNT)                                           017  LM00028
 00063 TSX +0 07400 4 00001    00064 TXH +3 00000 0 00022    00065 TXH +3 00000 0 00015    00066 TXH +3 00000 0 00010
                 IFUDGE=START-1                                                     018  LM00029
 00067 CLA +0 50000 0 00015    00070 SUB +0 40200 0 00016    00071 STO +0 60100 0 00011
                 MAP.($PROLOG$,START,PCOUNT)                                        019  LM00030
 00072 TSX +0 07400 4 00001    00073 TXH +3 00000 0 00023    00074 TXH +3 00000 0 00015    00075 TXH +3 00000 0 00012
                 WSETUP.($INS$,SAVED,SKIP+IFUDGE+2,COUNT+PCOUNT)                    020  LM00031
 00076 CLA +0 50000 0 00010    00077 ADD +0 40000 0 00012    00100 STO +0 60100 0 00124    00101 CLA +0 50000 0 77110
 00102 ADD +0 40000 0 00011    00103 ADD +0 40000 0 00017    00104 STO +0 60100 0 00125    00105 TSX +0 07400 4 00005
 00106 TXH +3 00000 0 00021    00107 TXH +3 00000 0 00014    00110 TXH +3 00000 0 00125    00111 TXH +3 00000 0 00124
                 FUNCTION RETURN                                                    021  LM00032
 00112 TRA +0 02000 0 00120
                 END OF FUNCTION                                                    022  LM00033
 00113 TSX +0 07400 4 00000    00114 TXH +3 00000 0 00000    00115 SXD -0 63400 1 00114    00116 SXA +0 63400 4 00120
 00117 TRA +0 02000 2 00001    00120 AXT +0 77400 4 00000    00121 LXA +0 53400 2 00114    00122 LXD -0 53400 1 00114
 00123 TRA +0 02000 4 00001
                 END OF FUNCTION                                                    023  LM00034
 00126 TSX +0 07400 4 00000    00127 TXH +3 00000 0 00000    00130 SXD -0 63400 1 00127    00131 SXA +0 63400 4 00140
 00132 CLA +0 50000 4 00001    00133 STA +0 62100 0 00030    00134 STA +0 62100 0 00042    00135 CLA +0 50000 4 00002
 00136 STO +0 60100 0 00047    00137 TRA +0 02000 2 00001    00140 AXT +0 77400 4 00000    00141 LXA +0 53400 2 00127
 00142 LXD -0 53400 1 00127    00143 TRA +0 02000 4 00001
1     MAD PROGRAM LISTING ... ... ...                 FILE    JUST   MAD            02/07/68    2000.9
-
                  EXTERNAL FUNCTION(X)                                                            *001 LM00001
                  NORMAL MODE IS INTEGER                                                          *002 LM00002
                                                                                                       LM00003
                 RIGHT JUSTIFY WORD IN X                                                               LM00004
                                                                                                       LM00005
                  ENTRY TO RTJUST.                                                                *003 LM00006
                  WHENEVER X.E.$ $,FUNCTION RETURN                                                *004 LM00007
      A           WHENEVER X.A.77K.NE.$00000 $,FUNCTION RETURN                                    *005 LM00008
                  X=$ 00000$.V.X.RS.6                                                             *006 LM00009
                  TRANSFER TO A                                                                   *007 LM00010
                                                                                                       LM00011
                 LEFT JUSTIFY WORD IN X                                                                LM00012
                                                                                                       LM00013
                  ENTRY TO LTJUST.                                                                *008 LM00014
                  WHENEVER X.E.$ $,FUNCTION RETURN                                                *009 LM00015
      B           WHENEVER X.RS.30.NE.$00000$,FUNCTION RETURN                                     *010 LM00016
                  X=$00000 $.V.X.LS.6                                                             *011 LM00017
                  TRANSFER TO B                                                                   *012 LM00018
                  END OF FUNCTION                                                                 *013 LM00019
1MAD PROGRAM,TYPE NOV 1963      (ALL NUMBERS ARE OCTAL)
0TOTAL LOCATIONS   00115 TRANSFER VECTOR LENGTH  00001 PROGRAM BEGINS    00014
0 PROGRAM IS AN EXTERNAL FUNCTION.   THE FOLLOWING ARE ENTRIES
      LTJUST 00042   0        RTJUST 00015   0
0VARIABLE STORAGE (A=ARRAY,C=COMMON,E=ERASABLE,DIGIT=MODE)
      A      00002   4        B      00003   4
0FUNCTION DICTIONARY
      EXIT   00000   1
0ABSOLUTE CONSTANTS
 00006 +000000000036     00012 -200000000000     00005 +000000000006     00007 +000000000060     00010 +000000000077
 00013 -206060606060     00004 +000000000001     00011 +233000000000
0STATEMENT DICTIONARY
 00002 TXL -300032000023       00003 TXL -300061000050
0PROGRAM
                 EXTERNAL FUNCTION(X)                                               001  LM00001
                 NORMAL MODE IS INTEGER                                             002  LM00002
                 ENTRY TO RTJUST.                                                   003  LM00006
 00014 TRA +0 02000 0 00017    00015 SXA +0 63400 2 00071    00016 TSX +0 07400 2 00071
                 WHENEVER X.E.$ $,FUNCTION RETURN                                   004  LM00007
 00017 CLA +0 50000 0 00024    00020 SUB +0 40200 0 00013    00021 TNZ -0 10000 0 00023    00022 TRA +0 02000 0 00106
      A          WHENEVER X.A.77K.NE.$00000 $,FUNCTION RETURN                       005  LM00008
 00023 CAL -0 50000 0 00024    00024 ANA -0 32000 0 00010    00025 SLW +0 60200 0 00112    00026 CLA +0 50000 0 00112
 00027 SUB +0 40200 0 00007    00030 TZE +0 10000 0 00032    00031 TRA +0 02000 0 00106
                 X=$ 00000$.V.X.RS.6                                                006  LM00009
 00032 CAL -0 50000 0 00005    00033 STA +0 62100 0 00035    00034 CAL -0 50000 0 00024    00035 LGR -0 76500 0 00000
 00036 ORA -0 50100 0 00012    00037 SLW +0 60200 0 00024
                 TRANSFER TO A                                                      007  LM00010
 00040 TRA +0 02000 0 00002
                 ENTRY TO LTJUST.                                                   008  LM00014
 00041 TRA +0 02000 0 00044    00042 SXA +0 63400 2 00071    00043 TSX +0 07400 2 00071
                 WHENEVER X.E.$ $,FUNCTION RETURN                                   009  LM00015
 00044 CLA +0 50000 0 00024    00045 SUB +0 40200 0 00013    00046 TNZ -0 10000 0 00050    00047 TRA +0 02000 0 00106
      B          WHENEVER X.RS.30.NE.$00000$,FUNCTION RETURN                        010  LM00016
 00050 CAL -0 50000 0 00006    00051 STA +0 62100 0 00053    00052 CAL -0 50000 0 00024    00053 LGR -0 76500 0 00000
 00054 SLW +0 60200 0 00112    00055 CLA +0 50000 0 00112    00056 SUB +0 40200 0 00007    00057 TZE +0 10000 0 00061
 00060 TRA +0 02000 0 00106
                 X=$00000 $.V.X.LS.6                                                011  LM00017
 00061 CAL -0 50000 0 00005    00062 STA +0 62100 0 00064    00063 CAL -0 50000 0 00024    00064 ALS +0 76700 0 00000
 00065 ORA -0 50100 0 00007    00066 SLW +0 60200 0 00024
                 TRANSFER TO B                                                      012  LM00018
 00067 TRA +0 02000 0 00003
                 END OF FUNCTION                                                    013  LM00019
 00070 TSX +0 07400 4 00000    00071 TXH +3 00000 0 00000    00072 SXD -0 63400 1 00071    00073 SXA +0 63400 4 00106
 00074 CLA +0 50000 4 00001    00075 STA +0 62100 0 00017    00076 STA +0 62100 0 00023    00077 STA +0 62100 0 00034
 00100 STA +0 62100 0 00037    00101 STA +0 62100 0 00044    00102 STA +0 62100 0 00052    00103 STA +0 62100 0 00063
 00104 STA +0 62100 0 00066    00105 TRA +0 02000 2 00001    00106 AXT +0 77400 4 00000    00107 LXA +0 53400 2 00071
 00110 LXD -0 53400 1 00071    00111 TRA +0 02000 4 00001
1     MAD PROGRAM LISTING ... ... ...                 FILE       L   MAD            02/07/68    2001.8
-
                  EXTERNAL FUNCTION                                                               *001 LM00001
                  NORMAL MODE IS INTEGER                                                          *002 LM00002
                  BOOLEAN WRKBLE                                                                  *003 LM00003
                  PROGRAM COMMON LIST(84)                                                         *004 LM00004
                                                                                                       LM00005
                 GIVE USER INFORMATION ON LINKAGE OF SUBROUTINE BEING WORKED                           LM00006
                                                                                                       LM00007
                  ENTRY TO L.                                                                     *005 LM00008
                  FWRKBL.                                                                         *006 LM00009
                  GWORK.(WORK)                                                                    *007 LM00010
                  LOAD.                                                                           *008 LM00011
                  LIST=0                                                                          *009 LM00012
                  ADDNAM.(WORK)                                                                   *010 LM00013
                  MAP.($PROLOG$,PSTART,PCOUNT)                                                    *011 LM00014
                                                                                                       LM00015
                  WHENEVER PCOUNT.E.0                                                             *012 LM00016
                  ADDCOM.(COM1)                                                                   *013 LM00017
                  VECTOR VALUES COM1=30,$ IS A MAIN PROGRAM.  TRY AGAIN$                          *014 LM00018
                  TRANSFER TO OUT                                                                 *015 LM00019
                  END OF CONDITIONAL                                                              *016 LM00020
                                                                                                       LM00021
                  XR4=((.N.INS.(PSTART+PCOUNT-4).A.77777K)+1).A.77777K                            *017 LM00022
                                                                                                       LM00023
                  WHENEVER XR4.E.0                                                                *018 LM00024
                  ADDCOM.(COM2)                                                                   *019 LM00025
                  VECTOR VALUES COM2=22,$ HAS NEVER BEEN CALLED$                                  *020 LM00026
                  TRANSFER TO OUT                                                                 *021 LM00027
                  END OF CONDITIONAL                                                              *022 LM00028
                                                                                                       LM00029
                  ADDCOM.(COM3)                                                                   *023 LM00030
                  VECTOR VALUES COM3=17,$ WAS CALLED FROM $                                       *024 LM00031
                  FROM=ORGNAM.(XR4)                                                               *025 LM00032
                  ADDNAM.(FROM)                                                                   *026 LM00033
                                                                                                       LM00034
                  WHENEVER WRKBLE.(FROM)                                                          *027 LM00035
                  SWORK.(FROM)                                                                    *028 LM00036
                  MAP.($PROG$,START,COUNT)                                                        *029 LM00037
                                                                                                       LM00038
                  WHENEVER XR4.L.START.OR.XR4.GE.START+COUNT                                      *030 LM00039
                  ADDCOM.(COM5)                                                                   *031 LM00040
                  VECTOR VALUES COM5=21,$ OUTSIDE PROGRAM AREA$                                   *032 LM00041
                  SWORK.(WORK)                                                                    *033 LM00042
                  TRANSFER TO ILLEG                                                               *034 LM00043
                  END OF CONDITIONAL                                                              *035 LM00044
                                                                                                       LM00045
                  ADDCOM.(COM4)                                                                   *036 LM00046
                  VECTOR VALUES COM4=14,$ AT STATEMENT $                                          *037 LM00047
                  ADDSL.(SNNAM.(XR4))                                                             *038 LM00048
                  SWORK.(WORK)                                                                    *039 LM00049
                  TRANSFER TO OUT                                                                 *040 LM00050
                  END OF CONDITIONAL                                                              *041 LM00051
                                                                                                       LM00052
      ILLEG       ADDCOM.(COM6)                                                                   *042 LM00053
                  VECTOR VALUES COM6=4,$ AT $                                                     *043 LM00054
                  ORG.(FROM,START,COUNT)                                                          *044 LM00055
                  ADDOCT.(XR4-START)                                                              *045 LM00056
                  ADDCOM.(COM7)                                                                   *046 LM00057
                  VECTOR VALUES COM7=15,$ RELATIVE OCTAL$                                         *047 LM00058
                                                                                                       LM00059
      OUT         ADDCOM.(COM8)                                                                   *048 LM00060
                  VECTOR VALUES COM8=1,$.$                                                        *049 LM00061
                  CRTYPE.                                                                         *050 LM00062
                  PRINT.(0)                                                                       *051 LM00063
                  READY.                                                                          *052 LM00064
                  END OF FUNCTION                                                                 *053 LM00065
1MAD PROGRAM,TYPE NOV 1963      (ALL NUMBERS ARE OCTAL)
0TOTAL LOCATIONS   00267 TRANSFER VECTOR LENGTH  00022 PROGRAM BEGINS    00103 FIRST UNUSED COMMON/ERASABLE  77334
0 PROGRAM IS AN EXTERNAL FUNCTION.   THE FOLLOWING ARE ENTRIES
      L      00104   0
0VARIABLE STORAGE (A=ARRAY,C=COMMON,E=ERASABLE,DIGIT=MODE)
      COM1   00032 A 1        COM5   00054 A 1        COUNT  00065   1        OUT    00024   4        START  00071   1
      COM2   00037 A 1        COM6   00056 A 1        FROM   00066   1        PCOUNT 00067   1        WORK   00072   1
      COM3   00043 A 1        COM7   00062 A 1        ILLEG  00023   4        PSTART 00070   1        XR4    00073   1
      COM4   00047 A 1        COM8   00064 A 1        LIST   77461 AC1
0FUNCTION DICTIONARY
      ADDCOM 00000   1        ADDNAM 00001   1        ADDOCT 00002   1        ADDSL  00003   1        CRTYPE 00004   1
      EXIT   00005   1        FWRKBL 00006   1        GWORK  00007   1        INS    00010   1        LOAD   00011   1
      MAP    00012   1        ORGNAM 00013   1        ORG    00014   1        PRINT  00015   1        READY  00016   1
      SNNAM  00017   1        SWORK  00020   1        WRKBLE 00021   2
0ABSOLUTE CONSTANTS
 00101 -075146276060     00077 +000000077777     00076 +000000000004     00102 -075146434627     00074 +000000000000
 00075 +000000000001     00100 +233000000000
0STATEMENT DICTIONARY
 00023 TXL -300232000230       00024 TXL -300247000245
0PROGRAM
                 EXTERNAL FUNCTION                                                  001  LM00001
                 NORMAL MODE IS INTEGER                                             002  LM00002
                 BOOLEAN WRKBLE                                                     003  LM00003
                 PROGRAM COMMON LIST(84)                                            004  LM00004
                 ENTRY TO L.                                                        005  LM00008
 00103 TRA +0 02000 0 00106    00104 SXA +0 63400 2 00254    00105 TSX +0 07400 2 00254
                 FWRKBL.                                                            006  LM00009
 00106 TSX +0 07400 4 00006
                 GWORK.(WORK)                                                       007  LM00010
 00107 TSX +0 07400 4 00007    00110 TXH +3 00000 0 00072
                 LOAD.                                                              008  LM00011
 00111 TSX +0 07400 4 00011
                 LIST=0                                                             009  LM00012
 00112 CLA +0 50000 0 00074    00113 STO +0 60100 0 77461
                 ADDNAM.(WORK)                                                      010  LM00013
 00114 TSX +0 07400 4 00001    00115 TXH +3 00000 0 00072
                 MAP.($PROLOG$,PSTART,PCOUNT)                                       011  LM00014
 00116 TSX +0 07400 4 00012    00117 TXH +3 00000 0 00102    00120 TXH +3 00000 0 00070    00121 TXH +3 00000 0 00067
                 WHENEVER PCOUNT.E.0                                                012  LM00016
 00122 CLA +0 50000 0 00067    00123 SUB +0 40200 0 00074    00124 TNZ -0 10000 0 00130
                 ADDCOM.(COM1)                                                      013  LM00017
 00125 TSX +0 07400 4 00000    00126 TXH +3 00000 0 00032
                 VECTOR VALUES COM1=30,$ IS A MAIN PROGRAM.  TRY AGAIN$             014  LM00018
 00025     -2 02127 2 13145    00026     +3 36060 6 35170    00027     -1 14627 5 12144    00030     -0 42131 4 56047
 00031     -2 03162 6 02160    00032     +0 00000 0 00036
                 TRANSFER TO OUT                                                    015  LM00019
 00127 TRA +0 02000 0 00024
                 END OF CONDITIONAL                                                 016  LM00020
                 XR4=((.N.INS.(PSTART+PCOUNT-4).A.77777K)+1).A.77777K               017  LM00022
 00130 CLA +0 50000 0 00070    00131 ADD +0 40000 0 00067    00132 SUB +0 40200 0 00076    00133 STO +0 60100 0 00264
 00134 TSX +0 07400 4 00010    00135 TXH +3 00000 0 00264    00136 STO +0 60100 0 00264    00137 CAL -0 50000 0 00264
 00140 COM +0 76000 0 00006    00141 ANA -0 32000 0 00077    00142 SLW +0 60200 0 00264    00143 CLA +0 50000 0 00264
 00144 ADD +0 40000 0 00075    00145 STO +0 60100 0 00264    00146 CAL -0 50000 0 00264    00147 ANA -0 32000 0 00077
 00150 SLW +0 60200 0 00073
                 WHENEVER XR4.E.0                                                   018  LM00024
 00151 CLA +0 50000 0 00073    00152 SUB +0 40200 0 00074    00153 TNZ -0 10000 0 00157
                 ADDCOM.(COM2)                                                      019  LM00025
 00154 TSX +0 07400 4 00000    00155 TXH +3 00000 0 00037
                 VECTOR VALUES COM2=22,$ HAS NEVER BEEN CALLED$                     020  LM00026
 00033     -0 34325 2 46060    00034     +2 52545 6 02321    00035     +2 56525 5 16022    00036     -2 03021 6 26045
 00037     +0 00000 0 00026
                 TRANSFER TO OUT                                                    021  LM00027
 00156 TRA +0 02000 0 00024
                 END OF CONDITIONAL                                                 022  LM00028
                 ADDCOM.(COM3)                                                      023  LM00030
 00157 TSX +0 07400 4 00000    00160 TXH +3 00000 0 00043
                 VECTOR VALUES COM3=17,$ WAS CALLED FROM $                          024  LM00031
 00040     +2 65146 4 46060    00041     +2 14343 2 52460    00042     -2 06621 6 26023    00043     +0 00000 0 00021
                 FROM=ORGNAM.(XR4)                                                  025  LM00032
 00161 TSX +0 07400 4 00013    00162 TXH +3 00000 0 00073    00163 STO +0 60100 0 00066
                 ADDNAM.(FROM)                                                      026  LM00033
 00164 TSX +0 07400 4 00001    00165 TXH +3 00000 0 00066
                 WHENEVER WRKBLE.(FROM)                                             027  LM00035
 00166 TSX +0 07400 4 00021    00167 TXH +3 00000 0 00066    00170 TZE +0 10000 0 00230
                 SWORK.(FROM)                                                       028  LM00036
 00171 TSX +0 07400 4 00020    00172 TXH +3 00000 0 00066
                 MAP.($PROG$,START,COUNT)                                           029  LM00037
 00173 TSX +0 07400 4 00012    00174 TXH +3 00000 0 00101    00175 TXH +3 00000 0 00071    00176 TXH +3 00000 0 00065
                 WHENEVER XR4.L.START.OR.XR4.GE.START+COUNT                         030  LM00039
 00177 CLA +0 50000 0 00071    00200 ADD +0 40000 0 00065    00201 CHS +0 76000 0 00002    00202 ADD +0 40000 0 00073
 00203 TZE +0 10000 0 00211    00204 TPL +0 12000 0 00211    00205 CLA +0 50000 0 00073    00206 SUB +0 40200 0 00071
 00207 TZE +0 10000 0 00216    00210 TPL +0 12000 0 00216
                 ADDCOM.(COM5)                                                      031  LM00040
 00211 TSX +0 07400 4 00000    00212 TXH +3 00000 0 00054
                 VECTOR VALUES COM5=21,$ OUTSIDE PROGRAM AREA$                      032  LM00041
 00050     -1 12521 6 06060    00051     +2 75121 4 46021    00052     +2 42560 4 75146    00053     -2 04664 6 36231
 00054     +0 00000 0 00025
                 SWORK.(WORK)                                                       033  LM00042
 00213 TSX +0 07400 4 00020    00214 TXH +3 00000 0 00072
                 TRANSFER TO ILLEG                                                  034  LM00043
 00215 TRA +0 02000 0 00023
                 END OF CONDITIONAL                                                 035  LM00044
                 ADDCOM.(COM4)                                                      036  LM00046
 00216 TSX +0 07400 4 00000    00217 TXH +3 00000 0 00047
                 VECTOR VALUES COM4=14,$ AT STATEMENT $                             037  LM00047
 00044     -2 36060 6 06060    00045     +2 16325 4 42545    00046     -2 02163 6 06263    00047     +0 00000 0 00016
                 ADDSL.(SNNAM.(XR4))                                                038  LM00048
 00220 TSX +0 07400 4 00017    00221 TXH +3 00000 0 00073    00222 STO +0 60100 0 00264    00223 TSX +0 07400 4 00003
 00224 TXH +3 00000 0 00264
                 SWORK.(WORK)                                                       039  LM00049
 00225 TSX +0 07400 4 00020    00226 TXH +3 00000 0 00072
                 TRANSFER TO OUT                                                    040  LM00050
 00227 TRA +0 02000 0 00024
                 END OF CONDITIONAL                                                 041  LM00051
      ILLEG      ADDCOM.(COM6)                                                      042  LM00053
 00230 TSX +0 07400 4 00000    00231 TXH +3 00000 0 00056
                 VECTOR VALUES COM6=4,$ AT $                                        043  LM00054
 00055     -2 02163 6 06060    00056     +0 00000 0 00004
                 ORG.(FROM,START,COUNT)                                             044  LM00055
 00232 TSX +0 07400 4 00014    00233 TXH +3 00000 0 00066    00234 TXH +3 00000 0 00071    00235 TXH +3 00000 0 00065
                 ADDOCT.(XR4-START)                                                 045  LM00056
 00236 CLA +0 50000 0 00073    00237 SUB +0 40200 0 00071    00240 STO +0 60100 0 00264    00241 TSX +0 07400 4 00002
 00242 TXH +3 00000 0 00264
                 ADDCOM.(COM7)                                                      046  LM00057
 00243 TSX +0 07400 4 00000    00244 TXH +3 00000 0 00062
                 VECTOR VALUES COM7=15,$ RELATIVE OCTAL$                            047  LM00058
 00057     -2 32143 6 06060    00060     +3 16525 6 04623    00061     -2 05125 4 32163    00062     +0 00000 0 00017
      OUT        ADDCOM.(COM8)                                                      048  LM00060
 00245 TSX +0 07400 4 00000    00246 TXH +3 00000 0 00064
                 VECTOR VALUES COM8=1,$.$                                           049  LM00061
 00063     +3 36060 6 06060    00064     +0 00000 0 00001
                 CRTYPE.                                                            050  LM00062
 00247 TSX +0 07400 4 00004
                 PRINT.(0)                                                          051  LM00063
 00250 TSX +0 07400 4 00015    00251 TXH +3 00000 0 00074
                 READY.                                                             052  LM00064
 00252 TSX +0 07400 4 00016
                 END OF FUNCTION                                                    053  LM00065
 00253 TSX +0 07400 4 00005    00254 TXH +3 00000 0 00000    00255 SXD -0 63400 1 00254    00256 SXA +0 63400 4 00260
 00257 TRA +0 02000 2 00001    00260 AXT +0 77400 4 00000    00261 LXA +0 53400 2 00254    00262 LXD -0 53400 1 00254
 00263 TRA +0 02000 4 00001
1     MAD PROGRAM LISTING ... ... ...                 FILE  LOADER   MAD            02/07/68    2001.9
-
                  EXTERNAL FUNCTION                                                               *001 LM00001
                  NORMAL MODE IS INTEGER                                                          *002 LM00002
                  VECTOR VALUES LOADED=0B                                                         *003 LM00003
                  PROGRAM COMMON LIST(84),MAX,FROM(20),TO(20),                                    *004 LM00004
                1 FSUB(20),TSUB(20),USES(60),CURCOR,PATCH,SKIP                                    *004 LM00005
                  DIMENSION LOADER(20),CARD(2),LXA(2)                                             *005 LM00006
                  VECTOR VALUES SKIP=36                                                           *006 LM00007
                  VECTOR VALUES ADD=0400K8                                                        *007 LM00008
                  VECTOR VALUES SUB=0402K8                                                        *008 LM00009
                  VECTOR VALUES CLA=0500K8                                                        *009 LM00010
                  VECTOR VALUES CAL=4500K8                                                        *010 LM00011
                  VECTOR VALUES LDQ=0560K8                                                        *011 LM00012
                  VECTOR VALUES STO=0601K8                                                        *012 LM00013
                  VECTOR VALUES STA=0621K8                                                        *013 LM00014
                  VECTOR VALUES SLW=0602K8                                                        *014 LM00015
                  VECTOR VALUES STQ=4600K8                                                        *015 LM00016
                  VECTOR VALUES TSX=0074004K5                                                     *016 LM00017
                  VECTOR VALUES TRA=0020K8                                                        *017 LM00018
                  VECTOR VALUES TXH=3K11                                                          *018 LM00019
                  VECTOR VALUES ORA=4501K8                                                        *019 LM00020
                  VECTOR VALUES ANA=4320K8                                                        *020 LM00021
                  VECTOR VALUES MPY=0200K8                                                        *021 LM00022
                  VECTOR VALUES DVP=0221K8                                                        *022 LM00023
                  VECTOR VALUES FDP=0241K8                                                        *023 LM00024
                  VECTOR VALUES FMP=0260K8                                                        *024 LM00025
                  VECTOR VALUES FAD=0300K8                                                        *025 LM00026
                  VECTOR VALUES FSB=0302K8                                                        *026 LM00027
                  VECTOR VALUES ERA=0322K8                                                        *027 LM00028
                  VECTOR VALUES LXA=0534K8                                                        *028 LM00029
                  VECTOR VALUES PAX=0734K8                                                        *029 LM00030
                  VECTOR VALUES MADBUG=$(MDBG) SAVED$                                             *030 LM00031
                  VECTOR VALUES FRESH=$*FRESH SAVED$                                              *031 LM00032
                  VECTOR VALUES MDBG=$(MDBG)   BSS$                                               *032 LM00033
                  VECTOR VALUES USER=$(USER) SAVED$                                               *033 LM00034
                  VECTOR VALUES SAVED=$****** SAVED$                                              *034 LM00035
                  VECTOR VALUES BSS=$******   BSS$                                                *035 LM00036
                  VECTOR VALUES SYMTAB=$******SYMTAB$                                             *036 LM00037
                  VECTOR VALUES BCD=$******   BCD$                                                *037 LM00038
                  VECTOR VALUES MAD=$******   MAD$                                                *038 LM00039
                  VECTOR VALUES RESTOR=$RESTOR*FRESH$,777777777777K                               *039 LM00040
                  VECTOR VALUES SAVE=$  SAVE*FRESH$,777777777777K                                 *040 LM00041
                                                                                                       LM00042
                 UNLOAD.DESTROY ALL REFERENCES TO USER                                                 LM00043
                 CORE. THEY ARE NOW OBSOLETE.                                                          LM00044
                                                                                                       LM00045
                  ENTRY TO UNLOAD.                                                                *041 LM00046
                  WHENEVER .NOT.LOADED,FUNCTION RETURN                                            *042 LM00047
                                                                                                       LM00048
                  WSEEK.($SAVE$)                                                                  *043 LM00049
                  WSIZE.(SSIZE)                                                                   *044 LM00050
                  THROUGH DEL,FOR I=1,1,I.G.SSIZE                                                 *045 LM00051
                  SAVED=WGET.(I)                                                                  *046 LM00052
      DEL         WHENEVER FSTAT.(SAVED).NE.0,DELETE.(SAVED)                                      *047 LM00053
                  WHENEVER FSTAT.(USER).NE.0,DELETE.(USER)                                        *048 LM00054
                                                                                                       LM00055
                  WSEEK.($(MOVIE$)                                                                *049 LM00056
                  WSIZE.(SSIZE)                                                                   *050 LM00057
                  WDEL.(1,SSIZE)                                                                  *051 LM00058
                                                                                                       LM00059
                  THROUGH DIT,FOR VALUES OF I=$SAVE$,$BRK$,$VAR$,$INS$,                           *052 LM00060
                1 $MADTAB$,$(MOVIE$,$COMMON$                                                      *052 LM00061
      DIT         WDITCH.(I)                                                                      *053 LM00062
                                                                                                       LM00063
                  CURCOR=$******$                                                                 *054 LM00064
                  LOADED=0B                                                                       *055 LM00065
                  FUNCTION RETURN                                                                 *056 LM00066
                                                                                                       LM00067
                 LOAD AND SETUP A FRESH VERSION OF USER                                                LM00068
                 CORE. DO NECESSARY COMPILATIONS.                                                      LM00069
                                                                                                       LM00070
                  ENTRY TO LOAD.                                                                  *057 LM00071
                  WHENEVER LOADED, FUNCTION RETURN                                                *058 LM00072
                                                                                                       LM00073
                  WHENEVER USES(0).E.0                                                            *059 LM00074
                  PRINT.(COM1)                                                                    *060 LM00075
                  VECTOR VALUES COM1=33,$GIVE A USE REQUEST AND T$,                               *061 LM00076
                1 $RY AGAIN.$                                                                     *061 LM00077
                  READY.                                                                          *062 LM00078
                  END OF CONDITIONAL                                                              *063 LM00079
                                                                                                       LM00080
                  GWORKA.(WORK)                                                                   *064 LM00081
                  THROUGH COMP,FOR I=1,1,I.GE.USES(0)                                             *065 LM00082
                  BSS=USES(I)                                                                     *066 LM00083
                  SYMTAB=USES(I)                                                                  *067 LM00084
                  MAD=USES(I)                                                                     *068 LM00085
                  BCD=USES(I)                                                                     *069 LM00086
                                                                                                       LM00087
                  WHENEVER FSTAT.(BSS).NE.0.AND.FSTAT.(SYMTAB).NE.0                               *070 LM00088
                  WSETUP.($TEMP$,MAD,13,2)                                                        *071 LM00089
                  ONE=WGET.(1)                                                                    *072 LM00090
                  TWO=WGET.(2).A.7777K8                                                           *073 LM00091
                  WDITCH.($TEMP$)                                                                 *074 LM00092
                  WHENEVER ONE.E.$    00$.AND.TWO.E.$010000$,TRANSFER TO COMP                     *075 LM00093
                  SWORK.(MAD)                                                                     *076 LM00094
                  WSETUP.($PROG$,MAD,0)                                                           *077 LM00095
                  WSET.(13,ONE)                                                                   *078 LM00096
                  SWORK.(MAD)                                                                     *079 LM00097
                  END OF CONDITIONAL                                                              *080 LM00098
                                                                                                       LM00099
                  TRANS.(USES(I))                                                                 *081 LM00100
                                                                                                       LM00101
                  WHENEVER FSTAT.(BSS).E.0.OR.FSTAT.(SYMTAB).E.0                                  *082 LM00102
      AGAIN       PRINT.(COM3)                                                                    *083 LM00103
                  VECTOR VALUES COM3=37,$CORRECT THIS CONDITION A$,                               *084 LM00104
                1 $ND TRY AGAIN.$                                                                 *084 LM00105
                  READY.                                                                          *085 LM00106
                  END OF CONDITIONAL                                                              *086 LM00107
                                                                                                       LM00108
      COMP        CONTINUE                                                                        *087 LM00109
                                                                                                       LM00110
                  WSEEK.($(MDBG)$)                                                                *088 LM00111
                  WSET.(2,0)                                                                      *089 LM00112
                  SIZE=WGET.(3)                                                                   *090 LM00113
                  WSET.(3,PATCH+SIZE)                                                             *091 LM00114
                  WDUMP.($(MDBG)$)                                                                *092 LM00115
                  WSET.(3,SIZE)                                                                   *093 LM00116
                  SIZE=SIZE.A.77777K                                                              *094 LM00117
                  CHMODE.(MDBG,0)                                                                 *095 LM00118
                  PRINT.(COMLOD)                                                                  *096 LM00119
                  VECTOR VALUES COMLOD=27,$LOADING FRESH CORE IMAGE...$                           *097 LM00120
                  UCOUNT=1                                                                        *098 LM00121
                                                                                                       LM00122
      LOOP        LCOUNT=1                                                                        *099 LM00123
                  WHENEVER UCOUNT.E.1                                                             *100 LM00124
                  LOADER(1)=$ VLOAD$                                                              *101 LM00125
                  LOADER(2)=$(CONT)$                                                              *102 LM00126
                  LOADER(3)=$(MDBG)$                                                              *103 LM00127
                  LCOUNT=4                                                                        *104 LM00128
                  OTHERWISE                                                                       *105 LM00129
                  LOADER(1)=$   USE$                                                              *106 LM00130
                  LCOUNT=2                                                                        *107 LM00131
                  END OF CONDITIONAL                                                              *108 LM00132
                                                                                                       LM00133
      LILOOP      WHENEVER LCOUNT.L.20.AND.USES(UCOUNT).NE.0                                      *109 LM00134
                  LOADER(LCOUNT)=USES(UCOUNT)                                                     *110 LM00135
                  LCOUNT=LCOUNT+1                                                                 *111 LM00136
                  UCOUNT=UCOUNT+1                                                                 *112 LM00137
                  TRANSFER TO LILOOP                                                              *113 LM00138
                  END OF CONDITIONAL                                                              *114 LM00139
                                                                                                       LM00140
                  WHENEVER USES(UCOUNT).E.0                                                       *115 LM00141
                  LOADER(LCOUNT)=777777777777K                                                    *116 LM00142
                  OTHERWISE                                                                       *117 LM00143
                  LOADER(LCOUNT)=$(MORE)$                                                         *118 LM00144
                  END OF CONDITIONAL                                                              *119 LM00145
                                                                                                       LM00146
                  WHENEVER UCOUNT.G.17                                                            *120 LM00147
                  CHMODE.(FRESH,0)                                                                *121 LM00148
                  XEQ.(3,RESTOR,LOADER(1),SAVE)                                                   *122 LM00149
                  OTHERWISE                                                                       *123 LM00150
                  XEQ.(2,LOADER(1),SAVE)                                                          *124 LM00151
                  END OF CONDITIONAL                                                              *125 LM00152
                                                                                                       LM00153
                  WHENEVER FSTAT.(FRESH).E.0                                                      *126 LM00154
                  DELETE.(MADBUG)                                                                 *127 LM00155
                  TRANSFER TO AGAIN                                                               *128 LM00156
                  END OF CONDITIONAL                                                              *129 LM00157
                                                                                                       LM00158
                  WHENEVER USES(UCOUNT).NE.0,TRANSFER TO LOOP                                     *130 LM00159
                  PRINT.(COMOK)                                                                   *131 LM00160
                  VECTOR VALUES COMOK=11,$SUCCESSFUL.$                                            *132 LM00161
                                                                                                       LM00162
                  CURCOR=$*FRESH$                                                                 *133 LM00163
                  ORG.($(MDBG)$,BSTART,LENGTH)                                                    *134 LM00164
                  BEGBRK.(BSTART)                                                                 *135 LM00165
                  BNEXT=BSTART+SIZE                                                               *136 LM00166
                  BLAST=BNEXT+LENGTH-1                                                            *137 LM00167
                  EPOINT=ENTRY.($(MDBG)$)                                                         *138 LM00168
                                                                                                       LM00169
                  THROUGH PROT,FOR I=1,1,I.E.USES(0)                                              *139 LM00170
                  SWORK.(USES(I))                                                                 *140 LM00171
                  BSTART=BNEXT                                                                    *141 LM00172
                  MAP.($PROG$,ISTART,ICOUNT)                                                      *142 LM00173
                  ILAST=ISTART+ICOUNT-1                                                           *143 LM00174
                                                                                                       LM00175
                  MAP.($PROLOG$,PSTART,PSIZE)                                                     *144 LM00176
                  PLAST=PSTART+PSIZE-1                                                            *145 LM00177
                  THROUGH CLEAR,FOR J=PSTART,J,J.G.PLAST                                          *146 LM00178
                  PRO=INS.(J)                                                                     *147 LM00179
                  OPCODE=PRO.A.7777K8                                                             *148 LM00180
                  ADR=PRO.A.77777K                                                                *149 LM00181
      CLEAR       WHENEVER OPCODE.E.STO.OR.OPCODE.E.STA,                                          *150 LM00182
                1 SETINS.(ADR,7777777K5.A.INS.(ADR))                                              *150 LM00183
                                                                                                       LM00184
                  LXA(1)=0                                                                        *151 LM00185
                  LXA(2)=0                                                                        *152 LM00186
                  CARD(1)=0                                                                       *153 LM00187
                  CARD(2)=0                                                                       *154 LM00188
                  THROUGH PROT,FOR J=ISTART,1,J.G.ILAST                                           *155 LM00189
                                                                                                       LM00190
                  INST=INS.(J)                                                                    *156 LM00191
                  WHENEVER INST.A.3K5.E.0.OR.INST.A.3000774K5.NE.0.OR.                            *157 LM00192
                1 INST.A.3K5.E.3K5,TRANSFER TO PROT                                               *157 LM00193
                  INDEX=INST.RS.15.A.3                                                            *158 LM00194
                  OPCODE=INST.A.7777K8                                                            *159 LM00195
                                                                                                       LM00196
                  WHENEVER OPCODE.E.LXA                                                           *160 LM00197
                  CARD(INDEX)=SNNAM.(J)                                                           *161 LM00198
                  LXA(INDEX)=INST                                                                 *162 LM00199
                  TRANSFER TO PROT                                                                *163 LM00200
                  OR WHENEVER OPCODE.E.PAX                                                        *164 LM00201
                  CARD(INDEX)=SNNAM.(J)                                                           *165 LM00202
                  TRANSFER TO PROT                                                                *166 LM00203
                  END OF CONDITIONAL                                                              *167 LM00204
                                                                                                       LM00205
                  DIM=MAXDIM.(INST.A.77777K)                                                      *168 LM00206
                  WHENEVER DIM.E.0,TRANSFER TO PROT                                               *169 LM00207
                                                                                                       LM00208
                  THROUGH OPCHEK,FOR VALUES OF OP=CLA,STO,CAL,SLW,LDQ,STQ,TRA,                    *170 LM00209
                1 ADD,SUB,ORA,ANA,MPY,DVP,FDP,FMP,FAD,FSB,ERA                                     *170 LM00210
      OPCHEK      WHENEVER OPCODE.E.OP,TRANSFER TO OPOK                                           *171 LM00211
                  TRANSFER TO PROT                                                                *172 LM00212
      OPOK        CONTINUE                                                                        *173 LM00213
                                                                                                       LM00214
                  THROUGH HAVEQ, FOR B=BSTART,3,B.GE.BNEXT                                        *174 LM00215
      HAVEQ       WHENEVER INST.E.BRK.(B+1),TRANSFER TO YES                                       *175 LM00216
                  BNEXT=BNEXT+3                                                                   *176 LM00217
                  WHENEVER B.G.BLAST-2                                                            *177 LM00218
                                                                                                       LM00219
      TOOMCH      PRINT.(COM4)                                                                    *178 LM00220
                  VECTOR VALUES COM4=82,$INITIAL PATCHES EXCEED SPACE.  FORCE T                   *179 LM00221
                1 HE PATCH SPACE TO BE LARGER AND TRY AGAIN.$                                     *179 LM00222
                  DELETE.(FRESH)                                                                  *180 LM00223
                  WDITCH.($BRK$)                                                                  *181 LM00224
                  WDITCH.($MADTAB$)                                                               *182 LM00225
                  WDITCH.($INS$)                                                                  *183 LM00226
                  WDITCH.($(MOVIE$)                                                               *184 LM00227
                  SWORK.(WORK)                                                                    *185 LM00228
                  READY.                                                                          *186 LM00229
                  END OF CONDITIONAL                                                              *187 LM00230
                                                                                                       LM00231
      YES         WHENEVER SNNAM.(J).NE.CARD(INDEX)                                               *188 LM00232
                  WHENEVER BNEXT.G.BLAST-2,TRANSFER TO TOOMCH                                     *189 LM00233
                  SETINS.(J,TSX.V.BNEXT)                                                          *190 LM00234
                  SETBRK.(BNEXT,LXA(INDEX))                                                       *191 LM00235
                  SETBRK.(BNEXT+1,TRA.V.B)                                                        *192 LM00236
                  BNEXT=BNEXT+3                                                                   *193 LM00237
                  OTHERWISE                                                                       *194 LM00238
                  SETINS.(J,TSX.V.B)                                                              *195 LM00239
                  END OF CONDITIONAL                                                              *196 LM00240
                  SETBRK.(B,INST.A.7K5.V.TXH.V.EPOINT.V.DIM.LS.18)                                *197 LM00241
                  SETBRK.(B+1,INST)                                                               *198 LM00242
                  SETBRK.(B+2,TRA.V.400001K)                                                      *199 LM00243
                                                                                                       LM00244
      PROT        CONTINUE                                                                        *200 LM00245
                  SETBRK.(EPOINT-1,BNEXT)                                                         *201 LM00246
                                                                                                       LM00247
                  SWORK.(WORK)                                                                    *202 LM00248
                  BEGBRK.(BNEXT)                                                                  *203 LM00249
                  SETBRK.(BNEXT,3)                                                                *204 LM00250
                  MAIN=ENTRY.($(MAIN)$)                                                           *205 LM00251
                  SETBRK.(BNEXT+1,MAIN)                                                           *206 LM00252
                  SETBRK.(BNEXT+2,TRA.V.MAIN)                                                     *207 LM00253
                  WDITCH.($BRK$)                                                                  *208 LM00254
                                                                                                       LM00255
                  WSETUP.($TEMP$,FRESH,2,1)                                                       *209 LM00256
                  WSET.(1,EPOINT-3)                                                               *210 LM00257
                  WDITCH.($TEMP$)                                                                 *211 LM00258
                  COPY.(FRESH,USER)                                                               *212 LM00259
                  CURCOR=$(USER)$                                                                 *213 LM00260
                  WALLOT.($SAVE$)                                                                 *214 LM00261
                  WINS.(1,1,FRESH)                                                                *215 LM00262
                  LOADED=1B                                                                       *216 LM00263
                  FUNCTION RETURN                                                                 *217 LM00264
                  END OF FUNCTION                                                                 *218 LM00265
1MAD PROGRAM,TYPE NOV 1963      (ALL NUMBERS ARE OCTAL)
0TOTAL LOCATIONS   01734 TRANSFER VECTOR LENGTH  00037 PROGRAM BEGINS    00336 FIRST UNUSED COMMON/ERASABLE  77107
0 PROGRAM IS AN EXTERNAL FUNCTION.   THE FOLLOWING ARE ENTRIES
      LOAD   00475   0        UNLOAD 00337   0
0VARIABLE STORAGE (A=ARRAY,C=COMMON,E=ERASABLE,DIGIT=MODE)
      ADD    00050 A 1        COMP   00041   4        INST   00154   1        ONE    00224   1        SSIZE  00247   1
      ADR    00051   1        CURCOR 77112  C1        I      00155   1        OPCHEK 00037   4        STA    00250 A 1
      AGAIN  00040   4        DEL    00037   4        ISTART 00156   1        OPCODE 00225   1        STO    00251 A 1
      ANA    00052 A 1        DIM    00137   1        J      00157   1        OPOK   00044   4        STQ    00252 A 1
      BCD    00054 A 1        DIT    00037   4        LCOUNT 00160   1        OP     00226   1        SUB    00253 A 1
      BLAST  00055   1        DVP    00140 A 1        LDQ    00161 A 1        ORA    00227 A 1        SYMTAB 00255 A 1
      BNEXT  00056   1        EPOINT 00141   1        LENGTH 00162   1        PATCH  77111  C1        TOOMCH 00046   4
      B      00057   1        ERA    00142 A 1        LILOOP 00042   4        PAX    00230 A 1        TO     77306 AC1
      BSS    00061 A 1        FAD    00143 A 1        LIST   77461 AC1        PLAST  00231   1        TRA    00256 A 1
      BSTART 00062   1        FDP    00144 A 1        LOADED 00163 A 2        PRO    00232   1        TSUB   77234 AC1
      CAL    00063 A 1        FMP    00145 A 1        LOADER 00210 A 1        PROT   00045   4        TSX    00257 A 1
      CARD   00066 A 1        FRESH  00147 A 1        LOOP   00043   4        PSIZE  00233   1        TWO    00260   1
      CLA    00067 A 1        FROM   77333 AC1        LXA    00213 A 1        PSTART 00234   1        TXH    00261 A 1
      CLEAR  00037   4        FSB    00150 A 1        MADBUG 00215 A 1        RESTOR 00237 A 1        UCOUNT 00262   1
      COM1   00076 A 1        FSUB   77261 AC1        MAD    00217 A 1        SAVED  00241 A 1        USER   00264 A 1
      COM3   00106 A 1        HAVEQ  00037   4        MAIN   00220   1        SAVE   00244 A 1        USES   77207 AC1
      COM4   00125 A 1        ICOUNT 00151   1        MAX    77334  C1        SIZE   00245   1        WORK   00265   1
      COMLOD 00133 A 1        ILAST  00152   1        MDBG   00222 A 1        SKIP   77110 AC1        YES    00047   4
      COMOK  00136 A 1        INDEX  00153   1        MPY    00223 A 1        SLW    00246 A 1
0FUNCTION DICTIONARY
      BEGBRK 00000   1        BRK    00001   1        CHMODE 00002   1        COPY   00003   1        DELETE 00004   1
      ENTRY  00005   1        EXIT   00006   1        FSTAT  00007   1        GWORKA 00010   1        INS    00011   1
      MAP    00012   1        MAXDIM 00013   1        ORG    00014   1        PRINT  00015   1        READY  00016   1
      SETBRK 00017   1        SETINS 00020   1        SNNAM  00021   1        SWORK  00022   1        TRANS  00023   1
      WALLOT 00024   1        WDEL   00025   1        WDITCH 00026   1        WDUMP  00027   1        WGET   00030   1
      WINS   00031   1        WSEEK  00032   1        WSET   00033   1        WSETUP 00034   1        WSIZE  00035   1
      XEQ    00036   1
0ABSOLUTE CONSTANTS
 00332 -346462255134     00326 -344421314534     00302 +000000400001     00303 +000000700000     00276 +000000000022
 00274 +000000000017     00310 +300077400000     00301 +000000300000     00334 -377777700000     00314 -075146434627
 00315 -142651256230     00275 +000000000021     00330 -344446512534     00335 -377777777777     00277 +000000000024
 00320 -206060646225     00272 +000000000004     00325 -342346456334     00321 -206543462124     00300 +000000077777
 00271 +000000000003     00327 -344424222734     00313 -075146276060     00317 -206060600000     00304 +000100000000
 00333 -377700000000     00270 +000000000002     00273 +000000000015     00323 -232544476060     00316 -145454545454
 00307 +234644444645     00312 -042124632122     00311 +314562606060     00324 -252151606060     00305 +225142606060
 00331 -344446653125     00266 +000000000000     00322 -222165256060     00267 +000000000001     00306 +233000000000
0STATEMENT DICTIONARY
 00040 TXL -300627000625       00041 TXL -300631000630       00042 TXL -300720000710       00043 TXL -300670000666
 00044 TXL -301434001434       00045 TXL -301623001621       00046 TXL -301473001471       00047 TXL -301515001510
0PROGRAM
                 EXTERNAL FUNCTION                                                  001  LM00001
                 NORMAL MODE IS INTEGER                                             002  LM00002
                 VECTOR VALUES LOADED=0B                                            003  LM00003
 00163     +0 00000 0 00000
                 PROGRAM COMMON LIST(84),MAX,FROM(20),TO(20),                       004  LM00004
                1FSUB(20),TSUB(20),USES(60),CURCOR,PATCH,SKIP                       004  LM00005
                 DIMENSION LOADER(20),CARD(2),LXA(2)                                005  LM00006
                 VECTOR VALUES SKIP=36                                              006  LM00007
 77110     +0 00000 0 00044
                 VECTOR VALUES ADD=0400K8                                           007  LM00008
 00050     +0 40000 0 00000
                 VECTOR VALUES SUB=0402K8                                           008  LM00009
 00253     +0 40200 0 00000
                 VECTOR VALUES CLA=0500K8                                           009  LM00010
 00067     +0 50000 0 00000
                 VECTOR VALUES CAL=4500K8                                           010  LM00011
 00063     -0 50000 0 00000
                 VECTOR VALUES LDQ=0560K8                                           011  LM00012
 00161     +0 56000 0 00000
                 VECTOR VALUES STO=0601K8                                           012  LM00013
 00251     +0 60100 0 00000
                 VECTOR VALUES STA=0621K8                                           013  LM00014
 00250     +0 62100 0 00000
                 VECTOR VALUES SLW=0602K8                                           014  LM00015
 00246     +0 60200 0 00000
                 VECTOR VALUES STQ=4600K8                                           015  LM00016
 00252     -0 60000 0 00000
                 VECTOR VALUES TSX=0074004K5                                        016  LM00017
 00257     +0 07400 4 00000
                 VECTOR VALUES TRA=0020K8                                           017  LM00018
 00256     +0 02000 0 00000
                 VECTOR VALUES TXH=3K11                                             018  LM00019
 00261     +3 00000 0 00000
                 VECTOR VALUES ORA=4501K8                                           019  LM00020
 00227     -0 50100 0 00000
                 VECTOR VALUES ANA=4320K8                                           020  LM00021
 00052     -0 32000 0 00000
                 VECTOR VALUES MPY=0200K8                                           021  LM00022
 00223     +0 20000 0 00000
                 VECTOR VALUES DVP=0221K8                                           022  LM00023
 00140     +0 22100 0 00000
                 VECTOR VALUES FDP=0241K8                                           023  LM00024
 00144     +0 24100 0 00000
                 VECTOR VALUES FMP=0260K8                                           024  LM00025
 00145     +0 26000 0 00000
                 VECTOR VALUES FAD=0300K8                                           025  LM00026
 00143     +0 30000 0 00000
                 VECTOR VALUES FSB=0302K8                                           026  LM00027
 00150     +0 30200 0 00000
                 VECTOR VALUES ERA=0322K8                                           027  LM00028
 00142     +0 32200 0 00000
                 VECTOR VALUES LXA=0534K8                                           028  LM00029
 00213     +0 53400 0 00000
                 VECTOR VALUES PAX=0734K8                                           029  LM00030
 00230     +0 73400 0 00000
                 VECTOR VALUES MADBUG=$(MDBG) SAVED$                                030  LM00031
 00214     -2 06221 6 52524    00215     -3 44424 2 22734
                 VECTOR VALUES FRESH=$*FRESH SAVED$                                 031  LM00032
 00146     -2 06221 6 52524    00147     -1 42651 2 56230
                 VECTOR VALUES MDBG=$(MDBG)   BSS$                                  032  LM00033
 00221     -2 06060 2 26262    00222     -3 44424 2 22734
                 VECTOR VALUES USER=$(USER) SAVED$                                  033  LM00034
 00263     -2 06221 6 52524    00264     -3 46462 2 55134
                 VECTOR VALUES SAVED=$****** SAVED$                                 034  LM00035
 00240     -2 06221 6 52524    00241     -1 45454 5 45454
                 VECTOR VALUES BSS=$******   BSS$                                   035  LM00036
 00060     -2 06060 2 26262    00061     -1 45454 5 45454
                 VECTOR VALUES SYMTAB=$******SYMTAB$                                036  LM00037
 00254     -2 27044 6 32122    00255     -1 45454 5 45454
                 VECTOR VALUES BCD=$******   BCD$                                   037  LM00038
 00053     -2 06060 2 22324    00054     -1 45454 5 45454
                 VECTOR VALUES MAD=$******   MAD$                                   038  LM00039
 00216     -2 06060 4 42124    00217     -1 45454 5 45454
                 VECTOR VALUES RESTOR=$RESTOR*FRESH$,777777777777K                  039  LM00040
 00235     -3 77777 7 77777    00236     -1 42651 2 56230    00237     -1 12562 6 34651
                 VECTOR VALUES SAVE=$  SAVE*FRESH$,777777777777K                    040  LM00041
 00242     -3 77777 7 77777    00243     -1 42651 2 56230    00244     -2 06062 2 16525
                 ENTRY TO UNLOAD.                                                   041  LM00046
 00336 TRA +0 02000 0 00341    00337 SXA +0 63400 2 01720    00340 TSX +0 07400 2 01720
                 WHENEVER .NOT.LOADED,FUNCTION RETURN                               042  LM00047
 00341 ZET +0 52000 0 00163    00342 TRA +0 02000 0 00344    00343 TRA +0 02000 0 01724
                 WSEEK.($SAVE$)                                                     043  LM00049
 00344 TSX +0 07400 4 00032    00345 TXH +3 00000 0 00322
                 WSIZE.(SSIZE)                                                      044  LM00050
 00346 TSX +0 07400 4 00035    00347 TXH +3 00000 0 00247
                 THROUGH DEL,FOR I=1,1,I.G.SSIZE                                    045  LM00051
 00350 CLA +0 50000 0 00267    00351 STO +0 60100 0 00155    00352 TRA +0 02000 0 00356    00353 CLA +0 50000 0 00155
 00354 ADD +0 40000 0 00267    00355 STO +0 60100 0 00155    00356 CLA +0 50000 0 00155    00357 SUB +0 40200 0 00247
 00360 TZE +0 10000 0 00362    00361 TPL +0 12000 0 00374
                 SAVED=WGET.(I)                                                     046  LM00052
 00362 TSX +0 07400 4 00030    00363 TXH +3 00000 0 00155    00364 STO +0 60100 0 00241
      DEL        WHENEVER FSTAT.(SAVED).NE.0,DELETE.(SAVED)                         047  LM00053
 00365 TSX +0 07400 4 00007    00366 TXH +3 00000 0 00241    00367 SUB +0 40200 0 00266    00370 TZE +0 10000 0 00373
 00371 TSX +0 07400 4 00004    00372 TXH +3 00000 0 00241    00373 TRA +0 02000 0 00353
                 WHENEVER FSTAT.(USER).NE.0,DELETE.(USER)                           048  LM00054
 00374 TSX +0 07400 4 00007    00375 TXH +3 00000 0 00264    00376 SUB +0 40200 0 00266    00377 TZE +0 10000 0 00402
 00400 TSX +0 07400 4 00004    00401 TXH +3 00000 0 00264
                 WSEEK.($(MOVIE$)                                                   049  LM00056
 00402 TSX +0 07400 4 00032    00403 TXH +3 00000 0 00331
                 WSIZE.(SSIZE)                                                      050  LM00057
 00404 TSX +0 07400 4 00035    00405 TXH +3 00000 0 00247
                 WDEL.(1,SSIZE)                                                     051  LM00058
 00406 TSX +0 07400 4 00025    00407 TXH +3 00000 0 00267    00410 TXH +3 00000 0 00247
                 THROUGH DIT,FOR VALUES OF I=$SAVE$,$BRK$,$VAR$,$INS$,              052  LM00060
                1$MADTAB$,$(MOVIE$,$COMMON$                                         052  LM00061
 00411 CLA +0 50000 0 00322    00412 STO +0 60100 0 00155    00413 CLA +0 50000 0 00416    00414 STO +0 60100 0 00463
 00415 TRA +0 02000 0 00464    00416 TRA +0 02000 0 00417    00417 CLA +0 50000 0 00305    00420 STO +0 60100 0 00155
 00421 CLA +0 50000 0 00424    00422 STO +0 60100 0 00463    00423 TRA +0 02000 0 00464    00424 TRA +0 02000 0 00425
 00425 CLA +0 50000 0 00324    00426 STO +0 60100 0 00155    00427 CLA +0 50000 0 00432    00430 STO +0 60100 0 00463
 00431 TRA +0 02000 0 00464    00432 TRA +0 02000 0 00433    00433 CLA +0 50000 0 00311    00434 STO +0 60100 0 00155
 00435 CLA +0 50000 0 00440    00436 STO +0 60100 0 00463    00437 TRA +0 02000 0 00464    00440 TRA +0 02000 0 00441
 00441 CLA +0 50000 0 00312    00442 STO +0 60100 0 00155    00443 CLA +0 50000 0 00446    00444 STO +0 60100 0 00463
 00445 TRA +0 02000 0 00464    00446 TRA +0 02000 0 00447    00447 CLA +0 50000 0 00331    00450 STO +0 60100 0 00155
 00451 CLA +0 50000 0 00454    00452 STO +0 60100 0 00463    00453 TRA +0 02000 0 00464    00454 TRA +0 02000 0 00455
 00455 CLA +0 50000 0 00307    00456 STO +0 60100 0 00155    00457 CLA +0 50000 0 00462    00460 STO +0 60100 0 00463
 00461 TRA +0 02000 0 00464    00462 TRA +0 02000 0 00467    00463 TRA +0 02000 0 00463
      DIT        WDITCH.(I)                                                         053  LM00062
 00464 TSX +0 07400 4 00026    00465 TXH +3 00000 0 00155    00466 TRA +0 02000 0 00463
                 CURCOR=$******$                                                    054  LM00064
 00467 CLA +0 50000 0 00316    00470 STO +0 60100 0 77112
                 LOADED=0B                                                          055  LM00065
 00471 CLA +0 50000 0 00266    00472 STO +0 60100 0 00163
                 FUNCTION RETURN                                                    056  LM00066
 00473 TRA +0 02000 0 01724
                 ENTRY TO LOAD.                                                     057  LM00071
 00474 TRA +0 02000 0 00477    00475 SXA +0 63400 2 01720    00476 TSX +0 07400 2 01720
                 WHENEVER LOADED, FUNCTION RETURN                                   058  LM00072
 00477 NZT -0 52000 0 00163    00500 TRA +0 02000 0 00502    00501 TRA +0 02000 0 01724
                 WHENEVER USES(0).E.0                                               059  LM00074
 00502 CLA +0 50000 0 77207    00503 SUB +0 40200 0 00266    00504 TNZ -0 10000 0 00510
                 PRINT.(COM1)                                                       060  LM00075
 00505 TSX +0 07400 4 00015    00506 TXH +3 00000 0 00076
                 VECTOR VALUES COM1=33,$GIVE A USE REQUEST AND T$,                  061  LM00076
                1$RY AGAIN.$                                                        061  LM00077
 00070     +3 14533 6 06060    00071     -1 17060 2 12721    00072     -2 02145 2 46063    00073     +2 55064 2 56263
 00074     -2 06462 2 56051    00075     +2 73165 2 56021    00076     +0 00000 0 00041
                 READY.                                                             062  LM00078
 00507 TSX +0 07400 4 00016
                 END OF CONDITIONAL                                                 063  LM00079
                 GWORKA.(WORK)                                                      064  LM00081
 00510 TSX +0 07400 4 00010    00511 TXH +3 00000 0 00265
                 THROUGH COMP,FOR I=1,1,I.GE.USES(0)                                065  LM00082
 00512 CLA +0 50000 0 00267    00513 STO +0 60100 0 00155    00514 TRA +0 02000 0 00520    00515 CLA +0 50000 0 00155
 00516 ADD +0 40000 0 00267    00517 STO +0 60100 0 00155    00520 CLA +0 50000 0 00155    00521 SUB +0 40200 0 77207
 00522 TZE +0 10000 0 00631    00523 TPL +0 12000 0 00631
                 BSS=USES(I)                                                        066  LM00083
 00524 LXA +0 53400 2 00155    00525 CLA +0 50000 2 77207    00526 STO +0 60100 0 00061
                 SYMTAB=USES(I)                                                     067  LM00084
 00527 CLA +0 50000 2 77207    00530 STO +0 60100 0 00255
                 MAD=USES(I)                                                        068  LM00085
 00531 CLA +0 50000 2 77207    00532 STO +0 60100 0 00217
                 BCD=USES(I)                                                        069  LM00086
 00533 CLA +0 50000 2 77207    00534 STO +0 60100 0 00054
                 WHENEVER FSTAT.(BSS).NE.0.AND.FSTAT.(SYMTAB).NE.0                  070  LM00088
 00535 TSX +0 07400 4 00007    00536 TXH +3 00000 0 00255    00537 SUB +0 40200 0 00266    00540 TZE +0 10000 0 00607
 00541 TSX +0 07400 4 00007    00542 TXH +3 00000 0 00061    00543 SUB +0 40200 0 00266    00544 TZE +0 10000 0 00607
                 WSETUP.($TEMP$,MAD,13,2)                                           071  LM00089
 00545 TSX +0 07400 4 00034    00546 TXH +3 00000 0 00323    00547 TXH +3 00000 0 00217    00550 TXH +3 00000 0 00273
 00551 TXH +3 00000 0 00270
                 ONE=WGET.(1)                                                       072  LM00090
 00552 TSX +0 07400 4 00030    00553 TXH +3 00000 0 00267    00554 STO +0 60100 0 00224
                 TWO=WGET.(2).A.7777K8                                              073  LM00091
 00555 TSX +0 07400 4 00030    00556 TXH +3 00000 0 00270    00557 STO +0 60100 0 01730    00560 CAL -0 50000 0 01730
 00561 ANA -0 32000 0 00333    00562 SLW +0 60200 0 00260
                 WDITCH.($TEMP$)                                                    074  LM00092
 00563 TSX +0 07400 4 00026    00564 TXH +3 00000 0 00323
                 WHENEVER ONE.E.$    00$.AND.TWO.E.$010000$,TRANSFER TO COMP        075  LM00093
 00565 CLA +0 50000 0 00260    00566 SUB +0 40200 0 00304    00567 TNZ -0 10000 0 00574    00570 CLA +0 50000 0 00224
 00571 SUB +0 40200 0 00317    00572 TNZ -0 10000 0 00574    00573 TRA +0 02000 0 00041
                 SWORK.(MAD)                                                        076  LM00094
 00574 TSX +0 07400 4 00022    00575 TXH +3 00000 0 00217
                 WSETUP.($PROG$,MAD,0)                                              077  LM00095
 00576 TSX +0 07400 4 00034    00577 TXH +3 00000 0 00313    00600 TXH +3 00000 0 00217    00601 TXH +3 00000 0 00266
                 WSET.(13,ONE)                                                      078  LM00096
 00602 TSX +0 07400 4 00033    00603 TXH +3 00000 0 00273    00604 TXH +3 00000 0 00224
                 SWORK.(MAD)                                                        079  LM00097
 00605 TSX +0 07400 4 00022    00606 TXH +3 00000 0 00217
                 END OF CONDITIONAL                                                 080  LM00098
                 TRANS.(USES(I))                                                    081  LM00100
 00607 CLA +0 50000 0 00155    00610 SUB +0 40200 0 00611    00611 TXH +3 00000 0 77207    00612 STA +0 62100 0 00614
 00613 TSX +0 07400 4 00023    00614 TXH +3 00000 0 00000
                 WHENEVER FSTAT.(BSS).E.0.OR.FSTAT.(SYMTAB).E.0                     082  LM00102
 00615 TSX +0 07400 4 00007    00616 TXH +3 00000 0 00255    00617 SUB +0 40200 0 00266    00620 TZE +0 10000 0 00625
 00621 TSX +0 07400 4 00007    00622 TXH +3 00000 0 00061    00623 SUB +0 40200 0 00266    00624 TNZ -0 10000 0 00630
      AGAIN      PRINT.(COM3)                                                       083  LM00103
 00625 TSX +0 07400 4 00015    00626 TXH +3 00000 0 00106
                 VECTOR VALUES COM3=37,$CORRECT THIS CONDITION A$,                  084  LM00104
                1$ND TRY AGAIN.$                                                    084  LM00105
 00077     +3 36060 6 06060    00100     -2 02127 2 13145    00101     -0 52460 6 35170    00102     -2 33146 4 56021
 00103     -2 02346 4 52431    00104     -2 36063 3 03162    00105     +2 34651 5 12523    00106     +0 00000 0 00045
                 READY.                                                             085  LM00106
 00627 TSX +0 07400 4 00016
                 END OF CONDITIONAL                                                 086  LM00107
      COMP       CONTINUE                                                           087  LM00109
 00630 TRA +0 02000 0 00515
                 WSEEK.($(MDBG)$)                                                   088  LM00111
 00631 TSX +0 07400 4 00032    00632 TXH +3 00000 0 00327
                 WSET.(2,0)                                                         089  LM00112
 00633 TSX +0 07400 4 00033    00634 TXH +3 00000 0 00270    00635 TXH +3 00000 0 00266
                 SIZE=WGET.(3)                                                      090  LM00113
 00636 TSX +0 07400 4 00030    00637 TXH +3 00000 0 00271    00640 STO +0 60100 0 00245
                 WSET.(3,PATCH+SIZE)                                                091  LM00114
 00641 CLA +0 50000 0 77111    00642 ADD +0 40000 0 00245    00643 STO +0 60100 0 01730    00644 TSX +0 07400 4 00033
 00645 TXH +3 00000 0 00271    00646 TXH +3 00000 0 01730
                 WDUMP.($(MDBG)$)                                                   092  LM00115
 00647 TSX +0 07400 4 00027    00650 TXH +3 00000 0 00327
                 WSET.(3,SIZE)                                                      093  LM00116
 00651 TSX +0 07400 4 00033    00652 TXH +3 00000 0 00271    00653 TXH +3 00000 0 00245
                 SIZE=SIZE.A.77777K                                                 094  LM00117
 00654 CAL -0 50000 0 00245    00655 ANA -0 32000 0 00300    00656 SLW +0 60200 0 00245
                 CHMODE.(MDBG,0)                                                    095  LM00118
 00657 TSX +0 07400 4 00002    00660 TXH +3 00000 0 00222    00661 TXH +3 00000 0 00266
                 PRINT.(COMLOD)                                                     096  LM00119
 00662 TSX +0 07400 4 00015    00663 TXH +3 00000 0 00133
                 VECTOR VALUES COMLOD=27,$LOADING FRESH CORE IMAGE...$              097  LM00120
 00126     +3 33333 6 06060    00127     -2 03144 2 12725    00130     +3 06023 4 65125    00131     +2 76026 5 12562
 00132     -0 34621 2 43145    00133     +0 00000 0 00033
                 UCOUNT=1                                                           098  LM00121
 00664 CLA +0 50000 0 00267    00665 STO +0 60100 0 00262
      LOOP       LCOUNT=1                                                           099  LM00123
 00666 CLA +0 50000 0 00267    00667 STO +0 60100 0 00160
                 WHENEVER UCOUNT.E.1                                                100  LM00124
 00670 CLA +0 50000 0 00262    00671 SUB +0 40200 0 00267    00672 TNZ -0 10000 0 00704
                 LOADER(1)=$ VLOAD$                                                 101  LM00125
 00673 CLA +0 50000 0 00321    00674 STO +0 60100 0 00207
                 LOADER(2)=$(CONT)$                                                 102  LM00126
 00675 CLA +0 50000 0 00325    00676 STO +0 60100 0 00206
                 LOADER(3)=$(MDBG)$                                                 103  LM00127
 00677 CLA +0 50000 0 00327    00700 STO +0 60100 0 00205
                 LCOUNT=4                                                           104  LM00128
 00701 CLA +0 50000 0 00272    00702 STO +0 60100 0 00160
                 OTHERWISE                                                          105  LM00129
 00703 TRA +0 02000 0 00710
                 LOADER(1)=$   USE$                                                 106  LM00130
 00704 CLA +0 50000 0 00320    00705 STO +0 60100 0 00207
                 LCOUNT=2                                                           107  LM00131
 00706 CLA +0 50000 0 00270    00707 STO +0 60100 0 00160
                 END OF CONDITIONAL                                                 108  LM00132
      LILOOP     WHENEVER LCOUNT.L.20.AND.USES(UCOUNT).NE.0                         109  LM00134
 00710 LXA +0 53400 1 00262    00711 CLA +0 50000 1 77207    00712 SUB +0 40200 0 00266    00713 TZE +0 10000 0 00733
 00714 CLA +0 50000 0 00160    00715 SUB +0 40200 0 00277    00716 TZE +0 10000 0 00733    00717 TPL +0 12000 0 00733
                 LOADER(LCOUNT)=USES(UCOUNT)                                        110  LM00135
 00720 LXA +0 53400 1 00160    00721 LXA +0 53400 2 00262    00722 CLA +0 50000 2 77207    00723 STO +0 60100 1 00210
                 LCOUNT=LCOUNT+1                                                    111  LM00136
 00724 CLA +0 50000 0 00160    00725 ADD +0 40000 0 00267    00726 STO +0 60100 0 00160
                 UCOUNT=UCOUNT+1                                                    112  LM00137
 00727 CLA +0 50000 0 00262    00730 ADD +0 40000 0 00267    00731 STO +0 60100 0 00262
                 TRANSFER TO LILOOP                                                 113  LM00138
 00732 TRA +0 02000 0 00042
                 END OF CONDITIONAL                                                 114  LM00139
                 WHENEVER USES(UCOUNT).E.0                                          115  LM00141
 00733 LXA +0 53400 1 00262    00734 CLA +0 50000 1 77207    00735 SUB +0 40200 0 00266    00736 TNZ -0 10000 0 00743
                 LOADER(LCOUNT)=777777777777K                                       116  LM00142
 00737 LXA +0 53400 1 00160    00740 CLA +0 50000 0 00335    00741 STO +0 60100 1 00210
                 OTHERWISE                                                          117  LM00143
 00742 TRA +0 02000 0 00746
                 LOADER(LCOUNT)=$(MORE)$                                            118  LM00144
 00743 LXA +0 53400 1 00160    00744 CLA +0 50000 0 00330    00745 STO +0 60100 1 00210
                 END OF CONDITIONAL                                                 119  LM00145
                 WHENEVER UCOUNT.G.17                                               120  LM00147
 00746 CLA +0 50000 0 00262    00747 SUB +0 40200 0 00275    00750 TZE +0 10000 0 00763    00751 TMI -0 12000 0 00763
                 CHMODE.(FRESH,0)                                                   121  LM00148
 00752 TSX +0 07400 4 00002    00753 TXH +3 00000 0 00147    00754 TXH +3 00000 0 00266
                 XEQ.(3,RESTOR,LOADER(1),SAVE)                                      122  LM00149
 00755 TSX +0 07400 4 00036    00756 TXH +3 00000 0 00271    00757 TXH +3 00000 0 00237    00760 TXH +3 00000 0 00207
 00761 TXH +3 00000 0 00244
                 OTHERWISE                                                          123  LM00150
 00762 TRA +0 02000 0 00767
                 XEQ.(2,LOADER(1),SAVE)                                             124  LM00151
 00763 TSX +0 07400 4 00036    00764 TXH +3 00000 0 00270    00765 TXH +3 00000 0 00207    00766 TXH +3 00000 0 00244
                 END OF CONDITIONAL                                                 125  LM00152
                 WHENEVER FSTAT.(FRESH).E.0                                         126  LM00154
 00767 TSX +0 07400 4 00007    00770 TXH +3 00000 0 00147    00771 SUB +0 40200 0 00266    00772 TNZ -0 10000 0 00776
                 DELETE.(MADBUG)                                                    127  LM00155
 00773 TSX +0 07400 4 00004    00774 TXH +3 00000 0 00215
                 TRANSFER TO AGAIN                                                  128  LM00156
 00775 TRA +0 02000 0 00040
                 END OF CONDITIONAL                                                 129  LM00157
                 WHENEVER USES(UCOUNT).NE.0,TRANSFER TO LOOP                        130  LM00159
 00776 LXA +0 53400 1 00262    00777 CLA +0 50000 1 77207    01000 SUB +0 40200 0 00266    01001 TZE +0 10000 0 01003
 01002 TRA +0 02000 0 00043
                 PRINT.(COMOK)                                                      131  LM00160
 01003 TSX +0 07400 4 00015    01004 TXH +3 00000 0 00136
                 VECTOR VALUES COMOK=11,$SUCCESSFUL.$                               132  LM00161
 00134     -2 22664 4 33360    00135     -2 26423 2 32562    00136     +0 00000 0 00013
                 CURCOR=$*FRESH$                                                    133  LM00163
 01005 CLA +0 50000 0 00315    01006 STO +0 60100 0 77112
                 ORG.($(MDBG)$,BSTART,LENGTH)                                       134  LM00164
 01007 TSX +0 07400 4 00014    01010 TXH +3 00000 0 00327    01011 TXH +3 00000 0 00062    01012 TXH +3 00000 0 00162
                 BEGBRK.(BSTART)                                                    135  LM00165
 01013 TSX +0 07400 4 00000    01014 TXH +3 00000 0 00062
                 BNEXT=BSTART+SIZE                                                  136  LM00166
 01015 CLA +0 50000 0 00062    01016 ADD +0 40000 0 00245    01017 STO +0 60100 0 00056
                 BLAST=BNEXT+LENGTH-1                                               137  LM00167
 01020 CLA +0 50000 0 00056    01021 ADD +0 40000 0 00162    01022 SUB +0 40200 0 00267    01023 STO +0 60100 0 00055
                 EPOINT=ENTRY.($(MDBG)$)                                            138  LM00168
 01024 TSX +0 07400 4 00005    01025 TXH +3 00000 0 00327    01026 STO +0 60100 0 00141
                 THROUGH PROT,FOR I=1,1,I.E.USES(0)                                 139  LM00170
 01027 CLA +0 50000 0 00267    01030 STO +0 60100 0 00155    01031 TRA +0 02000 0 01035    01032 CLA +0 50000 0 00155
 01033 ADD +0 40000 0 00267    01034 STO +0 60100 0 00155    01035 CLA +0 50000 0 00155    01036 SUB +0 40200 0 77207
 01037 TZE +0 10000 0 01623
                 SWORK.(USES(I))                                                    140  LM00171
 01040 CLA +0 50000 0 00155    01041 SUB +0 40200 0 01042    01042 TXH +3 00000 0 77207    01043 STA +0 62100 0 01045
 01044 TSX +0 07400 4 00022    01045 TXH +3 00000 0 00000
                 BSTART=BNEXT                                                       141  LM00172
 01046 CLA +0 50000 0 00056    01047 STO +0 60100 0 00062
                 MAP.($PROG$,ISTART,ICOUNT)                                         142  LM00173
 01050 TSX +0 07400 4 00012    01051 TXH +3 00000 0 00313    01052 TXH +3 00000 0 00156    01053 TXH +3 00000 0 00151
                 ILAST=ISTART+ICOUNT-1                                              143  LM00174
 01054 CLA +0 50000 0 00156    01055 ADD +0 40000 0 00151    01056 SUB +0 40200 0 00267    01057 STO +0 60100 0 00152
                 MAP.($PROLOG$,PSTART,PSIZE)                                        144  LM00176
 01060 TSX +0 07400 4 00012    01061 TXH +3 00000 0 00314    01062 TXH +3 00000 0 00234    01063 TXH +3 00000 0 00233
                 PLAST=PSTART+PSIZE-1                                               145  LM00177
 01064 CLA +0 50000 0 00234    01065 ADD +0 40000 0 00233    01066 SUB +0 40200 0 00267    01067 STO +0 60100 0 00231
                 THROUGH CLEAR,FOR J=PSTART,J,J.G.PLAST                             146  LM00178
 01070 CLA +0 50000 0 00234    01071 STO +0 60100 0 00157    01072 TRA +0 02000 0 01076    01073 CLA +0 50000 0 00157
 01074 ADD +0 40000 0 00157    01075 STO +0 60100 0 00157    01076 CLA +0 50000 0 00157    01077 SUB +0 40200 0 00231
 01100 TZE +0 10000 0 01102    01101 TPL +0 12000 0 01133
                 PRO=INS.(J)                                                        147  LM00179
 01102 TSX +0 07400 4 00011    01103 TXH +3 00000 0 00157    01104 STO +0 60100 0 00232
                 OPCODE=PRO.A.7777K8                                                148  LM00180
 01105 CAL -0 50000 0 00232    01106 ANA -0 32000 0 00333    01107 SLW +0 60200 0 00225
                 ADR=PRO.A.77777K                                                   149  LM00181
 01110 CAL -0 50000 0 00232    01111 ANA -0 32000 0 00300    01112 SLW +0 60200 0 00051
      CLEAR      WHENEVER OPCODE.E.STO.OR.OPCODE.E.STA,                             150  LM00182
                1SETINS.(ADR,7777777K5.A.INS.(ADR))                                 150  LM00183
 01113 CLA +0 50000 0 00225    01114 SUB +0 40200 0 00250    01115 TZE +0 10000 0 01121    01116 CLA +0 50000 0 00225
 01117 SUB +0 40200 0 00251    01120 TNZ -0 10000 0 01132    01121 TSX +0 07400 4 00011    01122 TXH +3 00000 0 00051
 01123 STO +0 60100 0 01730    01124 CAL -0 50000 0 00334    01125 ANA -0 32000 0 01730    01126 SLW +0 60200 0 01730
 01127 TSX +0 07400 4 00020    01130 TXH +3 00000 0 00051    01131 TXH +3 00000 0 01730    01132 TRA +0 02000 0 01073
                 LXA(1)=0                                                           151  LM00185
 01133 CLA +0 50000 0 00266    01134 STO +0 60100 0 00212
                 LXA(2)=0                                                           152  LM00186
 01135 CLA +0 50000 0 00266    01136 STO +0 60100 0 00211
                 CARD(1)=0                                                          153  LM00187
 01137 CLA +0 50000 0 00266    01140 STO +0 60100 0 00065
                 CARD(2)=0                                                          154  LM00188
 01141 CLA +0 50000 0 00266    01142 STO +0 60100 0 00064
                 THROUGH PROT,FOR J=ISTART,1,J.G.ILAST                              155  LM00189
 01143 CLA +0 50000 0 00156    01144 STO +0 60100 0 00157    01145 TRA +0 02000 0 01151    01146 CLA +0 50000 0 00157
 01147 ADD +0 40000 0 00267    01150 STO +0 60100 0 00157    01151 CLA +0 50000 0 00157    01152 SUB +0 40200 0 00152
 01153 TZE +0 10000 0 01155    01154 TPL +0 12000 0 01622
                 INST=INS.(J)                                                       156  LM00191
 01155 TSX +0 07400 4 00011    01156 TXH +3 00000 0 00157    01157 STO +0 60100 0 00154
                 WHENEVER INST.A.3K5.E.0.OR.INST.A.3000774K5.NE.0.OR.               157  LM00192
                1INST.A.3K5.E.3K5,TRANSFER TO PROT                                  157  LM00193
 01160 CAL -0 50000 0 00154    01161 ANA -0 32000 0 00301    01162 SLW +0 60200 0 01730    01163 CLA +0 50000 0 01730
 01164 SUB +0 40200 0 00301    01165 TZE +0 10000 0 01202    01166 CAL -0 50000 0 00154    01167 ANA -0 32000 0 00310
 01170 SLW +0 60200 0 01730    01171 CLA +0 50000 0 01730    01172 SUB +0 40200 0 00266    01173 TNZ -0 10000 0 01202
 01174 CAL -0 50000 0 00154    01175 ANA -0 32000 0 00301    01176 SLW +0 60200 0 01730    01177 CLA +0 50000 0 01730
 01200 SUB +0 40200 0 00266    01201 TNZ -0 10000 0 01203    01202 TRA +0 02000 0 00045
                 INDEX=INST.RS.15.A.3                                               158  LM00194
 01203 CAL -0 50000 0 00274    01204 STA +0 62100 0 01206    01205 CAL -0 50000 0 00154    01206 LGR -0 76500 0 00000
 01207 ANA -0 32000 0 00271    01210 SLW +0 60200 0 00153
                 OPCODE=INST.A.7777K8                                               159  LM00195
 01211 CAL -0 50000 0 00154    01212 ANA -0 32000 0 00333    01213 SLW +0 60200 0 00225
                 WHENEVER OPCODE.E.LXA                                              160  LM00197
 01214 CLA +0 50000 0 00225    01215 SUB +0 40200 0 00213    01216 TNZ -0 10000 0 01227
                 CARD(INDEX)=SNNAM.(J)                                              161  LM00198
 01217 TSX +0 07400 4 00021    01220 TXH +3 00000 0 00157    01221 LXA +0 53400 1 00153    01222 STO +0 60100 1 00066
                 LXA(INDEX)=INST                                                    162  LM00199
 01223 CLA +0 50000 0 00154    01224 STO +0 60100 1 00213
                 TRANSFER TO PROT                                                   163  LM00200
 01225 TRA +0 02000 0 00045
                 OR WHENEVER OPCODE.E.PAX                                           164  LM00201
 01226 TRA +0 02000 0 01237    01227 CLA +0 50000 0 00225    01230 SUB +0 40200 0 00230    01231 TNZ -0 10000 0 01237
                 CARD(INDEX)=SNNAM.(J)                                              165  LM00202
 01232 TSX +0 07400 4 00021    01233 TXH +3 00000 0 00157    01234 LXA +0 53400 1 00153    01235 STO +0 60100 1 00066
                 TRANSFER TO PROT                                                   166  LM00203
 01236 TRA +0 02000 0 00045
                 END OF CONDITIONAL                                                 167  LM00204
                 DIM=MAXDIM.(INST.A.77777K)                                         168  LM00206
 01237 CAL -0 50000 0 00154    01240 ANA -0 32000 0 00300    01241 SLW +0 60200 0 01730    01242 TSX +0 07400 4 00013
 01243 TXH +3 00000 0 01730    01244 STO +0 60100 0 00137
                 WHENEVER DIM.E.0,TRANSFER TO PROT                                  169  LM00207
 01245 CLA +0 50000 0 00137    01246 SUB +0 40200 0 00266    01247 TNZ -0 10000 0 01251    01250 TRA +0 02000 0 00045
                 THROUGH OPCHEK,FOR VALUES OF OP=CLA,STO,CAL,SLW,LDQ,STQ,TRA,       170  LM00209
                1ADD,SUB,ORA,ANA,MPY,DVP,FDP,FMP,FAD,FSB,ERA                        170  LM00210
 01251 CLA +0 50000 0 00067    01252 STO +0 60100 0 00226    01253 CLA +0 50000 0 01256    01254 STO +0 60100 0 01425
 01255 TRA +0 02000 0 01426    01256 TRA +0 02000 0 01257    01257 CLA +0 50000 0 00251    01260 STO +0 60100 0 00226
 01261 CLA +0 50000 0 01264    01262 STO +0 60100 0 01425    01263 TRA +0 02000 0 01426    01264 TRA +0 02000 0 01265
 01265 CLA +0 50000 0 00063    01266 STO +0 60100 0 00226    01267 CLA +0 50000 0 01272    01270 STO +0 60100 0 01425
 01271 TRA +0 02000 0 01426    01272 TRA +0 02000 0 01273    01273 CLA +0 50000 0 00246    01274 STO +0 60100 0 00226
 01275 CLA +0 50000 0 01300    01276 STO +0 60100 0 01425    01277 TRA +0 02000 0 01426    01300 TRA +0 02000 0 01301
 01301 CLA +0 50000 0 00161    01302 STO +0 60100 0 00226    01303 CLA +0 50000 0 01306    01304 STO +0 60100 0 01425
 01305 TRA +0 02000 0 01426    01306 TRA +0 02000 0 01307    01307 CLA +0 50000 0 00252    01310 STO +0 60100 0 00226
 01311 CLA +0 50000 0 01314    01312 STO +0 60100 0 01425    01313 TRA +0 02000 0 01426    01314 TRA +0 02000 0 01315
 01315 CLA +0 50000 0 00256    01316 STO +0 60100 0 00226    01317 CLA +0 50000 0 01322    01320 STO +0 60100 0 01425
 01321 TRA +0 02000 0 01426    01322 TRA +0 02000 0 01323    01323 CLA +0 50000 0 00050    01324 STO +0 60100 0 00226
 01325 CLA +0 50000 0 01330    01326 STO +0 60100 0 01425    01327 TRA +0 02000 0 01426    01330 TRA +0 02000 0 01331
 01331 CLA +0 50000 0 00253    01332 STO +0 60100 0 00226    01333 CLA +0 50000 0 01336    01334 STO +0 60100 0 01425
 01335 TRA +0 02000 0 01426    01336 TRA +0 02000 0 01337    01337 CLA +0 50000 0 00227    01340 STO +0 60100 0 00226
 01341 CLA +0 50000 0 01344    01342 STO +0 60100 0 01425    01343 TRA +0 02000 0 01426    01344 TRA +0 02000 0 01345
 01345 CLA +0 50000 0 00052    01346 STO +0 60100 0 00226    01347 CLA +0 50000 0 01352    01350 STO +0 60100 0 01425
 01351 TRA +0 02000 0 01426    01352 TRA +0 02000 0 01353    01353 CLA +0 50000 0 00223    01354 STO +0 60100 0 00226
 01355 CLA +0 50000 0 01360    01356 STO +0 60100 0 01425    01357 TRA +0 02000 0 01426    01360 TRA +0 02000 0 01361
 01361 CLA +0 50000 0 00140    01362 STO +0 60100 0 00226    01363 CLA +0 50000 0 01366    01364 STO +0 60100 0 01425
 01365 TRA +0 02000 0 01426    01366 TRA +0 02000 0 01367    01367 CLA +0 50000 0 00144    01370 STO +0 60100 0 00226
 01371 CLA +0 50000 0 01374    01372 STO +0 60100 0 01425    01373 TRA +0 02000 0 01426    01374 TRA +0 02000 0 01375
 01375 CLA +0 50000 0 00145    01376 STO +0 60100 0 00226    01377 CLA +0 50000 0 01402    01400 STO +0 60100 0 01425
 01401 TRA +0 02000 0 01426    01402 TRA +0 02000 0 01403    01403 CLA +0 50000 0 00143    01404 STO +0 60100 0 00226
 01405 CLA +0 50000 0 01410    01406 STO +0 60100 0 01425    01407 TRA +0 02000 0 01426    01410 TRA +0 02000 0 01411
 01411 CLA +0 50000 0 00150    01412 STO +0 60100 0 00226    01413 CLA +0 50000 0 01416    01414 STO +0 60100 0 01425
 01415 TRA +0 02000 0 01426    01416 TRA +0 02000 0 01417    01417 CLA +0 50000 0 00142    01420 STO +0 60100 0 00226
 01421 CLA +0 50000 0 01424    01422 STO +0 60100 0 01425    01423 TRA +0 02000 0 01426    01424 TRA +0 02000 0 01433
 01425 TRA +0 02000 0 01425
      OPCHEK     WHENEVER OPCODE.E.OP,TRANSFER TO OPOK                              171  LM00211
 01426 CLA +0 50000 0 00225    01427 SUB +0 40200 0 00226    01430 TNZ -0 10000 0 01432    01431 TRA +0 02000 0 00044
 01432 TRA +0 02000 0 01425
                 TRANSFER TO PROT                                                   172  LM00212
 01433 TRA +0 02000 0 00045
      OPOK       CONTINUE                                                           173  LM00213
                 THROUGH HAVEQ, FOR B=BSTART,3,B.GE.BNEXT                           174  LM00215
 01434 CLA +0 50000 0 00062    01435 STO +0 60100 0 00057    01436 TRA +0 02000 0 01442    01437 CLA +0 50000 0 00057
 01440 ADD +0 40000 0 00271    01441 STO +0 60100 0 00057    01442 CLA +0 50000 0 00057    01443 SUB +0 40200 0 00056
 01444 TZE +0 10000 0 01460    01445 TPL +0 12000 0 01460
      HAVEQ      WHENEVER INST.E.BRK.(B+1),TRANSFER TO YES                          175  LM00216
 01446 CLA +0 50000 0 00057    01447 ADD +0 40000 0 00267    01450 STO +0 60100 0 01730    01451 TSX +0 07400 4 00001
 01452 TXH +3 00000 0 01730    01453 CHS +0 76000 0 00002    01454 ADD +0 40000 0 00154    01455 TNZ -0 10000 0 01457
 01456 TRA +0 02000 0 00047    01457 TRA +0 02000 0 01437
                 BNEXT=BNEXT+3                                                      176  LM00217
 01460 CLA +0 50000 0 00056    01461 ADD +0 40000 0 00271    01462 STO +0 60100 0 00056
                 WHENEVER B.G.BLAST-2                                               177  LM00218
 01463 CLA +0 50000 0 00055    01464 SUB +0 40200 0 00270    01465 CHS +0 76000 0 00002    01466 ADD +0 40000 0 00057
 01467 TZE +0 10000 0 01510    01470 TMI -0 12000 0 01510
      TOOMCH     PRINT.(COM4)                                                       178  LM00220
 01471 TSX +0 07400 4 00015    01472 TXH +3 00000 0 00125
                 VECTOR VALUES COM4=82,$INITIAL PATCHES EXCEED SPACE.  FORCE T      179  LM00221
                1HE PATCH SPACE TO BE LARGER AND TRY AGAIN.$                        179  LM00222
 00107     -0 53360 6 06060    00110     -3 06021 2 72131    00111     +2 14524 6 06351    00112     +2 15127 2 55160
 00113     -0 66022 2 56043    00114     -0 72123 2 56063    00115     +2 16323 3 06062    00116     -2 06330 2 56047
 00117     -2 02646 5 12325    00120     -0 72123 2 53360    00121     +2 32525 2 46062    00122     +3 02562 6 02567
 00123     -0 36047 2 16323    00124     +3 14531 6 33121    00125     +0 00000 0 00122
                 DELETE.(FRESH)                                                     180  LM00223
 01473 TSX +0 07400 4 00004    01474 TXH +3 00000 0 00147
                 WDITCH.($BRK$)                                                     181  LM00224
 01475 TSX +0 07400 4 00026    01476 TXH +3 00000 0 00305
                 WDITCH.($MADTAB$)                                                  182  LM00225
 01477 TSX +0 07400 4 00026    01500 TXH +3 00000 0 00312
                 WDITCH.($INS$)                                                     183  LM00226
 01501 TSX +0 07400 4 00026    01502 TXH +3 00000 0 00311
                 WDITCH.($(MOVIE$)                                                  184  LM00227
 01503 TSX +0 07400 4 00026    01504 TXH +3 00000 0 00331
                 SWORK.(WORK)                                                       185  LM00228
 01505 TSX +0 07400 4 00022    01506 TXH +3 00000 0 00265
                 READY.                                                             186  LM00229
 01507 TSX +0 07400 4 00016
                 END OF CONDITIONAL                                                 187  LM00230
      YES        WHENEVER SNNAM.(J).NE.CARD(INDEX)                                  188  LM00232
 01510 TSX +0 07400 4 00021    01511 TXH +3 00000 0 00157    01512 LXA +0 53400 2 00153    01513 SUB +0 40200 2 00066
 01514 TZE +0 10000 0 01556
                 WHENEVER BNEXT.G.BLAST-2,TRANSFER TO TOOMCH                        189  LM00233
 01515 CLA +0 50000 0 00055    01516 SUB +0 40200 0 00270    01517 CHS +0 76000 0 00002    01520 ADD +0 40000 0 00056
 01521 TZE +0 10000 0 01524    01522 TMI -0 12000 0 01524    01523 TRA +0 02000 0 00046
                 SETINS.(J,TSX.V.BNEXT)                                             190  LM00234
 01524 CAL -0 50000 0 00257    01525 ORA -0 50100 0 00056    01526 SLW +0 60200 0 01730    01527 TSX +0 07400 4 00020
 01530 TXH +3 00000 0 00157    01531 TXH +3 00000 0 01730
                 SETBRK.(BNEXT,LXA(INDEX))                                          191  LM00235
 01532 CLA +0 50000 0 00153    01533 SUB +0 40200 0 01534    01534 TXH +3 00000 0 00213    01535 STA +0 62100 0 01540
 01536 TSX +0 07400 4 00017    01537 TXH +3 00000 0 00056    01540 TXH +3 00000 0 00000
                 SETBRK.(BNEXT+1,TRA.V.B)                                           192  LM00236
 01541 CAL -0 50000 0 00256    01542 ORA -0 50100 0 00057    01543 SLW +0 60200 0 01730    01544 CLA +0 50000 0 00056
 01545 ADD +0 40000 0 00267    01546 STO +0 60100 0 01731    01547 TSX +0 07400 4 00017    01550 TXH +3 00000 0 01731
 01551 TXH +3 00000 0 01730
                 BNEXT=BNEXT+3                                                      193  LM00237
 01552 CLA +0 50000 0 00056    01553 ADD +0 40000 0 00271    01554 STO +0 60100 0 00056
                 OTHERWISE                                                          194  LM00238
 01555 TRA +0 02000 0 01564
                 SETINS.(J,TSX.V.B)                                                 195  LM00239
 01556 CAL -0 50000 0 00257    01557 ORA -0 50100 0 00057    01560 SLW +0 60200 0 01731    01561 TSX +0 07400 4 00020
 01562 TXH +3 00000 0 00157    01563 TXH +3 00000 0 01731
                 END OF CONDITIONAL                                                 196  LM00240
                 SETBRK.(B,INST.A.7K5.V.TXH.V.EPOINT.V.DIM.LS.18)                   197  LM00241
 01564 CAL -0 50000 0 00276    01565 STA +0 62100 0 01567    01566 CAL -0 50000 0 00137    01567 ALS +0 76700 0 00000
 01570 SLW +0 60200 0 01731    01571 CAL -0 50000 0 00154    01572 ANA -0 32000 0 00303    01573 ORA -0 50100 0 00261
 01574 ORA -0 50100 0 00141    01575 ORA -0 50100 0 01731    01576 SLW +0 60200 0 01731    01577 TSX +0 07400 4 00017
 01600 TXH +3 00000 0 00057    01601 TXH +3 00000 0 01731
                 SETBRK.(B+1,INST)                                                  198  LM00242
 01602 CLA +0 50000 0 00057    01603 ADD +0 40000 0 00267    01604 STO +0 60100 0 01731    01605 TSX +0 07400 4 00017
 01606 TXH +3 00000 0 01731    01607 TXH +3 00000 0 00154
                 SETBRK.(B+2,TRA.V.400001K)                                         199  LM00243
 01610 CAL -0 50000 0 00256    01611 ORA -0 50100 0 00302    01612 SLW +0 60200 0 01731    01613 CLA +0 50000 0 00057
 01614 ADD +0 40000 0 00270    01615 STO +0 60100 0 01730    01616 TSX +0 07400 4 00017    01617 TXH +3 00000 0 01730
 01620 TXH +3 00000 0 01731
      PROT       CONTINUE                                                           200  LM00245
 01621 TRA +0 02000 0 01146    01622 TRA +0 02000 0 01032
                 SETBRK.(EPOINT-1,BNEXT)                                            201  LM00246
 01623 CLA +0 50000 0 00141    01624 SUB +0 40200 0 00267    01625 STO +0 60100 0 01731    01626 TSX +0 07400 4 00017
 01627 TXH +3 00000 0 01731    01630 TXH +3 00000 0 00056
                 SWORK.(WORK)                                                       202  LM00248
 01631 TSX +0 07400 4 00022    01632 TXH +3 00000 0 00265
                 BEGBRK.(BNEXT)                                                     203  LM00249
 01633 TSX +0 07400 4 00000    01634 TXH +3 00000 0 00056
                 SETBRK.(BNEXT,3)                                                   204  LM00250
 01635 TSX +0 07400 4 00017    01636 TXH +3 00000 0 00056    01637 TXH +3 00000 0 00271
                 MAIN=ENTRY.($(MAIN)$)                                              205  LM00251
 01640 TSX +0 07400 4 00005    01641 TXH +3 00000 0 00326    01642 STO +0 60100 0 00220
                 SETBRK.(BNEXT+1,MAIN)                                              206  LM00252
 01643 CLA +0 50000 0 00056    01644 ADD +0 40000 0 00267    01645 STO +0 60100 0 01731    01646 TSX +0 07400 4 00017
 01647 TXH +3 00000 0 01731    01650 TXH +3 00000 0 00220
                 SETBRK.(BNEXT+2,TRA.V.MAIN)                                        207  LM00253
 01651 CAL -0 50000 0 00256    01652 ORA -0 50100 0 00220    01653 SLW +0 60200 0 01731    01654 CLA +0 50000 0 00056
 01655 ADD +0 40000 0 00270    01656 STO +0 60100 0 01730    01657 TSX +0 07400 4 00017    01660 TXH +3 00000 0 01730
 01661 TXH +3 00000 0 01731
                 WDITCH.($BRK$)                                                     208  LM00254
 01662 TSX +0 07400 4 00026    01663 TXH +3 00000 0 00305
                 WSETUP.($TEMP$,FRESH,2,1)                                          209  LM00256
 01664 TSX +0 07400 4 00034    01665 TXH +3 00000 0 00323    01666 TXH +3 00000 0 00147    01667 TXH +3 00000 0 00270
 01670 TXH +3 00000 0 00267
                 WSET.(1,EPOINT-3)                                                  210  LM00257
 01671 CLA +0 50000 0 00141    01672 SUB +0 40200 0 00271    01673 STO +0 60100 0 01731    01674 TSX +0 07400 4 00033
 01675 TXH +3 00000 0 00267    01676 TXH +3 00000 0 01731
                 WDITCH.($TEMP$)                                                    211  LM00258
 01677 TSX +0 07400 4 00026    01700 TXH +3 00000 0 00323
                 COPY.(FRESH,USER)                                                  212  LM00259
 01701 TSX +0 07400 4 00003    01702 TXH +3 00000 0 00147    01703 TXH +3 00000 0 00264
                 CURCOR=$(USER)$                                                    213  LM00260
 01704 CLA +0 50000 0 00332    01705 STO +0 60100 0 77112
                 WALLOT.($SAVE$)                                                    214  LM00261
 01706 TSX +0 07400 4 00024    01707 TXH +3 00000 0 00322
                 WINS.(1,1,FRESH)                                                   215  LM00262
 01710 TSX +0 07400 4 00031    01711 TXH +3 00000 0 00267    01712 TXH +3 00000 0 00267    01713 TXH +3 00000 0 00147
                 LOADED=1B                                                          216  LM00263
 01714 CLA +0 50000 0 00267    01715 STO +0 60100 0 00163
                 FUNCTION RETURN                                                    217  LM00264
 01716 TRA +0 02000 0 01724
                 END OF FUNCTION                                                    218  LM00265
 01717 TSX +0 07400 4 00006    01720 TXH +3 00000 0 00000    01721 SXD -0 63400 1 01720    01722 SXA +0 63400 4 01724
 01723 TRA +0 02000 2 00001    01724 AXT +0 77400 4 00000    01725 LXA +0 53400 2 01720    01726 LXD -0 53400 1 01720
 01727 TRA +0 02000 4 00001
1     MAD PROGRAM LISTING ... ... ...                 FILE       F   MAD            02/07/68    2001.3
-
                  EXTERNAL FUNCTION                                                               *001 LM00001
                  NORMAL MODE IS INTEGER                                                          *002 LM00002
                  PROGRAM COMMON LIST(84)                                                         *003 LM00003
                                                                                                       LM00004
                 TABLES OF PARAMETERS                                                                  LM00005
                                                                                                       LM00006
                  VECTOR VALUES COUNT=3                                                           *004 LM00007
                  VECTOR VALUES BCD=$FORMAT$,$PATCH$,$MODE$                                       *005 LM00008
                  VECTOR VALUES GO=FORMAT.,PATCH.,MODE.                                           *006 LM00009
                                                                                                       LM00010
                 FORCE THE VALUES OF INTERNAL PARAMETERS                                               LM00011
                                                                                                       LM00012
                  ENTRY TO F.                                                                     *007 LM00013
                  SPACE.                                                                          *008 LM00014
                  GETNAM.(NAME)                                                                   *009 LM00015
                  THROUGH FIND,FOR I=0,1,I.E.COUNT                                                *010 LM00016
      FIND        WHENEVER NAME.E.BCD(I),GO(I).                                                   *011 LM00017
                  LIST=0                                                                          *012 LM00018
                  ADDNAM.(NAME)                                                                   *013 LM00019
                  ADDCOM.(COM1)                                                                   *014 LM00020
                  VECTOR VALUES COM1=40,$ IS NOT A PARAMETER WHIC$,                               *015 LM00021
                1 $H CAN BE FORCED.$                                                              *015 LM00022
                  CRTYPE.                                                                         *016 LM00023
                  READY.                                                                          *017 LM00024
                  END OF FUNCTION                                                                 *018 LM00025
1MAD PROGRAM,TYPE NOV 1963      (ALL NUMBERS ARE OCTAL)
0TOTAL LOCATIONS   00113 TRANSFER VECTOR LENGTH  00012 PROGRAM BEGINS    00037 FIRST UNUSED COMMON/ERASABLE  77334
0 PROGRAM IS AN EXTERNAL FUNCTION.   THE FOLLOWING ARE ENTRIES
      F      00040   0
0VARIABLE STORAGE (A=ARRAY,C=COMMON,E=ERASABLE,DIGIT=MODE)
      BCD    00015 A 1        COUNT  00026 A 1        GO     00031 A 3        LIST   77461 AC1        NAME   00033   1
      COM1   00025 A 1        FIND   00012   4        I      00032   1
0FUNCTION DICTIONARY
      ADDCOM 00000   1        ADDNAM 00001   1        CRTYPE 00002   1        EXIT   00003   1        FORMAT 00004   1
      GETNAM 00005   1        MODE   00006   1        PATCH  00007   1        READY  00010   1        SPACE  00011   1
0ABSOLUTE CONSTANTS
 00034 +000000000000     00035 +000000000001     00036 +233000000000
0PROGRAM
                 EXTERNAL FUNCTION                                                  001  LM00001
                 NORMAL MODE IS INTEGER                                             002  LM00002
                 PROGRAM COMMON LIST(84)                                            003  LM00003
                 VECTOR VALUES COUNT=3                                              004  LM00007
 00026     +0 00000 0 00003
                 VECTOR VALUES BCD=$FORMAT$,$PATCH$,$MODE$                          005  LM00008
 00013     -0 44624 2 56060    00014     -0 72163 2 33060    00015     +2 64651 4 42163
                 VECTOR VALUES GO=FORMAT.,PATCH.,MODE.                              006  LM00009
 00027 TXL -3 00000 0 00006    00030 TXL -3 00000 0 00007    00031 TXL -3 00000 0 00004
                 ENTRY TO F.                                                        007  LM00013
 00037 TRA +0 02000 0 00042    00040 SXA +0 63400 2 00100    00041 TSX +0 07400 2 00100
                 SPACE.                                                             008  LM00014
 00042 TSX +0 07400 4 00011
                 GETNAM.(NAME)                                                      009  LM00015
 00043 TSX +0 07400 4 00005    00044 TXH +3 00000 0 00033
                 THROUGH FIND,FOR I=0,1,I.E.COUNT                                   010  LM00016
 00045 CLA +0 50000 0 00034    00046 STO +0 60100 0 00032    00047 TRA +0 02000 0 00053    00050 CLA +0 50000 0 00032
 00051 ADD +0 40000 0 00035    00052 STO +0 60100 0 00032    00053 CLA +0 50000 0 00032    00054 SUB +0 40200 0 00026
 00055 TZE +0 10000 0 00067
      FIND       WHENEVER NAME.E.BCD(I),GO(I).                                      011  LM00017
 00056 LXA +0 53400 2 00032    00057 CLA +0 50000 0 00033    00060 SUB +0 40200 2 00015    00061 TNZ -0 10000 0 00066
 00062 LXA +0 53400 1 00032    00063 CLA +0 50000 1 00031    00064 STO +0 60100 0 00110    00065 TSX +0 07400 4 00110
 00066 TRA +0 02000 0 00050
                 LIST=0                                                             012  LM00018
 00067 CLA +0 50000 0 00034    00070 STO +0 60100 0 77461
                 ADDNAM.(NAME)                                                      013  LM00019
 00071 TSX +0 07400 4 00001    00072 TXH +3 00000 0 00033
                 ADDCOM.(COM1)                                                      014  LM00020
 00073 TSX +0 07400 4 00000    00074 TXH +3 00000 0 00025
                 VECTOR VALUES COM1=40,$ IS NOT A PARAMETER WHIC$,                  015  LM00021
                1$H CAN BE FORCED.$                                                 015  LM00022
 00016     +2 32524 3 36060    00017     +2 22560 2 64651    00020     +3 06023 2 14560    00021     -1 16066 3 03123
 00022     -1 12144 2 56325    00023     -2 36021 6 04721    00024     -2 03162 6 04546    00025     +0 00000 0 00050
                 CRTYPE.                                                            016  LM00023
 00075 TSX +0 07400 4 00002
                 READY.                                                             017  LM00024
 00076 TSX +0 07400 4 00010
                 END OF FUNCTION                                                    018  LM00025
 00077 TSX +0 07400 4 00003    00100 TXH +3 00000 0 00000    00101 SXD -0 63400 1 00100    00102 SXA +0 63400 4 00104
 00103 TRA +0 02000 2 00001    00104 AXT +0 77400 4 00000    00105 LXA +0 53400 2 00100    00106 LXD -0 53400 1 00100
 00107 TRA +0 02000 4 00001
