1     MAD PROGRAM LISTING ... ... ...                 FILE     CON   MAD            02/07/68    1958.9
-
                  EXTERNAL FUNCTION (X,Y,ERROR)                                                   *001 LM00001
                  NORMAL MODE IS INTEGER                                                          *002 LM00002
                  STATEMENT LABEL ERROR                                                           *003 LM00003
                  BOOLEAN CRP                                                                     *004 LM00004
                  FLOATING POINT FLOAT,FRACTN                                                     *005 LM00005
                  PROGRAM COMMON LIST(84)                                                         *006 LM00006
                  EQUIVALENCE (FLOAT,ANS)                                                         *007 LM00007
                  VECTOR VALUES TXL=7K11                                                          *008 LM00008
                  VECTOR VALUES TTR=0021K8                                                        *009 LM00009
                  VECTOR VALUES DS=536060606060K                                                  *010 LM00010
                  VECTOR VALUES CR=556060606060K                                                  *011 LM00011
                  EQUIVALENCE (BCDCOM(1),BCD)                                                     *012 LM00012
                  VECTOR VALUES BCDCOM=6,$******$                                                 *013 LM00013
                                                                                                       LM00014
                 TABLE OF FORMATS                                                                      LM00015
                                                                                                       LM00016
                 INTERNAL EXTERNAL MEANING                                                             LM00017
                                                                                                       LM00018
                     -N        GN   E OR F WITH N DIGITS, 1.LE.N.LE.9                                  LM00019
                      0         P   A OR I (MADBUG'S CHOICE)                                           LM00020
                      1         A   ALPHABETIC                                                         LM00021
                      2         I   INTEGER                                                            LM00022
                      3         O   OCTAL                                                              LM00023
                      4         B   BOOLEAN                                                            LM00024
                      5         S   STATEMENT LABEL                                                    LM00025
                      6         F   FUNCTION                                                           LM00026
                                                                                                       LM00027
                  VECTOR VALUES NAMES=$P$,$A$,$I$,$O$,$B$,$S$,$F$                                 *014 LM00028
                  VECTOR VALUES FORMAT=-3,0,4,6,5,3,3,3,3                                         *015 LM00029
                                                                                                       LM00030
                 MODES 0 THROUGH 7 ARE NORMAL MAD MODES. MODE                                          LM00031
                 8 IS USED TO HANDLE ONE SHOT OVERRIDES.                                               LM00032
                                                                                                       LM00033
                 GETFMT.(MODE) CHANGES PRINTING FORMAT FOR                                             LM00034
                 SPECIFIED MODE.                                                                       LM00035
                                                                                                       LM00036
                  ENTRY TO GETFMT.                                                                *016 LM00037
                  WHENEVER X.L.0.OR.X.G.8                                                         *017 LM00038
                  LIST=0                                                                          *018 LM00039
                  ADDCOM.(COM1)                                                                   *019 LM00040
                  VECTOR VALUES COM1=5,$MODE $                                                    *020 LM00041
                  ADDNUM.(X)                                                                      *021 LM00042
                  ADDCOM.(COM2)                                                                   *022 LM00043
                  VECTOR VALUES COM2=28,$ DOES NOT EXIST.  TRY AGAIN.$                            *023 LM00044
                  CRTYPE.                                                                         *024 LM00045
                  READY.                                                                          *025 LM00046
                  END OF CONDITIONAL                                                              *026 LM00047
                                                                                                       LM00048
                  WHENEVER LIST(LIST).E.$G$                                                       *027 LM00049
                  LIST=LIST+1                                                                     *028 LM00050
                  GETNUM.(NUM)                                                                    *029 LM00051
                  WHENEVER NUM.L.1.OR.NUM.G.9                                                     *030 LM00052
                  PRINT.(COM3)                                                                    *031 LM00053
                  VECTOR VALUES COM3=54,$THE G FIELD COUNT MUST B$,                               *032 LM00054
                1 $E BETWEEN 1 AND 9.  TRY AGAIN.$                                                *032 LM00055
                  READY.                                                                          *033 LM00056
                  END OF CONDITIONAL                                                              *034 LM00057
                  FORMAT(X)=-NUM                                                                  *035 LM00058
                  FUNCTION RETURN                                                                 *036 LM00059
                  END OF CONDITIONAL                                                              *037 LM00060
                  THROUGH FIND,FOR I=0,1,I.G.6                                                    *038 LM00061
                  WHENEVER LIST(LIST).E.NAMES(I)                                                  *039 LM00062
                  FORMAT(X)=I                                                                     *040 LM00063
                  LIST=LIST+1                                                                     *041 LM00064
                  FUNCTION RETURN                                                                 *042 LM00065
      FIND        END OF CONDITIONAL                                                              *043 LM00066
                                                                                                       LM00067
                  COM4(1)=COM4(1).A.7777777777K.V.LIST(LIST).A.77K10                              *044 LM00068
                  PRINT.(COM4)                                                                    *045 LM00069
                  VECTOR VALUES COM4=54,$* IS NOT A FORMAT.  TRY $,                               *046 LM00070
                1 $AGAIN WITH G,P,A,I,O,B,S OR F.$                                                *046 LM00071
                  READY.                                                                          *047 LM00072
                                                                                                       LM00073
                 GETCON.(VALUE,MODE)                                                                   LM00074
                 GET A CONSTANT FROM INPUT LIST ACCORDING TO FORMAT(MODE)                              LM00075
                                                                                                       LM00076
                  ENTRY TO GETCON.                                                                *048 LM00077
                  WHENEVER FORMAT(Y).GE.0,TRANSFER TO GET(FORMAT(Y))                              *049 LM00078
                                                                                                       LM00079
                 FLOATING POINT                                                                        LM00080
                                                                                                       LM00081
                  WHENEVER LIST(LIST).E.$-$                                                       *050 LM00082
                  SIGN=$-$                                                                        *051 LM00083
                  LIST=LIST+1                                                                     *052 LM00084
                  OR WHENEVER LIST(LIST).E.$+$                                                    *053 LM00085
                  SIGN=$+$                                                                        *054 LM00086
                  LIST=LIST+1                                                                     *055 LM00087
                  OTHERWISE                                                                       *056 LM00088
                  SIGN=$+$                                                                        *057 LM00089
                  END OF CONDITIONAL                                                              *058 LM00090
                                                                                                       LM00091
                  WHENEVER LIST(LIST).E.$.$                                                       *059 LM00092
                  FLOAT=0.                                                                        *060 LM00093
                  TRANSFER TO FRACT                                                               *061 LM00094
                  END OF CONDITIONAL                                                              *062 LM00095
                                                                                                       LM00096
                  GETNUM.(INT,FLOERR)                                                             *063 LM00097
                  FLOAT=INT                                                                       *064 LM00098
                                                                                                       LM00099
                  WHENEVER LIST(LIST).E.$.$                                                       *065 LM00100
      FRACT       LIST=LIST+1                                                                     *066 LM00101
                  WHENEVER LIST(LIST).RS.30.LE.9                                                  *067 LM00102
                  CHAR=LIST                                                                       *068 LM00103
                  GETNUM.(INT)                                                                    *069 LM00104
                  FRACTN=INT                                                                      *070 LM00105
                  FRACTN=FRACTN*10..P.(CHAR-LIST)                                                 *071 LM00106
                  FLOAT=FLOAT+FRACTN                                                              *072 LM00107
                  END OF CONDITIONAL                                                              *073 LM00108
                  END OF CONDITIONAL                                                              *074 LM00109
                                                                                                       LM00110
                  WHENEVER LIST(LIST).E.$E$                                                       *075 LM00111
                  LIST=LIST+1                                                                     *076 LM00112
                  GETNUM.(INT,FLOERR)                                                             *077 LM00113
                  FLOAT=FLOAT*10..P.INT                                                           *078 LM00114
                  END OF CONDITIONAL                                                              *079 LM00115
                                                                                                       LM00116
                  WHENEVER SIGN.E.$-$,FLOAT=-FLOAT                                                *080 LM00117
                  X=ANS                                                                           *081 LM00118
                  TRANSFER TO CRCHEK                                                              *082 LM00119
      FLOERR      PRINT.(COM15)                                                                   *083 LM00120
                  VECTOR VALUES COM15=34,$ERROR IN FLOATING POINT CONSTANT.$                      *084 LM00121
                  TRANSFER TO ERROR                                                               *085 LM00122
                                                                                                       LM00123
                 PICK FOR INTEGER                                                                      LM00124
                                                                                                       LM00125
      GET(0)      WHENEVER LIST(LIST).E.DS, TRANSFER TO GET(1)                                    *086 LM00126
      KCHECK      THROUGH KCHECK,FOR I=LIST,1,LIST(I).G.$7$.OR.LIST(I).L.$0$                      *087 LM00127
                  WHENEVER LIST(I).E.$K$,TRANSFER TO GET(3)                                       *088 LM00128
                  TRANSFER TO GET(2)                                                              *089 LM00129
                                                                                                       LM00130
                 ALPHABETIC                                                                            LM00131
                                                                                                       LM00132
      GET(1)      WHENEVER LIST(LIST).NE.DS,TRANSFER TO DSERR                                     *090 LM00133
                  AWORD=$ $                                                                       *091 LM00134
                  THROUGH AFORM, FOR I=0,6,I.G.36                                                 *092 LM00135
                  LIST=LIST+1                                                                     *093 LM00136
                  WHENEVER LIST(LIST).E.DS                                                        *094 LM00137
                  LIST=LIST+1                                                                     *095 LM00138
                  X=AWORD                                                                         *096 LM00139
                  TRANSFER TO CRCHEK                                                              *097 LM00140
                  END OF CONDITIONAL                                                              *098 LM00141
                  WHENEVER CRP.(0),TRANSFER TO DSERR                                              *099 LM00142
      AFORM       AWORD=AWORD.A..N.(77K10.RS.I).V.((LIST(LIST).A.77K10).RS.I)                     *100 LM00143
                                                                                                       LM00144
                  THROUGH DSCHK,FOR LIST=LIST+1,1,LIST(LIST).E.DS                                 *101 LM00145
      DSCHK       WHENEVER LIST(LIST).E.CR,TRANSFER TO DSERR                                      *102 LM00146
                  PRINT.(COM5)                                                                    *103 LM00147
                  VECTOR VALUES COM5=24,$USE ONLY SIX CHARACTERS.$                                *104 LM00148
                  TRANSFER TO ERROR                                                               *105 LM00149
                                                                                                       LM00150
      DSERR       PRINT.(COM6)                                                                    *106 LM00151
                  VECTOR VALUES COM6=47,$USE DOLLAR SIGNS TO QUOTE ALPHABETIC C                   *107 LM00152
                1 ONSTANTS.$                                                                      *107 LM00153
                  TRANSFER TO ERROR                                                               *108 LM00154
                                                                                                       LM00155
                 INTEGER                                                                               LM00156
                                                                                                       LM00157
      GET(2)      GETNUM.(X,INTERR)                                                               *109 LM00158
                  TRANSFER TO CRCHEK                                                              *110 LM00159
      INTERR      PRINT.(COM16)                                                                   *111 LM00160
                  VECTOR VALUES COM16=17,$ERROR IN INTEGER.$                                      *112 LM00161
                  TRANSFER TO ERROR                                                               *113 LM00162
                                                                                                       LM00163
                 OCTAL                                                                                 LM00164
                                                                                                       LM00165
      GET(3)      WHENEVER LIST(LIST).E.$-$                                                       *114 LM00166
                  SIGN=$-$                                                                        *115 LM00167
                  LIST=LIST+1                                                                     *116 LM00168
                  OR WHENEVER LIST(LIST).E.$+$                                                    *117 LM00169
                  SIGN=$+$                                                                        *118 LM00170
                  LIST=LIST+1                                                                     *119 LM00171
                  OTHERWISE                                                                       *120 LM00172
                  SIGN=$+$                                                                        *121 LM00173
                  END OF CONDITIONAL                                                              *122 LM00174
                                                                                                       LM00175
                  WHENEVER LIST(LIST).RS.30.G.7,TRANSFER TO OERROR                                *123 LM00176
                  OCT=0                                                                           *124 LM00177
                  DIGITS=0                                                                        *125 LM00178
      OGET        OCT=(OCT.LS.3).V.(LIST(LIST).RS.30)                                             *126 LM00179
                  LIST=LIST+1                                                                     *127 LM00180
                  DIGITS=DIGITS+1                                                                 *128 LM00181
                  WHENEVER LIST(LIST).RS.30.LE.7,TRANSFER TO OGET                                 *129 LM00182
                                                                                                       LM00183
                  WHENEVER LIST(LIST).NE.$K$                                                      *130 LM00184
      OERROR      PRINT.(COM7)                                                                    *131 LM00185
                  VECTOR VALUES COM7=65,$OCTAL CONSTANT IS OCTAL DIGITS, A 'K',                   *132 LM00186
                1  AND OPTIONAL SCALE FACTOR.$                                                    *132 LM00187
                  TRANSFER TO ERROR                                                               *133 LM00188
                  END OF CONDITIONAL                                                              *134 LM00189
                                                                                                       LM00190
                  LIST=LIST+1                                                                     *135 LM00191
                  WHENEVER LIST(LIST).RS.30.LE.9                                                  *136 LM00192
                  GETNUM.(NUM)                                                                    *137 LM00193
                  OTHERWISE                                                                       *138 LM00194
                  NUM=0                                                                           *139 LM00195
                  END OF CONDITIONAL                                                              *140 LM00196
                                                                                                       LM00197
                  OCT=OCT.LS.(3*NUM)                                                              *141 LM00198
                  WHENEVER DIGITS+NUM.G.12                                                        *142 LM00199
                  PRINT.(COM9)                                                                    *143 LM00200
                  VECTOR VALUES COM9=26,$TOO MANY DIGITS SPECIFIED.$                              *144 LM00201
                  TRANSFER TO ERROR                                                               *145 LM00202
                  END OF CONDITIONAL                                                              *146 LM00203
                                                                                                       LM00204
                  WHENEVER SIGN.E.$-$,OCT=-OCT                                                    *147 LM00205
                  X=OCT                                                                           *148 LM00206
                  TRANSFER TO CRCHEK                                                              *149 LM00207
                                                                                                       LM00208
                 BOOLEAN                                                                               LM00209
                                                                                                       LM00210
      GET(4)      WHENEVER (LIST(LIST).NE.$0$.AND.LIST(LIST).NE.$1$).OR.                          *150 LM00211
                1 LIST(LIST+1).NE.$B$                                                             *150 LM00212
                  PRINT.(COM10)                                                                   *151 LM00213
                  VECTOR VALUES COM10=36,$BOOLEAN CONSTANTS ARE '0B' AND '1B'.$                   *152 LM00214
                  TRANSFER TO ERROR                                                               *153 LM00215
                  END OF CONDITIONAL                                                              *154 LM00216
                                                                                                       LM00217
                  X=LIST(LIST).RS.30                                                              *155 LM00218
                  LIST=LIST+2                                                                     *156 LM00219
                  TRANSFER TO CRCHEK                                                              *157 LM00220
                                                                                                       LM00221
                 STATEMENT LABEL                                                                       LM00222
                                                                                                       LM00223
      GET(5)      GETSL.(NUM,ERROR)                                                               *158 LM00224
                  X=TXL.V.SNLOC.(NUM)                                                             *159 LM00225
                  TRANSFER TO CRCHEK                                                              *160 LM00226
                                                                                                       LM00227
                 FUNCTION NAME                                                                         LM00228
                                                                                                       LM00229
      GET(6)      GETNAM.(NAME,FNERR)                                                             *161 LM00230
                                                                                                       LM00231
                  WHENEVER LIST(LIST).NE.$.$                                                      *162 LM00232
                  PRINT.(COM11)                                                                   *163 LM00233
                  VECTOR VALUES COM11=37,$FUNCTION CONSTANTS END WITH A PERIOD.                   *164 LM00234
                1 $                                                                               *164 LM00235
                  TRANSFER TO ERROR                                                               *165 LM00236
                  END OF CONDITIONAL                                                              *166 LM00237
                                                                                                       LM00238
                  LIST=LIST+1                                                                     *167 LM00239
                  NUM=ENTRY.(NAME)                                                                *168 LM00240
                  WHENEVER NUM.E.0                                                                *169 LM00241
                  LIST=0                                                                          *170 LM00242
                  ADDNAM.(NAME)                                                                   *171 LM00243
                  ADDCOM.(COM12)                                                                  *172 LM00244
                  VECTOR VALUES COM12=43,$. IS NOT A FUNCTION IN THE USER CORE                    *173 LM00245
                1 IMAGE.$                                                                         *173 LM00246
                  CRTYPE.                                                                         *174 LM00247
                  TRANSFER TO ERROR                                                               *175 LM00248
                  END OF CONDITIONAL                                                              *176 LM00249
                                                                                                       LM00250
                  X=NUM.V.TTR                                                                     *177 LM00251
                  TRANSFER TO CRCHEK                                                              *178 LM00252
                                                                                                       LM00253
      FNERR       PRINT.(COM14)                                                                   *179 LM00254
                  VECTOR VALUES COM14=27,$ERROR IN FUNCTION CONSTANT.$                            *180 LM00255
                  TRANSFER TO ERROR                                                               *181 LM00256
                                                                                                       LM00257
      CRCHEK      OSPACE.                                                                         *182 LM00258
                  WHENEVER CRP.(0),FUNCTION RETURN                                                *183 LM00259
                  PRINT.(COM8)                                                                    *184 LM00260
                  VECTOR VALUES COM8=46,$THE FIRST PART WOULD HAVE BEEN O.K. BY                   *185 LM00261
                1  ITSELF.$                                                                       *185 LM00262
                  TRANSFER TO ERROR                                                               *186 LM00263
                                                                                                       LM00264
                 ADDCON.(VALUE,MODE)                                                                   LM00265
                 ADD A CONSTANT TO OUTPUT LIST ACCORDING TO FORMAT(MODE)                               LM00266
                                                                                                       LM00267
                  ENTRY TO ADDCON.                                                                *187 LM00268
                  WHENEVER FORMAT(Y).GE.0,TRANSFER TO ADD(FORMAT(Y))                              *188 LM00269
                                                                                                       LM00270
                 FLOATING POINT                                                                        LM00271
                                                                                                       LM00272
                  DIGITS=-FORMAT(Y)                                                               *189 LM00273
                  ANS=X                                                                           *190 LM00274
                  WHENEVER ANS.A.4K8.E.0.AND.ANS.NE.0,TRANSFER TO BAD                             *191 LM00275
                                                                                                       LM00276
                  WHENEVER ANS.L.0                                                                *192 LM00277
                  LIST=LIST+1                                                                     *193 LM00278
                  LIST(LIST)=$-$                                                                  *194 LM00279
                  ANS=-ANS                                                                        *195 LM00280
                  END OF CONDITIONAL                                                              *196 LM00281
                                                                                                       LM00282
                  POWER=0                                                                         *197 LM00283
                  WHENEVER FLOAT.GE.10..P.(DIGITS+4)                                              *198 LM00284
      PPLUS       POWER=POWER+1                                                                   *199 LM00285
                  FLOAT=FLOAT/10.                                                                 *200 LM00286
                  WHENEVER FLOAT.GE.10.,TRANSFER TO PPLUS                                         *201 LM00287
                  OR WHENEVER FLOAT.E.0.                                                          *202 LM00288
                  OR WHENEVER FLOAT.L.0.001                                                       *203 LM00289
      PMINUS      POWER=POWER-1                                                                   *204 LM00290
                  FLOAT=FLOAT*10.                                                                 *205 LM00291
                  WHENEVER FLOAT.L.1.,TRANSFER TO PMINUS                                          *206 LM00292
                  OR WHENEVER FLOAT.L.0.01                                                        *207 LM00293
                  DIGITS=DIGITS+3                                                                 *208 LM00294
                  OR WHENEVER FLOAT.L.0.1                                                         *209 LM00295
                  DIGITS=DIGITS+2                                                                 *210 LM00296
                  OR WHENEVER FLOAT.L.1.                                                          *211 LM00297
                  DIGITS=DIGITS+1                                                                 *212 LM00298
                  END OF CONDITIONAL                                                              *213 LM00299
                                                                                                       LM00300
                  NUM=FLOAT                                                                       *214 LM00301
                  SAVE=LIST                                                                       *215 LM00302
                  ADDNUM.(NUM)                                                                    *216 LM00303
                  DIGITS=DIGITS-LIST+SAVE                                                         *217 LM00304
                                                                                                       LM00305
                  LIST=LIST+1                                                                     *218 LM00306
                  LIST(LIST)=$.$                                                                  *219 LM00307
                                                                                                       LM00308
      PLOOP       WHENEVER DIGITS.G.0                                                             *220 LM00309
                  FLOAT=FLOAT-NUM                                                                 *221 LM00310
                  FLOAT=10.*FLOAT                                                                 *222 LM00311
                  NUM=FLOAT                                                                       *223 LM00312
                  LIST=LIST+1                                                                     *224 LM00313
                  LIST(LIST)=(NUM.LS.30).V.$0$                                                    *225 LM00314
                  DIGITS=DIGITS-1                                                                 *226 LM00315
                  TRANSFER TO PLOOP                                                               *227 LM00316
                  END OF CONDITIONAL                                                              *228 LM00317
                                                                                                       LM00318
                  WHENEVER POWER.NE.0                                                             *229 LM00319
                  LIST=LIST+1                                                                     *230 LM00320
                  LIST(LIST)=$E$                                                                  *231 LM00321
                  ADDNUM.(POWER)                                                                  *232 LM00322
                  END OF CONDITIONAL                                                              *233 LM00323
                  FUNCTION RETURN                                                                 *234 LM00324
                                                                                                       LM00325
                 PICK FOR INTEGER                                                                      LM00326
                                                                                                       LM00327
      ADD(0)      WHENEVER .ABS.X.GE.1K9,TRANSFER TO ADD(1)                                       *235 LM00328
                  TRANSFER TO ADD(2)                                                              *236 LM00329
                                                                                                       LM00330
                 ALPHABETIC                                                                            LM00331
                                                                                                       LM00332
      ADD(1)      BCD=X                                                                           *237 LM00333
                  THROUGH ALLOK, FOR I=0,6,I.E.36                                                 *238 LM00334
                  TEST=(BCD.RS.I).A.17K                                                           *239 LM00335
      ALLOK       WHENEVER TEST.E.12K.OR.TEST.G.14K,TRANSFER TO BAD                               *240 LM00336
                  LIST=LIST+1                                                                     *241 LM00337
                  LIST(LIST)=DS                                                                   *242 LM00338
                  MIN=LIST+1                                                                      *243 LM00339
                  ADDCOM.(BCDCOM)                                                                 *244 LM00340
      SUB         THROUGH SUB,FOR LIST=LIST,-1,LIST(LIST).NE.$ $.OR.LIST.E.MIN                    *245 LM00341
                  LIST=LIST+1                                                                     *246 LM00342
                  LIST(LIST)=DS                                                                   *247 LM00343
                  FUNCTION RETURN                                                                 *248 LM00344
                                                                                                       LM00345
                 INTEGER                                                                               LM00346
                                                                                                       LM00347
      ADD(2)      INT=X                                                                           *249 LM00348
                  ADDNUM.(INT)                                                                    *250 LM00349
                  FUNCTION RETURN                                                                 *251 LM00350
                                                                                                       LM00351
                 REQUESTED MODE WONT WORK                                                              LM00352
                                                                                                       LM00353
      BAD         ADDCOM.(COM13)                                                                  *252 LM00354
                  VECTOR VALUES COM13=2,$X $                                                      *253 LM00355
                                                                                                       LM00356
                 OCTAL                                                                                 LM00357
                                                                                                       LM00358
      ADD(3)      ADDOCT.(X)                                                                      *254 LM00359
                  LIST=LIST+1                                                                     *255 LM00360
                  LIST(LIST)=$K$                                                                  *256 LM00361
                  FUNCTION RETURN                                                                 *257 LM00362
                                                                                                       LM00363
                 BOOLEAN                                                                               LM00364
                                                                                                       LM00365
      ADD(4)      BOOL=X                                                                          *258 LM00366
                  WHENEVER BOOL.NE.0.AND.BOOL.NE.1,TRANSFER TO BAD                                *259 LM00367
                  LIST=LIST+1                                                                     *260 LM00368
                  LIST(LIST)=(BOOL.LS.30).V.$0$                                                   *261 LM00369
                  LIST=LIST+1                                                                     *262 LM00370
                  LIST(LIST)=$B$                                                                  *263 LM00371
                  FUNCTION RETURN                                                                 *264 LM00372
                                                                                                       LM00373
                 STATEMENT LABEL                                                                       LM00374
                                                                                                       LM00375
      ADD(5)      NUM=X                                                                           *265 LM00376
                  FOO=NUM.A.7K11                                                                  *266 LM00377
                  WHENEVER FOO.NE.TXL,TRANSFER TO BAD                                             *267 LM00378
                  ADDSL.(SNNAM.(NUM.A.77777K))                                                    *268 LM00379
                  FUNCTION RETURN                                                                 *269 LM00380
                                                                                                       LM00381
                 FUNCTION                                                                              LM00382
                                                                                                       LM00383
      ADD(6)      NUM=X                                                                           *270 LM00384
                  WHENEVER NUM.A.7777777K5.NE.TTR,TRANSFER TO BAD                                 *271 LM00385
                  NAME=ENAME.(NUM)                                                                *272 LM00386
                  WHENEVER NAME.E.0,TRANSFER TO BAD                                               *273 LM00387
                  ADDNAM.(NAME)                                                                   *274 LM00388
                  LIST=LIST+1                                                                     *275 LM00389
                  LIST(LIST)=$.$                                                                  *276 LM00390
                  FUNCTION RETURN                                                                 *277 LM00391
                                                                                                       LM00392
                  END OF FUNCTION                                                                 *278 LM00393
1MAD PROGRAM,TYPE NOV 1963      (ALL NUMBERS ARE OCTAL)
0TOTAL LOCATIONS   02105 TRANSFER VECTOR LENGTH  00023 PROGRAM BEGINS    00353 FIRST UNUSED COMMON/ERASABLE  77334
0 PROGRAM IS AN EXTERNAL FUNCTION.   THE FOLLOWING ARE ENTRIES
      ADDCON 01327   0        GETCON 00473   0        GETFMT 00354   0
0VARIABLE STORAGE (A=ARRAY,C=COMMON,E=ERASABLE,DIGIT=MODE)
      ADD    00035 A 4        COM13  00115 A 1        CRCHEK 00037   4        FRACT  00043   4        OERROR 00054   4
      AFORM  00023   4        COM14  00123 A 1        CR     00244 A 1        GET    00052 A 4        OGET   00055   4
      ALLOK  00023   4        COM15  00132 A 1        DIGITS 00245   1        INTERR 00053   4        PLOOP  00056   4
      ANS    00024   1        COM16  00136 A 1        DSCHK  00023   4        INT    00262   1        PMINUS 00057   4
      AWORD  00061   1        COM1   00140 A 1        DSERR  00040   4        I      00263   1        POWER  00277   1
      BAD    00036   4        COM2   00146 A 1        DS     00246 A 1        KCHECK 00023   4        PPLUS  00060   4
      BCDCOM 00026 A 1        COM3   00160 A 1        FIND   00023   4        LIST   77461 AC1        SAVE   00300   1
      BCD    00025   1        COM4   00172 A 1        FLOAT  00024   0        MIN    00264   1        SIGN   00301   1
      BOOL   00062   1        COM5   00177 A 1        FLOERR 00041   4        NAME   00265   1        SUB    00023   4
      CHAR   00063   1        COM6   00210 A 1        FNERR  00042   4        NAMES  00274 A 1        TEST   00302   1
      COM10  00072 A 1        COM7   00224 A 1        FOO    00247   1        NUM    00275   1        TTR    00303 A 1
      COM11  00102 A 1        COM8   00235 A 1        FORMAT 00260 A 1        OCT    00276   1        TXL    00304 A 1
      COM12  00113 A 1        COM9   00243 A 1        FRACTN 00261   0
0FUNCTION DICTIONARY
      .01301 00000   0        ADDCOM 00001   1        ADDNAM 00002   1        ADDNUM 00003   1        ADDOCT 00004   1
      ADDSL  00005   1        CRP    00006   2        CRTYPE 00007   1        ENAME  00010   1        ENTRY  00011   1
      EXIT   00012   1        GETNAM 00013   1        GETNUM 00014   1        GETSL  00015   1        OSPACE 00016   1
      PRINT  00017   1        READY  00020   1        SNLOC  00021   1        SNNAM  00022   1
0ABSOLUTE CONSTANTS
 00352 -377777700000     00323 +000000077777     00350 -300000000000     00316 +000000000012     00320 +000000000017
 00325 +001000000000     00334 +175631463146     00333 +172507534121     00335 +201400000000     00332 +167406111564
 00311 +000000000004     00324 +000400000000     00307 +000000000002     00330 +016060606060     00340 +226060606060
 00317 +000000000014     00310 +000000000003     00313 +000000000007     00322 +000000000044     00347 -206060606060
 00346 -026060606060     00331 +076060606060     00326 +006060606060     00342 +256060606060     00336 +204500000000
 00321 +000000000036     00344 +336060606060     00337 +206060606060     00345 -006060606060     00327 +007777777777
 00351 -370000000000     00312 +000000000006     00315 +000000000011     00343 +276060606060     00305 +000000000000
 00314 +000000000010     00306 +000000000001     00341 +233000000000
0STATEMENT DICTIONARY
 00027 TXL -301774001772       00030 TXL -301752001750       00031 TXL -301720001716       00032 TXL -301707001705
 00033 TXL -301700001676       00034 TXL -301606001604       00035 TXL -301603001575       00036 TXL -301705001703
 00037 TXL -301317001316       00040 TXL -301015001013       00041 TXL -300647000645       00042 TXL -301315001313
 00043 TXL -300560000555       00044 TXL -301257001254       00045 TXL -301245001242       00046 TXL -301225001207
 00047 TXL -301031001025       00050 TXL -301021001016       00051 TXL -300710000703       00052 TXL -300655000650
 00053 TXL -301024001022       00054 TXL -301135001133       00055 TXL -301106001072       00056 TXL -301525001521
 00057 TXL -301436001433       00060 TXL -301412001407
0PROGRAM
                 EXTERNAL FUNCTION (X,Y,ERROR)                                      001  LM00001
                 NORMAL MODE IS INTEGER                                             002  LM00002
                 STATEMENT LABEL ERROR                                              003  LM00003
                 BOOLEAN CRP                                                        004  LM00004
                 FLOATING POINT FLOAT,FRACTN                                        005  LM00005
                 PROGRAM COMMON LIST(84)                                            006  LM00006
                 EQUIVALENCE (FLOAT,ANS)                                            007  LM00007
                 VECTOR VALUES TXL=7K11                                             008  LM00008
 00304     -3 00000 0 00000
                 VECTOR VALUES TTR=0021K8                                           009  LM00009
 00303     +0 02100 0 00000
                 VECTOR VALUES DS=536060606060K                                     010  LM00010
 00246     -1 36060 6 06060
                 VECTOR VALUES CR=556060606060K                                     011  LM00011
 00244     -1 56060 6 06060
                 EQUIVALENCE (BCDCOM(1),BCD)                                        012  LM00012
                 VECTOR VALUES BCDCOM=6,$******$                                    013  LM00013
 00025     -1 45454 5 45454    00026     +0 00000 0 00006
                 VECTOR VALUES NAMES=$P$,$A$,$I$,$O$,$B$,$S$,$F$                    014  LM00028
 00266     +2 66060 6 06060    00267     -2 26060 6 06060    00270     +2 26060 6 06060    00271     -0 66060 6 06060
 00272     +3 16060 6 06060    00273     +2 16060 6 06060    00274     -0 76060 6 06060
                 VECTOR VALUES FORMAT=-3,0,4,6,5,3,3,3,3                            015  LM00029
 00250     +0 00000 0 00003    00251     +0 00000 0 00003    00252     +0 00000 0 00003    00253     +0 00000 0 00003
 00254     +0 00000 0 00005    00255     +0 00000 0 00006    00256     +0 00000 0 00004    00257     +0 00000 0 00000
 00260     -0 00000 0 00003
                 ENTRY TO GETFMT.                                                   016  LM00037
 00353 TRA +0 02000 0 00356    00354 SXA +0 63400 2 02024    00355 TSX +0 07400 2 02024
                 WHENEVER X.L.0.OR.X.G.8                                            017  LM00038
 00356 CLA +0 50000 0 00000    00357 SUB +0 40200 0 00314    00360 TZE +0 10000 0 00362    00361 TPL +0 12000 0 00366
 00362 CLA +0 50000 0 00000    00363 SUB +0 40200 0 00305    00364 TZE +0 10000 0 00400    00365 TPL +0 12000 0 00400
                 LIST=0                                                             018  LM00039
 00366 CLA +0 50000 0 00305    00367 STO +0 60100 0 77461
                 ADDCOM.(COM1)                                                      019  LM00040
 00370 TSX +0 07400 4 00001    00371 TXH +3 00000 0 00140
                 VECTOR VALUES COM1=5,$MODE $                                       020  LM00041
 00137     -0 44624 2 56060    00140     +0 00000 0 00005
                 ADDNUM.(X)                                                         021  LM00042
 00372 TSX +0 07400 4 00003    00373 TXH +3 00000 0 00000
                 ADDCOM.(COM2)                                                      022  LM00043
 00374 TSX +0 07400 4 00001    00375 TXH +3 00000 0 00146
                 VECTOR VALUES COM2=28,$ DOES NOT EXIST.  TRY AGAIN.$               023  LM00044
 00141     +2 13145 3 36060    00142     -2 35170 6 02127    00143     +3 16263 3 36060    00144     -0 54663 6 02567
 00145     -2 02446 2 56260    00146     +0 00000 0 00034
                 CRTYPE.                                                            024  LM00045
 00376 TSX +0 07400 4 00007
                 READY.                                                             025  LM00046
 00377 TSX +0 07400 4 00020
                 END OF CONDITIONAL                                                 026  LM00047
                 WHENEVER LIST(LIST).E.$G$                                          027  LM00049
 00400 LXA +0 53400 1 77461    00401 CLA +0 50000 1 77461    00402 SUB +0 40200 0 00343    00403 TNZ -0 10000 0 00430
                 LIST=LIST+1                                                        028  LM00050
 00404 CLA +0 50000 0 77461    00405 ADD +0 40000 0 00306    00406 STO +0 60100 0 77461
                 GETNUM.(NUM)                                                       029  LM00051
 00407 TSX +0 07400 4 00014    00410 TXH +3 00000 0 00275
                 WHENEVER NUM.L.1.OR.NUM.G.9                                        030  LM00052
 00411 CLA +0 50000 0 00275    00412 SUB +0 40200 0 00315    00413 TZE +0 10000 0 00415    00414 TPL +0 12000 0 00421
 00415 CLA +0 50000 0 00275    00416 SUB +0 40200 0 00306    00417 TZE +0 10000 0 00424    00420 TPL +0 12000 0 00424
                 PRINT.(COM3)                                                       031  LM00053
 00421 TSX +0 07400 4 00017    00422 TXH +3 00000 0 00160
                 VECTOR VALUES COM3=54,$THE G FIELD COUNT MUST B$,                  032  LM00054
                1$E BETWEEN 1 AND 9.  TRY AGAIN.$                                   032  LM00055
 00147     +2 12721 3 14533    00150     -2 06063 5 17060    00151     +2 14524 6 01133    00152     +2 52545 6 00160
 00153     +2 56022 2 56366    00154     -0 46462 6 36022    00155     +2 34664 4 56360    00156     +2 63125 4 32460
 00157     -2 33025 6 02760    00160     +0 00000 0 00066
                 READY.                                                             033  LM00056
 00423 TSX +0 07400 4 00020
                 END OF CONDITIONAL                                                 034  LM00057
                 FORMAT(X)=-NUM                                                     035  LM00058
 00424 CLS +0 50200 0 00275    00425 LXA +0 53400 1 00000    00426 STO +0 60100 1 00260
                 FUNCTION RETURN                                                    036  LM00059
 00427 TRA +0 02000 0 02076
                 END OF CONDITIONAL                                                 037  LM00060
                 THROUGH FIND,FOR I=0,1,I.G.6                                       038  LM00061
 00430 CLA +0 50000 0 00305    00431 STO +0 60100 0 00263    00432 TRA +0 02000 0 00436    00433 CLA +0 50000 0 00263
 00434 ADD +0 40000 0 00306    00435 STO +0 60100 0 00263    00436 CLA +0 50000 0 00263    00437 SUB +0 40200 0 00312
 00440 TZE +0 10000 0 00442    00441 TPL +0 12000 0 00457
                 WHENEVER LIST(LIST).E.NAMES(I)                                     039  LM00062
 00442 LXA +0 53400 1 77461    00443 LXA +0 53400 2 00263    00444 CLA +0 50000 1 77461    00445 SUB +0 40200 2 00274
 00446 TNZ -0 10000 0 00456
                 FORMAT(X)=I                                                        040  LM00063
 00447 LXA +0 53400 1 00000    00450 CLA +0 50000 0 00263    00451 STO +0 60100 1 00260
                 LIST=LIST+1                                                        041  LM00064
 00452 CLA +0 50000 0 77461    00453 ADD +0 40000 0 00306    00454 STO +0 60100 0 77461
                 FUNCTION RETURN                                                    042  LM00065
 00455 TRA +0 02000 0 02076
      FIND       END OF CONDITIONAL                                                 043  LM00066
 00456 TRA +0 02000 0 00433
                 COM4(1)=COM4(1).A.7777777777K.V.LIST(LIST).A.77K10                 044  LM00068
 00457 LXA +0 53400 1 77461    00460 CAL -0 50000 1 77461    00461 ANA -0 32000 0 00351    00462 SLW +0 60200 0 02102
 00463 CAL -0 50000 0 00171    00464 ANA -0 32000 0 00327    00465 ORA -0 50100 0 02102    00466 SLW +0 60200 0 00171
                 PRINT.(COM4)                                                       045  LM00069
 00467 TSX +0 07400 4 00017    00470 TXH +3 00000 0 00172
                 VECTOR VALUES COM4=54,$* IS NOT A FORMAT.  TRY $,                  046  LM00070
                1$AGAIN WITH G,P,A,I,O,B,S OR F.$                                   046  LM00071
 00161     -2 04651 6 02633    00162     -3 34673 2 27362    00163     -3 34773 2 17331    00164     -2 63163 3 06027
 00165     +2 12721 3 14560    00166     -2 06063 5 17060    00167     -0 65144 2 16333    00170     -0 66360 2 16026
 00171     -1 46031 6 26045    00172     +0 00000 0 00066
                 READY.                                                             047  LM00072
 00471 TSX +0 07400 4 00020
                 ENTRY TO GETCON.                                                   048  LM00077
 00472 TRA +0 02000 0 00475    00473 SXA +0 63400 2 02024    00474 TSX +0 07400 2 02024
                 WHENEVER FORMAT(Y).GE.0,TRANSFER TO GET(FORMAT(Y))                 049  LM00078
 00475 LXA +0 53400 1 00000    00476 CLA +0 50000 1 00260    00477 SUB +0 40200 0 00305    00500 TZE +0 10000 0 00502
 00501 TMI -0 12000 0 00505    00502 CLA +0 50000 1 00260    00503 PAX +0 73400 2 00000    00504 TRA +0 02000 2 00052
                 WHENEVER LIST(LIST).E.$-$                                          050  LM00082
 00505 LXA +0 53400 1 77461    00506 CLA +0 50000 1 77461    00507 SUB +0 40200 0 00345    00510 TNZ -0 10000 0 00517
                 SIGN=$-$                                                           051  LM00083
 00511 CLA +0 50000 0 00345    00512 STO +0 60100 0 00301
                 LIST=LIST+1                                                        052  LM00084
 00513 CLA +0 50000 0 77461    00514 ADD +0 40000 0 00306    00515 STO +0 60100 0 77461
                 OR WHENEVER LIST(LIST).E.$+$                                       053  LM00085
 00516 TRA +0 02000 0 00533    00517 LXA +0 53400 1 77461    00520 CLA +0 50000 1 77461    00521 SUB +0 40200 0 00337
 00522 TNZ -0 10000 0 00531
                 SIGN=$+$                                                           054  LM00086
 00523 CLA +0 50000 0 00337    00524 STO +0 60100 0 00301
                 LIST=LIST+1                                                        055  LM00087
 00525 CLA +0 50000 0 77461    00526 ADD +0 40000 0 00306    00527 STO +0 60100 0 77461
                 OTHERWISE                                                          056  LM00088
 00530 TRA +0 02000 0 00533
                 SIGN=$+$                                                           057  LM00089
 00531 CLA +0 50000 0 00337    00532 STO +0 60100 0 00301
                 END OF CONDITIONAL                                                 058  LM00090
                 WHENEVER LIST(LIST).E.$.$                                          059  LM00092
 00533 LXA +0 53400 1 77461    00534 CLA +0 50000 1 77461    00535 SUB +0 40200 0 00344    00536 TNZ -0 10000 0 00542
                 FLOAT=0.                                                           060  LM00093
 00537 CLA +0 50000 0 00305    00540 STO +0 60100 0 00024
                 TRANSFER TO FRACT                                                  061  LM00094
 00541 TRA +0 02000 0 00043
                 END OF CONDITIONAL                                                 062  LM00095
                 GETNUM.(INT,FLOERR)                                                063  LM00097
 00542 TSX +0 07400 4 00014    00543 TXH +3 00000 0 00262    00544 TXH +3 00000 0 00041
                 FLOAT=INT                                                          064  LM00098
 00545 CLA +0 50000 0 00262    00546 ORA -0 50100 0 00341    00547 FAD +0 30000 0 00341    00550 STO +0 60100 0 00024
                 WHENEVER LIST(LIST).E.$.$                                          065  LM00100
 00551 LXA +0 53400 1 77461    00552 CLA +0 50000 1 77461    00553 SUB +0 40200 0 00344    00554 TNZ -0 10000 0 00615
      FRACT      LIST=LIST+1                                                        066  LM00101
 00555 CLA +0 50000 0 77461    00556 ADD +0 40000 0 00306    00557 STO +0 60100 0 77461
                 WHENEVER LIST(LIST).RS.30.LE.9                                     067  LM00102
 00560 LXA +0 53400 1 77461    00561 CAL -0 50000 0 00321    00562 STA +0 62100 0 00564    00563 CAL -0 50000 1 77461
 00564 LGR -0 76500 0 00000    00565 SLW +0 60200 0 02102    00566 CLA +0 50000 0 02102    00567 SUB +0 40200 0 00315
 00570 TZE +0 10000 0 00572    00571 TPL +0 12000 0 00615
                 CHAR=LIST                                                          068  LM00103
 00572 CLA +0 50000 0 77461    00573 STO +0 60100 0 00063
                 GETNUM.(INT)                                                       069  LM00104
 00574 TSX +0 07400 4 00014    00575 TXH +3 00000 0 00262
                 FRACTN=INT                                                         070  LM00105
 00576 CLA +0 50000 0 00262    00577 ORA -0 50100 0 00341    00600 FAD +0 30000 0 00341    00601 STO +0 60100 0 00261
                 FRACTN=FRACTN*10..P.(CHAR-LIST)                                    071  LM00106
 00602 CLA +0 50000 0 00063    00603 SUB +0 40200 0 77461    00604 XCA +0 13100 0 00000    00605 CLA +0 50000 0 00336
 00606 TSX +0 07400 4 00000    00607 XCA +0 13100 0 00000    00610 FMP +0 26000 0 00261    00611 STO +0 60100 0 00261
                 FLOAT=FLOAT+FRACTN                                                 072  LM00107
 00612 CLA +0 50000 0 00024    00613 FAD +0 30000 0 00261    00614 STO +0 60100 0 00024
                 END OF CONDITIONAL                                                 073  LM00108
                 END OF CONDITIONAL                                                 074  LM00109
                 WHENEVER LIST(LIST).E.$E$                                          075  LM00111
 00615 LXA +0 53400 1 77461    00616 CLA +0 50000 1 77461    00617 SUB +0 40200 0 00342    00620 TNZ -0 10000 0 00635
                 LIST=LIST+1                                                        076  LM00112
 00621 CLA +0 50000 0 77461    00622 ADD +0 40000 0 00306    00623 STO +0 60100 0 77461
                 GETNUM.(INT,FLOERR)                                                077  LM00113
 00624 TSX +0 07400 4 00014    00625 TXH +3 00000 0 00262    00626 TXH +3 00000 0 00041
                 FLOAT=FLOAT*10..P.INT                                              078  LM00114
 00627 CLA +0 50000 0 00336    00630 LDQ +0 56000 0 00262    00631 TSX +0 07400 4 00000    00632 XCA +0 13100 0 00000
 00633 FMP +0 26000 0 00024    00634 STO +0 60100 0 00024
                 END OF CONDITIONAL                                                 079  LM00115
                 WHENEVER SIGN.E.$-$,FLOAT=-FLOAT                                   080  LM00117
 00635 CLA +0 50000 0 00301    00636 SUB +0 40200 0 00345    00637 TNZ -0 10000 0 00642    00640 CLS +0 50200 0 00024
 00641 STO +0 60100 0 00024
                 X=ANS                                                              081  LM00118
 00642 CLA +0 50000 0 00024    00643 STO +0 60100 0 00000
                 TRANSFER TO CRCHEK                                                 082  LM00119
 00644 TRA +0 02000 0 00037
      FLOERR     PRINT.(COM15)                                                      083  LM00120
 00645 TSX +0 07400 4 00017    00646 TXH +3 00000 0 00132
                 VECTOR VALUES COM15=34,$ERROR IN FLOATING POINT CONSTANT.$         084  LM00121
 00124     -0 56333 6 06060    00125     +2 34645 6 26321    00126     -0 74631 4 56360    00127     +2 16331 4 52760
 00130     +3 14560 2 64346    00131     +2 55151 4 65160    00132     +0 00000 0 00042
                 TRANSFER TO ERROR                                                  085  LM00122
 00647 TRA +0 02000 0 00000
      GET(0)     WHENEVER LIST(LIST).E.DS, TRANSFER TO GET(1)                       086  LM00126
 00650 LXA +0 53400 1 77461    00651 CLA +0 50000 1 77461    00652 SUB +0 40200 0 00246    00653 TNZ -0 10000 0 00655
 00654 TRA +0 02000 0 00051
      KCHECK     THROUGH KCHECK,FOR I=LIST,1,LIST(I).G.$7$.OR.LIST(I).L.$0$         087  LM00127
 00655 CLA +0 50000 0 77461    00656 STO +0 60100 0 00263    00657 TRA +0 02000 0 00663    00660 CLA +0 50000 0 00263
 00661 ADD +0 40000 0 00306    00662 STO +0 60100 0 00263    00663 LXA +0 53400 1 00263    00664 CLA +0 50000 1 77461
 00665 SUB +0 40200 0 00326    00666 TZE +0 10000 0 00670    00667 TMI -0 12000 0 00675    00670 CLA +0 50000 1 77461
 00671 SUB +0 40200 0 00331    00672 TZE +0 10000 0 00674    00673 TPL +0 12000 0 00675    00674 TRA +0 02000 0 00660
                 WHENEVER LIST(I).E.$K$,TRANSFER TO GET(3)                          088  LM00128
 00675 LXA +0 53400 1 00263    00676 CLA +0 50000 1 77461    00677 SUB +0 40200 0 00346    00700 TNZ -0 10000 0 00702
 00701 TRA +0 02000 0 00047
                 TRANSFER TO GET(2)                                                 089  LM00129
 00702 TRA +0 02000 0 00050
      GET(1)     WHENEVER LIST(LIST).NE.DS,TRANSFER TO DSERR                        090  LM00133
 00703 LXA +0 53400 1 77461    00704 CLA +0 50000 1 77461    00705 SUB +0 40200 0 00246    00706 TZE +0 10000 0 00710
 00707 TRA +0 02000 0 00040
                 AWORD=$ $                                                          091  LM00134
 00710 CLA +0 50000 0 00347    00711 STO +0 60100 0 00061
                 THROUGH AFORM, FOR I=0,6,I.G.36                                    092  LM00135
 00712 CLA +0 50000 0 00305    00713 STO +0 60100 0 00263    00714 TRA +0 02000 0 00720    00715 CLA +0 50000 0 00263
 00716 ADD +0 40000 0 00312    00717 STO +0 60100 0 00263    00720 CLA +0 50000 0 00263    00721 SUB +0 40200 0 00322
 00722 TZE +0 10000 0 00724    00723 TPL +0 12000 0 00767
                 LIST=LIST+1                                                        093  LM00136
 00724 CLA +0 50000 0 77461    00725 ADD +0 40000 0 00306    00726 STO +0 60100 0 77461
                 WHENEVER LIST(LIST).E.DS                                           094  LM00137
 00727 LXA +0 53400 1 77461    00730 CLA +0 50000 1 77461    00731 SUB +0 40200 0 00246    00732 TNZ -0 10000 0 00741
                 LIST=LIST+1                                                        095  LM00138
 00733 CLA +0 50000 0 77461    00734 ADD +0 40000 0 00306    00735 STO +0 60100 0 77461
                 X=AWORD                                                            096  LM00139
 00736 CLA +0 50000 0 00061    00737 STO +0 60100 0 00000
                 TRANSFER TO CRCHEK                                                 097  LM00140
 00740 TRA +0 02000 0 00037
                 END OF CONDITIONAL                                                 098  LM00141
                 WHENEVER CRP.(0),TRANSFER TO DSERR                                 099  LM00142
 00741 TSX +0 07400 4 00006    00742 TXH +3 00000 0 00305    00743 TZE +0 10000 0 00745    00744 TRA +0 02000 0 00040
      AFORM      AWORD=AWORD.A..N.(77K10.RS.I).V.((LIST(LIST).A.77K10).RS.I)        100  LM00143
 00745 LXA +0 53400 1 77461    00746 CAL -0 50000 1 77461    00747 ANA -0 32000 0 00351    00750 SLW +0 60200 0 02102
 00751 CAL -0 50000 0 00263    00752 STA +0 62100 0 00754    00753 CAL -0 50000 0 02102    00754 LGR -0 76500 0 00000
 00755 SLW +0 60200 0 02102    00756 CAL -0 50000 0 00263    00757 STA +0 62100 0 00761    00760 CAL -0 50000 0 00351
 00761 LGR -0 76500 0 00000    00762 COM +0 76000 0 00006    00763 ANA -0 32000 0 00061    00764 ORA -0 50100 0 02102
 00765 SLW +0 60200 0 00061    00766 TRA +0 02000 0 00715
                 THROUGH DSCHK,FOR LIST=LIST+1,1,LIST(LIST).E.DS                    101  LM00145
 00767 CLA +0 50000 0 77461    00770 ADD +0 40000 0 00306    00771 STO +0 60100 0 77461    00772 TRA +0 02000 0 00776
 00773 CLA +0 50000 0 77461    00774 ADD +0 40000 0 00306    00775 STO +0 60100 0 77461    00776 LXA +0 53400 1 77461
 00777 CLA +0 50000 1 77461    01000 SUB +0 40200 0 00246    01001 TZE +0 10000 0 01010
      DSCHK      WHENEVER LIST(LIST).E.CR,TRANSFER TO DSERR                         102  LM00146
 01002 LXA +0 53400 1 77461    01003 CLA +0 50000 1 77461    01004 SUB +0 40200 0 00244    01005 TNZ -0 10000 0 01007
 01006 TRA +0 02000 0 00040    01007 TRA +0 02000 0 00773
                 PRINT.(COM5)                                                       103  LM00147
 01010 TSX +0 07400 4 00017    01011 TXH +3 00000 0 00177
                 VECTOR VALUES COM5=24,$USE ONLY SIX CHARACTERS.$                   104  LM00148
 00173     +2 36325 5 16233    00174     -2 02330 2 15121    00175     -0 37060 6 23167    00176     -2 46225 6 04645
 00177     +0 00000 0 00030
                 TRANSFER TO ERROR                                                  105  LM00149
 01012 TRA +0 02000 0 00000
      DSERR      PRINT.(COM6)                                                       106  LM00151
 01013 TSX +0 07400 4 00017    01014 TXH +3 00000 0 00210
                 VECTOR VALUES COM6=47,$USE DOLLAR SIGNS TO QUOTE ALPHABETIC C      107  LM00152
                1ONSTANTS.$                                                         107  LM00153
 00200     +2 14563 6 23360    00201     -2 02346 4 56263    00202     +2 12225 6 33123    00203     +2 56021 4 34730
 00204     -0 66050 6 44663    00205     +3 12745 6 26063    00206     -0 34321 5 16062    00207     -2 46225 6 02446
 00210     +0 00000 0 00057
                 TRANSFER TO ERROR                                                  108  LM00154
 01015 TRA +0 02000 0 00000
      GET(2)     GETNUM.(X,INTERR)                                                  109  LM00158
 01016 TSX +0 07400 4 00014    01017 TXH +3 00000 0 00000    01020 TXH +3 00000 0 00053
                 TRANSFER TO CRCHEK                                                 110  LM00159
 01021 TRA +0 02000 0 00037
      INTERR     PRINT.(COM16)                                                      111  LM00160
 01022 TSX +0 07400 4 00017    01023 TXH +3 00000 0 00136
                 VECTOR VALUES COM16=17,$ERROR IN INTEGER.$                         112  LM00161
 00133     +2 52725 5 13360    00134     +3 14560 3 14563    00135     +2 55151 4 65160    00136     +0 00000 0 00021
                 TRANSFER TO ERROR                                                  113  LM00162
 01024 TRA +0 02000 0 00000
      GET(3)     WHENEVER LIST(LIST).E.$-$                                          114  LM00166
 01025 LXA +0 53400 1 77461    01026 CLA +0 50000 1 77461    01027 SUB +0 40200 0 00345    01030 TNZ -0 10000 0 01037
                 SIGN=$-$                                                           115  LM00167
 01031 CLA +0 50000 0 00345    01032 STO +0 60100 0 00301
                 LIST=LIST+1                                                        116  LM00168
 01033 CLA +0 50000 0 77461    01034 ADD +0 40000 0 00306    01035 STO +0 60100 0 77461
                 OR WHENEVER LIST(LIST).E.$+$                                       117  LM00169
 01036 TRA +0 02000 0 01053    01037 LXA +0 53400 1 77461    01040 CLA +0 50000 1 77461    01041 SUB +0 40200 0 00337
 01042 TNZ -0 10000 0 01051
                 SIGN=$+$                                                           118  LM00170
 01043 CLA +0 50000 0 00337    01044 STO +0 60100 0 00301
                 LIST=LIST+1                                                        119  LM00171
 01045 CLA +0 50000 0 77461    01046 ADD +0 40000 0 00306    01047 STO +0 60100 0 77461
                 OTHERWISE                                                          120  LM00172
 01050 TRA +0 02000 0 01053
                 SIGN=$+$                                                           121  LM00173
 01051 CLA +0 50000 0 00337    01052 STO +0 60100 0 00301
                 END OF CONDITIONAL                                                 122  LM00174
                 WHENEVER LIST(LIST).RS.30.G.7,TRANSFER TO OERROR                   123  LM00176
 01053 LXA +0 53400 1 77461    01054 CAL -0 50000 0 00321    01055 STA +0 62100 0 01057    01056 CAL -0 50000 1 77461
 01057 LGR -0 76500 0 00000    01060 SLW +0 60200 0 02102    01061 CLA +0 50000 0 02102    01062 SUB +0 40200 0 00313
 01063 TZE +0 10000 0 01066    01064 TMI -0 12000 0 01066    01065 TRA +0 02000 0 00054
                 OCT=0                                                              124  LM00177
 01066 CLA +0 50000 0 00305    01067 STO +0 60100 0 00276
                 DIGITS=0                                                           125  LM00178
 01070 CLA +0 50000 0 00305    01071 STO +0 60100 0 00245
      OGET       OCT=(OCT.LS.3).V.(LIST(LIST).RS.30)                                126  LM00179
 01072 LXA +0 53400 1 77461    01073 CAL -0 50000 0 00321    01074 STA +0 62100 0 01076    01075 CAL -0 50000 1 77461
 01076 LGR -0 76500 0 00000    01077 SLW +0 60200 0 02102    01100 CAL -0 50000 0 00310    01101 STA +0 62100 0 01103
 01102 CAL -0 50000 0 00276    01103 ALS +0 76700 0 00000    01104 ORA -0 50100 0 02102    01105 SLW +0 60200 0 00276
                 LIST=LIST+1                                                        127  LM00180
 01106 CLA +0 50000 0 77461    01107 ADD +0 40000 0 00306    01110 STO +0 60100 0 77461
                 DIGITS=DIGITS+1                                                    128  LM00181
 01111 CLA +0 50000 0 00245    01112 ADD +0 40000 0 00306    01113 STO +0 60100 0 00245
                 WHENEVER LIST(LIST).RS.30.LE.7,TRANSFER TO OGET                    129  LM00182
 01114 LXA +0 53400 1 77461    01115 CAL -0 50000 0 00321    01116 STA +0 62100 0 01120    01117 CAL -0 50000 1 77461
 01120 LGR -0 76500 0 00000    01121 SLW +0 60200 0 02102    01122 CLA +0 50000 0 02102    01123 SUB +0 40200 0 00313
 01124 TZE +0 10000 0 01126    01125 TPL +0 12000 0 01127    01126 TRA +0 02000 0 00055
                 WHENEVER LIST(LIST).NE.$K$                                         130  LM00184
 01127 LXA +0 53400 1 77461    01130 CLA +0 50000 1 77461    01131 SUB +0 40200 0 00346    01132 TZE +0 10000 0 01136
      OERROR     PRINT.(COM7)                                                       131  LM00185
 01133 TSX +0 07400 4 00017    01134 TXH +3 00000 0 00224
                 VECTOR VALUES COM7=65,$OCTAL CONSTANT IS OCTAL DIGITS, A 'K',      132  LM00186
                1 AND OPTIONAL SCALE FACTOR.$                                       132  LM00187
 00211     +2 36346 5 13360    00212     +2 14325 6 02621    00213     -0 52143 6 06223    00214     -2 04647 6 33146
 00215     +1 47360 2 14524    00216     -3 36021 6 01442    00217     +2 43127 3 16362    00220     -0 62363 2 14360
 00221     -0 56360 3 16260    00222     +2 34645 6 26321    00223     -0 62363 2 14360    00224     +0 00000 0 00101
                 TRANSFER TO ERROR                                                  133  LM00188
 01135 TRA +0 02000 0 00000
                 END OF CONDITIONAL                                                 134  LM00189
                 LIST=LIST+1                                                        135  LM00191
 01136 CLA +0 50000 0 77461    01137 ADD +0 40000 0 00306    01140 STO +0 60100 0 77461
                 WHENEVER LIST(LIST).RS.30.LE.9                                     136  LM00192
 01141 LXA +0 53400 1 77461    01142 CAL -0 50000 0 00321    01143 STA +0 62100 0 01145    01144 CAL -0 50000 1 77461
 01145 LGR -0 76500 0 00000    01146 SLW +0 60200 0 02102    01147 CLA +0 50000 0 02102    01150 SUB +0 40200 0 00315
 01151 TZE +0 10000 0 01153    01152 TPL +0 12000 0 01156
                 GETNUM.(NUM)                                                       137  LM00193
 01153 TSX +0 07400 4 00014    01154 TXH +3 00000 0 00275
                 OTHERWISE                                                          138  LM00194
 01155 TRA +0 02000 0 01160
                 NUM=0                                                              139  LM00195
 01156 CLA +0 50000 0 00305    01157 STO +0 60100 0 00275
                 END OF CONDITIONAL                                                 140  LM00196
                 OCT=OCT.LS.(3*NUM)                                                 141  LM00198
 01160 LDQ +0 56000 0 00310    01161 MPY +0 20000 0 00275    01162 XCA +0 13100 0 00000    01163 STA +0 62100 0 01165
 01164 CAL -0 50000 0 00276    01165 ALS +0 76700 0 00000    01166 SLW +0 60200 0 00276
                 WHENEVER DIGITS+NUM.G.12                                           142  LM00199
 01167 CLA +0 50000 0 00245    01170 ADD +0 40000 0 00275    01171 SUB +0 40200 0 00317    01172 TZE +0 10000 0 01177
 01173 TMI -0 12000 0 01177
                 PRINT.(COM9)                                                       143  LM00200
 01174 TSX +0 07400 4 00017    01175 TXH +3 00000 0 00243
                 VECTOR VALUES COM9=26,$TOO MANY DIGITS SPECIFIED.$                 144  LM00201
 00236     +2 43360 6 06060    00237     +2 52331 2 63125    00240     +3 16362 6 06247    00241     -0 57060 2 43127
 00242     -2 34646 6 04421    00243     +0 00000 0 00032
                 TRANSFER TO ERROR                                                  145  LM00202
 01176 TRA +0 02000 0 00000
                 END OF CONDITIONAL                                                 146  LM00203
                 WHENEVER SIGN.E.$-$,OCT=-OCT                                       147  LM00205
 01177 CLA +0 50000 0 00301    01200 SUB +0 40200 0 00345    01201 TNZ -0 10000 0 01204    01202 CLS +0 50200 0 00276
 01203 STO +0 60100 0 00276
                 X=OCT                                                              148  LM00206
 01204 CLA +0 50000 0 00276    01205 STO +0 60100 0 00000
                 TRANSFER TO CRCHEK                                                 149  LM00207
 01206 TRA +0 02000 0 00037
      GET(4)     WHENEVER (LIST(LIST).NE.$0$.AND.LIST(LIST).NE.$1$).OR.             150  LM00211
                1LIST(LIST+1).NE.$B$                                                150  LM00212
 01207 CLA +0 50000 0 77461    01210 ADD +0 40000 0 00306    01211 PAX +0 73400 1 00000    01212 CLA +0 50000 1 77461
 01213 SUB +0 40200 0 00340    01214 TNZ -0 10000 0 01225    01215 LXA +0 53400 1 77461    01216 CLA +0 50000 1 77461
 01217 SUB +0 40200 0 00330    01220 TZE +0 10000 0 01224    01221 CLA +0 50000 1 77461    01222 SUB +0 40200 0 00326
 01223 TNZ -0 10000 0 01225    01224 TRA +0 02000 0 01230
                 PRINT.(COM10)                                                      151  LM00213
 01225 TSX +0 07400 4 00017    01226 TXH +3 00000 0 00072
                 VECTOR VALUES COM10=36,$BOOLEAN CONSTANTS ARE '0B' AND '1B'.$      152  LM00214
 00064     -2 01401 2 21433    00065     +2 21460 2 14524    00066     +2 15125 6 01400    00067     -2 32145 6 36260
 00070     -0 56023 4 64562    00071     +2 24646 4 32521    00072     +0 00000 0 00044
                 TRANSFER TO ERROR                                                  153  LM00215
 01227 TRA +0 02000 0 00000
                 END OF CONDITIONAL                                                 154  LM00216
                 X=LIST(LIST).RS.30                                                 155  LM00218
 01230 LXA +0 53400 1 77461    01231 CAL -0 50000 0 00321    01232 STA +0 62100 0 01234    01233 CAL -0 50000 1 77461
 01234 LGR -0 76500 0 00000    01235 SLW +0 60200 0 00000
                 LIST=LIST+2                                                        156  LM00219
 01236 CLA +0 50000 0 77461    01237 ADD +0 40000 0 00307    01240 STO +0 60100 0 77461
                 TRANSFER TO CRCHEK                                                 157  LM00220
 01241 TRA +0 02000 0 00037
      GET(5)     GETSL.(NUM,ERROR)                                                  158  LM00224
 01242 TSX +0 07400 4 00015    01243 TXH +3 00000 0 00275    01244 TXH +3 00000 0 00000
                 X=TXL.V.SNLOC.(NUM)                                                159  LM00225
 01245 TSX +0 07400 4 00021    01246 TXH +3 00000 0 00275    01247 STO +0 60100 0 02102    01250 CAL -0 50000 0 00304
 01251 ORA -0 50100 0 02102    01252 SLW +0 60200 0 00000
                 TRANSFER TO CRCHEK                                                 160  LM00226
 01253 TRA +0 02000 0 00037
      GET(6)     GETNAM.(NAME,FNERR)                                                161  LM00230
 01254 TSX +0 07400 4 00013    01255 TXH +3 00000 0 00265    01256 TXH +3 00000 0 00042
                 WHENEVER LIST(LIST).NE.$.$                                         162  LM00232
 01257 LXA +0 53400 1 77461    01260 CLA +0 50000 1 77461    01261 SUB +0 40200 0 00344    01262 TZE +0 10000 0 01266
                 PRINT.(COM11)                                                      163  LM00233
 01263 TSX +0 07400 4 00017    01264 TXH +3 00000 0 00102
                 VECTOR VALUES COM11=37,$FUNCTION CONSTANTS END WITH A PERIOD.      164  LM00234
                1$                                                                  164  LM00235
 00073     +3 36060 6 06060    00074     -0 72551 3 14624    00075     +3 16330 6 02160    00076     -2 02545 2 46066
 00077     -2 26321 4 56362    00100     -0 64560 2 34645    00101     +2 66445 2 36331    00102     +0 00000 0 00045
                 TRANSFER TO ERROR                                                  165  LM00236
 01265 TRA +0 02000 0 00000
                 END OF CONDITIONAL                                                 166  LM00237
                 LIST=LIST+1                                                        167  LM00239
 01266 CLA +0 50000 0 77461    01267 ADD +0 40000 0 00306    01270 STO +0 60100 0 77461
                 NUM=ENTRY.(NAME)                                                   168  LM00240
 01271 TSX +0 07400 4 00011    01272 TXH +3 00000 0 00265    01273 STO +0 60100 0 00275
                 WHENEVER NUM.E.0                                                   169  LM00241
 01274 CLA +0 50000 0 00275    01275 SUB +0 40200 0 00305    01276 TNZ -0 10000 0 01307
                 LIST=0                                                             170  LM00242
 01277 CLA +0 50000 0 00305    01300 STO +0 60100 0 77461
                 ADDNAM.(NAME)                                                      171  LM00243
 01301 TSX +0 07400 4 00002    01302 TXH +3 00000 0 00265
                 ADDCOM.(COM12)                                                     172  LM00244
 01303 TSX +0 07400 4 00001    01304 TXH +3 00000 0 00113
                 VECTOR VALUES COM12=43,$. IS NOT A FUNCTION IN THE USER CORE       173  LM00245
                1IMAGE.$                                                            173  LM00246
 00103     +3 36060 6 06060    00104     -2 03144 2 12725    00105     -1 16023 4 65125    00106     +3 02560 6 46225
 00107     -0 56031 4 56063    00110     -2 44523 6 33146    00111     -0 66360 2 16026    00112     +3 36031 6 26045
 00113     +0 00000 0 00053
                 CRTYPE.                                                            174  LM00247
 01305 TSX +0 07400 4 00007
                 TRANSFER TO ERROR                                                  175  LM00248
 01306 TRA +0 02000 0 00000
                 END OF CONDITIONAL                                                 176  LM00249
                 X=NUM.V.TTR                                                        177  LM00251
 01307 CAL -0 50000 0 00275    01310 ORA -0 50100 0 00303    01311 SLW +0 60200 0 00000
                 TRANSFER TO CRCHEK                                                 178  LM00252
 01312 TRA +0 02000 0 00037
      FNERR      PRINT.(COM14)                                                      179  LM00254
 01313 TSX +0 07400 4 00017    01314 TXH +3 00000 0 00123
                 VECTOR VALUES COM14=27,$ERROR IN FUNCTION CONSTANT.$               180  LM00255
 00116     -0 56333 6 06060    00117     +2 34645 6 26321    00120     +2 36331 4 64560    00121     +3 14560 2 66445
 00122     +2 55151 4 65160    00123     +0 00000 0 00033
                 TRANSFER TO ERROR                                                  181  LM00256
 01315 TRA +0 02000 0 00000
      CRCHEK     OSPACE.                                                            182  LM00258
 01316 TSX +0 07400 4 00016
                 WHENEVER CRP.(0),FUNCTION RETURN                                   183  LM00259
 01317 TSX +0 07400 4 00006    01320 TXH +3 00000 0 00305    01321 TZE +0 10000 0 01323    01322 TRA +0 02000 0 02076
                 PRINT.(COM8)                                                       184  LM00260
 01323 TSX +0 07400 4 00017    01324 TXH +3 00000 0 00235
                 VECTOR VALUES COM8=46,$THE FIRST PART WOULD HAVE BEEN O.K. BY      185  LM00261
                1 ITSELF.$                                                          185  LM00262
 00225     +2 54326 3 36060    00226     +2 27060 3 16362    00227     -2 04633 4 23360    00230     +2 56022 2 52545
 00231     -0 32460 3 02165    00232     -1 16360 6 64664    00233     -1 16263 6 04721    00234     -2 33025 6 02631
 00235     +0 00000 0 00056
                 TRANSFER TO ERROR                                                  186  LM00263
 01325 TRA +0 02000 0 00000
                 ENTRY TO ADDCON.                                                   187  LM00268
 01326 TRA +0 02000 0 01331    01327 SXA +0 63400 2 02024    01330 TSX +0 07400 2 02024
                 WHENEVER FORMAT(Y).GE.0,TRANSFER TO ADD(FORMAT(Y))                 188  LM00269
 01331 LXA +0 53400 1 00000    01332 CLA +0 50000 1 00260    01333 SUB +0 40200 0 00305    01334 TZE +0 10000 0 01336
 01335 TMI -0 12000 0 01341    01336 CLA +0 50000 1 00260    01337 PAX +0 73400 2 00000    01340 TRA +0 02000 2 00035
                 DIGITS=-FORMAT(Y)                                                  189  LM00273
 01341 LXA +0 53400 2 00000    01342 CLS +0 50200 2 00260    01343 STO +0 60100 0 00245
                 ANS=X                                                              190  LM00274
 01344 CLA +0 50000 0 00000    01345 STO +0 60100 0 00024
                 WHENEVER ANS.A.4K8.E.0.AND.ANS.NE.0,TRANSFER TO BAD                191  LM00275
 01346 CLA +0 50000 0 00024    01347 SUB +0 40200 0 00305    01350 TZE +0 10000 0 01360    01351 CAL -0 50000 0 00024
 01352 ANA -0 32000 0 00324    01353 SLW +0 60200 0 02102    01354 CLA +0 50000 0 02102    01355 SUB +0 40200 0 00305
 01356 TNZ -0 10000 0 01360    01357 TRA +0 02000 0 00036
                 WHENEVER ANS.L.0                                                   192  LM00277
 01360 CLA +0 50000 0 00024    01361 SUB +0 40200 0 00305    01362 TZE +0 10000 0 01374    01363 TPL +0 12000 0 01374
                 LIST=LIST+1                                                        193  LM00278
 01364 CLA +0 50000 0 77461    01365 ADD +0 40000 0 00306    01366 STO +0 60100 0 77461
                 LIST(LIST)=$-$                                                     194  LM00279
 01367 LXA +0 53400 1 77461    01370 CLA +0 50000 0 00345    01371 STO +0 60100 1 77461
                 ANS=-ANS                                                           195  LM00280
 01372 CLS +0 50200 0 00024    01373 STO +0 60100 0 00024
                 END OF CONDITIONAL                                                 196  LM00281
                 POWER=0                                                            197  LM00283
 01374 CLA +0 50000 0 00305    01375 STO +0 60100 0 00277
                 WHENEVER FLOAT.GE.10..P.(DIGITS+4)                                 198  LM00284
 01376 CLA +0 50000 0 00245    01377 ADD +0 40000 0 00311    01400 XCA +0 13100 0 00000    01401 CLA +0 50000 0 00336
 01402 TSX +0 07400 4 00000    01403 CHS +0 76000 0 00002    01404 ADD +0 40000 0 00024    01405 TZE +0 10000 0 01407
 01406 TMI -0 12000 0 01423
      PPLUS      POWER=POWER+1                                                      199  LM00285
 01407 CLA +0 50000 0 00277    01410 ADD +0 40000 0 00306    01411 STO +0 60100 0 00277
                 FLOAT=FLOAT/10.                                                    200  LM00286
 01412 CLA +0 50000 0 00024    01413 FDP +0 24100 0 00336    01414 STQ -0 60000 0 00024
                 WHENEVER FLOAT.GE.10.,TRANSFER TO PPLUS                            201  LM00287
 01415 CLA +0 50000 0 00024    01416 SUB +0 40200 0 00336    01417 TZE +0 10000 0 01421    01420 TMI -0 12000 0 01422
 01421 TRA +0 02000 0 00060
                 OR WHENEVER FLOAT.E.0.                                             202  LM00288
 01422 TRA +0 02000 0 01476    01423 CLA +0 50000 0 00024    01424 SUB +0 40200 0 00305    01425 TNZ -0 10000 0 01427
                 OR WHENEVER FLOAT.L.0.001                                          203  LM00289
 01426 TRA +0 02000 0 01476    01427 CLA +0 50000 0 00024    01430 SUB +0 40200 0 00332    01431 TZE +0 10000 0 01447
 01432 TPL +0 12000 0 01447
      PMINUS     POWER=POWER-1                                                      204  LM00290
 01433 CLA +0 50000 0 00277    01434 SUB +0 40200 0 00306    01435 STO +0 60100 0 00277
                 FLOAT=FLOAT*10.                                                    205  LM00291
 01436 LDQ +0 56000 0 00024    01437 FMP +0 26000 0 00336    01440 STO +0 60100 0 00024
                 WHENEVER FLOAT.L.1.,TRANSFER TO PMINUS                             206  LM00292
 01441 CLA +0 50000 0 00024    01442 SUB +0 40200 0 00335    01443 TZE +0 10000 0 01446    01444 TPL +0 12000 0 01446
 01445 TRA +0 02000 0 00057
                 OR WHENEVER FLOAT.L.0.01                                           207  LM00293
 01446 TRA +0 02000 0 01476    01447 CLA +0 50000 0 00024    01450 SUB +0 40200 0 00333    01451 TZE +0 10000 0 01457
 01452 TPL +0 12000 0 01457
                 DIGITS=DIGITS+3                                                    208  LM00294
 01453 CLA +0 50000 0 00245    01454 ADD +0 40000 0 00310    01455 STO +0 60100 0 00245
                 OR WHENEVER FLOAT.L.0.1                                            209  LM00295
 01456 TRA +0 02000 0 01476    01457 CLA +0 50000 0 00024    01460 SUB +0 40200 0 00334    01461 TZE +0 10000 0 01467
 01462 TPL +0 12000 0 01467
                 DIGITS=DIGITS+2                                                    210  LM00296
 01463 CLA +0 50000 0 00245    01464 ADD +0 40000 0 00307    01465 STO +0 60100 0 00245
                 OR WHENEVER FLOAT.L.1.                                             211  LM00297
 01466 TRA +0 02000 0 01476    01467 CLA +0 50000 0 00024    01470 SUB +0 40200 0 00335    01471 TZE +0 10000 0 01476
 01472 TPL +0 12000 0 01476
                 DIGITS=DIGITS+1                                                    212  LM00298
 01473 CLA +0 50000 0 00245    01474 ADD +0 40000 0 00306    01475 STO +0 60100 0 00245
                 END OF CONDITIONAL                                                 213  LM00299
                 NUM=FLOAT                                                          214  LM00301
 01476 CLA +0 50000 0 00024    01477 UFA -0 30000 0 00341    01500 ERA +0 32200 0 00341    01501 LLS +0 76300 0 00000
 01502 STO +0 60100 0 00275
                 SAVE=LIST                                                          215  LM00302
 01503 CLA +0 50000 0 77461    01504 STO +0 60100 0 00300
                 ADDNUM.(NUM)                                                       216  LM00303
 01505 TSX +0 07400 4 00003    01506 TXH +3 00000 0 00275
                 DIGITS=DIGITS-LIST+SAVE                                            217  LM00304
 01507 CLA +0 50000 0 00245    01510 SUB +0 40200 0 77461    01511 ADD +0 40000 0 00300    01512 STO +0 60100 0 00245
                 LIST=LIST+1                                                        218  LM00306
 01513 CLA +0 50000 0 77461    01514 ADD +0 40000 0 00306    01515 STO +0 60100 0 77461
                 LIST(LIST)=$.$                                                     219  LM00307
 01516 LXA +0 53400 1 77461    01517 CLA +0 50000 0 00344    01520 STO +0 60100 1 77461
      PLOOP      WHENEVER DIGITS.G.0                                                220  LM00309
 01521 CLA +0 50000 0 00245    01522 SUB +0 40200 0 00305    01523 TZE +0 10000 0 01561    01524 TMI -0 12000 0 01561
                 FLOAT=FLOAT-NUM                                                    221  LM00310
 01525 CLA +0 50000 0 00275    01526 ORA -0 50100 0 00341    01527 FAD +0 30000 0 00341    01530 CHS +0 76000 0 00002
 01531 FAD +0 30000 0 00024    01532 STO +0 60100 0 00024
                 FLOAT=10.*FLOAT                                                    222  LM00311
 01533 LDQ +0 56000 0 00336    01534 FMP +0 26000 0 00024    01535 STO +0 60100 0 00024
                 NUM=FLOAT                                                          223  LM00312
 01536 CLA +0 50000 0 00024    01537 UFA -0 30000 0 00341    01540 ERA +0 32200 0 00341    01541 LLS +0 76300 0 00000
 01542 STO +0 60100 0 00275
                 LIST=LIST+1                                                        224  LM00313
 01543 CLA +0 50000 0 77461    01544 ADD +0 40000 0 00306    01545 STO +0 60100 0 77461
                 LIST(LIST)=(NUM.LS.30).V.$0$                                       225  LM00314
 01546 CAL -0 50000 0 00321    01547 STA +0 62100 0 01551    01550 CAL -0 50000 0 00275    01551 ALS +0 76700 0 00000
 01552 ORA -0 50100 0 00326    01553 LXA +0 53400 1 77461    01554 SLW +0 60200 1 77461
                 DIGITS=DIGITS-1                                                    226  LM00315
 01555 CLA +0 50000 0 00245    01556 SUB +0 40200 0 00306    01557 STO +0 60100 0 00245
                 TRANSFER TO PLOOP                                                  227  LM00316
 01560 TRA +0 02000 0 00056
                 END OF CONDITIONAL                                                 228  LM00317
                 WHENEVER POWER.NE.0                                                229  LM00319
 01561 CLA +0 50000 0 00277    01562 SUB +0 40200 0 00305    01563 TZE +0 10000 0 01574
                 LIST=LIST+1                                                        230  LM00320
 01564 CLA +0 50000 0 77461    01565 ADD +0 40000 0 00306    01566 STO +0 60100 0 77461
                 LIST(LIST)=$E$                                                     231  LM00321
 01567 LXA +0 53400 1 77461    01570 CLA +0 50000 0 00342    01571 STO +0 60100 1 77461
                 ADDNUM.(POWER)                                                     232  LM00322
 01572 TSX +0 07400 4 00003    01573 TXH +3 00000 0 00277
                 END OF CONDITIONAL                                                 233  LM00323
                 FUNCTION RETURN                                                    234  LM00324
 01574 TRA +0 02000 0 02076
      ADD(0)     WHENEVER .ABS.X.GE.1K9,TRANSFER TO ADD(1)                          235  LM00328
 01575 CLA +0 50000 0 00000    01576 SSP +0 76000 0 00003    01577 SUB +0 40200 0 00325    01600 TZE +0 10000 0 01602
 01601 TMI -0 12000 0 01603    01602 TRA +0 02000 0 00034
                 TRANSFER TO ADD(2)                                                 236  LM00329
 01603 TRA +0 02000 0 00033
      ADD(1)     BCD=X                                                              237  LM00333
 01604 CLA +0 50000 0 00000    01605 STO +0 60100 0 00025
                 THROUGH ALLOK, FOR I=0,6,I.E.36                                    238  LM00334
 01606 CLA +0 50000 0 00305    01607 STO +0 60100 0 00263    01610 TRA +0 02000 0 01614    01611 CLA +0 50000 0 00263
 01612 ADD +0 40000 0 00312    01613 STO +0 60100 0 00263    01614 CLA +0 50000 0 00263    01615 SUB +0 40200 0 00322
 01616 TZE +0 10000 0 01636
                 TEST=(BCD.RS.I).A.17K                                              239  LM00335
 01617 CAL -0 50000 0 00263    01620 STA +0 62100 0 01622    01621 CAL -0 50000 0 00025    01622 LGR -0 76500 0 00000
 01623 ANA -0 32000 0 00320    01624 SLW +0 60200 0 00302
      ALLOK      WHENEVER TEST.E.12K.OR.TEST.G.14K,TRANSFER TO BAD                  240  LM00336
 01625 CLA +0 50000 0 00302    01626 SUB +0 40200 0 00317    01627 TZE +0 10000 0 01631    01630 TPL +0 12000 0 01634
 01631 CLA +0 50000 0 00302    01632 SUB +0 40200 0 00316    01633 TNZ -0 10000 0 01635    01634 TRA +0 02000 0 00036
 01635 TRA +0 02000 0 01611
                 LIST=LIST+1                                                        241  LM00337
 01636 CLA +0 50000 0 77461    01637 ADD +0 40000 0 00306    01640 STO +0 60100 0 77461
                 LIST(LIST)=DS                                                      242  LM00338
 01641 LXA +0 53400 1 77461    01642 CLA +0 50000 0 00246    01643 STO +0 60100 1 77461
                 MIN=LIST+1                                                         243  LM00339
 01644 CLA +0 50000 0 77461    01645 ADD +0 40000 0 00306    01646 STO +0 60100 0 00264
                 ADDCOM.(BCDCOM)                                                    244  LM00340
 01647 TSX +0 07400 4 00001    01650 TXH +3 00000 0 00026
      SUB        THROUGH SUB,FOR LIST=LIST,-1,LIST(LIST).NE.$ $.OR.LIST.E.MIN       245  LM00341
 01651 CLA +0 50000 0 77461    01652 STO +0 60100 0 77461    01653 TRA +0 02000 0 01657    01654 CLS +0 50200 0 00306
 01655 ADD +0 40000 0 77461    01656 STO +0 60100 0 77461    01657 CLA +0 50000 0 77461    01660 SUB +0 40200 0 00264
 01661 TZE +0 10000 0 01667    01662 LXA +0 53400 1 77461    01663 CLA +0 50000 1 77461    01664 SUB +0 40200 0 00347
 01665 TNZ -0 10000 0 01667    01666 TRA +0 02000 0 01654
                 LIST=LIST+1                                                        246  LM00342
 01667 CLA +0 50000 0 77461    01670 ADD +0 40000 0 00306    01671 STO +0 60100 0 77461
                 LIST(LIST)=DS                                                      247  LM00343
 01672 LXA +0 53400 1 77461    01673 CLA +0 50000 0 00246    01674 STO +0 60100 1 77461
                 FUNCTION RETURN                                                    248  LM00344
 01675 TRA +0 02000 0 02076
      ADD(2)     INT=X                                                              249  LM00348
 01676 CLA +0 50000 0 00000    01677 STO +0 60100 0 00262
                 ADDNUM.(INT)                                                       250  LM00349
 01700 TSX +0 07400 4 00003    01701 TXH +3 00000 0 00262
                 FUNCTION RETURN                                                    251  LM00350
 01702 TRA +0 02000 0 02076
      BAD        ADDCOM.(COM13)                                                     252  LM00354
 01703 TSX +0 07400 4 00001    01704 TXH +3 00000 0 00115
                 VECTOR VALUES COM13=2,$X $                                         253  LM00355
 00114     -2 76060 6 06060    00115     +0 00000 0 00002
      ADD(3)     ADDOCT.(X)                                                         254  LM00359
 01705 TSX +0 07400 4 00004    01706 TXH +3 00000 0 00000
                 LIST=LIST+1                                                        255  LM00360
 01707 CLA +0 50000 0 77461    01710 ADD +0 40000 0 00306    01711 STO +0 60100 0 77461
                 LIST(LIST)=$K$                                                     256  LM00361
 01712 LXA +0 53400 1 77461    01713 CLA +0 50000 0 00346    01714 STO +0 60100 1 77461
                 FUNCTION RETURN                                                    257  LM00362
 01715 TRA +0 02000 0 02076
      ADD(4)     BOOL=X                                                             258  LM00366
 01716 CLA +0 50000 0 00000    01717 STO +0 60100 0 00062
                 WHENEVER BOOL.NE.0.AND.BOOL.NE.1,TRANSFER TO BAD                   259  LM00367
 01720 CLA +0 50000 0 00062    01721 SUB +0 40200 0 00306    01722 TZE +0 10000 0 01727    01723 CLA +0 50000 0 00062
 01724 SUB +0 40200 0 00305    01725 TZE +0 10000 0 01727    01726 TRA +0 02000 0 00036
                 LIST=LIST+1                                                        260  LM00368
 01727 CLA +0 50000 0 77461    01730 ADD +0 40000 0 00306    01731 STO +0 60100 0 77461
                 LIST(LIST)=(BOOL.LS.30).V.$0$                                      261  LM00369
 01732 CAL -0 50000 0 00321    01733 STA +0 62100 0 01735    01734 CAL -0 50000 0 00062    01735 ALS +0 76700 0 00000
 01736 ORA -0 50100 0 00326    01737 LXA +0 53400 1 77461    01740 SLW +0 60200 1 77461
                 LIST=LIST+1                                                        262  LM00370
 01741 CLA +0 50000 0 77461    01742 ADD +0 40000 0 00306    01743 STO +0 60100 0 77461
                 LIST(LIST)=$B$                                                     263  LM00371
 01744 LXA +0 53400 1 77461    01745 CLA +0 50000 0 00340    01746 STO +0 60100 1 77461
                 FUNCTION RETURN                                                    264  LM00372
 01747 TRA +0 02000 0 02076
      ADD(5)     NUM=X                                                              265  LM00376
 01750 CLA +0 50000 0 00000    01751 STO +0 60100 0 00275
                 FOO=NUM.A.7K11                                                     266  LM00377
 01752 CAL -0 50000 0 00275    01753 ANA -0 32000 0 00350    01754 SLW +0 60200 0 00247
                 WHENEVER FOO.NE.TXL,TRANSFER TO BAD                                267  LM00378
 01755 CLA +0 50000 0 00247    01756 SUB +0 40200 0 00304    01757 TZE +0 10000 0 01761    01760 TRA +0 02000 0 00036
                 ADDSL.(SNNAM.(NUM.A.77777K))                                       268  LM00379
 01761 CAL -0 50000 0 00275    01762 ANA -0 32000 0 00323    01763 SLW +0 60200 0 02102    01764 TSX +0 07400 4 00022
 01765 TXH +3 00000 0 02102    01766 STO +0 60100 0 02102    01767 TSX +0 07400 4 00005    01770 TXH +3 00000 0 02102
                 FUNCTION RETURN                                                    269  LM00380
 01771 TRA +0 02000 0 02076
      ADD(6)     NUM=X                                                              270  LM00384
 01772 CLA +0 50000 0 00000    01773 STO +0 60100 0 00275
                 WHENEVER NUM.A.7777777K5.NE.TTR,TRANSFER TO BAD                    271  LM00385
 01774 CAL -0 50000 0 00275    01775 ANA -0 32000 0 00352    01776 SLW +0 60200 0 02102    01777 CLA +0 50000 0 02102
 02000 SUB +0 40200 0 00303    02001 TZE +0 10000 0 02003    02002 TRA +0 02000 0 00036
                 NAME=ENAME.(NUM)                                                   272  LM00386
 02003 TSX +0 07400 4 00010    02004 TXH +3 00000 0 00275    02005 STO +0 60100 0 00265
                 WHENEVER NAME.E.0,TRANSFER TO BAD                                  273  LM00387
 02006 CLA +0 50000 0 00265    02007 SUB +0 40200 0 00305    02010 TNZ -0 10000 0 02012    02011 TRA +0 02000 0 00036
                 ADDNAM.(NAME)                                                      274  LM00388
 02012 TSX +0 07400 4 00002    02013 TXH +3 00000 0 00265
                 LIST=LIST+1                                                        275  LM00389
 02014 CLA +0 50000 0 77461    02015 ADD +0 40000 0 00306    02016 STO +0 60100 0 77461
                 LIST(LIST)=$.$                                                     276  LM00390
 02017 LXA +0 53400 1 77461    02020 CLA +0 50000 0 00344    02021 STO +0 60100 1 77461
                 FUNCTION RETURN                                                    277  LM00391
 02022 TRA +0 02000 0 02076
                 END OF FUNCTION                                                    278  LM00393
 02023 TSX +0 07400 4 00012    02024 TXH +3 00000 0 00000    02025 SXD -0 63400 1 02024    02026 SXA +0 63400 4 02076
 02027 CLA +0 50000 4 00001    02030 STA +0 62100 0 00356    02031 STA +0 62100 0 00362    02032 STO +0 60100 0 00373
 02033 STA +0 62100 0 00425    02034 STA +0 62100 0 00447    02035 STA +0 62100 0 00643    02036 STA +0 62100 0 00737
 02037 STO +0 60100 0 01017    02040 STA +0 62100 0 01205    02041 STA +0 62100 0 01235    02042 STA +0 62100 0 01252
 02043 STA +0 62100 0 01311    02044 STA +0 62100 0 01344    02045 STA +0 62100 0 01575    02046 STA +0 62100 0 01604
 02047 STA +0 62100 0 01676    02050 STO +0 60100 0 01706    02051 STA +0 62100 0 01716    02052 STA +0 62100 0 01750
 02053 STA +0 62100 0 01772    02054 CLA +0 50000 4 00002    02055 STA +0 62100 0 00475    02056 STA +0 62100 0 01331
 02057 STA +0 62100 0 01341    02060 CLA +0 50000 4 00003    02061 STA +0 62100 0 00647    02062 STA +0 62100 0 01012
 02063 STA +0 62100 0 01015    02064 STA +0 62100 0 01024    02065 STA +0 62100 0 01135    02066 STA +0 62100 0 01176
 02067 STA +0 62100 0 01227    02070 STO +0 60100 0 01244    02071 STA +0 62100 0 01265    02072 STA +0 62100 0 01306
 02073 STA +0 62100 0 01315    02074 STA +0 62100 0 01325    02075 TRA +0 02000 2 00001    02076 AXT +0 77400 4 00000
 02077 LXA +0 53400 2 02024    02100 LXD -0 53400 1 02024    02101 TRA +0 02000 4 00001
1     MAD PROGRAM LISTING ... ... ...                 FILE       E   MAD            02/07/68    1959.2
-
                  EXTERNAL FUNCTION                                                               *001 LM00001
                  NORMAL MODE IS INTEGER                                                          *002 LM00002
                  PROGRAM COMMON LIST(84),MAX,FROM(20)                                            *003 LM00003
                                                                                                       LM00004
                 EXECUTE A CTSS COMAND                                                                 LM00005
                                                                                                       LM00006
                  ENTRY TO E.                                                                     *004 LM00007
                  ARGBCD.(19)                                                                     *005 LM00008
                                                                                                       LM00009
                  THROUGH A,FOR I=1,1,I.G.MAX                                                     *006 LM00010
      A           RTJUST.(FROM(I))                                                                *007 LM00011
                                                                                                       LM00012
                  FROM(MAX+1)=777777777777K                                                       *008 LM00013
                  XEQ.(1,FROM(1))                                                                 *009 LM00014
                  READY.                                                                          *010 LM00015
                                                                                                       LM00016
                  END OF FUNCTION                                                                 *011 LM00017
1MAD PROGRAM,TYPE NOV 1963      (ALL NUMBERS ARE OCTAL)
0TOTAL LOCATIONS   00065 TRANSFER VECTOR LENGTH  00005 PROGRAM BEGINS    00013 FIRST UNUSED COMMON/ERASABLE  77306
0 PROGRAM IS AN EXTERNAL FUNCTION.   THE FOLLOWING ARE ENTRIES
      E      00014   0
0VARIABLE STORAGE (A=ARRAY,C=COMMON,E=ERASABLE,DIGIT=MODE)
      A      00005   4        FROM   77333 AC1        I      00006   1        LIST   77461 AC1        MAX    77334  C1
0FUNCTION DICTIONARY
      ARGBCD 00000   1        EXIT   00001   1        READY  00002   1        RTJUST 00003   1        XEQ    00004   1
0ABSOLUTE CONSTANTS
 00012 -377777777777     00010 +000000000023     00007 +000000000001     00011 +233000000000
0PROGRAM
                 EXTERNAL FUNCTION                                                  001  LM00001
                 NORMAL MODE IS INTEGER                                             002  LM00002
                 PROGRAM COMMON LIST(84),MAX,FROM(20)                               003  LM00003
                 ENTRY TO E.                                                        004  LM00007
 00013 TRA +0 02000 0 00016    00014 SXA +0 63400 2 00053    00015 TSX +0 07400 2 00053
                 ARGBCD.(19)                                                        005  LM00008
 00016 TSX +0 07400 4 00000    00017 TXH +3 00000 0 00010
                 THROUGH A,FOR I=1,1,I.G.MAX                                        006  LM00010
 00020 CLA +0 50000 0 00007    00021 STO +0 60100 0 00006    00022 TRA +0 02000 0 00026    00023 CLA +0 50000 0 00006
 00024 ADD +0 40000 0 00007    00025 STO +0 60100 0 00006    00026 CLA +0 50000 0 00006    00027 SUB +0 40200 0 77334
 00030 TZE +0 10000 0 00032    00031 TPL +0 12000 0 00041
      A          RTJUST.(FROM(I))                                                   007  LM00011
 00032 CLA +0 50000 0 00006    00033 SUB +0 40200 0 00034    00034 TXH +3 00000 0 77333    00035 STA +0 62100 0 00037
 00036 TSX +0 07400 4 00003    00037 TXH +3 00000 0 00000    00040 TRA +0 02000 0 00023
                 FROM(MAX+1)=777777777777K                                          008  LM00013
 00041 CLA +0 50000 0 77334    00042 ADD +0 40000 0 00007    00043 PAX +0 73400 1 00000    00044 CLA +0 50000 0 00012
 00045 STO +0 60100 1 77333
                 XEQ.(1,FROM(1))                                                    009  LM00014
 00046 TSX +0 07400 4 00004    00047 TXH +3 00000 0 00007    00050 TXH +3 00000 0 77332
                 READY.                                                             010  LM00015
 00051 TSX +0 07400 4 00002
                 END OF FUNCTION                                                    011  LM00017
 00052 TSX +0 07400 4 00001    00053 TXH +3 00000 0 00000    00054 SXD -0 63400 1 00053    00055 SXA +0 63400 4 00057
 00056 TRA +0 02000 2 00001    00057 AXT +0 77400 4 00000    00060 LXA +0 53400 2 00053    00061 LXD -0 53400 1 00053
 00062 TRA +0 02000 4 00001
1     MAD PROGRAM LISTING ... ... ...                 FILE    EDIT   MAD            02/07/68    1959.3
-
                  EXTERNAL FUNCTION                                                               *001 LM00001
                  NORMAL MODE IS INTEGER                                                          *002 LM00002
                  BOOLEAN TRUNC,CFLAG,DIFF,OCCUR,WSEEK,WCHANG                                     *003 LM00003
                  PROGRAM COMMON LIST(84),MAX,FROM(20),TO(20)                                     *004 LM00004
                1 ,FSUB(20),TSUB(20),USES(60)                                                     *004 LM00005
                  DIMENSION BUFF(72),LIST1(84)                                                    *005 LM00006
                  VECTOR VALUES TAB=726060606060K                                                 *006 LM00007
                  VECTOR VALUES CR=556060606060K                                                  *007 LM00008
                  VECTOR VALUES BSS=$******   BSS$                                                *008 LM00009
                  VECTOR VALUES BCD=$******   BCD$                                                *009 LM00010
                  VECTOR VALUES SYMTAB=$******SYMTAB$                                             *010 LM00011
                  VECTOR VALUES MAD=$******   MAD$                                                *011 LM00012
                                                                                                       LM00013
                 LIST CARDS OF SYMBOLIC PROGRAM                                                        LM00014
                                                                                                       LM00015
                  ENTRY TO P.                                                                     *012 LM00016
                  ARGSL.                                                                          *013 LM00017
                                                                                                       LM00018
                  WHENEVER TO(1).E.0                                                              *014 LM00019
                  LASCRD.(SIZE)                                                                   *015 LM00020
                  WHENEVER SIZE.E.0                                                               *016 LM00021
                  GWORK.(WORK)                                                                    *017 LM00022
                  LIST=0                                                                          *018 LM00023
                  ADDNAM.(WORK)                                                                   *019 LM00024
                  ADDCOM.(COMNO)                                                                  *020 LM00025
                  VECTOR VALUES COMNO=16,$ DOES NOT EXIST.$                                       *021 LM00026
                  CRTYPE.                                                                         *022 LM00027
                  READY.                                                                          *023 LM00028
                  END OF CONDITIONAL                                                              *024 LM00029
                  END OF CONDITIONAL                                                              *025 LM00030
                                                                                                       LM00031
                  INTGO.(READY.)                                                                  *026 LM00032
                  THROUGH LLOOP, FOR I=1,1,I.G.MAX                                                *027 LM00033
                  THROUGH LLOOP1, FOR J=FROM(I),1,J.G.TO(I)                                       *028 LM00034
                  CRD.(J,BUFF)                                                                    *029 LM00035
                  EXPBUF.                                                                         *030 LM00036
                  LIST=0                                                                          *031 LM00037
                                                                                                       LM00038
      LBACK       THROUGH LBACK,FOR K=10,-1,K.E.0.OR.BUFF(K).NE.$ $                               *032 LM00039
                  WHENEVER L.NE.0                                                                 *033 LM00040
                  THROUGH LADD,FOR L=1,1,L.G.K                                                    *034 LM00041
                  LIST=LIST+1                                                                     *035 LM00042
      LADD        LIST(LIST)=BUFF(L)                                                              *036 LM00043
                  END OF CONDITIONAL                                                              *037 LM00044
                                                                                                       LM00045
      LBACK1      THROUGH LBACK1,FOR K=72,-1,K.E.10.OR.BUFF(K).NE.$ $                             *038 LM00046
                  WHENEVER K.NE.10                                                                *039 LM00047
                  LIST=LIST+1                                                                     *040 LM00048
                  LIST(LIST)=TAB                                                                  *041 LM00049
                  THROUGH LADD1,FOR L=11,1,L.G.K                                                  *042 LM00050
                  LIST=LIST+1                                                                     *043 LM00051
      LADD1       LIST(LIST)=BUFF(L)                                                              *044 LM00052
                  END OF CONDITIONAL                                                              *045 LM00053
      LLOOP1      CRTYPE.                                                                         *046 LM00054
      LLOOP       PRINT.(0)                                                                       *047 LM00055
                  INTNO.                                                                          *048 LM00056
                  READY.                                                                          *049 LM00057
                                                                                                       LM00058
                 DELETE CARDS IN SYMBOLIC PROGRAM                                                      LM00059
                                                                                                       LM00060
                  ENTRY TO D.                                                                     *050 LM00061
                  ARGSL.                                                                          *051 LM00062
                  CHANGE.                                                                         *052 LM00063
                  THROUGH DLOOP,FOR I=1,1,I.G.MAX                                                 *053 LM00064
                  DELCRD.(FROM(I),TO(I))                                                          *054 LM00065
      DLOOP       DELFIX.                                                                         *055 LM00066
                  READY.                                                                          *056 LM00067
                                                                                                       LM00068
                 INSERT CARDS IN SYMBOLIC PROGRAM                                                      LM00069
                                                                                                       LM00070
                  ENTRY TO I.                                                                     *057 LM00071
                  ARGSL.                                                                          *058 LM00072
                  CHANGE.                                                                         *059 LM00073
                  DOLINE.(MAX)                                                                    *060 LM00074
                  THROUGH ILOOP, FOR I=1,1,I.G.MAX                                                *061 LM00075
      IAGN        INLINE.(BUFF,ILOOP)                                                             *062 LM00076
                  INSCRD.(FROM(I),BUFF)                                                           *063 LM00077
                  INSFIX.                                                                         *064 LM00078
                  TRANSFER TO IAGN                                                                *065 LM00079
      ILOOP       CONTINUE                                                                        *066 LM00080
                  READY.                                                                          *067 LM00081
                                                                                                       LM00082
                 CHANGE CARDS IN SYMBOLIC PROGRAM                                                      LM00083
                                                                                                       LM00084
                  ENTRY TO C.                                                                     *068 LM00085
                  ARGSL.                                                                          *069 LM00086
                  CHANGE.                                                                         *070 LM00087
                  DOLINE.(MAX)                                                                    *071 LM00088
                  THROUGH CLOOP, FOR I=1,1,I.G.MAX                                                *072 LM00089
                  THROUGH CCH, FOR FROM(I)=FROM(I),1,FROM(I).G.TO(I)                              *073 LM00090
                  INLINE.(BUFF,CDEL)                                                              *074 LM00091
      CCH         SETCRD.(FROM(I),BUFF)                                                           *075 LM00092
                                                                                                       LM00093
      CIAGN       INLINE.(BUFF,CLOOP)                                                             *076 LM00094
                  INSCRD.(FROM(I),BUFF)                                                           *077 LM00095
                  INSFIX.                                                                         *078 LM00096
                  TRANSFER TO CIAGN                                                               *079 LM00097
                                                                                                       LM00098
      CDEL        DELCRD.(FROM(I),TO(I))                                                          *080 LM00099
                  DELFIX.                                                                         *081 LM00100
                                                                                                       LM00101
      CLOOP       CONTINUE                                                                        *082 LM00102
                  READY.                                                                          *083 LM00103
                                                                                                       LM00104
                 APPEND CARDS OR FILES TO SYMBOLIC SUBROUTINE                                          LM00105
                                                                                                       LM00106
                  ENTRY TO A.                                                                     *084 LM00107
                  CHANGE.                                                                         *085 LM00108
                  LASCRD.(APTO)                                                                   *086 LM00109
                  SPACE.                                                                          *087 LM00110
                  WHENEVER LIST(LIST).NE.CR,TRANSFER TO AFILES                                    *088 LM00111
                                                                                                       LM00112
                  DOLINE.(1)                                                                      *089 LM00113
      AAGN        INLINE.(BUFF,AEND)                                                              *090 LM00114
                  APTO=APTO+1                                                                     *091 LM00115
                  INSCRD.(APTO,BUFF)                                                              *092 LM00116
                  TRANSFER TO AAGN                                                                *093 LM00117
                                                                                                       LM00118
      AFILES      LIST=LIST-1                                                                     *094 LM00119
                  ARGBCD.(20)                                                                     *095 LM00120
                                                                                                       LM00121
                  GWORK.(WORK)                                                                    *096 LM00122
                  LTJUST.(WORK)                                                                   *097 LM00123
                  THROUGH ACHECK, FOR I=1,1,I.G.MAX                                               *098 LM00124
                  WHENEVER FROM(I).E.WORK                                                         *099 LM00125
                  WHENEVER WSEEK.($PROG$)                                                         *100 LM00126
                  WHENEVER WCHANG.($PROG$),SWORK.(WORK)                                           *101 LM00127
                  END OF CONDITIONAL                                                              *102 LM00128
                  I=MAX+1                                                                         *103 LM00129
      ACHECK      END OF CONDITIONAL                                                              *104 LM00130
                                                                                                       LM00131
                  THROUGH ASETUP,FOR I=1,1,I.G.MAX                                                *105 LM00132
                  MAD=FROM(I)                                                                     *106 LM00133
                  RTJUST.(MAD)                                                                    *107 LM00134
                  WSETUP.($TEMP$,MAD,0)                                                           *108 LM00135
                  WSIZE.(TSIZE)                                                                   *109 LM00136
                  THROUGH AFLINE,FOR TFROM=0,14,TFROM.GE.TSIZE                                    *110 LM00137
                  WSEEK.($TEMP$)                                                                  *111 LM00138
                  THROUGH AFWORD,FOR K=1,1,K.G.12                                                 *112 LM00139
      AFWORD      BUFF(K)=WGET.(TFROM+K)                                                          *113 LM00140
                  APTO=APTO+1                                                                     *114 LM00141
      AFLINE      INSCRD.(APTO,BUFF)                                                              *115 LM00142
      ASETUP      WDITCH.($TEMP$)                                                                 *116 LM00143
      AEND        READY.                                                                          *117 LM00144
                                                                                                       LM00145
                 MANIPULATE THE CHARACTERS OF A CARD IMAGE                                             LM00146
                                                                                                       LM00147
                  ENTRY TO M.                                                                     *118 LM00148
                  SPACE.                                                                          *119 LM00149
                                                                                                       LM00150
                  WHENEVER LIST(LIST).E.CR,SYNTAX.                                                *120 LM00151
                                                                                                       LM00152
                  QUOTE=LIST(LIST)                                                                *121 LM00153
                  LIST=LIST+1                                                                     *122 LM00154
                  FSTART=LIST                                                                     *123 LM00155
                                                                                                       LM00156
      MLOOP1      WHENEVER LIST(LIST).E.CR,TRANSFER TO NOT3                                       *124 LM00157
                  WHENEVER LIST(LIST).E.QUOTE,TRANSFER TO MLOOP2                                  *125 LM00158
                  LIST=LIST+1                                                                     *126 LM00159
                  TRANSFER TO MLOOP1                                                              *127 LM00160
                                                                                                       LM00161
      MLOOP2      FLAST=LIST-1                                                                    *128 LM00162
                  TSTART=LIST+1                                                                   *129 LM00163
                  LIST=LIST+1                                                                     *130 LM00164
                                                                                                       LM00165
      MLOOP3      WHENEVER LIST(LIST).E.CR                                                        *131 LM00166
      NOT3        LIST=0                                                                          *132 LM00167
                  ADDCOM.(COM1)                                                                   *133 LM00168
                  VECTOR VALUES COM1=21,$THE QUOTE CHARACTER '$                                   *134 LM00169
                  LIST=LIST+1                                                                     *135 LM00170
                  LIST(LIST)=QUOTE                                                                *136 LM00171
                  ADDCOM.(COM2)                                                                   *137 LM00172
                  VECTOR VALUES COM2=39,$' SHOULD OCCUR THREE TIM$,                               *138 LM00173
                1 $ES.  TRY AGAIN.$                                                               *138 LM00174
                  CRTYPE.                                                                         *139 LM00175
                  READY.                                                                          *140 LM00176
                  END OF CONDITIONAL                                                              *141 LM00177
                  WHENEVER LIST(LIST).E.QUOTE,TRANSFER TO MLOOP4                                  *142 LM00178
                  LIST=LIST+1                                                                     *143 LM00179
                  TRANSFER TO MLOOP3                                                              *144 LM00180
                                                                                                       LM00181
      MLOOP4      TLAST=LIST-1                                                                    *145 LM00182
                  LIST=LIST+1                                                                     *146 LM00183
                  WHENEVER LIST(LIST).NE.CR.AND.LIST(LIST).NE.TAB.AND.LIST(LIST                   *147 LM00184
                1 ).NE.$ $                                                                        *147 LM00185
                  LIST=0                                                                          *148 LM00186
                  ADDCOM.(COM5)                                                                   *149 LM00187
                  VECTOR VALUES COM5=38,$THE THIRD USE OF THE QUO$,                               *150 LM00188
                1 $TE CHARACTER '$                                                                *150 LM00189
                  LIST=LIST+1                                                                     *151 LM00190
                  LIST(LIST)=QUOTE                                                                *152 LM00191
                  ADDCOM.(COM3)                                                                   *153 LM00192
                  VECTOR VALUES COM3=44,$' SHOULD END THE FIRST A$,                               *154 LM00193
                1 $RGUMENT.  TRY AGAIN.$                                                          *154 LM00194
                  CRTYPE.                                                                         *155 LM00195
                  READY.                                                                          *156 LM00196
                  END OF CONDITIONAL                                                              *157 LM00197
                                                                                                       LM00198
                  FCOUNT=FLAST-FSTART+1                                                           *158 LM00199
                  TCOUNT=TLAST-TSTART+1                                                           *159 LM00200
                  DELTA=TCOUNT-FCOUNT                                                             *160 LM00201
                                                                                                       LM00202
                  ARGSL.                                                                          *161 LM00203
                                                                                                       LM00204
                  DIFF=1B                                                                         *162 LM00205
                  WHENEVER FCOUNT.NE.TCOUNT,TRANSFER TO MGO                                       *163 LM00206
                  THROUGH MCHECK,FOR I=0,1,I.G.TCOUNT                                             *164 LM00207
      MCHECK      WHENEVER LIST(FSTART+I).NE.LIST(TSTART+I),TRANSFER TO MGO                       *165 LM00208
                  DIFF=0B                                                                         *166 LM00209
                                                                                                       LM00210
      MGO         THROUGH MSAVE,FOR I=1,1,I.G.84                                                  *167 LM00211
      MSAVE       LIST1(I)=LIST(I)                                                                *168 LM00212
                                                                                                       LM00213
                  OCCUR=0B                                                                        *169 LM00214
                  THROUGH MLOOP6,FOR I=1,1,I.G.MAX                                                *170 LM00215
                  THROUGH MLOOP6,FOR J=FROM(I),1,J.G.TO(I)                                        *171 LM00216
                  CRD.(J,BUFF)                                                                    *172 LM00217
                  EXPBUF.                                                                         *173 LM00218
                                                                                                       LM00219
                  CPOINT=1                                                                        *174 LM00220
                  TRUNC=0B                                                                        *175 LM00221
                  CFLAG=0B                                                                        *176 LM00222
      BACK1       FPOINT=FSTART                                                                   *177 LM00223
                  CSTART=CPOINT                                                                   *178 LM00224
                  WHENEVER FCOUNT.E.0,TRANSFER TO MLAB                                            *179 LM00225
      BACK        WHENEVER CPOINT.G.72,TRANSFER TO MDONE                                          *180 LM00226
                  WHENEVER BUFF(CPOINT).NE.LIST1(FPOINT)                                          *181 LM00227
                  CPOINT=CSTART+1                                                                 *182 LM00228
                  TRANSFER TO BACK1                                                               *183 LM00229
                  END OF CONDITIONAL                                                              *184 LM00230
                                                                                                       LM00231
                  WHENEVER FPOINT.L.FLAST                                                         *185 LM00232
                  CPOINT=CPOINT+1                                                                 *186 LM00233
                  FPOINT=FPOINT+1                                                                 *187 LM00234
                  TRANSFER TO BACK                                                                *188 LM00235
                  END OF CONDITIONAL                                                              *189 LM00236
                                                                                                       LM00237
      MLAB        WHENEVER DIFF,CHANGE.                                                           *190 LM00238
                  CFLAG=1B                                                                        *191 LM00239
                  OCCUR=1B                                                                        *192 LM00240
                                                                                                       LM00241
                  WHENEVER CPOINT.LE.10                                                           *193 LM00242
                  FLDEND=10                                                                       *194 LM00243
                  OTHERWISE                                                                       *195 LM00244
                  FLDEND=72                                                                       *196 LM00245
                  END OF CONDITIONAL                                                              *197 LM00246
                                                                                                       LM00247
                  WHENEVER DELTA.E.0                                                              *198 LM00248
                                                                                                       LM00249
                  OR WHENEVER DELTA.G.0                                                           *199 LM00250
      MTRUNC      THROUGH MTRUNC,FOR K=FLDEND,-1,BUFF(K).NE.$ $                                   *200 LM00251
                  WHENEVER FLDEND-K.L.DELTA,TRUNC=1B                                              *201 LM00252
                  THROUGH MMOVER,FOR K=FLDEND,-1,K.L.CSTART+TCOUNT                                *202 LM00253
      MMOVER      BUFF(K)=BUFF(K-DELTA)                                                           *203 LM00254
                                                                                                       LM00255
                  OTHERWISE                                                                       *204 LM00256
                  THROUGH MMOVEL,FOR K=CSTART+TCOUNT,1,K.G.FLDEND                                 *205 LM00257
      MMOVEL      BUFF(K)=BUFF(K-DELTA)                                                           *206 LM00258
                  THROUGH MBLANK,FOR K=DELTA,1,K.E.0                                              *207 LM00259
      MBLANK      BUFF(FLDEND+1+K)=0                                                              *208 LM00260
                  END OF CONDITIONAL                                                              *209 LM00261
                                                                                                       LM00262
                  THROUGH MCOPY,FOR K=0,1,K.E.TCOUNT                                              *210 LM00263
      MCOPY       BUFF(CSTART+K)=LIST1(TSTART+K)                                                  *211 LM00264
                                                                                                       LM00265
                  LIST=0                                                                          *212 LM00266
                  ADDSL.(J)                                                                       *213 LM00267
                  CRTYPE.                                                                         *214 LM00268
                  CPOINT=CSTART+TCOUNT                                                            *215 LM00269
                  WHENEVER FCOUNT.NE.0,TRANSFER TO BACK1                                          *216 LM00270
                                                                                                       LM00271
      MDONE       WHENEVER CFLAG.AND.DIFF                                                         *217 LM00272
                  WHENEVER DELTA.L.0                                                              *218 LM00273
                  THROUGH MFIX,FOR K=1,1,K.G.72                                                   *219 LM00274
      MFIX        WHENEVER BUFF(K).E.0,BUFF(K)=$ $                                                *220 LM00275
                  END OF CONDITIONAL                                                              *221 LM00276
                  CONBUF.                                                                         *222 LM00277
                  SETCRD.(J,BUFF)                                                                 *223 LM00278
                  WHENEVER TRUNC                                                                  *224 LM00279
                  PRINT.(COM6)                                                                    *225 LM00280
                  VECTOR VALUES COM6=12,$CARD CUT TO-$                                            *226 LM00281
                  BUFF=72                                                                         *227 LM00282
                  PRINT.(BUFF)                                                                    *228 LM00283
                  END OF CONDITIONAL                                                              *229 LM00284
                  END OF CONDITIONAL                                                              *230 LM00285
                                                                                                       LM00286
      MLOOP6      CONTINUE                                                                        *231 LM00287
                  WHENEVER OCCUR                                                                  *232 LM00288
                  PRINT.(COM7)                                                                    *233 LM00289
                  VECTOR VALUES COM7=11,$THAT'S ALL.$                                             *234 LM00290
                  OTHERWISE                                                                       *235 LM00291
                  PRINT.(COM8)                                                                    *236 LM00292
                  VECTOR VALUES COM8=5,$NONE.$                                                    *237 LM00293
                  END OF CONDITIONAL                                                              *238 LM00294
                  PRINT.(0)                                                                       *239 LM00295
                  READY.                                                                          *240 LM00296
                                                                                                       LM00297
                 EXPAND 12 WORDS OF BUFF TO 72 WORDS, 1 CHARACTER PER WORD                             LM00298
                                                                                                       LM00299
                  INTERNAL FUNCTION                                                               *241 LM00300
                  ENTRY TO EXPBUF.                                                                *242 LM00301
                  BUFF=72                                                                         *243 LM00302
                  THROUGH EXP,FOR K=12,-1,K.E.0                                                   *244 LM00303
                  BCD=BUFF(K)                                                                     *245 LM00304
                  THROUGH EXP,FOR L=30,-6,L.L.0                                                   *246 LM00305
                  BUFF(BUFF)=(BCD.LS.L).A.77K10.V.$0$                                             *247 LM00306
      EXP         BUFF=BUFF-1                                                                     *248 LM00307
                  FUNCTION RETURN                                                                 *249 LM00308
                  END OF FUNCTION                                                                 *250 LM00309
                                                                                                       LM00310
                                                                                                       LM00311
                 CONTRACT 72 WORDS OF BUFF TO 12 WORDS                                                 LM00312
                                                                                                       LM00313
                  INTERNAL FUNCTION                                                               *251 LM00314
                  ENTRY TO CONBUF.                                                                *252 LM00315
                  BUFF=1                                                                          *253 LM00316
                  THROUGH CON,FOR K=1,1,K.G.12                                                    *254 LM00317
                  BCD=0                                                                           *255 LM00318
                  THROUGH CON1,FOR L=0,6,L.G.30                                                   *256 LM00319
                  BCD=(BUFF(BUFF).A.77K10).RS.L.V.BCD                                             *257 LM00320
      CON1        BUFF=BUFF+1                                                                     *258 LM00321
      CON         BUFF(K)=BCD                                                                     *259 LM00322
                  FUNCTION RETURN                                                                 *260 LM00323
                  END OF FUNCTION                                                                 *261 LM00324
                                                                                                       LM00325
                 CORRECT ARGUMENTS FOR DELETED CARDS                                                   LM00326
                                                                                                       LM00327
                  INTERNAL FUNCTION                                                               *262 LM00328
                  ENTRY TO DELFIX.                                                                *263 LM00329
                  THROUGH DF, FOR J=I+1,1,J.G.MAX                                                 *264 LM00330
                                                                                                       LM00331
                  WHENEVER TO(J).GE.TO(I)                                                         *265 LM00332
                  TO(J)=TO(J)-(TO(I)-FROM(I)+1)                                                   *266 LM00333
                  OR WHENEVER TO(J).GE.FROM(I)                                                    *267 LM00334
                  TO(J)=FROM(I)-1                                                                 *268 LM00335
                  END OF CONDITIONAL                                                              *269 LM00336
                                                                                                       LM00337
                  WHENEVER FROM(J).G.TO(I)                                                        *270 LM00338
                  FROM(J)=FROM(J)-(TO(I)-FROM(I)+1)                                               *271 LM00339
                  OR WHENEVER FROM(J).GE.FROM(I)                                                  *272 LM00340
                  FROM(J)=FROM(I)                                                                 *273 LM00341
      DF          END OF CONDITIONAL                                                              *274 LM00342
                                                                                                       LM00343
                  FUNCTION RETURN                                                                 *275 LM00344
                  END OF FUNCTION                                                                 *276 LM00345
                                                                                                       LM00346
                 CORRECT ARGUMENTS FOR INSERTED CARDS                                                  LM00347
                                                                                                       LM00348
                  INTERNAL FUNCTION                                                               *277 LM00349
                  ENTRY TO INSFIX.                                                                *278 LM00350
                  IBEFOR=FROM(I)                                                                  *279 LM00351
                  THROUGH IF, FOR J=I,1,J.G.MAX                                                   *280 LM00352
                                                                                                       LM00353
                  WHENEVER FROM(J).GE.IBEFOR                                                      *281 LM00354
                  FROM(J)=FROM(J)+1                                                               *282 LM00355
                  TO(J)=TO(J)+1                                                                   *283 LM00356
                  OR WHENEVER TO(J).GE.IBEFOR                                                     *284 LM00357
                  TO(J)=TO(J)+1                                                                   *285 LM00358
      IF          END OF CONDITIONAL                                                              *286 LM00359
                                                                                                       LM00360
                  FUNCTION RETURN                                                                 *287 LM00361
                  END OF FUNCTION                                                                 *288 LM00362
                                                                                                       LM00363
                 CORE IMAGES ARE OBSOLETE                                                              LM00364
                 COMPILATION IS OBSOLETE                                                               LM00365
                                                                                                       LM00366
                  INTERNAL FUNCTION                                                               *289 LM00367
                  ENTRY TO CHANGE.                                                                *290 LM00368
                  GWORK.(BSS)                                                                     *291 LM00369
                  THROUGH CHLOOP,FOR CHI=1,1,CHI.G.USES(0)                                        *292 LM00370
      CHLOOP      WHENEVER USES(CHI).E.BSS,UNLOAD.                                                *293 LM00371
                  SYMTAB=BSS                                                                      *294 LM00372
                  BCD=BSS                                                                         *295 LM00373
                  WHENEVER FSTAT.(BSS).NE.0,DELETE.(BSS)                                          *296 LM00374
                  WHENEVER FSTAT.(BCD).NE.0,DELETE.(BCD)                                          *297 LM00375
                  WHENEVER FSTAT.(SYMTAB).NE.0,DELETE.(SYMTAB)                                    *298 LM00376
                  FUNCTION RETURN                                                                 *299 LM00377
                  END OF FUNCTION                                                                 *300 LM00378
                  END OF FUNCTION                                                                 *301 LM00379
1MAD PROGRAM,TYPE NOV 1963      (ALL NUMBERS ARE OCTAL)
0TOTAL LOCATIONS   02556 TRANSFER VECTOR LENGTH  00041 PROGRAM BEGINS    00467 FIRST UNUSED COMMON/ERASABLE  77112
0 PROGRAM IS AN EXTERNAL FUNCTION.   THE FOLLOWING ARE ENTRIES
      M      01271   0        A      01100   0        C      00773   0        I      00734   0        D      00677   0
      P      00470   0
0VARIABLE STORAGE (A=ARRAY,C=COMMON,E=ERASABLE,DIGIT=MODE)
      AAGN   00047   4        CLOOP  00056   4        FCOUNT 00270   1        LIST   77461 AC1        MMOVER 00046   4
      ACHECK 00046   4        COM1   00215 A 1        FLAST  00271   1        LLOOP1 00046   4        MSAVE  00046   4
      AEND   00050   4        COM2   00225 A 1        FLDEND 00272   1        LLOOP  00046   4        MTRUNC 00046   4
      AFILES 00051   4        COM3   00236 A 1        FPOINT 00273   1        L      00426   1        NOT3   00070   4
      AFLINE 00046   4        COM5   00246 A 1        FROM   77333 AC1        MAD    00430 A 1        OCCUR  00431   2
      AFWORD 00046   4        COM6   00251 A 1        FSTART 00274   1        MAX    77334  C1        QUOTE  00432   1
      APTO   00071   1        COM7   00254 A 1        FSUB   77261 AC1        MBLANK 00046   4        SIZE   00433   1
      ASETUP 00046   4        COM8   00256 A 1        IAGN   00057   4        MCHECK 00046   4        SYMTAB 00435 A 1
      BACK1  00052   4        COMNO  00262 A 1        IBEFOR 00275   1        MCOPY  00046   4        TAB    00436 A 1
      BACK   00053   4        CON1   00046   4        IF     00046   4        MDONE  00061   4        TCOUNT 00437   1
      BCD    00073 A 1        CON    00046   4        ILOOP  00060   4        MFIX   00046   4        TFROM  00440   1
      BSS    00075 A 1        CPOINT 00263   1        I      00276   1        MGO    00062   4        TLAST  00441   1
      BUFF   00206 A 1        CR     00264 A 1        J      00277   1        MLAB   00063   4        TO     77306 AC1
      CCH    00046   4        CSTART 00265   1        K      00300   1        MLOOP1 00064   4        TRUNC  00442   2
      CDEL   00054   4        DELTA  00266   1        LADD1  00046   4        MLOOP2 00065   4        TSIZE  00443   1
      CFLAG  00207   2        DF     00046   4        LADD   00046   4        MLOOP3 00066   4        TSTART 00444   1
      CHI    00210   1        DIFF   00267   2        LBACK1 00046   4        MLOOP4 00067   4        TSUB   77234 AC1
      CHLOOP 00046   4        DLOOP  00046   4        LBACK  00046   4        MLOOP6 00046   4        USES   77207 AC1
      CIAGN  00055   4        EXP    00046   4        LIST1  00425 A 1        MMOVEL 00046   4        WORK   00445   1
0FUNCTION DICTIONARY
      ADDCOM 00000   1        ADDNAM 00001   1        ADDSL  00002   1        ARGBCD 00003   1        ARGSL  00004   1
      CRD    00005   1        CRTYPE 00006   1        DELCRD 00007   1        DELETE 00010   1        DOLINE 00011   1
      EXIT   00012   1        FSTAT  00013   1        GWORK  00014   1        INLINE 00015   1        INSCRD 00016   1
      INTGO  00017   1        INTNO  00020   1        LASCRD 00021   1        LTJUST 00022   1        PRINT  00023   1
      READY  00024   1        RTJUST 00025   1        SETCRD 00026   1        SPACE  00027   1        SWORK  00030   1
      SYNTAX 00031   1        UNLOAD 00032   1        WCHANG 00033   2        WDITCH 00034   1        WGET   00035   1
      WSEEK  00036   2        WSETUP 00037   1        WSIZE  00040   1        CHANGE 00041   1        CONBUF 00042   1
      DELFIX 00043   1        EXPBUF 00044   1        INSFIX 00045   1
0ABSOLUTE CONSTANTS
 00461 +006060606060     00466 -370000000000     00450 +000000000006     00456 +000000000036     00460 +000000000124
 00453 +000000000014     00454 +000000000016     00465 -232544476060     00463 -075146276060     00455 +000000000024
 00452 +000000000013     00457 +000000000110     00464 -206060606060     00451 +000000000012     00446 +000000000000
 00447 +000000000001     00462 +233000000000
0STATEMENT DICTIONARY
 00047 TXL -301120001115       00050 TXL -301270001267       00051 TXL -301132001127       00052 TXL -301566001564
 00053 TXL -301601001574       00054 TXL -301074001061       00055 TXL -301050001045       00056 TXL -301076001075
 00057 TXL -300757000754       00060 TXL -300771000770       00061 TXL -302030002024       00062 TXL -301515001503
 00063 TXL -301630001625       00064 TXL -301316001311       00065 TXL -301332001327       00066 TXL -301344001340
 00067 TXL -301376001373       00070 TXL -301346001344
0PROGRAM
                 EXTERNAL FUNCTION                                                  001  LM00001
                 NORMAL MODE IS INTEGER                                             002  LM00002
                 BOOLEAN TRUNC,CFLAG,DIFF,OCCUR,WSEEK,WCHANG                        003  LM00003
                 PROGRAM COMMON LIST(84),MAX,FROM(20),TO(20)                        004  LM00004
                1,FSUB(20),TSUB(20),USES(60)                                        004  LM00005
                 DIMENSION BUFF(72),LIST1(84)                                       005  LM00006
                 VECTOR VALUES TAB=726060606060K                                    006  LM00007
 00436     -3 26060 6 06060
                 VECTOR VALUES CR=556060606060K                                     007  LM00008
 00264     -1 56060 6 06060
                 VECTOR VALUES BSS=$******   BSS$                                   008  LM00009
 00074     -2 06060 2 26262    00075     -1 45454 5 45454
                 VECTOR VALUES BCD=$******   BCD$                                   009  LM00010
 00072     -2 06060 2 22324    00073     -1 45454 5 45454
                 VECTOR VALUES SYMTAB=$******SYMTAB$                                010  LM00011
 00434     -2 27044 6 32122    00435     -1 45454 5 45454
                 VECTOR VALUES MAD=$******   MAD$                                   011  LM00012
 00427     -2 06060 4 42124    00430     -1 45454 5 45454
                 ENTRY TO P.                                                        012  LM00016
 00467 TRA +0 02000 0 00472    00470 SXA +0 63400 2 02543    00471 TSX +0 07400 2 02543
                 ARGSL.                                                             013  LM00017
 00472 TSX +0 07400 4 00004
                 WHENEVER TO(1).E.0                                                 014  LM00019
 00473 CLA +0 50000 0 77305    00474 SUB +0 40200 0 00446    00475 TNZ -0 10000 0 00515
                 LASCRD.(SIZE)                                                      015  LM00020
 00476 TSX +0 07400 4 00021    00477 TXH +3 00000 0 00433
                 WHENEVER SIZE.E.0                                                  016  LM00021
 00500 CLA +0 50000 0 00433    00501 SUB +0 40200 0 00446    00502 TNZ -0 10000 0 00515
                 GWORK.(WORK)                                                       017  LM00022
 00503 TSX +0 07400 4 00014    00504 TXH +3 00000 0 00445
                 LIST=0                                                             018  LM00023
 00505 CLA +0 50000 0 00446    00506 STO +0 60100 0 77461
                 ADDNAM.(WORK)                                                      019  LM00024
 00507 TSX +0 07400 4 00001    00510 TXH +3 00000 0 00445
                 ADDCOM.(COMNO)                                                     020  LM00025
 00511 TSX +0 07400 4 00000    00512 TXH +3 00000 0 00262
                 VECTOR VALUES COMNO=16,$ DOES NOT EXIST.$                          021  LM00026
 00257     +3 16263 3 36060    00260     -0 54663 6 02567    00261     -2 02446 2 56260    00262     +0 00000 0 00020
                 CRTYPE.                                                            022  LM00027
 00513 TSX +0 07400 4 00006
                 READY.                                                             023  LM00028
 00514 TSX +0 07400 4 00024
                 END OF CONDITIONAL                                                 024  LM00029
                 END OF CONDITIONAL                                                 025  LM00030
                 INTGO.(READY.)                                                     026  LM00032
 00515 TSX +0 07400 4 00017    00516 TXH +3 00000 0 00024
                 THROUGH LLOOP, FOR I=1,1,I.G.MAX                                   027  LM00033
 00517 CLA +0 50000 0 00447    00520 STO +0 60100 0 00276    00521 TRA +0 02000 0 00525    00522 CLA +0 50000 0 00276
 00523 ADD +0 40000 0 00447    00524 STO +0 60100 0 00276    00525 CLA +0 50000 0 00276    00526 SUB +0 40200 0 77334
 00527 TZE +0 10000 0 00531    00530 TPL +0 12000 0 00674
                 THROUGH LLOOP1, FOR J=FROM(I),1,J.G.TO(I)                          028  LM00034
 00531 LXA +0 53400 2 00276    00532 CLA +0 50000 2 77333    00533 STO +0 60100 0 00277    00534 TRA +0 02000 0 00540
 00535 CLA +0 50000 0 00277    00536 ADD +0 40000 0 00447    00537 STO +0 60100 0 00277    00540 LXA +0 53400 2 00276
 00541 CLA +0 50000 0 00277    00542 SUB +0 40200 2 77306    00543 TZE +0 10000 0 00545    00544 TPL +0 12000 0 00671
                 CRD.(J,BUFF)                                                       029  LM00035
 00545 TSX +0 07400 4 00005    00546 TXH +3 00000 0 00277    00547 TXH +3 00000 0 00206
                 EXPBUF.                                                            030  LM00036
 00550 TSX +0 07400 4 00044
                 LIST=0                                                             031  LM00037
 00551 CLA +0 50000 0 00446    00552 STO +0 60100 0 77461
      LBACK      THROUGH LBACK,FOR K=10,-1,K.E.0.OR.BUFF(K).NE.$ $                  032  LM00039
 00553 CLA +0 50000 0 00451    00554 STO +0 60100 0 00300    00555 TRA +0 02000 0 00561    00556 CLS +0 50200 0 00447
 00557 ADD +0 40000 0 00300    00560 STO +0 60100 0 00300    00561 LXA +0 53400 1 00300    00562 CLA +0 50000 1 00206
 00563 SUB +0 40200 0 00464    00564 TNZ -0 10000 0 00571    00565 CLA +0 50000 0 00300    00566 SUB +0 40200 0 00446
 00567 TZE +0 10000 0 00571    00570 TRA +0 02000 0 00556
                 WHENEVER L.NE.0                                                    033  LM00040
 00571 CLA +0 50000 0 00426    00572 SUB +0 40200 0 00446    00573 TZE +0 10000 0 00616
                 THROUGH LADD,FOR L=1,1,L.G.K                                       034  LM00041
 00574 CLA +0 50000 0 00447    00575 STO +0 60100 0 00426    00576 TRA +0 02000 0 00602    00577 CLA +0 50000 0 00426
 00600 ADD +0 40000 0 00447    00601 STO +0 60100 0 00426    00602 CLA +0 50000 0 00426    00603 SUB +0 40200 0 00300
 00604 TZE +0 10000 0 00606    00605 TPL +0 12000 0 00616
                 LIST=LIST+1                                                        035  LM00042
 00606 CLA +0 50000 0 77461    00607 ADD +0 40000 0 00447    00610 STO +0 60100 0 77461
      LADD       LIST(LIST)=BUFF(L)                                                 036  LM00043
 00611 LXA +0 53400 1 77461    00612 LXA +0 53400 2 00426    00613 CLA +0 50000 2 00206    00614 STO +0 60100 1 77461
 00615 TRA +0 02000 0 00577
                 END OF CONDITIONAL                                                 037  LM00044
      LBACK1     THROUGH LBACK1,FOR K=72,-1,K.E.10.OR.BUFF(K).NE.$ $                038  LM00046
 00616 CLA +0 50000 0 00457    00617 STO +0 60100 0 00300    00620 TRA +0 02000 0 00624    00621 CLS +0 50200 0 00447
 00622 ADD +0 40000 0 00300    00623 STO +0 60100 0 00300    00624 LXA +0 53400 1 00300    00625 CLA +0 50000 1 00206
 00626 SUB +0 40200 0 00464    00627 TNZ -0 10000 0 00634    00630 CLA +0 50000 0 00300    00631 SUB +0 40200 0 00451
 00632 TZE +0 10000 0 00634    00633 TRA +0 02000 0 00621
                 WHENEVER K.NE.10                                                   039  LM00047
 00634 CLA +0 50000 0 00300    00635 SUB +0 40200 0 00451    00636 TZE +0 10000 0 00667
                 LIST=LIST+1                                                        040  LM00048
 00637 CLA +0 50000 0 77461    00640 ADD +0 40000 0 00447    00641 STO +0 60100 0 77461
                 LIST(LIST)=TAB                                                     041  LM00049
 00642 LXA +0 53400 1 77461    00643 CLA +0 50000 0 00436    00644 STO +0 60100 1 77461
                 THROUGH LADD1,FOR L=11,1,L.G.K                                     042  LM00050
 00645 CLA +0 50000 0 00452    00646 STO +0 60100 0 00426    00647 TRA +0 02000 0 00653    00650 CLA +0 50000 0 00426
 00651 ADD +0 40000 0 00447    00652 STO +0 60100 0 00426    00653 CLA +0 50000 0 00426    00654 SUB +0 40200 0 00300
 00655 TZE +0 10000 0 00657    00656 TPL +0 12000 0 00667
                 LIST=LIST+1                                                        043  LM00051
 00657 CLA +0 50000 0 77461    00660 ADD +0 40000 0 00447    00661 STO +0 60100 0 77461
      LADD1      LIST(LIST)=BUFF(L)                                                 044  LM00052
 00662 LXA +0 53400 1 77461    00663 LXA +0 53400 2 00426    00664 CLA +0 50000 2 00206    00665 STO +0 60100 1 77461
 00666 TRA +0 02000 0 00650
                 END OF CONDITIONAL                                                 045  LM00053
      LLOOP1     CRTYPE.                                                            046  LM00054
 00667 TSX +0 07400 4 00006    00670 TRA +0 02000 0 00535
      LLOOP      PRINT.(0)                                                          047  LM00055
 00671 TSX +0 07400 4 00023    00672 TXH +3 00000 0 00446    00673 TRA +0 02000 0 00522
                 INTNO.                                                             048  LM00056
 00674 TSX +0 07400 4 00020
                 READY.                                                             049  LM00057
 00675 TSX +0 07400 4 00024
                 ENTRY TO D.                                                        050  LM00061
 00676 TRA +0 02000 0 00701    00677 SXA +0 63400 2 02543    00700 TSX +0 07400 2 02543
                 ARGSL.                                                             051  LM00062
 00701 TSX +0 07400 4 00004
                 CHANGE.                                                            052  LM00063
 00702 TSX +0 07400 4 00041
                 THROUGH DLOOP,FOR I=1,1,I.G.MAX                                    053  LM00064
 00703 CLA +0 50000 0 00447    00704 STO +0 60100 0 00276    00705 TRA +0 02000 0 00711    00706 CLA +0 50000 0 00276
 00707 ADD +0 40000 0 00447    00710 STO +0 60100 0 00276    00711 CLA +0 50000 0 00276    00712 SUB +0 40200 0 77334
 00713 TZE +0 10000 0 00715    00714 TPL +0 12000 0 00732
                 DELCRD.(FROM(I),TO(I))                                             054  LM00065
 00715 CLA +0 50000 0 00276    00716 SUB +0 40200 0 00717    00717 TXH +3 00000 0 77306    00720 STA +0 62100 0 00727
 00721 CLA +0 50000 0 00276    00722 SUB +0 40200 0 00723    00723 TXH +3 00000 0 77333    00724 STA +0 62100 0 00726
 00725 TSX +0 07400 4 00007    00726 TXH +3 00000 0 00000    00727 TXH +3 00000 0 00000
      DLOOP      DELFIX.                                                            055  LM00066
 00730 TSX +0 07400 4 00043    00731 TRA +0 02000 0 00706
                 READY.                                                             056  LM00067
 00732 TSX +0 07400 4 00024
                 ENTRY TO I.                                                        057  LM00071
 00733 TRA +0 02000 0 00736    00734 SXA +0 63400 2 02543    00735 TSX +0 07400 2 02543
                 ARGSL.                                                             058  LM00072
 00736 TSX +0 07400 4 00004
                 CHANGE.                                                            059  LM00073
 00737 TSX +0 07400 4 00041
                 DOLINE.(MAX)                                                       060  LM00074
 00740 TSX +0 07400 4 00011    00741 TXH +3 00000 0 77334
                 THROUGH ILOOP, FOR I=1,1,I.G.MAX                                   061  LM00075
 00742 CLA +0 50000 0 00447    00743 STO +0 60100 0 00276    00744 TRA +0 02000 0 00750    00745 CLA +0 50000 0 00276
 00746 ADD +0 40000 0 00447    00747 STO +0 60100 0 00276    00750 CLA +0 50000 0 00276    00751 SUB +0 40200 0 77334
 00752 TZE +0 10000 0 00754    00753 TPL +0 12000 0 00771
      IAGN       INLINE.(BUFF,ILOOP)                                                062  LM00076
 00754 TSX +0 07400 4 00015    00755 TXH +3 00000 0 00206    00756 TXH +3 00000 0 00060
                 INSCRD.(FROM(I),BUFF)                                              063  LM00077
 00757 CLA +0 50000 0 00276    00760 SUB +0 40200 0 00761    00761 TXH +3 00000 0 77333    00762 STA +0 62100 0 00764
 00763 TSX +0 07400 4 00016    00764 TXH +3 00000 0 00000    00765 TXH +3 00000 0 00206
                 INSFIX.                                                            064  LM00078
 00766 TSX +0 07400 4 00045
                 TRANSFER TO IAGN                                                   065  LM00079
 00767 TRA +0 02000 0 00057
      ILOOP      CONTINUE                                                           066  LM00080
 00770 TRA +0 02000 0 00745
                 READY.                                                             067  LM00081
 00771 TSX +0 07400 4 00024
                 ENTRY TO C.                                                        068  LM00085
 00772 TRA +0 02000 0 00775    00773 SXA +0 63400 2 02543    00774 TSX +0 07400 2 02543
                 ARGSL.                                                             069  LM00086
 00775 TSX +0 07400 4 00004
                 CHANGE.                                                            070  LM00087
 00776 TSX +0 07400 4 00041
                 DOLINE.(MAX)                                                       071  LM00088
 00777 TSX +0 07400 4 00011    01000 TXH +3 00000 0 77334
                 THROUGH CLOOP, FOR I=1,1,I.G.MAX                                   072  LM00089
 01001 CLA +0 50000 0 00447    01002 STO +0 60100 0 00276    01003 TRA +0 02000 0 01007    01004 CLA +0 50000 0 00276
 01005 ADD +0 40000 0 00447    01006 STO +0 60100 0 00276    01007 CLA +0 50000 0 00276    01010 SUB +0 40200 0 77334
 01011 TZE +0 10000 0 01013    01012 TPL +0 12000 0 01076
                 THROUGH CCH, FOR FROM(I)=FROM(I),1,FROM(I).G.TO(I)                 073  LM00090
 01013 LXA +0 53400 1 00276    01014 LXA +0 53400 2 00276    01015 CLA +0 50000 2 77333    01016 STO +0 60100 1 77333
 01017 TRA +0 02000 0 01024    01020 LXA +0 53400 1 00276    01021 CLA +0 50000 1 77333    01022 ADD +0 40000 0 00447
 01023 STO +0 60100 1 77333    01024 LXA +0 53400 1 00276    01025 LXA +0 53400 2 00276    01026 CLA +0 50000 1 77333
 01027 SUB +0 40200 2 77306    01030 TZE +0 10000 0 01032    01031 TPL +0 12000 0 01045
                 INLINE.(BUFF,CDEL)                                                 074  LM00091
 01032 TSX +0 07400 4 00015    01033 TXH +3 00000 0 00206    01034 TXH +3 00000 0 00054
      CCH        SETCRD.(FROM(I),BUFF)                                              075  LM00092
 01035 CLA +0 50000 0 00276    01036 SUB +0 40200 0 01037    01037 TXH +3 00000 0 77333    01040 STA +0 62100 0 01042
 01041 TSX +0 07400 4 00026    01042 TXH +3 00000 0 00000    01043 TXH +3 00000 0 00206    01044 TRA +0 02000 0 01020
      CIAGN      INLINE.(BUFF,CLOOP)                                                076  LM00094
 01045 TSX +0 07400 4 00015    01046 TXH +3 00000 0 00206    01047 TXH +3 00000 0 00056
                 INSCRD.(FROM(I),BUFF)                                              077  LM00095
 01050 CLA +0 50000 0 00276    01051 SUB +0 40200 0 01052    01052 TXH +3 00000 0 77333    01053 STA +0 62100 0 01055
 01054 TSX +0 07400 4 00016    01055 TXH +3 00000 0 00000    01056 TXH +3 00000 0 00206
                 INSFIX.                                                            078  LM00096
 01057 TSX +0 07400 4 00045
                 TRANSFER TO CIAGN                                                  079  LM00097
 01060 TRA +0 02000 0 00055
      CDEL       DELCRD.(FROM(I),TO(I))                                             080  LM00099
 01061 CLA +0 50000 0 00276    01062 SUB +0 40200 0 01063    01063 TXH +3 00000 0 77306    01064 STA +0 62100 0 01073
 01065 CLA +0 50000 0 00276    01066 SUB +0 40200 0 01067    01067 TXH +3 00000 0 77333    01070 STA +0 62100 0 01072
 01071 TSX +0 07400 4 00007    01072 TXH +3 00000 0 00000    01073 TXH +3 00000 0 00000
                 DELFIX.                                                            081  LM00100
 01074 TSX +0 07400 4 00043
      CLOOP      CONTINUE                                                           082  LM00102
 01075 TRA +0 02000 0 01004
                 READY.                                                             083  LM00103
 01076 TSX +0 07400 4 00024
                 ENTRY TO A.                                                        084  LM00107
 01077 TRA +0 02000 0 01102    01100 SXA +0 63400 2 02543    01101 TSX +0 07400 2 02543
                 CHANGE.                                                            085  LM00108
 01102 TSX +0 07400 4 00041
                 LASCRD.(APTO)                                                      086  LM00109
 01103 TSX +0 07400 4 00021    01104 TXH +3 00000 0 00071
                 SPACE.                                                             087  LM00110
 01105 TSX +0 07400 4 00027
                 WHENEVER LIST(LIST).NE.CR,TRANSFER TO AFILES                       088  LM00111
 01106 LXA +0 53400 1 77461    01107 CLA +0 50000 1 77461    01110 SUB +0 40200 0 00264    01111 TZE +0 10000 0 01113
 01112 TRA +0 02000 0 00051
                 DOLINE.(1)                                                         089  LM00113
 01113 TSX +0 07400 4 00011    01114 TXH +3 00000 0 00447
      AAGN       INLINE.(BUFF,AEND)                                                 090  LM00114
 01115 TSX +0 07400 4 00015    01116 TXH +3 00000 0 00206    01117 TXH +3 00000 0 00050
                 APTO=APTO+1                                                        091  LM00115
 01120 CLA +0 50000 0 00071    01121 ADD +0 40000 0 00447    01122 STO +0 60100 0 00071
                 INSCRD.(APTO,BUFF)                                                 092  LM00116
 01123 TSX +0 07400 4 00016    01124 TXH +3 00000 0 00071    01125 TXH +3 00000 0 00206
                 TRANSFER TO AAGN                                                   093  LM00117
 01126 TRA +0 02000 0 00047
      AFILES     LIST=LIST-1                                                        094  LM00119
 01127 CLA +0 50000 0 77461    01130 SUB +0 40200 0 00447    01131 STO +0 60100 0 77461
                 ARGBCD.(20)                                                        095  LM00120
 01132 TSX +0 07400 4 00003    01133 TXH +3 00000 0 00455
                 GWORK.(WORK)                                                       096  LM00122
 01134 TSX +0 07400 4 00014    01135 TXH +3 00000 0 00445
                 LTJUST.(WORK)                                                      097  LM00123
 01136 TSX +0 07400 4 00022    01137 TXH +3 00000 0 00445
                 THROUGH ACHECK, FOR I=1,1,I.G.MAX                                  098  LM00124
 01140 CLA +0 50000 0 00447    01141 STO +0 60100 0 00276    01142 TRA +0 02000 0 01146    01143 CLA +0 50000 0 00276
 01144 ADD +0 40000 0 00447    01145 STO +0 60100 0 00276    01146 CLA +0 50000 0 00276    01147 SUB +0 40200 0 77334
 01150 TZE +0 10000 0 01152    01151 TPL +0 12000 0 01172
                 WHENEVER FROM(I).E.WORK                                            099  LM00125
 01152 LXA +0 53400 1 00276    01153 CLA +0 50000 1 77333    01154 SUB +0 40200 0 00445    01155 TNZ -0 10000 0 01171
                 WHENEVER WSEEK.($PROG$)                                            100  LM00126
 01156 TSX +0 07400 4 00036    01157 TXH +3 00000 0 00463    01160 TZE +0 10000 0 01166
                 WHENEVER WCHANG.($PROG$),SWORK.(WORK)                              101  LM00127
 01161 TSX +0 07400 4 00033    01162 TXH +3 00000 0 00463    01163 TZE +0 10000 0 01166    01164 TSX +0 07400 4 00030
 01165 TXH +3 00000 0 00445
                 END OF CONDITIONAL                                                 102  LM00128
                 I=MAX+1                                                            103  LM00129
 01166 CLA +0 50000 0 77334    01167 ADD +0 40000 0 00447    01170 STO +0 60100 0 00276
      ACHECK     END OF CONDITIONAL                                                 104  LM00130
 01171 TRA +0 02000 0 01143
                 THROUGH ASETUP,FOR I=1,1,I.G.MAX                                   105  LM00132
 01172 CLA +0 50000 0 00447    01173 STO +0 60100 0 00276    01174 TRA +0 02000 0 01200    01175 CLA +0 50000 0 00276
 01176 ADD +0 40000 0 00447    01177 STO +0 60100 0 00276    01200 CLA +0 50000 0 00276    01201 SUB +0 40200 0 77334
 01202 TZE +0 10000 0 01204    01203 TPL +0 12000 0 01267
                 MAD=FROM(I)                                                        106  LM00133
 01204 LXA +0 53400 2 00276    01205 CLA +0 50000 2 77333    01206 STO +0 60100 0 00430
                 RTJUST.(MAD)                                                       107  LM00134
 01207 TSX +0 07400 4 00025    01210 TXH +3 00000 0 00430
                 WSETUP.($TEMP$,MAD,0)                                              108  LM00135
 01211 TSX +0 07400 4 00037    01212 TXH +3 00000 0 00465    01213 TXH +3 00000 0 00430    01214 TXH +3 00000 0 00446
                 WSIZE.(TSIZE)                                                      109  LM00136
 01215 TSX +0 07400 4 00040    01216 TXH +3 00000 0 00443
                 THROUGH AFLINE,FOR TFROM=0,14,TFROM.GE.TSIZE                       110  LM00137
 01217 CLA +0 50000 0 00446    01220 STO +0 60100 0 00440    01221 TRA +0 02000 0 01225    01222 CLA +0 50000 0 00440
 01223 ADD +0 40000 0 00454    01224 STO +0 60100 0 00440    01225 CLA +0 50000 0 00440    01226 SUB +0 40200 0 00443
 01227 TZE +0 10000 0 01264    01230 TPL +0 12000 0 01264
                 WSEEK.($TEMP$)                                                     111  LM00138
 01231 TSX +0 07400 4 00036    01232 TXH +3 00000 0 00465
                 THROUGH AFWORD,FOR K=1,1,K.G.12                                    112  LM00139
 01233 CLA +0 50000 0 00447    01234 STO +0 60100 0 00300    01235 TRA +0 02000 0 01241    01236 CLA +0 50000 0 00300
 01237 ADD +0 40000 0 00447    01240 STO +0 60100 0 00300    01241 CLA +0 50000 0 00300    01242 SUB +0 40200 0 00453
 01243 TZE +0 10000 0 01245    01244 TPL +0 12000 0 01255
      AFWORD     BUFF(K)=WGET.(TFROM+K)                                             113  LM00140
 01245 CLA +0 50000 0 00440    01246 ADD +0 40000 0 00300    01247 STO +0 60100 0 02553    01250 TSX +0 07400 4 00035
 01251 TXH +3 00000 0 02553    01252 LXA +0 53400 1 00300    01253 STO +0 60100 1 00206    01254 TRA +0 02000 0 01236
                 APTO=APTO+1                                                        114  LM00141
 01255 CLA +0 50000 0 00071    01256 ADD +0 40000 0 00447    01257 STO +0 60100 0 00071
      AFLINE     INSCRD.(APTO,BUFF)                                                 115  LM00142
 01260 TSX +0 07400 4 00016    01261 TXH +3 00000 0 00071    01262 TXH +3 00000 0 00206    01263 TRA +0 02000 0 01222
      ASETUP     WDITCH.($TEMP$)                                                    116  LM00143
 01264 TSX +0 07400 4 00034    01265 TXH +3 00000 0 00465    01266 TRA +0 02000 0 01175
      AEND       READY.                                                             117  LM00144
 01267 TSX +0 07400 4 00024
                 ENTRY TO M.                                                        118  LM00148
 01270 TRA +0 02000 0 01273    01271 SXA +0 63400 2 02543    01272 TSX +0 07400 2 02543
                 SPACE.                                                             119  LM00149
 01273 TSX +0 07400 4 00027
                 WHENEVER LIST(LIST).E.CR,SYNTAX.                                   120  LM00151
 01274 LXA +0 53400 1 77461    01275 CLA +0 50000 1 77461    01276 SUB +0 40200 0 00264    01277 TNZ -0 10000 0 01301
 01300 TSX +0 07400 4 00031
                 QUOTE=LIST(LIST)                                                   121  LM00153
 01301 LXA +0 53400 2 77461    01302 CLA +0 50000 2 77461    01303 STO +0 60100 0 00432
                 LIST=LIST+1                                                        122  LM00154
 01304 CLA +0 50000 0 77461    01305 ADD +0 40000 0 00447    01306 STO +0 60100 0 77461
                 FSTART=LIST                                                        123  LM00155
 01307 CLA +0 50000 0 77461    01310 STO +0 60100 0 00274
      MLOOP1     WHENEVER LIST(LIST).E.CR,TRANSFER TO NOT3                          124  LM00157
 01311 LXA +0 53400 1 77461    01312 CLA +0 50000 1 77461    01313 SUB +0 40200 0 00264    01314 TNZ -0 10000 0 01316
 01315 TRA +0 02000 0 00070
                 WHENEVER LIST(LIST).E.QUOTE,TRANSFER TO MLOOP2                     125  LM00158
 01316 LXA +0 53400 1 77461    01317 CLA +0 50000 1 77461    01320 SUB +0 40200 0 00432    01321 TNZ -0 10000 0 01323
 01322 TRA +0 02000 0 00065
                 LIST=LIST+1                                                        126  LM00159
 01323 CLA +0 50000 0 77461    01324 ADD +0 40000 0 00447    01325 STO +0 60100 0 77461
                 TRANSFER TO MLOOP1                                                 127  LM00160
 01326 TRA +0 02000 0 00064
      MLOOP2     FLAST=LIST-1                                                       128  LM00162
 01327 CLA +0 50000 0 77461    01330 SUB +0 40200 0 00447    01331 STO +0 60100 0 00271
                 TSTART=LIST+1                                                      129  LM00163
 01332 CLA +0 50000 0 77461    01333 ADD +0 40000 0 00447    01334 STO +0 60100 0 00444
                 LIST=LIST+1                                                        130  LM00164
 01335 CLA +0 50000 0 77461    01336 ADD +0 40000 0 00447    01337 STO +0 60100 0 77461
      MLOOP3     WHENEVER LIST(LIST).E.CR                                           131  LM00166
 01340 LXA +0 53400 1 77461    01341 CLA +0 50000 1 77461    01342 SUB +0 40200 0 00264    01343 TNZ -0 10000 0 01362
      NOT3       LIST=0                                                             132  LM00167
 01344 CLA +0 50000 0 00446    01345 STO +0 60100 0 77461
                 ADDCOM.(COM1)                                                      133  LM00168
 01346 TSX +0 07400 4 00000    01347 TXH +3 00000 0 00215
                 VECTOR VALUES COM1=21,$THE QUOTE CHARACTER '$                      134  LM00169
 00211     -1 16014 6 06060    00212     +2 15121 2 36325    00213     -0 66325 6 02330    00214     -2 33025 6 05064
 00215     +0 00000 0 00025
                 LIST=LIST+1                                                        135  LM00170
 01350 CLA +0 50000 0 77461    01351 ADD +0 40000 0 00447    01352 STO +0 60100 0 77461
                 LIST(LIST)=QUOTE                                                   136  LM00171
 01353 LXA +0 53400 1 77461    01354 CLA +0 50000 0 00432    01355 STO +0 60100 1 77461
                 ADDCOM.(COM2)                                                      137  LM00172
 01356 TSX +0 07400 4 00000    01357 TXH +3 00000 0 00225
                 VECTOR VALUES COM2=39,$' SHOULD OCCUR THREE TIM$,                  138  LM00173
                1$ES.  TRY AGAIN.$                                                  138  LM00174
 00216     +3 14533 6 06060    00217     -1 17060 2 12721    00220     +2 56233 6 06063    00221     +2 52560 6 33144
 00222     -2 45160 6 33051    00223     -0 32460 4 62323    00224     +1 46062 3 04664    00225     +0 00000 0 00047
                 CRTYPE.                                                            139  LM00175
 01360 TSX +0 07400 4 00006
                 READY.                                                             140  LM00176
 01361 TSX +0 07400 4 00024
                 END OF CONDITIONAL                                                 141  LM00177
                 WHENEVER LIST(LIST).E.QUOTE,TRANSFER TO MLOOP4                     142  LM00178
 01362 LXA +0 53400 1 77461    01363 CLA +0 50000 1 77461    01364 SUB +0 40200 0 00432    01365 TNZ -0 10000 0 01367
 01366 TRA +0 02000 0 00067
                 LIST=LIST+1                                                        143  LM00179
 01367 CLA +0 50000 0 77461    01370 ADD +0 40000 0 00447    01371 STO +0 60100 0 77461
                 TRANSFER TO MLOOP3                                                 144  LM00180
 01372 TRA +0 02000 0 00066
      MLOOP4     TLAST=LIST-1                                                       145  LM00182
 01373 CLA +0 50000 0 77461    01374 SUB +0 40200 0 00447    01375 STO +0 60100 0 00441
                 LIST=LIST+1                                                        146  LM00183
 01376 CLA +0 50000 0 77461    01377 ADD +0 40000 0 00447    01400 STO +0 60100 0 77461
                 WHENEVER LIST(LIST).NE.CR.AND.LIST(LIST).NE.TAB.AND.LIST(LIST      147  LM00184
                1).NE.$ $                                                           147  LM00185
 01401 LXA +0 53400 1 77461    01402 CLA +0 50000 1 77461    01403 SUB +0 40200 0 00464    01404 TZE +0 10000 0 01431
 01405 CLA +0 50000 1 77461    01406 SUB +0 40200 0 00436    01407 TZE +0 10000 0 01431    01410 CLA +0 50000 1 77461
 01411 SUB +0 40200 0 00264    01412 TZE +0 10000 0 01431
                 LIST=0                                                             148  LM00186
 01413 CLA +0 50000 0 00446    01414 STO +0 60100 0 77461
                 ADDCOM.(COM5)                                                      149  LM00187
 01415 TSX +0 07400 4 00000    01416 TXH +3 00000 0 00246
                 VECTOR VALUES COM5=38,$THE THIRD USE OF THE QUO$,                  150  LM00188
                1$TE CHARACTER '$                                                   150  LM00189
 00237     -2 01460 6 06060    00240     -1 12123 6 32551    00241     -2 32560 2 33021    00242     +3 02560 5 06446
 00243     +2 56046 2 66063    00244     +3 15124 6 06462    00245     -2 33025 6 06330    00246     +0 00000 0 00046
                 LIST=LIST+1                                                        151  LM00190
 01417 CLA +0 50000 0 77461    01420 ADD +0 40000 0 00447    01421 STO +0 60100 0 77461
                 LIST(LIST)=QUOTE                                                   152  LM00191
 01422 LXA +0 53400 1 77461    01423 CLA +0 50000 0 00432    01424 STO +0 60100 1 77461
                 ADDCOM.(COM3)                                                      153  LM00192
 01425 TSX +0 07400 4 00000    01426 TXH +3 00000 0 00236
                 VECTOR VALUES COM3=44,$' SHOULD END THE FIRST A$,                  154  LM00193
                1$RGUMENT.  TRY AGAIN.$                                             154  LM00194
 00226     -0 53360 6 06060    00227     -3 06021 2 72131    00230     -2 33360 6 06351    00231     -1 12764 4 42545
 00232     +3 15162 6 36021    00233     -2 06330 2 56026    00234     -0 32460 2 54524    00235     +1 46062 3 04664
 00236     +0 00000 0 00054
                 CRTYPE.                                                            155  LM00195
 01427 TSX +0 07400 4 00006
                 READY.                                                             156  LM00196
 01430 TSX +0 07400 4 00024
                 END OF CONDITIONAL                                                 157  LM00197
                 FCOUNT=FLAST-FSTART+1                                              158  LM00199
 01431 CLA +0 50000 0 00271    01432 SUB +0 40200 0 00274    01433 ADD +0 40000 0 00447    01434 STO +0 60100 0 00270
                 TCOUNT=TLAST-TSTART+1                                              159  LM00200
 01435 CLA +0 50000 0 00441    01436 SUB +0 40200 0 00444    01437 ADD +0 40000 0 00447    01440 STO +0 60100 0 00437
                 DELTA=TCOUNT-FCOUNT                                                160  LM00201
 01441 CLA +0 50000 0 00437    01442 SUB +0 40200 0 00270    01443 STO +0 60100 0 00266
                 ARGSL.                                                             161  LM00203
 01444 TSX +0 07400 4 00004
                 DIFF=1B                                                            162  LM00205
 01445 CLA +0 50000 0 00447    01446 STO +0 60100 0 00267
                 WHENEVER FCOUNT.NE.TCOUNT,TRANSFER TO MGO                          163  LM00206
 01447 CLA +0 50000 0 00270    01450 SUB +0 40200 0 00437    01451 TZE +0 10000 0 01453    01452 TRA +0 02000 0 00062
                 THROUGH MCHECK,FOR I=0,1,I.G.TCOUNT                                164  LM00207
 01453 CLA +0 50000 0 00446    01454 STO +0 60100 0 00276    01455 TRA +0 02000 0 01461    01456 CLA +0 50000 0 00276
 01457 ADD +0 40000 0 00447    01460 STO +0 60100 0 00276    01461 CLA +0 50000 0 00276    01462 SUB +0 40200 0 00437
 01463 TZE +0 10000 0 01465    01464 TPL +0 12000 0 01501
      MCHECK     WHENEVER LIST(FSTART+I).NE.LIST(TSTART+I),TRANSFER TO MGO          165  LM00208
 01465 CLA +0 50000 0 00444    01466 ADD +0 40000 0 00276    01467 STO +0 60100 0 02553    01470 CLA +0 50000 0 00274
 01471 ADD +0 40000 0 00276    01472 PAX +0 73400 1 00000    01473 LXA +0 53400 2 02553    01474 CLA +0 50000 1 77461
 01475 SUB +0 40200 2 77461    01476 TZE +0 10000 0 01500    01477 TRA +0 02000 0 00062    01500 TRA +0 02000 0 01456
                 DIFF=0B                                                            166  LM00209
 01501 CLA +0 50000 0 00446    01502 STO +0 60100 0 00267
      MGO        THROUGH MSAVE,FOR I=1,1,I.G.84                                     167  LM00211
 01503 CLA +0 50000 0 00447    01504 STO +0 60100 0 00276    01505 TRA +0 02000 0 01511    01506 CLA +0 50000 0 00276
 01507 ADD +0 40000 0 00447    01510 STO +0 60100 0 00276    01511 CLA +0 50000 0 00276    01512 SUB +0 40200 0 00460
 01513 TZE +0 10000 0 01515    01514 TPL +0 12000 0 01522
      MSAVE      LIST1(I)=LIST(I)                                                   168  LM00212
 01515 LXA +0 53400 1 00276    01516 LXA +0 53400 2 00276    01517 CLA +0 50000 2 77461    01520 STO +0 60100 1 00425
 01521 TRA +0 02000 0 01506
                 OCCUR=0B                                                           169  LM00214
 01522 CLA +0 50000 0 00446    01523 STO +0 60100 0 00431
                 THROUGH MLOOP6,FOR I=1,1,I.G.MAX                                   170  LM00215
 01524 CLA +0 50000 0 00447    01525 STO +0 60100 0 00276    01526 TRA +0 02000 0 01532    01527 CLA +0 50000 0 00276
 01530 ADD +0 40000 0 00447    01531 STO +0 60100 0 00276    01532 CLA +0 50000 0 00276    01533 SUB +0 40200 0 77334
 01534 TZE +0 10000 0 01536    01535 TPL +0 12000 0 02073
                 THROUGH MLOOP6,FOR J=FROM(I),1,J.G.TO(I)                           171  LM00216
 01536 LXA +0 53400 2 00276    01537 CLA +0 50000 2 77333    01540 STO +0 60100 0 00277    01541 TRA +0 02000 0 01545
 01542 CLA +0 50000 0 00277    01543 ADD +0 40000 0 00447    01544 STO +0 60100 0 00277    01545 LXA +0 53400 2 00276
 01546 CLA +0 50000 0 00277    01547 SUB +0 40200 2 77306    01550 TZE +0 10000 0 01552    01551 TPL +0 12000 0 02072
                 CRD.(J,BUFF)                                                       172  LM00217
 01552 TSX +0 07400 4 00005    01553 TXH +3 00000 0 00277    01554 TXH +3 00000 0 00206
                 EXPBUF.                                                            173  LM00218
 01555 TSX +0 07400 4 00044
                 CPOINT=1                                                           174  LM00220
 01556 CLA +0 50000 0 00447    01557 STO +0 60100 0 00263
                 TRUNC=0B                                                           175  LM00221
 01560 CLA +0 50000 0 00446    01561 STO +0 60100 0 00442
                 CFLAG=0B                                                           176  LM00222
 01562 CLA +0 50000 0 00446    01563 STO +0 60100 0 00207
      BACK1      FPOINT=FSTART                                                      177  LM00223
 01564 CLA +0 50000 0 00274    01565 STO +0 60100 0 00273
                 CSTART=CPOINT                                                      178  LM00224
 01566 CLA +0 50000 0 00263    01567 STO +0 60100 0 00265
                 WHENEVER FCOUNT.E.0,TRANSFER TO MLAB                               179  LM00225
 01570 CLA +0 50000 0 00270    01571 SUB +0 40200 0 00446    01572 TNZ -0 10000 0 01574    01573 TRA +0 02000 0 00063
      BACK       WHENEVER CPOINT.G.72,TRANSFER TO MDONE                             180  LM00226
 01574 CLA +0 50000 0 00263    01575 SUB +0 40200 0 00457    01576 TZE +0 10000 0 01601    01577 TMI -0 12000 0 01601
 01600 TRA +0 02000 0 00061
                 WHENEVER BUFF(CPOINT).NE.LIST1(FPOINT)                             181  LM00227
 01601 LXA +0 53400 1 00263    01602 LXA +0 53400 2 00273    01603 CLA +0 50000 1 00206    01604 SUB +0 40200 2 00425
 01605 TZE +0 10000 0 01612
                 CPOINT=CSTART+1                                                    182  LM00228
 01606 CLA +0 50000 0 00265    01607 ADD +0 40000 0 00447    01610 STO +0 60100 0 00263
                 TRANSFER TO BACK1                                                  183  LM00229
 01611 TRA +0 02000 0 00052
                 END OF CONDITIONAL                                                 184  LM00230
                 WHENEVER FPOINT.L.FLAST                                            185  LM00232
 01612 CLA +0 50000 0 00273    01613 SUB +0 40200 0 00271    01614 TZE +0 10000 0 01625    01615 TPL +0 12000 0 01625
                 CPOINT=CPOINT+1                                                    186  LM00233
 01616 CLA +0 50000 0 00263    01617 ADD +0 40000 0 00447    01620 STO +0 60100 0 00263
                 FPOINT=FPOINT+1                                                    187  LM00234
 01621 CLA +0 50000 0 00273    01622 ADD +0 40000 0 00447    01623 STO +0 60100 0 00273
                 TRANSFER TO BACK                                                   188  LM00235
 01624 TRA +0 02000 0 00053
                 END OF CONDITIONAL                                                 189  LM00236
      MLAB       WHENEVER DIFF,CHANGE.                                              190  LM00238
 01625 NZT -0 52000 0 00267    01626 TRA +0 02000 0 01630    01627 TSX +0 07400 4 00041
                 CFLAG=1B                                                           191  LM00239
 01630 CLA +0 50000 0 00447    01631 STO +0 60100 0 00207
                 OCCUR=1B                                                           192  LM00240
 01632 CLA +0 50000 0 00447    01633 STO +0 60100 0 00431
                 WHENEVER CPOINT.LE.10                                              193  LM00242
 01634 CLA +0 50000 0 00263    01635 SUB +0 40200 0 00451    01636 TZE +0 10000 0 01640    01637 TPL +0 12000 0 01643
                 FLDEND=10                                                          194  LM00243
 01640 CLA +0 50000 0 00451    01641 STO +0 60100 0 00272
                 OTHERWISE                                                          195  LM00244
 01642 TRA +0 02000 0 01645
                 FLDEND=72                                                          196  LM00245
 01643 CLA +0 50000 0 00457    01644 STO +0 60100 0 00272
                 END OF CONDITIONAL                                                 197  LM00246
                 WHENEVER DELTA.E.0                                                 198  LM00248
 01645 CLA +0 50000 0 00266    01646 SUB +0 40200 0 00446    01647 TNZ -0 10000 0 01651
                 OR WHENEVER DELTA.G.0                                              199  LM00250
 01650 TRA +0 02000 0 01765    01651 CLA +0 50000 0 00266    01652 SUB +0 40200 0 00446    01653 TZE +0 10000 0 01723
 01654 TMI -0 12000 0 01723
      MTRUNC     THROUGH MTRUNC,FOR K=FLDEND,-1,BUFF(K).NE.$ $                      200  LM00251
 01655 CLA +0 50000 0 00272    01656 STO +0 60100 0 00300    01657 TRA +0 02000 0 01663    01660 CLS +0 50200 0 00447
 01661 ADD +0 40000 0 00300    01662 STO +0 60100 0 00300    01663 LXA +0 53400 1 00300    01664 CLA +0 50000 1 00206
 01665 SUB +0 40200 0 00464    01666 TNZ -0 10000 0 01670    01667 TRA +0 02000 0 01660
                 WHENEVER FLDEND-K.L.DELTA,TRUNC=1B                                 201  LM00252
 01670 CLA +0 50000 0 00272    01671 SUB +0 40200 0 00300    01672 SUB +0 40200 0 00266    01673 TZE +0 10000 0 01677
 01674 TPL +0 12000 0 01677    01675 CLA +0 50000 0 00447    01676 STO +0 60100 0 00442
                 THROUGH MMOVER,FOR K=FLDEND,-1,K.L.CSTART+TCOUNT                   202  LM00253
 01677 CLA +0 50000 0 00272    01700 STO +0 60100 0 00300    01701 TRA +0 02000 0 01705    01702 CLS +0 50200 0 00447
 01703 ADD +0 40000 0 00300    01704 STO +0 60100 0 00300    01705 CLA +0 50000 0 00265    01706 ADD +0 40000 0 00437
 01707 CHS +0 76000 0 00002    01710 ADD +0 40000 0 00300    01711 TZE +0 10000 0 01713    01712 TMI -0 12000 0 01722
      MMOVER     BUFF(K)=BUFF(K-DELTA)                                              203  LM00254
 01713 CLA +0 50000 0 00300    01714 SUB +0 40200 0 00266    01715 LXA +0 53400 1 00300    01716 PAX +0 73400 2 00000
 01717 CLA +0 50000 2 00206    01720 STO +0 60100 1 00206    01721 TRA +0 02000 0 01702
                 OTHERWISE                                                          204  LM00256
 01722 TRA +0 02000 0 01765
                 THROUGH MMOVEL,FOR K=CSTART+TCOUNT,1,K.G.FLDEND                    205  LM00257
 01723 CLA +0 50000 0 00265    01724 ADD +0 40000 0 00437    01725 STO +0 60100 0 00300    01726 TRA +0 02000 0 01732
 01727 CLA +0 50000 0 00300    01730 ADD +0 40000 0 00447    01731 STO +0 60100 0 00300    01732 CLA +0 50000 0 00300
 01733 SUB +0 40200 0 00272    01734 TZE +0 10000 0 01736    01735 TPL +0 12000 0 01745
      MMOVEL     BUFF(K)=BUFF(K-DELTA)                                              206  LM00258
 01736 CLA +0 50000 0 00300    01737 SUB +0 40200 0 00266    01740 LXA +0 53400 1 00300    01741 PAX +0 73400 2 00000
 01742 CLA +0 50000 2 00206    01743 STO +0 60100 1 00206    01744 TRA +0 02000 0 01727
                 THROUGH MBLANK,FOR K=DELTA,1,K.E.0                                 207  LM00259
 01745 CLA +0 50000 0 00266    01746 STO +0 60100 0 00300    01747 TRA +0 02000 0 01753    01750 CLA +0 50000 0 00300
 01751 ADD +0 40000 0 00447    01752 STO +0 60100 0 00300    01753 CLA +0 50000 0 00300    01754 SUB +0 40200 0 00446
 01755 TZE +0 10000 0 01765
      MBLANK     BUFF(FLDEND+1+K)=0                                                 208  LM00260
 01756 CLA +0 50000 0 00272    01757 ADD +0 40000 0 00447    01760 ADD +0 40000 0 00300    01761 PAX +0 73400 1 00000
 01762 CLA +0 50000 0 00446    01763 STO +0 60100 1 00206    01764 TRA +0 02000 0 01750
                 END OF CONDITIONAL                                                 209  LM00261
                 THROUGH MCOPY,FOR K=0,1,K.E.TCOUNT                                 210  LM00263
 01765 CLA +0 50000 0 00446    01766 STO +0 60100 0 00300    01767 TRA +0 02000 0 01773    01770 CLA +0 50000 0 00300
 01771 ADD +0 40000 0 00447    01772 STO +0 60100 0 00300    01773 CLA +0 50000 0 00300    01774 SUB +0 40200 0 00437
 01775 TZE +0 10000 0 02010
      MCOPY      BUFF(CSTART+K)=LIST1(TSTART+K)                                     211  LM00264
 01776 CLA +0 50000 0 00444    01777 ADD +0 40000 0 00300    02000 STO +0 60100 0 02553    02001 CLA +0 50000 0 00265
 02002 ADD +0 40000 0 00300    02003 PAX +0 73400 1 00000    02004 LXA +0 53400 2 02553    02005 CLA +0 50000 2 00425
 02006 STO +0 60100 1 00206    02007 TRA +0 02000 0 01770
                 LIST=0                                                             212  LM00266
 02010 CLA +0 50000 0 00446    02011 STO +0 60100 0 77461
                 ADDSL.(J)                                                          213  LM00267
 02012 TSX +0 07400 4 00002    02013 TXH +3 00000 0 00277
                 CRTYPE.                                                            214  LM00268
 02014 TSX +0 07400 4 00006
                 CPOINT=CSTART+TCOUNT                                               215  LM00269
 02015 CLA +0 50000 0 00265    02016 ADD +0 40000 0 00437    02017 STO +0 60100 0 00263
                 WHENEVER FCOUNT.NE.0,TRANSFER TO BACK1                             216  LM00270
 02020 CLA +0 50000 0 00270    02021 SUB +0 40200 0 00446    02022 TZE +0 10000 0 02024    02023 TRA +0 02000 0 00052
      MDONE      WHENEVER CFLAG.AND.DIFF                                            217  LM00272
 02024 NZT -0 52000 0 00267    02025 TRA +0 02000 0 02071    02026 NZT -0 52000 0 00207    02027 TRA +0 02000 0 02071
                 WHENEVER DELTA.L.0                                                 218  LM00273
 02030 CLA +0 50000 0 00266    02031 SUB +0 40200 0 00446    02032 TZE +0 10000 0 02055    02033 TPL +0 12000 0 02055
                 THROUGH MFIX,FOR K=1,1,K.G.72                                      219  LM00274
 02034 CLA +0 50000 0 00447    02035 STO +0 60100 0 00300    02036 TRA +0 02000 0 02042    02037 CLA +0 50000 0 00300
 02040 ADD +0 40000 0 00447    02041 STO +0 60100 0 00300    02042 CLA +0 50000 0 00300    02043 SUB +0 40200 0 00457
 02044 TZE +0 10000 0 02046    02045 TPL +0 12000 0 02055
      MFIX       WHENEVER BUFF(K).E.0,BUFF(K)=$ $                                   220  LM00275
 02046 LXA +0 53400 1 00300    02047 CLA +0 50000 1 00206    02050 SUB +0 40200 0 00446    02051 TNZ -0 10000 0 02054
 02052 CLA +0 50000 0 00464    02053 STO +0 60100 1 00206    02054 TRA +0 02000 0 02037
                 END OF CONDITIONAL                                                 221  LM00276
                 CONBUF.                                                            222  LM00277
 02055 TSX +0 07400 4 00042
                 SETCRD.(J,BUFF)                                                    223  LM00278
 02056 TSX +0 07400 4 00026    02057 TXH +3 00000 0 00277    02060 TXH +3 00000 0 00206
                 WHENEVER TRUNC                                                     224  LM00279
 02061 NZT -0 52000 0 00442    02062 TRA +0 02000 0 02071
                 PRINT.(COM6)                                                       225  LM00280
 02063 TSX +0 07400 4 00023    02064 TXH +3 00000 0 00251
                 VECTOR VALUES COM6=12,$CARD CUT TO-$                               226  LM00281
 00247     -2 46360 6 34640    00250     +2 32151 2 46023    00251     +0 00000 0 00014
                 BUFF=72                                                            227  LM00282
 02065 CLA +0 50000 0 00457    02066 STO +0 60100 0 00206
                 PRINT.(BUFF)                                                       228  LM00283
 02067 TSX +0 07400 4 00023    02070 TXH +3 00000 0 00206
                 END OF CONDITIONAL                                                 229  LM00284
                 END OF CONDITIONAL                                                 230  LM00285
      MLOOP6     CONTINUE                                                           231  LM00287
 02071 TRA +0 02000 0 01542    02072 TRA +0 02000 0 01527
                 WHENEVER OCCUR                                                     232  LM00288
 02073 NZT -0 52000 0 00431    02074 TRA +0 02000 0 02100
                 PRINT.(COM7)                                                       233  LM00289
 02075 TSX +0 07400 4 00023    02076 TXH +3 00000 0 00254
                 VECTOR VALUES COM7=11,$THAT'S ALL.$                                234  LM00290
 00252     -2 02143 4 33360    00253     -2 33021 6 31462    00254     +0 00000 0 00013
                 OTHERWISE                                                          235  LM00291
 02077 TRA +0 02000 0 02102
                 PRINT.(COM8)                                                       236  LM00292
 02100 TSX +0 07400 4 00023    02101 TXH +3 00000 0 00256
                 VECTOR VALUES COM8=5,$NONE.$                                       237  LM00293
 00255     -0 54645 2 53360    00256     +0 00000 0 00005
                 END OF CONDITIONAL                                                 238  LM00294
                 PRINT.(0)                                                          239  LM00295
 02102 TSX +0 07400 4 00023    02103 TXH +3 00000 0 00446
                 READY.                                                             240  LM00296
 02104 TSX +0 07400 4 00024
                 INTERNAL FUNCTION                                                  241  LM00300
 02105 TRA +0 02000 0 02170
                 ENTRY TO EXPBUF.                                                   242  LM00301
 02106 TRA +0 02000 0 02111    00044 TTR +0 02100 0 02107    02107 SXA +0 63400 2 02160    02110 TSX +0 07400 2 02160
                 BUFF=72                                                            243  LM00302
 02111 CLA +0 50000 0 00457    02112 STO +0 60100 0 00206
                 THROUGH EXP,FOR K=12,-1,K.E.0                                      244  LM00303
 02113 CLA +0 50000 0 00453    02114 STO +0 60100 0 00300    02115 TRA +0 02000 0 02121    02116 CLS +0 50200 0 00447
 02117 ADD +0 40000 0 00300    02120 STO +0 60100 0 00300    02121 CLA +0 50000 0 00300    02122 SUB +0 40200 0 00446
 02123 TZE +0 10000 0 02156
                 BCD=BUFF(K)                                                        245  LM00304
 02124 LXA +0 53400 2 00300    02125 CLA +0 50000 2 00206    02126 STO +0 60100 0 00073
                 THROUGH EXP,FOR L=30,-6,L.L.0                                      246  LM00305
 02127 CLA +0 50000 0 00456    02130 STO +0 60100 0 00426    02131 TRA +0 02000 0 02135    02132 CLS +0 50200 0 00450
 02133 ADD +0 40000 0 00426    02134 STO +0 60100 0 00426    02135 CLA +0 50000 0 00426    02136 SUB +0 40200 0 00446
 02137 TZE +0 10000 0 02141    02140 TMI -0 12000 0 02155
                 BUFF(BUFF)=(BCD.LS.L).A.77K10.V.$0$                                247  LM00306
 02141 CAL -0 50000 0 00426    02142 STA +0 62100 0 02144    02143 CAL -0 50000 0 00073    02144 ALS +0 76700 0 00000
 02145 ANA -0 32000 0 00466    02146 ORA -0 50100 0 00461    02147 LXA +0 53400 1 00206    02150 SLW +0 60200 1 00206
      EXP        BUFF=BUFF-1                                                        248  LM00307
 02151 CLA +0 50000 0 00206    02152 SUB +0 40200 0 00447    02153 STO +0 60100 0 00206    02154 TRA +0 02000 0 02132
 02155 TRA +0 02000 0 02116
                 FUNCTION RETURN                                                    249  LM00308
 02156 TRA +0 02000 0 02164
                 END OF FUNCTION                                                    250  LM00309
 02157 TSX +0 07400 4 00012    02160 TXH +3 00000 0 00000    02161 SXD -0 63400 1 02160    02162 SXA +0 63400 4 02164
 02163 TRA +0 02000 2 00001    02164 AXT +0 77400 4 00000    02165 LXA +0 53400 2 02160    02166 LXD -0 53400 1 02160
 02167 TRA +0 02000 4 00001
                 INTERNAL FUNCTION                                                  251  LM00314
 02170 TRA +0 02000 0 02261
                 ENTRY TO CONBUF.                                                   252  LM00315
 02171 TRA +0 02000 0 02174    00042 TTR +0 02100 0 02172    02172 SXA +0 63400 2 02250    02173 TSX +0 07400 2 02250
                 BUFF=1                                                             253  LM00316
 02174 CLA +0 50000 0 00447    02175 STO +0 60100 0 00206
                 THROUGH CON,FOR K=1,1,K.G.12                                       254  LM00317
 02176 CLA +0 50000 0 00447    02177 STO +0 60100 0 00300    02200 TRA +0 02000 0 02204    02201 CLA +0 50000 0 00300
 02202 ADD +0 40000 0 00447    02203 STO +0 60100 0 00300    02204 CLA +0 50000 0 00300    02205 SUB +0 40200 0 00453
 02206 TZE +0 10000 0 02210    02207 TPL +0 12000 0 02246
                 BCD=0                                                              255  LM00318
 02210 CLA +0 50000 0 00446    02211 STO +0 60100 0 00073
                 THROUGH CON1,FOR L=0,6,L.G.30                                      256  LM00319
 02212 CLA +0 50000 0 00446    02213 STO +0 60100 0 00426    02214 TRA +0 02000 0 02220    02215 CLA +0 50000 0 00426
 02216 ADD +0 40000 0 00450    02217 STO +0 60100 0 00426    02220 CLA +0 50000 0 00426    02221 SUB +0 40200 0 00456
 02222 TZE +0 10000 0 02224    02223 TPL +0 12000 0 02242
                 BCD=(BUFF(BUFF).A.77K10).RS.L.V.BCD                                257  LM00320
 02224 LXA +0 53400 1 00206    02225 CAL -0 50000 1 00206    02226 ANA -0 32000 0 00466    02227 SLW +0 60200 0 02260
 02230 CAL -0 50000 0 00426    02231 STA +0 62100 0 02233    02232 CAL -0 50000 0 02260    02233 LGR -0 76500 0 00000
 02234 ORA -0 50100 0 00073    02235 SLW +0 60200 0 00073
      CON1       BUFF=BUFF+1                                                        258  LM00321
 02236 CLA +0 50000 0 00206    02237 ADD +0 40000 0 00447    02240 STO +0 60100 0 00206    02241 TRA +0 02000 0 02215
      CON        BUFF(K)=BCD                                                        259  LM00322
 02242 LXA +0 53400 1 00300    02243 CLA +0 50000 0 00073    02244 STO +0 60100 1 00206    02245 TRA +0 02000 0 02201
                 FUNCTION RETURN                                                    260  LM00323
 02246 TRA +0 02000 0 02254
                 END OF FUNCTION                                                    261  LM00324
 02247 TSX +0 07400 4 00012    02250 TXH +3 00000 0 00000    02251 SXD -0 63400 1 02250    02252 SXA +0 63400 4 02254
 02253 TRA +0 02000 2 00001    02254 AXT +0 77400 4 00000    02255 LXA +0 53400 2 02250    02256 LXD -0 53400 1 02250
 02257 TRA +0 02000 4 00001
                 INTERNAL FUNCTION                                                  262  LM00328
 02261 TRA +0 02000 0 02374
                 ENTRY TO DELFIX.                                                   263  LM00329
 02262 TRA +0 02000 0 02265    00043 TTR +0 02100 0 02263    02263 SXA +0 63400 2 02364    02264 TSX +0 07400 2 02364
                 THROUGH DF, FOR J=I+1,1,J.G.MAX                                    264  LM00330
 02265 CLA +0 50000 0 00276    02266 ADD +0 40000 0 00447    02267 STO +0 60100 0 00277    02270 TRA +0 02000 0 02274
 02271 CLA +0 50000 0 00277    02272 ADD +0 40000 0 00447    02273 STO +0 60100 0 00277    02274 CLA +0 50000 0 00277
 02275 SUB +0 40200 0 77334    02276 TZE +0 10000 0 02300    02277 TPL +0 12000 0 02362
                 WHENEVER TO(J).GE.TO(I)                                            265  LM00332
 02300 LXA +0 53400 1 00277    02301 LXA +0 53400 2 00276    02302 CLA +0 50000 1 77306    02303 SUB +0 40200 2 77306
 02304 TZE +0 10000 0 02306    02305 TMI -0 12000 0 02317
                 TO(J)=TO(J)-(TO(I)-FROM(I)+1)                                      266  LM00333
 02306 LXA +0 53400 1 00276    02307 CLA +0 50000 1 77306    02310 SUB +0 40200 2 77333    02311 ADD +0 40000 0 00447
 02312 LXA +0 53400 1 00277    02313 CHS +0 76000 0 00002    02314 ADD +0 40000 1 77306    02315 STO +0 60100 1 77306
                 OR WHENEVER TO(J).GE.FROM(I)                                       267  LM00334
 02316 TRA +0 02000 0 02332    02317 LXA +0 53400 1 00277    02320 LXA +0 53400 2 00276    02321 CLA +0 50000 1 77306
 02322 SUB +0 40200 2 77333    02323 TZE +0 10000 0 02325    02324 TMI -0 12000 0 02332
                 TO(J)=FROM(I)-1                                                    268  LM00335
 02325 LXA +0 53400 1 00276    02326 CLA +0 50000 1 77333    02327 SUB +0 40200 0 00447    02330 LXA +0 53400 1 00277
 02331 STO +0 60100 1 77306
                 END OF CONDITIONAL                                                 269  LM00336
                 WHENEVER FROM(J).G.TO(I)                                           270  LM00338
 02332 LXA +0 53400 1 00277    02333 LXA +0 53400 2 00276    02334 CLA +0 50000 1 77333    02335 SUB +0 40200 2 77306
 02336 TZE +0 10000 0 02351    02337 TMI -0 12000 0 02351
                 FROM(J)=FROM(J)-(TO(I)-FROM(I)+1)                                  271  LM00339
 02340 LXA +0 53400 1 00276    02341 CLA +0 50000 1 77306    02342 SUB +0 40200 2 77333    02343 ADD +0 40000 0 00447
 02344 LXA +0 53400 1 00277    02345 CHS +0 76000 0 00002    02346 ADD +0 40000 1 77333    02347 STO +0 60100 1 77333
                 OR WHENEVER FROM(J).GE.FROM(I)                                     272  LM00340
 02350 TRA +0 02000 0 02361    02351 LXA +0 53400 1 00277    02352 LXA +0 53400 2 00276    02353 CLA +0 50000 1 77333
 02354 SUB +0 40200 2 77333    02355 TZE +0 10000 0 02357    02356 TMI -0 12000 0 02361
                 FROM(J)=FROM(I)                                                    273  LM00341
 02357 CLA +0 50000 2 77333    02360 STO +0 60100 1 77333
      DF         END OF CONDITIONAL                                                 274  LM00342
 02361 TRA +0 02000 0 02271
                 FUNCTION RETURN                                                    275  LM00344
 02362 TRA +0 02000 0 02370
                 END OF FUNCTION                                                    276  LM00345
 02363 TSX +0 07400 4 00012    02364 TXH +3 00000 0 00000    02365 SXD -0 63400 1 02364    02366 SXA +0 63400 4 02370
 02367 TRA +0 02000 2 00001    02370 AXT +0 77400 4 00000    02371 LXA +0 53400 2 02364    02372 LXD -0 53400 1 02364
 02373 TRA +0 02000 4 00001
                 INTERNAL FUNCTION                                                  277  LM00349
 02374 TRA +0 02000 0 02454
                 ENTRY TO INSFIX.                                                   278  LM00350
 02375 TRA +0 02000 0 02400    00045 TTR +0 02100 0 02376    02376 SXA +0 63400 2 02444    02377 TSX +0 07400 2 02444
                 IBEFOR=FROM(I)                                                     279  LM00351
 02400 LXA +0 53400 2 00276    02401 CLA +0 50000 2 77333    02402 STO +0 60100 0 00275
                 THROUGH IF, FOR J=I,1,J.G.MAX                                      280  LM00352
 02403 CLA +0 50000 0 00276    02404 STO +0 60100 0 00277    02405 TRA +0 02000 0 02411    02406 CLA +0 50000 0 00277
 02407 ADD +0 40000 0 00447    02410 STO +0 60100 0 00277    02411 CLA +0 50000 0 00277    02412 SUB +0 40200 0 77334
 02413 TZE +0 10000 0 02415    02414 TPL +0 12000 0 02442
                 WHENEVER FROM(J).GE.IBEFOR                                         281  LM00354
 02415 LXA +0 53400 1 00277    02416 CLA +0 50000 1 77333    02417 SUB +0 40200 0 00275    02420 TZE +0 10000 0 02422
 02421 TMI -0 12000 0 02431
                 FROM(J)=FROM(J)+1                                                  282  LM00355
 02422 CLA +0 50000 1 77333    02423 ADD +0 40000 0 00447    02424 STO +0 60100 1 77333
                 TO(J)=TO(J)+1                                                      283  LM00356
 02425 CLA +0 50000 1 77306    02426 ADD +0 40000 0 00447    02427 STO +0 60100 1 77306
                 OR WHENEVER TO(J).GE.IBEFOR                                        284  LM00357
 02430 TRA +0 02000 0 02441    02431 LXA +0 53400 1 00277    02432 CLA +0 50000 1 77306    02433 SUB +0 40200 0 00275
 02434 TZE +0 10000 0 02436    02435 TMI -0 12000 0 02441
                 TO(J)=TO(J)+1                                                      285  LM00358
 02436 CLA +0 50000 1 77306    02437 ADD +0 40000 0 00447    02440 STO +0 60100 1 77306
      IF         END OF CONDITIONAL                                                 286  LM00359
 02441 TRA +0 02000 0 02406
                 FUNCTION RETURN                                                    287  LM00361
 02442 TRA +0 02000 0 02450
                 END OF FUNCTION                                                    288  LM00362
 02443 TSX +0 07400 4 00012    02444 TXH +3 00000 0 00000    02445 SXD -0 63400 1 02444    02446 SXA +0 63400 4 02450
 02447 TRA +0 02000 2 00001    02450 AXT +0 77400 4 00000    02451 LXA +0 53400 2 02444    02452 LXD -0 53400 1 02444
 02453 TRA +0 02000 4 00001
                 INTERNAL FUNCTION                                                  289  LM00367
 02454 TRA +0 02000 0 02542
                 ENTRY TO CHANGE.                                                   290  LM00368
 02455 TRA +0 02000 0 02460    00041 TTR +0 02100 0 02456    02456 SXA +0 63400 2 02532    02457 TSX +0 07400 2 02532
                 GWORK.(BSS)                                                        291  LM00369
 02460 TSX +0 07400 4 00014    02461 TXH +3 00000 0 00075
                 THROUGH CHLOOP,FOR CHI=1,1,CHI.G.USES(0)                           292  LM00370
 02462 CLA +0 50000 0 00447    02463 STO +0 60100 0 00210    02464 TRA +0 02000 0 02470    02465 CLA +0 50000 0 00210
 02466 ADD +0 40000 0 00447    02467 STO +0 60100 0 00210    02470 CLA +0 50000 0 00210    02471 SUB +0 40200 0 77207
 02472 TZE +0 10000 0 02474    02473 TPL +0 12000 0 02502
      CHLOOP     WHENEVER USES(CHI).E.BSS,UNLOAD.                                   293  LM00371
 02474 LXA +0 53400 1 00210    02475 CLA +0 50000 1 77207    02476 SUB +0 40200 0 00075    02477 TNZ -0 10000 0 02501
 02500 TSX +0 07400 4 00032    02501 TRA +0 02000 0 02465
                 SYMTAB=BSS                                                         294  LM00372
 02502 CLA +0 50000 0 00075    02503 STO +0 60100 0 00435
                 BCD=BSS                                                            295  LM00373
 02504 CLA +0 50000 0 00075    02505 STO +0 60100 0 00073
                 WHENEVER FSTAT.(BSS).NE.0,DELETE.(BSS)                             296  LM00374
 02506 TSX +0 07400 4 00013    02507 TXH +3 00000 0 00075    02510 SUB +0 40200 0 00446    02511 TZE +0 10000 0 02514
 02512 TSX +0 07400 4 00010    02513 TXH +3 00000 0 00075
                 WHENEVER FSTAT.(BCD).NE.0,DELETE.(BCD)                             297  LM00375
 02514 TSX +0 07400 4 00013    02515 TXH +3 00000 0 00073    02516 SUB +0 40200 0 00446    02517 TZE +0 10000 0 02522
 02520 TSX +0 07400 4 00010    02521 TXH +3 00000 0 00073
                 WHENEVER FSTAT.(SYMTAB).NE.0,DELETE.(SYMTAB)                       298  LM00376
 02522 TSX +0 07400 4 00013    02523 TXH +3 00000 0 00435    02524 SUB +0 40200 0 00446    02525 TZE +0 10000 0 02530
 02526 TSX +0 07400 4 00010    02527 TXH +3 00000 0 00435
                 FUNCTION RETURN                                                    299  LM00377
 02530 TRA +0 02000 0 02536
                 END OF FUNCTION                                                    300  LM00378
 02531 TSX +0 07400 4 00012    02532 TXH +3 00000 0 00000    02533 SXD -0 63400 1 02532    02534 SXA +0 63400 4 02536
 02535 TRA +0 02000 2 00001    02536 AXT +0 77400 4 00000    02537 LXA +0 53400 2 02532    02540 LXD -0 53400 1 02532
 02541 TRA +0 02000 4 00001
                 END OF FUNCTION                                                    301  LM00379
 02542 TSX +0 07400 4 00012    02543 TXH +3 00000 0 00000    02544 SXD -0 63400 1 02543    02545 SXA +0 63400 4 02547
 02546 TRA +0 02000 2 00001    02547 AXT +0 77400 4 00000    02550 LXA +0 53400 2 02543    02551 LXD -0 53400 1 02543
 02552 TRA +0 02000 4 00001
1     MAD PROGRAM LISTING ... ... ...                 FILE     FOV   MAD            02/07/68    2000.4
-
                  EXTERNAL FUNCTION                                                               *001 LM00001
                  NORMAL MODE IS INTEGER                                                          *002 LM00002
                  BOOLEAN MODE8,ALL,ARGVAR,CHANGE,WSEEK                                           *003 LM00003
                  PROGRAM COMMON LIST(84),MAX,FROM(20),TO(20),                                    *004 LM00004
                1 FSUB(20),TSUB(20),USES(60),CURCOR,PATCH,SKIP                                    *004 LM00005
                  VECTOR VALUES CR=556060606060K                                                  *005 LM00006
                  VECTOR VALUES NAME=$****** SAVED$                                               *006 LM00007
                  VECTOR VALUES TXL=7K11                                                          *007 LM00008
                  VECTOR VALUES TTR=0021K8                                                        *008 LM00009
                  VECTOR VALUES FRESH=$*FRESH SAVED$                                              *009 LM00010
                                                                                                       LM00011
                 SET FORMAT FOR PRINTOUT                                                               LM00012
                                                                                                       LM00013
                  ENTRY TO FORMAT.                                                                *010 LM00014
                  SPACE.                                                                          *011 LM00015
      MOREF       GETNUM.(MODE)                                                                   *012 LM00016
                  SPACE.                                                                          *013 LM00017
                  GETFMT.(MODE)                                                                   *014 LM00018
                  SPACE.                                                                          *015 LM00019
                  WHENEVER LIST(LIST).NE.CR,TRANSFER TO MOREF                                     *016 LM00020
                  READY.                                                                          *017 LM00021
                                                                                                       LM00022
                 OPEN VARIABLES OF PROGRAM                                                             LM00023
                                                                                                       LM00024
                  ENTRY TO O.                                                                     *018 LM00025
                  GWORK.(CHECK)                                                                   *019 LM00026
                  FWRKBL.                                                                         *020 LM00027
                  LOAD.                                                                           *021 LM00028
                  ALL=ARGVAR.(MODE8)                                                              *022 LM00029
                  WHENEVER ALL.AND.FROM(1).E.$(NONE)$,TRANSFER TO NONE                            *023 LM00030
                  INTGO.(OPOUT)                                                                   *024 LM00031
                  THROUGH OPLOOP, FOR I=1,1,I.G.MAX                                               *025 LM00032
                                                                                                       LM00033
      OPMORE      LIST=0                                                                          *026 LM00034
                  ADDVAR.(FROM(I),FSUB(I))                                                        *027 LM00035
                  ADDCOM.(COM7)                                                                   *028 LM00036
                  VECTOR VALUES COM7=2,$= $                                                       *029 LM00037
                  JUNK=SYMTAB.(FROM(I))                                                           *030 LM00038
                  ABSLOC=JUNK.A.77777K-FSUB(I)                                                    *031 LM00039
                  WHENEVER MODE8                                                                  *032 LM00040
                  MODE=8                                                                          *033 LM00041
                  OTHERWISE                                                                       *034 LM00042
                  MODE=(JUNK.RS.15).A.7K                                                          *035 LM00043
                  END OF CONDITIONAL                                                              *036 LM00044
                  VAL=VAR.(ABSLOC)                                                                *037 LM00045
                  WHENEVER MODE.E.3,STEP.(VAL)                                                    *038 LM00046
                  ADDCON.(VAL,MODE)                                                               *039 LM00047
                  LIST=LIST+1                                                                     *040 LM00048
                  LIST(LIST)=$ $                                                                  *041 LM00049
                  TYPE.                                                                           *042 LM00050
                                                                                                       LM00051
                  READ.                                                                           *043 LM00052
                  WHENEVER LIST(LIST).E.$ $,SPACE.                                                *044 LM00053
                  WHENEVER LIST(LIST).NE.CR                                                       *045 LM00054
                  GETCON.(VALUE,MODE,OPMORE)                                                      *046 LM00055
                  SPACE.                                                                          *047 LM00056
                  WHENEVER LIST(LIST).NE.CR,SYNTAX.                                               *048 LM00057
                  SETVAR.(ABSLOC,VALUE)                                                           *049 LM00058
                  END OF CONDITIONAL                                                              *050 LM00059
                                                                                                       LM00060
                  WHENEVER FROM(I).NE.TO(I).OR.FSUB(I).NE.TSUB(I)                                 *051 LM00061
                  NEXVAR.(FROM(I),FSUB(I))                                                        *052 LM00062
                  TRANSFER TO OPMORE                                                              *053 LM00063
                  END OF CONDITIONAL                                                              *054 LM00064
      OPLOOP      CONTINUE                                                                        *055 LM00065
                  WHENEVER ALL,PRINT.(COM3)                                                       *056 LM00066
                  VECTOR VALUES COM3=11,$THAT'S ALL.$                                             *057 LM00067
                  INTNO.                                                                          *058 LM00068
                  WHENEVER ALL                                                                    *059 LM00069
      OPOUT       PRINT.(0)                                                                       *060 LM00070
                  END OF CONDITIONAL                                                              *061 LM00071
                  READY.                                                                          *062 LM00072
                                                                                                       LM00073
                 VARIFY VARIABLES OF PROGRAM                                                           LM00074
                                                                                                       LM00075
                  ENTRY TO V.                                                                     *063 LM00076
                  GWORK.(CHECK)                                                                   *064 LM00077
                  FWRKBL.                                                                         *065 LM00078
                  LOAD.                                                                           *066 LM00079
                                                                                                       LM00080
                  SAVE=LIST                                                                       *067 LM00081
                  SPACE.                                                                          *068 LM00082
                  WHENEVER LIST(LIST).E.$*$                                                       *069 LM00083
                  GETBCD.(NAME)                                                                   *070 LM00084
                  RTJUST.(NAME)                                                                   *071 LM00085
                  WSEEK.($SAVE$)                                                                  *072 LM00086
                  WSIZE.(SIZE)                                                                    *073 LM00087
                  THROUGH FIND, FOR I=1,1,I.G.SIZE                                                *074 LM00088
      FIND        WHENEVER NAME.E.WGET.(I),TRANSFER TO FOUND                                      *075 LM00089
                  LIST=0                                                                          *076 LM00090
                  ADDNAM.(NAME)                                                                   *077 LM00091
                  ADDCOM.(COM1)                                                                   *078 LM00092
                  CRTYPE.                                                                         *079 LM00093
                  VECTOR VALUES COM1=46,$ IS NOT A SAVED FILE.  Y$,                               *080 LM00094
                1 $OUR SAVED FILES ARE...$                                                        *080 LM00095
                  THROUGH PFILES,FOR I=1,1,I.G.SIZE                                               *081 LM00096
                  LIST=0                                                                          *082 LM00097
                  ADDNAM.(WGET.(I))                                                               *083 LM00098
      PFILES      CRTYPE.                                                                         *084 LM00099
                  PRINT.(COM2)                                                                    *085 LM00100
                  VECTOR VALUES COM2=10,$TRY AGAIN.$                                              *086 LM00101
                  READY.                                                                          *087 LM00102
      FOUND       CONTINUE                                                                        *088 LM00103
                  OTHERWISE                                                                       *089 LM00104
                  NAME=$*FRESH$                                                                   *090 LM00105
                  LIST=SAVE                                                                       *091 LM00106
                  END OF CONDITIONAL                                                              *092 LM00107
                                                                                                       LM00108
                  ALL=ARGVAR.(MODE8)                                                              *093 LM00109
                  WHENEVER ALL.AND.FROM(1).E.$(NONE)$,TRANSFER TO NONE                            *094 LM00110
                  CHANGE=0B                                                                       *095 LM00111
                  INTGO.(VBACK)                                                                   *096 LM00112
                  ORG.($(CMMN)$,CSTART,CCOUNT)                                                    *097 LM00113
                  ZERCOM=ENTRY.($(CMMN)$)                                                         *098 LM00114
                  CCOUNT=-CSTART+ZERCOM-316K                                                      *099 LM00115
                  MAP.($VAR$,VSTART,VCOUNT)                                                       *100 LM00116
                  VLAST=VSTART+VCOUNT-1                                                           *101 LM00117
                  THROUGH VLOOP,FOR I=1,1,I.G.MAX                                                 *102 LM00118
                                                                                                       LM00119
      VMORE       JUNK=SYMTAB.(FROM(I))                                                           *103 LM00120
                  ABSLOC=JUNK.A.77777K-FSUB(I)                                                    *104 LM00121
                  IS=VAR.(ABSLOC)                                                                 *105 LM00122
                                                                                                       LM00123
                  WHENEVER ABSLOC.GE.VSTART.AND.ABSLOC.LE.VLAST                                   *106 LM00124
                  LOOK=ABSLOC-VSTART+1                                                            *107 LM00125
                  WHENEVER .NOT.WSEEK.($TEMP$),                                                   *108 LM00126
                1 WSETUP.($TEMP$,NAME,SKIP+VSTART+1,VCOUNT)                                       *108 LM00127
                  OTHERWISE                                                                       *109 LM00128
                  LOOK=CCOUNT+ABSLOC-77461K                                                       *110 LM00129
                  WHENEVER .NOT.WSEEK.($CTEMP$),                                                  *111 LM00130
                1 WSETUP.($CTEMP$,NAME,SKIP+CSTART+1,CCOUNT)                                      *111 LM00131
                  END OF CONDITIONAL                                                              *112 LM00132
                  WAS=WGET.(LOOK)                                                                 *113 LM00133
                                                                                                       LM00134
                  WHENEVER IS.NE.WAS                                                              *114 LM00135
                  MODE=(JUNK.RS.15).A.7K                                                          *115 LM00136
                                                                                                       LM00137
                  WHENEVER IS.A.700000777777K.E.WAS.A.700000777777K                               *116 LM00138
                1 .AND.MODE.E.4,TRANSFER TO DONT                                                  *116 LM00139
                                                                                                       LM00140
                  WHENEVER MODE.E.3                                                               *117 LM00141
                  STEP.(IS)                                                                       *118 LM00142
                  STEP.(WAS)                                                                      *119 LM00143
                  WHENEVER IS.E.WAS, TRANSFER TO DONT                                             *120 LM00144
                  END OF CONDITIONAL                                                              *121 LM00145
                                                                                                       LM00146
                  CHANGE=1B                                                                       *122 LM00147
                  LIST=0                                                                          *123 LM00148
                  ADDVAR.(FROM(I),FSUB(I))                                                        *124 LM00149
                  ADDCOM.(COM7)                                                                   *125 LM00150
                  WHENEVER MODE8,MODE=8                                                           *126 LM00151
                  ADDCON.(IS,MODE)                                                                *127 LM00152
                  WHENEVER WAS.NE.0                                                               *128 LM00153
                  ADDCOM.(WASCOM)                                                                 *129 LM00154
                  VECTOR VALUES WASCOM=6,$, WAS $                                                 *130 LM00155
                  ADDCON.(WAS,MODE)                                                               *131 LM00156
                  END OF CONDITIONAL                                                              *132 LM00157
                  CRTYPE.                                                                         *133 LM00158
                  END OF CONDITIONAL                                                              *134 LM00159
                                                                                                       LM00160
      DONT        WHENEVER FROM(I).NE.TO(I).OR.FSUB(I).NE.TSUB(I)                                 *135 LM00161
                  NEXVAR.(FROM(I),FSUB(I))                                                        *136 LM00162
                  TRANSFER TO VMORE                                                               *137 LM00163
      VLOOP       END OF CONDITIONAL                                                              *138 LM00164
                                                                                                       LM00165
                  WHENEVER .NOT.CHANGE                                                            *139 LM00166
                  PRINT.(COM4)                                                                    *140 LM00167
                  VECTOR VALUES COM4=10,$NO CHANGE.$                                              *141 LM00168
                  OR WHENEVER ALL                                                                 *142 LM00169
                  PRINT.(COM3)                                                                    *143 LM00170
                  OR WHENEVER IS.E.WAS                                                            *144 LM00171
                  PRINT.(COM5)                                                                    *145 LM00172
                  VECTOR VALUES COM5=15,$THE REST MATCH.$                                         *146 LM00173
                  END OF CONDITIONAL                                                              *147 LM00174
                  INTNO.                                                                          *148 LM00175
      VBACK       WDITCH.($TEMP$)                                                                 *149 LM00176
                  WDITCH.($CTEMP$)                                                                *150 LM00177
                  PRINT.(0)                                                                       *151 LM00178
                  READY.                                                                          *152 LM00179
                                                                                                       LM00180
      NONE        LIST=0                                                                          *153 LM00181
                  GWORK.(WORK)                                                                    *154 LM00182
                  ADDNAM.(WORK)                                                                   *155 LM00183
                  ADDCOM.(COM6)                                                                   *156 LM00184
                  VECTOR VALUES COM6=18,$ HAS NO VARIABLES.$                                      *157 LM00185
                  CRTYPE.                                                                         *158 LM00186
                  READY.                                                                          *159 LM00187
                                                                                                       LM00188
                 STEP THROUGH ONE FUNCTION VARIABLE WHOSE VALUE IS                                     LM00189
                 A TXL TO FIND THE EQUIVALENT TTR VALUE, IF ANY.                                       LM00190
                                                                                                       LM00191
                  INTERNAL FUNCTION (FN)                                                          *160 LM00192
                  ENTRY TO STEP.                                                                  *161 LM00193
                  WHENEVER FN.A.7777777K5.NE.TXL,FUNCTION RETURN                                  *162 LM00194
                  SNAME=TVNAME.(FN)                                                               *163 LM00195
                  WHENEVER SNAME.NE.0                                                             *164 LM00196
                  FN=TTR.V.ENTRY.(SNAME)                                                          *165 LM00197
                  FUNCTION RETURN                                                                 *166 LM00198
                  END OF CONDITIONAL                                                              *167 LM00199
                  SLOC=FN.A.77777K                                                                *168 LM00200
                  WHENEVER ORGNAM.(SLOC).E.$(END)$,FUNCTION RETURN                                *169 LM00201
                  WSETUP.($TEMPS$,FRESH,SLOC+SKIP+1,1)                                            *170 LM00202
                  FN=WGET.(1)                                                                     *171 LM00203
                  WDITCH.($TEMPS$)                                                                *172 LM00204
                  FUNCTION RETURN                                                                 *173 LM00205
                  END OF FUNCTION                                                                 *174 LM00206
                                                                                                       LM00207
                  END OF FUNCTION                                                                 *175 LM00208
1MAD PROGRAM,TYPE NOV 1963      (ALL NUMBERS ARE OCTAL)
0TOTAL LOCATIONS   01224 TRANSFER VECTOR LENGTH  00045 PROGRAM BEGINS    00204 FIRST UNUSED COMMON/ERASABLE  77107
0 PROGRAM IS AN EXTERNAL FUNCTION.   THE FOLLOWING ARE ENTRIES
      V      00441   0        O      00225   0        FORMAT 00205   0
0VARIABLE STORAGE (A=ARRAY,C=COMMON,E=ERASABLE,DIGIT=MODE)
      ABSLOC 00057   1        CR     00120 A 1        LIST   77461 AC1        PFILES 00046   4        VALUE  00143   1
      ALL    00060   2        CSTART 00121   1        LOOK   00127   1        SAVE   00134   1        VBACK  00055   4
      CCOUNT 00061   1        CURCOR 77112  C1        MAX    77334  C1        SIZE   00135   1        VCOUNT 00144   1
      CHANGE 00062   2        DONT   00047   4        MODE8  00130   2        SKIP   77110  C1        VLAST  00145   1
      CHECK  00063   1        FIND   00046   4        MODE   00131   1        SLOC   00136   1        VLOOP  00046   4
      COM1   00074 A 1        FOUND  00050   4        MOREF  00051   4        SNAME  00137   1        VMORE  00056   4
      COM2   00077 A 1        FRESH  00123 A 1        NAME   00133 A 1        TO     77306 AC1        VSTART 00146   1
      COM3   00102 A 1        FROM   77333 AC1        NONE   00052   4        TSUB   77234 AC1        WASCOM 00150 A 1
      COM4   00105 A 1        FSUB   77261 AC1        OPLOOP 00046   4        TTR    00140 A 1        WAS    00151   1
      COM5   00111 A 1        I      00124   1        OPMORE 00053   4        TXL    00141 A 1        WORK   00152   1
      COM6   00115 A 1        IS     00125   1        OPOUT  00054   4        USES   77207 AC1        ZERCOM 00153   1
      COM7   00117 A 1        JUNK   00126   1        PATCH  77111  C1        VAL    00142   1
0FUNCTION DICTIONARY
      ADDCOM 00000   1        ADDCON 00001   1        ADDNAM 00002   1        ADDVAR 00003   1        ARGVAR 00004   2
      CRTYPE 00005   1        ENTRY  00006   1        EXIT   00007   1        FWRKBL 00010   1        GETBCD 00011   1
      GETCON 00012   1        GETFMT 00013   1        GETNUM 00014   1        GWORK  00015   1        INTGO  00016   1
      INTNO  00017   1        LOAD   00020   1        MAP    00021   1        NEXVAR 00022   1        ORGNAM 00023   1
      ORG    00024   1        PRINT  00025   1        READ   00026   1        READY  00027   1        RTJUST 00030   1
      SETVAR 00031   1        SPACE  00032   1        SYMTAB 00033   1        SYNTAX 00034   1        TVNAME 00035   1
      TYPE   00036   1        VAR    00037   1        WDITCH 00040   1        WGET   00041   1        WSEEK  00042   2
      WSETUP 00043   1        WSIZE  00044   1        STEP   00045   1
0ABSOLUTE CONSTANTS
 00175 -232544476260     00201 -342545243460     00203 -377777700000     00177 -300000777777     00157 +000000000004
 00167 +236325444760     00164 +000000077461     00174 -232544476060     00176 -252151606060     00163 +000000000316
 00200 -342344444534     00170 -142651256230     00173 -222165256060     00171 -146060606060     00172 -206060606060
 00156 +000000000003     00160 +000000000007     00162 +000000000017     00161 +000000000010     00165 +000000077777
 00154 +000000000000     00202 -344546452534     00155 +000000000001     00166 +233000000000
0STATEMENT DICTIONARY
 00047 TXL -301032001022       00050 TXL -300544000544       00051 TXL -300212000210       00052 TXL -301100001076
 00053 TXL -300262000260       00054 TXL -300437000435       00055 TXL -301071001067       00056 TXL -300632000623
0PROGRAM
                 EXTERNAL FUNCTION                                                  001  LM00001
                 NORMAL MODE IS INTEGER                                             002  LM00002
                 BOOLEAN MODE8,ALL,ARGVAR,CHANGE,WSEEK                              003  LM00003
                 PROGRAM COMMON LIST(84),MAX,FROM(20),TO(20),                       004  LM00004
                1FSUB(20),TSUB(20),USES(60),CURCOR,PATCH,SKIP                       004  LM00005
                 VECTOR VALUES CR=556060606060K                                     005  LM00006
 00120     -1 56060 6 06060
                 VECTOR VALUES NAME=$****** SAVED$                                  006  LM00007
 00132     -2 06221 6 52524    00133     -1 45454 5 45454
                 VECTOR VALUES TXL=7K11                                             007  LM00008
 00141     -3 00000 0 00000
                 VECTOR VALUES TTR=0021K8                                           008  LM00009
 00140     +0 02100 0 00000
                 VECTOR VALUES FRESH=$*FRESH SAVED$                                 009  LM00010
 00122     -2 06221 6 52524    00123     -1 42651 2 56230
                 ENTRY TO FORMAT.                                                   010  LM00014
 00204 TRA +0 02000 0 00207    00205 SXA +0 63400 2 01210    00206 TSX +0 07400 2 01210
                 SPACE.                                                             011  LM00015
 00207 TSX +0 07400 4 00032
      MOREF      GETNUM.(MODE)                                                      012  LM00016
 00210 TSX +0 07400 4 00014    00211 TXH +3 00000 0 00131
                 SPACE.                                                             013  LM00017
 00212 TSX +0 07400 4 00032
                 GETFMT.(MODE)                                                      014  LM00018
 00213 TSX +0 07400 4 00013    00214 TXH +3 00000 0 00131
                 SPACE.                                                             015  LM00019
 00215 TSX +0 07400 4 00032
                 WHENEVER LIST(LIST).NE.CR,TRANSFER TO MOREF                        016  LM00020
 00216 LXA +0 53400 1 77461    00217 CLA +0 50000 1 77461    00220 SUB +0 40200 0 00120    00221 TZE +0 10000 0 00223
 00222 TRA +0 02000 0 00051
                 READY.                                                             017  LM00021
 00223 TSX +0 07400 4 00027
                 ENTRY TO O.                                                        018  LM00025
 00224 TRA +0 02000 0 00227    00225 SXA +0 63400 2 01210    00226 TSX +0 07400 2 01210
                 GWORK.(CHECK)                                                      019  LM00026
 00227 TSX +0 07400 4 00015    00230 TXH +3 00000 0 00063
                 FWRKBL.                                                            020  LM00027
 00231 TSX +0 07400 4 00010
                 LOAD.                                                              021  LM00028
 00232 TSX +0 07400 4 00020
                 ALL=ARGVAR.(MODE8)                                                 022  LM00029
 00233 TSX +0 07400 4 00004    00234 TXH +3 00000 0 00130    00235 STO +0 60100 0 00060
                 WHENEVER ALL.AND.FROM(1).E.$(NONE)$,TRANSFER TO NONE               023  LM00030
 00236 CLA +0 50000 0 77332    00237 SUB +0 40200 0 00202    00240 TNZ -0 10000 0 00244    00241 NZT -0 52000 0 00060
 00242 TRA +0 02000 0 00244    00243 TRA +0 02000 0 00052
                 INTGO.(OPOUT)                                                      024  LM00031
 00244 TSX +0 07400 4 00016    00245 TXH +3 00000 0 00054
                 THROUGH OPLOOP, FOR I=1,1,I.G.MAX                                  025  LM00032
 00246 CLA +0 50000 0 00155    00247 STO +0 60100 0 00124    00250 TRA +0 02000 0 00254    00251 CLA +0 50000 0 00124
 00252 ADD +0 40000 0 00155    00253 STO +0 60100 0 00124    00254 CLA +0 50000 0 00124    00255 SUB +0 40200 0 77334
 00256 TZE +0 10000 0 00260    00257 TPL +0 12000 0 00426
      OPMORE     LIST=0                                                             026  LM00034
 00260 CLA +0 50000 0 00154    00261 STO +0 60100 0 77461
                 ADDVAR.(FROM(I),FSUB(I))                                           027  LM00035
 00262 CLA +0 50000 0 00124    00263 SUB +0 40200 0 00264    00264 TXH +3 00000 0 77261    00265 STA +0 62100 0 00274
 00266 CLA +0 50000 0 00124    00267 SUB +0 40200 0 00270    00270 TXH +3 00000 0 77333    00271 STA +0 62100 0 00273
 00272 TSX +0 07400 4 00003    00273 TXH +3 00000 0 00000    00274 TXH +3 00000 0 00000
                 ADDCOM.(COM7)                                                      028  LM00036
 00275 TSX +0 07400 4 00000    00276 TXH +3 00000 0 00117
                 VECTOR VALUES COM7=2,$= $                                          029  LM00037
 00116     +1 36060 6 06060    00117     +0 00000 0 00002
                 JUNK=SYMTAB.(FROM(I))                                              030  LM00038
 00277 CLA +0 50000 0 00124    00300 SUB +0 40200 0 00301    00301 TXH +3 00000 0 77333    00302 STA +0 62100 0 00304
 00303 TSX +0 07400 4 00033    00304 TXH +3 00000 0 00000    00305 STO +0 60100 0 00126
                 ABSLOC=JUNK.A.77777K-FSUB(I)                                       031  LM00039
 00306 CAL -0 50000 0 00126    00307 ANA -0 32000 0 00165    00310 LXA +0 53400 2 00124    00311 SLW +0 60200 0 01220
 00312 CLA +0 50000 0 01220    00313 SUB +0 40200 2 77261    00314 STO +0 60100 0 00057
                 WHENEVER MODE8                                                     032  LM00040
 00315 NZT -0 52000 0 00130    00316 TRA +0 02000 0 00322
                 MODE=8                                                             033  LM00041
 00317 CLA +0 50000 0 00161    00320 STO +0 60100 0 00131
                 OTHERWISE                                                          034  LM00042
 00321 TRA +0 02000 0 00330
                 MODE=(JUNK.RS.15).A.7K                                             035  LM00043
 00322 CAL -0 50000 0 00162    00323 STA +0 62100 0 00325    00324 CAL -0 50000 0 00126    00325 LGR -0 76500 0 00000
 00326 ANA -0 32000 0 00160    00327 SLW +0 60200 0 00131
                 END OF CONDITIONAL                                                 036  LM00044
                 VAL=VAR.(ABSLOC)                                                   037  LM00045
 00330 TSX +0 07400 4 00037    00331 TXH +3 00000 0 00057    00332 STO +0 60100 0 00142
                 WHENEVER MODE.E.3,STEP.(VAL)                                       038  LM00046
 00333 CLA +0 50000 0 00131    00334 SUB +0 40200 0 00156    00335 TNZ -0 10000 0 00340    00336 TSX +0 07400 4 00045
 00337 TXH +3 00000 0 00142
                 ADDCON.(VAL,MODE)                                                  039  LM00047
 00340 TSX +0 07400 4 00001    00341 TXH +3 00000 0 00142    00342 TXH +3 00000 0 00131
                 LIST=LIST+1                                                        040  LM00048
 00343 CLA +0 50000 0 77461    00344 ADD +0 40000 0 00155    00345 STO +0 60100 0 77461
                 LIST(LIST)=$ $                                                     041  LM00049
 00346 LXA +0 53400 1 77461    00347 CLA +0 50000 0 00172    00350 STO +0 60100 1 77461
                 TYPE.                                                              042  LM00050
 00351 TSX +0 07400 4 00036
                 READ.                                                              043  LM00052
 00352 TSX +0 07400 4 00026
                 WHENEVER LIST(LIST).E.$ $,SPACE.                                   044  LM00053
 00353 LXA +0 53400 1 77461    00354 CLA +0 50000 1 77461    00355 SUB +0 40200 0 00172    00356 TNZ -0 10000 0 00360
 00357 TSX +0 07400 4 00032
                 WHENEVER LIST(LIST).NE.CR                                          045  LM00054
 00360 LXA +0 53400 1 77461    00361 CLA +0 50000 1 77461    00362 SUB +0 40200 0 00120    00363 TZE +0 10000 0 00401
                 GETCON.(VALUE,MODE,OPMORE)                                         046  LM00055
 00364 TSX +0 07400 4 00012    00365 TXH +3 00000 0 00143    00366 TXH +3 00000 0 00131    00367 TXH +3 00000 0 00053
                 SPACE.                                                             047  LM00056
 00370 TSX +0 07400 4 00032
                 WHENEVER LIST(LIST).NE.CR,SYNTAX.                                  048  LM00057
 00371 LXA +0 53400 1 77461    00372 CLA +0 50000 1 77461    00373 SUB +0 40200 0 00120    00374 TZE +0 10000 0 00376
 00375 TSX +0 07400 4 00034
                 SETVAR.(ABSLOC,VALUE)                                              049  LM00058
 00376 TSX +0 07400 4 00031    00377 TXH +3 00000 0 00057    00400 TXH +3 00000 0 00143
                 END OF CONDITIONAL                                                 050  LM00059
                 WHENEVER FROM(I).NE.TO(I).OR.FSUB(I).NE.TSUB(I)                    051  LM00061
 00401 LXA +0 53400 1 00124    00402 LXA +0 53400 2 00124    00403 CLA +0 50000 1 77261    00404 SUB +0 40200 2 77234
 00405 TNZ -0 10000 0 00411    00406 CLA +0 50000 1 77333    00407 SUB +0 40200 2 77306    00410 TZE +0 10000 0 00425
                 NEXVAR.(FROM(I),FSUB(I))                                           052  LM00062
 00411 CLA +0 50000 0 00124    00412 SUB +0 40200 0 00413    00413 TXH +3 00000 0 77261    00414 STA +0 62100 0 00423
 00415 CLA +0 50000 0 00124    00416 SUB +0 40200 0 00417    00417 TXH +3 00000 0 77333    00420 STA +0 62100 0 00422
 00421 TSX +0 07400 4 00022    00422 TXH +3 00000 0 00000    00423 TXH +3 00000 0 00000
                 TRANSFER TO OPMORE                                                 053  LM00063
 00424 TRA +0 02000 0 00053
                 END OF CONDITIONAL                                                 054  LM00064
      OPLOOP     CONTINUE                                                           055  LM00065
 00425 TRA +0 02000 0 00251
                 WHENEVER ALL,PRINT.(COM3)                                          056  LM00066
 00426 NZT -0 52000 0 00060    00427 TRA +0 02000 0 00432    00430 TSX +0 07400 4 00025    00431 TXH +3 00000 0 00102
                 VECTOR VALUES COM3=11,$THAT'S ALL.$                                057  LM00067
 00100     -2 02143 4 33360    00101     -2 33021 6 31462    00102     +0 00000 0 00013
                 INTNO.                                                             058  LM00068
 00432 TSX +0 07400 4 00017
                 WHENEVER ALL                                                       059  LM00069
 00433 NZT -0 52000 0 00060    00434 TRA +0 02000 0 00437
      OPOUT      PRINT.(0)                                                          060  LM00070
 00435 TSX +0 07400 4 00025    00436 TXH +3 00000 0 00154
                 END OF CONDITIONAL                                                 061  LM00071
                 READY.                                                             062  LM00072
 00437 TSX +0 07400 4 00027
                 ENTRY TO V.                                                        063  LM00076
 00440 TRA +0 02000 0 00443    00441 SXA +0 63400 2 01210    00442 TSX +0 07400 2 01210
                 GWORK.(CHECK)                                                      064  LM00077
 00443 TSX +0 07400 4 00015    00444 TXH +3 00000 0 00063
                 FWRKBL.                                                            065  LM00078
 00445 TSX +0 07400 4 00010
                 LOAD.                                                              066  LM00079
 00446 TSX +0 07400 4 00020
                 SAVE=LIST                                                          067  LM00081
 00447 CLA +0 50000 0 77461    00450 STO +0 60100 0 00134
                 SPACE.                                                             068  LM00082
 00451 TSX +0 07400 4 00032
                 WHENEVER LIST(LIST).E.$*$                                          069  LM00083
 00452 LXA +0 53400 1 77461    00453 CLA +0 50000 1 77461    00454 SUB +0 40200 0 00171    00455 TNZ -0 10000 0 00545
                 GETBCD.(NAME)                                                      070  LM00084
 00456 TSX +0 07400 4 00011    00457 TXH +3 00000 0 00133
                 RTJUST.(NAME)                                                      071  LM00085
 00460 TSX +0 07400 4 00030    00461 TXH +3 00000 0 00133
                 WSEEK.($SAVE$)                                                     072  LM00086
 00462 TSX +0 07400 4 00042    00463 TXH +3 00000 0 00173
                 WSIZE.(SIZE)                                                       073  LM00087
 00464 TSX +0 07400 4 00044    00465 TXH +3 00000 0 00135
                 THROUGH FIND, FOR I=1,1,I.G.SIZE                                   074  LM00088
 00466 CLA +0 50000 0 00155    00467 STO +0 60100 0 00124    00470 TRA +0 02000 0 00474    00471 CLA +0 50000 0 00124
 00472 ADD +0 40000 0 00155    00473 STO +0 60100 0 00124    00474 CLA +0 50000 0 00124    00475 SUB +0 40200 0 00135
 00476 TZE +0 10000 0 00500    00477 TPL +0 12000 0 00507
      FIND       WHENEVER NAME.E.WGET.(I),TRANSFER TO FOUND                         075  LM00089
 00500 TSX +0 07400 4 00041    00501 TXH +3 00000 0 00124    00502 CHS +0 76000 0 00002    00503 ADD +0 40000 0 00133
 00504 TNZ -0 10000 0 00506    00505 TRA +0 02000 0 00050    00506 TRA +0 02000 0 00471
                 LIST=0                                                             076  LM00090
 00507 CLA +0 50000 0 00154    00510 STO +0 60100 0 77461
                 ADDNAM.(NAME)                                                      077  LM00091
 00511 TSX +0 07400 4 00002    00512 TXH +3 00000 0 00133
                 ADDCOM.(COM1)                                                      078  LM00092
 00513 TSX +0 07400 4 00000    00514 TXH +3 00000 0 00074
                 CRTYPE.                                                            079  LM00093
 00515 TSX +0 07400 4 00005
                 VECTOR VALUES COM1=46,$ IS NOT A SAVED FILE.  Y$,                  080  LM00094
                1$OUR SAVED FILES ARE...$                                           080  LM00095
 00064     +2 53333 3 36060    00065     -0 32562 6 02151    00066     -2 52524 6 02631    00067     -0 66451 6 06221
 00070     -0 32533 6 06070    00071     -2 52524 6 02631    00072     -2 36021 6 06221    00073     -2 03162 6 04546
 00074     +0 00000 0 00056
                 THROUGH PFILES,FOR I=1,1,I.G.SIZE                                  081  LM00096
 00516 CLA +0 50000 0 00155    00517 STO +0 60100 0 00124    00520 TRA +0 02000 0 00524    00521 CLA +0 50000 0 00124
 00522 ADD +0 40000 0 00155    00523 STO +0 60100 0 00124    00524 CLA +0 50000 0 00124    00525 SUB +0 40200 0 00135
 00526 TZE +0 10000 0 00530    00527 TPL +0 12000 0 00541
                 LIST=0                                                             082  LM00097
 00530 CLA +0 50000 0 00154    00531 STO +0 60100 0 77461
                 ADDNAM.(WGET.(I))                                                  083  LM00098
 00532 TSX +0 07400 4 00041    00533 TXH +3 00000 0 00124    00534 STO +0 60100 0 01220    00535 TSX +0 07400 4 00002
 00536 TXH +3 00000 0 01220
      PFILES     CRTYPE.                                                            084  LM00099
 00537 TSX +0 07400 4 00005    00540 TRA +0 02000 0 00521
                 PRINT.(COM2)                                                       085  LM00100
 00541 TSX +0 07400 4 00025    00542 TXH +3 00000 0 00077
                 VECTOR VALUES COM2=10,$TRY AGAIN.$                                 086  LM00101
 00075     +2 13145 3 36060    00076     -2 35170 6 02127    00077     +0 00000 0 00012
                 READY.                                                             087  LM00102
 00543 TSX +0 07400 4 00027
      FOUND      CONTINUE                                                           088  LM00103
                 OTHERWISE                                                          089  LM00104
 00544 TRA +0 02000 0 00551
                 NAME=$*FRESH$                                                      090  LM00105
 00545 CLA +0 50000 0 00170    00546 STO +0 60100 0 00133
                 LIST=SAVE                                                          091  LM00106
 00547 CLA +0 50000 0 00134    00550 STO +0 60100 0 77461
                 END OF CONDITIONAL                                                 092  LM00107
                 ALL=ARGVAR.(MODE8)                                                 093  LM00109
 00551 TSX +0 07400 4 00004    00552 TXH +3 00000 0 00130    00553 STO +0 60100 0 00060
                 WHENEVER ALL.AND.FROM(1).E.$(NONE)$,TRANSFER TO NONE               094  LM00110
 00554 CLA +0 50000 0 77332    00555 SUB +0 40200 0 00202    00556 TNZ -0 10000 0 00562    00557 NZT -0 52000 0 00060
 00560 TRA +0 02000 0 00562    00561 TRA +0 02000 0 00052
                 CHANGE=0B                                                          095  LM00111
 00562 CLA +0 50000 0 00154    00563 STO +0 60100 0 00062
                 INTGO.(VBACK)                                                      096  LM00112
 00564 TSX +0 07400 4 00016    00565 TXH +3 00000 0 00055
                 ORG.($(CMMN)$,CSTART,CCOUNT)                                       097  LM00113
 00566 TSX +0 07400 4 00024    00567 TXH +3 00000 0 00200    00570 TXH +3 00000 0 00121    00571 TXH +3 00000 0 00061
                 ZERCOM=ENTRY.($(CMMN)$)                                            098  LM00114
 00572 TSX +0 07400 4 00006    00573 TXH +3 00000 0 00200    00574 STO +0 60100 0 00153
                 CCOUNT=-CSTART+ZERCOM-316K                                         099  LM00115
 00575 CLS +0 50200 0 00121    00576 ADD +0 40000 0 00153    00577 SUB +0 40200 0 00163    00600 STO +0 60100 0 00061
                 MAP.($VAR$,VSTART,VCOUNT)                                          100  LM00116
 00601 TSX +0 07400 4 00021    00602 TXH +3 00000 0 00176    00603 TXH +3 00000 0 00146    00604 TXH +3 00000 0 00144
                 VLAST=VSTART+VCOUNT-1                                              101  LM00117
 00605 CLA +0 50000 0 00146    00606 ADD +0 40000 0 00144    00607 SUB +0 40200 0 00155    00610 STO +0 60100 0 00145
                 THROUGH VLOOP,FOR I=1,1,I.G.MAX                                    102  LM00118
 00611 CLA +0 50000 0 00155    00612 STO +0 60100 0 00124    00613 TRA +0 02000 0 00617    00614 CLA +0 50000 0 00124
 00615 ADD +0 40000 0 00155    00616 STO +0 60100 0 00124    00617 CLA +0 50000 0 00124    00620 SUB +0 40200 0 77334
 00621 TZE +0 10000 0 00623    00622 TPL +0 12000 0 01047
      VMORE      JUNK=SYMTAB.(FROM(I))                                              103  LM00120
 00623 CLA +0 50000 0 00124    00624 SUB +0 40200 0 00625    00625 TXH +3 00000 0 77333    00626 STA +0 62100 0 00630
 00627 TSX +0 07400 4 00033    00630 TXH +3 00000 0 00000    00631 STO +0 60100 0 00126
                 ABSLOC=JUNK.A.77777K-FSUB(I)                                       104  LM00121
 00632 CAL -0 50000 0 00126    00633 ANA -0 32000 0 00165    00634 LXA +0 53400 2 00124    00635 SLW +0 60200 0 01220
 00636 CLA +0 50000 0 01220    00637 SUB +0 40200 2 77261    00640 STO +0 60100 0 00057
                 IS=VAR.(ABSLOC)                                                    105  LM00122
 00641 TSX +0 07400 4 00037    00642 TXH +3 00000 0 00057    00643 STO +0 60100 0 00125
                 WHENEVER ABSLOC.GE.VSTART.AND.ABSLOC.LE.VLAST                      106  LM00124
 00644 CLA +0 50000 0 00057    00645 SUB +0 40200 0 00145    00646 TZE +0 10000 0 00650    00647 TPL +0 12000 0 00675
 00650 CLA +0 50000 0 00057    00651 SUB +0 40200 0 00146    00652 TZE +0 10000 0 00654    00653 TMI -0 12000 0 00675
                 LOOK=ABSLOC-VSTART+1                                               107  LM00125
 00654 CLA +0 50000 0 00057    00655 SUB +0 40200 0 00146    00656 ADD +0 40000 0 00155    00657 STO +0 60100 0 00127
                 WHENEVER .NOT.WSEEK.($TEMP$),                                      108  LM00126
                1WSETUP.($TEMP$,NAME,SKIP+VSTART+1,VCOUNT)                          108  LM00127
 00660 TSX +0 07400 4 00042    00661 TXH +3 00000 0 00174    00662 TNZ -0 10000 0 00674    00663 CLA +0 50000 0 77110
 00664 ADD +0 40000 0 00146    00665 ADD +0 40000 0 00155    00666 STO +0 60100 0 01220    00667 TSX +0 07400 4 00043
 00670 TXH +3 00000 0 00174    00671 TXH +3 00000 0 00133    00672 TXH +3 00000 0 01220    00673 TXH +3 00000 0 00144
                 OTHERWISE                                                          109  LM00128
 00674 TRA +0 02000 0 00715
                 LOOK=CCOUNT+ABSLOC-77461K                                          110  LM00129
 00675 CLA +0 50000 0 00061    00676 ADD +0 40000 0 00057    00677 SUB +0 40200 0 00164    00700 STO +0 60100 0 00127
                 WHENEVER .NOT.WSEEK.($CTEMP$),                                     111  LM00130
                1WSETUP.($CTEMP$,NAME,SKIP+CSTART+1,CCOUNT)                         111  LM00131
 00701 TSX +0 07400 4 00042    00702 TXH +3 00000 0 00167    00703 TNZ -0 10000 0 00715    00704 CLA +0 50000 0 77110
 00705 ADD +0 40000 0 00121    00706 ADD +0 40000 0 00155    00707 STO +0 60100 0 01220    00710 TSX +0 07400 4 00043
 00711 TXH +3 00000 0 00167    00712 TXH +3 00000 0 00133    00713 TXH +3 00000 0 01220    00714 TXH +3 00000 0 00061
                 END OF CONDITIONAL                                                 112  LM00132
                 WAS=WGET.(LOOK)                                                    113  LM00133
 00715 TSX +0 07400 4 00041    00716 TXH +3 00000 0 00127    00717 STO +0 60100 0 00151
                 WHENEVER IS.NE.WAS                                                 114  LM00135
 00720 CLA +0 50000 0 00125    00721 SUB +0 40200 0 00151    00722 TZE +0 10000 0 01022
                 MODE=(JUNK.RS.15).A.7K                                             115  LM00136
 00723 CAL -0 50000 0 00162    00724 STA +0 62100 0 00726    00725 CAL -0 50000 0 00126    00726 LGR -0 76500 0 00000
 00727 ANA -0 32000 0 00160    00730 SLW +0 60200 0 00131
                 WHENEVER IS.A.700000777777K.E.WAS.A.700000777777K                  116  LM00138
                1.AND.MODE.E.4,TRANSFER TO DONT                                     116  LM00139
 00731 CLA +0 50000 0 00131    00732 SUB +0 40200 0 00157    00733 TNZ -0 10000 0 00746    00734 CAL -0 50000 0 00151
 00735 ANA -0 32000 0 00177    00736 SLW +0 60200 0 01220    00737 CAL -0 50000 0 00125    00740 ANA -0 32000 0 00177
 00741 SLW +0 60200 0 01221    00742 CLA +0 50000 0 01221    00743 SUB +0 40200 0 01220    00744 TNZ -0 10000 0 00746
 00745 TRA +0 02000 0 00047
                 WHENEVER MODE.E.3                                                  117  LM00141
 00746 CLA +0 50000 0 00131    00747 SUB +0 40200 0 00156    00750 TNZ -0 10000 0 00761
                 STEP.(IS)                                                          118  LM00142
 00751 TSX +0 07400 4 00045    00752 TXH +3 00000 0 00125
                 STEP.(WAS)                                                         119  LM00143
 00753 TSX +0 07400 4 00045    00754 TXH +3 00000 0 00151
                 WHENEVER IS.E.WAS, TRANSFER TO DONT                                120  LM00144
 00755 CLA +0 50000 0 00125    00756 SUB +0 40200 0 00151    00757 TNZ -0 10000 0 00761    00760 TRA +0 02000 0 00047
                 END OF CONDITIONAL                                                 121  LM00145
                 CHANGE=1B                                                          122  LM00147
 00761 CLA +0 50000 0 00155    00762 STO +0 60100 0 00062
                 LIST=0                                                             123  LM00148
 00763 CLA +0 50000 0 00154    00764 STO +0 60100 0 77461
                 ADDVAR.(FROM(I),FSUB(I))                                           124  LM00149
 00765 CLA +0 50000 0 00124    00766 SUB +0 40200 0 00767    00767 TXH +3 00000 0 77261    00770 STA +0 62100 0 00777
 00771 CLA +0 50000 0 00124    00772 SUB +0 40200 0 00773    00773 TXH +3 00000 0 77333    00774 STA +0 62100 0 00776
 00775 TSX +0 07400 4 00003    00776 TXH +3 00000 0 00000    00777 TXH +3 00000 0 00000
                 ADDCOM.(COM7)                                                      125  LM00150
 01000 TSX +0 07400 4 00000    01001 TXH +3 00000 0 00117
                 WHENEVER MODE8,MODE=8                                              126  LM00151
 01002 NZT -0 52000 0 00130    01003 TRA +0 02000 0 01006    01004 CLA +0 50000 0 00161    01005 STO +0 60100 0 00131
                 ADDCON.(IS,MODE)                                                   127  LM00152
 01006 TSX +0 07400 4 00001    01007 TXH +3 00000 0 00125    01010 TXH +3 00000 0 00131
                 WHENEVER WAS.NE.0                                                  128  LM00153
 01011 CLA +0 50000 0 00151    01012 SUB +0 40200 0 00154    01013 TZE +0 10000 0 01021
                 ADDCOM.(WASCOM)                                                    129  LM00154
 01014 TSX +0 07400 4 00000    01015 TXH +3 00000 0 00150
                 VECTOR VALUES WASCOM=6,$, WAS $                                    130  LM00155
 00147     -3 36066 2 16260    00150     +0 00000 0 00006
                 ADDCON.(WAS,MODE)                                                  131  LM00156
 01016 TSX +0 07400 4 00001    01017 TXH +3 00000 0 00151    01020 TXH +3 00000 0 00131
                 END OF CONDITIONAL                                                 132  LM00157
                 CRTYPE.                                                            133  LM00158
 01021 TSX +0 07400 4 00005
                 END OF CONDITIONAL                                                 134  LM00159
      DONT       WHENEVER FROM(I).NE.TO(I).OR.FSUB(I).NE.TSUB(I)                    135  LM00161
 01022 LXA +0 53400 1 00124    01023 LXA +0 53400 2 00124    01024 CLA +0 50000 1 77261    01025 SUB +0 40200 2 77234
 01026 TNZ -0 10000 0 01032    01027 CLA +0 50000 1 77333    01030 SUB +0 40200 2 77306    01031 TZE +0 10000 0 01046
                 NEXVAR.(FROM(I),FSUB(I))                                           136  LM00162
 01032 CLA +0 50000 0 00124    01033 SUB +0 40200 0 01034    01034 TXH +3 00000 0 77261    01035 STA +0 62100 0 01044
 01036 CLA +0 50000 0 00124    01037 SUB +0 40200 0 01040    01040 TXH +3 00000 0 77333    01041 STA +0 62100 0 01043
 01042 TSX +0 07400 4 00022    01043 TXH +3 00000 0 00000    01044 TXH +3 00000 0 00000
                 TRANSFER TO VMORE                                                  137  LM00163
 01045 TRA +0 02000 0 00056
      VLOOP      END OF CONDITIONAL                                                 138  LM00164
 01046 TRA +0 02000 0 00614
                 WHENEVER .NOT.CHANGE                                               139  LM00166
 01047 ZET +0 52000 0 00062    01050 TRA +0 02000 0 01054
                 PRINT.(COM4)                                                       140  LM00167
 01051 TSX +0 07400 4 00025    01052 TXH +3 00000 0 00105
                 VECTOR VALUES COM4=10,$NO CHANGE.$                                 141  LM00168
 00103     -0 52725 3 36060    00104     -0 54660 2 33021    00105     +0 00000 0 00012
                 OR WHENEVER ALL                                                    142  LM00169
 01053 TRA +0 02000 0 01066    01054 NZT -0 52000 0 00060    01055 TRA +0 02000 0 01061
                 PRINT.(COM3)                                                       143  LM00170
 01056 TSX +0 07400 4 00025    01057 TXH +3 00000 0 00102
                 OR WHENEVER IS.E.WAS                                               144  LM00171
 01060 TRA +0 02000 0 01066    01061 CLA +0 50000 0 00125    01062 SUB +0 40200 0 00151    01063 TNZ -0 10000 0 01066
                 PRINT.(COM5)                                                       145  LM00172
 01064 TSX +0 07400 4 00025    01065 TXH +3 00000 0 00111
                 VECTOR VALUES COM5=15,$THE REST MATCH.$                            146  LM00173
 00106     +2 33033 6 06060    00107     -2 26360 4 42163    00110     -2 33025 6 05125    00111     +0 00000 0 00017
                 END OF CONDITIONAL                                                 147  LM00174
                 INTNO.                                                             148  LM00175
 01066 TSX +0 07400 4 00017
      VBACK      WDITCH.($TEMP$)                                                    149  LM00176
 01067 TSX +0 07400 4 00040    01070 TXH +3 00000 0 00174
                 WDITCH.($CTEMP$)                                                   150  LM00177
 01071 TSX +0 07400 4 00040    01072 TXH +3 00000 0 00167
                 PRINT.(0)                                                          151  LM00178
 01073 TSX +0 07400 4 00025    01074 TXH +3 00000 0 00154
                 READY.                                                             152  LM00179
 01075 TSX +0 07400 4 00027
      NONE       LIST=0                                                             153  LM00181
 01076 CLA +0 50000 0 00154    01077 STO +0 60100 0 77461
                 GWORK.(WORK)                                                       154  LM00182
 01100 TSX +0 07400 4 00015    01101 TXH +3 00000 0 00152
                 ADDNAM.(WORK)                                                      155  LM00183
 01102 TSX +0 07400 4 00002    01103 TXH +3 00000 0 00152
                 ADDCOM.(COM6)                                                      156  LM00184
 01104 TSX +0 07400 4 00000    01105 TXH +3 00000 0 00115
                 VECTOR VALUES COM6=18,$ HAS NO VARIABLES.$                         157  LM00185
 00112     +2 12243 2 56233    00113     -0 66065 2 15131    00114     -2 03021 6 26045    00115     +0 00000 0 00022
                 CRTYPE.                                                            158  LM00186
 01106 TSX +0 07400 4 00005
                 READY.                                                             159  LM00187
 01107 TSX +0 07400 4 00027
                 INTERNAL FUNCTION (FN)                                             160  LM00192
 01110 TRA +0 02000 0 01207
                 ENTRY TO STEP.                                                     161  LM00193
 01111 TRA +0 02000 0 01114    00045 TTR +0 02100 0 01112    01112 SXA +0 63400 2 01170    01113 TSX +0 07400 2 01170
                 WHENEVER FN.A.7777777K5.NE.TXL,FUNCTION RETURN                     162  LM00194
 01114 CAL -0 50000 0 00000    01115 ANA -0 32000 0 00203    01116 SLW +0 60200 0 01206    01117 CLA +0 50000 0 01206
 01120 SUB +0 40200 0 00141    01121 TZE +0 10000 0 01123    01122 TRA +0 02000 0 01202
                 SNAME=TVNAME.(FN)                                                  163  LM00195
 01123 TSX +0 07400 4 00035    01124 TXH +3 00000 0 00000    01125 STO +0 60100 0 00137
                 WHENEVER SNAME.NE.0                                                164  LM00196
 01126 CLA +0 50000 0 00137    01127 SUB +0 40200 0 00154    01130 TZE +0 10000 0 01140
                 FN=TTR.V.ENTRY.(SNAME)                                             165  LM00197
 01131 TSX +0 07400 4 00006    01132 TXH +3 00000 0 00137    01133 STO +0 60100 0 01206    01134 CAL -0 50000 0 00140
 01135 ORA -0 50100 0 01206    01136 SLW +0 60200 0 00000
                 FUNCTION RETURN                                                    166  LM00198
 01137 TRA +0 02000 0 01202
                 END OF CONDITIONAL                                                 167  LM00199
                 SLOC=FN.A.77777K                                                   168  LM00200
 01140 CAL -0 50000 0 00000    01141 ANA -0 32000 0 00165    01142 SLW +0 60200 0 00136
                 WHENEVER ORGNAM.(SLOC).E.$(END)$,FUNCTION RETURN                   169  LM00201
 01143 TSX +0 07400 4 00023    01144 TXH +3 00000 0 00136    01145 SUB +0 40200 0 00201    01146 TNZ -0 10000 0 01150
 01147 TRA +0 02000 0 01202
                 WSETUP.($TEMPS$,FRESH,SLOC+SKIP+1,1)                               170  LM00202
 01150 CLA +0 50000 0 00136    01151 ADD +0 40000 0 77110    01152 ADD +0 40000 0 00155    01153 STO +0 60100 0 01206
 01154 TSX +0 07400 4 00043    01155 TXH +3 00000 0 00175    01156 TXH +3 00000 0 00123    01157 TXH +3 00000 0 01206
 01160 TXH +3 00000 0 00155
                 FN=WGET.(1)                                                        171  LM00203
 01161 TSX +0 07400 4 00041    01162 TXH +3 00000 0 00155    01163 STO +0 60100 0 00000
                 WDITCH.($TEMPS$)                                                   172  LM00204
 01164 TSX +0 07400 4 00040    01165 TXH +3 00000 0 00175
                 FUNCTION RETURN                                                    173  LM00205
 01166 TRA +0 02000 0 01202
                 END OF FUNCTION                                                    174  LM00206
 01167 TSX +0 07400 4 00007    01170 TXH +3 00000 0 00000    01171 SXD -0 63400 1 01170    01172 SXA +0 63400 4 01202
 01173 CLA +0 50000 4 00001    01174 STA +0 62100 0 01114    01175 STO +0 60100 0 01124    01176 STA +0 62100 0 01136
 01177 STA +0 62100 0 01140    01200 STA +0 62100 0 01163    01201 TRA +0 02000 2 00001    01202 AXT +0 77400 4 00000
 01203 LXA +0 53400 2 01170    01204 LXD -0 53400 1 01170    01205 TRA +0 02000 4 00001
                 END OF FUNCTION                                                    175  LM00208
 01207 TSX +0 07400 4 00007    01210 TXH +3 00000 0 00000    01211 SXD -0 63400 1 01210    01212 SXA +0 63400 4 01214
 01213 TRA +0 02000 2 00001    01214 AXT +0 77400 4 00000    01215 LXA +0 53400 2 01210    01216 LXD -0 53400 1 01210
 01217 TRA +0 02000 4 00001
