1     MAD PROGRAM LISTING ... ... ...                 FILE    TYPE   MAD            02/07/68    2045.6
-
                  EXTERNAL FUNCTION (A1,A2)                                                       *001 LM00001
                  NORMAL MODE IS INTEGER                                                          *002 LM00002
                  STATEMENT LABEL A2                                                              *003 LM00003
                  PROGRAM COMMON LIST(84),MAX,FROM(20),TO(20),                                    *004 LM00004
                1 FSUB(20),TSUB(20),USES(60),CURCOR,PATCH,SKIP                                    *004 LM00005
                  DIMENSION BUFF(14)                                                              *005 LM00006
                  VECTOR VALUES CR=556060606060K                                                  *006 LM00007
                  VECTOR VALUES NULL=576060606060K                                                *007 LM00008
                  VECTOR VALUES INTEST=0B                                                         *008 LM00009
                                                                                                       LM00010
                 ADD A CARRIAGE RETURN TO LIST AND PRINT IT.                                           LM00011
                                                                                                       LM00012
                  ENTRY TO CRTYPE.                                                                *009 LM00013
                  LIST=LIST+1                                                                     *010 LM00014
                  LIST(LIST)=CR                                                                   *011 LM00015
                                                                                                       LM00016
                 JUST PRINT LIST                                                                       LM00017
                                                                                                       LM00018
                  ENTRY TO TYPE.                                                                  *012 LM00019
                  WHENEVER LIST.G.84                                                              *013 LM00020
                  PRINT.(COM1)                                                                    *014 LM00021
                  VECTOR VALUES COM1=61,$MADBUG IS TRYING TO PRINT TOO$,                          *015 LM00022
                1 $LONG A LINE.  CONSULT LISTINGS.$                                               *015 LM00023
                  LIST=84                                                                         *016 LM00024
                  LIST(LIST)=CR                                                                   *017 LM00025
                  END OF CONDITIONAL                                                              *018 LM00026
                                                                                                       LM00027
                  THROUGH BLANK,FOR LIST=LIST,1,LIST.E.LIST/6*6                                   *019 LM00028
      BLANK       LIST(LIST+1)=NULL                                                               *020 LM00029
                  BUFF=LIST                                                                       *021 LM00030
                  LIST=1                                                                          *022 LM00031
                  WCOUNT=BUFF/6                                                                   *023 LM00032
                  THROUGH INSERT, FOR I=1,1,I.G.WCOUNT                                            *024 LM00033
                  BCD=0                                                                           *025 LM00034
                  THROUGH WORD, FOR J=0,6,J.E.36                                                  *026 LM00035
                  BCD=(LIST(LIST).A.77K10).RS.J.V.BCD                                             *027 LM00036
      WORD        LIST=LIST+1                                                                     *028 LM00037
      INSERT      BUFF(I)=BCD                                                                     *029 LM00038
                  PRINTA.(BUFF)                                                                   *030 LM00039
                  FUNCTION RETURN                                                                 *031 LM00040
                                                                                                       LM00041
                 CALL SHORT FAST PROGRAM TO PROCESS INPUT LINES                                        LM00042
                                                                                                       LM00043
                  ENTRY TO DOLINE.                                                                *032 LM00044
                  WSEEK.($DOLINE$)                                                                *033 LM00045
                  WSET.(SKIP+1+24,A1.V.WGET.(SKIP+1+24).A.7777777K5)                              *034 LM00046
                  SIZE=WGET.(1).A.77777K                                                          *035 LM00047
                  WDUMP.($DOLINE$)                                                                *036 LM00048
                  CHMODE.(DOLSAV,0)                                                               *037 LM00049
                  XEQ.(2,RESUME,SAVE)                                                             *038 LM00050
                  VECTOR VALUES RESUME=$RESUME(MBGI)$                                             *039 LM00051
                  VECTOR VALUES SAVE=$  SAVE(MBGI)$                                               *040 LM00052
                  VECTOR VALUES DOLSAV=$(MBGI) SAVED$                                             *041 LM00053
                  CHMODE.(DOLSAV,0)                                                               *042 LM00054
                  WSETUP.($INPUT$,DOLSAV,0)                                                       *043 LM00055
                  WSIZE.(TSIZE)                                                                   *044 LM00056
                  WHENEVER TSIZE.E.0                                                              *045 LM00057
                  WDITCH.($INPUT$)                                                                *046 LM00058
                  READY.                                                                          *047 LM00059
                  END OF CONDITIONAL                                                              *048 LM00060
                  DELTA=WGET.(1).A.77777K-SIZE                                                    *049 LM00061
                  WDEL.(1,SIZE+SKIP)                                                              *050 LM00062
                  WSIZE.(SIZE)                                                                    *051 LM00063
                  WDEL.(DELTA+1,SIZE-DELTA)                                                       *052 LM00064
                  INTEST=1B                                                                       *053 LM00065
                  FUNCTION RETURN                                                                 *054 LM00066
                                                                                                       LM00067
                 GET AN INPUT LINE READ IN BY SHORT FAST PROGRAM                                       LM00068
                 TRANSFER TO A2 IF END OF INPUT LINE BLOCK                                             LM00069
                                                                                                       LM00070
                  ENTRY TO INLINE.                                                                *055 LM00071
                  WSEEK.($INPUT$)                                                                 *056 LM00072
                  WHENEVER WGET.(1).E.777777777777K                                               *057 LM00073
                  WDEL.(1,1)                                                                      *058 LM00074
                  TRANSFER TO A2                                                                  *059 LM00075
                  END OF CONDITIONAL                                                              *060 LM00076
                  THROUGH IN,FOR I=1,1,I.G.12                                                     *061 LM00077
      IN          A1(I)=WGET.(I)                                                                  *062 LM00078
                  WDEL.(1,12)                                                                     *063 LM00079
                  FUNCTION RETURN                                                                 *064 LM00080
                                                                                                       LM00081
                 READ A LINE INTO LIST                                                                 LM00082
                                                                                                       LM00083
                  ENTRY TO READ.                                                                  *065 LM00084
                  WHENEVER INTEST                                                                 *066 LM00085
                  WSEEK.($INPUT$)                                                                 *067 LM00086
                  INTEST=0B                                                                       *068 LM00087
                  WSIZE.(SIZE)                                                                    *069 LM00088
                  WHENEVER SIZE.L.15                                                              *070 LM00089
                  WDITCH.($INPUT$)                                                                *071 LM00090
                  PRINT.(COM2)                                                                    *072 LM00091
                  VECTOR VALUES COM2=32,$DOLINE ERROR.  CONSULT L$,                               *073 LM00092
                1 $ISTINGS.$                                                                      *073 LM00093
                  READY.                                                                          *074 LM00094
                  END OF CONDITIONAL                                                              *075 LM00095
                  WHENEVER SIZE.G.15                                                              *076 LM00096
                  WDEL.(1,SIZE-15)                                                                *077 LM00097
                  PRINT.(COM2)                                                                    *078 LM00098
                  END OF CONDITIONAL                                                              *079 LM00099
                  THROUGH RIN,FOR I=0,1,I.G.14                                                    *080 LM00100
      RIN         BUFF(I)=WGET.(I+1)                                                              *081 LM00101
                  WDEL.(1,15)                                                                     *082 LM00102
                  WDITCH.($INPUT$)                                                                *083 LM00103
                  OTHERWISE                                                                       *084 LM00104
                  READIN.(BUFF)                                                                   *085 LM00105
                  END OF CONDITIONAL                                                              *086 LM00106
                  LIST=1                                                                          *087 LM00107
                  COUNT=1                                                                         *088 LM00108
                  THROUGH GET,FOR I=1,1,0B                                                        *089 LM00109
                  BCD=BUFF(I)                                                                     *090 LM00110
                  THROUGH GET, FOR J=0,6,J.E.36                                                   *091 LM00111
                  LIST(COUNT)=(BCD.LS.J).A.77K10.V.$0$                                            *092 LM00112
                  COUNT=COUNT+1                                                                   *093 LM00113
                  WHENEVER COUNT.GE.BUFF                                                          *094 LM00114
                  LIST(COUNT)=CR                                                                  *095 LM00115
                  THROUGH BLANK1,FOR I=COUNT+1,1,I.G.84                                           *096 LM00116
      BLANK1      LIST(I)=$ $                                                                     *097 LM00117
                  FUNCTION RETURN                                                                 *098 LM00118
      GET         END OF CONDITIONAL                                                              *099 LM00119
                  END OF FUNCTION                                                                 *100 LM00120
1MAD PROGRAM,TYPE NOV 1963      (ALL NUMBERS ARE OCTAL)
0TOTAL LOCATIONS   00657 TRANSFER VECTOR LENGTH  00017 PROGRAM BEGINS    00126 FIRST UNUSED COMMON/ERASABLE  77107
0 PROGRAM IS AN EXTERNAL FUNCTION.   THE FOLLOWING ARE ENTRIES
      READ   00450   0        INLINE 00410   0        DOLINE 00266   0        TYPE   00140   0        CRTYPE 00127   0
0VARIABLE STORAGE (A=ARRAY,C=COMMON,E=ERASABLE,DIGIT=MODE)
      BCD    00020   1        CR     00064 A 1        IN     00017   4        NULL   00073 A 1        TO     77306 AC1
      BLANK1 00017   4        CURCOR 77112  C1        INSERT 00017   4        PATCH  77111  C1        TSIZE  00101   1
      BLANK  00017   4        DELTA  00065   1        INTEST 00070 A 2        RESUME 00075 A 1        TSUB   77234 AC1
      BUFF   00037 A 1        DOLSAV 00067 A 1        I      00071   1        RIN    00017   4        USES   77207 AC1
      COM1   00053 A 1        FROM   77333 AC1        J      00072   1        SAVE   00077 A 1        WCOUNT 00102   1
      COM2   00062 A 1        FSUB   77261 AC1        LIST   77461 AC1        SIZE   00100   1        WORD   00017   4
      COUNT  00063   1        GET    00017   4        MAX    77334  C1        SKIP   77110  C1
0FUNCTION DICTIONARY
      CHMODE 00000   1        EXIT   00001   1        PRINTA 00002   1        PRINT  00003   1        READIN 00004   1
      READY  00005   1        WDEL   00006   1        WDITCH 00007   1        WDUMP  00010   1        WGET   00011   1
      WSEEK  00012   1        WSET   00013   1        WSETUP 00014   1        WSIZE  00015   1        XEQ    00016   1
0ABSOLUTE CONSTANTS
 00122 -206060606060     00116 +006060606060     00110 +000000000016     00111 +000000000017     00107 +000000000014
 00125 -377777777777     00121 +314547646360     00105 +000000000002     00115 +000000077777     00124 -377777700000
 00112 +000000000030     00120 +244643314525     00123 -370000000000     00113 +000000000044     00103 +000000000000
 00106 +000000000006     00114 +000000000124     00104 +000000000001     00117 +233000000000
0PROGRAM
                 EXTERNAL FUNCTION (A1,A2)                                          001  LM00001
                 NORMAL MODE IS INTEGER                                             002  LM00002
                 STATEMENT LABEL A2                                                 003  LM00003
                 PROGRAM COMMON LIST(84),MAX,FROM(20),TO(20),                       004  LM00004
                1FSUB(20),TSUB(20),USES(60),CURCOR,PATCH,SKIP                       004  LM00005
                 DIMENSION BUFF(14)                                                 005  LM00006
                 VECTOR VALUES CR=556060606060K                                     006  LM00007
 00064     -1 56060 6 06060
                 VECTOR VALUES NULL=576060606060K                                   007  LM00008
 00073     -1 76060 6 06060
                 VECTOR VALUES INTEST=0B                                            008  LM00009
 00070     +0 00000 0 00000
                 ENTRY TO CRTYPE.                                                   009  LM00013
 00126 TRA +0 02000 0 00131    00127 SXA +0 63400 2 00636    00130 TSX +0 07400 2 00636
                 LIST=LIST+1                                                        010  LM00014
 00131 CLA +0 50000 0 77461    00132 ADD +0 40000 0 00104    00133 STO +0 60100 0 77461
                 LIST(LIST)=CR                                                      011  LM00015
 00134 LXA +0 53400 1 77461    00135 CLA +0 50000 0 00064    00136 STO +0 60100 1 77461
                 ENTRY TO TYPE.                                                     012  LM00019
 00137 TRA +0 02000 0 00142    00140 SXA +0 63400 2 00636    00141 TSX +0 07400 2 00636
                 WHENEVER LIST.G.84                                                 013  LM00020
 00142 CLA +0 50000 0 77461    00143 SUB +0 40200 0 00114    00144 TZE +0 10000 0 00155    00145 TMI -0 12000 0 00155
                 PRINT.(COM1)                                                       014  LM00021
 00146 TSX +0 07400 4 00003    00147 TXH +3 00000 0 00053
                 VECTOR VALUES COM1=61,$MADBUG IS TRYING TO PRINT TOO$,             015  LM00022
                1$LONG A LINE.  CONSULT LISTINGS.$                                  015  LM00023
 00040     +3 36060 6 06060    00041     -2 26331 4 52762    00042     -2 44363 6 04331    00043     -2 06023 4 64562
 00044     -2 04331 4 52533    00045     -0 34645 2 76021    00046     -2 36063 4 64660    00047     -0 66047 5 13145
 00050     -3 03145 2 76063    00051     -2 03162 6 06351    00052     -0 42124 2 26427    00053     +0 00000 0 00075
                 LIST=84                                                            016  LM00024
 00150 CLA +0 50000 0 00114    00151 STO +0 60100 0 77461
                 LIST(LIST)=CR                                                      017  LM00025
 00152 LXA +0 53400 1 77461    00153 CLA +0 50000 0 00064    00154 STO +0 60100 1 77461
                 END OF CONDITIONAL                                                 018  LM00026
                 THROUGH BLANK,FOR LIST=LIST,1,LIST.E.LIST/6*6                      019  LM00028
 00155 CLA +0 50000 0 77461    00156 STO +0 60100 0 77461    00157 TRA +0 02000 0 00163    00160 CLA +0 50000 0 77461
 00161 ADD +0 40000 0 00104    00162 STO +0 60100 0 77461    00163 LDQ +0 56000 0 77461    00164 PXD -0 75400 0 00000
 00165 LLS +0 76300 0 00000    00166 DVP +0 22100 0 00106    00167 MPY +0 20000 0 00106    00170 XCA +0 13100 0 00000
 00171 CHS +0 76000 0 00002    00172 ADD +0 40000 0 77461    00173 TZE +0 10000 0 00202
      BLANK      LIST(LIST+1)=NULL                                                  020  LM00029
 00174 CLA +0 50000 0 77461    00175 ADD +0 40000 0 00104    00176 PAX +0 73400 1 00000    00177 CLA +0 50000 0 00073
 00200 STO +0 60100 1 77461    00201 TRA +0 02000 0 00160
                 BUFF=LIST                                                          021  LM00030
 00202 CLA +0 50000 0 77461    00203 STO +0 60100 0 00037
                 LIST=1                                                             022  LM00031
 00204 CLA +0 50000 0 00104    00205 STO +0 60100 0 77461
                 WCOUNT=BUFF/6                                                      023  LM00032
 00206 LDQ +0 56000 0 00037    00207 PXD -0 75400 0 00000    00210 LLS +0 76300 0 00000    00211 DVP +0 22100 0 00106
 00212 STQ -0 60000 0 00102
                 THROUGH INSERT, FOR I=1,1,I.G.WCOUNT                               024  LM00033
 00213 CLA +0 50000 0 00104    00214 STO +0 60100 0 00071    00215 TRA +0 02000 0 00221    00216 CLA +0 50000 0 00071
 00217 ADD +0 40000 0 00104    00220 STO +0 60100 0 00071    00221 CLA +0 50000 0 00071    00222 SUB +0 40200 0 00102
 00223 TZE +0 10000 0 00225    00224 TPL +0 12000 0 00262
                 BCD=0                                                              025  LM00034
 00225 CLA +0 50000 0 00103    00226 STO +0 60100 0 00020
                 THROUGH WORD, FOR J=0,6,J.E.36                                     026  LM00035
 00227 CLA +0 50000 0 00103    00230 STO +0 60100 0 00072    00231 TRA +0 02000 0 00235    00232 CLA +0 50000 0 00072
 00233 ADD +0 40000 0 00106    00234 STO +0 60100 0 00072    00235 CLA +0 50000 0 00072    00236 SUB +0 40200 0 00113
 00237 TZE +0 10000 0 00256
                 BCD=(LIST(LIST).A.77K10).RS.J.V.BCD                                027  LM00036
 00240 LXA +0 53400 1 77461    00241 CAL -0 50000 1 77461    00242 ANA -0 32000 0 00123    00243 SLW +0 60200 0 00653
 00244 CAL -0 50000 0 00072    00245 STA +0 62100 0 00247    00246 CAL -0 50000 0 00653    00247 LGR -0 76500 0 00000
 00250 ORA -0 50100 0 00020    00251 SLW +0 60200 0 00020
      WORD       LIST=LIST+1                                                        028  LM00037
 00252 CLA +0 50000 0 77461    00253 ADD +0 40000 0 00104    00254 STO +0 60100 0 77461    00255 TRA +0 02000 0 00232
      INSERT     BUFF(I)=BCD                                                        029  LM00038
 00256 LXA +0 53400 1 00071    00257 CLA +0 50000 0 00020    00260 STO +0 60100 1 00037    00261 TRA +0 02000 0 00216
                 PRINTA.(BUFF)                                                      030  LM00039
 00262 TSX +0 07400 4 00002    00263 TXH +3 00000 0 00037
                 FUNCTION RETURN                                                    031  LM00040
 00264 TRA +0 02000 0 00647
                 ENTRY TO DOLINE.                                                   032  LM00044
 00265 TRA +0 02000 0 00270    00266 SXA +0 63400 2 00636    00267 TSX +0 07400 2 00636
                 WSEEK.($DOLINE$)                                                   033  LM00045
 00270 TSX +0 07400 4 00012    00271 TXH +3 00000 0 00120
                 WSET.(SKIP+1+24,A1.V.WGET.(SKIP+1+24).A.7777777K5)                 034  LM00046
 00272 CLA +0 50000 0 77110    00273 ADD +0 40000 0 00104    00274 ADD +0 40000 0 00112    00275 STO +0 60100 0 00653
 00276 TSX +0 07400 4 00011    00277 TXH +3 00000 0 00653    00300 STO +0 60100 0 00653    00301 CAL -0 50000 0 00653
 00302 ANA -0 32000 0 00124    00303 ORA -0 50100 0 00000    00304 SLW +0 60200 0 00653    00305 CLA +0 50000 0 77110
 00306 ADD +0 40000 0 00104    00307 ADD +0 40000 0 00112    00310 STO +0 60100 0 00654    00311 TSX +0 07400 4 00013
 00312 TXH +3 00000 0 00654    00313 TXH +3 00000 0 00653
                 SIZE=WGET.(1).A.77777K                                             035  LM00047
 00314 TSX +0 07400 4 00011    00315 TXH +3 00000 0 00104    00316 STO +0 60100 0 00654    00317 CAL -0 50000 0 00654
 00320 ANA -0 32000 0 00115    00321 SLW +0 60200 0 00100
                 WDUMP.($DOLINE$)                                                   036  LM00048
 00322 TSX +0 07400 4 00010    00323 TXH +3 00000 0 00120
                 CHMODE.(DOLSAV,0)                                                  037  LM00049
 00324 TSX +0 07400 4 00000    00325 TXH +3 00000 0 00067    00326 TXH +3 00000 0 00103
                 XEQ.(2,RESUME,SAVE)                                                038  LM00050
 00327 TSX +0 07400 4 00016    00330 TXH +3 00000 0 00105    00331 TXH +3 00000 0 00075    00332 TXH +3 00000 0 00077
                 VECTOR VALUES RESUME=$RESUME(MBGI)$                                039  LM00051
 00074     -3 44422 2 73134    00075     -1 12562 6 44425
                 VECTOR VALUES SAVE=$  SAVE(MBGI)$                                  040  LM00052
 00076     -3 44422 2 73134    00077     -2 06062 2 16525
                 VECTOR VALUES DOLSAV=$(MBGI) SAVED$                                041  LM00053
 00066     -2 06221 6 52524    00067     -3 44422 2 73134
                 CHMODE.(DOLSAV,0)                                                  042  LM00054
 00333 TSX +0 07400 4 00000    00334 TXH +3 00000 0 00067    00335 TXH +3 00000 0 00103
                 WSETUP.($INPUT$,DOLSAV,0)                                          043  LM00055
 00336 TSX +0 07400 4 00014    00337 TXH +3 00000 0 00121    00340 TXH +3 00000 0 00067    00341 TXH +3 00000 0 00103
                 WSIZE.(TSIZE)                                                      044  LM00056
 00342 TSX +0 07400 4 00015    00343 TXH +3 00000 0 00101
                 WHENEVER TSIZE.E.0                                                 045  LM00057
 00344 CLA +0 50000 0 00101    00345 SUB +0 40200 0 00103    00346 TNZ -0 10000 0 00352
                 WDITCH.($INPUT$)                                                   046  LM00058
 00347 TSX +0 07400 4 00007    00350 TXH +3 00000 0 00121
                 READY.                                                             047  LM00059
 00351 TSX +0 07400 4 00005
                 END OF CONDITIONAL                                                 048  LM00060
                 DELTA=WGET.(1).A.77777K-SIZE                                       049  LM00061
 00352 TSX +0 07400 4 00011    00353 TXH +3 00000 0 00104    00354 STO +0 60100 0 00654    00355 CAL -0 50000 0 00654
 00356 ANA -0 32000 0 00115    00357 SLW +0 60200 0 00654    00360 CLA +0 50000 0 00654    00361 SUB +0 40200 0 00100
 00362 STO +0 60100 0 00065
                 WDEL.(1,SIZE+SKIP)                                                 050  LM00062
 00363 CLA +0 50000 0 00100    00364 ADD +0 40000 0 77110    00365 STO +0 60100 0 00654    00366 TSX +0 07400 4 00006
 00367 TXH +3 00000 0 00104    00370 TXH +3 00000 0 00654
                 WSIZE.(SIZE)                                                       051  LM00063
 00371 TSX +0 07400 4 00015    00372 TXH +3 00000 0 00100
                 WDEL.(DELTA+1,SIZE-DELTA)                                          052  LM00064
 00373 CLA +0 50000 0 00100    00374 SUB +0 40200 0 00065    00375 STO +0 60100 0 00654    00376 CLA +0 50000 0 00065
 00377 ADD +0 40000 0 00104    00400 STO +0 60100 0 00653    00401 TSX +0 07400 4 00006    00402 TXH +3 00000 0 00653
 00403 TXH +3 00000 0 00654
                 INTEST=1B                                                          053  LM00065
 00404 CLA +0 50000 0 00104    00405 STO +0 60100 0 00070
                 FUNCTION RETURN                                                    054  LM00066
 00406 TRA +0 02000 0 00647
                 ENTRY TO INLINE.                                                   055  LM00071
 00407 TRA +0 02000 0 00412    00410 SXA +0 63400 2 00636    00411 TSX +0 07400 2 00636
                 WSEEK.($INPUT$)                                                    056  LM00072
 00412 TSX +0 07400 4 00012    00413 TXH +3 00000 0 00121
                 WHENEVER WGET.(1).E.777777777777K                                  057  LM00073
 00414 TSX +0 07400 4 00011    00415 TXH +3 00000 0 00104    00416 SUB +0 40200 0 00125    00417 TNZ -0 10000 0 00424
                 WDEL.(1,1)                                                         058  LM00074
 00420 TSX +0 07400 4 00006    00421 TXH +3 00000 0 00104    00422 TXH +3 00000 0 00104
                 TRANSFER TO A2                                                     059  LM00075
 00423 TRA +0 02000 0 00000
                 END OF CONDITIONAL                                                 060  LM00076
                 THROUGH IN,FOR I=1,1,I.G.12                                        061  LM00077
 00424 CLA +0 50000 0 00104    00425 STO +0 60100 0 00071    00426 TRA +0 02000 0 00432    00427 CLA +0 50000 0 00071
 00430 ADD +0 40000 0 00104    00431 STO +0 60100 0 00071    00432 CLA +0 50000 0 00071    00433 SUB +0 40200 0 00107
 00434 TZE +0 10000 0 00436    00435 TPL +0 12000 0 00443
      IN         A1(I)=WGET.(I)                                                     062  LM00078
 00436 TSX +0 07400 4 00011    00437 TXH +3 00000 0 00071    00440 LXA +0 53400 1 00071    00441 STO +0 60100 1 00000
 00442 TRA +0 02000 0 00427
                 WDEL.(1,12)                                                        063  LM00079
 00443 TSX +0 07400 4 00006    00444 TXH +3 00000 0 00104    00445 TXH +3 00000 0 00107
                 FUNCTION RETURN                                                    064  LM00080
 00446 TRA +0 02000 0 00647
                 ENTRY TO READ.                                                     065  LM00084
 00447 TRA +0 02000 0 00452    00450 SXA +0 63400 2 00636    00451 TSX +0 07400 2 00636
                 WHENEVER INTEST                                                    066  LM00085
 00452 NZT -0 52000 0 00070    00453 TRA +0 02000 0 00537
                 WSEEK.($INPUT$)                                                    067  LM00086
 00454 TSX +0 07400 4 00012    00455 TXH +3 00000 0 00121
                 INTEST=0B                                                          068  LM00087
 00456 CLA +0 50000 0 00103    00457 STO +0 60100 0 00070
                 WSIZE.(SIZE)                                                       069  LM00088
 00460 TSX +0 07400 4 00015    00461 TXH +3 00000 0 00100
                 WHENEVER SIZE.L.15                                                 070  LM00089
 00462 CLA +0 50000 0 00100    00463 SUB +0 40200 0 00111    00464 TZE +0 10000 0 00473    00465 TPL +0 12000 0 00473
                 WDITCH.($INPUT$)                                                   071  LM00090
 00466 TSX +0 07400 4 00007    00467 TXH +3 00000 0 00121
                 PRINT.(COM2)                                                       072  LM00091
 00470 TSX +0 07400 4 00003    00471 TXH +3 00000 0 00062
                 VECTOR VALUES COM2=32,$DOLINE ERROR.  CONSULT L$,                  073  LM00092
                1$ISTINGS.$                                                         073  LM00093
 00054     -2 23360 6 06060    00055     +3 16263 3 14527    00056     -2 26443 6 36043    00057     +3 36060 2 34645
 00060     -2 02551 5 14651    00061     +2 44643 3 14525    00062     +0 00000 0 00040
                 READY.                                                             074  LM00094
 00472 TSX +0 07400 4 00005
                 END OF CONDITIONAL                                                 075  LM00095
                 WHENEVER SIZE.G.15                                                 076  LM00096
 00473 CLA +0 50000 0 00100    00474 SUB +0 40200 0 00111    00475 TZE +0 10000 0 00507    00476 TMI -0 12000 0 00507
                 WDEL.(1,SIZE-15)                                                   077  LM00097
 00477 CLA +0 50000 0 00100    00500 SUB +0 40200 0 00111    00501 STO +0 60100 0 00654    00502 TSX +0 07400 4 00006
 00503 TXH +3 00000 0 00104    00504 TXH +3 00000 0 00654
                 PRINT.(COM2)                                                       078  LM00098
 00505 TSX +0 07400 4 00003    00506 TXH +3 00000 0 00062
                 END OF CONDITIONAL                                                 079  LM00099
                 THROUGH RIN,FOR I=0,1,I.G.14                                       080  LM00100
 00507 CLA +0 50000 0 00103    00510 STO +0 60100 0 00071    00511 TRA +0 02000 0 00515    00512 CLA +0 50000 0 00071
 00513 ADD +0 40000 0 00104    00514 STO +0 60100 0 00071    00515 CLA +0 50000 0 00071    00516 SUB +0 40200 0 00110
 00517 TZE +0 10000 0 00521    00520 TPL +0 12000 0 00531
      RIN        BUFF(I)=WGET.(I+1)                                                 081  LM00101
 00521 CLA +0 50000 0 00071    00522 ADD +0 40000 0 00104    00523 STO +0 60100 0 00654    00524 TSX +0 07400 4 00011
 00525 TXH +3 00000 0 00654    00526 LXA +0 53400 1 00071    00527 STO +0 60100 1 00037    00530 TRA +0 02000 0 00512
                 WDEL.(1,15)                                                        082  LM00102
 00531 TSX +0 07400 4 00006    00532 TXH +3 00000 0 00104    00533 TXH +3 00000 0 00111
                 WDITCH.($INPUT$)                                                   083  LM00103
 00534 TSX +0 07400 4 00007    00535 TXH +3 00000 0 00121
                 OTHERWISE                                                          084  LM00104
 00536 TRA +0 02000 0 00541
                 READIN.(BUFF)                                                      085  LM00105
 00537 TSX +0 07400 4 00004    00540 TXH +3 00000 0 00037
                 END OF CONDITIONAL                                                 086  LM00106
                 LIST=1                                                             087  LM00107
 00541 CLA +0 50000 0 00104    00542 STO +0 60100 0 77461
                 COUNT=1                                                            088  LM00108
 00543 CLA +0 50000 0 00104    00544 STO +0 60100 0 00063
                 THROUGH GET,FOR I=1,1,0B                                           089  LM00109
 00545 CLA +0 50000 0 00104    00546 STO +0 60100 0 00071    00547 TRA +0 02000 0 00553    00550 CLA +0 50000 0 00071
 00551 ADD +0 40000 0 00104    00552 STO +0 60100 0 00071    00553 ZET +0 52000 0 00103    00554 TRA +0 02000 0 00635
                 BCD=BUFF(I)                                                        090  LM00110
 00555 LXA +0 53400 2 00071    00556 CLA +0 50000 2 00037    00557 STO +0 60100 0 00020
                 THROUGH GET, FOR J=0,6,J.E.36                                      091  LM00111
 00560 CLA +0 50000 0 00103    00561 STO +0 60100 0 00072    00562 TRA +0 02000 0 00566    00563 CLA +0 50000 0 00072
 00564 ADD +0 40000 0 00106    00565 STO +0 60100 0 00072    00566 CLA +0 50000 0 00072    00567 SUB +0 40200 0 00113
 00570 TZE +0 10000 0 00634
                 LIST(COUNT)=(BCD.LS.J).A.77K10.V.$0$                               092  LM00112
 00571 CAL -0 50000 0 00072    00572 STA +0 62100 0 00574    00573 CAL -0 50000 0 00020    00574 ALS +0 76700 0 00000
 00575 ANA -0 32000 0 00123    00576 ORA -0 50100 0 00116    00577 LXA +0 53400 1 00063    00600 SLW +0 60200 1 77461
                 COUNT=COUNT+1                                                      093  LM00113
 00601 CLA +0 50000 0 00063    00602 ADD +0 40000 0 00104    00603 STO +0 60100 0 00063
                 WHENEVER COUNT.GE.BUFF                                             094  LM00114
 00604 CLA +0 50000 0 00063    00605 SUB +0 40200 0 00037    00606 TZE +0 10000 0 00610    00607 TMI -0 12000 0 00633
                 LIST(COUNT)=CR                                                     095  LM00115
 00610 LXA +0 53400 1 00063    00611 CLA +0 50000 0 00064    00612 STO +0 60100 1 77461
                 THROUGH BLANK1,FOR I=COUNT+1,1,I.G.84                              096  LM00116
 00613 CLA +0 50000 0 00063    00614 ADD +0 40000 0 00104    00615 STO +0 60100 0 00071    00616 TRA +0 02000 0 00622
 00617 CLA +0 50000 0 00071    00620 ADD +0 40000 0 00104    00621 STO +0 60100 0 00071    00622 CLA +0 50000 0 00071
 00623 SUB +0 40200 0 00114    00624 TZE +0 10000 0 00626    00625 TPL +0 12000 0 00632
      BLANK1     LIST(I)=$ $                                                        097  LM00117
 00626 LXA +0 53400 1 00071    00627 CLA +0 50000 0 00122    00630 STO +0 60100 1 77461    00631 TRA +0 02000 0 00617
                 FUNCTION RETURN                                                    098  LM00118
 00632 TRA +0 02000 0 00647
      GET        END OF CONDITIONAL                                                 099  LM00119
 00633 TRA +0 02000 0 00563    00634 TRA +0 02000 0 00550
                 END OF FUNCTION                                                    100  LM00120
 00635 TSX +0 07400 4 00001    00636 TXH +3 00000 0 00000    00637 SXD -0 63400 1 00636    00640 SXA +0 63400 4 00647
 00641 CLA +0 50000 4 00001    00642 STA +0 62100 0 00303    00643 STA +0 62100 0 00441    00644 CLA +0 50000 4 00002
 00645 STA +0 62100 0 00423    00646 TRA +0 02000 2 00001    00647 AXT +0 77400 4 00000    00650 LXA +0 53400 2 00636
 00651 LXD -0 53400 1 00636    00652 TRA +0 02000 4 00001
1     MAD PROGRAM LISTING ... ... ...                 FILE     USE   MAD            02/07/68    2045.7
-
                  EXTERNAL FUNCTION                                                               *001 LM00001
                  NORMAL MODE IS INTEGER                                                          *002 LM00002
                  PROGRAM COMMON LIST(84),MAX,FROM(20),TO(20),                                    *003 LM00003
                1 FSUB(20),TSUB(20),USES(60)                                                      *003 LM00004
                                                                                                       LM00005
                 SET UP LIST TO USE IN LOADING                                                         LM00006
                                                                                                       LM00007
                  ENTRY TO U.                                                                     *004 LM00008
                  UNLOAD.                                                                         *005 LM00009
                  TOP=0                                                                           *006 LM00010
      LOOP        ARGBCD.(20)                                                                     *007 LM00011
                  WHENEVER MAX+TOP.G.59, TRANSFER TO TOOMCH                                       *008 LM00012
                  THROUGH MOVE, FOR I=1,1,I.G.MAX                                                 *009 LM00013
                  RTJUST.(FROM(I))                                                                *010 LM00014
      MOVE        USES(TOP+I)=FROM(I)                                                             *011 LM00015
                  TOP=TOP+MAX                                                                     *012 LM00016
                  WHENEVER USES(TOP).E.$     -$                                                   *013 LM00017
                  TOP=TOP-1                                                                       *014 LM00018
                  READ.                                                                           *015 LM00019
                  TRANSFER TO LOOP                                                                *016 LM00020
                  END OF CONDITIONAL                                                              *017 LM00021
                  USES(TOP+1)=0                                                                   *018 LM00022
                                                                                                       LM00023
                  THROUGH FIND, FOR USES=1,1,USES.G.TOP                                           *019 LM00024
      FIND        WHENEVER USES(USES).E.$(MDBG)$,READY.                                           *020 LM00025
                  WHENEVER USES.G.59,TRANSFER TO TOOMCH                                           *021 LM00026
                  USES(USES)=$(MDBG)$                                                             *022 LM00027
                  USES(USES+1)=0                                                                  *023 LM00028
                  READY.                                                                          *024 LM00029
                                                                                                       LM00030
      TOOMCH      PRINT.(COM1)                                                                    *025 LM00031
                  VECTOR VALUES COM1=55,$ONLY 59 FILES INCLUDING (MDBG) CAN BE                    *026 LM00032
                1  USED.  TRY AGAIN.$                                                             *026 LM00033
                  USES=0                                                                          *027 LM00034
                  READY.                                                                          *028 LM00035
                                                                                                       LM00036
                  END OF FUNCTION                                                                 *029 LM00037
1MAD PROGRAM,TYPE NOV 1963      (ALL NUMBERS ARE OCTAL)
0TOTAL LOCATIONS   00202 TRANSFER VECTOR LENGTH  00007 PROGRAM BEGINS    00036 FIRST UNUSED COMMON/ERASABLE  77112
0 PROGRAM IS AN EXTERNAL FUNCTION.   THE FOLLOWING ARE ENTRIES
      U      00037   0
0VARIABLE STORAGE (A=ARRAY,C=COMMON,E=ERASABLE,DIGIT=MODE)
      COM1   00024 A 1        FSUB   77261 AC1        LOOP   00010   4        TOOMCH 00011   4        TSUB   77234 AC1
      FIND   00007   4        I      00025   1        MAX    77334  C1        TOP    00026   1        USES   77207 AC1
      FROM   77333 AC1        LIST   77461 AC1        MOVE   00007   4        TO     77306 AC1
0FUNCTION DICTIONARY
      ARGBCD 00000   1        EXIT   00001   1        PRINT  00002   1        READ   00003   1        READY  00004   1
      RTJUST 00005   1        UNLOAD 00006   1
0ABSOLUTE CONSTANTS
 00035 -344424222734     00034 -206060606040     00032 +000000000073     00031 +000000000024     00027 +000000000000
 00030 +000000000001     00033 +233000000000
0STATEMENT DICTIONARY
 00010 TXL -300046000044       00011 TXL -300164000162
0PROGRAM
                 EXTERNAL FUNCTION                                                  001  LM00001
                 NORMAL MODE IS INTEGER                                             002  LM00002
                 PROGRAM COMMON LIST(84),MAX,FROM(20),TO(20),                       003  LM00003
                1FSUB(20),TSUB(20),USES(60)                                         003  LM00004
                 ENTRY TO U.                                                        004  LM00008
 00036 TRA +0 02000 0 00041    00037 SXA +0 63400 2 00170    00040 TSX +0 07400 2 00170
                 UNLOAD.                                                            005  LM00009
 00041 TSX +0 07400 4 00006
                 TOP=0                                                              006  LM00010
 00042 CLA +0 50000 0 00027    00043 STO +0 60100 0 00026
      LOOP       ARGBCD.(20)                                                        007  LM00011
 00044 TSX +0 07400 4 00000    00045 TXH +3 00000 0 00031
                 WHENEVER MAX+TOP.G.59, TRANSFER TO TOOMCH                          008  LM00012
 00046 CLA +0 50000 0 77334    00047 ADD +0 40000 0 00026    00050 SUB +0 40200 0 00032    00051 TZE +0 10000 0 00054
 00052 TMI -0 12000 0 00054    00053 TRA +0 02000 0 00011
                 THROUGH MOVE, FOR I=1,1,I.G.MAX                                    009  LM00013
 00054 CLA +0 50000 0 00030    00055 STO +0 60100 0 00025    00056 TRA +0 02000 0 00062    00057 CLA +0 50000 0 00025
 00060 ADD +0 40000 0 00030    00061 STO +0 60100 0 00025    00062 CLA +0 50000 0 00025    00063 SUB +0 40200 0 77334
 00064 TZE +0 10000 0 00066    00065 TPL +0 12000 0 00103
                 RTJUST.(FROM(I))                                                   010  LM00014
 00066 CLA +0 50000 0 00025    00067 SUB +0 40200 0 00070    00070 TXH +3 00000 0 77333    00071 STA +0 62100 0 00073
 00072 TSX +0 07400 4 00005    00073 TXH +3 00000 0 00000
      MOVE       USES(TOP+I)=FROM(I)                                                011  LM00015
 00074 CLA +0 50000 0 00026    00075 ADD +0 40000 0 00025    00076 PAX +0 73400 1 00000    00077 LXA +0 53400 2 00025
 00100 CLA +0 50000 2 77333    00101 STO +0 60100 1 77207    00102 TRA +0 02000 0 00057
                 TOP=TOP+MAX                                                        012  LM00016
 00103 CLA +0 50000 0 00026    00104 ADD +0 40000 0 77334    00105 STO +0 60100 0 00026
                 WHENEVER USES(TOP).E.$     -$                                      013  LM00017
 00106 LXA +0 53400 1 00026    00107 CLA +0 50000 1 77207    00110 SUB +0 40200 0 00034    00111 TNZ -0 10000 0 00117
                 TOP=TOP-1                                                          014  LM00018
 00112 CLA +0 50000 0 00026    00113 SUB +0 40200 0 00030    00114 STO +0 60100 0 00026
                 READ.                                                              015  LM00019
 00115 TSX +0 07400 4 00003
                 TRANSFER TO LOOP                                                   016  LM00020
 00116 TRA +0 02000 0 00010
                 END OF CONDITIONAL                                                 017  LM00021
                 USES(TOP+1)=0                                                      018  LM00022
 00117 CLA +0 50000 0 00026    00120 ADD +0 40000 0 00030    00121 PAX +0 73400 1 00000    00122 CLA +0 50000 0 00027
 00123 STO +0 60100 1 77207
                 THROUGH FIND, FOR USES=1,1,USES.G.TOP                              019  LM00024
 00124 CLA +0 50000 0 00030    00125 STO +0 60100 0 77207    00126 TRA +0 02000 0 00132    00127 CLA +0 50000 0 77207
 00130 ADD +0 40000 0 00030    00131 STO +0 60100 0 77207    00132 CLA +0 50000 0 77207    00133 SUB +0 40200 0 00026
 00134 TZE +0 10000 0 00136    00135 TPL +0 12000 0 00144
      FIND       WHENEVER USES(USES).E.$(MDBG)$,READY.                              020  LM00025
 00136 LXA +0 53400 1 77207    00137 CLA +0 50000 1 77207    00140 SUB +0 40200 0 00035    00141 TNZ -0 10000 0 00143
 00142 TSX +0 07400 4 00004    00143 TRA +0 02000 0 00127
                 WHENEVER USES.G.59,TRANSFER TO TOOMCH                              021  LM00026
 00144 CLA +0 50000 0 77207    00145 SUB +0 40200 0 00032    00146 TZE +0 10000 0 00151    00147 TMI -0 12000 0 00151
 00150 TRA +0 02000 0 00011
                 USES(USES)=$(MDBG)$                                                022  LM00027
 00151 LXA +0 53400 1 77207    00152 CLA +0 50000 0 00035    00153 STO +0 60100 1 77207
                 USES(USES+1)=0                                                     023  LM00028
 00154 CLA +0 50000 0 77207    00155 ADD +0 40000 0 00030    00156 PAX +0 73400 1 00000    00157 CLA +0 50000 0 00027
 00160 STO +0 60100 1 77207
                 READY.                                                             024  LM00029
 00161 TSX +0 07400 4 00004
      TOOMCH     PRINT.(COM1)                                                       025  LM00031
 00162 TSX +0 07400 4 00002    00163 TXH +3 00000 0 00024
                 VECTOR VALUES COM1=55,$ONLY 59 FILES INCLUDING (MDBG) CAN BE       026  LM00032
                1 USED.  TRY AGAIN.$                                                026  LM00033
 00012     -0 53360 6 06060    00013     -3 06021 2 72131    00014     +2 43360 6 06351    00015     +2 56060 6 46225
 00016     -2 02321 4 56022    00017     -3 44424 2 22734    00020     -2 42431 4 52760    00021     -2 26031 4 52343
 00022     +1 16026 3 14325    00023     -0 64543 7 06005    00024     +0 00000 0 00067
                 USES=0                                                             027  LM00034
 00164 CLA +0 50000 0 00027    00165 STO +0 60100 0 77207
                 READY.                                                             028  LM00035
 00166 TSX +0 07400 4 00004
                 END OF FUNCTION                                                    029  LM00037
 00167 TSX +0 07400 4 00001    00170 TXH +3 00000 0 00000    00171 SXD -0 63400 1 00170    00172 SXA +0 63400 4 00174
 00173 TRA +0 02000 2 00001    00174 AXT +0 77400 4 00000    00175 LXA +0 53400 2 00170    00176 LXD -0 53400 1 00170
 00177 TRA +0 02000 4 00001
1     MAD PROGRAM LISTING ... ... ...                 FILE     VAR   MAD            02/07/68    2045.7
-
                  EXTERNAL FUNCTION(A1,A2)                                                        *001 LM00001
                  NORMAL MODE IS INTEGER                                                          *002 LM00002
                  BOOLEAN WSEEK                                                                   *003 LM00003
                  PROGRAM COMMON LIST(84),MAX,FROM(20),TO(20),                                    *004 LM00004
                1 FSUB(20),TSUB(20),USES(60),CURCOR,PATCH,SKIP                                    *004 LM00005
                  VECTOR VALUES SAVED=$****** SAVED$                                              *005 LM00006
                                                                                                       LM00007
                 RETURN VALUE OF VARIABLE AT ABSOLUTE LOCATION A1                                      LM00008
                                                                                                       LM00009
                  ENTRY TO VAR.                                                                   *006 LM00010
                  VSETUP.                                                                         *007 LM00011
                  FUNCTION RETURN WGET.(LOOK)                                                     *008 LM00012
                                                                                                       LM00013
                 SET VALUE OF VARIABLE AT ABSOLUTE LOCATION A1 TO A2                                   LM00014
                                                                                                       LM00015
                  ENTRY TO SETVAR.                                                                *009 LM00016
                  VSETUP.                                                                         *010 LM00017
                  WSET.(LOOK,A2)                                                                  *011 LM00018
                  FUNCTION RETURN                                                                 *012 LM00019
                                                                                                       LM00020
                 SETUP VAR IN WINDOW                                                                   LM00021
                                                                                                       LM00022
                  INTERNAL FUNCTION                                                               *013 LM00023
                  ENTRY TO VSETUP.                                                                *014 LM00024
                  WHENEVER .NOT.WSEEK.($VAR$).AND..NOT.WSEEK.($COMMON$)                           *015 LM00025
                  ORG.($(CMMN)$,CSTART,CCOUNT)                                                    *016 LM00026
                  ZERCOM=ENTRY.($(CMMN)$)                                                         *017 LM00027
                  CCOUNT=-CSTART+ZERCOM-316K                                                      *018 LM00028
                  MAP.($VAR$,VSTART,VCOUNT)                                                       *019 LM00029
                  VLAST=VSTART+VCOUNT-1                                                           *020 LM00030
                  SAVED=CURCOR                                                                    *021 LM00031
                  END OF CONDITIONAL                                                              *022 LM00032
                                                                                                       LM00033
                  WHENEVER A1.GE.VSTART.AND.A1.LE.VLAST                                           *023 LM00034
                  LOOK=A1-VSTART+1                                                                *024 LM00035
                  WHENEVER .NOT. WSEEK.($VAR$),WSETUP.($VAR$,SAVED,SKIP+VSTART+                   *025 LM00036
                1 1,VCOUNT)                                                                       *025 LM00037
                  OTHERWISE                                                                       *026 LM00038
                  LOOK=CCOUNT+A1-77461K                                                           *027 LM00039
                  WHENEVER .NOT.WSEEK.($COMMON$),                                                 *028 LM00040
                1 WSETUP.($COMMON$,SAVED,SKIP+CSTART+1,CCOUNT)                                    *028 LM00041
                  END OF CONDITIONAL                                                              *029 LM00042
                                                                                                       LM00043
                  FUNCTION RETURN                                                                 *030 LM00044
                  END OF FUNCTION                                                                 *031 LM00045
                  END OF FUNCTION                                                                 *032 LM00046
1MAD PROGRAM,TYPE NOV 1963      (ALL NUMBERS ARE OCTAL)
0TOTAL LOCATIONS   00216 TRANSFER VECTOR LENGTH  00010 PROGRAM BEGINS    00032 FIRST UNUSED COMMON/ERASABLE  77107
0 PROGRAM IS AN EXTERNAL FUNCTION.   THE FOLLOWING ARE ENTRIES
      SETVAR 00042   0        VAR    00033   0
0VARIABLE STORAGE (A=ARRAY,C=COMMON,E=ERASABLE,DIGIT=MODE)
      CCOUNT 00012   1        FSUB   77261 AC1        PATCH  77111  C1        TSUB   77234 AC1        VLAST  00020   1
      CSTART 00013   1        LIST   77461 AC1        SAVED  00016 A 1        USES   77207 AC1        VSTART 00021   1
      CURCOR 77112  C1        LOOK   00014   1        SKIP   77110  C1        VCOUNT 00017   1        ZERCOM 00022   1
      FROM   77333 AC1        MAX    77334  C1        TO     77306 AC1
0FUNCTION DICTIONARY
      ENTRY  00000   1        EXIT   00001   1        MAP    00002   1        ORG    00003   1        WGET   00004   1
      WSEEK  00005   2        WSET   00006   1        WSETUP 00007   1        VSETUP 00010   1
0ABSOLUTE CONSTANTS
 00025 +000000077461     00024 +000000000316     00031 -342344444534     00030 -252151606060     00027 +234644444645
 00023 +000000000001     00026 +233000000000
0PROGRAM
                 EXTERNAL FUNCTION(A1,A2)                                           001  LM00001
                 NORMAL MODE IS INTEGER                                             002  LM00002
                 BOOLEAN WSEEK                                                      003  LM00003
                 PROGRAM COMMON LIST(84),MAX,FROM(20),TO(20),                       004  LM00004
                1FSUB(20),TSUB(20),USES(60),CURCOR,PATCH,SKIP                       004  LM00005
                 VECTOR VALUES SAVED=$****** SAVED$                                 005  LM00006
 00015     -2 06221 6 52524    00016     -1 45454 5 45454
                 ENTRY TO VAR.                                                      006  LM00010
 00032 TRA +0 02000 0 00035    00033 SXA +0 63400 2 00175    00034 TSX +0 07400 2 00175
                 VSETUP.                                                            007  LM00011
 00035 TSX +0 07400 4 00010
                 FUNCTION RETURN WGET.(LOOK)                                        008  LM00012
 00036 TSX +0 07400 4 00004    00037 TXH +3 00000 0 00014    00040 TRA +0 02000 0 00210
                 ENTRY TO SETVAR.                                                   009  LM00016
 00041 TRA +0 02000 0 00044    00042 SXA +0 63400 2 00175    00043 TSX +0 07400 2 00175
                 VSETUP.                                                            010  LM00017
 00044 TSX +0 07400 4 00010
                 WSET.(LOOK,A2)                                                     011  LM00018
 00045 TSX +0 07400 4 00006    00046 TXH +3 00000 0 00014    00047 TXH +3 00000 0 00000
                 FUNCTION RETURN                                                    012  LM00019
 00050 TRA +0 02000 0 00210
                 INTERNAL FUNCTION                                                  013  LM00023
 00051 TRA +0 02000 0 00174
                 ENTRY TO VSETUP.                                                   014  LM00024
 00052 TRA +0 02000 0 00055    00010 TTR +0 02100 0 00053    00053 SXA +0 63400 2 00163    00054 TSX +0 07400 2 00163
                 WHENEVER .NOT.WSEEK.($VAR$).AND..NOT.WSEEK.($COMMON$)              015  LM00025
 00055 TSX +0 07400 4 00005    00056 TXH +3 00000 0 00027    00057 TNZ -0 10000 0 00110    00060 TSX +0 07400 4 00005
 00061 TXH +3 00000 0 00030    00062 TNZ -0 10000 0 00110
                 ORG.($(CMMN)$,CSTART,CCOUNT)                                       016  LM00026
 00063 TSX +0 07400 4 00003    00064 TXH +3 00000 0 00031    00065 TXH +3 00000 0 00013    00066 TXH +3 00000 0 00012
                 ZERCOM=ENTRY.($(CMMN)$)                                            017  LM00027
 00067 TSX +0 07400 4 00000    00070 TXH +3 00000 0 00031    00071 STO +0 60100 0 00022
                 CCOUNT=-CSTART+ZERCOM-316K                                         018  LM00028
 00072 CLS +0 50200 0 00013    00073 ADD +0 40000 0 00022    00074 SUB +0 40200 0 00024    00075 STO +0 60100 0 00012
                 MAP.($VAR$,VSTART,VCOUNT)                                          019  LM00029
 00076 TSX +0 07400 4 00002    00077 TXH +3 00000 0 00030    00100 TXH +3 00000 0 00021    00101 TXH +3 00000 0 00017
                 VLAST=VSTART+VCOUNT-1                                              020  LM00030
 00102 CLA +0 50000 0 00021    00103 ADD +0 40000 0 00017    00104 SUB +0 40200 0 00023    00105 STO +0 60100 0 00020
                 SAVED=CURCOR                                                       021  LM00031
 00106 CLA +0 50000 0 77112    00107 STO +0 60100 0 00016
                 END OF CONDITIONAL                                                 022  LM00032
                 WHENEVER A1.GE.VSTART.AND.A1.LE.VLAST                              023  LM00034
 00110 CLA +0 50000 0 00000    00111 SUB +0 40200 0 00020    00112 TZE +0 10000 0 00114    00113 TPL +0 12000 0 00141
 00114 CLA +0 50000 0 00000    00115 SUB +0 40200 0 00021    00116 TZE +0 10000 0 00120    00117 TMI -0 12000 0 00141
                 LOOK=A1-VSTART+1                                                   024  LM00035
 00120 CLA +0 50000 0 00000    00121 SUB +0 40200 0 00021    00122 ADD +0 40000 0 00023    00123 STO +0 60100 0 00014
                 WHENEVER .NOT. WSEEK.($VAR$),WSETUP.($VAR$,SAVED,SKIP+VSTART+      025  LM00036
                11,VCOUNT)                                                          025  LM00037
 00124 TSX +0 07400 4 00005    00125 TXH +3 00000 0 00030    00126 TNZ -0 10000 0 00140    00127 CLA +0 50000 0 77110
 00130 ADD +0 40000 0 00021    00131 ADD +0 40000 0 00023    00132 STO +0 60100 0 00173    00133 TSX +0 07400 4 00007
 00134 TXH +3 00000 0 00030    00135 TXH +3 00000 0 00016    00136 TXH +3 00000 0 00173    00137 TXH +3 00000 0 00017
                 OTHERWISE                                                          026  LM00038
 00140 TRA +0 02000 0 00161
                 LOOK=CCOUNT+A1-77461K                                              027  LM00039
 00141 CLA +0 50000 0 00012    00142 ADD +0 40000 0 00000    00143 SUB +0 40200 0 00025    00144 STO +0 60100 0 00014
                 WHENEVER .NOT.WSEEK.($COMMON$),                                    028  LM00040
                1WSETUP.($COMMON$,SAVED,SKIP+CSTART+1,CCOUNT)                       028  LM00041
 00145 TSX +0 07400 4 00005    00146 TXH +3 00000 0 00027    00147 TNZ -0 10000 0 00161    00150 CLA +0 50000 0 77110
 00151 ADD +0 40000 0 00013    00152 ADD +0 40000 0 00023    00153 STO +0 60100 0 00173    00154 TSX +0 07400 4 00007
 00155 TXH +3 00000 0 00027    00156 TXH +3 00000 0 00016    00157 TXH +3 00000 0 00173    00160 TXH +3 00000 0 00012
                 END OF CONDITIONAL                                                 029  LM00042
                 FUNCTION RETURN                                                    030  LM00044
 00161 TRA +0 02000 0 00167
                 END OF FUNCTION                                                    031  LM00045
 00162 TSX +0 07400 4 00001    00163 TXH +3 00000 0 00000    00164 SXD -0 63400 1 00163    00165 SXA +0 63400 4 00167
 00166 TRA +0 02000 2 00001    00167 AXT +0 77400 4 00000    00170 LXA +0 53400 2 00163    00171 LXD -0 53400 1 00163
 00172 TRA +0 02000 4 00001
                 END OF FUNCTION                                                    032  LM00046
 00174 TSX +0 07400 4 00001    00175 TXH +3 00000 0 00000    00176 SXD -0 63400 1 00175    00177 SXA +0 63400 4 00210
 00200 CLA +0 50000 4 00001    00201 STA +0 62100 0 00110    00202 STA +0 62100 0 00114    00203 STA +0 62100 0 00120
 00204 STA +0 62100 0 00142    00205 CLA +0 50000 4 00002    00206 STO +0 60100 0 00047    00207 TRA +0 02000 2 00001
 00210 AXT +0 77400 4 00000    00211 LXA +0 53400 2 00175    00212 LXD -0 53400 1 00175    00213 TRA +0 02000 4 00001
1     MAD PROGRAM LISTING ... ... ...                 FILE       W   MAD            02/07/68    2045.8
-
                  EXTERNAL FUNCTION                                                               *001 LM00001
                  NORMAL MODE IS INTEGER                                                          *002 LM00002
                  PROGRAM COMMON LIST(84),MAX,FROM(20)                                            *003 LM00003
                                                                                                       LM00004
                 SET PROGRAM BEING WORKED                                                              LM00005
                                                                                                       LM00006
                  ENTRY TO W.                                                                     *004 LM00007
                  ARGBCD.(1)                                                                      *005 LM00008
                  SWORK.(FROM(1))                                                                 *006 LM00009
                  READY.                                                                          *007 LM00010
                  END OF FUNCTION                                                                 *008 LM00011
1MAD PROGRAM,TYPE NOV 1963      (ALL NUMBERS ARE OCTAL)
0TOTAL LOCATIONS   00032 TRANSFER VECTOR LENGTH  00004 PROGRAM BEGINS    00007 FIRST UNUSED COMMON/ERASABLE  77306
0 PROGRAM IS AN EXTERNAL FUNCTION.   THE FOLLOWING ARE ENTRIES
      W      00010   0
0VARIABLE STORAGE (A=ARRAY,C=COMMON,E=ERASABLE,DIGIT=MODE)
      FROM   77333 AC1        LIST   77461 AC1        MAX    77334  C1
0FUNCTION DICTIONARY
      ARGBCD 00000   1        EXIT   00001   1        READY  00002   1        SWORK  00003   1
0ABSOLUTE CONSTANTS
 00005 +000000000001     00006 +233000000000
0PROGRAM
                 EXTERNAL FUNCTION                                                  001  LM00001
                 NORMAL MODE IS INTEGER                                             002  LM00002
                 PROGRAM COMMON LIST(84),MAX,FROM(20)                               003  LM00003
                 ENTRY TO W.                                                        004  LM00007
 00007 TRA +0 02000 0 00012    00010 SXA +0 63400 2 00020    00011 TSX +0 07400 2 00020
                 ARGBCD.(1)                                                         005  LM00008
 00012 TSX +0 07400 4 00000    00013 TXH +3 00000 0 00005
                 SWORK.(FROM(1))                                                    006  LM00009
 00014 TSX +0 07400 4 00003    00015 TXH +3 00000 0 77332
                 READY.                                                             007  LM00010
 00016 TSX +0 07400 4 00002
                 END OF FUNCTION                                                    008  LM00011
 00017 TSX +0 07400 4 00001    00020 TXH +3 00000 0 00000    00021 SXD -0 63400 1 00020    00022 SXA +0 63400 4 00024
 00023 TRA +0 02000 2 00001    00024 AXT +0 77400 4 00000    00025 LXA +0 53400 2 00020    00026 LXD -0 53400 1 00020
 00027 TRA +0 02000 4 00001
1     MAD PROGRAM LISTING ... ... ...                 FILE     XEQ   MAD            02/07/68    2046.4
-
                  EXTERNAL FUNCTION (N,C1,C2,C3)                                                  *001 LM00001
                  NORMAL MODE IS INTEGER                                                          *002 LM00002
                  BOOLEAN CRP                                                                     *003 LM00003
                  VECTOR VALUES SAVE=$  SAVE(MDBG)     P$,777777777777K                           *004 LM00004
                  VECTOR VALUES RESUME=$RESUME(MDBG)$,777777777777K                               *005 LM00005
                  VECTOR VALUES CHMODE=$CHMODE(MDBG) SAVED     0$,777777777777K                   *006 LM00006
                                                                                                       LM00007
                 EXECUTE N.LE.2 CTSS COMMANDS                                                          LM00008
                                                                                                       LM00009
                  ENTRY TO XEQ.                                                                   *007 LM00010
                  WHENEVER N.LE.0.OR.N.G.3                                                        *008 LM00011
                  PRINT.(COM1)                                                                    *009 LM00012
                  VECTOR VALUES COM1=27,$XEQ ERROR, CONSULT LISTING.$                             *010 LM00013
                  READY.                                                                          *011 LM00014
                  END OF CONDITIONAL                                                              *012 LM00015
                  SCLS.(SAVE,1)                                                                   *013 LM00016
                  SCLS.(C1,2)                                                                     *014 LM00017
                  WHENEVER N.G.1,SCLS.(C2,3)                                                      *015 LM00018
                  WHENEVER N.G.2,SCLS.(C3,4)                                                      *016 LM00019
                                                                                                       LM00020
                  WHENEVER SAVE(2).E.$     T$                                                     *017 LM00021
                  SCLS.(RESUME,N+2)                                                               *018 LM00022
                  SCLC.(1,N+2)                                                                    *019 LM00023
                  OR WHENEVER N.L.3                                                               *020 LM00024
                  SCLS.(CHMODE,N+2)                                                               *021 LM00025
                  SCLS.(RESUME,N+3)                                                               *022 LM00026
                  SCLC.(1,N+3)                                                                    *023 LM00027
                  OTHERWISE                                                                       *024 LM00028
                  SCLS.(RESUME,5)                                                                 *025 LM00029
                  SCLC.(1,5)                                                                      *026 LM00030
                  END OF CONDITIONAL                                                              *027 LM00031
                                                                                                       LM00032
                  CHNCOM.(1)                                                                      *028 LM00033
                  WHENEVER N.E.3.AND.SAVE(2).E.$     P$,DELETE.(CHMODE(1))                        *029 LM00034
                  FUNCTION RETURN                                                                 *030 LM00035
                                                                                                       LM00036
                 SET THE MODE OF FILE (MDBG) SAVED TO 'T' OR 'P'                                       LM00037
                                                                                                       LM00038
                  ENTRY TO MODE.                                                                  *031 LM00039
                  SPACE.                                                                          *032 LM00040
                  GETBCD.(BCD)                                                                    *033 LM00041
                  SPACE.                                                                          *034 LM00042
                  WHENEVER BCD.NE.$T$.AND.BCD.NE.$P$.OR..NOT.CRP.(0)                              *035 LM00043
                  PRINT.(COM1)                                                                    *036 LM00044
                  VECTOR VALUES COM1=27,$TRY AGAIN WITH 'T' OR 'P'.$                              *037 LM00045
                  READY.                                                                          *038 LM00046
                  END OF CONDITIONAL                                                              *039 LM00047
                  RTJUST.(BCD)                                                                    *040 LM00048
                  SAVE(2)=BCD                                                                     *041 LM00049
                  READY.                                                                          *042 LM00050
                  END OF FUNCTION                                                                 *043 LM00051
1MAD PROGRAM,TYPE NOV 1963      (ALL NUMBERS ARE OCTAL)
0TOTAL LOCATIONS   00273 TRANSFER VECTOR LENGTH  00013 PROGRAM BEGINS    00052
0 PROGRAM IS AN EXTERNAL FUNCTION.   THE FOLLOWING ARE ENTRIES
      MODE   00205   0        XEQ    00053   0
0VARIABLE STORAGE (A=ARRAY,C=COMMON,E=ERASABLE,DIGIT=MODE)
      BCD    00014   1        CHMODE 00021 A 1        COM1   00027 A 1        RESUME 00032 A 1        SAVE   00036 A 1
0FUNCTION DICTIONARY
      CHNCOM 00000   1        CRP    00001   2        DELETE 00002   1        EXIT   00003   1        GETBCD 00004   1
      PRINT  00005   1        READY  00006   1        RTJUST 00007   1        SCLC   00010   1        SCLS   00011   1
      SPACE  00012   1
0ABSOLUTE CONSTANTS
 00051 -236060606060     00046 -076060606060     00047 -206060606047     00044 +000000000005     00050 -206060606063
 00043 +000000000004     00041 +000000000002     00037 +000000000000     00042 +000000000003     00040 +000000000001
 00045 +233000000000
0PROGRAM
                 EXTERNAL FUNCTION (N,C1,C2,C3)                                     001  LM00001
                 NORMAL MODE IS INTEGER                                             002  LM00002
                 BOOLEAN CRP                                                        003  LM00003
                 VECTOR VALUES SAVE=$  SAVE(MDBG)     P$,777777777777K              004  LM00004
 00033     -3 77777 7 77777    00034     -2 06060 6 06047    00035     -3 44424 2 22734    00036     -2 06062 2 16525
                 VECTOR VALUES RESUME=$RESUME(MDBG)$,777777777777K                  005  LM00005
 00030     -3 77777 7 77777    00031     -3 44424 2 22734    00032     -1 12562 6 44425
                 VECTOR VALUES CHMODE=$CHMODE(MDBG) SAVED     0$,777777777777K      006  LM00006
 00015     -3 77777 7 77777    00016     -2 06060 6 06000    00017     -2 06221 6 52524    00020     -3 44424 2 22734
 00021     +2 33044 4 62425
                 ENTRY TO XEQ.                                                      007  LM00010
 00052 TRA +0 02000 0 00055    00053 SXA +0 63400 2 00236    00054 TSX +0 07400 2 00236
                 WHENEVER N.LE.0.OR.N.G.3                                           008  LM00011
 00055 CLA +0 50000 0 00024    00056 SUB +0 40200 0 00042    00057 TZE +0 10000 0 00061    00060 TPL +0 12000 0 00065
 00061 CLA +0 50000 0 00024    00062 SUB +0 40200 0 00037    00063 TZE +0 10000 0 00065    00064 TPL +0 12000 0 00070
                 PRINT.(COM1)                                                       009  LM00012
 00065 TSX +0 07400 4 00005    00066 TXH +3 00000 0 00027
                 VECTOR VALUES COM1=27,$XEQ ERROR, CONSULT LISTING.$                010  LM00013
 00022     -0 52733 6 06060    00023     -2 04331 6 26331    00024     -0 64562 6 44363    00025     -1 14651 7 36023
 00026     -2 72550 6 02551    00027     +0 00000 0 00033
                 READY.                                                             011  LM00014
 00067 TSX +0 07400 4 00006
                 END OF CONDITIONAL                                                 012  LM00015
                 SCLS.(SAVE,1)                                                      013  LM00016
 00070 TSX +0 07400 4 00011    00071 TXH +3 00000 0 00036    00072 TXH +3 00000 0 00040
                 SCLS.(C1,2)                                                        014  LM00017
 00073 TSX +0 07400 4 00011    00074 TXH +3 00000 0 00024    00075 TXH +3 00000 0 00041
                 WHENEVER N.G.1,SCLS.(C2,3)                                         015  LM00018
 00076 CLA +0 50000 0 00024    00077 SUB +0 40200 0 00040    00100 TZE +0 10000 0 00105    00101 TMI -0 12000 0 00105
 00102 TSX +0 07400 4 00011    00103 TXH +3 00000 0 00024    00104 TXH +3 00000 0 00042
                 WHENEVER N.G.2,SCLS.(C3,4)                                         016  LM00019
 00105 CLA +0 50000 0 00024    00106 SUB +0 40200 0 00041    00107 TZE +0 10000 0 00114    00110 TMI -0 12000 0 00114
 00111 TSX +0 07400 4 00011    00112 TXH +3 00000 0 00024    00113 TXH +3 00000 0 00043
                 WHENEVER SAVE(2).E.$     T$                                        017  LM00021
 00114 CLA +0 50000 0 00034    00115 SUB +0 40200 0 00050    00116 TNZ -0 10000 0 00134
                 SCLS.(RESUME,N+2)                                                  018  LM00022
 00117 CLA +0 50000 0 00024    00120 ADD +0 40000 0 00041    00121 STO +0 60100 0 00270    00122 TSX +0 07400 4 00011
 00123 TXH +3 00000 0 00032    00124 TXH +3 00000 0 00270
                 SCLC.(1,N+2)                                                       019  LM00023
 00125 CLA +0 50000 0 00024    00126 ADD +0 40000 0 00041    00127 STO +0 60100 0 00270    00130 TSX +0 07400 4 00010
 00131 TXH +3 00000 0 00040    00132 TXH +3 00000 0 00270
                 OR WHENEVER N.L.3                                                  020  LM00024
 00133 TRA +0 02000 0 00171    00134 CLA +0 50000 0 00024    00135 SUB +0 40200 0 00042    00136 TZE +0 10000 0 00163
 00137 TPL +0 12000 0 00163
                 SCLS.(CHMODE,N+2)                                                  021  LM00025
 00140 CLA +0 50000 0 00024    00141 ADD +0 40000 0 00041    00142 STO +0 60100 0 00270    00143 TSX +0 07400 4 00011
 00144 TXH +3 00000 0 00021    00145 TXH +3 00000 0 00270
                 SCLS.(RESUME,N+3)                                                  022  LM00026
 00146 CLA +0 50000 0 00024    00147 ADD +0 40000 0 00042    00150 STO +0 60100 0 00270    00151 TSX +0 07400 4 00011
 00152 TXH +3 00000 0 00032    00153 TXH +3 00000 0 00270
                 SCLC.(1,N+3)                                                       023  LM00027
 00154 CLA +0 50000 0 00024    00155 ADD +0 40000 0 00042    00156 STO +0 60100 0 00270    00157 TSX +0 07400 4 00010
 00160 TXH +3 00000 0 00040    00161 TXH +3 00000 0 00270
                 OTHERWISE                                                          024  LM00028
 00162 TRA +0 02000 0 00171
                 SCLS.(RESUME,5)                                                    025  LM00029
 00163 TSX +0 07400 4 00011    00164 TXH +3 00000 0 00032    00165 TXH +3 00000 0 00044
                 SCLC.(1,5)                                                         026  LM00030
 00166 TSX +0 07400 4 00010    00167 TXH +3 00000 0 00040    00170 TXH +3 00000 0 00044
                 END OF CONDITIONAL                                                 027  LM00031
                 CHNCOM.(1)                                                         028  LM00033
 00171 TSX +0 07400 4 00000    00172 TXH +3 00000 0 00040
                 WHENEVER N.E.3.AND.SAVE(2).E.$     P$,DELETE.(CHMODE(1))           029  LM00034
 00173 CLA +0 50000 0 00034    00174 SUB +0 40200 0 00047    00175 TNZ -0 10000 0 00203    00176 CLA +0 50000 0 00024
 00177 SUB +0 40200 0 00042    00200 TNZ -0 10000 0 00203    00201 TSX +0 07400 4 00002    00202 TXH +3 00000 0 00020
                 FUNCTION RETURN                                                    030  LM00035
 00203 TRA +0 02000 0 00264
                 ENTRY TO MODE.                                                     031  LM00039
 00204 TRA +0 02000 0 00207    00205 SXA +0 63400 2 00236    00206 TSX +0 07400 2 00236
                 SPACE.                                                             032  LM00040
 00207 TSX +0 07400 4 00012
                 GETBCD.(BCD)                                                       033  LM00041
 00210 TSX +0 07400 4 00004    00211 TXH +3 00000 0 00014
                 SPACE.                                                             034  LM00042
 00212 TSX +0 07400 4 00012
                 WHENEVER BCD.NE.$T$.AND.BCD.NE.$P$.OR..NOT.CRP.(0)                 035  LM00043
 00213 TSX +0 07400 4 00001    00214 TXH +3 00000 0 00037    00215 TZE +0 10000 0 00225    00216 CLA +0 50000 0 00014
 00217 SUB +0 40200 0 00046    00220 TZE +0 10000 0 00224    00221 CLA +0 50000 0 00014    00222 SUB +0 40200 0 00051
 00223 TNZ -0 10000 0 00225    00224 TRA +0 02000 0 00230
                 PRINT.(COM1)                                                       036  LM00044
 00225 TSX +0 07400 4 00005    00226 TXH +3 00000 0 00027
                 VECTOR VALUES COM1=27,$TRY AGAIN WITH 'T' OR 'P'.$                 037  LM00045
 00022     +1 43360 6 06060    00023     -2 04651 6 01447    00024     -2 33060 1 46314    00025     +2 13145 6 06631
 00026     -2 35170 6 02127    00027     +0 00000 0 00033
                 READY.                                                             038  LM00046
 00227 TSX +0 07400 4 00006
                 END OF CONDITIONAL                                                 039  LM00047
                 RTJUST.(BCD)                                                       040  LM00048
 00230 TSX +0 07400 4 00007    00231 TXH +3 00000 0 00014
                 SAVE(2)=BCD                                                        041  LM00049
 00232 CLA +0 50000 0 00014    00233 STO +0 60100 0 00034
                 READY.                                                             042  LM00050
 00234 TSX +0 07400 4 00006
                 END OF FUNCTION                                                    043  LM00051
 00235 TSX +0 07400 4 00003    00236 TXH +3 00000 0 00000    00237 SXD -0 63400 1 00236    00240 SXA +0 63400 4 00264
 00241 CLA +0 50000 4 00001    00242 STA +0 62100 0 00055    00243 STA +0 62100 0 00061    00244 STA +0 62100 0 00076
 00245 STA +0 62100 0 00105    00246 STA +0 62100 0 00117    00247 STA +0 62100 0 00125    00250 STA +0 62100 0 00134
 00251 STA +0 62100 0 00140    00252 STA +0 62100 0 00146    00253 STA +0 62100 0 00154    00254 STA +0 62100 0 00176
 00255 CLA +0 50000 4 00002    00256 STO +0 60100 0 00074    00257 CLA +0 50000 4 00003    00260 STO +0 60100 0 00103
 00261 CLA +0 50000 4 00004    00262 STO +0 60100 0 00112    00263 TRA +0 02000 2 00001    00264 AXT +0 77400 4 00000
 00265 LXA +0 53400 2 00236    00266 LXD -0 53400 1 00236    00267 TRA +0 02000 4 00001


MADTRN   BCD 09/18/68 2343.2  151523         00000
1     MAD PROGRAM LISTING ... ... ...                 FILE    MRRP   MAD            02/07/68    2124.9
-
                                   ERRP                                                                LM00001
                                                                                                       LM00002
                  EXTERNAL FUNCTION (ERRO)                                                        *001 LM00003
                  NORMAL MODE IS INTEGER                                                          *002 LM00004
                  ERASABLE DUM(200),N(2000),INTEG(2000),FUNCT(1000),DIM(2000),                    *003 LM00005
                1 I(666),HOL(500),OUT(500),ARRG(50),STNO,NSNO,STACON,CCT,WHOLE,                   *003 LM00006
                2 DUMP,BUMP,LUMP,RUMP,CRUMP,PUMP,FLAG,BOOLFL,SUB,SW3,TS3,PR,                      *003 LM00007
                3 ERR,CSW,NUMBER,MOX,ZZXQ1                                                        *003 LM00008
                  BOOLEAN BOOLFL,CSW,MOX,DUMP,BUMP,LUMP,RUMP,CRUMP,PUMP                           *004 LM00009
                  STATEMENT LABEL SW3,TS3,PR,ZZXQ1                                                *005 LM00010
                                                                                                       LM00011
                   ERRP.                                                                               LM00012
                                                                                                       LM00013
                  ENTRY TO ERRP.                                                                  *006 LM00014
                  CSW=0B                                                                          *007 LM00015
                  ERR=ERR+1                                                                       *008 LM00016
                  TRANSFER TO ERST(ERRO)                                                          *009 LM00017
      ERST(1)     PRNTPC.(E1)                                                                     *010 LM00018
                  TRANSFER TO S2062                                                               *011 LM00019
      ERST(2)     PRNTPC.(E2)                                                                     *012 LM00020
                  TRANSFER TO S2062                                                               *013 LM00021
      ERST(3)     PRNTPC.(E3)                                                                     *014 LM00022
                  TRANSFER TO S2062                                                               *015 LM00023
      ERST(4)     PRNTPC.(E4)                                                                     *016 LM00024
                  TRANSFER TO S2062                                                               *017 LM00025
      ERST(5)     PRNTPC.(E5)                                                                     *018 LM00026
                  TRANSFER TO S2062                                                               *019 LM00027
      ERST(6)     PRNTPC.(E6)                                                                     *020 LM00028
                  TRANSFER TO S2062                                                               *021 LM00029
      ERST(7)     PRNTPC.(E7)                                                                     *022 LM00030
                  TRANSFER TO S2062                                                               *023 LM00031
      ERST(8)     PRNTPC.(E8)                                                                     *024 LM00032
                  TRANSFER TO S2062                                                               *025 LM00033
      ERST(9)     PRNTPC.(E9)                                                                     *026 LM00034
                  TRANSFER TO S2062                                                               *027 LM00035
      ERST(10)    PRNTPC.(E10)                                                                    *028 LM00036
                  TRANSFER TO S2062                                                               *029 LM00037
      ERST(11)    PRNTPC.(E11)                                                                    *030 LM00038
                  TRANSFER TO S2062                                                               *031 LM00039
      ERST(12)    PRNTPC.(E12)                                                                    *032 LM00040
                  TRANSFER TO S2062                                                               *033 LM00041
      ERST(13)    PRNTPC.(E13)                                                                    *034 LM00042
                  TRANSFER TO S2062                                                               *035 LM00043
      ERST(14)    PRNTPC.(E14)                                                                    *036 LM00044
                  TRANSFER TO S2062                                                               *037 LM00045
      ERST(15)    PRNTPC.(E15)                                                                    *038 LM00046
                  TRANSFER TO S2062                                                               *039 LM00047
      ERST(16)    PRNTPC.(E16)                                                                    *040 LM00048
                  TRANSFER TO S2062                                                               *041 LM00049
      ERST(17)    PRNTPC.(E17)                                                                    *042 LM00050
                  TRANSFER TO S2062                                                               *043 LM00051
      ERST(18)    PRNTPC.(E18)                                                                    *044 LM00052
                  TRANSFER TO S2062                                                               *045 LM00053
      ERST(19)    PRNTPC.(E19)                                                                    *046 LM00054
                  TRANSFER TO S2062                                                               *047 LM00055
      ERST(20)    PRNTPC.(E20)                                                                    *048 LM00056
                  TRANSFER TO S2062                                                               *049 LM00057
      ERST(21)    PRNTPC.(E21)                                                                    *050 LM00058
                  TRANSFER TO S2062                                                               *051 LM00059
      ERST(22)    PRNTPC.(E22)                                                                    *052 LM00060
                  TRANSFER TO S2062                                                               *053 LM00061
      ERST(23)    PRNTPC.(E23)                                                                    *054 LM00062
                  TRANSFER TO S2062                                                               *055 LM00063
      ERST(24)    PRNTPC.(E24)                                                                    *056 LM00064
                  TRANSFER TO S2062                                                               *057 LM00065
      ERST(25)    PRNTPC.(E25)                                                                    *058 LM00066
                  VECTOR VALUES OUTFMT=$13H ***** ERROR I2,6H .... 18C6*$                         *059 LM00067
      S2062       TRANSFER TO TS3                                                                 *060 LM00068
                  VECTOR VALUES E1=$****ERROR 1$,555252525252K                                    *061 LM00069
                  VECTOR VALUES E2=$****ERROR 2$,555252525252K                                    *062 LM00070
                  VECTOR VALUES E3=$****ERROR 3$,555252525252K                                    *063 LM00071
                  VECTOR VALUES E4=$****ERROR 4$,555252525252K                                    *064 LM00072
                  VECTOR VALUES E5=$****ERROR 5$,555252525252K                                    *065 LM00073
                  VECTOR VALUES E6=$****ERROR 6$,555252525252K                                    *066 LM00074
                  VECTOR VALUES E7=$****ERROR 7$,555252525252K                                    *067 LM00075
                  VECTOR VALUES E8=$****ERROR 8$,555252525252K                                    *068 LM00076
                  VECTOR VALUES E9=$****ERROR 9$,555252525252K                                    *069 LM00077
                  VECTOR VALUES E10=$****ERROR 10$,555252525252K                                  *070 LM00078
                  VECTOR VALUES E11=$****ERROR 11$,555252525252K                                  *071 LM00079
                  VECTOR VALUES E12=$****ERROR 12$,555252525252K                                  *072 LM00080
                  VECTOR VALUES E13=$****ERROR 13$,555252525252K                                  *073 LM00081
                  VECTOR VALUES E14=$****ERROR 14$,555252525252K                                  *074 LM00082
                  VECTOR VALUES E15=$****ERROR 15$,555252525252K                                  *075 LM00083
                  VECTOR VALUES E16=$****ERROR 16$,555252525252K                                  *076 LM00084
                  VECTOR VALUES E17=$****ERROR 17$,555252525252K                                  *077 LM00085
                  VECTOR VALUES E18=$****ERROR 18$,555252525252K                                  *078 LM00086
                  VECTOR VALUES E19=$****ERROR 19$,555252525252K                                  *079 LM00087
                  VECTOR VALUES E20=$****ERROR 20$,555252525252K                                  *080 LM00088
                  VECTOR VALUES E21=$****ERROR 21$,555252525252K                                  *081 LM00089
                  VECTOR VALUES E22=$****ERROR 22$,555252525252K                                  *082 LM00090
                  VECTOR VALUES E23=$****ERROR 23$,555252525252K                                  *083 LM00091
                  VECTOR VALUES E24=$****ERROR 24$,555252525252K                                  *084 LM00092
                  VECTOR VALUES E25=$****ERROR 25$,555252525252K                                  *085 LM00093
                  VECTOR VALUES E1( 3)=$ATTEMPT TO EXCEED MAXIMUM ALLOWABLE NUM                   *086 LM00094
                1 BER OF DIMENSIONED VARIABLES (1000)$,555252525252K,                             *086 LM00095
                2 777777777777K                                                                   *086 LM00096
                  VECTOR VALUES E2(3)= $MORE THAN 660 NON-IGNORABLE CHARACTERS                    *087 LM00097
                1 IN FORTRAN STATEMENT$,555252525252K,777777777777K                               *087 LM00098
                  VECTOR VALUES E3(3)= $NO ITERATION VARIABLE IN A DO STATEMENT                   *088 LM00099
                1 $,555252525252K,777777777777K                                                   *088 LM00100
                  VECTOR VALUES E4(3)= $ATTEMPT TO DEFINE A FUNCTION WITH NO AR                   *089 LM00101
                1 GUMENTS$,555252525252K,777777777777K                                            *089 LM00102
                  VECTOR VALUES E5(3)= $ATTEMPT TO SPECIFY STATEMENT LABEL OR C                   *090 LM00103
                1 ARD ID AFTER FIRST CARD OF PROGRAM$,555252525252K,                              *090 LM00104
                2 777777777777K                                                                   *090 LM00105
                  VECTOR VALUES E6(3)= $INSUFFICIENT NUMBER OF COMMAS IN STATEM                   *091 LM00106
                1 ENT$,555252525252K,777777777777K                                                *091 LM00107
                  VECTOR VALUES E7(3)= $STATEMENT RESEMBLING MACHINE CHECKING F                   *092 LM00108
                1 EATURE, BUT MISSPELLED$,555252525252K,777777777777K                             *092 LM00109
                  VECTOR VALUES E8(3)= $MORE THAN 6 CHARACTERS IN A VARIABLE NA                   *093 LM00110
                1 ME$,555252525252K,777777777777K                                                 *093 LM00111
                  VECTOR VALUES E9(3)= $FEWER THAN 3 EXITS IN AN IF STATEMENT$                    *094 LM00112
                1 ,555252525252K,777777777777K                                                    *094 LM00113
                  VECTOR VALUES E10(3)=$NO STATEMENT NUMBER IN AN ASSIGN STATEM                   *095 LM00114
                1 ENT$,555252525252K,777777777777K                                                *095 LM00115
                  VECTOR VALUES E11(3)=$IMPROPER PUNCTUATION IN A DIMENSION STA                   *096 LM00116
                1 TEMENT$,555252525252K,777777777777K                                             *096 LM00117
                  VECTOR VALUES E12(3)=$ATTEMPT TO SPECIFY GREATER THAN 3 DIMEN                   *097 LM00118
                1 SIONS FOR SOME VARIABLE$,555252525252K,777777777777K                            *097 LM00119
                  VECTOR VALUES E13(3)=$IMPROPER STATEMENT FORMATION OR MISSING                   *098 LM00120
                1  COMMA$,555252525252K,777777777777K                                             *098 LM00121
                  VECTOR VALUES E14(3)=$IMPROPER PUNCTUATION IN AN I/O STATEMEN                   *099 LM00122
                1 T$,555252525252K,777777777777K                                                  *099 LM00123
                  VECTOR VALUES E15(3)=$IMPROPER PUNCTUATION IN AN IF STATEMENT                   *100 LM00124
                1 $,555252525252K,777777777777K                                                   *100 LM00125
                  VECTOR VALUES E16(3)=$IMPROPER I/O ITERATION$,555252525252K,                    *101 LM00126
                1  777777777777K                                                                  *101 LM00127
                  VECTOR VALUES E17(3)=$ALPHABETIC CHARACTER IN SOME NUMBER, OR                   *102 LM00128
                1  ATTEMPT TO PUT CONSTANT IN I/O LIST$,555252525252K,                            *102 LM00129
                2  777777777777K                                                                  *102 LM00130
                  VECTOR VALUES E18(3)=$FUNCTION NAME APPEARS WITH NO ARGUMENT                    *103 LM00131
                1 LIST$,555252525252K,777777777777K                                               *103 LM00132
                  VECTOR VALUES E19(3)=$ATTEMPT TO EXCEED MAXIMUM ALLOWABLE NUM                   *104 LM00133
                1 BER OF ARGUMENTS IN A ONE-LINE FUNCTION$,555252525252K,                         *104 LM00134
                2 $DEFINITION (50)$,555252525252K,777777777777K                                   *104 LM00135
                  VECTOR VALUES E20(3)=$NO END CARD$,555252525252K,                               *105 LM00136
                1 777777777777K                                                                   *105 LM00137
                  VECTOR VALUES E21(3)=$ATTEMPT TO EXCEED MAXIMUM ALLOWABLE NUM                   *106 LM00138
                1 BER OF STATEMENT LABELS$,555252525252K,                                         *106 LM00139
                2 $OR CREATED VARIABLES (2000)$,555252525252K,777777777777K                       *106 LM00140
                  VECTOR VALUES E22(3)=$ATTEMPT TO EXCEED MAXIMUM ALLOWABLE NUM                   *107 LM00141
                1 BER OF FUNCTIONS CALLED BY PROGRAM (1000)$,555252525252K,                       *107 LM00142
                2 777777777777K                                                                   *107 LM00143
                  VECTOR VALUES E23(3)=$ATTEMPT TO EXCEED MAXIMUM ALLOWABLE NUM                   *108 LM00144
                1 BER OF INTEGER VARIABLE NAMES (2000)$,555252525252K                             *108 LM00145
                2 ,777777777777K                                                                  *108 LM00146
                  VECTOR VALUES E24(3)=$IMPROPER FORMATION IN A FORMAT STATEMEN                   *109 LM00147
                1 T$,555252525252K,777777777777K                                                  *109 LM00148
                  VECTOR VALUES E25(3)=$STATEMENT CANNOT BE TRANSLATED INTO AN                    *110 LM00149
                1 EQUIVALENT MAD STATEMENT OF 610 CHARACTERS$,555252525252K,                      *110 LM00150
                2 $OR LESS$,555252525252K,777777777777K                                           *110 LM00151
                  END OF FUNCTION                                                                 *111 LM00152
1MAD PROGRAM,TYPE NOV 1963      (ALL NUMBERS ARE OCTAL)
0TOTAL LOCATIONS   00771 TRANSFER VECTOR LENGTH  00002 PROGRAM BEGINS    00627
0 PROGRAM IS AN EXTERNAL FUNCTION.   THE FOLLOWING ARE ENTRIES
      ERRP   00630   0
0VARIABLE STORAGE (A=ARRAY,C=COMMON,E=ERASABLE,DIGIT=MODE)
      ARRG   56207 AE1        E13    00123 A 1        E24    00411 A 1        FLAG   56111  E1        PR     56104  E4
      BOOLFL 56110  E2        E14    00137 A 1        E25    00437 A 1        FUNCT  67306 AE1        PUMP   56112  E2
      BUMP   56116  E2        E15    00153 A 1        E2     00456 A 1        HOL    60161 AE1        RUMP   56114  E2
      CCT    56121  E1        E16    00164 A 1        E3     00472 A 1        INTEG  73227 AE1        S2062  00035   4
      CRUMP  56113  E2        E17    00206 A 1        E4     00507 A 1        I      61414 AE1        STACON 56122  E1
      CSW    56102  E2        E18    00223 A 1        E5     00531 A 1        LUMP   56115  E2        STNO   56124  E1
      DIM    65335 AE1        E19    00251 A 1        E6     00545 A 1        MOX    56100  E2        SUB    56107  E1
      DUMP   56117  E2        E1     00273 A 1        E7     00565 A 1        N      77150 AE1        SW3    56106  E4
      DUM    77461 AE1        E20    00302 A 1        E8     00601 A 1        NSNO   56123  E1        TS3    56105  E4
      E10    00051 A 1        E21    00330 A 1        E9     00615 A 1        NUMBER 56101  E1        WHOLE  56120  E1
      E11    00066 A 1        E22    00353 A 1        ERR    56103  E1        OUTFMT 00623 A 1        ZZXQ1  56077  E4
      E12    00106 A 1        E23    00375 A 1        ERST   00034 A 4        OUT    57174 AE1
0FUNCTION DICTIONARY
      EXIT   00000   1        PRNTPC 00001   1
0ABSOLUTE CONSTANTS
 00624 +000000000000     00625 +000000000001     00626 +233000000000
0STATEMENT DICTIONARY
 00003 TXL -300753000751       00004 TXL -300750000746       00005 TXL -300745000743       00006 TXL -300742000740
 00007 TXL -300737000735       00010 TXL -300734000732       00011 TXL -300731000727       00012 TXL -300726000724
 00013 TXL -300723000721       00014 TXL -300720000716       00015 TXL -300715000713       00016 TXL -300712000710
 00017 TXL -300707000705       00020 TXL -300704000702       00021 TXL -300701000677       00022 TXL -300676000674
 00023 TXL -300673000671       00024 TXL -300670000666       00025 TXL -300665000663       00026 TXL -300662000660
 00027 TXL -300657000655       00030 TXL -300654000652       00031 TXL -300651000647       00032 TXL -300646000644
 00033 TXL -300643000641       00035 TXL -300754000753
0PROGRAM
                 EXTERNAL FUNCTION (ERRO)                                           001  LM00003
                 NORMAL MODE IS INTEGER                                             002  LM00004
                 ERASABLE DUM(200),N(2000),INTEG(2000),FUNCT(1000),DIM(2000),       003  LM00005
                1I(666),HOL(500),OUT(500),ARRG(50),STNO,NSNO,STACON,CCT,WHOLE,      003  LM00006
                2DUMP,BUMP,LUMP,RUMP,CRUMP,PUMP,FLAG,BOOLFL,SUB,SW3,TS3,PR,         003  LM00007
                3ERR,CSW,NUMBER,MOX,ZZXQ1                                           003  LM00008
                 BOOLEAN BOOLFL,CSW,MOX,DUMP,BUMP,LUMP,RUMP,CRUMP,PUMP              004  LM00009
                 STATEMENT LABEL SW3,TS3,PR,ZZXQ1                                   005  LM00010
                 ENTRY TO ERRP.                                                     006  LM00014
 00627 TRA +0 02000 0 00632    00630 SXA +0 63400 2 00755    00631 TSX +0 07400 2 00755
                 CSW=0B                                                             007  LM00015
 00632 CLA +0 50000 0 00624    00633 STO +0 60100 0 56102
                 ERR=ERR+1                                                          008  LM00016
 00634 CLA +0 50000 0 56103    00635 ADD +0 40000 0 00625    00636 STO +0 60100 0 56103
                 TRANSFER TO ERST(ERRO)                                             009  LM00017
 00637 LXA +0 53400 2 00024    00640 TRA +0 02000 2 00034
      ERST(1)    PRNTPC.(E1)                                                        010  LM00018
 00641 TSX +0 07400 4 00001    00642 TXH +3 00000 0 00273
                 TRANSFER TO S2062                                                  011  LM00019
 00643 TRA +0 02000 0 00035
      ERST(2)    PRNTPC.(E2)                                                        012  LM00020
 00644 TSX +0 07400 4 00001    00645 TXH +3 00000 0 00456
                 TRANSFER TO S2062                                                  013  LM00021
 00646 TRA +0 02000 0 00035
      ERST(3)    PRNTPC.(E3)                                                        014  LM00022
 00647 TSX +0 07400 4 00001    00650 TXH +3 00000 0 00472
                 TRANSFER TO S2062                                                  015  LM00023
 00651 TRA +0 02000 0 00035
      ERST(4)    PRNTPC.(E4)                                                        016  LM00024
 00652 TSX +0 07400 4 00001    00653 TXH +3 00000 0 00507
                 TRANSFER TO S2062                                                  017  LM00025
 00654 TRA +0 02000 0 00035
      ERST(5)    PRNTPC.(E5)                                                        018  LM00026
 00655 TSX +0 07400 4 00001    00656 TXH +3 00000 0 00531
                 TRANSFER TO S2062                                                  019  LM00027
 00657 TRA +0 02000 0 00035
      ERST(6)    PRNTPC.(E6)                                                        020  LM00028
 00660 TSX +0 07400 4 00001    00661 TXH +3 00000 0 00545
                 TRANSFER TO S2062                                                  021  LM00029
 00662 TRA +0 02000 0 00035
      ERST(7)    PRNTPC.(E7)                                                        022  LM00030
 00663 TSX +0 07400 4 00001    00664 TXH +3 00000 0 00565
                 TRANSFER TO S2062                                                  023  LM00031
 00665 TRA +0 02000 0 00035
      ERST(8)    PRNTPC.(E8)                                                        024  LM00032
 00666 TSX +0 07400 4 00001    00667 TXH +3 00000 0 00601
                 TRANSFER TO S2062                                                  025  LM00033
 00670 TRA +0 02000 0 00035
      ERST(9)    PRNTPC.(E9)                                                        026  LM00034
 00671 TSX +0 07400 4 00001    00672 TXH +3 00000 0 00615
                 TRANSFER TO S2062                                                  027  LM00035
 00673 TRA +0 02000 0 00035
      ERST(10)   PRNTPC.(E10)                                                       028  LM00036
 00674 TSX +0 07400 4 00001    00675 TXH +3 00000 0 00051
                 TRANSFER TO S2062                                                  029  LM00037
 00676 TRA +0 02000 0 00035
      ERST(11)   PRNTPC.(E11)                                                       030  LM00038
 00677 TSX +0 07400 4 00001    00700 TXH +3 00000 0 00066
                 TRANSFER TO S2062                                                  031  LM00039
 00701 TRA +0 02000 0 00035
      ERST(12)   PRNTPC.(E12)                                                       032  LM00040
 00702 TSX +0 07400 4 00001    00703 TXH +3 00000 0 00106
                 TRANSFER TO S2062                                                  033  LM00041
 00704 TRA +0 02000 0 00035
      ERST(13)   PRNTPC.(E13)                                                       034  LM00042
 00705 TSX +0 07400 4 00001    00706 TXH +3 00000 0 00123
                 TRANSFER TO S2062                                                  035  LM00043
 00707 TRA +0 02000 0 00035
      ERST(14)   PRNTPC.(E14)                                                       036  LM00044
 00710 TSX +0 07400 4 00001    00711 TXH +3 00000 0 00137
                 TRANSFER TO S2062                                                  037  LM00045
 00712 TRA +0 02000 0 00035
      ERST(15)   PRNTPC.(E15)                                                       038  LM00046
 00713 TSX +0 07400 4 00001    00714 TXH +3 00000 0 00153
                 TRANSFER TO S2062                                                  039  LM00047
 00715 TRA +0 02000 0 00035
      ERST(16)   PRNTPC.(E16)                                                       040  LM00048
 00716 TSX +0 07400 4 00001    00717 TXH +3 00000 0 00164
                 TRANSFER TO S2062                                                  041  LM00049
 00720 TRA +0 02000 0 00035
      ERST(17)   PRNTPC.(E17)                                                       042  LM00050
 00721 TSX +0 07400 4 00001    00722 TXH +3 00000 0 00206
                 TRANSFER TO S2062                                                  043  LM00051
 00723 TRA +0 02000 0 00035
      ERST(18)   PRNTPC.(E18)                                                       044  LM00052
 00724 TSX +0 07400 4 00001    00725 TXH +3 00000 0 00223
                 TRANSFER TO S2062                                                  045  LM00053
 00726 TRA +0 02000 0 00035
      ERST(19)   PRNTPC.(E19)                                                       046  LM00054
 00727 TSX +0 07400 4 00001    00730 TXH +3 00000 0 00251
                 TRANSFER TO S2062                                                  047  LM00055
 00731 TRA +0 02000 0 00035
      ERST(20)   PRNTPC.(E20)                                                       048  LM00056
 00732 TSX +0 07400 4 00001    00733 TXH +3 00000 0 00302
                 TRANSFER TO S2062                                                  049  LM00057
 00734 TRA +0 02000 0 00035
      ERST(21)   PRNTPC.(E21)                                                       050  LM00058
 00735 TSX +0 07400 4 00001    00736 TXH +3 00000 0 00330
                 TRANSFER TO S2062                                                  051  LM00059
 00737 TRA +0 02000 0 00035
      ERST(22)   PRNTPC.(E22)                                                       052  LM00060
 00740 TSX +0 07400 4 00001    00741 TXH +3 00000 0 00353
                 TRANSFER TO S2062                                                  053  LM00061
 00742 TRA +0 02000 0 00035
      ERST(23)   PRNTPC.(E23)                                                       054  LM00062
 00743 TSX +0 07400 4 00001    00744 TXH +3 00000 0 00375
                 TRANSFER TO S2062                                                  055  LM00063
 00745 TRA +0 02000 0 00035
      ERST(24)   PRNTPC.(E24)                                                       056  LM00064
 00746 TSX +0 07400 4 00001    00747 TXH +3 00000 0 00411
                 TRANSFER TO S2062                                                  057  LM00065
 00750 TRA +0 02000 0 00035
      ERST(25)   PRNTPC.(E25)                                                       058  LM00066
 00751 TSX +0 07400 4 00001    00752 TXH +3 00000 0 00437
                 VECTOR VALUES OUTFMT=$13H ***** ERROR I2,6H .... 18C6*$            059  LM00067
 00616     +0 65460 6 06060    00617     +3 33360 0 11023    00620     -3 30630 6 03333    00621     -1 14651 6 03102
 00622     -1 45454 6 02551    00623     +0 10330 6 05454
      S2062      TRANSFER TO TS3                                                    060  LM00068
 00753 TRA +0 02000 0 56105
                 V'S E1=$****ERROR 1$,555252525252K                                 061  LM00069
 00271     -1 55252 5 25252    00272     -1 14651 6 00160    00273     -1 45454 5 42551
                 V'S E2=$****ERROR 2$,555252525252K                                 062  LM00070
 00454     -1 55252 5 25252    00455     -1 14651 6 00260    00456     -1 45454 5 42551
                 V'S E3=$****ERROR 3$,555252525252K                                 063  LM00071
 00470     -1 55252 5 25252    00471     -1 14651 6 00360    00472     -1 45454 5 42551
                 V'S E4=$****ERROR 4$,555252525252K                                 064  LM00072
 00505     -1 55252 5 25252    00506     -1 14651 6 00460    00507     -1 45454 5 42551
                 V'S E5=$****ERROR 5$,555252525252K                                 065  LM00073
 00527     -1 55252 5 25252    00530     -1 14651 6 00560    00531     -1 45454 5 42551
                 V'S E6=$****ERROR 6$,555252525252K                                 066  LM00074
 00543     -1 55252 5 25252    00544     -1 14651 6 00660    00545     -1 45454 5 42551
                 V'S E7=$****ERROR 7$,555252525252K                                 067  LM00075
 00563     -1 55252 5 25252    00564     -1 14651 6 00760    00565     -1 45454 5 42551
                 V'S E8=$****ERROR 8$,555252525252K                                 068  LM00076
 00577     -1 55252 5 25252    00600     -1 14651 6 01060    00601     -1 45454 5 42551
                 V'S E9=$****ERROR 9$,555252525252K                                 069  LM00077
 00613     -1 55252 5 25252    00614     -1 14651 6 01160    00615     -1 45454 5 42551
                 V'S E10=$****ERROR 10$,555252525252K                               070  LM00078
 00047     -1 55252 5 25252    00050     -1 14651 6 00100    00051     -1 45454 5 42551
                 V'S E11=$****ERROR 11$,555252525252K                               071  LM00079
 00064     -1 55252 5 25252    00065     -1 14651 6 00101    00066     -1 45454 5 42551
                 V'S E12=$****ERROR 12$,555252525252K                               072  LM00080
 00104     -1 55252 5 25252    00105     -1 14651 6 00102    00106     -1 45454 5 42551
                 V'S E13=$****ERROR 13$,555252525252K                               073  LM00081
 00121     -1 55252 5 25252    00122     -1 14651 6 00103    00123     -1 45454 5 42551
                 V'S E14=$****ERROR 14$,555252525252K                               074  LM00082
 00135     -1 55252 5 25252    00136     -1 14651 6 00104    00137     -1 45454 5 42551
                 V'S E15=$****ERROR 15$,555252525252K                               075  LM00083
 00151     -1 55252 5 25252    00152     -1 14651 6 00105    00153     -1 45454 5 42551
                 V'S E16=$****ERROR 16$,555252525252K                               076  LM00084
 00162     -1 55252 5 25252    00163     -1 14651 6 00106    00164     -1 45454 5 42551
                 V'S E17=$****ERROR 17$,555252525252K                               077  LM00085
 00204     -1 55252 5 25252    00205     -1 14651 6 00107    00206     -1 45454 5 42551
                 V'S E18=$****ERROR 18$,555252525252K                               078  LM00086
 00221     -1 55252 5 25252    00222     -1 14651 6 00110    00223     -1 45454 5 42551
                 V'S E19=$****ERROR 19$,555252525252K                               079  LM00087
 00247     -1 55252 5 25252    00250     -1 14651 6 00111    00251     -1 45454 5 42551
                 V'S E20=$****ERROR 20$,555252525252K                               080  LM00088
 00300     -1 55252 5 25252    00301     -1 14651 6 00200    00302     -1 45454 5 42551
                 V'S E21=$****ERROR 21$,555252525252K                               081  LM00089
 00326     -1 55252 5 25252    00327     -1 14651 6 00201    00330     -1 45454 5 42551
                 V'S E22=$****ERROR 22$,555252525252K                               082  LM00090
 00351     -1 55252 5 25252    00352     -1 14651 6 00202    00353     -1 45454 5 42551
                 V'S E23=$****ERROR 23$,555252525252K                               083  LM00091
 00373     -1 55252 5 25252    00374     -1 14651 6 00203    00375     -1 45454 5 42551
                 V'S E24=$****ERROR 24$,555252525252K                               084  LM00092
 00407     -1 55252 5 25252    00410     -1 14651 6 00204    00411     -1 45454 5 42551
                 V'S E25=$****ERROR 25$,555252525252K                               085  LM00093
 00435     -1 55252 5 25252    00436     -1 14651 6 00205    00437     -1 45454 5 42551
                 VECTOR VALUES E1( 3)=$ATTEMPT TO EXCEED MAXIMUM ALLOWABLE NUM      086  LM00094
                1BER OF DIMENSIONED VARIABLES (1000)$,555252525252K,                086  LM00095
                2777777777777K                                                      086  LM00096
 00252     -3 77777 7 77777    00253     -1 55252 5 25252    00254     +0 03460 6 06060    00255     -2 26074 0 10000
 00256     -1 13121 2 24325    00257     -0 52524 6 06521    00260     -0 42545 6 23146    00261     -2 04626 6 02431
 00262     -0 56444 2 22551    00263     -2 62122 4 32560    00264     -0 46021 4 34346    00265     -0 42167 3 14464
 00266     -2 72325 2 52460    00267     -2 36063 4 66025    00270     +2 16363 2 54447
                 VECTOR VALUES E2(3)= $MORE THAN 660 NON-IGNORABLE CHARACTERS       087  LM00097
                1IN FORTRAN STATEMENT$,555252525252K,777777777777K                  087  LM00098
 00440     -3 77777 7 77777    00441     -1 55252 5 25252    00442     +2 54425 4 56360    00443     -0 56062 6 32163
 00444     +2 64651 6 35121    00445     -1 16260 3 14560    00446     +2 15121 2 36325    00447     +2 24325 6 02330
 00450     +3 12745 4 65121    00451     +0 06045 4 64540    00452     +3 02145 6 00606    00453     -0 44651 2 56063
                 VECTOR VALUES E3(3)= $NO ITERATION VARIABLE IN A DO STATEMENT      088  LM00099
                1$,555252525252K,777777777777K                                      088  LM00100
 00457     -3 77777 7 77777    00460     -1 55252 5 25252    00461     +2 54563 6 06060    00462     -2 26321 6 32544
 00463     -2 02160 2 44660    00464     +2 24325 6 03145    00465     -2 06521 5 13121    00466     -1 12163 3 14645
 00467     -0 54660 3 16325
                 VECTOR VALUES E4(3)= $ATTEMPT TO DEFINE A FUNCTION WITH NO AR      089  LM00101
                1GUMENTS$,555252525252K,777777777777K                               089  LM00102
 00473     -3 77777 7 77777    00474     -1 55252 5 25252    00475     +2 54563 6 26060    00476     -2 02151 2 76444
 00477     +3 16330 6 04546    00500     -2 33146 4 56066    00501     +2 16026 6 44523    00502     +2 52631 4 52560
 00503     -2 36063 4 66024    00504     +2 16363 2 54447
                 VECTOR VALUES E5(3)= $ATTEMPT TO SPECIFY STATEMENT LABEL OR C      090  LM00103
                1ARD ID AFTER FIRST CARD OF PROGRAM$,555252525252K,                 090  LM00104
                2777777777777K                                                      090  LM00105
 00510     -3 77777 7 77777    00511     -1 55252 5 25252    00512     -0 46060 6 06060    00513     -0 75146 2 75121
 00514     -1 12460 4 62660    00515     -1 16263 6 02321    00516     -2 32551 6 02631    00517     -2 03124 6 02126
 00520     -1 16023 2 15124    00521     +2 12225 4 36046    00522     -0 42545 6 36043    00523     -2 06263 2 16325
 00524     -0 72523 3 12670    00525     -2 36063 4 66062    00526     +2 16363 2 54447
                 VECTOR VALUES E6(3)= $INSUFFICIENT NUMBER OF COMMAS IN STATEM      091  LM00106
                1ENT$,555252525252K,777777777777K                                   091  LM00107
 00532     -3 77777 7 77777    00533     -1 55252 5 25252    00534     -2 32544 2 54563    00535     +3 14560 6 26321
 00536     -0 64444 2 16260    00537     -1 16046 2 66023    00540     -2 04564 4 42225    00541     +3 12331 2 54563
 00542     +3 14562 6 42626
                 VECTOR VALUES E7(3)= $STATEMENT RESEMBLING MACHINE CHECKING F      092  LM00108
                1EATURE, BUT MISSPELLED$,555252525252K,777777777777K                092  LM00109
 00546     -3 77777 7 77777    00547     -1 55252 5 25252    00550     +2 46060 6 06060    00551     -2 24725 4 34325
 00552     -2 46360 4 43162    00553     -2 45125 7 36022    00554     +2 76026 2 52163    00555     +3 02523 4 23145
 00556     +3 03145 2 56023    00557     -0 52760 4 42123    00560     -2 22544 2 24331    00561     +2 54563 6 05125
 00562     -2 26321 6 32544
                 VECTOR VALUES E8(3)= $MORE THAN 6 CHARACTERS IN A VARIABLE NA      093  LM00110
                1ME$,555252525252K,777777777777K                                    093  LM00111
 00566     -3 77777 7 77777    00567     -1 55252 5 25252    00570     -2 04521 4 42560    00571     -1 13121 2 24325
 00572     -0 56021 6 06521    00573     -2 32551 6 26031    00574     +2 33021 5 12123    00575     +3 02145 6 00660
 00576     -0 44651 2 56063
                 VECTOR VALUES E9(3)= $FEWER THAN 3 EXITS IN AN IF STATEMENT$       094  LM00112
                1,555252525252K,777777777777K                                       094  LM00113
 00602     -3 77777 7 77777    00603     -1 55252 5 25252    00604     -2 36060 6 06060    00605     +2 16325 4 42545
 00606     -2 03126 6 06263    00607     -2 03145 6 02145    00610     -2 02567 3 16362    00611     -2 33021 4 56003
 00612     +2 62566 2 55160
                 VECTOR VALUES E10(3)=$NO STATEMENT NUMBER IN AN ASSIGN STATEM      095  LM00114
                1ENT$,555252525252K,777777777777K                                   095  LM00115
 00036     -3 77777 7 77777    00037     -1 55252 5 25252    00040     -2 32544 2 54563    00041     +2 74560 6 26321
 00042     -0 56021 6 26231    00043     -1 16031 4 56021    00044     -2 04564 4 42225    00045     -2 32544 2 54563
 00046     -0 54660 6 26321
                 VECTOR VALUES E11(3)=$IMPROPER PUNCTUATION IN A DIMENSION STA      096  LM00116
                1TEMENT$,555252525252K,777777777777K                                096  LM00117
 00052     -3 77777 7 77777    00053     -1 55252 5 25252    00054     +2 54563 6 06060    00055     -2 26321 6 32544
 00056     -0 56231 4 64560    00057     +2 16024 3 14425    00060     -0 64560 3 14560    00061     +2 36364 2 16331
 00062     +2 55160 4 76445    00063     +3 14447 5 14647
                 VECTOR VALUES E12(3)=$ATTEMPT TO SPECIFY GREATER THAN 3 DIMEN      097  LM00118
                1SIONS FOR SOME VARIABLE$,555252525252K,777777777777K               097  LM00119
 00067     -3 77777 7 77777    00070     -1 55252 5 25252    00071     -0 32560 6 06060    00072     -2 52151 3 12122
 00073     -2 06246 4 42560    00074     -0 56260 2 64651    00075     -0 42545 6 23146    00076     -0 56003 6 02431
 00077     +2 55160 6 33021    00100     -2 02751 2 52163    00101     -0 72523 3 12670    00102     -2 36063 4 66062
 00103     +2 16363 2 54447
                 VECTOR VALUES E13(3)=$IMPROPER STATEMENT FORMATION OR MISSING      098  LM00120
                1 COMMA$,555252525252K,777777777777K                                098  LM00121
 00107     -3 77777 7 77777    00110     -1 55252 5 25252    00111     -0 44421 6 06060    00112     +3 14527 6 02346
 00113     -1 16044 3 16262    00114     -2 33146 4 56046    00115     -2 02646 5 14421    00116     -2 32544 2 54563
 00117     +2 55160 6 26321    00120     +3 14447 5 14647
                 VECTOR VALUES E14(3)=$IMPROPER PUNCTUATION IN AN I/O STATEMEN      099  LM00122
                1T$,555252525252K,777777777777K                                     099  LM00123
 00124     -3 77777 7 77777    00125     -1 55252 5 25252    00126     -0 42545 6 36060    00127     -2 06263 2 16325
 00130     +2 14560 3 16146    00131     -0 64560 3 14560    00132     +2 36364 2 16331    00133     +2 55160 4 76445
 00134     +3 14447 5 14647
                 VECTOR VALUES E15(3)=$IMPROPER PUNCTUATION IN AN IF STATEMENT      100  LM00124
                1$,555252525252K,777777777777K                                      100  LM00125
 00140     -3 77777 7 77777    00141     -1 55252 5 25252    00142     +2 54563 6 06060    00143     -2 26321 6 32544
 00144     +2 14560 3 12660    00145     -0 64560 3 14560    00146     +2 36364 2 16331    00147     +2 55160 4 76445
 00150     +3 14447 5 14647
                 VECTOR VALUES E16(3)=$IMPROPER I/O ITERATION$,555252525252K,       101  LM00126
                1 777777777777K                                                     101  LM00127
 00154     -3 77777 7 77777    00155     -1 55252 5 25252    00156     -2 33146 4 56060    00157     -2 03163 2 55121
 00160     +2 55160 3 16146    00161     +3 14447 5 14647
                 VECTOR VALUES E17(3)=$ALPHABETIC CHARACTER IN SOME NUMBER, OR      102  LM00128
                1 ATTEMPT TO PUT CONSTANT IN I/O LIST$,555252525252K,               102  LM00129
                2 777777777777K                                                     102  LM00130
 00165     -3 77777 7 77777    00166     -1 55252 5 25252    00167     +3 16263 6 06060    00170     -2 03161 4 66043
 00171     +2 14563 6 03145    00172     -2 02346 4 56263    00173     -2 34660 4 76463    00174     -2 32544 4 76360
 00175     -2 04651 6 02163    00176     -2 44422 2 55173    00177     -2 24644 2 56045    00200     +2 55160 3 14560
 00201     +3 02151 2 12363    00202     +2 56331 2 36023    00203     +2 14347 3 02122
                 VECTOR VALUES E18(3)=$FUNCTION NAME APPEARS WITH NO ARGUMENT       103  LM00131
                1LIST$,555252525252K,777777777777K                                  103  LM00132
 00207     -3 77777 7 77777    00210     -1 55252 5 25252    00211     -2 36060 6 06060    00212     -0 56360 4 33162
 00213     +2 15127 6 44425    00214     -2 33060 4 54660    00215     +2 15162 6 06631    00216     +2 56021 4 74725
 00217     -0 64560 4 52144    00220     +2 66445 2 36331
                 VECTOR VALUES E19(3)=$ATTEMPT TO EXCEED MAXIMUM ALLOWABLE NUM      104  LM00133
                1BER OF ARGUMENTS IN A ONE-LINE FUNCTION$,555252525252K,            104  LM00134
                2$DEFINITION (50)$,555252525252K,777777777777K                      104  LM00135
 00224     -3 77777 7 77777    00225     -1 55252 5 25252    00226     +0 50034 6 06060    00227     -2 33146 4 56074
 00230     +2 42526 3 14531    00231     -1 55252 5 25252    00232     -0 52363 3 14645    00233     +3 14525 6 02664
 00234     -2 04645 2 54043    00235     -2 26031 4 56021    00236     +2 76444 2 54563    00237     -2 04626 6 02151
 00240     -0 56444 2 22551    00241     -2 62122 4 32560    00242     -0 46021 4 34346    00243     -0 42167 3 14464
 00244     -2 72325 2 52460    00245     -2 36063 4 66025    00246     +2 16363 2 54447
                 VECTOR VALUES E20(3)=$NO END CARD$,555252525252K,                  105  LM00136
                1777777777777K                                                      105  LM00137
 00274     -3 77777 7 77777    00275     -1 55252 5 25252    00276     -2 02321 5 12460    00277     -0 54660 2 54524
                 VECTOR VALUES E21(3)=$ATTEMPT TO EXCEED MAXIMUM ALLOWABLE NUM      106  LM00138
                1BER OF STATEMENT LABELS$,555252525252K,                            106  LM00139
                2$OR CREATED VARIABLES (2000)$,555252525252K,777777777777K          106  LM00140
 00303     -3 77777 7 77777    00304     -1 55252 5 25252    00305     +0 00034 6 06060    00306     +2 56260 7 40200
 00307     +2 15131 2 12243    00310     +2 16325 2 46065    00311     -0 65160 2 35125    00312     -1 55252 5 25252
 00313     -0 36260 6 06060    00314     -2 36043 2 12225    00315     +2 16325 4 42545    00316     -2 04626 6 06263
 00317     -0 56444 2 22551    00320     -2 62122 4 32560    00321     -0 46021 4 34346    00322     -0 42167 3 14464
 00323     -2 72325 2 52460    00324     -2 36063 4 66025    00325     +2 16363 2 54447
                 VECTOR VALUES E22(3)=$ATTEMPT TO EXCEED MAXIMUM ALLOWABLE NUM      107  LM00141
                1BER OF FUNCTIONS CALLED BY PROGRAM (1000)$,555252525252K,          107  LM00142
                2777777777777K                                                      107  LM00143
 00331     -3 77777 7 77777    00332     -1 55252 5 25252    00333     +0 03460 6 06060    00334     -0 46074 0 10000
 00335     -0 75146 2 75121    00336     +2 52460 2 27060    00337     -2 26023 2 14343    00340     -0 52363 3 14645
 00341     -2 04626 6 02664    00342     -0 56444 2 22551    00343     -2 62122 4 32560    00344     -0 46021 4 34346
 00345     -0 42167 3 14464    00346     -2 72325 2 52460    00347     -2 36063 4 66025    00350     +2 16363 2 54447
                 VECTOR VALUES E23(3)=$ATTEMPT TO EXCEED MAXIMUM ALLOWABLE NUM      108  LM00144
                1BER OF INTEGER VARIABLE NAMES (2000)$,555252525252K                108  LM00145
                2,777777777777K                                                     108  LM00146
 00354     -3 77777 7 77777    00355     -1 55252 5 25252    00356     +0 00034 6 06060    00357     +2 56260 7 40200
 00360     -0 32560 4 52144    00361     -2 52151 3 12122    00362     -2 32527 2 55160    00363     -2 04626 6 03145
 00364     -0 56444 2 22551    00365     -2 62122 4 32560    00366     -0 46021 4 34346    00367     -0 42167 3 14464
 00370     -2 72325 2 52460    00371     -2 36063 4 66025    00372     +2 16363 2 54447
                 VECTOR VALUES E24(3)=$IMPROPER FORMATION IN A FORMAT STATEMEN      109  LM00147
                1T$,555252525252K,777777777777K                                     109  LM00148
 00376     -3 77777 7 77777    00377     -1 55252 5 25252    00400     -0 42545 6 36060    00401     -2 06263 2 16325
 00402     +2 64651 4 42163    00403     -2 03145 6 02160    00404     -0 42163 3 14645    00405     +2 55160 2 64651
 00406     +3 14447 5 14647
                 VECTOR VALUES E25(3)=$STATEMENT CANNOT BE TRANSLATED INTO AN       110  LM00149
                1EQUIVALENT MAD STATEMENT OF 610 CHARACTERS$,555252525252K,         110  LM00150
                2$OR LESS$,555252525252K,777777777777K                              110  LM00151
 00412     -3 77777 7 77777    00413     -1 55252 5 25252    00414     -2 26060 6 06060    00415     -0 65160 4 32562
 00416     -1 55252 5 25252    00417     +2 55162 6 06060    00420     +3 02151 2 12363    00421     -2 00601 0 06023
 00422     +2 54563 6 04626    00423     -2 26321 6 32544    00424     -2 36044 2 12460    00425     +3 16521 4 32545
 00426     +2 14560 2 55064    00427     -2 03145 6 34660    00430     -2 24321 6 32524    00431     +2 56063 5 12145
 00432     -0 54546 6 36022    00433     +2 54563 6 02321    00434     -2 26321 6 32544
                 END OF FUNCTION                                                    111  LM00152
 00754 TSX +0 07400 4 00000    00755 TXH +3 00000 0 00000    00756 SXD -0 63400 1 00755    00757 SXA +0 63400 4 00763
 00760 CLA +0 50000 4 00001    00761 STA +0 62100 0 00637    00762 TRA +0 02000 2 00001    00763 AXT +0 77400 4 00000
 00764 LXA +0 53400 2 00755    00765 LXD -0 53400 1 00755    00766 TRA +0 02000 4 00001
1     MAD PROGRAM LISTING ... ... ...                 FILE    MFNS   MAD            02/07/68    2125.1
-
                                                                                                       LM00001
                  EXTERNAL FUNCTION (PARAM)                                                       *001 LM00002
                  NORMAL MODE IS INTEGER                                                          *002 LM00003
                  ERASABLE DUM(200),N(2000),INTEG(2000),FUNCT(1000),DIM(2000),                    *003 LM00004
                1 I(666),HOL(500),OUT(500),ARRG(50),STNO,NSNO,STACON,CCT,WHOLE,                   *003 LM00005
                2 DUMP,BUMP,LUMP,RUMP,CRUMP,PUMP,FLAG,BOOLFL,SUB,SW3,TS3,PR,                      *003 LM00006
                3 ERR,CSW,NUMBER,MOX,ZZXQ1                                                        *003 LM00007
                  BOOLEAN BOOLFL,CSW,MOX,DUMP,BUMP,LUMP,RUMP,CRUMP,PUMP                           *004 LM00008
                  STATEMENT LABEL SW3,TS3,PR,ZZXQ1                                                *005 LM00009
                  STATEMENT LABEL SW                                                              *006 LM00010
                                                                                                       LM00011
                   FNCTFN.                                                                             LM00012
                                                                                                       LM00013
                  ENTRY TO FNCTFN.                                                                *007 LM00014
      T4          THROUGH T4, FOR T1=1,1,T1.G.FUNCT .OR. FUNCT(T1).E.PARAM                        *008 LM00015
                  WHENEVER T1.LE.FUNCT, FUNCTION RETURN T1                                        *009 LM00016
                  FUNCT=FUNCT+1                                                                   *010 LM00017
                  WHENEVER FUNCT.G.1000                                                           *011 LM00018
                  FUNCT=FUNCT-1                                                                   *012 LM00019
                  EXECUTE ERRP.(22)                                                               *013 LM00020
                  END OF CONDITIONAL                                                              *014 LM00021
                  FUNCT(FUNCT)=PARAM                                                              *015 LM00022
                  FUNCTION RETURN FUNCT                                                           *016 LM00023
                                                                                                       LM00024
                   FINDN.                                                                              LM00025
                                                                                                       LM00026
                  ENTRY TO FINDN.                                                                 *017 LM00027
                  ROB=PARAM                                                                       *018 LM00028
                  WHENEVER PARAM.E.$*$,TRANSFER TO T2B                                            *019 LM00029
                  SW=T2                                                                           *020 LM00030
                  TRANSFER TO T7                                                                  *021 LM00031
      T2          THROUGH T2, FOR T1=  1,1,T1.G.N.OR.N(T1).E.ROB                                  *022 LM00032
                  WHENEVER T1.LE.N, FUNCTION RETURN T1                                            *023 LM00033
      T2B         N=N+1                                                                           *024 LM00034
                  WHENEVER N.G.2000                                                               *025 LM00035
                  N=N-1                                                                           *026 LM00036
                  EXECUTE ERRP.(21)                                                               *027 LM00037
                  END OF CONDITIONAL                                                              *028 LM00038
                  N(N)=ROB                                                                        *029 LM00039
                  FUNCTION RETURN N                                                               *030 LM00040
                                                                                                       LM00041
                   OPCHK.                                                                              LM00042
                                                                                                       LM00043
                  ENTRY TO OPCHK.                                                                 *031 LM00044
                  THROUGH T6, FOR VALUES OF A=$+$,$-$,$*$,$/$,$)$,$($,$.$,$=$,$                   *032 LM00045
                1 ,$                                                                              *032 LM00046
      T6          WHENEVER PARAM.E.A, FUNCTION RETURN 1B                                          *033 LM00047
                  FUNCTION RETURN 0B                                                              *034 LM00048
                                                                                                       LM00049
                   LZR.                                                                                LM00050
                                                                                                       LM00051
                  ENTRY TO LZR.                                                                   *035 LM00052
                  SW=T8                                                                           *036 LM00053
      T7          THROUGH T7, FOR T1=0,6,PARAM.LS.T1.A.77K10.NE.0.OR.T1.E.30                      *037 LM00054
                  ROB=PARAM.LS.T1.V.$$.RS.(36-T1)                                                 *038 LM00055
                  TRANSFER TO SW                                                                  *039 LM00056
      T8          FUNCTION RETURN ROB                                                             *040 LM00057
                                                                                                       LM00058
                   FINDIN.                                                                             LM00059
                                                                                                       LM00060
                  ENTRY TO FINDIN.                                                                *041 LM00061
      T3          THROUGH T3, FOR T1=  1,1,T1.G.INTEG.OR.INTEG(T1).E.PARAM                        *042 LM00062
                  WHENEVER T1.LE.INTEG, FUNCTION RETURN T1                                        *043 LM00063
                  INTEG=INTEG+1                                                                   *044 LM00064
                  WHENEVER INTEG.G.2000                                                           *045 LM00065
                  INTEG=INTEG+1                                                                   *046 LM00066
                  EXECUTE ERRP.(23)                                                               *047 LM00067
                  END OF CONDITIONAL                                                              *048 LM00068
                  INTEG(INTEG)=PARAM                                                              *049 LM00069
                  FUNCTION RETURN INTEG                                                           *050 LM00070
                                                                                                       LM00071
                   DIMFN.                                                                              LM00072
                                                                                                       LM00073
                  ENTRY TO DIMFN.                                                                 *051 LM00074
      T5          THROUGH T5, FOR T1=1,1,T1.G.DIM.OR.DIM(T1 ).E.PARAM                             *052 LM00075
                  WHENEVER T1.G.DIM,TRANSFER TO ZZXQ1                                             *053 LM00076
                  FUNCTION RETURN DIM(T1+1000)                                                    *054 LM00077
                  END OF FUNCTION                                                                 *055 LM00078
1MAD PROGRAM,TYPE NOV 1963      (ALL NUMBERS ARE OCTAL)
0TOTAL LOCATIONS   00501 TRANSFER VECTOR LENGTH  00002 PROGRAM BEGINS    00041
0 PROGRAM IS AN EXTERNAL FUNCTION.   THE FOLLOWING ARE ENTRIES
      DIMFN  00417   0        FINDIN 00346   0        LZR    00277   0        OPCHK  00175   0        FINDN  00113   0
      FNCTFN 00042   0
0VARIABLE STORAGE (A=ARRAY,C=COMMON,E=ERASABLE,DIGIT=MODE)
      ARRG   56207 AE1        DUM    77461 AE1        N      77150 AE1        STNO   56124  E1        T4     00002   4
      A      00010   1        ERR    56103  E1        NSNO   56123  E1        SUB    56107  E1        T5     00002   4
      BOOLFL 56110  E2        FLAG   56111  E1        NUMBER 56101  E1        SW3    56106  E4        T6     00002   4
      BUMP   56116  E2        FUNCT  67306 AE1        OUT    57174 AE1        SW     00003   4        T7     00006   4
      CCT    56121  E1        HOL    60161 AE1        PR     56104  E4        T1     00012   1        T8     00007   4
      CRUMP  56113  E2        INTEG  73227 AE1        PUMP   56112  E2        T2B    00004   4        TS3    56105  E4
      CSW    56102  E2        I      61414 AE1        ROB    00011   1        T2     00005   4        WHOLE  56120  E1
      DIM    65335 AE1        LUMP   56115  E2        RUMP   56114  E2        T3     00002   4        ZZXQ1  56077  E4
      DUMP   56117  E2        MOX    56100  E2        STACON 56122  E1
0FUNCTION DICTIONARY
      ERRP   00000   1        EXIT   00001   1
0ABSOLUTE CONSTANTS
 00020 +000000000027     00034 -206060606060     00022 +000000000044     00040 -370000000000     00021 +000000000036
 00015 +000000000006     00013 +000000000000     00036 -336060606060     00025 +136060606060     00030 +336060606060
 00037 -346060606060     00031 +346060606060     00035 -216060606060     00032 -006060606060     00026 +206060606060
 00016 +000000000025     00024 +000000003720     00033 -146060606060     00017 +000000000026     00023 +000000001750
 00014 +000000000001     00027 +233000000000
0STATEMENT DICTIONARY
 00004 TXL -300156000153       00005 TXL -300145000126       00006 TXL -300326000303       00007 TXL -300345000343
0PROGRAM
                 EXTERNAL FUNCTION (PARAM)                                          001  LM00002
                 NORMAL MODE IS INTEGER                                             002  LM00003
                 ERASABLE DUM(200),N(2000),INTEG(2000),FUNCT(1000),DIM(2000),       003  LM00004
                1I(666),HOL(500),OUT(500),ARRG(50),STNO,NSNO,STACON,CCT,WHOLE,      003  LM00005
                2DUMP,BUMP,LUMP,RUMP,CRUMP,PUMP,FLAG,BOOLFL,SUB,SW3,TS3,PR,         003  LM00006
                3ERR,CSW,NUMBER,MOX,ZZXQ1                                           003  LM00007
                 BOOLEAN BOOLFL,CSW,MOX,DUMP,BUMP,LUMP,RUMP,CRUMP,PUMP              004  LM00008
                 STATEMENT LABEL SW3,TS3,PR,ZZXQ1                                   005  LM00009
                 STATEMENT LABEL SW                                                 006  LM00010
                 ENTRY TO FNCTFN.                                                   007  LM00014
 00041 TRA +0 02000 0 00044    00042 SXA +0 63400 2 00453    00043 TSX +0 07400 2 00453
      T4         THROUGH T4, FOR T1=1,1,T1.G.FUNCT .OR. FUNCT(T1).E.PARAM           008  LM00015
 00044 CLA +0 50000 0 00014    00045 STO +0 60100 0 00012    00046 TRA +0 02000 0 00052    00047 CLA +0 50000 0 00012
 00050 ADD +0 40000 0 00014    00051 STO +0 60100 0 00012    00052 LXA +0 53400 1 00012    00053 CLA +0 50000 1 67306
 00054 SUB +0 40200 0 00024    00055 TZE +0 10000 0 00063    00056 CLA +0 50000 0 00012    00057 SUB +0 40200 0 67306
 00060 TZE +0 10000 0 00062    00061 TPL +0 12000 0 00063    00062 TRA +0 02000 0 00047
                 WHENEVER T1.LE.FUNCT, FUNCTION RETURN T1                           009  LM00016
 00063 CLA +0 50000 0 00012    00064 SUB +0 40200 0 67306    00065 TZE +0 10000 0 00067    00066 TPL +0 12000 0 00071
 00067 CLA +0 50000 0 00012    00070 TRA +0 02000 0 00472
                 FUNCT=FUNCT+1                                                      010  LM00017
 00071 CLA +0 50000 0 67306    00072 ADD +0 40000 0 00014    00073 STO +0 60100 0 67306
                 WHENEVER FUNCT.G.1000                                              011  LM00018
 00074 CLA +0 50000 0 67306    00075 SUB +0 40200 0 00023    00076 TZE +0 10000 0 00105    00077 TMI -0 12000 0 00105
                 FUNCT=FUNCT-1                                                      012  LM00019
 00100 CLA +0 50000 0 67306    00101 SUB +0 40200 0 00014    00102 STO +0 60100 0 67306
                 EXECUTE ERRP.(22)                                                  013  LM00020
 00103 TSX +0 07400 4 00000    00104 TXH +3 00000 0 00017
                 END OF CONDITIONAL                                                 014  LM00021
                 FUNCT(FUNCT)=PARAM                                                 015  LM00022
 00105 LXA +0 53400 1 67306    00106 CLA +0 50000 0 00024    00107 STO +0 60100 1 67306
                 FUNCTION RETURN FUNCT                                              016  LM00023
 00110 CLA +0 50000 0 67306    00111 TRA +0 02000 0 00472
                 ENTRY TO FINDN.                                                    017  LM00027
 00112 TRA +0 02000 0 00115    00113 SXA +0 63400 2 00453    00114 TSX +0 07400 2 00453
                 ROB=PARAM                                                          018  LM00028
 00115 CLA +0 50000 0 00024    00116 STO +0 60100 0 00011
                 WHENEVER PARAM.E.$*$,TRANSFER TO T2B                               019  LM00029
 00117 CLA +0 50000 0 00024    00120 SUB +0 40200 0 00033    00121 TNZ -0 10000 0 00123    00122 TRA +0 02000 0 00004
                 SW=T2                                                              020  LM00030
 00123 CLA +0 50000 0 00005    00124 STO +0 60100 0 00003
                 TRANSFER TO T7                                                     021  LM00031
 00125 TRA +0 02000 0 00006
      T2         THROUGH T2, FOR T1=  1,1,T1.G.N.OR.N(T1).E.ROB                     022  LM00032
 00126 CLA +0 50000 0 00014    00127 STO +0 60100 0 00012    00130 TRA +0 02000 0 00134    00131 CLA +0 50000 0 00012
 00132 ADD +0 40000 0 00014    00133 STO +0 60100 0 00012    00134 LXA +0 53400 1 00012    00135 CLA +0 50000 1 77150
 00136 SUB +0 40200 0 00011    00137 TZE +0 10000 0 00145    00140 CLA +0 50000 0 00012    00141 SUB +0 40200 0 77150
 00142 TZE +0 10000 0 00144    00143 TPL +0 12000 0 00145    00144 TRA +0 02000 0 00131
                 WHENEVER T1.LE.N, FUNCTION RETURN T1                               023  LM00033
 00145 CLA +0 50000 0 00012    00146 SUB +0 40200 0 77150    00147 TZE +0 10000 0 00151    00150 TPL +0 12000 0 00153
 00151 CLA +0 50000 0 00012    00152 TRA +0 02000 0 00472
      T2B        N=N+1                                                              024  LM00034
 00153 CLA +0 50000 0 77150    00154 ADD +0 40000 0 00014    00155 STO +0 60100 0 77150
                 WHENEVER N.G.2000                                                  025  LM00035
 00156 CLA +0 50000 0 77150    00157 SUB +0 40200 0 00024    00160 TZE +0 10000 0 00167    00161 TMI -0 12000 0 00167
                 N=N-1                                                              026  LM00036
 00162 CLA +0 50000 0 77150    00163 SUB +0 40200 0 00014    00164 STO +0 60100 0 77150
                 EXECUTE ERRP.(21)                                                  027  LM00037
 00165 TSX +0 07400 4 00000    00166 TXH +3 00000 0 00016
                 END OF CONDITIONAL                                                 028  LM00038
                 N(N)=ROB                                                           029  LM00039
 00167 LXA +0 53400 1 77150    00170 CLA +0 50000 0 00011    00171 STO +0 60100 1 77150
                 FUNCTION RETURN N                                                  030  LM00040
 00172 CLA +0 50000 0 77150    00173 TRA +0 02000 0 00472
                 ENTRY TO OPCHK.                                                    031  LM00044
 00174 TRA +0 02000 0 00177    00175 SXA +0 63400 2 00453    00176 TSX +0 07400 2 00453
                 THROUGH T6, FOR VALUES OF A=$+$,$-$,$*$,$/$,$)$,$($,$.$,$=$,$      032  LM00045
                1,$                                                                 032  LM00046
 00177 CLA +0 50000 0 00026    00200 STO +0 60100 0 00010    00201 CLA +0 50000 0 00204    00202 STO +0 60100 0 00265
 00203 TRA +0 02000 0 00266    00204 TRA +0 02000 0 00205    00205 CLA +0 50000 0 00032    00206 STO +0 60100 0 00010
 00207 CLA +0 50000 0 00212    00210 STO +0 60100 0 00265    00211 TRA +0 02000 0 00266    00212 TRA +0 02000 0 00213
 00213 CLA +0 50000 0 00033    00214 STO +0 60100 0 00010    00215 CLA +0 50000 0 00220    00216 STO +0 60100 0 00265
 00217 TRA +0 02000 0 00266    00220 TRA +0 02000 0 00221    00221 CLA +0 50000 0 00035    00222 STO +0 60100 0 00010
 00223 CLA +0 50000 0 00226    00224 STO +0 60100 0 00265    00225 TRA +0 02000 0 00266    00226 TRA +0 02000 0 00227
 00227 CLA +0 50000 0 00031    00230 STO +0 60100 0 00010    00231 CLA +0 50000 0 00234    00232 STO +0 60100 0 00265
 00233 TRA +0 02000 0 00266    00234 TRA +0 02000 0 00235    00235 CLA +0 50000 0 00037    00236 STO +0 60100 0 00010
 00237 CLA +0 50000 0 00242    00240 STO +0 60100 0 00265    00241 TRA +0 02000 0 00266    00242 TRA +0 02000 0 00243
 00243 CLA +0 50000 0 00030    00244 STO +0 60100 0 00010    00245 CLA +0 50000 0 00250    00246 STO +0 60100 0 00265
 00247 TRA +0 02000 0 00266    00250 TRA +0 02000 0 00251    00251 CLA +0 50000 0 00025    00252 STO +0 60100 0 00010
 00253 CLA +0 50000 0 00256    00254 STO +0 60100 0 00265    00255 TRA +0 02000 0 00266    00256 TRA +0 02000 0 00257
 00257 CLA +0 50000 0 00036    00260 STO +0 60100 0 00010    00261 CLA +0 50000 0 00264    00262 STO +0 60100 0 00265
 00263 TRA +0 02000 0 00266    00264 TRA +0 02000 0 00274    00265 TRA +0 02000 0 00265
      T6         WHENEVER PARAM.E.A, FUNCTION RETURN 1B                             033  LM00047
 00266 CLA +0 50000 0 00024    00267 SUB +0 40200 0 00010    00270 TNZ -0 10000 0 00273    00271 CLA +0 50000 0 00014
 00272 TRA +0 02000 0 00472    00273 TRA +0 02000 0 00265
                 FUNCTION RETURN 0B                                                 034  LM00048
 00274 CLA +0 50000 0 00013    00275 TRA +0 02000 0 00472
                 ENTRY TO LZR.                                                      035  LM00052
 00276 TRA +0 02000 0 00301    00277 SXA +0 63400 2 00453    00300 TSX +0 07400 2 00453
                 SW=T8                                                              036  LM00053
 00301 CLA +0 50000 0 00007    00302 STO +0 60100 0 00003
      T7         THROUGH T7, FOR T1=0,6,PARAM.LS.T1.A.77K10.NE.0.OR.T1.E.30         037  LM00054
 00303 CLA +0 50000 0 00013    00304 STO +0 60100 0 00012    00305 TRA +0 02000 0 00311    00306 CLA +0 50000 0 00012
 00307 ADD +0 40000 0 00015    00310 STO +0 60100 0 00012    00311 CLA +0 50000 0 00012    00312 SUB +0 40200 0 00021
 00313 TZE +0 10000 0 00326    00314 CAL -0 50000 0 00012    00315 STA +0 62100 0 00317    00316 CAL -0 50000 0 00024
 00317 ALS +0 76700 0 00000    00320 ANA -0 32000 0 00040    00321 SLW +0 60200 0 00476    00322 CLA +0 50000 0 00476
 00323 SUB +0 40200 0 00013    00324 TNZ -0 10000 0 00326    00325 TRA +0 02000 0 00306
                 ROB=PARAM.LS.T1.V.$$.RS.(36-T1)                                    038  LM00055
 00326 CLA +0 50000 0 00022    00327 SUB +0 40200 0 00012    00330 STA +0 62100 0 00332    00331 CAL -0 50000 0 00034
 00332 LGR -0 76500 0 00000    00333 SLW +0 60200 0 00476    00334 CAL -0 50000 0 00012    00335 STA +0 62100 0 00337
 00336 CAL -0 50000 0 00024    00337 ALS +0 76700 0 00000    00340 ORA -0 50100 0 00476    00341 SLW +0 60200 0 00011
                 TRANSFER TO SW                                                     039  LM00056
 00342 TRA +0 02000 0 00003
      T8         FUNCTION RETURN ROB                                                040  LM00057
 00343 CLA +0 50000 0 00011    00344 TRA +0 02000 0 00472
                 ENTRY TO FINDIN.                                                   041  LM00061
 00345 TRA +0 02000 0 00350    00346 SXA +0 63400 2 00453    00347 TSX +0 07400 2 00453
      T3         THROUGH T3, FOR T1=  1,1,T1.G.INTEG.OR.INTEG(T1).E.PARAM           042  LM00062
 00350 CLA +0 50000 0 00014    00351 STO +0 60100 0 00012    00352 TRA +0 02000 0 00356    00353 CLA +0 50000 0 00012
 00354 ADD +0 40000 0 00014    00355 STO +0 60100 0 00012    00356 LXA +0 53400 1 00012    00357 CLA +0 50000 1 73227
 00360 SUB +0 40200 0 00024    00361 TZE +0 10000 0 00367    00362 CLA +0 50000 0 00012    00363 SUB +0 40200 0 73227
 00364 TZE +0 10000 0 00366    00365 TPL +0 12000 0 00367    00366 TRA +0 02000 0 00353
                 WHENEVER T1.LE.INTEG, FUNCTION RETURN T1                           043  LM00063
 00367 CLA +0 50000 0 00012    00370 SUB +0 40200 0 73227    00371 TZE +0 10000 0 00373    00372 TPL +0 12000 0 00375
 00373 CLA +0 50000 0 00012    00374 TRA +0 02000 0 00472
                 INTEG=INTEG+1                                                      044  LM00064
 00375 CLA +0 50000 0 73227    00376 ADD +0 40000 0 00014    00377 STO +0 60100 0 73227
                 WHENEVER INTEG.G.2000                                              045  LM00065
 00400 CLA +0 50000 0 73227    00401 SUB +0 40200 0 00024    00402 TZE +0 10000 0 00411    00403 TMI -0 12000 0 00411
                 INTEG=INTEG+1                                                      046  LM00066
 00404 CLA +0 50000 0 73227    00405 ADD +0 40000 0 00014    00406 STO +0 60100 0 73227
                 EXECUTE ERRP.(23)                                                  047  LM00067
 00407 TSX +0 07400 4 00000    00410 TXH +3 00000 0 00020
                 END OF CONDITIONAL                                                 048  LM00068
                 INTEG(INTEG)=PARAM                                                 049  LM00069
 00411 LXA +0 53400 1 73227    00412 CLA +0 50000 0 00024    00413 STO +0 60100 1 73227
                 FUNCTION RETURN INTEG                                              050  LM00070
 00414 CLA +0 50000 0 73227    00415 TRA +0 02000 0 00472
                 ENTRY TO DIMFN.                                                    051  LM00074
 00416 TRA +0 02000 0 00421    00417 SXA +0 63400 2 00453    00420 TSX +0 07400 2 00453
      T5         THROUGH T5, FOR T1=1,1,T1.G.DIM.OR.DIM(T1 ).E.PARAM                052  LM00075
 00421 CLA +0 50000 0 00014    00422 STO +0 60100 0 00012    00423 TRA +0 02000 0 00427    00424 CLA +0 50000 0 00012
 00425 ADD +0 40000 0 00014    00426 STO +0 60100 0 00012    00427 LXA +0 53400 1 00012    00430 CLA +0 50000 1 65335
 00431 SUB +0 40200 0 00024    00432 TZE +0 10000 0 00440    00433 CLA +0 50000 0 00012    00434 SUB +0 40200 0 65335
 00435 TZE +0 10000 0 00437    00436 TPL +0 12000 0 00440    00437 TRA +0 02000 0 00424
                 WHENEVER T1.G.DIM,TRANSFER TO ZZXQ1                                053  LM00076
 00440 CLA +0 50000 0 00012    00441 SUB +0 40200 0 65335    00442 TZE +0 10000 0 00445    00443 TMI -0 12000 0 00445
 00444 TRA +0 02000 0 56077
                 FUNCTION RETURN DIM(T1+1000)                                       054  LM00077
 00445 CLA +0 50000 0 00012    00446 ADD +0 40000 0 00023    00447 PAX +0 73400 2 00000    00450 CLA +0 50000 2 65335
 00451 TRA +0 02000 0 00472
                 END OF FUNCTION                                                    055  LM00078
 00452 TSX +0 07400 4 00001    00453 TXH +3 00000 0 00000    00454 SXD -0 63400 1 00453    00455 SXA +0 63400 4 00472
 00456 CLA +0 50000 4 00001    00457 STA +0 62100 0 00054    00460 STA +0 62100 0 00106    00461 STA +0 62100 0 00115
 00462 STA +0 62100 0 00117    00463 STA +0 62100 0 00266    00464 STA +0 62100 0 00316    00465 STA +0 62100 0 00336
 00466 STA +0 62100 0 00360    00467 STA +0 62100 0 00412    00470 STA +0 62100 0 00431    00471 TRA +0 02000 2 00001
 00472 AXT +0 77400 4 00000    00473 LXA +0 53400 2 00453    00474 LXD -0 53400 1 00453    00475 TRA +0 02000 4 00001
1     MAD PROGRAM LISTING ... ... ...                 FILE    IOP9   MAD            02/07/68    2125.2
-
                                   IOP9                                                                LM00001
                                                                                                       LM00002
                  EXTERNAL FUNCTION                                                               *001 LM00003
                  NORMAL MODE IS INTEGER                                                          *002 LM00004
                  ERASABLE DUM(200),N(2000),INTEG(2000),FUNCT(1000),DIM(2000),                    *003 LM00005
                1 I(666),HOL(500),OUT(500),ARRG(50),STNO,NSNO,STACON,CCT,WHOLE,                   *003 LM00006
                2 DUMP,BUMP,LUMP,RUMP,CRUMP,PUMP,FLAG,BOOLFL,SUB,SW3,TS3,PR,                      *003 LM00007
                3 ERR,CSW,NUMBER,MOX,ZZXQ1                                                        *003 LM00008
                  BOOLEAN BOOLFL,CSW,MOX,DUMP,BUMP,LUMP,RUMP,CRUMP,PUMP                           *004 LM00009
                  STATEMENT LABEL SW3,TS3,PR,ZZXQ1                                                *005 LM00010
                  DIMENSION KI(666)                                                               *006 LM00011
                  BOOLEAN INTSW,SET,FN,OPCHK.                                                     *007 LM00012
                                                                                                       LM00013
                   IOP.                                                                                LM00014
                                                                                                       LM00015
                  ENTRY TO IOP.                                                                   *008 LM00016
                  I(CCT+1)=$1C$                                                                   *009 LM00017
                  INTSW=0B                                                                        *010 LM00018
                  TRANSFER TO S(FLAG)                                                             *011 LM00019
      S(6)        THROUGH S(6), FOR A1=1,1,A1 .G. CCT .OR. OPCHK.(I(A1))                          *012 LM00020
                  WHENEVER I(A1).NE.$,$.AND.A1.LE.CCT,TRANSFER TO S30                             *013 LM00021
                  WHENEVER I(2) .E. $U$                                                           *014 LM00022
                  OP=$PUNCH$                                                                      *015 LM00023
                  MODE =$ $                                                                       *016 LM00024
                  OTHERWISE                                                                       *017 LM00025
                  OP=$PRINT$                                                                      *018 LM00026
                  MODE=$ONLINE$                                                                   *019 LM00027
                  END OF CONDITIONAL                                                              *020 LM00028
                  UNIT=$FORMAT$                                                                   *021 LM00029
                  A=6                                                                             *022 LM00030
                  TRANSFER TO S63                                                                 *023 LM00031
      S(8)        OP=$READ$                                                                       *024 LM00032
                  MODE =$BINARY$                                                                  *025 LM00033
                  UNIT=$TAPE$                                                                     *026 LM00034
                  A=9                                                                             *027 LM00035
                  TRANSFER TO S63                                                                 *028 LM00036
      S(9)        OP=$READ$                                                                       *029 LM00037
                  MODE =$BCD$                                                                     *030 LM00038
                  UNIT=$TAPE$                                                                     *031 LM00039
                  A=14                                                                            *032 LM00040
                  TRANSFER TO S63                                                                 *033 LM00041
      S(10)       OP=$READ$                                                                       *034 LM00042
                  MODE =$ $                                                                       *035 LM00043
                  UNIT=$DRUM$                                                                     *036 LM00044
                  A=9                                                                             *037 LM00045
                  TRANSFER TO S63                                                                 *038 LM00046
      S(11)       THROUGH S(11), FOR A1=1,1,A1.G.CCT.OR.OPCHK.(I(A1))                             *039 LM00047
                  WHENEVER I(A1).NE.$,$.AND.A1.LE.CCT, TRANSFER TO S30                            *040 LM00048
                  OP=$READ$                                                                       *041 LM00049
                  MODE =$ $                                                                       *042 LM00050
                  UNIT=$FORMAT$                                                                   *043 LM00051
                  A=5                                                                             *044 LM00052
                  TRANSFER TO S63                                                                 *045 LM00053
      S(12)       OP=$WRITE$                                                                      *046 LM00054
                  MODE =$ $                                                                       *047 LM00055
                  UNIT=$DRUM$                                                                     *048 LM00056
                  A=10                                                                            *049 LM00057
                  TRANSFER TO S63                                                                 *050 LM00058
      S(14)       OP=$WRITE$                                                                      *051 LM00059
                  MODE =$BINARY$                                                                  *052 LM00060
                  UNIT=$TAPE$                                                                     *053 LM00061
                  A=10                                                                            *054 LM00062
                  TRANSFER TO S63                                                                 *055 LM00063
      S(15)       OP=$WRITE$                                                                      *056 LM00064
                  MODE =$BCD$                                                                     *057 LM00065
                  UNIT=$TAPE$                                                                     *058 LM00066
                  A=16                                                                            *059 LM00067
      S63         CONTINUE                                                                        *060 LM00068
                  EXECUTE CMPRS.                                                                  *061 LM00069
                  WHENEVER MODE.E.$BCD$.AND.KI(3).RS.30.LE.9.AND.A1.GE.3                          *062 LM00070
                  KI(3)=STACON.V.BNBCD.(FINDN.(KI(3)))                                            *063 LM00071
                  OR WHENEVER (FLAG.E.6.OR.FLAG.E.11).AND.KI(1).RS.30.LE.9                        *064 LM00072
                  KI(1)=STACON.V.BNBCD.(FINDN.(KI(1)))                                            *065 LM00073
                  END OF CONDITIONAL                                                              *066 LM00074
                  EXECUTE MAIN.                                                                   *067 LM00075
                  WHOLE=1                                                                         *068 LM00076
                  TRANSFER TO PR                                                                  *069 LM00077
      S30         EXECUTE SUBST.                                                                  *070 LM00078
                  INTERNAL FUNCTION                                                               *071 LM00079
                                                                                                       LM00080
                   CMPRS.                                                                              LM00081
                                                                                                       LM00082
                  ENTRY TO CMPRS.                                                                 *072 LM00083
                  A1=0                                                                            *073 LM00084
                  L=0                                                                             *074 LM00085
      IN          B=A                                                                             *075 LM00086
                  WHENEVER I(A).E.$1C$                                                            *076 LM00087
                  WHENEVER L.E.0                                                                  *077 LM00088
                  A1=A1+1                                                                         *078 LM00089
                  KI(A1)=$1C$                                                                     *079 LM00090
                  FUNCTION RETURN                                                                 *080 LM00091
                  OTHERWISE                                                                       *081 LM00092
                  EXECUTE ERRP.(14)                                                               *082 LM00093
                  END OF CONDITIONAL                                                              *083 LM00094
                  OR WHENEVER I(A).E.$($                                                          *084 LM00095
                  L=L+1                                                                           *085 LM00096
      CS1         A1=A1+1                                                                         *086 LM00097
                  KI(A1)=I(A)                                                                     *087 LM00098
                  A=A+1                                                                           *088 LM00099
                  TRANSFER TO IN                                                                  *089 LM00100
                  OR WHENEVER I(A).E.$)$                                                          *090 LM00101
                  L=L-1                                                                           *091 LM00102
                  TRANSFER TO CS1                                                                 *092 LM00103
                  OR WHENEVER I(A).GE.$0$.AND.I(A).LE.$9$                                         *093 LM00104
      CS2         A=A+1                                                                           *094 LM00105
                  WHENEVERI(A).GE.$0$.AND.I(A).LE.$9$.AND.I(A).NE.$1C$,TRANSFER                   *095 LM00106
                1  TO CS2                                                                         *095 LM00107
                  WHENEVER OPCHK.(I(A)).OR.I(A).E.$1C$                                            *096 LM00108
      CS3         A1=A1+1                                                                         *097 LM00109
                  KI(A1)=COMPZ.(A-B,I(B))                                                         *098 LM00110
                  WHENEVER INTSW, FINDIN.(KI(A1))                                                 *099 LM00111
                  INTSW=0B                                                                        *100 LM00112
                  TRANSFER TO IN                                                                  *101 LM00113
                  OTHERWISE                                                                       *102 LM00114
                  EXECUTE ERRP.(17)                                                               *103 LM00115
                  END OF CONDITIONAL                                                              *104 LM00116
                  OR WHENEVER OPCHK.(I(A))                                                        *105 LM00117
                  TRANSFER TO CS1                                                                 *106 LM00118
                  OTHERWISE                                                                       *107 LM00119
                  WHENEVER I(A).E.$I$.OR.I(A).GE.$N$.AND.I(A).LE.$J$, INTSW=1B                    *108 LM00120
      CS4         A=A+1                                                                           *109 LM00121
                  WHENEVER .NOT. OPCHK.(I(A)).AND. I(A).NE.$1C$,TRANSFER TO CS4                   *110 LM00122
                  TRANSFER TO CS3                                                                 *111 LM00123
                  END OF CONDITIONAL                                                              *112 LM00124
                  END OF FUNCTION                                                                 *113 LM00125
                  INTERNAL FUNCTION                                                               *114 LM00126
                                                                                                       LM00127
                   MAIN.                                                                               LM00128
                                                                                                       LM00129
                  ENTRY TO MAIN.                                                                  *115 LM00130
                  A1=0                                                                            *116 LM00131
                  A2=0                                                                            *117 LM00132
                  PUTK.(OP)                                                                       *118 LM00133
                  WHENEVER MODE .NE.$$,PUTK.(MODE)                                                *119 LM00134
                  WHENEVER UNIT.NE.$$, PUTK.(UNIT)                                                *120 LM00135
      SS9         GETK.                                                                           *121 LM00136
                  WHENEVER CH.NE.$($.AND.CH.NE.$,$                                                *122 LM00137
                    PUTK.(CH)                                                                     *123 LM00138
                  WHENEVER KI(A2+1).E.$1C$.OR.KI(A2+1).E.$,$.OR.KI(A2+1).E.$)$                    *124 LM00139
                  ZZXQ1=SS2                                                                       *125 LM00140
                  A4=DIMFN.(I(A1),ZZXQ1)                                                          *126 LM00141
                  PUTK.($($)                                                                      *127 LM00142
                  PUTK.(LZR.(A4))                                                                 *128 LM00143
                  PUTK.($)...$)                                                                   *129 LM00144
                  PUTK.(I(A1-3))                                                                  *130 LM00145
                      PUTK.($ (1)$)                                                               *131 LM00146
      SS2         CONTINUE                                                                        *132 LM00147
                  OTHERWISE                                                                       *133 LM00148
                  GETK.                                                                           *134 LM00149
                    WHENEVER CH.E.$($                                                             *135 LM00150
                    PUTK.(CH)                                                                     *136 LM00151
                    L=1                                                                           *137 LM00152
      SS4           GETK.                                                                         *138 LM00153
                    WHENEVER CH.E.$($,L=L+1                                                       *139 LM00154
                    WHENEVER CH.E.$)$,L=L-1                                                       *140 LM00155
                    PUTK.(CH)                                                                     *141 LM00156
                    WHENEVER L.NE.0,TRANSFER TO SS4                                               *142 LM00157
                  OTHERWISE                                                                       *143 LM00158
                    PUTK.(CH)                                                                     *144 LM00159
                  END OF CONDITIONAL                                                              *145 LM00160
                  END OF CONDITIONAL                                                              *146 LM00161
                  OR WHENEVER CH.E.$,$                                                            *147 LM00162
                    PUTK.(CH)                                                                     *148 LM00163
                  OTHERWISE                                                                       *149 LM00164
                    A3=A2                                                                         *150 LM00165
                    PUTK.(CH)                                                                     *151 LM00166
                    L=1                                                                           *152 LM00167
      SS5         THROUGH SS5, FOR A3=A3+1,1,KI(A3).E.$1C$.OR.KI(A3).E.$)$                        *153 LM00168
                1  .OR.KI(A3).E.$($                                                               *153 LM00169
                    WHENEVER KI(A3).E.$1C$                                                        *154 LM00170
                    ERRP.(14)                                                                     *155 LM00171
                    END OF CONDITIONAL                                                            *156 LM00172
                    WHENEVER KI(A3).E.$($,L=L+1                                                   *157 LM00173
                    WHENEVER KI(A3).E.$)$,L=L-1                                                   *158 LM00174
                  WHENEVER L.NE.0, TRANSFER TO SS5                                                *159 LM00175
      SS6         THROUGH SS6, FOR A4=A3-1,-1,KI(A4).E.$=$.OR.A4.L.A2                             *160 LM00176
                    WHENEVER A4.L.A2,TRANSFER TO SS9                                              *161 LM00177
                    PUTK.(KI(A4-1))                                                               *162 LM00178
                    PUTK.($=$)                                                                    *163 LM00179
                    PUTK.(KI(A4+1))                                                               *164 LM00180
                    WHENEVER KI(A4+4).E.$)$                                                       *165 LM00181
                  INCR=$1$                                                                        *166 LM00182
                  A6=A4+4                                                                         *167 LM00183
                  TRANSFER TO SS7                                                                 *168 LM00184
                    OR WHENEVER KI(A4+6).E.$)$                                                    *169 LM00185
                  INCR=KI(A4+5)                                                                   *170 LM00186
                  A6=A4+6                                                                         *171 LM00187
      SS7         PUTK.($,$)                                                                      *172 LM00188
                  PUTK.(INCR)                                                                     *173 LM00189
                      PUTK.($,$)                                                                  *174 LM00190
                      PUTK.(KI(A4-1))                                                             *175 LM00191
                      PUTK.( $ .G.$)                                                              *176 LM00192
                      PUTK.(KI(A4+3))                                                             *177 LM00193
                  PUTK.($.AND.$)                                                                  *178 LM00194
                  PUTK.(KI(A4-1))                                                                 *179 LM00195
                  PUTK.($.NE.$)                                                                   *180 LM00196
                  PUTK.(KI(A4+1))                                                                 *181 LM00197
                  OTHERWISE                                                                       *182 LM00198
                    ERRP.(14)                                                                     *183 LM00199
                  END OF CONDITIONAL                                                              *184 LM00200
                  PUTK.($ ,$)                                                                     *185 LM00201
                  A4=A4-2                                                                         *186 LM00202
                  THROUGH SS8, FOR A5=A6,1,KI(A4).E.$1C$                                          *187 LM00203
                    KI(A4)=KI(A5)                                                                 *188 LM00204
      SS8         A4=A4+1                                                                         *189 LM00205
                  END OF CONDITIONAL                                                              *190 LM00206
                  TRANSFER TO SS9                                                                 *191 LM00207
      RTN         CCT=A1                                                                          *192 LM00208
                  FUNCTION RETURN                                                                 *193 LM00209
                  END OF FUNCTION                                                                 *194 LM00210
                  INTERNAL FUNCTION                                                               *195 LM00211
                                                                                                       LM00212
                   GETK.                                                                               LM00213
                                                                                                       LM00214
                  ENTRY TO GETK.                                                                  *196 LM00215
                    A2=A2+1                                                                       *197 LM00216
                    WHENEVER KI(A2).E.$1C$, TRANSFER TO RTN                                       *198 LM00217
                    CH=KI(A2)                                                                     *199 LM00218
                  FUNCTION RETURN                                                                 *200 LM00219
                  END OF FUNCTION                                                                 *201 LM00220
                  INTERNAL FUNCTION (X)                                                           *202 LM00221
                                                                                                       LM00222
                   PUTK.                                                                               LM00223
                                                                                                       LM00224
                  ENTRY TO PUTK.                                                                  *203 LM00225
                    A1=A1+1                                                                       *204 LM00226
                    I(A1)=X                                                                       *205 LM00227
                    FUNCTION RETURN                                                               *206 LM00228
                  END OF FUNCTION                                                                 *207 LM00229
                  END OF FUNCTION                                                                 *208 LM00230
1MAD PROGRAM,TYPE NOV 1963      (ALL NUMBERS ARE OCTAL)
0TOTAL LOCATIONS   02742 TRANSFER VECTOR LENGTH  00012 PROGRAM BEGINS    01402
0 PROGRAM IS AN EXTERNAL FUNCTION.   THE FOLLOWING ARE ENTRIES
      IOP    01403   0
0VARIABLE STORAGE (A=ARRAY,C=COMMON,E=ERASABLE,DIGIT=MODE)
      A1     00054   1        CRUMP  56113  E2        INCR   00065   1        OP     01324   1        SS6    00016   4
      A2     00055   1        CS1    00017   4        IN     00023   4        OUT    57174 AE1        SS7    00052   4
      A3     00056   1        CS2    00020   4        INTEG  73227 AE1        PR     56104  E4        SS8    00016   4
      A4     00057   1        CS3    00021   4        INTSW  00066   2        PUMP   56112  E2        SS9    00053   4
      A5     00060   1        CS4    00022   4        I      61414 AE1        RTN    00024   4        STACON 56122  E1
      A6     00061   1        CSW    56102  E2        KI     01321 A 1        RUMP   56114  E2        STNO   56124  E1
      ARRG   56207 AE1        DIM    65335 AE1        L      01322   1        S30    00025   4        SUB    56107  E1
      A      00062   1        DUMP   56117  E2        LUMP   56115  E2        S63    00026   4        SW3    56106  E4
      BOOLFL 56110  E2        DUM    77461 AE1        MODE   01323   1        S      00046 A 4        TS3    56105  E4
      B      00063   1        ERR    56103  E1        MOX    56100  E2        SS2    00047   4        UNIT   01325   1
      BUMP   56116  E2        FLAG   56111  E1        N      77150 AE1        SS4    00050   4        WHOLE  56120  E1
      CCT    56121  E1        FUNCT  67306 AE1        NSNO   56123  E1        SS5    00051   4        ZZXQ1  56077  E4
      CH     00064   1        HOL    60161 AE1        NUMBER 56101  E1
0FUNCTION DICTIONARY
      BNBCD  00000   1        COMPZ  00001   1        DIMFN  00002   1        ERRP   00003   1        EXIT   00004   1
      FINDIN 00005   1        FINDN  00006   1        LZR    00007   1        OPCHK  00010   2        SUBST  00011   1
      CMPRS  00012   1        GETK   00013   1        MAIN   00014   1        PUTK   00015   1
0ABSOLUTE CONSTANTS
 01330 +000000000002     01373 -207360606060     01360 +334525336060     01357 +332145243360     01371 -203327336060
 01346 +016060606060     01332 +000000000004     01350 +136060606060     01374 -207401346060     01361 +343333336060
 01356 +316060606060     01364 -056060606060     01363 -016060606060     01342 +000000000021     01344 +006060606060
 01347 +116060606060     01362 +346060606060     01401 -346060606060     01337 +000000000013     01343 +000000000036
 01331 +000000000003     01341 +000000000020     01336 +000000000012     01377 -265131632560     01333 +000000000005
 01354 +245164446060     01340 +000000000016     01351 +222324606060     01335 +000000000011     01375 -232147256060
 01352 +223145215170     01370 -112521246060     01334 +000000000006     01355 +264651442163     01365 -064543314525
 01366 -075131456360     01372 -206060606060     01367 -076445233060     01376 -246060606060     01400 -336060606060
 01326 +000000000000     01345 +012360606060     01327 +000000000001     01353 +233000000000
0STATEMENT DICTIONARY
 00017 TXL -301761001756       00020 TXL -302017002014       00021 TXL -302052002047       00022 TXL -302140002135
 00023 TXL -301725001723       00024 TXL -302634002632       00025 TXL -301713001712       00026 TXL -301623001623
 00027 TXL -301615001613       00030 TXL -301604001602       00032 TXL -301573001571       00033 TXL -301547001525
 00034 TXL -301516001514       00035 TXL -301505001503       00036 TXL -301474001472       00040 TXL -301440001416
 00047 TXL -302302002302       00050 TXL -302314002313       00051 TXL -302400002356       00052 TXL -302532002530
 00053 TXL -302214002213
0PROGRAM
                 EXTERNAL FUNCTION                                                  001  LM00003
                 NORMAL MODE IS INTEGER                                             002  LM00004
                 ERASABLE DUM(200),N(2000),INTEG(2000),FUNCT(1000),DIM(2000),       003  LM00005
                1I(666),HOL(500),OUT(500),ARRG(50),STNO,NSNO,STACON,CCT,WHOLE,      003  LM00006
                2DUMP,BUMP,LUMP,RUMP,CRUMP,PUMP,FLAG,BOOLFL,SUB,SW3,TS3,PR,         003  LM00007
                3ERR,CSW,NUMBER,MOX,ZZXQ1                                           003  LM00008
                 BOOLEAN BOOLFL,CSW,MOX,DUMP,BUMP,LUMP,RUMP,CRUMP,PUMP              004  LM00009
                 STATEMENT LABEL SW3,TS3,PR,ZZXQ1                                   005  LM00010
                 DIMENSION KI(666)                                                  006  LM00011
                 BOOLEAN INTSW,SET,FN,OPCHK.                                        007  LM00012
                 ENTRY TO IOP.                                                      008  LM00016
 01402 TRA +0 02000 0 01405    01403 SXA +0 63400 2 02727    01404 TSX +0 07400 2 02727
                 I(CCT+1)=$1C$                                                      009  LM00017
 01405 CLA +0 50000 0 56121    01406 ADD +0 40000 0 01327    01407 PAX +0 73400 1 00000    01410 CLA +0 50000 0 01345
 01411 STO +0 60100 1 61414
                 INTSW=0B                                                           010  LM00018
 01412 CLA +0 50000 0 01326    01413 STO +0 60100 0 00066
                 TRANSFER TO S(FLAG)                                                011  LM00019
 01414 LXA +0 53400 2 56111    01415 TRA +0 02000 2 00046
      S(6)       THROUGH S(6), FOR A1=1,1,A1 .G. CCT .OR. OPCHK.(I(A1))             012  LM00020
 01416 CLA +0 50000 0 01327    01417 STO +0 60100 0 00054    01420 TRA +0 02000 0 01424    01421 CLA +0 50000 0 00054
 01422 ADD +0 40000 0 01327    01423 STO +0 60100 0 00054    01424 CLA +0 50000 0 00054    01425 SUB +0 40200 0 01426
 01426 TXH +3 00000 0 61414    01427 STA +0 62100 0 01431    01430 TSX +0 07400 4 00010    01431 TXH +3 00000 0 00000
 01432 TNZ -0 10000 0 01440    01433 CLA +0 50000 0 00054    01434 SUB +0 40200 0 56121    01435 TZE +0 10000 0 01437
 01436 TPL +0 12000 0 01440    01437 TRA +0 02000 0 01421
                 WHENEVER I(A1).NE.$,$.AND.A1.LE.CCT,TRANSFER TO S30                013  LM00021
 01440 CLA +0 50000 0 00054    01441 SUB +0 40200 0 56121    01442 TZE +0 10000 0 01444    01443 TPL +0 12000 0 01451
 01444 LXA +0 53400 1 00054    01445 CLA +0 50000 1 61414    01446 SUB +0 40200 0 01400    01447 TZE +0 10000 0 01451
 01450 TRA +0 02000 0 00025
                 WHENEVER I(2) .E. $U$                                              014  LM00022
 01451 CLA +0 50000 0 61412    01452 SUB +0 40200 0 01376    01453 TNZ -0 10000 0 01461
                 OP=$PUNCH$                                                         015  LM00023
 01454 CLA +0 50000 0 01367    01455 STO +0 60100 0 01324
                 MODE =$ $                                                          016  LM00024
 01456 CLA +0 50000 0 01372    01457 STO +0 60100 0 01323
                 OTHERWISE                                                          017  LM00025
 01460 TRA +0 02000 0 01465
                 OP=$PRINT$                                                         018  LM00026
 01461 CLA +0 50000 0 01366    01462 STO +0 60100 0 01324
                 MODE=$ONLINE$                                                      019  LM00027
 01463 CLA +0 50000 0 01365    01464 STO +0 60100 0 01323
                 END OF CONDITIONAL                                                 020  LM00028
                 UNIT=$FORMAT$                                                      021  LM00029
 01465 CLA +0 50000 0 01355    01466 STO +0 60100 0 01325
                 A=6                                                                022  LM00030
 01467 CLA +0 50000 0 01334    01470 STO +0 60100 0 00062
                 TRANSFER TO S63                                                    023  LM00031
 01471 TRA +0 02000 0 00026
      S(8)       OP=$READ$                                                          024  LM00032
 01472 CLA +0 50000 0 01370    01473 STO +0 60100 0 01324
                 MODE =$BINARY$                                                     025  LM00033
 01474 CLA +0 50000 0 01352    01475 STO +0 60100 0 01323
                 UNIT=$TAPE$                                                        026  LM00034
 01476 CLA +0 50000 0 01375    01477 STO +0 60100 0 01325
                 A=9                                                                027  LM00035
 01500 CLA +0 50000 0 01335    01501 STO +0 60100 0 00062
                 TRANSFER TO S63                                                    028  LM00036
 01502 TRA +0 02000 0 00026
      S(9)       OP=$READ$                                                          029  LM00037
 01503 CLA +0 50000 0 01370    01504 STO +0 60100 0 01324
                 MODE =$BCD$                                                        030  LM00038
 01505 CLA +0 50000 0 01351    01506 STO +0 60100 0 01323
                 UNIT=$TAPE$                                                        031  LM00039
 01507 CLA +0 50000 0 01375    01510 STO +0 60100 0 01325
                 A=14                                                               032  LM00040
 01511 CLA +0 50000 0 01340    01512 STO +0 60100 0 00062
                 TRANSFER TO S63                                                    033  LM00041
 01513 TRA +0 02000 0 00026
      S(10)      OP=$READ$                                                          034  LM00042
 01514 CLA +0 50000 0 01370    01515 STO +0 60100 0 01324
                 MODE =$ $                                                          035  LM00043
 01516 CLA +0 50000 0 01372    01517 STO +0 60100 0 01323
                 UNIT=$DRUM$                                                        036  LM00044
 01520 CLA +0 50000 0 01354    01521 STO +0 60100 0 01325
                 A=9                                                                037  LM00045
 01522 CLA +0 50000 0 01335    01523 STO +0 60100 0 00062
                 TRANSFER TO S63                                                    038  LM00046
 01524 TRA +0 02000 0 00026
      S(11)      THROUGH S(11), FOR A1=1,1,A1.G.CCT.OR.OPCHK.(I(A1))                039  LM00047
 01525 CLA +0 50000 0 01327    01526 STO +0 60100 0 00054    01527 TRA +0 02000 0 01533    01530 CLA +0 50000 0 00054
 01531 ADD +0 40000 0 01327    01532 STO +0 60100 0 00054    01533 CLA +0 50000 0 00054    01534 SUB +0 40200 0 01535
 01535 TXH +3 00000 0 61414    01536 STA +0 62100 0 01540    01537 TSX +0 07400 4 00010    01540 TXH +3 00000 0 00000
 01541 TNZ -0 10000 0 01547    01542 CLA +0 50000 0 00054    01543 SUB +0 40200 0 56121    01544 TZE +0 10000 0 01546
 01545 TPL +0 12000 0 01547    01546 TRA +0 02000 0 01530
                 WHENEVER I(A1).NE.$,$.AND.A1.LE.CCT, TRANSFER TO S30               040  LM00048
 01547 CLA +0 50000 0 00054    01550 SUB +0 40200 0 56121    01551 TZE +0 10000 0 01553    01552 TPL +0 12000 0 01560
 01553 LXA +0 53400 1 00054    01554 CLA +0 50000 1 61414    01555 SUB +0 40200 0 01400    01556 TZE +0 10000 0 01560
 01557 TRA +0 02000 0 00025
                 OP=$READ$                                                          041  LM00049
 01560 CLA +0 50000 0 01370    01561 STO +0 60100 0 01324
                 MODE =$ $                                                          042  LM00050
 01562 CLA +0 50000 0 01372    01563 STO +0 60100 0 01323
                 UNIT=$FORMAT$                                                      043  LM00051
 01564 CLA +0 50000 0 01355    01565 STO +0 60100 0 01325
                 A=5                                                                044  LM00052
 01566 CLA +0 50000 0 01333    01567 STO +0 60100 0 00062
                 TRANSFER TO S63                                                    045  LM00053
 01570 TRA +0 02000 0 00026
      S(12)      OP=$WRITE$                                                         046  LM00054
 01571 CLA +0 50000 0 01377    01572 STO +0 60100 0 01324
                 MODE =$ $                                                          047  LM00055
 01573 CLA +0 50000 0 01372    01574 STO +0 60100 0 01323
                 UNIT=$DRUM$                                                        048  LM00056
 01575 CLA +0 50000 0 01354    01576 STO +0 60100 0 01325
                 A=10                                                               049  LM00057
 01577 CLA +0 50000 0 01336    01600 STO +0 60100 0 00062
                 TRANSFER TO S63                                                    050  LM00058
 01601 TRA +0 02000 0 00026
      S(14)      OP=$WRITE$                                                         051  LM00059
 01602 CLA +0 50000 0 01377    01603 STO +0 60100 0 01324
                 MODE =$BINARY$                                                     052  LM00060
 01604 CLA +0 50000 0 01352    01605 STO +0 60100 0 01323
                 UNIT=$TAPE$                                                        053  LM00061
 01606 CLA +0 50000 0 01375    01607 STO +0 60100 0 01325
                 A=10                                                               054  LM00062
 01610 CLA +0 50000 0 01336    01611 STO +0 60100 0 00062
                 TRANSFER TO S63                                                    055  LM00063
 01612 TRA +0 02000 0 00026
      S(15)      OP=$WRITE$                                                         056  LM00064
 01613 CLA +0 50000 0 01377    01614 STO +0 60100 0 01324
                 MODE =$BCD$                                                        057  LM00065
 01615 CLA +0 50000 0 01351    01616 STO +0 60100 0 01323
                 UNIT=$TAPE$                                                        058  LM00066
 01617 CLA +0 50000 0 01375    01620 STO +0 60100 0 01325
                 A=16                                                               059  LM00067
 01621 CLA +0 50000 0 01341    01622 STO +0 60100 0 00062
      S63        CONTINUE                                                           060  LM00068
                 EXECUTE CMPRS.                                                     061  LM00069
 01623 TSX +0 07400 4 00012
                 WHENEVER MODE.E.$BCD$.AND.KI(3).RS.30.LE.9.AND.A1.GE.3             062  LM00070
 01624 CLA +0 50000 0 00054    01625 SUB +0 40200 0 01331    01626 TZE +0 10000 0 01630    01627 TMI -0 12000 0 01656
 01630 CAL -0 50000 0 01343    01631 STA +0 62100 0 01633    01632 CAL -0 50000 0 01316    01633 LGR -0 76500 0 00000
 01634 SLW +0 60200 0 02737    01635 CLA +0 50000 0 02737    01636 SUB +0 40200 0 01335    01637 TZE +0 10000 0 01641
 01640 TPL +0 12000 0 01656    01641 CLA +0 50000 0 01323    01642 SUB +0 40200 0 01351    01643 TNZ -0 10000 0 01656
                 KI(3)=STACON.V.BNBCD.(FINDN.(KI(3)))                               063  LM00071
 01644 TSX +0 07400 4 00006    01645 TXH +3 00000 0 01316    01646 STO +0 60100 0 02737    01647 TSX +0 07400 4 00000
 01650 TXH +3 00000 0 02737    01651 STO +0 60100 0 02737    01652 CAL -0 50000 0 56122    01653 ORA -0 50100 0 02737
 01654 SLW +0 60200 0 01316
                 OR WHENEVER (FLAG.E.6.OR.FLAG.E.11).AND.KI(1).RS.30.LE.9           064  LM00072
 01655 TRA +0 02000 0 01706    01656 CAL -0 50000 0 01343    01657 STA +0 62100 0 01661    01660 CAL -0 50000 0 01320
 01661 LGR -0 76500 0 00000    01662 SLW +0 60200 0 02737    01663 CLA +0 50000 0 02737    01664 SUB +0 40200 0 01335
 01665 TZE +0 10000 0 01667    01666 TPL +0 12000 0 01706    01667 CLA +0 50000 0 56111    01670 SUB +0 40200 0 01337
 01671 TZE +0 10000 0 01675    01672 CLA +0 50000 0 56111    01673 SUB +0 40200 0 01334    01674 TNZ -0 10000 0 01706
                 KI(1)=STACON.V.BNBCD.(FINDN.(KI(1)))                               065  LM00073
 01675 TSX +0 07400 4 00006    01676 TXH +3 00000 0 01320    01677 STO +0 60100 0 02737    01700 TSX +0 07400 4 00000
 01701 TXH +3 00000 0 02737    01702 STO +0 60100 0 02737    01703 CAL -0 50000 0 56122    01704 ORA -0 50100 0 02737
 01705 SLW +0 60200 0 01320
                 END OF CONDITIONAL                                                 066  LM00074
                 EXECUTE MAIN.                                                      067  LM00075
 01706 TSX +0 07400 4 00014
                 WHOLE=1                                                            068  LM00076
 01707 CLA +0 50000 0 01327    01710 STO +0 60100 0 56120
                 TRANSFER TO PR                                                     069  LM00077
 01711 TRA +0 02000 0 56104
      S30        EXECUTE SUBST.                                                     070  LM00078
 01712 TSX +0 07400 4 00011
                 INTERNAL FUNCTION                                                  071  LM00079
 01713 TRA +0 02000 0 02167
                 ENTRY TO CMPRS.                                                    072  LM00083
 01714 TRA +0 02000 0 01717    00012 TTR +0 02100 0 01715    01715 SXA +0 63400 2 02156    01716 TSX +0 07400 2 02156
                 A1=0                                                               073  LM00084
 01717 CLA +0 50000 0 01326    01720 STO +0 60100 0 00054
                 L=0                                                                074  LM00085
 01721 CLA +0 50000 0 01326    01722 STO +0 60100 0 01322
      IN         B=A                                                                075  LM00086
 01723 CLA +0 50000 0 00062    01724 STO +0 60100 0 00063
                 WHENEVER I(A).E.$1C$                                               076  LM00087
 01725 LXA +0 53400 1 00062    01726 CLA +0 50000 1 61414    01727 SUB +0 40200 0 01345    01730 TNZ -0 10000 0 01747
                 WHENEVER L.E.0                                                     077  LM00088
 01731 CLA +0 50000 0 01322    01732 SUB +0 40200 0 01326    01733 TNZ -0 10000 0 01744
                 A1=A1+1                                                            078  LM00089
 01734 CLA +0 50000 0 00054    01735 ADD +0 40000 0 01327    01736 STO +0 60100 0 00054
                 KI(A1)=$1C$                                                        079  LM00090
 01737 LXA +0 53400 1 00054    01740 CLA +0 50000 0 01345    01741 STO +0 60100 1 01321
                 FUNCTION RETURN                                                    080  LM00091
 01742 TRA +0 02000 0 02162
                 OTHERWISE                                                          081  LM00092
 01743 TRA +0 02000 0 01746
                 EXECUTE ERRP.(14)                                                  082  LM00093
 01744 TSX +0 07400 4 00003    01745 TXH +3 00000 0 01340
                 END OF CONDITIONAL                                                 083  LM00094
                 OR WHENEVER I(A).E.$($                                             084  LM00095
 01746 TRA +0 02000 0 02155    01747 LXA +0 53400 1 00062    01750 CLA +0 50000 1 61414    01751 SUB +0 40200 0 01401
 01752 TNZ -0 10000 0 01772
                 L=L+1                                                              085  LM00096
 01753 CLA +0 50000 0 01322    01754 ADD +0 40000 0 01327    01755 STO +0 60100 0 01322
      CS1        A1=A1+1                                                            086  LM00097
 01756 CLA +0 50000 0 00054    01757 ADD +0 40000 0 01327    01760 STO +0 60100 0 00054
                 KI(A1)=I(A)                                                        087  LM00098
 01761 LXA +0 53400 1 00054    01762 LXA +0 53400 2 00062    01763 CLA +0 50000 2 61414    01764 STO +0 60100 1 01321
                 A=A+1                                                              088  LM00099
 01765 CLA +0 50000 0 00062    01766 ADD +0 40000 0 01327    01767 STO +0 60100 0 00062
                 TRANSFER TO IN                                                     089  LM00100
 01770 TRA +0 02000 0 00023
                 OR WHENEVER I(A).E.$)$                                             090  LM00101
 01771 TRA +0 02000 0 02155    01772 LXA +0 53400 1 00062    01773 CLA +0 50000 1 61414    01774 SUB +0 40200 0 01362
 01775 TNZ -0 10000 0 02003
                 L=L-1                                                              091  LM00102
 01776 CLA +0 50000 0 01322    01777 SUB +0 40200 0 01327    02000 STO +0 60100 0 01322
                 TRANSFER TO CS1                                                    092  LM00103
 02001 TRA +0 02000 0 00017
                 OR WHENEVER I(A).GE.$0$.AND.I(A).LE.$9$                            093  LM00104
 02002 TRA +0 02000 0 02155    02003 LXA +0 53400 1 00062    02004 CLA +0 50000 1 61414    02005 SUB +0 40200 0 01347
 02006 TZE +0 10000 0 02010    02007 TPL +0 12000 0 02105    02010 CLA +0 50000 1 61414    02011 SUB +0 40200 0 01344
 02012 TZE +0 10000 0 02014    02013 TMI -0 12000 0 02105
      CS2        A=A+1                                                              094  LM00105
 02014 CLA +0 50000 0 00062    02015 ADD +0 40000 0 01327    02016 STO +0 60100 0 00062
                 WHENEVERI(A).GE.$0$.AND.I(A).LE.$9$.AND.I(A).NE.$1C$,TRANSFER      095  LM00106
                1 TO CS2                                                            095  LM00107
 02017 LXA +0 53400 1 00062    02020 CLA +0 50000 1 61414    02021 SUB +0 40200 0 01345    02022 TZE +0 10000 0 02034
 02023 CLA +0 50000 1 61414    02024 SUB +0 40200 0 01347    02025 TZE +0 10000 0 02027    02026 TPL +0 12000 0 02034
 02027 CLA +0 50000 1 61414    02030 SUB +0 40200 0 01344    02031 TZE +0 10000 0 02033    02032 TMI -0 12000 0 02034
 02033 TRA +0 02000 0 00020
                 WHENEVER OPCHK.(I(A)).OR.I(A).E.$1C$                               096  LM00108
 02034 LXA +0 53400 1 00062    02035 CLA +0 50000 1 61414    02036 SUB +0 40200 0 01345    02037 TZE +0 10000 0 02047
 02040 CLA +0 50000 0 00062    02041 SUB +0 40200 0 02042    02042 TXH +3 00000 0 61414    02043 STA +0 62100 0 02045
 02044 TSX +0 07400 4 00010    02045 TXH +3 00000 0 00000    02046 TZE +0 10000 0 02102
      CS3        A1=A1+1                                                            097  LM00109
 02047 CLA +0 50000 0 00054    02050 ADD +0 40000 0 01327    02051 STO +0 60100 0 00054
                 KI(A1)=COMPZ.(A-B,I(B))                                            098  LM00110
 02052 CLA +0 50000 0 00063    02053 SUB +0 40200 0 02054    02054 TXH +3 00000 0 61414    02055 STA +0 62100 0 02063
 02056 CLA +0 50000 0 00062    02057 SUB +0 40200 0 00063    02060 STO +0 60100 0 02166    02061 TSX +0 07400 4 00001
 02062 TXH +3 00000 0 02166    02063 TXH +3 00000 0 00000    02064 LXA +0 53400 1 00054    02065 STO +0 60100 1 01321
                 WHENEVER INTSW, FINDIN.(KI(A1))                                    099  LM00111
 02066 NZT -0 52000 0 00066    02067 TRA +0 02000 0 02076    02070 CLA +0 50000 0 00054    02071 SUB +0 40200 0 02072
 02072 TXH +3 00000 0 01321    02073 STA +0 62100 0 02075    02074 TSX +0 07400 4 00005    02075 TXH +3 00000 0 00000
                 INTSW=0B                                                           100  LM00112
 02076 CLA +0 50000 0 01326    02077 STO +0 60100 0 00066
                 TRANSFER TO IN                                                     101  LM00113
 02100 TRA +0 02000 0 00023
                 OTHERWISE                                                          102  LM00114
 02101 TRA +0 02000 0 02104
                 EXECUTE ERRP.(17)                                                  103  LM00115
 02102 TSX +0 07400 4 00003    02103 TXH +3 00000 0 01342
                 END OF CONDITIONAL                                                 104  LM00116
                 OR WHENEVER OPCHK.(I(A))                                           105  LM00117
 02104 TRA +0 02000 0 02155    02105 CLA +0 50000 0 00062    02106 SUB +0 40200 0 02107    02107 TXH +3 00000 0 61414
 02110 STA +0 62100 0 02112    02111 TSX +0 07400 4 00010    02112 TXH +3 00000 0 00000    02113 TZE +0 10000 0 02116
                 TRANSFER TO CS1                                                    106  LM00118
 02114 TRA +0 02000 0 00017
                 OTHERWISE                                                          107  LM00119
 02115 TRA +0 02000 0 02155
                 WHENEVER I(A).E.$I$.OR.I(A).GE.$N$.AND.I(A).LE.$J$, INTSW=1B       108  LM00120
 02116 LXA +0 53400 1 00062    02117 CLA +0 50000 1 61414    02120 SUB +0 40200 0 01363    02121 TZE +0 10000 0 02123
 02122 TPL +0 12000 0 02127    02123 CLA +0 50000 1 61414    02124 SUB +0 40200 0 01364    02125 TZE +0 10000 0 02133
 02126 TPL +0 12000 0 02133    02127 LXA +0 53400 1 00062    02130 CLA +0 50000 1 61414    02131 SUB +0 40200 0 01356
 02132 TNZ -0 10000 0 02135    02133 CLA +0 50000 0 01327    02134 STO +0 60100 0 00066
      CS4        A=A+1                                                              109  LM00121
 02135 CLA +0 50000 0 00062    02136 ADD +0 40000 0 01327    02137 STO +0 60100 0 00062
                 WHENEVER .NOT. OPCHK.(I(A)).AND. I(A).NE.$1C$,TRANSFER TO CS4      110  LM00122
 02140 LXA +0 53400 1 00062    02141 CLA +0 50000 1 61414    02142 SUB +0 40200 0 01345    02143 TZE +0 10000 0 02154
 02144 CLA +0 50000 0 00062    02145 SUB +0 40200 0 02146    02146 TXH +3 00000 0 61414    02147 STA +0 62100 0 02151
 02150 TSX +0 07400 4 00010    02151 TXH +3 00000 0 00000    02152 TNZ -0 10000 0 02154    02153 TRA +0 02000 0 00022
                 TRANSFER TO CS3                                                    111  LM00123
 02154 TRA +0 02000 0 00021
                 END OF CONDITIONAL                                                 112  LM00124
                 END OF FUNCTION                                                    113  LM00125
 02155 TSX +0 07400 4 00004    02156 TXH +3 00000 0 00000    02157 SXD -0 63400 1 02156    02160 SXA +0 63400 4 02162
 02161 TRA +0 02000 2 00001    02162 AXT +0 77400 4 00000    02163 LXA +0 53400 2 02156    02164 LXD -0 53400 1 02156
 02165 TRA +0 02000 4 00001
                 INTERNAL FUNCTION                                                  114  LM00126
 02167 TRA +0 02000 0 02647
                 ENTRY TO MAIN.                                                     115  LM00130
 02170 TRA +0 02000 0 02173    00014 TTR +0 02100 0 02171    02171 SXA +0 63400 2 02636    02172 TSX +0 07400 2 02636
                 A1=0                                                               116  LM00131
 02173 CLA +0 50000 0 01326    02174 STO +0 60100 0 00054
                 A2=0                                                               117  LM00132
 02175 CLA +0 50000 0 01326    02176 STO +0 60100 0 00055
                 PUTK.(OP)                                                          118  LM00133
 02177 TSX +0 07400 4 00015    02200 TXH +3 00000 0 01324
                 WHENEVER MODE .NE.$$,PUTK.(MODE)                                   119  LM00134
 02201 CLA +0 50000 0 01323    02202 SUB +0 40200 0 01372    02203 TZE +0 10000 0 02206    02204 TSX +0 07400 4 00015
 02205 TXH +3 00000 0 01323
                 W'R UNIT.NE.$$, PUTK.(UNIT)                                        120  LM00135
 02206 CLA +0 50000 0 01325    02207 SUB +0 40200 0 01372    02210 TZE +0 10000 0 02213    02211 TSX +0 07400 4 00015
 02212 TXH +3 00000 0 01325
      SS9        GETK.                                                              121  LM00136
 02213 TSX +0 07400 4 00013
                 W'R CH.NE.$($.AND.CH.NE.$,$                                        122  LM00137
 02214 CLA +0 50000 0 00064    02215 SUB +0 40200 0 01400    02216 TZE +0 10000 0 02342    02217 CLA +0 50000 0 00064
 02220 SUB +0 40200 0 01401    02221 TZE +0 10000 0 02342
                   PUTK.(CH)                                                        123  LM00138
 02222 TSX +0 07400 4 00015    02223 TXH +3 00000 0 00064
                 WHENEVER KI(A2+1).E.$1C$.OR.KI(A2+1).E.$,$.OR.KI(A2+1).E.$)$       124  LM00139
 02224 CLA +0 50000 0 00055    02225 ADD +0 40000 0 01327    02226 PAX +0 73400 1 00000    02227 CLA +0 50000 1 01321
 02230 SUB +0 40200 0 01362    02231 TZE +0 10000 0 02246    02232 CLA +0 50000 0 00055    02233 ADD +0 40000 0 01327
 02234 PAX +0 73400 1 00000    02235 CLA +0 50000 1 01321    02236 SUB +0 40200 0 01400    02237 TZE +0 10000 0 02246
 02240 CLA +0 50000 0 00055    02241 ADD +0 40000 0 01327    02242 PAX +0 73400 1 00000    02243 CLA +0 50000 1 01321
 02244 SUB +0 40200 0 01345    02245 TNZ -0 10000 0 02303
                 ZZXQ1=SS2                                                          125  LM00140
 02246 CLA +0 50000 0 00047    02247 STO +0 60100 0 56077
                 A4=DIMFN.(I(A1),ZZXQ1)                                             126  LM00141
 02250 CLA +0 50000 0 00054    02251 SUB +0 40200 0 02252    02252 TXH +3 00000 0 61414    02253 STA +0 62100 0 02255
 02254 TSX +0 07400 4 00002    02255 TXH +3 00000 0 00000    02256 TXH +3 00000 0 56077    02257 STO +0 60100 0 00057
                 PUTK.($($)                                                         127  LM00142
 02260 TSX +0 07400 4 00015    02261 TXH +3 00000 0 01401
                 PUTK.(LZR.(A4))                                                    128  LM00143
 02262 TSX +0 07400 4 00007    02263 TXH +3 00000 0 00057    02264 STO +0 60100 0 02646    02265 TSX +0 07400 4 00015
 02266 TXH +3 00000 0 02646
                 PUTK.($)...$)                                                      129  LM00144
 02267 TSX +0 07400 4 00015    02270 TXH +3 00000 0 01361
                 PUTK.(I(A1-3))                                                     130  LM00145
 02271 CLA +0 50000 0 00054    02272 SUB +0 40200 0 01331    02273 SUB +0 40200 0 02274    02274 TXH +3 00000 0 61414
 02275 STA +0 62100 0 02277    02276 TSX +0 07400 4 00015    02277 TXH +3 00000 0 00000
                     PUTK.($ (1)$)                                                  131  LM00146
 02300 TSX +0 07400 4 00015    02301 TXH +3 00000 0 01374
      SS2        CONTINUE                                                           132  LM00147
                 OTHERWISE                                                          133  LM00148
 02302 TRA +0 02000 0 02341
                 GETK.                                                              134  LM00149
 02303 TSX +0 07400 4 00013
                   WHENEVER CH.E.$($                                                135  LM00150
 02304 CLA +0 50000 0 00064    02305 SUB +0 40200 0 01401    02306 TNZ -0 10000 0 02337
                   PUTK.(CH)                                                        136  LM00151
 02307 TSX +0 07400 4 00015    02310 TXH +3 00000 0 00064
                   L=1                                                              137  LM00152
 02311 CLA +0 50000 0 01327    02312 STO +0 60100 0 01322
      SS4          GETK.                                                            138  LM00153
 02313 TSX +0 07400 4 00013
                   W'R CH.E.$($,L=L+1                                               139  LM00154
 02314 CLA +0 50000 0 00064    02315 SUB +0 40200 0 01401    02316 TNZ -0 10000 0 02322    02317 CLA +0 50000 0 01322
 02320 ADD +0 40000 0 01327    02321 STO +0 60100 0 01322
                   W'R CH.E.$)$,L=L-1                                               140  LM00155
 02322 CLA +0 50000 0 00064    02323 SUB +0 40200 0 01362    02324 TNZ -0 10000 0 02330    02325 CLA +0 50000 0 01322
 02326 SUB +0 40200 0 01327    02327 STO +0 60100 0 01322
                   PUTK.(CH)                                                        141  LM00156
 02330 TSX +0 07400 4 00015    02331 TXH +3 00000 0 00064
                   W'R L.NE.0,T'O SS4                                               142  LM00157
 02332 CLA +0 50000 0 01322    02333 SUB +0 40200 0 01326    02334 TZE +0 10000 0 02336    02335 TRA +0 02000 0 00050
                 OTHERWISE                                                          143  LM00158
 02336 TRA +0 02000 0 02341
                   PUTK.(CH)                                                        144  LM00159
 02337 TSX +0 07400 4 00015    02340 TXH +3 00000 0 00064
                 E'L                                                                145  LM00160
                 END OF CONDITIONAL                                                 146  LM00161
                 O'R CH.E.$,$                                                       147  LM00162
 02341 TRA +0 02000 0 02631    02342 CLA +0 50000 0 00064    02343 SUB +0 40200 0 01400    02344 TNZ -0 10000 0 02350
                   PUTK.(CH)                                                        148  LM00163
 02345 TSX +0 07400 4 00015    02346 TXH +3 00000 0 00064
                 O'E                                                                149  LM00164
 02347 TRA +0 02000 0 02631
                   A3=A2                                                            150  LM00165
 02350 CLA +0 50000 0 00055    02351 STO +0 60100 0 00056
                   PUTK.(CH)                                                        151  LM00166
 02352 TSX +0 07400 4 00015    02353 TXH +3 00000 0 00064
                   L=1                                                              152  LM00167
 02354 CLA +0 50000 0 01327    02355 STO +0 60100 0 01322
      SS5        T'H SS5, FOR A3=A3+1,1,KI(A3).E.$1C$.OR.KI(A3).E.$)$               153  LM00168
                1 .OR.KI(A3).E.$($                                                  153  LM00169
 02356 CLA +0 50000 0 00056    02357 ADD +0 40000 0 01327    02360 STO +0 60100 0 00056    02361 TRA +0 02000 0 02365
 02362 CLA +0 50000 0 00056    02363 ADD +0 40000 0 01327    02364 STO +0 60100 0 00056    02365 LXA +0 53400 1 00056
 02366 CLA +0 50000 1 01321    02367 SUB +0 40200 0 01401    02370 TZE +0 10000 0 02400    02371 CLA +0 50000 1 01321
 02372 SUB +0 40200 0 01362    02373 TZE +0 10000 0 02400    02374 CLA +0 50000 1 01321    02375 SUB +0 40200 0 01345
 02376 TZE +0 10000 0 02400    02377 TRA +0 02000 0 02362
                   W'R KI(A3).E.$1C$                                                154  LM00170
 02400 LXA +0 53400 1 00056    02401 CLA +0 50000 1 01321    02402 SUB +0 40200 0 01345    02403 TNZ -0 10000 0 02406
                   ERRP.(14)                                                        155  LM00171
 02404 TSX +0 07400 4 00003    02405 TXH +3 00000 0 01340
                   E'L                                                              156  LM00172
                   W'R KI(A3).E.$($,L=L+1                                           157  LM00173
 02406 LXA +0 53400 1 00056    02407 CLA +0 50000 1 01321    02410 SUB +0 40200 0 01401    02411 TNZ -0 10000 0 02415
 02412 CLA +0 50000 0 01322    02413 ADD +0 40000 0 01327    02414 STO +0 60100 0 01322
                   W'R KI(A3).E.$)$,L=L-1                                           158  LM00174
 02415 LXA +0 53400 1 00056    02416 CLA +0 50000 1 01321    02417 SUB +0 40200 0 01362    02420 TNZ -0 10000 0 02424
 02421 CLA +0 50000 0 01322    02422 SUB +0 40200 0 01327    02423 STO +0 60100 0 01322
                 WHENEVER L.NE.0, TRANSFER TO SS5                                   159  LM00175
 02424 CLA +0 50000 0 01322    02425 SUB +0 40200 0 01326    02426 TZE +0 10000 0 02430    02427 TRA +0 02000 0 00051
      SS6        T'H SS6, FOR A4=A3-1,-1,KI(A4).E.$=$.OR.A4.L.A2                    160  LM00176
 02430 CLA +0 50000 0 00056    02431 SUB +0 40200 0 01327    02432 STO +0 60100 0 00057    02433 TRA +0 02000 0 02437
 02434 CLS +0 50200 0 01327    02435 ADD +0 40000 0 00057    02436 STO +0 60100 0 00057    02437 CLA +0 50000 0 00057
 02440 SUB +0 40200 0 00055    02441 TZE +0 10000 0 02443    02442 TMI -0 12000 0 02450    02443 LXA +0 53400 1 00057
 02444 CLA +0 50000 1 01321    02445 SUB +0 40200 0 01350    02446 TZE +0 10000 0 02450    02447 TRA +0 02000 0 02434
                   W'R A4.L.A2,T'O SS9                                              161  LM00177
 02450 CLA +0 50000 0 00057    02451 SUB +0 40200 0 00055    02452 TZE +0 10000 0 02455    02453 TPL +0 12000 0 02455
 02454 TRA +0 02000 0 00053
                   PUTK.(KI(A4-1))                                                  162  LM00178
 02455 CLA +0 50000 0 00057    02456 SUB +0 40200 0 01327    02457 SUB +0 40200 0 02460    02460 TXH +3 00000 0 01321
 02461 STA +0 62100 0 02463    02462 TSX +0 07400 4 00015    02463 TXH +3 00000 0 00000
                   PUTK.($=$)                                                       163  LM00179
 02464 TSX +0 07400 4 00015    02465 TXH +3 00000 0 01350
                   PUTK.(KI(A4+1))                                                  164  LM00180
 02466 CLA +0 50000 0 00057    02467 ADD +0 40000 0 01327    02470 SUB +0 40200 0 02471    02471 TXH +3 00000 0 01321
 02472 STA +0 62100 0 02474    02473 TSX +0 07400 4 00015    02474 TXH +3 00000 0 00000
                   W'R KI(A4+4).E.$)$                                               165  LM00181
 02475 CLA +0 50000 0 00057    02476 ADD +0 40000 0 01332    02477 PAX +0 73400 1 00000    02500 CLA +0 50000 1 01321
 02501 SUB +0 40200 0 01362    02502 TNZ -0 10000 0 02512
                 INCR=$1$                                                           166  LM00182
 02503 CLA +0 50000 0 01346    02504 STO +0 60100 0 00065
                 A6=A4+4                                                            167  LM00183
 02505 CLA +0 50000 0 00057    02506 ADD +0 40000 0 01332    02507 STO +0 60100 0 00061
                 TRANSFER TO SS7                                                    168  LM00184
 02510 TRA +0 02000 0 00052
                   O'R KI(A4+6).E.$)$                                               169  LM00185
 02511 TRA +0 02000 0 02603    02512 CLA +0 50000 0 00057    02513 ADD +0 40000 0 01334    02514 PAX +0 73400 1 00000
 02515 CLA +0 50000 1 01321    02516 SUB +0 40200 0 01362    02517 TNZ -0 10000 0 02601
                 INCR=KI(A4+5)                                                      170  LM00186
 02520 CLA +0 50000 0 00057    02521 ADD +0 40000 0 01333    02522 PAX +0 73400 2 00000    02523 CLA +0 50000 2 01321
 02524 STO +0 60100 0 00065
                 A6=A4+6                                                            171  LM00187
 02525 CLA +0 50000 0 00057    02526 ADD +0 40000 0 01334    02527 STO +0 60100 0 00061
      SS7        PUTK.($,$)                                                         172  LM00188
 02530 TSX +0 07400 4 00015    02531 TXH +3 00000 0 01400
                 PUTK.(INCR)                                                        173  LM00189
 02532 TSX +0 07400 4 00015    02533 TXH +3 00000 0 00065
                     PUTK.($,$)                                                     174  LM00190
 02534 TSX +0 07400 4 00015    02535 TXH +3 00000 0 01400
                     PUTK.(KI(A4-1))                                                175  LM00191
 02536 CLA +0 50000 0 00057    02537 SUB +0 40200 0 01327    02540 SUB +0 40200 0 02541    02541 TXH +3 00000 0 01321
 02542 STA +0 62100 0 02544    02543 TSX +0 07400 4 00015    02544 TXH +3 00000 0 00000
                     PUTK.( $ .G.$)                                                 176  LM00192
 02545 TSX +0 07400 4 00015    02546 TXH +3 00000 0 01371
                     PUTK.(KI(A4+3))                                                177  LM00193
 02547 CLA +0 50000 0 00057    02550 ADD +0 40000 0 01331    02551 SUB +0 40200 0 02552    02552 TXH +3 00000 0 01321
 02553 STA +0 62100 0 02555    02554 TSX +0 07400 4 00015    02555 TXH +3 00000 0 00000
                 PUTK.($.AND.$)                                                     178  LM00194
 02556 TSX +0 07400 4 00015    02557 TXH +3 00000 0 01357
                 PUTK.(KI(A4-1))                                                    179  LM00195
 02560 CLA +0 50000 0 00057    02561 SUB +0 40200 0 01327    02562 SUB +0 40200 0 02563    02563 TXH +3 00000 0 01321
 02564 STA +0 62100 0 02566    02565 TSX +0 07400 4 00015    02566 TXH +3 00000 0 00000
                 PUTK.($.NE.$)                                                      180  LM00196
 02567 TSX +0 07400 4 00015    02570 TXH +3 00000 0 01360
                 PUTK.(KI(A4+1))                                                    181  LM00197
 02571 CLA +0 50000 0 00057    02572 ADD +0 40000 0 01327    02573 SUB +0 40200 0 02574    02574 TXH +3 00000 0 01321
 02575 STA +0 62100 0 02577    02576 TSX +0 07400 4 00015    02577 TXH +3 00000 0 00000
                 O'E                                                                182  LM00198
 02600 TRA +0 02000 0 02603
                   ERRP.(14)                                                        183  LM00199
 02601 TSX +0 07400 4 00003    02602 TXH +3 00000 0 01340
                 E'L                                                                184  LM00200
                 PUTK.($ ,$)                                                        185  LM00201
 02603 TSX +0 07400 4 00015    02604 TXH +3 00000 0 01373
                 A4=A4-2                                                            186  LM00202
 02605 CLA +0 50000 0 00057    02606 SUB +0 40200 0 01330    02607 STO +0 60100 0 00057
                 T'H SS8, FOR A5=A6,1,KI(A4).E.$1C$                                 187  LM00203
 02610 CLA +0 50000 0 00061    02611 STO +0 60100 0 00060    02612 TRA +0 02000 0 02616    02613 CLA +0 50000 0 00060
 02614 ADD +0 40000 0 01327    02615 STO +0 60100 0 00060    02616 LXA +0 53400 1 00057    02617 CLA +0 50000 1 01321
 02620 SUB +0 40200 0 01345    02621 TZE +0 10000 0 02631
                   KI(A4)=KI(A5)                                                    188  LM00204
 02622 LXA +0 53400 2 00060    02623 CLA +0 50000 2 01321    02624 STO +0 60100 1 01321
      SS8        A4=A4+1                                                            189  LM00205
 02625 CLA +0 50000 0 00057    02626 ADD +0 40000 0 01327    02627 STO +0 60100 0 00057    02630 TRA +0 02000 0 02613
                 E'L                                                                190  LM00206
                 T'O SS9                                                            191  LM00207
 02631 TRA +0 02000 0 00053
      RTN        CCT=A1                                                             192  LM00208
 02632 CLA +0 50000 0 00054    02633 STO +0 60100 0 56121
                 FUNCTION RETURN                                                    193  LM00209
 02634 TRA +0 02000 0 02642
                 END OF FUNCTION                                                    194  LM00210
 02635 TSX +0 07400 4 00004    02636 TXH +3 00000 0 00000    02637 SXD -0 63400 1 02636    02640 SXA +0 63400 4 02642
 02641 TRA +0 02000 2 00001    02642 AXT +0 77400 4 00000    02643 LXA +0 53400 2 02636    02644 LXD -0 53400 1 02636
 02645 TRA +0 02000 4 00001
                 INTERNAL FUNCTION                                                  195  LM00211
 02647 TRA +0 02000 0 02700
                 ENTRY TO GETK.                                                     196  LM00215
 02650 TRA +0 02000 0 02653    00013 TTR +0 02100 0 02651    02651 SXA +0 63400 2 02670    02652 TSX +0 07400 2 02670
                   A2=A2+1                                                          197  LM00216
 02653 CLA +0 50000 0 00055    02654 ADD +0 40000 0 01327    02655 STO +0 60100 0 00055
                   W'R KI(A2).E.$1C$, T'O RTN                                       198  LM00217
 02656 LXA +0 53400 1 00055    02657 CLA +0 50000 1 01321    02660 SUB +0 40200 0 01345    02661 TNZ -0 10000 0 02663
 02662 TRA +0 02000 0 00024
                   CH=KI(A2)                                                        199  LM00218
 02663 LXA +0 53400 2 00055    02664 CLA +0 50000 2 01321    02665 STO +0 60100 0 00064
                 FUNCTION RETURN                                                    200  LM00219
 02666 TRA +0 02000 0 02674
                 END OF FUNCTION                                                    201  LM00220
 02667 TSX +0 07400 4 00004    02670 TXH +3 00000 0 00000    02671 SXD -0 63400 1 02670    02672 SXA +0 63400 4 02674
 02673 TRA +0 02000 2 00001    02674 AXT +0 77400 4 00000    02675 LXA +0 53400 2 02670    02676 LXD -0 53400 1 02670
 02677 TRA +0 02000 4 00001
                 INTERNAL FUNCTION (X)                                              202  LM00221
 02700 TRA +0 02000 0 02726
                 ENTRY TO PUTK.                                                     203  LM00225
 02701 TRA +0 02000 0 02704    00015 TTR +0 02100 0 02702    02702 SXA +0 63400 2 02714    02703 TSX +0 07400 2 02714
                   A1=A1+1                                                          204  LM00226
 02704 CLA +0 50000 0 00054    02705 ADD +0 40000 0 01327    02706 STO +0 60100 0 00054
                   I(A1)=X                                                          205  LM00227
 02707 LXA +0 53400 1 00054    02710 CLA +0 50000 0 00024    02711 STO +0 60100 1 61414
                   FUNCTION RETURN                                                  206  LM00228
 02712 TRA +0 02000 0 02722
                 END OF FUNCTION                                                    207  LM00229
 02713 TSX +0 07400 4 00004    02714 TXH +3 00000 0 00000    02715 SXD -0 63400 1 02714    02716 SXA +0 63400 4 02722
 02717 CLA +0 50000 4 00001    02720 STA +0 62100 0 02710    02721 TRA +0 02000 2 00001    02722 AXT +0 77400 4 00000
 02723 LXA +0 53400 2 02714    02724 LXD -0 53400 1 02714    02725 TRA +0 02000 4 00001
                 END OF FUNCTION                                                    208  LM00230
 02726 TSX +0 07400 4 00004    02727 TXH +3 00000 0 00000    02730 SXD -0 63400 1 02727    02731 SXA +0 63400 4 02733
 02732 TRA +0 02000 2 00001    02733 AXT +0 77400 4 00000    02734 LXA +0 53400 2 02727    02735 LXD -0 53400 1 02727
 02736 TRA +0 02000 4 00001
