1     MAD PROGRAM LISTING ... ... ...                 FILE    MTRN   MAD            02/07/68    2126.8
-
                                   MTRN                                                                LM00001
                                                                                                       LM00002
                  EXTERNAL FUNCTION(BUFF)                                                         *001 LM00003
                  INSERT FILE TDFEV                                                               *002 LM00004
                  DEFINE BINARY OPERATOR .EV., PRECEDENCE SAME AS .V.                             *003 LM00001
                  MODE STRUCTURE 1 .EV. 1 TO 1                                                    *004 LM00002
             JMP      *+7,AC,*+1                                                                  *005 LM00003
             JMP      *+1,MQ,*+3                                                                  *006 LM00004
             JMP      *+9,AT,*+1                                                                  *007 LM00005
             JMP      *+10,BT,*+13                                                                *008 LM00006
             JMP      *+1,LA,*+4                                                                  *009 LM00007
             JMP      *+4,AT,*+1                                                                  *010 LM00008
             JMP      *+8,BT,*+12                                                                 *011 LM00009
             STO      T                                                                           *012 LM00010
             CAL      A                                                                           *013 LM00011
             ERA      B                                                                           *014 LM00012
             OUT      LAC                                                                         *015 LM00013
             XCL                                                                                  *016 LM00014
             JMP      *-3                                                                         *017 LM00015
             XCL                                                                                  *018 LM00016
             ERA      A                                                                           *019 LM00017
             OUT      LAC                                                                         *020 LM00018
             STQ      T                                                                           *021 LM00019
             JMP      *-9                                                                         *022 LM00020
             SLW      T                                                                           *023 LM00021
             JMP      *-11                                                                        *024 LM00022
             END                                                                                  *025 LM00023
                  NORMAL MODE IS INTEGER                                                          *026 LM00005
                  ERASABLE DUM(200),N(2000),INTEG(2000),FUNCT(1000),DIM(2000),                    *027 LM00006
                1 I(666),HOL(500),OUT(500),ARRG(50),STNO,NSNO,STACON,CCT,WHOLE,                   *027 LM00007
                2 DUMP,BUMP,LUMP,RUMP,CRUMP,PUMP,FLAG,BOOLFL,SUB,SW3,TS3,PR,                      *027 LM00008
                3 ERR,CSW,NUMBER,MOX,ZZXQ1                                                        *027 LM00009
                  BOOLEAN BOOLFL,CSW,MOX,DUMP,BUMP,LUMP,RUMP,CRUMP,PUMP                           *028 LM00010
                  STATEMENT LABEL SW3,TS3,PR,ZZXQ1                                                *029 LM00011
                  DIMENSION L(666),DSAVE(200),J(84),K(6),TEMP(3)                                  *030 LM00012
                  EQUIVALENCE (S2,S45)                                                            *031 LM00013
                  BOOLEAN BOOL                                                                    *032 LM00014
                                                                                                       LM00015
                    INTERNAL FUNCTIONS FOR PREPARING OUTPUT                                            LM00016
                                                                                                       LM00017
                  INTERNAL FUNCTION                                                               *033 LM00018
                  ENTRY TO PRPSTM.                                                                *034 LM00019
                  STMOUT(0)=STNO                                                                  *035 LM00020
                  SNOP=SNOP.A.777777770000K                                                       *036 LM00021
                  CCARD=CCARD.RS.30                                                               *037 LM00022
                  THROUGH QXPMY,FOR ROB=C1,1,ROB.G.C2                                             *038 LM00023
      QXPMY       L(ROB)=L(ROB).RS.30                                                             *039 LM00024
                  STMOUT(1)=SNOP.V.CCARD.LS.6.V.L(C1)                                             *040 LM00025
                  THROUGH QXPMY1,FOR ROB=C1+1,6,ROB+5.G.C2                                        *041 LM00026
      QXPMY1      STMOUT((ROB-C1)/6+2)=L(ROB).LS.30.V.L(ROB+1).LS.24                              *042 LM00027
                1   .V.L(ROB+2).LS.18.V.L(ROB+3).LS.12.V.L(ROB+4).LS.6.V.L(ROB+                   *042 LM00028
                2   5)                                                                            *042 LM00029
                  ROB=ROB-6                                                                       *043 LM00030
                  CLOB=(ROB-C1)/6+3                                                               *044 LM00031
                  WHENEVER (ROB+6).E.(C1+1),CLOB=CLOB-1                                           *045 LM00032
                  WHENEVER ROB+5.E.C2,TRANSFER TO FILL                                            *046 LM00033
                  SLOB=30                                                                         *047 LM00034
                  STMOUT(CLOB)=0                                                                  *048 LM00035
                  THROUGH QXPMY2,FOR ROB=ROB+6,1,ROB.G.C2                                         *049 LM00036
                  STMOUT(CLOB)=STMOUT(CLOB).V.L(ROB).LS.SLOB                                      *050 LM00037
      QXPMY2      SLOB=SLOB-6                                                                     *051 LM00038
                  THROUGH QXPMY3,FOR SLOB=SLOB,-6,SLOB.L.0                                        *052 LM00039
      QXPMY3      STMOUT(CLOB)=STMOUT(CLOB).V.$00000$.LS.SLOB                                     *053 LM00040
                  CLOB=CLOB+1                                                                     *054 LM00041
      FILL        THROUGH QXPMY4,FOR CLOB=CLOB,1,CLOB.G.11                                        *055 LM00042
      QXPMY4      STMOUT(CLOB)=$ $                                                                *056 LM00043
                  FIXID.                                                                          *057 LM00044
                  FUNCTION RETURN                                                                 *058 LM00045
                  ENTRY TO PAULA.                                                                 *059 LM00046
                  WHENEVER A1.E.62,TRANSFER TO SECONX                                             *060 LM00047
                  THROUGH SHIFT,FOR ROB=1,1,ROB.G.61                                              *061 LM00048
      SHIFT       I(ROB)=I(ROB).RS.30                                                             *062 LM00049
                  STMOUT(0)=$ $                                                                   *063 LM00050
                  STMOUT(1)=$    R0$.V.I(1)                                                       *064 LM00051
                  THROUGH QXPMY5,FOR ROB=2,6,ROB.G.61                                             *065 LM00052
      QXPMY5      STMOUT(ROB/6+2)=(I(ROB).LS.30).V.(I(ROB+1).LS.24).V.                            *066 LM00053
                1    (I(ROB+2).LS.18).V.(I(ROB+3).LS.12).V.                                       *066 LM00054
                2    (I(ROB+4).LS.6).V.(I(ROB+5))                                                 *066 LM00055
      QXPMY7      FIXID.                                                                          *067 LM00056
                  FUNCTION RETURN                                                                 *068 LM00057
      SECONX      STMOUT(0)=$ $                                                                   *069 LM00058
                  THROUGH QXPMY8,FOR ROB=62,1,ROB.G.71                                            *070 LM00059
      QXPMY8      I(ROB)=I(ROB).RS.30                                                             *071 LM00060
                  STMOUT(1)=$    R0$.V.I(62)                                                      *072 LM00061
                  STMOUT(2)=I(63).LS.30.V.I(64).LS.24.V.I(65).LS.18.V.                            *073 LM00062
                1    I(66).LS.12.V.I(67).LS.6.V.I(68)                                             *073 LM00063
                  STMOUT(3)=I(69).LS.30.V.I(70).LS.24.V.I(71).LS.18.V.$000$                       *074 LM00064
                  THROUGH QXPMY9,FOR ROB=4,1,ROB.G.11                                             *075 LM00065
      QXPMY9      STMOUT(ROB)=$ $                                                                 *076 LM00066
                  TRANSFER TO QXPMY7                                                              *077 LM00067
                  END OF FUNCTION                                                                 *078 LM00068
                  INTERNAL FUNCTION                                                               *079 LM00069
                  ENTRY TO FIXID.                                                                 *080 LM00070
                  STMOUT(14)=BNBCD.(CARDNO).LS.6                                                  *081 LM00071
                  STMOUT(12)=ID.V.STMOUT(14).RS.18                                                *082 LM00072
                  STMOUT(13)=STMOUT(14).LS.18.V.$00$                                              *083 LM00073
                  STMOUT(14)=777777777777K                                                        *084 LM00074
                  FUNCTION RETURN                                                                 *085 LM00075
                  END OF FUNCTION                                                                 *086 LM00076
                                                                                                       LM00077
                   MADTRN.                                                                             LM00078
                                                                                                       LM00079
                  ENTRY TO MADTRN.                                                                *087 LM00080
                                                                                                       LM00081
                   COMMAND MADTRN FOR CTSS,NOVEMBER 1965,                                              LM00082
                    R. RAPPAPORT.   INITIALIZE,CHECK MODE OF                                           LM00083
                     PREVIOUS MAD FILE.                                                                LM00084
                                                                                                       LM00085
                  DIMENSION BB(8),STMOUT(14)                                                      *088 LM00086
                  COMARG.(1,FILNAM)                                                               *089 LM00087
                  MADNAM=FILNAM                                                                   *090 LM00088
                  FSTATE.(MADNAM,MADNAM(1),BB(8)...8,QXPM10)                                      *091 LM00089
                  WHENEVER BB(7).L.0                                                              *092 LM00090
                     MSG(4)=$ LINK$                                                               *093 LM00091
                     TRANSFER TO ST2                                                              *094 LM00092
                  OR WHENEVER (BB(7).A.MASK).NE.0                                                 *095 LM00093
                     MSG(4)=BZEL.(OCRBC.(BB(7)))                                                  *096 LM00094
      ST2            MSG(2)=MADNAM                                                                *097 LM00095
                     MSG(3)=MADNAM(1)                                                             *098 LM00096
                     PRNTP.(MSG)                                                                  *099 LM00097
                     RDFLXC.(DUMMY,3)                                                             *100 LM00098
                     WHENEVER DUMMY.NE.$YES$                                                      *101 LM00099
                        CHNCOM.(0)                                                                *102 LM00100
                     OTHERWISE                                                                    *103 LM00101
                        CHFILE.(MADNAM,MADNAM(1),0,-0,-0)                                         *104 LM00102
                     END OF CONDITIONAL                                                           *105 LM00103
                  END OF CONDITIONAL                                                              *106 LM00104
                                                                                                       LM00105
                    SET UP BUFFER SPACE BY EXTENDING MEMORY                                            LM00106
                                                                                                       LM00107
      QXPM10      BF1=GETMEM.(0)+BFL                                                              *107 LM00108
                  BF2=BF1+BFL                                                                     *108 LM00109
                  BF3=BF2+BFL                                                                     *109 LM00110
                  BF4=BF3+BFL                                                                     *110 LM00111
                  BF5=BF4+BFL                                                                     *111 LM00112
                  SMEM.(BF5+1)                                                                    *112 LM00113
                  SEEK.(FILNAM,ZBUF1,ZBUF2)                                                       *113 LM00114
                  DIMENSION ZBUF1(432),ZBUF2(432),ZBUF3(432),ZBUF4(432),ZBUF5(432)                *114 LM00115
                  SETEOF.(S69)                                                                    *115 LM00116
                  SETVBF.(14)                                                                     *116 LM00117
                  ASSIGN.(MADNAM,ZBUF3,ZBUF4,ZBUF5)                                               *117 LM00118
                  VECTOR VALUES MADNAM(1)=$   MAD$                                                *118 LM00119
                  VECTOR VALUES FILNAM(1)=$MADTRN$                                                *119 LM00120
                  VECTOR VALUES BFL=432                                                           *120 LM00121
                  VECTOR VALUES MASK=134K                                                         *121 LM00122
                  VECTOR VALUES MSG=$PREVIOUS$,0,0,0,$MODE,DO YOU WISH TO DELET                   *122 LM00123
                1 E IT,$,377777777777K                                                            *122 LM00124
                  GOOD=0                                                                          *123 LM00125
                  TS3=S3                                                                          *124 LM00126
                  PR=S2                                                                           *125 LM00127
                  DIM=0                                                                           *126 LM00128
                  INCARD=0                                                                        *127 LM00129
                  CARDNO=0                                                                        *128 LM00130
                  FSTCRD=0                                                                        *129 LM00131
                  ZERO.(DUM...DIM(2000))                                                          *130 LM00132
                  HOL=1                                                                           *131 LM00133
                  HOL(1)=900                                                                      *132 LM00134
                  N = 0                                                                           *133 LM00135
                  EXECUTE FINDN.($*$)                                                             *134 LM00136
                  MORE = 0B                                                                       *135 LM00137
                  STACON = $QQ0000$                                                               *136 LM00138
                  ARRG=0                                                                          *137 LM00139
                  SUB=$ $                                                                         *138 LM00140
                  INTEG=0                                                                         *139 LM00141
                  DUMP=0B                                                                         *140 LM00142
                  BUMP=0B                                                                         *141 LM00143
                  LUMP=0B                                                                         *142 LM00144
                  RUMP=0B                                                                         *143 LM00145
                  CRUMP=1B                                                                        *144 LM00146
                  PUMP=0B                                                                         *145 LM00147
                  BOOLFL=0B                                                                       *146 LM00148
                  CSW=1B                                                                          *147 LM00149
                  ARG=0B                                                                          *148 LM00150
                  BOOLEAN ARG,H,CH,MORE,PSET,FORM,OPCHK.                                          *149 LM00151
                  H=0B                                                                            *150 LM00152
                  CH=0B                                                                           *151 LM00153
                  ERR=0                                                                           *152 LM00154
                  LAG=0                                                                           *153 LM00155
                  SW3=S3                                                                          *154 LM00156
                  SNOP = $ $                                                                      *155 LM00157
                  REM=$ $                                                                         *156 LM00158
                  RE=$$                                                                           *157 LM00159
                  ID=$MTR000$                                                                     *158 LM00160
                  FUNCT=0                                                                         *159 LM00161
                  WHOLE=0                                                                         *160 LM00162
                  CHECK=0                                                                         *161 LM00163
                  SETEOF.(S69)                                                                    *162 LM00164
                                                                                                       LM00165
                   INPUT                                                                               LM00166
                                                                                                       LM00167
      S1          WHENEVER CHECK.NE.0.OR.REM.E.1                                                  *163 LM00168
                     INCARD=INCARD+1                                                              *164 LM00169
                  END OF CONDITIONAL                                                              *165 LM00170
                  BREAD.(FILNAM,STMOUT(0)...STMOUT(13))                                           *166 LM00171
                  STMOUT(14)=777777777777K                                                        *167 LM00172
                  THROUGH QXPMY6,FOR ROB=0,1,ROB.G.13                                             *168 LM00173
                  THROUGH QXPMY6,FOR SLOB=1,1,SLOB.G.6                                            *169 LM00174
      QXPMY6      J(6*ROB+SLOB)=(STMOUT(ROB).RS.(6*(6-SLOB))).LS.30.V.$0$                         *170 LM00175
                  VECTOR VALUES IN=$1H  , 80C1*$                                                  *171 LM00176
                  WHENEVER J(1).E.$C$                                                             *172 LM00177
                     REM=1                                                                        *173 LM00178
                  OTHERWISE                                                                       *174 LM00179
                     REM=$$                                                                       *175 LM00180
                  END OF CONDITIONAL                                                              *176 LM00181
                  WHENEVER J(6).NE.$$.AND.J(6).NE.$0$.AND.REM.NE.1                                *177 LM00182
                  WHENEVER MORE, TRANSFER TO S1                                                   *178 LM00183
                  TRANSFER TO S6                                                                  *179 LM00184
                  END OF CONDITIONAL                                                              *180 LM00185
                  A2=0                                                                            *181 LM00186
                  A1=1                                                                            *182 LM00187
                  BOOL=0B                                                                         *183 LM00188
                  WHENEVER J(1).NE.$$.AND.(J(1).G.$9$.OR.J(1).L.$0$)                              *184 LM00189
                  A1=2                                                                            *185 LM00190
                  WHENEVER J(1).E.$B$, BOOL=1B                                                    *186 LM00191
                  END OF CONDITIONAL                                                              *187 LM00192
                  THROUGH S5, FOR A1=A1,1,A1.G.5                                                  *188 LM00193
                  WHENEVER J(A1).NE.$$                                                            *189 LM00194
                  A 2=A2+1                                                                        *190 LM00195
                  K(A2)=J(A1)                                                                     *191 LM00196
                  END OF CONDITIONAL                                                              *192 LM00197
             S5   CONTINUE                                                                        *193 LM00198
                  WHENEVER A2.NE.0.AND.J(1).NE.$C$                                                *194 LM00199
                  NSNO=STACON.V.BNBCD.(FINDN.(COMPZ.(A2,K(1))))                                   *195 LM00200
                  OTHERWISE                                                                       *196 LM00201
                  NSNO=$ $                                                                        *197 LM00202
                  END OF CONDITIONAL                                                              *198 LM00203
      S7          WHENEVER RE.E.1                                                                 *199 LM00204
      S7A         CONTINUE                                                                        *200 LM00205
                     TRANSFER TO ROUT                                                             *201 LM00206
                  END OF CONDITIONAL                                                              *202 LM00207
                  WHENEVER CHECK .E.0, TRANSFER TO S3                                             *203 LM00208
                  I(CCT+1)=0                                                                      *204 LM00209
                  FLAG = $ $                                                                      *205 LM00210
                  WHENEVER COMPZ.(3,I(1)).E.$END$                                                 *206 LM00211
                  WHENEVER CCT.E.3                                                                *207 LM00212
      S9A         LAG=$END$                                                                       *208 LM00213
                  TRANSFER TO S3                                                                  *209 LM00214
                  OR WHENEVER I(4).E.$($                                                          *210 LM00215
                  THROUGH S9, FOR A1=5,1,A1.G.CCT                                                 *211 LM00216
      S9          WHENEVER I(A1).E.$=$, TRANSFER TO S30                                           *212 LM00217
                  TRANSFER TO S9A                                                                 *213 LM00218
                  END OF CONDITIONAL                                                              *214 LM00219
                  END OF CONDITIONAL                                                              *215 LM00220
                  WHENEVER I(1).E.$A$,TRANSFER TO ATEST                                           *216 LM00221
                  WHENEVER I(1).E.$B$,TRANSFER TO BTEST                                           *217 LM00222
                  WHENEVER I(1).E.$C$,TRANSFER TO CTEST                                           *218 LM00223
                  WHENEVER I(1).E.$D$,TRANSFER TO DTEST                                           *219 LM00224
                  WHENEVER I(1).E.$E$,TRANSFER TO ETEST                                           *220 LM00225
                  WHENEVER I(1).E.$F$,TRANSFER TO FTEST                                           *221 LM00226
                  WHENEVER I(1).E.$G$,TRANSFER TO GTEST                                           *222 LM00227
                  WHENEVER I(1).E.$I$,TRANSFER TO ITEST                                           *223 LM00228
                  WHENEVER I(1).E.$P$,TRANSFER TO PTEST                                           *224 LM00229
                  WHENEVER I(1).E.$R$,TRANSFER TO RTEST                                           *225 LM00230
                  WHENEVER I(1).E.$S$,TRANSFER TO STEST                                           *226 LM00231
                  WHENEVER I(1).E.$W$,TRANSFER TO WTEST                                           *227 LM00232
                  TRANSFER TO S30                                                                 *228 LM00233
      ATEST       WHENEVER COMPZ.(5,I(2),I(0)).E.$SSIGN$,TRANSFER TO S22                          *229 LM00234
                  TRANSFER TO S30                                                                 *230 LM00235
      BTEST       WHENEVER COMPZ.(6,I(2),I(0)).E.$ACKSPA$,TRANSFER TO S72                         *231 LM00236
                  TRANSFER TO S30                                                                 *232 LM00237
      CTEST       WHENEVER COMPZ.(6,I(2),I(0)).E.$ONTINU$,TRANSFER TO S2                          *233 LM00238
                  WHENEVER I.E.$ARDIDI$                                                           *234 LM00239
                  WHENEVER CARDNO.G.FSTCRD, TRANSFER TO S1001                                     *235 LM00240
                  EXECUTE COMPZ.(3,I(9),ID)                                                       *236 LM00241
                  CARDNO=BCDBN.(ZCOMPZ.(5,I(12),I))-1                                             *237 LM00242
                  FSTCRD=CARDNO                                                                   *238 LM00243
                  TRANSFER TO S1002                                                               *239 LM00244
                  END OF CONDITIONAL                                                              *240 LM00245
                  WHENEVER COMPZ.(5,I(2),I(0)).E.$OMMON$.AND.I(7).NE.$($,TRANSF                   *241 LM00246
                1 ER TO S70                                                                       *241 LM00247
                  WHENEVER COMPZ.(3,I(2),I(0)).E.$ALL$,TRANSFER TO S23A                           *242 LM00248
                  TRANSFER TO S30                                                                 *243 LM00249
      DTEST       WHENEVER COMPZ.(6,I(2),I(0)).E.$IMENSI$,TRANSFER TO S71                         *244 LM00250
                  WHENEVER I(2).E.$O$,TRANSFER TO S600                                            *245 LM00251
                  TRANSFER TO S30                                                                 *246 LM00252
      ETEST       WHENEVER COMPZ.(6,I(2),I(0)).E.$QUIVAL$,TRANSFER TO S2                          *247 LM00253
                  WHENEVER I(0).E.$NDFILE$,TRANSFER TO S27                                        *248 LM00254
                  TRANSFER TO S30                                                                 *249 LM00255
      FTEST       WHENEVER COMPZ.(6,I(2),I(0)).E.$REQUEN$,TRANSFER TO S3                          *250 LM00256
                  WHENEVER I(0).E.$UNCTIO$ ,TRANSFER TO S23                                       *251 LM00257
                  WHENEVER I(0).E.$ORMAT($,TRANSFER TO S81                                        *252 LM00258
                  TRANSFER TO S30                                                                 *253 LM00259
      GTEST       WHENEVER COMPZ.(3,I(2),I(0)).E.$OTO$,TRANSFER TO S20                            *254 LM00260
      ITEST       WHENEVER I.E.$F(SENS$.OR.I.E.$FACCUM$.OR.I.E.$FQUOTI$.OR.                       *255 LM00261
                1 COMPZ.(6,I(2),I).E.$FDIVID$,TRANSFER TO S29                                     *255 LM00262
                  WHENEVER COMPZ.(2,I(2),I(0)).E.$F($,TRANSFER TO S21                             *256 LM00263
                  TRANSFER TO S30                                                                 *257 LM00264
      PTEST       WHENEVER I.E.$UNCH$.OR.COMPZ.(4,I(2),I(0)).E.$RINT$,TRANSF                      *258 LM00265
                1 ER TO S80                                                                       *258 LM00266
                  WHENEVER I(0).E.$AUSE$,TRANSFER TO S18A                                         *259 LM00267
                  TRANSFER TO S30                                                                 *260 LM00268
      RTEST       WHENEVER COMPZ.(5,I(2),I(0)).E.$ETURN$,TRANSFER TO S24                          *261 LM00269
                  WHENEVER COMPZ.(6,I(2),I(0)).E.$EADTAP$,TRANSFER TO S65                         *262 LM00270
                  WHENEVER I.E. $EADDRU$,TRANSFER TO S64A                                         *263 LM00271
                  WHENEVER I(0).E.$EADINP$,TRANSFER TO S64                                        *264 LM00272
                  WHENEVER COMPZ.(5,I(2),I(0)).E.$EWIND$,TRANSFER TO S73                          *265 LM00273
                  WHENEVERCOMPZ.(3,I(2),I(0)).E.$EAD$,TRANSFER TO S66                             *266 LM00274
                  TRANSFER TO S30                                                                 *267 LM00275
      STEST       WHENEVER COMPZ.(6,I(2),I(0)).E.$ENSELI$,TRANSFER TO S133                        *268 LM00276
                  WHENEVER I(0).E.$UBROUT$,TRANSFER TO S23                                        *269 LM00277
                  WHENEVERI.E.$TATEME$,TRANSFER TO S1000                                          *270 LM00278
                  WHENEVER COMPZ.(3,I(2),I(0)).E.$TOP$,TRANSFER TO S29A                           *271 LM00279
                  TRANSFER TO S30                                                                 *272 LM00280
      WTEST       WHENEVER COMPZ.(6,I(2),I).E.$RITEDR$,TRANSFER TO S64B                           *273 LM00281
                  WHENEVER I(0).E.$RITETA$,TRANSFER TO S63                                        *274 LM00282
                  WHENEVER I(0).E.$RITEOU$,TRANSFER TO S67                                        *275 LM00283
                  TRANSFER TO S30                                                                 *276 LM00284
                                                                                                       LM00285
                   STATEMENT LABEL                                                                     LM00286
                                                                                                       LM00287
      S1000       WHENEVER CARDNO.G.FSTCRD                                                        *277 LM00288
      S1001       ERRO=5                                                                          *278 LM00289
                  TRANSFER TO S60                                                                 *279 LM00290
                  END OF CONDITIONAL                                                              *280 LM00291
                  STACON=ZCOMPZ.(2,I(17)).LS.24                                                   *281 LM00292
      S1002       WHENEVER STNO.NE.$$                                                             *282 LM00293
                  N=N-1                                                                           *283 LM00294
                  END OF CONDITIONAL                                                              *284 LM00295
                                                                                                       LM00296
                   HOLLERITH SUBROUTINE ARGUMENTS                                                      LM00297
                                                                                                       LM00298
      S3          WHENEVER HOL.NE.1                                                               *285 LM00299
                  ARG=1B                                                                          *286 LM00300
                  WHOLE =1                                                                        *287 LM00301
                  CT=1                                                                            *288 LM00302
                  DSAVE=0                                                                         *289 LM00303
                  STNO =$ $                                                                       *290 LM00304
      S3Y         I(4)=STACON.V.BNBCD.(HOL(CT+1)-1)                                               *291 LM00305
                  I(1)=$VECTOR$                                                                   *292 LM00306
                  I(2)=$ VALUE$                                                                   *293 LM00307
                  I(3)=$S$                                                                        *294 LM00308
                  I(5)=$=77777$                                                                   *295 LM00309
                  I(6)=$777777$                                                                   *296 LM00310
                  I(7)=074260736053K                                                              *297 LM00311
                  CCT=HOL(CT)+8                                                                   *298 LM00312
                  I(CCT)=536060606060K                                                            *299 LM00313
                  THROUGH S3X, FOR A1=1,1,A1.G.HOL(CT)                                            *300 LM00314
      S3X         I(A1+7)=HOL(CT+A1+1)                                                            *301 LM00315
                  SW3=S88A                                                                        *302 LM00316
                  TRANSFER TO S2                                                                  *303 LM00317
      S88A        SW3=S88                                                                         *304 LM00318
                  I(1)=$EQUIVA$                                                                   *305 LM00319
                  I(2)=$LENCE$                                                                    *306 LM00320
                  I(3)=$     ($                                                                   *307 LM00321
                  I(5)=$  ,$                                                                      *308 LM00322
                  I(6)=STACON.V.BNBCD.(HOL(CT+1))                                                 *309 LM00323
                  I(7)=$)$                                                                        *310 LM00324
                  DSAVE=DSAVE+3                                                                   *311 LM00325
                  DSAVE(DSAVE-2)=I(6)                                                             *312 LM00326
                  DSAVE(DSAVE-1)=$(0000*$.EV.LZR.(BNBCD.(HOL(CT))).RS.6                           *313 LM00327
                  DSAVE(DSAVE)=$,$                                                                *314 LM00328
                  CCT=7                                                                           *315 LM00329
                  CT=CT+HOL(CT) +2                                                                *316 LM00330
                  TRANSFER TO S2                                                                  *317 LM00331
      S88         WHENEVER HOL(CT).NE.900,TRANSFER TO S3Y                                         *318 LM00332
                  HOL=1                                                                           *319 LM00333
                  HOL(1)=900                                                                      *320 LM00334
                  ARG=0B                                                                          *321 LM00335
                  CCT=DSAVE+1                                                                     *322 LM00336
                  THROUGH S88B, FOR I=1,1,I.E.DSAVE                                               *323 LM00337
      S88B        I(I+2)=DSAVE(I)                                                                 *324 LM00338
                  I(1)=$DIMENS$                                                                   *325 LM00339
                  I(2)=$ION$                                                                      *326 LM00340
                  SW3=S3Z                                                                         *327 LM00341
                  TRANSFER TO S2                                                                  *328 LM00342
      S3Z         CONTINUE                                                                        *329 LM00343
                  END OF CONDITIONAL                                                              *330 LM00344
                  STNO=NSNO                                                                       *331 LM00345
                  BOOLFL=BOOL                                                                     *332 LM00346
                  WHENEVER LAG.E.$EOF$.OR.LAG.E.$END$,TRANSFER TO S17C                            *333 LM00347
                  SW3=S3                                                                          *334 LM00348
                  WHOLE =0                                                                        *335 LM00349
                  OUT(1)=700                                                                      *336 LM00350
                  MORE = 0B                                                                       *337 LM00351
                  RE=REM                                                                          *338 LM00352
                  WHENEVER RE.E.1                                                                 *339 LM00353
                  FLAG=$REM$                                                                      *340 LM00354
      REM1        THROUGH REM1, FOR A2=2,1,J(A2).NE.$$                                            *341 LM00355
                  A2=A2-1                                                                         *342 LM00356
                  THROUGH SPEC, FOR A1=A2+1,1,A1.G.71                                             *343 LM00357
      SPEC        I(A1-A2)=J(A1)                                                                  *344 LM00358
                  THROUGH REM2, FOR A1=A1-A2,1,A1.G.71                                            *345 LM00359
      REM2        I(A1)=$$                                                                        *346 LM00360
                  CCT=71                                                                          *347 LM00361
                  OUT(1)=700                                                                      *348 LM00362
                  WHENEVER CHECK .E.0                                                             *349 LM00363
                  RE=0                                                                            *350 LM00364
                  SW3=S1                                                                          *351 LM00365
                  TRANSFER TO S7A                                                                 *352 LM00366
                  END OF CONDITIONAL                                                              *353 LM00367
                  TRANSFER TO S1                                                                  *354 LM00368
                  END OF CONDITIONAL                                                              *355 LM00369
                  CHECK=1                                                                         *356 LM00370
                  FLAG =$ $                                                                       *357 LM00371
                  CCT =0                                                                          *358 LM00372
                  I=0                                                                             *359 LM00373
                  H=0B                                                                            *360 LM00374
                  CH=0B                                                                           *361 LM00375
                  TEST=0                                                                          *362 LM00376
                  HOLSET=1                                                                        *363 LM00377
                                                                                                       LM00378
                   COMPLETE STATEMENT IN I VECTOR                                                      LM00379
                                                                                                       LM00380
      S6          THROUGH S3A , FOR A2=7,1,A2.G.72                                                *364 LM00381
                  WHENEVER H.OR.CH, TRANSFER TO S3DF                                              *365 LM00382
                  WHENEVER J(A2).NE.$$                                                            *366 LM00383
                     WHENEVER J(A2).E.$H$                                                         *367 LM00384
                        WHENEVER I(CCT).GE.$0$.AND.I(CCT).LE.$9$                                  *368 LM00385
      S3DD                 THROUGH S3DD, FOR A3=CCT,-1,(I(A3).L.$0$.OR.I(A3).G.                   *369 LM00386
                1          $9$).AND.I(A3).NE.$$.OR.A3.L.HOLSET                                    *369 LM00387
                           TEST=BCDBN.(ZCOMPZ.(CCT-A3,I(A3+1)))+A2                                *370 LM00388
                        OR WHENEVER I(CCT).E.$$                                                   *371 LM00389
      S3DC                 THROUGH S3DC, FOR A3=CCT,-1,I(A3).NE.$$.OR.A3.L.HOLS                   *372 LM00390
                1          ET                                                                     *372 LM00391
                           WHENEVER A3.L.HOLSET.OR.I(A3).L.$0$.OR.I(A3).G.$9$,                    *373 LM00392
                1          TRANSFER TO S3DA                                                       *373 LM00393
                           TRANSFER TO S3DD                                                       *374 LM00394
                        OTHERWISE                                                                 *375 LM00395
      S3DA                 WHENEVER CCT.G.7.AND.I(1).E.$F$.AND.COMPZ.(6,I(2)).E                   *376 LM00396
                1          .$ORMAT($                                                              *376 LM00397
                              HCHAR=J(A2+1)                                                       *377 LM00398
      S3DB                    THROUGH S3DB, FOR A3=A2+2,1,J(A3).E.HCHAR.OR.A3.G                   *378 LM00399
                1             .72                                                                 *378 LM00400
                              TEST=A3                                                             *379 LM00401
                              WHENEVER A3.G.72, CH=1B                                             *380 LM00402
                           OTHERWISE                                                              *381 LM00403
                              TRANSFER TO S3C                                                     *382 LM00404
                           END OF CONDITIONAL                                                     *383 LM00405
                        END OF CONDITIONAL                                                        *384 LM00406
      S3DF              THROUGH S3DE, FOR A3=A2,1,A3.G.TEST.OR.A3.G.72.OR.(J(A3                   *385 LM00407
                1       ).E.HCHAR.AND.CH)                                                         *385 LM00408
                        CCT=CCT+1                                                                 *386 LM00409
                        WHENEVER CCT.G.660, TRANSFER TO S3B                                       *387 LM00410
      S3DE              I(CCT)=J(A3)                                                              *388 LM00411
                        A2=A3-1                                                                   *389 LM00412
                        WHENEVER CH                                                               *390 LM00413
                           WHENEVER A3.G.72, TRANSFER TO S3A                                      *391 LM00414
                           WHENEVER J(A3).E.HCHAR                                                 *392 LM00415
                              CH=0B                                                               *393 LM00416
                              A2=A3                                                               *394 LM00417
                              HOLSET=CCT+2                                                        *395 LM00418
                           END OF CONDITIONAL                                                     *396 LM00419
                           TRANSFER TO S3C                                                        *397 LM00420
                        OR WHENEVER A3.LE.TEST                                                    *398 LM00421
                           H=1B                                                                   *399 LM00422
                           TEST=TEST-66                                                           *400 LM00423
                           TRANSFER TO S3A                                                        *401 LM00424
                        END OF CONDITIONAL                                                        *402 LM00425
                        H=0B                                                                      *403 LM00426
                        HOLSET=CCT+1                                                              *404 LM00427
                        TRANSFER TO S3A                                                           *405 LM00428
                     END OF CONDITIONAL                                                           *406 LM00429
      S3C            CCT=CCT+1                                                                    *407 LM00430
                     WHENEVER CCT.G.660                                                           *408 LM00431
      S3B               ERRO=2                                                                    *409 LM00432
                        MORE=1B                                                                   *410 LM00433
                        TRANSFER TO S60                                                           *411 LM00434
                     END OF CONDITIONAL                                                           *412 LM00435
                     I(CCT)=J(A2)                                                                 *413 LM00436
      S3A         END OF CONDITIONAL                                                              *414 LM00437
                  TRANSFER TO S1                                                                  *415 LM00438
                                                                                                       LM00439
                   GO TO                                                                               LM00440
                                                                                                       LM00441
      S20         WHENEVER I(5).NE.$($,TRANSFER TO S37                                            *416 LM00442
      S40         THROUGH S40, FOR A1=CCT,-1,OPCHK.(I(A1))                                        *417 LM00443
                  WHENEVER I(A1).NE.$,$,TRANSFER TO S30                                           *418 LM00444
                  I(3)=STACON.V.BNBCD.(FINDN.($*$))                                               *419 LM00445
                  I(4)=$($                                                                        *420 LM00446
                  EXECUTE COMPZ.(CCT-A1,I(A1+1),I(5))                                             *421 LM00447
                  EXECUTE FINDIN.(I(5))                                                           *422 LM00448
                  CCT=6                                                                           *423 LM00449
                  SW2=6                                                                           *424 LM00450
                  A3=1                                                                            *425 LM00451
      S38         THROUGH S38, FOR A2=SW2,1,I(A2).E.$,$.OR.I(A2).E.$)$                            *426 LM00452
                  HOL(A3)=STACON.V.BNBCD.(FINDN.(COMPZ.(A2-SW2,I(SW2))))                          *427 LM00453
                  WHENEVER I(A2).E.$,$                                                            *428 LM00454
                  A3=A3+1                                                                         *429 LM00455
                  SW2=A2+1                                                                        *430 LM00456
                  TRANSFER TO S38                                                                 *431 LM00457
                  END OF CONDITIONAL                                                              *432 LM00458
                  I(6)=$)$                                                                        *433 LM00459
                  SW3=S43                                                                         *434 LM00460
                  TRANSFER TO S40A                                                                *435 LM00461
      S43         STNO=I(3)                                                                       *436 LM00462
                  CCT=3                                                                           *437 LM00463
                  THROUGH S39, FOR A2=1,1,A2.G.A3                                                 *438 LM00464
                  I(3)=HOL(A2)                                                                    *439 LM00465
                  SNOP=$(00)$.V.BNBCD.(A2).LS.18                                                  *440 LM00466
                  SW3=S39                                                                         *441 LM00467
                  TRANSFER TO S2                                                                  *442 LM00468
      S39         CONTINUE                                                                        *443 LM00469
                  SNOP =$ $                                                                       *444 LM00470
                  TRANSFER TO S3                                                                  *445 LM00471
      S37         THROUGH S37, FOR A1=4,1,OPCHK.(I(A1)).OR.A1.G.CCT                               *446 LM00472
                  WHENEVER I(A1).NE.$,$.AND.A1.L.CCT,TRANSFER TO S30                              *447 LM00473
                  WHENEVER A1 .G. CCT                                                             *448 LM00474
                  I(3)=STACON.V.BNBCD.(FINDN.(COMPZ.(A1-5,I(5))))                                 *449 LM00475
                  OTHERWISE                                                                       *450 LM00476
                  EXECUTE COMPZ.(A1-5,I(5),I(3))                                                  *451 LM00477
                  END OF CONDITIONAL                                                              *452 LM00478
                  CCT=3                                                                           *453 LM00479
      S40A        I(1)=$TRANSF$                                                                   *454 LM00480
                  I(2)=$ER TO$                                                                    *455 LM00481
                  WHOLE =1                                                                        *456 LM00482
                  TRANSFER TO S2                                                                  *457 LM00483
                                                                                                       LM00484
                   PAUSE                                                                               LM00485
                                                                                                       LM00486
          S18A    WHENEVER(I(6).LE.$9$.AND.I(6).GE.$0$).AND.(CCT.LE.6.OR.I(7)                     *458 LM00487
                1 .LE.$9$.AND.I(7).GE.$0$),TRANSFER TO S118X                                      *458 LM00488
                  WHENEVER CCT.E.5                                                                *459 LM00489
                     CCT=6                                                                        *460 LM00490
                     I(6)=$0$                                                                     *461 LM00491
                     TRANSFER TO S118X                                                            *462 LM00492
                  END OF CONDITIONAL                                                              *463 LM00493
                  TRANSFER TO S30                                                                 *464 LM00494
      S118X       I(1)=$PAUSE$                                                                    *465 LM00495
                  I(2)=$NO.$                                                                      *466 LM00496
                  OUT(1)=1                                                                        *467 LM00497
                  OUT(2)=2                                                                        *468 LM00498
                  OUT(3)=-3                                                                       *469 LM00499
                  OUT(4)=-4                                                                       *470 LM00500
                  OUT(5)=-5                                                                       *471 LM00501
                  OUT(6)=700                                                                      *472 LM00502
                  TRANSFER TO S2                                                                  *473 LM00503
                                                                                                       LM00504
                   STOP                                                                                LM00505
                                                                                                       LM00506
      S29A        THROUGH S29A,FOR A1=5,1,A1.G.CCT.OR.OPCHK.(I(A1))                               *474 LM00507
                  WHENEVER A1.LE.CCT,TRANSFER TO S30                                              *475 LM00508
                  I(1)=$TRANSF$                                                                   *476 LM00509
                  I(2)=$ER TO $                                                                   *477 LM00510
                  I(3)=STACON.V.$000001$                                                          *478 LM00511
                  CCT=3                                                                           *479 LM00512
                  WHOLE =1                                                                        *480 LM00513
                  TRANSFER TO S2                                                                  *481 LM00514
                                                                                                       LM00515
                   TRANSFER VECTOR                                                                     LM00516
                                                                                                       LM00517
      S22         FLAG=2                                                                          *482 LM00518
                  EXECUTE MADTR2.                                                                 *483 LM00519
      S23         FLAG=4                                                                          *484 LM00520
                  EXECUTE MADTR2.                                                                 *485 LM00521
      S21         FLAG=5                                                                          *486 LM00522
                  EXECUTE MADTR2.                                                                 *487 LM00523
      S80         FLAG=6                                                                          *488 LM00524
                  EXECUTE IOP.                                                                    *489 LM00525
      S24         FLAG=7                                                                          *490 LM00526
                  EXECUTE MADTR2.                                                                 *491 LM00527
      S65         FLAG=8                                                                          *492 LM00528
                  EXECUTE IOP.                                                                    *493 LM00529
      S64         FLAG=9                                                                          *494 LM00530
                  EXECUTE IOP.                                                                    *495 LM00531
      S64A        FLAG=10                                                                         *496 LM00532
                  EXECUTE IOP.                                                                    *497 LM00533
      S66         FLAG=11                                                                         *498 LM00534
                  EXECUTE IOP.                                                                    *499 LM00535
      S64B        FLAG=12                                                                         *500 LM00536
                  EXECUTE IOP.                                                                    *501 LM00537
      S63         FLAG=14                                                                         *502 LM00538
                  EXECUTE IOP.                                                                    *503 LM00539
      S67         FLAG = 15                                                                       *504 LM00540
                  EXECUTE IOP.                                                                    *505 LM00541
      S23A        FLAG = 16                                                                       *506 LM00542
                  EXECUTE MADTR2.                                                                 *507 LM00543
      S133        FLAG = 17                                                                       *508 LM00544
                  EXECUTE MADTR2.                                                                 *509 LM00545
      S29         FLAG = 18                                                                       *510 LM00546
                  EXECUTE MADTR2.                                                                 *511 LM00547
      S600        FLAG=19                                                                         *512 LM00548
                  EXECUTE MADTR2.                                                                 *513 LM00549
      S27         FLAG=1                                                                          *514 LM00550
                  EXECUTE MADTR2.                                                                 *515 LM00551
      S70         FLAG =15                                                                        *516 LM00552
                  EXECUTE MADTR2.                                                                 *517 LM00553
      S72         FLAG = 11                                                                       *518 LM00554
                  EXECUTE MADTR2.                                                                 *519 LM00555
      S73         FLAG=8                                                                          *520 LM00556
                  EXECUTE MADTR2.                                                                 *521 LM00557
      S71         FLAG=9                                                                          *522 LM00558
                  EXECUTE MADTR2.                                                                 *523 LM00559
      S81         FLAG=10                                                                         *524 LM00560
                  EXECUTE MADTR2.                                                                 *525 LM00561
                                                                                                       LM00562
                   OUTPUT                                                                              LM00563
                                                                                                       LM00564
      S2          CONTINUE                                                                        *526 LM00565
                  WHENEVER CCT.E.0,TRANSFER TO SW3                                                *527 LM00566
                                                                                                       LM00567
                   UNPACK AND COMPRESS                                                                 LM00568
                                                                                                       LM00569
                  K=6                                                                             *528 LM00570
                  C1=0                                                                            *529 LM00571
                  C2=1                                                                            *530 LM00572
                  L=0                                                                             *531 LM00573
                  HSET=0                                                                          *532 LM00574
                  DSET=0                                                                          *533 LM00575
      S201        WHENEVER K.L.6, TRANSFER TO S206                                                *534 LM00576
      S202        C1=C1+1                                                                         *535 LM00577
                  WHENEVER C1.G.CCT, TRANSFER TO S212                                             *536 LM00578
                  WHENEVER WHOLE.E.1, TRANSFER TO S205                                            *537 LM00579
                  THROUGH S203, FOR C2=C2,1,C2.G.500                                              *538 LM00580
                  OUT=.ABS.OUT(C2)                                                                *539 LM00581
                  WHENEVER OUT.E.700.OR.OUT.G.C1, TRANSFER TO S204                                *540 LM00582
                  WHENEVER OUT.E.C1                                                               *541 LM00583
                  WHENEVER OUT(C2).L.0, TRANSFER TO S202                                          *542 LM00584
                  TRANSFER TO S205                                                                *543 LM00585
      S203        END OF CONDITIONAL                                                              *544 LM00586
      S204        C=I(C1)                                                                         *545 LM00587
                  TRANSFER TO S207                                                                *546 LM00588
      S205        DCOMPZ.(1,I(C1),K(1))                                                           *547 LM00589
                  K=0                                                                             *548 LM00590
      S206        K=K+1                                                                           *549 LM00591
                  C=K(K)                                                                          *550 LM00592
      S207        WHENEVER C.E.536060606060K                                                      *551 LM00593
                  DSET=1-DSET                                                                     *552 LM00594
                  OR WHENEVER DSET.E.1.AND..NOT.ARG                                               *553 LM00595
                  WHENEVER C.E.$H$                                                                *554 LM00596
      S208        THROUGH S208, FOR C3=L,-1,C3.L.HSET.OR.L(C3).G.$9$.OR.                          *555 LM00597
                1 L(C3).L.$0$                                                                     *555 LM00598
                  WHENEVER C3.E.L                                                                 *556 LM00599
                  C5=I(C1+1)                                                                      *557 LM00600
      S209        THROUGH S209, FOR C4=C1+2,1,I(C4).E.C5                                          *558 LM00601
                  OTHERWISE                                                                       *559 LM00602
                  C4=C1+BCDBN.(ZCOMPZ.(L-C3,L(C3+1)))                                             *560 LM00603
                  END OF CONDITIONAL                                                              *561 LM00604
                  THROUGH S210, FOR C1=C1,1,C1.G.C4                                               *562 LM00605
                  L=L+1                                                                           *563 LM00606
                  WHENEVER L.G.610, TRANSFER TO S211                                              *564 LM00607
      S210        L(L)=I(C1)                                                                      *565 LM00608
                  HSET=L+1                                                                        *566 LM00609
                  C1=C1-1                                                                         *567 LM00610
                  K=6                                                                             *568 LM00611
                  TRANSFER TO S201                                                                *569 LM00612
                  OR WHENEVER C.E.$$                                                              *570 LM00613
                  TRANSFER TO S201                                                                *571 LM00614
                  END OF CONDITIONAL                                                              *572 LM00615
                  OR WHENEVER C.E.$$.AND.DSET.E.0                                                 *573 LM00616
                  TRANSFER TO S201                                                                *574 LM00617
                  END OF CONDITIONAL                                                              *575 LM00618
                  L=L+1                                                                           *576 LM00619
                  WHENEVER L.G.610                                                                *577 LM00620
      S211        ERRP.(25)                                                                       *578 LM00621
                  END OF CONDITIONAL                                                              *579 LM00622
                  L(L)=C                                                                          *580 LM00623
                  TRANSFER TO S201                                                                *581 LM00624
                                                                                                       LM00625
                   INSERT BLANKS FOR READABILITY                                                       LM00626
                                                                                                       LM00627
      S212        C3=0                                                                            *582 LM00628
      S213        WHENEVER L.G.C3+6                                                               *583 LM00629
                  C1=COMPZ.(6,L(C3+1))                                                            *584 LM00630
                  C2=L(C3+7)                                                                      *585 LM00631
                  WHENEVER E.($WHENEV$,$E$)                                                       *586 LM00632
                  S.(9)                                                                           *587 LM00633
                  DSET=0                                                                          *588 LM00634
                  LEV=0                                                                           *589 LM00635
                  THROUGH S214, FOR C4=10,1,C4.G.L                                                *590 LM00636
                  WHENEVER L(C4).E.536060606060K                                                  *591 LM00637
                  DSET=1-DSET                                                                     *592 LM00638
                  OR WHENEVER DSET.E.0                                                            *593 LM00639
                  WHENEVER L(C4).E.$($                                                            *594 LM00640
                  LEV=LEV+1                                                                       *595 LM00641
                  OR WHENEVER L(C4).E.$)$                                                         *596 LM00642
                  LEV=LEV-1                                                                       *597 LM00643
                  OR WHENEVER LEV.E.0                                                             *598 LM00644
                  WHENEVER L(C4).E.$,$                                                            *599 LM00645
                  C3=C4+1                                                                         *600 LM00646
                  S.(0)                                                                           *601 LM00647
                  TRANSFER TO S213                                                                *602 LM00648
                  END OF CONDITIONAL                                                              *603 LM00649
                  END OF CONDITIONAL                                                              *604 LM00650
      S214        END OF CONDITIONAL                                                              *605 LM00651
                  OR WHENEVER E.($THROUG$,$H$)                                                    *606 LM00652
                  S.(8)                                                                           *607 LM00653
                  S.(16)                                                                          *608 LM00654
                  S.(20)                                                                          *609 LM00655
                  OR WHENEVER E.($TRANSF$,$E$)                                                    *610 LM00656
                  S.(9)                                                                           *611 LM00657
                  S.(12)                                                                          *612 LM00658
                  OR WHENEVER E.($EXECUT$,$E$)                                                    *613 LM00659
                  S.(8)                                                                           *614 LM00660
                  OR WHENEVER E.($PAUSEN$,$O$)                                                    *615 LM00661
                  S.(6)                                                                           *616 LM00662
                  S.(10)                                                                          *617 LM00663
                  OR WHENEVER E.($PROGRA$,$M$)                                                    *618 LM00664
                  S.(8)                                                                           *619 LM00665
                  S.(15)                                                                          *620 LM00666
                  OR WHENEVER E.($DIMENS$,$I$)                                                    *621 LM00667
                  WHENEVER L(L).E.$,$,L=L-1                                                       *622 LM00668
                  S.(10)                                                                          *623 LM00669
                  OR WHENEVER E.($INTEGE$,$R$)                                                    *624 LM00670
                  S.(8)                                                                           *625 LM00671
                  OR WHENEVER E.($STATEM$,$E$)                                                    *626 LM00672
                  S.(10)                                                                          *627 LM00673
                  S.(16)                                                                          *628 LM00674
                  OR WHENEVER E.($EQUIVA$,$L$)                                                    *629 LM00675
                  S.(12)                                                                          *630 LM00676
                  OR WHENEVER E.($VECTOR$,$V$)                                                    *631 LM00677
                  S.(7)                                                                           *632 LM00678
                  S.(14)                                                                          *633 LM00679
                  OR WHENEVER E.($EXTERN$,$A$)                                                    *634 LM00680
                  S.(9)                                                                           *635 LM00681
                  S.(18)                                                                          *636 LM00682
                  OR WHENEVER E.($INTERN$,$A$)                                                    *637 LM00683
                  S.(9)                                                                           *638 LM00684
                  S.(18)                                                                          *639 LM00685
                  OR WHENEVER E.($ENTRYT$,$O$)                                                    *640 LM00686
                  S.(6)                                                                           *641 LM00687
                  S.(9)                                                                           *642 LM00688
                  OR WHENEVER E.($FUNCTI$,$O$)                                                    *643 LM00689
                  S.(9)                                                                           *644 LM00690
                  S.(16)                                                                          *645 LM00691
                  OR WHENEVER E.($ENDOFF$,$U$)                                                    *646 LM00692
                  S.(4)                                                                           *647 LM00693
                  S.(7)                                                                           *648 LM00694
                  OR WHENEVER E.($ENDOFP$,$R$)                                                    *649 LM00695
                  S.(4)                                                                           *650 LM00696
                  S.(7)                                                                           *651 LM00697
                  OR WHENEVER E.($READFO$,$R$)                                                    *652 LM00698
                  S.(5)                                                                           *653 LM00699
                  S.(12)                                                                          *654 LM00700
                  OR WHENEVER E.($PUNCHF$,$O$)                                                    *655 LM00701
                  S.(6)                                                                           *656 LM00702
                  S.(13)                                                                          *657 LM00703
                  OR WHENEVER E.($PRINTF$,$O$)                                                    *658 LM00704
                  S.(6)                                                                           *659 LM00705
                  S.(13)                                                                          *660 LM00706
                  OR WHENEVER E.($PRINTO$,$N$)                                                    *661 LM00707
                  S.(6)                                                                           *662 LM00708
                  S.(13)                                                                          *663 LM00709
                  S.(20)                                                                          *664 LM00710
                  OR WHENEVER E.($READDR$,$U$)                                                    *665 LM00711
                  S.(5)                                                                           *666 LM00712
                  S.(10)                                                                          *667 LM00713
                  OR WHENEVER E.($WRITED$,$R$)                                                    *668 LM00714
                  S.(6)                                                                           *669 LM00715
                  S.(11)                                                                          *670 LM00716
                  OR WHENEVER E.($READBI$,$N$)                                                    *671 LM00717
                  S.(5)                                                                           *672 LM00718
                  S.(12)                                                                          *673 LM00719
                  S.(17)                                                                          *674 LM00720
                  OR WHENEVER E.($WRITEB$,$I$)                                                    *675 LM00721
                  S.(6)                                                                           *676 LM00722
                  S.(13)                                                                          *677 LM00723
                  S.(18)                                                                          *678 LM00724
                  OR WHENEVER E.($READBC$,$D$)                                                    *679 LM00725
                  S.(5)                                                                           *680 LM00726
                  S.(9)                                                                           *681 LM00727
                  S.(14)                                                                          *682 LM00728
                  OR WHENEVER E.($WRITEB$,$C$)                                                    *683 LM00729
                  S.(6)                                                                           *684 LM00730
                  S.(10)                                                                          *685 LM00731
                  S.(15)                                                                          *686 LM00732
                  OR WHENEVER E.($BACKSP$,$A$)                                                    *687 LM00733
                  S.(10)                                                                          *688 LM00734
                  S.(17)                                                                          *689 LM00735
                  S.(20)                                                                          *690 LM00736
                  S.(25)                                                                          *691 LM00737
                  OR WHENEVER E.($ENDOFF$,$I$)                                                    *692 LM00738
                  S.(4)                                                                           *693 LM00739
                  S.(7)                                                                           *694 LM00740
                  S.(12)                                                                          *695 LM00741
                  S.(17)                                                                          *696 LM00742
                  OR WHENEVER E.($REWIND$,$T$)                                                    *697 LM00743
                  S.(7)                                                                           *698 LM00744
                  S.(12)                                                                          *699 LM00745
                  OR WHENEVER E.($MODEST$,$R$)                                                    *700 LM00746
                  S.(5)                                                                           *701 LM00747
                  S.(15)                                                                          *702 LM00748
      S215        THROUGH S215, FOR C3=16,1,L(C3).E.$,$                                           *703 LM00749
                  S.(1)                                                                           *704 LM00750
                  S.(6)                                                                           *705 LM00751
                  S.(15)                                                                          *706 LM00752
                  S.(18)                                                                          *707 LM00753
                  END OF CONDITIONAL                                                              *708 LM00754
                  END OF CONDITIONAL                                                              *709 LM00755
                                                                                                       LM00756
                   E.                                                                                  LM00757
                                                                                                       LM00758
                  INTERNAL FUNCTION E.(E1,E2)=C1.E.E1.AND.C2.E.E2                                 *710 LM00759
                  BOOLEAN E.                                                                      *711 LM00760
                  INTERNAL FUNCTION (E3)                                                          *712 LM00761
                                                                                                       LM00762
                   S.                                                                                  LM00763
                                                                                                       LM00764
                  ENTRY TO S.                                                                     *713 LM00765
                  L=L+1                                                                           *714 LM00766
                  WHENEVER L.G.610, TRANSFER TO S2AA                                              *715 LM00767
                  C5=C3+E3                                                                        *716 LM00768
                  THROUGH SPACE, FOR C4=L,-1,C4.E.C5                                              *717 LM00769
      SPACE       L(C4)=L(C4-1)                                                                   *718 LM00770
                  L(C4)=$$                                                                        *719 LM00771
                  FUNCTION RETURN                                                                 *720 LM00772
                  END OF FUNCTION                                                                 *721 LM00773
                                                                                                       LM00774
                   PRODUCE OUTPUT                                                                      LM00775
                                                                                                       LM00776
      S2AA        CCARD=$$                                                                        *722 LM00777
                  C1=1                                                                            *723 LM00778
      S2A         C2=C1+60                                                                        *724 LM00779
                  WHENEVER C2.G.L, C2=L                                                           *725 LM00780
                  OUTFMT(3)=BNBCD.(C2-C1+1)                                                       *726 LM00781
                  OUTFMT(5)=BNBCD.(60+C1-C2)                                                      *727 LM00782
                  CARDNO=CARDNO+1                                                                 *728 LM00783
                  WHENEVER CSW                                                                    *729 LM00784
                  PRPSTM.                                                                         *730 LM00785
                  XXWC=FWRITE.(MADNAM,STMOUT(0)...STMOUT(13))                                     *731 LM00786
                  END OF CONDITIONAL                                                              *732 LM00787
                  WHENEVER CRUMP                                                                  *733 LM00788
                  END OF CONDITIONAL                                                              *734 LM00789
                  VECTOR VALUES OUTFMT=$1H  , C6,C4,C1,         C1,S        ,C3                   *735 LM00790
                1 ,C5*$                                                                           *735 LM00791
                  WHENEVER C2.E.L,TRANSFER TO SW3                                                 *736 LM00792
                  STNO=$$                                                                         *737 LM00793
                  SNOP=$$                                                                         *738 LM00794
                  WHENEVER CCARD.E.$$                                                             *739 LM00795
                  CCARD=$1$                                                                       *740 LM00796
                  OTHERWISE                                                                       *741 LM00797
                  CCARD=CCARD+$100000$                                                            *742 LM00798
                  END OF CONDITIONAL                                                              *743 LM00799
                  C1=C2+1                                                                         *744 LM00800
                  TRANSFER TO S2A                                                                 *745 LM00801
                                                                                                       LM00802
                   EOF OR END                                                                          LM00803
                                                                                                       LM00804
      S17C        WHENEVER LAG.E.$EOF$                                                            *746 LM00805
                  TS3=S17                                                                         *747 LM00806
                  ERRP.(20)                                                                       *748 LM00807
      S17         TS3=S3                                                                          *749 LM00808
                  END OF CONDITIONAL                                                              *750 LM00809
                  LAG=0                                                                           *751 LM00810
                  STNO=$$                                                                         *752 LM00811
                  WHENEVER INTEG.E.0,TRANSFER TO S119                                             *753 LM00812
                  I(1)=$INTEGE$                                                                   *754 LM00813
                  I(2)=$R$                                                                        *755 LM00814
                  WHOLE=1                                                                         *756 LM00815
                  THROUGH S114, FOR A6=1,6,A6.G.INTEG                                             *757 LM00816
                  A3=2                                                                            *758 LM00817
                  THROUGH S114B, FOR A2=A6,1,A2.G.A6+5.OR.A2.G.INTEG                              *759 LM00818
                  I(A3+1)=INTEG(A2)                                                               *760 LM00819
                  A3=A3+2                                                                         *761 LM00820
      S114A       THROUGH S114A, FOR A4=1,1,A4.G.FUNCT.OR.FUNCT(A4).E.INTEG(A2)                   *762 LM00821
                  WHENEVER A2.E.A6+5.OR.A2.E.INTEG                                                *763 LM00822
                     WHENEVER A4.G.FUNCT                                                          *764 LM00823
                        I(A3)=$$                                                                  *765 LM00824
                     OTHERWISE                                                                    *766 LM00825
                        I(A3)=$.$                                                                 *767 LM00826
                     END OF CONDITIONAL                                                           *768 LM00827
                  OTHERWISE                                                                       *769 LM00828
                     WHENEVER A4.G.FUNCT                                                          *770 LM00829
                        I(A3)=$,$                                                                 *771 LM00830
                     OTHERWISE                                                                    *772 LM00831
                        I(A3)=$.,$                                                                *773 LM00832
                     END OF CONDITIONAL                                                           *774 LM00833
      S114B       END OF CONDITIONAL                                                              *775 LM00834
                  CCT=A3                                                                          *776 LM00835
                  WHENEVER A2.G.INTEG                                                             *777 LM00836
                     SW3=S119                                                                     *778 LM00837
                  OTHERWISE                                                                       *779 LM00838
                     SW3=S114                                                                     *780 LM00839
                  END OF CONDITIONAL                                                              *781 LM00840
                  TRANSFER TO S2                                                                  *782 LM00841
      S114        CONTINUE                                                                        *783 LM00842
                                                                                                       LM00843
                   FINAL OUTPUT                                                                        LM00844
                                                                                                       LM00845
      S119        WHENEVER SUB.E.$ $                                                              *784 LM00846
                  I(2)=$ PROGR$                                                                   *785 LM00847
                  I(3)=$AM$                                                                       *786 LM00848
                  OTHERWISE                                                                       *787 LM00849
                  I(2)=$ FUNCT$                                                                   *788 LM00850
                  I(3)=$ION$                                                                      *789 LM00851
                  END OF CONDITIONAL                                                              *790 LM00852
                  I(1)=$END OF$                                                                   *791 LM00853
                  STNO=STACON.V.1                                                                 *792 LM00854
                  WHOLE =1                                                                        *793 LM00855
                  CCT=3                                                                           *794 LM00856
                  SW3=S2000                                                                       *795 LM00857
                  TRANSFER TO S2                                                                  *796 LM00858
      S2000       ENDRD.(FILNAM)                                                                  *797 LM00859
                  FILE.(MADNAM)                                                                   *798 LM00860
                  WHENEVER CSW                                                                    *799 LM00861
                  GOOD=GOOD+1                                                                     *800 LM00862
                  NCOM.($   MAD$,MADNAM)                                                          *801 LM00863
                  OTHERWISE                                                                       *802 LM00864
                  PRNTP.(MSG2)                                                                    *803 LM00865
                  VECTOR VALUES MSG2=$PROBABLE ERROR IN MADTRN FILE.$,777777777777K               *804 LM00866
                  PRNTP.(XQMSG2)                                                                  *805 LM00867
                  VECTOR VALUES XQMSG2=$MAD FILE CREATED,USE AT OWN RISK.$,777777777777K          *806 LM00868
                  BRAKE.                                                                          *807 LM00869
                  CHNCOM.(0)                                                                      *808 LM00870
                  END OF CONDITIONAL                                                              *809 LM00871
                                                                                                       LM00872
                   OUTPUT FOR REMARK CARDS                                                             LM00873
                                                                                                       LM00874
      ROUT        A1=1                                                                            *810 LM00875
                  A2=61                                                                           *811 LM00876
                  RFMT(3)=$61$                                                                    *812 LM00877
                  RFMT(4)=$C1  , $                                                                *813 LM00878
      R1          CARDNO=CARDNO+1                                                                 *814 LM00879
                  WHENEVER CSW                                                                    *815 LM00880
                  PAULA.                                                                          *816 LM00881
                  XXWC=FWRITE.(MADNAM,STMOUT(0)...STMOUT(13))                                     *817 LM00882
                  END OF CONDITIONAL                                                              *818 LM00883
                  WHENEVER A1.E.1                                                                 *819 LM00884
                  A1=62                                                                           *820 LM00885
                  A2=71                                                                           *821 LM00886
                  RFMT(3)=$10$                                                                    *822 LM00887
                  RFMT(4)=$C1,S51$                                                                *823 LM00888
                  THROUGH R2, FOR A3=62,1,A3.G.71                                                 *824 LM00889
      R2          WHENEVER I(A3).NE.$$, TRANSFER TO R1                                            *825 LM00890
                  END OF CONDITIONAL                                                              *826 LM00891
                  VECTOR VALUES RFMT=$1H  , S10,1HR ,         C1  , ,C3,C5*$                      *827 LM00892
                  TRANSFER TO SW3                                                                 *828 LM00893
      S69         LAG=$EOF$                                                                       *829 LM00894
                  TRANSFER TO S7                                                                  *830 LM00895
      S60         EXECUTE ERRP.(ERRO)                                                             *831 LM00896
      S30         EXECUTE SUBST.                                                                  *832 LM00897
      S9999       END OF FUNCTION                                                                 *833 LM00898
                                         MODE STRUCTURE 1 .EV. 1 TO 1         004  LM00002
 (THE NUMERIC FORM OF THE OPERATOR-MODE ARGUMENT IS    11111 )
1MAD PROGRAM,TYPE NOV 1963      (ALL NUMBERS ARE OCTAL)
0TOTAL LOCATIONS   14503 TRANSFER VECTOR LENGTH  00043 PROGRAM BEGINS    06727
0 PROGRAM IS AN EXTERNAL FUNCTION.   THE FOLLOWING ARE ENTRIES
      MADTRN 07610   0
0VARIABLE STORAGE (A=ARRAY,C=COMMON,E=ERASABLE,DIGIT=MODE)
      A1     00202   1        ETEST  00056   4        QXPMY4 00050   4        S212   00115   4        S66    00157   4
      A2     00203   1        FILL   00057   4        QXPMY5 00050   4        S213   00116   4        S67    00160   4
      A3     00204   1        FILNAM 00561 A 1        QXPMY6 00050   4        S214   00050   4        S69    00161   4
      A4     00205   1        FLAG   56111  E1        QXPMY7 00065   4        S215   00050   4        S6     00162   4
      A6     00206   1        FSTCRD 00562   1        QXPMY8 00050   4        S21    00117   4        S70    00163   4
      ARG    00207   2        FTEST  00060   4        QXPMY9 00050   4        S22    00120   4        S71    00164   4
      ARRG   56207 AE1        FUNCT  67306 AE1        QXPMY  00050   4        S23A   00121   4        S72    00165   4
      ATEST  00052   4        GOOD   00563   1        R1     00066   4        S23    00122   4        S73    00166   4
      BB     00220 A 1        GTEST  00061   4        R2     00050   4        S24    00123   4        S7A    00167   4
      BF1    00221   1        HCHAR  00564   1        REM1   00050   4        S27    00124   4        S7     00170   4
      BF2    00222   1        HOL    60161 AE1        REM2   00050   4        S29A   00125   4        S80    00171   4
      BF3    00223   1        HOLSET 00565   1        REM    02222   1        S29    00126   4        S81    00172   4
      BF4    00224   1        H      00566   2        RE     02223   1        S2AA   00127   4        S88A   00173   4
      BF5    00225   1        HSET   00567   1        RFMT   02232 A 1        S2A    00130   4        S88B   00050   4
      BFL    00226 A 1        ID     00570   1        ROB    02233   1        S2     00051   4        S88    00174   4
      BOOLFL 56110  E2        INCARD 00571   1        ROUT   00067   4        S30    00131   4        S9A    00175   4
      BOOL   00227   2        IN     00573 A 1        RTEST  00070   4        S37    00132   4        S9     00050   4
      BTEST  00053   4        INTEG  73227 AE1        RUMP   56114  E2        S38    00133   4        SECONX 00176   4
      BUMP   56116  E2        I      61414 AE1        S1000  00071   4        S39    00134   4        SHIFT  00050   4
      C1     00230   1        ITEST  00062   4        S1001  00072   4        S3A    00135   4        SLOB   02234   1
      C2     00231   1        J      00720 A 1        S1002  00073   4        S3B    00136   4        SNOP   02235   1
      C3     00232   1        K      00727 A 1        S114A  00050   4        S3C    00137   4        SPACE  00050   4
      C4     00233   1        LAG    00730   1        S114B  00050   4        S3DA   00140   4        SPEC   00050   4
      C5     00234   1        LEV    00731   1        S114   00074   4        S3DB   00050   4        ST2    00177   4
      CARDNO 00235   1        L      02164 A 1        S118X  00075   4        S3DC   00050   4        STACON 56122  E1
      CCARD  00236   1        LUMP   56115  E2        S119   00076   4        S3DD   00141   4        STEST  00200   4
      CCT    56121  E1        MADNAM 02166 A 1        S133   00077   4        S3DE   00050   4        STMOUT 02254 A 1
      CHECK  00237   1        MASK   02167 A 1        S17C   00100   4        S3DF   00142   4        STNO   56124  E1
      CH     00240   2        MORE   02170   2        S17    00101   4        S3     00143   4        SUB    56107  E1
      CLOB   00241   1        MOX    56100  E2        S18A   00102   4        S3X    00050   4        SW2    02255   1
      CRUMP  56113  E2        MSG2   02176 A 1        S1     00103   4        S3Y    00144   4        SW3    56106  E4
      C      00242   1        MSG    02211 A 1        S2000  00104   4        S3Z    00145   4        TEMP   02261 A 1
      CSW    56102  E2        N      77150 AE1        S201   00105   4        S40A   00146   4        TEST   02262   1
      CTEST  00054   4        NSNO   56123  E1        S202   00106   4        S40    00050   4        TS3    56105  E4
      CT     00243   1        NUMBER 56101  E1        S203   00050   4        S43    00147   4        WHOLE  56120  E1
      DIM    65335 AE1        OUTFMT 02221 A 1        S204   00107   4        S45    00051   1        WTEST  00201   4
      DSAVE  00554 A 1        OUT    57174 AE1        S205   00110   4        S5     00050   4        XQMSG2 02271 A 1
      DSET   00555   1        PR     56104  E4        S206   00111   4        S600   00150   4        XXWC   02272   1
      DTEST  00055   4        PTEST  00063   4        S207   00112   4        S60    00151   4        ZBUF1  03153 A 1
      DUMMY  00556   1        PUMP   56112  E2        S208   00050   4        S63    00152   4        ZBUF2  04034 A 1
      DUMP   56117  E2        QXPM10 00064   4        S209   00050   4        S64A   00153   4        ZBUF3  04715 A 1
      DUM    77461 AE1        QXPMY1 00050   4        S20    00113   4        S64B   00154   4        ZBUF4  05576 A 1
      ERRO   00557   1        QXPMY2 00050   4        S210   00050   4        S64    00155   4        ZBUF5  06457 A 1
      ERR    56103  E1        QXPMY3 00050   4        S211   00114   4        S65    00156   4        ZZXQ1  56077  E4
0FUNCTION DICTIONARY
      ASSIGN 00000   1        BCDBN  00001   1        BNBCD  00002   1        BRAKE  00003   1        BREAD  00004   1
      BZEL   00005   1        CHFILE 00006   1        CHNCOM 00007   1        COMARG 00010   1        COMPZ  00011   1
      DCOMPZ 00012   1        ENDRD  00013   1        ERRP   00014   1        EXIT   00015   1        FILE   00016   1
      FINDIN 00017   1        FINDN  00020   1        FSTATE 00021   1        FWRITE 00022   1        GETMEM 00023   1
      IOP    00024   1        LZR    00025   1        MADTR2 00026   1        NCOM   00027   1        OCRBC  00030   1
      OPCHK  00031   2        PRNTP  00032   1        RDFLXC 00033   1        SEEK   00034   1        SETEOF 00035   1
      SETVBF 00036   1        SMEM   00037   1        SUBST  00040   1        ZCOMPZ 00041   1        ZERO   00042   1
      E      00043   2        FIXID  00044   1        PAULA  00045   1        PRPSTM 00046   1        S      00047   1
0ABSOLUTE CONSTANTS
 06551 +230173620501     06530 +010060606060     06550 +230160607360     06532 +060160606060     06670 -206060442124
 06564 +254524604626     06665 -202664452363     06542 +214460606060     06667 -204751462751     06617 +337360606060
 06616 +336060606060     06527 +010000000000     06531 +016060606060     06511 +000000000074     06623 -044624256263
 06705 -236060606060     06655 -112566314524     06546 +222123426247     06647 -112521242223     06715 -265131632522
 06650 -112521242231     06716 -265131632524     06651 -112521242451     06630 -056060606060     06641 -075131456346
 06640 -075131456326     06644 -076445233026     06652 -112521242646     06563 +254524462647     06711 -246060606060
 06562 +254524462626     06604 +266445236331     06567 +254563517063     06613 +314563255145     06577 +256763255145
 06713 -256060606060     06622 -036060606060     06700 -226321632544     06612 +314563252725     06624 -046060606060
 06642 -075146275121     06636 -072164622545     06576 +256725236463     06504 +000000000024     06702 -233051466427
 06714 -263025452565     06506 +000000000031     06520 +000000001142     06517 +000000000764     06503 +000000000023
 06501 +000000000021     06500 +000000000020     06477 +000000000017     06472 +000000000012     06471 +000000000011
 06627 -054633606060     06637 -072164622560     06572 +255160634660     06704 -235121456226     06723 -340000346060
 06514 +000000000102     06521 +000000001224     06610 +306060606060     06516 +000000000110     06653 -112544606060
 06522 +000000001274     06570 +254626606060     06614 +314645606060     06554 +243144254562     06721 -336060606060
 06722 -340000000054     06620 +346060606060     06674 -206073606060     06673 -206060606074     06621 -032545232560
 06571 +255064316521     06467 +000000000007     06663 -136060606060     06534 +074260736053     06533 +070707070707
 06536 +130707070707     06675 -206521436425     06712 -252523634651     06660 -113163254664     06661 -113163256321
 06657 -113163252451     06703 -234647606060     06701 -232163254425     06706 -242251466463     06566 +254562254331
 06560 +252124606060     06575 +256631452460     06557 +252124314547     06556 +252124245164     06561 +252124632147
 06574 +256364514560     06545 +216462256060     06707 -244523306060     06656 -113145636060     06605 +267460606060
 06606 +267462254562     06600 +262123236444     06602 +265064466331     06601 +262431653124     06635 -066346606060
 06633 -065144216374     06710 -244523633146     06654 -112550642545     06626 -052426314325     06646 -106431652143
 06634 -066060606060     06611 +314425456231     06541 +214343606060     06631 -064444464560     06543 +215124312431
 06632 -064563314564     06540 +212342624721     06677 -226231274560     06717 -266060606060     06676 -226060606060
 06662 -116060606060     06643 -076060606060     06615 +316060606060     06607 +276060606060     06603 +266060606060
 06573 +256060606060     06555 +246060606060     06544 +216060606060     06537 +136060606060     06724 -346060606060
 06565 +254524606060     06547 +226060606060     06535 +116060606060     06553 +236060606060     06526 +006060606060
 06475 +000000000015     06625 -046351000000     06645 -105000000000     06664 -146060606060     06523 +000000001604
 06476 +000000000016     06720 -302562606060     06666 -204331454260     06470 +000000000010     06726 -377777777777
 06525 +000060606060     06524 +000000606060     06515 +000000000107     06671 -206060605100     06512 +000000000075
 06513 +000000000076     06672 -206060606060     06473 +000000000013     06510 +000000000060     06460 +000000000000
 06505 +000000000030     06502 +000000000022     06462 +000000000002     06474 +000000000014     06463 +000000000003
 06464 +000000000004     06465 +000000000005     06466 +000000000006     06507 +000000000036     06725 -377777770000
 06461 +000000000001     06552 +233000000000
0STATEMENT DICTIONARY
 00051 TXL -312573012573       00052 TXL -310454010445       00053 TXL -310464010455       00054 TXL -310474010465
 00055 TXL -310555010546       00056 TXL -310571010562       00057 TXL -307227007215       00060 TXL -310605010576
 00061 TXL -310625010616       00062 TXL -310645010625       00063 TXL -310667010655       00064 TXL -307705007701
 00065 TXL -307376007375       00066 TXL -314415014412       00067 TXL -314404014402       00070 TXL -310703010674
 00071 TXL -311014011010       00072 TXL -311016011014       00073 TXL -311033011030       00074 TXL -314326014325
 00075 TXL -312407012405       00076 TXL -314331014326       00077 TXL -312542012540       00100 TXL -314140014135
 00101 TXL -314146014144       00102 TXL -312374012347       00103 TXL -310067010061       00104 TXL -314360014356
 00105 TXL -312620012613       00106 TXL -312623012620       00107 TXL -312700012675       00110 TXL -312711012701
 00111 TXL -312716012713       00112 TXL -312724012721       00113 TXL -312041012035       00114 TXL -313117013115
 00115 TXL -313125013123       00116 TXL -313133013125       00117 TXL -312501012477       00120 TXL -312473012471
 00121 TXL -312537012535       00122 TXL -312476012474       00123 TXL -312507012505       00124 TXL -312553012551
 00125 TXL -312450012426       00126 TXL -312545012543       00127 TXL -314043014041       00130 TXL -314050014045
 00131 TXL -314466014465       00132 TXL -312271012247       00133 TXL -312141012123       00134 TXL -312244012243
 00135 TXL -312034012033       00136 TXL -312024012022       00137 TXL -312016012013       00140 TXL -311644011630
 00141 TXL -311544011514       00142 TXL -311727011703       00143 TXL -311041011036       00144 TXL -311067011053
 00145 TXL -311307011307       00146 TXL -312342012340       00147 TXL -312210012206       00150 TXL -312550012546
 00151 TXL -314465014463       00152 TXL -312531012527       00153 TXL -312520012516       00154 TXL -312526012524
 00155 TXL -312515012513       00156 TXL -312512012510       00157 TXL -312523012521       00160 TXL -312534012532
 00161 TXL -314462014460       00162 TXL -311467011455       00163 TXL -312556012554       00164 TXL -312567012565
 00165 TXL -312561012557       00166 TXL -312564012562       00167 TXL -310310010310       00170 TXL -310310010305
 00171 TXL -312504012502       00172 TXL -312572012570       00173 TXL -311145011143       00174 TXL -311247011242
 00175 TXL -310336010334       00176 TXL -307401007377       00177 TXL -307652007650       00200 TXL -310750010741
 00201 TXL -310777010770
0PROGRAM
                 EXTERNAL FUNCTION(BUFF)                                            001  LM00003
                 INSERT FILE TDFEV                                                  002  LM00004
                 DEFINE BINARY OPERATOR .EV., PRECEDENCE SAME AS .V.                003  LM00001
                 MODE STRUCTURE 1 .EV. 1 TO 1                                       004  LM00002
                 NORMAL MODE IS INTEGER                                             026  LM00005
                 ERASABLE DUM(200),N(2000),INTEG(2000),FUNCT(1000),DIM(2000),       027  LM00006
                1I(666),HOL(500),OUT(500),ARRG(50),STNO,NSNO,STACON,CCT,WHOLE,      027  LM00007
                2DUMP,BUMP,LUMP,RUMP,CRUMP,PUMP,FLAG,BOOLFL,SUB,SW3,TS3,PR,         027  LM00008
                3ERR,CSW,NUMBER,MOX,ZZXQ1                                           027  LM00009
                 BOOLEAN BOOLFL,CSW,MOX,DUMP,BUMP,LUMP,RUMP,CRUMP,PUMP              028  LM00010
                 STATEMENT LABEL SW3,TS3,PR,ZZXQ1                                   029  LM00011
                 DIMENSION L(666),DSAVE(200),J(84),K(6),TEMP(3)                     030  LM00012
                 EQUIVALENCE (S2,S45)                                               031  LM00013
                 BOOLEAN BOOL                                                       032  LM00014
                 INTERNAL FUNCTION                                                  033  LM00018
 06727 TRA +0 02000 0 07542
                 ENTRY TO PRPSTM.                                                   034  LM00019
 06730 TRA +0 02000 0 06733    00046 TTR +0 02100 0 06731    06731 SXA +0 63400 2 07525    06732 TSX +0 07400 2 07525
                 STMOUT(0)=STNO                                                     035  LM00020
 06733 CLA +0 50000 0 56124    06734 STO +0 60100 0 02254
                 SNOP=SNOP.A.777777770000K                                          036  LM00021
 06735 CAL -0 50000 0 02235    06736 ANA -0 32000 0 06725    06737 SLW +0 60200 0 02235
                 CCARD=CCARD.RS.30                                                  037  LM00022
 06740 CAL -0 50000 0 06507    06741 STA +0 62100 0 06743    06742 CAL -0 50000 0 00236    06743 LGR -0 76500 0 00000
 06744 SLW +0 60200 0 00236
                 THROUGH QXPMY,FOR ROB=C1,1,ROB.G.C2                                038  LM00023
 06745 CLA +0 50000 0 00230    06746 STO +0 60100 0 02233    06747 TRA +0 02000 0 06753    06750 CLA +0 50000 0 02233
 06751 ADD +0 40000 0 06461    06752 STO +0 60100 0 02233    06753 CLA +0 50000 0 02233    06754 SUB +0 40200 0 00231
 06755 TZE +0 10000 0 06757    06756 TPL +0 12000 0 06766
      QXPMY      L(ROB)=L(ROB).RS.30                                                039  LM00024
 06757 LXA +0 53400 1 02233    06760 CAL -0 50000 0 06507    06761 STA +0 62100 0 06763    06762 CAL -0 50000 1 02164
 06763 LGR -0 76500 0 00000    06764 SLW +0 60200 1 02164    06765 TRA +0 02000 0 06750
                 STMOUT(1)=SNOP.V.CCARD.LS.6.V.L(C1)                                040  LM00025
 06766 CAL -0 50000 0 06466    06767 STA +0 62100 0 06771    06770 CAL -0 50000 0 00236    06771 ALS +0 76700 0 00000
 06772 ORA -0 50100 0 02235    06773 LXA +0 53400 2 00230    06774 ORA -0 50100 2 02164    06775 SLW +0 60200 0 02253
                 THROUGH QXPMY1,FOR ROB=C1+1,6,ROB+5.G.C2                           041  LM00026
 06776 CLA +0 50000 0 00230    06777 ADD +0 40000 0 06461    07000 STO +0 60100 0 02233    07001 TRA +0 02000 0 07005
 07002 CLA +0 50000 0 02233    07003 ADD +0 40000 0 06466    07004 STO +0 60100 0 02233    07005 CLA +0 50000 0 02233
 07006 ADD +0 40000 0 06465    07007 SUB +0 40200 0 00231    07010 TZE +0 10000 0 07012    07011 TPL +0 12000 0 07103
      QXPMY1     STMOUT((ROB-C1)/6+2)=L(ROB).LS.30.V.L(ROB+1).LS.24                 042  LM00027
                1  .V.L(ROB+2).LS.18.V.L(ROB+3).LS.12.V.L(ROB+4).LS.6.V.L(ROB+      042  LM00028
                2  5)                                                               042  LM00029
 07012 CLA +0 50000 0 02233    07013 ADD +0 40000 0 06465    07014 STO +0 60100 0 07535    07015 CLA +0 50000 0 02233
 07016 ADD +0 40000 0 06464    07017 PAX +0 73400 1 00000    07020 CAL -0 50000 0 06466    07021 STA +0 62100 0 07023
 07022 CAL -0 50000 1 02164    07023 ALS +0 76700 0 00000    07024 SLW +0 60200 0 07536    07025 CLA +0 50000 0 02233
 07026 ADD +0 40000 0 06463    07027 PAX +0 73400 1 00000    07030 CAL -0 50000 0 06474    07031 STA +0 62100 0 07033
 07032 CAL -0 50000 1 02164    07033 ALS +0 76700 0 00000    07034 SLW +0 60200 0 07537    07035 CLA +0 50000 0 02233
 07036 ADD +0 40000 0 06462    07037 PAX +0 73400 1 00000    07040 CAL -0 50000 0 06502    07041 STA +0 62100 0 07043
 07042 CAL -0 50000 1 02164    07043 ALS +0 76700 0 00000    07044 SLW +0 60200 0 07540    07045 CLA +0 50000 0 02233
 07046 ADD +0 40000 0 06461    07047 PAX +0 73400 1 00000    07050 CAL -0 50000 0 06505    07051 STA +0 62100 0 07053
 07052 CAL -0 50000 1 02164    07053 ALS +0 76700 0 00000    07054 LXA +0 53400 1 02233    07055 SLW +0 60200 0 07541
 07056 CAL -0 50000 0 06507    07057 STA +0 62100 0 07061    07060 CAL -0 50000 1 02164    07061 ALS +0 76700 0 00000
 07062 ORA -0 50100 0 07541    07063 ORA -0 50100 0 07540    07064 ORA -0 50100 0 07537    07065 ORA -0 50100 0 07536
 07066 LXA +0 53400 2 07535    07067 ORA -0 50100 2 02164    07070 SLW +0 60200 0 07541    07071 CLA +0 50000 0 02233
 07072 SUB +0 40200 0 00230    07073 LRS +0 76500 0 00043    07074 DVP +0 22100 0 06466    07075 XCA +0 13100 0 00000
 07076 ADD +0 40000 0 06462    07077 PAX +0 73400 1 00000    07100 CLA +0 50000 0 07541    07101 STO +0 60100 1 02254
 07102 TRA +0 02000 0 07002
                 ROB=ROB-6                                                          043  LM00030
 07103 CLA +0 50000 0 02233    07104 SUB +0 40200 0 06466    07105 STO +0 60100 0 02233
                 CLOB=(ROB-C1)/6+3                                                  044  LM00031
 07106 CLA +0 50000 0 02233    07107 SUB +0 40200 0 00230    07110 LRS +0 76500 0 00043    07111 DVP +0 22100 0 06466
 07112 XCA +0 13100 0 00000    07113 ADD +0 40000 0 06463    07114 STO +0 60100 0 00241
                 WHENEVER (ROB+6).E.(C1+1),CLOB=CLOB-1                              045  LM00032
 07115 CLA +0 50000 0 00230    07116 ADD +0 40000 0 06461    07117 STO +0 60100 0 07541    07120 CLA +0 50000 0 02233
 07121 ADD +0 40000 0 06466    07122 SUB +0 40200 0 07541    07123 TNZ -0 10000 0 07127    07124 CLA +0 50000 0 00241
 07125 SUB +0 40200 0 06461    07126 STO +0 60100 0 00241
                 WHENEVER ROB+5.E.C2,TRANSFER TO FILL                               046  LM00033
 07127 CLA +0 50000 0 02233    07130 ADD +0 40000 0 06465    07131 SUB +0 40200 0 00231    07132 TNZ -0 10000 0 07134
 07133 TRA +0 02000 0 00057
                 SLOB=30                                                            047  LM00034
 07134 CLA +0 50000 0 06507    07135 STO +0 60100 0 02234
                 STMOUT(CLOB)=0                                                     048  LM00035
 07136 LXA +0 53400 1 00241    07137 CLA +0 50000 0 06460    07140 STO +0 60100 1 02254
                 THROUGH QXPMY2,FOR ROB=ROB+6,1,ROB.G.C2                            049  LM00036
 07141 CLA +0 50000 0 02233    07142 ADD +0 40000 0 06466    07143 STO +0 60100 0 02233    07144 TRA +0 02000 0 07150
 07145 CLA +0 50000 0 02233    07146 ADD +0 40000 0 06461    07147 STO +0 60100 0 02233    07150 CLA +0 50000 0 02233
 07151 SUB +0 40200 0 00231    07152 TZE +0 10000 0 07154    07153 TPL +0 12000 0 07170
                 STMOUT(CLOB)=STMOUT(CLOB).V.L(ROB).LS.SLOB                         050  LM00037
 07154 LXA +0 53400 1 02233    07155 CAL -0 50000 0 02234    07156 STA +0 62100 0 07160    07157 CAL -0 50000 1 02164
 07160 ALS +0 76700 0 00000    07161 LXA +0 53400 1 00241    07162 ORA -0 50100 1 02254    07163 SLW +0 60200 1 02254
      QXPMY2     SLOB=SLOB-6                                                        051  LM00038
 07164 CLA +0 50000 0 02234    07165 SUB +0 40200 0 06466    07166 STO +0 60100 0 02234    07167 TRA +0 02000 0 07145
                 THROUGH QXPMY3,FOR SLOB=SLOB,-6,SLOB.L.0                           052  LM00039
 07170 CLA +0 50000 0 02234    07171 STO +0 60100 0 02234    07172 TRA +0 02000 0 07176    07173 CLS +0 50200 0 06466
 07174 ADD +0 40000 0 02234    07175 STO +0 60100 0 02234    07176 CLA +0 50000 0 02234    07177 SUB +0 40200 0 06460
 07200 TZE +0 10000 0 07202    07201 TMI -0 12000 0 07212
      QXPMY3     STMOUT(CLOB)=STMOUT(CLOB).V.$00000$.LS.SLOB                        053  LM00040
 07202 CAL -0 50000 0 02234    07203 STA +0 62100 0 07205    07204 CAL -0 50000 0 06510    07205 ALS +0 76700 0 00000
 07206 LXA +0 53400 1 00241    07207 ORA -0 50100 1 02254    07210 SLW +0 60200 1 02254    07211 TRA +0 02000 0 07173
                 CLOB=CLOB+1                                                        054  LM00041
 07212 CLA +0 50000 0 00241    07213 ADD +0 40000 0 06461    07214 STO +0 60100 0 00241
      FILL       THROUGH QXPMY4,FOR CLOB=CLOB,1,CLOB.G.11                           055  LM00042
 07215 CLA +0 50000 0 00241    07216 STO +0 60100 0 00241    07217 TRA +0 02000 0 07223    07220 CLA +0 50000 0 00241
 07221 ADD +0 40000 0 06461    07222 STO +0 60100 0 00241    07223 CLA +0 50000 0 00241    07224 SUB +0 40200 0 06473
 07225 TZE +0 10000 0 07227    07226 TPL +0 12000 0 07233
      QXPMY4     STMOUT(CLOB)=$ $                                                   056  LM00043
 07227 LXA +0 53400 1 00241    07230 CLA +0 50000 0 06672    07231 STO +0 60100 1 02254    07232 TRA +0 02000 0 07220
                 FIXID.                                                             057  LM00044
 07233 TSX +0 07400 4 00044
                 FUNCTION RETURN                                                    058  LM00045
 07234 TRA +0 02000 0 07531
                 ENTRY TO PAULA.                                                    059  LM00046
 07235 TRA +0 02000 0 07240    00045 TTR +0 02100 0 07236    07236 SXA +0 63400 2 07525    07237 TSX +0 07400 2 07525
                 WHENEVER A1.E.62,TRANSFER TO SECONX                                060  LM00047
 07240 CLA +0 50000 0 00202    07241 SUB +0 40200 0 06513    07242 TNZ -0 10000 0 07244    07243 TRA +0 02000 0 00176
                 THROUGH SHIFT,FOR ROB=1,1,ROB.G.61                                 061  LM00048
 07244 CLA +0 50000 0 06461    07245 STO +0 60100 0 02233    07246 TRA +0 02000 0 07252    07247 CLA +0 50000 0 02233
 07250 ADD +0 40000 0 06461    07251 STO +0 60100 0 02233    07252 CLA +0 50000 0 02233    07253 SUB +0 40200 0 06512
 07254 TZE +0 10000 0 07256    07255 TPL +0 12000 0 07265
      SHIFT      I(ROB)=I(ROB).RS.30                                                062  LM00049
 07256 LXA +0 53400 1 02233    07257 CAL -0 50000 0 06507    07260 STA +0 62100 0 07262    07261 CAL -0 50000 1 61414
 07262 LGR -0 76500 0 00000    07263 SLW +0 60200 1 61414    07264 TRA +0 02000 0 07247
                 STMOUT(0)=$ $                                                      063  LM00050
 07265 CLA +0 50000 0 06672    07266 STO +0 60100 0 02254
                 STMOUT(1)=$    R0$.V.I(1)                                          064  LM00051
 07267 CAL -0 50000 0 06671    07270 ORA -0 50100 0 61413    07271 SLW +0 60200 0 02253
                 THROUGH QXPMY5,FOR ROB=2,6,ROB.G.61                                065  LM00052
 07272 CLA +0 50000 0 06462    07273 STO +0 60100 0 02233    07274 TRA +0 02000 0 07300    07275 CLA +0 50000 0 02233
 07276 ADD +0 40000 0 06466    07277 STO +0 60100 0 02233    07300 CLA +0 50000 0 02233    07301 SUB +0 40200 0 06512
 07302 TZE +0 10000 0 07304    07303 TPL +0 12000 0 07375
      QXPMY5     STMOUT(ROB/6+2)=(I(ROB).LS.30).V.(I(ROB+1).LS.24).V.               066  LM00053
                1   (I(ROB+2).LS.18).V.(I(ROB+3).LS.12).V.                          066  LM00054
                2   (I(ROB+4).LS.6).V.(I(ROB+5))                                    066  LM00055
 07304 CLA +0 50000 0 02233    07305 ADD +0 40000 0 06465    07306 STO +0 60100 0 07541    07307 CLA +0 50000 0 02233
 07310 ADD +0 40000 0 06464    07311 PAX +0 73400 1 00000    07312 CAL -0 50000 0 06466    07313 STA +0 62100 0 07315
 07314 CAL -0 50000 1 61414    07315 ALS +0 76700 0 00000    07316 SLW +0 60200 0 07540    07317 CLA +0 50000 0 02233
 07320 ADD +0 40000 0 06463    07321 PAX +0 73400 1 00000    07322 CAL -0 50000 0 06474    07323 STA +0 62100 0 07325
 07324 CAL -0 50000 1 61414    07325 ALS +0 76700 0 00000    07326 SLW +0 60200 0 07537    07327 CLA +0 50000 0 02233
 07330 ADD +0 40000 0 06462    07331 PAX +0 73400 1 00000    07332 CAL -0 50000 0 06502    07333 STA +0 62100 0 07335
 07334 CAL -0 50000 1 61414    07335 ALS +0 76700 0 00000    07336 SLW +0 60200 0 07536    07337 CLA +0 50000 0 02233
 07340 ADD +0 40000 0 06461    07341 PAX +0 73400 1 00000    07342 CAL -0 50000 0 06505    07343 STA +0 62100 0 07345
 07344 CAL -0 50000 1 61414    07345 ALS +0 76700 0 00000    07346 LXA +0 53400 1 02233    07347 SLW +0 60200 0 07535
 07350 CAL -0 50000 0 06507    07351 STA +0 62100 0 07353    07352 CAL -0 50000 1 61414    07353 ALS +0 76700 0 00000
 07354 ORA -0 50100 0 07535    07355 ORA -0 50100 0 07536    07356 ORA -0 50100 0 07537    07357 ORA -0 50100 0 07540
 07360 LXA +0 53400 2 07541    07361 ORA -0 50100 2 61414    07362 SLW +0 60200 0 07541    07363 LDQ +0 56000 0 02233
 07364 PXD -0 75400 0 00000    07365 LLS +0 76300 0 00000    07366 DVP +0 22100 0 06466    07367 XCA +0 13100 0 00000
 07370 ADD +0 40000 0 06462    07371 PAX +0 73400 1 00000    07372 CLA +0 50000 0 07541    07373 STO +0 60100 1 02254
 07374 TRA +0 02000 0 07275
      QXPMY7     FIXID.                                                             067  LM00056
 07375 TSX +0 07400 4 00044
                 FUNCTION RETURN                                                    068  LM00057
 07376 TRA +0 02000 0 07531
      SECONX     STMOUT(0)=$ $                                                      069  LM00058
 07377 CLA +0 50000 0 06672    07400 STO +0 60100 0 02254
                 THROUGH QXPMY8,FOR ROB=62,1,ROB.G.71                               070  LM00059
 07401 CLA +0 50000 0 06513    07402 STO +0 60100 0 02233    07403 TRA +0 02000 0 07407    07404 CLA +0 50000 0 02233
 07405 ADD +0 40000 0 06461    07406 STO +0 60100 0 02233    07407 CLA +0 50000 0 02233    07410 SUB +0 40200 0 06515
 07411 TZE +0 10000 0 07413    07412 TPL +0 12000 0 07422
      QXPMY8     I(ROB)=I(ROB).RS.30                                                071  LM00060
 07413 LXA +0 53400 1 02233    07414 CAL -0 50000 0 06507    07415 STA +0 62100 0 07417    07416 CAL -0 50000 1 61414
 07417 LGR -0 76500 0 00000    07420 SLW +0 60200 1 61414    07421 TRA +0 02000 0 07404
                 STMOUT(1)=$    R0$.V.I(62)                                         072  LM00061
 07422 CAL -0 50000 0 06671    07423 ORA -0 50100 0 61316    07424 SLW +0 60200 0 02253
                 STMOUT(2)=I(63).LS.30.V.I(64).LS.24.V.I(65).LS.18.V.               073  LM00062
                1   I(66).LS.12.V.I(67).LS.6.V.I(68)                                073  LM00063
 07425 CAL -0 50000 0 06466    07426 STA +0 62100 0 07430    07427 CAL -0 50000 0 61311    07430 ALS +0 76700 0 00000
 07431 SLW +0 60200 0 07541    07432 CAL -0 50000 0 06474    07433 STA +0 62100 0 07435    07434 CAL -0 50000 0 61312
 07435 ALS +0 76700 0 00000    07436 SLW +0 60200 0 07540    07437 CAL -0 50000 0 06502    07440 STA +0 62100 0 07442
 07441 CAL -0 50000 0 61313    07442 ALS +0 76700 0 00000    07443 SLW +0 60200 0 07537    07444 CAL -0 50000 0 06505
 07445 STA +0 62100 0 07447    07446 CAL -0 50000 0 61314    07447 ALS +0 76700 0 00000    07450 SLW +0 60200 0 07536
 07451 CAL -0 50000 0 06507    07452 STA +0 62100 0 07454    07453 CAL -0 50000 0 61315    07454 ALS +0 76700 0 00000
 07455 ORA -0 50100 0 07536    07456 ORA -0 50100 0 07537    07457 ORA -0 50100 0 07540    07460 ORA -0 50100 0 07541
 07461 ORA -0 50100 0 61310    07462 SLW +0 60200 0 02252
                 STMOUT(3)=I(69).LS.30.V.I(70).LS.24.V.I(71).LS.18.V.$000$          074  LM00064
 07463 CAL -0 50000 0 06502    07464 STA +0 62100 0 07466    07465 CAL -0 50000 0 61305    07466 ALS +0 76700 0 00000
 07467 SLW +0 60200 0 07541    07470 CAL -0 50000 0 06505    07471 STA +0 62100 0 07473    07472 CAL -0 50000 0 61306
 07473 ALS +0 76700 0 00000    07474 SLW +0 60200 0 07540    07475 CAL -0 50000 0 06507    07476 STA +0 62100 0 07500
 07477 CAL -0 50000 0 61307    07500 ALS +0 76700 0 00000    07501 ORA -0 50100 0 07540    07502 ORA -0 50100 0 07541
 07503 ORA -0 50100 0 06524    07504 SLW +0 60200 0 02251
                 THROUGH QXPMY9,FOR ROB=4,1,ROB.G.11                                075  LM00065
 07505 CLA +0 50000 0 06464    07506 STO +0 60100 0 02233    07507 TRA +0 02000 0 07513    07510 CLA +0 50000 0 02233
 07511 ADD +0 40000 0 06461    07512 STO +0 60100 0 02233    07513 CLA +0 50000 0 02233    07514 SUB +0 40200 0 06473
 07515 TZE +0 10000 0 07517    07516 TPL +0 12000 0 07523
      QXPMY9     STMOUT(ROB)=$ $                                                    076  LM00066
 07517 LXA +0 53400 1 02233    07520 CLA +0 50000 0 06672    07521 STO +0 60100 1 02254    07522 TRA +0 02000 0 07510
                 TRANSFER TO QXPMY7                                                 077  LM00067
 07523 TRA +0 02000 0 00065
                 END OF FUNCTION                                                    078  LM00068
 07524 TSX +0 07400 4 00015    07525 TXH +3 00000 0 00000    07526 SXD -0 63400 1 07525    07527 SXA +0 63400 4 07531
 07530 TRA +0 02000 2 00001    07531 AXT +0 77400 4 00000    07532 LXA +0 53400 2 07525    07533 LXD -0 53400 1 07525
 07534 TRA +0 02000 4 00001
                 INTERNAL FUNCTION                                                  079  LM00069
 07542 TRA +0 02000 0 07607
                 ENTRY TO FIXID.                                                    080  LM00070
 07543 TRA +0 02000 0 07546    00044 TTR +0 02100 0 07544    07544 SXA +0 63400 2 07576    07545 TSX +0 07400 2 07576
                 STMOUT(14)=BNBCD.(CARDNO).LS.6                                     081  LM00071
 07546 TSX +0 07400 4 00002    07547 TXH +3 00000 0 00235    07550 STO +0 60100 0 07606    07551 CAL -0 50000 0 06466
 07552 STA +0 62100 0 07554    07553 CAL -0 50000 0 07606    07554 ALS +0 76700 0 00000    07555 SLW +0 60200 0 02236
                 STMOUT(12)=ID.V.STMOUT(14).RS.18                                   082  LM00072
 07556 CAL -0 50000 0 06502    07557 STA +0 62100 0 07561    07560 CAL -0 50000 0 02236    07561 LGR -0 76500 0 00000
 07562 ORA -0 50100 0 00570    07563 SLW +0 60200 0 02240
                 STMOUT(13)=STMOUT(14).LS.18.V.$00$                                 083  LM00073
 07564 CAL -0 50000 0 06502    07565 STA +0 62100 0 07567    07566 CAL -0 50000 0 02236    07567 ALS +0 76700 0 00000
 07570 ORA -0 50100 0 06525    07571 SLW +0 60200 0 02237
                 STMOUT(14)=777777777777K                                           084  LM00074
 07572 CLA +0 50000 0 06726    07573 STO +0 60100 0 02236
                 FUNCTION RETURN                                                    085  LM00075
 07574 TRA +0 02000 0 07602
                 END OF FUNCTION                                                    086  LM00076
 07575 TSX +0 07400 4 00015    07576 TXH +3 00000 0 00000    07577 SXD -0 63400 1 07576    07600 SXA +0 63400 4 07602
 07601 TRA +0 02000 2 00001    07602 AXT +0 77400 4 00000    07603 LXA +0 53400 2 07576    07604 LXD -0 53400 1 07576
 07605 TRA +0 02000 4 00001
                 ENTRY TO MADTRN.                                                   087  LM00080
 07607 TRA +0 02000 0 07612    07610 SXA +0 63400 2 14467    07611 TSX +0 07400 2 14467
                 DIMENSION BB(8),STMOUT(14)                                         088  LM00086
                 COMARG.(1,FILNAM)                                                  089  LM00087
 07612 TSX +0 07400 4 00010    07613 TXH +3 00000 0 06461    07614 TXH +3 00000 0 00561
                 MADNAM=FILNAM                                                      090  LM00088
 07615 CLA +0 50000 0 00561    07616 STO +0 60100 0 02166
                 FSTATE.(MADNAM,MADNAM(1),BB(8)...8,QXPM10)                         091  LM00089
 07617 TSX +0 07400 4 00021    07620 TXH +3 00000 0 02166    07621 TXH +3 00000 0 02165    07622 TIX +2 06470 0 00210
 07623 TXH +3 00000 0 00064
                 WHENEVER BB(7).L.0                                                 092  LM00090
 07624 CLA +0 50000 0 00211    07625 SUB +0 40200 0 06460    07626 TZE +0 10000 0 07634    07627 TPL +0 12000 0 07634
                    MSG(4)=$ LINK$                                                  093  LM00091
 07630 CLA +0 50000 0 06666    07631 STO +0 60100 0 02205
                    TRANSFER TO ST2                                                 094  LM00092
 07632 TRA +0 02000 0 00177
                 OR WHENEVER (BB(7).A.MASK).NE.0                                    095  LM00093
 07633 TRA +0 02000 0 07701    07634 CAL -0 50000 0 00211    07635 ANA -0 32000 0 02167    07636 SLW +0 60200 0 14477
 07637 CLA +0 50000 0 14477    07640 SUB +0 40200 0 06460    07641 TZE +0 10000 0 07701
                    MSG(4)=BZEL.(OCRBC.(BB(7)))                                     096  LM00094
 07642 TSX +0 07400 4 00030    07643 TXH +3 00000 0 00211    07644 STO +0 60100 0 14477    07645 TSX +0 07400 4 00005
 07646 TXH +3 00000 0 14477    07647 STO +0 60100 0 02205
      ST2           MSG(2)=MADNAM                                                   097  LM00095
 07650 CLA +0 50000 0 02166    07651 STO +0 60100 0 02207
                    MSG(3)=MADNAM(1)                                                098  LM00096
 07652 CLA +0 50000 0 02165    07653 STO +0 60100 0 02206
                    PRNTP.(MSG)                                                     099  LM00097
 07654 TSX +0 07400 4 00032    07655 TXH +3 00000 0 02211
                    RDFLXC.(DUMMY,3)                                                100  LM00098
 07656 TSX +0 07400 4 00033    07657 TXH +3 00000 0 00556    07660 TXH +3 00000 0 06463
                    WHENEVER DUMMY.NE.$YES$                                         101  LM00099
 07661 CLA +0 50000 0 00556    07662 SUB +0 40200 0 06720    07663 TZE +0 10000 0 07667
                       CHNCOM.(0)                                                   102  LM00100
 07664 TSX +0 07400 4 00007    07665 TXH +3 00000 0 06460
                    OTHERWISE                                                       103  LM00101
 07666 TRA +0 02000 0 07701
                       CHFILE.(MADNAM,MADNAM(1),0,-0,-0)                            104  LM00102
 07667 CLS +0 50200 0 06460    07670 STO +0 60100 0 14477    07671 CLS +0 50200 0 06460    07672 STO +0 60100 0 14500
 07673 TSX +0 07400 4 00006    07674 TXH +3 00000 0 02166    07675 TXH +3 00000 0 02165    07676 TXH +3 00000 0 06460
 07677 TXH +3 00000 0 14500    07700 TXH +3 00000 0 14477
                    END OF CONDITIONAL                                              105  LM00103
                 END OF CONDITIONAL                                                 106  LM00104
      QXPM10     BF1=GETMEM.(0)+BFL                                                 107  LM00108
 07701 TSX +0 07400 4 00023    07702 TXH +3 00000 0 06460    07703 ADD +0 40000 0 00226    07704 STO +0 60100 0 00221
                 BF2=BF1+BFL                                                        108  LM00109
 07705 CLA +0 50000 0 00221    07706 ADD +0 40000 0 00226    07707 STO +0 60100 0 00222
                 BF3=BF2+BFL                                                        109  LM00110
 07710 CLA +0 50000 0 00222    07711 ADD +0 40000 0 00226    07712 STO +0 60100 0 00223
                 BF4=BF3+BFL                                                        110  LM00111
 07713 CLA +0 50000 0 00223    07714 ADD +0 40000 0 00226    07715 STO +0 60100 0 00224
                 BF5=BF4+BFL                                                        111  LM00112
 07716 CLA +0 50000 0 00224    07717 ADD +0 40000 0 00226    07720 STO +0 60100 0 00225
                 SMEM.(BF5+1)                                                       112  LM00113
 07721 CLA +0 50000 0 00225    07722 ADD +0 40000 0 06461    07723 STO +0 60100 0 14500    07724 TSX +0 07400 4 00037
 07725 TXH +3 00000 0 14500
                 SEEK.(FILNAM,ZBUF1,ZBUF2)                                          113  LM00114
 07726 TSX +0 07400 4 00034    07727 TXH +3 00000 0 00561    07730 TXH +3 00000 0 03153    07731 TXH +3 00000 0 04034
                 D'N ZBUF1(432),ZBUF2(432),ZBUF3(432),ZBUF4(432),ZBUF5(432)         114  LM00115
                 SETEOF.(S69)                                                       115  LM00116
 07732 TSX +0 07400 4 00035    07733 TXH +3 00000 0 00161
                 SETVBF.(14)                                                        116  LM00117
 07734 TSX +0 07400 4 00036    07735 TXH +3 00000 0 06476
                 ASSIGN.(MADNAM,ZBUF3,ZBUF4,ZBUF5)                                  117  LM00118
 07736 TSX +0 07400 4 00000    07737 TXH +3 00000 0 02166    07740 TXH +3 00000 0 04715    07741 TXH +3 00000 0 05576
 07742 TXH +3 00000 0 06457
                 VECTOR VALUES MADNAM(1)=$   MAD$                                   118  LM00119
 02165     -2 06060 4 42124
                 VECTOR VALUES FILNAM(1)=$MADTRN$                                   119  LM00120
 00560     -0 42124 6 35145
                 VECTOR VALUES BFL=432                                              120  LM00121
 00226     +0 00000 0 00660
                 VECTOR VALUES MASK=134K                                            121  LM00122
 02167     +0 00000 0 00134
                 VECTOR VALUES MSG=$PREVIOUS$,0,0,0,$MODE,DO YOU WISH TO DELET      122  LM00123
                1E IT,$,377777777777K                                               122  LM00124
 02177     +3 77777 7 77777    02200     -2 32560 3 16373    02201     -0 66024 2 54325    02202     -2 63162 3 06063
 02203     -0 66070 4 66460    02204     -0 44624 2 57324    02205     +0 00000 0 00000    02206     +0 00000 0 00000
 02207     +0 00000 0 00000    02210     -2 46260 6 06060    02211     -0 75125 6 53146
                 GOOD=0                                                             123  LM00125
 07743 CLA +0 50000 0 06460    07744 STO +0 60100 0 00563
                 TS3=S3                                                             124  LM00126
 07745 CLA +0 50000 0 00143    07746 STO +0 60100 0 56105
                 PR=S2                                                              125  LM00127
 07747 CLA +0 50000 0 00051    07750 STO +0 60100 0 56104
                 DIM=0                                                              126  LM00128
 07751 CLA +0 50000 0 06460    07752 STO +0 60100 0 65335
                 INCARD=0                                                           127  LM00129
 07753 CLA +0 50000 0 06460    07754 STO +0 60100 0 00571
                 CARDNO=0                                                           128  LM00130
 07755 CLA +0 50000 0 06460    07756 STO +0 60100 0 00235
                 FSTCRD=0                                                           129  LM00131
 07757 CLA +0 50000 0 06460    07760 STO +0 60100 0 00562
                 ZERO.(DUM...DIM(2000))                                             130  LM00132
 07761 TSX +0 07400 4 00042    07762 TIX +2 61415 0 77461
                 HOL=1                                                              131  LM00133
 07763 CLA +0 50000 0 06461    07764 STO +0 60100 0 60161
                 HOL(1)=900                                                         132  LM00134
 07765 CLA +0 50000 0 06523    07766 STO +0 60100 0 60160
                 N = 0                                                              133  LM00135
 07767 CLA +0 50000 0 06460    07770 STO +0 60100 0 77150
                 EXECUTE FINDN.($*$)                                                134  LM00136
 07771 TSX +0 07400 4 00020    07772 TXH +3 00000 0 06664
                 MORE = 0B                                                          135  LM00137
 07773 CLA +0 50000 0 06460    07774 STO +0 60100 0 02170
                 STACON = $QQ0000$                                                  136  LM00138
 07775 CLA +0 50000 0 06645    07776 STO +0 60100 0 56122
                 ARRG=0                                                             137  LM00139
 07777 CLA +0 50000 0 06460    10000 STO +0 60100 0 56207
                 SUB=$ $                                                            138  LM00140
 10001 CLA +0 50000 0 06672    10002 STO +0 60100 0 56107
                 INTEG=0                                                            139  LM00141
 10003 CLA +0 50000 0 06460    10004 STO +0 60100 0 73227
                 DUMP=0B                                                            140  LM00142
 10005 CLA +0 50000 0 06460    10006 STO +0 60100 0 56117
                 BUMP=0B                                                            141  LM00143
 10007 CLA +0 50000 0 06460    10010 STO +0 60100 0 56116
                 LUMP=0B                                                            142  LM00144
 10011 CLA +0 50000 0 06460    10012 STO +0 60100 0 56115
                 RUMP=0B                                                            143  LM00145
 10013 CLA +0 50000 0 06460    10014 STO +0 60100 0 56114
                 CRUMP=1B                                                           144  LM00146
 10015 CLA +0 50000 0 06461    10016 STO +0 60100 0 56113
                 PUMP=0B                                                            145  LM00147
 10017 CLA +0 50000 0 06460    10020 STO +0 60100 0 56112
                 BOOLFL=0B                                                          146  LM00148
 10021 CLA +0 50000 0 06460    10022 STO +0 60100 0 56110
                 CSW=1B                                                             147  LM00149
 10023 CLA +0 50000 0 06461    10024 STO +0 60100 0 56102
                 ARG=0B                                                             148  LM00150
 10025 CLA +0 50000 0 06460    10026 STO +0 60100 0 00207
                 BOOLEAN ARG,H,CH,MORE,PSET,FORM,OPCHK.                             149  LM00151
                 H=0B                                                               150  LM00152
 10027 CLA +0 50000 0 06460    10030 STO +0 60100 0 00566
                 CH=0B                                                              151  LM00153
 10031 CLA +0 50000 0 06460    10032 STO +0 60100 0 00240
                 ERR=0                                                              152  LM00154
 10033 CLA +0 50000 0 06460    10034 STO +0 60100 0 56103
                 LAG=0                                                              153  LM00155
 10035 CLA +0 50000 0 06460    10036 STO +0 60100 0 00730
                 SW3=S3                                                             154  LM00156
 10037 CLA +0 50000 0 00143    10040 STO +0 60100 0 56106
                 SNOP = $ $                                                         155  LM00157
 10041 CLA +0 50000 0 06672    10042 STO +0 60100 0 02235
                 REM=$ $                                                            156  LM00158
 10043 CLA +0 50000 0 06672    10044 STO +0 60100 0 02222
                 RE=$$                                                              157  LM00159
 10045 CLA +0 50000 0 06672    10046 STO +0 60100 0 02223
                 ID=$MTR000$                                                        158  LM00160
 10047 CLA +0 50000 0 06625    10050 STO +0 60100 0 00570
                 FUNCT=0                                                            159  LM00161
 10051 CLA +0 50000 0 06460    10052 STO +0 60100 0 67306
                 WHOLE=0                                                            160  LM00162
 10053 CLA +0 50000 0 06460    10054 STO +0 60100 0 56120
                 CHECK=0                                                            161  LM00163
 10055 CLA +0 50000 0 06460    10056 STO +0 60100 0 00237
                 SETEOF.(S69)                                                       162  LM00164
 10057 TSX +0 07400 4 00035    10060 TXH +3 00000 0 00161
      S1         WHENEVER CHECK.NE.0.OR.REM.E.1                                     163  LM00168
 10061 CLA +0 50000 0 02222    10062 SUB +0 40200 0 06461    10063 TZE +0 10000 0 10067    10064 CLA +0 50000 0 00237
 10065 SUB +0 40200 0 06460    10066 TZE +0 10000 0 10072
                    INCARD=INCARD+1                                                 164  LM00169
 10067 CLA +0 50000 0 00571    10070 ADD +0 40000 0 06461    10071 STO +0 60100 0 00571
                 END OF CONDITIONAL                                                 165  LM00170
                 BREAD.(FILNAM,STMOUT(0)...STMOUT(13))                              166  LM00171
 10072 TSX +0 07400 4 00004    10073 TXH +3 00000 0 00561    10074 TIX +2 02237 0 02254
                 STMOUT(14)=777777777777K                                           167  LM00172
 10075 CLA +0 50000 0 06726    10076 STO +0 60100 0 02236
                 THROUGH QXPMY6,FOR ROB=0,1,ROB.G.13                                168  LM00173
 10077 CLA +0 50000 0 06460    10100 STO +0 60100 0 02233    10101 TRA +0 02000 0 10105    10102 CLA +0 50000 0 02233
 10103 ADD +0 40000 0 06461    10104 STO +0 60100 0 02233    10105 CLA +0 50000 0 02233    10106 SUB +0 40200 0 06475
 10107 TZE +0 10000 0 10111    10110 TPL +0 12000 0 10154
                 THROUGH QXPMY6,FOR SLOB=1,1,SLOB.G.6                               169  LM00174
 10111 CLA +0 50000 0 06461    10112 STO +0 60100 0 02234    10113 TRA +0 02000 0 10117    10114 CLA +0 50000 0 02234
 10115 ADD +0 40000 0 06461    10116 STO +0 60100 0 02234    10117 CLA +0 50000 0 02234    10120 SUB +0 40200 0 06466
 10121 TZE +0 10000 0 10123    10122 TPL +0 12000 0 10153
      QXPMY6     J(6*ROB+SLOB)=(STMOUT(ROB).RS.(6*(6-SLOB))).LS.30.V.$0$            170  LM00175
 10123 CLA +0 50000 0 06466    10124 SUB +0 40200 0 02234    10125 XCA +0 13100 0 00000    10126 MPY +0 20000 0 06466
 10127 LXA +0 53400 1 02233    10130 XCA +0 13100 0 00000    10131 STA +0 62100 0 10133    10132 CAL -0 50000 1 02254
 10133 LGR -0 76500 0 00000    10134 SLW +0 60200 0 14500    10135 CAL -0 50000 0 06507    10136 STA +0 62100 0 10140
 10137 CAL -0 50000 0 14500    10140 ALS +0 76700 0 00000    10141 ORA -0 50100 0 06526    10142 SLW +0 60200 0 14500
 10143 LDQ +0 56000 0 06466    10144 MPY +0 20000 0 02233    10145 XCA +0 13100 0 00000    10146 ADD +0 40000 0 02234
 10147 PAX +0 73400 1 00000    10150 CLA +0 50000 0 14500    10151 STO +0 60100 1 00720    10152 TRA +0 02000 0 10114
 10153 TRA +0 02000 0 10102
                 VECTOR VALUES IN=$1H  , 80C1*$                                     171  LM00176
 00572     +1 00023 0 15460    00573     +0 13060 6 07360
                 WHENEVER J(1).E.$C$                                                172  LM00177
 10154 CLA +0 50000 0 00717    10155 SUB +0 40200 0 06553    10156 TNZ -0 10000 0 10162
                    REM=1                                                           173  LM00178
 10157 CLA +0 50000 0 06461    10160 STO +0 60100 0 02222
                 OTHERWISE                                                          174  LM00179
 10161 TRA +0 02000 0 10164
                    REM=$$                                                          175  LM00180
 10162 CLA +0 50000 0 06672    10163 STO +0 60100 0 02222
                 END OF CONDITIONAL                                                 176  LM00181
                 WHENEVER J(6).NE.$$.AND.J(6).NE.$0$.AND.REM.NE.1                   177  LM00182
 10164 CLA +0 50000 0 02222    10165 SUB +0 40200 0 06461    10166 TZE +0 10000 0 10201    10167 CLA +0 50000 0 00712
 10170 SUB +0 40200 0 06526    10171 TZE +0 10000 0 10201    10172 CLA +0 50000 0 00712    10173 SUB +0 40200 0 06672
 10174 TZE +0 10000 0 10201
                 WHENEVER MORE, TRANSFER TO S1                                      178  LM00183
 10175 NZT -0 52000 0 02170    10176 TRA +0 02000 0 10200    10177 TRA +0 02000 0 00103
                 TRANSFER TO S6                                                     179  LM00184
 10200 TRA +0 02000 0 00162
                 END OF CONDITIONAL                                                 180  LM00185
                 A2=0                                                               181  LM00186
 10201 CLA +0 50000 0 06460    10202 STO +0 60100 0 00203
                 A1=1                                                               182  LM00187
 10203 CLA +0 50000 0 06461    10204 STO +0 60100 0 00202
                 BOOL=0B                                                            183  LM00188
 10205 CLA +0 50000 0 06460    10206 STO +0 60100 0 00227
                 WHENEVER J(1).NE.$$.AND.(J(1).G.$9$.OR.J(1).L.$0$)                 184  LM00189
 10207 CLA +0 50000 0 00717    10210 SUB +0 40200 0 06526    10211 TZE +0 10000 0 10213    10212 TMI -0 12000 0 10217
 10213 CLA +0 50000 0 00717    10214 SUB +0 40200 0 06535    10215 TZE +0 10000 0 10231    10216 TMI -0 12000 0 10231
 10217 CLA +0 50000 0 00717    10220 SUB +0 40200 0 06672    10221 TZE +0 10000 0 10231
                 A1=2                                                               185  LM00190
 10222 CLA +0 50000 0 06462    10223 STO +0 60100 0 00202
                 WHENEVER J(1).E.$B$, BOOL=1B                                       186  LM00191
 10224 CLA +0 50000 0 00717    10225 SUB +0 40200 0 06547    10226 TNZ -0 10000 0 10231    10227 CLA +0 50000 0 06461
 10230 STO +0 60100 0 00227
                 END OF CONDITIONAL                                                 187  LM00192
                 THROUGH S5, FOR A1=A1,1,A1.G.5                                     188  LM00193
 10231 CLA +0 50000 0 00202    10232 STO +0 60100 0 00202    10233 TRA +0 02000 0 10237    10234 CLA +0 50000 0 00202
 10235 ADD +0 40000 0 06461    10236 STO +0 60100 0 00202    10237 CLA +0 50000 0 00202    10240 SUB +0 40200 0 06465
 10241 TZE +0 10000 0 10243    10242 TPL +0 12000 0 10257
                 WHENEVER J(A1).NE.$$                                               189  LM00194
 10243 LXA +0 53400 1 00202    10244 CLA +0 50000 1 00720    10245 SUB +0 40200 0 06672    10246 TZE +0 10000 0 10256
                 A 2=A2+1                                                           190  LM00195
 10247 CLA +0 50000 0 00203    10250 ADD +0 40000 0 06461    10251 STO +0 60100 0 00203
                 K(A2)=J(A1)                                                        191  LM00196
 10252 LXA +0 53400 1 00203    10253 LXA +0 53400 2 00202    10254 CLA +0 50000 2 00720    10255 STO +0 60100 1 00727
                 END OF CONDITIONAL                                                 192  LM00197
             S5  CONTINUE                                                           193  LM00198
 10256 TRA +0 02000 0 10234
                 WHENEVER A2.NE.0.AND.J(1).NE.$C$                                   194  LM00199
 10257 CLA +0 50000 0 00717    10260 SUB +0 40200 0 06553    10261 TZE +0 10000 0 10303    10262 CLA +0 50000 0 00203
 10263 SUB +0 40200 0 06460    10264 TZE +0 10000 0 10303
                 NSNO=STACON.V.BNBCD.(FINDN.(COMPZ.(A2,K(1))))                      195  LM00200
 10265 TSX +0 07400 4 00011    10266 TXH +3 00000 0 00203    10267 TXH +3 00000 0 00726    10270 STO +0 60100 0 14500
 10271 TSX +0 07400 4 00020    10272 TXH +3 00000 0 14500    10273 STO +0 60100 0 14500    10274 TSX +0 07400 4 00002
 10275 TXH +3 00000 0 14500    10276 STO +0 60100 0 14500    10277 CAL -0 50000 0 56122    10300 ORA -0 50100 0 14500
 10301 SLW +0 60200 0 56123
                 OTHERWISE                                                          196  LM00201
 10302 TRA +0 02000 0 10305
                 NSNO=$ $                                                           197  LM00202
 10303 CLA +0 50000 0 06672    10304 STO +0 60100 0 56123
                 END OF CONDITIONAL                                                 198  LM00203
      S7         WHENEVER RE.E.1                                                    199  LM00204
 10305 CLA +0 50000 0 02223    10306 SUB +0 40200 0 06461    10307 TNZ -0 10000 0 10311
      S7A        CONTINUE                                                           200  LM00205
                    TRANSFER TO ROUT                                                201  LM00206
 10310 TRA +0 02000 0 00067
                 END OF CONDITIONAL                                                 202  LM00207
                 WHENEVER CHECK .E.0, TRANSFER TO S3                                203  LM00208
 10311 CLA +0 50000 0 00237    10312 SUB +0 40200 0 06460    10313 TNZ -0 10000 0 10315    10314 TRA +0 02000 0 00143
                 I(CCT+1)=0                                                         204  LM00209
 10315 CLA +0 50000 0 56121    10316 ADD +0 40000 0 06461    10317 PAX +0 73400 1 00000    10320 CLA +0 50000 0 06460
 10321 STO +0 60100 1 61414
                 FLAG = $ $                                                         205  LM00210
 10322 CLA +0 50000 0 06672    10323 STO +0 60100 0 56111
                 WHENEVER COMPZ.(3,I(1)).E.$END$                                    206  LM00211
 10324 TSX +0 07400 4 00011    10325 TXH +3 00000 0 06463    10326 TXH +3 00000 0 61413    10327 SUB +0 40200 0 06565
 10330 TNZ -0 10000 0 10364
                 WHENEVER CCT.E.3                                                   207  LM00212
 10331 CLA +0 50000 0 56121    10332 SUB +0 40200 0 06463    10333 TNZ -0 10000 0 10340
      S9A        LAG=$END$                                                          208  LM00213
 10334 CLA +0 50000 0 06565    10335 STO +0 60100 0 00730
                 TRANSFER TO S3                                                     209  LM00214
 10336 TRA +0 02000 0 00143
                 OR WHENEVER I(4).E.$($                                             210  LM00215
 10337 TRA +0 02000 0 10364    10340 CLA +0 50000 0 61410    10341 SUB +0 40200 0 06724    10342 TNZ -0 10000 0 10364
                 THROUGH S9, FOR A1=5,1,A1.G.CCT                                    211  LM00216
 10343 CLA +0 50000 0 06465    10344 STO +0 60100 0 00202    10345 TRA +0 02000 0 10351    10346 CLA +0 50000 0 00202
 10347 ADD +0 40000 0 06461    10350 STO +0 60100 0 00202    10351 CLA +0 50000 0 00202    10352 SUB +0 40200 0 56121
 10353 TZE +0 10000 0 10355    10354 TPL +0 12000 0 10363
      S9         WHENEVER I(A1).E.$=$, TRANSFER TO S30                              212  LM00217
 10355 LXA +0 53400 1 00202    10356 CLA +0 50000 1 61414    10357 SUB +0 40200 0 06537    10360 TNZ -0 10000 0 10362
 10361 TRA +0 02000 0 00131    10362 TRA +0 02000 0 10346
                 TRANSFER TO S9A                                                    213  LM00218
 10363 TRA +0 02000 0 00175
                 END OF CONDITIONAL                                                 214  LM00219
                 END OF CONDITIONAL                                                 215  LM00220
                 WHENEVER I(1).E.$A$,TRANSFER TO ATEST                              216  LM00221
 10364 CLA +0 50000 0 61413    10365 SUB +0 40200 0 06544    10366 TNZ -0 10000 0 10370    10367 TRA +0 02000 0 00052
                 WHENEVER I(1).E.$B$,TRANSFER TO BTEST                              217  LM00222
 10370 CLA +0 50000 0 61413    10371 SUB +0 40200 0 06547    10372 TNZ -0 10000 0 10374    10373 TRA +0 02000 0 00053
                 WHENEVER I(1).E.$C$,TRANSFER TO CTEST                              218  LM00223
 10374 CLA +0 50000 0 61413    10375 SUB +0 40200 0 06553    10376 TNZ -0 10000 0 10400    10377 TRA +0 02000 0 00054
                 WHENEVER I(1).E.$D$,TRANSFER TO DTEST                              219  LM00224
 10400 CLA +0 50000 0 61413    10401 SUB +0 40200 0 06555    10402 TNZ -0 10000 0 10404    10403 TRA +0 02000 0 00055
                 WHENEVER I(1).E.$E$,TRANSFER TO ETEST                              220  LM00225
 10404 CLA +0 50000 0 61413    10405 SUB +0 40200 0 06573    10406 TNZ -0 10000 0 10410    10407 TRA +0 02000 0 00056
                 WHENEVER I(1).E.$F$,TRANSFER TO FTEST                              221  LM00226
 10410 CLA +0 50000 0 61413    10411 SUB +0 40200 0 06603    10412 TNZ -0 10000 0 10414    10413 TRA +0 02000 0 00060
                 WHENEVER I(1).E.$G$,TRANSFER TO GTEST                              222  LM00227
 10414 CLA +0 50000 0 61413    10415 SUB +0 40200 0 06607    10416 TNZ -0 10000 0 10420    10417 TRA +0 02000 0 00061
                 WHENEVER I(1).E.$I$,TRANSFER TO ITEST                              223  LM00228
 10420 CLA +0 50000 0 61413    10421 SUB +0 40200 0 06615    10422 TNZ -0 10000 0 10424    10423 TRA +0 02000 0 00062
                 WHENEVER I(1).E.$P$,TRANSFER TO PTEST                              224  LM00229
 10424 CLA +0 50000 0 61413    10425 SUB +0 40200 0 06643    10426 TNZ -0 10000 0 10430    10427 TRA +0 02000 0 00063
                 WHENEVER I(1).E.$R$,TRANSFER TO RTEST                              225  LM00230
 10430 CLA +0 50000 0 61413    10431 SUB +0 40200 0 06662    10432 TNZ -0 10000 0 10434    10433 TRA +0 02000 0 00070
                 WHENEVER I(1).E.$S$,TRANSFER TO STEST                              226  LM00231
 10434 CLA +0 50000 0 61413    10435 SUB +0 40200 0 06676    10436 TNZ -0 10000 0 10440    10437 TRA +0 02000 0 00200
                 WHENEVER I(1).E.$W$,TRANSFER TO WTEST                              227  LM00232
 10440 CLA +0 50000 0 61413    10441 SUB +0 40200 0 06717    10442 TNZ -0 10000 0 10444    10443 TRA +0 02000 0 00201
                 TRANSFER TO S30                                                    228  LM00233
 10444 TRA +0 02000 0 00131
      ATEST      WHENEVER COMPZ.(5,I(2),I(0)).E.$SSIGN$,TRANSFER TO S22             229  LM00234
 10445 TSX +0 07400 4 00011    10446 TXH +3 00000 0 06465    10447 TXH +3 00000 0 61412    10450 TXH +3 00000 0 61414
 10451 SUB +0 40200 0 06677    10452 TNZ -0 10000 0 10454    10453 TRA +0 02000 0 00120
                 TRANSFER TO S30                                                    230  LM00235
 10454 TRA +0 02000 0 00131
      BTEST      WHENEVER COMPZ.(6,I(2),I(0)).E.$ACKSPA$,TRANSFER TO S72            231  LM00236
 10455 TSX +0 07400 4 00011    10456 TXH +3 00000 0 06466    10457 TXH +3 00000 0 61412    10460 TXH +3 00000 0 61414
 10461 SUB +0 40200 0 06540    10462 TNZ -0 10000 0 10464    10463 TRA +0 02000 0 00165
                 TRANSFER TO S30                                                    232  LM00237
 10464 TRA +0 02000 0 00131
      CTEST      WHENEVER COMPZ.(6,I(2),I(0)).E.$ONTINU$,TRANSFER TO S2             233  LM00238
 10465 TSX +0 07400 4 00011    10466 TXH +3 00000 0 06466    10467 TXH +3 00000 0 61412    10470 TXH +3 00000 0 61414
 10471 SUB +0 40200 0 06632    10472 TNZ -0 10000 0 10474    10473 TRA +0 02000 0 00051
                 WHENEVER I.E.$ARDIDI$                                              234  LM00239
 10474 CLA +0 50000 0 61414    10475 SUB +0 40200 0 06543    10476 TNZ -0 10000 0 10524
                 WHENEVER CARDNO.G.FSTCRD, TRANSFER TO S1001                        235  LM00240
 10477 CLA +0 50000 0 00235    10500 SUB +0 40200 0 00562    10501 TZE +0 10000 0 10504    10502 TMI -0 12000 0 10504
 10503 TRA +0 02000 0 00072
                 EXECUTE COMPZ.(3,I(9),ID)                                          236  LM00241
 10504 TSX +0 07400 4 00011    10505 TXH +3 00000 0 06463    10506 TXH +3 00000 0 61403    10507 TXH +3 00000 0 00570
                 CARDNO=BCDBN.(ZCOMPZ.(5,I(12),I))-1                                237  LM00242
 10510 TSX +0 07400 4 00041    10511 TXH +3 00000 0 06465    10512 TXH +3 00000 0 61400    10513 TXH +3 00000 0 61414
 10514 STO +0 60100 0 14500    10515 TSX +0 07400 4 00001    10516 TXH +3 00000 0 14500    10517 SUB +0 40200 0 06461
 10520 STO +0 60100 0 00235
                 FSTCRD=CARDNO                                                      238  LM00243
 10521 CLA +0 50000 0 00235    10522 STO +0 60100 0 00562
                 TRANSFER TO S1002                                                  239  LM00244
 10523 TRA +0 02000 0 00073
                 END OF CONDITIONAL                                                 240  LM00245
                 WHENEVER COMPZ.(5,I(2),I(0)).E.$OMMON$.AND.I(7).NE.$($,TRANSF      241  LM00246
                1ER TO S70                                                          241  LM00247
 10524 CLA +0 50000 0 61405    10525 SUB +0 40200 0 06724    10526 TZE +0 10000 0 10536    10527 TSX +0 07400 4 00011
 10530 TXH +3 00000 0 06465    10531 TXH +3 00000 0 61412    10532 TXH +3 00000 0 61414    10533 SUB +0 40200 0 06631
 10534 TNZ -0 10000 0 10536    10535 TRA +0 02000 0 00163
                 WHENEVER COMPZ.(3,I(2),I(0)).E.$ALL$,TRANSFER TO S23A              242  LM00248
 10536 TSX +0 07400 4 00011    10537 TXH +3 00000 0 06463    10540 TXH +3 00000 0 61412    10541 TXH +3 00000 0 61414
 10542 SUB +0 40200 0 06541    10543 TNZ -0 10000 0 10545    10544 TRA +0 02000 0 00121
                 TRANSFER TO S30                                                    243  LM00249
 10545 TRA +0 02000 0 00131
      DTEST      WHENEVER COMPZ.(6,I(2),I(0)).E.$IMENSI$,TRANSFER TO S71            244  LM00250
 10546 TSX +0 07400 4 00011    10547 TXH +3 00000 0 06466    10550 TXH +3 00000 0 61412    10551 TXH +3 00000 0 61414
 10552 SUB +0 40200 0 06611    10553 TNZ -0 10000 0 10555    10554 TRA +0 02000 0 00164
                 WHENEVER I(2).E.$O$,TRANSFER TO S600                               245  LM00251
 10555 CLA +0 50000 0 61412    10556 SUB +0 40200 0 06634    10557 TNZ -0 10000 0 10561    10560 TRA +0 02000 0 00150
                 TRANSFER TO S30                                                    246  LM00252
 10561 TRA +0 02000 0 00131
      ETEST      WHENEVER COMPZ.(6,I(2),I(0)).E.$QUIVAL$,TRANSFER TO S2             247  LM00253
 10562 TSX +0 07400 4 00011    10563 TXH +3 00000 0 06466    10564 TXH +3 00000 0 61412    10565 TXH +3 00000 0 61414
 10566 SUB +0 40200 0 06646    10567 TNZ -0 10000 0 10571    10570 TRA +0 02000 0 00051
                 WHENEVER I(0).E.$NDFILE$,TRANSFER TO S27                           248  LM00254
 10571 CLA +0 50000 0 61414    10572 SUB +0 40200 0 06626    10573 TNZ -0 10000 0 10575    10574 TRA +0 02000 0 00124
                 TRANSFER TO S30                                                    249  LM00255
 10575 TRA +0 02000 0 00131
      FTEST      WHENEVER COMPZ.(6,I(2),I(0)).E.$REQUEN$,TRANSFER TO S3             250  LM00256
 10576 TSX +0 07400 4 00011    10577 TXH +3 00000 0 06466    10600 TXH +3 00000 0 61412    10601 TXH +3 00000 0 61414
 10602 SUB +0 40200 0 06654    10603 TNZ -0 10000 0 10605    10604 TRA +0 02000 0 00143
                 WHENEVER I(0).E.$UNCTIO$ ,TRANSFER TO S23                          251  LM00257
 10605 CLA +0 50000 0 61414    10606 SUB +0 40200 0 06710    10607 TNZ -0 10000 0 10611    10610 TRA +0 02000 0 00122
                 WHENEVER I(0).E.$ORMAT($,TRANSFER TO S81                           252  LM00258
 10611 CLA +0 50000 0 61414    10612 SUB +0 40200 0 06633    10613 TNZ -0 10000 0 10615    10614 TRA +0 02000 0 00172
                 TRANSFER TO S30                                                    253  LM00259
 10615 TRA +0 02000 0 00131
      GTEST      WHENEVER COMPZ.(3,I(2),I(0)).E.$OTO$,TRANSFER TO S20               254  LM00260
 10616 TSX +0 07400 4 00011    10617 TXH +3 00000 0 06463    10620 TXH +3 00000 0 61412    10621 TXH +3 00000 0 61414
 10622 SUB +0 40200 0 06635    10623 TNZ -0 10000 0 10625    10624 TRA +0 02000 0 00113
      ITEST      WHENEVER I.E.$F(SENS$.OR.I.E.$FACCUM$.OR.I.E.$FQUOTI$.OR.          255  LM00261
                1COMPZ.(6,I(2),I).E.$FDIVID$,TRANSFER TO S29                        255  LM00262
 10625 TSX +0 07400 4 00011    10626 TXH +3 00000 0 06466    10627 TXH +3 00000 0 61412    10630 TXH +3 00000 0 61414
 10631 SUB +0 40200 0 06601    10632 TZE +0 10000 0 10644    10633 CLA +0 50000 0 61414    10634 SUB +0 40200 0 06602
 10635 TZE +0 10000 0 10644    10636 CLA +0 50000 0 61414    10637 SUB +0 40200 0 06600    10640 TZE +0 10000 0 10644
 10641 CLA +0 50000 0 61414    10642 SUB +0 40200 0 06606    10643 TNZ -0 10000 0 10645    10644 TRA +0 02000 0 00126
                 WHENEVER COMPZ.(2,I(2),I(0)).E.$F($,TRANSFER TO S21                256  LM00263
 10645 TSX +0 07400 4 00011    10646 TXH +3 00000 0 06462    10647 TXH +3 00000 0 61412    10650 TXH +3 00000 0 61414
 10651 SUB +0 40200 0 06605    10652 TNZ -0 10000 0 10654    10653 TRA +0 02000 0 00117
                 TRANSFER TO S30                                                    257  LM00264
 10654 TRA +0 02000 0 00131
      PTEST      WHENEVER I.E.$UNCH$.OR.COMPZ.(4,I(2),I(0)).E.$RINT$,TRANSF         258  LM00265
                1ER TO S80                                                          258  LM00266
 10655 TSX +0 07400 4 00011    10656 TXH +3 00000 0 06464    10657 TXH +3 00000 0 61412    10660 TXH +3 00000 0 61414
 10661 SUB +0 40200 0 06656    10662 TZE +0 10000 0 10666    10663 CLA +0 50000 0 61414    10664 SUB +0 40200 0 06707
 10665 TNZ -0 10000 0 10667    10666 TRA +0 02000 0 00171
                 WHENEVER I(0).E.$AUSE$,TRANSFER TO S18A                            259  LM00267
 10667 CLA +0 50000 0 61414    10670 SUB +0 40200 0 06545    10671 TNZ -0 10000 0 10673    10672 TRA +0 02000 0 00102
                 TRANSFER TO S30                                                    260  LM00268
 10673 TRA +0 02000 0 00131
      RTEST      WHENEVER COMPZ.(5,I(2),I(0)).E.$ETURN$,TRANSFER TO S24             261  LM00269
 10674 TSX +0 07400 4 00011    10675 TXH +3 00000 0 06465    10676 TXH +3 00000 0 61412    10677 TXH +3 00000 0 61414
 10700 SUB +0 40200 0 06574    10701 TNZ -0 10000 0 10703    10702 TRA +0 02000 0 00123
                 WHENEVER COMPZ.(6,I(2),I(0)).E.$EADTAP$,TRANSFER TO S65            262  LM00270
 10703 TSX +0 07400 4 00011    10704 TXH +3 00000 0 06466    10705 TXH +3 00000 0 61412    10706 TXH +3 00000 0 61414
 10707 SUB +0 40200 0 06561    10710 TNZ -0 10000 0 10712    10711 TRA +0 02000 0 00156
                 WHENEVER I.E. $EADDRU$,TRANSFER TO S64A                            263  LM00271
 10712 CLA +0 50000 0 61414    10713 SUB +0 40200 0 06556    10714 TNZ -0 10000 0 10716    10715 TRA +0 02000 0 00153
                 WHENEVER I(0).E.$EADINP$,TRANSFER TO S64                           264  LM00272
 10716 CLA +0 50000 0 61414    10717 SUB +0 40200 0 06557    10720 TNZ -0 10000 0 10722    10721 TRA +0 02000 0 00155
                 WHENEVER COMPZ.(5,I(2),I(0)).E.$EWIND$,TRANSFER TO S73             265  LM00273
 10722 TSX +0 07400 4 00011    10723 TXH +3 00000 0 06465    10724 TXH +3 00000 0 61412    10725 TXH +3 00000 0 61414
 10726 SUB +0 40200 0 06575    10727 TNZ -0 10000 0 10731    10730 TRA +0 02000 0 00166
                 WHENEVERCOMPZ.(3,I(2),I(0)).E.$EAD$,TRANSFER TO S66                266  LM00274
 10731 TSX +0 07400 4 00011    10732 TXH +3 00000 0 06463    10733 TXH +3 00000 0 61412    10734 TXH +3 00000 0 61414
 10735 SUB +0 40200 0 06560    10736 TNZ -0 10000 0 10740    10737 TRA +0 02000 0 00157
                 TRANSFER TO S30                                                    267  LM00275
 10740 TRA +0 02000 0 00131
      STEST      WHENEVER COMPZ.(6,I(2),I(0)).E.$ENSELI$,TRANSFER TO S133           268  LM00276
 10741 TSX +0 07400 4 00011    10742 TXH +3 00000 0 06466    10743 TXH +3 00000 0 61412    10744 TXH +3 00000 0 61414
 10745 SUB +0 40200 0 06566    10746 TNZ -0 10000 0 10750    10747 TRA +0 02000 0 00077
                 WHENEVER I(0).E.$UBROUT$,TRANSFER TO S23                           269  LM00277
 10750 CLA +0 50000 0 61414    10751 SUB +0 40200 0 06706    10752 TNZ -0 10000 0 10754    10753 TRA +0 02000 0 00122
                 WHENEVERI.E.$TATEME$,TRANSFER TO S1000                             270  LM00278
 10754 CLA +0 50000 0 61414    10755 SUB +0 40200 0 06701    10756 TNZ -0 10000 0 10760    10757 TRA +0 02000 0 00071
                 WHENEVER COMPZ.(3,I(2),I(0)).E.$TOP$,TRANSFER TO S29A              271  LM00279
 10760 TSX +0 07400 4 00011    10761 TXH +3 00000 0 06463    10762 TXH +3 00000 0 61412    10763 TXH +3 00000 0 61414
 10764 SUB +0 40200 0 06703    10765 TNZ -0 10000 0 10767    10766 TRA +0 02000 0 00125
                 TRANSFER TO S30                                                    272  LM00280
 10767 TRA +0 02000 0 00131
      WTEST      WHENEVER COMPZ.(6,I(2),I).E.$RITEDR$,TRANSFER TO S64B              273  LM00281
 10770 TSX +0 07400 4 00011    10771 TXH +3 00000 0 06466    10772 TXH +3 00000 0 61412    10773 TXH +3 00000 0 61414
 10774 SUB +0 40200 0 06657    10775 TNZ -0 10000 0 10777    10776 TRA +0 02000 0 00154
                 WHENEVER I(0).E.$RITETA$,TRANSFER TO S63                           274  LM00282
 10777 CLA +0 50000 0 61414    11000 SUB +0 40200 0 06661    11001 TNZ -0 10000 0 11003    11002 TRA +0 02000 0 00152
                 WHENEVER I(0).E.$RITEOU$,TRANSFER TO S67                           275  LM00283
 11003 CLA +0 50000 0 61414    11004 SUB +0 40200 0 06660    11005 TNZ -0 10000 0 11007    11006 TRA +0 02000 0 00160
                 TRANSFER TO S30                                                    276  LM00284
 11007 TRA +0 02000 0 00131
      S1000      WHENEVER CARDNO.G.FSTCRD                                           277  LM00288
 11010 CLA +0 50000 0 00235    11011 SUB +0 40200 0 00562    11012 TZE +0 10000 0 11017    11013 TMI -0 12000 0 11017
      S1001      ERRO=5                                                             278  LM00289
 11014 CLA +0 50000 0 06465    11015 STO +0 60100 0 00557
                 TRANSFER TO S60                                                    279  LM00290
 11016 TRA +0 02000 0 00151
                 END OF CONDITIONAL                                                 280  LM00291
                 STACON=ZCOMPZ.(2,I(17)).LS.24                                      281  LM00292
 11017 TSX +0 07400 4 00041    11020 TXH +3 00000 0 06462    11021 TXH +3 00000 0 61373    11022 STO +0 60100 0 14500
 11023 CAL -0 50000 0 06505    11024 STA +0 62100 0 11026    11025 CAL -0 50000 0 14500    11026 ALS +0 76700 0 00000
 11027 SLW +0 60200 0 56122
      S1002      WHENEVER STNO.NE.$$                                                282  LM00293
 11030 CLA +0 50000 0 56124    11031 SUB +0 40200 0 06672    11032 TZE +0 10000 0 11036
                 N=N-1                                                              283  LM00294
 11033 CLA +0 50000 0 77150    11034 SUB +0 40200 0 06461    11035 STO +0 60100 0 77150
                 END OF CONDITIONAL                                                 284  LM00295
      S3         WHENEVER HOL.NE.1                                                  285  LM00299
 11036 CLA +0 50000 0 60161    11037 SUB +0 40200 0 06461    11040 TZE +0 10000 0 11307
                 ARG=1B                                                             286  LM00300
 11041 CLA +0 50000 0 06461    11042 STO +0 60100 0 00207
                 WHOLE =1                                                           287  LM00301
 11043 CLA +0 50000 0 06461    11044 STO +0 60100 0 56120
                 CT=1                                                               288  LM00302
 11045 CLA +0 50000 0 06461    11046 STO +0 60100 0 00243
                 DSAVE=0                                                            289  LM00303
 11047 CLA +0 50000 0 06460    11050 STO +0 60100 0 00554
                 STNO =$ $                                                          290  LM00304
 11051 CLA +0 50000 0 06672    11052 STO +0 60100 0 56124
      S3Y        I(4)=STACON.V.BNBCD.(HOL(CT+1)-1)                                  291  LM00305
 11053 CLA +0 50000 0 00243    11054 ADD +0 40000 0 06461    11055 PAX +0 73400 1 00000    11056 CLA +0 50000 1 60161
 11057 SUB +0 40200 0 06461    11060 STO +0 60100 0 14500    11061 TSX +0 07400 4 00002    11062 TXH +3 00000 0 14500
 11063 STO +0 60100 0 14500    11064 CAL -0 50000 0 56122    11065 ORA -0 50100 0 14500    11066 SLW +0 60200 0 61410
                 I(1)=$VECTOR$                                                      292  LM00306
 11067 CLA +0 50000 0 06712    11070 STO +0 60100 0 61413
                 I(2)=$ VALUE$                                                      293  LM00307
 11071 CLA +0 50000 0 06675    11072 STO +0 60100 0 61412
                 I(3)=$S$                                                           294  LM00308
 11073 CLA +0 50000 0 06676    11074 STO +0 60100 0 61411
                 I(5)=$=77777$                                                      295  LM00309
 11075 CLA +0 50000 0 06536    11076 STO +0 60100 0 61407
                 I(6)=$777777$                                                      296  LM00310
 11077 CLA +0 50000 0 06533    11100 STO +0 60100 0 61406
                 I(7)=074260736053K                                                 297  LM00311
 11101 CLA +0 50000 0 06534    11102 STO +0 60100 0 61405
                 CCT=HOL(CT)+8                                                      298  LM00312
 11103 LXA +0 53400 1 00243    11104 CLA +0 50000 1 60161    11105 ADD +0 40000 0 06470    11106 STO +0 60100 0 56121
                 I(CCT)=536060606060K                                               299  LM00313
 11107 LXA +0 53400 1 56121    11110 CLA +0 50000 0 06663    11111 STO +0 60100 1 61414
                 THROUGH S3X, FOR A1=1,1,A1.G.HOL(CT)                               300  LM00314
 11112 CLA +0 50000 0 06461    11113 STO +0 60100 0 00202    11114 TRA +0 02000 0 11120    11115 CLA +0 50000 0 00202
 11116 ADD +0 40000 0 06461    11117 STO +0 60100 0 00202    11120 LXA +0 53400 2 00243    11121 CLA +0 50000 0 00202
 11122 SUB +0 40200 2 60161    11123 TZE +0 10000 0 11125    11124 TPL +0 12000 0 11140
      S3X        I(A1+7)=HOL(CT+A1+1)                                               301  LM00315
 11125 CLA +0 50000 0 00243    11126 ADD +0 40000 0 00202    11127 ADD +0 40000 0 06461    11130 STO +0 60100 0 14500
 11131 CLA +0 50000 0 00202    11132 ADD +0 40000 0 06467    11133 PAX +0 73400 1 00000    11134 LXA +0 53400 2 14500
 11135 CLA +0 50000 2 60161    11136 STO +0 60100 1 61414    11137 TRA +0 02000 0 11115
                 SW3=S88A                                                           302  LM00316
 11140 CLA +0 50000 0 00173    11141 STO +0 60100 0 56106
                 TRANSFER TO S2                                                     303  LM00317
 11142 TRA +0 02000 0 00051
      S88A       SW3=S88                                                            304  LM00318
 11143 CLA +0 50000 0 00174    11144 STO +0 60100 0 56106
                 I(1)=$EQUIVA$                                                      305  LM00319
 11145 CLA +0 50000 0 06571    11146 STO +0 60100 0 61413
                 I(2)=$LENCE$                                                       306  LM00320
 11147 CLA +0 50000 0 06621    11150 STO +0 60100 0 61412
                 I(3)=$     ($                                                      307  LM00321
 11151 CLA +0 50000 0 06673    11152 STO +0 60100 0 61411
                 I(5)=$  ,$                                                         308  LM00322
 11153 CLA +0 50000 0 06674    11154 STO +0 60100 0 61407
                 I(6)=STACON.V.BNBCD.(HOL(CT+1))                                    309  LM00323
 11155 CLA +0 50000 0 00243    11156 ADD +0 40000 0 06461    11157 SUB +0 40200 0 11160    11160 TXH +3 00000 0 60161
 11161 STA +0 62100 0 11163    11162 TSX +0 07400 4 00002    11163 TXH +3 00000 0 00000    11164 STO +0 60100 0 14500
 11165 CAL -0 50000 0 56122    11166 ORA -0 50100 0 14500    11167 SLW +0 60200 0 61406
                 I(7)=$)$                                                           310  LM00324
 11170 CLA +0 50000 0 06620    11171 STO +0 60100 0 61405
                 DSAVE=DSAVE+3                                                      311  LM00325
 11172 CLA +0 50000 0 00554    11173 ADD +0 40000 0 06463    11174 STO +0 60100 0 00554
                 DSAVE(DSAVE-2)=I(6)                                                312  LM00326
 11175 CLA +0 50000 0 00554    11176 SUB +0 40200 0 06462    11177 PAX +0 73400 1 00000    11200 CLA +0 50000 0 61406
 11201 STO +0 60100 1 00554
                 DSAVE(DSAVE-1)=$(0000*$.EV.LZR.(BNBCD.(HOL(CT))).RS.6              313  LM00327
 11202 CLA +0 50000 0 00243    11203 SUB +0 40200 0 11204    11204 TXH +3 00000 0 60161    11205 STA +0 62100 0 11207
 11206 TSX +0 07400 4 00002    11207 TXH +3 00000 0 00000    11210 STO +0 60100 0 14500    11211 TSX +0 07400 4 00025
 11212 TXH +3 00000 0 14500    11213 STO +0 60100 0 14500    11214 CAL -0 50000 0 06466    11215 STA +0 62100 0 11217
 11216 CAL -0 50000 0 14500    11217 LGR -0 76500 0 00000    11220 ERA +0 32200 0 06722    11221 SLW +0 60200 0 14500
 11222 CLA +0 50000 0 00554    11223 SUB +0 40200 0 06461    11224 PAX +0 73400 1 00000    11225 CLA +0 50000 0 14500
 11226 STO +0 60100 1 00554
                 DSAVE(DSAVE)=$,$                                                   314  LM00328
 11227 LXA +0 53400 1 00554    11230 CLA +0 50000 0 06721    11231 STO +0 60100 1 00554
                 CCT=7                                                              315  LM00329
 11232 CLA +0 50000 0 06467    11233 STO +0 60100 0 56121
                 CT=CT+HOL(CT) +2                                                   316  LM00330
 11234 LXA +0 53400 2 00243    11235 CLA +0 50000 0 00243    11236 ADD +0 40000 2 60161    11237 ADD +0 40000 0 06462
 11240 STO +0 60100 0 00243
                 TRANSFER TO S2                                                     317  LM00331
 11241 TRA +0 02000 0 00051
      S88        WHENEVER HOL(CT).NE.900,TRANSFER TO S3Y                            318  LM00332
 11242 LXA +0 53400 1 00243    11243 CLA +0 50000 1 60161    11244 SUB +0 40200 0 06523    11245 TZE +0 10000 0 11247
 11246 TRA +0 02000 0 00144
                 HOL=1                                                              319  LM00333
 11247 CLA +0 50000 0 06461    11250 STO +0 60100 0 60161
                 HOL(1)=900                                                         320  LM00334
 11251 CLA +0 50000 0 06523    11252 STO +0 60100 0 60160
                 ARG=0B                                                             321  LM00335
 11253 CLA +0 50000 0 06460    11254 STO +0 60100 0 00207
                 CCT=DSAVE+1                                                        322  LM00336
 11255 CLA +0 50000 0 00554    11256 ADD +0 40000 0 06461    11257 STO +0 60100 0 56121
                 THROUGH S88B, FOR I=1,1,I.E.DSAVE                                  323  LM00337
 11260 CLA +0 50000 0 06461    11261 STO +0 60100 0 61414    11262 TRA +0 02000 0 11266    11263 CLA +0 50000 0 61414
 11264 ADD +0 40000 0 06461    11265 STO +0 60100 0 61414    11266 CLA +0 50000 0 61414    11267 SUB +0 40200 0 00554
 11270 TZE +0 10000 0 11300
      S88B       I(I+2)=DSAVE(I)                                                    324  LM00338
 11271 CLA +0 50000 0 61414    11272 ADD +0 40000 0 06462    11273 PAX +0 73400 1 00000    11274 LXA +0 53400 2 61414
 11275 CLA +0 50000 2 00554    11276 STO +0 60100 1 61414    11277 TRA +0 02000 0 11263
                 I(1)=$DIMENS$                                                      325  LM00339
 11300 CLA +0 50000 0 06554    11301 STO +0 60100 0 61413
                 I(2)=$ION$                                                         326  LM00340
 11302 CLA +0 50000 0 06614    11303 STO +0 60100 0 61412
                 SW3=S3Z                                                            327  LM00341
 11304 CLA +0 50000 0 00145    11305 STO +0 60100 0 56106
                 TRANSFER TO S2                                                     328  LM00342
 11306 TRA +0 02000 0 00051
      S3Z        CONTINUE                                                           329  LM00343
                 END OF CONDITIONAL                                                 330  LM00344
                 STNO=NSNO                                                          331  LM00345
 11307 CLA +0 50000 0 56123    11310 STO +0 60100 0 56124
                 BOOLFL=BOOL                                                        332  LM00346
 11311 CLA +0 50000 0 00227    11312 STO +0 60100 0 56110
                 WHENEVER LAG.E.$EOF$.OR.LAG.E.$END$,TRANSFER TO S17C               333  LM00347
 11313 CLA +0 50000 0 00730    11314 SUB +0 40200 0 06565    11315 TZE +0 10000 0 11321    11316 CLA +0 50000 0 00730
 11317 SUB +0 40200 0 06570    11320 TNZ -0 10000 0 11322    11321 TRA +0 02000 0 00100
                 SW3=S3                                                             334  LM00348
 11322 CLA +0 50000 0 00143    11323 STO +0 60100 0 56106
                 WHOLE =0                                                           335  LM00349
 11324 CLA +0 50000 0 06460    11325 STO +0 60100 0 56120
                 OUT(1)=700                                                         336  LM00350
 11326 CLA +0 50000 0 06522    11327 STO +0 60100 0 57173
                 MORE = 0B                                                          337  LM00351
 11330 CLA +0 50000 0 06460    11331 STO +0 60100 0 02170
                 RE=REM                                                             338  LM00352
 11332 CLA +0 50000 0 02222    11333 STO +0 60100 0 02223
                 WHENEVER RE.E.1                                                    339  LM00353
 11334 CLA +0 50000 0 02223    11335 SUB +0 40200 0 06461    11336 TNZ -0 10000 0 11435
                 FLAG=$REM$                                                         340  LM00354
 11337 CLA +0 50000 0 06653    11340 STO +0 60100 0 56111
      REM1       THROUGH REM1, FOR A2=2,1,J(A2).NE.$$                               341  LM00355
 11341 CLA +0 50000 0 06462    11342 STO +0 60100 0 00203    11343 TRA +0 02000 0 11347    11344 CLA +0 50000 0 00203
 11345 ADD +0 40000 0 06461    11346 STO +0 60100 0 00203    11347 LXA +0 53400 1 00203    11350 CLA +0 50000 1 00720
 11351 SUB +0 40200 0 06672    11352 TNZ -0 10000 0 11354    11353 TRA +0 02000 0 11344
                 A2=A2-1                                                            342  LM00356
 11354 CLA +0 50000 0 00203    11355 SUB +0 40200 0 06461    11356 STO +0 60100 0 00203
                 THROUGH SPEC, FOR A1=A2+1,1,A1.G.71                                343  LM00357
 11357 CLA +0 50000 0 00203    11360 ADD +0 40000 0 06461    11361 STO +0 60100 0 00202    11362 TRA +0 02000 0 11366
 11363 CLA +0 50000 0 00202    11364 ADD +0 40000 0 06461    11365 STO +0 60100 0 00202    11366 CLA +0 50000 0 00202
 11367 SUB +0 40200 0 06515    11370 TZE +0 10000 0 11372    11371 TPL +0 12000 0 11401
      SPEC       I(A1-A2)=J(A1)                                                     344  LM00358
 11372 CLA +0 50000 0 00202    11373 SUB +0 40200 0 00203    11374 PAX +0 73400 1 00000    11375 LXA +0 53400 2 00202
 11376 CLA +0 50000 2 00720    11377 STO +0 60100 1 61414    11400 TRA +0 02000 0 11363
                 THROUGH REM2, FOR A1=A1-A2,1,A1.G.71                               345  LM00359
 11401 CLA +0 50000 0 00202    11402 SUB +0 40200 0 00203    11403 STO +0 60100 0 00202    11404 TRA +0 02000 0 11410
 11405 CLA +0 50000 0 00202    11406 ADD +0 40000 0 06461    11407 STO +0 60100 0 00202    11410 CLA +0 50000 0 00202
 11411 SUB +0 40200 0 06515    11412 TZE +0 10000 0 11414    11413 TPL +0 12000 0 11420
      REM2       I(A1)=$$                                                           346  LM00360
 11414 LXA +0 53400 1 00202    11415 CLA +0 50000 0 06672    11416 STO +0 60100 1 61414    11417 TRA +0 02000 0 11405
                 CCT=71                                                             347  LM00361
 11420 CLA +0 50000 0 06515    11421 STO +0 60100 0 56121
                 OUT(1)=700                                                         348  LM00362
 11422 CLA +0 50000 0 06522    11423 STO +0 60100 0 57173
                 WHENEVER CHECK .E.0                                                349  LM00363
 11424 CLA +0 50000 0 00237    11425 SUB +0 40200 0 06460    11426 TNZ -0 10000 0 11434
                 RE=0                                                               350  LM00364
 11427 CLA +0 50000 0 06460    11430 STO +0 60100 0 02223
                 SW3=S1                                                             351  LM00365
 11431 CLA +0 50000 0 00103    11432 STO +0 60100 0 56106
                 TRANSFER TO S7A                                                    352  LM00366
 11433 TRA +0 02000 0 00167
                 END OF CONDITIONAL                                                 353  LM00367
                 TRANSFER TO S1                                                     354  LM00368
 11434 TRA +0 02000 0 00103
                 END OF CONDITIONAL                                                 355  LM00369
                 CHECK=1                                                            356  LM00370
 11435 CLA +0 50000 0 06461    11436 STO +0 60100 0 00237
                 FLAG =$ $                                                          357  LM00371
 11437 CLA +0 50000 0 06672    11440 STO +0 60100 0 56111
                 CCT =0                                                             358  LM00372
 11441 CLA +0 50000 0 06460    11442 STO +0 60100 0 56121
                 I=0                                                                359  LM00373
 11443 CLA +0 50000 0 06460    11444 STO +0 60100 0 61414
                 H=0B                                                               360  LM00374
 11445 CLA +0 50000 0 06460    11446 STO +0 60100 0 00566
                 CH=0B                                                              361  LM00375
 11447 CLA +0 50000 0 06460    11450 STO +0 60100 0 00240
                 TEST=0                                                             362  LM00376
 11451 CLA +0 50000 0 06460    11452 STO +0 60100 0 02262
                 HOLSET=1                                                           363  LM00377
 11453 CLA +0 50000 0 06461    11454 STO +0 60100 0 00565
      S6         THROUGH S3A , FOR A2=7,1,A2.G.72                                   364  LM00381
 11455 CLA +0 50000 0 06467    11456 STO +0 60100 0 00203    11457 TRA +0 02000 0 11463    11460 CLA +0 50000 0 00203
 11461 ADD +0 40000 0 06461    11462 STO +0 60100 0 00203    11463 CLA +0 50000 0 00203    11464 SUB +0 40200 0 06516
 11465 TZE +0 10000 0 11467    11466 TPL +0 12000 0 12034
                 WHENEVER H.OR.CH, TRANSFER TO S3DF                                 365  LM00382
 11467 ZET +0 52000 0 00240    11470 TRA +0 02000 0 11473    11471 NZT -0 52000 0 00566    11472 TRA +0 02000 0 11474
 11473 TRA +0 02000 0 00142
                 WHENEVER J(A2).NE.$$                                               366  LM00383
 11474 LXA +0 53400 1 00203    11475 CLA +0 50000 1 00720    11476 SUB +0 40200 0 06672    11477 TZE +0 10000 0 12033
                    WHENEVER J(A2).E.$H$                                            367  LM00384
 11500 CLA +0 50000 1 00720    11501 SUB +0 40200 0 06610    11502 TNZ -0 10000 0 12013
                       WHENEVER I(CCT).GE.$0$.AND.I(CCT).LE.$9$                     368  LM00385
 11503 LXA +0 53400 1 56121    11504 CLA +0 50000 1 61414    11505 SUB +0 40200 0 06535    11506 TZE +0 10000 0 11510
 11507 TPL +0 12000 0 11565    11510 CLA +0 50000 1 61414    11511 SUB +0 40200 0 06526    11512 TZE +0 10000 0 11514
 11513 TMI -0 12000 0 11565
      S3DD                THROUGH S3DD, FOR A3=CCT,-1,(I(A3).L.$0$.OR.I(A3).G.      369  LM00386
                1         $9$).AND.I(A3).NE.$$.OR.A3.L.HOLSET                       369  LM00387
 11514 CLA +0 50000 0 56121    11515 STO +0 60100 0 00204    11516 TRA +0 02000 0 11522    11517 CLS +0 50200 0 06461
 11520 ADD +0 40000 0 00204    11521 STO +0 60100 0 00204    11522 CLA +0 50000 0 00204    11523 SUB +0 40200 0 00565
 11524 TZE +0 10000 0 11526    11525 TMI -0 12000 0 11544    11526 LXA +0 53400 1 00204    11527 CLA +0 50000 1 61414
 11530 SUB +0 40200 0 06672    11531 TZE +0 10000 0 11543    11532 CLA +0 50000 1 61414    11533 SUB +0 40200 0 06535
 11534 TZE +0 10000 0 11536    11535 TPL +0 12000 0 11542    11536 CLA +0 50000 1 61414    11537 SUB +0 40200 0 06526
 11540 TZE +0 10000 0 11543    11541 TPL +0 12000 0 11543    11542 TRA +0 02000 0 11544    11543 TRA +0 02000 0 11517
                          TEST=BCDBN.(ZCOMPZ.(CCT-A3,I(A3+1)))+A2                   370  LM00388
 11544 CLA +0 50000 0 00204    11545 ADD +0 40000 0 06461    11546 SUB +0 40200 0 11547    11547 TXH +3 00000 0 61414
 11550 STA +0 62100 0 11556    11551 CLA +0 50000 0 56121    11552 SUB +0 40200 0 00204    11553 STO +0 60100 0 14500
 11554 TSX +0 07400 4 00041    11555 TXH +3 00000 0 14500    11556 TXH +3 00000 0 00000    11557 STO +0 60100 0 14500
 11560 TSX +0 07400 4 00001    11561 TXH +3 00000 0 14500    11562 ADD +0 40000 0 00203    11563 STO +0 60100 0 02262
                       OR WHENEVER I(CCT).E.$$                                      371  LM00389
 11564 TRA +0 02000 0 11703    11565 LXA +0 53400 1 56121    11566 CLA +0 50000 1 61414    11567 SUB +0 40200 0 06672
 11570 TNZ -0 10000 0 11630
      S3DC                THROUGH S3DC, FOR A3=CCT,-1,I(A3).NE.$$.OR.A3.L.HOLS      372  LM00390
                1         ET                                                        372  LM00391
 11571 CLA +0 50000 0 56121    11572 STO +0 60100 0 00204    11573 TRA +0 02000 0 11577    11574 CLS +0 50200 0 06461
 11575 ADD +0 40000 0 00204    11576 STO +0 60100 0 00204    11577 CLA +0 50000 0 00204    11600 SUB +0 40200 0 00565
 11601 TZE +0 10000 0 11603    11602 TMI -0 12000 0 11610    11603 LXA +0 53400 1 00204    11604 CLA +0 50000 1 61414
 11605 SUB +0 40200 0 06672    11606 TNZ -0 10000 0 11610    11607 TRA +0 02000 0 11574
                          WHENEVER A3.L.HOLSET.OR.I(A3).L.$0$.OR.I(A3).G.$9$,       373  LM00392
                1         TRANSFER TO S3DA                                          373  LM00393
 11610 LXA +0 53400 1 00204    11611 CLA +0 50000 1 61414    11612 SUB +0 40200 0 06535    11613 TZE +0 10000 0 11615
 11614 TPL +0 12000 0 11625    11615 CLA +0 50000 1 61414    11616 SUB +0 40200 0 06526    11617 TZE +0 10000 0 11621
 11620 TMI -0 12000 0 11625    11621 CLA +0 50000 0 00204    11622 SUB +0 40200 0 00565    11623 TZE +0 10000 0 11626
 11624 TPL +0 12000 0 11626    11625 TRA +0 02000 0 00140
                          TRANSFER TO S3DD                                          374  LM00394
 11626 TRA +0 02000 0 00141
                       OTHERWISE                                                    375  LM00395
 11627 TRA +0 02000 0 11703
      S3DA                WHENEVER CCT.G.7.AND.I(1).E.$F$.AND.COMPZ.(6,I(2)).E      376  LM00396
                1         .$ORMAT($                                                 376  LM00397
 11630 TSX +0 07400 4 00011    11631 TXH +3 00000 0 06466    11632 TXH +3 00000 0 61412    11633 SUB +0 40200 0 06633
 11634 TNZ -0 10000 0 11702    11635 CLA +0 50000 0 61413    11636 SUB +0 40200 0 06603    11637 TNZ -0 10000 0 11702
 11640 CLA +0 50000 0 56121    11641 SUB +0 40200 0 06467    11642 TZE +0 10000 0 11702    11643 TMI -0 12000 0 11702
                             HCHAR=J(A2+1)                                          377  LM00398
 11644 CLA +0 50000 0 00203    11645 ADD +0 40000 0 06461    11646 PAX +0 73400 2 00000    11647 CLA +0 50000 2 00720
 11650 STO +0 60100 0 00564
      S3DB                   THROUGH S3DB, FOR A3=A2+2,1,J(A3).E.HCHAR.OR.A3.G      378  LM00399
                1            .72                                                    378  LM00400
 11651 CLA +0 50000 0 00203    11652 ADD +0 40000 0 06462    11653 STO +0 60100 0 00204    11654 TRA +0 02000 0 11660
 11655 CLA +0 50000 0 00204    11656 ADD +0 40000 0 06461    11657 STO +0 60100 0 00204    11660 CLA +0 50000 0 00204
 11661 SUB +0 40200 0 06516    11662 TZE +0 10000 0 11664    11663 TPL +0 12000 0 11671    11664 LXA +0 53400 1 00204
 11665 CLA +0 50000 1 00720    11666 SUB +0 40200 0 00564    11667 TZE +0 10000 0 11671    11670 TRA +0 02000 0 11655
                             TEST=A3                                                379  LM00401
 11671 CLA +0 50000 0 00204    11672 STO +0 60100 0 02262
                             WHENEVER A3.G.72, CH=1B                                380  LM00402
 11673 CLA +0 50000 0 00204    11674 SUB +0 40200 0 06516    11675 TZE +0 10000 0 11701    11676 TMI -0 12000 0 11701
 11677 CLA +0 50000 0 06461    11700 STO +0 60100 0 00240
                          OTHERWISE                                                 381  LM00403
 11701 TRA +0 02000 0 11703
                             TRANSFER TO S3C                                        382  LM00404
 11702 TRA +0 02000 0 00137
                          END OF CONDITIONAL                                        383  LM00405
                       END OF CONDITIONAL                                           384  LM00406
      S3DF             THROUGH S3DE, FOR A3=A2,1,A3.G.TEST.OR.A3.G.72.OR.(J(A3      385  LM00407
                1      ).E.HCHAR.AND.CH)                                            385  LM00408
 11703 CLA +0 50000 0 00203    11704 STO +0 60100 0 00204    11705 TRA +0 02000 0 11711    11706 CLA +0 50000 0 00204
 11707 ADD +0 40000 0 06461    11710 STO +0 60100 0 00204    11711 NZT -0 52000 0 00240    11712 TRA +0 02000 0 11717
 11713 LXA +0 53400 1 00204    11714 CLA +0 50000 1 00720    11715 SUB +0 40200 0 00564    11716 TZE +0 10000 0 11744
 11717 CLA +0 50000 0 00204    11720 SUB +0 40200 0 06516    11721 TZE +0 10000 0 11723    11722 TPL +0 12000 0 11744
 11723 CLA +0 50000 0 00204    11724 SUB +0 40200 0 02262    11725 TZE +0 10000 0 11727    11726 TPL +0 12000 0 11744
                       CCT=CCT+1                                                    386  LM00409
 11727 CLA +0 50000 0 56121    11730 ADD +0 40000 0 06461    11731 STO +0 60100 0 56121
                       WHENEVER CCT.G.660, TRANSFER TO S3B                          387  LM00410
 11732 CLA +0 50000 0 56121    11733 SUB +0 40200 0 06521    11734 TZE +0 10000 0 11737    11735 TMI -0 12000 0 11737
 11736 TRA +0 02000 0 00136
      S3DE             I(CCT)=J(A3)                                                 388  LM00411
 11737 LXA +0 53400 1 56121    11740 LXA +0 53400 2 00204    11741 CLA +0 50000 2 00720    11742 STO +0 60100 1 61414
 11743 TRA +0 02000 0 11706
                       A2=A3-1                                                      389  LM00412
 11744 CLA +0 50000 0 00204    11745 SUB +0 40200 0 06461    11746 STO +0 60100 0 00203
                       WHENEVER CH                                                  390  LM00413
 11747 NZT -0 52000 0 00240    11750 TRA +0 02000 0 11773
                          WHENEVER A3.G.72, TRANSFER TO S3A                         391  LM00414
 11751 CLA +0 50000 0 00204    11752 SUB +0 40200 0 06516    11753 TZE +0 10000 0 11756    11754 TMI -0 12000 0 11756
 11755 TRA +0 02000 0 00135
                          WHENEVER J(A3).E.HCHAR                                    392  LM00415
 11756 LXA +0 53400 1 00204    11757 CLA +0 50000 1 00720    11760 SUB +0 40200 0 00564    11761 TNZ -0 10000 0 11771
                             CH=0B                                                  393  LM00416
 11762 CLA +0 50000 0 06460    11763 STO +0 60100 0 00240
                             A2=A3                                                  394  LM00417
 11764 CLA +0 50000 0 00204    11765 STO +0 60100 0 00203
                             HOLSET=CCT+2                                           395  LM00418
 11766 CLA +0 50000 0 56121    11767 ADD +0 40000 0 06462    11770 STO +0 60100 0 00565
                          END OF CONDITIONAL                                        396  LM00419
                          TRANSFER TO S3C                                           397  LM00420
 11771 TRA +0 02000 0 00137
                       OR WHENEVER A3.LE.TEST                                       398  LM00421
 11772 TRA +0 02000 0 12005    11773 CLA +0 50000 0 00204    11774 SUB +0 40200 0 02262    11775 TZE +0 10000 0 11777
 11776 TPL +0 12000 0 12005
                          H=1B                                                      399  LM00422
 11777 CLA +0 50000 0 06461    12000 STO +0 60100 0 00566
                          TEST=TEST-66                                              400  LM00423
 12001 CLA +0 50000 0 02262    12002 SUB +0 40200 0 06514    12003 STO +0 60100 0 02262
                          TRANSFER TO S3A                                           401  LM00424
 12004 TRA +0 02000 0 00135
                       END OF CONDITIONAL                                           402  LM00425
                       H=0B                                                         403  LM00426
 12005 CLA +0 50000 0 06460    12006 STO +0 60100 0 00566
                       HOLSET=CCT+1                                                 404  LM00427
 12007 CLA +0 50000 0 56121    12010 ADD +0 40000 0 06461    12011 STO +0 60100 0 00565
                       TRANSFER TO S3A                                              405  LM00428
 12012 TRA +0 02000 0 00135
                    END OF CONDITIONAL                                              406  LM00429
      S3C           CCT=CCT+1                                                       407  LM00430
 12013 CLA +0 50000 0 56121    12014 ADD +0 40000 0 06461    12015 STO +0 60100 0 56121
                    WHENEVER CCT.G.660                                              408  LM00431
 12016 CLA +0 50000 0 56121    12017 SUB +0 40200 0 06521    12020 TZE +0 10000 0 12027    12021 TMI -0 12000 0 12027
      S3B              ERRO=2                                                       409  LM00432
 12022 CLA +0 50000 0 06462    12023 STO +0 60100 0 00557
                       MORE=1B                                                      410  LM00433
 12024 CLA +0 50000 0 06461    12025 STO +0 60100 0 02170
                       TRANSFER TO S60                                              411  LM00434
 12026 TRA +0 02000 0 00151
                    END OF CONDITIONAL                                              412  LM00435
                    I(CCT)=J(A2)                                                    413  LM00436
 12027 LXA +0 53400 1 56121    12030 LXA +0 53400 2 00203    12031 CLA +0 50000 2 00720    12032 STO +0 60100 1 61414
      S3A        END OF CONDITIONAL                                                 414  LM00437
 12033 TRA +0 02000 0 11460
                 TRANSFER TO S1                                                     415  LM00438
 12034 TRA +0 02000 0 00103
      S20        WHENEVER I(5).NE.$($,TRANSFER TO S37                               416  LM00442
 12035 CLA +0 50000 0 61407    12036 SUB +0 40200 0 06724    12037 TZE +0 10000 0 12041    12040 TRA +0 02000 0 00132
      S40        THROUGH S40, FOR A1=CCT,-1,OPCHK.(I(A1))                           417  LM00443
 12041 CLA +0 50000 0 56121    12042 STO +0 60100 0 00202    12043 TRA +0 02000 0 12047    12044 CLS +0 50200 0 06461
 12045 ADD +0 40000 0 00202    12046 STO +0 60100 0 00202    12047 CLA +0 50000 0 00202    12050 SUB +0 40200 0 12051
 12051 TXH +3 00000 0 61414    12052 STA +0 62100 0 12054    12053 TSX +0 07400 4 00031    12054 TXH +3 00000 0 00000
 12055 TNZ -0 10000 0 12057    12056 TRA +0 02000 0 12044
                 WHENEVER I(A1).NE.$,$,TRANSFER TO S30                              418  LM00444
 12057 LXA +0 53400 1 00202    12060 CLA +0 50000 1 61414    12061 SUB +0 40200 0 06721    12062 TZE +0 10000 0 12064
 12063 TRA +0 02000 0 00131
                 I(3)=STACON.V.BNBCD.(FINDN.($*$))                                  419  LM00445
 12064 TSX +0 07400 4 00020    12065 TXH +3 00000 0 06664    12066 STO +0 60100 0 14500    12067 TSX +0 07400 4 00002
 12070 TXH +3 00000 0 14500    12071 STO +0 60100 0 14500    12072 CAL -0 50000 0 56122    12073 ORA -0 50100 0 14500
 12074 SLW +0 60200 0 61411
                 I(4)=$($                                                           420  LM00446
 12075 CLA +0 50000 0 06724    12076 STO +0 60100 0 61410
                 EXECUTE COMPZ.(CCT-A1,I(A1+1),I(5))                                421  LM00447
 12077 CLA +0 50000 0 00202    12100 ADD +0 40000 0 06461    12101 SUB +0 40200 0 12102    12102 TXH +3 00000 0 61414
 12103 STA +0 62100 0 12111    12104 CLA +0 50000 0 56121    12105 SUB +0 40200 0 00202    12106 STO +0 60100 0 14500
 12107 TSX +0 07400 4 00011    12110 TXH +3 00000 0 14500    12111 TXH +3 00000 0 00000    12112 TXH +3 00000 0 61407
                 EXECUTE FINDIN.(I(5))                                              422  LM00448
 12113 TSX +0 07400 4 00017    12114 TXH +3 00000 0 61407
                 CCT=6                                                              423  LM00449
 12115 CLA +0 50000 0 06466    12116 STO +0 60100 0 56121
                 SW2=6                                                              424  LM00450
 12117 CLA +0 50000 0 06466    12120 STO +0 60100 0 02255
                 A3=1                                                               425  LM00451
 12121 CLA +0 50000 0 06461    12122 STO +0 60100 0 00204
      S38        THROUGH S38, FOR A2=SW2,1,I(A2).E.$,$.OR.I(A2).E.$)$               426  LM00452
 12123 CLA +0 50000 0 02255    12124 STO +0 60100 0 00203    12125 TRA +0 02000 0 12131    12126 CLA +0 50000 0 00203
 12127 ADD +0 40000 0 06461    12130 STO +0 60100 0 00203    12131 LXA +0 53400 1 00203    12132 CLA +0 50000 1 61414
 12133 SUB +0 40200 0 06620    12134 TZE +0 10000 0 12141    12135 CLA +0 50000 1 61414    12136 SUB +0 40200 0 06721
 12137 TZE +0 10000 0 12141    12140 TRA +0 02000 0 12126
                 HOL(A3)=STACON.V.BNBCD.(FINDN.(COMPZ.(A2-SW2,I(SW2))))             427  LM00453
 12141 CLA +0 50000 0 02255    12142 SUB +0 40200 0 12143    12143 TXH +3 00000 0 61414    12144 STA +0 62100 0 12152
 12145 CLA +0 50000 0 00203    12146 SUB +0 40200 0 02255    12147 STO +0 60100 0 14500    12150 TSX +0 07400 4 00011
 12151 TXH +3 00000 0 14500    12152 TXH +3 00000 0 00000    12153 STO +0 60100 0 14500    12154 TSX +0 07400 4 00020
 12155 TXH +3 00000 0 14500    12156 STO +0 60100 0 14500    12157 TSX +0 07400 4 00002    12160 TXH +3 00000 0 14500
 12161 STO +0 60100 0 14500    12162 CAL -0 50000 0 56122    12163 ORA -0 50100 0 14500    12164 LXA +0 53400 1 00204
 12165 SLW +0 60200 1 60161
                 WHENEVER I(A2).E.$,$                                               428  LM00454
 12166 LXA +0 53400 1 00203    12167 CLA +0 50000 1 61414    12170 SUB +0 40200 0 06721    12171 TNZ -0 10000 0 12201
                 A3=A3+1                                                            429  LM00455
 12172 CLA +0 50000 0 00204    12173 ADD +0 40000 0 06461    12174 STO +0 60100 0 00204
                 SW2=A2+1                                                           430  LM00456
 12175 CLA +0 50000 0 00203    12176 ADD +0 40000 0 06461    12177 STO +0 60100 0 02255
                 TRANSFER TO S38                                                    431  LM00457
 12200 TRA +0 02000 0 00133
                 END OF CONDITIONAL                                                 432  LM00458
                 I(6)=$)$                                                           433  LM00459
 12201 CLA +0 50000 0 06620    12202 STO +0 60100 0 61406
                 SW3=S43                                                            434  LM00460
 12203 CLA +0 50000 0 00147    12204 STO +0 60100 0 56106
                 TRANSFER TO S40A                                                   435  LM00461
 12205 TRA +0 02000 0 00146
      S43        STNO=I(3)                                                          436  LM00462
 12206 CLA +0 50000 0 61411    12207 STO +0 60100 0 56124
                 CCT=3                                                              437  LM00463
 12210 CLA +0 50000 0 06463    12211 STO +0 60100 0 56121
                 THROUGH S39, FOR A2=1,1,A2.G.A3                                    438  LM00464
 12212 CLA +0 50000 0 06461    12213 STO +0 60100 0 00203    12214 TRA +0 02000 0 12220    12215 CLA +0 50000 0 00203
 12216 ADD +0 40000 0 06461    12217 STO +0 60100 0 00203    12220 CLA +0 50000 0 00203    12221 SUB +0 40200 0 00204
 12222 TZE +0 10000 0 12224    12223 TPL +0 12000 0 12244
                 I(3)=HOL(A2)                                                       439  LM00465
 12224 LXA +0 53400 2 00203    12225 CLA +0 50000 2 60161    12226 STO +0 60100 0 61411
                 SNOP=$(00)$.V.BNBCD.(A2).LS.18                                     440  LM00466
 12227 TSX +0 07400 4 00002    12230 TXH +3 00000 0 00203    12231 STO +0 60100 0 14500    12232 CAL -0 50000 0 06502
 12233 STA +0 62100 0 12235    12234 CAL -0 50000 0 14500    12235 ALS +0 76700 0 00000    12236 ORA -0 50100 0 06723
 12237 SLW +0 60200 0 02235
                 SW3=S39                                                            441  LM00467
 12240 CLA +0 50000 0 00134    12241 STO +0 60100 0 56106
                 TRANSFER TO S2                                                     442  LM00468
 12242 TRA +0 02000 0 00051
      S39        CONTINUE                                                           443  LM00469
 12243 TRA +0 02000 0 12215
                 SNOP =$ $                                                          444  LM00470
 12244 CLA +0 50000 0 06672    12245 STO +0 60100 0 02235
                 TRANSFER TO S3                                                     445  LM00471
 12246 TRA +0 02000 0 00143
      S37        THROUGH S37, FOR A1=4,1,OPCHK.(I(A1)).OR.A1.G.CCT                  446  LM00472
 12247 CLA +0 50000 0 06464    12250 STO +0 60100 0 00202    12251 TRA +0 02000 0 12255    12252 CLA +0 50000 0 00202
 12253 ADD +0 40000 0 06461    12254 STO +0 60100 0 00202    12255 CLA +0 50000 0 00202    12256 SUB +0 40200 0 56121
 12257 TZE +0 10000 0 12261    12260 TPL +0 12000 0 12271    12261 CLA +0 50000 0 00202    12262 SUB +0 40200 0 12263
 12263 TXH +3 00000 0 61414    12264 STA +0 62100 0 12266    12265 TSX +0 07400 4 00031    12266 TXH +3 00000 0 00000
 12267 TNZ -0 10000 0 12271    12270 TRA +0 02000 0 12252
                 WHENEVER I(A1).NE.$,$.AND.A1.L.CCT,TRANSFER TO S30                 447  LM00473
 12271 CLA +0 50000 0 00202    12272 SUB +0 40200 0 56121    12273 TZE +0 10000 0 12302    12274 TPL +0 12000 0 12302
 12275 LXA +0 53400 1 00202    12276 CLA +0 50000 1 61414    12277 SUB +0 40200 0 06721    12300 TZE +0 10000 0 12302
 12301 TRA +0 02000 0 00131
                 WHENEVER A1 .G. CCT                                                448  LM00474
 12302 CLA +0 50000 0 00202    12303 SUB +0 40200 0 56121    12304 TZE +0 10000 0 12327    12305 TMI -0 12000 0 12327
                 I(3)=STACON.V.BNBCD.(FINDN.(COMPZ.(A1-5,I(5))))                    449  LM00475
 12306 CLA +0 50000 0 00202    12307 SUB +0 40200 0 06465    12310 STO +0 60100 0 14500    12311 TSX +0 07400 4 00011
 12312 TXH +3 00000 0 14500    12313 TXH +3 00000 0 61407    12314 STO +0 60100 0 14500    12315 TSX +0 07400 4 00020
 12316 TXH +3 00000 0 14500    12317 STO +0 60100 0 14500    12320 TSX +0 07400 4 00002    12321 TXH +3 00000 0 14500
 12322 STO +0 60100 0 14500    12323 CAL -0 50000 0 56122    12324 ORA -0 50100 0 14500    12325 SLW +0 60200 0 61411
                 OTHERWISE                                                          450  LM00476
 12326 TRA +0 02000 0 12336
                 EXECUTE COMPZ.(A1-5,I(5),I(3))                                     451  LM00477
 12327 CLA +0 50000 0 00202    12330 SUB +0 40200 0 06465    12331 STO +0 60100 0 14500    12332 TSX +0 07400 4 00011
 12333 TXH +3 00000 0 14500    12334 TXH +3 00000 0 61407    12335 TXH +3 00000 0 61411
                 END OF CONDITIONAL                                                 452  LM00478
                 CCT=3                                                              453  LM00479
 12336 CLA +0 50000 0 06463    12337 STO +0 60100 0 56121
      S40A       I(1)=$TRANSF$                                                      454  LM00480
 12340 CLA +0 50000 0 06704    12341 STO +0 60100 0 61413
                 I(2)=$ER TO$                                                       455  LM00481
 12342 CLA +0 50000 0 06572    12343 STO +0 60100 0 61412
                 WHOLE =1                                                           456  LM00482
 12344 CLA +0 50000 0 06461    12345 STO +0 60100 0 56120
                 TRANSFER TO S2                                                     457  LM00483
 12346 TRA +0 02000 0 00051
          S18A   WHENEVER(I(6).LE.$9$.AND.I(6).GE.$0$).AND.(CCT.LE.6.OR.I(7)        458  LM00487
                1.LE.$9$.AND.I(7).GE.$0$),TRANSFER TO S118X                         458  LM00488
 12347 CLA +0 50000 0 61405    12350 SUB +0 40200 0 06526    12351 TZE +0 10000 0 12353    12352 TMI -0 12000 0 12357
 12353 CLA +0 50000 0 61405    12354 SUB +0 40200 0 06535    12355 TZE +0 10000 0 12363    12356 TMI -0 12000 0 12363
 12357 CLA +0 50000 0 56121    12360 SUB +0 40200 0 06466    12361 TZE +0 10000 0 12363    12362 TPL +0 12000 0 12374
 12363 CLA +0 50000 0 61406    12364 SUB +0 40200 0 06526    12365 TZE +0 10000 0 12367    12366 TMI -0 12000 0 12374
 12367 CLA +0 50000 0 61406    12370 SUB +0 40200 0 06535    12371 TZE +0 10000 0 12373    12372 TPL +0 12000 0 12374
 12373 TRA +0 02000 0 00075
                 WHENEVER CCT.E.5                                                   459  LM00489
 12374 CLA +0 50000 0 56121    12375 SUB +0 40200 0 06465    12376 TNZ -0 10000 0 12404
                    CCT=6                                                           460  LM00490
 12377 CLA +0 50000 0 06466    12400 STO +0 60100 0 56121
                    I(6)=$0$                                                        461  LM00491
 12401 CLA +0 50000 0 06526    12402 STO +0 60100 0 61406
                    TRANSFER TO S118X                                               462  LM00492
 12403 TRA +0 02000 0 00075
                 END OF CONDITIONAL                                                 463  LM00493
                 TRANSFER TO S30                                                    464  LM00494
 12404 TRA +0 02000 0 00131
      S118X      I(1)=$PAUSE$                                                       465  LM00495
 12405 CLA +0 50000 0 06637    12406 STO +0 60100 0 61413
                 I(2)=$NO.$                                                         466  LM00496
 12407 CLA +0 50000 0 06627    12410 STO +0 60100 0 61412
                 OUT(1)=1                                                           467  LM00497
 12411 CLA +0 50000 0 06461    12412 STO +0 60100 0 57173
                 OUT(2)=2                                                           468  LM00498
 12413 CLA +0 50000 0 06462    12414 STO +0 60100 0 57172
                 OUT(3)=-3                                                          469  LM00499
 12415 CLS +0 50200 0 06463    12416 STO +0 60100 0 57171
                 OUT(4)=-4                                                          470  LM00500
 12417 CLS +0 50200 0 06464    12420 STO +0 60100 0 57170
                 OUT(5)=-5                                                          471  LM00501
 12421 CLS +0 50200 0 06465    12422 STO +0 60100 0 57167
                 OUT(6)=700                                                         472  LM00502
 12423 CLA +0 50000 0 06522    12424 STO +0 60100 0 57166
                 TRANSFER TO S2                                                     473  LM00503
 12425 TRA +0 02000 0 00051
      S29A       THROUGH S29A,FOR A1=5,1,A1.G.CCT.OR.OPCHK.(I(A1))                  474  LM00507
 12426 CLA +0 50000 0 06465    12427 STO +0 60100 0 00202    12430 TRA +0 02000 0 12434    12431 CLA +0 50000 0 00202
 12432 ADD +0 40000 0 06461    12433 STO +0 60100 0 00202    12434 CLA +0 50000 0 00202    12435 SUB +0 40200 0 12436
 12436 TXH +3 00000 0 61414    12437 STA +0 62100 0 12441    12440 TSX +0 07400 4 00031    12441 TXH +3 00000 0 00000
 12442 TNZ -0 10000 0 12450    12443 CLA +0 50000 0 00202    12444 SUB +0 40200 0 56121    12445 TZE +0 10000 0 12447
 12446 TPL +0 12000 0 12450    12447 TRA +0 02000 0 12431
                 WHENEVER A1.LE.CCT,TRANSFER TO S30                                 475  LM00508
 12450 CLA +0 50000 0 00202    12451 SUB +0 40200 0 56121    12452 TZE +0 10000 0 12454    12453 TPL +0 12000 0 12455
 12454 TRA +0 02000 0 00131
                 I(1)=$TRANSF$                                                      476  LM00509
 12455 CLA +0 50000 0 06704    12456 STO +0 60100 0 61413
                 I(2)=$ER TO $                                                      477  LM00510
 12457 CLA +0 50000 0 06572    12460 STO +0 60100 0 61412
                 I(3)=STACON.V.$000001$                                             478  LM00511
 12461 CAL -0 50000 0 56122    12462 ORA -0 50100 0 06461    12463 SLW +0 60200 0 61411
                 CCT=3                                                              479  LM00512
 12464 CLA +0 50000 0 06463    12465 STO +0 60100 0 56121
                 WHOLE =1                                                           480  LM00513
 12466 CLA +0 50000 0 06461    12467 STO +0 60100 0 56120
                 TRANSFER TO S2                                                     481  LM00514
 12470 TRA +0 02000 0 00051
      S22        FLAG=2                                                             482  LM00518
 12471 CLA +0 50000 0 06462    12472 STO +0 60100 0 56111
                 EXECUTE MADTR2.                                                    483  LM00519
 12473 TSX +0 07400 4 00026
      S23        FLAG=4                                                             484  LM00520
 12474 CLA +0 50000 0 06464    12475 STO +0 60100 0 56111
                 EXECUTE MADTR2.                                                    485  LM00521
 12476 TSX +0 07400 4 00026
      S21        FLAG=5                                                             486  LM00522
 12477 CLA +0 50000 0 06465    12500 STO +0 60100 0 56111
                 EXECUTE MADTR2.                                                    487  LM00523
 12501 TSX +0 07400 4 00026
      S80        FLAG=6                                                             488  LM00524
 12502 CLA +0 50000 0 06466    12503 STO +0 60100 0 56111
                 EXECUTE IOP.                                                       489  LM00525
 12504 TSX +0 07400 4 00024
      S24        FLAG=7                                                             490  LM00526
 12505 CLA +0 50000 0 06467    12506 STO +0 60100 0 56111
                 EXECUTE MADTR2.                                                    491  LM00527
 12507 TSX +0 07400 4 00026
      S65        FLAG=8                                                             492  LM00528
 12510 CLA +0 50000 0 06470    12511 STO +0 60100 0 56111
                 EXECUTE IOP.                                                       493  LM00529
 12512 TSX +0 07400 4 00024
      S64        FLAG=9                                                             494  LM00530
 12513 CLA +0 50000 0 06471    12514 STO +0 60100 0 56111
                 EXECUTE IOP.                                                       495  LM00531
 12515 TSX +0 07400 4 00024
      S64A       FLAG=10                                                            496  LM00532
 12516 CLA +0 50000 0 06472    12517 STO +0 60100 0 56111
                 EXECUTE IOP.                                                       497  LM00533
 12520 TSX +0 07400 4 00024
      S66        FLAG=11                                                            498  LM00534
 12521 CLA +0 50000 0 06473    12522 STO +0 60100 0 56111
                 EXECUTE IOP.                                                       499  LM00535
 12523 TSX +0 07400 4 00024
      S64B       FLAG=12                                                            500  LM00536
 12524 CLA +0 50000 0 06474    12525 STO +0 60100 0 56111
                 EXECUTE IOP.                                                       501  LM00537
 12526 TSX +0 07400 4 00024
      S63        FLAG=14                                                            502  LM00538
 12527 CLA +0 50000 0 06476    12530 STO +0 60100 0 56111
                 EXECUTE IOP.                                                       503  LM00539
 12531 TSX +0 07400 4 00024
      S67        FLAG = 15                                                          504  LM00540
 12532 CLA +0 50000 0 06477    12533 STO +0 60100 0 56111
                 EXECUTE IOP.                                                       505  LM00541
 12534 TSX +0 07400 4 00024
      S23A       FLAG = 16                                                          506  LM00542
 12535 CLA +0 50000 0 06500    12536 STO +0 60100 0 56111
                 EXECUTE MADTR2.                                                    507  LM00543
 12537 TSX +0 07400 4 00026
      S133       FLAG = 17                                                          508  LM00544
 12540 CLA +0 50000 0 06501    12541 STO +0 60100 0 56111
                 EXECUTE MADTR2.                                                    509  LM00545
 12542 TSX +0 07400 4 00026
      S29        FLAG = 18                                                          510  LM00546
 12543 CLA +0 50000 0 06502    12544 STO +0 60100 0 56111
                 EXECUTE MADTR2.                                                    511  LM00547
 12545 TSX +0 07400 4 00026
      S600       FLAG=19                                                            512  LM00548
 12546 CLA +0 50000 0 06503    12547 STO +0 60100 0 56111
                 EXECUTE MADTR2.                                                    513  LM00549
 12550 TSX +0 07400 4 00026
      S27        FLAG=1                                                             514  LM00550
 12551 CLA +0 50000 0 06461    12552 STO +0 60100 0 56111
                 EXECUTE MADTR2.                                                    515  LM00551
 12553 TSX +0 07400 4 00026
      S70        FLAG =15                                                           516  LM00552
 12554 CLA +0 50000 0 06477    12555 STO +0 60100 0 56111
                 EXECUTE MADTR2.                                                    517  LM00553
 12556 TSX +0 07400 4 00026
      S72        FLAG = 11                                                          518  LM00554
 12557 CLA +0 50000 0 06473    12560 STO +0 60100 0 56111
                 EXECUTE MADTR2.                                                    519  LM00555
 12561 TSX +0 07400 4 00026
      S73        FLAG=8                                                             520  LM00556
 12562 CLA +0 50000 0 06470    12563 STO +0 60100 0 56111
                 EXECUTE MADTR2.                                                    521  LM00557
 12564 TSX +0 07400 4 00026
      S71        FLAG=9                                                             522  LM00558
 12565 CLA +0 50000 0 06471    12566 STO +0 60100 0 56111
                 EXECUTE MADTR2.                                                    523  LM00559
 12567 TSX +0 07400 4 00026
      S81        FLAG=10                                                            524  LM00560
 12570 CLA +0 50000 0 06472    12571 STO +0 60100 0 56111
                 EXECUTE MADTR2.                                                    525  LM00561
 12572 TSX +0 07400 4 00026
      S2         CONTINUE                                                           526  LM00565
                 WHENEVER CCT.E.0,TRANSFER TO SW3                                   527  LM00566
 12573 CLA +0 50000 0 56121    12574 SUB +0 40200 0 06460    12575 TNZ -0 10000 0 12577    12576 TRA +0 02000 0 56106
                 K=6                                                                528  LM00570
 12577 CLA +0 50000 0 06466    12600 STO +0 60100 0 00727
                 C1=0                                                               529  LM00571
 12601 CLA +0 50000 0 06460    12602 STO +0 60100 0 00230
                 C2=1                                                               530  LM00572
 12603 CLA +0 50000 0 06461    12604 STO +0 60100 0 00231
                 L=0                                                                531  LM00573
 12605 CLA +0 50000 0 06460    12606 STO +0 60100 0 02164
                 HSET=0                                                             532  LM00574
 12607 CLA +0 50000 0 06460    12610 STO +0 60100 0 00567
                 DSET=0                                                             533  LM00575
 12611 CLA +0 50000 0 06460    12612 STO +0 60100 0 00555
      S201       WHENEVER K.L.6, TRANSFER TO S206                                   534  LM00576
 12613 CLA +0 50000 0 00727    12614 SUB +0 40200 0 06466    12615 TZE +0 10000 0 12620    12616 TPL +0 12000 0 12620
 12617 TRA +0 02000 0 00111
      S202       C1=C1+1                                                            535  LM00577
 12620 CLA +0 50000 0 00230    12621 ADD +0 40000 0 06461    12622 STO +0 60100 0 00230
                 WHENEVER C1.G.CCT, TRANSFER TO S212                                536  LM00578
 12623 CLA +0 50000 0 00230    12624 SUB +0 40200 0 56121    12625 TZE +0 10000 0 12630    12626 TMI -0 12000 0 12630
 12627 TRA +0 02000 0 00115
                 WHENEVER WHOLE.E.1, TRANSFER TO S205                               537  LM00579
 12630 CLA +0 50000 0 56120    12631 SUB +0 40200 0 06461    12632 TNZ -0 10000 0 12634    12633 TRA +0 02000 0 00110
                 THROUGH S203, FOR C2=C2,1,C2.G.500                                 538  LM00580
 12634 CLA +0 50000 0 00231    12635 STO +0 60100 0 00231    12636 TRA +0 02000 0 12642    12637 CLA +0 50000 0 00231
 12640 ADD +0 40000 0 06461    12641 STO +0 60100 0 00231    12642 CLA +0 50000 0 00231    12643 SUB +0 40200 0 06517
 12644 TZE +0 10000 0 12646    12645 TPL +0 12000 0 12675
                 OUT=.ABS.OUT(C2)                                                   539  LM00581
 12646 LXA +0 53400 2 00231    12647 CLA +0 50000 2 57174    12650 SSP +0 76000 0 00003    12651 STO +0 60100 0 57174
                 WHENEVER OUT.E.700.OR.OUT.G.C1, TRANSFER TO S204                   540  LM00582
 12652 CLA +0 50000 0 57174    12653 SUB +0 40200 0 00230    12654 TZE +0 10000 0 12656    12655 TPL +0 12000 0 12661
 12656 CLA +0 50000 0 57174    12657 SUB +0 40200 0 06522    12660 TNZ -0 10000 0 12662    12661 TRA +0 02000 0 00107
                 WHENEVER OUT.E.C1                                                  541  LM00583
 12662 CLA +0 50000 0 57174    12663 SUB +0 40200 0 00230    12664 TNZ -0 10000 0 12674
                 WHENEVER OUT(C2).L.0, TRANSFER TO S202                             542  LM00584
 12665 LXA +0 53400 1 00231    12666 CLA +0 50000 1 57174    12667 SUB +0 40200 0 06460    12670 TZE +0 10000 0 12673
 12671 TPL +0 12000 0 12673    12672 TRA +0 02000 0 00106
                 TRANSFER TO S205                                                   543  LM00585
 12673 TRA +0 02000 0 00110
      S203       END OF CONDITIONAL                                                 544  LM00586
 12674 TRA +0 02000 0 12637
      S204       C=I(C1)                                                            545  LM00587
 12675 LXA +0 53400 2 00230    12676 CLA +0 50000 2 61414    12677 STO +0 60100 0 00242
                 TRANSFER TO S207                                                   546  LM00588
 12700 TRA +0 02000 0 00112
      S205       DCOMPZ.(1,I(C1),K(1))                                              547  LM00589
 12701 CLA +0 50000 0 00230    12702 SUB +0 40200 0 12703    12703 TXH +3 00000 0 61414    12704 STA +0 62100 0 12707
 12705 TSX +0 07400 4 00012    12706 TXH +3 00000 0 06461    12707 TXH +3 00000 0 00000    12710 TXH +3 00000 0 00726
                 K=0                                                                548  LM00590
 12711 CLA +0 50000 0 06460    12712 STO +0 60100 0 00727
      S206       K=K+1                                                              549  LM00591
 12713 CLA +0 50000 0 00727    12714 ADD +0 40000 0 06461    12715 STO +0 60100 0 00727
                 C=K(K)                                                             550  LM00592
 12716 LXA +0 53400 2 00727    12717 CLA +0 50000 2 00727    12720 STO +0 60100 0 00242
      S207       WHENEVER C.E.536060606060K                                         551  LM00593
 12721 CLA +0 50000 0 00242    12722 SUB +0 40200 0 06663    12723 TNZ -0 10000 0 12730
                 DSET=1-DSET                                                        552  LM00594
 12724 CLA +0 50000 0 06461    12725 SUB +0 40200 0 00555    12726 STO +0 60100 0 00555
                 OR WHENEVER DSET.E.1.AND..NOT.ARG                                  553  LM00595
 12727 TRA +0 02000 0 13106    12730 ZET +0 52000 0 00207    12731 TRA +0 02000 0 13077    12732 CLA +0 50000 0 00555
 12733 SUB +0 40200 0 06461    12734 TNZ -0 10000 0 13077
                 WHENEVER C.E.$H$                                                   554  LM00596
 12735 CLA +0 50000 0 00242    12736 SUB +0 40200 0 06610    12737 TNZ -0 10000 0 13072
      S208       THROUGH S208, FOR C3=L,-1,C3.L.HSET.OR.L(C3).G.$9$.OR.             555  LM00597
                1L(C3).L.$0$                                                        555  LM00598
 12740 CLA +0 50000 0 02164    12741 STO +0 60100 0 00232    12742 TRA +0 02000 0 12746    12743 CLS +0 50200 0 06461
 12744 ADD +0 40000 0 00232    12745 STO +0 60100 0 00232    12746 LXA +0 53400 1 00232    12747 CLA +0 50000 1 02164
 12750 SUB +0 40200 0 06526    12751 TZE +0 10000 0 12753    12752 TMI -0 12000 0 12764    12753 CLA +0 50000 1 02164
 12754 SUB +0 40200 0 06535    12755 TZE +0 10000 0 12757    12756 TPL +0 12000 0 12764    12757 CLA +0 50000 0 00232
 12760 SUB +0 40200 0 00567    12761 TZE +0 10000 0 12763    12762 TMI -0 12000 0 12764    12763 TRA +0 02000 0 12743
                 WHENEVER C3.E.L                                                    556  LM00599
 12764 CLA +0 50000 0 00232    12765 SUB +0 40200 0 02164    12766 TNZ -0 10000 0 13011
                 C5=I(C1+1)                                                         557  LM00600
 12767 CLA +0 50000 0 00230    12770 ADD +0 40000 0 06461    12771 PAX +0 73400 2 00000    12772 CLA +0 50000 2 61414
 12773 STO +0 60100 0 00234
      S209       THROUGH S209, FOR C4=C1+2,1,I(C4).E.C5                             558  LM00601
 12774 CLA +0 50000 0 00230    12775 ADD +0 40000 0 06462    12776 STO +0 60100 0 00233    12777 TRA +0 02000 0 13003
 13000 CLA +0 50000 0 00233    13001 ADD +0 40000 0 06461    13002 STO +0 60100 0 00233    13003 LXA +0 53400 1 00233
 13004 CLA +0 50000 1 61414    13005 SUB +0 40200 0 00234    13006 TZE +0 10000 0 13010    13007 TRA +0 02000 0 13000
                 OTHERWISE                                                          559  LM00602
 13010 TRA +0 02000 0 13031
                 C4=C1+BCDBN.(ZCOMPZ.(L-C3,L(C3+1)))                                560  LM00603
 13011 CLA +0 50000 0 00232    13012 ADD +0 40000 0 06461    13013 SUB +0 40200 0 13014    13014 TXH +3 00000 0 02164
 13015 STA +0 62100 0 13023    13016 CLA +0 50000 0 02164    13017 SUB +0 40200 0 00232    13020 STO +0 60100 0 14500
 13021 TSX +0 07400 4 00041    13022 TXH +3 00000 0 14500    13023 TXH +3 00000 0 00000    13024 STO +0 60100 0 14500
 13025 TSX +0 07400 4 00001    13026 TXH +3 00000 0 14500    13027 ADD +0 40000 0 00230    13030 STO +0 60100 0 00233
                 END OF CONDITIONAL                                                 561  LM00604
                 THROUGH S210, FOR C1=C1,1,C1.G.C4                                  562  LM00605
 13031 CLA +0 50000 0 00230    13032 STO +0 60100 0 00230    13033 TRA +0 02000 0 13037    13034 CLA +0 50000 0 00230
 13035 ADD +0 40000 0 06461    13036 STO +0 60100 0 00230    13037 CLA +0 50000 0 00230    13040 SUB +0 40200 0 00233
 13041 TZE +0 10000 0 13043    13042 TPL +0 12000 0 13060
                 L=L+1                                                              563  LM00606
 13043 CLA +0 50000 0 02164    13044 ADD +0 40000 0 06461    13045 STO +0 60100 0 02164
                 WHENEVER L.G.610, TRANSFER TO S211                                 564  LM00607
 13046 CLA +0 50000 0 02164    13047 SUB +0 40200 0 06520    13050 TZE +0 10000 0 13053    13051 TMI -0 12000 0 13053
 13052 TRA +0 02000 0 00114
      S210       L(L)=I(C1)                                                         565  LM00608
 13053 LXA +0 53400 1 02164    13054 LXA +0 53400 2 00230    13055 CLA +0 50000 2 61414    13056 STO +0 60100 1 02164
 13057 TRA +0 02000 0 13034
                 HSET=L+1                                                           566  LM00609
 13060 CLA +0 50000 0 02164    13061 ADD +0 40000 0 06461    13062 STO +0 60100 0 00567
                 C1=C1-1                                                            567  LM00610
 13063 CLA +0 50000 0 00230    13064 SUB +0 40200 0 06461    13065 STO +0 60100 0 00230
                 K=6                                                                568  LM00611
 13066 CLA +0 50000 0 06466    13067 STO +0 60100 0 00727
                 TRANSFER TO S201                                                   569  LM00612
 13070 TRA +0 02000 0 00105
                 OR WHENEVER C.E.$$                                                 570  LM00613
 13071 TRA +0 02000 0 13076    13072 CLA +0 50000 0 00242    13073 SUB +0 40200 0 06672    13074 TNZ -0 10000 0 13076
                 TRANSFER TO S201                                                   571  LM00614
 13075 TRA +0 02000 0 00105
                 END OF CONDITIONAL                                                 572  LM00615
                 OR WHENEVER C.E.$$.AND.DSET.E.0                                    573  LM00616
 13076 TRA +0 02000 0 13106    13077 CLA +0 50000 0 00555    13100 SUB +0 40200 0 06460    13101 TNZ -0 10000 0 13106
 13102 CLA +0 50000 0 00242    13103 SUB +0 40200 0 06672    13104 TNZ -0 10000 0 13106
                 TRANSFER TO S201                                                   574  LM00617
 13105 TRA +0 02000 0 00105
                 END OF CONDITIONAL                                                 575  LM00618
                 L=L+1                                                              576  LM00619
 13106 CLA +0 50000 0 02164    13107 ADD +0 40000 0 06461    13110 STO +0 60100 0 02164
                 WHENEVER L.G.610                                                   577  LM00620
 13111 CLA +0 50000 0 02164    13112 SUB +0 40200 0 06520    13113 TZE +0 10000 0 13117    13114 TMI -0 12000 0 13117
      S211       ERRP.(25)                                                          578  LM00621
 13115 TSX +0 07400 4 00014    13116 TXH +3 00000 0 06506
                 END OF CONDITIONAL                                                 579  LM00622
                 L(L)=C                                                             580  LM00623
 13117 LXA +0 53400 1 02164    13120 CLA +0 50000 0 00242    13121 STO +0 60100 1 02164
                 TRANSFER TO S201                                                   581  LM00624
 13122 TRA +0 02000 0 00105
      S212       C3=0                                                               582  LM00628
 13123 CLA +0 50000 0 06460    13124 STO +0 60100 0 00232
      S213       WHENEVER L.G.C3+6                                                  583  LM00629
 13125 CLA +0 50000 0 00232    13126 ADD +0 40000 0 06466    13127 CHS +0 76000 0 00002    13130 ADD +0 40000 0 02164
 13131 TZE +0 10000 0 13732    13132 TMI -0 12000 0 13732
                 C1=COMPZ.(6,L(C3+1))                                               584  LM00630
 13133 CLA +0 50000 0 00232    13134 ADD +0 40000 0 06461    13135 SUB +0 40200 0 13136    13136 TXH +3 00000 0 02164
 13137 STA +0 62100 0 13142    13140 TSX +0 07400 4 00011    13141 TXH +3 00000 0 06466    13142 TXH +3 00000 0 00000
 13143 STO +0 60100 0 00230
                 C2=L(C3+7)                                                         585  LM00631
 13144 CLA +0 50000 0 00232    13145 ADD +0 40000 0 06467    13146 PAX +0 73400 2 00000    13147 CLA +0 50000 2 02164
 13150 STO +0 60100 0 00231
                 WHENEVER E.($WHENEV$,$E$)                                          586  LM00632
 13151 TSX +0 07400 4 00043    13152 TXH +3 00000 0 06714    13153 TXH +3 00000 0 06573    13154 TZE +0 10000 0 13247
                 S.(9)                                                              587  LM00633
 13155 TSX +0 07400 4 00047    13156 TXH +3 00000 0 06471
                 DSET=0                                                             588  LM00634
 13157 CLA +0 50000 0 06460    13160 STO +0 60100 0 00555
                 LEV=0                                                              589  LM00635
 13161 CLA +0 50000 0 06460    13162 STO +0 60100 0 00731
                 THROUGH S214, FOR C4=10,1,C4.G.L                                   590  LM00636
 13163 CLA +0 50000 0 06472    13164 STO +0 60100 0 00233    13165 TRA +0 02000 0 13171    13166 CLA +0 50000 0 00233
 13167 ADD +0 40000 0 06461    13170 STO +0 60100 0 00233    13171 CLA +0 50000 0 00233    13172 SUB +0 40200 0 02164
 13173 TZE +0 10000 0 13175    13174 TPL +0 12000 0 13246
                 WHENEVER L(C4).E.536060606060K                                     591  LM00637
 13175 LXA +0 53400 1 00233    13176 CLA +0 50000 1 02164    13177 SUB +0 40200 0 06663    13200 TNZ -0 10000 0 13205
                 DSET=1-DSET                                                        592  LM00638
 13201 CLA +0 50000 0 06461    13202 SUB +0 40200 0 00555    13203 STO +0 60100 0 00555
                 OR WHENEVER DSET.E.0                                               593  LM00639
 13204 TRA +0 02000 0 13245    13205 CLA +0 50000 0 00555    13206 SUB +0 40200 0 06460    13207 TNZ -0 10000 0 13245
                 WHENEVER L(C4).E.$($                                               594  LM00640
 13210 LXA +0 53400 1 00233    13211 CLA +0 50000 1 02164    13212 SUB +0 40200 0 06724    13213 TNZ -0 10000 0 13220
                 LEV=LEV+1                                                          595  LM00641
 13214 CLA +0 50000 0 00731    13215 ADD +0 40000 0 06461    13216 STO +0 60100 0 00731
                 OR WHENEVER L(C4).E.$)$                                            596  LM00642
 13217 TRA +0 02000 0 13245    13220 LXA +0 53400 1 00233    13221 CLA +0 50000 1 02164    13222 SUB +0 40200 0 06620
 13223 TNZ -0 10000 0 13230
                 LEV=LEV-1                                                          597  LM00643
 13224 CLA +0 50000 0 00731    13225 SUB +0 40200 0 06461    13226 STO +0 60100 0 00731
                 OR WHENEVER LEV.E.0                                                598  LM00644
 13227 TRA +0 02000 0 13245    13230 CLA +0 50000 0 00731    13231 SUB +0 40200 0 06460    13232 TNZ -0 10000 0 13245
                 WHENEVER L(C4).E.$,$                                               599  LM00645
 13233 LXA +0 53400 1 00233    13234 CLA +0 50000 1 02164    13235 SUB +0 40200 0 06721    13236 TNZ -0 10000 0 13245
                 C3=C4+1                                                            600  LM00646
 13237 CLA +0 50000 0 00233    13240 ADD +0 40000 0 06461    13241 STO +0 60100 0 00232
                 S.(0)                                                              601  LM00647
 13242 TSX +0 07400 4 00047    13243 TXH +3 00000 0 06460
                 TRANSFER TO S213                                                   602  LM00648
 13244 TRA +0 02000 0 00116
                 END OF CONDITIONAL                                                 603  LM00649
                 END OF CONDITIONAL                                                 604  LM00650
      S214       END OF CONDITIONAL                                                 605  LM00651
 13245 TRA +0 02000 0 13166
                 OR WHENEVER E.($THROUG$,$H$)                                       606  LM00652
 13246 TRA +0 02000 0 13732    13247 TSX +0 07400 4 00043    13250 TXH +3 00000 0 06702    13251 TXH +3 00000 0 06610
 13252 TZE +0 10000 0 13262
                 S.(8)                                                              607  LM00653
 13253 TSX +0 07400 4 00047    13254 TXH +3 00000 0 06470
                 S.(16)                                                             608  LM00654
 13255 TSX +0 07400 4 00047    13256 TXH +3 00000 0 06500
                 S.(20)                                                             609  LM00655
 13257 TSX +0 07400 4 00047    13260 TXH +3 00000 0 06504
                 OR WHENEVER E.($TRANSF$,$E$)                                       610  LM00656
 13261 TRA +0 02000 0 13732    13262 TSX +0 07400 4 00043    13263 TXH +3 00000 0 06704    13264 TXH +3 00000 0 06573
 13265 TZE +0 10000 0 13273
                 S.(9)                                                              611  LM00657
 13266 TSX +0 07400 4 00047    13267 TXH +3 00000 0 06471
                 S.(12)                                                             612  LM00658
 13270 TSX +0 07400 4 00047    13271 TXH +3 00000 0 06474
                 OR WHENEVER E.($EXECUT$,$E$)                                       613  LM00659
 13272 TRA +0 02000 0 13732    13273 TSX +0 07400 4 00043    13274 TXH +3 00000 0 06576    13275 TXH +3 00000 0 06573
 13276 TZE +0 10000 0 13302
                 S.(8)                                                              614  LM00660
 13277 TSX +0 07400 4 00047    13300 TXH +3 00000 0 06470
                 OR WHENEVER E.($PAUSEN$,$O$)                                       615  LM00661
 13301 TRA +0 02000 0 13732    13302 TSX +0 07400 4 00043    13303 TXH +3 00000 0 06636    13304 TXH +3 00000 0 06634
 13305 TZE +0 10000 0 13313
                 S.(6)                                                              616  LM00662
 13306 TSX +0 07400 4 00047    13307 TXH +3 00000 0 06466
                 S.(10)                                                             617  LM00663
 13310 TSX +0 07400 4 00047    13311 TXH +3 00000 0 06472
                 OR WHENEVER E.($PROGRA$,$M$)                                       618  LM00664
 13312 TRA +0 02000 0 13732    13313 TSX +0 07400 4 00043    13314 TXH +3 00000 0 06642    13315 TXH +3 00000 0 06624
 13316 TZE +0 10000 0 13324
                 S.(8)                                                              619  LM00665
 13317 TSX +0 07400 4 00047    13320 TXH +3 00000 0 06470
                 S.(15)                                                             620  LM00666
 13321 TSX +0 07400 4 00047    13322 TXH +3 00000 0 06477
                 OR WHENEVER E.($DIMENS$,$I$)                                       621  LM00667
 13323 TRA +0 02000 0 13732    13324 TSX +0 07400 4 00043    13325 TXH +3 00000 0 06554    13326 TXH +3 00000 0 06615
 13327 TZE +0 10000 0 13342
                 WHENEVER L(L).E.$,$,L=L-1                                          622  LM00668
 13330 LXA +0 53400 1 02164    13331 CLA +0 50000 1 02164    13332 SUB +0 40200 0 06721    13333 TNZ -0 10000 0 13337
 13334 CLA +0 50000 0 02164    13335 SUB +0 40200 0 06461    13336 STO +0 60100 0 02164
                 S.(10)                                                             623  LM00669
 13337 TSX +0 07400 4 00047    13340 TXH +3 00000 0 06472
                 OR WHENEVER E.($INTEGE$,$R$)                                       624  LM00670
 13341 TRA +0 02000 0 13732    13342 TSX +0 07400 4 00043    13343 TXH +3 00000 0 06612    13344 TXH +3 00000 0 06662
 13345 TZE +0 10000 0 13351
                 S.(8)                                                              625  LM00671
 13346 TSX +0 07400 4 00047    13347 TXH +3 00000 0 06470
                 OR WHENEVER E.($STATEM$,$E$)                                       626  LM00672
 13350 TRA +0 02000 0 13732    13351 TSX +0 07400 4 00043    13352 TXH +3 00000 0 06700    13353 TXH +3 00000 0 06573
 13354 TZE +0 10000 0 13362
                 S.(10)                                                             627  LM00673
 13355 TSX +0 07400 4 00047    13356 TXH +3 00000 0 06472
                 S.(16)                                                             628  LM00674
 13357 TSX +0 07400 4 00047    13360 TXH +3 00000 0 06500
                 OR WHENEVER E.($EQUIVA$,$L$)                                       629  LM00675
 13361 TRA +0 02000 0 13732    13362 TSX +0 07400 4 00043    13363 TXH +3 00000 0 06571    13364 TXH +3 00000 0 06622
 13365 TZE +0 10000 0 13371
                 S.(12)                                                             630  LM00676
 13366 TSX +0 07400 4 00047    13367 TXH +3 00000 0 06474
                 OR WHENEVER E.($VECTOR$,$V$)                                       631  LM00677
 13370 TRA +0 02000 0 13732    13371 TSX +0 07400 4 00043    13372 TXH +3 00000 0 06712    13373 TXH +3 00000 0 06713
 13374 TZE +0 10000 0 13402
                 S.(7)                                                              632  LM00678
 13375 TSX +0 07400 4 00047    13376 TXH +3 00000 0 06467
                 S.(14)                                                             633  LM00679
 13377 TSX +0 07400 4 00047    13400 TXH +3 00000 0 06476
                 OR WHENEVER E.($EXTERN$,$A$)                                       634  LM00680
 13401 TRA +0 02000 0 13732    13402 TSX +0 07400 4 00043    13403 TXH +3 00000 0 06577    13404 TXH +3 00000 0 06544
 13405 TZE +0 10000 0 13413
                 S.(9)                                                              635  LM00681
 13406 TSX +0 07400 4 00047    13407 TXH +3 00000 0 06471
                 S.(18)                                                             636  LM00682
 13410 TSX +0 07400 4 00047    13411 TXH +3 00000 0 06502
                 OR WHENEVER E.($INTERN$,$A$)                                       637  LM00683
 13412 TRA +0 02000 0 13732    13413 TSX +0 07400 4 00043    13414 TXH +3 00000 0 06613    13415 TXH +3 00000 0 06544
 13416 TZE +0 10000 0 13424
                 S.(9)                                                              638  LM00684
 13417 TSX +0 07400 4 00047    13420 TXH +3 00000 0 06471
                 S.(18)                                                             639  LM00685
 13421 TSX +0 07400 4 00047    13422 TXH +3 00000 0 06502
                 OR WHENEVER E.($ENTRYT$,$O$)                                       640  LM00686
 13423 TRA +0 02000 0 13732    13424 TSX +0 07400 4 00043    13425 TXH +3 00000 0 06567    13426 TXH +3 00000 0 06634
 13427 TZE +0 10000 0 13435
                 S.(6)                                                              641  LM00687
 13430 TSX +0 07400 4 00047    13431 TXH +3 00000 0 06466
                 S.(9)                                                              642  LM00688
 13432 TSX +0 07400 4 00047    13433 TXH +3 00000 0 06471
                 OR WHENEVER E.($FUNCTI$,$O$)                                       643  LM00689
 13434 TRA +0 02000 0 13732    13435 TSX +0 07400 4 00043    13436 TXH +3 00000 0 06604    13437 TXH +3 00000 0 06634
 13440 TZE +0 10000 0 13446
                 S.(9)                                                              644  LM00690
 13441 TSX +0 07400 4 00047    13442 TXH +3 00000 0 06471
                 S.(16)                                                             645  LM00691
 13443 TSX +0 07400 4 00047    13444 TXH +3 00000 0 06500
                 OR WHENEVER E.($ENDOFF$,$U$)                                       646  LM00692
 13445 TRA +0 02000 0 13732    13446 TSX +0 07400 4 00043    13447 TXH +3 00000 0 06562    13450 TXH +3 00000 0 06711
 13451 TZE +0 10000 0 13457
                 S.(4)                                                              647  LM00693
 13452 TSX +0 07400 4 00047    13453 TXH +3 00000 0 06464
                 S.(7)                                                              648  LM00694
 13454 TSX +0 07400 4 00047    13455 TXH +3 00000 0 06467
                 OR WHENEVER E.($ENDOFP$,$R$)                                       649  LM00695
 13456 TRA +0 02000 0 13732    13457 TSX +0 07400 4 00043    13460 TXH +3 00000 0 06563    13461 TXH +3 00000 0 06662
 13462 TZE +0 10000 0 13470
                 S.(4)                                                              650  LM00696
 13463 TSX +0 07400 4 00047    13464 TXH +3 00000 0 06464
                 S.(7)                                                              651  LM00697
 13465 TSX +0 07400 4 00047    13466 TXH +3 00000 0 06467
                 OR WHENEVER E.($READFO$,$R$)                                       652  LM00698
 13467 TRA +0 02000 0 13732    13470 TSX +0 07400 4 00043    13471 TXH +3 00000 0 06652    13472 TXH +3 00000 0 06662
 13473 TZE +0 10000 0 13501
                 S.(5)                                                              653  LM00699
 13474 TSX +0 07400 4 00047    13475 TXH +3 00000 0 06465
                 S.(12)                                                             654  LM00700
 13476 TSX +0 07400 4 00047    13477 TXH +3 00000 0 06474
                 OR WHENEVER E.($PUNCHF$,$O$)                                       655  LM00701
 13500 TRA +0 02000 0 13732    13501 TSX +0 07400 4 00043    13502 TXH +3 00000 0 06644    13503 TXH +3 00000 0 06634
 13504 TZE +0 10000 0 13512
                 S.(6)                                                              656  LM00702
 13505 TSX +0 07400 4 00047    13506 TXH +3 00000 0 06466
                 S.(13)                                                             657  LM00703
 13507 TSX +0 07400 4 00047    13510 TXH +3 00000 0 06475
                 OR WHENEVER E.($PRINTF$,$O$)                                       658  LM00704
 13511 TRA +0 02000 0 13732    13512 TSX +0 07400 4 00043    13513 TXH +3 00000 0 06640    13514 TXH +3 00000 0 06634
 13515 TZE +0 10000 0 13523
                 S.(6)                                                              659  LM00705
 13516 TSX +0 07400 4 00047    13517 TXH +3 00000 0 06466
                 S.(13)                                                             660  LM00706
 13520 TSX +0 07400 4 00047    13521 TXH +3 00000 0 06475
                 OR WHENEVER E.($PRINTO$,$N$)                                       661  LM00707
 13522 TRA +0 02000 0 13732    13523 TSX +0 07400 4 00043    13524 TXH +3 00000 0 06641    13525 TXH +3 00000 0 06630
 13526 TZE +0 10000 0 13536
                 S.(6)                                                              662  LM00708
 13527 TSX +0 07400 4 00047    13530 TXH +3 00000 0 06466
                 S.(13)                                                             663  LM00709
 13531 TSX +0 07400 4 00047    13532 TXH +3 00000 0 06475
                 S.(20)                                                             664  LM00710
 13533 TSX +0 07400 4 00047    13534 TXH +3 00000 0 06504
                 OR WHENEVER E.($READDR$,$U$)                                       665  LM00711
 13535 TRA +0 02000 0 13732    13536 TSX +0 07400 4 00043    13537 TXH +3 00000 0 06651    13540 TXH +3 00000 0 06711
 13541 TZE +0 10000 0 13547
                 S.(5)                                                              666  LM00712
 13542 TSX +0 07400 4 00047    13543 TXH +3 00000 0 06465
                 S.(10)                                                             667  LM00713
 13544 TSX +0 07400 4 00047    13545 TXH +3 00000 0 06472
                 OR WHENEVER E.($WRITED$,$R$)                                       668  LM00714
 13546 TRA +0 02000 0 13732    13547 TSX +0 07400 4 00043    13550 TXH +3 00000 0 06716    13551 TXH +3 00000 0 06662
 13552 TZE +0 10000 0 13560
                 S.(6)                                                              669  LM00715
 13553 TSX +0 07400 4 00047    13554 TXH +3 00000 0 06466
                 S.(11)                                                             670  LM00716
 13555 TSX +0 07400 4 00047    13556 TXH +3 00000 0 06473
                 OR WHENEVER E.($READBI$,$N$)                                       671  LM00717
 13557 TRA +0 02000 0 13732    13560 TSX +0 07400 4 00043    13561 TXH +3 00000 0 06650    13562 TXH +3 00000 0 06630
 13563 TZE +0 10000 0 13573
                 S.(5)                                                              672  LM00718
 13564 TSX +0 07400 4 00047    13565 TXH +3 00000 0 06465
                 S.(12)                                                             673  LM00719
 13566 TSX +0 07400 4 00047    13567 TXH +3 00000 0 06474
                 S.(17)                                                             674  LM00720
 13570 TSX +0 07400 4 00047    13571 TXH +3 00000 0 06501
                 OR WHENEVER E.($WRITEB$,$I$)                                       675  LM00721
 13572 TRA +0 02000 0 13732    13573 TSX +0 07400 4 00043    13574 TXH +3 00000 0 06715    13575 TXH +3 00000 0 06615
 13576 TZE +0 10000 0 13606
                 S.(6)                                                              676  LM00722
 13577 TSX +0 07400 4 00047    13600 TXH +3 00000 0 06466
                 S.(13)                                                             677  LM00723
 13601 TSX +0 07400 4 00047    13602 TXH +3 00000 0 06475
                 S.(18)                                                             678  LM00724
 13603 TSX +0 07400 4 00047    13604 TXH +3 00000 0 06502
                 OR WHENEVER E.($READBC$,$D$)                                       679  LM00725
 13605 TRA +0 02000 0 13732    13606 TSX +0 07400 4 00043    13607 TXH +3 00000 0 06647    13610 TXH +3 00000 0 06555
 13611 TZE +0 10000 0 13621
                 S.(5)                                                              680  LM00726
 13612 TSX +0 07400 4 00047    13613 TXH +3 00000 0 06465
                 S.(9)                                                              681  LM00727
 13614 TSX +0 07400 4 00047    13615 TXH +3 00000 0 06471
                 S.(14)                                                             682  LM00728
 13616 TSX +0 07400 4 00047    13617 TXH +3 00000 0 06476
                 OR WHENEVER E.($WRITEB$,$C$)                                       683  LM00729
 13620 TRA +0 02000 0 13732    13621 TSX +0 07400 4 00043    13622 TXH +3 00000 0 06715    13623 TXH +3 00000 0 06553
 13624 TZE +0 10000 0 13634
                 S.(6)                                                              684  LM00730
 13625 TSX +0 07400 4 00047    13626 TXH +3 00000 0 06466
                 S.(10)                                                             685  LM00731
 13627 TSX +0 07400 4 00047    13630 TXH +3 00000 0 06472
                 S.(15)                                                             686  LM00732
 13631 TSX +0 07400 4 00047    13632 TXH +3 00000 0 06477
                 OR WHENEVER E.($BACKSP$,$A$)                                       687  LM00733
 13633 TRA +0 02000 0 13732    13634 TSX +0 07400 4 00043    13635 TXH +3 00000 0 06546    13636 TXH +3 00000 0 06544
 13637 TZE +0 10000 0 13651
                 S.(10)                                                             688  LM00734
 13640 TSX +0 07400 4 00047    13641 TXH +3 00000 0 06472
                 S.(17)                                                             689  LM00735
 13642 TSX +0 07400 4 00047    13643 TXH +3 00000 0 06501
                 S.(20)                                                             690  LM00736
 13644 TSX +0 07400 4 00047    13645 TXH +3 00000 0 06504
                 S.(25)                                                             691  LM00737
 13646 TSX +0 07400 4 00047    13647 TXH +3 00000 0 06506
                 OR WHENEVER E.($ENDOFF$,$I$)                                       692  LM00738
 13650 TRA +0 02000 0 13732    13651 TSX +0 07400 4 00043    13652 TXH +3 00000 0 06562    13653 TXH +3 00000 0 06615
 13654 TZE +0 10000 0 13666
                 S.(4)                                                              693  LM00739
 13655 TSX +0 07400 4 00047    13656 TXH +3 00000 0 06464
                 S.(7)                                                              694  LM00740
 13657 TSX +0 07400 4 00047    13660 TXH +3 00000 0 06467
                 S.(12)                                                             695  LM00741
 13661 TSX +0 07400 4 00047    13662 TXH +3 00000 0 06474
                 S.(17)                                                             696  LM00742
 13663 TSX +0 07400 4 00047    13664 TXH +3 00000 0 06501
                 OR WHENEVER E.($REWIND$,$T$)                                       697  LM00743
 13665 TRA +0 02000 0 13732    13666 TSX +0 07400 4 00043    13667 TXH +3 00000 0 06655    13670 TXH +3 00000 0 06705
 13671 TZE +0 10000 0 13677
                 S.(7)                                                              698  LM00744
 13672 TSX +0 07400 4 00047    13673 TXH +3 00000 0 06467
                 S.(12)                                                             699  LM00745
 13674 TSX +0 07400 4 00047    13675 TXH +3 00000 0 06474
                 OR WHENEVER E.($MODEST$,$R$)                                       700  LM00746
 13676 TRA +0 02000 0 13732    13677 TSX +0 07400 4 00043    13700 TXH +3 00000 0 06623    13701 TXH +3 00000 0 06662
 13702 TZE +0 10000 0 13732
                 S.(5)                                                              701  LM00747
 13703 TSX +0 07400 4 00047    13704 TXH +3 00000 0 06465
                 S.(15)                                                             702  LM00748
 13705 TSX +0 07400 4 00047    13706 TXH +3 00000 0 06477
      S215       THROUGH S215, FOR C3=16,1,L(C3).E.$,$                              703  LM00749
 13707 CLA +0 50000 0 06500    13710 STO +0 60100 0 00232    13711 TRA +0 02000 0 13715    13712 CLA +0 50000 0 00232
 13713 ADD +0 40000 0 06461    13714 STO +0 60100 0 00232    13715 LXA +0 53400 1 00232    13716 CLA +0 50000 1 02164
 13717 SUB +0 40200 0 06721    13720 TZE +0 10000 0 13722    13721 TRA +0 02000 0 13712
                 S.(1)                                                              704  LM00750
 13722 TSX +0 07400 4 00047    13723 TXH +3 00000 0 06461
                 S.(6)                                                              705  LM00751
 13724 TSX +0 07400 4 00047    13725 TXH +3 00000 0 06466
                 S.(15)                                                             706  LM00752
 13726 TSX +0 07400 4 00047    13727 TXH +3 00000 0 06477
                 S.(18)                                                             707  LM00753
 13730 TSX +0 07400 4 00047    13731 TXH +3 00000 0 06502
                 END OF CONDITIONAL                                                 708  LM00754
                 END OF CONDITIONAL                                                 709  LM00755
                 INTERNAL FUNCTION E.(E1,E2)=C1.E.E1.AND.C2.E.E2                    710  LM00759
 13732 TRA +0 02000 0 13763    00043 TTR +0 02100 0 13733    13733 SXA +0 63400 2 13747    13734 TSX +0 07400 2 13747
 13735 CLA +0 50000 0 00231    13736 SUB +0 40200 0 00024    13737 TNZ -0 10000 0 13745    13740 CLA +0 50000 0 00230
 13741 SUB +0 40200 0 00024    13742 TNZ -0 10000 0 13745    13743 CLA +0 50000 0 06461    13744 TRA +0 02000 0 13746
 13745 PXD -0 75400 0 00000    13746 TRA +0 02000 0 13757    13747 TXH +3 00000 0 00000    13750 SXD -0 63400 1 13747
 13751 SXA +0 63400 4 13757    13752 CLA +0 50000 4 00001    13753 STA +0 62100 0 13741    13754 CLA +0 50000 4 00002
 13755 STA +0 62100 0 13736    13756 TRA +0 02000 2 00001    13757 AXT +0 77400 4 00000    13760 LXA +0 53400 2 13747
 13761 LXD -0 53400 1 13747    13762 TRA +0 02000 4 00001
                 BOOLEAN E.                                                         711  LM00760
                 INTERNAL FUNCTION (E3)                                             712  LM00761
 13763 TRA +0 02000 0 14041
                 ENTRY TO S.                                                        713  LM00765
 13764 TRA +0 02000 0 13767    00047 TTR +0 02100 0 13765    13765 SXA +0 63400 2 14027    13766 TSX +0 07400 2 14027
                 L=L+1                                                              714  LM00766
 13767 CLA +0 50000 0 02164    13770 ADD +0 40000 0 06461    13771 STO +0 60100 0 02164
                 WHENEVER L.G.610, TRANSFER TO S2AA                                 715  LM00767
 13772 CLA +0 50000 0 02164    13773 SUB +0 40200 0 06520    13774 TZE +0 10000 0 13777    13775 TMI -0 12000 0 13777
 13776 TRA +0 02000 0 00127
                 C5=C3+E3                                                           716  LM00768
 13777 CLA +0 50000 0 00232    14000 ADD +0 40000 0 00024    14001 STO +0 60100 0 00234
                 THROUGH SPACE, FOR C4=L,-1,C4.E.C5                                 717  LM00769
 14002 CLA +0 50000 0 02164    14003 STO +0 60100 0 00233    14004 TRA +0 02000 0 14010    14005 CLS +0 50200 0 06461
 14006 ADD +0 40000 0 00233    14007 STO +0 60100 0 00233    14010 CLA +0 50000 0 00233    14011 SUB +0 40200 0 00234
 14012 TZE +0 10000 0 14022
      SPACE      L(C4)=L(C4-1)                                                      718  LM00770
 14013 CLA +0 50000 0 00233    14014 SUB +0 40200 0 06461    14015 LXA +0 53400 1 00233    14016 PAX +0 73400 2 00000
 14017 CLA +0 50000 2 02164    14020 STO +0 60100 1 02164    14021 TRA +0 02000 0 14005
                 L(C4)=$$                                                           719  LM00771
 14022 LXA +0 53400 1 00233    14023 CLA +0 50000 0 06672    14024 STO +0 60100 1 02164
                 FUNCTION RETURN                                                    720  LM00772
 14025 TRA +0 02000 0 14035
                 END OF FUNCTION                                                    721  LM00773
 14026 TSX +0 07400 4 00015    14027 TXH +3 00000 0 00000    14030 SXD -0 63400 1 14027    14031 SXA +0 63400 4 14035
 14032 CLA +0 50000 4 00001    14033 STA +0 62100 0 14000    14034 TRA +0 02000 2 00001    14035 AXT +0 77400 4 00000
 14036 LXA +0 53400 2 14027    14037 LXD -0 53400 1 14027    14040 TRA +0 02000 4 00001
      S2AA       CCARD=$$                                                           722  LM00777
 14041 CLA +0 50000 0 06672    14042 STO +0 60100 0 00236
                 C1=1                                                               723  LM00778
 14043 CLA +0 50000 0 06461    14044 STO +0 60100 0 00230
      S2A        C2=C1+60                                                           724  LM00779
 14045 CLA +0 50000 0 00230    14046 ADD +0 40000 0 06511    14047 STO +0 60100 0 00231
                 WHENEVER C2.G.L, C2=L                                              725  LM00780
 14050 CLA +0 50000 0 00231    14051 SUB +0 40200 0 02164    14052 TZE +0 10000 0 14056    14053 TMI -0 12000 0 14056
 14054 CLA +0 50000 0 02164    14055 STO +0 60100 0 00231
                 OUTFMT(3)=BNBCD.(C2-C1+1)                                          726  LM00781
 14056 CLA +0 50000 0 00231    14057 SUB +0 40200 0 00230    14060 ADD +0 40000 0 06461    14061 STO +0 60100 0 14500
 14062 TSX +0 07400 4 00002    14063 TXH +3 00000 0 14500    14064 STO +0 60100 0 02216
                 OUTFMT(5)=BNBCD.(60+C1-C2)                                         727  LM00782
 14065 CLA +0 50000 0 06511    14066 ADD +0 40000 0 00230    14067 SUB +0 40200 0 00231    14070 STO +0 60100 0 14500
 14071 TSX +0 07400 4 00002    14072 TXH +3 00000 0 14500    14073 STO +0 60100 0 02214
                 CARDNO=CARDNO+1                                                    728  LM00783
 14074 CLA +0 50000 0 00235    14075 ADD +0 40000 0 06461    14076 STO +0 60100 0 00235
                 WHENEVER CSW                                                       729  LM00784
 14077 NZT -0 52000 0 56102    14100 TRA +0 02000 0 14106
                 PRPSTM.                                                            730  LM00785
 14101 TSX +0 07400 4 00046
                 XXWC=FWRITE.(MADNAM,STMOUT(0)...STMOUT(13))                        731  LM00786
 14102 TSX +0 07400 4 00022    14103 TXH +3 00000 0 02166    14104 TIX +2 02237 0 02254    14105 STO +0 60100 0 02272
                 END OF CONDITIONAL                                                 732  LM00787
                 WHENEVER CRUMP                                                     733  LM00788
 14106 NZT -0 52000 0 56113    14107 TRA +0 02000 0 14110
                 END OF CONDITIONAL                                                 734  LM00789
                 VECTOR VALUES OUTFMT=$1H  , C6,C4,C1,         C1,S        ,C3      735  LM00790
                1,C5*$                                                              735  LM00791
 02212     -1 46060 6 06060    02213     -3 32303 7 32305    02214     -2 06060 6 06060    02215     +2 30173 6 26060
 02216     -2 06060 6 06060    02217     +2 30173 6 06060    02220     +2 30673 2 30473    02221     +0 13060 6 07360
                 WHENEVER C2.E.L,TRANSFER TO SW3                                    736  LM00792
 14110 CLA +0 50000 0 00231    14111 SUB +0 40200 0 02164    14112 TNZ -0 10000 0 14114    14113 TRA +0 02000 0 56106
                 STNO=$$                                                            737  LM00793
 14114 CLA +0 50000 0 06672    14115 STO +0 60100 0 56124
                 SNOP=$$                                                            738  LM00794
 14116 CLA +0 50000 0 06672    14117 STO +0 60100 0 02235
                 WHENEVER CCARD.E.$$                                                739  LM00795
 14120 CLA +0 50000 0 00236    14121 SUB +0 40200 0 06672    14122 TNZ -0 10000 0 14126
                 CCARD=$1$                                                          740  LM00796
 14123 CLA +0 50000 0 06531    14124 STO +0 60100 0 00236
                 OTHERWISE                                                          741  LM00797
 14125 TRA +0 02000 0 14131
                 CCARD=CCARD+$100000$                                               742  LM00798
 14126 CLA +0 50000 0 00236    14127 ADD +0 40000 0 06527    14130 STO +0 60100 0 00236
                 END OF CONDITIONAL                                                 743  LM00799
                 C1=C2+1                                                            744  LM00800
 14131 CLA +0 50000 0 00231    14132 ADD +0 40000 0 06461    14133 STO +0 60100 0 00230
                 TRANSFER TO S2A                                                    745  LM00801
 14134 TRA +0 02000 0 00130
      S17C       WHENEVER LAG.E.$EOF$                                               746  LM00805
 14135 CLA +0 50000 0 00730    14136 SUB +0 40200 0 06570    14137 TNZ -0 10000 0 14146
                 TS3=S17                                                            747  LM00806
 14140 CLA +0 50000 0 00101    14141 STO +0 60100 0 56105
                 ERRP.(20)                                                          748  LM00807
 14142 TSX +0 07400 4 00014    14143 TXH +3 00000 0 06504
      S17        TS3=S3                                                             749  LM00808
 14144 CLA +0 50000 0 00143    14145 STO +0 60100 0 56105
                 END OF CONDITIONAL                                                 750  LM00809
                 LAG=0                                                              751  LM00810
 14146 CLA +0 50000 0 06460    14147 STO +0 60100 0 00730
                 STNO=$$                                                            752  LM00811
 14150 CLA +0 50000 0 06672    14151 STO +0 60100 0 56124
                 WHENEVER INTEG.E.0,TRANSFER TO S119                                753  LM00812
 14152 CLA +0 50000 0 73227    14153 SUB +0 40200 0 06460    14154 TNZ -0 10000 0 14156    14155 TRA +0 02000 0 00076
                 I(1)=$INTEGE$                                                      754  LM00813
 14156 CLA +0 50000 0 06612    14157 STO +0 60100 0 61413
                 I(2)=$R$                                                           755  LM00814
 14160 CLA +0 50000 0 06662    14161 STO +0 60100 0 61412
                 WHOLE=1                                                            756  LM00815
 14162 CLA +0 50000 0 06461    14163 STO +0 60100 0 56120
                 THROUGH S114, FOR A6=1,6,A6.G.INTEG                                757  LM00816
 14164 CLA +0 50000 0 06461    14165 STO +0 60100 0 00206    14166 TRA +0 02000 0 14172    14167 CLA +0 50000 0 00206
 14170 ADD +0 40000 0 06466    14171 STO +0 60100 0 00206    14172 CLA +0 50000 0 00206    14173 SUB +0 40200 0 73227
 14174 TZE +0 10000 0 14176    14175 TPL +0 12000 0 14326
                 A3=2                                                               758  LM00817
 14176 CLA +0 50000 0 06462    14177 STO +0 60100 0 00204
                 THROUGH S114B, FOR A2=A6,1,A2.G.A6+5.OR.A2.G.INTEG                 759  LM00818
 14200 CLA +0 50000 0 00206    14201 STO +0 60100 0 00203    14202 TRA +0 02000 0 14206    14203 CLA +0 50000 0 00203
 14204 ADD +0 40000 0 06461    14205 STO +0 60100 0 00203    14206 CLA +0 50000 0 00203    14207 SUB +0 40200 0 73227
 14210 TZE +0 10000 0 14212    14211 TPL +0 12000 0 14311    14212 CLA +0 50000 0 00206    14213 ADD +0 40000 0 06465
 14214 CHS +0 76000 0 00002    14215 ADD +0 40000 0 00203    14216 TZE +0 10000 0 14220    14217 TPL +0 12000 0 14311
                 I(A3+1)=INTEG(A2)                                                  760  LM00819
 14220 CLA +0 50000 0 00204    14221 ADD +0 40000 0 06461    14222 PAX +0 73400 1 00000    14223 LXA +0 53400 2 00203
 14224 CLA +0 50000 2 73227    14225 STO +0 60100 1 61414
                 A3=A3+2                                                            761  LM00820
 14226 CLA +0 50000 0 00204    14227 ADD +0 40000 0 06462    14230 STO +0 60100 0 00204
      S114A      THROUGH S114A, FOR A4=1,1,A4.G.FUNCT.OR.FUNCT(A4).E.INTEG(A2)      762  LM00821
 14231 CLA +0 50000 0 06461    14232 STO +0 60100 0 00205    14233 TRA +0 02000 0 14237    14234 CLA +0 50000 0 00205
 14235 ADD +0 40000 0 06461    14236 STO +0 60100 0 00205    14237 LXA +0 53400 1 00205    14240 LXA +0 53400 2 00203
 14241 CLA +0 50000 1 67306    14242 SUB +0 40200 2 73227    14243 TZE +0 10000 0 14251    14244 CLA +0 50000 0 00205
 14245 SUB +0 40200 0 67306    14246 TZE +0 10000 0 14250    14247 TPL +0 12000 0 14251    14250 TRA +0 02000 0 14234
                 WHENEVER A2.E.A6+5.OR.A2.E.INTEG                                   763  LM00822
 14251 CLA +0 50000 0 00203    14252 SUB +0 40200 0 73227    14253 TZE +0 10000 0 14261    14254 CLA +0 50000 0 00206
 14255 ADD +0 40000 0 06465    14256 CHS +0 76000 0 00002    14257 ADD +0 40000 0 00203    14260 TNZ -0 10000 0 14275
                    WHENEVER A4.G.FUNCT                                             764  LM00823
 14261 CLA +0 50000 0 00205    14262 SUB +0 40200 0 67306    14263 TZE +0 10000 0 14271    14264 TMI -0 12000 0 14271
                       I(A3)=$$                                                     765  LM00824
 14265 LXA +0 53400 1 00204    14266 CLA +0 50000 0 06672    14267 STO +0 60100 1 61414
                    OTHERWISE                                                       766  LM00825
 14270 TRA +0 02000 0 14274
                       I(A3)=$.$                                                    767  LM00826
 14271 LXA +0 53400 1 00204    14272 CLA +0 50000 0 06616    14273 STO +0 60100 1 61414
                    END OF CONDITIONAL                                              768  LM00827
                 OTHERWISE                                                          769  LM00828
 14274 TRA +0 02000 0 14310
                    WHENEVER A4.G.FUNCT                                             770  LM00829
 14275 CLA +0 50000 0 00205    14276 SUB +0 40200 0 67306    14277 TZE +0 10000 0 14305    14300 TMI -0 12000 0 14305
                       I(A3)=$,$                                                    771  LM00830
 14301 LXA +0 53400 1 00204    14302 CLA +0 50000 0 06721    14303 STO +0 60100 1 61414
                    OTHERWISE                                                       772  LM00831
 14304 TRA +0 02000 0 14310
                       I(A3)=$.,$                                                   773  LM00832
 14305 LXA +0 53400 1 00204    14306 CLA +0 50000 0 06617    14307 STO +0 60100 1 61414
                    END OF CONDITIONAL                                              774  LM00833
      S114B      END OF CONDITIONAL                                                 775  LM00834
 14310 TRA +0 02000 0 14203
                 CCT=A3                                                             776  LM00835
 14311 CLA +0 50000 0 00204    14312 STO +0 60100 0 56121
                 WHENEVER A2.G.INTEG                                                777  LM00836
 14313 CLA +0 50000 0 00203    14314 SUB +0 40200 0 73227    14315 TZE +0 10000 0 14322    14316 TMI -0 12000 0 14322
                    SW3=S119                                                        778  LM00837
 14317 CLA +0 50000 0 00076    14320 STO +0 60100 0 56106
                 OTHERWISE                                                          779  LM00838
 14321 TRA +0 02000 0 14324
                    SW3=S114                                                        780  LM00839
 14322 CLA +0 50000 0 00074    14323 STO +0 60100 0 56106
                 END OF CONDITIONAL                                                 781  LM00840
                 TRANSFER TO S2                                                     782  LM00841
 14324 TRA +0 02000 0 00051
      S114       CONTINUE                                                           783  LM00842
 14325 TRA +0 02000 0 14167
      S119       WHENEVER SUB.E.$ $                                                 784  LM00846
 14326 CLA +0 50000 0 56107    14327 SUB +0 40200 0 06672    14330 TNZ -0 10000 0 14336
                 I(2)=$ PROGR$                                                      785  LM00847
 14331 CLA +0 50000 0 06667    14332 STO +0 60100 0 61412
                 I(3)=$AM$                                                          786  LM00848
 14333 CLA +0 50000 0 06542    14334 STO +0 60100 0 61411
                 OTHERWISE                                                          787  LM00849
 14335 TRA +0 02000 0 14342
                 I(2)=$ FUNCT$                                                      788  LM00850
 14336 CLA +0 50000 0 06665    14337 STO +0 60100 0 61412
                 I(3)=$ION$                                                         789  LM00851
 14340 CLA +0 50000 0 06614    14341 STO +0 60100 0 61411
                 END OF CONDITIONAL                                                 790  LM00852
                 I(1)=$END OF$                                                      791  LM00853
 14342 CLA +0 50000 0 06564    14343 STO +0 60100 0 61413
                 STNO=STACON.V.1                                                    792  LM00854
 14344 CAL -0 50000 0 56122    14345 ORA -0 50100 0 06461    14346 SLW +0 60200 0 56124
                 WHOLE =1                                                           793  LM00855
 14347 CLA +0 50000 0 06461    14350 STO +0 60100 0 56120
                 CCT=3                                                              794  LM00856
 14351 CLA +0 50000 0 06463    14352 STO +0 60100 0 56121
                 SW3=S2000                                                          795  LM00857
 14353 CLA +0 50000 0 00104    14354 STO +0 60100 0 56106
                 TRANSFER TO S2                                                     796  LM00858
 14355 TRA +0 02000 0 00051
      S2000      ENDRD.(FILNAM)                                                     797  LM00859
 14356 TSX +0 07400 4 00013    14357 TXH +3 00000 0 00561
                 FILE.(MADNAM)                                                      798  LM00860
 14360 TSX +0 07400 4 00016    14361 TXH +3 00000 0 02166
                 WHENEVER CSW                                                       799  LM00861
 14362 NZT -0 52000 0 56102    14363 TRA +0 02000 0 14373
                 GOOD=GOOD+1                                                        800  LM00862
 14364 CLA +0 50000 0 00563    14365 ADD +0 40000 0 06461    14366 STO +0 60100 0 00563
                 NCOM.($   MAD$,MADNAM)                                             801  LM00863
 14367 TSX +0 07400 4 00027    14370 TXH +3 00000 0 06670    14371 TXH +3 00000 0 02166
                 OTHERWISE                                                          802  LM00864
 14372 TRA +0 02000 0 14402
                 PRNTP.(MSG2)                                                       803  LM00865
 14373 TSX +0 07400 4 00032    14374 TXH +3 00000 0 02176
                 V'S MSG2=$PROBABLE ERROR IN MADTRN FILE.$,777777777777K            804  LM00866
 02171     -3 77777 7 77777    02172     -2 02631 4 32533    02173     -0 42124 6 35145    02174     -0 65160 3 14560
 02175     -0 32560 2 55151    02176     -0 75146 2 22122
                 PRNTP.(XQMSG2)                                                     805  LM00867
 14375 TSX +0 07400 4 00032    14376 TXH +3 00000 0 02271
                 V'S XQMSG2=$MAD FILE CREATED,USE AT OWN RISK.$,777777777777K       806  LM00868
 02263     -3 77777 7 77777    02264     -2 24233 6 06060    02265     -0 66645 6 05131    02266     -2 22560 2 16360
 02267     +2 16325 2 47364    02270     -0 32560 2 35125    02271     -0 42124 6 02631
                 BRAKE.                                                             807  LM00869
 14377 TSX +0 07400 4 00003
                 CHNCOM.(0)                                                         808  LM00870
 14400 TSX +0 07400 4 00007    14401 TXH +3 00000 0 06460
                 END OF CONDITIONAL                                                 809  LM00871
      ROUT       A1=1                                                               810  LM00875
 14402 CLA +0 50000 0 06461    14403 STO +0 60100 0 00202
                 A2=61                                                              811  LM00876
 14404 CLA +0 50000 0 06512    14405 STO +0 60100 0 00203
                 RFMT(3)=$61$                                                       812  LM00877
 14406 CLA +0 50000 0 06532    14407 STO +0 60100 0 02227
                 RFMT(4)=$C1  , $                                                   813  LM00878
 14410 CLA +0 50000 0 06550    14411 STO +0 60100 0 02226
      R1         CARDNO=CARDNO+1                                                    814  LM00879
 14412 CLA +0 50000 0 00235    14413 ADD +0 40000 0 06461    14414 STO +0 60100 0 00235
                 WHENEVER CSW                                                       815  LM00880
 14415 NZT -0 52000 0 56102    14416 TRA +0 02000 0 14424
                 PAULA.                                                             816  LM00881
 14417 TSX +0 07400 4 00045
                 XXWC=FWRITE.(MADNAM,STMOUT(0)...STMOUT(13))                        817  LM00882
 14420 TSX +0 07400 4 00022    14421 TXH +3 00000 0 02166    14422 TIX +2 02237 0 02254    14423 STO +0 60100 0 02272
                 END OF CONDITIONAL                                                 818  LM00883
                 WHENEVER A1.E.1                                                    819  LM00884
 14424 CLA +0 50000 0 00202    14425 SUB +0 40200 0 06461    14426 TNZ -0 10000 0 14457
                 A1=62                                                              820  LM00885
 14427 CLA +0 50000 0 06513    14430 STO +0 60100 0 00202
                 A2=71                                                              821  LM00886
 14431 CLA +0 50000 0 06515    14432 STO +0 60100 0 00203
                 RFMT(3)=$10$                                                       822  LM00887
 14433 CLA +0 50000 0 06530    14434 STO +0 60100 0 02227
                 RFMT(4)=$C1,S51$                                                   823  LM00888
 14435 CLA +0 50000 0 06551    14436 STO +0 60100 0 02226
                 THROUGH R2, FOR A3=62,1,A3.G.71                                    824  LM00889
 14437 CLA +0 50000 0 06513    14440 STO +0 60100 0 00204    14441 TRA +0 02000 0 14445    14442 CLA +0 50000 0 00204
 14443 ADD +0 40000 0 06461    14444 STO +0 60100 0 00204    14445 CLA +0 50000 0 00204    14446 SUB +0 40200 0 06515
 14447 TZE +0 10000 0 14451    14450 TPL +0 12000 0 14457
      R2         WHENEVER I(A3).NE.$$, TRANSFER TO R1                               825  LM00890
 14451 LXA +0 53400 1 00204    14452 CLA +0 50000 1 61414    14453 SUB +0 40200 0 06672    14454 TZE +0 10000 0 14456
 14455 TRA +0 02000 0 00066    14456 TRA +0 02000 0 14442
                 END OF CONDITIONAL                                                 826  LM00891
                 VECTOR VALUES RFMT=$1H  , S10,1HR ,         C1  , ,C3,C5*$         827  LM00892
 02224     -1 46060 6 06060    02225     -3 32303 7 32305    02226     +2 30160 6 07360    02227     -2 06060 6 06060
 02230     -1 16073 6 06060    02231     -2 20100 7 30130    02232     +0 13060 6 07360
                 TRANSFER TO SW3                                                    828  LM00893
 14457 TRA +0 02000 0 56106
      S69        LAG=$EOF$                                                          829  LM00894
 14460 CLA +0 50000 0 06570    14461 STO +0 60100 0 00730
                 TRANSFER TO S7                                                     830  LM00895
 14462 TRA +0 02000 0 00170
      S60        EXECUTE ERRP.(ERRO)                                                831  LM00896
 14463 TSX +0 07400 4 00014    14464 TXH +3 00000 0 00557
      S30        EXECUTE SUBST.                                                     832  LM00897
 14465 TSX +0 07400 4 00040
      S9999      END OF FUNCTION                                                    833  LM00898
 14466 TSX +0 07400 4 00015    14467 TXH +3 00000 0 00000    14470 SXD -0 63400 1 14467    14471 SXA +0 63400 4 14473
 14472 TRA +0 02000 2 00001    14473 AXT +0 77400 4 00000    14474 LXA +0 53400 2 14467    14475 LXD -0 53400 1 14467
 14476 TRA +0 02000 4 00001
1                                                                                                PAGE 1

                       00002         ENTRY   BCDBN
                       00022         ENTRY   BNBCD
                       00040         ENTRY   COMPZ
                       00154         ENTRY   DCOMPZ
                       00212         ENTRY   ZERO
                       00042         ENTRY   ZCOMPZ
                              *      ROUTINES USED BY MADTRN3
                              *
                              *     BCDBN

            LINKAGE DIRECTOR
      00000  000000000000
      00001  222324224560

      00002  0560 60 4 00001  BCDBN  LDQ*    1,4
      00003 -0634 00 1 00153         SXD     COMMON,1
      00004  0600 00 0 00151         STZ     COMMON-2
      00005 -0534 00 1 00036         LXD     SIX,1
 T    00006 -0754 00 0 00000  LOOPA  PXD
      00007 -0763 00 0 00006         LGL     6
      00010  0601 00 0 00152         STO     COMMON-1
      00011  0500 00 0 00151         CLA     COMMON-2
      00012  0767 00 0 00002         ALS     2
      00013  0400 00 0 00151         ADD     COMMON-2
      00014  0767 00 0 00001         ALS     1
      00015  0400 00 0 00152         ADD     COMMON-1
      00016  0601 00 0 00151         STO     COMMON-2
      00017  2 00001 1 00006         TIX     LOOPA,1,1
      00020 -0534 00 1 00153         LXD     COMMON,1
      00021  0020 00 4 00002  HEREA  TRA     2,4
                              *
                              *      BNBCD
                              *
      00022  0560 60 4 00001  BNBCD  LDQ*    1,4
      00023 -0634 00 1 00153         SXD     COMMON,1
      00024  0600 00 0 00152         STZ     COMMON-1
      00025  0534 00 1 00036         LXA     SIX,1
 T    00026 -0754 00 0 00000  LOOP   PXD
      00027  0221 00 0 00037         DVP     TEN
      00030  0767 00 1 00044         ALS     36,1
      00031 -0602 00 0 00152         ORS     COMMON-1
      00032  2 00006 1 00026         TIX     LOOP,1,6
      00033  0500 00 0 00152         CLA     COMMON-1
      00034 -0534 00 1 00153         LXD     COMMON,1
      00035  0020 00 4 00002         TRA     2,4
      00036  0 00006 0 00044  SIX    PZE     36,,6
      00037  0 00000 0 00012  TEN    PZE     10
                              *
                              *     COMPZ
                              *
      00040  0600 00 0 00150  COMPZ  STZ     COMMON-3
      00041  0020 00 0 00043         TRA     *+2
      00042 -0634 00 4 00150  ZCOMPZ SXD     COMMON-3,4
      00043  0600 00 0 00152         STZ     COMMON-1
      00044 -0500 00 4 00003         CAL     3,4
      00045 -0320 00 0 00146         ANA     P3
1                                                                                                PAGE 2

      00046  0340 00 0 00146         CAS     P3
      00047  0020 00 0 00051         TRA     *+2
      00050 -0634 00 4 00152         SXD     COMMON-1,4
      00051  0634 00 1 00126         SXA     SV1,1
      00052  0634 00 2 00127         SXA     SV2,2
      00053  0634 00 4 00130         SXA     SV4,4
      00054  0500 60 4 00001         CLA*    1,4
      00055  0100 00 4 00003         TZE     3,4
      00056 -0120 00 4 00003         TMI     3,4
      00057  0402 00 0 00143         SUB     ONE
      00060  0767 00 0 00022         ALS     18
      00061  0100 00 0 00137         TZE     TEST
      00062  0622 00 0 00107  IN     STD     THAT
      00063  0622 00 0 00104         STD     THIS
      00064  0500 00 4 00002         CLA     2,4
      00065  0621 00 0 00074         STA     HERE
      00066  0500 00 4 00003         CLA     3,4
      00067  0621 00 0 00101         STA     THERE
      00070  0621 00 0 00123         STA     ACA
      00071 -0534 00 6 00142         LXD     SIXA,6
      00072  0534 00 1 00142         LXA     SIXA,1
 T    00073 -0754 00 0 00000         PXD
      00074  0560 00 4 00000  HERE   LDQ     **,4
      00075 -0763 00 0 00006         LGL     6
      00076  2 00006 1 00106         TIX     OUT,1,6
      00077 -0520 00 0 00152         NZT     COMMON-1
      00100  0020 00 0 00124         TRA     EXIT
      00101  0602 00 2 00000  THERE  SLW     **,2
      00102  1 00001 2 00103         TXI     *+1,2,1
      00103  1 00001 4 00104         TXI     *+1,4,1
      00104 -3 00000 4 00072  THIS   TXL     HERE-2,4,0
      00105  0020 00 0 00124         TRA     EXIT
      00106  1 00001 4 00107  OUT    TXI     *+1,4,1
      00107 -3 00000 4 00074  THAT   TXL     HERE,4,0
      00110  0520 00 0 00150         ZET     COMMON-3
      00111  0020 00 0 00121         TRA     ACA-2
      00112  0602 00 0 00147         SLW     COMMON-4
      00113 -0754 00 1 00000         PXD     0,1
      00114  0771 00 0 00022         ARS     18
      00115  0621 00 0 00120         STA     HOP
      00116 -0500 00 0 00147         CAL     COMMON-4
      00117  0560 00 0 00144         LDQ     SPACE
      00120 -0763 00 0 00000  HOP    LGL     **
      00121 -0520 00 0 00152         NZT     COMMON-1
      00122  0020 00 0 00124         TRA     EXIT
      00123  0602 00 2 00000  ACA    SLW     **,2
      00124  0602 00 0 00147  EXIT   SLW     COMMON-4
      00125  0500 00 0 00147         CLA     COMMON-4
      00126  0774 00 1 00000  SV1    AXT     0,1
      00127  0774 00 2 00000  SV2    AXT     0,2
      00130  0774 00 4 00000  SV4    AXT     0,4
      00131  0020 00 4 00003         TRA     3,4
      00132 -0500 60 4 00002  OUTER  CAL*    2,4
      00133 -0520 00 0 00152         NZT     COMMON-1
      00134  0020 00 0 00124         TRA     EXIT
      00135  0602 60 4 00003         SLW*    3,4
1                                                                                                PAGE 3

      00136  0020 00 0 00124         TRA     EXIT
      00137 -0520 00 0 00150  TEST   NZT     COMMON-3
      00140  0020 00 0 00132         TRA     OUTER
      00141  0020 00 0 00062         TRA     IN
      00142  0 00000 0 00044  SIXA   PZE     36
      00143  0 00000 0 00001  ONE    PZE     1
      00144 -206060606060     SPACE  OCT     606060606060
      00145  0 00000 0 00000  TEMP   PZE
      00146  3 00000 0 00000  P3     PTH
      00147                          BSS     4
      00153  0 00000 0 00000  COMMON PZE     0
                              *
                              *     DCOMPZ
                              *
      00154  0500 60 4 00001  DCOMPZ CLA*    1,4
      00155  0100 00 4 00004         TZE     4,4
      00156 -0120 00 4 00004         TMI     4,4
      00157  0402 00 0 00143         SUB     ONE
      00160  0767 00 0 00022         ALS     18
      00161  0622 00 0 00205         STD     DCOM4
      00162  0634 00 1 00206         SXA     DCOM5,1
      00163  0634 00 2 00207         SXA     DCOM5+1,2
      00164  0634 00 4 00210         SXA     DCOM5+2,4
      00165  0500 00 4 00002         CLA     2,4           INITIALIZE ADRESSES
      00166  0621 00 0 00173         STA     DCOM1
      00167  0500 00 4 00003         CLA     3,4
      00170  0621 00 0 00201         STA     DCOM3
      00171  0774 00 1 00000         AXT     0,1
      00172  0774 00 2 00000         AXT     0,2
      00173  0560 00 1 00000  DCOM1  LDQ     **,1
      00174  0774 00 4 00006         AXT     6,4
      00175 -0754 00 0 00000  DCOM2  PXD     0,0
      00176 -0763 00 0 00006         LGL     6
      00177  0767 00 0 00036         ALS     30
      00200 -0501 00 0 00245         ORA     =H0
      00201  0602 00 2 00000  DCOM3  SLW     **,2
      00202  1 00001 2 00203         TXI     *+1,2,1
      00203  2 00001 4 00175         TIX     DCOM2,4,1
      00204  1 00001 1 00205         TXI     *+1,1,1
      00205 -3 00000 1 00173  DCOM4  TXL     DCOM1,1,**
      00206  0774 00 1 00000  DCOM5  AXT     **,1
      00207  0774 00 2 00000         AXT     **,2
      00210  0774 00 4 00000         AXT     **,4
      00211  0020 00 4 00004         TRA     4,4
                              *
                              *    ZERO
                              *
      00212  0634 00 1 00237  ZERO   SXA     RX1,1
      00213  0634 00 2 00240         SXA     RX2,2
      00214  0634 00 4 00241         SXA     RX4,4
      00215  0500 00 4 00001         CLA     1,4
      00216  0621 00 0 00243         STA     SMAL
      00217  0771 00 0 00022         ARS     18
      00220  0621 00 0 00244         STA     BIG
      00221  0500 00 0 00244         CLA     BIG
      00222  0560 00 0 00243         LDQ     SMAL
1                                                                                                PAGE 4

      00223  0040 00 0 00225         TLQ     *+2
      00224  0131 00 0 00000         XCA
      00225 -0600 00 0 00243         STQ     SMAL
      00226  0402 00 0 00243         SUB     SMAL
      00227  0400 00 0 00143         ADD     ONE
      00230  0734 00 1 00000         PAX     0,1
      00231  0774 00 2 00000         AXT     0,2
      00232  0534 00 4 00243         LXA     SMAL,4
      00233  0634 00 4 00234         SXA     *+1,4
      00234  0600 00 2 00000         STZ     **,2
      00235  1 77777 2 00236         TXI     *+1,2,-1
      00236  2 00001 1 00234         TIX     *-2,1,1
      00237  0774 00 1 00000  RX1    AXT     **,1
      00240  0774 00 2 00000  RX2    AXT     **,2
      00241  0774 00 4 00000  RX4    AXT     **,4
      00242  0020 00 4 00002         TRA     2,4
      00243  0 00000 0 00000  SMAL   PZE
      00244  0 00000 0 00000  BIG    PZE
                                     END

        LITERALS
      00245  006060606060
1                                                                                                PAGE 1
                        POST PROCESSOR ASSEMBLY DATA

        246 IS THE FIRST LOCATION NOT USED BY THIS PROGRAM

0REFERENCES TO DEFINED SYMBOLS
         62     IN   141
        146     P3    45,   46
        123    ACA    70,  111
        244    BIG   220,  221
        120    HOP   115
        143    ONE    57,  157,  227
        106    OUT    76
        237    RX1   212
        240    RX2   213
        241    RX4   214
         36    SIX     5,   25
        126    SV1    51
        127    SV2    52
        130    SV4    53
         37    TEN    27
        124   EXIT   100,  105,  122,  134,  136
         74   HERE    65,  104,  107
         26   LOOP    32
        142   SIXA    71,   72
        243   SMAL   216,  222,  225,  226,  232
        145   TEMP
        137   TEST    61
        107   THAT    62
        104   THIS    63
        212   ZERO     0
          2  BCDBN     0
         22  BNBCD     0
         40  COMPZ     0
        173  DCOM1   166,  205
        175  DCOM2   203
        201  DCOM3   170
        205  DCOM4   161
        206  DCOM5   162,  163,  164
         21  HEREA
          6  LOOPA    17
        132  OUTER   140
        144  SPACE   117
        101  THERE    67
        153 COMMON     3,    4,   10,   11,   13,   15,   16,   20,   23,   24,   31,   33,   34,   40,   42,   43,   50
                      77,  110,  112,  116,  121,  124,  125,  133,  137
        154 DCOMPZ     0
         42 ZCOMPZ     0

0 NO ERROR IN ABOVE ASSEMBLY.
