1     MAD PROGRAM LISTING ... ... ...                 FILE    MTR2   MAD            02/07/68    2125.5
-
                                   MTR2                                                                LM00001
                                                                                                       LM00002
                  EXTERNAL FUNCTION                                                               *001 LM00003
                  INSERT FILE TDFEV                                                               *002 LM00004
                  DEFINE BINARY OPERATOR .EV., PRECEDENCE SAME AS .V.                             *003 LM00001
                  MODE STRUCTURE 1 .EV. 1 TO 1                                                    *004 LM00002
             JMP      *+7,AC,*+1                                                                  *005 LM00003
             JMP      *+1,MQ,*+3                                                                  *006 LM00004
             JMP      *+9,AT,*+1                                                                  *007 LM00005
             JMP      *+10,BT,*+13                                                                *008 LM00006
             JMP      *+1,LA,*+4                                                                  *009 LM00007
             JMP      *+4,AT,*+1                                                                  *010 LM00008
             JMP      *+8,BT,*+12                                                                 *011 LM00009
             STO      T                                                                           *012 LM00010
             CAL      A                                                                           *013 LM00011
             ERA      B                                                                           *014 LM00012
             OUT      LAC                                                                         *015 LM00013
             XCL                                                                                  *016 LM00014
             JMP      *-3                                                                         *017 LM00015
             XCL                                                                                  *018 LM00016
             ERA      A                                                                           *019 LM00017
             OUT      LAC                                                                         *020 LM00018
             STQ      T                                                                           *021 LM00019
             JMP      *-9                                                                         *022 LM00020
             SLW      T                                                                           *023 LM00021
             JMP      *-11                                                                        *024 LM00022
             END                                                                                  *025 LM00023
                  NORMAL MODE IS INTEGER                                                          *026 LM00005
                  ERASABLE DUM(200),N(2000),INTEG(2000),FUNCT(1000),DIM(2000),                    *027 LM00006
                1 I(666),HOL(500),OUT(500),ARRG(50),STNO,NSNO,STACON,CCT,WHOLE,                   *027 LM00007
                2 DUMP,BUMP,LUMP,RUMP,CRUMP,PUMP,FLAG,BOOLFL,SUB,SW3,TS3,PR,                      *027 LM00008
                3 ERR,CSW,NUMBER,MOX,ZZXQ1                                                        *027 LM00009
                  BOOLEAN BOOLFL,CSW,MOX,DUMP,BUMP,LUMP,RUMP,CRUMP,PUMP                           *028 LM00010
                  STATEMENT LABEL SW3,TS3,PR,ZZXQ1                                                *029 LM00011
                  DIMENSION TEMP(6),ARG(100)                                                      *030 LM00012
                  EQUIVALENCE (S2,S45,AS2), (STOUT,ASTOUT)                                        *031 LM00013
                  BOOLEAN PSET,OPCHK.,DGT.                                                        *032 LM00014
                  STATEMENT LABEL S45, STOUT                                                      *033 LM00015
                                                                                                       LM00016
                   MADTR2.                                                                             LM00017
                                                                                                       LM00018
                  ENTRY TO MADTR2.                                                                *034 LM00019
                  TRANSFER TO S(FLAG)                                                             *035 LM00020
                                                                                                       LM00021
                   END FILE                                                                            LM00022
                                                                                                       LM00023
      S(1)        I(1)=$END OF$                                                                   *036 LM00024
                  I(2)=$FILE T$                                                                   *037 LM00025
                  I(3)=$APE$                                                                      *038 LM00026
                  OUT(1)=1                                                                        *039 LM00027
                  OUT(2)=2                                                                        *040 LM00028
                  OUT(3)=3                                                                        *041 LM00029
                  OUT(4)=-4                                                                       *042 LM00030
                  OUT(5)=-5                                                                       *043 LM00031
                  OUT(6)=-6                                                                       *044 LM00032
                  OUT(7)=-7                                                                       *045 LM00033
                  OUT(8)=700                                                                      *046 LM00034
                  TRANSFER TO S2                                                                  *047 LM00035
                                                                                                       LM00036
                   COMMON                                                                              LM00037
                                                                                                       LM00038
      S(15)       I(1)=$PROGRA$                                                                   *048 LM00039
                  I(2)=$M COMM$                                                                   *049 LM00040
                  I(3)=$ON$                                                                       *050 LM00041
                  OUT(1)=1                                                                        *051 LM00042
                  OUT(2)=2                                                                        *052 LM00043
                  OUT(3)=3                                                                        *053 LM00044
                  OUT(4)=-4                                                                       *054 LM00045
                  OUT(5)=-5                                                                       *055 LM00046
                  OUT(6)=-6                                                                       *056 LM00047
                  OUT(7)=700                                                                      *057 LM00048
                  TRANSFER TO S2                                                                  *058 LM00049
                                                                                                       LM00050
                   BACKSPACE                                                                           LM00051
                                                                                                       LM00052
      S(11)       I(7)=$ACE RE$                                                                   *059 LM00053
                  I(8)=$CORD 0$                                                                   *060 LM00054
                  I(9)=$F TAPE$                                                                   *061 LM00055
                  OUT(1)=7                                                                        *062 LM00056
                  OUT(2)=8                                                                        *063 LM00057
                  OUT(3)=9                                                                        *064 LM00058
                  OUT(4)=700                                                                      *065 LM00059
                  TRANSFER TO S2                                                                  *066 LM00060
                                                                                                       LM00061
                   REWIND                                                                              LM00062
                                                                                                       LM00063
      S(8)        WHENEVER I(7).E.$($,TRANSFER TO S30                                             *067 LM00064
                  I(5)=$ND$                                                                       *068 LM00065
                  I(6)=$TAPE$                                                                     *069 LM00066
                  OUT(1)=5                                                                        *070 LM00067
                  OUT(2)=6                                                                        *071 LM00068
                  OUT(3)=700                                                                      *072 LM00069
                  TRANSFER TO S2                                                                  *073 LM00070
                                                                                                       LM00071
                   DIMENSION                                                                           LM00072
                                                                                                       LM00073
      S(9)        SW1=0                                                                           *074 LM00074
                  CT=0                                                                            *075 LM00075
                  A4 = 10                                                                         *076 LM00076
                  SW2=10                                                                          *077 LM00077
      S78         THROUGH S78,FOR A1=SW2,1,OPCHK.(I(A1)).OR.A1.G.CCT                              *078 LM00078
                  WHENEVER I(A1).NE.$($.OR.A1.G.CCT                                               *079 LM00079
      S76         ERRO =11                                                                        *080 LM00080
                  TRANSFER TO S60                                                                 *081 LM00081
                  END OF CONDITIONAL                                                              *082 LM00082
                  WHENEVER SUB.NE.$ $                                                             *083 LM00083
                  CT=0                                                                            *084 LM00084
                  EXECUTE COMPZ.(A1-SW2,I(SW2),I)                                                 *085 LM00085
      S74A        THROUGH S74A, FOR A6=1,1,ARRG(A6).E.I.OR.A6.G.ARRG                              *086 LM00086
                  WHENEVER A6.LE.ARRG                                                             *087 LM00087
                  CT=1                                                                            *088 LM00088
                  END OF CONDITIONAL                                                              *089 LM00089
                  END OF CONDITIONAL                                                              *090 LM00090
                  WHENEVER SUB.NE.$ $,DCHECK=A4                                                   *091 LM00091
                  SW5=0                                                                           *092 LM00092
                  SW4=A1+1                                                                        *093 LM00093
                  A3=SW4                                                                          *094 LM00094
      S75         THROUGH S75,FOR A2=SW4 ,1,OPCHK.(I(A2)).OR.A2.G.CCT                             *095 LM00095
                  WHENEVER I(A2).E.$,$.OR.I(A2).E.$)$                                             *096 LM00096
                  SW5=SW5+1                                                                       *097 LM00097
                  EXECUTE ZCOMPZ.(A2-SW4,I(SW4  ),TEMP(SW5))                                      *098 LM00098
                  WHENEVER I(A2).E.$)$.AND.SW5.E.1,TRANSFER TO S74                                *099 LM00099
                  WHENEVER SW5.G.3                                                                *100 LM00100
                  ERRO =12                                                                        *101 LM00101
                  TRANSFER TO S60                                                                 *102 LM00102
                  OR WHENEVER SW5.E.2                                                             *103 LM00103
                  SW4=A2+1                                                                        *104 LM00104
                  OTHERWISE                                                                       *105 LM00105
                  SW4=A2+1                                                                        *106 LM00106
                  END OF CONDITIONAL                                                              *107 LM00107
                  WHENEVER I(A2).E.$,$,TRANSFER TO S75                                            *108 LM00108
                  OTHERWISE                                                                       *109 LM00109
                  TRANSFER TO S76                                                                 *110 LM00110
                  END OF CONDITIONAL                                                              *111 LM00111
                  I(A3)=TEMP(1)                                                                   *112 LM00112
                  I(7)=LZR.(TEMP(2))                                                              *113 LM00113
                  WHENEVER SW5.E.2                                                                *114 LM00114
                  I(5)=$2$                                                                        *115 LM00115
                  I(A3)=LZR.(BNBCD.(BCDBN.(TEMP(1))*BCDBN.(TEMP(2))))                             *116 LM00116
                  OTHERWISE                                                                       *117 LM00117
                  I(5)=$3$                                                                        *118 LM00118
                  I(A3)=LZR.(BNBCD.(BCDBN.(TEMP(1))*BCDBN.(TEMP(2))*BCDBN.(TEMP                   *119 LM00119
                1 (3))))                                                                          *119 LM00120
                  I(9)=LZR.(TEMP(3))                                                              *120 LM00121
                  END OF CONDITIONAL                                                              *121 LM00122
                  WHENEVER CT.E.0                                                                 *122 LM00123
                  I(1)=$VECTOR$                                                                   *123 LM00124
                  I(2)=$VALUES$                                                                   *124 LM00125
                  I(4)=$  =$                                                                      *125 LM00126
                  I(6)=$ ,1,$                                                                     *126 LM00127
                  I(8)=$  ,$                                                                      *127 LM00128
                  STNO=$ $                                                                        *128 LM00129
                  WHOLE =1                                                                        *129 LM00130
                  I(3)=STACON.V.BNBCD.(FINDN.($*$))                                               *130 LM00131
                  TEMP=CCT                                                                        *131 LM00132
                  I(A3+1)=$,$                                                                     *132 LM00133
                  I(A3+2)=I(3)                                                                    *133 LM00134
                  SW3=S77                                                                         *134 LM00135
                  CCT=3+2*SW5                                                                     *135 LM00136
                  TRANSFER TO S2                                                                  *136 LM00137
      S77         CCT=TEMP                                                                        *137 LM00138
                  END OF CONDITIONAL                                                              *138 LM00139
                  OUT(A4)=A3                                                                      *139 LM00140
                  OUT(A4+1)=A3+1                                                                  *140 LM00141
                  OUT(A4+2)=A3+2                                                                  *141 LM00142
                  A4=A4+3                                                                         *142 LM00143
                  THROUGH S79,FOR A5=A3+3,1,A5.E.A2                                               *143 LM00144
                  OUT(A4)=-A5                                                                     *144 LM00145
      S79         A4=A4+1                                                                         *145 LM00146
                  TEMP(1)=I(A3)                                                                   *146 LM00147
      S74         DIM=DIM+1                                                                       *147 LM00148
                  WHENEVER DIM.G.1000                                                             *148 LM00149
                  DIM = DIM -1                                                                    *149 LM00150
                  ERRO =1                                                                         *150 LM00151
                  TRANSFER TO S60                                                                 *151 LM00152
                  END OF CONDITIONAL                                                              *152 LM00153
                  SW1=SW1+1                                                                       *153 LM00154
                  DIM(DIM)=COMPZ.(A1-SW2,I(SW2),I)                                                *154 LM00155
                  DIM(DIM+1000)=TEMP(1)                                                           *155 LM00156
                  WHENEVER SUB.NE.$ $                                                             *156 LM00157
                  WHENEVER CT.E.1                                                                 *157 LM00158
                  SW1=SW1-1                                                                       *158 LM00159
                  A4=DCHECK                                                                       *159 LM00160
                  THROUGH S74B, FOR A2=SW2,1,I(A2).E.$)$                                          *160 LM00161
                  OUT(A4)=-A2                                                                     *161 LM00162
      S74B        A4=A4+1                                                                         *162 LM00163
                  OUT(A4)=-A2                                                                     *163 LM00164
                  A4=A4+1                                                                         *164 LM00165
                  WHENEVER A2.NE.CCT                                                              *165 LM00166
                  OUT(A4)=-A2-1                                                                   *166 LM00167
                  A4=A4+1                                                                         *167 LM00168
                  OTHERWISE                                                                       *168 LM00169
                  WHENEVER SW1.G.0                                                                *169 LM00170
      SHARY       THROUGH SHARY,FOR A6942=A4-1,-1,OUT(A6942)                                      *170 LM00171
                1  .E.-SW2                                                                        *170 LM00172
                  THROUGH SHAIRY,FOR A6942=A6942,1,A6942.G.A4-1                                   *171 LM00173
      SHAIRY      OUT(A6942)=OUT(A6942)+1                                                         *172 LM00174
                  OUT(A4)=-A2                                                                     *173 LM00175
                  A4=A4+1                                                                         *174 LM00176
                  END OF CONDITIONAL                                                              *175 LM00177
                  END OF CONDITIONAL                                                              *176 LM00178
                  END OF CONDITIONAL                                                              *177 LM00179
                  EN D OF CONDITIONAL                                                             *178 LM00180
                  WHENEVER A2+1.G.CCT                                                             *179 LM00181
                  WHENEVER SW1.E.0,TRANSFER TO S3                                                 *180 LM00182
                  SW3=S3                                                                          *181 LM00183
                  THROUGH S29B,FOR A3=1,1,A3.G.7                                                  *182 LM00184
      S29B        OUT(A3)=-A3                                                                     *183 LM00185
                  OUT(8)=8                                                                        *184 LM00186
                  OUT(9)=9                                                                        *185 LM00187
                  I(8)=$DIMENS$                                                                   *186 LM00188
                  I(9)=$ION$                                                                      *187 LM00189
                  OUT(A4)=700                                                                     *188 LM00190
                  WHOLE=0                                                                         *189 LM00191
                  TRANSFER TO S2                                                                  *190 LM00192
                  OTHERWISE                                                                       *191 LM00193
                  SW2=A2+2                                                                        *192 LM00194
                  WHENEVER I(A2+1).NE.$,$,TRANSFER TO S76                                         *193 LM00195
                  TRANSFER TO S78                                                                 *194 LM00196
                  END OF CONDITIONAL                                                              *195 LM00197
                                                                                                       LM00198
                   FORMAT                                                                              LM00199
                                                                                                       LM00200
      S(10)       THROUGH S(10),FOR A1=CCT,-1,I(A1).NE.$ $                                        *196 LM00201
                  CCT=A1                                                                          *197 LM00202
                  HSET=0                                                                          *198 LM00203
                  THROUGH S82, FOR A1=8,1,A1.G.CCT                                                *199 LM00204
                  WHENEVER I(A1).E.$=$                                                            *200 LM00205
                  TRANSFER TO S(3)                                                                *201 LM00206
                  OR WHENEVER I(A1).E.$H$                                                         *202 LM00207
                  A3=12                                                                           *203 LM00208
                  THROUGH S82A, FOR A2=A1-1,-1,(I(A2).G.$9$.OR.I(A2).L.$0$).AND                   *204 LM00209
                1 .I(A2).NE.$$.OR.A2.L.HSET                                                       *204 LM00210
                  WHENEVER I(A2).NE.$ $                                                           *205 LM00211
                  OUT(A3)=I(A2)                                                                   *206 LM00212
                  A3=A3-1                                                                         *207 LM00213
                  END OF CONDITIONAL                                                              *208 LM00214
      S82A        CONTINUE                                                                        *209 LM00215
                  WHENEVER A3.E.12                                                                *210 LM00216
                  A2=I(A1+1)                                                                      *211 LM00217
      S82B        THROUGH S82B, FOR A1=A1+2,1,I(A1).E.A2.OR.A1.GE.CCT                             *212 LM00218
                  OTHERWISE                                                                       *213 LM00219
                  A1=A1+BCDBN.(ZCOMPZ.(12-A3,OUT(A3+1),I))                                        *214 LM00220
                  END OF CONDITIONAL                                                              *215 LM00221
                  WHENEVER A1.GE.CCT, ERRP.(24)                                                   *216 LM00222
                  HSET=A1+1                                                                       *217 LM00223
                  END OF CONDITIONAL                                                              *218 LM00224
      S82         CONTINUE                                                                        *219 LM00225
                  I(1)=$VECTOR$                                                                   *220 LM00226
                  A3=8                                                                            *221 LM00227
                  OUT(1)=1                                                                        *222 LM00228
                  OUT(2)=2                                                                        *223 LM00229
                  OUT(3)=3                                                                        *224 LM00230
                  OUT(4)=4                                                                        *225 LM00231
                  OUT(5)=-5                                                                       *226 LM00232
                  OUT(6)=-6                                                                       *227 LM00233
                  OUT(7)=7                                                                        *228 LM00234
                  I(2)=$ VALUE$                                                                   *229 LM00235
                  I(3)=$S     $                                                                   *230 LM00236
                  PSET = 0B                                                                       *231 LM00237
                  WHENEVERI(CCT).NE.$)$                                                           *232 LM00238
                  ERRO=24                                                                         *233 LM00239
                  TRANSFER TO S60                                                                 *234 LM00240
                  END OF CONDITIONAL                                                              *235 LM00241
                  I(4)=STNO                                                                       *236 LM00242
                  I(7)=$00=0R $.V.$  0 20$                                                        *237 LM00243
                  SW2=8                                                                           *238 LM00244
                  HSET=0                                                                          *239 LM00245
                  THROUGH S300, FOR A1=SW2,1,A1.G.CCT                                             *240 LM00246
                  WHENEVER I(A1).E.$=$                                                            *241 LM00247
      S302        ERRO=24                                                                         *242 LM00248
                  TRANSFER TO S60                                                                 *243 LM00249
                  OR WHENEVER I(A1).E.$X$                                                         *244 LM00250
                  THROUGH S302A, FOR A01=A1-1,-1,.NOT. DGT.(I(A01))                               *245 LM00251
                1 .OR.A01.L.HSET                                                                  *245 LM00252
           S302A  I(A01+1)= I(A01)                                                                *246 LM00253
                  I(A01+1)=$S$                                                                    *247 LM00254
      S303A       THROUGH S303A, FOR A5=A1+1,1,I(A5).NE.$$                                        *248 LM00255
                  WHENEVER .NOT.OPCHK.(I(A5)).OR.I(A5).E.$+$.OR.I(A5).E.$-$                       *249 LM00256
                1 .OR.I(A5).E.$($                                                                 *249 LM00257
                  I(A1)=I(A1).V.$0  ,  $                                                          *250 LM00258
                  OUT(A3)=A1                                                                      *251 LM00259
                  A3=A3+1                                                                         *252 LM00260
                  END OF CONDITIONAL                                                              *253 LM00261
                  OR WHENEVER I(A1).E.$A$                                                         *254 LM00262
                  I(A1)=$C$                                                                       *255 LM00263
                  OR WHENEVER I(A1).E.$O$                                                         *256 LM00264
                  I(A1)=$K$                                                                       *257 LM00265
                  OR WHENEVER I(A1).E.$H$                                                         *258 LM00266
                  A5=CCT+5                                                                        *259 LM00267
                  THROUGH S301A, FOR A4=A1-1,-1,.NOT.DGT.(I(A4))                                  *260 LM00268
                1 .AND.I(A4).NE.$$.OR.A4.L.HSET                                                   *260 LM00269
                  WHENEVER I(A4).NE.$ $                                                           *261 LM00270
                  I(A5)=I(A4)                                                                     *262 LM00271
                  A5=A5-1                                                                         *263 LM00272
                  END OF CONDITIONAL                                                              *264 LM00273
      S301A       CONTINUE                                                                        *265 LM00274
                  WHENEVER A5.E.CCT+5                                                             *266 LM00275
                  A4=I(A1+1)                                                                      *267 LM00276
      S303        THROUGH S303, FOR A1=A1+2,1,I(A1).E.A4.OR.A1.GE.CCT                             *268 LM00277
                  OTHERWISE                                                                       *269 LM00278
                  A1=A1+BCDBN.(ZCOMPZ.(CCT+5-A5,I(A5+1),I))                                       *270 LM00279
                  END OF CONDITIONAL                                                              *271 LM00280
                  WHENEVER A1.GE.CCT, ERRP.(24)                                                   *272 LM00281
                  HSET=A1+1                                                                       *273 LM00282
                  OR WHENEVER I(A1).E.$P$                                                         *274 LM00283
                  PSET = 1B                                                                       *275 LM00284
      S304        THROUGH S304,FOR   A4=A1-1,-1,.NOT. DGT.(I(A4))  .AND.                          *276 LM00285
                1 I(A4).NE.$-$.AND.I(A4).NE.$+$.OR.A4.L.HSET                                      *276 LM00286
                  THROUGH S304A, FOR A2=A4+1,1,A2.G.A1                                            *277 LM00287
                  TEMP(A2-A4)=I(A2)                                                               *278 LM00288
                  OUT(A3)=-A2                                                                     *279 LM00289
      S304A       A3=A3+1                                                                         *280 LM00290
                  A6=A1-A4                                                                        *281 LM00291
                  OR WHENEVER (I(A1).E.$E$.OR.I(A1).E.$F$).AND.PSET                               *282 LM00292
      S304B       THROUGH S304B, FOR A4=A1-1,-1,.NOT. DGT.(I(A4))                                 *283 LM00293
                  A2=A6                                                                           *284 LM00294
                  THROUGH S304C, FOR A4=A4+1,1,A4.G.A1                                            *285 LM00295
                  OUT(A3)=-A4                                                                     *286 LM00296
                  A3=A3+1                                                                         *287 LM00297
                  A2=A2+1                                                                         *288 LM00298
      S304C       TEMP(A2)=I(A4)                                                                  *289 LM00299
                  OUT(A3-1)=A1                                                                    *290 LM00300
                  I(A1)=COMPZ.(A2,TEMP(1),I)                                                      *291 LM00301
                  END OF CONDITIONAL                                                              *292 LM00302
            S300  CONTINUE                                                                        *293 LM00303
                  WHENEVER A1.G.CCT.AND.I(CCT ).NE.$)$,TRANSFER TO S302                           *294 LM00304
                  I(CCT)=$*R$.V.$02$                                                              *295 LM00305
                  OUT(A3)=CCT                                                                     *296 LM00306
                  OUT(A3+1)=700                                                                   *297 LM00307
                  STNO =$ $                                                                       *298 LM00308
                  TRANSFER TO S2                                                                  *299 LM00309
                                                                                                       LM00310
                   IF(CHECKING) AND SENSELIGHT                                                         LM00311
                                                                                                       LM00312
      S(17)       I(1) = $EXECUT$                                                                 *300 LM00313
                  I(2)=$E    Q$                                                                   *301 LM00314
                  I(3)=$QSLN.($                                                                   *302 LM00315
                  I(4)=I(CCT)                                                                     *303 LM00316
                  I(5)=$)$                                                                        *304 LM00317
                  WHOLE = 1                                                                       *305 LM00318
                  FNCTFN.($QQSLN$,S602)                                                           *306 LM00319
                  CCT=5                                                                           *307 LM00320
                  TRANSFER TO S2                                                                  *308 LM00321
      S(18)       THROUGH S(18), FOR A1 = CCT,-1,I(A1).G.$9$.OR. I(A1).L.$0$                      *309 LM00322
                  NUMST=STACON.V.BNBCD.(FINDN.(COMPZ.(CCT-A1,I(A1+1))))                           *310 LM00323
                  WHENEVER I(A1).E.$,$                                                            *311 LM00324
                  NUMSU=NUMST                                                                     *312 LM00325
                  CCT=A1-1                                                                        *313 LM00326
                  TRANSFER TO S(18)                                                               *314 LM00327
                  OR WHENEVER I(A1).E.$)$                                                         *315 LM00328
                  NUMSV=I(A1-1)                                                                   *316 LM00329
                  OR WHENEVER OPCHK. (I(A1))                                                      *317 LM00330
                  TRANSFER TO S30                                                                 *318 LM00331
                  OTHERWISE                                                                       *319 LM00332
                  NUMSV=$ $                                                                       *320 LM00333
                  END OF CONDITIONAL                                                              *321 LM00334
                  WHENEVER I(6).E.$U$                                                             *322 LM00335
                  I(3)=$QACO.($                                                                   *323 LM00336
                  OR WHENEVER I(6).E.$I$                                                          *324 LM00337
                  I(3)=$QDCT.($                                                                   *325 LM00338
                  OR WHENEVER I(6).E.$T$                                                          *326 LM00339
                  I(3)=$QMQO.($                                                                   *327 LM00340
                  OR WHENEVER I(9).E.$L$                                                          *328 LM00341
                  I(3)=$QSLT.($                                                                   *329 LM00342
                  OR WHENEVER I(9).E.$S$                                                          *330 LM00343
                  I(3)=$QSWT.($                                                                   *331 LM00344
                  OTHERWISE                                                                       *332 LM00345
                  ERRO =7                                                                         *333 LM00346
                  TRANSFER TO S60                                                                 *334 LM00347
                  END OF CONDITIONAL                                                              *335 LM00348
                  I(1)=$EXECUT$                                                                   *336 LM00349
                  I(2)=$E    Q$                                                                   *337 LM00350
                  I(4)=NUMST                                                                      *338 LM00351
                  I(5)=$  ,$                                                                      *339 LM00352
                  FNCTFN.((I(3).RS.6).EV.500000000053K,S602)                                      *340 LM00353
                  WHENEVER I(6).E.$N$                                                             *341 LM00354
                  I(7)=$  ,$                                                                      *342 LM00355
                  I(8)=NUMSV                                                                      *343 LM00356
                  CCT=9                                                                           *344 LM00357
                  OTHERWISE                                                                       *345 LM00358
                  CCT=7                                                                           *346 LM00359
                  END OF CONDITIONAL                                                              *347 LM00360
                  I(CCT)=$)$                                                                      *348 LM00361
                  WHOLE =1                                                                        *349 LM00362
                  I(6)=NUMSU                                                                      *350 LM00363
                  TRANSFER TO S2                                                                  *351 LM00364
                                                                                                       LM00365
                   IF                                                                                  LM00366
                                                                                                       LM00367
      S(5)        SW2=4                                                                           *352 LM00368
                  A2=1                                                                            *353 LM00369
      S21A        THROUGH S21A,FOR A3=CCT,-1,OPCHK.(I(A3))                                        *354 LM00370
                  WHENEVER I(A3).NE.$,$,TRANSFER TO S30                                           *355 LM00371
      S21B        THROUGH S21B,FOR A1=A3,-1,I(A1).E.$)$.OR.A1.E.0                                 *356 LM00372
                  WHENEVER A1.E.0                                                                 *357 LM00373
                  ERRO =15                                                                        *358 LM00374
                  TRANSFER TO S60                                                                 *359 LM00375
                  END OF CONDITIONAL                                                              *360 LM00376
                  EXTT=A1-1                                                                       *361 LM00377
                  SW2=CCT                                                                         *362 LM00378
                  THROUGH S49,FOR A1=1,1,A1.G.3                                                   *363 LM00379
      S50         THROUGH S50, FOR A2=SW2,-1,I(A2).E.$,$.OR.I(A2).E.$)$                           *364 LM00380
                  TEMP(A1)=STACON.V.BNBCD.(FINDN.(COMPZ.(SW2-A2,I(A2+1))))                        *365 LM00381
             S49  SW2=A2-1                                                                        *366 LM00382
                  I(1)=$WHENEV$                                                                   *367 LM00383
                  I(2)=$ER$                                                                       *368 LM00384
                  OUT(1)=1                                                                        *369 LM00385
                  OUT(2)=2                                                                        *370 LM00386
                  ENTER=4                                                                         *371 LM00387
                  OUT=3                                                                           *372 LM00388
                  STOUT=S49A                                                                      *373 LM00389
                  EXECUTE LEVIN.                                                                  *374 LM00390
                  TRANSFER TO S30A                                                                *375 LM00391
      S49A        WHENEVER TEMP(1).E.TEMP(2)                                                      *376 LM00392
                  TEMP=1                                                                          *377 LM00393
                  WHENEVER TEMP(1).E.TEMP(3), TRANSFER TO S56                                     *378 LM00394
                  I(A2+1)=$.L.0,$                                                                 *379 LM00395
                  I(A2+4)=TEMP(3)                                                                 *380 LM00396
                  OR WHENEVER TEMP(2).E.TEMP(3)                                                   *381 LM00397
                  TEMP=2                                                                          *382 LM00398
                  I(A2+1)=$.G.0,$                                                                 *383 LM00399
                  I(A2+4)=TEMP(1)                                                                 *384 LM00400
                  OR WHENEVER TEMP(1).E.TEMP(3)                                                   *385 LM00401
                  TEMP=3                                                                          *386 LM00402
                  I(A2+1)=$.E.0,$                                                                 *387 LM00403
                  I(A2+4)=TEMP(2)                                                                 *388 LM00404
                  OTHERWISE                                                                       *389 LM00405
                  I(A2+1)=$.L.0,$                                                                 *390 LM00406
                  I(A2+4)=TEMP(3)                                                                 *391 LM00407
                  SW3=S54                                                                         *392 LM00408
                  TRANSFER TO S55                                                                 *393 LM00409
                  END OF CONDITIONAL                                                              *394 LM00410
                  SW3=S56                                                                         *395 LM00411
      S55         OUT(OUT+1)=A2+1                                                                 *396 LM00412
                  OUT(OUT+2)=A2+2                                                                 *397 LM00413
                  OUT(OUT+3)=A2+3                                                                 *398 LM00414
                  OUT(OUT+4)=A2+4                                                                 *399 LM00415
                  OUT(OUT+5)=700                                                                  *400 LM00416
                  I(A2+2)=$TRANSF$                                                                *401 LM00417
                  I(A2+3)=$ER TO $                                                                *402 LM00418
                  CCT=A2+4                                                                        *403 LM00419
                  TRANSFER TO S2                                                                  *404 LM00420
      S56         WHENEVER TEMP(TEMP).E.NSNO, TRANSFER TO S3                                      *405 LM00421
                  I(1)=$TRANSF$                                                                   *406 LM00422
                  I(2) = $ER TO $                                                                 *407 LM00423
                  I(3)=TEMP(TEMP)                                                                 *408 LM00424
                  WHOLE =1                                                                        *409 LM00425
                  SW3=S3                                                                          *410 LM00426
                  CCT=3                                                                           *411 LM00427
      S55B        STNO=$ $                                                                        *412 LM00428
                  TRANSFER TO S45                                                                 *413 LM00429
      S54         I(A2+1)=$.G.0,$                                                                 *414 LM00430
                  I(A2+4)=TEMP(1)                                                                 *415 LM00431
                  TEMP=2                                                                          *416 LM00432
                  WHOLE=0                                                                         *417 LM00433
                  SW3=S56                                                                         *418 LM00434
                  TRANSFER TO S55B                                                                *419 LM00435
                                                                                                       LM00436
                   DO                                                                                  LM00437
                                                                                                       LM00438
      S(19)       WHENEVER I(3).G.$9$.OR.I(3).L.$0$,TRANSFER TO S30                               *420 LM00439
      S601        THROUGH S601, FOR A1=3,1,A1.G.CCT.OR.I(A1).L.$0$.OR.I(A1).G.                    *421 LM00440
                1 $9$                                                                             *421 LM00441
                  WHENEVER A1.G.CCT                                                               *422 LM00442
      S603        ERRO =3                                                                         *423 LM00443
                  TRANSFER TO S60                                                                 *424 LM00444
                  OR WHENEVER OPCHK.(I(A1))                                                       *425 LM00445
                  TRANSFER TO S30                                                                 *426 LM00446
                  END OF CONDITIONAL                                                              *427 LM00447
                  NUMST=STACON.V.BNBCD.(FINDN.(COMPZ.(A1-3,I(3))))                                *428 LM00448
      S602        THROUGH S602 , FOR A2=A1+1,1,OPCHK.(I(A2)).OR.A2.G.CCT                          *429 LM00449
                  WHENEVER A2.G.CCT.OR.I(A2).NE.$=$,TRANSFER TO S603                              *430 LM00450
      S604        THROUGH S604, FOR A3=A2+1,1,A3.G.CCT.OR.OPCHK.(I(A3))                           *431 LM00451
                  WHENEVER I(A3).NE.$,$, TRANSFER TO S30                                          *432 LM00452
                  EXECUTE COMPZ.(A2-A1,I(A1),NUMSU)                                               *433 LM00453
                  WHENEVER I(A1).E.$I$.OR.I(A1).LE.$J$.AND.I(A1).GE.$N$,EXECUTE                   *434 LM00454
                1 FINDIN.(NUMSU)                                                                  *434 LM00455
                  EXECUTE COMPZ.(A3-A2-1,I(A2+1),NUMSV)                                           *435 LM00456
                  WHENEVER I(A2+1).E.$I$.OR.I(A2+1).LE.$J$.AND.I(A2+1).GE.$N$,                    *436 LM00457
                1   EXECUTE FINDIN.(NUMSV)                                                        *436 LM00458
      S605        THROUGH S605, FOR A1=A3+1,1,A1.G.CCT.OR.I(A1).E.$,$                             *437 LM00459
                  EXECUTE COMPZ.(A1-A3-1,I(A3+1),TEMP)                                            *438 LM00460
                  WHENEVER I(A3+1).E.$I$.OR.I(A3+1).LE.$J$.AND.I(A3+1).GE.$N$,                    *439 LM00461
                1   EXECUTE FINDIN.(TEMP)                                                         *439 LM00462
                  WHENEVER TEMP.E.RET,TEMP=RETN                                                   *440 LM00463
                  WHENEVER NUMSU.E.RET,NUMSU=RETN                                                 *441 LM00464
                  WHENEVER NUMSV.E.RET,NUMSV=RETN                                                 *442 LM00465
                  WHENEVER NUMST.E.RET,NUMST=RETN                                                 *443 LM00466
                  WHENEVER NUMSU.E.NUMSV                                                          *444 LM00467
                  FLUBB=SW3                                                                       *445 LM00468
                  STATEMENT LABEL FLUBB                                                           *446 LM00469
                  SW3=XPYMZZ                                                                      *447 LM00470
                  GLAG=CCT                                                                        *448 LM00471
                  GLAGG=STACON.V.BNBCD.(FINDN.($*$))                                              *449 LM00472
                  I(1)=GLAGG                                                                      *450 LM00473
                  I(2)=$=$                                                                        *451 LM00474
                  I(3)=NUMSV                                                                      *452 LM00475
                  CCT=3                                                                           *453 LM00476
                  WHOLE=1                                                                         *454 LM00477
                  TRANSFER TO S2                                                                  *455 LM00478
      XPYMZZ      NUMSV=GLAGG                                                                     *456 LM00479
                  WHENEVER I(A2+1).E.$I$.OR.I(A2+1).LE.$J$.AND.I(A2+1).GE.$N$,                    *457 LM00480
                1   EXECUTE FINDIN.(GLAGG)                                                        *457 LM00481
                  SW3=FLUBB                                                                       *458 LM00482
                  STNO=$ $                                                                        *459 LM00483
                  CCT=GLAG                                                                        *460 LM00484
                  END OF CONDITIONAL                                                              *461 LM00485
                  WHENEVER A1.G.CCT                                                               *462 LM00486
                  I(8)=$ ,1,$                                                                     *463 LM00487
                  I(9)=NUMSU                                                                      *464 LM00488
                  I(10)=$ .G.$                                                                    *465 LM00489
                  I(11)=TEMP                                                                      *466 LM00490
                  CCT=11                                                                          *467 LM00491
                  OTHERWISE                                                                       *468 LM00492
                  EXECUTE COMPZ.(CCT-A1  ,I(A1+1),I(9))                                           *469 LM00493
                  WHENEVER I(9) .E.RET, I(9)=RETN                                                 *470 LM00494
                  WHENEVER I(A1+1).E.$I$.OR.I(A1+1).LE.$J$.AND.I(A1+1).GE.$N$,                    *471 LM00495
                1  EXECUTE FINDIN.(I(9))                                                          *471 LM00496
                  I(8)=$,$                                                                        *472 LM00497
                  I(10)=$,$                                                                       *473 LM00498
                  I(11)=NUMSU                                                                     *474 LM00499
                  I(12)=$ .G.$                                                                    *475 LM00500
                  I(13)=TEMP                                                                      *476 LM00501
                  CCT=13                                                                          *477 LM00502
                  END OF CONDITIONAL                                                              *478 LM00503
                  I(1)=$THROUG$                                                                   *479 LM00504
                  I(2)=$H$                                                                        *480 LM00505
                  I(3)=NUMST                                                                      *481 LM00506
                  I(4)=$ ,FOR$                                                                    *482 LM00507
                  I(5)=NUMSU                                                                      *483 LM00508
                  I(6)=$  =$                                                                      *484 LM00509
                  I(7)=NUMSV                                                                      *485 LM00510
                  CCT=CCT+1                                                                       *486 LM00511
                  I(CCT)=$.AND.$                                                                  *487 LM00512
                  I(CCT+1)=NUMSU                                                                  *488 LM00513
                  I(CCT+2)=$.NE.$                                                                 *489 LM00514
                  I(CCT+3)=NUMSV                                                                  *490 LM00515
                  CCT=CCT+3                                                                       *491 LM00516
                  WHOLE = 1                                                                       *492 LM00517
                  TRANSFER TO S2                                                                  *493 LM00518
                                                                                                       LM00519
                   ASSIGN                                                                              LM00520
                                                                                                       LM00521
      S(2)        WHENEVER I(7).E.$($.OR.I(7).E.$=$, TRANSFER TO S(3)                             *494 LM00522
      S57         THROUGH S57,FOR A1=7,1,I(A1).G.$9$.OR.I(A1).L.$0$.OR.A1.G.CCT                   *495 LM00523
                  WHENEVER A1.G.CCT                                                               *496 LM00524
                  ERRO =10                                                                        *497 LM00525
                  TRANSFER TO S60                                                                 *498 LM00526
                  END OF CONDITIONAL                                                              *499 LM00527
                  SW2=COMPZ.(CCT-A1-1,I(A1+2),I(1))                                               *500 LM00528
                  I(3)=STACON.V.BNBCD.(FINDN.(COMPZ.(A1-7,I(7))))                                 *501 LM00529
                  I(2)=$=$                                                                        *502 LM00530
                  WHOLE=1                                                                         *503 LM00531
                  CCT=3                                                                           *504 LM00532
                  SW3=S57A                                                                        *505 LM00533
                  TRANSFER TO S2                                                                  *506 LM00534
      S57A        I(4)=SW2                                                                        *507 LM00535
                  I(1)=$STATEM$                                                                   *508 LM00536
                  SW2=0                                                                           *509 LM00537
                  WHENEVER I(A1).E.$I$.OR.I(A1).GE.$N$.AND.I(A1).LE.$K$,SW2=1                     *510 LM00538
                  I(2)=$ENT LA$                                                                   *511 LM00539
                  I(3)=$BEL$                                                                      *512 LM00540
                  SW3=S3                                                                          *513 LM00541
                  STNO=$ $                                                                        *514 LM00542
                  CCT=4                                                                           *515 LM00543
                  TRANSFER TO S45                                                                 *516 LM00544
                                                                                                       LM00545
                   CALL                                                                                LM00546
                                                                                                       LM00547
      S(16)       THROUGH S(16), FOR A1=5,1,OPCHK.(I(A1)).OR.A1.G.CCT                             *517 LM00548
                  I(CCT+1)=0                                                                      *518 LM00549
                  WHENEVER OPCHK.(I(A1)).AND.I(A1).NE.$($,TRANSFER TO S30                         *519 LM00550
                  A3=A1                                                                           *520 LM00551
      S23B        THROUGH S23B, FOR A2=A1,1,OPCHK.(I(A2)).OR.A2.G.CCT                             *521 LM00552
                1  .OR.I(A2).E.$H$                                                                *521 LM00553
                  WHENEVER A2.G.CCT,TRANSFER TO S23C                                              *522 LM00554
                  WHENEVER I(A2).E.$H$                                                            *523 LM00555
      SSSAA       THROUGH SSSAA,FOR A6942=A2-1,-1,I(A6942).L.$0$.OR.                              *524 LM00556
                1   I(A6942).G.$9$.OR.A6942.LE.A1                                                 *524 LM00557
                  WHENEVER .NOT.A6942.LE.A1.AND..NOT.OPCHK.(I(A6942))                             *525 LM00558
                1   .OR.A6942.E.A2-1,TRANSFER TO SSSAAA                                           *525 LM00559
                  SKORK=BCDBN.(ZCOMPZ.(A2-A6942,I(A6942),SKORK))                                  *526 LM00560
                  A1=A2+SKORK+1                                                                   *527 LM00561
                  TRANSFER TO S23B                                                                *528 LM00562
                  END OF CONDITIONAL                                                              *529 LM00563
                  WHENEVER I(A2).E.$=$,TRANSFER TO S30                                            *530 LM00564
      SSSAAA      A1=A2+1                                                                         *531 LM00565
                  TRANSFER TO S23B                                                                *532 LM00566
      S23C        I(1)=$EXECUT$                                                                   *533 LM00567
                  I(2)=$E$                                                                        *534 LM00568
                  I(A3)=$ .($                                                                     *535 LM00569
                  OUT(5)=A3                                                                       *536 LM00570
                  EXECUTE FNCTFN.(COMPZ.(A3-5,I(5),I),S602)                                       *537 LM00571
                  WHENEVER I(5).E.$I$.OR.I(5).GE.$N$.AND.I(5).LE.$J$                              *538 LM00572
                1 ,EXECUTE FINDIN.(I,S603)                                                        *538 LM00573
                  WHENEVER A3.G.CCT                                                               *539 LM00574
                  OUT=5                                                                           *540 LM00575
                  I(A1+1)=$0$                                                                     *541 LM00576
                  I(A1+2)=$)$                                                                     *542 LM00577
                  CCT=A1+2                                                                        *543 LM00578
                  OTHERWISE                                                                       *544 LM00579
                  OUT=6                                                                           *545 LM00580
                  ENTER =A3+1                                                                     *546 LM00581
                  EXTT=CCT-1                                                                      *547 LM00582
                  STOUT=S23D                                                                      *548 LM00583
                  EXECUTE LEVIN.                                                                  *549 LM00584
                  EXECUTE LUP.                                                                    *550 LM00585
                  EXECUTE SETL.                                                                   *551 LM00586
                  TRANSFER TO S30A                                                                *552 LM00587
                  END OF CONDITIONAL                                                              *553 LM00588
      S23D        OUT(1)=1                                                                        *554 LM00589
                  OUT(2)=2                                                                        *555 LM00590
                  OUT(3)=-3                                                                       *556 LM00591
                  OUT(4)=-4                                                                       *557 LM00592
                  OUT(OUT+1)=700                                                                  *558 LM00593
                  TRANSFER TO S2                                                                  *559 LM00594
                                                                                                       LM00595
                   FUNCTION AND SUBROUTINE                                                             LM00596
                                                                                                       LM00597
      S(4)        WHENEVER I(1).E.$S$                                                             *560 LM00598
                  SW1=11                                                                          *561 LM00599
                  OTHERWISE                                                                       *562 LM00600
                  SW1=9                                                                           *563 LM00601
                  END OF CONDITIONAL                                                              *564 LM00602
      S58         THROUGH S58,FOR A1=SW1,1,I(A1).E.$($.OR.A1.G.CCT                                *565 LM00603
                  WHENEVER A1.G.CCT                                                               *566 LM00604
                  TRANSFER  TO S582                                                               *567 LM00605
      S581        ERRO=4                                                                          *568 LM00606
                  TRANSFER TO S60                                                                 *569 LM00607
                  END OF CONDITIONAL                                                              *570 LM00608
                  A3=A1+1                                                                         *571 LM00609
      S580        THROUGH S580, FOR A2=A3,1,I(A2).E.$,$.OR.I(A2).E.$)$.OR.A2.G.                   *572 LM00610
                1   CCT                                                                           *572 LM00611
                  WHENEVER A2.G.CCT,TRANSFER TO S581                                              *573 LM00612
                  ARRG=ARRG+1                                                                     *574 LM00613
                  WHENEVER ARRG.G.50,TRANSFER TO S581                                             *575 LM00614
                  EXECUTE COMPZ.(A2-A3,I(A3),ARRG(ARRG))                                          *576 LM00615
                  A3=A2+1                                                                         *577 LM00616
                  WHENEVER I(A2).NE.$)$,TRANSFER TO S580                                          *578 LM00617
      S582        EXECUTE COMPZ.(A1-SW1,I(SW1),RET)                                               *579 LM00618
                  SUB=I(1)                                                                        *580 LM00619
                  I(1)=$EXTERN$                                                                   *581 LM00620
                  I(2)=$AL FUN$                                                                   *582 LM00621
                  I(3)=$CTION$                                                                    *583 LM00622
                  OUT(1)=1                                                                        *584 LM00623
                  OUT(2)=2                                                                        *585 LM00624
                  OUT(3)=3                                                                        *586 LM00625
                  THROUGH S59,FOR A2=4,1,A2.E.A1                                                  *587 LM00626
      S59         OUT(A2)=-A2                                                                     *588 LM00627
                  OUT(A2)=700                                                                     *589 LM00628
                  SW3=S61                                                                         *590 LM00629
                  TRANSFER TO S2                                                                  *591 LM00630
      S61         I(1)=$ENTRY $                                                                   *592 LM00631
                  I(2)=$TO$                                                                       *593 LM00632
                   I(3)=RET                                                                       *594 LM00633
                  I(4)=$.$                                                                        *595 LM00634
                  RETN=STACON.V.FINDN.(RET)                                                       *596 LM00635
                  WHENEVER I(SW1).E.$I$.OR.I(SW1).GE.$N$.AND.I(SW1).LE.                           *597 LM00636
                1 $J$.OR.I(SW1).E.$X$,EXECUTE FINDIN.(RETN)                                       *597 LM00637
                  CCT=4                                                                           *598 LM00638
                  WHOLE=1                                                                         *599 LM00639
                  OUT=(700)                                                                       *600 LM00640
                  SW3=S3                                                                          *601 LM00641
                  STNO=$ $                                                                        *602 LM00642
                  TRANSFER TO S45                                                                 *603 LM00643
                                                                                                       LM00644
                   RETURN                                                                              LM00645
                                                                                                       LM00646
      S(7)        WHENEVER CCT.G.6,TRANSFER TO S30                                                *604 LM00647
                  I(1)=$FUNCTI$                                                                   *605 LM00648
                  I(2)=$ON RET$                                                                   *606 LM00649
                  I(3)=$URN$                                                                      *607 LM00650
                  OUT(1)=1                                                                        *608 LM00651
                  OUT(2)=2                                                                        *609 LM00652
                  OUT(3)=3                                                                        *610 LM00653
                  WHENEVER SUB .E. $S$                                                            *611 LM00654
                  OUT(4)=700                                                                      *612 LM00655
                  CCT=3                                                                           *613 LM00656
                  OTHERWISE                                                                       *614 LM00657
                  CCT=4                                                                           *615 LM00658
                  OUT(4)=4                                                                        *616 LM00659
                  OUT(5)=700                                                                      *617 LM00660
                  I(4)=RETN                                                                       *618 LM00661
                  END OF CONDITIONAL                                                              *619 LM00662
                  RET=$0$                                                                         *620 LM00663
                  TRANSFER TO S2                                                                  *621 LM00664
                                                                                                       LM00665
                   SUBST.                                                                              LM00666
                                                                                                       LM00667
                  ENTRY TO SUBST.                                                                 *622 LM00668
      S(3)        STOUT =S2                                                                       *623 LM00669
                  ENTER =1                                                                        *624 LM00670
                  EXTT =CCT                                                                       *625 LM00671
                  EXECUTE LEVIN.                                                                  *626 LM00672
                  OUT=1                                                                           *627 LM00673
      S30A        A4=ENTER                                                                        *628 LM00674
                  FUN=0                                                                           *629 LM00675
                  ARG=0                                                                           *630 LM00676
                  XFN=0                                                                           *631 LM00677
                  FFZAG=0B                                                                        *632 LM00678
                  THRZAG=0B                                                                       *633 LM00679
                  BOOLEAN FFZAG,THRZAG                                                            *634 LM00680
                  THROUGH S92, FOR A3=ENTER,1,A3.G.EXTT                                           *635 LM00681
                  FFZAG=0B                                                                        *636 LM00682
                  THRZAG=0B                                                                       *637 LM00683
                  WHENEVER I(A3).GE.$0$.AND.I(A3).LE.$9$ .OR.OPCHK.(I(A3))                        *638 LM00684
                1 .OR.(I(A3).E.$E$.OR.I(A3).E.$H$).AND.(I(A4-1).E.$.$.OR.I(A4-1                   *638 LM00685
                2 ).GE.$0$.AND.I(A4-1).LE.$9$).AND.A4.NE.ENTER                                    *638 LM00686
                  I(A4)=I(A3)                                                                     *639 LM00687
                  WHENEVER I(A4).E.$)$,EXECUTE LDN.                                               *640 LM00688
                  WHENEVER I(A4).E.$($,EXECUTE LUP.                                               *641 LM00689
                  A4=A4+1                                                                         *642 LM00690
                  WHENEVER I(A3).E.$=$.AND.FUN.E.1                                                *643 LM00691
                  FUN=2                                                                           *644 LM00692
                  OR WHENEVER I(A3).E.$H$                                                         *645 LM00693
      S30D        THROUGH S30D, FOR CT=A4-2,-1,I(CT).L.$0$.OR.I(CT).G.$9$.OR.CT                   *646 LM00694
                1 .L.ENTER                                                                        *646 LM00695
                  TEST=BCDBN.(ZCOMPZ.(A4-CT-2,I(CT+1),TEST))                                      *647 LM00696
                  EXECUTE FINDN.($*$)                                                             *648 LM00697
                  HOL(HOL+1)=FINDN.($*$)                                                          *649 LM00698
                  A4=(TEST-1)/6+1                                                                 *650 LM00699
                  HOL(HOL)=A4                                                                     *651 LM00700
                  I(CT+1)=STACON.V.BNBCD.(N)                                                      *652 LM00701
                  I(CT+2)=$(0000*$.EV.LZR.(BNBCD.(A4)).RS.6                                       *653 LM00702
                  OUT(OUT)=CT+1                                                                   *654 LM00703
                  OUT(OUT+1)=CT+2                                                                 *655 LM00704
                  OUT=OUT+2                                                                       *656 LM00705
                  A8=HOL+2                                                                        *657 LM00706
                  HOL=A8+HOL(HOL)                                                                 *658 LM00707
                  HOL(HOL)=900                                                                    *659 LM00708
                  A4=6                                                                            *660 LM00709
                  THROUGH S94, FOR A9=HOL-1,-1,A9.L.A8                                            *661 LM00710
                  WHENEVER A9.E.A8, A4=TEST-(TEST/6)*6                                            *662 LM00711
                  WHENEVER A4.E.0.AND.TEST.E.(TEST/6)*6,A4=6                                      *663 LM00712
      S94         COMPZ.(A4,I(A3-5+6*(HOL-A9)),HOL(A9))                                           *664 LM00713
                  A4=CT+3                                                                         *665 LM00714
                  A3=A3+TEST                                                                      *666 LM00715
                  OR WHENEVER I(A3).E.$*$.AND.I(A4-2).E.$*$                                       *667 LM00716
                  I(A4-2)=$ .P.$                                                                  *668 LM00717
                  OUT(OUT)=A4-2                                                                   *669 LM00718
                  OUT=OUT+1                                                                       *670 LM00719
                  A4=A4-1                                                                         *671 LM00720
                  END OF CONDITIONAL                                                              *672 LM00721
                  OR WHENEVER I(A3).NE.$ $                                                        *673 LM00722
                  I(A4)=I(A3)                                                                     *674 LM00723
                  A6=A4+1                                                                         *675 LM00724
                  SW1=A3+1                                                                        *676 LM00725
                  CHECK =1                                                                        *677 LM00726
      S93         THROUGH S93, FOR A5=SW1,1,I(A5).NE.$ $.OR.A5.G.EXTT                             *678 LM00727
                  I(A6)=I(A5)                                                                     *679 LM00728
                  WHENEVER OPCHK.(I(A5)).OR.A5.G.EXTT,TRANSFER TO     S93A                        *680 LM00729
                  A6=A6+1                                                                         *681 LM00730
                  CHECK =0                                                                        *682 LM00731
                  SW1=A5+1                                                                        *683 LM00732
                  TRANSFER TO S93                                                                 *684 LM00733
      S93A        EXECUTE COMPZ.(A6-A4,I(A4),I)                                                   *685 LM00734
                  WHENEVER I(A6).E.$($                                                            *686 LM00735
                  EXECUTE LUP.                                                                    *687 LM00736
                  ZZXQ1=S93AA                                                                     *688 LM00737
                  EXECUTE DIMFN.(I,ZZXQ1)                                                         *689 LM00738
                  TRANSFER TO S93C                                                                *690 LM00739
      S93AA       WHENEVER I(A6-1).NE.$F$                                                         *691 LM00740
                  FFZAG=0B                                                                        *692 LM00741
                  TRANSFER TO S93B                                                                *693 LM00742
                  END OF CONDITIONAL                                                              *694 LM00743
                  WHENEVER A6-A4-1 .G. 6                                                          *695 LM00744
      S600        ERRO = 8                                                                        *696 LM00745
                  TRANSFER TO S60                                                                 *697 LM00746
                  END OF CONDITIONAL                                                              *698 LM00747
                  FFZAG=1B                                                                        *699 LM00748
                  WHENEVER A6-A4-1.L.3                                                            *700 LM00749
                  THRZAG=1B                                                                       *701 LM00750
                  TRANSFER TO S93B                                                                *702 LM00751
                  END OF CONDITIONAL                                                              *703 LM00752
                  THRZAG=0B                                                                       *704 LM00753
                  EXECUTE COMPZ.(A6-A4-1,I(A4),I)                                                 *705 LM00754
                  WHENEVER I(A4).E.$X$, XFN=1                                                     *706 LM00755
                  WHENEVER A4.NE.1                                                                *707 LM00756
                  A6=A6-1                                                                         *708 LM00757
                  I(A6)=I(A6+1)                                                                   *709 LM00758
                  END OF CONDITIONAL                                                              *710 LM00759
                  WHENEVER I.E.$ABS$.OR.I.E.$FLOAT$.OR.I.E.$XABS$                                 *711 LM00760
                  LEVT=0B                                                                         *712 LM00761
                  LEV=LEV-1                                                                       *713 LM00762
                  WHENEVER I(A4).E.$A$                                                            *714 LM00763
                  I(A4)=$    .A$                                                                  *715 LM00764
                  OUT(OUT)=A4                                                                     *716 LM00765
                  OUT=OUT+1                                                                       *717 LM00766
                  A4=A4+1                                                                         *718 LM00767
                  OR WHENEVER I(A4).E.$X$                                                         *719 LM00768
                  I(A4)=$.$                                                                       *720 LM00769
                  OTHERWISE                                                                       *721 LM00770
                  I(A4)=$($                                                                       *722 LM00771
                  I(A4+1)=$0$                                                                     *723 LM00772
                  I(A4+2)=$.$                                                                     *724 LM00773
                  I(A4+3)=$0$                                                                     *725 LM00774
                  I(A4+4)=$+$                                                                     *726 LM00775
                  FL=1                                                                            *727 LM00776
                  END OF CONDITIONAL                                                              *728 LM00777
                  TRANSFER TO S93F                                                                *729 LM00778
                  ORWHENEVER A4.E.1                                                               *730 LM00779
                  WHENEVER A6.L.5,TRANSFER TO S93C                                                *731 LM00780
                  FUN=1                                                                           *732 LM00781
                  I(1)=$INTERN$                                                                   *733 LM00782
                  I(2)=$AL FUN$                                                                   *734 LM00783
                  I(3)=$CTION$                                                                    *735 LM00784
                  I(4)=I                                                                          *736 LM00785
                  OUT(OUT)=1                                                                      *737 LM00786
                  OUT(OUT+1)=2                                                                    *738 LM00787
                  OUT(OUT+2)=3                                                                    *739 LM00788
                  OUT(OUT+  3)=4                                                                  *740 LM00789
                  OUT=OUT+4                                                                       *741 LM00790
                  A6=5                                                                            *742 LM00791
                  END OF CONDITIONAL                                                              *743 LM00792
      S93B        WHENEVER I.NE.$ABS$.AND.I.NE.$FLOAT$, EXECUTE FNCTFN.(I)                        *744 LM00793
                  WHENEVER XFN.E.1.OR.FFZAG.AND..NOT.THRZAG.AND.I(A4).E.$X$                       *745 LM00794
                1 .OR..NOT.FFZAG.AND.(I(A4).E.$I$.OR.I(A4).GE.$N$.AND.                            *745 LM00795
                2 I(A4).LE.$J$).OR.FFZAG.AND.THRZAG.AND.(I(A4).E.$I$.OR.                          *745 LM00796
                3 I(A4).GE.$N$.AND.I(A4).LE.$J$)                                                  *745 LM00797
                  EXECUTE FINDIN.(I,S603)                                                         *746 LM00798
                  XFN=0                                                                           *747 LM00799
                  END OF CONDITIONAL                                                              *748 LM00800
                  FFZAG=0B                                                                        *749 LM00801
                  THRZAG=0B                                                                       *750 LM00802
      S93F        EXECUTE SETL.                                                                   *751 LM00803
                  WHENEVER I(A5).NE.$($.AND.A4.NE.1                                               *752 LM00804
                  ERRO  =18                                                                       *753 LM00805
                  TRANSFER TO S60                                                                 *754 LM00806
                  END OF CONDITIONAL                                                              *755 LM00807
                  I(A6)=$ .($                                                                     *756 LM00808
                  OUT(OUT)=A6                                                                     *757 LM00809
                  WHENEVER FL.E.1                                                                 *758 LM00810
                  I(A6)=$ $                                                                       *759 LM00811
                  FL=0                                                                            *760 LM00812
                  OUT=OUT-1                                                                       *761 LM00813
                  END OF CONDITIONAL                                                              *762 LM00814
                  OUT=OUT+1                                                                       *763 LM00815
                  A4=A6+1                                                                         *764 LM00816
      S93C        OTHERWISE                                                                       *765 LM00817
                  WHENEVER I.E.RET                                                                *766 LM00818
                  I(A4)=RETN                                                                      *767 LM00819
                  OUT(OUT)=A4                                                                     *768 LM00820
                  OUT=OUT+1                                                                       *769 LM00821
                  THROUGH S93D, FOR A7=A4+1,1,A7.E.A6                                             *770 LM00822
                  OUT(OUT)=-A7                                                                    *771 LM00823
      S93D        OUT=OUT+1                                                                       *772 LM00824
                  END OF CONDITIONAL                                                              *773 LM00825
                  WHENEVER A6-A4.G.6, TRANSFER TO S600                                            *774 LM00826
                  WHENEVER FUN.E.1                                                                *775 LM00827
                  ARG(ARG+1)=STACON.V.BNBCD.(FINDN.($*$))                                         *776 LM00828
                  ARG(ARG+2)=I                                                                    *777 LM00829
                  WHENEVER I(A4).E.$I$.OR.I(A4).GE.$N$.AND.I(A4).LE.$J$                           *778 LM00830
                  EXECUTE FINDIN.(ARG(ARG+1),S603)                                                *779 LM00831
                  END OF CONDITIONAL                                                              *780 LM00832
                  I(A4)=ARG(ARG+1)                                                                *781 LM00833
                  OUT(OUT)=A4                                                                     *782 LM00834
                  OUT=OUT+1                                                                       *783 LM00835
                  ARG=ARG+2                                                                       *784 LM00836
                  WHENEVER ARG.G.100                                                              *785 LM00837
                  ERRO  =19                                                                       *786 LM00838
                  TRANSFER TO S60                                                                 *787 LM00839
                  END OF CONDITIONAL                                                              *788 LM00840
                  I(A4+1)=I(A6)                                                                   *789 LM00841
                  A4=A4+2                                                                         *790 LM00842
                  OR WHENEVER FUN.E.2                                                             *791 LM00843
                  THROUGH S95, FOR A7=2,2,A7.G.ARG                                                *792 LM00844
                  WHENEVERARG(A7).E.I                                                             *793 LM00845
                  I(A4)=ARG(A7-1)                                                                 *794 LM00846
                  OUT(OUT)=A4                                                                     *795 LM00847
                  OUT=OUT+1                                                                       *796 LM00848
                  I(A4+1)=I(A6)                                                                   *797 LM00849
                  A4=A4+2                                                                         *798 LM00850
                  TRANSFER TO S92A                                                                *799 LM00851
      S95         END OF CONDITIONAL                                                              *800 LM00852
                  WHENEVER I(A4).E.$I$.OR.I(A4).GE.$N$.AND.I(A4).LE.$J$,EXECUTE                   *801 LM00853
                1 FINDIN.(I)                                                                      *801 LM00854
                  A4=A6+1                                                                         *802 LM00855
                  WHENEVER A5.G.EXTT.AND..NOT.OPCHK.(I(A6)),A4=A4-1                               *803 LM00856
                  OTHERWISE                                                                       *804 LM00857
                  WHENEVER I(A4).E.$I$.OR.I(A4).GE.$N$.AND.I(A4).LE.$J$                           *805 LM00858
                  EXECUTE FINDIN.(I)                                                              *806 LM00859
                  END OF CONDITIONAL                                                              *807 LM00860
                  WHENEVER I(A6).NE.$($.AND.(I(A4-1).NE.$,$.AND.I(A4-1).NE.$ .(                   *808 LM00861
                1  $.OR.I(A6).NE.$,$.AND.I(A6).NE.$)$.OR..NOT.LEVT)                               *808 LM00862
                  ZZXQ1=S95A                                                                      *809 LM00863
                  EXECUTE DIMFN.(I,ZZXQ1)                                                         *810 LM00864
                  OUT(OUT)=A6-1                                                                   *811 LM00865
                  OUT=OUT+1                                                                       *812 LM00866
                  I(A6-1)=$000(1)$.V.((I(A6-1)/4096)*4096)                                        *813 LM00867
      S95A        CONTINUE                                                                        *814 LM00868
                  END OF CONDITIONAL                                                              *815 LM00869
                  A4=A6+1                                                                         *816 LM00870
      S92A        WHENEVER A5.G.EXTT,A4=A4-1                                                      *817 LM00871
                  END OF CONDITIONAL                                                              *818 LM00872
                  END OF CONDITIONAL                                                              *819 LM00873
                  A3=A5                                                                           *820 LM00874
                  WHENEVER A5.LE.EXTT.AND.I(A6).E.$)$,EXECUTE LDN.                                *821 LM00875
                  END OF CONDITIONAL                                                              *822 LM00876
      S92         CHECK =0                                                                        *823 LM00877
                  WHENEVER ASTOUT.E.AS2                                                           *824 LM00878
                  CCT=A4-1                                                                        *825 LM00879
                  OUT(OUT)=700                                                                    *826 LM00880
                  OTHERWISE                                                                       *827 LM00881
                  THROUGH S96,FOR A7=A4  ,1,A7.G.EXTT                                             *828 LM00882
                  OUT(OUT)=-A7                                                                    *829 LM00883
      S96         OUT=OUT+1                                                                       *830 LM00884
                  OUT=OUT-1                                                                       *831 LM00885
                  END OF CONDITIONAL                                                              *832 LM00886
                  TRANSFER TO STOUT                                                               *833 LM00887
      S2          CONTINUE                                                                        *834 LM00888
                  TRANSFER TO PR                                                                  *835 LM00889
      S3          CONTINUE                                                                        *836 LM00890
                  TRANSFER TO TS3                                                                 *837 LM00891
      S60         EXECUTE ERRP.(ERRO)                                                             *838 LM00892
      S30         EXECUTE SUBST.                                                                  *839 LM00893
                  BOOLEAN LEVT                                                                    *840 LM00894
                  DIMENSION LEV(20)                                                               *841 LM00895
                  INTERNAL FUNCTION (X)                                                           *842 LM00896
                                                                                                       LM00897
                   DGT.                                                                                LM00898
                                                                                                       LM00899
                  ENTRY TO DGT.                                                                   *843 LM00900
                  THROUGH SD,FOR VALUES OF XX=$0$,$1$,$2$,$3$,$4$,$5$,$6$,$7$,                    *844 LM00901
                1   $8$,$9$                                                                       *844 LM00902
      SD          WHENEVER X.E.XX,FUNCTION RETURN 1B                                              *845 LM00903
                  FUNCTION RETURN 0B                                                              *846 LM00904
                  END OF FUNCTION                                                                 *847 LM00905
                  INTERNAL FUNCTION                                                               *848 LM00906
                                                                                                       LM00907
                   SETL.                                                                               LM00908
                                                                                                       LM00909
                  ENTRY TO SETL.                                                                  *849 LM00910
                    LEV=LEV+1                                                                     *850 LM00911
                    LEV(LEV)=LEVEL                                                                *851 LM00912
                     LEVT=1B                                                                      *852 LM00913
                  FUNCTION RETURN                                                                 *853 LM00914
                                                                                                       LM00915
                   LUP.                                                                                LM00916
                                                                                                       LM00917
                  ENTRY TO LUP.                                                                   *854 LM00918
                    LEVEL = LEVEL +1                                                              *855 LM00919
                     LEVT=0B                                                                      *856 LM00920
                  FUNCTION RETURN                                                                 *857 LM00921
                                                                                                       LM00922
                   LDN.                                                                                LM00923
                                                                                                       LM00924
                  ENTRY TO LDN.                                                                   *858 LM00925
                  WHENEVER LEV(LEV).E.LEVEL,LEV=LEV-1                                             *859 LM00926
                  WHENEVER LEV.E.-1                                                               *860 LM00927
                    ERRO=17                                                                       *861 LM00928
                  TRANSFER TO S60                                                                 *862 LM00929
                  END OF CONDITIONAL                                                              *863 LM00930
                  LEVEL= LEVEL-1                                                                  *864 LM00931
                  WHENEVER LEV(LEV).E.LEVEL                                                       *865 LM00932
                  LEVT=1B                                                                         *866 LM00933
                  OTHERWISE                                                                       *867 LM00934
                  LEVT=0B                                                                         *868 LM00935
                  END OF CONDITIONAL                                                              *869 LM00936
                  FUNCTION RETURN                                                                 *870 LM00937
                                                                                                       LM00938
                   LEVIN.                                                                              LM00939
                                                                                                       LM00940
                  ENTRY TO LEVIN.                                                                 *871 LM00941
                  LEV=0                                                                           *872 LM00942
                  LEVEL=0                                                                         *873 LM00943
                  LEVT=0B                                                                         *874 LM00944
                  FUNCTION RETURN                                                                 *875 LM00945
                  END OF FUNCTION                                                                 *876 LM00946
                  END OF FUNCTION                                                                 *877 LM00947
                                         MODE STRUCTURE 1 .EV. 1 TO 1         004  LM00002
 (THE NUMERIC FORM OF THE OPERATOR-MODE ARGUMENT IS    11111 )
1MAD PROGRAM,TYPE NOV 1963      (ALL NUMBERS ARE OCTAL)
0TOTAL LOCATIONS   07557 TRANSFER VECTOR LENGTH  00015 PROGRAM BEGINS    00566
0 PROGRAM IS AN EXTERNAL FUNCTION.   THE FOLLOWING ARE ENTRIES
      SUBST  05376   0        MADTR2 00567   0
0VARIABLE STORAGE (A=ARRAY,C=COMMON,E=ERASABLE,DIGIT=MODE)
      A01    00116   1        FLAG   56111  E1        S23B   00026   4        S582   00045   4        S93    00066   4
      A1     00117   1        FL     00305   1        S23C   00027   4        S58    00022   4        S94    00022   4
      A2     00120   1        FLUBB  00025   4        S23D   00030   4        S59    00022   4        S95A   00067   4
      A3     00121   1        FUNCT  67306 AE1        S29B   00022   4        S600   00046   4        S95    00022   4
      A4     00122   1        FUN    00306   1        S2     00023   4        S601   00022   4        S96    00022   4
      A5     00123   1        GLAGG  00307   1        S300   00022   4        S602   00047   4        SD     00022   4
      A6942  00124   1        GLAG   00310   1        S301A  00022   4        S603   00050   4        SHAIRY 00022   4
      A6     00125   1        HOL    60161 AE1        S302A  00022   4        S604   00022   4        SHARY  00022   4
      A7     00126   1        HSET   00311   1        S302   00031   4        S605   00022   4        SKORK  00347   1
      A8     00127   1        INTEG  73227 AE1        S303A  00022   4        S60    00051   4        S      00113 A 4
      A9     00130   1        I      61414 AE1        S303   00022   4        S61    00052   4        SSSAAA 00114   4
      ARG    00275 A 1        LEVEL  00312   1        S304A  00022   4        S74A   00022   4        SSSAA  00022   4
      ARRG   56207 AE1        LEV    00337 A 1        S304B  00022   4        S74B   00022   4        STACON 56122  E1
      AS2    00023   1        LEVT   00340   2        S304C  00022   4        S74    00053   4        STNO   56124  E1
      ASTOUT 00024   1        LUMP   56115  E2        S304   00022   4        S75    00054   4        STOUT  00024   4
      BOOLFL 56110  E2        MOX    56100  E2        S30A   00032   4        S76    00055   4        SUB    56107  E1
      BUMP   56116  E2        N      77150 AE1        S30D   00022   4        S77    00056   4        SW1    00350   1
      CCT    56121  E1        NSNO   56123  E1        S30    00033   4        S78    00057   4        SW2    00351   1
      CHECK  00276   1        NUMBER 56101  E1        S3     00034   4        S79    00022   4        SW3    56106  E4
      CRUMP  56113  E2        NUMST  00341   1        S45    00023   4        S82A   00022   4        SW4    00352   1
      CSW    56102  E2        NUMSU  00342   1        S49A   00035   4        S82B   00022   4        SW5    00353   1
      CT     00277   1        NUMSV  00343   1        S49    00022   4        S82    00022   4        TEMP   00362 A 1
      DCHECK 00300   1        OUT    57174 AE1        S50    00022   4        S92A   00060   4        TEST   00363   1
      DIM    65335 AE1        PR     56104  E4        S54    00036   4        S92    00022   4        THRZAG 00364   2
      DUMP   56117  E2        PSET   00344   2        S55B   00037   4        S93AA  00061   4        TS3    56105  E4
      DUM    77461 AE1        PUMP   56112  E2        S55    00040   4        S93A   00062   4        WHOLE  56120  E1
      ENTER  00301   1        RETN   00345   1        S56    00041   4        S93B   00063   4        XFN    00365   1
      ERRO   00302   1        RET    00346   1        S57A   00042   4        S93C   00064   4        XPYMZZ 00115   4
      ERR    56103  E1        RUMP   56114  E2        S57    00022   4        S93D   00022   4        XX     00366   1
      EXTT   00303   1        S21A   00022   4        S580   00043   4        S93F   00065   4        ZZXQ1  56077  E4
      FFZAG  00304   2        S21B   00022   4        S581   00044   4
0FUNCTION DICTIONARY
      BCDBN  00000   1        BNBCD  00001   1        COMPZ  00002   1        DIMFN  00003   1        ERRP   00004   1
      EXIT   00005   1        FINDIN 00006   1        FINDN  00007   1        FNCTFN 00010   1        LZR    00011   1
      OPCHK  00012   2        SUBST  00013   1        ZCOMPZ 00014   1        DGT    00015   2        LDN    00016   1
      LEVIN  00017   1        LUP    00020   1        SETL   00021   1
0ABSOLUTE CONSTANTS
 00406 +000000000021     00434 +106060606060     00433 +076060606060     00432 +066060606060     00431 +056060606060
 00430 +046060606060     00425 +016060606060     00420 +000000740134     00417 +000000010000     00410 +000000000023
 00413 +000000000144     00407 +000000000022     00472 +314563255145     00537 -206060603321     00440 +212262606060
 00465 +264346216360     00561 -272122626060     00533 -203347336060     00415 +000000001604     00564 -340000000054
 00554 -245145606060     00513 -064560512563     00470 +266445236331     00502 +336060606060     00551 -234660606060
 00454 +254563517060     00451 +236331464560     00442 +214360266445     00463 +256763255145     00412 +000000000062
 00534 -203374606060     00445 +222543606060     00455 +254563604321     00546 -226321632544     00501 +334525336060
 00475 +332145243360     00544 -207326465160     00550 -233051466427     00404 +000000000015     00532 -203327336060
 00505 -016060606060     00457 +255160634660     00552 -235121456226     00476 +332533007360     00477 +332733007360
 00500 +334333007360     00456 +255160606060     00560 -263025452565     00405 +000000000017     00512 -056060606060
 00520 -100000000053     00527 -106266633374     00526 -106243633374     00507 -036060606060     00523 -104450463374
 00553 -236060606060     00522 -102423633374     00474 +316060606060     00521 -102123463374     00555 -246060606060
 00524 -105062434560     00525 -106243453374     00460 +256060606050     00462 +256725236463     00422 +000260606060
 00530 -145160606060     00461 +256060606060     00466 +266060606060     00517 -076060606060     00506 -026060606060
 00515 -066060606060     00450 +236060606060     00444 +216060606060     00424 +006060736060     00437 +206060606060
 00504 -006060606060     00562 -276060606060     00535 -206000600200     00421 +000013005160     00545 -226060606060
 00542 -206521436425     00411 +000000000030     00435 +116060606060     00423 +006060606060     00471 +306060606060
 00436 +136060606060     00473 +314645606060     00452 +243144254562     00416 +000000001750     00531 -146060606060
 00541 -206073606060     00543 -207301736060     00536 -206013606060     00556 -252143642562     00557 -252523634651
 00427 +036060606060     00426 +026060606060     00403 +000000000014     00563 -336060606060     00503 +346060606060
 00540 -206060606060     00402 +000000000013     00401 +000000000012     00367 +000000000000     00547 -232147256060
 00511 -052460606060     00565 -346060606060     00400 +000000000011     00377 +000000000010     00467 +266063214725
 00447 +234651246000     00441 +212325605125     00514 -064560606060     00510 -046023464444     00516 -075146275121
 00414 +000000001274     00376 +000000000007     00375 +000000000006     00374 +000000000005     00373 +000000000004
 00372 +000000000003     00371 +000000000002     00443 +214725606060     00464 +263143256063     00453 +254524604626
 00370 +000000000001     00446 +233000000000
0STATEMENT DICTIONARY
 00023 TXL -307302007302       00026 TXL -304613004565       00027 TXL -304732004730       00030 TXL -305036005034
 00031 TXL -302123002121       00032 TXL -305413005411       00033 TXL -307307007306       00034 TXL -307303007303
 00035 TXL -303263003260       00036 TXL -303500003473       00037 TXL -303472003470       00040 TXL -303373003363
 00041 TXL -303453003446       00042 TXL -304462004460       00043 TXL -305136005114       00044 TXL -305110005106
 00045 TXL -305215005202       00046 TXL -306233006231       00047 TXL -303634003611       00050 TXL -303557003555
 00051 TXL -307306007304       00052 TXL -305260005256       00053 TXL -301367001364       00054 TXL -301055001033
 00055 TXL -300751000747       00056 TXL -301312001310       00057 TXL -300737000715       00060 TXL -307225007216
 00061 TXL -306220006212       00062 TXL -306177006164       00063 TXL -306470006460       00064 TXL -306617006617
 00065 TXL -306555006554       00066 TXL -306133006114       00067 TXL -307213007213       00070 TXL -303525003514
 00071 TXL -302703002663       00072 TXL -302642002640       00073 TXL -304542004520       00074 TXL -300624000622
 00100 TXL -300651000647       00101 TXL -301651001636       00102 TXL -300707000705       00103 TXL -300672000666
 00104 TXL -305336005331       00106 TXL -303100003076       00107 TXL -305055005052       00110 TXL -305402005400
 00111 TXL -304356004347       00112 TXL -300575000573       00114 TXL -304727004724       00115 TXL -304140004136
0PROGRAM
                 EXTERNAL FUNCTION                                                  001  LM00003
                 INSERT FILE TDFEV                                                  002  LM00004
                 DEFINE BINARY OPERATOR .EV., PRECEDENCE SAME AS .V.                003  LM00001
                 MODE STRUCTURE 1 .EV. 1 TO 1                                       004  LM00002
                 NORMAL MODE IS INTEGER                                             026  LM00005
                 ERASABLE DUM(200),N(2000),INTEG(2000),FUNCT(1000),DIM(2000),       027  LM00006
                1I(666),HOL(500),OUT(500),ARRG(50),STNO,NSNO,STACON,CCT,WHOLE,      027  LM00007
                2DUMP,BUMP,LUMP,RUMP,CRUMP,PUMP,FLAG,BOOLFL,SUB,SW3,TS3,PR,         027  LM00008
                3ERR,CSW,NUMBER,MOX,ZZXQ1                                           027  LM00009
                 BOOLEAN BOOLFL,CSW,MOX,DUMP,BUMP,LUMP,RUMP,CRUMP,PUMP              028  LM00010
                 STATEMENT LABEL SW3,TS3,PR,ZZXQ1                                   029  LM00011
                 DIMENSION TEMP(6),ARG(100)                                         030  LM00012
                 EQUIVALENCE (S2,S45,AS2), (STOUT,ASTOUT)                           031  LM00013
                 BOOLEAN PSET,OPCHK.,DGT.                                           032  LM00014
                 STATEMENT LABEL S45, STOUT                                         033  LM00015
                 ENTRY TO MADTR2.                                                   034  LM00019
 00566 TRA +0 02000 0 00571    00567 SXA +0 63400 2 07543    00570 TSX +0 07400 2 07543
                 TRANSFER TO S(FLAG)                                                035  LM00020
 00571 LXA +0 53400 2 56111    00572 TRA +0 02000 2 00113
      S(1)       I(1)=$END OF$                                                      036  LM00024
 00573 CLA +0 50000 0 00453    00574 STO +0 60100 0 61413
                 I(2)=$FILE T$                                                      037  LM00025
 00575 CLA +0 50000 0 00464    00576 STO +0 60100 0 61412
                 I(3)=$APE$                                                         038  LM00026
 00577 CLA +0 50000 0 00443    00600 STO +0 60100 0 61411
                 OUT(1)=1                                                           039  LM00027
 00601 CLA +0 50000 0 00370    00602 STO +0 60100 0 57173
                 OUT(2)=2                                                           040  LM00028
 00603 CLA +0 50000 0 00371    00604 STO +0 60100 0 57172
                 OUT(3)=3                                                           041  LM00029
 00605 CLA +0 50000 0 00372    00606 STO +0 60100 0 57171
                 OUT(4)=-4                                                          042  LM00030
 00607 CLS +0 50200 0 00373    00610 STO +0 60100 0 57170
                 OUT(5)=-5                                                          043  LM00031
 00611 CLS +0 50200 0 00374    00612 STO +0 60100 0 57167
                 OUT(6)=-6                                                          044  LM00032
 00613 CLS +0 50200 0 00375    00614 STO +0 60100 0 57166
                 OUT(7)=-7                                                          045  LM00033
 00615 CLS +0 50200 0 00376    00616 STO +0 60100 0 57165
                 OUT(8)=700                                                         046  LM00034
 00617 CLA +0 50000 0 00414    00620 STO +0 60100 0 57164
                 TRANSFER TO S2                                                     047  LM00035
 00621 TRA +0 02000 0 00023
      S(15)      I(1)=$PROGRA$                                                      048  LM00039
 00622 CLA +0 50000 0 00516    00623 STO +0 60100 0 61413
                 I(2)=$M COMM$                                                      049  LM00040
 00624 CLA +0 50000 0 00510    00625 STO +0 60100 0 61412
                 I(3)=$ON$                                                          050  LM00041
 00626 CLA +0 50000 0 00514    00627 STO +0 60100 0 61411
                 OUT(1)=1                                                           051  LM00042
 00630 CLA +0 50000 0 00370    00631 STO +0 60100 0 57173
                 OUT(2)=2                                                           052  LM00043
 00632 CLA +0 50000 0 00371    00633 STO +0 60100 0 57172
                 OUT(3)=3                                                           053  LM00044
 00634 CLA +0 50000 0 00372    00635 STO +0 60100 0 57171
                 OUT(4)=-4                                                          054  LM00045
 00636 CLS +0 50200 0 00373    00637 STO +0 60100 0 57170
                 OUT(5)=-5                                                          055  LM00046
 00640 CLS +0 50200 0 00374    00641 STO +0 60100 0 57167
                 OUT(6)=-6                                                          056  LM00047
 00642 CLS +0 50200 0 00375    00643 STO +0 60100 0 57166
                 OUT(7)=700                                                         057  LM00048
 00644 CLA +0 50000 0 00414    00645 STO +0 60100 0 57165
                 TRANSFER TO S2                                                     058  LM00049
 00646 TRA +0 02000 0 00023
      S(11)      I(7)=$ACE RE$                                                      059  LM00053
 00647 CLA +0 50000 0 00441    00650 STO +0 60100 0 61405
                 I(8)=$CORD 0$                                                      060  LM00054
 00651 CLA +0 50000 0 00447    00652 STO +0 60100 0 61404
                 I(9)=$F TAPE$                                                      061  LM00055
 00653 CLA +0 50000 0 00467    00654 STO +0 60100 0 61403
                 OUT(1)=7                                                           062  LM00056
 00655 CLA +0 50000 0 00376    00656 STO +0 60100 0 57173
                 OUT(2)=8                                                           063  LM00057
 00657 CLA +0 50000 0 00377    00660 STO +0 60100 0 57172
                 OUT(3)=9                                                           064  LM00058
 00661 CLA +0 50000 0 00400    00662 STO +0 60100 0 57171
                 OUT(4)=700                                                         065  LM00059
 00663 CLA +0 50000 0 00414    00664 STO +0 60100 0 57170
                 TRANSFER TO S2                                                     066  LM00060
 00665 TRA +0 02000 0 00023
      S(8)       WHENEVER I(7).E.$($,TRANSFER TO S30                                067  LM00064
 00666 CLA +0 50000 0 61405    00667 SUB +0 40200 0 00565    00670 TNZ -0 10000 0 00672    00671 TRA +0 02000 0 00033
                 I(5)=$ND$                                                          068  LM00065
 00672 CLA +0 50000 0 00511    00673 STO +0 60100 0 61407
                 I(6)=$TAPE$                                                        069  LM00066
 00674 CLA +0 50000 0 00547    00675 STO +0 60100 0 61406
                 OUT(1)=5                                                           070  LM00067
 00676 CLA +0 50000 0 00374    00677 STO +0 60100 0 57173
                 OUT(2)=6                                                           071  LM00068
 00700 CLA +0 50000 0 00375    00701 STO +0 60100 0 57172
                 OUT(3)=700                                                         072  LM00069
 00702 CLA +0 50000 0 00414    00703 STO +0 60100 0 57171
                 TRANSFER TO S2                                                     073  LM00070
 00704 TRA +0 02000 0 00023
      S(9)       SW1=0                                                              074  LM00074
 00705 CLA +0 50000 0 00367    00706 STO +0 60100 0 00350
                 CT=0                                                               075  LM00075
 00707 CLA +0 50000 0 00367    00710 STO +0 60100 0 00277
                 A4 = 10                                                            076  LM00076
 00711 CLA +0 50000 0 00401    00712 STO +0 60100 0 00122
                 SW2=10                                                             077  LM00077
 00713 CLA +0 50000 0 00401    00714 STO +0 60100 0 00351
      S78        THROUGH S78,FOR A1=SW2,1,OPCHK.(I(A1)).OR.A1.G.CCT                 078  LM00078
 00715 CLA +0 50000 0 00351    00716 STO +0 60100 0 00117    00717 TRA +0 02000 0 00723    00720 CLA +0 50000 0 00117
 00721 ADD +0 40000 0 00370    00722 STO +0 60100 0 00117    00723 CLA +0 50000 0 00117    00724 SUB +0 40200 0 56121
 00725 TZE +0 10000 0 00727    00726 TPL +0 12000 0 00737    00727 CLA +0 50000 0 00117    00730 SUB +0 40200 0 00731
 00731 TXH +3 00000 0 61414    00732 STA +0 62100 0 00734    00733 TSX +0 07400 4 00012    00734 TXH +3 00000 0 00000
 00735 TNZ -0 10000 0 00737    00736 TRA +0 02000 0 00720
                 WHENEVER I(A1).NE.$($.OR.A1.G.CCT                                  079  LM00079
 00737 CLA +0 50000 0 00117    00740 SUB +0 40200 0 56121    00741 TZE +0 10000 0 00743    00742 TPL +0 12000 0 00747
 00743 LXA +0 53400 1 00117    00744 CLA +0 50000 1 61414    00745 SUB +0 40200 0 00565    00746 TZE +0 10000 0 00752
      S76        ERRO =11                                                           080  LM00080
 00747 CLA +0 50000 0 00402    00750 STO +0 60100 0 00302
                 TRANSFER TO S60                                                    081  LM00081
 00751 TRA +0 02000 0 00051
                 END OF CONDITIONAL                                                 082  LM00082
                 WHENEVER SUB.NE.$ $                                                083  LM00083
 00752 CLA +0 50000 0 56107    00753 SUB +0 40200 0 00540    00754 TZE +0 10000 0 01017
                 CT=0                                                               084  LM00084
 00755 CLA +0 50000 0 00367    00756 STO +0 60100 0 00277
                 EXECUTE COMPZ.(A1-SW2,I(SW2),I)                                    085  LM00085
 00757 CLA +0 50000 0 00351    00760 SUB +0 40200 0 00761    00761 TXH +3 00000 0 61414    00762 STA +0 62100 0 00770
 00763 CLA +0 50000 0 00117    00764 SUB +0 40200 0 00351    00765 STO +0 60100 0 07553    00766 TSX +0 07400 4 00002
 00767 TXH +3 00000 0 07553    00770 TXH +3 00000 0 00000    00771 TXH +3 00000 0 61414
      S74A       THROUGH S74A, FOR A6=1,1,ARRG(A6).E.I.OR.A6.G.ARRG                 086  LM00086
 00772 CLA +0 50000 0 00370    00773 STO +0 60100 0 00125    00774 TRA +0 02000 0 01000    00775 CLA +0 50000 0 00125
 00776 ADD +0 40000 0 00370    00777 STO +0 60100 0 00125    01000 CLA +0 50000 0 00125    01001 SUB +0 40200 0 56207
 01002 TZE +0 10000 0 01004    01003 TPL +0 12000 0 01011    01004 LXA +0 53400 1 00125    01005 CLA +0 50000 1 56207
 01006 SUB +0 40200 0 61414    01007 TZE +0 10000 0 01011    01010 TRA +0 02000 0 00775
                 WHENEVER A6.LE.ARRG                                                087  LM00087
 01011 CLA +0 50000 0 00125    01012 SUB +0 40200 0 56207    01013 TZE +0 10000 0 01015    01014 TPL +0 12000 0 01017
                 CT=1                                                               088  LM00088
 01015 CLA +0 50000 0 00370    01016 STO +0 60100 0 00277
                 END OF CONDITIONAL                                                 089  LM00089
                 END OF CONDITIONAL                                                 090  LM00090
                 WHENEVER SUB.NE.$ $,DCHECK=A4                                      091  LM00091
 01017 CLA +0 50000 0 56107    01020 SUB +0 40200 0 00540    01021 TZE +0 10000 0 01024    01022 CLA +0 50000 0 00122
 01023 STO +0 60100 0 00300
                 SW5=0                                                              092  LM00092
 01024 CLA +0 50000 0 00367    01025 STO +0 60100 0 00353
                 SW4=A1+1                                                           093  LM00093
 01026 CLA +0 50000 0 00117    01027 ADD +0 40000 0 00370    01030 STO +0 60100 0 00352
                 A3=SW4                                                             094  LM00094
 01031 CLA +0 50000 0 00352    01032 STO +0 60100 0 00121
      S75        THROUGH S75,FOR A2=SW4 ,1,OPCHK.(I(A2)).OR.A2.G.CCT                095  LM00095
 01033 CLA +0 50000 0 00352    01034 STO +0 60100 0 00120    01035 TRA +0 02000 0 01041    01036 CLA +0 50000 0 00120
 01037 ADD +0 40000 0 00370    01040 STO +0 60100 0 00120    01041 CLA +0 50000 0 00120    01042 SUB +0 40200 0 56121
 01043 TZE +0 10000 0 01045    01044 TPL +0 12000 0 01055    01045 CLA +0 50000 0 00120    01046 SUB +0 40200 0 01047
 01047 TXH +3 00000 0 61414    01050 STA +0 62100 0 01052    01051 TSX +0 07400 4 00012    01052 TXH +3 00000 0 00000
 01053 TNZ -0 10000 0 01055    01054 TRA +0 02000 0 01036
                 WHENEVER I(A2).E.$,$.OR.I(A2).E.$)$                                096  LM00096
 01055 LXA +0 53400 1 00120    01056 CLA +0 50000 1 61414    01057 SUB +0 40200 0 00503    01060 TZE +0 10000 0 01064
 01061 CLA +0 50000 1 61414    01062 SUB +0 40200 0 00563    01063 TNZ -0 10000 0 01146
                 SW5=SW5+1                                                          097  LM00097
 01064 CLA +0 50000 0 00353    01065 ADD +0 40000 0 00370    01066 STO +0 60100 0 00353
                 EXECUTE ZCOMPZ.(A2-SW4,I(SW4  ),TEMP(SW5))                         098  LM00098
 01067 CLA +0 50000 0 00353    01070 SUB +0 40200 0 01071    01071 TXH +3 00000 0 00362    01072 STA +0 62100 0 01105
 01073 CLA +0 50000 0 00352    01074 SUB +0 40200 0 01075    01075 TXH +3 00000 0 61414    01076 STA +0 62100 0 01104
 01077 CLA +0 50000 0 00120    01100 SUB +0 40200 0 00352    01101 STO +0 60100 0 07553    01102 TSX +0 07400 4 00014
 01103 TXH +3 00000 0 07553    01104 TXH +3 00000 0 00000    01105 TXH +3 00000 0 00000
                 WHENEVER I(A2).E.$)$.AND.SW5.E.1,TRANSFER TO S74                   099  LM00099
 01106 CLA +0 50000 0 00353    01107 SUB +0 40200 0 00370    01110 TNZ -0 10000 0 01116    01111 LXA +0 53400 1 00120
 01112 CLA +0 50000 1 61414    01113 SUB +0 40200 0 00503    01114 TNZ -0 10000 0 01116    01115 TRA +0 02000 0 00053
                 WHENEVER SW5.G.3                                                   100  LM00100
 01116 CLA +0 50000 0 00353    01117 SUB +0 40200 0 00372    01120 TZE +0 10000 0 01126    01121 TMI -0 12000 0 01126
                 ERRO =12                                                           101  LM00101
 01122 CLA +0 50000 0 00403    01123 STO +0 60100 0 00302
                 TRANSFER TO S60                                                    102  LM00102
 01124 TRA +0 02000 0 00051
                 OR WHENEVER SW5.E.2                                                103  LM00103
 01125 TRA +0 02000 0 01140    01126 CLA +0 50000 0 00353    01127 SUB +0 40200 0 00371    01130 TNZ -0 10000 0 01135
                 SW4=A2+1                                                           104  LM00104
 01131 CLA +0 50000 0 00120    01132 ADD +0 40000 0 00370    01133 STO +0 60100 0 00352
                 OTHERWISE                                                          105  LM00105
 01134 TRA +0 02000 0 01140
                 SW4=A2+1                                                           106  LM00106
 01135 CLA +0 50000 0 00120    01136 ADD +0 40000 0 00370    01137 STO +0 60100 0 00352
                 END OF CONDITIONAL                                                 107  LM00107
                 WHENEVER I(A2).E.$,$,TRANSFER TO S75                               108  LM00108
 01140 LXA +0 53400 1 00120    01141 CLA +0 50000 1 61414    01142 SUB +0 40200 0 00563    01143 TNZ -0 10000 0 01145
 01144 TRA +0 02000 0 00054
                 OTHERWISE                                                          109  LM00109
 01145 TRA +0 02000 0 01147
                 TRANSFER TO S76                                                    110  LM00110
 01146 TRA +0 02000 0 00055
                 END OF CONDITIONAL                                                 111  LM00111
                 I(A3)=TEMP(1)                                                      112  LM00112
 01147 LXA +0 53400 1 00121    01150 CLA +0 50000 0 00361    01151 STO +0 60100 1 61414
                 I(7)=LZR.(TEMP(2))                                                 113  LM00113
 01152 TSX +0 07400 4 00011    01153 TXH +3 00000 0 00360    01154 STO +0 60100 0 61405
                 WHENEVER SW5.E.2                                                   114  LM00114
 01155 CLA +0 50000 0 00353    01156 SUB +0 40200 0 00371    01157 TNZ -0 10000 0 01202
                 I(5)=$2$                                                           115  LM00115
 01160 CLA +0 50000 0 00426    01161 STO +0 60100 0 61407
                 I(A3)=LZR.(BNBCD.(BCDBN.(TEMP(1))*BCDBN.(TEMP(2))))                116  LM00116
 01162 TSX +0 07400 4 00000    01163 TXH +3 00000 0 00360    01164 STO +0 60100 0 07553    01165 TSX +0 07400 4 00000
 01166 TXH +3 00000 0 00361    01167 XCA +0 13100 0 00000    01170 MPY +0 20000 0 07553    01171 STQ -0 60000 0 07553
 01172 TSX +0 07400 4 00001    01173 TXH +3 00000 0 07553    01174 STO +0 60100 0 07553    01175 TSX +0 07400 4 00011
 01176 TXH +3 00000 0 07553    01177 LXA +0 53400 1 00121    01200 STO +0 60100 1 61414
                 OTHERWISE                                                          117  LM00117
 01201 TRA +0 02000 0 01232
                 I(5)=$3$                                                           118  LM00118
 01202 CLA +0 50000 0 00427    01203 STO +0 60100 0 61407
                 I(A3)=LZR.(BNBCD.(BCDBN.(TEMP(1))*BCDBN.(TEMP(2))*BCDBN.(TEMP      119  LM00119
                1(3))))                                                             119  LM00120
 01204 TSX +0 07400 4 00000    01205 TXH +3 00000 0 00357    01206 STO +0 60100 0 07553    01207 TSX +0 07400 4 00000
 01210 TXH +3 00000 0 00360    01211 STO +0 60100 0 07554    01212 TSX +0 07400 4 00000    01213 TXH +3 00000 0 00361
 01214 XCA +0 13100 0 00000    01215 MPY +0 20000 0 07554    01216 MPY +0 20000 0 07553    01217 STQ -0 60000 0 07554
 01220 TSX +0 07400 4 00001    01221 TXH +3 00000 0 07554    01222 STO +0 60100 0 07554    01223 TSX +0 07400 4 00011
 01224 TXH +3 00000 0 07554    01225 LXA +0 53400 1 00121    01226 STO +0 60100 1 61414
                 I(9)=LZR.(TEMP(3))                                                 120  LM00121
 01227 TSX +0 07400 4 00011    01230 TXH +3 00000 0 00357    01231 STO +0 60100 0 61403
                 END OF CONDITIONAL                                                 121  LM00122
                 WHENEVER CT.E.0                                                    122  LM00123
 01232 CLA +0 50000 0 00277    01233 SUB +0 40200 0 00367    01234 TNZ -0 10000 0 01312
                 I(1)=$VECTOR$                                                      123  LM00124
 01235 CLA +0 50000 0 00557    01236 STO +0 60100 0 61413
                 I(2)=$VALUES$                                                      124  LM00125
 01237 CLA +0 50000 0 00556    01240 STO +0 60100 0 61412
                 I(4)=$  =$                                                         125  LM00126
 01241 CLA +0 50000 0 00536    01242 STO +0 60100 0 61410
                 I(6)=$ ,1,$                                                        126  LM00127
 01243 CLA +0 50000 0 00543    01244 STO +0 60100 0 61406
                 I(8)=$  ,$                                                         127  LM00128
 01245 CLA +0 50000 0 00541    01246 STO +0 60100 0 61404
                 STNO=$ $                                                           128  LM00129
 01247 CLA +0 50000 0 00540    01250 STO +0 60100 0 56124
                 WHOLE =1                                                           129  LM00130
 01251 CLA +0 50000 0 00370    01252 STO +0 60100 0 56120
                 I(3)=STACON.V.BNBCD.(FINDN.($*$))                                  130  LM00131
 01253 TSX +0 07400 4 00007    01254 TXH +3 00000 0 00531    01255 STO +0 60100 0 07554    01256 TSX +0 07400 4 00001
 01257 TXH +3 00000 0 07554    01260 STO +0 60100 0 07554    01261 CAL -0 50000 0 56122    01262 ORA -0 50100 0 07554
 01263 SLW +0 60200 0 61411
                 TEMP=CCT                                                           131  LM00132
 01264 CLA +0 50000 0 56121    01265 STO +0 60100 0 00362
                 I(A3+1)=$,$                                                        132  LM00133
 01266 CLA +0 50000 0 00121    01267 ADD +0 40000 0 00370    01270 PAX +0 73400 1 00000    01271 CLA +0 50000 0 00563
 01272 STO +0 60100 1 61414
                 I(A3+2)=I(3)                                                       133  LM00134
 01273 CLA +0 50000 0 00121    01274 ADD +0 40000 0 00371    01275 PAX +0 73400 1 00000    01276 CLA +0 50000 0 61411
 01277 STO +0 60100 1 61414
                 SW3=S77                                                            134  LM00135
 01300 CLA +0 50000 0 00056    01301 STO +0 60100 0 56106
                 CCT=3+2*SW5                                                        135  LM00136
 01302 LDQ +0 56000 0 00371    01303 MPY +0 20000 0 00353    01304 XCA +0 13100 0 00000    01305 ADD +0 40000 0 00372
 01306 STO +0 60100 0 56121
                 TRANSFER TO S2                                                     136  LM00137
 01307 TRA +0 02000 0 00023
      S77        CCT=TEMP                                                           137  LM00138
 01310 CLA +0 50000 0 00362    01311 STO +0 60100 0 56121
                 END OF CONDITIONAL                                                 138  LM00139
                 OUT(A4)=A3                                                         139  LM00140
 01312 LXA +0 53400 1 00122    01313 CLA +0 50000 0 00121    01314 STO +0 60100 1 57174
                 OUT(A4+1)=A3+1                                                     140  LM00141
 01315 CLA +0 50000 0 00121    01316 ADD +0 40000 0 00370    01317 STO +0 60100 0 07554    01320 CLA +0 50000 0 00122
 01321 ADD +0 40000 0 00370    01322 PAX +0 73400 1 00000    01323 CLA +0 50000 0 07554    01324 STO +0 60100 1 57174
                 OUT(A4+2)=A3+2                                                     141  LM00142
 01325 CLA +0 50000 0 00121    01326 ADD +0 40000 0 00371    01327 STO +0 60100 0 07554    01330 CLA +0 50000 0 00122
 01331 ADD +0 40000 0 00371    01332 PAX +0 73400 1 00000    01333 CLA +0 50000 0 07554    01334 STO +0 60100 1 57174
                 A4=A4+3                                                            142  LM00143
 01335 CLA +0 50000 0 00122    01336 ADD +0 40000 0 00372    01337 STO +0 60100 0 00122
                 THROUGH S79,FOR A5=A3+3,1,A5.E.A2                                  143  LM00144
 01340 CLA +0 50000 0 00121    01341 ADD +0 40000 0 00372    01342 STO +0 60100 0 00123    01343 TRA +0 02000 0 01347
 01344 CLA +0 50000 0 00123    01345 ADD +0 40000 0 00370    01346 STO +0 60100 0 00123    01347 CLA +0 50000 0 00123
 01350 SUB +0 40200 0 00120    01351 TZE +0 10000 0 01361
                 OUT(A4)=-A5                                                        144  LM00145
 01352 CLS +0 50200 0 00123    01353 LXA +0 53400 1 00122    01354 STO +0 60100 1 57174
      S79        A4=A4+1                                                            145  LM00146
 01355 CLA +0 50000 0 00122    01356 ADD +0 40000 0 00370    01357 STO +0 60100 0 00122    01360 TRA +0 02000 0 01344
                 TEMP(1)=I(A3)                                                      146  LM00147
 01361 LXA +0 53400 2 00121    01362 CLA +0 50000 2 61414    01363 STO +0 60100 0 00361
      S74        DIM=DIM+1                                                          147  LM00148
 01364 CLA +0 50000 0 65335    01365 ADD +0 40000 0 00370    01366 STO +0 60100 0 65335
                 WHENEVER DIM.G.1000                                                148  LM00149
 01367 CLA +0 50000 0 65335    01370 SUB +0 40200 0 00416    01371 TZE +0 10000 0 01401    01372 TMI -0 12000 0 01401
                 DIM = DIM -1                                                       149  LM00150
 01373 CLA +0 50000 0 65335    01374 SUB +0 40200 0 00370    01375 STO +0 60100 0 65335
                 ERRO =1                                                            150  LM00151
 01376 CLA +0 50000 0 00370    01377 STO +0 60100 0 00302
                 TRANSFER TO S60                                                    151  LM00152
 01400 TRA +0 02000 0 00051
                 END OF CONDITIONAL                                                 152  LM00153
                 SW1=SW1+1                                                          153  LM00154
 01401 CLA +0 50000 0 00350    01402 ADD +0 40000 0 00370    01403 STO +0 60100 0 00350
                 DIM(DIM)=COMPZ.(A1-SW2,I(SW2),I)                                   154  LM00155
 01404 CLA +0 50000 0 00351    01405 SUB +0 40200 0 01406    01406 TXH +3 00000 0 61414    01407 STA +0 62100 0 01415
 01410 CLA +0 50000 0 00117    01411 SUB +0 40200 0 00351    01412 STO +0 60100 0 07554    01413 TSX +0 07400 4 00002
 01414 TXH +3 00000 0 07554    01415 TXH +3 00000 0 00000    01416 TXH +3 00000 0 61414    01417 LXA +0 53400 1 65335
 01420 STO +0 60100 1 65335
                 DIM(DIM+1000)=TEMP(1)                                              155  LM00156
 01421 CLA +0 50000 0 65335    01422 ADD +0 40000 0 00416    01423 PAX +0 73400 1 00000    01424 CLA +0 50000 0 00361
 01425 STO +0 60100 1 65335
                 WHENEVER SUB.NE.$ $                                                156  LM00157
 01426 CLA +0 50000 0 56107    01427 SUB +0 40200 0 00540    01430 TZE +0 10000 0 01553
                 WHENEVER CT.E.1                                                    157  LM00158
 01431 CLA +0 50000 0 00277    01432 SUB +0 40200 0 00370    01433 TNZ -0 10000 0 01553
                 SW1=SW1-1                                                          158  LM00159
 01434 CLA +0 50000 0 00350    01435 SUB +0 40200 0 00370    01436 STO +0 60100 0 00350
                 A4=DCHECK                                                          159  LM00160
 01437 CLA +0 50000 0 00300    01440 STO +0 60100 0 00122
                 THROUGH S74B, FOR A2=SW2,1,I(A2).E.$)$                             160  LM00161
 01441 CLA +0 50000 0 00351    01442 STO +0 60100 0 00120    01443 TRA +0 02000 0 01447    01444 CLA +0 50000 0 00120
 01445 ADD +0 40000 0 00370    01446 STO +0 60100 0 00120    01447 LXA +0 53400 1 00120    01450 CLA +0 50000 1 61414
 01451 SUB +0 40200 0 00503    01452 TZE +0 10000 0 01462
                 OUT(A4)=-A2                                                        161  LM00162
 01453 CLS +0 50200 0 00120    01454 LXA +0 53400 1 00122    01455 STO +0 60100 1 57174
      S74B       A4=A4+1                                                            162  LM00163
 01456 CLA +0 50000 0 00122    01457 ADD +0 40000 0 00370    01460 STO +0 60100 0 00122    01461 TRA +0 02000 0 01444
                 OUT(A4)=-A2                                                        163  LM00164
 01462 CLS +0 50200 0 00120    01463 LXA +0 53400 1 00122    01464 STO +0 60100 1 57174
                 A4=A4+1                                                            164  LM00165
 01465 CLA +0 50000 0 00122    01466 ADD +0 40000 0 00370    01467 STO +0 60100 0 00122
                 WHENEVER A2.NE.CCT                                                 165  LM00166
 01470 CLA +0 50000 0 00120    01471 SUB +0 40200 0 56121    01472 TZE +0 10000 0 01503
                 OUT(A4)=-A2-1                                                      166  LM00167
 01473 CLS +0 50200 0 00120    01474 SUB +0 40200 0 00370    01475 LXA +0 53400 1 00122    01476 STO +0 60100 1 57174
                 A4=A4+1                                                            167  LM00168
 01477 CLA +0 50000 0 00122    01500 ADD +0 40000 0 00370    01501 STO +0 60100 0 00122
                 OTHERWISE                                                          168  LM00169
 01502 TRA +0 02000 0 01553
                 WHENEVER SW1.G.0                                                   169  LM00170
 01503 CLA +0 50000 0 00350    01504 SUB +0 40200 0 00367    01505 TZE +0 10000 0 01553    01506 TMI -0 12000 0 01553
      SHARY      THROUGH SHARY,FOR A6942=A4-1,-1,OUT(A6942)                         170  LM00171
                1 .E.-SW2                                                           170  LM00172
 01507 CLA +0 50000 0 00122    01510 SUB +0 40200 0 00370    01511 STO +0 60100 0 00124    01512 TRA +0 02000 0 01516
 01513 CLS +0 50200 0 00370    01514 ADD +0 40000 0 00124    01515 STO +0 60100 0 00124    01516 CLS +0 50200 0 00351
 01517 LXA +0 53400 1 00124    01520 CHS +0 76000 0 00002    01521 ADD +0 40000 1 57174    01522 TZE +0 10000 0 01524
 01523 TRA +0 02000 0 01513
                 THROUGH SHAIRY,FOR A6942=A6942,1,A6942.G.A4-1                      171  LM00173
 01524 CLA +0 50000 0 00124    01525 STO +0 60100 0 00124    01526 TRA +0 02000 0 01532    01527 CLA +0 50000 0 00124
 01530 ADD +0 40000 0 00370    01531 STO +0 60100 0 00124    01532 CLA +0 50000 0 00122    01533 SUB +0 40200 0 00370
 01534 CHS +0 76000 0 00002    01535 ADD +0 40000 0 00124    01536 TZE +0 10000 0 01540    01537 TPL +0 12000 0 01545
      SHAIRY     OUT(A6942)=OUT(A6942)+1                                            172  LM00174
 01540 LXA +0 53400 1 00124    01541 CLA +0 50000 1 57174    01542 ADD +0 40000 0 00370    01543 STO +0 60100 1 57174
 01544 TRA +0 02000 0 01527
                 OUT(A4)=-A2                                                        173  LM00175
 01545 CLS +0 50200 0 00120    01546 LXA +0 53400 1 00122    01547 STO +0 60100 1 57174
                 A4=A4+1                                                            174  LM00176
 01550 CLA +0 50000 0 00122    01551 ADD +0 40000 0 00370    01552 STO +0 60100 0 00122
                 END OF CONDITIONAL                                                 175  LM00177
                 END OF CONDITIONAL                                                 176  LM00178
                 END OF CONDITIONAL                                                 177  LM00179
                 EN D OF CONDITIONAL                                                178  LM00180
                 WHENEVER A2+1.G.CCT                                                179  LM00181
 01553 CLA +0 50000 0 00120    01554 ADD +0 40000 0 00370    01555 SUB +0 40200 0 56121    01556 TZE +0 10000 0 01623
 01557 TMI -0 12000 0 01623
                 WHENEVER SW1.E.0,TRANSFER TO S3                                    180  LM00182
 01560 CLA +0 50000 0 00350    01561 SUB +0 40200 0 00367    01562 TNZ -0 10000 0 01564    01563 TRA +0 02000 0 00034
                 SW3=S3                                                             181  LM00183
 01564 CLA +0 50000 0 00034    01565 STO +0 60100 0 56106
                 THROUGH S29B,FOR A3=1,1,A3.G.7                                     182  LM00184
 01566 CLA +0 50000 0 00370    01567 STO +0 60100 0 00121    01570 TRA +0 02000 0 01574    01571 CLA +0 50000 0 00121
 01572 ADD +0 40000 0 00370    01573 STO +0 60100 0 00121    01574 CLA +0 50000 0 00121    01575 SUB +0 40200 0 00376
 01576 TZE +0 10000 0 01600    01577 TPL +0 12000 0 01604
      S29B       OUT(A3)=-A3                                                        183  LM00185
 01600 CLS +0 50200 0 00121    01601 LXA +0 53400 1 00121    01602 STO +0 60100 1 57174    01603 TRA +0 02000 0 01571
                 OUT(8)=8                                                           184  LM00186
 01604 CLA +0 50000 0 00377    01605 STO +0 60100 0 57164
                 OUT(9)=9                                                           185  LM00187
 01606 CLA +0 50000 0 00400    01607 STO +0 60100 0 57163
                 I(8)=$DIMENS$                                                      186  LM00188
 01610 CLA +0 50000 0 00452    01611 STO +0 60100 0 61404
                 I(9)=$ION$                                                         187  LM00189
 01612 CLA +0 50000 0 00473    01613 STO +0 60100 0 61403
                 OUT(A4)=700                                                        188  LM00190
 01614 LXA +0 53400 1 00122    01615 CLA +0 50000 0 00414    01616 STO +0 60100 1 57174
                 WHOLE=0                                                            189  LM00191
 01617 CLA +0 50000 0 00367    01620 STO +0 60100 0 56120
                 TRANSFER TO S2                                                     190  LM00192
 01621 TRA +0 02000 0 00023
                 OTHERWISE                                                          191  LM00193
 01622 TRA +0 02000 0 01636
                 SW2=A2+2                                                           192  LM00194
 01623 CLA +0 50000 0 00120    01624 ADD +0 40000 0 00371    01625 STO +0 60100 0 00351
                 WHENEVER I(A2+1).NE.$,$,TRANSFER TO S76                            193  LM00195
 01626 CLA +0 50000 0 00120    01627 ADD +0 40000 0 00370    01630 PAX +0 73400 1 00000    01631 CLA +0 50000 1 61414
 01632 SUB +0 40200 0 00563    01633 TZE +0 10000 0 01635    01634 TRA +0 02000 0 00055
                 TRANSFER TO S78                                                    194  LM00196
 01635 TRA +0 02000 0 00057
                 END OF CONDITIONAL                                                 195  LM00197
      S(10)      THROUGH S(10),FOR A1=CCT,-1,I(A1).NE.$ $                           196  LM00201
 01636 CLA +0 50000 0 56121    01637 STO +0 60100 0 00117    01640 TRA +0 02000 0 01644    01641 CLS +0 50200 0 00370
 01642 ADD +0 40000 0 00117    01643 STO +0 60100 0 00117    01644 LXA +0 53400 1 00117    01645 CLA +0 50000 1 61414
 01646 SUB +0 40200 0 00540    01647 TNZ -0 10000 0 01651    01650 TRA +0 02000 0 01641
                 CCT=A1                                                             197  LM00202
 01651 CLA +0 50000 0 00117    01652 STO +0 60100 0 56121
                 HSET=0                                                             198  LM00203
 01653 CLA +0 50000 0 00367    01654 STO +0 60100 0 00311
                 THROUGH S82, FOR A1=8,1,A1.G.CCT                                   199  LM00204
 01655 CLA +0 50000 0 00377    01656 STO +0 60100 0 00117    01657 TRA +0 02000 0 01663    01660 CLA +0 50000 0 00117
 01661 ADD +0 40000 0 00370    01662 STO +0 60100 0 00117    01663 CLA +0 50000 0 00117    01664 SUB +0 40200 0 56121
 01665 TZE +0 10000 0 01667    01666 TPL +0 12000 0 02033
                 WHENEVER I(A1).E.$=$                                               200  LM00205
 01667 LXA +0 53400 1 00117    01670 CLA +0 50000 1 61414    01671 SUB +0 40200 0 00436    01672 TNZ -0 10000 0 01675
                 TRANSFER TO S(3)                                                   201  LM00206
 01673 TRA +0 02000 0 00110
                 OR WHENEVER I(A1).E.$H$                                            202  LM00207
 01674 TRA +0 02000 0 02032    01675 LXA +0 53400 1 00117    01676 CLA +0 50000 1 61414    01677 SUB +0 40200 0 00471
 01700 TNZ -0 10000 0 02032
                 A3=12                                                              203  LM00208
 01701 CLA +0 50000 0 00403    01702 STO +0 60100 0 00121
                 THROUGH S82A, FOR A2=A1-1,-1,(I(A2).G.$9$.OR.I(A2).L.$0$).AND      204  LM00209
                1.I(A2).NE.$$.OR.A2.L.HSET                                          204  LM00210
 01703 CLA +0 50000 0 00117    01704 SUB +0 40200 0 00370    01705 STO +0 60100 0 00120    01706 TRA +0 02000 0 01712
 01707 CLS +0 50200 0 00370    01710 ADD +0 40000 0 00120    01711 STO +0 60100 0 00120    01712 CLA +0 50000 0 00120
 01713 SUB +0 40200 0 00311    01714 TZE +0 10000 0 01716    01715 TMI -0 12000 0 01747    01716 LXA +0 53400 1 00120
 01717 CLA +0 50000 1 61414    01720 SUB +0 40200 0 00540    01721 TZE +0 10000 0 01733    01722 CLA +0 50000 1 61414
 01723 SUB +0 40200 0 00423    01724 TZE +0 10000 0 01726    01725 TMI -0 12000 0 01732    01726 CLA +0 50000 1 61414
 01727 SUB +0 40200 0 00435    01730 TZE +0 10000 0 01733    01731 TMI -0 12000 0 01733    01732 TRA +0 02000 0 01747
                 WHENEVER I(A2).NE.$ $                                              205  LM00211
 01733 LXA +0 53400 1 00120    01734 CLA +0 50000 1 61414    01735 SUB +0 40200 0 00540    01736 TZE +0 10000 0 01746
                 OUT(A3)=I(A2)                                                      206  LM00212
 01737 LXA +0 53400 1 00121    01740 LXA +0 53400 2 00120    01741 CLA +0 50000 2 61414    01742 STO +0 60100 1 57174
                 A3=A3-1                                                            207  LM00213
 01743 CLA +0 50000 0 00121    01744 SUB +0 40200 0 00370    01745 STO +0 60100 0 00121
                 END OF CONDITIONAL                                                 208  LM00214
      S82A       CONTINUE                                                           209  LM00215
 01746 TRA +0 02000 0 01707
                 WHENEVER A3.E.12                                                   210  LM00216
 01747 CLA +0 50000 0 00121    01750 SUB +0 40200 0 00403    01751 TNZ -0 10000 0 02000
                 A2=I(A1+1)                                                         211  LM00217
 01752 CLA +0 50000 0 00117    01753 ADD +0 40000 0 00370    01754 PAX +0 73400 2 00000    01755 CLA +0 50000 2 61414
 01756 STO +0 60100 0 00120
      S82B       THROUGH S82B, FOR A1=A1+2,1,I(A1).E.A2.OR.A1.GE.CCT                212  LM00218
 01757 CLA +0 50000 0 00117    01760 ADD +0 40000 0 00371    01761 STO +0 60100 0 00117    01762 TRA +0 02000 0 01766
 01763 CLA +0 50000 0 00117    01764 ADD +0 40000 0 00370    01765 STO +0 60100 0 00117    01766 CLA +0 50000 0 00117
 01767 SUB +0 40200 0 56121    01770 TZE +0 10000 0 01777    01771 TPL +0 12000 0 01777    01772 LXA +0 53400 1 00117
 01773 CLA +0 50000 1 61414    01774 SUB +0 40200 0 00120    01775 TZE +0 10000 0 01777    01776 TRA +0 02000 0 01763
                 OTHERWISE                                                          213  LM00219
 01777 TRA +0 02000 0 02021
                 A1=A1+BCDBN.(ZCOMPZ.(12-A3,OUT(A3+1),I))                           214  LM00220
 02000 CLA +0 50000 0 00121    02001 ADD +0 40000 0 00370    02002 SUB +0 40200 0 02003    02003 TXH +3 00000 0 57174
 02004 STA +0 62100 0 02012    02005 CLA +0 50000 0 00403    02006 SUB +0 40200 0 00121    02007 STO +0 60100 0 07554
 02010 TSX +0 07400 4 00014    02011 TXH +3 00000 0 07554    02012 TXH +3 00000 0 00000    02013 TXH +3 00000 0 61414
 02014 STO +0 60100 0 07554    02015 TSX +0 07400 4 00000    02016 TXH +3 00000 0 07554    02017 ADD +0 40000 0 00117
 02020 STO +0 60100 0 00117
                 END OF CONDITIONAL                                                 215  LM00221
                 WHENEVER A1.GE.CCT, ERRP.(24)                                      216  LM00222
 02021 CLA +0 50000 0 00117    02022 SUB +0 40200 0 56121    02023 TZE +0 10000 0 02025    02024 TMI -0 12000 0 02027
 02025 TSX +0 07400 4 00004    02026 TXH +3 00000 0 00411
                 HSET=A1+1                                                          217  LM00223
 02027 CLA +0 50000 0 00117    02030 ADD +0 40000 0 00370    02031 STO +0 60100 0 00311
                 END OF CONDITIONAL                                                 218  LM00224
      S82        CONTINUE                                                           219  LM00225
 02032 TRA +0 02000 0 01660
                 I(1)=$VECTOR$                                                      220  LM00226
 02033 CLA +0 50000 0 00557    02034 STO +0 60100 0 61413
                 A3=8                                                               221  LM00227
 02035 CLA +0 50000 0 00377    02036 STO +0 60100 0 00121
                 OUT(1)=1                                                           222  LM00228
 02037 CLA +0 50000 0 00370    02040 STO +0 60100 0 57173
                 OUT(2)=2                                                           223  LM00229
 02041 CLA +0 50000 0 00371    02042 STO +0 60100 0 57172
                 OUT(3)=3                                                           224  LM00230
 02043 CLA +0 50000 0 00372    02044 STO +0 60100 0 57171
                 OUT(4)=4                                                           225  LM00231
 02045 CLA +0 50000 0 00373    02046 STO +0 60100 0 57170
                 OUT(5)=-5                                                          226  LM00232
 02047 CLS +0 50200 0 00374    02050 STO +0 60100 0 57167
                 OUT(6)=-6                                                          227  LM00233
 02051 CLS +0 50200 0 00375    02052 STO +0 60100 0 57166
                 OUT(7)=7                                                           228  LM00234
 02053 CLA +0 50000 0 00376    02054 STO +0 60100 0 57165
                 I(2)=$ VALUE$                                                      229  LM00235
 02055 CLA +0 50000 0 00542    02056 STO +0 60100 0 61412
                 I(3)=$S     $                                                      230  LM00236
 02057 CLA +0 50000 0 00545    02060 STO +0 60100 0 61411
                 PSET = 0B                                                          231  LM00237
 02061 CLA +0 50000 0 00367    02062 STO +0 60100 0 00344
                 WHENEVERI(CCT).NE.$)$                                              232  LM00238
 02063 LXA +0 53400 1 56121    02064 CLA +0 50000 1 61414    02065 SUB +0 40200 0 00503    02066 TZE +0 10000 0 02072
                 ERRO=24                                                            233  LM00239
 02067 CLA +0 50000 0 00411    02070 STO +0 60100 0 00302
                 TRANSFER TO S60                                                    234  LM00240
 02071 TRA +0 02000 0 00051
                 END OF CONDITIONAL                                                 235  LM00241
                 I(4)=STNO                                                          236  LM00242
 02072 CLA +0 50000 0 56124    02073 STO +0 60100 0 61410
                 I(7)=$00=0R $.V.$  0 20$                                           237  LM00243
 02074 CAL -0 50000 0 00421    02075 ORA -0 50100 0 00535    02076 SLW +0 60200 0 61405
                 SW2=8                                                              238  LM00244
 02077 CLA +0 50000 0 00377    02100 STO +0 60100 0 00351
                 HSET=0                                                             239  LM00245
 02101 CLA +0 50000 0 00367    02102 STO +0 60100 0 00311
                 THROUGH S300, FOR A1=SW2,1,A1.G.CCT                                240  LM00246
 02103 CLA +0 50000 0 00351    02104 STO +0 60100 0 00117    02105 TRA +0 02000 0 02111    02106 CLA +0 50000 0 00117
 02107 ADD +0 40000 0 00370    02110 STO +0 60100 0 00117    02111 CLA +0 50000 0 00117    02112 SUB +0 40200 0 56121
 02113 TZE +0 10000 0 02115    02114 TPL +0 12000 0 02610
                 WHENEVER I(A1).E.$=$                                               241  LM00247
 02115 LXA +0 53400 1 00117    02116 CLA +0 50000 1 61414    02117 SUB +0 40200 0 00436    02120 TNZ -0 10000 0 02125
      S302       ERRO=24                                                            242  LM00248
 02121 CLA +0 50000 0 00411    02122 STO +0 60100 0 00302
                 TRANSFER TO S60                                                    243  LM00249
 02123 TRA +0 02000 0 00051
                 OR WHENEVER I(A1).E.$X$                                            244  LM00250
 02124 TRA +0 02000 0 02607    02125 LXA +0 53400 1 00117    02126 CLA +0 50000 1 61414    02127 SUB +0 40200 0 00562
 02130 TNZ -0 10000 0 02237
                 THROUGH S302A, FOR A01=A1-1,-1,.NOT. DGT.(I(A01))                  245  LM00251
                1.OR.A01.L.HSET                                                     245  LM00252
 02131 CLA +0 50000 0 00117    02132 SUB +0 40200 0 00370    02133 STO +0 60100 0 00116    02134 TRA +0 02000 0 02140
 02135 CLS +0 50200 0 00370    02136 ADD +0 40000 0 00116    02137 STO +0 60100 0 00116    02140 CLA +0 50000 0 00116
 02141 SUB +0 40200 0 00311    02142 TZE +0 10000 0 02144    02143 TMI -0 12000 0 02162    02144 CLA +0 50000 0 00116
 02145 SUB +0 40200 0 02146    02146 TXH +3 00000 0 61414    02147 STA +0 62100 0 02151    02150 TSX +0 07400 4 00015
 02151 TXH +3 00000 0 00000    02152 TZE +0 10000 0 02162
           S302A I(A01+1)= I(A01)                                                   246  LM00253
 02153 CLA +0 50000 0 00116    02154 ADD +0 40000 0 00370    02155 PAX +0 73400 1 00000    02156 LXA +0 53400 2 00116
 02157 CLA +0 50000 2 61414    02160 STO +0 60100 1 61414    02161 TRA +0 02000 0 02135
                 I(A01+1)=$S$                                                       247  LM00254
 02162 CLA +0 50000 0 00116    02163 ADD +0 40000 0 00370    02164 PAX +0 73400 1 00000    02165 CLA +0 50000 0 00545
 02166 STO +0 60100 1 61414
      S303A      THROUGH S303A, FOR A5=A1+1,1,I(A5).NE.$$                           248  LM00255
 02167 CLA +0 50000 0 00117    02170 ADD +0 40000 0 00370    02171 STO +0 60100 0 00123    02172 TRA +0 02000 0 02176
 02173 CLA +0 50000 0 00123    02174 ADD +0 40000 0 00370    02175 STO +0 60100 0 00123    02176 LXA +0 53400 1 00123
 02177 CLA +0 50000 1 61414    02200 SUB +0 40200 0 00540    02201 TNZ -0 10000 0 02203    02202 TRA +0 02000 0 02173
                 WHENEVER .NOT.OPCHK.(I(A5)).OR.I(A5).E.$+$.OR.I(A5).E.$-$          249  LM00256
                1.OR.I(A5).E.$($                                                    249  LM00257
 02203 LXA +0 53400 1 00123    02204 CLA +0 50000 1 61414    02205 SUB +0 40200 0 00565    02206 TZE +0 10000 0 02224
 02207 CLA +0 50000 1 61414    02210 SUB +0 40200 0 00504    02211 TZE +0 10000 0 02224    02212 CLA +0 50000 1 61414
 02213 SUB +0 40200 0 00437    02214 TZE +0 10000 0 02224    02215 CLA +0 50000 0 00123    02216 SUB +0 40200 0 02217
 02217 TXH +3 00000 0 61414    02220 STA +0 62100 0 02222    02221 TSX +0 07400 4 00012    02222 TXH +3 00000 0 00000
 02223 TNZ -0 10000 0 02236
                 I(A1)=I(A1).V.$0  ,  $                                             250  LM00258
 02224 LXA +0 53400 1 00117    02225 CAL -0 50000 1 61414    02226 ORA -0 50100 0 00424    02227 SLW +0 60200 1 61414
                 OUT(A3)=A1                                                         251  LM00259
 02230 LXA +0 53400 1 00121    02231 CLA +0 50000 0 00117    02232 STO +0 60100 1 57174
                 A3=A3+1                                                            252  LM00260
 02233 CLA +0 50000 0 00121    02234 ADD +0 40000 0 00370    02235 STO +0 60100 0 00121
                 END OF CONDITIONAL                                                 253  LM00261
                 OR WHENEVER I(A1).E.$A$                                            254  LM00262
 02236 TRA +0 02000 0 02607    02237 LXA +0 53400 1 00117    02240 CLA +0 50000 1 61414    02241 SUB +0 40200 0 00444
 02242 TNZ -0 10000 0 02246
                 I(A1)=$C$                                                          255  LM00263
 02243 CLA +0 50000 0 00450    02244 STO +0 60100 1 61414
                 OR WHENEVER I(A1).E.$O$                                            256  LM00264
 02245 TRA +0 02000 0 02607    02246 LXA +0 53400 1 00117    02247 CLA +0 50000 1 61414    02250 SUB +0 40200 0 00515
 02251 TNZ -0 10000 0 02255
                 I(A1)=$K$                                                          257  LM00265
 02252 CLA +0 50000 0 00506    02253 STO +0 60100 1 61414
                 OR WHENEVER I(A1).E.$H$                                            258  LM00266
 02254 TRA +0 02000 0 02607    02255 LXA +0 53400 1 00117    02256 CLA +0 50000 1 61414    02257 SUB +0 40200 0 00471
 02260 TNZ -0 10000 0 02415
                 A5=CCT+5                                                           259  LM00267
 02261 CLA +0 50000 0 56121    02262 ADD +0 40000 0 00374    02263 STO +0 60100 0 00123
                 THROUGH S301A, FOR A4=A1-1,-1,.NOT.DGT.(I(A4))                     260  LM00268
                1.AND.I(A4).NE.$$.OR.A4.L.HSET                                      260  LM00269
 02264 CLA +0 50000 0 00117    02265 SUB +0 40200 0 00370    02266 STO +0 60100 0 00122    02267 TRA +0 02000 0 02273
 02270 CLS +0 50200 0 00370    02271 ADD +0 40000 0 00122    02272 STO +0 60100 0 00122    02273 CLA +0 50000 0 00122
 02274 SUB +0 40200 0 00311    02275 TZE +0 10000 0 02277    02276 TMI -0 12000 0 02326    02277 LXA +0 53400 1 00122
 02300 CLA +0 50000 1 61414    02301 SUB +0 40200 0 00540    02302 TZE +0 10000 0 02312    02303 CLA +0 50000 0 00122
 02304 SUB +0 40200 0 02305    02305 TXH +3 00000 0 61414    02306 STA +0 62100 0 02310    02307 TSX +0 07400 4 00015
 02310 TXH +3 00000 0 00000    02311 TZE +0 10000 0 02326
                 WHENEVER I(A4).NE.$ $                                              261  LM00270
 02312 LXA +0 53400 1 00122    02313 CLA +0 50000 1 61414    02314 SUB +0 40200 0 00540    02315 TZE +0 10000 0 02325
                 I(A5)=I(A4)                                                        262  LM00271
 02316 LXA +0 53400 1 00123    02317 LXA +0 53400 2 00122    02320 CLA +0 50000 2 61414    02321 STO +0 60100 1 61414
                 A5=A5-1                                                            263  LM00272
 02322 CLA +0 50000 0 00123    02323 SUB +0 40200 0 00370    02324 STO +0 60100 0 00123
                 END OF CONDITIONAL                                                 264  LM00273
      S301A      CONTINUE                                                           265  LM00274
 02325 TRA +0 02000 0 02270
                 WHENEVER A5.E.CCT+5                                                266  LM00275
 02326 CLA +0 50000 0 56121    02327 ADD +0 40000 0 00374    02330 CHS +0 76000 0 00002    02331 ADD +0 40000 0 00123
 02332 TNZ -0 10000 0 02361
                 A4=I(A1+1)                                                         267  LM00276
 02333 CLA +0 50000 0 00117    02334 ADD +0 40000 0 00370    02335 PAX +0 73400 2 00000    02336 CLA +0 50000 2 61414
 02337 STO +0 60100 0 00122
      S303       THROUGH S303, FOR A1=A1+2,1,I(A1).E.A4.OR.A1.GE.CCT                268  LM00277
 02340 CLA +0 50000 0 00117    02341 ADD +0 40000 0 00371    02342 STO +0 60100 0 00117    02343 TRA +0 02000 0 02347
 02344 CLA +0 50000 0 00117    02345 ADD +0 40000 0 00370    02346 STO +0 60100 0 00117    02347 CLA +0 50000 0 00117
 02350 SUB +0 40200 0 56121    02351 TZE +0 10000 0 02360    02352 TPL +0 12000 0 02360    02353 LXA +0 53400 1 00117
 02354 CLA +0 50000 1 61414    02355 SUB +0 40200 0 00122    02356 TZE +0 10000 0 02360    02357 TRA +0 02000 0 02344
                 OTHERWISE                                                          269  LM00278
 02360 TRA +0 02000 0 02403
                 A1=A1+BCDBN.(ZCOMPZ.(CCT+5-A5,I(A5+1),I))                          270  LM00279
 02361 CLA +0 50000 0 00123    02362 ADD +0 40000 0 00370    02363 SUB +0 40200 0 02364    02364 TXH +3 00000 0 61414
 02365 STA +0 62100 0 02374    02366 CLA +0 50000 0 56121    02367 ADD +0 40000 0 00374    02370 SUB +0 40200 0 00123
 02371 STO +0 60100 0 07554    02372 TSX +0 07400 4 00014    02373 TXH +3 00000 0 07554    02374 TXH +3 00000 0 00000
 02375 TXH +3 00000 0 61414    02376 STO +0 60100 0 07554    02377 TSX +0 07400 4 00000    02400 TXH +3 00000 0 07554
 02401 ADD +0 40000 0 00117    02402 STO +0 60100 0 00117
                 END OF CONDITIONAL                                                 271  LM00280
                 WHENEVER A1.GE.CCT, ERRP.(24)                                      272  LM00281
 02403 CLA +0 50000 0 00117    02404 SUB +0 40200 0 56121    02405 TZE +0 10000 0 02407    02406 TMI -0 12000 0 02411
 02407 TSX +0 07400 4 00004    02410 TXH +3 00000 0 00411
                 HSET=A1+1                                                          273  LM00282
 02411 CLA +0 50000 0 00117    02412 ADD +0 40000 0 00370    02413 STO +0 60100 0 00311
                 OR WHENEVER I(A1).E.$P$                                            274  LM00283
 02414 TRA +0 02000 0 02607    02415 LXA +0 53400 1 00117    02416 CLA +0 50000 1 61414    02417 SUB +0 40200 0 00517
 02420 TNZ -0 10000 0 02511
                 PSET = 1B                                                          275  LM00284
 02421 CLA +0 50000 0 00370    02422 STO +0 60100 0 00344
      S304       THROUGH S304,FOR   A4=A1-1,-1,.NOT. DGT.(I(A4))  .AND.             276  LM00285
                1I(A4).NE.$-$.AND.I(A4).NE.$+$.OR.A4.L.HSET                         276  LM00286
 02423 CLA +0 50000 0 00117    02424 SUB +0 40200 0 00370    02425 STO +0 60100 0 00122    02426 TRA +0 02000 0 02432
 02427 CLS +0 50200 0 00370    02430 ADD +0 40000 0 00122    02431 STO +0 60100 0 00122    02432 CLA +0 50000 0 00122
 02433 SUB +0 40200 0 00311    02434 TZE +0 10000 0 02436    02435 TMI -0 12000 0 02455    02436 LXA +0 53400 1 00122
 02437 CLA +0 50000 1 61414    02440 SUB +0 40200 0 00437    02441 TZE +0 10000 0 02454    02442 CLA +0 50000 1 61414
 02443 SUB +0 40200 0 00504    02444 TZE +0 10000 0 02454    02445 CLA +0 50000 0 00122    02446 SUB +0 40200 0 02447
 02447 TXH +3 00000 0 61414    02450 STA +0 62100 0 02452    02451 TSX +0 07400 4 00015    02452 TXH +3 00000 0 00000
 02453 TZE +0 10000 0 02455    02454 TRA +0 02000 0 02427
                 THROUGH S304A, FOR A2=A4+1,1,A2.G.A1                               277  LM00287
 02455 CLA +0 50000 0 00122    02456 ADD +0 40000 0 00370    02457 STO +0 60100 0 00120    02460 TRA +0 02000 0 02464
 02461 CLA +0 50000 0 00120    02462 ADD +0 40000 0 00370    02463 STO +0 60100 0 00120    02464 CLA +0 50000 0 00120
 02465 SUB +0 40200 0 00117    02466 TZE +0 10000 0 02470    02467 TPL +0 12000 0 02505
                 TEMP(A2-A4)=I(A2)                                                  278  LM00288
 02470 CLA +0 50000 0 00120    02471 SUB +0 40200 0 00122    02472 PAX +0 73400 1 00000    02473 LXA +0 53400 2 00120
 02474 CLA +0 50000 2 61414    02475 STO +0 60100 1 00362
                 OUT(A3)=-A2                                                        279  LM00289
 02476 CLS +0 50200 0 00120    02477 LXA +0 53400 1 00121    02500 STO +0 60100 1 57174
      S304A      A3=A3+1                                                            280  LM00290
 02501 CLA +0 50000 0 00121    02502 ADD +0 40000 0 00370    02503 STO +0 60100 0 00121    02504 TRA +0 02000 0 02461
                 A6=A1-A4                                                           281  LM00291
 02505 CLA +0 50000 0 00117    02506 SUB +0 40200 0 00122    02507 STO +0 60100 0 00125
                 OR WHENEVER (I(A1).E.$E$.OR.I(A1).E.$F$).AND.PSET                  282  LM00292
 02510 TRA +0 02000 0 02607    02511 NZT -0 52000 0 00344    02512 TRA +0 02000 0 02607    02513 LXA +0 53400 1 00117
 02514 CLA +0 50000 1 61414    02515 SUB +0 40200 0 00466    02516 TZE +0 10000 0 02522    02517 CLA +0 50000 1 61414
 02520 SUB +0 40200 0 00461    02521 TNZ -0 10000 0 02607
      S304B      THROUGH S304B, FOR A4=A1-1,-1,.NOT. DGT.(I(A4))                    283  LM00293
 02522 CLA +0 50000 0 00117    02523 SUB +0 40200 0 00370    02524 STO +0 60100 0 00122    02525 TRA +0 02000 0 02531
 02526 CLS +0 50200 0 00370    02527 ADD +0 40000 0 00122    02530 STO +0 60100 0 00122    02531 CLA +0 50000 0 00122
 02532 SUB +0 40200 0 02533    02533 TXH +3 00000 0 61414    02534 STA +0 62100 0 02536    02535 TSX +0 07400 4 00015
 02536 TXH +3 00000 0 00000    02537 TZE +0 10000 0 02541    02540 TRA +0 02000 0 02526
                 A2=A6                                                              284  LM00294
 02541 CLA +0 50000 0 00125    02542 STO +0 60100 0 00120
                 THROUGH S304C, FOR A4=A4+1,1,A4.G.A1                               285  LM00295
 02543 CLA +0 50000 0 00122    02544 ADD +0 40000 0 00370    02545 STO +0 60100 0 00122    02546 TRA +0 02000 0 02552
 02547 CLA +0 50000 0 00122    02550 ADD +0 40000 0 00370    02551 STO +0 60100 0 00122    02552 CLA +0 50000 0 00122
 02553 SUB +0 40200 0 00117    02554 TZE +0 10000 0 02556    02555 TPL +0 12000 0 02574
                 OUT(A3)=-A4                                                        286  LM00296
 02556 CLS +0 50200 0 00122    02557 LXA +0 53400 1 00121    02560 STO +0 60100 1 57174
                 A3=A3+1                                                            287  LM00297
 02561 CLA +0 50000 0 00121    02562 ADD +0 40000 0 00370    02563 STO +0 60100 0 00121
                 A2=A2+1                                                            288  LM00298
 02564 CLA +0 50000 0 00120    02565 ADD +0 40000 0 00370    02566 STO +0 60100 0 00120
      S304C      TEMP(A2)=I(A4)                                                     289  LM00299
 02567 LXA +0 53400 1 00120    02570 LXA +0 53400 2 00122    02571 CLA +0 50000 2 61414    02572 STO +0 60100 1 00362
 02573 TRA +0 02000 0 02547
                 OUT(A3-1)=A1                                                       290  LM00300
 02574 CLA +0 50000 0 00121    02575 SUB +0 40200 0 00370    02576 PAX +0 73400 1 00000    02577 CLA +0 50000 0 00117
 02600 STO +0 60100 1 57174
                 I(A1)=COMPZ.(A2,TEMP(1),I)                                         291  LM00301
 02601 TSX +0 07400 4 00002    02602 TXH +3 00000 0 00120    02603 TXH +3 00000 0 00361    02604 TXH +3 00000 0 61414
 02605 LXA +0 53400 1 00117    02606 STO +0 60100 1 61414
                 END OF CONDITIONAL                                                 292  LM00302
            S300 CONTINUE                                                           293  LM00303
 02607 TRA +0 02000 0 02106
                 WHENEVER A1.G.CCT.AND.I(CCT ).NE.$)$,TRANSFER TO S302              294  LM00304
 02610 LXA +0 53400 1 56121    02611 CLA +0 50000 1 61414    02612 SUB +0 40200 0 00503    02613 TZE +0 10000 0 02621
 02614 CLA +0 50000 0 00117    02615 SUB +0 40200 0 56121    02616 TZE +0 10000 0 02621    02617 TMI -0 12000 0 02621
 02620 TRA +0 02000 0 00031
                 I(CCT)=$*R$.V.$02$                                                 295  LM00305
 02621 CAL -0 50000 0 00530    02622 ORA -0 50100 0 00422    02623 LXA +0 53400 1 56121    02624 SLW +0 60200 1 61414
                 OUT(A3)=CCT                                                        296  LM00306
 02625 LXA +0 53400 1 00121    02626 CLA +0 50000 0 56121    02627 STO +0 60100 1 57174
                 OUT(A3+1)=700                                                      297  LM00307
 02630 CLA +0 50000 0 00121    02631 ADD +0 40000 0 00370    02632 PAX +0 73400 1 00000    02633 CLA +0 50000 0 00414
 02634 STO +0 60100 1 57174
                 STNO =$ $                                                          298  LM00308
 02635 CLA +0 50000 0 00540    02636 STO +0 60100 0 56124
                 TRANSFER TO S2                                                     299  LM00309
 02637 TRA +0 02000 0 00023
      S(17)      I(1) = $EXECUT$                                                    300  LM00313
 02640 CLA +0 50000 0 00462    02641 STO +0 60100 0 61413
                 I(2)=$E    Q$                                                      301  LM00314
 02642 CLA +0 50000 0 00460    02643 STO +0 60100 0 61412
                 I(3)=$QSLN.($                                                      302  LM00315
 02644 CLA +0 50000 0 00525    02645 STO +0 60100 0 61411
                 I(4)=I(CCT)                                                        303  LM00316
 02646 LXA +0 53400 2 56121    02647 CLA +0 50000 2 61414    02650 STO +0 60100 0 61410
                 I(5)=$)$                                                           304  LM00317
 02651 CLA +0 50000 0 00503    02652 STO +0 60100 0 61407
                 WHOLE = 1                                                          305  LM00318
 02653 CLA +0 50000 0 00370    02654 STO +0 60100 0 56120
                 FNCTFN.($QQSLN$,S602)                                              306  LM00319
 02655 TSX +0 07400 4 00010    02656 TXH +3 00000 0 00524    02657 TXH +3 00000 0 00047
                 CCT=5                                                              307  LM00320
 02660 CLA +0 50000 0 00374    02661 STO +0 60100 0 56121
                 TRANSFER TO S2                                                     308  LM00321
 02662 TRA +0 02000 0 00023
      S(18)      THROUGH S(18), FOR A1 = CCT,-1,I(A1).G.$9$.OR. I(A1).L.$0$         309  LM00322
 02663 CLA +0 50000 0 56121    02664 STO +0 60100 0 00117    02665 TRA +0 02000 0 02671    02666 CLS +0 50200 0 00370
 02667 ADD +0 40000 0 00117    02670 STO +0 60100 0 00117    02671 LXA +0 53400 1 00117    02672 CLA +0 50000 1 61414
 02673 SUB +0 40200 0 00423    02674 TZE +0 10000 0 02676    02675 TMI -0 12000 0 02703    02676 CLA +0 50000 1 61414
 02677 SUB +0 40200 0 00435    02700 TZE +0 10000 0 02702    02701 TPL +0 12000 0 02703    02702 TRA +0 02000 0 02666
                 NUMST=STACON.V.BNBCD.(FINDN.(COMPZ.(CCT-A1,I(A1+1))))              310  LM00323
 02703 CLA +0 50000 0 00117    02704 ADD +0 40000 0 00370    02705 SUB +0 40200 0 02706    02706 TXH +3 00000 0 61414
 02707 STA +0 62100 0 02715    02710 CLA +0 50000 0 56121    02711 SUB +0 40200 0 00117    02712 STO +0 60100 0 07554
 02713 TSX +0 07400 4 00002    02714 TXH +3 00000 0 07554    02715 TXH +3 00000 0 00000    02716 STO +0 60100 0 07554
 02717 TSX +0 07400 4 00007    02720 TXH +3 00000 0 07554    02721 STO +0 60100 0 07554    02722 TSX +0 07400 4 00001
 02723 TXH +3 00000 0 07554    02724 STO +0 60100 0 07554    02725 CAL -0 50000 0 56122    02726 ORA -0 50100 0 07554
 02727 SLW +0 60200 0 00341
                 WHENEVER I(A1).E.$,$                                               311  LM00324
 02730 LXA +0 53400 1 00117    02731 CLA +0 50000 1 61414    02732 SUB +0 40200 0 00563    02733 TNZ -0 10000 0 02743
                 NUMSU=NUMST                                                        312  LM00325
 02734 CLA +0 50000 0 00341    02735 STO +0 60100 0 00342
                 CCT=A1-1                                                           313  LM00326
 02736 CLA +0 50000 0 00117    02737 SUB +0 40200 0 00370    02740 STO +0 60100 0 56121
                 TRANSFER TO S(18)                                                  314  LM00327
 02741 TRA +0 02000 0 00071
                 OR WHENEVER I(A1).E.$)$                                            315  LM00328
 02742 TRA +0 02000 0 02770    02743 LXA +0 53400 1 00117    02744 CLA +0 50000 1 61414    02745 SUB +0 40200 0 00503
 02746 TNZ -0 10000 0 02755
                 NUMSV=I(A1-1)                                                      316  LM00329
 02747 CLA +0 50000 0 00117    02750 SUB +0 40200 0 00370    02751 PAX +0 73400 2 00000    02752 CLA +0 50000 2 61414
 02753 STO +0 60100 0 00343
                 OR WHENEVER OPCHK. (I(A1))                                         317  LM00330
 02754 TRA +0 02000 0 02770    02755 CLA +0 50000 0 00117    02756 SUB +0 40200 0 02757    02757 TXH +3 00000 0 61414
 02760 STA +0 62100 0 02762    02761 TSX +0 07400 4 00012    02762 TXH +3 00000 0 00000    02763 TZE +0 10000 0 02766
                 TRANSFER TO S30                                                    318  LM00331
 02764 TRA +0 02000 0 00033
                 OTHERWISE                                                          319  LM00332
 02765 TRA +0 02000 0 02770
                 NUMSV=$ $                                                          320  LM00333
 02766 CLA +0 50000 0 00540    02767 STO +0 60100 0 00343
                 END OF CONDITIONAL                                                 321  LM00334
                 WHENEVER I(6).E.$U$                                                322  LM00335
 02770 CLA +0 50000 0 61406    02771 SUB +0 40200 0 00555    02772 TNZ -0 10000 0 02776
                 I(3)=$QACO.($                                                      323  LM00336
 02773 CLA +0 50000 0 00521    02774 STO +0 60100 0 61411
                 OR WHENEVER I(6).E.$I$                                             324  LM00337
 02775 TRA +0 02000 0 03031    02776 CLA +0 50000 0 61406    02777 SUB +0 40200 0 00474    03000 TNZ -0 10000 0 03004
                 I(3)=$QDCT.($                                                      325  LM00338
 03001 CLA +0 50000 0 00522    03002 STO +0 60100 0 61411
                 OR WHENEVER I(6).E.$T$                                             326  LM00339
 03003 TRA +0 02000 0 03031    03004 CLA +0 50000 0 61406    03005 SUB +0 40200 0 00553    03006 TNZ -0 10000 0 03012
                 I(3)=$QMQO.($                                                      327  LM00340
 03007 CLA +0 50000 0 00523    03010 STO +0 60100 0 61411
                 OR WHENEVER I(9).E.$L$                                             328  LM00341
 03011 TRA +0 02000 0 03031    03012 CLA +0 50000 0 61403    03013 SUB +0 40200 0 00507    03014 TNZ -0 10000 0 03020
                 I(3)=$QSLT.($                                                      329  LM00342
 03015 CLA +0 50000 0 00526    03016 STO +0 60100 0 61411
                 OR WHENEVER I(9).E.$S$                                             330  LM00343
 03017 TRA +0 02000 0 03031    03020 CLA +0 50000 0 61403    03021 SUB +0 40200 0 00545    03022 TNZ -0 10000 0 03026
                 I(3)=$QSWT.($                                                      331  LM00344
 03023 CLA +0 50000 0 00527    03024 STO +0 60100 0 61411
                 OTHERWISE                                                          332  LM00345
 03025 TRA +0 02000 0 03031
                 ERRO =7                                                            333  LM00346
 03026 CLA +0 50000 0 00376    03027 STO +0 60100 0 00302
                 TRANSFER TO S60                                                    334  LM00347
 03030 TRA +0 02000 0 00051
                 END OF CONDITIONAL                                                 335  LM00348
                 I(1)=$EXECUT$                                                      336  LM00349
 03031 CLA +0 50000 0 00462    03032 STO +0 60100 0 61413
                 I(2)=$E    Q$                                                      337  LM00350
 03033 CLA +0 50000 0 00460    03034 STO +0 60100 0 61412
                 I(4)=NUMST                                                         338  LM00351
 03035 CLA +0 50000 0 00341    03036 STO +0 60100 0 61410
                 I(5)=$  ,$                                                         339  LM00352
 03037 CLA +0 50000 0 00541    03040 STO +0 60100 0 61407
                 FNCTFN.((I(3).RS.6).EV.500000000053K,S602)                         340  LM00353
 03041 CAL -0 50000 0 00375    03042 STA +0 62100 0 03044    03043 CAL -0 50000 0 61411    03044 LGR -0 76500 0 00000
 03045 ERA +0 32200 0 00520    03046 SLW +0 60200 0 07554    03047 TSX +0 07400 4 00010    03050 TXH +3 00000 0 07554
 03051 TXH +3 00000 0 00047
                 WHENEVER I(6).E.$N$                                                341  LM00354
 03052 CLA +0 50000 0 61406    03053 SUB +0 40200 0 00512    03054 TNZ -0 10000 0 03064
                 I(7)=$  ,$                                                         342  LM00355
 03055 CLA +0 50000 0 00541    03056 STO +0 60100 0 61405
                 I(8)=NUMSV                                                         343  LM00356
 03057 CLA +0 50000 0 00343    03060 STO +0 60100 0 61404
                 CCT=9                                                              344  LM00357
 03061 CLA +0 50000 0 00400    03062 STO +0 60100 0 56121
                 OTHERWISE                                                          345  LM00358
 03063 TRA +0 02000 0 03066
                 CCT=7                                                              346  LM00359
 03064 CLA +0 50000 0 00376    03065 STO +0 60100 0 56121
                 END OF CONDITIONAL                                                 347  LM00360
                 I(CCT)=$)$                                                         348  LM00361
 03066 LXA +0 53400 1 56121    03067 CLA +0 50000 0 00503    03070 STO +0 60100 1 61414
                 WHOLE =1                                                           349  LM00362
 03071 CLA +0 50000 0 00370    03072 STO +0 60100 0 56120
                 I(6)=NUMSU                                                         350  LM00363
 03073 CLA +0 50000 0 00342    03074 STO +0 60100 0 61406
                 TRANSFER TO S2                                                     351  LM00364
 03075 TRA +0 02000 0 00023
      S(5)       SW2=4                                                              352  LM00368
 03076 CLA +0 50000 0 00373    03077 STO +0 60100 0 00351
                 A2=1                                                               353  LM00369
 03100 CLA +0 50000 0 00370    03101 STO +0 60100 0 00120
      S21A       THROUGH S21A,FOR A3=CCT,-1,OPCHK.(I(A3))                           354  LM00370
 03102 CLA +0 50000 0 56121    03103 STO +0 60100 0 00121    03104 TRA +0 02000 0 03110    03105 CLS +0 50200 0 00370
 03106 ADD +0 40000 0 00121    03107 STO +0 60100 0 00121    03110 CLA +0 50000 0 00121    03111 SUB +0 40200 0 03112
 03112 TXH +3 00000 0 61414    03113 STA +0 62100 0 03115    03114 TSX +0 07400 4 00012    03115 TXH +3 00000 0 00000
 03116 TNZ -0 10000 0 03120    03117 TRA +0 02000 0 03105
                 WHENEVER I(A3).NE.$,$,TRANSFER TO S30                              355  LM00371
 03120 LXA +0 53400 1 00121    03121 CLA +0 50000 1 61414    03122 SUB +0 40200 0 00563    03123 TZE +0 10000 0 03125
 03124 TRA +0 02000 0 00033
      S21B       THROUGH S21B,FOR A1=A3,-1,I(A1).E.$)$.OR.A1.E.0                    356  LM00372
 03125 CLA +0 50000 0 00121    03126 STO +0 60100 0 00117    03127 TRA +0 02000 0 03133    03130 CLS +0 50200 0 00370
 03131 ADD +0 40000 0 00117    03132 STO +0 60100 0 00117    03133 CLA +0 50000 0 00117    03134 SUB +0 40200 0 00367
 03135 TZE +0 10000 0 03143    03136 LXA +0 53400 1 00117    03137 CLA +0 50000 1 61414    03140 SUB +0 40200 0 00503
 03141 TZE +0 10000 0 03143    03142 TRA +0 02000 0 03130
                 WHENEVER A1.E.0                                                    357  LM00373
 03143 CLA +0 50000 0 00117    03144 SUB +0 40200 0 00367    03145 TNZ -0 10000 0 03151
                 ERRO =15                                                           358  LM00374
 03146 CLA +0 50000 0 00405    03147 STO +0 60100 0 00302
                 TRANSFER TO S60                                                    359  LM00375
 03150 TRA +0 02000 0 00051
                 END OF CONDITIONAL                                                 360  LM00376
                 EXTT=A1-1                                                          361  LM00377
 03151 CLA +0 50000 0 00117    03152 SUB +0 40200 0 00370    03153 STO +0 60100 0 00303
                 SW2=CCT                                                            362  LM00378
 03154 CLA +0 50000 0 56121    03155 STO +0 60100 0 00351
                 THROUGH S49,FOR A1=1,1,A1.G.3                                      363  LM00379
 03156 CLA +0 50000 0 00370    03157 STO +0 60100 0 00117    03160 TRA +0 02000 0 03164    03161 CLA +0 50000 0 00117
 03162 ADD +0 40000 0 00370    03163 STO +0 60100 0 00117    03164 CLA +0 50000 0 00117    03165 SUB +0 40200 0 00372
 03166 TZE +0 10000 0 03170    03167 TPL +0 12000 0 03240
      S50        THROUGH S50, FOR A2=SW2,-1,I(A2).E.$,$.OR.I(A2).E.$)$              364  LM00380
 03170 CLA +0 50000 0 00351    03171 STO +0 60100 0 00120    03172 TRA +0 02000 0 03176    03173 CLS +0 50200 0 00370
 03174 ADD +0 40000 0 00120    03175 STO +0 60100 0 00120    03176 LXA +0 53400 1 00120    03177 CLA +0 50000 1 61414
 03200 SUB +0 40200 0 00503    03201 TZE +0 10000 0 03206    03202 CLA +0 50000 1 61414    03203 SUB +0 40200 0 00563
 03204 TZE +0 10000 0 03206    03205 TRA +0 02000 0 03173
                 TEMP(A1)=STACON.V.BNBCD.(FINDN.(COMPZ.(SW2-A2,I(A2+1))))           365  LM00381
 03206 CLA +0 50000 0 00120    03207 ADD +0 40000 0 00370    03210 SUB +0 40200 0 03211    03211 TXH +3 00000 0 61414
 03212 STA +0 62100 0 03220    03213 CLA +0 50000 0 00351    03214 SUB +0 40200 0 00120    03215 STO +0 60100 0 07554
 03216 TSX +0 07400 4 00002    03217 TXH +3 00000 0 07554    03220 TXH +3 00000 0 00000    03221 STO +0 60100 0 07554
 03222 TSX +0 07400 4 00007    03223 TXH +3 00000 0 07554    03224 STO +0 60100 0 07554    03225 TSX +0 07400 4 00001
 03226 TXH +3 00000 0 07554    03227 STO +0 60100 0 07554    03230 CAL -0 50000 0 56122    03231 ORA -0 50100 0 07554
 03232 LXA +0 53400 1 00117    03233 SLW +0 60200 1 00362
             S49 SW2=A2-1                                                           366  LM00382
 03234 CLA +0 50000 0 00120    03235 SUB +0 40200 0 00370    03236 STO +0 60100 0 00351    03237 TRA +0 02000 0 03161
                 I(1)=$WHENEV$                                                      367  LM00383
 03240 CLA +0 50000 0 00560    03241 STO +0 60100 0 61413
                 I(2)=$ER$                                                          368  LM00384
 03242 CLA +0 50000 0 00456    03243 STO +0 60100 0 61412
                 OUT(1)=1                                                           369  LM00385
 03244 CLA +0 50000 0 00370    03245 STO +0 60100 0 57173
                 OUT(2)=2                                                           370  LM00386
 03246 CLA +0 50000 0 00371    03247 STO +0 60100 0 57172
                 ENTER=4                                                            371  LM00387
 03250 CLA +0 50000 0 00373    03251 STO +0 60100 0 00301
                 OUT=3                                                              372  LM00388
 03252 CLA +0 50000 0 00372    03253 STO +0 60100 0 57174
                 STOUT=S49A                                                         373  LM00389
 03254 CLA +0 50000 0 00035    03255 STO +0 60100 0 00024
                 EXECUTE LEVIN.                                                     374  LM00390
 03256 TSX +0 07400 4 00017
                 TRANSFER TO S30A                                                   375  LM00391
 03257 TRA +0 02000 0 00032
      S49A       WHENEVER TEMP(1).E.TEMP(2)                                         376  LM00392
 03260 CLA +0 50000 0 00361    03261 SUB +0 40200 0 00360    03262 TNZ -0 10000 0 03304
                 TEMP=1                                                             377  LM00393
 03263 CLA +0 50000 0 00370    03264 STO +0 60100 0 00362
                 WHENEVER TEMP(1).E.TEMP(3), TRANSFER TO S56                        378  LM00394
 03265 CLA +0 50000 0 00361    03266 SUB +0 40200 0 00357    03267 TNZ -0 10000 0 03271    03270 TRA +0 02000 0 00041
                 I(A2+1)=$.L.0,$                                                    379  LM00395
 03271 CLA +0 50000 0 00120    03272 ADD +0 40000 0 00370    03273 PAX +0 73400 1 00000    03274 CLA +0 50000 0 00500
 03275 STO +0 60100 1 61414
                 I(A2+4)=TEMP(3)                                                    380  LM00396
 03276 CLA +0 50000 0 00120    03277 ADD +0 40000 0 00373    03300 PAX +0 73400 1 00000    03301 CLA +0 50000 0 00357
 03302 STO +0 60100 1 61414
                 OR WHENEVER TEMP(2).E.TEMP(3)                                      381  LM00397
 03303 TRA +0 02000 0 03361    03304 CLA +0 50000 0 00360    03305 SUB +0 40200 0 00357    03306 TNZ -0 10000 0 03324
                 TEMP=2                                                             382  LM00398
 03307 CLA +0 50000 0 00371    03310 STO +0 60100 0 00362
                 I(A2+1)=$.G.0,$                                                    383  LM00399
 03311 CLA +0 50000 0 00120    03312 ADD +0 40000 0 00370    03313 PAX +0 73400 1 00000    03314 CLA +0 50000 0 00477
 03315 STO +0 60100 1 61414
                 I(A2+4)=TEMP(1)                                                    384  LM00400
 03316 CLA +0 50000 0 00120    03317 ADD +0 40000 0 00373    03320 PAX +0 73400 1 00000    03321 CLA +0 50000 0 00361
 03322 STO +0 60100 1 61414
                 OR WHENEVER TEMP(1).E.TEMP(3)                                      385  LM00401
 03323 TRA +0 02000 0 03361    03324 CLA +0 50000 0 00361    03325 SUB +0 40200 0 00357    03326 TNZ -0 10000 0 03344
                 TEMP=3                                                             386  LM00402
 03327 CLA +0 50000 0 00372    03330 STO +0 60100 0 00362
                 I(A2+1)=$.E.0,$                                                    387  LM00403
 03331 CLA +0 50000 0 00120    03332 ADD +0 40000 0 00370    03333 PAX +0 73400 1 00000    03334 CLA +0 50000 0 00476
 03335 STO +0 60100 1 61414
                 I(A2+4)=TEMP(2)                                                    388  LM00404
 03336 CLA +0 50000 0 00120    03337 ADD +0 40000 0 00373    03340 PAX +0 73400 1 00000    03341 CLA +0 50000 0 00360
 03342 STO +0 60100 1 61414
                 OTHERWISE                                                          389  LM00405
 03343 TRA +0 02000 0 03361
                 I(A2+1)=$.L.0,$                                                    390  LM00406
 03344 CLA +0 50000 0 00120    03345 ADD +0 40000 0 00370    03346 PAX +0 73400 1 00000    03347 CLA +0 50000 0 00500
 03350 STO +0 60100 1 61414
                 I(A2+4)=TEMP(3)                                                    391  LM00407
 03351 CLA +0 50000 0 00120    03352 ADD +0 40000 0 00373    03353 PAX +0 73400 1 00000    03354 CLA +0 50000 0 00357
 03355 STO +0 60100 1 61414
                 SW3=S54                                                            392  LM00408
 03356 CLA +0 50000 0 00036    03357 STO +0 60100 0 56106
                 TRANSFER TO S55                                                    393  LM00409
 03360 TRA +0 02000 0 00040
                 END OF CONDITIONAL                                                 394  LM00410
                 SW3=S56                                                            395  LM00411
 03361 CLA +0 50000 0 00041    03362 STO +0 60100 0 56106
      S55        OUT(OUT+1)=A2+1                                                    396  LM00412
 03363 CLA +0 50000 0 00120    03364 ADD +0 40000 0 00370    03365 STO +0 60100 0 07554    03366 CLA +0 50000 0 57174
 03367 ADD +0 40000 0 00370    03370 PAX +0 73400 1 00000    03371 CLA +0 50000 0 07554    03372 STO +0 60100 1 57174
                 OUT(OUT+2)=A2+2                                                    397  LM00413
 03373 CLA +0 50000 0 00120    03374 ADD +0 40000 0 00371    03375 STO +0 60100 0 07554    03376 CLA +0 50000 0 57174
 03377 ADD +0 40000 0 00371    03400 PAX +0 73400 1 00000    03401 CLA +0 50000 0 07554    03402 STO +0 60100 1 57174
                 OUT(OUT+3)=A2+3                                                    398  LM00414
 03403 CLA +0 50000 0 00120    03404 ADD +0 40000 0 00372    03405 STO +0 60100 0 07554    03406 CLA +0 50000 0 57174
 03407 ADD +0 40000 0 00372    03410 PAX +0 73400 1 00000    03411 CLA +0 50000 0 07554    03412 STO +0 60100 1 57174
                 OUT(OUT+4)=A2+4                                                    399  LM00415
 03413 CLA +0 50000 0 00120    03414 ADD +0 40000 0 00373    03415 STO +0 60100 0 07554    03416 CLA +0 50000 0 57174
 03417 ADD +0 40000 0 00373    03420 PAX +0 73400 1 00000    03421 CLA +0 50000 0 07554    03422 STO +0 60100 1 57174
                 OUT(OUT+5)=700                                                     400  LM00416
 03423 CLA +0 50000 0 57174    03424 ADD +0 40000 0 00374    03425 PAX +0 73400 1 00000    03426 CLA +0 50000 0 00414
 03427 STO +0 60100 1 57174
                 I(A2+2)=$TRANSF$                                                   401  LM00417
 03430 CLA +0 50000 0 00120    03431 ADD +0 40000 0 00371    03432 PAX +0 73400 1 00000    03433 CLA +0 50000 0 00552
 03434 STO +0 60100 1 61414
                 I(A2+3)=$ER TO $                                                   402  LM00418
 03435 CLA +0 50000 0 00120    03436 ADD +0 40000 0 00372    03437 PAX +0 73400 1 00000    03440 CLA +0 50000 0 00457
 03441 STO +0 60100 1 61414
                 CCT=A2+4                                                           403  LM00419
 03442 CLA +0 50000 0 00120    03443 ADD +0 40000 0 00373    03444 STO +0 60100 0 56121
                 TRANSFER TO S2                                                     404  LM00420
 03445 TRA +0 02000 0 00023
      S56        WHENEVER TEMP(TEMP).E.NSNO, TRANSFER TO S3                         405  LM00421
 03446 LXA +0 53400 1 00362    03447 CLA +0 50000 1 00362    03450 SUB +0 40200 0 56123    03451 TNZ -0 10000 0 03453
 03452 TRA +0 02000 0 00034
                 I(1)=$TRANSF$                                                      406  LM00422
 03453 CLA +0 50000 0 00552    03454 STO +0 60100 0 61413
                 I(2) = $ER TO $                                                    407  LM00423
 03455 CLA +0 50000 0 00457    03456 STO +0 60100 0 61412
                 I(3)=TEMP(TEMP)                                                    408  LM00424
 03457 LXA +0 53400 2 00362    03460 CLA +0 50000 2 00362    03461 STO +0 60100 0 61411
                 WHOLE =1                                                           409  LM00425
 03462 CLA +0 50000 0 00370    03463 STO +0 60100 0 56120
                 SW3=S3                                                             410  LM00426
 03464 CLA +0 50000 0 00034    03465 STO +0 60100 0 56106
                 CCT=3                                                              411  LM00427
 03466 CLA +0 50000 0 00372    03467 STO +0 60100 0 56121
      S55B       STNO=$ $                                                           412  LM00428
 03470 CLA +0 50000 0 00540    03471 STO +0 60100 0 56124
                 TRANSFER TO S45                                                    413  LM00429
 03472 TRA +0 02000 0 00023
      S54        I(A2+1)=$.G.0,$                                                    414  LM00430
 03473 CLA +0 50000 0 00120    03474 ADD +0 40000 0 00370    03475 PAX +0 73400 1 00000    03476 CLA +0 50000 0 00477
 03477 STO +0 60100 1 61414
                 I(A2+4)=TEMP(1)                                                    415  LM00431
 03500 CLA +0 50000 0 00120    03501 ADD +0 40000 0 00373    03502 PAX +0 73400 1 00000    03503 CLA +0 50000 0 00361
 03504 STO +0 60100 1 61414
                 TEMP=2                                                             416  LM00432
 03505 CLA +0 50000 0 00371    03506 STO +0 60100 0 00362
                 WHOLE=0                                                            417  LM00433
 03507 CLA +0 50000 0 00367    03510 STO +0 60100 0 56120
                 SW3=S56                                                            418  LM00434
 03511 CLA +0 50000 0 00041    03512 STO +0 60100 0 56106
                 TRANSFER TO S55B                                                   419  LM00435
 03513 TRA +0 02000 0 00037
      S(19)      WHENEVER I(3).G.$9$.OR.I(3).L.$0$,TRANSFER TO S30                  420  LM00439
 03514 CLA +0 50000 0 61411    03515 SUB +0 40200 0 00423    03516 TZE +0 10000 0 03520    03517 TMI -0 12000 0 03524
 03520 CLA +0 50000 0 61411    03521 SUB +0 40200 0 00435    03522 TZE +0 10000 0 03525    03523 TMI -0 12000 0 03525
 03524 TRA +0 02000 0 00033
      S601       THROUGH S601, FOR A1=3,1,A1.G.CCT.OR.I(A1).L.$0$.OR.I(A1).G.       421  LM00440
                1$9$                                                                421  LM00441
 03525 CLA +0 50000 0 00372    03526 STO +0 60100 0 00117    03527 TRA +0 02000 0 03533    03530 CLA +0 50000 0 00117
 03531 ADD +0 40000 0 00370    03532 STO +0 60100 0 00117    03533 LXA +0 53400 1 00117    03534 CLA +0 50000 1 61414
 03535 SUB +0 40200 0 00435    03536 TZE +0 10000 0 03540    03537 TPL +0 12000 0 03551    03540 CLA +0 50000 1 61414
 03541 SUB +0 40200 0 00423    03542 TZE +0 10000 0 03544    03543 TMI -0 12000 0 03551    03544 CLA +0 50000 0 00117
 03545 SUB +0 40200 0 56121    03546 TZE +0 10000 0 03550    03547 TPL +0 12000 0 03551    03550 TRA +0 02000 0 03530
                 WHENEVER A1.G.CCT                                                  422  LM00442
 03551 CLA +0 50000 0 00117    03552 SUB +0 40200 0 56121    03553 TZE +0 10000 0 03561    03554 TMI -0 12000 0 03561
      S603       ERRO =3                                                            423  LM00443
 03555 CLA +0 50000 0 00372    03556 STO +0 60100 0 00302
                 TRANSFER TO S60                                                    424  LM00444
 03557 TRA +0 02000 0 00051
                 OR WHENEVER OPCHK.(I(A1))                                          425  LM00445
 03560 TRA +0 02000 0 03571    03561 CLA +0 50000 0 00117    03562 SUB +0 40200 0 03563    03563 TXH +3 00000 0 61414
 03564 STA +0 62100 0 03566    03565 TSX +0 07400 4 00012    03566 TXH +3 00000 0 00000    03567 TZE +0 10000 0 03571
                 TRANSFER TO S30                                                    426  LM00446
 03570 TRA +0 02000 0 00033
                 END OF CONDITIONAL                                                 427  LM00447
                 NUMST=STACON.V.BNBCD.(FINDN.(COMPZ.(A1-3,I(3))))                   428  LM00448
 03571 CLA +0 50000 0 00117    03572 SUB +0 40200 0 00372    03573 STO +0 60100 0 07554    03574 TSX +0 07400 4 00002
 03575 TXH +3 00000 0 07554    03576 TXH +3 00000 0 61411    03577 STO +0 60100 0 07554    03600 TSX +0 07400 4 00007
 03601 TXH +3 00000 0 07554    03602 STO +0 60100 0 07554    03603 TSX +0 07400 4 00001    03604 TXH +3 00000 0 07554
 03605 STO +0 60100 0 07554    03606 CAL -0 50000 0 56122    03607 ORA -0 50100 0 07554    03610 SLW +0 60200 0 00341
      S602       THROUGH S602 , FOR A2=A1+1,1,OPCHK.(I(A2)).OR.A2.G.CCT             429  LM00449
 03611 CLA +0 50000 0 00117    03612 ADD +0 40000 0 00370    03613 STO +0 60100 0 00120    03614 TRA +0 02000 0 03620
 03615 CLA +0 50000 0 00120    03616 ADD +0 40000 0 00370    03617 STO +0 60100 0 00120    03620 CLA +0 50000 0 00120
 03621 SUB +0 40200 0 56121    03622 TZE +0 10000 0 03624    03623 TPL +0 12000 0 03634    03624 CLA +0 50000 0 00120
 03625 SUB +0 40200 0 03626    03626 TXH +3 00000 0 61414    03627 STA +0 62100 0 03631    03630 TSX +0 07400 4 00012
 03631 TXH +3 00000 0 00000    03632 TNZ -0 10000 0 03634    03633 TRA +0 02000 0 03615
                 WHENEVER A2.G.CCT.OR.I(A2).NE.$=$,TRANSFER TO S603                 430  LM00450
 03634 LXA +0 53400 1 00120    03635 CLA +0 50000 1 61414    03636 SUB +0 40200 0 00436    03637 TNZ -0 10000 0 03644
 03640 CLA +0 50000 0 00120    03641 SUB +0 40200 0 56121    03642 TZE +0 10000 0 03645    03643 TMI -0 12000 0 03645
 03644 TRA +0 02000 0 00050
      S604       THROUGH S604, FOR A3=A2+1,1,A3.G.CCT.OR.OPCHK.(I(A3))              431  LM00451
 03645 CLA +0 50000 0 00120    03646 ADD +0 40000 0 00370    03647 STO +0 60100 0 00121    03650 TRA +0 02000 0 03654
 03651 CLA +0 50000 0 00121    03652 ADD +0 40000 0 00370    03653 STO +0 60100 0 00121    03654 CLA +0 50000 0 00121
 03655 SUB +0 40200 0 03656    03656 TXH +3 00000 0 61414    03657 STA +0 62100 0 03661    03660 TSX +0 07400 4 00012
 03661 TXH +3 00000 0 00000    03662 TNZ -0 10000 0 03670    03663 CLA +0 50000 0 00121    03664 SUB +0 40200 0 56121
 03665 TZE +0 10000 0 03667    03666 TPL +0 12000 0 03670    03667 TRA +0 02000 0 03651
                 WHENEVER I(A3).NE.$,$, TRANSFER TO S30                             432  LM00452
 03670 LXA +0 53400 1 00121    03671 CLA +0 50000 1 61414    03672 SUB +0 40200 0 00563    03673 TZE +0 10000 0 03675
 03674 TRA +0 02000 0 00033
                 EXECUTE COMPZ.(A2-A1,I(A1),NUMSU)                                  433  LM00453
 03675 CLA +0 50000 0 00117    03676 SUB +0 40200 0 03677    03677 TXH +3 00000 0 61414    03700 STA +0 62100 0 03706
 03701 CLA +0 50000 0 00120    03702 SUB +0 40200 0 00117    03703 STO +0 60100 0 07554    03704 TSX +0 07400 4 00002
 03705 TXH +3 00000 0 07554    03706 TXH +3 00000 0 00000    03707 TXH +3 00000 0 00342
                 WHENEVER I(A1).E.$I$.OR.I(A1).LE.$J$.AND.I(A1).GE.$N$,EXECUTE      434  LM00454
                1FINDIN.(NUMSU)                                                     434  LM00455
 03710 LXA +0 53400 1 00117    03711 CLA +0 50000 1 61414    03712 SUB +0 40200 0 00512    03713 TZE +0 10000 0 03715
 03714 TMI -0 12000 0 03721    03715 CLA +0 50000 1 61414    03716 SUB +0 40200 0 00505    03717 TZE +0 10000 0 03725
 03720 TMI -0 12000 0 03725    03721 LXA +0 53400 1 00117    03722 CLA +0 50000 1 61414    03723 SUB +0 40200 0 00474
 03724 TNZ -0 10000 0 03727    03725 TSX +0 07400 4 00006    03726 TXH +3 00000 0 00342
                 EXECUTE COMPZ.(A3-A2-1,I(A2+1),NUMSV)                              435  LM00456
 03727 CLA +0 50000 0 00120    03730 ADD +0 40000 0 00370    03731 SUB +0 40200 0 03732    03732 TXH +3 00000 0 61414
 03733 STA +0 62100 0 03742    03734 CLA +0 50000 0 00121    03735 SUB +0 40200 0 00120    03736 SUB +0 40200 0 00370
 03737 STO +0 60100 0 07554    03740 TSX +0 07400 4 00002    03741 TXH +3 00000 0 07554    03742 TXH +3 00000 0 00000
 03743 TXH +3 00000 0 00343
                 WHENEVER I(A2+1).E.$I$.OR.I(A2+1).LE.$J$.AND.I(A2+1).GE.$N$,       436  LM00457
                1  EXECUTE FINDIN.(NUMSV)                                           436  LM00458
 03744 CLA +0 50000 0 00120    03745 ADD +0 40000 0 00370    03746 PAX +0 73400 1 00000    03747 CLA +0 50000 1 61414
 03750 SUB +0 40200 0 00512    03751 TZE +0 10000 0 03753    03752 TMI -0 12000 0 03762    03753 CLA +0 50000 0 00120
 03754 ADD +0 40000 0 00370    03755 PAX +0 73400 1 00000    03756 CLA +0 50000 1 61414    03757 SUB +0 40200 0 00505
 03760 TZE +0 10000 0 03770    03761 TMI -0 12000 0 03770    03762 CLA +0 50000 0 00120    03763 ADD +0 40000 0 00370
 03764 PAX +0 73400 1 00000    03765 CLA +0 50000 1 61414    03766 SUB +0 40200 0 00474    03767 TNZ -0 10000 0 03772
 03770 TSX +0 07400 4 00006    03771 TXH +3 00000 0 00343
      S605       THROUGH S605, FOR A1=A3+1,1,A1.G.CCT.OR.I(A1).E.$,$                437  LM00459
 03772 CLA +0 50000 0 00121    03773 ADD +0 40000 0 00370    03774 STO +0 60100 0 00117    03775 TRA +0 02000 0 04001
 03776 CLA +0 50000 0 00117    03777 ADD +0 40000 0 00370    04000 STO +0 60100 0 00117    04001 LXA +0 53400 1 00117
 04002 CLA +0 50000 1 61414    04003 SUB +0 40200 0 00563    04004 TZE +0 10000 0 04012    04005 CLA +0 50000 0 00117
 04006 SUB +0 40200 0 56121    04007 TZE +0 10000 0 04011    04010 TPL +0 12000 0 04012    04011 TRA +0 02000 0 03776
                 EXECUTE COMPZ.(A1-A3-1,I(A3+1),TEMP)                               438  LM00460
 04012 CLA +0 50000 0 00121    04013 ADD +0 40000 0 00370    04014 SUB +0 40200 0 04015    04015 TXH +3 00000 0 61414
 04016 STA +0 62100 0 04025    04017 CLA +0 50000 0 00117    04020 SUB +0 40200 0 00121    04021 SUB +0 40200 0 00370
 04022 STO +0 60100 0 07554    04023 TSX +0 07400 4 00002    04024 TXH +3 00000 0 07554    04025 TXH +3 00000 0 00000
 04026 TXH +3 00000 0 00362
                 WHENEVER I(A3+1).E.$I$.OR.I(A3+1).LE.$J$.AND.I(A3+1).GE.$N$,       439  LM00461
                1  EXECUTE FINDIN.(TEMP)                                            439  LM00462
 04027 CLA +0 50000 0 00121    04030 ADD +0 40000 0 00370    04031 PAX +0 73400 1 00000    04032 CLA +0 50000 1 61414
 04033 SUB +0 40200 0 00512    04034 TZE +0 10000 0 04036    04035 TMI -0 12000 0 04045    04036 CLA +0 50000 0 00121
 04037 ADD +0 40000 0 00370    04040 PAX +0 73400 1 00000    04041 CLA +0 50000 1 61414    04042 SUB +0 40200 0 00505
 04043 TZE +0 10000 0 04053    04044 TMI -0 12000 0 04053    04045 CLA +0 50000 0 00121    04046 ADD +0 40000 0 00370
 04047 PAX +0 73400 1 00000    04050 CLA +0 50000 1 61414    04051 SUB +0 40200 0 00474    04052 TNZ -0 10000 0 04055
 04053 TSX +0 07400 4 00006    04054 TXH +3 00000 0 00362
                 WHENEVER TEMP.E.RET,TEMP=RETN                                      440  LM00463
 04055 CLA +0 50000 0 00362    04056 SUB +0 40200 0 00346    04057 TNZ -0 10000 0 04062    04060 CLA +0 50000 0 00345
 04061 STO +0 60100 0 00362
                 WHENEVER NUMSU.E.RET,NUMSU=RETN                                    441  LM00464
 04062 CLA +0 50000 0 00342    04063 SUB +0 40200 0 00346    04064 TNZ -0 10000 0 04067    04065 CLA +0 50000 0 00345
 04066 STO +0 60100 0 00342
                 WHENEVER NUMSV.E.RET,NUMSV=RETN                                    442  LM00465
 04067 CLA +0 50000 0 00343    04070 SUB +0 40200 0 00346    04071 TNZ -0 10000 0 04074    04072 CLA +0 50000 0 00345
 04073 STO +0 60100 0 00343
                 WHENEVER NUMST.E.RET,NUMST=RETN                                    443  LM00466
 04074 CLA +0 50000 0 00341    04075 SUB +0 40200 0 00346    04076 TNZ -0 10000 0 04101    04077 CLA +0 50000 0 00345
 04100 STO +0 60100 0 00341
                 WHENEVER NUMSU.E.NUMSV                                             444  LM00467
 04101 CLA +0 50000 0 00342    04102 SUB +0 40200 0 00343    04103 TNZ -0 10000 0 04174
                 FLUBB=SW3                                                          445  LM00468
 04104 CLA +0 50000 0 56106    04105 STO +0 60100 0 00025
                 STATEMENT LABEL FLUBB                                              446  LM00469
                 SW3=XPYMZZ                                                         447  LM00470
 04106 CLA +0 50000 0 00115    04107 STO +0 60100 0 56106
                 GLAG=CCT                                                           448  LM00471
 04110 CLA +0 50000 0 56121    04111 STO +0 60100 0 00310
                 GLAGG=STACON.V.BNBCD.(FINDN.($*$))                                 449  LM00472
 04112 TSX +0 07400 4 00007    04113 TXH +3 00000 0 00531    04114 STO +0 60100 0 07554    04115 TSX +0 07400 4 00001
 04116 TXH +3 00000 0 07554    04117 STO +0 60100 0 07554    04120 CAL -0 50000 0 56122    04121 ORA -0 50100 0 07554
 04122 SLW +0 60200 0 00307
                 I(1)=GLAGG                                                         450  LM00473
 04123 CLA +0 50000 0 00307    04124 STO +0 60100 0 61413
                 I(2)=$=$                                                           451  LM00474
 04125 CLA +0 50000 0 00436    04126 STO +0 60100 0 61412
                 I(3)=NUMSV                                                         452  LM00475
 04127 CLA +0 50000 0 00343    04130 STO +0 60100 0 61411
                 CCT=3                                                              453  LM00476
 04131 CLA +0 50000 0 00372    04132 STO +0 60100 0 56121
                 WHOLE=1                                                            454  LM00477
 04133 CLA +0 50000 0 00370    04134 STO +0 60100 0 56120
                 TRANSFER TO S2                                                     455  LM00478
 04135 TRA +0 02000 0 00023
      XPYMZZ     NUMSV=GLAGG                                                        456  LM00479
 04136 CLA +0 50000 0 00307    04137 STO +0 60100 0 00343
                 WHENEVER I(A2+1).E.$I$.OR.I(A2+1).LE.$J$.AND.I(A2+1).GE.$N$,       457  LM00480
                1  EXECUTE FINDIN.(GLAGG)                                           457  LM00481
 04140 CLA +0 50000 0 00120    04141 ADD +0 40000 0 00370    04142 PAX +0 73400 1 00000    04143 CLA +0 50000 1 61414
 04144 SUB +0 40200 0 00512    04145 TZE +0 10000 0 04147    04146 TMI -0 12000 0 04156    04147 CLA +0 50000 0 00120
 04150 ADD +0 40000 0 00370    04151 PAX +0 73400 1 00000    04152 CLA +0 50000 1 61414    04153 SUB +0 40200 0 00505
 04154 TZE +0 10000 0 04164    04155 TMI -0 12000 0 04164    04156 CLA +0 50000 0 00120    04157 ADD +0 40000 0 00370
 04160 PAX +0 73400 1 00000    04161 CLA +0 50000 1 61414    04162 SUB +0 40200 0 00474    04163 TNZ -0 10000 0 04166
 04164 TSX +0 07400 4 00006    04165 TXH +3 00000 0 00307
                 SW3=FLUBB                                                          458  LM00482
 04166 CLA +0 50000 0 00025    04167 STO +0 60100 0 56106
                 STNO=$ $                                                           459  LM00483
 04170 CLA +0 50000 0 00540    04171 STO +0 60100 0 56124
                 CCT=GLAG                                                           460  LM00484
 04172 CLA +0 50000 0 00310    04173 STO +0 60100 0 56121
                 END OF CONDITIONAL                                                 461  LM00485
                 WHENEVER A1.G.CCT                                                  462  LM00486
 04174 CLA +0 50000 0 00117    04175 SUB +0 40200 0 56121    04176 TZE +0 10000 0 04213    04177 TMI -0 12000 0 04213
                 I(8)=$ ,1,$                                                        463  LM00487
 04200 CLA +0 50000 0 00543    04201 STO +0 60100 0 61404
                 I(9)=NUMSU                                                         464  LM00488
 04202 CLA +0 50000 0 00342    04203 STO +0 60100 0 61403
                 I(10)=$ .G.$                                                       465  LM00489
 04204 CLA +0 50000 0 00532    04205 STO +0 60100 0 61402
                 I(11)=TEMP                                                         466  LM00490
 04206 CLA +0 50000 0 00362    04207 STO +0 60100 0 61401
                 CCT=11                                                             467  LM00491
 04210 CLA +0 50000 0 00402    04211 STO +0 60100 0 56121
                 OTHERWISE                                                          468  LM00492
 04212 TRA +0 02000 0 04276
                 EXECUTE COMPZ.(CCT-A1  ,I(A1+1),I(9))                              469  LM00493
 04213 CLA +0 50000 0 00117    04214 ADD +0 40000 0 00370    04215 SUB +0 40200 0 04216    04216 TXH +3 00000 0 61414
 04217 STA +0 62100 0 04225    04220 CLA +0 50000 0 56121    04221 SUB +0 40200 0 00117    04222 STO +0 60100 0 07554
 04223 TSX +0 07400 4 00002    04224 TXH +3 00000 0 07554    04225 TXH +3 00000 0 00000    04226 TXH +3 00000 0 61403
                 WHENEVER I(9) .E.RET, I(9)=RETN                                    470  LM00494
 04227 CLA +0 50000 0 61403    04230 SUB +0 40200 0 00346    04231 TNZ -0 10000 0 04234    04232 CLA +0 50000 0 00345
 04233 STO +0 60100 0 61403
                 WHENEVER I(A1+1).E.$I$.OR.I(A1+1).LE.$J$.AND.I(A1+1).GE.$N$,       471  LM00495
                1 EXECUTE FINDIN.(I(9))                                             471  LM00496
 04234 CLA +0 50000 0 00117    04235 ADD +0 40000 0 00370    04236 PAX +0 73400 1 00000    04237 CLA +0 50000 1 61414
 04240 SUB +0 40200 0 00512    04241 TZE +0 10000 0 04243    04242 TMI -0 12000 0 04252    04243 CLA +0 50000 0 00117
 04244 ADD +0 40000 0 00370    04245 PAX +0 73400 1 00000    04246 CLA +0 50000 1 61414    04247 SUB +0 40200 0 00505
 04250 TZE +0 10000 0 04260    04251 TMI -0 12000 0 04260    04252 CLA +0 50000 0 00117    04253 ADD +0 40000 0 00370
 04254 PAX +0 73400 1 00000    04255 CLA +0 50000 1 61414    04256 SUB +0 40200 0 00474    04257 TNZ -0 10000 0 04262
 04260 TSX +0 07400 4 00006    04261 TXH +3 00000 0 61403
                 I(8)=$,$                                                           472  LM00497
 04262 CLA +0 50000 0 00563    04263 STO +0 60100 0 61404
                 I(10)=$,$                                                          473  LM00498
 04264 CLA +0 50000 0 00563    04265 STO +0 60100 0 61402
                 I(11)=NUMSU                                                        474  LM00499
 04266 CLA +0 50000 0 00342    04267 STO +0 60100 0 61401
                 I(12)=$ .G.$                                                       475  LM00500
 04270 CLA +0 50000 0 00532    04271 STO +0 60100 0 61400
                 I(13)=TEMP                                                         476  LM00501
 04272 CLA +0 50000 0 00362    04273 STO +0 60100 0 61377
                 CCT=13                                                             477  LM00502
 04274 CLA +0 50000 0 00404    04275 STO +0 60100 0 56121
                 END OF CONDITIONAL                                                 478  LM00503
                 I(1)=$THROUG$                                                      479  LM00504
 04276 CLA +0 50000 0 00550    04277 STO +0 60100 0 61413
                 I(2)=$H$                                                           480  LM00505
 04300 CLA +0 50000 0 00471    04301 STO +0 60100 0 61412
                 I(3)=NUMST                                                         481  LM00506
 04302 CLA +0 50000 0 00341    04303 STO +0 60100 0 61411
                 I(4)=$ ,FOR$                                                       482  LM00507
 04304 CLA +0 50000 0 00544    04305 STO +0 60100 0 61410
                 I(5)=NUMSU                                                         483  LM00508
 04306 CLA +0 50000 0 00342    04307 STO +0 60100 0 61407
                 I(6)=$  =$                                                         484  LM00509
 04310 CLA +0 50000 0 00536    04311 STO +0 60100 0 61406
                 I(7)=NUMSV                                                         485  LM00510
 04312 CLA +0 50000 0 00343    04313 STO +0 60100 0 61405
                 CCT=CCT+1                                                          486  LM00511
 04314 CLA +0 50000 0 56121    04315 ADD +0 40000 0 00370    04316 STO +0 60100 0 56121
                 I(CCT)=$.AND.$                                                     487  LM00512
 04317 LXA +0 53400 1 56121    04320 CLA +0 50000 0 00475    04321 STO +0 60100 1 61414
                 I(CCT+1)=NUMSU                                                     488  LM00513
 04322 CLA +0 50000 0 56121    04323 ADD +0 40000 0 00370    04324 PAX +0 73400 1 00000    04325 CLA +0 50000 0 00342
 04326 STO +0 60100 1 61414
                 I(CCT+2)=$.NE.$                                                    489  LM00514
 04327 CLA +0 50000 0 56121    04330 ADD +0 40000 0 00371    04331 PAX +0 73400 1 00000    04332 CLA +0 50000 0 00501
 04333 STO +0 60100 1 61414
                 I(CCT+3)=NUMSV                                                     490  LM00515
 04334 CLA +0 50000 0 56121    04335 ADD +0 40000 0 00372    04336 PAX +0 73400 1 00000    04337 CLA +0 50000 0 00343
 04340 STO +0 60100 1 61414
                 CCT=CCT+3                                                          491  LM00516
 04341 CLA +0 50000 0 56121    04342 ADD +0 40000 0 00372    04343 STO +0 60100 0 56121
                 WHOLE = 1                                                          492  LM00517
 04344 CLA +0 50000 0 00370    04345 STO +0 60100 0 56120
                 TRANSFER TO S2                                                     493  LM00518
 04346 TRA +0 02000 0 00023
      S(2)       WHENEVER I(7).E.$($.OR.I(7).E.$=$, TRANSFER TO S(3)                494  LM00522
 04347 CLA +0 50000 0 61405    04350 SUB +0 40200 0 00436    04351 TZE +0 10000 0 04355    04352 CLA +0 50000 0 61405
 04353 SUB +0 40200 0 00565    04354 TNZ -0 10000 0 04356    04355 TRA +0 02000 0 00110
      S57        THROUGH S57,FOR A1=7,1,I(A1).G.$9$.OR.I(A1).L.$0$.OR.A1.G.CCT      495  LM00523
 04356 CLA +0 50000 0 00376    04357 STO +0 60100 0 00117    04360 TRA +0 02000 0 04364    04361 CLA +0 50000 0 00117
 04362 ADD +0 40000 0 00370    04363 STO +0 60100 0 00117    04364 CLA +0 50000 0 00117    04365 SUB +0 40200 0 56121
 04366 TZE +0 10000 0 04370    04367 TPL +0 12000 0 04402    04370 LXA +0 53400 1 00117    04371 CLA +0 50000 1 61414
 04372 SUB +0 40200 0 00423    04373 TZE +0 10000 0 04375    04374 TMI -0 12000 0 04402    04375 CLA +0 50000 1 61414
 04376 SUB +0 40200 0 00435    04377 TZE +0 10000 0 04401    04400 TPL +0 12000 0 04402    04401 TRA +0 02000 0 04361
                 WHENEVER A1.G.CCT                                                  496  LM00524
 04402 CLA +0 50000 0 00117    04403 SUB +0 40200 0 56121    04404 TZE +0 10000 0 04411    04405 TMI -0 12000 0 04411
                 ERRO =10                                                           497  LM00525
 04406 CLA +0 50000 0 00401    04407 STO +0 60100 0 00302
                 TRANSFER TO S60                                                    498  LM00526
 04410 TRA +0 02000 0 00051
                 END OF CONDITIONAL                                                 499  LM00527
                 SW2=COMPZ.(CCT-A1-1,I(A1+2),I(1))                                  500  LM00528
 04411 CLA +0 50000 0 00117    04412 ADD +0 40000 0 00371    04413 SUB +0 40200 0 04414    04414 TXH +3 00000 0 61414
 04415 STA +0 62100 0 04424    04416 CLA +0 50000 0 56121    04417 SUB +0 40200 0 00117    04420 SUB +0 40200 0 00370
 04421 STO +0 60100 0 07554    04422 TSX +0 07400 4 00002    04423 TXH +3 00000 0 07554    04424 TXH +3 00000 0 00000
 04425 TXH +3 00000 0 61413    04426 STO +0 60100 0 00351
                 I(3)=STACON.V.BNBCD.(FINDN.(COMPZ.(A1-7,I(7))))                    501  LM00529
 04427 CLA +0 50000 0 00117    04430 SUB +0 40200 0 00376    04431 STO +0 60100 0 07554    04432 TSX +0 07400 4 00002
 04433 TXH +3 00000 0 07554    04434 TXH +3 00000 0 61405    04435 STO +0 60100 0 07554    04436 TSX +0 07400 4 00007
 04437 TXH +3 00000 0 07554    04440 STO +0 60100 0 07554    04441 TSX +0 07400 4 00001    04442 TXH +3 00000 0 07554
 04443 STO +0 60100 0 07554    04444 CAL -0 50000 0 56122    04445 ORA -0 50100 0 07554    04446 SLW +0 60200 0 61411
                 I(2)=$=$                                                           502  LM00530
 04447 CLA +0 50000 0 00436    04450 STO +0 60100 0 61412
                 WHOLE=1                                                            503  LM00531
 04451 CLA +0 50000 0 00370    04452 STO +0 60100 0 56120
                 CCT=3                                                              504  LM00532
 04453 CLA +0 50000 0 00372    04454 STO +0 60100 0 56121
                 SW3=S57A                                                           505  LM00533
 04455 CLA +0 50000 0 00042    04456 STO +0 60100 0 56106
                 TRANSFER TO S2                                                     506  LM00534
 04457 TRA +0 02000 0 00023
      S57A       I(4)=SW2                                                           507  LM00535
 04460 CLA +0 50000 0 00351    04461 STO +0 60100 0 61410
                 I(1)=$STATEM$                                                      508  LM00536
 04462 CLA +0 50000 0 00546    04463 STO +0 60100 0 61413
                 SW2=0                                                              509  LM00537
 04464 CLA +0 50000 0 00367    04465 STO +0 60100 0 00351
                 WHENEVER I(A1).E.$I$.OR.I(A1).GE.$N$.AND.I(A1).LE.$K$,SW2=1        510  LM00538
 04466 LXA +0 53400 1 00117    04467 CLA +0 50000 1 61414    04470 SUB +0 40200 0 00506    04471 TZE +0 10000 0 04473
 04472 TPL +0 12000 0 04477    04473 CLA +0 50000 1 61414    04474 SUB +0 40200 0 00512    04475 TZE +0 10000 0 04503
 04476 TPL +0 12000 0 04503    04477 LXA +0 53400 1 00117    04500 CLA +0 50000 1 61414    04501 SUB +0 40200 0 00474
 04502 TNZ -0 10000 0 04505    04503 CLA +0 50000 0 00370    04504 STO +0 60100 0 00351
                 I(2)=$ENT LA$                                                      511  LM00539
 04505 CLA +0 50000 0 00455    04506 STO +0 60100 0 61412
                 I(3)=$BEL$                                                         512  LM00540
 04507 CLA +0 50000 0 00445    04510 STO +0 60100 0 61411
                 SW3=S3                                                             513  LM00541
 04511 CLA +0 50000 0 00034    04512 STO +0 60100 0 56106
                 STNO=$ $                                                           514  LM00542
 04513 CLA +0 50000 0 00540    04514 STO +0 60100 0 56124
                 CCT=4                                                              515  LM00543
 04515 CLA +0 50000 0 00373    04516 STO +0 60100 0 56121
                 TRANSFER TO S45                                                    516  LM00544
 04517 TRA +0 02000 0 00023
      S(16)      THROUGH S(16), FOR A1=5,1,OPCHK.(I(A1)).OR.A1.G.CCT                517  LM00548
 04520 CLA +0 50000 0 00374    04521 STO +0 60100 0 00117    04522 TRA +0 02000 0 04526    04523 CLA +0 50000 0 00117
 04524 ADD +0 40000 0 00370    04525 STO +0 60100 0 00117    04526 CLA +0 50000 0 00117    04527 SUB +0 40200 0 56121
 04530 TZE +0 10000 0 04532    04531 TPL +0 12000 0 04542    04532 CLA +0 50000 0 00117    04533 SUB +0 40200 0 04534
 04534 TXH +3 00000 0 61414    04535 STA +0 62100 0 04537    04536 TSX +0 07400 4 00012    04537 TXH +3 00000 0 00000
 04540 TNZ -0 10000 0 04542    04541 TRA +0 02000 0 04523
                 I(CCT+1)=0                                                         518  LM00549
 04542 CLA +0 50000 0 56121    04543 ADD +0 40000 0 00370    04544 PAX +0 73400 1 00000    04545 CLA +0 50000 0 00367
 04546 STO +0 60100 1 61414
                 WHENEVER OPCHK.(I(A1)).AND.I(A1).NE.$($,TRANSFER TO S30            519  LM00550
 04547 LXA +0 53400 1 00117    04550 CLA +0 50000 1 61414    04551 SUB +0 40200 0 00565    04552 TZE +0 10000 0 04563
 04553 CLA +0 50000 0 00117    04554 SUB +0 40200 0 04555    04555 TXH +3 00000 0 61414    04556 STA +0 62100 0 04560
 04557 TSX +0 07400 4 00012    04560 TXH +3 00000 0 00000    04561 TZE +0 10000 0 04563    04562 TRA +0 02000 0 00033
                 A3=A1                                                              520  LM00551
 04563 CLA +0 50000 0 00117    04564 STO +0 60100 0 00121
      S23B       THROUGH S23B, FOR A2=A1,1,OPCHK.(I(A2)).OR.A2.G.CCT                521  LM00552
                1 .OR.I(A2).E.$H$                                                   521  LM00553
 04565 CLA +0 50000 0 00117    04566 STO +0 60100 0 00120    04567 TRA +0 02000 0 04573    04570 CLA +0 50000 0 00120
 04571 ADD +0 40000 0 00370    04572 STO +0 60100 0 00120    04573 LXA +0 53400 1 00120    04574 CLA +0 50000 1 61414
 04575 SUB +0 40200 0 00471    04576 TZE +0 10000 0 04613    04577 CLA +0 50000 0 00120    04600 SUB +0 40200 0 56121
 04601 TZE +0 10000 0 04603    04602 TPL +0 12000 0 04613    04603 CLA +0 50000 0 00120    04604 SUB +0 40200 0 04605
 04605 TXH +3 00000 0 61414    04606 STA +0 62100 0 04610    04607 TSX +0 07400 4 00012    04610 TXH +3 00000 0 00000
 04611 TNZ -0 10000 0 04613    04612 TRA +0 02000 0 04570
                 WHENEVER A2.G.CCT,TRANSFER TO S23C                                 522  LM00554
 04613 CLA +0 50000 0 00120    04614 SUB +0 40200 0 56121    04615 TZE +0 10000 0 04620    04616 TMI -0 12000 0 04620
 04617 TRA +0 02000 0 00027
                 WHENEVER I(A2).E.$H$                                               523  LM00555
 04620 LXA +0 53400 1 00120    04621 CLA +0 50000 1 61414    04622 SUB +0 40200 0 00471    04623 TNZ -0 10000 0 04717
      SSSAA      THROUGH SSSAA,FOR A6942=A2-1,-1,I(A6942).L.$0$.OR.                 524  LM00556
                1  I(A6942).G.$9$.OR.A6942.LE.A1                                    524  LM00557
 04624 CLA +0 50000 0 00120    04625 SUB +0 40200 0 00370    04626 STO +0 60100 0 00124    04627 TRA +0 02000 0 04633
 04630 CLS +0 50200 0 00370    04631 ADD +0 40000 0 00124    04632 STO +0 60100 0 00124    04633 CLA +0 50000 0 00124
 04634 SUB +0 40200 0 00117    04635 TZE +0 10000 0 04651    04636 TMI -0 12000 0 04651    04637 LXA +0 53400 1 00124
 04640 CLA +0 50000 1 61414    04641 SUB +0 40200 0 00435    04642 TZE +0 10000 0 04644    04643 TPL +0 12000 0 04651
 04644 CLA +0 50000 1 61414    04645 SUB +0 40200 0 00423    04646 TZE +0 10000 0 04650    04647 TMI -0 12000 0 04651
 04650 TRA +0 02000 0 04630
                 WHENEVER .NOT.A6942.LE.A1.AND..NOT.OPCHK.(I(A6942))                525  LM00558
                1  .OR.A6942.E.A2-1,TRANSFER TO SSSAAA                              525  LM00559
 04651 CLA +0 50000 0 00120    04652 SUB +0 40200 0 00370    04653 CHS +0 76000 0 00002    04654 ADD +0 40000 0 00124
 04655 TZE +0 10000 0 04672    04656 CLA +0 50000 0 00124    04657 SUB +0 40200 0 04660    04660 TXH +3 00000 0 61414
 04661 STA +0 62100 0 04663    04662 TSX +0 07400 4 00012    04663 TXH +3 00000 0 00000    04664 TNZ -0 10000 0 04671
 04665 CLA +0 50000 0 00124    04666 SUB +0 40200 0 00117    04667 TZE +0 10000 0 04671    04670 TPL +0 12000 0 04672
 04671 TRA +0 02000 0 04673    04672 TRA +0 02000 0 00114
                 SKORK=BCDBN.(ZCOMPZ.(A2-A6942,I(A6942),SKORK))                     526  LM00560
 04673 CLA +0 50000 0 00124    04674 SUB +0 40200 0 04675    04675 TXH +3 00000 0 61414    04676 STA +0 62100 0 04704
 04677 CLA +0 50000 0 00120    04700 SUB +0 40200 0 00124    04701 STO +0 60100 0 07554    04702 TSX +0 07400 4 00014
 04703 TXH +3 00000 0 07554    04704 TXH +3 00000 0 00000    04705 TXH +3 00000 0 00347    04706 STO +0 60100 0 07554
 04707 TSX +0 07400 4 00000    04710 TXH +3 00000 0 07554    04711 STO +0 60100 0 00347
                 A1=A2+SKORK+1                                                      527  LM00561
 04712 CLA +0 50000 0 00120    04713 ADD +0 40000 0 00347    04714 ADD +0 40000 0 00370    04715 STO +0 60100 0 00117
                 TRANSFER TO S23B                                                   528  LM00562
 04716 TRA +0 02000 0 00026
                 END OF CONDITIONAL                                                 529  LM00563
                 WHENEVER I(A2).E.$=$,TRANSFER TO S30                               530  LM00564
 04717 LXA +0 53400 1 00120    04720 CLA +0 50000 1 61414    04721 SUB +0 40200 0 00436    04722 TNZ -0 10000 0 04724
 04723 TRA +0 02000 0 00033
      SSSAAA     A1=A2+1                                                            531  LM00565
 04724 CLA +0 50000 0 00120    04725 ADD +0 40000 0 00370    04726 STO +0 60100 0 00117
                 TRANSFER TO S23B                                                   532  LM00566
 04727 TRA +0 02000 0 00026
      S23C       I(1)=$EXECUT$                                                      533  LM00567
 04730 CLA +0 50000 0 00462    04731 STO +0 60100 0 61413
                 I(2)=$E$                                                           534  LM00568
 04732 CLA +0 50000 0 00461    04733 STO +0 60100 0 61412
                 I(A3)=$ .($                                                        535  LM00569
 04734 LXA +0 53400 1 00121    04735 CLA +0 50000 0 00534    04736 STO +0 60100 1 61414
                 OUT(5)=A3                                                          536  LM00570
 04737 CLA +0 50000 0 00121    04740 STO +0 60100 0 57167
                 EXECUTE FNCTFN.(COMPZ.(A3-5,I(5),I),S602)                          537  LM00571
 04741 CLA +0 50000 0 00121    04742 SUB +0 40200 0 00374    04743 STO +0 60100 0 07554    04744 TSX +0 07400 4 00002
 04745 TXH +3 00000 0 07554    04746 TXH +3 00000 0 61407    04747 TXH +3 00000 0 61414    04750 STO +0 60100 0 07554
 04751 TSX +0 07400 4 00010    04752 TXH +3 00000 0 07554    04753 TXH +3 00000 0 00047
                 WHENEVER I(5).E.$I$.OR.I(5).GE.$N$.AND.I(5).LE.$J$                 538  LM00572
                1,EXECUTE FINDIN.(I,S603)                                           538  LM00573
 04754 CLA +0 50000 0 61407    04755 SUB +0 40200 0 00505    04756 TZE +0 10000 0 04760    04757 TPL +0 12000 0 04764
 04760 CLA +0 50000 0 61407    04761 SUB +0 40200 0 00512    04762 TZE +0 10000 0 04767    04763 TPL +0 12000 0 04767
 04764 CLA +0 50000 0 61407    04765 SUB +0 40200 0 00474    04766 TNZ -0 10000 0 04772    04767 TSX +0 07400 4 00006
 04770 TXH +3 00000 0 61414    04771 TXH +3 00000 0 00050
                 WHENEVER A3.G.CCT                                                  539  LM00574
 04772 CLA +0 50000 0 00121    04773 SUB +0 40200 0 56121    04774 TZE +0 10000 0 05016    04775 TMI -0 12000 0 05016
                 OUT=5                                                              540  LM00575
 04776 CLA +0 50000 0 00374    04777 STO +0 60100 0 57174
                 I(A1+1)=$0$                                                        541  LM00576
 05000 CLA +0 50000 0 00117    05001 ADD +0 40000 0 00370    05002 PAX +0 73400 1 00000    05003 CLA +0 50000 0 00423
 05004 STO +0 60100 1 61414
                 I(A1+2)=$)$                                                        542  LM00577
 05005 CLA +0 50000 0 00117    05006 ADD +0 40000 0 00371    05007 PAX +0 73400 1 00000    05010 CLA +0 50000 0 00503
 05011 STO +0 60100 1 61414
                 CCT=A1+2                                                           543  LM00578
 05012 CLA +0 50000 0 00117    05013 ADD +0 40000 0 00371    05014 STO +0 60100 0 56121
                 OTHERWISE                                                          544  LM00579
 05015 TRA +0 02000 0 05034
                 OUT=6                                                              545  LM00580
 05016 CLA +0 50000 0 00375    05017 STO +0 60100 0 57174
                 ENTER =A3+1                                                        546  LM00581
 05020 CLA +0 50000 0 00121    05021 ADD +0 40000 0 00370    05022 STO +0 60100 0 00301
                 EXTT=CCT-1                                                         547  LM00582
 05023 CLA +0 50000 0 56121    05024 SUB +0 40200 0 00370    05025 STO +0 60100 0 00303
                 STOUT=S23D                                                         548  LM00583
 05026 CLA +0 50000 0 00030    05027 STO +0 60100 0 00024
                 EXECUTE LEVIN.                                                     549  LM00584
 05030 TSX +0 07400 4 00017
                 EXECUTE LUP.                                                       550  LM00585
 05031 TSX +0 07400 4 00020
                 EXECUTE SETL.                                                      551  LM00586
 05032 TSX +0 07400 4 00021
                 TRANSFER TO S30A                                                   552  LM00587
 05033 TRA +0 02000 0 00032
                 END OF CONDITIONAL                                                 553  LM00588
      S23D       OUT(1)=1                                                           554  LM00589
 05034 CLA +0 50000 0 00370    05035 STO +0 60100 0 57173
                 OUT(2)=2                                                           555  LM00590
 05036 CLA +0 50000 0 00371    05037 STO +0 60100 0 57172
                 OUT(3)=-3                                                          556  LM00591
 05040 CLS +0 50200 0 00372    05041 STO +0 60100 0 57171
                 OUT(4)=-4                                                          557  LM00592
 05042 CLS +0 50200 0 00373    05043 STO +0 60100 0 57170
                 OUT(OUT+1)=700                                                     558  LM00593
 05044 CLA +0 50000 0 57174    05045 ADD +0 40000 0 00370    05046 PAX +0 73400 1 00000    05047 CLA +0 50000 0 00414
 05050 STO +0 60100 1 57174
                 TRANSFER TO S2                                                     559  LM00594
 05051 TRA +0 02000 0 00023
      S(4)       WHENEVER I(1).E.$S$                                                560  LM00598
 05052 CLA +0 50000 0 61413    05053 SUB +0 40200 0 00545    05054 TNZ -0 10000 0 05060
                 SW1=11                                                             561  LM00599
 05055 CLA +0 50000 0 00402    05056 STO +0 60100 0 00350
                 OTHERWISE                                                          562  LM00600
 05057 TRA +0 02000 0 05062
                 SW1=9                                                              563  LM00601
 05060 CLA +0 50000 0 00400    05061 STO +0 60100 0 00350
                 END OF CONDITIONAL                                                 564  LM00602
      S58        THROUGH S58,FOR A1=SW1,1,I(A1).E.$($.OR.A1.G.CCT                   565  LM00603
 05062 CLA +0 50000 0 00350    05063 STO +0 60100 0 00117    05064 TRA +0 02000 0 05070    05065 CLA +0 50000 0 00117
 05066 ADD +0 40000 0 00370    05067 STO +0 60100 0 00117    05070 CLA +0 50000 0 00117    05071 SUB +0 40200 0 56121
 05072 TZE +0 10000 0 05074    05073 TPL +0 12000 0 05101    05074 LXA +0 53400 1 00117    05075 CLA +0 50000 1 61414
 05076 SUB +0 40200 0 00565    05077 TZE +0 10000 0 05101    05100 TRA +0 02000 0 05065
                 WHENEVER A1.G.CCT                                                  566  LM00604
 05101 CLA +0 50000 0 00117    05102 SUB +0 40200 0 56121    05103 TZE +0 10000 0 05111    05104 TMI -0 12000 0 05111
                 TRANSFER  TO S582                                                  567  LM00605
 05105 TRA +0 02000 0 00045
      S581       ERRO=4                                                             568  LM00606
 05106 CLA +0 50000 0 00373    05107 STO +0 60100 0 00302
                 TRANSFER TO S60                                                    569  LM00607
 05110 TRA +0 02000 0 00051
                 END OF CONDITIONAL                                                 570  LM00608
                 A3=A1+1                                                            571  LM00609
 05111 CLA +0 50000 0 00117    05112 ADD +0 40000 0 00370    05113 STO +0 60100 0 00121
      S580       THROUGH S580, FOR A2=A3,1,I(A2).E.$,$.OR.I(A2).E.$)$.OR.A2.G.      572  LM00610
                1  CCT                                                              572  LM00611
 05114 CLA +0 50000 0 00121    05115 STO +0 60100 0 00120    05116 TRA +0 02000 0 05122    05117 CLA +0 50000 0 00120
 05120 ADD +0 40000 0 00370    05121 STO +0 60100 0 00120    05122 CLA +0 50000 0 00120    05123 SUB +0 40200 0 56121
 05124 TZE +0 10000 0 05126    05125 TPL +0 12000 0 05136    05126 LXA +0 53400 1 00120    05127 CLA +0 50000 1 61414
 05130 SUB +0 40200 0 00503    05131 TZE +0 10000 0 05136    05132 CLA +0 50000 1 61414    05133 SUB +0 40200 0 00563
 05134 TZE +0 10000 0 05136    05135 TRA +0 02000 0 05117
                 WHENEVER A2.G.CCT,TRANSFER TO S581                                 573  LM00612
 05136 CLA +0 50000 0 00120    05137 SUB +0 40200 0 56121    05140 TZE +0 10000 0 05143    05141 TMI -0 12000 0 05143
 05142 TRA +0 02000 0 00044
                 ARRG=ARRG+1                                                        574  LM00613
 05143 CLA +0 50000 0 56207    05144 ADD +0 40000 0 00370    05145 STO +0 60100 0 56207
                 WHENEVER ARRG.G.50,TRANSFER TO S581                                575  LM00614
 05146 CLA +0 50000 0 56207    05147 SUB +0 40200 0 00412    05150 TZE +0 10000 0 05153    05151 TMI -0 12000 0 05153
 05152 TRA +0 02000 0 00044
                 EXECUTE COMPZ.(A2-A3,I(A3),ARRG(ARRG))                             576  LM00615
 05153 CLA +0 50000 0 56207    05154 SUB +0 40200 0 05155    05155 TXH +3 00000 0 56207    05156 STA +0 62100 0 05171
 05157 CLA +0 50000 0 00121    05160 SUB +0 40200 0 05161    05161 TXH +3 00000 0 61414    05162 STA +0 62100 0 05170
 05163 CLA +0 50000 0 00120    05164 SUB +0 40200 0 00121    05165 STO +0 60100 0 07554    05166 TSX +0 07400 4 00002
 05167 TXH +3 00000 0 07554    05170 TXH +3 00000 0 00000    05171 TXH +3 00000 0 00000
                 A3=A2+1                                                            577  LM00616
 05172 CLA +0 50000 0 00120    05173 ADD +0 40000 0 00370    05174 STO +0 60100 0 00121
                 WHENEVER I(A2).NE.$)$,TRANSFER TO S580                             578  LM00617
 05175 LXA +0 53400 1 00120    05176 CLA +0 50000 1 61414    05177 SUB +0 40200 0 00503    05200 TZE +0 10000 0 05202
 05201 TRA +0 02000 0 00043
      S582       EXECUTE COMPZ.(A1-SW1,I(SW1),RET)                                  579  LM00618
 05202 CLA +0 50000 0 00350    05203 SUB +0 40200 0 05204    05204 TXH +3 00000 0 61414    05205 STA +0 62100 0 05213
 05206 CLA +0 50000 0 00117    05207 SUB +0 40200 0 00350    05210 STO +0 60100 0 07554    05211 TSX +0 07400 4 00002
 05212 TXH +3 00000 0 07554    05213 TXH +3 00000 0 00000    05214 TXH +3 00000 0 00346
                 SUB=I(1)                                                           580  LM00619
 05215 CLA +0 50000 0 61413    05216 STO +0 60100 0 56107
                 I(1)=$EXTERN$                                                      581  LM00620
 05217 CLA +0 50000 0 00463    05220 STO +0 60100 0 61413
                 I(2)=$AL FUN$                                                      582  LM00621
 05221 CLA +0 50000 0 00442    05222 STO +0 60100 0 61412
                 I(3)=$CTION$                                                       583  LM00622
 05223 CLA +0 50000 0 00451    05224 STO +0 60100 0 61411
                 OUT(1)=1                                                           584  LM00623
 05225 CLA +0 50000 0 00370    05226 STO +0 60100 0 57173
                 OUT(2)=2                                                           585  LM00624
 05227 CLA +0 50000 0 00371    05230 STO +0 60100 0 57172
                 OUT(3)=3                                                           586  LM00625
 05231 CLA +0 50000 0 00372    05232 STO +0 60100 0 57171
                 THROUGH S59,FOR A2=4,1,A2.E.A1                                     587  LM00626
 05233 CLA +0 50000 0 00373    05234 STO +0 60100 0 00120    05235 TRA +0 02000 0 05241    05236 CLA +0 50000 0 00120
 05237 ADD +0 40000 0 00370    05240 STO +0 60100 0 00120    05241 CLA +0 50000 0 00120    05242 SUB +0 40200 0 00117
 05243 TZE +0 10000 0 05250
      S59        OUT(A2)=-A2                                                        588  LM00627
 05244 CLS +0 50200 0 00120    05245 LXA +0 53400 1 00120    05246 STO +0 60100 1 57174    05247 TRA +0 02000 0 05236
                 OUT(A2)=700                                                        589  LM00628
 05250 LXA +0 53400 1 00120    05251 CLA +0 50000 0 00414    05252 STO +0 60100 1 57174
                 SW3=S61                                                            590  LM00629
 05253 CLA +0 50000 0 00052    05254 STO +0 60100 0 56106
                 TRANSFER TO S2                                                     591  LM00630
 05255 TRA +0 02000 0 00023
      S61        I(1)=$ENTRY $                                                      592  LM00631
 05256 CLA +0 50000 0 00454    05257 STO +0 60100 0 61413
                 I(2)=$TO$                                                          593  LM00632
 05260 CLA +0 50000 0 00551    05261 STO +0 60100 0 61412
                  I(3)=RET                                                          594  LM00633
 05262 CLA +0 50000 0 00346    05263 STO +0 60100 0 61411
                 I(4)=$.$                                                           595  LM00634
 05264 CLA +0 50000 0 00502    05265 STO +0 60100 0 61410
                 RETN=STACON.V.FINDN.(RET)                                          596  LM00635
 05266 TSX +0 07400 4 00007    05267 TXH +3 00000 0 00346    05270 STO +0 60100 0 07554    05271 CAL -0 50000 0 56122
 05272 ORA -0 50100 0 07554    05273 SLW +0 60200 0 00345
                 WHENEVER I(SW1).E.$I$.OR.I(SW1).GE.$N$.AND.I(SW1).LE.              597  LM00636
                1$J$.OR.I(SW1).E.$X$,EXECUTE FINDIN.(RETN)                          597  LM00637
 05274 LXA +0 53400 1 00350    05275 CLA +0 50000 1 61414    05276 SUB +0 40200 0 00562    05277 TZE +0 10000 0 05314
 05300 CLA +0 50000 1 61414    05301 SUB +0 40200 0 00505    05302 TZE +0 10000 0 05304    05303 TPL +0 12000 0 05310
 05304 CLA +0 50000 1 61414    05305 SUB +0 40200 0 00512    05306 TZE +0 10000 0 05314    05307 TPL +0 12000 0 05314
 05310 LXA +0 53400 1 00350    05311 CLA +0 50000 1 61414    05312 SUB +0 40200 0 00474    05313 TNZ -0 10000 0 05316
 05314 TSX +0 07400 4 00006    05315 TXH +3 00000 0 00345
                 CCT=4                                                              598  LM00638
 05316 CLA +0 50000 0 00373    05317 STO +0 60100 0 56121
                 WHOLE=1                                                            599  LM00639
 05320 CLA +0 50000 0 00370    05321 STO +0 60100 0 56120
                 OUT=(700)                                                          600  LM00640
 05322 CLA +0 50000 0 00414    05323 STO +0 60100 0 57174
                 SW3=S3                                                             601  LM00641
 05324 CLA +0 50000 0 00034    05325 STO +0 60100 0 56106
                 STNO=$ $                                                           602  LM00642
 05326 CLA +0 50000 0 00540    05327 STO +0 60100 0 56124
                 TRANSFER TO S45                                                    603  LM00643
 05330 TRA +0 02000 0 00023
      S(7)       WHENEVER CCT.G.6,TRANSFER TO S30                                   604  LM00647
 05331 CLA +0 50000 0 56121    05332 SUB +0 40200 0 00375    05333 TZE +0 10000 0 05336    05334 TMI -0 12000 0 05336
 05335 TRA +0 02000 0 00033
                 I(1)=$FUNCTI$                                                      605  LM00648
 05336 CLA +0 50000 0 00470    05337 STO +0 60100 0 61413
                 I(2)=$ON RET$                                                      606  LM00649
 05340 CLA +0 50000 0 00513    05341 STO +0 60100 0 61412
                 I(3)=$URN$                                                         607  LM00650
 05342 CLA +0 50000 0 00554    05343 STO +0 60100 0 61411
                 OUT(1)=1                                                           608  LM00651
 05344 CLA +0 50000 0 00370    05345 STO +0 60100 0 57173
                 OUT(2)=2                                                           609  LM00652
 05346 CLA +0 50000 0 00371    05347 STO +0 60100 0 57172
                 OUT(3)=3                                                           610  LM00653
 05350 CLA +0 50000 0 00372    05351 STO +0 60100 0 57171
                 WHENEVER SUB .E. $S$                                               611  LM00654
 05352 CLA +0 50000 0 56107    05353 SUB +0 40200 0 00545    05354 TNZ -0 10000 0 05362
                 OUT(4)=700                                                         612  LM00655
 05355 CLA +0 50000 0 00414    05356 STO +0 60100 0 57170
                 CCT=3                                                              613  LM00656
 05357 CLA +0 50000 0 00372    05360 STO +0 60100 0 56121
                 OTHERWISE                                                          614  LM00657
 05361 TRA +0 02000 0 05372
                 CCT=4                                                              615  LM00658
 05362 CLA +0 50000 0 00373    05363 STO +0 60100 0 56121
                 OUT(4)=4                                                           616  LM00659
 05364 CLA +0 50000 0 00373    05365 STO +0 60100 0 57170
                 OUT(5)=700                                                         617  LM00660
 05366 CLA +0 50000 0 00414    05367 STO +0 60100 0 57167
                 I(4)=RETN                                                          618  LM00661
 05370 CLA +0 50000 0 00345    05371 STO +0 60100 0 61410
                 END OF CONDITIONAL                                                 619  LM00662
                 RET=$0$                                                            620  LM00663
 05372 CLA +0 50000 0 00423    05373 STO +0 60100 0 00346
                 TRANSFER TO S2                                                     621  LM00664
 05374 TRA +0 02000 0 00023
                 ENTRY TO SUBST.                                                    622  LM00668
 05375 TRA +0 02000 0 05400    05376 SXA +0 63400 2 07543    05377 TSX +0 07400 2 07543
      S(3)       STOUT =S2                                                          623  LM00669
 05400 CLA +0 50000 0 00023    05401 STO +0 60100 0 00024
                 ENTER =1                                                           624  LM00670
 05402 CLA +0 50000 0 00370    05403 STO +0 60100 0 00301
                 EXTT =CCT                                                          625  LM00671
 05404 CLA +0 50000 0 56121    05405 STO +0 60100 0 00303
                 EXECUTE LEVIN.                                                     626  LM00672
 05406 TSX +0 07400 4 00017
                 OUT=1                                                              627  LM00673
 05407 CLA +0 50000 0 00370    05410 STO +0 60100 0 57174
      S30A       A4=ENTER                                                           628  LM00674
 05411 CLA +0 50000 0 00301    05412 STO +0 60100 0 00122
                 FUN=0                                                              629  LM00675
 05413 CLA +0 50000 0 00367    05414 STO +0 60100 0 00306
                 ARG=0                                                              630  LM00676
 05415 CLA +0 50000 0 00367    05416 STO +0 60100 0 00275
                 XFN=0                                                              631  LM00677
 05417 CLA +0 50000 0 00367    05420 STO +0 60100 0 00365
                 FFZAG=0B                                                           632  LM00678
 05421 CLA +0 50000 0 00367    05422 STO +0 60100 0 00304
                 THRZAG=0B                                                          633  LM00679
 05423 CLA +0 50000 0 00367    05424 STO +0 60100 0 00364
                 BOOLEAN FFZAG,THRZAG                                               634  LM00680
                 THROUGH S92, FOR A3=ENTER,1,A3.G.EXTT                              635  LM00681
 05425 CLA +0 50000 0 00301    05426 STO +0 60100 0 00121    05427 TRA +0 02000 0 05433    05430 CLA +0 50000 0 00121
 05431 ADD +0 40000 0 00370    05432 STO +0 60100 0 00121    05433 CLA +0 50000 0 00121    05434 SUB +0 40200 0 00303
 05435 TZE +0 10000 0 05437    05436 TPL +0 12000 0 07243
                 FFZAG=0B                                                           636  LM00682
 05437 CLA +0 50000 0 00367    05440 STO +0 60100 0 00304
                 THRZAG=0B                                                          637  LM00683
 05441 CLA +0 50000 0 00367    05442 STO +0 60100 0 00364
                 WHENEVER I(A3).GE.$0$.AND.I(A3).LE.$9$ .OR.OPCHK.(I(A3))           638  LM00684
                1.OR.(I(A3).E.$E$.OR.I(A3).E.$H$).AND.(I(A4-1).E.$.$.OR.I(A4-1      638  LM00685
                2).GE.$0$.AND.I(A4-1).LE.$9$).AND.A4.NE.ENTER                       638  LM00686
 05443 CLA +0 50000 0 00122    05444 SUB +0 40200 0 00301    05445 TZE +0 10000 0 05502    05446 CLA +0 50000 0 00122
 05447 SUB +0 40200 0 00370    05450 PAX +0 73400 1 00000    05451 CLA +0 50000 1 61414    05452 SUB +0 40200 0 00435
 05453 TZE +0 10000 0 05455    05454 TPL +0 12000 0 05464    05455 CLA +0 50000 0 00122    05456 SUB +0 40200 0 00370
 05457 PAX +0 73400 1 00000    05460 CLA +0 50000 1 61414    05461 SUB +0 40200 0 00423    05462 TZE +0 10000 0 05472
 05463 TPL +0 12000 0 05472    05464 CLA +0 50000 0 00122    05465 SUB +0 40200 0 00370    05466 PAX +0 73400 1 00000
 05467 CLA +0 50000 1 61414    05470 SUB +0 40200 0 00502    05471 TNZ -0 10000 0 05502    05472 LXA +0 53400 1 00121
 05473 CLA +0 50000 1 61414    05474 SUB +0 40200 0 00471    05475 TZE +0 10000 0 05501    05476 CLA +0 50000 1 61414
 05477 SUB +0 40200 0 00461    05500 TNZ -0 10000 0 05502    05501 TRA +0 02000 0 05523    05502 CLA +0 50000 0 00121
 05503 SUB +0 40200 0 05504    05504 TXH +3 00000 0 61414    05505 STA +0 62100 0 05507    05506 TSX +0 07400 4 00012
 05507 TXH +3 00000 0 00000    05510 TNZ -0 10000 0 05523    05511 LXA +0 53400 1 00121    05512 CLA +0 50000 1 61414
 05513 SUB +0 40200 0 00435    05514 TZE +0 10000 0 05516    05515 TPL +0 12000 0 05522    05516 CLA +0 50000 1 61414
 05517 SUB +0 40200 0 00423    05520 TZE +0 10000 0 05523    05521 TPL +0 12000 0 05523    05522 TRA +0 02000 0 06074
                 I(A4)=I(A3)                                                        639  LM00687
 05523 LXA +0 53400 1 00122    05524 LXA +0 53400 2 00121    05525 CLA +0 50000 2 61414    05526 STO +0 60100 1 61414
                 WHENEVER I(A4).E.$)$,EXECUTE LDN.                                  640  LM00688
 05527 CLA +0 50000 1 61414    05530 SUB +0 40200 0 00503    05531 TNZ -0 10000 0 05533    05532 TSX +0 07400 4 00016
                 WHENEVER I(A4).E.$($,EXECUTE LUP.                                  641  LM00689
 05533 LXA +0 53400 1 00122    05534 CLA +0 50000 1 61414    05535 SUB +0 40200 0 00565    05536 TNZ -0 10000 0 05540
 05537 TSX +0 07400 4 00020
                 A4=A4+1                                                            642  LM00690
 05540 CLA +0 50000 0 00122    05541 ADD +0 40000 0 00370    05542 STO +0 60100 0 00122
                 WHENEVER I(A3).E.$=$.AND.FUN.E.1                                   643  LM00691
 05543 CLA +0 50000 0 00306    05544 SUB +0 40200 0 00370    05545 TNZ -0 10000 0 05555    05546 LXA +0 53400 1 00121
 05547 CLA +0 50000 1 61414    05550 SUB +0 40200 0 00436    05551 TNZ -0 10000 0 05555
                 FUN=2                                                              644  LM00692
 05552 CLA +0 50000 0 00371    05553 STO +0 60100 0 00306
                 OR WHENEVER I(A3).E.$H$                                            645  LM00693
 05554 TRA +0 02000 0 06073    05555 LXA +0 53400 1 00121    05556 CLA +0 50000 1 61414    05557 SUB +0 40200 0 00471
 05560 TNZ -0 10000 0 06042
      S30D       THROUGH S30D, FOR CT=A4-2,-1,I(CT).L.$0$.OR.I(CT).G.$9$.OR.CT      646  LM00694
                1.L.ENTER                                                           646  LM00695
 05561 CLA +0 50000 0 00122    05562 SUB +0 40200 0 00371    05563 STO +0 60100 0 00277    05564 TRA +0 02000 0 05570
 05565 CLS +0 50200 0 00370    05566 ADD +0 40000 0 00277    05567 STO +0 60100 0 00277    05570 CLA +0 50000 0 00277
 05571 SUB +0 40200 0 00301    05572 TZE +0 10000 0 05574    05573 TMI -0 12000 0 05606    05574 LXA +0 53400 1 00277
 05575 CLA +0 50000 1 61414    05576 SUB +0 40200 0 00435    05577 TZE +0 10000 0 05601    05600 TPL +0 12000 0 05606
 05601 CLA +0 50000 1 61414    05602 SUB +0 40200 0 00423    05603 TZE +0 10000 0 05605    05604 TMI -0 12000 0 05606
 05605 TRA +0 02000 0 05565
                 TEST=BCDBN.(ZCOMPZ.(A4-CT-2,I(CT+1),TEST))                         647  LM00696
 05606 CLA +0 50000 0 00277    05607 ADD +0 40000 0 00370    05610 SUB +0 40200 0 05611    05611 TXH +3 00000 0 61414
 05612 STA +0 62100 0 05621    05613 CLA +0 50000 0 00122    05614 SUB +0 40200 0 00277    05615 SUB +0 40200 0 00371
 05616 STO +0 60100 0 07554    05617 TSX +0 07400 4 00014    05620 TXH +3 00000 0 07554    05621 TXH +3 00000 0 00000
 05622 TXH +3 00000 0 00363    05623 STO +0 60100 0 07554    05624 TSX +0 07400 4 00000    05625 TXH +3 00000 0 07554
 05626 STO +0 60100 0 00363
                 EXECUTE FINDN.($*$)                                                648  LM00697
 05627 TSX +0 07400 4 00007    05630 TXH +3 00000 0 00531
                 HOL(HOL+1)=FINDN.($*$)                                             649  LM00698
 05631 TSX +0 07400 4 00007    05632 TXH +3 00000 0 00531    05633 STO +0 60100 0 07554    05634 CLA +0 50000 0 60161
 05635 ADD +0 40000 0 00370    05636 PAX +0 73400 1 00000    05637 CLA +0 50000 0 07554    05640 STO +0 60100 1 60161
                 A4=(TEST-1)/6+1                                                    650  LM00699
 05641 CLA +0 50000 0 00363    05642 SUB +0 40200 0 00370    05643 LRS +0 76500 0 00043    05644 DVP +0 22100 0 00375
 05645 XCA +0 13100 0 00000    05646 ADD +0 40000 0 00370    05647 STO +0 60100 0 00122
                 HOL(HOL)=A4                                                        651  LM00700
 05650 LXA +0 53400 1 60161    05651 CLA +0 50000 0 00122    05652 STO +0 60100 1 60161
                 I(CT+1)=STACON.V.BNBCD.(N)                                         652  LM00701
 05653 TSX +0 07400 4 00001    05654 TXH +3 00000 0 77150    05655 STO +0 60100 0 07554    05656 CAL -0 50000 0 56122
 05657 ORA -0 50100 0 07554    05660 SLW +0 60200 0 07554    05661 CLA +0 50000 0 00277    05662 ADD +0 40000 0 00370
 05663 PAX +0 73400 1 00000    05664 CLA +0 50000 0 07554    05665 STO +0 60100 1 61414
                 I(CT+2)=$(0000*$.EV.LZR.(BNBCD.(A4)).RS.6                          653  LM00702
 05666 TSX +0 07400 4 00001    05667 TXH +3 00000 0 00122    05670 STO +0 60100 0 07554    05671 TSX +0 07400 4 00011
 05672 TXH +3 00000 0 07554    05673 STO +0 60100 0 07554    05674 CAL -0 50000 0 00375    05675 STA +0 62100 0 05677
 05676 CAL -0 50000 0 07554    05677 LGR -0 76500 0 00000    05700 ERA +0 32200 0 00564    05701 SLW +0 60200 0 07554
 05702 CLA +0 50000 0 00277    05703 ADD +0 40000 0 00371    05704 PAX +0 73400 1 00000    05705 CLA +0 50000 0 07554
 05706 STO +0 60100 1 61414
                 OUT(OUT)=CT+1                                                      654  LM00703
 05707 CLA +0 50000 0 00277    05710 ADD +0 40000 0 00370    05711 LXA +0 53400 1 57174    05712 STO +0 60100 1 57174
                 OUT(OUT+1)=CT+2                                                    655  LM00704
 05713 CLA +0 50000 0 00277    05714 ADD +0 40000 0 00371    05715 STO +0 60100 0 07554    05716 CLA +0 50000 0 57174
 05717 ADD +0 40000 0 00370    05720 PAX +0 73400 1 00000    05721 CLA +0 50000 0 07554    05722 STO +0 60100 1 57174
                 OUT=OUT+2                                                          656  LM00705
 05723 CLA +0 50000 0 57174    05724 ADD +0 40000 0 00371    05725 STO +0 60100 0 57174
                 A8=HOL+2                                                           657  LM00706
 05726 CLA +0 50000 0 60161    05727 ADD +0 40000 0 00371    05730 STO +0 60100 0 00127
                 HOL=A8+HOL(HOL)                                                    658  LM00707
 05731 LXA +0 53400 2 60161    05732 CLA +0 50000 0 00127    05733 ADD +0 40000 2 60161    05734 STO +0 60100 0 60161
                 HOL(HOL)=900                                                       659  LM00708
 05735 LXA +0 53400 1 60161    05736 CLA +0 50000 0 00415    05737 STO +0 60100 1 60161
                 A4=6                                                               660  LM00709
 05740 CLA +0 50000 0 00375    05741 STO +0 60100 0 00122
                 THROUGH S94, FOR A9=HOL-1,-1,A9.L.A8                               661  LM00710
 05742 CLA +0 50000 0 60161    05743 SUB +0 40200 0 00370    05744 STO +0 60100 0 00130    05745 TRA +0 02000 0 05751
 05746 CLS +0 50200 0 00370    05747 ADD +0 40000 0 00130    05750 STO +0 60100 0 00130    05751 CLA +0 50000 0 00130
 05752 SUB +0 40200 0 00127    05753 TZE +0 10000 0 05755    05754 TMI -0 12000 0 06033
                 WHENEVER A9.E.A8, A4=TEST-(TEST/6)*6                               662  LM00711
 05755 CLA +0 50000 0 00130    05756 SUB +0 40200 0 00127    05757 TNZ -0 10000 0 05771    05760 LDQ +0 56000 0 00363
 05761 PXD -0 75400 0 00000    05762 LLS +0 76300 0 00000    05763 DVP +0 22100 0 00375    05764 MPY +0 20000 0 00375
 05765 XCA +0 13100 0 00000    05766 CHS +0 76000 0 00002    05767 ADD +0 40000 0 00363    05770 STO +0 60100 0 00122
                 WHENEVER A4.E.0.AND.TEST.E.(TEST/6)*6,A4=6                         663  LM00712
 05771 LDQ +0 56000 0 00363    05772 PXD -0 75400 0 00000    05773 LLS +0 76300 0 00000    05774 DVP +0 22100 0 00375
 05775 MPY +0 20000 0 00375    05776 XCA +0 13100 0 00000    05777 CHS +0 76000 0 00002    06000 ADD +0 40000 0 00363
 06001 TNZ -0 10000 0 06007    06002 CLA +0 50000 0 00122    06003 SUB +0 40200 0 00367    06004 TNZ -0 10000 0 06007
 06005 CLA +0 50000 0 00375    06006 STO +0 60100 0 00122
      S94        COMPZ.(A4,I(A3-5+6*(HOL-A9)),HOL(A9))                              664  LM00713
 06007 CLA +0 50000 0 00130    06010 SUB +0 40200 0 06011    06011 TXH +3 00000 0 60161    06012 STA +0 62100 0 06031
 06013 CLA +0 50000 0 60161    06014 SUB +0 40200 0 00130    06015 XCA +0 13100 0 00000    06016 MPY +0 20000 0 00375
 06017 STQ -0 60000 0 07554    06020 CLA +0 50000 0 00121    06021 SUB +0 40200 0 00374    06022 ADD +0 40000 0 07554
 06023 SUB +0 40200 0 06024    06024 TXH +3 00000 0 61414    06025 STA +0 62100 0 06030    06026 TSX +0 07400 4 00002
 06027 TXH +3 00000 0 00122    06030 TXH +3 00000 0 00000    06031 TXH +3 00000 0 00000    06032 TRA +0 02000 0 05746
                 A4=CT+3                                                            665  LM00714
 06033 CLA +0 50000 0 00277    06034 ADD +0 40000 0 00372    06035 STO +0 60100 0 00122
                 A3=A3+TEST                                                         666  LM00715
 06036 CLA +0 50000 0 00121    06037 ADD +0 40000 0 00363    06040 STO +0 60100 0 00121
                 OR WHENEVER I(A3).E.$*$.AND.I(A4-2).E.$*$                          667  LM00716
 06041 TRA +0 02000 0 06073    06042 CLA +0 50000 0 00122    06043 SUB +0 40200 0 00371    06044 PAX +0 73400 1 00000
 06045 CLA +0 50000 1 61414    06046 SUB +0 40200 0 00531    06047 TNZ -0 10000 0 06073    06050 LXA +0 53400 1 00121
 06051 CLA +0 50000 1 61414    06052 SUB +0 40200 0 00531    06053 TNZ -0 10000 0 06073
                 I(A4-2)=$ .P.$                                                     668  LM00717
 06054 CLA +0 50000 0 00122    06055 SUB +0 40200 0 00371    06056 PAX +0 73400 1 00000    06057 CLA +0 50000 0 00533
 06060 STO +0 60100 1 61414
                 OUT(OUT)=A4-2                                                      669  LM00718
 06061 CLA +0 50000 0 00122    06062 SUB +0 40200 0 00371    06063 LXA +0 53400 1 57174    06064 STO +0 60100 1 57174
                 OUT=OUT+1                                                          670  LM00719
 06065 CLA +0 50000 0 57174    06066 ADD +0 40000 0 00370    06067 STO +0 60100 0 57174
                 A4=A4-1                                                            671  LM00720
 06070 CLA +0 50000 0 00122    06071 SUB +0 40200 0 00370    06072 STO +0 60100 0 00122
                 END OF CONDITIONAL                                                 672  LM00721
                 OR WHENEVER I(A3).NE.$ $                                           673  LM00722
 06073 TRA +0 02000 0 07240    06074 LXA +0 53400 1 00121    06075 CLA +0 50000 1 61414    06076 SUB +0 40200 0 00540
 06077 TZE +0 10000 0 07240
                 I(A4)=I(A3)                                                        674  LM00723
 06100 LXA +0 53400 1 00122    06101 LXA +0 53400 2 00121    06102 CLA +0 50000 2 61414    06103 STO +0 60100 1 61414
                 A6=A4+1                                                            675  LM00724
 06104 CLA +0 50000 0 00122    06105 ADD +0 40000 0 00370    06106 STO +0 60100 0 00125
                 SW1=A3+1                                                           676  LM00725
 06107 CLA +0 50000 0 00121    06110 ADD +0 40000 0 00370    06111 STO +0 60100 0 00350
                 CHECK =1                                                           677  LM00726
 06112 CLA +0 50000 0 00370    06113 STO +0 60100 0 00276
      S93        THROUGH S93, FOR A5=SW1,1,I(A5).NE.$ $.OR.A5.G.EXTT                678  LM00727
 06114 CLA +0 50000 0 00350    06115 STO +0 60100 0 00123    06116 TRA +0 02000 0 06122    06117 CLA +0 50000 0 00123
 06120 ADD +0 40000 0 00370    06121 STO +0 60100 0 00123    06122 CLA +0 50000 0 00123    06123 SUB +0 40200 0 00303
 06124 TZE +0 10000 0 06126    06125 TPL +0 12000 0 06133    06126 LXA +0 53400 1 00123    06127 CLA +0 50000 1 61414
 06130 SUB +0 40200 0 00540    06131 TNZ -0 10000 0 06133    06132 TRA +0 02000 0 06117
                 I(A6)=I(A5)                                                        679  LM00728
 06133 LXA +0 53400 1 00125    06134 LXA +0 53400 2 00123    06135 CLA +0 50000 2 61414    06136 STO +0 60100 1 61414
                 WHENEVER OPCHK.(I(A5)).OR.A5.G.EXTT,TRANSFER TO     S93A           680  LM00729
 06137 CLA +0 50000 0 00123    06140 SUB +0 40200 0 00303    06141 TZE +0 10000 0 06143    06142 TPL +0 12000 0 06152
 06143 CLA +0 50000 0 00123    06144 SUB +0 40200 0 06145    06145 TXH +3 00000 0 61414    06146 STA +0 62100 0 06150
 06147 TSX +0 07400 4 00012    06150 TXH +3 00000 0 00000    06151 TZE +0 10000 0 06153    06152 TRA +0 02000 0 00062
                 A6=A6+1                                                            681  LM00730
 06153 CLA +0 50000 0 00125    06154 ADD +0 40000 0 00370    06155 STO +0 60100 0 00125
                 CHECK =0                                                           682  LM00731
 06156 CLA +0 50000 0 00367    06157 STO +0 60100 0 00276
                 SW1=A5+1                                                           683  LM00732
 06160 CLA +0 50000 0 00123    06161 ADD +0 40000 0 00370    06162 STO +0 60100 0 00350
                 TRANSFER TO S93                                                    684  LM00733
 06163 TRA +0 02000 0 00066
      S93A       EXECUTE COMPZ.(A6-A4,I(A4),I)                                      685  LM00734
 06164 CLA +0 50000 0 00122    06165 SUB +0 40200 0 06166    06166 TXH +3 00000 0 61414    06167 STA +0 62100 0 06175
 06170 CLA +0 50000 0 00125    06171 SUB +0 40200 0 00122    06172 STO +0 60100 0 07554    06173 TSX +0 07400 4 00002
 06174 TXH +3 00000 0 07554    06175 TXH +3 00000 0 00000    06176 TXH +3 00000 0 61414
                 WHENEVER I(A6).E.$($                                               686  LM00735
 06177 LXA +0 53400 1 00125    06200 CLA +0 50000 1 61414    06201 SUB +0 40200 0 00565    06202 TNZ -0 10000 0 06617
                 EXECUTE LUP.                                                       687  LM00736
 06203 TSX +0 07400 4 00020
                 ZZXQ1=S93AA                                                        688  LM00737
 06204 CLA +0 50000 0 00061    06205 STO +0 60100 0 56077
                 EXECUTE DIMFN.(I,ZZXQ1)                                            689  LM00738
 06206 TSX +0 07400 4 00003    06207 TXH +3 00000 0 61414    06210 TXH +3 00000 0 56077
                 TRANSFER TO S93C                                                   690  LM00739
 06211 TRA +0 02000 0 00064
      S93AA      WHENEVER I(A6-1).NE.$F$                                            691  LM00740
 06212 CLA +0 50000 0 00125    06213 SUB +0 40200 0 00370    06214 PAX +0 73400 1 00000    06215 CLA +0 50000 1 61414
 06216 SUB +0 40200 0 00466    06217 TZE +0 10000 0 06223
                 FFZAG=0B                                                           692  LM00741
 06220 CLA +0 50000 0 00367    06221 STO +0 60100 0 00304
                 TRANSFER TO S93B                                                   693  LM00742
 06222 TRA +0 02000 0 00063
                 END OF CONDITIONAL                                                 694  LM00743
                 WHENEVER A6-A4-1 .G. 6                                             695  LM00744
 06223 CLA +0 50000 0 00125    06224 SUB +0 40200 0 00122    06225 SUB +0 40200 0 00370    06226 SUB +0 40200 0 00375
 06227 TZE +0 10000 0 06234    06230 TMI -0 12000 0 06234
      S600       ERRO = 8                                                           696  LM00745
 06231 CLA +0 50000 0 00377    06232 STO +0 60100 0 00302
                 TRANSFER TO S60                                                    697  LM00746
 06233 TRA +0 02000 0 00051
                 END OF CONDITIONAL                                                 698  LM00747
                 FFZAG=1B                                                           699  LM00748
 06234 CLA +0 50000 0 00370    06235 STO +0 60100 0 00304
                 WHENEVER A6-A4-1.L.3                                               700  LM00749
 06236 CLA +0 50000 0 00125    06237 SUB +0 40200 0 00122    06240 SUB +0 40200 0 00370    06241 SUB +0 40200 0 00372
 06242 TZE +0 10000 0 06247    06243 TPL +0 12000 0 06247
                 THRZAG=1B                                                          701  LM00750
 06244 CLA +0 50000 0 00370    06245 STO +0 60100 0 00364
                 TRANSFER TO S93B                                                   702  LM00751
 06246 TRA +0 02000 0 00063
                 END OF CONDITIONAL                                                 703  LM00752
                 THRZAG=0B                                                          704  LM00753
 06247 CLA +0 50000 0 00367    06250 STO +0 60100 0 00364
                 EXECUTE COMPZ.(A6-A4-1,I(A4),I)                                    705  LM00754
 06251 CLA +0 50000 0 00122    06252 SUB +0 40200 0 06253    06253 TXH +3 00000 0 61414    06254 STA +0 62100 0 06263
 06255 CLA +0 50000 0 00125    06256 SUB +0 40200 0 00122    06257 SUB +0 40200 0 00370    06260 STO +0 60100 0 07554
 06261 TSX +0 07400 4 00002    06262 TXH +3 00000 0 07554    06263 TXH +3 00000 0 00000    06264 TXH +3 00000 0 61414
                 WHENEVER I(A4).E.$X$, XFN=1                                        706  LM00755
 06265 LXA +0 53400 1 00122    06266 CLA +0 50000 1 61414    06267 SUB +0 40200 0 00562    06270 TNZ -0 10000 0 06273
 06271 CLA +0 50000 0 00370    06272 STO +0 60100 0 00365
                 WHENEVER A4.NE.1                                                   707  LM00756
 06273 CLA +0 50000 0 00122    06274 SUB +0 40200 0 00370    06275 TZE +0 10000 0 06307
                 A6=A6-1                                                            708  LM00757
 06276 CLA +0 50000 0 00125    06277 SUB +0 40200 0 00370    06300 STO +0 60100 0 00125
                 I(A6)=I(A6+1)                                                      709  LM00758
 06301 CLA +0 50000 0 00125    06302 ADD +0 40000 0 00370    06303 LXA +0 53400 1 00125    06304 PAX +0 73400 2 00000
 06305 CLA +0 50000 2 61414    06306 STO +0 60100 1 61414
                 END OF CONDITIONAL                                                 710  LM00759
                 WHENEVER I.E.$ABS$.OR.I.E.$FLOAT$.OR.I.E.$XABS$                    711  LM00760
 06307 CLA +0 50000 0 61414    06310 SUB +0 40200 0 00561    06311 TZE +0 10000 0 06320    06312 CLA +0 50000 0 61414
 06313 SUB +0 40200 0 00465    06314 TZE +0 10000 0 06320    06315 CLA +0 50000 0 61414    06316 SUB +0 40200 0 00440
 06317 TNZ -0 10000 0 06407
                 LEVT=0B                                                            712  LM00761
 06320 CLA +0 50000 0 00367    06321 STO +0 60100 0 00340
                 LEV=LEV-1                                                          713  LM00762
 06322 CLA +0 50000 0 00337    06323 SUB +0 40200 0 00370    06324 STO +0 60100 0 00337
                 WHENEVER I(A4).E.$A$                                               714  LM00763
 06325 LXA +0 53400 1 00122    06326 CLA +0 50000 1 61414    06327 SUB +0 40200 0 00444    06330 TNZ -0 10000 0 06345
                 I(A4)=$    .A$                                                     715  LM00764
 06331 CLA +0 50000 0 00537    06332 STO +0 60100 1 61414
                 OUT(OUT)=A4                                                        716  LM00765
 06333 LXA +0 53400 1 57174    06334 CLA +0 50000 0 00122    06335 STO +0 60100 1 57174
                 OUT=OUT+1                                                          717  LM00766
 06336 CLA +0 50000 0 57174    06337 ADD +0 40000 0 00370    06340 STO +0 60100 0 57174
                 A4=A4+1                                                            718  LM00767
 06341 CLA +0 50000 0 00122    06342 ADD +0 40000 0 00370    06343 STO +0 60100 0 00122
                 OR WHENEVER I(A4).E.$X$                                            719  LM00768
 06344 TRA +0 02000 0 06405    06345 LXA +0 53400 1 00122    06346 CLA +0 50000 1 61414    06347 SUB +0 40200 0 00562
 06350 TNZ -0 10000 0 06354
                 I(A4)=$.$                                                          720  LM00769
 06351 CLA +0 50000 0 00502    06352 STO +0 60100 1 61414
                 OTHERWISE                                                          721  LM00770
 06353 TRA +0 02000 0 06405
                 I(A4)=$($                                                          722  LM00771
 06354 LXA +0 53400 1 00122    06355 CLA +0 50000 0 00565    06356 STO +0 60100 1 61414
                 I(A4+1)=$0$                                                        723  LM00772
 06357 CLA +0 50000 0 00122    06360 ADD +0 40000 0 00370    06361 PAX +0 73400 1 00000    06362 CLA +0 50000 0 00423
 06363 STO +0 60100 1 61414
                 I(A4+2)=$.$                                                        724  LM00773
 06364 CLA +0 50000 0 00122    06365 ADD +0 40000 0 00371    06366 PAX +0 73400 1 00000    06367 CLA +0 50000 0 00502
 06370 STO +0 60100 1 61414
                 I(A4+3)=$0$                                                        725  LM00774
 06371 CLA +0 50000 0 00122    06372 ADD +0 40000 0 00372    06373 PAX +0 73400 1 00000    06374 CLA +0 50000 0 00423
 06375 STO +0 60100 1 61414
                 I(A4+4)=$+$                                                        726  LM00775
 06376 CLA +0 50000 0 00122    06377 ADD +0 40000 0 00373    06400 PAX +0 73400 1 00000    06401 CLA +0 50000 0 00437
 06402 STO +0 60100 1 61414
                 FL=1                                                               727  LM00776
 06403 CLA +0 50000 0 00370    06404 STO +0 60100 0 00305
                 END OF CONDITIONAL                                                 728  LM00777
                 TRANSFER TO S93F                                                   729  LM00778
 06405 TRA +0 02000 0 00065
                 ORWHENEVER A4.E.1                                                  730  LM00779
 06406 TRA +0 02000 0 06460    06407 CLA +0 50000 0 00122    06410 SUB +0 40200 0 00370    06411 TNZ -0 10000 0 06460
                 WHENEVER A6.L.5,TRANSFER TO S93C                                   731  LM00780
 06412 CLA +0 50000 0 00125    06413 SUB +0 40200 0 00374    06414 TZE +0 10000 0 06417    06415 TPL +0 12000 0 06417
 06416 TRA +0 02000 0 00064
                 FUN=1                                                              732  LM00781
 06417 CLA +0 50000 0 00370    06420 STO +0 60100 0 00306
                 I(1)=$INTERN$                                                      733  LM00782
 06421 CLA +0 50000 0 00472    06422 STO +0 60100 0 61413
                 I(2)=$AL FUN$                                                      734  LM00783
 06423 CLA +0 50000 0 00442    06424 STO +0 60100 0 61412
                 I(3)=$CTION$                                                       735  LM00784
 06425 CLA +0 50000 0 00451    06426 STO +0 60100 0 61411
                 I(4)=I                                                             736  LM00785
 06427 CLA +0 50000 0 61414    06430 STO +0 60100 0 61410
                 OUT(OUT)=1                                                         737  LM00786
 06431 LXA +0 53400 1 57174    06432 CLA +0 50000 0 00370    06433 STO +0 60100 1 57174
                 OUT(OUT+1)=2                                                       738  LM00787
 06434 CLA +0 50000 0 57174    06435 ADD +0 40000 0 00370    06436 PAX +0 73400 1 00000    06437 CLA +0 50000 0 00371
 06440 STO +0 60100 1 57174
                 OUT(OUT+2)=3                                                       739  LM00788
 06441 CLA +0 50000 0 57174    06442 ADD +0 40000 0 00371    06443 PAX +0 73400 1 00000    06444 CLA +0 50000 0 00372
 06445 STO +0 60100 1 57174
                 OUT(OUT+  3)=4                                                     740  LM00789
 06446 CLA +0 50000 0 57174    06447 ADD +0 40000 0 00372    06450 PAX +0 73400 1 00000    06451 CLA +0 50000 0 00373
 06452 STO +0 60100 1 57174
                 OUT=OUT+4                                                          741  LM00790
 06453 CLA +0 50000 0 57174    06454 ADD +0 40000 0 00373    06455 STO +0 60100 0 57174
                 A6=5                                                               742  LM00791
 06456 CLA +0 50000 0 00374    06457 STO +0 60100 0 00125
                 END OF CONDITIONAL                                                 743  LM00792
      S93B       WHENEVER I.NE.$ABS$.AND.I.NE.$FLOAT$, EXECUTE FNCTFN.(I)           744  LM00793
 06460 CLA +0 50000 0 61414    06461 SUB +0 40200 0 00465    06462 TZE +0 10000 0 06470    06463 CLA +0 50000 0 61414
 06464 SUB +0 40200 0 00440    06465 TZE +0 10000 0 06470    06466 TSX +0 07400 4 00010    06467 TXH +3 00000 0 61414
                 WHENEVER XFN.E.1.OR.FFZAG.AND..NOT.THRZAG.AND.I(A4).E.$X$          745  LM00794
                1.OR..NOT.FFZAG.AND.(I(A4).E.$I$.OR.I(A4).GE.$N$.AND.               745  LM00795
                2I(A4).LE.$J$).OR.FFZAG.AND.THRZAG.AND.(I(A4).E.$I$.OR.             745  LM00796
                3I(A4).GE.$N$.AND.I(A4).LE.$J$)                                     745  LM00797
 06470 LXA +0 53400 1 00122    06471 CLA +0 50000 1 61414    06472 SUB +0 40200 0 00505    06473 TZE +0 10000 0 06475
 06474 TPL +0 12000 0 06501    06475 CLA +0 50000 1 61414    06476 SUB +0 40200 0 00512    06477 TZE +0 10000 0 06505
 06500 TPL +0 12000 0 06505    06501 LXA +0 53400 1 00122    06502 CLA +0 50000 1 61414    06503 SUB +0 40200 0 00474
 06504 TNZ -0 10000 0 06511    06505 NZT -0 52000 0 00364    06506 TRA +0 02000 0 06511    06507 ZET +0 52000 0 00304
 06510 TRA +0 02000 0 06543    06511 LXA +0 53400 1 00122    06512 CLA +0 50000 1 61414    06513 SUB +0 40200 0 00505
 06514 TZE +0 10000 0 06516    06515 TPL +0 12000 0 06522    06516 CLA +0 50000 1 61414    06517 SUB +0 40200 0 00512
 06520 TZE +0 10000 0 06526    06521 TPL +0 12000 0 06526    06522 LXA +0 53400 1 00122    06523 CLA +0 50000 1 61414
 06524 SUB +0 40200 0 00474    06525 TNZ -0 10000 0 06530    06526 NZT -0 52000 0 00304    06527 TRA +0 02000 0 06543
 06530 LXA +0 53400 1 00122    06531 CLA +0 50000 1 61414    06532 SUB +0 40200 0 00562    06533 TNZ -0 10000 0 06540
 06534 ZET +0 52000 0 00364    06535 TRA +0 02000 0 06540    06536 ZET +0 52000 0 00304    06537 TRA +0 02000 0 06543
 06540 CLA +0 50000 0 00365    06541 SUB +0 40200 0 00370    06542 TNZ -0 10000 0 06550
                 EXECUTE FINDIN.(I,S603)                                            746  LM00798
 06543 TSX +0 07400 4 00006    06544 TXH +3 00000 0 61414    06545 TXH +3 00000 0 00050
                 XFN=0                                                              747  LM00799
 06546 CLA +0 50000 0 00367    06547 STO +0 60100 0 00365
                 END OF CONDITIONAL                                                 748  LM00800
                 FFZAG=0B                                                           749  LM00801
 06550 CLA +0 50000 0 00367    06551 STO +0 60100 0 00304
                 THRZAG=0B                                                          750  LM00802
 06552 CLA +0 50000 0 00367    06553 STO +0 60100 0 00364
      S93F       EXECUTE SETL.                                                      751  LM00803
 06554 TSX +0 07400 4 00021
                 WHENEVER I(A5).NE.$($.AND.A4.NE.1                                  752  LM00804
 06555 CLA +0 50000 0 00122    06556 SUB +0 40200 0 00370    06557 TZE +0 10000 0 06567    06560 LXA +0 53400 1 00123
 06561 CLA +0 50000 1 61414    06562 SUB +0 40200 0 00565    06563 TZE +0 10000 0 06567
                 ERRO  =18                                                          753  LM00805
 06564 CLA +0 50000 0 00407    06565 STO +0 60100 0 00302
                 TRANSFER TO S60                                                    754  LM00806
 06566 TRA +0 02000 0 00051
                 END OF CONDITIONAL                                                 755  LM00807
                 I(A6)=$ .($                                                        756  LM00808
 06567 LXA +0 53400 1 00125    06570 CLA +0 50000 0 00534    06571 STO +0 60100 1 61414
                 OUT(OUT)=A6                                                        757  LM00809
 06572 LXA +0 53400 1 57174    06573 CLA +0 50000 0 00125    06574 STO +0 60100 1 57174
                 WHENEVER FL.E.1                                                    758  LM00810
 06575 CLA +0 50000 0 00305    06576 SUB +0 40200 0 00370    06577 TNZ -0 10000 0 06610
                 I(A6)=$ $                                                          759  LM00811
 06600 LXA +0 53400 1 00125    06601 CLA +0 50000 0 00540    06602 STO +0 60100 1 61414
                 FL=0                                                               760  LM00812
 06603 CLA +0 50000 0 00367    06604 STO +0 60100 0 00305
                 OUT=OUT-1                                                          761  LM00813
 06605 CLA +0 50000 0 57174    06606 SUB +0 40200 0 00370    06607 STO +0 60100 0 57174
                 END OF CONDITIONAL                                                 762  LM00814
                 OUT=OUT+1                                                          763  LM00815
 06610 CLA +0 50000 0 57174    06611 ADD +0 40000 0 00370    06612 STO +0 60100 0 57174
                 A4=A6+1                                                            764  LM00816
 06613 CLA +0 50000 0 00125    06614 ADD +0 40000 0 00370    06615 STO +0 60100 0 00122
      S93C       OTHERWISE                                                          765  LM00817
 06616 TRA +0 02000 0 07225
                 WHENEVER I.E.RET                                                   766  LM00818
 06617 CLA +0 50000 0 61414    06620 SUB +0 40200 0 00346    06621 TNZ -0 10000 0 06654
                 I(A4)=RETN                                                         767  LM00819
 06622 LXA +0 53400 1 00122    06623 CLA +0 50000 0 00345    06624 STO +0 60100 1 61414
                 OUT(OUT)=A4                                                        768  LM00820
 06625 LXA +0 53400 1 57174    06626 CLA +0 50000 0 00122    06627 STO +0 60100 1 57174
                 OUT=OUT+1                                                          769  LM00821
 06630 CLA +0 50000 0 57174    06631 ADD +0 40000 0 00370    06632 STO +0 60100 0 57174
                 THROUGH S93D, FOR A7=A4+1,1,A7.E.A6                                770  LM00822
 06633 CLA +0 50000 0 00122    06634 ADD +0 40000 0 00370    06635 STO +0 60100 0 00126    06636 TRA +0 02000 0 06642
 06637 CLA +0 50000 0 00126    06640 ADD +0 40000 0 00370    06641 STO +0 60100 0 00126    06642 CLA +0 50000 0 00126
 06643 SUB +0 40200 0 00125    06644 TZE +0 10000 0 06654
                 OUT(OUT)=-A7                                                       771  LM00823
 06645 CLS +0 50200 0 00126    06646 LXA +0 53400 1 57174    06647 STO +0 60100 1 57174
      S93D       OUT=OUT+1                                                          772  LM00824
 06650 CLA +0 50000 0 57174    06651 ADD +0 40000 0 00370    06652 STO +0 60100 0 57174    06653 TRA +0 02000 0 06637
                 END OF CONDITIONAL                                                 773  LM00825
                 WHENEVER A6-A4.G.6, TRANSFER TO S600                               774  LM00826
 06654 CLA +0 50000 0 00125    06655 SUB +0 40200 0 00122    06656 SUB +0 40200 0 00375    06657 TZE +0 10000 0 06662
 06660 TMI -0 12000 0 06662    06661 TRA +0 02000 0 00046
                 WHENEVER FUN.E.1                                                   775  LM00827
 06662 CLA +0 50000 0 00306    06663 SUB +0 40200 0 00370    06664 TNZ -0 10000 0 06775
                 ARG(ARG+1)=STACON.V.BNBCD.(FINDN.($*$))                            776  LM00828
 06665 TSX +0 07400 4 00007    06666 TXH +3 00000 0 00531    06667 STO +0 60100 0 07554    06670 TSX +0 07400 4 00001
 06671 TXH +3 00000 0 07554    06672 STO +0 60100 0 07554    06673 CAL -0 50000 0 56122    06674 ORA -0 50100 0 07554
 06675 SLW +0 60200 0 07554    06676 CLA +0 50000 0 00275    06677 ADD +0 40000 0 00370    06700 PAX +0 73400 1 00000
 06701 CLA +0 50000 0 07554    06702 STO +0 60100 1 00275
                 ARG(ARG+2)=I                                                       777  LM00829
 06703 CLA +0 50000 0 00275    06704 ADD +0 40000 0 00371    06705 PAX +0 73400 1 00000    06706 CLA +0 50000 0 61414
 06707 STO +0 60100 1 00275
                 WHENEVER I(A4).E.$I$.OR.I(A4).GE.$N$.AND.I(A4).LE.$J$              778  LM00830
 06710 LXA +0 53400 1 00122    06711 CLA +0 50000 1 61414    06712 SUB +0 40200 0 00505    06713 TZE +0 10000 0 06715
 06714 TPL +0 12000 0 06721    06715 CLA +0 50000 1 61414    06716 SUB +0 40200 0 00512    06717 TZE +0 10000 0 06725
 06720 TPL +0 12000 0 06725    06721 LXA +0 53400 1 00122    06722 CLA +0 50000 1 61414    06723 SUB +0 40200 0 00474
 06724 TNZ -0 10000 0 06735
                 EXECUTE FINDIN.(ARG(ARG+1),S603)                                   779  LM00831
 06725 CLA +0 50000 0 00275    06726 ADD +0 40000 0 00370    06727 SUB +0 40200 0 06730    06730 TXH +3 00000 0 00275
 06731 STA +0 62100 0 06733    06732 TSX +0 07400 4 00006    06733 TXH +3 00000 0 00000    06734 TXH +3 00000 0 00050
                 END OF CONDITIONAL                                                 780  LM00832
                 I(A4)=ARG(ARG+1)                                                   781  LM00833
 06735 CLA +0 50000 0 00275    06736 ADD +0 40000 0 00370    06737 LXA +0 53400 1 00122    06740 PAX +0 73400 2 00000
 06741 CLA +0 50000 2 00275    06742 STO +0 60100 1 61414
                 OUT(OUT)=A4                                                        782  LM00834
 06743 LXA +0 53400 1 57174    06744 CLA +0 50000 0 00122    06745 STO +0 60100 1 57174
                 OUT=OUT+1                                                          783  LM00835
 06746 CLA +0 50000 0 57174    06747 ADD +0 40000 0 00370    06750 STO +0 60100 0 57174
                 ARG=ARG+2                                                          784  LM00836
 06751 CLA +0 50000 0 00275    06752 ADD +0 40000 0 00371    06753 STO +0 60100 0 00275
                 WHENEVER ARG.G.100                                                 785  LM00837
 06754 CLA +0 50000 0 00275    06755 SUB +0 40200 0 00413    06756 TZE +0 10000 0 06763    06757 TMI -0 12000 0 06763
                 ERRO  =19                                                          786  LM00838
 06760 CLA +0 50000 0 00410    06761 STO +0 60100 0 00302
                 TRANSFER TO S60                                                    787  LM00839
 06762 TRA +0 02000 0 00051
                 END OF CONDITIONAL                                                 788  LM00840
                 I(A4+1)=I(A6)                                                      789  LM00841
 06763 CLA +0 50000 0 00122    06764 ADD +0 40000 0 00370    06765 PAX +0 73400 1 00000    06766 LXA +0 53400 2 00125
 06767 CLA +0 50000 2 61414    06770 STO +0 60100 1 61414
                 A4=A4+2                                                            790  LM00842
 06771 CLA +0 50000 0 00122    06772 ADD +0 40000 0 00371    06773 STO +0 60100 0 00122
                 OR WHENEVER FUN.E.2                                                791  LM00843
 06774 TRA +0 02000 0 07225    06775 CLA +0 50000 0 00306    06776 SUB +0 40200 0 00371    06777 TNZ -0 10000 0 07106
                 THROUGH S95, FOR A7=2,2,A7.G.ARG                                   792  LM00844
 07000 CLA +0 50000 0 00371    07001 STO +0 60100 0 00126    07002 TRA +0 02000 0 07006    07003 CLA +0 50000 0 00126
 07004 ADD +0 40000 0 00371    07005 STO +0 60100 0 00126    07006 CLA +0 50000 0 00126    07007 SUB +0 40200 0 00275
 07010 TZE +0 10000 0 07012    07011 TPL +0 12000 0 07045
                 WHENEVERARG(A7).E.I                                                793  LM00845
 07012 LXA +0 53400 1 00126    07013 CLA +0 50000 1 00275    07014 SUB +0 40200 0 61414    07015 TNZ -0 10000 0 07044
                 I(A4)=ARG(A7-1)                                                    794  LM00846
 07016 CLA +0 50000 0 00126    07017 SUB +0 40200 0 00370    07020 LXA +0 53400 1 00122    07021 PAX +0 73400 2 00000
 07022 CLA +0 50000 2 00275    07023 STO +0 60100 1 61414
                 OUT(OUT)=A4                                                        795  LM00847
 07024 LXA +0 53400 1 57174    07025 CLA +0 50000 0 00122    07026 STO +0 60100 1 57174
                 OUT=OUT+1                                                          796  LM00848
 07027 CLA +0 50000 0 57174    07030 ADD +0 40000 0 00370    07031 STO +0 60100 0 57174
                 I(A4+1)=I(A6)                                                      797  LM00849
 07032 CLA +0 50000 0 00122    07033 ADD +0 40000 0 00370    07034 PAX +0 73400 1 00000    07035 LXA +0 53400 2 00125
 07036 CLA +0 50000 2 61414    07037 STO +0 60100 1 61414
                 A4=A4+2                                                            798  LM00850
 07040 CLA +0 50000 0 00122    07041 ADD +0 40000 0 00371    07042 STO +0 60100 0 00122
                 TRANSFER TO S92A                                                   799  LM00851
 07043 TRA +0 02000 0 00060
      S95        END OF CONDITIONAL                                                 800  LM00852
 07044 TRA +0 02000 0 07003
                 WHENEVER I(A4).E.$I$.OR.I(A4).GE.$N$.AND.I(A4).LE.$J$,EXECUTE      801  LM00853
                1FINDIN.(I)                                                         801  LM00854
 07045 LXA +0 53400 1 00122    07046 CLA +0 50000 1 61414    07047 SUB +0 40200 0 00505    07050 TZE +0 10000 0 07052
 07051 TPL +0 12000 0 07056    07052 CLA +0 50000 1 61414    07053 SUB +0 40200 0 00512    07054 TZE +0 10000 0 07062
 07055 TPL +0 12000 0 07062    07056 LXA +0 53400 1 00122    07057 CLA +0 50000 1 61414    07060 SUB +0 40200 0 00474
 07061 TNZ -0 10000 0 07064    07062 TSX +0 07400 4 00006    07063 TXH +3 00000 0 61414
                 A4=A6+1                                                            802  LM00855
 07064 CLA +0 50000 0 00125    07065 ADD +0 40000 0 00370    07066 STO +0 60100 0 00122
                 WHENEVER A5.G.EXTT.AND..NOT.OPCHK.(I(A6)),A4=A4-1                  803  LM00856
 07067 CLA +0 50000 0 00125    07070 SUB +0 40200 0 07071    07071 TXH +3 00000 0 61414    07072 STA +0 62100 0 07074
 07073 TSX +0 07400 4 00012    07074 TXH +3 00000 0 00000    07075 TNZ -0 10000 0 07105    07076 CLA +0 50000 0 00123
 07077 SUB +0 40200 0 00303    07100 TZE +0 10000 0 07105    07101 TMI -0 12000 0 07105    07102 CLA +0 50000 0 00122
 07103 SUB +0 40200 0 00370    07104 STO +0 60100 0 00122
                 OTHERWISE                                                          804  LM00857
 07105 TRA +0 02000 0 07225
                 WHENEVER I(A4).E.$I$.OR.I(A4).GE.$N$.AND.I(A4).LE.$J$              805  LM00858
 07106 LXA +0 53400 1 00122    07107 CLA +0 50000 1 61414    07110 SUB +0 40200 0 00505    07111 TZE +0 10000 0 07113
 07112 TPL +0 12000 0 07117    07113 CLA +0 50000 1 61414    07114 SUB +0 40200 0 00512    07115 TZE +0 10000 0 07123
 07116 TPL +0 12000 0 07123    07117 LXA +0 53400 1 00122    07120 CLA +0 50000 1 61414    07121 SUB +0 40200 0 00474
 07122 TNZ -0 10000 0 07125
                 EXECUTE FINDIN.(I)                                                 806  LM00859
 07123 TSX +0 07400 4 00006    07124 TXH +3 00000 0 61414
                 END OF CONDITIONAL                                                 807  LM00860
                 WHENEVER I(A6).NE.$($.AND.(I(A4-1).NE.$,$.AND.I(A4-1).NE.$ .(      808  LM00861
                1 $.OR.I(A6).NE.$,$.AND.I(A6).NE.$)$.OR..NOT.LEVT)                  808  LM00862
 07125 NZT -0 52000 0 00340    07126 TRA +0 02000 0 07153    07127 LXA +0 53400 1 00125    07130 CLA +0 50000 1 61414
 07131 SUB +0 40200 0 00503    07132 TZE +0 10000 0 07136    07133 CLA +0 50000 1 61414    07134 SUB +0 40200 0 00563
 07135 TNZ -0 10000 0 07153    07136 CLA +0 50000 0 00122    07137 SUB +0 40200 0 00370    07140 PAX +0 73400 1 00000
 07141 CLA +0 50000 1 61414    07142 SUB +0 40200 0 00534    07143 TZE +0 10000 0 07152    07144 CLA +0 50000 0 00122
 07145 SUB +0 40200 0 00370    07146 PAX +0 73400 1 00000    07147 CLA +0 50000 1 61414    07150 SUB +0 40200 0 00563
 07151 TNZ -0 10000 0 07153    07152 TRA +0 02000 0 07213    07153 LXA +0 53400 1 00125    07154 CLA +0 50000 1 61414
 07155 SUB +0 40200 0 00565    07156 TZE +0 10000 0 07213
                 ZZXQ1=S95A                                                         809  LM00863
 07157 CLA +0 50000 0 00067    07160 STO +0 60100 0 56077
                 EXECUTE DIMFN.(I,ZZXQ1)                                            810  LM00864
 07161 TSX +0 07400 4 00003    07162 TXH +3 00000 0 61414    07163 TXH +3 00000 0 56077
                 OUT(OUT)=A6-1                                                      811  LM00865
 07164 CLA +0 50000 0 00125    07165 SUB +0 40200 0 00370    07166 LXA +0 53400 1 57174    07167 STO +0 60100 1 57174
                 OUT=OUT+1                                                          812  LM00866
 07170 CLA +0 50000 0 57174    07171 ADD +0 40000 0 00370    07172 STO +0 60100 0 57174
                 I(A6-1)=$000(1)$.V.((I(A6-1)/4096)*4096)                           813  LM00867
 07173 CLA +0 50000 0 00125    07174 SUB +0 40200 0 00370    07175 PAX +0 73400 1 00000    07176 LDQ +0 56000 1 61414
 07177 PXD -0 75400 0 00000    07200 LLS +0 76300 0 00000    07201 DVP +0 22100 0 00417    07202 MPY +0 20000 0 00417
 07203 XCL -0 13000 0 00000    07204 ORA -0 50100 0 00420    07205 SLW +0 60200 0 07554    07206 CLA +0 50000 0 00125
 07207 SUB +0 40200 0 00370    07210 PAX +0 73400 1 00000    07211 CLA +0 50000 0 07554    07212 STO +0 60100 1 61414
      S95A       CONTINUE                                                           814  LM00868
                 END OF CONDITIONAL                                                 815  LM00869
                 A4=A6+1                                                            816  LM00870
 07213 CLA +0 50000 0 00125    07214 ADD +0 40000 0 00370    07215 STO +0 60100 0 00122
      S92A       WHENEVER A5.G.EXTT,A4=A4-1                                         817  LM00871
 07216 CLA +0 50000 0 00123    07217 SUB +0 40200 0 00303    07220 TZE +0 10000 0 07225    07221 TMI -0 12000 0 07225
 07222 CLA +0 50000 0 00122    07223 SUB +0 40200 0 00370    07224 STO +0 60100 0 00122
                 END OF CONDITIONAL                                                 818  LM00872
                 END OF CONDITIONAL                                                 819  LM00873
                 A3=A5                                                              820  LM00874
 07225 CLA +0 50000 0 00123    07226 STO +0 60100 0 00121
                 WHENEVER A5.LE.EXTT.AND.I(A6).E.$)$,EXECUTE LDN.                   821  LM00875
 07227 LXA +0 53400 1 00125    07230 CLA +0 50000 1 61414    07231 SUB +0 40200 0 00503    07232 TNZ -0 10000 0 07240
 07233 CLA +0 50000 0 00123    07234 SUB +0 40200 0 00303    07235 TZE +0 10000 0 07237    07236 TPL +0 12000 0 07240
 07237 TSX +0 07400 4 00016
                 END OF CONDITIONAL                                                 822  LM00876
      S92        CHECK =0                                                           823  LM00877
 07240 CLA +0 50000 0 00367    07241 STO +0 60100 0 00276    07242 TRA +0 02000 0 05430
                 WHENEVER ASTOUT.E.AS2                                              824  LM00878
 07243 CLA +0 50000 0 00024    07244 SUB +0 40200 0 00023    07245 TNZ -0 10000 0 07255
                 CCT=A4-1                                                           825  LM00879
 07246 CLA +0 50000 0 00122    07247 SUB +0 40200 0 00370    07250 STO +0 60100 0 56121
                 OUT(OUT)=700                                                       826  LM00880
 07251 LXA +0 53400 1 57174    07252 CLA +0 50000 0 00414    07253 STO +0 60100 1 57174
                 OTHERWISE                                                          827  LM00881
 07254 TRA +0 02000 0 07301
                 THROUGH S96,FOR A7=A4  ,1,A7.G.EXTT                                828  LM00882
 07255 CLA +0 50000 0 00122    07256 STO +0 60100 0 00126    07257 TRA +0 02000 0 07263    07260 CLA +0 50000 0 00126
 07261 ADD +0 40000 0 00370    07262 STO +0 60100 0 00126    07263 CLA +0 50000 0 00126    07264 SUB +0 40200 0 00303
 07265 TZE +0 10000 0 07267    07266 TPL +0 12000 0 07276
                 OUT(OUT)=-A7                                                       829  LM00883
 07267 CLS +0 50200 0 00126    07270 LXA +0 53400 1 57174    07271 STO +0 60100 1 57174
      S96        OUT=OUT+1                                                          830  LM00884
 07272 CLA +0 50000 0 57174    07273 ADD +0 40000 0 00370    07274 STO +0 60100 0 57174    07275 TRA +0 02000 0 07260
                 OUT=OUT-1                                                          831  LM00885
 07276 CLA +0 50000 0 57174    07277 SUB +0 40200 0 00370    07300 STO +0 60100 0 57174
                 END OF CONDITIONAL                                                 832  LM00886
                 TRANSFER TO STOUT                                                  833  LM00887
 07301 TRA +0 02000 0 00024
      S2         CONTINUE                                                           834  LM00888
                 TRANSFER TO PR                                                     835  LM00889
 07302 TRA +0 02000 0 56104
      S3         CONTINUE                                                           836  LM00890
                 TRANSFER TO TS3                                                    837  LM00891
 07303 TRA +0 02000 0 56105
      S60        EXECUTE ERRP.(ERRO)                                                838  LM00892
 07304 TSX +0 07400 4 00004    07305 TXH +3 00000 0 00302
      S30        EXECUTE SUBST.                                                     839  LM00893
 07306 TSX +0 07400 4 00013
                 BOOLEAN LEVT                                                       840  LM00894
                 DIMENSION LEV(20)                                                  841  LM00895
                 INTERNAL FUNCTION (X)                                              842  LM00896
 07307 TRA +0 02000 0 07433
                 ENTRY TO DGT.                                                      843  LM00900
 07310 TRA +0 02000 0 07313    00015 TTR +0 02100 0 07311    07311 SXA +0 63400 2 07421    07312 TSX +0 07400 2 07421
                 THROUGH SD,FOR VALUES OF XX=$0$,$1$,$2$,$3$,$4$,$5$,$6$,$7$,       844  LM00901
                1  $8$,$9$                                                          844  LM00902
 07313 CLA +0 50000 0 00423    07314 STO +0 60100 0 00366    07315 CLA +0 50000 0 07320    07316 STO +0 60100 0 07407
 07317 TRA +0 02000 0 07410    07320 TRA +0 02000 0 07321    07321 CLA +0 50000 0 00425    07322 STO +0 60100 0 00366
 07323 CLA +0 50000 0 07326    07324 STO +0 60100 0 07407    07325 TRA +0 02000 0 07410    07326 TRA +0 02000 0 07327
 07327 CLA +0 50000 0 00426    07330 STO +0 60100 0 00366    07331 CLA +0 50000 0 07334    07332 STO +0 60100 0 07407
 07333 TRA +0 02000 0 07410    07334 TRA +0 02000 0 07335    07335 CLA +0 50000 0 00427    07336 STO +0 60100 0 00366
 07337 CLA +0 50000 0 07342    07340 STO +0 60100 0 07407    07341 TRA +0 02000 0 07410    07342 TRA +0 02000 0 07343
 07343 CLA +0 50000 0 00430    07344 STO +0 60100 0 00366    07345 CLA +0 50000 0 07350    07346 STO +0 60100 0 07407
 07347 TRA +0 02000 0 07410    07350 TRA +0 02000 0 07351    07351 CLA +0 50000 0 00431    07352 STO +0 60100 0 00366
 07353 CLA +0 50000 0 07356    07354 STO +0 60100 0 07407    07355 TRA +0 02000 0 07410    07356 TRA +0 02000 0 07357
 07357 CLA +0 50000 0 00432    07360 STO +0 60100 0 00366    07361 CLA +0 50000 0 07364    07362 STO +0 60100 0 07407
 07363 TRA +0 02000 0 07410    07364 TRA +0 02000 0 07365    07365 CLA +0 50000 0 00433    07366 STO +0 60100 0 00366
 07367 CLA +0 50000 0 07372    07370 STO +0 60100 0 07407    07371 TRA +0 02000 0 07410    07372 TRA +0 02000 0 07373
 07373 CLA +0 50000 0 00434    07374 STO +0 60100 0 00366    07375 CLA +0 50000 0 07400    07376 STO +0 60100 0 07407
 07377 TRA +0 02000 0 07410    07400 TRA +0 02000 0 07401    07401 CLA +0 50000 0 00435    07402 STO +0 60100 0 00366
 07403 CLA +0 50000 0 07406    07404 STO +0 60100 0 07407    07405 TRA +0 02000 0 07410    07406 TRA +0 02000 0 07416
 07407 TRA +0 02000 0 07407
      SD         WHENEVER X.E.XX,FUNCTION RETURN 1B                                 845  LM00903
 07410 CLA +0 50000 0 00024    07411 SUB +0 40200 0 00366    07412 TNZ -0 10000 0 07415    07413 CLA +0 50000 0 00370
 07414 TRA +0 02000 0 07427    07415 TRA +0 02000 0 07407
                 FUNCTION RETURN 0B                                                 846  LM00904
 07416 CLA +0 50000 0 00367    07417 TRA +0 02000 0 07427
                 END OF FUNCTION                                                    847  LM00905
 07420 TSX +0 07400 4 00005    07421 TXH +3 00000 0 00000    07422 SXD -0 63400 1 07421    07423 SXA +0 63400 4 07427
 07424 CLA +0 50000 4 00001    07425 STA +0 62100 0 07410    07426 TRA +0 02000 2 00001    07427 AXT +0 77400 4 00000
 07430 LXA +0 53400 2 07421    07431 LXD -0 53400 1 07421    07432 TRA +0 02000 4 00001
                 INTERNAL FUNCTION                                                  848  LM00906
 07433 TRA +0 02000 0 07542
                 ENTRY TO SETL.                                                     849  LM00910
 07434 TRA +0 02000 0 07437    00021 TTR +0 02100 0 07435    07435 SXA +0 63400 2 07532    07436 TSX +0 07400 2 07532
                   LEV=LEV+1                                                        850  LM00911
 07437 CLA +0 50000 0 00337    07440 ADD +0 40000 0 00370    07441 STO +0 60100 0 00337
                   LEV(LEV)=LEVEL                                                   851  LM00912
 07442 LXA +0 53400 1 00337    07443 CLA +0 50000 0 00312    07444 STO +0 60100 1 00337
                    LEVT=1B                                                         852  LM00913
 07445 CLA +0 50000 0 00370    07446 STO +0 60100 0 00340
                 FUNCTION RETURN                                                    853  LM00914
 07447 TRA +0 02000 0 07536
                 ENTRY TO LUP.                                                      854  LM00918
 07450 TRA +0 02000 0 07453    00020 TTR +0 02100 0 07451    07451 SXA +0 63400 2 07532    07452 TSX +0 07400 2 07532
                   LEVEL = LEVEL +1                                                 855  LM00919
 07453 CLA +0 50000 0 00312    07454 ADD +0 40000 0 00370    07455 STO +0 60100 0 00312
                    LEVT=0B                                                         856  LM00920
 07456 CLA +0 50000 0 00367    07457 STO +0 60100 0 00340
                 FUNCTION RETURN                                                    857  LM00921
 07460 TRA +0 02000 0 07536
                 ENTRY TO LDN.                                                      858  LM00925
 07461 TRA +0 02000 0 07464    00016 TTR +0 02100 0 07462    07462 SXA +0 63400 2 07532    07463 TSX +0 07400 2 07532
                 WHENEVER LEV(LEV).E.LEVEL,LEV=LEV-1                                859  LM00926
 07464 LXA +0 53400 1 00337    07465 CLA +0 50000 1 00337    07466 SUB +0 40200 0 00312    07467 TNZ -0 10000 0 07473
 07470 CLA +0 50000 0 00337    07471 SUB +0 40200 0 00370    07472 STO +0 60100 0 00337
                 WHENEVER LEV.E.-1                                                  860  LM00927
 07473 CLS +0 50200 0 00370    07474 CHS +0 76000 0 00002    07475 ADD +0 40000 0 00337    07476 TNZ -0 10000 0 07502
                   ERRO=17                                                          861  LM00928
 07477 CLA +0 50000 0 00406    07500 STO +0 60100 0 00302
                 TRANSFER TO S60                                                    862  LM00929
 07501 TRA +0 02000 0 00051
                 END OF CONDITIONAL                                                 863  LM00930
                 LEVEL= LEVEL-1                                                     864  LM00931
 07502 CLA +0 50000 0 00312    07503 SUB +0 40200 0 00370    07504 STO +0 60100 0 00312
                 WHENEVER LEV(LEV).E.LEVEL                                          865  LM00932
 07505 LXA +0 53400 1 00337    07506 CLA +0 50000 1 00337    07507 SUB +0 40200 0 00312    07510 TNZ -0 10000 0 07514
                 LEVT=1B                                                            866  LM00933
 07511 CLA +0 50000 0 00370    07512 STO +0 60100 0 00340
                 OTHERWISE                                                          867  LM00934
 07513 TRA +0 02000 0 07516
                 LEVT=0B                                                            868  LM00935
 07514 CLA +0 50000 0 00367    07515 STO +0 60100 0 00340
                 END OF CONDITIONAL                                                 869  LM00936
                 FUNCTION RETURN                                                    870  LM00937
 07516 TRA +0 02000 0 07536
                 ENTRY TO LEVIN.                                                    871  LM00941
 07517 TRA +0 02000 0 07522    00017 TTR +0 02100 0 07520    07520 SXA +0 63400 2 07532    07521 TSX +0 07400 2 07532
                 LEV=0                                                              872  LM00942
 07522 CLA +0 50000 0 00367    07523 STO +0 60100 0 00337
                 LEVEL=0                                                            873  LM00943
 07524 CLA +0 50000 0 00367    07525 STO +0 60100 0 00312
                 LEVT=0B                                                            874  LM00944
 07526 CLA +0 50000 0 00367    07527 STO +0 60100 0 00340
                 FUNCTION RETURN                                                    875  LM00945
 07530 TRA +0 02000 0 07536
                 END OF FUNCTION                                                    876  LM00946
 07531 TSX +0 07400 4 00005    07532 TXH +3 00000 0 00000    07533 SXD -0 63400 1 07532    07534 SXA +0 63400 4 07536
 07535 TRA +0 02000 2 00001    07536 AXT +0 77400 4 00000    07537 LXA +0 53400 2 07532    07540 LXD -0 53400 1 07532
 07541 TRA +0 02000 4 00001
                 END OF FUNCTION                                                    877  LM00947
 07542 TSX +0 07400 4 00005    07543 TXH +3 00000 0 00000    07544 SXD -0 63400 1 07543    07545 SXA +0 63400 4 07547
 07546 TRA +0 02000 2 00001    07547 AXT +0 77400 4 00000    07550 LXA +0 53400 2 07543    07551 LXD -0 53400 1 07543
 07552 TRA +0 02000 4 00001
