1     MAD PROGRAM LISTING ... ... ...                 FILE  MADTAB   MAD            02/07/68    2002.0
-
                  EXTERNAL FUNCTION(A1,A2,A3)                                                     *001 LM00001
                  NORMAL MODE IS INTEGER                                                          *002 LM00002
                  PROGRAM COMMON LIST(84)                                                         *003 LM00003
                  BOOLEAN WSEEK                                                                   *004 LM00004
                                                                                                       LM00005
                 RETURN NAME FOR ABSOLUTE LOCATION 'A1' IN TRANSFER VECTOR                             LM00006
                                                                                                       LM00007
                  ENTRY TO TVNAME.                                                                *005 LM00008
                  SSETUP.                                                                         *006 LM00009
                  RELLOC=A1.A.77777K-RELCON                                                       *007 LM00010
                  WHENEVER RELLOC.L.0.OR.RELLOC.G.TVEND-TVBEG, FUNCTION RETURN                    *008 LM00011
                1 0                                                                               *008 LM00012
                  FUNCTION RETURN WGET.(TVBEG+RELLOC)                                             *009 LM00013
                                                                                                       LM00014
                 RETURN ABS.LOC.OF NAME 'A1' IN TRANSFER VECTOR                                        LM00015
                                                                                                       LM00016
                  ENTRY TO TVLOC.                                                                 *010 LM00017
                  SSETUP.                                                                         *011 LM00018
                  THROUGH TVGET,FOR I=TVBEG,1,I.G.TVEND                                           *012 LM00019
      TVGET       WHENEVER A1.E.WGET.(I),FUNCTION RETURN RELCON+I-TVBEG                           *013 LM00020
                  FUNCTION RETURN 0                                                               *014 LM00021
                                                                                                       LM00022
                 RETURN NAME OF VARIABLE AT ABSOLUTE LOCATION A1                                       LM00023
                                                                                                       LM00024
                  ENTRY TO VARNAM.                                                                *015 LM00025
                  SSETUP.                                                                         *016 LM00026
                  RELLOC=A1                                                                       *017 LM00027
                  WHENEVER RELLOC.G.RELCON                                                        *018 LM00028
                  RELLOC=RELLOC-RELCON                                                            *019 LM00029
                  OTHERWISE                                                                       *020 LM00030
                  RELLOC=RELLOC-RELCOM                                                            *021 LM00031
                  END OF CONDITIONAL                                                              *022 LM00032
                  THROUGH VNGET,FOR I=SYMBEG+1,2,I.G.SYMEND                                       *023 LM00033
                  JUNK=WGET.(I).A.77777K                                                          *024 LM00034
      VNGET       WHENEVER JUNK.E.RELLOC,FUNCTION RETURN WGET.(I-1)                               *025 LM00035
                  FUNCTION RETURN $(NONE)$                                                        *026 LM00036
                                                                                                       LM00037
                 RETURN JUNK TELLING ALL ABOUT VARIABLE NAME 'A1'.                                     LM00038
                                                                                                       LM00039
                  ENTRY TO SYMTAB.                                                                *027 LM00040
                  SSETUP.                                                                         *028 LM00041
                  THROUGH SYMGET, FOR I=SYMBEG,2,I.G.SYMEND                                       *029 LM00042
                  WHENEVER A1.E.WGET.(I)                                                          *030 LM00043
                  JUNK=WGET.(I+1)                                                                 *031 LM00044
                  DV=(JUNK.RS.18).A.77777K                                                        *032 LM00045
                  WHENEVER DV.NE.0.AND.DV.L.VARBRK,DV=DV+RELCON                                   *033 LM00046
                  BITS=JUNK.A.700000700000K                                                       *034 LM00047
                  LOC=JUNK.A.77777K                                                               *035 LM00048
                  WHENEVER LOC.L.VARBRK,LOC=LOC+RELCON                                            *036 LM00049
                  JUNK=DV.LS.18.V.BITS.V.LOC                                                      *037 LM00050
                  FUNCTION RETURN JUNK                                                            *038 LM00051
      SYMGET      END OF CONDITIONAL                                                              *039 LM00052
                  FUNCTION RETURN 0                                                               *040 LM00053
                                                                                                       LM00054
                 RETURN ABS. LOC. OF FIRST INSTRUCTION GENERATED BY MAD                                LM00055
                 AFTER PROCESSING CARD WITH SEQUENCE NUMBER 'A1'.                                      LM00056
                                                                                                       LM00057
                  ENTRY TO SNLOC.                                                                 *041 LM00058
                  SSETUP.                                                                         *042 LM00059
                  THROUGH SNLGET, FOR I=SEQBEG,1,I.G.SEQEND                                       *043 LM00060
                  ENTRY=WGET.(I)                                                                  *044 LM00061
      SNLGET      WHENEVER ENTRY.A.77777K.GE.A1,                                                  *045 LM00062
                1 FUNCTION RETURN ENTRY.RS.18+RELCON                                              *045 LM00063
                  PRINT.(COM2)                                                                    *046 LM00064
                  VECTOR VALUES COM2=31,$SNLOC ERROR.  CONSULT LISTINGS.$                         *047 LM00065
                  READY.                                                                          *048 LM00066
                                                                                                       LM00067
                 RETURN SEQUENCE NUMBER OF LAST CARD PROCESSED BY MAD                                  LM00068
                 BEFORE GENERATING INSTRUCTION IN ABS.LOC. 'A1'                                        LM00069
                                                                                                       LM00070
                  ENTRY TO SNNAM.                                                                 *049 LM00071
                  SSETUP.                                                                         *050 LM00072
                  RELLOC=A1-RELCON                                                                *051 LM00073
                  THROUGH SNNGET,FOR I=SEQEND,-1,I.L.SEQBEG                                       *052 LM00074
                  ENTRY=WGET.(I)                                                                  *053 LM00075
                  ENTRYA=ENTRY.A.77777K                                                           *054 LM00076
                  ENTRYD=ENTRY.RS.18                                                              *055 LM00077
      SNNGET      WHENEVER ENTRYD.LE.RELLOC,FUNCTION RETURN ENTRYA                                *056 LM00078
                  FUNCTION RETURN 0                                                               *057 LM00079
                                                                                                       LM00080
                 SET 'A2','A3' TO THE ABS. FIRST LOC., COUNT FOR                                       LM00081
                 PROGRAM AREA INDICATED BY 'A1'                                                        LM00082
                                                                                                       LM00083
                  ENTRY TO MAP.                                                                   *058 LM00084
                  SSETUP.                                                                         *059 LM00085
                  THROUGH GETMAP, FOR I=MAPBEG,2,I.G.MAPEND                                       *060 LM00086
                  WHENEVER A1.E.WGET.(I)                                                          *061 LM00087
                  ENTRY=WGET.(I+1)                                                                *062 LM00088
                  A2=ENTRY.A.77777K+RELCON                                                        *063 LM00089
                  A3=ENTRY.RS.18                                                                  *064 LM00090
                  FUNCTION RETURN                                                                 *065 LM00091
      GETMAP      END OF CONDITIONAL                                                              *066 LM00092
                  A2=0                                                                            *067 LM00093
                  A3=0                                                                            *068 LM00094
                  FUNCTION RETURN                                                                 *069 LM00095
                                                                                                       LM00096
                 SET 'A1','A2' TO NAME, LINEAR SUBSCRIPT OF FIRST                                      LM00097
                 VARIABLE.                                                                             LM00098
                                                                                                       LM00099
                  ENTRY TO FIRVAR.                                                                *070 LM00100
                  SSETUP.                                                                         *071 LM00101
                  A1=FVNAME                                                                       *072 LM00102
                  A2=0                                                                            *073 LM00103
                  FUNCTION RETURN                                                                 *074 LM00104
                                                                                                       LM00105
                 SET 'A1','A2' TO NAME, LINEAR SUBSCRIPT OF LAST                                       LM00106
                 VARIABLE.                                                                             LM00107
                                                                                                       LM00108
                  ENTRY TO LASVAR.                                                                *075 LM00109
                  SSETUP.                                                                         *076 LM00110
                  A1=LVNAME                                                                       *077 LM00111
                  A2=LVSUB                                                                        *078 LM00112
                  FUNCTION RETURN                                                                 *079 LM00113
                                                                                                       LM00114
                 MOVE 'A1','A2' TO POINT AT NAME, LINEAR SUBSCRIPT                                     LM00115
                 OF NEXT VARIABLE IN ALPHABETIC, NUMERIC ORDER.                                        LM00116
                                                                                                       LM00117
                  ENTRY TO NEXVAR.                                                                *080 LM00118
                  SSETUP.                                                                         *081 LM00119
                  THROUGH GETNDM, FOR I=DIMBEG,2,I.G.DIMEND                                       *082 LM00120
                  WHENEVER WGET.(I).E.A1                                                          *083 LM00121
                  NDM=WGET.(I+1).RS.18-1                                                          *084 LM00122
                  TRANSFER TO GOTNDM                                                              *085 LM00123
      GETNDM      END OF CONDITIONAL                                                              *086 LM00124
                  NDM=0                                                                           *087 LM00125
                                                                                                       LM00126
      GOTNDM      WHENEVER A2.L.NDM                                                               *088 LM00127
                  A2=A2+1                                                                         *089 LM00128
                  FUNCTION RETURN                                                                 *090 LM00129
                  END OF CONDITIONAL                                                              *091 LM00130
                                                                                                       LM00131
                  A2=0                                                                            *092 LM00132
                  THROUGH GETNNM,FOR I=SYMBEG,2,I.G.SYMEND                                        *093 LM00133
                  WHENEVER WGET.(I).E.A1                                                          *094 LM00134
                  WHENEVER I+10.L.SYMEND                                                          *095 LM00135
                  A1=WGET.(I+10)                                                                  *096 LM00136
                  OTHERWISE                                                                       *097 LM00137
                  I=I-SYMBEG                                                                      *098 LM00138
                  I=I-10*(I/10)                                                                   *099 LM00139
                  A1=WGET.(SYMBEG+I+2)                                                            *100 LM00140
                  END OF CONDITIONAL                                                              *101 LM00141
                  FUNCTION RETURN                                                                 *102 LM00142
      GETNNM      END OF CONDITIONAL                                                              *103 LM00143
                  PRINT.(COM1)                                                                    *104 LM00144
                  VECTOR VALUES COM1=32,$NEXVAR ERROR.  CONSULT LISTINGS.$                        *105 LM00145
                  READY.                                                                          *106 LM00146
                                                                                                       LM00147
                 RETURN DIMENSIONED LENGTH OF NAME 'S1'.                                               LM00148
                                                                                                       LM00149
                  ENTRY TO DIM.                                                                   *107 LM00150
                  SSETUP.                                                                         *108 LM00151
                  THROUGH GETDIM, FOR I=DIMBEG,2,I.G.DIMEND                                       *109 LM00152
      GETDIM      WHENEVER WGET.(I).E.A1,FUNCTION RETURN WGET.(I+1).RS.18-1                       *110 LM00153
                  FUNCTION RETURN 0                                                               *111 LM00154
                                                                                                       LM00155
                 RETURN MAXIMUM DIMENSIONED LENGTH OF ABS. LOC. 'A1'.                                  LM00156
                                                                                                       LM00157
                  ENTRY TO MAXDIM.                                                                *112 LM00158
                  SSETUP.                                                                         *113 LM00159
                  RELLOC=A1                                                                       *114 LM00160
                  WHENEVER RELLOC.G.RELCON                                                        *115 LM00161
                  RELLOC=RELLOC-RELCON                                                            *116 LM00162
                  OTHERWISE                                                                       *117 LM00163
                  RELLOC=RELLOC-RELCOM                                                            *118 LM00164
                  END OF CONDITIONAL                                                              *119 LM00165
                  MAX=1                                                                           *120 LM00166
                  THROUGH GETMDM, FOR I=DIMBEG+1,2,I.G.DIMEND                                     *121 LM00167
                  ENTRY=WGET.(I)                                                                  *122 LM00168
      GETMDM      WHENEVER RELLOC.E.ENTRY.A.77777K.AND.MAX.L.ENTRY.RS.18,                         *123 LM00169
                1 MAX=ENTRY.RS.18                                                                 *123 LM00170
                  FUNCTION RETURN MAX-1                                                           *124 LM00171
                                                                                                       LM00172
                 SET UP MADTAB IN WINDOW IF NOT ALREADY.                                               LM00173
                                                                                                       LM00174
                  INTERNAL FUNCTION                                                               *125 LM00175
                  ENTRY TO SSETUP.                                                                *126 LM00176
                  WHENEVER WSEEK.($MADTAB$),FUNCTION RETURN                                       *127 LM00177
                  GWORK.(MADTAB)                                                                  *128 LM00178
                  VECTOR VALUES MADTAB=$******SYMTAB$                                             *129 LM00179
                                                                                                       LM00180
                  WHENEVER FSTAT.(MADTAB).E.0                                                     *130 LM00181
                  TRANS.(MADTAB)                                                                  *131 LM00182
                  WHENEVER FSTAT.(MADTAB).E.0                                                     *132 LM00183
                  PRINT.(COM3)                                                                    *133 LM00184
                  VECTOR VALUES COM3=37,$CORRECT THIS CONDITION AND TRY AGAIN.$                   *134 LM00185
                  READY.                                                                          *135 LM00186
                  END OF CONDITIONAL                                                              *136 LM00187
                  END OF CONDITIONAL                                                              *137 LM00188
                                                                                                       LM00189
                  WSETUP.($MADTAB$,MADTAB,0)                                                      *138 LM00190
                                                                                                       LM00191
                  WSIZE.(SIZE)                                                                    *139 LM00192
                                                                                                       LM00193
                  TVBEG=0                                                                         *140 LM00194
                  TVEND=-1                                                                        *141 LM00195
                  SYMBEG=0                                                                        *142 LM00196
                  SYMEND=-1                                                                       *143 LM00197
                  DIMBEG=0                                                                        *144 LM00198
                  DIMEND=-1                                                                       *145 LM00199
                  THROUGH SFIND,FOR I=4,2+SCOUNT,I.G.SIZE                                         *146 LM00200
                  SNAME=WGET.(I)                                                                  *147 LM00201
                  SCOUNT=WGET.(I+1)                                                               *148 LM00202
                  BEG=I+2                                                                         *149 LM00203
                  END=I+1+SCOUNT                                                                  *150 LM00204
                  WHENEVER SNAME.E.$SYMBOL$                                                       *151 LM00205
                  SYMBEG=BEG                                                                      *152 LM00206
                  SYMEND=END                                                                      *153 LM00207
                  OR WHENEVER SNAME.E.$SEQNOS$                                                    *154 LM00208
                  SEQBEG=BEG                                                                      *155 LM00209
                  SEQEND=END                                                                      *156 LM00210
                  OR WHENEVER SNAME.E.$TV$                                                        *157 LM00211
                  TVBEG=BEG                                                                       *158 LM00212
                  TVEND=END                                                                       *159 LM00213
                  OR WHENEVER SNAME.E.$DIM$                                                       *160 LM00214
                  DIMBEG=BEG                                                                      *161 LM00215
                  DIMEND=END                                                                      *162 LM00216
                  OR WHENEVER SNAME.E.$MAP$                                                       *163 LM00217
                  MAPBEG=BEG                                                                      *164 LM00218
                  MAPEND=END                                                                      *165 LM00219
      SFIND       END OF CONDITIONAL                                                              *166 LM00220
                                                                                                       LM00221
                  WHENEVER SYMBEG.NE.0                                                            *167 LM00222
                  FVNAME=WGET.(SYMBEG)                                                            *168 LM00223
                  WHENEVER SYMEND+1-SYMBEG.G.10                                                   *169 LM00224
                  LVNAME=WGET.(10*((SYMEND+1-SYMBEG)/10)+SYMBEG-2)                                *170 LM00225
                  OTHERWISE                                                                       *171 LM00226
                  LVNAME=WGET.(SYMEND-1)                                                          *172 LM00227
                  END OF CONDITIONAL                                                              *173 LM00228
                  THROUGH LVSGET, FOR I=DIMBEG,2,I.G.DIMEND                                       *174 LM00229
                  WHENEVER WGET.(I).E.LVNAME                                                      *175 LM00230
                  LVSUB=WGET.(I+1).RS.18-1                                                        *176 LM00231
                  TRANSFER TO LVSGOT                                                              *177 LM00232
      LVSGET      END OF CONDITIONAL                                                              *178 LM00233
                  LVSUB=0                                                                         *179 LM00234
      LVSGOT      CONTINUE                                                                        *180 LM00235
                  OTHERWISE                                                                       *181 LM00236
                  FVNAME=$(NONE)$                                                                 *182 LM00237
                  END OF CONDITIONAL                                                              *183 LM00238
                                                                                                       LM00239
                  ORG.(MADTAB,RELCON,COUNT)                                                       *184 LM00240
                  ORG.($(CMMN)$,START,COUNT)                                                      *185 LM00241
                  RELCOM=START+COUNT                                                              *186 LM00242
                  WSEEK.($MADTAB$)                                                                *187 LM00243
      VBFIND      THROUGH VBFIND,FOR I=MAPBEG,2,WGET.(I).E.$VAR$                                  *188 LM00244
                  ENTRY=WGET.(I+1)                                                                *189 LM00245
                  VARBRK=ENTRY.A.77777K+ENTRY.RS.18                                               *190 LM00246
                  FUNCTION RETURN                                                                 *191 LM00247
                  END OF FUNCTION                                                                 *192 LM00248
                  END OF FUNCTION                                                                 *193 LM00249
1MAD PROGRAM,TYPE NOV 1963      (ALL NUMBERS ARE OCTAL)
0TOTAL LOCATIONS   01517 TRANSFER VECTOR LENGTH  00013 PROGRAM BEGINS    00133 FIRST UNUSED COMMON/ERASABLE  77334
0 PROGRAM IS AN EXTERNAL FUNCTION.   THE FOLLOWING ARE ENTRIES
      MAXDIM 01013   0        DIM    00750   0        NEXVAR 00610   0        LASVAR 00577   0        FIRVAR 00566   0
      MAP    00513   0        SNNAM  00446   0        SNLOC  00402   0        SYMTAB 00300   0        VARNAM 00222   0
      TVLOC  00170   0        TVNAME 00134   0
0VARIABLE STORAGE (A=ARRAY,C=COMMON,E=ERASABLE,DIGIT=MODE)
      BEG    00017   1        ENTRYD 00055   1        LIST   77461 AC1        RELCOM 00073   1        START  00103   1
      BITS   00020   1        ENTRY  00056   1        LOC    00062   1        RELCON 00074   1        SYMBEG 00104   1
      COM1   00027 A 1        FVNAME 00057   1        LVNAME 00063   1        RELLOC 00075   1        SYMEND 00105   1
      COM2   00036 A 1        GETDIM 00014   4        LVSGET 00014   4        SCOUNT 00076   1        SYMGET 00014   4
      COM3   00046 A 1        GETMAP 00014   4        LVSGOT 00016   4        SEQBEG 00077   1        TVBEG  00106   1
      COUNT  00047   1        GETMDM 00014   4        LVSUB  00064   1        SEQEND 00100   1        TVEND  00107   1
      DIMBEG 00050   1        GETNDM 00014   4        MADTAB 00066 A 1        SFIND  00014   4        TVGET  00014   4
      DIMEND 00051   1        GETNNM 00014   4        MAPBEG 00067   1        SIZE   00101   1        VARBRK 00110   1
      DV     00052   1        GOTNDM 00015   4        MAPEND 00070   1        SNAME  00102   1        VBFIND 00014   4
      END    00053   1        I      00060   1        MAX    00071   1        SNLGET 00014   4        VNGET  00014   4
      ENTRYA 00054   1        JUNK   00061   1        NDM    00072   1        SNNGET 00014   4
0FUNCTION DICTIONARY
      EXIT   00000   1        FSTAT  00001   1        GWORK  00002   1        ORG    00003   1        PRINT  00004   1
      READY  00005   1        TRANS  00006   1        WGET   00007   1        WSEEK  00010   2        WSETUP 00011   1
      WSIZE  00012   1        SSETUP 00013   1
0ABSOLUTE CONSTANTS
 00127 -252151606060     00131 -342344444534     00123 -042147606060     00121 +243144606060     00126 -236560606060
 00124 -222550454662     00125 -227044224643     00114 +000000000004     00122 -042124632122     00115 +000000000012
 00130 -300000700000     00116 +000000000022     00132 -344546452534     00113 +000000000002     00111 +000000000000
 00117 +000000077777     00112 +000000000001     00120 +233000000000
0STATEMENT DICTIONARY
 00015 TXL -300657000653       00016 TXL -301357001357
0PROGRAM
                 EXTERNAL FUNCTION(A1,A2,A3)                                        001  LM00001
                 NORMAL MODE IS INTEGER                                             002  LM00002
                 PROGRAM COMMON LIST(84)                                            003  LM00003
                 BOOLEAN WSEEK                                                      004  LM00004
                 ENTRY TO TVNAME.                                                   005  LM00008
 00133 TRA +0 02000 0 00136    00134 SXA +0 63400 2 01450    00135 TSX +0 07400 2 01450
                 SSETUP.                                                            006  LM00009
 00136 TSX +0 07400 4 00013
                 RELLOC=A1.A.77777K-RELCON                                          007  LM00010
 00137 CAL -0 50000 0 00000    00140 ANA -0 32000 0 00117    00141 SLW +0 60200 0 01514    00142 CLA +0 50000 0 01514
 00143 SUB +0 40200 0 00074    00144 STO +0 60100 0 00075
                 WHENEVER RELLOC.L.0.OR.RELLOC.G.TVEND-TVBEG, FUNCTION RETURN       008  LM00011
                10                                                                  008  LM00012
 00145 CLA +0 50000 0 00107    00146 SUB +0 40200 0 00106    00147 CHS +0 76000 0 00002    00150 ADD +0 40000 0 00075
 00151 TZE +0 10000 0 00153    00152 TPL +0 12000 0 00157    00153 CLA +0 50000 0 00075    00154 SUB +0 40200 0 00111
 00155 TZE +0 10000 0 00161    00156 TPL +0 12000 0 00161    00157 CLA +0 50000 0 00111    00160 TRA +0 02000 0 01510
                 FUNCTION RETURN WGET.(TVBEG+RELLOC)                                009  LM00013
 00161 CLA +0 50000 0 00106    00162 ADD +0 40000 0 00075    00163 STO +0 60100 0 01514    00164 TSX +0 07400 4 00007
 00165 TXH +3 00000 0 01514    00166 TRA +0 02000 0 01510
                 ENTRY TO TVLOC.                                                    010  LM00017
 00167 TRA +0 02000 0 00172    00170 SXA +0 63400 2 01450    00171 TSX +0 07400 2 01450
                 SSETUP.                                                            011  LM00018
 00172 TSX +0 07400 4 00013
                 THROUGH TVGET,FOR I=TVBEG,1,I.G.TVEND                              012  LM00019
 00173 CLA +0 50000 0 00106    00174 STO +0 60100 0 00060    00175 TRA +0 02000 0 00201    00176 CLA +0 50000 0 00060
 00177 ADD +0 40000 0 00112    00200 STO +0 60100 0 00060    00201 CLA +0 50000 0 00060    00202 SUB +0 40200 0 00107
 00203 TZE +0 10000 0 00205    00204 TPL +0 12000 0 00217
      TVGET      WHENEVER A1.E.WGET.(I),FUNCTION RETURN RELCON+I-TVBEG              013  LM00020
 00205 TSX +0 07400 4 00007    00206 TXH +3 00000 0 00060    00207 CHS +0 76000 0 00002    00210 ADD +0 40000 0 00000
 00211 TNZ -0 10000 0 00216    00212 CLA +0 50000 0 00074    00213 ADD +0 40000 0 00060    00214 SUB +0 40200 0 00106
 00215 TRA +0 02000 0 01510    00216 TRA +0 02000 0 00176
                 FUNCTION RETURN 0                                                  014  LM00021
 00217 CLA +0 50000 0 00111    00220 TRA +0 02000 0 01510
                 ENTRY TO VARNAM.                                                   015  LM00025
 00221 TRA +0 02000 0 00224    00222 SXA +0 63400 2 01450    00223 TSX +0 07400 2 01450
                 SSETUP.                                                            016  LM00026
 00224 TSX +0 07400 4 00013
                 RELLOC=A1                                                          017  LM00027
 00225 CLA +0 50000 0 00000    00226 STO +0 60100 0 00075
                 WHENEVER RELLOC.G.RELCON                                           018  LM00028
 00227 CLA +0 50000 0 00075    00230 SUB +0 40200 0 00074    00231 TZE +0 10000 0 00237    00232 TMI -0 12000 0 00237
                 RELLOC=RELLOC-RELCON                                               019  LM00029
 00233 CLA +0 50000 0 00075    00234 SUB +0 40200 0 00074    00235 STO +0 60100 0 00075
                 OTHERWISE                                                          020  LM00030
 00236 TRA +0 02000 0 00242
                 RELLOC=RELLOC-RELCOM                                               021  LM00031
 00237 CLA +0 50000 0 00075    00240 SUB +0 40200 0 00073    00241 STO +0 60100 0 00075
                 END OF CONDITIONAL                                                 022  LM00032
                 THROUGH VNGET,FOR I=SYMBEG+1,2,I.G.SYMEND                          023  LM00033
 00242 CLA +0 50000 0 00104    00243 ADD +0 40000 0 00112    00244 STO +0 60100 0 00060    00245 TRA +0 02000 0 00251
 00246 CLA +0 50000 0 00060    00247 ADD +0 40000 0 00113    00250 STO +0 60100 0 00060    00251 CLA +0 50000 0 00060
 00252 SUB +0 40200 0 00105    00253 TZE +0 10000 0 00255    00254 TPL +0 12000 0 00275
                 JUNK=WGET.(I).A.77777K                                             024  LM00034
 00255 TSX +0 07400 4 00007    00256 TXH +3 00000 0 00060    00257 STO +0 60100 0 01514    00260 CAL -0 50000 0 01514
 00261 ANA -0 32000 0 00117    00262 SLW +0 60200 0 00061
      VNGET      WHENEVER JUNK.E.RELLOC,FUNCTION RETURN WGET.(I-1)                  025  LM00035
 00263 CLA +0 50000 0 00061    00264 SUB +0 40200 0 00075    00265 TNZ -0 10000 0 00274    00266 CLA +0 50000 0 00060
 00267 SUB +0 40200 0 00112    00270 STO +0 60100 0 01514    00271 TSX +0 07400 4 00007    00272 TXH +3 00000 0 01514
 00273 TRA +0 02000 0 01510    00274 TRA +0 02000 0 00246
                 FUNCTION RETURN $(NONE)$                                           026  LM00036
 00275 CLA +0 50000 0 00132    00276 TRA +0 02000 0 01510
                 ENTRY TO SYMTAB.                                                   027  LM00040
 00277 TRA +0 02000 0 00302    00300 SXA +0 63400 2 01450    00301 TSX +0 07400 2 01450
                 SSETUP.                                                            028  LM00041
 00302 TSX +0 07400 4 00013
                 THROUGH SYMGET, FOR I=SYMBEG,2,I.G.SYMEND                          029  LM00042
 00303 CLA +0 50000 0 00104    00304 STO +0 60100 0 00060    00305 TRA +0 02000 0 00311    00306 CLA +0 50000 0 00060
 00307 ADD +0 40000 0 00113    00310 STO +0 60100 0 00060    00311 CLA +0 50000 0 00060    00312 SUB +0 40200 0 00105
 00313 TZE +0 10000 0 00315    00314 TPL +0 12000 0 00377
                 WHENEVER A1.E.WGET.(I)                                             030  LM00043
 00315 TSX +0 07400 4 00007    00316 TXH +3 00000 0 00060    00317 CHS +0 76000 0 00002    00320 ADD +0 40000 0 00000
 00321 TNZ -0 10000 0 00376
                 JUNK=WGET.(I+1)                                                    031  LM00044
 00322 CLA +0 50000 0 00060    00323 ADD +0 40000 0 00112    00324 STO +0 60100 0 01514    00325 TSX +0 07400 4 00007
 00326 TXH +3 00000 0 01514    00327 STO +0 60100 0 00061
                 DV=(JUNK.RS.18).A.77777K                                           032  LM00045
 00330 CAL -0 50000 0 00116    00331 STA +0 62100 0 00333    00332 CAL -0 50000 0 00061    00333 LGR -0 76500 0 00000
 00334 ANA -0 32000 0 00117    00335 SLW +0 60200 0 00052
                 WHENEVER DV.NE.0.AND.DV.L.VARBRK,DV=DV+RELCON                      033  LM00046
 00336 CLA +0 50000 0 00052    00337 SUB +0 40200 0 00110    00340 TZE +0 10000 0 00350    00341 TPL +0 12000 0 00350
 00342 CLA +0 50000 0 00052    00343 SUB +0 40200 0 00111    00344 TZE +0 10000 0 00350    00345 CLA +0 50000 0 00052
 00346 ADD +0 40000 0 00074    00347 STO +0 60100 0 00052
                 BITS=JUNK.A.700000700000K                                          034  LM00047
 00350 CAL -0 50000 0 00061    00351 ANA -0 32000 0 00130    00352 SLW +0 60200 0 00020
                 LOC=JUNK.A.77777K                                                  035  LM00048
 00353 CAL -0 50000 0 00061    00354 ANA -0 32000 0 00117    00355 SLW +0 60200 0 00062
                 WHENEVER LOC.L.VARBRK,LOC=LOC+RELCON                               036  LM00049
 00356 CLA +0 50000 0 00062    00357 SUB +0 40200 0 00110    00360 TZE +0 10000 0 00365    00361 TPL +0 12000 0 00365
 00362 CLA +0 50000 0 00062    00363 ADD +0 40000 0 00074    00364 STO +0 60100 0 00062
                 JUNK=DV.LS.18.V.BITS.V.LOC                                         037  LM00050
 00365 CAL -0 50000 0 00116    00366 STA +0 62100 0 00370    00367 CAL -0 50000 0 00052    00370 ALS +0 76700 0 00000
 00371 ORA -0 50100 0 00020    00372 ORA -0 50100 0 00062    00373 SLW +0 60200 0 00061
                 FUNCTION RETURN JUNK                                               038  LM00051
 00374 CLA +0 50000 0 00061    00375 TRA +0 02000 0 01510
      SYMGET     END OF CONDITIONAL                                                 039  LM00052
 00376 TRA +0 02000 0 00306
                 FUNCTION RETURN 0                                                  040  LM00053
 00377 CLA +0 50000 0 00111    00400 TRA +0 02000 0 01510
                 ENTRY TO SNLOC.                                                    041  LM00058
 00401 TRA +0 02000 0 00404    00402 SXA +0 63400 2 01450    00403 TSX +0 07400 2 01450
                 SSETUP.                                                            042  LM00059
 00404 TSX +0 07400 4 00013
                 THROUGH SNLGET, FOR I=SEQBEG,1,I.G.SEQEND                          043  LM00060
 00405 CLA +0 50000 0 00077    00406 STO +0 60100 0 00060    00407 TRA +0 02000 0 00413    00410 CLA +0 50000 0 00060
 00411 ADD +0 40000 0 00112    00412 STO +0 60100 0 00060    00413 CLA +0 50000 0 00060    00414 SUB +0 40200 0 00100
 00415 TZE +0 10000 0 00417    00416 TPL +0 12000 0 00442
                 ENTRY=WGET.(I)                                                     044  LM00061
 00417 TSX +0 07400 4 00007    00420 TXH +3 00000 0 00060    00421 STO +0 60100 0 00056
      SNLGET     WHENEVER ENTRY.A.77777K.GE.A1,                                     045  LM00062
                1FUNCTION RETURN ENTRY.RS.18+RELCON                                 045  LM00063
 00422 CAL -0 50000 0 00056    00423 ANA -0 32000 0 00117    00424 SLW +0 60200 0 01514    00425 CLA +0 50000 0 01514
 00426 SUB +0 40200 0 00000    00427 TZE +0 10000 0 00431    00430 TMI -0 12000 0 00441    00431 CAL -0 50000 0 00116
 00432 STA +0 62100 0 00434    00433 CAL -0 50000 0 00056    00434 LGR -0 76500 0 00000    00435 SLW +0 60200 0 01514
 00436 CLA +0 50000 0 01514    00437 ADD +0 40000 0 00074    00440 TRA +0 02000 0 01510    00441 TRA +0 02000 0 00410
                 PRINT.(COM2)                                                       046  LM00064
 00442 TSX +0 07400 4 00004    00443 TXH +3 00000 0 00036
                 VECTOR VALUES COM2=31,$SNLOC ERROR.  CONSULT LISTINGS.$            047  LM00065
 00030     +3 36060 6 06060    00031     -2 26331 4 52762    00032     -2 44363 6 04331    00033     -2 06023 4 64562
 00034     +2 55151 4 65133    00035     -2 24543 4 62360    00036     +0 00000 0 00037
                 READY.                                                             048  LM00066
 00444 TSX +0 07400 4 00005
                 ENTRY TO SNNAM.                                                    049  LM00071
 00445 TRA +0 02000 0 00450    00446 SXA +0 63400 2 01450    00447 TSX +0 07400 2 01450
                 SSETUP.                                                            050  LM00072
 00450 TSX +0 07400 4 00013
                 RELLOC=A1-RELCON                                                   051  LM00073
 00451 CLA +0 50000 0 00000    00452 SUB +0 40200 0 00074    00453 STO +0 60100 0 00075
                 THROUGH SNNGET,FOR I=SEQEND,-1,I.L.SEQBEG                          052  LM00074
 00454 CLA +0 50000 0 00100    00455 STO +0 60100 0 00060    00456 TRA +0 02000 0 00462    00457 CLS +0 50200 0 00112
 00460 ADD +0 40000 0 00060    00461 STO +0 60100 0 00060    00462 CLA +0 50000 0 00060    00463 SUB +0 40200 0 00077
 00464 TZE +0 10000 0 00466    00465 TMI -0 12000 0 00510
                 ENTRY=WGET.(I)                                                     053  LM00075
 00466 TSX +0 07400 4 00007    00467 TXH +3 00000 0 00060    00470 STO +0 60100 0 00056
                 ENTRYA=ENTRY.A.77777K                                              054  LM00076
 00471 CAL -0 50000 0 00056    00472 ANA -0 32000 0 00117    00473 SLW +0 60200 0 00054
                 ENTRYD=ENTRY.RS.18                                                 055  LM00077
 00474 CAL -0 50000 0 00116    00475 STA +0 62100 0 00477    00476 CAL -0 50000 0 00056    00477 LGR -0 76500 0 00000
 00500 SLW +0 60200 0 00055
      SNNGET     WHENEVER ENTRYD.LE.RELLOC,FUNCTION RETURN ENTRYA                   056  LM00078
 00501 CLA +0 50000 0 00055    00502 SUB +0 40200 0 00075    00503 TZE +0 10000 0 00505    00504 TPL +0 12000 0 00507
 00505 CLA +0 50000 0 00054    00506 TRA +0 02000 0 01510    00507 TRA +0 02000 0 00457
                 FUNCTION RETURN 0                                                  057  LM00079
 00510 CLA +0 50000 0 00111    00511 TRA +0 02000 0 01510
                 ENTRY TO MAP.                                                      058  LM00084
 00512 TRA +0 02000 0 00515    00513 SXA +0 63400 2 01450    00514 TSX +0 07400 2 01450
                 SSETUP.                                                            059  LM00085
 00515 TSX +0 07400 4 00013
                 THROUGH GETMAP, FOR I=MAPBEG,2,I.G.MAPEND                          060  LM00086
 00516 CLA +0 50000 0 00067    00517 STO +0 60100 0 00060    00520 TRA +0 02000 0 00524    00521 CLA +0 50000 0 00060
 00522 ADD +0 40000 0 00113    00523 STO +0 60100 0 00060    00524 CLA +0 50000 0 00060    00525 SUB +0 40200 0 00070
 00526 TZE +0 10000 0 00530    00527 TPL +0 12000 0 00560
                 WHENEVER A1.E.WGET.(I)                                             061  LM00087
 00530 TSX +0 07400 4 00007    00531 TXH +3 00000 0 00060    00532 CHS +0 76000 0 00002    00533 ADD +0 40000 0 00000
 00534 TNZ -0 10000 0 00557
                 ENTRY=WGET.(I+1)                                                   062  LM00088
 00535 CLA +0 50000 0 00060    00536 ADD +0 40000 0 00112    00537 STO +0 60100 0 01514    00540 TSX +0 07400 4 00007
 00541 TXH +3 00000 0 01514    00542 STO +0 60100 0 00056
                 A2=ENTRY.A.77777K+RELCON                                           063  LM00089
 00543 CAL -0 50000 0 00056    00544 ANA -0 32000 0 00117    00545 SLW +0 60200 0 01514    00546 CLA +0 50000 0 01514
 00547 ADD +0 40000 0 00074    00550 STO +0 60100 0 00000
                 A3=ENTRY.RS.18                                                     064  LM00090
 00551 CAL -0 50000 0 00116    00552 STA +0 62100 0 00554    00553 CAL -0 50000 0 00056    00554 LGR -0 76500 0 00000
 00555 SLW +0 60200 0 00000
                 FUNCTION RETURN                                                    065  LM00091
 00556 TRA +0 02000 0 01510
      GETMAP     END OF CONDITIONAL                                                 066  LM00092
 00557 TRA +0 02000 0 00521
                 A2=0                                                               067  LM00093
 00560 CLA +0 50000 0 00111    00561 STO +0 60100 0 00000
                 A3=0                                                               068  LM00094
 00562 CLA +0 50000 0 00111    00563 STO +0 60100 0 00000
                 FUNCTION RETURN                                                    069  LM00095
 00564 TRA +0 02000 0 01510
                 ENTRY TO FIRVAR.                                                   070  LM00100
 00565 TRA +0 02000 0 00570    00566 SXA +0 63400 2 01450    00567 TSX +0 07400 2 01450
                 SSETUP.                                                            071  LM00101
 00570 TSX +0 07400 4 00013
                 A1=FVNAME                                                          072  LM00102
 00571 CLA +0 50000 0 00057    00572 STO +0 60100 0 00000
                 A2=0                                                               073  LM00103
 00573 CLA +0 50000 0 00111    00574 STO +0 60100 0 00000
                 FUNCTION RETURN                                                    074  LM00104
 00575 TRA +0 02000 0 01510
                 ENTRY TO LASVAR.                                                   075  LM00109
 00576 TRA +0 02000 0 00601    00577 SXA +0 63400 2 01450    00600 TSX +0 07400 2 01450
                 SSETUP.                                                            076  LM00110
 00601 TSX +0 07400 4 00013
                 A1=LVNAME                                                          077  LM00111
 00602 CLA +0 50000 0 00063    00603 STO +0 60100 0 00000
                 A2=LVSUB                                                           078  LM00112
 00604 CLA +0 50000 0 00064    00605 STO +0 60100 0 00000
                 FUNCTION RETURN                                                    079  LM00113
 00606 TRA +0 02000 0 01510
                 ENTRY TO NEXVAR.                                                   080  LM00118
 00607 TRA +0 02000 0 00612    00610 SXA +0 63400 2 01450    00611 TSX +0 07400 2 01450
                 SSETUP.                                                            081  LM00119
 00612 TSX +0 07400 4 00013
                 THROUGH GETNDM, FOR I=DIMBEG,2,I.G.DIMEND                          082  LM00120
 00613 CLA +0 50000 0 00050    00614 STO +0 60100 0 00060    00615 TRA +0 02000 0 00621    00616 CLA +0 50000 0 00060
 00617 ADD +0 40000 0 00113    00620 STO +0 60100 0 00060    00621 CLA +0 50000 0 00060    00622 SUB +0 40200 0 00051
 00623 TZE +0 10000 0 00625    00624 TPL +0 12000 0 00651
                 WHENEVER WGET.(I).E.A1                                             083  LM00121
 00625 TSX +0 07400 4 00007    00626 TXH +3 00000 0 00060    00627 SUB +0 40200 0 00000    00630 TNZ -0 10000 0 00650
                 NDM=WGET.(I+1).RS.18-1                                             084  LM00122
 00631 CLA +0 50000 0 00060    00632 ADD +0 40000 0 00112    00633 STO +0 60100 0 01514    00634 TSX +0 07400 4 00007
 00635 TXH +3 00000 0 01514    00636 STO +0 60100 0 01514    00637 CAL -0 50000 0 00116    00640 STA +0 62100 0 00642
 00641 CAL -0 50000 0 01514    00642 LGR -0 76500 0 00000    00643 SLW +0 60200 0 01514    00644 CLA +0 50000 0 01514
 00645 SUB +0 40200 0 00112    00646 STO +0 60100 0 00072
                 TRANSFER TO GOTNDM                                                 085  LM00123
 00647 TRA +0 02000 0 00015
      GETNDM     END OF CONDITIONAL                                                 086  LM00124
 00650 TRA +0 02000 0 00616
                 NDM=0                                                              087  LM00125
 00651 CLA +0 50000 0 00111    00652 STO +0 60100 0 00072
      GOTNDM     WHENEVER A2.L.NDM                                                  088  LM00127
 00653 CLA +0 50000 0 00000    00654 SUB +0 40200 0 00072    00655 TZE +0 10000 0 00663    00656 TPL +0 12000 0 00663
                 A2=A2+1                                                            089  LM00128
 00657 CLA +0 50000 0 00000    00660 ADD +0 40000 0 00112    00661 STO +0 60100 0 00000
                 FUNCTION RETURN                                                    090  LM00129
 00662 TRA +0 02000 0 01510
                 END OF CONDITIONAL                                                 091  LM00130
                 A2=0                                                               092  LM00132
 00663 CLA +0 50000 0 00111    00664 STO +0 60100 0 00000
                 THROUGH GETNNM,FOR I=SYMBEG,2,I.G.SYMEND                           093  LM00133
 00665 CLA +0 50000 0 00104    00666 STO +0 60100 0 00060    00667 TRA +0 02000 0 00673    00670 CLA +0 50000 0 00060
 00671 ADD +0 40000 0 00113    00672 STO +0 60100 0 00060    00673 CLA +0 50000 0 00060    00674 SUB +0 40200 0 00105
 00675 TZE +0 10000 0 00677    00676 TPL +0 12000 0 00744
                 WHENEVER WGET.(I).E.A1                                             094  LM00134
 00677 TSX +0 07400 4 00007    00700 TXH +3 00000 0 00060    00701 SUB +0 40200 0 00000    00702 TNZ -0 10000 0 00743
                 WHENEVER I+10.L.SYMEND                                             095  LM00135
 00703 CLA +0 50000 0 00060    00704 ADD +0 40000 0 00115    00705 SUB +0 40200 0 00105    00706 TZE +0 10000 0 00717
 00707 TPL +0 12000 0 00717
                 A1=WGET.(I+10)                                                     096  LM00136
 00710 CLA +0 50000 0 00060    00711 ADD +0 40000 0 00115    00712 STO +0 60100 0 01514    00713 TSX +0 07400 4 00007
 00714 TXH +3 00000 0 01514    00715 STO +0 60100 0 00000
                 OTHERWISE                                                          097  LM00137
 00716 TRA +0 02000 0 00742
                 I=I-SYMBEG                                                         098  LM00138
 00717 CLA +0 50000 0 00060    00720 SUB +0 40200 0 00104    00721 STO +0 60100 0 00060
                 I=I-10*(I/10)                                                      099  LM00139
 00722 LDQ +0 56000 0 00060    00723 PXD -0 75400 0 00000    00724 LLS +0 76300 0 00000    00725 DVP +0 22100 0 00115
 00726 MPY +0 20000 0 00115    00727 XCA +0 13100 0 00000    00730 CHS +0 76000 0 00002    00731 ADD +0 40000 0 00060
 00732 STO +0 60100 0 00060
                 A1=WGET.(SYMBEG+I+2)                                               100  LM00140
 00733 CLA +0 50000 0 00104    00734 ADD +0 40000 0 00060    00735 ADD +0 40000 0 00113    00736 STO +0 60100 0 01514
 00737 TSX +0 07400 4 00007    00740 TXH +3 00000 0 01514    00741 STO +0 60100 0 00000
                 END OF CONDITIONAL                                                 101  LM00141
                 FUNCTION RETURN                                                    102  LM00142
 00742 TRA +0 02000 0 01510
      GETNNM     END OF CONDITIONAL                                                 103  LM00143
 00743 TRA +0 02000 0 00670
                 PRINT.(COM1)                                                       104  LM00144
 00744 TSX +0 07400 4 00004    00745 TXH +3 00000 0 00027
                 VECTOR VALUES COM1=32,$NEXVAR ERROR.  CONSULT LISTINGS.$           105  LM00145
 00021     -2 23360 6 06060    00022     +3 16263 3 14527    00023     -2 26443 6 36043    00024     +3 36060 2 34645
 00025     -2 02551 5 14651    00026     -0 52567 6 52151    00027     +0 00000 0 00040
                 READY.                                                             106  LM00146
 00746 TSX +0 07400 4 00005
                 ENTRY TO DIM.                                                      107  LM00150
 00747 TRA +0 02000 0 00752    00750 SXA +0 63400 2 01450    00751 TSX +0 07400 2 01450
                 SSETUP.                                                            108  LM00151
 00752 TSX +0 07400 4 00013
                 THROUGH GETDIM, FOR I=DIMBEG,2,I.G.DIMEND                          109  LM00152
 00753 CLA +0 50000 0 00050    00754 STO +0 60100 0 00060    00755 TRA +0 02000 0 00761    00756 CLA +0 50000 0 00060
 00757 ADD +0 40000 0 00113    00760 STO +0 60100 0 00060    00761 CLA +0 50000 0 00060    00762 SUB +0 40200 0 00051
 00763 TZE +0 10000 0 00765    00764 TPL +0 12000 0 01010
      GETDIM     WHENEVER WGET.(I).E.A1,FUNCTION RETURN WGET.(I+1).RS.18-1          110  LM00153
 00765 TSX +0 07400 4 00007    00766 TXH +3 00000 0 00060    00767 SUB +0 40200 0 00000    00770 TNZ -0 10000 0 01007
 00771 CLA +0 50000 0 00060    00772 ADD +0 40000 0 00112    00773 STO +0 60100 0 01514    00774 TSX +0 07400 4 00007
 00775 TXH +3 00000 0 01514    00776 STO +0 60100 0 01514    00777 CAL -0 50000 0 00116    01000 STA +0 62100 0 01002
 01001 CAL -0 50000 0 01514    01002 LGR -0 76500 0 00000    01003 SLW +0 60200 0 01514    01004 CLA +0 50000 0 01514
 01005 SUB +0 40200 0 00112    01006 TRA +0 02000 0 01510    01007 TRA +0 02000 0 00756
                 FUNCTION RETURN 0                                                  111  LM00154
 01010 CLA +0 50000 0 00111    01011 TRA +0 02000 0 01510
                 ENTRY TO MAXDIM.                                                   112  LM00158
 01012 TRA +0 02000 0 01015    01013 SXA +0 63400 2 01450    01014 TSX +0 07400 2 01450
                 SSETUP.                                                            113  LM00159
 01015 TSX +0 07400 4 00013
                 RELLOC=A1                                                          114  LM00160
 01016 CLA +0 50000 0 00000    01017 STO +0 60100 0 00075
                 WHENEVER RELLOC.G.RELCON                                           115  LM00161
 01020 CLA +0 50000 0 00075    01021 SUB +0 40200 0 00074    01022 TZE +0 10000 0 01030    01023 TMI -0 12000 0 01030
                 RELLOC=RELLOC-RELCON                                               116  LM00162
 01024 CLA +0 50000 0 00075    01025 SUB +0 40200 0 00074    01026 STO +0 60100 0 00075
                 OTHERWISE                                                          117  LM00163
 01027 TRA +0 02000 0 01033
                 RELLOC=RELLOC-RELCOM                                               118  LM00164
 01030 CLA +0 50000 0 00075    01031 SUB +0 40200 0 00073    01032 STO +0 60100 0 00075
                 END OF CONDITIONAL                                                 119  LM00165
                 MAX=1                                                              120  LM00166
 01033 CLA +0 50000 0 00112    01034 STO +0 60100 0 00071
                 THROUGH GETMDM, FOR I=DIMBEG+1,2,I.G.DIMEND                        121  LM00167
 01035 CLA +0 50000 0 00050    01036 ADD +0 40000 0 00112    01037 STO +0 60100 0 00060    01040 TRA +0 02000 0 01044
 01041 CLA +0 50000 0 00060    01042 ADD +0 40000 0 00113    01043 STO +0 60100 0 00060    01044 CLA +0 50000 0 00060
 01045 SUB +0 40200 0 00051    01046 TZE +0 10000 0 01050    01047 TPL +0 12000 0 01100
                 ENTRY=WGET.(I)                                                     122  LM00168
 01050 TSX +0 07400 4 00007    01051 TXH +3 00000 0 00060    01052 STO +0 60100 0 00056
      GETMDM     WHENEVER RELLOC.E.ENTRY.A.77777K.AND.MAX.L.ENTRY.RS.18,            123  LM00169
                1MAX=ENTRY.RS.18                                                    123  LM00170
 01053 CAL -0 50000 0 00116    01054 STA +0 62100 0 01056    01055 CAL -0 50000 0 00056    01056 LGR -0 76500 0 00000
 01057 SLW +0 60200 0 01514    01060 CLA +0 50000 0 00071    01061 SUB +0 40200 0 01514    01062 TZE +0 10000 0 01077
 01063 TPL +0 12000 0 01077    01064 CAL -0 50000 0 00056    01065 ANA -0 32000 0 00117    01066 SLW +0 60200 0 01514
 01067 CLA +0 50000 0 00075    01070 SUB +0 40200 0 01514    01071 TNZ -0 10000 0 01077    01072 CAL -0 50000 0 00116
 01073 STA +0 62100 0 01075    01074 CAL -0 50000 0 00056    01075 LGR -0 76500 0 00000    01076 SLW +0 60200 0 00071
 01077 TRA +0 02000 0 01041
                 FUNCTION RETURN MAX-1                                              124  LM00171
 01100 CLA +0 50000 0 00071    01101 SUB +0 40200 0 00112    01102 TRA +0 02000 0 01510
                 INTERNAL FUNCTION                                                  125  LM00175
 01103 TRA +0 02000 0 01447
                 ENTRY TO SSETUP.                                                   126  LM00176
 01104 TRA +0 02000 0 01107    00013 TTR +0 02100 0 01105    01105 SXA +0 63400 2 01435    01106 TSX +0 07400 2 01435
                 WHENEVER WSEEK.($MADTAB$),FUNCTION RETURN                          127  LM00177
 01107 TSX +0 07400 4 00010    01110 TXH +3 00000 0 00122    01111 TZE +0 10000 0 01113    01112 TRA +0 02000 0 01441
                 GWORK.(MADTAB)                                                     128  LM00178
 01113 TSX +0 07400 4 00002    01114 TXH +3 00000 0 00066
                 VECTOR VALUES MADTAB=$******SYMTAB$                                129  LM00179
 00065     -2 27044 6 32122    00066     -1 45454 5 45454
                 WHENEVER FSTAT.(MADTAB).E.0                                        130  LM00181
 01115 TSX +0 07400 4 00001    01116 TXH +3 00000 0 00066    01117 SUB +0 40200 0 00111    01120 TNZ -0 10000 0 01132
                 TRANS.(MADTAB)                                                     131  LM00182
 01121 TSX +0 07400 4 00006    01122 TXH +3 00000 0 00066
                 WHENEVER FSTAT.(MADTAB).E.0                                        132  LM00183
 01123 TSX +0 07400 4 00001    01124 TXH +3 00000 0 00066    01125 SUB +0 40200 0 00111    01126 TNZ -0 10000 0 01132
                 PRINT.(COM3)                                                       133  LM00184
 01127 TSX +0 07400 4 00004    01130 TXH +3 00000 0 00046
                 VECTOR VALUES COM3=37,$CORRECT THIS CONDITION AND TRY AGAIN.$      134  LM00185
 00037     +3 36060 6 06060    00040     -2 02127 2 13145    00041     -0 52460 6 35170    00042     -2 33146 4 56021
 00043     -2 02346 4 52431    00044     -2 36063 3 03162    00045     +2 34651 5 12523    00046     +0 00000 0 00045
                 READY.                                                             135  LM00186
 01131 TSX +0 07400 4 00005
                 END OF CONDITIONAL                                                 136  LM00187
                 END OF CONDITIONAL                                                 137  LM00188
                 WSETUP.($MADTAB$,MADTAB,0)                                         138  LM00190
 01132 TSX +0 07400 4 00011    01133 TXH +3 00000 0 00122    01134 TXH +3 00000 0 00066    01135 TXH +3 00000 0 00111
                 WSIZE.(SIZE)                                                       139  LM00192
 01136 TSX +0 07400 4 00012    01137 TXH +3 00000 0 00101
                 TVBEG=0                                                            140  LM00194
 01140 CLA +0 50000 0 00111    01141 STO +0 60100 0 00106
                 TVEND=-1                                                           141  LM00195
 01142 CLS +0 50200 0 00112    01143 STO +0 60100 0 00107
                 SYMBEG=0                                                           142  LM00196
 01144 CLA +0 50000 0 00111    01145 STO +0 60100 0 00104
                 SYMEND=-1                                                          143  LM00197
 01146 CLS +0 50200 0 00112    01147 STO +0 60100 0 00105
                 DIMBEG=0                                                           144  LM00198
 01150 CLA +0 50000 0 00111    01151 STO +0 60100 0 00050
                 DIMEND=-1                                                          145  LM00199
 01152 CLS +0 50200 0 00112    01153 STO +0 60100 0 00051
                 THROUGH SFIND,FOR I=4,2+SCOUNT,I.G.SIZE                            146  LM00200
 01154 CLA +0 50000 0 00114    01155 STO +0 60100 0 00060    01156 TRA +0 02000 0 01163    01157 CLA +0 50000 0 00060
 01160 ADD +0 40000 0 00113    01161 ADD +0 40000 0 00076    01162 STO +0 60100 0 00060    01163 CLA +0 50000 0 00060
 01164 SUB +0 40200 0 00101    01165 TZE +0 10000 0 01167    01166 TPL +0 12000 0 01257
                 SNAME=WGET.(I)                                                     147  LM00201
 01167 TSX +0 07400 4 00007    01170 TXH +3 00000 0 00060    01171 STO +0 60100 0 00102
                 SCOUNT=WGET.(I+1)                                                  148  LM00202
 01172 CLA +0 50000 0 00060    01173 ADD +0 40000 0 00112    01174 STO +0 60100 0 01445    01175 TSX +0 07400 4 00007
 01176 TXH +3 00000 0 01445    01177 STO +0 60100 0 00076
                 BEG=I+2                                                            149  LM00203
 01200 CLA +0 50000 0 00060    01201 ADD +0 40000 0 00113    01202 STO +0 60100 0 00017
                 END=I+1+SCOUNT                                                     150  LM00204
 01203 CLA +0 50000 0 00060    01204 ADD +0 40000 0 00112    01205 ADD +0 40000 0 00076    01206 STO +0 60100 0 00053
                 WHENEVER SNAME.E.$SYMBOL$                                          151  LM00205
 01207 CLA +0 50000 0 00102    01210 SUB +0 40200 0 00125    01211 TNZ -0 10000 0 01217
                 SYMBEG=BEG                                                         152  LM00206
 01212 CLA +0 50000 0 00017    01213 STO +0 60100 0 00104
                 SYMEND=END                                                         153  LM00207
 01214 CLA +0 50000 0 00053    01215 STO +0 60100 0 00105
                 OR WHENEVER SNAME.E.$SEQNOS$                                       154  LM00208
 01216 TRA +0 02000 0 01256    01217 CLA +0 50000 0 00102    01220 SUB +0 40200 0 00124    01221 TNZ -0 10000 0 01227
                 SEQBEG=BEG                                                         155  LM00209
 01222 CLA +0 50000 0 00017    01223 STO +0 60100 0 00077
                 SEQEND=END                                                         156  LM00210
 01224 CLA +0 50000 0 00053    01225 STO +0 60100 0 00100
                 OR WHENEVER SNAME.E.$TV$                                           157  LM00211
 01226 TRA +0 02000 0 01256    01227 CLA +0 50000 0 00102    01230 SUB +0 40200 0 00126    01231 TNZ -0 10000 0 01237
                 TVBEG=BEG                                                          158  LM00212
 01232 CLA +0 50000 0 00017    01233 STO +0 60100 0 00106
                 TVEND=END                                                          159  LM00213
 01234 CLA +0 50000 0 00053    01235 STO +0 60100 0 00107
                 OR WHENEVER SNAME.E.$DIM$                                          160  LM00214
 01236 TRA +0 02000 0 01256    01237 CLA +0 50000 0 00102    01240 SUB +0 40200 0 00121    01241 TNZ -0 10000 0 01247
                 DIMBEG=BEG                                                         161  LM00215
 01242 CLA +0 50000 0 00017    01243 STO +0 60100 0 00050
                 DIMEND=END                                                         162  LM00216
 01244 CLA +0 50000 0 00053    01245 STO +0 60100 0 00051
                 OR WHENEVER SNAME.E.$MAP$                                          163  LM00217
 01246 TRA +0 02000 0 01256    01247 CLA +0 50000 0 00102    01250 SUB +0 40200 0 00123    01251 TNZ -0 10000 0 01256
                 MAPBEG=BEG                                                         164  LM00218
 01252 CLA +0 50000 0 00017    01253 STO +0 60100 0 00067
                 MAPEND=END                                                         165  LM00219
 01254 CLA +0 50000 0 00053    01255 STO +0 60100 0 00070
      SFIND      END OF CONDITIONAL                                                 166  LM00220
 01256 TRA +0 02000 0 01157
                 WHENEVER SYMBEG.NE.0                                               167  LM00222
 01257 CLA +0 50000 0 00104    01260 SUB +0 40200 0 00111    01261 TZE +0 10000 0 01360
                 FVNAME=WGET.(SYMBEG)                                               168  LM00223
 01262 TSX +0 07400 4 00007    01263 TXH +3 00000 0 00104    01264 STO +0 60100 0 00057
                 WHENEVER SYMEND+1-SYMBEG.G.10                                      169  LM00224
 01265 CLA +0 50000 0 00105    01266 ADD +0 40000 0 00112    01267 SUB +0 40200 0 00104    01270 SUB +0 40200 0 00115
 01271 TZE +0 10000 0 01311    01272 TMI -0 12000 0 01311
                 LVNAME=WGET.(10*((SYMEND+1-SYMBEG)/10)+SYMBEG-2)                   170  LM00225
 01273 CLA +0 50000 0 00105    01274 ADD +0 40000 0 00112    01275 SUB +0 40200 0 00104    01276 LRS +0 76500 0 00043
 01277 DVP +0 22100 0 00115    01300 MPY +0 20000 0 00115    01301 XCA +0 13100 0 00000    01302 ADD +0 40000 0 00104
 01303 SUB +0 40200 0 00113    01304 STO +0 60100 0 01445    01305 TSX +0 07400 4 00007    01306 TXH +3 00000 0 01445
 01307 STO +0 60100 0 00063
                 OTHERWISE                                                          171  LM00226
 01310 TRA +0 02000 0 01317
                 LVNAME=WGET.(SYMEND-1)                                             172  LM00227
 01311 CLA +0 50000 0 00105    01312 SUB +0 40200 0 00112    01313 STO +0 60100 0 01445    01314 TSX +0 07400 4 00007
 01315 TXH +3 00000 0 01445    01316 STO +0 60100 0 00063
                 END OF CONDITIONAL                                                 173  LM00228
                 THROUGH LVSGET, FOR I=DIMBEG,2,I.G.DIMEND                          174  LM00229
 01317 CLA +0 50000 0 00050    01320 STO +0 60100 0 00060    01321 TRA +0 02000 0 01325    01322 CLA +0 50000 0 00060
 01323 ADD +0 40000 0 00113    01324 STO +0 60100 0 00060    01325 CLA +0 50000 0 00060    01326 SUB +0 40200 0 00051
 01327 TZE +0 10000 0 01331    01330 TPL +0 12000 0 01355
                 WHENEVER WGET.(I).E.LVNAME                                         175  LM00230
 01331 TSX +0 07400 4 00007    01332 TXH +3 00000 0 00060    01333 SUB +0 40200 0 00063    01334 TNZ -0 10000 0 01354
                 LVSUB=WGET.(I+1).RS.18-1                                           176  LM00231
 01335 CLA +0 50000 0 00060    01336 ADD +0 40000 0 00112    01337 STO +0 60100 0 01445    01340 TSX +0 07400 4 00007
 01341 TXH +3 00000 0 01445    01342 STO +0 60100 0 01445    01343 CAL -0 50000 0 00116    01344 STA +0 62100 0 01346
 01345 CAL -0 50000 0 01445    01346 LGR -0 76500 0 00000    01347 SLW +0 60200 0 01445    01350 CLA +0 50000 0 01445
 01351 SUB +0 40200 0 00112    01352 STO +0 60100 0 00064
                 TRANSFER TO LVSGOT                                                 177  LM00232
 01353 TRA +0 02000 0 00016
      LVSGET     END OF CONDITIONAL                                                 178  LM00233
 01354 TRA +0 02000 0 01322
                 LVSUB=0                                                            179  LM00234
 01355 CLA +0 50000 0 00111    01356 STO +0 60100 0 00064
      LVSGOT     CONTINUE                                                           180  LM00235
                 OTHERWISE                                                          181  LM00236
 01357 TRA +0 02000 0 01362
                 FVNAME=$(NONE)$                                                    182  LM00237
 01360 CLA +0 50000 0 00132    01361 STO +0 60100 0 00057
                 END OF CONDITIONAL                                                 183  LM00238
                 ORG.(MADTAB,RELCON,COUNT)                                          184  LM00240
 01362 TSX +0 07400 4 00003    01363 TXH +3 00000 0 00066    01364 TXH +3 00000 0 00074    01365 TXH +3 00000 0 00047
                 ORG.($(CMMN)$,START,COUNT)                                         185  LM00241
 01366 TSX +0 07400 4 00003    01367 TXH +3 00000 0 00131    01370 TXH +3 00000 0 00103    01371 TXH +3 00000 0 00047
                 RELCOM=START+COUNT                                                 186  LM00242
 01372 CLA +0 50000 0 00103    01373 ADD +0 40000 0 00047    01374 STO +0 60100 0 00073
                 WSEEK.($MADTAB$)                                                   187  LM00243
 01375 TSX +0 07400 4 00010    01376 TXH +3 00000 0 00122
      VBFIND     THROUGH VBFIND,FOR I=MAPBEG,2,WGET.(I).E.$VAR$                     188  LM00244
 01377 CLA +0 50000 0 00067    01400 STO +0 60100 0 00060    01401 TRA +0 02000 0 01405    01402 CLA +0 50000 0 00060
 01403 ADD +0 40000 0 00113    01404 STO +0 60100 0 00060    01405 TSX +0 07400 4 00007    01406 TXH +3 00000 0 00060
 01407 SUB +0 40200 0 00127    01410 TZE +0 10000 0 01412    01411 TRA +0 02000 0 01402
                 ENTRY=WGET.(I+1)                                                   189  LM00245
 01412 CLA +0 50000 0 00060    01413 ADD +0 40000 0 00112    01414 STO +0 60100 0 01445    01415 TSX +0 07400 4 00007
 01416 TXH +3 00000 0 01445    01417 STO +0 60100 0 00056
                 VARBRK=ENTRY.A.77777K+ENTRY.RS.18                                  190  LM00246
 01420 CAL -0 50000 0 00116    01421 STA +0 62100 0 01423    01422 CAL -0 50000 0 00056    01423 LGR -0 76500 0 00000
 01424 SLW +0 60200 0 01445    01425 CAL -0 50000 0 00056    01426 ANA -0 32000 0 00117    01427 SLW +0 60200 0 01446
 01430 CLA +0 50000 0 01446    01431 ADD +0 40000 0 01445    01432 STO +0 60100 0 00110
                 FUNCTION RETURN                                                    191  LM00247
 01433 TRA +0 02000 0 01441
                 END OF FUNCTION                                                    192  LM00248
 01434 TSX +0 07400 4 00000    01435 TXH +3 00000 0 00000    01436 SXD -0 63400 1 01435    01437 SXA +0 63400 4 01441
 01440 TRA +0 02000 2 00001    01441 AXT +0 77400 4 00000    01442 LXA +0 53400 2 01435    01443 LXD -0 53400 1 01435
 01444 TRA +0 02000 4 00001
                 END OF FUNCTION                                                    193  LM00249
 01447 TSX +0 07400 4 00000    01450 TXH +3 00000 0 00000    01451 SXD -0 63400 1 01450    01452 SXA +0 63400 4 01510
 01453 CLA +0 50000 4 00001    01454 STA +0 62100 0 00137    01455 STA +0 62100 0 00210    01456 STA +0 62100 0 00225
 01457 STA +0 62100 0 00320    01460 STA +0 62100 0 00426    01461 STA +0 62100 0 00451    01462 STA +0 62100 0 00533
 01463 STA +0 62100 0 00572    01464 STA +0 62100 0 00603    01465 STA +0 62100 0 00627    01466 STA +0 62100 0 00701
 01467 STA +0 62100 0 00715    01470 STA +0 62100 0 00741    01471 STA +0 62100 0 00767    01472 STA +0 62100 0 01016
 01473 CLA +0 50000 4 00002    01474 STA +0 62100 0 00550    01475 STA +0 62100 0 00561    01476 STA +0 62100 0 00574
 01477 STA +0 62100 0 00605    01500 STA +0 62100 0 00653    01501 STA +0 62100 0 00657    01502 STA +0 62100 0 00661
 01503 STA +0 62100 0 00664    01504 CLA +0 50000 4 00003    01505 STA +0 62100 0 00555    01506 STA +0 62100 0 00563
 01507 TRA +0 02000 2 00001    01510 AXT +0 77400 4 00000    01511 LXA +0 53400 2 01450    01512 LXD -0 53400 1 01450
 01513 TRA +0 02000 4 00001
1     MAD PROGRAM LISTING ... ... ...                 FILE     NAM   MAD            02/07/68    2002.2
-
                  EXTERNAL FUNCTION(NAME)                                                         *001 LM00001
                  PROGRAM COMMON LIST(84)                                                         *002 LM00002
                  NORMAL MODE IS INTEGER                                                          *003 LM00003
                  BOOLEAN SPACEP                                                                  *004 LM00004
                                                                                                       LM00005
                 ADD NAME TO OUTPUT LIST                                                               LM00006
                                                                                                       LM00007
                  ENTRY TO ADDNAM.                                                                *005 LM00008
                  THROUGH ADD, FOR I=0,6,I.G.30                                                   *006 LM00009
                  BCD=NAME.LS.I.A.77K10.V.$0$                                                     *007 LM00010
                  WHENEVER BCD.NE.$ $                                                             *008 LM00011
                  LIST=LIST+1                                                                     *009 LM00012
                  LIST(LIST)=BCD                                                                  *010 LM00013
      ADD         END OF CONDITIONAL                                                              *011 LM00014
                  FUNCTION RETURN                                                                 *012 LM00015
                                                                                                       LM00016
                 GET NAME FROM INPUT LIST                                                              LM00017
                                                                                                       LM00018
                  ENTRY TO GETNAM.                                                                *013 LM00019
                  BCD=LIST(LIST).RS.30                                                            *014 LM00020
                  WHENEVER BCD.LE.20K.OR.BCD.A.17K.G.11K.OR.BCD.A.17K.E.0K,                       *015 LM00021
                1 ERROR RETURN                                                                    *015 LM00022
                                                                                                       LM00023
                  NAME=0                                                                          *016 LM00024
                  THROUGH GET, FOR I=0,6,I.G.30                                                   *017 LM00025
                  BCD=LIST(LIST).RS.30                                                            *018 LM00026
                  WHENEVER BCD.A.17K.G.11K.OR.BCD.A.17K.E.0K.AND.BCD.NE.0                         *019 LM00027
                  CODE=$ $                                                                        *020 LM00028
                  OTHERWISE                                                                       *021 LM00029
                  CODE=LIST(LIST)                                                                 *022 LM00030
                  LIST=LIST+1                                                                     *023 LM00031
                  END OF CONDITIONAL                                                              *024 LM00032
      GET         NAME=(CODE.A.77K10).RS.I.V.NAME                                                 *025 LM00033
                  FUNCTION RETURN                                                                 *026 LM00034
                                                                                                       LM00035
                 GET BCD CHARACTERS TO NEXT BLANK OR SIX                                               LM00036
                                                                                                       LM00037
                  ENTRY TO GETBCD.                                                                *027 LM00038
                  NAME=$ $                                                                        *028 LM00039
                  WHENEVER SPACEP.(0),ERROR RETURN                                                *029 LM00040
                  THROUGH BGET,FOR I=0,6,I.G.30                                                   *030 LM00041
                  NAME=NAME.A..N.(77K10.RS.I).V.(LIST(LIST).A.77K10).RS.I                         *031 LM00042
                  LIST=LIST+1                                                                     *032 LM00043
      BGET        WHENEVER SPACEP.(0),FUNCTION RETURN                                             *033 LM00044
                  FUNCTION RETURN                                                                 *034 LM00045
                  END OF FUNCTION                                                                 *035 LM00046
1MAD PROGRAM,TYPE NOV 1963      (ALL NUMBERS ARE OCTAL)
0TOTAL LOCATIONS   00317 TRANSFER VECTOR LENGTH  00003 PROGRAM BEGINS    00022 FIRST UNUSED COMMON/ERASABLE  77334
0 PROGRAM IS AN EXTERNAL FUNCTION.   THE FOLLOWING ARE ENTRIES
      GETBCD 00211   0        GETNAM 00062   0        ADDNAM 00023   0
0VARIABLE STORAGE (A=ARRAY,C=COMMON,E=ERASABLE,DIGIT=MODE)
      ADD    00003   4        BGET   00003   4        GET    00003   4        I      00006   1        LIST   77461 AC1
      BCD    00004   1        CODE   00005   1
0FUNCTION DICTIONARY
      ERROR  00000   1        EXIT   00001   1        SPACEP 00002   2
0ABSOLUTE CONSTANTS
 00014 +000000000020     00012 +000000000011     00013 +000000000017     00020 -206060606060     00016 +006060606060
 00021 -370000000000     00015 +000000000036     00011 +000000000006     00007 +000000000000     00010 +000000000001
 00017 +233000000000
0PROGRAM
                 EXTERNAL FUNCTION(NAME)                                            001  LM00001
                 PROGRAM COMMON LIST(84)                                            002  LM00002
                 NORMAL MODE IS INTEGER                                             003  LM00003
                 BOOLEAN SPACEP                                                     004  LM00004
                 ENTRY TO ADDNAM.                                                   005  LM00008
 00022 TRA +0 02000 0 00025    00023 SXA +0 63400 2 00274    00024 TSX +0 07400 2 00274
                 THROUGH ADD, FOR I=0,6,I.G.30                                      006  LM00009
 00025 CLA +0 50000 0 00007    00026 STO +0 60100 0 00006    00027 TRA +0 02000 0 00033    00030 CLA +0 50000 0 00006
 00031 ADD +0 40000 0 00011    00032 STO +0 60100 0 00006    00033 CLA +0 50000 0 00006    00034 SUB +0 40200 0 00015
 00035 TZE +0 10000 0 00037    00036 TPL +0 12000 0 00060
                 BCD=NAME.LS.I.A.77K10.V.$0$                                        007  LM00010
 00037 CAL -0 50000 0 00006    00040 STA +0 62100 0 00042    00041 CAL -0 50000 0 00000    00042 ALS +0 76700 0 00000
 00043 ANA -0 32000 0 00021    00044 ORA -0 50100 0 00016    00045 SLW +0 60200 0 00004
                 WHENEVER BCD.NE.$ $                                                008  LM00011
 00046 CLA +0 50000 0 00004    00047 SUB +0 40200 0 00020    00050 TZE +0 10000 0 00057
                 LIST=LIST+1                                                        009  LM00012
 00051 CLA +0 50000 0 77461    00052 ADD +0 40000 0 00010    00053 STO +0 60100 0 77461
                 LIST(LIST)=BCD                                                     010  LM00013
 00054 LXA +0 53400 1 77461    00055 CLA +0 50000 0 00004    00056 STO +0 60100 1 77461
      ADD        END OF CONDITIONAL                                                 011  LM00014
 00057 TRA +0 02000 0 00030
                 FUNCTION RETURN                                                    012  LM00015
 00060 TRA +0 02000 0 00310
                 ENTRY TO GETNAM.                                                   013  LM00019
 00061 TRA +0 02000 0 00064    00062 SXA +0 63400 2 00274    00063 TSX +0 07400 2 00274
                 BCD=LIST(LIST).RS.30                                               014  LM00020
 00064 LXA +0 53400 1 77461    00065 CAL -0 50000 0 00015    00066 STA +0 62100 0 00070    00067 CAL -0 50000 1 77461
 00070 LGR -0 76500 0 00000    00071 SLW +0 60200 0 00004
                 WHENEVER BCD.LE.20K.OR.BCD.A.17K.G.11K.OR.BCD.A.17K.E.0K,          015  LM00021
                1ERROR RETURN                                                       015  LM00022
 00072 CAL -0 50000 0 00004    00073 ANA -0 32000 0 00013    00074 SLW +0 60200 0 00314    00075 CLA +0 50000 0 00314
 00076 SUB +0 40200 0 00007    00077 TZE +0 10000 0 00113    00100 CAL -0 50000 0 00004    00101 ANA -0 32000 0 00013
 00102 SLW +0 60200 0 00314    00103 CLA +0 50000 0 00314    00104 SUB +0 40200 0 00012    00105 TZE +0 10000 0 00107
 00106 TPL +0 12000 0 00113    00107 CLA +0 50000 0 00004    00110 SUB +0 40200 0 00014    00111 TZE +0 10000 0 00113
 00112 TPL +0 12000 0 00122    00113 LXA +0 53400 4 00310    00114 CLA +0 50000 4 00002    00115 STA +0 62100 0 00117
 00116 LDQ +0 56000 0 00120    00117 TLQ +0 04000 0 00000    00120 TXH +3 00000 0 00000    00121 TSX +0 07400 4 00000
                 NAME=0                                                             016  LM00024
 00122 CLA +0 50000 0 00007    00123 STO +0 60100 0 00000
                 THROUGH GET, FOR I=0,6,I.G.30                                      017  LM00025
 00124 CLA +0 50000 0 00007    00125 STO +0 60100 0 00006    00126 TRA +0 02000 0 00132    00127 CLA +0 50000 0 00006
 00130 ADD +0 40000 0 00011    00131 STO +0 60100 0 00006    00132 CLA +0 50000 0 00006    00133 SUB +0 40200 0 00015
 00134 TZE +0 10000 0 00136    00135 TPL +0 12000 0 00207
                 BCD=LIST(LIST).RS.30                                               018  LM00026
 00136 LXA +0 53400 1 77461    00137 CAL -0 50000 0 00015    00140 STA +0 62100 0 00142    00141 CAL -0 50000 1 77461
 00142 LGR -0 76500 0 00000    00143 SLW +0 60200 0 00004
                 WHENEVER BCD.A.17K.G.11K.OR.BCD.A.17K.E.0K.AND.BCD.NE.0            019  LM00027
 00144 CLA +0 50000 0 00004    00145 SUB +0 40200 0 00007    00146 TZE +0 10000 0 00155    00147 CAL -0 50000 0 00004
 00150 ANA -0 32000 0 00013    00151 SLW +0 60200 0 00314    00152 CLA +0 50000 0 00314    00153 SUB +0 40200 0 00007
 00154 TZE +0 10000 0 00164    00155 CAL -0 50000 0 00004    00156 ANA -0 32000 0 00013    00157 SLW +0 60200 0 00314
 00160 CLA +0 50000 0 00314    00161 SUB +0 40200 0 00012    00162 TZE +0 10000 0 00167    00163 TMI -0 12000 0 00167
                 CODE=$ $                                                           020  LM00028
 00164 CLA +0 50000 0 00020    00165 STO +0 60100 0 00005
                 OTHERWISE                                                          021  LM00029
 00166 TRA +0 02000 0 00175
                 CODE=LIST(LIST)                                                    022  LM00030
 00167 LXA +0 53400 2 77461    00170 CLA +0 50000 2 77461    00171 STO +0 60100 0 00005
                 LIST=LIST+1                                                        023  LM00031
 00172 CLA +0 50000 0 77461    00173 ADD +0 40000 0 00010    00174 STO +0 60100 0 77461
                 END OF CONDITIONAL                                                 024  LM00032
      GET        NAME=(CODE.A.77K10).RS.I.V.NAME                                    025  LM00033
 00175 CAL -0 50000 0 00005    00176 ANA -0 32000 0 00021    00177 SLW +0 60200 0 00314    00200 CAL -0 50000 0 00006
 00201 STA +0 62100 0 00203    00202 CAL -0 50000 0 00314    00203 LGR -0 76500 0 00000    00204 ORA -0 50100 0 00000
 00205 SLW +0 60200 0 00000    00206 TRA +0 02000 0 00127
                 FUNCTION RETURN                                                    026  LM00034
 00207 TRA +0 02000 0 00310
                 ENTRY TO GETBCD.                                                   027  LM00038
 00210 TRA +0 02000 0 00213    00211 SXA +0 63400 2 00274    00212 TSX +0 07400 2 00274
                 NAME=$ $                                                           028  LM00039
 00213 CLA +0 50000 0 00020    00214 STO +0 60100 0 00000
                 WHENEVER SPACEP.(0),ERROR RETURN                                   029  LM00040
 00215 TSX +0 07400 4 00002    00216 TXH +3 00000 0 00007    00217 TZE +0 10000 0 00227    00220 LXA +0 53400 4 00310
 00221 CLA +0 50000 4 00002    00222 STA +0 62100 0 00224    00223 LDQ +0 56000 0 00225    00224 TLQ +0 04000 0 00000
 00225 TXH +3 00000 0 00000    00226 TSX +0 07400 4 00000
                 THROUGH BGET,FOR I=0,6,I.G.30                                      030  LM00041
 00227 CLA +0 50000 0 00007    00230 STO +0 60100 0 00006    00231 TRA +0 02000 0 00235    00232 CLA +0 50000 0 00006
 00233 ADD +0 40000 0 00011    00234 STO +0 60100 0 00006    00235 CLA +0 50000 0 00006    00236 SUB +0 40200 0 00015
 00237 TZE +0 10000 0 00241    00240 TPL +0 12000 0 00272
                 NAME=NAME.A..N.(77K10.RS.I).V.(LIST(LIST).A.77K10).RS.I            031  LM00042
 00241 LXA +0 53400 1 77461    00242 CAL -0 50000 1 77461    00243 ANA -0 32000 0 00021    00244 SLW +0 60200 0 00314
 00245 CAL -0 50000 0 00006    00246 STA +0 62100 0 00250    00247 CAL -0 50000 0 00314    00250 LGR -0 76500 0 00000
 00251 SLW +0 60200 0 00314    00252 CAL -0 50000 0 00006    00253 STA +0 62100 0 00255    00254 CAL -0 50000 0 00021
 00255 LGR -0 76500 0 00000    00256 COM +0 76000 0 00006    00257 ANA -0 32000 0 00000    00260 ORA -0 50100 0 00314
 00261 SLW +0 60200 0 00000
                 LIST=LIST+1                                                        032  LM00043
 00262 CLA +0 50000 0 77461    00263 ADD +0 40000 0 00010    00264 STO +0 60100 0 77461
      BGET       WHENEVER SPACEP.(0),FUNCTION RETURN                                033  LM00044
 00265 TSX +0 07400 4 00002    00266 TXH +3 00000 0 00007    00267 TZE +0 10000 0 00271    00270 TRA +0 02000 0 00310
 00271 TRA +0 02000 0 00232
                 FUNCTION RETURN                                                    034  LM00045
 00272 TRA +0 02000 0 00310
                 END OF FUNCTION                                                    035  LM00046
 00273 TSX +0 07400 4 00001    00274 TXH +3 00000 0 00000    00275 SXD -0 63400 1 00274    00276 SXA +0 63400 4 00310
 00277 CLA +0 50000 4 00001    00300 STA +0 62100 0 00041    00301 STA +0 62100 0 00123    00302 STA +0 62100 0 00204
 00303 STA +0 62100 0 00205    00304 STA +0 62100 0 00214    00305 STA +0 62100 0 00257    00306 STA +0 62100 0 00261
 00307 TRA +0 02000 2 00001    00310 AXT +0 77400 4 00000    00311 LXA +0 53400 2 00274    00312 LXD -0 53400 1 00274
 00313 TRA +0 02000 4 00001
1     MAD PROGRAM LISTING ... ... ...                 FILE     NUM   MAD            02/07/68    2002.3
-
                  EXTERNAL FUNCTION (NUM)                                                         *001 LM00001
                  PROGRAM COMMON LIST(84)                                                         *002 LM00002
                  NORMAL MODE IS INTEGER                                                          *003 LM00003
                  BOOLEAN FLAG                                                                    *004 LM00004
                                                                                                       LM00005
                 ADD NUMBER TO OUTPUT LIST                                                             LM00006
                                                                                                       LM00007
                  ENTRY TO ADDNUM.                                                                *005 LM00008
                  WHENEVER NUM.GE.0                                                               *006 LM00009
                  VAL=NUM                                                                         *007 LM00010
                  OTHERWISE                                                                       *008 LM00011
                  LIST=LIST+1                                                                     *009 LM00012
                  LIST(LIST)=$-$                                                                  *010 LM00013
                  VAL=-NUM                                                                        *011 LM00014
                  END OF CONDITIONAL                                                              *012 LM00015
                                                                                                       LM00016
                  SAVE=LIST                                                                       *013 LM00017
                  THROUGH OUT,FOR I=10000000000,I/10-I,I.E.1                                      *014 LM00018
                  CHAR=VAL/I                                                                      *015 LM00019
                  VAL=VAL-CHAR*I                                                                  *016 LM00020
                  WHENEVER LIST.NE.SAVE.OR.CHAR.NE.0                                              *017 LM00021
                  LIST=LIST+1                                                                     *018 LM00022
                  LIST(LIST)=(CHAR.LS.30).V.$0$                                                   *019 LM00023
      OUT         END OF CONDITIONAL                                                              *020 LM00024
                  LIST=LIST+1                                                                     *021 LM00025
                  LIST(LIST)=(VAL.LS.30).V.$0$                                                    *022 LM00026
                  FUNCTION RETURN                                                                 *023 LM00027
                                                                                                       LM00028
                 GET NUMBER FROM INPUT LIST                                                            LM00029
                                                                                                       LM00030
                  ENTRY TO GETNUM.                                                                *024 LM00031
                  WHENEVER LIST(LIST).E.$-$                                                       *025 LM00032
                  SIGN=$-$                                                                        *026 LM00033
                  LIST=LIST+1                                                                     *027 LM00034
                  OR WHENEVER LIST(LIST).E.$+$                                                    *028 LM00035
                  SIGN=$+$                                                                        *029 LM00036
                  LIST=LIST+1                                                                     *030 LM00037
                  OTHERWISE                                                                       *031 LM00038
                  SIGN=$+$                                                                        *032 LM00039
                  END OF CONDITIONAL                                                              *033 LM00040
                                                                                                       LM00041
                  FLAG=0B                                                                         *034 LM00042
                  WHENEVER LIST(LIST).RS.30.G.9,ERROR RETURN                                      *035 LM00043
                  NUM=0                                                                           *036 LM00044
      C           WHENEVER NUM.E.3435973836.AND.LIST(LIST).GE.$8$.OR.                             *037 LM00045
                1 NUM.G.3435973836,FLAG=1B                                                        *037 LM00046
                  NUM=10*NUM+LIST(LIST).RS.30                                                     *038 LM00047
                  LIST=LIST+1                                                                     *039 LM00048
                  WHENEVER LIST(LIST).RS.30.LE.9,TRANSFER TO C                                    *040 LM00049
                  WHENEVER SIGN.E.$-$,NUM=-NUM                                                    *041 LM00050
                  WHENEVER FLAG,PRINT.(COM1)                                                      *042 LM00051
                  VECTOR VALUES COM1=34,$INTEGER REDUCED MOD 400000000000K.$                      *043 LM00052
                  FUNCTION RETURN                                                                 *044 LM00053
                  END OF FUNCTION                                                                 *045 LM00054
1MAD PROGRAM,TYPE NOV 1963      (ALL NUMBERS ARE OCTAL)
0TOTAL LOCATIONS   00336 TRANSFER VECTOR LENGTH  00003 PROGRAM BEGINS    00036 FIRST UNUSED COMMON/ERASABLE  77334
0 PROGRAM IS AN EXTERNAL FUNCTION.   THE FOLLOWING ARE ENTRIES
      GETNUM 00150   0        ADDNUM 00037   0
0VARIABLE STORAGE (A=ARRAY,C=COMMON,E=ERASABLE,DIGIT=MODE)
      CHAR   00005   1        C      00004   4        I      00016   1        OUT    00003   4        SIGN   00020   1
      COM1   00014 A 1        FLAG   00015   2        LIST   77461 AC1        SAVE   00017   1        VAL    00021   1
0FUNCTION DICTIONARY
      ERROR  00000   1        EXIT   00001   1        PRINT  00002   1
0ABSOLUTE CONSTANTS
 00031 +106060606060     00030 +031463146314     00024 +000000000011     00033 +206060606060     00027 +006060606060
 00026 +000000000036     00025 +000000000012     00032 +112402762000     00035 -006060606060     00022 +000000000000
 00023 +000000000001     00034 +233000000000
0STATEMENT DICTIONARY
 00004 TXL -300244000225
0PROGRAM
                 EXTERNAL FUNCTION (NUM)                                            001  LM00001
                 PROGRAM COMMON LIST(84)                                            002  LM00002
                 NORMAL MODE IS INTEGER                                             003  LM00003
                 BOOLEAN FLAG                                                       004  LM00004
                 ENTRY TO ADDNUM.                                                   005  LM00008
 00036 TRA +0 02000 0 00041    00037 SXA +0 63400 2 00310    00040 TSX +0 07400 2 00310
                 WHENEVER NUM.GE.0                                                  006  LM00009
 00041 CLA +0 50000 0 00000    00042 SUB +0 40200 0 00022    00043 TZE +0 10000 0 00045    00044 TMI -0 12000 0 00050
                 VAL=NUM                                                            007  LM00010
 00045 CLA +0 50000 0 00000    00046 STO +0 60100 0 00021
                 OTHERWISE                                                          008  LM00011
 00047 TRA +0 02000 0 00060
                 LIST=LIST+1                                                        009  LM00012
 00050 CLA +0 50000 0 77461    00051 ADD +0 40000 0 00023    00052 STO +0 60100 0 77461
                 LIST(LIST)=$-$                                                     010  LM00013
 00053 LXA +0 53400 1 77461    00054 CLA +0 50000 0 00035    00055 STO +0 60100 1 77461
                 VAL=-NUM                                                           011  LM00014
 00056 CLS +0 50200 0 00000    00057 STO +0 60100 0 00021
                 END OF CONDITIONAL                                                 012  LM00015
                 SAVE=LIST                                                          013  LM00017
 00060 CLA +0 50000 0 77461    00061 STO +0 60100 0 00017
                 THROUGH OUT,FOR I=10000000000,I/10-I,I.E.1                         014  LM00018
 00062 CLA +0 50000 0 00032    00063 STO +0 60100 0 00016    00064 TRA +0 02000 0 00075    00065 LDQ +0 56000 0 00016
 00066 PXD -0 75400 0 00000    00067 LLS +0 76300 0 00000    00070 DVP +0 22100 0 00025    00071 XCA +0 13100 0 00000
 00072 ADD +0 40000 0 00016    00073 SUB +0 40200 0 00016    00074 STO +0 60100 0 00016    00075 CLA +0 50000 0 00016
 00076 SUB +0 40200 0 00023    00077 TZE +0 10000 0 00134
                 CHAR=VAL/I                                                         015  LM00019
 00100 LDQ +0 56000 0 00021    00101 PXD -0 75400 0 00000    00102 LLS +0 76300 0 00000    00103 DVP +0 22100 0 00016
 00104 STQ -0 60000 0 00005
                 VAL=VAL-CHAR*I                                                     016  LM00020
 00105 LDQ +0 56000 0 00005    00106 MPY +0 20000 0 00016    00107 XCA +0 13100 0 00000    00110 CHS +0 76000 0 00002
 00111 ADD +0 40000 0 00021    00112 STO +0 60100 0 00021
                 WHENEVER LIST.NE.SAVE.OR.CHAR.NE.0                                 017  LM00021
 00113 CLA +0 50000 0 00005    00114 SUB +0 40200 0 00022    00115 TNZ -0 10000 0 00121    00116 CLA +0 50000 0 77461
 00117 SUB +0 40200 0 00017    00120 TZE +0 10000 0 00133
                 LIST=LIST+1                                                        018  LM00022
 00121 CLA +0 50000 0 77461    00122 ADD +0 40000 0 00023    00123 STO +0 60100 0 77461
                 LIST(LIST)=(CHAR.LS.30).V.$0$                                      019  LM00023
 00124 CAL -0 50000 0 00026    00125 STA +0 62100 0 00127    00126 CAL -0 50000 0 00005    00127 ALS +0 76700 0 00000
 00130 ORA -0 50100 0 00027    00131 LXA +0 53400 1 77461    00132 SLW +0 60200 1 77461
      OUT        END OF CONDITIONAL                                                 020  LM00024
 00133 TRA +0 02000 0 00065
                 LIST=LIST+1                                                        021  LM00025
 00134 CLA +0 50000 0 77461    00135 ADD +0 40000 0 00023    00136 STO +0 60100 0 77461
                 LIST(LIST)=(VAL.LS.30).V.$0$                                       022  LM00026
 00137 CAL -0 50000 0 00026    00140 STA +0 62100 0 00142    00141 CAL -0 50000 0 00021    00142 ALS +0 76700 0 00000
 00143 ORA -0 50100 0 00027    00144 LXA +0 53400 1 77461    00145 SLW +0 60200 1 77461
                 FUNCTION RETURN                                                    023  LM00027
 00146 TRA +0 02000 0 00327
                 ENTRY TO GETNUM.                                                   024  LM00031
 00147 TRA +0 02000 0 00152    00150 SXA +0 63400 2 00310    00151 TSX +0 07400 2 00310
                 WHENEVER LIST(LIST).E.$-$                                          025  LM00032
 00152 LXA +0 53400 1 77461    00153 CLA +0 50000 1 77461    00154 SUB +0 40200 0 00035    00155 TNZ -0 10000 0 00164
                 SIGN=$-$                                                           026  LM00033
 00156 CLA +0 50000 0 00035    00157 STO +0 60100 0 00020
                 LIST=LIST+1                                                        027  LM00034
 00160 CLA +0 50000 0 77461    00161 ADD +0 40000 0 00023    00162 STO +0 60100 0 77461
                 OR WHENEVER LIST(LIST).E.$+$                                       028  LM00035
 00163 TRA +0 02000 0 00200    00164 LXA +0 53400 1 77461    00165 CLA +0 50000 1 77461    00166 SUB +0 40200 0 00033
 00167 TNZ -0 10000 0 00176
                 SIGN=$+$                                                           029  LM00036
 00170 CLA +0 50000 0 00033    00171 STO +0 60100 0 00020
                 LIST=LIST+1                                                        030  LM00037
 00172 CLA +0 50000 0 77461    00173 ADD +0 40000 0 00023    00174 STO +0 60100 0 77461
                 OTHERWISE                                                          031  LM00038
 00175 TRA +0 02000 0 00200
                 SIGN=$+$                                                           032  LM00039
 00176 CLA +0 50000 0 00033    00177 STO +0 60100 0 00020
                 END OF CONDITIONAL                                                 033  LM00040
                 FLAG=0B                                                            034  LM00042
 00200 CLA +0 50000 0 00022    00201 STO +0 60100 0 00015
                 WHENEVER LIST(LIST).RS.30.G.9,ERROR RETURN                         035  LM00043
 00202 LXA +0 53400 1 77461    00203 CAL -0 50000 0 00026    00204 STA +0 62100 0 00206    00205 CAL -0 50000 1 77461
 00206 LGR -0 76500 0 00000    00207 SLW +0 60200 0 00333    00210 CLA +0 50000 0 00333    00211 SUB +0 40200 0 00024
 00212 TZE +0 10000 0 00223    00213 TMI -0 12000 0 00223    00214 LXA +0 53400 4 00327    00215 CLA +0 50000 4 00002
 00216 STA +0 62100 0 00220    00217 LDQ +0 56000 0 00221    00220 TLQ +0 04000 0 00000    00221 TXH +3 00000 0 00000
 00222 TSX +0 07400 4 00000
                 NUM=0                                                              036  LM00044
 00223 CLA +0 50000 0 00022    00224 STO +0 60100 0 00000
      C          WHENEVER NUM.E.3435973836.AND.LIST(LIST).GE.$8$.OR.                037  LM00045
                1NUM.G.3435973836,FLAG=1B                                           037  LM00046
 00225 CLA +0 50000 0 00000    00226 SUB +0 40200 0 00030    00227 TZE +0 10000 0 00231    00230 TPL +0 12000 0 00242
 00231 LXA +0 53400 1 77461    00232 CLA +0 50000 1 77461    00233 SUB +0 40200 0 00031    00234 TZE +0 10000 0 00236
 00235 TMI -0 12000 0 00241    00236 CLA +0 50000 0 00000    00237 SUB +0 40200 0 00030    00240 TZE +0 10000 0 00242
 00241 TRA +0 02000 0 00244    00242 CLA +0 50000 0 00023    00243 STO +0 60100 0 00015
                 NUM=10*NUM+LIST(LIST).RS.30                                        038  LM00047
 00244 LXA +0 53400 1 77461    00245 CAL -0 50000 0 00026    00246 STA +0 62100 0 00250    00247 CAL -0 50000 1 77461
 00250 LGR -0 76500 0 00000    00251 SLW +0 60200 0 00333    00252 LDQ +0 56000 0 00025    00253 MPY +0 20000 0 00000
 00254 XCA +0 13100 0 00000    00255 ADD +0 40000 0 00333    00256 STO +0 60100 0 00000
                 LIST=LIST+1                                                        039  LM00048
 00257 CLA +0 50000 0 77461    00260 ADD +0 40000 0 00023    00261 STO +0 60100 0 77461
                 WHENEVER LIST(LIST).RS.30.LE.9,TRANSFER TO C                       040  LM00049
 00262 LXA +0 53400 1 77461    00263 CAL -0 50000 0 00026    00264 STA +0 62100 0 00266    00265 CAL -0 50000 1 77461
 00266 LGR -0 76500 0 00000    00267 SLW +0 60200 0 00333    00270 CLA +0 50000 0 00333    00271 SUB +0 40200 0 00024
 00272 TZE +0 10000 0 00274    00273 TPL +0 12000 0 00275    00274 TRA +0 02000 0 00004
                 WHENEVER SIGN.E.$-$,NUM=-NUM                                       041  LM00050
 00275 CLA +0 50000 0 00020    00276 SUB +0 40200 0 00035    00277 TNZ -0 10000 0 00302    00300 CLS +0 50200 0 00000
 00301 STO +0 60100 0 00000
                 WHENEVER FLAG,PRINT.(COM1)                                         042  LM00051
 00302 NZT -0 52000 0 00015    00303 TRA +0 02000 0 00306    00304 TSX +0 07400 4 00002    00305 TXH +3 00000 0 00014
                 VECTOR VALUES COM1=34,$INTEGER REDUCED MOD 400000000000K.$         043  LM00052
 00006     +0 00042 3 36060    00007     +0 00000 0 00000    00010     +2 46004 0 00000    00011     +2 32524 6 04446
 00012     -1 16051 2 52464    00013     +3 14563 2 52725    00014     +0 00000 0 00042
                 FUNCTION RETURN                                                    044  LM00053
 00306 TRA +0 02000 0 00327
                 END OF FUNCTION                                                    045  LM00054
 00307 TSX +0 07400 4 00001    00310 TXH +3 00000 0 00000    00311 SXD -0 63400 1 00310    00312 SXA +0 63400 4 00327
 00313 CLA +0 50000 4 00001    00314 STA +0 62100 0 00041    00315 STA +0 62100 0 00045    00316 STA +0 62100 0 00056
 00317 STA +0 62100 0 00224    00320 STA +0 62100 0 00225    00321 STA +0 62100 0 00236    00322 STA +0 62100 0 00253
 00323 STA +0 62100 0 00256    00324 STA +0 62100 0 00300    00325 STA +0 62100 0 00301    00326 TRA +0 02000 2 00001
 00327 AXT +0 77400 4 00000    00330 LXA +0 53400 2 00310    00331 LXD -0 53400 1 00310    00332 TRA +0 02000 4 00001
1     MAD PROGRAM LISTING ... ... ...                 FILE     OCT   MAD            02/07/68    2002.8
-
                  EXTERNAL FUNCTION (NUM)                                                         *001 LM00001
                  NORMAL MODE IS INTEGER                                                          *002 LM00002
                  PROGRAM COMMON LIST(84)                                                         *003 LM00003
                                                                                                       LM00004
                 ADD OCTAL NUMBER TO LIST FOR OUTPUT                                                   LM00005
                                                                                                       LM00006
                  ENTRY TO ADDOCT.                                                                *004 LM00007
                  OCT=NUM                                                                         *005 LM00008
                  DIGITS=12                                                                       *006 LM00009
                                                                                                       LM00010
      DROP        WHENEVER OCT.RS.33.E.0.AND.DIGITS.G.1                                           *007 LM00011
                  DIGITS=DIGITS-1                                                                 *008 LM00012
                  OCT=OCT.LS.3                                                                    *009 LM00013
                  TRANSFER TO DROP                                                                *010 LM00014
                  END OF CONDITIONAL                                                              *011 LM00015
                                                                                                       LM00016
      ADD         DIGITS=DIGITS-1                                                                 *012 LM00017
                  LIST=LIST+1                                                                     *013 LM00018
                  LIST(LIST)=((OCT.A.7K11).RS.3).V.$0$                                            *014 LM00019
                  OCT=OCT.LS.3                                                                    *015 LM00020
                  WHENEVER DIGITS.G.0,TRANSFER TO ADD                                             *016 LM00021
                                                                                                       LM00022
                  FUNCTION RETURN                                                                 *017 LM00023
                  END OF FUNCTION                                                                 *018 LM00024
1MAD PROGRAM,TYPE NOV 1963      (ALL NUMBERS ARE OCTAL)
0TOTAL LOCATIONS   00123 TRANSFER VECTOR LENGTH  00001 PROGRAM BEGINS    00016 FIRST UNUSED COMMON/ERASABLE  77334
0 PROGRAM IS AN EXTERNAL FUNCTION.   THE FOLLOWING ARE ENTRIES
      ADDOCT 00017   0
0VARIABLE STORAGE (A=ARRAY,C=COMMON,E=ERASABLE,DIGIT=MODE)
      ADD    00002   4        DIGITS 00004   1        DROP   00003   4        LIST   77461 AC1        OCT    00005   1
0FUNCTION DICTIONARY
      EXIT   00000   1
0ABSOLUTE CONSTANTS
 00013 +006060606060     00015 -300000000000     00010 +000000000003     00006 +000000000000     00012 +000000000041
 00011 +000000000014     00007 +000000000001     00014 +233000000000
0STATEMENT DICTIONARY
 00002 TXL -300055000052       00003 TXL -300041000025
0PROGRAM
                 EXTERNAL FUNCTION (NUM)                                            001  LM00001
                 NORMAL MODE IS INTEGER                                             002  LM00002
                 PROGRAM COMMON LIST(84)                                            003  LM00003
                 ENTRY TO ADDOCT.                                                   004  LM00007
 00016 TRA +0 02000 0 00021    00017 SXA +0 63400 2 00106    00020 TSX +0 07400 2 00106
                 OCT=NUM                                                            005  LM00008
 00021 CLA +0 50000 0 00000    00022 STO +0 60100 0 00005
                 DIGITS=12                                                          006  LM00009
 00023 CLA +0 50000 0 00011    00024 STO +0 60100 0 00004
      DROP       WHENEVER OCT.RS.33.E.0.AND.DIGITS.G.1                              007  LM00011
 00025 CLA +0 50000 0 00004    00026 SUB +0 40200 0 00007    00027 TZE +0 10000 0 00052    00030 TMI -0 12000 0 00052
 00031 CAL -0 50000 0 00012    00032 STA +0 62100 0 00034    00033 CAL -0 50000 0 00005    00034 LGR -0 76500 0 00000
 00035 SLW +0 60200 0 00120    00036 CLA +0 50000 0 00120    00037 SUB +0 40200 0 00006    00040 TNZ -0 10000 0 00052
                 DIGITS=DIGITS-1                                                    008  LM00012
 00041 CLA +0 50000 0 00004    00042 SUB +0 40200 0 00007    00043 STO +0 60100 0 00004
                 OCT=OCT.LS.3                                                       009  LM00013
 00044 CAL -0 50000 0 00010    00045 STA +0 62100 0 00047    00046 CAL -0 50000 0 00005    00047 ALS +0 76700 0 00000
 00050 SLW +0 60200 0 00005
                 TRANSFER TO DROP                                                   010  LM00014
 00051 TRA +0 02000 0 00003
                 END OF CONDITIONAL                                                 011  LM00015
      ADD        DIGITS=DIGITS-1                                                    012  LM00017
 00052 CLA +0 50000 0 00004    00053 SUB +0 40200 0 00007    00054 STO +0 60100 0 00004
                 LIST=LIST+1                                                        013  LM00018
 00055 CLA +0 50000 0 77461    00056 ADD +0 40000 0 00007    00057 STO +0 60100 0 77461
                 LIST(LIST)=((OCT.A.7K11).RS.3).V.$0$                               014  LM00019
 00060 CAL -0 50000 0 00005    00061 ANA -0 32000 0 00015    00062 SLW +0 60200 0 00120    00063 CAL -0 50000 0 00010
 00064 STA +0 62100 0 00066    00065 CAL -0 50000 0 00120    00066 LGR -0 76500 0 00000    00067 ORA -0 50100 0 00013
 00070 LXA +0 53400 1 77461    00071 SLW +0 60200 1 77461
                 OCT=OCT.LS.3                                                       015  LM00020
 00072 CAL -0 50000 0 00010    00073 STA +0 62100 0 00075    00074 CAL -0 50000 0 00005    00075 ALS +0 76700 0 00000
 00076 SLW +0 60200 0 00005
                 WHENEVER DIGITS.G.0,TRANSFER TO ADD                                016  LM00021
 00077 CLA +0 50000 0 00004    00100 SUB +0 40200 0 00006    00101 TZE +0 10000 0 00104    00102 TMI -0 12000 0 00104
 00103 TRA +0 02000 0 00002
                 FUNCTION RETURN                                                    017  LM00023
 00104 TRA +0 02000 0 00114
                 END OF FUNCTION                                                    018  LM00024
 00105 TSX +0 07400 4 00000    00106 TXH +3 00000 0 00000    00107 SXD -0 63400 1 00106    00110 SXA +0 63400 4 00114
 00111 CLA +0 50000 4 00001    00112 STA +0 62100 0 00021    00113 TRA +0 02000 2 00001    00114 AXT +0 77400 4 00000
 00115 LXA +0 53400 2 00106    00116 LXD -0 53400 1 00106    00117 TRA +0 02000 4 00001
1     MAD PROGRAM LISTING ... ... ...                 FILE     ORG   MAD            02/07/68    2002.9
-
                  EXTERNAL FUNCTION (A1,A2,A3)                                                    *001 LM00001
                  NORMAL MODE IS INTEGER                                                          *002 LM00002
                  BOOLEAN WSEEK,COND                                                              *003 LM00003
                  PROGRAM COMMON LIST(84),MAX,FROM(20),TO(20),                                    *004 LM00004
                1 FSUB(20),TSUB(20),USES(60),CURCOR,PATCH,SKIP                                    *004 LM00005
                                                                                                       LM00006
                 CALCULATE THE TRUTH OF 'DATA IS NOT AN ENTRY NAME'                                    LM00007
                                                                                                       LM00008
                  INTERNAL FUNCTION                                                               *005 LM00009
                  ENTRY TO COND.                                                                  *006 LM00010
                  FUNCTION RETURN DATA.A..N.777K6.E.0.AND.DATA.NE.0 .OR.                          *007 LM00011
                1 DATA.E.7K11                                                                     *007 LM00012
                  END OF FUNCTION                                                                 *008 LM00013
                                                                                                       LM00014
                 RETURN ABSOLUTE LOCATION OF ENTRY NAME 'A1'.                                          LM00015
                                                                                                       LM00016
                  ENTRY TO ENTRY.                                                                 *009 LM00017
                  MSETUP.                                                                         *010 LM00018
                  WHENEVER A1.E.$(MAIN)$                                                          *011 LM00019
                  A1A=0                                                                           *012 LM00020
                  OTHERWISE                                                                       *013 LM00021
                  A1A=A1                                                                          *014 LM00022
                  END OF CONDITIONAL                                                              *015 LM00023
                  THROUGH ELOOP,FOR I=SIZE-3,-2,I.L.1                                             *016 LM00024
      ELOOP       WHENEVER WGET.(I).E.A1A,FUNCTION RETURN WGET.(I+1)                              *017 LM00025
                  FUNCTION RETURN 0                                                               *018 LM00026
                                                                                                       LM00027
                 RETURN ENTRY NAME FOR ABSOLUTE LOCATION 'A1'.                                         LM00028
                                                                                                       LM00029
                  ENTRY TO ENAME.                                                                 *019 LM00030
                  MSETUP.                                                                         *020 LM00031
                  A1A=A1.A.77777K                                                                 *021 LM00032
                  THROUGH ENLOOP, FOR I=SIZE-2,-2,I.L.1                                           *022 LM00033
                  WHENEVER WGET.(I).E.A1A                                                         *023 LM00034
                  DATA=WGET.(I-1)                                                                 *024 LM00035
                  WHENEVER COND.(0), TRANSFER TO ENLOOP                                           *025 LM00036
                  WHENEVER DATA.E.0,FUNCTION RETURN $(MAIN)$                                      *026 LM00037
                  FUNCTION RETURN DATA                                                            *027 LM00038
      ENLOOP      END OF CONDITIONAL                                                              *028 LM00039
                  FUNCTION RETURN 0                                                               *029 LM00040
                                                                                                       LM00041
                 RETURN NAME OF USE FILE OR ENTRY POINT FOR PROGRAM                                    LM00042
                 CONTAINING ABSOLUTE LOCATION 'A1'.                                                    LM00043
                                                                                                       LM00044
                  ENTRY TO ORGNAM.                                                                *030 LM00045
                  MSETUP.                                                                         *031 LM00046
                  COUNT=0                                                                         *032 LM00047
                  NAME=$(ZERO)$                                                                   *033 LM00048
                  THROUGH OLOOP,FOR I=SIZE-1,-2,I.L.1                                             *034 LM00049
                  DATA=WGET.(I)                                                                   *035 LM00050
                                                                                                       LM00051
                  WHENEVER COND.(0)                                                               *036 LM00052
                  WHENEVER WGET.(I+1).GE.A1,FUNCTION RETURN NAME                                  *037 LM00053
                  COUNT=COUNT+1                                                                   *038 LM00054
                                                                                                       LM00055
                  WHENEVER COUNT.LE.USES(0).AND.COUNT.G.1                                         *039 LM00056
                  NAME=USES(COUNT-1)                                                              *040 LM00057
                  LTJUST.(NAME)                                                                   *041 LM00058
                  OTHERWISE                                                                       *042 LM00059
                  NAME=WGET.(I-2)                                                                 *043 LM00060
                  WHENEVER NAME.E.0,NAME=$(MAIN)$                                                 *044 LM00061
                  WHENEVER NAME.E.777777777777K,NAME=$(END)$                                      *045 LM00062
                  END OF CONDITIONAL                                                              *046 LM00063
                                                                                                       LM00064
      OLOOP       END OF CONDITIONAL                                                              *047 LM00065
                                                                                                       LM00066
                  FUNCTION RETURN NAME                                                            *048 LM00067
                                                                                                       LM00068
                 SET A2,A3 TO THE START, LENGTH OF SUBROUTINE WITH USE NAME                            LM00069
                 OR ENTRY POINT NAME A1.                                                               LM00070
                                                                                                       LM00071
                  BOOLEAN NEFLAG                                                                  *049 LM00072
                  ENTRY TO ORG.                                                                   *050 LM00073
                  MSETUP.                                                                         *051 LM00074
                  A1A=A1                                                                          *052 LM00075
                  WHENEVER A1A.E.$(ZERO)$                                                         *053 LM00076
                  A2=0                                                                            *054 LM00077
                  A3=0                                                                            *055 LM00078
                  FUNCTION RETURN                                                                 *056 LM00079
                  OR WHENEVER A1A.E.$(MAIN)$                                                      *057 LM00080
                  A1A=0                                                                           *058 LM00081
                  OR WHENEVER A1A.E.$(END)$                                                       *059 LM00082
                  A2=WGET.(2)                                                                     *060 LM00083
                  A3=0                                                                            *061 LM00084
                  FUNCTION RETURN                                                                 *062 LM00085
                  END OF CONDITIONAL                                                              *063 LM00086
                  RTJUST.(A1A)                                                                    *064 LM00087
                  THROUGH NLOOP,FOR I=1,1,I.E.USES(0)                                             *065 LM00088
      NLOOP       WHENEVER A1A.E.USES(I),TRANSFER TO USED                                         *066 LM00089
                                                                                                       LM00090
                  LTJUST.(A1A)                                                                    *067 LM00091
                  NEFLAG=1B                                                                       *068 LM00092
                  THROUGH NELOOP,FOR I=SIZE-1,-2,I.L.1                                            *069 LM00093
                  DATA=WGET.(I)                                                                   *070 LM00094
                  WHENEVER DATA.E.A1A                                                             *071 LM00095
                  NEFLAG=0B                                                                       *072 LM00096
                  OR WHENEVER COND.(0)                                                            *073 LM00097
                  WHENEVER NEFLAG                                                                 *074 LM00098
                  A2=WGET.(I+1)                                                                   *075 LM00099
                  OTHERWISE                                                                       *076 LM00100
                  A3=WGET.(I+1)-A2                                                                *077 LM00101
                  FUNCTION RETURN                                                                 *078 LM00102
                  END OF CONDITIONAL                                                              *079 LM00103
      NELOOP      END OF CONDITIONAL                                                              *080 LM00104
                  EXIT.                                                                           *081 LM00105
                                                                                                       LM00106
      USED        THROUGH ULOOP,FOR J=SIZE-5,-2,J.L.1                                             *082 LM00107
                  DATA=WGET.(J)                                                                   *083 LM00108
                  WHENEVER COND.(0)                                                               *084 LM00109
                  WHENEVER I.E.1                                                                  *085 LM00110
                  A2=WGET.(J+1)                                                                   *086 LM00111
                  OR WHENEVER I.E.0                                                               *087 LM00112
                  A3=WGET.(J+1)-A2                                                                *088 LM00113
                  FUNCTION RETURN                                                                 *089 LM00114
                  END OF CONDITIONAL                                                              *090 LM00115
                  I=I-1                                                                           *091 LM00116
      ULOOP       END OF CONDITIONAL                                                              *092 LM00117
                  EXIT.                                                                           *093 LM00118
                                                                                                       LM00119
                 SETUP '(MOVIE' IN WINDOW, IF NOT ALREADY THERE.                                       LM00120
                                                                                                       LM00121
                  INTERNAL FUNCTION                                                               *094 LM00122
                  ENTRY TO MSETUP.                                                                *095 LM00123
                  WHENEVER WSEEK.($(MOVIE$),FUNCTION RETURN                                       *096 LM00124
                                                                                                       LM00125
                  WSETUP.($(MOVIE$,MOVIE,0)                                                       *097 LM00126
                  VECTOR VALUES MOVIE=$(MOVIETABLE)$                                              *098 LM00127
                  WSIZE.(SIZE)                                                                    *099 LM00128
                  COM(1)=WGET.(SIZE).A.77777K                                                     *100 LM00129
                  WHENEVER COM(1).A.1.E.1,COM(1)=COM(1)-1                                         *101 LM00130
                  VECTOR VALUES COM=$(CMMN)$,0,7K11,30K                                           *102 LM00131
                  WINS.(SIZE+1,4,COM)                                                             *103 LM00132
                  WHENEVER WGET.(SIZE-3).E.$MOVIE)$                                               *104 LM00133
                  THROUGH GMOV,FOR I=0,1,I.E.4                                                    *105 LM00134
      GMOV        MOV(I)=WGET.(SIZE-3+I)                                                          *106 LM00135
                  WINS.(5,4,MOV)                                                                  *107 LM00136
                  WDEL.(SIZE+1,4)                                                                 *108 LM00137
                  DIMENSION MOV(3)                                                                *109 LM00138
                  END OF CONDITIONAL                                                              *110 LM00139
                  SIZE=SIZE+4                                                                     *111 LM00140
                  FUNCTION RETURN                                                                 *112 LM00141
                  END OF FUNCTION                                                                 *113 LM00142
                  END OF FUNCTION                                                                 *114 LM00143
1MAD PROGRAM,TYPE NOV 1963      (ALL NUMBERS ARE OCTAL)
0TOTAL LOCATIONS   00741 TRANSFER VECTOR LENGTH  00011 PROGRAM BEGINS    00060 FIRST UNUSED COMMON/ERASABLE  77107
0 PROGRAM IS AN EXTERNAL FUNCTION.   THE FOLLOWING ARE ENTRIES
      ORG    00347   0        ORGNAM 00236   0        ENAME  00164   0        ENTRY  00120   0
0VARIABLE STORAGE (A=ARRAY,C=COMMON,E=ERASABLE,DIGIT=MODE)
      A1A    00016   1        ENLOOP 00014   4        LIST   77461 AC1        NELOOP 00013   4        TO     77306 AC1
      COM    00022 A 1        FROM   77333 AC1        MAX    77334  C1        NLOOP  00013   4        TSUB   77234 AC1
      COUNT  00023   1        FSUB   77261 AC1        MOVIE  00030 A 1        OLOOP  00013   4        ULOOP  00013   4
      CURCOR 77112  C1        GMOV   00013   4        MOV    00034 A 1        PATCH  77111  C1        USED   00015   4
      DATA   00024   1        I      00025   1        NAME   00035   1        SIZE   00037   1        USES   77207 AC1
      ELOOP  00013   4        J      00026   1        NEFLAG 00036   2        SKIP   77110  C1
0FUNCTION DICTIONARY
      EXIT   00000   1        LTJUST 00001   1        RTJUST 00002   1        WDEL   00003   1        WGET   00004   1
      WINS   00005   1        WSEEK  00006   2        WSETUP 00007   1        WSIZE  00010   1        COND   00011   2
      MSETUP 00012   1
0ABSOLUTE CONSTANTS
 00051 -044665312534     00044 +000000000004     00055 -344446653125     00045 +000000000005     00053 -342545243460
 00057 -377777777777     00056 -347125514634     00046 +000000077777     00042 +000000000002     00043 +000000000003
 00054 -344421314534     00047 +000777000000     00040 +000000000000     00052 -300000000000     00041 +000000000001
 00050 +233000000000
0STATEMENT DICTIONARY
 00014 TXL -300233000232       00015 TXL -300516000503
0PROGRAM
                 EXTERNAL FUNCTION (A1,A2,A3)                                       001  LM00001
                 NORMAL MODE IS INTEGER                                             002  LM00002
                 BOOLEAN WSEEK,COND                                                 003  LM00003
                 PROGRAM COMMON LIST(84),MAX,FROM(20),TO(20),                       004  LM00004
                1FSUB(20),TSUB(20),USES(60),CURCOR,PATCH,SKIP                       004  LM00005
                 INTERNAL FUNCTION                                                  005  LM00009
 00060 TRA +0 02000 0 00117
                 ENTRY TO COND.                                                     006  LM00010
 00061 TRA +0 02000 0 00064    00011 TTR +0 02100 0 00062    00062 SXA +0 63400 2 00106    00063 TSX +0 07400 2 00106
                 FUNCTION RETURN DATA.A..N.777K6.E.0.AND.DATA.NE.0 .OR.             007  LM00011
                1DATA.E.7K11                                                        007  LM00012
 00064 CLA +0 50000 0 00024    00065 SUB +0 40200 0 00052    00066 TZE +0 10000 0 00103    00067 CLA +0 50000 0 00024
 00070 SUB +0 40200 0 00040    00071 TZE +0 10000 0 00101    00072 CAL -0 50000 0 00047    00073 COM +0 76000 0 00006
 00074 ANA -0 32000 0 00024    00075 SLW +0 60200 0 00116    00076 CLA +0 50000 0 00116    00077 SUB +0 40200 0 00040
 00100 TZE +0 10000 0 00103    00101 PXD -0 75400 0 00000    00102 TRA +0 02000 0 00104    00103 CLA +0 50000 0 00041
 00104 TRA +0 02000 0 00112
                 END OF FUNCTION                                                    008  LM00013
 00105 TSX +0 07400 4 00000    00106 TXH +3 00000 0 00000    00107 SXD -0 63400 1 00106    00110 SXA +0 63400 4 00112
 00111 TRA +0 02000 2 00001    00112 AXT +0 77400 4 00000    00113 LXA +0 53400 2 00106    00114 LXD -0 53400 1 00106
 00115 TRA +0 02000 4 00001
                 ENTRY TO ENTRY.                                                    009  LM00017
 00117 TRA +0 02000 0 00122    00120 SXA +0 63400 2 00704    00121 TSX +0 07400 2 00704
                 MSETUP.                                                            010  LM00018
 00122 TSX +0 07400 4 00012
                 WHENEVER A1.E.$(MAIN)$                                             011  LM00019
 00123 CLA +0 50000 0 00000    00124 SUB +0 40200 0 00054    00125 TNZ -0 10000 0 00131
                 A1A=0                                                              012  LM00020
 00126 CLA +0 50000 0 00040    00127 STO +0 60100 0 00016
                 OTHERWISE                                                          013  LM00021
 00130 TRA +0 02000 0 00133
                 A1A=A1                                                             014  LM00022
 00131 CLA +0 50000 0 00000    00132 STO +0 60100 0 00016
                 END OF CONDITIONAL                                                 015  LM00023
                 THROUGH ELOOP,FOR I=SIZE-3,-2,I.L.1                                016  LM00024
 00133 CLA +0 50000 0 00037    00134 SUB +0 40200 0 00043    00135 STO +0 60100 0 00025    00136 TRA +0 02000 0 00142
 00137 CLS +0 50200 0 00042    00140 ADD +0 40000 0 00025    00141 STO +0 60100 0 00025    00142 CLA +0 50000 0 00025
 00143 SUB +0 40200 0 00041    00144 TZE +0 10000 0 00146    00145 TMI -0 12000 0 00161
      ELOOP      WHENEVER WGET.(I).E.A1A,FUNCTION RETURN WGET.(I+1)                 017  LM00025
 00146 TSX +0 07400 4 00004    00147 TXH +3 00000 0 00025    00150 SUB +0 40200 0 00016    00151 TNZ -0 10000 0 00160
 00152 CLA +0 50000 0 00025    00153 ADD +0 40000 0 00041    00154 STO +0 60100 0 00736    00155 TSX +0 07400 4 00004
 00156 TXH +3 00000 0 00736    00157 TRA +0 02000 0 00732    00160 TRA +0 02000 0 00137
                 FUNCTION RETURN 0                                                  018  LM00026
 00161 CLA +0 50000 0 00040    00162 TRA +0 02000 0 00732
                 ENTRY TO ENAME.                                                    019  LM00030
 00163 TRA +0 02000 0 00166    00164 SXA +0 63400 2 00704    00165 TSX +0 07400 2 00704
                 MSETUP.                                                            020  LM00031
 00166 TSX +0 07400 4 00012
                 A1A=A1.A.77777K                                                    021  LM00032
 00167 CAL -0 50000 0 00000    00170 ANA -0 32000 0 00046    00171 SLW +0 60200 0 00016
                 THROUGH ENLOOP, FOR I=SIZE-2,-2,I.L.1                              022  LM00033
 00172 CLA +0 50000 0 00037    00173 SUB +0 40200 0 00042    00174 STO +0 60100 0 00025    00175 TRA +0 02000 0 00201
 00176 CLS +0 50200 0 00042    00177 ADD +0 40000 0 00025    00200 STO +0 60100 0 00025    00201 CLA +0 50000 0 00025
 00202 SUB +0 40200 0 00041    00203 TZE +0 10000 0 00205    00204 TMI -0 12000 0 00233
                 WHENEVER WGET.(I).E.A1A                                            023  LM00034
 00205 TSX +0 07400 4 00004    00206 TXH +3 00000 0 00025    00207 SUB +0 40200 0 00016    00210 TNZ -0 10000 0 00232
                 DATA=WGET.(I-1)                                                    024  LM00035
 00211 CLA +0 50000 0 00025    00212 SUB +0 40200 0 00041    00213 STO +0 60100 0 00736    00214 TSX +0 07400 4 00004
 00215 TXH +3 00000 0 00736    00216 STO +0 60100 0 00024
                 WHENEVER COND.(0), TRANSFER TO ENLOOP                              025  LM00036
 00217 TSX +0 07400 4 00011    00220 TXH +3 00000 0 00040    00221 TZE +0 10000 0 00223    00222 TRA +0 02000 0 00014
                 WHENEVER DATA.E.0,FUNCTION RETURN $(MAIN)$                         026  LM00037
 00223 CLA +0 50000 0 00024    00224 SUB +0 40200 0 00040    00225 TNZ -0 10000 0 00230    00226 CLA +0 50000 0 00054
 00227 TRA +0 02000 0 00732
                 FUNCTION RETURN DATA                                               027  LM00038
 00230 CLA +0 50000 0 00024    00231 TRA +0 02000 0 00732
      ENLOOP     END OF CONDITIONAL                                                 028  LM00039
 00232 TRA +0 02000 0 00176
                 FUNCTION RETURN 0                                                  029  LM00040
 00233 CLA +0 50000 0 00040    00234 TRA +0 02000 0 00732
                 ENTRY TO ORGNAM.                                                   030  LM00045
 00235 TRA +0 02000 0 00240    00236 SXA +0 63400 2 00704    00237 TSX +0 07400 2 00704
                 MSETUP.                                                            031  LM00046
 00240 TSX +0 07400 4 00012
                 COUNT=0                                                            032  LM00047
 00241 CLA +0 50000 0 00040    00242 STO +0 60100 0 00023
                 NAME=$(ZERO)$                                                      033  LM00048
 00243 CLA +0 50000 0 00056    00244 STO +0 60100 0 00035
                 THROUGH OLOOP,FOR I=SIZE-1,-2,I.L.1                                034  LM00049
 00245 CLA +0 50000 0 00037    00246 SUB +0 40200 0 00041    00247 STO +0 60100 0 00025    00250 TRA +0 02000 0 00254
 00251 CLS +0 50200 0 00042    00252 ADD +0 40000 0 00025    00253 STO +0 60100 0 00025    00254 CLA +0 50000 0 00025
 00255 SUB +0 40200 0 00041    00256 TZE +0 10000 0 00260    00257 TMI -0 12000 0 00344
                 DATA=WGET.(I)                                                      035  LM00050
 00260 TSX +0 07400 4 00004    00261 TXH +3 00000 0 00025    00262 STO +0 60100 0 00024
                 WHENEVER COND.(0)                                                  036  LM00052
 00263 TSX +0 07400 4 00011    00264 TXH +3 00000 0 00040    00265 TZE +0 10000 0 00343
                 WHENEVER WGET.(I+1).GE.A1,FUNCTION RETURN NAME                     037  LM00053
 00266 CLA +0 50000 0 00025    00267 ADD +0 40000 0 00041    00270 STO +0 60100 0 00736    00271 TSX +0 07400 4 00004
 00272 TXH +3 00000 0 00736    00273 SUB +0 40200 0 00000    00274 TZE +0 10000 0 00276    00275 TMI -0 12000 0 00300
 00276 CLA +0 50000 0 00035    00277 TRA +0 02000 0 00732
                 COUNT=COUNT+1                                                      038  LM00054
 00300 CLA +0 50000 0 00023    00301 ADD +0 40000 0 00041    00302 STO +0 60100 0 00023
                 WHENEVER COUNT.LE.USES(0).AND.COUNT.G.1                            039  LM00056
 00303 CLA +0 50000 0 00023    00304 SUB +0 40200 0 00041    00305 TZE +0 10000 0 00323    00306 TMI -0 12000 0 00323
 00307 CLA +0 50000 0 00023    00310 SUB +0 40200 0 77207    00311 TZE +0 10000 0 00313    00312 TPL +0 12000 0 00323
                 NAME=USES(COUNT-1)                                                 040  LM00057
 00313 CLA +0 50000 0 00023    00314 SUB +0 40200 0 00041    00315 PAX +0 73400 2 00000    00316 CLA +0 50000 2 77207
 00317 STO +0 60100 0 00035
                 LTJUST.(NAME)                                                      041  LM00058
 00320 TSX +0 07400 4 00001    00321 TXH +3 00000 0 00035
                 OTHERWISE                                                          042  LM00059
 00322 TRA +0 02000 0 00343
                 NAME=WGET.(I-2)                                                    043  LM00060
 00323 CLA +0 50000 0 00025    00324 SUB +0 40200 0 00042    00325 STO +0 60100 0 00736    00326 TSX +0 07400 4 00004
 00327 TXH +3 00000 0 00736    00330 STO +0 60100 0 00035
                 WHENEVER NAME.E.0,NAME=$(MAIN)$                                    044  LM00061
 00331 CLA +0 50000 0 00035    00332 SUB +0 40200 0 00040    00333 TNZ -0 10000 0 00336    00334 CLA +0 50000 0 00054
 00335 STO +0 60100 0 00035
                 WHENEVER NAME.E.777777777777K,NAME=$(END)$                         045  LM00062
 00336 CLA +0 50000 0 00035    00337 SUB +0 40200 0 00057    00340 TNZ -0 10000 0 00343    00341 CLA +0 50000 0 00053
 00342 STO +0 60100 0 00035
                 END OF CONDITIONAL                                                 046  LM00063
      OLOOP      END OF CONDITIONAL                                                 047  LM00065
 00343 TRA +0 02000 0 00251
                 FUNCTION RETURN NAME                                               048  LM00067
 00344 CLA +0 50000 0 00035    00345 TRA +0 02000 0 00732
                 BOOLEAN NEFLAG                                                     049  LM00072
                 ENTRY TO ORG.                                                      050  LM00073
 00346 TRA +0 02000 0 00351    00347 SXA +0 63400 2 00704    00350 TSX +0 07400 2 00704
                 MSETUP.                                                            051  LM00074
 00351 TSX +0 07400 4 00012
                 A1A=A1                                                             052  LM00075
 00352 CLA +0 50000 0 00000    00353 STO +0 60100 0 00016
                 WHENEVER A1A.E.$(ZERO)$                                            053  LM00076
 00354 CLA +0 50000 0 00016    00355 SUB +0 40200 0 00056    00356 TNZ -0 10000 0 00365
                 A2=0                                                               054  LM00077
 00357 CLA +0 50000 0 00040    00360 STO +0 60100 0 00000
                 A3=0                                                               055  LM00078
 00361 CLA +0 50000 0 00040    00362 STO +0 60100 0 00000
                 FUNCTION RETURN                                                    056  LM00079
 00363 TRA +0 02000 0 00732
                 OR WHENEVER A1A.E.$(MAIN)$                                         057  LM00080
 00364 TRA +0 02000 0 00404    00365 CLA +0 50000 0 00016    00366 SUB +0 40200 0 00054    00367 TNZ -0 10000 0 00373
                 A1A=0                                                              058  LM00081
 00370 CLA +0 50000 0 00040    00371 STO +0 60100 0 00016
                 OR WHENEVER A1A.E.$(END)$                                          059  LM00082
 00372 TRA +0 02000 0 00404    00373 CLA +0 50000 0 00016    00374 SUB +0 40200 0 00053    00375 TNZ -0 10000 0 00404
                 A2=WGET.(2)                                                        060  LM00083
 00376 TSX +0 07400 4 00004    00377 TXH +3 00000 0 00042    00400 STO +0 60100 0 00000
                 A3=0                                                               061  LM00084
 00401 CLA +0 50000 0 00040    00402 STO +0 60100 0 00000
                 FUNCTION RETURN                                                    062  LM00085
 00403 TRA +0 02000 0 00732
                 END OF CONDITIONAL                                                 063  LM00086
                 RTJUST.(A1A)                                                       064  LM00087
 00404 TSX +0 07400 4 00002    00405 TXH +3 00000 0 00016
                 THROUGH NLOOP,FOR I=1,1,I.E.USES(0)                                065  LM00088
 00406 CLA +0 50000 0 00041    00407 STO +0 60100 0 00025    00410 TRA +0 02000 0 00414    00411 CLA +0 50000 0 00025
 00412 ADD +0 40000 0 00041    00413 STO +0 60100 0 00025    00414 CLA +0 50000 0 00025    00415 SUB +0 40200 0 77207
 00416 TZE +0 10000 0 00425
      NLOOP      WHENEVER A1A.E.USES(I),TRANSFER TO USED                            066  LM00089
 00417 LXA +0 53400 2 00025    00420 CLA +0 50000 0 00016    00421 SUB +0 40200 2 77207    00422 TNZ -0 10000 0 00424
 00423 TRA +0 02000 0 00015    00424 TRA +0 02000 0 00411
                 LTJUST.(A1A)                                                       067  LM00091
 00425 TSX +0 07400 4 00001    00426 TXH +3 00000 0 00016
                 NEFLAG=1B                                                          068  LM00092
 00427 CLA +0 50000 0 00041    00430 STO +0 60100 0 00036
                 THROUGH NELOOP,FOR I=SIZE-1,-2,I.L.1                               069  LM00093
 00431 CLA +0 50000 0 00037    00432 SUB +0 40200 0 00041    00433 STO +0 60100 0 00025    00434 TRA +0 02000 0 00440
 00435 CLS +0 50200 0 00042    00436 ADD +0 40000 0 00025    00437 STO +0 60100 0 00025    00440 CLA +0 50000 0 00025
 00441 SUB +0 40200 0 00041    00442 TZE +0 10000 0 00444    00443 TMI -0 12000 0 00502
                 DATA=WGET.(I)                                                      070  LM00094
 00444 TSX +0 07400 4 00004    00445 TXH +3 00000 0 00025    00446 STO +0 60100 0 00024
                 WHENEVER DATA.E.A1A                                                071  LM00095
 00447 CLA +0 50000 0 00024    00450 SUB +0 40200 0 00016    00451 TNZ -0 10000 0 00455
                 NEFLAG=0B                                                          072  LM00096
 00452 CLA +0 50000 0 00040    00453 STO +0 60100 0 00036
                 OR WHENEVER COND.(0)                                               073  LM00097
 00454 TRA +0 02000 0 00501    00455 TSX +0 07400 4 00011    00456 TXH +3 00000 0 00040    00457 TZE +0 10000 0 00501
                 WHENEVER NEFLAG                                                    074  LM00098
 00460 NZT -0 52000 0 00036    00461 TRA +0 02000 0 00471
                 A2=WGET.(I+1)                                                      075  LM00099
 00462 CLA +0 50000 0 00025    00463 ADD +0 40000 0 00041    00464 STO +0 60100 0 00736    00465 TSX +0 07400 4 00004
 00466 TXH +3 00000 0 00736    00467 STO +0 60100 0 00000
                 OTHERWISE                                                          076  LM00100
 00470 TRA +0 02000 0 00501
                 A3=WGET.(I+1)-A2                                                   077  LM00101
 00471 CLA +0 50000 0 00025    00472 ADD +0 40000 0 00041    00473 STO +0 60100 0 00736    00474 TSX +0 07400 4 00004
 00475 TXH +3 00000 0 00736    00476 SUB +0 40200 0 00000    00477 STO +0 60100 0 00000
                 FUNCTION RETURN                                                    078  LM00102
 00500 TRA +0 02000 0 00732
                 END OF CONDITIONAL                                                 079  LM00103
      NELOOP     END OF CONDITIONAL                                                 080  LM00104
 00501 TRA +0 02000 0 00435
                 EXIT.                                                              081  LM00105
 00502 TSX +0 07400 4 00000
      USED       THROUGH ULOOP,FOR J=SIZE-5,-2,J.L.1                                082  LM00107
 00503 CLA +0 50000 0 00037    00504 SUB +0 40200 0 00045    00505 STO +0 60100 0 00026    00506 TRA +0 02000 0 00512
 00507 CLS +0 50200 0 00042    00510 ADD +0 40000 0 00026    00511 STO +0 60100 0 00026    00512 CLA +0 50000 0 00026
 00513 SUB +0 40200 0 00041    00514 TZE +0 10000 0 00516    00515 TMI -0 12000 0 00555
                 DATA=WGET.(J)                                                      083  LM00108
 00516 TSX +0 07400 4 00004    00517 TXH +3 00000 0 00026    00520 STO +0 60100 0 00024
                 WHENEVER COND.(0)                                                  084  LM00109
 00521 TSX +0 07400 4 00011    00522 TXH +3 00000 0 00040    00523 TZE +0 10000 0 00554
                 WHENEVER I.E.1                                                     085  LM00110
 00524 CLA +0 50000 0 00025    00525 SUB +0 40200 0 00041    00526 TNZ -0 10000 0 00536
                 A2=WGET.(J+1)                                                      086  LM00111
 00527 CLA +0 50000 0 00026    00530 ADD +0 40000 0 00041    00531 STO +0 60100 0 00736    00532 TSX +0 07400 4 00004
 00533 TXH +3 00000 0 00736    00534 STO +0 60100 0 00000
                 OR WHENEVER I.E.0                                                  087  LM00112
 00535 TRA +0 02000 0 00551    00536 CLA +0 50000 0 00025    00537 SUB +0 40200 0 00040    00540 TNZ -0 10000 0 00551
                 A3=WGET.(J+1)-A2                                                   088  LM00113
 00541 CLA +0 50000 0 00026    00542 ADD +0 40000 0 00041    00543 STO +0 60100 0 00736    00544 TSX +0 07400 4 00004
 00545 TXH +3 00000 0 00736    00546 SUB +0 40200 0 00000    00547 STO +0 60100 0 00000
                 FUNCTION RETURN                                                    089  LM00114
 00550 TRA +0 02000 0 00732
                 END OF CONDITIONAL                                                 090  LM00115
                 I=I-1                                                              091  LM00116
 00551 CLA +0 50000 0 00025    00552 SUB +0 40200 0 00041    00553 STO +0 60100 0 00025
      ULOOP      END OF CONDITIONAL                                                 092  LM00117
 00554 TRA +0 02000 0 00507
                 EXIT.                                                              093  LM00118
 00555 TSX +0 07400 4 00000
                 INTERNAL FUNCTION                                                  094  LM00122
 00556 TRA +0 02000 0 00703
                 ENTRY TO MSETUP.                                                   095  LM00123
 00557 TRA +0 02000 0 00562    00012 TTR +0 02100 0 00560    00560 SXA +0 63400 2 00672    00561 TSX +0 07400 2 00672
                 WHENEVER WSEEK.($(MOVIE$),FUNCTION RETURN                          096  LM00124
 00562 TSX +0 07400 4 00006    00563 TXH +3 00000 0 00055    00564 TZE +0 10000 0 00566    00565 TRA +0 02000 0 00676
                 WSETUP.($(MOVIE$,MOVIE,0)                                          097  LM00126
 00566 TSX +0 07400 4 00007    00567 TXH +3 00000 0 00055    00570 TXH +3 00000 0 00030    00571 TXH +3 00000 0 00040
                 VECTOR VALUES MOVIE=$(MOVIETABLE)$                                 098  LM00127
 00027     -2 32122 4 32534    00030     -3 44446 6 53125
                 WSIZE.(SIZE)                                                       099  LM00128
 00572 TSX +0 07400 4 00010    00573 TXH +3 00000 0 00037
                 COM(1)=WGET.(SIZE).A.77777K                                        100  LM00129
 00574 TSX +0 07400 4 00004    00575 TXH +3 00000 0 00037    00576 STO +0 60100 0 00702    00577 CAL -0 50000 0 00702
 00600 ANA -0 32000 0 00046    00601 SLW +0 60200 0 00021
                 WHENEVER COM(1).A.1.E.1,COM(1)=COM(1)-1                            101  LM00130
 00602 CAL -0 50000 0 00021    00603 ANA -0 32000 0 00041    00604 SLW +0 60200 0 00702    00605 CLA +0 50000 0 00702
 00606 SUB +0 40200 0 00041    00607 TNZ -0 10000 0 00613    00610 CLA +0 50000 0 00021    00611 SUB +0 40200 0 00041
 00612 STO +0 60100 0 00021
                 VECTOR VALUES COM=$(CMMN)$,0,7K11,30K                              102  LM00131
 00017     +0 00000 0 00030    00020     -3 00000 0 00000    00021     +0 00000 0 00000    00022     -3 42344 4 44534
                 WINS.(SIZE+1,4,COM)                                                103  LM00132
 00613 CLA +0 50000 0 00037    00614 ADD +0 40000 0 00041    00615 STO +0 60100 0 00702    00616 TSX +0 07400 4 00005
 00617 TXH +3 00000 0 00702    00620 TXH +3 00000 0 00044    00621 TXH +3 00000 0 00022
                 WHENEVER WGET.(SIZE-3).E.$MOVIE)$                                  104  LM00133
 00622 CLA +0 50000 0 00037    00623 SUB +0 40200 0 00043    00624 STO +0 60100 0 00702    00625 TSX +0 07400 4 00004
 00626 TXH +3 00000 0 00702    00627 SUB +0 40200 0 00051    00630 TNZ -0 10000 0 00665
                 THROUGH GMOV,FOR I=0,1,I.E.4                                       105  LM00134
 00631 CLA +0 50000 0 00040    00632 STO +0 60100 0 00025    00633 TRA +0 02000 0 00637    00634 CLA +0 50000 0 00025
 00635 ADD +0 40000 0 00041    00636 STO +0 60100 0 00025    00637 CLA +0 50000 0 00025    00640 SUB +0 40200 0 00044
 00641 TZE +0 10000 0 00653
      GMOV       MOV(I)=WGET.(SIZE-3+I)                                             106  LM00135
 00642 CLA +0 50000 0 00037    00643 SUB +0 40200 0 00043    00644 ADD +0 40000 0 00025    00645 STO +0 60100 0 00702
 00646 TSX +0 07400 4 00004    00647 TXH +3 00000 0 00702    00650 LXA +0 53400 1 00025    00651 STO +0 60100 1 00034
 00652 TRA +0 02000 0 00634
                 WINS.(5,4,MOV)                                                     107  LM00136
 00653 TSX +0 07400 4 00005    00654 TXH +3 00000 0 00045    00655 TXH +3 00000 0 00044    00656 TXH +3 00000 0 00034
                 WDEL.(SIZE+1,4)                                                    108  LM00137
 00657 CLA +0 50000 0 00037    00660 ADD +0 40000 0 00041    00661 STO +0 60100 0 00702    00662 TSX +0 07400 4 00003
 00663 TXH +3 00000 0 00702    00664 TXH +3 00000 0 00044
                 DIMENSION MOV(3)                                                   109  LM00138
                 END OF CONDITIONAL                                                 110  LM00139
                 SIZE=SIZE+4                                                        111  LM00140
 00665 CLA +0 50000 0 00037    00666 ADD +0 40000 0 00044    00667 STO +0 60100 0 00037
                 FUNCTION RETURN                                                    112  LM00141
 00670 TRA +0 02000 0 00676
                 END OF FUNCTION                                                    113  LM00142
 00671 TSX +0 07400 4 00000    00672 TXH +3 00000 0 00000    00673 SXD -0 63400 1 00672    00674 SXA +0 63400 4 00676
 00675 TRA +0 02000 2 00001    00676 AXT +0 77400 4 00000    00677 LXA +0 53400 2 00672    00700 LXD -0 53400 1 00672
 00701 TRA +0 02000 4 00001
                 END OF FUNCTION                                                    114  LM00143
 00703 TSX +0 07400 4 00000    00704 TXH +3 00000 0 00000    00705 SXD -0 63400 1 00704    00706 SXA +0 63400 4 00732
 00707 CLA +0 50000 4 00001    00710 STA +0 62100 0 00123    00711 STA +0 62100 0 00131    00712 STA +0 62100 0 00167
 00713 STA +0 62100 0 00273    00714 STA +0 62100 0 00352    00715 CLA +0 50000 4 00002    00716 STA +0 62100 0 00360
 00717 STA +0 62100 0 00400    00720 STA +0 62100 0 00467    00721 STA +0 62100 0 00476    00722 STA +0 62100 0 00534
 00723 STA +0 62100 0 00546    00724 CLA +0 50000 4 00003    00725 STA +0 62100 0 00362    00726 STA +0 62100 0 00402
 00727 STA +0 62100 0 00477    00730 STA +0 62100 0 00547    00731 TRA +0 02000 2 00001    00732 AXT +0 77400 4 00000
 00733 LXA +0 53400 2 00704    00734 LXD -0 53400 1 00704    00735 TRA +0 02000 4 00001
1     MAD PROGRAM LISTING ... ... ...                 FILE   PATCH   MAD            02/07/68    2003.2
-
                  EXTERNAL FUNCTION                                                               *001 LM00001
                  NORMAL MODE IS INTEGER                                                          *002 LM00002
                  PROGRAM COMMON LIST(84),MAX,FROM(20),TO(20),                                    *003 LM00003
                1 FSUB(20),TSUB(20),USES(60),CURCOR,PATCH                                         *003 LM00004
                  VECTOR VALUES PATCH=500                                                         *004 LM00005
                  VECTOR VALUES CR=556060606060K                                                  *005 LM00006
                                                                                                       LM00007
                 SET SIZE OF PATCH SPACE                                                               LM00008
                                                                                                       LM00009
                  ENTRY TO PATCH.                                                                 *006 LM00010
                  SPACE.                                                                          *007 LM00011
                  GETNUM.(NUM)                                                                    *008 LM00012
                  SPACE.                                                                          *009 LM00013
                  WHENEVER LIST(LIST).NE.CR,SYNTAX.                                               *010 LM00014
                  WHENEVER NUM.L.4,NUM=4                                                          *011 LM00015
                  PATCH=NUM                                                                       *012 LM00016
                  READY.                                                                          *013 LM00017
                  END OF FUNCTION                                                                 *014 LM00018
1MAD PROGRAM,TYPE NOV 1963      (ALL NUMBERS ARE OCTAL)
0TOTAL LOCATIONS   00053 TRANSFER VECTOR LENGTH  00005 PROGRAM BEGINS    00013 FIRST UNUSED COMMON/ERASABLE  77110
0 PROGRAM IS AN EXTERNAL FUNCTION.   THE FOLLOWING ARE ENTRIES
      PATCH  00014   0
0VARIABLE STORAGE (A=ARRAY,C=COMMON,E=ERASABLE,DIGIT=MODE)
      CR     00006 A 1        FSUB   77261 AC1        MAX    77334  C1        PATCH  77111 AC1        TSUB   77234 AC1
      CURCOR 77112  C1        LIST   77461 AC1        NUM    00007   1        TO     77306 AC1        USES   77207 AC1
      FROM   77333 AC1
0FUNCTION DICTIONARY
      EXIT   00000   1        GETNUM 00001   1        READY  00002   1        SPACE  00003   1        SYNTAX 00004   1
0ABSOLUTE CONSTANTS
 00011 +000000000004     00010 +000000000001     00012 +233000000000
0PROGRAM
                 EXTERNAL FUNCTION                                                  001  LM00001
                 NORMAL MODE IS INTEGER                                             002  LM00002
                 PROGRAM COMMON LIST(84),MAX,FROM(20),TO(20),                       003  LM00003
                1FSUB(20),TSUB(20),USES(60),CURCOR,PATCH                            003  LM00004
                 VECTOR VALUES PATCH=500                                            004  LM00005
 77111     +0 00000 0 00764
                 VECTOR VALUES CR=556060606060K                                     005  LM00006
 00006     -1 56060 6 06060
                 ENTRY TO PATCH.                                                    006  LM00010
 00013 TRA +0 02000 0 00016    00014 SXA +0 63400 2 00041    00015 TSX +0 07400 2 00041
                 SPACE.                                                             007  LM00011
 00016 TSX +0 07400 4 00003
                 GETNUM.(NUM)                                                       008  LM00012
 00017 TSX +0 07400 4 00001    00020 TXH +3 00000 0 00007
                 SPACE.                                                             009  LM00013
 00021 TSX +0 07400 4 00003
                 WHENEVER LIST(LIST).NE.CR,SYNTAX.                                  010  LM00014
 00022 LXA +0 53400 1 77461    00023 CLA +0 50000 1 77461    00024 SUB +0 40200 0 00006    00025 TZE +0 10000 0 00027
 00026 TSX +0 07400 4 00004
                 WHENEVER NUM.L.4,NUM=4                                             011  LM00015
 00027 CLA +0 50000 0 00007    00030 SUB +0 40200 0 00011    00031 TZE +0 10000 0 00035    00032 TPL +0 12000 0 00035
 00033 CLA +0 50000 0 00011    00034 STO +0 60100 0 00007
                 PATCH=NUM                                                          012  LM00016
 00035 CLA +0 50000 0 00007    00036 STO +0 60100 0 77111
                 READY.                                                             013  LM00017
 00037 TSX +0 07400 4 00002
                 END OF FUNCTION                                                    014  LM00018
 00040 TSX +0 07400 4 00000    00041 TXH +3 00000 0 00000    00042 SXD -0 63400 1 00041    00043 SXA +0 63400 4 00045
 00044 TRA +0 02000 2 00001    00045 AXT +0 77400 4 00000    00046 LXA +0 53400 2 00041    00047 LXD -0 53400 1 00041
 00050 TRA +0 02000 4 00001
1     MAD PROGRAM LISTING ... ... ...                 FILE   READY   MAD            02/07/68    2003.2
-
                  EXTERNAL FUNCTION                                                               *001 LM00001
                  NORMAL MODE IS INTEGER                                                          *002 LM00002
                  BOOLEAN SPACEP,CRP                                                              *003 LM00003
                  PROGRAM COMMON LIST(84)                                                         *004 LM00004
                  VECTOR VALUES COUNT=20                                                          *005 LM00005
                                                                                                       LM00006
                 TABLES OF FIRST LETTERS, REMAINING LETTERS, TRANSFERS.                                LM00007
                                                                                                       LM00008
                  VECTOR VALUES FIRST=$A$,$B$,$C$,$D$,$E$,$F$,$G$,                                *006 LM00009
                1 $I$,$K$,$L$,$M$,$O$,$P$,$Q$,$R$,$S$,$T$,$U$,$V$,$W$                             *006 LM00010
                  VECTOR VALUES REMAIN=$PPEND$,$REAK$,$HANGE$,$ELETE$,                            *007 LM00011
                1 $XECUTE$,$ORCE$,$O$,$NSERT$,$ILL$,$INKAGE$,$ANIPUL$,                            *007 LM00012
                2 $PEN$,$RINT$,$UIT$,$ESTORE$,$AVE$,$RANSLA$,$SE$,                                *007 LM00013
                3 $ERIFY$,$ORK$                                                                   *007 LM00014
                  VECTOR VALUES XFER=A.,B.,C.,D.,E.,F.,G.,I.,K.,L.,                               *008 LM00015
                1 M.,O.,P.,Q.,R.,S.,T.,U.,V.,W.                                                   *008 LM00016
                                                                                                       LM00017
                                                                                                       LM00018
                 ENTRY TO HANDLE FLOATING POINT TRAPS                                                  LM00019
                                                                                                       LM00020
                  ENTRY TO FPTRAP.                                                                *009 LM00021
                  PRINT.(COM3)                                                                    *010 LM00022
                  VECTOR VALUES COM3=32,$FLOATING POINT TRAP.  TRY AGAIN.$                        *011 LM00023
                  TRANSFER TO GO                                                                  *012 LM00024
                                                                                                       LM00025
                 DUMMY EXIT PROGRAM SHOULDN'T BE CALLED                                                LM00026
                                                                                                       LM00027
                  ENTRY TO EXIT.                                                                  *013 LM00028
                  PRINT.(COM2)                                                                    *014 LM00029
                  VECTOR VALUES COM2=31,$EXIT CALLED.  CONSULT LISTINGS.$                         *015 LM00030
                                                                                                       LM00031
                 PROCESS FIRST BCD STRING IN REQUEST LINE                                              LM00032
                 CALL PROPER SUBROUTINE TO PROCESS THE REQUEST.                                        LM00033
                                                                                                       LM00034
                  ENTRY TO READY.                                                                 *016 LM00035
      GO          READ.                                                                           *017 LM00036
                  OSPACE.                                                                         *018 LM00037
                  WHENEVER CRP.(0),READY.                                                         *019 LM00038
                  THROUGH LOOKUP,FOR INDEX=0,1,INDEX.G.COUNT                                      *020 LM00039
      LOOKUP      WHENEVER FIRST(INDEX).E.LIST(LIST),TRANSFER TO FOUND                            *021 LM00040
                  TRANSFER TO NOFIND                                                              *022 LM00041
      FOUND       LIST=LIST+1                                                                     *023 LM00042
                  WHENEVER SPACEP.(0),XFER(INDEX).                                                *024 LM00043
                  GETBCD.(BCD)                                                                    *025 LM00044
                  WHENEVER BCD.NE.REMAIN(INDEX),TRANSFER TO NOFIND                                *026 LM00045
                                                                                                       LM00046
                  WHENEVER FIRST(INDEX).E.$M$                                                     *027 LM00047
                  WHENEVER SPACEP.(0),TRANSFER TO NOFIND                                          *028 LM00048
                  GETBCD.(BCD)                                                                    *029 LM00049
                  WHENEVER BCD.NE.$ATE$,TRANSFER TO NOFIND                                        *030 LM00050
                  OR WHENEVER FIRST(INDEX).E.$T$                                                  *031 LM00051
                  WHENEVER SPACEP.(0),TRANSFER TO NOFIND                                          *032 LM00052
                  GETBCD.(BCD)                                                                    *033 LM00053
                  WHENEVER BCD.NE.$TE$,TRANSFER TO NOFIND                                         *034 LM00054
                  END OF CONDITIONAL                                                              *035 LM00055
                                                                                                       LM00056
                  WHENEVER SPACEP.(0),XFER(INDEX).                                                *036 LM00057
                                                                                                       LM00058
      NOFIND      WHENEVER BCD.E.$ESTOR$.AND.FIRST(INDEX).E.$R$,XFER(INDEX).                      *037 LM00059
                  LIST=1                                                                          *038 LM00060
                  OSPACE.                                                                         *039 LM00061
                  THROUGH NULL,FOR II=1,1,II.E.LIST                                               *040 LM00062
      NULL        LIST(II)=576060606060K                                                          *041 LM00063
      SKIP        THROUGH SKIP,FOR LIST=LIST,1,LIST.G.43.OR.SPACEP.(0)                            *042 LM00064
                  LIST=LIST-1                                                                     *043 LM00065
                  ADDCOM.(COM1)                                                                   *044 LM00066
                  VECTOR VALUES COM1=30,$ IS NOT A REQUEST.  TRY AGAIN.$                          *045 LM00067
                  CRTYPE.                                                                         *046 LM00068
                  READY.                                                                          *047 LM00069
                  END OF FUNCTION                                                                 *048 LM00070
1MAD PROGRAM,TYPE NOV 1963      (ALL NUMBERS ARE OCTAL)
0TOTAL LOCATIONS   00427 TRANSFER VECTOR LENGTH  00036 PROGRAM BEGINS    00201 FIRST UNUSED COMMON/ERASABLE  77334
0 PROGRAM IS AN EXTERNAL FUNCTION.   THE FOLLOWING ARE ENTRIES
      READY  00215   0        EXIT   00210   0        FPTRAP 00202   0
0VARIABLE STORAGE (A=ARRAY,C=COMMON,E=ERASABLE,DIGIT=MODE)
      BCD    00042   1        COUNT  00067 A 1        II     00114   1        LOOKUP 00036   4        REMAIN 00141 A 1
      COM1   00050 A 1        FIRST  00113 A 1        INDEX  00115   1        NOFIND 00041   4        SKIP   00036   4
      COM2   00057 A 1        FOUND  00037   4        LIST   77461 AC1        NULL   00036   4        XFER   00165 A 3
      COM3   00066 A 1        GO     00040   4
0FUNCTION DICTIONARY
      ADDCOM 00000   1        A      00001   1        B      00002   1        CRP    00003   2        CRTYPE 00004   1
      C      00005   1        D      00006   1        E      00007   1        EXIT   00010   1        F      00011   1
      GETBCD 00012   1        G      00013   1        I      00014   1        K      00015   1        L      00016   1
      M      00017   1        O      00020   1        OSPACE 00021   1        PRINT  00022   1        P      00023   1
      Q      00024   1        READ   00025   1        READY  00026   1        R      00027   1        SPACEP 00030   2
      S      00031   1        T      00032   1        U      00033   1        V      00034   1        W      00035   1
0ABSOLUTE CONSTANTS
 00170 +000000000053     00176 -176060606060     00173 +256263465160     00175 -116060606060     00177 -232560606060
 00200 -236060606060     00171 +216325606060     00174 -046060606060     00166 +000000000000     00167 +000000000001
 00172 +233000000000
0STATEMENT DICTIONARY
 00037 TXL -300252000247       00040 TXL -300220000217       00041 TXL -300346000334
0PROGRAM
                 EXTERNAL FUNCTION                                                  001  LM00001
                 NORMAL MODE IS INTEGER                                             002  LM00002
                 BOOLEAN SPACEP,CRP                                                 003  LM00003
                 PROGRAM COMMON LIST(84)                                            004  LM00004
                 VECTOR VALUES COUNT=20                                             005  LM00005
 00067     +0 00000 0 00024
                 VECTOR VALUES FIRST=$A$,$B$,$C$,$D$,$E$,$F$,$G$,                   006  LM00009
                1$I$,$K$,$L$,$M$,$O$,$P$,$Q$,$R$,$S$,$T$,$U$,$V$,$W$                006  LM00010
 00070     -2 66060 6 06060    00071     -2 56060 6 06060    00072     -2 46060 6 06060    00073     -2 36060 6 06060
 00074     -2 26060 6 06060    00075     -1 16060 6 06060    00076     -1 06060 6 06060    00077     -0 76060 6 06060
 00100     -0 66060 6 06060    00101     -0 46060 6 06060    00102     -0 36060 6 06060    00103     -0 26060 6 06060
 00104     +3 16060 6 06060    00105     +2 76060 6 06060    00106     +2 66060 6 06060    00107     +2 56060 6 06060
 00110     +2 46060 6 06060    00111     +2 36060 6 06060    00112     +2 26060 6 06060    00113     +2 16060 6 06060
                 VECTOR VALUES REMAIN=$PPEND$,$REAK$,$HANGE$,$ELETE$,               007  LM00011
                1$XECUTE$,$ORCE$,$O$,$NSERT$,$ILL$,$INKAGE$,$ANIPUL$,               007  LM00012
                2$PEN$,$RINT$,$UIT$,$ESTORE$,$AVE$,$RANSLA$,$SE$,                   007  LM00013
                3$ERIFY$,$ORK$                                                      007  LM00014
 00116     -0 65142 6 06060    00117     +2 55131 2 67060    00120     -2 22560 6 06060    00121     -1 12145 6 24321
 00122     +2 16525 6 06060    00123     +2 56263 4 65125    00124     -2 43163 6 06060    00125     -1 13145 6 36060
 00126     -0 72545 6 06060    00127     +2 14531 4 76443    00130     +3 14542 2 12725    00131     +3 14343 6 06060
 00132     -0 56225 5 16360    00133     -0 66060 6 06060    00134     -0 65123 2 56060    00135     -2 72523 6 46325
 00136     +2 54325 6 32560    00137     +3 02145 2 72560    00140     -1 12521 4 26060    00141     -0 74725 4 52460
                 VECTOR VALUES XFER=A.,B.,C.,D.,E.,F.,G.,I.,K.,L.,                  008  LM00015
                1M.,O.,P.,Q.,R.,S.,T.,U.,V.,W.                                      008  LM00016
 00142 TXL -3 00000 0 00035    00143 TXL -3 00000 0 00034    00144 TXL -3 00000 0 00033    00145 TXL -3 00000 0 00032
 00146 TXL -3 00000 0 00031    00147 TXL -3 00000 0 00027    00150 TXL -3 00000 0 00024    00151 TXL -3 00000 0 00023
 00152 TXL -3 00000 0 00020    00153 TXL -3 00000 0 00017    00154 TXL -3 00000 0 00016    00155 TXL -3 00000 0 00015
 00156 TXL -3 00000 0 00014    00157 TXL -3 00000 0 00013    00160 TXL -3 00000 0 00011    00161 TXL -3 00000 0 00007
 00162 TXL -3 00000 0 00006    00163 TXL -3 00000 0 00005    00164 TXL -3 00000 0 00002    00165 TXL -3 00000 0 00001
                 ENTRY TO FPTRAP.                                                   009  LM00021
 00201 TRA +0 02000 0 00204    00202 SXA +0 63400 2 00414    00203 TSX +0 07400 2 00414
                 PRINT.(COM3)                                                       010  LM00022
 00204 TSX +0 07400 4 00022    00205 TXH +3 00000 0 00066
                 VECTOR VALUES COM3=32,$FLOATING POINT TRAP.  TRY AGAIN.$           011  LM00023
 00060     -0 53360 6 06060    00061     -3 06021 2 72131    00062     -0 73360 6 06351    00063     -0 56360 6 35121
 00064     -0 52760 4 74631    00065     +2 64346 2 16331    00066     +0 00000 0 00040
                 TRANSFER TO GO                                                     012  LM00024
 00206 TRA +0 02000 0 00040
                 ENTRY TO EXIT.                                                     013  LM00028
 00207 TRA +0 02000 0 00212    00210 SXA +0 63400 2 00414    00211 TSX +0 07400 2 00414
                 PRINT.(COM2)                                                       014  LM00029
 00212 TSX +0 07400 4 00022    00213 TXH +3 00000 0 00057
                 VECTOR VALUES COM2=31,$EXIT CALLED.  CONSULT LISTINGS.$            015  LM00030
 00051     +3 36060 6 06060    00052     -2 26331 4 52762    00053     -2 44363 6 04331    00054     -2 06023 4 64562
 00055     +2 14343 2 52433    00056     +2 56731 6 36023    00057     +0 00000 0 00037
                 ENTRY TO READY.                                                    016  LM00035
 00214 TRA +0 02000 0 00217    00215 SXA +0 63400 2 00414    00216 TSX +0 07400 2 00414
      GO         READ.                                                              017  LM00036
 00217 TSX +0 07400 4 00025
                 OSPACE.                                                            018  LM00037
 00220 TSX +0 07400 4 00021
                 WHENEVER CRP.(0),READY.                                            019  LM00038
 00221 TSX +0 07400 4 00003    00222 TXH +3 00000 0 00166    00223 TZE +0 10000 0 00225    00224 TSX +0 07400 4 00026
                 THROUGH LOOKUP,FOR INDEX=0,1,INDEX.G.COUNT                         020  LM00039
 00225 CLA +0 50000 0 00166    00226 STO +0 60100 0 00115    00227 TRA +0 02000 0 00233    00230 CLA +0 50000 0 00115
 00231 ADD +0 40000 0 00167    00232 STO +0 60100 0 00115    00233 CLA +0 50000 0 00115    00234 SUB +0 40200 0 00067
 00235 TZE +0 10000 0 00237    00236 TPL +0 12000 0 00246
      LOOKUP     WHENEVER FIRST(INDEX).E.LIST(LIST),TRANSFER TO FOUND               021  LM00040
 00237 LXA +0 53400 1 00115    00240 LXA +0 53400 2 77461    00241 CLA +0 50000 1 00113    00242 SUB +0 40200 2 77461
 00243 TNZ -0 10000 0 00245    00244 TRA +0 02000 0 00037    00245 TRA +0 02000 0 00230
                 TRANSFER TO NOFIND                                                 022  LM00041
 00246 TRA +0 02000 0 00041
      FOUND      LIST=LIST+1                                                        023  LM00042
 00247 CLA +0 50000 0 77461    00250 ADD +0 40000 0 00167    00251 STO +0 60100 0 77461
                 WHENEVER SPACEP.(0),XFER(INDEX).                                   024  LM00043
 00252 TSX +0 07400 4 00030    00253 TXH +3 00000 0 00166    00254 TZE +0 10000 0 00261    00255 LXA +0 53400 1 00115
 00256 CLA +0 50000 1 00165    00257 STO +0 60100 0 00424    00260 TSX +0 07400 4 00424
                 GETBCD.(BCD)                                                       025  LM00044
 00261 TSX +0 07400 4 00012    00262 TXH +3 00000 0 00042
                 WHENEVER BCD.NE.REMAIN(INDEX),TRANSFER TO NOFIND                   026  LM00045
 00263 LXA +0 53400 2 00115    00264 CLA +0 50000 0 00042    00265 SUB +0 40200 2 00141    00266 TZE +0 10000 0 00270
 00267 TRA +0 02000 0 00041
                 WHENEVER FIRST(INDEX).E.$M$                                        027  LM00047
 00270 LXA +0 53400 1 00115    00271 CLA +0 50000 1 00113    00272 SUB +0 40200 0 00174    00273 TNZ -0 10000 0 00307
                 WHENEVER SPACEP.(0),TRANSFER TO NOFIND                             028  LM00048
 00274 TSX +0 07400 4 00030    00275 TXH +3 00000 0 00166    00276 TZE +0 10000 0 00300    00277 TRA +0 02000 0 00041
                 GETBCD.(BCD)                                                       029  LM00049
 00300 TSX +0 07400 4 00012    00301 TXH +3 00000 0 00042
                 WHENEVER BCD.NE.$ATE$,TRANSFER TO NOFIND                           030  LM00050
 00302 CLA +0 50000 0 00042    00303 SUB +0 40200 0 00171    00304 TZE +0 10000 0 00306    00305 TRA +0 02000 0 00041
                 OR WHENEVER FIRST(INDEX).E.$T$                                     031  LM00051
 00306 TRA +0 02000 0 00325    00307 LXA +0 53400 1 00115    00310 CLA +0 50000 1 00113    00311 SUB +0 40200 0 00200
 00312 TNZ -0 10000 0 00325
                 WHENEVER SPACEP.(0),TRANSFER TO NOFIND                             032  LM00052
 00313 TSX +0 07400 4 00030    00314 TXH +3 00000 0 00166    00315 TZE +0 10000 0 00317    00316 TRA +0 02000 0 00041
                 GETBCD.(BCD)                                                       033  LM00053
 00317 TSX +0 07400 4 00012    00320 TXH +3 00000 0 00042
                 WHENEVER BCD.NE.$TE$,TRANSFER TO NOFIND                            034  LM00054
 00321 CLA +0 50000 0 00042    00322 SUB +0 40200 0 00177    00323 TZE +0 10000 0 00325    00324 TRA +0 02000 0 00041
                 END OF CONDITIONAL                                                 035  LM00055
                 WHENEVER SPACEP.(0),XFER(INDEX).                                   036  LM00057
 00325 TSX +0 07400 4 00030    00326 TXH +3 00000 0 00166    00327 TZE +0 10000 0 00334    00330 LXA +0 53400 1 00115
 00331 CLA +0 50000 1 00165    00332 STO +0 60100 0 00424    00333 TSX +0 07400 4 00424
      NOFIND     WHENEVER BCD.E.$ESTOR$.AND.FIRST(INDEX).E.$R$,XFER(INDEX).         037  LM00059
 00334 LXA +0 53400 1 00115    00335 CLA +0 50000 1 00113    00336 SUB +0 40200 0 00175    00337 TNZ -0 10000 0 00346
 00340 CLA +0 50000 0 00042    00341 SUB +0 40200 0 00173    00342 TNZ -0 10000 0 00346    00343 CLA +0 50000 1 00165
 00344 STO +0 60100 0 00424    00345 TSX +0 07400 4 00424
                 LIST=1                                                             038  LM00060
 00346 CLA +0 50000 0 00167    00347 STO +0 60100 0 77461
                 OSPACE.                                                            039  LM00061
 00350 TSX +0 07400 4 00021
                 THROUGH NULL,FOR II=1,1,II.E.LIST                                  040  LM00062
 00351 CLA +0 50000 0 00167    00352 STO +0 60100 0 00114    00353 TRA +0 02000 0 00357    00354 CLA +0 50000 0 00114
 00355 ADD +0 40000 0 00167    00356 STO +0 60100 0 00114    00357 CLA +0 50000 0 00114    00360 SUB +0 40200 0 77461
 00361 TZE +0 10000 0 00366
      NULL       LIST(II)=576060606060K                                             041  LM00063
 00362 LXA +0 53400 1 00114    00363 CLA +0 50000 0 00176    00364 STO +0 60100 1 77461    00365 TRA +0 02000 0 00354
      SKIP       THROUGH SKIP,FOR LIST=LIST,1,LIST.G.43.OR.SPACEP.(0)               042  LM00064
 00366 CLA +0 50000 0 77461    00367 STO +0 60100 0 77461    00370 TRA +0 02000 0 00374    00371 CLA +0 50000 0 77461
 00372 ADD +0 40000 0 00167    00373 STO +0 60100 0 77461    00374 TSX +0 07400 4 00030    00375 TXH +3 00000 0 00166
 00376 TNZ -0 10000 0 00404    00377 CLA +0 50000 0 77461    00400 SUB +0 40200 0 00170    00401 TZE +0 10000 0 00403
 00402 TPL +0 12000 0 00404    00403 TRA +0 02000 0 00371
                 LIST=LIST-1                                                        043  LM00065
 00404 CLA +0 50000 0 77461    00405 SUB +0 40200 0 00167    00406 STO +0 60100 0 77461
                 ADDCOM.(COM1)                                                      044  LM00066
 00407 TSX +0 07400 4 00000    00410 TXH +3 00000 0 00050
                 VECTOR VALUES COM1=30,$ IS NOT A REQUEST.  TRY AGAIN.$             045  LM00067
 00043     +2 12721 3 14533    00044     -2 06063 5 17060    00045     -1 06425 6 26333    00046     -2 36021 6 05125
 00047     -2 03162 6 04546    00050     +0 00000 0 00036
                 CRTYPE.                                                            046  LM00068
 00411 TSX +0 07400 4 00004
                 READY.                                                             047  LM00069
 00412 TSX +0 07400 4 00026
                 END OF FUNCTION                                                    048  LM00070
 00413 TSX +0 07400 4 00010    00414 TXH +3 00000 0 00000    00415 SXD -0 63400 1 00414    00416 SXA +0 63400 4 00420
 00417 TRA +0 02000 2 00001    00420 AXT +0 77400 4 00000    00421 LXA +0 53400 2 00414    00422 LXD -0 53400 1 00414
 00423 TRA +0 02000 4 00001
1     MAD PROGRAM LISTING ... ... ...                 FILE    SAVE   MAD            02/07/68    2003.3
-
                  EXTERNAL FUNCTION                                                               *001 LM00001
                  NORMAL MODE IS INTEGER                                                          *002 LM00002
                  PROGRAM COMMON LIST(84),MAX,FROM(20),TO(20),                                    *003 LM00003
                1 FSUB(20),TSUB(20),USES(40),CURCOR                                               *003 LM00004
                  VECTOR VALUES NAME=$****** SAVED$                                               *004 LM00005
                  VECTOR VALUES USER=$(USER) SAVED$                                               *005 LM00006
                                                                                                       LM00007
                 SAVE CURRENT USER CORE IMAGE                                                          LM00008
                                                                                                       LM00009
                  ENTRY TO S.                                                                     *006 LM00010
                  ARGBCD.(1)                                                                      *007 LM00011
                  STAR=FROM(1).A.77K10                                                            *008 LM00012
                  WHENEVER STAR.NE.$*00000$,TRANSFER TO ERROR1                                    *009 LM00013
                  LOAD.                                                                           *010 LM00014
                                                                                                       LM00015
                  NAME=FROM(1)                                                                    *011 LM00016
                  RTJUST.(NAME)                                                                   *012 LM00017
                  DELETE.(NAME)                                                                   *013 LM00018
                  WSEEK.($SAVE$)                                                                  *014 LM00019
                  WSIZE.(SIZE)                                                                    *015 LM00020
                  THROUGH FIND, FOR I=1,1,I.G.SIZE                                                *016 LM00021
      FIND        WHENEVER NAME.E.WGET.(I),TRANSFER TO FOUND                                      *017 LM00022
                                                                                                       LM00023
                  WINS.(SIZE+1,1,NAME)                                                            *018 LM00024
                                                                                                       LM00025
      FOUND       THROUGH SDITCH,FOR VALUES OF I=$BRK$,$INS$,$VAR$,$COMMON$                       *019 LM00026
      SDITCH      WDITCH.(I)                                                                      *020 LM00027
                  COPY.(USER,NAME)                                                                *021 LM00028
                  READY.                                                                          *022 LM00029
                                                                                                       LM00030
                 RESUME SAVED CORE IMAGE                                                               LM00031
                                                                                                       LM00032
                  ENTRY TO R.                                                                     *023 LM00033
                  ARGBCD.(1)                                                                      *024 LM00034
                  LOAD.                                                                           *025 LM00035
                  RTJUST.(FROM(1))                                                                *026 LM00036
                  WSEEK.($SAVE$)                                                                  *027 LM00037
                  WSIZE.(SIZE)                                                                    *028 LM00038
                  THROUGH RFIND, FOR I=1,1,I.G.SIZE                                               *029 LM00039
      RFIND       WHENEVER FROM(1).E.WGET.(I),TRANSFER TO RFOUND                                  *030 LM00040
                  TRANSFER TO ERROR2                                                              *031 LM00041
      RFOUND      DELETE.(USER)                                                                   *032 LM00042
                  THROUGH DITCH, FOR VALUES OF I=$BRK$,$INS$,$VAR$,$COMMON$                       *033 LM00043
      DITCH       WDITCH.(I)                                                                      *034 LM00044
                  NAME=FROM(1)                                                                    *035 LM00045
                  COPY.(NAME,USER)                                                                *036 LM00046
                  READY.                                                                          *037 LM00047
                                                                                                       LM00048
      ERROR1      PRINT.(COM1)                                                                    *038 LM00049
                  VECTOR VALUES COM1=56,$SAVED FILE NAMES MUST BEGIN WI$,                         *039 LM00050
                1 $TH AN ASTRISK.  TRY AGAIN.$                                                    *039 LM00051
                  READY.                                                                          *040 LM00052
                                                                                                       LM00053
      ERROR2      LIST=0                                                                          *041 LM00054
                  ADDNAM.(FROM(1))                                                                *042 LM00055
                  ADDCOM.(COM2)                                                                   *043 LM00056
                  CRTYPE.                                                                         *044 LM00057
                  VECTOR VALUES COM2=46,$ IS NOT A SAVED FILE.  Y$,                               *045 LM00058
                1 $OUR SAVED FILES ARE...$                                                        *045 LM00059
                  THROUGH PFILES,FOR I=1,1,I.G.SIZE                                               *046 LM00060
                  LIST=0                                                                          *047 LM00061
                  ADDNAM.(WGET.(I))                                                               *048 LM00062
      PFILES      CRTYPE.                                                                         *049 LM00063
                  PRINT.(COM3)                                                                    *050 LM00064
                  VECTOR VALUES COM3=10,$TRY AGAIN.$                                              *051 LM00065
                  READY.                                                                          *052 LM00066
                                                                                                       LM00067
                  END OF FUNCTION                                                                 *053 LM00068
1MAD PROGRAM,TYPE NOV 1963      (ALL NUMBERS ARE OCTAL)
0TOTAL LOCATIONS   00372 TRANSFER VECTOR LENGTH  00020 PROGRAM BEGINS    00075 FIRST UNUSED COMMON/ERASABLE  77135
0 PROGRAM IS AN EXTERNAL FUNCTION.   THE FOLLOWING ARE ENTRIES
      R      00215   0        S      00076   0
0VARIABLE STORAGE (A=ARRAY,C=COMMON,E=ERASABLE,DIGIT=MODE)
      COM1   00037 A 1        ERROR1 00021   4        FSUB   77261 AC1        PFILES 00020   4        STAR   00060   1
      COM2   00050 A 1        ERROR2 00022   4        I      00054   1        RFIND  00020   4        TO     77306 AC1
      COM3   00053 A 1        FIND   00020   4        LIST   77461 AC1        RFOUND 00024   4        TSUB   77234 AC1
      CURCOR 77136  C1        FOUND  00023   4        MAX    77334  C1        SDITCH 00020   4        USER   00062 A 1
      DITCH  00020   4        FROM   77333 AC1        NAME   00056 A 1        SIZE   00057   1        USES   77207 AC1
0FUNCTION DICTIONARY
      ADDCOM 00000   1        ADDNAM 00001   1        ARGBCD 00002   1        COPY   00003   1        CRTYPE 00004   1
      DELETE 00005   1        EXIT   00006   1        LOAD   00007   1        PRINT  00010   1        READY  00011   1
      RTJUST 00012   1        WDITCH 00013   1        WGET   00014   1        WINS   00015   1        WSEEK  00016   1
      WSIZE  00017   1
0ABSOLUTE CONSTANTS
 00063 +000000000000     00067 +234644444645     00073 -252151606060     00070 +314562606060     00065 +225142606060
 00072 -222165256060     00071 -140000000000     00074 -370000000000     00064 +000000000001     00066 +233000000000
0STATEMENT DICTIONARY
 00021 TXL -300320000316       00022 TXL -300323000321       00023 TXL -300205000154       00024 TXL -300254000252
0PROGRAM
                 EXTERNAL FUNCTION                                                  001  LM00001
                 NORMAL MODE IS INTEGER                                             002  LM00002
                 PROGRAM COMMON LIST(84),MAX,FROM(20),TO(20),                       003  LM00003
                1FSUB(20),TSUB(20),USES(40),CURCOR                                  003  LM00004
                 VECTOR VALUES NAME=$****** SAVED$                                  004  LM00005
 00055     -2 06221 6 52524    00056     -1 45454 5 45454
                 VECTOR VALUES USER=$(USER) SAVED$                                  005  LM00006
 00061     -2 06221 6 52524    00062     -3 46462 2 55134
                 ENTRY TO S.                                                        006  LM00010
 00075 TRA +0 02000 0 00100    00076 SXA +0 63400 2 00357    00077 TSX +0 07400 2 00357
                 ARGBCD.(1)                                                         007  LM00011
 00100 TSX +0 07400 4 00002    00101 TXH +3 00000 0 00064
                 STAR=FROM(1).A.77K10                                               008  LM00012
 00102 CAL -0 50000 0 77332    00103 ANA -0 32000 0 00074    00104 SLW +0 60200 0 00060
                 WHENEVER STAR.NE.$*00000$,TRANSFER TO ERROR1                       009  LM00013
 00105 CLA +0 50000 0 00060    00106 SUB +0 40200 0 00071    00107 TZE +0 10000 0 00111    00110 TRA +0 02000 0 00021
                 LOAD.                                                              010  LM00014
 00111 TSX +0 07400 4 00007
                 NAME=FROM(1)                                                       011  LM00016
 00112 CLA +0 50000 0 77332    00113 STO +0 60100 0 00056
                 RTJUST.(NAME)                                                      012  LM00017
 00114 TSX +0 07400 4 00012    00115 TXH +3 00000 0 00056
                 DELETE.(NAME)                                                      013  LM00018
 00116 TSX +0 07400 4 00005    00117 TXH +3 00000 0 00056
                 WSEEK.($SAVE$)                                                     014  LM00019
 00120 TSX +0 07400 4 00016    00121 TXH +3 00000 0 00072
                 WSIZE.(SIZE)                                                       015  LM00020
 00122 TSX +0 07400 4 00017    00123 TXH +3 00000 0 00057
                 THROUGH FIND, FOR I=1,1,I.G.SIZE                                   016  LM00021
 00124 CLA +0 50000 0 00064    00125 STO +0 60100 0 00054    00126 TRA +0 02000 0 00132    00127 CLA +0 50000 0 00054
 00130 ADD +0 40000 0 00064    00131 STO +0 60100 0 00054    00132 CLA +0 50000 0 00054    00133 SUB +0 40200 0 00057
 00134 TZE +0 10000 0 00136    00135 TPL +0 12000 0 00145
      FIND       WHENEVER NAME.E.WGET.(I),TRANSFER TO FOUND                         017  LM00022
 00136 TSX +0 07400 4 00014    00137 TXH +3 00000 0 00054    00140 CHS +0 76000 0 00002    00141 ADD +0 40000 0 00056
 00142 TNZ -0 10000 0 00144    00143 TRA +0 02000 0 00023    00144 TRA +0 02000 0 00127
                 WINS.(SIZE+1,1,NAME)                                               018  LM00024
 00145 CLA +0 50000 0 00057    00146 ADD +0 40000 0 00064    00147 STO +0 60100 0 00367    00150 TSX +0 07400 4 00015
 00151 TXH +3 00000 0 00367    00152 TXH +3 00000 0 00064    00153 TXH +3 00000 0 00056
      FOUND      THROUGH SDITCH,FOR VALUES OF I=$BRK$,$INS$,$VAR$,$COMMON$          019  LM00026
 00154 CLA +0 50000 0 00065    00155 STO +0 60100 0 00054    00156 CLA +0 50000 0 00161    00157 STO +0 60100 0 00204
 00160 TRA +0 02000 0 00205    00161 TRA +0 02000 0 00162    00162 CLA +0 50000 0 00070    00163 STO +0 60100 0 00054
 00164 CLA +0 50000 0 00167    00165 STO +0 60100 0 00204    00166 TRA +0 02000 0 00205    00167 TRA +0 02000 0 00170
 00170 CLA +0 50000 0 00073    00171 STO +0 60100 0 00054    00172 CLA +0 50000 0 00175    00173 STO +0 60100 0 00204
 00174 TRA +0 02000 0 00205    00175 TRA +0 02000 0 00176    00176 CLA +0 50000 0 00067    00177 STO +0 60100 0 00054
 00200 CLA +0 50000 0 00203    00201 STO +0 60100 0 00204    00202 TRA +0 02000 0 00205    00203 TRA +0 02000 0 00210
 00204 TRA +0 02000 0 00204
      SDITCH     WDITCH.(I)                                                         020  LM00027
 00205 TSX +0 07400 4 00013    00206 TXH +3 00000 0 00054    00207 TRA +0 02000 0 00204
                 COPY.(USER,NAME)                                                   021  LM00028
 00210 TSX +0 07400 4 00003    00211 TXH +3 00000 0 00062    00212 TXH +3 00000 0 00056
                 READY.                                                             022  LM00029
 00213 TSX +0 07400 4 00011
                 ENTRY TO R.                                                        023  LM00033
 00214 TRA +0 02000 0 00217    00215 SXA +0 63400 2 00357    00216 TSX +0 07400 2 00357
                 ARGBCD.(1)                                                         024  LM00034
 00217 TSX +0 07400 4 00002    00220 TXH +3 00000 0 00064
                 LOAD.                                                              025  LM00035
 00221 TSX +0 07400 4 00007
                 RTJUST.(FROM(1))                                                   026  LM00036
 00222 TSX +0 07400 4 00012    00223 TXH +3 00000 0 77332
                 WSEEK.($SAVE$)                                                     027  LM00037
 00224 TSX +0 07400 4 00016    00225 TXH +3 00000 0 00072
                 WSIZE.(SIZE)                                                       028  LM00038
 00226 TSX +0 07400 4 00017    00227 TXH +3 00000 0 00057
                 THROUGH RFIND, FOR I=1,1,I.G.SIZE                                  029  LM00039
 00230 CLA +0 50000 0 00064    00231 STO +0 60100 0 00054    00232 TRA +0 02000 0 00236    00233 CLA +0 50000 0 00054
 00234 ADD +0 40000 0 00064    00235 STO +0 60100 0 00054    00236 CLA +0 50000 0 00054    00237 SUB +0 40200 0 00057
 00240 TZE +0 10000 0 00242    00241 TPL +0 12000 0 00251
      RFIND      WHENEVER FROM(1).E.WGET.(I),TRANSFER TO RFOUND                     030  LM00040
 00242 TSX +0 07400 4 00014    00243 TXH +3 00000 0 00054    00244 CHS +0 76000 0 00002    00245 ADD +0 40000 0 77332
 00246 TNZ -0 10000 0 00250    00247 TRA +0 02000 0 00024    00250 TRA +0 02000 0 00233
                 TRANSFER TO ERROR2                                                 031  LM00041
 00251 TRA +0 02000 0 00022
      RFOUND     DELETE.(USER)                                                      032  LM00042
 00252 TSX +0 07400 4 00005    00253 TXH +3 00000 0 00062
                 THROUGH DITCH, FOR VALUES OF I=$BRK$,$INS$,$VAR$,$COMMON$          033  LM00043
 00254 CLA +0 50000 0 00065    00255 STO +0 60100 0 00054    00256 CLA +0 50000 0 00261    00257 STO +0 60100 0 00304
 00260 TRA +0 02000 0 00305    00261 TRA +0 02000 0 00262    00262 CLA +0 50000 0 00070    00263 STO +0 60100 0 00054
 00264 CLA +0 50000 0 00267    00265 STO +0 60100 0 00304    00266 TRA +0 02000 0 00305    00267 TRA +0 02000 0 00270
 00270 CLA +0 50000 0 00073    00271 STO +0 60100 0 00054    00272 CLA +0 50000 0 00275    00273 STO +0 60100 0 00304
 00274 TRA +0 02000 0 00305    00275 TRA +0 02000 0 00276    00276 CLA +0 50000 0 00067    00277 STO +0 60100 0 00054
 00300 CLA +0 50000 0 00303    00301 STO +0 60100 0 00304    00302 TRA +0 02000 0 00305    00303 TRA +0 02000 0 00310
 00304 TRA +0 02000 0 00304
      DITCH      WDITCH.(I)                                                         034  LM00044
 00305 TSX +0 07400 4 00013    00306 TXH +3 00000 0 00054    00307 TRA +0 02000 0 00304
                 NAME=FROM(1)                                                       035  LM00045
 00310 CLA +0 50000 0 77332    00311 STO +0 60100 0 00056
                 COPY.(NAME,USER)                                                   036  LM00046
 00312 TSX +0 07400 4 00003    00313 TXH +3 00000 0 00056    00314 TXH +3 00000 0 00062
                 READY.                                                             037  LM00047
 00315 TSX +0 07400 4 00011
      ERROR1     PRINT.(COM1)                                                       038  LM00049
 00316 TSX +0 07400 4 00010    00317 TXH +3 00000 0 00037
                 VECTOR VALUES COM1=56,$SAVED FILE NAMES MUST BEGIN WI$,            039  LM00050
                1$TH AN ASTRISK.  TRY AGAIN.$                                       039  LM00051
 00025     -0 53360 6 06060    00026     -3 06021 2 72131    00027     -0 23360 6 06351    00030     +2 16263 5 13162
 00031     -2 33060 2 14560    00032     +2 73145 6 06631    00033     -2 46263 6 02225    00034     +2 14425 6 26044
 00035     +2 63143 2 56045    00036     -2 22165 2 52460    00037     +0 00000 0 00070
                 READY.                                                             040  LM00052
 00320 TSX +0 07400 4 00011
      ERROR2     LIST=0                                                             041  LM00054
 00321 CLA +0 50000 0 00063    00322 STO +0 60100 0 77461
                 ADDNAM.(FROM(1))                                                   042  LM00055
 00323 TSX +0 07400 4 00001    00324 TXH +3 00000 0 77332
                 ADDCOM.(COM2)                                                      043  LM00056
 00325 TSX +0 07400 4 00000    00326 TXH +3 00000 0 00050
                 CRTYPE.                                                            044  LM00057
 00327 TSX +0 07400 4 00004
                 VECTOR VALUES COM2=46,$ IS NOT A SAVED FILE.  Y$,                  045  LM00058
                1$OUR SAVED FILES ARE...$                                           045  LM00059
 00040     +2 53333 3 36060    00041     -0 32562 6 02151    00042     -2 52524 6 02631    00043     -0 66451 6 06221
 00044     -0 32533 6 06070    00045     -2 52524 6 02631    00046     -2 36021 6 06221    00047     -2 03162 6 04546
 00050     +0 00000 0 00056
                 THROUGH PFILES,FOR I=1,1,I.G.SIZE                                  046  LM00060
 00330 CLA +0 50000 0 00064    00331 STO +0 60100 0 00054    00332 TRA +0 02000 0 00336    00333 CLA +0 50000 0 00054
 00334 ADD +0 40000 0 00064    00335 STO +0 60100 0 00054    00336 CLA +0 50000 0 00054    00337 SUB +0 40200 0 00057
 00340 TZE +0 10000 0 00342    00341 TPL +0 12000 0 00353
                 LIST=0                                                             047  LM00061
 00342 CLA +0 50000 0 00063    00343 STO +0 60100 0 77461
                 ADDNAM.(WGET.(I))                                                  048  LM00062
 00344 TSX +0 07400 4 00014    00345 TXH +3 00000 0 00054    00346 STO +0 60100 0 00367    00347 TSX +0 07400 4 00001
 00350 TXH +3 00000 0 00367
      PFILES     CRTYPE.                                                            049  LM00063
 00351 TSX +0 07400 4 00004    00352 TRA +0 02000 0 00333
                 PRINT.(COM3)                                                       050  LM00064
 00353 TSX +0 07400 4 00010    00354 TXH +3 00000 0 00053
                 VECTOR VALUES COM3=10,$TRY AGAIN.$                                 051  LM00065
 00051     +2 13145 3 36060    00052     -2 35170 6 02127    00053     +0 00000 0 00012
                 READY.                                                             052  LM00066
 00355 TSX +0 07400 4 00011
                 END OF FUNCTION                                                    053  LM00068
 00356 TSX +0 07400 4 00006    00357 TXH +3 00000 0 00000    00360 SXD -0 63400 1 00357    00361 SXA +0 63400 4 00363
 00362 TRA +0 02000 2 00001    00363 AXT +0 77400 4 00000    00364 LXA +0 53400 2 00357    00365 LXD -0 53400 1 00357
 00366 TRA +0 02000 4 00001
1     MAD PROGRAM LISTING ... ... ...                 FILE   SPACE   MAD            02/07/68    2003.8
-
                  EXTERNAL FUNCTION                                                               *001 LM00001
                  NORMAL MODE IS INTEGER                                                          *002 LM00002
                  PROGRAM COMMON LIST(84)                                                         *003 LM00003
                  VECTOR VALUES CR=556060606060K                                                  *004 LM00004
                  VECTOR VALUES TAB=726060606060K                                                 *005 LM00005
                                                                                                       LM00006
                 SPACE TO CR OR NEXT NON-BLANK                                                         LM00007
                                                                                                       LM00008
                  ENTRY TO SPACE.                                                                 *006 LM00009
                  WHENEVER LIST(LIST).NE.$ $.AND.LIST(LIST).NE.CR.AND.                            *007 LM00010
                1 LIST(LIST).NE.TAB, SYNTAX.                                                      *007 LM00011
                  ENTRY TO OSPACE.                                                                *008 LM00012
      A           THROUGH A, FOR LIST=LIST,1,LIST(LIST).NE.$ $.AND.LIST(LIST).N                   *009 LM00013
                1 E.TAB                                                                           *009 LM00014
                  FUNCTION RETURN                                                                 *010 LM00015
                                                                                                       LM00016
                 RETURN THE TRUTH OF 'THE NEXT INPUT CHARACTER IS A SPACE,TAB,                         LM00017
                 OR CARRIAGE RETURN'.                                                                  LM00018
                                                                                                       LM00019
                  ENTRY TO SPACEP.                                                                *011 LM00020
                  WHENEVER LIST(LIST).E.TAB.OR.LIST(LIST).E.CR.OR.                                *012 LM00021
                1 LIST(LIST).E.$ $,FUNCTION RETURN 1B                                             *012 LM00022
                  FUNCTION RETURN 0B                                                              *013 LM00023
                                                                                                       LM00024
                 RETURN THE TRUTH OF 'THE NEXT INPUT CHARACTER IS A                                    LM00025
                 CARRIAGE RETURN'.                                                                     LM00026
                                                                                                       LM00027
                  ENTRY TO CRP.                                                                   *014 LM00028
                  WHENEVER LIST(LIST).E.CR,FUNCTION RETURN 1B                                     *015 LM00029
                  FUNCTION RETURN 0B                                                              *016 LM00030
                  END OF FUNCTION                                                                 *017 LM00031
1MAD PROGRAM,TYPE NOV 1963      (ALL NUMBERS ARE OCTAL)
0TOTAL LOCATIONS   00120 TRANSFER VECTOR LENGTH  00002 PROGRAM BEGINS    00011 FIRST UNUSED COMMON/ERASABLE  77334
0 PROGRAM IS AN EXTERNAL FUNCTION.   THE FOLLOWING ARE ENTRIES
      CRP    00073   0        SPACEP 00052   0        OSPACE 00030   0        SPACE  00012   0
0VARIABLE STORAGE (A=ARRAY,C=COMMON,E=ERASABLE,DIGIT=MODE)
      A      00002   4        CR     00003 A 1        LIST   77461 AC1        TAB    00004 A 1
0FUNCTION DICTIONARY
      EXIT   00000   1        SYNTAX 00001   1
0ABSOLUTE CONSTANTS
 00005 +000000000000     00010 -206060606060     00006 +000000000001     00007 +233000000000
0PROGRAM
                 EXTERNAL FUNCTION                                                  001  LM00001
                 NORMAL MODE IS INTEGER                                             002  LM00002
                 PROGRAM COMMON LIST(84)                                            003  LM00003
                 VECTOR VALUES CR=556060606060K                                     004  LM00004
 00003     -1 56060 6 06060
                 VECTOR VALUES TAB=726060606060K                                    005  LM00005
 00004     -3 26060 6 06060
                 ENTRY TO SPACE.                                                    006  LM00009
 00011 TRA +0 02000 0 00014    00012 SXA +0 63400 2 00106    00013 TSX +0 07400 2 00106
                 WHENEVER LIST(LIST).NE.$ $.AND.LIST(LIST).NE.CR.AND.               007  LM00010
                1LIST(LIST).NE.TAB, SYNTAX.                                         007  LM00011
 00014 LXA +0 53400 1 77461    00015 CLA +0 50000 1 77461    00016 SUB +0 40200 0 00004    00017 TZE +0 10000 0 00027
 00020 CLA +0 50000 1 77461    00021 SUB +0 40200 0 00003    00022 TZE +0 10000 0 00027    00023 CLA +0 50000 1 77461
 00024 SUB +0 40200 0 00010    00025 TZE +0 10000 0 00027    00026 TSX +0 07400 4 00001
                 ENTRY TO OSPACE.                                                   008  LM00012
 00027 TRA +0 02000 0 00032    00030 SXA +0 63400 2 00106    00031 TSX +0 07400 2 00106
      A          THROUGH A, FOR LIST=LIST,1,LIST(LIST).NE.$ $.AND.LIST(LIST).N      009  LM00013
                1E.TAB                                                              009  LM00014
 00032 CLA +0 50000 0 77461    00033 STO +0 60100 0 77461    00034 TRA +0 02000 0 00040    00035 CLA +0 50000 0 77461
 00036 ADD +0 40000 0 00006    00037 STO +0 60100 0 77461    00040 LXA +0 53400 1 77461    00041 CLA +0 50000 1 77461
 00042 SUB +0 40200 0 00004    00043 TZE +0 10000 0 00047    00044 CLA +0 50000 1 77461    00045 SUB +0 40200 0 00010
 00046 TNZ -0 10000 0 00050    00047 TRA +0 02000 0 00035
                 FUNCTION RETURN                                                    010  LM00015
 00050 TRA +0 02000 0 00112
                 ENTRY TO SPACEP.                                                   011  LM00020
 00051 TRA +0 02000 0 00054    00052 SXA +0 63400 2 00106    00053 TSX +0 07400 2 00106
                 WHENEVER LIST(LIST).E.TAB.OR.LIST(LIST).E.CR.OR.                   012  LM00021
                1LIST(LIST).E.$ $,FUNCTION RETURN 1B                                012  LM00022
 00054 LXA +0 53400 1 77461    00055 CLA +0 50000 1 77461    00056 SUB +0 40200 0 00010    00057 TZE +0 10000 0 00066
 00060 CLA +0 50000 1 77461    00061 SUB +0 40200 0 00003    00062 TZE +0 10000 0 00066    00063 CLA +0 50000 1 77461
 00064 SUB +0 40200 0 00004    00065 TNZ -0 10000 0 00070    00066 CLA +0 50000 0 00006    00067 TRA +0 02000 0 00112
                 FUNCTION RETURN 0B                                                 013  LM00023
 00070 CLA +0 50000 0 00005    00071 TRA +0 02000 0 00112
                 ENTRY TO CRP.                                                      014  LM00028
 00072 TRA +0 02000 0 00075    00073 SXA +0 63400 2 00106    00074 TSX +0 07400 2 00106
                 WHENEVER LIST(LIST).E.CR,FUNCTION RETURN 1B                        015  LM00029
 00075 LXA +0 53400 1 77461    00076 CLA +0 50000 1 77461    00077 SUB +0 40200 0 00003    00100 TNZ -0 10000 0 00103
 00101 CLA +0 50000 0 00006    00102 TRA +0 02000 0 00112
                 FUNCTION RETURN 0B                                                 016  LM00030
 00103 CLA +0 50000 0 00005    00104 TRA +0 02000 0 00112
                 END OF FUNCTION                                                    017  LM00031
 00105 TSX +0 07400 4 00000    00106 TXH +3 00000 0 00000    00107 SXD -0 63400 1 00106    00110 SXA +0 63400 4 00112
 00111 TRA +0 02000 2 00001    00112 AXT +0 77400 4 00000    00113 LXA +0 53400 2 00106    00114 LXD -0 53400 1 00106
 00115 TRA +0 02000 4 00001
1     MAD PROGRAM LISTING ... ... ...                 FILE   START   MAD            02/07/68    2003.9
-
                  EXTERNAL FUNCTION                                                               *001 LM00001
                  NORMAL MODE IS INTEGER                                                          *002 LM00002
                  DIMENSION BUFF(99),LINE(12)                                                     *003 LM00003
                  VECTOR VALUES MADBUG=$(MDBG)   BSS$                                             *004 LM00004
                  VECTOR VALUES LINE=72                                                           *005 LM00005
                  VECTOR VALUES STORY=$MADBUG STORY$                                              *006 LM00006
                  VECTOR VALUES DOLINE=$(MBGI) SAVED$                                             *007 LM00007
                                                                                                       LM00008
                 AFTER THIS SECTION IS EXECUTED,MADBUG IS READY TO BE USED                             LM00009
                                                                                                       LM00010
                  ENTRY TO START.                                                                 *008 LM00011
                  WSETUP.($(MDBG)$,MADBUG,0)                                                      *009 LM00012
                  WSETUP.($DOLINE$,DOLINE,0)                                                      *010 LM00013
                  WSETUP.($STORY$,STORY,0)                                                        *011 LM00014
                  CHNCOM.(1)                                                                      *012 LM00015
                  ENTRY TO RSTART.                                                                *013 LM00016
                                                                                                       LM00017
                                                                                                       LM00018
                 SAVE COMMAND BUFFER AND CALL READY FOR FIRST REQUEST                                  LM00019
                                                                                                       LM00020
                  INTGO.(DONE)                                                                    *014 LM00021
                  WSEEK.($STORY$)                                                                 *015 LM00022
                  WSIZE.(SIZE)                                                                    *016 LM00023
                  THROUGH OUTPUT,FOR I=1,14,I.G.SIZE                                              *017 LM00024
                  THROUGH CSET,FOR J=1,1,J.G.LINE                                                 *018 LM00025
      CSET        LINE(J)=WGET.(I+J-1)                                                            *019 LM00026
      OUTPUT      PRINT.(LINE)                                                                    *020 LM00027
                  INTNO.                                                                          *021 LM00028
      DONE        WDITCH.($STORY$)                                                                *022 LM00029
                  PRINT.(0)                                                                       *023 LM00030
                                                                                                       LM00031
                  TEST=GCLC.(CC,LC)                                                               *024 LM00032
                  WHENEVER TEST.NE.0                                                              *025 LM00033
                  THROUGH GET, FOR I=CC,1,I.G.LC                                                  *026 LM00034
      GET         GCLS.(BUFF(10*(I-1)),I)                                                         *027 LM00035
                  END OF CONDITIONAL                                                              *028 LM00036
                  READY.                                                                          *029 LM00037
                                                                                                       LM00038
                 WRITE OUT CURRENT VERSION OF SYMBOLIC PROGRAM                                         LM00039
                 DELETE ALL MADBUG CREATED FILES                                                       LM00040
                 RESTORE COMMAND BUFFER AND CALL CHNCOM                                                LM00041
                                                                                                       LM00042
                  ENTRY TO Q.                                                                     *030 LM00043
                  UNLOAD.                                                                         *031 LM00044
                  GWORKA.(WORK)                                                                   *032 LM00045
                  SWORK.($ $)                                                                     *033 LM00046
                  SWORK.(WORK)                                                                    *034 LM00047
                  SCLC.(CC,LC)                                                                    *035 LM00048
                  WHENEVER TEST.NE.0                                                              *036 LM00049
                  THROUGH SET, FOR I=CC,1,I.G.LC                                                  *037 LM00050
      SET         SCLS.(BUFF(10*(I-1)),I)                                                         *038 LM00051
                  END OF CONDITIONAL                                                              *039 LM00052
                  CHNCOM.(0)                                                                      *040 LM00053
                                                                                                       LM00054
                  END OF FUNCTION                                                                 *041 LM00055
1MAD PROGRAM,TYPE NOV 1963      (ALL NUMBERS ARE OCTAL)
0TOTAL LOCATIONS   00454 TRANSFER VECTOR LENGTH  00022 PROGRAM BEGINS    00233
0 PROGRAM IS AN EXTERNAL FUNCTION.   THE FOLLOWING ARE ENTRIES
      Q      00371   0        RSTART 00255   0        START  00234   0
0VARIABLE STORAGE (A=ARRAY,C=COMMON,E=ERASABLE,DIGIT=MODE)
      BUFF   00167 A 1        DONE   00023   4        LC     00175   1        OUTPUT 00022   4        STORY  00217 A 1
      CC     00170   1        GET    00022   4        LINE   00212 A 1        SET    00022   4        TEST   00220   1
      CSET   00022   4        I      00173   1        MADBUG 00214 A 1        SIZE   00215   1        WORK   00221   1
      DOLINE 00172 A 1        J      00174   1
0FUNCTION DICTIONARY
      CHNCOM 00000   1        EXIT   00001   1        GCLC   00002   1        GCLS   00003   1        GWORKA 00004   1
      INTGO  00005   1        INTNO  00006   1        PRINT  00007   1        READY  00010   1        SCLC   00011   1
      SCLS   00012   1        SWORK  00013   1        UNLOAD 00014   1        WDITCH 00015   1        WGET   00016   1
      WSEEK  00017   1        WSETUP 00020   1        WSIZE  00021   1
0ABSOLUTE CONSTANTS
 00230 -206060606060     00224 +000000000012     00225 +000000000016     00231 -226346517060     00227 +244643314525
 00222 +000000000000     00232 -344424222734     00223 +000000000001     00226 +233000000000
0STATEMENT DICTIONARY
 00023 TXL -300330000326
0PROGRAM
                 EXTERNAL FUNCTION                                                  001  LM00001
                 NORMAL MODE IS INTEGER                                             002  LM00002
                 DIMENSION BUFF(99),LINE(12)                                        003  LM00003
                 VECTOR VALUES MADBUG=$(MDBG)   BSS$                                004  LM00004
 00213     -2 06060 2 26262    00214     -3 44424 2 22734
                 VECTOR VALUES LINE=72                                              005  LM00005
 00212     +0 00000 0 00110
                 VECTOR VALUES STORY=$MADBUG STORY$                                 006  LM00006
 00216     -2 06263 4 65170    00217     -0 42124 2 26427
                 VECTOR VALUES DOLINE=$(MBGI) SAVED$                                007  LM00007
 00171     -2 06221 6 52524    00172     -3 44422 2 73134
                 ENTRY TO START.                                                    008  LM00011
 00233 TRA +0 02000 0 00236    00234 SXA +0 63400 2 00441    00235 TSX +0 07400 2 00441
                 WSETUP.($(MDBG)$,MADBUG,0)                                         009  LM00012
 00236 TSX +0 07400 4 00020    00237 TXH +3 00000 0 00232    00240 TXH +3 00000 0 00214    00241 TXH +3 00000 0 00222
                 WSETUP.($DOLINE$,DOLINE,0)                                         010  LM00013
 00242 TSX +0 07400 4 00020    00243 TXH +3 00000 0 00227    00244 TXH +3 00000 0 00172    00245 TXH +3 00000 0 00222
                 WSETUP.($STORY$,STORY,0)                                           011  LM00014
 00246 TSX +0 07400 4 00020    00247 TXH +3 00000 0 00231    00250 TXH +3 00000 0 00217    00251 TXH +3 00000 0 00222
                 CHNCOM.(1)                                                         012  LM00015
 00252 TSX +0 07400 4 00000    00253 TXH +3 00000 0 00223
                 ENTRY TO RSTART.                                                   013  LM00016
 00254 TRA +0 02000 0 00257    00255 SXA +0 63400 2 00441    00256 TSX +0 07400 2 00441
                 INTGO.(DONE)                                                       014  LM00021
 00257 TSX +0 07400 4 00005    00260 TXH +3 00000 0 00023
                 WSEEK.($STORY$)                                                    015  LM00022
 00261 TSX +0 07400 4 00017    00262 TXH +3 00000 0 00231
                 WSIZE.(SIZE)                                                       016  LM00023
 00263 TSX +0 07400 4 00021    00264 TXH +3 00000 0 00215
                 THROUGH OUTPUT,FOR I=1,14,I.G.SIZE                                 017  LM00024
 00265 CLA +0 50000 0 00223    00266 STO +0 60100 0 00173    00267 TRA +0 02000 0 00273    00270 CLA +0 50000 0 00173
 00271 ADD +0 40000 0 00225    00272 STO +0 60100 0 00173    00273 CLA +0 50000 0 00173    00274 SUB +0 40200 0 00215
 00275 TZE +0 10000 0 00277    00276 TPL +0 12000 0 00325
                 THROUGH CSET,FOR J=1,1,J.G.LINE                                    018  LM00025
 00277 CLA +0 50000 0 00223    00300 STO +0 60100 0 00174    00301 TRA +0 02000 0 00305    00302 CLA +0 50000 0 00174
 00303 ADD +0 40000 0 00223    00304 STO +0 60100 0 00174    00305 CLA +0 50000 0 00174    00306 SUB +0 40200 0 00212
 00307 TZE +0 10000 0 00311    00310 TPL +0 12000 0 00322
      CSET       LINE(J)=WGET.(I+J-1)                                               019  LM00026
 00311 CLA +0 50000 0 00173    00312 ADD +0 40000 0 00174    00313 SUB +0 40200 0 00223    00314 STO +0 60100 0 00451
 00315 TSX +0 07400 4 00016    00316 TXH +3 00000 0 00451    00317 LXA +0 53400 1 00174    00320 STO +0 60100 1 00212
 00321 TRA +0 02000 0 00302
      OUTPUT     PRINT.(LINE)                                                       020  LM00027
 00322 TSX +0 07400 4 00007    00323 TXH +3 00000 0 00212    00324 TRA +0 02000 0 00270
                 INTNO.                                                             021  LM00028
 00325 TSX +0 07400 4 00006
      DONE       WDITCH.($STORY$)                                                   022  LM00029
 00326 TSX +0 07400 4 00015    00327 TXH +3 00000 0 00231
                 PRINT.(0)                                                          023  LM00030
 00330 TSX +0 07400 4 00007    00331 TXH +3 00000 0 00222
                 TEST=GCLC.(CC,LC)                                                  024  LM00032
 00332 TSX +0 07400 4 00002    00333 TXH +3 00000 0 00170    00334 TXH +3 00000 0 00175    00335 STO +0 60100 0 00220
                 WHENEVER TEST.NE.0                                                 025  LM00033
 00336 CLA +0 50000 0 00220    00337 SUB +0 40200 0 00222    00340 TZE +0 10000 0 00367
                 THROUGH GET, FOR I=CC,1,I.G.LC                                     026  LM00034
 00341 CLA +0 50000 0 00170    00342 STO +0 60100 0 00173    00343 TRA +0 02000 0 00347    00344 CLA +0 50000 0 00173
 00345 ADD +0 40000 0 00223    00346 STO +0 60100 0 00173    00347 CLA +0 50000 0 00173    00350 SUB +0 40200 0 00175
 00351 TZE +0 10000 0 00353    00352 TPL +0 12000 0 00367
      GET        GCLS.(BUFF(10*(I-1)),I)                                            027  LM00035
 00353 CLA +0 50000 0 00173    00354 SUB +0 40200 0 00223    00355 XCA +0 13100 0 00000    00356 MPY +0 20000 0 00224
 00357 XCA +0 13100 0 00000    00360 SUB +0 40200 0 00361    00361 TXH +3 00000 0 00167    00362 STA +0 62100 0 00364
 00363 TSX +0 07400 4 00003    00364 TXH +3 00000 0 00000    00365 TXH +3 00000 0 00173    00366 TRA +0 02000 0 00344
                 END OF CONDITIONAL                                                 028  LM00036
                 READY.                                                             029  LM00037
 00367 TSX +0 07400 4 00010
                 ENTRY TO Q.                                                        030  LM00043
 00370 TRA +0 02000 0 00373    00371 SXA +0 63400 2 00441    00372 TSX +0 07400 2 00441
                 UNLOAD.                                                            031  LM00044
 00373 TSX +0 07400 4 00014
                 GWORKA.(WORK)                                                      032  LM00045
 00374 TSX +0 07400 4 00004    00375 TXH +3 00000 0 00221
                 SWORK.($ $)                                                        033  LM00046
 00376 TSX +0 07400 4 00013    00377 TXH +3 00000 0 00230
                 SWORK.(WORK)                                                       034  LM00047
 00400 TSX +0 07400 4 00013    00401 TXH +3 00000 0 00221
                 SCLC.(CC,LC)                                                       035  LM00048
 00402 TSX +0 07400 4 00011    00403 TXH +3 00000 0 00170    00404 TXH +3 00000 0 00175
                 WHENEVER TEST.NE.0                                                 036  LM00049
 00405 CLA +0 50000 0 00220    00406 SUB +0 40200 0 00222    00407 TZE +0 10000 0 00436
                 THROUGH SET, FOR I=CC,1,I.G.LC                                     037  LM00050
 00410 CLA +0 50000 0 00170    00411 STO +0 60100 0 00173    00412 TRA +0 02000 0 00416    00413 CLA +0 50000 0 00173
 00414 ADD +0 40000 0 00223    00415 STO +0 60100 0 00173    00416 CLA +0 50000 0 00173    00417 SUB +0 40200 0 00175
 00420 TZE +0 10000 0 00422    00421 TPL +0 12000 0 00436
      SET        SCLS.(BUFF(10*(I-1)),I)                                            038  LM00051
 00422 CLA +0 50000 0 00173    00423 SUB +0 40200 0 00223    00424 XCA +0 13100 0 00000    00425 MPY +0 20000 0 00224
 00426 XCA +0 13100 0 00000    00427 SUB +0 40200 0 00430    00430 TXH +3 00000 0 00167    00431 STA +0 62100 0 00433
 00432 TSX +0 07400 4 00012    00433 TXH +3 00000 0 00000    00434 TXH +3 00000 0 00173    00435 TRA +0 02000 0 00413
                 END OF CONDITIONAL                                                 039  LM00052
                 CHNCOM.(0)                                                         040  LM00053
 00436 TSX +0 07400 4 00000    00437 TXH +3 00000 0 00222
                 END OF FUNCTION                                                    041  LM00055
 00440 TSX +0 07400 4 00001    00441 TXH +3 00000 0 00000    00442 SXD -0 63400 1 00441    00443 SXA +0 63400 4 00445
 00444 TRA +0 02000 2 00001    00445 AXT +0 77400 4 00000    00446 LXA +0 53400 2 00441    00447 LXD -0 53400 1 00441
 00450 TRA +0 02000 4 00001
1     MAD PROGRAM LISTING ... ... ...                 FILE   SWORK   MAD            02/07/68    2004.0
-
                  EXTERNAL FUNCTION (NAME)                                                        *001 LM00001
                  NORMAL MODE IS INTEGER                                                          *002 LM00002
                  BOOLEAN WSEEK,WCHANG,WRKBL                                                      *003 LM00003
                  PROGRAM COMMON LIST(84),MAX,FROM(20),TO(20),FSUB(20),TSUB(20)                   *004 LM00004
                1 ,USES(60)                                                                       *004 LM00005
                  VECTOR VALUES WORK=$ $                                                          *005 LM00006
                                                                                                       LM00007
                 GET THE NAME OF SUBROUTINE BEING WORKED                                               LM00008
                                                                                                       LM00009
                  ENTRY TO GWORKA.                                                                *006 LM00010
                  NAME=WORK                                                                       *007 LM00011
                  FUNCTION RETURN                                                                 *008 LM00012
                                                                                                       LM00013
                 GET NAME OF SUBROUTINE BEING WORKED                                                   LM00014
                 BUT CONSIDER IT AN ERROR IF USER HAS NOT SET WORK                                     LM00015
                                                                                                       LM00016
                  ENTRY TO GWORK.                                                                 *009 LM00017
                  WHENEVER WORK.NE.$ $                                                            *010 LM00018
                  NAME=WORK                                                                       *011 LM00019
                  FUNCTION RETURN                                                                 *012 LM00020
                  END OF CONDITIONAL                                                              *013 LM00021
      ERR1        PRINT.(COM1)                                                                    *014 LM00022
                  VECTOR VALUES COM1=34,$GIVE A WORK REQUEST AND TRY AGAIN.$                      *015 LM00023
                  READY.                                                                          *016 LM00024
                                                                                                       LM00025
                 SET THE NAME OF SUBROUTINE BEING WORKED                                               LM00026
                                                                                                       LM00027
                  ENTRY TO SWORK.                                                                 *017 LM00028
                                                                                                       LM00029
                  WHENEVER WSEEK.($PROG$)                                                         *018 LM00030
                  WHENEVER WCHANG.(0)                                                             *019 LM00031
                  ONE=$    00$                                                                    *020 LM00032
                  TWO=$01    $                                                                    *021 LM00033
                  WSIZE.(END)                                                                     *022 LM00034
                  END=END/14                                                                      *023 LM00035
                  THROUGH SL,FOR I=1,1,I.G.END                                                    *024 LM00036
                  WSET.(I*14-1,ONE)                                                               *025 LM00037
                  WSET.(I*14,TWO)                                                                 *026 LM00038
                  TWO=TWO+1K8                                                                     *027 LM00039
                  WHENEVER TWO.A.77K8.NE.12K8,TRANSFER TO SL                                      *028 LM00040
                  TWO=TWO+66K8                                                                    *029 LM00041
                  WHENEVER TWO.A.77K10.NE.12K10,TRANSFER TO SL                                    *030 LM00042
                  TWO=$00    $                                                                    *031 LM00043
                  ONE=ONE-1                                                                       *032 LM00044
                  WHENEVER ONE.A.77K.NE.12,TRANSFER TO SL                                         *033 LM00045
                  ONE=ONE-66K                                                                     *034 LM00046
      SL          CONTINUE                                                                        *035 LM00047
                  END OF CONDITIONAL                                                              *036 LM00048
                  END OF CONDITIONAL                                                              *037 LM00049
                                                                                                       LM00050
                  THROUGH DITCH, FOR VALUES OF I=$PROG$,$VAR$,$INS$,                              *038 LM00051
                1 $SL/SN$,$MADTAB$                                                                *038 LM00052
      DITCH       WDITCH.(I)                                                                      *039 LM00053
                                                                                                       LM00054
                  WORK=NAME                                                                       *040 LM00055
                  RTJUST.(WORK)                                                                   *041 LM00056
                  FUNCTION RETURN                                                                 *042 LM00057
                                                                                                       LM00058
                 CHECK WHETHER OR NOT A SUBROUTINE CAN BE WORKED                                       LM00059
                 ON IN CORE.                                                                           LM00060
                                                                                                       LM00061
                  ENTRY TO WRKBLE.                                                                *043 LM00062
                  FUNCTION RETURN WRKBL.(NAME)                                                    *044 LM00063
                                                                                                       LM00064
                  INTERNAL FUNCTION (NAME)                                                        *045 LM00065
                  ENTRY TO WRKBL.                                                                 *046 LM00066
                                                                                                       LM00067
                  WHENEVER USES(0).E.0                                                            *047 LM00068
                  PRINT.(COM4)                                                                    *048 LM00069
                  VECTOR VALUES COM4=33,$GIVE A USE REQUEST AND TRY AGAIN.$                       *049 LM00070
                  READY.                                                                          *050 LM00071
                  END OF CONDITIONAL                                                              *051 LM00072
                                                                                                       LM00073
                  X=NAME                                                                          *052 LM00074
                  RTJUST.(X)                                                                      *053 LM00075
                  THROUGH LOOP,FOR I=1,1,I.E.USES(0)                                              *054 LM00076
      LOOP        WHENEVER USES(I).E.X,FUNCTION RETURN 1B                                         *055 LM00077
                  FUNCTION RETURN 0B                                                              *056 LM00078
                  END OF FUNCTION                                                                 *057 LM00079
                                                                                                       LM00080
                  ENTRY TO FWRKBL.                                                                *058 LM00081
                  WHENEVER WORK.E.$ $,TRANSFER TO ERR1                                            *059 LM00082
                  WHENEVER WRKBL.(WORK),FUNCTION RETURN                                           *060 LM00083
                  LIST=0                                                                          *061 LM00084
                  ADDCOM.(COM2)                                                                   *062 LM00085
                  VECTOR VALUES COM2=37,$ACCORDING TO THE LAST 'USE' REQUEST, $                   *063 LM00086
                  ADDNAM.(WORK)                                                                   *064 LM00087
                  ADDCOM.(COM3)                                                                   *065 LM00088
                  VECTOR VALUES COM3=27,$ IS UNWORKABLE.  TRY AGAIN.$                             *066 LM00089
                  CRTYPE.                                                                         *067 LM00090
                  READY.                                                                          *068 LM00091
                  END OF FUNCTION                                                                 *069 LM00092
1MAD PROGRAM,TYPE NOV 1963      (ALL NUMBERS ARE OCTAL)
0TOTAL LOCATIONS   00450 TRANSFER VECTOR LENGTH  00014 PROGRAM BEGINS    00110 FIRST UNUSED COMMON/ERASABLE  77112
0 PROGRAM IS AN EXTERNAL FUNCTION.   THE FOLLOWING ARE ENTRIES
      FWRKBL 00403   0        WRKBLE 00322   0        SWORK  00133   0        GWORK  00117   0        GWORKA 00111   0
0VARIABLE STORAGE (A=ARRAY,C=COMMON,E=ERASABLE,DIGIT=MODE)
      COM1   00026 A 1        END    00054   1        I      00055   1        ONE    00056   1        TWO    00057   1
      COM2   00036 A 1        ERR1   00016   4        LIST   77461 AC1        SL     00017   4        USES   77207 AC1
      COM3   00044 A 1        FROM   77333 AC1        LOOP   00015   4        TO     77306 AC1        WORK   00060 A 1
      COM4   00053 A 1        FSUB   77261 AC1        MAX    77334  C1        TSUB   77234 AC1        X      00061   1
      DITCH  00015   4
0FUNCTION DICTIONARY
      ADDCOM 00000   1        ADDNAM 00001   1        CRTYPE 00002   1        EXIT   00003   1        PRINT  00004   1
      READY  00005   1        RTJUST 00006   1        WCHANG 00007   2        WDITCH 00010   1        WSEEK  00011   2
      WSET   00012   1        WSIZE  00013   1        WRKBL  00014   2
0ABSOLUTE CONSTANTS
 00101 -042124632122     00105 -224361624560     00100 +314562606060     00106 -252151606060     00066 +000000000066
 00064 +000000000014     00067 +000000000077     00070 +000060606060     00076 +120000000000     00107 -370000000000
 00074 +006600000000     00073 +001200000000     00075 +007700000000     00071 +000100000000     00065 +000000000016
 00072 +000160606060     00103 -206060600000     00062 +000000000000     00102 -075146276060     00104 -206060606060
 00063 +000000000001     00077 +233000000000
0STATEMENT DICTIONARY
 00016 TXL -300131000127       00017 TXL -300252000251
0PROGRAM
                 EXTERNAL FUNCTION (NAME)                                           001  LM00001
                 NORMAL MODE IS INTEGER                                             002  LM00002
                 BOOLEAN WSEEK,WCHANG,WRKBL                                         003  LM00003
                 PROGRAM COMMON LIST(84),MAX,FROM(20),TO(20),FSUB(20),TSUB(20)      004  LM00004
                1,USES(60)                                                          004  LM00005
                 VECTOR VALUES WORK=$ $                                             005  LM00006
 00060     -2 06060 6 06060
                 ENTRY TO GWORKA.                                                   006  LM00010
 00110 TRA +0 02000 0 00113    00111 SXA +0 63400 2 00430    00112 TSX +0 07400 2 00430
                 NAME=WORK                                                          007  LM00011
 00113 CLA +0 50000 0 00060    00114 STO +0 60100 0 00000
                 FUNCTION RETURN                                                    008  LM00012
 00115 TRA +0 02000 0 00441
                 ENTRY TO GWORK.                                                    009  LM00017
 00116 TRA +0 02000 0 00121    00117 SXA +0 63400 2 00430    00120 TSX +0 07400 2 00430
                 WHENEVER WORK.NE.$ $                                               010  LM00018
 00121 CLA +0 50000 0 00060    00122 SUB +0 40200 0 00104    00123 TZE +0 10000 0 00127
                 NAME=WORK                                                          011  LM00019
 00124 CLA +0 50000 0 00060    00125 STO +0 60100 0 00000
                 FUNCTION RETURN                                                    012  LM00020
 00126 TRA +0 02000 0 00441
                 END OF CONDITIONAL                                                 013  LM00021
      ERR1       PRINT.(COM1)                                                       014  LM00022
 00127 TSX +0 07400 4 00004    00130 TXH +3 00000 0 00026
                 VECTOR VALUES COM1=34,$GIVE A WORK REQUEST AND TRY AGAIN.$         015  LM00023
 00020     +2 13145 3 36060    00021     -2 35170 6 02127    00022     -2 36021 4 52460    00023     -1 12550 6 42562
 00024     -2 06646 5 14260    00025     +2 73165 2 56021    00026     +0 00000 0 00042
                 READY.                                                             016  LM00024
 00131 TSX +0 07400 4 00005
                 ENTRY TO SWORK.                                                    017  LM00028
 00132 TRA +0 02000 0 00135    00133 SXA +0 63400 2 00430    00134 TSX +0 07400 2 00430
                 WHENEVER WSEEK.($PROG$)                                            018  LM00030
 00135 TSX +0 07400 4 00011    00136 TXH +3 00000 0 00102    00137 TZE +0 10000 0 00252
                 WHENEVER WCHANG.(0)                                                019  LM00031
 00140 TSX +0 07400 4 00007    00141 TXH +3 00000 0 00062    00142 TZE +0 10000 0 00252
                 ONE=$    00$                                                       020  LM00032
 00143 CLA +0 50000 0 00103    00144 STO +0 60100 0 00056
                 TWO=$01    $                                                       021  LM00033
 00145 CLA +0 50000 0 00072    00146 STO +0 60100 0 00057
                 WSIZE.(END)                                                        022  LM00034
 00147 TSX +0 07400 4 00013    00150 TXH +3 00000 0 00054
                 END=END/14                                                         023  LM00035
 00151 LDQ +0 56000 0 00054    00152 PXD -0 75400 0 00000    00153 LLS +0 76300 0 00000    00154 DVP +0 22100 0 00065
 00155 STQ -0 60000 0 00054
                 THROUGH SL,FOR I=1,1,I.G.END                                       024  LM00036
 00156 CLA +0 50000 0 00063    00157 STO +0 60100 0 00055    00160 TRA +0 02000 0 00164    00161 CLA +0 50000 0 00055
 00162 ADD +0 40000 0 00063    00163 STO +0 60100 0 00055    00164 CLA +0 50000 0 00055    00165 SUB +0 40200 0 00054
 00166 TZE +0 10000 0 00170    00167 TPL +0 12000 0 00252
                 WSET.(I*14-1,ONE)                                                  025  LM00037
 00170 LDQ +0 56000 0 00055    00171 MPY +0 20000 0 00065    00172 XCA +0 13100 0 00000    00173 SUB +0 40200 0 00063
 00174 STO +0 60100 0 00445    00175 TSX +0 07400 4 00012    00176 TXH +3 00000 0 00445    00177 TXH +3 00000 0 00056
                 WSET.(I*14,TWO)                                                    026  LM00038
 00200 LDQ +0 56000 0 00055    00201 MPY +0 20000 0 00065    00202 STQ -0 60000 0 00445    00203 TSX +0 07400 4 00012
 00204 TXH +3 00000 0 00445    00205 TXH +3 00000 0 00057
                 TWO=TWO+1K8                                                        027  LM00039
 00206 CLA +0 50000 0 00057    00207 ADD +0 40000 0 00071    00210 STO +0 60100 0 00057
                 WHENEVER TWO.A.77K8.NE.12K8,TRANSFER TO SL                         028  LM00040
 00211 CAL -0 50000 0 00057    00212 ANA -0 32000 0 00075    00213 SLW +0 60200 0 00445    00214 CLA +0 50000 0 00445
 00215 SUB +0 40200 0 00073    00216 TZE +0 10000 0 00220    00217 TRA +0 02000 0 00017
                 TWO=TWO+66K8                                                       029  LM00041
 00220 CLA +0 50000 0 00057    00221 ADD +0 40000 0 00074    00222 STO +0 60100 0 00057
                 WHENEVER TWO.A.77K10.NE.12K10,TRANSFER TO SL                       030  LM00042
 00223 CAL -0 50000 0 00057    00224 ANA -0 32000 0 00107    00225 SLW +0 60200 0 00445    00226 CLA +0 50000 0 00445
 00227 SUB +0 40200 0 00076    00230 TZE +0 10000 0 00232    00231 TRA +0 02000 0 00017
                 TWO=$00    $                                                       031  LM00043
 00232 CLA +0 50000 0 00070    00233 STO +0 60100 0 00057
                 ONE=ONE-1                                                          032  LM00044
 00234 CLA +0 50000 0 00056    00235 SUB +0 40200 0 00063    00236 STO +0 60100 0 00056
                 WHENEVER ONE.A.77K.NE.12,TRANSFER TO SL                            033  LM00045
 00237 CAL -0 50000 0 00056    00240 ANA -0 32000 0 00067    00241 SLW +0 60200 0 00445    00242 CLA +0 50000 0 00445
 00243 SUB +0 40200 0 00064    00244 TZE +0 10000 0 00246    00245 TRA +0 02000 0 00017
                 ONE=ONE-66K                                                        034  LM00046
 00246 CLA +0 50000 0 00056    00247 SUB +0 40200 0 00066    00250 STO +0 60100 0 00056
      SL         CONTINUE                                                           035  LM00047
 00251 TRA +0 02000 0 00161
                 END OF CONDITIONAL                                                 036  LM00048
                 END OF CONDITIONAL                                                 037  LM00049
                 THROUGH DITCH, FOR VALUES OF I=$PROG$,$VAR$,$INS$,                 038  LM00051
                1$SL/SN$,$MADTAB$                                                   038  LM00052
 00252 CLA +0 50000 0 00102    00253 STO +0 60100 0 00055    00254 CLA +0 50000 0 00257    00255 STO +0 60100 0 00310
 00256 TRA +0 02000 0 00311    00257 TRA +0 02000 0 00260    00260 CLA +0 50000 0 00106    00261 STO +0 60100 0 00055
 00262 CLA +0 50000 0 00265    00263 STO +0 60100 0 00310    00264 TRA +0 02000 0 00311    00265 TRA +0 02000 0 00266
 00266 CLA +0 50000 0 00100    00267 STO +0 60100 0 00055    00270 CLA +0 50000 0 00273    00271 STO +0 60100 0 00310
 00272 TRA +0 02000 0 00311    00273 TRA +0 02000 0 00274    00274 CLA +0 50000 0 00105    00275 STO +0 60100 0 00055
 00276 CLA +0 50000 0 00301    00277 STO +0 60100 0 00310    00300 TRA +0 02000 0 00311    00301 TRA +0 02000 0 00302
 00302 CLA +0 50000 0 00101    00303 STO +0 60100 0 00055    00304 CLA +0 50000 0 00307    00305 STO +0 60100 0 00310
 00306 TRA +0 02000 0 00311    00307 TRA +0 02000 0 00314    00310 TRA +0 02000 0 00310
      DITCH      WDITCH.(I)                                                         039  LM00053
 00311 TSX +0 07400 4 00010    00312 TXH +3 00000 0 00055    00313 TRA +0 02000 0 00310
                 WORK=NAME                                                          040  LM00055
 00314 CLA +0 50000 0 00000    00315 STO +0 60100 0 00060
                 RTJUST.(WORK)                                                      041  LM00056
 00316 TSX +0 07400 4 00006    00317 TXH +3 00000 0 00060
                 FUNCTION RETURN                                                    042  LM00057
 00320 TRA +0 02000 0 00441
                 ENTRY TO WRKBLE.                                                   043  LM00062
 00321 TRA +0 02000 0 00324    00322 SXA +0 63400 2 00430    00323 TSX +0 07400 2 00430
                 FUNCTION RETURN WRKBL.(NAME)                                       044  LM00063
 00324 TSX +0 07400 4 00014    00325 TXH +3 00000 0 00000    00326 TRA +0 02000 0 00441
                 INTERNAL FUNCTION (NAME)                                           045  LM00065
 00327 TRA +0 02000 0 00402
                 ENTRY TO WRKBL.                                                    046  LM00066
 00330 TRA +0 02000 0 00333    00014 TTR +0 02100 0 00331    00331 SXA +0 63400 2 00370    00332 TSX +0 07400 2 00370
                 WHENEVER USES(0).E.0                                               047  LM00068
 00333 CLA +0 50000 0 77207    00334 SUB +0 40200 0 00062    00335 TNZ -0 10000 0 00341
                 PRINT.(COM4)                                                       048  LM00069
 00336 TSX +0 07400 4 00004    00337 TXH +3 00000 0 00053
                 VECTOR VALUES COM4=33,$GIVE A USE REQUEST AND TRY AGAIN.$          049  LM00070
 00045     +3 14533 6 06060    00046     -1 17060 2 12721    00047     -2 02145 2 46063    00050     +2 55064 2 56263
 00051     -2 06462 2 56051    00052     +2 73165 2 56021    00053     +0 00000 0 00041
                 READY.                                                             050  LM00071
 00340 TSX +0 07400 4 00005
                 END OF CONDITIONAL                                                 051  LM00072
                 X=NAME                                                             052  LM00074
 00341 CLA +0 50000 0 00000    00342 STO +0 60100 0 00061
                 RTJUST.(X)                                                         053  LM00075
 00343 TSX +0 07400 4 00006    00344 TXH +3 00000 0 00061
                 THROUGH LOOP,FOR I=1,1,I.E.USES(0)                                 054  LM00076
 00345 CLA +0 50000 0 00063    00346 STO +0 60100 0 00055    00347 TRA +0 02000 0 00353    00350 CLA +0 50000 0 00055
 00351 ADD +0 40000 0 00063    00352 STO +0 60100 0 00055    00353 CLA +0 50000 0 00055    00354 SUB +0 40200 0 77207
 00355 TZE +0 10000 0 00365
      LOOP       WHENEVER USES(I).E.X,FUNCTION RETURN 1B                            055  LM00077
 00356 LXA +0 53400 1 00055    00357 CLA +0 50000 1 77207    00360 SUB +0 40200 0 00061    00361 TNZ -0 10000 0 00364
 00362 CLA +0 50000 0 00063    00363 TRA +0 02000 0 00376    00364 TRA +0 02000 0 00350
                 FUNCTION RETURN 0B                                                 056  LM00078
 00365 CLA +0 50000 0 00062    00366 TRA +0 02000 0 00376
                 END OF FUNCTION                                                    057  LM00079
 00367 TSX +0 07400 4 00003    00370 TXH +3 00000 0 00000    00371 SXD -0 63400 1 00370    00372 SXA +0 63400 4 00376
 00373 CLA +0 50000 4 00001    00374 STA +0 62100 0 00341    00375 TRA +0 02000 2 00001    00376 AXT +0 77400 4 00000
 00377 LXA +0 53400 2 00370    00400 LXD -0 53400 1 00370    00401 TRA +0 02000 4 00001
                 ENTRY TO FWRKBL.                                                   058  LM00081
 00402 TRA +0 02000 0 00405    00403 SXA +0 63400 2 00430    00404 TSX +0 07400 2 00430
                 WHENEVER WORK.E.$ $,TRANSFER TO ERR1                               059  LM00082
 00405 CLA +0 50000 0 00060    00406 SUB +0 40200 0 00104    00407 TNZ -0 10000 0 00411    00410 TRA +0 02000 0 00016
                 WHENEVER WRKBL.(WORK),FUNCTION RETURN                              060  LM00083
 00411 TSX +0 07400 4 00014    00412 TXH +3 00000 0 00060    00413 TZE +0 10000 0 00415    00414 TRA +0 02000 0 00441
                 LIST=0                                                             061  LM00084
 00415 CLA +0 50000 0 00062    00416 STO +0 60100 0 77461
                 ADDCOM.(COM2)                                                      062  LM00085
 00417 TSX +0 07400 4 00000    00420 TXH +3 00000 0 00036
                 VECTOR VALUES COM2=37,$ACCORDING TO THE LAST 'USE' REQUEST, $      063  LM00086
 00027     -2 06060 6 06060    00030     -1 06425 6 26373    00031     -2 22514 6 05125    00032     +2 16263 6 01464
 00033     -2 06330 2 56043    00034     +3 14527 6 06346    00035     +2 12323 4 65124    00036     +0 00000 0 00045
                 ADDNAM.(WORK)                                                      064  LM00087
 00421 TSX +0 07400 4 00001    00422 TXH +3 00000 0 00060
                 ADDCOM.(COM3)                                                      065  LM00088
 00423 TSX +0 07400 4 00000    00424 TXH +3 00000 0 00044
                 VECTOR VALUES COM3=27,$ IS UNWORKABLE.  TRY AGAIN.$                066  LM00089
 00037     +3 14533 6 06060    00040     -1 17060 2 12721    00041     -0 32533 6 06063    00042     -2 64651 4 22122
 00043     -2 03162 6 06445    00044     +0 00000 0 00033
                 CRTYPE.                                                            067  LM00090
 00425 TSX +0 07400 4 00002
                 READY.                                                             068  LM00091
 00426 TSX +0 07400 4 00005
                 END OF FUNCTION                                                    069  LM00092
 00427 TSX +0 07400 4 00003    00430 TXH +3 00000 0 00000    00431 SXD -0 63400 1 00430    00432 SXA +0 63400 4 00441
 00433 CLA +0 50000 4 00001    00434 STA +0 62100 0 00114    00435 STA +0 62100 0 00125    00436 STA +0 62100 0 00314
 00437 STO +0 60100 0 00325    00440 TRA +0 02000 2 00001    00441 AXT +0 77400 4 00000    00442 LXA +0 53400 2 00430
 00443 LXD -0 53400 1 00430    00444 TRA +0 02000 4 00001
1     MAD PROGRAM LISTING ... ... ...                 FILE  SYNTAX   MAD            02/07/68    2004.1
-
                  EXTERNAL FUNCTION                                                               *001 LM00001
                  NORMAL MODE IS INTEGER                                                          *002 LM00002
                  PROGRAM COMMON LIST(84)                                                         *003 LM00003
                  VECTOR VALUES CR=556060606060K                                                  *004 LM00004
                                                                                                       LM00005
                 COMMENT ON ILLEGAL CHARACTER                                                          LM00006
                                                                                                       LM00007
                  ENTRY TO ERROR.                                                                 *005 LM00008
                  ENTRY TO SYNTAX.                                                                *006 LM00009
                                                                                                       LM00010
                  WHENEVER LIST(LIST).E.CR                                                        *007 LM00011
                  PRINT.(COM4)                                                                    *008 LM00012
                  VECTOR VALUES COM4=37,$INSUFFICIENT INFORMATION.  TRY AGAIN.$                   *009 LM00013
                  READY.                                                                          *010 LM00014
                  END OF CONDITIONAL                                                              *011 LM00015
                                                                                                       LM00016
                  THROUGH FINDA,FOR I=1,1,I.G.LIST                                                *012 LM00017
      FINDA       WHENEVER LIST(I).E.$*$,TRANSFER TO YES                                          *013 LM00018
                  PRINT.(COM2)                                                                    *014 LM00019
                  VECTOR VALUES COM2=45,$THE CHARACTER BEFORE THE$,                               *015 LM00020
                1 $ ASTERISK IS WRONG...$                                                         *015 LM00021
                  TRANSFER TO SKIP                                                                *016 LM00022
      YES         PRINT.(COM1)                                                                    *017 LM00023
                  VECTOR VALUES COM1=51,$THE CHARACTER BEFORE THE$,                               *018 LM00024
                1 $ FINAL ASTERISK IS WRONG...$                                                   *018 LM00025
      SKIP        LIST=LIST+1                                                                     *019 LM00026
                  LIST(LIST)=$*$                                                                  *020 LM00027
                  CRTYPE.                                                                         *021 LM00028
                  PRINT.(COM3)                                                                    *022 LM00029
                  VECTOR VALUES COM3=10,$TRY AGAIN.$                                              *023 LM00030
                  READY.                                                                          *024 LM00031
                  END OF FUNCTION                                                                 *025 LM00032
1MAD PROGRAM,TYPE NOV 1963      (ALL NUMBERS ARE OCTAL)
0TOTAL LOCATIONS   00141 TRANSFER VECTOR LENGTH  00004 PROGRAM BEGINS    00052 FIRST UNUSED COMMON/ERASABLE  77334
0 PROGRAM IS AN EXTERNAL FUNCTION.   THE FOLLOWING ARE ENTRIES
      SYNTAX 00056   0        ERROR  00053   0
0VARIABLE STORAGE (A=ARRAY,C=COMMON,E=ERASABLE,DIGIT=MODE)
      COM1   00020 A 1        COM3   00034 A 1        CR     00045 A 1        I      00046   1        SKIP   00005   4
      COM2   00031 A 1        COM4   00044 A 1        FINDA  00004   4        LIST   77461 AC1        YES    00006   4
0FUNCTION DICTIONARY
      CRTYPE 00000   1        EXIT   00001   1        PRINT  00002   1        READY  00003   1
0ABSOLUTE CONSTANTS
 00051 -146060606060     00047 +000000000001     00050 +233000000000
0STATEMENT DICTIONARY
 00005 TXL -300117000114       00006 TXL -300114000112
0PROGRAM
                 EXTERNAL FUNCTION                                                  001  LM00001
                 NORMAL MODE IS INTEGER                                             002  LM00002
                 PROGRAM COMMON LIST(84)                                            003  LM00003
                 VECTOR VALUES CR=556060606060K                                     004  LM00004
 00045     -1 56060 6 06060
                 ENTRY TO ERROR.                                                    005  LM00008
 00052 TRA +0 02000 0 00055    00053 SXA +0 63400 2 00127    00054 TSX +0 07400 2 00127
                 ENTRY TO SYNTAX.                                                   006  LM00009
 00055 TRA +0 02000 0 00060    00056 SXA +0 63400 2 00127    00057 TSX +0 07400 2 00127
                 WHENEVER LIST(LIST).E.CR                                           007  LM00011
 00060 LXA +0 53400 1 77461    00061 CLA +0 50000 1 77461    00062 SUB +0 40200 0 00045    00063 TNZ -0 10000 0 00067
                 PRINT.(COM4)                                                       008  LM00012
 00064 TSX +0 07400 4 00002    00065 TXH +3 00000 0 00044
                 VECTOR VALUES COM4=37,$INSUFFICIENT INFORMATION.  TRY AGAIN.$      009  LM00013
 00035     +3 36060 6 06060    00036     -2 02127 2 13145    00037     +3 36060 6 35170    00040     -0 42163 3 14645
 00041     -2 03145 2 64651    00042     +3 12331 2 54563    00043     +3 14562 6 42626    00044     +0 00000 0 00045
                 READY.                                                             010  LM00014
 00066 TSX +0 07400 4 00003
                 END OF CONDITIONAL                                                 011  LM00015
                 THROUGH FINDA,FOR I=1,1,I.G.LIST                                   012  LM00017
 00067 CLA +0 50000 0 00047    00070 STO +0 60100 0 00046    00071 TRA +0 02000 0 00075    00072 CLA +0 50000 0 00046
 00073 ADD +0 40000 0 00047    00074 STO +0 60100 0 00046    00075 CLA +0 50000 0 00046    00076 SUB +0 40200 0 77461
 00077 TZE +0 10000 0 00101    00100 TPL +0 12000 0 00107
      FINDA      WHENEVER LIST(I).E.$*$,TRANSFER TO YES                             013  LM00018
 00101 LXA +0 53400 1 00046    00102 CLA +0 50000 1 77461    00103 SUB +0 40200 0 00051    00104 TNZ -0 10000 0 00106
 00105 TRA +0 02000 0 00006    00106 TRA +0 02000 0 00072
                 PRINT.(COM2)                                                       014  LM00019
 00107 TSX +0 07400 4 00002    00110 TXH +3 00000 0 00031
                 VECTOR VALUES COM2=45,$THE CHARACTER BEFORE THE$,                  015  LM00020
                1$ ASTERISK IS WRONG...$                                            015  LM00021
 00021     +3 33333 6 06060    00022     -2 06651 4 64527    00023     +3 16242 6 03162    00024     -2 02162 6 32551
 00025     -1 12560 6 33025    00026     -1 16022 2 52646    00027     +2 15121 2 36325    00030     -2 33025 6 02330
 00031     +0 00000 0 00055
                 TRANSFER TO SKIP                                                   016  LM00022
 00111 TRA +0 02000 0 00005
      YES        PRINT.(COM1)                                                       017  LM00023
 00112 TSX +0 07400 4 00002    00113 TXH +3 00000 0 00020
                 VECTOR VALUES COM1=51,$THE CHARACTER BEFORE THE$,                  018  LM00024
                1$ FINAL ASTERISK IS WRONG...$                                      018  LM00025
 00007     +3 33333 6 06060    00010     -2 06651 4 64527    00011     +3 16242 6 03162    00012     -2 02162 6 32551
 00013     -2 02631 4 52143    00014     -1 12560 6 33025    00015     -1 16022 2 52646    00016     +2 15121 2 36325
 00017     -2 33025 6 02330    00020     +0 00000 0 00063
      SKIP       LIST=LIST+1                                                        019  LM00026
 00114 CLA +0 50000 0 77461    00115 ADD +0 40000 0 00047    00116 STO +0 60100 0 77461
                 LIST(LIST)=$*$                                                     020  LM00027
 00117 LXA +0 53400 1 77461    00120 CLA +0 50000 0 00051    00121 STO +0 60100 1 77461
                 CRTYPE.                                                            021  LM00028
 00122 TSX +0 07400 4 00000
                 PRINT.(COM3)                                                       022  LM00029
 00123 TSX +0 07400 4 00002    00124 TXH +3 00000 0 00034
                 VECTOR VALUES COM3=10,$TRY AGAIN.$                                 023  LM00030
 00032     +2 13145 3 36060    00033     -2 35170 6 02127    00034     +0 00000 0 00012
                 READY.                                                             024  LM00031
 00125 TSX +0 07400 4 00003
                 END OF FUNCTION                                                    025  LM00032
 00126 TSX +0 07400 4 00001    00127 TXH +3 00000 0 00000    00130 SXD -0 63400 1 00127    00131 SXA +0 63400 4 00133
 00132 TRA +0 02000 2 00001    00133 AXT +0 77400 4 00000    00134 LXA +0 53400 2 00127    00135 LXD -0 53400 1 00127
 00136 TRA +0 02000 4 00001
1     MAD PROGRAM LISTING ... ... ...                 FILE       T   MAD            02/07/68    2004.2
-
                  EXTERNAL FUNCTION                                                               *001 LM00001
                  NORMAL MODE IS INTEGER                                                          *002 LM00002
                  BOOLEAN CRP                                                                     *003 LM00003
                                                                                                       LM00004
                 TRANSLATE THE PROGRAM BEING WORKED                                                    LM00005
                                                                                                       LM00006
                  ENTRY TO T.                                                                     *004 LM00007
                  SPACE.                                                                          *005 LM00008
                  WHENEVER .NOT.CRP.(0),SYNTAX.                                                   *006 LM00009
                  GWORK.(WORK)                                                                    *007 LM00010
                  TRANS.(WORK)                                                                    *008 LM00011
                  PRINT.(0)                                                                       *009 LM00012
                  READY.                                                                          *010 LM00013
                  END OF FUNCTION                                                                 *011 LM00014
1MAD PROGRAM,TYPE NOV 1963      (ALL NUMBERS ARE OCTAL)
0TOTAL LOCATIONS   00047 TRANSFER VECTOR LENGTH  00010 PROGRAM BEGINS    00015
0 PROGRAM IS AN EXTERNAL FUNCTION.   THE FOLLOWING ARE ENTRIES
      T      00016   0
0VARIABLE STORAGE (A=ARRAY,C=COMMON,E=ERASABLE,DIGIT=MODE)
      WORK   00011   1
0FUNCTION DICTIONARY
      CRP    00000   2        EXIT   00001   1        GWORK  00002   1        PRINT  00003   1        READY  00004   1
      SPACE  00005   1        SYNTAX 00006   1        TRANS  00007   1
0ABSOLUTE CONSTANTS
 00012 +000000000000     00013 +000000000001     00014 +233000000000
0PROGRAM
                 EXTERNAL FUNCTION                                                  001  LM00001
                 NORMAL MODE IS INTEGER                                             002  LM00002
                 BOOLEAN CRP                                                        003  LM00003
                 ENTRY TO T.                                                        004  LM00007
 00015 TRA +0 02000 0 00020    00016 SXA +0 63400 2 00035    00017 TSX +0 07400 2 00035
                 SPACE.                                                             005  LM00008
 00020 TSX +0 07400 4 00005
                 WHENEVER .NOT.CRP.(0),SYNTAX.                                      006  LM00009
 00021 TSX +0 07400 4 00000    00022 TXH +3 00000 0 00012    00023 TNZ -0 10000 0 00025    00024 TSX +0 07400 4 00006
                 GWORK.(WORK)                                                       007  LM00010
 00025 TSX +0 07400 4 00002    00026 TXH +3 00000 0 00011
                 TRANS.(WORK)                                                       008  LM00011
 00027 TSX +0 07400 4 00007    00030 TXH +3 00000 0 00011
                 PRINT.(0)                                                          009  LM00012
 00031 TSX +0 07400 4 00003    00032 TXH +3 00000 0 00012
                 READY.                                                             010  LM00013
 00033 TSX +0 07400 4 00004
                 END OF FUNCTION                                                    011  LM00014
 00034 TSX +0 07400 4 00001    00035 TXH +3 00000 0 00000    00036 SXD -0 63400 1 00035    00037 SXA +0 63400 4 00041
 00040 TRA +0 02000 2 00001    00041 AXT +0 77400 4 00000    00042 LXA +0 53400 2 00035    00043 LXD -0 53400 1 00035
 00044 TRA +0 02000 4 00001
1     MAD PROGRAM LISTING ... ... ...                 FILE   TRANS   MAD            02/07/68    2045.5
-
                  EXTERNAL FUNCTION (NAME)                                                        *001 LM00001
                  NORMAL MODE IS INTEGER                                                          *002 LM00002
                  BOOLEAN WSEEK,WCHANG                                                            *003 LM00003
                  PROGRAM COMMON LIST(84)                                                         *004 LM00004
                  VECTOR VALUES BSS=$******   BSS$                                                *005 LM00005
                  VECTOR VALUES MAD=$******   MAD$                                                *006 LM00006
                  VECTOR VALUES MADTAB=$******SYMTAB$                                             *007 LM00007
                                                                                                       LM00008
                 TRANSLATE THE PROGRAM BEING WORKED                                                    LM00009
                                                                                                       LM00010
                  ENTRY TO TRANS.                                                                 *008 LM00011
                  MAD=NAME                                                                        *009 LM00012
                  GWORKA.(WORK)                                                                   *010 LM00013
                  WHENEVER WSEEK.($PROG$).AND.WORK.E.MAD                                          *011 LM00014
                  WHENEVER WCHANG.(0),SWORK.(WORK)                                                *012 LM00015
                  END OF CONDITIONAL                                                              *013 LM00016
                                                                                                       LM00017
                  WHENEVER FSTAT.(MAD).E.0                                                        *014 LM00018
                  LIST=0                                                                          *015 LM00019
                  ADDNAM.(MAD)                                                                    *016 LM00020
                  ADDCOM.(COM5)                                                                   *017 LM00021
                  VECTOR VALUES COM5=16,$ DOES NOT EXIST.$                                        *018 LM00022
                  CRTYPE.                                                                         *019 LM00023
                  FUNCTION RETURN                                                                 *020 LM00024
                  END OF CONDITIONAL                                                              *021 LM00025
                                                                                                       LM00026
                  BCD=MAD                                                                         *022 LM00027
      MORE        CHAR=BCD.A.77K10.V.$0$                                                          *023 LM00028
                  WHENEVER CHAR.NE.$ $,TRANSFER TO SKIP                                           *024 LM00029
                  BCD=BCD.LS.6.V.57K                                                              *025 LM00030
                  TRANSFER TO MORE                                                                *026 LM00031
      SKIP        PRINT.(COM2)                                                                    *027 LM00032
                  VECTOR VALUES COM2=21,$TRANSLATING ******...$                                   *028 LM00033
                  EQUIVALENCE (BCD,COM2(3))                                                       *029 LM00034
                  MADCOM(1)=MAD                                                                   *030 LM00035
                  XEQ.(1,MADCOM)                                                                  *031 LM00036
                  VECTOR VALUES MADCOM=$   MAD******(SYMB)$,777777777777K                         *032 LM00037
                                                                                                       LM00038
                  BSS=MAD                                                                         *033 LM00039
                  MADTAB=MAD                                                                      *034 LM00040
                  WHENEVER FSTAT.(BSS).NE.0.AND.FSTAT.(MADTAB).NE.0,PRINT.(COM1                   *035 LM00041
                1 )                                                                               *035 LM00042
                  VECTOR VALUES COM1=11,$SUCCESSFUL.$                                             *036 LM00043
                  FUNCTION RETURN                                                                 *037 LM00044
                  END OF FUNCTION                                                                 *038 LM00045
1MAD PROGRAM,TYPE NOV 1963      (ALL NUMBERS ARE OCTAL)
0TOTAL LOCATIONS   00201 TRANSFER VECTOR LENGTH  00013 PROGRAM BEGINS    00057 FIRST UNUSED COMMON/ERASABLE  77334
0 PROGRAM IS AN EXTERNAL FUNCTION.   THE FOLLOWING ARE ENTRIES
      TRANS  00060   0
0VARIABLE STORAGE (A=ARRAY,C=COMMON,E=ERASABLE,DIGIT=MODE)
      BCD    00015   1        COM1   00030 A 1        LIST   77461 AC1        MADTAB 00044 A 1        SKIP   00022   4
      BSS    00024 A 1        COM2   00020 A 1        MADCOM 00040 A 1        MORE   00021   4        WORK   00045   1
      CHAR   00025   1        COM5   00034 A 1        MAD    00042 A 1
0FUNCTION DICTIONARY
      ADDCOM 00000   1        ADDNAM 00001   1        CRTYPE 00002   1        EXIT   00003   1        FSTAT  00004   1
      GWORKA 00005   1        PRINT  00006   1        SWORK  00007   1        WCHANG 00010   2        WSEEK  00011   2
      XEQ    00012   1
0ABSOLUTE CONSTANTS
 00051 +000000000057     00050 +000000000006     00055 -206060606060     00052 +006060606060     00056 -370000000000
 00046 +000000000000     00054 -075146276060     00047 +000000000001     00053 +233000000000
0STATEMENT DICTIONARY
 00021 TXL -300123000117       00022 TXL -300140000136
0PROGRAM
                 EXTERNAL FUNCTION (NAME)                                           001  LM00001
                 NORMAL MODE IS INTEGER                                             002  LM00002
                 BOOLEAN WSEEK,WCHANG                                               003  LM00003
                 PROGRAM COMMON LIST(84)                                            004  LM00004
                 VECTOR VALUES BSS=$******   BSS$                                   005  LM00005
 00023     -2 06060 2 26262    00024     -1 45454 5 45454
                 VECTOR VALUES MAD=$******   MAD$                                   006  LM00006
 00041     -2 06060 4 42124    00042     -1 45454 5 45454
                 VECTOR VALUES MADTAB=$******SYMTAB$                                007  LM00007
 00043     -2 27044 6 32122    00044     -1 45454 5 45454
                 ENTRY TO TRANS.                                                    008  LM00011
 00057 TRA +0 02000 0 00062    00060 SXA +0 63400 2 00165    00061 TSX +0 07400 2 00165
                 MAD=NAME                                                           009  LM00012
 00062 CLA +0 50000 0 00000    00063 STO +0 60100 0 00042
                 GWORKA.(WORK)                                                      010  LM00013
 00064 TSX +0 07400 4 00005    00065 TXH +3 00000 0 00045
                 WHENEVER WSEEK.($PROG$).AND.WORK.E.MAD                             011  LM00014
 00066 CLA +0 50000 0 00045    00067 SUB +0 40200 0 00042    00070 TNZ -0 10000 0 00101    00071 TSX +0 07400 4 00011
 00072 TXH +3 00000 0 00054    00073 TZE +0 10000 0 00101
                 WHENEVER WCHANG.(0),SWORK.(WORK)                                   012  LM00015
 00074 TSX +0 07400 4 00010    00075 TXH +3 00000 0 00046    00076 TZE +0 10000 0 00101    00077 TSX +0 07400 4 00007
 00100 TXH +3 00000 0 00045
                 END OF CONDITIONAL                                                 013  LM00016
                 WHENEVER FSTAT.(MAD).E.0                                           014  LM00018
 00101 TSX +0 07400 4 00004    00102 TXH +3 00000 0 00042    00103 SUB +0 40200 0 00046    00104 TNZ -0 10000 0 00115
                 LIST=0                                                             015  LM00019
 00105 CLA +0 50000 0 00046    00106 STO +0 60100 0 77461
                 ADDNAM.(MAD)                                                       016  LM00020
 00107 TSX +0 07400 4 00001    00110 TXH +3 00000 0 00042
                 ADDCOM.(COM5)                                                      017  LM00021
 00111 TSX +0 07400 4 00000    00112 TXH +3 00000 0 00034
                 VECTOR VALUES COM5=16,$ DOES NOT EXIST.$                           018  LM00022
 00031     +3 16263 3 36060    00032     -0 54663 6 02567    00033     -2 02446 2 56260    00034     +0 00000 0 00020
                 CRTYPE.                                                            019  LM00023
 00113 TSX +0 07400 4 00002
                 FUNCTION RETURN                                                    020  LM00024
 00114 TRA +0 02000 0 00173
                 END OF CONDITIONAL                                                 021  LM00025
                 BCD=MAD                                                            022  LM00027
 00115 CLA +0 50000 0 00042    00116 STO +0 60100 0 00015
      MORE       CHAR=BCD.A.77K10.V.$0$                                             023  LM00028
 00117 CAL -0 50000 0 00015    00120 ANA -0 32000 0 00056    00121 ORA -0 50100 0 00052    00122 SLW +0 60200 0 00025
                 WHENEVER CHAR.NE.$ $,TRANSFER TO SKIP                              024  LM00029
 00123 CLA +0 50000 0 00025    00124 SUB +0 40200 0 00055    00125 TZE +0 10000 0 00127    00126 TRA +0 02000 0 00022
                 BCD=BCD.LS.6.V.57K                                                 025  LM00030
 00127 CAL -0 50000 0 00050    00130 STA +0 62100 0 00132    00131 CAL -0 50000 0 00015    00132 ALS +0 76700 0 00000
 00133 ORA -0 50100 0 00051    00134 SLW +0 60200 0 00015
                 TRANSFER TO MORE                                                   026  LM00031
 00135 TRA +0 02000 0 00021
      SKIP       PRINT.(COM2)                                                       027  LM00032
 00136 TSX +0 07400 4 00006    00137 TXH +3 00000 0 00020
                 VECTOR VALUES COM2=21,$TRANSLATING ******...$                      028  LM00033
 00014     +3 33333 6 06060    00015     -1 45454 5 45454    00016     +2 16331 4 52760    00017     -2 35121 4 56243
 00020     +0 00000 0 00025
                 EQUIVALENCE (BCD,COM2(3))                                          029  LM00034
                 MADCOM(1)=MAD                                                      030  LM00035
 00140 CLA +0 50000 0 00042    00141 STO +0 60100 0 00037
                 XEQ.(1,MADCOM)                                                     031  LM00036
 00142 TSX +0 07400 4 00012    00143 TXH +3 00000 0 00047    00144 TXH +3 00000 0 00040
                 VECTOR VALUES MADCOM=$   MAD******(SYMB)$,777777777777K            032  LM00037
 00035     -3 77777 7 77777    00036     -3 46270 4 42234    00037     -1 45454 5 45454    00040     -2 06060 4 42124
                 BSS=MAD                                                            033  LM00039
 00145 CLA +0 50000 0 00042    00146 STO +0 60100 0 00024
                 MADTAB=MAD                                                         034  LM00040
 00147 CLA +0 50000 0 00042    00150 STO +0 60100 0 00044
                 WHENEVER FSTAT.(BSS).NE.0.AND.FSTAT.(MADTAB).NE.0,PRINT.(COM1      035  LM00041
                1)                                                                  035  LM00042
 00151 TSX +0 07400 4 00004    00152 TXH +3 00000 0 00044    00153 SUB +0 40200 0 00046    00154 TZE +0 10000 0 00163
 00155 TSX +0 07400 4 00004    00156 TXH +3 00000 0 00024    00157 SUB +0 40200 0 00046    00160 TZE +0 10000 0 00163
 00161 TSX +0 07400 4 00006    00162 TXH +3 00000 0 00030
                 VECTOR VALUES COM1=11,$SUCCESSFUL.$                                036  LM00043
 00026     -2 22664 4 33360    00027     -2 26423 2 32562    00030     +0 00000 0 00013
                 FUNCTION RETURN                                                    037  LM00044
 00163 TRA +0 02000 0 00173
                 END OF FUNCTION                                                    038  LM00045
 00164 TSX +0 07400 4 00003    00165 TXH +3 00000 0 00000    00166 SXD -0 63400 1 00165    00167 SXA +0 63400 4 00173
 00170 CLA +0 50000 4 00001    00171 STA +0 62100 0 00062    00172 TRA +0 02000 2 00001    00173 AXT +0 77400 4 00000
 00174 LXA +0 53400 2 00165    00175 LXD -0 53400 1 00165    00176 TRA +0 02000 4 00001
