


MADBUG   BCD 09/18/68 2343.2  230159         00000
1                                                                                                PAGE 1

                       00012         ENTRY   PRINTA
                       00014         ENTRY   PRINT
                       00044         ENTRY   READIN
                       00066         ENTRY   INTGO
                       00065         ENTRY   INTNO
                       00005         ENTRY   0

        TRANSFER VECTOR
      00000  264763512147     FPTRAP
      00001  516263215163     RSTART
      00002  626321516360     START

            LINKAGE DIRECTOR
      00003  000000000000
      00004  475131456321

                       77107         COMMON  234

      00005  0500 00 0 00000         CLA     $FPTRAP       THIS IS THE MAIN PROGRAM
      00006  0601 00 0 00010         STO     8
      00007  0500 00 0 00001         CLA     $RSTART
      00010  0601 00 0 00024         STO     20            24)8
      00011  0074 00 4 00002         TSX     $START,4

      00012  0774 00 1 00114  PRINTA AXT     =HWRFLXA,1
      00013  0020 00 0 00015         TRA     *+2
      00014  0774 00 1 00115  PRINT  AXT     =HWRFLX ,1
      00015  0634 00 1 00043         SXA     PNAME,1
      00016  0560 60 4 00001         LDQ*    1,4
      00017 -0754 00 0 00000         ZAC
      00020  0221 00 0 00106         DVP     =6
      00021  0734 00 1 00000         PAX     ,1
      00022  0131 00 0 00000         XCA
      00023 -3 00000 1 00025         TXL     *+2,1,0
      00024  0361 00 0 00105         ACL     =1
      00025  0767 00 0 00022         ALS     18
      00026  0622 00 0 00040         STD     PCALL
      00027  0500 00 4 00001         CLA     1,4
      00030  0737 00 1 00000         PAC     ,1
      00031  0774 00 2 00016         AXT     14,2
      00032 -0500 00 1 77777         CAL     -1,1
      00033  0602 00 2 00105         SLW     BUFF,2
      00034  1 00001 1 00035         TXI     *+1,1,1
      00035  2 00001 2 00032         TIX     *-3,2,1
      00036  0634 00 4 00041         SXA     *+3,4
      00037  0074 00 4 00043         TSX     PNAME,4
      00040  0 00000 0 00067  PCALL  PZE     BUFF-14,,**
      00041  0774 00 4 00000         AXT     **,4
      00042  0020 00 4 00002         TRA     2,4
      00043  0101 00 0 00000  PNAME  TIA     **

      00044  0634 00 4 00052  READIN SXA     RX4,4
      00045  0074 00 4 00064         TSX     RDFLXA,4
      00046  0 00000 0 00067         PZE     BUFF-14
      00047 -0320 00 0 00110         ANA     =O177
      00050 -0100 00 0 00052         TNZ     *+2
1                                                                                                PAGE 2

      00051 -0500 00 0 00107         CAL     =84
      00052  0774 00 4 00000  RX4    AXT     **,4
      00053  0602 60 4 00001         SLW*    1,4
      00054  0500 00 4 00001         CLA     1,4
      00055  0737 00 1 00000         PAC     ,1
      00056  0774 00 2 00016         AXT     14,2
      00057 -0500 00 2 00105         CAL     BUFF,2
      00060  0602 00 1 77777         SLW     -1,1
      00061  1 00001 1 00062         TXI     *+1,1,1
      00062  2 00001 2 00057         TIX     *-3,2,1
      00063  0020 00 4 00002         TRA     2,4
      00064  0101 00 0 00111  RDFLXA TIA     =HRDFLXA
      00065  0101 00 0 00112  INTNO  TIA     =HSAVBRK
      00066  0101 00 0 00113  INTGO  TIA     =HSETBRK

      00105                   BUFF   BES     14
                                     END

        LITERALS
      00105  000000000001
      00106  000000000006
      00107  000000000124
      00110  000000000177
      00111  512426436721
      00112  622165225142
      00113  622563225142
      00114  665126436721
      00115  665126436760
1                                                                                                PAGE 1
                        POST PROCESSOR ASSEMBLY DATA

       77107 IS THE LAST LOCATION NOT USED BY THIS PROGRAM
        116 IS THE FIRST LOCATION NOT USED BY THIS PROGRAM

0REFERENCES TO DEFINED SYMBOLS
         52    RX4    44
        105   BUFF    33,   40,   46,   57
         66  INTGO     0
         65  INTNO     0
         40  PCALL    26
         43  PNAME    15,   37
         14  PRINT     0
          2  START    11
          0 FPTRAP     5
         12 PRINTA     0
         64 RDFLXA    45
         44 READIN     0
          1 RSTART     7

0 NO ERROR IN ABOVE ASSEMBLY.
1                                                                                                PAGE 1

      00000  0774 00 1 00000         AXT     **,1          NUMBER OF INPUT LINE BLOCKS
      00001  0760 00 0 00016         LMTM                  USE THEM ALL
      00002  0074 00 4 00142  LINE   TSX     RDFLXA,4      GET NEXT INPUT LINE
      00003  0 00000 0 00121         PZE     A-14          ..
      00004  0734 00 2 00000         PAX     ,2            COUNT OF INPUT CHARACTERS
      00005  0074 00 4 00137         TSX     GETMEM,4      MAKE MORE ROOM
      00006  0621 00 0 00065         STA     PZE           AND SETUP STORING INTO THE ROOM
      00007  0400 00 0 00147         ADD     =12           ..
      00010  0621 00 0 00056         STA     SLW           ..
      00011  0074 00 4 00140         TSX     SETMEM,4      ..
      00012  0774 00 3 00016         AXT     14,3          COUNT OF INPUT WORDS
      00013  0774 00 4 00006         AXT     6,4           COUNT OF MQ CHARACTERS
      00014  0560 00 3 00137         LDQ     A,3           LOAD UP THE MQ
      00015  0774 00 5 00001         AXT     1,5           COUNT OF OUTPUT CHARACTERS
      00016  0774 00 6 00006         AXT     6,6           COUNT OF AC NON-CHARACTERS
      00017  0774 00 7 00014         AXT     12,7          COUNT OF OUTPUT WORDS
      00020 -0763 00 0 00006  CHAR   LGL     6             GET A NEW CHARACTER
      00021  3 00001 2 00027         TXH     NOTBRK,2,1    TRA UNLESS THIS IS BREAK CHARACTER
      00022  3 00110 5 00066         TXH     GOOD,5,72     FINISHED IF LINE IS FULL
      00023 -0765 00 0 00006  ADDBL  LGR     6             INSERT A BLANK BEFORE  CHARACTER
      00024  0767 00 0 00006         ALS     6             ..
      00025 -0501 00 0 00151         ORA     =H00000       ..
      00026  0020 00 0 00054         TRA     OCOUNT        GO TO COUNT IT
      00027  3 00110 5 00062  NOTBRK TXH     BAD,5,72      TRA TO COMMENT LINE TOO LONG
      00030  3 00014 5 00047         TXH     ICOUNT,5,12   IF PAST COL 12, MUST BE NORMAL
      00031 -3 00013 5 00041         TXL     1TO11,5,11    TRA IF NOT COL 12
      00032  0044 00 0 00000         PAI                   IS IT A BACKSPACE
      00033  0051 00  000035         IIR     35            ..
      00034  0054 00  000077         RFT     77            ..
      00035  0020 00 0 00047         TRA     ICOUNT        NO, IT MUST BE NORMAL
      00036  0771 00 0 00014         ARS     12            YES, BACKUP 2 CHARACTERS
      00037  1 77776 5 00040         TXI     *+1,5,-2      ..
      00040  1 00002 6 00047         TXI     ICOUNT,6,2    AND FINISH UP NORMALLY
      00041  0044 00 0 00000  1TO11  PAI                   IS IT A TAB
      00042  0051 00  000072         IIR     72            ..
      00043  0054 00  000077         RFT     77            ..
      00044  0020 00 0 00047         TRA     ICOUNT        NO, HANDLE NORMALLY
      00045 -3 00012 5 00023         TXL     ADDBL,5,10    TRA TO INSERT BLANK IF NOT IN COL 11
      00046  0322 00 0 00145         ERA     =O12          IN COL 11, CHANGE TO A BLANK
      00047  1 77777 2 00050  ICOUNT TXI     *+1,2,-1      ONE MORE INPUT CHARACTER HAS BEEN PROCESSED
      00050  2 00001 4 00054         TIX     OCOUNT,4,1    ONE MORE MQ CHARACTER, TOO
      00051  1 77777 3 00052         TXI     *+1,3,-1      OOPS, MQ IS EMPTY, FILL IT
      00052  0560 00 3 00137         LDQ     A,3           ..
      00053  0774 00 4 00006         AXT     6,4           ..
      00054  1 00001 5 00055  OCOUNT TXI     *+1,5,1       ONE MORE OUTPUT CHARACTER HAS BEEN ADDED
      00055  2 00001 6 00020         TIX     CHAR,6,1      ONE LESS NON-CHARACTER IN THE AC
      00056  0602 00 7 00000  SLW    SLW     **,7          OOPS, AC IS FULL, EMPTY IT
      00057  1 77777 7 00060         TXI     *+1,7,-1      ..
      00060  0774 00 6 00006         AXT     6,6           ..
      00061  0020 00 0 00020         TRA     CHAR          AND PROCESS NEXT CHAR

      00062  0074 00 4 00143  BAD    TSX     WRFLX,4       COMMENT
      00063  0 00002 0 00117         PZE     COM,,2        ..
      00064  0074 00 4 00143         TSX     WRFLX,4       ..
      00065  0 00014 0 00000  PZE    PZE     **,,12        ..
1                                                                                                PAGE 2

      00066  0774 00 7 00014  GOOD   AXT     12,7          IS THE INPUT LINE ALL BLANK
      00067 -0500 00 0 00155         CAL     =H            ..
      00070 -0340 60 0 00056  LAS    LAS*    SLW           ..
      00071  0020 00 0 00002         TRA     LINE          NO, CONTINUE WITH NEXT LINE
      00072  0020 00 0 00074         TRA     *+2           MAYBE
      00073  0020 00 0 00002         TRA     LINE          NO, CONTINUE WITH NEXT LINE
      00074  2 00001 7 00070         TIX     LAS,7,1       CHECK EACH WORD
      00075 -0754 00 0 00000         ZAC                   YES, FLAG THE END OF THE INPUT BLOCK
      00076  0760 00 0 00006         COM                   WITH ALL 7'S
      00077  0602 60 0 00065         SLW*    PZE           ..
      00100  0074 00 4 00137         TSX     GETMEM,4      AND MOVE BACK THE MEMORY BOUND
      00101  0402 00 0 00146         SUB     =11           ..
      00102  0074 00 4 00140         TSX     SETMEM,4      ..
      00103  2 00001 1 00002         TIX     LINE,1,1      GO BACK FOR NEXT INPUT LINE BLOCK, IF ANY
      00104  0621 00 0 00113         STA     SLWCNT        READ IN NEXT REQUEST BEFORE RETURNING
      00105  0400 00 0 00144         ADD     =1            ..
      00106  0621 00 0 00112         STA     READER        ..
      00107  0400 00 0 00150         ADD     =14           ..
      00110  0074 00 4 00140         TSX     SETMEM,4      ..
      00111  0074 00 4 00142         TSX     RDFLXA,4      ..
      00112  0 00000 0 00000  READER PZE     **            ..
      00113  0602 00 0 00000  SLWCNT SLW     **            ..
      00114 -0500 00 0 00144         CAL     =1            AND RETURN VIA CHNCOM
      00115  0074 00 4 00141         TSX     CHNCOM,4      ..
      00116  0 00000 0 00001         PZE     1             ..

      00117  232151246023     COM    BCI     2,CARD CUT TO-
      00120  646360634640
      00137                   A      BES     14
      00137  0101 00 0 00153  GETMEM TIA     =HGETMEM
      00140  0101 00 0 00156  SETMEM TIA     =HSETMEM
      00141  0101 00 0 00152  CHNCOM TIA     =HCHNCOM
      00142  0101 00 0 00154  RDFLXA TIA     =HRDFLXA
      00143  0101 00 0 00157  WRFLX  TIA     =HWRFLX
                                     END

        LITERALS
      00144  000000000001
      00145  000000000012
      00146  000000000013
      00147  000000000014
      00150  000000000016
      00151  000000000060
      00152  233045234644
      00153  272563442544
      00154  512426436721
      00155  606060606060
      00156  622563442544
      00157  665126436760
1                                                                                                PAGE 1
                        POST PROCESSOR ASSEMBLY DATA

        160 IS THE FIRST LOCATION NOT USED BY THIS PROGRAM

0REFERENCES TO DEFINED SYMBOLS
        137      A     3,   14,   52
         62    BAD    27
        117    COM    63
         70    LAS    74
         65    PZE     6,   77
         56    SLW    10,   70
         20   CHAR    55,   61
         66   GOOD    22
          2   LINE    71,   73,  103
         41  1TO11    31
         23  ADDBL    45
        143  WRFLX    62,   64
        141 CHNCOM   115
        137 GETMEM     5,  100
         47 ICOUNT    30,   35,   40,   44
         27 NOTBRK    21
         54 OCOUNT    26,   50
        142 RDFLXA     2,  111
        112 READER   106
        140 SETMEM    11,  102,  110
        113 SLWCNT   104

0 NO ERROR IN ABOVE ASSEMBLY.
1                                                                                                PAGE 1

                       00022         ENTRY   (FPT)
                       00017         ENTRY   ERROR
                       00003         ENTRY   DORMNT
                       00006         ENTRY   DEAD
                       00273         ENTRY   WRFLX
                       00011         ENTRY   EXIT
                       00014         ENTRY   ENDJOB
                       00063         ENTRY   (MDBG)

                                             MADBUG'S BOOTSTRAP AND PATCH AREA TO
                                             GO IN USER CORE. PATCH AREA IS NOT
                                             ASSEMBLED. PROGRAM CARD IS MODIFIED
                                             AT OBJECT TIME.


        TRANSFER VECTOR
      00000  234346646360     CLOUT

            LINKAGE DIRECTOR
      00001  000000000000
      00002  742647633460

      00003  0634 00 4 00257  DORMNT SXA     XR4,4
      00004  0774 00 4 00004         AXT     4,4
      00005  0020 00 0 00120         TRA     END
      00006  0634 00 4 00257  DEAD   SXA     XR4,4
      00007  0774 00 4 00005         AXT     5,4
      00010  0020 00 0 00120         TRA     END
      00011  0634 00 4 00257  EXIT   SXA     XR4,4
      00012  0774 00 4 00006         AXT     6,4
      00013  0020 00 0 00115         TRA     ENDCL
      00014  0634 00 4 00257  ENDJOB SXA     XR4,4
      00015  0774 00 4 00007         AXT     7,4
      00016  0020 00 0 00115         TRA     ENDCL
      00017  0634 00 4 00257  ERROR  SXA     XR4,4
      00020  0774 00 4 00010         AXT     8,4
      00021  0020 00 0 00115         TRA     ENDCL
      00022  0634 00 4 00257  (FPT)  SXA     XR4,4
      00023  0534 00 4 00000         LXA     0,4
      00024  0634 00 4 00040         SXA     FPTRA,4
      00025  0604 00 0 00354         STI     TEMP
      00026  0441 00 0 00000         LDI     0
      00027 -0054 00  000024         LFT     24
      00030  0020 00 0 00041         TRA     FPER          NOT UNDERFLOW
      00031 -0054 00  000002         LFT     2
      00032  0500 00 0 00327         CLA     PZE           AC UNDERFLOW
      00033 -0054 00  000001         LFT     1
      00034  0560 00 0 00327         LDQ     PZE           MQ UNDERFLOW
      00035  0441 00 0 00354         LDI     TEMP          RETURN
      00036  0534 00 4 00257         LXA     XR4,4
      00037  0600 00 0 00000         STZ     0
      00040  0020 00 0 00000  FPTRA  TRA     **
      00041  0074 00 4 00262  FPER   TSX     SAVE,4
      00042  0774 00 4 00000         AXT     0,4
      00043 -0054 00  000020         LFT     20
      00044  1 00011 4 00052         TXI     FPEND,4,9     DOUBLE PRECISION ODD ADDRESS
1                                                                                                PAGE 2

      00045 -0054 00  000010         LFT     10
      00046  1 00012 4 00052         TXI     FPEND,4,10    DIVISION CHECK
      00047 -0054 00  000002         LFT     2
      00050  1 00013 4 00052         TXI     FPEND,4,11    AC OVERFLOW
      00051  0774 00 4 00014         AXT     12,4          MQ OVERFLOW
      00052  0441 00 0 00354  FPEND  LDI     TEMP
      00053 -0500 00 0 00040         CAL     FPTRA
      00054  0602 00 2 00002         SLW     2,2
      00055  0402 00 0 00330         SUB     ONE
      00056  0621 00 2 00001         STA     1,2
      00057  0020 00 0 00165         TRA     CONT

      00060  0020 00 0 00216         TRA     START         ILC OF *FRESH IS SET TO HERE

      00061  0020 00 0 00135         TRA     BREAK         INTERRUPTS COME HERE

      00062  0 00000 0 00000         PZE                   FOR START OF BREAK PATCH AREA.

                                             XR2 IS SET BY 'SAVE' TO POINT AT AREA FROM WHICH
                                             MADBUG WILL PICKUP INFO.  THE AREA READS...

                                             C(0,2)=FLAG
                                             C(1,2)=PROGRAM LOCATION,,C(OFFENDING XR IF FLAG=2)
                                             C(2,2)=INSTRUCTION TO BE EXECUTED NEXT

                                             FLAG MEANINGS ARE 0 FOR FLAG NOT SET
                                                               1 FOR BREAKPOINT ENCOUNTERED
                                                               2 FOR ARRAY DIMENSION VIOLATION
                                                               3 FOR INTERRUPT
                                                               4 FOR DORMNT CALLED
                                                               5 FOR DEAD CALLED
                                                               6 FOR EXIT CALLED
                                                               7 FOR ENDJOB CALLED
                                                               8 FOR ERROR CALLED
                                             THE INSTRUCTION IN 2,2 WILL BE EXECUTED BY A 'XEC'
                                             WHICH IS FOLLOWED BY A 'TRA 1,4'

      00063  0634 00 4 00257  (MDBG) SXA     XR4,4         ENTRY FOR FLAG OF 1 OR 2.
      00064  0074 00 4 00262         TSX     SAVE,4
      00065  0534 00 4 00257  LXA    LXA     XR4,4
      00066  0756 00 4 00000         PCA     ,4
      00067  0602 00 2 00001         SLW     1,2
      00070 -0500 00 4 00000         CAL     0,4
      00071  0737 00 4 00000         PAC     ,4
      00072 -0500 00 4 00000         CAL     0,4
      00073 -0501 00 0 00065         ORA     LXA
      00074 -0320 00 0 00322         ANA     MASKOP
      00075 -0100 00 0 00100         TNZ     *+3
      00076 -0500 00 4 00001         CAL     1,4
      00077  0737 00 4 00000         PAC     ,4
      00100 -0500 00 4 00001         CAL     1,4
      00101  0602 00 2 00002         SLW     2,2
      00102  0500 00 4 00000         CLA     0,4
      00103  0625 00 0 00105         STT     *+2
      00104  0534 00 2 00256         LXA     XR2,2
      00105 -0754 00 0 00000         PXD     ,**
1                                                                                                PAGE 3

      00106  0535 00 2 00062         LAC     (MDBG)-1,2
      00107  0622 00 2 00001         STD     1,2
      00110  0500 00 4 00000         CLA     0,4
      00111 -0734 00 4 00000         PDX     ,4
      00112 -0120 00 0 00165         TMI     CONT
      00113  0774 00 4 00002         AXT     2,4
      00114  0020 00 0 00165  TRA    TRA     CONT
      00115  0634 00 4 00127  ENDCL  SXA     FLAG,4
      00116  0074 00 4 00000         TSX     $CLOUT,4
      00117  0020 00 0 00121         TRA     *+2
      00120  0634 00 4 00127  END    SXA     FLAG,4
      00121  0074 00 4 00262         TSX     SAVE,4
      00122  0534 00 4 00257         LXA     XR4,4
      00123  0756 00 4 00000         PCA     ,4
      00124  0602 00 2 00001         SLW     1,2
      00125 -0500 00 0 00131         CAL     ENDTRA
      00126  0602 00 2 00002         SLW     2,2
      00127  0774 00 4 00000  FLAG   AXT     **,4
      00130  0020 00 0 00165         TRA     CONT

      00131  0020 00 0 00132  ENDTRA TRA     *+1
      00132  0500 00 0 00127         CLA     FLAG
      00133  0621 60 0 00062         STA*    (MDBG)-1
      00134  0020 00 0 00167         TRA     RETURN

      00135  0634 00 4 00257  BREAK  SXA     XR4,4         ENTRY FOR FLAG OF 3
      00136  0074 00 4 00262         TSX     SAVE,4
      00137 -0500 00 0 00114         CAL     TRA
      00140  0602 00 2 00002         SLW     2,2
      00141  0074 00 4 00303         TSX     GETBRK,4
      00142  0774 00 1 00144         AXT     100,1         STEP THROUGH TRANSFER VECTORS AND VARIABLES
      00143  0737 00 4 00000  MORE   PAC     ,4            SO AS NOT TO CONFUSE THE USER
      00144 -0500 00 4 00000         CAL     0,4
      00145 -0320 00 0 00321         ANA     PRETAG
      00146 -0340 00 0 00325         LAS     TXL
      00147  0020 00 0 00151         TRA     *+2
      00150  0020 00 0 00157         TRA     STEP
      00151 -0500 00 4 00000         CAL     0,4
      00152 -0320 00 0 00323         ANA     MASK
      00153 -0340 00 0 00326         LAS     TTR
      00154  0020 00 0 00156         TRA     *+2
      00155  0020 00 0 00157         TRA     STEP
      00156  0020 00 0 00161         TRA     *+3
      00157 -0500 00 4 00000  STEP   CAL     0,4
      00160  2 00001 1 00143         TIX     MORE,1,1
      00161  0756 00 4 00000         PCA     ,4
      00162  0621 00 2 00002         STA     2,2
      00163  0602 00 2 00001         SLW     1,2
      00164  0774 00 4 00003         AXT     3,4

      00165  0754 00 4 00000  CONT   PXA     ,4            SET FLAG AND XEC
      00166  0602 00 2 00000         SLW     0,2

      00167  0074 00 4 00273  RETURN TSX     WRFLX,4
      00170  0 00003 0 00342         PZE     INMDBG,,3
1                                                                                                PAGE 4

      00171  0074 00 4 00307         TSX     GETCLC,4      SAVE USER'S COMMAND BUFFER
      00172  0601 00 0 00524         STO     CLC
      00173  0100 00 0 00202         TZE     GETSKP
      00174  0774 00 2 00005         AXT     5,2
      00175 -0500 00 2 00354         CAL     CLS,2
      00176  0602 00 0 00200         SLW     *+2
      00177  0074 00 4 00315         TSX     GETCLS,4
      00200  0 00000 0 00000         PZE     **,,**
      00201  2 00001 2 00175         TIX     *-4,2,1

      00202  0074 00 4 00313  GETSKP TSX     SETCLS,4      SET COMMAND BUFFER TO CALL MADBUG
      00203  0 00001 0 00331         PZE     SAVEC,,1
      00204  0074 00 4 00313         TSX     SETCLS,4
      00205  0 00002 0 00334         PZE     RESUME,,2
      00206 -0500 00 0 00330         CAL     GOCLC
      00207  0074 00 4 00311         TSX     SETCLC,4

      00210  0074 00 4 00275         TSX     CHFILE,4
 TD   00211  3 00000 0 00345         TXH     MADBUG
 TD   00212  3 00000 0 00346         TXH     MADBUG+1
 TD   00213  3 00000 0 00215         TXH     1.

      00214  0074 00 4 00317         TSX     CHNCOM,4      GO TO MADBUG
      00215  0 00000 0 00001  1.     PZE     1

      00216  0600 60 0 00062  START  STZ*    (MDBG)-1
      00217  0534 00 4 00062         LXA     (MDBG)-1,4
      00220  1 00002 4 00221         TXI     *+1,4,2
      00221  0634 00 4 00260         SXA     XEC,4
      00222  0074 00 4 00277         TSX     GETCOM,4
      00223  0 00000 0 00001         PZE     1
      00224  0100 00 0 00227         TZE     *+3
      00225 -0501 00 0 00326         ORA     TTR
      00226  0602 60 0 00260         SLW*    XEC

      00227  0500 00 0 00524         CLA     CLC           RESTORE USER'S COMMAND BUFFER
      00230  0074 00 4 00311         TSX     SETCLC,4
      00231  0100 00 0 00240         TZE     SETSKP
      00232  0774 00 2 00005         AXT     5,2
      00233 -0500 00 2 00354         CAL     CLS,2
      00234  0602 00 0 00236         SLW     *+2
      00235  0074 00 4 00313         TSX     SETCLS,4
      00236  0 00000 0 00000         PZE     **,,**
      00237  2 00001 2 00233         TIX     *-4,2,1

      00240  0074 00 4 00305  SETSKP TSX     SAVBRK,4
      00241 -0100 00 0 00243         TNZ     *+2
      00242 -0500 00 0 00061         CAL     (MDBG)-2
      00243  0621 00 0 00245         STA     *+2
      00244  0074 00 4 00301         TSX     SETBRK,4
      00245  0 00000 0 00000         PZE     **
      00246  0074 00 4 00273         TSX     WRFLX,4
      00247  0 00003 0 00337         PZE     INUSER,,3
1                                                                                                PAGE 5

      00250  0500 00 0 00521         CLA     SIGN          RESTORE LIGHTS
      00251  0760 00 0 00000         CLM
      00252 -0501 00 0 00523         ORA     QBIT
      00253  0767 00 0 00001         ALS     1
      00254 -0501 00 0 00522         ORA     LAC
      00255  0774 00 1 00000  XR1    AXT     **,1
      00256  0774 00 2 00000  XR2    AXT     **,2
      00257  0774 00 4 00000  XR4    AXT     **,4

      00260  0522 00 0 00000  XEC    XEC     **            RETURN TO USER PROGRAM
      00261  0020 00 4 00001         TRA     1,4

      00262  0601 00 0 00521  SAVE   STO     SIGN          SAVE LIGHTS
      00263  0602 00 0 00522         SLW     LAC
      00264  0771 00 0 00001         ARS     1
      00265 -0320 00 0 00324         ANA     MZE
      00266  0602 00 0 00523         SLW     QBIT
      00267  0634 00 1 00255         SXA     XR1,1
      00270  0634 00 2 00256         SXA     XR2,2

      00271  0535 00 2 00062         LAC     (MDBG)-1,2
      00272  0020 00 4 00001         TRA     1,4

                              CTSS   MACRO   A
                                     IRP     A
                              A      TIA     *+1
                                     BCI     1,A
                                     IRP
                              CTSS   END

      00273                          CTSS    (WRFLX,CHFILE,GETCOM,SETBRK,GETBRK)
      00305                          CTSS    (SAVBRK,GETCLC,SETCLC,SETCLS,GETCLS,CHNCOM)
      00321 -300000700000     PRETAG OCT     700000700000
      00322 -377777000000     MASKOP OCT     777777000000
      00323 -377776700000     MASK   OCT     777776700000
      00324 -0 00000 0 00000  MZE    MZE
 ATD  00325 -3 00000 0 00000  TXL    TXL
 A    00326  0021 00 0 00000  TTR    TTR
      00327  0 00000 0 00000  PZE    PZE
                       00330  ONE    EQU     *
      00330  0 00002 0 00001  GOCLC  PZE     1,,2
      00331  606062216525     SAVEC  BCI     2,  SAVE(USER)
      00332  746462255134
      00333 -377777777777            OCT     777777777777
      00334  512562644425     RESUME BCI     2,RESUME(MDBG)
      00335  744424222734
      00336 -377777777777            OCT     777777777777
      00337  646225516031     INUSER BCI     3,USER IN CONTROL.
      00340  456023464563
      00341  514643336060
      00342  442124226427     INMDBG BCI     3,MADBUG IN CONTROL.
      00343  603145602346
      00344  456351464333
      00345  744424222734     MADBUG BCI     2,(MDBG) SAVED
      00346  606221652524
1                                                                                                PAGE 6

      00347  0 00001 0 00355         PZE     BUFF,,1
      00350  0 00002 0 00401         PZE     BUFF+20,,2
      00351  0 00003 0 00425         PZE     BUFF+40,,3
      00352  0 00004 0 00451         PZE     BUFF+60,,4
      00353  0 00005 0 00475         PZE     BUFF+80,,5
                       00354  CLS    EQU     *

      00354                   TEMP   BSS     1
      00355                   BUFF   BSS     100
      00521                   SIGN   BSS     1
      00522                   LAC    BSS     1
      00523                   QBIT   BSS     1
      00524                   CLC    BSS     1
                                     END
1                                                                                                PAGE 1
                        POST PROCESSOR ASSEMBLY DATA

        525 IS THE FIRST LOCATION NOT USED BY THIS PROGRAM

0REFERENCES TO DEFINED SYMBOLS
        215     1.   213
        524    CLC   172,  227
        354    CLS   175,  233,  354
        120    END     5,   10
        522    LAC   254,  263
         65    LXA    73
        324    MZE   265
        330    ONE    55,  330
        327    PZE    32,   34
        114    TRA   137
        326    TTR   153,  225
        325    TXL   146
        260    XEC   221,  226
        255    XR1   267
        256    XR2   104,  270
        257    XR4     3,    6,   11,   14,   17,   22,   36,   63,   65,  122,  135
        355   BUFF   347,  350,  351,  352,  353
        165   CONT    57,  112,  114,  130
          6   DEAD     0
         11   EXIT     0
        127   FLAG   115,  120,  132
         41   FPER    30
        323   MASK   152
        143   MORE   160
        523   QBIT   252,  266
        262   SAVE    41,   64,  121,  136
        521   SIGN   250,  262
        157   STEP   150,  155
        354   TEMP    25,   35,   52
        135  BREAK    61
          0  CLOUT   116
        115  ENDCL    13,   16,   21
         17  ERROR     0
         52  FPEND    44,   46,   50
         40  FPTRA    24,   53
        330  GOCLC   206
        331  SAVEC   203
        216  START    60
        273  WRFLX     0,  167,  246
         22  (FPT)     0
        275 CHFILE   210
        317 CHNCOM   214
          3 DORMNT     0
         14 ENDJOB     0
        131 ENDTRA   125
        303 GETBRK   141
        307 GETCLC   171
        315 GETCLS   177
        277 GETCOM   222
        202 GETSKP   173
        342 INMDBG   170
1                                                                                                PAGE 2
                        POST PROCESSOR ASSEMBLY DATA

        337 INUSER   247
        345 MADBUG   211,  212
        322 MASKOP    74
        321 PRETAG   145
        334 RESUME   205
        167 RETURN   134
        305 SAVBRK   240
        301 SETBRK   244
        311 SETCLC   207,  230
        313 SETCLS   202,  204,  235
        240 SETSKP   231
         63 (MDBG)     0,  106,  133,  216,  217,  242,  271

0 NO ERROR IN ABOVE ASSEMBLY.
1                                                                                                PAGE 1

                                     EXTERN  .LOAD,.SEEK,.READK,.ENDRD,.DUMP,.ASIGN
                                     EXTERN  .WRITE,.FILE,.DLETE,.RENAM,.FSTAT
                       00516         ENTRY   WDITCH
                       00241         ENTRY   WALLOT
                       00023         ENTRY   WGET
                       00460         ENTRY   WDUMP
                       00237         ENTRY   WSEEK
                       00452         ENTRY   WCHANG
                       00134         ENTRY   WINS
                       00445         ENTRY   WSIZE
                       00057         ENTRY   WDEL
                       00261         ENTRY   WSETUP
                       00040         ENTRY   WSET
                       00777         ENTRY   COPY
             3 00001 1 60000  PAR    OPSYN   PTH

        TRANSFER VECTOR
      00000  334346212460     .LOAD
      00001  336225254260     .SEEK
      00002  335125212442     .READK
      00003  332545245124     .ENDRD
      00004  332464444760     .DUMP
      00005  332162312745     .ASIGN
      00006  336651316325     .WRITE
      00007  332631432560     .FILE
      00010  332443256325     .DLETE
      00011  335125452144     .RENAM
      00012  332662632163     .FSTAT
      00013  512521247060     READY
      00014  475131456360     PRINT
      00015  212424234644     ADDCOM
      00016  212424452144     ADDNAM
      00017  212424456444     ADDNUM
      00020  235163704725     CRTYPE

            LINKAGE DIRECTOR
      00021  000000000000
      00022  662431632330

                       00660  BFUNIT EQU     432
                       00721  RWUNIT EQU     465
                      077776  BFSIZ  BOOL    77776

      00023  0534 00 1 01333  WGET   LXA     I,1
      00024 -3 00000 1 01175         TXL     SEEKER,1,0
      00025  0500 60 4 00001         CLA*    1,4
      00026  0100 00 0 01143         TZE     RANGER
      00027 -0120 00 0 01143         TMI     RANGER
      00030  0402 00 1 01376         SUB     SIZE,1
      00031  0100 00 0 00033         TZE     *+2
      00032  0120 00 0 01143         TPL     RANGER
      00033  0400 00 1 01376         ADD     SIZE,1
      00034  0400 00 1 01357         ADD     START,1
      00035  0621 00 0 00036         STA     *+1
      00036  0500 00 0 00000         CLA     **
      00037  0020 00 4 00002         TRA     2,4
1                                                                                                PAGE 2

      00040  0534 00 1 01333  WSET   LXA     I,1
      00041 -3 00000 1 01175         TXL     SEEKER,1,0
      00042  0500 60 4 00001         CLA*    1,4
      00043  0100 00 0 01143         TZE     RANGER
      00044 -0120 00 0 01143         TMI     RANGER
      00045  0402 00 1 01376         SUB     SIZE,1
      00046  0100 00 0 00050         TZE     *+2
      00047  0120 00 0 01143         TPL     RANGER
      00050 -0625 00 1 01453         STL     CHANGE,1
      00051  0400 00 1 01376         ADD     SIZE,1
      00052  0400 00 1 01357         ADD     START,1
      00053  0621 00 0 00055         STA     *+2
      00054  0500 60 4 00002         CLA*    2,4
      00055  0601 00 0 00000         STO     **
      00056  0020 00 4 00003         TRA     3,4

      00057  0534 00 1 01333  WDEL   LXA     I,1
      00060 -3 00000 1 01175         TXL     SEEKER,1,0
      00061  0500 60 4 00001         CLA*    1,4
      00062  0100 00 0 01143         TZE     RANGER
      00063 -0120 00 0 01143         TMI     RANGER
      00064  0500 60 4 00002         CLA*    2,4
      00065  0100 00 4 00003         TZE     3,4
      00066 -0120 00 0 01143         TMI     RANGER
      00067  0400 60 4 00001         ADD*    1,4
      00070  0402 00 1 01376         SUB     SIZE,1
      00071  0402 00 0 01556         SUB     =1
      00072  0100 00 0 00074         TZE     *+2
      00073  0120 00 0 01143         TPL     RANGER
      00074  0500 00 0 01337         CLA     BUFEND
      00075  0400 00 0 01556         ADD     =1
      00076  0621 00 0 00105         STA     WDEL1
      00077  0402 60 4 00002         SUB*    2,4
      00100  0621 00 0 00106         STA     WDEL2
      00101  0402 60 4 00001         SUB*    1,4
      00102  0402 00 1 01357         SUB     START,1
      00103  0100 00 0 00110         TZE     WDEL4
      00104  0734 00 2 00000         PAX     ,2
      00105 -0500 00 2 00000  WDEL1  CAL     **,2
      00106  0602 00 2 00000  WDEL2  SLW     **,2
      00107  2 00001 2 00105         TIX     *-2,2,1
      00110  0500 00 0 00106  WDEL4  CLA     WDEL2
      00111  0634 00 4 00113         SXA     *+2,4
      00112  0074 00 4 01552         TSX     SETMEM,4
      00113  0774 00 4 00000         AXT     **,4
      00114  0500 00 0 01337         CLA     BUFEND
      00115  0402 60 4 00002         SUB*    2,4
      00116  0601 00 0 01337         STO     BUFEND
      00117  0500 00 1 01376         CLA     SIZE,1
      00120  0402 60 4 00002         SUB*    2,4
      00121  0601 00 1 01376         STO     SIZE,1
      00122 -0625 00 1 01453         STL     CHANGE,1
      00123  0534 00 2 01335         LXA     SEKEND,2
      00124 -0634 00 2 00126         SXD     WDEL3,2
      00125  1 00001 1 00126         TXI     *+1,1,1
      00126 -3 00000 1 00130  WDEL3  TXL     *+2,1,**
1                                                                                                PAGE 3

      00127  0020 00 4 00003         TRA     3,4
      00130  0500 00 1 01357         CLA     START,1
      00131  0402 60 4 00002         SUB*    2,4
      00132  0601 00 1 01357         STO     START,1
      00133  1 00001 1 00126         TXI     WDEL3,1,1

      00134  0534 00 1 01333  WINS   LXA     I,1
      00135 -3 00000 1 01175         TXL     SEEKER,1,0
      00136  0500 60 4 00001         CLA*    1,4
      00137  0100 00 0 01143         TZE     RANGER
      00140 -0120 00 0 01143         TMI     RANGER
      00141  0402 00 1 01376         SUB     SIZE,1
      00142  0402 00 0 01556         SUB     =1
      00143  0100 00 0 00145         TZE     *+2
      00144  0120 00 0 01143         TPL     RANGER
      00145  0500 60 4 00002         CLA*    2,4
      00146  0100 00 0 01143         TZE     RANGER
      00147 -0120 00 0 01143         TMI     RANGER
      00150  0500 00 0 01337         CLA     BUFEND
      00151  0400 60 4 00002         ADD*    2,4
      00152  0402 00 0 01336         SUB     BUFSIZ
      00153  0400 00 0 01534         ADD     4.BF.1
      00154  0100 00 0 00156         TZE     *+2
      00155  0120 00 0 01202         TPL     FULLER
      00156  0500 00 0 01337         CLA     BUFEND
      00157  0400 00 0 01556         ADD     =1
      00160  0621 00 0 00176         STA     WINS1
      00161  0400 60 4 00002         ADD*    2,4
      00162  0634 00 4 00164         SXA     *+2,4
      00163  0074 00 4 01552         TSX     SETMEM,4
      00164  0774 00 4 00000         AXT     **,4
      00165  0621 00 0 00177         STA     WINS2
      00166  0500 00 0 01337         CLA     BUFEND
      00167  0400 00 0 01556         ADD     =1
      00170  0402 00 1 01357         SUB     START,1
      00171  0402 60 4 00001         SUB*    1,4
      00172  0100 00 0 00202         TZE     WINS8
      00173  0767 00 0 00022         ALS     18
      00174  0622 00 0 00201         STD     WINS3
      00175  0774 00 2 00001         AXT     1,2
      00176 -0500 00 2 00000  WINS1  CAL     **,2
      00177  0602 00 2 00000  WINS2  SLW     **,2
      00200  1 00001 2 00201         TXI     *+1,2,1
      00201 -3 00000 2 00176  WINS3  TXL     WINS1,2,**
      00202  0500 00 0 01337  WINS8  CLA     BUFEND
      00203  0400 60 4 00002         ADD*    2,4
      00204  0601 00 0 01337         STO     BUFEND
      00205  0500 00 1 01376         CLA     SIZE,1
      00206  0400 60 4 00002         ADD*    2,4
      00207  0601 00 1 01376         STO     SIZE,1
      00210 -0625 00 1 01453         STL     CHANGE,1
      00211  0534 00 2 01335         LXA     SEKEND,2
      00212 -0634 00 2 00214         SXD     WINS4,2
      00213  1 00001 1 00214         TXI     *+1,1,1
      00214  3 00000 1 00221  WINS4  TXH     WINS5,1,**
      00215  0500 00 1 01357         CLA     START,1
1                                                                                                PAGE 4

      00216  0400 60 4 00002         ADD*    2,4
      00217  0601 00 1 01357         STO     START,1
      00220  1 00001 1 00214         TXI     WINS4,1,1
      00221  0534 00 1 01333  WINS5  LXA     I,1
      00222  0500 60 4 00002         CLA*    2,4
      00223  0734 00 2 00000         PAX     ,2
      00224  0400 60 4 00001         ADD*    1,4
      00225  0400 00 1 01357         ADD     START,1
      00226  0621 00 0 00233         STA     WINS6
      00227  0774 00 1 00000         AXT     0,1
      00230  0500 00 4 00003         CLA     3,4
      00231  0621 00 0 00232         STA     WINS7
      00232 -0500 00 1 00000  WINS7  CAL     **,1
      00233  0602 00 2 00000  WINS6  SLW     **,2
      00234  1 00001 1 00235         TXI     *+1,1,1
      00235  2 00001 2 00232         TIX     WINS7,2,1
      00236  0020 00 4 00004         TRA     4,4

      00237  0074 00 2 01112  WSEEK  TSX     ISET,2
      00240  0020 00 4 00001         TRA     1,4

      00241  0500 00 0 01335  WALLOT CLA     SEKEND
      00242  0402 00 0 01334         SUB     SEKSIZ
      00243  0100 00 0 01202         TZE     FULLER
      00244  0074 00 2 01112         TSX     ISET,2
      00245 -0100 00 0 01222         TNZ     NAMER
      00246  0534 00 1 01335         LXA     SEKEND,1
      00247  1 00001 1 00250         TXI     *+1,1,1
      00250  0634 00 1 01335         SXA     SEKEND,1
      00251  0634 00 1 01333         SXA     I,1
      00252  0500 60 4 00001         CLA*    1,4
      00253  0601 00 1 01434         STO     NAME,1
      00254  0500 00 0 01337         CLA     BUFEND
      00255  0601 00 1 01357         STO     START,1
      00256  0600 00 1 01376         STZ     SIZE,1
      00257 -0625 00 1 01415         STL     INTERN,1
      00260  0020 00 4 00002         TRA     2,4

      00261  0634 00 4 00443  WSETUP SXA     WSETX4,4
      00262  0020 00 0 00263  WSETT  TRA     *+1
      00263  0074 00 4 01554         TSX     GETMEM,4
      00264  0402 00 0 01556         SUB     =1
      00265  0601 00 0 01337         STO     BUFEND
      00266  0534 00 4 00443         LXA     WSETX4,4
      00267 -0625 00 0 00262         STL     WSETT
      00270  0500 00 0 01335         CLA     SEKEND
      00271  0402 00 0 01334         SUB     SEKSIZ
      00272  0100 00 0 01202         TZE     FULLER
      00273  0074 00 2 01112         TSX     ISET,2
      00274 -0100 00 0 01222         TNZ     NAMER
      00275  0534 00 1 01335         LXA     SEKEND,1
      00276  1 00001 1 00277         TXI     *+1,1,1
      00277  0500 00 4 00002         CLA     2,4
      00300  0737 00 2 00000         PAC     ,2
      00301  0500 00 2 00000         CLA     0,2
      00302  0601 00 0 01530         STO     FILEN
1                                                                                                PAGE 5

      00303  0601 00 1 01472         STO     PRIMAR,1
      00304  0500 00 2 77777         CLA     -1,2
      00305  0601 00 0 01531         STO     FILEN+1
      00306  0601 00 1 01511         STO     SECOND,1
      00307  0500 60 4 00001         CLA*    1,4
      00310  0601 00 1 01434         STO     NAME,1
      00311  0500 00 0 01337         CLA     BUFEND
      00312  0601 00 1 01357         STO     START,1
      00313  0600 00 1 01415         STZ     INTERN,1
      00314  0600 00 1 01453         STZ     CHANGE,1
      00315  0074 00 2 01126  WSET1  TSX     FSTAT,2
      00316 -0500 00 0 01537         CAL     STAT
      00317 -0320 00 0 01560         ANA     =O777777
      00320  0602 00 0 01537         SLW     STAT
      00321 -0100 00 0 00327         TNZ     WSET3

      00322  0520 60 4 00003         ZET*    3,4
      00323  0020 00 0 01205         TRA     GONER
      00324  0600 00 1 01376         STZ     SIZE,1
      00325  0600 00 1 01530         STZ     FSTART,1
      00326  0020 00 0 00441         TRA     WSET5

      00327  0500 60 4 00003  WSET3  CLA*    3,4
      00330 -0100 00 0 00356         TNZ     WSET4
      00331  0500 00 0 01337         CLA     BUFEND
      00332  0400 00 0 01556         ADD     =1
      00333  0621 00 0 00351         STA     WSET3A
      00334  0400 00 0 01537         ADD     STAT
      00335  0400 00 0 01534         ADD     4.BF.1
      00336  0402 00 0 01336         SUB     BUFSIZ
      00337  0100 00 0 00341         TZE     *+2
      00340  0120 00 0 01202         TPL     FULLER
      00341  0500 00 0 01337         CLA     BUFEND
      00342  0400 00 0 01537         ADD     STAT
      00343  0400 00 0 01556         ADD     =1
      00344  0074 00 4 01552         TSX     SETMEM,4
      00345  0534 00 2 01537         LXA     STAT,2
      00346 -0634 00 2 00351         SXD     WSET3A,2
      00347  0074 00 4 00000         TSX     .LOAD,4
      00350  0 00000 0 01530         PZE     FILEN
      00351  0 00000 0 00000  WSET3A PZE     **,,**
      00352  0601 00 1 01376         STO     SIZE,1
      00353  0400 00 0 01337         ADD     BUFEND
      00354  0600 00 1 01530         STZ     FSTART,1
      00355  0020 00 0 00436         TRA     WSET5A

      00356  0500 60 4 00003  WSET4  CLA*    3,4
      00357  0601 00 1 01530         STO     FSTART,1
      00360  0100 00 0 01143         TZE     RANGER
      00361 -0120 00 0 01143         TMI     RANGER
      00362  0500 60 4 00004         CLA*    4,4
      00363  0601 00 1 01376         STO     SIZE,1
      00364  0100 00 0 01143         TZE     RANGER
      00365 -0120 00 0 01143         TMI     RANGER
      00366  0734 00 2 00000         PAX     ,2
      00367 -0634 00 2 00401         SXD     WSET4G,2
1                                                                                                PAGE 6

      00370 -0634 00 2 00427         SXD     WSET4A,2
      00371  0400 00 0 01337         ADD     BUFEND
      00372  0400 00 0 01534         ADD     4.BF.1
      00373  0402 00 0 01336         SUB     BUFSIZ
      00374  0100 00 0 00376         TZE     *+2
      00375  0120 00 0 01202         TPL     FULLER
      00376  0534 00 2 01337         LXA     BUFEND,2
      00377  1 00001 2 00400         TXI     *+1,2,1
      00400  0634 00 2 00427         SXA     WSET4A,2
      00401  1 00000 2 00402  WSET4G TXI     *+1,2,**
      00402  0634 00 2 00412         SXA     WSET4B,2
      00403  1 00660 2 00404         TXI     *+1,2,BFUNIT
      00404 -0634 00 2 00412         SXD     WSET4B,2
      00405  1 00660 2 00406         TXI     *+1,2,BFUNIT
      00406  0754 00 2 00000         PXA     ,2
      00407  0074 00 4 01552         TSX     SETMEM,4
      00410  0074 00 4 00001         TSX     .SEEK,4
      00411  0 00000 0 01530         PZE     FILEN
      00412  0 00000 0 00000  WSET4B PZE     **,,**
      00413  0534 00 4 00443         LXA     WSETX4,4
      00414  0500 60 4 00003         CLA*    3,4
      00415  0734 00 2 00000         PAX     ,2
      00416  1 77777 2 00417         TXI     *+1,2,-1
      00417 -3 00000 2 00425         TXL     WSET4D,2,0
      00420 -0634 00 2 00423         SXD     WSET4F,2
      00421  0074 00 4 00002         TSX     .READK,4
      00422  0 00000 0 01530         PZE     FILEN
      00423  0 00000 7 00000  WSET4F PZE     0,7,**
      00424  0 00000 0 01143         PZE     RANGER
      00425  0074 00 4 00002  WSET4D TSX     .READK,4
      00426  0 00000 0 01530         PZE     FILEN
      00427  0 00000 0 00000  WSET4A PZE     **,,**
      00430  0 00000 0 01143         PZE     RANGER
      00431  0074 00 4 00003         TSX     .ENDRD,4
      00432  0 00000 0 01530         PZE     FILEN
      00433  0534 00 4 00443         LXA     WSETX4,4
      00434  0500 00 0 01337         CLA     BUFEND
      00435  0400 60 4 00004         ADD*    4,4

      00436  0601 00 0 01337  WSET5A STO     BUFEND
      00437  0400 00 0 01556         ADD     =1
      00440  0074 00 4 01552         TSX     SETMEM,4

      00441  0634 00 1 01335  WSET5  SXA     SEKEND,1
      00442  0634 00 1 01333         SXA     I,1
      00443  0774 00 4 00000  WSETX4 AXT     **,4
      00444  0020 00 4 00003         TRA     3,4

      00445  0534 00 1 01333  WSIZE  LXA     I,1
      00446 -3 00000 1 01175         TXL     SEEKER,1,0
      00447  0500 00 1 01376         CLA     SIZE,1
      00450  0601 60 4 00001         STO*    1,4
      00451  0020 00 4 00002         TRA     2,4
1                                                                                                PAGE 7

      00452  0534 00 1 01333  WCHANG LXA     I,1
      00453 -3 00000 1 01175         TXL     SEEKER,1,0
      00454 -0500 00 1 01453         CAL     CHANGE,1
      00455  0100 00 4 00001         TZE     1,4
      00456 -0500 00 0 01556         CAL     =1
      00457  0020 00 4 00001         TRA     1,4

      00460  0074 00 2 01112  WDUMP  TSX     ISET,2
      00461  0100 00 0 01222         TZE     NAMER
      00462  0520 00 1 01530         ZET     FSTART,1
      00463  0020 00 0 01143         TRA     RANGER
      00464 -0520 00 1 01376         NZT     SIZE,1
      00465  0020 00 0 01143         TRA     RANGER
      00466  0500 00 1 01472         CLA     PRIMAR,1
      00467  0601 00 0 01530         STO     FILEN
      00470  0500 00 1 01511         CLA     SECOND,1
      00471  0601 00 0 01531         STO     FILEN+1
      00472  0500 00 1 01357  WDUMPA CLA     START,1
      00473  0400 00 0 01556         ADD     =1
      00474  0621 00 0 00506         STA     WDUMP1
      00475  0500 00 1 01376         CLA     SIZE,1
      00476  0767 00 0 00022         ALS     18
      00477  0622 00 0 00506         STD     WDUMP1
      00500  0634 00 4 00514         SXA     WDUMP2,4
      00501  0074 00 4 00010         TSX     .DLETE,4
      00502  0 00000 0 01542         PZE     TEMFIL
      00503 -0 00000 0 00504         MZE     *+1
      00504  0074 00 4 00004         TSX     .DUMP,4
      00505  0 00000 0 01542         PZE     TEMFIL
      00506  0 00000 0 00000  WDUMP1 PZE     **,,**
      00507  0074 00 4 00010         TSX     .DLETE,4
      00510  0 00000 0 01530         PZE     FILEN
      00511 -0 00000 0 00512         MZE     *+1
      00512  0074 00 4 00011         TSX     .RENAM,4
      00513  1 01542 0 01530         PON     FILEN,,TEMFIL
      00514  0774 00 4 00000  WDUMP2 AXT     **,4
      00515  0020 00 4 00001         TRA     1,4

      00516  0074 00 2 01112  WDITCH TSX     ISET,2
      00517  0100 00 4 00002         TZE     2,4
      00520  0634 00 4 00775         SXA     WDITX4,4
      00521  0520 00 1 01415         ZET     INTERN,1
      00522  0020 00 0 00736         TRA     NODUMP
      00523 -0520 00 1 01453         NZT     CHANGE,1
      00524  0020 00 0 00736         TRA     NODUMP
      00525  0500 00 1 01472         CLA     PRIMAR,1
      00526  0601 00 0 01530         STO     FILEN
      00527  0500 00 1 01511         CLA     SECOND,1
      00530  0601 00 0 01531         STO     FILEN+1
      00531  0074 00 2 01126         TSX     FSTAT,2
      00532  0520 00 1 01376         ZET     SIZE,1
      00533  0020 00 0 00541         TRA     WDIT8
      00534 -0520 00 0 01537         NZT     STAT
      00535  0020 00 0 00736         TRA     NODUMP
      00536  0074 00 4 00010         TSX     .DLETE,4
      00537  0 00000 0 01530         PZE     FILEN
1                                                                                                PAGE 8

      00540  0020 00 0 00736         TRA     NODUMP
      00541  0520 00 1 01530  WDIT8  ZET     FSTART,1
      00542  0020 00 0 00545         TRA     *+3
      00543  0074 00 4 00472         TSX     WDUMPA,4
      00544  0020 00 0 00736         TRA     NODUMP
      00545 -0520 00 0 01537         NZT     STAT
      00546  0020 00 0 00736         TRA     NODUMP
      00547  0502 00 0 01337         CLS     BUFEND        CALC SPACE AVAILABLE
      00550  0402 00 0 01535         SUB     4.BF          ..
      00551  0400 00 0 01336         ADD     BUFSIZ        ..
      00552  0560 00 0 01536         LDQ     9.RW          WOULD LIKE 9*RWUNIT
      00553  0040 00 0 00557         TLQ     *+4           TRA IF CAN USE 9*RWUNIT
      00554  0100 00 0 01143         TZE     RANGER        ERROR IF NO SPACE
      00555 -0120 00 0 01143         TMI     RANGER        ..
      00556  0131 00 0 00000         XCA                   USE WHAT WE HAVE
      00557 -0600 00 0 01544         STQ     TRYSIZ        ..
      00560  0534 00 2 01544         LXA     TRYSIZ,2      ..
      00561 -0634 00 2 00645         SXD     WDIT4,2       ..
      00562  0534 00 2 01337         LXA     BUFEND,2      SET UP I/O BUFFERS
      00563  1 00001 2 00564         TXI     *+1,2,1       ..
      00564  0634 00 2 00615         SXA     WDIT1,2       ..
      00565  1 00660 2 00566         TXI     *+1,2,BFUNIT  ..
      00566 -0634 00 2 00615         SXD     WDIT1,2       ..
      00567  1 00660 2 00570         TXI     *+1,2,BFUNIT  ..
      00570  0634 00 2 00623         SXA     WDIT2,2       ..
      00571  1 00660 2 00572         TXI     *+1,2,BFUNIT  ..
      00572 -0634 00 2 00623         SXD     WDIT2,2       ..
      00573  1 00660 2 00574         TXI     *+1,2,BFUNIT  SET UP BUFFER FOR OLD FILE
      00574  0634 00 2 00645         SXA     WDIT4,2       ..
      00575  0634 00 2 00670         SXA     WDIT9,2       ..
      00576  0754 00 2 00000         PXA     ,2            EXTEND MEMORY
      00577  0400 00 0 01544         ADD     TRYSIZ        ..
      00600  0074 00 4 01552         TSX     SETMEM,4      ..
      00601 -0500 00 1 01357         CAL     START,1       START OF PATCH
      00602  0400 00 0 01556         ADD     =1            ..
      00603  0601 00 0 01545         STO     NEWBEG        ..
      00604 -0500 00 1 01530         CAL     FSTART,1      COUNT TO COPY FIRST
      00605  0402 00 0 01556         SUB     =1            ..
      00606  0601 00 0 01546         STO     OLDFST        ..
      00607 -0500 00 1 01376         CAL     SIZE,1        COUNT OF PATCH
      00610  0601 00 0 01547         STO     NEWPAT        ..
      00611  0534 00 2 01544         LXA     TRYSIZ,2      SIZE OF BUFFER FOR OLD FILE
      00612  0634 00 2 01550         SXA     TRUSIZ,2      ..
      00613  0074 00 4 00001         TSX     .SEEK,4       INITIALIZE DISK
      00614  0 00000 0 01530         PZE     FILEN         ..
      00615  0 00000 0 00000  WDIT1  PZE     **,,**        ..
      00616  0074 00 4 00010         TSX     .DLETE,4
      00617  0 00000 0 01542         PZE     TEMFIL
      00620 -0 00000 0 00621         MZE     *+1
      00621  0074 00 4 00005         TSX     .ASIGN,4      ..
      00622  1 00000 0 01542         PON     TEMFIL        ..
      00623  0 00000 0 00000  WDIT2  PZE     **,,**        ..

      00624  0500 00 0 01550  WDIT12 CLA     TRUSIZ        ARE WE DONE
      00625  0402 00 0 01544         SUB     TRYSIZ        ..
      00626  0100 00 0 00642         TZE     WDIT3         TRA IF NO
1                                                                                                PAGE 9

      00627  0074 00 4 00007         TSX     .FILE,4       YES, CLOSE DISK
      00630  0 00000 0 01542         PZE     TEMFIL        ..
      00631  0520 00 0 01546         ZET     OLDFST        EVERYTHING WE KNOW ABOUT GONE
      00632  0020 00 0 01143         TRA     RANGER        NO
      00633  0520 00 0 01547         ZET     NEWPAT        MAYBE
      00634  0020 00 0 01143         TRA     RANGER        NO
      00635  0074 00 4 00010         TSX     .DLETE,4
      00636  0 00000 0 01530         PZE     FILEN
      00637  0074 00 4 00011         TSX     .RENAM,4      YES, RENAME NEW FILE TO BE OLD
      00640  1 01542 0 01530         PON     FILEN,,TEMFIL ..
      00641  0020 00 0 00736         TRA     NODUMP        DONE WITH DUMP

      00642  0600 00 0 01551  WDIT3  STZ     OLDDUN        REFILL BUFFER FOR OLD FILE
      00643  0074 00 4 00002         TSX     .READK,4      ..
      00644  0 00000 0 01530         PZE     FILEN         ..
      00645  0 00000 0 00000  WDIT4  PZE     **,,**
      00646  0 00000 0 00650         PZE     WDIT5         GO TO WDIT5 ON E.O.F.
      00647  0020 00 0 00651         TRA     WDIT6         NORMAL EXIT
      00650  0601 00 0 01550  WDIT5  STO     TRUSIZ        REDUCE COUNT
      00651 -0520 00 0 01546  WDIT6  NZT     OLDFST        ANY OLD TO WRITE FIRST
      00652  0020 00 0 00671         TRA     WDIT7         NO, CONTINUE
      00653  0500 00 0 01550         CLA     TRUSIZ        YES, HOW MUCH CAN WE WRITE THIS TIME
      00654  0560 00 0 01546         LDQ     OLDFST        ..
      00655  0040 00 0 00657         TLQ     *+2           ..
      00656  0131 00 0 00000         XCA                   ..
      00657  0131 00 0 00000         XCA                   ..
      00660  0601 00 0 01551         STO     OLDDUN        WILL HAVE WRITTEN THIS MUCH
      00661  0734 00 2 00000         PAX     ,2            ..
      00662 -0634 00 2 00670         SXD     WDIT9,2       ..
      00663  0760 00 0 00002         CHS                   DECREASE AMOUNT OF OLD TO WRITE FIRST
      00664  0400 00 0 01546         ADD     OLDFST        ..
      00665  0601 00 0 01546         STO     OLDFST        ..
      00666  0074 00 4 00006         TSX     .WRITE,4      AND DO THE WRITING
      00667  0 00000 0 01542         PZE     TEMFIL        ..
      00670  0 00000 0 00000  WDIT9  PZE     **,,**        ..
      00671 -0520 00 0 01547  WDIT7  NZT     NEWPAT        ANY NEW TO WRITE NEXT
      00672  0020 00 0 00721         TRA     WDIT10        NO, CONTINUE
      00673  0534 00 2 01545         LXA     NEWBEG,2      WRITE NEW STARTING HERE
      00674  0634 00 2 00720         SXA     WDIT11,2      ..
      00675  0500 00 0 01550         CLA     TRUSIZ        HOW MUCH CAN WE WRITE THIS TIME
      00676  0402 00 0 01551         SUB     OLDDUN        ..
      00677  0560 00 0 01547         LDQ     NEWPAT        ..
      00700  0040 00 0 00702         TLQ     *+2           ..
      00701  0131 00 0 00000         XCA                   ..
      00702  0131 00 0 00000         XCA                   ..
      00703  0734 00 2 00000         PAX     ,2            ..
      00704 -0634 00 2 00720         SXD     WDIT11,2      ..
      00705  0400 00 0 01545         ADD     NEWBEG        WHERE TO WRITE FROM NEXT TIME
      00706  0601 00 0 01545         STO     NEWBEG        ..
      00707  0754 00 2 00000         PXA     ,2            WILL HAVE WRITTEN THIS MUCH MORE
      00710  0400 00 0 01551         ADD     OLDDUN        ..
      00711  0601 00 0 01551         STO     OLDDUN        ..
      00712  0754 00 2 00000         PXA     ,2            WILL WRITE THIS MUCH LESS NEXT TIME
      00713  0760 00 0 00002         CHS                   ..
      00714  0400 00 0 01547         ADD     NEWPAT        ..
      00715  0601 00 0 01547         STO     NEWPAT        ..
1                                                                                                PAGE 10

      00716  0074 00 4 00006         TSX     .WRITE,4      WRITE IT NOW
      00717  0 00000 0 01542         PZE     TEMFIL        ..
      00720  0 00000 0 00000  WDIT11 PZE     **,,**        ..
      00721  0500 00 0 01550  WDIT10 CLA     TRUSIZ        COPY OLD AFTER PATCH AREA IF ANY
      00722  0402 00 0 01551         SUB     OLDDUN        ..
      00723  0100 00 0 00624         TZE     WDIT12        NOT YET OR NONE LEFT
      00724  0734 00 2 00000         PAX     ,2            WRITE THIS MUCH
      00725 -0634 00 2 00734         SXD     WDIT15,2      ..
      00726  0534 00 2 00645         LXA     WDIT4,2       WRITE FROM HERE
      00727  0754 00 2 00000         PXA     ,2            ..
      00730  0400 00 0 01551         ADD     OLDDUN        ..
      00731  0621 00 0 00734         STA     WDIT15        ..
      00732  0074 00 4 00006         TSX     .WRITE,4      WRITE IT NOW
      00733  0 00000 0 01542         PZE     TEMFIL        ..
      00734  0 00000 0 00000  WDIT15 PZE     **,,**        ..
      00735  0020 00 0 00624         TRA     WDIT12        AND GO BACK FOR MORE

      00736  0500 00 1 01376  NODUMP CLA     SIZE,1
      00737  0601 00 0 01541         STO     TSIZE
      00740  0074 00 4 00057         TSX     WDEL,4
      00741  0 00000 0 01556         PZE     =1
      00742  0 00000 0 01541         PZE     TSIZE
      00743  0534 00 1 01333         LXA     I,1
      00744  1 00001 1 00745         TXI     *+1,1,1
      00745  0534 00 2 01335         LXA     SEKEND,2
      00746 -0634 00 2 00747         SXD     WDIT13,2
      00747  3 00000 1 00771  WDIT13 TXH     WDIT14,1,**
      00750  0500 00 1 01357         CLA     START,1
      00751  0601 00 1 01360         STO     START+1,1
      00752  0500 00 1 01376         CLA     SIZE,1
      00753  0601 00 1 01377         STO     SIZE+1,1
      00754  0500 00 1 01415         CLA     INTERN,1
      00755  0601 00 1 01416         STO     INTERN+1,1
      00756  0500 00 1 01434         CLA     NAME,1
      00757  0601 00 1 01435         STO     NAME+1,1
      00760  0500 00 1 01453         CLA     CHANGE,1
      00761  0601 00 1 01454         STO     CHANGE+1,1
      00762  0500 00 1 01472         CLA     PRIMAR,1
      00763  0601 00 1 01473         STO     PRIMAR+1,1
      00764  0500 00 1 01511         CLA     SECOND,1
      00765  0601 00 1 01512         STO     SECOND+1,1
      00766  0500 00 1 01530         CLA     FSTART,1
      00767  0601 00 1 01531         STO     FSTART+1,1
      00770  1 00001 1 00747         TXI     WDIT13,1,1

      00771  0500 00 0 01335  WDIT14 CLA     SEKEND
      00772  0402 00 0 01556         SUB     =1
      00773  0601 00 0 01335         STO     SEKEND
      00774  0600 00 0 01333         STZ     I
      00775  0774 00 4 00000  WDITX4 AXT     **,4
      00776  0020 00 4 00002         TRA     2,4

      00777  0634 00 4 01110  COPY   SXA     COPYX4,4
      01000  0500 00 4 00001         CLA     1,4
      01001  0737 00 2 00000         PAC     ,2
      01002  0500 00 2 00000         CLA     0,2
1                                                                                                PAGE 11

      01003  0601 00 0 01530         STO     FILEN
      01004  0500 00 2 77777         CLA     -1,2
      01005  0601 00 0 01531         STO     FILEN+1
      01006  0500 00 4 00002         CLA     2,4
      01007  0737 00 2 00000         PAC     ,2
      01010  0500 00 2 00000         CLA     0,2
      01011  0601 00 0 01532         STO     FILEN1
      01012  0500 00 2 77777         CLA     -1,2
      01013  0601 00 0 01533         STO     FILEN1+1
      01014  0074 00 2 01126         TSX     FSTAT,2
      01015 -0520 00 0 01537         NZT     STAT
      01016  0020 00 0 01205         TRA     GONER
      01017  0074 00 4 00010         TSX     .DLETE,4
      01020  0 00000 0 01532         PZE     FILEN1
      01021 -0 00000 0 01022         MZE     *+1
      01022  0502 00 0 01337         CLS     BUFEND
      01023  0402 00 0 01535         SUB     4.BF
      01024  0400 00 0 01336         ADD     BUFSIZ
      01025  0560 00 0 01536         LDQ     9.RW
      01026  0040 00 0 01032         TLQ     *+4
      01027  0100 00 0 01143         TZE     RANGER
      01030 -0120 00 0 01143         TMI     RANGER
      01031  0131 00 0 00000         XCA
      01032  0131 00 0 00000         XCA
      01033  0601 00 0 01544         STO     TRYSIZ
      01034  0767 00 0 00022         ALS     18
      01035  0622 00 0 01067         STD     COPY3
      01036  0622 00 0 01073         STD     COPY4
      01037  0534 00 2 01337         LXA     BUFEND,2
      01040  1 00001 2 01041         TXI     *+1,2,1
      01041  0634 00 2 01061         SXA     COPY1,2
      01042  1 00660 2 01043         TXI     *+1,2,BFUNIT
      01043 -0634 00 2 01061         SXD     COPY1,2
      01044  1 00660 2 01045         TXI     *+1,2,BFUNIT
      01045  0634 00 2 01064         SXA     COPY2,2
      01046  1 00660 2 01047         TXI     *+1,2,BFUNIT
      01047 -0634 00 2 01064         SXD     COPY2,2
      01050  1 00660 2 01051         TXI     *+1,2,BFUNIT
      01051  0634 00 2 01067         SXA     COPY3,2
      01052  0634 00 2 01073         SXA     COPY4,2
      01053  0634 00 2 01102         SXA     COPY7,2
      01054  0754 00 2 00000         PXA     ,2
      01055  0400 00 0 01544         ADD     TRYSIZ
      01056  0074 00 4 01552         TSX     SETMEM,4
      01057  0074 00 4 00001         TSX     .SEEK,4
      01060  0 00000 0 01530         PZE     FILEN
      01061  0 00000 0 00000  COPY1  PZE     **,,**
      01062  0074 00 4 00005         TSX     .ASIGN,4
      01063  1 00000 0 01532         PON     FILEN1
      01064  0 00000 0 00000  COPY2  PZE     **,,**
      01065  0074 00 4 00002  COPY5  TSX     .READK,4
      01066  0 00000 0 01530         PZE     FILEN
      01067  0 00000 0 00000  COPY3  PZE     **,,**
      01070  0 00000 0 01075         PZE     COPY6
      01071  0074 00 4 00006         TSX     .WRITE,4
      01072  0 00000 0 01532         PZE     FILEN1
1                                                                                                PAGE 12

      01073  0 00000 0 00000  COPY4  PZE     **,,**
      01074  0020 00 0 01065         TRA     COPY5
      01075  0100 00 0 01103  COPY6  TZE     COPY8
      01076  0767 00 0 00022         ALS     18
      01077  0622 00 0 01102         STD     COPY7
      01100  0074 00 4 00006         TSX     .WRITE,4
      01101  0 00000 0 01532         PZE     FILEN1
      01102  0 00000 0 00000  COPY7  PZE     **,,**
      01103  0074 00 4 00007  COPY8  TSX     .FILE,4
      01104  0 00000 0 01532         PZE     FILEN1
      01105 -0500 00 0 01337         CAL     BUFEND
      01106  0400 00 0 01556         ADD     =1
      01107  0074 00 4 01552         TSX     SETMEM,4
      01110  0774 00 4 00000  COPYX4 AXT     **,4
      01111  0020 00 4 00003         TRA     3,4

      01112  0534 00 1 01335  ISET   LXA     SEKEND,1
      01113 -0500 60 4 00001         CAL*    1,4
      01114 -0340 00 1 01434         LAS     NAME,1
      01115  0020 00 0 01117         TRA     *+2
      01116  0020 00 0 01123         TRA     *+5
      01117  2 00001 1 01114         TIX     *-3,1,1
      01120 -0754 00 0 00000         ZAC
      01121  0600 00 0 01333         STZ     I
      01122  0020 00 2 00001         TRA     1,2
      01123  0634 00 1 01333         SXA     I,1
      01124  0500 00 0 01556         CLA     =1
      01125  0020 00 2 00001         TRA     1,2

      01126  0634 00 4 01132  FSTAT  SXA     *+4,4
      01127  0074 00 4 00012         TSX     .FSTAT,4
      01130  0 00000 0 01530         PZE     FILEN
      01131 -0 00000 0 01135         MZE     *+4
      01132  0774 00 4 00000         AXT     **,4
      01133  0602 00 0 01537         SLW     STAT
      01134  0020 00 2 00001         TRA     1,2
      01135  0322 00 0 01557         ERA     =5
      01136  0100 00 0 01132         TZE     *-4
      01137  0074 00 4 00012         TSX     .FSTAT,4
      01140  0 00000 0 01530         PZE     FILEN
      01141  0 00000 0 00013         PZE     $READY
      01142  0020 00 0 01132         TRA     *-8

      01143  0500 00 0 01562  RANGER CLA     =HRANGE
      01144  0601 00 0 01273         STO     COM1-1
      01145  0500 00 4 00001         CLA     1,4
      01146  0621 00 0 01172         STA     R1
      01147  0074 00 4 00014         TSX     $PRINT,4
      01150  3 00000 0 01274         PAR     COM1
      01151  0600 00 0 77461         STZ     LIST
      01152  0074 00 4 00015         TSX     $ADDCOM,4
      01153  3 00000 0 01302         PAR     COM4
      01154  0534 00 1 01333         LXA     I,1
      01155  0500 00 1 01434         CLA     NAME,1
      01156  0601 00 0 01540         STO     TEMP
      01157  0074 00 4 00016         TSX     $ADDNAM,4
1                                                                                                PAGE 13

      01160  3 00000 0 01540         PAR     TEMP
      01161  0074 00 4 00015         TSX     $ADDCOM,4
      01162  3 00000 0 01276         PAR     COM2
      01163  0500 00 1 01376         CLA     SIZE,1
      01164  0601 00 0 01540         STO     TEMP
      01165  0074 00 4 00017         TSX     $ADDNUM,4
      01166  3 00000 0 01540         PAR     TEMP
      01167  0074 00 4 00015         TSX     $ADDCOM,4
      01170  3 00000 0 01300         PAR     COM3
      01171  0074 00 4 00017         TSX     $ADDNUM,4
      01172  3 00000 0 00000  R1     PAR     **
      01173  0074 00 4 00020         TSX     $CRTYPE,4
      01174  0020 00 0 01236         TRA     LISTER

      01175  0500 00 0 01563  SEEKER CLA     =HSEEK
      01176  0601 00 0 01273         STO     COM1-1
      01177  0074 00 4 00014         TSX     $PRINT,4
      01200  3 00000 0 01274         PAR     COM1
      01201  0020 00 0 01236         TRA     LISTER

      01202  0074 00 4 00014  FULLER TSX     PRINT,4
      01203  3 00000 0 01332         PAR     COM8
      01204  0020 00 0 01236         TRA     LISTER

      01205  0600 00 0 77461  GONER  STZ     LIST
      01206  0074 00 4 00015         TSX     ADDCOM,4
      01207  3 00000 0 01306         PAR     COM6
      01210  0074 00 4 00016         TSX     ADDNAM,4
      01211  3 00000 0 01530         PAR     FILEN
      01212  0074 00 4 00015         TSX     ADDCOM,4
      01213  3 00000 0 01304         PAR     COM5
      01214  0074 00 4 00016         TSX     ADDNAM,4
      01215  3 00000 0 01531         PAR     FILEN+1
      01216  0074 00 4 00015         TSX     ADDCOM,4
      01217  3 00000 0 01316         PAR     COM7
      01220  0074 00 4 00020         TSX     CRTYPE,4
      01221  0074 00 4 00013         TSX     READY,4

      01222  0500 00 0 01561  NAMER  CLA     =HNAME
      01223  0601 00 0 01273         STO     COM1-1
      01224  0500 00 4 00001         CLA     1,4
      01225  0621 00 0 01234         STA     N1
      01226  0074 00 4 00014         TSX     $PRINT,4
      01227  3 00000 0 01274         PAR     COM1
      01230  0600 00 0 77461         STZ     LIST
      01231  0074 00 4 00015         TSX     $ADDCOM,4
      01232  3 00000 0 01302         PAR     COM4
      01233  0074 00 4 00016         TSX     $ADDNAM,4
      01234  3 00000 0 00000  N1     PAR     **
      01235  0074 00 4 00020         TSX     $CRTYPE,4

      01236  0534 00 1 01335  LISTER LXA     SEKEND,1
      01237 -0634 00 1 01241         SXD     LIST1,1
      01240  0774 00 1 00001         AXT     1,1
      01241  3 00000 1 00013  LIST1  TXH     $READY,1,**
      01242  0600 00 0 77461         STZ     LIST
1                                                                                                PAGE 14

      01243  0600 00 0 01540         STZ     TEMP
      01244  0634 00 1 01540         SXA     TEMP,1
      01245  0074 00 4 00017         TSX     $ADDNUM,4
      01246  3 00000 0 01540         PAR     TEMP
      01247  0074 00 4 00015         TSX     $ADDCOM,4
      01250  3 00000 0 01304         PAR     COM5
      01251  0500 00 1 01434         CLA     NAME,1
      01252  0601 00 0 01540         STO     TEMP
      01253  0074 00 4 00016         TSX     $ADDNAM,4
      01254  3 00000 0 01540         PAR     TEMP
      01255  0074 00 4 00015         TSX     ADDCOM,4
      01256  3 00000 0 01304         PAR     COM5
      01257  0500 00 1 01376         CLA     SIZE,1
      01260  0601 00 0 01540         STO     TEMP
      01261  0074 00 4 00017         TSX     $ADDNUM,4
      01262  3 00000 0 01540         PAR     TEMP
      01263  0074 00 4 00020         TSX     $CRTYPE,4
      01264  1 00001 1 01241         TXI     LIST1,1,1

      01265  314527623360            BCI     7,INGS. T LISTCONSULDOW.  IN WINERROR ******
      01266  636043316263
      01267  234645626443
      01270  244666336060
      01271  314560663145
      01272  255151465160
      01273  545454545454
      01274 +000000000051     COM1   DEC     41
      01275  736231712513            BCI     1,,SIZE=
      01276 +000000000006     COM2   DEC     6
      01277  732151270113            BCI     1,,ARG1=
      01300 +000000000006     COM3   DEC     6
      01301  452144251360            BCI     1,NAME=
      01302 +000000000005     COM4   DEC     5
      01303  606060606060            BCI     1,
      01304 +000000000001     COM5   DEC     1
      01305  263143256060            BCI     1,FILE
      01306 +000000000005     COM6   DEC     5
      01307  314533606060            BCI     7,IN.   RY AGA'T.  T DOESNT, BUTD EXIS SHOUL
      01310  517060212721
      01311  146333606063
      01312  602446256245
      01313  637360226463
      01314  246025673162
      01315  606230466443
      01316 +000000000047     COM7   DEC     39
      01317  243360606060            BCI     1,D.
      01320  512145632525            BCI     1,RANTEE
      01321  466360276421            BCI     1,OT GUA
      01322  652551706045            BCI     1,VERY N
      01323  606051252346            BCI     1,  RECO
      01324  646263252433            BCI     1,USTED.
      01325  626025673021            BCI     1,S EXHA
      01326  242264276031            BCI     1,DBUG I
      01327  603145604421            BCI     1, IN MA
      01330  606247212325            BCI     1, SPACE
      01331  226426262551            BCI     1,BUFFER
1                                                                                                PAGE 15

      01332 +000000000076     COM8   DEC     62
                       00017  N      EQU     15
      01333  0 00000 0 00000  I      PZE
      01334  0 00000 0 00017  SEKSIZ PZE     N
      01335  0 00000 0 00000  SEKEND PZE
      01336  0 00000 0 77776  BUFSIZ PZE     BFSIZ
      01337  0 00000 0 00000  BUFEND PZE
      01357                   START  BES     N
      01376                   SIZE   BES     N
      01415                   INTERN BES     N
      01434                   NAME   BES     N
      01453                   CHANGE BES     N
      01472                   PRIMAR BES     N
      01511                   SECOND BES     N
      01530                   FSTART BES     N
      01530  545454545454     FILEN  BCI     2,************
      01531  545454545454
      01532  545454545454     FILEN1 BCI     2,************
      01533  545454545454
      01534  0 00000 0 03301  4.BF.1 PZE     4*BFUNIT+1
      01535  0 00000 0 03300  4.BF   PZE     4*BFUNIT
      01536  0 00000 0 10131  9.RW   PZE     9*RWUNIT
      01537  0 00000 0 00000  STAT   PZE
      01540  0 00000 0 00000  TEMP   PZE
      01541  0 00000 0 00000  TSIZE  PZE
      01542  746325444734     TEMFIL BCI     2,(TEMP)(MDBG)
      01543  744424222734
      01544  0 00000 0 00000  TRYSIZ PZE
      01545  0 00000 0 00000  NEWBEG PZE
      01546  0 00000 0 00000  OLDFST PZE
      01547  0 00000 0 00000  NEWPAT PZE
      01550  0 00000 0 00000  TRUSIZ PZE
      01551  0 00000 0 00000  OLDDUN PZE
                       77461  LIST   COMMON  1

                              CTSS   MACRO   A
                                     IRP     A
                              A      TIA     *+1
                                     BCI     1,A
                                     IRP
                              CTSS   END

      01552                          CTSS    (SETMEM,GETMEM)

                                     END

        LITERALS
      01556  000000000001
      01557  000000000005
      01560  000000777777
      01561  452144256060
      01562  512145272560
      01563  622525426060
1                                                                                                PAGE 1
                        POST PROCESSOR ASSEMBLY DATA

       77460 IS THE LAST LOCATION NOT USED BY THIS PROGRAM
       1564 IS THE FIRST LOCATION NOT USED BY THIS PROGRAM

0REFERENCES TO DEFINED SYMBOLS
       1333      I    23,   40,   57,  134,  221,  251,  442,  445,  452,  743,  774, 1121, 1123, 1154
         17      N  1333, 1334, 1340, 1357, 1376, 1415, 1434, 1453, 1472, 1511
       1234     N1  1225
       1172     R1  1146
       1535   4.BF   550, 1023
       1536   9.RW   552, 1025
       1274   COM1  1144, 1150, 1176, 1200, 1223, 1227
       1276   COM2  1162
       1300   COM3  1170
       1302   COM4  1153, 1232
       1304   COM5  1213, 1250, 1256
       1306   COM6  1207
       1316   COM7  1217
       1332   COM8  1203
        777   COPY     0
       1112   ISET   237,  244,  273,  460,  516
      77461   LIST  1151, 1205, 1230, 1242, 1552
       1434   NAME   253,  310,  756,  757, 1114, 1155, 1251
       1376   SIZE    30,   33,   45,   51,   70,  117,  121,  141,  205,  207,  256,  324,  352,  363,  447,  464,  475
                     532,  607,  736,  752,  753, 1163, 1257
       1537   STAT   316,  320,  334,  342,  345,  534,  545, 1015, 1133
       1540   TEMP  1156, 1160, 1164, 1166, 1243, 1244, 1246, 1252, 1254, 1260, 1262
         57   WDEL     0,  740
         23   WGET     0
        134   WINS     0
         40   WSET     0
      77776  BFSIZ    23, 1336
       1061  COPY1  1041, 1043
       1064  COPY2  1045, 1047
       1067  COPY3  1035, 1051
       1073  COPY4  1036, 1052
       1065  COPY5  1074
       1075  COPY6  1070
       1102  COPY7  1053, 1077
       1103  COPY8  1075
       1530  FILEN   302,  305,  350,  411,  422,  426,  432,  467,  471,  510,  513,  526,  530,  537,  614,  636,  640
                     644, 1003, 1005, 1060, 1066, 1130, 1140, 1211, 1215
       1126  FSTAT   315,  531, 1014
       1205  GONER   323, 1016
          4  .DUMP   504
          7  .FILE   627, 1103
          0  .LOAD   347
          1  .SEEK   410,  613, 1057
       1241  LIST1  1237, 1264
       1222  NAMER   245,  274,  461
         14  PRINT  1147, 1177, 1202, 1226
         13  READY  1141, 1221, 1241
       1357  START    34,   52,  102,  130,  132,  170,  215,  217,  225,  255,  312,  472,  601,  750,  751
       1541  TSIZE   737,  742
        105  WDEL1    76
1                                                                                                PAGE 2
                        POST PROCESSOR ASSEMBLY DATA

        106  WDEL2   100,  110
        126  WDEL3   124,  133
        110  WDEL4   103
        615  WDIT1   564,  566
        623  WDIT2   570,  572
        642  WDIT3   626
        645  WDIT4   561,  574,  726
        650  WDIT5   646
        651  WDIT6   647
        671  WDIT7   652
        541  WDIT8   533
        670  WDIT9   575,  662
        460  WDUMP     0
        176  WINS1   160,  201
        177  WINS2   165
        201  WINS3   174
        214  WINS4   212,  220
        221  WINS5   214
        233  WINS6   226
        232  WINS7   231,  235
        202  WINS8   172
        237  WSEEK     0
        315  WSET1
        327  WSET3   321
        356  WSET4   330
        441  WSET5   326
        262  WSETT   267
        445  WSIZE     0
       1534 4.BF.1   153,  335,  372
         15 ADDCOM  1152, 1161, 1167, 1206, 1212, 1216, 1231, 1247, 1255
         16 ADDNAM  1157, 1210, 1214, 1233, 1253
         17 ADDNUM  1165, 1171, 1245, 1261
        660 BFUNIT    23,  403,  405,  565,  567,  571,  573, 1042, 1044, 1046, 1050, 1534, 1535
       1337 BUFEND    74,  114,  116,  150,  156,  166,  202,  204,  254,  265,  311,  331,  341,  353,  371,  376,  434
                     436,  547,  562, 1022, 1037, 1105
       1336 BUFSIZ   152,  336,  373,  551, 1024
       1453 CHANGE    50,  122,  210,  314,  454,  523,  760,  761
       1110 COPYX4   777
         20 CRTYPE  1173, 1220, 1235, 1263
       1532 FILEN1  1011, 1013, 1020, 1063, 1072, 1101, 1104
       1530 FSTART   325,  354,  357,  462,  541,  604,  766,  767
       1202 FULLER   155,  243,  272,  340,  375
       1554 GETMEM   263
       1415 INTERN   257,  313,  521,  754,  755
          5 .ASIGN   621, 1062
         10 .DLETE   501,  507,  536,  616,  635, 1017
          3 .ENDRD   431
         12 .FSTAT  1127, 1137
          2 .READK   421,  425,  643, 1065
         11 .RENAM   512,  637
          6 .WRITE   666,  716,  732, 1071, 1100
       1236 LISTER  1174, 1201, 1204
       1545 NEWBEG   603,  673,  705,  706
       1547 NEWPAT   610,  633,  671,  677,  714,  715
        736 NODUMP   522,  524,  535,  540,  544,  546,  641
1                                                                                                PAGE 3
                        POST PROCESSOR ASSEMBLY DATA

       1551 OLDDUN   642,  660,  676,  710,  711,  722,  730
       1546 OLDFST   606,  631,  651,  654,  664,  665
       1472 PRIMAR   303,  466,  525,  762,  763
       1143 RANGER    26,   27,   32,   43,   44,   47,   62,   63,   66,   73,  137,  140,  144,  146,  147,  360,  361
                     364,  365,  424,  430,  463,  465,  554,  555,  632,  634, 1027, 1030
        721 RWUNIT    23, 1536
       1511 SECOND   306,  470,  527,  764,  765
       1175 SEEKER    24,   41,   60,  135,  446,  453
       1335 SEKEND   123,  211,  241,  246,  250,  270,  275,  441,  745,  771,  773, 1112, 1236
       1334 SEKSIZ   242,  271
       1552 SETMEM   112,  163,  344,  407,  440,  600, 1056, 1107
       1542 TEMFIL   502,  505,  513,  617,  622,  630,  640,  667,  717,  733
       1550 TRUSIZ   612,  624,  650,  653,  675,  721
       1544 TRYSIZ   557,  560,  577,  611,  625, 1033, 1055
        241 WALLOT     0
        452 WCHANG     0
        721 WDIT10   672
        720 WDIT11   674,  704
        624 WDIT12   723,  735
        747 WDIT13   746,  770
        771 WDIT14   747
        734 WDIT15   725,  731
        516 WDITCH     0
        775 WDITX4   520
        506 WDUMP1   474,  477
        514 WDUMP2   500
        472 WDUMPA   543
        351 WSET3A   333,  346
        427 WSET4A   370,  400
        412 WSET4B   402,  404
        425 WSET4D   417
        423 WSET4F   420
        401 WSET4G   367
        436 WSET5A   355
        261 WSETUP     0
        443 WSETX4   261,  266,  413,  433

0 NO ERROR IN ABOVE ASSEMBLY.
1     MAD PROGRAM LISTING ... ... ...                 FILE  ADDCOM   MAD            02/07/68    1956.9
-
                  EXTERNAL FUNCTION(COM)                                                          *001 LM00001
                  NORMAL MODE IS INTEGER                                                          *002 LM00002
                  PROGRAM COMMON LIST(84)                                                         *003 LM00003
                                                                                                       LM00004
                 ADD COMMENT TO OUTPUT LIST                                                            LM00005
                                                                                                       LM00006
                  ENTRY TO ADDCOM.                                                                *004 LM00007
                  COUNT=COM                                                                       *005 LM00008
                                                                                                       LM00009
                  WHENEVER COUNT.L.1.OR.COUNT+LIST.G.83                                           *006 LM00010
                  PRINT.(COM1)                                                                    *007 LM00011
                  VECTOR VALUES COM1=32,$ADDCOM ERROR.  CONSULT LISTINGS$                         *008 LM00012
                  READY.                                                                          *009 LM00013
                  END OF CONDITIONAL                                                              *010 LM00014
                                                                                                       LM00015
                  THROUGH ADD,FOR WORD=1,1,0B                                                     *011 LM00016
                  BCD=COM(WORD)                                                                   *012 LM00017
                  THROUGH ADD, FOR CHAR=1,1,CHAR.G.6                                              *013 LM00018
                  WHENEVER COUNT.LE.0,FUNCTION RETURN                                             *014 LM00019
                  LIST=LIST+1                                                                     *015 LM00020
                  LIST(LIST)=BCD.A.77K10.V.$0$                                                    *016 LM00021
                  BCD=BCD.LS.6                                                                    *017 LM00022
      ADD         COUNT=COUNT-1                                                                   *018 LM00023
                  END OF FUNCTION                                                                 *019 LM00024
1MAD PROGRAM,TYPE NOV 1963      (ALL NUMBERS ARE OCTAL)
0TOTAL LOCATIONS   00141 TRANSFER VECTOR LENGTH  00003 PROGRAM BEGINS    00026 FIRST UNUSED COMMON/ERASABLE  77334
0 PROGRAM IS AN EXTERNAL FUNCTION.   THE FOLLOWING ARE ENTRIES
      ADDCOM 00027   0
0VARIABLE STORAGE (A=ARRAY,C=COMMON,E=ERASABLE,DIGIT=MODE)
      ADD    00003   4        CHAR   00005   1        COUNT  00015   1        LIST   77461 AC1        WORD   00016   1
      BCD    00004   1        COM1   00014 A 1
0FUNCTION DICTIONARY
      EXIT   00000   1        PRINT  00001   1        READY  00002   1
0ABSOLUTE CONSTANTS
 00023 +006060606060     00025 -370000000000     00021 +000000000006     00017 +000000000000     00022 +000000000123
 00020 +000000000001     00024 +233000000000
0PROGRAM
                 EXTERNAL FUNCTION(COM)                                             001  LM00001
                 NORMAL MODE IS INTEGER                                             002  LM00002
                 PROGRAM COMMON LIST(84)                                            003  LM00003
                 ENTRY TO ADDCOM.                                                   004  LM00007
 00026 TRA +0 02000 0 00031    00027 SXA +0 63400 2 00124    00030 TSX +0 07400 2 00124
                 COUNT=COM                                                          005  LM00008
 00031 CLA +0 50000 0 00000    00032 STO +0 60100 0 00015
                 WHENEVER COUNT.L.1.OR.COUNT+LIST.G.83                              006  LM00010
 00033 CLA +0 50000 0 00015    00034 ADD +0 40000 0 77461    00035 SUB +0 40200 0 00022    00036 TZE +0 10000 0 00040
 00037 TPL +0 12000 0 00044    00040 CLA +0 50000 0 00015    00041 SUB +0 40200 0 00020    00042 TZE +0 10000 0 00047
 00043 TPL +0 12000 0 00047
                 PRINT.(COM1)                                                       007  LM00011
 00044 TSX +0 07400 4 00001    00045 TXH +3 00000 0 00014
                 VECTOR VALUES COM1=32,$ADDCOM ERROR.  CONSULT LISTINGS$            008  LM00012
 00006     -2 26060 6 06060    00007     +3 16263 3 14527    00010     -2 26443 6 36043    00011     +3 36060 2 34645
 00012     -2 02551 5 14651    00013     +2 12424 2 34644    00014     +0 00000 0 00040
                 READY.                                                             009  LM00013
 00046 TSX +0 07400 4 00002
                 END OF CONDITIONAL                                                 010  LM00014
                 THROUGH ADD,FOR WORD=1,1,0B                                        011  LM00016
 00047 CLA +0 50000 0 00020    00050 STO +0 60100 0 00016    00051 TRA +0 02000 0 00055    00052 CLA +0 50000 0 00016
 00053 ADD +0 40000 0 00020    00054 STO +0 60100 0 00016    00055 ZET +0 52000 0 00017    00056 TRA +0 02000 0 00123
                 BCD=COM(WORD)                                                      012  LM00017
 00057 LXA +0 53400 2 00016    00060 CLA +0 50000 2 00000    00061 STO +0 60100 0 00004
                 THROUGH ADD, FOR CHAR=1,1,CHAR.G.6                                 013  LM00018
 00062 CLA +0 50000 0 00020    00063 STO +0 60100 0 00005    00064 TRA +0 02000 0 00070    00065 CLA +0 50000 0 00005
 00066 ADD +0 40000 0 00020    00067 STO +0 60100 0 00005    00070 CLA +0 50000 0 00005    00071 SUB +0 40200 0 00021
 00072 TZE +0 10000 0 00074    00073 TPL +0 12000 0 00122
                 WHENEVER COUNT.LE.0,FUNCTION RETURN                                014  LM00019
 00074 CLA +0 50000 0 00015    00075 SUB +0 40200 0 00017    00076 TZE +0 10000 0 00100    00077 TPL +0 12000 0 00101
 00100 TRA +0 02000 0 00133
                 LIST=LIST+1                                                        015  LM00020
 00101 CLA +0 50000 0 77461    00102 ADD +0 40000 0 00020    00103 STO +0 60100 0 77461
                 LIST(LIST)=BCD.A.77K10.V.$0$                                       016  LM00021
 00104 CAL -0 50000 0 00004    00105 ANA -0 32000 0 00025    00106 ORA -0 50100 0 00023    00107 LXA +0 53400 1 77461
 00110 SLW +0 60200 1 77461
                 BCD=BCD.LS.6                                                       017  LM00022
 00111 CAL -0 50000 0 00021    00112 STA +0 62100 0 00114    00113 CAL -0 50000 0 00004    00114 ALS +0 76700 0 00000
 00115 SLW +0 60200 0 00004
      ADD        COUNT=COUNT-1                                                      018  LM00023
 00116 CLA +0 50000 0 00015    00117 SUB +0 40200 0 00020    00120 STO +0 60100 0 00015    00121 TRA +0 02000 0 00065
 00122 TRA +0 02000 0 00052
                 END OF FUNCTION                                                    019  LM00024
 00123 TSX +0 07400 4 00000    00124 TXH +3 00000 0 00000    00125 SXD -0 63400 1 00124    00126 SXA +0 63400 4 00133
 00127 CLA +0 50000 4 00001    00130 STA +0 62100 0 00031    00131 STA +0 62100 0 00060    00132 TRA +0 02000 2 00001
 00133 AXT +0 77400 4 00000    00134 LXA +0 53400 2 00124    00135 LXD -0 53400 1 00124    00136 TRA +0 02000 4 00001
1     MAD PROGRAM LISTING ... ... ...                 FILE  ADDVAR   MAD            02/07/68    1957.6
-
                  EXTERNAL FUNCTION(NAME,SUBIN)                                                   *001 LM00001
                  NORMAL MODE IS INTEGER                                                          *002 LM00002
                  PROGRAM COMMON LIST(84)                                                         *003 LM00003
                  DIMENSION SUBS(15)                                                              *004 LM00004
                                                                                                       LM00005
                 ADD VARIABLE NAME TO OUTPUT LIST                                                      LM00006
                                                                                                       LM00007
                  ENTRY TO ADDVAR.                                                                *005 LM00008
                  LINSUB=SUBIN                                                                    *006 LM00009
                  ADDNAM.(NAME)                                                                   *007 LM00010
                  JUNK=SYMTAB.(NAME)                                                              *008 LM00011
                  WHENEVER JUNK.G.0,FUNCTION RETURN                                               *009 LM00012
                                                                                                       LM00013
                  LIST=LIST+1                                                                     *010 LM00014
                  LIST(LIST)=$($                                                                  *011 LM00015
                  DIMVEC=(JUNK.A.77777K6).RS.18                                                   *012 LM00016
                                                                                                       LM00017
                  WHENEVER DIMVEC.E.0                                                             *013 LM00018
      LINEAR      ADDNUM.(LINSUB)                                                                 *014 LM00019
      FINISH      LIST=LIST+1                                                                     *015 LM00020
                  LIST(LIST)=$)$                                                                  *016 LM00021
                  FUNCTION RETURN                                                                 *017 LM00022
                  END OF CONDITIONAL                                                              *018 LM00023
                                                                                                       LM00024
                  COUNT=VAR.(DIMVEC)                                                              *019 LM00025
                  WHENEVER COUNT.G.15.OR.COUNT.L.2,TRANSFER TO LINEAR                             *020 LM00026
                                                                                                       LM00027
                  THROUGH GETDIM, FOR SUBS=1,1,SUBS.G.COUNT                                       *021 LM00028
      GETDIM      SUBS(SUBS)=VAR.(DIMVEC-SUBS)                                                    *022 LM00029
                                                                                                       LM00030
                  MULT=SUBS(2)                                                                    *023 LM00031
                  THROUGH PROD, FOR SUBS=3,1,SUBS.G.COUNT                                         *024 LM00032
      PROD        MULT=MULT*SUBS(SUBS)                                                            *025 LM00033
                  LINSUB=LINSUB-SUBS(1)                                                           *026 LM00034
                  SUBS=1                                                                          *027 LM00035
      OUTSUB      NUM=LINSUB/MULT                                                                 *028 LM00036
                  ADDNUM.(NUM+1)                                                                  *029 LM00037
                  LINSUB=LINSUB-NUM*MULT                                                          *030 LM00038
                  WHENEVER SUBS.E.COUNT,TRANSFER TO FINISH                                        *031 LM00039
                  MULT=MULT/SUBS(SUBS+1)                                                          *032 LM00040
                  SUBS=SUBS+1                                                                     *033 LM00041
                  LIST=LIST+1                                                                     *034 LM00042
                  LIST(LIST)=$,$                                                                  *035 LM00043
                  TRANSFER TO OUTSUB                                                              *036 LM00044
                  END OF FUNCTION                                                                 *037 LM00045
1MAD PROGRAM,TYPE NOV 1963      (ALL NUMBERS ARE OCTAL)
0TOTAL LOCATIONS   00276 TRANSFER VECTOR LENGTH  00005 PROGRAM BEGINS    00052 FIRST UNUSED COMMON/ERASABLE  77334
0 PROGRAM IS AN EXTERNAL FUNCTION.   THE FOLLOWING ARE ENTRIES
      ADDVAR 00053   0
0VARIABLE STORAGE (A=ARRAY,C=COMMON,E=ERASABLE,DIGIT=MODE)
      COUNT  00011   1        GETDIM 00005   4        LINSUB 00014   1        NUM    00016   1        PROD   00005   4
      DIMVEC 00012   1        JUNK   00013   1        LIST   77461 AC1        OUTSUB 00010   4        SUBS   00036 A 1
      FINISH 00006   4        LINEAR 00007   4        MULT   00015   1
0FUNCTION DICTIONARY
      ADDNAM 00000   1        ADDNUM 00001   1        EXIT   00002   1        SYMTAB 00003   1        VAR    00004   1
0ABSOLUTE CONSTANTS
 00050 -336060606060     00042 +000000000003     00043 +000000000017     00041 +000000000002     00047 +346060606060
 00044 +000000000022     00045 +077777000000     00051 -346060606060     00037 +000000000000     00040 +000000000001
 00046 +233000000000
0STATEMENT DICTIONARY
 00006 TXL -300117000114       00007 TXL -300114000112       00010 TXL -300214000207
0PROGRAM
                 EXTERNAL FUNCTION(NAME,SUBIN)                                      001  LM00001
                 NORMAL MODE IS INTEGER                                             002  LM00002
                 PROGRAM COMMON LIST(84)                                            003  LM00003
                 DIMENSION SUBS(15)                                                 004  LM00004
                 ENTRY TO ADDVAR.                                                   005  LM00008
 00052 TRA +0 02000 0 00055    00053 SXA +0 63400 2 00256    00054 TSX +0 07400 2 00256
                 LINSUB=SUBIN                                                       006  LM00009
 00055 CLA +0 50000 0 00000    00056 STO +0 60100 0 00014
                 ADDNAM.(NAME)                                                      007  LM00010
 00057 TSX +0 07400 4 00000    00060 TXH +3 00000 0 00000
                 JUNK=SYMTAB.(NAME)                                                 008  LM00011
 00061 TSX +0 07400 4 00003    00062 TXH +3 00000 0 00000    00063 STO +0 60100 0 00013
                 WHENEVER JUNK.G.0,FUNCTION RETURN                                  009  LM00012
 00064 CLA +0 50000 0 00013    00065 SUB +0 40200 0 00037    00066 TZE +0 10000 0 00071    00067 TMI -0 12000 0 00071
 00070 TRA +0 02000 0 00267
                 LIST=LIST+1                                                        010  LM00014
 00071 CLA +0 50000 0 77461    00072 ADD +0 40000 0 00040    00073 STO +0 60100 0 77461
                 LIST(LIST)=$($                                                     011  LM00015
 00074 LXA +0 53400 1 77461    00075 CLA +0 50000 0 00051    00076 STO +0 60100 1 77461
                 DIMVEC=(JUNK.A.77777K6).RS.18                                      012  LM00016
 00077 CAL -0 50000 0 00013    00100 ANA -0 32000 0 00045    00101 SLW +0 60200 0 00273    00102 CAL -0 50000 0 00044
 00103 STA +0 62100 0 00105    00104 CAL -0 50000 0 00273    00105 LGR -0 76500 0 00000    00106 SLW +0 60200 0 00012
                 WHENEVER DIMVEC.E.0                                                013  LM00018
 00107 CLA +0 50000 0 00012    00110 SUB +0 40200 0 00037    00111 TNZ -0 10000 0 00123
      LINEAR     ADDNUM.(LINSUB)                                                    014  LM00019
 00112 TSX +0 07400 4 00001    00113 TXH +3 00000 0 00014
      FINISH     LIST=LIST+1                                                        015  LM00020
 00114 CLA +0 50000 0 77461    00115 ADD +0 40000 0 00040    00116 STO +0 60100 0 77461
                 LIST(LIST)=$)$                                                     016  LM00021
 00117 LXA +0 53400 1 77461    00120 CLA +0 50000 0 00047    00121 STO +0 60100 1 77461
                 FUNCTION RETURN                                                    017  LM00022
 00122 TRA +0 02000 0 00267
                 END OF CONDITIONAL                                                 018  LM00023
                 COUNT=VAR.(DIMVEC)                                                 019  LM00025
 00123 TSX +0 07400 4 00004    00124 TXH +3 00000 0 00012    00125 STO +0 60100 0 00011
                 WHENEVER COUNT.G.15.OR.COUNT.L.2,TRANSFER TO LINEAR                020  LM00026
 00126 CLA +0 50000 0 00011    00127 SUB +0 40200 0 00041    00130 TZE +0 10000 0 00132    00131 TMI -0 12000 0 00136
 00132 CLA +0 50000 0 00011    00133 SUB +0 40200 0 00043    00134 TZE +0 10000 0 00137    00135 TMI -0 12000 0 00137
 00136 TRA +0 02000 0 00007
                 THROUGH GETDIM, FOR SUBS=1,1,SUBS.G.COUNT                          021  LM00028
 00137 CLA +0 50000 0 00040    00140 STO +0 60100 0 00036    00141 TRA +0 02000 0 00145    00142 CLA +0 50000 0 00036
 00143 ADD +0 40000 0 00040    00144 STO +0 60100 0 00036    00145 CLA +0 50000 0 00036    00146 SUB +0 40200 0 00011
 00147 TZE +0 10000 0 00151    00150 TPL +0 12000 0 00161
      GETDIM     SUBS(SUBS)=VAR.(DIMVEC-SUBS)                                       022  LM00029
 00151 CLA +0 50000 0 00012    00152 SUB +0 40200 0 00036    00153 STO +0 60100 0 00273    00154 TSX +0 07400 4 00004
 00155 TXH +3 00000 0 00273    00156 LXA +0 53400 1 00036    00157 STO +0 60100 1 00036    00160 TRA +0 02000 0 00142
                 MULT=SUBS(2)                                                       023  LM00031
 00161 CLA +0 50000 0 00034    00162 STO +0 60100 0 00015
                 THROUGH PROD, FOR SUBS=3,1,SUBS.G.COUNT                            024  LM00032
 00163 CLA +0 50000 0 00042    00164 STO +0 60100 0 00036    00165 TRA +0 02000 0 00171    00166 CLA +0 50000 0 00036
 00167 ADD +0 40000 0 00040    00170 STO +0 60100 0 00036    00171 CLA +0 50000 0 00036    00172 SUB +0 40200 0 00011
 00173 TZE +0 10000 0 00175    00174 TPL +0 12000 0 00202
      PROD       MULT=MULT*SUBS(SUBS)                                               025  LM00033
 00175 LXA +0 53400 2 00036    00176 LDQ +0 56000 0 00015    00177 MPY +0 20000 2 00036    00200 STQ -0 60000 0 00015
 00201 TRA +0 02000 0 00166
                 LINSUB=LINSUB-SUBS(1)                                              026  LM00034
 00202 CLA +0 50000 0 00014    00203 SUB +0 40200 0 00035    00204 STO +0 60100 0 00014
                 SUBS=1                                                             027  LM00035
 00205 CLA +0 50000 0 00040    00206 STO +0 60100 0 00036
      OUTSUB     NUM=LINSUB/MULT                                                    028  LM00036
 00207 LDQ +0 56000 0 00014    00210 PXD -0 75400 0 00000    00211 LLS +0 76300 0 00000    00212 DVP +0 22100 0 00015
 00213 STQ -0 60000 0 00016
                 ADDNUM.(NUM+1)                                                     029  LM00037
 00214 CLA +0 50000 0 00016    00215 ADD +0 40000 0 00040    00216 STO +0 60100 0 00273    00217 TSX +0 07400 4 00001
 00220 TXH +3 00000 0 00273
                 LINSUB=LINSUB-NUM*MULT                                             030  LM00038
 00221 LDQ +0 56000 0 00016    00222 MPY +0 20000 0 00015    00223 XCA +0 13100 0 00000    00224 CHS +0 76000 0 00002
 00225 ADD +0 40000 0 00014    00226 STO +0 60100 0 00014
                 WHENEVER SUBS.E.COUNT,TRANSFER TO FINISH                           031  LM00039
 00227 CLA +0 50000 0 00036    00230 SUB +0 40200 0 00011    00231 TNZ -0 10000 0 00233    00232 TRA +0 02000 0 00006
                 MULT=MULT/SUBS(SUBS+1)                                             032  LM00040
 00233 CLA +0 50000 0 00036    00234 ADD +0 40000 0 00040    00235 PAX +0 73400 2 00000    00236 LDQ +0 56000 0 00015
 00237 PXD -0 75400 0 00000    00240 LLS +0 76300 0 00000    00241 DVP +0 22100 2 00036    00242 STQ -0 60000 0 00015
                 SUBS=SUBS+1                                                        033  LM00041
 00243 CLA +0 50000 0 00036    00244 ADD +0 40000 0 00040    00245 STO +0 60100 0 00036
                 LIST=LIST+1                                                        034  LM00042
 00246 CLA +0 50000 0 77461    00247 ADD +0 40000 0 00040    00250 STO +0 60100 0 77461
                 LIST(LIST)=$,$                                                     035  LM00043
 00251 LXA +0 53400 1 77461    00252 CLA +0 50000 0 00050    00253 STO +0 60100 1 77461
                 TRANSFER TO OUTSUB                                                 036  LM00044
 00254 TRA +0 02000 0 00010
                 END OF FUNCTION                                                    037  LM00045
 00255 TSX +0 07400 4 00002    00256 TXH +3 00000 0 00000    00257 SXD -0 63400 1 00256    00260 SXA +0 63400 4 00267
 00261 CLA +0 50000 4 00001    00262 STO +0 60100 0 00060    00263 STO +0 60100 0 00062    00264 CLA +0 50000 4 00002
 00265 STA +0 62100 0 00055    00266 TRA +0 02000 2 00001    00267 AXT +0 77400 4 00000    00270 LXA +0 53400 2 00256
 00271 LXD -0 53400 1 00256    00272 TRA +0 02000 4 00001
1     MAD PROGRAM LISTING ... ... ...                 FILE  ARGBCD   MAD            02/07/68    1957.7
-
                  EXTERNAL FUNCTION (N)                                                           *001 LM00001
                  NORMAL MODE IS INTEGER                                                          *002 LM00002
                  PROGRAM COMMON LIST(84),MAX,FROM(20)                                            *003 LM00003
                  VECTOR VALUES CR=556060606060K                                                  *004 LM00004
                                                                                                       LM00005
                 PUTS BCD REQUEST ARGUMENTS IN FROM.                                                   LM00006
                 N IS MAX NUMBER ALLOWED FOR GIVEN REQUEST.                                            LM00007
                                                                                                       LM00008
                  ENTRY TO ARGBCD.                                                                *005 LM00009
                  OSPACE.                                                                         *006 LM00010
                  THROUGH GET, FOR MAX=1,1,MAX.G.N                                                *007 LM00011
                  GETBCD.(FROM(MAX))                                                              *008 LM00012
                  SPACE.                                                                          *009 LM00013
      GET         WHENEVER LIST(LIST).E.CR,FUNCTION RETURN                                        *010 LM00014
                                                                                                       LM00015
                  MAX=N                                                                           *011 LM00016
                  LIST=0                                                                          *012 LM00017
                  ADDCOM.(COM1)                                                                   *013 LM00018
                  VECTOR VALUES COM1=5,$ONLY $                                                    *014 LM00019
                  ADDNUM.(N)                                                                      *015 LM00020
                  ADDCOM.(COM2)                                                                   *016 LM00021
                  VECTOR VALUES COM2=9,$ ARGUMENT$                                                *017 LM00022
                  WHENEVER N.NE.1,ADDCOM.(COM3)                                                   *018 LM00023
                  VECTOR VALUES COM3=1,$S$                                                        *019 LM00024
                  ADDCOM.(COM4)                                                                   *020 LM00025
                  VECTOR VALUES COM4=38,$ ALLOWED.  THE REST HAVE$,                               *021 LM00026
                1 $ BEEN IGNORED.$                                                                *021 LM00027
                  CRTYPE.                                                                         *022 LM00028
                  FUNCTION RETURN                                                                 *023 LM00029
                  END OF FUNCTION                                                                 *024 LM00030
1MAD PROGRAM,TYPE NOV 1963      (ALL NUMBERS ARE OCTAL)
0TOTAL LOCATIONS   00131 TRANSFER VECTOR LENGTH  00007 PROGRAM BEGINS    00033 FIRST UNUSED COMMON/ERASABLE  77306
0 PROGRAM IS AN EXTERNAL FUNCTION.   THE FOLLOWING ARE ENTRIES
      ARGBCD 00034   0
0VARIABLE STORAGE (A=ARRAY,C=COMMON,E=ERASABLE,DIGIT=MODE)
      COM1   00011 A 1        COM3   00016 A 1        CR     00027 A 1        GET    00007   4        MAX    77334  C1
      COM2   00014 A 1        COM4   00026 A 1        FROM   77333 AC1        LIST   77461 AC1
0FUNCTION DICTIONARY
      ADDCOM 00000   1        ADDNUM 00001   1        CRTYPE 00002   1        EXIT   00003   1        GETBCD 00004   1
      OSPACE 00005   1        SPACE  00006   1
0ABSOLUTE CONSTANTS
 00030 +000000000000     00031 +000000000001     00032 +233000000000
0PROGRAM
                 EXTERNAL FUNCTION (N)                                              001  LM00001
                 NORMAL MODE IS INTEGER                                             002  LM00002
                 PROGRAM COMMON LIST(84),MAX,FROM(20)                               003  LM00003
                 VECTOR VALUES CR=556060606060K                                     004  LM00004
 00027     -1 56060 6 06060
                 ENTRY TO ARGBCD.                                                   005  LM00009
 00033 TRA +0 02000 0 00036    00034 SXA +0 63400 2 00112    00035 TSX +0 07400 2 00112
                 OSPACE.                                                            006  LM00010
 00036 TSX +0 07400 4 00005
                 THROUGH GET, FOR MAX=1,1,MAX.G.N                                   007  LM00011
 00037 CLA +0 50000 0 00031    00040 STO +0 60100 0 77334    00041 TRA +0 02000 0 00045    00042 CLA +0 50000 0 77334
 00043 ADD +0 40000 0 00031    00044 STO +0 60100 0 77334    00045 CLA +0 50000 0 77334    00046 SUB +0 40200 0 00000
 00047 TZE +0 10000 0 00051    00050 TPL +0 12000 0 00066
                 GETBCD.(FROM(MAX))                                                 008  LM00012
 00051 CLA +0 50000 0 77334    00052 SUB +0 40200 0 00053    00053 TXH +3 00000 0 77333    00054 STA +0 62100 0 00056
 00055 TSX +0 07400 4 00004    00056 TXH +3 00000 0 00000
                 SPACE.                                                             009  LM00013
 00057 TSX +0 07400 4 00006
      GET        WHENEVER LIST(LIST).E.CR,FUNCTION RETURN                           010  LM00014
 00060 LXA +0 53400 1 77461    00061 CLA +0 50000 1 77461    00062 SUB +0 40200 0 00027    00063 TNZ -0 10000 0 00065
 00064 TRA +0 02000 0 00123    00065 TRA +0 02000 0 00042
                 MAX=N                                                              011  LM00016
 00066 CLA +0 50000 0 00000    00067 STO +0 60100 0 77334
                 LIST=0                                                             012  LM00017
 00070 CLA +0 50000 0 00030    00071 STO +0 60100 0 77461
                 ADDCOM.(COM1)                                                      013  LM00018
 00072 TSX +0 07400 4 00000    00073 TXH +3 00000 0 00011
                 VECTOR VALUES COM1=5,$ONLY $                                       014  LM00019
 00010     -0 64543 7 06060    00011     +0 00000 0 00005
                 ADDNUM.(N)                                                         015  LM00020
 00074 TSX +0 07400 4 00001    00075 TXH +3 00000 0 00000
                 ADDCOM.(COM2)                                                      016  LM00021
 00076 TSX +0 07400 4 00000    00077 TXH +3 00000 0 00014
                 VECTOR VALUES COM2=9,$ ARGUMENT$                                   017  LM00022
 00012     +2 54563 6 06060    00013     -2 02151 2 76444    00014     +0 00000 0 00011
                 WHENEVER N.NE.1,ADDCOM.(COM3)                                      018  LM00023
 00100 CLA +0 50000 0 00000    00101 SUB +0 40200 0 00031    00102 TZE +0 10000 0 00105    00103 TSX +0 07400 4 00000
 00104 TXH +3 00000 0 00016
                 VECTOR VALUES COM3=1,$S$                                           019  LM00024
 00015     -2 26060 6 06060    00016     +0 00000 0 00001
                 ADDCOM.(COM4)                                                      020  LM00025
 00105 TSX +0 07400 4 00000    00106 TXH +3 00000 0 00026
                 VECTOR VALUES COM4=38,$ ALLOWED.  THE REST HAVE$,                  021  LM00026
                1$ BEEN IGNORED.$                                                   021  LM00027
 00017     +2 43360 6 06060    00020     +3 12745 4 65125    00021     -2 02225 2 54560    00022     -2 36030 2 16525
 00023     +3 02560 5 12562    00024     +2 52433 6 06063    00025     -2 02143 4 34666    00026     +0 00000 0 00046
                 CRTYPE.                                                            022  LM00028
 00107 TSX +0 07400 4 00002
                 FUNCTION RETURN                                                    023  LM00029
 00110 TRA +0 02000 0 00123
                 END OF FUNCTION                                                    024  LM00030
 00111 TSX +0 07400 4 00003    00112 TXH +3 00000 0 00000    00113 SXD -0 63400 1 00112    00114 SXA +0 63400 4 00123
 00115 CLA +0 50000 4 00001    00116 STA +0 62100 0 00046    00117 STA +0 62100 0 00066    00120 STO +0 60100 0 00075
 00121 STA +0 62100 0 00100    00122 TRA +0 02000 2 00001    00123 AXT +0 77400 4 00000    00124 LXA +0 53400 2 00112
 00125 LXD -0 53400 1 00112    00126 TRA +0 02000 4 00001
1     MAD PROGRAM LISTING ... ... ...                 FILE   ARGSL   MAD            02/07/68    1957.8
-
                  EXTERNAL FUNCTION                                                               *001 LM00001
                  NORMAL MODE IS INTEGER                                                          *002 LM00002
                  PROGRAM COMMON LIST(84),MAX,FROM(20),TO(20)                                     *003 LM00003
                  VECTOR VALUES CR=556060606060K                                                  *004 LM00004
                                                                                                       LM00005
                 CONVERTS STATEMENT LABELS GIVEN AS REQUEST                                            LM00006
                 ARGUMENTS TO CARD NUMBERS IN FROM AND TO.                                             LM00007
                                                                                                       LM00008
                  ENTRY TO ARGSL.                                                                 *005 LM00009
                  SPACE.                                                                          *006 LM00010
                                                                                                       LM00011
                  WHENEVER LIST(LIST).E.CR                                                        *007 LM00012
                  MAX=1                                                                           *008 LM00013
                  FROM(1)=1                                                                       *009 LM00014
                  LASCRD.(TO(1))                                                                  *010 LM00015
                  FUNCTION RETURN                                                                 *011 LM00016
                  END OF CONDITIONAL                                                              *012 LM00017
                                                                                                       LM00018
                  THROUGH LOOP, FOR MAX=1,1,MAX.G.20                                              *013 LM00019
                  GETSL.(FROM(MAX),ERROR)                                                         *014 LM00020
                  WHENEVER LIST(LIST).E.$.$.AND.LIST(LIST+1).E.$.$.AND.                           *015 LM00021
                1 LIST(LIST+2).E.$.$                                                              *015 LM00022
                  LIST=LIST+3                                                                     *016 LM00023
                  GETSL.(TO(MAX),ERROR)                                                           *017 LM00024
                  OTHERWISE                                                                       *018 LM00025
                  TO(MAX)=FROM(MAX)                                                               *019 LM00026
                  END OF CONDITIONAL                                                              *020 LM00027
                  SPACE.                                                                          *021 LM00028
      LOOP        WHENEVER LIST(LIST).E.CR, TRANSFER TO CHECK                                     *022 LM00029
                                                                                                       LM00030
                  MAX=20                                                                          *023 LM00031
                  PRINT.(COM1)                                                                    *024 LM00032
                  VECTOR VALUES COM1=55,$ONLY 20 ARGUMENTS ALLOWE$,                               *025 LM00033
                1 $D.  THE REST HAVE BEEN IGNORED.$                                               *025 LM00034
                                                                                                       LM00035
      CHECK       THROUGH CKLOOP,FOR I=1,1,I.G.MAX                                                *026 LM00036
                  WHENEVER TO(I).L.FROM(I)                                                        *027 LM00037
                  LIST=0                                                                          *028 LM00038
                  ADDCOM.(COM2)                                                                   *029 LM00039
                  VECTOR VALUES COM2=35,$INCORRECT BLOCK GIVEN FOR ARGUMENT $                     *030 LM00040
                  ADDNUM.(I)                                                                      *031 LM00041
                  ADDCOM.(COM3)                                                                   *032 LM00042
                  VECTOR VALUES COM3=39,$ WILL BE TREATED AS A SINGLE VARIABLE.                   *033 LM00043
                1 $                                                                               *033 LM00044
                  CRTYPE.                                                                         *034 LM00045
                  LIST=0                                                                          *035 LM00046
                  ADDSL.(TO(I))                                                                   *036 LM00047
                  ADDCOM.(COM4)                                                                   *037 LM00048
                  VECTOR VALUES COM4=14,$ COMES BEFORE $                                          *038 LM00049
                  ADDSL.(FROM(I))                                                                 *039 LM00050
                  ADDCOM.(COM5)                                                                   *040 LM00051
                  VECTOR VALUES COM5=22,$ IN THE SYMBOLIC DECK.$                                  *041 LM00052
                  CRTYPE.                                                                         *042 LM00053
                  TO(I)=FROM(I)                                                                   *043 LM00054
      CKLOOP      END OF CONDITIONAL                                                              *044 LM00055
                                                                                                       LM00056
                  FUNCTION RETURN                                                                 *045 LM00057
                                                                                                       LM00058
      ERROR       PRINT.(COM6)                                                                    *046 LM00059
                  VECTOR VALUES COM6=10,$TRY AGAIN.$                                              *047 LM00060
                  READY.                                                                          *048 LM00061
                                                                                                       LM00062
                  END OF FUNCTION                                                                 *049 LM00063
1MAD PROGRAM,TYPE NOV 1963      (ALL NUMBERS ARE OCTAL)
0TOTAL LOCATIONS   00306 TRANSFER VECTOR LENGTH  00012 PROGRAM BEGINS    00074 FIRST UNUSED COMMON/ERASABLE  77261
0 PROGRAM IS AN EXTERNAL FUNCTION.   THE FOLLOWING ARE ENTRIES
      ARGSL  00075   0
0VARIABLE STORAGE (A=ARRAY,C=COMMON,E=ERASABLE,DIGIT=MODE)
      CHECK  00013   4        COM3   00046 A 1        COM6   00062 A 1        FROM   77333 AC1        LOOP   00012   4
      CKLOOP 00012   4        COM4   00052 A 1        CR     00063 A 1        I      00064   1        MAX    77334  C1
      COM1   00027 A 1        COM5   00057 A 1        ERROR  00014   4        LIST   77461 AC1        TO     77306 AC1
      COM2   00036 A 1
0FUNCTION DICTIONARY
      ADDCOM 00000   1        ADDNUM 00001   1        ADDSL  00002   1        CRTYPE 00003   1        EXIT   00004   1
      GETSL  00005   1        LASCRD 00006   1        PRINT  00007   1        READY  00010   1        SPACE  00011   1
0ABSOLUTE CONSTANTS
 00065 +000000000000     00070 +000000000003     00073 +336060606060     00067 +000000000002     00071 +000000000024
 00066 +000000000001     00072 +233000000000
0STATEMENT DICTIONARY
 00013 TXL -300220000206       00014 TXL -300272000270
0PROGRAM
                 EXTERNAL FUNCTION                                                  001  LM00001
                 NORMAL MODE IS INTEGER                                             002  LM00002
                 PROGRAM COMMON LIST(84),MAX,FROM(20),TO(20)                        003  LM00003
                 VECTOR VALUES CR=556060606060K                                     004  LM00004
 00063     -1 56060 6 06060
                 ENTRY TO ARGSL.                                                    005  LM00009
 00074 TRA +0 02000 0 00077    00075 SXA +0 63400 2 00274    00076 TSX +0 07400 2 00274
                 SPACE.                                                             006  LM00010
 00077 TSX +0 07400 4 00011
                 WHENEVER LIST(LIST).E.CR                                           007  LM00012
 00100 LXA +0 53400 1 77461    00101 CLA +0 50000 1 77461    00102 SUB +0 40200 0 00063    00103 TNZ -0 10000 0 00113
                 MAX=1                                                              008  LM00013
 00104 CLA +0 50000 0 00066    00105 STO +0 60100 0 77334
                 FROM(1)=1                                                          009  LM00014
 00106 CLA +0 50000 0 00066    00107 STO +0 60100 0 77332
                 LASCRD.(TO(1))                                                     010  LM00015
 00110 TSX +0 07400 4 00006    00111 TXH +3 00000 0 77305
                 FUNCTION RETURN                                                    011  LM00016
 00112 TRA +0 02000 0 00300
                 END OF CONDITIONAL                                                 012  LM00017
                 THROUGH LOOP, FOR MAX=1,1,MAX.G.20                                 013  LM00019
 00113 CLA +0 50000 0 00066    00114 STO +0 60100 0 77334    00115 TRA +0 02000 0 00121    00116 CLA +0 50000 0 77334
 00117 ADD +0 40000 0 00066    00120 STO +0 60100 0 77334    00121 CLA +0 50000 0 77334    00122 SUB +0 40200 0 00071
 00123 TZE +0 10000 0 00125    00124 TPL +0 12000 0 00202
                 GETSL.(FROM(MAX),ERROR)                                            014  LM00020
 00125 CLA +0 50000 0 77334    00126 SUB +0 40200 0 00127    00127 TXH +3 00000 0 77333    00130 STA +0 62100 0 00132
 00131 TSX +0 07400 4 00005    00132 TXH +3 00000 0 00000    00133 TXH +3 00000 0 00014
                 WHENEVER LIST(LIST).E.$.$.AND.LIST(LIST+1).E.$.$.AND.              015  LM00021
                1LIST(LIST+2).E.$.$                                                 015  LM00022
 00134 CLA +0 50000 0 77461    00135 ADD +0 40000 0 00067    00136 PAX +0 73400 1 00000    00137 CLA +0 50000 1 77461
 00140 SUB +0 40200 0 00073    00141 TNZ -0 10000 0 00167    00142 CLA +0 50000 0 77461    00143 ADD +0 40000 0 00066
 00144 PAX +0 73400 1 00000    00145 CLA +0 50000 1 77461    00146 SUB +0 40200 0 00073    00147 TNZ -0 10000 0 00167
 00150 LXA +0 53400 1 77461    00151 CLA +0 50000 1 77461    00152 SUB +0 40200 0 00073    00153 TNZ -0 10000 0 00167
                 LIST=LIST+3                                                        016  LM00023
 00154 CLA +0 50000 0 77461    00155 ADD +0 40000 0 00070    00156 STO +0 60100 0 77461
                 GETSL.(TO(MAX),ERROR)                                              017  LM00024
 00157 CLA +0 50000 0 77334    00160 SUB +0 40200 0 00161    00161 TXH +3 00000 0 77306    00162 STA +0 62100 0 00164
 00163 TSX +0 07400 4 00005    00164 TXH +3 00000 0 00000    00165 TXH +3 00000 0 00014
                 OTHERWISE                                                          018  LM00025
 00166 TRA +0 02000 0 00173
                 TO(MAX)=FROM(MAX)                                                  019  LM00026
 00167 LXA +0 53400 1 77334    00170 LXA +0 53400 2 77334    00171 CLA +0 50000 2 77333    00172 STO +0 60100 1 77306
                 END OF CONDITIONAL                                                 020  LM00027
                 SPACE.                                                             021  LM00028
 00173 TSX +0 07400 4 00011
      LOOP       WHENEVER LIST(LIST).E.CR, TRANSFER TO CHECK                        022  LM00029
 00174 LXA +0 53400 1 77461    00175 CLA +0 50000 1 77461    00176 SUB +0 40200 0 00063    00177 TNZ -0 10000 0 00201
 00200 TRA +0 02000 0 00013    00201 TRA +0 02000 0 00116
                 MAX=20                                                             023  LM00031
 00202 CLA +0 50000 0 00071    00203 STO +0 60100 0 77334
                 PRINT.(COM1)                                                       024  LM00032
 00204 TSX +0 07400 4 00007    00205 TXH +3 00000 0 00027
                 VECTOR VALUES COM1=55,$ONLY 20 ARGUMENTS ALLOWE$,                  025  LM00033
                1$D.  THE REST HAVE BEEN IGNORED.$                                  025  LM00034
 00015     +3 36060 6 06060    00016     +2 74546 5 12524    00017     +2 22525 4 56031    00020     -2 03021 6 52560
 00021     +2 56051 2 56263    00022     +2 43360 6 06330    00023     +2 14343 4 66625    00024     -0 42545 6 36260
 00025     +0 06021 5 12764    00026     -0 64543 7 06002    00027     +0 00000 0 00067
      CHECK      THROUGH CKLOOP,FOR I=1,1,I.G.MAX                                   026  LM00036
 00206 CLA +0 50000 0 00066    00207 STO +0 60100 0 00064    00210 TRA +0 02000 0 00214    00211 CLA +0 50000 0 00064
 00212 ADD +0 40000 0 00066    00213 STO +0 60100 0 00064    00214 CLA +0 50000 0 00064    00215 SUB +0 40200 0 77334
 00216 TZE +0 10000 0 00220    00217 TPL +0 12000 0 00267
                 WHENEVER TO(I).L.FROM(I)                                           027  LM00037
 00220 LXA +0 53400 1 00064    00221 LXA +0 53400 2 00064    00222 CLA +0 50000 1 77306    00223 SUB +0 40200 2 77333
 00224 TZE +0 10000 0 00266    00225 TPL +0 12000 0 00266
                 LIST=0                                                             028  LM00038
 00226 CLA +0 50000 0 00065    00227 STO +0 60100 0 77461
                 ADDCOM.(COM2)                                                      029  LM00039
 00230 TSX +0 07400 4 00000    00231 TXH +3 00000 0 00036
                 VECTOR VALUES COM2=35,$INCORRECT BLOCK GIVEN FOR ARGUMENT $        030  LM00040
 00030     -0 42545 6 36060    00031     -1 16021 5 12764    00032     -2 52545 6 02646    00033     -0 62342 6 02731
 00034     +2 52363 6 02243    00035     +3 14523 4 65151    00036     +0 00000 0 00043
                 ADDNUM.(I)                                                         031  LM00041
 00232 TSX +0 07400 4 00001    00233 TXH +3 00000 0 00064
                 ADDCOM.(COM3)                                                      032  LM00042
 00234 TSX +0 07400 4 00000    00235 TXH +3 00000 0 00046
                 VECTOR VALUES COM3=39,$ WILL BE TREATED AS A SINGLE VARIABLE.      033  LM00043
                1$                                                                  033  LM00044
 00037     +2 53360 6 06060    00040     +2 15131 2 12243    00041     -0 52743 2 56065    00042     -2 26021 6 06231
 00043     +2 16325 2 46021    00044     +2 22560 6 35125    00045     -2 06631 4 34360    00046     +0 00000 0 00047
                 CRTYPE.                                                            034  LM00045
 00236 TSX +0 07400 4 00003
                 LIST=0                                                             035  LM00046
 00237 CLA +0 50000 0 00065    00240 STO +0 60100 0 77461
                 ADDSL.(TO(I))                                                      036  LM00047
 00241 CLA +0 50000 0 00064    00242 SUB +0 40200 0 00243    00243 TXH +3 00000 0 77306    00244 STA +0 62100 0 00246
 00245 TSX +0 07400 4 00002    00246 TXH +3 00000 0 00000
                 ADDCOM.(COM4)                                                      037  LM00048
 00247 TSX +0 07400 4 00000    00250 TXH +3 00000 0 00052
                 VECTOR VALUES COM4=14,$ COMES BEFORE $                             038  LM00049
 00047     +2 56060 6 06060    00050     -2 02225 2 64651    00051     -2 02346 4 42562    00052     +0 00000 0 00016
                 ADDSL.(FROM(I))                                                    039  LM00050
 00251 CLA +0 50000 0 00064    00252 SUB +0 40200 0 00253    00253 TXH +3 00000 0 77333    00254 STA +0 62100 0 00256
 00255 TSX +0 07400 4 00002    00256 TXH +3 00000 0 00000
                 ADDCOM.(COM5)                                                      040  LM00051
 00257 TSX +0 07400 4 00000    00260 TXH +3 00000 0 00057
                 VECTOR VALUES COM5=22,$ IN THE SYMBOLIC DECK.$                     041  LM00052
 00053     +2 52342 3 36060    00054     -0 64331 2 36024    00055     +2 56062 7 04422    00056     -2 03145 6 06330
 00057     +0 00000 0 00026
                 CRTYPE.                                                            042  LM00053
 00261 TSX +0 07400 4 00003
                 TO(I)=FROM(I)                                                      043  LM00054
 00262 LXA +0 53400 1 00064    00263 LXA +0 53400 2 00064    00264 CLA +0 50000 2 77333    00265 STO +0 60100 1 77306
      CKLOOP     END OF CONDITIONAL                                                 044  LM00055
 00266 TRA +0 02000 0 00211
                 FUNCTION RETURN                                                    045  LM00057
 00267 TRA +0 02000 0 00300
      ERROR      PRINT.(COM6)                                                       046  LM00059
 00270 TSX +0 07400 4 00007    00271 TXH +3 00000 0 00062
                 VECTOR VALUES COM6=10,$TRY AGAIN.$                                 047  LM00060
 00060     +2 13145 3 36060    00061     -2 35170 6 02127    00062     +0 00000 0 00012
                 READY.                                                             048  LM00061
 00272 TSX +0 07400 4 00010
                 END OF FUNCTION                                                    049  LM00063
 00273 TSX +0 07400 4 00004    00274 TXH +3 00000 0 00000    00275 SXD -0 63400 1 00274    00276 SXA +0 63400 4 00300
 00277 TRA +0 02000 2 00001    00300 AXT +0 77400 4 00000    00301 LXA +0 53400 2 00274    00302 LXD -0 53400 1 00274
 00303 TRA +0 02000 4 00001
1     MAD PROGRAM LISTING ... ... ...                 FILE  ARGVAR   MAD            02/07/68    1957.9
-
                  EXTERNAL FUNCTION(MODE8)                                                        *001 LM00001
                  NORMAL MODE IS INTEGER                                                          *002 LM00002
                  BOOLEAN MODE8                                                                   *003 LM00003
                  PROGRAM COMMON LIST(84),MAX,FROM(20),TO(20),FSUB(20),TSUB(20)                   *004 LM00004
                  VECTOR VALUES CR=556060606060K                                                  *005 LM00005
                                                                                                       LM00006
                 CONVERTS VARIABLES GIVEN                                                              LM00007
                 AS REQUEST ARGUMENTS                                                                  LM00008
                                                                                                       LM00009
                  ENTRY TO ARGVAR.                                                                *006 LM00010
                  SPACE.                                                                          *007 LM00011
                                                                                                       LM00012
                  WHENEVER LIST(LIST).E.$/$                                                       *008 LM00013
                  LIST=LIST+1                                                                     *009 LM00014
                  GETFMT.(8)                                                                      *010 LM00015
                  SPACE.                                                                          *011 LM00016
                  MODE8=1B                                                                        *012 LM00017
                  OTHERWISE                                                                       *013 LM00018
                  MODE8=0B                                                                        *014 LM00019
                  END OF CONDITIONAL                                                              *015 LM00020
                                                                                                       LM00021
                  WHENEVER LIST(LIST).E.CR                                                        *016 LM00022
                  FIRVAR.(FROM(1),FSUB(1))                                                        *017 LM00023
                  LASVAR.(TO(1),TSUB(1))                                                          *018 LM00024
                  MAX=1                                                                           *019 LM00025
                  FUNCTION RETURN 1B                                                              *020 LM00026
                  END OF CONDITIONAL                                                              *021 LM00027
                                                                                                       LM00028
                  THROUGH GET, FOR MAX=1,1,MAX.G.20                                               *022 LM00029
                  GETVAR.(FROM(MAX),FSUB(MAX))                                                    *023 LM00030
                  WHENEVER LIST(LIST).E.$.$.AND.LIST(LIST+1).E.$.$.AND.                           *024 LM00031
                1 LIST(LIST+2).E.$.$                                                              *024 LM00032
                  LIST=LIST+3                                                                     *025 LM00033
                  GETVAR.(TO(MAX),TSUB(MAX))                                                      *026 LM00034
                  OTHERWISE                                                                       *027 LM00035
                  TO(MAX)=FROM(MAX)                                                               *028 LM00036
                  TSUB(MAX)=FSUB(MAX)                                                             *029 LM00037
                  END OF CONDITIONAL                                                              *030 LM00038
                  SPACE.                                                                          *031 LM00039
      GET         WHENEVER LIST(LIST).E.CR,TRANSFER TO CHECK                                      *032 LM00040
                                                                                                       LM00041
                  MAX=20                                                                          *033 LM00042
                  PRINT.(COM1)                                                                    *034 LM00043
                  VECTOR VALUES COM1=55,$ONLY 20 ARGUMENTS ALLOWE$,                               *035 LM00044
                1 $D.  THE REST HAVE BEEN IGNORED.$                                               *035 LM00045
                                                                                                       LM00046
      CHECK       THROUGH CKLOOP, FOR I=1,1,I.G.MAX                                               *036 LM00047
                  WHENEVER TO(I).L.FROM(I).OR.TO(I).E.FROM(I).AND.TSUB(I).L.FSU                   *037 LM00048
                1 B(I)                                                                            *037 LM00049
                  LIST=0                                                                          *038 LM00050
                  ADDCOM.(COM2)                                                                   *039 LM00051
                  VECTOR VALUES COM2=35,$INCORRECT BLOCK GIVEN FOR ARGUMENT $                     *040 LM00052
                  ADDNUM.(I)                                                                      *041 LM00053
                  ADDCOM.(COM3)                                                                   *042 LM00054
                  VECTOR VALUES COM3=39,$ WILL BE TREATED AS A SINGLE VARIABLE.                   *043 LM00055
                1 $                                                                               *043 LM00056
                  CRTYPE.                                                                         *044 LM00057
                  LIST=0                                                                          *045 LM00058
                  WHENEVER TO(I).L.FROM(I)                                                        *046 LM00059
                  ADDNAM.(TO(I))                                                                  *047 LM00060
                  ADDCOM.(COM4)                                                                   *048 LM00061
                  VECTOR VALUES COM4=14,$ COMES BEFORE $                                          *049 LM00062
                  ADDNAM.(FROM(I))                                                                *050 LM00063
                  ADDCOM.(COM5)                                                                   *051 LM00064
                  VECTOR VALUES COM5=21,$ IN ALPHABETIC ORDER.$                                   *052 LM00065
                  OTHERWISE                                                                       *053 LM00066
                  ADDVAR.(TO(I),TSUB(I))                                                          *054 LM00067
                  ADDCOM.(COM4)                                                                   *055 LM00068
                  ADDVAR.(FROM(I),FSUB(I))                                                        *056 LM00069
                  ADDCOM.(COM6)                                                                   *057 LM00070
                  VECTOR VALUES COM6=22,$ BY LINEAR SUBSCRIPTS.$                                  *058 LM00071
                  END OF CONDITIONAL                                                              *059 LM00072
                  CRTYPE.                                                                         *060 LM00073
                  TO(I)=FROM(I)                                                                   *061 LM00074
                  TSUB(I)=FSUB(I)                                                                 *062 LM00075
      CKLOOP      END OF CONDITIONAL                                                              *063 LM00076
                                                                                                       LM00077
                  FUNCTION RETURN 0B                                                              *064 LM00078
                  END OF FUNCTION                                                                 *065 LM00079
1MAD PROGRAM,TYPE NOV 1963      (ALL NUMBERS ARE OCTAL)
0TOTAL LOCATIONS   00424 TRANSFER VECTOR LENGTH  00014 PROGRAM BEGINS    00101 FIRST UNUSED COMMON/ERASABLE  77207
0 PROGRAM IS AN EXTERNAL FUNCTION.   THE FOLLOWING ARE ENTRIES
      ARGVAR 00102   0
0VARIABLE STORAGE (A=ARRAY,C=COMMON,E=ERASABLE,DIGIT=MODE)
      CHECK  00015   4        COM3   00047 A 1        CR     00066 A 1        GET    00014   4        MAX    77334  C1
      CKLOOP 00014   4        COM4   00053 A 1        FROM   77333 AC1        I      00067   1        TO     77306 AC1
      COM1   00030 A 1        COM5   00060 A 1        FSUB   77261 AC1        LIST   77461 AC1        TSUB   77234 AC1
      COM2   00037 A 1        COM6   00065 A 1
0FUNCTION DICTIONARY
      ADDCOM 00000   1        ADDNAM 00001   1        ADDNUM 00002   1        ADDVAR 00003   1        CRTYPE 00004   1
      EXIT   00005   1        FIRVAR 00006   1        GETFMT 00007   1        GETVAR 00010   1        LASVAR 00011   1
      PRINT  00012   1        SPACE  00013   1
0ABSOLUTE CONSTANTS
 00073 +000000000003     00077 +336060606060     00072 +000000000002     00075 +000000000024     00070 +000000000000
 00074 +000000000010     00100 -216060606060     00071 +000000000001     00076 +233000000000
0STATEMENT DICTIONARY
 00015 TXL -300261000247
0PROGRAM
                 EXTERNAL FUNCTION(MODE8)                                           001  LM00001
                 NORMAL MODE IS INTEGER                                             002  LM00002
                 BOOLEAN MODE8                                                      003  LM00003
                 PROGRAM COMMON LIST(84),MAX,FROM(20),TO(20),FSUB(20),TSUB(20)      004  LM00004
                 VECTOR VALUES CR=556060606060K                                     005  LM00005
 00066     -1 56060 6 06060
                 ENTRY TO ARGVAR.                                                   006  LM00010
 00101 TRA +0 02000 0 00104    00102 SXA +0 63400 2 00407    00103 TSX +0 07400 2 00407
                 SPACE.                                                             007  LM00011
 00104 TSX +0 07400 4 00013
                 WHENEVER LIST(LIST).E.$/$                                          008  LM00013
 00105 LXA +0 53400 1 77461    00106 CLA +0 50000 1 77461    00107 SUB +0 40200 0 00100    00110 TNZ -0 10000 0 00122
                 LIST=LIST+1                                                        009  LM00014
 00111 CLA +0 50000 0 77461    00112 ADD +0 40000 0 00071    00113 STO +0 60100 0 77461
                 GETFMT.(8)                                                         010  LM00015
 00114 TSX +0 07400 4 00007    00115 TXH +3 00000 0 00074
                 SPACE.                                                             011  LM00016
 00116 TSX +0 07400 4 00013
                 MODE8=1B                                                           012  LM00017
 00117 CLA +0 50000 0 00071    00120 STO +0 60100 0 00000
                 OTHERWISE                                                          013  LM00018
 00121 TRA +0 02000 0 00124
                 MODE8=0B                                                           014  LM00019
 00122 CLA +0 50000 0 00070    00123 STO +0 60100 0 00000
                 END OF CONDITIONAL                                                 015  LM00020
                 WHENEVER LIST(LIST).E.CR                                           016  LM00022
 00124 LXA +0 53400 1 77461    00125 CLA +0 50000 1 77461    00126 SUB +0 40200 0 00066    00127 TNZ -0 10000 0 00142
                 FIRVAR.(FROM(1),FSUB(1))                                           017  LM00023
 00130 TSX +0 07400 4 00006    00131 TXH +3 00000 0 77332    00132 TXH +3 00000 0 77260
                 LASVAR.(TO(1),TSUB(1))                                             018  LM00024
 00133 TSX +0 07400 4 00011    00134 TXH +3 00000 0 77305    00135 TXH +3 00000 0 77233
                 MAX=1                                                              019  LM00025
 00136 CLA +0 50000 0 00071    00137 STO +0 60100 0 77334
                 FUNCTION RETURN 1B                                                 020  LM00026
 00140 CLA +0 50000 0 00071    00141 TRA +0 02000 0 00416
                 END OF CONDITIONAL                                                 021  LM00027
                 THROUGH GET, FOR MAX=1,1,MAX.G.20                                  022  LM00029
 00142 CLA +0 50000 0 00071    00143 STO +0 60100 0 77334    00144 TRA +0 02000 0 00150    00145 CLA +0 50000 0 77334
 00146 ADD +0 40000 0 00071    00147 STO +0 60100 0 77334    00150 CLA +0 50000 0 77334    00151 SUB +0 40200 0 00075
 00152 TZE +0 10000 0 00154    00153 TPL +0 12000 0 00243
                 GETVAR.(FROM(MAX),FSUB(MAX))                                       023  LM00030
 00154 CLA +0 50000 0 77334    00155 SUB +0 40200 0 00156    00156 TXH +3 00000 0 77261    00157 STA +0 62100 0 00166
 00160 CLA +0 50000 0 77334    00161 SUB +0 40200 0 00162    00162 TXH +3 00000 0 77333    00163 STA +0 62100 0 00165
 00164 TSX +0 07400 4 00010    00165 TXH +3 00000 0 00000    00166 TXH +3 00000 0 00000
                 WHENEVER LIST(LIST).E.$.$.AND.LIST(LIST+1).E.$.$.AND.              024  LM00031
                1LIST(LIST+2).E.$.$                                                 024  LM00032
 00167 CLA +0 50000 0 77461    00170 ADD +0 40000 0 00072    00171 PAX +0 73400 1 00000    00172 CLA +0 50000 1 77461
 00173 SUB +0 40200 0 00077    00174 TNZ -0 10000 0 00226    00175 CLA +0 50000 0 77461    00176 ADD +0 40000 0 00071
 00177 PAX +0 73400 1 00000    00200 CLA +0 50000 1 77461    00201 SUB +0 40200 0 00077    00202 TNZ -0 10000 0 00226
 00203 LXA +0 53400 1 77461    00204 CLA +0 50000 1 77461    00205 SUB +0 40200 0 00077    00206 TNZ -0 10000 0 00226
                 LIST=LIST+3                                                        025  LM00033
 00207 CLA +0 50000 0 77461    00210 ADD +0 40000 0 00073    00211 STO +0 60100 0 77461
                 GETVAR.(TO(MAX),TSUB(MAX))                                         026  LM00034
 00212 CLA +0 50000 0 77334    00213 SUB +0 40200 0 00214    00214 TXH +3 00000 0 77234    00215 STA +0 62100 0 00224
 00216 CLA +0 50000 0 77334    00217 SUB +0 40200 0 00220    00220 TXH +3 00000 0 77306    00221 STA +0 62100 0 00223
 00222 TSX +0 07400 4 00010    00223 TXH +3 00000 0 00000    00224 TXH +3 00000 0 00000
                 OTHERWISE                                                          027  LM00035
 00225 TRA +0 02000 0 00234
                 TO(MAX)=FROM(MAX)                                                  028  LM00036
 00226 LXA +0 53400 1 77334    00227 LXA +0 53400 2 77334    00230 CLA +0 50000 2 77333    00231 STO +0 60100 1 77306
                 TSUB(MAX)=FSUB(MAX)                                                029  LM00037
 00232 CLA +0 50000 2 77261    00233 STO +0 60100 1 77234
                 END OF CONDITIONAL                                                 030  LM00038
                 SPACE.                                                             031  LM00039
 00234 TSX +0 07400 4 00013
      GET        WHENEVER LIST(LIST).E.CR,TRANSFER TO CHECK                         032  LM00040
 00235 LXA +0 53400 1 77461    00236 CLA +0 50000 1 77461    00237 SUB +0 40200 0 00066    00240 TNZ -0 10000 0 00242
 00241 TRA +0 02000 0 00015    00242 TRA +0 02000 0 00145
                 MAX=20                                                             033  LM00042
 00243 CLA +0 50000 0 00075    00244 STO +0 60100 0 77334
                 PRINT.(COM1)                                                       034  LM00043
 00245 TSX +0 07400 4 00012    00246 TXH +3 00000 0 00030
                 VECTOR VALUES COM1=55,$ONLY 20 ARGUMENTS ALLOWE$,                  035  LM00044
                1$D.  THE REST HAVE BEEN IGNORED.$                                  035  LM00045
 00016     +3 36060 6 06060    00017     +2 74546 5 12524    00020     +2 22525 4 56031    00021     -2 03021 6 52560
 00022     +2 56051 2 56263    00023     +2 43360 6 06330    00024     +2 14343 4 66625    00025     -0 42545 6 36260
 00026     +0 06021 5 12764    00027     -0 64543 7 06002    00030     +0 00000 0 00067
      CHECK      THROUGH CKLOOP, FOR I=1,1,I.G.MAX                                  036  LM00047
 00247 CLA +0 50000 0 00071    00250 STO +0 60100 0 00067    00251 TRA +0 02000 0 00255    00252 CLA +0 50000 0 00067
 00253 ADD +0 40000 0 00071    00254 STO +0 60100 0 00067    00255 CLA +0 50000 0 00067    00256 SUB +0 40200 0 77334
 00257 TZE +0 10000 0 00261    00260 TPL +0 12000 0 00404
                 WHENEVER TO(I).L.FROM(I).OR.TO(I).E.FROM(I).AND.TSUB(I).L.FSU      037  LM00048
                1B(I)                                                               037  LM00049
 00261 LXA +0 53400 1 00067    00262 LXA +0 53400 2 00067    00263 CLA +0 50000 1 77234    00264 SUB +0 40200 2 77261
 00265 TZE +0 10000 0 00272    00266 TPL +0 12000 0 00272    00267 CLA +0 50000 1 77306    00270 SUB +0 40200 2 77333
 00271 TZE +0 10000 0 00300    00272 LXA +0 53400 1 00067    00273 LXA +0 53400 2 00067    00274 CLA +0 50000 1 77306
 00275 SUB +0 40200 2 77333    00276 TZE +0 10000 0 00403    00277 TPL +0 12000 0 00403
                 LIST=0                                                             038  LM00050
 00300 CLA +0 50000 0 00070    00301 STO +0 60100 0 77461
                 ADDCOM.(COM2)                                                      039  LM00051
 00302 TSX +0 07400 4 00000    00303 TXH +3 00000 0 00037
                 VECTOR VALUES COM2=35,$INCORRECT BLOCK GIVEN FOR ARGUMENT $        040  LM00052
 00031     -0 42545 6 36060    00032     -1 16021 5 12764    00033     -2 52545 6 02646    00034     -0 62342 6 02731
 00035     +2 52363 6 02243    00036     +3 14523 4 65151    00037     +0 00000 0 00043
                 ADDNUM.(I)                                                         041  LM00053
 00304 TSX +0 07400 4 00002    00305 TXH +3 00000 0 00067
                 ADDCOM.(COM3)                                                      042  LM00054
 00306 TSX +0 07400 4 00000    00307 TXH +3 00000 0 00047
                 VECTOR VALUES COM3=39,$ WILL BE TREATED AS A SINGLE VARIABLE.      043  LM00055
                1$                                                                  043  LM00056
 00040     +2 53360 6 06060    00041     +2 15131 2 12243    00042     -0 52743 2 56065    00043     -2 26021 6 06231
 00044     +2 16325 2 46021    00045     +2 22560 6 35125    00046     -2 06631 4 34360    00047     +0 00000 0 00047
                 CRTYPE.                                                            044  LM00057
 00310 TSX +0 07400 4 00004
                 LIST=0                                                             045  LM00058
 00311 CLA +0 50000 0 00070    00312 STO +0 60100 0 77461
                 WHENEVER TO(I).L.FROM(I)                                           046  LM00059
 00313 LXA +0 53400 1 00067    00314 LXA +0 53400 2 00067    00315 CLA +0 50000 1 77306    00316 SUB +0 40200 2 77333
 00317 TZE +0 10000 0 00342    00320 TPL +0 12000 0 00342
                 ADDNAM.(TO(I))                                                     047  LM00060
 00321 CLA +0 50000 0 00067    00322 SUB +0 40200 0 00323    00323 TXH +3 00000 0 77306    00324 STA +0 62100 0 00326
 00325 TSX +0 07400 4 00001    00326 TXH +3 00000 0 00000
                 ADDCOM.(COM4)                                                      048  LM00061
 00327 TSX +0 07400 4 00000    00330 TXH +3 00000 0 00053
                 VECTOR VALUES COM4=14,$ COMES BEFORE $                             049  LM00062
 00050     +2 56060 6 06060    00051     -2 02225 2 64651    00052     -2 02346 4 42562    00053     +0 00000 0 00016
                 ADDNAM.(FROM(I))                                                   050  LM00063
 00331 CLA +0 50000 0 00067    00332 SUB +0 40200 0 00333    00333 TXH +3 00000 0 77333    00334 STA +0 62100 0 00336
 00335 TSX +0 07400 4 00001    00336 TXH +3 00000 0 00000
                 ADDCOM.(COM5)                                                      051  LM00064
 00337 TSX +0 07400 4 00000    00340 TXH +3 00000 0 00060
                 VECTOR VALUES COM5=21,$ IN ALPHABETIC ORDER.$                      052  LM00065
 00054     +2 55133 6 06060    00055     +3 12360 4 65124    00056     -0 73021 2 22563    00057     -2 03145 6 02143
 00060     +0 00000 0 00025
                 OTHERWISE                                                          053  LM00066
 00341 TRA +0 02000 0 00374
                 ADDVAR.(TO(I),TSUB(I))                                             054  LM00067
 00342 CLA +0 50000 0 00067    00343 SUB +0 40200 0 00344    00344 TXH +3 00000 0 77234    00345 STA +0 62100 0 00354
 00346 CLA +0 50000 0 00067    00347 SUB +0 40200 0 00350    00350 TXH +3 00000 0 77306    00351 STA +0 62100 0 00353
 00352 TSX +0 07400 4 00003    00353 TXH +3 00000 0 00000    00354 TXH +3 00000 0 00000
                 ADDCOM.(COM4)                                                      055  LM00068
 00355 TSX +0 07400 4 00000    00356 TXH +3 00000 0 00053
                 ADDVAR.(FROM(I),FSUB(I))                                           056  LM00069
 00357 CLA +0 50000 0 00067    00360 SUB +0 40200 0 00361    00361 TXH +3 00000 0 77261    00362 STA +0 62100 0 00371
 00363 CLA +0 50000 0 00067    00364 SUB +0 40200 0 00365    00365 TXH +3 00000 0 77333    00366 STA +0 62100 0 00370
 00367 TSX +0 07400 4 00003    00370 TXH +3 00000 0 00000    00371 TXH +3 00000 0 00000
                 ADDCOM.(COM6)                                                      057  LM00070
 00372 TSX +0 07400 4 00000    00373 TXH +3 00000 0 00065
                 VECTOR VALUES COM6=22,$ BY LINEAR SUBSCRIPTS.$                     058  LM00071
 00061     -0 76362 3 36060    00062     -2 42262 2 35131    00063     -0 52521 5 16062    00064     -2 02270 6 04331
 00065     +0 00000 0 00026
                 END OF CONDITIONAL                                                 059  LM00072
                 CRTYPE.                                                            060  LM00073
 00374 TSX +0 07400 4 00004
                 TO(I)=FROM(I)                                                      061  LM00074
 00375 LXA +0 53400 1 00067    00376 LXA +0 53400 2 00067    00377 CLA +0 50000 2 77333    00400 STO +0 60100 1 77306
                 TSUB(I)=FSUB(I)                                                    062  LM00075
 00401 CLA +0 50000 2 77261    00402 STO +0 60100 1 77234
      CKLOOP     END OF CONDITIONAL                                                 063  LM00076
 00403 TRA +0 02000 0 00252
                 FUNCTION RETURN 0B                                                 064  LM00078
 00404 CLA +0 50000 0 00070    00405 TRA +0 02000 0 00416
                 END OF FUNCTION                                                    065  LM00079
 00406 TSX +0 07400 4 00005    00407 TXH +3 00000 0 00000    00410 SXD -0 63400 1 00407    00411 SXA +0 63400 4 00416
 00412 CLA +0 50000 4 00001    00413 STA +0 62100 0 00120    00414 STA +0 62100 0 00123    00415 TRA +0 02000 2 00001
 00416 AXT +0 77400 4 00000    00417 LXA +0 53400 2 00407    00420 LXD -0 53400 1 00407    00421 TRA +0 02000 4 00001
1     MAD PROGRAM LISTING ... ... ...                 FILE      BK   MAD            02/07/68    1958.1
-
                  EXTERNAL FUNCTION                                                               *001 LM00001
                  NORMAL MODE IS INTEGER                                                          *002 LM00002
                  PROGRAM COMMON LIST(84),MAX,FROM(20),                                           *003 LM00003
                1 TO(20),FSUB(20),TSUB(20),USES(60),CURCOR                                        *003 LM00004
                  VECTOR VALUES STOSTA=0601K8                                                     *004 LM00005
                  VECTOR VALUES MTTR=002101K6                                                     *005 LM00006
                  VECTOR VALUES MTSX=0074014K5                                                    *006 LM00007
                  VECTOR VALUES TSX=0074004K5                                                     *007 LM00008
                  VECTOR VALUES TXL=700001K6                                                      *008 LM00009
                                                                                                       LM00010
                 INSERT BREAK POINTS IN USER CORE                                                      LM00011
                                                                                                       LM00012
                  ENTRY TO B.                                                                     *009 LM00013
                  FWRKBL.                                                                         *010 LM00014
                  LOAD.                                                                           *011 LM00015
                  ARGSL.                                                                          *012 LM00016
                  MAP.($PROLOG$,PFROM,PCOUNT)                                                     *013 LM00017
                  PLAST=PFROM+PCOUNT-1                                                            *014 LM00018
                  MDBG=ENTRY.($(MDBG)$)                                                           *015 LM00019
                  BRKREG.(FIRST,COUNT)                                                            *016 LM00020
                  PATCH=FIRST+3                                                                   *017 LM00021
                  FIRLOC=SNLOC.(1)                                                                *018 LM00022
                                                                                                       LM00023
                  THROUGH BREAK, FOR I=1,1,I.G.MAX                                                *019 LM00024
                  THROUGH BREAK, FOR AT=FROM(I),1,AT.G.TO(I)                                      *020 LM00025
                  ABSLOC=SNLOC.(AT)                                                               *021 LM00026
                  WHENEVER FIRLOC.E.ABSLOC.AND.PCOUNT.E.0,ABSLOC=ABSLOC+1                         *022 LM00027
                  INST=INS.(ABSLOC)                                                               *023 LM00028
                  WHENEVER INST.A.7777777K5.E.MTSX,TRANSFER TO BREAK                              *024 LM00029
                                                                                                       LM00030
                  THROUGH PSPACE,FOR PATCH=PATCH,2,PATCH.G.FIRST+COUNT-1                          *025 LM00031
      PSPACE      WHENEVER BRK.(PATCH).E.0,TRANSFER TO GOTPAT                                     *026 LM00032
                  LIST=0                                                                          *027 LM00033
                  ADDCOM.(COM1)                                                                   *028 LM00034
                  VECTOR VALUES COM1=49,$PATCH SPACE EXAUSTED.  R$,                               *029 LM00035
                1 $EQUEST TERMINATED BEFORE $                                                     *029 LM00036
                  ADDSL.(AT)                                                                      *030 LM00037
                  CRTYPE.                                                                         *031 LM00038
                  TRANSFER TO PROLOG                                                              *032 LM00039
                                                                                                       LM00040
      GOTPAT      SETINS.(ABSLOC,MTSX.V.PATCH)                                                    *033 LM00041
                  SETBRK.(PATCH,TXL.V.MDBG.V.1K6)                                                 *034 LM00042
                  WHENEVER INST.A.7777777K5.E.TSX,INST=INST.A.77777K.V.MTTR                       *035 LM00043
                  SETBRK.(PATCH+1,INST)                                                           *036 LM00044
                                                                                                       LM00045
      BREAK       CONTINUE                                                                        *037 LM00046
                                                                                                       LM00047
      PROLOG      THROUGH SET,FOR J=PFROM,1,J.G.PLAST                                             *038 LM00048
                  PINST=INS.(J)                                                                   *039 LM00049
                  WHENEVER PINST.A.7757777K5.E.STOSTA                                             *040 LM00050
                  WHENEVER PINST.A.77777K.L.PFROM                                                 *041 LM00051
                  INST=INS.(PINST.A.77777K)                                                       *042 LM00052
                  WHENEVER INST.A.7777777K5.E.MTSX,SETINS.                                        *043 LM00053
                1 (J,PINST.A.7777777K5.V.((INST.A.77777K)+1))                                     *043 LM00054
                  END OF CONDITIONAL                                                              *044 LM00055
      SET         END OF CONDITIONAL                                                              *045 LM00056
                                                                                                       LM00057
                  READY.                                                                          *046 LM00058
                                                                                                       LM00059
                 KILL BREAK POINTS IN USER PROG                                                        LM00060
                                                                                                       LM00061
                  ENTRY TO K.                                                                     *047 LM00062
                  FWRKBL.                                                                         *048 LM00063
                  LOAD.                                                                           *049 LM00064
                  ARGSL.                                                                          *050 LM00065
                  MAP.($PROLOG$,PFROM,PCOUNT)                                                     *051 LM00066
                  FIRLOC=SNLOC.(1)                                                                *052 LM00067
                                                                                                       LM00068
                  THROUGH KILL,FOR I=1,1,I.G.MAX                                                  *053 LM00069
                  THROUGH KILL, FOR AT=FROM(I),1,AT.G.TO(I)                                       *054 LM00070
                  ABSLOC=SNLOC.(AT)                                                               *055 LM00071
                  WHENEVER FIRLOC.E.ABSLOC.AND.PCOUNT.E.0,ABSLOC=ABSLOC+1                         *056 LM00072
                  INST=INS.(ABSLOC)                                                               *057 LM00073
                  WHENEVER INST.A.7777777K5.NE.MTSX,TRANSFER TO KILL                              *058 LM00074
                                                                                                       LM00075
                  PATCH=INST.A.77777K                                                             *059 LM00076
                  INST=BRK.(PATCH+1)                                                              *060 LM00077
                  WHENEVER INST.A.7777777K5.E.MTTR,INST=INST.A.77777K.V.TSX                       *061 LM00078
                  SETINS.(ABSLOC,INST)                                                            *062 LM00079
                  SETBRK.(PATCH,0)                                                                *063 LM00080
                  SETBRK.(PATCH+1,0)                                                              *064 LM00081
                                                                                                       LM00082
                  FIND=STOSTA.V.(PATCH+1)                                                         *065 LM00083
                  THROUGH RESET, FOR TRY=0,1,TRY.E.PCOUNT                                         *066 LM00084
                  PINST=INS.(PFROM+TRY)                                                           *067 LM00085
                  WHENEVER PINST.A.775777777777K.E.FIND                                           *068 LM00086
                  SETINS.(PFROM+TRY,PINST.A.7777777K5.V.ABSLOC)                                   *069 LM00087
                  TRANSFER TO KILL                                                                *070 LM00088
      RESET       END OF CONDITIONAL                                                              *071 LM00089
                                                                                                       LM00090
      KILL        CONTINUE                                                                        *072 LM00091
                  READY.                                                                          *073 LM00092
                  END OF FUNCTION                                                                 *074 LM00093
1MAD PROGRAM,TYPE NOV 1963      (ALL NUMBERS ARE OCTAL)
0TOTAL LOCATIONS   00604 TRANSFER VECTOR LENGTH  00020 PROGRAM BEGINS    00100 FIRST UNUSED COMMON/ERASABLE  77111
0 PROGRAM IS AN EXTERNAL FUNCTION.   THE FOLLOWING ARE ENTRIES
      K      00366   0        B      00101   0
0VARIABLE STORAGE (A=ARRAY,C=COMMON,E=ERASABLE,DIGIT=MODE)
      ABSLOC 00025   1        FIRST  00044   1        LIST   77461 AC1        PFROM  00055   1        STOSTA 00060 A 1
      AT     00026   1        FROM   77333 AC1        MAX    77334  C1        PINST  00056   1        TO     77306 AC1
      BREAK  00021   4        FSUB   77261 AC1        MDBG   00050   1        PLAST  00057   1        TRY    00061   1
      COM1   00040 A 1        GOTPAT 00022   4        MTSX   00051 A 1        PROLOG 00024   4        TSUB   77234 AC1
      COUNT  00041   1        INST   00045   1        MTTR   00052 A 1        PSPACE 00020   4        TSX    00062 A 1
      CURCOR 77112  C1        I      00046   1        PATCH  00053   1        RESET  00020   4        TXL    00063 A 1
      FIND   00042   1        J      00047   1        PCOUNT 00054   1        SET    00020   4        USES   77207 AC1
      FIRLOC 00043   1        KILL   00023   4
0FUNCTION DICTIONARY
      ADDCOM 00000   1        ADDSL  00001   1        ARGSL  00002   1        BRKREG 00003   1        BRK    00004   1
      CRTYPE 00005   1        ENTRY  00006   1        EXIT   00007   1        FWRKBL 00010   1        INS    00011   1
      LOAD   00012   1        MAP    00013   1        READY  00014   1        SETBRK 00015   1        SETINS 00016   1
      SNLOC  00017   1
0ABSOLUTE CONSTANTS
 00076 -375777777777     00075 -375777700000     00070 +000000077777     00071 +000001000000     00066 +000000000002
 00077 -377777700000     00064 +000000000000     00067 +000000000003     00074 -344424222734     00073 -075146434627
 00065 +000000000001     00072 +233000000000
0STATEMENT DICTIONARY
 00021 TXL -300300000276       00022 TXL -300247000241       00023 TXL -300566000564       00024 TXL -300312000300
0PROGRAM
                 EXTERNAL FUNCTION                                                  001  LM00001
                 NORMAL MODE IS INTEGER                                             002  LM00002
                 PROGRAM COMMON LIST(84),MAX,FROM(20),                              003  LM00003
                1TO(20),FSUB(20),TSUB(20),USES(60),CURCOR                           003  LM00004
                 VECTOR VALUES STOSTA=0601K8                                        004  LM00005
 00060     +0 60100 0 00000
                 VECTOR VALUES MTTR=002101K6                                        005  LM00006
 00052     +0 02101 0 00000
                 VECTOR VALUES MTSX=0074014K5                                       006  LM00007
 00051     +0 07401 4 00000
                 VECTOR VALUES TSX=0074004K5                                        007  LM00008
 00062     +0 07400 4 00000
                 VECTOR VALUES TXL=700001K6                                         008  LM00009
 00063     -3 00001 0 00000
                 ENTRY TO B.                                                        009  LM00013
 00100 TRA +0 02000 0 00103    00101 SXA +0 63400 2 00570    00102 TSX +0 07400 2 00570
                 FWRKBL.                                                            010  LM00014
 00103 TSX +0 07400 4 00010
                 LOAD.                                                              011  LM00015
 00104 TSX +0 07400 4 00012
                 ARGSL.                                                             012  LM00016
 00105 TSX +0 07400 4 00002
                 MAP.($PROLOG$,PFROM,PCOUNT)                                        013  LM00017
 00106 TSX +0 07400 4 00013    00107 TXH +3 00000 0 00073    00110 TXH +3 00000 0 00055    00111 TXH +3 00000 0 00054
                 PLAST=PFROM+PCOUNT-1                                               014  LM00018
 00112 CLA +0 50000 0 00055    00113 ADD +0 40000 0 00054    00114 SUB +0 40200 0 00065    00115 STO +0 60100 0 00057
                 MDBG=ENTRY.($(MDBG)$)                                              015  LM00019
 00116 TSX +0 07400 4 00006    00117 TXH +3 00000 0 00074    00120 STO +0 60100 0 00050
                 BRKREG.(FIRST,COUNT)                                               016  LM00020
 00121 TSX +0 07400 4 00003    00122 TXH +3 00000 0 00044    00123 TXH +3 00000 0 00041
                 PATCH=FIRST+3                                                      017  LM00021
 00124 CLA +0 50000 0 00044    00125 ADD +0 40000 0 00067    00126 STO +0 60100 0 00053
                 FIRLOC=SNLOC.(1)                                                   018  LM00022
 00127 TSX +0 07400 4 00017    00130 TXH +3 00000 0 00065    00131 STO +0 60100 0 00043
                 THROUGH BREAK, FOR I=1,1,I.G.MAX                                   019  LM00024
 00132 CLA +0 50000 0 00065    00133 STO +0 60100 0 00046    00134 TRA +0 02000 0 00140    00135 CLA +0 50000 0 00046
 00136 ADD +0 40000 0 00065    00137 STO +0 60100 0 00046    00140 CLA +0 50000 0 00046    00141 SUB +0 40200 0 77334
 00142 TZE +0 10000 0 00144    00143 TPL +0 12000 0 00300
                 THROUGH BREAK, FOR AT=FROM(I),1,AT.G.TO(I)                         020  LM00025
 00144 LXA +0 53400 2 00046    00145 CLA +0 50000 2 77333    00146 STO +0 60100 0 00026    00147 TRA +0 02000 0 00153
 00150 CLA +0 50000 0 00026    00151 ADD +0 40000 0 00065    00152 STO +0 60100 0 00026    00153 LXA +0 53400 2 00046
 00154 CLA +0 50000 0 00026    00155 SUB +0 40200 2 77306    00156 TZE +0 10000 0 00160    00157 TPL +0 12000 0 00277
                 ABSLOC=SNLOC.(AT)                                                  021  LM00026
 00160 TSX +0 07400 4 00017    00161 TXH +3 00000 0 00026    00162 STO +0 60100 0 00025
                 WHENEVER FIRLOC.E.ABSLOC.AND.PCOUNT.E.0,ABSLOC=ABSLOC+1            022  LM00027
 00163 CLA +0 50000 0 00054    00164 SUB +0 40200 0 00064    00165 TNZ -0 10000 0 00174    00166 CLA +0 50000 0 00043
 00167 SUB +0 40200 0 00025    00170 TNZ -0 10000 0 00174    00171 CLA +0 50000 0 00025    00172 ADD +0 40000 0 00065
 00173 STO +0 60100 0 00025
                 INST=INS.(ABSLOC)                                                  023  LM00028
 00174 TSX +0 07400 4 00011    00175 TXH +3 00000 0 00025    00176 STO +0 60100 0 00045
                 WHENEVER INST.A.7777777K5.E.MTSX,TRANSFER TO BREAK                 024  LM00029
 00177 CAL -0 50000 0 00045    00200 ANA -0 32000 0 00077    00201 SLW +0 60200 0 00600    00202 CLA +0 50000 0 00600
 00203 SUB +0 40200 0 00051    00204 TNZ -0 10000 0 00206    00205 TRA +0 02000 0 00021
                 THROUGH PSPACE,FOR PATCH=PATCH,2,PATCH.G.FIRST+COUNT-1             025  LM00031
 00206 CLA +0 50000 0 00053    00207 STO +0 60100 0 00053    00210 TRA +0 02000 0 00214    00211 CLA +0 50000 0 00053
 00212 ADD +0 40000 0 00066    00213 STO +0 60100 0 00053    00214 CLA +0 50000 0 00044    00215 ADD +0 40000 0 00041
 00216 SUB +0 40200 0 00065    00217 CHS +0 76000 0 00002    00220 ADD +0 40000 0 00053    00221 TZE +0 10000 0 00223
 00222 TPL +0 12000 0 00231
      PSPACE     WHENEVER BRK.(PATCH).E.0,TRANSFER TO GOTPAT                        026  LM00032
 00223 TSX +0 07400 4 00004    00224 TXH +3 00000 0 00053    00225 SUB +0 40200 0 00064    00226 TNZ -0 10000 0 00230
 00227 TRA +0 02000 0 00022    00230 TRA +0 02000 0 00211
                 LIST=0                                                             027  LM00033
 00231 CLA +0 50000 0 00064    00232 STO +0 60100 0 77461
                 ADDCOM.(COM1)                                                      028  LM00034
 00233 TSX +0 07400 4 00000    00234 TXH +3 00000 0 00040
                 VECTOR VALUES COM1=49,$PATCH SPACE EXAUSTED.  R$,                  029  LM00035
                1$EQUEST TERMINATED BEFORE $                                        029  LM00036
 00027     -2 06060 6 06060    00030     +2 22526 4 65125    00031     -0 52163 2 52460    00032     -2 06325 5 14431
 00033     +2 55064 2 56263    00034     +2 52433 6 06051    00035     +2 56721 6 46263    00036     -2 24721 2 32560
 00037     -0 72163 2 33060    00040     +0 00000 0 00061
                 ADDSL.(AT)                                                         030  LM00037
 00235 TSX +0 07400 4 00001    00236 TXH +3 00000 0 00026
                 CRTYPE.                                                            031  LM00038
 00237 TSX +0 07400 4 00005
                 TRANSFER TO PROLOG                                                 032  LM00039
 00240 TRA +0 02000 0 00024
      GOTPAT     SETINS.(ABSLOC,MTSX.V.PATCH)                                       033  LM00041
 00241 CAL -0 50000 0 00051    00242 ORA -0 50100 0 00053    00243 SLW +0 60200 0 00600    00244 TSX +0 07400 4 00016
 00245 TXH +3 00000 0 00025    00246 TXH +3 00000 0 00600
                 SETBRK.(PATCH,TXL.V.MDBG.V.1K6)                                    034  LM00042
 00247 CAL -0 50000 0 00063    00250 ORA -0 50100 0 00050    00251 ORA -0 50100 0 00071    00252 SLW +0 60200 0 00600
 00253 TSX +0 07400 4 00015    00254 TXH +3 00000 0 00053    00255 TXH +3 00000 0 00600
                 WHENEVER INST.A.7777777K5.E.TSX,INST=INST.A.77777K.V.MTTR          035  LM00043
 00256 CAL -0 50000 0 00045    00257 ANA -0 32000 0 00077    00260 SLW +0 60200 0 00600    00261 CLA +0 50000 0 00600
 00262 SUB +0 40200 0 00062    00263 TNZ -0 10000 0 00270    00264 CAL -0 50000 0 00045    00265 ANA -0 32000 0 00070
 00266 ORA -0 50100 0 00052    00267 SLW +0 60200 0 00045
                 SETBRK.(PATCH+1,INST)                                              036  LM00044
 00270 CLA +0 50000 0 00053    00271 ADD +0 40000 0 00065    00272 STO +0 60100 0 00600    00273 TSX +0 07400 4 00015
 00274 TXH +3 00000 0 00600    00275 TXH +3 00000 0 00045
      BREAK      CONTINUE                                                           037  LM00046
 00276 TRA +0 02000 0 00150    00277 TRA +0 02000 0 00135
      PROLOG     THROUGH SET,FOR J=PFROM,1,J.G.PLAST                                038  LM00048
 00300 CLA +0 50000 0 00055    00301 STO +0 60100 0 00047    00302 TRA +0 02000 0 00306    00303 CLA +0 50000 0 00047
 00304 ADD +0 40000 0 00065    00305 STO +0 60100 0 00047    00306 CLA +0 50000 0 00047    00307 SUB +0 40200 0 00057
 00310 TZE +0 10000 0 00312    00311 TPL +0 12000 0 00364
                 PINST=INS.(J)                                                      039  LM00049
 00312 TSX +0 07400 4 00011    00313 TXH +3 00000 0 00047    00314 STO +0 60100 0 00056
                 WHENEVER PINST.A.7757777K5.E.STOSTA                                040  LM00050
 00315 CAL -0 50000 0 00056    00316 ANA -0 32000 0 00075    00317 SLW +0 60200 0 00600    00320 CLA +0 50000 0 00600
 00321 SUB +0 40200 0 00060    00322 TNZ -0 10000 0 00363
                 WHENEVER PINST.A.77777K.L.PFROM                                    041  LM00051
 00323 CAL -0 50000 0 00056    00324 ANA -0 32000 0 00070    00325 SLW +0 60200 0 00600    00326 CLA +0 50000 0 00600
 00327 SUB +0 40200 0 00055    00330 TZE +0 10000 0 00363    00331 TPL +0 12000 0 00363
                 INST=INS.(PINST.A.77777K)                                          042  LM00052
 00332 CAL -0 50000 0 00056    00333 ANA -0 32000 0 00070    00334 SLW +0 60200 0 00600    00335 TSX +0 07400 4 00011
 00336 TXH +3 00000 0 00600    00337 STO +0 60100 0 00045
                 WHENEVER INST.A.7777777K5.E.MTSX,SETINS.                           043  LM00053
                1(J,PINST.A.7777777K5.V.((INST.A.77777K)+1))                        043  LM00054
 00340 CAL -0 50000 0 00045    00341 ANA -0 32000 0 00077    00342 SLW +0 60200 0 00600    00343 CLA +0 50000 0 00600
 00344 SUB +0 40200 0 00051    00345 TNZ -0 10000 0 00363    00346 CAL -0 50000 0 00045    00347 ANA -0 32000 0 00070
 00350 SLW +0 60200 0 00600    00351 CLA +0 50000 0 00600    00352 ADD +0 40000 0 00065    00353 STO +0 60100 0 00600
 00354 CAL -0 50000 0 00056    00355 ANA -0 32000 0 00077    00356 ORA -0 50100 0 00600    00357 SLW +0 60200 0 00600
 00360 TSX +0 07400 4 00016    00361 TXH +3 00000 0 00047    00362 TXH +3 00000 0 00600
                 END OF CONDITIONAL                                                 044  LM00055
      SET        END OF CONDITIONAL                                                 045  LM00056
 00363 TRA +0 02000 0 00303
                 READY.                                                             046  LM00058
 00364 TSX +0 07400 4 00014
                 ENTRY TO K.                                                        047  LM00062
 00365 TRA +0 02000 0 00370    00366 SXA +0 63400 2 00570    00367 TSX +0 07400 2 00570
                 FWRKBL.                                                            048  LM00063
 00370 TSX +0 07400 4 00010
                 LOAD.                                                              049  LM00064
 00371 TSX +0 07400 4 00012
                 ARGSL.                                                             050  LM00065
 00372 TSX +0 07400 4 00002
                 MAP.($PROLOG$,PFROM,PCOUNT)                                        051  LM00066
 00373 TSX +0 07400 4 00013    00374 TXH +3 00000 0 00073    00375 TXH +3 00000 0 00055    00376 TXH +3 00000 0 00054
                 FIRLOC=SNLOC.(1)                                                   052  LM00067
 00377 TSX +0 07400 4 00017    00400 TXH +3 00000 0 00065    00401 STO +0 60100 0 00043
                 THROUGH KILL,FOR I=1,1,I.G.MAX                                     053  LM00069
 00402 CLA +0 50000 0 00065    00403 STO +0 60100 0 00046    00404 TRA +0 02000 0 00410    00405 CLA +0 50000 0 00046
 00406 ADD +0 40000 0 00065    00407 STO +0 60100 0 00046    00410 CLA +0 50000 0 00046    00411 SUB +0 40200 0 77334
 00412 TZE +0 10000 0 00414    00413 TPL +0 12000 0 00566
                 THROUGH KILL, FOR AT=FROM(I),1,AT.G.TO(I)                          054  LM00070
 00414 LXA +0 53400 2 00046    00415 CLA +0 50000 2 77333    00416 STO +0 60100 0 00026    00417 TRA +0 02000 0 00423
 00420 CLA +0 50000 0 00026    00421 ADD +0 40000 0 00065    00422 STO +0 60100 0 00026    00423 LXA +0 53400 2 00046
 00424 CLA +0 50000 0 00026    00425 SUB +0 40200 2 77306    00426 TZE +0 10000 0 00430    00427 TPL +0 12000 0 00565
                 ABSLOC=SNLOC.(AT)                                                  055  LM00071
 00430 TSX +0 07400 4 00017    00431 TXH +3 00000 0 00026    00432 STO +0 60100 0 00025
                 WHENEVER FIRLOC.E.ABSLOC.AND.PCOUNT.E.0,ABSLOC=ABSLOC+1            056  LM00072
 00433 CLA +0 50000 0 00054    00434 SUB +0 40200 0 00064    00435 TNZ -0 10000 0 00444    00436 CLA +0 50000 0 00043
 00437 SUB +0 40200 0 00025    00440 TNZ -0 10000 0 00444    00441 CLA +0 50000 0 00025    00442 ADD +0 40000 0 00065
 00443 STO +0 60100 0 00025
                 INST=INS.(ABSLOC)                                                  057  LM00073
 00444 TSX +0 07400 4 00011    00445 TXH +3 00000 0 00025    00446 STO +0 60100 0 00045
                 WHENEVER INST.A.7777777K5.NE.MTSX,TRANSFER TO KILL                 058  LM00074
 00447 CAL -0 50000 0 00045    00450 ANA -0 32000 0 00077    00451 SLW +0 60200 0 00600    00452 CLA +0 50000 0 00600
 00453 SUB +0 40200 0 00051    00454 TZE +0 10000 0 00456    00455 TRA +0 02000 0 00023
                 PATCH=INST.A.77777K                                                059  LM00076
 00456 CAL -0 50000 0 00045    00457 ANA -0 32000 0 00070    00460 SLW +0 60200 0 00053
                 INST=BRK.(PATCH+1)                                                 060  LM00077
 00461 CLA +0 50000 0 00053    00462 ADD +0 40000 0 00065    00463 STO +0 60100 0 00600    00464 TSX +0 07400 4 00004
 00465 TXH +3 00000 0 00600    00466 STO +0 60100 0 00045
                 WHENEVER INST.A.7777777K5.E.MTTR,INST=INST.A.77777K.V.TSX          061  LM00078
 00467 CAL -0 50000 0 00045    00470 ANA -0 32000 0 00077    00471 SLW +0 60200 0 00600    00472 CLA +0 50000 0 00600
 00473 SUB +0 40200 0 00052    00474 TNZ -0 10000 0 00501    00475 CAL -0 50000 0 00045    00476 ANA -0 32000 0 00070
 00477 ORA -0 50100 0 00062    00500 SLW +0 60200 0 00045
                 SETINS.(ABSLOC,INST)                                               062  LM00079
 00501 TSX +0 07400 4 00016    00502 TXH +3 00000 0 00025    00503 TXH +3 00000 0 00045
                 SETBRK.(PATCH,0)                                                   063  LM00080
 00504 TSX +0 07400 4 00015    00505 TXH +3 00000 0 00053    00506 TXH +3 00000 0 00064
                 SETBRK.(PATCH+1,0)                                                 064  LM00081
 00507 CLA +0 50000 0 00053    00510 ADD +0 40000 0 00065    00511 STO +0 60100 0 00600    00512 TSX +0 07400 4 00015
 00513 TXH +3 00000 0 00600    00514 TXH +3 00000 0 00064
                 FIND=STOSTA.V.(PATCH+1)                                            065  LM00083
 00515 CLA +0 50000 0 00053    00516 ADD +0 40000 0 00065    00517 STO +0 60100 0 00600    00520 CAL -0 50000 0 00060
 00521 ORA -0 50100 0 00600    00522 SLW +0 60200 0 00042
                 THROUGH RESET, FOR TRY=0,1,TRY.E.PCOUNT                            066  LM00084
 00523 CLA +0 50000 0 00064    00524 STO +0 60100 0 00061    00525 TRA +0 02000 0 00531    00526 CLA +0 50000 0 00061
 00527 ADD +0 40000 0 00065    00530 STO +0 60100 0 00061    00531 CLA +0 50000 0 00061    00532 SUB +0 40200 0 00054
 00533 TZE +0 10000 0 00564
                 PINST=INS.(PFROM+TRY)                                              067  LM00085
 00534 CLA +0 50000 0 00055    00535 ADD +0 40000 0 00061    00536 STO +0 60100 0 00600    00537 TSX +0 07400 4 00011
 00540 TXH +3 00000 0 00600    00541 STO +0 60100 0 00056
                 WHENEVER PINST.A.775777777777K.E.FIND                              068  LM00086
 00542 CAL -0 50000 0 00056    00543 ANA -0 32000 0 00076    00544 SLW +0 60200 0 00600    00545 CLA +0 50000 0 00600
 00546 SUB +0 40200 0 00042    00547 TNZ -0 10000 0 00563
                 SETINS.(PFROM+TRY,PINST.A.7777777K5.V.ABSLOC)                      069  LM00087
 00550 CAL -0 50000 0 00056    00551 ANA -0 32000 0 00077    00552 ORA -0 50100 0 00025    00553 SLW +0 60200 0 00600
 00554 CLA +0 50000 0 00055    00555 ADD +0 40000 0 00061    00556 STO +0 60100 0 00601    00557 TSX +0 07400 4 00016
 00560 TXH +3 00000 0 00601    00561 TXH +3 00000 0 00600
                 TRANSFER TO KILL                                                   070  LM00088
 00562 TRA +0 02000 0 00023
      RESET      END OF CONDITIONAL                                                 071  LM00089
 00563 TRA +0 02000 0 00526
      KILL       CONTINUE                                                           072  LM00091
 00564 TRA +0 02000 0 00420    00565 TRA +0 02000 0 00405
                 READY.                                                             073  LM00092
 00566 TSX +0 07400 4 00014
                 END OF FUNCTION                                                    074  LM00093
 00567 TSX +0 07400 4 00007    00570 TXH +3 00000 0 00000    00571 SXD -0 63400 1 00570    00572 SXA +0 63400 4 00574
 00573 TRA +0 02000 2 00001    00574 AXT +0 77400 4 00000    00575 LXA +0 53400 2 00570    00576 LXD -0 53400 1 00570
 00577 TRA +0 02000 4 00001
1     MAD PROGRAM LISTING ... ... ...                 FILE     BRK   MAD            02/07/68    1958.6
-
                  EXTERNAL FUNCTION(A1,A2)                                                        *001 LM00001
                  NORMAL MODE IS INTEGER                                                          *002 LM00002
                  BOOLEAN WSEEK                                                                   *003 LM00003
                  PROGRAM COMMON LIST(84),MAX,FROM(20),TO(20),                                    *004 LM00004
                1 FSUB(20),TSUB(20),USES(60),CURCOR,PATCH,SKIP                                    *004 LM00005
                  VECTOR VALUES SAVED=$****** SAVED$                                              *005 LM00006
                                                                                                       LM00007
                 SET FIRST LOCATION NEEDED IN BREAK BLOCK                                              LM00008
                 FOR NEXT BSETUP TO A1                                                                 LM00009
                                                                                                       LM00010
                  ENTRY TO BEGBRK.                                                                *006 LM00011
                  NEXBEG=A1                                                                       *007 LM00012
                  FUNCTION RETURN                                                                 *008 LM00013
                                                                                                       LM00014
                 RETURN FIRST ABS LOC AND LENGTH OF BREAK BLOCK                                        LM00015
                                                                                                       LM00016
                  ENTRY TO BRKREG.                                                                *009 LM00017
                  BSETUP.                                                                         *010 LM00018
                  A1=BFUDGE+1                                                                     *011 LM00019
                  A2=COUNT                                                                        *012 LM00020
                  FUNCTION RETURN                                                                 *013 LM00021
                                                                                                       LM00022
                 RETURN VALUE OF REGISTER AT ABSOLUTE LOCATION A1                                      LM00023
                                                                                                       LM00024
                  ENTRY TO BRK.                                                                   *014 LM00025
                  BSETUP.                                                                         *015 LM00026
                  FUNCTION RETURN WGET.(A1-BFUDGE)                                                *016 LM00027
                                                                                                       LM00028
                 SET VALUE OF REGISTER AT ABSOLUTE LOCATION A1 TO A2                                   LM00029
                                                                                                       LM00030
                  ENTRY TO SETBRK.                                                                *017 LM00031
                  BSETUP.                                                                         *018 LM00032
                  WSET.(A1-BFUDGE,A2)                                                             *019 LM00033
                  FUNCTION RETURN                                                                 *020 LM00034
                                                                                                       LM00035
                 SETUP 'BRK' IN WINDOW                                                                 LM00036
                                                                                                       LM00037
                  INTERNAL FUNCTION                                                               *021 LM00038
                  ENTRY TO BSETUP.                                                                *022 LM00039
                  WHENEVER WSEEK.($BRK$),FUNCTION RETURN                                          *023 LM00040
                  BFUDGE=NEXBEG-1                                                                 *024 LM00041
                  SAVED=CURCOR                                                                    *025 LM00042
                  ORG.($(MDBG)$,BSTART,BCOUNT)                                                    *026 LM00043
                  COUNT=BSTART+BCOUNT-BFUDGE-1                                                    *027 LM00044
                  WSETUP.($BRK$,SAVED,SKIP+BFUDGE+2,COUNT)                                        *028 LM00045
                  FUNCTION RETURN                                                                 *029 LM00046
                  END OF FUNCTION                                                                 *030 LM00047
                                                                                                       LM00048
                  END OF FUNCTION                                                                 *031 LM00049
1MAD PROGRAM,TYPE NOV 1963      (ALL NUMBERS ARE OCTAL)
0TOTAL LOCATIONS   00167 TRANSFER VECTOR LENGTH  00006 PROGRAM BEGINS    00024 FIRST UNUSED COMMON/ERASABLE  77107
0 PROGRAM IS AN EXTERNAL FUNCTION.   THE FOLLOWING ARE ENTRIES
      SETBRK 00057   0        BRK    00045   0        BRKREG 00033   0        BEGBRK 00025   0
0VARIABLE STORAGE (A=ARRAY,C=COMMON,E=ERASABLE,DIGIT=MODE)
      BCOUNT 00010   1        CURCOR 77112  C1        LIST   77461 AC1        PATCH  77111  C1        TO     77306 AC1
      BFUDGE 00011   1        FROM   77333 AC1        MAX    77334  C1        SAVED  00016 A 1        TSUB   77234 AC1
      BSTART 00012   1        FSUB   77261 AC1        NEXBEG 00014   1        SKIP   77110  C1        USES   77207 AC1
      COUNT  00013   1
0FUNCTION DICTIONARY
      EXIT   00000   1        ORG    00001   1        WGET   00002   1        WSEEK  00003   2        WSET   00004   1
      WSETUP 00005   1        BSETUP 00006   1
0ABSOLUTE CONSTANTS
 00020 +000000000002     00023 -344424222734     00021 +225142606060     00017 +000000000001     00022 +233000000000
0PROGRAM
                 EXTERNAL FUNCTION(A1,A2)                                           001  LM00001
                 NORMAL MODE IS INTEGER                                             002  LM00002
                 BOOLEAN WSEEK                                                      003  LM00003
                 PROGRAM COMMON LIST(84),MAX,FROM(20),TO(20),                       004  LM00004
                1FSUB(20),TSUB(20),USES(60),CURCOR,PATCH,SKIP                       004  LM00005
                 VECTOR VALUES SAVED=$****** SAVED$                                 005  LM00006
 00015     -2 06221 6 52524    00016     -1 45454 5 45454
                 ENTRY TO BEGBRK.                                                   006  LM00011
 00024 TRA +0 02000 0 00027    00025 SXA +0 63400 2 00144    00026 TSX +0 07400 2 00144
                 NEXBEG=A1                                                          007  LM00012
 00027 CLA +0 50000 0 00000    00030 STO +0 60100 0 00014
                 FUNCTION RETURN                                                    008  LM00013
 00031 TRA +0 02000 0 00160
                 ENTRY TO BRKREG.                                                   009  LM00017
 00032 TRA +0 02000 0 00035    00033 SXA +0 63400 2 00144    00034 TSX +0 07400 2 00144
                 BSETUP.                                                            010  LM00018
 00035 TSX +0 07400 4 00006
                 A1=BFUDGE+1                                                        011  LM00019
 00036 CLA +0 50000 0 00011    00037 ADD +0 40000 0 00017    00040 STO +0 60100 0 00000
                 A2=COUNT                                                           012  LM00020
 00041 CLA +0 50000 0 00013    00042 STO +0 60100 0 00000
                 FUNCTION RETURN                                                    013  LM00021
 00043 TRA +0 02000 0 00160
                 ENTRY TO BRK.                                                      014  LM00025
 00044 TRA +0 02000 0 00047    00045 SXA +0 63400 2 00144    00046 TSX +0 07400 2 00144
                 BSETUP.                                                            015  LM00026
 00047 TSX +0 07400 4 00006
                 FUNCTION RETURN WGET.(A1-BFUDGE)                                   016  LM00027
 00050 CLA +0 50000 0 00000    00051 SUB +0 40200 0 00011    00052 STO +0 60100 0 00164    00053 TSX +0 07400 4 00002
 00054 TXH +3 00000 0 00164    00055 TRA +0 02000 0 00160
                 ENTRY TO SETBRK.                                                   017  LM00031
 00056 TRA +0 02000 0 00061    00057 SXA +0 63400 2 00144    00060 TSX +0 07400 2 00144
                 BSETUP.                                                            018  LM00032
 00061 TSX +0 07400 4 00006
                 WSET.(A1-BFUDGE,A2)                                                019  LM00033
 00062 CLA +0 50000 0 00000    00063 SUB +0 40200 0 00011    00064 STO +0 60100 0 00164    00065 TSX +0 07400 4 00004
 00066 TXH +3 00000 0 00164    00067 TXH +3 00000 0 00000
                 FUNCTION RETURN                                                    020  LM00034
 00070 TRA +0 02000 0 00160
                 INTERNAL FUNCTION                                                  021  LM00038
 00071 TRA +0 02000 0 00143
                 ENTRY TO BSETUP.                                                   022  LM00039
 00072 TRA +0 02000 0 00075    00006 TTR +0 02100 0 00073    00073 SXA +0 63400 2 00132    00074 TSX +0 07400 2 00132
                 WHENEVER WSEEK.($BRK$),FUNCTION RETURN                             023  LM00040
 00075 TSX +0 07400 4 00003    00076 TXH +3 00000 0 00021    00077 TZE +0 10000 0 00101    00100 TRA +0 02000 0 00136
                 BFUDGE=NEXBEG-1                                                    024  LM00041
 00101 CLA +0 50000 0 00014    00102 SUB +0 40200 0 00017    00103 STO +0 60100 0 00011
                 SAVED=CURCOR                                                       025  LM00042
 00104 CLA +0 50000 0 77112    00105 STO +0 60100 0 00016
                 ORG.($(MDBG)$,BSTART,BCOUNT)                                       026  LM00043
 00106 TSX +0 07400 4 00001    00107 TXH +3 00000 0 00023    00110 TXH +3 00000 0 00012    00111 TXH +3 00000 0 00010
                 COUNT=BSTART+BCOUNT-BFUDGE-1                                       027  LM00044
 00112 CLA +0 50000 0 00012    00113 ADD +0 40000 0 00010    00114 SUB +0 40200 0 00011    00115 SUB +0 40200 0 00017
 00116 STO +0 60100 0 00013
                 WSETUP.($BRK$,SAVED,SKIP+BFUDGE+2,COUNT)                           028  LM00045
 00117 CLA +0 50000 0 77110    00120 ADD +0 40000 0 00011    00121 ADD +0 40000 0 00020    00122 STO +0 60100 0 00142
 00123 TSX +0 07400 4 00005    00124 TXH +3 00000 0 00021    00125 TXH +3 00000 0 00016    00126 TXH +3 00000 0 00142
 00127 TXH +3 00000 0 00013
                 FUNCTION RETURN                                                    029  LM00046
 00130 TRA +0 02000 0 00136
                 END OF FUNCTION                                                    030  LM00047
 00131 TSX +0 07400 4 00000    00132 TXH +3 00000 0 00000    00133 SXD -0 63400 1 00132    00134 SXA +0 63400 4 00136
 00135 TRA +0 02000 2 00001    00136 AXT +0 77400 4 00000    00137 LXA +0 53400 2 00132    00140 LXD -0 53400 1 00132
 00141 TRA +0 02000 4 00001
                 END OF FUNCTION                                                    031  LM00049
 00143 TSX +0 07400 4 00000    00144 TXH +3 00000 0 00000    00145 SXD -0 63400 1 00144    00146 SXA +0 63400 4 00160
 00147 CLA +0 50000 4 00001    00150 STA +0 62100 0 00027    00151 STA +0 62100 0 00040    00152 STA +0 62100 0 00050
 00153 STA +0 62100 0 00062    00154 CLA +0 50000 4 00002    00155 STA +0 62100 0 00042    00156 STO +0 60100 0 00067
 00157 TRA +0 02000 2 00001    00160 AXT +0 77400 4 00000    00161 LXA +0 53400 2 00144    00162 LXD -0 53400 1 00144
 00163 TRA +0 02000 4 00001
1     MAD PROGRAM LISTING ... ... ...                 FILE    CARD   MAD            02/07/68    1958.6
-
                  EXTERNAL FUNCTION (A1,A2,A3,A4)                                                 *001 LM00001
                  NORMAL MODE IS INTEGER                                                          *002 LM00002
                  BOOLEAN WSEEK,FETCH,NFLAG                                                       *003 LM00003
                  PROGRAM COMMON LIST(84)                                                         *004 LM00004
                  DIMENSION THREE(2)                                                              *005 LM00005
                  VECTOR VALUES MAD=$******   MAD$                                                *006 LM00006
                                                                                                       LM00007
                 GET CARD IMAGE A1 INTO A2(1)...A2(12)                                                 LM00008
                                                                                                       LM00009
                  ENTRY TO CRD.                                                                   *007 LM00010
                  PSETUP.                                                                         *008 LM00011
                  START=14*A1-14                                                                  *009 LM00012
                  THROUGH GET, FOR K=1,1,K.G.12                                                   *010 LM00013
      GET         A2(K)=WGET.(START+K)                                                            *011 LM00014
                  FUNCTION RETURN                                                                 *012 LM00015
                                                                                                       LM00016
                 REPLACE CARD IMAGE A1 BY A2(1)...A2(12)                                               LM00017
                                                                                                       LM00018
                  ENTRY TO SETCRD.                                                                *013 LM00019
                  PSETUP.                                                                         *014 LM00020
                  START=14*A1-14                                                                  *015 LM00021
                  THROUGH SET, FOR K=1,1,K.G.12                                                   *016 LM00022
      SET         WSET.(START+K,A2(K))                                                            *017 LM00023
                  SLSTOR.(A1,A2(1),A2(2))                                                         *018 LM00024
                  FUNCTION RETURN                                                                 *019 LM00025
                                                                                                       LM00026
                 DELETE CARD IMAGE FROM A1 TO A2                                                       LM00027
                                                                                                       LM00028
                  ENTRY TO DELCRD.                                                                *020 LM00029
                  PSETUP.                                                                         *021 LM00030
                  DELCNT=14*(A2-A1+1)                                                             *022 LM00031
                  WDEL.(14*A1-13,DELCNT)                                                          *023 LM00032
                  PSIZE=PSIZE-DELCNT                                                              *024 LM00033
                  SLDELE.(A1,A2)                                                                  *025 LM00034
                  FUNCTION RETURN                                                                 *026 LM00035
                                                                                                       LM00036
                 INSERT CARD IMAGE A2(1)...A2(12)BEFORE A1                                             LM00037
                                                                                                       LM00038
                  ENTRY TO INSCRD.                                                                *027 LM00039
                  PSETUP.                                                                         *028 LM00040
                  WINS.(14*A1-13,14,A2(1))                                                        *029 LM00041
                  PSIZE=PSIZE+14                                                                  *030 LM00042
                  SLINS.(A1,A2(1),A2(2))                                                          *031 LM00043
                  FUNCTION RETURN                                                                 *032 LM00044
                                                                                                       LM00045
                 SET A1 TO NUMBER OF LAST CARD IMAGE                                                   LM00046
                                                                                                       LM00047
                  ENTRY TO LASCRD.                                                                *033 LM00048
                  PSETUP.                                                                         *034 LM00049
                  A1=PSIZE/14                                                                     *035 LM00050
                  FUNCTION RETURN                                                                 *036 LM00051
                                                                                                       LM00052
                 SET A1 TO THE NUMBER CORRESPONDING TO NAME A2                                         LM00053
                 AND SUBSCRIPT A3                                                                      LM00054
                                                                                                       LM00055
                  ENTRY TO SLNUM.                                                                 *037 LM00056
                  PSETUP.                                                                         *038 LM00057
                  WSEEK.($SL/SN$)                                                                 *039 LM00058
                  THROUGH SLNGET, FOR K=1,3,K.G.TSIZE                                             *040 LM00059
                  WHENEVER WGET.(K+1).E.A2.AND.WGET.(K+2).E.A3                                    *041 LM00060
                  A1=WGET.(K)                                                                     *042 LM00061
                  FUNCTION RETURN                                                                 *043 LM00062
      SLNGET      END OF CONDITIONAL                                                              *044 LM00063
                                                                                                       LM00064
                  A1=0                                                                            *045 LM00065
                  FUNCTION RETURN                                                                 *046 LM00066
                                                                                                       LM00067
                 SET A2 AND A3 TO THE NAME AND SUBSCRIPT                                               LM00068
                 OF THE STATEMENT LABEL NEAREST A1.                                                    LM00069
                 AND SET A4 TO THE DEVIATION OF A1 FROM A2(A3)                                         LM00070
                                                                                                       LM00071
                  ENTRY TO SLNAM.                                                                 *047 LM00072
                  PSETUP.                                                                         *048 LM00073
                  WHENEVER TSIZE.E.0                                                              *049 LM00074
                  A4=A1                                                                           *050 LM00075
                  TRANSFER TO SKIP                                                                *051 LM00076
                  END OF CONDITIONAL                                                              *052 LM00077
                  POINT.(A1)                                                                      *053 LM00078
                                                                                                       LM00079
                  WHENEVER I.G.TSIZE                                                              *054 LM00080
                  HIGH=1000000                                                                    *055 LM00081
                  OTHERWISE                                                                       *056 LM00082
                  HIGH=WGET.(I)-A1                                                                *057 LM00083
                  END OF CONDITIONAL                                                              *058 LM00084
                                                                                                       LM00085
                  WHENEVER I.E.1                                                                  *059 LM00086
                  LOW=A1                                                                          *060 LM00087
                  OTHERWISE                                                                       *061 LM00088
                  LOW=A1-WGET.(I-3)                                                               *062 LM00089
                  END OF CONDITIONAL                                                              *063 LM00090
                                                                                                       LM00091
                  WHENEVER LOW.LE.HIGH                                                            *064 LM00092
                  I=I-3                                                                           *065 LM00093
                  A4=LOW                                                                          *066 LM00094
                  OTHERWISE                                                                       *067 LM00095
                  A4=-HIGH                                                                        *068 LM00096
                  END OF CONDITIONAL                                                              *069 LM00097
                                                                                                       LM00098
                  WHENEVER I.L.0                                                                  *070 LM00099
      SKIP        A2=$      $                                                                     *071 LM00100
                  A3=0                                                                            *072 LM00101
                  OTHERWISE                                                                       *073 LM00102
                  A2=WGET.(I+1)                                                                   *074 LM00103
                  A3=WGET.(I+2)                                                                   *075 LM00104
                  END OF CONDITIONAL                                                              *076 LM00105
                                                                                                       LM00106
                  FUNCTION RETURN                                                                 *077 LM00107
                                                                                                       LM00108
                 SETUP 'PROG' AND 'SL/SN' IF NOT DONE.                                                 LM00109
                                                                                                       LM00110
                  INTERNAL FUNCTION                                                               *078 LM00111
                  ENTRY TO PSETUP.                                                                *079 LM00112
                  WHENEVER WSEEK.($PROG$),FUNCTION RETURN                                         *080 LM00113
                                                                                                       LM00114
                  GWORK.(MAD)                                                                     *081 LM00115
                  WALLOT.($SL/SN$)                                                                *082 LM00116
                  WSETUP.($PROG$,MAD,0)                                                           *083 LM00117
                  WSIZE.(PSIZE)                                                                   *084 LM00118
                  TSIZE=0                                                                         *085 LM00119
                  THROUGH PSET, FOR J=1,14,J.G.PSIZE                                              *086 LM00120
                  W1=WGET.(J)                                                                     *087 LM00121
                  W2=WGET.(J+1)                                                                   *088 LM00122
                  SLINS.((J+13)/14,W1,W2)                                                         *089 LM00123
      PSET        WSEEK.($PROG$)                                                                  *090 LM00124
                                                                                                       LM00125
                  FUNCTION RETURN                                                                 *091 LM00126
                  END OF FUNCTION                                                                 *092 LM00127
                                                                                                       LM00128
                 INSERT STATEMENT LABEL IN 'W1' AND 'W2' IN                                            LM00129
                 'SL/SN' AND REDEFINE LABELS ON ALL                                                    LM00130
                 CARDS AFTER IT.                                                                       LM00131
                                                                                                       LM00132
                  INTERNAL FUNCTION(BEFORE,W1,W2)                                                 *093 LM00133
                  ENTRY TO SLINS.                                                                 *094 LM00134
                  POINT.(BEFORE)                                                                  *095 LM00135
                                                                                                       LM00136
                  WHENEVER FETCH.(W1,W2,THREE(1),THREE(2))                                        *096 LM00137
                  THREE(0)=BEFORE                                                                 *097 LM00138
                  WINS.(I,3,THREE)                                                                *098 LM00139
                  I=I+3                                                                           *099 LM00140
                  TSIZE=TSIZE+3                                                                   *100 LM00141
                  END OF CONDITIONAL                                                              *101 LM00142
                                                                                                       LM00143
                  THROUGH SLI,FOR I=I,3,I.G.TSIZE                                                 *102 LM00144
      SLI         WSET.(I,WGET.(I)+1)                                                             *103 LM00145
                                                                                                       LM00146
                  FUNCTION RETURN                                                                 *104 LM00147
                  END OF FUNCTION                                                                 *105 LM00148
                                                                                                       LM00149
                 CHANGE STATEMENT LABEL ON CARD 'AT' TO                                                LM00150
                 THE ONE IN 'W1' AND 'W2' IN 'SL/SN'                                                   LM00151
                                                                                                       LM00152
                  INTERNAL FUNCTION(AT,W1,W2)                                                     *106 LM00153
                  ENTRY TO SLSTOR.                                                                *107 LM00154
                  POINT.(AT)                                                                      *108 LM00155
                                                                                                       LM00156
                  WHENEVER I.LE.TSIZE                                                             *109 LM00157
                  WHENEVER WGET.(I).E.AT                                                          *110 LM00158
                  WDEL.(I,3)                                                                      *111 LM00159
                  TSIZE=TSIZE-3                                                                   *112 LM00160
                  END OF CONDITIONAL                                                              *113 LM00161
                  END OF CONDITIONAL                                                              *114 LM00162
                                                                                                       LM00163
                  WHENEVER FETCH.(W1,W2,THREE(1),THREE(2))                                        *115 LM00164
                  THREE(0)=AT                                                                     *116 LM00165
                  WINS.(I,3,THREE)                                                                *117 LM00166
                  TSIZE=TSIZE+3                                                                   *118 LM00167
                  END OF CONDITIONAL                                                              *119 LM00168
                                                                                                       LM00169
                  FUNCTION RETURN                                                                 *120 LM00170
                  END OF FUNCTION                                                                 *121 LM00171
                                                                                                       LM00172
                 DELETE STATEMENT LABELS FOR CARDS                                                     LM00173
                 BETWEEN 'FROM' AND 'TO' FROM 'SL/SN'.                                                 LM00174
                                                                                                       LM00175
                  INTERNAL FUNCTION (FROM,TO)                                                     *122 LM00176
                  ENTRY TO SLDELE.                                                                *123 LM00177
                  POINT.(FROM)                                                                    *124 LM00178
                                                                                                       LM00179
      SLD         WHENEVER I.LE.TSIZE                                                             *125 LM00180
                  WHENEVER WGET.(I).LE.TO                                                         *126 LM00181
                  WDEL.(I,3)                                                                      *127 LM00182
                  TSIZE=TSIZE-3                                                                   *128 LM00183
                  TRANSFER TO SLD                                                                 *129 LM00184
                  END OF CONDITIONAL                                                              *130 LM00185
                  END OF CONDITIONAL                                                              *131 LM00186
                                                                                                       LM00187
                  THROUGH SLD1,FOR I=I,3,I.G.TSIZE                                                *132 LM00188
      SLD1        WSET.(I,WGET.(I)-(TO-FROM+1))                                                   *133 LM00189
                  FUNCTION RETURN                                                                 *134 LM00190
                  END OF FUNCTION                                                                 *135 LM00192
                                                                                                       LM00193
                 FIND POINT IN SL/SN CONTAINING INFO ON                                                LM00194
                 CARD 'NUM', OR IF NO CARD 'NUM', FIRST CARD                                           LM00195
                 INCLUDED IN SL/SN AFTER NUM, OR IF                                                    LM00196
                 NO CARD AFTER 'NUM', POINTER TO 'WINS.'                                               LM00197
                 AT END OF TABLE.                                                                      LM00198
                                                                                                       LM00199
                  INTERNAL FUNCTION (NUM)                                                         *136 LM00200
                  ENTRY TO POINT.                                                                 *137 LM00201
                  WSEEK.($SL/SN$)                                                                 *138 LM00202
                  THROUGH TLOOP,FOR I=1,3,I.G.TSIZE                                               *139 LM00203
      TLOOP       WHENEVER WGET.(I).GE.NUM,FUNCTION RETURN                                        *140 LM00204
                  FUNCTION RETURN                                                                 *141 LM00205
                  END OF FUNCTION                                                                 *142 LM00206
                                                                                                       LM00207
                 GET NAME AND NUM OF STATEMENT LABEL                                                   LM00208
                 FROM W1 AND W2. RETURN SUCCESS FLAG.                                                  LM00209
                                                                                                       LM00210
                  INTERNAL FUNCTION (W1,W2,NAME,NUM)                                              *143 LM00211
                  ENTRY TO FETCH.                                                                 *144 LM00212
                  WHENEVER W1.E.$ $.AND.W2.RS.12.E.$00$,                                          *145 LM00213
                1 FUNCTION RETURN 0B                                                              *145 LM00214
                                                                                                       LM00215
                  NFLAG=0B                                                                        *146 LM00216
                  NCOUNT=0                                                                        *147 LM00217
                  NUM=0                                                                           *148 LM00218
                  NAME=$      $                                                                   *149 LM00219
                  W=W1                                                                            *150 LM00220
                                                                                                       LM00221
                  THROUGH FLOOP,FOR FI=1,1,FI.G.10                                                *151 LM00222
                  WHENEVER FI.E.7,W=W2                                                            *152 LM00223
                  CHAR=$0$.V.W.A.77K10                                                            *153 LM00224
                                                                                                       LM00225
                  WHENEVER CHAR.E.$ $                                                             *154 LM00226
                  OR WHENEVER NFLAG                                                               *155 LM00227
                  WHENEVER CHAR.E.$)$,FUNCTION RETURN 1B                                          *156 LM00228
                  WHENEVER CHAR.RS.30.G.9,FUNCTION RETURN 0B                                      *157 LM00229
                  NUM=10*NUM+CHAR.RS.30                                                           *158 LM00230
                  OR WHENEVER CHAR.E.$($                                                          *159 LM00231
                  NFLAG=1B                                                                        *160 LM00232
                  OTHERWISE                                                                       *161 LM00233
                  NAME=NAME.A..N.(77K10.RS.NCOUNT).V.((CHAR.A.77K10).RS.NCOUNT)                   *162 LM00234
                  NCOUNT=NCOUNT+6                                                                 *163 LM00235
                  END OF CONDITIONAL                                                              *164 LM00236
                                                                                                       LM00237
      FLOOP       W=W.LS.6                                                                        *165 LM00238
                  WHENEVER NFLAG.OR.NCOUNT.G.36,FUNCTION RETURN 0B                                *166 LM00239
                  FUNCTION RETURN 1B                                                              *167 LM00240
                  END OF FUNCTION                                                                 *168 LM00241
                  END OF FUNCTION                                                                 *169 LM00242
1MAD PROGRAM,TYPE NOV 1963      (ALL NUMBERS ARE OCTAL)
0TOTAL LOCATIONS   01367 TRANSFER VECTOR LENGTH  00012 PROGRAM BEGINS    00077 FIRST UNUSED COMMON/ERASABLE  77334
0 PROGRAM IS AN EXTERNAL FUNCTION.   THE FOLLOWING ARE ENTRIES
      SLNAM  00335   0        SLNUM  00267   0        LASCRD 00255   0        INSCRD 00230   0        DELCRD 00177   0
      SETCRD 00134   0        CRD    00100   0
0VARIABLE STORAGE (A=ARRAY,C=COMMON,E=ERASABLE,DIGIT=MODE)
      CHAR   00023   1        I      00027   1        NCOUNT 00035   1        SLD1   00020   4        TLOOP  00020   4
      DELCNT 00024   1        J      00030   1        NFLAG  00036   2        SLD    00022   4        TSIZE  00044   1
      FI     00025   1        K      00031   1        PSET   00020   4        SLI    00020   4        W1     00045   1
      FLOOP  00020   4        LIST   77461 AC1        PSIZE  00037   1        SLNGET 00020   4        W2     00046   1
      GET    00020   4        LOW    00032   1        SET    00020   4        START  00040   1        W      00047   1
      HIGH   00026   1        MAD    00034 A 1        SKIP   00021   4        THREE  00043 A 1
0FUNCTION DICTIONARY
      EXIT   00000   1        GWORK  00001   1        WALLOT 00002   1        WDEL   00003   1        WGET   00004   1
      WINS   00005   1        WSEEK  00006   2        WSET   00007   1        WSETUP 00010   1        WSIZE  00011   1
      FETCH  00012   2        POINT  00013   1        PSETUP 00014   1        SLDELE 00015   1        SLINS  00016   1
      SLSTOR 00017   1
0ABSOLUTE CONSTANTS
 00064 +000000000044     00054 +000000000006     00075 -346060606060     00056 +000000000011     00063 +000000000036
 00071 +346060606060     00067 +006060606060     00076 -370000000000     00055 +000000000007     00057 +000000000012
 00066 +000060606060     00072 -075146276060     00073 -206060606060     00065 +000003641100     00050 +000000000000
 00052 +000000000002     00053 +000000000003     00074 -224361624560     00061 +000000000015     00060 +000000000014
 00062 +000000000016     00051 +000000000001     00070 +233000000000
0STATEMENT DICTIONARY
 00021 TXL -300423000421       00022 TXL -300734000730
0PROGRAM
                 EXTERNAL FUNCTION (A1,A2,A3,A4)                                    001  LM00001
                 NORMAL MODE IS INTEGER                                             002  LM00002
                 BOOLEAN WSEEK,FETCH,NFLAG                                          003  LM00003
                 PROGRAM COMMON LIST(84)                                            004  LM00004
                 DIMENSION THREE(2)                                                 005  LM00005
                 VECTOR VALUES MAD=$******   MAD$                                   006  LM00006
 00033     -2 06060 4 42124    00034     -1 45454 5 45454
                 ENTRY TO CRD.                                                      007  LM00010
 00077 TRA +0 02000 0 00102    00100 SXA +0 63400 2 01304    00101 TSX +0 07400 2 01304
                 PSETUP.                                                            008  LM00011
 00102 TSX +0 07400 4 00014
                 START=14*A1-14                                                     009  LM00012
 00103 LDQ +0 56000 0 00062    00104 MPY +0 20000 0 00000    00105 XCA +0 13100 0 00000    00106 SUB +0 40200 0 00062
 00107 STO +0 60100 0 00040
                 THROUGH GET, FOR K=1,1,K.G.12                                      010  LM00013
 00110 CLA +0 50000 0 00051    00111 STO +0 60100 0 00031    00112 TRA +0 02000 0 00116    00113 CLA +0 50000 0 00031
 00114 ADD +0 40000 0 00051    00115 STO +0 60100 0 00031    00116 CLA +0 50000 0 00031    00117 SUB +0 40200 0 00060
 00120 TZE +0 10000 0 00122    00121 TPL +0 12000 0 00132
      GET        A2(K)=WGET.(START+K)                                               011  LM00014
 00122 CLA +0 50000 0 00040    00123 ADD +0 40000 0 00031    00124 STO +0 60100 0 01364    00125 TSX +0 07400 4 00004
 00126 TXH +3 00000 0 01364    00127 LXA +0 53400 1 00031    00130 STO +0 60100 1 00000    00131 TRA +0 02000 0 00113
                 FUNCTION RETURN                                                    012  LM00015
 00132 TRA +0 02000 0 01360
                 ENTRY TO SETCRD.                                                   013  LM00019
 00133 TRA +0 02000 0 00136    00134 SXA +0 63400 2 01304    00135 TSX +0 07400 2 01304
                 PSETUP.                                                            014  LM00020
 00136 TSX +0 07400 4 00014
                 START=14*A1-14                                                     015  LM00021
 00137 LDQ +0 56000 0 00062    00140 MPY +0 20000 0 00000    00141 XCA +0 13100 0 00000    00142 SUB +0 40200 0 00062
 00143 STO +0 60100 0 00040
                 THROUGH SET, FOR K=1,1,K.G.12                                      016  LM00022
 00144 CLA +0 50000 0 00051    00145 STO +0 60100 0 00031    00146 TRA +0 02000 0 00152    00147 CLA +0 50000 0 00031
 00150 ADD +0 40000 0 00051    00151 STO +0 60100 0 00031    00152 CLA +0 50000 0 00031    00153 SUB +0 40200 0 00060
 00154 TZE +0 10000 0 00156    00155 TPL +0 12000 0 00171
      SET        WSET.(START+K,A2(K))                                               017  LM00023
 00156 CLA +0 50000 0 00031    00157 SUB +0 40200 0 00160    00160 TXH +3 00000 0 00000    00161 STA +0 62100 0 00167
 00162 CLA +0 50000 0 00040    00163 ADD +0 40000 0 00031    00164 STO +0 60100 0 01364    00165 TSX +0 07400 4 00007
 00166 TXH +3 00000 0 01364    00167 TXH +3 00000 0 00000    00170 TRA +0 02000 0 00147
                 SLSTOR.(A1,A2(1),A2(2))                                            018  LM00024
 00171 TSX +0 07400 4 00017    00172 TXH +3 00000 0 00000    00173 TXH +3 00000 0 00001    00174 TXH +3 00000 0 00002
                 FUNCTION RETURN                                                    019  LM00025
 00175 TRA +0 02000 0 01360
                 ENTRY TO DELCRD.                                                   020  LM00029
 00176 TRA +0 02000 0 00201    00177 SXA +0 63400 2 01304    00200 TSX +0 07400 2 01304
                 PSETUP.                                                            021  LM00030
 00201 TSX +0 07400 4 00014
                 DELCNT=14*(A2-A1+1)                                                022  LM00031
 00202 CLA +0 50000 0 00000    00203 SUB +0 40200 0 00000    00204 ADD +0 40000 0 00051    00205 XCA +0 13100 0 00000
 00206 MPY +0 20000 0 00062    00207 STQ -0 60000 0 00024
                 WDEL.(14*A1-13,DELCNT)                                             023  LM00032
 00210 LDQ +0 56000 0 00062    00211 MPY +0 20000 0 00000    00212 XCA +0 13100 0 00000    00213 SUB +0 40200 0 00061
 00214 STO +0 60100 0 01364    00215 TSX +0 07400 4 00003    00216 TXH +3 00000 0 01364    00217 TXH +3 00000 0 00024
                 PSIZE=PSIZE-DELCNT                                                 024  LM00033
 00220 CLA +0 50000 0 00037    00221 SUB +0 40200 0 00024    00222 STO +0 60100 0 00037
                 SLDELE.(A1,A2)                                                     025  LM00034
 00223 TSX +0 07400 4 00015    00224 TXH +3 00000 0 00000    00225 TXH +3 00000 0 00000
                 FUNCTION RETURN                                                    026  LM00035
 00226 TRA +0 02000 0 01360
                 ENTRY TO INSCRD.                                                   027  LM00039
 00227 TRA +0 02000 0 00232    00230 SXA +0 63400 2 01304    00231 TSX +0 07400 2 01304
                 PSETUP.                                                            028  LM00040
 00232 TSX +0 07400 4 00014
                 WINS.(14*A1-13,14,A2(1))                                           029  LM00041
 00233 LDQ +0 56000 0 00062    00234 MPY +0 20000 0 00000    00235 XCA +0 13100 0 00000    00236 SUB +0 40200 0 00061
 00237 STO +0 60100 0 01364    00240 TSX +0 07400 4 00005    00241 TXH +3 00000 0 01364    00242 TXH +3 00000 0 00062
 00243 TXH +3 00000 0 00001
                 PSIZE=PSIZE+14                                                     030  LM00042
 00244 CLA +0 50000 0 00037    00245 ADD +0 40000 0 00062    00246 STO +0 60100 0 00037
                 SLINS.(A1,A2(1),A2(2))                                             031  LM00043
 00247 TSX +0 07400 4 00016    00250 TXH +3 00000 0 00000    00251 TXH +3 00000 0 00001    00252 TXH +3 00000 0 00002
                 FUNCTION RETURN                                                    032  LM00044
 00253 TRA +0 02000 0 01360
                 ENTRY TO LASCRD.                                                   033  LM00048
 00254 TRA +0 02000 0 00257    00255 SXA +0 63400 2 01304    00256 TSX +0 07400 2 01304
                 PSETUP.                                                            034  LM00049
 00257 TSX +0 07400 4 00014
                 A1=PSIZE/14                                                        035  LM00050
 00260 LDQ +0 56000 0 00037    00261 PXD -0 75400 0 00000    00262 LLS +0 76300 0 00000    00263 DVP +0 22100 0 00062
 00264 STQ -0 60000 0 00000
                 FUNCTION RETURN                                                    036  LM00051
 00265 TRA +0 02000 0 01360
                 ENTRY TO SLNUM.                                                    037  LM00056
 00266 TRA +0 02000 0 00271    00267 SXA +0 63400 2 01304    00270 TSX +0 07400 2 01304
                 PSETUP.                                                            038  LM00057
 00271 TSX +0 07400 4 00014
                 WSEEK.($SL/SN$)                                                    039  LM00058
 00272 TSX +0 07400 4 00006    00273 TXH +3 00000 0 00074
                 THROUGH SLNGET, FOR K=1,3,K.G.TSIZE                                040  LM00059
 00274 CLA +0 50000 0 00051    00275 STO +0 60100 0 00031    00276 TRA +0 02000 0 00302    00277 CLA +0 50000 0 00031
 00300 ADD +0 40000 0 00053    00301 STO +0 60100 0 00031    00302 CLA +0 50000 0 00031    00303 SUB +0 40200 0 00044
 00304 TZE +0 10000 0 00306    00305 TPL +0 12000 0 00331
                 WHENEVER WGET.(K+1).E.A2.AND.WGET.(K+2).E.A3                       041  LM00060
 00306 CLA +0 50000 0 00031    00307 ADD +0 40000 0 00052    00310 STO +0 60100 0 01364    00311 TSX +0 07400 4 00004
 00312 TXH +3 00000 0 01364    00313 SUB +0 40200 0 00000    00314 TNZ -0 10000 0 00330    00315 CLA +0 50000 0 00031
 00316 ADD +0 40000 0 00051    00317 STO +0 60100 0 01364    00320 TSX +0 07400 4 00004    00321 TXH +3 00000 0 01364
 00322 SUB +0 40200 0 00000    00323 TNZ -0 10000 0 00330
                 A1=WGET.(K)                                                        042  LM00061
 00324 TSX +0 07400 4 00004    00325 TXH +3 00000 0 00031    00326 STO +0 60100 0 00000
                 FUNCTION RETURN                                                    043  LM00062
 00327 TRA +0 02000 0 01360
      SLNGET     END OF CONDITIONAL                                                 044  LM00063
 00330 TRA +0 02000 0 00277
                 A1=0                                                               045  LM00065
 00331 CLA +0 50000 0 00050    00332 STO +0 60100 0 00000
                 FUNCTION RETURN                                                    046  LM00066
 00333 TRA +0 02000 0 01360
                 ENTRY TO SLNAM.                                                    047  LM00072
 00334 TRA +0 02000 0 00337    00335 SXA +0 63400 2 01304    00336 TSX +0 07400 2 01304
                 PSETUP.                                                            048  LM00073
 00337 TSX +0 07400 4 00014
                 WHENEVER TSIZE.E.0                                                 049  LM00074
 00340 CLA +0 50000 0 00044    00341 SUB +0 40200 0 00050    00342 TNZ -0 10000 0 00346
                 A4=A1                                                              050  LM00075
 00343 CLA +0 50000 0 00000    00344 STO +0 60100 0 00000
                 TRANSFER TO SKIP                                                   051  LM00076
 00345 TRA +0 02000 0 00021
                 END OF CONDITIONAL                                                 052  LM00077
                 POINT.(A1)                                                         053  LM00078
 00346 TSX +0 07400 4 00013    00347 TXH +3 00000 0 00000
                 WHENEVER I.G.TSIZE                                                 054  LM00080
 00350 CLA +0 50000 0 00027    00351 SUB +0 40200 0 00044    00352 TZE +0 10000 0 00357    00353 TMI -0 12000 0 00357
                 HIGH=1000000                                                       055  LM00081
 00354 CLA +0 50000 0 00065    00355 STO +0 60100 0 00026
                 OTHERWISE                                                          056  LM00082
 00356 TRA +0 02000 0 00363
                 HIGH=WGET.(I)-A1                                                   057  LM00083
 00357 TSX +0 07400 4 00004    00360 TXH +3 00000 0 00027    00361 SUB +0 40200 0 00000    00362 STO +0 60100 0 00026
                 END OF CONDITIONAL                                                 058  LM00084
                 WHENEVER I.E.1                                                     059  LM00086
 00363 CLA +0 50000 0 00027    00364 SUB +0 40200 0 00051    00365 TNZ -0 10000 0 00371
                 LOW=A1                                                             060  LM00087
 00366 CLA +0 50000 0 00000    00367 STO +0 60100 0 00032
                 OTHERWISE                                                          061  LM00088
 00370 TRA +0 02000 0 00401
                 LOW=A1-WGET.(I-3)                                                  062  LM00089
 00371 CLA +0 50000 0 00027    00372 SUB +0 40200 0 00053    00373 STO +0 60100 0 01364    00374 TSX +0 07400 4 00004
 00375 TXH +3 00000 0 01364    00376 CHS +0 76000 0 00002    00377 ADD +0 40000 0 00000    00400 STO +0 60100 0 00032
                 END OF CONDITIONAL                                                 063  LM00090
                 WHENEVER LOW.LE.HIGH                                               064  LM00092
 00401 CLA +0 50000 0 00032    00402 SUB +0 40200 0 00026    00403 TZE +0 10000 0 00405    00404 TPL +0 12000 0 00413
                 I=I-3                                                              065  LM00093
 00405 CLA +0 50000 0 00027    00406 SUB +0 40200 0 00053    00407 STO +0 60100 0 00027
                 A4=LOW                                                             066  LM00094
 00410 CLA +0 50000 0 00032    00411 STO +0 60100 0 00000
                 OTHERWISE                                                          067  LM00095
 00412 TRA +0 02000 0 00415
                 A4=-HIGH                                                           068  LM00096
 00413 CLS +0 50200 0 00026    00414 STO +0 60100 0 00000
                 END OF CONDITIONAL                                                 069  LM00097
                 WHENEVER I.L.0                                                     070  LM00099
 00415 CLA +0 50000 0 00027    00416 SUB +0 40200 0 00050    00417 TZE +0 10000 0 00426    00420 TPL +0 12000 0 00426
      SKIP       A2=$      $                                                        071  LM00100
 00421 CLA +0 50000 0 00073    00422 STO +0 60100 0 00000
                 A3=0                                                               072  LM00101
 00423 CLA +0 50000 0 00050    00424 STO +0 60100 0 00000
                 OTHERWISE                                                          073  LM00102
 00425 TRA +0 02000 0 00442
                 A2=WGET.(I+1)                                                      074  LM00103
 00426 CLA +0 50000 0 00027    00427 ADD +0 40000 0 00051    00430 STO +0 60100 0 01364    00431 TSX +0 07400 4 00004
 00432 TXH +3 00000 0 01364    00433 STO +0 60100 0 00000
                 A3=WGET.(I+2)                                                      075  LM00104
 00434 CLA +0 50000 0 00027    00435 ADD +0 40000 0 00052    00436 STO +0 60100 0 01364    00437 TSX +0 07400 4 00004
 00440 TXH +3 00000 0 01364    00441 STO +0 60100 0 00000
                 END OF CONDITIONAL                                                 076  LM00105
                 FUNCTION RETURN                                                    077  LM00107
 00442 TRA +0 02000 0 01360
                 INTERNAL FUNCTION                                                  078  LM00111
 00443 TRA +0 02000 0 00541
                 ENTRY TO PSETUP.                                                   079  LM00112
 00444 TRA +0 02000 0 00447    00014 TTR +0 02100 0 00445    00445 SXA +0 63400 2 00530    00446 TSX +0 07400 2 00530
                 WHENEVER WSEEK.($PROG$),FUNCTION RETURN                            080  LM00113
 00447 TSX +0 07400 4 00006    00450 TXH +3 00000 0 00072    00451 TZE +0 10000 0 00453    00452 TRA +0 02000 0 00534
                 GWORK.(MAD)                                                        081  LM00115
 00453 TSX +0 07400 4 00001    00454 TXH +3 00000 0 00034
                 WALLOT.($SL/SN$)                                                   082  LM00116
 00455 TSX +0 07400 4 00002    00456 TXH +3 00000 0 00074
                 WSETUP.($PROG$,MAD,0)                                              083  LM00117
 00457 TSX +0 07400 4 00010    00460 TXH +3 00000 0 00072    00461 TXH +3 00000 0 00034    00462 TXH +3 00000 0 00050
                 WSIZE.(PSIZE)                                                      084  LM00118
 00463 TSX +0 07400 4 00011    00464 TXH +3 00000 0 00037
                 TSIZE=0                                                            085  LM00119
 00465 CLA +0 50000 0 00050    00466 STO +0 60100 0 00044
                 THROUGH PSET, FOR J=1,14,J.G.PSIZE                                 086  LM00120
 00467 CLA +0 50000 0 00051    00470 STO +0 60100 0 00030    00471 TRA +0 02000 0 00475    00472 CLA +0 50000 0 00030
 00473 ADD +0 40000 0 00062    00474 STO +0 60100 0 00030    00475 CLA +0 50000 0 00030    00476 SUB +0 40200 0 00037
 00477 TZE +0 10000 0 00501    00500 TPL +0 12000 0 00526
                 W1=WGET.(J)                                                        087  LM00121
 00501 TSX +0 07400 4 00004    00502 TXH +3 00000 0 00030    00503 STO +0 60100 0 00045
                 W2=WGET.(J+1)                                                      088  LM00122
 00504 CLA +0 50000 0 00030    00505 ADD +0 40000 0 00051    00506 STO +0 60100 0 00540    00507 TSX +0 07400 4 00004
 00510 TXH +3 00000 0 00540    00511 STO +0 60100 0 00046
                 SLINS.((J+13)/14,W1,W2)                                            089  LM00123
 00512 CLA +0 50000 0 00030    00513 ADD +0 40000 0 00061    00514 LRS +0 76500 0 00043    00515 DVP +0 22100 0 00062
 00516 STQ -0 60000 0 00540    00517 TSX +0 07400 4 00016    00520 TXH +3 00000 0 00540    00521 TXH +3 00000 0 00045
 00522 TXH +3 00000 0 00046
      PSET       WSEEK.($PROG$)                                                     090  LM00124
 00523 TSX +0 07400 4 00006    00524 TXH +3 00000 0 00072    00525 TRA +0 02000 0 00472
                 FUNCTION RETURN                                                    091  LM00126
 00526 TRA +0 02000 0 00534
                 END OF FUNCTION                                                    092  LM00127
 00527 TSX +0 07400 4 00000    00530 TXH +3 00000 0 00000    00531 SXD -0 63400 1 00530    00532 SXA +0 63400 4 00534
 00533 TRA +0 02000 2 00001    00534 AXT +0 77400 4 00000    00535 LXA +0 53400 2 00530    00536 LXD -0 53400 1 00530
 00537 TRA +0 02000 4 00001
                 INTERNAL FUNCTION(BEFORE,W1,W2)                                    093  LM00133
 00541 TRA +0 02000 0 00635
                 ENTRY TO SLINS.                                                    094  LM00134
 00542 TRA +0 02000 0 00545    00016 TTR +0 02100 0 00543    00543 SXA +0 63400 2 00615    00544 TSX +0 07400 2 00615
                 POINT.(BEFORE)                                                     095  LM00135
 00545 TSX +0 07400 4 00013    00546 TXH +3 00000 0 00000
                 WHENEVER FETCH.(W1,W2,THREE(1),THREE(2))                           096  LM00137
 00547 TSX +0 07400 4 00012    00550 TXH +3 00000 0 00000    00551 TXH +3 00000 0 00000    00552 TXH +3 00000 0 00042
 00553 TXH +3 00000 0 00041    00554 TZE +0 10000 0 00571
                 THREE(0)=BEFORE                                                    097  LM00138
 00555 CLA +0 50000 0 00000    00556 STO +0 60100 0 00043
                 WINS.(I,3,THREE)                                                   098  LM00139
 00557 TSX +0 07400 4 00005    00560 TXH +3 00000 0 00027    00561 TXH +3 00000 0 00053    00562 TXH +3 00000 0 00043
                 I=I+3                                                              099  LM00140
 00563 CLA +0 50000 0 00027    00564 ADD +0 40000 0 00053    00565 STO +0 60100 0 00027
                 TSIZE=TSIZE+3                                                      100  LM00141
 00566 CLA +0 50000 0 00044    00567 ADD +0 40000 0 00053    00570 STO +0 60100 0 00044
                 END OF CONDITIONAL                                                 101  LM00142
                 THROUGH SLI,FOR I=I,3,I.G.TSIZE                                    102  LM00144
 00571 CLA +0 50000 0 00027    00572 STO +0 60100 0 00027    00573 TRA +0 02000 0 00577    00574 CLA +0 50000 0 00027
 00575 ADD +0 40000 0 00053    00576 STO +0 60100 0 00027    00577 CLA +0 50000 0 00027    00600 SUB +0 40200 0 00044
 00601 TZE +0 10000 0 00603    00602 TPL +0 12000 0 00613
      SLI        WSET.(I,WGET.(I)+1)                                                103  LM00145
 00603 TSX +0 07400 4 00004    00604 TXH +3 00000 0 00027    00605 ADD +0 40000 0 00051    00606 STO +0 60100 0 00634
 00607 TSX +0 07400 4 00007    00610 TXH +3 00000 0 00027    00611 TXH +3 00000 0 00634    00612 TRA +0 02000 0 00574
                 FUNCTION RETURN                                                    104  LM00147
 00613 TRA +0 02000 0 00630
                 END OF FUNCTION                                                    105  LM00148
 00614 TSX +0 07400 4 00000    00615 TXH +3 00000 0 00000    00616 SXD -0 63400 1 00615    00617 SXA +0 63400 4 00630
 00620 CLA +0 50000 4 00001    00621 STO +0 60100 0 00546    00622 STA +0 62100 0 00555    00623 CLA +0 50000 4 00002
 00624 STO +0 60100 0 00550    00625 CLA +0 50000 4 00003    00626 STO +0 60100 0 00551    00627 TRA +0 02000 2 00001
 00630 AXT +0 77400 4 00000    00631 LXA +0 53400 2 00615    00632 LXD -0 53400 1 00615    00633 TRA +0 02000 4 00001
                 INTERNAL FUNCTION(AT,W1,W2)                                        106  LM00153
 00635 TRA +0 02000 0 00722
                 ENTRY TO SLSTOR.                                                   107  LM00154
 00636 TRA +0 02000 0 00641    00017 TTR +0 02100 0 00637    00637 SXA +0 63400 2 00702    00640 TSX +0 07400 2 00702
                 POINT.(AT)                                                         108  LM00155
 00641 TSX +0 07400 4 00013    00642 TXH +3 00000 0 00000
                 WHENEVER I.LE.TSIZE                                                109  LM00157
 00643 CLA +0 50000 0 00027    00644 SUB +0 40200 0 00044    00645 TZE +0 10000 0 00647    00646 TPL +0 12000 0 00661
                 WHENEVER WGET.(I).E.AT                                             110  LM00158
 00647 TSX +0 07400 4 00004    00650 TXH +3 00000 0 00027    00651 SUB +0 40200 0 00000    00652 TNZ -0 10000 0 00661
                 WDEL.(I,3)                                                         111  LM00159
 00653 TSX +0 07400 4 00003    00654 TXH +3 00000 0 00027    00655 TXH +3 00000 0 00053
                 TSIZE=TSIZE-3                                                      112  LM00160
 00656 CLA +0 50000 0 00044    00657 SUB +0 40200 0 00053    00660 STO +0 60100 0 00044
                 END OF CONDITIONAL                                                 113  LM00161
                 END OF CONDITIONAL                                                 114  LM00162
                 WHENEVER FETCH.(W1,W2,THREE(1),THREE(2))                           115  LM00164
 00661 TSX +0 07400 4 00012    00662 TXH +3 00000 0 00000    00663 TXH +3 00000 0 00000    00664 TXH +3 00000 0 00042
 00665 TXH +3 00000 0 00041    00666 TZE +0 10000 0 00700
                 THREE(0)=AT                                                        116  LM00165
 00667 CLA +0 50000 0 00000    00670 STO +0 60100 0 00043
                 WINS.(I,3,THREE)                                                   117  LM00166
 00671 TSX +0 07400 4 00005    00672 TXH +3 00000 0 00027    00673 TXH +3 00000 0 00053    00674 TXH +3 00000 0 00043
                 TSIZE=TSIZE+3                                                      118  LM00167
 00675 CLA +0 50000 0 00044    00676 ADD +0 40000 0 00053    00677 STO +0 60100 0 00044
                 END OF CONDITIONAL                                                 119  LM00168
                 FUNCTION RETURN                                                    120  LM00170
 00700 TRA +0 02000 0 00716
                 END OF FUNCTION                                                    121  LM00171
 00701 TSX +0 07400 4 00000    00702 TXH +3 00000 0 00000    00703 SXD -0 63400 1 00702    00704 SXA +0 63400 4 00716
 00705 CLA +0 50000 4 00001    00706 STO +0 60100 0 00642    00707 STA +0 62100 0 00651    00710 STA +0 62100 0 00667
 00711 CLA +0 50000 4 00002    00712 STO +0 60100 0 00662    00713 CLA +0 50000 4 00003    00714 STO +0 60100 0 00663
 00715 TRA +0 02000 2 00001    00716 AXT +0 77400 4 00000    00717 LXA +0 53400 2 00702    00720 LXD -0 53400 1 00702
 00721 TRA +0 02000 4 00001
                 INTERNAL FUNCTION (FROM,TO)                                        122  LM00176
 00722 TRA +0 02000 0 01017
                 ENTRY TO SLDELE.                                                   123  LM00177
 00723 TRA +0 02000 0 00726    00015 TTR +0 02100 0 00724    00724 SXA +0 63400 2 01000    00725 TSX +0 07400 2 01000
                 POINT.(FROM)                                                       124  LM00178
 00726 TSX +0 07400 4 00013    00727 TXH +3 00000 0 00000
      SLD        WHENEVER I.LE.TSIZE                                                125  LM00180
 00730 CLA +0 50000 0 00027    00731 SUB +0 40200 0 00044    00732 TZE +0 10000 0 00734    00733 TPL +0 12000 0 00750
                 WHENEVER WGET.(I).LE.TO                                            126  LM00181
 00734 TSX +0 07400 4 00004    00735 TXH +3 00000 0 00027    00736 SUB +0 40200 0 00000    00737 TZE +0 10000 0 00741
 00740 TPL +0 12000 0 00750
                 WDEL.(I,3)                                                         127  LM00182
 00741 TSX +0 07400 4 00003    00742 TXH +3 00000 0 00027    00743 TXH +3 00000 0 00053
                 TSIZE=TSIZE-3                                                      128  LM00183
 00744 CLA +0 50000 0 00044    00745 SUB +0 40200 0 00053    00746 STO +0 60100 0 00044
                 TRANSFER TO SLD                                                    129  LM00184
 00747 TRA +0 02000 0 00022
                 END OF CONDITIONAL                                                 130  LM00185
                 END OF CONDITIONAL                                                 131  LM00186
                 THROUGH SLD1,FOR I=I,3,I.G.TSIZE                                   132  LM00188
 00750 CLA +0 50000 0 00027    00751 STO +0 60100 0 00027    00752 TRA +0 02000 0 00756    00753 CLA +0 50000 0 00027
 00754 ADD +0 40000 0 00053    00755 STO +0 60100 0 00027    00756 CLA +0 50000 0 00027    00757 SUB +0 40200 0 00044
 00760 TZE +0 10000 0 00762    00761 TPL +0 12000 0 00776
      SLD1       WSET.(I,WGET.(I)-(TO-FROM+1))                                      133  LM00189
 00762 CLA +0 50000 0 00000    00763 SUB +0 40200 0 00000    00764 ADD +0 40000 0 00051    00765 STO +0 60100 0 01016
 00766 TSX +0 07400 4 00004    00767 TXH +3 00000 0 00027    00770 SUB +0 40200 0 01016    00771 STO +0 60100 0 01016
 00772 TSX +0 07400 4 00007    00773 TXH +3 00000 0 00027    00774 TXH +3 00000 0 01016    00775 TRA +0 02000 0 00753
                 FUNCTION RETURN                                                    134  LM00190
 00776 TRA +0 02000 0 01012
                 END OF FUNCTION                                                    135  LM00192
 00777 TSX +0 07400 4 00000    01000 TXH +3 00000 0 00000    01001 SXD -0 63400 1 01000    01002 SXA +0 63400 4 01012
 01003 CLA +0 50000 4 00001    01004 STO +0 60100 0 00727    01005 STA +0 62100 0 00763    01006 CLA +0 50000 4 00002
 01007 STA +0 62100 0 00736    01010 STA +0 62100 0 00762    01011 TRA +0 02000 2 00001    01012 AXT +0 77400 4 00000
 01013 LXA +0 53400 2 01000    01014 LXD -0 53400 1 01000    01015 TRA +0 02000 4 00001
                 INTERNAL FUNCTION (NUM)                                            136  LM00200
 01017 TRA +0 02000 0 01062
                 ENTRY TO POINT.                                                    137  LM00201
 01020 TRA +0 02000 0 01023    00013 TTR +0 02100 0 01021    01021 SXA +0 63400 2 01050    01022 TSX +0 07400 2 01050
                 WSEEK.($SL/SN$)                                                    138  LM00202
 01023 TSX +0 07400 4 00006    01024 TXH +3 00000 0 00074
                 THROUGH TLOOP,FOR I=1,3,I.G.TSIZE                                  139  LM00203
 01025 CLA +0 50000 0 00051    01026 STO +0 60100 0 00027    01027 TRA +0 02000 0 01033    01030 CLA +0 50000 0 00027
 01031 ADD +0 40000 0 00053    01032 STO +0 60100 0 00027    01033 CLA +0 50000 0 00027    01034 SUB +0 40200 0 00044
 01035 TZE +0 10000 0 01037    01036 TPL +0 12000 0 01046
      TLOOP      WHENEVER WGET.(I).GE.NUM,FUNCTION RETURN                           140  LM00204
 01037 TSX +0 07400 4 00004    01040 TXH +3 00000 0 00027    01041 SUB +0 40200 0 00000    01042 TZE +0 10000 0 01044
 01043 TMI -0 12000 0 01045    01044 TRA +0 02000 0 01056    01045 TRA +0 02000 0 01030
                 FUNCTION RETURN                                                    141  LM00205
 01046 TRA +0 02000 0 01056
                 END OF FUNCTION                                                    142  LM00206
 01047 TSX +0 07400 4 00000    01050 TXH +3 00000 0 00000    01051 SXD -0 63400 1 01050    01052 SXA +0 63400 4 01056
 01053 CLA +0 50000 4 00001    01054 STA +0 62100 0 01041    01055 TRA +0 02000 2 00001    01056 AXT +0 77400 4 00000
 01057 LXA +0 53400 2 01050    01060 LXD -0 53400 1 01050    01061 TRA +0 02000 4 00001
                 INTERNAL FUNCTION (W1,W2,NAME,NUM)                                 143  LM00211
 01062 TRA +0 02000 0 01302
                 ENTRY TO FETCH.                                                    144  LM00212
 01063 TRA +0 02000 0 01066    00012 TTR +0 02100 0 01064    01064 SXA +0 63400 2 01253    01065 TSX +0 07400 2 01253
                 WHENEVER W1.E.$ $.AND.W2.RS.12.E.$00$,                             145  LM00213
                1FUNCTION RETURN 0B                                                 145  LM00214
 01066 CAL -0 50000 0 00060    01067 STA +0 62100 0 01071    01070 CAL -0 50000 0 00000    01071 LGR -0 76500 0 00000
 01072 SLW +0 60200 0 01301    01073 CLA +0 50000 0 01301    01074 SUB +0 40200 0 00066    01075 TNZ -0 10000 0 01103
 01076 CLA +0 50000 0 00000    01077 SUB +0 40200 0 00073    01100 TNZ -0 10000 0 01103    01101 CLA +0 50000 0 00050
 01102 TRA +0 02000 0 01275
                 NFLAG=0B                                                           146  LM00216
 01103 CLA +0 50000 0 00050    01104 STO +0 60100 0 00036
                 NCOUNT=0                                                           147  LM00217
 01105 CLA +0 50000 0 00050    01106 STO +0 60100 0 00035
                 NUM=0                                                              148  LM00218
 01107 CLA +0 50000 0 00050    01110 STO +0 60100 0 00000
                 NAME=$      $                                                      149  LM00219
 01111 CLA +0 50000 0 00073    01112 STO +0 60100 0 00000
                 W=W1                                                               150  LM00220
 01113 CLA +0 50000 0 00000    01114 STO +0 60100 0 00047
                 THROUGH FLOOP,FOR FI=1,1,FI.G.10                                   151  LM00222
 01115 CLA +0 50000 0 00051    01116 STO +0 60100 0 00025    01117 TRA +0 02000 0 01123    01120 CLA +0 50000 0 00025
 01121 ADD +0 40000 0 00051    01122 STO +0 60100 0 00025    01123 CLA +0 50000 0 00025    01124 SUB +0 40200 0 00057
 01125 TZE +0 10000 0 01127    01126 TPL +0 12000 0 01240
                 WHENEVER FI.E.7,W=W2                                               152  LM00223
 01127 CLA +0 50000 0 00025    01130 SUB +0 40200 0 00055    01131 TNZ -0 10000 0 01134    01132 CLA +0 50000 0 00000
 01133 STO +0 60100 0 00047
                 CHAR=$0$.V.W.A.77K10                                               153  LM00224
 01134 CAL -0 50000 0 00047    01135 ANA -0 32000 0 00076    01136 ORA -0 50100 0 00067    01137 SLW +0 60200 0 00023
                 WHENEVER CHAR.E.$ $                                                154  LM00226
 01140 CLA +0 50000 0 00023    01141 SUB +0 40200 0 00073    01142 TNZ -0 10000 0 01144
                 OR WHENEVER NFLAG                                                  155  LM00227
 01143 TRA +0 02000 0 01232    01144 NZT -0 52000 0 00036    01145 TRA +0 02000 0 01201
                 WHENEVER CHAR.E.$)$,FUNCTION RETURN 1B                             156  LM00228
 01146 CLA +0 50000 0 00023    01147 SUB +0 40200 0 00071    01150 TNZ -0 10000 0 01153    01151 CLA +0 50000 0 00051
 01152 TRA +0 02000 0 01275
                 WHENEVER CHAR.RS.30.G.9,FUNCTION RETURN 0B                         157  LM00229
 01153 CAL -0 50000 0 00063    01154 STA +0 62100 0 01156    01155 CAL -0 50000 0 00023    01156 LGR -0 76500 0 00000
 01157 SLW +0 60200 0 01301    01160 CLA +0 50000 0 01301    01161 SUB +0 40200 0 00056    01162 TZE +0 10000 0 01166
 01163 TMI -0 12000 0 01166    01164 CLA +0 50000 0 00050    01165 TRA +0 02000 0 01275
                 NUM=10*NUM+CHAR.RS.30                                              158  LM00230
 01166 CAL -0 50000 0 00063    01167 STA +0 62100 0 01171    01170 CAL -0 50000 0 00023    01171 LGR -0 76500 0 00000
 01172 SLW +0 60200 0 01301    01173 LDQ +0 56000 0 00057    01174 MPY +0 20000 0 00000    01175 XCA +0 13100 0 00000
 01176 ADD +0 40000 0 01301    01177 STO +0 60100 0 00000
                 OR WHENEVER CHAR.E.$($                                             159  LM00231
 01200 TRA +0 02000 0 01232    01201 CLA +0 50000 0 00023    01202 SUB +0 40200 0 00075    01203 TNZ -0 10000 0 01207
                 NFLAG=1B                                                           160  LM00232
 01204 CLA +0 50000 0 00051    01205 STO +0 60100 0 00036
                 OTHERWISE                                                          161  LM00233
 01206 TRA +0 02000 0 01232
                 NAME=NAME.A..N.(77K10.RS.NCOUNT).V.((CHAR.A.77K10).RS.NCOUNT)      162  LM00234
 01207 CAL -0 50000 0 00023    01210 ANA -0 32000 0 00076    01211 SLW +0 60200 0 01301    01212 CAL -0 50000 0 00035
 01213 STA +0 62100 0 01215    01214 CAL -0 50000 0 01301    01215 LGR -0 76500 0 00000    01216 SLW +0 60200 0 01301
 01217 CAL -0 50000 0 00035    01220 STA +0 62100 0 01222    01221 CAL -0 50000 0 00076    01222 LGR -0 76500 0 00000
 01223 COM +0 76000 0 00006    01224 ANA -0 32000 0 00000    01225 ORA -0 50100 0 01301    01226 SLW +0 60200 0 00000
                 NCOUNT=NCOUNT+6                                                    163  LM00235
 01227 CLA +0 50000 0 00035    01230 ADD +0 40000 0 00054    01231 STO +0 60100 0 00035
                 END OF CONDITIONAL                                                 164  LM00236
      FLOOP      W=W.LS.6                                                           165  LM00238
 01232 CAL -0 50000 0 00054    01233 STA +0 62100 0 01235    01234 CAL -0 50000 0 00047    01235 ALS +0 76700 0 00000
 01236 SLW +0 60200 0 00047    01237 TRA +0 02000 0 01120
                 WHENEVER NFLAG.OR.NCOUNT.G.36,FUNCTION RETURN 0B                   166  LM00239
 01240 CLA +0 50000 0 00035    01241 SUB +0 40200 0 00064    01242 TZE +0 10000 0 01244    01243 TPL +0 12000 0 01246
 01244 NZT -0 52000 0 00036    01245 TRA +0 02000 0 01250    01246 CLA +0 50000 0 00050    01247 TRA +0 02000 0 01275
                 FUNCTION RETURN 1B                                                 167  LM00240
 01250 CLA +0 50000 0 00051    01251 TRA +0 02000 0 01275
                 END OF FUNCTION                                                    168  LM00241
 01252 TSX +0 07400 4 00000    01253 TXH +3 00000 0 00000    01254 SXD -0 63400 1 01253    01255 SXA +0 63400 4 01275
 01256 CLA +0 50000 4 00001    01257 STA +0 62100 0 01076    01260 STA +0 62100 0 01113    01261 CLA +0 50000 4 00002
 01262 STA +0 62100 0 01070    01263 STA +0 62100 0 01132    01264 CLA +0 50000 4 00003    01265 STA +0 62100 0 01112
 01266 STA +0 62100 0 01224    01267 STA +0 62100 0 01226    01270 CLA +0 50000 4 00004    01271 STA +0 62100 0 01110
 01272 STA +0 62100 0 01174    01273 STA +0 62100 0 01177    01274 TRA +0 02000 2 00001    01275 AXT +0 77400 4 00000
 01276 LXA +0 53400 2 01253    01277 LXD -0 53400 1 01253    01300 TRA +0 02000 4 00001
                 END OF FUNCTION                                                    169  LM00242
 01302 TSX +0 07400 4 00000    01303 PZE +0 00000 0 00001    01304 TXH +3 00000 0 00000    01305 SXD -0 63400 1 01304
 01306 SXA +0 63400 4 01360    01307 CLA +0 50000 4 00001    01310 STA +0 62100 0 00104    01311 STA +0 62100 0 00140
 01312 STO +0 60100 0 00172    01313 STA +0 62100 0 00203    01314 STA +0 62100 0 00211    01315 STO +0 60100 0 00224
 01316 STA +0 62100 0 00234    01317 STO +0 60100 0 00250    01320 STA +0 62100 0 00264    01321 STA +0 62100 0 00326
 01322 STA +0 62100 0 00332    01323 STA +0 62100 0 00343    01324 STO +0 60100 0 00347    01325 STA +0 62100 0 00361
 01326 STA +0 62100 0 00366    01327 STA +0 62100 0 00377    01330 CLA +0 50000 4 00002    01331 STA +0 62100 0 00130
 01332 STO +0 60100 0 00160    01333 STA +0 62100 0 00202    01334 STO +0 60100 0 00225    01335 STA +0 62100 0 00322
 01336 STA +0 62100 0 00422    01337 STA +0 62100 0 00433    01340 SUB +0 40200 0 01303    01341 STO +0 60100 0 00173
 01342 STO +0 60100 0 00243    01343 STO +0 60100 0 00251    01344 SUB +0 40200 0 01303    01345 STO +0 60100 0 00174
 01346 STO +0 60100 0 00252    01347 CLA +0 50000 4 00003    01350 STA +0 62100 0 00313    01351 STA +0 62100 0 00424
 01352 STA +0 62100 0 00441    01353 CLA +0 50000 4 00004    01354 STA +0 62100 0 00344    01355 STA +0 62100 0 00411
 01356 STA +0 62100 0 00414    01357 TRA +0 02000 2 00001    01360 AXT +0 77400 4 00000    01361 LXA +0 53400 2 01304
 01362 LXD -0 53400 1 01304    01363 TRA +0 02000 4 00001
