1                                                                                06/22/70 1521.7 PAGE 1

                       00004         ENTRY   INITDT
                       00014         ENTRY   FREEDT

        TRANSFER VECTOR
      00000  242565632243     DEVTBL

      00001  0774 00 0 00000  *EVEN*

        LINKAGE DIRECTOR
      00002  000000000000
      00003  314531632463

      00004  0636 00 4 00012  INITDT SCA     DT1,4
      00005  0074 00 4 00000         TSX     $DEVTBL,4
      00006  0 00000 0 00036         PZE     D1
      00007  0 00000 0 00240         PZE     D2
      00010  0 00000 0 00442         PZE     D3
      00011  0 00000 0 00644         PZE     D4
      00012 -0774 00 4 00000  DT1    AXC     **,4
      00013  0020 00 4 00001         TRA     1,4
                              *
      00014  0636 00 1 00032  FREEDT SCA     DT2,1
      00015  0636 00 4 00033         SCA     DT2+1,4
      00016  0774 00 4 00202         AXT     130,4
      00017 -0774 00 2 00036         AXC     D1,2
      00020  1 77774 2 00021  DT3    TXI     *+1,2,-4
      00021  0756 00 2 00000         PCA     ,2
      00022  0602 00 2 77774         SLW     -4,2
      00023  0600 00 2 77775         STZ     -3,2
      00024  0600 00 2 77776         STZ     -2,2
      00025  0600 00 2 77777         STZ     -1,2
      00026  2 00001 4 00020         TIX     DT3,4,1
      00027  0756 00 5 00000         PCA     ,5
      00030  0602 00 2 77774         SLW     -4,2
      00031 -0774 00 5 00036         AXC     D1,5
      00032 -0774 00 1 00000  DT2    AXC     **,1
      00033 -0774 00 4 00000         AXC     **,4
      00034  0020 00 4 00001         TRA     1,4
                              *
      00035  0774 00 0 00000         EVEN
                              *
                              DEV    MACRO   A,B,C,D,E,F
                                     VFD     O8/A,O8/B,2/C,2/0,O8/E,O8/F
                                     END     DEV
                              *
                       00036  D1     SYN     *
                              *      M37 DEVICE TABLE
      00036 +000000000134            OCT     134,0
      00037 +000000000000
      00040                          DEV     000,000,3,0,000,204 000
      00041                          DEV     001,001,3,0,001,204 001
      00042                          DEV     002,002,3,0,002,204 002
      00043                          DEV     003,003,3,0,003,204 003
      00044                          DEV     004,004,3,0,004,204 004
      00045                          DEV     005,005,3,0,005,210 005
      00046                          DEV     006,006,3,0,006,210 006
1                                                                                06/22/70 1521.7 PAGE 2

      00047                          DEV     007,007,3,0,007,210 007
      00050                          DEV     010,010,3,0,010,211 010
      00051                          DEV     011,011,3,0,011,207 011
      00052                          DEV     203,012,3,0,012,205 012
      00053                          DEV     162,201,3,0,013,210 013
      00054                          DEV     014,014,3,0,014,210 014
      00055                          DEV     015,015,3,0,015,015 015
      00056                          DEV     016,016,3,0,016,210 016
      00057                          DEV     017,017,3,0,017,210 017
      00060                          DEV     020,020,3,0,020,204 020
      00061                          DEV     021,021,3,0,021,204 021
      00062                          DEV     022,022,3,0,022,210 022
      00063                          DEV     023,023,3,0,023,204 023
      00064                          DEV     024,024,3,0,024,210 024
      00065                          DEV     025,025,3,0,025,210 025
      00066                          DEV     026,026,3,0,026,204 026
      00067                          DEV     027,027,3,0,027,204 027
      00070                          DEV     030,030,3,0,142,201 030
      00071                          DEV     031,031,3,0,143,201 031
      00072                          DEV     032,032,3,0,145,201 032
      00073                          DEV     033,033,3,0,033,210 033
      00074                          DEV     034,034,3,0,146,201 034
      00075                          DEV     035,035,3,0,153,201 035
      00076                          DEV     036,036,3,0,162,201 036
      00077                          DEV     037,037,3,0,167,201 037
      00100                          DEV     040,040,3,0,040,040 040
      00101                          DEV     041,041,3,0,041,041 041
      00102                          DEV     042,042,3,0,042,042 042
      00103                          DEV     043,043,3,0,043,043 043
      00104                          DEV     044,044,3,0,044,044 044
      00105                          DEV     045,045,3,0,045,045 045
      00106                          DEV     046,046,3,0,046,046 046
      00107                          DEV     047,047,3,0,047,047 047
      00110                          DEV     050,050,3,0,050,050 050
      00111                          DEV     051,051,3,0,051,051 051
      00112                          DEV     052,052,3,0,052,052 052
      00113                          DEV     053,053,3,0,053,053 053
      00114                          DEV     054,054,3,0,054,054 054
      00115                          DEV     055,055,3,0,055,055 055
      00116                          DEV     056,056,3,0,056,056 056
      00117                          DEV     057,057,3,0,057,057 057
      00120                          DEV     060,204,3,0,060,060 060
      00121                          DEV     061,204,3,0,061,061 061
      00122                          DEV     062,204,3,0,062,062 062
      00123                          DEV     063,204,3,0,063,063 063
      00124                          DEV     064,204,3,0,064,064 064
      00125                          DEV     065,204,3,0,065,065 065
      00126                          DEV     066,204,3,0,066,066 066
      00127                          DEV     067,204,3,0,067,067 067
      00130                          DEV     070,070,3,0,070,070 070
      00131                          DEV     071,071,3,0,071,071 071
      00132                          DEV     072,072,3,0,072,072 072
      00133                          DEV     073,073,3,0,073,073 073
      00134                          DEV     074,074,3,0,074,074 074
      00135                          DEV     075,075,3,0,075,075 075
      00136                          DEV     076,076,3,0,076,076 076
1                                                                                06/22/70 1521.7 PAGE 3

      00137                          DEV     077,077,3,0,077,077 077
      00140                          DEV     100,100,3,0,100,100 100
      00141                          DEV     101,101,3,0,101,101 101
      00142                          DEV     102,030,3,0,102,102 102
      00143                          DEV     103,031,3,0,103,103 103
      00144                          DEV     104,104,3,0,104,104 104
      00145                          DEV     105,032,3,0,105,105 105
      00146                          DEV     106,034,3,0,106,106 106
      00147                          DEV     107,107,3,0,107,107 107
      00150                          DEV     110,110,3,0,110,110 110
      00151                          DEV     111,111,3,0,111,111 111
      00152                          DEV     112,112,3,0,112,112 112
      00153                          DEV     113,035,3,0,113,113 113
      00154                          DEV     114,114,3,0,114,114 114
      00155                          DEV     115,115,3,0,115,115 115
      00156                          DEV     116,116,3,0,116,116 116
      00157                          DEV     117,117,3,0,117,117 117
      00160                          DEV     120,120,3,0,120,120 120
      00161                          DEV     121,121,3,0,121,121 121
      00162                          DEV     122,036,3,0,122,122 122
      00163                          DEV     123,123,3,0,123,123 123
      00164                          DEV     124,124,3,0,124,124 124
      00165                          DEV     125,125,3,0,125,125 125
      00166                          DEV     126,126,3,0,126,126 126
      00167                          DEV     127,037,3,0,127,127 127
      00170                          DEV     130,136,3,0,130,130 130
      00171                          DEV     131,131,3,0,131,131 131
      00172                          DEV     132,132,3,0,132,132 132
      00173                          DEV     133,133,3,0,133,133 133
      00174                          DEV     201,134,3,0,134,204 134
      00175                          DEV     135,135,3,0,135,135 135
      00176                          DEV     136,136,3,0,136,136 136
      00177                          DEV     137,137,3,0,137,137 137
      00200                          DEV     140,140,3,0,140,140 140
      00201                          DEV     141,141,3,0,141,141 141
      00202                          DEV     142,030,3,0,142,142 142
      00203                          DEV     143,031,3,0,143,143 143
      00204                          DEV     144,144,3,0,144,144 144
      00205                          DEV     145,032,3,0,145,145 145
      00206                          DEV     146,034,3,0,146,146 146
      00207                          DEV     147,147,3,0,147,147 147
      00210                          DEV     150,150,3,0,150,150 150
      00211                          DEV     151,151,3,0,151,151 151
      00212                          DEV     152,152,3,0,152,152 152
      00213                          DEV     153,035,3,0,153,153 153
      00214                          DEV     154,154,3,0,154,154 154
      00215                          DEV     155,155,3,0,155,155 155
      00216                          DEV     156,156,3,0,156,156 156
      00217                          DEV     157,157,3,0,157,157 157
      00220                          DEV     160,160,3,0,160,160 160
      00221                          DEV     161,161,3,0,161,161 161
      00222                          DEV     162,036,3,0,162,162 162
      00223                          DEV     163,163,3,0,163,163 163
      00224                          DEV     164,164,3,0,164,164 164
      00225                          DEV     165,165,3,0,165,165 165
      00226                          DEV     166,166,3,0,166,166 166
1                                                                                06/22/70 1521.7 PAGE 4

      00227                          DEV     167,037,3,0,167,167 167
      00230                          DEV     170,136,3,0,170,170 170
      00231                          DEV     171,171,3,0,171,171 171
      00232                          DEV     172,172,3,0,172,172 172
      00233                          DEV     173,173,3,0,173,173 173
      00234                          DEV     174,174,3,0,174,174 174
      00235                          DEV     175,175,3,0,175,175 175
      00236                          DEV     176,176,3,0,176,176 176
      00237                          DEV     177,177,3,0,177,204 177
                       00240  D2     SYN     *
                              *      1050C DEVICE TABLE
      00240 +000000000134            OCT     134,0
      00241 +000000000000
      00242                          DEV     000,000,3,0,002,204 000
      00243                          DEV     001,001,3,0,001,204 001
      00244                          DEV     002,002,3,0,002,204 002
      00245                          DEV     003,003,3,0,003,204 003
      00246                          DEV     004,004,3,0,004,204 004
      00247                          DEV     005,005,3,0,005,204 005
      00250                          DEV     006,006,3,0,006,204 006
      00251                          DEV     007,007,3,0,007,204 007
      00252                          DEV     010,010,3,0,010,211 010
      00253                          DEV     011,011,3,0,011,207 011
      00254                          DEV     203,012,3,0,012,205 012
      00255                          DEV     013,013,3,0,013,210 013
      00256                          DEV     014,014,3,0,014,204 014
      00257                          DEV     015,015,3,0,015,204 015
      00260                          DEV     016,016,3,0,016,210 016
      00261                          DEV     017,017,3,0,017,210 017
      00262                          DEV     020,020,3,0,020,204 020
      00263                          DEV     021,021,3,0,021,204 021
      00264                          DEV     022,022,3,0,022,204 022
      00265                          DEV     023,023,3,0,023,204 023
      00266                          DEV     024,024,3,0,024,204 024
      00267                          DEV     025,025,3,0,025,204 025
      00270                          DEV     026,026,3,0,026,204 026
      00271                          DEV     027,027,3,0,027,204 027
      00272                          DEV     030,030,3,0,142,201 030
      00273                          DEV     031,031,3,0,143,201 031
      00274                          DEV     032,032,3,0,145,201 032
      00275                          DEV     033,033,3,0,033,204 033
      00276                          DEV     034,034,3,0,146,201 034
      00277                          DEV     035,035,3,0,153,201 035
      00300                          DEV     036,036,3,0,162,201 036
      00301                          DEV     037,037,3,0,167,201 037
      00302                          DEV     040,040,3,0,040,206 040
      00303                          DEV     041,041,3,0,041,041 041
      00304                          DEV     042,042,3,0,042,042 042
      00305                          DEV     043,043,3,0,043,043 043
      00306                          DEV     044,044,3,0,044,044 044
      00307                          DEV     045,045,3,0,045,045 045
      00310                          DEV     046,046,3,0,046,046 046
      00311                          DEV     047,140,3,0,047,047 047
      00312                          DEV     050,173,0,0,050,050 050
      00313                          DEV     051,175,1,0,051,051 051
      00314                          DEV     052,052,3,0,052,052 052
1                                                                                06/22/70 1521.7 PAGE 5

      00315                          DEV     053,053,3,0,053,053 053
      00316                          DEV     054,054,3,0,054,054 054
      00317                          DEV     055,055,3,0,055,055 055
      00320                          DEV     056,056,3,0,056,056 056
      00321                          DEV     057,057,3,0,057,057 057
      00322                          DEV     060,204,3,0,060,060 060
      00323                          DEV     061,204,3,0,061,061 061
      00324                          DEV     062,204,3,0,062,062 062
      00325                          DEV     063,204,3,0,063,063 063
      00326                          DEV     064,204,3,0,064,064 064
      00327                          DEV     065,204,3,0,065,065 065
      00330                          DEV     066,204,3,0,066,066 066
      00331                          DEV     067,204,3,0,067,067 067
      00332                          DEV     070,070,3,0,070,070 070
      00333                          DEV     071,071,3,0,071,071 071
      00334                          DEV     072,072,3,0,072,072 072
      00335                          DEV     073,073,3,0,073,073 073
      00336                          DEV     074,074,3,0,154,201 074
      00337                          DEV     075,075,3,0,075,075 075
      00340                          DEV     076,076,3,0,147,201 076
      00341                          DEV     077,077,3,0,077,077 077
      00342                          DEV     100,100,3,0,100,100 100
      00343                          DEV     101,101,3,0,101,101 101
      00344                          DEV     102,030,3,0,102,102 102
      00345                          DEV     103,031,3,0,103,103 103
      00346                          DEV     104,104,3,0,104,104 104
      00347                          DEV     105,032,3,0,105,105 105
      00350                          DEV     106,034,3,0,106,106 106
      00351                          DEV     107,076,3,0,107,107 107
      00352                          DEV     110,110,3,0,110,110 110
      00353                          DEV     111,111,3,0,111,111 111
      00354                          DEV     112,112,3,0,112,112 112
      00355                          DEV     113,035,3,0,113,113 113
      00356                          DEV     114,074,3,0,114,114 114
      00357                          DEV     115,115,3,0,115,115 115
      00360                          DEV     116,136,3,0,116,116 116
      00361                          DEV     117,117,3,0,117,117 117
      00362                          DEV     120,120,3,0,120,120 120
      00363                          DEV     121,121,3,0,121,121 121
      00364                          DEV     122,036,3,0,122,122 122
      00365                          DEV     123,123,3,0,123,123 123
      00366                          DEV     124,176,3,0,124,124 124
      00367                          DEV     125,125,3,0,125,125 125
      00370                          DEV     126,126,3,0,126,126 126
      00371                          DEV     127,037,3,0,127,127 127
      00372                          DEV     130,136,3,0,130,130 130
      00373                          DEV     131,131,3,0,131,131 131
      00374                          DEV     132,132,3,0,132,132 132
      00375                          DEV     133,133,3,0,173,201 133
      00376                          DEV     201,201,3,0,134,204 134
      00377                          DEV     135,135,3,0,175,201 135
      00400                          DEV     136,136,3,0,136,136 136
      00401                          DEV     137,137,3,0,137,137 137
      00402                          DEV     140,140,3,0,047,201 140
      00403                          DEV     141,141,3,0,141,141 141
      00404                          DEV     142,030,3,0,142,142 142
1                                                                                06/22/70 1521.7 PAGE 6

      00405                          DEV     143,031,3,0,143,143 143
      00406                          DEV     144,144,3,0,144,144 144
      00407                          DEV     145,032,3,0,145,145 145
      00410                          DEV     146,034,3,0,146,146 146
      00411                          DEV     147,076,3,0,147,147 147
      00412                          DEV     150,150,3,0,150,150 150
      00413                          DEV     151,151,3,0,151,151 151
      00414                          DEV     152,152,3,0,152,152 152
      00415                          DEV     153,035,3,0,153,153 153
      00416                          DEV     154,074,3,0,154,154 154
      00417                          DEV     155,155,3,0,155,155 155
      00420                          DEV     156,136,3,0,156,156 156
      00421                          DEV     157,157,3,0,157,157 157
      00422                          DEV     160,160,3,0,160,160 160
      00423                          DEV     161,161,3,0,161,161 161
      00424                          DEV     162,036,3,0,162,162 162
      00425                          DEV     163,163,3,0,163,163 163
      00426                          DEV     164,176,3,0,164,164 164
      00427                          DEV     165,165,3,0,165,165 165
      00430                          DEV     166,166,3,0,166,166 166
      00431                          DEV     167,037,3,0,167,167 167
      00432                          DEV     170,136,3,0,170,170 170
      00433                          DEV     171,171,3,0,171,171 171
      00434                          DEV     172,172,3,0,172,172 172
      00435                          DEV     173,173,3,0,050,201 173
      00436                          DEV     174,174,3,0,174,174 174
      00437                          DEV     175,175,3,0,051,201 175
      00440                          DEV     176,176,3,0,164,201 176
      00441                          DEV     177,177,3,0,177,204 177
                       00442  D3     SYN     *
                              *      1050M DEVICE TABLE
      00442 +000000000134            OCT     134,0
      00443 +000000000000
      00444                          DEV     000,000,3,0,002,204 000
      00445                          DEV     001,001,3,0,001,204 001
      00446                          DEV     002,002,3,0,002,204 002
      00447                          DEV     003,003,3,0,003,204 003
      00450                          DEV     004,004,3,0,004,204 004
      00451                          DEV     005,005,3,0,005,204 005
      00452                          DEV     006,006,3,0,006,204 006
      00453                          DEV     007,007,3,0,007,204 007
      00454                          DEV     010,010,3,0,010,211 010
      00455                          DEV     011,011,3,0,011,207 011
      00456                          DEV     203,012,3,0,012,205 012
      00457                          DEV     013,013,3,0,013,210 013
      00460                          DEV     014,014,3,0,014,204 014
      00461                          DEV     015,015,3,0,015,204 015
      00462                          DEV     016,016,3,0,016,210 016
      00463                          DEV     017,017,3,0,017,210 017
      00464                          DEV     020,020,3,0,020,204 020
      00465                          DEV     021,021,3,0,021,204 021
      00466                          DEV     022,022,3,0,022,204 022
      00467                          DEV     023,023,3,0,023,204 023
      00470                          DEV     024,024,3,0,024,204 024
      00471                          DEV     025,025,3,0,025,204 025
      00472                          DEV     026,026,3,0,026,204 026
1                                                                                06/22/70 1521.7 PAGE 7

      00473                          DEV     027,027,3,0,027,204 027
      00474                          DEV     030,030,3,0,142,201 030
      00475                          DEV     031,031,3,0,143,201 031
      00476                          DEV     032,032,3,0,145,201 032
      00477                          DEV     033,033,3,0,033,204 033
      00500                          DEV     034,034,3,0,146,201 034
      00501                          DEV     035,035,3,0,153,201 035
      00502                          DEV     036,036,3,0,162,201 036
      00503                          DEV     037,037,3,0,167,201 037
      00504                          DEV     040,040,3,0,040,206 040
      00505                          DEV     041,041,3,0,041,041 041
      00506                          DEV     042,042,3,0,042,042 042
      00507                          DEV     043,043,3,0,043,043 043
      00510                          DEV     044,044,3,0,044,044 044
      00511                          DEV     045,045,3,0,045,045 045
      00512                          DEV     046,046,3,0,046,046 046
      00513                          DEV     047,140,3,0,047,047 047
      00514                          DEV     050,173,0,0,050,050 050
      00515                          DEV     051,175,1,0,051,051 051
      00516                          DEV     052,052,3,0,052,052 052
      00517                          DEV     053,053,3,0,053,053 053
      00520                          DEV     054,054,3,0,054,054 054
      00521                          DEV     055,055,3,0,055,055 055
      00522                          DEV     056,041,3,0,056,056 056
      00523                          DEV     057,057,3,0,057,057 057
      00524                          DEV     060,204,3,0,060,060 060
      00525                          DEV     061,204,3,0,061,061 061
      00526                          DEV     062,204,3,0,062,062 062
      00527                          DEV     063,204,3,0,063,063 063
      00530                          DEV     064,204,3,0,064,064 064
      00531                          DEV     065,204,3,0,065,065 065
      00532                          DEV     066,204,3,0,066,066 066
      00533                          DEV     067,204,3,0,067,067 067
      00534                          DEV     070,070,3,0,070,070 070
      00535                          DEV     071,071,3,0,071,071 071
      00536                          DEV     072,072,3,0,072,072 072
      00537                          DEV     073,073,3,0,073,073 073
      00540                          DEV     074,133,3,0,074,074 074
      00541                          DEV     075,075,3,0,075,075 075
      00542                          DEV     076,135,3,0,076,076 076
      00543                          DEV     077,077,3,0,077,077 077
      00544                          DEV     100,100,3,0,100,100 100
      00545                          DEV     101,101,3,0,101,101 101
      00546                          DEV     102,030,3,0,102,102 102
      00547                          DEV     103,031,3,0,103,103 103
      00550                          DEV     104,104,3,0,104,104 104
      00551                          DEV     105,032,3,0,105,105 105
      00552                          DEV     106,034,3,0,106,106 106
      00553                          DEV     107,076,3,0,107,107 107
      00554                          DEV     110,110,3,0,110,110 110
      00555                          DEV     111,111,3,0,111,111 111
      00556                          DEV     112,112,3,0,112,112 112
      00557                          DEV     113,035,3,0,113,113 113
      00560                          DEV     114,074,3,0,114,114 114
      00561                          DEV     115,115,3,0,115,115 115
      00562                          DEV     116,136,3,0,116,116 116
1                                                                                06/22/70 1521.7 PAGE 8

      00563                          DEV     117,117,3,0,117,117 117
      00564                          DEV     120,120,3,0,120,120 120
      00565                          DEV     121,121,3,0,121,121 121
      00566                          DEV     122,036,3,0,122,122 122
      00567                          DEV     123,123,3,0,123,123 123
      00570                          DEV     124,176,3,0,124,124 124
      00571                          DEV     125,125,3,0,125,125 125
      00572                          DEV     126,126,3,0,126,126 126
      00573                          DEV     127,037,3,0,127,127 127
      00574                          DEV     130,136,3,0,130,130 130
      00575                          DEV     131,131,3,0,131,131 131
      00576                          DEV     132,132,3,0,132,132 132
      00577                          DEV     133,133,3,0,074,201 133
      00600                          DEV     201,201,3,0,134,204 134
      00601                          DEV     135,135,3,0,076,201 135
      00602                          DEV     136,136,3,0,136,136 136
      00603                          DEV     137,137,3,0,137,137 137
      00604                          DEV     140,140,3,0,047,201 140
      00605                          DEV     141,141,3,0,141,141 141
      00606                          DEV     142,030,3,0,142,142 142
      00607                          DEV     143,031,3,0,143,143 143
      00610                          DEV     144,144,3,0,144,144 144
      00611                          DEV     145,032,3,0,145,145 145
      00612                          DEV     146,034,3,0,146,146 146
      00613                          DEV     147,076,3,0,147,147 147
      00614                          DEV     150,150,3,0,150,150 150
      00615                          DEV     151,151,3,0,151,151 151
      00616                          DEV     152,152,3,0,152,152 152
      00617                          DEV     153,035,3,0,153,153 153
      00620                          DEV     154,074,3,0,154,154 154
      00621                          DEV     155,155,3,0,155,155 155
      00622                          DEV     156,136,3,0,156,156 156
      00623                          DEV     157,157,3,0,157,157 157
      00624                          DEV     160,160,3,0,160,160 160
      00625                          DEV     161,161,3,0,161,161 161
      00626                          DEV     162,036,3,0,162,162 162
      00627                          DEV     163,163,3,0,163,163 163
      00630                          DEV     164,176,3,0,164,164 164
      00631                          DEV     165,165,3,0,165,165 165
      00632                          DEV     166,166,3,0,166,166 166
      00633                          DEV     167,037,3,0,167,167 167
      00634                          DEV     170,136,3,0,170,170 170
      00635                          DEV     171,171,3,0,171,171 171
      00636                          DEV     172,172,3,0,172,172 172
      00637                          DEV     173,173,3,0,050,201 173
      00640                          DEV     174,174,3,0,174,174 174
      00641                          DEV     175,175,3,0,051,201 175
      00642                          DEV     176,176,3,0,164,201 176
      00643                          DEV     177,177,3,0,177,204 177
                       00644  D4     SYN     *
                              *      M35 DEVICE TABLE
      00644 +000000000134            OCT     134,0
      00645 +000000000000
      00646                          DEV     000,000,3,0,002,204 000
      00647                          DEV     001,001,3,0,001,204 001
      00650                          DEV     002,002,3,0,002,204 002
1                                                                                06/22/70 1521.7 PAGE 9

      00651                          DEV     003,003,3,0,003,204 003
      00652                          DEV     004,004,3,0,004,204 004
      00653                          DEV     005,005,3,0,005,204 005
      00654                          DEV     006,006,3,0,006,204 006
      00655                          DEV     007,007,3,0,007,210 007
      00656                          DEV     010,010,3,0,055,201 010
      00657                          DEV     011,011,3,0,011,207 011
      00660                          DEV     203,012,3,0,012,205 012
      00661                          DEV     013,013,3,0,013,210 013
      00662                          DEV     014,014,3,0,014,204 014
      00663                          DEV     015,015,3,0,015,204 015
      00664                          DEV     016,016,3,0,016,210 016
      00665                          DEV     017,017,3,0,017,210 017
      00666                          DEV     020,020,3,0,020,204 020
      00667                          DEV     021,021,3,0,021,204 021
      00670                          DEV     022,022,3,0,022,204 022
      00671                          DEV     023,023,3,0,023,204 023
      00672                          DEV     024,024,3,0,024,204 024
      00673                          DEV     025,025,3,0,025,204 025
      00674                          DEV     026,026,3,0,026,204 026
      00675                          DEV     027,027,3,0,027,204 027
      00676                          DEV     030,030,3,0,142,201 030
      00677                          DEV     031,031,3,0,143,201 031
      00700                          DEV     032,032,3,0,145,201 032
      00701                          DEV     033,033,3,0,033,204 033
      00702                          DEV     034,034,3,0,146,201 034
      00703                          DEV     035,035,3,0,153,201 035
      00704                          DEV     036,036,3,0,162,201 036
      00705                          DEV     037,037,3,0,167,201 037
      00706                          DEV     040,040,3,0,040,206 040
      00707                          DEV     041,041,3,0,041,041 041
      00710                          DEV     042,042,3,0,042,042 042
      00711                          DEV     043,043,3,0,043,043 043
      00712                          DEV     044,044,3,0,044,044 044
      00713                          DEV     045,045,3,0,045,136 045
      00714                          DEV     046,046,3,0,046,046 046
      00715                          DEV     047,140,3,0,047,047 047
      00716                          DEV     050,173,0,0,050,050 050
      00717                          DEV     051,175,1,0,051,051 051
      00720                          DEV     052,052,3,0,052,052 052
      00721                          DEV     053,053,3,0,053,053 053
      00722                          DEV     054,054,3,0,054,054 054
      00723                          DEV     055,010,3,0,055,055 055
      00724                          DEV     056,041,3,0,056,056 056
      00725                          DEV     057,057,3,0,057,057 057
      00726                          DEV     060,204,3,0,060,060 060
      00727                          DEV     061,204,2,0,061,061 061
      00730                          DEV     062,204,2,0,062,062 062
      00731                          DEV     063,204,2,0,063,063 063
      00732                          DEV     064,204,2,0,064,064 064
      00733                          DEV     065,204,2,0,065,065 065
      00734                          DEV     066,204,2,0,066,066 066
      00735                          DEV     067,204,2,0,067,067 067
      00736                          DEV     070,070,2,0,070,070 070
      00737                          DEV     071,071,2,0,071,071 071
      00740                          DEV     072,072,3,0,072,072 072
1                                                                                06/22/70 1521.7 PAGE 10

      00741                          DEV     073,073,3,0,073,073 073
      00742                          DEV     074,074,3,0,074,074 074
      00743                          DEV     075,075,3,0,075,075 075
      00744                          DEV     076,076,3,0,076,076 076
      00745                          DEV     077,077,3,0,077,077 077
      00746                          DEV     100,100,3,0,100,100 100
      00747                          DEV     202,101,3,0,101,202 101
      00750                          DEV     202,030,3,0,102,202 102
      00751                          DEV     202,031,3,0,103,202 103
      00752                          DEV     202,104,3,0,104,202 104
      00753                          DEV     202,032,3,0,105,202 105
      00754                          DEV     202,034,3,0,106,202 106
      00755                          DEV     202,076,3,0,107,202 107
      00756                          DEV     202,110,3,0,110,202 110
      00757                          DEV     202,111,3,0,111,202 111
      00760                          DEV     202,112,3,0,112,202 112
      00761                          DEV     202,035,3,0,113,202 113
      00762                          DEV     202,202,3,0,114,202 114
      00763                          DEV     202,115,3,0,115,202 115
      00764                          DEV     202,136,3,0,116,202 116
      00765                          DEV     202,117,3,0,117,202 117
      00766                          DEV     202,120,3,0,120,202 120
      00767                          DEV     202,121,3,0,121,202 121
      00770                          DEV     202,036,3,0,122,202 122
      00771                          DEV     202,123,3,0,123,202 123
      00772                          DEV     202,176,3,0,124,202 124
      00773                          DEV     202,203,3,0,125,202 125
      00774                          DEV     202,126,3,0,126,202 126
      00775                          DEV     202,037,3,0,127,202 127
      00776                          DEV     202,136,3,0,130,202 130
      00777                          DEV     202,131,3,0,131,202 131
      01000                          DEV     202,132,3,0,132,202 132
      01001                          DEV     133,133,3,0,173,133 133
      01002                          DEV     201,201,3,0,134,204 134
      01003                          DEV     135,135,3,0,175,135 135
      01004                          DEV     045,136,3,0,170,201 136
      01005                          DEV     137,137,3,0,137,137 137
      01006                          DEV     140,140,3,0,047,201 140
      01007                          DEV     202,141,3,0,141,203 141
      01010                          DEV     202,030,3,0,142,203 142
      01011                          DEV     202,031,3,0,143,203 143
      01012                          DEV     202,144,3,0,144,203 144
      01013                          DEV     202,032,3,0,145,203 145
      01014                          DEV     202,034,3,0,146,203 146
      01015                          DEV     202,076,3,0,147,203 147
      01016                          DEV     202,150,3,0,150,203 150
      01017                          DEV     202,151,3,0,151,203 151
      01020                          DEV     202,152,3,0,152,203 152
      01021                          DEV     202,035,3,0,153,203 153
      01022                          DEV     202,202,3,0,154,203 154
      01023                          DEV     202,155,3,0,155,203 155
      01024                          DEV     202,136,3,0,156,203 156
      01025                          DEV     202,157,3,0,157,203 157
      01026                          DEV     202,160,3,0,160,203 160
      01027                          DEV     202,161,3,0,161,203 161
      01030                          DEV     202,036,3,0,162,203 162
1                                                                                06/22/70 1521.7 PAGE 11

      01031                          DEV     202,163,3,0,163,203 163
      01032                          DEV     202,176,3,0,164,203 164
      01033                          DEV     202,203,3,0,165,203 165
      01034                          DEV     202,166,3,0,166,203 166
      01035                          DEV     202,037,3,0,167,203 167
      01036                          DEV     202,136,3,0,170,203 170
      01037                          DEV     202,171,3,0,171,203 171
      01040                          DEV     202,172,3,0,172,203 172
      01041                          DEV     173,173,3,0,050,201 173
      01042                          DEV     174,174,3,0,174,174 174
      01043                          DEV     175,175,3,0,051,201 175
      01044                          DEV     176,176,3,0,164,201 176
      01045                          DEV     177,177,3,0,177,204 177
                                     END
1                                                                                06/22/70 1521.7 PAGE 1
                        POST PROCESSOR ASSEMBLY DATA

       1046 IS THE FIRST LOCATION NOT USED BY THIS PROGRAM

0REFERENCES TO DEFINED SYMBOLS
         36     D1     6,   17,   31,   36
        240     D2     7,  240
        442     D3    10,  442
        644     D4    11,  644
         12    DT1     4
         32    DT2    14,   15
         20    DT3    26
          0 DEVTBL     5
         14 FREEDT     0
          4 INITDT     0

0 NO ERROR IN ABOVE ASSEMBLY.


REMARK   BCD 09/18/68 2319.5    4783         00000
1                                                                                                PAGE 1
                           FILE NAME -- MAIN0 FAP


                                             DUMMY ROUTINE FOR MAD PROGRAMS


  BINARY CARD NO. DUMMY000
            PROGRAM CARD

        TRANSFER VECTOR

  BINARY CARD NO. DUMMY001
      00000  263151626360     FIRST
      00001  244651444563     DORMNT

      00002  0074 00 4 00000         TSX     $FIRST,4      CALL MAD PROGRAM
      00003  3 00000 0 00000         PTH     0             PASS ABSOLUTE ZERO
      00004  0074 00 4 00001         TSX     $DORMNT,4     STOP IF RETURN
                                     END
1                                                                                                PAGE 1
                        POST PROCESSOR ASSEMBLY DATA

          5 IS THE FIRST LOCATION NOT USED BY THIS PROGRAM

0REFERENCES TO DEFINED SYMBOLS
          0  FIRST     2
          1 DORMNT     4

0 NO ERROR IN ABOVE ASSEMBLY.
1     MAD PROGRAM LISTING ... ... ...                 FILE   REMRK   MAD            02/07/68    2321.4
-
                      REMARK COMMAND FOR NEW FILE SYSTEM                                               LM00001
                           D.R. WIDRIG  FEB. 1966                                                      LM00002
                                                                                                       LM00003
                      LOADING INSTRUCTIONS                                                             LM00004
                           MAD REMARK (LIST)                                                           LM00005
                           FAP (MAIN) (LIST)                                                           LM00006
                           NCLOAD (MAIN) REMARK                                                        LM00007
                           SAVE REMARK                                                                 LM00008
                                                                                                       LM00009
                  EXTERNAL FUNCTION (BUFF)                                                        *001 LM00010
                  ENTRY TO FIRST.                                                                 *002 LM00011
                  ENTRY TO REMARK.                                                                *003 LM00012
                                                                                                       LM00013
                  NORMAL MODE IS INTEGER                                                          *004 LM00014
                                                                                                       LM00015
                  VECTOR VALUES MESS1 = $COMMAND FORM IS ... REMARK NAME1 -NAME2-$,               *005 LM00016
                1      777777777777K                                                              *005 LM00017
                  VECTOR VALUES MESS2 = $NAME2 IS TAKEN AS 'BCD' IF OMITTED$,                     *006 LM00018
                1      777777777777K                                                              *006 LM00019
                  VECTOR VALUES MESS3 = $REMARKS MUST BE CARD-IMAGE AND LESS THAN FIVE            *007 LM00020
                1 RECORDS LONG$,777777777777K                                                     *007 LM00021
                  VECTOR VALUES LINE(1)...LINE(14) = $      $                                     *008 LM00022
                  VECTOR VALUES USER = $  USER$                                                   *009 LM00023
                  VECTOR VALUES REMARK = $REMARK$                                                 *010 LM00024
                                                                                                       LM00025
                  VECTOR VALUES FENCE = 777777777777K                                             *011 LM00026
                  VECTOR VALUES LINMK = 777777K                                                   *012 LM00027
                  VECTOR VALUES MXWORD = 2160                                                     *013 LM00028
                                                                                                       LM00029
                      GET COMMAND ARGUMENTS                                                            LM00030
                                                                                                       LM00031
                  WHENEVER COMARG.(1,N1) .E. FENCE                                                *014 LM00032
                       PRNTP.(MESS1)                                                              *015 LM00033
                       PRNTP.(MESS2)                                                              *016 LM00034
      GRIPE            PRNTP.(MESS3)                                                              *017 LM00035
                       CHNCOM.(0)                                                                 *018 LM00036
                  OR WHENEVER COMARG.(2,N2) .E. FENCE                                             *019 LM00037
                       N2 = $   BCD$                                                              *020 LM00038
                  END OF CONDITIONAL                                                              *021 LM00039
                                                                                                       LM00040
                      SET ERROR RETURN AND CHECK REMARK FILE                                           LM00041
                                                                                                       LM00042
                  FERRTN.(ERR1)                                                                   *022 LM00043
                  FSTATE.(N1,N2,LTH...1)                                                          *023 LM00044
                  WHENEVER (LTH.G.MXWORD) .OR. (((LTH/14)*14).NE.LTH), TRANSFER TO GRIPE          *024 LM00045
                                                                                                       LM00046
                      SO FAR SO GOOD, NOW SET BUFFERS                                                  LM00047
                                                                                                       LM00048
                  BUFF1 = 1K5 - GMEM.(DUMMY)                                                      *025 LM00049
                  BUFF2 = BUFF1 - 432                                                             *026 LM00050
                  EXMEM.(LTH+432)                                                                 *027 LM00051
                                                                                                       LM00052
                      READ IN REMARK FILE                                                              LM00053
                                                                                                       LM00054
                  OPEN.($R$,N1,N2,DUMMY)                                                          *028 LM00055
                  RDFILE.(N1,N2,1,BUFF(BUFF2)...LTH)                                              *029 LM00056
                  CLOSE.(N1,N2)                                                                   *030 LM00057
                                                                                                       LM00058
                      MAKE SURE IT IS CARD-IMAGE                                                       LM00059
                                                                                                       LM00060
                  WHENEVER ((BUFF(BUFF2).RS.18) .E. LINMK), TRANSFER TO GRIPE                     *031 LM00061
                                                                                                       LM00062
                      MOVE TO PUBLIC FILE AND WRITE HEADER                                             LM00063
                                                                                                       LM00064
                  TSSFIL.                                                                         *032 LM00065
                  OPEN.($W$,USER,REMARK,0)                                                        *033 LM00066
                  BUFFER.(USER,REMARK,BUFF(BUFF1)...432)                                          *034 LM00067
                  WRWAIT.(USER,REMARK,0,LINE(14)...14)                                            *035 LM00068
                                                                                                       LM00069
                      GET IDENTIFICATION                                                               LM00070
                                                                                                       LM00071
                  GETTM.(LINE(8),LINE(7))                                                         *036 LM00072
                  WHOAMI.(LINE(12)...2)                                                           *037 LM00073
                  WRFILE.(USER,REMARK,0,LINE(14)...14)                                            *038 LM00074
                                                                                                       LM00075
                      NOW APPEND USER'S REMARK                                                         LM00076
                                                                                                       LM00077
                  WRFILE.(USER,REMARK,0,BUFF(BUFF2)...LTH)                                        *039 LM00078
                  CLOSE.(USER,REMARK)                                                             *040 LM00079
                                                                                                       LM00080
                      MOVE BACK TO USER'S DIRECTORY                                                    LM00081
                                                                                                       LM00082
                  USRFIL.                                                                         *041 LM00083
                  CHNCOM.(0)                                                                      *042 LM00084
                                                                                                       LM00085
                      ERROR, ANNOUNCE IT                                                               LM00086
                                                                                                       LM00087
      ERR1        PRNTER.(61K)                                                                    *043 LM00088
                  CLOSE.($ALL$,-0,NERR1)                                                          *044 LM00089
      NERR1       CHNCOM.(1)                                                                      *045 LM00090
                                                                                                       LM00091
                  END OF FUNCTION                                                                 *046 LM00092
1MAD PROGRAM,TYPE NOV 1963      (ALL NUMBERS ARE OCTAL)
0TOTAL LOCATIONS   00365 TRANSFER VECTOR LENGTH  00023 PROGRAM BEGINS    00130
0 PROGRAM IS AN EXTERNAL FUNCTION.   THE FOLLOWING ARE ENTRIES
      REMARK 00134   0        FIRST  00131   0
0VARIABLE STORAGE (A=ARRAY,C=COMMON,E=ERASABLE,DIGIT=MODE)
      BUFF1  00027   1        FENCE  00032 A 1        LTH    00053   1        MXWORD 00106 A 1        NERR1  00026   4
      BUFF2  00030   1        GRIPE  00025   4        MESS1  00063 A 1        N1     00107   1        REMARK 00111 A 1
      DUMMY  00031   1        LINE   00051 A 1        MESS2  00072 A 1        N2     00110   1        USER   00112 A 1
      ERR1   00024   4        LINMK  00052 A 1        MESS3  00105 A 1
0FUNCTION DICTIONARY
      BUFFER 00000   1        CHNCOM 00001   1        CLOSE  00002   1        COMARG 00003   1        EXIT   00004   1
      EXMEM  00005   1        FERRTN 00006   1        FSTATE 00007   1        GETTM  00010   1        GMEM   00011   1
      OPEN   00012   1        PRNTER 00013   1        PRNTP  00014   1        RDFILE 00015   1        TSSFIL 00016   1
      USRFIL 00017   1        WHOAMI 00020   1        WRFILE 00021   1        WRWAIT 00022   1
0ABSOLUTE CONSTANTS
 00123 +214343606060     00120 +000000000061     00127 -266060606060     00117 +000000000022     00125 -116060606060
 00121 +000000000660     00122 +000000100000     00116 +000000000016     00126 -206060222324     00115 +000000000002
 00113 +000000000000     00114 +000000000001     00124 +233000000000
0STATEMENT DICTIONARY
 00024 TXL -300334000332       00025 TXL -300151000147       00026 TXL -300344000342
0PROGRAM
                 EXTERNAL FUNCTION (BUFF)                                           001  LM00010
                 E'O FIRST.                                                         002  LM00011
 00130 TRA +0 02000 0 00133    00131 SXA +0 63400 2 00345    00132 TSX +0 07400 2 00345
                 E'O REMARK.                                                        003  LM00012
 00133 TRA +0 02000 0 00136    00134 SXA +0 63400 2 00345    00135 TSX +0 07400 2 00345
                 N'R                                                                004  LM00014
                 V'S MESS1 = $COMMAND FORM IS ... REMARK NAME1 -NAME2-$,            005  LM00016
                1     777777777777K                                                 005  LM00017
 00054     -3 77777 7 77777    00055     -0 42502 4 06060    00056     +2 50160 4 04521    00057     -1 14260 4 52144
 00060     +3 36051 2 54421    00061     -2 03162 6 03333    00062     +2 46026 4 65144    00063     +2 34644 4 42145
                 V'S MESS2 = $NAME2 IS TAKEN AS 'BCD' IF OMITTED$,                  006  LM00018
                1     777777777777K                                                 006  LM00019
 00064     -3 77777 7 77777    00065     -2 36325 2 46060    00066     +3 12660 4 64431    00067     +1 42223 2 41460
 00070     +2 54560 2 16260    00071     +3 16260 6 32142    00072     -0 52144 2 50260
                 V'S MESS3 = $REMARKS MUST BE CARD-IMAGE AND LESS THAN FIVE         007  LM00020
                1RECORDS LONG$,777777777777K                                        007  LM00021
 00073     -3 77777 7 77777    00074     -2 26043 4 64527    00075     -1 12523 4 65124    00076     +3 16525 6 06060
 00077     -2 33021 4 56026    00100     -2 04325 6 26260    00101     +2 72560 2 14524    00102     -1 12440 3 14421
 00103     -2 02225 6 02321    00104     -2 26044 6 46263    00105     -1 12544 2 15142
                 V'S LINE(1)...LINE(14) = $      $                                  008  LM00022
 00033     -2 06060 6 06060    00034     -2 06060 6 06060    00035     -2 06060 6 06060    00036     -2 06060 6 06060
 00037     -2 06060 6 06060    00040     -2 06060 6 06060    00041     -2 06060 6 06060    00042     -2 06060 6 06060
 00043     -2 06060 6 06060    00044     -2 06060 6 06060    00045     -2 06060 6 06060    00046     -2 06060 6 06060
 00047     -2 06060 6 06060    00050     -2 06060 6 06060
                 V'S USER = $  USER$                                                009  LM00023
 00112     -2 06064 6 22551
                 V'S REMARK = $REMARK$                                              010  LM00024
 00111     -1 12544 2 15142
                 V'S FENCE = 777777777777K                                          011  LM00026
 00032     -3 77777 7 77777
                 V'S LINMK = 777777K                                                012  LM00027
 00052     +0 00000 7 77777
                 V'S MXWORD = 2160                                                  013  LM00028
 00106     +0 00000 0 04160
                 W'R COMARG.(1,N1) .E. FENCE                                        014  LM00032
 00136 TSX +0 07400 4 00003    00137 TXH +3 00000 0 00114    00140 TXH +3 00000 0 00107    00141 SUB +0 40200 0 00032
 00142 TNZ -0 10000 0 00154
                      PRNTP.(MESS1)                                                 015  LM00033
 00143 TSX +0 07400 4 00014    00144 TXH +3 00000 0 00063
                      PRNTP.(MESS2)                                                 016  LM00034
 00145 TSX +0 07400 4 00014    00146 TXH +3 00000 0 00072
      GRIPE           PRNTP.(MESS3)                                                 017  LM00035
 00147 TSX +0 07400 4 00014    00150 TXH +3 00000 0 00105
                      CHNCOM.(0)                                                    018  LM00036
 00151 TSX +0 07400 4 00001    00152 TXH +3 00000 0 00113
                 O'R COMARG.(2,N2) .E. FENCE                                        019  LM00037
 00153 TRA +0 02000 0 00163    00154 TSX +0 07400 4 00003    00155 TXH +3 00000 0 00115    00156 TXH +3 00000 0 00110
 00157 SUB +0 40200 0 00032    00160 TNZ -0 10000 0 00163
                      N2 = $   BCD$                                                 020  LM00038
 00161 CLA +0 50000 0 00126    00162 STO +0 60100 0 00110
                 E'L                                                                021  LM00039
                 FERRTN.(ERR1)                                                      022  LM00043
 00163 TSX +0 07400 4 00006    00164 TXH +3 00000 0 00024
                 FSTATE.(N1,N2,LTH...1)                                             023  LM00044
 00165 TSX +0 07400 4 00007    00166 TXH +3 00000 0 00107    00167 TXH +3 00000 0 00110    00170 TIX +2 00114 0 00053
                 W'R (LTH.G.MXWORD) .OR. (((LTH/14)*14).NE.LTH), T'O GRIPE          024  LM00045
 00171 LDQ +0 56000 0 00053    00172 PXD -0 75400 0 00000    00173 LLS +0 76300 0 00000    00174 DVP +0 22100 0 00116
 00175 MPY +0 20000 0 00116    00176 XCA +0 13100 0 00000    00177 SUB +0 40200 0 00053    00200 TNZ -0 10000 0 00205
 00201 CLA +0 50000 0 00053    00202 SUB +0 40200 0 00106    00203 TZE +0 10000 0 00206    00204 TMI -0 12000 0 00206
 00205 TRA +0 02000 0 00025
                 BUFF1 = 1K5 - GMEM.(DUMMY)                                         025  LM00049
 00206 TSX +0 07400 4 00011    00207 TXH +3 00000 0 00031    00210 CHS +0 76000 0 00002    00211 ADD +0 40000 0 00122
 00212 STO +0 60100 0 00027
                 BUFF2 = BUFF1 - 432                                                026  LM00050
 00213 CLA +0 50000 0 00027    00214 SUB +0 40200 0 00121    00215 STO +0 60100 0 00030
                 EXMEM.(LTH+432)                                                    027  LM00051
 00216 CLA +0 50000 0 00053    00217 ADD +0 40000 0 00121    00220 STO +0 60100 0 00362    00221 TSX +0 07400 4 00005
 00222 TXH +3 00000 0 00362
                 OPEN.($R$,N1,N2,DUMMY)                                             028  LM00055
 00223 TSX +0 07400 4 00012    00224 TXH +3 00000 0 00125    00225 TXH +3 00000 0 00107    00226 TXH +3 00000 0 00110
 00227 TXH +3 00000 0 00031
                 RDFILE.(N1,N2,1,BUFF(BUFF2)...LTH)                                 029  LM00056
 00230 CLA +0 50000 0 00030    00231 SUB +0 40200 0 00232    00232 TXH +3 00000 0 00024    00233 STA +0 62100 0 00240
 00234 TSX +0 07400 4 00015    00235 TXH +3 00000 0 00107    00236 TXH +3 00000 0 00110    00237 TXH +3 00000 0 00114
 00240 TIX +2 00053 0 00000
                 CLOSE.(N1,N2)                                                      030  LM00057
 00241 TSX +0 07400 4 00002    00242 TXH +3 00000 0 00107    00243 TXH +3 00000 0 00110
                 W'R ((BUFF(BUFF2).RS.18) .E. LINMK), T'O GRIPE                     031  LM00061
 00244 LXA +0 53400 1 00030    00245 CAL -0 50000 0 00117    00246 STA +0 62100 0 00250    00247 CAL -0 50000 1 00024
 00250 LGR -0 76500 0 00000    00251 SLW +0 60200 0 00362    00252 CLA +0 50000 0 00362    00253 SUB +0 40200 0 00052
 00254 TNZ -0 10000 0 00256    00255 TRA +0 02000 0 00025
                 TSSFIL.                                                            032  LM00065
 00256 TSX +0 07400 4 00016
                 OPEN.($W$,USER,REMARK,0)                                           033  LM00066
 00257 TSX +0 07400 4 00012    00260 TXH +3 00000 0 00127    00261 TXH +3 00000 0 00112    00262 TXH +3 00000 0 00111
 00263 TXH +3 00000 0 00113
                 BUFFER.(USER,REMARK,BUFF(BUFF1)...432)                             034  LM00067
 00264 CLA +0 50000 0 00027    00265 SUB +0 40200 0 00266    00266 TXH +3 00000 0 00024    00267 STA +0 62100 0 00273
 00270 TSX +0 07400 4 00000    00271 TXH +3 00000 0 00112    00272 TXH +3 00000 0 00111    00273 TIX +2 00121 0 00000
                 WRWAIT.(USER,REMARK,0,LINE(14)...14)                               035  LM00068
 00274 TSX +0 07400 4 00022    00275 TXH +3 00000 0 00112    00276 TXH +3 00000 0 00111    00277 TXH +3 00000 0 00113
 00300 TIX +2 00116 0 00033
                 GETTM.(LINE(8),LINE(7))                                            036  LM00072
 00301 TSX +0 07400 4 00010    00302 TXH +3 00000 0 00041    00303 TXH +3 00000 0 00042
                 WHOAMI.(LINE(12)...2)                                              037  LM00073
 00304 TSX +0 07400 4 00020    00305 TIX +2 00115 0 00035
                 WRFILE.(USER,REMARK,0,LINE(14)...14)                               038  LM00074
 00306 TSX +0 07400 4 00021    00307 TXH +3 00000 0 00112    00310 TXH +3 00000 0 00111    00311 TXH +3 00000 0 00113
 00312 TIX +2 00116 0 00033
                 WRFILE.(USER,REMARK,0,BUFF(BUFF2)...LTH)                           039  LM00078
 00313 CLA +0 50000 0 00030    00314 SUB +0 40200 0 00315    00315 TXH +3 00000 0 00024    00316 STA +0 62100 0 00323
 00317 TSX +0 07400 4 00021    00320 TXH +3 00000 0 00112    00321 TXH +3 00000 0 00111    00322 TXH +3 00000 0 00113
 00323 TIX +2 00053 0 00000
                 CLOSE.(USER,REMARK)                                                040  LM00079
 00324 TSX +0 07400 4 00002    00325 TXH +3 00000 0 00112    00326 TXH +3 00000 0 00111
                 USRFIL.                                                            041  LM00083
 00327 TSX +0 07400 4 00017
                 CHNCOM.(0)                                                         042  LM00084
 00330 TSX +0 07400 4 00001    00331 TXH +3 00000 0 00113
      ERR1       PRNTER.(61K)                                                       043  LM00088
 00332 TSX +0 07400 4 00013    00333 TXH +3 00000 0 00120
                 CLOSE.($ALL$,-0,NERR1)                                             044  LM00089
 00334 CLS +0 50200 0 00113    00335 STO +0 60100 0 00362    00336 TSX +0 07400 4 00002    00337 TXH +3 00000 0 00123
 00340 TXH +3 00000 0 00362    00341 TXH +3 00000 0 00026
      NERR1      CHNCOM.(1)                                                         045  LM00090
 00342 TSX +0 07400 4 00001    00343 TXH +3 00000 0 00114
                 E'N                                                                046  LM00092
 00344 TSX +0 07400 4 00004    00345 TXH +3 00000 0 00000    00346 SXD -0 63400 1 00345    00347 SXA +0 63400 4 00356
 00350 CLA +0 50000 4 00001    00351 STO +0 60100 0 00232    00352 STA +0 62100 0 00247    00353 STO +0 60100 0 00266
 00354 STO +0 60100 0 00315    00355 TRA +0 02000 2 00001    00356 AXT +0 77400 4 00000    00357 LXA +0 53400 2 00345
 00360 LXD -0 53400 1 00345    00361 TRA +0 02000 4 00001


REVOKE   BCD 09/18/68 2319.5    3663         00000
1     MAD PROGRAM LISTING ... ... ...                 FILE   REVOK   MAD            02/08/68    1227.3
-
                 ..   REVOKE COMMAND.                                                                  LM00001
                                                                                                       LM00002
                 ..  DOES GARBAGE COLLECTION, BUT                                                      LM00003
                 ..  DOESN'T CHASE-DOWN LINKS TO                                                       LM00004
                 ..  UNLINK EXISTING LINKS TO                                                          LM00005
                 ..  FILE BEING REVOKED.                                                               LM00006
                                                                                                       LM00007
                 ..  J. H. SALTZER, AUGUST, 1965.                                                      LM00008
                   (MODIFIED AND MAINTAINED BY D.E. OPPERT)                                            LM00009
                      (SEPT-NOV, 1965)                                                                 LM00010
                                                                                                       LM00011
                                                                                                       LM00012
                  NORMAL MODE IS INTEGER                                                          *001 LM00013
                  VECTOR VALUES DVEC(6) = 777777000005K                                           *002 LM00014
                  VECTOR VALUES FENCE = 777777777777K                                             *003 LM00015
                  VECTOR VALUES DVEC(1)...DVEC(5) = $REVOKE$                                      *004 LM00016
                  VECTOR VALUES P = $PERMIT$                                                      *005 LM00017
                  VECTOR VALUES F = $  FILE$                                                      *006 LM00018
                  DIMENSION VEC(5), RVEC(6)                                                       *007 LM00019
                  DIMENSION RBUFF(432)                                                            *008 LM00020
                                                                                                       LM00021
                 ..  CHECK ARGUMENTS.                                                                  LM00022
                                                                                                       LM00023
                  THROUGH GETARG, FOR I = 5, -1, I .L. 2                                          *009 LM00024
                    VEC(I) = COMARG.(6-I)                                                         *010 LM00025
      GETARG        WHENEVER VEC(I) .E. FENCE, TRANSFER TO BADARG                                 *011 LM00026
                  WHENEVER COMARG.(5) .NE. FENCE, TRANSFER TO BADARG                              *012 LM00027
                  WHENEVER VEC(3) .NE. $     *$ .AND. VEC(3) .NE. $REVOKE$                        *013 LM00028
                    VEC(3) = REPROB.(VEC(3))                                                      *014 LM00029
                  END OF CONDITIONAL                                                              *015 LM00030
                                                                                                       LM00031
                  OPEN.($RW$, P, F, 040K)                                                         *016 LM00032
                  BUFFER.(P, F, RBUFF(432)...432)                                                 *017 LM00033
                  PNTR = 1                                                                        *018 LM00034
      LOOP        RDWAIT.(P, F, PNTR, RVEC(6)...6, EOF)                                           *019 LM00035
                  THROUGH CPR, FOR I = 5, -1, I .L. 2                                             *020 LM00036
      CPR           WHENEVER VEC(I) .NE. RVEC(I), TRANSFER TO SCAN                                *021 LM00037
                                                                                                       LM00038
                   FOUND THE FILE TO BE DELETED FROM P F                                               LM00039
                                                                                                       LM00040
      PA          RDWAIT. (P, F, PNTR+6, RVEC(6)...6, EOF2)                                       *022 LM00041
                  WRWAIT. (P, F, PNTR,   RVEC(6)...6)                                             *023 LM00042
                                                                                                       LM00043
                  PNTR = PNTR + 6                                                                 *024 LM00044
                  TRANSFER TO PA                                                                  *025 LM00045
                                                                                                       LM00046
                   AN ENTRY IN P F HAS BEEN REMOVED.                                                   LM00047
                   LOOP ENTITLED PA WILL BE XEC'D UNTIL                                                LM00048
                   END OF FILE IS REACHED.  FILE                                                       LM00049
                   MUST THEN BE TRUNCATED.                                                             LM00050
                                                                                                       LM00051
      EOF2        TRFILE. (P, F, PNTR)                                                            *026 LM00052
                                                                                                       LM00053
                                                                                                       LM00054
      EOF         CLOSE.(P, F)                                                                    *027 LM00055
                  CHNCOM.(0)                                                                      *028 LM00056
                                                                                                       LM00057
                                                                                                       LM00058
      SCAN        PNTR = PNTR + 6                                                                 *029 LM00059
                  TRANSFER TO LOOP                                                                *030 LM00060
                                                                                                       LM00061
                                                                                                       LM00062
      BADARG      PRINT COMMENT $REVOKE NAME1 NAME2 PROBNO PROGNO$                                *031 LM00063
                  CHNCOM.(0)                                                                      *032 LM00064
                                                                                                       LM00065
                  END OF PROGRAM                                                                  *033 LM00066
1MAD PROGRAM,TYPE NOV 1963      (ALL NUMBERS ARE OCTAL)
0TOTAL LOCATIONS   01135 TRANSFER VECTOR LENGTH  00014 PROGRAM BEGINS    00750
0VARIABLE STORAGE (A=ARRAY,C=COMMON,E=ERASABLE,DIGIT=MODE)
      BADARG 00015   4        EOF    00017   4        I      00034   1        PNTR   00035   1        RVEC   00726 A 1
      CPR    00014   4        FENCE  00032 A 1        LOOP   00020   4        P      00036 A 1        SCAN   00022   4
      DVEC   00031 A 1        F      00033 A 1        PA     00021   4        RBUFF  00717 A 1        VEC    00734 A 1
      EOF2   00016   4        GETARG 00014   4
0FUNCTION DICTIONARY
      BUFFER 00000   1        CHNCOM 00001   1        CLOSE  00002   1        COMARG 00003   1        EXIT   00004   1
      .PCOMT 00005   1        .SETUP 00006   1        OPEN   00007   1        RDWAIT 00010   1        REPROB 00011   1
      TRFILE 00012   1        WRWAIT 00013   1
0ABSOLUTE CONSTANTS
 00735 +000000000000     00743 +000000000660     00742 +000000000040     00746 -116660606060     00747 -206060606054
 00745 -112565464225     00741 +000000000006     00737 +000000000002     00740 +000000000005     00736 +000000000001
 00744 +233000000000
0STATEMENT DICTIONARY
 00015 TXL -301127001117       00016 TXL -301106001102       00017 TXL -301111001106       00020 TXL -301037001031
 00021 TXL -301071001060       00022 TXL -301116001113
0PROGRAM
                 NORMAL MODE IS INTEGER                                             001  LM00013
                 VECTOR VALUES DVEC(6) = 777777000005K                              002  LM00014
 00750 TSX +0 07400 4 00006    00023     -3 77777 0 00005
                 VECTOR VALUES FENCE = 777777777777K                                003  LM00015
 00032     -3 77777 7 77777
                 VECTOR VALUES DVEC(1)...DVEC(5) = $REVOKE$                         004  LM00016
 00024     -1 12565 4 64225    00025     -1 12565 4 64225    00026     -1 12565 4 64225    00027     -1 12565 4 64225
 00030     -1 12565 4 64225
                 VECTOR VALUES P = $PERMIT$                                         005  LM00017
 00036     -0 72551 4 43163
                 VECTOR VALUES F = $  FILE$                                         006  LM00018
 00033     -2 06026 3 14325
                 DIMENSION VEC(5), RVEC(6)                                          007  LM00019
                 DIMENSION RBUFF(432)                                               008  LM00020
                 THROUGH GETARG, FOR I = 5, -1, I .L. 2                             009  LM00024
 00751 CLA +0 50000 0 00740    00752 STO +0 60100 0 00034    00753 TRA +0 02000 0 00757    00754 CLS +0 50200 0 00736
 00755 ADD +0 40000 0 00034    00756 STO +0 60100 0 00034    00757 CLA +0 50000 0 00034    00760 SUB +0 40200 0 00737
 00761 TZE +0 10000 0 00763    00762 TMI -0 12000 0 01000
                   VEC(I) = COMARG.(6-I)                                            010  LM00025
 00763 CLA +0 50000 0 00741    00764 SUB +0 40200 0 00034    00765 STO +0 60100 0 01132    00766 TSX +0 07400 4 00003
 00767 TXH +3 00000 0 01132    00770 LXA +0 53400 1 00034    00771 STO +0 60100 1 00734
      GETARG       WHENEVER VEC(I) .E. FENCE, TRANSFER TO BADARG                    011  LM00026
 00772 LXA +0 53400 1 00034    00773 CLA +0 50000 1 00734    00774 SUB +0 40200 0 00032    00775 TNZ -0 10000 0 00777
 00776 TRA +0 02000 0 00015    00777 TRA +0 02000 0 00754
                 WHENEVER COMARG.(5) .NE. FENCE, TRANSFER TO BADARG                 012  LM00027
 01000 TSX +0 07400 4 00003    01001 TXH +3 00000 0 00740    01002 SUB +0 40200 0 00032    01003 TZE +0 10000 0 01005
 01004 TRA +0 02000 0 00015
                 W'R VEC(3) .NE. $     *$ .AND. VEC(3) .NE. $REVOKE$                013  LM00028
 01005 CLA +0 50000 0 00731    01006 SUB +0 40200 0 00745    01007 TZE +0 10000 0 01016    01010 CLA +0 50000 0 00731
 01011 SUB +0 40200 0 00747    01012 TZE +0 10000 0 01016
                   VEC(3) = REPROB.(VEC(3))                                         014  LM00029
 01013 TSX +0 07400 4 00011    01014 TXH +3 00000 0 00731    01015 STO +0 60100 0 00731
                 END OF CONDITIONAL                                                 015  LM00030
                 OPEN.($RW$, P, F, 040K)                                            016  LM00032
 01016 TSX +0 07400 4 00007    01017 TXH +3 00000 0 00746    01020 TXH +3 00000 0 00036    01021 TXH +3 00000 0 00033
 01022 TXH +3 00000 0 00742
                 BUFFER.(P, F, RBUFF(432)...432)                                    017  LM00033
 01023 TSX +0 07400 4 00000    01024 TXH +3 00000 0 00036    01025 TXH +3 00000 0 00033    01026 TIX +2 00743 0 00037
                 PNTR = 1                                                           018  LM00034
 01027 CLA +0 50000 0 00736    01030 STO +0 60100 0 00035
      LOOP       RDWAIT.(P, F, PNTR, RVEC(6)...6, EOF)                              019  LM00035
 01031 TSX +0 07400 4 00010    01032 TXH +3 00000 0 00036    01033 TXH +3 00000 0 00033    01034 TXH +3 00000 0 00035
 01035 TIX +2 00741 0 00720    01036 TXH +3 00000 0 00017
                 THROUGH CPR, FOR I = 5, -1, I .L. 2                                020  LM00036
 01037 CLA +0 50000 0 00740    01040 STO +0 60100 0 00034    01041 TRA +0 02000 0 01045    01042 CLS +0 50200 0 00736
 01043 ADD +0 40000 0 00034    01044 STO +0 60100 0 00034    01045 CLA +0 50000 0 00034    01046 SUB +0 40200 0 00737
 01047 TZE +0 10000 0 01051    01050 TMI -0 12000 0 01060
      CPR          WHENEVER VEC(I) .NE. RVEC(I), TRANSFER TO SCAN                   021  LM00037
 01051 LXA +0 53400 1 00034    01052 LXA +0 53400 2 00034    01053 CLA +0 50000 1 00734    01054 SUB +0 40200 2 00726
 01055 TZE +0 10000 0 01057    01056 TRA +0 02000 0 00022    01057 TRA +0 02000 0 01042
      PA         RDWAIT. (P, F, PNTR+6, RVEC(6)...6, EOF2)                          022  LM00041
 01060 CLA +0 50000 0 00035    01061 ADD +0 40000 0 00741    01062 STO +0 60100 0 01132    01063 TSX +0 07400 4 00010
 01064 TXH +3 00000 0 00036    01065 TXH +3 00000 0 00033    01066 TXH +3 00000 0 01132    01067 TIX +2 00741 0 00720
 01070 TXH +3 00000 0 00016
                 WRWAIT. (P, F, PNTR,   RVEC(6)...6)                                023  LM00042
 01071 TSX +0 07400 4 00013    01072 TXH +3 00000 0 00036    01073 TXH +3 00000 0 00033    01074 TXH +3 00000 0 00035
 01075 TIX +2 00741 0 00720
                 PNTR = PNTR + 6                                                    024  LM00044
 01076 CLA +0 50000 0 00035    01077 ADD +0 40000 0 00741    01100 STO +0 60100 0 00035
                 T'O PA                                                             025  LM00045
 01101 TRA +0 02000 0 00021
      EOF2       TRFILE. (P, F, PNTR)                                               026  LM00052
 01102 TSX +0 07400 4 00012    01103 TXH +3 00000 0 00036    01104 TXH +3 00000 0 00033    01105 TXH +3 00000 0 00035
      EOF        CLOSE.(P, F)                                                       027  LM00055
 01106 TSX +0 07400 4 00002    01107 TXH +3 00000 0 00036    01110 TXH +3 00000 0 00033
                 CHNCOM.(0)                                                         028  LM00056
 01111 TSX +0 07400 4 00001    01112 TXH +3 00000 0 00735
      SCAN       PNTR = PNTR + 6                                                    029  LM00059
 01113 CLA +0 50000 0 00035    01114 ADD +0 40000 0 00741    01115 STO +0 60100 0 00035
                 T'O LOOP                                                           030  LM00060
 01116 TRA +0 02000 0 00020
      BADARG     PRINT COMMENT $REVOKE NAME1 NAME2 PROBNO PROGNO$                   031  LM00063
 01117 TSX +0 07400 4 00005    01120     +0 00000 0 00006    01121     -1 12565 4 64225    01122     -2 04521 4 42501
 01123     -2 04521 4 42502    01124     -2 04751 4 62245    01125     -0 66047 5 14627    01126     -0 54660 6 06060
                 CHNCOM.(0)                                                         032  LM00064
 01127 TSX +0 07400 4 00001    01130 TXH +3 00000 0 00735
                 END OF PROGRAM                                                     033  LM00066
 01131 TSX +0 07400 4 00004
1                                                                                                PAGE 1
                           FILE NAME -- REPRB FAP


                              *
                       00002         ENTRY   REPROB        REFORMAT PROBLEM NUMBER.
                              *      J.H. SALTZER
                              *      (MAINTAINED BY D.E. OPPERT)
                              *      (SEPT - OCT, 1965)
                              *
                              *

            LINKAGE DIRECTOR
      00000  000000000000
      00001  512547514622

      00002  0560 60 4 00001  REPROB LDQ*    1,4           GET PROBLEM NUMBER WITH LEADING BLANKS.
      00003  0774 00 1 00000         AXT     0,1           COUNT BLANKS.
      00004 -0754 00 0 00000  LP     ZAC                   CLEAR FOR COMPARISON.
      00005 -0763 00 0 00006         LGL     6             GET NEXT CHARACTER.
      00006 -0340 00 0 00024         LAS     =H00000       COMPARE WITH ONE BLANK.
      00007  0020 00 0 00011         TRA     FND           NOT BLANK, GO.
      00010  1 00001 1 00004         TXI     LP,1,1        YES, COUNT IT.
      00011 -0501 00 0 00025  FND    ORA     =H0000 0      NON-BLANK FOUND, ADD PRECEDING BLANK.
      00012 -2 00001 1 00015  LOOP   TNX     DONE,1,1      SEE HOW MANY ZEROS TO ADD.
      00013  0767 00 0 00006         ALS     6             MOVE IN A ZERO.
      00014  0020 00 0 00012         TRA     LOOP
      00015  0140 00 0 00016  DONE   TOV     *+1           TURN OFF OVERFLOW INDICATOR.
      00016 -0763 00 0 00006         LGL     6
      00017 -0140 00 0 00016         TNO     *-1           ..
      00020  0602 00 0 00023         SLW     TEMP
      00021  0500 00 0 00023         CLA     TEMP
      00022  0020 00 4 00001         TRA     1,4           RETURN TO MAD PROGRAM
      00023  0 00000 0 00000  TEMP                         TEMPORARY STORAGE FOR RESULT.
                                     END

        LITERALS
      00024  000000000060
      00025  000000006000
1                                                                                                PAGE 1
                        POST PROCESSOR ASSEMBLY DATA

         26 IS THE FIRST LOCATION NOT USED BY THIS PROGRAM

0REFERENCES TO DEFINED SYMBOLS
          4     LP    10
         11    FND     7
         15   DONE    12
         12   LOOP    14
         23   TEMP    20,   21
          2 REPROB     0

0 NO ERROR IN ABOVE ASSEMBLY.


RQUEST   BCD 02/09/69 0028.9   12794         00000
1     MAD PROGRAM LISTING ... ... ...                 FILE  RQUEST   MAD            01/25/69    2140.7
-
                  .. THE REQUEST COMMAND 'RQUEST'.                                                     LM00001
                  .. REWRITTEN BY ROGER ROACH 3/25/68 TO BELIEVE IN THE LISTF                          LM00002
                  .. STAR '*' CONVENTIONS.                                                             LM00003
                  .. LAST MODIFIED 04/16/68 BY D.A. ANDERSON                                           LM00004
                                                                                                       LM00005
                  NORMAL MODE IS INTEGER                                                          *001 LM00006
                  BOOLEAN CARRYI, SCANI, ONCE, FIRST, CLOSEI,GOOD                                 *002 LM00007
                  DIMENSION COMBUF(20),LINE(15),ENTRY(9),BUFF(431)                                *003 LM00008
                  EQUIVALENCE (COMBUF(20),FENCE),(ENTRY(9),N1),(ENTRY(8),N2)                      *004 LM00009
                  EQUIVALENCE (ENTRY(1),N3),(ENTRY,N4)                                            *005 LM00010
                  VECTOR VALUES CARRYI = 0B                                                       *006 LM00011
                  VECTOR VALUES CLOSEI = 0B                                                       *007 LM00012
                  VECTOR VALUES ONCE = 1B                                                         *008 LM00013
                  VECTOR VALUES FIRST = 1B                                                        *009 LM00014
                  VECTOR VALUES GOOD = 0B                                                         *010 LM00015
                  VECTOR VALUES ANSWER = $YES$                                                    *011 LM00016
                  VECTOR VALUES D = 2                                                             *012 LM00017
                  VECTOR VALUES FENCE = 777777777777K                                             *013 LM00018
                  VECTOR VALUES B = 605757575757K                                                 *014 LM00019
                  VECTOR VALUES CB = 736057575757K                                                *015 LM00020
                  VECTOR VALUES OR = 465157575757K                                                *016 LM00021
                  VECTOR VALUES OUT = $OUTPUT$                                                    *017 LM00022
                  VECTOR VALUES RQ = $RQUEST$                                                     *018 LM00023
                  VECTOR VALUES TABLE = 14,$ PRINT$,$PRNDEL$,$SSPRNT$,$SSPRDL$,$BPUNCH$,          *019 LM00024
                1  $BPUDEL$,$DPUNCH$,$DPUDEL$,$7PUNCH$,$7PUDEL$,$DELETE$,                         *019 LM00025
                2  $  PLOT$,$PLODEL$,$ CARRY$                                                     *019 LM00026
                                                                                                       LM00027
                  INITIALIZE THE COMMAND BUFFERS AND TEST FOR NO ARGUMENTS.                            LM00028
                                                                                                       LM00029
                  GCLS.(COMBUF,0)                                                                 *020 LM00030
                  RQ = COMBUF(0)                                                                  *021 LM00031
                  WHENEVER COMBUF(1).E. FENCE                                                     *022 LM00032
                    PRMESS.(COMBUF,$ CMMD NAME1 NAME2 ...ETC$)                                    *023 LM00033
                    PRMESS.($  WHERE CMMD MAY BY ANY OF THE FOLLOWING -$)                         *024 LM00034
                    THROUGH LOOP0, FOR I=1,1,I.G.TABLE-1                                          *025 LM00035
                    PRMESA.(TABLE(I),CB)                                                          *026 LM00036
      LOOP0         WHENEVER I.E. I/9*9, PRMESS.                                                  *027 LM00037
                    PRMESS.(OR,TABLE(TABLE))                                                      *028 LM00038
                    CHNCOM.(0)                                                                    *029 LM00039
                  END OF CONDITIONAL                                                              *030 LM00040
                                                                                                       LM00041
                                                                                                       LM00042
      LOOP1       THROUGH LOOP1, FOR I=1,1,COMBUF(1).E.TABLE(I).OR.I.G.TABLE                      *031 LM00043
                  WHENEVER I .G. TABLE                                                            *032 LM00044
                    PRMESS.(COMBUF(1),$ IS NOT A RQUEST$)                                         *033 LM00045
                    CHNCOM.(0)                                                                    *034 LM00046
                  END OF CONDITIONAL                                                              *035 LM00047
                                                                                                       LM00048
                                                                                                       LM00049
                  WHOAMI.(LINE(3)...4)                                                            *036 LM00050
                  FERRTN.(IOERR)                                                                  *037 LM00051
                  LINE(15) = COMBUF(1)                                                            *038 LM00052
                  FSTATE.(OUT,RQ,ENTRY(7)...8,FERR,FCODE)                                         *039 LM00053
                  WHENEVER ENTRY(5).NE.1                                                          *040 LM00054
                    PRMESS.($THE RQUEST FILE IS BUSY.  RETYPE RQUEST LATER.$)                     *041 LM00055
                    CHNCOM.(0)                                                                    *042 LM00056
                  OR WHENEVER ENTRY(6) .A. 1 .NE. 0                                               *043 LM00057
                    CHFILE.(OUT,RQ,1,-0,-0)                                                       *044 LM00058
                    DELFIL.(OUT,RQ)                                                               *045 LM00059
                  END OF CONDITIONAL                                                              *046 LM00060
                                                                                                       LM00061
                                                                                                       LM00062
      OK          WHENEVER COMBUF(1) .E. $ CARRY$                                                 *047 LM00063
                    CARRYI = 1B                                                                   *048 LM00064
                    D = 6                                                                         *049 LM00065
                  END OF CONDITIONAL                                                              *050 LM00066
                                                                                                       LM00067
                                                                                                       LM00068
                  THROUGH LOOP2,FOR I = 2,D,COMBUF(I).E.FENCE.OR.I.G.18                           *051 LM00069
                  WHENEVER COMBUF(I+1).E.FENCE                                                    *052 LM00070
                    PRMESS.(COMBUF(I),$ IS AN INCOMPLETE REQUEST. $)                              *053 LM00071
                    TRANSFER TO GOHOME                                                            *054 LM00072
                  END OF CONDITIONAL                                                              *055 LM00073
                                                                                                       LM00074
                                                                                                       LM00075
                  MASK1 = NAMASK.(COMBUF(I))                                                      *056 LM00076
                  MASK2 = NAMASK.(COMBUF(I+1))                                                    *057 LM00077
                  WHENEVER MASK1.A.MASK2 .E. FENCE                                                *058 LM00078
                    SCANI = 0B                                                                    *059 LM00079
                    N1 = COMBUF(I)                                                                *060 LM00080
                    N2 = COMBUF(I+1)                                                              *061 LM00081
                    FSTATE.(N1,N2,ENTRY(7)...8,IOERR2,ERCODE)                                     *062 LM00082
                  OTHERWISE                                                                       *063 LM00083
                    SCANI = 1B                                                                    *064 LM00084
                    WHENEVER ONCE                                                                 *065 LM00085
                      ONCE = 0B                                                                   *066 LM00086
                      UPDATE.                                                                     *067 LM00087
                      SCNFIL.($U.F.D.(FILE)$)                                                     *068 LM00088
                    END OF CONDITIONAL                                                            *069 LM00089
                    ISCAN.(COMBUF(I),COMBUF(I+1))                                                 *070 LM00090
                    SCAN.(ENTRY(9)...7,NOPE)                                                      *071 LM00091
                  END OF CONDITIONAL                                                              *072 LM00092
                                                                                                       LM00093
                                                                                                       LM00094
                  TRANSFER TO FTEST                                                               *073 LM00095
                                                                                                       LM00096
                                                                                                       LM00097
      LOOP2       CONTINUE                                                                        *074 LM00098
      GOHOME      WRTBUF.                                                                         *075 LM00099
      EGRETS      WHENEVER CLOSEI, CLOSE.($ALL$,-0)                                               *076 LM00100
                  RESETF.                                                                         *077 LM00101
                  CHNCOM.(0)                                                                      *078 LM00102
                                                                                                       LM00103
                                                                                                       LM00104
      FERR        WHENEVER FCODE .E. 3 , TRANSFER TO OK                                           *079 LM00105
      IOERR       PRNTER.(61K)                                                                    *080 LM00106
                  TRANSFER TO EGRETS                                                              *081 LM00107
                                                                                                       LM00108
                                                                                                       LM00109
      IOERR2      WHENEVER ERCODE .E. 3                                                           *082 LM00110
      NOPE          PRMESS.(COMBUF(I),B,COMBUF(I+1),$ NOT FOUND,$)                                *083 LM00111
                    WHENEVER CARRYI .AND. (COMBUF(I+2).E.FENCE.OR.COMBUF(I+3).E.                  *084 LM00112
                1     FENCE.OR.COMBUF(I+4).E.FENCE.OR.COMBUF(I+5).E.FENCE),D=20                   *084 LM00113
                    WHENEVER .NOT.SCANI, TRANSFER TO ASK                                          *085 LM00114
                    TRANSFER TO LOOP2                                                             *086 LM00115
                  OTHERWISE                                                                       *087 LM00116
                    PRNTER.(61K)                                                                  *088 LM00117
                    TRANSFER TO LOOP2                                                             *089 LM00118
                  END OF CONDITIONAL                                                              *090 LM00119
                                                                                                       LM00120
                                                                                                       LM00121
      FTEST       WHENEVER (.NOT.SCANI.AND.ENTRY(6).A.20K.NE.0).OR.                               *091 LM00122
                1   (SCANI.AND.(ENTRY(5).RS.28).A.20K.NE.0)                                       *091 LM00123
                      PRMESA.(N1,B,N2,$ IS IN 'PRIVATE' MODE.$)                                   *092 LM00124
      ASK             PRMESA.($DO YOU STILL WANT REQUEST,$)                                       *093 LM00125
                      WHENEVER LINE.NE.$(FIB)$, RDFLXC.(ANSWER,6)                                 *094 LM00126
                      WHENEVER ANSWER.NE.$YES$, TRANSFER TO NEXT                                  *095 LM00127
                  END OF CONDITIONAL                                                              *096 LM00128
                  WHENEVER FIRST                                                                  *097 LM00129
                    FIRST = 0B                                                                    *098 LM00130
                    OPEN.($W$,OUT,RQ)                                                             *099 LM00131
                    BUFFER.(OUT,RQ,BUFF(431)...432)                                               *100 LM00132
                    SETBUF.(LINE(14)...11,GOOD,WRCARD.,PANIC)                                     *101 LM00133
                  END OF CONDITIONAL                                                              *102 LM00134
                  WHENEVER CARRYI                                                                 *103 LM00135
                    ATTNAM.(ENTRY(3)...2)                                                         *104 LM00136
                    ENTRY(1) = N1                                                                 *105 LM00137
                    ENTRY = N2                                                                    *106 LM00138
                    THROUGH LOOP3, FOR J=1,1,J.G.4.OR.COMBUF(I+1+J).E.FENCE                       *107 LM00139
                    WHENEVER COMBUF(I+J+1).E.$     *$, TRANSFER TO LOOP3                          *108 LM00140
                    ENTRY(4-J) = COMBUF(I+1+J)                                                    *109 LM00141
      LOOP3         CONTINUE                                                                      *110 LM00142
                    WHENEVER COMBUF(I+J+1) .E. FENCE, D = 20                                      *111 LM00143
                    MASK3 = NAMASK.(N3)                                                           *112 LM00144
                    MASK4 = NAMASK.(N4)                                                           *113 LM00145
                    MASK3P = COM.(MASK3)                                                          *114 LM00146
                    MASK4P = COM.(MASK4)                                                          *115 LM00147
                    N3 = (N1.A.MASK3P).V.(N3.A.MASK3)                                             *116 LM00148
                    N4 = (N2.A.MASK4P).V.(N4.A.MASK4)                                             *117 LM00149
                    FILBUF.(ENTRY(9)...2,ENTRY(3)...4)                                            *118 LM00150
                    WRTBUF.                                                                       *119 LM00151
                  OTHERWISE                                                                       *120 LM00152
                    FILBUF.(ENTRY(9)...2)                                                         *121 LM00153
                  END OF CONDITIONAL                                                              *122 LM00154
                                                                                                       LM00155
      NEXT        WHENEVER SCANI                                                                  *123 LM00156
                    SCAN.(ENTRY(9)...7,LOOP2)                                                     *124 LM00157
                    TRANSFER TO FTEST                                                             *125 LM00158
                  OTHERWISE                                                                       *126 LM00159
                    TRANSFER TO LOOP2                                                             *127 LM00160
                  END OF CONDITIONAL                                                              *128 LM00161
                                                                                                       LM00162
      PANIC       PRMESS.($MACHINE OR SYSTEM ERROR. IGNORING$,N1,N2)                              *129 LM00163
                  TRANSFER TO NEXT                                                                *130 LM00164
                                                                                                       LM00165
                  INTERNAL FUNCTION                                                               *131 LM00166
                  ENTRY TO WRCARD.                                                                *132 LM00167
                                                                                                       LM00168
                  WRWAIT.(OUT,RQ,0,LINE(15)...14)                                                 *133 LM00169
                  GOOD = 0B                                                                       *134 LM00170
                  CLOSEI = 1B                                                                     *135 LM00171
                  FUNCTION RETURN                                                                 *136 LM00172
                                                                                                       LM00173
                  END OF FUNCTION                                                                 *137 LM00174
                                                                                                       LM00175
                  END OF PROGRAM                                                                  *138 LM00176
1MAD PROGRAM,TYPE NOV 1963      (ALL NUMBERS ARE OCTAL)
0TOTAL LOCATIONS   02155 TRANSFER VECTOR LENGTH  00034 PROGRAM BEGINS    01166
0VARIABLE STORAGE (A=ARRAY,C=COMMON,E=ERASABLE,DIGIT=MODE)
      ANSWER 00112 A 1        ENTRY  00074 A 1        IOERR  00103   4        MASK3P 01030   1        NOPE   00107   4
      ASK    00075   4        ERCODE 01000   1        I      01004   1        MASK3  01031   1        OK     00110   4
      B      00113 A 1        FCODE  01001   1        J      01005   1        MASK4P 01032   1        ONCE   01034 A 2
      BUFF   00773 A 1        FENCE  00036 A 1        LINE   01025 A 1        MASK4  01033   1        OR     01035 A 1
      CARRYI 00774 A 2        FERR   00077   4        LOOP0  00035   4        N1     00063   1        OUT    01036 A 1
      CB     00775 A 1        FIRST  01002 A 2        LOOP1  00035   4        N2     00064   1        PANIC  00111   4
      CLOSEI 00776 A 2        FTEST  00100   4        LOOP2  00104   4        N3     00073   1        RQ     01037 A 1
      COMBUF 00062 A 1        GOHOME 00101   4        LOOP3  00105   4        N4     00074   1        SCANI  01040   2
      D      00777 A 1        GOOD   01003 A 2        MASK1  01026   1        NEXT   00106   4        TABLE  01057 A 1
      EGRETS 00076   4        IOERR2 00102   4        MASK2  01027   1
0FUNCTION DICTIONARY
      ATTNAM 00000   1        BUFFER 00001   1        CHFILE 00002   1        CHNCOM 00003   1        CLOSE  00004   1
      COM    00005   1        DELFIL 00006   1        EXIT   00007   1        FERRTN 00010   1        FILBUF 00011   1
      FSTATE 00012   1        GCLS   00013   1        ISCAN  00014   1        .SETUP 00015   1        NAMASK 00016   1
      OPEN   00017   1        PRMESA 00020   1        PRMESS 00021   1        PRNTER 00022   1        RDFLXC 00023   1
      RESETF 00024   1        SCAN   00025   1        SCNFIL 00026   1        SETBUF 00027   1        UPDATE 00030   1
      WHOAMI 00031   1        WRTBUF 00032   1        WRWAIT 00033   1        WRCARD 00034   1
0ABSOLUTE CONSTANTS
 01073 +000000000016     01113 +314527606060     01133 -203127454651     01106 +255151465133     01163 -306263254460
 01110 +256046516062     01115 -042123303145     01143 -206060606054     01072 +000000000013     01101 +000000000660
 01160 -266060606060     01161 -302562606060     01164 -342631223460     01153 -237360606060     01146 -206621456360
 01145 -206263314343     01105 +244660704664     01120 -062425336060     01103 +216325146044     01126 -201447513165
 01136 -203162603145     01074 +000000000020     01077 +000000000034     01076 +000000000024     01065 +000000000005
 01122 -066445247360     01141 -204546636026     01100 +000000000061     01063 +000000000003     01102 +214343606060
 01067 +000000000007     01165 -342631432534     01156 -243326332433     01151 -233360606060     01125 -112550642562
 01124 -074325632560     01134 -203145234644     01135 -203162602145     01075 +000000000022     01062 +000000000002
 01066 +000000000006     01130 -202321515170     01147 -232551336060     01111 +256263604321     01123 -072560515064
 01142 -206051256370     01127 -202264627033     01112 +314325603162     01154 -242562636026     01150 -233025605150
 01070 +000000000010     01064 +000000000004     01155 -242562636060     01152 -236021605150     01137 -203162604546
 01071 +000000000011     01157 -263145276040     01132 -202646434346     01121 -062660633025     01162 -306021457060
 01140 -204421706022     01107 +256023444424     01144 -206066302551     01114 +333333256323     01117 -052144250260
 01116 -052144250160     01131 -202344442460     01060 +000000000000     01061 +000000000001     01104 +233000000000
0STATEMENT DICTIONARY
 00075 TXL -301716001710       00076 TXL -301554001545       00077 TXL -301563001557       00100 TXL -301700001654
 00101 TXL -301545001544       00102 TXL -301571001566       00103 TXL -301565001563       00104 TXL -301544001543
 00105 TXL -302025002024       00106 TXL -302101002077       00107 TXL -301610001571       00110 TXL -301377001374
 00111 TXL -302120002107
0PROGRAM
                 N'R                                                                001  LM00006
                 BOOLEAN CARRYI, SCANI, ONCE, FIRST, CLOSEI,GOOD                    002  LM00007
                 D'N COMBUF(20),LINE(15),ENTRY(9),BUFF(431)                         003  LM00008
                 E'E (COMBUF(20),FENCE),(ENTRY(9),N1),(ENTRY(8),N2)                 004  LM00009
                 E'E (ENTRY(1),N3),(ENTRY,N4)                                       005  LM00010
                 V'S CARRYI = 0B                                                    006  LM00011
 01166 TSX +0 07400 4 00015    00774     +0 00000 0 00000
                 V'S CLOSEI = 0B                                                    007  LM00012
 00776     +0 00000 0 00000
                 V'S ONCE = 1B                                                      008  LM00013
 01034     +0 00000 0 00001
                 V'S FIRST = 1B                                                     009  LM00014
 01002     +0 00000 0 00001
                 V'S GOOD = 0B                                                      010  LM00015
 01003     +0 00000 0 00000
                 V'S ANSWER = $YES$                                                 011  LM00016
 00112     -3 02562 6 06060
                 V'S D = 2                                                          012  LM00017
 00777     +0 00000 0 00002
                 V'S FENCE = 777777777777K                                          013  LM00018
 00036     -3 77777 7 77777
                 V'S B = 605757575757K                                              014  LM00019
 00113     -2 05757 5 75757
                 V'S CB = 736057575757K                                             015  LM00020
 00775     -3 36057 5 75757
                 V'S OR = 465157575757K                                             016  LM00021
 01035     -0 65157 5 75757
                 V'S OUT = $OUTPUT$                                                 017  LM00022
 01036     -0 66463 4 76463
                 V'S RQ = $RQUEST$                                                  018  LM00023
 01037     -1 15064 2 56263
                 V'S TABLE = 14,$ PRINT$,$PRNDEL$,$SSPRNT$,$SSPRDL$,$BPUNCH$,       019  LM00024
                1 $BPUDEL$,$DPUNCH$,$DPUDEL$,$7PUNCH$,$7PUDEL$,$DELETE$,            019  LM00025
                2 $  PLOT$,$PLODEL$,$ CARRY$                                        019  LM00026
 01041     -2 02321 5 15170    01042     -0 74346 2 42543    01043     -2 06047 4 34663    01044     +2 42543 2 56325
 01045     +0 74764 2 42543    01046     +0 74764 4 52330    01047     +2 44764 2 42543    01050     +2 44764 4 52330
 01051     +2 24764 2 42543    01052     +2 24764 4 52330    01053     -2 26247 5 12443    01054     -2 26247 5 14563
 01055     -0 75145 2 42543    01056     -2 04751 3 14563    01057     +0 00000 0 00016
                 GCLS.(COMBUF,0)                                                    020  LM00030
 01167 TSX +0 07400 4 00013    01170 TXH +3 00000 0 00062    01171 TXH +3 00000 0 01060
                 RQ = COMBUF(0)                                                     021  LM00031
 01172 CLA +0 50000 0 00062    01173 STO +0 60100 0 01037
                 W'R COMBUF(1).E. FENCE                                             022  LM00032
 01174 CLA +0 50000 0 00061    01175 SUB +0 40200 0 00036    01176 TNZ -0 10000 0 01264
                   PRMESS.(COMBUF,$ CMMD NAME1 NAME2 ...ETC$)                       023  LM00033
 01177 TSX +0 07400 4 00021    01200 TXH +3 00000 0 00062    01201 TXH +3 00000 0 01131    01202 TXH +3 00000 0 01116
 01203 TXH +3 00000 0 01117    01204 TXH +3 00000 0 01114
                   PRMESS.($  WHERE CMMD MAY BY ANY OF THE FOLLOWING -$)            024  LM00034
 01205 TSX +0 07400 4 00021    01206 TXH +3 00000 0 01144    01207 TXH +3 00000 0 01107    01210 TXH +3 00000 0 01140
 01211 TXH +3 00000 0 01162    01212 TXH +3 00000 0 01121    01213 TXH +3 00000 0 01132    01214 TXH +3 00000 0 01157
                   T'H LOOP0, FOR I=1,1,I.G.TABLE-1                                 025  LM00035
 01215 CLA +0 50000 0 01061    01216 STO +0 60100 0 01004    01217 TRA +0 02000 0 01223    01220 CLA +0 50000 0 01004
 01221 ADD +0 40000 0 01061    01222 STO +0 60100 0 01004    01223 CLA +0 50000 0 01057    01224 SUB +0 40200 0 01061
 01225 CHS +0 76000 0 00002    01226 ADD +0 40000 0 01004    01227 TZE +0 10000 0 01231    01230 TPL +0 12000 0 01253
                   PRMESA.(TABLE(I),CB)                                             026  LM00036
 01231 CLA +0 50000 0 01004    01232 SUB +0 40200 0 01233    01233 TXH +3 00000 0 01057    01234 STA +0 62100 0 01236
 01235 TSX +0 07400 4 00020    01236 TXH +3 00000 0 00000    01237 TXH +3 00000 0 00775
      LOOP0        W'R I.E. I/9*9, PRMESS.                                          027  LM00037
 01240 LDQ +0 56000 0 01004    01241 PXD -0 75400 0 00000    01242 LLS +0 76300 0 00000    01243 DVP +0 22100 0 01071
 01244 MPY +0 20000 0 01071    01245 XCA +0 13100 0 00000    01246 CHS +0 76000 0 00002    01247 ADD +0 40000 0 01004
 01250 TNZ -0 10000 0 01252    01251 TSX +0 07400 4 00021    01252 TRA +0 02000 0 01220
                   PRMESS.(OR,TABLE(TABLE))                                         028  LM00038
 01253 CLA +0 50000 0 01057    01254 SUB +0 40200 0 01255    01255 TXH +3 00000 0 01057    01256 STA +0 62100 0 01261
 01257 TSX +0 07400 4 00021    01260 TXH +3 00000 0 01035    01261 TXH +3 00000 0 00000
                   CHNCOM.(0)                                                       029  LM00039
 01262 TSX +0 07400 4 00003    01263 TXH +3 00000 0 01060
                 E'L                                                                030  LM00040
      LOOP1      T'H LOOP1, FOR I=1,1,COMBUF(1).E.TABLE(I).OR.I.G.TABLE             031  LM00043
 01264 CLA +0 50000 0 01061    01265 STO +0 60100 0 01004    01266 TRA +0 02000 0 01272    01267 CLA +0 50000 0 01004
 01270 ADD +0 40000 0 01061    01271 STO +0 60100 0 01004    01272 CLA +0 50000 0 01004    01273 SUB +0 40200 0 01057
 01274 TZE +0 10000 0 01276    01275 TPL +0 12000 0 01303    01276 LXA +0 53400 2 01004    01277 CLA +0 50000 0 00061
 01300 SUB +0 40200 2 01057    01301 TZE +0 10000 0 01303    01302 TRA +0 02000 0 01267
                 W'R I .G. TABLE                                                    032  LM00044
 01303 CLA +0 50000 0 01004    01304 SUB +0 40200 0 01057    01305 TZE +0 10000 0 01316    01306 TMI -0 12000 0 01316
                   PRMESS.(COMBUF(1),$ IS NOT A RQUEST$)                            033  LM00045
 01307 TSX +0 07400 4 00021    01310 TXH +3 00000 0 00061    01311 TXH +3 00000 0 01137    01312 TXH +3 00000 0 01152
 01313 TXH +3 00000 0 01155
                   CHNCOM.(0)                                                       034  LM00046
 01314 TSX +0 07400 4 00003    01315 TXH +3 00000 0 01060
                 E'L                                                                035  LM00047
                 WHOAMI.(LINE(3)...4)                                               036  LM00050
 01316 TSX +0 07400 4 00031    01317 TIX +2 01064 0 01022
                 FERRTN.(IOERR)                                                     037  LM00051
 01320 TSX +0 07400 4 00010    01321 TXH +3 00000 0 00103
                 LINE(15) = COMBUF(1)                                               038  LM00052
 01322 CLA +0 50000 0 00061    01323 STO +0 60100 0 01006
                 FSTATE.(OUT,RQ,ENTRY(7)...8,FERR,FCODE)                            039  LM00053
 01324 TSX +0 07400 4 00012    01325 TXH +3 00000 0 01036    01326 TXH +3 00000 0 01037    01327 TIX +2 01070 0 00065
 01330 TXH +3 00000 0 00077    01331 TXH +3 00000 0 01001
                 W'R ENTRY(5).NE.1                                                  040  LM00054
 01332 CLA +0 50000 0 00067    01333 SUB +0 40200 0 01061    01334 TZE +0 10000 0 01351
                   PRMESS.($THE RQUEST FILE IS BUSY.  RETYPE RQUEST LATER.$)        041  LM00055
 01335 TSX +0 07400 4 00021    01336 TXH +3 00000 0 01150    01337 TXH +3 00000 0 01154    01340 TXH +3 00000 0 01112
 01341 TXH +3 00000 0 01127    01342 TXH +3 00000 0 01142    01343 TXH +3 00000 0 01123    01344 TXH +3 00000 0 01111
 01345 TXH +3 00000 0 01147
                   CHNCOM.(0)                                                       042  LM00056
 01346 TSX +0 07400 4 00003    01347 TXH +3 00000 0 01060
                 O'R ENTRY(6) .A. 1 .NE. 0                                          043  LM00057
 01350 TRA +0 02000 0 01374    01351 CAL -0 50000 0 00066    01352 ANA -0 32000 0 01061    01353 SLW +0 60200 0 02151
 01354 CLA +0 50000 0 02151    01355 SUB +0 40200 0 01060    01356 TZE +0 10000 0 01374
                   CHFILE.(OUT,RQ,1,-0,-0)                                          044  LM00058
 01357 CLS +0 50200 0 01060    01360 STO +0 60100 0 02151    01361 CLS +0 50200 0 01060    01362 STO +0 60100 0 02152
 01363 TSX +0 07400 4 00002    01364 TXH +3 00000 0 01036    01365 TXH +3 00000 0 01037    01366 TXH +3 00000 0 01061
 01367 TXH +3 00000 0 02152    01370 TXH +3 00000 0 02151
                   DELFIL.(OUT,RQ)                                                  045  LM00059
 01371 TSX +0 07400 4 00006    01372 TXH +3 00000 0 01036    01373 TXH +3 00000 0 01037
                 E'L                                                                046  LM00060
      OK         W'R COMBUF(1) .E. $ CARRY$                                         047  LM00063
 01374 CLA +0 50000 0 00061    01375 SUB +0 40200 0 01130    01376 TNZ -0 10000 0 01403
                   CARRYI = 1B                                                      048  LM00064
 01377 CLA +0 50000 0 01061    01400 STO +0 60100 0 00774
                   D = 6                                                            049  LM00065
 01401 CLA +0 50000 0 01066    01402 STO +0 60100 0 00777
                 E'L                                                                050  LM00066
                 T'H LOOP2,FOR I = 2,D,COMBUF(I).E.FENCE.OR.I.G.18                  051  LM00069
 01403 CLA +0 50000 0 01062    01404 STO +0 60100 0 01004    01405 TRA +0 02000 0 01411    01406 CLA +0 50000 0 01004
 01407 ADD +0 40000 0 00777    01410 STO +0 60100 0 01004    01411 CLA +0 50000 0 01004    01412 SUB +0 40200 0 01075
 01413 TZE +0 10000 0 01415    01414 TPL +0 12000 0 01544    01415 LXA +0 53400 1 01004    01416 CLA +0 50000 1 00062
 01417 SUB +0 40200 0 00036    01420 TZE +0 10000 0 01544
                 W'R COMBUF(I+1).E.FENCE                                            052  LM00070
 01421 CLA +0 50000 0 01004    01422 ADD +0 40000 0 01061    01423 PAX +0 73400 1 00000    01424 CLA +0 50000 1 00062
 01425 SUB +0 40200 0 00036    01426 TNZ -0 10000 0 01443
                   PRMESS.(COMBUF(I),$ IS AN INCOMPLETE REQUEST. $)                 053  LM00071
 01427 CLA +0 50000 0 01004    01430 SUB +0 40200 0 01431    01431 TXH +3 00000 0 00062    01432 STA +0 62100 0 01434
 01433 TSX +0 07400 4 00021    01434 TXH +3 00000 0 00000    01435 TXH +3 00000 0 01135    01436 TXH +3 00000 0 01134
 01437 TXH +3 00000 0 01124    01440 TXH +3 00000 0 01125    01441 TXH +3 00000 0 01151
                   T'O GOHOME                                                       054  LM00072
 01442 TRA +0 02000 0 00101
                 E'L                                                                055  LM00073
                 MASK1 = NAMASK.(COMBUF(I))                                         056  LM00076
 01443 CLA +0 50000 0 01004    01444 SUB +0 40200 0 01445    01445 TXH +3 00000 0 00062    01446 STA +0 62100 0 01450
 01447 TSX +0 07400 4 00016    01450 TXH +3 00000 0 00000    01451 STO +0 60100 0 01026
                 MASK2 = NAMASK.(COMBUF(I+1))                                       057  LM00077
 01452 CLA +0 50000 0 01004    01453 ADD +0 40000 0 01061    01454 SUB +0 40200 0 01455    01455 TXH +3 00000 0 00062
 01456 STA +0 62100 0 01460    01457 TSX +0 07400 4 00016    01460 TXH +3 00000 0 00000    01461 STO +0 60100 0 01027
                 W'R MASK1.A.MASK2 .E. FENCE                                        058  LM00078
 01462 CAL -0 50000 0 01026    01463 ANA -0 32000 0 01027    01464 SLW +0 60200 0 02152    01465 CLA +0 50000 0 02152
 01466 SUB +0 40200 0 00036    01467 TNZ -0 10000 0 01511
                   SCANI = 0B                                                       059  LM00079
 01470 CLA +0 50000 0 01060    01471 STO +0 60100 0 01040
                   N1 = COMBUF(I)                                                   060  LM00080
 01472 LXA +0 53400 2 01004    01473 CLA +0 50000 2 00062    01474 STO +0 60100 0 00063
                   N2 = COMBUF(I+1)                                                 061  LM00081
 01475 CLA +0 50000 0 01004    01476 ADD +0 40000 0 01061    01477 PAX +0 73400 2 00000    01500 CLA +0 50000 2 00062
 01501 STO +0 60100 0 00064
                   FSTATE.(N1,N2,ENTRY(7)...8,IOERR2,ERCODE)                        062  LM00082
 01502 TSX +0 07400 4 00012    01503 TXH +3 00000 0 00063    01504 TXH +3 00000 0 00064    01505 TIX +2 01070 0 00065
 01506 TXH +3 00000 0 00102    01507 TXH +3 00000 0 01000
                 O'E                                                                063  LM00083
 01510 TRA +0 02000 0 01542
                   SCANI = 1B                                                       064  LM00084
 01511 CLA +0 50000 0 01061    01512 STO +0 60100 0 01040
                   W'R ONCE                                                         065  LM00085
 01513 NZT -0 52000 0 01034    01514 TRA +0 02000 0 01523
                     ONCE = 0B                                                      066  LM00086
 01515 CLA +0 50000 0 01060    01516 STO +0 60100 0 01034
                     UPDATE.                                                        067  LM00087
 01517 TSX +0 07400 4 00030
                     SCNFIL.($U.F.D.(FILE)$)                                        068  LM00088
 01520 TSX +0 07400 4 00026    01521 TXH +3 00000 0 01156    01522 TXH +3 00000 0 01165
                   E'L                                                              069  LM00089
                   ISCAN.(COMBUF(I),COMBUF(I+1))                                    070  LM00090
 01523 CLA +0 50000 0 01004    01524 ADD +0 40000 0 01061    01525 SUB +0 40200 0 01526    01526 TXH +3 00000 0 00062
 01527 STA +0 62100 0 01536    01530 CLA +0 50000 0 01004    01531 SUB +0 40200 0 01532    01532 TXH +3 00000 0 00062
 01533 STA +0 62100 0 01535    01534 TSX +0 07400 4 00014    01535 TXH +3 00000 0 00000    01536 TXH +3 00000 0 00000
                   SCAN.(ENTRY(9)...7,NOPE)                                         071  LM00091
 01537 TSX +0 07400 4 00025    01540 TIX +2 01067 0 00063    01541 TXH +3 00000 0 00107
                 E'L                                                                072  LM00092
                 T'O FTEST                                                          073  LM00095
 01542 TRA +0 02000 0 00100
      LOOP2      CONTINUE                                                           074  LM00098
 01543 TRA +0 02000 0 01406
      GOHOME     WRTBUF.                                                            075  LM00099
 01544 TSX +0 07400 4 00032
      EGRETS     W'R CLOSEI, CLOSE.($ALL$,-0)                                       076  LM00100
 01545 NZT -0 52000 0 00776    01546 TRA +0 02000 0 01554    01547 CLS +0 50200 0 01060    01550 STO +0 60100 0 02152
 01551 TSX +0 07400 4 00004    01552 TXH +3 00000 0 01102    01553 TXH +3 00000 0 02152
                 RESETF.                                                            077  LM00101
 01554 TSX +0 07400 4 00024
                 CHNCOM.(0)                                                         078  LM00102
 01555 TSX +0 07400 4 00003    01556 TXH +3 00000 0 01060
      FERR       W'R FCODE .E. 3 , T'O OK                                           079  LM00105
 01557 CLA +0 50000 0 01001    01560 SUB +0 40200 0 01063    01561 TNZ -0 10000 0 01563    01562 TRA +0 02000 0 00110
      IOERR      PRNTER.(61K)                                                       080  LM00106
 01563 TSX +0 07400 4 00022    01564 TXH +3 00000 0 01100
                 T'O EGRETS                                                         081  LM00107
 01565 TRA +0 02000 0 00076
      IOERR2     W'R ERCODE .E. 3                                                   082  LM00110
 01566 CLA +0 50000 0 01000    01567 SUB +0 40200 0 01063    01570 TNZ -0 10000 0 01651
      NOPE         PRMESS.(COMBUF(I),B,COMBUF(I+1),$ NOT FOUND,$)                   083  LM00111
 01571 CLA +0 50000 0 01004    01572 ADD +0 40000 0 01061    01573 SUB +0 40200 0 01574    01574 TXH +3 00000 0 00062
 01575 STA +0 62100 0 01605    01576 CLA +0 50000 0 01004    01577 SUB +0 40200 0 01600    01600 TXH +3 00000 0 00062
 01601 STA +0 62100 0 01603    01602 TSX +0 07400 4 00021    01603 TXH +3 00000 0 00000    01604 TXH +3 00000 0 00113
 01605 TXH +3 00000 0 00000    01606 TXH +3 00000 0 01141    01607 TXH +3 00000 0 01122
                   W'R CARRYI .AND. (COMBUF(I+2).E.FENCE.OR.COMBUF(I+3).E.          084  LM00112
                1    FENCE.OR.COMBUF(I+4).E.FENCE.OR.COMBUF(I+5).E.FENCE),D=20      084  LM00113
 01610 CLA +0 50000 0 01004    01611 ADD +0 40000 0 01065    01612 PAX +0 73400 1 00000    01613 CLA +0 50000 1 00062
 01614 SUB +0 40200 0 00036    01615 TZE +0 10000 0 01640    01616 CLA +0 50000 0 01004    01617 ADD +0 40000 0 01064
 01620 PAX +0 73400 1 00000    01621 CLA +0 50000 1 00062    01622 SUB +0 40200 0 00036    01623 TZE +0 10000 0 01640
 01624 CLA +0 50000 0 01004    01625 ADD +0 40000 0 01063    01626 PAX +0 73400 1 00000    01627 CLA +0 50000 1 00062
 01630 SUB +0 40200 0 00036    01631 TZE +0 10000 0 01640    01632 CLA +0 50000 0 01004    01633 ADD +0 40000 0 01062
 01634 PAX +0 73400 1 00000    01635 CLA +0 50000 1 00062    01636 SUB +0 40200 0 00036    01637 TNZ -0 10000 0 01644
 01640 NZT -0 52000 0 00774    01641 TRA +0 02000 0 01644    01642 CLA +0 50000 0 01076    01643 STO +0 60100 0 00777
                   W'R .NOT.SCANI, T'O ASK                                          085  LM00114
 01644 ZET +0 52000 0 01040    01645 TRA +0 02000 0 01647    01646 TRA +0 02000 0 00075
                   T'O LOOP2                                                        086  LM00115
 01647 TRA +0 02000 0 00104
                 O'E                                                                087  LM00116
 01650 TRA +0 02000 0 01654
                   PRNTER.(61K)                                                     088  LM00117
 01651 TSX +0 07400 4 00022    01652 TXH +3 00000 0 01100
                   T'O LOOP2                                                        089  LM00118
 01653 TRA +0 02000 0 00104
                 E'L                                                                090  LM00119
      FTEST      W'R (.NOT.SCANI.AND.ENTRY(6).A.20K.NE.0).OR.                       091  LM00122
                1  (SCANI.AND.(ENTRY(5).RS.28).A.20K.NE.0)                          091  LM00123
 01654 CAL -0 50000 0 01077    01655 STA +0 62100 0 01657    01656 CAL -0 50000 0 00067    01657 LGR -0 76500 0 00000
 01660 ANA -0 32000 0 01074    01661 SLW +0 60200 0 02152    01662 CLA +0 50000 0 02152    01663 SUB +0 40200 0 01060
 01664 TZE +0 10000 0 01667    01665 ZET +0 52000 0 01040    01666 TRA +0 02000 0 01700    01667 CAL -0 50000 0 00066
 01670 ANA -0 32000 0 01074    01671 SLW +0 60200 0 02152    01672 CLA +0 50000 0 02152    01673 SUB +0 40200 0 01060
 01674 TZE +0 10000 0 01677    01675 NZT -0 52000 0 01040    01676 TRA +0 02000 0 01700    01677 TRA +0 02000 0 01730
                     PRMESA.(N1,B,N2,$ IS IN 'PRIVATE' MODE.$)                      092  LM00124
 01700 TSX +0 07400 4 00020    01701 TXH +3 00000 0 00063    01702 TXH +3 00000 0 00113    01703 TXH +3 00000 0 00064
 01704 TXH +3 00000 0 01136    01705 TXH +3 00000 0 01126    01706 TXH +3 00000 0 01103    01707 TXH +3 00000 0 01120
      ASK            PRMESA.($DO YOU STILL WANT REQUEST,$)                          093  LM00125
 01710 TSX +0 07400 4 00020    01711 TXH +3 00000 0 01105    01712 TXH +3 00000 0 01145    01713 TXH +3 00000 0 01146
 01714 TXH +3 00000 0 01125    01715 TXH +3 00000 0 01153
                     W'R LINE.NE.$(FIB)$, RDFLXC.(ANSWER,6)                         094  LM00126
 01716 CLA +0 50000 0 01025    01717 SUB +0 40200 0 01164    01720 TZE +0 10000 0 01724    01721 TSX +0 07400 4 00023
 01722 TXH +3 00000 0 00112    01723 TXH +3 00000 0 01066
                     W'R ANSWER.NE.$YES$, T'O NEXT                                  095  LM00127
 01724 CLA +0 50000 0 00112    01725 SUB +0 40200 0 01161    01726 TZE +0 10000 0 01730    01727 TRA +0 02000 0 00106
                 E'L                                                                096  LM00128
                 W'R FIRST                                                          097  LM00129
 01730 NZT -0 52000 0 01002    01731 TRA +0 02000 0 01751
                   FIRST = 0B                                                       098  LM00130
 01732 CLA +0 50000 0 01060    01733 STO +0 60100 0 01002
                   OPEN.($W$,OUT,RQ)                                                099  LM00131
 01734 TSX +0 07400 4 00017    01735 TXH +3 00000 0 01160    01736 TXH +3 00000 0 01036    01737 TXH +3 00000 0 01037
                   BUFFER.(OUT,RQ,BUFF(431)...432)                                  100  LM00132
 01740 TSX +0 07400 4 00001    01741 TXH +3 00000 0 01036    01742 TXH +3 00000 0 01037    01743 TIX +2 01101 0 00114
                   SETBUF.(LINE(14)...11,GOOD,WRCARD.,PANIC)                        101  LM00133
 01744 TSX +0 07400 4 00027    01745 TIX +2 01072 0 01007    01746 TXH +3 00000 0 01003    01747 TXH +3 00000 0 00034
 01750 TXH +3 00000 0 00111
                 E'L                                                                102  LM00134
                 W'R CARRYI                                                         103  LM00135
 01751 NZT -0 52000 0 00774    01752 TRA +0 02000 0 02075
                   ATTNAM.(ENTRY(3)...2)                                            104  LM00136
 01753 TSX +0 07400 4 00000    01754 TIX +2 01062 0 00071
                   ENTRY(1) = N1                                                    105  LM00137
 01755 CLA +0 50000 0 00063    01756 STO +0 60100 0 00073
                   ENTRY = N2                                                       106  LM00138
 01757 CLA +0 50000 0 00064    01760 STO +0 60100 0 00074
                   T'H LOOP3, FOR J=1,1,J.G.4.OR.COMBUF(I+1+J).E.FENCE              107  LM00139
 01761 CLA +0 50000 0 01061    01762 STO +0 60100 0 01005    01763 TRA +0 02000 0 01767    01764 CLA +0 50000 0 01005
 01765 ADD +0 40000 0 01061    01766 STO +0 60100 0 01005    01767 CLA +0 50000 0 01004    01770 ADD +0 40000 0 01061
 01771 ADD +0 40000 0 01005    01772 PAX +0 73400 1 00000    01773 CLA +0 50000 1 00062    01774 SUB +0 40200 0 00036
 01775 TZE +0 10000 0 02025    01776 CLA +0 50000 0 01005    01777 SUB +0 40200 0 01064    02000 TZE +0 10000 0 02002
 02001 TPL +0 12000 0 02025
                   W'R COMBUF(I+J+1).E.$     *$, T'O LOOP3                          108  LM00140
 02002 CLA +0 50000 0 01004    02003 ADD +0 40000 0 01005    02004 ADD +0 40000 0 01061    02005 PAX +0 73400 1 00000
 02006 CLA +0 50000 1 00062    02007 SUB +0 40200 0 01143    02010 TNZ -0 10000 0 02012    02011 TRA +0 02000 0 00105
                   ENTRY(4-J) = COMBUF(I+1+J)                                       109  LM00141
 02012 CLA +0 50000 0 01004    02013 ADD +0 40000 0 01061    02014 ADD +0 40000 0 01005    02015 STO +0 60100 0 02152
 02016 CLA +0 50000 0 01064    02017 SUB +0 40200 0 01005    02020 PAX +0 73400 1 00000    02021 LXA +0 53400 2 02152
 02022 CLA +0 50000 2 00062    02023 STO +0 60100 1 00074
      LOOP3        CONTINUE                                                         110  LM00142
 02024 TRA +0 02000 0 01764
                   W'R COMBUF(I+J+1) .E. FENCE, D = 20                              111  LM00143
 02025 CLA +0 50000 0 01004    02026 ADD +0 40000 0 01005    02027 ADD +0 40000 0 01061    02030 PAX +0 73400 1 00000
 02031 CLA +0 50000 1 00062    02032 SUB +0 40200 0 00036    02033 TNZ -0 10000 0 02036    02034 CLA +0 50000 0 01076
 02035 STO +0 60100 0 00777
                   MASK3 = NAMASK.(N3)                                              112  LM00144
 02036 TSX +0 07400 4 00016    02037 TXH +3 00000 0 00073    02040 STO +0 60100 0 01031
                   MASK4 = NAMASK.(N4)                                              113  LM00145
 02041 TSX +0 07400 4 00016    02042 TXH +3 00000 0 00074    02043 STO +0 60100 0 01033
                   MASK3P = COM.(MASK3)                                             114  LM00146
 02044 TSX +0 07400 4 00005    02045 TXH +3 00000 0 01031    02046 STO +0 60100 0 01030
                   MASK4P = COM.(MASK4)                                             115  LM00147
 02047 TSX +0 07400 4 00005    02050 TXH +3 00000 0 01033    02051 STO +0 60100 0 01032
                   N3 = (N1.A.MASK3P).V.(N3.A.MASK3)                                116  LM00148
 02052 CAL -0 50000 0 00073    02053 ANA -0 32000 0 01031    02054 SLW +0 60200 0 02152    02055 CAL -0 50000 0 00063
 02056 ANA -0 32000 0 01030    02057 ORA -0 50100 0 02152    02060 SLW +0 60200 0 00073
                   N4 = (N2.A.MASK4P).V.(N4.A.MASK4)                                117  LM00149
 02061 CAL -0 50000 0 00074    02062 ANA -0 32000 0 01033    02063 SLW +0 60200 0 02152    02064 CAL -0 50000 0 00064
 02065 ANA -0 32000 0 01032    02066 ORA -0 50100 0 02152    02067 SLW +0 60200 0 00074
                   FILBUF.(ENTRY(9)...2,ENTRY(3)...4)                               118  LM00150
 02070 TSX +0 07400 4 00011    02071 TIX +2 01062 0 00063    02072 TIX +2 01064 0 00071
                   WRTBUF.                                                          119  LM00151
 02073 TSX +0 07400 4 00032
                 O'E                                                                120  LM00152
 02074 TRA +0 02000 0 02077
                   FILBUF.(ENTRY(9)...2)                                            121  LM00153
 02075 TSX +0 07400 4 00011    02076 TIX +2 01062 0 00063
                 E'L                                                                122  LM00154
      NEXT       W'R SCANI                                                          123  LM00156
 02077 NZT -0 52000 0 01040    02100 TRA +0 02000 0 02106
                   SCAN.(ENTRY(9)...7,LOOP2)                                        124  LM00157
 02101 TSX +0 07400 4 00025    02102 TIX +2 01067 0 00063    02103 TXH +3 00000 0 00104
                   T'O FTEST                                                        125  LM00158
 02104 TRA +0 02000 0 00100
                 O'E                                                                126  LM00159
 02105 TRA +0 02000 0 02107
                   T'O LOOP2                                                        127  LM00160
 02106 TRA +0 02000 0 00104
                 E'L                                                                128  LM00161
      PANIC      PRMESS.($MACHINE OR SYSTEM ERROR. IGNORING$,N1,N2)                 129  LM00163
 02107 TSX +0 07400 4 00021    02110 TXH +3 00000 0 01115    02111 TXH +3 00000 0 01110    02112 TXH +3 00000 0 01163
 02113 TXH +3 00000 0 01106    02114 TXH +3 00000 0 01133    02115 TXH +3 00000 0 01113    02116 TXH +3 00000 0 00063
 02117 TXH +3 00000 0 00064
                 T'O NEXT                                                           130  LM00164
 02120 TRA +0 02000 0 00106
                 INTERNAL FUNCTION                                                  131  LM00166
 02121 TRA +0 02000 0 02150
                 E'O WRCARD.                                                        132  LM00167
 02122 TRA +0 02000 0 02125    00034 TTR +0 02100 0 02123    02123 SXA +0 63400 2 02140    02124 TSX +0 07400 2 02140
                 WRWAIT.(OUT,RQ,0,LINE(15)...14)                                    133  LM00169
 02125 TSX +0 07400 4 00033    02126 TXH +3 00000 0 01036    02127 TXH +3 00000 0 01037    02130 TXH +3 00000 0 01060
 02131 TIX +2 01073 0 01006
                 GOOD = 0B                                                          134  LM00170
 02132 CLA +0 50000 0 01060    02133 STO +0 60100 0 01003
                 CLOSEI = 1B                                                        135  LM00171
 02134 CLA +0 50000 0 01061    02135 STO +0 60100 0 00776
                 F'N                                                                136  LM00172
 02136 TRA +0 02000 0 02144
                 E'N                                                                137  LM00174
 02137 TSX +0 07400 4 00007    02140 TXH +3 00000 0 00000    02141 SXD -0 63400 1 02140    02142 SXA +0 63400 4 02144
 02143 TRA +0 02000 2 00001    02144 AXT +0 77400 4 00000    02145 LXA +0 53400 2 02140    02146 LXD -0 53400 1 02140
 02147 TRA +0 02000 4 00001
                 E'M                                                                138  LM00176
 02150 TSX +0 07400 4 00007
1      CARDRQ   04/16/68  D.A. ANDERSON                                          01/25/69 2137.5 PAGE 1

                       00002         ENTRY   SETBUF        (BUF(M)...M,GOOD,FULL,BAD)
                       00035         ENTRY   FILBUF        LIST   (PZE,PTH,PTW,EFA)
                       00156         ENTRY   WRTBUF


            LINKAGE DIRECTOR
      00000  000000000000
      00001  622563226426

      00002  0634 00 1 00031  SETBUF SXA     IX1,1
      00003 -0500 00 4 00001         CAL     1,4
      00004 -0737 00 1 00000         PDC     ,1
      00005 -0320 00 0 00242         ANA     =O700000000000
      00006 -0340 00 0 00240         LAS     =O200000000000
      00007  0020 00 0 00011         TRA     *+2
      00010  0020 00 0 00033         TRA     PTW
      00011  0756 00 1 00000         PCA     ,1
      00012  0621 00 0 00053  PTWR   STA     OUTX
      00013  0401 00 4 00001         ADM     1,4
      00014  0621 00 0 00216         STA     OUTADR
      00015 -0500 00 4 00002         CAL     2,4
      00016  0621 00 0 00227         STA     GOOD
      00017 -0500 00 4 00003         CAL     3,4
      00020  0621 00 0 00232         STA     WRITE
      00021 -0500 00 4 00004         CAL     4,4
      00022  0621 00 0 00155         STA     BAD
      00023  0600 60 0 00227         STZ*    GOOD
      00024 -0500 00 0 00053         CAL     OUTX
      00025  0767 00 0 00001         ALS     1
      00026  0401 00 0 00053         ADM     OUTX
      00027  0767 00 0 00022         ALS     18
      00030  0622 00 0 00111         STD     BADTST
      00031  0774 00 1 00000  IX1    AXT     **,1
      00032  0020 00 4 00005         TRA     5,4

      00033 -0500 00 1 00000  PTW    CAL     ,1
      00034  0020 00 0 00012         TRA     PTWR
1      CARDRQ   04/16/68  D.A. ANDERSON                                          01/25/69 2137.5 PAGE 2

      00035  0636 00 1 00152  FILBUF SCA     XR1,1
      00036  0636 00 2 00151         SCA     XR2,2
      00037  0636 00 4 00147         SCA     XR4,4
      00040  0760 00 0 00016         EAXM
      00041  0636 00 3 00150         SCA     XR3,3
      00042  0636 00 5 00146         SCA     XR5,5
      00043  0636 00 6 00145         SCA     XR6,6
      00044  0636 00 7 00144         SCA     XR7,7
      00045  0604 00 0 00233         STI     SI
      00046  0600 00 0 00230         STZ     BADFLG

      00047  0535 00 5 00147  AGAIN  LAC     XR4,5
      00050 -0774 00 4 00055         AXC     NXTARG-1,4
      00051  0520 60 0 00227         ZET*    GOOD
      00052  0020 00 0 00132         TRA     RSTREG
      00053  0774 00 1 00000  OUTX   AXT     **,1
      00054 -0774 00 2 00044         AXC     36,2
      00055  0441 00 0 00235         LDI     =0

      00056  1 77777 5 00057  NXTARG TXI     *+1,5,-1
      00057  0500 00 5 00000         CLA     ,5
      00060  0340 00 0 00240         CAS     =O200000000000
      00061  0020 00 0 00102         TRA     2OR3
      00062  0020 00 0 00056         TRA     NXTARG
      00063 -0500 00 5 00000         CAL     ,5
      00064 -0320 00 0 00243         ANA     =O777777000000
      00065  0100 00 0 00070         TZE     *+3
      00066  0322 00 0 00231         ERA     EFA
      00067 -0100 00 0 00136         TNZ     OUT
      00070 -0500 00 5 00000         CAL     ,5
      00071  0771 00 0 00017         ARS     15
      00072 -0320 00 0 00236         ANA     =7
      00073  0100 00 0 00076         TZE     *+3
      00074  0734 00 6 00000         PAX     ,6
      00075 -0500 00 6 00154         CAL     RETURN,6
      00076  0401 00 5 00000         ADM     ,5
      00077  0737 00 6 00000         PAC     ,6
      00100  0774 00 7 00001         AXT     1,7
      00101  0020 00 0 00112         TRA     ADDBL
      00102 -0737 00 7 00000  2OR3   PDC     ,7
      00103  0737 00 6 00000         PAC     ,6
      00104  0340 00 0 00241         CAS     =O300000000000
      00105  0756 00 7 00000         PCA     ,7
      00106  0020 00 0 00110         TRA     *+2
      00107 -0500 00 7 00000         CAL     ,7
      00110  0734 00 7 00000         PAX     ,7
      00111  3 00000 7 00211  BADTST TXH     BADRET,7,**
      00112 -0500 00 0 00237  ADDBL  CAL     =O60
      00113  0074 00 4 00215         TSX     STC,4
      00114  0 00000 0 00176                 TOOBIG
      00115  0560 00 6 00000         LDQ     ,6
      00116  0774 00 3 00006         AXT     6,3

      00117 -0754 00 0 00000  LOOP   ZAC
      00120 -0763 00 0 00006         LGL     6
      00121 -0340 00 0 00237         LAS     =O60
1      CARDRQ   04/16/68  D.A. ANDERSON                                          01/25/69 2137.5 PAGE 3

      00122  0020 00 0 00124         TRA     *+2
      00123  0020 00 0 00126         TRA     NDLOP
      00124  0074 00 4 00215         TSX     STC,4
      00125  0 00000 0 00176                 TOOBIG
      00126  2 00001 3 00117  NDLOP  TIX     LOOP,3,1
      00127  1 77777 6 00130         TXI     *+1,6,-1
      00130  2 00001 7 00112         TIX     ADDBL,7,1
      00131  0020 00 0 00056         TRA     NXTARG

      00132  0441 00 0 00234  RSTREG LDI     SAVSI
      00133  0774 00 1 00000  SAVX1  AXT     **,1
      00134  0774 00 2 00000  SAVX2  AXT     **,2
      00135  0020 00 4 00001         TRA     1,4

      00136  0634 00 1 00133  OUT    SXA     SAVX1,1
      00137  0634 00 2 00134         SXA     SAVX2,2
      00140  0604 00 0 00234         STI     SAVSI
      00141  0636 00 5 00154         SCA     RETURN,5
      00142 -0625 60 0 00227         STL*    GOOD
      00143  0441 00 0 00233  RESTOR LDI     SI
      00144 -0774 00 7 00000  XR7    AXC     **,7
      00145 -0774 00 6 00000  XR6    AXC     **,6
      00146 -0774 00 5 00000  XR5    AXC     **,5
      00147 -0774 00 4 00000  XR4    AXC     **,4
      00150 -0774 00 3 00000  XR3    AXC     **,3
      00151 -0774 00 2 00000  XR2    AXC     **,2
      00152 -0774 00 1 00000  XR1    AXC     **,1
      00153 -0520 00 0 00230         NZT     BADFLG
      00154  0020 00 0 00000  RETURN TRA     **
      00155  0020 00 0 00000  BAD    TRA     **

      00156 -0520 60 0 00227  WRTBUF NZT*    GOOD
      00157  0020 00 4 00001         TRA     1,4
      00160  0634 00 4 00172         SXA     PX4,4
      00161  0634 00 2 00173         SXA     PX2,2
      00162  0634 00 1 00174         SXA     PX1,1
      00163  0634 00 7 00171         SXA     PX7,7
      00164  0604 00 0 00233         STI     SI
      00165  0074 00 7 00204         TSX     PAD,7
      00166  0074 00 4 00232         TSX     WRITE,4
      00167  0600 60 0 00227         STZ*    GOOD
      00170  0441 00 0 00233         LDI     SI
      00171  0774 00 7 00000  PX7    AXT     **,7
      00172  0774 00 4 00000  PX4    AXT     **,4
      00173  0774 00 2 00000  PX2    AXT     **,2
      00174  0774 00 1 00000  PX1    AXT     **,1
      00175  0020 00 4 00001         TRA     1,4

      00176 -0520 60 0 00227  TOOBIG NZT*    GOOD
      00177  0020 00 0 00213         TRA     BADRST
      00200  0074 00 7 00204         TSX     PAD,7
      00201  0074 00 4 00232         TSX     WRITE,4
      00202  0600 60 0 00227         STZ*    GOOD
      00203  0020 00 0 00047         TRA     AGAIN
1      CARDRQ   04/16/68  D.A. ANDERSON                                          01/25/69 2137.5 PAGE 4

      00204  0074 00 4 00132  PAD    TSX     RSTREG,4
      00205 -0500 00 0 00237         CAL     =O60
      00206  0074 00 4 00215         TSX     STC,4
      00207  0 00000 7 00001                 1,7
      00210  0020 00 0 00205         TRA     *-3

      00211  0520 60 0 00227  BADRET ZET*    GOOD
      00212  0074 00 7 00204         TSX     PAD,7
      00213 -0625 00 0 00230  BADRST STL     BADFLG
      00214  0020 00 0 00143         TRA     RESTOR

      00215  3 00000 2 00223  STC    TXH     ENTCHR,2,0
      00216  0604 00 1 00000  OUTADR STI     **,1
      00217  2 00001 1 00221         TIX     *+2,1,1
      00220  0020 60 4 00001         TRA*    1,4
      00221  0441 00 0 00235         LDI     =0
      00222 -0774 00 2 00044         AXC     36,2
      00223  1 00006 2 00224  ENTCHR TXI     *+1,2,6
      00224  0767 00 2 00000         ALS     ,2
      00225  0043 00 0 00000         OAI
      00226  0020 00 4 00002         TRA     2,4
1      CARDRQ   04/16/68  D.A. ANDERSON                                          01/25/69 2137.5 PAGE 5

      00227  0 00000 0 00000  GOOD   PZE     **
      00230  0 00000 0 00000  BADFLG
      00231  0761 00 0 00000  EFA    NOP
      00232  0021 00 0 00000  WRITE  TTR     **
      00233  0 00000 0 00000  SI
      00234  0 00000 0 00000  SAVSI

                                     END

        LITERALS
      00235  000000000000
      00236  000000000007
      00237  000000000060
      00240  200000000000
      00241  300000000000
      00242  700000000000
      00243  777777000000
1      CARDRQ   04/16/68  D.A. ANDERSON                                          01/25/69 2137.5 PAGE 1
                        POST PROCESSOR ASSEMBLY DATA

        244 IS THE FIRST LOCATION NOT USED BY THIS PROGRAM

0REFERENCES TO DEFINED SYMBOLS
        233     SI    45,  143,  164,  170
        155    BAD    22
        231    EFA    66
         31    IX1     2
        136    OUT    67
        204    PAD   165,  200,  212
         33    PTW    10
        174    PX1   162
        173    PX2   161
        172    PX4   160
        171    PX7   163
        215    STC   113,  124,  206
        152    XR1    35
        151    XR2    36
        150    XR3    41
        147    XR4    37,   47
        146    XR5    42
        145    XR6    43
        144    XR7    44
        102   2OR3    61
        227   GOOD    16,   23,   51,  142,  156,  167,  176,  202,  211
        117   LOOP   126
         53   OUTX    12,   24,   26
         12   PTWR    34
        112  ADDBL   101,  130
         47  AGAIN   203
        126  NDLOP   123
        234  SAVSI   132,  140
        133  SAVX1   136
        134  SAVX2   137
        232  WRITE    20,  166,  201
        230 BADFLG    46,  153,  213
        211 BADRET   111
        213 BADRST   177
        111 BADTST    30
        223 ENTCHR   215
         35 FILBUF     0
         56 NXTARG    50,   62,  131
        216 OUTADR    14
        143 RESTOR   214
        154 RETURN    75,  141
        132 RSTREG    52,  204
          2 SETBUF     0
        176 TOOBIG   114,  125
        156 WRTBUF     0

0 NO ERROR IN ABOVE ASSEMBLY.


RUNCOM   BCD 05/12/69 2020.2   13312         00000
1       M1416-3845  PETER R. BOS -- RUNCOM COMMAND REGENERATED 2/13/68           04/23/69 2323.3 PAGE 1

                                     PCC     ON
                                     LBL     RUNCOM
                                     PCC     OFF

                                     EXTERN  GETCLS,CHNCOM,NEXCOM,FSTATE,WRFLX,SCHAIN,BRAKE
                                     EXTERN  .SETUP
                                     UNLIST
 M                            CALL   MACRO   SUBR,ARGS,CRS


                              *
                              *  USAGE IS ...   RUNCOM NAME1 -ARGS-
                              *  WHERE THE NAME OF THE MACRO-COMMAND FILE IS EITHER
                              *  NAME1 RUNCOM OR NAME1 BCD, AND ARGS ARE ARGUMENTS TO
                              *  BE SUBSTITUTED.
                              *


        TRANSFER VECTOR
      00000  272563234362     GETCLS
      00001  233045234644     CHNCOM
      00002  452567234644     NEXCOM
      00003  266263216325     FSTATE
      00004  665126436760     WRFLX
      00005  622330213145     SCHAIN
      00006  225121422560     BRAKE
      00007  336225636447     .SETUP

      00010  0074 00 4 00007         TSX     .SETUP,4      LOAD DUMMY FROM XLIBE
      00011                          CALL    GETCLS((CBUFF,0,0)) GET COMMAND BUFFER
      00011  0074 00 4 00000         TSX     GETCLS,4                                                         .003
      00012  0 00000 0 00121         PZE     CBUFF,0,0                                                        .003
      00013 -0500 00 0 00122         CAL     CBUFF+1       FILE NAME1
      00014  0602 00 0 00147         SLW     FILNAM        ..
      00015  0322 00 0 00216         ERA     =O777777777777 IF NO ARGUMENTS TO COMMAND,
      00016 -0100 00 0 00027         TNZ     START         ..
      00017                          TYPE    6(USAGE IS...  RUNCOM NAME1 -ARGS-)
      00017  0074 00 4 00004         TSX     WRFLX,4                                                          .004
      00020  3 00006 0 00152         PAR     ..002,,6                                                         .004
      00021                          TYPE    6(MACRO FILE NAME2 IS RUNCOM OR BCD)
      00021  0074 00 4 00004         TSX     WRFLX,4                                                          .004
      00022  3 00006 0 00160         PAR     ..005,,6                                                         .004
      00023                          TYPE    6(ARGS ARE ARGUMENTS TO BE SUBSTITUTED)
      00023  0074 00 4 00004         TSX     WRFLX,4                                                          .004
      00024  3 00006 0 00166         PAR     ..008,,6                                                         .004
      00025                          CALL    CHNCOM(0)     EXIT
      00025  0074 00 4 00001         TSX     CHNCOM,4                                                         .003
      00026  0 00000 0 00000         PZE     0                                                                .003

      00027                   START  CALL    FSTATE(FILNAM,RUNCOM,=-0,NFL1)
      00027  0074 00 4 00003         TSX     FSTATE,4                                                         .003
      00030  3 00000 0 00147         PAR     FILNAM                                                           .003
      00031  3 00000 0 00150         PAR     RUNCOM                                                           .003
      00032  3 00000 0 00214         PAR     =-0                                                              .003
      00033  3 00000 0 00035         PAR     NFL1                                                             .003
      00034  0020 00 0 00054         TRA     OKFIL         FILE FOUND, SKIP
1       M1416-3845  PETER R. BOS -- RUNCOM COMMAND REGENERATED 2/13/68           04/23/69 2323.3 PAGE 2

      00035                   NFL1   CALL    FSTATE(FILNAM,BCD,=-0,NFL2)
      00035  0074 00 4 00003         TSX     FSTATE,4                                                         .003
      00036  3 00000 0 00147         PAR     FILNAM                                                           .003
      00037  3 00000 0 00151         PAR     BCD                                                              .003
      00040  3 00000 0 00214         PAR     =-0                                                              .003
      00041  3 00000 0 00045         PAR     NFL2                                                             .003
      00042 -0500 00 0 00151         CAL     BCD           FILE NAME2 IS BCD, SET UP FOR SCHAIN
      00043  0602 00 0 00146         SLW     FILNAM-1      ..
      00044  0020 00 0 00054         TRA     OKFIL         SKIP
      00045 -0500 00 0 00147  NFL2   CAL     FILNAM        FILE NOT FOUND, COMPLAIN
      00046  0602 00 0 00175         SLW     YULOSE+1      ..
      00047                          TYPE    8( FILE ****** RUNCOM NOT FOUND, NO EXECUTION),YULOSE
      00047  0074 00 4 00004         TSX     WRFLX,4                                                          .004
      00050  3 00010 0 00174         PAR     YULOSE,,8                                                        .004
      00051  0074 00 4 00006         TSX     BRAKE,4       WHOA...
      00052                          CALL    CHNCOM((0,0,0)) EXIT
      00052  0074 00 4 00001         TSX     CHNCOM,4                                                         .003
      00053  0 00000 0 00000         PZE     0,0,0                                                            .003

      00054 -0774 00 4 00002  OKFIL  AXC     2,4           GO LOOK FOR FENCE.
      00055 -0500 00 4 00121         CAL     CBUFF,4       ..
      00056  0322 00 0 00216         ERA     =O777777777777 ..
      00057  0100 00 0 00062         TZE     *+3           ..
      00060  1 77777 4 00061         TXI     *+1,4,-1      ..
      00061  3 77755 4 00055         TXH     *-4,4,-19     LOOP TILL 20 WORDS CHECKED
      00062  0756 00 4 00000         PCA     0,4           NUMBER OF ARGS TO AC
      00063  0734 00 4 00000         PAX     0,4           BACK TO X4
      00064 -3 00002 4 00070         TXL     NOARG,4,2     IF NO SUBS. ARGS, SKIP
      00065  1 00120 4 00066         TXI     *+1,4,CBUFF-1 GET ADDRESS OF LAST ARG
      00066 -0634 00 4 00100         SXD     CHAIN+2,4     INSERT IN CALL
      00067  0020 00 0 00072         TRA     RUN            AND SKIP
      00070 -0500 00 0 00101  NOARG  CAL     SKP           SET UP DUMMY INSTRUCTION
      00071  0602 00 0 00100         SLW     CHAIN+2       ..

      00072 -0500 00 0 00147  RUN    CAL     FILNAM        TYPE COMMENT..
      00073  0602 00 0 00204         SLW     XXSTRT        ..
      00074                          TYPE    3(****** STARTED),XXSTRT
      00074  0074 00 4 00004         TSX     WRFLX,4                                                          .004
      00075  3 00003 0 00204         PAR     XXSTRT,,3                                                        .004

      00076                   CHAIN  CALL    SCHAIN(FILNAM,(CBUFF+2,...,-))
      00076  0074 00 4 00005         TSX     SCHAIN,4                                                         .003
      00077  3 00000 0 00147         PAR     FILNAM                                                           .003
      00100  2 00000 0 00123         BLK     CBUFF+2,...,-                                                    .003
      00101  0020 00 0 00102  SKP    TRA     *+1           DUMMY INS.

      00102  0602 00 0 00145         SLW     ...FIL        SAVE POSSIBLE SAVED FILE NAME
      00103 -0500 00 0 00147         CAL     FILNAM        SET UP OTHER COMMENT
      00104  0602 00 0 00207         SLW     XXFINI
      00105                          TYPE    4(****** HAS BEEN RUN),XXFINI
      00105  0074 00 4 00004         TSX     WRFLX,4                                                          .004
      00106  3 00004 0 00207         PAR     XXFINI,,4                                                        .004
      00107 -0500 00 0 00145         CAL     ...FIL        CHECK FOR SAVED FILE
      00110  0100 00 0 00117         TZE     XIT           NO, GO TO CHNCOM
      00111  0771 00 0 00022         ARS     18            MIGHT BE, CHECK FOR '...XXX'
      00112  0322 00 0 00213         ERA     =O333333      ..
1       M1416-3845  PETER R. BOS -- RUNCOM COMMAND REGENERATED 2/13/68           04/23/69 2323.3 PAGE 3

      00113 -0100 00 0 00117         TNZ     XIT           NO, EXIT
      00114 -0500 00 0 00215         CAL     =HRESTOR      YES, RESTORE CORE IMAGE
      00115  0560 00 0 00145         LDQ     ...FIL        ..
      00116  0074 00 4 00002         TSX     NEXCOM,4      VIA NEXCOM

      00117                   XIT    CALL    CHNCOM(0)     EXIT VIA CHNCOM
      00117  0074 00 4 00001         TSX     CHNCOM,4                                                         .003
      00120  0 00000 0 00000         PZE     0                                                                .003


      00121                   CBUFF  BSS     20            COMMAND BUFFER
      00145  0 00000 0 00000  ...FIL PZE
      00146  516445234644            BCI     1,RUNCOM
      00147  0 00000 0 00000  FILNAM PZE

      00150  516445234644     RUNCOM BCI     1,RUNCOM
      00151  606060222324     BCD    BCI     1,   BCD

                                     END
                                              REMOTE SEQUENCES
      00152  646221272560     ..002  BCI     6,USAGE IS...  RUNCOM NAME1 -ARGS-                               .002
      00153  316233333360
      00154  605164452346
      00155  446045214425
      00156  016040215127
      00157  624060606060
      00160  442123514660     ..005  BCI     6,MACRO FILE NAME2 IS RUNCOM OR BCD                              .002
      00161  263143256045
      00162  214425026031
      00163  626051644523
      00164  464460465160
      00165  222324606060
      00166  215127626021     ..008  BCI     6,ARGS ARE ARGUMENTS TO BE SUBSTITUTED                           .002
      00167  512560215127
      00170  644425456362
      00171  606346602225
      00172  606264226263
      00173  316364632524
      00174  602631432560     YULOSE BCI     8, FILE ****** RUNCOM NOT FOUND, NO EXECUTION                    .002
      00175  545454545454
      00176  605164452346
      00177  446045466360
      00200  264664452473
      00201  604546602567
      00202  252364633146
      00203  456060606060
      00204  545454545454     XXSTRT BCI     3,****** STARTED                                                 .002
      00205  606263215163
      00206  252460606060
      00207  545454545454     XXFINI BCI     4,****** HAS BEEN RUN                                            .002
      00210  603021626022
      00211  252545605164
      00212  456060606060
1       M1416-3845  PETER R. BOS -- RUNCOM COMMAND REGENERATED 2/13/68           04/23/69 2323.3 PAGE 1
                        POST PROCESSOR ASSEMBLY DATA

        217 IS THE FIRST LOCATION NOT USED BY THIS PROGRAM

0REFERENCES TO DEFINED SYMBOLS
        151    BCD    37,   42
          1    ..A    12,   20,   22,   24,   26,   30,   31,   32,   33,   36,   37,   40,   41,   50,   53,   75,   77
                     100,  106,  120
          0    ..D    12,   20,   22,   24,   26,   30,   31,   32,   33,   36,   37,   40,   41,   50,   53,   75,   77
                     100,  106,  120
          0    ...   100
          0    ..T    12,   20,   22,   24,   26,   30,   31,   32,   33,   36,   37,   40,   41,   50,   53,   75,   77
                     100,  106,  120
         72    RUN    67
        101    SKP    70
        117    XIT   110,  113
          0   ..OP    12,   20,   22,   24,   26,   30,   31,   32,   33,   36,   37,   40,   41,   50,   53,   75,   77
                     100,  106,  120
         35   NFL1    33
         45   NFL2    41
          6  BRAKE    51
        121  CBUFF    12,   13,   55,   65,  100
         76  CHAIN    66,   71
        152  ..002    20
        160  ..005    22
        166  ..008    24
          1  ..PZE    12,   20,   22,   24,   26,   30,   36,   50,   53,   75,   77,  106,  120
         70  NOARG    64
         54  OKFIL    34,   44
         27  START    16
          4  WRFLX    17,   21,   23,   47,   74,  105
          1 CHNCOM    25,   52,  117
        147 FILNAM    14,   30,   36,   43,   45,   72,   77,  103
          3 FSTATE    27,   35
          0 GETCLS    11
        145 ...FIL   102,  107,  115
          7 .SETUP    10
          2 NEXCOM   116
        150 RUNCOM    31
          5 SCHAIN    76
        207 XXFINI   104,  106
        204 XXSTRT    73,   75
        174 YULOSE    46,   50

0 NO ERROR IN ABOVE ASSEMBLY.
1            SCHAIN  SETS AND EXECUTES A CHAIN OF COMMANDS.                      04/23/69 2323.0 PAGE 1

                              *      SAVES COMMAND LISTS AND COUNTERS.
                              *      READS A BCD FILE, JUSTIFIES THE ARGUMENTS, SUBSTITUTES DUMMIES
                              *      WITH ACTUAL VALUES.
                              *      LOADS 3 COMMANDS, BRACKETTED BY 'SAVE' AND 'RESUME'.
                              *      STARTS EXECUTION OF THE CHAIN.
                              *      ON RETURN LOADS 3 MORE COMMANDS, AND SO FORTH, UNTIL THE FILE OF
                              *      COMMANDS IS EXHAUSTED.
                              *      RESTORE PREVIOUS COMMAND BUFFERS AND COUNTERS, RETURN TO CALLER.
                              * CALLING SEQUENCE
                              * MAD  A = SCHAIN.(FIL, ANY MAD LIST OR NOTHING)
                              *      WHERE FIL IS A 2 WORDS VECT.VAL. GIVING THE NAMES OF THE FILE OF
                              *      COMMANDS
                              *      RETURNS A=0 IF EXECUTION WITHOUT ERROR (AS FAR AS SCHAIN CAN KNOW
                              *      OR A=ERROR CODE
                              *      OR A=...XXX  WHICH IS THE NAME OF A FILE ...XXX SAVED REPRESENTIN
                              *      THE LAST CORE IMAGE LEFT BY THE LAST COMMAND IN THE CHAIN.
                              *      A MAD LIST IS E.G. B, C(3), D(I)...D(J), W(-7), ETC...
                              *      WITH THE EXCEPTION OF FILE NAMES, NO ARGUMENT NEED BE RIGHT JUSTI
                              * COMPUTATION CENTER            LOUIS POUZIN
                              *      MAY 64
                              *
                                             MODIFIED FOR NEW FILE SYSTEM  JUNE 65  EMK

                              *      SWITCHES TO COMMON FILE A
                              SWUS   MACRO   A
                                     CAL     A
                                     TSX     SWCF,3
                              SWUS   END


                              *      SAVES MACHINE REGISTERS
                              SAV    MACRO
                                     STI     IND
                                     SXA     X1,1
                                     SXA     X2,2
                                     SXA     X3,3
                                     SXD     X4,4
                                     AXT     -1,2
                                     AXT     ,3
                                     SXA     XMOD,2
                                     LMTM
                                     NZT     XMOD
                                     SXA     X3,3
                                     SXA     X5,5
                                     SXA     X6,6
                                     SXA     X7,7
                              SAV    END


                              *      RESTORES MACHINE REGISTERS
                              RSTOR  MACRO
                                     LDI     IND
                              X3     AXT     **,3
                              X5     AXT     **,5
                              X6     AXT     **,6
                              X7     AXT     **,7
1            SCHAIN  SETS AND EXECUTES A CHAIN OF COMMANDS.                      04/23/69 2323.0 PAGE 2

                                     NZT     XMOD
                                     EMTM
                              X1     AXT     **,1
                              X2     AXT     **,2
                                     LXD     X4,4
                              RSTOR  END
                              TEMP1  MACRO   A,B           UNTIL T MODE FILES ARE KEPT IN COMMON FILES
                                     ZET     FAIL
                                     NZT     LCF
                                     TRA     B
                                     TSX     $CHFILE,4
                                     PTH     RESTOR+1
                                     PTH     RESTOR+2
                                     PTH     =1
                                     PTH     =-0           DO NOT ALTER
                                     PTH     =-0           ..
                                     PTH     *+1           ERROR RETURN
                              B      SYN     *
                              TEMP1  END


  BINARY CARD NO. SCHAIN00
                       00035         ENTRY   SCHAIN

        TRANSFER VECTOR

  BINARY CARD NO. SCHAIN01
      00000  274521446060     GNAM
      00001  272563232645     GETCFN
      00002  234643636060     COLT
      00003  266263216325     FSTATE
      00004  622525426060     SEEK
      00005  444665250160     MOVE1
      00006  444665250260     MOVE2
      00007  514164626360     RJUST
      00010  444665250360     MOVE3
      00011  272563234362     GETCLS
      00012  272563234323     GETCLC
      00013  242543256325     DELETE
      00014  665126436760     WRFLX
      00015  622563254626     SETEOF
      00016  655125212460     VREAD
      00017  644547214243     UNPAKL
      00020  712543606060     ZEL
      00021  622563234362     SETCLS
      00022  276345214460     GTNAM
      00023  464725456060     OPEN

  BINARY CARD NO. SCHAIN02
      00024  665126314325     WRFILE
      00025  234346622560     CLOSE
      00026  622563234323     SETCLC
1            SCHAIN  SETS AND EXECUTES A CHAIN OF COMMANDS.                      04/23/69 2323.0 PAGE 3

      00027  233026314325     CHFILE
      00030  233045234644     CHNCOM
      00031  234644263143     COMFIL
      00032  244651444563     DORMNT

            LINKAGE DIRECTOR
      00033  000000000000
      00034  622330213145

                       00660  DBUF   EQU     432


                       00033  X4     SYN     *-2

                       00035  SCHAIN SYN     *
      00035                          SAV
      00035  0604 00 0 01120         STI     IND                                                              .001
      00036  0634 00 1 00677         SXA     X1,1                                                             .001
      00037  0634 00 2 00700         SXA     X2,2                                                             .001
      00040  0634 00 3 00671         SXA     X3,3                                                             .001
      00041 -0634 00 4 00033         SXD     X4,4                                                             .001
      00042  0774 00 2 77777         AXT     -1,2                                                             .001
      00043  0774 00 3 00000         AXT     ,3                                                               .001
      00044  0634 00 2 01121         SXA     XMOD,2                                                           .001
      00045  0760 00 0 00016         LMTM                                                                     .001
      00046 -0520 00 0 01121         NZT     XMOD                                                             .001
      00047  0634 00 3 00671         SXA     X3,3                                                             .001

  BINARY CARD NO. SCHAIN03
      00050  0634 00 5 00672         SXA     X5,5                                                             .001
      00051  0634 00 6 00673         SXA     X6,6                                                             .001
      00052  0634 00 7 00674         SXA     X7,7                                                             .001
      00053  0057 00  777777         RIR     /
      00054  0600 00 0 01123         STZ     FAIL
      00055  0634 00 0 00165         ZSA     BL            CLEAR READING COUNTER
      00056  0055 00  000200         SIR     COMSW         IN CASE 1ST COMMAND SWITCHES U.F.D.
      00057  0774 00 4 00024         AXT     CL,4
      00060 -0500 00 0 01663         CAL     =H
      00061  0602 00 4 01203         SLW     ARG1+CL,4
      00062  2 00001 4 00061         TIX     *-1,4,1
      00063  0074 00 4 00000         TSX     $GNAM,4       GET FILE NAMES
      00064  0 00000 0 00033         PZE     X4
      00065  0 00000 0 01131         PZE     FIL
      00066  0074 00 4 00001         TSX     $GETCFN,4
      00067  0602 00 0 01125         SLW     HCF           HOME COMMON FILE
      00070  0602 00 0 01124         SLW     CCF           CURRENT COMMON FILE SWITCHED
      00071  0602 00 0 01127         SLW     PCF           PREVIOUS LOCAL COMMON FILE
      00072  0602 00 0 01126         SLW     LCF
      00073  0074 00 4 00002         TSX     $COLT,4

  BINARY CARD NO. SCHAIN04
      00074  0 00000 0 00033         PZE     X4
      00075 -0734 00 1 00000         PDX     ,1            LENGTH OF CALLING SEQUENCE
      00076  0636 00 4 00703         SCA     AH,4          SAVE RETURN
      00077  0636 00 4 00115         SCA     AB,4          LST ADDRESS AFTER CALLING SEQUENCE
      00100  0074 00 4 00003         TSX     $FSTATE,4
1            SCHAIN  SETS AND EXECUTES A CHAIN OF COMMANDS.                      04/23/69 2323.0 PAGE 4

      00101  3 00000 0 01131         PTH     FIL
      00102  3 00000 0 01132         PTH     FIL+1
      00103  3 00010 0 01110         PTH     ARRAY,,8
      00104  3 00000 0 00705         PTH     ZZ+1          ERROR RETURN
      00105 -0500 00 0 01132         CAL     FIL+1         SET NAMES BACKWARD
      00106  0602 00 0 01130         SLW     FIL-1         FOR MAD CALL TO VREAD
      00107  0074 00 4 00004         TSX     $SEEK,4
      00110  0 00000 0 01131         PZE     FIL
      00111  0074 00 4 00005         TSX     $MOVE1,4
      00112  2 01250 0 01226         TIX     ACTARG,,ACTARG+CL-2
      00113  0774 00 2 00000         AXT     ,2            INIT ARGUMENTS WORD COUNT
      00114  0020 00 0 00131         TRA     AE            CHECK IF ANY ARGUMENT
      00115 -0500 00 1 00000  AB     CAL     **,1          FROM 2ND TO LAST ARGUMENT
      00116  0602 00 0 00120         SLW     AC
      00117  0074 00 4 00006         TSX     $MOVE2,4

  BINARY CARD NO. SCHAIN05
      00120  0 00000 0 00000  AC     ***     **,,**        SUCCESSIVE ARGUMENTS FROM CALL TO SCHAIN
      00121  0601 00 0 01277  AK     STO     K
      00122  1 77777 2 00123         TXI     *+1,2,-1      WORD COUNTER
      00123  0402 00 0 01663         SUB     =H
      00124  0100 00 0 00127         TZE     BT            SKIP IF ALL BLANK
      00125  0074 00 4 00007         TSX     $RJUST,4
      00126  0 00000 0 01277         PZE     K
      00127 -1 00131 0 00132  BT     STR     AD,,AE
      00130  0020 00 0 00121         TRA     AK
      00131  2 00001 1 00115  AE     TIX     AB,1,1
      00132 -0634 00 2 00343  AD     SXD     SS,2          ARGUMENT LIST EXHAUSTED
      00133  0074 00 4 00010         TSX     $MOVE3,4


                              *      SAVE COMMAND LISTS BUFFERS AND COUNTERS.

      00134  0774 00 1 00001         AXT     1,1
      00135  0774 00 2 01504         AXT     CBUF,2
      00136  0634 00 2 00141  U      SXA     *+3,2
      00137 -0634 00 1 00141         SXD     *+2,1
      00140  0074 00 4 00011         TSX     $GETCLS,4
      00141  0 00000 0 00000         PZE     **,,**
      00142  1 00024 2 00143         TXI     *+1,2,CL
      00143  1 00001 1 00144         TXI     *+1,1,1

  BINARY CARD NO. SCHAIN06
      00144 -3 00005 1 00136         TXL     U,1,CN
      00145  0074 00 4 00012         TSX     $GETCLC,4
      00146  0602 00 0 01122         SLW     CLC
      00147 -0100 00 0 00157         TNZ     A
      00150  0074 00 4 00013         TSX     $DELETE,4
      00151  0 00000 0 01036         PZE     FIL1
      00152  0100 00 0 00157         TZE     A
      00153  0601 00 0 01123         STO     FAIL
      00154  0074 00 4 00014         TSX     $WRFLX,4
      00155  0 00003 0 01045         PZE     MES1,,3
      00156  0020 00 0 00670         TRA     OUT
                       00157  A      SYN     *
      00157  0074 00 4 00015         TSX     $SETEOF,4
1            SCHAIN  SETS AND EXECUTES A CHAIN OF COMMANDS.                      04/23/69 2323.0 PAGE 5

      00160  0 00000 0 00630         PZE     EOF           RETURN WHEN FILE ENDS
      00161  0774 00 2 00002         AXT     FC,2          BEGIN WITH COMMAND NO. 2  (USUALLY)
                       00162  B      SYN     *
                       00162  BE     SYN     *
      00162  0074 00 4 00016         TSX     $VREAD,4
      00163  3 00000 0 01131         PAR     FIL
      00164  2 01276 0 01251         TIX     AG,,AG+RL-1
      00165  0774 00 4 00000  BL     AXT     **,4          READING COUNTER
      00166  1 00001 4 00167         TXI     *+1,4,1
      00167  0634 00 4 00165         SXA     *-2,4

  BINARY CARD NO. SCHAIN07
      00170  0120 00 0 00174         TPL     BS            SKIP IF VARIABLE LENGTH RECORD
      00171 -0340 00 0 01654         LAS     =12           CARD IMAGE NOT LONGER THAN 12 WORDS
      00172 -0500 00 0 01654         CAL     =12
      00173  0761 00 0 00000         NOP
      00174 -0340 00 0 01655  BS     LAS     =22           BCD RECORD NOT LONGER THAN 22 WORDS
      00175 -0500 00 0 01655         CAL     =22
      00176  0761 00 0 00000         NOP
      00177 -0130 00 0 00000         XCL                   IGNORE SIGN
      00200  0200 00 0 01653         MPY     =6             CHARACTER COUNT
      00201 -0763 00 0 00066         LGL     36+18
      00202  0760 00 0 00006         COM                   -COUNT-1
      00203  0622 00 0 00272         STD     AA
      00204  0622 00 0 00245         STD     GG


                              *      TEST FOR 1ST CHARACTER IN THE LINE

      00205  0074 00 4 00017         TSX     $UNPAKL,4     UNPACKS LINE
      00206  2 01276 0 01251         TIX     AG,,AG+RL-1
      00207  2 01503 0 01300         TIX     K+1,,K+6*RL
      00210  0500 00 0 01300         CLA     K+1
      00211  0402 00 0 01660         SUB     =H*00000
      00212  0100 00 0 00162         TZE     B
      00213  0500 00 0 01300         CLA     K+1

  BINARY CARD NO. SCHAIN08
      00214  0402 00 0 01657         SUB     =H$00000
      00215 -0100 00 0 00236         TNZ     F
      00216  0056 00  000100         RNT     COMSET
      00217  0020 00 0 00232         TRA     BB
      00220  0056 00  000040         RNT     LKHED
      00221 -3 00002 2 00232         TXL     BB,2,FC
      00222  0054 00  000020         RFT     PRINT
      00223  0020 00 0 00232         TRA     BB            KEEP PRINTING
      00224  0055 00  000021         SIR     NDLOT+PRINT
      00225  0057 00  000040         RIR     LKHED
      00226 -0500 00 0 01157  BQ     CAL     ARG1          CHECKS CURRENT COMMAND
      00227  0020 00 0 00443         TRA     J-1           GO CHECK CN-1 TH.
                       00230  BA     SYN     *
      00230  0056 00  000020         RNT     PRINT
      00231  0020 00 0 00367         TRA     BC            GO ON WITH NEXT COMMAND
      00232  0055 00  000020  BB     SIR     PRINT
      00233  0074 00 4 00014         TSX     $WRFLX,4
      00234  0 00014 0 01251         PZE     AG,,12
1            SCHAIN  SETS AND EXECUTES A CHAIN OF COMMANDS.                      04/23/69 2323.0 PAGE 6

      00235  0020 00 0 00162         TRA     B             NEXT LINE FROM FILE


                              *      TEST OF 1ST WORD

                       00236  F      SYN     *
      00236  0774 00 6 00024         AXT     CL,6
      00237 -0500 00 0 01663         CAL     =H

  BINARY CARD NO. SCHAIN09
      00240  0602 00 6 01157         SLW     ARG+CL,6      BLANK OUT ARGUMENT LIST
      00241  2 00001 6 00240         TIX     *-1,6,1
      00242  0774 00 6 00000         AXT     0,6           WORD INDEX
      00243  0774 00 7 77777         AXT     -1,7          CHARACTER INDEX
      00244  0020 00 0 00246         TRA     *+2
      00245 -3 00000 7 00311  GG     TXL     L,7,**        -CHAR COUNT - 1
      00246 -0500 00 7 01277         CAL     K,7
      00247 -0340 00 0 01661         LAS     =O570000000000
      00250  0020 00 0 00252         TRA     G-4
      00251 -0500 00 0 01662         CAL     =H 00000
      00252 -0340 00 0 01662         LAS     =H 00000
      00253  0020 00 0 00265         TRA     C
      00254  1 77777 7 00245         TXI     GG,7,-1
      00255  0020 00 0 00265         TRA     C
      00256 -0500 00 7 01277  G      CAL     K,7
      00257 -0340 00 0 01661         LAS     =O570000000000
      00260  0020 00 0 00262         TRA     C-3
      00261 -0500 00 0 01662         CAL     =H 00000
      00262 -0340 00 0 01662         LAS     =H 00000      ANY BLANK FIELD IS A DELIMITER
      00263  0020 00 0 00265         TRA     *+2           BETWEEN ARGUMENTS

  BINARY CARD NO. SCHAIN10
      00264  1 77777 6 00274         TXI     D,6,-1
      00265 -0130 00 0 00000  C      XCL
      00266 -0500 00 6 01133         CAL     ARG,6
      00267 -0763 00 0 00006         LGL     6             AT MOST 6 RIGHTMOST CHARACTERS ARE KEPT
      00270  0602 00 6 01133         SLW     ARG,6
      00271  1 77777 7 00272         TXI     *+1,7,-1
      00272  3 00000 7 00256  AA     TXH     G,7,**        LOOP IF MORE CHARACTERS
      00273  1 77777 6 00274         TXI     *+1,6,-1
      00274 -3 77776 6 00307  D      TXL     H,6,-2        SKIP UNLESS 1ST WORD
                              *      INSERT HERE CHECK OF ALWAYS PERMITTED KEYWORDS
      00275  0057 00  000020         RIR     PRINT
      00276 -0500 00 0 01133         CAL     ARG
      00277  0056 00  000002         RNT     TCHAIN        SKIP WHEN 'CHAIN' ALREADY OCCURRED
      00300 -0340 00 0 01035         LAS     CHAIN
      00301  0020 00 0 00303         TRA     *+2
      00302  0020 00 0 00304         TRA     AJ
      00303  0020 00 0 00307         TRA     H
      00304  0054 00  000100  AJ     RFT     COMSET        SKIP IF NO EXECUTABLE COMMAND YET
      00305  0020 00 0 00727         TRA     ERROR
      00306  0055 00  000006         SIR     TCHAIN+ARGLIS
                              *      INSERT HERE CHECK OF KEYWORDS ALLOWED AFTER 'CHAIN' ONLY
      00307 -3 77755 6 00311  H      TXL     L,6,-CL+1     SKIP WHEN ONLY FENCE LEFT
1            SCHAIN  SETS AND EXECUTES A CHAIN OF COMMANDS.                      04/23/69 2323.0 PAGE 7

  BINARY CARD NO. SCHAIN11
      00310  1 77777 7 00245         TXI     GG,7,-1       NEXT WORD

      00311 -3 00000 6 00162  L      TXL     B,6,0         NEXT LINE IF ALL BLANK
      00312 -0500 00 0 01072         CAL     FENCE
      00313  0602 00 6 01133         SLW     ARG,6         SET FENCE
      00314  0056 00  000004         RNT     ARGLIS
      00315  0020 00 0 00327         TRA     P             NOT A 'CHAIN' KEYWORD


                              *      SETS DUMMY ARGUMENTS LIST

      00316 -0634 00 6 00324         SXD     N,6
      00317 -0634 00 6 00344         SXD     S,6
      00320  0774 00 1 00000         AXT     0,1
      00321 -0500 00 1 01133  M      CAL     ARG,1         FENCE IS NOT TRANSMITTED
      00322  0602 00 1 01203         SLW     ARLIS,1
      00323  1 77777 1 00324         TXI     *+1,1,-1
      00324  3 00000 1 00321  N      TXH     M,1,**        ** = -NR. OF DUMMIES
      00325  0057 00  000004         RIR     ARGLIS
      00326  0020 00 0 00162         TRA     B             NEXT COMMAND


                              *      SUBSTITUTES DUMMY ARGUMENTS

                       00327  P      SYN     *
      00327 -0634 00 6 00350         SXD     S1,6
      00330  0056 00  000002         RNT     TCHAIN
      00331  0020 00 0 00351         TRA     W1            NO DUMMY ARGUMENTS
      00332 -0534 00 4 00343         LXD     SS,4
      00333 -3 00000 4 00351         TXL     W1,4,0        SKIP WHEN NO ACTUAL ARGUMENTS

  BINARY CARD NO. SCHAIN12
      00334  0774 00 1 00000         AXT     0,1           IX1 = ARGUMENT IN COMMAND
      00335 -0500 00 1 01133  R      CAL     ARG,1
      00336  0774 00 4 00000         AXT     0,4           IX4 = DUMMY IN CHAIN PSEUDO
      00337 -0340 00 4 01204  Q      LAS     ARLIS+1,4
      00340  1 77777 4 00343         TXI     SS,4,-1       NEXT DUMMY ARGUMENT
      00341  1 77777 1 00346         TXI     BU,1,-1       GO TO SUBSTITUTION
      00342  1 77777 4 00343         TXI     SS,4,-1       NEXT DUMMY ARGUMENT
      00343 -3 00000 4 00345  SS     TXL     *+2,4,**      SKIP WHEN NO MORE ACTUAL ARGUMENTS. **=-WC
      00344  3 00000 4 00337  S      TXH     Q,4,**        NEXT ARGUMENT IN 'CHAIN'   ** = -NR OF DUMM
      00345  1 77777 1 00350         TXI     *+3,1,-1
      00346 -0500 00 4 01226  BU     CAL     ACTARG,4      GET ACTUAL VALUE
      00347  0602 00 1 01132         SLW     ARG-1,1       AND SUBSTITUTES IN COMMAND LIST
      00350  3 00000 1 00335  S1     TXH     R,1,**        NEXT ARGUMENT IN COMMAND.  ** = -N-1 ARG


                              *      CHECKS IF (NIL) OR (END) PSEUDO-COMMAND
                       00351  W1     SYN     *
      00351  0500 00 0 01133         CLA     ARG
      00352  0402 00 0 01033         SUB     NIL
      00353  0100 00 0 00162         TZE     B             NIL IGNORED. TO NEXT COMMAND
      00354  0500 00 0 01133         CLA     ARG
      00355  0402 00 0 01034         SUB     END
      00356  0100 00 0 00630         TZE     EOF           FORCES END OF PROCESS
1            SCHAIN  SETS AND EXECUTES A CHAIN OF COMMANDS.                      04/23/69 2323.0 PAGE 8

      00357  0054 00  000040         RFT     LKHED         SKIP WHEN LOOK UP NEXT COMMAND

  BINARY CARD NO. SCHAIN13
      00360  0020 00 0 00432         TRA     AF
      00361  0074 00 4 00707         TSX     SWUFD,4       CHECK FOR A SWITCHING COMMAND
      00362 -3 00000 3 00366         TXL     BN,3,0        SKIP IF NO
      00363  0055 00  000200         SIR     COMSW         IT MIGHT
      00364  3 00002 3 00366         TXH     BN,3,AQ-COMF-1          IT IS COMFIL
      00365  0055 00  000400         SIR     COPY          ANOTHER IMPLICIT SWITCHING COMMAND
      00366  0055 00  000140  BN     SIR     COMSET+LKHED
                              *      SET CURRENT COMMAND. SQUEEZES 'NIL'S AND REPLACES 'END'S.
                       00367  BC     SYN     *
      00367  0560 00 0 01072         LDQ     FENCE         FENCE
      00370  0774 00 4 00024         AXT     CL,4
      00371  0774 00 1 00025         AXT     CL+1,1
      00372 -0500 00 4 01157  BG     CAL     ARG+CL,4
      00373 -0340 00 0 01033         LAS     NIL
      00374  0020 00 0 00376         TRA     *+2
      00375  0020 00 0 00403         TRA     BM
      00376 -0340 00 0 01034         LAS     END
      00377  0020 00 0 00401         TRA     *+2
      00400 -0130 00 0 00000         XCL                   END REPLACED BY A FENCE
      00401  1 77777 1 00402         TXI     *+1,1,-1
      00402  0602 00 1 01203         SLW     ARG1+CL,1
      00403  2 00001 4 00372  BM     TIX     BG,4,1
                              *      CHECKS IF COMMAND MAY SWITCH U.F.D.

  BINARY CARD NO. SCHAIN14
      00404  0056 00  000200         RNT     COMSW
      00405  0020 00 0 00162         TRA     B             TO NEXT COMMAND
      00406  0054 00  000400         RFT     COPY
      00407  0020 00 0 00426         TRA     AM
      00410  0500 00 0 01157         CLA     ARG1
      00411  0402 00 0 00755         SUB     COMF
      00412 -0100 00 0 00430         TNZ     AN            SKIP IF NOT 'COMFIL'
      00413 -0534 00 1 00350         LXD     S1,1
      00414  0600 00 0 01126         STZ     LCF
      00415  3 77776 1 00424         TXH     AL,1,-2       SKIP IF NO ARGUMENT
      00416 -0500 00 0 01160         CAL     ARG1+1        1ST ARGUMENT
      00417  0322 00 0 01072         ERA     FENCE
      00420  0100 00 0 00424         TZE     AL            SKIP IF FENCE
      00421  0074 00 4 00020         TSX     $ZEL,4
      00422  0 00000 0 01160         PZE     ARG1+1
      00423  0601 00 0 01126         STO     LCF           NEW COMMON FILE
      00424  0057 00  000040  AL     RIR     LKHED
      00425  0020 00 0 00162         TRA     B             TO NEXT COMMAND
      00426  0600 00 0 01126  AM     STZ     LCF
      00427  0057 00  000400         RIR     COPY

  BINARY CARD NO. SCHAIN15
      00430  0057 00  000200  AN     RIR     COMSW
      00431  0020 00 0 00162         TRA     B             TO NEXT COMMAND
                       00432  AF     SYN     *
      00432  0074 00 4 00707         TSX     SWUFD,4       IS IT A SWITCHING COMMAND
      00433  3 00002 3 00440         TXH     AT,3,AQ-COMF-1 COMFIL IS NEXT
      00434 -3 00000 3 00442         TXL     AS,3,0        NO SWITCHING IN NEXT
1            SCHAIN  SETS AND EXECUTES A CHAIN OF COMMANDS.                      04/23/69 2323.0 PAGE 9

      00435 -0520 00 0 01126         NZT     LCF
      00436  0020 00 0 00464         TRA     W
      00437  0055 00  000400         SIR     COPY
      00440  0055 00  000201  AT     SIR     NDLOT+COMSW
      00441  0020 00 0 00464         TRA     W
      00442 -3 00002 2 00464  AS     TXL     W,2,CN-3      NO COMFIL SWITCHING IN NEXT COMMAND
      00443  3 00003 2 00464         TXH     W,2,CN-2
                              *      SPECIAL PROCEDURE FOR THE (CN-2)TH COMMAND
                       00444  J      SYN     *
      00444  0774 00 3 00037         AXT     AY-AX,3
      00445 -0340 00 3 01033         LAS     AY,3          DOES NEXT LET CORE IMAGE.  LAC = ARG
      00446  0020 00 0 00450         TRA     *+2
      00447  0020 00 0 00452         TRA     AZ            YES
      00450  2 00001 3 00445         TIX     *-3,3,1
      00451  0020 00 0 00464         TRA     W             NO
                       00452  AZ     SYN     *
      00452  0054 00  000030         RFT     PRINT+EF
      00453  0020 00 0 00462         TRA     X

  BINARY CARD NO. SCHAIN16
      00454  0774 00 3 00014         AXT     AW-AV,3
      00455 -0340 00 3 00774         LAS     AW,3          DOES NEXT EXPECT CORE IMAGE
      00456  0020 00 0 00460         TRA     *+2
      00457  0020 00 0 00462         TRA     X             YES
      00460  2 00001 3 00455         TIX     *-3,3,1
      00461  0020 00 0 00463         TRA     X+1
      00462  0055 00  002000  X      SIR     CORE
      00463  0055 00  000001         SIR     NDLOT
                              *      LOADS COMMAND LIST

      00464 -0634 00 2 00466  W      SXD     *+2,2
      00465  0074 00 4 00021         TSX     $SETCLS,4
      00466  0 00000 0 01157         PZE     ARG1,,**
      00467  1 00001 2 00470         TXI     *+1,2,1       NEXT COMMAND
      00470  3 00004 2 00473         TXH     AP,2,CN-1     SKIP IF LAST-1 COMMAND
      00471  0056 00  000001         RNT     NDLOT
      00472  0020 00 0 00367         TRA     BC            TO NEXT COMMAND
                       00473  AP     SYN     *
      00473                          SWUS    LCF
      00473 -0500 00 0 01126         CAL     LCF                                                              .001
      00474  0074 00 3 00717         TSX     SWCF,3                                                           .001
      00475 -0500 00 0 01126         CAL     LCF
      00476  0402 00 0 01127         SUB     PCF
      00477  0100 00 0 00501         TZE     *+2           SKIP IF SAME COMFIL FOR CHAIN

  BINARY CARD NO. SCHAIN17
      00500  0057 00  005000         RIR     NAM+NAM1      TO GET NEW NAMES
      00501  0054 00  001000         RFT     NAM
      00502  0020 00 0 00510         TRA     Y


                              *      GETS A FILE NAME FOR TEMPORARY STORAGE
1            SCHAIN  SETS AND EXECUTES A CHAIN OF COMMANDS.                      04/23/69 2323.0 PAGE 10

      00503  0074 00 4 00022         TSX     $GTNAM,4
      00504  0 00000 0 01037         PZE     SAVED
      00505  0055 00  001000         SIR     NAM
      00506  0601 00 0 01070         STO     SAVE+1
      00507  0601 00 0 01074         STO     RESUME+1


                              *      SETS BRACKET COMMANDS

                       00510  Y      SYN     *
      00510  0074 00 4 00021         TSX     $SETCLS,4
      00511  0 00001 0 01067         PZE     SAVE,,1
      00512  0056 00  002000         RNT     CORE
      00513  0020 00 0 00551         TRA     Z
      00514  0054 00  004000         RFT     NAM1
      00515  0020 00 0 00545         TRA     T             SKIP IF NAME ASSIGNED
      00516  0074 00 4 00023         TSX     $OPEN,4       CREATE DUMMY FILE
      00517  3 00000 0 01664         PTH     =H     W
      00520  3 00000 0 01074         PTH     RESUME+1
      00521  3 00000 0 01075         PTH     RESUME+2
      00522  3 00000 0 01651         PTH     =1            TEMPORARY FILE
      00523  3 00000 0 01652         PTH     =2            DISK

  BINARY CARD NO. SCHAIN18
      00524  0074 00 4 00024         TSX     $WRFILE,4
      00525  3 00000 0 01074         PTH     RESUME+1
      00526  3 00000 0 01075         PTH     RESUME+2
      00527  3 00000 0 01650         PTH     =0            CONTINUE WRITING.
      00530  3 00024 0 01157         PTH     ARG1,,CL
      00531  3 00000 0 01656         PTH     =-0           EOF ON WRITE
      00532  3 00000 0 01656         PTH     =-0           EOFCT ON WRITE
      00533  3 00000 0 00705         PTH     ZZ+1
      00534  0074 00 4 00025         TSX     $CLOSE,4
      00535  3 00000 0 01074         PTH     RESUME+1
      00536  3 00000 0 01075         PTH     RESUME+2
      00537  3 00000 0 00705         PTH     ZZ+1
      00540  0074 00 4 00022         TSX     $GTNAM,4
      00541  0 00000 0 01037         PZE     SAVED
      00542  0055 00  004000         SIR     NAM1
      00543  0601 00 0 01100         STO     SAVE1+1       SET NAMES FOR CORE IMAGE
      00544  0601 00 0 01104         STO     RESTOR+1
                       00545  T      SYN     *
      00545 -0634 00 2 00547         SXD     *+2,2
      00546  0074 00 4 00021         TSX     $SETCLS,4
      00547  0 00000 0 01077         PZE     SAVE1,,**     SAVE CORE IMAGE

  BINARY CARD NO. SCHAIN19
      00550  1 00001 2 00551         TXI     *+1,2,1
                       00551  Z      SYN     *
      00551 -0634 00 2 00553         SXD     *+2,2
      00552  0074 00 4 00021         TSX     $SETCLS,4
      00553  0 00000 0 01073         PZE     RESUME,,**
1            SCHAIN  SETS AND EXECUTES A CHAIN OF COMMANDS.                      04/23/69 2323.0 PAGE 11

                              *      STARTS CHAIN

      00554 -0754 00 2 00000         PXD     ,2
      00555  0400 00 0 01651         ADD     =1
      00556  0074 00 4 00026         TSX     $SETCLC,4
      00557                          TEMP1
      00557  0520 00 0 01123         ZET     FAIL                                                             .001
      00560 -0520 00 0 01126         NZT     LCF                                                              .001
      00561  0020 00 0 00571         TRA     ..002                                                            .001
      00562  0074 00 4 00027         TSX     $CHFILE,4                                                        .001
      00563  3 00000 0 01104         PTH     RESTOR+1                                                         .001
      00564  3 00000 0 01105         PTH     RESTOR+2                                                         .001
      00565  3 00000 0 01651         PTH     =1                                                               .001
      00566  3 00000 0 01656         PTH     =-0           DO NOT ALTER                                       .001
      00567  3 00000 0 01656         PTH     =-0           ..                                                 .001
      00570  3 00000 0 00571         PTH     *+1                                                              .001
                       00571  ..002  SYN     *                                                                .001
      00571  0600 00 0 01123         STZ     FAIL          RESET POSSIBLE FILE NAME
      00572  0074 00 4 00030         TSX     $CHNCOM,4
      00573  3 00000 0 01651         PAR     =1            KEEP CORE IMAGE


                              *      RETURN  AFTER CHAIN EXECUTED


  BINARY CARD NO. SCHAIN20
      00574  0056 00  002000         RNT     CORE
      00575  0020 00 0 00605         TRA     BJ+1
      00576  0074 00 4 00003         TSX     $FSTATE,4
      00577  3 00000 0 01104         PTH     RESTOR+1
      00600  3 00000 0 01105         PTH     RESTOR+2
      00601  3 00010 0 01110         PTH     ARRAY,,8
      00602  3 00000 0 00604         PTH     BJ
      00603  0020 00 0 00607         TRA     BP
      00604  0057 00  002000  BJ     RIR     CORE          NO FILE FOR CORE IMAGE
      00605  0074 00 4 00013         TSX     $DELETE,4
      00606  0 00000 0 01074         PZE     RESUME+1      DELETE CHAIN CORE IMAGE
                       00607  BP     SYN     *
      00607  0054 00  000010         RFT     EF
      00610  0020 00 0 00635         TRA     E
      00611 -0500 00 0 01126         CAL     LCF
      00612  0602 00 0 01127         SLW     PCF           LOCAL COMFIL BECOMES PREVIOUS
      00613                          SWUS    HCF
      00613 -0500 00 0 01125         CAL     HCF                                                              .001
      00614  0074 00 3 00717         TSX     SWCF,3                                                           .001
      00615  0057 00  000001         RIR     NDLOT
      00616  0774 00 2 00002         AXT     FC,2
      00617  0056 00  002000         RNT     CORE

  BINARY CARD NO. SCHAIN21
      00620  0020 00 0 00230         TRA     BA            TO NEXT BATCH
      00621 -0634 00 2 00623         SXD     *+2,2
      00622  0074 00 4 00021         TSX     $SETCLS,4
      00623  0 00000 0 01103         PZE     RESTOR,,**    RESTORE CORE IMAGE
      00624 -0500 00 0 01104         CAL     RESTOR+1
      00625  0602 00 0 01123         SLW     FAIL          CORE IMAGE FLAG
1            SCHAIN  SETS AND EXECUTES A CHAIN OF COMMANDS.                      04/23/69 2323.0 PAGE 12

      00626  0057 00  002000         RIR     CORE
      00627  1 00001 2 00230         TXI     BA,2,1        TO NEXT BATCH
                              *      WHEN END OF FILE
      00630  0055 00  000011  EOF    SIR     EF+NDLOT
      00631  0056 00  000100         RNT     COMSET
      00632  0020 00 0 00635         TRA     E
      00633  0054 00  000040         RFT     LKHED
      00634  0020 00 0 00226         TRA     BQ            GO CHECK CORE IMAGE LEFT BY COMMAND


                              *      RESTORE COMMAND LISTS AND COUNTERS

                       00635  E      SYN     *
      00635  0774 00 1 00001         AXT     1,1
      00636  0774 00 2 01504         AXT     CBUF,2
      00637  0634 00 2 00642  V      SXA     *+3,2
      00640 -0634 00 1 00642         SXD     *+2,1
      00641  0074 00 4 00021         TSX     $SETCLS,4
      00642  0 00000 0 00000         PZE     **,,**
      00643  1 00024 2 00644         TXI     *+1,2,CL

  BINARY CARD NO. SCHAIN22
      00644  1 00001 1 00645         TXI     *+1,1,1
      00645 -3 00005 1 00637         TXL     V,1,CN
      00646 -0500 00 0 01122         CAL     CLC
      00647  0074 00 4 00026         TSX     $SETCLC,4
      00650                          SWUS    LCF
      00650 -0500 00 0 01126         CAL     LCF                                                              .001
      00651  0074 00 3 00717         TSX     SWCF,3                                                           .001
      00652  0056 00  002000         RNT     CORE
      00653  0020 00 0 00670         TRA     E1            NO CORE IMAGE LEFT
      00654  0074 00 4 00013         TSX     $DELETE,4
      00655  0 00000 0 01074         PZE     RESUME+1      DELETE CHAIN SAVED FILE
      00656 -0100 00 0 00667         TNZ     BR            ERROR
      00657  0074 00 4 00027         TSX     $CHFILE,4
      00660  3 00000 0 01104         PTH     RESTOR+1
      00661  3 00000 0 01105         PTH     RESTOR+2
      00662  3 00000 0 01651         PTH     =1            TEMPORARY MODE
      00663  3 00000 0 01074         PTH     RESUME+1
      00664  3 00000 0 01075         PTH     RESUME+2
      00665  3 00000 0 00667         PTH     BR            TO A LOWER NAME IN THE LIST
      00666 -0500 00 0 01074         CAL     RESUME+1      OF TEMPORARY FILES
      00667  0602 00 0 01123  BR     SLW     FAIL          SET ERROR CODE OR FILE NAME
                       00670  E1     SYN     *


                              *      END OF PROCESS

                       00670  OUT    SYN     *
      00670                          RSTOR

  BINARY CARD NO. SCHAIN23
      00670  0441 00 0 01120         LDI     IND                                                              .001
      00671  0774 00 3 00000  X3     AXT     **,3                                                             .001
      00672  0774 00 5 00000  X5     AXT     **,5                                                             .001
      00673  0774 00 6 00000  X6     AXT     **,6                                                             .001
1            SCHAIN  SETS AND EXECUTES A CHAIN OF COMMANDS.                      04/23/69 2323.0 PAGE 13

      00674  0774 00 7 00000  X7     AXT     **,7                                                             .001
      00675 -0520 00 0 01121         NZT     XMOD                                                             .001
      00676 -0760 00 0 00016         EMTM                                                                     .001
      00677  0774 00 1 00000  X1     AXT     **,1                                                             .001
      00700  0774 00 2 00000  X2     AXT     **,2                                                             .001
      00701 -0534 00 4 00033         LXD     X4,4                                                             .001
      00702  0500 00 0 01123         CLA     FAIL
      00703  0020 00 0 00000  AH     TRA     **

      00704  0500 00 0 01651  ZZ     CLA     =1
      00705  0601 00 0 01123         STO     FAIL
      00706  0020 00 0 00670         TRA     E1
                              *      SWUFD S/R.  CHECKS WHETHER A COMMAND MAY SWITCH U.F.D.
      00707 -0500 00 0 01133  SWUFD  CAL     ARG
      00710  0774 00 3 00003         AXT     AQ-COMF,3
      00711 -0340 00 3 00760  AR     LAS     AQ,3          NEXT MIGHT SWITCH FILE DIRECTORY
      00712  0020 00 0 00714         TRA     *+2
      00713  0020 00 4 00001         TRA     1,4           YES

  BINARY CARD NO. SCHAIN24
      00714  2 00001 3 00711         TIX     AR,3,1
      00715  0774 00 3 00000         AXT     ,3            NO
      00716  0020 00 4 00001         TRA     1,4           RETURN WITH IX3 SETTING

                              *      SWCF S/R. SWITCHES TO SPECIFIED COMMON FILE
      00717 -0340 00 0 01124  SWCF   LAS     CCF           IS IT NEW COMMON FILE
      00720  0020 00 0 00722         TRA     *+2
      00721  0020 00 3 00001         TRA     1,3           YES. IGNORE CALL
      00722  0602 00 0 01124         SLW     CCF           SAVE NEW COMMON FILE NO.
      00723  0057 00  002000         RIR     CORE          COMFIL LEAVES NO CORE IMAGE
      00724  0074 00 4 00031         TSX     $COMFIL,4
      00725  3 00000 0 00741         BRN     BUSY
      00726  0020 00 3 00001         TRA     1,3
                              *      ERROR PROCEDURES
      00727  0602 00 0 01040  ERROR  SLW     MES
      00730  0074 00 4 00014         TSX     $WRFLX,4
      00731  0 00005 0 01040         PZE     MES,,5
      00732  0020 00 0 00704         TRA     ZZ
      00733 -0500 00 0 01157  BD     CAL     ARG1
      00734  0602 00 0 01050         SLW     MES2
      00735  0074 00 4 00014         TSX     $WRFLX,4
      00736  0 00005 0 01050         PZE     MES2,,5       ILLEGAL COMMON FILE
      00737 -0500 00 0 01157         CAL     ARG1

  BINARY CARD NO. SCHAIN25
      00740  0020 00 0 00705         TRA     ZZ+1
      00741  0636 00 4 00754  BUSY   SCA     BF,4
      00742  0602 00 0 01055         SLW     MES3
      00743 -0600 00 0 01056         STQ     MES3+1
      00744 -0500 00 0 01061         CAL     MES3+4
      00745 -0320 00 0 01665         ANA     =O777777777700
      00746 -0501 00 0 01124         ORA     CCF           SET COMFIL NO.
      00747  0602 00 0 01061         SLW     MES3+4
      00750  0074 00 4 00014         TSX     $WRFLX,4
      00751  0 00012 0 01055         PZE     MES3,,10
      00752  0074 00 4 00032         TSX     $DORMNT,4
1            SCHAIN  SETS AND EXECUTES A CHAIN OF COMMANDS.                      04/23/69 2323.0 PAGE 14

      00753 -0500 00 0 01124         CAL     CCF
      00754  0020 00 0 00000  BF     TRA     **            TRY AGAIN
                              *      THESE COMMANDS MAY SWITCH TO ANOTHER U.F.D.


      00755  234644263143     COMF   BCI     1,COMFIL
      00756  512544215142            BCI     1,REMARK
      00757  606060434627            BCI     1,   LOG
                       00760  AQ     SYN     *
                       00760  AV     SYN     *             THESE COMMANDS EXPECT A CORE IMAGE
      00760  262147242227            BCI     1,FAPDBG
      00761  462363472163            BCI     1,OCTPAT
      00762  462363635121            BCI     1,OCTTRA
      00763  604623634342            BCI     1, OCTLK

  BINARY CARD NO. SCHAIN26
      00764  626346472163            BCI     1,STOPAT
      00765  604721632330            BCI     1, PATCH
      00766  606060635121            BCI     1,   TRA
      00767  606060604744            BCI     1,    PM
      00770  606060646225            BCI     1,   USE
      00771  606263215163            BCI     1, START
      00772  606062216525            BCI     1,  SAVE
      00773  626351212325            BCI     1,STRACE
                       00774  AW     SYN     *
                       00774  AX     SYN     *             THESE COMMANDS LET A CORE IMAGE
      00774  262147242227            BCI     1,FAPDBG
      00775  606043212524            BCI     1,  LAED
      00776  606043462124            BCI     1,  LOAD
      00777  604324212262            BCI     1, LDABS
      01000  462363472163            BCI     1,OCTPAT
      01001  462363635121            BCI     1,OCTTRA
      01002  604623634342            BCI     1, OCTLK
      01003  626346472163            BCI     1,STOPAT
      01004  604721632330            BCI     1, PATCH
      01005  606060635121            BCI     1,   TRA
      01006  606060604744            BCI     1,    PM
      01007  606060646225            BCI     1,   USE

  BINARY CARD NO. SCHAIN27
      01010  606263215163            BCI     1, START
      01011  512562634651            BCI     1,RESTOR
      01012  512562644425            BCI     1,RESUME
      01013  606060606051            BCI     1,     R
      01014  606062216525            BCI     1,  SAVE
      01015  606543462124            BCI     1, VLOAD
      01016  452343462124            BCI     1,NCLOAD
      01017  434621242746            BCI     1,LOADGO
      01020  626351212325            BCI     1,STRACE
      01021  516445234644            BCI     1,RUNCOM
      01022  236325626301            BCI     1,CTEST1
      01023  236325626302            BCI     1,CTEST2
      01024  236325626303            BCI     1,CTEST3
      01025  236325626304            BCI     1,CTEST4
      01026  236325626305            BCI     1,CTEST5
      01027  236325626306            BCI     1,CTEST6
1            SCHAIN  SETS AND EXECUTES A CHAIN OF COMMANDS.                      04/23/69 2323.0 PAGE 15

      01030  236325626307            BCI     1,CTEST7
      01031  236325626310            BCI     1,CTEST8
      01032  236325626311            BCI     1,CTEST9
                       01033  AY     SYN     *
      01033  607445314334     NIL    BCI     1, (NIL)

  BINARY CARD NO. SCHAIN28
      01034  607425452434     END    BCI     1, (END)
      01035  602330213145     CHAIN  BCI     1, CHAIN
      01036  333333000001     FIL1   BCI     2,...001 SAVED
      01037  606221652524
      01040  606060606060     MES    BCI     5,      ...ILLEGAL OCCURENCE
      01041  333333314343
      01042  252721436046
      01043  232364512545
      01044  232560606060
      01045  604546602567     MES1   BCI     3, NO EXECUTION
      01046  252364633146
      01047  456060606060
      01050  234644444645     MES2   BCI     5,COMMON FILE        UNKNOWN
      01051  602631432560
      01052  606060606060
      01053  606445424546
      01054  664560606060
      01055  606060606060     MES3   BCI ,             IS USING COMFIL 0, TYPE 'START' TO TRY AGAIN
      01056  606060606060
      01057  603162606462

  BINARY CARD NO. SCHAIN29
      01060  314527602346
      01061  442631436000
      01062  736063704725
      01063  601462632151
      01064  631460634660
      01065  635170602127
      01066  213145606060
      01067  606062216525     SAVE   VFD     H36/SAVE,36/,H36/T,O36//
      01070  000000000000
      01071  606060606063
      01072  777777777777
      01073  512562644425     RESUME VFD     H36/RESUME,36/,H36/SAVED,O36//
      01074  000000000000
      01075  606221652524
      01076  777777777777
      01077  606062216525     SAVE1  VFD     H36/SAVE,36/,H36/T,O36//
      01100  000000000000
      01101  606060606063
      01102  777777777777
      01103  512562634651     RESTOR VFD     H36/RESTOR,36/,H36/SAVED,O36//

  BINARY CARD NO. SCHAIN30
      01104  000000000000
      01105  606221652524
      01106  777777777777
                       00002  FC     EQU     2             FIRST COMMAND LIST AVAILABLE FOR USER'S
                       00005  CN     EQU     5             NUMBER OF COMMAND LISTS
1            SCHAIN  SETS AND EXECUTES A CHAIN OF COMMANDS.                      04/23/69 2323.0 PAGE 16

                       00024  CL     EQU     20            COMMAND BUFFER LENGTH
                       00026  RL     EQU     22            BCD RECORD BUFFER LENGTH
                      000001  NDLOT  BOOL    1             ON = CLOSE SUB-CHAIN
                      000002  TCHAIN BOOL    2             ON = 'CHAIN' OCCURRED
                      000004  ARGLIS BOOL    4             ON = WHILE PROCESSING 'CHAIN' PSEUDO
                      000010  EF     BOOL    10            ON = END FILE OCCURED
                      000020  PRINT  BOOL    20            ON = WHILE PRINT ON-LINE
                      000040  LKHED  BOOL    40            ON = NEXT COMMAND TO BE READ
                      000100  COMSET BOOL    100           ON = SOME EXECUTABLE COMMAND READ
                      000200  COMSW  BOOL    200           ON = NEXT COMMAND MAY SWITCH DIRECTORY
                      000400  COPY   BOOL    400           ON = NEXT COMMAND SWITCHES IMPLICITLY UFD
                      001000  NAM    BOOL    1000          ON = FILE NAME ASSIGNED TO 'SCHAIN'
                      002000  CORE   BOOL    2000          ON = CORE IMAGE TO BE SAVED
                      004000  NAM1   BOOL    4000          ON = FILE NAME ASSIGNED TO CORE IMAGE
                      010000  FILOST BOOL    10000         ON = SOURCE FILE STATUS LOST
      01107 +000000000660     BUFSIZ DEC     432
      01110                   ARRAY  BSS     8
      01120                   IND    BSS     1             SAVE INDICATORS
      01121                   XMOD   BSS     1             0 FOR 3 IX'S MODE. 77777 FOR 7 IX'S MODE
      01122                   CLC    BSS     1             SAVE COMMAND COUNTERS
      01123                   FAIL   BSS     1             ZERO IF NO ERROR
      01124                   CCF    BSS     1             CURRENT COMMON FILE
      01125                   HCF    BSS     1             HOME COMMON FILE
      01126                   LCF    BSS     1             LOCAL COMMON FILE, IN THE SUBCHAIN
      01127                   PCF    BSS     1             PREVIOUS LOCAL COMMON FILE
      01130                   BK     BSS     3             FILE NAMES
                       01131  FIL    SYN     BK+1
      01133                   ARG    BSS     CL            COMMAND JUST READ
      01157                   ARG1   BSS     CL            COMMAND TO BE LOADED
      01203                   ARLIS  BSS     CL-1          CHAIN PSEUDO COMMAND
      01226                   ACTARG BSS     CL-1          ACTUAL VALUES OF ARGUMENTS
      01251                   AG     BSS     RL            READ INPUT BUFFER
      01277                   K      BSS     6*RL+1        UNPACKED LINE BUFFER
      01504                   CBUF   BSS     CL*CN         SAVE COMMAND LISTS
                       01037  SAVED  SYN     FIL1+1
                       01072  FENCE  SYN     SAVE+3
                                     END

        LITERALS

  BINARY CARD NO. SCHAIN31
      01650  000000000000
      01651  000000000001
      01652  000000000002
      01653  000000000006
      01654  000000000014
      01655  000000000026
      01656  400000000000
      01657  530000000000
      01660  540000000000
      01661  570000000000
      01662  600000000000
      01663  606060606060
      01664  606060606066
      01665  777777777700
1            SCHAIN  SETS AND EXECUTES A CHAIN OF COMMANDS.                      04/23/69 2323.0 PAGE 1
                        POST PROCESSOR ASSEMBLY DATA

       1666 IS THE FIRST LOCATION NOT USED BY THIS PROGRAM

0REFERENCES TO DEFINED SYMBOLS
        157      A   147,  152,  157
        162      B   162,  212,  235,  311,  326,  353,  405,  425,  431
        265      C   253,  255,  260
        274      D   264
        635      E   610,  632,  635
        236      F   215,  236
        256      G   250,  272
        307      H   274,  303
        444      J   227,  444
       1277      K   121,  126,  207,  210,  213,  246,  256
        311      L   245,  307
        321      M   324
        324      N   316
        327      P   315,  327
        337      Q   344
        335      R   350
        344      S   317
        545      T   515,  545
        136      U   144
        637      V   645
        464      W   436,  441,  442,  443,  451
        462      X   453,  457,  461
        510      Y   502,  510
        551      Z   513,  551
        272     AA   203
        115     AB    77,  131
        120     AC   116
        132     AD   127
        131     AE   114,  127
        432     AF   360,  432
       1251     AG   164,  206,  234
        703     AH    76
        304     AJ   302
        121     AK   130
        424     AL   415,  420
        426     AM   407
        430     AN   412
        473     AP   470,  473
        760     AQ   364,  433,  710,  711,  760
        711     AR   714
        442     AS   434
        440     AT   433
        760     AV   454,  760
        774     AW   454,  455,  774
        774     AX   444,  774
       1033     AY   444,  445, 1033
        452     AZ   447,  452
        230     BA   230,  620,  627
        232     BB   217,  221,  223
        367     BC   231,  367,  472
        733     BD
1            SCHAIN  SETS AND EXECUTES A CHAIN OF COMMANDS.                      04/23/69 2323.0 PAGE 2
                        POST PROCESSOR ASSEMBLY DATA

        162     BE   162
        754     BF   741
        372     BG   403
        604     BJ   575,  602
       1130     BK  1133
        165     BL    55
        403     BM   375
        366     BN   362,  364
        607     BP   603,  607
        226     BQ   634
        667     BR   656,  665
        174     BS   170
        127     BT   124
        346     BU   341
         24     CL    57,   61,  112,  142,  236,  240,  307,  370,  371,  372,  402,  530,  643, 1107, 1133, 1157, 1203
                    1226, 1504
          5     CN   144,  442,  443,  470,  645, 1107, 1504
        670     E1   653,  670,  706
         10     EF   452,  607,  630, 1107
          2     FC   161,  221,  616, 1107
        245     GG   204,  254,  310
         26     RL   164,  206,  207, 1107, 1251, 1277
        350     S1   327,  413
        343     SS   132,  332,  340,  342
        351     W1   331,  333,  351
        677     X1    36
        700     X2    37
        671     X3    40,   47
         33     X4    35,   41,   64,   74,  701
        672     X5    50
        673     X6    51
        674     X7    52
        704     ZZ   104,  533,  537,  732,  740
       1133    ARG   240,  266,  270,  276,  313,  321,  335,  347,  351,  354,  372,  707
       1124    CCF    70,  717,  722,  746,  753
       1122    CLC   146,  646
       1034    END   355,  376
        630    EOF   160,  356
       1131    FIL    65,  101,  102,  105,  106,  110,  163, 1133
       1125    HCF    67,  613
       1120    IND    35,  670
       1126    LCF    72,  414,  423,  426,  435,  473,  475,  560,  611,  650
       1040    MES   727,  731
       1000    NAM   500,  501,  505, 1107
       1033    NIL   352,  373
        670    OUT   156,  670
       1127    PCF    71,  476,  612
         20    ZEL   421
       1157   ARG1    61,  226,  402,  410,  416,  422,  466,  530,  733,  737
        741   BUSY   725
       1504   CBUF   135,  636
          2   COLT    73
        755   COMF   364,  411,  433,  710
        400   COPY   365,  406,  427,  437, 1107
       2000   CORE   462,  512,  574,  604,  617,  626,  652,  723, 1107
1            SCHAIN  SETS AND EXECUTES A CHAIN OF COMMANDS.                      04/23/69 2323.0 PAGE 3
                        POST PROCESSOR ASSEMBLY DATA

        660   DBUF    35
       1123   FAIL    54,  153,  557,  571,  625,  667,  702,  705
       1036   FIL1   151, 1650
          0   GNAM    63
       1045   MES1   155
       1050   MES2   734,  736
       1055   MES3   742,  743,  744,  747,  751
       4000   NAM1   500,  514,  542, 1107
         23   OPEN   516
       1067   SAVE   506,  511, 1650
          4   SEEK   107
        717   SWCF   474,  614,  651
       1121   XMOD    44,   46,  675
       1203  ARLIS   322,  337
       1110  ARRAY   103,  601
       1035  CHAIN   300
         25  CLOSE   534
        200  COMSW    56,  363,  404,  430,  440, 1107
        727  ERROR   305
       1072  FENCE   312,  367,  417, 1650
         22  GTNAM   503,  540
        571  ..002   561,  571
         40  LKHED   220,  225,  357,  366,  424,  633, 1107
          5  MOVE1   111
          6  MOVE2   117
         10  MOVE3   133
          1  NDLOT   224,  440,  463,  471,  615,  630, 1107
         20  PRINT   222,  224,  230,  232,  275,  452, 1107
          7  RJUST   125
       1077  SAVE1   543,  547
       1037  SAVED   504,  541, 1650
        707  SWUFD   361,  432
         16  VREAD   162
         14  WRFLX   154,  233,  730,  735,  750
       1226 ACTARG   112,  346
          4 ARGLIS   306,  314,  325, 1107
       1107 BUFSIZ
         27 CHFILE   562,  657
         30 CHNCOM   572
         31 COMFIL   724
        100 COMSET   216,  304,  366,  631, 1107
         13 DELETE   150,  605,  654
         32 DORMNT   752
      10000 FILOST  1107
          3 FSTATE   100,  576
          1 GETCFN    66
         12 GETCLC   145
         11 GETCLS   140
       1103 RESTOR   544,  563,  564,  577,  600,  623,  624,  660,  661
       1073 RESUME   507,  520,  521,  525,  526,  535,  536,  553,  606,  655,  663,  664,  666
         35 SCHAIN     0,   35
         26 SETCLC   556,  647
         21 SETCLS   465,  510,  546,  552,  622,  641
         15 SETEOF   157
          2 TCHAIN   277,  306,  330, 1107
1            SCHAIN  SETS AND EXECUTES A CHAIN OF COMMANDS.                      04/23/69 2323.0 PAGE 4
                        POST PROCESSOR ASSEMBLY DATA

         17 UNPAKL   205
         24 WRFILE   524

0 NO ERROR IN ABOVE ASSEMBLY.


RUNOFF   BCD 09/18/68 2319.7   82115         00000
1     MAD PROGRAM LISTING ... ... ...                 FILE   RMAIN   MAD            02/08/68    1243.2
-
                 ..  MAIN PROGRAM TO CALL RUNOFF COMMAND.                                              LM00001
                                                                                                       LM00002
                 ..  J. H. SALTZER, DECEMBER, 1965.                                                    LM00003
                                                                                                       LM00004
                 ..  DECLARATIONS.                                                                     LM00005
                                                                                                       LM00006
                  NORMAL MODE IS INTEGER                                                          *001 LM00007
                  INSERT FILE RCOM                                                                *002 LM00008
                                                                                                  *002 LM00001
                 ..  RUNOFF COMMON PACKAGE.                                                       *002 LM00002
                                                                                                  *002 LM00003
                  NORMAL MODE IS INTEGER                                                          *003 LM00004
                                                                                                       LM00005
                  PROGRAM COMMON NOSTOP, NOWAIT, FSTPAG, PRINAM, OUTFIL                           *004 LM00006
                  PROGRAM COMMON HDLTH, HEAD(360), HDPOS                                          *005 LM00007
                  PROGRAM COMMON LINE(360)                                                        *006 LM00008
                  PROGRAM COMMON PGE, PAGENO, PGPOS, FTSW, PGMOD                                  *007 LM00009
                  PROGRAM COMMON PREFIX(25), PRLTH                                                *008 LM00010
                  PROGRAM COMMON RMARG                                                            *009 LM00011
                  PROGRAM COMMON WRD, SIZE, COUNT, WORD(360)                                      *010 LM00012
                  PROGRAM COMMON BEGIN, FILL, ADJST, NCHARS, LENGTH                               *011 LM00013
                  PROGRAM COMMON LMARG, LINECT, BOTLIN, CNTR, FILSW                               *012 LM00014
                  PROGRAM COMMON FLAGSW, DBLSPC, HEDPGE, PIX                                      *013 LM00015
                  PROGRAM COMMON MROW, TBTLIN, TBTPAG                                             *014 LM00016
                  PROGRAM COMMON TPGPOS, TFTSW, TPGE, TPRF(25)                                    *015 LM00017
                  PROGRAM COMMON TPRLTH, THDPOS, TPAGNO, TPGMOD                                   *016 LM00018
                  PROGRAM COMMON BOTPAG, FLAG(3)                                                  *017 LM00019
                  PROGRAM COMMON BLANK, BCKSPC, RETURN(3)                                         *018 LM00020
                  PROGRAM COMMON TAB, PERIOD, QUES, EXCLAM                                        *019 LM00021
                  PROGRAM COMMON COLON, HYPHEN, NULL                                              *020 LM00022
                                                                                                       LM00023
                  BOOLEAN NOSTOP, NOWAIT, FTSW, PGE, OUTFIL                                       *021 LM00024
                  BOOLEAN ADJST                                                                   *022 LM00025
                  BOOLEAN WRD, FILL, BEGIN, CNTR, FILSW, FLAGSW                                   *023 LM00026
                  BOOLEAN DBLSPC, HEDPGE, PIX, TPGE, TFTSW                                        *024 LM00027
                                                                                                       LM00028
                 ..  END OF RUNOFF COMMON PACKAGE                                                      LM00029
                                                                                                       LM00030
                  VECTOR VALUES FENCE = 777777777777K                                             *025 LM00009
                                                                                                       LM00010
                 ..  DEFAULT ARGUMENT VALUES                                                           LM00011
                                                                                                       LM00012
                  VECTOR VALUES NOSTOP = 1B                                                       *026 LM00013
                  VECTOR VALUES NOWAIT = 0B                                                       *027 LM00014
                  VECTOR VALUES FSTPAG = 0                                                        *028 LM00015
                  VECTOR VALUES OUTFIL = 0B                                                       *029 LM00016
                                                                                                       LM00017
                 ..  COLLECT COMMAND ARGUMENTS.  FIRST ARGUMENT IS                                     LM00018
                 ..  NAME OF FILE TO BE READ.                                                          LM00019
                                                                                                       LM00020
                  SETBRK.(CHNCOM.)                                                                *030 LM00021
                  PRINAM = COMARG.(1)                                                             *031 LM00022
                  WHENEVER PRINAM .E. FENCE                                                       *032 LM00023
      BADARG           PRINT COMMENT $0U1S1A1G1E0:$                                               *033 LM00024
                       PRINT COMMENT $0 0 0 0 0 0R0U0N0O0F0F0 1N1A1M1E0 0-0P0A0                   *034 LM00025
                1 G0E0 1N0-0 0-0S0T0O0P0-$                                                        *034 LM00026
                       CHNCOM.(0)                                                                 *035 LM00027
                  END OF CONDITIONAL                                                              *036 LM00028
                                                                                                       LM00029
                  THROUGH GETARG, FOR I = 2, 1, COMARG.(I) .E. FENCE                              *037 LM00030
                1                               .OR. I .G. 20                                     *037 LM00031
                       ARG = COMARG.(I)                                                           *038 LM00032
                                                                                                       LM00033
                       WHENEVER ARG .E. $  STOP$                                                  *039 LM00034
                            NOSTOP = 0B                                                           *040 LM00035
                                                                                                       LM00036
                       OR WHENEVER ARG .E. $NOWAIT$                                               *041 LM00037
                            NOWAIT = 1B                                                           *042 LM00038
                            NOSTOP = 1B                                                           *043 LM00039
                                                                                                       LM00040
                       OR WHENEVER ARG .E. $  PAGE$                                               *044 LM00041
                            ARG = COMARG.(I+1)                                                    *045 LM00042
                            WHENEVER ARG .E. FENCE, TRANSFER TO BADARG                            *046 LM00043
                            I = I + 1                                                             *047 LM00044
                            FSTPAG = BIN.(ARG)                                                    *048 LM00045
                                                                                                       LM00046
                       OR WHENEVER ARG .E. $ PRINT$                                               *049 LM00047
                            OUTFIL = 1B                                                           *050 LM00048
                            NOWAIT = 1B                                                           *051 LM00049
                                                                                                       LM00050
                       OR WHENEVER ARG .E. $  BALL$                                               *052 LM00051
                            ARG = COMARG.(I+1)                                                    *053 LM00052
                            WHENEVER ARG .E. FENCE, TRANSFER TO BADARG                            *054 LM00053
                            I = I + 1                                                             *055 LM00054
                            CHBALL.(ARG,2,BADARG)                                                 *056 LM00055
                                                                                                       LM00056
                       OTHERWISE                                                                  *057 LM00057
                            TRANSFER TO BADARG                                                    *058 LM00058
                                                                                                       LM00059
      GETARG           END OF CONDITIONAL                                                         *059 LM00060
                                                                                                       LM00061
                  RUNOFF.                                                                         *060 LM00062
                  CHNCOM.(0)                                                                      *061 LM00063
                                                                                                       LM00064
                  END OF PROGRAM                                                                  *062 LM00065
1MAD PROGRAM,TYPE NOV 1963      (ALL NUMBERS ARE OCTAL)
0TOTAL LOCATIONS   00215 TRANSFER VECTOR LENGTH  00011 PROGRAM BEGINS    00030 FIRST UNUSED COMMON/ERASABLE  75207
0VARIABLE STORAGE (A=ARRAY,C=COMMON,E=ERASABLE,DIGIT=MODE)
      ADJST  75311  C2        FENCE  00014 A 1        I      00015   1        PGE    76130  C2        TBTLIN 75274  C1
      ARG    00013   1        FILL   75312  C2        LENGTH 75307  C1        PGMOD  76124  C1        TBTPAG 75273  C1
      BADARG 00012   4        FILSW  75302  C2        LINECT 75305  C1        PGPOS  76126  C1        TFTSW  75271  C2
      BCKSPC 75223  C1        FLAG   75230 AC1        LINE   76701 AC1        PIX    75276  C2        THDPOS 75234  C1
      BEGIN  75313  C2        FLAGSW 75301  C2        LMARG  75306  C1        PREFIX 76123 AC1        TPAGNO 75233  C1
      BLANK  75224  C1        FSTPAG 77457 AC1        MROW   75275  C1        PRINAM 77456  C1        TPGE   75270  C2
      BOTLIN 75304  C1        FTSW   76125  C2        NCHARS 75310  C1        PRLTH  76071  C1        TPGMOD 75232  C1
      BOTPAG 75231  C1        GETARG 00011   4        NOSTOP 77461 AC2        QUES   75214  C1        TPGPOS 75272  C1
      CNTR   75303  C2        HDLTH  77454  C1        NOWAIT 77460 AC2        RETURN 75222 AC1        TPRF   75267 AC1
      COLON  75212  C1        HDPOS  76702  C1        NULL   75210  C1        RMARG  76070  C1        TPRLTH 75235  C1
      COUNT  76065  C1        HEAD   77453 AC1        OUTFIL 77455 AC2        SIZE   76066  C1        WORD   76064 AC1
      DBLSPC 75300  C2        HEDPGE 75277  C2        PAGENO 76127  C1        TAB    75216  C1        WRD    76067  C2
      EXCLAM 75213  C1        HYPHEN 75211  C1        PERIOD 75215  C1
0FUNCTION DICTIONARY
      BIN    00000   1        CHBALL 00001   1        CHNCOM 00002   1        COMARG 00003   1        EXIT   00004   1
      .PCOMT 00005   1        .SETUP 00006   1        RUNOFF 00007   1        SETBRK 00010   1
0ABSOLUTE CONSTANTS
 00025 -206022214343     00024 -204751314563     00026 -206047212725     00023 -054666213163     00027 -206062634647
 00021 +000000000024     00020 +000000000002     00016 +000000000000     00017 +000000000001     00022 +233000000000
0STATEMENT DICTIONARY
 00012 TXL -300045000041
0PROGRAM
                 NORMAL MODE IS INTEGER                                             001  LM00007
                 INSERT FILE RCOM                                                   002  LM00008
                 NORMAL MODE IS INTEGER                                             003  LM00004
                 PROGRAM COMMON NOSTOP, NOWAIT, FSTPAG, PRINAM, OUTFIL              004  LM00006
                 PROGRAM COMMON HDLTH, HEAD(360), HDPOS                             005  LM00007
                 PROGRAM COMMON LINE(360)                                           006  LM00008
                 PROGRAM COMMON PGE, PAGENO, PGPOS, FTSW, PGMOD                     007  LM00009
                 PROGRAM COMMON PREFIX(25), PRLTH                                   008  LM00010
                 PROGRAM COMMON RMARG                                               009  LM00011
                 PROGRAM COMMON WRD, SIZE, COUNT, WORD(360)                         010  LM00012
                 PROGRAM COMMON BEGIN, FILL, ADJST, NCHARS, LENGTH                  011  LM00013
                 PROGRAM COMMON LMARG, LINECT, BOTLIN, CNTR, FILSW                  012  LM00014
                 PROGRAM COMMON FLAGSW, DBLSPC, HEDPGE, PIX                         013  LM00015
                 PROGRAM COMMON MROW, TBTLIN, TBTPAG                                014  LM00016
                 PROGRAM COMMON TPGPOS, TFTSW, TPGE, TPRF(25)                       015  LM00017
                 PROGRAM COMMON TPRLTH, THDPOS, TPAGNO, TPGMOD                      016  LM00018
                 PROGRAM COMMON BOTPAG, FLAG(3)                                     017  LM00019
                 PROGRAM COMMON BLANK, BCKSPC, RETURN(3)                            018  LM00020
                 PROGRAM COMMON TAB, PERIOD, QUES, EXCLAM                           019  LM00021
                 PROGRAM COMMON COLON, HYPHEN, NULL                                 020  LM00022
                 BOOLEAN NOSTOP, NOWAIT, FTSW, PGE, OUTFIL                          021  LM00024
                 BOOLEAN ADJST                                                      022  LM00025
                 BOOLEAN WRD, FILL, BEGIN, CNTR, FILSW, FLAGSW                      023  LM00026
                 BOOLEAN DBLSPC, HEDPGE, PIX, TPGE, TFTSW                           024  LM00027
                 VECTOR VALUES FENCE = 777777777777K                                025  LM00009
 00030 TSX +0 07400 4 00006    00014     -3 77777 7 77777
                 VECTOR VALUES NOSTOP = 1B                                          026  LM00013
 77461     +0 00000 0 00001
                 VECTOR VALUES NOWAIT = 0B                                          027  LM00014
 77460     +0 00000 0 00000
                 VECTOR VALUES FSTPAG = 0                                           028  LM00015
 77457     +0 00000 0 00000
                 VECTOR VALUES OUTFIL = 0B                                          029  LM00016
 77455     +0 00000 0 00000
                 SETBRK.(CHNCOM.)                                                   030  LM00021
 00031 TSX +0 07400 4 00010    00032 TXH +3 00000 0 00002
                 PRINAM = COMARG.(1)                                                031  LM00022
 00033 TSX +0 07400 4 00003    00034 TXH +3 00000 0 00017    00035 STO +0 60100 0 77456
                 WHENEVER PRINAM .E. FENCE                                          032  LM00023
 00036 CLA +0 50000 0 77456    00037 SUB +0 40200 0 00014    00040 TNZ -0 10000 0 00064
      BADARG          PRINT COMMENT $0U1S1A1G1E0:$                                  033  LM00024
 00041 TSX +0 07400 4 00005    00042     +0 00000 0 00002    00043     +0 06401 6 20121    00044     +0 12701 2 50035
                      PRINT COMMENT $0 0 0 0 0 0R0U0N0O0F0F0 1N1A1M1E0 0-0P0A0      034  LM00025
                1G0E0 1N0-0 0-0S0T0O0P0-$                                           034  LM00026
 00045 TSX +0 07400 4 00005    00046     +0 00000 0 00013    00047     +0 06000 6 00060    00050     +0 06000 6 00051
 00051     +0 06400 4 50046    00052     +0 02600 2 60060    00053     +0 14501 2 10144    00054     +0 12500 6 00040
 00055     +0 04700 2 10027    00056     +0 02500 6 00145    00057     +0 04000 6 00040    00060     +0 06200 6 30046
 00061     +0 04700 4 06060
                      CHNCOM.(0)                                                    035  LM00027
 00062 TSX +0 07400 4 00002    00063 TXH +3 00000 0 00016
                 END OF CONDITIONAL                                                 036  LM00028
                 THROUGH GETARG, FOR I = 2, 1, COMARG.(I) .E. FENCE                 037  LM00030
                1                              .OR. I .G. 20                        037  LM00031
 00064 CLA +0 50000 0 00020    00065 STO +0 60100 0 00015    00066 TRA +0 02000 0 00072    00067 CLA +0 50000 0 00015
 00070 ADD +0 40000 0 00017    00071 STO +0 60100 0 00015    00072 CLA +0 50000 0 00015    00073 SUB +0 40200 0 00021
 00074 TZE +0 10000 0 00076    00075 TPL +0 12000 0 00206    00076 TSX +0 07400 4 00003    00077 TXH +3 00000 0 00015
 00100 SUB +0 40200 0 00014    00101 TZE +0 10000 0 00206
                      ARG = COMARG.(I)                                              038  LM00032
 00102 TSX +0 07400 4 00003    00103 TXH +3 00000 0 00015    00104 STO +0 60100 0 00013
                      WHENEVER ARG .E. $  STOP$                                     039  LM00034
 00105 CLA +0 50000 0 00013    00106 SUB +0 40200 0 00027    00107 TNZ -0 10000 0 00113
                           NOSTOP = 0B                                              040  LM00035
 00110 CLA +0 50000 0 00016    00111 STO +0 60100 0 77461
                      OR WHENEVER ARG .E. $NOWAIT$                                  041  LM00037
 00112 TRA +0 02000 0 00205    00113 CLA +0 50000 0 00013    00114 SUB +0 40200 0 00023    00115 TNZ -0 10000 0 00123
                           NOWAIT = 1B                                              042  LM00038
 00116 CLA +0 50000 0 00017    00117 STO +0 60100 0 77460
                           NOSTOP = 1B                                              043  LM00039
 00120 CLA +0 50000 0 00017    00121 STO +0 60100 0 77461
                      OR WHENEVER ARG .E. $  PAGE$                                  044  LM00041
 00122 TRA +0 02000 0 00205    00123 CLA +0 50000 0 00013    00124 SUB +0 40200 0 00026    00125 TNZ -0 10000 0 00147
                           ARG = COMARG.(I+1)                                       045  LM00042
 00126 CLA +0 50000 0 00015    00127 ADD +0 40000 0 00017    00130 STO +0 60100 0 00212    00131 TSX +0 07400 4 00003
 00132 TXH +3 00000 0 00212    00133 STO +0 60100 0 00013
                           WHENEVER ARG .E. FENCE, TRANSFER TO BADARG               046  LM00043
 00134 CLA +0 50000 0 00013    00135 SUB +0 40200 0 00014    00136 TNZ -0 10000 0 00140    00137 TRA +0 02000 0 00012
                           I = I + 1                                                047  LM00044
 00140 CLA +0 50000 0 00015    00141 ADD +0 40000 0 00017    00142 STO +0 60100 0 00015
                           FSTPAG = BIN.(ARG)                                       048  LM00045
 00143 TSX +0 07400 4 00000    00144 TXH +3 00000 0 00013    00145 STO +0 60100 0 77457
                      OR WHENEVER ARG .E. $ PRINT$                                  049  LM00047
 00146 TRA +0 02000 0 00205    00147 CLA +0 50000 0 00013    00150 SUB +0 40200 0 00024    00151 TNZ -0 10000 0 00157
                           OUTFIL = 1B                                              050  LM00048
 00152 CLA +0 50000 0 00017    00153 STO +0 60100 0 77455
                           NOWAIT = 1B                                              051  LM00049
 00154 CLA +0 50000 0 00017    00155 STO +0 60100 0 77460
                      OR WHENEVER ARG .E. $  BALL$                                  052  LM00051
 00156 TRA +0 02000 0 00205    00157 CLA +0 50000 0 00013    00160 SUB +0 40200 0 00025    00161 TNZ -0 10000 0 00204
                           ARG = COMARG.(I+1)                                       053  LM00052
 00162 CLA +0 50000 0 00015    00163 ADD +0 40000 0 00017    00164 STO +0 60100 0 00212    00165 TSX +0 07400 4 00003
 00166 TXH +3 00000 0 00212    00167 STO +0 60100 0 00013
                           WHENEVER ARG .E. FENCE, TRANSFER TO BADARG               054  LM00053
 00170 CLA +0 50000 0 00013    00171 SUB +0 40200 0 00014    00172 TNZ -0 10000 0 00174    00173 TRA +0 02000 0 00012
                           I = I + 1                                                055  LM00054
 00174 CLA +0 50000 0 00015    00175 ADD +0 40000 0 00017    00176 STO +0 60100 0 00015
                           CHBALL.(ARG,2,BADARG)                                    056  LM00055
 00177 TSX +0 07400 4 00001    00200 TXH +3 00000 0 00013    00201 TXH +3 00000 0 00020    00202 TXH +3 00000 0 00012
                      OTHERWISE                                                     057  LM00057
 00203 TRA +0 02000 0 00205
                           TRANSFER TO BADARG                                       058  LM00058
 00204 TRA +0 02000 0 00012
      GETARG          END OF CONDITIONAL                                            059  LM00060
 00205 TRA +0 02000 0 00067
                 RUNOFF.                                                            060  LM00062
 00206 TSX +0 07400 4 00007
                 CHNCOM.(0)                                                         061  LM00063
 00207 TSX +0 07400 4 00002    00210 TXH +3 00000 0 00016
                 END OF PROGRAM                                                     062  LM00065
 00211 TSX +0 07400 4 00004
