


  MAIL   BCD 05/12/69 2020.2   15359         00000
1     MAD PROGRAM LISTING ... ... ...                 FILE   MAIL0   MAD            03/18/69    1011.8
-
      MAIL       ...MAIL COMMAND                                                                       LM00001
                  ... LAST MODIFIED 3/17/69 BY R. ROACH                                                LM00002
                 ...                                                                                   LM00003
                 ...                                                                                   LM00004
                  GCLS.(A,0)                                                                      *001 LM00005
                                                                                                       LM00006
                  WHENEVER A(1).E.FENCE.OR.A(2).E.FENCE.OR.A(3).E.FENCE                           *002 LM00007
                  PRFULL.($'R'1INSTRUCTIONS:$)                                                    *003 LM00008
                  PRFULL.($ '4MAIL NAME1 NAME2 PROB1 PROG1 PROB2 PROG2 ...$)                      *004 LM00009
                  PRFULL.($ WHERE '=NAME1 NAME2'= IS THE FILE TO BE MAILED,$)                     *005 LM00010
                  PRFULL.($ AND '=PROBN PROGN'= ARE DIRECTORIES TO WHICH '8$,                     *006 LM00011
                1  $IT IS TO BE SENT.'B$)                                                         *006 LM00012
                  CHNCOM.(0)                                                                      *007 LM00013
                  END OF CONDITIONAL                                                              *008 LM00014
                                                                                                       LM00015
                  DIMENSION ME(2)                                                                 *009 LM00016
                  ATTNAM.(ME(2)...3)                                                              *010 LM00017
                  FERRTN.(DSKER.)                                                                 *011 LM00018
                  USER = GLOC.(COMLOC.($USER$))                                                   *012 LM00019
                  UFDNAM = BZ57.(GLOC.(COMLOC.($UFDNM$)+USER))                                    *013 LM00020
                  ATTACH.(ME(2),ME(1))                                                            *014 LM00021
                  GETBUF.(B1,432)                                                                 *015 LM00022
                  GETBUF.(B2,432)                                                                 *016 LM00023
                                                                                                       LM00024
                  FSTATE.(A(1),A(2),Z(7)...8)                                                     *017 LM00025
                  LTH = Z(7)                                                                      *018 LM00026
                                                                                                       LM00027
                  WHENEVER LTH.G.432                                                              *019 LM00028
                  PRFULL.(RX,A(1)...2,$ MUST BE LESS THAN 1 RECORD LONG.'B$)                      *020 LM00029
                       CHNCOM.(0)                                                                 *021 LM00030
                       VECTOR VALUES RX = $'R'X'8$                                                *022 LM00031
                  OR WHENEVER Z(6).A.10K.NE.0.OR.Z(6).A.20K.NE.0.AND.Z.A.777777K.NE.ME            *023 LM00032
                       PRFULL.(RX,A(1)...2,$''S MODE PREVENTS READING.'B$)                        *024 LM00033
                       CHNCOM.(0)                                                                 *025 LM00034
                  END OF CONDITIONAL                                                              *026 LM00035
                                                                                                       LM00036
                  OPEN.($R$,A(1),A(2))                                                            *027 LM00037
                  RDFILE.(A(1),A(2),1,BUFF(432)...LTH)                                            *028 LM00038
                  CLOSE.(A(1),A(2))                                                               *029 LM00039
                                                                                                       LM00040
                  WHENEVER BUFF(432).RS.18.NE. 777777K                                            *030 LM00041
                       PRFULL.(RX,A(1)...2,$ MUST BE LINE MARKED.'B$)                             *031 LM00042
                       CHNCOM.(0)                                                                 *032 LM00043
                  END OF CONDITIONAL                                                              *033 LM00044
                                                                                                       LM00045
                  WHOAMI.(PROB...2)                                                               *034 LM00046
                  DIMENSION PROG(1)                                                               *035 LM00047
                  EQUIVALENCE (PROB,PROG(1))                                                      *036 LM00048
                  PROB1 = LJUST.(PROB)                                                            *037 LM00049
                  PROG1 = BZ57.(PROG)                                                             *038 LM00050
                  PROBN = BZ57.(PROB)                                                             *039 LM00051
                  GETTM.(DATE,TIME)                                                               *040 LM00052
                  LTH = LTH+11                                                                    *041 LM00053
                  CINDEX = 3                                                                      *042 LM00054
                                                                                                       LM00055
      CKMETA      WHENEVER A(CINDEX).E.$(LIST)$                                                   *043 LM00056
                       LIST=1B                                                                    *044 LM00057
                       N1 = A(CINDEX+1)                                                           *045 LM00058
                       N2 = A(CINDEX+2)                                                           *046 LM00059
                       BFOPEN.($R$,N1,N2,B1(B1+432),-0,-0,DSKER.)                                 *047 LM00060
                       GTWDBX.(N1,N2)                                                             *048 LM00061
                       CINDEX = CINDEX + 3                                                        *049 LM00062
                       TRANSFER TO CKMETA                                                         *050 LM00063
                  OR WHENEVER A(CINDEX).E.$     *$.AND.A(CINDEX+1).E.$     *$                     *051 LM00064
                       CINDEX = CINDEX+2                                                          *052 LM00065
                       USRCHK.(PROB,PROG,CKMETA)                                                  *053 LM00066
                       BB=2                                                                       *054 LM00067
                       TRANSFER TO SRCH                                                           *055 LM00068
                  OR WHENEVER A(CINDEX).E.$(URGT)$                                                *056 LM00069
                       CINDEX = CINDEX+1                                                          *057 LM00070
                       USRCHK.(PROB,PROG,CKMETA)                                                  *058 LM00071
                       BOX =   MAIL                                                               *059 LM00072
                       MAIL = $URGENT$                                                            *060 LM00073
                       TRANSFER TO CKMETA                                                         *061 LM00074
                  END OF CONDITIONAL                                                              *062 LM00075
                                                                                                       LM00076
      GETARG      ARGS.(ALL)                                                                      *063 LM00077
                  TRANSFER TO GETARG                                                              *064 LM00078
                                                                                                       LM00079
      ALL         CONTINUE                                                                        *065 LM00080
                                                                                                       LM00081
                  THROUGH ASEND, FOR I=0,2,I.GE.AA                                                *066 LM00082
      ASEND       SEND.(APRG(I),APRG(I+1))                                                        *067 LM00083
                                                                                                       LM00084
      SRCH        WHENEVER BB.G.0                                                                 *068 LM00085
                       OPNMF.                                                                     *069 LM00086
      SLOOP            RDMF.(X,Y)                                                                 *070 LM00087
                       THROUGH BSEND,FOR C=0,2,C.G.BB                                             *071 LM00088
                       WHENEVER X.E.BPRG(C).OR.BPRG(C).E.$ALLALL$                                 *072 LM00089
                       WHENEVER Y.E.BPRG(C+1).OR.BPRG(C+1).E.$ALLALL$,SEND.(X,Y)                  *073 LM00090
                       END OF CONDITIONAL                                                         *074 LM00091
      BSEND            CONTINUE                                                                   *075 LM00092
                       TRANSFER TO SLOOP                                                          *076 LM00093
      EX               BFCLOS.(MFD,FILE)                                                          *077 LM00094
                  END OF CONDITIONAL                                                              *078 LM00095
                                                                                                       LM00096
                  CHNCOM.(0)                                                                      *079 LM00097
                                                                                                       LM00098
                                                                                                       LM00099
                  NORMAL MODE IS INTEGER                                                          *080 LM00100
                  DIMENSION A(20),APRG(202),BPRG(22)                                              *081 LM00101
                  DIMENSION B1(0), B2(0)                                                          *082 LM00102
                  DIMENSION Z(7)                                                                  *083 LM00103
                  BOOLEAN LIST                                                                    *084 LM00104
                  VECTOR VALUES MFD=$M.F.D.$                                                      *085 LM00105
                  VECTOR VALUES UFD=$U.F.D.$                                                      *086 LM00106
                  VECTOR VALUES FILE=$(FILE)$                                                     *087 LM00107
                  VECTOR VALUES MAIL=$  MAIL$                                                     *088 LM00108
                  VECTOR VALUES BOX=$   BOX$                                                      *089 LM00109
                  VECTOR VALUES BPRG = $ALLALL$, $ALLALL$                                         *090 LM00110
                  VECTOR VALUES AA = 0                                                            *091 LM00111
                  VECTOR VALUES BB = 0                                                            *092 LM00112
                  VECTOR VALUES FENCE=777777777777K                                               *093 LM00113
                                                                                                       LM00114
                  DIMENSION BUFF(443)                                                             *094 LM00115
                  EQUIVALENCE (BUFF(443),LM)                                                      *095 LM00116
                  VECTOR VALUES LM = 777777000012K                                                *096 LM00117
                  VECTOR VALUES BUFF(442) = $ FROM $                                              *097 LM00118
                  EQUIVALENCE (BUFF(441),PROB1), (BUFF(440),PROG1)                                *098 LM00119
                  VECTOR VALUES BUFF(439) = 603145605757K                                         *099 LM00120
                  EQUIVALENCE (BUFF(438),PROBN)                                                   *100 LM00121
                  VECTOR VALUES BUFF(437) = 605757575757K                                         *101 LM00122
                  EQUIVALENCE (BUFF(436),UFDNAM)                                                  *102 LM00123
                  VECTOR VALUES BUFF(435) = 605721636057K                                         *103 LM00124
                  EQUIVALENCE (BUFF(434),DATE), (BUFF(433),TIME)                                  *104 LM00125
                                                                                                       LM00126
                                                                                                       LM00127
                                                                                                       LM00128
                  INTERNAL FUNCTION(X,Y)                                                          *105 LM00129
                  ENTRY TO USRCHK.                                                                *106 LM00130
                                                                                                       LM00131
                  WHENEVER X.NE.$ M1416$ .OR. (Y.NE.$   385$ .AND. Y                              *107 LM00132
                1  .NE. $  4301$ .AND. Y .NE. $  2962$ .AND. Y .NE.                               *107 LM00133
                2  $  3845$)                                                                      *107 LM00134
                3  , ERROR RETURN                                                                 *107 LM00135
                  FUNCTION RETURN                                                                 *108 LM00136
                  END OF FUNCTION                                                                 *109 LM00137
                                                                                                       LM00138
                                                                                                       LM00139
                  INTERNAL FUNCTION(THRU)                                                         *110 LM00140
                  ENTRY TO ARGS.                                                                  *111 LM00141
                  STATEMENT LABEL THRU                                                            *112 LM00142
                                                                                                       LM00143
                  WHENEVER LIST                                                                   *113 LM00144
                       GTWD.(X,THRU)                                                              *114 LM00145
                       GTWD.(Y,THRU)                                                              *115 LM00146
                  OTHERWISE                                                                       *116 LM00147
                       X=A(CINDEX)                                                                *117 LM00148
                       Y=A(CINDEX+1)                                                              *118 LM00149
                       WHENEVER X.E.FENCE.OR.Y.E.FENCE,TRANSFER TO THRU                           *119 LM00150
                       CINDEX=CINDEX+2                                                            *120 LM00151
                  END OF CONDITIONAL                                                              *121 LM00152
                                                                                                       LM00153
                  WHENEVER X.E.$     *$                                                           *122 LM00154
                       BPRG(BB)=$ALLALL$                                                          *123 LM00155
                       BPRG(BB+1)=Y.A.777777777717K                                               *124 LM00156
                       BB=BB+2                                                                    *125 LM00157
                  OR WHENEVER Y.E.$     *$                                                        *126 LM00158
                       BPRG(BB)=REPROB.(X)                                                        *127 LM00159
                       BPRG(BB+1)=$ALLALL$                                                        *128 LM00160
                       BB=BB+2                                                                    *129 LM00161
                  OTHERWISE                                                                       *130 LM00162
                       APRG(AA)=REPROB.(X)                                                        *131 LM00163
                       APRG(AA+1)=Y.A.777777777717K                                               *132 LM00164
                       AA=AA+2                                                                    *133 LM00165
                  END OF CONDITIONAL                                                              *134 LM00166
                                                                                                       LM00167
                  WHENEVER AA.G.200.OR.BB.G.20                                                    *135 LM00168
                       PRINT COMMENT $TOO MANY ADDRESSEES$                                        *136 LM00169
                       TRANSFER TO THRU                                                           *137 LM00170
                  END OF CONDITIONAL                                                              *138 LM00171
                                                                                                       LM00172
                  FUNCTION RETURN                                                                 *139 LM00173
                  END OF FUNCTION                                                                 *140 LM00174
                                                                                                       LM00175
                                                                                                       LM00176
                  INTERNAL FUNCTION                                                               *141 LM00177
                  ENTRY TO OPNMF.                                                                 *142 LM00178
                                                                                                       LM00179
                  ATTACH.(MFD,FILE)                                                               *143 LM00180
                  BFOPEN.($R$,MFD,FILE,B2(B2+432),-0,-0,DSKER.)                                   *144 LM00181
                  ATTACH.(ME(2),ME(1))                                                            *145 LM00182
                  BFREAD.(MFD,FILE,Z(3)...3,DSKER.,-0,DSKER.)                                     *146 LM00183
                  FUNCTION RETURN                                                                 *147 LM00184
                  END OF FUNCTION                                                                 *148 LM00185
                                                                                                       LM00186
                                                                                                       LM00187
                  INTERNAL FUNCTION(X,Y)                                                          *149 LM00188
                  ENTRY TO RDMF.                                                                  *150 LM00189
      RR          BFREAD.(MFD,FILE,Z(7)...7,EX,-0,DSKER.)                                         *151 LM00190
                  X=Z(7)                                                                          *152 LM00191
                  Y=Z(6)                                                                          *153 LM00192
                  WHENEVER X.E.0.OR.Y.E.0.OR.X.E.UFD,TRANSFER TO RR                               *154 LM00193
                  WHENEVER Y.RS.12.E.$00CMFL$,TRANSFER TO RR                                      *155 LM00194
                  FUNCTION RETURN                                                                 *156 LM00195
                  END OF FUNCTION                                                                 *157 LM00196
                                                                                                       LM00197
                                                                                                       LM00198
                  INTERNAL FUNCTION(M,N)                                                          *158 LM00199
                  ENTRY TO SEND.                                                                  *159 LM00200
                                                                                                       LM00201
                  Z=SMAIL.(M,N,LM,LTH,MAIL,BOX)                                                   *160 LM00202
                  WHENEVER Z.E.0                                                                  *161 LM00203
                       FUNCTION RETURN                                                            *162 LM00204
                  OR WHENEVER Z.E.4                                                               *163 LM00205
                       PRFULL.(RX,M,RX,N,$ NOT FOUND.'B$)                                         *164 LM00206
                  OR WHENEVER Z.E.3                                                               *165 LM00207
                       PRFULL.(RX,M,RX,N,$ DOES NOT WANT MAIL.'B$)                                *166 LM00208
                  OR WHENEVER Z.E.2                                                               *167 LM00209
                       PRFULL.(RX,M,RX,N,$''S MAIL BOX IS BUSY.'B$)                               *168 LM00210
                  OTHERWISE                                                                       *169 LM00211
                       PRFULL.($'R DISK ERROR SENDING TO'8$,M,N,$'B'8$)                           *170 LM00212
                  END OF CONDITIONAL                                                              *171 LM00213
                                                                                                       LM00214
                  FUNCTION RETURN                                                                 *172 LM00215
                  END OF FUNCTION                                                                 *173 LM00216
                                                                                                       LM00217
                  END OF PROGRAM                                                                  *174 LM00218
1MAD PROGRAM,TYPE NOV 1963      (ALL NUMBERS ARE OCTAL)
0TOTAL LOCATIONS   03000 TRANSFER VECTOR LENGTH  00035 PROGRAM BEGINS    01533
0VARIABLE STORAGE (A=ARRAY,C=COMMON,E=ERASABLE,DIGIT=MODE)
      AA     00750 A 1        BPRG   01343 A 1        FILE   01347 A 1        N1     01360   1        SLOOP  00746   4
      ALL    00741   4        BSEND  00042   4        GETARG 00744   4        N2     01361   1        SRCH   00747   4
      APRG   01263 A 1        BUFF   00740 A 1        I      01350   1        PROB1  00047   1        TIME   00057   1
      A      01310 A 1        CINDEX 01344   1        LIST   01351   2        PROBN  00052   1        UFDNAM 00054   1
      ASEND  00042   4        CKMETA 00742   4        LM     00045 A 1        PROB   00043   1        UFD    01363 A 1
      B1     01311 A 1        C      01345   1        LTH    01352   1        PROG1  00050   1        USER   01364   1
      B2     01312 A 1        DATE   00056   1        MAIL   01353 A 1        PROG   00044 A 1        X      01365   1
      BB     01313 A 1        EX     00743   4        ME     01356 A 1        RR     00745   4        Y      01366   1
      BOX    01314 A 1        FENCE  01346 A 1        MFD    01357 A 1        RX     01362 A 1        Z      01376 A 1
0FUNCTION DICTIONARY
      ATTACH 00000   1        ATTNAM 00001   1        BFCLOS 00002   1        BFOPEN 00003   1        BFREAD 00004   1
      BZ57   00005   1        CHNCOM 00006   1        CLOSE  00007   1        COMLOC 00010   1        DSKER  00011   1
      ERROR  00012   1        EXIT   00013   1        FERRTN 00014   1        FSTATE 00015   1        GCLS   00016   1
      GETBUF 00017   1        GETTM  00020   1        GLOC   00021   1        GTWDBX 00022   1        GTWD   00023   1
      .PCOMT 00024   1        .SETUP 00025   1        LJUST  00026   1        OPEN   00027   1        PRFULL 00030   1
      RDFILE 00031   1        REPROB 00032   1        SMAIL  00033   1        WHOAMI 00034   1        ARGS   00035   1
      OPNMF  00036   1        RDMF   00037   1        SEND   00040   1        USRCHK 00041   1
0ABSOLUTE CONSTANTS
 01432 +142214106060     01426 +141060606060     01454 +314527606346     01472 -116062254524     01457 -026025515146
 01434 +145160243162     01521 -227033142260     01501 -203162602264     01453 +314360224667     01430 +141462604421
 01460 -033314226060     01464 -056360442131     01463 -054663606621     01500 -202446256260     01467 -066445243314
 01504 -204546636026     01403 +000000000004     01416 +000023442643     01407 +000000000014     01404 +000000000007
 01413 +000000000310     01412 +000000000024     01532 -377777777717     01502 -204401040106     01511 -206060031005
 01510 -206004030001     01506 -206002110602     01507 -206003100405     01436 +214343214343     01525 -245127254563
 01531 -346451276334     01512 -206060606054     01530 -344331626334     01406 +000000000013     01446 +252433142260
 01447 +256044215142     01440 +222560433145     01411 +000000000022     01471 -116060606060     01451 +273314226060
 01470 -112521243145     01527 -252545636260     01443 +242560475125     01431 +141462604446     01410 +000000000020
 01415 +000000777777     01462 -052733142260     01465 -065124604346     01473 -200160512523     01516 -226063302145
 01437 +222560432562     01503 -204464626360     01401 +000000000002     01405 +000000000010     01414 +000000000660
 01524 -242624454460     01526 -246225516060     01402 +000000000003     01441 +226060606060     01515 -222545633314
 01523 -234660222560     01456 +316360316260     01452 +312330601410     01513 -206346606630     01522 -234651312562
 01477 -202431512523     01427 +141360215125     01505 -204751462745     01425 +134751462245     01476 -202145246014
 01435 +213143252473     01466 -066022256044     01450 +263143256063     01517 -226063302560     01445 +250214136031
 01444 +250160452144     01475 -201413452144     01514 -206630255125     01422 +026033333360     01424 +026047514627
 01420 +016047514622     01421 +016047514627     01423 +026047514622     01417 +016045214425     01461 -036045214425
 01474 -201404442131     01455 +314645623560     01520 -226351642363     01433 +145114013145     01377 +000000000000
 01400 +000000000001     01442 +233000000000
0STATEMENT DICTIONARY
 00741 TXL -302135002135       00742 TXL -302020002014       00743 TXL -302242002237       00744 TXL -302134002132
 00745 TXL -302573002562       00746 TXL -302174002171       00747 TXL -302170002164
0PROGRAM
                 GCLS.(A,0)                                                         001  LM00005
 01533 TSX +0 07400 4 00025    01534 TSX +0 07400 4 00016    01535 TXH +3 00000 0 01310    01536 TXH +3 00000 0 01377
                 W'R A(1).E.FENCE.OR.A(2).E.FENCE.OR.A(3).E.FENCE                   002  LM00007
 01537 CLA +0 50000 0 01305    01540 SUB +0 40200 0 01346    01541 TZE +0 10000 0 01550    01542 CLA +0 50000 0 01306
 01543 SUB +0 40200 0 01346    01544 TZE +0 10000 0 01550    01545 CLA +0 50000 0 01307    01546 SUB +0 40200 0 01346
 01547 TNZ -0 10000 0 01615
                 PRFULL.($'R'1INSTRUCTIONS:$)                                       003  LM00008
 01550 TSX +0 07400 4 00030    01551 TXH +3 00000 0 01433    01552 TXH +3 00000 0 01520    01553 TXH +3 00000 0 01455
                 PRFULL.($ '4MAIL NAME1 NAME2 PROB1 PROG1 PROB2 PROG2 ...$)         004  LM00009
 01554 TSX +0 07400 4 00030    01555 TXH +3 00000 0 01474    01556 TXH +3 00000 0 01461    01557 TXH +3 00000 0 01417
 01560 TXH +3 00000 0 01423    01561 TXH +3 00000 0 01421    01562 TXH +3 00000 0 01420    01563 TXH +3 00000 0 01424
 01564 TXH +3 00000 0 01422
                 PRFULL.($ WHERE '=NAME1 NAME2'= IS THE FILE TO BE MAILED,$)        005  LM00010
 01565 TSX +0 07400 4 00030    01566 TXH +3 00000 0 01514    01567 TXH +3 00000 0 01475    01570 TXH +3 00000 0 01444
 01571 TXH +3 00000 0 01445    01572 TXH +3 00000 0 01517    01573 TXH +3 00000 0 01450    01574 TXH +3 00000 0 01466
 01575 TXH +3 00000 0 01435
                 PRFULL.($ AND '=PROBN PROGN'= ARE DIRECTORIES TO WHICH '8$,        006  LM00011
                1 $IT IS TO BE SENT.'B$)                                            006  LM00012
 01576 TSX +0 07400 4 00030    01577 TXH +3 00000 0 01476    01600 TXH +3 00000 0 01425    01601 TXH +3 00000 0 01505
 01602 TXH +3 00000 0 01427    01603 TXH +3 00000 0 01477    01604 TXH +3 00000 0 01522    01605 TXH +3 00000 0 01513
 01606 TXH +3 00000 0 01452    01607 TXH +3 00000 0 01456    01610 TXH +3 00000 0 01523    01611 TXH +3 00000 0 01515
 01612 TXH +3 00000 0 01441
                 CHNCOM.(0)                                                         007  LM00013
 01613 TSX +0 07400 4 00006    01614 TXH +3 00000 0 01377
                 E'L                                                                008  LM00014
                 D'N ME(2)                                                          009  LM00016
                 ATTNAM.(ME(2)...3)                                                 010  LM00017
 01615 TSX +0 07400 4 00001    01616 TIX +2 01402 0 01354
                 FERRTN.(DSKER.)                                                    011  LM00018
 01617 TSX +0 07400 4 00014    01620 TXH +3 00000 0 00011
                 USER = GLOC.(COMLOC.($USER$))                                      012  LM00019
 01621 TSX +0 07400 4 00010    01622 TXH +3 00000 0 01526    01623 STO +0 60100 0 02774    01624 TSX +0 07400 4 00021
 01625 TXH +3 00000 0 02774    01626 STO +0 60100 0 01364
                 UFDNAM = BZ57.(GLOC.(COMLOC.($UFDNM$)+USER))                       013  LM00020
 01627 TSX +0 07400 4 00010    01630 TXH +3 00000 0 01524    01631 ADD +0 40000 0 01364    01632 STO +0 60100 0 02774
 01633 TSX +0 07400 4 00021    01634 TXH +3 00000 0 02774    01635 STO +0 60100 0 02774    01636 TSX +0 07400 4 00005
 01637 TXH +3 00000 0 02774    01640 STO +0 60100 0 00054
                 ATTACH.(ME(2),ME(1))                                               014  LM00021
 01641 TSX +0 07400 4 00000    01642 TXH +3 00000 0 01354    01643 TXH +3 00000 0 01355
                 GETBUF.(B1,432)                                                    015  LM00022
 01644 TSX +0 07400 4 00017    01645 TXH +3 00000 0 01311    01646 TXH +3 00000 0 01414
                 GETBUF.(B2,432)                                                    016  LM00023
 01647 TSX +0 07400 4 00017    01650 TXH +3 00000 0 01312    01651 TXH +3 00000 0 01414
                 FSTATE.(A(1),A(2),Z(7)...8)                                        017  LM00025
 01652 TSX +0 07400 4 00015    01653 TXH +3 00000 0 01307    01654 TXH +3 00000 0 01306    01655 TIX +2 01405 0 01367
                 LTH = Z(7)                                                         018  LM00026
 01656 CLA +0 50000 0 01367    01657 STO +0 60100 0 01352
                 W'R LTH.G.432                                                      019  LM00028
 01660 CLA +0 50000 0 01352    01661 SUB +0 40200 0 01414    01662 TZE +0 10000 0 01700    01663 TMI -0 12000 0 01700
                 PRFULL.(RX,A(1)...2,$ MUST BE LESS THAN 1 RECORD LONG.'B$)         020  LM00029
 01664 TSX +0 07400 4 00030    01665 TXH +3 00000 0 01362    01666 TIX +2 01401 0 01307    01667 TXH +3 00000 0 01503
 01670 TXH +3 00000 0 01437    01671 TXH +3 00000 0 01516    01672 TXH +3 00000 0 01473    01673 TXH +3 00000 0 01465
 01674 TXH +3 00000 0 01462
                      CHNCOM.(0)                                                    021  LM00030
 01675 TSX +0 07400 4 00006    01676 TXH +3 00000 0 01377
                      V'S RX = $'R'X'8$                                             022  LM00031
 01362     +1 45114 6 71410
                 O'R Z(6).A.10K.NE.0.OR.Z(6).A.20K.NE.0.AND.Z.A.777777K.NE.ME       023  LM00032
 01677 TRA +0 02000 0 01734    01700 CAL -0 50000 0 01376    01701 ANA -0 32000 0 01415    01702 SLW +0 60200 0 02774
 01703 CLA +0 50000 0 02774    01704 SUB +0 40200 0 01356    01705 TZE +0 10000 0 01714    01706 CAL -0 50000 0 01370
 01707 ANA -0 32000 0 01410    01710 SLW +0 60200 0 02774    01711 CLA +0 50000 0 02774    01712 SUB +0 40200 0 01377
 01713 TNZ -0 10000 0 01722    01714 CAL -0 50000 0 01370    01715 ANA -0 32000 0 01405    01716 SLW +0 60200 0 02774
 01717 CLA +0 50000 0 02774    01720 SUB +0 40200 0 01377    01721 TZE +0 10000 0 01734
                      PRFULL.(RX,A(1)...2,$''S MODE PREVENTS READING.'B$)           024  LM00033
 01722 TSX +0 07400 4 00030    01723 TXH +3 00000 0 01362    01724 TIX +2 01401 0 01307    01725 TXH +3 00000 0 01431
 01726 TXH +3 00000 0 01443    01727 TXH +3 00000 0 01527    01730 TXH +3 00000 0 01470    01731 TXH +3 00000 0 01451
                      CHNCOM.(0)                                                    025  LM00034
 01732 TSX +0 07400 4 00006    01733 TXH +3 00000 0 01377
                 E'L                                                                026  LM00035
                 OPEN.($R$,A(1),A(2))                                               027  LM00037
 01734 TSX +0 07400 4 00027    01735 TXH +3 00000 0 01471    01736 TXH +3 00000 0 01307    01737 TXH +3 00000 0 01306
                 RDFILE.(A(1),A(2),1,BUFF(432)...LTH)                               028  LM00038
 01740 TSX +0 07400 4 00031    01741 TXH +3 00000 0 01307    01742 TXH +3 00000 0 01306    01743 TXH +3 00000 0 01400
 01744 TIX +2 01352 0 00060
                 CLOSE.(A(1),A(2))                                                  029  LM00039
 01745 TSX +0 07400 4 00007    01746 TXH +3 00000 0 01307    01747 TXH +3 00000 0 01306
                 W'R BUFF(432).RS.18.NE. 777777K                                    030  LM00041
 01750 CAL -0 50000 0 01411    01751 STA +0 62100 0 01753    01752 CAL -0 50000 0 00060    01753 LGR -0 76500 0 00000
 01754 SLW +0 60200 0 02774    01755 CLA +0 50000 0 02774    01756 SUB +0 40200 0 01415    01757 TZE +0 10000 0 01771
                      PRFULL.(RX,A(1)...2,$ MUST BE LINE MARKED.'B$)                031  LM00042
 01760 TSX +0 07400 4 00030    01761 TXH +3 00000 0 01362    01762 TIX +2 01401 0 01307    01763 TXH +3 00000 0 01503
 01764 TXH +3 00000 0 01440    01765 TXH +3 00000 0 01447    01766 TXH +3 00000 0 01446
                      CHNCOM.(0)                                                    032  LM00043
 01767 TSX +0 07400 4 00006    01770 TXH +3 00000 0 01377
                 E'L                                                                033  LM00044
                 WHOAMI.(PROB...2)                                                  034  LM00046
 01771 TSX +0 07400 4 00034    01772 TIX +2 01401 0 00043
                 D'N PROG(1)                                                        035  LM00047
                 E'E (PROB,PROG(1))                                                 036  LM00048
                 PROB1 = LJUST.(PROB)                                               037  LM00049
 01773 TSX +0 07400 4 00026    01774 TXH +3 00000 0 00043    01775 STO +0 60100 0 00047
                 PROG1 = BZ57.(PROG)                                                038  LM00050
 01776 TSX +0 07400 4 00005    01777 TXH +3 00000 0 00044    02000 STO +0 60100 0 00050
                 PROBN = BZ57.(PROB)                                                039  LM00051
 02001 TSX +0 07400 4 00005    02002 TXH +3 00000 0 00043    02003 STO +0 60100 0 00052
                 GETTM.(DATE,TIME)                                                  040  LM00052
 02004 TSX +0 07400 4 00020    02005 TXH +3 00000 0 00056    02006 TXH +3 00000 0 00057
                 LTH = LTH+11                                                       041  LM00053
 02007 CLA +0 50000 0 01352    02010 ADD +0 40000 0 01406    02011 STO +0 60100 0 01352
                 CINDEX = 3                                                         042  LM00054
 02012 CLA +0 50000 0 01402    02013 STO +0 60100 0 01344
      CKMETA     W'R A(CINDEX).E.$(LIST)$                                           043  LM00056
 02014 LXA +0 53400 1 01344    02015 CLA +0 50000 1 01310    02016 SUB +0 40200 0 01530    02017 TNZ -0 10000 0 02065
                      LIST=1B                                                       044  LM00057
 02020 CLA +0 50000 0 01400    02021 STO +0 60100 0 01351
                      N1 = A(CINDEX+1)                                              045  LM00058
 02022 CLA +0 50000 0 01344    02023 ADD +0 40000 0 01400    02024 PAX +0 73400 2 00000    02025 CLA +0 50000 2 01310
 02026 STO +0 60100 0 01360
                      N2 = A(CINDEX+2)                                              046  LM00059
 02027 CLA +0 50000 0 01344    02030 ADD +0 40000 0 01401    02031 PAX +0 73400 2 00000    02032 CLA +0 50000 2 01310
 02033 STO +0 60100 0 01361
                      BFOPEN.($R$,N1,N2,B1(B1+432),-0,-0,DSKER.)                    047  LM00060
 02034 CLS +0 50200 0 01377    02035 STO +0 60100 0 02774    02036 CLS +0 50200 0 01377    02037 STO +0 60100 0 02775
 02040 CLA +0 50000 0 01311    02041 ADD +0 40000 0 01414    02042 SUB +0 40200 0 02043    02043 TXH +3 00000 0 01311
 02044 STA +0 62100 0 02051    02045 TSX +0 07400 4 00003    02046 TXH +3 00000 0 01471    02047 TXH +3 00000 0 01360
 02050 TXH +3 00000 0 01361    02051 TXH +3 00000 0 00000    02052 TXH +3 00000 0 02775    02053 TXH +3 00000 0 02774
 02054 TXH +3 00000 0 00011
                      GTWDBX.(N1,N2)                                                048  LM00061
 02055 TSX +0 07400 4 00022    02056 TXH +3 00000 0 01360    02057 TXH +3 00000 0 01361
                      CINDEX = CINDEX + 3                                           049  LM00062
 02060 CLA +0 50000 0 01344    02061 ADD +0 40000 0 01402    02062 STO +0 60100 0 01344
                      T'O CKMETA                                                    050  LM00063
 02063 TRA +0 02000 0 00742
                 O'R A(CINDEX).E.$     *$.AND.A(CINDEX+1).E.$     *$                051  LM00064
 02064 TRA +0 02000 0 02132    02065 CLA +0 50000 0 01344    02066 ADD +0 40000 0 01400    02067 PAX +0 73400 1 00000
 02070 CLA +0 50000 1 01310    02071 SUB +0 40200 0 01512    02072 TNZ -0 10000 0 02112    02073 LXA +0 53400 1 01344
 02074 CLA +0 50000 1 01310    02075 SUB +0 40200 0 01512    02076 TNZ -0 10000 0 02112
                      CINDEX = CINDEX+2                                             052  LM00065
 02077 CLA +0 50000 0 01344    02100 ADD +0 40000 0 01401    02101 STO +0 60100 0 01344
                      USRCHK.(PROB,PROG,CKMETA)                                     053  LM00066
 02102 TSX +0 07400 4 00041    02103 TXH +3 00000 0 00043    02104 TXH +3 00000 0 00044    02105 TXH +3 00000 0 00742
                      BB=2                                                          054  LM00067
 02106 CLA +0 50000 0 01401    02107 STO +0 60100 0 01313
                      T'O SRCH                                                      055  LM00068
 02110 TRA +0 02000 0 00747
                 O'R A(CINDEX).E.$(URGT)$                                           056  LM00069
 02111 TRA +0 02000 0 02132    02112 LXA +0 53400 1 01344    02113 CLA +0 50000 1 01310    02114 SUB +0 40200 0 01531
 02115 TNZ -0 10000 0 02132
                      CINDEX = CINDEX+1                                             057  LM00070
 02116 CLA +0 50000 0 01344    02117 ADD +0 40000 0 01400    02120 STO +0 60100 0 01344
                      USRCHK.(PROB,PROG,CKMETA)                                     058  LM00071
 02121 TSX +0 07400 4 00041    02122 TXH +3 00000 0 00043    02123 TXH +3 00000 0 00044    02124 TXH +3 00000 0 00742
                      BOX =   MAIL                                                  059  LM00072
 02125 CLA +0 50000 0 01353    02126 STO +0 60100 0 01314
                      MAIL = $URGENT$                                               060  LM00073
 02127 CLA +0 50000 0 01525    02130 STO +0 60100 0 01353
                      T'O CKMETA                                                    061  LM00074
 02131 TRA +0 02000 0 00742
                 E'L                                                                062  LM00075
      GETARG     ARGS.(ALL)                                                         063  LM00077
 02132 TSX +0 07400 4 00035    02133 TXH +3 00000 0 00741
                 T'O GETARG                                                         064  LM00078
 02134 TRA +0 02000 0 00744
      ALL        CONTINUE                                                           065  LM00080
                 T'H ASEND, FOR I=0,2,I.GE.AA                                       066  LM00082
 02135 CLA +0 50000 0 01377    02136 STO +0 60100 0 01350    02137 TRA +0 02000 0 02143    02140 CLA +0 50000 0 01350
 02141 ADD +0 40000 0 01401    02142 STO +0 60100 0 01350    02143 CLA +0 50000 0 01350    02144 SUB +0 40200 0 00750
 02145 TZE +0 10000 0 02164    02146 TPL +0 12000 0 02164
      ASEND      SEND.(APRG(I),APRG(I+1))                                           067  LM00083
 02147 CLA +0 50000 0 01350    02150 ADD +0 40000 0 01400    02151 SUB +0 40200 0 02152    02152 TXH +3 00000 0 01263
 02153 STA +0 62100 0 02162    02154 CLA +0 50000 0 01350    02155 SUB +0 40200 0 02156    02156 TXH +3 00000 0 01263
 02157 STA +0 62100 0 02161    02160 TSX +0 07400 4 00040    02161 TXH +3 00000 0 00000    02162 TXH +3 00000 0 00000
 02163 TRA +0 02000 0 02140
      SRCH       W'R BB.G.0                                                         068  LM00085
 02164 CLA +0 50000 0 01313    02165 SUB +0 40200 0 01377    02166 TZE +0 10000 0 02242    02167 TMI -0 12000 0 02242
                      OPNMF.                                                        069  LM00086
 02170 TSX +0 07400 4 00036
      SLOOP           RDMF.(X,Y)                                                    070  LM00087
 02171 TSX +0 07400 4 00037    02172 TXH +3 00000 0 01365    02173 TXH +3 00000 0 01366
                      T'H BSEND,FOR C=0,2,C.G.BB                                    071  LM00088
 02174 CLA +0 50000 0 01377    02175 STO +0 60100 0 01345    02176 TRA +0 02000 0 02202    02177 CLA +0 50000 0 01345
 02200 ADD +0 40000 0 01401    02201 STO +0 60100 0 01345    02202 CLA +0 50000 0 01345    02203 SUB +0 40200 0 01313
 02204 TZE +0 10000 0 02206    02205 TPL +0 12000 0 02236
                      W'R X.E.BPRG(C).OR.BPRG(C).E.$ALLALL$                         072  LM00089
 02206 LXA +0 53400 1 01345    02207 CLA +0 50000 1 01343    02210 SUB +0 40200 0 01436    02211 TZE +0 10000 0 02216
 02212 LXA +0 53400 2 01345    02213 CLA +0 50000 0 01365    02214 SUB +0 40200 2 01343    02215 TNZ -0 10000 0 02235
                      W'R Y.E.BPRG(C+1).OR.BPRG(C+1).E.$ALLALL$,SEND.(X,Y)          073  LM00090
 02216 CLA +0 50000 0 01345    02217 ADD +0 40000 0 01400    02220 PAX +0 73400 1 00000    02221 CLA +0 50000 1 01343
 02222 SUB +0 40200 0 01436    02223 TZE +0 10000 0 02232    02224 CLA +0 50000 0 01345    02225 ADD +0 40000 0 01400
 02226 PAX +0 73400 2 00000    02227 CLA +0 50000 0 01366    02230 SUB +0 40200 2 01343    02231 TNZ -0 10000 0 02235
 02232 TSX +0 07400 4 00040    02233 TXH +3 00000 0 01365    02234 TXH +3 00000 0 01366
                      E'L                                                           074  LM00091
      BSEND           CONTINUE                                                      075  LM00092
 02235 TRA +0 02000 0 02177
                      T'O SLOOP                                                     076  LM00093
 02236 TRA +0 02000 0 00746
      EX              BFCLOS.(MFD,FILE)                                             077  LM00094
 02237 TSX +0 07400 4 00002    02240 TXH +3 00000 0 01357    02241 TXH +3 00000 0 01347
                 E'L                                                                078  LM00095
                 CHNCOM.(0)                                                         079  LM00097
 02242 TSX +0 07400 4 00006    02243 TXH +3 00000 0 01377
                 N'S INTEGER                                                        080  LM00100
                 D'N A(20),APRG(202),BPRG(22)                                       081  LM00101
                 D'N B1(0), B2(0)                                                   082  LM00102
                 D'N Z(7)                                                           083  LM00103
                 B'N LIST                                                           084  LM00104
                 V'S MFD=$M.F.D.$                                                   085  LM00105
 01357     -0 43326 3 32433
                 V'S UFD=$U.F.D.$                                                   086  LM00106
 01363     -2 43326 3 32433
                 V'S FILE=$(FILE)$                                                  087  LM00107
 01347     -3 42631 4 32534
                 V'S MAIL=$  MAIL$                                                  088  LM00108
 01353     -2 06044 2 13143
                 V'S BOX=$   BOX$                                                   089  LM00109
 01314     -2 06060 2 24667
                 V'S BPRG = $ALLALL$, $ALLALL$                                      090  LM00110
 01342     +2 14343 2 14343    01343     +2 14343 2 14343
                 V'S AA = 0                                                         091  LM00111
 00750     +0 00000 0 00000
                 V'S BB = 0                                                         092  LM00112
 01313     +0 00000 0 00000
                 V'S FENCE=777777777777K                                            093  LM00113
 01346     -3 77777 7 77777
                 D'N BUFF(443)                                                      094  LM00115
                 E'E (BUFF(443),LM)                                                 095  LM00116
                 V'S LM = 777777000012K                                             096  LM00117
 00045     -3 77777 0 00012
                 V'S BUFF(442) = $ FROM $                                           097  LM00118
 00046     -2 02651 4 64460
                 E'E (BUFF(441),PROB1), (BUFF(440),PROG1)                           098  LM00119
                 V'S BUFF(439) = 603145605757K                                      099  LM00120
 00051     -2 03145 6 05757
                 E'E (BUFF(438),PROBN)                                              100  LM00121
                 V'S BUFF(437) = 605757575757K                                      101  LM00122
 00053     -2 05757 5 75757
                 E'E (BUFF(436),UFDNAM)                                             102  LM00123
                 V'S BUFF(435) = 605721636057K                                      103  LM00124
 00055     -2 05721 6 36057
                 E'E (BUFF(434),DATE), (BUFF(433),TIME)                             104  LM00125
                 INTERNAL FUNCTION(X,Y)                                             105  LM00129
 02244 TRA +0 02000 0 02317
                 E'O USRCHK.                                                        106  LM00130
 02245 TRA +0 02000 0 02250    00041 TTR +0 02100 0 02246    02246 SXA +0 63400 2 02300    02247 TSX +0 07400 2 02300
                 W'R X.NE.$ M1416$ .OR. (Y.NE.$   385$ .AND. Y                      107  LM00132
                1 .NE. $  4301$ .AND. Y .NE. $  2962$ .AND. Y .NE.                  107  LM00133
                2 $  3845$)                                                         107  LM00134
                3 , ERROR RETURN                                                    107  LM00135
 02250 CLA +0 50000 0 00024    02251 SUB +0 40200 0 01507    02252 TZE +0 10000 0 02264    02253 CLA +0 50000 0 00024
 02254 SUB +0 40200 0 01506    02255 TZE +0 10000 0 02264    02256 CLA +0 50000 0 00024    02257 SUB +0 40200 0 01510
 02260 TZE +0 10000 0 02264    02261 CLA +0 50000 0 00024    02262 SUB +0 40200 0 01511    02263 TNZ -0 10000 0 02267
 02264 CLA +0 50000 0 00024    02265 SUB +0 40200 0 01502    02266 TZE +0 10000 0 02276    02267 LXA +0 53400 4 02313
 02270 CLA +0 50000 4 00003    02271 STA +0 62100 0 02273    02272 LDQ +0 56000 0 02274    02273 TLQ +0 04000 0 00000
 02274 TXH +3 00000 0 00000    02275 TSX +0 07400 4 00012
                 F'N                                                                108  LM00136
 02276 TRA +0 02000 0 02313
                 E'N                                                                109  LM00137
 02277 TSX +0 07400 4 00013    02300 TXH +3 00000 0 00000    02301 SXD -0 63400 1 02300    02302 SXA +0 63400 4 02313
 02303 CLA +0 50000 4 00001    02304 STA +0 62100 0 02264    02305 CLA +0 50000 4 00002    02306 STA +0 62100 0 02250
 02307 STA +0 62100 0 02253    02310 STA +0 62100 0 02256    02311 STA +0 62100 0 02261    02312 TRA +0 02000 2 00001
 02313 AXT +0 77400 4 00000    02314 LXA +0 53400 2 02300    02315 LXD -0 53400 1 02300    02316 TRA +0 02000 4 00001
                 INTERNAL FUNCTION(THRU)                                            110  LM00140
 02317 TRA +0 02000 0 02476
                 E'O ARGS.                                                          111  LM00141
 02320 TRA +0 02000 0 02323    00035 TTR +0 02100 0 02321    02321 SXA +0 63400 2 02460    02322 TSX +0 07400 2 02460
                 STATEMENT LABEL THRU                                               112  LM00142
                 W'R LIST                                                           113  LM00144
 02323 NZT -0 52000 0 01351    02324 TRA +0 02000 0 02334
                      GTWD.(X,THRU)                                                 114  LM00145
 02325 TSX +0 07400 4 00023    02326 TXH +3 00000 0 01365    02327 TXH +3 00000 0 00024
                      GTWD.(Y,THRU)                                                 115  LM00146
 02330 TSX +0 07400 4 00023    02331 TXH +3 00000 0 01366    02332 TXH +3 00000 0 00024
                 O'E                                                                116  LM00147
 02333 TRA +0 02000 0 02356
                      X=A(CINDEX)                                                   117  LM00148
 02334 LXA +0 53400 2 01344    02335 CLA +0 50000 2 01310    02336 STO +0 60100 0 01365
                      Y=A(CINDEX+1)                                                 118  LM00149
 02337 CLA +0 50000 0 01344    02340 ADD +0 40000 0 01400    02341 PAX +0 73400 2 00000    02342 CLA +0 50000 2 01310
 02343 STO +0 60100 0 01366
                      W'R X.E.FENCE.OR.Y.E.FENCE,T'O THRU                           119  LM00150
 02344 CLA +0 50000 0 01366    02345 SUB +0 40200 0 01346    02346 TZE +0 10000 0 02352    02347 CLA +0 50000 0 01365
 02350 SUB +0 40200 0 01346    02351 TNZ -0 10000 0 02353    02352 TRA +0 02000 0 00024
                      CINDEX=CINDEX+2                                               120  LM00151
 02353 CLA +0 50000 0 01344    02354 ADD +0 40000 0 01401    02355 STO +0 60100 0 01344
                 E'L                                                                121  LM00152
                 W'R X.E.$     *$                                                   122  LM00154
 02356 CLA +0 50000 0 01365    02357 SUB +0 40200 0 01512    02360 TNZ -0 10000 0 02400
                      BPRG(BB)=$ALLALL$                                             123  LM00155
 02361 LXA +0 53400 1 01313    02362 CLA +0 50000 0 01436    02363 STO +0 60100 1 01343
                      BPRG(BB+1)=Y.A.777777777717K                                  124  LM00156
 02364 CAL -0 50000 0 01366    02365 ANA -0 32000 0 01532    02366 SLW +0 60200 0 02475    02367 CLA +0 50000 0 01313
 02370 ADD +0 40000 0 01400    02371 PAX +0 73400 1 00000    02372 CLA +0 50000 0 02475    02373 STO +0 60100 1 01343
                      BB=BB+2                                                       125  LM00157
 02374 CLA +0 50000 0 01313    02375 ADD +0 40000 0 01401    02376 STO +0 60100 0 01313
                 O'R Y.E.$     *$                                                   126  LM00158
 02377 TRA +0 02000 0 02437    02400 CLA +0 50000 0 01366    02401 SUB +0 40200 0 01512    02402 TNZ -0 10000 0 02420
                      BPRG(BB)=REPROB.(X)                                           127  LM00159
 02403 TSX +0 07400 4 00032    02404 TXH +3 00000 0 01365    02405 LXA +0 53400 1 01313    02406 STO +0 60100 1 01343
                      BPRG(BB+1)=$ALLALL$                                           128  LM00160
 02407 CLA +0 50000 0 01313    02410 ADD +0 40000 0 01400    02411 PAX +0 73400 1 00000    02412 CLA +0 50000 0 01436
 02413 STO +0 60100 1 01343
                      BB=BB+2                                                       129  LM00161
 02414 CLA +0 50000 0 01313    02415 ADD +0 40000 0 01401    02416 STO +0 60100 0 01313
                 O'E                                                                130  LM00162
 02417 TRA +0 02000 0 02437
                      APRG(AA)=REPROB.(X)                                           131  LM00163
 02420 TSX +0 07400 4 00032    02421 TXH +3 00000 0 01365    02422 LXA +0 53400 1 00750    02423 STO +0 60100 1 01263
                      APRG(AA+1)=Y.A.777777777717K                                  132  LM00164
 02424 CAL -0 50000 0 01366    02425 ANA -0 32000 0 01532    02426 SLW +0 60200 0 02475    02427 CLA +0 50000 0 00750
 02430 ADD +0 40000 0 01400    02431 PAX +0 73400 1 00000    02432 CLA +0 50000 0 02475    02433 STO +0 60100 1 01263
                      AA=AA+2                                                       133  LM00165
 02434 CLA +0 50000 0 00750    02435 ADD +0 40000 0 01401    02436 STO +0 60100 0 00750
                 E'L                                                                134  LM00166
                 W'R AA.G.200.OR.BB.G.20                                            135  LM00168
 02437 CLA +0 50000 0 01313    02440 SUB +0 40200 0 01412    02441 TZE +0 10000 0 02443    02442 TPL +0 12000 0 02447
 02443 CLA +0 50000 0 00750    02444 SUB +0 40200 0 01413    02445 TZE +0 10000 0 02456    02446 TMI -0 12000 0 02456
                      PRINT COMMENT $TOO MANY ADDRESSEES$                           136  LM00169
 02447 TSX +0 07400 4 00024    02450     +0 00000 0 00004    02451     -2 34646 6 04421    02452     -0 57060 2 12424
 02453     -1 12562 6 22525    02454     -2 26060 6 06060
                      T'O THRU                                                      137  LM00170
 02455 TRA +0 02000 0 00024
                 E'L                                                                138  LM00171
                 F'N                                                                139  LM00173
 02456 TRA +0 02000 0 02471
                 E'N                                                                140  LM00174
 02457 TSX +0 07400 4 00013    02460 TXH +3 00000 0 00000    02461 SXD -0 63400 1 02460    02462 SXA +0 63400 4 02471
 02463 CLA +0 50000 4 00001    02464 STO +0 60100 0 02327    02465 STO +0 60100 0 02332    02466 STA +0 62100 0 02352
 02467 STA +0 62100 0 02455    02470 TRA +0 02000 2 00001    02471 AXT +0 77400 4 00000    02472 LXA +0 53400 2 02460
 02473 LXD -0 53400 1 02460    02474 TRA +0 02000 4 00001
                 INTERNAL FUNCTION                                                  141  LM00177
 02476 TRA +0 02000 0 02556
                 E'O OPNMF.                                                         142  LM00178
 02477 TRA +0 02000 0 02502    00036 TTR +0 02100 0 02500    02500 SXA +0 63400 2 02544    02501 TSX +0 07400 2 02544
                 ATTACH.(MFD,FILE)                                                  143  LM00180
 02502 TSX +0 07400 4 00000    02503 TXH +3 00000 0 01357    02504 TXH +3 00000 0 01347
                 BFOPEN.($R$,MFD,FILE,B2(B2+432),-0,-0,DSKER.)                      144  LM00181
 02505 CLS +0 50200 0 01377    02506 STO +0 60100 0 02554    02507 CLS +0 50200 0 01377    02510 STO +0 60100 0 02555
 02511 CLA +0 50000 0 01312    02512 ADD +0 40000 0 01414    02513 SUB +0 40200 0 02514    02514 TXH +3 00000 0 01312
 02515 STA +0 62100 0 02522    02516 TSX +0 07400 4 00003    02517 TXH +3 00000 0 01471    02520 TXH +3 00000 0 01357
 02521 TXH +3 00000 0 01347    02522 TXH +3 00000 0 00000    02523 TXH +3 00000 0 02555    02524 TXH +3 00000 0 02554
 02525 TXH +3 00000 0 00011
                 ATTACH.(ME(2),ME(1))                                               145  LM00182
 02526 TSX +0 07400 4 00000    02527 TXH +3 00000 0 01354    02530 TXH +3 00000 0 01355
                 BFREAD.(MFD,FILE,Z(3)...3,DSKER.,-0,DSKER.)                        146  LM00183
 02531 CLS +0 50200 0 01377    02532 STO +0 60100 0 02555    02533 TSX +0 07400 4 00004    02534 TXH +3 00000 0 01357
 02535 TXH +3 00000 0 01347    02536 TIX +2 01402 0 01373    02537 TXH +3 00000 0 00011    02540 TXH +3 00000 0 02555
 02541 TXH +3 00000 0 00011
                 F'N                                                                147  LM00184
 02542 TRA +0 02000 0 02550
                 E'N                                                                148  LM00185
 02543 TSX +0 07400 4 00013    02544 TXH +3 00000 0 00000    02545 SXD -0 63400 1 02544    02546 SXA +0 63400 4 02550
 02547 TRA +0 02000 2 00001    02550 AXT +0 77400 4 00000    02551 LXA +0 53400 2 02544    02552 LXD -0 53400 1 02544
 02553 TRA +0 02000 4 00001
                 INTERNAL FUNCTION(X,Y)                                             149  LM00188
 02556 TRA +0 02000 0 02645
                 E'O RDMF.                                                          150  LM00189
 02557 TRA +0 02000 0 02562    00037 TTR +0 02100 0 02560    02560 SXA +0 63400 2 02624    02561 TSX +0 07400 2 02624
      RR         BFREAD.(MFD,FILE,Z(7)...7,EX,-0,DSKER.)                            151  LM00190
 02562 CLS +0 50200 0 01377    02563 STO +0 60100 0 02644    02564 TSX +0 07400 4 00004    02565 TXH +3 00000 0 01357
 02566 TXH +3 00000 0 01347    02567 TIX +2 01404 0 01367    02570 TXH +3 00000 0 00743    02571 TXH +3 00000 0 02644
 02572 TXH +3 00000 0 00011
                 X=Z(7)                                                             152  LM00191
 02573 CLA +0 50000 0 01367    02574 STO +0 60100 0 00024
                 Y=Z(6)                                                             153  LM00192
 02575 CLA +0 50000 0 01370    02576 STO +0 60100 0 00024
                 W'R X.E.0.OR.Y.E.0.OR.X.E.UFD,T'O RR                               154  LM00193
 02577 CLA +0 50000 0 00024    02600 SUB +0 40200 0 01363    02601 TZE +0 10000 0 02610    02602 CLA +0 50000 0 00024
 02603 SUB +0 40200 0 01377    02604 TZE +0 10000 0 02610    02605 CLA +0 50000 0 00024    02606 SUB +0 40200 0 01377
 02607 TNZ -0 10000 0 02611    02610 TRA +0 02000 0 00745
                 W'R Y.RS.12.E.$00CMFL$,T'O RR                                      155  LM00194
 02611 CAL -0 50000 0 01407    02612 STA +0 62100 0 02614    02613 CAL -0 50000 0 00024    02614 LGR -0 76500 0 00000
 02615 SLW +0 60200 0 02644    02616 CLA +0 50000 0 02644    02617 SUB +0 40200 0 01416    02620 TNZ -0 10000 0 02622
 02621 TRA +0 02000 0 00745
                 F'N                                                                156  LM00195
 02622 TRA +0 02000 0 02640
                 E'N                                                                157  LM00196
 02623 TSX +0 07400 4 00013    02624 TXH +3 00000 0 00000    02625 SXD -0 63400 1 02624    02626 SXA +0 63400 4 02640
 02627 CLA +0 50000 4 00001    02630 STA +0 62100 0 02574    02631 STA +0 62100 0 02577    02632 STA +0 62100 0 02605
 02633 CLA +0 50000 4 00002    02634 STA +0 62100 0 02576    02635 STA +0 62100 0 02602    02636 STA +0 62100 0 02613
 02637 TRA +0 02000 2 00001    02640 AXT +0 77400 4 00000    02641 LXA +0 53400 2 02624    02642 LXD -0 53400 1 02624
 02643 TRA +0 02000 4 00001
                 INTERNAL FUNCTION(M,N)                                             158  LM00199
 02645 TRA +0 02000 0 02773
                 E'O SEND.                                                          159  LM00200
 02646 TRA +0 02000 0 02651    00040 TTR +0 02100 0 02647    02647 SXA +0 63400 2 02747    02650 TSX +0 07400 2 02747
                 Z=SMAIL.(M,N,LM,LTH,MAIL,BOX)                                      160  LM00202
 02651 TSX +0 07400 4 00033    02652 TXH +3 00000 0 00024    02653 TXH +3 00000 0 00024    02654 TXH +3 00000 0 00045
 02655 TXH +3 00000 0 01352    02656 TXH +3 00000 0 01353    02657 TXH +3 00000 0 01314    02660 STO +0 60100 0 01376
                 W'R Z.E.0                                                          161  LM00203
 02661 CLA +0 50000 0 01376    02662 SUB +0 40200 0 01377    02663 TNZ -0 10000 0 02666
                      F'N                                                           162  LM00204
 02664 TRA +0 02000 0 02767
                 O'R Z.E.4                                                          163  LM00205
 02665 TRA +0 02000 0 02745    02666 CLA +0 50000 0 01376    02667 SUB +0 40200 0 01403    02670 TNZ -0 10000 0 02702
                      PRFULL.(RX,M,RX,N,$ NOT FOUND.'B$)                            164  LM00206
 02671 TSX +0 07400 4 00030    02672 TXH +3 00000 0 01362    02673 TXH +3 00000 0 00024    02674 TXH +3 00000 0 01362
 02675 TXH +3 00000 0 00024    02676 TXH +3 00000 0 01504    02677 TXH +3 00000 0 01467    02700 TXH +3 00000 0 01441
                 O'R Z.E.3                                                          165  LM00207
 02701 TRA +0 02000 0 02745    02702 CLA +0 50000 0 01376    02703 SUB +0 40200 0 01402    02704 TNZ -0 10000 0 02717
                      PRFULL.(RX,M,RX,N,$ DOES NOT WANT MAIL.'B$)                   166  LM00208
 02705 TSX +0 07400 4 00030    02706 TXH +3 00000 0 01362    02707 TXH +3 00000 0 00024    02710 TXH +3 00000 0 01362
 02711 TXH +3 00000 0 00024    02712 TXH +3 00000 0 01500    02713 TXH +3 00000 0 01463    02714 TXH +3 00000 0 01464
 02715 TXH +3 00000 0 01460
                 O'R Z.E.2                                                          167  LM00209
 02716 TRA +0 02000 0 02745    02717 CLA +0 50000 0 01376    02720 SUB +0 40200 0 01401    02721 TNZ -0 10000 0 02734
                      PRFULL.(RX,M,RX,N,$''S MAIL BOX IS BUSY.'B$)                  168  LM00210
 02722 TSX +0 07400 4 00030    02723 TXH +3 00000 0 01362    02724 TXH +3 00000 0 00024    02725 TXH +3 00000 0 01362
 02726 TXH +3 00000 0 00024    02727 TXH +3 00000 0 01430    02730 TXH +3 00000 0 01453    02731 TXH +3 00000 0 01501
 02732 TXH +3 00000 0 01521
                 O'E                                                                169  LM00211
 02733 TRA +0 02000 0 02745
                      PRFULL.($'R DISK ERROR SENDING TO'8$,M,N,$'B'8$)              170  LM00212
 02734 TSX +0 07400 4 00030    02735 TXH +3 00000 0 01434    02736 TXH +3 00000 0 01457    02737 TXH +3 00000 0 01472
 02740 TXH +3 00000 0 01454    02741 TXH +3 00000 0 01426    02742 TXH +3 00000 0 00024    02743 TXH +3 00000 0 00024
 02744 TXH +3 00000 0 01432
                 E'L                                                                171  LM00213
                 F'N                                                                172  LM00215
 02745 TRA +0 02000 0 02767
                 E'N                                                                173  LM00216
 02746 TSX +0 07400 4 00013    02747 TXH +3 00000 0 00000    02750 SXD -0 63400 1 02747    02751 SXA +0 63400 4 02767
 02752 CLA +0 50000 4 00001    02753 STO +0 60100 0 02652    02754 STO +0 60100 0 02673    02755 STO +0 60100 0 02707
 02756 STO +0 60100 0 02724    02757 STO +0 60100 0 02742    02760 CLA +0 50000 4 00002    02761 STO +0 60100 0 02653
 02762 STO +0 60100 0 02675    02763 STO +0 60100 0 02711    02764 STO +0 60100 0 02726    02765 STO +0 60100 0 02743
 02766 TRA +0 02000 2 00001    02767 AXT +0 77400 4 00000    02770 LXA +0 53400 2 02747    02771 LXD -0 53400 1 02747
 02772 TRA +0 02000 4 00001
                 E'M                                                                174  LM00218
 02773 TSX +0 07400 4 00013
1     MAD PROGRAM LISTING ... ... ...                 FILE   SMAIL   MAD            03/18/69    1008.6
-
                 ...FUCTION SENDS MAIL TO A USER                                                       LM00001
                                                                                                       LM00002
                  EXTERNAL FUNCTION(AD1,AD2,BUF,N,N1,N2)                                          *001 LM00003
                  ENTRY TO SMAIL.                                                                 *002 LM00004
                                                                                                       LM00005
                  NORMAL MODE IS INTEGER                                                          *003 LM00006
                                                                                                       LM00007
                  A=4                                                                             *004 LM00008
                  UNLINK.(T1,T2,S1)                                                               *005 LM00009
      S1          LINK.(T1,T2,AD1,AD2,N1,N2,0,S7)                                                 *006 LM00010
                  A=A-1                                                                           *007 LM00011
                  TILOCK.(S5)                                                                     *008 LM00012
                  FSTATE.(T1,T2,MODE(1)...2,S2)                                                   *009 LM00013
                  WHENEVER MODE .A. 124K .NE. 0, TRANSFER TO S6                                   *010 LM00014
                  CHFILE.(T1,T2,1,-0,-0,S2)                                                       *011 LM00015
      S2          OPEN.($W$,T1,T2,1,2,S6)                                                         *012 LM00016
                  A=A-1                                                                           *013 LM00017
                  BUFFER.(T1,T2,B1(432)...432)                                                    *014 LM00018
                  WRFILE.(T1,T2,0,BUF...N,-0,-0,S3)                                               *015 LM00019
      S3          CLOSE.(T1,T2,S4)                                                                *016 LM00020
                  A=A-1                                                                           *017 LM00021
      S4          CHFILE.(T1,T2,0,-0,-0,S5)                                                       *018 LM00022
      S5          A=A-1                                                                           *019 LM00023
      S6          UNLINK.(T1,T2,S7)                                                               *020 LM00024
      S7          FUNCTION RETURN A                                                               *021 LM00025
                  VECTOR VALUES T1=$TEM$                                                          *022 LM00026
                  VECTOR VALUES T2=$BOX$                                                          *023 LM00027
                  DIMENSION B1(432), MODE(1)                                                      *024 LM00028
                  END OF FUNCTION                                                                 *025 LM00029
1MAD PROGRAM,TYPE NOV 1963      (ALL NUMBERS ARE OCTAL)
0TOTAL LOCATIONS   01115 TRANSFER VECTOR LENGTH  00012 PROGRAM BEGINS    00720
0 PROGRAM IS AN EXTERNAL FUNCTION.   THE FOLLOWING ARE ENTRIES
      SMAIL  00721   0
0VARIABLE STORAGE (A=ARRAY,C=COMMON,E=ERASABLE,DIGIT=MODE)
      A      00022   1        S1     00013   4        S4     00016   4        S6     00020   4        T1     00706 A 1
      B1     00703 A 1        S2     00014   4        S5     00017   4        S7     00021   4        T2     00707 A 1
      MODE   00705 A 1        S3     00015   4
0FUNCTION DICTIONARY
      BUFFER 00000   1        CHFILE 00001   1        CLOSE  00002   1        EXIT   00003   1        FSTATE 00004   1
      LINK   00005   1        OPEN   00006   1        TILOCK 00007   1        UNLINK 00010   1        WRFILE 00011   1
0ABSOLUTE CONSTANTS
 00715 +000000000660     00717 -266060606060     00714 +000000000124     00712 +000000000002     00710 +000000000000
 00713 +000000000004     00711 +000000000001     00716 +233000000000
0STATEMENT DICTIONARY
 00013 TXL -300742000731       00014 TXL -301005000776       00015 TXL -301034001030       00016 TXL -301052001037
 00017 TXL -301055001052       00020 TXL -301061001055       00021 TXL -301063001061
0PROGRAM
                 EXTERNAL FUNCTION(AD1,AD2,BUF,N,N1,N2)                             001  LM00003
                 E'O SMAIL.                                                         002  LM00004
 00720 TRA +0 02000 0 00723    00721 SXA +0 63400 2 01064    00722 TSX +0 07400 2 01064
                 N'R                                                                003  LM00006
                 A=4                                                                004  LM00008
 00723 CLA +0 50000 0 00713    00724 STO +0 60100 0 00022
                 UNLINK.(T1,T2,S1)                                                  005  LM00009
 00725 TSX +0 07400 4 00010    00726 TXH +3 00000 0 00706    00727 TXH +3 00000 0 00707    00730 TXH +3 00000 0 00013
      S1         LINK.(T1,T2,AD1,AD2,N1,N2,0,S7)                                    006  LM00010
 00731 TSX +0 07400 4 00005    00732 TXH +3 00000 0 00706    00733 TXH +3 00000 0 00707    00734 TXH +3 00000 0 00024
 00735 TXH +3 00000 0 00024    00736 TXH +3 00000 0 00024    00737 TXH +3 00000 0 00024    00740 TXH +3 00000 0 00710
 00741 TXH +3 00000 0 00021
                 A=A-1                                                              007  LM00011
 00742 CLA +0 50000 0 00022    00743 SUB +0 40200 0 00711    00744 STO +0 60100 0 00022
                 TILOCK.(S5)                                                        008  LM00012
 00745 TSX +0 07400 4 00007    00746 TXH +3 00000 0 00017
                 FSTATE.(T1,T2,MODE(1)...2,S2)                                      009  LM00013
 00747 TSX +0 07400 4 00004    00750 TXH +3 00000 0 00706    00751 TXH +3 00000 0 00707    00752 TIX +2 00712 0 00704
 00753 TXH +3 00000 0 00014
                 W'R MODE .A. 124K .NE. 0, T'O S6                                   010  LM00014
 00754 CAL -0 50000 0 00705    00755 ANA -0 32000 0 00714    00756 SLW +0 60200 0 01111    00757 CLA +0 50000 0 01111
 00760 SUB +0 40200 0 00710    00761 TZE +0 10000 0 00763    00762 TRA +0 02000 0 00020
                 CHFILE.(T1,T2,1,-0,-0,S2)                                          011  LM00015
 00763 CLS +0 50200 0 00710    00764 STO +0 60100 0 01111    00765 CLS +0 50200 0 00710    00766 STO +0 60100 0 01112
 00767 TSX +0 07400 4 00001    00770 TXH +3 00000 0 00706    00771 TXH +3 00000 0 00707    00772 TXH +3 00000 0 00711
 00773 TXH +3 00000 0 01112    00774 TXH +3 00000 0 01111    00775 TXH +3 00000 0 00014
      S2         OPEN.($W$,T1,T2,1,2,S6)                                            012  LM00016
 00776 TSX +0 07400 4 00006    00777 TXH +3 00000 0 00717    01000 TXH +3 00000 0 00706    01001 TXH +3 00000 0 00707
 01002 TXH +3 00000 0 00711    01003 TXH +3 00000 0 00712    01004 TXH +3 00000 0 00020
                 A=A-1                                                              013  LM00017
 01005 CLA +0 50000 0 00022    01006 SUB +0 40200 0 00711    01007 STO +0 60100 0 00022
                 BUFFER.(T1,T2,B1(432)...432)                                       014  LM00018
 01010 TSX +0 07400 4 00000    01011 TXH +3 00000 0 00706    01012 TXH +3 00000 0 00707    01013 TIX +2 00715 0 00023
                 WRFILE.(T1,T2,0,BUF...N,-0,-0,S3)                                  015  LM00019
 01014 CLS +0 50200 0 00710    01015 STO +0 60100 0 01112    01016 CLS +0 50200 0 00710    01017 STO +0 60100 0 01111
 01020 TSX +0 07400 4 00011    01021 TXH +3 00000 0 00706    01022 TXH +3 00000 0 00707    01023 TXH +3 00000 0 00710
 01024 TIX +2 00400 0 00024    01025 TXH +3 00000 0 01111    01026 TXH +3 00000 0 01112    01027 TXH +3 00000 0 00015
      S3         CLOSE.(T1,T2,S4)                                                   016  LM00020
 01030 TSX +0 07400 4 00002    01031 TXH +3 00000 0 00706    01032 TXH +3 00000 0 00707    01033 TXH +3 00000 0 00016
                 A=A-1                                                              017  LM00021
 01034 CLA +0 50000 0 00022    01035 SUB +0 40200 0 00711    01036 STO +0 60100 0 00022
      S4         CHFILE.(T1,T2,0,-0,-0,S5)                                          018  LM00022
 01037 CLS +0 50200 0 00710    01040 STO +0 60100 0 01112    01041 CLS +0 50200 0 00710    01042 STO +0 60100 0 01111
 01043 TSX +0 07400 4 00001    01044 TXH +3 00000 0 00706    01045 TXH +3 00000 0 00707    01046 TXH +3 00000 0 00710
 01047 TXH +3 00000 0 01111    01050 TXH +3 00000 0 01112    01051 TXH +3 00000 0 00017
      S5         A=A-1                                                              019  LM00023
 01052 CLA +0 50000 0 00022    01053 SUB +0 40200 0 00711    01054 STO +0 60100 0 00022
      S6         UNLINK.(T1,T2,S7)                                                  020  LM00024
 01055 TSX +0 07400 4 00010    01056 TXH +3 00000 0 00706    01057 TXH +3 00000 0 00707    01060 TXH +3 00000 0 00021
      S7         F'N A                                                              021  LM00025
 01061 CLA +0 50000 0 00022    01062 TRA +0 02000 0 01105
                 V'S T1=$TEM$                                                       022  LM00026
 00706     -2 32544 6 06060
                 V'S T2=$BOX$                                                       023  LM00027
 00707     +2 24667 6 06060
                 D'N B1(432), MODE(1)                                               024  LM00028
                 E'N                                                                025  LM00029
 01063 TSX +0 07400 4 00003    01064 TXH +3 00000 0 00000    01065 SXD -0 63400 1 01064    01066 SXA +0 63400 4 01105
 01067 CLA +0 50000 4 00001    01070 STO +0 60100 0 00734    01071 CLA +0 50000 4 00002    01072 STO +0 60100 0 00735
 01073 CLA +0 50000 4 00003    01074 STA +0 62100 0 01024    01075 CLA +0 50000 4 00004    01076 ALS +0 76700 0 00022
 01077 STD +0 62200 0 01024    01100 CLA +0 50000 4 00005    01101 STO +0 60100 0 00736    01102 CLA +0 50000 4 00006
 01103 STO +0 60100 0 00737    01104 TRA +0 02000 2 00001    01105 AXT +0 77400 4 00000    01106 LXA +0 53400 2 01064
 01107 LXD -0 53400 1 01064    01110 TRA +0 02000 4 00001


  MOVE   BCD 09/18/68 2318.3    5228         00000
1            MOVE - MOVE A FILE.                                                                 PAGE 1

                                             1/10/66 - NOEL I. MORRIS

                                     UNLIST
 M                            CALL   MACRO   SUBR,LIST


        TRANSFER VECTOR
      00000  246242255160     DSKER
      00001  234647706060     COPY

                       00660  RCOUNT EQU     432
1            MOVE - MOVE A FILE.                                                                 PAGE 2


      00002                          CALL    SETBRK(CHN)
      00002  0074 00 4 00136         TSX     SETBRK,4                                                         .002
      00003  3 00000 0 00102         PAR     CHN                                                              .004

      00004                          CALL    FERRTN        SET FILE SYSTEM ERROR RETURN
      00004  0074 00 4 00137         TSX     FERRTN,4                                                         .002
      00005  0 00000 0 00000         PZE     $DSKER         ..

      00006                          CALL    GETCLS((CBUF,,0)) GET COMMAND BUFFER CONTENTS
      00006  0074 00 4 00140         TSX     GETCLS,4                                                         .002
      00007  3 00000 0 00107         PAR     CBUF,,0                                                          .004

      00010 -0500 00 0 00107         CAL     CBUF          PICK UP NAME OF COMMAND
      00011  0322 00 0 00172         ERA     =H  APND      CHECK FOR 'APND'
      00012  0602 00 0 00134         SLW     TRSW.         IF 'APND', DON'T TRFILE

      00013  0774 00 4 00003         AXT     3,4           CHECK FIRST THREE PARAMETERS
      00014 -0500 00 4 00113         CAL     CBUF+4,4      ..
      00015  0322 00 0 00135         ERA     FENCE         FOR FENCE
      00016  0100 00 0 00104         TZE     ILPAR         ..
      00017  2 00001 4 00014         TIX     *-3,4,1       ..

      00020 -0500 00 0 00112         CAL     O1            IF OUTPUT NAME 1
      00021  0322 00 0 00173         ERA     =H     *      IS AN ASTERISK,
      00022 -0100 00 0 00025         TNZ     *+3,          ..
      00023 -0500 00 0 00110         CAL     I1            IT IS SAME AS
      00024  0602 00 0 00112         SLW     O1            INPUT NAME 1

      00025 -0500 00 0 00113         CAL     O2            IF OUTPUT NAME 2
      00026  0322 00 0 00135         ERA     FENCE         IS  NOT SPECIFIED,
      00027 -0100 00 0 00032         TNZ     *+3           ..
      00030 -0500 00 0 00111         CAL     I2            IT IS SAME AS
      00031  0602 00 0 00113         SLW     O2            INPUT NAME 2

      00032                          CALL    GETMEM        GET MEM BOUND AND ASSIGN BUFFERS
      00032  0074 00 4 00141         TSX     GETMEM,4                                                         .002
      00033  0621 00 0 00072         STA     CALL+5        ..
      00034  0361 00 0 00133         ACL     NWDSPR        ..
      00035  0621 00 0 00073         STA     CALL+6        ..
      00036  0361 00 0 00133         ACL     NWDSPR        ..
      00037  0621 00 0 00074         STA     CALL+7        ..
      00040  0361 00 0 00133         ACL     NWDSPR        ..
      00041                          EXTEND  DBUF+3        ..
      00041  0621 00 0 00064         STA     DBUF+3                                                           .003
      00042  0361 00 0 00157         ACL     =432                                                             .002
      00043  0074 00 4 00142         TSX     SETMEM,4                                                         .003

      00044                          CALL    OPEN(=HW,O1,O2)         OPEN OUTPUT FILE
      00044  0074 00 4 00143         TSX     OPEN,4                                                           .002
      00045  3 00000 0 00200         PAR     =HW                                                              .004
      00046  3 00000 0 00112         PAR     O1                                                               .004
      00047  3 00000 0 00113         PAR     O2                                                               .004
1            MOVE - MOVE A FILE.                                                                 PAGE 3


      00050                          CALL    OPEN(=HR,I1,I2)         OPEN INPUT FILE
      00050  0074 00 4 00143         TSX     OPEN,4                                                           .002
      00051  3 00000 0 00171         PAR     =HR                                                              .004
      00052  3 00000 0 00110         PAR     I1                                                               .004
      00053  3 00000 0 00111         PAR     I2                                                               .004

      00054  0520 00 0 00134         ZET     TRSW.         CHECK FOR TRUNCATION
      00055                          CALL    TRFILE(O1,O2,=0)   TRUNCATE OUTPUT
      00055  0074 00 4 00144         TSX     TRFILE,4                                                         .002
      00056  3 00000 0 00112         PAR     O1                                                               .004
      00057  3 00000 0 00113         PAR     O2                                                               .004
      00060  3 00000 0 00156         PAR     =0                                                               .004

      00061                   DBUF   CALL    BUFFER(O1,O2(**,,RCOUNT)) ASSIGN BUFFER
      00061  0074 00 4 00145         TSX     BUFFER,4                                                         .002
      00062  3 00000 0 00112         PAR     O1                                                               .004
      00063  3 00000 0 00113         PAR     O2                                                               .004
      00064  3 00660 0 00000         PAR     **,,RCOUNT                                                       .004

      00065                   CALL   CALL    $COPY(I1,I2,O1,O2,**,**,**,NWDSPR,$DSKER)     COPY THE FI
      00065  0074 00 4 00001         TSX     $COPY,4                                                          .002
      00066  3 00000 0 00110         PAR     I1                                                               .004
      00067  3 00000 0 00111         PAR     I2                                                               .004
      00070  3 00000 0 00112         PAR     O1                                                               .004
      00071  3 00000 0 00113         PAR     O2                                                               .004
      00072  3 00000 0 00000         PAR     **                                                               .004
      00073  3 00000 0 00000         PAR     **                                                               .004
      00074  3 00000 0 00000         PAR     **                                                               .004
      00075  3 00000 0 00133         PAR     NWDSPR                                                           .004
      00076  3 00000 0 00000         PAR     $DSKER                                                           .004

      00077                   CLOS   CALL    CLOSE(=HALL,=-0)   CLOSE ALL FILES
      00077  0074 00 4 00146         TSX     CLOSE,4                                                          .002
      00100  3 00000 0 00160         PAR     =HALL                                                            .004
      00101  3 00000 0 00167         PAR     =-0                                                              .004

      00102                   CHN    CALL    CHNCOM(0)     EXIT TO CHNCOM
      00102  0074 00 4 00147         TSX     CHNCOM,4                                                         .002
      00103  3 00000 0 00000         PAR     0                                                                .004


      00104                   ILPAR  COMENT  NOTNUF,5,(INCOMPLETE SET OF PARAMETERS.)
      00104  0074 00 4 00150         TSX     WRFLX,4                                                          .003
      00105  3 00005 0 00151         PAR     NOTNUF,,5                                                        .005
      00106  0021 00 0 00102         XIT     CHN           ..
1            MOVE - MOVE A FILE.                                                                 PAGE 4


      00107                   CBUF   BSS     20

                       00110  I1     SYN     CBUF+1
                       00111  I2     SYN     CBUF+2
                       00112  O1     SYN     CBUF+3
                       00113  O2     SYN     CBUF+4


      00133  0 00000 0 06600  NWDSPR PZE     8*RCOUNT
      00134  0 00000 0 00000  TRSW.  PZE     0
      00135  777777777777     FENCE  VFD     O36//


      00136                          RMT     *             REMOTE SEQUENCES.
      00136  0101 00 0 00174  SETBRK TIA     =HSETBRK                                                         .002
      00137  0101 00 0 00164  FERRTN TIA     =HFERRTN                                                         .002
      00140  0101 00 0 00165  GETCLS TIA     =HGETCLS                                                         .002
      00141  0101 00 0 00166  GETMEM TIA     =HGETMEM                                                         .002
      00142  0101 00 0 00175  SETMEM TIA     =HSETMEM                                                         .002
      00143  0101 00 0 00170  OPEN   TIA     =HOPEN                                                           .002
      00144  0101 00 0 00176  TRFILE TIA     =HTRFILE                                                         .002
      00145  0101 00 0 00161  BUFFER TIA     =HBUFFER                                                         .002
      00146  0101 00 0 00163  CLOSE  TIA     =HCLOSE                                                          .002
      00147  0101 00 0 00162  CHNCOM TIA     =HCHNCOM                                                         .002
      00150  0101 00 0 00177  WRFLX  TIA     =HWRFLX                                                          .002
      00151  314523464447     NOTNUF BCI     5,INCOMPLETE SET OF PARAMETERS.                                  .002
      00152  432563256062
      00153  256360462660
      00154  472151214425
      00155  632551623360


                                     END

        LITERALS
      00156  000000000000
      00157  000000000660
      00160  214343606060
      00161  226426262551
      00162  233045234644
      00163  234346622560
      00164  262551516345
      00165  272563234362
      00166  272563442544
      00167  400000000000
      00170  464725456060
      00171  516060606060
      00172  606021474524
      00173  606060606054
      00174  622563225142
      00175  622563442544
      00176  635126314325
      00177  665126436760
      00200  666060606060
1            MOVE - MOVE A FILE.                                                                 PAGE 1
                        POST PROCESSOR ASSEMBLY DATA

        201 IS THE FIRST LOCATION NOT USED BY THIS PROGRAM

0REFERENCES TO DEFINED SYMBOLS
        110     I1    23,   52,   66,  133
        111     I2    30,   53,   67,  133
        112     O1    20,   24,   46,   56,   62,   70,  133
        113     O2    25,   31,   47,   57,   63,   71,  133
        102    CHN     3,  106
         65   CALL    33,   35,   37
        107   CBUF     7,   10,   14,  133
         77   CLOS
          1   COPY    65
         61   DBUF    41
        143   OPEN    44,   50
        146  CLOSE    77
          0  DSKER     5,   76
        135  FENCE    15,   26
        104  ILPAR    16
        134  TRSW.    12,   54
        150  WRFLX   104
        145 BUFFER    61
        147 CHNCOM   102
        137 FERRTN     4
        140 GETCLS     6
        141 GETMEM    32
        151 NOTNUF   105
        133 NWDSPR    34,   36,   40,   75
        660 RCOUNT     2,   64,  133
        136 SETBRK     2
        142 SETMEM    43
        144 TRFILE    55

0 NO ERROR IN ABOVE ASSEMBLY.
1            COPY - COPY ONE FILE INTO ANOTHER.                                                  PAGE 1

                                             1/18/66 - NOEL I. MORRIS

                              * * * * * * * * * * * * * * * * * * * * * * * * * * * * * * * * * * * *
                              *
                              *      CALLING SEQUENCE -
                              *
                              *      COPY. (IN1, IN2, OUT1, OUT2, BUFF1, BUFF2, BUFF3, NWDSPR, ERRET)
                              *
                              *      IN1    = PRIMARY NAME OF INPUT FILE.
                              *      IN2    = SECONDARY NAME OF INPUT FILE.
                              *      OUT1   = PRIMARY NAME OF OUTPUT FILE.
                              *      OUT2   = SECONDARY NAME OF OUTPUT FILE.
                              *      BUFF1, BUFF2, AND BUFF3 ARE DISK BUFFERS.
                              *      NWDSPR = LENGTH OF THE DISK BUFFERS.
                              *      ERRET  = FILE SYSTEM ERROR RETURN.
                              *
                              *
                              * * * * * * * * * * * * * * * * * * * * * * * * * * * * * * * * * * * *


                                     UNLIST
 M                            CALL   MACRO   SUBR,LIST


                       00000         ENTRY   COPY

      00000  0634 00 1 00107  COPY   SXA     X1,1          SAVE XRS
      00001  0634 00 2 00110         SXA     X2,2          ..
      00002  0634 00 4 00111         SXA     X4,4          ..

      00003 -0500 60 4 00001         CAL*    1,4           GET IN1
      00004  0602 00 0 00170         SLW     IN1           ..
      00005 -0500 60 4 00002         CAL*    2,4           GET IN2
      00006  0602 00 0 00171         SLW     IN2           ..
      00007 -0500 60 4 00003         CAL*    3,4           GET OUT1
      00010  0602 00 0 00172         SLW     OUT1          ..
      00011 -0500 60 4 00004         CAL*    4,4           GET OUT2
      00012  0602 00 0 00173         SLW     OUT2          ..
      00013 -0500 00 4 00005         CAL     5,4           GET BUFFER ADDRESSES
      00014  0621 00 0 00151         STA     BUFF1         ..
      00015 -0500 00 4 00006         CAL     6,4           ..
      00016  0621 00 0 00152         STA     BUFF2         ..
      00017 -0500 00 4 00007         CAL     7,4           ..
      00020  0621 00 0 00153         STA     BUFF3         ..
      00021 -0500 60 4 00010         CAL*    8,4           GET RECORD COUNT
      00022  0602 00 0 00154         SLW     EOFCT         ..
      00023  0602 00 0 00155         SLW     EOFCT+1       ..
      00024  0602 00 0 00156         SLW     EOFCT+2       ..

      00025                          CALL    FERRTN        SET UP FILE SYSTEM ERROR RETURN
      00025  0074 00 4 00174         TSX     FERRTN,4                                                         .002
      00026  0 00000 0 00141         PZE     ERR           ..
      00027  0621 00 0 00106         STA     RETERR        SAVE OLD ERROR RETURN
1            COPY - COPY ONE FILE INTO ANOTHER.                                                  PAGE 2

      00030  0600 00 0 00166         STZ     TEOF          RESET EOF INDIC.
      00031 -0625 00 0 00165         STL     FIRST         SET FIRST TIME INDIC.

      00032                          CALL    FSTATE(IN1,IN2(STAT,,5)) PICK UP INPUT FILE STATUS
      00032  0074 00 4 00175         TSX     FSTATE,4                                                         .002
      00033  3 00000 0 00170         PAR     IN1                                                              .004
      00034  3 00000 0 00171         PAR     IN2                                                              .004
      00035  3 00005 0 00157         PAR     STAT,,5                                                          .004

      00036 -0774 00 1 00000         AXC     0,1           INITIALIZE INPUT BUFFER INDEX
      00037 -0774 00 2 00000         AXC     0,2           INITIALIZE OUTPUT BUFFER INDEX

                       00040  LOOP   SYN     *

      00040  0520 00 0 00166         ZET     TEOF          CHECK FOR PREVIOUS EOF
      00041  0020 00 0 00065         TRA     CONTIN        SKIP READ IF SO

      00042 -0500 00 1 00151         CAL     BUFLOC,1      SET BUFFER FOR READ
      00043  0602 00 0 00050         SLW     RD+4          ..

      00044                   RD     CALL    RDFILE(IN1,IN2,=0(**,...,**)EOF,COUNT) READ
      00044  0074 00 4 00176         TSX     RDFILE,4                                                         .002
      00045  3 00000 0 00170         PAR     IN1                                                              .004
      00046  3 00000 0 00171         PAR     IN2                                                              .004
      00047  3 00000 0 00201         PAR     =0                                                               .004
      00050  2 00000 0 00000         BLK     **,,**                                                           .004
      00051  3 00000 0 00113         PAR     EOF                                                              .004
      00052  3 00000 0 00164         PAR     COUNT                                                            .004

      00053  0500 00 0 00163         CLA     R.PTR         STEP THE READ POINTER
      00054  0400 00 0 00154         ADD     EOFCT         BY BUFFER LENGTH
      00055  0602 00 0 00163         SLW     R.PTR         ..

      00056  1 77777 1 00057         TXI     *+1,1,-1      STEP READ BUFFER INDEX
      00057  3 77775 1 00061         TXH     *+2,1,-3      ..
      00060 -0774 00 1 00000         AXC     0,1           ..

      00061 -0520 00 0 00165         NZT     FIRST         IF NOT FIRST TIME,
      00062  0020 00 0 00065         TRA     CONTIN        KEEP GOING
      00063  0600 00 0 00165         STZ     FIRST         OTHERWISE,
      00064  0020 00 0 00040         TRA     LOOP          GO READ ANOTHER RECORD


      00065 -0500 00 2 00151  CONTIN CAL     BUFLOC,2      SET BUFFER FOR WRITE
      00066  0602 00 0 00073         SLW     WR+4          ..

      00067                   WR     CALL    WRFILE(OUT1,OUT2,=0(**,...,**)) WRITE
      00067  0074 00 4 00177         TSX     WRFILE,4                                                         .002
      00070  3 00000 0 00172         PAR     OUT1                                                             .004
      00071  3 00000 0 00173         PAR     OUT2                                                             .004
      00072  3 00000 0 00201         PAR     =0                                                               .004
      00073  2 00000 0 00000         BLK     **,,**                                                           .004

      00074 -0520 00 0 00166         NZT     TEOF          IF EOF,
      00075  0020 00 0 00101         TRA     WINCR         ..
      00076  0756 00 2 00000         PCA     ,2            CHECK FOR HAVING WRITTEN LAST RECORD
1            COPY - COPY ONE FILE INTO ANOTHER.                                                  PAGE 3

      00077  0402 00 0 00167         SUB     EOFX          ..
      00100  0100 00 0 00105         TZE     FINISH        ..

      00101  1 77777 2 00102  WINCR  TXI     *+1,2,-1      STEP WRITE BUFFER INDEX
      00102  3 77775 2 00104         TXH     *+2,2,-3      ..
      00103 -0774 00 2 00000         AXC     0,2           ..
      00104  0020 00 0 00040         TRA     LOOP          CONTINUE COPYING


                       00105  FINISH SYN     *
      00105                          CALL    FERRTN        RESTORE OLD ERROR RETURN
      00105  0074 00 4 00174         TSX     FERRTN,4                                                         .002
      00106  0 00000 0 00000  RETERR PZE     **            ..

      00107  0774 00 1 00000  X1     AXT     **,1          RESTORE XRS
      00110  0774 00 2 00000  X2     AXT     **,2          ..
      00111  0774 00 4 00000  X4     AXT     **,4          ..
      00112  0020 00 4 00012         TRA     10,4          RETURN

      00113 -0625 00 0 00166  EOF    STL     TEOF          SET EOF INDIC.

      00114                          CALL    FSTATE(IN1,IN2(STAT,,1)) FIND LENGTH NOW
      00114  0074 00 4 00175         TSX     FSTATE,4                                                         .002
      00115  3 00000 0 00170         PAR     IN1                                                              .004
      00116  3 00000 0 00171         PAR     IN2                                                              .004
      00117  3 00001 0 00157         PAR     STAT,,1                                                          .004

      00120  0500 00 0 00157         CLA     STAT          LENGTH + 1 - POINTER
      00121  0400 00 0 00202         ADD     =1            ..
      00122  0402 00 0 00163         SUB     R.PTR         ..
      00123  0402 00 0 00164         SUB     COUNT         SHOULD EQUAL EOF COUNT
      00124  0100 00 0 00132         TZE     EOF.OK        IF SO, NOTHING TO CORRECT

      00125  0400 00 0 00154         ADD     EOFCT         LENGTH + 1 - POINTER + BUFFER LENGTH
      00126  0601 00 0 00164         STO     COUNT         IS THE CORRECT EOF COUNT

      00127  3 00000 1 00131         TXH     *+2,1,0       DECREASE THE READ BUFFER INDEX
      00130 -0774 00 1 00003         AXC     3,1           ..
      00131  1 00001 1 00132         TXI     *+1,1,1       TO CORRECT FOR MISSED EOF

      00132 -0500 00 0 00164  EOF.OK CAL     COUNT         SET EOF COUNT
      00133  0602 00 1 00154         SLW     EOFCT,1       ..
      00134  0636 00 1 00167         SCA     EOFX,1        SAVE READ BUFFER INDEX

      00135                          CALL    FWAIT(IN1,IN2) WAIT FOR I/O
      00135  0074 00 4 00200         TSX     FWAIT,4                                                          .002
      00136  3 00000 0 00170         PAR     IN1                                                              .004
      00137  3 00000 0 00171         PAR     IN2                                                              .004
      00140  0020 00 0 00065         TRA     CONTIN        NOW, FINISH UP

      00141 -0500 00 0 00106  ERR    CAL     RETERR        RESTORE OLD ERROR RETURN
      00142  0621 00 0 00144         STA     *+2           ..
      00143                          CALL    FERRTN        ..
      00143  0074 00 4 00174         TSX     FERRTN,4                                                         .002
      00144  0 00000 0 00000         PZE     **            ..
1            COPY - COPY ONE FILE INTO ANOTHER.                                                  PAGE 4

      00145  0522 00 0 00107         XEC     X1            RESTORE XRS
      00146  0522 00 0 00110         XEC     X2            ..
      00147  0522 00 0 00111         XEC     X4            ..
      00150  0020 60 4 00011         TRA*    9,4           AND TAKE ERROR RETURN


                       00151  BUFLOC SYN     *
      00151  2 00154 0 00000  BUFF1  PTW     **,,EOFCT
      00152  2 00155 0 00000  BUFF2  PTW     **,,EOFCT+1
      00153  2 00156 0 00000  BUFF3  PTW     **,,EOFCT+2

      00154                   EOFCT  BSS     3

      00157                   STAT   BSS     5
                       00163  R.PTR  SYN     STAT+4

      00164  0 00000 0 00000  COUNT  PZE
      00165  0 00000 0 00000  FIRST  PZE
      00166  0 00000 0 00000  TEOF   PZE
      00167  0 00000 0 00000  EOFX   PZE

      00170  0 00000 0 00000  IN1    PZE
      00171  0 00000 0 00000  IN2    PZE
      00172  0 00000 0 00000  OUT1   PZE
      00173  0 00000 0 00000  OUT2   PZE

      00174                          RMT     *             REMOTE SEQUENCES.
      00174  0101 00 0 00203  FERRTN TIA     =HFERRTN                                                         .002
      00175  0101 00 0 00204  FSTATE TIA     =HFSTATE                                                         .002
      00176  0101 00 0 00206  RDFILE TIA     =HRDFILE                                                         .002
      00177  0101 00 0 00207  WRFILE TIA     =HWRFILE                                                         .002
      00200  0101 00 0 00205  FWAIT  TIA     =HFWAIT                                                          .002

                                     END

        LITERALS
      00201  000000000000
      00202  000000000001
      00203  262551516345
      00204  266263216325
      00205  266621316360
      00206  512426314325
      00207  665126314325
1            COPY - COPY ONE FILE INTO ANOTHER.                                                  PAGE 1
                        POST PROCESSOR ASSEMBLY DATA

        210 IS THE FIRST LOCATION NOT USED BY THIS PROGRAM

0REFERENCES TO DEFINED SYMBOLS
         44     RD    43
         67     WR    66
        107     X1     0,  145
        110     X2     1,  146
        111     X4     2,  147
        113    EOF    51
        141    ERR    26
        170    IN1     4,   33,   45,  115,  136
        171    IN2     6,   34,   46,  116,  137
          0   COPY     0
        167   EOFX    77,  134
         40   LOOP    40,   64,  104
        172   OUT1    10,   70
        173   OUT2    12,   71
        157   STAT    35,  117,  120,  164
        166   TEOF    30,   40,   74,  113
        151  BUFF1    14
        152  BUFF2    16
        153  BUFF3    20
        164  COUNT    52,  123,  126,  132
        154  EOFCT    22,   23,   24,   54,  125,  133,  151,  152,  153
        165  FIRST    31,   61,   63
        200  FWAIT   135
        163  R.PTR    53,   55,  122,  164
        101  WINCR    75
        151 BUFLOC    42,   65,  151
         65 CONTIN    41,   62,  140
        132 EOF.OK   124
        174 FERRTN    25,  105,  143
        105 FINISH   100,  105
        175 FSTATE    32,  114
        176 RDFILE    44
        106 RETERR    27,  141
        177 WRFILE    67

0 NO ERROR IN ABOVE ASSEMBLY.


NOCMMD   BCD 10/04/70 1632.0     283         00000
1                                                                                                PAGE 1


        TRANSFER VECTOR
      00000  272563234644     GETCOM
      00001  665126436760     WRFLX

      00002  0074 00 4 00000         TSX     $GETCOM,4
      00003  0 00000 0 00000         PZE     0             GET CURRNT COMMAND NAME
      00004  0602 00 0 00011         SLW     MESS+1
      00005  0074 00 4 00001         TSX     $WRFLX,4
      00006  0 00011 0 00010         PZE     MESS,,9
      00007  0101 00 0 00021         TIA     =HDEAD
      00010  606063302560     MESS   BCI     9,  THE ****** COMMAND IS NOT CURRENTLY AVAILABLE.
      00011  545454545454
      00012  602346444421
      00013  452460316260
      00014  454663602364
      00015  515125456343
      00016  706021652131
      00017  432122432533
      00020  606060606060
                                     END

        LITERALS
      00021  242521246060
1                                                                                                PAGE 1
                        POST PROCESSOR ASSEMBLY DATA

         22 IS THE FIRST LOCATION NOT USED BY THIS PROGRAM

0REFERENCES TO DEFINED SYMBOLS
         10   MESS     4,    6
          1  WRFLX     5
          0 GETCOM     2

0 NO ERROR IN ABOVE ASSEMBLY.


OPTION   BCD 10/04/70 1632.0    6463         00000
1     MAD PROGRAM LISTING ... ... ...                 FILE  OPTION   MAD            03/03/70    1030.8
-
      OPT        ...OPTION COMMAND                                                                     LM00001
                                                                                                       LM00002
                  NORMAL MODE IS INTEGER                                                          *001 LM00003
                  GETCLS.(CBF(20))                                                                *002 LM00004
                                                                                                       LM00005
                  WHENEVER CBF(19) .E. FNS                                                        *003 LM00006
                    PR12.($'*'6OPTION'7 ARGS$)                                                    *004 LM00007
                    PR12.($  ARGS MAY BE$)                                                        *005 LM00008
                    PR12.($ '6PRINT'7'/'/TO PRINT OPTION STATUS$)                                 *006 LM00009
                    PR12.($ '6SETSYS'7 SYSNAM MASK'/TO SET UP SUBSYSTEM$)                         *007 LM00010
                    PR12.($ '6SET'7 BITS'/'/TO TURN ON USER OPTION BITS$)                         *008 LM00011
                    PR12.($ '6RESET'7 BITS'/TO TURN OFF OPTION BITS$)                             *009 LM00012
                    PR12.($ '6LOAD'7 BITS'/TO LOAD A NEW SET OF OPTIONS$)                         *010 LM00013
                    PR12.($ '6HELP'7'/'/FOR A SUMMARY OF OPTIONS '+ MASK$)                        *011 LM00014
                    PR12.                                                                         *012 LM00015
                                                                                                       LM00016
                  OR WHENEVER CBF(19) .E. $SETSYS$                                                *013 LM00017
                    SYSNAM = CBF(18)                                                              *014 LM00018
                    WHENEVER SYSNAM .E. FNS                                                       *015 LM00019
      FOO                   PR12.($ ILLEGAL OPTION COMMAND.$)                                     *016 LM00020
      XIT                   CHNCOM.(0)                                                            *017 LM00021
                    END OF CONDITIONAL                                                            *018 LM00022
                    BITS = ZEL.(CBF(17))                                                          *019 LM00023
                    WHENEVER BITS .A. $YYYYYY$ .NE. 0                                             *020 LM00024
      BADBIT                PR12.($ ILLEGAL BITS$)                                                *021 LM00025
                      TRANSFER TO XIT                                                             *022 LM00026
                    END OF CONDITIONAL                                                            *023 LM00027
                    SETSYS.(SYSNAM, BCOCT.(BITS))                                                 *024 LM00028
                                                                                                       LM00029
                  OR WHENEVER CBF(19) .E. $   SET$                                                *025 LM00030
                    BITS = ZEL.(CBF(18))                                                          *026 LM00031
                    WHENEVER BITS .A. $YYYYYY$ .NE. 0, TRANSFER TO BADBIT                         *027 LM00032
                    SETOPT.(BCOCT.(BITS))                                                         *028 LM00033
                                                                                                       LM00034
                  OR WHENEVER CBF(19) .E. $ RESET$                                                *029 LM00035
                    BITS = ZEL.(CBF(18))                                                          *030 LM00036
                    WHENEVER BITS .A. $YYYYYY$ .NE. 0, TRANSFER TO BADBIT                         *031 LM00037
                    RSOPT.(BCOCT.(BITS))                                                          *032 LM00038
                                                                                                       LM00039
                  OR WHENEVER CBF(19) .E. $  LOAD$                                                *033 LM00040
                    BITS = ZEL.(CBF(18))                                                          *034 LM00041
                    WHENEVER BITS .A. $YYYYYY$ .NE. 0, TRANSFER TO BADBIT                         *035 LM00042
                    LDOPT.(BCOCT.(BITS))                                                          *036 LM00043
                                                                                                       LM00044
                  OR WHENEVER CBF(19) .E. $  HELP$                                                *037 LM00045
                    PR12.($'USER OPTIONS:$)                                                       *038 LM00046
                    PR12.($     1. SEARCH USER 'U'F'D FIRST FOR COMMAND FILE$)                    *039 LM00047
                    PR12.($     2. SEARCH FOR COMMANDS IN USER OR SYSTEM DIRECT                   *040 LM00048
                1 ORIES, BUT NOT BOTH$)                                                           *040 LM00049
                    PR12.($     4. RESET ACTIVE FILES IF NEW COMMAND WHILE DORM                   *041 LM00050
                1 ANT RESETS CORE IMAGE$)                                                         *041 LM00051
                    PR12.($    10. ENABLE USER SUBSYSTEM$)                                        *042 LM00052
                    PR12.($    20. INHIBIT QUIT SIGNALS FROM CONSOLE$)                            *043 LM00053
                    PR12.($    40. CURRENT PROGRAM IS SUBSYSTEM$)                                 *044 LM00054
                    PR12.($   100. AUTOMATIC SAVE WHEN GOING TO SUBSYSTEM$)                       *045 LM00055
                    PR12.($'*'SUBSYSTEM CONDITION CODE MASK:$)                                    *046 LM00056
                    PR12.($     1. TRAP NEW COMMAND IF '6DEAD$)                                   *047 LM00057
                    PR12.($     2. TRAP PROGRAM CALL TO '6DEAD$)                                  *048 LM00058
                    PR12.($     4. TRAP END OF COMMAND CHAIN IF GOING '6DEAD                      *049 LM00059
                1 $)                                                                              *049 LM00060
                    PR12.($    10. TRAP ERROR IF GOING '6DEAD$)                                   *050 LM00061
                    PR12.($  1000. TRAP NEW COMMAND IF '6DORMNT$)                                 *051 LM00062
                    PR12.($  2000. TRAP CALL TO '6DORMNT$)                                        *052 LM00063
                    PR12.($  4000. TRAP END OF CHAIN IF '6DORMNT$)                                *053 LM00064
                    PR12.($ 10000. TRAP ERROR IF GOING '6DORMNT$)                                 *054 LM00065
                    PR12.                                                                         *055 LM00066
                                                                                                       LM00067
                  OR WHENEVER CBF(19) .E. $ PRINT$                                                *056 LM00068
                    GETSYS.(SYSNAM, BITS)                                                         *057 LM00069
                    OBITS = GETOPT.(0)                                                            *058 LM00070
                    PR12.($'*'CURRENT OPTION STATUS:$)                                            *059 LM00071
                    PR12.($ OPTION BITS:    '8$,OCRBC.(OBITS))                                    *060 LM00072
                    WHENEVER OBITS .A. 10K .NE. 0                                                 *061 LM00073
                      PR12.($ SUBSYSTEM:      '6'8$,SYSNAM)                                       *062 LM00074
                      PR12.($ SUBSYSTEM MASK: '8$,OCRBC.(BITS))                                   *063 LM00075
                    OTHERWISE                                                                     *064 LM00076
                      PR12.($ NO SUBSYSTEM$)                                                      *065 LM00077
                    END OF CONDITIONAL                                                            *066 LM00078
                    PR12.                                                                         *067 LM00079
                                                                                                       LM00080
                  OTHERWISE                                                                       *068 LM00081
                    TRANSFER TO FOO                                                               *069 LM00082
                  END OF CONDITIONAL                                                              *070 LM00083
                  CHNCOM.(0)                                                                      *071 LM00084
                                                                                                       LM00085
                  VECTOR VALUES FNS    = 777777777777K                                            *072 LM00086
                  DIMENSION CBF(20)                                                               *073 LM00087
                  END OF PROGRAM                                                                  *074 LM00088
1MAD PROGRAM,TYPE NOV 1963      (ALL NUMBERS ARE OCTAL)
0TOTAL LOCATIONS   01101 TRANSFER VECTOR LENGTH  00016 PROGRAM BEGINS    00330
0VARIABLE STORAGE (A=ARRAY,C=COMMON,E=ERASABLE,DIGIT=MODE)
      BADBIT 00017   4        CBF    00047 A 1        FOO    00020   4        SYSNAM 00052   1        XIT    00021   4
      BITS   00022   1        FNS    00050 A 1        OBITS  00051   1
0FUNCTION DICTIONARY
      BCOCT  00000   1        CHNCOM 00001   1        EXIT   00002   1        GETCLS 00003   1        GETOPT 00004   1
      GETSYS 00005   1        .SETUP 00006   1        LDOPT  00007   1        OCRBC  00010   1        PR12   00011   1
      RSOPT  00012   1        SETOPT 00013   1        SETSYS 00014   1        ZEL    00015   1
0ABSOLUTE CONSTANTS
 00154 -046060606060     00103 +226270626325     00234 -204546606264     00077 +216242356014     00301 -226325446044
 00056 +061410606060     00260 -206060606014     00300 -226325443560     00055 +000000000010     00061 +106060606060
 00145 +356060606014     00161 -056022316362     00146 +356060606060     00200 -112545636046     00065 +145414236451
 00240 -204751314563     00206 -200100000000     00315 -236060606060     00060 +062446514445     00162 -056031266014
 00123 +266023302131     00245 -206004000000     00172 -065144456360     00312 -234660140624     00217 -202321434360
 00244 -206002000000     00112 +244651444563     00243 -206001000000     00127 +314527601406     00226 -203126602746
 00223 -202551514651     00113 +246060606060     00207 -201406242521     00224 -202746314527     00071 +213145603126
 00075 +214524602330     00124 +266023464444     00222 -202545246046     00057 +062425212460     00150 -036063466014
 00074 +214460232143     00241 -204751462751     00110 +242521246060     00225 -203126601406     00170 -064444214524
 00233 -204525666023     00144 +336063512147     00274 -224235606060     00166 -062425604421     00311 -233146456023
 00221 -202346452431     00066 +145414626422     00302 -226325446060     00262 -206264226270     00130 +314527606346
 00125 +302545602746     00270 -222165256066     00151 -042163312360     00136 +336021646346     00251 -206060010000
 00306 -227062632544     00133 +316260626422     00167 -062751214460     00115 +254563604751     00137 +336023645151
 00254 -206060600400     00163 -056246432560     00202 -114644602346     00155 -052143626026     00134 +316360623127
 00101 +223163605064     00141 +336031453031     00253 -206060600200     00326 -306263254460     00204 -116062642262
 00147 -032560646225     00140 +336025452122     00252 -206060600100     00117 +256031442127     00320 -236260234651
 00314 -236051256225     00111 +244651442145     00325 -263031432560     00153 -044421452460     00160 -052566602346
 00121 +256260312660     00324 -252560263143     00313 -236021236331     00142 +336051256225     00257 -206060606004
 00216 -202246633060     00323 -246360454663     00126 +312562736022     00177 -112523634651     00307 -232544602431
 00173 -065160627062     00264 -206462255160     00157 -052462603145     00105 +233060264651     00256 -206060606002
 00156 -052460263143     00220 -202346444421     00303 -226360264651     00063 +142460263151     00203 -116014641426
 00106 +233060646225     00143 +336062252151     00255 -206060606001     00273 -223560606060     00070 +146462255160
 00247 -206030254347     00250 -206043462124     00242 -205125622563     00261 -206060622563     00276 -226060606060
 00072 +214360223163     00327 -307070707070     00053 +000000000000     00152 -044421452433     00132 +314645602346
 00073 +214360464763     00227 -203143432527     00272 -222563627062     00100 +216242606060     00275 -226014206044
 00171 -064763314645     00205 -117060462660     00263 -206264444421     00265 -212646516021     00175 -071407146114
 00210 -201406302543     00164 -056260606060     00237 -204647633146     00271 -222563604626     00076 +216045256660
 00230 -204346212460     00317 -236214616346     00107 +241407602231     00211 -201406434621     00102 +223163626060
 00235 -204626266046     00135 +316362146163     00122 +256314076022     00213 -201406512562     00321 -236260606060
 00131 +314645602231     00116 +255160464763     00236 -204645606462     00174 -066063645145     00267 -221461146163
 00062 +140760223163     00114 +254460606060     00322 -242262706263     00316 -236064476062     00266 -216346606225
 00231 -204421624214     00305 -227062452144     00304 -227062140760     00214 -201406622563     00277 -226321636462
 00176 -076331464560     00201 -113145636046     00067 +146163466047     00165 -056314071461     00212 -201406475131
 00120 +256060606060     00232 -204421706022     00246 -206021512762     00215 -202151276260     00310 -233146451407
 00064 +145414064647     00054 +000000000001     00104 +233000000000
0STATEMENT DICTIONARY
 00017 TXL -300467000463       00020 TXL -300450000443       00021 TXL -300452000450
0PROGRAM
                 N'R                                                                001  LM00003
                 GETCLS.(CBF(20))                                                   002  LM00004
 00330 TSX +0 07400 4 00006    00331 TSX +0 07400 4 00003    00332 TXH +3 00000 0 00023
                 W'R CBF(19) .E. FNS                                                003  LM00006
 00333 CLA +0 50000 0 00024    00334 SUB +0 40200 0 00050    00335 TNZ -0 10000 0 00433
                   PR12.($'*'6OPTION'7 ARGS$)                                       004  LM00007
 00336 TSX +0 07400 4 00011    00337 TXH +3 00000 0 00064    00340 TXH +3 00000 0 00310    00341 TXH +3 00000 0 00215
                   PR12.($  ARGS MAY BE$)                                           005  LM00008
 00342 TSX +0 07400 4 00011    00343 TXH +3 00000 0 00246    00344 TXH +3 00000 0 00232    00345 TXH +3 00000 0 00120
                   PR12.($ '6PRINT'7'/'/TO PRINT OPTION STATUS$)                    006  LM00009
 00346 TSX +0 07400 4 00011    00347 TXH +3 00000 0 00212    00350 TXH +3 00000 0 00165    00351 TXH +3 00000 0 00067
 00352 TXH +3 00000 0 00201    00353 TXH +3 00000 0 00176    00354 TXH +3 00000 0 00277
                   PR12.($ '6SETSYS'7 SYSNAM MASK'/TO SET UP SUBSYSTEM$)            007  LM00010
 00355 TSX +0 07400 4 00011    00356 TXH +3 00000 0 00214    00357 TXH +3 00000 0 00304    00360 TXH +3 00000 0 00305
 00361 TXH +3 00000 0 00231    00362 TXH +3 00000 0 00266    00363 TXH +3 00000 0 00316    00364 TXH +3 00000 0 00322
 00365 TXH +3 00000 0 00114
                   PR12.($ '6SET'7 BITS'/'/TO TURN ON USER OPTION BITS$)            008  LM00011
 00366 TSX +0 07400 4 00011    00367 TXH +3 00000 0 00214    00370 TXH +3 00000 0 00062    00371 TXH +3 00000 0 00267
 00372 TXH +3 00000 0 00174    00373 TXH +3 00000 0 00236    00374 TXH +3 00000 0 00116    00375 TXH +3 00000 0 00131
 00376 TXH +3 00000 0 00321
                   PR12.($ '6RESET'7 BITS'/TO TURN OFF OPTION BITS$)                009  LM00012
 00377 TSX +0 07400 4 00011    00400 TXH +3 00000 0 00213    00401 TXH +3 00000 0 00122    00402 TXH +3 00000 0 00135
 00403 TXH +3 00000 0 00174    00404 TXH +3 00000 0 00235    00405 TXH +3 00000 0 00176    00406 TXH +3 00000 0 00102
                   PR12.($ '6LOAD'7 BITS'/TO LOAD A NEW SET OF OPTIONS$)            010  LM00013
 00407 TSX +0 07400 4 00011    00410 TXH +3 00000 0 00211    00411 TXH +3 00000 0 00107    00412 TXH +3 00000 0 00317
 00413 TXH +3 00000 0 00230    00414 TXH +3 00000 0 00076    00415 TXH +3 00000 0 00271    00416 TXH +3 00000 0 00237
 00417 TXH +3 00000 0 00164
                   PR12.($ '6HELP'7'/'/FOR A SUMMARY OF OPTIONS '+ MASK$)           011  LM00014
 00420 TSX +0 07400 4 00011    00421 TXH +3 00000 0 00210    00422 TXH +3 00000 0 00175    00423 TXH +3 00000 0 00265
 00424 TXH +3 00000 0 00263    00425 TXH +3 00000 0 00205    00426 TXH +3 00000 0 00171    00427 TXH +3 00000 0 00275
 00430 TXH +3 00000 0 00100
                   PR12.                                                            012  LM00015
 00431 TSX +0 07400 4 00011
                 O'R CBF(19) .E. $SETSYS$                                           013  LM00017
 00432 TRA +0 02000 0 01073    00433 CLA +0 50000 0 00024    00434 SUB +0 40200 0 00272    00435 TNZ -0 10000 0 00477
                   SYSNAM = CBF(18)                                                 014  LM00018
 00436 CLA +0 50000 0 00025    00437 STO +0 60100 0 00052
                   W'R SYSNAM .E. FNS                                               015  LM00019
 00440 CLA +0 50000 0 00052    00441 SUB +0 40200 0 00050    00442 TNZ -0 10000 0 00452
      FOO                  PR12.($ ILLEGAL OPTION COMMAND.$)                        016  LM00020
 00443 TSX +0 07400 4 00011    00444 TXH +3 00000 0 00227    00445 TXH +3 00000 0 00073    00446 TXH +3 00000 0 00132
 00447 TXH +3 00000 0 00152
      XIT                  CHNCOM.(0)                                               017  LM00021
 00450 TSX +0 07400 4 00001    00451 TXH +3 00000 0 00053
                   E'L                                                              018  LM00022
                   BITS = ZEL.(CBF(17))                                             019  LM00023
 00452 TSX +0 07400 4 00015    00453 TXH +3 00000 0 00026    00454 STO +0 60100 0 00022
                   W'R BITS .A. $YYYYYY$ .NE. 0                                     020  LM00024
 00455 CAL -0 50000 0 00022    00456 ANA -0 32000 0 00327    00457 SLW +0 60200 0 01076    00460 CLA +0 50000 0 01076
 00461 SUB +0 40200 0 00053    00462 TZE +0 10000 0 00470
      BADBIT               PR12.($ ILLEGAL BITS$)                                   021  LM00025
 00463 TSX +0 07400 4 00011    00464 TXH +3 00000 0 00227    00465 TXH +3 00000 0 00072    00466 TXH +3 00000 0 00276
                     T'O XIT                                                        022  LM00026
 00467 TRA +0 02000 0 00021
                   E'L                                                              023  LM00027
                   SETSYS.(SYSNAM, BCOCT.(BITS))                                    024  LM00028
 00470 TSX +0 07400 4 00000    00471 TXH +3 00000 0 00022    00472 STO +0 60100 0 01076    00473 TSX +0 07400 4 00014
 00474 TXH +3 00000 0 00052    00475 TXH +3 00000 0 01076
                 O'R CBF(19) .E. $   SET$                                           025  LM00030
 00476 TRA +0 02000 0 01073    00477 CLA +0 50000 0 00024    00500 SUB +0 40200 0 00261    00501 TNZ -0 10000 0 00522
                   BITS = ZEL.(CBF(18))                                             026  LM00031
 00502 TSX +0 07400 4 00015    00503 TXH +3 00000 0 00025    00504 STO +0 60100 0 00022
                   W'R BITS .A. $YYYYYY$ .NE. 0, T'O BADBIT                         027  LM00032
 00505 CAL -0 50000 0 00022    00506 ANA -0 32000 0 00327    00507 SLW +0 60200 0 01076    00510 CLA +0 50000 0 01076
 00511 SUB +0 40200 0 00053    00512 TZE +0 10000 0 00514    00513 TRA +0 02000 0 00017
                   SETOPT.(BCOCT.(BITS))                                            028  LM00033
 00514 TSX +0 07400 4 00000    00515 TXH +3 00000 0 00022    00516 STO +0 60100 0 01076    00517 TSX +0 07400 4 00013
 00520 TXH +3 00000 0 01076
                 O'R CBF(19) .E. $ RESET$                                           029  LM00035
 00521 TRA +0 02000 0 01073    00522 CLA +0 50000 0 00024    00523 SUB +0 40200 0 00242    00524 TNZ -0 10000 0 00545
                   BITS = ZEL.(CBF(18))                                             030  LM00036
 00525 TSX +0 07400 4 00015    00526 TXH +3 00000 0 00025    00527 STO +0 60100 0 00022
                   W'R BITS .A. $YYYYYY$ .NE. 0, T'O BADBIT                         031  LM00037
 00530 CAL -0 50000 0 00022    00531 ANA -0 32000 0 00327    00532 SLW +0 60200 0 01076    00533 CLA +0 50000 0 01076
 00534 SUB +0 40200 0 00053    00535 TZE +0 10000 0 00537    00536 TRA +0 02000 0 00017
                   RSOPT.(BCOCT.(BITS))                                             032  LM00038
 00537 TSX +0 07400 4 00000    00540 TXH +3 00000 0 00022    00541 STO +0 60100 0 01076    00542 TSX +0 07400 4 00012
 00543 TXH +3 00000 0 01076
                 O'R CBF(19) .E. $  LOAD$                                           033  LM00040
 00544 TRA +0 02000 0 01073    00545 CLA +0 50000 0 00024    00546 SUB +0 40200 0 00250    00547 TNZ -0 10000 0 00570
                   BITS = ZEL.(CBF(18))                                             034  LM00041
 00550 TSX +0 07400 4 00015    00551 TXH +3 00000 0 00025    00552 STO +0 60100 0 00022
                   W'R BITS .A. $YYYYYY$ .NE. 0, T'O BADBIT                         035  LM00042
 00553 CAL -0 50000 0 00022    00554 ANA -0 32000 0 00327    00555 SLW +0 60200 0 01076    00556 CLA +0 50000 0 01076
 00557 SUB +0 40200 0 00053    00560 TZE +0 10000 0 00562    00561 TRA +0 02000 0 00017
                   LDOPT.(BCOCT.(BITS))                                             036  LM00043
 00562 TSX +0 07400 4 00000    00563 TXH +3 00000 0 00022    00564 STO +0 60100 0 01076    00565 TSX +0 07400 4 00007
 00566 TXH +3 00000 0 01076
                 O'R CBF(19) .E. $  HELP$                                           037  LM00045
 00567 TRA +0 02000 0 01073    00570 CLA +0 50000 0 00024    00571 SUB +0 40200 0 00247    00572 TNZ -0 10000 0 01006
                   PR12.($'USER OPTIONS:$)                                          038  LM00046
 00573 TSX +0 07400 4 00011    00574 TXH +3 00000 0 00070    00575 TXH +3 00000 0 00171    00576 TXH +3 00000 0 00273
                   PR12.($     1. SEARCH USER 'U'F'D FIRST FOR COMMAND FILE$)       039  LM00047
 00577 TSX +0 07400 4 00011    00600 TXH +3 00000 0 00255    00601 TXH +3 00000 0 00143    00602 TXH +3 00000 0 00106
 00603 TXH +3 00000 0 00203    00604 TXH +3 00000 0 00063    00605 TXH +3 00000 0 00303    00606 TXH +3 00000 0 00220
 00607 TXH +3 00000 0 00156    00610 TXH +3 00000 0 00120
                   PR12.($     2. SEARCH FOR COMMANDS IN USER OR SYSTEM DIRECT      040  LM00048
                1ORIES, BUT NOT BOTH$)                                              040  LM00049
 00611 TSX +0 07400 4 00011    00612 TXH +3 00000 0 00256    00613 TXH +3 00000 0 00143    00614 TXH +3 00000 0 00105
 00615 TXH +3 00000 0 00220    00616 TXH +3 00000 0 00157    00617 TXH +3 00000 0 00264    00620 TXH +3 00000 0 00173
 00621 TXH +3 00000 0 00307    00622 TXH +3 00000 0 00177    00623 TXH +3 00000 0 00126    00624 TXH +3 00000 0 00323
 00625 TXH +3 00000 0 00216
                   PR12.($     4. RESET ACTIVE FILES IF NEW COMMAND WHILE DORM      041  LM00050
                1ANT RESETS CORE IMAGE$)                                            041  LM00051
 00626 TSX +0 07400 4 00011    00627 TXH +3 00000 0 00257    00630 TXH +3 00000 0 00142    00631 TXH +3 00000 0 00313
 00632 TXH +3 00000 0 00324    00633 TXH +3 00000 0 00121    00634 TXH +3 00000 0 00160    00635 TXH +3 00000 0 00153
 00636 TXH +3 00000 0 00325    00637 TXH +3 00000 0 00111    00640 TXH +3 00000 0 00314    00641 TXH +3 00000 0 00320
 00642 TXH +3 00000 0 00117    00643 TXH +3 00000 0 00120
                   PR12.($    10. ENABLE USER SUBSYSTEM$)                           042  LM00052
 00644 TSX +0 07400 4 00011    00645 TXH +3 00000 0 00252    00646 TXH +3 00000 0 00140    00647 TXH +3 00000 0 00147
 00650 TXH +3 00000 0 00204    00651 TXH +3 00000 0 00326
                   PR12.($    20. INHIBIT QUIT SIGNALS FROM CONSOLE$)               043  LM00053
 00652 TSX +0 07400 4 00011    00653 TXH +3 00000 0 00253    00654 TXH +3 00000 0 00141    00655 TXH +3 00000 0 00101
 00656 TXH +3 00000 0 00134    00657 TXH +3 00000 0 00155    00660 TXH +3 00000 0 00202    00661 TXH +3 00000 0 00163
                   PR12.($    40. CURRENT PROGRAM IS SUBSYSTEM$)                    044  LM00054
 00662 TSX +0 07400 4 00011    00663 TXH +3 00000 0 00254    00664 TXH +3 00000 0 00137    00665 TXH +3 00000 0 00115
 00666 TXH +3 00000 0 00167    00667 TXH +3 00000 0 00133    00670 TXH +3 00000 0 00306
                   PR12.($   100. AUTOMATIC SAVE WHEN GOING TO SUBSYSTEM$)          045  LM00055
 00671 TSX +0 07400 4 00011    00672 TXH +3 00000 0 00251    00673 TXH +3 00000 0 00136    00674 TXH +3 00000 0 00151
 00675 TXH +3 00000 0 00270    00676 TXH +3 00000 0 00125    00677 TXH +3 00000 0 00130    00700 TXH +3 00000 0 00262
 00701 TXH +3 00000 0 00302
                   PR12.($'*'SUBSYSTEM CONDITION CODE MASK:$)                       046  LM00056
 00702 TSX +0 07400 4 00011    00703 TXH +3 00000 0 00066    00704 TXH +3 00000 0 00306    00705 TXH +3 00000 0 00221
 00706 TXH +3 00000 0 00311    00707 TXH +3 00000 0 00166    00710 TXH +3 00000 0 00274
                   PR12.($     1. TRAP NEW COMMAND IF '6DEAD$)                      047  LM00057
 00711 TSX +0 07400 4 00011    00712 TXH +3 00000 0 00255    00713 TXH +3 00000 0 00144    00714 TXH +3 00000 0 00233
 00715 TXH +3 00000 0 00170    00716 TXH +3 00000 0 00225    00717 TXH +3 00000 0 00110
                   PR12.($     2. TRAP PROGRAM CALL TO '6DEAD$)                     048  LM00058
 00720 TSX +0 07400 4 00011    00721 TXH +3 00000 0 00256    00722 TXH +3 00000 0 00144    00723 TXH +3 00000 0 00241
 00724 TXH +3 00000 0 00074    00725 TXH +3 00000 0 00150    00726 TXH +3 00000 0 00057
                   PR12.($     4. TRAP END OF COMMAND CHAIN IF GOING '6DEAD         049  LM00059
                1$)                                                                 049  LM00060
 00727 TSX +0 07400 4 00011    00730 TXH +3 00000 0 00257    00731 TXH +3 00000 0 00144    00732 TXH +3 00000 0 00222
 00733 TXH +3 00000 0 00124    00734 TXH +3 00000 0 00075    00735 TXH +3 00000 0 00071    00736 TXH +3 00000 0 00224
 00737 TXH +3 00000 0 00207    00740 TXH +3 00000 0 00113
                   PR12.($    10. TRAP ERROR IF GOING '6DEAD$)                      050  LM00061
 00741 TSX +0 07400 4 00011    00742 TXH +3 00000 0 00252    00743 TXH +3 00000 0 00144    00744 TXH +3 00000 0 00223
 00745 TXH +3 00000 0 00226    00746 TXH +3 00000 0 00127    00747 TXH +3 00000 0 00110
                   PR12.($  1000. TRAP NEW COMMAND IF '6DORMNT$)                    051  LM00062
 00750 TSX +0 07400 4 00011    00751 TXH +3 00000 0 00243    00752 TXH +3 00000 0 00144    00753 TXH +3 00000 0 00233
 00754 TXH +3 00000 0 00170    00755 TXH +3 00000 0 00225    00756 TXH +3 00000 0 00112
                   PR12.($  2000. TRAP CALL TO '6DORMNT$)                           052  LM00063
 00757 TSX +0 07400 4 00011    00760 TXH +3 00000 0 00244    00761 TXH +3 00000 0 00144    00762 TXH +3 00000 0 00217
 00763 TXH +3 00000 0 00312    00764 TXH +3 00000 0 00172
                   PR12.($  4000. TRAP END OF CHAIN IF '6DORMNT$)                   053  LM00064
 00765 TSX +0 07400 4 00011    00766 TXH +3 00000 0 00245    00767 TXH +3 00000 0 00144    00770 TXH +3 00000 0 00222
 00771 TXH +3 00000 0 00123    00772 TXH +3 00000 0 00162    00773 TXH +3 00000 0 00060    00774 TXH +3 00000 0 00315
                   PR12.($ 10000. TRAP ERROR IF GOING '6DORMNT$)                    054  LM00065
 00775 TSX +0 07400 4 00011    00776 TXH +3 00000 0 00206    00777 TXH +3 00000 0 00144    01000 TXH +3 00000 0 00223
 01001 TXH +3 00000 0 00226    01002 TXH +3 00000 0 00127    01003 TXH +3 00000 0 00112
                   PR12.                                                            055  LM00066
 01004 TSX +0 07400 4 00011
                 O'R CBF(19) .E. $ PRINT$                                           056  LM00068
 01005 TRA +0 02000 0 01073    01006 CLA +0 50000 0 00024    01007 SUB +0 40200 0 00240    01010 TNZ -0 10000 0 01072
                   GETSYS.(SYSNAM, BITS)                                            057  LM00069
 01011 TSX +0 07400 4 00005    01012 TXH +3 00000 0 00052    01013 TXH +3 00000 0 00022
                   OBITS = GETOPT.(0)                                               058  LM00070
 01014 TSX +0 07400 4 00004    01015 TXH +3 00000 0 00053    01016 STO +0 60100 0 00051
                   PR12.($'*'CURRENT OPTION STATUS:$)                               059  LM00071
 01017 TSX +0 07400 4 00011    01020 TXH +3 00000 0 00065    01021 TXH +3 00000 0 00200    01022 TXH +3 00000 0 00176
 01023 TXH +3 00000 0 00277    01024 TXH +3 00000 0 00146
                   PR12.($ OPTION BITS:    '8$,OCRBC.(OBITS))                       060  LM00072
 01025 TSX +0 07400 4 00010    01026 TXH +3 00000 0 00051    01027 STO +0 60100 0 01076    01030 TSX +0 07400 4 00011
 01031 TXH +3 00000 0 00237    01032 TXH +3 00000 0 00161    01033 TXH +3 00000 0 00145    01034 TXH +3 00000 0 00061
 01035 TXH +3 00000 0 01076
                   W'R OBITS .A. 10K .NE. 0                                         061  LM00073
 01036 CAL -0 50000 0 00051    01037 ANA -0 32000 0 00055    01040 SLW +0 60200 0 01076    01041 CLA +0 50000 0 01076
 01042 SUB +0 40200 0 00053    01043 TZE +0 10000 0 01064
                     PR12.($ SUBSYSTEM:      '6'8$,SYSNAM)                          062  LM00074
 01044 TSX +0 07400 4 00011    01045 TXH +3 00000 0 00262    01046 TXH +3 00000 0 00300    01047 TXH +3 00000 0 00260
 01050 TXH +3 00000 0 00056    01051 TXH +3 00000 0 00052
                     PR12.($ SUBSYSTEM MASK: '8$,OCRBC.(BITS))                      063  LM00075
 01052 TSX +0 07400 4 00010    01053 TXH +3 00000 0 00022    01054 STO +0 60100 0 01076    01055 TSX +0 07400 4 00011
 01056 TXH +3 00000 0 00262    01057 TXH +3 00000 0 00301    01060 TXH +3 00000 0 00077    01061 TXH +3 00000 0 00061
 01062 TXH +3 00000 0 01076
                   O'E                                                              064  LM00076
 01063 TRA +0 02000 0 01070
                     PR12.($ NO SUBSYSTEM$)                                         065  LM00077
 01064 TSX +0 07400 4 00011    01065 TXH +3 00000 0 00234    01066 TXH +3 00000 0 00103    01067 TXH +3 00000 0 00154
                   E'L                                                              066  LM00078
                   PR12.                                                            067  LM00079
 01070 TSX +0 07400 4 00011
                 O'E                                                                068  LM00081
 01071 TRA +0 02000 0 01073
                   T'O FOO                                                          069  LM00082
 01072 TRA +0 02000 0 00020
                 E'L                                                                070  LM00083
                 CHNCOM.(0)                                                         071  LM00084
 01073 TSX +0 07400 4 00001    01074 TXH +3 00000 0 00053
                 V'S FNS    = 777777777777K                                         072  LM00086
 00050     -3 77777 7 77777
                 D'N CBF(20)                                                        073  LM00087
                 E'M                                                                074  LM00088
 01075 TSX +0 07400 4 00002


     P   BCD 02/08/69 2403.5   43162         00000
