1     MAD PROGRAM LISTING ... ... ...                 FILE  PRINT0   MAD            02/07/68    2232.7
-
       PRNTF     ..PRINTS FILE OF VARIABLE LENGTH BCD RECORDS                                          LM00001
                                                                                                       LM00002
                 ..PRINT NAME1 NAME2 R (TO R1) F(1) L(1) ... F(N) L(N)                                 LM00003
                 ..TAB (FULL)                                                                          LM00004
                                                                                                       LM00005
                 ..PRINTING BEGINS WITH THE RTH RECORD, ENDS WITH R1TH RECORD                          LM00006
                 ..PRINTED LINE IS A CONCATENATION OF EVERY F(I)...L(I) FIELDS                         LM00007
                 ..WHERE F(I) AND L(I) ARE THE RANKS OF FIRST AND LAST                                 LM00008
                 ..CHARACTER OF THE FIELD SELECTED FROM THE RECORD                                     LM00009
                 .. 'R' IS INTERPRETED AS A LINE NUMBER, AS LONG AS RECORDS                            LM00010
                 ..KEEP 14 WORDS LONG.  ANY DIFFERENT LENGTH SWITCHES TO                               LM00011
                 ..INTERPRETATION AS RECORD NUMBER STARTING FROM 1, BY 1.                              LM00012
                 .. 'THRU' INSTEAD OF 'TO', FORCES RECORD NUMBER MODE.                                 LM00013
                 ..LINE NUMBER IS PRINTED ON THE LEFT, UNLESS USER'S                                   LM00014
                 ..EDITING SPECIFICATIONS. (LINE NUMBER = COL. 73 - 80)                                LM00015
                 ..LAST L(N) MAY BE OMITTED, AND IS ASSUMED F(N).                                      LM00016
                 ..COMPUTATION CENTER     JUNE 64              LOUIS POUZIN                            LM00017
                 ..OCTOBER     65     E.QUISENBERRY                                                    LM00018
                                                                                                       LM00019
                  GCLS.(A,0)                                                                      *001 LM00020
      AA          THROUGH AA, FOR A=1, 1, A.E.20.OR.A(A).E.FENCE                                  *002 LM00021
                                                                                                       LM00022
                 ..THERE ARE A-1 SIGNIFICANT ARGUMENTS                                                 LM00023
                                                                                                       LM00024
                  WHENEVER A.LE.2, TRANSFER TO ERR1                                               *003 LM00025
                  BFOPEN.($R$,A(1),A(2),BUF1(432),-0,-0,NEXT)                                     *004 LM00026
                  TRANSFER TO WHEN                                                                *005 LM00027
      NEXT        PRNTER.(61K)                                                                    *006 LM00028
                    EXECUTE BRAKE.                                                                *007 LM00029
                    TRANSFER TO OUT                                                               *008 LM00030
      WHEN        WHENEVER A.E.3,TRANSFER TO DD                                                   *009 LM00031
                  WHENEVER A(3).E.$(FULL)$                                                        *010 LM00032
                    EXECUTE FULMD.                                                                *011 LM00033
                    FULL=5                                                                        *012 LM00034
                    WHENEVER A.E.4,TRANSFER TO DD                                                 *013 LM00035
                  N=4                                                                             *014 LM00036
                  OTHERWISE                                                                       *015 LM00037
                    N=3                                                                           *016 LM00038
                  END OF CONDITIONAL                                                              *017 LM00039
                  WHENEVER TDEC.(A(N)).E.0, EXECUTE ERR2.(A(N))                                   *018 LM00040
                  R=BCDEC.(A(N))                                                                  *019 LM00041
                  WHENEVER R.E.0, R=1                                                             *020 LM00042
                  LN=ZEL.(A(N))                                                                   *021 LM00043
                  WHENEVER A.E.N+1, TRANSFER TO DD                                                *022 LM00044
                  WHENEVER A(N+1).E.$(FULL)$                                                      *023 LM00045
                    EXECUTE FULMD.                                                                *024 LM00046
                    FULL=5                                                                        *025 LM00047
                    TRANSFER TO DD                                                                *026 LM00048
                  END OF CONDITIONAL                                                              *027 LM00049
                  WHENEVER A(N+1).E.$  THRU$                                                      *028 LM00050
                    FIX=0                                                                         *029 LM00051
                    TRANSFER TO GG                                                                *030 LM00052
                  OR WHENEVER A(N+1).E.$    TO$                                                   *031 LM00053
      GG            CONTINUE                                                                      *032 LM00054
                    WHENEVER A.GE.N+3                                                             *033 LM00055
                      WHENEVER TDEC.(A(N+2)).E.0, EXECUTE ERR2.(A(N+2))                           *034 LM00056
                      L1=ZEL.(A(N+2))                                                             *035 LM00057
                    END OF CONDITIONAL                                                            *036 LM00058
                    D=N+2                                                                         *037 LM00059
                    WHENEVER L1.L.LN                                                              *038 LM00060
                      MES2=A(N)                                                                   *039 LM00061
                      MES2(2)=A(N+2)                                                              *040 LM00062
                      EXECUTE PRNTP.(MES2)                                                        *041 LM00063
                      EXECUTE BRAKE.                                                              *042 LM00064
                      TRANSFER TO OUT                                                             *043 LM00065
                    END OF CONDITIONAL                                                            *044 LM00066
                    WHENEVER A.LE.N+3, TRANSFER TO DD                                             *045 LM00067
                  END OF CONDITIONAL                                                              *046 LM00068
                  MINUS=0                                                                         *047 LM00069
                  THROUGH EE, FOR E=D+1,1,E.E.A                                                   *048 LM00070
                  WHENEVER A(E).E.$   TAB$,TRANSFER TO QBMP                                       *049 LM00071
                  WHENEVER A(E).E.$(FULL)$                                                        *050 LM00072
                  EXECUTE FULMD.                                                                  *051 LM00073
                  MINUS=MINUS+1                                                                   *052 LM00074
                  FULL=5                                                                          *053 LM00075
                  TRANSFER TO EE                                                                  *054 LM00076
                  END OF CONDITIONAL                                                              *055 LM00077
                  WHENEVER TDEC.(A(E)).E.0,EXECUTE ERR2.(A(E))                                    *056 LM00078
                  EDIT=1                                                                          *057 LM00079
                  C=BCDEC.(A(E))                                                                  *058 LM00080
                  C(E-D-MINUS)=C                                                                  *059 LM00081
                  WHENEVER XMOD.(E-D-MINUS,2).E.1,C(E-D-MINUS+1)=C                                *060 LM00082
                  TRANSFER TO EE                                                                  *061 LM00083
      QBMP        TBCT=TBCT+1                                                                     *062 LM00084
                  MINUS=MINUS+1                                                                   *063 LM00085
      EE          CONTINUE                                                                        *064 LM00086
      DD          CONTINUE                                                                        *065 LM00087
                                                                                                       LM00088
                                                                                                       LM00089
                  EXECUTE SETBRK.(FF1)                                                            *066 LM00090
                  WHENEVER R.LE.1.AND.D.E.3.AND.MES3.E.0                                          *067 LM00091
                  KK(0)=575757575755K                                                             *068 LM00092
                  KK(1)=A(1)                                                                      *069 LM00093
                  KK(2)=575757575760K                                                             *070 LM00094
                  KK(3)=A(2)                                                                      *071 LM00095
                  KK(4)=606060606060K                                                             *072 LM00096
                  KK(6)=KK(2)                                                                     *073 LM00097
                  GETTM.(KK(5),KK(7))                                                             *074 LM00098
                  KK(8)=KK(0)                                                                     *075 LM00099
                  KK(9)=575757575755K                                                             *076 LM00100
                  KK(10)=FENCE                                                                    *077 LM00101
                  PRNTPC.(KK)                                                                     *078 LM00102
                  END OF CONDITIONAL                                                              *079 LM00103
                  THROUGH BB, FOR B=1,1,FIX.E.0.AND.B.G.R                                         *080 LM00104
                  BFREAD.(A(1),A(2),K(NAX)...1,FF,QEOFCT,QERR)                                    *081 LM00105
                  WHENEVER K(NAX).A.MASK1.NE.MASK1                                                *082 LM00106
                    TRANSFER TO LNUM                                                              *083 LM00107
                  OTHERWISE                                                                       *084 LM00108
                      EXECUTE INMK.                                                               *085 LM00109
                  FIX=0                                                                           *086 LM00110
                  END OF CONDITIONAL                                                              *087 LM00111
                  TRANSFER TO BB                                                                  *088 LM00112
                 ..CARD IMAGE FILES SHOULD ONLY BE PRINTED IN THE 6 BIT MODE                           LM00113
      LNUM        BFREAD.(A(1),A(2),K(21)...13,FF,QEOFCT,QERR)                                    *089 LM00114
                  WHENEVER GLBLN.(W).GE.LN.AND.FIX.E.1,TRANSFER TO JJ                             *090 LM00115
      BB          CONTINUE                                                                        *091 LM00116
      JJ          CONTINUE                                                                        *092 LM00117
                  WHENEVER GLBLN.(W).G.L1.AND.FIX.E.1,TRANSFER TO FF                              *093 LM00118
                                                                                                       LM00119
                  R1=BCDEC.(L1)                                                                   *094 LM00120
                  WHENEVER EDIT.E.0                                                               *095 LM00121
                  THROUGH LL,FOR L=R,1,L.G.R1.AND.FIX.E.0                                         *096 LM00122
                  WHENEVER FIX.E.0.AND.K(NAX).A.MASK1.E.MASK1,TRANSFER TO MARK1                   *097 LM00123
                  WHENEVER FIX.E.0                                                                *098 LM00124
                    ICD=-1                                                                        *099 LM00125
                    LINC=12                                                                       *100 LM00126
                    EGB=22                                                                        *101 LM00127
                  TRANSFER TO MARK2                                                               *102 LM00128
                  END OF CONDITIONAL                                                              *103 LM00129
                  KK(0)=K(10)                                                                     *104 LM00130
                  KK(1)=K(9)                                                                      *105 LM00131
                  ZERO=2                                                                          *106 LM00132
                  ICD=1                                                                           *107 LM00133
                  LINC=12                                                                         *108 LM00134
                  EGB=22                                                                          *109 LM00135
                  TRANSFER TO MARK2                                                               *110 LM00136
      MARK1       ICD=-1                                                                          *111 LM00137
                  LINC=CLIN                                                                       *112 LM00138
                  EGB=BEG                                                                         *113 LM00139
      MARK2       PRNCT=(36/CHAR)*LINC-1                                                          *114 LM00140
                  DEN1=NAX-LINC                                                                   *115 LM00141
                  UNPKNR.(K(EGB)...K(DEN1),KCHOS...KCHOS(PRNCT),CHAR)                             *116 LM00142
                  EXECUTE PRYNT.                                                                  *117 LM00143
                  WHENEVER GLBLN.(W).GE.L1.AND.FIX.E.1,TRANSFER TO FF1                            *118 LM00144
                  WHENEVER L.E.R1.AND.FIX.E.0,TRANSFER TO FF1                                     *119 LM00145
                  BFREAD.(A(1),A(2),K(NAX)...1,FF1,QEOFCT,QERR)                                   *120 LM00146
                  WHENEVER K(NAX).A.MASK1.E.MASK1                                                 *121 LM00147
                  EXECUTE INMK.                                                                   *122 LM00148
                  FIX=0                                                                           *123 LM00149
                  OTHERWISE                                                                       *124 LM00150
                  BFREAD.(A(1),A(2),K(21)...13,FF1,QEOFCT,QERR)                                   *125 LM00151
                  END OF CONDITIONAL                                                              *126 LM00152
      LL          CONTINUE                                                                        *127 LM00153
                  OTHERWISE                                                                       *128 LM00154
                  ACT=A-D-MINUS                                                                   *129 LM00155
                  ACT=ACT/2                                                                       *130 LM00156
                  THROUGH RR,FOR L=R,1,L.G.R1.AND.FIX.E.0                                         *131 LM00157
                  WHENEVER FIX.E.0.AND.K(NAX).A.MASK1.E.MASK1,TRANSFER TO MARK                    *132 LM00158
                  UNPKNR.(K(22)...K(9),KUNP(1)...KUNP(84),CHAR)                                   *133 LM00159
      COMN        ARYCT=-1                                                                        *134 LM00160
                  EXECUTE PKOFF.                                                                  *135 LM00161
                  PRNCT=ARYCT-TBCT                                                                *136 LM00162
                  EXECUTE PRYNT.                                                                  *137 LM00163
                  TRANSFER TO CHECK                                                               *138 LM00164
      MARK        NED=(36/CHAR)*CLIN                                                              *139 LM00165
                  DEN=NAX-CLIN                                                                    *140 LM00166
                  UNPKNR.(K(BEG)...K(DEN),KUNP(1)...KUNP(NED),CHAR)                               *141 LM00167
                  TRANSFER TO COMN                                                                *142 LM00168
      CHECK       WHENEVER GLBLN.(W).GE.L1.AND.FIX.E.1,TRANSFER TO FF1                            *143 LM00169
                  WHENEVER L.E.R1.AND.FIX.E.0,TRANSFER TO FF1                                     *144 LM00170
                  BFREAD.(A(1),A(2),K(NAX)...1,FF1,QEOFCT,QERR)                                   *145 LM00171
                  WHENEVER K(NAX).A.MASK1.E.MASK1                                                 *146 LM00172
                  EXECUTE INMK.                                                                   *147 LM00173
                  FIX=0                                                                           *148 LM00174
                  OTHERWISE                                                                       *149 LM00175
                  BFREAD.(A(1),A(2),K(21)...13,FF1,QEOFCT,QERR)                                   *150 LM00176
                  END OF CONDITIONAL                                                              *151 LM00177
      RR          CONTINUE                                                                        *152 LM00178
                  END OF CONDITIONAL                                                              *153 LM00179
                                                                                                       LM00180
                 ..WHEN END OF FILE                                                                    LM00181
                                                                                                       LM00182
      QERR        PRNTER.(61K)                                                                    *154 LM00183
                  TRANSFER TO FF1                                                                 *155 LM00184
      FF          CONTINUE                                                                        *156 LM00185
                  EOF=A(3)                                                                        *157 LM00186
                  EXECUTE PRNTP.(EOF)                                                             *158 LM00187
      FF1         BFCLOS.(A(1),A(2),OUT)                                                          *159 LM00188
                  EXECUTE SAVBRK.                                                                 *160 LM00189
      OUT         EXECUTE CHNCOM.(0)                                                              *161 LM00190
                                                                                                       LM00191
      ERR1        EXECUTE PRNTP.(MES)                                                             *162 LM00192
                  TRANSFER TO OUT                                                                 *163 LM00193
                                                                                                       LM00194
                    *   *   *   *   *   *   *   *   *   *   *   *   *   *   *                          LM00195
                                                                                                       LM00196
                  INTERNAL FUNCTION(Z)                                                            *164 LM00197
                  ENTRY TO ERR2.                                                                  *165 LM00198
                  MES3=Z                                                                          *166 LM00199
                  EXECUTE PRNTP.(MES3)                                                            *167 LM00200
                  TRANSFER TO DD                                                                  *168 LM00201
                  END OF FUNCTION                                                                 *169 LM00202
                                                                                                       LM00203
                  INTERNAL FUNCTION                                                               *170 LM00204
                  ENTRY TO FULMD.                                                                 *171 LM00205
                  BLANK=006000600060K                                                             *172 LM00206
                  CHAR=12                                                                         *173 LM00207
                  WORD=3                                                                          *174 LM00208
                  NAX=132                                                                         *175 LM00209
                  BEG=131                                                                         *176 LM00210
                  FUNCTION RETURN                                                                 *177 LM00211
                  END OF FUNCTION                                                                 *178 LM00212
                                                                                                       LM00213
                  INTERNAL FUNCTION                                                               *179 LM00214
                  ENTRY TO GLBLN.                                                                 *180 LM00215
                  W=(K(10).LS.12).V.(K(9).RS.24)                                                  *181 LM00216
                  W=W.A.007777777777K                                                             *182 LM00217
                  FUNCTION RETURN W                                                               *183 LM00218
                   END OF FUNCTION                                                                *184 LM00219
                                                                                                       LM00220
                  INTERNAL FUNCTION                                                               *185 LM00221
                  ENTRY TO INMK.                                                                  *186 LM00222
                  ZERO=0                                                                          *187 LM00223
                  CLIN=K(NAX).A.MASK2                                                             *188 LM00224
                  WHENEVER CLIN.G.NAX                                                             *189 LM00225
                    MOV=CLIN-NAX                                                                  *190 LM00226
                    CLIN=NAX                                                                      *191 LM00227
                  END OF CONDITIONAL                                                              *192 LM00228
                  BFREAD.(A(1),A(2),K(BEG)...CLIN,FF1,QEOFCT,QERR)                                *193 LM00229
      MOVNE       WHENEVER MOV.NE.0                                                               *194 LM00230
                  WHENEVER MOV.G.NAX                                                              *195 LM00231
                    MV=NAX                                                                        *196 LM00232
                    MOV=MOV-NAX                                                                   *197 LM00233
                  OTHERWISE                                                                       *198 LM00234
                    MV=MOV                                                                        *199 LM00235
                    MOV=0                                                                         *200 LM00236
                  END OF CONDITIONAL                                                              *201 LM00237
                  BFREAD.(A(1),A(2),KK(BEG)...MV,FF1,QEOFCT,QERR)                                 *202 LM00238
                  TRANSFER TO MOVNE                                                               *203 LM00239
                  END OF CONDITIONAL                                                              *204 LM00240
                  FUNCTION RETURN                                                                 *205 LM00241
                  END OF FUNCTION                                                                 *206 LM00242
                                                                                                       LM00243
                  INTERNAL FUNCTION                                                               *207 LM00244
                  ENTRY TO PRYNT.                                                                 *208 LM00245
                  TOP=PRNCT                                                                       *209 LM00246
                  THROUGH LOOP,FOR IB=TOP,-1,IB.L.0                                               *210 LM00247
                  WHENEVER KCHOS(IB).NE.60K.AND.KCHOS(IB).NE.57K,                                 *211 LM00248
                1 TRANSFER TO NBLK                                                                *211 LM00249
      LOOP        PRNCT=PRNCT-1                                                                   *212 LM00250
      NBLK        NUM=(PRNCT)/WORD+1+ZERO                                                         *213 LM00251
                  WHENEVER PRNCT.L.0                                                              *214 LM00252
                    NUM=0                                                                         *215 LM00253
                    TRANSFER TO OMIT                                                              *216 LM00254
                  END OF CONDITIONAL                                                              *217 LM00255
                  PAKNR.(KCHOS...KCHOS(PRNCT),KK(ZERO)...KK(NUM-1),CHAR)                          *218 LM00256
      OMIT        KK(NUM)=575757575755K                                                           *219 LM00257
                  WHENEVER FLAG.E.1                                                               *220 LM00258
                    KK(NUM)=FENCE                                                                 *221 LM00259
                    FLAG=0                                                                        *222 LM00260
                    WHENEVER FULL.E.5,SETFUL.                                                     *223 LM00261
                    TRANSFER TO PC                                                                *224 LM00262
                  END OF CONDITIONAL                                                              *225 LM00263
                  KK(NUM+1)=FENCE                                                                 *226 LM00264
                  WHENEVER FULL.E.5                                                               *227 LM00265
                  KK(NUM)=005700570055K                                                           *228 LM00266
                  EXECUTE SETFUL.                                                                 *229 LM00267
                  END OF CONDITIONAL                                                              *230 LM00268
      PC          PRNTPC.(KK)                                                                     *231 LM00269
                  FUNCTION RETURN                                                                 *232 LM00270
                   END OF FUNCTION                                                                *233 LM00271
                                                                                                       LM00272
                  INTERNAL FUNCTION                                                               *234 LM00273
                  ENTRY TO PKOFF.                                                                 *235 LM00274
                  CKEND=CLIN*WORD                                                                 *236 LM00275
                  THROUGH PICKC,FOR I=1,1,I.G.ACT                                                 *237 LM00276
                  MIN=C(2*(I-1)+1)                                                                *238 LM00277
                  MAX=C(2*I)                                                                      *239 LM00278
                  INC=1                                                                           *240 LM00279
                  WHENEVER MAX.L.MIN,INC=-1                                                       *241 LM00280
                  THROUGH CHOSC,FOR II=MIN,INC,II.E.MAX+INC                                       *242 LM00281
                  WHENEVER ARYCT.E.130                                                            *243 LM00282
                  PRNCT=ARYCT                                                                     *244 LM00283
                  FLAG=1                                                                          *245 LM00284
                    EXECUTE PRYNT.                                                                *246 LM00285
                    ARYCT=0                                                                       *247 LM00286
                  END OF CONDITIONAL                                                              *248 LM00287
                  WHENEVER II.G.CKEND,TRANSFER TO CHO                                             *249 LM00288
                  ARYCT=ARYCT+1                                                                   *250 LM00289
                  KCHOS(ARYCT)=KUNP(II)                                                           *251 LM00290
      CHOSC       CONTINUE                                                                        *252 LM00291
      CHO         WHENEVER TBCT.E.0,TRANSFER TO PICKC                                             *253 LM00292
                  THROUGH PICKC,FOR N=1,1,N.G.TBCT                                                *254 LM00293
                  ARYCT=ARYCT+1                                                                   *255 LM00294
                  KCHOS(ARYCT)=72K                                                                *256 LM00295
      PICKC       CONTINUE                                                                        *257 LM00296
                  FUNCTION RETURN                                                                 *258 LM00297
                  END OF FUNCTION                                                                 *259 LM00298
                                                                                                       LM00299
                    *   *   *   *   *   *   *   *   *   *   *   *   *   *   *                          LM00300
                                                                                                       LM00301
                  NORMAL MODE IS INTEGER                                                          *260 LM00302
                  DIMENSION KK(135),BUF1(432),K(132),KUNP(396),                                   *261 LM00303
                1 KCHOS(396),A(19),C(19)                                                          *261 LM00304
                                                                                                       LM00305
                  VECTOR VALUES FULL=0                                                            *262 LM00306
                  VECTOR VALUES ZERO=0                                                            *263 LM00307
                  VECTOR VALUES BMASK=000000000057K                                               *264 LM00308
                  VECTOR VALUES CLIN=14                                                           *265 LM00309
                  VECTOR VALUES MOV=0                                                             *266 LM00310
                  VECTOR VALUES BLANK=606060606060K                                               *267 LM00311
                  VECTOR VALUES FLAG=0                                                            *268 LM00312
                  VECTOR VALUES NAX=22                                                            *269 LM00313
                  VECTOR VALUES BEG=21                                                            *270 LM00314
                  VECTOR VALUES EOF(1)=$ NOT IN FILE.$, 777777777777K                             *271 LM00315
                  VECTOR VALUES C=0, 1, 72                                                        *272 LM00316
                  VECTOR VALUES D=3                                                               *273 LM00317
                  VECTOR VALUES R=1                                                               *274 LM00318
                  VECTOR VALUES R1=377777777777K                                                  *275 LM00319
                  VECTOR VALUES L1=377777777777K                                                  *276 LM00320
                  VECTOR VALUES K=$$                                                              *277 LM00321
                  VECTOR VALUES FIX=1                                                             *278 LM00322
                  VECTOR VALUES EDIT=0                                                            *279 LM00323
                  VECTOR VALUES E=6                                                               *280 LM00324
                  VECTOR VALUES H=0                                                               *281 LM00325
                  VECTOR VALUES MES=$ INCORRECT FORMAT$, 777777777777K                            *282 LM00326
                  VECTOR VALUES TABCOV=15                                                         *283 LM00327
                  VECTOR VALUES TBCT=0                                                            *284 LM00328
                  VECTOR VALUES MASK1=777777000000K                                               *285 LM00329
                  VECTOR VALUES MASK2=000000777777K                                               *286 LM00330
                  VECTOR VALUES MES=$COMMAND FORMAT IS 'PRINT NAME1 NAME2                         *287 LM00331
                1 -R(TO/THRU R2) F(1) L(1) ... F(N) L(N) TAB (FULL)-$,                            *287 LM00332
                2 777777777777K                                                                   *287 LM00333
                  VECTOR VALUES WORD=6                                                            *288 LM00334
                  VECTOR VALUES CHAR=6                                                            *289 LM00335
                  VECTOR VALUES MES1(2)=$ NOT FOUND$, 777777777777K                               *290 LM00336
                  VECTOR VALUES MES2(1)=$   TO$, 0,$ IS ILLEGAL$, 777777777777K                   *291 LM00337
                  VECTOR VALUES MES3(1)=$ NOT DECIMAL.  FOLLOWING ARGUMENTS ARE                   *292 LM00338
                1  IGNORED.$, 777777777777K                                                       *292 LM00339
                  VECTOR VALUES FENCE=777777777777K                                               *293 LM00340
                  END OF PROGRAM                                                                  *294 LM00341
1MAD PROGRAM,TYPE NOV 1963      (ALL NUMBERS ARE OCTAL)
0TOTAL LOCATIONS   05213 TRANSFER VECTOR LENGTH  00025 PROGRAM BEGINS    03261
0VARIABLE STORAGE (A=ARRAY,C=COMMON,E=ERASABLE,DIGIT=MODE)
      AA     00033   4        DEN1   01027   1        II     01051   1        MASK1  03127 A 1        OMIT   00056   4
      ACT    00065   1        DEN    01030   1        INC    01052   1        MASK2  03130 A 1        OUT    00057   4
      ARYCT  00066   1        D      01031 A 1        I      01053   1        MAX    03131   1        PC     00060   4
      A      00112 A 1        EDIT   01032 A 1        JJ     00046   4        MES1   03136 A 1        PICKC  00061   4
      BB     00034   4        EE     00041   4        KCHOS  01670 A 1        MES2   03144 A 1        PRNCT  03210   1
      BEG    00113 A 1        EGB    01033   1        KK     02100 A 1        MES3   03156 A 1        QBMP   00062   4
      BLANK  00114 A 1        EOF    01040 A 1        K      02305 A 1        MES    03177 A 1        QEOFCT 03211   1
      BMASK  00115 A 1        ERR1   00042   4        KUNP   03122 A 1        MIN    03200   1        QERR   00063   4
      B      00116   1        E      01041 A 1        L1     03123 A 1        MINUS  03201   1        R1     03212 A 1
      BUF1   00777 A 1        FENCE  01042 A 1        LINC   03124   1        MOVNE  00053   4        RR     00033   4
      CHAR   01000 A 1        FF1    00043   4        LL     00033   4        MOV    03202 A 1        R      03213 A 1
      CHECK  00035   4        FF     00044   4        LN     03125   1        MV     03203   1        TABCOV 03214 A 1
      CHO    00036   4        FIX    01043 A 1        LNUM   00047   4        NAX    03204 A 1        TBCT   03215 A 1
      CHOSC  00033   4        FLAG   01044 A 1        LOOP   00033   4        NBLK   00054   4        TOP    03216   1
      CKEND  01001   1        FULL   01045 A 1        L      03126   1        NED    03205   1        WHEN   00064   4
      CLIN   01002 A 1        GG     00045   4        MARK1  00050   4        NEXT   00055   4        WORD   03217 A 1
      COMN   00037   4        H      01046 A 1        MARK2  00051   4        N      03206   1        W      03220   1
      C      01026 A 1        IB     01047   1        MARK   00052   4        NUM    03207   1        ZERO   03221 A 1
      DD     00040   4        ICD    01050   1
0FUNCTION DICTIONARY
      BCDEC  00000   1        BFCLOS 00001   1        BFOPEN 00002   1        BFREAD 00003   1        BRAKE  00004   1
      CHNCOM 00005   1        EXIT   00006   1        GCLS   00007   1        GETTM  00010   1        .SETUP 00011   1
      PAKNR  00012   1        PRNTER 00013   1        PRNTPC 00014   1        PRNTP  00015   1        SAVBRK 00016   1
      SETBRK 00017   1        SETFUL 00020   1        TDEC   00021   1        UNPKNR 00022   1        XMOD   00023   1
      ZEL    00024   1        ERR2   00025   1        FULMD  00026   1        GLBLN  00027   1        INMK   00030   1
      PKOFF  00031   1        PRYNT  00032   1
0ABSOLUTE CONSTANTS
 03241 +000000000072     03242 +000000000202     03245 +005700570055     03237 +000000000060     03236 +000000000057
 03247 +007777777777     03234 +000000000030     03243 +000000000203     03244 +000000000204     03246 +006000600060
 03235 +000000000044     03233 +000000000026     03230 +000000000014     03231 +000000000015     03254 -206060606060
 03253 -175757575760     03252 -175757575755     03256 -206060632122     03255 -206060606346     03257 -206063305164
 03226 +000000000004     03227 +000000000005     03260 -342664434334     03225 +000000000003     03240 +000000000061
 03251 -116060606060     03224 +000000000002     03232 +000000000024     03222 +000000000000     03223 +000000000001
 03250 +233000000000
0STATEMENT DICTIONARY
 00034 TXL -304017004016       00035 TXL -304362004351       00036 TXL -305152005146       00037 TXL -304307004305
 00040 TXL -303666003666       00041 TXL -303666003665       00042 TXL -304447004445       00043 TXL -304442004436
 00044 TXL -304432004432       00045 TXL -303455003455       00046 TXL -304017004017       00047 TXL -304005003776
 00050 TXL -304117004115       00051 TXL -304133004123       00052 TXL -304323004315       00053 TXL -304623004620
 00054 TXL -304733004723       00055 TXL -303327003325       00056 TXL -304770004765       00057 TXL -304445004443
 00060 TXL -305022005020       00061 TXL -305174005172       00062 TXL -303662003657       00063 TXL -304431004427
 00064 TXL -303335003331
0PROGRAM
                 GCLS.(A,0)                                                         001  LM00020
 03261 TSX +0 07400 4 00011    03262 TSX +0 07400 4 00007    03263 TXH +3 00000 0 00112    03264 TXH +3 00000 0 03222
      AA         THROUGH AA, FOR A=1, 1, A.E.20.OR.A(A).E.FENCE                     002  LM00021
 03265 CLA +0 50000 0 03223    03266 STO +0 60100 0 00112    03267 TRA +0 02000 0 03273    03270 CLA +0 50000 0 00112
 03271 ADD +0 40000 0 03223    03272 STO +0 60100 0 00112    03273 LXA +0 53400 1 00112    03274 CLA +0 50000 1 00112
 03275 SUB +0 40200 0 01042    03276 TZE +0 10000 0 03303    03277 CLA +0 50000 0 00112    03300 SUB +0 40200 0 03232
 03301 TZE +0 10000 0 03303    03302 TRA +0 02000 0 03270
                 WHENEVER A.LE.2, TRANSFER TO ERR1                                  003  LM00025
 03303 CLA +0 50000 0 00112    03304 SUB +0 40200 0 03224    03305 TZE +0 10000 0 03307    03306 TPL +0 12000 0 03310
 03307 TRA +0 02000 0 00042
                 BFOPEN.($R$,A(1),A(2),BUF1(432),-0,-0,NEXT)                        004  LM00026
 03310 CLS +0 50200 0 03222    03311 STO +0 60100 0 05207    03312 CLS +0 50200 0 03222    03313 STO +0 60100 0 05210
 03314 TSX +0 07400 4 00002    03315 TXH +3 00000 0 03251    03316 TXH +3 00000 0 00111    03317 TXH +3 00000 0 00110
 03320 TXH +3 00000 0 00117    03321 TXH +3 00000 0 05210    03322 TXH +3 00000 0 05207    03323 TXH +3 00000 0 00055
                 TRANSFER TO WHEN                                                   005  LM00027
 03324 TRA +0 02000 0 00064
      NEXT       PRNTER.(61K)                                                       006  LM00028
 03325 TSX +0 07400 4 00013    03326 TXH +3 00000 0 03240
                   EXECUTE BRAKE.                                                   007  LM00029
 03327 TSX +0 07400 4 00004
                   TRANSFER TO OUT                                                  008  LM00030
 03330 TRA +0 02000 0 00057
      WHEN       WHENEVER A.E.3,TRANSFER TO DD                                      009  LM00031
 03331 CLA +0 50000 0 00112    03332 SUB +0 40200 0 03225    03333 TNZ -0 10000 0 03335    03334 TRA +0 02000 0 00040
                 WHENEVER A(3).E.$(FULL)$                                           010  LM00032
 03335 CLA +0 50000 0 00107    03336 SUB +0 40200 0 03260    03337 TNZ -0 10000 0 03352
                   EXECUTE FULMD.                                                   011  LM00033
 03340 TSX +0 07400 4 00026
                   FULL=5                                                           012  LM00034
 03341 CLA +0 50000 0 03227    03342 STO +0 60100 0 01045
                   WHENEVER A.E.4,TRANSFER TO DD                                    013  LM00035
 03343 CLA +0 50000 0 00112    03344 SUB +0 40200 0 03226    03345 TNZ -0 10000 0 03347    03346 TRA +0 02000 0 00040
                 N=4                                                                014  LM00036
 03347 CLA +0 50000 0 03226    03350 STO +0 60100 0 03206
                 OTHERWISE                                                          015  LM00037
 03351 TRA +0 02000 0 03354
                   N=3                                                              016  LM00038
 03352 CLA +0 50000 0 03225    03353 STO +0 60100 0 03206
                 END OF CONDITIONAL                                                 017  LM00039
                 WHENEVER TDEC.(A(N)).E.0, EXECUTE ERR2.(A(N))                      018  LM00040
 03354 CLA +0 50000 0 03206    03355 SUB +0 40200 0 03356    03356 TXH +3 00000 0 00112    03357 STA +0 62100 0 03361
 03360 TSX +0 07400 4 00021    03361 TXH +3 00000 0 00000    03362 SUB +0 40200 0 03222    03363 TNZ -0 10000 0 03372
 03364 CLA +0 50000 0 03206    03365 SUB +0 40200 0 03366    03366 TXH +3 00000 0 00112    03367 STA +0 62100 0 03371
 03370 TSX +0 07400 4 00025    03371 TXH +3 00000 0 00000
                 R=BCDEC.(A(N))                                                     019  LM00041
 03372 CLA +0 50000 0 03206    03373 SUB +0 40200 0 03374    03374 TXH +3 00000 0 00112    03375 STA +0 62100 0 03377
 03376 TSX +0 07400 4 00000    03377 TXH +3 00000 0 00000    03400 STO +0 60100 0 03213
                 WHENEVER R.E.0, R=1                                                020  LM00042
 03401 CLA +0 50000 0 03213    03402 SUB +0 40200 0 03222    03403 TNZ -0 10000 0 03406    03404 CLA +0 50000 0 03223
 03405 STO +0 60100 0 03213
                 LN=ZEL.(A(N))                                                      021  LM00043
 03406 CLA +0 50000 0 03206    03407 SUB +0 40200 0 03410    03410 TXH +3 00000 0 00112    03411 STA +0 62100 0 03413
 03412 TSX +0 07400 4 00024    03413 TXH +3 00000 0 00000    03414 STO +0 60100 0 03125
                 WHENEVER A.E.N+1, TRANSFER TO DD                                   022  LM00044
 03415 CLA +0 50000 0 03206    03416 ADD +0 40000 0 03223    03417 CHS +0 76000 0 00002    03420 ADD +0 40000 0 00112
 03421 TNZ -0 10000 0 03423    03422 TRA +0 02000 0 00040
                 WHENEVER A(N+1).E.$(FULL)$                                         023  LM00045
 03423 CLA +0 50000 0 03206    03424 ADD +0 40000 0 03223    03425 PAX +0 73400 1 00000    03426 CLA +0 50000 1 00112
 03427 SUB +0 40200 0 03260    03430 TNZ -0 10000 0 03435
                   EXECUTE FULMD.                                                   024  LM00046
 03431 TSX +0 07400 4 00026
                   FULL=5                                                           025  LM00047
 03432 CLA +0 50000 0 03227    03433 STO +0 60100 0 01045
                   TRANSFER TO DD                                                   026  LM00048
 03434 TRA +0 02000 0 00040
                 END OF CONDITIONAL                                                 027  LM00049
                 WHENEVER A(N+1).E.$  THRU$                                         028  LM00050
 03435 CLA +0 50000 0 03206    03436 ADD +0 40000 0 03223    03437 PAX +0 73400 1 00000    03440 CLA +0 50000 1 00112
 03441 SUB +0 40200 0 03257    03442 TNZ -0 10000 0 03447
                   FIX=0                                                            029  LM00051
 03443 CLA +0 50000 0 03222    03444 STO +0 60100 0 01043
                   TRANSFER TO GG                                                   030  LM00052
 03445 TRA +0 02000 0 00045
                 OR WHENEVER A(N+1).E.$    TO$                                      031  LM00053
 03446 TRA +0 02000 0 03545    03447 CLA +0 50000 0 03206    03450 ADD +0 40000 0 03223    03451 PAX +0 73400 1 00000
 03452 CLA +0 50000 1 00112    03453 SUB +0 40200 0 03255    03454 TNZ -0 10000 0 03545
      GG           CONTINUE                                                         032  LM00054
                   WHENEVER A.GE.N+3                                                033  LM00055
 03455 CLA +0 50000 0 03206    03456 ADD +0 40000 0 03225    03457 CHS +0 76000 0 00002    03460 ADD +0 40000 0 00112
 03461 TZE +0 10000 0 03463    03462 TMI -0 12000 0 03513
                     WHENEVER TDEC.(A(N+2)).E.0, EXECUTE ERR2.(A(N+2))              034  LM00056
 03463 CLA +0 50000 0 03206    03464 ADD +0 40000 0 03224    03465 SUB +0 40200 0 03466    03466 TXH +3 00000 0 00112
 03467 STA +0 62100 0 03471    03470 TSX +0 07400 4 00021    03471 TXH +3 00000 0 00000    03472 SUB +0 40200 0 03222
 03473 TNZ -0 10000 0 03503    03474 CLA +0 50000 0 03206    03475 ADD +0 40000 0 03224    03476 SUB +0 40200 0 03477
 03477 TXH +3 00000 0 00112    03500 STA +0 62100 0 03502    03501 TSX +0 07400 4 00025    03502 TXH +3 00000 0 00000
                     L1=ZEL.(A(N+2))                                                035  LM00057
 03503 CLA +0 50000 0 03206    03504 ADD +0 40000 0 03224    03505 SUB +0 40200 0 03506    03506 TXH +3 00000 0 00112
 03507 STA +0 62100 0 03511    03510 TSX +0 07400 4 00024    03511 TXH +3 00000 0 00000    03512 STO +0 60100 0 03123
                   END OF CONDITIONAL                                               036  LM00058
                   D=N+2                                                            037  LM00059
 03513 CLA +0 50000 0 03206    03514 ADD +0 40000 0 03224    03515 STO +0 60100 0 01031
                   WHENEVER L1.L.LN                                                 038  LM00060
 03516 CLA +0 50000 0 03123    03517 SUB +0 40200 0 03125    03520 TZE +0 10000 0 03536    03521 TPL +0 12000 0 03536
                     MES2=A(N)                                                      039  LM00061
 03522 LXA +0 53400 2 03206    03523 CLA +0 50000 2 00112    03524 STO +0 60100 0 03144
                     MES2(2)=A(N+2)                                                 040  LM00062
 03525 CLA +0 50000 0 03206    03526 ADD +0 40000 0 03224    03527 PAX +0 73400 2 00000    03530 CLA +0 50000 2 00112
 03531 STO +0 60100 0 03142
                     EXECUTE PRNTP.(MES2)                                           041  LM00063
 03532 TSX +0 07400 4 00015    03533 TXH +3 00000 0 03144
                     EXECUTE BRAKE.                                                 042  LM00064
 03534 TSX +0 07400 4 00004
                     TRANSFER TO OUT                                                043  LM00065
 03535 TRA +0 02000 0 00057
                   END OF CONDITIONAL                                               044  LM00066
                   WHENEVER A.LE.N+3, TRANSFER TO DD                                045  LM00067
 03536 CLA +0 50000 0 03206    03537 ADD +0 40000 0 03225    03540 CHS +0 76000 0 00002    03541 ADD +0 40000 0 00112
 03542 TZE +0 10000 0 03544    03543 TPL +0 12000 0 03545    03544 TRA +0 02000 0 00040
                 END OF CONDITIONAL                                                 046  LM00068
                 MINUS=0                                                            047  LM00069
 03545 CLA +0 50000 0 03222    03546 STO +0 60100 0 03201
                 THROUGH EE, FOR E=D+1,1,E.E.A                                      048  LM00070
 03547 CLA +0 50000 0 01031    03550 ADD +0 40000 0 03223    03551 STO +0 60100 0 01041    03552 TRA +0 02000 0 03556
 03553 CLA +0 50000 0 01041    03554 ADD +0 40000 0 03223    03555 STO +0 60100 0 01041    03556 CLA +0 50000 0 01041
 03557 SUB +0 40200 0 00112    03560 TZE +0 10000 0 03666
                 WHENEVER A(E).E.$   TAB$,TRANSFER TO QBMP                          049  LM00071
 03561 LXA +0 53400 1 01041    03562 CLA +0 50000 1 00112    03563 SUB +0 40200 0 03256    03564 TNZ -0 10000 0 03566
 03565 TRA +0 02000 0 00062
                 WHENEVER A(E).E.$(FULL)$                                           050  LM00072
 03566 LXA +0 53400 1 01041    03567 CLA +0 50000 1 00112    03570 SUB +0 40200 0 03260    03571 TNZ -0 10000 0 03601
                 EXECUTE FULMD.                                                     051  LM00073
 03572 TSX +0 07400 4 00026
                 MINUS=MINUS+1                                                      052  LM00074
 03573 CLA +0 50000 0 03201    03574 ADD +0 40000 0 03223    03575 STO +0 60100 0 03201
                 FULL=5                                                             053  LM00075
 03576 CLA +0 50000 0 03227    03577 STO +0 60100 0 01045
                 TRANSFER TO EE                                                     054  LM00076
 03600 TRA +0 02000 0 00041
                 END OF CONDITIONAL                                                 055  LM00077
                 WHENEVER TDEC.(A(E)).E.0,EXECUTE ERR2.(A(E))                       056  LM00078
 03601 CLA +0 50000 0 01041    03602 SUB +0 40200 0 03603    03603 TXH +3 00000 0 00112    03604 STA +0 62100 0 03606
 03605 TSX +0 07400 4 00021    03606 TXH +3 00000 0 00000    03607 SUB +0 40200 0 03222    03610 TNZ -0 10000 0 03617
 03611 CLA +0 50000 0 01041    03612 SUB +0 40200 0 03613    03613 TXH +3 00000 0 00112    03614 STA +0 62100 0 03616
 03615 TSX +0 07400 4 00025    03616 TXH +3 00000 0 00000
                 EDIT=1                                                             057  LM00079
 03617 CLA +0 50000 0 03223    03620 STO +0 60100 0 01032
                 C=BCDEC.(A(E))                                                     058  LM00080
 03621 CLA +0 50000 0 01041    03622 SUB +0 40200 0 03623    03623 TXH +3 00000 0 00112    03624 STA +0 62100 0 03626
 03625 TSX +0 07400 4 00000    03626 TXH +3 00000 0 00000    03627 STO +0 60100 0 01026
                 C(E-D-MINUS)=C                                                     059  LM00081
 03630 CLA +0 50000 0 01041    03631 SUB +0 40200 0 01031    03632 SUB +0 40200 0 03201    03633 PAX +0 73400 1 00000
 03634 CLA +0 50000 0 01026    03635 STO +0 60100 1 01026
                 WHENEVER XMOD.(E-D-MINUS,2).E.1,C(E-D-MINUS+1)=C                   060  LM00082
 03636 CLA +0 50000 0 01041    03637 SUB +0 40200 0 01031    03640 SUB +0 40200 0 03201    03641 STO +0 60100 0 05210
 03642 TSX +0 07400 4 00023    03643 TXH +3 00000 0 05210    03644 TXH +3 00000 0 03224    03645 SUB +0 40200 0 03223
 03646 TNZ -0 10000 0 03656    03647 CLA +0 50000 0 01041    03650 SUB +0 40200 0 01031    03651 SUB +0 40200 0 03201
 03652 ADD +0 40000 0 03223    03653 PAX +0 73400 1 00000    03654 CLA +0 50000 0 01026    03655 STO +0 60100 1 01026
                 TRANSFER TO EE                                                     061  LM00083
 03656 TRA +0 02000 0 00041
      QBMP       TBCT=TBCT+1                                                        062  LM00084
 03657 CLA +0 50000 0 03215    03660 ADD +0 40000 0 03223    03661 STO +0 60100 0 03215
                 MINUS=MINUS+1                                                      063  LM00085
 03662 CLA +0 50000 0 03201    03663 ADD +0 40000 0 03223    03664 STO +0 60100 0 03201
      EE         CONTINUE                                                           064  LM00086
 03665 TRA +0 02000 0 03553
      DD         CONTINUE                                                           065  LM00087
                 EXECUTE SETBRK.(FF1)                                               066  LM00090
 03666 TSX +0 07400 4 00017    03667 TXH +3 00000 0 00043
                 WHENEVER R.LE.1.AND.D.E.3.AND.MES3.E.0                             067  LM00091
 03670 CLA +0 50000 0 03156    03671 SUB +0 40200 0 03222    03672 TNZ -0 10000 0 03731    03673 CLA +0 50000 0 01031
 03674 SUB +0 40200 0 03225    03675 TNZ -0 10000 0 03731    03676 CLA +0 50000 0 03213    03677 SUB +0 40200 0 03223
 03700 TZE +0 10000 0 03702    03701 TPL +0 12000 0 03731
                 KK(0)=575757575755K                                                068  LM00092
 03702 CLA +0 50000 0 03252    03703 STO +0 60100 0 02100
                 KK(1)=A(1)                                                         069  LM00093
 03704 CLA +0 50000 0 00111    03705 STO +0 60100 0 02077
                 KK(2)=575757575760K                                                070  LM00094
 03706 CLA +0 50000 0 03253    03707 STO +0 60100 0 02076
                 KK(3)=A(2)                                                         071  LM00095
 03710 CLA +0 50000 0 00110    03711 STO +0 60100 0 02075
                 KK(4)=606060606060K                                                072  LM00096
 03712 CLA +0 50000 0 03254    03713 STO +0 60100 0 02074
                 KK(6)=KK(2)                                                        073  LM00097
 03714 CLA +0 50000 0 02076    03715 STO +0 60100 0 02072
                 GETTM.(KK(5),KK(7))                                                074  LM00098
 03716 TSX +0 07400 4 00010    03717 TXH +3 00000 0 02073    03720 TXH +3 00000 0 02071
                 KK(8)=KK(0)                                                        075  LM00099
 03721 CLA +0 50000 0 02100    03722 STO +0 60100 0 02070
                 KK(9)=575757575755K                                                076  LM00100
 03723 CLA +0 50000 0 03252    03724 STO +0 60100 0 02067
                 KK(10)=FENCE                                                       077  LM00101
 03725 CLA +0 50000 0 01042    03726 STO +0 60100 0 02066
                 PRNTPC.(KK)                                                        078  LM00102
 03727 TSX +0 07400 4 00014    03730 TXH +3 00000 0 02100
                 END OF CONDITIONAL                                                 079  LM00103
                 THROUGH BB, FOR B=1,1,FIX.E.0.AND.B.G.R                            080  LM00104
 03731 CLA +0 50000 0 03223    03732 STO +0 60100 0 00116    03733 TRA +0 02000 0 03737    03734 CLA +0 50000 0 00116
 03735 ADD +0 40000 0 03223    03736 STO +0 60100 0 00116    03737 CLA +0 50000 0 00116    03740 SUB +0 40200 0 03213
 03741 TZE +0 10000 0 03746    03742 TMI -0 12000 0 03746    03743 CLA +0 50000 0 01043    03744 SUB +0 40200 0 03222
 03745 TZE +0 10000 0 04017
                 BFREAD.(A(1),A(2),K(NAX)...1,FF,QEOFCT,QERR)                       081  LM00105
 03746 CLA +0 50000 0 03204    03747 SUB +0 40200 0 03750    03750 TXH +3 00000 0 02305    03751 STA +0 62100 0 03755
 03752 TSX +0 07400 4 00003    03753 TXH +3 00000 0 00111    03754 TXH +3 00000 0 00110    03755 TIX +2 03223 0 00000
 03756 TXH +3 00000 0 00044    03757 TXH +3 00000 0 03211    03760 TXH +3 00000 0 00063
                 WHENEVER K(NAX).A.MASK1.NE.MASK1                                   082  LM00106
 03761 LXA +0 53400 1 03204    03762 CAL -0 50000 1 02305    03763 ANA -0 32000 0 03127    03764 SLW +0 60200 0 05210
 03765 CLA +0 50000 0 05210    03766 SUB +0 40200 0 03127    03767 TZE +0 10000 0 03772
                   TRANSFER TO LNUM                                                 083  LM00107
 03770 TRA +0 02000 0 00047
                 OTHERWISE                                                          084  LM00108
 03771 TRA +0 02000 0 03775
                     EXECUTE INMK.                                                  085  LM00109
 03772 TSX +0 07400 4 00030
                 FIX=0                                                              086  LM00110
 03773 CLA +0 50000 0 03222    03774 STO +0 60100 0 01043
                 END OF CONDITIONAL                                                 087  LM00111
                 TRANSFER TO BB                                                     088  LM00112
 03775 TRA +0 02000 0 00034
      LNUM       BFREAD.(A(1),A(2),K(21)...13,FF,QEOFCT,QERR)                       089  LM00114
 03776 TSX +0 07400 4 00003    03777 TXH +3 00000 0 00111    04000 TXH +3 00000 0 00110    04001 TIX +2 03231 0 02260
 04002 TXH +3 00000 0 00044    04003 TXH +3 00000 0 03211    04004 TXH +3 00000 0 00063
                 WHENEVER GLBLN.(W).GE.LN.AND.FIX.E.1,TRANSFER TO JJ                090  LM00115
 04005 CLA +0 50000 0 01043    04006 SUB +0 40200 0 03223    04007 TNZ -0 10000 0 04016    04010 TSX +0 07400 4 00027
 04011 TXH +3 00000 0 03220    04012 SUB +0 40200 0 03125    04013 TZE +0 10000 0 04015    04014 TMI -0 12000 0 04016
 04015 TRA +0 02000 0 00046
      BB         CONTINUE                                                           091  LM00116
 04016 TRA +0 02000 0 03734
      JJ         CONTINUE                                                           092  LM00117
                 WHENEVER GLBLN.(W).G.L1.AND.FIX.E.1,TRANSFER TO FF                 093  LM00118
 04017 CLA +0 50000 0 01043    04020 SUB +0 40200 0 03223    04021 TNZ -0 10000 0 04030    04022 TSX +0 07400 4 00027
 04023 TXH +3 00000 0 03220    04024 SUB +0 40200 0 03123    04025 TZE +0 10000 0 04030    04026 TMI -0 12000 0 04030
 04027 TRA +0 02000 0 00044
                 R1=BCDEC.(L1)                                                      094  LM00120
 04030 TSX +0 07400 4 00000    04031 TXH +3 00000 0 03123    04032 STO +0 60100 0 03212
                 WHENEVER EDIT.E.0                                                  095  LM00121
 04033 CLA +0 50000 0 01032    04034 SUB +0 40200 0 03222    04035 TNZ -0 10000 0 04240
                 THROUGH LL,FOR L=R,1,L.G.R1.AND.FIX.E.0                            096  LM00122
 04036 CLA +0 50000 0 03213    04037 STO +0 60100 0 03126    04040 TRA +0 02000 0 04044    04041 CLA +0 50000 0 03126
 04042 ADD +0 40000 0 03223    04043 STO +0 60100 0 03126    04044 CLA +0 50000 0 01043    04045 SUB +0 40200 0 03222
 04046 TNZ -0 10000 0 04053    04047 CLA +0 50000 0 03126    04050 SUB +0 40200 0 03212    04051 TZE +0 10000 0 04053
 04052 TPL +0 12000 0 04237
                 WHENEVER FIX.E.0.AND.K(NAX).A.MASK1.E.MASK1,TRANSFER TO MARK1      097  LM00123
 04053 LXA +0 53400 1 03204    04054 CAL -0 50000 1 02305    04055 ANA -0 32000 0 03127    04056 SLW +0 60200 0 05210
 04057 CLA +0 50000 0 05210    04060 SUB +0 40200 0 03127    04061 TNZ -0 10000 0 04066    04062 CLA +0 50000 0 01043
 04063 SUB +0 40200 0 03222    04064 TNZ -0 10000 0 04066    04065 TRA +0 02000 0 00050
                 WHENEVER FIX.E.0                                                   098  LM00124
 04066 CLA +0 50000 0 01043    04067 SUB +0 40200 0 03222    04070 TNZ -0 10000 0 04100
                   ICD=-1                                                           099  LM00125
 04071 CLS +0 50200 0 03223    04072 STO +0 60100 0 01050
                   LINC=12                                                          100  LM00126
 04073 CLA +0 50000 0 03230    04074 STO +0 60100 0 03124
                   EGB=22                                                           101  LM00127
 04075 CLA +0 50000 0 03233    04076 STO +0 60100 0 01033
                 TRANSFER TO MARK2                                                  102  LM00128
 04077 TRA +0 02000 0 00051
                 END OF CONDITIONAL                                                 103  LM00129
                 KK(0)=K(10)                                                        104  LM00130
 04100 CLA +0 50000 0 02273    04101 STO +0 60100 0 02100
                 KK(1)=K(9)                                                         105  LM00131
 04102 CLA +0 50000 0 02274    04103 STO +0 60100 0 02077
                 ZERO=2                                                             106  LM00132
 04104 CLA +0 50000 0 03224    04105 STO +0 60100 0 03221
                 ICD=1                                                              107  LM00133
 04106 CLA +0 50000 0 03223    04107 STO +0 60100 0 01050
                 LINC=12                                                            108  LM00134
 04110 CLA +0 50000 0 03230    04111 STO +0 60100 0 03124
                 EGB=22                                                             109  LM00135
 04112 CLA +0 50000 0 03233    04113 STO +0 60100 0 01033
                 TRANSFER TO MARK2                                                  110  LM00136
 04114 TRA +0 02000 0 00051
      MARK1      ICD=-1                                                             111  LM00137
 04115 CLS +0 50200 0 03223    04116 STO +0 60100 0 01050
                 LINC=CLIN                                                          112  LM00138
 04117 CLA +0 50000 0 01002    04120 STO +0 60100 0 03124
                 EGB=BEG                                                            113  LM00139
 04121 CLA +0 50000 0 00113    04122 STO +0 60100 0 01033
      MARK2      PRNCT=(36/CHAR)*LINC-1                                             114  LM00140
 04123 LDQ +0 56000 0 03235    04124 PXD -0 75400 0 00000    04125 LLS +0 76300 0 00000    04126 DVP +0 22100 0 01000
 04127 MPY +0 20000 0 03124    04130 XCA +0 13100 0 00000    04131 SUB +0 40200 0 03223    04132 STO +0 60100 0 03210
                 DEN1=NAX-LINC                                                      115  LM00141
 04133 CLA +0 50000 0 03204    04134 SUB +0 40200 0 03124    04135 STO +0 60100 0 01027
                 UNPKNR.(K(EGB)...K(DEN1),KCHOS...KCHOS(PRNCT),CHAR)                116  LM00142
 04136 CLA +0 50000 0 03210    04137 SUB +0 40200 0 04140    04140 TXH +3 00000 0 01670    04141 ALS +0 76700 0 00022
 04142 STD +0 62200 0 04156    04143 CLA +0 50000 0 01027    04144 SUB +0 40200 0 04145    04145 TXH +3 00000 0 02305
 04146 ALS +0 76700 0 00022    04147 STD +0 62200 0 04155    04150 CLA +0 50000 0 01033    04151 SUB +0 40200 0 04152
 04152 TXH +3 00000 0 02305    04153 STA +0 62100 0 04155    04154 TSX +0 07400 4 00022    04155 TIX +2 00000 0 00000
 04156 TIX +2 00000 0 01670    04157 TXH +3 00000 0 01000
                 EXECUTE PRYNT.                                                     117  LM00143
 04160 TSX +0 07400 4 00032
                 WHENEVER GLBLN.(W).GE.L1.AND.FIX.E.1,TRANSFER TO FF1               118  LM00144
 04161 CLA +0 50000 0 01043    04162 SUB +0 40200 0 03223    04163 TNZ -0 10000 0 04172    04164 TSX +0 07400 4 00027
 04165 TXH +3 00000 0 03220    04166 SUB +0 40200 0 03123    04167 TZE +0 10000 0 04171    04170 TMI -0 12000 0 04172
 04171 TRA +0 02000 0 00043
                 WHENEVER L.E.R1.AND.FIX.E.0,TRANSFER TO FF1                        119  LM00145
 04172 CLA +0 50000 0 01043    04173 SUB +0 40200 0 03222    04174 TNZ -0 10000 0 04201    04175 CLA +0 50000 0 03126
 04176 SUB +0 40200 0 03212    04177 TNZ -0 10000 0 04201    04200 TRA +0 02000 0 00043
                 BFREAD.(A(1),A(2),K(NAX)...1,FF1,QEOFCT,QERR)                      120  LM00146
 04201 CLA +0 50000 0 03204    04202 SUB +0 40200 0 04203    04203 TXH +3 00000 0 02305    04204 STA +0 62100 0 04210
 04205 TSX +0 07400 4 00003    04206 TXH +3 00000 0 00111    04207 TXH +3 00000 0 00110    04210 TIX +2 03223 0 00000
 04211 TXH +3 00000 0 00043    04212 TXH +3 00000 0 03211    04213 TXH +3 00000 0 00063
                 WHENEVER K(NAX).A.MASK1.E.MASK1                                    121  LM00147
 04214 LXA +0 53400 1 03204    04215 CAL -0 50000 1 02305    04216 ANA -0 32000 0 03127    04217 SLW +0 60200 0 05210
 04220 CLA +0 50000 0 05210    04221 SUB +0 40200 0 03127    04222 TNZ -0 10000 0 04227
                 EXECUTE INMK.                                                      122  LM00148
 04223 TSX +0 07400 4 00030
                 FIX=0                                                              123  LM00149
 04224 CLA +0 50000 0 03222    04225 STO +0 60100 0 01043
                 OTHERWISE                                                          124  LM00150
 04226 TRA +0 02000 0 04236
                 BFREAD.(A(1),A(2),K(21)...13,FF1,QEOFCT,QERR)                      125  LM00151
 04227 TSX +0 07400 4 00003    04230 TXH +3 00000 0 00111    04231 TXH +3 00000 0 00110    04232 TIX +2 03231 0 02260
 04233 TXH +3 00000 0 00043    04234 TXH +3 00000 0 03211    04235 TXH +3 00000 0 00063
                 END OF CONDITIONAL                                                 126  LM00152
      LL         CONTINUE                                                           127  LM00153
 04236 TRA +0 02000 0 04041
                 OTHERWISE                                                          128  LM00154
 04237 TRA +0 02000 0 04427
                 ACT=A-D-MINUS                                                      129  LM00155
 04240 CLA +0 50000 0 00112    04241 SUB +0 40200 0 01031    04242 SUB +0 40200 0 03201    04243 STO +0 60100 0 00065
                 ACT=ACT/2                                                          130  LM00156
 04244 LDQ +0 56000 0 00065    04245 PXD -0 75400 0 00000    04246 LLS +0 76300 0 00000    04247 DVP +0 22100 0 03224
 04250 STQ -0 60000 0 00065
                 THROUGH RR,FOR L=R,1,L.G.R1.AND.FIX.E.0                            131  LM00157
 04251 CLA +0 50000 0 03213    04252 STO +0 60100 0 03126    04253 TRA +0 02000 0 04257    04254 CLA +0 50000 0 03126
 04255 ADD +0 40000 0 03223    04256 STO +0 60100 0 03126    04257 CLA +0 50000 0 01043    04260 SUB +0 40200 0 03222
 04261 TNZ -0 10000 0 04266    04262 CLA +0 50000 0 03126    04263 SUB +0 40200 0 03212    04264 TZE +0 10000 0 04266
 04265 TPL +0 12000 0 04427
                 WHENEVER FIX.E.0.AND.K(NAX).A.MASK1.E.MASK1,TRANSFER TO MARK       132  LM00158
 04266 LXA +0 53400 1 03204    04267 CAL -0 50000 1 02305    04270 ANA -0 32000 0 03127    04271 SLW +0 60200 0 05210
 04272 CLA +0 50000 0 05210    04273 SUB +0 40200 0 03127    04274 TNZ -0 10000 0 04301    04275 CLA +0 50000 0 01043
 04276 SUB +0 40200 0 03222    04277 TNZ -0 10000 0 04301    04300 TRA +0 02000 0 00052
                 UNPKNR.(K(22)...K(9),KUNP(1)...KUNP(84),CHAR)                      133  LM00159
 04301 TSX +0 07400 4 00022    04302 TIX +2 02274 0 02257    04303 TIX +2 02776 0 03121    04304 TXH +3 00000 0 01000
      COMN       ARYCT=-1                                                           134  LM00160
 04305 CLS +0 50200 0 03223    04306 STO +0 60100 0 00066
                 EXECUTE PKOFF.                                                     135  LM00161
 04307 TSX +0 07400 4 00031
                 PRNCT=ARYCT-TBCT                                                   136  LM00162
 04310 CLA +0 50000 0 00066    04311 SUB +0 40200 0 03215    04312 STO +0 60100 0 03210
                 EXECUTE PRYNT.                                                     137  LM00163
 04313 TSX +0 07400 4 00032
                 TRANSFER TO CHECK                                                  138  LM00164
 04314 TRA +0 02000 0 00035
      MARK       NED=(36/CHAR)*CLIN                                                 139  LM00165
 04315 LDQ +0 56000 0 03235    04316 PXD -0 75400 0 00000    04317 LLS +0 76300 0 00000    04320 DVP +0 22100 0 01000
 04321 MPY +0 20000 0 01002    04322 STQ -0 60000 0 03205
                 DEN=NAX-CLIN                                                       140  LM00166
 04323 CLA +0 50000 0 03204    04324 SUB +0 40200 0 01002    04325 STO +0 60100 0 01030
                 UNPKNR.(K(BEG)...K(DEN),KUNP(1)...KUNP(NED),CHAR)                  141  LM00167
 04326 CLA +0 50000 0 03205    04327 SUB +0 40200 0 04330    04330 TXH +3 00000 0 03122    04331 ALS +0 76700 0 00022
 04332 STD +0 62200 0 04346    04333 CLA +0 50000 0 01030    04334 SUB +0 40200 0 04335    04335 TXH +3 00000 0 02305
 04336 ALS +0 76700 0 00022    04337 STD +0 62200 0 04345    04340 CLA +0 50000 0 00113    04341 SUB +0 40200 0 04342
 04342 TXH +3 00000 0 02305    04343 STA +0 62100 0 04345    04344 TSX +0 07400 4 00022    04345 TIX +2 00000 0 00000
 04346 TIX +2 00000 0 03121    04347 TXH +3 00000 0 01000
                 TRANSFER TO COMN                                                   142  LM00168
 04350 TRA +0 02000 0 00037
      CHECK      WHENEVER GLBLN.(W).GE.L1.AND.FIX.E.1,TRANSFER TO FF1               143  LM00169
 04351 CLA +0 50000 0 01043    04352 SUB +0 40200 0 03223    04353 TNZ -0 10000 0 04362    04354 TSX +0 07400 4 00027
 04355 TXH +3 00000 0 03220    04356 SUB +0 40200 0 03123    04357 TZE +0 10000 0 04361    04360 TMI -0 12000 0 04362
 04361 TRA +0 02000 0 00043
                 WHENEVER L.E.R1.AND.FIX.E.0,TRANSFER TO FF1                        144  LM00170
 04362 CLA +0 50000 0 01043    04363 SUB +0 40200 0 03222    04364 TNZ -0 10000 0 04371    04365 CLA +0 50000 0 03126
 04366 SUB +0 40200 0 03212    04367 TNZ -0 10000 0 04371    04370 TRA +0 02000 0 00043
                 BFREAD.(A(1),A(2),K(NAX)...1,FF1,QEOFCT,QERR)                      145  LM00171
 04371 CLA +0 50000 0 03204    04372 SUB +0 40200 0 04373    04373 TXH +3 00000 0 02305    04374 STA +0 62100 0 04400
 04375 TSX +0 07400 4 00003    04376 TXH +3 00000 0 00111    04377 TXH +3 00000 0 00110    04400 TIX +2 03223 0 00000
 04401 TXH +3 00000 0 00043    04402 TXH +3 00000 0 03211    04403 TXH +3 00000 0 00063
                 WHENEVER K(NAX).A.MASK1.E.MASK1                                    146  LM00172
 04404 LXA +0 53400 1 03204    04405 CAL -0 50000 1 02305    04406 ANA -0 32000 0 03127    04407 SLW +0 60200 0 05210
 04410 CLA +0 50000 0 05210    04411 SUB +0 40200 0 03127    04412 TNZ -0 10000 0 04417
                 EXECUTE INMK.                                                      147  LM00173
 04413 TSX +0 07400 4 00030
                 FIX=0                                                              148  LM00174
 04414 CLA +0 50000 0 03222    04415 STO +0 60100 0 01043
                 OTHERWISE                                                          149  LM00175
 04416 TRA +0 02000 0 04426
                 BFREAD.(A(1),A(2),K(21)...13,FF1,QEOFCT,QERR)                      150  LM00176
 04417 TSX +0 07400 4 00003    04420 TXH +3 00000 0 00111    04421 TXH +3 00000 0 00110    04422 TIX +2 03231 0 02260
 04423 TXH +3 00000 0 00043    04424 TXH +3 00000 0 03211    04425 TXH +3 00000 0 00063
                 END OF CONDITIONAL                                                 151  LM00177
      RR         CONTINUE                                                           152  LM00178
 04426 TRA +0 02000 0 04254
                 END OF CONDITIONAL                                                 153  LM00179
      QERR       PRNTER.(61K)                                                       154  LM00183
 04427 TSX +0 07400 4 00013    04430 TXH +3 00000 0 03240
                 TRANSFER TO FF1                                                    155  LM00184
 04431 TRA +0 02000 0 00043
      FF         CONTINUE                                                           156  LM00185
                 EOF=A(3)                                                           157  LM00186
 04432 CLA +0 50000 0 00107    04433 STO +0 60100 0 01040
                 EXECUTE PRNTP.(EOF)                                                158  LM00187
 04434 TSX +0 07400 4 00015    04435 TXH +3 00000 0 01040
      FF1        BFCLOS.(A(1),A(2),OUT)                                             159  LM00188
 04436 TSX +0 07400 4 00001    04437 TXH +3 00000 0 00111    04440 TXH +3 00000 0 00110    04441 TXH +3 00000 0 00057
                 EXECUTE SAVBRK.                                                    160  LM00189
 04442 TSX +0 07400 4 00016
      OUT        EXECUTE CHNCOM.(0)                                                 161  LM00190
 04443 TSX +0 07400 4 00005    04444 TXH +3 00000 0 03222
      ERR1       EXECUTE PRNTP.(MES)                                                162  LM00192
 04445 TSX +0 07400 4 00015    04446 TXH +3 00000 0 03177
                 TRANSFER TO OUT                                                    163  LM00193
 04447 TRA +0 02000 0 00057
                 INTERNAL FUNCTION(Z)                                               164  LM00197
 04450 TRA +0 02000 0 04474
                 ENTRY TO ERR2.                                                     165  LM00198
 04451 TRA +0 02000 0 04454    00025 TTR +0 02100 0 04452    04452 SXA +0 63400 2 04462    04453 TSX +0 07400 2 04462
                 MES3=Z                                                             166  LM00199
 04454 CLA +0 50000 0 00024    04455 STO +0 60100 0 03156
                 EXECUTE PRNTP.(MES3)                                               167  LM00200
 04456 TSX +0 07400 4 00015    04457 TXH +3 00000 0 03156
                 TRANSFER TO DD                                                     168  LM00201
 04460 TRA +0 02000 0 00040
                 END OF FUNCTION                                                    169  LM00202
 04461 TSX +0 07400 4 00006    04462 TXH +3 00000 0 00000    04463 SXD -0 63400 1 04462    04464 SXA +0 63400 4 04470
 04465 CLA +0 50000 4 00001    04466 STA +0 62100 0 04454    04467 TRA +0 02000 2 00001    04470 AXT +0 77400 4 00000
 04471 LXA +0 53400 2 04462    04472 LXD -0 53400 1 04462    04473 TRA +0 02000 4 00001
                 INTERNAL FUNCTION                                                  170  LM00204
 04474 TRA +0 02000 0 04524
                 ENTRY TO FULMD.                                                    171  LM00205
 04475 TRA +0 02000 0 04500    00026 TTR +0 02100 0 04476    04476 SXA +0 63400 2 04514    04477 TSX +0 07400 2 04514
                 BLANK=006000600060K                                                172  LM00206
 04500 CLA +0 50000 0 03246    04501 STO +0 60100 0 00114
                 CHAR=12                                                            173  LM00207
 04502 CLA +0 50000 0 03230    04503 STO +0 60100 0 01000
                 WORD=3                                                             174  LM00208
 04504 CLA +0 50000 0 03225    04505 STO +0 60100 0 03217
                 NAX=132                                                            175  LM00209
 04506 CLA +0 50000 0 03244    04507 STO +0 60100 0 03204
                 BEG=131                                                            176  LM00210
 04510 CLA +0 50000 0 03243    04511 STO +0 60100 0 00113
                 FUNCTION RETURN                                                    177  LM00211
 04512 TRA +0 02000 0 04520
                 END OF FUNCTION                                                    178  LM00212
 04513 TSX +0 07400 4 00006    04514 TXH +3 00000 0 00000    04515 SXD -0 63400 1 04514    04516 SXA +0 63400 4 04520
 04517 TRA +0 02000 2 00001    04520 AXT +0 77400 4 00000    04521 LXA +0 53400 2 04514    04522 LXD -0 53400 1 04514
 04523 TRA +0 02000 4 00001
                 INTERNAL FUNCTION                                                  179  LM00214
 04524 TRA +0 02000 0 04562
                 ENTRY TO GLBLN.                                                    180  LM00215
 04525 TRA +0 02000 0 04530    00027 TTR +0 02100 0 04526    04526 SXA +0 63400 2 04551    04527 TSX +0 07400 2 04551
                 W=(K(10).LS.12).V.(K(9).RS.24)                                     181  LM00216
 04530 CAL -0 50000 0 03234    04531 STA +0 62100 0 04533    04532 CAL -0 50000 0 02274    04533 LGR -0 76500 0 00000
 04534 SLW +0 60200 0 04561    04535 CAL -0 50000 0 03230    04536 STA +0 62100 0 04540    04537 CAL -0 50000 0 02273
 04540 ALS +0 76700 0 00000    04541 ORA -0 50100 0 04561    04542 SLW +0 60200 0 03220
                 W=W.A.007777777777K                                                182  LM00217
 04543 CAL -0 50000 0 03220    04544 ANA -0 32000 0 03247    04545 SLW +0 60200 0 03220
                 FUNCTION RETURN W                                                  183  LM00218
 04546 CLA +0 50000 0 03220    04547 TRA +0 02000 0 04555
                  END OF FUNCTION                                                   184  LM00219
 04550 TSX +0 07400 4 00006    04551 TXH +3 00000 0 00000    04552 SXD -0 63400 1 04551    04553 SXA +0 63400 4 04555
 04554 TRA +0 02000 2 00001    04555 AXT +0 77400 4 00000    04556 LXA +0 53400 2 04551    04557 LXD -0 53400 1 04551
 04560 TRA +0 02000 4 00001
                 INTERNAL FUNCTION                                                  185  LM00221
 04562 TRA +0 02000 0 04667
                 ENTRY TO INMK.                                                     186  LM00222
 04563 TRA +0 02000 0 04566    00030 TTR +0 02100 0 04564    04564 SXA +0 63400 2 04657    04565 TSX +0 07400 2 04657
                 ZERO=0                                                             187  LM00223
 04566 CLA +0 50000 0 03222    04567 STO +0 60100 0 03221
                 CLIN=K(NAX).A.MASK2                                                188  LM00224
 04570 LXA +0 53400 1 03204    04571 CAL -0 50000 1 02305    04572 ANA -0 32000 0 03130    04573 SLW +0 60200 0 01002
                 WHENEVER CLIN.G.NAX                                                189  LM00225
 04574 CLA +0 50000 0 01002    04575 SUB +0 40200 0 03204    04576 TZE +0 10000 0 04605    04577 TMI -0 12000 0 04605
                   MOV=CLIN-NAX                                                     190  LM00226
 04600 CLA +0 50000 0 01002    04601 SUB +0 40200 0 03204    04602 STO +0 60100 0 03202
                   CLIN=NAX                                                         191  LM00227
 04603 CLA +0 50000 0 03204    04604 STO +0 60100 0 01002
                 END OF CONDITIONAL                                                 192  LM00228
                 BFREAD.(A(1),A(2),K(BEG)...CLIN,FF1,QEOFCT,QERR)                   193  LM00229
 04605 CLA +0 50000 0 00113    04606 SUB +0 40200 0 04607    04607 TXH +3 00000 0 02305    04610 STA +0 62100 0 04614
 04611 TSX +0 07400 4 00003    04612 TXH +3 00000 0 00111    04613 TXH +3 00000 0 00110    04614 TIX +2 01002 0 00000
 04615 TXH +3 00000 0 00043    04616 TXH +3 00000 0 03211    04617 TXH +3 00000 0 00063
      MOVNE      WHENEVER MOV.NE.0                                                  194  LM00230
 04620 CLA +0 50000 0 03202    04621 SUB +0 40200 0 03222    04622 TZE +0 10000 0 04655
                 WHENEVER MOV.G.NAX                                                 195  LM00231
 04623 CLA +0 50000 0 03202    04624 SUB +0 40200 0 03204    04625 TZE +0 10000 0 04635    04626 TMI -0 12000 0 04635
                   MV=NAX                                                           196  LM00232
 04627 CLA +0 50000 0 03204    04630 STO +0 60100 0 03203
                   MOV=MOV-NAX                                                      197  LM00233
 04631 CLA +0 50000 0 03202    04632 SUB +0 40200 0 03204    04633 STO +0 60100 0 03202
                 OTHERWISE                                                          198  LM00234
 04634 TRA +0 02000 0 04641
                   MV=MOV                                                           199  LM00235
 04635 CLA +0 50000 0 03202    04636 STO +0 60100 0 03203
                   MOV=0                                                            200  LM00236
 04637 CLA +0 50000 0 03222    04640 STO +0 60100 0 03202
                 END OF CONDITIONAL                                                 201  LM00237
                 BFREAD.(A(1),A(2),KK(BEG)...MV,FF1,QEOFCT,QERR)                    202  LM00238
 04641 CLA +0 50000 0 00113    04642 SUB +0 40200 0 04643    04643 TXH +3 00000 0 02100    04644 STA +0 62100 0 04650
 04645 TSX +0 07400 4 00003    04646 TXH +3 00000 0 00111    04647 TXH +3 00000 0 00110    04650 TIX +2 03203 0 00000
 04651 TXH +3 00000 0 00043    04652 TXH +3 00000 0 03211    04653 TXH +3 00000 0 00063
                 TRANSFER TO MOVNE                                                  203  LM00239
 04654 TRA +0 02000 0 00053
                 END OF CONDITIONAL                                                 204  LM00240
                 FUNCTION RETURN                                                    205  LM00241
 04655 TRA +0 02000 0 04663
                 END OF FUNCTION                                                    206  LM00242
 04656 TSX +0 07400 4 00006    04657 TXH +3 00000 0 00000    04660 SXD -0 63400 1 04657    04661 SXA +0 63400 4 04663
 04662 TRA +0 02000 2 00001    04663 AXT +0 77400 4 00000    04664 LXA +0 53400 2 04657    04665 LXD -0 53400 1 04657
 04666 TRA +0 02000 4 00001
                 INTERNAL FUNCTION                                                  207  LM00244
 04667 TRA +0 02000 0 05034
                 ENTRY TO PRYNT.                                                    208  LM00245
 04670 TRA +0 02000 0 04673    00032 TTR +0 02100 0 04671    04671 SXA +0 63400 2 05024    04672 TSX +0 07400 2 05024
                 TOP=PRNCT                                                          209  LM00246
 04673 CLA +0 50000 0 03210    04674 STO +0 60100 0 03216
                 THROUGH LOOP,FOR IB=TOP,-1,IB.L.0                                  210  LM00247
 04675 CLA +0 50000 0 03216    04676 STO +0 60100 0 01047    04677 TRA +0 02000 0 04703    04700 CLS +0 50200 0 03223
 04701 ADD +0 40000 0 01047    04702 STO +0 60100 0 01047    04703 CLA +0 50000 0 01047    04704 SUB +0 40200 0 03222
 04705 TZE +0 10000 0 04707    04706 TMI -0 12000 0 04723
                 WHENEVER KCHOS(IB).NE.60K.AND.KCHOS(IB).NE.57K,                    211  LM00248
                1TRANSFER TO NBLK                                                   211  LM00249
 04707 LXA +0 53400 1 01047    04710 CLA +0 50000 1 01670    04711 SUB +0 40200 0 03236    04712 TZE +0 10000 0 04717
 04713 CLA +0 50000 1 01670    04714 SUB +0 40200 0 03237    04715 TZE +0 10000 0 04717    04716 TRA +0 02000 0 00054
      LOOP       PRNCT=PRNCT-1                                                      212  LM00250
 04717 CLA +0 50000 0 03210    04720 SUB +0 40200 0 03223    04721 STO +0 60100 0 03210    04722 TRA +0 02000 0 04700
      NBLK       NUM=(PRNCT)/WORD+1+ZERO                                            213  LM00251
 04723 LDQ +0 56000 0 03210    04724 PXD -0 75400 0 00000    04725 LLS +0 76300 0 00000    04726 DVP +0 22100 0 03217
 04727 XCA +0 13100 0 00000    04730 ADD +0 40000 0 03223    04731 ADD +0 40000 0 03221    04732 STO +0 60100 0 03207
                 WHENEVER PRNCT.L.0                                                 214  LM00252
 04733 CLA +0 50000 0 03210    04734 SUB +0 40200 0 03222    04735 TZE +0 10000 0 04742    04736 TPL +0 12000 0 04742
                   NUM=0                                                            215  LM00253
 04737 CLA +0 50000 0 03222    04740 STO +0 60100 0 03207
                   TRANSFER TO OMIT                                                 216  LM00254
 04741 TRA +0 02000 0 00056
                 END OF CONDITIONAL                                                 217  LM00255
                 PAKNR.(KCHOS...KCHOS(PRNCT),KK(ZERO)...KK(NUM-1),CHAR)             218  LM00256
 04742 CLA +0 50000 0 03207    04743 SUB +0 40200 0 03223    04744 SUB +0 40200 0 04745    04745 TXH +3 00000 0 02100
 04746 ALS +0 76700 0 00022    04747 STD +0 62200 0 04763    04750 CLA +0 50000 0 03221    04751 SUB +0 40200 0 04752
 04752 TXH +3 00000 0 02100    04753 STA +0 62100 0 04763    04754 CLA +0 50000 0 03210    04755 SUB +0 40200 0 04756
 04756 TXH +3 00000 0 01670    04757 ALS +0 76700 0 00022    04760 STD +0 62200 0 04762    04761 TSX +0 07400 4 00012
 04762 TIX +2 00000 0 01670    04763 TIX +2 00000 0 00000    04764 TXH +3 00000 0 01000
      OMIT       KK(NUM)=575757575755K                                              219  LM00257
 04765 LXA +0 53400 1 03207    04766 CLA +0 50000 0 03252    04767 STO +0 60100 1 02100
                 WHENEVER FLAG.E.1                                                  220  LM00258
 04770 CLA +0 50000 0 01044    04771 SUB +0 40200 0 03223    04772 TNZ -0 10000 0 05004
                   KK(NUM)=FENCE                                                    221  LM00259
 04773 CLA +0 50000 0 01042    04774 STO +0 60100 1 02100
                   FLAG=0                                                           222  LM00260
 04775 CLA +0 50000 0 03222    04776 STO +0 60100 0 01044
                   WHENEVER FULL.E.5,SETFUL.                                        223  LM00261
 04777 CLA +0 50000 0 01045    05000 SUB +0 40200 0 03227    05001 TNZ -0 10000 0 05003    05002 TSX +0 07400 4 00020
                   TRANSFER TO PC                                                   224  LM00262
 05003 TRA +0 02000 0 00060
                 END OF CONDITIONAL                                                 225  LM00263
                 KK(NUM+1)=FENCE                                                    226  LM00264
 05004 CLA +0 50000 0 03207    05005 ADD +0 40000 0 03223    05006 PAX +0 73400 1 00000    05007 CLA +0 50000 0 01042
 05010 STO +0 60100 1 02100
                 WHENEVER FULL.E.5                                                  227  LM00265
 05011 CLA +0 50000 0 01045    05012 SUB +0 40200 0 03227    05013 TNZ -0 10000 0 05020
                 KK(NUM)=005700570055K                                              228  LM00266
 05014 LXA +0 53400 1 03207    05015 CLA +0 50000 0 03245    05016 STO +0 60100 1 02100
                 EXECUTE SETFUL.                                                    229  LM00267
 05017 TSX +0 07400 4 00020
                 END OF CONDITIONAL                                                 230  LM00268
      PC         PRNTPC.(KK)                                                        231  LM00269
 05020 TSX +0 07400 4 00014    05021 TXH +3 00000 0 02100
                 FUNCTION RETURN                                                    232  LM00270
 05022 TRA +0 02000 0 05030
                  END OF FUNCTION                                                   233  LM00271
 05023 TSX +0 07400 4 00006    05024 TXH +3 00000 0 00000    05025 SXD -0 63400 1 05024    05026 SXA +0 63400 4 05030
 05027 TRA +0 02000 2 00001    05030 AXT +0 77400 4 00000    05031 LXA +0 53400 2 05024    05032 LXD -0 53400 1 05024
 05033 TRA +0 02000 4 00001
                 INTERNAL FUNCTION                                                  234  LM00273
 05034 TRA +0 02000 0 05206
                 ENTRY TO PKOFF.                                                    235  LM00274
 05035 TRA +0 02000 0 05040    00031 TTR +0 02100 0 05036    05036 SXA +0 63400 2 05176    05037 TSX +0 07400 2 05176
                 CKEND=CLIN*WORD                                                    236  LM00275
 05040 LDQ +0 56000 0 01002    05041 MPY +0 20000 0 03217    05042 STQ -0 60000 0 01001
                 THROUGH PICKC,FOR I=1,1,I.G.ACT                                    237  LM00276
 05043 CLA +0 50000 0 03223    05044 STO +0 60100 0 01053    05045 TRA +0 02000 0 05051    05046 CLA +0 50000 0 01053
 05047 ADD +0 40000 0 03223    05050 STO +0 60100 0 01053    05051 CLA +0 50000 0 01053    05052 SUB +0 40200 0 00065
 05053 TZE +0 10000 0 05055    05054 TPL +0 12000 0 05174
                 MIN=C(2*(I-1)+1)                                                   238  LM00277
 05055 CLA +0 50000 0 01053    05056 SUB +0 40200 0 03223    05057 XCA +0 13100 0 00000    05060 MPY +0 20000 0 03224
 05061 XCA +0 13100 0 00000    05062 ADD +0 40000 0 03223    05063 PAX +0 73400 2 00000    05064 CLA +0 50000 2 01026
 05065 STO +0 60100 0 03200
                 MAX=C(2*I)                                                         239  LM00278
 05066 LDQ +0 56000 0 03224    05067 MPY +0 20000 0 01053    05070 XCA +0 13100 0 00000    05071 PAX +0 73400 2 00000
 05072 CLA +0 50000 2 01026    05073 STO +0 60100 0 03131
                 INC=1                                                              240  LM00279
 05074 CLA +0 50000 0 03223    05075 STO +0 60100 0 01052
                 WHENEVER MAX.L.MIN,INC=-1                                          241  LM00280
 05076 CLA +0 50000 0 03131    05077 SUB +0 40200 0 03200    05100 TZE +0 10000 0 05104    05101 TPL +0 12000 0 05104
 05102 CLS +0 50200 0 03223    05103 STO +0 60100 0 01052
                 THROUGH CHOSC,FOR II=MIN,INC,II.E.MAX+INC                          242  LM00281
 05104 CLA +0 50000 0 03200    05105 STO +0 60100 0 01051    05106 TRA +0 02000 0 05112    05107 CLA +0 50000 0 01051
 05110 ADD +0 40000 0 01052    05111 STO +0 60100 0 01051    05112 CLA +0 50000 0 03131    05113 ADD +0 40000 0 01052
 05114 CHS +0 76000 0 00002    05115 ADD +0 40000 0 01051    05116 TZE +0 10000 0 05146
                 WHENEVER ARYCT.E.130                                               243  LM00282
 05117 CLA +0 50000 0 00066    05120 SUB +0 40200 0 03242    05121 TNZ -0 10000 0 05131
                 PRNCT=ARYCT                                                        244  LM00283
 05122 CLA +0 50000 0 00066    05123 STO +0 60100 0 03210
                 FLAG=1                                                             245  LM00284
 05124 CLA +0 50000 0 03223    05125 STO +0 60100 0 01044
                   EXECUTE PRYNT.                                                   246  LM00285
 05126 TSX +0 07400 4 00032
                   ARYCT=0                                                          247  LM00286
 05127 CLA +0 50000 0 03222    05130 STO +0 60100 0 00066
                 END OF CONDITIONAL                                                 248  LM00287
                 WHENEVER II.G.CKEND,TRANSFER TO CHO                                249  LM00288
 05131 CLA +0 50000 0 01051    05132 SUB +0 40200 0 01001    05133 TZE +0 10000 0 05136    05134 TMI -0 12000 0 05136
 05135 TRA +0 02000 0 00036
                 ARYCT=ARYCT+1                                                      250  LM00289
 05136 CLA +0 50000 0 00066    05137 ADD +0 40000 0 03223    05140 STO +0 60100 0 00066
                 KCHOS(ARYCT)=KUNP(II)                                              251  LM00290
 05141 LXA +0 53400 1 00066    05142 LXA +0 53400 2 01051    05143 CLA +0 50000 2 03122    05144 STO +0 60100 1 01670
      CHOSC      CONTINUE                                                           252  LM00291
 05145 TRA +0 02000 0 05107
      CHO        WHENEVER TBCT.E.0,TRANSFER TO PICKC                                253  LM00292
 05146 CLA +0 50000 0 03215    05147 SUB +0 40200 0 03222    05150 TNZ -0 10000 0 05152    05151 TRA +0 02000 0 00061
                 THROUGH PICKC,FOR N=1,1,N.G.TBCT                                   254  LM00293
 05152 CLA +0 50000 0 03223    05153 STO +0 60100 0 03206    05154 TRA +0 02000 0 05160    05155 CLA +0 50000 0 03206
 05156 ADD +0 40000 0 03223    05157 STO +0 60100 0 03206    05160 CLA +0 50000 0 03206    05161 SUB +0 40200 0 03215
 05162 TZE +0 10000 0 05164    05163 TPL +0 12000 0 05173
                 ARYCT=ARYCT+1                                                      255  LM00294
 05164 CLA +0 50000 0 00066    05165 ADD +0 40000 0 03223    05166 STO +0 60100 0 00066
                 KCHOS(ARYCT)=72K                                                   256  LM00295
 05167 LXA +0 53400 1 00066    05170 CLA +0 50000 0 03241    05171 STO +0 60100 1 01670
      PICKC      CONTINUE                                                           257  LM00296
 05172 TRA +0 02000 0 05155    05173 TRA +0 02000 0 05046
                 FUNCTION RETURN                                                    258  LM00297
 05174 TRA +0 02000 0 05202
                 END OF FUNCTION                                                    259  LM00298
 05175 TSX +0 07400 4 00006    05176 TXH +3 00000 0 00000    05177 SXD -0 63400 1 05176    05200 SXA +0 63400 4 05202
 05201 TRA +0 02000 2 00001    05202 AXT +0 77400 4 00000    05203 LXA +0 53400 2 05176    05204 LXD -0 53400 1 05176
 05205 TRA +0 02000 4 00001
                 NORMAL MODE IS INTEGER                                             260  LM00302
                 DIMENSION KK(135),BUF1(432),K(132),KUNP(396),                      261  LM00303
                1KCHOS(396),A(19),C(19)                                             261  LM00304
                 VECTOR VALUES FULL=0                                               262  LM00306
 01045     +0 00000 0 00000
                 VECTOR VALUES ZERO=0                                               263  LM00307
 03221     +0 00000 0 00000
                 VECTOR VALUES BMASK=000000000057K                                  264  LM00308
 00115     +0 00000 0 00057
                 VECTOR VALUES CLIN=14                                              265  LM00309
 01002     +0 00000 0 00016
                 VECTOR VALUES MOV=0                                                266  LM00310
 03202     +0 00000 0 00000
                 VECTOR VALUES BLANK=606060606060K                                  267  LM00311
 00114     -2 06060 6 06060
                 VECTOR VALUES FLAG=0                                               268  LM00312
 01044     +0 00000 0 00000
                 VECTOR VALUES NAX=22                                               269  LM00313
 03204     +0 00000 0 00026
                 VECTOR VALUES BEG=21                                               270  LM00314
 00113     +0 00000 0 00025
                 VECTOR VALUES EOF(1)=$ NOT IN FILE.$, 777777777777K                271  LM00315
 01034     -3 77777 7 77777    01035     +3 36060 6 06060    01036     -0 56026 3 14325    01037     -2 04546 6 36031
                 VECTOR VALUES C=0, 1, 72                                           272  LM00316
 01024     +0 00000 0 00110    01025     +0 00000 0 00001    01026     +0 00000 0 00000
                 VECTOR VALUES D=3                                                  273  LM00317
 01031     +0 00000 0 00003
                 VECTOR VALUES R=1                                                  274  LM00318
 03213     +0 00000 0 00001
                 VECTOR VALUES R1=377777777777K                                     275  LM00319
 03212     +3 77777 7 77777
                 VECTOR VALUES L1=377777777777K                                     276  LM00320
 03123     +3 77777 7 77777
                 VECTOR VALUES K=$$                                                 277  LM00321
 02305     -2 06060 6 06060
                 VECTOR VALUES FIX=1                                                278  LM00322
 01043     +0 00000 0 00001
                 VECTOR VALUES EDIT=0                                               279  LM00323
 01032     +0 00000 0 00000
                 VECTOR VALUES E=6                                                  280  LM00324
 01041     +0 00000 0 00006
                 VECTOR VALUES H=0                                                  281  LM00325
 01046     +0 00000 0 00000
                 VECTOR VALUES MES=$ INCORRECT FORMAT$, 777777777777K               282  LM00326
 03174     -3 77777 7 77777    03175     -0 65144 2 16360    03176     -1 12523 6 36026    03177     -2 03145 2 34651
                 VECTOR VALUES TABCOV=15                                            283  LM00327
 03214     +0 00000 0 00017
                 VECTOR VALUES TBCT=0                                               284  LM00328
 03215     +0 00000 0 00000
                 VECTOR VALUES MASK1=777777000000K                                  285  LM00329
 03127     -3 77777 0 00000
                 VECTOR VALUES MASK2=000000777777K                                  286  LM00330
 03130     +0 00000 7 77777
                 VECTOR VALUES MES=$COMMAND FORMAT IS 'PRINT NAME1 NAME2            287  LM00331
                1-R(TO/THRU R2) F(1) L(1) ... F(N) L(N) TAB (FULL)-$,               287  LM00332
                2777777777777K                                                      287  LM00333
 03157     -3 77777 7 77777    03160     +3 44060 6 06060    03161     -2 07426 6 44343    03162     -0 53460 6 32122
 03163     -3 44534 6 04374    03164     -2 03333 3 36026    03165     +3 46043 7 40134    03166     +0 23460 2 67401
 03167     -2 33051 6 46051    03170     -0 05174 6 34661    03171     -2 06060 6 06060    03172     -2 04521 4 42502
 03173     -2 04521 4 42501    03174     +1 44751 3 14563    03175     +2 16360 3 16260    03176     +2 46026 4 65144
 03177     +2 34644 4 42145
                 VECTOR VALUES WORD=6                                               288  LM00334
 03217     +0 00000 0 00006
                 VECTOR VALUES CHAR=6                                               289  LM00335
 01000     +0 00000 0 00006
                 VECTOR VALUES MES1(2)=$ NOT FOUND$, 777777777777K                  290  LM00336
 03132     -3 77777 7 77777    03133     -0 66445 2 46060    03134     -2 04546 6 36026
                 VECTOR VALUES MES2(1)=$   TO$, 0,$ IS ILLEGAL$, 777777777777K      291  LM00337
 03137     -3 77777 7 77777    03140     -0 32527 2 14360    03141     -2 03162 6 03143    03142     +0 00000 0 00000
 03143     -2 06060 6 34660
                 VECTOR VALUES MES3(1)=$ NOT DECIMAL.  FOLLOWING ARGUMENTS ARE      292  LM00338
                1 IGNORED.$, 777777777777K                                          292  LM00339
 03145     -3 77777 7 77777    03146     -0 65125 2 43360    03147     -1 12560 3 12745    03150     +2 54563 6 26021
 03151     -2 02151 2 76444    03152     -0 34666 3 14527    03153     +3 36060 2 64643    03154     +2 52331 4 42143
 03155     -2 04546 6 36024
                 VECTOR VALUES FENCE=777777777777K                                  293  LM00340
 01042     -3 77777 7 77777
                 END OF PROGRAM                                                     294  LM00341
 05206 TSX +0 07400 4 00006
1       GLIMS IS USED TO EVALUATE THE THE MAD EXPRESSION                                         PAGE 1
                           FILE NAME -- UNPNR FAP

                       00002         ENTRY   UNPKNR
                                     INSERT  WMACS
                              ZMQ    MACRO
                                     LDQ     =0
                              ZMQ    END
             0 00001 1 60000  ---    OPSYN   PZE
                              * A...B.  WORD IS THE ARGUMENT(TXH A,,B),  AND THE REST IS AS FOLLOWS--
                              *
                              *      GLIMS   WORD,HOLD,BUMP,CHECK
                              *      ...
                              * HOLD AXC     --,1
                              * X    BSS
                              *      ...
                              * CHECK        ---           *+2,1,--
                              * BUMP TXI     X,1,--
                              *
                              * THE IR SPECIFIED IS ALWAYS -THIS WORD.
                              *
                              GLIMS  MACRO   WORD,HOLD,BUMP,CHECK,D1,D2,D3
                                     CAL     WORD
                                     STD     D1
                                     AXT     1,1
                                     PAX     ,2
                              D1     TXL     D2,2,1
                                     AXT     -1,1
                              D2     BSS
                                     IRP     BUMP
                                     SCD     BUMP,1
                                     IRP
                                     PAX     ,2
                                     IRP     HOLD
                                     SXA     HOLD,2
                                     IRP
                                     PDX     ,2
                                     LDQ     =O700000000000
                                     TXL     D3,1,1
                                     TXI     *+1,2,1
                                     LDQ     =O300000000000
                              D3     BSS
                                     XCL
                                     IRP     CHECK
                                     SCD     CHECK,2
                                     STP     CHECK
                                     IRP
                              GLIMS  END
                              REPORT MACRO   Z,TEXT,CR01,CR02,CR03
                                     TRA     CR01
                                     BCI     Z,TEXT
                              CR01   BSS
                                     TSX     $WRFLX,4
                                             CR01-Z,,Z
                              REPORT END
1       GLIMS IS USED TO EVALUATE THE THE MAD EXPRESSION                                         PAGE 2
                           FILE NAME -- UNPNR FAP

            LINKAGE DIRECTOR
      00000  000000000000
      00001  644547424551

      00002  0634 00 1 00103  UNPKNR SXA     UP07,1
      00003  0634 00 2 00104         SXA     UP08,2
      00004  0636 00 4 00105         SCA     UP09,4
      00005  0600 00 0 00107         STZ     CHCNT         INITIALIZE COUNT
      00006                          GLIMS   (1,4),HLDW,BMPW,CHKW GET LIMITS
 A    00014                   ..002  BSS                                                                      .001
 A    00024                   ..003  BSS                                                                      .001
      00027                          GLIMS   (2,4),HLDC,(BMPC1,BMPC2),(CHKC1,CHKC2)
 A    00035                   ..005  BSS                                                                      .001
 A    00046                   ..006  BSS                                                                      .001
      00053 -0500 60 4 00003         CAL*    3,4           GET BYTE SIZE
      00054  0621 00 0 00064         STA     UP03          ..
      00055  0767 00 0 00022         ALS     18            ..
      00056  0622 00 0 00073         STD     UP04          ..
      00057 -0774 00 1 00000  HLDW   AXC     --,1          FIRST WORD
      00060 -0774 00 2 00000  HLDC   AXC     --,2          FIRST CHARACTER
      00061  0774 00 4 00044  UP01   AXT     36,4          IR4 COUNTS CHARS IN WORD
      00062  0560 00 1 00000         LDQ     ,1
      00063 -0754 00 0 00000  UP02   ZAC
      00064 -0763 00 0 00000  UP03   LGL     --
      00065  0602 00 2 00000         SLW     ,2
      00066 -0500 00 0 00107         CAL     CHCNT
      00067  0400 00 0 00110         ADD     =1
      00070  0602 00 0 00107         SLW     CHCNT
      00071  0 00000 2 00103  CHKC1  ---     UP07,2,--
      00072  1 00000 2 00073  BMPC1  TXI     *+1,2,--
      00073  2 00000 4 00063  UP04   TIX     UP02,4,--
      00074  0 00000 1 00076  CHKW   ---     UP05,1,--
      00075  1 00000 1 00061  BMPW   TXI     UP01,1,--
                              *
      00076 -0500 00 0 00111  UP05   CAL     =O60          FILL CHARACTER BUFFER IF WORDS RAN OUT
      00077  0602 00 2 00000  UP06   SLW     ,2            ..
      00100  0 00000 2 00103  CHKC2  ---     UP07,2,--     ..
      00101  1 00000 2 00077  BMPC2  TXI     UP06,2,--     ..
                              *
      00102 -0500 00 0 00107         CAL     CHCNT         GET COUNT OF CHARS UNPACKED.
      00103  0774 00 1 00000  UP07   AXT     --,1          RETURN
      00104  0774 00 2 00000  UP08   AXT     --,2          ..
      00105 -0774 00 4 00000  UP09   AXC     --,4          ..
      00106  0020 00 4 00001         TRA     1,4           ..
      00107  0 00000 0 00000  CHCNT                        CHARACTER COUNT
                                     END

        LITERALS
      00110  000000000001
      00111  000000000060
      00112  300000000000
      00113  700000000000
1       GLIMS IS USED TO EVALUATE THE THE MAD EXPRESSION                                         PAGE 1
                        POST PROCESSOR ASSEMBLY DATA

        114 IS THE FIRST LOCATION NOT USED BY THIS PROGRAM

0REFERENCES TO DEFINED SYMBOLS
         75   BMPW    14
         74   CHKW    25,   26
         60   HLDC    40
         57   HLDW    16
         61   UP01    75
         63   UP02    73
         64   UP03    54
         73   UP04    56
         76   UP05    74
         77   UP06   101
        103   UP07     2,   71,  100
        104   UP08     3
        105   UP09     4
         72  BMPC1    35
        101  BMPC2    36
        107  CHCNT     5,   66,   70,  102
         71  CHKC1    47,   50
        100  CHKC2    51,   52
         12  ..001     7
         14  ..002    12
         24  ..003    21
         33  ..004    30
         35  ..005    33
         46  ..006    43
          2 UNPKNR     0

0 NO ERROR IN ABOVE ASSEMBLY.
1       GLIMS IS USED TO EVALUATE THE THE MAD EXPRESSION                                         PAGE 1
                           FILE NAME -- PAKNR FAP

                       00002         ENTRY   PAKNR
                                     INSERT  WMACS
                              ZMQ    MACRO
                                     LDQ     =0
                              ZMQ    END
             0 00001 1 60000  ---    OPSYN   PZE
                              * A...B.  WORD IS THE ARGUMENT(TXH A,,B),  AND THE REST IS AS FOLLOWS--
                              *
                              *      GLIMS   WORD,HOLD,BUMP,CHECK
                              *      ...
                              * HOLD AXC     --,1
                              * X    BSS
                              *      ...
                              * CHECK        ---           *+2,1,--
                              * BUMP TXI     X,1,--
                              *
                              * THE IR SPECIFIED IS ALWAYS -THIS WORD.
                              *
                              GLIMS  MACRO   WORD,HOLD,BUMP,CHECK,D1,D2,D3
                                     CAL     WORD
                                     STD     D1
                                     AXT     1,1
                                     PAX     ,2
                              D1     TXL     D2,2,1
                                     AXT     -1,1
                              D2     BSS
                                     IRP     BUMP
                                     SCD     BUMP,1
                                     IRP
                                     PAX     ,2
                                     IRP     HOLD
                                     SXA     HOLD,2
                                     IRP
                                     PDX     ,2
                                     LDQ     =O700000000000
                                     TXL     D3,1,1
                                     TXI     *+1,2,1
                                     LDQ     =O300000000000
                              D3     BSS
                                     XCL
                                     IRP     CHECK
                                     SCD     CHECK,2
                                     STP     CHECK
                                     IRP
                              GLIMS  END
                              REPORT MACRO   Z,TEXT,CR01,CR02,CR03
                                     TRA     CR01
                                     BCI     Z,TEXT
                              CR01   BSS
                                     TSX     $WRFLX,4
                                             CR01-Z,,Z
                              REPORT END
1       GLIMS IS USED TO EVALUATE THE THE MAD EXPRESSION                                         PAGE 2
                           FILE NAME -- PAKNR FAP

            LINKAGE DIRECTOR
      00000  000000000000
      00001  472142455160

      00002  0634 00 1 00120  PAKNR  SXA     PK12,1
      00003  0634 00 2 00121         SXA     PK13,2
      00004  0636 00 4 00122         SCA     PK14,4
      00005                          GLIMS   (1,4),HLDC,BMPC,CHKC
 A    00013                   ..002  BSS                                                                      .001
 A    00023                   ..003  BSS                                                                      .001
      00026                          GLIMS   (2,4),HLDW,(BMPW1,BMPW2),(CHKW1,CHKW2)
 A    00034                   ..005  BSS                                                                      .001
 A    00045                   ..006  BSS                                                                      .001
      00052 -0500 60 4 00003         CAL*    3,4
      00053  0734 00 1 00000         PAX     ,1
      00054  0634 00 1 00072         SXA     PK04,1
      00055  0634 00 1 00107         SXA     PK09,1
      00056 -0634 00 1 00073         SXD     PK05,1
      00057 -0634 00 1 00110         SXD     PK10,1
      00060 -0636 00 1 00077         SCD     PK06,1
      00061 -0636 00 1 00112         SCD     PK11,1
      00062  1 77734 1 00063         TXI     *+1,1,-36
      00063  0636 00 1 00071         SCA     PK03,1
      00064  0636 00 1 00106         SCA     PK08,1
                              *
      00065 -0774 00 1 00000  HLDW   AXC     --,1          FIRST WORD
      00066 -0774 00 2 00000  HLDC   AXC     --,2          FIRST CHARACTER
      00067  0774 00 4 77734  PK01   AXT     -36,4
      00070  0560 00 2 00000  PK02   LDQ     ,2
      00071 -0773 00 0 00000  PK03   RQL     --            (36-BITS)
      00072 -0763 00 0 00000  PK04   LGL     --            (BITS)
      00073  1 00000 4 00074  PK05   TXI     *+1,4,--      (BITS)
      00074  0 00000 2 00111  CHKC   ---     PKP10,2,--
      00075  1 00000 2 00076  BMPC   TXI     *+1,2,--
      00076 -3 00000 4 00100         TXL     *+2,4,0
      00077 -3 00000 4 00070  PK06   TXL     PK02,4,--     (-BITS)
      00100                          ZMQ
      00101 -0763 00 4 00000         LGL     ,4
      00102  0602 00 1 00000         SLW     ,1
                              *
      00103  0 00000 1 00120  CHKW1  ---     PK12,1,--
      00104  1 00000 1 00067  BMPW1  TXI     PK01,1,--
                              *
      00105  0560 00 0 00125  PK07   LDQ     =O57          FILL IN LAST WORD
      00106 -0773 00 0 00000  PK08   RQL     --            (36-BITS)
      00107 -0763 00 0 00000  PK09   LGL     --            (BITS)
      00110  1 00000 4 00111  PK10   TXI     *+1,4,--      (BITS)
      00111 -3 00000 4 00113  PKP10  TXL     *+2,4,0       (DAMN)
      00112 -3 00000 4 00105  PK11   TXL     PK07,4,--      (-BITS)
      00113  0602 00 1 00000         SLW     ,1
      00114  0 00000 1 00120  CHKW2  ---     PK12,1,--
      00115  1 00000 1 00116  BMPW2  TXI     *+1,1,--
      00116  0774 00 4 77734         AXT     -36,4
      00117  0020 00 0 00105         TRA     PK07
                              *
1       GLIMS IS USED TO EVALUATE THE THE MAD EXPRESSION                                         PAGE 3
                           FILE NAME -- PAKNR FAP

      00120  0774 00 1 00000  PK12   AXT     --,1
      00121  0774 00 2 00000  PK13   AXT     --,2
      00122 -0774 00 4 00000  PK14   AXC     --,4
      00123  0020 00 4 00001         TRA     1,4
                                     END

        LITERALS
      00124  000000000000
      00125  000000000057
      00126  300000000000
      00127  700000000000
1       GLIMS IS USED TO EVALUATE THE THE MAD EXPRESSION                                         PAGE 1
                        POST PROCESSOR ASSEMBLY DATA

        130 IS THE FIRST LOCATION NOT USED BY THIS PROGRAM

0REFERENCES TO DEFINED SYMBOLS
         75   BMPC    13
         74   CHKC    24,   25
         66   HLDC    15
         65   HLDW    37
         67   PK01   104
         70   PK02    77
         71   PK03    63
         72   PK04    54
         73   PK05    56
         77   PK06    60
        105   PK07   112,  117
        106   PK08    64
        107   PK09    55
        110   PK10    57
        112   PK11    61
        120   PK12     2,  103,  114
        121   PK13     3
        122   PK14     4
        104  BMPW1    34
        115  BMPW2    35
        103  CHKW1    46,   47
        114  CHKW2    50,   51
         11  ..001     6
         13  ..002    11
         23  ..003    20
         32  ..004    27
         34  ..005    32
         45  ..006    42
          2  PAKNR     0
        111  PKP10    74

0 NO ERROR IN ABOVE ASSEMBLY.


PRNTER   BCD 05/12/69 1845.6   11001         00000
1       PRNTER COMMAND   ROGER ROACH 10-16-67                                                    PAGE 1

                              *
                              * IF THE COMMAND IS CALLED BY ANY OTHER NAME IT WILL ACCEPT THREE
                              * ARGUMENTS - 1. ENTRY NAME, 2. ERROR CODE, AND 3. I/O ERROR CODE.
                              *
                              * IF PRNTER IS CALLED WITH A MASK BEGINNING WITH A BLANK, IT'LL ASSSUME
                              * THIS MASK IS IN SPREAD OCTAL. OTHERWISE IT IS IN BINARY.  A NEGATIVE
                              * ARGUMENT WILL RESULT IN CALLING CHNCOM OTHERWISE BRAKE IS CALLED.
                              *

        TRANSFER VECTOR
      00000  272563234644     GETCOM
      00001  314624312127     IODIAG
      00002  475145632551     PRNTER
      00003  233045234644     CHNCOM
      00004  222346236360     BCOCT
      00005  225121422560     BRAKE
      00006  222324252360     BCDEC
      00007  434164626360     LJUST

      00010  0074 00 4 00000         TSX     $GETCOM,4     TEST THE COMMAND NAME
      00011  0 00000 0 00000         PZE     0
      00012 -0340 00 0 00137         LAS     =HPRNTER
      00013  0020 00 0 00015         TRA     *+2           NOT PRNTER
      00014  0020 00 0 00023         TRA     CALL2
      00015  0500 00 0 00051  CALL1  CLA     DIAGTR        FAKE OUT OF IODIAG
      00016  0601 60 0 00001         STO*    $IODIAG
      00017  0074 00 4 00002         TSX     $PRNTER,4
      00020  3 00000 0 00134         PTH     =O351
      00021  0074 00 4 00003         TSX     $CHNCOM,4
      00022  0 00000 0 00000         PZE     0
                              *
      00023  0500 00 0 00133  CALL2  CLA     DIAGTA        IODIAG'S TIA
      00024  0601 60 0 00001         STO*    $IODIAG
      00025  0074 00 4 00000         TSX     $GETCOM,4
      00026  0 00000 0 00001         PZE     1
      00027 -0340 00 0 00132         LAS     FENCE
      00030  0020 00 0 00032         TRA     *+2           A FENCE, USE THE MASK
      00031 -0500 00 0 00136         CAL     =O-375        ASSUME 375 IF NO MASK
      00032  0602 00 0 00131         SLW     MASK
      00033 -0320 00 0 00141         ANA     =O770000000000
      00034  0322 00 0 00140         ERA     =H 00000
      00035 -0100 00 0 00042         TNZ     *+5
      00036  0074 00 4 00004         TSX     $BCOCT,4
      00037  0 00000 0 00131         PZE     MASK
      00040 -0760 00 0 00003         SSM
      00041  0601 00 0 00131         STO     MASK
      00042  0074 00 4 00002         TSX     $PRNTER,4
      00043  0 00000 0 00131         PZE     MASK
      00044  0500 00 0 00131         CLA     MASK
      00045 -0120 00 0 00047         TMI     *+2
      00046  0074 00 4 00005         TSX     $BRAKE,4
      00047  0074 00 4 00003         TSX     $CHNCOM,4
      00050  0 00000 0 00000         PZE     0
                              *
                              * FAKE OUT OF IODIAG
                              *
1       PRNTER COMMAND   ROGER ROACH 10-16-67                                                    PAGE 2

      00051  0021 00 0 00052  DIAGTR TTR     *+1
      00052  0634 00 4 00117         SXA     XR4,4
      00053  0500 00 4 00001         CLA     1,4
      00054  0621 00 0 00130         STA     BUFFAD
      00055  0622 00 0 00130         STD     BUFFAD
      00056  0074 00 4 00000         TSX     GETCOM,4
      00057  0 00000 0 00001         PZE     1
      00060 -0340 00 0 00132         LAS     FENCE
      00061  0020 00 0 00063         TRA     *+2
      00062  0020 00 0 00023         TRA     CALL2
      00063  0602 00 0 00122         SLW     ENTRY
      00064  0074 00 4 00000         TSX     GETCOM,4
      00065  0 00000 0 00002         PZE     2
      00066 -0340 00 0 00132         LAS     FENCE
      00067  0020 00 0 00071         TRA     *+2
      00070  0020 00 0 00100         TRA     TRNSFR
      00071  0602 00 0 00123         SLW     ERCODE
      00072  0074 00 4 00000         TSX     GETCOM,4
      00073  0 00000 0 00003         PZE     3
      00074 -0340 00 0 00132         LAS     FENCE
      00075  0020 00 0 00077         TRA     *+2
      00076  0020 00 0 00100         TRA     TRNSFR
      00077  0602 00 0 00124         SLW     IOERCD
                              *
      00100  0074 00 4 00006  TRNSFR TSX     $BCDEC,4
      00101  0 00000 0 00123         PZE     ERCODE
      00102  0601 00 0 00123         STO     ERCODE
      00103  0074 00 4 00006         TSX     $BCDEC,4
      00104  0 00000 0 00124         PZE     IOERCD
      00105  0601 00 0 00124         STO     IOERCD
      00106  0074 00 4 00007         TSX     $LJUST,4
      00107  0 00000 0 00122         PZE     ENTRY
      00110  0601 00 0 00122         STO     ENTRY
      00111 -0535 00 4 00130         LDC     BUFFAD,4
      00112  1 00001 4 00113         TXI     *+1,4,1
      00113 -0500 00 4 00121         CAL     BUFF,4
      00114  0602 60 0 00130         SLW*    BUFFAD
      00115 -3 00000 4 00117         TXL     XR4,4,0
      00116  1 00001 4 00113         TXI     *-3,4,1
                              *
      00117  0774 00 4 00000  XR4    AXT     **,4
      00120  0020 00 4 00002         TRA     2,4
                              *
      00121  0 00000 0 00000  BUFF   PZE
      00122  464725456060     ENTRY  BCI     1,OPEN
      00123  0 00000 0 00001  ERCODE PZE     1
      00124  0 00000 0 00005  IOERCD PZE     5
      00125 +000000000000     REST   OCT     0,0,0
      00126 +000000000000
      00127 +000000000000
                              *
      00130  0 00000 4 00000  BUFFAD PZE     **,4,**
      00131  0 00000 0 00000  MASK
      00132 -377777777777     FENCE  OCT     777777777777
      00133  0101 00 0 00135  DIAGTA TIA     =HIODIAG
                                     END
1       PRNTER COMMAND   ROGER ROACH 10-16-67                                                    PAGE 3

        LITERALS
      00134  000000000351
      00135  314624312127
      00136  400000000375
      00137  475145632551
      00140  600000000000
      00141  770000000000
1       PRNTER COMMAND   ROGER ROACH 10-16-67                                                    PAGE 1
                        POST PROCESSOR ASSEMBLY DATA

        142 IS THE FIRST LOCATION NOT USED BY THIS PROGRAM

0REFERENCES TO DEFINED SYMBOLS
        117    XR4    52,  115
        121   BUFF   113
        131   MASK    32,   37,   41,   43,   44
        125   REST
          6  BCDEC   100,  103
          4  BCOCT    36
          5  BRAKE    46
         15  CALL1
         23  CALL2    14,   62
        122  ENTRY    63,  107,  110
        132  FENCE    27,   60,   66,   74
          7  LJUST   106
        130 BUFFAD    54,   55,  111,  114
          3 CHNCOM    21,   47
        133 DIAGTA    23
         51 DIAGTR    15
        123 ERCODE    71,  101,  102
          0 GETCOM    10,   25,   56,   64,   72
          1 IODIAG    16,   24
        124 IOERCD    77,  104,  105
          2 PRNTER    17,   42
        100 TRNSFR    70,   76

0 NO ERROR IN ABOVE ASSEMBLY.
1       PRNTER--PRINT ERROR DIAGNOSTICS FOR FILE SYSTEM.                                         PAGE 1

                              * DON WAGNER'S VERSION WITH VARIABLE VERBOSITY.
                       00003         ENTRY   PRNTER
                                     EXTERN  IODIAG
                              *
                              * CALLED BY
                              *      PRNTER.(MASK)
                              * WHERE MASK HAS A BIT ON FOR EACH MESSAGE PART DESIRED.
                              * THE MESSAGE PARTS ARE--
                              * THE WORD 'ERROR '
                              * ERROR NUMBER
                              * FILE NAME
                              * FILE SYSTEM ROUTINE NAME
                              * CALLING LOCATION
                              * FILE SYSTEM LOCATION
                              * CARRIAGE RETURN
                              *
                              * FOR COMPATIBILITY, IF NO ARGUMENT IS SPECIFIED OR IF
                              * MASK.E.0 A DEFAULT MASK IS USED.
                              *
                              * ALSO CALLED BY
                              *      PRNTER.(MASK,FCN)
                              * WHERE FCN IS A USER'S OUTPUT ROUTINE, CALLED BY PRNTER WITH
                              *      FCN.(BUFF(Z)...Z,Z)
                              *
                              * BECAUSE THE STAND-ALONE PROGRAMS NEED A SLIGHTLY DIFFERENT
                              * PRNTER, THE FOLLOWING ASSEMBLY PARAMETER (LIB) DETERMINES
                              * WHETHER COLT IS CALLED, HOW LONG A PRINTED LINE IS,
                              * WHETHER WRFLX OR WRFLXA IS CALLED.


        TRANSFER VECTOR
      00000  314624312127     IODIAG
      00001  234643636060     COLT
      00002  665126436721     WRFLXA

                       00001  LIB    EQU     1

                              * LIB IS 1 FOR A NORMAL LIBRARY SUBROUTINE, 0 FOR GARMAN'S
                              * SPECIAL ROUTINE.
                              *
                              * COLT MACRO EITHER CALLS $COLT OR DOES AN EASY SUBSET FOR GARMAN.
                              *
                              LIBCLT MACRO
                                     TSX     $COLT,4
                                             IR4
                              LIBCLT END
                              *
                              INDCLT MACRO
                                     LDI     1,4
                                     IIL     300000        TXH
                                     CAL     =O1000000
                                     OFT     =O700000700000
                                     CAL     =0
                                     TXI     *+1,4,-1
                              INDCLT END
                              *
1       PRNTER--PRINT ERROR DIAGNOSTICS FOR FILE SYSTEM.                                         PAGE 2

             2 12251 0 10641  COLT   OPSYN   LIBCLT
                              *
      00003  0636 00 1 00266  PRNTER SCA     SAV1,1
      00004  0636 00 2 00267         SCA     SAV2,2
      00005  0604 00 0 01265         STI     SAVI
      00006 -0634 00 4 01263         SXD     IR4,4
      00007                          COLT
      00007  0074 00 4 00001         TSX     $COLT,4                                                          .001
      00010  0 00000 0 01263                 IR4                                                              .001
      00011  0636 00 4 00270         SCA     SAV4,4
      00012 -0534 00 4 01263         LXD     IR4,4
      00013 -0734 00 2 00000         PDX     ,2
      00014 -3 00000 2 00017         TXL     PR00,2,0
      00015  0441 60 4 00001         LDI*    1,4
      00016 -0520 60 4 00001         NZT*    1,4
      00017  0055 00  000375  PR00   SIR     DFMASK
      00020  0604 00 0 01266         STI     MASK
      00021  0600 00 0 01262         STZ     CALLSW
      00022 -3 00001 2 00026         TXL     PRP1,2,1
      00023 -0500 00 4 00002         CAL     2,4
      00024  0621 00 0 00247         STA     CALL
      00025 -0625 00 0 01262         STL     CALLSW
 A    00026                   PRP1   BSS
      00026  0074 00 4 00000         TSX     IODIAG,4      GET ERROR INFO
      00027  3 00007 0 01253         TXH     DIBUF,,7      ..
                              *
      00030  0535 00 2 01255         LAC     DIBUF+2,2     PICK UP ERROR CODE
      00031  0636 00 2 01267         SCA     ERRN,2
      00032  3 77775 2 00274         TXH     STAND,2,-3    1 AND 2 ARE STANDARD.
      00033 -3 77634 2 00276         TXL     STAND1,2,-100 100 UP ALSO
                              *
      00034 -0500 00 0 01254         CAL     DIBUF+1       ALL OTHERS DEPEND UPON ROUTINE.
      00035  0774 00 1 00072         AXT     NOCALL,1
      00036 -0340 00 1 00403  PR01   LAS     CALLS,1       SEARCH FOR IO ROUTINE
      00037  0020 00 0 00041         TRA     *+2
      00040  0020 00 0 00043         TRA     PR02          FOUND
      00041  2 00002 1 00036         TIX     PR01,1,2
      00042  0020 00 0 00271         TRA     NFOUND        NOT FOUND
                              *
      00043  0500 00 1 00404  PR02   CLA     CALLS+1,1     FOUND
      00044  0120 00 0 00046  PRP2   TPL     *+2           MINUS MEANS DON'T PRINT FILE NAME.
      00045  0057 00  000020         RIR     FNBIT         ..
      00046  0604 00 0 01266         STI     MASK          ..
      00047  0760 00 0 00006         COM                   CHECK WHETHER NUMBER IS KNOWN FOR ENTRY
      00050  0622 00 0 00051         STD     *+1           ..
      00051  3 00000 2 00053         TXH     *+2,2,--      ..
      00052  0020 00 0 00271         TRA     NFOUND        ..
      00053  0500 60 1 00404         CLA*    CALLS+1,1     POINTER TO MESSAGE
      00054 -0120 00 0 00301         TMI     IOER          MINUS MEANS IO ERROR.
      00055  0737 00 2 00000  GMESS  PAC     ,2            CALCULATE MESSAGE LIMITS ETC.
      00056 -3 00000 2 00271         TXL     NFOUND,2,0    .. IR2=CURRENT WORD IN MESSAGE
      00057  0734 00 1 00000         PAX     ,1            ..
      00060  0622 00 0 00061         STD     PR03          ..
      00061  1 00000 1 00062  PR03   TXI     *+1,1,--      ..
      00062 -0756 00 1 00000         PCD     ,1            ..
      00063  0622 00 0 00123         STD     MS03          .. LIMIT OF MESSAGE
1       PRNTER--PRINT ERROR DIAGNOSTICS FOR FILE SYSTEM.                                         PAGE 3

      00064  0622 00 0 00167         STD     MSP7          .. ..
      00065  0622 00 0 00162         STD     MS07          .. ..
                              *
      00066 -0774 00 1 01227         AXC     OTBUF,1       IR1=-CURRENT PLACE IN OUTPUT BUFFER
                              *
      00067  0056 00  000200         RNT     QTBIT         IS THE WORD 'ERROR' DESIRED
      00070  0020 00 0 00074         TRA     QT01
      00071 -0500 00 0 01300         CAL     =HERROR
      00072  0602 00 1 00000         SLW     ,1
      00073  1 77777 1 00074         TXI     *+1,1,-1
 A    00074                   QT01   BSS
                              *
      00074  0056 00  000100         RNT     NRBIT         IS ERROR NUMBER DESIRED
      00075  0020 00 0 00105         TRA     NR02          NO
      00076  0074 00 4 01203         TSX     DEFBC,4       YES
 TD   00077  3 00000 0 01267         TXH     ERRN
      00100  0560 00 0 01302         LDQ     =O356057575757
 A    00101                   NR01   BSS
      00101 -0765 00 0 00006         LGR     6
      00102 -0100 00 0 00101         TNZ     NR01
      00103 -0600 00 1 00000  NRP1   STQ     ,1
      00104  1 77777 1 00105         TXI     *+1,1,-1
 A    00105                   NR02   BSS
                              *
      00105  0056 00  000040         RNT     MSBIT         IS MESSAGE DESIRED
      00106  0020 00 0 00140         TRA     MSP5          NO
      00107  0560 00 2 00000  MS01   LDQ     ,2            YES, GET WORD FROM MESSAGE
      00110  0774 00 4 00044         AXT     36,4          IR4 COUNTS CHARACTERS
      00111 -0763 00 0 00006  MS02   LGL     6             DOES WORD HAVE A $
      00112  0044 00 0 00000         PAI                   ..
      00113  0051 00  000053         IIR     FCHAR         ..
      00114  0054 00  000077         RFT     000077        ..
      00115  0020 00 0 00117         TRA     *+2           ..
      00116  0020 00 0 00132         TRA     MS04          ..
      00117  2 00006 4 00111         TIX     MS02,4,6      ..
      00120  0602 00 1 00000         SLW     ,1            NO, STORE IT
      00121  1 77777 1 00122         TXI     *+1,1,-1      ..
      00122  1 77777 2 00123         TXI     *+1,2,-1      AND LOOP
      00123  3 00000 2 00107  MS03   TXH     MS01,2,--     ..
      00124  0441 00 0 01266         LDI     MASK
      00125  0057 00  000040         RIR     MSBIT         IF NO $ FOUND, INDICATE THAT THERE
      00126  0604 00 0 01266         STI     MASK
      00127 -0500 00 0 01310         CAL     =O605757575757    IS NO SECOND HALF, THEN
      00130  0602 00 1 00000         SLW     ,1            PUT IN FILE NAME.
      00131  1 77777 1 00140         TXI     MSP5,1,-1     ..
                              *
      00132  0560 00 0 01305  MS04   LDQ     =O575757575757    YES, PUT IN PART BEFORE $
      00133  0771 00 0 00006         ARS     6             ..
      00134  0634 00 4 00135         SXA     MSP4,4        ..
      00135 -0763 00 0 00000  MSP4   LGL     --
      00136  0602 00 1 00000         SLW     ,1
      00137  1 77777 1 00140         TXI     *+1,1,-1
 A    00140                   MSP5   BSS
                              *
      00140  0441 00 0 01266  FN01   LDI     MASK
                              *
1       PRNTER--PRINT ERROR DIAGNOSTICS FOR FILE SYSTEM.                                         PAGE 4

      00141  0056 00  000020         RNT     FNBIT         IS FILE NAME DESIRED
      00142  0020 00 0 00152         TRA     FN02          NO
      00143 -0500 00 0 01257         CAL     DIBUF+4       YES
      00144  0602 00 1 00000         SLW     ,1
      00145 -0500 00 0 01310         CAL     =O605757575757
      00146  0602 00 1 00001         SLW     1,1
      00147 -0500 00 0 01260         CAL     DIBUF+5
      00150  0602 00 1 00002         SLW     2,1
      00151  1 77775 1 00152         TXI     *+1,1,-3
 A    00152                   FN02   BSS
                              *
      00152  0056 00  000040  MS05   RNT     MSBIT         IS MESSAGE DESIRED (SECOND TIME ASKED)
      00153  0020 00 0 00170         TRA     MSP8          NO
      00154 -0500 00 2 00000  MS06   CAL     ,2            YES--GET THE PART AFTER THE $
      00155  0560 00 0 01305         LDQ     =O575757575757
      00156 -0763 00 4 00052         LGL     42,4          ..
      00157  0602 00 1 00000         SLW     ,1            AND STORE INTO OUTPUT LINE
      00160  1 77777 1 00161         TXI     *+1,1,-1
      00161  1 77777 2 00162         TXI     *+1,2,-1
      00162 -3 00000 2 00170  MS07   TXL     MSP8,2,--
      00163 -0500 00 2 00000  MSP6   CAL     ,2            PUT IN REST OF MESSAGE
      00164  0602 00 1 00000         SLW     ,1            ..
      00165  1 77777 1 00166         TXI     *+1,1,-1      ..
      00166  1 77777 2 00167         TXI     *+1,2,-1      ..
      00167  3 00000 2 00163  MSP7   TXH     MSP6,2,--     ..
 A    00170                   MSP8   BSS
                              *
      00170  0441 00 0 01266  RN01   LDI     MASK
      00171  0056 00  000010         RNT     RNBIT         IS ROUTINE NAME DESIRED
      00172  0020 00 0 00200         TRA     RN02          NO
      00173 -0500 00 0 01303         CAL     =O404057575757    YES
      00174  0602 00 1 00000         SLW     ,1
      00175 -0500 00 0 01254         CAL     DIBUF+1
      00176  0602 00 1 00001         SLW     1,1
      00177  1 77776 1 00200         TXI     *+1,1,-2
 A    00200                   RN02   BSS
                              *
      00200  0056 00  000004  LC01   RNT     LCBIT         IS LOCATION DESIRED
      00201  0020 00 0 00217         TRA     LC02          NO
      00202 -0500 00 0 01306         CAL     =O602163575757    YES
      00203  0602 00 1 00000         SLW     ,1
      00204  0074 00 4 01214         TSX     OCABC,4       GET BCD OF LOCATION.
 TD   00205  3 00000 0 01253         TXH     DIBUF         ..
      00206  0601 00 1 00001         STO     1,1
      00207  1 77776 1 00210         TXI     *+1,1,-2
      00210 -0534 00 4 01253         LXD     DIBUF,4       IS IT CORE A
      00211  3 00001 4 00217         TXH     LC02,4,1      ..
      00212 -0500 00 0 01307         CAL     =H CORE       YES--MENTION THE FACT.
      00213  0602 00 1 00000         SLW     ,1
      00214 -0500 00 0 01277         CAL     =O215757575757
      00215  0602 00 1 00001         SLW     1,1
      00216  1 77776 1 00217         TXI     *+1,1,-2
 A    00217                   LC02   BSS
                              *
      00217  0056 00  000002  FS01   RNT     FSBIT         IS FILE SYSTEM LOC DESIRED
      00220  0020 00 0 00231         TRA     FS02          NO
1       PRNTER--PRINT ERROR DIAGNOSTICS FOR FILE SYSTEM.                                         PAGE 5

      00221 -0500 00 0 01311         CAL     =O607426336233    YES
      00222  0602 00 1 00000         SLW     ,1
      00223  0074 00 4 01214         TSX     OCABC,4
 TD   00224  3 00000 0 01261         TXH     DIBUF+6
      00225  0601 00 1 00001         STO     1,1
      00226 -0500 00 0 01301         CAL     =O345757575757
      00227  0602 00 1 00002         SLW     2,1
      00230  1 77775 1 00231         TXI     *+1,1,-3
 A    00231                   FS02   BSS
                              *
      00231  0056 00  000001  CR01   RNT     CRBIT         IS CARRIAGE RETURN DESIRED
      00232  0020 00 0 00236         TRA     CR02          NO
      00233 -0500 00 0 01304         CAL     =O555757575757    YES
      00234  0602 00 1 00000         SLW     ,1
      00235  1 77777 1 00236         TXI     *+1,1,-1
 A    00236                   CR02   BSS
                              *
      00236  1 01227 1 00237  PR04   TXI     *+1,1,OTBUF   CALCULATE SIZE OF RESULTING LINE
      00237  0756 00 1 00000         PCA     ,1            ..
      00240  0734 00 1 00000         PAX     ,1            .. NOW IR1=SIZE
                              *
      00241 -0520 00 0 01262         NZT     CALLSW        CALL USER-SPECIFIED FUNCTION
      00242  0020 00 0 00253         TRA     PRP4          OR JUST PRINT
      00243  0634 00 1 01264         SXA     LINZ,1        SET UP MAD ARG
      00244 -0634 00 1 00250         SXD     CL01,1        SET UP FAP ARG
      00245  1 01227 1 00246         TXI     *+1,1,OTBUF
      00246  0634 00 1 00250         SXA     CL01,1
      00247  0074 00 4 00000  CALL   TSX     --,4          CALL FUNCTION
      00250  3 00000 0 00000  CL01   TXH     --,,--
 TD   00251  3 00000 0 01264         TXH     LINZ
      00252  0020 00 0 00265         TRA     RT01
                              *
 A    00253                   PRP4   BSS
      00253  0774 00 2 01227         AXT     OTBUF,2
      00254 -2 00016 1 00261  PR05   TNX     PR07,1,WRFLXZ
      00255  0634 00 2 00257         SXA     PR06,2
      00256  0074 00 4 00002         TSX     $WRFLXA,4
      00257  0 00016 0 00000  PR06           --,,WRFLXZ
      00260  1 00016 2 00254         TXI     PR05,2,WRFLXZ
                              *
      00261  0634 00 2 00264  PR07   SXA     PR08,2
      00262 -0634 00 1 00264         SXD     PR08,1
      00263  0074 00 4 00002         TSX     $WRFLXA,4
      00264  0 00000 0 00000  PR08           --,,--
                              * RETURN
 A    00265                   RT01   BSS
      00265  0441 00 0 01265         LDI     SAVI
      00266 -0774 00 1 00000  SAV1   AXC     --,1
      00267 -0774 00 2 00000  SAV2   AXC     --,2
      00270  0020 00 0 00000  SAV4   TRA     --            RETURN AS DIRECTED BY COLT
                              *
      00271  0500 00 0 00403  NFOUND CLA     DNF
      00272  0055 00  000100         SIR     NRBIT
      00273  0020 00 0 00055         TRA     GMESS
                              *
      00274  0500 00 2 00404  STAND  CLA     PZE1-1,2      ERROR CODES 1 AND 2 ARE STANDARD
1       PRNTER--PRINT ERROR DIAGNOSTICS FOR FILE SYSTEM.                                         PAGE 6

      00275  0020 00 0 00055         TRA     GMESS         .. FOR ALL IO CALLS
                              *
      00276 -3 77632 2 00271  STAND1 TXL     NFOUND,2,PZE100-PZE999-100    UNKNOWN IF CODE TOO LARGE
      00277  0500 00 2 00243         CLA     PZE100-100,2  PICK UP STANDARD CODE
      00300  0020 00 0 00055         TRA     GMESS
                              *
      00301  0535 00 2 01256  IOER   LAC     DIBUF+3,2     IO ERROR CODE
      00302  0636 00 2 01267         SCA     ERRN,2
      00303 -3 77771 2 00306         TXL     IOER2,2,-NOIOER
      00304  0500 00 2 00557         CLA     IOERT,2
      00305  0020 00 0 00055         TRA     GMESS
      00306  0500 00 0 00404  IOER2  CLA     DNFIO
      00307  0055 00  000100         SIR     NRBIT
      00310  0020 00 0 00055         TRA     GMESS
                       00311  CALLB  SYN     *             TABLE OF POSSIBLE I/O CALLS

      00311  644724442624            BCI     1,UPDMFD
      00312  0 00005 2 00406                 UPDMF,2,5
      00313  242543442624            BCI     1,DELMFD
      00314  0 00004 2 00412                 DELMF,2,4
      00315  216363212330            BCI     1,ATTACH
      00316  0 00004 2 00414                 ATTAC,2,4
      00317  644724216325            BCI     1,UPDATE
      00320 -0 00003 2 00411         MZE     UPDAT,2,3
      00321  464725456060            BCI     1,OPEN
      00322  0 00024 2 00416                 OPEN,2,20
      00323  226426262551            BCI     1,BUFFER
      00324  0 00006 2 00440                 BUFFE,2,6
      00325  512426314325            BCI     1,RDFILE
      00326  0 00010 2 00444                 RDFIL,2,8
      00327  512466213163            BCI     1,RDWAIT
      00330  0 00010 2 00444                 RDFIL,2,8
      00331  665126314325            BCI     1,WRFILE
      00332  0 00012 2 00452                 WRFIL,2,10
      00333  665166213163            BCI     1,WRWAIT
      00334  0 00012 2 00452                 WRFIL,2,10
      00335  635126314325            BCI     1,TRFILE
      00336  0 00011 2 00462                 TRFIL,2,9
      00337  262330252342            BCI     1,FCHECK
      00340  0 00005 2 00471                 CLOSE,2,5
      00341  266621316360            BCI     1,FWAIT
      00342  0 00005 2 00471                 CLOSE,2,5
      00343  234346622560            BCI     1,CLOSE
      00344  0 00006 2 00471                 CLOSE,2,6
      00345  512562256326            BCI     1,RESETF
      00346  0 00003 2 00411                 UPDAT,2,3
      00347  233026314325            BCI     1,CHFILE
      00350  0 00014 2 00475                 CHFIL,2,12
      00351  242543263143            BCI     1,DELFIL
      00352  0 00010 2 00507                 DELFL,2,8
      00353  266263216325            BCI     1,FSTATE
      00354  0 00005 2 00507                 DELFL,2,5
      00355  444665263143            BCI     1,MOVFIL
      00356  0 00012 2 00515                 MOVFL,2,10
      00357  622563263143            BCI     1,SETFIL
      00360  0 00005 2 00525                 SETFL,2,5
1       PRNTER--PRINT ERROR DIAGNOSTICS FOR FILE SYSTEM.                                         PAGE 7

      00361  433145426060            BCI     1,LINK
      00362  0 00006 2 00530                 LINK,2,6
      00363  644543314542            BCI     1,UNLINK
      00364  0 00005 2 00534                 UNLIN,2,5
      00365  214343466360            BCI     1,ALLOT
      00366 -0 00003 2 00537         MZE     ALLOT,2,3
      00367  626346512725            BCI     1,STORGE
      00370 -0 00004 2 00537         MZE     ALLOT,2,4
      00371  444664456360            BCI     1,MOUNT
      00372 -0 00004 2 00541         MZE     MOUNT,2,4
      00373  644446644563            BCI     1,UMOUNT
      00374 -0 00003 2 00543         MZE     UMOUN,2,3
      00375  652551312670            BCI     1,VERIFY
      00376 -0 00007 2 00544         MZE     VERIF,2,7
      00377  432122254360            BCI     1,LABEL
      00400 -0 00006 2 00544         MZE     VERIF,2,6
      00401  632147263143            BCI     1,TAPFIL
      00402  0 00006 2 00551                 TAPFL,2,6

                       00403  CALLS  SYN     *

                       00072  NOCALL EQU     CALLS-CALLB
                              *
                              *              POINTER TO DIAGNOSTIC COMMENTS
                              *
      00403  0 00003 0 00566  DNF    PZE     DIAG0,,3
      00404  0 00004 0 01135  DNFIO  PZE     DIAGI0,,4
                              *
      00405  0 00010 0 00571  PZE1   PZE     DIAG1,,8
      00406  0 00006 0 00601                 DIAG2,,6
                              *
      00407  0 00004 0 00607  PZE100         DIAG00,,4
      00410  0 00004 0 00613                 DIAG01,,4
                       00411  PZE999 SYN     *             END OF STANDARD CODES
                              *
                       00406  UPDMF  EQU     *-3
      00411  0 00004 0 00617                 DIAGA1,,4
      00412  0 00004 0 00623                 DIAGA2,,4
      00413  0 00004 0 00636                 DIAGA5,,4
                              *
                       00411  UPDAT  EQU     *-3
      00414  0 00004 0 00623                 DIAGA2,,4
                              *
                       00412  DELMF  EQU     *-3
      00415  0 00003 0 00627                 DIAGA3,,3
      00416  0 00004 0 00632                 DIAGA4,,4
                              *
                       00414  ATTAC  EQU     *-3
      00417  0 00003 0 00627                 DIAGA3,,3
      00420  0 00004 0 00623                 DIAGA2,,4
                              *
                       00416  OPEN   EQU     *-3
      00421  0 00002 0 00642                 DIAGB1,,2
      00422  0 00004 0 00644                 DIAGB2,,4
      00423  0 00003 0 00650                 DIAGB3,,3
      00424  0 00003 0 00566                 DIAG0,,3
1       PRNTER--PRINT ERROR DIAGNOSTICS FOR FILE SYSTEM.                                         PAGE 8

      00425  0 00004 0 00657                 DIAGB5,,4
      00426  0 00004 0 00663                 DIAGB6,,4
      00427  0 00006 0 00667                 DIAGB7,,6
      00430  0 00006 0 00675                 DIAGB8,,6
      00431  0 00004 0 00623                 DIAGA2,,4
      00432  0 00002 0 00703                 DIAGB9,,2
      00433  0 00003 0 00705                 DIAGC1,,3
      00434  0 00005 0 00710                 DIAGC2,,5
      00435  0 00004 0 00715                 DIAGC3,,4
      00436  0 00005 0 00721                 DIAGC4,,5
      00437 -0 00000 0 00000         MZE
      00440  0 00004 0 00726                 DIAGC5,,4
      00441  0 00004 0 00613                 DIAG01,,4
      00442  0 00007 0 00752                 DIAGC9,,7
                              *
                       00440  BUFFE  EQU     *-3
      00443  0 00002 0 00761                 DIAGD1,,2
      00444  0 00005 0 00763                 DIAGD2,,5
      00445  0 00003 0 00770                 DIAGD3,,3
      00446 -0 00000 0 00000         MZE
                              *
                       00444  RDFIL  EQU     *-3
      00447  0 00002 0 00761                 DIAGD1,,2
      00450  0 00004 0 00773                 DIAGD4,,4
      00451  0 00004 0 01003                 DIAGD6,,4
      00452  0 00005 0 00763                 DIAGD2,,5
      00453 -0 00000 0 00000         MZE
      00454  0 00003 0 00732                 DIAGC6,,3
                              *
                       00452  WRFIL  EQU     *-3
      00455  0 00002 0 00761                 DIAGD1,,2
      00456  0 00004 0 00777                 DIAGD5,,4
      00457  0 00004 0 01003                 DIAGD6,,4
      00460  0 00004 0 00715                 DIAGC3,,4
      00461  0 00005 0 00763                 DIAGD2,,5
      00462 -0 00000 0 00000         MZE
      00463  0 00010 0 00735                 DIAGC7,,8
      00464  0 00005 0 00745                 DIAGC8,,5
                              *
                       00462  TRFIL  EQU     *-3
      00465  0 00002 0 00761                 DIAGD1,,2
      00466  0 00004 0 00777                 DIAGD5,,4
      00467  0 00004 0 01003                 DIAGD6,,4
      00470  0 00005 0 00763                 DIAGD2,,5
      00471  0 00003 0 01007                 DIAGD7,,3
      00472 -0 00000 0 00000         MZE
      00473  0 00010 0 00735                 DIAGC7,,8
                              *
                       00471  CLOSE  EQU     *-3
      00474  0 00002 0 00761                 DIAGD1,,2
      00475  0 00005 0 00763                 DIAGD2,,5
      00476 -0 00000 0 00000         MZE
      00477  0 00004 0 00623                 DIAGA2,,4
                              *
                       00475  CHFIL  EQU     *-3
      00500  0 00006 0 01012                 DIAGD8,,6
1       PRNTER--PRINT ERROR DIAGNOSTICS FOR FILE SYSTEM.                                         PAGE 9

      00501  0 00002 0 00703                 DIAGB9,,2
      00502  0 00004 0 00653                 DIAGB4,,4
      00503  0 00004 0 00657                 DIAGB5,,4
      00504  0 00004 0 00663                 DIAGB6,,4
      00505  0 00010 0 01020                 DIAGD9,,8
      00506  0 00004 0 00715                 DIAGC3,,4
      00507  0 00003 0 01030                 DIAGE2,,3
      00510  0 00004 0 00623                 DIAGA2,,4
      00511  0 00002 0 00642                 DIAGB1,,2
                              *
                       00507  DELFL  EQU     *-3
      00512  0 00002 0 00703                 DIAGB9,,2
      00513  0 00004 0 00653                 DIAGB4,,4
      00514  0 00004 0 00657                 DIAGB5,,4
      00515  0 00003 0 01036                 DIAGE3,,3
      00516  0 00004 0 00623                 DIAGA2,,4
      00517  0 00002 0 00642                 DIAGB1,,2
                              *
                       00515  MOVFL  EQU     *-3
      00520  0 00002 0 00703                 DIAGB9,,2
      00521  0 00002 0 01041                 DIAGE4,,2
      00522  0 00003 0 01036                 DIAGE3,,3
      00523  0 00007 0 01043                 DIAGE5,,7
      00524  0 00004 0 00623                 DIAGA2,,4
      00525  0 00002 0 00642                 DIAGB1,,2
      00526  0 00004 0 00613                 DIAG01,,4
      00527  0 00004 0 00726                 DIAGC5,,4
                              *
                       00525  SETFL  EQU     *-3
      00530  0 00003 0 00705                 DIAGC1,,3
      00531  0 00004 0 00623                 DIAGA2,,4
      00532  0 00002 0 01041                 DIAGE4,,2
                              *
                       00530  LINK   EQU     *-3
      00533  0 00003 0 01030                 DIAGE2,,3
      00534  0 00004 0 00623                 DIAGA2,,4
      00535  0 00006 0 01052                 DIAGE6,,6
      00536  0 00004 0 00726                 DIAGC5,,4
                              *
                       00534  UNLIN  EQU     *-3
      00537  0 00002 0 00703                 DIAGB9,,2
      00540  0 00002 0 01060                 DIAGE7,,2
      00541  0 00004 0 00623                 DIAGA2,,4
                              *
                       00537  ALLOT  EQU     *-3
      00542  0 00003 0 00705                 DIAGC1,,3
      00543  0 00004 0 00623                 DIAGA2,,4
                              *
                       00541  MOUNT  EQU     *-3
      00544  0 00007 0 01062                 DIAGF1,,7
      00545  0 00006 0 01126                 DIAGF8,,6
                              *
                       00543  UMOUN  EQU     *-3
      00546  0 00005 0 01071                 DIAGF2,,5
                              *
                       00544  VERIF  EQU     *-3
1       PRNTER--PRINT ERROR DIAGNOSTICS FOR FILE SYSTEM.                                         PAGE 10

      00547  0 00004 0 01107                 DIAGF5,,4
      00550  0 00005 0 01121                 DIAGF7,,5
      00551  0 00006 0 01101                 DIAGF4,,6
      00552  0 00006 0 01113                 DIAGF6,,6
      00553  0 00003 0 01076                 DIAGF3,,3
                              *
                       00551  TAPFL  EQU     *-3
      00554  0 00003 0 01030                 DIAGE2,,3
      00555  0 00004 0 00623                 DIAGA2,,4
      00556  0 00005 0 00710                 DIAGC2,,5
      00557  0 00004 0 00726                 DIAGC5,,4
                              *
                       00557  IOERT  EQU     *-1
      00560  0 00006 0 01141                 DIAGI1,,6
      00561  0 00006 0 01147                 DIAGI2,,6
      00562  0 00006 0 01155                 DIAGI3,,6
      00563  0 00007 0 01163                 DIAGI4,,7
      00564  0 00005 0 01172                 DIAGI5,,5
      00565  0 00004 0 01177                 DIAGI6,,4
                       00007  NOIOER EQU     *-IOERT
                              *

                                             DIAGNOSTIC COMMENTS

      00566  644542454666     DIAG0  BCI     3,UNKNOWN ERROR CODE
      00567  456025515146
      00570  516023462425
                              *
      00571  314343252721     DIAG1  BCI     8,ILLEGAL CALLING SEQUENCE OR PROTECTION VIOLATION
      00572  436023214343
      00573  314527606225
      00574  506425452325
      00575  604651604751
      00576  466325236331
      00577  464560653146
      00600  432163314645
      00601  644521646330     DIAG2  BCI     6,UNAUTHORIZED USE OF PRIVILEGED CALL
      00602  465131712524
      00603  606462256046
      00604  266047513165
      00605  314325272524
      00606  602321434360
                              *
      00607  255151465160     DIAG00 BCI     4,ERROR IN U.F.D./M.F.D.
      00610  314560643326
      00611  332433614433
      00612  263324336060
      00613  643326332433     DIAG01 BCI     4,U.F.D./M.F.D. NOT FOUND
      00614  614433263324
      00615  336045466360
      00616  264664452460
                              *
      00617  646225516021     DIAGA1 BCI     4,USER ALREADY IN M.F.D.
      00620  435125212470
      00621  603145604433
      00622  263324336060
1       PRNTER--PRINT ERROR DIAGNOSTICS FOR FILE SYSTEM.                                         PAGE 11

      00623  442123303145     DIAGA2 BCI     4,MACHINE OR SYSTEM ERROR
      00624  256046516062
      00625  706263254460
      00626  255151465160
      00627  646225516045     DIAGA3 BCI     3,USER NOT IN M.F.D.
      00630  466360314560
      00631  443326332433
      00632  643326332433     DIAGA4 BCI     4,U.F.D. STILL IN USE
      00633  606263314343
      00634  603145606462
      00635  256060606060
      00636  712551466047     DIAGA5 BCI     4,ZERO PROBLEM NUMBER
      00637  514622432544
      00640  604564442225
      00641  516060606060
                              *
      00642  536021236331     DIAGB1 BCI     2,$ ACTIVE
      00643  652560606060
      00644  634646604421     DIAGB2 BCI     4,TOO MANY ACTIVE FILES
      00645  457060212363
      00646  316525602631
      00647  432562606060
      00650  314343252721     DIAGB3 BCI     3,ILLEGAL STATUS
      00651  436062632163
      00652  646260606060
      00653  433145422524     DIAGB4 BCI     4,LINKED FILE $ NOT FOUND
      00654  602631432560
      00655  536045466360
      00656  264664452460
      00657  536043314542     DIAGB5 BCI     4,$ LINK DEPTH EXCEEDED
      00660  602425476330
      00661  602567232525
      00662  242524606060
      00663  536031456014     DIAGB6 BCI     4,$ IN 'PRIVATE' MODE
      00664  475131652163
      00665  251460444624
      00666  256060606060
      00667  216363254447     DIAGB7 BCI     6,ATTEMPT TO WRITE 'READ-ONLY' FILE $
      00670  636063466066
      00671  513163256014
      00672  512521244046
      00673  454370146026
      00674  314325605360
      00675  216363254447     DIAGB8 BCI     6,ATTEMPT TO READ 'WRITE-ONLY' FILE $
      00676  636063466051
      00677  252124601466
      00700  513163254046
      00701  454370146026
      00702  314325605360
      00703  536045466360     DIAGB9 BCI     2,$ NOT FOUND
      00704  264664452460
                              *
      00705  314343252721     DIAGC1 BCI     3,ILLEGAL DEVICE
      00706  436024256531
      00707  232560606060
      00710  454660624721     DIAGC2 BCI     5,NO SPACE ALLOTTED FOR DEVICE
1       PRNTER--PRINT ERROR DIAGNOSTICS FOR FILE SYSTEM.                                         PAGE 12

      00711  232560214343
      00712  466363252460
      00713  264651602425
      00714  653123256060
      00715  512523465124     DIAGC3 BCI     4,RECORD QUOTA OVERFLOW
      00716  605064466321
      00717  604665255126
      00720  434666606060
      00721  536022253145     DIAGC4 BCI     5,$ BEING RESTORED FROM TAPE
      00722  276051256263
      00723  465125246026
      00724  514644606321
      00725  472560606060
      00726  314343252721     DIAGC5 BCI     4,ILLEGAL USE OF M.F.D.
      00727  436064622560
      00730  462660443326
      00731  332433606060
      00732  643326332433     DIAGC6 BCI     3,U.F.D. DELETED
      00733  602425432563
      00734  252460606060
      00735  454645407125     DIAGC7 BCI     8,NON-ZERO 'RELLOC' ACCESSING WRITE-ONLY FILE $
      00736  514660145125
      00737  434346231460
      00740  212323256262
      00741  314527606651
      00742  316325404645
      00743  437060263143
      00744  256053606060
      00745  536044216731     DIAGC8 BCI     5,$ MAXIMUM LENGTH EXCEEDED
      00746  446444604325
      00747  452763306025
      00750  672325252425
      00751  246060606060
      00752  536066216260     DIAGC9 BCI     7,$ WAS REMOVED AND MUST BE RETRIEVED
      00753  512544466525
      00754  246021452460
      00755  446462636022
      00756  256051256351
      00757  312565252460
      00760  606060606060
                              *
      00761  536045466360     DIAGD1 BCI     2,$ NOT ACTIVE
      00762  212363316525
      00763  536047512565     DIAGD2 BCI     5,$ PREVIOUS I/O OUT OF BOUNDS
      00764  314664626031
      00765  614660466463
      00766  604626602246
      00767  644524626060
      00770  536022642626     DIAGD3 BCI     3,$ BUFFER TOO SMALL
      00771  255160634646
      00772  606244214343
      00773  536045466360     DIAGD4 BCI     4,$ NOT IN READ STATUS
      00774  314560512521
      00775  246062632163
      00776  646260606060
      00777  536045466360     DIAGD5 BCI     4,$ NOT IN WRITE STATUS
1       PRNTER--PRINT ERROR DIAGNOSTICS FOR FILE SYSTEM.                                         PAGE 13

      01000  314560665131
      01001  632560626321
      01002  636462606060
      01003  536045466022     DIAGD6 BCI     4,$ NO BUFFER ASSIGNED
      01004  642626255160
      01005  216262312745
      01006  252460606060
      01007  145125434346     DIAGD7 BCI     3,'RELLOC' TOO LARGE
      01010  231460634646
      01011  604321512725
      01012  216363254447     DIAGD8 BCI     6,ATTEMPT TO CHANGE M.F.D. OR U.F.D.
      01013  636063466023
      01014  302145272560
      01015  443326332433
      01016  604651606433
      01017  263324336060
      01020  216363254447     DIAGD9 BCI     8,ATTEMPT TO CHANGE PROTECTED FILE OF ANOTHER USER
      01021  636063466023
      01022  302145272560
      01023  475146632523
      01024  632524602631
      01025  432560462660
      01026  214546633025
      01027  516064622551
                              *
      01030  536021435125     DIAGE2 BCI     6,$ ALREADY EXISTS  OR NAME CONFLICT
      01031  212470602567
      01032  316263626060
      01033  465160452144
      01034  256023464526
      01035  433123636060
      01036  536014475146     DIAGE3 BCI     3,$ 'PROTECTED'
      01037  632523632524
      01040  146060606060
      01041  536014433145     DIAGE4 BCI     2,$ 'LINKED'
      01042  422524146060
      01043  536021435125     DIAGE5 BCI     7,$ ALREADY EXISTS IN OTHER FILE DIRECTORY
      01044  212470602567
      01045  316263626031
      01046  456046633025
      01047  516026314325
      01050  602431512523
      01051  634651706060
      01052  466330255160     DIAGE6 BCI     6,OTHER FILE DIRECTORY NOT IN M.F.D.
      01053  263143256024
      01054  315125236346
      01055  517060454663
      01056  603145604433
      01057  263324336060
      01060  536045466360     DIAGE7 BCI     2,$ NOT LINKED
      01061  433145422524
                              *
      01062  454660632147     DIAGF1 BCI     7,NO TAPE AVAILABLE ON SPECIFIED CHANNEL
      01063  256021652131
      01064  432122432560
      01065  464560624725
1       PRNTER--PRINT ERROR DIAGNOSTICS FOR FILE SYSTEM.                                         PAGE 14

      01066  233126312524
      01067  602330214545
      01070  254360606060
      01071  632147256026     DIAGF2 BCI     5,TAPE FILE CURRENTLY IN USE
      01072  314325602364
      01073  515125456343
      01074  706031456064
      01075  622560606060
      01076  432122254360     DIAGF3 BCI     3,LABEL INCORRECT
      01077  314523465151
      01100  252363606060
      01101  444664456360     DIAGF4 BCI     6,MOUNT FAILED, ILLEGAL OPERATION
      01102  262131432524
      01103  736031434325
      01104  272143604647
      01105  255121633146
      01106  456060606060
      01107  632147256026     DIAGF5 BCI     4,TAPE FILE DOES NOT EXIST
      01110  314325602446
      01111  256260454663
      01112  602567316263
      01113  444664456360     DIAGF6 BCI     6,MOUNT FAILED, OPNS. DIFFICULTIES
      01114  262131432524
      01115  736046474562
      01116  336024312626
      01117  312364436331
      01120  256260606060
      01121  442123303145     DIAGF7 BCI     5,MACHINE ERROR OR BAD STATUS
      01122  256025515146
      01123  516046516022
      01124  212460626321
      01125  636462606060
      01126  146445316345     DIAGF8 BCI     7,'UNITNO'-'AUTHNO' CONFLICT FOR TAPE FILE
      01127  461440142164
      01130  633045461460
      01131  234645264331
      01132  236360264651
      01133  606321472560
      01134  263143256060
                              *
      01135  644542454666     DIAGI0 BCI     4,UNKNOWN I/O ERROR CODE
      01136  456031614660
      01137  255151465160
      01140  234624256060
      01141  472151316370     DIAGI1 BCI     6,PARITY ERROR READING OR WRITING $
      01142  602551514651
      01143  605125212431
      01144  452760465160
      01145  665131633145
      01146  276053606060
      01147  262163214360     DIAGI2 BCI     6,FATAL ERROR READING OR WRITING FILE
      01150  255151465160
      01151  512521243145
      01152  276046516066
      01153  513163314527
      01154  602631432560
1       PRNTER--PRINT ERROR DIAGNOSTICS FOR FILE SYSTEM.                                         PAGE 15

      01155  216521314321     DIAGI3 BCI     6,AVAILABLE SPACE ON DEVICE EXHAUSTED
      01156  224325606247
      01157  212325604645
      01160  602425653123
      01161  256025673021
      01162  646263252460
      01163  632147256026     DIAGI4 BCI     7,TAPE FILE NOT MOUNTED OR NOT AVAILABLE
      01164  314325604546
      01165  636044466445
      01166  632524604651
      01167  604546636021
      01170  652131432122
      01171  432560606060
      01172  314343252721     DIAGI5 BCI     5,ILLEGAL I/O REQUEST FOR DEVICE
      01173  436031614660
      01174  512550642562
      01175  636026465160
      01176  242565312325
      01177  253346336333     DIAGI6 BCI     4,E.O.T. PASSED, WRITING $
      01200  604721626225
      01201  247360665131
      01202  633145276053
                              * ROUTINES TO DO THE WORK OF DEFBC AND OCABC
      01203  0560 00 0 01270  DEFBC  LDQ     =0
      01204 -0500 60 4 00001         CAL*    1,4
      01205  0225 06 0 01272         VDP     =1E4B29,,6
      01206  0225 06 0 01273         VDP     =1E3B23,,6
      01207  0225 06 0 01274         VDP     =100B17,,6
      01210  0225 06 0 01275         VDP     =10B11,,6
      01211  0225 06 0 01276         VDP     =1B5,,6
      01212  0131 00 0 00000         XCA
      01213  0020 00 4 00001         TRA     1,4
      01214  0636 00 4 01225  OCABC  SCA     CLOC4,4
      01215 -0500 60 4 00001         CAL*    1,4
      01216 -0765 00 0 00017         LGR     15
      01217  0500 00 0 01271         CLA     =H00000
      01220  0774 00 4 00005         AXT     5,4
      01221  0767 00 0 00003  CLOC1  ALS     3
      01222 -0763 00 0 00003         LGL     3
      01223  2 00001 4 01221         TIX     CLOC1,4,1
      01224 -0760 00 0 00003         SSM                   TO PRESERVE BLANK
      01225 -0774 00 4 00000  CLOC4  AXC     --,4
      01226  0020 00 4 00001         TRA     1,4
                              *
      01227                   OTBUF  BSS     20            1 OUTPUT LINE BUFFER. NO CHECKING FOR SIZE
      01253                   DIBUF  BSS     7             2 BUFFER FOR IODIAG. MAY BE OVERWRITTEN.
      01262  0 00000 0 00000  CALLSW                       NON-ZERO IF USER FUNCTION SHOULD BE CALLED.
      01263  0 00000 0 00000  IR4                          DECREMENT=CALLING IR4
      01264  0 00000 0 00000  LINZ                         SIZE OF RESULTING LINE.
      01265  0 00000 0 00000  SAVI                         SAVE LOC FOR INDICATORS.
      01266  0 00000 0 00000  MASK                         SAVE LOC FOR SPECIFIED MASK
      01267  0 00000 0 00000  ERRN                         ERROR NUMBER
                       00016  WRFLXZ EQU     14            WRFLX LINE SIZE FOR LIB VERSION
                      000053  FCHAR  BOOL    000053        DOLLAR SIGN
                      000200  QTBIT  BOOL    200
                      000100  NRBIT  BOOL    100
1       PRNTER--PRINT ERROR DIAGNOSTICS FOR FILE SYSTEM.                                         PAGE 16

                      000040  MSBIT  BOOL    40
                      000020  FNBIT  BOOL    20
                      000010  RNBIT  BOOL    10
                      000004  LCBIT  BOOL    04
                      000002  FSBIT  BOOL    02
                      000001  CRBIT  BOOL    01
                      000375  DFMASK BOOL    QTBIT+NRBIT+MSBIT+FNBIT+RNBIT+LCBIT+CRBIT
                                     END

        LITERALS
      01270  000000000000
      01271  000000000060
      01272  000002342000
      01273  000017500000
      01274  000144000000
      01275  001200000000
      01276  010000000000
      01277  215757575757
      01300  255151465160
      01301  345757575757
      01302  356057575757
      01303  404057575757
      01304  555757575757
      01305  575757575757
      01306  602163575757
      01307  602346512560
      01310  605757575757
      01311  607426336233
1       PRNTER--PRINT ERROR DIAGNOSTICS FOR FILE SYSTEM.                                         PAGE 1
                        POST PROCESSOR ASSEMBLY DATA

       1312 IS THE FIRST LOCATION NOT USED BY THIS PROGRAM

0REFERENCES TO DEFINED SYMBOLS
        403    DNF   271
       1263    IR4     6,   10,   12
          1    LIB     3
        247   CALL    24
        250   CL01   244,  246
          1   COLT     7
        231   CR01
        236   CR02   232
       1267   ERRN    31,   77,  302
        140   FN01
        152   FN02   142
        217   FS01
        231   FS02   220
        301   IOER    54
        200   LC01
        217   LC02   201,  211
        530   LINK   362,  533
       1264   LINZ   243,  251
       1266   MASK    20,   46,  124,  126,  140,  170
        107   MS01   123
        111   MS02   117
        123   MS03    63
        132   MS04   116
        152   MS05
        154   MS06
        162   MS07    65
        135   MSP4   134
        140   MSP5   106,  131
        163   MSP6   167
        167   MSP7    64
        170   MSP8   153,  162
        101   NR01   102
        105   NR02    75
        103   NRP1
        416   OPEN   322,  421
         17   PR00    14
         36   PR01    41
         43   PR02    40
         61   PR03    60
        236   PR04
        254   PR05   260
        257   PR06   255
        261   PR07   254
        264   PR08   261,  262
         26   PRP1    22
         44   PRP2
        253   PRP4   242
        405   PZE1   274
         74   QT01    70
        170   RN01
        200   RN02   172
1       PRNTER--PRINT ERROR DIAGNOSTICS FOR FILE SYSTEM.                                         PAGE 2
                        POST PROCESSOR ASSEMBLY DATA

        265   RT01   252
        266   SAV1     3
        267   SAV2     4
        270   SAV4    11
       1265   SAVI     5,  265
        537  ALLOT   366,  370,  542
        414  ATTAC   316,  417
        440  BUFFE   324,  443
        311  CALLB   311,  403
        403  CALLS    36,   43,   53,  403
        475  CHFIL   350,  500
       1221  CLOC1  1223
       1225  CLOC4  1214
        471  CLOSE   340,  342,  344,  474
          1  CRBIT   231, 1270
       1203  DEFBC    76
        507  DELFL   352,  354,  512
        412  DELMF   314,  415
        566  DIAG0   403,  424
        571  DIAG1   405
        601  DIAG2   406
       1253  DIBUF    27,   30,   34,  143,  147,  175,  205,  210,  224,  301
        404  DNFIO   306
         53  FCHAR   113, 1270
         20  FNBIT    45,  141, 1270
          2  FSBIT   217, 1270
         55  GMESS   273,  275,  300,  305,  310
        306  IOER2   303
        557  IOERT   304,  560,  566
          4  LCBIT   200, 1270
        541  MOUNT   372,  544
        515  MOVFL   356,  520
         40  MSBIT   105,  125,  152, 1270
        100  NRBIT    74,  272,  307, 1270
       1214  OCABC   204,  223
       1227  OTBUF    66,  236,  245,  253
        200  QTBIT    67, 1270
        444  RDFIL   326,  330,  447
         10  RNBIT   171, 1270
        525  SETFL   360,  530
        274  STAND    32
        551  TAPFL   402,  554
        462  TRFIL   336,  465
        543  UMOUN   374,  546
        534  UNLIN   364,  537
        411  UPDAT   320,  346,  414
        406  UPDMF   312,  411
        544  VERIF   376,  400,  547
        452  WRFIL   332,  334,  455
       1262 CALLSW    21,   25,  241
        375 DFMASK    17, 1270
        607 DIAG00   407
        613 DIAG01   410,  441,  526
        617 DIAGA1   411
        623 DIAGA2   412,  414,  420,  431,  477,  510,  516,  524,  531,  534,  541,  543,  555
1       PRNTER--PRINT ERROR DIAGNOSTICS FOR FILE SYSTEM.                                         PAGE 3
                        POST PROCESSOR ASSEMBLY DATA

        627 DIAGA3   415,  417
        632 DIAGA4   416
        636 DIAGA5   413
        642 DIAGB1   421,  511,  517,  525
        644 DIAGB2   422
        650 DIAGB3   423
        653 DIAGB4   502,  513
        657 DIAGB5   425,  503,  514
        663 DIAGB6   426,  504
        667 DIAGB7   427
        675 DIAGB8   430
        703 DIAGB9   432,  501,  512,  520,  537
        705 DIAGC1   433,  530,  542
        710 DIAGC2   434,  556
        715 DIAGC3   435,  460,  506
        721 DIAGC4   436
        726 DIAGC5   440,  527,  536,  557
        732 DIAGC6   454
        735 DIAGC7   463,  473
        745 DIAGC8   464
        752 DIAGC9   442
        761 DIAGD1   443,  447,  455,  465,  474
        763 DIAGD2   444,  452,  461,  470,  475
        770 DIAGD3   445
        773 DIAGD4   450
        777 DIAGD5   456,  466
       1003 DIAGD6   451,  457,  467
       1007 DIAGD7   471
       1012 DIAGD8   500
       1020 DIAGD9   505
       1030 DIAGE2   507,  533,  554
       1036 DIAGE3   515,  522
       1041 DIAGE4   521,  532
       1043 DIAGE5   523
       1052 DIAGE6   535
       1060 DIAGE7   540
       1062 DIAGF1   544
       1071 DIAGF2   546
       1076 DIAGF3   553
       1101 DIAGF4   551
       1107 DIAGF5   547
       1113 DIAGF6   552
       1121 DIAGF7   550
       1126 DIAGF8   545
       1135 DIAGI0   404
       1141 DIAGI1   560
       1147 DIAGI2   561
       1155 DIAGI3   562
       1163 DIAGI4   563
       1172 DIAGI5   564
       1177 DIAGI6   565
          0 IODIAG    26
        271 NFOUND    42,   52,   56,  276
         72 NOCALL    35,  403
          7 NOIOER   303,  566
1       PRNTER--PRINT ERROR DIAGNOSTICS FOR FILE SYSTEM.                                         PAGE 4
                        POST PROCESSOR ASSEMBLY DATA

          3 PRNTER     0
        407 PZE100   276,  277
        411 PZE999   276,  411
        276 STAND1    33
          2 WRFLXA   256,  263
         16 WRFLXZ   254,  257,  260, 1270

0 NO ERROR IN ABOVE ASSEMBLY.


   QED   BCD 10/04/70 1632.5   61587         00000
