1     FAP ASSEMBLY LISTING ... ... ...          FILE     QED   FAP               06/22/70 1518.0 PAGE 1


        TRANSFER VECTOR
      00000  502524606060     QED

      00001  0020 60 0 00000  MAIN   TRA*    $QED
                                     END
1     FAP ASSEMBLY LISTING ... ... ...          FILE     QED   FAP               06/22/70 1518.0 PAGE 1
                        POST PROCESSOR ASSEMBLY DATA

          2 IS THE FIRST LOCATION NOT USED BY THIS PROGRAM

0REFERENCES TO DEFINED SYMBOLS
          0    QED     1
          1   MAIN

0 NO ERROR IN ABOVE ASSEMBLY.
1     FAP ASSEMBLY LISTING ... ... ...          FILE    0QED   FAP               06/22/70 1518.5 PAGE 1

                       00014         ENTRY   QED
                       01256         ENTRY   TYPE0
                                     EXTERN  FREEDT
                                     EXTERN  INITDT
                                     EXTERN  ZCMD
                                     EXTERN  CANON
                                     EXTERN  SETOPS
                                     EXTERN  INESC
                                     EXTERN  OUTESC
                                     EXTERN  EKEDIT
                                     EXTERN  CNVTBL

        TRANSFER VECTOR
      00000  265125252463     FREEDT
      00001  314531632463     INITDT
      00002  712344246060     ZCMD
      00003  232145464560     CANON
      00004  622563464762     SETOPS
      00005  314525622360     INESC
      00006  466463256223     OUTESC
      00007  254225243163     EKEDIT
      00010  234565632243     CNVTBL

      00011  0774 00 0 00000  *EVEN*

        LINKAGE DIRECTOR
      00012  000000000000
      00013  502524606060

                                     EVEN
                              DIVIDE MACRO   A,B
                                     ZAC
                                     DVP     =A
                                     SLW     BUF1+B
                                     END     DIVIDE
      00014  0760 00 0 00016  QED    LMTM
      00015  0074 00 4 07303         TSX     WHOAMI,4
      00016  0 00004 0 07344         PZE     BUF1,,4
      00017 -0500 00 0 07345         CAL     BUF1+1
      00020  0602 00 0 06626         SLW     CRC6+1
      00021  0602 00 0 06632         SLW     CRC7+1
      00022 -0500 00 0 11404         CAL     =O100000
      00023 -0602 00 0 00010         ORS     CNVTBL
      00024  0074 00 4 00001         TSX     INITDT,4
      00025 -0340 00 0 11474         LAS     =H(FIB)
      00026  0020 00 0 00030         TRA     *+2
      00027  0020 00 0 00056         TRA     INAR
      00030  0074 00 4 07325         TSX     OPEN,4
      00031  3 00000 0 11450         PAR     =HR
      00032  3 00000 0 11455         PAR     =H  USER
      00033  3 00000 0 11445         PAR     =HPROFIL
      00034  3 00000 0 11442         PAR     =-0
      00035  3 00000 0 11442         PAR     =-0
      00036  3 00000 0 00056         PAR     INAR
      00037  3 00000 0 07264         PAR     COPY
      00040  0074 00 4 07327         TSX     RDWAIT,4
1     FAP ASSEMBLY LISTING ... ... ...          FILE    0QED   FAP               06/22/70 1518.5 PAGE 2

      00041  3 00000 0 11455         PAR     =H  USER
      00042  3 00000 0 11445         PAR     =HPROFIL
      00043  3 00000 0 11401         PAR     =404
      00044  3 00002 0 07026         PAR     PPPMT,,2
      00045  3 00000 0 00047         PAR     *+2
      00046  3 00000 0 07264         PAR     COPY
      00047  0074 00 4 07324         TSX     CLOSE,4
      00050  3 00000 0 11455         PAR     =H  USER
      00051  3 00000 0 11445         PAR     =HPROFIL
      00052  0074 00 4 07305         TSX     PERMIT,4
      00053  3 00000 0 07026         PAR     PPPMT
      00054  3 00000 0 07027         PAR     PPPMT+1
      00055 -0625 00 0 07301         STL     PMTFLG
      00056  0074 00 4 07320  INAR   TSX     GETMEM,4
      00057  0771 00 0 00002         ARS     2
      00060  0400 00 0 11317         ADD     =1
      00061  0767 00 0 00002         ALS     2
      00062  0737 00 5 00000         PAC     ,5
      00063  0737 00 1 00000         PAC     ,1
      00064  1 77773 1 00065         TXI     *+1,1,-5
      00065 -0634 00 1 00102         SXD     IN2,1
      00066  0771 00 0 00010         ARS     8
      00067  0400 00 0 11317         ADD     =1
      00070  0767 00 0 00010         ALS     8
      00071  0737 00 1 00000         PAC     ,1
      00072  0074 00 4 07336         TSX     SETMEM,4
      00073  0600 00 1 00004         STZ     04,1
      00074  1 00004 1 00075  IN1    TXI     *+1,1,4
      00075  0756 00 1 00000         PCA     ,1
      00076  0601 00 1 00004         STO     04,1
      00077  0600 00 1 00003         STZ     03,1
      00100  0600 00 1 00002         STZ     02,1
      00101  0600 00 1 00001         STZ     01,1
      00102 -3 00000 1 00074  IN2    TXL     IN1,1,**
      00103  0636 00 5 07242         SCA     BUFER,5
      00104  0600 00 0 07243         STZ     BBASE
      00105 -0500 00 0 11351         CAL     =O60
      00106  0074 00 4 03304         TSX     BOPEN,4
      00107  0636 00 5 07244         SCA     INPUT,5
      00110  0636 00 5 07245         SCA     IBASE,5
      00111 -0500 00 5 00000         CAL     00,5
      00112  0737 00 5 00000         PAC     ,5
      00113  0600 00 0 07241         STZ     RECLEV
      00114  0774 00 7 00000         AXT     00,7
      00115  0074 00 4 00000         TSX     FREEDT,4
      00116  0074 00 4 07335         TSX     SETFUL,4
      00117  0074 00 4 07316         TSX     SETBRK,4
      00120  0 00000 0 00674         PZE     INTRUP
      00121  0074 00 4 07323         TSX     WRFLX,4
      00122  0 00001 0 00263         PZE     MES2,,1
      00123  0074 00 4 07315         TSX     GETCOM,4
      00124  0 00000 0 00001         PZE     1
      00125 -0340 00 0 11476         LAS     =O777777777777
      00126  0020 00 0 00130         TRA     *+2
      00127  0020 00 0 00765         TRA     ADDRES
      00130  0602 00 0 07264         SLW     COPY
1     FAP ASSEMBLY LISTING ... ... ...          FILE    0QED   FAP               06/22/70 1518.5 PAGE 3

      00131 -0500 00 0 11331         CAL     =O30
      00132  0602 00 0 10616         SLW     BUF6+298
      00133 -0500 00 0 11351         CAL     =O60
      00134  0602 00 0 10615         SLW     BUF6+297
      00135 -0500 00 0 11325         CAL     =O12
      00136  0602 00 0 10614         SLW     BUF6+296
      00137  0774 00 7 00001         AXT     1,7
      00140 -0500 00 0 11347         CAL     =O56
      00141  0074 00 4 03304         TSX     BOPEN,4
      00142 -0500 00 0 07251         CAL     ZER
      00143  0602 00 0 07247         SLW     ADDR2
      00144  0074 00 4 03177         TSX     INSERT,4
      00145  0 00000 0 00155         PZE     IN3
      00146 -0500 00 0 11351         CAL     =O60
      00147  0074 00 4 03304         TSX     BOPEN,4
      00150  0074 00 4 03406         TSX     SETFL,4
      00151 -0774 00 4 05375         AXC     CRD2-1,4
      00152  0636 00 4 02733         SCA     FC1,4
      00153 -0774 00 2 00001         AXC     1,2
      00154  0020 00 0 02672         TRA     SETFC+2
      00155  0636 00 4 00235  IN3    SCA     PM5,4
      00156  0636 00 2 00236         SCA     PM5+1,2
      00157 -0774 00 2 00000  PM1    AXC     **,2
      00160  3 00000 2 00232         TXH     PM4,2,0
      00161  0500 00 0 11362         CLA     =O142
      00162  0602 00 0 00014         SLW     BUF3
      00163 -0500 00 0 11351         CAL     =O60
      00164  0602 00 0 00015         SLW     BUF3+1
      00165 -0500 00 0 11325         CAL     =O12
      00166  0602 00 0 00016         SLW     BUF3+2
      00167 -0500 00 0 11367         CAL     =O162
      00170  0602 00 0 00017         SLW     BUF3+3
      00171 -0500 00 0 11361         CAL     =O141
      00172  0602 00 0 00020         SLW     BUF3+4
      00173 -0500 00 0 11340         CAL     =O40
      00174  0602 00 0 00021         SLW     BUF3+5
      00175  0074 00 4 07315         TSX     GETCOM,4
      00176  0 00000 0 00001         PZE     1
      00177  0602 00 0 07337         SLW     FILNAM
      00200  0074 00 4 00240         TSX     PMN,4
      00201 -0500 00 0 11340         CAL     =O40
      00202  0602 00 2 00021         SLW     BUF3+5,2
      00203 -0500 00 0 11453         CAL     =H   QED
      00204  0602 00 0 07340         SLW     FILNAM+1
      00205  0074 00 4 00240         TSX     PMN,4
      00206 -0500 00 0 11331         CAL     =O30
      00207  0602 00 2 00022         SLW     BUF3+6,2
      00210 -0500 00 0 11351         CAL     =O60
      00211  0602 00 2 00023         SLW     BUF3+7,2
      00212 -0500 00 0 11325         CAL     =O12
      00213  0602 00 2 00024         SLW     BUF3+8,2
      00214  1 77775 2 00215         TXI     *+1,2,-3
      00215  0074 00 4 07315         TSX     GETCOM,4
      00216  0 00000 0 00002  PM2    PZE     2
      00217 -0340 00 0 11476         LAS     =O777777777777
      00220  0020 00 0 00222         TRA     *+2
1     FAP ASSEMBLY LISTING ... ... ...          FILE    0QED   FAP               06/22/70 1518.5 PAGE 4

      00221  0020 00 0 00227         TRA     PM3
      00222  0074 00 4 00240         TSX     PMN,4
      00223 -0500 00 0 00216         CAL     PM2
      00224  0361 00 0 11317         ACL     =1
      00225  0602 00 0 00216         SLW     PM2
      00226  0020 00 0 00215         TRA     PM2-1
      00227 -0500 00 0 11321  PM3    CAL     =O3
      00230  0602 00 2 00022         SLW     BUF3+6,2
      00231 -0774 00 2 00000         AXC     0,2
      00232 -0500 00 2 00014  PM4    CAL     BUF3,2
      00233  1 77777 2 00234         TXI     *+1,2,-1
      00234  0636 00 2 00157         SCA     PM1,2
      00235 -0774 00 4 00000  PM5    AXC     **,4
      00236 -0774 00 2 00000         AXC     **,2
      00237  0020 00 4 00001         TRA     1,4
      00240 -0130 00 0 00000  PMN    XCL
      00241 -0754 00 0 00000         ZAC
      00242 -0763 00 0 00006         LGL     6
      00243 -0130 00 0 00000         XCL
      00244 -0501 00 0 11346         ORA     =O55
      00245 -0130 00 0 00000         XCL
      00246 -0340 00 0 11351         LAS     =O60
      00247  0020 00 0 00251         TRA     *+2
      00250  0020 00 0 00241         TRA     PMN+1
      00251  0737 00 1 00000         PAC     ,1
      00252 -0500 60 0 00010         CAL*    CNVTBL
      00253  0771 00 0 00020         ARS     16
      00254 -0320 00 0 11372         ANA     =O177
      00255  0602 00 2 00022         SLW     BUF3+6,2
      00256  1 77777 2 00257         TXI     *+1,2,-1
      00257 -0340 00 0 11325         LAS     =O12
      00260  0020 00 0 00241         TRA     PMN+1
      00261  0020 00 4 00001         TRA     1,4
      00262  0020 00 0 00241         TRA     PMN+1
      00263  005000250024     MES2   BCI     1,0Q0E0D
                       00674         ORG     QED+432
      00674 -0625 00 0 07235  INTRUP STL     INTFLG
      00675  0602 00 0 07342         SLW     AC
      00676  0601 00 0 07343         STO     AC+1
      00677 -0600 00 0 07344         STQ     AC+2
      00700  0636 00 4 00713         SCA     INT1,4
      00701  0074 00 4 07335         TSX     SETFUL,4
      00702  0074 00 4 07317         TSX     GETBRK,4
      00703  0621 00 0 00714         STA     INT1+1
      00704  0074 00 4 07316         TSX     SETBRK,4
      00705  0 00000 0 00674         PZE     INTRUP
      00706  0500 00 0 07343         CLA     AC+1
      00707 -0501 00 0 07342         ORA     AC
      00710  0560 00 0 07344         LDQ     AC+2
      00711  0520 00 0 07236         ZET     RFLG
      00712  0020 00 0 00715         TRA     INT2
      00713 -0774 00 4 00000  INT1   AXC     **,4
      00714  0020 00 0 00000         TRA     **
      00715 -0520 00 0 07030  INT2   NZT     TFLG
      00716  0020 00 0 01274         TRA     TYPE4
      00717  0600 00 0 07236         STZ     RFLG
1     FAP ASSEMBLY LISTING ... ... ...          FILE    0QED   FAP               06/22/70 1518.5 PAGE 5

      00720  0600 00 0 07033         STZ     VFLG
      00721  0535 00 4 02345         LAC     GC5,4
      00722 -0500 00 0 11325         CAL     =O12
      00723  0020 00 0 02425         TRA     GC11
      00724  0636 00 4 00751  MORMEM SCA     MM1+1,4
      00725  0074 00 4 07320         TSX     GETMEM,4
      00726  0737 00 5 00000         PAC     ,5
      00727  0737 00 4 00000         PAC     ,4
      00730  1 77773 4 00731         TXI     *+1,4,-5
      00731 -0634 00 4 00750         SXD     MM1,4
      00732  0400 00 0 11376         ADD     =O400
      00733  0340 00 0 11404         CAS     =O100000
      00734  0020 00 0 00753         TRA     MM2
      00735  0074 00 4 00755         TSX     MM4,4
      00736  0621 00 0 00740         STA     *+2
      00737  0074 00 4 07336         TSX     SETMEM,4
      00740 -0774 00 4 00000         AXC     **,4
      00741  0600 00 4 77774         STZ     -04,4
      00742  1 00004 4 00743  MM3    TXI     *+1,4,4
      00743  0756 00 4 00000         PCA     ,4
      00744  0601 00 4 77774         STO     -04,4
      00745  0600 00 4 77775         STZ     -03,4
      00746  0600 00 4 77776         STZ     -02,4
      00747  0600 00 4 77777         STZ     -01,4
      00750 -3 00000 4 00742  MM1    TXL     MM3,4,**
      00751 -0774 00 4 00000         AXC     **,4
      00752  0020 00 4 00001         TRA     1,4
      00753  0074 00 4 07321  MM2    TSX     DORMNT,4
      00754  0000 00 0 00000         HTR     0
      00755  0636 00 4 00760  MM4    SCA     *+3,4
      00756  0074 00 4 07323         TSX     WRFLX,4
      00757  0 00001 0 00764         PZE     MES3,,1
      00760 -0774 00 4 00000         AXC     **,4
      00761 -0500 00 0 11402         CAL     =O77774
      00762 -0625 00 0 07235         STL     INTFLG
      00763  0020 00 4 00001         TRA     1,4
      00764  004400250044     MES3   BCI     1,0M0E0M
      00765  0520 00 0 07235  ADDRES ZET     INTFLG
      00766  0020 00 0 01274         TRA     TYPE4
      00767  0600 00 0 07275         STZ     DFLG
      00770  0600 00 0 07265         STZ     AFLG
      00771  0600 00 0 07266         STZ     BFLG
      00772  0074 00 4 02257         TSX     GETCHA,4
      00773 -0500 00 0 07251         CAL     ZER
      00774  0602 00 0 07250         SLW     ADDR3
      00775 -0500 60 0 00010  ADR1   CAL*    CNVTBL
      00776  0771 00 0 00040         ARS     32
      00777  0737 00 4 00000         PAC     ,4
      01000  0020 00 4 01001         TRA     *+1,4
      01001  0020 00 0 01230         TRA     AUNKN
      01002  0020 00 0 01014         TRA     APLUS
      01003  0020 00 0 01015         TRA     AMINUS
      01004  0020 00 0 01023         TRA     ASRCH
      01005  0020 00 0 01126         TRA     ANUMB
      01006  0020 00 0 01073         TRA     ALAST
      01007  0020 00 0 01100         TRA     ACURNT
1     FAP ASSEMBLY LISTING ... ... ...          FILE    0QED   FAP               06/22/70 1518.5 PAGE 6

      01010  0020 00 0 01012         TRA     ABLNK
      01011  0020 00 0 01147         TRA     AANUM
      01012  0074 00 4 02257  ABLNK  TSX     GETCHA,4
      01013  0020 00 0 00775         TRA     ADR1
      01014  0020 00 0 01222  APLUS  TRA     ADV2
      01015  0520 00 0 07275  AMINUS ZET     DFLG
      01016  0020 00 0 01021         TRA     *+3
      01017 -0625 00 0 07275         STL     DFLG
      01020  0020 00 0 01222         TRA     ADV2
      01021  0600 00 0 07275         STZ     DFLG
      01022  0020 00 0 01222         TRA     ADV2
      01023 -0500 00 0 11350  ASRCH  CAL     =O57
      01024  0602 00 0 07273         SLW     SLCHR
      01025  0600 00 0 07263         STZ     SUBFLG
      01026  0074 00 4 01426         TSX     COMPIL,4
      01027  0020 00 0 01057         TRA     SRC3
      01030  0 00000 0 01041         PZE     SRC2
      01031  0535 00 4 07024         LAC     DOT,4
      01032 -0500 00 4 00000         CAL     00,4
      01033  0621 00 0 01036         STA     SRC1
      01034 -0636 00 4 01036         SCD     SRC1,4
      01035  0074 00 4 02527         TSX     SETBC,4
      01036  0 00000 0 00000  SRC1   PZE     **,,**
      01037 -0625 00 0 07234         STL     IFLG
      01040  0600 00 0 07237         STZ     JFLG
      01041  0600 00 0 07233  SRC2   STZ     FFLG
      01042 -0520 00 0 07234         NZT     IFLG
      01043  0020 00 0 01046         TRA     *+3
      01044  0600 00 0 07234         STZ     IFLG
      01045 -0625 00 0 07233         STL     FFLG
      01046  0074 00 4 02604         TSX     GETBC,4
      01047  0737 00 1 00000         PAC     ,1
      01050 -3 77774 1 01052         TXL     *+2,1,-4
      01051 -3 77775 1 01067         TXL     SRC4,1,-3
      01052 -0774 00 2 07625         AXC     BUF2+50-1,2
      01053 -3 77765 1 00014         TXL     BUF3,1,-11
      01054  3 77766 1 00014         TXH     BUF3,1,-10
      01055 -0625 00 0 07234         STL     IFLG
      01056  0020 00 0 00014         TRA     BUF3
      01057  0535 00 2 02621  SRC3   LAC     BC2,2
      01060 -0520 00 0 07234         NZT     IFLG
      01061  0020 00 0 01064         TRA     *+3
      01062 -0500 00 2 00000         CAL     00,2
      01063 -0737 00 2 00000         PDC     ,2
      01064  0074 00 4 02641         TSX     BC4,4
      01065  0074 00 4 02257         TSX     GETCHA,4
      01066  0020 00 0 01173         TRA     AREL
      01067 -0520 00 0 07241  SRC4   NZT     RECLEV
      01070  0020 00 0 01260         TRA     TYPE1
      01071  0074 00 4 02641         TSX     BC4,4
      01072  0020 00 0 00765         TRA     ADDRES
      01073  0535 00 2 07251  ALAST  LAC     ZER,2
      01074 -0500 00 2 00000         CAL     00,2
      01075 -0737 00 2 00000         PDC     ,2
      01076  0074 00 4 02257         TSX     GETCHA,4
      01077  0020 00 0 01173         TRA     AREL
1     FAP ASSEMBLY LISTING ... ... ...          FILE    0QED   FAP               06/22/70 1518.5 PAGE 7

      01100  0535 00 2 07024  ACURNT LAC     DOT,2
      01101  0074 00 4 02257         TSX     GETCHA,4
      01102  0020 00 0 01173         TRA     AREL
      01103  1 00060 1 01104  NUMB   TXI     *+1,1,48
      01104  0636 00 1 01124         SCA     NUMB1,1
      01105  0074 00 4 02257         TSX     GETCHA,4
      01106 -0500 60 0 00010         CAL*    CNVTBL
      01107  0771 00 0 00040         ARS     32
      01110  0402 00 0 11322         SUB     =4
      01111 -0100 00 0 01124         TNZ     NUMB1
      01112  0535 00 4 01124         LAC     NUMB1,4
      01113  0756 00 4 00000         PCA     ,4
      01114  0131 00 0 00000         XCA
      01115  0200 00 0 11325         MPY     =10
      01116  0131 00 0 00000         XCA
      01117  1 00060 1 01120         TXI     *+1,1,48
      01120  0636 00 1 01124         SCA     NUMB1,1
      01121  0361 00 0 01124         ACL     NUMB1
      01122  0621 00 0 01124         STA     NUMB1
      01123  0020 00 0 01105         TRA     NUMB+2
      01124 -0774 00 4 00000  NUMB1  AXC     **,4
      01125  0020 00 2 00001         TRA     1,2
      01126  0074 00 2 01103  ANUMB  TSX     NUMB,2
      01127  0535 00 2 07250         LAC     ADDR3,2
      01130  0500 00 2 00000         CLA     00,2
      01131  0520 00 0 07275         ZET     DFLG
      01132  0020 00 0 01140         TRA     NUMB3
      01133 -3 00000 4 01145  NUMB2  TXL     NUMB4,4,0
      01134  0737 00 2 00000         PAC     ,2
      01135  0500 00 2 00000         CLA     00,2
      01136 -0120 00 0 01300         TMI     TYPE5
      01137  1 00001 4 01133         TXI     NUMB2,4,1
      01140 -3 00000 4 01145  NUMB3  TXL     NUMB4,4,0
      01141 -0120 00 0 01300         TMI     TYPE5
      01142 -0737 00 2 00000         PDC     ,2
      01143  0500 00 2 00000         CLA     00,2
      01144  1 00001 4 01140         TXI     NUMB3,4,1
      01145  0636 00 2 07250  NUMB4  SCA     ADDR3,2
      01146  0020 00 0 01225         TRA     ADV3
      01147  0074 00 4 02257  AANUM  TSX     GETCHA,4
      01150 -0500 60 0 00010         CAL*    CNVTBL
      01151  0771 00 0 00040         ARS     32
      01152  0402 00 0 11322         SUB     =4
      01153 -0100 00 0 01264         TNZ     TYPE2
      01154  0074 00 2 01103         TSX     NUMB,2
      01155  0535 00 2 07251         LAC     ZER,2
      01156 -3 00000 4 01173         TXL     AREL,4,0
      01157 -0500 00 2 00000         CAL     00,2
      01160  0737 00 2 00000         PAC     ,2
      01161  0756 00 4 00000  AAN1   PCA     ,4
      01162 -0340 00 2 00003         LAS     03,2
      01163  0020 00 0 01166         TRA     *+3
      01164  0020 00 0 01173         TRA     AREL
      01165  0020 00 0 01260         TRA     TYPE1
      01166 -0500 00 2 00000         CAL     00,2
      01167  0737 00 2 00000         PAC     ,2
1     FAP ASSEMBLY LISTING ... ... ...          FILE    0QED   FAP               06/22/70 1518.5 PAGE 8

      01170  0500 00 2 00000         CLA     00,2
      01171  0120 00 0 01161         TPL     AAN1
      01172  0020 00 0 01260         TRA     TYPE1
      01173  0535 00 4 07250  AREL   LAC     ADDR3,4
      01174  0520 00 0 07275         ZET     DFLG
      01175  0020 00 0 01207         TRA     REL2
      01176  0500 00 4 00000         CLA     00,4
      01177 -0120 00 0 01216         TMI     REL3
      01200  0500 00 2 00000  REL1   CLA     00,2
      01201 -0120 00 0 01220         TMI     REL4
      01202 -0737 00 2 00000         PDC     ,2
      01203  0500 00 4 00000         CLA     00,4
      01204  0737 00 4 00000         PAC     ,4
      01205  0120 00 0 01200         TPL     REL1
      01206  0020 00 0 01300         TRA     TYPE5
      01207  0500 00 2 00000  REL2   CLA     00,2
      01210 -0120 00 0 01220         TMI     REL4
      01211 -0737 00 2 00000         PDC     ,2
      01212  0500 00 4 00000         CLA     00,4
      01213 -0737 00 4 00000         PDC     ,4
      01214  0120 00 0 01207         TPL     REL2
      01215  0020 00 0 01300         TRA     TYPE5
      01216  0636 00 2 07250  REL3   SCA     ADDR3,2
      01217  0020 00 0 01225         TRA     ADV3
      01220  0636 00 4 07250  REL4   SCA     ADDR3,4
      01221  0020 00 0 01225         TRA     ADV3
      01222  0074 00 4 02257  ADV2   TSX     GETCHA,4
      01223 -0625 00 0 07265         STL     AFLG
      01224  0020 00 0 00775         TRA     ADR1
      01225  0600 00 0 07275  ADV3   STZ     DFLG
      01226 -0625 00 0 07265         STL     AFLG
      01227  0020 00 0 00775         TRA     ADR1
      01230  0520 00 0 07266  AUNKN  ZET     BFLG
      01231  0020 00 0 01237         TRA     UNK1
      01232 -0500 00 0 07250         CAL     ADDR3
      01233  0602 00 0 07246         SLW     ADDR1
      01234  0602 00 0 07247         SLW     ADDR2
      01235 -0625 00 0 07266         STL     BFLG
      01236  0020 00 0 01243         TRA     UNK2
      01237 -0500 00 0 07247  UNK1   CAL     ADDR2
      01240  0602 00 0 07246         SLW     ADDR1
      01241 -0500 00 0 07250         CAL     ADDR3
      01242  0602 00 0 07247         SLW     ADDR2
      01243  0756 00 1 00000  UNK2   PCA     ,1
      01244  0402 00 0 11345         SUB     =O54
      01245  0100 00 0 01252         TZE     UNK3
      01246  0402 00 0 11330         SUB     =O17
      01247 -0100 00 0 04400         TNZ     COMAND
      01250 -0500 00 0 07250         CAL     ADDR3
      01251  0602 00 0 07024         SLW     DOT
      01252  0074 00 4 02257  UNK3   TSX     GETCHA,4
      01253 -0500 00 0 07251         CAL     ZER
      01254  0602 00 0 07250         SLW     ADDR3
      01255  0020 00 0 00775         TRA     ADR1
                              TYPE   MACRO   A
                                     ZET     TRAP'A
1     FAP ASSEMBLY LISTING ... ... ...          FILE    0QED   FAP               06/22/70 1518.5 PAGE 9

                                     TSX     TRAP,4
                                     CAL     =H0'A'0 0
                                     TRA     ILLADD-1
                                     END     TYPE
      01256 -0500 00 0 11406  TYPE0  CAL     =H000 0
      01257  0020 00 0 01362         TRA     ILLADD-1
      01260                   TYPE1  TYPE    1
      01264                   TYPE2  TYPE    2
      01270                   TYPE3  TYPE    3
      01274                   TYPE4  TYPE    4
      01300                   TYPE5  TYPE    5
      01304                   TYPE6  TYPE    6
      01310                   TYPE7  TYPE    7
      01314                   TYPE8  TYPE    8
      01320                   TYPE9  TYPE    9
      01324  0 00000 0 00000  TRAP1
      01325  0 00000 0 00000  TRAP2
      01326  0 00000 0 00000  TRAP3
      01327  0 00000 0 00000  TRAP4
      01330  0 00000 0 00000  TRAP5
      01331  0 00000 0 00000  TRAP6
      01332  0 00000 0 00000  TRAP7
      01333  0 00000 0 00000  TRAP8
      01334  0 00000 0 00000  TRAP9
      01335 -0500 60 4 77777  TRAP   CAL*    -1,4
      01336  0600 60 4 77777         STZ*    -1,4
      01337  0602 00 0 01361         SLW     TRP1
      01340  0600 00 0 07235         STZ     INTFLG
      01341  0520 00 0 07030         ZET     TFLG
      01342  0074 00 4 02427         TSX     GC11+2,4
      01343  0535 00 4 07242         LAC     BUFER,4
      01344 -0500 00 4 00003         CAL     03,4
      01345  0602 00 0 01360         SLW     TRP2
      01346 -0500 00 0 01361         CAL     TRP1
      01347  0074 00 4 03304         TSX     BOPEN,4
      01350  0535 00 4 07251         LAC     ZER,4
      01351 -0500 00 4 00000         CAL     00,4
      01352  0601 00 0 01354         STO     *+2
      01353  0074 00 4 02527         TSX     SETBC,4
      01354  0 00000 0 00000         PZE     **,,**
      01355 -0500 00 0 01360         CAL     TRP2
      01356  0074 00 4 03304         TSX     BOPEN,4
      01357  0020 00 0 00765         TRA     ADDRES
      01360  0 00000 0 00000  TRP2   PZE     **
      01361  0 00000 0 00000  TRP1   PZE     **
      01362  0602 00 0 01417         SLW     MES1+1
      01363  0600 00 0 07235  ILLADD STZ     INTFLG
      01364 -0520 00 0 07267         NZT     TRCFLG
      01365  0020 00 0 01375         TRA     IL2
      01366 -0340 00 0 11414         LAS     =H040 0
      01367  0020 00 0 01371         TRA     *+2
      01370  0020 00 0 01375         TRA     IL2
      01371 -0520 00 0 07241         NZT     RECLEV
      01372  0020 00 0 01375         TRA     IL2
      01373  0074 00 4 03502         TSX     PRINT,4
      01374  0 00000 0 02604         PZE     GETBC
1     FAP ASSEMBLY LISTING ... ... ...          FILE    0QED   FAP               06/22/70 1518.5 PAGE 10

      01375  0074 00 4 07335  IL2    TSX     SETFUL,4
      01376  0520 00 0 07300         ZET     FILFLG
      01377  0074 00 4 02772         TSX     CLOS,4
      01400 -0520 00 0 07241         NZT     RECLEV
      01401  0020 00 0 01412         TRA     IL1
      01402  0600 00 0 07241         STZ     RECLEV
      01403  0535 00 4 07244         LAC     INPUT,4
      01404  0756 00 5 00000         PCA     ,5
      01405  0602 00 4 00000         SLW     00,4
      01406  0535 00 4 07245         LAC     IBASE,4
      01407 -0500 00 4 00000         CAL     00,4
      01410  0737 00 5 00000         PAC     ,5
      01411  0636 00 4 07244         SCA     INPUT,4
      01412  0074 00 4 07323  IL1    TSX     WRFLX,4
      01413  0 00002 0 01416         PZE     MES1,,2
      01414  0774 00 7 00000         AXT     00,7
      01415  0020 00 0 00765         TRA     ADDRES
      01416 +017501320156     MES1   OCT     17501320156,0
      01417 +000000000000
      01420  0636 00 4 01423  BLINE  SCA     *+3,4
      01421  0074 00 4 07323         TSX     WRFLX,4
      01422  0 00001 0 01425         PZE     *+3,,1
      01423 -0774 00 4 00000         AXC     **,4
      01424  0020 00 4 00001         TRA     1,4
      01425 +006000600060            OCT     006000600060
      01426  0636 00 4 01567  COMPIL SCA     CEOF,4
      01427  0636 00 0 01540         SCA     OPONST,0
      01430 -0774 00 3 00000         AXC     00,3
      01431 -0774 00 2 00144         AXC     100,2
      01432 -0500 00 0 11317         CAL     =1
      01433  0602 00 0 07544         SLW     BUF2
      01434  0600 00 0 07234         STZ     IFLG
      01435  0600 00 0 07237         STZ     JFLG
      01436  0520 00 0 07234  ADVANC ZET     IFLG
      01437  0020 00 0 01511         TRA     AN1
      01440  0074 00 4 02257         TSX     GETCHA,4
      01441 -0340 00 0 07273         LAS     SLCHR
      01442  0020 00 0 01444         TRA     *+2
      01443  0020 00 0 01530         TRA     SL1
      01444  0520 00 0 07240         ZET     CPLFLG
      01445  0600 00 0 07262         STZ     NSCHA
      01446  0600 00 0 07240         STZ     CPLFLG
      01447  0520 00 0 07033  IO1    ZET     VFLG
      01450  0020 00 0 01461         TRA     AD1
      01451 -3 77602 1 01463         TXL     CH1,1,-126
      01452 -3 77603 1 01514         TXL     RP0,1,-125
      01453 -3 77604 1 01504         TXL     OR1,1,-124
      01454 -3 77605 1 01474         TXL     LP1,1,-123
      01455 -3 77725 1 01463         TXL     CH1,1,-43
      01456 -3 77726 1 01526         TXL     ST1,1,-42
      01457 -3 77727 1 01523         TXL     RP1,1,-41
      01460 -3 77730 1 01474         TXL     LP1,1,-40
      01461 -3 77765 1 01463  AD1    TXL     CH1,1,-11
      01462 -3 77766 1 01537         TXL     CILAD,1,-10
      01463 -0756 00 1 00000  CH1    PCD     ,1
      01464  0520 00 0 07033  IO2    ZET     VFLG
1     FAP ASSEMBLY LISTING ... ... ...          FILE    0QED   FAP               06/22/70 1518.5 PAGE 11

      01465 -0760 00 0 00003         SSM
      01466  0601 00 0 07264         STO     COPY
      01467 -0774 00 1 00007         AXC     7,1
      01470  0520 00 0 07237         ZET     JFLG
      01471  0020 00 0 01500         TRA     CH2
      01472 -0625 00 0 07237         STL     JFLG
      01473  0020 00 0 01540         TRA     OPONST
      01474 -0774 00 1 00010  LP1    AXC     8,1
      01475 -0520 00 0 07237         NZT     JFLG
      01476  0020 00 0 01540         TRA     OPONST
      01477  0600 00 0 07237         STZ     JFLG
      01500  0636 00 1 07264  CH2    SCA     COPY,1
      01501 -0774 00 1 00005         AXC     5,1
      01502 -0625 00 0 07234         STL     IFLG
      01503  0020 00 0 01540         TRA     OPONST
      01504 -0774 00 1 00004  OR1    AXC     4,1
      01505 -0520 00 0 07237         NZT     JFLG
      01506  0020 00 0 01537         TRA     CILAD
      01507  0600 00 0 07237         STZ     JFLG
      01510  0020 00 0 01540         TRA     OPONST
      01511  0535 00 1 07264  AN1    LAC     COPY,1
      01512  0600 00 0 07234         STZ     IFLG
      01513  0020 00 0 01540         TRA     OPONST
      01514  0074 00 4 02257  RP0    TSX     GETCHA,4
      01515  0602 00 0 07264         SLW     COPY
      01516 -0774 00 1 00002         AXC     2,1
      01517 -0340 00 0 07273         LAS     SLCHR
      01520  0020 00 0 01533         TRA     RP2
      01521  0020 00 0 01537         TRA     CILAD
      01522  0020 00 0 01533         TRA     RP2
      01523 -0774 00 1 00002  RP1    AXC     2,1
      01524  0600 00 0 07264         STZ     COPY
      01525  0020 00 0 01533         TRA     RP2
      01526 -0774 00 1 00006  ST1    AXC     6,1
      01527  0020 00 0 01533         TRA     RP2
      01530  0520 00 0 07033 USL1    ZET     VFLG
      01531  0020 00 0 01463         TRA     CH1
      01532 -0774 00 1 00001         AXC     1,1
      01533  0520 00 0 07237  RP2    ZET     JFLG
      01534  0020 00 0 01540         TRA     OPONST
      01535  0535 00 3 07240         LAC     CPLFLG,3
      01536  3 00000 3 01567         TXH     CEOF,3,0
      01537  0020 00 0 01270  CILAD  TRA     TYPE3
      01540 -0774 00 4 00000  OPONST AXC     **,4
      01541 -0634 00 1 01544         SXD     OP1,1
      01542 -0500 00 4 07544  OP0    CAL     BUF2,4
      01543  0737 00 1 00000         PAC     ,1
      01544 -3 00000 1 01557  OP1    TXL     OP2,1,**
      01545 -0534 00 1 01544         LXD     OP1,1
      01546  3 77770 1 01550         TXH     *+2,1,-8
      01547  1 00005 1 01550         TXI     *+1,1,5
      01550  0500 00 0 07264         CLA     COPY
      01551  0601 00 4 07545         STO     BUF2+1,4
      01552  0756 00 1 00000         PCA     ,1
      01553  0621 00 4 07545         STA     BUF2+1,4
      01554  1 77777 4 01555         TXI     *+1,4,-1
1     FAP ASSEMBLY LISTING ... ... ...          FILE    0QED   FAP               06/22/70 1518.5 PAGE 12

      01555  0636 00 4 01540         SCA     OPONST,4
      01556  0020 00 0 01436         TRA     ADVANC
      01557  0020 00 1 01557  OP2    TRA     *,1
      01560  0020 00 0 01567         TRA     CEOF
      01561  0020 00 0 01602         TRA     CRTP
      01562  0020 00 0 01603         TRA     CLFP
      01563  0020 00 0 01635         TRA     COR
      01564  0020 00 0 01701         TRA     CAND
      01565  0020 00 0 01713         TRA     CSTR
      01566  0020 00 0 01747         TRA     CCHR
      01567 -0774 00 4 00000  CEOF   AXC     **,4
      01570  0636 00 0 02175         SCA     CNO1,0
      01571  0636 00 0 02141         SCA     NO1,0
      01572 -0500 00 4 00001         CAL     1,4
      01573  0602 00 3 00014         SLW     BUF3,3
      01574  0636 00 3 07240         SCA     CPLFLG,3
      01575 -0500 00 4 00002         CAL     2,4
      01576  0621 00 0 02254         STA     XCH2
      01577 -0500 00 0 07220         CAL     TRA3
      01600  0602 00 0 07627         SLW     BUF2+50+1
      01601  0020 00 4 00003         TRA     3,4
      01602  0020 00 0 01537  CRTP   TRA     CILAD
      01603 -0534 00 1 01544  CLFP   LXD     OP1,1
      01604  3 77776 1 01537         TXH     CILAD,1,-2
      01605  1 00001 4 01606         TXI     *+1,4,1
      01606  0636 00 4 01540         SCA     OPONST,4
      01607 -0520 00 0 07264         NZT     COPY
      01610  0020 00 0 01436         TRA     ADVANC
      01611  0535 00 4 07262         LAC     NSCHA,4
      01612 -0500 00 0 07264         CAL     COPY
      01613  0602 00 4 11300         SLW     SCHARS,4
      01614  1 77777 4 01615         TXI     *+1,4,-1
      01615 -3 77767 4 01256         TXL     TYPE0,4,-9
      01616  0636 00 4 07262         SCA     NSCHA,4
      01617  0602 00 3 00015         SLW     BUF3+1,3
      01620 -0500 00 0 07225         CAL     TSX5
      01621  0602 00 3 00014         SLW     BUF3,3
      01622 -0500 00 0 07224         CAL     TSX4
      01623  0602 00 3 00016         SLW     BUF3+2,3
      01624 -0500 00 2 07544         CAL     BUF2,2
      01625  0737 00 4 00000         PAC     ,4
      01626 -0500 00 4 00014         CAL     BUF3,4
      01627  0602 00 3 00017         SLW     BUF3+3,3
      01630  0756 00 3 00000         PCA     ,3
      01631  0361 00 0 07216         ACL     TRA1
      01632  0361 00 0 11320         ACL     =2
      01633  0602 00 4 00014         SLW     BUF3,4
      01634  1 77774 3 01436         TXI     ADVANC,3,-4
      01635  1 00001 4 01636  COR    TXI     *+1,4,1
      01636  0636 00 4 01540         SCA     OPONST,4
      01637 -0500 00 2 07545         CAL     BUF2+1,2
      01640  0737 00 4 00000         PAC     ,4
      01641 -0500 00 4 00014         CAL     BUF3,4
      01642  0602 00 3 00016         SLW     BUF3+2,3
      01643  0756 00 3 00000         PCA     ,3
      01644  0361 00 0 07216         ACL     TRA1
1     FAP ASSEMBLY LISTING ... ... ...          FILE    0QED   FAP               06/22/70 1518.5 PAGE 13

      01645  0361 00 0 11317         ACL     =1
      01646  0602 00 4 00014         SLW     BUF3,4
      01647  0361 00 0 11321         ACL     =3
      01650  0602 00 3 00014         SLW     BUF3,3
      01651 -0130 00 0 00000         XCL
      01652 -0500 00 2 07544         CAL     BUF2,2
      01653 -0737 00 4 00000         PDC     ,4
      01654 -3 00000 4 01667         TXL     COR1,4,0
      01655 -0500 00 2 07545         CAL     BUF2+1,2
      01656 -0340 00 0 11404         LAS     =O100000
      01657  0020 00 0 01664         TRA     *+5
      01660  0020 00 0 01664         TRA     *+4
      01661 -0756 00 4 00000         PCD     ,4
      01662  0622 00 2 07545         STD     BUF2+1,2
      01663  0020 00 0 01667         TRA     COR1
      01664  0771 00 0 00022         ARS     18
      01665  0361 00 0 07216         ACL     TRA1
      01666  0602 00 4 00014         SLW     BUF3,4
      01667 -0500 00 2 07544  COR1   CAL     BUF2,2
      01670  0737 00 4 00000         PAC     ,4
      01671 -0500 00 4 00014         CAL     BUF3,4
      01672  0602 00 3 00017         SLW     BUF3+3,3
      01673 -0600 00 4 00014         STQ     BUF3,4
      01674 -0500 00 0 07222         CAL     TSX2
      01675  0602 00 3 00015         SLW     BUF3+1,3
      01676  1 77777 2 01677         TXI     *+1,2,-1
      01677  0535 00 4 01540         LAC     OPONST,4
      01700  1 77774 3 01542         TXI     OP0,3,-4
      01701 -0500 00 2 07544  CAND   CAL     BUF2,2
      01702 -0340 00 0 11404         LAS     =O100000
      01703  1 77777 2 01712         TXI     CAN1,2,-1
      01704  1 77777 2 01712         TXI     CAN1,2,-1
      01705 -0500 00 2 07545         CAL     BUF2+1,2
      01706 -0340 00 0 11404         LAS     =O100000
      01707 -0320 00 0 11403         ANA     =O77777
      01710  0602 00 2 07545         SLW     BUF2+1,2
      01711  1 77777 2 01712         TXI     CAN1,2,-1
      01712  1 00001 4 01542  CAN1   TXI     OP0,4,1
      01713  1 00001 4 01714  CSTR   TXI     *+1,4,1
      01714  0636 00 4 01540         SCA     OPONST,4
      01715  0500 00 2 07544         CLA     BUF2,2
      01716 -0120 00 0 01537         TMI     CILAD
      01717 -0737 00 4 00000         PDC     ,4
      01720 -3 00000 4 01724         TXL     *+4,4,0
      01721 -0500 00 0 07217         CAL     TRA2
      01722  0602 00 4 00014         SLW     BUF3,4
      01723 -0500 00 2 07544         CAL     BUF2,2
      01724  0737 00 4 00000         PAC     ,4
      01725 -0500 00 4 00014         CAL     BUF3,4
      01726  0602 00 3 00015         SLW     BUF3+1,3
      01727  0602 00 3 00020         SLW     BUF3+4,3
      01730  0756 00 3 00000         PCA     ,3
      01731  0361 00 0 07216         ACL     TRA1
      01732  0361 00 0 11321         ACL     =3
      01733  0602 00 4 00014         SLW     BUF3,4
      01734  0361 00 0 11321         ACL     =3
1     FAP ASSEMBLY LISTING ... ... ...          FILE    0QED   FAP               06/22/70 1518.5 PAGE 14

      01735  0602 00 3 00016         SLW     BUF3+2,3
      01736  0602 00 3 00021         SLW     BUF3+5,3
      01737 -0756 00 3 00000         PCD     ,3
      01740  0361 00 0 11407         ACL     =O5000000
      01741  0622 00 2 07544         STD     BUF2,2
      01742 -0500 00 0 07222         CAL     TSX2
      01743  0602 00 3 00014         SLW     BUF3,3
      01744  0602 00 3 00017         SLW     BUF3+3,3
      01745  0535 00 4 01540         LAC     OPONST,4
      01746  1 77772 3 01542         TXI     OP0,3,-6
      01747  0636 00 4 01540  CCHR   SCA     OPONST,4
      01750  0756 00 3 00000         PCA     ,3
      01751  0602 00 2 07543         SLW     BUF2-1,2
      01752  0361 00 0 07216         ACL     TRA1
      01753  0361 00 0 11317         ACL     =1
      01754  0602 00 3 00014         SLW     BUF3,3
      01755  0500 00 4 07544         CLA     BUF2,4
      01756 -0737 00 1 00000         PDC     ,1
      01757 -0120 00 0 01766         TMI     CCH1
      01760 -3 77641 1 01766         TXL     CCH1,1,-95
      01761 -3 77642 1 02007         TXL     CCHZ,1,-94
      01762 -3 77721 1 01766         TXL     CCH1,1,-47
      01763 -3 77722 1 02017         TXL     CCHC,1,-46
      01764 -3 77733 1 01766         TXL     CCH1,1,-37
      01765 -3 77734 1 02031         TXL     CCHL,1,-36
      01766 -0500 00 0 07221  CCH1   CAL     TSX1
      01767  0602 00 3 00017         SLW     BUF3+3,3
      01770 -0774 00 4 00000         AXC     00,4
      01771 -0754 00 1 00000  CCH2   PXD     ,1
      01772 -0501 00 0 07230         ORA     TXH1
      01773  0602 00 3 00016         SLW     BUF3+2,3
      01774 -3 00000 1 02000         TXL     *+4,1,0
      01775  1 77777 1 01776         TXI     *+1,1,-1
      01776 -0754 00 1 00000         PXD     ,1
      01777 -0501 00 0 07226         ORA     TXL1
      02000  0602 00 3 00015         SLW     BUF3+1,3
      02001 -3 00000 4 02003         TXL     *+2,4,0
      02002  1 77775 3 02004         TXI     CCH3,3,-3
      02003  1 77774 3 02004         TXI     CCH3,3,-4
      02004  1 00001 2 02005  CCH3   TXI     *+1,2,1
      02005  0535 00 4 01540         LAC     OPONST,4
      02006  1 00001 4 01542         TXI     OP0,4,1
      02007 -0500 00 0 07231  CCHZ   CAL     NZT1
      02010  0602 00 3 00015         SLW     BUF3+1,3
      02011 -0500 00 0 07217         CAL     TRA2
      02012  0602 00 3 00016         SLW     BUF3+2,3
      02013  0500 00 2 07543         CLA     BUF2-1,2
      02014 -0760 00 0 00003         SSM
      02015  0601 00 2 07543         STO     BUF2-1,2
      02016  1 77775 3 02004         TXI     CCH3,3,-3
      02017  0756 00 3 00000  CCHC   PCA     ,3
      02020  0361 00 0 07227         ACL     TXL2
      02021  0602 00 3 00015         SLW     BUF3+1,3
      02022 -0774 00 4 00012         AXC     10,4
      02023 -0754 00 4 00000         PXD     ,4
      02024  0361 00 0 07226         ACL     TXL1
1     FAP ASSEMBLY LISTING ... ... ...          FILE    0QED   FAP               06/22/70 1518.5 PAGE 15

      02025  0602 00 3 00016         SLW     BUF3+2,3
      02026 -0500 00 0 07221         CAL     TSX1
      02027  0602 00 3 00017         SLW     BUF3+3,3
      02030  1 77774 3 02004         TXI     CCH3,3,-4
      02031 -0774 00 1 00012  CCHL   AXC     10,1
      02032  0500 00 2 07543         CLA     BUF2-1,2
      02033 -0760 00 0 00003         SSM
      02034  0601 00 2 07543         STO     BUF2-1,2
      02035  0074 00 4 01771         TSX     CCH2,4
      02036 -0520 00 0 07263  START  NZT     SUBFLG
      02037  0020 00 4 00001         TRA     1,4
      02040  0636 00 4 02074         SCA     START2,4
      02041  0636 00 5 02065         SCA     START1,5
      02042 -0500 00 4 77777         CAL     -1,4
      02043  0602 00 5 00001         SLW     1,5
      02044 -0500 00 2 00001         CAL     1,2
      02045 -0737 00 4 00000         PDC     ,4
      02046 -3 00000 4 02056         TXL     START0,4,0
      02047 -0500 00 4 00001  START4 CAL     1,4
      02050 -0340 00 5 00001         LAS     1,5
      02051  0020 00 0 02053         TRA     *+2
      02052  0020 00 0 02071         TRA     START3
      02053 -0500 00 4 00000         CAL     0,4
      02054  0737 00 4 00000         PAC     ,4
      02055  3 00000 4 02047         TXH     START4,4,0
      02056 -0500 00 5 00000  START0 CAL     0,5
      02057  0737 00 5 00000         PAC     ,5
      02060  3 00000 5 02062         TXH     *+2,5,0
      02061  0074 00 4 00724         TSX     MORMEM,4
      02062 -0500 00 2 00001         CAL     1,2
      02063 -0737 00 4 00000         PDC     ,4
      02064  0756 00 4 00000         PCA     ,4
      02065 -0774 00 4 00000  START1 AXC     **,4
      02066  0602 00 4 00000         SLW     0,4
      02067 -0756 00 4 00000         PCD     ,4
      02070  0622 00 2 00001         STD     1,2
      02071 -0500 00 0 07626  START3 CAL     BUF2+50
      02072  0602 00 4 00002         SLW     2,4
      02073  0600 00 4 00003         STZ     3,4
      02074 -0774 00 4 00000  START2 AXC     **,4
      02075  0020 00 4 00001         TRA     1,4
      02076 -0520 00 0 07263  FINISH NZT     SUBFLG
      02077  0020 00 4 00004         TRA     4,4
      02100  0636 00 4 02117         SCA     FINIS3,4
      02101 -0500 00 4 00001         CAL     1,4
      02102  0602 00 0 07264         SLW     COPY
      02103 -0500 00 2 00001         CAL     1,2
      02104 -0737 00 4 00000         PDC     ,4
      02105 -3 00000 4 01256  FINIS1 TXL     TYPE0,4,0
      02106 -0500 00 4 00001         CAL     1,4
      02107 -0340 00 0 07264         LAS     COPY
      02110  0020 00 0 02112         TRA     *+2
      02111  0020 00 0 02115         TRA     FINIS2
      02112 -0500 00 4 00000         CAL     0,4
      02113  0737 00 4 00000         PAC     ,4
      02114  0020 00 0 02105         TRA     FINIS1
1     FAP ASSEMBLY LISTING ... ... ...          FILE    0QED   FAP               06/22/70 1518.5 PAGE 16

      02115 -0500 00 0 07626  FINIS2 CAL     BUF2+50
      02116  0602 00 4 00003         SLW     3,4
      02117 -0774 00 4 00000  FINIS3 AXC     **,4
      02120  0020 00 4 00004         TRA     4,4
      02121 -0520 00 0 07263  FAIL   NZT     SUBFLG
      02122  0020 00 2 00002         TRA     2,2
      02123 -0500 00 2 00001         CAL     1,2
      02124 -0737 00 4 00000         PDC     ,4
      02125 -3 00000 4 02136         TXL     FAIL1+1,4,0
      02126  0636 00 4 02135         SCA     FAIL1,4
      02127 -0500 00 4 00000         CAL     0,4
      02130  0100 00 0 02133         TZE     *+3
      02131  0737 00 4 00000         PAC     ,4
      02132  0020 00 0 02127         TRA     *-3
      02133  0756 00 5 00000         PCA     ,5
      02134  0602 00 4 00000         SLW     0,4
      02135 -0774 00 5 00000  FAIL1  AXC     **,5
      02136  0020 00 2 00002         TRA     2,2
      02137  0756 00 4 00000  NODE   PCA     ,4
      02140  0361 00 0 07223         ACL     TSX3
      02141 -0774 00 4 00000  NO1    AXC     **,4
      02142 -3 00000 4 02147         TXL     NO2,4,0
      02143 -0340 00 4 07542         LAS     BUF2-2,4
      02144  1 00002 4 02142         TXI     *-2,4,2
      02145  0020 00 0 02157         TRA     NO3
      02146  1 00002 4 02142         TXI     *-4,4,2
      02147  0535 00 4 02141  NO2    LAC     NO1,4
      02150  1 77776 4 02151         TXI     *+1,4,-2
      02151 -3 77716 4 01256         TXL     TYPE0,4,-50
      02152  0636 00 4 02141         SCA     NO1,4
      02153  0602 00 4 07542         SLW     BUF2-2,4
      02154 -0500 00 2 00001         CAL     1,2
      02155  0602 00 4 07543         SLW     BUF2-1,4
      02156  0020 00 2 00002         TRA     2,2
      02157 -0500 00 4 07543  NO3    CAL     BUF2-1,4
      02160 -0320 00 0 11403         ANA     =O77777
      02161  0602 00 0 07264         SLW     COPY
      02162 -0500 00 2 00001         CAL     1,2
      02163 -0320 00 0 11403         ANA     =O77777
      02164 -0340 00 0 07264         LAS     COPY
      02165  0020 00 0 02121         TRA     FAIL
      02166  0020 00 0 02121         TRA     FAIL
      02167 -0500 00 2 00001         CAL     1,2
      02170  0602 00 4 07543         SLW     BUF2-1,4
      02171  0020 00 2 00002         TRA     2,2
      02172  0636 00 4 02237  CNODE  SCA     CNO3,4
      02173  0756 00 4 00000         PCA     ,4
      02174  0361 00 0 07223         ACL     TSX3
      02175 -0774 00 4 00000  CNO1   AXC     **,4
      02176  1 77776 4 02177         TXI     *+1,4,-2
      02177 -3 77716 4 01256         TXL     TYPE0,4,-50
      02200  0636 00 4 02175         SCA     CNO1,4
      02201  0602 00 4 07625         SLW     BUF2+50-1,4
      02202 -0500 00 0 07220         CAL     TRA3
      02203  0602 00 4 07627         SLW     BUF2+50+1,4
      02204 -0500 00 2 00001         CAL     1,2
1     FAP ASSEMBLY LISTING ... ... ...          FILE    0QED   FAP               06/22/70 1518.5 PAGE 17

      02205  0602 00 4 07626         SLW     BUF2+50,4
      02206 -0520 00 0 07263         NZT     SUBFLG
      02207  0020 00 0 02237         TRA     CNO3
      02210 -0737 00 4 00000         PDC     ,4
      02211 -3 00000 4 02237         TXL     CNO3,4,0
      02212 -0756 00 5 00000         PCD     ,5
      02213  0622 00 2 00001         STD     1,2
      02214 -0500 00 4 00001  CNO4   CAL     1,4
      02215  0602 00 5 00001         SLW     1,5
      02216 -0500 00 4 00002         CAL     2,4
      02217  0602 00 5 00002         SLW     2,5
      02220 -0500 00 4 00003         CAL     3,4
      02221  0602 00 5 00003         SLW     3,5
      02222  0636 00 5 02232         SCA     CNO5,5
      02223 -0500 00 5 00000         CAL     0,5
      02224  0737 00 5 00000         PAC     ,5
      02225  3 00000 5 02231         TXH     *+4,5,0
      02226  0636 00 4 02230         SCA     *+2,4
      02227  0074 00 4 00724         TSX     MORMEM,4
      02230 -0774 00 4 00000         AXC     **,4
      02231  0756 00 5 00000         PCA     ,5
      02232  0602 00 0 00000  CNO5   SLW     **
      02233 -0500 00 4 00000         CAL     0,4
      02234  0737 00 4 00000         PAC     ,4
      02235  3 00000 4 02214         TXH     CNO4,4,0
      02236  0600 60 0 02232         STZ*    CNO5
      02237 -0774 00 4 00000  CNO3   AXC     **,4
      02240  0020 00 4 00002         TRA     2,4
      02241  0535 00 4 02141  XCHG   LAC     NO1,4
      02242 -0774 00 2 00000         AXC     00,2
      02243  0636 00 0 02141         SCA     NO1,0
      02244 -3 00000 4 02251         TXL     *+5,4,0
      02245  1 00002 4 02246         TXI     *+1,4,2
      02246  0443 00 4 07544         DLD     BUF2,4
      02247 -0603 00 2 07627         DST     BUF2+50+1,2
      02250  1 77776 2 02244         TXI     *-4,2,-2
      02251 -0500 00 0 07220         CAL     TRA3
      02252  0602 00 2 07627         SLW     BUF2+50+1,2
      02253  0636 00 2 02175         SCA     CNO1,2
      02254  0020 00 0 00000  XCH2   TRA     **
                                     INSERT  1QED
      02255  0 00000 0 00000  SIZ1
      02256  0 00000 0 00000  SIZ2
      02257  0600 00 0 07033  GETCHA STZ     VFLG
      02260  0520 00 0 07241         ZET     RECLEV
      02261  0020 00 0 02520         TRA     GETBUF
      02262  3 00000 7 02346         TXH     GC5+1,7,0
      02263 -0625 00 0 07236         STL     RFLG
      02264  0600 00 0 02255         STZ     SIZ1
      02265  0636 00 4 02345         SCA     GC5,4
      02266  0074 00 4 07322  GC0    TSX     RDFLXA,4
      02267  0 00144 0 07344         PZE     BUF1,,100
      02270  0560 00 0 07344         LDQ     BUF1
      02271 -0754 00 0 00000         ZAC
      02272 -0763 00 0 00006         LGL     6
      02273 -0340 00 0 11355         LAS     =O77
1     FAP ASSEMBLY LISTING ... ... ...          FILE    0QED   FAP               06/22/70 1518.5 PAGE 18

      02274  0020 00 0 02276         TRA     *+2
      02275  0020 00 0 06425         TRA     ICOM
      02276  0774 00 6 00000         AXT     00,6
      02277  0774 00 7 00000         AXT     00,7
      02300  2 00001 7 02304  GC1    TIX     *+4,7,1
      02301  0774 00 7 00003         AXT     3,7
      02302  0560 00 6 07344         LDQ     BUF1,6
      02303  1 77777 6 02304         TXI     *+1,6,-1
      02304 -0754 00 0 00000         ZAC
      02305 -0763 00 0 00014         LGL     12
      02306 -0320 00 0 11372         ANA     =O177
      02307  0737 00 1 00000         PAC     ,1
      02310 -0500 60 0 00010         CAL*    CNVTBL
      02311  0771 00 0 00020         ARS     16
      02312 -0320 00 0 11372         ANA     =O177
      02313  0534 00 1 02255         LXA     SIZ1,1
      02314  0602 00 1 10617         SLW     BUF6+299,1
      02315  1 00001 1 02316         TXI     *+1,1,1
      02316  3 00454 1 01256         TXH     TYPE0,1,300
      02317  0634 00 1 02255         SXA     SIZ1,1
      02320 -0340 00 0 11325         LAS     =O12
      02321  0020 00 0 02300         TRA     GC1
      02322  0020 00 0 02324         TRA     *+2
      02323  0020 00 0 02300         TRA     GC1
      02324  0074 00 4 00006         TSX     OUTESC,4
      02325  3 00000 0 10617         PAR     BUF6+299
      02326  3 00000 0 02255         PAR     SIZ1
      02327  3 00000 0 10617         PAR     BUF6+299
      02330  3 00000 0 02256         PAR     SIZ2
      02331  3 00000 0 11377         PAR     =300
      02332  0074 00 4 00003         TSX     CANON,4
      02333  3 00000 0 10617         PAR     BUF6+299
      02334  3 00000 0 02256         PAR     SIZ2
      02335  3 00000 0 11377         PAR     =300
      02336  0074 00 4 00007         TSX     EKEDIT,4
      02337  3 00000 0 10617         PAR     BUF6+299
      02340  3 00000 0 02256         PAR     SIZ2
      02341  3 00000 0 11377         PAR     =300
      02342  0600 00 0 07236         STZ     RFLG
      02343  0600 00 0 07274         STZ     CFLG
      02344  0774 00 7 00000         AXT     00,7
      02345 -0774 00 4 00000  GC5    AXC     **,4
      02346 -0500 00 7 10617         CAL     BUF6+299,7
      02347  1 00001 7 02350         TXI     *+1,7,1
      02350  0737 00 1 00000  GC4    PAC     ,1
      02351  0520 00 0 07025         ZET     CAPFLG
      02352 -3 77637 1 02422         TXL     GC10,1,-97
      02353  0520 00 0 07030  GC10R  ZET     TFLG
      02354  0020 00 0 02425         TRA     GC11
      02355  0520 00 0 07033         ZET     VFLG
      02356  0020 00 0 02402         TRA     GC12
      02357 -0340 00 0 11332         LAS     =O31
      02360  0020 00 0 02366         TRA     GC13
      02361  0020 00 0 02442         TRA     GC14
      02362 -0340 00 0 11331         LAS     =O30
      02363  0020 00 0 02371         TRA     GC15
1     FAP ASSEMBLY LISTING ... ... ...          FILE    0QED   FAP               06/22/70 1518.5 PAGE 19

      02364  0020 00 0 02444         TRA     GC16
      02365  0020 00 0 02371         TRA     GC15
      02366 -0340 00 0 11336  GC13   LAS     =O36
      02367  0020 00 0 02371         TRA     GC15
      02370  0020 00 0 02506         TRA     GC17
      02371 -0340 00 0 07253  GC15   LAS     V
      02372  0020 00 0 02374         TRA     *+2
      02373  0020 00 0 02442         TRA     GC14
      02374 -0340 00 0 07252         LAS     B
      02375  0020 00 0 02377         TRA     *+2
      02376  0020 00 0 02444         TRA     GC16
      02377 -0340 00 0 07260         LAS     R
      02400  0020 00 0 02402         TRA     *+2
      02401  0020 00 0 02506         TRA     GC17
      02402 -0340 00 0 11325  GC12   LAS     =O12
      02403  0020 00 0 02415         TRA     GC6
      02404  0520 00 0 07241         ZET     RECLEV
      02405  0020 00 0 02410         TRA     *+3
      02406  0774 00 7 00000         AXT     00,7
      02407  0020 00 4 00001         TRA     1,4
      02410 -0340 00 0 11324         LAS     =O11
      02411 -0625 00 0 07274         STL     CFLG
      02412  0020 00 4 00001         TRA     1,4
      02413 -0625 00 0 07274         STL     CFLG
      02414  0020 00 4 00001         TRA     1,4
      02415 -0340 00 0 11340  GC6    LAS     =O40
      02416 -0625 00 0 07274         STL     CFLG
      02417  0020 00 4 00001         TRA     1,4
      02420 -0625 00 0 07274         STL     CFLG
      02421  0020 00 4 00001         TRA     1,4
      02422 -3 77605 1 02353  GC10   TXL     GC10R,1,-123
      02423  0402 00 0 11340         SUB     =O40
      02424  1 00040 1 02353         TXI     GC10R,1,32
      02425 -0340 00 0 11325  GC11   LAS     =O12
      02426  0020 00 4 00001         TRA     1,4
      02427  0020 00 0 02431         TRA     *+2
      02430  0020 00 4 00001         TRA     1,4
      02431  0534 00 7 07030         LXA     TFLG,7
      02432  1 77777 7 02433         TXI     *+1,7,-1
      02433  0634 00 7 07241         SXA     RECLEV,7
      02434  0535 00 7 07245         LAC     IBASE,7
      02435  0600 00 7 00001         STZ     01,7
      02436  0534 00 6 07031         LXA     TFLG+1,6
      02437 -0534 00 7 07031         LXD     TFLG+1,7
      02440  0600 00 0 07030         STZ     TFLG
      02441  0020 00 0 02404         TRA     GC12+2
      02442 -0625 00 0 07033  GC14   STL     VFLG
      02443  0020 00 0 02260         TRA     GETCHA+1
      02444  0636 00 4 02503  GC16   SCA     GC8,4
      02445  0535 00 4 07242         LAC     BUFER,4
      02446 -0500 00 4 00003         CAL     03,4
      02447  0602 00 0 02505         SLW     GC81
      02450  0074 00 4 03057         TSX     GETBN,4
      02451  0074 00 4 03304         TSX     BOPEN,4
      02452 -0520 00 0 07241         NZT     RECLEV
      02453  0020 00 0 02474         TRA     GC16.2
1     FAP ASSEMBLY LISTING ... ... ...          FILE    0QED   FAP               06/22/70 1518.5 PAGE 20

      02454 -3 00001 7 02474         TXL     GC16.2,7,1
      02455  0522 00 7 07131         XEC     CAL+1,7
      02456  0522 00 7 07153         XEC     ARS+1,7
      02457 -0320 00 0 11372         ANA     =O177
      02460  0402 00 0 11325         SUB     =O12
      02461 -0100 00 0 02474         TNZ     GC16.2
      02462 -0534 00 4 02622         LXD     BC2+1,4
      02463  0636 00 4 02473         SCA     GC16.1,4
      02464  0500 00 0 02621         CLA     BC2
      02465  0402 00 0 02473         SUB     GC16.1
      02466 -0100 00 0 02474         TNZ     GC16.2
      02467  0520 00 0 07235         ZET     INTFLG
      02470  0020 00 0 02474         TRA     GC16.2
      02471  0074 00 4 02641         TSX     BC4,4
      02472  0020 00 0 02474         TRA     GC16.2
      02473 -0774 00 6 00000  GC16.1 AXC     **,6
      02474  0535 00 4 07251  GC16.2 LAC     ZER,4
      02475 -0500 00 4 00000         CAL     00,4
      02476  0601 00 0 02500         STO     *+2
      02477  0074 00 4 02527         TSX     SETBC,4
      02500  0 00000 0 00000         PZE     **,,**
      02501 -0500 00 0 02505         CAL     GC81
      02502  0074 00 4 03304         TSX     BOPEN,4
      02503 -0774 00 4 00000  GC8    AXC     **,4
      02504  0020 00 0 02257         TRA     GETCHA
      02505  0 00000 0 00000  GC81   PZE
      02506  0534 00 1 07241  GC17   LXA     RECLEV,1
      02507  1 00001 1 02510         TXI     *+1,1,1
      02510  0634 00 1 07030         SXA     TFLG,1
      02511  0634 00 6 07031         SXA     TFLG+1,6
      02512 -0634 00 7 07031         SXD     TFLG+1,7
      02513  0535 00 1 07245         LAC     IBASE,1
      02514 -0500 00 1 00001         CAL     01,1
      02515  0774 00 7 00000         AXT     00,7
      02516  0600 00 0 07241         STZ     RECLEV
      02517  0020 00 0 02257         TRA     GETCHA
      02520  0636 00 4 02522  GETBUF SCA     *+2,4
      02521  0074 00 4 02604         TSX     GETBC,4
      02522 -0774 00 4 00000         AXC     **,4
      02523 -0340 00 0 11321         LAS     =O3
      02524  0020 00 0 02350         TRA     GC4
      02525  0020 00 0 02257         TRA     GETCHA
      02526  0020 00 0 02350         TRA     GC4
      02527  0636 00 4 02567  SETBC  SCA     RE1,4
      02530  0535 00 4 07244         LAC     INPUT,4
      02531  0756 00 6 00000         PCA     ,6
      02532  0602 00 4 00001         SLW     01,4
      02533 -0756 00 7 00000         PCD     ,7
      02534  0622 00 4 00001         STD     01,4
      02535 -0500 00 0 11405         CAL     =O200000
      02536  0520 00 0 07034         ZET     EFLG
      02537  0625 00 4 00001         STT     01,4
      02540 -0500 00 0 02621         CAL     BC2
      02541  0602 00 4 00002         SLW     02,4
      02542 -0500 00 0 02622         CAL     BC2+1
      02543  0622 00 4 00003         STD     03,4
1     FAP ASSEMBLY LISTING ... ... ...          FILE    0QED   FAP               06/22/70 1518.5 PAGE 21

      02544 -0500 00 0 02623         CAL     BC2+2
      02545  0771 00 0 00022         ARS     18
      02546  0621 00 4 00003         STA     03,4
      02547  0756 00 5 00000         PCA     ,5
      02550  0621 00 4 00000         STA     00,4
      02551  0621 00 0 07244         STA     INPUT
      02552 -0756 00 4 00000         PCD     ,4
      02553  0622 00 5 00000         STD     00,5
      02554 -0500 00 5 00000         CAL     00,5
      02555  0737 00 5 00000         PAC     ,5
      02556  3 00000 5 02560         TXH     *+2,5,0
      02557  0074 00 4 00724         TSX     MORMEM,4
      02560  0534 00 4 07241         LXA     RECLEV,4
      02561  1 00001 4 02562         TXI     *+1,4,1
      02562 -3 00764 4 02566         TXL     RE1-1,4,500
      02563  1 00012 4 02564         TXI     *+1,4,10
      02564 -0634 00 4 02562         SXD     *-2,4
      02565  0020 00 0 01310         TRA     TYPE7
      02566  0634 00 4 07241         SXA     RECLEV,4
      02567 -0774 00 4 00000  RE1    AXC     **,4
      02570 -0500 00 4 00001         CAL     1,4
      02571  0737 00 6 00000         PAC     ,6
      02572 -0737 00 7 00000         PDC     ,7
      02573  0636 00 6 02621         SCA     BC2,6
      02574 -0500 00 6 00001         CAL     01,6
      02575  0737 00 6 00000         PAC     ,6
      02576 -0634 00 7 02622         SXD     BC2+1,7
      02577  1 77777 7 02600         TXI     *+1,7,-1
      02600 -0634 00 7 02623         SXD     BC2+2,7
      02601  0774 00 7 00023         AXT     19,7
      02602  0600 00 0 07034         STZ     EFLG
      02603  0020 00 4 00002         TRA     2,4
      02604  0520 00 0 07034  GETBC  ZET     EFLG
      02605  0020 00 0 02641         TRA     BC4
      02606  2 00001 7 02612         TIX     BC1,7,1
      02607 -0500 00 6 00000         CAL     00,6
      02610  0737 00 6 00000         PAC     ,6
      02611  0774 00 7 00022         AXT     18,7
      02612  0522 00 7 07130  BC1    XEC     CAL,7
      02613  0522 00 7 07152         XEC     ARS,7
      02614 -0320 00 0 11372         ANA     =O177
      02615 -0340 00 0 11325         LAS     =O12
      02616  0020 00 4 00001         TRA     1,4
      02617  0020 00 0 02621         TRA     BC2
      02620  0020 00 4 00001         TRA     1,4
      02621 -0774 00 6 00000  BC2    AXC     **,6
      02622  3 00000 6 02624         TXH     *+2,6,**
      02623  3 00000 6 02634         TXH     BC3,6,**
      02624 -0500 00 6 00000         CAL     00,6
      02625  0737 00 6 00000         PAC     ,6
      02626  0636 00 6 02621         SCA     BC2,6
      02627 -0500 00 6 00001         CAL     01,6
      02630  0737 00 6 00000         PAC     ,6
      02631  0774 00 7 00023         AXT     19,7
      02632 -0500 00 0 11325         CAL     =O12
      02633  0020 00 4 00001         TRA     1,4
1     FAP ASSEMBLY LISTING ... ... ...          FILE    0QED   FAP               06/22/70 1518.5 PAGE 22

      02634 -0625 00 0 07034  BC3    STL     EFLG
      02635 -0500 00 6 00000         CAL     00,6
      02636  0621 00 0 02621         STA     BC2
      02637 -0500 00 0 11325         CAL     =O12
      02640  0020 00 4 00001         TRA     1,4
      02641  0600 00 0 07034  BC4    STZ     EFLG
      02642  0534 00 6 07241         LXA     RECLEV,6
      02643  1 77777 6 02644         TXI     *+1,6,-1
      02644  0634 00 6 07241         SXA     RECLEV,6
      02645  0535 00 6 07244         LAC     INPUT,6
      02646  0756 00 5 00000         PCA     ,5
      02647  0621 00 6 00000         STA     00,6
      02650  0535 00 5 07244         LAC     INPUT,5
      02651 -0500 00 6 00000         CAL     00,6
      02652 -0737 00 6 00000         PDC     ,6
      02653  0636 00 6 07244         SCA     INPUT,6
      02654 -0500 00 6 00003         CAL     03,6
      02655  0622 00 0 02622         STD     BC2+1
      02656  0767 00 0 00022         ALS     18
      02657  0622 00 0 02623         STD     BC2+2
      02660 -0500 00 6 00002         CAL     02,6
      02661  0602 00 0 02621         SLW     BC2
      02662 -0500 00 6 00001         CAL     01,6
      02663 -0737 00 7 00000         PDC     ,7
      02664  0737 00 6 00000         PAC     ,6
      02665  0625 00 0 07034         STT     EFLG
      02666 -0500 00 0 11321         CAL     =O3
      02667  0020 00 4 00001         TRA     1,4
      02670  0636 00 4 02733  SETFC  SCA     FC1,4
      02671  0074 00 4 03106         TSX     GETFN,4
      02672  0636 00 6 02766         SCA     GF4+1,6
      02673  0636 00 7 02767         SCA     GF4+2,7
      02674 -0500 00 2 07055         CAL     OCT3,2
      02675  0602 00 0 07055         SLW     OCT3
      02676 -0500 00 2 07065         CAL     SHFT,2
      02677  0621 00 0 02740         STA     GETFC+1
      02700  0771 00 0 00022         ARS     18
      02701  0621 00 0 02760         STA     GF2+1
      02702 -0500 00 2 07071         CAL     RETRN,2
      02703  0621 00 0 02762         STA     GF3
      02704 -0625 00 0 07033         STL     VFLG
      02705  0074 00 4 07325         TSX     OPEN,4
      02706  3 00000 0 11450         PAR     =HR
      02707  3 00000 0 07337         PAR     FILNAM
      02710  3 00000 0 07340         PAR     FILNAM+1
      02711  3 00000 0 11442         PAR     =O400000000000
      02712  3 00000 0 11442         PAR     =O400000000000
      02713  3 00000 0 01314         PAR     TYPE8
      02714  3 00000 0 07264         PAR     COPY
      02715 -0625 00 0 07300         STL     FILFLG
      02716  0074 00 4 07326         TSX     BUFFER,4
      02717  3 00000 0 07337         PAR     FILNAM
      02720  3 00000 0 07340         PAR     FILNAM+1
      02721  3 00660 0 00014         PAR     BUF3,,432
      02722  0600 00 0 07240         STZ     CPLFLG
      02723  3 77775 2 02733         TXH     FC1,2,-3
1     FAP ASSEMBLY LISTING ... ... ...          FILE    0QED   FAP               06/22/70 1518.5 PAGE 23

      02724  0074 00 4 07327         TSX     RDWAIT,4
      02725  3 00000 0 07337         PAR     FILNAM
      02726  3 00000 0 07340         PAR     FILNAM+1
      02727  3 00000 0 11316         PAR     =0
      02730  3 00001 0 07544         PAR     BUF2,,1
      02731  3 00000 0 02733         PAR     FC1
      02732  3 00000 0 07264         PAR     COPY
      02733 -0774 00 4 00000  FC1    AXC     **,4
      02734  0774 00 6 00001         AXT     1,6
      02735  0774 00 7 00001         AXT     1,7
      02736  0020 00 4 00001         TRA     1,4
      02737  2 00001 7 02757  GETFC  TIX     GF2,7,1
      02740  0774 00 7 00000         AXT     **,7
      02741  2 00001 6 02754         TIX     GF1+1,6,1
      02742  0774 00 6 00144         AXT     100,6
      02743  0636 00 4 02753         SCA     GF1,4
      02744  0074 00 4 07327         TSX     RDWAIT,4
      02745  3 00000 0 07337         PAR     FILNAM
      02746  3 00000 0 07340         PAR     FILNAM+1
      02747  3 00000 0 11316         PAR     =0
      02750  3 00144 0 07544         PAR     BUF2,,100
      02751  3 00000 0 03003         PAR     GF5
      02752  3 00000 0 07264         PAR     COPY
      02753 -0774 00 4 00000  GF1    AXC     **,4
      02754  0560 00 6 07710         LDQ     BUF2+100,6
      02755 -0754 00 0 00000         ZAC
      02756  0020 00 0 02760         TRA     GF2+1
      02757  0443 00 0 11314  GF2    DLD     SYLBUF+2
      02760 -0763 00 0 00000         LGL     **
      02761 -0600 00 0 11315         STQ     SYLBUF+3
      02762  0020 00 0 00000  GF3    TRA     **
      02763  0636 00 4 02765         SCA     GF4,4
      02764  0074 00 4 02772         TSX     CLOS,4
      02765 -0774 00 4 00000  GF4    AXC     **,4
      02766 -0774 00 6 00000         AXC     **,6
      02767 -0774 00 7 00000         AXC     **,7
      02770 -0500 00 0 11321         CAL     =O3
      02771  0020 00 4 00001         TRA     1,4
      02772  0636 00 4 03001  CLOS   SCA     CLO1,4
      02773  0074 00 4 07324         TSX     CLOSE,4
      02774  3 00000 0 07337         PAR     FILNAM
      02775  3 00000 0 07340         PAR     FILNAM+1
      02776  3 00000 0 03000         PAR     *+2
      02777  3 00000 0 07264         PAR     COPY
      03000  0600 00 0 07300         STZ     FILFLG
      03001 -0774 00 4 00000  CLO1   AXC     **,4
      03002  0020 00 4 00001         TRA     1,4
      03003  0535 00 4 07264  GF5    LAC     COPY,4
      03004 -0500 00 0 07055         CAL     OCT3
      03005  0602 00 4 07544         SLW     BUF2,4
      03006 -0500 00 0 11476         CAL     =O777777777777
      03007  0602 00 4 07545         SLW     BUF2+1,4
      03010  0020 00 0 02753         TRA     GF1
      03011 -0320 00 0 11372  GFGE   ANA     =O177
      03012  0100 00 0 02737         TZE     GETFC
      03013 -0340 00 0 11372         LAS     =O177
1     FAP ASSEMBLY LISTING ... ... ...          FILE    0QED   FAP               06/22/70 1518.5 PAGE 24

      03014  0020 00 0 03016         TRA     *+2
      03015  0020 00 0 02737         TRA     GETFC
      03016 -0340 00 0 11326         LAS     =O15
      03017  0020 00 0 03044         TRA     GF8
      03020 -0500 00 0 11325         CAL     =O12
      03021  0020 00 0 03044         TRA     GF8
      03022 -0320 00 0 11372  GFASCI ANA     =O177
      03023  0020 00 0 03044         TRA     GF8
      03024  0737 00 1 00000  GFSIX  PAC     ,1
      03025  3 77701 1 03027         TXH     *+2,1,-63
      03026  3 77700 1 03050         TXH     GF7,1,-64
      03027 -0500 60 0 00010         CAL*    CNVTBL
      03030  0771 00 0 00020         ARS     16
      03031  0020 00 0 03040         TRA     GF6
      03032 -0320 00 0 11372  GFTWLV ANA     =O177
      03033  0737 00 1 00000         PAC     ,1
      03034  3 77601 1 03036         TXH     *+2,1,-127
      03035  3 77600 1 03050         TXH     GF7,1,-128
      03036 -0500 60 0 00010         CAL*    CNVTBL
      03037  0771 00 0 00020         ARS     16
      03040 -0320 00 0 11372  GF6    ANA     =O177
      03041 -0340 00 0 11372         LAS     =O177
      03042  0020 00 0 03043         TRA     *+1
      03043  0020 00 0 02737         TRA     GETFC
      03044 -0340 00 0 11321  GF8    LAS     =O3
      03045  0020 00 4 00001         TRA     1,4
      03046  0020 00 0 02763         TRA     GF3+1
      03047  0020 00 4 00001         TRA     1,4
      03050  0774 00 7 00001  GF7    AXT     1,7
      03051 -0500 00 6 07710         CAL     BUF2+100,6
      03052 -0340 00 0 11476         LAS     =O777777777777
      03053  0020 00 0 03055         TRA     *+2
      03054  0020 00 0 02763         TRA     GF3+1
      03055 -0500 00 0 11325         CAL     =O12
      03056  0020 00 4 00001         TRA     1,4
      03057  0636 00 4 03103  GETBN  SCA     BN7,4
      03060  0074 00 4 02257         TSX     GETCHA,4
      03061  0520 00 0 07033         ZET     VFLG
      03062  0020 00 0 03103         TRA     BN7
      03063 -3 77727 1 03103         TXL     BN7,1,-41
      03064  3 77730 1 03103         TXH     BN7,1,-40
      03065  0600 00 0 03105         STZ     BN6
      03066  0074 00 4 02257  BN1    TSX     GETCHA,4
      03067  0520 00 0 07033         ZET     VFLG
      03070  0020 00 0 03075         TRA     BN2
      03071 -3 77726 1 03075         TXL     BN2,1,-42
      03072 -3 77727 1 03102         TXL     BN3,1,-41
      03073 -3 77765 1 03075         TXL     BN2,1,-11
      03074 -3 77766 1 01320         TXL     TYPE9,1,-10
      03075 -0765 00 0 00007  BN2    LGR     7
      03076 -0500 00 0 03105         CAL     BN6
      03077 -0763 00 0 00007         LGL     7
      03100  0602 00 0 03105         SLW     BN6
      03101  0020 00 0 03066         TRA     BN1
      03102 -0500 00 0 03105  BN3    CAL     BN6
      03103 -0774 00 4 00000  BN7    AXC     **,4
1     FAP ASSEMBLY LISTING ... ... ...          FILE    0QED   FAP               06/22/70 1518.5 PAGE 25

      03104  0020 00 4 00001         TRA     1,4
      03105  0 00000 0 00000  BN6    PZE
      03106  0636 00 4 03175  GETFN  SCA     FN7,4
      03107  0520 00 0 07300         ZET     FILFLG
      03110  0074 00 4 02772         TSX     CLOS,4
      03111  0600 00 0 07265         STZ     AFLG
      03112  0600 00 0 07266         STZ     BFLG
      03113  0074 00 4 02257         TSX     GETCHA,4
      03114  0774 00 4 00020         AXT     16,4
      03115 -0340 00 4 07055         LAS     TYCHA+16,4
      03116  0020 00 0 03120         TRA     *+2
      03117  0020 00 0 03122         TRA     *+3
      03120  2 00002 4 03115         TIX     *-3,4,2
      03121  0020 00 0 01320         TRA     TYPE9
      03122 -0500 00 4 07056         CAL     TYCHA+17,4
      03123  0737 00 2 00000         PAC     ,2
      03124 -0500 00 2 07101  FN3    CAL     FNASUM,2
      03125  0602 00 0 07337         SLW     FILNAM
      03126  0602 00 0 07340         SLW     FILNAM+1
      03127 -0340 00 0 11452         LAS     =H   FAP
      03130  0020 00 0 03135         TRA     FN4-1
      03131  0020 00 0 03133         TRA     *+2
      03132  0020 00 0 03135         TRA     FN4-1
      03133 -0625 00 0 07025         STL     CAPFLG
      03134  0020 00 0 03136         TRA     FN4
      03135  0600 00 0 07025         STZ     CAPFLG
      03136  0074 00 4 02257  FN4    TSX     GETCHA,4
      03137 -3 77737 1 03143         TXL     FN5-1,1,-33
      03140 -3 77740 1 03136         TXL     FN4,1,-32
      03141 -3 77765 1 03143         TXL     FN5-1,1,-11
      03142 -3 77766 1 03175         TXL     FN7,1,-10
      03143  0441 00 0 11454         LDI     =H
      03144 -0500 60 0 00010  FN5    CAL*    CNVTBL
      03145 -0765 00 0 00016         LGR     14
      03146 -0046 00 0 00000         PIA
      03147 -0763 00 0 00006         LGL     6
      03150  0044 00 0 00000         PAI
      03151  0074 00 4 02257         TSX     GETCHA,4
      03152 -3 77737 1 03144         TXL     FN5,1,-33
      03153 -3 77740 1 03157         TXL     FN6,1,-32
      03154 -3 77765 1 03144         TXL     FN5,1,-11
      03155 -3 77766 1 03157         TXL     FN6,1,-10
      03156  0020 00 0 03144         TRA     FN5
      03157 -0520 00 0 07266  FN6    NZT     BFLG
      03160  0020 00 0 03165         TRA     *+5
      03161 -0500 00 0 07340         CAL     FILNAM+1
      03162  0602 00 0 07337         SLW     FILNAM
      03163  0604 00 0 07340         STI     FILNAM+1
      03164  0020 00 0 03137         TRA     FN4+1
      03165  0520 00 0 07265         ZET     AFLG
      03166  0020 00 0 03172         TRA     *+4
      03167  0604 00 0 07337         STI     FILNAM
      03170 -0625 00 0 07265         STL     AFLG
      03171  0020 00 0 03137         TRA     FN4+1
      03172  0604 00 0 07340         STI     FILNAM+1
      03173 -0625 00 0 07266         STL     BFLG
1     FAP ASSEMBLY LISTING ... ... ...          FILE    0QED   FAP               06/22/70 1518.5 PAGE 26

      03174  0020 00 0 03137         TRA     FN4+1
      03175 -0774 00 4 00000  FN7    AXC     **,4
      03176  0020 00 4 00001         TRA     1,4
      03177  0636 00 4 03276  INSERT SCA     PU5,4
      03200 -0500 00 4 00001         CAL     1,4
      03201  0621 00 0 03265         STA     PU4
      03202  0522 00 0 03265  PU1    XEC     PU4
      03203  0737 00 1 00000         PAC     ,1
      03204  0520 00 0 07235         ZET     INTFLG
      03205  0020 00 0 01274         TRA     TYPE4
      03206  0520 00 0 07033         ZET     VFLG
      03207  0020 00 0 03215         TRA     PU7
      03210 -0340 00 0 07254         LAS     E
      03211  0020 00 0 03213         TRA     *+2
      03212  0020 00 0 03276         TRA     PU5
      03213 -3 77743 1 03217         TXL     *+4,1,-29
      03214 -3 77744 1 03276         TXL     PU5,1,-28
      03215 -3 77774 1 03217  PU7    TXL     *+2,1,-4
      03216 -3 77775 1 03276         TXL     PU5,1,-3
      03217  0535 00 4 07247         LAC     ADDR2,4
      03220 -0500 00 4 00000         CAL     00,4
      03221 -0737 00 2 00000         PDC     ,2
      03222  0622 00 5 00000         STD     00,5
      03223  0756 00 5 00000         PCA     ,5
      03224  0630 00 5 00000         STP     00,5
      03225  0621 00 2 00000         STA     00,2
      03226  0737 00 2 00000         PAC     ,2
      03227 -0756 00 2 00000         PCD     ,2
      03230  0622 00 4 00000         STD     00,4
      03231 -0500 00 5 00000         CAL     00,5
      03232  0737 00 5 00000         PAC     ,5
      03233  0756 00 4 00000         PCA     ,4
      03234  0621 00 2 00000         STA     00,2
      03235  0600 00 2 00003         STZ     03,2
      03236  0636 00 2 07024         SCA     DOT,2
      03237  3 00000 5 03241         TXH     *+2,5,0
      03240  0074 00 4 00724         TSX     MORMEM,4
      03241  0756 00 5 00000         PCA     ,5
      03242  0601 00 2 00001         STO     01,2
      03243  0737 00 2 00000  PU2    PAC     ,2
      03244  0500 00 5 00000         CLA     00,5
      03245  0737 00 5 00000         PAC     ,5
      03246  3 00000 5 03250         TXH     *+2,5,0
      03247  0074 00 4 00724         TSX     MORMEM,4
      03250  0600 00 2 00000         STZ     00,2
      03251  0600 00 2 00001         STZ     01,2
      03252  0600 00 2 00002         STZ     02,2
      03253  0600 00 2 00003         STZ     03,2
      03254  0774 00 3 00022         AXT     18,3
      03255  0756 00 1 00000         PCA     ,1
      03256 -0340 00 0 11321  PU3    LAS     =O3
      03257  0020 00 0 03261         TRA     *+2
      03260  0020 00 0 03273         TRA     PU8
      03261  0522 00 3 07174         XEC     ALS,3
      03262  0522 00 3 07216         XEC     ORS,3
      03263 -3 77765 1 03265         TXL     *+2,1,-11
1     FAP ASSEMBLY LISTING ... ... ...          FILE    0QED   FAP               06/22/70 1518.5 PAGE 27

      03264 -3 77766 1 03300         TXL     PU6,1,-10 (O12)
      03265  0074 00 4 00000  PU4    TSX     **,4
      03266  0737 00 1 00000         PAC     ,1
      03267  2 00001 3 03256         TIX     PU3,3,1
      03270  0756 00 5 00000         PCA     ,5
      03271  0621 00 2 00000         STA     00,2
      03272  0020 00 0 03243         TRA     PU2
      03273 -0500 00 0 11325  PU8    CAL     =O12
      03274  0522 00 3 07174         XEC     ALS,3
      03275  0522 00 3 07216         XEC     ORS,3
      03276 -0774 00 4 00000  PU5    AXC     **,4
      03277  0020 00 4 00002         TRA     2,4
      03300  0535 00 4 07024  PU6    LAC     DOT,4
      03301 -0756 00 2 00000         PCD     ,2
      03302  0622 00 4 00001         STD     01,4
      03303  0020 00 0 03202         TRA     PU1
      03304  0636 00 4 03376  BOPEN  SCA     BO4,4
      03305  0602 00 0 03400         SLW     BO5
      03306  0535 00 4 07242         LAC     BUFER,4
      03307 -0500 00 0 07024         CAL     DOT
      03310  0767 00 0 00022         ALS     18
      03311 -0501 00 0 07251         ORA     ZER
      03312  0602 00 4 00001         SLW     01,4
      03313  0535 00 4 07243         LAC     BBASE,4
      03314 -3 00000 4 03323  BO1    TXL     BO2,4,0
      03315  0500 00 0 03400         CLA     BO5
      03316  0402 00 4 00003         SUB     03,4
      03317  0100 00 0 03371         TZE     BO3
      03320 -0500 00 4 00000         CAL     00,4
      03321  0737 00 4 00000         PAC     ,4
      03322  0020 00 0 03314         TRA     BO1
      03323  0636 00 5 07242  BO2    SCA     BUFER,5
      03324 -0500 00 5 00000         CAL     00,5
      03325  0737 00 5 00000         PAC     ,5
      03326  3 00000 5 03330         TXH     *+2,5,0
      03327  0074 00 4 00724         TSX     MORMEM,4
      03330  0636 00 5 07251         SCA     ZER,5
      03331 -0500 00 5 00000         CAL     00,5
      03332  0737 00 5 00000         PAC     ,5
      03333  3 00000 5 03335         TXH     *+2,5,0
      03334  0074 00 4 00724         TSX     MORMEM,4
      03335  0535 00 4 07242         LAC     BUFER,4
      03336  0600 00 4 00001         STZ     01,4
      03337  0600 00 4 00002         STZ     02,4
      03340 -0500 00 0 03400         CAL     BO5
      03341  0602 00 4 00003         SLW     03,4
      03342 -0500 00 0 07243         CAL     BBASE
      03343  0602 00 4 00000         SLW     00,4
      03344  0636 00 4 07243         SCA     BBASE,4
      03345  0535 00 4 07251         LAC     ZER,4
      03346  0636 00 4 07024         SCA     DOT,4
      03347  0756 00 4 00000         PCA     ,4
      03350 -0760 00 0 00003         SSM
      03351  0601 00 4 00000         STO     00,4
      03352 -0756 00 4 00000         PCD     ,4
      03353  0622 00 4 00000         STD     00,4
1     FAP ASSEMBLY LISTING ... ... ...          FILE    0QED   FAP               06/22/70 1518.5 PAGE 28

      03354  0756 00 5 00000         PCA     ,5
      03355  0621 00 4 00001         STA     01,4
      03356 -0756 00 5 00000         PCD     ,5
      03357  0622 00 4 00001         STD     01,4
      03360 -0737 00 1 00000         PDC     ,1
      03361 -0500 00 5 00000         CAL     00,5
      03362  0737 00 5 00000         PAC     ,5
      03363  3 00000 5 03365         TXH     *+2,5,0
      03364  0074 00 4 00724         TSX     MORMEM,4
      03365  0600 00 1 00000         STZ     00,1
      03366 -0500 00 0 11424         CAL     =O024000000000
      03367  0602 00 1 00001         SLW     01,1
      03370  0020 00 0 03376         TRA     BO4
      03371 -0500 00 4 00001  BO3    CAL     01,4
      03372  0621 00 0 07251         STA     ZER
      03373  0771 00 0 00022         ARS     18
      03374  0621 00 0 07024         STA     DOT
      03375  0636 00 4 07242         SCA     BUFER,4
      03376 -0774 00 4 00000  BO4    AXC     **,4
      03377  0020 00 4 00001         TRA     1,4
      03400  0 00000 0 00000  BO5    PZE
      03401 -0500 00 0 07024  SETDD  CAL     DOT
      03402  0602 00 0 07246         SLW     ADDR1
      03403  0602 00 0 07247         SLW     ADDR2
      03404 -0625 00 0 07265         STL     AFLG
      03405  0020 00 4 00001         TRA     1,4
      03406  0535 00 1 07251  SETFL  LAC     ZER,1
      03407 -0500 00 1 00000         CAL     00,1
      03410 -0737 00 1 00000         PDC     ,1
      03411  0636 00 1 07247         SCA     ADDR2,1
      03412  0621 00 0 07246         STA     ADDR1
      03413 -0625 00 0 07265         STL     AFLG
      03414  0020 00 4 00001         TRA     1,4
      03415  0535 00 1 07246  CKWRAP LAC     ADDR1,1
      03416  0535 00 2 07247         LAC     ADDR2,2
      03417  0500 00 1 00000  CK1    CLA     00,1
      03420 -0120 00 0 01304         TMI     TYPE6
      03421  0737 00 1 00000         PAC     ,1
      03422  0402 00 2 00000         SUB     00,2
      03423 -0100 00 0 03417         TNZ     CK1
      03424  0020 00 4 00001         TRA     1,4
      03425  0636 00 4 03463  DELETE SCA     DEL3,4
      03426 -0520 00 0 07265         NZT     AFLG
      03427  0074 00 4 03401         TSX     SETDD,4
      03430  0074 00 4 03415         TSX     CKWRAP,4
      03431  0535 00 4 07246         LAC     ADDR1,4
      03432 -0500 00 4 00000         CAL     00,4
      03433 -0737 00 1 00000         PDC     ,1
      03434  0535 00 2 07247         LAC     ADDR2,2
      03435 -0500 00 2 00000         CAL     00,2
      03436  0737 00 2 00000         PAC     ,2
      03437  0621 00 1 00000         STA     00,1
      03440 -0756 00 1 00000         PCD     ,1
      03441  0622 00 2 00000         STD     00,2
      03442  0636 00 2 07024         SCA     DOT,2
      03443  0535 00 1 07246         LAC     ADDR1,1
1     FAP ASSEMBLY LISTING ... ... ...          FILE    0QED   FAP               06/22/70 1518.5 PAGE 29

      03444 -0500 00 1 00000  DEL1   CAL     00,1
      03445  0737 00 2 00000         PAC     ,2
      03446 -0500 00 1 00001         CAL     01,1
      03447  0621 00 1 00000         STA     00,1
      03450 -0737 00 1 00000         PDC     ,1
      03451  0756 00 2 00000         PCA     ,2
      03452  0340 00 0 07024         CAS     DOT
      03453  0020 00 0 03455         TRA     *+2
      03454  0020 00 0 03460         TRA     DEL2
      03455  0621 00 1 00000         STA     00,1
      03456  0737 00 1 00000         PAC     ,1
      03457  0020 00 0 03444         TRA     DEL1
      03460  0756 00 5 00000  DEL2   PCA     ,5
      03461  0621 00 1 00000         STA     00,1
      03462  0535 00 5 07246         LAC     ADDR1,5
      03463 -0774 00 4 00000  DEL3   AXC     **,4
      03464  0020 00 4 00001         TRA     1,4
      03465  0520 00 0 07265  COP1   ZET     AFLG
      03466  0020 00 0 03477         TRA     COP2
      03467  0074 00 4 02257         TSX     GETCHA,4
      03470 -0340 00 0 11325         LAS     =O12
      03471  0020 00 0 03473         TRA     *+2
      03472  0020 00 0 03477         TRA     COP2
      03473 -0340 00 0 11340         LAS     =O40
      03474  0020 00 2 00001         TRA     1,2
      03475 -0500 00 0 11373         CAL     =O200
      03476  0020 00 2 00001         TRA     1,2
      03477 -0625 00 0 07265  COP2   STL     AFLG
      03500 -0500 00 0 11373         CAL     =O200
      03501  0020 00 2 00001         TRA     1,2
      03502  0636 00 4 03601  PRINT  SCA     PR6,4
      03503 -0500 00 4 00001         CAL     1,4
      03504  0621 00 0 03513         STA     PR7
      03505 -0774 00 3 00000         AXC     00,3
      03506  0774 00 4 00030         AXT     24,4
      03507  0634 00 4 03545         SXA     PR3,4
      03510  0600 00 0 07344         STZ     BUF1
      03511 -0625 00 0 07236         STL     RFLG
      03512  0774 00 2 00000         AXT     00,2
      03513  0074 00 4 00000  PR7    TSX     **,4
      03514 -0340 00 0 11321         LAS     =O3
      03515  0020 00 0 03517         TRA     *+2
      03516  0020 00 0 03565         TRA     PR9
      03517  0602 00 2 11275         SLW     BUF7+299,2
      03520  3 00454 2 01256         TXH     TYPE0,2,300
      03521 -0340 00 0 11325         LAS     =O12
      03522  1 00001 2 03513         TXI     PR7,2,1
      03523  1 00001 2 03525         TXI     *+2,2,1
      03524  1 00001 2 03513         TXI     PR7,2,1
      03525  0634 00 2 02255         SXA     SIZ1,2
      03526  0074 00 4 00005         TSX     INESC,4
      03527  3 00000 0 11275         PAR     BUF7+299
      03530  3 00000 0 02255         PAR     SIZ1
      03531  3 00000 0 11275         PAR     BUF7+299
      03532  3 00000 0 02256         PAR     SIZ2
      03533  3 00000 0 11377         PAR     =300
1     FAP ASSEMBLY LISTING ... ... ...          FILE    0QED   FAP               06/22/70 1518.5 PAGE 30

      03534  0774 00 2 00000         AXT     00,2
      03535 -0500 00 2 11275  PR2    CAL     BUF7+299,2
      03536  0737 00 1 00000         PAC     ,1
      03537 -0500 60 0 00010         CAL*    CNVTBL
      03540 -0320 00 0 11372         ANA     =O177
      03541 -0340 00 0 11372         LAS     =O177
      03542  1 00001 2 03545         TXI     *+3,2,1
      03543  1 00001 2 03535         TXI     PR2,2,1
      03544  1 00001 2 03545         TXI     *+1,2,1
      03545  0767 00 0 00000  PR3    ALS     **
      03546 -0602 00 3 07344         ORS     BUF1,3
      03547  0534 00 4 03545         LXA     PR3,4
      03550  1 77764 4 03551         TXI     *+1,4,-12
      03551 -3 77754 4 03561         TXL     PR5,4,-20
      03552  1 77777 3 03553         TXI     *+1,3,-1
      03553  3 77747 3 03557         TXH     PR4,3,-25
      03554  0074 00 4 07333         TSX     WRFLXA,4
      03555  0 00031 0 07344         PZE     BUF1,,25
      03556 -0774 00 3 00000         AXC     00,3
      03557  0600 00 3 07344  PR4    STZ     BUF1,3
      03560  0774 00 4 00030         AXT     24,4
      03561  0634 00 4 03545  PR5    SXA     PR3,4
      03562 -3 77765 1 03535         TXL     PR2,1,-11
      03563  3 77766 1 03535         TXH     PR2,1,-10
      03564  0020 00 0 03512         TRA     PR7-1
      03565  0535 00 4 03545  PR9    LAC     PR3,4
      03566 -0500 00 0 11350         CAL     =O57
      03567  0767 00 4 00000         ALS     00,4
      03570 -0602 00 3 07344         ORS     BUF1,3
      03571 -0340 00 0 11350         LAS     =O57
      03572  1 00014 4 03566         TXI     PR9+1,4,12
      03573  0020 00 0 03575         TRA     *+2
      03574  1 00014 4 03566         TXI     PR9+1,4,12
      03575  1 77777 3 03576         TXI     *+1,3,-1
      03576 -0636 00 3 03600         SCD     *+2,3
      03577  0074 00 4 07333         TSX     WRFLXA,4
      03600  0 00000 0 07344         PZE     BUF1,,**
      03601 -0774 00 4 00000  PR6    AXC     **,4
      03602  0600 00 0 07236         STZ     RFLG
      03603  0020 00 4 00002         TRA     2,4
      03604  0636 00 4 03752  SUB    SCA     SUB4,4
      03605  0535 00 4 02621         LAC     BC2,4
      03606 -0500 00 4 00000         CAL     00,4
      03607 -0737 00 4 00000         PDC     ,4
      03610 -0500 00 4 00000         CAL     00,4
      03611 -0737 00 4 00000         PDC     ,4
      03612  0636 00 4 03705         SCA     S5,4
      03613  0600 00 0 07544  SUBP1  STZ     BUF2
      03614  0600 00 0 07545         STZ     BUF2+1
      03615  0535 00 4 07237         LAC     JFLG,4
      03616 -3 00000 4 03752         TXL     SUB4,4,0
      03617 -3 00000 4 03645  S3     TXL     S4,4,0
      03620 -0500 00 4 07742         CAL     BUF5-2,4
      03621 -0320 00 0 11403         ANA     =O77777
      03622 -0340 00 0 07545         LAS     BUF2+1
      03623  0020 00 0 03626         TRA     S6
1     FAP ASSEMBLY LISTING ... ... ...          FILE    0QED   FAP               06/22/70 1518.5 PAGE 31

      03624  0020 00 0 03635         TRA     S7
      03625  1 00002 4 03617         TXI     S3,4,2
      03626  0602 00 0 07545  S6     SLW     BUF2+1
      03627  0443 00 4 07742         DLD     BUF5-2,4
      03630  0771 00 0 00022         ARS     18
      03631  0621 00 0 07544         STA     BUF2
      03632  0636 00 4 07546         SCA     BUF2+2,4
      03633 -0600 00 0 07547         STQ     BUF2+3
      03634  1 00002 4 03617         TXI     S3,4,2
      03635 -0500 00 4 07742  S7     CAL     BUF5-2,4
      03636  0771 00 0 00022         ARS     18
      03637 -0340 00 0 07544         LAS     BUF2
      03640  1 00002 4 03617         TXI     S3,4,2
      03641  0020 00 0 01320         TRA     TYPE9
      03642 -0500 00 4 07742         CAL     BUF5-2,4
      03643 -0320 00 0 11403         ANA     =O77777
      03644  0020 00 0 03626         TRA     S6
      03645  0535 00 4 07237  S4     LAC     JFLG,4
      03646  1 00002 4 03647         TXI     *+1,4,2
      03647  0636 00 4 07237         SCA     JFLG,4
      03650  0443 00 4 07744         DLD     BUF5,4
      03651  0535 00 4 07546         LAC     BUF2+2,4
      03652 -0603 00 4 07742         DST     BUF5-2,4
      03653 -0520 00 0 07032         NZT     SFLG
      03654  0020 00 0 03705         TRA     S5
      03655  0535 00 4 03705         LAC     S5,4
      03656 -0500 00 4 00000         CAL     00,4
      03657  0737 00 4 00000         PAC     ,4
      03660  0636 00 4 03663         SCA     S1,4
      03661 -0636 00 4 03663         SCD     S1,4
      03662  0074 00 4 02527         TSX     SETBC,4
      03663  0 00000 0 00000  S1     PZE     **,,**
      03664  0600 00 0 07546         STZ     BUF2+2
      03665 -0774 00 4 03756         AXC     S9,4
      03666  0636 00 4 03755         SCA     S8+1,4
      03667  0074 00 4 03502         TSX     PRINT,4
      03670  0 00000 0 03754         PZE     S8
      03671 -0625 00 0 07236         STL     RFLG
      03672  0074 00 4 07322         TSX     RDFLXA,4
      03673  0 00001 0 07344         PZE     BUF1,,1
      03674  0600 00 0 07236         STZ     RFLG
      03675 -0500 00 0 07344         CAL     BUF1
      03676 -0340 00 0 11422         LAS     =O6200550060
      03677  0020 00 0 03701         TRA     *+2
      03700  0020 00 0 03705         TRA     S5
      03701 -0340 00 0 11423         LAS     =O16200550060
      03702  0020 00 0 03613         TRA     SUBP1
      03703  0020 00 0 03705         TRA     S5
      03704  0020 00 0 03613         TRA     SUBP1
      03705 -0774 00 4 00000  S5     AXC     **,4
      03706 -0500 00 4 00000         CAL     00,4
      03707  0737 00 4 00000         PAC     ,4
      03710  0636 00 4 03717         SCA     S13,4
      03711 -0636 00 4 03717         SCD     S13,4
      03712  0636 00 4 07246         SCA     ADDR1,4
      03713  0636 00 4 07247         SCA     ADDR2,4
1     FAP ASSEMBLY LISTING ... ... ...          FILE    0QED   FAP               06/22/70 1518.5 PAGE 32

      03714 -0774 00 4 04011         AXC     S18,4
      03715  0636 00 4 04010         SCA     S17+1,4
      03716  0074 00 4 02527         TSX     SETBC,4
      03717  0 00000 0 00000  S13    PZE     **,,**
      03720  0600 00 0 07546         STZ     BUF2+2
      03721 -0625 00 0 07033         STL     VFLG
      03722  0074 00 4 03177         TSX     INSERT,4
      03723  0 00000 0 04007         PZE     S17
      03724  0600 00 0 07033         STZ     VFLG
      03725  0074 00 4 03425         TSX     DELETE,4
      03726  0074 00 4 04153         TSX     FREIT,4
      03727  0535 00 4 07237         LAC     JFLG,4
      03730 -3 00000 4 03613  S16    TXL     SUBP1,4,0
      03731 -0500 00 4 07742         CAL     BUF5-2,4
      03732 -0320 00 0 11403         ANA     =O77777
      03733 -0340 00 0 07544         LAS     BUF2
      03734  0020 00 0 03737         TRA     *+3
      03735  1 00002 4 03730         TXI     S16,4,2
      03736  1 00002 4 03730         TXI     S16,4,2
      03737 -0500 00 4 07743         CAL     BUF5-1,4
      03740  0602 00 0 07547         SLW     BUF2+3
      03741  0636 00 4 03747         SCA     SUBP2,4
      03742  0074 00 4 04153         TSX     FREIT,4
      03743  0535 00 4 07237         LAC     JFLG,4
      03744  1 00002 4 03745         TXI     *+1,4,2
      03745  0636 00 4 07237         SCA     JFLG,4
      03746  0443 00 4 07744         DLD     BUF5,4
      03747 -0774 00 4 00000  SUBP2  AXC     **,4
      03750 -0603 00 4 07742         DST     BUF5-2,4
      03751  1 00002 4 03730         TXI     S16,4,2
      03752 -0774 00 4 00000  SUB4   AXC     **,4
      03753  0020 00 4 00001         TRA     1,4
      03754  0636 00 4 04005  S8     SCA     S12,4
      03755  0020 00 0 00000         TRA     **
      03756  0500 00 0 07546  S9     CLA     BUF2+2
      03757  0400 00 0 11317         ADD     =1
      03760  0601 00 0 07546         STO     BUF2+2
      03761  0340 00 0 07544         CAS     BUF2
      03762  0020 00 0 01320         TRA     TYPE9
      03763  0020 00 0 03765         TRA     *+2
      03764  0020 00 0 04004         TRA     S11
      03765 -0774 00 4 03771         AXC     S10,4
      03766  0636 00 4 03755         SCA     S8+1,4
      03767 -0500 00 0 11327         CAL     =O16
      03770  0020 00 0 04005         TRA     S12
      03771  0500 00 0 07546  S10    CLA     BUF2+2
      03772  0340 00 0 07545         CAS     BUF2+1
      03773  0020 00 0 01320         TRA     TYPE9
      03774  0020 00 0 04000         TRA     *+4
      03775  0400 00 0 11317         ADD     =1
      03776  0601 00 0 07546         STO     BUF2+2
      03777  0020 00 0 04004         TRA     S11
      04000 -0774 00 4 04004         AXC     S11,4
      04001  0636 00 4 03755         SCA     S8+1,4
      04002 -0500 00 0 11330         CAL     =O17
      04003  0020 00 0 04005         TRA     S12
1     FAP ASSEMBLY LISTING ... ... ...          FILE    0QED   FAP               06/22/70 1518.5 PAGE 33

      04004  0074 00 4 02604  S11    TSX     GETBC,4
      04005 -0774 00 4 00000  S12    AXC     **,4
      04006  0020 00 4 00001         TRA     1,4
      04007  0636 00 4 04104  S17    SCA     S21,4
      04010  0020 00 0 00000         TRA     **
      04011  0500 00 0 07546  S18    CLA     BUF2+2
      04012  0400 00 0 11317         ADD     =1
      04013  0601 00 0 07546         STO     BUF2+2
      04014  0340 00 0 07544         CAS     BUF2
      04015  0020 00 0 01320         TRA     TYPE9
      04016  0020 00 0 04020         TRA     *+2
      04017  0020 00 0 04103         TRA     S20
      04020  0634 00 0 04053         SXA     S19,0
      04021 -0774 00 4 04053         AXC     S19,4
      04022  0636 00 4 04010         SCA     S17+1,4
      04023  0636 00 0 04032         SCA     S23,0
      04024  0340 00 0 07545  S22    CAS     BUF2+1
      04025  0020 00 0 01320         TRA     TYPE9
      04026  0020 00 0 04040         TRA     S24
      04027  0400 00 0 11317         ADD     =1
      04030  0601 00 0 07546         STO     BUF2+2
      04031  0074 00 4 02604         TSX     GETBC,4
      04032 -0774 00 4 00000  S23    AXC     **,4
      04033  0602 00 4 07344         SLW     BUF1,4
      04034  1 77777 4 04035         TXI     *+1,4,-1
      04035  0636 00 4 04032         SCA     S23,4
      04036  0500 00 0 07546         CLA     BUF2+2
      04037  0020 00 0 04024         TRA     S22
      04040  0535 00 4 04032  S24    LAC     S23,4
      04041 -0500 00 0 11321         CAL     =3
      04042  0602 00 4 07344         SLW     BUF1,4
      04043  0636 00 0 04032         SCA     S23,0
      04044 -0520 00 0 07272  S28    NZT     EXFLG
      04045  0020 00 0 04053         TRA     S19
      04046  0535 00 4 04032         LAC     S23,4
      04047 -0500 00 4 07344         CAL     BUF1,4
      04050 -0340 00 0 11321         LAS     =3
      04051  0020 00 0 04053         TRA     S19
      04052  0020 00 0 04101         TRA     S20-2
      04053  0774 00 4 00000  S19    AXT     **,4
      04054 -0500 00 4 10107         CAL     BUF5+99,4
      04055  1 00001 4 04056         TXI     *+1,4,1
      04056  0634 00 4 04053         SXA     S19,4
      04057 -0340 00 0 11373         LAS     =O200
      04060  0020 00 0 04063         TRA     *+3
      04061  0020 00 0 04106         TRA     S25
      04062  0020 00 0 04104         TRA     S21
      04063 -0340 00 0 11374         LAS     =O201
      04064  0020 00 0 04066         TRA     *+2
      04065  0020 00 0 04126         TRA     S27
      04066 -0340 00 0 11403         LAS     =O77777
      04067  0020 00 0 04104         TRA     S21
      04070  0020 00 0 04072         TRA     *+2
      04071  0020 00 0 04131         TRA     S32
      04072 -0520 00 0 07272         NZT     EXFLG
      04073  0020 00 0 04101         TRA     S20-2
1     FAP ASSEMBLY LISTING ... ... ...          FILE    0QED   FAP               06/22/70 1518.5 PAGE 34

      04074  0535 00 4 04032         LAC     S23,4
      04075  1 77777 4 04076         TXI     *+1,4,-1
      04076  0636 00 4 04032         SCA     S23,4
      04077  0636 00 0 04053         SCA     S19,0
      04100  0020 00 0 04044         TRA     S28
      04101 -0774 00 4 04103         AXC     S20,4
      04102  0636 00 4 04010         SCA     S17+1,4
      04103  0074 00 4 02604  S20    TSX     GETBC,4
      04104 -0774 00 4 00000  S21    AXC     **,4
      04105  0020 00 4 00001         TRA     1,4
      04106  0636 00 0 04116  S25    SCA     S26,0
      04107 -0500 00 0 07545         CAL     BUF2+1
      04110  0402 00 0 07544         SUB     BUF2
      04111  0737 00 4 00000  S31    PAC     ,4
      04112  1 77777 4 04113         TXI     *+1,4,-1
      04113 -0634 00 4 04122         SXD     S30,4
      04114 -0774 00 4 04116         AXC     S26,4
      04115  0636 00 4 04010         SCA     S17+1,4
      04116 -0774 00 4 00000  S26    AXC     **,4
      04117 -0500 00 4 07344         CAL     BUF1,4
      04120  1 77777 4 04121         TXI     *+1,4,-1
      04121  0636 00 4 04116         SCA     S26,4
      04122  3 00000 4 04104  S30    TXH     S21,4,**
      04123 -0774 00 4 04053         AXC     S19,4
      04124  0636 00 4 04010         SCA     S17+1,4
      04125  0020 00 0 04053         TRA     S19
      04126  0535 00 4 04032  S27    LAC     S23,4
      04127 -0500 00 4 07344         CAL     BUF1,4
      04130  0020 00 0 04104         TRA     S21
      04131  0737 00 4 00000  S32    PAC     ,4
      04132 -0500 00 4 11076         CAL     SCHARS-130,4
      04133  0602 00 0 07550         SLW     BUF2+4
      04134 -0535 00 4 07547         LDC     BUF2+3,4
      04135 -3 00000 4 04053  S34    TXL     S19,4,0
      04136 -0500 00 4 00001         CAL     1,4
      04137 -0340 00 0 07550         LAS     BUF2+4
      04140  0020 00 0 04142         TRA     *+2
      04141  0020 00 0 04145         TRA     S33
      04142 -0500 00 4 00000         CAL     0,4
      04143  0737 00 4 00000         PAC     ,4
      04144  0020 00 0 04135         TRA     S34
      04145 -0500 00 4 00002  S33    CAL     2,4
      04146  0402 00 0 07544         SUB     BUF2
      04147  0621 00 0 04116         STA     S26
      04150 -0500 00 4 00003         CAL     3,4
      04151  0402 00 0 07544         SUB     BUF2
      04152  0020 00 0 04111         TRA     S31
      04153  0636 00 4 04165  FREIT  SCA     FRE1,4
      04154 -0535 00 4 07547         LDC     BUF2+3,4
      04155 -3 00000 4 04165         TXL     FRE1,4,0
      04156 -0500 00 4 00000  FRE0   CAL     0,4
      04157  0100 00 0 04162         TZE     *+3
      04160  0737 00 4 00000         PAC     ,4
      04161  0020 00 0 04156         TRA     FRE0
      04162  0756 00 5 00000         PCA     ,5
      04163  0602 00 4 00000         SLW     0,4
1     FAP ASSEMBLY LISTING ... ... ...          FILE    0QED   FAP               06/22/70 1518.5 PAGE 35

      04164 -0535 00 5 07547         LDC     BUF2+3,5
      04165 -0774 00 4 00000  FRE1   AXC     **,4
      04166  0020 00 4 00001         TRA     1,4
      04167  0636 00 4 04216  WRITE1 SCA     WRX,4
      04170  0535 00 4 07261         LAC     GOOD,4
      04171 -0636 00 4 04176         SCD     *+5,4
      04172  0074 00 4 07330         TSX     WRWAIT,4
      04173  3 00000 0 07337         PAR     FILNAM
      04174  3 00000 0 07340         PAR     FILNAM+1
      04175  3 00000 0 11316         PAR     =0
      04176  3 00000 0 07344         PAR     BUF1,,**
      04177  3 00000 0 11442         PAR     =-0
      04200  3 00000 0 11442         PAR     =-0
      04201  0535 00 4 04216         LAC     WRX,4
      04202  0020 00 4 00001         TRA     1,4
      04203  0636 00 4 04216  WRITE  SCA     WRX,4
      04204 -0500 00 4 00001         CAL     1,4
      04205  0737 00 4 00000         PAC     ,4
      04206 -0636 00 4 04213         SCD     *+5,4
      04207  0074 00 4 07330         TSX     WRWAIT,4
      04210  3 00000 0 07337         PAR     FILNAM
      04211  3 00000 0 07340         PAR     FILNAM+1
      04212  3 00000 0 11316         PAR     =0
      04213  3 00000 0 07544         PAR     BUF2,,**
      04214  3 00000 0 11442         PAR     =-0
      04215  3 00000 0 11442         PAR     =-0
      04216 -0774 00 4 00000  WRX    AXC     **,4
      04217  0020 00 4 00002         TRA     2,4
      04220 -3 77774 1 04222  WRSXTW TXL     *+2,1,-4
      04221 -3 77775 1 04304         TXL     WR12,1,-3
      04222 -3 77765 1 04224         TXL     *+2,1,-11
      04223 -3 77766 1 04252         TXL     WR7,1,-10
      04224 -0500 60 0 00010         CAL*    CNVTBL
      04225  0771 00 0 00000  WR13   ARS     **
      04226 -0320 00 0 11375         ANA     =O377
      04227 -0340 00 0 11372         LAS     =O177
      04230  0020 00 0 04233         TRA     WR4-1
      04231  0020 00 0 05661         TRA     WR2
      04232  0020 00 0 04234         TRA     WR4
      04233  0322 00 0 11400         ERA     =O600
      04234  2 00001 3 04245  WR4    TIX     WR6,3,1
      04235  1 77777 2 04236         TXI     *+1,2,-1
      04236  3 77634 2 04244         TXH     WR5,2,-100
      04237  0737 00 1 00000         PAC     ,1
      04240  0074 00 4 04203         TSX     WRITE,4
      04241  0 00000 0 00144         PZE     100
      04242  0756 00 1 00000         PCA     ,1
      04243 -0774 00 2 00000         AXC     00,2
      04244  0774 00 3 00000  WR5    AXT     **,3
      04245 -0765 00 0 00000  WR6    LGR     **
      04246 -0500 00 2 07544         CAL     BUF2,2
      04247 -0763 00 0 00000         LGL     **
      04250  0602 00 2 07544         SLW     BUF2,2
      04251  0020 00 0 05661         TRA     WR2
      04252  0560 00 0 07055  WR7    LDQ     OCT3
      04253 -0500 00 2 07544         CAL     BUF2,2
1     FAP ASSEMBLY LISTING ... ... ...          FILE    0QED   FAP               06/22/70 1518.5 PAGE 36

      04254  0020 00 0 04256         TRA     *+2
      04255  0522 00 0 04247         XEC     WR6+2
      04256  2 00001 3 04255         TIX     *-1,3,1
      04257  0602 00 2 07544         SLW     BUF2,2
      04260  0756 00 2 00000         PCA     ,2
      04261 -0501 00 0 11475         ORA     =O777777000000
      04262  0602 00 0 07544         SLW     BUF2
      04263 -0320 00 0 11403         ANA     =O77777
      04264  0400 00 0 11317         ADD     =1
      04265  0361 00 0 07261         ACL     GOOD
      04266 -0340 00 0 11363         LAS     =100
      04267  0020 00 0 04300         TRA     WR8
      04270  0020 00 0 04271         TRA     *+1
      04271  0602 00 0 07261  WR11   SLW     GOOD
      04272  0737 00 1 00000         PAC     ,1
      04273 -0500 00 2 07544         CAL     BUF2,2
      04274  0602 00 1 07343         SLW     BUF1-1,1
      04275 -3 00000 2 05661         TXL     WR2,2,0
      04276  1 00001 2 04277         TXI     *+1,2,1
      04277  1 00001 1 04273         TXI     *-4,1,1
      04300  0074 00 4 04167  WR8    TSX     WRITE1,4
      04301  0756 00 2 00000         PCA     ,2
      04302  0400 00 0 11317         ADD     =1
      04303  0020 00 0 04271         TRA     WR11
      04304  0074 00 4 04167  WR12   TSX     WRITE1,4
      04305  0020 00 0 04323         TRA     WR10
      04306 -3 77601 1 05661  WRGE   TXL     WR2,1,-127
      04307 -3 77774 1 04234  WRASCI TXL     WR4,1,-4
      04310  3 77775 1 04234         TXH     WR4,1,-3
      04311  0560 00 0 07055         LDQ     OCT3
      04312 -0500 00 2 07544         CAL     BUF2,2
      04313  0020 00 0 04315         TRA     *+2
      04314  0522 00 0 04247         XEC     WR6+2
      04315  2 00001 3 04314         TIX     *-1,3,1
      04316  0602 00 2 07544         SLW     BUF2,2
      04317  1 77777 2 04320         TXI     *+1,2,-1
      04320  0636 00 2 04322         SCA     WR9,2
      04321  0074 00 4 04203         TSX     WRITE,4
      04322  0 00000 0 00000  WR9    PZE     **
      04323  0074 00 4 02772  WR10   TSX     CLOS,4
      04324  0020 00 0 00765         TRA     ADDRES
      04325                   CNVBD  DIVIDE  10,97
      04330                          DIVIDE  10,98
      04333                          DIVIDE  10,99
      04336 -0600 00 0 07510         STQ     BUF1+100
      04337  0020 00 1 00001         TRA     1,1
      04340  0636 00 4 04363  LENGTH SCA     LEN1,4
      04341  0774 00 4 00000         AXT     0,4
      04342  0500 00 1 00000  CEQ1   CLA     00,1
      04343 -0120 00 0 04346         TMI     CEQ2
      04344 -0737 00 1 00000         PDC     ,1
      04345  1 00001 4 04342         TXI     CEQ1,4,1
      04346  0754 00 4 00000  CEQ2   PXA     ,4
      04347  0131 00 0 00000         XCA
      04350  0074 00 1 04325         TSX     CNVBD,1
      04351 -0500 00 0 11366         CAL     =O160
1     FAP ASSEMBLY LISTING ... ... ...          FILE    0QED   FAP               06/22/70 1518.5 PAGE 37

      04352  0602 00 0 07511         SLW     BUF1+101       BLANK
      04353 -0500 00 0 11360         CAL     =O132
      04354  0602 00 0 07504         SLW     BUF1+96        CR
      04355 -0500 00 0 11357         CAL     =O123
      04356  0602 00 0 07503         SLW     BUF1+95        EOF
      04357 -0774 00 4 00007         AXC     7,4
      04360  0636 00 4 06315         SCA     CCL3,4
      04361  0074 00 4 03502         TSX     PRINT,4
      04362  0 00000 0 06315         PZE     CCL3
      04363 -0774 00 4 00000  LEN1   AXC     **,4
      04364  0020 00 4 00001         TRA     1,4
      04365  0636 00 4 04376  BORCR  SCA     BOR1,4
      04366  0074 00 4 02257         TSX     GETCHA,4
      04367 -0340 00 0 11340         LAS     =O40
      04370  0020 00 0 01320         TRA     TYPE9
      04371  0020 00 0 04376         TRA     BOR1
      04372 -0340 00 0 11325         LAS     =O12
      04373  0020 00 0 01320         TRA     TYPE9
      04374  0020 00 0 04376         TRA     BOR1
      04375  0020 00 0 01320         TRA     TYPE9
      04376 -0774 00 4 00000  BOR1   AXC     **,4
      04377  0020 00 4 00001         TRA     1,4
                                     INSERT  2QED
      04400 -0500 60 0 00010  COMAND CAL*    CNVTBL
      04401  0771 00 0 00033         ARS     27
      04402 -0320 00 0 11337         ANA     =O37
      04403  0737 00 4 00000         PAC     ,4
      04404  0020 00 4 04405         TRA     *+1,4
      04405  0020 00 0 04441         TRA     CUNKN
      04406  0020 00 0 04442         TRA     CAPEND
      04407  0020 00 0 04453         TRA     CBUFER
      04410  0020 00 0 04460         TRA     CCHANG
      04411  0020 00 0 04467         TRA     CDELET
      04412  0020 00 0 06470         TRA     CRNCOM
      04413  0020 00 0 04615         TRA     CUPDAT
      04414  0020 00 0 04600         TRA     CINSRT
      04415  0020 00 0 04761         TRA     CMOVE
      04416  0020 00 0 05220         TRA     CPRINT
      04417  0020 00 0 05370         TRA     CREAD
      04420  0020 00 0 05412         TRA     CSUBST
      04421  0020 00 0 05577         TRA     CVERIF
      04422  0020 00 0 05601         TRA     CWRITE
      04423  0020 00 0 06113         TRA     CNLCR
      04424  0020 00 0 06126         TRA     CBLANK
      04425  0020 00 0 06130         TRA     CQUIT
      04426  0020 00 0 06325         TRA     CEQALS
      04427  0020 00 0 06347         TRA     CDBUFR
      04430  0020 00 0 05030         TRA     COPTON
      04431  0020 00 0 04611         TRA     CLIST
      04432  0020 00 0 06710         TRA     CSORT
      04433  0020 00 0 04471         TRA     CSTRAP
      04434  0020 00 0 06703         TRA     CCOMNT
      04435  0020 00 0 04504         TRA     CCANON
      04436  0020 00 0 05664         TRA     CAUDIT
      04437  0020 00 0 06255         TRA     CCOLN
      04440  0020 00 0 06146         TRA     CGLOB
1     FAP ASSEMBLY LISTING ... ... ...          FILE    0QED   FAP               06/22/70 1518.5 PAGE 38

      04441  0020 00 0 01264  CUNKN  TRA     TYPE2
      04442 -0520 00 0 07265  CAPEND NZT     AFLG
      04443  0074 00 4 03406         TSX     SETFL,4
      04444  0074 00 4 04365         TSX     BORCR,4
      04445  0535 00 4 07247         LAC     ADDR2,4
      04446 -0500 00 4 00000         CAL     00,4
      04447  0621 00 0 07247         STA     ADDR2
      04450  0074 00 4 03177         TSX     INSERT,4
      04451  0 00000 0 02257         PZE     GETCHA
      04452  0020 00 0 00765         TRA     ADDRES
      04453  0520 00 0 07265  CBUFER ZET     AFLG
      04454  0020 00 0 01264         TRA     TYPE2
      04455  0074 00 4 03057         TSX     GETBN,4
      04456  0074 00 4 03304         TSX     BOPEN,4
      04457  0020 00 0 00765         TRA     ADDRES
      04460  0074 00 4 04365  CCHANG TSX     BORCR,4
      04461  0074 00 4 03425         TSX     DELETE,4
      04462 -0500 00 0 07024         CAL     DOT
      04463  0602 00 0 07247         SLW     ADDR2
      04464  0074 00 4 03177         TSX     INSERT,4
      04465  0 00000 0 02257         PZE     GETCHA
      04466  0020 00 0 00765         TRA     ADDRES
      04467  0074 00 4 03425  CDELET TSX     DELETE,4
      04470  0020 00 0 00765         TRA     ADDRES
      04471  0520 00 0 07265  CSTRAP ZET     AFLG
      04472  0020 00 0 01264         TRA     TYPE2
      04473  0074 00 4 02257         TSX     GETCHA,4
      04474  0737 00 2 00000         PAC     ,2
      04475  0074 00 4 03057         TSX     GETBN,4
      04476 -3 77765 1 04500         TXL     *+2,1,-11
      04477 -3 77766 1 01320         TXL     TYPE9,1,-10
      04500 -3 77706 2 01320         TXL     TYPE9,2,-58
      04501  3 77717 2 01320         TXH     TYPE9,2,-49
      04502  0602 00 2 01243         SLW     TRAP1-49,2
      04503  0020 00 0 00765         TRA     ADDRES
      04504  0074 00 4 02257  CCANON TSX     GETCHA,4
      04505  0074 00 4 04510         TSX     CAN02,4
      04506  0020 00 0 00765         TRA     ADDRES
      04507 -0774 00 1 00000  CAN01  AXC     **,1
      04510  0636 00 1 04546  CAN02  SCA     CCAN9,1
      04511  0636 00 4 04535         SCA     CCAN8,4
      04512 -0520 00 0 07265         NZT     AFLG
      04513  0074 00 4 03401         TSX     SETDD,4
      04514  0074 00 4 03415         TSX     CKWRAP,4
      04515  0535 00 4 07246         LAC     ADDR1,4
      04516  0636 00 4 04522         SCA     CCAN1,4
      04517  0535 00 4 07247         LAC     ADDR2,4
      04520 -0636 00 4 04522         SCD     CCAN1,4
      04521  0074 00 4 02527         TSX     SETBC,4
      04522  0 00000 0 00000  CCAN1  PZE     **,,**
      04523  0774 00 2 00000         AXT     00,2
      04524  0074 00 4 02604         TSX     GETBC,4
      04525 -0340 00 0 11321         LAS     =O3
      04526  0020 00 0 04540         TRA     CCAN2
      04527  0020 00 0 04531         TRA     *+2
      04530  0020 00 0 04540         TRA     CCAN2
1     FAP ASSEMBLY LISTING ... ... ...          FILE    0QED   FAP               06/22/70 1518.5 PAGE 39

      04531  0535 00 4 07024         LAC     DOT,4
      04532 -0500 00 4 00000         CAL     00,4
      04533 -0737 00 4 00000         PDC     ,4
      04534  0636 00 4 07024         SCA     DOT,4
      04535 -0774 00 4 00000  CCAN8  AXC     **,4
      04536  0020 00 4 00001         TRA     1,4
      04537  0074 00 4 02604         TSX     GETBC,4
      04540  0602 00 2 11275  CCAN2  SLW     BUF7+299,2
      04541 -0340 00 0 11325         LAS     =O12
      04542  1 00001 2 04537         TXI     CCAN2-1,2,1
      04543  1 00001 2 04545         TXI     *+2,2,1
      04544  1 00001 2 04537         TXI     CCAN2-1,2,1
      04545  0634 00 2 02255         SXA     SIZ1,2
      04546 -0774 00 1 00000  CCAN9  AXC     **,1
      04547  0756 00 1 00000         PCA     ,1
      04550  0074 00 4 00002         TSX     ZCMD,4
      04551  0 00000 0 11275         PZE     BUF7+299
      04552  0 00000 0 02255         PZE     SIZ1
      04553  0 00000 0 11377         PZE     =300
      04554  0534 00 2 02255  CCAN4  LXA     SIZ1,2
      04555 -0500 00 0 11321         CAL     =O3
      04556  0602 00 2 11275         SLW     BUF7+299,2
      04557  0636 00 0 04573         SCA     CCAN3,0
      04560  0535 00 4 02621         LAC     BC2,4
      04561 -0500 00 4 00000         CAL     00,4
      04562 -0737 00 4 00000         PDC     ,4
      04563  0636 00 4 07246         SCA     ADDR1,4
      04564  0636 00 4 07247         SCA     ADDR2,4
      04565 -0625 00 0 07033         STL     VFLG
      04566  0074 00 4 03177         TSX     INSERT,4
      04567  0 00000 0 04573         PZE     CCAN3
      04570  0600 00 0 07033         STZ     VFLG
      04571  0074 00 4 03425         TSX     DELETE,4
      04572  0020 00 0 04523         TRA     CCAN1+1
      04573  0774 00 1 00000  CCAN3  AXT     **,1
      04574 -0500 00 1 11275         CAL     BUF7+299,1
      04575  1 00001 1 04576         TXI     *+1,1,1
      04576  0634 00 1 04573         SXA     CCAN3,1
      04577  0020 00 4 00001         TRA     1,4
      04600 -0520 00 0 07265  CINSRT NZT     AFLG
      04601  0074 00 4 03401         TSX     SETDD,4
      04602  0074 00 4 04365         TSX     BORCR,4
      04603  0074 00 4 03177         TSX     INSERT,4
      04604  0 00000 0 02257         PZE     GETCHA
      04605  0535 00 4 07024         LAC     DOT,4
      04606 -0500 00 4 00000         CAL     00,4
      04607  0621 00 0 07024         STA     DOT
      04610  0020 00 0 00765         TRA     ADDRES
      04611  0074 00 4 02670  CLIST  TSX     SETFC,4
      04612  0074 00 4 03502         TSX     PRINT,4
      04613  0 00000 0 02737         PZE     GETFC
      04614  0020 00 0 00765         TRA     ADDRES
      04615  0520 00 0 07265  CUPDAT ZET     AFLG
      04616  0020 00 0 01264         TRA     TYPE2
      04617  0074 00 4 07303         TSX     WHOAMI,4
      04620  0 00004 0 07544         PZE     BUF2,,4
1     FAP ASSEMBLY LISTING ... ... ...          FILE    0QED   FAP               06/22/70 1518.5 PAGE 40

      04621  0074 00 4 07304         TSX     GETIME,4
      04622  0602 00 0 07550         SLW     BUF2+4
      04623 -0600 00 0 07551         STQ     BUF2+5
      04624  0535 00 4 07242         LAC     BUFER,4
      04625 -0500 00 4 00003         CAL     03,4
      04626  0602 00 0 05027         SLW     MO2
      04627  0074 00 4 03057         TSX     GETBN,4
      04630  0074 00 4 03304         TSX     BOPEN,4
      04631  0074 00 4 03406         TSX     SETFL,4
      04632  0535 00 4 07246         LAC     ADDR1,4
      04633  0500 00 4 00000         CLA     00,4
      04634 -0120 00 0 04640         TMI     *+4
      04635  0074 00 4 03425         TSX     DELETE,4
      04636  0535 00 4 07251         LAC     ZER,4
      04637  0636 00 4 07247         SCA     ADDR2,4
      04640 -0774 00 2 00000         AXC     00,2
      04641 -0500 00 0 07551         CAL     BUF2+5
      04642  0074 00 4 04746         TSX     SPREAD,4
      04643  0443 00 0 07350         DLD     BUF1+4
      04644 -0603 00 0 07352         DST     BUF1+6
      04645  0443 00 0 07346         DLD     BUF1+2
      04646 -0603 00 0 07347         DST     BUF1+3
      04647 -0500 00 0 11352         CAL     =O61
      04650  0602 00 0 07346         SLW     BUF1+2
      04651  0602 00 0 07351         SLW     BUF1+5
      04652 -0500 00 0 11346         CAL     =O55
      04653  0602 00 0 07354         SLW     BUF1+8
      04654  0602 00 0 07367         SLW     BUF1+19
      04655  0560 00 0 07550         LDQ     BUF2+4
      04656                          DIVIDE  6,18
      04661                          DIVIDE  10,18
      04664                          DIVIDE  10,16
      04667                          DIVIDE  6,15
      04672                          DIVIDE  10,13
      04675                          DIVIDE  6,12
      04700                          DIVIDE  10,10
      04703 -0600 00 0 07355         STQ     BUF1+9
      04704 -0500 00 0 11335         CAL     =O35
      04705  0602 00 0 07357         SLW     BUF1+11
      04706  0602 00 0 07362         SLW     BUF1+14
      04707 -0500 00 0 11333         CAL     =O33
      04710  0602 00 0 07365         SLW     BUF1+17
      04711 -0774 00 2 00024         AXC     20,2
      04712 -0500 00 0 07544         CAL     BUF2
      04713  0074 00 4 04746         TSX     SPREAD,4
      04714 -0500 00 0 07545         CAL     BUF2+1
      04715  0074 00 4 04746         TSX     SPREAD,4
      04716 -0500 00 0 07546         CAL     BUF2+2
      04717  0074 00 4 04746         TSX     SPREAD,4
      04720 -0500 00 0 07547         CAL     BUF2+3
      04721  0074 00 4 04746         TSX     SPREAD,4
      04722  0636 00 0 04731         SCA     UPD1,0
      04723  0074 00 4 03177         TSX     INSERT,4
      04724  0 00000 0 04730         PZE     UPD1-1
      04725 -0500 00 0 05027         CAL     MO2
      04726  0074 00 4 03304         TSX     BOPEN,4
1     FAP ASSEMBLY LISTING ... ... ...          FILE    0QED   FAP               06/22/70 1518.5 PAGE 41

      04727  0020 00 0 00765         TRA     ADDRES
      04730  0636 00 4 04744         SCA     UPD2,4
      04731 -0774 00 4 00000  UPD1   AXC     **,4
      04732 -0500 00 4 07344         CAL     BUF1,4
      04733  1 77777 4 04734         TXI     *+1,4,-1
      04734 -3 77717 4 04743         TXL     UPD2-1,4,-49
      04735  0636 00 4 04731         SCA     UPD1,4
      04736  0737 00 1 00000         PAC     ,1
      04737 -0500 60 0 00010         CAL*    CNVTBL
      04740  0771 00 0 00020         ARS     16
      04741 -0320 00 0 11372         ANA     =O177
      04742  0020 00 0 04744         TRA     UPD2
      04743 -0500 00 0 11321         CAL     =3
      04744 -0774 00 4 00000  UPD2   AXC     **,4
      04745  0020 00 4 00001         TRA     1,4
      04746  0636 00 4 04744  SPREAD SCA     UPD2,4
      04747  0774 00 4 00006         AXT     6,4
      04750 -0130 00 0 00000         XCL
      04751 -0754 00 0 00000         ZAC
      04752 -0763 00 0 00006         LGL     6
      04753  0602 00 2 07344         SLW     BUF1,2
      04754  1 77777 2 04755         TXI     *+1,2,-1
      04755  2 00001 4 04751         TIX     *-4,4,1
      04756 -0500 00 0 11346         CAL     =O55
      04757  0602 00 2 07344         SLW     BUF1,2
      04760  1 77777 2 04744         TXI     UPD2,2,-1
      04761 -0520 00 0 07265  CMOVE  NZT     AFLG
      04762  0074 00 4 03401         TSX     SETDD,4
      04763  0074 00 4 03415         TSX     CKWRAP,4
      04764  0535 00 4 07242         LAC     BUFER,4
      04765 -0500 00 4 00003         CAL     03,4
      04766  0602 00 0 05027         SLW     MO2
      04767  0535 00 1 07246         LAC     ADDR1,1
      04770  0636 00 1 05012         SCA     MO1,1
      04771  0535 00 2 07247         LAC     ADDR2,2
      04772  0636 00 2 05013         SCA     MO1+1,2
      04773 -0500 00 1 00000         CAL     00,1
      04774 -0737 00 4 00000         PDC     ,4
      04775 -0500 00 2 00000         CAL     00,2
      04776  0621 00 4 00000         STA     00,4
      04777  0621 00 0 07024         STA     DOT
      05000  0737 00 4 00000         PAC     ,4
      05001 -0500 00 1 00000         CAL     00,1
      05002  0622 00 4 00000         STD     00,4
      05003  0074 00 4 03057         TSX     GETBN,4
      05004  0074 00 4 03304         TSX     BOPEN,4
      05005  0074 00 4 03406         TSX     SETFL,4
      05006  0535 00 4 07246         LAC     ADDR1,4
      05007  0500 00 4 00000         CLA     00,4
      05010 -0120 00 0 05012         TMI     *+2
      05011  0074 00 4 03425         TSX     DELETE,4
      05012 -0774 00 1 00000  MO1    AXC     **,1
      05013 -0774 00 2 00000         AXC     **,2
      05014  0535 00 4 07251         LAC     ZER,4
      05015 -0500 00 4 00000         CAL     00,4
      05016  0622 00 1 00000         STD     00,1
1     FAP ASSEMBLY LISTING ... ... ...          FILE    0QED   FAP               06/22/70 1518.5 PAGE 42

      05017  0621 00 2 00000         STA     00,2
      05020  0756 00 1 00000         PCA     ,1
      05021  0621 00 4 00000         STA     00,4
      05022 -0756 00 2 00000         PCD     ,2
      05023  0622 00 4 00000         STD     00,4
      05024 -0500 00 0 05027         CAL     MO2
      05025  0074 00 4 03304         TSX     BOPEN,4
      05026  0020 00 0 00765         TRA     ADDRES
      05027  0 00000 0 00000  MO2    PZE     **
      05030  0520 00 0 07265  COPTON ZET     AFLG
      05031  0020 00 0 01264         TRA     TYPE2
      05032  0074 00 2 03465  CO1    TSX     COP1,2
      05033  0520 00 0 07265         ZET     AFLG
      05034  0020 00 0 05212         TRA     CO2
      05035  0737 00 1 00000         PAC     ,1
      05036 -0500 60 0 00010         CAL*    CNVTBL
      05037  0771 00 0 00033         ARS     27
      05040 -0320 00 0 11337         ANA     =O37
      05041  0737 00 4 00000         PAC     ,4
      05042  0020 60 4 05043         TRA*    COLST,4
      05043  0 01320 0 01320  COLST  PZE     TYPE9,,TYPE9
      05044  0 01320 0 05162         PZE     CO15,,TYPE9
      05045  0 01320 0 05077         PZE     CO3,,TYPE9
      05046  0 01320 0 05102         PZE     CO4,,TYPE9
      05047  0 03425 0 05164         PZE     CO16,,DELETE
      05050  0 01320 0 05105         PZE     CO5,,TYPE9
      05051  0 01320 0 05110         PZE     CO6,,TYPE9
      05052  0 01320 0 05113         PZE     CO7,,TYPE9
      05053  0 01320 0 05166         PZE     CO17,,TYPE9
      05054  0 05222 0 05140         PZE     CO14,,PRINT0
      05055  0 01320 0 05117         PZE     CO8,,TYPE9
      05056  0 01320 0 05122         PZE     CO9,,TYPE9
      05057  0 01320 0 05206         PZE     CO18,,TYPE9
      05060  0 01320 0 05124         PZE     CO10,,TYPE9
      05061  0 01320 0 01320         PZE     TYPE9,,TYPE9
      05062  0 01320 0 01320         PZE     TYPE9,,TYPE9
      05063  0 01320 0 05210         PZE     CO19,,TYPE9
      05064  0 06327 0 01320         PZE     TYPE9,,EQALS0
      05065  0 01320 0 01320         PZE     TYPE9,,TYPE9
      05066  0 01320 0 05127         PZE     CO11,,TYPE9
      05067  0 01320 0 01320         PZE     TYPE9,,TYPE9
      05070  0 01320 0 05133         PZE     CO12,,TYPE9
      05071  0 01320 0 05136         PZE     CO13,,TYPE9
      05072  0 01320 0 01320         PZE     TYPE9,,TYPE9
      05073  0 04507 0 01320         PZE     TYPE9,,CAN01
      05074  0 01320 0 01320         PZE     TYPE9,,TYPE9
      05075  0 06257 0 01320         PZE     TYPE9,,COLN0
      05076  0 01320 0 01320         PZE     TYPE9,,TYPE9
      05077  0074 00 2 03465  CO3    TSX     COP1,2
      05100  0602 00 0 07252         SLW     B
      05101  0020 00 0 05032         TRA     CO1
      05102  0074 00 2 03465  CO4    TSX     COP1,2
      05103  0602 00 0 07253         SLW     V
      05104  0020 00 0 05032         TRA     CO1
      05105  0074 00 2 03465  CO5    TSX     COP1,2
      05106  0602 00 0 07255         SLW     A
1     FAP ASSEMBLY LISTING ... ... ...          FILE    0QED   FAP               06/22/70 1518.5 PAGE 43

      05107  0020 00 0 05032         TRA     CO1
      05110  0074 00 2 03465  CO6    TSX     COP1,2
      05111  0602 00 0 07254         SLW     E
      05112  0020 00 0 05032         TRA     CO1
      05113  0560 00 0 07232  CO7    LDQ     ZET1
      05114 -0620 00 0 01447         SLQ     IO1
      05115 -0620 00 0 01464         SLQ     IO2
      05116  0020 00 0 05032         TRA     CO1
      05117  0074 00 2 03465  CO8    TSX     COP1,2
      05120  0602 00 0 07260         SLW     R
      05121  0020 00 0 05032         TRA     CO1
      05122 -0625 00 0 07025  CO9    STL     CAPFLG
      05123  0020 00 0 05032         TRA     CO1
      05124  0074 00 2 03465  CO10   TSX     COP1,2
      05125  0602 00 0 07256         SLW     W
      05126  0020 00 0 05032         TRA     CO1
      05127  0560 00 0 07231  CO11   LDQ     NZT1
      05130 -0620 00 0 01447         SLQ     IO1
      05131 -0620 00 0 01464         SLQ     IO2
      05132  0020 00 0 05032         TRA     CO1
      05133  0074 00 2 03465  CO12   TSX     COP1,2
      05134  0602 00 0 07257         SLW     Q
      05135  0020 00 0 05032         TRA     CO1
      05136  0600 00 0 07025  CO13   STZ     CAPFLG
      05137  0020 00 0 05032         TRA     CO1
      05140  0074 00 2 03465  CO14   TSX     COP1,2
      05141 -0501 00 0 11340         ORA     =O40
      05142 -0340 00 0 11364         LAS     =O154
      05143  0020 00 0 05152         TRA     CO14.1
      05144  0020 00 0 05157         TRA     CO14.2
      05145  0402 00 0 11361         SUB     =O141
      05146 -0100 00 0 01320         TNZ     TYPE9
      05147 -0625 00 0 07276         STL     PAFLG
      05150  0600 00 0 07277         STZ     PLFLG
      05151  0020 00 0 05032         TRA     CO1
      05152  0402 00 0 11365  CO14.1 SUB     =O156
      05153 -0100 00 0 01320         TNZ     TYPE9
      05154  0600 00 0 07276         STZ     PAFLG
      05155  0600 00 0 07277         STZ     PLFLG
      05156  0020 00 0 05032         TRA     CO1
      05157  0600 00 0 07276  CO14.2 STZ     PAFLG
      05160 -0625 00 0 07277         STL     PLFLG
      05161  0020 00 0 05032         TRA     CO1
      05162  0600 00 0 07271  CO15   STZ     FBDFLG
      05163  0020 00 0 05032         TRA     CO1
      05164 -0625 00 0 07271  CO16   STL     FBDFLG
      05165  0020 00 0 05032         TRA     CO1
      05166  0600 00 0 07270  CO17   STZ     FMODE
      05167  0074 00 2 03465         TSX     COP1,2
      05170 -0340 00 0 11354         LAS     =O70
      05171  0020 00 0 05033         TRA     CO1+1
      05172  0020 00 0 05033         TRA     CO1+1
      05173 -0340 00 0 11351         LAS     =O60
      05174  0020 00 0 05177         TRA     *+3
      05175  0020 00 0 05177         TRA     *+2
      05176  0020 00 0 05033         TRA     CO1+1
1     FAP ASSEMBLY LISTING ... ... ...          FILE    0QED   FAP               06/22/70 1518.5 PAGE 44

      05177  0402 00 0 11351         SUB     =O60
      05200 -0765 00 0 00003         LGR     3
      05201 -0500 00 0 07270         CAL     FMODE
      05202 -0763 00 0 00003         LGL     3
      05203 -0320 00 0 11372         ANA     =O177
      05204  0602 00 0 07270         SLW     FMODE
      05205  0020 00 0 05167         TRA     CO17+1
      05206 -0625 00 0 07267  CO18   STL     TRCFLG
      05207  0020 00 0 05032         TRA     CO1
      05210  0600 00 0 07267  CO19   STZ     TRCFLG
      05211  0020 00 0 05032         TRA     CO1
      05212  0074 00 4 00004  CO2    TSX     SETOPS,4
      05213  0 00000 0 07253         PZE     V
      05214  0 00000 0 07255         PZE     A
      05215  0 00000 0 07256         PZE     W
      05216  0 00000 0 07257         PZE     Q
      05217  0020 00 0 00765         TRA     ADDRES
      05220  0074 00 4 05222  CPRINT TSX     PRINT0,4
      05221  0020 00 0 00765         TRA     ADDRES
      05222  0636 00 4 05243  PRINT0 SCA     CPR10,4
      05223 -0520 00 0 07265         NZT     AFLG
      05224  0074 00 4 03401         TSX     SETDD,4
      05225  0535 00 4 07246         LAC     ADDR1,4
      05226  0636 00 4 05240         SCA     CPR1,4
      05227  0535 00 4 07247         LAC     ADDR2,4
      05230  0636 00 4 07024         SCA     DOT,4
      05231 -0636 00 4 05240         SCD     CPR1,4
      05232  0600 00 0 07237         STZ     JFLG
      05233  0560 00 0 05252         LDQ     CPR3
      05234 -0600 00 0 05251         STQ     CPR2
      05235  0560 00 0 05323         LDQ     CPR6
      05236 -0600 00 0 05322         STQ     CPR5
      05237  0074 00 4 02527         TSX     SETBC,4
      05240  0 00000 0 00000  CPR1   PZE     **,,**
      05241  0074 00 4 03502         TSX     PRINT,4
      05242  0 00000 0 05245         PZE     CPR9
      05243 -0774 00 4 00000  CPR10  AXC     **,4
      05244  0020 00 4 00001         TRA     1,4
      05245  0520 00 0 07277  CPR9   ZET     PLFLG
      05246  0020 00 0 05322         TRA     CPR5
      05247 -0520 00 0 07276         NZT     PAFLG
      05250  0020 00 0 02604         TRA     GETBC
      05251  0020 00 0 00000  CPR2   TRA     **
      05252  0020 00 0 05253  CPR3   TRA     *+1
      05253  0520 00 0 07034         ZET     EFLG
      05254  0020 00 0 05307         TRA     CPR4
      05255  0535 00 1 02621         LAC     BC2,1
      05256  0520 00 1 00003         ZET     03,1
      05257  0020 00 0 05263         TRA     CPR3.1
      05260  0600 00 0 07237         STZ     JFLG
      05261 -0500 00 0 11344         CAL     =O52
      05262  0020 00 0 05274         TRA     CPR3.3
      05263 -0520 00 0 07237  CPR3.1 NZT     JFLG
      05264  0020 00 0 05270         TRA     CPR3.2
      05265 -0500 00 0 07237         CAL     JFLG
      05266  0402 00 1 00003         SUB     03,1
1     FAP ASSEMBLY LISTING ... ... ...          FILE    0QED   FAP               06/22/70 1518.5 PAGE 45

      05267 -0100 00 0 05277         TNZ     CPR3.4
      05270 -0500 00 1 00003  CPR3.2 CAL     03,1
      05271  0400 00 0 11317         ADD     =1
      05272  0602 00 0 07237         SLW     JFLG
      05273 -0500 00 0 11340         CAL     =O40
      05274  0560 00 0 05307  CPR3.3 LDQ     CPR4
      05275 -0600 00 0 05251         STQ     CPR2
      05276  0020 00 4 00001         TRA     1,4
      05277  0560 00 0 05303  CPR3.4 LDQ     CPR3.5
      05300 -0600 00 0 05251         STQ     CPR2
      05301 -0500 00 0 11344         CAL     =O52
      05302  0020 00 4 00001         TRA     1,4
      05303  0020 00 0 05304  CPR3.5 TRA     *+1
      05304  0600 00 0 07237         STZ     JFLG
      05305 -0500 00 0 11325         CAL     =O12
      05306  0020 00 0 05274         TRA     CPR3.3
      05307  0020 00 0 05310  CPR4   TRA     *+1
      05310  0636 00 4 05320         SCA     CPR4.1,4
      05311  0074 00 4 02604         TSX     GETBC,4
      05312 -0340 00 0 11325         LAS     =O12
      05313  0020 00 0 05320         TRA     CPR4.1
      05314  0020 00 0 05316         TRA     *+2
      05315  0020 00 0 05320         TRA     CPR4.1
      05316  0560 00 0 05252         LDQ     CPR3
      05317 -0600 00 0 05251         STQ     CPR2
      05320 -0774 00 4 00000  CPR4.1 AXC     **,4
      05321  0020 00 4 00001         TRA     1,4
      05322  0020 00 0 00000  CPR5   TRA     **
      05323  0020 00 0 05324  CPR6   TRA     *+1
      05324  0520 00 0 07034         ZET     EFLG
      05325  0020 00 0 05355         TRA     CPR8
      05326  0535 00 1 02621         LAC     BC2,1
      05327  0500 00 1 00003         CLA     03,1
      05330  0100 00 0 05351         TZE     CPR7.2
      05331  0120 00 0 05333         TPL     *+2
      05332 -0754 00 0 00000         ZAC
      05333 -0130 00 0 00000         XCL
      05334  0074 00 1 04325         TSX     CNVBD,1
      05335  0560 00 0 05342         LDQ     CPR7
      05336 -0600 00 0 05322         STQ     CPR5
      05337  0636 00 0 05343         SCA     CPR7+1,0
      05340 -0500 00 0 11343         CAL     =O47
      05341  0020 00 4 00001         TRA     1,4
      05342  0020 00 0 05343  CPR7   TRA     *+1
      05343 -0774 00 1 00000         AXC     **,1
      05344 -0500 00 1 07510         CAL     BUF1+100,1
      05345  0361 00 0 11351         ACL     =O60
      05346  1 00001 1 05347         TXI     *+1,1,1
      05347  0636 00 1 05343         SCA     CPR7+1,1
      05350 -3 00004 1 05354         TXL     CPR7.1,1,4
      05351 -0500 00 0 11324  CPR7.2 CAL     =O11
      05352  0560 00 0 05355         LDQ     CPR8
      05353 -0600 00 0 05322         STQ     CPR5
      05354  0020 00 4 00001  CPR7.1 TRA     1,4
      05355  0020 00 0 05356  CPR8   TRA     *+1
      05356  0636 00 4 05366         SCA     CPR8.1,4
1     FAP ASSEMBLY LISTING ... ... ...          FILE    0QED   FAP               06/22/70 1518.5 PAGE 46

      05357  0074 00 4 02604         TSX     GETBC,4
      05360 -0340 00 0 11325         LAS     =O12
      05361  0020 00 0 05366         TRA     CPR8.1
      05362  0020 00 0 05364         TRA     *+2
      05363  0020 00 0 05366         TRA     CPR8.1
      05364  0560 00 0 05323         LDQ     CPR6
      05365 -0600 00 0 05322         STQ     CPR5
      05366 -0774 00 4 00000  CPR8.1 AXC     **,4
      05367  0020 00 4 00001         TRA     1,4
      05370 -0520 00 0 07265  CREAD  NZT     AFLG
      05371  0074 00 4 03406         TSX     SETFL,4
      05372  0535 00 4 07247         LAC     ADDR2,4
      05373 -0500 00 4 00000         CAL     00,4
      05374  0621 00 0 07247         STA     ADDR2
      05375  0074 00 4 02670         TSX     SETFC,4
      05376  0074 00 4 03177  CRD2   TSX     INSERT,4
      05377  0 00000 0 02737         PZE     GETFC
      05400  0535 00 2 07251         LAC     ZER,2
      05401 -0774 00 4 00001         AXC     1,4
      05402 -0500 00 2 00000         CAL     00,2
      05403  0737 00 2 00000         PAC     ,2
      05404  0756 00 4 00000  CRD1   PCA     ,4
      05405  0602 00 2 00003         SLW     03,2
      05406  0500 00 2 00000         CLA     00,2
      05407 -0120 00 0 00765         TMI     ADDRES
      05410  0737 00 2 00000         PAC     ,2
      05411  1 77777 4 05404         TXI     CRD1,4,-1
      05412  0600 00 0 07032  CSUBST STZ     SFLG
      05413 -0520 00 0 07265         NZT     AFLG
      05414  0074 00 4 03401         TSX     SETDD,4
      05415  0074 00 4 03415         TSX     CKWRAP,4
      05416  0535 00 4 07247         LAC     ADDR2,4
      05417 -0500 00 4 00000         CAL     00,4
      05420  0621 00 0 05570         STA     SUB2
      05421  0074 00 4 02257         TSX     GETCHA,4
      05422 -0340 00 0 11325         LAS     =O12
      05423  0020 00 0 05425         TRA     *+2
      05424  0020 00 0 01320         TRA     TYPE9
      05425  0602 00 0 07273         SLW     SLCHR
      05426 -0625 00 0 07263         STL     SUBFLG
      05427  0074 00 4 01426         TSX     COMPIL,4
      05430  0020 00 0 05531         TRA     SUBF
      05431  0 00000 0 05502         PZE     SUBC
      05432  0600 00 0 07272         STZ     EXFLG
      05433 -0774 00 2 00000         AXC     00,2
      05434  0074 00 4 02257  SUB3   TSX     GETCHA,4
      05435  0520 00 0 07033         ZET     VFLG
      05436  0020 00 0 05466         TRA     SUB31
      05437  0535 00 4 07262         LAC     NSCHA,4
      05440 -3 00000 4 05446         TXL     SUB34,4,0
      05441 -0340 00 4 11277         LAS     SCHARS-1,4
      05442  1 00001 4 05440         TXI     *-2,4,1
      05443  1 77577 4 05445         TXI     *+2,4,-129
      05444  1 00001 4 05440         TXI     *-4,4,1
      05445  0756 00 4 00000         PCA     ,4
      05446 -0340 00 0 11341  SUB34  LAS     =O41
1     FAP ASSEMBLY LISTING ... ... ...          FILE    0QED   FAP               06/22/70 1518.5 PAGE 47

      05447  0020 00 0 05460         TRA     SUB32
      05450  0020 00 0 05452         TRA     *+2
      05451  0020 00 0 05454         TRA     *+3
      05452 -0500 00 0 11374         CAL     =O201
      05453 -0625 00 0 07272         STL     EXFLG
      05454 -0340 00 0 11325         LAS     =O12
      05455  0020 00 0 05463         TRA     SUB33
      05456  0020 00 0 01320         TRA     TYPE9
      05457  0020 00 0 05463         TRA     SUB33
      05460 -0340 00 0 11342  SUB32  LAS     =O46
      05461  0020 00 0 05463         TRA     SUB33
      05462  0500 00 0 11373         CLA     =O200
      05463 -0340 00 0 07273  SUB33  LAS     SLCHR
      05464  0020 00 0 05466         TRA     *+2
      05465  0020 00 0 05470         TRA     *+3
      05466  0602 00 2 10107  SUB31  SLW     BUF5+99,2
      05467  1 00001 2 05434         TXI     SUB3,2,1
      05470 -0500 00 0 11403         CAL     =O77777
      05471  0602 00 2 10107         SLW     BUF5+99,2
      05472 -0500 00 0 07247         CAL     ADDR2
      05473  0767 00 0 00022         ALS     18
      05474 -0501 00 0 07246         ORA     ADDR1
      05475  0602 00 0 05477         SLW     *+2
      05476  0074 00 4 02527         TSX     SETBC,4
      05477  0 00000 0 00000         PZE     **,,**
      05500 -0625 00 0 07234         STL     IFLG
      05501  0600 00 0 07237         STZ     JFLG
      05502  0600 00 0 07233  SUBC   STZ     FFLG
      05503 -0520 00 0 07234         NZT     IFLG
      05504  0020 00 0 05512         TRA     SUB1
      05505  0600 00 0 07234         STZ     IFLG
      05506 -0625 00 0 07233         STL     FFLG
      05507  0600 00 0 07626         STZ     BUF2+50
      05510  0520 00 0 07237         ZET     JFLG
      05511  0074 00 4 03604         TSX     SUB,4
      05512  0074 00 4 02604  SUB1   TSX     GETBC,4
      05513  0737 00 1 00000         PAC     ,1
      05514  0535 00 4 07626         LAC     BUF2+50,4
      05515  1 77777 4 05516         TXI     *+1,4,-1
      05516  0636 00 4 07626         SCA     BUF2+50,4
      05517 -0636 00 0 07626         SCD     BUF2+50,0
      05520 -3 77774 1 05522         TXL     *+2,1,-4
      05521 -3 77775 1 05570         TXL     SUB2,1,-3
      05522 -0774 00 2 07625         AXC     BUF2+50-1,2
      05523 -3 77765 1 00014         TXL     BUF3,1,-11
      05524  3 77766 1 00014         TXH     BUF3,1,-10
      05525 -0625 00 0 07234         STL     IFLG
      05526  0520 00 0 07235         ZET     INTFLG
      05527  0020 00 0 01274         TRA     TYPE4
      05530  0020 00 0 00014         TRA     BUF3
      05531  0535 00 4 07237  SUBF   LAC     JFLG,4
      05532 -3 00000 4 05555         TXL     SUB5,4,0
      05533 -0500 00 4 07742         CAL     BUF5-2,4
      05534 -0320 00 0 11403         ANA     =O77777
      05535  0602 00 0 07264         SLW     COPY
      05536 -0500 00 0 07626         CAL     BUF2+50
1     FAP ASSEMBLY LISTING ... ... ...          FILE    0QED   FAP               06/22/70 1518.5 PAGE 48

      05537 -0320 00 0 11403         ANA     =O77777
      05540 -0340 00 0 07264         LAS     COPY
      05541  1 00002 4 05532         TXI     SUBF+1,4,2
      05542  0020 00 0 05544         TRA     *+2
      05543  1 00002 4 05532         TXI     SUBF+1,4,2
      05544 -0500 00 2 00001         CAL     1,2
      05545 -0320 00 0 11403         ANA     =O77777
      05546  0602 00 0 07264         SLW     COPY
      05547 -0500 00 4 07742         CAL     BUF5-2,4
      05550  0771 00 0 00022         ARS     18
      05551 -0340 00 0 07264         LAS     COPY
      05552  0020 00 0 05561         TRA     SUB6
      05553  0020 00 0 02121         TRA     FAIL
      05554  0020 00 0 02121         TRA     FAIL
      05555  0535 00 4 07237  SUB5   LAC     JFLG,4
      05556  1 77776 4 05557         TXI     *+1,4,-2
      05557 -3 77634 4 01256         TXL     TYPE0,4,-100
      05560  0636 00 4 07237         SCA     JFLG,4
      05561 -0500 00 2 00001  SUB6   CAL     1,2
      05562  0602 00 4 07743         SLW     BUF5-1,4
      05563  0767 00 0 00022         ALS     18
      05564  0602 00 4 07742         SLW     BUF5-2,4
      05565 -0500 00 0 07626         CAL     BUF2+50
      05566  0621 00 4 07742         STA     BUF5-2,4
      05567  0020 00 2 00002         TRA     2,2
      05570 -0774 00 4 00000  SUB2   AXC     **,4
      05571 -0500 00 4 00000         CAL     00,4
      05572 -0737 00 4 00000         PDC     ,4
      05573  0636 00 4 07024         SCA     DOT,4
      05574  0520 00 0 07032         ZET     SFLG
      05575  0074 00 4 01420         TSX     BLINE,4
      05576  0020 00 0 00765         TRA     ADDRES
      05577 -0625 00 0 07032  CVERIF STL     SFLG
      05600  0020 00 0 05413         TRA     CSUBST+1
      05601 -0520 00 0 07265  CWRITE NZT     AFLG
      05602  0074 00 4 03406         TSX     SETFL,4
      05603  0074 00 4 03415         TSX     CKWRAP,4
      05604  0074 00 4 03106         TSX     GETFN,4
      05605 -0500 00 2 07065         CAL     SHFT,2
      05606  0621 00 0 04244         STA     WR5
      05607  0771 00 0 00022         ARS     18
      05610  0621 00 0 04245         STA     WR6
      05611  0621 00 0 04247         STA     WR6+2
      05612 -0500 00 2 07075         CAL     RETRN+4,2
      05613  0621 00 0 05663         STA     WR3
      05614  0771 00 0 00022         ARS     18
      05615  0621 00 0 04225         STA     WR13
      05616 -0500 00 2 07061         CAL     OCT3+4,2
      05617  0602 00 0 07055         SLW     OCT3
      05620  0535 00 4 07246         LAC     ADDR1,4
      05621  0636 00 4 05637         SCA     WR1,4
      05622  0535 00 4 07247         LAC     ADDR2,4
      05623 -0636 00 4 05637         SCD     WR1,4
      05624  0074 00 4 07325         TSX     OPEN,4
      05625  3 00000 0 11473         PAR     =HW
      05626  3 00000 0 07337         PAR     FILNAM
1     FAP ASSEMBLY LISTING ... ... ...          FILE    0QED   FAP               06/22/70 1518.5 PAGE 49

      05627  3 00000 0 07340         PAR     FILNAM+1
      05630  3 00000 0 07270         PAR     FMODE
      05631  3 00000 0 11442         PAR     =-0
      05632  3 00000 0 01314         PAR     TYPE8
      05633  3 00000 0 07264         PAR     COPY
      05634 -0625 00 0 07300         STL     FILFLG
      05635  0600 00 0 07261         STZ     GOOD
      05636  0074 00 4 02527         TSX     SETBC,4
      05637  0 00000 0 00000  WR1    PZE     **,,**
      05640  0074 00 4 07326         TSX     BUFFER,4
      05641  3 00000 0 07337         PAR     FILNAM
      05642  3 00000 0 07340         PAR     FILNAM+1
      05643  3 00660 0 00014         PAR     BUF3,,432
      05644  0600 00 0 07240         STZ     CPLFLG
      05645  0074 00 4 07331         TSX     TRFILE,4
      05646  3 00000 0 07337         PAR     FILNAM
      05647  3 00000 0 07340         PAR     FILNAM+1
      05650  3 00000 0 11317         PAR     =1
      05651  3 00000 0 05653         PAR     *+2
      05652  3 00000 0 07264         PAR     COPY
      05653  3 77776 2 05656         TXH     *+3,2,-2
      05654 -0774 00 2 00001         AXC     1,2
      05655  0020 00 0 05657         TRA     *+2
      05656 -0774 00 2 00000         AXC     00,2
      05657  0522 00 0 04244         XEC     WR5
      05660  1 00001 3 05661         TXI     *+1,3,1
      05661  0074 00 4 02604  WR2    TSX     GETBC,4
      05662  0737 00 1 00000         PAC     ,1
      05663  0020 00 0 00000  WR3    TRA     **
      05664  0520 00 0 07265  CAUDIT ZET     AFLG
      05665  0020 00 0 01264         TRA     TYPE2
      05666  0074 00 4 03057         TSX     GETBN,4
      05667  0602 00 0 05027         SLW     MO2
      05670  0535 00 4 07251         LAC     ZER,4
      05671 -0500 00 4 00000         CAL     00,4
      05672  0737 00 4 00000         PAC     ,4
      05673 -0130 00 0 00000         XCL
      05674  0500 00 4 00000         CLA     00,4
      05675 -0120 00 0 01300         TMI     TYPE5
      05676 -0600 00 0 05700         STQ     *+2
      05677  0074 00 4 02527         TSX     SETBC,4
      05700  0 00000 0 00000         PZE     **,,**
      05701 -0500 00 0 05027         CAL     MO2
      05702  0074 00 4 03304         TSX     BOPEN,4
      05703  0535 00 4 07251         LAC     ZER,4
      05704 -0500 00 4 00000         CAL     00,4
      05705  0737 00 4 00000         PAC     ,4
      05706  0500 00 4 00000         CLA     00,4
      05707 -0120 00 0 05712         TMI     *+3
      05710  0074 00 4 03406         TSX     SETFL,4
      05711  0074 00 4 03425         TSX     DELETE,4
      05712  0074 00 4 03406         TSX     SETFL,4
      05713  0600 00 0 07237         STZ     JFLG
      05714  0560 00 0 05724         LDQ     CAU2
      05715 -0600 00 0 05723         STQ     CAU1
      05716 -0625 00 0 07033         STL     VFLG
1     FAP ASSEMBLY LISTING ... ... ...          FILE    0QED   FAP               06/22/70 1518.5 PAGE 50

      05717  0074 00 4 03177         TSX     INSERT,4
      05720  0 00000 0 05723         PZE     CAU1
      05721  0600 00 0 07033         STZ     VFLG
      05722  0020 00 0 00765         TRA     ADDRES
      05723  0020 00 0 00000  CAU1   TRA     **
      05724  0020 00 0 05725  CAU2   TRA     *+1
      05725  0535 00 1 02621         LAC     BC2,1
      05726  0520 00 1 00003         ZET     03,1
      05727  0020 00 0 05741         TRA     CAU2.1
      05730  0560 00 0 06020         LDQ     CAU3
      05731 -0600 00 0 05723         STQ     CAU1
      05732  0560 00 0 07237         LDQ     JFLG
      05733  0074 00 1 04325         TSX     CNVBD,1
      05734 -0500 00 0 11352         CAL     =O61
      05735  0602 00 0 07504         SLW     BUF1+96
      05736  0636 00 0 06021         SCA     CAU3+1,0
      05737 -0500 00 0 11343         CAL     =O47
      05740  0020 00 4 00001         TRA     1,4
      05741 -0500 00 0 07237  CAU2.1 CAL     JFLG
      05742  0400 00 0 11317         ADD     =1
      05743 -0340 00 1 00003         LAS     03,1
      05744  0020 00 0 01300         TRA     TYPE5
      05745  0020 00 0 06004         TRA     CAU2.2
      05746  0560 00 0 06034         LDQ     CAU4
      05747 -0600 00 0 05723         STQ     CAU1
      05750 -0500 00 0 07237         CAL     JFLG
      05751  0400 00 0 11317         ADD     =1
      05752  0131 00 0 00000         XCA
      05753  0074 00 1 04325         TSX     CNVBD,1
      05754 -0500 00 0 11371         CAL     =O174
      05755  0602 00 0 07504         SLW     BUF1+96
      05756  0535 00 1 02621         LAC     BC2,1
      05757 -0500 00 1 00003         CAL     03,1
      05760  0402 00 0 11317         SUB     =1
      05761  0602 00 0 07237         SLW     JFLG
      05762  0131 00 0 00000         XCA
      05763                          DIVIDE  10,91
      05766                          DIVIDE  10,92
      05771                          DIVIDE  10,93
      05774 -0600 00 0 07502         STQ     BUF1+94
      05775 -0500 00 0 11370         CAL     =O167
      05776  0602 00 0 07503         SLW     BUF1+95
      05777 -0500 00 0 11353         CAL     =O64
      06000  0602 00 0 07476         SLW     BUF1+90
      06001 -0500 00 0 11343         CAL     =O47
      06002  0636 00 0 06035         SCA     CAU4+1,0
      06003  0020 00 4 00001         TRA     1,4
      06004  0520 00 0 07034  CAU2.2 ZET     EFLG
      06005  0020 00 0 02604         TRA     GETBC
      06006 -0500 00 1 00003         CAL     03,1
      06007  0602 00 0 07237         SLW     JFLG
      06010  0636 00 4 06016         SCA     *+6,4
      06011  0074 00 4 02604         TSX     GETBC,4
      06012 -0340 00 0 11325         LAS     =O12
      06013  0020 00 0 06011         TRA     *-2
      06014  0020 00 0 06016         TRA     *+2
1     FAP ASSEMBLY LISTING ... ... ...          FILE    0QED   FAP               06/22/70 1518.5 PAGE 51

      06015  0020 00 0 06011         TRA     *-4
      06016 -0774 00 4 00000         AXC     **,4
      06017  0020 00 0 05724         TRA     CAU2
      06020  0020 00 0 06021  CAU3   TRA     *+1
      06021 -0774 00 1 00000         AXC     **,1
      06022 -0500 00 1 07510         CAL     BUF1+100,1
      06023  0361 00 0 11351         ACL     =O60
      06024  1 00001 1 06025         TXI     *+1,1,1
      06025  0636 00 1 06021         SCA     CAU3+1,1
      06026 -3 00005 1 06033         TXL     CAU3.1,1,5
      06027  0560 00 0 06050         LDQ     CAU5
      06030 -0600 00 0 05723         STQ     CAU1
      06031  0600 00 0 07234         STZ     IFLG
      06032 -0500 00 0 11325         CAL     =O12
      06033  0020 00 4 00001  CAU3.1 TRA     1,4
      06034  0020 00 0 06035  CAU4   TRA     *+1
      06035 -0774 00 1 00000         AXC     **,1
      06036 -0500 00 1 07510         CAL     BUF1+100,1
      06037  0361 00 0 11351         ACL     =O60
      06040 -0320 00 0 11372         ANA     =O177
      06041  1 00001 1 06042         TXI     *+1,1,1
      06042  0636 00 1 06035         SCA     CAU4+1,1
      06043 -3 00013 1 06047         TXL     CAU4.1,1,11
      06044  0560 00 0 05724         LDQ     CAU2
      06045 -0600 00 0 05723         STQ     CAU1
      06046 -0500 00 0 11325         CAL     =O12
      06047  0020 00 4 00001  CAU4.1 TRA     1,4
      06050  0020 00 0 06051  CAU5   TRA     *+1
      06051  0636 00 4 06111         SCA     CAU5.3,4
      06052  0520 00 0 07234         ZET     IFLG
      06053  0020 00 0 06072         TRA     CAU5.1
      06054  0074 00 4 02604         TSX     GETBC,4
      06055 -0340 00 0 11331         LAS     =O30
      06056  0020 00 0 06104         TRA     CAU5.2
      06057  0020 00 0 06104         TRA     CAU5.2
      06060 -0340 00 0 11325         LAS     =O12
      06061  0020 00 0 06111         TRA     CAU5.3
      06062  0020 00 0 06064         TRA     *+2
      06063  0020 00 0 06111         TRA     CAU5.3
      06064  0535 00 1 02621         LAC     BC2,1
      06065 -0520 00 1 00003         NZT     03,1
      06066  0020 00 0 06111         TRA     CAU5.3
      06067 -0500 00 0 11325         CAL     =O12
      06070  0602 00 0 07234         SLW     IFLG
      06071  0020 00 0 06111         TRA     CAU5.3
      06072 -0500 00 0 07234  CAU5.1 CAL     IFLG
      06073  0600 00 0 07234         STZ     IFLG
      06074 -0340 00 0 11325         LAS     =O12
      06075  0020 00 0 06111         TRA     CAU5.3
      06076  0020 00 0 06100         TRA     *+2
      06077  0020 00 0 06111         TRA     CAU5.3
      06100  0560 00 0 05724         LDQ     CAU2
      06101 -0600 00 0 05723         STQ     CAU1
      06102 -0500 00 0 11334         CAL     =O34
      06103  0020 00 0 06111         TRA     CAU5.3
      06104 -0340 00 0 11340  CAU5.2 LAS     =O40
1     FAP ASSEMBLY LISTING ... ... ...          FILE    0QED   FAP               06/22/70 1518.5 PAGE 52

      06105  0020 00 0 06111         TRA     CAU5.3
      06106  0020 00 0 06111         TRA     CAU5.3
      06107  0602 00 0 07234         SLW     IFLG
      06110 -0500 00 0 11332         CAL     =O31
      06111 -0774 00 4 00000  CAU5.3 AXC     **,4
      06112  0020 00 4 00001         TRA     1,4
      06113  0520 00 0 07274  CNLCR  ZET     CFLG
      06114  0020 00 0 06121         TRA     CNC1
      06115  0535 00 4 07024         LAC     DOT,4
      06116 -0500 00 4 00000         CAL     00,4
      06117  0621 00 0 07024         STA     DOT
      06120  0020 00 0 05220         TRA     CPRINT
      06121 -0520 00 0 07265  CNC1   NZT     AFLG
      06122  0020 00 0 00765         TRA     ADDRES
      06123 -0500 00 0 07247         CAL     ADDR2
      06124  0602 00 0 07246         SLW     ADDR1
      06125  0020 00 0 05220         TRA     CPRINT
      06126  0074 00 4 02257  CBLANK TSX     GETCHA,4
      06127  0020 00 0 04400         TRA     COMAND
      06130  0520 00 0 07265  CQUIT  ZET     AFLG
      06131  0020 00 0 01264         TRA     TYPE2
      06132  0074 00 4 02257         TSX     GETCHA,4
      06133 -0340 00 0 11325         LAS     =O12
      06134  0020 00 0 01320         TRA     TYPE9
      06135  0020 00 0 06137         TRA     *+2
      06136  0020 00 0 01264         TRA     TYPE2
      06137  0074 00 4 01420         TSX     BLINE,4
      06140  0520 00 0 07301         ZET     PMTFLG
      06141  0074 00 4 07306         TSX     FORBID,4
      06142  0074 00 4 07334         TSX     SETBCD,4
      06143  0074 00 4 07314         TSX     CHNCOM,4
      06144  0 00000 0 00001         PZE     1
      06145  0020 00 0 01320         TRA     TYPE9
      06146 -0520 00 0 07265  CGLOB  NZT     AFLG
      06147  0074 00 4 03406         TSX     SETFL,4
      06150  0074 00 4 02257         TSX     GETCHA,4
      06151 -3 77765 1 06153         TXL     *+2,1,-11
      06152 -3 77766 1 01320         TXL     TYPE9,1,-10
      06153 -0500 60 0 00010         CAL*    CNVTBL
      06154  0771 00 0 00033         ARS     27
      06155 -0320 00 0 11337         ANA     =O37
      06156  0737 00 1 00000         PAC     ,1
      06157  0402 00 0 11331         SUB     =24
      06160 -0100 00 0 06167         TNZ     CG6
      06161  0636 00 1 06164         SCA     *+3,1
      06162  0074 00 4 02257         TSX     GETCHA,4
      06163  0636 00 1 04507         SCA     CAN01,1
      06164 -0774 00 1 00000         AXC     **,1
      06165  0402 00 0 11325         SUB     =O12
      06166  0100 00 0 01320         TZE     TYPE9
      06167 -0500 00 1 05043  CG6    CAL     COLST,1
      06170 -0737 00 4 00000         PDC     ,4
      06171  0636 00 4 06244         SCA     CG3,4
      06172  0074 00 4 02257         TSX     GETCHA,4
      06173 -3 77765 1 06175         TXL     *+2,1,-11
      06174 -3 77766 1 01320         TXL     TYPE9,1,-10
1     FAP ASSEMBLY LISTING ... ... ...          FILE    0QED   FAP               06/22/70 1518.5 PAGE 53

      06175  0602 00 0 07273         SLW     SLCHR
      06176  0600 00 0 07263         STZ     SUBFLG
      06177  0074 00 4 01426         TSX     COMPIL,4
      06200  0020 00 0 06234         TRA     CGF
      06201  0 00000 0 06214         PZE     CGC
      06202  0535 00 4 07246         LAC     ADDR1,4
      06203  0636 00 4 06211         SCA     CG1,4
      06204  0535 00 4 07247         LAC     ADDR2,4
      06205 -0636 00 4 06211       U SCD     CG1,4
      06206 -0500 00 4 00000         CAL     00,4
      06207  0621 00 0 06250         STA     CG4
      06210  0074 00 4 02527         TSX     SETBC,4
      06211  0 00000 0 00000  CG1    PZE     **,,**
      06212 -0625 00 0 07234         STL     IFLG
      06213  0600 00 0 07237         STZ     JFLG
      06214  0600 00 0 07233  CGC    STZ     FFLG
      06215 -0520 00 0 07234         NZT     IFLG
      06216  0020 00 0 06223         TRA     CG5
      06217  0600 00 0 07234         STZ     IFLG
      06220 -0625 00 0 07233         STL     FFLG
      06221  0520 00 0 07237         ZET     JFLG
      06222  0020 00 0 06236         TRA     CG2
      06223  0074 00 4 02604  CG5    TSX     GETBC,4
      06224  0737 00 1 00000         PAC     ,1
      06225 -3 77774 1 06227         TXL     *+2,1,-4
      06226 -3 77775 1 06250         TXL     CG4,1,-3
      06227 -0774 00 2 07625         AXC     BUF2+50-1,2
      06230 -3 77765 1 00014         TXL     BUF3,1,-11
      06231  3 77766 1 00014         TXH     BUF3,1,-10
      06232 -0625 00 0 07234         STL     IFLG
      06233  0020 00 0 00014         TRA     BUF3
      06234 -0625 00 0 07237  CGF    STL     JFLG
      06235  0020 00 2 00002         TRA     2,2
      06236  0535 00 2 02621  CG2    LAC     BC2,2
      06237 -0500 00 2 00000         CAL     00,2
      06240 -0737 00 2 00000         PDC     ,2
      06241  0636 00 2 07246         SCA     ADDR1,2
      06242  0636 00 2 07247         SCA     ADDR2,2
      06243 -0625 00 0 07265         STL     AFLG
      06244  0074 00 4 00000  CG3    TSX     **,4
      06245 -0625 00 0 07234         STL     IFLG
      06246  0600 00 0 07237         STZ     JFLG
      06247  0020 00 0 06214         TRA     CGC
      06250 -0774 00 2 00000  CG4    AXC     **,2
      06251 -0500 00 2 00000         CAL     00,2
      06252 -0737 00 2 00000         PDC     ,2
      06253  0636 00 2 07024         SCA     DOT,2
      06254  0020 00 0 00765         TRA     ADDRES
      06255  0074 00 4 06257  CCOLN  TSX     COLN0,4
      06256  0020 00 0 00765         TRA     ADDRES
      06257  0636 00 4 06313  COLN0  SCA     CCL4,4
      06260 -0520 00 0 07265         NZT     AFLG
      06261  0074 00 4 03406         TSX     SETFL,4
      06262 -0500 00 0 11370         CAL     =O167
      06263  0602 00 0 07511         SLW     BUF1+101
      06264  0535 00 4 07247         LAC     ADDR2,4
1     FAP ASSEMBLY LISTING ... ... ...          FILE    0QED   FAP               06/22/70 1518.5 PAGE 54

      06265  0500 00 4 00000         CLA     00,4
      06266  0120 00 0 06271         TPL     *+3
      06267 -0754 00 0 00000         ZAC
      06270  0020 00 0 06300         TRA     CCL1
      06271  0500 00 4 00003         CLA     03,4
      06272 -0100 00 0 06300         TNZ     CCL1
      06273 -0500 00 0 11360         CAL     =O132
      06274  0602 00 0 07510         SLW     BUF1+100
      06275 -0500 00 0 11357         CAL     =O123
      06276  0602 00 0 07507         SLW     BUF1+99
      06277  0020 00 0 06306         TRA     CCL2
      06300  0131 00 0 00000  CCL1   XCA
      06301  0074 00 1 04325         TSX     CNVBD,1
      06302 -0500 00 0 11360         CAL     =O132
      06303  0602 00 0 07504         SLW     BUF1+96
      06304 -0500 00 0 11357         CAL     =O123
      06305  0602 00 0 07503         SLW     BUF1+95
      06306  0636 00 0 06315  CCL2   SCA     CCL3,0
      06307  0074 00 4 03502         TSX     PRINT,4
      06310  0 00000 0 06315         PZE     CCL3
      06311 -0500 00 0 07247         CAL     ADDR2
      06312  0602 00 0 07024         SLW     DOT
      06313 -0774 00 4 00000  CCL4   AXC     **,4
      06314  0020 00 4 00001         TRA     1,4
      06315 -0774 00 1 00000  CCL3   AXC     **,1
      06316  0500 00 1 07511         CLA     BUF1+101,1
      06317  1 00001 1 06320         TXI     *+1,1,1
      06320  0636 00 1 06315         SCA     CCL3,1
      06321  0361 00 0 11351         ACL     =O60
      06322 -0320 00 0 11372         ANA     =O177
      06323  0100 00 0 06315         TZE     CCL3
      06324  0020 00 4 00001         TRA     1,4
      06325  0074 00 4 06327  CEQALS TSX     EQALS0,4
      06326  0020 00 0 00765         TRA     ADDRES
      06327  0636 00 4 06345  EQALS0 SCA     EQALS1,4
      06330 -0520 00 0 07265         NZT     AFLG
      06331  0074 00 4 03406         TSX     SETFL,4
      06332  0535 00 1 07247         LAC     ADDR2,1
      06333  0636 00 1 07024         SCA     DOT,1
      06334 -0500 00 0 11356         CAL     =O120
      06335  0602 00 0 07520         SLW     BUF1+108
      06336  0602 00 0 07517         SLW     BUF1+107
      06337  0602 00 0 07516         SLW     BUF1+106
      06340  0602 00 0 07515         SLW     BUF1+105
      06341  0602 00 0 07514         SLW     BUF1+104
      06342  0602 00 0 07513         SLW     BUF1+103
      06343  0602 00 0 07512         SLW     BUF1+102
      06344  0074 00 4 04340         TSX     LENGTH,4
      06345 -0774 00 4 00000  EQALS1 AXC     **,4
      06346  0020 00 4 00001         TRA     1,4
      06347  0520 00 0 07265  CDBUFR ZET     AFLG
      06350  0020 00 0 01264         TRA     TYPE2
      06351  0535 00 4 07243         LAC     BBASE,4
      06352  0636 00 4 06364         SCA     DBU1,4
      06353  0535 00 4 07242         LAC     BUFER,4
      06354 -0500 00 0 07251         CAL     ZER
1     FAP ASSEMBLY LISTING ... ... ...          FILE    0QED   FAP               06/22/70 1518.5 PAGE 55

      06355  0602 00 4 00001         SLW     01,4
      06356 -0500 00 0 11367         CAL     =O162
      06357  0602 00 0 07520         SLW     BUF1+108
      06360  0602 00 0 07512         SLW     BUF1+102
      06361 -0500 00 4 00003         CAL     03,4
      06362  0602 00 0 07547         SLW     BUF2+3
      06363  0020 00 0 06374         TRA     DBU2
      06364 -0774 00 4 00000  DBU1   AXC     **,4
      06365 -3 00000 4 00765         TXL     ADDRES,4,0
      06366 -0500 00 4 00000         CAL     00,4
      06367  0621 00 0 06364         STA     DBU1
      06370 -0500 00 4 00003         CAL     03,4
      06371 -0340 00 0 07547         LAS     BUF2+3
      06372  0020 00 0 06374         TRA     DBU2
      06373  0020 00 0 06364         TRA     DBU1
      06374 -0130 00 0 00000  DBU2   XCL
      06375 -0754 00 0 00000         ZAC
      06376 -0763 00 0 00010         LGL     8
      06377  0361 00 0 11356         ACL     =O120
      06400  0602 00 0 07517         SLW     BUF1+107
      06401 -0754 00 0 00000         ZAC
      06402 -0763 00 0 00007         LGL     7
      06403  0361 00 0 11356         ACL     =O120
      06404  0602 00 0 07516         SLW     BUF1+106
      06405 -0754 00 0 00000         ZAC
      06406 -0763 00 0 00007         LGL     7
      06407  0361 00 0 11356         ACL     =O120
      06410  0602 00 0 07515         SLW     BUF1+105
      06411 -0754 00 0 00000         ZAC
      06412 -0763 00 0 00007         LGL     7
      06413  0361 00 0 11356         ACL     =O120
      06414  0602 00 0 07514         SLW     BUF1+104
      06415 -0754 00 0 00000         ZAC
      06416 -0763 00 0 00007         LGL     7
      06417  0361 00 0 11356         ACL     =O120
      06420  0602 00 0 07513         SLW     BUF1+103
      06421 -0500 60 4 00001         CAL*    01,4
      06422 -0737 00 1 00000         PDC     ,1
      06423  0074 00 4 04340         TSX     LENGTH,4
      06424  0020 00 0 06364         TRA     DBU1
      06425 -0500 00 0 11351  ICOM   CAL     =O60
      06426 -0765 00 0 00006         LGR     6
      06427 -0600 00 0 07512         STQ     BUF1+102
      06430 -0500 00 0 07345         CAL     BUF1+1
      06431  0602 00 0 07513         SLW     BUF1+103
      06432 -0500 00 0 11433         CAL     =HFROM
      06433  0602 00 0 07511         SLW     BUF1+101
      06434 -0500 00 0 11451         CAL     =O555560606060
      06435  0602 00 0 07514         SLW     BUF1+104
      06436  0074 00 4 07334         TSX     SETBCD,4
      06437  0074 00 4 07323         TSX     WRFLX,4
      06440  0 00004 0 07511         PZE     BUF1+101,,4
      06441 -0625 00 0 07302         STL     ICFLG
      06442 -0520 00 0 07271         NZT     FBDFLG
      06443  0020 00 0 06467         TRA     CRNCOM-1
      06444  0074 00 4 07323         TSX     WRFLX,4
1     FAP ASSEMBLY LISTING ... ... ...          FILE    0QED   FAP               06/22/70 1518.5 PAGE 56

      06445  0 00003 0 06455         PZE     MES5,,3
      06446  0074 00 4 07332         TSX     WRMESS,4
      06447  0 00000 0 07512         PZE     BUF1+102
      06450  0 00000 0 07513         PZE     BUF1+103
      06451  0 00007 0 06460         PZE     MES6,,7
      06452  0600 00 0 07302         STZ     ICFLG
      06453  0074 00 4 07335         TSX     SETFUL,4
      06454  0020 00 0 02266         TRA     GC0
      06455  663163306021     MES5   BCI     3,WITH APOLOGIES.
      06456  474643462731
      06457  256233606060
      06460 +106162157155     MES6   OCT     106162157155,040121105104,040167151164
      06461 +040121105104
      06462 +040167151164
      06463 +150040141160            OCT     150040141160,157154157147,151145163056,003040040040
      06464 +157154157147
      06465 +151145163056
      06466 +003040040040
      06467  0020 00 0 06472         TRA     *+3
      06470  0520 00 0 07265  CRNCOM ZET     AFLG
      06471  0020 00 0 01264         TRA     TYPE2
      06472  0074 00 4 07307         TSX     GETCLS,4
      06473  0 00001 0 07344         PZE     BUF1,,1
      06474  0074 00 4 07307         TSX     GETCLS,4
      06475  0 00002 0 07370         PZE     BUF1+20,,2
      06476  0074 00 4 07307         TSX     GETCLS,4
      06477  0 00003 0 07414         PZE     BUF1+40,,3
      06500  0074 00 4 07307         TSX     GETCLS,4
      06501  0 00004 0 07440         PZE     BUF1+60,,4
      06502  0074 00 4 07307         TSX     GETCLS,4
      06503  0 00005 0 07464         PZE     BUF1+80,,5
      06504  0074 00 4 07311         TSX     GETCLC,4
      06505  0602 00 0 07510         SLW     BUF1+100
      06506  0520 00 0 07301         ZET     PMTFLG
      06507  0074 00 4 07306         TSX     FORBID,4
      06510  0520 00 0 07302         ZET     ICFLG
      06511  0020 00 0 06574         TRA     CRCIC
      06512  0535 00 4 07242         LAC     BUFER,4
      06513 -0500 00 4 00003         CAL     03,4
      06514  0602 00 0 06634         SLW     CRC1
      06515  0074 00 4 03057         TSX     GETBN,4
      06516  0074 00 4 03304         TSX     BOPEN,4
      06517  0535 00 4 07251         LAC     ZER,4
      06520 -0500 00 4 00000         CAL     00,4
      06521  0601 00 0 06523         STO     *+2
      06522  0074 00 4 02527         TSX     SETBC,4
      06523  0 00000 0 00000         PZE     **,,**
      06524 -0774 00 4 00001         AXC     1,4
      06525 -0636 00 4 06604         SCD     CRC8,4
      06526  0074 00 4 02604  CRC2   TSX     GETBC,4
      06527 -0340 00 0 11321         LAS     =3
      06530  0020 00 0 06532         TRA     *+2
      06531  0020 00 0 06635         TRA     CRC1+1
      06532 -0340 00 0 11325         LAS     =O12
      06533  0020 00 0 06535         TRA     *+2
      06534  0020 00 0 06526         TRA     CRC2
1     FAP ASSEMBLY LISTING ... ... ...          FILE    0QED   FAP               06/22/70 1518.5 PAGE 57

      06535 -0340 00 0 11340         LAS     =O40
      06536  0020 00 0 06540         TRA     *+2
      06537  0020 00 0 06526         TRA     CRC2
      06540 -0774 00 2 00000         AXC     00,2
      06541  0560 00 0 11454         LDQ     =H
      06542 -0600 00 2 07511         STQ     BUF1+101,2
      06543  0737 00 1 00000  CRC4   PAC     ,1
      06544 -0500 60 0 00010         CAL*    CNVTBL
      06545  0771 00 0 00010         ARS     8
      06546  0560 00 2 07511         LDQ     BUF1+101,2
      06547 -0773 00 0 00006         RQL     6
      06550 -0765 00 0 00006         LGR     6
      06551 -0773 00 0 00006         RQL     6
      06552 -0600 00 2 07511         STQ     BUF1+101,2
      06553  0074 00 4 02604         TSX     GETBC,4
      06554 -0340 00 0 11325         LAS     =O12
      06555  0020 00 0 06557         TRA     *+2
      06556  1 77777 2 06563         TXI     CRC3,2,-1
      06557 -0340 00 0 11340         LAS     =O40
      06560  0020 00 0 06543         TRA     CRC4
      06561  1 77777 2 06563         TXI     CRC3,2,-1
      06562  0020 00 0 06543         TRA     CRC4
      06563 -0340 00 0 11325  CRC3   LAS     =O12
      06564  0020 00 0 06566         TRA     *+2
      06565  0020 00 0 06601         TRA     CRC5
      06566 -0340 00 0 11340         LAS     =O40
      06567  0020 00 0 06541         TRA     CRC4-2
      06570  0020 00 0 06572         TRA     *+2
      06571  0020 00 0 06541         TRA     CRC4-2
      06572  0074 00 4 02604         TSX     GETBC,4
      06573  0020 00 0 06563         TRA     CRC3
      06574  0774 00 4 00001  CRCIC  AXT     1,4
      06575 -0634 00 4 06604         SXD     CRC8,4
      06576 -0500 00 0 11456         CAL     =H WRITE
      06577  0602 00 0 07511         SLW     BUF1+101
      06600 -0774 00 2 00003         AXC     3,2
      06601  0560 00 0 11476  CRC5   LDQ     =O777777777777
      06602 -0600 00 2 07511         STQ     BUF1+101,2
      06603  0074 00 4 07310         TSX     SETCLS,4
      06604  0 00000 0 07511  CRC8   PZE     BUF1+101,,**
      06605 -0535 00 4 06604         LDC     CRC8,4
      06606  1 77777 4 06607         TXI     *+1,4,-1
      06607 -0636 00 4 06604         SCD     CRC8,4
      06610  0520 00 0 07302         ZET     ICFLG
      06611  0020 00 0 06637         TRA     CRC1.1
      06612  3 77773 4 06526         TXH     CRC2,4,-5
      06613  0074 00 4 07310         TSX     SETCLS,4
      06614  0 00000 0 06625         PZE     CRC6,,0
      06615  0074 00 4 07310         TSX     SETCLS,4
      06616  0 00005 0 06631         PZE     CRC7,,5
      06617 -0500 00 0 11410         CAL     =O5000001
      06620  0074 00 4 07312         TSX     SETCLC,4
      06621 -0500 00 0 06625         CAL     CRC6
      06622  0560 00 0 06626         LDQ     CRC6+1
      06623  0074 00 4 07313         TSX     NEXCOM,4
      06624  0020 00 0 06524         TRA     CRC2-2
1     FAP ASSEMBLY LISTING ... ... ...          FILE    0QED   FAP               06/22/70 1518.5 PAGE 58

      06625  606062216525     CRC6   BCI     3,  SAVEQEDXXX     T
      06626  502524676767
      06627  606060606063
      06630 -377777777777            OCT     777777777777
      06631  512562644425     CRC7   BCI     2,RESUMEQEDXXX
      06632  502524676767
      06633 -377777777777            OCT     777777777777
      06634  0 00000 0 00000  CRC1   PZE
      06635 -0500 00 0 06634         CAL     CRC1
      06636  0074 00 4 03304         TSX     BOPEN,4
      06637 -0535 00 1 06604  CRC1.1 LDC     CRC8,1
      06640  3 77776 1 06654         TXH     CRC9,1,-2
      06641  0074 00 4 07310         TSX     SETCLS,4
      06642  0 00000 0 06625         PZE     CRC6,,0
      06643 -0636 00 1 06645         SCD     *+2,1
      06644  0074 00 4 07310         TSX     SETCLS,4
      06645  0 00000 0 06631         PZE     CRC7,,**
      06646 -0756 00 1 00000         PCD     ,1
      06647 -0501 00 0 11317         ORA     =1
      06650  0074 00 4 07312         TSX     SETCLC,4
      06651 -0500 00 0 06625         CAL     CRC6
      06652  0560 00 0 06626         LDQ     CRC6+1
      06653  0074 00 4 07313         TSX     NEXCOM,4
      06654  0074 00 4 07335  CRC9   TSX     SETFUL,4
      06655  0074 00 4 01420         TSX     BLINE,4
      06656  0074 00 4 07310         TSX     SETCLS,4
      06657  0 00001 0 07344         PZE     BUF1,,1
      06660  0074 00 4 07310         TSX     SETCLS,4
      06661  0 00002 0 07370         PZE     BUF1+20,,2
      06662  0074 00 4 07310         TSX     SETCLS,4
      06663  0 00003 0 07414         PZE     BUF1+40,,3
      06664  0074 00 4 07310         TSX     SETCLS,4
      06665  0 00004 0 07440         PZE     BUF1+60,,4
      06666  0074 00 4 07310         TSX     SETCLS,4
      06667  0 00005 0 07464         PZE     BUF1+80,,5
      06670 -0500 00 0 07510         CAL     BUF1+100
      06671  0074 00 4 07312         TSX     SETCLC,4
      06672 -0520 00 0 07301         NZT     PMTFLG
      06673  0020 00 0 06677         TRA     CRC9.1
      06674  0074 00 4 07305         TSX     PERMIT,4
      06675  3 00000 0 07026         PAR     PPPMT
      06676  3 00000 0 07027         PAR     PPPMT+1
      06677 -0520 00 0 07302  CRC9.1 NZT     ICFLG
      06700  0020 00 0 00765         TRA     ADDRES
      06701  0600 00 0 07302         STZ     ICFLG
      06702  0020 00 0 02266         TRA     GC0
      06703  0074 00 4 02257  CCOMNT TSX     GETCHA,4
      06704 -0340 00 0 11325         LAS     =O12
      06705  0020 00 0 06703         TRA     CCOMNT
      06706  0020 00 0 00765         TRA     ADDRES
      06707  0020 00 0 06703         TRA     CCOMNT
      06710 -0520 00 0 07265  CSORT  NZT     AFLG
      06711  0074 00 4 03406         TSX     SETFL,4
      06712  0074 00 4 03415         TSX     CKWRAP,4
      06713  0636 00 3 07022         SCA     CSRT3,3
      06714  0535 00 1 07246         LAC     ADDR1,1
1     FAP ASSEMBLY LISTING ... ... ...          FILE    0QED   FAP               06/22/70 1518.5 PAGE 59

      06715 -0500 00 1 00001  NEWI   CAL     1,1
      06716  0737 00 2 00000         PAC     ,2
      06717  0771 00 0 00022         ARS     18
      06720  0602 00 0 07013         SLW     ENDI
      06721  0756 00 1 00000         PCA     ,1
      06722  0737 00 3 00000         PAC     ,3
      06723  0756 00 3 00000  INCJ   PCA     ,3
      06724  0402 00 0 07247         SUB     ADDR2
      06725  0100 00 0 07014         TZE     INCI
      06726 -0500 00 3 00000         CAL     0,3
      06727  0737 00 3 00000         PAC     ,3
      06730 -0500 00 3 00001         CAL     1,3
      06731  0737 00 4 00000         PAC     ,4
      06732 -0500 00 4 00001         CAL     1,4
      06733 -0340 00 2 00001         LAS     1,2
      06734  0020 00 0 06723         TRA     INCJ
      06735  0020 00 0 06750         TRA     CSRT2
      06736 -0500 00 3 00001  CSRT1  CAL     1,3
      06737  0560 00 1 00001         LDQ     1,1
      06740 -0600 00 3 00001         STQ     1,3
      06741  0602 00 1 00001         SLW     1,1
      06742  0600 00 1 00003         STZ     3,1
      06743  0600 00 3 00003         STZ     3,3
      06744  0737 00 2 00000         PAC     ,2
      06745  0771 00 0 00022         ARS     18
      06746  0602 00 0 07013         SLW     ENDI
      06747  0020 00 0 06723         TRA     INCJ
      06750  0636 00 2 07010  CSRT2  SCA     CSRT4,2
      06751 -0500 00 4 00002         CAL     2,4
      06752 -0340 00 2 00002         LAS     2,2
      06753  0020 00 0 07010         TRA     CSRT4
      06754  0020 00 0 06756         TRA     *+2
      06755  0020 00 0 06736         TRA     CSRT1
      06756 -0500 00 4 00003         CAL     3,4
      06757 -0340 00 2 00003         LAS     3,2
      06760  0020 00 0 07010         TRA     CSRT4
      06761  0020 00 0 06763         TRA     *+2
      06762  0020 00 0 06736         TRA     CSRT1
      06763 -0500 00 2 00000         CAL     0,2
      06764  0771 00 0 00017         ARS     15
      06765  0602 00 0 07012         SLW     CSRTT
      06766 -0500 00 4 00000         CAL     0,4
      06767  0737 00 4 00000         PAC     ,4
      06770  0771 00 0 00017         ARS     15
      06771 -0340 00 0 07012         LAS     CSRTT
      06772  0020 00 0 07010         TRA     CSRT4
      06773  0020 00 0 06775         TRA     *+2
      06774  0020 00 0 06736         TRA     CSRT1
      06775  0756 00 2 00000         PCA     ,2
      06776 -0340 00 0 07013         LAS     ENDI
      06777  0020 00 0 07001         TRA     *+2
      07000  0020 00 0 07010         TRA     CSRT4
      07001 -0500 00 2 00000         CAL     0,2
      07002  0737 00 2 00000         PAC     ,2
      07003 -0500 00 4 00001         CAL     1,4
      07004 -0340 00 2 00001         LAS     1,2
1     FAP ASSEMBLY LISTING ... ... ...          FILE    0QED   FAP               06/22/70 1518.5 PAGE 60

      07005  0020 00 0 07010         TRA     CSRT4
      07006  0020 00 0 06751         TRA     CSRT2+1
      07007  0020 00 0 06736         TRA     CSRT1
      07010 -0774 00 2 00000  CSRT4  AXC     **,2
      07011  0020 00 0 06723         TRA     INCJ
      07012  0 00000 0 00000  CSRTT
      07013  0 00000 0 00000  ENDI
      07014  0756 00 1 00000  INCI   PCA     ,1
      07015  0402 00 0 07247         SUB     ADDR2
      07016  0100 00 0 07022         TZE     CSRT3
      07017 -0500 00 1 00000         CAL     0,1
      07020  0737 00 1 00000         PAC     ,1
      07021  0020 00 0 06715         TRA     NEWI
      07022 -0774 00 3 00000  CSRT3  AXC     **,3
      07023  0020 00 0 00765         TRA     ADDRES
      07024  0 00000 0 00000  DOT
      07025  0 00000 0 00000  CAPFLG
      07026                   PPPMT  BSS     2
      07030                   TFLG   BSS     2
      07032  0 00000 0 00000  SFLG
      07033  0 00000 0 00000  VFLG
      07034  0 00000 0 00000  EFLG
      07035 +000000000101     TYCHA  OCT     101,1,141,1,107,2,147,2,123,3,163,3,124,4,164,4
      07036 +000000000001
      07037 +000000000141
      07040 +000000000001
      07041 +000000000107
      07042 +000000000002
      07043 +000000000147
      07044 +000000000002
      07045 +000000000123
      07046 +000000000003
      07047 +000000000163
      07050 +000000000003
      07051 +000000000124
      07052 +000000000004
      07053 +000000000164
      07054 +000000000004
      07055 +000000000000     OCT3   OCT     00,003003003003,003003003003,777777000000,777777000000
      07056 +003003003003
      07057 +003003003003
      07060 -377777000000
      07061 -377777000000
      07062 +003000000000            OCT     003000000000,003000000000,575757575757,005700570057
      07063 +003000000000
      07064 -175757575757
      07065 +005700570057
                       07065  SHFT   SYN     *-1
      07066  0 00011 0 00004         PZE     4,,9
      07067  0 00011 0 00004         PZE     4,,9
      07070  0 00006 0 00006         PZE     6,,6
      07071  0 00014 0 00003         PZE     3,,12
                       07071  RETRN  SYN     *-1
      07072  0 00000 0 03022         PZE     GFASCI
      07073  0 00000 0 03011         PZE     GFGE
      07074  0 00000 0 03024         PZE     GFSIX
1     FAP ASSEMBLY LISTING ... ... ...          FILE    0QED   FAP               06/22/70 1518.5 PAGE 61

      07075  0 00000 0 03032         PZE     GFTWLV
      07076  0 00000 0 04307         PZE     WRASCI
      07077  0 00000 0 04306         PZE     WRGE
      07100  0 00010 0 04220         PZE     WRSXTW,,8
      07101  0 00000 0 04220         PZE     WRSXTW,,0
                       07101  FNASUM SYN     *-1
      07102  602162233131            BCI     4, ASCII ERROR   FAP(MEMO)
      07103  602551514651
      07104  606060262147
      07105  744425444634
                       07106         DUP     1,5
      07106 -0500 00 6 00001         CAL     01,6
      07107 -0500 00 6 00001
      07110 -0500 00 6 00001
      07111 -0500 00 6 00001
      07112 -0500 00 6 00001
                       07113         DUP     1,5
      07113 -0500 00 6 00002         CAL     02,6
      07114 -0500 00 6 00002
      07115 -0500 00 6 00002
      07116 -0500 00 6 00002
      07117 -0500 00 6 00002
                       07120         DUP     1,5
      07120 -0500 00 6 00003         CAL     03,6
      07121 -0500 00 6 00003
      07122 -0500 00 6 00003
      07123 -0500 00 6 00003
      07124 -0500 00 6 00003
                       07125         DUP     1,3
      07125 -0500 00 6 00000         CAL     00,6
      07126 -0500 00 6 00000
      07127 -0500 00 6 00000
                       07130  CAL    SYN     *
                       07130         DUP     5,3
      07130  0771 00 0 00034         ARS     28
      07131  0771 00 0 00025         ARS     21
      07132  0771 00 0 00016         ARS     14
      07133  0771 00 0 00007         ARS     7
      07134  0774 00 0 00000         AXT     00,0
      07135  0771 00 0 00034
      07136  0771 00 0 00025
      07137  0771 00 0 00016
      07140  0771 00 0 00007
      07141  0774 00 0 00000
      07142  0771 00 0 00034
      07143  0771 00 0 00025
      07144  0771 00 0 00016
      07145  0771 00 0 00007
      07146  0774 00 0 00000
      07147  0771 00 0 00035         ARS     29
      07150  0771 00 0 00026         ARS     22
      07151  0771 00 0 00017         ARS     15
                       07152  ARS    SYN     *
                       07152         DUP     5,3
      07152  0767 00 0 00034         ALS     28
      07153  0767 00 0 00025         ALS     21
1     FAP ASSEMBLY LISTING ... ... ...          FILE    0QED   FAP               06/22/70 1518.5 PAGE 62

      07154  0767 00 0 00016         ALS     14
      07155  0767 00 0 00007         ALS     7
      07156  0774 00 0 00000         AXT     00,0
      07157  0767 00 0 00034
      07160  0767 00 0 00025
      07161  0767 00 0 00016
      07162  0767 00 0 00007
      07163  0774 00 0 00000
      07164  0767 00 0 00034
      07165  0767 00 0 00025
      07166  0767 00 0 00016
      07167  0767 00 0 00007
      07170  0774 00 0 00000
      07171  0767 00 0 00035         ALS     29
      07172  0767 00 0 00026         ALS     22
      07173  0767 00 0 00017         ALS     15
                       07174  ALS    SYN     *
                       07174         DUP     1,5
      07174 -0602 00 2 00001         ORS     01,2
      07175 -0602 00 2 00001
      07176 -0602 00 2 00001
      07177 -0602 00 2 00001
      07200 -0602 00 2 00001
                       07201         DUP     1,5
      07201 -0602 00 2 00002         ORS     02,2
      07202 -0602 00 2 00002
      07203 -0602 00 2 00002
      07204 -0602 00 2 00002
      07205 -0602 00 2 00002
                       07206         DUP     1,5
      07206 -0602 00 2 00003         ORS     03,2
      07207 -0602 00 2 00003
      07210 -0602 00 2 00003
      07211 -0602 00 2 00003
      07212 -0602 00 2 00003
                       07213         DUP     1,3
      07213 -0602 00 2 00000         ORS     00,2
      07214 -0602 00 2 00000
      07215 -0602 00 2 00000
                       07216  ORS    SYN     *
      07216  0020 00 0 00014  TRA1   TRA     BUF3
      07217  0020 00 0 02121  TRA2   TRA     FAIL
      07220  0020 00 0 02241  TRA3   TRA     XCHG
      07221  0074 00 4 02137  TSX1   TSX     NODE,4
      07222  0074 00 4 02172  TSX2   TSX     CNODE,4
      07223  0074 00 2 00001  TSX3   TSX     1,2
      07224  0074 00 4 02036  TSX4   TSX     START,4
      07225  0074 00 4 02076  TSX5   TSX     FINISH,4
      07226 -3 00000 1 02121  TXL1   TXL     FAIL,1,**
      07227 -3 77765 1 00017  TXL2   TXL     BUF3+3,1,-11
      07230  3 00000 1 02121  TXH1   TXH     FAIL,1,**
      07231 -0520 00 0 07233  NZT1   NZT     FFLG
      07232  0520 00 0 00000  ZET1   ZET     0
      07233  0 00000 0 00000  FFLG
      07234  0 00000 0 00000  IFLG
      07235  0 00000 0 00000  INTFLG
1     FAP ASSEMBLY LISTING ... ... ...          FILE    0QED   FAP               06/22/70 1518.5 PAGE 63

      07236  0 00000 0 00000  RFLG
      07237  0 00000 0 00000  JFLG
      07240  0 00000 0 00000  CPLFLG
      07241  0 00000 0 00000  RECLEV
      07242  0 00000 0 00000  BUFER
      07243  0 00000 0 00000  BBASE
      07244  0 00000 0 00000  INPUT
      07245  0 00000 0 00000  IBASE
      07246  0 00000 0 00000  ADDR1
      07247  0 00000 0 00000  ADDR2
      07250  0 00000 0 00000  ADDR3
      07251  0 00000 0 00000  ZER
      07252 +000000000200     B      OCT     200
      07253 +000000000200     V      OCT     200
      07254 +000000000200     E      OCT     200
      07255 +000000000043     A      OCT     43
      07256 +000000000200     W      OCT     200
      07257 +000000000100     Q      OCT     100
      07260 +000000000200     R      OCT     200
      07261  0 00000 0 00000  GOOD
      07262  0 00000 0 00000  NSCHA
      07263  0 00000 0 00000  SUBFLG
      07264  0 00000 0 00000  COPY
      07265  0 00000 0 00000  AFLG
      07266  0 00000 0 00000  BFLG
      07267  0 00000 0 00000  TRCFLG
      07270  0 00000 0 00000  FMODE
      07271  0 00000 0 00000  FBDFLG
      07272  0 00000 0 00000  EXFLG
      07273  0 00000 0 00000  SLCHR
      07274  0 00000 0 00000  CFLG
      07275  0 00000 0 00000  DFLG
      07276  0 00000 0 00000  PAFLG
      07277  0 00000 0 00000  PLFLG
      07300  0 00000 0 00000  FILFLG
      07301  0 00000 0 00000  PMTFLG
      07302  0 00000 0 00000  ICFLG
      07303  0101 00 0 11466  WHOAMI TIA     =HWHOAMI
      07304  0101 00 0 11440  GETIME TIA     =HGETIME
      07305  0101 00 0 11425  PERMIT TIA     =HALLOW
      07306  0101 00 0 11432  FORBID TIA     =HFORBID
      07307  0101 00 0 11436  GETCLS TIA     =HGETCLS
      07310  0101 00 0 11462  SETCLS TIA     =HSETCLS
      07311  0101 00 0 11435  GETCLC TIA     =HGETCLC
      07312  0101 00 0 11461  SETCLC TIA     =HSETCLC
      07313  0101 00 0 11443  NEXCOM TIA     =HNEXCOM
      07314  0101 00 0 11427  CHNCOM TIA     =HCHNCOM
      07315  0101 00 0 11437  GETCOM TIA     =HGETCOM
      07316  0101 00 0 11460  SETBRK TIA     =HSETBRK
      07317  0101 00 0 11434  GETBRK TIA     =HGETBRK
      07320  0101 00 0 11441  GETMEM TIA     =HGETMEM
      07321  0101 00 0 11431  DORMNT TIA     =HDORMNT
      07322  0101 00 0 11446  RDFLXA TIA     =HRDFLXA
      07323  0101 00 0 11470  WRFLX  TIA     =HWRFLX
      07324  0101 00 0 11430  CLOSE  TIA     =HCLOSE
      07325  0101 00 0 11444  OPEN   TIA     =HOPEN
1     FAP ASSEMBLY LISTING ... ... ...          FILE    0QED   FAP               06/22/70 1518.5 PAGE 64

      07326  0101 00 0 11426  BUFFER TIA     =HBUFFER
      07327  0101 00 0 11447  RDWAIT TIA     =HRDWAIT
      07330  0101 00 0 11472  WRWAIT TIA     =HWRWAIT
      07331  0101 00 0 11465  TRFILE TIA     =HTRFILE
      07332  0101 00 0 11471  WRMESS TIA     =HWRMESS
      07333  0101 00 0 11467  WRFLXA TIA     =HWRFLXA
      07334  0101 00 0 11457  SETBCD TIA     =HSETBCD
      07335  0101 00 0 11463  SETFUL TIA     =HSETFUL
      07336  0101 00 0 11464  SETMEM TIA     =HSETMEM
      07337 +000000000000     FILNAM OCT     00,0
      07340 +000000000000
      07341  0774 00 0 00000         EVEN
      07342                   AC     BSS     2
      07344                   BUF1   BSS     128
      07544                   BUF2   BSS     128
                       00014  BUF3   SYN     QED
      07744                   BUF5   BSS     128
      10144                   BUF6   BSS     302
      10622                   BUF7   BSS     302
      11300                   SCHARS BSS     10
      11312 +000000000000     SYLBUF OCT     00,0,0,0
      11313 +000000000000
      11314 +000000000000
      11315 +000000000000
                                     END

        LITERALS
      11316  000000000000
      11317  000000000001
      11320  000000000002
      11321  000000000003
      11322  000000000004
      11323  000000000006
      11324  000000000011
      11325  000000000012
      11326  000000000015
      11327  000000000016
      11330  000000000017
      11331  000000000030
      11332  000000000031
      11333  000000000033
      11334  000000000034
      11335  000000000035
      11336  000000000036
      11337  000000000037
      11340  000000000040
      11341  000000000041
      11342  000000000046
      11343  000000000047
      11344  000000000052
      11345  000000000054
      11346  000000000055
      11347  000000000056
      11350  000000000057
      11351  000000000060
      11352  000000000061
1     FAP ASSEMBLY LISTING ... ... ...          FILE    0QED   FAP               06/22/70 1518.5 PAGE 65

      11353  000000000064
      11354  000000000070
      11355  000000000077
      11356  000000000120
      11357  000000000123
      11360  000000000132
      11361  000000000141
      11362  000000000142
      11363  000000000144
      11364  000000000154
      11365  000000000156
      11366  000000000160
      11367  000000000162
      11370  000000000167
      11371  000000000174
      11372  000000000177
      11373  000000000200
      11374  000000000201
      11375  000000000377
      11376  000000000400
      11377  000000000454
      11400  000000000600
      11401  000000000624
      11402  000000077774
      11403  000000077777
      11404  000000100000
      11405  000000200000
      11406  000000600060
      11407  000005000000
      11410  000005000001
      11411  000100600060
      11412  000200600060
      11413  000300600060
      11414  000400600060
      11415  000500600060
      11416  000600600060
      11417  000700600060
      11420  001000600060
      11421  001100600060
      11422  006200550060
      11423  016200550060
      11424  024000000000
      11425  214343466660
      11426  226426262551
      11427  233045234644
      11430  234346622560
      11431  244651444563
      11432  264651223124
      11433  265146446060
      11434  272563225142
      11435  272563234323
      11436  272563234362
      11437  272563234644
      11440  272563314425
      11441  272563442544
      11442  400000000000
1     FAP ASSEMBLY LISTING ... ... ...          FILE    0QED   FAP               06/22/70 1518.5 PAGE 66

      11443  452567234644
      11444  464725456060
      11445  475146263143
      11446  512426436721
      11447  512466213163
      11450  516060606060
      11451  555560606060
      11452  606060262147
      11453  606060502524
      11454  606060606060
      11455  606064622551
      11456  606651316325
      11457  622563222324
      11460  622563225142
      11461  622563234323
      11462  622563234362
      11463  622563266443
      11464  622563442544
      11465  635126314325
      11466  663046214431
      11467  665126436721
      11470  665126436760
      11471  665144256262
      11472  665166213163
      11473  666060606060
      11474  742631223460
      11475  777777000000
      11476  777777777777
1     FAP ASSEMBLY LISTING ... ... ...          FILE    0QED   FAP               06/22/70 1518.5 PAGE 1
                        POST PROCESSOR ASSEMBLY DATA

      11477 IS THE FIRST LOCATION NOT USED BY THIS PROGRAM

0REFERENCES TO DEFINED SYMBOLS
       7255      A  5106, 5214
       7252      B  2374, 5100
       7254      E  3210, 5111
       7257      Q  5134, 5216
       7260      R  2377, 5120
       7253      V  2371, 5103, 5213
       7256      W  5125, 5215
       7342     AC   675,  676,  677,  706,  707,  710
       3663     S1  3660, 3661
       3617     S3  3625, 3634, 3640
       3645     S4  3617
       3705     S5  3612, 3654, 3655, 3700, 3703
       3626     S6  3623, 3644
       3635     S7  3624
       3754     S8  3666, 3670, 3766, 4001
       3756     S9  3665
       1461    AD1  1450
       7174    ALS  3261, 3274, 7174
       1511    AN1  1437
       7152    ARS  2456, 2613, 7152
       2612    BC1  2606
       2621    BC2  1057, 2462, 2464, 2540, 2542, 2544, 2573, 2576, 2600, 2617, 2626, 2636, 2655, 2657, 2661, 3605, 4560
                    5255, 5326, 5725, 5756, 6064, 6236
       2634    BC3  2623
       2641    BC4  1064, 1071, 2471, 2605
       3066    BN1  3101
       3075    BN2  3070, 3071, 3073
       3102    BN3  3072
       3105    BN6  3065, 3076, 3100, 3102
       3103    BN7  3057, 3062, 3063, 3064
       3314    BO1  3322
       3323    BO2  3314
       3371    BO3  3317
       3376    BO4  3304, 3370
       3400    BO5  3305, 3315, 3340
       7130    CAL  2455, 2612, 7130
       6211    CG1  6203, 6205
       6236    CG2  6222
       6244    CG3  6171
       6250    CG4  6207, 6226
       6223    CG5  6216
       6167    CG6  6160
       6214    CGC  6201, 6247
       6234    CGF  6200
       1463    CH1  1451, 1455, 1461, 1531
       1500    CH2  1471
       3417    CK1  3423
       5032    CO1  5101, 5104, 5107, 5112, 5116, 5121, 5123, 5126, 5132, 5135, 5137, 5151, 5156, 5161, 5163, 5165, 5171
                    5172, 5176, 5207, 5211
       5212    CO2  5034
       5077    CO3  5045
1     FAP ASSEMBLY LISTING ... ... ...          FILE    0QED   FAP               06/22/70 1518.5 PAGE 2
                        POST PROCESSOR ASSEMBLY DATA

       5102    CO4  5046
       5105    CO5  5050
       5110    CO6  5051
       5113    CO7  5052
       5117    CO8  5055
       5122    CO9  5056
       1635    COR  1563
       7024    DOT  1031, 1100, 1251, 3236, 3300, 3307, 3346, 3374, 3401, 3442, 3452, 4462, 4531, 4534, 4605, 4607, 4777
                    5230, 5573, 6115, 6117, 6253, 6312, 6333
       2733    FC1   152, 2670, 2723, 2731
       3124    FN3
       3136    FN4  3130, 3132, 3134, 3140, 3164, 3171, 3174
       3144    FN5  3137, 3141, 3152, 3154, 3156
       3157    FN6  3153, 3155
       3175    FN7  3106, 3142
       2266    GC0  6454, 6702
       2300    GC1  2321, 2323
       2350    GC4  2524, 2526
       2345    GC5   721, 2262, 2265
       2415    GC6  2403
       2503    GC8  2444
       2753    GF1  2741, 2743, 3010
       2757    GF2  2701, 2737, 2756
       2762    GF3  2703, 3046, 3054
       2765    GF4  2672, 2673, 2763
       3003    GF5  2751
       3040    GF6  3031
       3050    GF7  3026, 3035
       3044    GF8  3017, 3021, 3023
       1412    IL1  1401
       1375    IL2  1365, 1370, 1372
         74    IN1   102
        102    IN2    65
        155    IN3   145
       1447    IO1  5114, 5130
       1464    IO2  5115, 5131
       1474    LP1  1454, 1460
        750    MM1   724,  731
        753    MM2   734
        742    MM3   750
        755    MM4   735
       5012    MO1  4770, 4772
       5027    MO2  4626, 4725, 4766, 5024, 5667, 5701
       2141    NO1  1571, 2147, 2152, 2241, 2243
       2147    NO2  2142
       2157    NO3  2145
       1542    OP0  1700, 1712, 1746, 2006
       1544    OP1  1541, 1545, 1603
       1557    OP2  1544
       1504    OR1  1453
       7216    ORS  3262, 3275, 7216
        157    PM1   234
        216    PM2   223,  225,  226
        227    PM3   221
        232    PM4   160
1     FAP ASSEMBLY LISTING ... ... ...          FILE    0QED   FAP               06/22/70 1518.5 PAGE 3
                        POST PROCESSOR ASSEMBLY DATA

        235    PM5   155,  156
        240    PMN   200,  205,  222,  250,  260,  262
       3535    PR2  3543, 3562, 3563
       3545    PR3  3507, 3547, 3561, 3565
       3557    PR4  3553
       3561    PR5  3551
       3601    PR6  3502
       3513    PR7  3504, 3522, 3524, 3564
       3565    PR9  3516, 3572, 3574
       3202    PU1  3303
       3243    PU2  3272
       3256    PU3  3267
       3265    PU4  3201, 3202
       3276    PU5  3177, 3212, 3214, 3216
       3300    PU6  3264
       3215    PU7  3207
       3273    PU8  3260
         14    QED     0,  674, 7744
       2567    RE1  2527, 2562
       1514    RP0  1452
       1523    RP1  1457
       1533    RP2  1520, 1522, 1525, 1527
       3771    S10  3765
       4004    S11  3764, 3777, 4000
       4005    S12  3754, 3770, 4003
       3717    S13  3710, 3711
       3730    S16  3735, 3736, 3751
       4007    S17  3715, 3723, 4022, 4102, 4115, 4124
       4011    S18  3714
       4053    S19  4020, 4021, 4045, 4051, 4056, 4077, 4123, 4125, 4135
       4103    S20  4017, 4052, 4073, 4101
       4104    S21  4007, 4062, 4067, 4122, 4130
       4024    S22  4037
       4032    S23  4023, 4035, 4040, 4043, 4046, 4074, 4076, 4126
       4040    S24  4026
       4106    S25  4061
       4116    S26  4106, 4114, 4121, 4147
       4126    S27  4065
       4044    S28  4100
       4122    S30  4113
       4111    S31  4152
       4131    S32  4071
       4145    S33  4141
       4135    S34  4144
       1530    SL1  1443
       1526    ST1  1456
       3604    SUB  5511
       5637    WR1  5621, 5623
       5661    WR2  4231, 4251, 4275, 4306
       5663    WR3  5613
       4234    WR4  4230, 4232, 4307, 4310
       4244    WR5  4236, 5606, 5657
       4245    WR6  4234, 4255, 4314, 5610, 5611
       4252    WR7  4223
       4300    WR8  4267
1     FAP ASSEMBLY LISTING ... ... ...          FILE    0QED   FAP               06/22/70 1518.5 PAGE 4
                        POST PROCESSOR ASSEMBLY DATA

       4322    WR9  4320
       4216    WRX  4167, 4201, 4203
       7251    ZER   142,  773, 1073, 1155, 1253, 1350, 2474, 3311, 3330, 3345, 3372, 3406, 4636, 5014, 5400, 5670, 5703
                    6354, 6517
       1161   AAN1  1171
        775   ADR1  1013, 1224, 1227, 1255
       1222   ADV2  1014, 1020, 1022
       1225   ADV3  1146, 1217, 1221
       7265   AFLG   770, 1223, 1226, 3111, 3165, 3170, 3404, 3413, 3426, 3465, 3477, 4442, 4453, 4471, 4512, 4600, 4615
                    4761, 5030, 5033, 5223, 5370, 5413, 5601, 5664, 6121, 6130, 6146, 6243, 6260, 6330, 6347, 6470, 6710
       1173   AREL  1066, 1077, 1102, 1156, 1164
       7266   BFLG   771, 1230, 1235, 3112, 3157, 3173
       4376   BOR1  4365, 4371, 4374
       7344   BUF1    16,   17, 2267, 2270, 2302, 3510, 3546, 3555, 3557, 3570, 3600, 3673, 3675, 4033, 4042, 4047, 4117
                    4127, 4176, 4274, 4327, 4332, 4335, 4336, 4352, 4354, 4356, 4643, 4644, 4645, 4646, 4650, 4651, 4653
                    4654, 4660, 4663, 4666, 4671, 4674, 4677, 4702, 4703, 4705, 4706, 4710, 4732, 4753, 4757, 5344, 5735
                    5755, 5765, 5770, 5773, 5774, 5776, 6000, 6022, 6036, 6263, 6274, 6276, 6303, 6305, 6316, 6335, 6336
                    6337, 6340, 6341, 6342, 6343, 6357, 6360, 6400, 6404, 6410, 6414, 6420, 6427, 6430, 6431, 6433, 6435
                    6440, 6447, 6450, 6473, 6475, 6477, 6501, 6503, 6505, 6542, 6546, 6552, 6577, 6602, 6604, 6657, 6661
                    6663, 6665, 6667, 6670
       7544   BUF2  1052, 1433, 1542, 1551, 1553, 1600, 1624, 1637, 1652, 1655, 1662, 1667, 1701, 1705, 1710, 1715, 1723
                    1741, 1751, 1755, 2013, 2015, 2032, 2034, 2071, 2115, 2143, 2153, 2155, 2157, 2170, 2201, 2203, 2205
                    2246, 2247, 2252, 2730, 2750, 2754, 3005, 3007, 3051, 3613, 3614, 3622, 3626, 3631, 3632, 3633, 3637
                    3651, 3664, 3720, 3733, 3740, 3756, 3760, 3761, 3771, 3772, 3776, 4011, 4013, 4014, 4024, 4030, 4036
                    4107, 4110, 4133, 4134, 4137, 4146, 4151, 4154, 4164, 4213, 4246, 4250, 4253, 4257, 4262, 4273, 4312
                    4316, 4620, 4622, 4623, 4641, 4655, 4712, 4714, 4716, 4720, 5507, 5514, 5516, 5517, 5522, 5536, 5565
                    6227, 6362, 6371
         14   BUF3   162,  164,  166,  170,  172,  174,  202,  207,  211,  213,  230,  232,  255, 1053, 1054, 1056, 1573
                    1617, 1621, 1623, 1626, 1627, 1633, 1641, 1642, 1646, 1650, 1666, 1671, 1672, 1673, 1675, 1722, 1725
                    1726, 1727, 1733, 1735, 1736, 1743, 1744, 1754, 1767, 1773, 2000, 2010, 2012, 2021, 2025, 2027, 2721
                    5523, 5524, 5530, 5643, 6230, 6231, 6233, 7216, 7227, 7744
       7744   BUF5  3620, 3627, 3635, 3642, 3650, 3652, 3731, 3737, 3746, 3750, 4054, 5466, 5471, 5533, 5547, 5562, 5564
                    5566
      10144   BUF6   132,  134,  136, 2314, 2325, 2327, 2333, 2337, 2346
      10622   BUF7  3517, 3527, 3531, 3535, 4540, 4551, 4556, 4574
       1712   CAN1  1703, 1704, 1711
       1701   CAND  1564
       5723   CAU1  5715, 5720, 5731, 5747, 6030, 6045, 6101
       5724   CAU2  5714, 6017, 6044, 6100
       6020   CAU3  5730, 5736, 6025
       6034   CAU4  5746, 6002, 6042
       6050   CAU5  6027
       1766   CCH1  1757, 1760, 1762, 1764
       1771   CCH2  2035
       2004   CCH3  2002, 2003, 2016, 2030
       2017   CCHC  1763
       2031   CCHL  1765
       1747   CCHR  1566
       2007   CCHZ  1761
       6300   CCL1  6270, 6272
       6306   CCL2  6277
       6315   CCL3  4360, 4362, 6306, 6310, 6320, 6323
       6313   CCL4  6257
       1567   CEOF  1426, 1536, 1560
       4342   CEQ1  4345
1     FAP ASSEMBLY LISTING ... ... ...          FILE    0QED   FAP               06/22/70 1518.5 PAGE 5
                        POST PROCESSOR ASSEMBLY DATA

       4346   CEQ2  4343
       7274   CFLG  2343, 2411, 2413, 2416, 2420, 6113
       1603   CLFP  1562
       3001   CLO1  2772
       2772   CLOS  1377, 2764, 3110, 4323
       6121   CNC1  6114
       2175   CNO1  1570, 2200, 2253
       2237   CNO3  2172, 2207, 2211
       2214   CNO4  2235
       2232   CNO5  2222, 2236
       5124   CO10  5060
       5127   CO11  5066
       5133   CO12  5070
       5136   CO13  5071
       5140   CO14  5054
       5162   CO15  5044
       5164   CO16  5047
       5166   CO17  5053, 5205
       5206   CO18  5057
       5210   CO19  5063
       3465   COP1  5032, 5077, 5102, 5105, 5110, 5117, 5124, 5133, 5140, 5167
       3477   COP2  3466, 3472
       7264   COPY    37,   46,  130, 1466, 1500, 1511, 1515, 1524, 1550, 1607, 1612, 2102, 2107, 2161, 2164, 2714, 2732
                    2752, 2777, 3003, 5535, 5540, 5546, 5551, 5633, 5652
       1667   COR1  1654, 1663
       5240   CPR1  5226, 5231
       5251   CPR2  5234, 5275, 5300, 5317
       5252   CPR3  5233, 5316
       5307   CPR4  5254, 5274
       5322   CPR5  5236, 5246, 5336, 5353, 5365
       5323   CPR6  5235, 5364
       5342   CPR7  5335, 5337, 5347
       5355   CPR8  5325, 5352
       5245   CPR9  5242
       6634   CRC1  6514, 6531, 6635
       6526   CRC2  6534, 6537, 6612, 6624
       6563   CRC3  6556, 6561, 6573
       6543   CRC4  6560, 6562, 6567, 6571
       6601   CRC5  6565
       6625   CRC6    20, 6614, 6621, 6622, 6642, 6651, 6652
       6631   CRC7    21, 6616, 6645
       6604   CRC8  6525, 6575, 6605, 6607, 6637
       6654   CRC9  6640
       5404   CRD1  5411
       5376   CRD2   151
       1602   CRTP  1561
       1713   CSTR  1565
       6364   DBU1  6352, 6367, 6373, 6424
       6374   DBU2  6363, 6372
       3444   DEL1  3457
       3460   DEL2  3454
       3463   DEL3  3425
       7275   DFLG   767, 1015, 1017, 1021, 1131, 1174, 1225
       7034   EFLG  2536, 2602, 2604, 2634, 2641, 2665, 5253, 5324, 6004
       7013   ENDI  6720, 6746, 6776
1     FAP ASSEMBLY LISTING ... ... ...          FILE    0QED   FAP               06/22/70 1518.5 PAGE 6
                        POST PROCESSOR ASSEMBLY DATA

       2121   FAIL  2165, 2166, 5553, 5554, 7217, 7226, 7230
       7233   FFLG  1041, 1045, 5502, 5506, 6214, 6220, 7231
       4156   FRE0  4161
       4165   FRE1  4153, 4155
       2422   GC10  2352
       2425   GC11   723, 1342, 2354
       2402   GC12  2356, 2441
       2366   GC13  2360
       2442   GC14  2361, 2373
       2371   GC15  2363, 2365, 2367
       2444   GC16  2364, 2376
       2506   GC17  2370, 2401
       2505   GC81  2447, 2501
       3011   GFGE  7073
       7261   GOOD  4170, 4265, 4271, 5635
       6425   ICOM  2275
       7234   IFLG  1037, 1042, 1044, 1055, 1060, 1434, 1436, 1502, 1512, 5500, 5503, 5505, 5525, 6031, 6052, 6070, 6072
                    6073, 6107, 6212, 6215, 6217, 6232, 6245
         56   INAR    27,   36
       7014   INCI  6725
       6723   INCJ  6734, 6747, 7011
        713   INT1   700,  703
        715   INT2   712
       7237   JFLG  1040, 1435, 1470, 1472, 1475, 1477, 1505, 1507, 1533, 3615, 3645, 3647, 3727, 3743, 3745, 5232, 5260
                    5263, 5265, 5272, 5304, 5501, 5510, 5531, 5555, 5560, 5713, 5732, 5741, 5750, 5761, 6007, 6213, 6221
                    6234, 6246
       4363   LEN1  4340
       1416   MES1  1362, 1413
        263   MES2   122
        764   MES3   757
       6455   MES5  6445
       6460   MES6  6451
       6715   NEWI  7021
       2137   NODE  7221
       1103   NUMB  1123, 1126, 1154
       7231   NZT1  2007, 5127
       7055   OCT3  2674, 2675, 3004, 4252, 4311, 5616, 5617
       7325   OPEN    30, 2705, 5624
       1200   REL1  1205
       1207   REL2  1175, 1214
       1216   REL3  1177
       1220   REL4  1201, 1210
       7236   RFLG   711,  717, 2263, 2342, 3511, 3602, 3671, 3674
       7032   SFLG  3653, 5412, 5574, 5577
       7065   SHFT  2676, 5605, 7066
       2255   SIZ1  2264, 2313, 2317, 2326, 3525, 3530, 4545, 4552, 4554
       2256   SIZ2  2330, 2334, 2340, 3532
       1036   SRC1  1033, 1034
       1041   SRC2  1030
       1057   SRC3  1027
       1067   SRC4  1051
       5512   SUB1  5504
       5570   SUB2  5420, 5521
       5434   SUB3  5467
       3752   SUB4  3604, 3616
1     FAP ASSEMBLY LISTING ... ... ...          FILE    0QED   FAP               06/22/70 1518.5 PAGE 7
                        POST PROCESSOR ASSEMBLY DATA

       5555   SUB5  5532
       5561   SUB6  5552
       5502   SUBC  5431
       5531   SUBF  5430, 5541, 5543
       7030   TFLG   715, 1341, 2353, 2431, 2436, 2437, 2440, 2510, 2511, 2512
       7216   TRA1  1631, 1644, 1665, 1731, 1752
       7217   TRA2  1721, 2011
       7220   TRA3  1577, 2202, 2251
       1335   TRAP  1261, 1265, 1271, 1275, 1301, 1305, 1311, 1315, 1321
       1361   TRP1  1337, 1346
       1360   TRP2  1345, 1355
       7221   TSX1  1766, 2026
       7222   TSX2  1674, 1742
       7223   TSX3  2140, 2174
       7224   TSX4  1622
       7225   TSX5  1620
       7230   TXH1  1772
       7226   TXL1  1777, 2024
       7227   TXL2  2020
       1237   UNK1  1231
       1243   UNK2  1236
       1252   UNK3  1245
       4731   UPD1  4722, 4724, 4735
       4744   UPD2  4730, 4734, 4742, 4746, 4760
       7033   VFLG   720, 1447, 1464, 1530, 2257, 2355, 2442, 2704, 3061, 3067, 3206, 3721, 3724, 4565, 4570, 5435, 5716
                    5721
       4323   WR10  4305
       4271   WR11  4303
       4304   WR12  4221
       4225   WR13  5615
       4306   WRGE  7077
       2254   XCH2  1576
       2241   XCHG  7220
          2   ZCMD  4550
       7232   ZET1  5113
       1147  AANUM  1011
       1012  ABLNK  1010
       7246  ADDR1  1233, 1240, 3402, 3412, 3415, 3431, 3443, 3462, 3712, 4515, 4563, 4632, 4767, 5006, 5225, 5474, 5620
                    6124, 6202, 6241, 6714
       7247  ADDR2   143, 1234, 1237, 1242, 3217, 3403, 3411, 3416, 3434, 3713, 4445, 4447, 4463, 4517, 4564, 4637, 4771
                    5227, 5372, 5374, 5416, 5472, 5622, 6123, 6204, 6242, 6264, 6311, 6332, 6724, 7015
       7250  ADDR3   774, 1127, 1145, 1173, 1216, 1220, 1232, 1241, 1250, 1254
       1073  ALAST  1006
       1126  ANUMB  1005
       1014  APLUS  1002
       1023  ASRCH  1004
       1230  AUNKN  1001
       7243  BBASE   104, 3313, 3342, 3344, 6351
       1420  BLINE  5575, 6137, 6655
       3304  BOPEN   106,  141,  147, 1347, 1356, 2451, 2502, 4456, 4630, 4726, 5004, 5025, 5702, 6516, 6636
       4365  BORCR  4444, 4460, 4602
       7242  BUFER   103, 1343, 2445, 3306, 3323, 3335, 3375, 4624, 4764, 6353, 6512
       4507  CAN01  5073, 6163
       4510  CAN02  4505
          3  CANON  2332
1     FAP ASSEMBLY LISTING ... ... ...          FILE    0QED   FAP               06/22/70 1518.5 PAGE 8
                        POST PROCESSOR ASSEMBLY DATA

       4522  CCAN1  4516, 4520, 4572
       4540  CCAN2  4526, 4530, 4542, 4544
       4573  CCAN3  4557, 4567, 4576
       4554  CCAN4
       4535  CCAN8  4511
       4546  CCAN9  4510
       6255  CCOLN  4437
       6146  CGLOB  4440
       1537  CILAD  1462, 1506, 1521, 1602, 1604, 1716
       4611  CLIST  4431
       7324  CLOSE    47, 2773
       4761  CMOVE  4415
       6113  CNLCR  4423
       2172  CNODE  7222
       4325  CNVBD  4350, 5334, 5733, 5753, 6301
       6257  COLN0  5075, 6255
       5043  COLST  5042, 6167
       5243  CPR10  5222
       6130  CQUIT  4425
       6574  CRCIC  6511
       5370  CREAD  4417
       6710  CSORT  4432
       6736  CSRT1  6755, 6762, 6774, 7007
       6750  CSRT2  6735, 7006
       7022  CSRT3  6713, 7016
       7010  CSRT4  6750, 6753, 6760, 6772, 7000, 7005
       7012  CSRTT  6765, 6771
       4441  CUNKN  4405
       7272  EXFLG  4044, 4072, 5432, 5453
       2135  FAIL1  2125, 2126
       7270  FMODE  5166, 5201, 5204, 5630
       4153  FREIT  3726, 3742
       2353  GC10R  2422, 2424
       2604  GETBC  1046, 1374, 2521, 4004, 4031, 4103, 4524, 4537, 5250, 5311, 5357, 5512, 5661, 6005, 6011, 6054, 6223
                    6526, 6553, 6572
       3057  GETBN  2450, 4455, 4475, 4627, 5003, 5666, 6515
       2737  GETFC  2677, 3012, 3015, 3043, 4613, 5377
       3106  GETFN  2671, 5604
       3024  GFSIX  7074
       7245  IBASE   110, 1406, 2434, 2513
       7302  ICFLG  6441, 6452, 6510, 6610, 6677, 6701
          5  INESC  3526
       7244  INPUT   107, 1403, 1411, 2530, 2551, 2645, 2650, 2653
       7262  NSCHA  1445, 1611, 1616, 5437
       1124  NUMB1  1104, 1111, 1112, 1120, 1121, 1122
       1133  NUMB2  1137
       1140  NUMB3  1132, 1144
       1145  NUMB4  1133, 1140
       7276  PAFLG  5147, 5154, 5157, 5247
       7277  PLFLG  5150, 5155, 5160, 5245
       7026  PPPMT    44,   53,   54, 6675, 6676
       3502  PRINT  1373, 3667, 4361, 4612, 5241, 6307
       7071  RETRN  2702, 5612, 7072
       2527  SETBC  1035, 1353, 2477, 3662, 3716, 4521, 5237, 5476, 5636, 5677, 6210, 6522
       3401  SETDD  3427, 4513, 4601, 4762, 5224, 5414
1     FAP ASSEMBLY LISTING ... ... ...          FILE    0QED   FAP               06/22/70 1518.5 PAGE 9
                        POST PROCESSOR ASSEMBLY DATA

       2670  SETFC   154, 4611, 5375
       3406  SETFL   150, 4443, 4631, 5005, 5371, 5602, 5710, 5712, 6147, 6261, 6331, 6711
       7273  SLCHR  1024, 1441, 1517, 5425, 5463, 6175
       2036  START  7224
       5466  SUB31  5436
       5460  SUB32  5447
       5463  SUB33  5455, 5457, 5461
       5446  SUB34  5440
       3613  SUBP1  3702, 3704, 3730
       3747  SUBP2  3741
       1324  TRAP1  1260, 4502
       1325  TRAP2  1264
       1326  TRAP3  1270
       1327  TRAP4  1274
       1330  TRAP5  1300
       1331  TRAP6  1304
       1332  TRAP7  1310
       1333  TRAP8  1314
       1334  TRAP9  1320
       7035  TYCHA  3115, 3122
       1256  TYPE0     0, 1615, 2105, 2151, 2177, 2316, 3520, 5557
       1260  TYPE1  1070, 1165, 1172
       1264  TYPE2  1153, 4441, 4454, 4472, 4616, 5031, 5665, 6131, 6136, 6350, 6471
       1270  TYPE3  1537
       1274  TYPE4   716,  766, 3205, 5527
       1300  TYPE5  1136, 1141, 1206, 1215, 5675, 5744
       1304  TYPE6  3420
       1310  TYPE7  2565
       1314  TYPE8  2713, 5632
       1320  TYPE9  3074, 3121, 3641, 3762, 3773, 4015, 4025, 4370, 4373, 4375, 4477, 4500, 4501, 5043, 5044, 5045, 5046
                    5050, 5051, 5052, 5053, 5055, 5056, 5057, 5060, 5061, 5062, 5063, 5064, 5065, 5066, 5067, 5070, 5071
                    5072, 5073, 5074, 5075, 5076, 5146, 5153, 5424, 5456, 6134, 6145, 6152, 6166, 6174
       7323  WRFLX   121,  756, 1412, 1421, 6437, 6444
       4203  WRITE  4240, 4321
       1100 ACURNT  1007
        765 ADDRES   127, 1072, 1357, 1415, 4324, 4452, 4457, 4466, 4470, 4503, 4506, 4610, 4614, 4727, 5026, 5217, 5221
                    5407, 5576, 5722, 6122, 6254, 6256, 6326, 6365, 6700, 6706, 7023
       1436 ADVANC  1556, 1610, 1634
       1015 AMINUS  1003
       7326 BUFFER  2716, 5640
       4442 CAPEND  4406
       7025 CAPFLG  2351, 3133, 3135, 5122, 5136
       5741 CAU2.1  5727
       6004 CAU2.2  5745
       6033 CAU3.1  6026
       6047 CAU4.1  6043
       6072 CAU5.1  6053
       6104 CAU5.2  6056, 6057
       6111 CAU5.3  6051, 6061, 6063, 6066, 6071, 6075, 6077, 6103, 6105, 6106
       5664 CAUDIT  4436
       6126 CBLANK  4424
       4453 CBUFER  4407
       4504 CCANON  4435
       4460 CCHANG  4410
       6703 CCOMNT  4434, 6705, 6707
1     FAP ASSEMBLY LISTING ... ... ...          FILE    0QED   FAP               06/22/70 1518.5 PAGE 10
                        POST PROCESSOR ASSEMBLY DATA

       6347 CDBUFR  4427
       4467 CDELET  4411
       6325 CEQALS  4426
       7314 CHNCOM  6143
       4600 CINSRT  4414
       3415 CKWRAP  3430, 4514, 4763, 5415, 5603, 6712
         10 CNVTBL    23,  252,  775, 1106, 1150, 2310, 3027, 3036, 3144, 3537, 4224, 4400, 4737, 5036, 6153, 6544
       5152 CO14.1  5143
       5157 CO14.2  5144
       4400 COMAND  1247, 6127
       1426 COMPIL  1026, 5427, 6177
       5030 COPTON  4430
       7240 CPLFLG  1444, 1446, 1535, 1574, 2722, 5644
       5263 CPR3.1  5257
       5270 CPR3.2  5264
       5274 CPR3.3  5262, 5306
       5277 CPR3.4  5267
       5303 CPR3.5  5277
       5320 CPR4.1  5310, 5313, 5315
       5354 CPR7.1  5350
       5351 CPR7.2  5330
       5366 CPR8.1  5356, 5361, 5363
       5220 CPRINT  4416, 6120, 6125
       6637 CRC1.1  6611
       6677 CRC9.1  6673
       6470 CRNCOM  4412, 6443
       4471 CSTRAP  4433
       5412 CSUBST  4420, 5600
       4615 CUPDAT  4413
       5577 CVERIF  4421
       5601 CWRITE  4422
       3425 DELETE  3725, 4461, 4467, 4571, 4635, 5011, 5047, 5711
       7321 DORMNT   753
          7 EKEDIT  2336
       6327 EQALS0  5064, 6325
       6345 EQALS1  6327
       7271 FBDFLG  5162, 5164, 6442
       7300 FILFLG  1376, 2715, 3000, 3107, 5634
       7337 FILNAM   177,  204, 2707, 2710, 2717, 2720, 2725, 2726, 2745, 2746, 2774, 2775, 3125, 3126, 3161, 3162, 3163
                    3167, 3172, 4173, 4174, 4210, 4211, 5626, 5627, 5641, 5642, 5646, 5647
       2105 FINIS1  2114
       2115 FINIS2  2111
       2117 FINIS3  2100
       2076 FINISH  7225
       7101 FNASUM  3124, 7102
       7306 FORBID  6141, 6507
          0 FREEDT   115
       2473 GC16.1  2463, 2465
       2474 GC16.2  2453, 2454, 2461, 2466, 2470, 2472
       7317 GETBRK   702
       2520 GETBUF  2261
       2257 GETCHA   772, 1012, 1065, 1076, 1101, 1105, 1147, 1222, 1252, 1440, 1514, 2443, 2504, 2517, 2525, 3060, 3066
                    3113, 3136, 3151, 3467, 4366, 4451, 4465, 4473, 4504, 4604, 5421, 5434, 6126, 6132, 6150, 6162, 6172
                    6703
       7311 GETCLC  6504
1     FAP ASSEMBLY LISTING ... ... ...          FILE    0QED   FAP               06/22/70 1518.5 PAGE 11
                        POST PROCESSOR ASSEMBLY DATA

       7307 GETCLS  6472, 6474, 6476, 6500, 6502
       7315 GETCOM   123,  175,  215
       7304 GETIME  4621
       7320 GETMEM    56,  725
       3022 GFASCI  7072
       3032 GFTWLV  7075
       1363 ILLADD  1257, 1263, 1267, 1273, 1277, 1303, 1307, 1313, 1317, 1323
          1 INITDT    24
       3177 INSERT   144, 3722, 4450, 4464, 4566, 4603, 4723, 5376, 5717
       7235 INTFLG   674,  762,  765, 1340, 1363, 2467, 3204, 5526
        674 INTRUP   120,  705
       4340 LENGTH  6344, 6423
        724 MORMEM  2061, 2227, 2557, 3240, 3247, 3327, 3334, 3364
       7313 NEXCOM  6623, 6653
       1540 OPONST  1427, 1473, 1476, 1503, 1510, 1513, 1534, 1555, 1606, 1636, 1677, 1714, 1745, 1747, 2005
          6 OUTESC  2324
       7305 PERMIT    52, 6674
       7301 PMTFLG    55, 6140, 6506, 6672
       5222 PRINT0  5054, 5220
       7322 RDFLXA  2266, 3672
       7327 RDWAIT    40, 2724, 2744
       7241 RECLEV   113, 1067, 1371, 1400, 1402, 2260, 2404, 2433, 2452, 2506, 2516, 2560, 2566, 2642, 2644
      11300 SCHARS  1613, 4132, 5441
       7334 SETBCD  6142, 6436
       7316 SETBRK   117,  704
       7312 SETCLC  6620, 6650, 6671
       7310 SETCLS  6603, 6613, 6615, 6641, 6644, 6656, 6660, 6662, 6664, 6666
       7335 SETFUL   116,  701, 1375, 6453, 6654
       7336 SETMEM    72,  737
          4 SETOPS  5212
       4746 SPREAD  4642, 4713, 4715, 4717, 4721
       2056 START0  2046
       2065 START1  2041
       2074 START2  2040
       2071 START3  2052
       2047 START4  2055
       7263 SUBFLG  1025, 2036, 2076, 2121, 2206, 5426, 6176
      11312 SYLBUF  2757, 2761
       7267 TRCFLG  1364, 5206, 5210
       7331 TRFILE  5645
       7303 WHOAMI    15, 4617
       4307 WRASCI  7076
       7333 WRFLXA  3554, 3577
       4167 WRITE1  4300, 4304
       7332 WRMESS  6446
       4220 WRSXTW  7100, 7101
       7330 WRWAIT  4172, 4207

0 NO ERROR IN ABOVE ASSEMBLY.
1                                                                                06/22/70 1519.9 PAGE 1

                       00356         ENTRY   SETOPS
                              *      SETOPS IS CALLED:
                              *      TSX     SETOPS,4
                              *      PZE     ESCAPE
                              *      PZE     ERASE
                              *      PZE     WORD
                              *      PZE     KILL
                              *
                              *      ESCAPE, ERASE, WORD, AND KILL ARE LOCATIONS CONTAINING
                              *      ALTERNATE CHARACTERS FOR BOX-C, BOX-E, BOX-W AND BOX-K RESP.
                              *
                       00204         ENTRY   EKEDIT
                              *
                              *      EKEDIT IS CALLED:
                              *      TSX     EKEDIT,4
                              *      PZE     BUF+BUFSIZ-1
                              *      PZE     CHRCNT
                              *      PZE     BUFSIZ
                              *
                              *      BUF+BUFSIZ-1 IS THE HIGHEST CORE LOCATION OF
                              *      AN ARRAY. THIS LOCATION CONTAINS THE FIRST CHARACTER.
                              *      CHRCNT IS THE CHARACTER COUNT. THE LAST CHARACTER MUST
                              *      BE A CARRIAGE RETURN.
                              *      BUFSIZ IS THE SIZE OF THE BUFFER.
                              *
                              *      ERASE AND KILL EDITING WILL BE PERFORMED ON THE CHARACTERS
                              *      IN THE BUFFER. ON RETURN, THE BUFFER WILL CONTAIN THE EDITED
                              *      CHARACTERS. CHRCNT WILL CONTAIN THE NEW COUNT.
                              *
                       00003         ENTRY   CANON
                              *
                              *      CANON IS CALLED WITH THE SAME PARAMETERS AS EKEDIT.
                              *
                              *      ON RETURN, THE BUFFER WILL CONTAIN THE CANONICALIZED LINE.
                              *      CHRCNT WILL CONTAIN THE SIZE OF THIS LINE.
                              *
                              TEST   MACRO   X
                                     IFF     TFLG,1,1
                                     TXH     $TYPE0,X,300
                                     END     TEST
                              *

        TRANSFER VECTOR
      00000  637047250060     TYPE0

        LINKAGE DIRECTOR
      00001  000000000000
      00002  622563464762

                       00001  TFLG   SET     1
                              *
      00003  0636 00 1 00175  CANON  SCA     XR,1
      00004  0636 00 2 00176         SCA     XR+1,2
      00005  0636 00 3 00177         SCA     XR+2,3
      00006  0636 00 4 00200         SCA     XR+3,4
      00007 -0500 00 4 00001         CAL     1,4
1                                                                                06/22/70 1519.9 PAGE 2

      00010  0621 00 0 00016         STA     GET
      00011  0621 00 0 00071         STA     GET1
      00012  0621 00 0 00042         STA     PUT
      00013  0774 00 2 00000         AXT     0,2
      00014  0774 00 3 00000         AXT     0,3
                              *
                              *      PASS1 WILL PLACE THE VALUE OF THE CHARACTER
                              *      POSITION IN THE DECREMENT OF ALL CHARACTERS. BACK SPACE,
                              *      RETURN, AND CARRIAGE RETURN ARE REMOVED.
                              *
      00015  0774 00 4 00000         AXT     0,4
      00016 -0500 00 2 00000  GET    CAL     **,2
      00017                          TEST    3
      00020  1 00001 2 00021         TXI     *+1,2,1
      00021                          TEST    2
      00022 -0340 00 0 00377         LAS     =O12          CARRIAGE RETURN
      00023  0020 00 0 00033         TRA     G1
      00024  0020 00 0 00046         TRA     PAS2
      00025 -0340 00 0 00375         LAS     =O10          BACK SPACE
      00026  1 00001 4 00042         TXI     PUT,4,1
      00027  0020 00 0 00031         TRA     *+2
      00030  1 00001 4 00042         TXI     PUT,4,1
      00031 -3 00000 4 00016         TXL     GET,4,0
      00032  1 77777 4 00016         TXI     GET,4,-1
      00033 -0340 00 0 00400  G1     LAS     =O15          RETURN
      00034  1 00001 4 00037         TXI     *+3,4,1
      00035  0020 00 0 00015         TRA     GET-1
      00036  1 00001 4 00042         TXI     PUT,4,1
      00037 -0340 00 0 00405         LAS     =O40          SPACE
      00040  0020 00 0 00042         TRA     PUT
      00041 -0500 00 0 00406         CAL     =O777
      00042  0602 00 3 00000  PUT    SLW     **,3
      00043 -0754 00 4 00000         PXD     ,4
      00044 -0602 60 0 00042         ORS*    PUT
      00045  1 00001 3 00016         TXI     GET,3,1
                              *
                              *      PASS 2 WILL SORT THE CHARACTERS IN ORDER
                              *      WHILE MOVING THEM TO THE END OF THE BUFFER
                              *
      00046 -0500 00 0 00407  PAS2   CAL     =O77777077777
      00047  0522 00 0 00042         XEC     PUT
      00050  1 00001 3 00051         TXI     *+1,3,1
      00051  0522 00 0 00042         XEC     PUT
      00052                          TEST    3
      00053  0754 00 3 00000         PXA     ,3
      00054  0535 00 4 00200         LAC     XR+3,4
      00055  0402 60 4 00003         SUB*    3,4
      00056  0734 00 3 00000         PAX     ,3
      00057  0634 00 3 00111         SXA     PAS3,3
      00060  0774 00 2 00000         AXT     0,2
      00061  0754 00 2 00000  P2.1   PXA     ,2
      00062  0734 00 4 00000         PAX     ,4
      00063  1 00001 4 00064         TXI     *+1,4,1
      00064                          TEST    3
      00065  0522 00 0 00016         XEC     GET
      00066 -0340 00 0 00407         LAS     =O77777077777
1                                                                                06/22/70 1519.9 PAGE 3

      00067  0020 00 0 00071         TRA     *+2
      00070  0020 00 0 00111         TRA     PAS3
      00071 -0500 00 4 00000  GET1   CAL     **,4
      00072                          TEST    4
      00073 -0340 00 0 00407         LAS     =O77777077777
      00074  0020 00 0 00076         TRA     *+2
      00075  0020 00 0 00105         TRA     P2.2
      00076 -0340 60 0 00016         LAS*    GET
      00077  1 00001 4 00071         TXI     GET1,4,1
      00100  1 00001 4 00071         TXI     GET1,4,1
      00101  0560 60 0 00016         LDQ*    GET
      00102  0602 60 0 00016         SLW*    GET
      00103 -0600 60 0 00071         STQ*    GET1
      00104  1 00001 4 00071         TXI     GET1,4,1
      00105  0522 00 0 00016  P2.2   XEC     GET
      00106  0522 00 0 00042         XEC     PUT
      00107  1 00001 2 00110         TXI     *+1,2,1
      00110  1 00001 3 00061         TXI     P2.1,3,1
                              *
                              *      PASS 3 WILL MOVE THE CHARACTERS BACK TO THE TOP
                              *      OF THE BUFFER WHILE INSERTING NEEDED BACK SPACES.
                              *      OVER-STRUCK SPACES ARE REMOVED ALSO. THE CARRIAGE RETURN
                              *      IS REINSTATED AT THE END
                              *
      00111  0774 00 2 00000  PAS3   AXT     **,2
      00112  0522 00 0 00042         XEC     PUT
      00113  0600 00 0 00203         STZ     POSIT
      00114  0774 00 3 00000         AXT     0,3
      00115  0522 00 0 00016  P3.1   XEC     GET
      00116                          TEST    3
      00117 -0340 00 0 00407         LAS     =O77777077777
      00120  0020 00 0 00122         TRA     *+2
      00121  0020 00 0 00157         TRA     P3.4
      00122  0771 00 0 00022         ARS     18
      00123 -0340 00 0 00203         LAS     POSIT
      00124  0020 00 0 00126         TRA     *+2
      00125  0020 00 0 00137         TRA     P3.2
      00126  0602 00 0 00203         SLW     POSIT
      00127  0522 00 0 00016         XEC     GET
      00130 -0320 00 0 00406         ANA     =O777
      00131 -0340 00 0 00406         LAS     =O777
      00132  1 00001 2 00135         TXI     *+3,2,1
      00133 -0500 00 0 00405         CAL     =O40          SPACE
      00134  1 00001 2 00135         TXI     *+1,2,1
      00135  0522 00 0 00042         XEC     PUT
      00136  1 00001 3 00115         TXI     P3.1,3,1
      00137 -0500 00 0 00375  P3.2   CAL     =O10          BACK SPACE
      00140  0522 00 0 00042         XEC     PUT
      00141  0522 00 0 00016         XEC     GET
      00142 -0320 00 0 00406         ANA     =O777
      00143  1 77777 3 00144         TXI     *+1,3,-1
      00144 -0340 60 0 00042         LAS*    PUT
      00145  1 00002 3 00150         TXI     *+3,3,2
      00146  1 00001 3 00156         TXI     P3.3,3,1
      00147  1 00002 3 00150         TXI     *+1,3,2
      00150 -0340 00 0 00406         LAS     =O777
1                                                                                06/22/70 1519.9 PAGE 4

      00151  1 00001 2 00154         TXI     *+3,2,1
      00152  1 77777 3 00156         TXI     P3.3,3,-1
      00153  1 00001 2 00154         TXI     *+1,2,1
      00154  0522 00 0 00042         XEC     PUT
      00155  1 00001 3 00115         TXI     P3.1,3,1
      00156  1 00001 2 00115  P3.3   TXI     P3.1,2,1
      00157 -3 00000 3 00171  P3.4   TXL     P3.5,3,0
      00160  1 77777 3 00161         TXI     *+1,3,-1
      00161 -0500 60 0 00042         CAL*    PUT
      00162 -0340 00 0 00405         LAS     =O40          SPACE
      00163  1 00001 3 00171         TXI     P3.5,3,1
      00164  0020 00 0 00157         TRA     P3.4
      00165 -0340 00 0 00376         LAS     =O11          TAB
      00166  1 00001 3 00171         TXI     P3.5,3,1
      00167  0020 00 0 00157         TRA     P3.4
      00170  1 00001 3 00171         TXI     P3.5,3,1
      00171 -0500 00 0 00377  P3.5   CAL     =O12          CARRIAGE RETURN
      00172  0522 00 0 00042         XEC     PUT
      00173  1 00001 3 00174         TXI     *+1,3,1
      00174  0754 00 3 00000         PXA     ,3
      00175 -0774 00 1 00000  XR     AXC     **,1
      00176 -0774 00 2 00000         AXC     **,2
      00177 -0774 00 3 00000         AXC     **,3
      00200 -0774 00 4 00000         AXC     **,4
      00201  0602 60 4 00002         SLW*    2,4
      00202  0020 00 4 00004         TRA     4,4
                              *
                              *
      00203  0 00000 0 00000  POSIT
      00204  0636 00 1 00175  EKEDIT SCA     XR,1
      00205  0636 00 2 00176         SCA     XR+1,2
      00206  0636 00 3 00177         SCA     XR+2,3
      00207  0636 00 4 00200         SCA     XR+3,4
      00210 -0500 00 4 00001         CAL     1,4
      00211  0621 00 0 00217         STA     EGET
      00212  0621 00 0 00253         STA     EPUT
      00213  0400 00 0 00374         ADD     =1
      00214  0621 00 0 00260         STA     EGET1
      00215  0774 00 2 00000         AXT     0,2
      00216  0774 00 3 00000         AXT     0,3
      00217 -0500 00 2 00000  EGET   CAL     **,2
      00220                          TEST    3
      00221  1 00001 2 00222         TXI     *+1,2,1
      00222 -0340 00 0 00401         LAS     =O31
      00223  0020 00 0 00225         TRA     *+2
      00224  0020 00 0 00352         TRA     ABS
      00225 -0340 00 0 00372         LAS     V
      00226  0020 00 0 00230         TRA     *+2
      00227  0020 00 0 00352         TRA     ABS
      00230 -0340 00 0 00403         LAS     =O35          (KIL)
      00231  0020 00 0 00237         TRA     EK1
      00232  0020 00 0 00276         TRA     KILL
      00233 -0340 00 0 00402         LAS     =O32          (EAS)
      00234  0020 00 0 00242         TRA     EK2
      00235  0020 00 0 00261         TRA     ERAS
      00236  0020 00 0 00242         TRA     EK2
1                                                                                06/22/70 1519.9 PAGE 5

      00237 -0340 00 0 00404  EK1    LAS     =O37          (WRD)
      00240  0020 00 0 00242         TRA     EK2
      00241  0020 00 0 00264         TRA     WORD
      00242 -0340 00 0 00370  EK2    LAS     E
      00243  0020 00 0 00245         TRA     *+2
      00244  0020 00 0 00261         TRA     ERAS
      00245 -0340 00 0 00371         LAS     W
      00246  0020 00 0 00250         TRA     *+2
      00247  0020 00 0 00264         TRA     WORD
      00250 -0340 00 0 00367         LAS     K
      00251  0020 00 0 00253         TRA     *+2
      00252  0020 00 0 00276         TRA     KILL
      00253  0602 00 3 00000  EPUT   SLW     **,3
      00254 -0340 00 0 00377         LAS     =O12          CARRIAGE RETURN
      00255  1 00001 3 00217         TXI     EGET,3,1
      00256  1 00001 3 00174         TXI     XR-1,3,1
      00257  1 00001 3 00217         TXI     EGET,3,1
      00260 -0500 00 3 00000  EGET1  CAL     **,3
                              *
      00261  0074 00 4 00302  ERAS   TSX     FOR,4
      00262  0074 00 4 00312         TSX     BAK,4
      00263  0020 00 0 00217         TRA     EGET
                              *
      00264  0074 00 4 00302  WORD   TSX     FOR,4
      00265  0074 00 4 00312         TSX     BAK,4
      00266  0522 00 0 00260         XEC     EGET1
      00267 -0340 00 0 00405         LAS     =O40          SPACE
      00270  0020 00 0 00264         TRA     WORD
      00271  0020 00 0 00217         TRA     EGET
      00272 -0340 00 0 00376         LAS     =O11          TAB
      00273  0020 00 0 00264         TRA     WORD
      00274  0020 00 0 00217         TRA     EGET
      00275  0020 00 0 00264         TRA     WORD
                              *
      00276  0074 00 4 00302  KILL   TSX     FOR,4
      00277  0074 00 4 00312         TSX     BAK,4
      00300  0774 00 3 00000         AXT     0,3
      00301  0020 00 0 00217         TRA     EGET
                              *
      00302  0600 00 0 00373  FOR    STZ     MFLG
      00303  0522 00 0 00217         XEC     EGET
      00304 -0340 00 0 00375         LAS     =O10          BACK SPACE
      00305  0020 00 4 00001         TRA     1,4
      00306  0020 00 0 00310         TRA     *+2
      00307  0020 00 4 00001         TRA     1,4
      00310 -0625 00 0 00373         STL     MFLG
      00311  1 00002 2 00303         TXI     FOR+1,2,2
                              *
      00312 -3 00000 3 00217  BAK    TXL     EGET,3,0
      00313  0522 00 0 00260         XEC     EGET1
      00314 -0340 00 0 00375         LAS     =O10          BACK SPACE
      00315  0020 00 0 00322         TRA     BAK1
      00316  0020 00 0 00320         TRA     *+2
      00317  0020 00 0 00322         TRA     BAK1
      00320 -0625 00 0 00373         STL     MFLG
      00321  1 77776 3 00312         TXI     BAK,3,-2
1                                                                                06/22/70 1519.9 PAGE 6

      00322  0520 00 0 00373  BAK1   ZET     MFLG
      00323  0020 00 4 00001         TRA     1,4
      00324  1 77777 3 00325         TXI     *+1,3,-1
      00325 -0340 00 0 00405         LAS     =O40          SPACE
      00326  0020 00 0 00333         TRA     BAK3
      00327  0020 00 0 00341         TRA     BAK2
      00330 -0340 00 0 00376         LAS     =O11          TAB
      00331  0020 00 0 00333         TRA     BAK3
      00332  0020 00 0 00341         TRA     BAK2
      00333 -3 00000 3 00217  BAK3   TXL     EGET,3,0
      00334  0522 00 0 00260         XEC     EGET1
      00335 -0340 00 0 00375         LAS     =O10          BACK SPACE
      00336  0020 00 4 00001         TRA     1,4
      00337  1 77776 3 00333         TXI     BAK3,3,-2
      00340  0020 00 4 00001         TRA     1,4
      00341 -3 00000 3 00217  BAK2   TXL     EGET,3,0
      00342  0522 00 0 00260         XEC     EGET1
      00343 -0340 00 0 00405         LAS     =O40          SPACE
      00344  0020 00 4 00001         TRA     1,4
      00345  1 77777 3 00341         TXI     BAK2,3,-1
      00346 -0340 00 0 00376         LAS     =O11          TAB
      00347  0020 00 4 00001         TRA     1,4
      00350  1 77777 3 00341         TXI     BAK2,3,-1
      00351  0020 00 4 00001         TRA     1,4
                              *
      00352  0522 00 0 00253  ABS    XEC     EPUT
      00353  1 00001 3 00354         TXI     *+1,3,1
      00354  0522 00 0 00217         XEC     EGET
      00355  1 00001 2 00253         TXI     EPUT,2,1
                              *
      00356 -0500 60 4 00001  SETOPS CAL*    1,4
      00357  0602 00 0 00372         SLW     V
      00360 -0500 60 4 00002         CAL*    2,4
      00361  0602 00 0 00370         SLW     E
      00362 -0500 60 4 00003         CAL*    3,4
      00363  0602 00 0 00371         SLW     W
      00364 -0500 60 4 00004         CAL*    4,4
      00365  0602 00 0 00367         SLW     K
      00366  0020 00 4 00005         TRA     5,4
                              *
      00367 +000000000100     K      OCT     100           COMMERCIAL AT
      00370 +000000000043     E      OCT     43            NUMBER
      00371 +000000000200     W      OCT     200           NOT PRE-DEFINED
      00372 +000000000200     V      OCT     200           NOT PRE-DEFINED
      00373  0 00000 0 00000  MFLG
                                     END

        LITERALS
      00374  000000000001
      00375  000000000010
      00376  000000000011
      00377  000000000012
      00400  000000000015
      00401  000000000031
      00402  000000000032
      00403  000000000035
1                                                                                06/22/70 1519.9 PAGE 7

      00404  000000000037
      00405  000000000040
      00406  000000000777
      00407  077777077777
1                                                                                06/22/70 1519.9 PAGE 1
                        POST PROCESSOR ASSEMBLY DATA

        410 IS THE FIRST LOCATION NOT USED BY THIS PROGRAM

0REFERENCES TO DEFINED SYMBOLS
        370      E   242,  361
        367      K   250,  365
        372      V   225,  357
        371      W   245,  363
         33     G1    23
        175     XR     3,    4,    5,    6,   54,  204,  205,  206,  207,  256
        352    ABS   224,  227
        312    BAK   262,  265,  277,  321
        237    EK1   231
        242    EK2   234,  236,  240
        302    FOR   261,  264,  276,  311
         16    GET    10,   31,   32,   35,   45,   65,   76,  101,  102,  105,  115,  127,  141
         42    PUT    12,   26,   30,   36,   40,   44,   47,   51,  106,  112,  135,  140,  144,  154,  161,  172
        322   BAK1   315,  317
        341   BAK2   327,  332,  345,  350
        333   BAK3   326,  331,  337
        217   EGET   211,  255,  257,  263,  271,  274,  301,  303,  312,  333,  341,  354
        253   EPUT   212,  352,  355
        261   ERAS   235,  244
         71   GET1    11,   77,  100,  103,  104
        276   KILL   232,  252
        373   MFLG   302,  310,  320,  322
         61   P2.1   110
        105   P2.2    75
        115   P3.1   136,  155,  156
        137   P3.2   125
        156   P3.3   146,  152
        157   P3.4   121,  164,  167
        171   P3.5   157,  163,  166,  170
         46   PAS2    24
        111   PAS3    57,   70
          1   TFLG     3
        264   WORD   241,  247,  270,  273,  275
          3  CANON     0
        260  EGET1   214,  266,  313,  334,  342
        203  POSIT   113,  123,  126
          0  TYPE0    17,   21,   52,   64,   72,  116,  220
        204 EKEDIT     0
        356 SETOPS     0

0 NO ERROR IN ABOVE ASSEMBLY.
1                                                                                06/22/70 1520.3 PAGE 1

                       00400         ENTRY   DEVTBL
                              *      DEVTBL IS CALLED:
                              *      TSX     DEVTBL,4
                              *      PZE     DEVM37
                              *      PZE     DEV50C
                              *      PZE     DEV50M
                              *      PZE     DEVM35
                              *
                              *      ALL PARAMETERS ARE BASE LOCATIONS OF 128 WORD DEVICE
                              *      TABLES. THE DEVICE TABLES ARE OUTSIDE THE ESCAPE
                              *      ROUTINE SINCE THEY ARE ONLY REFERENCED ONCE. AFTER
                              *      THE CALL TO DEVTBL, THE SPACE IN THE DEVICE TABLES
                              *      CAN BE USED FOR OTHER THINGS.
                              *
                              *      DEVTBL CALLS WHOAMI TO DETERMINE THE USERS DEVICE. IT THEN
                              *      COPIES THE CORRECT DEVICE TABLE INTO ITS INTERNAL DEVICE
                              *      TABLE. THIS DEVICE TABLE IS LOCATED AT DEVTBL. THIS MEANS
                              *      THAT DEVTBL CAN ONLY BE CALLED ONCE. AFTER THAT THE
                              *      ENTRY DEVTBL IS THE BASE LOCATION OF THE CORRECT DEVICE TABLE.
                              *
                       00003         ENTRY   OUTESC
                              *
                              *      OUTESC IS CALLED:
                              *      TSX     OUTESC,4
                              *      PZE     IBUF+IBSIZ-1
                              *      PZE     ICCNT
                              *      PZE     OBUF+OBSIZ-1
                              *      PZE     OCCNT
                              *      PZE     OBSIZ
                              *
                              *      IBUF CONTAINS THE CHARACTERS THAT ARE TO HAVE ESCAPES
                              *      REMOVED. OBUF WILL CONTAIN THE CHARACTERS WITH
                              *      THE ESCAPES REMOVED. OBUF AND IBUF CAN BE THE SAME.
                              *      ICCNT CONTAINS THE NUMBER OF CHARACTERS IN IBUF.
                              *      OCCNT IS SET TO THE NUMBER OF CHARACTERS IN OBUF.
                              *      THE LAST CHARACTER IN IBUF MUST BE A CARRIAGE RETURN.
                              *
                       00157         ENTRY   INESC
                              *
                              *      INESC IS CALLED THE SAME WAY AS OUTESC.
                              *
                              *      INESC WILL PUT ESCAPES IN OBUF AND SET OCCNT.
                              *
                              *      THE DEVICE TABLE MACRO FOLLOWS:
                              *DEVTBL        MACRO         A,B,C,D,E,F
                              *      VFD     O8/A,O8/B,2/C,2/D,O8/E,O8/F
                              *      END     DEVTBL
                              *
                              *      THE DEVICE TABLE DRIVES THE ESCAPE PROGRAM
                              *      THE FORM OF THE DEVICE TABLE IS:
                              *      A,B,C
                              *
                              *      A IS 8 BITS VALUE:
                              *              0-177 STRICT CONVERSION OF CHARACTERS
                              *              200 NOT ALLOWED
                              *              201 CMFLEX TO ESCAPE NEXT
1                                                                                06/22/70 1520.3 PAGE 2

                              *              202 ALPHABET FOR M35,33 TO BE CASED
                              *              203 CARRIAGE RETURN
                              *
                              *      B IS 8 BITS: VALUE
                              *              0-177 STRICT CONVERSION OF ESC CHARS
                              *              200 NOT ALLOWED
                              *              201 CFLEX
                              *              202 LOWER SHIFT
                              *              203 UPPER SHIFT
                              *              204 0-7 FOR OCTAL ESC
                              *
                              *      C IS 2 BITS: VALUE
                              *              0 ( FOR LBK
                              *              1 ) FOR RBK
                              *              2 0-9 FOR LOCAL SHIFT
                              *              3 UNKNOWN
                              *
                              TEST   MACRO   X
                                     IFF     TFLG,1,1
                                     TXH     $TYPE0,X,300
                                     END     TEST
                              *

        TRANSFER VECTOR
      00000  637047250060     TYPE0

        LINKAGE DIRECTOR
      00001  000000000000
      00002  242565632243

                       00001  TFLG   SET     1
                              *
      00003  0636 00 1 00037  OUTESC SCA     XR,1
      00004  0636 00 2 00040         SCA     XR+1,2
      00005  0636 00 3 00041         SCA     XR+2,3
      00006  0636 00 4 00042         SCA     XR+3,4
      00007 -0500 00 4 00001         CAL     1,4
      00010  0621 00 0 00015         STA     GET
      00011 -0500 00 4 00003         CAL     3,4
      00012  0621 00 0 00026         STA     PUT
      00013  0774 00 2 00000         AXT     0,2           GET COUNT
      00014  0774 00 3 00000         AXT     0,3           PUT COUNT
                              *
      00015 -0500 00 2 00000  GET    CAL     **,2
      00016                          TEST    3
      00017  1 00001 2 00020         TXI     *+1,2,1
      00020  0737 00 1 00000         PAC     ,1
      00021 -0500 00 1 00400         CAL     DEVTBL,1
      00022  0771 00 0 00034         ARS     28
      00023 -0340 00 0 00635         LAS     =O200
      00024  0737 00 4 00000         PAC     ,4
      00025  0020 00 4 77627         TRA     SWITCH-129,4
      00026  0602 00 3 00000  PUT    SLW     **,3
      00027  1 00001 3 00015         TXI     GET,3,1
                              *
      00030  0020 00 0 00062  SWITCH TRA     CMFLX
1                                                                                06/22/70 1520.3 PAGE 3

      00031  0020 00 0 00045         TRA     ALPH
      00032  0020 00 0 00033         TRA     CRET
                              *
      00033  0756 00 1 00000  CRET   PCA     ,1
      00034  0522 00 0 00026         XEC     PUT
      00035  1 00001 3 00036         TXI     *+1,3,1
      00036  0754 00 3 00000         PXA     ,3
      00037 -0774 00 1 00000  XR     AXC     **,1
      00040 -0774 00 2 00000         AXC     **,2
      00041 -0774 00 3 00000         AXC     **,3
      00042 -0774 00 4 00000         AXC     **,4
      00043  0602 60 4 00004         SLW*    4,4
      00044  0020 00 4 00006         TRA     6,4
                              *
      00045  0520 00 0 00607  ALPH   ZET     FLIP
      00046  0020 00 0 00053         TRA     ALP1
      00047  0756 00 1 00000         PCA     ,1
      00050 -0520 00 0 00606         NZT     CAPFLG
      00051  0400 00 0 00624         ADD     =O40
      00052  0020 00 0 00026         TRA     PUT
      00053  0500 00 0 00607  ALP1   CLA     FLIP
      00054  0402 00 0 00612         SUB     =1
      00055  0601 00 0 00607         STO     FLIP
      00056  0756 00 1 00000         PCA     ,1
      00057  0520 00 0 00606         ZET     CAPFLG
      00060  0400 00 0 00624         ADD     =O40
      00061  0020 00 0 00026         TRA     PUT
                              *
      00062  0522 00 0 00015  CMFLX  XEC     GET
      00063  0737 00 1 00000         PAC     ,1
      00064 -0500 00 1 00400         CAL     DEVTBL,1
      00065  0771 00 0 00024         ARS     20
      00066 -0320 00 0 00637         ANA     =O377
      00067 -0340 00 0 00635         LAS     =O200
      00070  0737 00 4 00000         PAC     ,4
      00071  0020 00 4 77675         TRA     SW1-129,4
      00072 -0340 00 0 00623         LAS     =O12
      00073  1 00001 2 00026         TXI     PUT,2,1
      00074  0020 00 0 00016         TRA     GET+1
      00075  1 00001 2 00026         TXI     PUT,2,1
                              *
      00076  1 00001 2 00137  SW1    TXI     CFXCFX,2,1
      00077  0020 00 0 00102         TRA     CLOWER
      00100  0020 00 0 00104         TRA     CUPPER
      00101  1 00001 2 00106         TXI     COCTL,2,1
                              *
      00102  0600 00 0 00606  CLOWER STZ     CAPFLG
      00103  1 00001 2 00015         TXI     GET,2,1
      00104 -0625 00 0 00606  CUPPER STL     CAPFLG
      00105  1 00001 2 00015         TXI     GET,2,1
                              *
      00106  0522 00 0 00015  COCTL  XEC     GET
      00107  1 00060 1 00110         TXI     *+1,1,48
      00110  0074 00 4 00115         TSX     CHECK,4
      00111  0522 00 0 00015         XEC     GET
      00112  0074 00 4 00115         TSX     CHECK,4
1                                                                                06/22/70 1520.3 PAGE 4

      00113 -0320 00 0 00634         ANA     =O177
      00114  0020 00 0 00026         TRA     PUT
      00115  1 77777 4 00116  CHECK  TXI     *+1,4,-1
      00116  0636 00 4 00134         SCA     CH1,4
      00117 -0340 00 0 00627         LAS     =O70
      00120  0020 00 0 00135         TRA     CH2
      00121  0020 00 0 00135         TRA     CH2
      00122 -0340 00 0 00625         LAS     =O57
      00123  0020 00 0 00126         TRA     *+3
      00124  0020 00 0 00135         TRA     CH2
      00125  0020 00 0 00135         TRA     CH2
      00126  0402 00 0 00626         SUB     =O60
      00127  0602 00 0 00375         SLW     T1
      00130  0756 00 1 00000         PCA     ,1
      00131  0767 00 0 00003         ALS     3
      00132 -0501 00 0 00375         ORA     T1
      00133  0737 00 1 00000         PAC     ,1
      00134  1 00001 2 00000  CH1    TXI     **,2,1
      00135  0756 00 1 00000  CH2    PCA     ,1
      00136  0020 00 0 00026         TRA     PUT
                              *
      00137  0522 00 0 00015  CFXCFX XEC     GET
      00140  0737 00 1 00000         PAC     ,1
      00141 -0500 00 1 00400         CAL     DEVTBL,1
      00142  0771 00 0 00022         ARS     18
      00143 -0320 00 0 00614         ANA     =O3
      00144  0737 00 4 00000         PAC     ,4
      00145  0522 00 4 00147         XEC     SW2,4
      00146  1 00001 2 00026         TXI     PUT,2,1
                              *
      00147 -0500 00 0 00630  SW2    CAL     =O133
      00150 -0500 00 0 00631         CAL     =O135
      00151  1 00060 1 00155         TXI     FLIPIT,1,48
      00152  0020 00 0 00153         TRA     *+1           UNK
      00153 -0500 00 0 00376         CAL     ESC           BACK SLASH
      00154  0020 00 0 00026         TRA     PUT
                              *
      00155  0636 00 1 00607  FLIPIT SCA     FLIP,1
      00156  1 00001 2 00015         TXI     GET,2,1
                              *
                              *
                              *
                              *      INESC HAS 18 BITS IN DEVTBL OF FORM D,E,F
                              *
                              *
                              *      D IS 2 BITS NOT USED
                              *
                              *      E IS 8 BITS VALUE:
                              *              0-177 STRICT CONVERSION IF NEED ESC
                              *
                              *      F IS 8 BITS VALUE:
                              *              0-177 STRICT CONVERSION
                              *              200 NOT ALLOWED
                              *              201 ESCAPED FROM D
                              *              202 UPPER CASE ALPHABETIC ON M33,35
                              *              203 LOWER CASE ALPHABETIC ON M33,35
1                                                                                06/22/70 1520.3 PAGE 5

                              *              204 OCTAL ESCAPE
                              *              205 CARRIAGE RETURN
                              *              206 SPACE
                              *              207 TAB
                              *              210 NONPRINTING CHARS
                              *              211 BACKSPACE
                              *
      00157  0636 00 1 00037  INESC  SCA     XR,1
      00160  0636 00 2 00040         SCA     XR+1,2
      00161  0636 00 3 00041         SCA     XR+2,3
      00162  0636 00 4 00042         SCA     XR+3,4
      00163 -0500 00 4 00001         CAL     1,4
      00164  0621 00 0 00015         STA     GET
      00165 -0500 00 4 00003         CAL     3,4
      00166  0621 00 0 00026         STA     PUT
      00167 -0500 60 4 00005         CAL*    5,4
      00170  0734 00 3 00000         PAX     ,3
      00171 -0500 60 4 00002         CAL*    2,4
      00172  0734 00 2 00000         PAX     ,2
      00173  0600 00 0 00374         STZ     BFLG
      00174  0500 00 0 00612         CLA     =1
      00175  0601 00 0 00373         STO     POSIT
      00176  1 77777 3 00177  INES1  TXI     *+1,3,-1
      00177  1 77777 2 00200         TXI     *+1,2,-1
      00200                          TEST    3
      00201  0522 00 0 00015         XEC     GET
      00202  0522 00 0 00026         XEC     PUT
      00203  3 00000 2 00176         TXH     INES1,2,0
      00204  0754 00 3 00000         PXA     ,3
      00205  0734 00 2 00000         PAX     ,2
      00206  0774 00 3 00000         AXT     0,3
      00207  0522 00 0 00015  IGET   XEC     GET
      00210                          TEST    3
      00211  1 00001 2 00212         TXI     *+1,2,1
      00212  0737 00 1 00000  IN1    PAC     ,1
      00213 -0500 00 1 00400         CAL     DEVTBL,1
      00214 -0320 00 0 00637         ANA     =O377
      00215 -0340 00 0 00635         LAS     =O200
      00216  0737 00 4 00000         PAC     ,4
      00217  0020 00 4 00022         TRA     ISWIT-129,4
      00220  0600 00 0 00374  IN2    STZ     BFLG
      00221  0522 00 0 00026         XEC     PUT
      00222  1 00001 3 00207         TXI     IGET,3,1
                              *
      00223  0020 00 0 00314  ISWIT  TRA     ICMFLX
      00224  0020 00 0 00323         TRA     IUCASE
      00225  0020 00 0 00336         TRA     ILCASE
      00226  0020 00 0 00351         TRA     IOCTL
      00227  0020 00 0 00302         TRA     ICRET
      00230  0020 00 0 00246         TRA     IBLANK
      00231  0020 00 0 00274         TRA     ITAB
      00232  0020 00 0 00234         TRA     INOSP
      00233  0020 00 0 00241         TRA     IBKSP
                              *
      00234  0500 00 0 00373  INOSP  CLA     POSIT
      00235  0400 00 0 00622         ADD     =9
1                                                                                06/22/70 1520.3 PAGE 6

      00236  0601 00 0 00373         STO     POSIT
      00237  0756 00 1 00000         PCA     ,1
      00240  0020 00 0 00220         TRA     IN2
                              *
      00241  0500 00 0 00373  IBKSP  CLA     POSIT
      00242  0400 00 0 00621         ADD     =8
      00243  0601 00 0 00373         STO     POSIT
      00244  0756 00 1 00000         PCA     ,1
      00245  0020 00 0 00220         TRA     IN2
                              *
      00246  0754 00 3 00000  IBLANK PXA     ,3
      00247  0400 00 0 00373         ADD     POSIT
      00250  0131 00 0 00000         XCA
      00251 -0754 00 0 00000         ZAC
      00252  0221 00 0 00623         DVP     =10
      00253  0100 00 0 00262         TZE     IB1
      00254  0520 00 0 00374         ZET     BFLG
      00255  0020 00 0 00260         TRA     *+3
      00256  0634 00 3 00374         SXA     BFLG,3
      00257 -0636 00 4 00374         SCD     BFLG,4
      00260 -0500 00 0 00624         CAL     =O40          BLANK
      00261  0020 00 0 00221         TRA     IN2+1
      00262  0520 00 0 00374  IB1    ZET     BFLG
      00263  0020 00 0 00266         TRA     *+3
      00264 -0500 00 0 00624         CAL     =O40
      00265  0020 00 0 00220         TRA     IN2
      00266 -0636 00 0 00374         SCD     BFLG,0
      00267  0754 00 3 00000         PXA     ,3
      00270  0402 00 0 00374         SUB     BFLG
      00271  0400 00 0 00373         ADD     POSIT
      00272  0601 00 0 00373         STO     POSIT
      00273  0534 00 3 00374         LXA     BFLG,3
      00274  0754 00 3 00000  ITAB   PXA     ,3
      00275 -0760 00 0 00003         SSM
      00276  0400 00 0 00640         ADD     =300
      00277  0601 00 0 00373         STO     POSIT
      00300 -0500 00 0 00622         CAL     =O11          TAB
      00301  0020 00 0 00220         TRA     IN2
                              *
      00302 -3 00000 3 00033  ICRET  TXL     CRET,3,0
      00303  1 77777 3 00304         TXI     *+1,3,-1
      00304 -0500 60 0 00026         CAL*    PUT
      00305 -0340 00 0 00624         LAS     =O40          SPACE
      00306  1 00001 3 00033         TXI     CRET,3,1
      00307  0020 00 0 00302         TRA     ICRET
      00310 -0340 00 0 00622         LAS     =O11          TAB
      00311  1 00001 3 00033         TXI     CRET,3,1
      00312  0020 00 0 00302         TRA     ICRET
      00313  1 00001 3 00033         TXI     CRET,3,1
                              *
      00314  0600 00 0 00374  ICMFLX STZ     BFLG
      00315 -0500 00 0 00376         CAL     ESC           BACK SLASH
      00316  0522 00 0 00026         XEC     PUT
      00317 -0500 00 1 00400         CAL     DEVTBL,1
      00320  0771 00 0 00010         ARS     8
      00321 -0320 00 0 00637         ANA     =O377
1                                                                                06/22/70 1520.3 PAGE 7

      00322  1 00001 3 00212         TXI     IN1,3,1
                              *
      00323  0756 00 1 00000  IUCASE PCA     ,1
      00324  0520 00 0 00610         ZET     XCAP
      00325  0020 00 0 00220         TRA     IN2
      00326 -0500 00 0 00376         CAL     ESC           BACK SLASH
      00327  0522 00 0 00026         XEC     PUT
      00330  1 00001 3 00331         TXI     *+1,3,1
      00331 -0500 00 0 00633         CAL     =O165
      00332  0522 00 0 00026         XEC     PUT
      00333  0756 00 1 00000         PCA     ,1
      00334 -0625 00 0 00610         STL     XCAP
      00335  1 00001 3 00220         TXI     IN2,3,1
                              *
      00336  0756 00 1 00000  ILCASE PCA     ,1
      00337 -0520 00 0 00610         NZT     XCAP
      00340  0020 00 0 00220         TRA     IN2
      00341 -0500 00 0 00376         CAL     ESC           BACK SLASH
      00342  0522 00 0 00026         XEC     PUT
      00343  1 00001 3 00344         TXI     *+1,3,1
      00344 -0500 00 0 00632         CAL     =O154
      00345  0522 00 0 00026         XEC     PUT
      00346  0756 00 1 00000         PCA     ,1
      00347  0600 00 0 00610         STZ     XCAP
      00350  1 00001 3 00220         TXI     IN2,3,1
                              *
      00351 -0500 00 0 00376  IOCTL  CAL     ESC           BACK SLASH
      00352  0522 00 0 00026         XEC     PUT
      00353  1 00001 3 00354         TXI     *+1,3,1
      00354  0756 00 1 00000         PCA     ,1
      00355  0602 00 0 00375         SLW     T1
      00356  0771 00 0 00006         ARS     6
      00357  0400 00 0 00626         ADD     =O60
      00360  0522 00 0 00026         XEC     PUT
      00361  1 00001 3 00362         TXI     *+1,3,1
      00362 -0500 00 0 00375         CAL     T1
      00363  0771 00 0 00003         ARS     3
      00364 -0320 00 0 00620         ANA     =O7
      00365  0400 00 0 00626         ADD     =O60
      00366  0522 00 0 00026         XEC     PUT
      00367 -0500 00 0 00375         CAL     T1
      00370 -0320 00 0 00620         ANA     =O7
      00371  0400 00 0 00626         ADD     =O60
      00372  1 00001 3 00220         TXI     IN2,3,1
                              *
      00373  0 00000 0 00001  POSIT  PZE     1
      00374  0 00000 0 00000  BFLG   PZE
      00375  0 00000 0 00000  T1     PZE
                              *
      00376  0 00000 0 00000  ESC
      00377  0 00000 0 00000  P2
      00400  0636 00 4 00604  DEVTBL SCA     DEVRET,4
      00401  0074 00 4 00445         TSX     WHOAMI,4
      00402  0 00004 0 00446         PZE     WHOAMI+1,,4
      00403 -0500 00 0 00451         CAL     WHOAMI+4
      00404  0602 00 0 00375         SLW     T1
1                                                                                06/22/70 1520.3 PAGE 8

      00405  0771 00 0 00036         ARS     30
      00406  0535 00 4 00604         LAC     DEVRET,4
      00407  0560 00 4 00001         LDQ     1,4
      00410 -0340 00 0 00617         LAS     =6            M35
      00411  0020 00 0 00413         TRA     *+2
      00412  0560 00 4 00004         LDQ     4,4
      00413 -0340 00 0 00616         LAS     =5            M35(TWX)
      00414  0020 00 0 00416         TRA     *+2
      00415  0560 00 4 00004         LDQ     4,4
      00416 -0340 00 0 00615         LAS     =4            M35(TWX)
      00417  0020 00 0 00421         TRA     *+2
      00420  0560 00 4 00004         LDQ     4,4
      00421 -0340 00 0 00620         LAS     =7            M37
      00422  0020 00 0 00424         TRA     *+2
      00423  0560 00 4 00001         LDQ     1,4
      00424 -0340 00 0 00611         LAS     =0            M37
      00425  0020 00 0 00427         TRA     *+2
      00426  0560 00 4 00001         LDQ     1,4
      00427 -0340 00 0 00613         LAS     =2            1050C
      00430  0020 00 0 00432         TRA     *+2
      00431  0560 00 4 00003         LDQ     3,4
      00432 -0340 00 0 00621         LAS     =8            1050M
      00433  0020 00 0 00435         TRA     *+2
      00434  0560 00 4 00003         LDQ     3,4
      00435 -0340 00 0 00622         LAS     =9            ARDS
      00436  0020 00 0 00440         TRA     *+2
      00437  0560 00 4 00001         LDQ     1,4
      00440 -0130 00 0 00000         XCL                   ELSE M37
      00441  0400 00 0 00636         ADD     =130
      00442  0621 00 0 00600         STA     DEVTBL+128
      00443  0774 00 4 00202         AXT     130,4
      00444  0020 00 0 00600         TRA     DEVTBL+128
      00445  0101 00 0 00641  WHOAMI TIA     =HWHOAMI
                       00600         ORG     DEVTBL+128
      00600 -0500 00 4 00000         CAL     **,4
      00601  0602 00 4 00600         SLW     DEVTBL+128,4
      00602  2 00001 4 00600         TIX     *-2,4,1
      00603 -0500 00 0 00375         CAL     T1
      00604 -0774 00 4 00000  DEVRET AXC     **,4
      00605  0020 00 4 00005         TRA     5,4
                              *
      00606  0 00000 0 00000  CAPFLG PZE
      00607  0 00000 0 00000  FLIP   PZE
      00610  0 00000 0 00000  XCAP   PZE
                                     END

        LITERALS
      00611  000000000000
      00612  000000000001
      00613  000000000002
      00614  000000000003
      00615  000000000004
      00616  000000000005
      00617  000000000006
      00620  000000000007
      00621  000000000010
1                                                                                06/22/70 1520.3 PAGE 9

      00622  000000000011
      00623  000000000012
      00624  000000000040
      00625  000000000057
      00626  000000000060
      00627  000000000070
      00630  000000000133
      00631  000000000135
      00632  000000000154
      00633  000000000165
      00634  000000000177
      00635  000000000200
      00636  000000000202
      00637  000000000377
      00640  000000000454
      00641  663046214431
1                                                                                06/22/70 1520.3 PAGE 1
                        POST PROCESSOR ASSEMBLY DATA

        642 IS THE FIRST LOCATION NOT USED BY THIS PROGRAM

0REFERENCES TO DEFINED SYMBOLS
        377     P2
        375     T1   127,  132,  355,  362,  367,  404,  603
         37     XR     3,    4,    5,    6,  157,  160,  161,  162
        134    CH1   116
        135    CH2   120,  121,  124,  125
        376    ESC   153,  315,  326,  341,  351
         15    GET    10,   27,   62,   74,  103,  105,  106,  111,  137,  156,  164,  201,  207
        262    IB1   253
        212    IN1   322
        220    IN2   240,  245,  261,  265,  301,  325,  335,  340,  350,  372
         26    PUT    12,   34,   52,   61,   73,   75,  114,  136,  146,  154,  166,  202,  221,  304,  316,  327,  332
                     342,  345,  352,  360,  366
         76    SW1    71
        147    SW2   145
         53   ALP1    46
         45   ALPH    31
        374   BFLG   173,  220,  254,  256,  257,  262,  266,  270,  273,  314
         33   CRET    32,  302,  306,  311,  313
        607   FLIP    45,   53,   55,  155
        207   IGET   222
        274   ITAB   231
          1   TFLG     3
        610   XCAP   324,  334,  337,  347
        115  CHECK   110,  112
         62  CMFLX    30
        106  COCTL   101
        241  IBKSP   233
        302  ICRET   227,  307,  312
        176  INES1   203
        157  INESC     0
        234  INOSP   232
        351  IOCTL   226
        223  ISWIT   217
        373  POSIT   175,  234,  236,  241,  243,  247,  271,  272,  277
          0  TYPE0    16,  200,  210
        606 CAPFLG    50,   57,  102,  104
        137 CFXCFX    76
        102 CLOWER    77
        104 CUPPER   100
        604 DEVRET   400,  406
        400 DEVTBL     0,   21,   64,  141,  213,  317,  442,  444,  600,  601
        155 FLIPIT   151
        246 IBLANK   230
        314 ICMFLX   223
        336 ILCASE   225
        323 IUCASE   224
          3 OUTESC     0
         30 SWITCH    25
        445 WHOAMI   401,  402,  403
1                                                                                06/22/70 1520.3 PAGE 2
                        POST PROCESSOR ASSEMBLY DATA

0 NO ERROR IN ABOVE ASSEMBLY.
1                                                                                06/22/70 1521.0 PAGE 1

                       00002         ENTRY   CNVTBL
                              CNV    MACRO   A,B,C,D,E,F
                                     VFD     4/A,5/B,4/0,O7/C,O8/D,1/E,O7/F
                                     END     CNV
                              *

        LINKAGE DIRECTOR
      00000  000000000000
      00001  234565632243

                       00002  CNVTBL SYN     *
                              *              A C  T-A A-S A-T
      00002                          CNV     0,00,060,177,0,177 000
      00003                          CNV     0,00,061,177,0,177 001
      00004                          CNV     0,00,062,177,0,177 002
      00005                          CNV     0,00,063,177,0,177 003
      00006                          CNV     0,00,064,177,0,177 004
      00007                          CNV     0,00,065,177,1,115 005
      00010                          CNV     0,00,066,177,1,176 006
      00011                          CNV     0,00,067,177,1,113 007
      00012                          CNV     0,00,070,035,0,135 010
      00013                          CNV     0,00,071,072,0,072 011
      00014                          CNV     0,14,030,055,0,055 012
      00015                          CNV     0,00,075,177,1,172 013
      00016                          CNV     0,00,047,052,0,052 014
      00017                          CNV     0,00,177,177,1,136 015
      00020                          CNV     0,00,177,177,1,133 016
      00021                          CNV     0,00,177,177,1,132 017
      00022                          CNV     0,00,053,177,0,177 020
      00023                          CNV     0,00,101,177,0,177 021
      00024                          CNV     0,00,102,177,1,110 022
      00025                          CNV     0,00,103,177,0,177 023
      00026                          CNV     0,00,104,177,1,111 024
      00027                          CNV     0,00,105,177,1,161 025
      00030                          CNV     0,00,106,177,0,177 026
      00031                          CNV     0,00,107,177,0,177 027
      00032                          CNV     0,00,110,177,0,012 030
      00033                          CNV     0,00,111,177,0,032 031
      00034                          CNV     0,00,031,177,0,036 032
      00035                          CNV     0,00,056,177,1,154 033
      00036                          CNV     0,00,051,177,0,037 034
      00037                          CNV     0,00,072,177,0,056 035
      00040                          CNV     0,00,032,177,0,075 036
      00041                          CNV     0,00,034,177,0,076 037
      00042                          CNV     7,15,055,060,0,060 040
      00043                          CNV     0,00,112,177,1,114 041
      00044                          CNV     0,23,113,177,0,137 042
      00045                          CNV     0,00,114,177,1,104 043
      00046                          CNV     5,00,115,053,0,053 044
      00047                          CNV     0,00,116,177,1,105 045
      00050                          CNV     0,00,117,020,0,120 046
      00051                          CNV     8,00,120,014,0,014 047
      00052                          CNV     0,00,121,074,0,074 050
      00053                          CNV     0,00,122,034,0,034 051
      00054                          CNV     0,00,014,054,0,054 052
      00055                          CNV     1,00,044,020,0,020 053
1                                                                                06/22/70 1521.0 PAGE 2

      00056                          CNV     0,00,052,073,0,073 054
      00057                          CNV     2,00,012,040,0,040 055
      00060                          CNV     6,00,035,033,0,033 056
      00061                          CNV     3,00,177,061,0,061 057
      00062                          CNV     4,00,040,000,0,000 060
      00063                          CNV     4,00,057,001,0,001 061
      00064                          CNV     4,00,123,002,0,002 062
      00065                          CNV     4,00,124,003,0,003 063
      00066                          CNV     4,00,125,004,0,004 064
      00067                          CNV     4,00,126,005,0,005 065
      00070                          CNV     4,00,127,006,0,006 066
      00071                          CNV     4,00,130,007,0,007 067
      00072                          CNV     4,00,131,010,0,010 070
      00073                          CNV     4,00,132,011,0,011 071
      00074                          CNV     0,26,011,035,0,035 072
      00075                          CNV     0,00,054,177,1,103 073
      00076                          CNV     0,00,050,177,1,152 074
      00077                          CNV     0,17,036,013,0,013 075
      00100                          CNV     0,00,037,177,1,155 076
      00101                          CNV     0,00,177,177,0,156 077
      00102                          CNV     0,00,174,177,1,106 100
      00103                          CNV     0,01,135,021,0,021 101
      00104                          CNV     0,02,134,022,0,022 102
      00105                          CNV     0,03,073,023,0,023 103
      00106                          CNV     0,04,043,024,0,024 104
      00107                          CNV     0,05,045,025,0,025 105
      00110                          CNV     0,06,100,026,0,026 106
      00111                          CNV     0,27,177,027,0,027 107
      00112                          CNV     0,00,022,030,0,030 110
      00113                          CNV     0,07,024,031,0,031 111
      00114                          CNV     0,00,136,041,0,041 112
      00115                          CNV     0,21,007,042,0,042 113
      00116                          CNV     0,20,041,043,0,043 114
      00117                          CNV     0,08,177,044,0,044 115
      00120                          CNV     0,00,177,045,0,045 116
      00121                          CNV     0,19,177,046,0,046 117
      00122                          CNV     0,09,046,047,0,047 120
      00123                          CNV     0,16,141,050,0,050 121
      00124                          CNV     0,10,142,051,0,051 122
      00125                          CNV     0,11,143,062,0,062 123
      00126                          CNV     0,22,144,063,0,063 124
      00127                          CNV     0,25,145,064,0,064 125
      00130                          CNV     0,12,146,065,0,065 126
      00131                          CNV     0,13,147,066,0,066 127
      00132                          CNV     0,18,150,067,0,067 130
      00133                          CNV     0,00,151,070,0,070 131
      00134                          CNV     0,24,017,071,0,071 132
      00135                          CNV     0,00,016,177,1,153 133
      00136                          CNV     0,00,176,177,1,102 134
      00137                          CNV     0,00,010,177,1,101 135
      00140                          CNV     0,00,015,177,1,112 136
      00141                          CNV     0,00,042,177,1,140 137
      00142                          CNV     0,00,137,177,0,160 140
      00143                          CNV     0,01,152,021,0,121 141
      00144                          CNV     0,02,153,022,0,122 142
      00145                          CNV     0,03,154,023,0,123 143
1                                                                                06/22/70 1521.0 PAGE 3

      00146                          CNV     0,04,155,024,0,124 144
      00147                          CNV     0,05,156,025,0,125 145
      00150                          CNV     0,06,157,026,0,126 146
      00151                          CNV     0,27,160,027,0,127 147
      00152                          CNV     0,00,161,030,0,130 150
      00153                          CNV     0,07,162,031,0,131 151
      00154                          CNV     0,00,074,041,0,141 152
      00155                          CNV     0,21,133,042,0,142 153
      00156                          CNV     0,20,033,043,0,143 154
      00157                          CNV     0,08,076,044,0,144 155
      00160                          CNV     0,00,077,045,0,145 156
      00161                          CNV     0,19,177,046,0,146 157
      00162                          CNV     0,09,140,047,0,147 160
      00163                          CNV     0,16,177,050,0,150 161
      00164                          CNV     0,10,163,051,0,151 162
      00165                          CNV     0,11,164,062,0,162 163
      00166                          CNV     0,22,165,063,0,163 164
      00167                          CNV     0,25,166,064,0,164 165
      00170                          CNV     0,12,167,065,0,165 166
      00171                          CNV     0,13,170,066,0,166 167
      00172                          CNV     0,18,171,067,0,167 170
      00173                          CNV     0,00,172,070,0,170 171
      00174                          CNV     0,24,013,071,0,171 172
      00175                          CNV     0,00,173,177,1,173 173
      00176                          CNV     0,00,175,177,1,100 174
      00177                          CNV     0,00,177,177,1,174 175
      00200                          CNV     0,00,177,177,1,134 176
      00201                          CNV     0,00,177,177,0,177 177
                                     END
1                                                                                06/22/70 1521.0 PAGE 1
                        POST PROCESSOR ASSEMBLY DATA

        202 IS THE FIRST LOCATION NOT USED BY THIS PROGRAM

0REFERENCES TO DEFINED SYMBOLS
          2 CNVTBL     0,    2

0 NO ERROR IN ABOVE ASSEMBLY.
1            IS CALLED WITH THE Z TYPE IN AC:                                    06/22/70 1521.1 PAGE 1

                       00004         ENTRY   ZCMD
                              *      TSX     ZCMD,4
                              *      PZE     BUF+BUFSIZ-1
                              *      PZE     CHRCNT
                              *      PZE     BUFSIZ
                              *
                              TEST   MACRO   X
                                     IFF     TFLG,1,1
                                     TXH     $TYPE0,X,300
                                     END     TEST
                              *

        TRANSFER VECTOR
      00000  232145464560     CANON
      00001  637047250060     TYPE0

        LINKAGE DIRECTOR
      00002  000000000000
      00003  712344246060

                       00001  TFLG   SET     1
                              *
      00004  0636 00 1 00035  ZCMD   SCA     XR,1
      00005  0636 00 4 00036         SCA     XR+1,4
      00006 -0774 00 1 00000         AXC     0,1
      00007 -0340 00 0 00173         LAS     =O62          2
      00010  0020 00 0 00015         TRA     Z1
      00011  1 77776 1 00015         TXI     Z1,1,-2
      00012 -0340 00 0 00172         LAS     =O61          1
      00013  0020 00 0 00015         TRA     Z1
      00014  1 77777 1 00015         TXI     Z1,1,-1
      00015 -0500 00 4 00001  Z1     CAL     1,4
      00016  0621 00 0 00044         STA     GET
      00017  0621 00 0 00047         STA     PUT
      00020  0602 00 0 00026         SLW     Z2
      00021 -0500 00 4 00002         CAL     2,4
      00022  0602 00 0 00027         SLW     Z2+1
      00023 -0500 00 4 00003         CAL     3,4
      00024  0602 00 0 00030         SLW     Z2+2
      00025  0074 00 4 00000         TSX     $CANON,4
      00026  0 00000 0 00000  Z2     PZE     **
      00027  0 00000 0 00000         PZE     **
      00030  0 00000 0 00000         PZE     **
      00031  0020 00 1 00032         TRA     *+1,1
      00032  0020 00 0 00035         TRA     Z0CMD
      00033  0020 00 0 00040         TRA     Z1CMD
      00034  0020 00 0 00110         TRA     Z2CMD
                              *
                       00035  Z0CMD  SYN     *
      00035 -0774 00 1 00000  XR     AXC     **,1
      00036 -0774 00 4 00000         AXC     **,4
      00037  0020 00 4 00004         TRA     4,4
                              *
                       00040  Z1CMD  SYN     *
      00040  0774 00 4 00000         AXT     0,4
      00041  0774 00 1 00000         AXT     0,1
1            IS CALLED WITH THE Z TYPE IN AC:                                    06/22/70 1521.1 PAGE 2

      00042 -0500 00 0 00167         CAL     =9
      00043  0602 00 0 00165         SLW     POSIT
      00044 -0500 00 1 00000  GET    CAL     **,1
      00045                          TEST    4
      00046  1 00001 1 00047         TXI     *+1,1,1
      00047  0602 00 4 00000  PUT    SLW     **,4
      00050 -0340 00 0 00171         LAS     =O40
      00051  1 00001 4 00062         TXI     Z1.1,4,1
      00052  0020 00 0 00071         TRA     Z1.2
      00053 -0340 00 0 00170         LAS     =O12          CR
      00054  1 00001 4 00062         TXI     Z1.1,4,1
      00055  1 00001 4 00161         TXI     Z12RET,4,1
      00056 -0340 00 0 00167         LAS     =O11          TAB
      00057  1 00001 4 00062         TXI     Z1.1,4,1
      00060  0020 00 0 00106         TRA     Z1.3
      00061  1 00001 4 00062         TXI     Z1.1,4,1
                              *
      00062  0600 00 0 00164  Z1.1   STZ     BFLG
      00063  0500 00 0 00165         CLA     POSIT
      00064 -0100 00 0 00066         TNZ     *+2
      00065 -0500 00 0 00170         CAL     =10
      00066  0402 00 0 00166         SUB     =1
      00067  0601 00 0 00165         STO     POSIT
      00070  0020 00 0 00044         TRA     GET
                              *
      00071  0520 00 0 00164  Z1.2   ZET     BFLG
      00072  0020 00 0 00100         TRA     Z1.2.1
      00073  0634 00 4 00164         SXA     BFLG,4
      00074 -0636 00 1 00164         SCD     BFLG,1
      00075  0520 00 0 00165         ZET     POSIT
      00076  1 00001 4 00063         TXI     Z1.1+1,4,1
      00077  1 00001 4 00062         TXI     Z1.1,4,1
      00100  0520 00 0 00165  Z1.2.1 ZET     POSIT
      00101  1 00001 4 00063         TXI     Z1.1+1,4,1
      00102  0534 00 4 00164         LXA     BFLG,4
      00103 -0500 00 0 00167         CAL     =O11          TAB
      00104  0522 00 0 00047         XEC     PUT
      00105  1 00001 4 00062         TXI     Z1.1,4,1
                              *
      00106  0600 00 0 00165  Z1.3   STZ     POSIT
      00107  1 00001 4 00062         TXI     Z1.1,4,1
                              *
      00110 -0500 60 0 00030  Z2CMD  CAL*    Z2+2          BUFSIZ
      00111  0734 00 4 00000         PAX     ,4
      00112 -0500 60 0 00027         CAL*    Z2+1          CHRCNT
      00113  0734 00 1 00000         PAX     ,1
      00114  1 77777 1 00115  Z2C1   TXI     *+1,1,-1
      00115  1 77777 4 00116         TXI     *+1,4,-1
      00116  0522 00 0 00044         XEC     GET
      00117                          TEST    4
      00120  0522 00 0 00047         XEC     PUT
      00121  3 00000 1 00114         TXH     Z2C1,1,0
      00122  0754 00 4 00000         PXA     ,4
      00123  0734 00 1 00000         PAX     ,1
      00124  0774 00 4 00000         AXT     0,4
      00125 -0500 00 0 00167         CAL     =9
1            IS CALLED WITH THE Z TYPE IN AC:                                    06/22/70 1521.1 PAGE 3

      00126  0602 00 0 00165         SLW     POSIT
      00127  0522 00 0 00044  Z2.1   XEC     GET
      00130                          TEST    4
      00131  1 00001 1 00132         TXI     *+1,1,1
      00132  0522 00 0 00047         XEC     PUT
      00133 -0340 00 0 00170         LAS     =O12          CR
      00134  1 00001 4 00142         TXI     Z2.2,4,1
      00135  1 00001 4 00161         TXI     Z12RET,4,1
      00136 -0340 00 0 00167         LAS     =O11          TAB
      00137  1 00001 4 00142         TXI     Z2.2,4,1
      00140  0020 00 0 00150         TRA     Z2.3
      00141  1 00001 4 00142         TXI     Z2.2,4,1
      00142  0500 00 0 00165  Z2.2   CLA     POSIT
      00143 -0100 00 0 00145         TNZ     *+2
      00144  0500 00 0 00170         CLA     =10
      00145  0402 00 0 00166         SUB     =1
      00146  0601 00 0 00165         STO     POSIT
      00147  0020 00 0 00127         TRA     Z2.1
                              *
      00150 -0500 00 0 00171  Z2.3   CAL     =O40          SP
      00151                          TEST    4
      00152  0522 00 0 00047         XEC     PUT
      00153 -0520 00 0 00165         NZT     POSIT
      00154  1 00001 4 00142         TXI     Z2.2,4,1
      00155  0500 00 0 00165         CLA     POSIT
      00156  0402 00 0 00166         SUB     =1
      00157  0601 00 0 00165         STO     POSIT
      00160  1 00001 4 00150         TXI     Z2.3,4,1
                              *
      00161  0754 00 4 00000  Z12RET PXA     ,4
      00162  0602 60 0 00027         SLW*    Z2+1          CHRCNT
      00163  0020 00 0 00035         TRA     XR
                              *
      00164  0 00000 0 00000  BFLG
      00165  0 00000 0 00000  POSIT
                                     END

        LITERALS
      00166  000000000001
      00167  000000000011
      00170  000000000012
      00171  000000000040
      00172  000000000061
      00173  000000000062
1            IS CALLED WITH THE Z TYPE IN AC:                                    06/22/70 1521.1 PAGE 1
                        POST PROCESSOR ASSEMBLY DATA

        174 IS THE FIRST LOCATION NOT USED BY THIS PROGRAM

0REFERENCES TO DEFINED SYMBOLS
         35     XR     4,    5,  163
         15     Z1    10,   11,   13,   14
         26     Z2    20,   22,   24,  110,  112,  162
         44    GET    16,   70,  116,  127
         47    PUT    17,  104,  120,  132,  152
        164   BFLG    62,   71,   73,   74,  102
          1   TFLG     4
         62   Z1.1    51,   54,   57,   61,   76,   77,  101,  105,  107
         71   Z1.2    52
        106   Z1.3    60
        114   Z2C1   121
        127   Z2.1   147
        142   Z2.2   134,  137,  141,  154
        150   Z2.3   140,  160
          4   ZCMD     0
          0  CANON    25
        165  POSIT    43,   63,   67,   75,  100,  106,  126,  142,  146,  153,  155,  157
          1  TYPE0    45,  117,  130,  151
         35  Z0CMD    32,   35
         40  Z1CMD    33,   40
        110  Z2CMD    34
        161 Z12RET    55,  135
        100 Z1.2.1    72

0 NO ERROR IN ABOVE ASSEMBLY.
