1       ZOT - NEW GAZABE COMPLEX                                                 68/11/21 2318.0 PAGE 1
                           OCTOBER 19, 1968  LHM

                              *
                              *
                                     ABS
                              *
                       00000         ORG,0
                              *
                              *  UNIVERSAL EXIT. MUST BE LOADED AT LOCATION ZERO.
                              *
      00000  0074 00 4 00422  EXIT   TSX,WRFLXA,4
      00001  0 00000 0 00000  ZERO
      00002  0101 00 0 00434         TIA,CHAIN
                              *
                              *  RANDOM CONSTANTS
                              *
      00003 +350000350000     COLONS OCT,350000350000
      00004 +005700570057     NULLS  OCT,005700570057
      00005 -155757575757     CRWORD OCT,555757575757
                                     EVEN
      00006 -175757575757     THEWRD OCT,575757575757
      00007  545454545454     SPARE  BCI,1,******
      00010  0 00005 0 00000  CLCWRD PZE,,,5
      00011  0 00000 0 00074  TIME   PZE,60
      00012 +000000000060     BLANK  OCT,60
      00013 +000000000061     SLASH  OCT,61
                              *
                              *  REWRITE THE COMMAND BUFFER FOR NEXCOM.
                              *
      00014  0622 00 0 00016  FIN    STD,*+2
      00015  0602 00 1 00416  COMSTO SLW,WRMESS-XR1,1
      00016  2 00001 1 00042         TIX,COM,1,1
      00017  0074 00 4 00424         TSX,SETCLS,4
      00020  0 00000 0 00455  SETLOC PZE,WRMESS,,0
      00021 -0500 00 0 00455         CAL,WRMESS
      00022  0560 00 0 00456         LDQ,WRMESS+1
      00023  0074 00 4 00426  NEXLOC TSX,NEXCOM,4
                              *
                              *  MAIN LOOP. FIND THE COMMAND.
                              *   NOTE THAT THIS MUST BEGIN AT LOC (24)8
                              *
      00024  0774 00 1 00001  LOOP   AXT,1,1
      00025 -0634 00 0 00061         ZSD,CONV
      00026  0074 00 2 00040  GETARG TSX,NUM,2
      00027  2 00003 2 00052         TIX,BUMP,2,XR2-GETARG
                              *
                              *  THE ARGUMENT WAS A NUMBER. REPEAT THE LAST CHARACTER TYPED.
                              *
      00030  0734 00 1 00000         PAX,,1
      00031  0020 00 0 00111         TRA,WRTIX
                              *
                              *  REGULAR ARGUMENT. GO FIND IT IN THE TABLE.
                              *
                       00031  XR2    EQU,*-1
      00032 -0340 00 2 00463         LAS,TABTOP-XR2,2
      00033  2 00002 2 00032         TIX,*-1,2,2
      00034  0020 60 2 00464         TRA*,TABTOP+1-XR2,2
1       ZOT - NEW GAZABE COMPLEX                                                 68/11/21 2318.0 PAGE 2
                           OCTOBER 19, 1968  LHM

      00035 -0774 00 2 00014         AXC,FIN,2
      00036  0636 00 2 00057         SCA,NOCOM,2
      00037  0074 00 1 00015  XR1    TSX,COMSTO,1
                              *
                              *  PICK UP THE NEXT COMMAND ARGUMENT.
                              *
      00040  0441 00 0 00012  NUM    LDI,BLANK
      00041  0020 00 0 00043         TRA,*+2
      00042  0441 00 0 00001  COM    LDI,ZERO
      00043  0074 00 4 00423  COMCAL TSX,GETCOM,4
      00044  0 00000 0 00000  COMNO
      00045  0760 00 0 00003         SSP
      00046  0046 00 0 00050         TIF,*+2
      00047  0020 00 2 00001         TRA,1,2
      00050  0054 00  000060         RFT,60
      00051  1 77777 2 00061         TXI,CONV,2,-1
      00052  0534 00 4 00044  BUMP   LXA,COMNO,4
      00053  1 00001 4 00054         TXI,*+1,4,1
      00054  0634 00 4 00044         SXA,COMNO,4
      00055 -0340 00 0 00652         LAS,TABBOT
      00056  0634 00 0 00043         ZSA,COMCAL
      00057  0074 00 4 00000  NOCOM  TSX,EXIT,4
      00060  0020 00 2 00001         TRA,1,2
                              *
                              *  BCD TO BINARY CONVERSION.
                              *
      00061 -3 00000 1 00073  CONV   TXL,DTO,1,**
      00062 -0130 00 0 00000  DTB    XCL
      00063  0600 00 0 00477         STZ,TEMP
      00064  0774 00 1 00006         AXT,6,1
      00065  0204 04 1 00455         VLM,TABLE,1,4
      00066 -0765 00 0 00002         LGR,2
      00067  0361 00 0 00477         ACL,TEMP
      00070  0602 00 0 00477         SLW,TEMP
      00071  2 00001 1 00065         TIX,*-4,1,1
      00072  0020 00 0 00052         TRA,BUMP
                              *
                              *  BCD TO OCTAL CONVERSION.
                              *
      00073 -0765 00 0 00003  DTO    LGR,3
      00074  0771 00 0 00003         ARS,3
      00075  2 12525 4 00073         TIX,DTO,4,32767/6
      00076 -0763 00 0 00022         LGL,18
      00077  0020 00 0 00052         TRA,BUMP
                              *
                              *  PRINT A SINGLE CHARACTER.
                              *
      00100  0074 00 4 00427  PRINT  TSX,SETFUL,4
      00101 -0500 00 0 00004         CAL,NULLS
      00102  0602 00 0 00455         SLW,WRMESS
      00103 -0500 00 2 00464         CAL,TABTOP+1-XR2,2
      00104  0622 00 0 00455         STD,WRMESS
      00105  0774 00 2 00001         AXT,1,2
      00106 -0634 00 2 00110  SETCNT SXD,COUNT,2
      00107  0074 00 4 00431  WR     TSX,WRFLX,4
1       ZOT - NEW GAZABE COMPLEX                                                 68/11/21 2318.0 PAGE 3
                           OCTOBER 19, 1968  LHM

      00110  0 00001 0 00455  COUNT  PZE,WRMESS,,1
      00111  2 00001 1 00107  WRTIX  TIX,WR,1,1
      00112  0120 00 0 00024         TPL,LOOP
      00113  0101 00 0 00442  DEATH  TIA,DEAD
                              *
                              *  FIDDLE WITH COMMAND BUFFERS.
                              *
      00114  0074 00 2 00040  GAZABE TSX,NUM,2
      00115 -0500 00 0 00501         CAL,TEN
      00116 -0130 00 0 00000         XCL
      00117  0204 14 0 00502         VLM,SIXTY,,12
      00120  0020 00 0 00123         TRA,ZOTIN
                              *
      00121  0074 00 2 00040  ZOT    TSX,NUM,2
      00122 -0500 00 0 00011         CAL,TIME
      00123  0602 00 0 00011  ZOTIN  SLW,TIME
      00124  0074 00 2 00040         TSX,NUM,2
      00125  0754 00 1 00000         PXA,,1
      00126 -0501 00 0 00010         ORA,CLCWRD
      00127  0074 00 4 00430         TSX,SETCLC,4
      00130 -0500 00 0 00011         CAL,TIME
      00131  0100 00 0 00024  BYEBYE TZE,LOOP
      00132 -0774 00 4 00023         AXC,LOOP-1,4
      00133  0101 00 0 00443         TIA,SLEEP
                              *
      00134  0074 00 2 00040  WAIT   TSX,NUM,2
      00135 -0500 00 0 00011         CAL,TIME
      00136  0602 00 0 00011         SLW,TIME
      00137  0020 00 0 00131         TRA,BYEBYE
                              *
      00140  0074 00 2 00040  CHAINX TSX,NUM,2
      00141  0754 00 1 00000         PXA,,1
      00142 -0501 00 0 00010         ORA,CLCWRD
      00143  0074 00 4 00430         TSX,SETCLC,4
      00144  0020 00 0 00024         TRA,LOOP
                              *
                              *  PRINT THE NEXT WORD FROM THE COMMAND LINE.
                              *
      00145  0074 00 2 00042  PRWORD TSX,COM,2
      00146  0774 00 2 00001  PWRDIN AXT,1,2
      00147  0602 00 0 00455         SLW,WRMESS
      00150 -0774 00 4 00105  SETWR  AXC,SETCNT-1,4
      00151  0101 00 0 00444  GETBCD TIA,SETBCD
                              *
                              *  LOAD UP A GIVEN COMMAND BUFFER.
                              *
      00152  0634 00 0 00023  SETCOM ZSA,NEXLOC
      00153  0074 00 2 00040         TSX,NUM,2
      00154  0754 00 1 00000         PXA,,1
      00155  0734 00 2 00000         PAX,,2
      00156 -0634 00 2 00020         SXD,SETLOC,2
      00157 -0774 00 2 00014  NEXCM  AXC,FIN,2
      00160  0636 00 2 00057         SCA,NOCOM,2
      00161  1 77740 1 00042         TXI,COM,1,-XR1-1
                              *
1       ZOT - NEW GAZABE COMPLEX                                                 68/11/21 2318.0 PAGE 4
                           OCTOBER 19, 1968  LHM

                              *  REPEAT A FEW ARGUMENTS.
                              *
      00162  0074 00 2 00040  TIX    TSX,NUM,2
      00163 -0754 00 0 00000         ZAC
      00164  0602 00 0 00500         SLW,TEMP2
      00165  0074 00 2 00040         TSX,NUM,2
      00166  0020 00 0 00174         TRA,NEXT
      00167 -0520 00 0 00503         NZT,REPEAT
      00170  0602 00 0 00503         SLW,REPEAT
      00171  0534 00 4 00503         LXA,REPEAT,4
      00172 -2 00001 4 00177         TNX,WIPE,4,1
      00173  0634 00 4 00503         SXA,REPEAT,4
      00174 -0500 00 0 00500  NEXT   CAL,TEMP2
      00175  0602 00 0 00044         SLW,COMNO
      00176  0020 00 0 00024         TRA,LOOP
                              *
      00177  0600 00 0 00503  WIPE   STZ,REPEAT
      00200  0020 00 0 00024         TRA,LOOP
                              *
                              *  CONVERT TO OCTAL AND PRINT.
                              *
      00201  0074 00 2 00040  OCT    TSX,NUM,2
      00202  2 00001 2 00052         TIX,BUMP,2,1
      00203 -0765 00 0 00022  PNUMO  LGR,18
      00204  0767 00 0 00003         ALS,3
      00205 -0763 00 0 00003         LGL,3
      00206  2 12525 2 00204         TIX,*-2,2,32767/6
      00207  0020 00 0 00146         TRA,PWRDIN
                              *
                              *  CONVERT TO DECIMAL AND PRINT.
                              *
      00210 -0634 00 4 00061  DEC    SXD,CONV,4
      00211  0074 00 2 00040         TSX,NUM,2
      00212  2 00001 2 00052         TIX,BUMP,2,1
      00213  0225 06 1 00455  PNUM   VDP,TABLE,1,6
      00214  0771 00 0 00006         ARS,6
      00215  2 00005 1 00217         TIX,OUT,1,5
      00216  1 00001 1 00213         TXI,*-3,1,1
                              *
      00217  0131 00 0 00000  OUT    XCA
      00220  0020 00 0 00146         TRA,PWRDIN
                              *
                              *  PICK UP A COMMAND BUFFER AND PRINT IT ON LINE.
                              *
      00221  0074 00 2 00040  GETCL  TSX,NUM,2
      00222  0754 00 1 00000  GETIN  PXA,,1
      00223  0734 00 4 00000         PAX,,4
      00224 -0634 00 4 00226         SXD,GETBUF,4
      00225  0074 00 4 00432         TSX,GETCLS,4
      00226  0 00000 0 00455  GETBUF PZE,WRMESS,,**
      00227  0774 00 1 00024         AXT,20,1
      00230  0560 00 0 00006         LDQ,THEWRD
      00231 -0500 00 1 00501  GLOOP  CAL,WREND,1
      00232 -0340 00 0 00652         LAS,TABBOT
      00233 -0600 00 1 00501         STQ,WREND,1
1       ZOT - NEW GAZABE COMPLEX                                                 68/11/21 2318.0 PAGE 5
                           OCTOBER 19, 1968  LHM

      00234  2 00001 1 00233  GTIX   TIX,*-1,1,1
      00235  2 00001 1 00231         TIX,GLOOP,1,1
      00236  0074 00 4 00151         TSX,GETBCD,4
      00237  0074 00 4 00431         TSX,WRFLX,4
      00240  0 00012 0 00455         PZE,WRMESS,,10
      00241  0074 00 4 00431         TSX,WRFLX,4
      00242  0 00012 0 00467         PZE,WRMESS+10,,10
      00243  0020 00 0 00024  GOUT   TRA,LOOP
                              *
                              *  SWITCH BETWEEN WRFLX AND WRFLXA.
                              *
      00244  0534 00 4 00000  SWCHCR LXA,EXIT,4
      00245  0534 00 2 00107         LXA,WR,2
      00246  0634 00 2 00000         SXA,EXIT,2
      00247  0634 00 4 00107         SXA,WR,4
      00250  0020 00 0 00024         TRA,LOOP
                              *
                              *  CONDITIONALLY PRINT A CARRIAGE RETURN.
                              *
      00251  0754 00 1 00000  IFFCR  PXA,,1
      00252  0402 00 0 00503         SUB,REPEAT
      00253  0100 00 0 00024         TZE,LOOP
      00254  1 77730 2 00100         TXI,PRINT,2,QIFFCR-CR
                              *
                              *  EJECT A PAGE.
                              *
      00255 -0500 00 0 00005  EJECT  CAL,CRWORD
      00256  1 00040 1 00146         TXI,PWRDIN,1,32
                              *
                              *  DO VARIOUS ARITHMETIC FUNCTIONS.
                              *
      00257  1 00657 1 00263  NOREC  TXI,ARITH,1,431
                              *
      00260 -0634 00 4 00061  ASOCT  SXD,CONV,4
      00261  1 77777 1 00263  ADDSUB TXI,ARITH,1,-1
                              *
      00262 -0634 00 4 00061  AROCT  SXD,CONV,4
      00263  0600 00 0 00500  ARITH  STZ,TEMP2
      00264  0634 00 1 00500         SXA,TEMP2,1
      00265 -0634 00 1 00273         SXD,SWITCH,1
      00266  0774 00 1 00001         AXT,1,1
      00267  0560 00 2 00464         LDQ,TABTOP+1-XR2,2
      00270 -0620 00 0 00274         SLQ,INST
      00271  0074 00 2 00040  ALOOP  TSX,NUM,2
      00272  0020 00 0 00306         TRA,PICK
      00273 -3 00000 1 00277  SWITCH TXL,MQ,1,**
      00274  0 00000 0 00500  INST   ***,TEMP2
      00275  0602 00 0 00500  STORE  SLW,TEMP2
      00276  0020 00 0 00271         TRA,ALOOP
                              *
      00277  0765 00 0 00043  MQ     LRS,35
      00300  0522 00 0 00274         XEC,INST
      00301 -0600 00 0 00500         STQ,TEMP2
      00302  0100 00 0 00271         TZE,ALOOP
      00303  0754 00 1 00000         PXA,,1
1       ZOT - NEW GAZABE COMPLEX                                                 68/11/21 2318.0 PAGE 6
                           OCTOBER 19, 1968  LHM

      00304  0400 00 0 00500         ADD,TEMP2
      00305  0020 00 0 00275         TRA,STORE
                              *
                              *
      00306 -0500 00 0 00500  PICK   CAL,TEMP2
      00307 -0534 00 4 00061         LXD,CONV,4
      00310  3 00000 4 00203         TXH,PNUMO,4,0
      00311  0020 00 0 00213         TRA,PNUM
                              *
                              *  REPEAT THE CURRENT COMMAND BUFFER
                              *
      00312  0774 00 4 00157  ECHO   AXT,NEXCM,4
      00313  0634 00 4 00243         SXA,GOUT,4
      00314  1 77777 1 00222         TXI,GETIN,1,-1
                              *
                              *  SWITCH BETWEEN LONG AND SHORT FORM FOR GETCLS.
                              *
      00315  0500 00 0 00007  CHGCLS CLA,SPARE
      00316  0560 00 0 00006         LDQ,THEWRD
      00317 -0603 00 0 00006         DST,THEWRD
      00320 -0534 00 4 00234         LXD,GTIX,4
      00321 -0636 00 4 00234         SCD,GTIX,4
      00322  0020 00 0 00024         TRA,LOOP
                              *
                              *  LEFT OR RIGHT JUSTIFY A FILE NAME.
                              *
      00323  1 00001 1 00324  LEFT   TXI,*+1,1,1
      00324  1 00002 1 00325  RIGHT  TXI,*+1,1,2
      00325  0074 00 2 00042  GETNAM TSX,COM,2
      00326  0602 00 1 00477         SLW,NAMES,1
      00327 -0055 00  770000         SIL,770000
      00330  0322 00 0 00504         ERA,BLANKS
      00331  1 00333 2 00334         TXI,JLOOP,2,GETNAM+6
      00332  0767 00 0 00006         ALS,6
      00333 -2 00001 2 00335         TNX,JOUT,2,1
      00334  0046 00 0 00332  JLOOP  TIF,*-2
      00335  0322 00 0 00504  JOUT   ERA,BLANKS
      00336 -0130 00 0 00000         XCL
      00337  2 00002 1 00325         TIX,GETNAM,1,2
      00340  3 00001 1 00342         TXH,*+2,1,1
      00341  1 00002 1 00342         TXI,*+1,1,2
      00342  0602 00 1 00476         SLW,NAMES-1,1
      00343 -0600 00 1 00500         STQ,NAMES+1,1
      00344  0074 00 4 00425  CALCHG TSX,CHFILE,4
      00345  3 00000 0 00473         BRN,OLD1
      00346  3 00000 0 00475         BRN,OLD2
      00347  3 00000 0 00001         BRN,ZERO
      00350  3 00000 0 00474         BRN,NEW1
      00351  3 00000 0 00476         BRN,NEW2
      00352  3 00000 0 00354         BRN,*+2
      00353  0020 00 0 00024         TRA,LOOP
                              *
      00354 -0500 00 0 00505         CAL,NOMESS
      00355  1 77776 1 00146         TXI,PWRDIN,1,-2
                              *
1       ZOT - NEW GAZABE COMPLEX                                                 68/11/21 2318.0 PAGE 7
                           OCTOBER 19, 1968  LHM

                              *  PRINT OUT THE DATE AND TIME.
                              *
      00356  0074 00 4 00433  MAKTIM TSX,GETIME,4
      00357  0602 00 0 00477         SLW,TEMP
      00360 -0046 00 0 00000         PIA
      00361 -0763 00 0 00014         LGL,12
      00362  0767 00 0 00006         ALS,6
      00363 -0501 00 0 00013         ORA,SLASH
      00364 -0763 00 0 00014         LGL,12
      00365  0602 00 0 00455         SLW,WRMESS
      00366 -0500 00 0 00013         CAL,SLASH
      00367 -0763 00 0 00022         LGL,18
      00370 -0501 00 0 00012         ORA,BLANK
      00371 -0763 00 0 00014         LGL,12
      00372  0044 00 0 00000         PAI
      00373  0560 00 0 00477         LDQ,TEMP
      00374 -0754 00 0 00000         ZAC
      00375  0225 35 0 00506         VDP,Q1,,29
      00376  0225 06 0 00507         VDP,Q2,,6
      00377 -0130 00 0 00000         XCL
      00400  0043 00 0 00000         OAI
      00401  0604 00 0 00456         STI,WRMESS+1
      00402 -0754 00 0 00000         ZAC
      00403  0225 36 0 00510         VDP,Q3,,30
      00404  0225 06 0 00511         VDP,Q4,,6
      00405  0225 14 0 00512         VDP,Q5,,12
      00406  0225 06 0 00513         VDP,Q6,,6
      00407 -0130 00 0 00000         XCL
      00410 -0501 00 0 00003         ORA,COLONS
      00411  0602 00 0 00457         SLW,WRMESS+2
      00412  2 77624 2 00150         TIX,SETWR,2,TABTOP-XR2-QTIME-3
                              *
                              *  PRINT OUT THE NEXT CHARACTER (EXPRESSED IN OCTAL).
                              *
      00413  0074 00 2 00042  CHAR   TSX,COM,2
      00414  0560 00 0 00001         LDQ,ZERO
      00415 -0765 00 0 00003         LGR,3
      00416  0771 00 0 00003         ARS,3
      00417  2 17777 2 00415         TIX,*-2,2,32767/4
      00420 -0620 00 0 00477         SLQ,TEMP
      00421  1 60375 2 00100         TXI,PRINT,2,TABTOP+1-XR2-TEMP+CHAR+32767/4*3
                              *
1       ZOT - NEW GAZABE COMPLEX                                                 68/11/21 2318.0 PAGE 8
                           OCTOBER 19, 1968  LHM

                              *
                              *
                              *  CONSTANTS AND STORAGE
                              *
      00422  0101 00 0 00435  WRFLXA TIA,WRFXA
      00423  0101 00 0 00437  GETCOM TIA,GETC
      00424  0101 00 0 00644  SETCLS TIA,SETS
      00425  0101 00 0 00445  CHFILE TIA,CHGFIL
      00426  0101 00 0 00530  NEXCOM TIA,NEXC
      00427  0101 00 0 00440  SETFUL TIA,SETF
      00430  0101 00 0 00441  SETCLC TIA,SETC
      00431  0101 00 0 00436  WRFLX  TIA,WRFX
      00432  0101 00 0 00524  GETCLS TIA,QGET
      00433  0101 00 0 00446  GETIME TIA,QGETTM
                              *
      00434  233045234644     CHAIN  BCI,1,CHNCOM
      00435  665126436721     WRFXA  BCI,1,WRFLXA
      00436  665126436760     WRFX   BCI,1,WRFLX
      00437  272563234644     GETC   BCI,1,GETCOM
      00440  622563266443     SETF   BCI,1,SETFUL
      00441  622563234323     SETC   BCI,1,SETCLC
      00442  242521246060     DEAD   BCI,1,DEAD
      00443  624325254760     SLEEP  BCI,1,SLEEP
      00444  622563222324     SETBCD BCI,1,SETBCD
      00445  233026314325     CHGFIL BCI,1,CHFILE
      00446  272563314425     QGETTM BCI,1,GETIME
                              *
      00447 +000000000100            DEC,1E0B29,1E1B29,1E2B29,1E3B29,1E4B29,1E5B29
      00450 +000000001200
      00451 +000000014400
      00452 +000000175000
      00453 +000002342000
      00454 +000030324000
                       00455  TABLE  EQU,*
                              *
      00455 -175757575757     WRMESS OCT,575757575757
      00501                   WREND  BES,19
                       00477  TEMP   EQU,WREND-2
                       00500  TEMP2  EQU,WREND-1
                              *
                       00473  OLD1   EQU,WREND-6
                       00474  NEW1   EQU,WREND-5
                       00475  OLD2   EQU,WREND-4
                       00476  NEW2   EQU,WREND-3
                       00477  NAMES  EQU,NEW2+1
                              *
      00501  0 00000 0 00012  TEN    PZE,10
      00502 +000000740000     SIXTY  DEC,60B23
      00503  0 00000 0 00000  REPEAT
      00504  606060606060     BLANKS BCI,1,
      00505  454626314325     NOMESS BCI,1,NOFILE
                              *
      00506 +000000101726     Q1     DEC,216E4B41
      00507 +000000645700     Q2     DEC,216E3B35
      00510 +000000002145     Q3     DEC,36E3B40
1       ZOT - NEW GAZABE COMPLEX                                                 68/11/21 2318.0 PAGE 9
                           OCTOBER 19, 1968  LHM

      00511 +000000016040     Q4     DEC,36E2B34
      00512 +000022600000     Q5     DEC,60E1B22
      00513 +000170000000     Q6     DEC,60E0B16
                              *
1       ZOT - NEW GAZABE COMPLEX                                                 68/11/21 2318.0 PAGE 10
                           OCTOBER 19, 1968  LHM

                              *
                              *  DISPATCH TABLE
                              *
                       00514  TABTOP EQU,*
      00514  212424462363            BCI,1,ADDOCT
      00515  0400 00 0 00260         ADD,ASOCT
      00516  233027234362            BCI,1,CHGCLS
      00517  0 00000 0 00315         PZE,CHGCLS
      00520  243165462363            BCI,1,DIVOCT
      00521  0221 00 0 00262         DVP,AROCT
      00522  272171212225            BCI,1,GAZABE
      00523  0 00000 0 00114         PZE,GAZABE
      00524  272563234362     QGET   BCI,1,GETCLS
      00525  0 00000 0 00221         PZE,GETCL
      00526  446443462363            BCI,1,MULOCT
      00527  0200 00 0 00262         MPY,AROCT
      00530  452567234644     NEXC   BCI,1,NEXCOM
      00531  0 00000 0 00157         PZE,NEXCM
      00532  454651252362            BCI,1,NORECS
      00533  0221 00 0 00257         DVP,NOREC
      00534  602243212342            BCI,1, BLACK
      00535  013200000100            VFD,O12/0132,24/PRINT
      00536  602330213145            BCI,1, CHAIN
      00537  0 00000 0 00140         PZE,CHAINX
      00540  602541252363     QEJECT BCI,1, EJECT
      00541  0 00000 0 00255         PZE,EJECT
      00542  603126262351     QIFFCR BCI,1, IFFCR
      00543  0 00000 0 00251         PZE,IFFCR
      00544  604751314563            BCI,1, PRINT
      00545  0 00000 0 00145         PZE,PRWORD
      00546  605131273063            BCI,1, RIGHT
      00547  0 00000 0 00324         PZE,RIGHT
      00550  606022254343            BCI,1,  BELL
      00551  011300000100            VFD,O12/0113,24/PRINT
      00552  606023302151            BCI,1,  CHAR
      00553  0 00000 0 00413         PZE,CHAR
      00554  606025233046            BCI,1,  ECHO
      00555  0 00000 0 00312         PZE,ECHO
      00556  606043252663            BCI,1,  LEFT
      00557  0 00000 0 00323         PZE,LEFT
      00560  606045644343            BCI,1,  NULL
      00561  005700000100            VFD,O12/0057,24/PRINT
      00562  606047462626            BCI,1,  POFF
      00563  011700000100            VFD,O12/0117,24/PRINT
      00564  606060212424            BCI,1,   ADD
      00565  0400 00 0 00261         ADD,ADDSUB
      00566  606060242523            BCI,1,   DEC
      00567  0 00000 0 00210         PZE,DEC
      00570  606060243125            BCI,1,   DIE
      00571  0 00000 0 00113         PZE,DEATH
      00572  606060243165            BCI,1,   DIV
      00573  0221 00 0 00263         DVP,ARITH
      00574  606060256723            BCI,1,   EXC
      00575  011400000100            VFD,O12/0114,24/PRINT
      00576  606060446443            BCI,1,   MUL
1       ZOT - NEW GAZABE COMPLEX                                                 68/11/21 2318.0 PAGE 11
                           OCTOBER 19, 1968  LHM

      00577  0200 00 0 00263         MPY,ARITH
      00600  606060462363            BCI,1,   OCT
      00601  0 00000 0 00201         PZE,OCT
      00602  606060474465            BCI,1,   PMV
      00603  0 00000 0 00652         PZE,TABBOT
      00604  606060474645            BCI,1,   PON
      00605  017500000100            VFD,O12/0175,24/PRINT
      00606  606060512524            BCI,1,   RED
      00607  013300000100            VFD,O12/0133,24/PRINT
      00610  606060602262            BCI,1,    BS
      00611  013500000100            VFD,O12/0135,24/PRINT
      00612  606060602351     CR     BCI,1,    CR
      00613  005500000100            VFD,O12/0055,24/PRINT
      00614  606060604326            BCI,1,    LF
      00615  010700000100            VFD,O12/0107,24/PRINT
      00616  606060606040            BCI,1,     -
      00617  411600000100            VFD,O12/4116,24/PRINT
      00620  606060606247            BCI,1,    SP
      00621  006000000100            VFD,O12/0060,24/PRINT
      00622  606060626422            BCI,1,   SUB
      00623  0402 00 0 00261         SUB,ADDSUB
      00624  606060632122            BCI,1,   TAB
      00625  007200000100            VFD,O12/0072,24/PRINT
      00626  606060633167            BCI,1,   TIX
      00627  0 00000 0 00162         PZE,TIX
      00630  606060702562            BCI,1,   YES
      00631  005400000100            VFD,O12/0054,24/PRINT
      00632  606060714663            BCI,1,   ZOT
      00633  0 00000 0 00121         PZE,ZOT
      00634  606063314425     QTIME  BCI,1,  TIME
      00635  0 00000 0 00356         PZE,MAKTIM
      00636  606066213163            BCI,1,  WAIT
      00637  0 00000 0 00134         PZE,WAIT
      00640  606247212325            BCI,1, SPACE
      00641  005500000100            VFD,O12/0055,24/PRINT
      00642  606445242551            BCI,1, UNDER
      00643  014000000100            VFD,O12/0140,24/PRINT
      00644  622563234362     SETS   BCI,1,SETCLS
      00645  0 00000 0 00152         PZE,SETCOM
      00646  626422462363            BCI,1,SUBOCT
      00647  0402 00 0 00260         SUB,ASOCT
      00650  626623302351            BCI,1,SWCHCR
      00651  0 00000 0 00244         PZE,SWCHCR
                       00652  TABBOT EQU,*
      00652 -377777777776            OCT,777777777776
                              *
                       00024         END,LOOP
1       ZOT - NEW GAZABE COMPLEX                                                 68/11/21 2318.0 PAGE 1
                        POST PROCESSOR ASSEMBLY DATA

        653 IS THE FIRST LOCATION NOT USED BY THIS PROGRAM

0REFERENCES TO DEFINED SYMBOLS
        612     CR   254
        277     MQ   273
        506     Q1   375
        507     Q2   376
        510     Q3   403
        511     Q4   404
        512     Q5   405
        513     Q6   406
        107     WR   111,  245,  247
         42    COM    16,  145,  161,  325,  413
        210    DEC   567
         62    DTB
         73    DTO    61,   75
         14    FIN    35,  157
         40    NUM    26,  114,  121,  124,  134,  140,  153,  162,  165,  201,  211,  221,  271
        201    OCT   601
        217    OUT   215
        501    TEN   115
        162    TIX   627
         37    XR1    15,  161
         31    XR2    27,   32,   34,  103,  267,  412,  421
        121    ZOT   633
         52   BUMP    27,   72,   77,  202,  212
        413   CHAR   421,  553
         61   CONV    25,   51,  210,  260,  262,  307
        442   DEAD   113
        312   ECHO   555
          0   EXIT    57,  244,  246
        437   GETC   423
        243   GOUT   313
        234   GTIX   320,  321
        274   INST   270,  300
        335   JOUT   333
        323   LEFT   557
         24   LOOP   112,  131,  132,  144,  176,  200,  243,  250,  253,  322,  353,  653
        474   NEW1   350,  501
        476   NEW2   351,  501
        530   NEXC   426
        174   NEXT   166
        473   OLD1   345,  501
        475   OLD2   346,  501
        306   PICK   272
        213   PNUM   311
        524   QGET   432
        441   SETC   430
        440   SETF   427
        644   SETS   424
        477   TEMP    63,   67,   70,  357,  373,  420,  421,  501
         11   TIME   122,  123,  130,  135,  136
        134   WAIT   637
        177   WIPE   172
1       ZOT - NEW GAZABE COMPLEX                                                 68/11/21 2318.0 PAGE 2
                        POST PROCESSOR ASSEMBLY DATA

        436   WRFX   431
          1   ZERO    42,  347,  414
        271  ALOOP   276,  302
        263  ARITH   257,  261,  573,  577
        262  AROCT   521,  527
        260  ASOCT   515,  647
         12  BLANK    40,  370
        434  CHAIN     2
         44  COMNO    52,   54,  175
        110  COUNT   106
        113  DEATH   571
        255  EJECT   541
        221  GETCL   525
        222  GETIN   314
        231  GLOOP   235
        251  IFFCR   543
        334  JLOOP   331
        477  NAMES   326,  342,  343,  501
        157  NEXCM   312,  531
         57  NOCOM    36,  160
        257  NOREC   533
          4  NULLS   101
        203  PNUMO   310
        100  PRINT   254,  421,  535,  551,  561,  563,  575,  605,  607,  611,  613,  615,  617,  621,  625,  631,  641
                     643
        634  QTIME   412
        324  RIGHT   547
        150  SETWR   412
        502  SIXTY   117
         13  SLASH   363,  366
        443  SLEEP   133
          7  SPARE   315
        275  STORE   305
        455  TABLE    65,  213,  455
        500  TEMP2   164,  174,  263,  264,  274,  275,  301,  304,  306,  501
        501  WREND   231,  233,  501
        431  WRFLX   107,  237,  241
        435  WRFXA   422
        111  WRTIX    31
        123  ZOTIN   120
        261 ADDSUB   565,  623
        504 BLANKS   330,  335
        131 BYEBYE   137
        344 CALCHG
        140 CHAINX   537
        425 CHFILE   344
        315 CHGCLS   517
        445 CHGFIL   425
         10 CLCWRD   126,  142
          3 COLONS   410
         43 COMCAL    56
         15 COMSTO    37
          5 CRWORD   255
        114 GAZABE   523
         26 GETARG    27
1       ZOT - NEW GAZABE COMPLEX                                                 68/11/21 2318.0 PAGE 3
                        POST PROCESSOR ASSEMBLY DATA

        151 GETBCD   236
        226 GETBUF   224
        432 GETCLS   225
        423 GETCOM    43
        433 GETIME   356
        325 GETNAM   331,  337
        356 MAKTIM   635
        426 NEXCOM    23
         23 NEXLOC   152
        505 NOMESS   354
        145 PRWORD   545
        146 PWRDIN   207,  220,  256,  355
        540 QEJECT
        446 QGETTM   433
        542 QIFFCR   254
        503 REPEAT   167,  170,  171,  173,  177,  252
        444 SETBCD   151
        430 SETCLC   127,  143
        424 SETCLS    17
        106 SETCNT   150
        152 SETCOM   645
        427 SETFUL   100
         20 SETLOC   156
        244 SWCHCR   651
        273 SWITCH   265
        652 TABBOT    55,  232,  603,  652
        514 TABTOP    32,   34,  103,  267,  412,  421,  514
          6 THEWRD   230,  316,  317
        422 WRFLXA     0
        455 WRMESS    15,   20,   21,   22,  102,  104,  110,  147,  226,  240,  242,  365,  401,  411

0 NO ERROR IN ABOVE ASSEMBLY.
