1     MAD PROGRAM LISTING ... ... ...                 FILE       P   MAD            02/05/69    1704.2
-
                 'P'  01/19/69                                                                         LM00001
                                                                                                       LM00002
                  WHENEVER (COMARG.(2,FN1).E.FENCE).OR.(COMARG.(1,FN).E.FENCE)                    *001 LM00003
                    WHENEVER FN.E.$  HELP$.OR.FN.E.$(HELP)$, TRANSFER TO HELP                     *002 LM00004
                    PRFULL.($'1'RINCOMPLETE '1COMMAND.'*'B$)                                      *003 LM00005
                    CHNCOM.(0)                                                                    *004 LM00006
                  END OF CONDITIONAL                                                              *005 LM00007
                  GETBUF.(IN,360)                                                                 *006 LM00008
                  GETBUF.(OUT,84)                                                                 *007 LM00009
                  GETBUF.(ITABS,150)                                                              *008 LM00010
                  GETBUF.(OTABS,150)                                                              *009 LM00011
                  MODE=0                                                                          *010 LM00012
                  LMSW=0B                                                                         *011 LM00013
                  LNSZ=0                                                                          *012 LM00014
                  HDRSW=0B                                                                        *013 LM00015
                  DATESW=0B                                                                       *014 LM00016
                  CC=0B                                                                           *015 LM00017
                  NCCS=1B                                                                         *016 LM00018
                  PS=0B                                                                           *017 LM00019
                  NIT=0                                                                           *018 LM00020
                  NOT=0                                                                           *019 LM00021
                  MADSW=0B                                                                        *020 LM00022
                  THROUGH AL, FOR I=3,1,COMARG.(I,ARG).E.FENCE                                    *021 LM00023
                  ARGX=ARG                                                                        *022 LM00024
                  WHENEVER ARG.A.77K.E.34K                                                        *023 LM00025
                    ARG=LJUST.(ARG.A.7777777777K2.V.60K)                                          *024 LM00026
                    WHENEVER ARG.A.77K10.NE.74K10, TRANSFER TO BAD                                *025 LM00027
                    ARG=BZEL.(RJUST.(ARG.A.7777777777K.V.60K10))                                  *026 LM00028
                  END OF CONDITIONAL                                                              *027 LM00029
                  WHENEVER ARG.E.$     6$                                                         *028 LM00030
                    MODE=6                                                                        *029 LM00031
                  OR WHENEVER ARG.E.$     9$                                                      *030 LM00032
                    MODE=9                                                                        *031 LM00033
                    CC=0B                                                                         *032 LM00034
                    NCCS=0B                                                                       *033 LM00035
                  OR WHENEVER ARG.E.$    12$                                                      *034 LM00036
                    MODE=12                                                                       *035 LM00037
                    CC=0B                                                                         *036 LM00038
                    NCCS=0B                                                                       *037 LM00039
                  OR WHENEVER ARG.E.$    CC$                                                      *038 LM00040
                    CC=1B                                                                         *039 LM00041
                    NCCS=0B                                                                       *040 LM00042
                  OR WHENEVER ARG.E.$   NCC$                                                      *041 LM00043
                    CC=0B                                                                         *042 LM00044
                    NCCS=0B                                                                       *043 LM00045
                  OR WHENEVER ARG.E.$    WR$                                                      *044 LM00046
                    WR=1B                                                                         *045 LM00047
                  OR WHENEVER ARG.E.$    PS$                                                      *046 LM00048
                    PS=1B                                                                         *047 LM00049
                  OR WHENEVER ARG.E.$   HDR$                                                      *048 LM00050
                    HDRSW=1B                                                                      *049 LM00051
                    PAGENO=1                                                                      *050 LM00052
                    PGNO=2                                                                        *051 LM00053
                    TRANSFER TO PHDR1                                                             *052 LM00054
                  OR WHENEVER ARG.E.$  DATE$                                                      *053 LM00055
                    DATESW=1B                                                                     *054 LM00056
                    PGNO=0                                                                        *055 LM00057
      PHDR1         FTIME.(GTDYTM.(0),DATE,TIME)                                                  *056 LM00058
                    DATE(1)=(DATE.A.7777K).LS.18.V.$/00'  $                                       *057 LM00059
                    DATE=(DATE.A.7777K8).RS.6.V.(DATE.A.7777K4).RS.12                             *058 LM00060
                1     .V.$ 00/00$                                                                 *058 LM00061
                      VECTOR VALUES PGN=$ PAGE 1'8$                                               *059 LM00062
                      DIMENSION DATE(1)                                                           *060 LM00063
                  OR WHENEVER ARG.E.$ ITABS$                                                      *061 LM00064
                    GETTAB.(NIT,ITABS(ITABS))                                                     *062 LM00065
                  OR WHENEVER ARG.E.$ OTABS$                                                      *063 LM00066
                    GETTAB.(NOT,OTABS(OTABS))                                                     *064 LM00067
                  OR WHENEVER ARG.E.$  HELP$                                                      *065 LM00068
      HELP          PRMESS.                                                                       *066 LM00069
                    PRFULL.($'UP NAME1 NAME2 -MODES-$)                                            *067 LM00070
                    PRFULL.($'UMODES 'LARE:$)                                                     *068 LM00071
                    PRFULL.($'U  6 9 12 CC NCC WR PS HDR DATE HELP$)                              *069 LM00072
                    PRFULL.($'U  ITAB 'N  OTAB 'N  LL 'N  PGL 'N  BLKSIZ 'N'8$,                   *070 LM00073
                1     $  FILE 'LNAME4$)                                                           *070 LM00074
                    PRFULL.($'U  ITABS '4LIST  OTABS '4LIST$)                                     *071 LM00075
                    PRFULL.($    LIST CONTAINS: 'U'N CTSS FAP MAD$)                               *072 LM00076
                    TRANSFER TO EGRETS                                                            *073 LM00077
                  OR WHENEVER COMARG.(I+1,ARG1).NE.FENCE                                          *074 LM00078
                    I=I+1                                                                         *075 LM00079
                    WHENEVER ARG.E.$  ITAB$                                                       *076 LM00080
                      ITD=BCDC.(ARG1)                                                             *077 LM00081
                      WHENEVER ITD.E.0, TRANSFER TO ILL                                           *078 LM00082
                    OR WHENEVER ARG.E.$  OTAB$                                                    *079 LM00083
                      OTD=BCDC.(ARG1)                                                             *080 LM00084
                      WHENEVER OTD.E.0, TRANSFER TO ILL                                           *081 LM00085
                    OR WHENEVER ARG.E.$    LL$                                                    *082 LM00086
                      SLL=BCDC.(ARG1)                                                             *083 LM00087
                      WHENEVER SLL.E.0, TRANSFER TO ILL                                           *084 LM00088
                    OR WHENEVER ARG.E.$   PGL$                                                    *085 LM00089
                      SPGL=BCDC.(ARG1)                                                            *086 LM00090
                      WHENEVER SPGL.E.0, TRANSFER TO ILL                                          *087 LM00091
                    OR WHENEVER ARG.E.$BLKSIZ$                                                    *088 LM00092
                      LNSZ=BCDC.(ARG1)                                                            *089 LM00093
                      WHENEVER LNSZ.E.0, TRANSFER TO ILL                                          *090 LM00094
                      CC=0B                                                                       *091 LM00095
                      NCCS=0B                                                                     *092 LM00096
                    OR WHENEVER ARG.E.$  FILE$                                                    *093 LM00097
                      FILESW=1B                                                                   *094 LM00098
                      FNARY=FN                                                                    *095 LM00099
                      FNARY(1)=ARG1                                                               *096 LM00100
                      DELETE.(FNARY,FNARY(1),0,EGRETS)                                            *097 LM00101
                      DIMENSION FNARY(1)                                                          *098 LM00102
                      OPENW.(FN,ARG1)                                                             *099 LM00103
                    OTHERWISE                                                                     *100 LM00104
                      TRANSFER TO BAD                                                             *101 LM00105
                    END OF CONDITIONAL                                                            *102 LM00106
                  OTHERWISE                                                                       *103 LM00107
      BAD           PRFULL.($'R'X'8$,ARGX,$ NOT RECOGNIZED.'B$)                                   *104 LM00108
                    TRANSFER TO EGRETS                                                            *105 LM00109
      ILL           PRFULL.($'R'X'8$,ARGX,$'X '8$,ARG1,$ ILLEGAL.'B$)                             *106 LM00110
                    TRANSFER TO EGRETS                                                            *107 LM00111
      AL          END OF CONDITIONAL                                                              *108 LM00112
                  WHENEVER (SPGL.L.5.OR.(SPGL.L.8.AND.HDRSW)).AND.SPGL.NE.0                       *109 LM00113
                    PRFULL.($'R'3   PGL '8$,BZEL.(DEFBC.(SPGL)),$ ILLEGAL.'B$)                    *110 LM00114
                    TRANSFER TO EGRETS                                                            *111 LM00115
                  END OF CONDITIONAL                                                              *112 LM00116
                  WHENEVER NIT.E.0                                                                *113 LM00117
                    THROUGH ITDL, FOR I=ITD+1,ITD,I.G.150                                         *114 LM00118
                    NIT=NIT+1                                                                     *115 LM00119
                    ITABS(ITABS+NIT)=I                                                            *116 LM00120
      ITDL          CONTINUE                                                                      *117 LM00121
                  END OF CONDITIONAL                                                              *118 LM00122
                  WHENEVER NOT.E.0                                                                *119 LM00123
                    THROUGH OTDL, FOR I=OTD+1,OTD,I.G.150                                         *120 LM00124
                    NOT=NOT+1                                                                     *121 LM00125
                    OTABS(OTABS+NOT)=I                                                            *122 LM00126
      OTDL          CONTINUE                                                                      *123 LM00127
                  END OF CONDITIONAL                                                              *124 LM00128
                  SETBRK.(BRKOUT)                                                                 *125 LM00129
                                                                                                       LM00130
                   THINK ABOUT MODE                                                                    LM00131
                                                                                                       LM00132
                  OPENF.(FN,FN1)                                                                  *126 LM00133
                  EOFCT=360                                                                       *127 LM00134
                  RDWAIT.(FN,FN1,1,IN(IN+360)...360,EOFT,EOFCT)                                   *128 LM00135
      EOFT        IL=360-EOFCT                                                                    *129 LM00136
                  THROUGH LLM, FOR I=360,-1,I.LE.IL.OR.LMSW                                       *130 LM00137
                  WHENEVER IN(IN+I).A.LM .E.LM, LMSW=1B                                           *131 LM00138
      LLM         CONTINUE                                                                        *132 LM00139
                  WHENEVER MODE.E.0                                                               *133 LM00140
                    N9=0B                                                                         *134 LM00141
                    N12=0B                                                                        *135 LM00142
                    THROUGH LT, FOR I=360,-1,I.LE.IL.OR.N9.AND.N12                                *136 LM00143
                    CHAR=IN(IN+I)                                                                 *137 LM00144
                    WHENEVER CHAR.A.LM.E.LM, TRANSFER TO LT                                       *138 LM00145
                    WHENEVER .NOT.N9.AND.CHAR.A.600600600600K.NE.0,N9=1B                          *139 LM00146
                    WHENEVER .NOT.N12.AND.CHAR.A.720072007200K.NE.0,N12=1B                        *140 LM00147
      LT            CONTINUE                                                                      *141 LM00148
                    WHENEVER .NOT.N9.AND.N12                                                      *142 LM00149
                      MODE=9                                                                      *143 LM00150
                      NCCS=0B                                                                     *144 LM00151
                      CC=0B                                                                       *145 LM00152
                    OR WHENEVER .NOT.N12.AND.N9                                                   *146 LM00153
                      MODE=12                                                                     *147 LM00154
                      NCCS=0B                                                                     *148 LM00155
                      CC=0B                                                                       *149 LM00156
                    OTHERWISE                                                                     *150 LM00157
                      MODE=6                                                                      *151 LM00158
                    END OF CONDITIONAL                                                            *152 LM00159
                  END OF CONDITIONAL                                                              *153 LM00160
                  IN(IN+IL+1)=0                                                                   *154 LM00161
                  THROUGH CCTL, FOR I=360,-1,I.LE.IL.OR..NOT.NCCS                                 *155 LM00162
                  PCC=IN(IN+I-1).RS.30                                                            *156 LM00163
      PCL         THROUGH PCL, FOR J=0,1,J.G.NPCC.OR.PCC.E.PCCL(J)                                *157 LM00164
                  WHENEVER J.G.NPCC.OR.IN(IN+I).A.LM.NE.LM                                        *158 LM00165
                    NCCS=0B                                                                       *159 LM00166
                    CC=0B                                                                         *160 LM00167
                  OTHERWISE                                                                       *161 LM00168
                    I=I-IN(IN+I).A.77777K                                                         *162 LM00169
                    CC=1B                                                                         *163 LM00170
                  END OF CONDITIONAL                                                              *164 LM00171
      CCTL        CONTINUE                                                                        *165 LM00172
                                                                                                       LM00173
                   GET UNITID AND PICK UP TIMING CODES                                                 LM00174
                                                                                                       LM00175
                  WHOAMI.(OUT(OUT+4)...4)                                                         *166 LM00176
                  WHENEVER OUT(OUT+1) .E. $(FIB) $                                                *167 LM00177
                    ID=10                                                                         *168 LM00178
                    TRANSFER TO GETTIM                                                            *169 LM00179
                  OTHERWISE                                                                       *170 LM00180
                    ID = OUT(OUT+1) .RS. 30                                                       *171 LM00181
                    WHENEVER ID.G.9                                                               *172 LM00182
                      PRFULL.($'R'1ILLEGAL '1CONSOLE 'UID:'X'8$,OUT(OUT+1),                       *173 LM00183
                1       $'B'9$)                                                                   *173 LM00184
                      TRANSFER TO BRKOUT                                                          *174 LM00185
                    END OF CONDITIONAL                                                            *175 LM00186
      GETTIM        TCR = TCR(ID)                                                                 *176 LM00187
                    TCRLF=TCRLF(ID)                                                               *177 LM00188
                    WHENEVER FILESW, TCRLF=1                                                      *178 LM00189
                    TBS = TBS(ID)                                                                 *179 LM00190
                    TSP = TSP(ID)                                                                 *180 LM00191
                    TTAB = TTAB(ID)                                                               *181 LM00192
                    TLF = TLF(ID)                                                                 *182 LM00193
                    WHENEVER FILESW, TLF=1                                                        *183 LM00194
                    LL=LL(ID)                                                                     *184 LM00195
                    WHENEVER SLL.NE.0, LL=SLL                                                     *185 LM00196
                    PGL=PGL(ID)                                                                   *186 LM00197
                    WHENEVER SPGL.NE.0, PGL=SPGL                                                  *187 LM00198
                    D(8)=PGL/5                                                                    *188 LM00199
                    D(7)=(PGL-1)/4                                                                *189 LM00200
                    D(6)=(PGL-2)/3                                                                *190 LM00201
                    D(5)=2*D(7)                                                                   *191 LM00202
                    D(1)=PGL                                                                      *192 LM00203
                  END OF CONDITIONAL                                                              *193 LM00204
                  WHENEVER LNSZ.NE.0                                                              *194 LM00205
                    LMSW=0B                                                                       *195 LM00206
                  OR WHENEVER .NOT.LMSW.AND.MODE.E.6                                              *196 LM00207
                    LNSZ=14                                                                       *197 LM00208
                  OTHERWISE                                                                       *198 LM00209
                    LNSZ=0                                                                        *199 LM00210
                  END OF CONDITIONAL                                                              *200 LM00211
                  SETSIZ.(MODE,LNSZ,LMSW)                                                         *201 LM00212
                  SETFUL.(0)                                                                      *202 LM00213
                  AX=1                                                                            *203 LM00214
                  BX=1                                                                            *204 LM00215
                  AY=0                                                                            *205 LM00216
                  WHENEVER CC.OR.PS                                                               *206 LM00217
                    CCN=CC                                                                        *207 LM00218
                    CCX=CC.OR.PS                                                                  *208 LM00219
                    BY=0                                                                          *209 LM00220
                  OTHERWISE                                                                       *210 LM00221
                    BY=1                                                                          *211 LM00222
                    CCN=0B                                                                        *212 LM00223
                    CCX=0B                                                                        *213 LM00224
                  END OF CONDITIONAL                                                              *214 LM00225
                  K=1                                                                             *215 LM00226
                  WHENEVER DATESW.OR.HDRSW                                                        *216 LM00227
                    BY=4                                                                          *217 LM00228
                    AY=4                                                                          *218 LM00229
                    PRTCHR.(PTCHAR.)                                                              *219 LM00230
                    PRFULA.($'*'*'X$,FN,$ 'X'8$,FN1,DATE...2,TIME,PGN...PGNO,                     *220 LM00231
                1     $'*'*'9$)                                                                   *220 LM00232
                  END OF CONDITIONAL                                                              *221 LM00233
                  EOFSW=0B                                                                        *222 LM00234
      LOOP        N=READF.(IN(IN),360,777K,EOF)                                                   *223 LM00235
                  THROUGH CHARL, FOR I=1,1,I.G.N                                                  *224 LM00236
                  CHAR=IN(IN+I).A.177K                                                            *225 LM00237
                  WHENEVER MODE.E.9, CHAR=ASCTSS.(CHAR)                                           *226 LM00238
                  WHENEVER CHAR.E.57K, TRANSFER TO CHARL                                          *227 LM00239
                  PTF=1B                                                                          *228 LM00240
                  CKP=1B                                                                          *229 LM00241
                  WHENEVER CCN                                                                    *230 LM00242
                    CCN=0B                                                                        *231 LM00243
      L2            THROUGH L2, FOR J=0,1,J.G.NPCC.OR.CHAR.E.PCCL(J)                              *232 LM00244
                    WHENEVER J.G.NPCC, TRANSFER TO CKHDR                                          *233 LM00245
                    PTF=0B                                                                        *234 LM00246
                    TRANSFER TO PCCP(J)                                                           *235 LM00247
                                                                                                       LM00248
                  1 2 3 4 5 -- SKIPS                                                                   LM00249
      PCCP(1)                                                                                     *236 LM00250
      PCCP(5)                                                                                     *237 LM00251
      PCCP(6)                                                                                     *238 LM00252
      PCCP(7)                                                                                     *239 LM00253
      PCCP(8)       WHENEVER BY.E.BY/PGL*PGL, TRANSFER TO CKHDR                                   *240 LM00254
                    X=((BY-BY/PGL*PGL)/D(J)+1)*D(J)                                               *241 LM00255
                    WHENEVER X.G.PGL, X=PGL                                                       *242 LM00256
                    BY=BY/PGL*PGL+X+2                                                             *243 LM00257
                    TRANSFER TO CKHDR                                                             *244 LM00258
                                                                                                       LM00259
                  SPACE 0 -                                                                            LM00260
      PCCP(0)                                                                                     *245 LM00261
      PCCP(2)                                                                                     *246 LM00262
      PCCP(3)       BY=BY+D(J)                                                                    *247 LM00263
                    TRANSFER TO CKHDR                                                             *248 LM00264
                                                                                                       LM00265
                  + / S T                                                                              LM00266
      PCCP(4)                                                                                     *249 LM00267
      PCCP(9)                                                                                     *250 LM00268
      PCCP(10)                                                                                    *251 LM00269
      PCCP(11)      BY=BY+D(J)                                                                    *252 LM00270
                    CKP=0B                                                                        *253 LM00271
                    TRANSFER TO CKHDR                                                             *254 LM00272
                                                                                                       LM00273
                  OR WHENEVER CCX.OR..NOT.(CC.OR.PS)                                              *255 LM00274
                    CKP=CCX                                                                       *256 LM00275
      CKHDR         CCX=0B                                                                        *257 LM00276
                    WHENEVER AY/PGL.NE.(BY+2)/PGL.AND.HDRSW                                       *258 LM00277
                      BY=BY+4                                                                     *259 LM00278
                      AY=AY+1                                                                     *260 LM00279
                      AX=1                                                                        *261 LM00280
                      PTCHAR.(SP(0))                                                              *262 LM00281
                      WHENEVER TLF.G.0                                                            *263 LM00282
                        CHR=SP(0)                                                                 *264 LM00283
                      OTHERWISE                                                                   *265 LM00284
                        CHR=SP(1)                                                                 *266 LM00285
                      END OF CONDITIONAL                                                          *267 LM00286
      SK1             X=AY-AY/PGL*PGL                                                             *268 LM00287
                      WHENEVER X.NE.0, X=PGL-X                                                    *269 LM00288
                      AY=AY+X                                                                     *270 LM00289
                      THROUGH SK2, FOR X=X,-1,X.E.0                                               *271 LM00290
      SK2             PTCHAR.(CHR)                                                                *272 LM00291
                      PAGENO=PAGENO+1                                                             *273 LM00292
                      PGN(1)=BZ57.(DEFBC.(PAGENO))                                                *274 LM00293
                      PRFULA.($'*'*'X$,FN,$ 'X'8$,FN1,DATE...2,TIME,PGN...PGNO,                   *275 LM00294
                1       $'*'*'9$)                                                                 *275 LM00295
                      AY=AY+4                                                                     *276 LM00296
                      WHENEVER BY.L.AY, BY=AY                                                     *277 LM00297
                      WHENEVER AY/PGL.NE.(BY+2)/PGL, TRANSFER TO SK1                              *278 LM00298
                    END OF CONDITIONAL                                                            *279 LM00299
                                                                                                       LM00300
                    WHENEVER CKP                                                                  *280 LM00301
                      MOD=BY-(BY/PGL)*PGL                                                         *281 LM00302
                      WHENEVER MOD.G.PGL-3.OR.MOD.L.2                                             *282 LM00303
                        BY=((BY+3)/PGL)*PGL+2                                                     *283 LM00304
                      END OF CONDITIONAL                                                          *284 LM00305
                    END OF CONDITIONAL                                                            *285 LM00306
                    WHENEVER .NOT.PTF, TRANSFER TO CHARL                                          *286 LM00307
                  END OF CONDITIONAL                                                              *287 LM00308
                                                                                                       LM00309
      L1          THROUGH L1, FOR J=0,1,J.G.NSPC .OR. CHAR.E.SP(J)                                *288 LM00310
                  WHENEVER J.LE.NSPC                                                              *289 LM00311
                    TRANSFER TO SPP(J)                                                            *290 LM00312
                   CR                                                                                  LM00313
      SPP(0)        BX=1                                                                          *291 LM00314
                    BY=BY+1                                                                       *292 LM00315
                    CCN=CC                                                                        *293 LM00316
                    CCX=CC.OR.PS                                                                  *294 LM00317
                    TRANSFER TO CHARL                                                             *295 LM00318
                   LF                                                                                  LM00319
      SPP(1)        BY=BY+1                                                                       *296 LM00320
                    CCX=CC.OR.PS                                                                  *297 LM00321
                    TRANSFER TO CHARL                                                             *298 LM00322
                   TAB                                                                                 LM00323
      SPP(2)        CONTINUE                                                                      *299 LM00324
      TL1           THROUGH TL1, FOR TI=1,1,ITABS(ITABS+TI).G.BX                                  *300 LM00325
                    BX=ITABS(ITABS+TI)                                                            *301 LM00326
                    TRANSFER TO CHARL                                                             *302 LM00327
                   SP                                                                                  LM00328
      SPP(3)        BX=BX+1                                                                       *303 LM00329
                    TRANSFER TO CHARL                                                             *304 LM00330
                   BS                                                                                  LM00331
      SPP(4)        BX=BX-1                                                                       *305 LM00332
                    TRANSFER TO CHARL                                                             *306 LM00333
                   CR NO LF                                                                            LM00334
      SPP(5)        BX=1                                                                          *307 LM00335
                    TRANSFER TO CHARL                                                             *308 LM00336
                                                                                                       LM00337
                  OTHERWISE                                                                       *309 LM00338
      FILOUT        WHENEVER CHAR.E.MADBS.AND.BX.E.12.AND.MADSW                                   *310 LM00339
                      BX=11                                                                       *311 LM00340
                      TRANSFER TO CHARL                                                           *312 LM00341
                    END OF CONDITIONAL                                                            *313 LM00342
      L3            THROUGH L3, FOR J=0,1,J.G.NNOSP.OR.CHAR.E.NOSP(J)                             *314 LM00343
                    WHENEVER J.LE.NNOSP                                                           *315 LM00344
                      PTCHAR.(CHAR)                                                               *316 LM00345
                      TRANSFER TO CHARL                                                           *317 LM00346
                    END OF CONDITIONAL                                                            *318 LM00347
                    WHENEVER BX.G.LL                                                              *319 LM00348
                      WHENEVER WR                                                                 *320 LM00349
                        BX=1                                                                      *321 LM00350
                        BY=BY+1                                                                   *322 LM00351
                      OTHERWISE                                                                   *323 LM00352
                        TRANSFER TO NOPT                                                          *324 LM00353
                      END OF CONDITIONAL                                                          *325 LM00354
                    END OF CONDITIONAL                                                            *326 LM00355
                    WHENEVER AX.E.BX.AND.AY.E.BY, TRANSFER TO PCHAR                               *327 LM00356
                    WHENEVER BY.E.AY.AND.BX.E.AX+1                                                *328 LM00357
                      PTCHAR.(SP(3))                                                              *329 LM00358
                      TRANSFER TO PCHAR                                                           *330 LM00359
                    OR WHENEVER BX.E.1.AND.BY.E.AY+1                                              *331 LM00360
                      PTCHAR.(SP(0))                                                              *332 LM00361
                      TRANSFER TO PCHAR                                                           *333 LM00362
                    END OF CONDITIONAL                                                            *334 LM00363
                   FILL FROM A TO B                                                                    LM00364
                  THROUGH RL, FOR J=0,1,J.G.NSPC                                                  *335 LM00365
      RL          NC(J)=0                                                                         *336 LM00366
                  WHENEVER BY.G.AY .AND. TLF.G.0                                                  *337 LM00367
                    NCR=1                                                                         *338 LM00368
                    AX=1                                                                          *339 LM00369
                    AY=AY+1                                                                       *340 LM00370
                  END OF CONDITIONAL                                                              *341 LM00371
                  WHENEVER AX.L.BX                                                                *342 LM00372
                    HORZ.(AX,BX)                                                                  *343 LM00373
                  OTHERWISE                                                                       *344 LM00374
                    WHENEVER TCR*AX+HORZ.(1,BX).L.(AX-BX)*TBS.AND.                                *345 LM00375
                1     (BY.G.AY.OR.TCRLF.E.0)                                                      *345 LM00376
                      WHENEVER BY.G.AY                                                            *346 LM00377
                        NCR=NCR+1                                                                 *347 LM00378
                        AY=AY+1                                                                   *348 LM00379
                        AX=1                                                                      *349 LM00380
                      OTHERWISE                                                                   *350 LM00381
                        NCRLF=1                                                                   *351 LM00382
                        AX=1                                                                      *352 LM00383
                      END OF CONDITIONAL                                                          *353 LM00384
                    OTHERWISE                                                                     *354 LM00385
                      NBS=AX-BX                                                                   *355 LM00386
                      NSP=0                                                                       *356 LM00387
                      NTAB=0                                                                      *357 LM00388
                    END OF CONDITIONAL                                                            *358 LM00389
                  END OF CONDITIONAL                                                              *359 LM00390
                  WHENEVER TLF.G.0                                                                *360 LM00391
                    NCR=NCR+BY-AY                                                                 *361 LM00392
                  OTHERWISE                                                                       *362 LM00393
                    NLF=NLF+BY-AY                                                                 *363 LM00394
                  END OF CONDITIONAL                                                              *364 LM00395
                  THROUGH FILL, FOR J=0,1,J.G.NSPC                                                *365 LM00396
                  THROUGH FILL1, FOR L=1,1,L.G.NC(J)                                              *366 LM00397
                  PTCHAR.(SP(J))                                                                  *367 LM00398
      FILL1       CONTINUE                                                                        *368 LM00399
      FILL        CONTINUE                                                                        *369 LM00400
      PCHAR       WHENEVER EOFSW, TRANSFER TO DONE                                                *370 LM00401
                  AX=BX                                                                           *371 LM00402
                  AY=BY                                                                           *372 LM00403
                  PTCHAR.(CHAR)                                                                   *373 LM00404
                  AX=AX+1                                                                         *374 LM00405
      NOPT        BX=BX+1                                                                         *375 LM00406
                  END OF CONDITIONAL                                                              *376 LM00407
      CHARL       CONTINUE                                                                        *377 LM00408
                  TRANSFER TO LOOP                                                                *378 LM00409
      DONE        WHENEVER K.NE.0                                                                 *379 LM00410
                    WHENEVER FILESW                                                               *380 LM00411
                      WTA.(OUT(OUT),K-1)                                                          *381 LM00412
                      CLOSEW.                                                                     *382 LM00413
                    OTHERWISE                                                                     *383 LM00414
                      PNTLIN.(OUT(OUT),K-1)                                                       *384 LM00415
                    END OF CONDITIONAL                                                            *385 LM00416
                  END OF CONDITIONAL                                                              *386 LM00417
      BRKOUT      CLOSEF.                                                                         *387 LM00418
      EGRETS      SETBCD.(0)                                                                      *388 LM00419
                  CHNCOM.(0)                                                                      *389 LM00420
                                                                                                       LM00421
      EOF         EOFSW=1B                                                                        *390 LM00422
                  WHENEVER CC                                                                     *391 LM00423
                    WHENEVER BY.NE.(BY/PGL)*PGL                                                   *392 LM00424
                      BY=(BY/PGL+1)*PGL+1                                                         *393 LM00425
                    END OF CONDITIONAL                                                            *394 LM00426
                  OTHERWISE                                                                       *395 LM00427
                    BY=BY+2                                                                       *396 LM00428
                    BX=1                                                                          *397 LM00429
                  END OF CONDITIONAL                                                              *398 LM00430
                  TRANSFER TO FILOUT                                                              *399 LM00431
                                                                                                       LM00432
                  INTERNAL FUNCTION (PTC)                                                         *400 LM00433
                  ENTRY TO PTCHAR.                                                                *401 LM00434
                  WHENEVER FILESW                                                                 *402 LM00435
                    C=TSSASC.(PTC)                                                                *403 LM00436
                  OTHERWISE                                                                       *404 LM00437
                    C=PTC                                                                         *405 LM00438
                  END OF CONDITIONAL                                                              *406 LM00439
                  OUT(OUT+K)=C                                                                    *407 LM00440
                  K=K+1                                                                           *408 LM00441
                  WHENEVER K.G.84                                                                 *409 LM00442
                    WHENEVER FILESW                                                               *410 LM00443
                      WTA.(OUT(OUT),84)                                                           *411 LM00444
                    OTHERWISE                                                                     *412 LM00445
                      PNTLIN.(OUT(OUT),84)                                                        *413 LM00446
                    END OF CONDITIONAL                                                            *414 LM00447
                    K=1                                                                           *415 LM00448
                  END OF CONDITIONAL                                                              *416 LM00449
                  FUNCTION RETURN                                                                 *417 LM00450
                  END OF FUNCTION                                                                 *418 LM00451
                                                                                                       LM00452
                                                                                                       LM00453
                  INTERNAL FUNCTION (AA,BB)                                                       *419 LM00454
                  ENTRY TO HORZ.                                                                  *420 LM00455
                  A=AA                                                                            *421 LM00456
                  B=BB                                                                            *422 LM00457
      TL2         THROUGH TL2, FOR ATI=1,1,OTABS(OTABS+ATI).G.A                                   *423 LM00458
      TL3         THROUGH TL3, FOR BTI=1,1,OTABS(OTABS+BTI).G.B                                   *424 LM00459
                  NTAB=BTI-ATI                                                                    *425 LM00460
                  WHENEVER NTAB.G.0                                                               *426 LM00461
                    A1=OTABS(OTABS+BTI-1)                                                         *427 LM00462
                    T=(A1-A)*TTAB+NTAB*TSP                                                        *428 LM00463
                    A=A1                                                                          *429 LM00464
                    ATI=BTI                                                                       *430 LM00465
                  OTHERWISE                                                                       *431 LM00466
                    T=0                                                                           *432 LM00467
                  END OF CONDITIONAL                                                              *433 LM00468
                  NSP=B-A                                                                         *434 LM00469
                  LTAB=OTABS(OTABS+ATI)-A                                                         *435 LM00470
                  NBS=LTAB-NSP                                                                    *436 LM00471
                  TMSP=NSP*TSP                                                                    *437 LM00472
                  TMBS=TTAB*LTAB+TSP+TBS*NBS                                                      *438 LM00473
                  WHENEVER TMSP.LE.TMBS                                                           *439 LM00474
                    NBS=0                                                                         *440 LM00475
                    T=T+TMSP                                                                      *441 LM00476
                  OTHERWISE                                                                       *442 LM00477
                    NSP=0                                                                         *443 LM00478
                    NTAB=NTAB+1                                                                   *444 LM00479
                    T=T+TMBS                                                                      *445 LM00480
                  END OF CONDITIONAL                                                              *446 LM00481
                  FUNCTION RETURN T                                                               *447 LM00482
                  END OF FUNCTION                                                                 *448 LM00483
                                                                                                       LM00484
                  INTERNAL FUNCTION (NN,A)                                                        *449 LM00485
                  ENTRY TO GETTAB.                                                                *450 LM00486
                  WHENEVER COMARG.(I+1).E.FENCE, TRANSFER TO BAD                                  *451 LM00487
                  N=NN                                                                            *452 LM00488
                  THROUGH TAL, FOR I=I+1,1,COMARG.(I,ARG1).E.FENCE                                *453 LM00489
                  WHENEVER ARG1.E.$   FAP$                                                        *454 LM00490
                    THROUGH FCL, FOR J=0,1,FAPTAB(J).E.0                                          *455 LM00491
                    N=N+1                                                                         *456 LM00492
      FCL           A(N)=FAPTAB(J)                                                                *457 LM00493
                  OR WHENEVER ARG1.E.$   MAD$                                                     *458 LM00494
                    WHENEVER ARG.E.$ ITABS$, MADSW=1B                                             *459 LM00495
                    THROUGH MCL, FOR J=0,1,MADTAB(J).E.0                                          *460 LM00496
                    N=N+1                                                                         *461 LM00497
      MCL           A(N)=MADTAB(J)                                                                *462 LM00498
                  OR WHENEVER ARG1.E.$  CTSS$                                                     *463 LM00499
                    THROUGH XCL, FOR J=15,15,J.G.150                                              *464 LM00500
                    N=N+1                                                                         *465 LM00501
      XCL           A(N)=J                                                                        *466 LM00502
                  OR WHENEVER ZEL.(ARG1).A.$$.E.0                                                 *467 LM00503
                    N=N+1                                                                         *468 LM00504
                    A(N)=BCDEC.(ARG1)                                                             *469 LM00505
                  OTHERWISE                                                                       *470 LM00506
                    TRANSFER TO RET                                                               *471 LM00507
                  END OF CONDITIONAL                                                              *472 LM00508
      TAL         CONTINUE                                                                        *473 LM00509
      RET         I=I-1                                                                           *474 LM00510
      SORT        CH=0B                                                                           *475 LM00511
                  THROUGH SL, FOR J=2,1,J.G.N                                                     *476 LM00512
                  WHENEVER A(J).E.A(J-1)                                                          *477 LM00513
                    A(J)=A(N)                                                                     *478 LM00514
                    N=N-1                                                                         *479 LM00515
                    CH=1B                                                                         *480 LM00516
                  OR WHENEVER A(J).L.A(J-1)                                                       *481 LM00517
                    ARG1=A(J-1)                                                                   *482 LM00518
                    A(J-1)=A(J)                                                                   *483 LM00519
                    A(J)=ARG1                                                                     *484 LM00520
                    CH=1B                                                                         *485 LM00521
                  END OF CONDITIONAL                                                              *486 LM00522
      SL          CONTINUE                                                                        *487 LM00523
                  WHENEVER CH, TRANSFER TO SORT                                                   *488 LM00524
                  N=N+1                                                                           *489 LM00525
                  A(N)=1000                                                                       *490 LM00526
                  NN=N                                                                            *491 LM00527
                  FUNCTION RETURN                                                                 *492 LM00528
                  END OF FUNCTION                                                                 *493 LM00529
                                                                                                       LM00530
                  INTERNAL FUNCTION (Z)                                                           *494 LM00531
                  ENTRY TO BCDC.                                                                  *495 LM00532
                  WHENEVER ZEL.(Z).A.$$.NE.0, TRANSFER TO BAD                                     *496 LM00533
                  FUNCTION RETURN BCDEC.(Z)                                                       *497 LM00534
                  END OF FUNCTION                                                                 *498 LM00535
                                                                                                       LM00536
                  VECTOR VALUES NSPC=5                                                            *499 LM00537
                  VECTOR VALUES SP=55K,107K,72K,60K,135K,136K                                     *500 LM00538
                  VECTOR VALUES NNOSP=2                                                           *501 LM00539
                  VECTOR VALUES NOSP=113K,132K,133K                                               *502 LM00540
                  VECTOR VALUES NPCC=11                                                           *503 LM00541
                  VECTOR VALUES PCCL=60K,1K,0K,40K,20K,2K,3K,4K,5K,61K,62K,63K                    *504 LM00542
                  VECTOR VALUES D=0,66,1,2,-1,32,21,16,13,0,1,2                                   *505 LM00543
                  VECTOR VALUES MADBS=35K                                                         *506 LM00544
                  VECTOR VALUES LM=777777K6                                                       *507 LM00545
                  VECTOR VALUES FENCE = 777777777777K                                             *508 LM00546
                  VECTOR VALUES FAPTAB=8,16,35,40,45,50,55,60,65,70,75,80,85,0                    *509 LM00547
                  VECTOR VALUES MADTAB=12,17,22,27,32,37,42,47,52,57,62,67,72,77,82,87,0          *510 LM00548
                  DIMENSION IN(0),OUT(0),NC(5),ITABS(0),OTABS(0)                                  *511 LM00549
                                                                                                       LM00550
                   TIMING TABLE FOR EACH DEVICE                                                        LM00551
                                                                                                       LM00552
                  VECTOR VALUES TCR = 0,2,8,128,176,176,8,8,8,1,1                                 *512 LM00553
                  VECTOR VALUES TCRLF=0,1,1,0,0,0,1,0,1,0,0                                       *513 LM00554
                  VECTOR VALUES TBS = 0,1K5,112,1K5,1K5,1K5,1K5,88,112,1,1                        *514 LM00555
                  VECTOR VALUES TSP = 0,88,72,64,88,88,88,88,72,1,1                               *515 LM00556
                  VECTOR VALUES TTAB = 0,24,8,1K5,1K5,1K5,24,24,8,1,1                             *516 LM00557
                  VECTOR VALUES TLF = 0,1,0,0,0,0,0,1,0,1,0                                       *517 LM00558
                  VECTOR VALUES LL=0,87,129,68,68,68,87,87,129,79,1K5                             *518 LM00559
                  VECTOR VALUES PGL=0,66,66,66,66,66,66,66,66,56,66                               *519 LM00560
                  VECTOR VALUES ITD=10                                                            *520 LM00561
                  VECTOR VALUES OTD=10                                                            *521 LM00562
                                                                                                       LM00563
                  EQUIVALENCE (NCR,NC(0)),(NLF,NC(1)),(NTAB,NC(2)),                               *522 LM00564
                1   (NSP,NC(3)),(NBS,NC(4)),(NCRLF,NC(5))                                         *522 LM00565
                  NORMAL MODE IS INTEGER                                                          *523 LM00566
                  BOOLEAN N9,N12,CC,NCCS,CCN,EOFSW,WR,PS,CH,LMSW,DATESW                           *524 LM00567
                  BOOLEAN FILESW,HDRSW,MADSW,CCX,PTF,CKP                                          *525 LM00568
                  END OF PROGRAM                                                                  *526 LM00569
1MAD PROGRAM,TYPE NOV 1963      (ALL NUMBERS ARE OCTAL)
0TOTAL LOCATIONS   04424 TRANSFER VECTOR LENGTH  00042 PROGRAM BEGINS    00662
0VARIABLE STORAGE (A=ARRAY,C=COMMON,E=ERASABLE,DIGIT=MODE)
      A1     00123   1        DONE   00061   4        J      00223   1        NLF    00053   1        RL     00046   4
      AL     00046   4        D      00165 A 1        K      00224   1        NNOSP  00276 A 1        SK1    00113   4
      ARG1   00124   1        EGRETS 00062   4        L1     00046   4        NOPT   00073   4        SK2    00046   4
      ARG    00125   1        EOFCT  00166   1        L2     00046   4        NOSP   00301 A 1        SLL    00347   1
      ARGX   00126   1        EOF    00063   4        L3     00046   4        NOT    00302   1        SL     00046   4
      A      00127   1        EOFSW  00167   2        LLM    00046   4        NPCC   00303 A 1        SORT   00114   4
      ATI    00130   1        EOFT   00064   4        LL     00237 A 1        N      00304   1        SPGL   00350   1
      AX     00131   1        FAPTAB 00205 A 1        LM     00240 A 1        NSPC   00305 A 1        SPP    00122 A 4
      AY     00132   1        FCL    00046   4        LMSW   00241   2        NSP    00051   1        SP     00356 A 1
      BAD    00055   4        FENCE  00206 A 1        LNSZ   00242   1        NTAB   00052   1        TAL    00046   4
      BRKOUT 00056   4        FILESW 00207   2        LOOP   00071   4        OTABS  00306 A 1        TBS    00371 A 1
      B      00133   1        FILL1  00046   4        L      00243   1        OTDL   00046   4        TCRLF  00404 A 1
      BTI    00134   1        FILL   00046   4        LTAB   00244   1        OTD    00307 A 1        TCR    00417 A 1
      BX     00135   1        FILOUT 00065   4        LT     00072   4        OUT    00310 A 1        TIME   00420   1
      BY     00136   1        FN1    00210   1        MADBS  00245 A 1        PAGENO 00311   1        TI     00421   1
      CCN    00137   2        FNARY  00212 A 1        MADSW  00246   2        PCCL   00325 A 1        TL1    00046   4
      CC     00140   2        FN     00213   1        MADTAB 00267 A 1        PCCP   00107 A 4        TL2    00046   4
      CCTL   00046   4        GETTIM 00066   4        MCL    00046   4        PCC    00326   1        TL3    00046   4
      CCX    00141   2        HDRSW  00214   2        MODE   00270   1        PCHAR  00110   4        TLF    00434 A 1
      CHARL  00057   4        HELP   00067   4        MOD    00271   1        PCL    00046   4        TMBS   00435   1
      CHAR   00142   1        ID     00215   1        N12    00272   2        PGL    00341 A 1        TMSP   00436   1
      CHR    00143   1        ILL    00070   4        N9     00273   2        PGNO   00342   1        T      00437   1
      CH     00144   2        IL     00216   1        NBS    00050   1        PGN    00344 A 1        TSP    00452 A 1
      CKHDR  00060   4        IN     00217 A 1        NCCS   00274   2        PHDR1  00111   4        TTAB   00465 A 1
      CKP    00145   2        I      00220   1        NCRLF  00047   1        PS     00345   2        WR     00466   2
      C      00146   1        ITABS  00221 A 1        NCR    00054   1        PTF    00346   2        XCL    00046   4
      DATE   00150 A 1        ITDL   00046   4        NC     00054 A 1        RET    00112   4        X      00467   1
      DATESW 00151   2        ITD    00222 A 1        NIT    00275   1
0FUNCTION DICTIONARY
      ASCTSS 00000   1        BCDEC  00001   1        BZ57   00002   1        BZEL   00003   1        CHNCOM 00004   1
      CLOSEF 00005   1        CLOSEW 00006   1        COMARG 00007   1        DEFBC  00010   1        DELETE 00011   1
      EXIT   00012   1        FTIME  00013   1        GETBUF 00014   1        GTDYTM 00015   1        .SETUP 00016   1
      LJUST  00017   1        OPENF  00020   1        OPENW  00021   1        PNTLIN 00022   1        PRFULA 00023   1
      PRFULL 00024   1        PRMESS 00025   1        PRTCHR 00026   1        RDWAIT 00027   1        READF  00030   1
      RJUST  00031   1        SETBCD 00032   1        SETBRK 00033   1        SETFUL 00034   1        SETSIZ 00035   1
      TSSASC 00036   1        WHOAMI 00037   1        WTA    00040   1        ZEL    00041   1        BCDC   00042   1
      GETTAB 00043   1        HORZ   00044   1        PTCHAR 00045   1
0ABSOLUTE CONSTANTS
 00521 +000000001750     00640 -206060606060     00505 +000000000017     00616 -206023636262     00626 -206060442124
 00624 -206060262147     00502 +000000000013     00511 +000000000057     00515 +000000000177     00520 +000000000777
 00540 +145414541411     00606 -201467141060     00541 +145414541467     00504 +000000000016     00533 +142214116060
 00565 +312435146714     00574 -064325601464     00531 +140123464562     00567 -032527214360     00535 +145114013143
 00501 +000000000012     00655 -342631223460     00474 +000000000004     00523 +000000077777     00510 +000000000036
 00653 -320072007200     00602 -200600600600     00526 +106060606060     00615 -204727436014     00536 +145114036060
 00475 +000000000005     00477 +000000000010     00551 +214333142260     00610 -203143432527     00546 +146760141060
 00651 -312524331422     00561 +252346274531     00612 -204546636051     00537 +145114671410     00553 +224342623171
 00630 -206060472743     00634 -206060604343     00623 -206046632122     00622 -206031632122     00552 +214760442124
 00557 +236362626026     00605 -201464144560     00645 -232131456235     00644 -226360234645     00633 -206060604331
 00532 +140443316263     00576 -066321226260     00570 -033162636060     00550 +212262601404     00560 +250460606060
 00603 -201443452144     00620 -206026314325     00652 -316014451410     00607 -202243426231     00563 +274360144560
 00604 -201445606047     00534 +144560604343     00613 -204663212260     00547 +212260144560     00545 +146460603163
 00577 -076060606060     00647 -232560302543     00564 +302451602421     00650 -265160476260     00556 +236045232360
 00527 +116001026023     00544 +146460600660     00562 +253560606060     00643 -226014432151     00542 +146444462425
 00573 -062425624060     00572 -042502604044     00571 -042501604521     00543 +146447604521     00614 -204663212262
 00611 -203163212262     00601 -200000610000     00660 -377700000000     00524 +000077770000     00642 -210000146060
 00506 +000000000022     00522 +000000007777     00617 -206024216325     00625 -206060302451     00635 -206060604762
 00641 -206060606651     00627 -206060452323     00632 -206060602323     00503 +000000000014     00631 -206060600102
 00500 +000000000011     00637 -206060606011     00476 +000000000006     00636 -206060606006     00600 -200000000000
 00525 +007777777777     00654 -340000000000     00657 -370000000000     00512 +000000000060     00661 -377777777700
 00507 +000000000034     00513 +000000000077     00473 +000000000003     00516 +000000000226     00514 +000000000124
 00517 +000000000550     00470 +000000000000     00566 +331454142260     00575 -064444214524     00646 -232560140123
 00555 +234644474325     00530 +140114513145     00621 -206030254347     00656 -343025434734     00472 +000000000002
 00471 +000000000001     00554 +233000000000
0STATEMENT DICTIONARY
 00055 TXL -301452001444       00056 TXL -303506003505       00057 TXL -303451003450       00060 TXL -302566002564
 00061 TXL -303455003452       00062 TXL -303510003506       00063 TXL -303514003512       00064 TXL -301623001620
 00065 TXL -303126003116       00066 TXL -302160002155       00067 TXL -301236001235       00070 TXL -301462001453
 00071 TXL -302373002361       00072 TXL -301741001740       00073 TXL -303450003445       00074 TXL -302550002544
 00075 TXL -302544002544       00076 TXL -302544002544       00077 TXL -302477002465       00100 TXL -302465002465
 00101 TXL -302465002465       00102 TXL -302465002465       00103 TXL -302544002544       00104 TXL -302543002537
 00105 TXL -302537002537       00106 TXL -302465002465       00107 TXL -302537002537       00110 TXL -303434003431
 00111 TXL -301150001141       00112 TXL -304223004220       00113 TXL -302640002627       00114 TXL -304225004223
 00115 TXL -303114003112       00116 TXL -303111003106       00117 TXL -303105003102       00120 TXL -303056003056
 00121 TXL -303045003042       00122 TXL -303024003022
0PROGRAM
                 W'R (COMARG.(2,FN1).E.FENCE).OR.(COMARG.(1,FN).E.FENCE)            001  LM00003
 00662 TSX +0 07400 4 00016    00663 TSX +0 07400 4 00007    00664 TXH +3 00000 0 00471    00665 TXH +3 00000 0 00213
 00666 SUB +0 40200 0 00206    00667 TZE +0 10000 0 00675    00670 TSX +0 07400 4 00007    00671 TXH +3 00000 0 00472
 00672 TXH +3 00000 0 00210    00673 SUB +0 40200 0 00206    00674 TNZ -0 10000 0 00714
                   W'R FN.E.$  HELP$.OR.FN.E.$(HELP)$, T'O HELP                     002  LM00004
 00675 CLA +0 50000 0 00213    00676 SUB +0 40200 0 00656    00677 TZE +0 10000 0 00703    00700 CLA +0 50000 0 00213
 00701 SUB +0 40200 0 00621    00702 TNZ -0 10000 0 00704    00703 TRA +0 02000 0 00067
                   PRFULL.($'1'RINCOMPLETE '1COMMAND.'*'B$)                         003  LM00005
 00704 TSX +0 07400 4 00024    00705 TXH +3 00000 0 00530    00706 TXH +3 00000 0 00555    00707 TXH +3 00000 0 00646
 00710 TXH +3 00000 0 00575    00711 TXH +3 00000 0 00566
                   CHNCOM.(0)                                                       004  LM00006
 00712 TSX +0 07400 4 00004    00713 TXH +3 00000 0 00470
                 E'L                                                                005  LM00007
                 GETBUF.(IN,360)                                                    006  LM00008
 00714 TSX +0 07400 4 00014    00715 TXH +3 00000 0 00217    00716 TXH +3 00000 0 00517
                 GETBUF.(OUT,84)                                                    007  LM00009
 00717 TSX +0 07400 4 00014    00720 TXH +3 00000 0 00310    00721 TXH +3 00000 0 00514
                 GETBUF.(ITABS,150)                                                 008  LM00010
 00722 TSX +0 07400 4 00014    00723 TXH +3 00000 0 00221    00724 TXH +3 00000 0 00516
                 GETBUF.(OTABS,150)                                                 009  LM00011
 00725 TSX +0 07400 4 00014    00726 TXH +3 00000 0 00306    00727 TXH +3 00000 0 00516
                 MODE=0                                                             010  LM00012
 00730 CLA +0 50000 0 00470    00731 STO +0 60100 0 00270
                 LMSW=0B                                                            011  LM00013
 00732 CLA +0 50000 0 00470    00733 STO +0 60100 0 00241
                 LNSZ=0                                                             012  LM00014
 00734 CLA +0 50000 0 00470    00735 STO +0 60100 0 00242
                 HDRSW=0B                                                           013  LM00015
 00736 CLA +0 50000 0 00470    00737 STO +0 60100 0 00214
                 DATESW=0B                                                          014  LM00016
 00740 CLA +0 50000 0 00470    00741 STO +0 60100 0 00151
                 CC=0B                                                              015  LM00017
 00742 CLA +0 50000 0 00470    00743 STO +0 60100 0 00140
                 NCCS=1B                                                            016  LM00018
 00744 CLA +0 50000 0 00471    00745 STO +0 60100 0 00274
                 PS=0B                                                              017  LM00019
 00746 CLA +0 50000 0 00470    00747 STO +0 60100 0 00345
                 NIT=0                                                              018  LM00020
 00750 CLA +0 50000 0 00470    00751 STO +0 60100 0 00275
                 NOT=0                                                              019  LM00021
 00752 CLA +0 50000 0 00470    00753 STO +0 60100 0 00302
                 MADSW=0B                                                           020  LM00022
 00754 CLA +0 50000 0 00470    00755 STO +0 60100 0 00246
                 T'H AL, FOR I=3,1,COMARG.(I,ARG).E.FENCE                           021  LM00023
 00756 CLA +0 50000 0 00473    00757 STO +0 60100 0 00220    00760 TRA +0 02000 0 00764    00761 CLA +0 50000 0 00220
 00762 ADD +0 40000 0 00471    00763 STO +0 60100 0 00220    00764 TSX +0 07400 4 00007    00765 TXH +3 00000 0 00220
 00766 TXH +3 00000 0 00125    00767 SUB +0 40200 0 00206    00770 TZE +0 10000 0 01464
                 ARGX=ARG                                                           022  LM00024
 00771 CLA +0 50000 0 00125    00772 STO +0 60100 0 00126
                 W'R ARG.A.77K.E.34K                                                023  LM00025
 00773 CAL -0 50000 0 00125    00774 ANA -0 32000 0 00513    00775 SLW +0 60200 0 04420    00776 CLA +0 50000 0 04420
 00777 SUB +0 40200 0 00507    01000 TNZ -0 10000 0 01031
                   ARG=LJUST.(ARG.A.7777777777K2.V.60K)                             024  LM00026
 01001 CAL -0 50000 0 00125    01002 ANA -0 32000 0 00661    01003 ORA -0 50100 0 00512    01004 SLW +0 60200 0 04420
 01005 TSX +0 07400 4 00017    01006 TXH +3 00000 0 04420    01007 STO +0 60100 0 00125
                   W'R ARG.A.77K10.NE.74K10, T'O BAD                                025  LM00027
 01010 CAL -0 50000 0 00125    01011 ANA -0 32000 0 00657    01012 SLW +0 60200 0 04420    01013 CLA +0 50000 0 04420
 01014 SUB +0 40200 0 00654    01015 TZE +0 10000 0 01017    01016 TRA +0 02000 0 00055
                   ARG=BZEL.(RJUST.(ARG.A.7777777777K.V.60K10))                     026  LM00028
 01017 CAL -0 50000 0 00125    01020 ANA -0 32000 0 00525    01021 ORA -0 50100 0 00600    01022 SLW +0 60200 0 04420
 01023 TSX +0 07400 4 00031    01024 TXH +3 00000 0 04420    01025 STO +0 60100 0 04420    01026 TSX +0 07400 4 00003
 01027 TXH +3 00000 0 04420    01030 STO +0 60100 0 00125
                 E'L                                                                027  LM00029
                 W'R ARG.E.$     6$                                                 028  LM00030
 01031 CLA +0 50000 0 00125    01032 SUB +0 40200 0 00636    01033 TNZ -0 10000 0 01037
                   MODE=6                                                           029  LM00031
 01034 CLA +0 50000 0 00476    01035 STO +0 60100 0 00270
                 O'R ARG.E.$     9$                                                 030  LM00032
 01036 TRA +0 02000 0 01463    01037 CLA +0 50000 0 00125    01040 SUB +0 40200 0 00637    01041 TNZ -0 10000 0 01051
                   MODE=9                                                           031  LM00033
 01042 CLA +0 50000 0 00500    01043 STO +0 60100 0 00270
                   CC=0B                                                            032  LM00034
 01044 CLA +0 50000 0 00470    01045 STO +0 60100 0 00140
                   NCCS=0B                                                          033  LM00035
 01046 CLA +0 50000 0 00470    01047 STO +0 60100 0 00274
                 O'R ARG.E.$    12$                                                 034  LM00036
 01050 TRA +0 02000 0 01463    01051 CLA +0 50000 0 00125    01052 SUB +0 40200 0 00631    01053 TNZ -0 10000 0 01063
                   MODE=12                                                          035  LM00037
 01054 CLA +0 50000 0 00503    01055 STO +0 60100 0 00270
                   CC=0B                                                            036  LM00038
 01056 CLA +0 50000 0 00470    01057 STO +0 60100 0 00140
                   NCCS=0B                                                          037  LM00039
 01060 CLA +0 50000 0 00470    01061 STO +0 60100 0 00274
                 O'R ARG.E.$    CC$                                                 038  LM00040
 01062 TRA +0 02000 0 01463    01063 CLA +0 50000 0 00125    01064 SUB +0 40200 0 00632    01065 TNZ -0 10000 0 01073
                   CC=1B                                                            039  LM00041
 01066 CLA +0 50000 0 00471    01067 STO +0 60100 0 00140
                   NCCS=0B                                                          040  LM00042
 01070 CLA +0 50000 0 00470    01071 STO +0 60100 0 00274
                 O'R ARG.E.$   NCC$                                                 041  LM00043
 01072 TRA +0 02000 0 01463    01073 CLA +0 50000 0 00125    01074 SUB +0 40200 0 00627    01075 TNZ -0 10000 0 01103
                   CC=0B                                                            042  LM00044
 01076 CLA +0 50000 0 00470    01077 STO +0 60100 0 00140
                   NCCS=0B                                                          043  LM00045
 01100 CLA +0 50000 0 00470    01101 STO +0 60100 0 00274
                 O'R ARG.E.$    WR$                                                 044  LM00046
 01102 TRA +0 02000 0 01463    01103 CLA +0 50000 0 00125    01104 SUB +0 40200 0 00641    01105 TNZ -0 10000 0 01111
                   WR=1B                                                            045  LM00047
 01106 CLA +0 50000 0 00471    01107 STO +0 60100 0 00466
                 O'R ARG.E.$    PS$                                                 046  LM00048
 01110 TRA +0 02000 0 01463    01111 CLA +0 50000 0 00125    01112 SUB +0 40200 0 00635    01113 TNZ -0 10000 0 01117
                   PS=1B                                                            047  LM00049
 01114 CLA +0 50000 0 00471    01115 STO +0 60100 0 00345
                 O'R ARG.E.$   HDR$                                                 048  LM00050
 01116 TRA +0 02000 0 01463    01117 CLA +0 50000 0 00125    01120 SUB +0 40200 0 00625    01121 TNZ -0 10000 0 01132
                   HDRSW=1B                                                         049  LM00051
 01122 CLA +0 50000 0 00471    01123 STO +0 60100 0 00214
                   PAGENO=1                                                         050  LM00052
 01124 CLA +0 50000 0 00471    01125 STO +0 60100 0 00311
                   PGNO=2                                                           051  LM00053
 01126 CLA +0 50000 0 00472    01127 STO +0 60100 0 00342
                   T'O PHDR1                                                        052  LM00054
 01130 TRA +0 02000 0 00111
                 O'R ARG.E.$  DATE$                                                 053  LM00055
 01131 TRA +0 02000 0 01463    01132 CLA +0 50000 0 00125    01133 SUB +0 40200 0 00617    01134 TNZ -0 10000 0 01204
                   DATESW=1B                                                        054  LM00056
 01135 CLA +0 50000 0 00471    01136 STO +0 60100 0 00151
                   PGNO=0                                                           055  LM00057
 01137 CLA +0 50000 0 00470    01140 STO +0 60100 0 00342
      PHDR1        FTIME.(GTDYTM.(0),DATE,TIME)                                     056  LM00058
 01141 TSX +0 07400 4 00015    01142 TXH +3 00000 0 00470    01143 STO +0 60100 0 04420    01144 TSX +0 07400 4 00013
 01145 TXH +3 00000 0 04420    01146 TXH +3 00000 0 00150    01147 TXH +3 00000 0 00420
                   DATE(1)=(DATE.A.7777K).LS.18.V.$/00'  $                          057  LM00059
 01150 CAL -0 50000 0 00150    01151 ANA -0 32000 0 00522    01152 SLW +0 60200 0 04420    01153 CAL -0 50000 0 00506
 01154 STA +0 62100 0 01156    01155 CAL -0 50000 0 04420    01156 ALS +0 76700 0 00000    01157 ORA -0 50100 0 00642
 01160 SLW +0 60200 0 00147
                   DATE=(DATE.A.7777K8).RS.6.V.(DATE.A.7777K4).RS.12                058  LM00060
                1    .V.$ 00/00$                                                    058  LM00061
 01161 CAL -0 50000 0 00150    01162 ANA -0 32000 0 00524    01163 SLW +0 60200 0 04420    01164 CAL -0 50000 0 00503
 01165 STA +0 62100 0 01167    01166 CAL -0 50000 0 04420    01167 LGR -0 76500 0 00000    01170 SLW +0 60200 0 04420
 01171 CAL -0 50000 0 00150    01172 ANA -0 32000 0 00660    01173 SLW +0 60200 0 04421    01174 CAL -0 50000 0 00476
 01175 STA +0 62100 0 01177    01176 CAL -0 50000 0 04421    01177 LGR -0 76500 0 00000    01200 ORA -0 50100 0 04420
 01201 ORA -0 50100 0 00601    01202 SLW +0 60200 0 00150
                     V'S PGN=$ PAGE 1'8$                                            059  LM00062
 00343     +0 11410 6 06060    00344     -2 04721 2 72560
                     D'N DATE(1)                                                    060  LM00063
                 O'R ARG.E.$ ITABS$                                                 061  LM00064
 01203 TRA +0 02000 0 01463    01204 CLA +0 50000 0 00125    01205 SUB +0 40200 0 00611    01206 TNZ -0 10000 0 01217
                   GETTAB.(NIT,ITABS(ITABS))                                        062  LM00065
 01207 CLA +0 50000 0 00221    01210 SUB +0 40200 0 01211    01211 TXH +3 00000 0 00221    01212 STA +0 62100 0 01215
 01213 TSX +0 07400 4 00043    01214 TXH +3 00000 0 00275    01215 TXH +3 00000 0 00000
                 O'R ARG.E.$ OTABS$                                                 063  LM00066
 01216 TRA +0 02000 0 01463    01217 CLA +0 50000 0 00125    01220 SUB +0 40200 0 00614    01221 TNZ -0 10000 0 01232
                   GETTAB.(NOT,OTABS(OTABS))                                        064  LM00067
 01222 CLA +0 50000 0 00306    01223 SUB +0 40200 0 01224    01224 TXH +3 00000 0 00306    01225 STA +0 62100 0 01230
 01226 TSX +0 07400 4 00043    01227 TXH +3 00000 0 00302    01230 TXH +3 00000 0 00000
                 O'R ARG.E.$  HELP$                                                 065  LM00068
 01231 TRA +0 02000 0 01463    01232 CLA +0 50000 0 00125    01233 SUB +0 40200 0 00621    01234 TNZ -0 10000 0 01312
      HELP         PRMESS.                                                          066  LM00069
 01235 TSX +0 07400 4 00025
                   PRFULL.($'UP NAME1 NAME2 -MODES-$)                               067  LM00070
 01236 TSX +0 07400 4 00024    01237 TXH +3 00000 0 00543    01240 TXH +3 00000 0 00571    01241 TXH +3 00000 0 00572
 01242 TXH +3 00000 0 00573
                   PRFULL.($'UMODES 'LARE:$)                                        068  LM00071
 01243 TSX +0 07400 4 00024    01244 TXH +3 00000 0 00542    01245 TXH +3 00000 0 00643    01246 TXH +3 00000 0 00562
                   PRFULL.($'U  6 9 12 CC NCC WR PS HDR DATE HELP$)                 069  LM00072
 01247 TSX +0 07400 4 00024    01250 TXH +3 00000 0 00544    01251 TXH +3 00000 0 00527    01252 TXH +3 00000 0 00556
 01253 TXH +3 00000 0 00650    01254 TXH +3 00000 0 00564    01255 TXH +3 00000 0 00647    01256 TXH +3 00000 0 00577
                   PRFULL.($'U  ITAB 'N  OTAB 'N  LL 'N  PGL 'N  BLKSIZ 'N'8$,      070  LM00073
                1    $  FILE 'LNAME4$)                                              070  LM00074
 01257 TSX +0 07400 4 00024    01260 TXH +3 00000 0 00545    01261 TXH +3 00000 0 00547    01262 TXH +3 00000 0 00613
 01263 TXH +3 00000 0 00534    01264 TXH +3 00000 0 00604    01265 TXH +3 00000 0 00563    01266 TXH +3 00000 0 00607
 01267 TXH +3 00000 0 00652    01270 TXH +3 00000 0 00620    01271 TXH +3 00000 0 00603    01272 TXH +3 00000 0 00560
                   PRFULL.($'U  ITABS '4LIST  OTABS '4LIST$)                        071  LM00075
 01273 TSX +0 07400 4 00024    01274 TXH +3 00000 0 00545    01275 TXH +3 00000 0 00550    01276 TXH +3 00000 0 00570
 01277 TXH +3 00000 0 00576    01300 TXH +3 00000 0 00532
                   PRFULL.($    LIST CONTAINS: 'U'N CTSS FAP MAD$)                  072  LM00076
 01301 TSX +0 07400 4 00024    01302 TXH +3 00000 0 00633    01303 TXH +3 00000 0 00644    01304 TXH +3 00000 0 00645
 01305 TXH +3 00000 0 00605    01306 TXH +3 00000 0 00557    01307 TXH +3 00000 0 00552
                   T'O EGRETS                                                       073  LM00077
 01310 TRA +0 02000 0 00062
                 O'R COMARG.(I+1,ARG1).NE.FENCE                                     074  LM00078
 01311 TRA +0 02000 0 01463    01312 CLA +0 50000 0 00220    01313 ADD +0 40000 0 00471    01314 STO +0 60100 0 04421
 01315 TSX +0 07400 4 00007    01316 TXH +3 00000 0 04421    01317 TXH +3 00000 0 00124    01320 SUB +0 40200 0 00206
 01321 TZE +0 10000 0 01444
                   I=I+1                                                            075  LM00079
 01322 CLA +0 50000 0 00220    01323 ADD +0 40000 0 00471    01324 STO +0 60100 0 00220
                   W'R ARG.E.$  ITAB$                                               076  LM00080
 01325 CLA +0 50000 0 00125    01326 SUB +0 40200 0 00622    01327 TNZ -0 10000 0 01340
                     ITD=BCDC.(ARG1)                                                077  LM00081
 01330 TSX +0 07400 4 00042    01331 TXH +3 00000 0 00124    01332 STO +0 60100 0 00222
                     W'R ITD.E.0, T'O ILL                                           078  LM00082
 01333 CLA +0 50000 0 00222    01334 SUB +0 40200 0 00470    01335 TNZ -0 10000 0 01337    01336 TRA +0 02000 0 00070
                   O'R ARG.E.$  OTAB$                                               079  LM00083
 01337 TRA +0 02000 0 01443    01340 CLA +0 50000 0 00125    01341 SUB +0 40200 0 00623    01342 TNZ -0 10000 0 01353
                     OTD=BCDC.(ARG1)                                                080  LM00084
 01343 TSX +0 07400 4 00042    01344 TXH +3 00000 0 00124    01345 STO +0 60100 0 00307
                     W'R OTD.E.0, T'O ILL                                           081  LM00085
 01346 CLA +0 50000 0 00307    01347 SUB +0 40200 0 00470    01350 TNZ -0 10000 0 01352    01351 TRA +0 02000 0 00070
                   O'R ARG.E.$    LL$                                               082  LM00086
 01352 TRA +0 02000 0 01443    01353 CLA +0 50000 0 00125    01354 SUB +0 40200 0 00634    01355 TNZ -0 10000 0 01366
                     SLL=BCDC.(ARG1)                                                083  LM00087
 01356 TSX +0 07400 4 00042    01357 TXH +3 00000 0 00124    01360 STO +0 60100 0 00347
                     W'R SLL.E.0, T'O ILL                                           084  LM00088
 01361 CLA +0 50000 0 00347    01362 SUB +0 40200 0 00470    01363 TNZ -0 10000 0 01365    01364 TRA +0 02000 0 00070
                   O'R ARG.E.$   PGL$                                               085  LM00089
 01365 TRA +0 02000 0 01443    01366 CLA +0 50000 0 00125    01367 SUB +0 40200 0 00630    01370 TNZ -0 10000 0 01401
                     SPGL=BCDC.(ARG1)                                               086  LM00090
 01371 TSX +0 07400 4 00042    01372 TXH +3 00000 0 00124    01373 STO +0 60100 0 00350
                     W'R SPGL.E.0, T'O ILL                                          087  LM00091
 01374 CLA +0 50000 0 00350    01375 SUB +0 40200 0 00470    01376 TNZ -0 10000 0 01400    01377 TRA +0 02000 0 00070
                   O'R ARG.E.$BLKSIZ$                                               088  LM00092
 01400 TRA +0 02000 0 01443    01401 CLA +0 50000 0 00125    01402 SUB +0 40200 0 00553    01403 TNZ -0 10000 0 01420
                     LNSZ=BCDC.(ARG1)                                               089  LM00093
 01404 TSX +0 07400 4 00042    01405 TXH +3 00000 0 00124    01406 STO +0 60100 0 00242
                     W'R LNSZ.E.0, T'O ILL                                          090  LM00094
 01407 CLA +0 50000 0 00242    01410 SUB +0 40200 0 00470    01411 TNZ -0 10000 0 01413    01412 TRA +0 02000 0 00070
                     CC=0B                                                          091  LM00095
 01413 CLA +0 50000 0 00470    01414 STO +0 60100 0 00140
                     NCCS=0B                                                        092  LM00096
 01415 CLA +0 50000 0 00470    01416 STO +0 60100 0 00274
                   O'R ARG.E.$  FILE$                                               093  LM00097
 01417 TRA +0 02000 0 01443    01420 CLA +0 50000 0 00125    01421 SUB +0 40200 0 00620    01422 TNZ -0 10000 0 01442
                     FILESW=1B                                                      094  LM00098
 01423 CLA +0 50000 0 00471    01424 STO +0 60100 0 00207
                     FNARY=FN                                                       095  LM00099
 01425 CLA +0 50000 0 00213    01426 STO +0 60100 0 00212
                     FNARY(1)=ARG1                                                  096  LM00100
 01427 CLA +0 50000 0 00124    01430 STO +0 60100 0 00211
                     DELETE.(FNARY,FNARY(1),0,EGRETS)                               097  LM00101
 01431 TSX +0 07400 4 00011    01432 TXH +3 00000 0 00212    01433 TXH +3 00000 0 00211    01434 TXH +3 00000 0 00470
 01435 TXH +3 00000 0 00062
                     DIMENSION FNARY(1)                                             098  LM00102
                     OPENW.(FN,ARG1)                                                099  LM00103
 01436 TSX +0 07400 4 00021    01437 TXH +3 00000 0 00213    01440 TXH +3 00000 0 00124
                   O'E                                                              100  LM00104
 01441 TRA +0 02000 0 01443
                     T'O BAD                                                        101  LM00105
 01442 TRA +0 02000 0 00055
                   E'L                                                              102  LM00106
                 O'E                                                                103  LM00107
 01443 TRA +0 02000 0 01463
      BAD          PRFULL.($'R'X'8$,ARGX,$ NOT RECOGNIZED.'B$)                      104  LM00108
 01444 TSX +0 07400 4 00024    01445 TXH +3 00000 0 00537    01446 TXH +3 00000 0 00126    01447 TXH +3 00000 0 00612
 01450 TXH +3 00000 0 00561    01451 TXH +3 00000 0 00651
                   T'O EGRETS                                                       105  LM00109
 01452 TRA +0 02000 0 00062
      ILL          PRFULL.($'R'X'8$,ARGX,$'X '8$,ARG1,$ ILLEGAL.'B$)                106  LM00110
 01453 TSX +0 07400 4 00024    01454 TXH +3 00000 0 00537    01455 TXH +3 00000 0 00126    01456 TXH +3 00000 0 00546
 01457 TXH +3 00000 0 00124    01460 TXH +3 00000 0 00610    01461 TXH +3 00000 0 00551
                   T'O EGRETS                                                       107  LM00111
 01462 TRA +0 02000 0 00062
      AL         E'L                                                                108  LM00112
 01463 TRA +0 02000 0 00761
                 W'R (SPGL.L.5.OR.(SPGL.L.8.AND.HDRSW)).AND.SPGL.NE.0               109  LM00113
 01464 CLA +0 50000 0 00350    01465 SUB +0 40200 0 00470    01466 TZE +0 10000 0 01517    01467 NZT -0 52000 0 00214
 01470 TRA +0 02000 0 01475    01471 CLA +0 50000 0 00350    01472 SUB +0 40200 0 00477    01473 TZE +0 10000 0 01475
 01474 TMI -0 12000 0 01501    01475 CLA +0 50000 0 00350    01476 SUB +0 40200 0 00475    01477 TZE +0 10000 0 01517
 01500 TPL +0 12000 0 01517
                   PRFULL.($'R'3   PGL '8$,BZEL.(DEFBC.(SPGL)),$ ILLEGAL.'B$)       110  LM00114
 01501 TSX +0 07400 4 00010    01502 TXH +3 00000 0 00350    01503 STO +0 60100 0 04421    01504 TSX +0 07400 4 00003
 01505 TXH +3 00000 0 04421    01506 STO +0 60100 0 04421    01507 TSX +0 07400 4 00024    01510 TXH +3 00000 0 00536
 01511 TXH +3 00000 0 00615    01512 TXH +3 00000 0 00526    01513 TXH +3 00000 0 04421    01514 TXH +3 00000 0 00610
 01515 TXH +3 00000 0 00551
                   T'O EGRETS                                                       111  LM00115
 01516 TRA +0 02000 0 00062
                 E'L                                                                112  LM00116
                 W'R NIT.E.0                                                        113  LM00117
 01517 CLA +0 50000 0 00275    01520 SUB +0 40200 0 00470    01521 TNZ -0 10000 0 01546
                   T'H ITDL, FOR I=ITD+1,ITD,I.G.150                                114  LM00118
 01522 CLA +0 50000 0 00222    01523 ADD +0 40000 0 00471    01524 STO +0 60100 0 00220    01525 TRA +0 02000 0 01531
 01526 CLA +0 50000 0 00220    01527 ADD +0 40000 0 00222    01530 STO +0 60100 0 00220    01531 CLA +0 50000 0 00220
 01532 SUB +0 40200 0 00516    01533 TZE +0 10000 0 01535    01534 TPL +0 12000 0 01546
                   NIT=NIT+1                                                        115  LM00119
 01535 CLA +0 50000 0 00275    01536 ADD +0 40000 0 00471    01537 STO +0 60100 0 00275
                   ITABS(ITABS+NIT)=I                                               116  LM00120
 01540 CLA +0 50000 0 00221    01541 ADD +0 40000 0 00275    01542 PAX +0 73400 1 00000    01543 CLA +0 50000 0 00220
 01544 STO +0 60100 1 00221
      ITDL         C'E                                                              117  LM00121
 01545 TRA +0 02000 0 01526
                 E'L                                                                118  LM00122
                 W'R NOT.E.0                                                        119  LM00123
 01546 CLA +0 50000 0 00302    01547 SUB +0 40200 0 00470    01550 TNZ -0 10000 0 01575
                   T'H OTDL, FOR I=OTD+1,OTD,I.G.150                                120  LM00124
 01551 CLA +0 50000 0 00307    01552 ADD +0 40000 0 00471    01553 STO +0 60100 0 00220    01554 TRA +0 02000 0 01560
 01555 CLA +0 50000 0 00220    01556 ADD +0 40000 0 00307    01557 STO +0 60100 0 00220    01560 CLA +0 50000 0 00220
 01561 SUB +0 40200 0 00516    01562 TZE +0 10000 0 01564    01563 TPL +0 12000 0 01575
                   NOT=NOT+1                                                        121  LM00125
 01564 CLA +0 50000 0 00302    01565 ADD +0 40000 0 00471    01566 STO +0 60100 0 00302
                   OTABS(OTABS+NOT)=I                                               122  LM00126
 01567 CLA +0 50000 0 00306    01570 ADD +0 40000 0 00302    01571 PAX +0 73400 1 00000    01572 CLA +0 50000 0 00220
 01573 STO +0 60100 1 00306
      OTDL         C'E                                                              123  LM00127
 01574 TRA +0 02000 0 01555
                 E'L                                                                124  LM00128
                 SETBRK.(BRKOUT)                                                    125  LM00129
 01575 TSX +0 07400 4 00033    01576 TXH +3 00000 0 00056
                 OPENF.(FN,FN1)                                                     126  LM00133
 01577 TSX +0 07400 4 00020    01600 TXH +3 00000 0 00213    01601 TXH +3 00000 0 00210
                 EOFCT=360                                                          127  LM00134
 01602 CLA +0 50000 0 00517    01603 STO +0 60100 0 00166
                 RDWAIT.(FN,FN1,1,IN(IN+360)...360,EOFT,EOFCT)                      128  LM00135
 01604 CLA +0 50000 0 00217    01605 ADD +0 40000 0 00517    01606 SUB +0 40200 0 01607    01607 TXH +3 00000 0 00217
 01610 STA +0 62100 0 01615    01611 TSX +0 07400 4 00027    01612 TXH +3 00000 0 00213    01613 TXH +3 00000 0 00210
 01614 TXH +3 00000 0 00471    01615 TIX +2 00517 0 00000    01616 TXH +3 00000 0 00064    01617 TXH +3 00000 0 00166
      EOFT       IL=360-EOFCT                                                       129  LM00136
 01620 CLA +0 50000 0 00517    01621 SUB +0 40200 0 00166    01622 STO +0 60100 0 00216
                 T'H LLM, FOR I=360,-1,I.LE.IL.OR.LMSW                              130  LM00137
 01623 CLA +0 50000 0 00517    01624 STO +0 60100 0 00220    01625 TRA +0 02000 0 01631    01626 CLS +0 50200 0 00471
 01627 ADD +0 40000 0 00220    01630 STO +0 60100 0 00220    01631 ZET +0 52000 0 00241    01632 TRA +0 02000 0 01653
 01633 CLA +0 50000 0 00220    01634 SUB +0 40200 0 00216    01635 TZE +0 10000 0 01653    01636 TMI -0 12000 0 01653
                 W'R IN(IN+I).A.LM .E.LM, LMSW=1B                                   131  LM00138
 01637 CLA +0 50000 0 00217    01640 ADD +0 40000 0 00220    01641 PAX +0 73400 1 00000    01642 CAL -0 50000 1 00217
 01643 ANA -0 32000 0 00240    01644 SLW +0 60200 0 04421    01645 CLA +0 50000 0 04421    01646 SUB +0 40200 0 00240
 01647 TNZ -0 10000 0 01652    01650 CLA +0 50000 0 00471    01651 STO +0 60100 0 00241
      LLM        C'E                                                                132  LM00139
 01652 TRA +0 02000 0 01626
                 W'R MODE.E.0                                                       133  LM00140
 01653 CLA +0 50000 0 00270    01654 SUB +0 40200 0 00470    01655 TNZ -0 10000 0 01771
                   N9=0B                                                            134  LM00141
 01656 CLA +0 50000 0 00470    01657 STO +0 60100 0 00273
                   N12=0B                                                           135  LM00142
 01660 CLA +0 50000 0 00470    01661 STO +0 60100 0 00272
                   T'H LT, FOR I=360,-1,I.LE.IL.OR.N9.AND.N12                       136  LM00143
 01662 CLA +0 50000 0 00517    01663 STO +0 60100 0 00220    01664 TRA +0 02000 0 01670    01665 CLS +0 50200 0 00471
 01666 ADD +0 40000 0 00220    01667 STO +0 60100 0 00220    01670 NZT -0 52000 0 00272    01671 TRA +0 02000 0 01674
 01672 ZET +0 52000 0 00273    01673 TRA +0 02000 0 01741    01674 CLA +0 50000 0 00220    01675 SUB +0 40200 0 00216
 01676 TZE +0 10000 0 01741    01677 TMI -0 12000 0 01741
                   CHAR=IN(IN+I)                                                    137  LM00144
 01700 CLA +0 50000 0 00217    01701 ADD +0 40000 0 00220    01702 PAX +0 73400 2 00000    01703 CLA +0 50000 2 00217
 01704 STO +0 60100 0 00142
                   W'R CHAR.A.LM.E.LM, T'O LT                                       138  LM00145
 01705 CAL -0 50000 0 00142    01706 ANA -0 32000 0 00240    01707 SLW +0 60200 0 04421    01710 CLA +0 50000 0 04421
 01711 SUB +0 40200 0 00240    01712 TNZ -0 10000 0 01714    01713 TRA +0 02000 0 00072
                   W'R .NOT.N9.AND.CHAR.A.600600600600K.NE.0,N9=1B                  139  LM00146
 01714 CAL -0 50000 0 00142    01715 ANA -0 32000 0 00602    01716 SLW +0 60200 0 04421    01717 CLA +0 50000 0 04421
 01720 SUB +0 40200 0 00470    01721 TZE +0 10000 0 01726    01722 ZET +0 52000 0 00273    01723 TRA +0 02000 0 01726
 01724 CLA +0 50000 0 00471    01725 STO +0 60100 0 00273
                   W'R .NOT.N12.AND.CHAR.A.720072007200K.NE.0,N12=1B                140  LM00147
 01726 CAL -0 50000 0 00142    01727 ANA -0 32000 0 00653    01730 SLW +0 60200 0 04421    01731 CLA +0 50000 0 04421
 01732 SUB +0 40200 0 00470    01733 TZE +0 10000 0 01740    01734 ZET +0 52000 0 00272    01735 TRA +0 02000 0 01740
 01736 CLA +0 50000 0 00471    01737 STO +0 60100 0 00272
      LT           C'E                                                              141  LM00148
 01740 TRA +0 02000 0 01665
                   W'R .NOT.N9.AND.N12                                              142  LM00149
 01741 NZT -0 52000 0 00272    01742 TRA +0 02000 0 01754    01743 ZET +0 52000 0 00273    01744 TRA +0 02000 0 01754
                     MODE=9                                                         143  LM00150
 01745 CLA +0 50000 0 00500    01746 STO +0 60100 0 00270
                     NCCS=0B                                                        144  LM00151
 01747 CLA +0 50000 0 00470    01750 STO +0 60100 0 00274
                     CC=0B                                                          145  LM00152
 01751 CLA +0 50000 0 00470    01752 STO +0 60100 0 00140
                   O'R .NOT.N12.AND.N9                                              146  LM00153
 01753 TRA +0 02000 0 01771    01754 NZT -0 52000 0 00273    01755 TRA +0 02000 0 01767    01756 ZET +0 52000 0 00272
 01757 TRA +0 02000 0 01767
                     MODE=12                                                        147  LM00154
 01760 CLA +0 50000 0 00503    01761 STO +0 60100 0 00270
                     NCCS=0B                                                        148  LM00155
 01762 CLA +0 50000 0 00470    01763 STO +0 60100 0 00274
                     CC=0B                                                          149  LM00156
 01764 CLA +0 50000 0 00470    01765 STO +0 60100 0 00140
                   O'E                                                              150  LM00157
 01766 TRA +0 02000 0 01771
                     MODE=6                                                         151  LM00158
 01767 CLA +0 50000 0 00476    01770 STO +0 60100 0 00270
                   E'L                                                              152  LM00159
                 E'L                                                                153  LM00160
                 IN(IN+IL+1)=0                                                      154  LM00161
 01771 CLA +0 50000 0 00217    01772 ADD +0 40000 0 00216    01773 ADD +0 40000 0 00471    01774 PAX +0 73400 1 00000
 01775 CLA +0 50000 0 00470    01776 STO +0 60100 1 00217
                 T'H CCTL, FOR I=360,-1,I.LE.IL.OR..NOT.NCCS                        155  LM00162
 01777 CLA +0 50000 0 00517    02000 STO +0 60100 0 00220    02001 TRA +0 02000 0 02005    02002 CLS +0 50200 0 00471
 02003 ADD +0 40000 0 00220    02004 STO +0 60100 0 00220    02005 NZT -0 52000 0 00274    02006 TRA +0 02000 0 02101
 02007 CLA +0 50000 0 00220    02010 SUB +0 40200 0 00216    02011 TZE +0 10000 0 02101    02012 TMI -0 12000 0 02101
                 PCC=IN(IN+I-1).RS.30                                               156  LM00163
 02013 CLA +0 50000 0 00217    02014 ADD +0 40000 0 00220    02015 SUB +0 40200 0 00471    02016 PAX +0 73400 1 00000
 02017 CAL -0 50000 0 00510    02020 STA +0 62100 0 02022    02021 CAL -0 50000 1 00217    02022 LGR -0 76500 0 00000
 02023 SLW +0 60200 0 00326
      PCL        T'H PCL, FOR J=0,1,J.G.NPCC.OR.PCC.E.PCCL(J)                       157  LM00164
 02024 CLA +0 50000 0 00470    02025 STO +0 60100 0 00223    02026 TRA +0 02000 0 02032    02027 CLA +0 50000 0 00223
 02030 ADD +0 40000 0 00471    02031 STO +0 60100 0 00223    02032 LXA +0 53400 2 00223    02033 CLA +0 50000 0 00326
 02034 SUB +0 40200 2 00325    02035 TZE +0 10000 0 02043    02036 CLA +0 50000 0 00223    02037 SUB +0 40200 0 00303
 02040 TZE +0 10000 0 02042    02041 TPL +0 12000 0 02043    02042 TRA +0 02000 0 02027
                 W'R J.G.NPCC.OR.IN(IN+I).A.LM.NE.LM                                158  LM00165
 02043 CLA +0 50000 0 00217    02044 ADD +0 40000 0 00220    02045 PAX +0 73400 1 00000    02046 CAL -0 50000 1 00217
 02047 ANA -0 32000 0 00240    02050 SLW +0 60200 0 04421    02051 CLA +0 50000 0 04421    02052 SUB +0 40200 0 00240
 02053 TNZ -0 10000 0 02060    02054 CLA +0 50000 0 00223    02055 SUB +0 40200 0 00303    02056 TZE +0 10000 0 02065
 02057 TMI -0 12000 0 02065
                   NCCS=0B                                                          159  LM00166
 02060 CLA +0 50000 0 00470    02061 STO +0 60100 0 00274
                   CC=0B                                                            160  LM00167
 02062 CLA +0 50000 0 00470    02063 STO +0 60100 0 00140
                 O'E                                                                161  LM00168
 02064 TRA +0 02000 0 02100
                   I=I-IN(IN+I).A.77777K                                            162  LM00169
 02065 CLA +0 50000 0 00217    02066 ADD +0 40000 0 00220    02067 PAX +0 73400 1 00000    02070 CAL -0 50000 1 00217
 02071 ANA -0 32000 0 00523    02072 SLW +0 60200 0 04421    02073 CLA +0 50000 0 00220    02074 SUB +0 40200 0 04421
 02075 STO +0 60100 0 00220
                   CC=1B                                                            163  LM00170
 02076 CLA +0 50000 0 00471    02077 STO +0 60100 0 00140
                 E'L                                                                164  LM00171
      CCTL       C'E                                                                165  LM00172
 02100 TRA +0 02000 0 02002
                 WHOAMI.(OUT(OUT+4)...4)                                            166  LM00176
 02101 CLA +0 50000 0 00310    02102 ADD +0 40000 0 00474    02103 SUB +0 40200 0 02104    02104 TXH +3 00000 0 00310
 02105 STA +0 62100 0 02107    02106 TSX +0 07400 4 00037    02107 TIX +2 00474 0 00000
                 W'R OUT(OUT+1) .E. $(FIB) $                                        167  LM00177
 02110 CLA +0 50000 0 00310    02111 ADD +0 40000 0 00471    02112 PAX +0 73400 1 00000    02113 CLA +0 50000 1 00310
 02114 SUB +0 40200 0 00655    02115 TNZ -0 10000 0 02122
                   ID=10                                                            168  LM00178
 02116 CLA +0 50000 0 00501    02117 STO +0 60100 0 00215
                   T'O GETTIM                                                       169  LM00179
 02120 TRA +0 02000 0 00066
                 O'E                                                                170  LM00180
 02121 TRA +0 02000 0 02247
                   ID = OUT(OUT+1) .RS. 30                                          171  LM00181
 02122 CLA +0 50000 0 00310    02123 ADD +0 40000 0 00471    02124 PAX +0 73400 1 00000    02125 CAL -0 50000 0 00510
 02126 STA +0 62100 0 02130    02127 CAL -0 50000 1 00310    02130 LGR -0 76500 0 00000    02131 SLW +0 60200 0 00215
                   W'R ID.G.9                                                       172  LM00182
 02132 CLA +0 50000 0 00215    02133 SUB +0 40200 0 00500    02134 TZE +0 10000 0 02155    02135 TMI -0 12000 0 02155
                     PRFULL.($'R'1ILLEGAL '1CONSOLE 'UID:'X'8$,OUT(OUT+1),          173  LM00183
                1      $'B'9$)                                                      173  LM00184
 02136 CLA +0 50000 0 00310    02137 ADD +0 40000 0 00471    02140 SUB +0 40200 0 02141    02141 TXH +3 00000 0 00310
 02142 STA +0 62100 0 02152    02143 TSX +0 07400 4 00024    02144 TXH +3 00000 0 00535    02145 TXH +3 00000 0 00567
 02146 TXH +3 00000 0 00531    02147 TXH +3 00000 0 00574    02150 TXH +3 00000 0 00565    02151 TXH +3 00000 0 00526
 02152 TXH +3 00000 0 00000    02153 TXH +3 00000 0 00533
                     T'O BRKOUT                                                     174  LM00185
 02154 TRA +0 02000 0 00056
                   E'L                                                              175  LM00186
      GETTIM       TCR = TCR(ID)                                                    176  LM00187
 02155 LXA +0 53400 2 00215    02156 CLA +0 50000 2 00417    02157 STO +0 60100 0 00417
                   TCRLF=TCRLF(ID)                                                  177  LM00188
 02160 CLA +0 50000 2 00404    02161 STO +0 60100 0 00404
                   W'R FILESW, TCRLF=1                                              178  LM00189
 02162 NZT -0 52000 0 00207    02163 TRA +0 02000 0 02166    02164 CLA +0 50000 0 00471    02165 STO +0 60100 0 00404
                   TBS = TBS(ID)                                                    179  LM00190
 02166 LXA +0 53400 2 00215    02167 CLA +0 50000 2 00371    02170 STO +0 60100 0 00371
                   TSP = TSP(ID)                                                    180  LM00191
 02171 CLA +0 50000 2 00452    02172 STO +0 60100 0 00452
                   TTAB = TTAB(ID)                                                  181  LM00192
 02173 CLA +0 50000 2 00465    02174 STO +0 60100 0 00465
                   TLF = TLF(ID)                                                    182  LM00193
 02175 CLA +0 50000 2 00434    02176 STO +0 60100 0 00434
                   W'R FILESW, TLF=1                                                183  LM00194
 02177 NZT -0 52000 0 00207    02200 TRA +0 02000 0 02203    02201 CLA +0 50000 0 00471    02202 STO +0 60100 0 00434
                   LL=LL(ID)                                                        184  LM00195
 02203 LXA +0 53400 2 00215    02204 CLA +0 50000 2 00237    02205 STO +0 60100 0 00237
                   W'R SLL.NE.0, LL=SLL                                             185  LM00196
 02206 CLA +0 50000 0 00347    02207 SUB +0 40200 0 00470    02210 TZE +0 10000 0 02213    02211 CLA +0 50000 0 00347
 02212 STO +0 60100 0 00237
                   PGL=PGL(ID)                                                      186  LM00197
 02213 LXA +0 53400 2 00215    02214 CLA +0 50000 2 00341    02215 STO +0 60100 0 00341
                   W'R SPGL.NE.0, PGL=SPGL                                          187  LM00198
 02216 CLA +0 50000 0 00350    02217 SUB +0 40200 0 00470    02220 TZE +0 10000 0 02223    02221 CLA +0 50000 0 00350
 02222 STO +0 60100 0 00341
                   D(8)=PGL/5                                                       188  LM00199
 02223 LDQ +0 56000 0 00341    02224 PXD -0 75400 0 00000    02225 LLS +0 76300 0 00000    02226 DVP +0 22100 0 00475
 02227 STQ -0 60000 0 00155
                   D(7)=(PGL-1)/4                                                   189  LM00200
 02230 CLA +0 50000 0 00341    02231 SUB +0 40200 0 00471    02232 LRS +0 76500 0 00043    02233 DVP +0 22100 0 00474
 02234 STQ -0 60000 0 00156
                   D(6)=(PGL-2)/3                                                   190  LM00201
 02235 CLA +0 50000 0 00341    02236 SUB +0 40200 0 00472    02237 LRS +0 76500 0 00043    02240 DVP +0 22100 0 00473
 02241 STQ -0 60000 0 00157
                   D(5)=2*D(7)                                                      191  LM00202
 02242 LDQ +0 56000 0 00472    02243 MPY +0 20000 0 00156    02244 STQ -0 60000 0 00160
                   D(1)=PGL                                                         192  LM00203
 02245 CLA +0 50000 0 00341    02246 STO +0 60100 0 00164
                 E'L                                                                193  LM00204
                 W'R LNSZ.NE.0                                                      194  LM00205
 02247 CLA +0 50000 0 00242    02250 SUB +0 40200 0 00470    02251 TZE +0 10000 0 02255
                   LMSW=0B                                                          195  LM00206
 02252 CLA +0 50000 0 00470    02253 STO +0 60100 0 00241
                 O'R .NOT.LMSW.AND.MODE.E.6                                         196  LM00207
 02254 TRA +0 02000 0 02267    02255 CLA +0 50000 0 00270    02256 SUB +0 40200 0 00476    02257 TNZ -0 10000 0 02265
 02260 ZET +0 52000 0 00241    02261 TRA +0 02000 0 02265
                   LNSZ=14                                                          197  LM00208
 02262 CLA +0 50000 0 00504    02263 STO +0 60100 0 00242
                 O'E                                                                198  LM00209
 02264 TRA +0 02000 0 02267
                   LNSZ=0                                                           199  LM00210
 02265 CLA +0 50000 0 00470    02266 STO +0 60100 0 00242
                 E'L                                                                200  LM00211
                 SETSIZ.(MODE,LNSZ,LMSW)                                            201  LM00212
 02267 TSX +0 07400 4 00035    02270 TXH +3 00000 0 00270    02271 TXH +3 00000 0 00242    02272 TXH +3 00000 0 00241
                 SETFUL.(0)                                                         202  LM00213
 02273 TSX +0 07400 4 00034    02274 TXH +3 00000 0 00470
                 AX=1                                                               203  LM00214
 02275 CLA +0 50000 0 00471    02276 STO +0 60100 0 00131
                 BX=1                                                               204  LM00215
 02277 CLA +0 50000 0 00471    02300 STO +0 60100 0 00135
                 AY=0                                                               205  LM00216
 02301 CLA +0 50000 0 00470    02302 STO +0 60100 0 00132
                 W'R CC.OR.PS                                                       206  LM00217
 02303 ZET +0 52000 0 00345    02304 TRA +0 02000 0 02307    02305 NZT -0 52000 0 00140    02306 TRA +0 02000 0 02324
                   CCN=CC                                                           207  LM00218
 02307 CLA +0 50000 0 00140    02310 STO +0 60100 0 00137
                   CCX=CC.OR.PS                                                     208  LM00219
 02311 ZET +0 52000 0 00345    02312 TRA +0 02000 0 02317    02313 ZET +0 52000 0 00140    02314 TRA +0 02000 0 02317
 02315 PXD -0 75400 0 00000    02316 TRA +0 02000 0 02320    02317 CLA +0 50000 0 00471    02320 STO +0 60100 0 00141
                   BY=0                                                             209  LM00220
 02321 CLA +0 50000 0 00470    02322 STO +0 60100 0 00136
                 O'E                                                                210  LM00221
 02323 TRA +0 02000 0 02332
                   BY=1                                                             211  LM00222
 02324 CLA +0 50000 0 00471    02325 STO +0 60100 0 00136
                   CCN=0B                                                           212  LM00223
 02326 CLA +0 50000 0 00470    02327 STO +0 60100 0 00137
                   CCX=0B                                                           213  LM00224
 02330 CLA +0 50000 0 00470    02331 STO +0 60100 0 00141
                 E'L                                                                214  LM00225
                 K=1                                                                215  LM00226
 02332 CLA +0 50000 0 00471    02333 STO +0 60100 0 00224
                 W'R DATESW.OR.HDRSW                                                216  LM00227
 02334 ZET +0 52000 0 00214    02335 TRA +0 02000 0 02340    02336 NZT -0 52000 0 00151    02337 TRA +0 02000 0 02357
                   BY=4                                                             217  LM00228
 02340 CLA +0 50000 0 00474    02341 STO +0 60100 0 00136
                   AY=4                                                             218  LM00229
 02342 CLA +0 50000 0 00474    02343 STO +0 60100 0 00132
                   PRTCHR.(PTCHAR.)                                                 219  LM00230
 02344 TSX +0 07400 4 00026    02345 TXH +3 00000 0 00045
                   PRFULA.($'*'*'X$,FN,$ 'X'8$,FN1,DATE...2,TIME,PGN...PGNO,        220  LM00231
                1    $'*'*'9$)                                                      220  LM00232
 02346 TSX +0 07400 4 00023    02347 TXH +3 00000 0 00541    02350 TXH +3 00000 0 00213    02351 TXH +3 00000 0 00606
 02352 TXH +3 00000 0 00210    02353 TIX +2 00472 0 00150    02354 TXH +3 00000 0 00420    02355 TIX +2 00342 0 00344
 02356 TXH +3 00000 0 00540
                 E'L                                                                221  LM00233
                 EOFSW=0B                                                           222  LM00234
 02357 CLA +0 50000 0 00470    02360 STO +0 60100 0 00167
      LOOP       N=READF.(IN(IN),360,777K,EOF)                                      223  LM00235
 02361 CLA +0 50000 0 00217    02362 SUB +0 40200 0 02363    02363 TXH +3 00000 0 00217    02364 STA +0 62100 0 02366
 02365 TSX +0 07400 4 00030    02366 TXH +3 00000 0 00000    02367 TXH +3 00000 0 00517    02370 TXH +3 00000 0 00520
 02371 TXH +3 00000 0 00063    02372 STO +0 60100 0 00304
                 T'H CHARL, FOR I=1,1,I.G.N                                         224  LM00236
 02373 CLA +0 50000 0 00471    02374 STO +0 60100 0 00220    02375 TRA +0 02000 0 02401    02376 CLA +0 50000 0 00220
 02377 ADD +0 40000 0 00471    02400 STO +0 60100 0 00220    02401 CLA +0 50000 0 00220    02402 SUB +0 40200 0 00304
 02403 TZE +0 10000 0 02405    02404 TPL +0 12000 0 03451
                 CHAR=IN(IN+I).A.177K                                               225  LM00237
 02405 CLA +0 50000 0 00217    02406 ADD +0 40000 0 00220    02407 PAX +0 73400 1 00000    02410 CAL -0 50000 1 00217
 02411 ANA -0 32000 0 00515    02412 SLW +0 60200 0 00142
                 W'R MODE.E.9, CHAR=ASCTSS.(CHAR)                                   226  LM00238
 02413 CLA +0 50000 0 00270    02414 SUB +0 40200 0 00500    02415 TNZ -0 10000 0 02421    02416 TSX +0 07400 4 00000
 02417 TXH +3 00000 0 00142    02420 STO +0 60100 0 00142
                 W'R CHAR.E.57K, T'O CHARL                                          227  LM00239
 02421 CLA +0 50000 0 00142    02422 SUB +0 40200 0 00511    02423 TNZ -0 10000 0 02425    02424 TRA +0 02000 0 00057
                 PTF=1B                                                             228  LM00240
 02425 CLA +0 50000 0 00471    02426 STO +0 60100 0 00346
                 CKP=1B                                                             229  LM00241
 02427 CLA +0 50000 0 00471    02430 STO +0 60100 0 00145
                 W'R CCN                                                            230  LM00242
 02431 NZT -0 52000 0 00137    02432 TRA +0 02000 0 02554
                   CCN=0B                                                           231  LM00243
 02433 CLA +0 50000 0 00470    02434 STO +0 60100 0 00137
      L2           T'H L2, FOR J=0,1,J.G.NPCC.OR.CHAR.E.PCCL(J)                     232  LM00244
 02435 CLA +0 50000 0 00470    02436 STO +0 60100 0 00223    02437 TRA +0 02000 0 02443    02440 CLA +0 50000 0 00223
 02441 ADD +0 40000 0 00471    02442 STO +0 60100 0 00223    02443 LXA +0 53400 2 00223    02444 CLA +0 50000 0 00142
 02445 SUB +0 40200 2 00325    02446 TZE +0 10000 0 02454    02447 CLA +0 50000 0 00223    02450 SUB +0 40200 0 00303
 02451 TZE +0 10000 0 02453    02452 TPL +0 12000 0 02454    02453 TRA +0 02000 0 02440
                   W'R J.G.NPCC, T'O CKHDR                                          233  LM00245
 02454 CLA +0 50000 0 00223    02455 SUB +0 40200 0 00303    02456 TZE +0 10000 0 02461    02457 TMI -0 12000 0 02461
 02460 TRA +0 02000 0 00060
                   PTF=0B                                                           234  LM00246
 02461 CLA +0 50000 0 00470    02462 STO +0 60100 0 00346
                   T'O PCCP(J)                                                      235  LM00247
 02463 LXA +0 53400 2 00223    02464 TRA +0 02000 2 00107
      PCCP(1)                                                                       236  LM00250
      PCCP(5)                                                                       237  LM00251
      PCCP(6)                                                                       238  LM00252
      PCCP(7)                                                                       239  LM00253
      PCCP(8)      W'R BY.E.BY/PGL*PGL, T'O CKHDR                                   240  LM00254
 02465 LDQ +0 56000 0 00136    02466 PXD -0 75400 0 00000    02467 LLS +0 76300 0 00000    02470 DVP +0 22100 0 00341
 02471 MPY +0 20000 0 00341    02472 XCA +0 13100 0 00000    02473 CHS +0 76000 0 00002    02474 ADD +0 40000 0 00136
 02475 TNZ -0 10000 0 02477    02476 TRA +0 02000 0 00060
                   X=((BY-BY/PGL*PGL)/D(J)+1)*D(J)                                  241  LM00255
 02477 LDQ +0 56000 0 00136    02500 PXD -0 75400 0 00000    02501 LLS +0 76300 0 00000    02502 DVP +0 22100 0 00341
 02503 MPY +0 20000 0 00341    02504 XCA +0 13100 0 00000    02505 CHS +0 76000 0 00002    02506 ADD +0 40000 0 00136
 02507 LXA +0 53400 2 00223    02510 LRS +0 76500 0 00043    02511 DVP +0 22100 2 00165    02512 XCA +0 13100 0 00000
 02513 ADD +0 40000 0 00471    02514 XCA +0 13100 0 00000    02515 MPY +0 20000 2 00165    02516 STQ -0 60000 0 00467
                   W'R X.G.PGL, X=PGL                                               242  LM00256
 02517 CLA +0 50000 0 00467    02520 SUB +0 40200 0 00341    02521 TZE +0 10000 0 02525    02522 TMI -0 12000 0 02525
 02523 CLA +0 50000 0 00341    02524 STO +0 60100 0 00467
                   BY=BY/PGL*PGL+X+2                                                243  LM00257
 02525 LDQ +0 56000 0 00136    02526 PXD -0 75400 0 00000    02527 LLS +0 76300 0 00000    02530 DVP +0 22100 0 00341
 02531 MPY +0 20000 0 00341    02532 XCA +0 13100 0 00000    02533 ADD +0 40000 0 00467    02534 ADD +0 40000 0 00472
 02535 STO +0 60100 0 00136
                   T'O CKHDR                                                        244  LM00258
 02536 TRA +0 02000 0 00060
      PCCP(0)                                                                       245  LM00261
      PCCP(2)                                                                       246  LM00262
      PCCP(3)      BY=BY+D(J)                                                       247  LM00263
 02537 LXA +0 53400 2 00223    02540 CLA +0 50000 0 00136    02541 ADD +0 40000 2 00165    02542 STO +0 60100 0 00136
                   T'O CKHDR                                                        248  LM00264
 02543 TRA +0 02000 0 00060
      PCCP(4)                                                                       249  LM00267
      PCCP(9)                                                                       250  LM00268
      PCCP(10)                                                                      251  LM00269
      PCCP(11)     BY=BY+D(J)                                                       252  LM00270
 02544 LXA +0 53400 2 00223    02545 CLA +0 50000 0 00136    02546 ADD +0 40000 2 00165    02547 STO +0 60100 0 00136
                   CKP=0B                                                           253  LM00271
 02550 CLA +0 50000 0 00470    02551 STO +0 60100 0 00145
                   T'O CKHDR                                                        254  LM00272
 02552 TRA +0 02000 0 00060
                 O'R CCX.OR..NOT.(CC.OR.PS)                                         255  LM00274
 02553 TRA +0 02000 0 02775    02554 ZET +0 52000 0 00345    02555 TRA +0 02000 0 02560    02556 NZT -0 52000 0 00140
 02557 TRA +0 02000 0 02562    02560 NZT -0 52000 0 00141    02561 TRA +0 02000 0 02775
                   CKP=CCX                                                          256  LM00275
 02562 CLA +0 50000 0 00141    02563 STO +0 60100 0 00145
      CKHDR        CCX=0B                                                           257  LM00276
 02564 CLA +0 50000 0 00470    02565 STO +0 60100 0 00141
                   W'R AY/PGL.NE.(BY+2)/PGL.AND.HDRSW                               258  LM00277
 02566 NZT -0 52000 0 00214    02567 TRA +0 02000 0 02735    02570 CLA +0 50000 0 00136    02571 ADD +0 40000 0 00472
 02572 LRS +0 76500 0 00043    02573 DVP +0 22100 0 00341    02574 STQ -0 60000 0 04421    02575 LDQ +0 56000 0 00132
 02576 PXD -0 75400 0 00000    02577 LLS +0 76300 0 00000    02600 DVP +0 22100 0 00341    02601 XCA +0 13100 0 00000
 02602 SUB +0 40200 0 04421    02603 TZE +0 10000 0 02735
                     BY=BY+4                                                        259  LM00278
 02604 CLA +0 50000 0 00136    02605 ADD +0 40000 0 00474    02606 STO +0 60100 0 00136
                     AY=AY+1                                                        260  LM00279
 02607 CLA +0 50000 0 00132    02610 ADD +0 40000 0 00471    02611 STO +0 60100 0 00132
                     AX=1                                                           261  LM00280
 02612 CLA +0 50000 0 00471    02613 STO +0 60100 0 00131
                     PTCHAR.(SP(0))                                                 262  LM00281
 02614 TSX +0 07400 4 00045    02615 TXH +3 00000 0 00356
                     W'R TLF.G.0                                                    263  LM00282
 02616 CLA +0 50000 0 00434    02617 SUB +0 40200 0 00470    02620 TZE +0 10000 0 02625    02621 TMI -0 12000 0 02625
                       CHR=SP(0)                                                    264  LM00283
 02622 CLA +0 50000 0 00356    02623 STO +0 60100 0 00143
                     O'E                                                            265  LM00284
 02624 TRA +0 02000 0 02627
                       CHR=SP(1)                                                    266  LM00285
 02625 CLA +0 50000 0 00355    02626 STO +0 60100 0 00143
                     E'L                                                            267  LM00286
      SK1            X=AY-AY/PGL*PGL                                                268  LM00287
 02627 LDQ +0 56000 0 00132    02630 PXD -0 75400 0 00000    02631 LLS +0 76300 0 00000    02632 DVP +0 22100 0 00341
 02633 MPY +0 20000 0 00341    02634 XCA +0 13100 0 00000    02635 CHS +0 76000 0 00002    02636 ADD +0 40000 0 00132
 02637 STO +0 60100 0 00467
                     W'R X.NE.0, X=PGL-X                                            269  LM00288
 02640 CLA +0 50000 0 00467    02641 SUB +0 40200 0 00470    02642 TZE +0 10000 0 02646    02643 CLA +0 50000 0 00341
 02644 SUB +0 40200 0 00467    02645 STO +0 60100 0 00467
                     AY=AY+X                                                        270  LM00289
 02646 CLA +0 50000 0 00132    02647 ADD +0 40000 0 00467    02650 STO +0 60100 0 00132
                     T'H SK2, FOR X=X,-1,X.E.0                                      271  LM00290
 02651 CLA +0 50000 0 00467    02652 STO +0 60100 0 00467    02653 TRA +0 02000 0 02657    02654 CLS +0 50200 0 00471
 02655 ADD +0 40000 0 00467    02656 STO +0 60100 0 00467    02657 CLA +0 50000 0 00467    02660 SUB +0 40200 0 00470
 02661 TZE +0 10000 0 02665
      SK2            PTCHAR.(CHR)                                                   272  LM00291
 02662 TSX +0 07400 4 00045    02663 TXH +3 00000 0 00143    02664 TRA +0 02000 0 02654
                     PAGENO=PAGENO+1                                                273  LM00292
 02665 CLA +0 50000 0 00311    02666 ADD +0 40000 0 00471    02667 STO +0 60100 0 00311
                     PGN(1)=BZ57.(DEFBC.(PAGENO))                                   274  LM00293
 02670 TSX +0 07400 4 00010    02671 TXH +3 00000 0 00311    02672 STO +0 60100 0 04421    02673 TSX +0 07400 4 00002
 02674 TXH +3 00000 0 04421    02675 STO +0 60100 0 00343
                     PRFULA.($'*'*'X$,FN,$ 'X'8$,FN1,DATE...2,TIME,PGN...PGNO,      275  LM00294
                1      $'*'*'9$)                                                    275  LM00295
 02676 TSX +0 07400 4 00023    02677 TXH +3 00000 0 00541    02700 TXH +3 00000 0 00213    02701 TXH +3 00000 0 00606
 02702 TXH +3 00000 0 00210    02703 TIX +2 00472 0 00150    02704 TXH +3 00000 0 00420    02705 TIX +2 00342 0 00344
 02706 TXH +3 00000 0 00540
                     AY=AY+4                                                        276  LM00296
 02707 CLA +0 50000 0 00132    02710 ADD +0 40000 0 00474    02711 STO +0 60100 0 00132
                     W'R BY.L.AY, BY=AY                                             277  LM00297
 02712 CLA +0 50000 0 00136    02713 SUB +0 40200 0 00132    02714 TZE +0 10000 0 02720    02715 TPL +0 12000 0 02720
 02716 CLA +0 50000 0 00132    02717 STO +0 60100 0 00136
                     W'R AY/PGL.NE.(BY+2)/PGL, T'O SK1                              278  LM00298
 02720 CLA +0 50000 0 00136    02721 ADD +0 40000 0 00472    02722 LRS +0 76500 0 00043    02723 DVP +0 22100 0 00341
 02724 STQ -0 60000 0 04421    02725 LDQ +0 56000 0 00132    02726 PXD -0 75400 0 00000    02727 LLS +0 76300 0 00000
 02730 DVP +0 22100 0 00341    02731 XCA +0 13100 0 00000    02732 SUB +0 40200 0 04421    02733 TZE +0 10000 0 02735
 02734 TRA +0 02000 0 00113
                   E'L                                                              279  LM00299
                   W'R CKP                                                          280  LM00301
 02735 NZT -0 52000 0 00145    02736 TRA +0 02000 0 02772
                     MOD=BY-(BY/PGL)*PGL                                            281  LM00302
 02737 LDQ +0 56000 0 00136    02740 PXD -0 75400 0 00000    02741 LLS +0 76300 0 00000    02742 DVP +0 22100 0 00341
 02743 MPY +0 20000 0 00341    02744 XCA +0 13100 0 00000    02745 CHS +0 76000 0 00002    02746 ADD +0 40000 0 00136
 02747 STO +0 60100 0 00271
                     W'R MOD.G.PGL-3.OR.MOD.L.2                                     282  LM00303
 02750 CLA +0 50000 0 00271    02751 SUB +0 40200 0 00472    02752 TZE +0 10000 0 02754    02753 TMI -0 12000 0 02762
 02754 CLA +0 50000 0 00341    02755 SUB +0 40200 0 00473    02756 CHS +0 76000 0 00002    02757 ADD +0 40000 0 00271
 02760 TZE +0 10000 0 02772    02761 TMI -0 12000 0 02772
                       BY=((BY+3)/PGL)*PGL+2                                        283  LM00304
 02762 CLA +0 50000 0 00136    02763 ADD +0 40000 0 00473    02764 LRS +0 76500 0 00043    02765 DVP +0 22100 0 00341
 02766 MPY +0 20000 0 00341    02767 XCA +0 13100 0 00000    02770 ADD +0 40000 0 00472    02771 STO +0 60100 0 00136
                     E'L                                                            284  LM00305
                   E'L                                                              285  LM00306
                   W'R .NOT.PTF, T'O CHARL                                          286  LM00307
 02772 ZET +0 52000 0 00346    02773 TRA +0 02000 0 02775    02774 TRA +0 02000 0 00057
                 E'L                                                                287  LM00308
      L1         T'H L1, FOR J=0,1,J.G.NSPC .OR. CHAR.E.SP(J)                       288  LM00310
 02775 CLA +0 50000 0 00470    02776 STO +0 60100 0 00223    02777 TRA +0 02000 0 03003    03000 CLA +0 50000 0 00223
 03001 ADD +0 40000 0 00471    03002 STO +0 60100 0 00223    03003 LXA +0 53400 2 00223    03004 CLA +0 50000 0 00142
 03005 SUB +0 40200 2 00356    03006 TZE +0 10000 0 03014    03007 CLA +0 50000 0 00223    03010 SUB +0 40200 0 00305
 03011 TZE +0 10000 0 03013    03012 TPL +0 12000 0 03014    03013 TRA +0 02000 0 03000
                 W'R J.LE.NSPC                                                      289  LM00311
 03014 CLA +0 50000 0 00223    03015 SUB +0 40200 0 00305    03016 TZE +0 10000 0 03020    03017 TPL +0 12000 0 03116
                   T'O SPP(J)                                                       290  LM00312
 03020 LXA +0 53400 2 00223    03021 TRA +0 02000 2 00122
      SPP(0)       BX=1                                                             291  LM00314
 03022 CLA +0 50000 0 00471    03023 STO +0 60100 0 00135
                   BY=BY+1                                                          292  LM00315
 03024 CLA +0 50000 0 00136    03025 ADD +0 40000 0 00471    03026 STO +0 60100 0 00136
                   CCN=CC                                                           293  LM00316
 03027 CLA +0 50000 0 00140    03030 STO +0 60100 0 00137
                   CCX=CC.OR.PS                                                     294  LM00317
 03031 ZET +0 52000 0 00345    03032 TRA +0 02000 0 03037    03033 ZET +0 52000 0 00140    03034 TRA +0 02000 0 03037
 03035 PXD -0 75400 0 00000    03036 TRA +0 02000 0 03040    03037 CLA +0 50000 0 00471    03040 STO +0 60100 0 00141
                   T'O CHARL                                                        295  LM00318
 03041 TRA +0 02000 0 00057
      SPP(1)       BY=BY+1                                                          296  LM00320
 03042 CLA +0 50000 0 00136    03043 ADD +0 40000 0 00471    03044 STO +0 60100 0 00136
                   CCX=CC.OR.PS                                                     297  LM00321
 03045 ZET +0 52000 0 00345    03046 TRA +0 02000 0 03053    03047 ZET +0 52000 0 00140    03050 TRA +0 02000 0 03053
 03051 PXD -0 75400 0 00000    03052 TRA +0 02000 0 03054    03053 CLA +0 50000 0 00471    03054 STO +0 60100 0 00141
                   T'O CHARL                                                        298  LM00322
 03055 TRA +0 02000 0 00057
      SPP(2)       C'E                                                              299  LM00324
      TL1          T'H TL1, FOR TI=1,1,ITABS(ITABS+TI).G.BX                         300  LM00325
 03056 CLA +0 50000 0 00471    03057 STO +0 60100 0 00421    03060 TRA +0 02000 0 03064    03061 CLA +0 50000 0 00421
 03062 ADD +0 40000 0 00471    03063 STO +0 60100 0 00421    03064 CLA +0 50000 0 00221    03065 ADD +0 40000 0 00421
 03066 PAX +0 73400 1 00000    03067 CLA +0 50000 1 00221    03070 SUB +0 40200 0 00135    03071 TZE +0 10000 0 03073
 03072 TPL +0 12000 0 03074    03073 TRA +0 02000 0 03061
                   BX=ITABS(ITABS+TI)                                               301  LM00326
 03074 CLA +0 50000 0 00221    03075 ADD +0 40000 0 00421    03076 PAX +0 73400 2 00000    03077 CLA +0 50000 2 00221
 03100 STO +0 60100 0 00135
                   T'O CHARL                                                        302  LM00327
 03101 TRA +0 02000 0 00057
      SPP(3)       BX=BX+1                                                          303  LM00329
 03102 CLA +0 50000 0 00135    03103 ADD +0 40000 0 00471    03104 STO +0 60100 0 00135
                   T'O CHARL                                                        304  LM00330
 03105 TRA +0 02000 0 00057
      SPP(4)       BX=BX-1                                                          305  LM00332
 03106 CLA +0 50000 0 00135    03107 SUB +0 40200 0 00471    03110 STO +0 60100 0 00135
                   T'O CHARL                                                        306  LM00333
 03111 TRA +0 02000 0 00057
      SPP(5)       BX=1                                                             307  LM00335
 03112 CLA +0 50000 0 00471    03113 STO +0 60100 0 00135
                   T'O CHARL                                                        308  LM00336
 03114 TRA +0 02000 0 00057
                 O'E                                                                309  LM00338
 03115 TRA +0 02000 0 03450
      FILOUT       W'R CHAR.E.MADBS.AND.BX.E.12.AND.MADSW                           310  LM00339
 03116 NZT -0 52000 0 00246    03117 TRA +0 02000 0 03131    03120 CLA +0 50000 0 00135    03121 SUB +0 40200 0 00503
 03122 TNZ -0 10000 0 03131    03123 CLA +0 50000 0 00142    03124 SUB +0 40200 0 00245    03125 TNZ -0 10000 0 03131
                     BX=11                                                          311  LM00340
 03126 CLA +0 50000 0 00502    03127 STO +0 60100 0 00135
                     T'O CHARL                                                      312  LM00341
 03130 TRA +0 02000 0 00057
                   E'L                                                              313  LM00342
      L3           T'H L3, FOR J=0,1,J.G.NNOSP.OR.CHAR.E.NOSP(J)                    314  LM00343
 03131 CLA +0 50000 0 00470    03132 STO +0 60100 0 00223    03133 TRA +0 02000 0 03137    03134 CLA +0 50000 0 00223
 03135 ADD +0 40000 0 00471    03136 STO +0 60100 0 00223    03137 LXA +0 53400 2 00223    03140 CLA +0 50000 0 00142
 03141 SUB +0 40200 2 00301    03142 TZE +0 10000 0 03150    03143 CLA +0 50000 0 00223    03144 SUB +0 40200 0 00276
 03145 TZE +0 10000 0 03147    03146 TPL +0 12000 0 03150    03147 TRA +0 02000 0 03134
                   W'R J.LE.NNOSP                                                   315  LM00344
 03150 CLA +0 50000 0 00223    03151 SUB +0 40200 0 00276    03152 TZE +0 10000 0 03154    03153 TPL +0 12000 0 03157
                     PTCHAR.(CHAR)                                                  316  LM00345
 03154 TSX +0 07400 4 00045    03155 TXH +3 00000 0 00142
                     T'O CHARL                                                      317  LM00346
 03156 TRA +0 02000 0 00057
                   E'L                                                              318  LM00347
                   W'R BX.G.LL                                                      319  LM00348
 03157 CLA +0 50000 0 00135    03160 SUB +0 40200 0 00237    03161 TZE +0 10000 0 03174    03162 TMI -0 12000 0 03174
                     W'R WR                                                         320  LM00349
 03163 NZT -0 52000 0 00466    03164 TRA +0 02000 0 03173
                       BX=1                                                         321  LM00350
 03165 CLA +0 50000 0 00471    03166 STO +0 60100 0 00135
                       BY=BY+1                                                      322  LM00351
 03167 CLA +0 50000 0 00136    03170 ADD +0 40000 0 00471    03171 STO +0 60100 0 00136
                     O'E                                                            323  LM00352
 03172 TRA +0 02000 0 03174
                       T'O NOPT                                                     324  LM00353
 03173 TRA +0 02000 0 00073
                     E'L                                                            325  LM00354
                   E'L                                                              326  LM00355
                   W'R AX.E.BX.AND.AY.E.BY, T'O PCHAR                               327  LM00356
 03174 CLA +0 50000 0 00132    03175 SUB +0 40200 0 00136    03176 TNZ -0 10000 0 03203    03177 CLA +0 50000 0 00131
 03200 SUB +0 40200 0 00135    03201 TNZ -0 10000 0 03203    03202 TRA +0 02000 0 00110
                   W'R BY.E.AY.AND.BX.E.AX+1                                        328  LM00357
 03203 CLA +0 50000 0 00131    03204 ADD +0 40000 0 00471    03205 CHS +0 76000 0 00002    03206 ADD +0 40000 0 00135
 03207 TNZ -0 10000 0 03217    03210 CLA +0 50000 0 00136    03211 SUB +0 40200 0 00132    03212 TNZ -0 10000 0 03217
                     PTCHAR.(SP(3))                                                 329  LM00358
 03213 TSX +0 07400 4 00045    03214 TXH +3 00000 0 00353
                     T'O PCHAR                                                      330  LM00359
 03215 TRA +0 02000 0 00110
                   O'R BX.E.1.AND.BY.E.AY+1                                         331  LM00360
 03216 TRA +0 02000 0 03232    03217 CLA +0 50000 0 00132    03220 ADD +0 40000 0 00471    03221 CHS +0 76000 0 00002
 03222 ADD +0 40000 0 00136    03223 TNZ -0 10000 0 03232    03224 CLA +0 50000 0 00135    03225 SUB +0 40200 0 00471
 03226 TNZ -0 10000 0 03232
                     PTCHAR.(SP(0))                                                 332  LM00361
 03227 TSX +0 07400 4 00045    03230 TXH +3 00000 0 00356
                     T'O PCHAR                                                      333  LM00362
 03231 TRA +0 02000 0 00110
                   E'L                                                              334  LM00363
                 T'H RL, FOR J=0,1,J.G.NSPC                                         335  LM00365
 03232 CLA +0 50000 0 00470    03233 STO +0 60100 0 00223    03234 TRA +0 02000 0 03240    03235 CLA +0 50000 0 00223
 03236 ADD +0 40000 0 00471    03237 STO +0 60100 0 00223    03240 CLA +0 50000 0 00223    03241 SUB +0 40200 0 00305
 03242 TZE +0 10000 0 03244    03243 TPL +0 12000 0 03250
      RL         NC(J)=0                                                            336  LM00366
 03244 LXA +0 53400 1 00223    03245 CLA +0 50000 0 00470    03246 STO +0 60100 1 00054    03247 TRA +0 02000 0 03235
                 W'R BY.G.AY .AND. TLF.G.0                                          337  LM00367
 03250 CLA +0 50000 0 00434    03251 SUB +0 40200 0 00470    03252 TZE +0 10000 0 03267    03253 TMI -0 12000 0 03267
 03254 CLA +0 50000 0 00136    03255 SUB +0 40200 0 00132    03256 TZE +0 10000 0 03267    03257 TMI -0 12000 0 03267
                   NCR=1                                                            338  LM00368
 03260 CLA +0 50000 0 00471    03261 STO +0 60100 0 00054
                   AX=1                                                             339  LM00369
 03262 CLA +0 50000 0 00471    03263 STO +0 60100 0 00131
                   AY=AY+1                                                          340  LM00370
 03264 CLA +0 50000 0 00132    03265 ADD +0 40000 0 00471    03266 STO +0 60100 0 00132
                 E'L                                                                341  LM00371
                 W'R AX.L.BX                                                        342  LM00372
 03267 CLA +0 50000 0 00131    03270 SUB +0 40200 0 00135    03271 TZE +0 10000 0 03277    03272 TPL +0 12000 0 03277
                   HORZ.(AX,BX)                                                     343  LM00373
 03273 TSX +0 07400 4 00044    03274 TXH +3 00000 0 00131    03275 TXH +3 00000 0 00135
                 O'E                                                                344  LM00374
 03276 TRA +0 02000 0 03357
                   W'R TCR*AX+HORZ.(1,BX).L.(AX-BX)*TBS.AND.                        345  LM00375
                1    (BY.G.AY.OR.TCRLF.E.0)                                         345  LM00376
 03277 CLA +0 50000 0 00404    03300 SUB +0 40200 0 00470    03301 TZE +0 10000 0 03306    03302 CLA +0 50000 0 00136
 03303 SUB +0 40200 0 00132    03304 TZE +0 10000 0 03350    03305 TMI -0 12000 0 03350    03306 CLA +0 50000 0 00131
 03307 SUB +0 40200 0 00135    03310 XCA +0 13100 0 00000    03311 MPY +0 20000 0 00371    03312 STQ -0 60000 0 04421
 03313 TSX +0 07400 4 00044    03314 TXH +3 00000 0 00471    03315 TXH +3 00000 0 00135    03316 STO +0 60100 0 04420
 03317 LDQ +0 56000 0 00417    03320 MPY +0 20000 0 00131    03321 XCA +0 13100 0 00000    03322 ADD +0 40000 0 04420
 03323 SUB +0 40200 0 04421    03324 TZE +0 10000 0 03350    03325 TPL +0 12000 0 03350
                     W'R BY.G.AY                                                    346  LM00377
 03326 CLA +0 50000 0 00136    03327 SUB +0 40200 0 00132    03330 TZE +0 10000 0 03343    03331 TMI -0 12000 0 03343
                       NCR=NCR+1                                                    347  LM00378
 03332 CLA +0 50000 0 00054    03333 ADD +0 40000 0 00471    03334 STO +0 60100 0 00054
                       AY=AY+1                                                      348  LM00379
 03335 CLA +0 50000 0 00132    03336 ADD +0 40000 0 00471    03337 STO +0 60100 0 00132
                       AX=1                                                         349  LM00380
 03340 CLA +0 50000 0 00471    03341 STO +0 60100 0 00131
                     O'E                                                            350  LM00381
 03342 TRA +0 02000 0 03347
                       NCRLF=1                                                      351  LM00382
 03343 CLA +0 50000 0 00471    03344 STO +0 60100 0 00047
                       AX=1                                                         352  LM00383
 03345 CLA +0 50000 0 00471    03346 STO +0 60100 0 00131
                     E'L                                                            353  LM00384
                   O'E                                                              354  LM00385
 03347 TRA +0 02000 0 03357
                     NBS=AX-BX                                                      355  LM00386
 03350 CLA +0 50000 0 00131    03351 SUB +0 40200 0 00135    03352 STO +0 60100 0 00050
                     NSP=0                                                          356  LM00387
 03353 CLA +0 50000 0 00470    03354 STO +0 60100 0 00051
                     NTAB=0                                                         357  LM00388
 03355 CLA +0 50000 0 00470    03356 STO +0 60100 0 00052
                   E'L                                                              358  LM00389
                 E'L                                                                359  LM00390
                 W'R TLF.G.0                                                        360  LM00391
 03357 CLA +0 50000 0 00434    03360 SUB +0 40200 0 00470    03361 TZE +0 10000 0 03370    03362 TMI -0 12000 0 03370
                   NCR=NCR+BY-AY                                                    361  LM00392
 03363 CLA +0 50000 0 00054    03364 ADD +0 40000 0 00136    03365 SUB +0 40200 0 00132    03366 STO +0 60100 0 00054
                 O'E                                                                362  LM00393
 03367 TRA +0 02000 0 03374
                   NLF=NLF+BY-AY                                                    363  LM00394
 03370 CLA +0 50000 0 00053    03371 ADD +0 40000 0 00136    03372 SUB +0 40200 0 00132    03373 STO +0 60100 0 00053
                 E'L                                                                364  LM00395
                 T'H FILL, FOR J=0,1,J.G.NSPC                                       365  LM00396
 03374 CLA +0 50000 0 00470    03375 STO +0 60100 0 00223    03376 TRA +0 02000 0 03402    03377 CLA +0 50000 0 00223
 03400 ADD +0 40000 0 00471    03401 STO +0 60100 0 00223    03402 CLA +0 50000 0 00223    03403 SUB +0 40200 0 00305
 03404 TZE +0 10000 0 03406    03405 TPL +0 12000 0 03431
                 T'H FILL1, FOR L=1,1,L.G.NC(J)                                     366  LM00397
 03406 CLA +0 50000 0 00471    03407 STO +0 60100 0 00243    03410 TRA +0 02000 0 03414    03411 CLA +0 50000 0 00243
 03412 ADD +0 40000 0 00471    03413 STO +0 60100 0 00243    03414 LXA +0 53400 2 00223    03415 CLA +0 50000 0 00243
 03416 SUB +0 40200 2 00054    03417 TZE +0 10000 0 03421    03420 TPL +0 12000 0 03430
                 PTCHAR.(SP(J))                                                     367  LM00398
 03421 CLA +0 50000 0 00223    03422 SUB +0 40200 0 03423    03423 TXH +3 00000 0 00356    03424 STA +0 62100 0 03426
 03425 TSX +0 07400 4 00045    03426 TXH +3 00000 0 00000
      FILL1      C'E                                                                368  LM00399
 03427 TRA +0 02000 0 03411
      FILL       C'E                                                                369  LM00400
 03430 TRA +0 02000 0 03377
      PCHAR      W'R EOFSW, T'O DONE                                                370  LM00401
 03431 NZT -0 52000 0 00167    03432 TRA +0 02000 0 03434    03433 TRA +0 02000 0 00061
                 AX=BX                                                              371  LM00402
 03434 CLA +0 50000 0 00135    03435 STO +0 60100 0 00131
                 AY=BY                                                              372  LM00403
 03436 CLA +0 50000 0 00136    03437 STO +0 60100 0 00132
                 PTCHAR.(CHAR)                                                      373  LM00404
 03440 TSX +0 07400 4 00045    03441 TXH +3 00000 0 00142
                 AX=AX+1                                                            374  LM00405
 03442 CLA +0 50000 0 00131    03443 ADD +0 40000 0 00471    03444 STO +0 60100 0 00131
      NOPT       BX=BX+1                                                            375  LM00406
 03445 CLA +0 50000 0 00135    03446 ADD +0 40000 0 00471    03447 STO +0 60100 0 00135
                 E'L                                                                376  LM00407
      CHARL      C'E                                                                377  LM00408
 03450 TRA +0 02000 0 02376
                 T'O LOOP                                                           378  LM00409
 03451 TRA +0 02000 0 00071
      DONE       W'R K.NE.0                                                         379  LM00410
 03452 CLA +0 50000 0 00224    03453 SUB +0 40200 0 00470    03454 TZE +0 10000 0 03505
                   W'R FILESW                                                       380  LM00411
 03455 NZT -0 52000 0 00207    03456 TRA +0 02000 0 03473
                     WTA.(OUT(OUT),K-1)                                             381  LM00412
 03457 CLA +0 50000 0 00224    03460 SUB +0 40200 0 00471    03461 STO +0 60100 0 04421    03462 CLA +0 50000 0 00310
 03463 SUB +0 40200 0 03464    03464 TXH +3 00000 0 00310    03465 STA +0 62100 0 03467    03466 TSX +0 07400 4 00040
 03467 TXH +3 00000 0 00000    03470 TXH +3 00000 0 04421
                     CLOSEW.                                                        382  LM00413
 03471 TSX +0 07400 4 00006
                   O'E                                                              383  LM00414
 03472 TRA +0 02000 0 03505
                     PNTLIN.(OUT(OUT),K-1)                                          384  LM00415
 03473 CLA +0 50000 0 00224    03474 SUB +0 40200 0 00471    03475 STO +0 60100 0 04421    03476 CLA +0 50000 0 00310
 03477 SUB +0 40200 0 03500    03500 TXH +3 00000 0 00310    03501 STA +0 62100 0 03503    03502 TSX +0 07400 4 00022
 03503 TXH +3 00000 0 00000    03504 TXH +3 00000 0 04421
                   E'L                                                              385  LM00416
                 E'L                                                                386  LM00417
      BRKOUT     CLOSEF.                                                            387  LM00418
 03505 TSX +0 07400 4 00005
      EGRETS     SETBCD.(0)                                                         388  LM00419
 03506 TSX +0 07400 4 00032    03507 TXH +3 00000 0 00470
                 CHNCOM.(0)                                                         389  LM00420
 03510 TSX +0 07400 4 00004    03511 TXH +3 00000 0 00470
      EOF        EOFSW=1B                                                           390  LM00422
 03512 CLA +0 50000 0 00471    03513 STO +0 60100 0 00167
                 W'R CC                                                             391  LM00423
 03514 NZT -0 52000 0 00140    03515 TRA +0 02000 0 03543
                   W'R BY.NE.(BY/PGL)*PGL                                           392  LM00424
 03516 LDQ +0 56000 0 00136    03517 PXD -0 75400 0 00000    03520 LLS +0 76300 0 00000    03521 DVP +0 22100 0 00341
 03522 MPY +0 20000 0 00341    03523 XCA +0 13100 0 00000    03524 CHS +0 76000 0 00002    03525 ADD +0 40000 0 00136
 03526 TZE +0 10000 0 03542
                     BY=(BY/PGL+1)*PGL+1                                            393  LM00425
 03527 LDQ +0 56000 0 00136    03530 PXD -0 75400 0 00000    03531 LLS +0 76300 0 00000    03532 DVP +0 22100 0 00341
 03533 XCA +0 13100 0 00000    03534 ADD +0 40000 0 00471    03535 XCA +0 13100 0 00000    03536 MPY +0 20000 0 00341
 03537 XCA +0 13100 0 00000    03540 ADD +0 40000 0 00471    03541 STO +0 60100 0 00136
                   E'L                                                              394  LM00426
                 O'E                                                                395  LM00427
 03542 TRA +0 02000 0 03550
                   BY=BY+2                                                          396  LM00428
 03543 CLA +0 50000 0 00136    03544 ADD +0 40000 0 00472    03545 STO +0 60100 0 00136
                   BX=1                                                             397  LM00429
 03546 CLA +0 50000 0 00471    03547 STO +0 60100 0 00135
                 E'L                                                                398  LM00430
                 T'O FILOUT                                                         399  LM00431
 03550 TRA +0 02000 0 00065
                 INTERNAL FUNCTION (PTC)                                            400  LM00433
 03551 TRA +0 02000 0 03641
                 ENTRY TO PTCHAR.                                                   401  LM00434
 03552 TRA +0 02000 0 03555    00045 TTR +0 02100 0 03553    03553 SXA +0 63400 2 03626    03554 TSX +0 07400 2 03626
                 W'R FILESW                                                         402  LM00435
 03555 NZT -0 52000 0 00207    03556 TRA +0 02000 0 03563
                   C=TSSASC.(PTC)                                                   403  LM00436
 03557 TSX +0 07400 4 00036    03560 TXH +3 00000 0 00024    03561 STO +0 60100 0 00146
                 O'E                                                                404  LM00437
 03562 TRA +0 02000 0 03565
                   C=PTC                                                            405  LM00438
 03563 CLA +0 50000 0 00024    03564 STO +0 60100 0 00146
                 E'L                                                                406  LM00439
                 OUT(OUT+K)=C                                                       407  LM00440
 03565 CLA +0 50000 0 00310    03566 ADD +0 40000 0 00224    03567 PAX +0 73400 1 00000    03570 CLA +0 50000 0 00146
 03571 STO +0 60100 1 00310
                 K=K+1                                                              408  LM00441
 03572 CLA +0 50000 0 00224    03573 ADD +0 40000 0 00471    03574 STO +0 60100 0 00224
                 W'R K.G.84                                                         409  LM00442
 03575 CLA +0 50000 0 00224    03576 SUB +0 40200 0 00514    03577 TZE +0 10000 0 03624    03600 TMI -0 12000 0 03624
                   W'R FILESW                                                       410  LM00443
 03601 NZT -0 52000 0 00207    03602 TRA +0 02000 0 03613
                     WTA.(OUT(OUT),84)                                              411  LM00444
 03603 CLA +0 50000 0 00310    03604 SUB +0 40200 0 03605    03605 TXH +3 00000 0 00310    03606 STA +0 62100 0 03610
 03607 TSX +0 07400 4 00040    03610 TXH +3 00000 0 00000    03611 TXH +3 00000 0 00514
                   O'E                                                              412  LM00445
 03612 TRA +0 02000 0 03622
                     PNTLIN.(OUT(OUT),84)                                           413  LM00446
 03613 CLA +0 50000 0 00310    03614 SUB +0 40200 0 03615    03615 TXH +3 00000 0 00310    03616 STA +0 62100 0 03620
 03617 TSX +0 07400 4 00022    03620 TXH +3 00000 0 00000    03621 TXH +3 00000 0 00514
                   E'L                                                              414  LM00447
                   K=1                                                              415  LM00448
 03622 CLA +0 50000 0 00471    03623 STO +0 60100 0 00224
                 E'L                                                                416  LM00449
                 F'N                                                                417  LM00450
 03624 TRA +0 02000 0 03635
                 END OF FUNCTION                                                    418  LM00451
 03625 TSX +0 07400 4 00012    03626 TXH +3 00000 0 00000    03627 SXD -0 63400 1 03626    03630 SXA +0 63400 4 03635
 03631 CLA +0 50000 4 00001    03632 STO +0 60100 0 03560    03633 STA +0 62100 0 03563    03634 TRA +0 02000 2 00001
 03635 AXT +0 77400 4 00000    03636 LXA +0 53400 2 03626    03637 LXD -0 53400 1 03626    03640 TRA +0 02000 4 00001
                 INTERNAL FUNCTION (AA,BB)                                          419  LM00454
 03641 TRA +0 02000 0 04035
                 ENTRY TO HORZ.                                                     420  LM00455
 03642 TRA +0 02000 0 03645    00044 TTR +0 02100 0 03643    03643 SXA +0 63400 2 04020    03644 TSX +0 07400 2 04020
                 A=AA                                                               421  LM00456
 03645 CLA +0 50000 0 00024    03646 STO +0 60100 0 00127
                 B=BB                                                               422  LM00457
 03647 CLA +0 50000 0 00024    03650 STO +0 60100 0 00133
      TL2        T'H TL2, FOR ATI=1,1,OTABS(OTABS+ATI).G.A                          423  LM00458
 03651 CLA +0 50000 0 00471    03652 STO +0 60100 0 00130    03653 TRA +0 02000 0 03657    03654 CLA +0 50000 0 00130
 03655 ADD +0 40000 0 00471    03656 STO +0 60100 0 00130    03657 CLA +0 50000 0 00306    03660 ADD +0 40000 0 00130
 03661 PAX +0 73400 1 00000    03662 CLA +0 50000 1 00306    03663 SUB +0 40200 0 00127    03664 TZE +0 10000 0 03666
 03665 TPL +0 12000 0 03667    03666 TRA +0 02000 0 03654
      TL3        T'H TL3, FOR BTI=1,1,OTABS(OTABS+BTI).G.B                          424  LM00459
 03667 CLA +0 50000 0 00471    03670 STO +0 60100 0 00134    03671 TRA +0 02000 0 03675    03672 CLA +0 50000 0 00134
 03673 ADD +0 40000 0 00471    03674 STO +0 60100 0 00134    03675 CLA +0 50000 0 00306    03676 ADD +0 40000 0 00134
 03677 PAX +0 73400 1 00000    03700 CLA +0 50000 1 00306    03701 SUB +0 40200 0 00133    03702 TZE +0 10000 0 03704
 03703 TPL +0 12000 0 03705    03704 TRA +0 02000 0 03672
                 NTAB=BTI-ATI                                                       425  LM00460
 03705 CLA +0 50000 0 00134    03706 SUB +0 40200 0 00130    03707 STO +0 60100 0 00052
                 W'R NTAB.G.0                                                       426  LM00461
 03710 CLA +0 50000 0 00052    03711 SUB +0 40200 0 00470    03712 TZE +0 10000 0 03741    03713 TMI -0 12000 0 03741
                   A1=OTABS(OTABS+BTI-1)                                            427  LM00462
 03714 CLA +0 50000 0 00306    03715 ADD +0 40000 0 00134    03716 SUB +0 40200 0 00471    03717 PAX +0 73400 2 00000
 03720 CLA +0 50000 2 00306    03721 STO +0 60100 0 00123
                   T=(A1-A)*TTAB+NTAB*TSP                                           428  LM00463
 03722 LDQ +0 56000 0 00052    03723 MPY +0 20000 0 00452    03724 STQ -0 60000 0 04034    03725 CLA +0 50000 0 00123
 03726 SUB +0 40200 0 00127    03727 XCA +0 13100 0 00000    03730 MPY +0 20000 0 00465    03731 XCA +0 13100 0 00000
 03732 ADD +0 40000 0 04034    03733 STO +0 60100 0 00437
                   A=A1                                                             429  LM00464
 03734 CLA +0 50000 0 00123    03735 STO +0 60100 0 00127
                   ATI=BTI                                                          430  LM00465
 03736 CLA +0 50000 0 00134    03737 STO +0 60100 0 00130
                 O'E                                                                431  LM00466
 03740 TRA +0 02000 0 03743
                   T=0                                                              432  LM00467
 03741 CLA +0 50000 0 00470    03742 STO +0 60100 0 00437
                 E'L                                                                433  LM00468
                 NSP=B-A                                                            434  LM00469
 03743 CLA +0 50000 0 00133    03744 SUB +0 40200 0 00127    03745 STO +0 60100 0 00051
                 LTAB=OTABS(OTABS+ATI)-A                                            435  LM00470
 03746 CLA +0 50000 0 00306    03747 ADD +0 40000 0 00130    03750 PAX +0 73400 1 00000    03751 CLA +0 50000 1 00306
 03752 SUB +0 40200 0 00127    03753 STO +0 60100 0 00244
                 NBS=LTAB-NSP                                                       436  LM00471
 03754 CLA +0 50000 0 00244    03755 SUB +0 40200 0 00051    03756 STO +0 60100 0 00050
                 TMSP=NSP*TSP                                                       437  LM00472
 03757 LDQ +0 56000 0 00051    03760 MPY +0 20000 0 00452    03761 STQ -0 60000 0 00436
                 TMBS=TTAB*LTAB+TSP+TBS*NBS                                         438  LM00473
 03762 LDQ +0 56000 0 00371    03763 MPY +0 20000 0 00050    03764 STQ -0 60000 0 04034    03765 LDQ +0 56000 0 00465
 03766 MPY +0 20000 0 00244    03767 XCA +0 13100 0 00000    03770 ADD +0 40000 0 00452    03771 ADD +0 40000 0 04034
 03772 STO +0 60100 0 00435
                 W'R TMSP.LE.TMBS                                                   439  LM00474
 03773 CLA +0 50000 0 00436    03774 SUB +0 40200 0 00435    03775 TZE +0 10000 0 03777    03776 TPL +0 12000 0 04005
                   NBS=0                                                            440  LM00475
 03777 CLA +0 50000 0 00470    04000 STO +0 60100 0 00050
                   T=T+TMSP                                                         441  LM00476
 04001 CLA +0 50000 0 00437    04002 ADD +0 40000 0 00436    04003 STO +0 60100 0 00437
                 O'E                                                                442  LM00477
 04004 TRA +0 02000 0 04015
                   NSP=0                                                            443  LM00478
 04005 CLA +0 50000 0 00470    04006 STO +0 60100 0 00051
                   NTAB=NTAB+1                                                      444  LM00479
 04007 CLA +0 50000 0 00052    04010 ADD +0 40000 0 00471    04011 STO +0 60100 0 00052
                   T=T+TMBS                                                         445  LM00480
 04012 CLA +0 50000 0 00437    04013 ADD +0 40000 0 00435    04014 STO +0 60100 0 00437
                 E'L                                                                446  LM00481
                 F'N T                                                              447  LM00482
 04015 CLA +0 50000 0 00437    04016 TRA +0 02000 0 04030
                 END OF FUNCTION                                                    448  LM00483
 04017 TSX +0 07400 4 00012    04020 TXH +3 00000 0 00000    04021 SXD -0 63400 1 04020    04022 SXA +0 63400 4 04030
 04023 CLA +0 50000 4 00001    04024 STA +0 62100 0 03645    04025 CLA +0 50000 4 00002    04026 STA +0 62100 0 03647
 04027 TRA +0 02000 2 00001    04030 AXT +0 77400 4 00000    04031 LXA +0 53400 2 04020    04032 LXD -0 53400 1 04020
 04033 TRA +0 02000 4 00001
                 INTERNAL FUNCTION (NN,A)                                           449  LM00485
 04035 TRA +0 02000 0 04361
                 ENTRY TO GETTAB.                                                   450  LM00486
 04036 TRA +0 02000 0 04041    00043 TTR +0 02100 0 04037    04037 SXA +0 63400 2 04325    04040 TSX +0 07400 2 04325
                 W'R COMARG.(I+1).E.FENCE, T'O BAD                                  451  LM00487
 04041 CLA +0 50000 0 00220    04042 ADD +0 40000 0 00471    04043 STO +0 60100 0 04360    04044 TSX +0 07400 4 00007
 04045 TXH +3 00000 0 04360    04046 SUB +0 40200 0 00206    04047 TNZ -0 10000 0 04051    04050 TRA +0 02000 0 00055
                 N=NN                                                               452  LM00488
 04051 CLA +0 50000 0 00024    04052 STO +0 60100 0 00304
                 T'H TAL, FOR I=I+1,1,COMARG.(I,ARG1).E.FENCE                       453  LM00489
 04053 CLA +0 50000 0 00220    04054 ADD +0 40000 0 00471    04055 STO +0 60100 0 00220    04056 TRA +0 02000 0 04062
 04057 CLA +0 50000 0 00220    04060 ADD +0 40000 0 00471    04061 STO +0 60100 0 00220    04062 TSX +0 07400 4 00007
 04063 TXH +3 00000 0 00220    04064 TXH +3 00000 0 00124    04065 SUB +0 40200 0 00206    04066 TZE +0 10000 0 04220
                 W'R ARG1.E.$   FAP$                                                454  LM00490
 04067 CLA +0 50000 0 00124    04070 SUB +0 40200 0 00624    04071 TNZ -0 10000 0 04115
                   T'H FCL, FOR J=0,1,FAPTAB(J).E.0                                 455  LM00491
 04072 CLA +0 50000 0 00470    04073 STO +0 60100 0 00223    04074 TRA +0 02000 0 04100    04075 CLA +0 50000 0 00223
 04076 ADD +0 40000 0 00471    04077 STO +0 60100 0 00223    04100 LXA +0 53400 1 00223    04101 CLA +0 50000 1 00205
 04102 SUB +0 40200 0 00470    04103 TZE +0 10000 0 04114
                   N=N+1                                                            456  LM00492
 04104 CLA +0 50000 0 00304    04105 ADD +0 40000 0 00471    04106 STO +0 60100 0 00304
      FCL          A(N)=FAPTAB(J)                                                   457  LM00493
 04107 LXA +0 53400 1 00304    04110 LXA +0 53400 2 00223    04111 CLA +0 50000 2 00205    04112 STO +0 60100 1 00024
 04113 TRA +0 02000 0 04075
                 O'R ARG1.E.$   MAD$                                                458  LM00494
 04114 TRA +0 02000 0 04217    04115 CLA +0 50000 0 00124    04116 SUB +0 40200 0 00626    04117 TNZ -0 10000 0 04150
                   W'R ARG.E.$ ITABS$, MADSW=1B                                     459  LM00495
 04120 CLA +0 50000 0 00125    04121 SUB +0 40200 0 00611    04122 TNZ -0 10000 0 04125    04123 CLA +0 50000 0 00471
 04124 STO +0 60100 0 00246
                   T'H MCL, FOR J=0,1,MADTAB(J).E.0                                 460  LM00496
 04125 CLA +0 50000 0 00470    04126 STO +0 60100 0 00223    04127 TRA +0 02000 0 04133    04130 CLA +0 50000 0 00223
 04131 ADD +0 40000 0 00471    04132 STO +0 60100 0 00223    04133 LXA +0 53400 1 00223    04134 CLA +0 50000 1 00267
 04135 SUB +0 40200 0 00470    04136 TZE +0 10000 0 04147
                   N=N+1                                                            461  LM00497
 04137 CLA +0 50000 0 00304    04140 ADD +0 40000 0 00471    04141 STO +0 60100 0 00304
      MCL          A(N)=MADTAB(J)                                                   462  LM00498
 04142 LXA +0 53400 1 00304    04143 LXA +0 53400 2 00223    04144 CLA +0 50000 2 00267    04145 STO +0 60100 1 00024
 04146 TRA +0 02000 0 04130
                 O'R ARG1.E.$  CTSS$                                                463  LM00499
 04147 TRA +0 02000 0 04217    04150 CLA +0 50000 0 00124    04151 SUB +0 40200 0 00616    04152 TNZ -0 10000 0 04175
                   T'H XCL, FOR J=15,15,J.G.150                                     464  LM00500
 04153 CLA +0 50000 0 00505    04154 STO +0 60100 0 00223    04155 TRA +0 02000 0 04161    04156 CLA +0 50000 0 00223
 04157 ADD +0 40000 0 00505    04160 STO +0 60100 0 00223    04161 CLA +0 50000 0 00223    04162 SUB +0 40200 0 00516
 04163 TZE +0 10000 0 04165    04164 TPL +0 12000 0 04174
                   N=N+1                                                            465  LM00501
 04165 CLA +0 50000 0 00304    04166 ADD +0 40000 0 00471    04167 STO +0 60100 0 00304
      XCL          A(N)=J                                                           466  LM00502
 04170 LXA +0 53400 1 00304    04171 CLA +0 50000 0 00223    04172 STO +0 60100 1 00024    04173 TRA +0 02000 0 04156
                 O'R ZEL.(ARG1).A.$$.E.0                                            467  LM00503
 04174 TRA +0 02000 0 04217    04175 TSX +0 07400 4 00041    04176 TXH +3 00000 0 00124    04177 STO +0 60100 0 04360
 04200 CAL -0 50000 0 04360    04201 ANA -0 32000 0 00640    04202 SLW +0 60200 0 04360    04203 CLA +0 50000 0 04360
 04204 SUB +0 40200 0 00470    04205 TNZ -0 10000 0 04216
                   N=N+1                                                            468  LM00504
 04206 CLA +0 50000 0 00304    04207 ADD +0 40000 0 00471    04210 STO +0 60100 0 00304
                   A(N)=BCDEC.(ARG1)                                                469  LM00505
 04211 TSX +0 07400 4 00001    04212 TXH +3 00000 0 00124    04213 LXA +0 53400 1 00304    04214 STO +0 60100 1 00024
                 O'E                                                                470  LM00506
 04215 TRA +0 02000 0 04217
                   T'O RET                                                          471  LM00507
 04216 TRA +0 02000 0 00112
                 E'L                                                                472  LM00508
      TAL        C'E                                                                473  LM00509
 04217 TRA +0 02000 0 04057
      RET        I=I-1                                                              474  LM00510
 04220 CLA +0 50000 0 00220    04221 SUB +0 40200 0 00471    04222 STO +0 60100 0 00220
      SORT       CH=0B                                                              475  LM00511
 04223 CLA +0 50000 0 00470    04224 STO +0 60100 0 00144
                 T'H SL, FOR J=2,1,J.G.N                                            476  LM00512
 04225 CLA +0 50000 0 00472    04226 STO +0 60100 0 00223    04227 TRA +0 02000 0 04233    04230 CLA +0 50000 0 00223
 04231 ADD +0 40000 0 00471    04232 STO +0 60100 0 00223    04233 CLA +0 50000 0 00223    04234 SUB +0 40200 0 00304
 04235 TZE +0 10000 0 04237    04236 TPL +0 12000 0 04310
                 W'R A(J).E.A(J-1)                                                  477  LM00513
 04237 CLA +0 50000 0 00223    04240 SUB +0 40200 0 00471    04241 LXA +0 53400 1 00223    04242 PAX +0 73400 2 00000
 04243 CLA +0 50000 1 00024    04244 SUB +0 40200 2 00024    04245 TNZ -0 10000 0 04257
                   A(J)=A(N)                                                        478  LM00514
 04246 LXA +0 53400 2 00304    04247 CLA +0 50000 2 00024    04250 STO +0 60100 1 00024
                   N=N-1                                                            479  LM00515
 04251 CLA +0 50000 0 00304    04252 SUB +0 40200 0 00471    04253 STO +0 60100 0 00304
                   CH=1B                                                            480  LM00516
 04254 CLA +0 50000 0 00471    04255 STO +0 60100 0 00144
                 O'R A(J).L.A(J-1)                                                  481  LM00517
 04256 TRA +0 02000 0 04307    04257 CLA +0 50000 0 00223    04260 SUB +0 40200 0 00471    04261 LXA +0 53400 1 00223
 04262 PAX +0 73400 2 00000    04263 CLA +0 50000 1 00024    04264 SUB +0 40200 2 00024    04265 TZE +0 10000 0 04307
 04266 TPL +0 12000 0 04307
                   ARG1=A(J-1)                                                      482  LM00518
 04267 CLA +0 50000 0 00223    04270 SUB +0 40200 0 00471    04271 PAX +0 73400 2 00000    04272 CLA +0 50000 2 00024
 04273 STO +0 60100 0 00124
                   A(J-1)=A(J)                                                      483  LM00519
 04274 CLA +0 50000 0 00223    04275 SUB +0 40200 0 00471    04276 PAX +0 73400 1 00000    04277 LXA +0 53400 2 00223
 04300 CLA +0 50000 2 00024    04301 STO +0 60100 1 00024
                   A(J)=ARG1                                                        484  LM00520
 04302 LXA +0 53400 1 00223    04303 CLA +0 50000 0 00124    04304 STO +0 60100 1 00024
                   CH=1B                                                            485  LM00521
 04305 CLA +0 50000 0 00471    04306 STO +0 60100 0 00144
                 E'L                                                                486  LM00522
      SL         C'E                                                                487  LM00523
 04307 TRA +0 02000 0 04230
                 W'R CH, T'O SORT                                                   488  LM00524
 04310 NZT -0 52000 0 00144    04311 TRA +0 02000 0 04313    04312 TRA +0 02000 0 00114
                 N=N+1                                                              489  LM00525
 04313 CLA +0 50000 0 00304    04314 ADD +0 40000 0 00471    04315 STO +0 60100 0 00304
                 A(N)=1000                                                          490  LM00526
 04316 LXA +0 53400 1 00304    04317 CLA +0 50000 0 00521    04320 STO +0 60100 1 00024
                 NN=N                                                               491  LM00527
 04321 CLA +0 50000 0 00304    04322 STO +0 60100 0 00024
                 F'N                                                                492  LM00528
 04323 TRA +0 02000 0 04354
                 END OF FUNCTION                                                    493  LM00529
 04324 TSX +0 07400 4 00012    04325 TXH +3 00000 0 00000    04326 SXD -0 63400 1 04325    04327 SXA +0 63400 4 04354
 04330 CLA +0 50000 4 00001    04331 STA +0 62100 0 04051    04332 STA +0 62100 0 04322    04333 CLA +0 50000 4 00002
 04334 STA +0 62100 0 04112    04335 STA +0 62100 0 04145    04336 STA +0 62100 0 04172    04337 STA +0 62100 0 04214
 04340 STA +0 62100 0 04243    04341 STA +0 62100 0 04244    04342 STA +0 62100 0 04247    04343 STA +0 62100 0 04250
 04344 STA +0 62100 0 04263    04345 STA +0 62100 0 04264    04346 STA +0 62100 0 04272    04347 STA +0 62100 0 04300
 04350 STA +0 62100 0 04301    04351 STA +0 62100 0 04304    04352 STA +0 62100 0 04320    04353 TRA +0 02000 2 00001
 04354 AXT +0 77400 4 00000    04355 LXA +0 53400 2 04325    04356 LXD -0 53400 1 04325    04357 TRA +0 02000 4 00001
                 INTERNAL FUNCTION (Z)                                              494  LM00531
 04361 TRA +0 02000 0 04417
                 E'O BCDC.                                                          495  LM00532
 04362 TRA +0 02000 0 04365    00042 TTR +0 02100 0 04363    04363 SXA +0 63400 2 04403    04364 TSX +0 07400 2 04403
                 W'R ZEL.(Z).A.$$.NE.0, T'O BAD                                     496  LM00533
 04365 TSX +0 07400 4 00041    04366 TXH +3 00000 0 00024    04367 STO +0 60100 0 04416    04370 CAL -0 50000 0 04416
 04371 ANA -0 32000 0 00640    04372 SLW +0 60200 0 04416    04373 CLA +0 50000 0 04416    04374 SUB +0 40200 0 00470
 04375 TZE +0 10000 0 04377    04376 TRA +0 02000 0 00055
                 F'N BCDEC.(Z)                                                      497  LM00534
 04377 TSX +0 07400 4 00001    04400 TXH +3 00000 0 00024    04401 TRA +0 02000 0 04412
                 E'N                                                                498  LM00535
 04402 TSX +0 07400 4 00012    04403 TXH +3 00000 0 00000    04404 SXD -0 63400 1 04403    04405 SXA +0 63400 4 04412
 04406 CLA +0 50000 4 00001    04407 STO +0 60100 0 04366    04410 STO +0 60100 0 04400    04411 TRA +0 02000 2 00001
 04412 AXT +0 77400 4 00000    04413 LXA +0 53400 2 04403    04414 LXD -0 53400 1 04403    04415 TRA +0 02000 4 00001
                 V'S NSPC=5                                                         499  LM00537
 00305     +0 00000 0 00005
                 V'S SP=55K,107K,72K,60K,135K,136K                                  500  LM00538
 00351     +0 00000 0 00136    00352     +0 00000 0 00135    00353     +0 00000 0 00060    00354     +0 00000 0 00072
 00355     +0 00000 0 00107    00356     +0 00000 0 00055
                 V'S NNOSP=2                                                        501  LM00539
 00276     +0 00000 0 00002
                 V'S NOSP=113K,132K,133K                                            502  LM00540
 00277     +0 00000 0 00133    00300     +0 00000 0 00132    00301     +0 00000 0 00113
                 V'S NPCC=11                                                        503  LM00541
 00303     +0 00000 0 00013
                 V'S PCCL=60K,1K,0K,40K,20K,2K,3K,4K,5K,61K,62K,63K                 504  LM00542
 00312     +0 00000 0 00063    00313     +0 00000 0 00062    00314     +0 00000 0 00061    00315     +0 00000 0 00005
 00316     +0 00000 0 00004    00317     +0 00000 0 00003    00320     +0 00000 0 00002    00321     +0 00000 0 00020
 00322     +0 00000 0 00040    00323     +0 00000 0 00000    00324     +0 00000 0 00001    00325     +0 00000 0 00060
                 V'S D=0,66,1,2,-1,32,21,16,13,0,1,2                                505  LM00543
 00152     +0 00000 0 00002    00153     +0 00000 0 00001    00154     +0 00000 0 00000    00155     +0 00000 0 00015
 00156     +0 00000 0 00020    00157     +0 00000 0 00025    00160     +0 00000 0 00040    00161     -0 00000 0 00001
 00162     +0 00000 0 00002    00163     +0 00000 0 00001    00164     +0 00000 0 00102    00165     +0 00000 0 00000
                 V'S MADBS=35K                                                      506  LM00544
 00245     +0 00000 0 00035
                 V'S LM=777777K6                                                    507  LM00545
 00240     -3 77777 0 00000
                 V'S FENCE = 777777777777K                                          508  LM00546
 00206     -3 77777 7 77777
                 V'S FAPTAB=8,16,35,40,45,50,55,60,65,70,75,80,85,0                 509  LM00547
 00170     +0 00000 0 00000    00171     +0 00000 0 00125    00172     +0 00000 0 00120    00173     +0 00000 0 00113
 00174     +0 00000 0 00106    00175     +0 00000 0 00101    00176     +0 00000 0 00074    00177     +0 00000 0 00067
 00200     +0 00000 0 00062    00201     +0 00000 0 00055    00202     +0 00000 0 00050    00203     +0 00000 0 00043
 00204     +0 00000 0 00020    00205     +0 00000 0 00010
                 V'S MADTAB=12,17,22,27,32,37,42,47,52,57,62,67,72,77,82,87,0       510  LM00548
 00247     +0 00000 0 00000    00250     +0 00000 0 00127    00251     +0 00000 0 00122    00252     +0 00000 0 00115
 00253     +0 00000 0 00110    00254     +0 00000 0 00103    00255     +0 00000 0 00076    00256     +0 00000 0 00071
 00257     +0 00000 0 00064    00260     +0 00000 0 00057    00261     +0 00000 0 00052    00262     +0 00000 0 00045
 00263     +0 00000 0 00040    00264     +0 00000 0 00033    00265     +0 00000 0 00026    00266     +0 00000 0 00021
 00267     +0 00000 0 00014
                 DIMENSION IN(0),OUT(0),NC(5),ITABS(0),OTABS(0)                     511  LM00549
                 V'S TCR = 0,2,8,128,176,176,8,8,8,1,1                              512  LM00553
 00405     +0 00000 0 00001    00406     +0 00000 0 00001    00407     +0 00000 0 00010    00410     +0 00000 0 00010
 00411     +0 00000 0 00010    00412     +0 00000 0 00260    00413     +0 00000 0 00260    00414     +0 00000 0 00200
 00415     +0 00000 0 00010    00416     +0 00000 0 00002    00417     +0 00000 0 00000
                 V'S TCRLF=0,1,1,0,0,0,1,0,1,0,0                                    513  LM00554
 00372     +0 00000 0 00000    00373     +0 00000 0 00000    00374     +0 00000 0 00001    00375     +0 00000 0 00000
 00376     +0 00000 0 00001    00377     +0 00000 0 00000    00400     +0 00000 0 00000    00401     +0 00000 0 00000
 00402     +0 00000 0 00001    00403     +0 00000 0 00001    00404     +0 00000 0 00000
                 V'S TBS = 0,1K5,112,1K5,1K5,1K5,1K5,88,112,1,1                     514  LM00555
 00357     +0 00000 0 00001    00360     +0 00000 0 00001    00361     +0 00000 0 00160    00362     +0 00000 0 00130
 00363     +0 00000 1 00000    00364     +0 00000 1 00000    00365     +0 00000 1 00000    00366     +0 00000 1 00000
 00367     +0 00000 0 00160    00370     +0 00000 1 00000    00371     +0 00000 0 00000
                 V'S TSP = 0,88,72,64,88,88,88,88,72,1,1                            515  LM00556
 00440     +0 00000 0 00001    00441     +0 00000 0 00001    00442     +0 00000 0 00110    00443     +0 00000 0 00130
 00444     +0 00000 0 00130    00445     +0 00000 0 00130    00446     +0 00000 0 00130    00447     +0 00000 0 00100
 00450     +0 00000 0 00110    00451     +0 00000 0 00130    00452     +0 00000 0 00000
                 V'S TTAB = 0,24,8,1K5,1K5,1K5,24,24,8,1,1                          516  LM00557
 00453     +0 00000 0 00001    00454     +0 00000 0 00001    00455     +0 00000 0 00010    00456     +0 00000 0 00030
 00457     +0 00000 0 00030    00460     +0 00000 1 00000    00461     +0 00000 1 00000    00462     +0 00000 1 00000
 00463     +0 00000 0 00010    00464     +0 00000 0 00030    00465     +0 00000 0 00000
                 V'S TLF = 0,1,0,0,0,0,0,1,0,1,0                                    517  LM00558
 00422     +0 00000 0 00000    00423     +0 00000 0 00001    00424     +0 00000 0 00000    00425     +0 00000 0 00001
 00426     +0 00000 0 00000    00427     +0 00000 0 00000    00430     +0 00000 0 00000    00431     +0 00000 0 00000
 00432     +0 00000 0 00000    00433     +0 00000 0 00001    00434     +0 00000 0 00000
                 V'S LL=0,87,129,68,68,68,87,87,129,79,1K5                          518  LM00559
 00225     +0 00000 1 00000    00226     +0 00000 0 00117    00227     +0 00000 0 00201    00230     +0 00000 0 00127
 00231     +0 00000 0 00127    00232     +0 00000 0 00104    00233     +0 00000 0 00104    00234     +0 00000 0 00104
 00235     +0 00000 0 00201    00236     +0 00000 0 00127    00237     +0 00000 0 00000
                 V'S PGL=0,66,66,66,66,66,66,66,66,56,66                            519  LM00560
 00327     +0 00000 0 00102    00330     +0 00000 0 00070    00331     +0 00000 0 00102    00332     +0 00000 0 00102
 00333     +0 00000 0 00102    00334     +0 00000 0 00102    00335     +0 00000 0 00102    00336     +0 00000 0 00102
 00337     +0 00000 0 00102    00340     +0 00000 0 00102    00341     +0 00000 0 00000
                 V'S ITD=10                                                         520  LM00561
 00222     +0 00000 0 00012
                 V'S OTD=10                                                         521  LM00562
 00307     +0 00000 0 00012
                 EQUIVALENCE (NCR,NC(0)),(NLF,NC(1)),(NTAB,NC(2)),                  522  LM00564
                1  (NSP,NC(3)),(NBS,NC(4)),(NCRLF,NC(5))                            522  LM00565
                 NORMAL MODE IS INTEGER                                             523  LM00566
                 BOOLEAN N9,N12,CC,NCCS,CCN,EOFSW,WR,PS,CH,LMSW,DATESW              524  LM00567
                 BOOLEAN FILESW,HDRSW,MADSW,CCX,PTF,CKP                             525  LM00568
                 END OF PROGRAM                                                     526  LM00569
 04417 TSX +0 07400 4 00012
1            OPENW,WTA,CLOSEW                                                    02/05/69 1710.5 PAGE 1

                              *      OPENW.(FN,FN1)
                              *      WTA.(A,N)
                              *      CLOSEW.
                       00031         ENTRY   WTA
                       00006         ENTRY   OPENW
                       00071         ENTRY   CLOSEW

        TRANSFER VECTOR
      00000  464725456060     OPEN
      00001  226426262551     BUFFER
      00002  665166213163     WRWAIT
      00003  234346622560     CLOSE

            LINKAGE DIRECTOR
      00004  000000000000
      00005  666321606060

      00006  0636 00 4 00027  OPENW  SCA     XRO,4
      00007 -0500 60 4 00001         CAL*    1,4
      00010  0602 00 0 00123         SLW     FN
      00011 -0500 60 4 00002         CAL*    2,4
      00012  0602 00 0 00124         SLW     FN1
      00013  0074 00 4 00000         TSX     $OPEN,4
      00014  3 00000 0 01670         PTH     =HW
      00015  3 00000 0 00123         PTH     FN
      00016  3 00000 0 00124         PTH     FN1
      00017  0074 00 4 00001         TSX     $BUFFER,4
      00020  3 00000 0 00123         PTH     FN
      00021  3 00000 0 00124         PTH     FN1
      00022  3 00660 0 00126         PTH     WBUF,,432
      00023 -0500 00 0 01667         CAL     =O77
      00024  0602 00 0 00125         SLW     AC
      00025  0774 00 4 00660         AXT     432,4
      00026  0634 00 4 00043         SXA     WC,4
      00027 -0774 00 4 00000  XRO    AXC     ,4
      00030  0020 00 4 00001         TRA     1,4
                              *
      00031  0636 00 4 00066  WTA    SCA     XRW,4
      00032  0634 00 1 00067         SXA     XRW+1,1
      00033 -0500 00 4 00001         CAL     1,4
      00034  0621 00 0 00045         STA     LDQ
      00035 -0500 60 4 00002         CAL*    2,4
      00036  0734 00 4 00000         PAX     ,4
      00037 -0634 00 4 00044         SXD     LOOP,4
      00040  0774 00 1 00001         AXT     1,1
      00041 -0500 00 0 00125         CAL     AC
      00042  0140 00 0 00042         TOV     *
      00043  0774 00 4 00000  WC     AXT     ,4
      00044  3 00044 1 00064  LOOP   TXH     OUT,1,1**
      00045  0560 00 1 00000  LDQ    LDQ     **,1
      00046 -0773 00 0 00033         RQL     36-9
      00047 -0763 00 0 00011         LGL     9
      00050 -0140 00 0 00063         TNO     CLE
      00051  0602 00 4 01666         SLW     BUF+432,4
      00052  2 00001 4 00062         TIX     NW,4,1
      00053  0074 00 4 00002         TSX     $WRWAIT,4
1            OPENW,WTA,CLOSEW                                                    02/05/69 1710.5 PAGE 2

      00054  3 00000 0 00123         PTH     FN
      00055  3 00000 0 00124         PTH     FN1
      00056  3 00000 0 01666         PTH     =0
      00057  3 00660 0 01006         PTH     BUF,,432
      00060  0140 00 0 00060         TOV     *
      00061  0774 00 4 00660         AXT     432,4
      00062 -0500 00 0 01667  NW     CAL     =O77
      00063  1 00001 1 00044  CLE    TXI     LOOP,1,1
      00064  0634 00 4 00043  OUT    SXA     WC,4
      00065  0602 00 0 00125         SLW     AC
      00066 -0774 00 4 00000  XRW    AXC     ,4
      00067  0774 00 1 00000         AXT     ,1
      00070  0020 00 4 00001         TRA     1,4
                              *
      00071  0636 00 4 00121  CLOSEW SCA     XRC,4
      00072  0534 00 4 00043         LXA     WC,4
      00073 -0500 00 0 00125         CAL     AC
      00074 -0340 00 0 01667         LAS     =O77
      00075  0020 00 0 00077         TRA     *+2
      00076  0020 00 0 00105         TRA     LE
      00077  0140 00 0 00077         TOV     *
      00100  0560 00 0 01666         LDQ     =0
      00101 -0763 00 0 00011         LGL     9
      00102 -0140 00 0 00101         TNO     *-1
      00103  0602 00 4 01666         SLW     BUF+432,4
      00104  1 77777 4 00105         TXI     *+1,4,-1
      00105 -0636 00 4 00107  LE     SCD     *+2,4
      00106  0774 00 4 00660         AXT     432,4
      00107  1 00000 4 00110         TXI     *+1,4,**
      00110 -0634 00 4 00115         SXD     *+5,4
      00111  0074 00 4 00002         TSX     $WRWAIT,4
      00112  3 00000 0 00123         PTH     FN
      00113  3 00000 0 00124         PTH     FN1
      00114  3 00000 0 01666         PTH     =0
      00115  3 00000 0 01006         PTH     BUF,,**
      00116  0074 00 4 00003         TSX     $CLOSE,4
      00117  3 00000 0 00123         PTH     FN
      00120  3 00000 0 00124         PTH     FN1
      00121 -0774 00 4 00000  XRC    AXC     ,4
      00122  0020 00 4 00001         TRA     1,4
      00123  0 00000 0 00000  FN
      00124  0 00000 0 00000  FN1
      00125  0 00000 0 00000  AC
      00126                   WBUF   BSS     432
      01006                   BUF    BSS     432
                                     END

        LITERALS
      01666  000000000000
      01667  000000000077
      01670  666060606060
1            OPENW,WTA,CLOSEW                                                    02/05/69 1710.5 PAGE 1
                        POST PROCESSOR ASSEMBLY DATA

       1671 IS THE FIRST LOCATION NOT USED BY THIS PROGRAM

0REFERENCES TO DEFINED SYMBOLS
        125     AC    24,   41,   65,   73
        123     FN    10,   15,   20,   54,  112,  117
        105     LE    76
         62     NW    52
         43     WC    26,   64,   72
       1006    BUF    51,   57,  103,  115
         63    CLE    50
        124    FN1    12,   16,   21,   55,  113,  120
         45    LDQ    34
         64    OUT    44
         31    WTA     0
        121    XRC    71
         27    XRO     6
         66    XRW    31,   32
         44   LOOP    37,   63
          0   OPEN    13
        126   WBUF    22
          3  CLOSE   116
          6  OPENW     0
          1 BUFFER    17
         71 CLOSEW     0
          2 WRWAIT    53,  111

0 NO ERROR IN ABOVE ASSEMBLY.
1            OPENF,SETSIZ,READF,CLOSEF                                           02/05/69 1710.6 PAGE 1

                              *      OPENF.(FN1,FN2)
                              *      SETSIZ.(CHARSIZ,LINESIZ,LINEMARKSW)
                              *      N=READF.(A,NMAX,BRK,EOF)
                              *      CLOSEF.()
                       00061         ENTRY   READF
                       00006         ENTRY   OPENF
                       00040         ENTRY   SETSIZ
                       00213         ENTRY   CLOSEF

        TRANSFER VECTOR
      00000  464725456060     OPEN
      00001  452346446060     NCOM
      00002  512466213163     RDWAIT
      00003  234346622560     CLOSE

            LINKAGE DIRECTOR
      00004  000000000000
      00005  512521242660

      00006  0636 00 4 00032  OPENF  SCA     XRO,4
      00007 -0500 60 4 00001         CAL*    1,4
      00010  0602 00 0 00221         SLW     FN
      00011 -0500 60 4 00002         CAL*    2,4
      00012  0602 00 0 00222         SLW     FN1
      00013  0074 00 4 00000         TSX     $OPEN,4
      00014  3 00000 0 01127         PTH     =HR
      00015  3 00000 0 00221         PTH     FN
      00016  3 00000 0 00222         PTH     FN1
      00017  3 00000 0 01125         PTH     =-0
      00020  3 00000 0 01125         PTH     =-0
      00021  3 00000 0 00034         PTH     ERR
      00022  0634 00 0 00077         SXA     WC,0
      00023  0634 00 0 00100         SXA     CC,0
      00024  0600 00 0 00223         STZ     EOFSW
      00025  0600 00 0 00224         STZ     EOFSW1
      00026 -0634 00 0 00123         SXD     TXH,0
      00027 -0500 00 0 01117         CAL     =1
      00030  0602 00 0 00231         SLW     RELADR
      00031 -0625 00 0 00227         STL     FIRST
      00032 -0774 00 4 00000  XRO    AXC     ,4
      00033  0020 00 4 00001         TRA     1,4
                              *
      00034  0074 00 4 00001  ERR    TSX     $NCOM,4
      00035  3 00000 0 01126         PTH     =HPRNTER
      00036  3 00000 0 01121         PTH     =O51
      00037  0101 00 0 01124         TIA     =HDORMNT
                              *
      00040 -0500 60 4 00001  SETSIZ CAL*    1,4
      00041  0621 00 0 00172         STA     SFTN
      00042  0560 00 0 01120         LDQ     =36
      00043 -0754 00 0 00000         ZAC
      00044  0221 60 4 00001         DVP*    1,4
      00045 -0130 00 0 00000         XCL
      00046  0621 00 0 00170         STA     N1
      00047 -0500 60 4 00002         CAL*    2,4
      00050  0621 00 0 00232         STA     LNSZ
1            OPENF,SETSIZ,READF,CLOSEF                                           02/05/69 1710.6 PAGE 2

      00051  0602 00 0 00233         SLW     DO
      00052 -0500 60 4 00003         CAL*    3,4
      00053  0602 00 0 00234         SLW     LMSW
      00054 -0602 00 0 00233         ORS     DO
      00055  0600 00 0 00235         STZ     LCT
      00056  0600 00 0 00236         STZ     NDLM
      00057 -0625 00 0 00227         STL     FIRST
      00060  0020 00 4 00001         TRA     1,4
                              *
      00061  0636 00 4 00205  READF  SCA     XRR,4
      00062  0520 00 0 00224         ZET     EOFSW1
      00063  0020 60 4 00004         TRA*    4,4
      00064  0634 00 1 00206         SXA     XRR+1,1
      00065  0634 00 2 00207         SXA     XRR+2,2
      00066 -0500 00 4 00001         CAL     1,4
      00067  0621 00 0 00174         STA     SLW
      00070  0774 00 1 00000         AXT     0,1
      00071 -0500 60 4 00002         CAL*    2,4
      00072  0734 00 2 00000         PAX     ,2
      00073  1 77777 2 00074         TXI     *+1,2,-1
      00074 -0634 00 2 00102         SXD     LOOP,2
      00075 -0500 60 4 00003         CAL*    3,4
      00076  0602 00 0 00226         SLW     BRK
      00077  0774 00 4 00000  WC     AXT     **,4
      00100  0774 00 2 00000  CC     AXT     **,2
      00101  0560 00 0 00230         LDQ     MQ
      00102  3 00000 1 00201  LOOP   TXH     OUT,1,**
      00103  2 00001 2 00171         TIX     SFT,2,1
      00104 -0520 00 0 00233         NZT     DO
      00105  0020 00 0 00123         TRA     TXH
      00106  0520 00 0 00235         ZET     LCT
      00107  0020 00 0 00123         TRA     TXH
      00110  0520 00 0 00236         ZET     NDLM
      00111  0020 00 0 00123         TRA     TXH
      00112 -0500 00 0 00232         CAL     LNSZ
      00113  0602 00 0 00235         SLW     LCT
      00114  0520 00 0 00227         ZET     FIRST
      00115  0020 00 0 00122         TRA     TXH-1
      00116 -0100 00 0 00120         TNZ     *+2
      00117 -0625 00 0 00236         STL     NDLM
      00120 -0500 00 0 01122         CAL     =O55
      00121  0020 00 0 00173         TRA     STO
      00122  0600 00 0 00227         STZ     FIRST
      00123  3 00000 4 00147  TXH    TXH     NRD,4,**
      00124  0520 00 0 00223         ZET     EOFSW
      00125  0020 00 0 00200         TRA     REOF
      00126  0074 00 4 00002         TSX     $RDWAIT,4
      00127  3 00000 0 00221         PTH     FN
      00130  3 00000 0 00222         PTH     FN1
      00131  3 00000 0 00231         PTH     RELADR
      00132  3 00660 0 00237         PTH     BUF,,432
      00133  3 00000 0 00142         PTH     EOF
      00134  3 00000 0 00225         PTH     EOFCT
      00135 -0500 00 0 00231         CAL     RELADR
      00136  0400 00 0 01123         ADD     =432
      00137  0602 00 0 00231         SLW     RELADR
1            OPENF,SETSIZ,READF,CLOSEF                                           02/05/69 1710.6 PAGE 3

      00140 -0774 00 4 00660         AXC     432,4
      00141  0020 00 0 00145         TRA     SXD
      00142  0535 00 4 00225  EOF    LAC     EOFCT,4
      00143 -0625 00 0 00223         STL     EOFSW
      00144 -3 00000 4 00200         TXL     REOF,4,0
      00145 -0634 00 4 00123  SXD    SXD     TXH,4
      00146  0774 00 4 00000         AXT     0,4
      00147  0520 00 0 00234  NRD    ZET     LMSW
      00150  0520 00 0 00235         ZET     LCT
      00151  0020 00 0 00163         TRA     GET
      00152 -0500 00 4 00237         CAL     BUF,4
      00153  1 77777 4 00154         TXI     *+1,4,-1
      00154  0322 00 0 01130         ERA     =O777777000000
      00155 -0320 00 0 01130         ANA     =O777777000000
      00156 -0100 00 0 00102         TNZ     LOOP
      00157 -0500 00 4 00236         CAL     BUF-1,4
      00160  0621 00 0 00235         STA     LCT
      00161  0600 00 0 00236         STZ     NDLM
      00162  0020 00 0 00102         TRA     LOOP
      00163 -0500 00 0 00235  GET    CAL     LCT
      00164  0402 00 0 01117         SUB     =1
      00165  0602 00 0 00235         SLW     LCT
      00166  0560 00 4 00237         LDQ     BUF,4
      00167  1 77777 4 00170         TXI     *+1,4,-1
      00170  0774 00 2 00004  N1     AXT     4,2
      00171 -0754 00 0 00000  SFT    ZAC
      00172 -0763 00 0 00011  SFTN   LGL     9
      00173  1 00001 1 00174  STO    TXI     *+1,1,1
      00174  0602 00 1 00000  SLW    SLW     **,1
      00175  0322 00 0 00226         ERA     BRK
      00176  0100 00 0 00201         TZE     OUT
      00177  0020 00 0 00102         TRA     LOOP
      00200 -0625 00 0 00224  REOF   STL     EOFSW1
      00201  0634 00 4 00077  OUT    SXA     WC,4
      00202  0634 00 2 00100         SXA     CC,2
      00203 -0600 00 0 00230         STQ     MQ
      00204  0754 00 1 00000         PXA     ,1
      00205 -0774 00 4 00000  XRR    AXC     ,4
      00206  0774 00 1 00000         AXT     ,1
      00207  0774 00 2 00000         AXT     ,2
      00210  0100 60 4 00004         TZE*    4,4
      00211  0020 00 4 00001         TRA     1,4
                              *
      00212  0 00000 0 00000  N
      00213  0636 00 4 00217  CLOSEF SCA     XRC,4
      00214  0074 00 4 00003         TSX     $CLOSE,4
      00215  3 00000 0 00221         PTH     FN
      00216  3 00000 0 00222         PTH     FN1
      00217 -0774 00 4 00000  XRC    AXC     ,4
      00220  0020 00 4 00001         TRA     1,4
      00221  0 00000 0 00000  FN
      00222  0 00000 0 00000  FN1
      00223  0 00000 0 00000  EOFSW
      00224  0 00000 0 00000  EOFSW1
      00225  0 00000 0 00000  EOFCT
      00226  0 00000 0 00000  BRK
1            OPENF,SETSIZ,READF,CLOSEF                                           02/05/69 1710.6 PAGE 4

      00227  0 00000 0 00000  FIRST
      00230  0 00000 0 00000  MQ
      00231  0 00000 0 00000  RELADR
      00232  0 00000 0 00000  LNSZ
      00233  0 00000 0 00000  DO
      00234  0 00000 0 00000  LMSW
      00235  0 00000 0 00000  LCT
      00236  0 00000 0 00000  NDLM
      00237                   BUF    BSS     432
                                     END

        LITERALS
      01117  000000000001
      01120  000000000044
      01121  000000000051
      01122  000000000055
      01123  000000000660
      01124  244651444563
      01125  400000000000
      01126  475145632551
      01127  516060606060
      01130  777777000000
1            OPENF,SETSIZ,READF,CLOSEF                                           02/05/69 1710.6 PAGE 1
                        POST PROCESSOR ASSEMBLY DATA

       1131 IS THE FIRST LOCATION NOT USED BY THIS PROGRAM

0REFERENCES TO DEFINED SYMBOLS
        212      N
        100     CC    23,  202
        233     DO    51,   54,  104
        221     FN    10,   15,  127,  215
        230     MQ   101,  203
        170     N1    46
         77     WC    22,  201
        226    BRK    76,  175
        237    BUF   132,  152,  157,  166
        142    EOF   133
         34    ERR    21
        222    FN1    12,   16,  130,  216
        163    GET   151
        235    LCT    55,  106,  113,  150,  160,  163,  165
        147    NRD   123
        201    OUT   102,  176
        171    SFT   103
        174    SLW    67
        173    STO   121
        145    SXD   141
        123    TXH    26,  105,  107,  111,  115,  145
        217    XRC   213
         32    XRO     6
        205    XRR    61,   64,   65
        234   LMSW    53,  147
        232   LNSZ    50,  112
        102   LOOP    74,  156,  162,  177
          1   NCOM    34
        236   NDLM    56,  110,  117,  161
          0   OPEN    13
        200   REOF   125,  144
        172   SFTN    41
          3  CLOSE   214
        225  EOFCT   134,  142
        223  EOFSW    24,  124,  143
        227  FIRST    31,   57,  114,  122
          6  OPENF     0
         61  READF     0
        213 CLOSEF     0
        224 EOFSW1    25,   62,  200
          2 RDWAIT   126
        231 RELADR    30,  131,  135,  137
         40 SETSIZ     0

0 NO ERROR IN ABOVE ASSEMBLY.
1            CHARACTER CONVERSION ROUTINE                                        02/05/69 1711.4 PAGE 1

                              *      ASCTSS CONVERTS A SINGLE ASCII CHARACTER INTO A CTSS CHARACTER.
                              *      TSSASC CONVERTS A SINGLE CTSS CHARACTER INTO AN ASCII CHARACTER.
                              *
                              *      NO ESCAPE CONVENTIONS ARE RELEVANT.
                              *      MAD CALLING SEQUENCE
                              *      X = ASCTSS.(CHAR)
                              *      X = TSSASC.(CHAR)
                              *      WRITTEN BY ROBERT MORRIS, DECEMBER, 1965
                              *      FIXED FOR PR(1966)ASCII BY J. H. SALTZER, OCT. 66.
                              *
                       00004         ENTRY   ASCTSS
                       00002         ENTRY   TSSASC
                              *

            LINKAGE DIRECTOR
      00000  000000000000
      00001  216223636262

      00002 -0625 00 0 00017  TSSASC STL     XYZFL
      00003  0020 00 0 00005         TRA     *+2
      00004  0600 00 0 00017  ASCTSS STZ     XYZFL
      00005  0634 00 1 00015         SXA     XR1,1
      00006  0500 60 4 00001         CLA*    1,4
      00007 -0320 00 0 00220         ANA     =O177
      00010  0737 00 1 00000         PAC     ,1
      00011  0500 00 1 00020         CLA     TABLE,1
      00012  0520 00 0 00017         ZET     XYZFL
      00013  0771 00 0 00022         ARS     18
      00014 -0320 00 0 00220         ANA     =O177
      00015  0774 00 1 00000  XR1    AXT     **,1
      00016  0020 00 4 00002         TRA     2,4
                              *
      00017  0 00000 0 00000  XYZFL  PZE
                              *
                              T      MACRO   X,Y
                                     VFD     O18/X,O18/Y
                                     END
                              *
                       00020  TABLE  EQU     *
      00020                          T       060,057       0 NUL
      00021                          T       061,057       1 SOH
      00022                          T       062,057       2 STX
      00023                          T       063,057       3 ETX
      00024                          T       064,057       4 EOT
      00025                          T       065,057       5 ENQ
      00026                          T       066,057       6 ACK
      00027                          T       067,113       7 BEL
      00030                          T       070,135       8 BS
      00031                          T       071,072       9 HT
      00032                          T       000,055       NUL NL
      00033                          T       075,172       EQUALS VT
      00034                          T       047,052       ACUTE FF
      00035                          T       000,136       NUL CR
      00036                          T       000,133       NUL SO
      00037                          T       000,132       NUL SI
      00040                          T       053,057       PLUS DLE
1            CHARACTER CONVERSION ROUTINE                                        02/05/69 1711.4 PAGE 2

      00041                          T       101,057       A RHT
      00042                          T       102,110       B HLF
      00043                          T       103,057       C CS
      00044                          T       104,111       D HLR
      00045                          T       105,057       E NAK
      00046                          T       106,057       F SYN
      00047                          T       107,057       G ETB
      00050                          T       110,057       H CAN
      00051                          T       111,057       I EM
      00052                          T       000,057       NUL SS
      00053                          T       056,057       PERIOD ESC
      00054                          T       051,057       CLOSE PAREN FS
      00055                          T       072,057       COLON GS
      00056                          T       000,057       NUL RS
      00057                          T       000,057       NUL US
      00060                          T       055,060       MINUS SPACE
      00061                          T       112,114       J EXCLAM PT
      00062                          T       113,137       K QUOTE
      00063                          T       114,104       L NR SIGN
      00064                          T       115,053       M DOLLAR SIGN
      00065                          T       116,105       N PERCENT
      00066                          T       117,120       O AMPERSAND
      00067                          T       120,014       P ACUTE
      00070                          T       121,074       Q OPEN PAREN
      00071                          T       122,034       R CLOSE PAREN
      00072                          T       014,054       FF STAR
      00073                          T       044,020       DOLLARS PLUS
      00074                          T       052,073       STAR COMMA
      00075                          T       012,040       NL DASH
      00076                          T       000,033       NUL PERIOD
      00077                          T       000,061       NUL SLASH
      00100                          T       040,000       BLANK 0
      00101                          T       057,001       SLASH 1
      00102                          T       123,002       S 2
      00103                          T       124,003       T 3
      00104                          T       125,004       U 4
      00105                          T       126,005       V 5
      00106                          T       127,006       W 6
      00107                          T       130,007       X 7
      00110                          T       131,010       Y 8
      00111                          T       132,011       Z 9
      00112                          T       011,035       TAB COLON
      00113                          T       054,103       COMMA SEMICOLON
      00114                          T       050,152       OPEN PAREN LESS THAN
      00115                          T       000,013       NUL EQUALS
      00116                          T       000,155       NUL GREATER THAN
      00117                          T       000,156       NUL QUESTION
      00120                          T       174,106       VERTICAL BAR AT SIGN PR(1966)ASCII
      00121                          T       135,021       CLOSE BRACKET A
      00122                          T       134,022       LSLANT B PR(1966)ASCII
      00123                          T       073,023       SEMICOLON C
      00124                          T       043,024       NR SIGN D
      00125                          T       045,025       PERCENT E PR(1966)ASCII
      00126                          T       100,026       AT F PR(1966)ASCII
      00127                          T       000,027       LINE FEED G
      00130                          T       022,030       HLF H
1            CHARACTER CONVERSION ROUTINE                                        02/05/69 1711.4 PAGE 3

      00131                          T       024,031       HLR I
      00132                          T       136,041       CIRCUMFLEX J
      00133                          T       007,042       BELL K
      00134                          T       041,043       EXCLAM L
      00135                          T       000,044       WRU M
      00136                          T       000,045       HANG UP N
      00137                          T       000,046       PR OFF O
      00140                          T       046,047       AMPERSAND P
      00141                          T       141,050       A Q
      00142                          T       142,051       B R
      00143                          T       143,062       C S
      00144                          T       144,063       D T
      00145                          T       145,064       E U
      00146                          T       146,065       F V
      00147                          T       147,066       G W
      00150                          T       150,067       H X
      00151                          T       151,070       I Y
      00152                          T       017,071       BLACK Z
      00153                          T       016,153       RED OPEN BRA
      00154                          T       176,102       OVERLINE/TILDE LSLANT PR(1966)ASCII
      00155                          T       010,101       BS CLOSE BRA
      00156                          T       015,112       CRLF::// CIRCUMFLEX PR(1966)ASCII
      00157                          T       042,140       QUOTE UNDERLINE
      00160                          T       137,160       UNDERLINE GRAVE PR(1966)ASCII
      00161                          T       152,121       J A
      00162                          T       153,122       K B
      00163                          T       154,123       L C
      00164                          T       155,124       M D
      00165                          T       156,125       N E
      00166                          T       157,126       O F
      00167                          T       160,127       P G
      00170                          T       161,130       Q G
      00171                          T       162,131       R I
      00172                          T       074,141       LESS THAN J
      00173                          T       133,142       OPEN BRA K
      00174                          T       000,143       PREFIX L
      00175                          T       076,144       GREATER THAN M
      00176                          T       077,145       QUESTION N
      00177                          T       000,146       NULL O
      00200                          T       140,147       GRAVE ACCENT P PR(1966)ASCII
      00201                          T       000,150       LK Q
      00202                          T       163,151       S R
      00203                          T       164,162       T S
      00204                          T       165,163       U T
      00205                          T       166,164       V U
      00206                          T       167,165       W V
      00207                          T       170,166       X W
      00210                          T       171,167       Y X
      00211                          T       172,170       Z Y
      00212                          T       013,171       VT Z
      00213                          T       173,173       OPEN BRACE OPEN BRACE
      00214                          T       175,100       CLOSE BRACE VERTICAL BAR PR(1966)ASCII
      00215                          T       000,174       PR ON CLOSE BRACE
      00216                          T       000,134       ULK OVERLINE/TILDE PR(1966)ASCII
      00217                          T       000,057       ALT MODE DEL
                              *
1            CHARACTER CONVERSION ROUTINE                                        02/05/69 1711.4 PAGE 4

                                     END

        LITERALS
      00220  000000000177
1            CHARACTER CONVERSION ROUTINE                                        02/05/69 1711.4 PAGE 1
                        POST PROCESSOR ASSEMBLY DATA

        221 IS THE FIRST LOCATION NOT USED BY THIS PROGRAM

0REFERENCES TO DEFINED SYMBOLS
         15    XR1     5
         20  TABLE    11,   20
         17  XYZFL     2,    4,   12
          4 ASCTSS     0
          2 TSSASC     0

0 NO ERROR IN ABOVE ASSEMBLY.
1            EXECUTE PNTLIN.(A,N)   PRINTS AS 84A1                               02/05/69 1711.7 PAGE 1

                       00003         ENTRY   PNTLIN

        TRANSFER VECTOR
      00000  665126436721     WRFLXA

            LINKAGE DIRECTOR
      00001  000000000000
      00002  474563433145

      00003  0634 00 4 00060  PNTLIN SXA     XR,4
      00004  0634 00 1 00061         SXA     XR+1,1
      00005  0634 00 2 00062         SXA     XR+2,2
      00006 -0500 00 4 00001         CAL     1,4
      00007  0621 00 0 00021         STA     A
      00010 -0500 60 4 00002         CAL*    2,4
      00011  0734 00 1 00000         PAX     ,1
      00012 -0634 00 1 00020         SXD     TXH,1
      00013  0774 00 1 00000         AXT     0,1
      00014  0774 00 2 00034  LOOP   AXT     28,2
      00015  0774 00 4 00003         AXT     3,4
      00016 -0754 00 0 00000         ZAC
      00017  1 00001 1 00020         TXI     *+1,1,1
      00020  3 00000 1 00032  TXH    TXH     OUT,1,**
      00021  0560 00 1 00000  A      LDQ     **,1
      00022 -0773 00 0 00030         RQL     24
      00023 -0763 00 0 00014         LGL     12
      00024  2 00001 4 00017         TIX     *-5,4,1
      00025  0602 00 2 00121         SLW     B+28,2
      00026  2 00001 2 00015         TIX     *-9,2,1
      00027  0774 00 2 00000         AXT     0,2
      00030  0634 00 1 00064         SXA     XR1,1
      00031  0020 00 0 00041         TRA     WRT
      00032  0600 00 0 00064  OUT    STZ     XR1
      00033  3 00005 4 00041         TXH     WRT,4,5
      00034  0560 00 0 00121         LDQ     =O005700570057
      00035 -0763 00 0 00014         LGL     12
      00036  2 00001 4 00035         TIX     *-1,4,1
      00037  0602 00 2 00121         SLW     B+28,2
      00040  1 77777 2 00041         TXI     *+1,2,-1
      00041  0754 00 2 00000  WRT    PXA     ,2
      00042  0737 00 2 00000         PAC     ,2
      00043  1 00034 2 00044         TXI     *+1,2,28
      00044  0774 00 1 00065         AXT     B,1
      00045  0634 00 1 00053  L      SXA     PAR,1
      00046  0774 00 4 00034         AXT     28,4
      00047 -0634 00 4 00053         SXD     PAR,4
      00050  3 00034 2 00052         TXH     *+2,2,28
      00051 -0634 00 2 00053         SXD     PAR,2
      00052  0074 00 4 00000         TSX     $WRFLXA,4
      00053  0 00000 0 00000  PAR
      00054  1 00034 1 00055         TXI     *+1,1,28
      00055  2 00034 2 00045         TIX     L,2,28
      00056  0534 00 1 00064         LXA     XR1,1
      00057  3 00000 1 00014         TXH     LOOP,1,0
      00060  0774 00 4 00000  XR     AXT     ,4
      00061  0774 00 1 00000         AXT     ,1
1            EXECUTE PNTLIN.(A,N)   PRINTS AS 84A1                               02/05/69 1711.7 PAGE 2

      00062  0774 00 2 00000         AXT     ,2
      00063  0020 00 4 00001         TRA     1,4
      00064  0 00000 0 00000  XR1
      00065                   B      BSS     28
                                     END

        LITERALS
      00121  005700570057
1            EXECUTE PNTLIN.(A,N)   PRINTS AS 84A1                               02/05/69 1711.7 PAGE 1
                        POST PROCESSOR ASSEMBLY DATA

        122 IS THE FIRST LOCATION NOT USED BY THIS PROGRAM

0REFERENCES TO DEFINED SYMBOLS
         21      A     7
         65      B    25,   37,   44
         45      L    55
         60     XR     3,    4,    5
         32    OUT    20
         53    PAR    45,   47,   51
         20    TXH    12
         41    WRT    31,   33
         64    XR1    30,   32,   56
         14   LOOP    57
          3 PNTLIN     0
          0 WRFLXA    52

0 NO ERROR IN ABOVE ASSEMBLY.


PERMIT   BCD 09/18/68 2318.4    4865         00000
1     MAD PROGRAM LISTING ... ... ...                 FILE   PERMT   MAD            02/07/68    2207.0
-
                 ..  EMERGENCY PERMIT COMMAND.                                                         LM00001
                 ..  J. H. SALTZER, AUGUST, 1965.                                                      LM00002
                   (MODIFIED BY D. E. OPPERT, SEPT-OCT, 1965)                                          LM00003
                                                                                                       LM00004
                 ..  USAGE . . .                                                                       LM00005
                 ..       PERMIT NAME1 NAME2 MODE PROB PROG                                            LM00006
                                                                                                       LM00007
                  NORMAL MODE IS INTEGER                                                          *001 LM00008
                  DIMENSION VEC(6), BF(432)                                                       *002 LM00009
                  VECTOR VALUES P = $PERMIT$                                                      *003 LM00010
                  VECTOR VALUES F = $  FILE$                                                      *004 LM00011
                  VECTOR VALUES VEC(6) = 777777000005K                                            *005 LM00012
                  VECTOR VALUES FENCE = 777777777777K                                             *006 LM00013
                                                                                                       LM00014
                                                                                                       LM00015
                 ..  CHECK ARGUMENTS.                                                                  LM00016
                 ..                                                                                    LM00017
                  THROUGH GETARG, FOR I = 5, -1, I .L. 1                                          *007 LM00018
                    VEC(I) = COMARG.(6-I)                                                         *008 LM00019
      GETARG        WHENEVER VEC(I) .E. FENCE, TRANSFER TO BADARG                                 *009 LM00020
                  WHENEVER COMARG.(6) .NE. FENCE, TRANSFER TO BADARG                              *010 LM00021
                                                                                                       LM00022
                                                                                                       LM00023
                  FOLLOWING PATCH ALLOWS MODE TO BE EXPRESSED IN LETTERS.                              LM00024
                  I.E., T, S, R, W, V, L, OR P.                                                        LM00025
                                                                                                       LM00026
                  DIMENSION TABLE(6), TBL(6)                                                      *011 LM00027
                  VECTOR VALUES TABLE = $00000T00000S00000R00000W00000V00000L00000P$              *012 LM00028
                  VECTOR VALUES TBL   = 1, 2, 4, 64, 128, 256, 4096                               *013 LM00029
                             T  S  R   W   V    L     P                                                LM00030
                                                                                                       LM00031
                                                                                                       LM00032
                    DETERMINE WHTHR MODE IS NUMERICAL OR ALPHA-CAL                                     LM00033
                                                                                                       LM00034
                  DIMENSION TABL(5)                                                               *014 LM00035
                  VECTOR VALUES TABL = 777777777700K, 777777770077K, 777777007777K                *015 LM00036
                  VECTOR VALUES TABL(3) = 777700777777K, 770077777777K, 007777777777K             *016 LM00037
                                                                                                       LM00038
                                                                                                       LM00039
                  T2 = VEC(3)                                                                     *017 LM00040
                  THROUGH PC, FOR I = 0, 6, I .G. 30                                              *018 LM00041
      PC          WHENEVER((VEC(3).RS.I).A.77K).E.60K,T2=T2.A.TABL(I/6)                           *019 LM00042
                  WHENEVER ( T2 .A. 707070707070K ) .E. 0, TRANSFER TO PB                         *020 LM00043
                                                                                                       LM00044
                  A. H. WHEN MODE IS ALPHA-L                                                           LM00045
                                                                                                       LM00046
                  T2 = 0                                                                          *021 LM00047
                  THROUGH PA, FOR I = 0, 6,  I .G. 30                                             *022 LM00048
                  THROUGH PD, FOR J = 0, 1,  J .G. 6                                              *023 LM00049
      PD          WHENEVER((VEC(3).RS.I).A.77K).E.TABLE(J),TRANSFER TO PE                         *024 LM00050
                  WHENEVER ( (VEC(3) .RS. I) .A. 77K) .E. 60K, TRANSFER TO PA                     *025 LM00051
                                                                                                       LM00052
                  PRINT COMMENT $MODE UNACCEPTABLE$                                               *026 LM00053
                  CHNCOM.(0)                                                                      *027 LM00054
                                                                                                       LM00055
      PE          T2 = T2 .V. TBL(J)                                                              *028 LM00056
      PA          CONTINUE                                                                        *029 LM00057
                                                                                                       LM00058
                  VEC(3) = T2 .V. $   000$                                                        *030 LM00059
                                                                                                       LM00060
                   END OF PATCH                                                                        LM00061
                                                                                                       LM00062
      PB          WHENEVER BCOCT.(VEC(3)) .G. 177K, TRANSFER TO BADARG                            *031 LM00063
                 ..                                                                                    LM00064
                 ..ADD PERMISSION.                                                                     LM00065
                                                                                                       LM00066
                  TEMP = VEC(3)                                                                   *032 LM00067
                  WHENEVER VEC(2) .E. $     *$                                                    *033 LM00068
                    VEC(3) = VEC(2)                                                               *034 LM00069
                  OTHERWISE                                                                       *035 LM00070
                    VEC(3) = REPROB.(VEC(2))                                                      *036 LM00071
                  END OF CONDITIONAL                                                              *037 LM00072
                                                                                                       LM00073
                  VEC(2) = VEC(1)                                                                 *038 LM00074
                  VEC(1) = TEMP                                                                   *039 LM00075
                  OPEN.($W$, P, F, 120K)                                                          *040 LM00076
                                                                                                       LM00077
                   NOTICE THAT PERMT FILE IS                                                           LM00078
                   PRIVATE AND PROTECTED.                                                              LM00079
                                                                                                       LM00080
                  BUFFER.(P, F, BF(432)...432)                                                    *041 LM00081
                  WRFILE.(P, F, 0, VEC(6)...6)                                                    *042 LM00082
                  CLOSE.(P,F)                                                                     *043 LM00083
                  CHNCOM.(0)                                                                      *044 LM00084
                                                                                                       LM00085
      BADARG      PRINT COMMENT $PERMIT NAME1 NAME2 MODE PROBNO PROGNO$                           *045 LM00086
                  CHNCOM.(0)                                                                      *046 LM00087
                                                                                                       LM00088
                  END OF PROGRAM                                                                  *047 LM00089
1MAD PROGRAM,TYPE NOV 1963      (ALL NUMBERS ARE OCTAL)
0TOTAL LOCATIONS   01247 TRANSFER VECTOR LENGTH  00013 PROGRAM BEGINS    00762
0VARIABLE STORAGE (A=ARRAY,C=COMMON,E=ERASABLE,DIGIT=MODE)
      BADARG 00014   4        GETARG 00013   4        PB     00016   4        P      00705 A 1        TBL    00732 A 1
      BF     00700 A 1        I      00703   1        PC     00013   4        T2     00706   1        TEMP   00733   1
      FENCE  00701 A 1        J      00704   1        PD     00013   4        TABLE  00715 A 1        VEC    00742 A 1
      F      00702 A 1        PA     00015   4        PE     00017   4        TABL   00723 A 1
0FUNCTION DICTIONARY
      BCOCT  00000   1        BUFFER 00001   1        CHNCOM 00002   1        CLOSE  00003   1        COMARG 00004   1
      EXIT   00005   1        .PCOMT 00006   1        .SETUP 00007   1        OPEN   00010   1        REPROB 00011   1
      WRFILE 00012   1
0ABSOLUTE CONSTANTS
 00754 +000000000660     00752 +000000000120     00760 -266060606060     00757 -206060606054     00753 +000000000177
 00756 -206060000000     00761 -307070707070     00750 +000000000060     00751 +000000000077     00747 +000000000036
 00743 +000000000000     00746 +000000000006     00745 +000000000005     00744 +000000000001     00755 +233000000000
0STATEMENT DICTIONARY
 00014 TXL -301241001230       00015 TXL -301155001154       00016 TXL -301166001160       00017 TXL -301154001150
0PROGRAM
                 NORMAL MODE IS INTEGER                                             001  LM00008
                 DIMENSION VEC(6), BF(432)                                          002  LM00009
                 VECTOR VALUES P = $PERMIT$                                         003  LM00010
 00762 TSX +0 07400 4 00007    00705     -0 72551 4 43163
                 VECTOR VALUES F = $  FILE$                                         004  LM00011
 00702     -2 06026 3 14325
                 VECTOR VALUES VEC(6) = 777777000005K                               005  LM00012
 00734     -3 77777 0 00005
                 VECTOR VALUES FENCE = 777777777777K                                006  LM00013
 00701     -3 77777 7 77777
                 THROUGH GETARG, FOR I = 5, -1, I .L. 1                             007  LM00018
 00763 CLA +0 50000 0 00745    00764 STO +0 60100 0 00703    00765 TRA +0 02000 0 00771    00766 CLS +0 50200 0 00744
 00767 ADD +0 40000 0 00703    00770 STO +0 60100 0 00703    00771 CLA +0 50000 0 00703    00772 SUB +0 40200 0 00744
 00773 TZE +0 10000 0 00775    00774 TMI -0 12000 0 01012
                   VEC(I) = COMARG.(6-I)                                            008  LM00019
 00775 CLA +0 50000 0 00746    00776 SUB +0 40200 0 00703    00777 STO +0 60100 0 01244    01000 TSX +0 07400 4 00004
 01001 TXH +3 00000 0 01244    01002 LXA +0 53400 1 00703    01003 STO +0 60100 1 00742
      GETARG       WHENEVER VEC(I) .E. FENCE, TRANSFER TO BADARG                    009  LM00020
 01004 LXA +0 53400 1 00703    01005 CLA +0 50000 1 00742    01006 SUB +0 40200 0 00701    01007 TNZ -0 10000 0 01011
 01010 TRA +0 02000 0 00014    01011 TRA +0 02000 0 00766
                 WHENEVER COMARG.(6) .NE. FENCE, TRANSFER TO BADARG                 010  LM00021
 01012 TSX +0 07400 4 00004    01013 TXH +3 00000 0 00746    01014 SUB +0 40200 0 00701    01015 TZE +0 10000 0 01017
 01016 TRA +0 02000 0 00014
                 D'N TABLE(6), TBL(6)                                               011  LM00027
                 V'S TABLE = $00000T00000S00000R00000W00000V00000L00000P$           012  LM00028
 00707     +0 00000 0 00047    00710     +0 00000 0 00043    00711     +0 00000 0 00065    00712     +0 00000 0 00066
 00713     +0 00000 0 00051    00714     +0 00000 0 00062    00715     +0 00000 0 00063
                 V'S TBL   = 1, 2, 4, 64, 128, 256, 4096                            013  LM00029
 00724     +0 00000 0 10000    00725     +0 00000 0 00400    00726     +0 00000 0 00200    00727     +0 00000 0 00100
 00730     +0 00000 0 00004    00731     +0 00000 0 00002    00732     +0 00000 0 00001
                 D'N TABL(5)                                                        014  LM00035
                 V'S TABL = 777777777700K, 777777770077K, 777777007777K             015  LM00036
 00721     -3 77777 0 07777    00722     -3 77777 7 70077    00723     -3 77777 7 77700
                 V'S TABL(3) = 777700777777K, 770077777777K, 007777777777K          016  LM00037
 00716     +0 07777 7 77777    00717     -3 70077 7 77777    00720     -3 77700 7 77777
                 T2 = VEC(3)                                                        017  LM00040
 01017 CLA +0 50000 0 00737    01020 STO +0 60100 0 00706
                 T'H PC, FOR I = 0, 6, I .G. 30                                     018  LM00041
 01021 CLA +0 50000 0 00743    01022 STO +0 60100 0 00703    01023 TRA +0 02000 0 01027    01024 CLA +0 50000 0 00703
 01025 ADD +0 40000 0 00746    01026 STO +0 60100 0 00703    01027 CLA +0 50000 0 00703    01030 SUB +0 40200 0 00747
 01031 TZE +0 10000 0 01033    01032 TPL +0 12000 0 01056
      PC         W'R((VEC(3).RS.I).A.77K).E.60K,T2=T2.A.TABL(I/6)                   019  LM00042
 01033 CAL -0 50000 0 00703    01034 STA +0 62100 0 01036    01035 CAL -0 50000 0 00737    01036 LGR -0 76500 0 00000
 01037 ANA -0 32000 0 00751    01040 SLW +0 60200 0 01244    01041 CLA +0 50000 0 01244    01042 SUB +0 40200 0 00750
 01043 TNZ -0 10000 0 01055    01044 LDQ +0 56000 0 00703    01045 PXD -0 75400 0 00000    01046 LLS +0 76300 0 00000
 01047 DVP +0 22100 0 00746    01050 XCA +0 13100 0 00000    01051 PAX +0 73400 2 00000    01052 CAL -0 50000 0 00706
 01053 ANA -0 32000 2 00723    01054 SLW +0 60200 0 00706    01055 TRA +0 02000 0 01024
                 W'R ( T2 .A. 707070707070K ) .E. 0, T'O PB                         020  LM00043
 01056 CAL -0 50000 0 00706    01057 ANA -0 32000 0 00761    01060 SLW +0 60200 0 01244    01061 CLA +0 50000 0 01244
 01062 SUB +0 40200 0 00743    01063 TNZ -0 10000 0 01065    01064 TRA +0 02000 0 00016
                 T2 = 0                                                             021  LM00047
 01065 CLA +0 50000 0 00743    01066 STO +0 60100 0 00706
                 T'H PA, FOR I = 0, 6,  I .G. 30                                    022  LM00048
 01067 CLA +0 50000 0 00743    01070 STO +0 60100 0 00703    01071 TRA +0 02000 0 01075    01072 CLA +0 50000 0 00703
 01073 ADD +0 40000 0 00746    01074 STO +0 60100 0 00703    01075 CLA +0 50000 0 00703    01076 SUB +0 40200 0 00747
 01077 TZE +0 10000 0 01101    01100 TPL +0 12000 0 01155
                 T'H PD, FOR J = 0, 1,  J .G. 6                                     023  LM00049
 01101 CLA +0 50000 0 00743    01102 STO +0 60100 0 00704    01103 TRA +0 02000 0 01107    01104 CLA +0 50000 0 00704
 01105 ADD +0 40000 0 00744    01106 STO +0 60100 0 00704    01107 CLA +0 50000 0 00704    01110 SUB +0 40200 0 00746
 01111 TZE +0 10000 0 01113    01112 TPL +0 12000 0 01127
      PD         W'R((VEC(3).RS.I).A.77K).E.TABLE(J),T'O PE                         024  LM00050
 01113 CAL -0 50000 0 00703    01114 STA +0 62100 0 01116    01115 CAL -0 50000 0 00737    01116 LGR -0 76500 0 00000
 01117 ANA -0 32000 0 00751    01120 LXA +0 53400 2 00704    01121 SLW +0 60200 0 01244    01122 CLA +0 50000 0 01244
 01123 SUB +0 40200 2 00715    01124 TNZ -0 10000 0 01126    01125 TRA +0 02000 0 00017    01126 TRA +0 02000 0 01104
                 W'R ( (VEC(3) .RS. I) .A. 77K) .E. 60K, T'O PA                     025  LM00051
 01127 CAL -0 50000 0 00703    01130 STA +0 62100 0 01132    01131 CAL -0 50000 0 00737    01132 LGR -0 76500 0 00000
 01133 ANA -0 32000 0 00751    01134 SLW +0 60200 0 01244    01135 CLA +0 50000 0 01244    01136 SUB +0 40200 0 00750
 01137 TNZ -0 10000 0 01141    01140 TRA +0 02000 0 00015
                 PRINT COMMENT $MODE UNACCEPTABLE$                                  026  LM00053
 01141 TSX +0 07400 4 00006    01142     +0 00000 0 00003    01143     -0 44624 2 56064    01144     -0 52123 2 32547
 01145     -2 32122 4 32560
                 CHNCOM.(0)                                                         027  LM00054
 01146 TSX +0 07400 4 00002    01147 TXH +3 00000 0 00743
      PE         T2 = T2 .V. TBL(J)                                                 028  LM00056
 01150 LXA +0 53400 2 00704    01151 CAL -0 50000 0 00706    01152 ORA -0 50100 2 00732    01153 SLW +0 60200 0 00706
      PA         CONTINUE                                                           029  LM00057
 01154 TRA +0 02000 0 01072
                 VEC(3) = T2 .V. $   000$                                           030  LM00059
 01155 CAL -0 50000 0 00706    01156 ORA -0 50100 0 00756    01157 SLW +0 60200 0 00737
      PB         WHENEVER BCOCT.(VEC(3)) .G. 177K, TRANSFER TO BADARG               031  LM00063
 01160 TSX +0 07400 4 00000    01161 TXH +3 00000 0 00737    01162 SUB +0 40200 0 00753    01163 TZE +0 10000 0 01166
 01164 TMI -0 12000 0 01166    01165 TRA +0 02000 0 00014
                 TEMP = VEC(3)                                                      032  LM00067
 01166 CLA +0 50000 0 00737    01167 STO +0 60100 0 00733
                 WHENEVER VEC(2) .E. $     *$                                       033  LM00068
 01170 CLA +0 50000 0 00740    01171 SUB +0 40200 0 00757    01172 TNZ -0 10000 0 01176
                   VEC(3) = VEC(2)                                                  034  LM00069
 01173 CLA +0 50000 0 00740    01174 STO +0 60100 0 00737
                 OTHERWISE                                                          035  LM00070
 01175 TRA +0 02000 0 01201
                   VEC(3) = REPROB.(VEC(2))                                         036  LM00071
 01176 TSX +0 07400 4 00011    01177 TXH +3 00000 0 00740    01200 STO +0 60100 0 00737
                 END OF CONDITIONAL                                                 037  LM00072
                 VEC(2) = VEC(1)                                                    038  LM00074
 01201 CLA +0 50000 0 00741    01202 STO +0 60100 0 00740
                 VEC(1) = TEMP                                                      039  LM00075
 01203 CLA +0 50000 0 00733    01204 STO +0 60100 0 00741
                 OPEN.($W$, P, F, 120K)                                             040  LM00076
 01205 TSX +0 07400 4 00010    01206 TXH +3 00000 0 00760    01207 TXH +3 00000 0 00705    01210 TXH +3 00000 0 00702
 01211 TXH +3 00000 0 00752
                 BUFFER.(P, F, BF(432)...432)                                       041  LM00081
 01212 TSX +0 07400 4 00001    01213 TXH +3 00000 0 00705    01214 TXH +3 00000 0 00702    01215 TIX +2 00754 0 00020
                 WRFILE.(P, F, 0, VEC(6)...6)                                       042  LM00082
 01216 TSX +0 07400 4 00012    01217 TXH +3 00000 0 00705    01220 TXH +3 00000 0 00702    01221 TXH +3 00000 0 00743
 01222 TIX +2 00746 0 00734
                 CLOSE.(P,F)                                                        043  LM00083
 01223 TSX +0 07400 4 00003    01224 TXH +3 00000 0 00705    01225 TXH +3 00000 0 00702
                 CHNCOM.(0)                                                         044  LM00084
 01226 TSX +0 07400 4 00002    01227 TXH +3 00000 0 00743
      BADARG     PRINT COMMENT $PERMIT NAME1 NAME2 MODE PROBNO PROGNO$              045  LM00086
 01230 TSX +0 07400 4 00006    01231     +0 00000 0 00007    01232     -0 72551 4 43163    01233     -2 04521 4 42501
 01234     -2 04521 4 42502    01235     -2 04446 2 42560    01236     -0 75146 2 24546    01237     -2 04751 4 62745
 01240     -0 66060 6 06060
                 CHNCOM.(0)                                                         046  LM00087
 01241 TSX +0 07400 4 00002    01242 TXH +3 00000 0 00743
                 END OF PROGRAM                                                     047  LM00089
 01243 TSX +0 07400 4 00005
1                                                                                                PAGE 1
                           FILE NAME -- REPRB FAP


                              *
                       00002         ENTRY   REPROB        REFORMAT PROBLEM NUMBER.
                              *      J.H. SALTZER
                              *      (MAINTAINED BY D.E. OPPERT)
                              *      (SEPT - OCT, 1965)
                              *
                              *

            LINKAGE DIRECTOR
      00000  000000000000
      00001  512547514622

      00002  0560 60 4 00001  REPROB LDQ*    1,4           GET PROBLEM NUMBER WITH LEADING BLANKS.
      00003  0774 00 1 00000         AXT     0,1           COUNT BLANKS.
      00004 -0754 00 0 00000  LP     ZAC                   CLEAR FOR COMPARISON.
      00005 -0763 00 0 00006         LGL     6             GET NEXT CHARACTER.
      00006 -0340 00 0 00024         LAS     =H00000       COMPARE WITH ONE BLANK.
      00007  0020 00 0 00011         TRA     FND           NOT BLANK, GO.
      00010  1 00001 1 00004         TXI     LP,1,1        YES, COUNT IT.
      00011 -0501 00 0 00025  FND    ORA     =H0000 0      NON-BLANK FOUND, ADD PRECEDING BLANK.
      00012 -2 00001 1 00015  LOOP   TNX     DONE,1,1      SEE HOW MANY ZEROS TO ADD.
      00013  0767 00 0 00006         ALS     6             MOVE IN A ZERO.
      00014  0020 00 0 00012         TRA     LOOP
      00015  0140 00 0 00016  DONE   TOV     *+1           TURN OFF OVERFLOW INDICATOR.
      00016 -0763 00 0 00006         LGL     6
      00017 -0140 00 0 00016         TNO     *-1           ..
      00020  0602 00 0 00023         SLW     TEMP
      00021  0500 00 0 00023         CLA     TEMP
      00022  0020 00 4 00001         TRA     1,4           RETURN TO MAD PROGRAM
      00023  0 00000 0 00000  TEMP                         TEMPORARY STORAGE FOR RESULT.
                                     END

        LITERALS
      00024  000000000060
      00025  000000006000
1                                                                                                PAGE 1
                        POST PROCESSOR ASSEMBLY DATA

         26 IS THE FIRST LOCATION NOT USED BY THIS PROGRAM

0REFERENCES TO DEFINED SYMBOLS
          4     LP    10
         11    FND     7
         15   DONE    12
         12   LOOP    14
         23   TEMP    20,   21
          2 REPROB     0

0 NO ERROR IN ABOVE ASSEMBLY.


 PINFO   BCD 05/12/69 2020.2    3914         00000
1     MAD PROGRAM LISTING ... ... ...                 FILE   PINFO   MAD            03/18/69    1456.5
-
                  PINFO COMMAND - PETER R. BOS  11/67                                                  LM00001
                                                                                                       LM00002
                  USAGE...                                                                             LM00003
                     PINFO NAME1 -NAME2-                                                               LM00004
                  PINFO WILL SWITCH TO THE PUBLIC FILE AND PRINT                                       LM00005
                  FILE NAME1 NAME2. DEFAULT FOR NAME2 IS 'INFO'.                                       LM00006
                                                                                                       LM00007
                  NORMAL MODE IS INTEGER                                                          *001 LM00008
                  DIMENSION BUF1(0), BUF2(0), LINE(15)                                            *002 LM00009
                  VECTOR VALUES FNS=777777777777K                                                 *003 LM00010
                                                                                                       LM00011
                  DEFINE UNARY OPERATOR .CAL., PRECEDENCE SAME AS =                               *004 LM00012
                  MODE STRUCTURE .CAL.1 TO 1                                                      *005 LM00013
             CAL      B                                                                           *006 LM00014
             OUT      LAC                                                                         *007 LM00015
             END                                                                                  *008 LM00016
                  DEFINE UNARY OPERATOR .LDQ., PRECEDENCE SAME AS =                               *009 LM00017
                  MODE STRUCTURE .LDQ.1 TO 1                                                      *010 LM00018
             LDQ      B                                                                           *011 LM00019
             OUT      MQ                                                                          *012 LM00020
             END                                                                                  *013 LM00021
                                                                                                       LM00022
                  SETBRK.(CHN)                                                                    *014 LM00023
                  NM1=COMARG.(1)                                                                  *015 LM00024
                  WHENEVER NM1.E.FNS                                                              *016 LM00025
                    PRINT COMMENT $'PINFO' NAME1 -NAME2-$                                         *017 LM00026
                    PRINT COMMENT $IF NAME2 OMITTED, INFO ASSUMED$                                *018 LM00027
                    CHNCOM.(0)                                                                    *019 LM00028
                  END OF CONDITIONAL                                                              *020 LM00029
                  TMP=COMARG.(2)                                                                  *021 LM00030
                  WHENEVER TMP.NE.FNS, NM2=TMP                                                    *022 LM00031
                  VECTOR VALUES NM2=$  INFO$                                                      *023 LM00032
                                                                                                       LM00033
                  TSSFIL.                                                                         *024 LM00034
                  GETBUF.(BUF1,431)                                                               *025 LM00035
                  GETBUF.(BUF2,431)                                                               *026 LM00036
                  BFOPEN.($R$,NM1,NM2,BUF1(BUF1+431),BUF2(BUF2+431),-0,ERR)                       *027 LM00037
                  BFREAD.(NM1,NM2,LMARK...1,EOF,TMP,ERR)                                          *028 LM00038
                  WHENEVER LMARK.A.777777K6.E.777777K6, TRANSFER TO RDLINE                        *029 LM00039
                  LINE(14)=LMARK                                                                  *030 LM00040
                  BFREAD.(NM1,NM2,LINE(13)...13,EOF,TMP,ERR)                                      *031 LM00041
                  TRANSFER TO PCARD                                                               *032 LM00042
                                                                                                       LM00043
      RDCARD      BFREAD.(NM1,NM2,LINE(14)...14,EOF,TMP,ERR)                                      *033 LM00044
      PCARD       WRFX.(LINE(14)...12)                                                            *034 LM00045
                  TRANSFER TO RDCARD                                                              *035 LM00046
      RDLM        BFREAD.(NM1,NM2,LMARK...1,EOF,TMP,ERR)                                          *036 LM00047
                  WHENEVER LMARK.A.777777K6.NE.777777K6, TRANSFER TO RDLM                         *037 LM00048
      RDLINE      LMARK=LMARK.A.17K                                                               *038 LM00049
                  BFREAD.(NM1,NM2,LINE(LMARK)...LMARK,EOF,TMP,ERR)                                *039 LM00050
                  WRFX.(LINE(LMARK)...LMARK)                                                      *040 LM00051
                  TRANSFER TO RDLM                                                                *041 LM00052
                                                                                                       LM00053
      EOF         BFCLOS.(NM1,NM2,ERR)                                                            *042 LM00054
      CHN         USRFIL.                                                                         *043 LM00055
                  CHNCOM.(0)                                                                      *044 LM00056
                                                                                                       LM00057
      ERR         .CAL.$PRNTER$                                                                   *045 LM00058
                  .LDQ.400000000071K                                                              *046 LM00059
                  NEXCOM.                                                                         *047 LM00060
                                                                                                       LM00061
                  END OF PROGRAM                                                                  *048 LM00062
                                         MODE STRUCTURE .CAL.1 TO 1           005  LM00013
 (THE NUMERIC FORM OF THE OPERATOR-MODE ARGUMENT IS    11101 )
                                         MODE STRUCTURE .LDQ.1 TO 1           010  LM00018
 (THE NUMERIC FORM OF THE OPERATOR-MODE ARGUMENT IS    11201 )
1MAD PROGRAM,TYPE NOV 1963      (ALL NUMBERS ARE OCTAL)
0TOTAL LOCATIONS   00310 TRANSFER VECTOR LENGTH  00016 PROGRAM BEGINS    00072
0VARIABLE STORAGE (A=ARRAY,C=COMMON,E=ERASABLE,DIGIT=MODE)
      BUF1   00026 A 1        EOF    00020   4        LINE   00050 A 1        NM2    00053 A 1        RDLINE 00024   4
      BUF2   00027 A 1        ERR    00021   4        LMARK  00051   1        PCARD  00022   4        RDLM   00025   4
      CHN    00017   4        FNS    00030 A 1        NM1    00052   1        RDCARD 00023   4        TMP    00054   1
0FUNCTION DICTIONARY
      BFCLOS 00000   1        BFOPEN 00001   1        BFREAD 00002   1        CHNCOM 00003   1        COMARG 00004   1
      EXIT   00005   1        GETBUF 00006   1        .PCOMT 00007   1        .SETUP 00010   1        NEXCOM 00011   1
      SETBRK 00012   1        TSSFIL 00013   1        USRFIL 00014   1        WRFX   00015   1
0ABSOLUTE CONSTANTS
 00066 -000000000071     00067 -075145632551     00063 +000000000017     00060 +000000000014     00062 +000000000016
 00061 +000000000015     00071 -377777000000     00070 -116060606060     00064 +000000000657     00057 +000000000002
 00055 +000000000000     00056 +000000000001     00065 +233000000000
0STATEMENT DICTIONARY
 00017 TXL -300277000276       00020 TXL -300276000272       00021 TXL -300302000301       00022 TXL -300226000224
 00023 TXL -300224000215       00024 TXL -300250000245       00025 TXL -300236000227
0PROGRAM
                 N'S INTEGER                                                        001  LM00008
                 D'N BUF1(0), BUF2(0), LINE(15)                                     002  LM00009
                 V'S FNS=777777777777K                                              003  LM00010
 00072 TSX +0 07400 4 00010    00030     -3 77777 7 77777
                 DEFINE UNARY OPERATOR .CAL., PRECEDENCE SAME AS =                  004  LM00012
                 MODE STRUCTURE .CAL.1 TO 1                                         005  LM00013
                 DEFINE UNARY OPERATOR .LDQ., PRECEDENCE SAME AS =                  009  LM00017
                 MODE STRUCTURE .LDQ.1 TO 1                                         010  LM00018
                 SETBRK.(CHN)                                                       014  LM00023
 00073 TSX +0 07400 4 00012    00074 TXH +3 00000 0 00017
                 NM1=COMARG.(1)                                                     015  LM00024
 00075 TSX +0 07400 4 00004    00076 TXH +3 00000 0 00056    00077 STO +0 60100 0 00052
                 W'R NM1.E.FNS                                                      016  LM00025
 00100 CLA +0 50000 0 00052    00101 SUB +0 40200 0 00030    00102 TNZ -0 10000 0 00122
                   PRINT COMMENT $'PINFO' NAME1 -NAME2-$                            017  LM00026
 00103 TSX +0 07400 4 00007    00104     +0 00000 0 00004    00105     +1 44731 4 52646    00106     +1 46045 2 14425
 00107     +0 16040 4 52144    00110     +2 50240 6 06060
                   PRINT COMMENT $IF NAME2 OMITTED, INFO ASSUMED$                   018  LM00027
 00111 TSX +0 07400 4 00007    00112     +0 00000 0 00005    00113     +3 12660 4 52144    00114     +2 50260 4 64431
 00115     -2 36325 2 47360    00116     +3 14526 4 66021    00117     -2 26264 4 42524
                   CHNCOM.(0)                                                       019  LM00028
 00120 TSX +0 07400 4 00003    00121 TXH +3 00000 0 00055
                 E'L                                                                020  LM00029
                 TMP=COMARG.(2)                                                     021  LM00030
 00122 TSX +0 07400 4 00004    00123 TXH +3 00000 0 00057    00124 STO +0 60100 0 00054
                 W'R TMP.NE.FNS, NM2=TMP                                            022  LM00031
 00125 CLA +0 50000 0 00054    00126 SUB +0 40200 0 00030    00127 TZE +0 10000 0 00132    00130 CLA +0 50000 0 00054
 00131 STO +0 60100 0 00053
                 V'S NM2=$  INFO$                                                   023  LM00032
 00053     -2 06031 4 52646
                 TSSFIL.                                                            024  LM00034
 00132 TSX +0 07400 4 00013
                 GETBUF.(BUF1,431)                                                  025  LM00035
 00133 TSX +0 07400 4 00006    00134 TXH +3 00000 0 00026    00135 TXH +3 00000 0 00064
                 GETBUF.(BUF2,431)                                                  026  LM00036
 00136 TSX +0 07400 4 00006    00137 TXH +3 00000 0 00027    00140 TXH +3 00000 0 00064
                 BFOPEN.($R$,NM1,NM2,BUF1(BUF1+431),BUF2(BUF2+431),-0,ERR)          027  LM00037
 00141 CLS +0 50200 0 00055    00142 STO +0 60100 0 00305    00143 CLA +0 50000 0 00027    00144 ADD +0 40000 0 00064
 00145 SUB +0 40200 0 00146    00146 TXH +3 00000 0 00027    00147 STA +0 62100 0 00162    00150 CLA +0 50000 0 00026
 00151 ADD +0 40000 0 00064    00152 SUB +0 40200 0 00153    00153 TXH +3 00000 0 00026    00154 STA +0 62100 0 00161
 00155 TSX +0 07400 4 00001    00156 TXH +3 00000 0 00070    00157 TXH +3 00000 0 00052    00160 TXH +3 00000 0 00053
 00161 TXH +3 00000 0 00000    00162 TXH +3 00000 0 00000    00163 TXH +3 00000 0 00305    00164 TXH +3 00000 0 00021
                 BFREAD.(NM1,NM2,LMARK...1,EOF,TMP,ERR)                             028  LM00038
 00165 TSX +0 07400 4 00002    00166 TXH +3 00000 0 00052    00167 TXH +3 00000 0 00053    00170 TIX +2 00056 0 00051
 00171 TXH +3 00000 0 00020    00172 TXH +3 00000 0 00054    00173 TXH +3 00000 0 00021
                 W'R LMARK.A.777777K6.E.777777K6, T'O RDLINE                        029  LM00039
 00174 CAL -0 50000 0 00051    00175 ANA -0 32000 0 00071    00176 SLW +0 60200 0 00305    00177 CLA +0 50000 0 00305
 00200 SUB +0 40200 0 00071    00201 TNZ -0 10000 0 00203    00202 TRA +0 02000 0 00024
                 LINE(14)=LMARK                                                     030  LM00040
 00203 CLA +0 50000 0 00051    00204 STO +0 60100 0 00032
                 BFREAD.(NM1,NM2,LINE(13)...13,EOF,TMP,ERR)                         031  LM00041
 00205 TSX +0 07400 4 00002    00206 TXH +3 00000 0 00052    00207 TXH +3 00000 0 00053    00210 TIX +2 00061 0 00033
 00211 TXH +3 00000 0 00020    00212 TXH +3 00000 0 00054    00213 TXH +3 00000 0 00021
                 T'O PCARD                                                          032  LM00042
 00214 TRA +0 02000 0 00022
      RDCARD     BFREAD.(NM1,NM2,LINE(14)...14,EOF,TMP,ERR)                         033  LM00044
 00215 TSX +0 07400 4 00002    00216 TXH +3 00000 0 00052    00217 TXH +3 00000 0 00053    00220 TIX +2 00062 0 00032
 00221 TXH +3 00000 0 00020    00222 TXH +3 00000 0 00054    00223 TXH +3 00000 0 00021
      PCARD      WRFX.(LINE(14)...12)                                               034  LM00045
 00224 TSX +0 07400 4 00015    00225 TIX +2 00060 0 00032
                 T'O RDCARD                                                         035  LM00046
 00226 TRA +0 02000 0 00023
      RDLM       BFREAD.(NM1,NM2,LMARK...1,EOF,TMP,ERR)                             036  LM00047
 00227 TSX +0 07400 4 00002    00230 TXH +3 00000 0 00052    00231 TXH +3 00000 0 00053    00232 TIX +2 00056 0 00051
 00233 TXH +3 00000 0 00020    00234 TXH +3 00000 0 00054    00235 TXH +3 00000 0 00021
                 W'R LMARK.A.777777K6.NE.777777K6, T'O RDLM                         037  LM00048
 00236 CAL -0 50000 0 00051    00237 ANA -0 32000 0 00071    00240 SLW +0 60200 0 00305    00241 CLA +0 50000 0 00305
 00242 SUB +0 40200 0 00071    00243 TZE +0 10000 0 00245    00244 TRA +0 02000 0 00025
      RDLINE     LMARK=LMARK.A.17K                                                  038  LM00049
 00245 CAL -0 50000 0 00051    00246 ANA -0 32000 0 00063    00247 SLW +0 60200 0 00051
                 BFREAD.(NM1,NM2,LINE(LMARK)...LMARK,EOF,TMP,ERR)                   039  LM00050
 00250 CLA +0 50000 0 00051    00251 SUB +0 40200 0 00252    00252 TXH +3 00000 0 00050    00253 STA +0 62100 0 00257
 00254 TSX +0 07400 4 00002    00255 TXH +3 00000 0 00052    00256 TXH +3 00000 0 00053    00257 TIX +2 00051 0 00000
 00260 TXH +3 00000 0 00020    00261 TXH +3 00000 0 00054    00262 TXH +3 00000 0 00021
                 WRFX.(LINE(LMARK)...LMARK)                                         040  LM00051
 00263 CLA +0 50000 0 00051    00264 SUB +0 40200 0 00265    00265 TXH +3 00000 0 00050    00266 STA +0 62100 0 00270
 00267 TSX +0 07400 4 00015    00270 TIX +2 00051 0 00000
                 T'O RDLM                                                           041  LM00052
 00271 TRA +0 02000 0 00025
      EOF        BFCLOS.(NM1,NM2,ERR)                                               042  LM00054
 00272 TSX +0 07400 4 00000    00273 TXH +3 00000 0 00052    00274 TXH +3 00000 0 00053    00275 TXH +3 00000 0 00021
      CHN        USRFIL.                                                            043  LM00055
 00276 TSX +0 07400 4 00014
                 CHNCOM.(0)                                                         044  LM00056
 00277 TSX +0 07400 4 00003    00300 TXH +3 00000 0 00055
      ERR        .CAL.$PRNTER$                                                      045  LM00058
 00301 CAL -0 50000 0 00067
                 .LDQ.400000000071K                                                 046  LM00059
 00302 LDQ +0 56000 0 00066
                 NEXCOM.                                                            047  LM00060
 00303 TSX +0 07400 4 00011
                 END OF PROGRAM                                                     048  LM00062
 00304 TSX +0 07400 4 00005
1            WRFX., WRFXA., RDFX., RDFXA.- MAD CALLS TO WRFLX, ETC.              03/18/69 1456.6 PAGE 1
                           PETER R. BOS --- AUGUST 1967

                                     PCC     ON
                                     NOLNK
                       00004         ENTRY   WRFX
                       00006         ENTRY   WRFXA
                       00010         ENTRY   RDFX
                       00012         ENTRY   RDFXA
                                     LBL     WRFX
                                     PCC     OFF


                                             ALLOW MAD CALLS FOR CONSOLE I/O.


        TRANSFER VECTOR
      00000  665126436760     WRFLX
      00001  665126436721     WRFLXA
      00002  512426436760     RDFLX
      00003  512426436721     RDFLXA

      00004 -0500 00 0 00000  WRFX   CAL     $WRFLX
      00005  0020 00 0 00013         TRA     GO
      00006 -0500 00 0 00001  WRFXA  CAL     $WRFLXA
      00007  0020 00 0 00013         TRA     GO
      00010 -0500 00 0 00002  RDFX   CAL     $RDFLX
      00011  0020 00 0 00013         TRA     GO
      00012 -0500 00 0 00003  RDFXA  CAL     $RDFLXA
      00013  0621 00 0 00023  GO     STA     TSX
      00014  0634 00 4 00025         SXA     FX4,4

      00015 -0500 00 4 00001         CAL     1,4           PICK UP A(N)...N FROM MAD.
      00016  0621 00 0 00024         STA     WR
      00017 -0737 00 4 00000         PDC     0,4           GET COUNT.
      00020 -0500 00 4 00000         CAL     0,4           ..
      00021  0734 00 4 00000         PAX     0,4           ..
      00022 -0634 00 4 00024         SXD     WR,4          ..
      00023  0074 00 4 00000  TSX    TSX     -,4
      00024  0 00000 0 00000  WR     PZE     -,0,-

      00025  0774 00 4 00000  FX4    AXT     -,4
      00026  0020 00 4 00001         TRA     1,4

                                     END
1            WRFX., WRFXA., RDFX., RDFXA.- MAD CALLS TO WRFLX, ETC.              03/18/69 1456.6 PAGE 1
                        POST PROCESSOR ASSEMBLY DATA

         27 IS THE FIRST LOCATION NOT USED BY THIS PROGRAM

0REFERENCES TO DEFINED SYMBOLS
         13     GO     5,    7,   11
         24     WR    16,   22
         25    FX4    14
         23    TSX    13
         10   RDFX     0
          4   WRFX     0
          2  RDFLX    10
         12  RDFXA     0
          0  WRFLX     4
          6  WRFXA     0
          3 RDFLXA    12
          1 WRFLXA     6

0 NO ERROR IN ABOVE ASSEMBLY.


 PLOAD   BCD 09/18/68 2318.4   25611         00000
