1     MAD PROGRAM LISTING ... ... ...                 FILE    WHO1   MAD            05/12/69    2257.8
-
       WHO            PRINT LIST OF CTSS USERS.                                                        LM00001
                      CODED IN MAD BY N. MORRIS - 2/67                                                 LM00002
                                                                                                       LM00003
                                                                                                       LM00004
                  NORMAL MODE IS INTEGER                                                          *001 LM00005
                                                                                                       LM00006
                  INSERT FILE .XOR.                                                               *002 LM00007
                  DEFINE BINARY OPERATOR .XOR., PRECEDENCE SAME AS .A.                            *003 LM00001
                  MODE STRUCTURE 1 .XOR. 1 TO 1                                                   *004 LM00002
             JMP      *+1,LA,*+3                                                                  *005 LM00003
             JMP      *+15,AT,*+1                                                                 *006 LM00004
             JMP      *+17,BT,*+9                                                                 *007 LM00005
             JMP      *+1,MQ,*+3                                                                  *008 LM00006
             JMP      *+9,AT,*+1                                                                  *009 LM00007
             JMP      *+13,BT,*+4                                                                 *010 LM00008
             JMP      *+1,AC,*+9                                                                  *011 LM00009
             STO      T                                                                           *012 LM00010
             JMP      *+7                                                                         *013 LM00011
             STQ      T                                                                           *014 LM00012
             JMP      *+5                                                                         *015 LM00013
             SLW      T                                                                           *016 LM00014
             JMP      *+3                                                                         *017 LM00015
             XCL                                                                                  *018 LM00016
             JMP      *+2                                                                         *019 LM00017
             CAL      A                                                                           *020 LM00018
             ERA      B                                                                           *021 LM00019
             OUT      LAC                                                                         *022 LM00020
             XCL                                                                                  *023 LM00021
             ERA      A                                                                           *024 LM00022
             OUT      LAC                                                                         *025 LM00023
             END                                                                                  *026 LM00024
                                                                                                       LM00008
                  VECTOR VALUES      N = $N     $                                                 *027 LM00009
                  VECTOR VALUES NUSERS = $NUSERS$                                                 *028 LM00010
                  VECTOR VALUES  PROBN = $PROBN $                                                 *029 LM00011
                  VECTOR VALUES  PROGN = $PROGN $                                                 *030 LM00012
                  VECTOR VALUES  UNAME = $UNAME $                                                 *031 LM00013
                  VECTOR VALUES  GRPNO = $GRPNO.$                                                 *032 LM00014
                  VECTOR VALUES UNITID = $UNITID$                                                 *033 LM00015
                  VECTOR VALUES  UTIME = $UTIME $                                                 *034 LM00016
                  VECTOR VALUES  ITIME = $ITIME $                                                 *035 LM00017
                  VECTOR VALUES SYSNAM = $000000$                                                 *036 LM00018
                  VECTOR VALUES SYSTIM = $SYSTIM$                                                 *037 LM00019
                  VECTOR VALUES SYSDAT = $SYSDAT$                                                 *038 LM00020
                  VECTOR VALUES     PB = $PB    $                                                 *039 LM00021
                                                                                                       LM00022
                                                                                                       LM00023
                  DIMENSION ARG (19), TUSED (50)                                                  *040 LM00024
                  DIMENSION TIME (1), TIMEON (1)                                                  *041 LM00025
                  VECTOR VALUES SPACE = 605757575757K                                             *042 LM00026
                  VECTOR VALUES FENCE = 777777777777K                                             *043 LM00027
                  VECTOR VALUES SLPTIM = 0                                                        *044 LM00028
                                                                                                       LM00029
                                                                                                       LM00030
                  BOOLEAN NUMBER.                                                                 *045 LM00031
                  VECTOR VALUES FIRST = 1B                                                        *046 LM00032
                  VECTOR VALUES HEADSW = 1B                                                       *047 LM00033
                  VECTOR VALUES PROBSW = 0B                                                       *048 LM00034
                  VECTOR VALUES PROGSW = 0B                                                       *049 LM00035
                  VECTOR VALUES NAMESW = 0B                                                       *050 LM00036
                  VECTOR VALUES GRPSW = 0B                                                        *051 LM00037
                  VECTOR VALUES FOUND = 0B                                                        *052 LM00038
                                                                                                       LM00039
                                                                                                       LM00040
                                                                                                       LM00041
                                                                                                       LM00042
                      PICK UP AND CHECK PARAMETERS.                                                    LM00043
                                                                                                       LM00044
                  PRMESS.                                                                         *053 LM00045
                  SETBRK. (CHN)                                                                   *054 LM00046
                  GCLS. (ARG, 0)                                                                  *055 LM00047
                                                                                                       LM00048
                  THROUGH ARGLP, FOR I = 1, 1, I .G. 19 .OR. ARG (I) .E. FENCE                    *056 LM00049
                                                                                                       LM00050
                  WHENEVER ARG (I) .E. $ GROUP$ .OR. ARG (I) .E. $   GRP$                         *057 LM00051
                       HEADSW = 0B                                                                *058 LM00052
                       GRPSW = 1B                                                                 *059 LM00053
                       I = I + 1                                                                  *060 LM00054
                       WHENEVER ARG (I) .E. FENCE .OR. .NOT. NUMBER. (ARG (I)),                   *061 LM00055
                1           TRANSFER TO ILARG                                                     *061 LM00056
                       TGRP = BCDEC. (ARG (I))                                                    *062 LM00057
                                                                                                       LM00058
                  OR WHENEVER ARG (I) .E. $     *$                                                *063 LM00059
                       HEADSW = 0B                                                                *064 LM00060
                       TRANSFER TO CKPG                                                           *065 LM00061
                                                                                                       LM00062
                  OR WHENEVER NUMBER. (ARG (I))                                                   *066 LM00063
                       SLPTIM = BCDEC. (ARG (I)) * 60                                             *067 LM00064
                                                                                                       LM00065
                  OTHERWISE                                                                       *068 LM00066
                       HEADSW = 0B                                                                *069 LM00067
                       PROBSW = 1B                                                                *070 LM00068
                       TPROB = ARG (I)                                                            *071 LM00069
                       GTPROB. (TPROB, ILARG)                                                     *072 LM00070
                                                                                                       LM00071
      CKPG             I = I + 1                                                                  *073 LM00072
                       WHENEVER ARG (I) .E. FENCE                                                 *074 LM00073
                            ARG(I) = $     *$                                                     *075 LM00074
                            TRANSFER TO ENDST                                                     *076 LM00075
                       END OF CONDITIONAL                                                         *077 LM00076
                       WHENEVER NUMBER. (ARG (I))                                                 *078 LM00077
                            PROGSW = 1B                                                           *079 LM00078
                            TPROG = ARG (I)                                                       *080 LM00079
                       OR WHENEVER ARG (I) .E. $     *$                                           *081 LM00080
                            CONTINUE                                                              *082 LM00081
                       OTHERWISE                                                                  *083 LM00082
                            NAMESW = 1B                                                           *084 LM00083
                            TNAME = ARG (I)                                                       *085 LM00084
                       END OF CONDITIONAL                                                         *086 LM00085
                                                                                                       LM00086
                  END OF CONDITIONAL                                                              *087 LM00087
                                                                                                       LM00088
      ARGLP       CONTINUE                                                                        *088 LM00089
                                                                                                       LM00090
                                                                                                       LM00091
                                                                                                       LM00092
                      GET COMMON SYMBOL VALUES.                                                        LM00093
                                                                                                       LM00094
      ENDST       N      = COMLOC. (N     )                                                       *089 LM00095
                  NUSERS = COMLOC. (NUSERS)                                                       *090 LM00096
                  PROBN  = COMLOC. (PROBN )                                                       *091 LM00097
                  PROGN  = COMLOC. (PROGN )                                                       *092 LM00098
                  UNAME  = COMLOC. (UNAME )                                                       *093 LM00099
                  GRPNO  = COMLOC. (GRPNO )                                                       *094 LM00100
                  UNITID = COMLOC. (UNITID)                                                       *095 LM00101
                  UTIME  = COMLOC. (UTIME )                                                       *096 LM00102
                  ITIME  = COMLOC. (ITIME )                                                       *097 LM00103
                  SYSNAM = COMLOC. (SYSNAM)                                                       *098 LM00104
                  SYSTIM = COMLOC. (SYSTIM)                                                       *099 LM00105
                  SYSDAT = COMLOC. (SYSDAT)                                                       *100 LM00106
                  PB     = COMLOC. (PB    )                                                       *101 LM00107
                                                                                                       LM00108
                                                                                                       LM00109
                      PRINT OUT NAME OF SYSTEM.                                                        LM00110
                                                                                                       LM00111
                  PRMESS. (SYSNAM, $ STARTED AT$, CTIME. (GLOC. (SYSTIM)),                        *102 LM00112
                1      DATEF. (GLOC. (SYSDAT)), $.$)                                              *102 LM00113
                                                                                                       LM00114
                                                                                                       LM00115
                      PRINT OUT NUMBER OF USERS.                                                       LM00116
                                                                                                       LM00117
      LOOP        PRMESS.                                                                         *103 LM00118
                  FTIME. (GTDYTM. (0), TIME (1), TIME)                                            *104 LM00119
                  PRMESS. (CVT. (GLOC. (NUSERS), 2), $  USERS AT$,                                *105 LM00120
                1      BZEL. (TIME), DATEF. (TIME (1)), $.$)                                      *105 LM00121
                                                                                                       LM00122
                                                                                                       LM00123
                      CHECK FOR BACKGROUND PERCENTAGE.                                                 LM00124
                                                                                                       LM00125
                  PCNT = GLOC. (PB)                                                               *106 LM00126
                  WHENEVER PCNT .NE. 0                                                            *107 LM00127
                       PRMESS. ($BACKGROUND PERCENTAGE =$, CVT. (PCNT, 2), $.$)                   *108 LM00128
                  END OF CONDITIONAL                                                              *109 LM00129
                  PRMESS.                                                                         *110 LM00130
                                                                                                       LM00131
                                                                                                       LM00132
                      PRINT HEADER, IF DESIRED.                                                        LM00133
                  WHENEVER HEADSW                                                                 *111 LM00134
                       PRMESS. (HEADR ... 8)                                                      *112 LM00135
                  END OF CONDITIONAL                                                              *113 LM00136
                  VECTOR VALUES HEADR = $LINE   USER     NAME  GRP UNIT  TUSED TIMEON$            *114 LM00137
                                                                                                       LM00138
                                                                                                       LM00139
                      PRINT USER STATISTICS.                                                           LM00140
                                                                                                       LM00141
                  FOUND = 0B                                                                      *115 LM00142
                  THROUGH USRLP, FOR I = 1, 1, I .G. N                                            *116 LM00143
                                                                                                       LM00144
                      PICK UP AND CHECK PROBLEM NUMBER.                                                LM00145
                  PROB = GLOC. (PROBN + I)                                                        *117 LM00146
                  WHENEVER (PROB .NE. TPROB .AND. PROBSW) .OR.                                    *118 LM00147
                1      PROB .E. 0, TRANSFER TO USRLP                                              *118 LM00148
                                                                                                       LM00149
                      PICK UP AND CHECK PROGRAMMER NUMBER.                                             LM00150
                  PROG = GLOC. (PROGN+ I)                                                         *119 LM00151
                  WHENEVER PROG .NE. TPROG .AND. PROGSW, TRANSFER TO USRLP                        *120 LM00152
                                                                                                       LM00153
                      PICK UP AND CHECK USER NAME.                                                     LM00154
                  NAME = GLOC. (UNAME + I)                                                        *121 LM00155
                  WHENEVER NAME .NE. TNAME .AND. NAMESW, TRANSFER TO USRLP                        *122 LM00156
                                                                                                       LM00157
                      PICK UP AND CHECK PARTY GROUP.                                                   LM00158
                  GRP = GLOC. (GRPNO + I)                                                         *123 LM00159
                  WHENEVER .ABS. GRP .NE. TGRP .AND. GRPSW, TRANSFER TO USRLP                     *124 LM00160
                                                                                                       LM00161
                  TUSED = GLOC. (UTIME + I)                                                       *125 LM00162
                  PRMESA. (CVT. (I, 2), PROB, PROG, SPACE, NAME,                                  *126 LM00163
                1      SCVT. (GRP, 3), SPACE, GLOC. (UNITID + I),                                 *126 LM00164
                2      CTIME. (TUSED) )                                                           *126 LM00165
                                                                                                       LM00166
                  WHENEVER FIRST                                                                  *127 LM00167
                       FTIME. (GLOC. (ITIME + I), TIMEON (1), TIMEON)                             *128 LM00168
                       WHENEVER TIMEON (1) .E. LASTIM                                             *129 LM00169
                            TIMEON (1) = $ $                                                      *130 LM00170
                       OTHERWISE                                                                  *131 LM00171
                            LASTIM = TIMEON (1)                                                   *132 LM00172
                            TIMEON (1) = DATEF. (TIMEON (1))                                      *133 LM00173
                       END OF CONDITIONAL                                                         *134 LM00174
                       PRMESS. (SPACE, BZEL. (TIMEON), TIMEON (1))                                *135 LM00175
                                                                                                       LM00176
                  OTHERWISE                                                                       *136 LM00177
                       DELTA = TUSED - TUSED (I)                                                  *137 LM00178
                       WHENEVER DELTA .GE. 0                                                      *138 LM00179
                            PRMESS. (CTIME. (DELTA))                                              *139 LM00180
                       OTHERWISE                                                                  *140 LM00181
                            PRMESS.                                                               *141 LM00182
                       END OF CONDITIONAL                                                         *142 LM00183
                                                                                                       LM00184
                  END OF CONDITIONAL                                                              *143 LM00185
                                                                                                       LM00186
                  TUSED (I) = TUSED                                                               *144 LM00187
                  FOUND = 1B                                                                      *145 LM00188
                                                                                                       LM00189
      USRLP       CONTINUE                                                                        *146 LM00190
                                                                                                       LM00191
                                                                                                       LM00192
                      END OF STATISTICS - EXIT OR SLEEP.                                               LM00193
                                                                                                       LM00194
                  WHENEVER (PROBSW .OR. PROGSW .OR. GRPSW .OR. NAMESW)                            *147 LM00195
                1      .AND. .NOT. FOUND                                                          *147 LM00196
                       PRMESS. ($USER(S) NOT FOUND.$)                                             *148 LM00197
                  END OF CONDITIONAL                                                              *149 LM00198
                                                                                                       LM00199
                  PRMESS.                                                                         *150 LM00200
                  WHENEVER FIRST                                                                  *151 LM00201
                       FIRST = 0B                                                                 *152 LM00202
                       HEADR (6) = $D DUSE$                                                       *153 LM00203
                       HEADR (7) = $D     $                                                       *154 LM00204
                  END OF CONDITIONAL                                                              *155 LM00205
                                                                                                       LM00206
                  WHENEVER SLPTIM .NE. 0                                                          *156 LM00207
                       SLEEP.                                                                     *157 LM00208
                  OTHERWISE                                                                       *158 LM00209
                       CHNCOM. (1)                                                                *159 LM00210
                  END OF CONDITIONAL                                                              *160 LM00211
                  TRANSFER TO LOOP                                                                *161 LM00212
                                                                                                       LM00213
                                                                                                       LM00214
                                                                                                       LM00215
                      ILARG - COMPLAIN ABOUT BAD PARAMETER.                                            LM00216
                                                                                                       LM00217
      ILARG       PRMESS. ($ILLEGAL PARAMETER:$, ARG (I))                                         *162 LM00218
      CHN         CHNCOM. (0)                                                                     *163 LM00219
                                                                                                       LM00220
                                                                                                       LM00221
                      CONVERSION FUNCTIONS.                                                            LM00222
                                                                                                       LM00223
                  INTERNAL FUNCTION CTIME. (T) =                                                  *164 LM00224
                1      BZEL. (HRMIN. (T))                                                         *164 LM00225
                                                                                                       LM00226
                  INTERNAL FUNCTION DATEF. (D) =                                                  *165 LM00227
                1      ((D .RS. 6) .A. 7777K6) .V.                                                *165 LM00228
                2      ((D .RS. 12) .A. 7777K) .V.                                                *165 LM00229
                3      $ 00/00$                                                                   *165 LM00230
                                                                                                       LM00231
                  INTERNAL FUNCTION NUMBER. (N) =                                                 *166 LM00232
                1      ZEL. (N) .A. $ $ .E. 0                                                     *166 LM00233
                                                                                                       LM00234
                  INTERNAL FUNCTION CVT. (I, N) =                                                 *167 LM00235
                1      BZEL. (DEFBC. (I)) .XOR.                                                   *167 LM00236
                2      (373737373737K .LS. (N * 6))                                               *167 LM00237
                                                                                                       LM00238
                  INTERNAL FUNCTION (I, N)                                                        *168 LM00239
                  ENTRY TO SCVT.                                                                  *169 LM00240
                                                                                                       LM00241
                  WHENEVER I .RS. 35 .E. 0                                                        *170 LM00242
                       FUNCTION RETURN CVT. (I, N)                                                *171 LM00243
                  OTHERWISE                                                                       *172 LM00244
                       FUNCTION RETURN RJUST. (((LJUST. (BZEL. (DEFBC. (I)))) .RS. 6)             *173 LM00245
                1           .V. $-00000$) .XOR.                                                   *173 LM00246
                2           (373737373737K .LS. (N * 6))                                          *173 LM00247
                  END OF CONDITIONAL                                                              *174 LM00248
                  END OF FUNCTION                                                                 *175 LM00249
                                                                                                       LM00250
                                                                                                       LM00251
                                                                                                       LM00252
                                                                                                       LM00253
                                                                                                       LM00254
                  END OF PROGRAM                                                                  *176 LM00255
                                         MODE STRUCTURE 1 .XOR. 1 TO 1        004  LM00002
 (THE NUMERIC FORM OF THE OPERATOR-MODE ARGUMENT IS    11111 )
1MAD PROGRAM,TYPE NOV 1963      (ALL NUMBERS ARE OCTAL)
0TOTAL LOCATIONS   01433 TRANSFER VECTOR LENGTH  00024 PROGRAM BEGINS    00273
0VARIABLE STORAGE (A=ARRAY,C=COMMON,E=ERASABLE,DIGIT=MODE)
      ARGLP  00031   4        GRP    00071   1        NAMESW 00110 A 2        PROG   00121   1        TIME   00134 A 1
      ARG    00063 A 1        GRPSW  00072 A 2        N      00111 A 1        PROGSW 00122 A 2        TNAME  00135   1
      CHN    00032   4        HEADR  00102 A 1        NUSERS 00112 A 1        SLPTIM 00123 A 1        TPROB  00136   1
      CKPG   00033   4        HEADSW 00103 A 2        PB     00113 A 1        SPACE  00124 A 1        TPROG  00137   1
      DELTA  00064   1        ILARG  00035   4        PCNT   00114   1        SYSDAT 00125 A 1        TUSED  00222 A 1
      ENDST  00034   4        I      00104   1        PROBN  00115 A 1        SYSNAM 00126 A 1        UNAME  00223 A 1
      FENCE  00065 A 1        ITIME  00105 A 1        PROB   00116   1        SYSTIM 00127 A 1        UNITID 00224 A 1
      FIRST  00066 A 2        LASTIM 00106   1        PROBSW 00117 A 2        TGRP   00130   1        USRLP  00037   4
      FOUND  00067 A 2        LOOP   00036   4        PROGN  00120 A 1        TIMEON 00132 A 1        UTIME  00225 A 1
      GRPNO  00070 A 1        NAME   00107   1
0FUNCTION DICTIONARY
      BCDEC  00000   1        BZEL   00001   1        CHNCOM 00002   1        COMLOC 00003   1        DEFBC  00004   1
      EXIT   00005   1        FTIME  00006   1        GCLS   00007   1        GLOC   00010   1        GTDYTM 00011   1
      GTPROB 00012   1        HRMIN  00013   1        .SETUP 00014   1        LJUST  00015   1        PRMESA 00016   1
      PRMESS 00017   1        RJUST  00020   1        SETBRK 00021   1        SLEEP  00022   1        ZEL    00023   1
      CTIME  00024   1        CVT    00025   1        DATEF  00026   1        NUMBER 00027   2        SCVT   00030   1
0ABSOLUTE CONSTANTS
 00256 -000000000000     00236 +000000000043     00255 +373737373737     00262 -200000610000     00241 +007777000000
 00232 +000000000006     00240 +000000007777     00234 +000000000014     00260 -042563255135     00257 -036047215121
 00252 +314343252721     00246 +246060606060     00245 +246024646225     00251 +264664452433     00254 +346045466360
 00272 -246225517462     00266 -206060606060     00231 +000000000003     00233 +000000000010     00242 +212725601360
 00250 +255123254563     00261 -066445246047     00243 +222123422751     00271 -226021636060     00267 -206064622551
 00230 +000000000002     00253 +336060606060     00247 +252460216360     00270 -206263215163     00237 +000000000074
 00265 -206060606054     00263 -202751466447     00264 -206060275147     00235 +000000000023     00226 +000000000000
 00227 +000000000001     00244 +233000000000
0STATEMENT DICTIONARY
 00032 TXL -301142001140       00033 TXL -300427000424       00034 TXL -300471000466       00035 TXL -301140001127
 00036 TXL -300561000560       00037 TXL -301070001067
0PROGRAM
                 N'R                                                                001  LM00005
                 I'E .XOR.                                                          002  LM00007
                 DEFINE BINARY OPERATOR .XOR., PRECEDENCE SAME AS .A.               003  LM00001
                 MODE STRUCTURE 1 .XOR. 1 TO 1                                      004  LM00002
 00273 TSX +0 07400 4 00014
                 V'S      N = $N     $                                              027  LM00009
 00111     -0 56060 6 06060
                 V'S NUSERS = $NUSERS$                                              028  LM00010
 00112     -0 56462 2 55162
                 V'S  PROBN = $PROBN $                                              029  LM00011
 00115     -0 75146 2 24560
                 V'S  PROGN = $PROGN $                                              030  LM00012
 00120     -0 75146 2 74560
                 V'S  UNAME = $UNAME $                                              031  LM00013
 00223     -2 44521 4 42560
                 V'S  GRPNO = $GRPNO.$                                              032  LM00014
 00070     +2 75147 4 54633
                 V'S UNITID = $UNITID$                                              033  LM00015
 00224     -2 44531 6 33124
                 V'S  UTIME = $UTIME $                                              034  LM00016
 00225     -2 46331 4 42560
                 V'S  ITIME = $ITIME $                                              035  LM00017
 00105     +3 16331 4 42560
                 V'S SYSNAM = $000000$                                              036  LM00018
 00126     +0 00000 0 00000
                 V'S SYSTIM = $SYSTIM$                                              037  LM00019
 00127     -2 27062 6 33144
                 V'S SYSDAT = $SYSDAT$                                              038  LM00020
 00125     -2 27062 2 42163
                 V'S     PB = $PB    $                                              039  LM00021
 00113     -0 72260 6 06060
                 D'N ARG (19), TUSED (50)                                           040  LM00024
                 D'N TIME (1), TIMEON (1)                                           041  LM00025
                 V'S SPACE = 605757575757K                                          042  LM00026
 00124     -2 05757 5 75757
                 V'S FENCE = 777777777777K                                          043  LM00027
 00065     -3 77777 7 77777
                 V'S SLPTIM = 0                                                     044  LM00028
 00123     +0 00000 0 00000
                 B'N NUMBER.                                                        045  LM00031
                 V'S FIRST = 1B                                                     046  LM00032
 00066     +0 00000 0 00001
                 V'S HEADSW = 1B                                                    047  LM00033
 00103     +0 00000 0 00001
                 V'S PROBSW = 0B                                                    048  LM00034
 00117     +0 00000 0 00000
                 V'S PROGSW = 0B                                                    049  LM00035
 00122     +0 00000 0 00000
                 V'S NAMESW = 0B                                                    050  LM00036
 00110     +0 00000 0 00000
                 V'S GRPSW = 0B                                                     051  LM00037
 00072     +0 00000 0 00000
                 V'S FOUND = 0B                                                     052  LM00038
 00067     +0 00000 0 00000
                 PRMESS.                                                            053  LM00045
 00274 TSX +0 07400 4 00017
                 SETBRK. (CHN)                                                      054  LM00046
 00275 TSX +0 07400 4 00021    00276 TXH +3 00000 0 00032
                 GCLS. (ARG, 0)                                                     055  LM00047
 00277 TSX +0 07400 4 00007    00300 TXH +3 00000 0 00063    00301 TXH +3 00000 0 00226
                 T'H ARGLP, FOR I = 1, 1, I .G. 19 .OR. ARG (I) .E. FENCE           056  LM00049
 00302 CLA +0 50000 0 00227    00303 STO +0 60100 0 00104    00304 TRA +0 02000 0 00310    00305 CLA +0 50000 0 00104
 00306 ADD +0 40000 0 00227    00307 STO +0 60100 0 00104    00310 LXA +0 53400 1 00104    00311 CLA +0 50000 1 00063
 00312 SUB +0 40200 0 00065    00313 TZE +0 10000 0 00466    00314 CLA +0 50000 0 00104    00315 SUB +0 40200 0 00235
 00316 TZE +0 10000 0 00320    00317 TPL +0 12000 0 00466
                 W'R ARG (I) .E. $ GROUP$ .OR. ARG (I) .E. $   GRP$                 057  LM00051
 00320 CLA +0 50000 1 00063    00321 SUB +0 40200 0 00264    00322 TZE +0 10000 0 00326    00323 CLA +0 50000 1 00063
 00324 SUB +0 40200 0 00263    00325 TNZ -0 10000 0 00361
                      HEADSW = 0B                                                   058  LM00052
 00326 CLA +0 50000 0 00226    00327 STO +0 60100 0 00103
                      GRPSW = 1B                                                    059  LM00053
 00330 CLA +0 50000 0 00227    00331 STO +0 60100 0 00072
                      I = I + 1                                                     060  LM00054
 00332 CLA +0 50000 0 00104    00333 ADD +0 40000 0 00227    00334 STO +0 60100 0 00104
                      W'R ARG (I) .E. FENCE .OR. .NOT. NUMBER. (ARG (I)),           061  LM00055
                1          T'O ILARG                                                061  LM00056
 00335 CLA +0 50000 0 00104    00336 SUB +0 40200 0 00337    00337 TXH +3 00000 0 00063    00340 STA +0 62100 0 00342
 00341 TSX +0 07400 4 00027    00342 TXH +3 00000 0 00000    00343 TZE +0 10000 0 00350    00344 LXA +0 53400 1 00104
 00345 CLA +0 50000 1 00063    00346 SUB +0 40200 0 00065    00347 TNZ -0 10000 0 00351    00350 TRA +0 02000 0 00035
                      TGRP = BCDEC. (ARG (I))                                       062  LM00057
 00351 CLA +0 50000 0 00104    00352 SUB +0 40200 0 00353    00353 TXH +3 00000 0 00063    00354 STA +0 62100 0 00356
 00355 TSX +0 07400 4 00000    00356 TXH +3 00000 0 00000    00357 STO +0 60100 0 00130
                 O'R ARG (I) .E. $     *$                                           063  LM00059
 00360 TRA +0 02000 0 00465    00361 LXA +0 53400 1 00104    00362 CLA +0 50000 1 00063    00363 SUB +0 40200 0 00265
 00364 TNZ -0 10000 0 00371
                      HEADSW = 0B                                                   064  LM00060
 00365 CLA +0 50000 0 00226    00366 STO +0 60100 0 00103
                      T'O CKPG                                                      065  LM00061
 00367 TRA +0 02000 0 00033
                 O'R NUMBER. (ARG (I))                                              066  LM00063
 00370 TRA +0 02000 0 00465    00371 CLA +0 50000 0 00104    00372 SUB +0 40200 0 00373    00373 TXH +3 00000 0 00063
 00374 STA +0 62100 0 00376    00375 TSX +0 07400 4 00027    00376 TXH +3 00000 0 00000    00377 TZE +0 10000 0 00412
                      SLPTIM = BCDEC. (ARG (I)) * 60                                067  LM00064
 00400 CLA +0 50000 0 00104    00401 SUB +0 40200 0 00402    00402 TXH +3 00000 0 00063    00403 STA +0 62100 0 00405
 00404 TSX +0 07400 4 00000    00405 TXH +3 00000 0 00000    00406 XCA +0 13100 0 00000    00407 MPY +0 20000 0 00237
 00410 STQ -0 60000 0 00123
                 O'E                                                                068  LM00066
 00411 TRA +0 02000 0 00465
                      HEADSW = 0B                                                   069  LM00067
 00412 CLA +0 50000 0 00226    00413 STO +0 60100 0 00103
                      PROBSW = 1B                                                   070  LM00068
 00414 CLA +0 50000 0 00227    00415 STO +0 60100 0 00117
                      TPROB = ARG (I)                                               071  LM00069
 00416 LXA +0 53400 2 00104    00417 CLA +0 50000 2 00063    00420 STO +0 60100 0 00136
                      GTPROB. (TPROB, ILARG)                                        072  LM00070
 00421 TSX +0 07400 4 00012    00422 TXH +3 00000 0 00136    00423 TXH +3 00000 0 00035
      CKPG            I = I + 1                                                     073  LM00072
 00424 CLA +0 50000 0 00104    00425 ADD +0 40000 0 00227    00426 STO +0 60100 0 00104
                      W'R ARG (I) .E. FENCE                                         074  LM00073
 00427 LXA +0 53400 1 00104    00430 CLA +0 50000 1 00063    00431 SUB +0 40200 0 00065    00432 TNZ -0 10000 0 00436
                           ARG(I) = $     *$                                        075  LM00074
 00433 CLA +0 50000 0 00265    00434 STO +0 60100 1 00063
                           T'O ENDST                                                076  LM00075
 00435 TRA +0 02000 0 00034
                      E'L                                                           077  LM00076
                      W'R NUMBER. (ARG (I))                                         078  LM00077
 00436 CLA +0 50000 0 00104    00437 SUB +0 40200 0 00440    00440 TXH +3 00000 0 00063    00441 STA +0 62100 0 00443
 00442 TSX +0 07400 4 00027    00443 TXH +3 00000 0 00000    00444 TZE +0 10000 0 00453
                           PROGSW = 1B                                              079  LM00078
 00445 CLA +0 50000 0 00227    00446 STO +0 60100 0 00122
                           TPROG = ARG (I)                                          080  LM00079
 00447 LXA +0 53400 2 00104    00450 CLA +0 50000 2 00063    00451 STO +0 60100 0 00137
                      O'R ARG (I) .E. $     *$                                      081  LM00080
 00452 TRA +0 02000 0 00465    00453 LXA +0 53400 1 00104    00454 CLA +0 50000 1 00063    00455 SUB +0 40200 0 00265
 00456 TNZ -0 10000 0 00460
                           C'E                                                      082  LM00081
                      O'E                                                           083  LM00082
 00457 TRA +0 02000 0 00465
                           NAMESW = 1B                                              084  LM00083
 00460 CLA +0 50000 0 00227    00461 STO +0 60100 0 00110
                           TNAME = ARG (I)                                          085  LM00084
 00462 LXA +0 53400 2 00104    00463 CLA +0 50000 2 00063    00464 STO +0 60100 0 00135
                      E'L                                                           086  LM00085
                 E'L                                                                087  LM00087
      ARGLP      C'E                                                                088  LM00089
 00465 TRA +0 02000 0 00305
      ENDST      N      = COMLOC. (N     )                                          089  LM00095
 00466 TSX +0 07400 4 00003    00467 TXH +3 00000 0 00111    00470 STO +0 60100 0 00111
                 NUSERS = COMLOC. (NUSERS)                                          090  LM00096
 00471 TSX +0 07400 4 00003    00472 TXH +3 00000 0 00112    00473 STO +0 60100 0 00112
                 PROBN  = COMLOC. (PROBN )                                          091  LM00097
 00474 TSX +0 07400 4 00003    00475 TXH +3 00000 0 00115    00476 STO +0 60100 0 00115
                 PROGN  = COMLOC. (PROGN )                                          092  LM00098
 00477 TSX +0 07400 4 00003    00500 TXH +3 00000 0 00120    00501 STO +0 60100 0 00120
                 UNAME  = COMLOC. (UNAME )                                          093  LM00099
 00502 TSX +0 07400 4 00003    00503 TXH +3 00000 0 00223    00504 STO +0 60100 0 00223
                 GRPNO  = COMLOC. (GRPNO )                                          094  LM00100
 00505 TSX +0 07400 4 00003    00506 TXH +3 00000 0 00070    00507 STO +0 60100 0 00070
                 UNITID = COMLOC. (UNITID)                                          095  LM00101
 00510 TSX +0 07400 4 00003    00511 TXH +3 00000 0 00224    00512 STO +0 60100 0 00224
                 UTIME  = COMLOC. (UTIME )                                          096  LM00102
 00513 TSX +0 07400 4 00003    00514 TXH +3 00000 0 00225    00515 STO +0 60100 0 00225
                 ITIME  = COMLOC. (ITIME )                                          097  LM00103
 00516 TSX +0 07400 4 00003    00517 TXH +3 00000 0 00105    00520 STO +0 60100 0 00105
                 SYSNAM = COMLOC. (SYSNAM)                                          098  LM00104
 00521 TSX +0 07400 4 00003    00522 TXH +3 00000 0 00126    00523 STO +0 60100 0 00126
                 SYSTIM = COMLOC. (SYSTIM)                                          099  LM00105
 00524 TSX +0 07400 4 00003    00525 TXH +3 00000 0 00127    00526 STO +0 60100 0 00127
                 SYSDAT = COMLOC. (SYSDAT)                                          100  LM00106
 00527 TSX +0 07400 4 00003    00530 TXH +3 00000 0 00125    00531 STO +0 60100 0 00125
                 PB     = COMLOC. (PB    )                                          101  LM00107
 00532 TSX +0 07400 4 00003    00533 TXH +3 00000 0 00113    00534 STO +0 60100 0 00113
                 PRMESS. (SYSNAM, $ STARTED AT$, CTIME. (GLOC. (SYSTIM)),           102  LM00112
                1     DATEF. (GLOC. (SYSDAT)), $.$)                                 102  LM00113
 00535 TSX +0 07400 4 00010    00536 TXH +3 00000 0 00125    00537 STO +0 60100 0 01425    00540 TSX +0 07400 4 00026
 00541 TXH +3 00000 0 01425    00542 STO +0 60100 0 01425    00543 TSX +0 07400 4 00010    00544 TXH +3 00000 0 00127
 00545 STO +0 60100 0 01426    00546 TSX +0 07400 4 00024    00547 TXH +3 00000 0 01426    00550 STO +0 60100 0 01426
 00551 TSX +0 07400 4 00017    00552 TXH +3 00000 0 00126    00553 TXH +3 00000 0 00270    00554 TXH +3 00000 0 00247
 00555 TXH +3 00000 0 01426    00556 TXH +3 00000 0 01425    00557 TXH +3 00000 0 00253
      LOOP       PRMESS.                                                            103  LM00118
 00560 TSX +0 07400 4 00017
                 FTIME. (GTDYTM. (0), TIME (1), TIME)                               104  LM00119
 00561 TSX +0 07400 4 00011    00562 TXH +3 00000 0 00226    00563 STO +0 60100 0 01426    00564 TSX +0 07400 4 00006
 00565 TXH +3 00000 0 01426    00566 TXH +3 00000 0 00133    00567 TXH +3 00000 0 00134
                 PRMESS. (CVT. (GLOC. (NUSERS), 2), $  USERS AT$,                   105  LM00120
                1     BZEL. (TIME), DATEF. (TIME (1)), $.$)                         105  LM00121
 00570 TSX +0 07400 4 00026    00571 TXH +3 00000 0 00133    00572 STO +0 60100 0 01426    00573 TSX +0 07400 4 00001
 00574 TXH +3 00000 0 00134    00575 STO +0 60100 0 01425    00576 TSX +0 07400 4 00010    00577 TXH +3 00000 0 00112
 00600 STO +0 60100 0 01427    00601 TSX +0 07400 4 00025    00602 TXH +3 00000 0 01427    00603 TXH +3 00000 0 00230
 00604 STO +0 60100 0 01427    00605 TSX +0 07400 4 00017    00606 TXH +3 00000 0 01427    00607 TXH +3 00000 0 00267
 00610 TXH +3 00000 0 00271    00611 TXH +3 00000 0 01425    00612 TXH +3 00000 0 01426    00613 TXH +3 00000 0 00253
                 PCNT = GLOC. (PB)                                                  106  LM00126
 00614 TSX +0 07400 4 00010    00615 TXH +3 00000 0 00113    00616 STO +0 60100 0 00114
                 W'R PCNT .NE. 0                                                    107  LM00127
 00617 CLA +0 50000 0 00114    00620 SUB +0 40200 0 00226    00621 TZE +0 10000 0 00635
                      PRMESS. ($BACKGROUND PERCENTAGE =$, CVT. (PCNT, 2), $.$)      108  LM00128
 00622 TSX +0 07400 4 00025    00623 TXH +3 00000 0 00114    00624 TXH +3 00000 0 00230    00625 STO +0 60100 0 01427
 00626 TSX +0 07400 4 00017    00627 TXH +3 00000 0 00243    00630 TXH +3 00000 0 00261    00631 TXH +3 00000 0 00250
 00632 TXH +3 00000 0 00242    00633 TXH +3 00000 0 01427    00634 TXH +3 00000 0 00253
                 E'L                                                                109  LM00129
                 PRMESS.                                                            110  LM00130
 00635 TSX +0 07400 4 00017
                 W'R HEADSW                                                         111  LM00134
 00636 NZT -0 52000 0 00103    00637 TRA +0 02000 0 00642
                      PRMESS. (HEADR ... 8)                                         112  LM00135
 00640 TSX +0 07400 4 00017    00641 TIX +2 00233 0 00102
                 E'L                                                                113  LM00136
                 V'S HEADR = $LINE   USER     NAME  GRP UNIT  TUSED TIMEON$         114  LM00137
 00073     -0 64560 6 06060    00074     +2 46063 3 14425    00075     -2 06063 6 46225    00076     -0 76064 4 53163
 00077     -0 42560 6 02751    00100     -2 06060 6 04521    00101     -2 06462 2 55160    00102     -0 33145 2 56060
                 FOUND = 0B                                                         115  LM00142
 00642 CLA +0 50000 0 00226    00643 STO +0 60100 0 00067
                 T'H USRLP, FOR I = 1, 1, I .G. N                                   116  LM00143
 00644 CLA +0 50000 0 00227    00645 STO +0 60100 0 00104    00646 TRA +0 02000 0 00652    00647 CLA +0 50000 0 00104
 00650 ADD +0 40000 0 00227    00651 STO +0 60100 0 00104    00652 CLA +0 50000 0 00104    00653 SUB +0 40200 0 00111
 00654 TZE +0 10000 0 00656    00655 TPL +0 12000 0 01070
                 PROB = GLOC. (PROBN + I)                                           117  LM00146
 00656 CLA +0 50000 0 00115    00657 ADD +0 40000 0 00104    00660 STO +0 60100 0 01427    00661 TSX +0 07400 4 00010
 00662 TXH +3 00000 0 01427    00663 STO +0 60100 0 00116
                 W'R (PROB .NE. TPROB .AND. PROBSW) .OR.                            118  LM00147
                1     PROB .E. 0, T'O USRLP                                         118  LM00148
 00664 CLA +0 50000 0 00116    00665 SUB +0 40200 0 00226    00666 TZE +0 10000 0 00675    00667 NZT -0 52000 0 00117
 00670 TRA +0 02000 0 00674    00671 CLA +0 50000 0 00116    00672 SUB +0 40200 0 00136    00673 TNZ -0 10000 0 00675
 00674 TRA +0 02000 0 00676    00675 TRA +0 02000 0 00037
                 PROG = GLOC. (PROGN+ I)                                            119  LM00151
 00676 CLA +0 50000 0 00120    00677 ADD +0 40000 0 00104    00700 STO +0 60100 0 01427    00701 TSX +0 07400 4 00010
 00702 TXH +3 00000 0 01427    00703 STO +0 60100 0 00121
                 W'R PROG .NE. TPROG .AND. PROGSW, T'O USRLP                        120  LM00152
 00704 NZT -0 52000 0 00122    00705 TRA +0 02000 0 00712    00706 CLA +0 50000 0 00121    00707 SUB +0 40200 0 00137
 00710 TZE +0 10000 0 00712    00711 TRA +0 02000 0 00037
                 NAME = GLOC. (UNAME + I)                                           121  LM00155
 00712 CLA +0 50000 0 00223    00713 ADD +0 40000 0 00104    00714 STO +0 60100 0 01427    00715 TSX +0 07400 4 00010
 00716 TXH +3 00000 0 01427    00717 STO +0 60100 0 00107
                 W'R NAME .NE. TNAME .AND. NAMESW, T'O USRLP                        122  LM00156
 00720 NZT -0 52000 0 00110    00721 TRA +0 02000 0 00726    00722 CLA +0 50000 0 00107    00723 SUB +0 40200 0 00135
 00724 TZE +0 10000 0 00726    00725 TRA +0 02000 0 00037
                 GRP = GLOC. (GRPNO + I)                                            123  LM00159
 00726 CLA +0 50000 0 00070    00727 ADD +0 40000 0 00104    00730 STO +0 60100 0 01427    00731 TSX +0 07400 4 00010
 00732 TXH +3 00000 0 01427    00733 STO +0 60100 0 00071
                 W'R .ABS. GRP .NE. TGRP .AND. GRPSW, T'O USRLP                     124  LM00160
 00734 NZT -0 52000 0 00072    00735 TRA +0 02000 0 00743    00736 CLA +0 50000 0 00071    00737 SSP +0 76000 0 00003
 00740 SUB +0 40200 0 00130    00741 TZE +0 10000 0 00743    00742 TRA +0 02000 0 00037
                 TUSED = GLOC. (UTIME + I)                                          125  LM00162
 00743 CLA +0 50000 0 00225    00744 ADD +0 40000 0 00104    00745 STO +0 60100 0 01427    00746 TSX +0 07400 4 00010
 00747 TXH +3 00000 0 01427    00750 STO +0 60100 0 00222
                 PRMESA. (CVT. (I, 2), PROB, PROG, SPACE, NAME,                     126  LM00163
                1     SCVT. (GRP, 3), SPACE, GLOC. (UNITID + I),                    126  LM00164
                2     CTIME. (TUSED) )                                              126  LM00165
 00751 TSX +0 07400 4 00024    00752 TXH +3 00000 0 00222    00753 STO +0 60100 0 01427    00754 CLA +0 50000 0 00224
 00755 ADD +0 40000 0 00104    00756 STO +0 60100 0 01426    00757 TSX +0 07400 4 00010    00760 TXH +3 00000 0 01426
 00761 STO +0 60100 0 01426    00762 TSX +0 07400 4 00030    00763 TXH +3 00000 0 00071    00764 TXH +3 00000 0 00231
 00765 STO +0 60100 0 01425    00766 TSX +0 07400 4 00025    00767 TXH +3 00000 0 00104    00770 TXH +3 00000 0 00230
 00771 STO +0 60100 0 01430    00772 TSX +0 07400 4 00016    00773 TXH +3 00000 0 01430    00774 TXH +3 00000 0 00116
 00775 TXH +3 00000 0 00121    00776 TXH +3 00000 0 00124    00777 TXH +3 00000 0 00107    01000 TXH +3 00000 0 01425
 01001 TXH +3 00000 0 00124    01002 TXH +3 00000 0 01426    01003 TXH +3 00000 0 01427
                 W'R FIRST                                                          127  LM00167
 01004 NZT -0 52000 0 00066    01005 TRA +0 02000 0 01043
                      FTIME. (GLOC. (ITIME + I), TIMEON (1), TIMEON)                128  LM00168
 01006 CLA +0 50000 0 00105    01007 ADD +0 40000 0 00104    01010 STO +0 60100 0 01430    01011 TSX +0 07400 4 00010
 01012 TXH +3 00000 0 01430    01013 STO +0 60100 0 01430    01014 TSX +0 07400 4 00006    01015 TXH +3 00000 0 01430
 01016 TXH +3 00000 0 00131    01017 TXH +3 00000 0 00132
                      W'R TIMEON (1) .E. LASTIM                                     129  LM00169
 01020 CLA +0 50000 0 00131    01021 SUB +0 40200 0 00106    01022 TNZ -0 10000 0 01026
                           TIMEON (1) = $ $                                         130  LM00170
 01023 CLA +0 50000 0 00266    01024 STO +0 60100 0 00131
                      O'E                                                           131  LM00171
 01025 TRA +0 02000 0 01033
                           LASTIM = TIMEON (1)                                      132  LM00172
 01026 CLA +0 50000 0 00131    01027 STO +0 60100 0 00106
                           TIMEON (1) = DATEF. (TIMEON (1))                         133  LM00173
 01030 TSX +0 07400 4 00026    01031 TXH +3 00000 0 00131    01032 STO +0 60100 0 00131
                      E'L                                                           134  LM00174
                      PRMESS. (SPACE, BZEL. (TIMEON), TIMEON (1))                   135  LM00175
 01033 TSX +0 07400 4 00001    01034 TXH +3 00000 0 00132    01035 STO +0 60100 0 01430    01036 TSX +0 07400 4 00017
 01037 TXH +3 00000 0 00124    01040 TXH +3 00000 0 01430    01041 TXH +3 00000 0 00131
                 O'E                                                                136  LM00177
 01042 TRA +0 02000 0 01062
                      DELTA = TUSED - TUSED (I)                                     137  LM00178
 01043 LXA +0 53400 2 00104    01044 CLA +0 50000 0 00222    01045 SUB +0 40200 2 00222    01046 STO +0 60100 0 00064
                      W'R DELTA .GE. 0                                              138  LM00179
 01047 CLA +0 50000 0 00064    01050 SUB +0 40200 0 00226    01051 TZE +0 10000 0 01053    01052 TMI -0 12000 0 01061
                           PRMESS. (CTIME. (DELTA))                                 139  LM00180
 01053 TSX +0 07400 4 00024    01054 TXH +3 00000 0 00064    01055 STO +0 60100 0 01430    01056 TSX +0 07400 4 00017
 01057 TXH +3 00000 0 01430
                      O'E                                                           140  LM00181
 01060 TRA +0 02000 0 01062
                           PRMESS.                                                  141  LM00182
 01061 TSX +0 07400 4 00017
                      E'L                                                           142  LM00183
                 E'L                                                                143  LM00185
                 TUSED (I) = TUSED                                                  144  LM00187
 01062 LXA +0 53400 1 00104    01063 CLA +0 50000 0 00222    01064 STO +0 60100 1 00222
                 FOUND = 1B                                                         145  LM00188
 01065 CLA +0 50000 0 00227    01066 STO +0 60100 0 00067
      USRLP      C'E                                                                146  LM00190
 01067 TRA +0 02000 0 00647
                 W'R (PROBSW .OR. PROGSW .OR. GRPSW .OR. NAMESW)                    147  LM00195
                1     .AND. .NOT. FOUND                                             147  LM00196
 01070 ZET +0 52000 0 00067    01071 TRA +0 02000 0 01106    01072 ZET +0 52000 0 00110    01073 TRA +0 02000 0 01102
 01074 ZET +0 52000 0 00072    01075 TRA +0 02000 0 01102    01076 ZET +0 52000 0 00122    01077 TRA +0 02000 0 01102
 01100 NZT -0 52000 0 00117    01101 TRA +0 02000 0 01106
                      PRMESS. ($USER(S) NOT FOUND.$)                                148  LM00197
 01102 TSX +0 07400 4 00017    01103 TXH +3 00000 0 00272    01104 TXH +3 00000 0 00254    01105 TXH +3 00000 0 00251
                 E'L                                                                149  LM00198
                 PRMESS.                                                            150  LM00200
 01106 TSX +0 07400 4 00017
                 W'R FIRST                                                          151  LM00201
 01107 NZT -0 52000 0 00066    01110 TRA +0 02000 0 01117
                      FIRST = 0B                                                    152  LM00202
 01111 CLA +0 50000 0 00226    01112 STO +0 60100 0 00066
                      HEADR (6) = $D DUSE$                                          153  LM00203
 01113 CLA +0 50000 0 00245    01114 STO +0 60100 0 00074
                      HEADR (7) = $D     $                                          154  LM00204
 01115 CLA +0 50000 0 00246    01116 STO +0 60100 0 00073
                 E'L                                                                155  LM00205
                 W'R SLPTIM .NE. 0                                                  156  LM00207
 01117 CLA +0 50000 0 00123    01120 SUB +0 40200 0 00226    01121 TZE +0 10000 0 01124
                      SLEEP.                                                        157  LM00208
 01122 TSX +0 07400 4 00022
                 O'E                                                                158  LM00209
 01123 TRA +0 02000 0 01126
                      CHNCOM. (1)                                                   159  LM00210
 01124 TSX +0 07400 4 00002    01125 TXH +3 00000 0 00227
                 E'L                                                                160  LM00211
                 T'O LOOP                                                           161  LM00212
 01126 TRA +0 02000 0 00036
      ILARG      PRMESS. ($ILLEGAL PARAMETER:$, ARG (I))                            162  LM00218
 01127 CLA +0 50000 0 00104    01130 SUB +0 40200 0 01131    01131 TXH +3 00000 0 00063    01132 STA +0 62100 0 01137
 01133 TSX +0 07400 4 00017    01134 TXH +3 00000 0 00252    01135 TXH +3 00000 0 00257    01136 TXH +3 00000 0 00260
 01137 TXH +3 00000 0 00000
      CHN        CHNCOM. (0)                                                        163  LM00219
 01140 TSX +0 07400 4 00002    01141 TXH +3 00000 0 00226
                 INTERNAL FUNCTION CTIME. (T) =                                     164  LM00224
                1     BZEL. (HRMIN. (T))                                            164  LM00225
 01142 TRA +0 02000 0 01166    00024 TTR +0 02100 0 01143    01143 SXA +0 63400 2 01153    01144 TSX +0 07400 2 01153
 01145 TSX +0 07400 4 00013    01146 TXH +3 00000 0 00024    01147 STO +0 60100 0 01165    01150 TSX +0 07400 4 00001
 01151 TXH +3 00000 0 01165    01152 TRA +0 02000 0 01161    01153 TXH +3 00000 0 00000    01154 SXD -0 63400 1 01153
 01155 SXA +0 63400 4 01161    01156 CLA +0 50000 4 00001    01157 STO +0 60100 0 01146    01160 TRA +0 02000 2 00001
 01161 AXT +0 77400 4 00000    01162 LXA +0 53400 2 01153    01163 LXD -0 53400 1 01153    01164 TRA +0 02000 4 00001
                 INTERNAL FUNCTION DATEF. (D) =                                     165  LM00227
                1     ((D .RS. 6) .A. 7777K6) .V.                                   165  LM00228
                2     ((D .RS. 12) .A. 7777K) .V.                                   165  LM00229
                3     $ 00/00$                                                      165  LM00230
 01166 TRA +0 02000 0 01225    00026 TTR +0 02100 0 01167    01167 SXA +0 63400 2 01211    01170 TSX +0 07400 2 01211
 01171 CAL -0 50000 0 00234    01172 STA +0 62100 0 01174    01173 CAL -0 50000 0 00024    01174 LGR -0 76500 0 00000
 01175 ANA -0 32000 0 00240    01176 SLW +0 60200 0 01224    01177 CAL -0 50000 0 00232    01200 STA +0 62100 0 01202
 01201 CAL -0 50000 0 00024    01202 LGR -0 76500 0 00000    01203 ANA -0 32000 0 00241    01204 ORA -0 50100 0 01224
 01205 ORA -0 50100 0 00262    01206 SLW +0 60200 0 01224    01207 CLA +0 50000 0 01224    01210 TRA +0 02000 0 01220
 01211 TXH +3 00000 0 00000    01212 SXD -0 63400 1 01211    01213 SXA +0 63400 4 01220    01214 CLA +0 50000 4 00001
 01215 STA +0 62100 0 01173    01216 STA +0 62100 0 01201    01217 TRA +0 02000 2 00001    01220 AXT +0 77400 4 00000
 01221 LXA +0 53400 2 01211    01222 LXD -0 53400 1 01211    01223 TRA +0 02000 4 00001
                 INTERNAL FUNCTION NUMBER. (N) =                                    166  LM00232
                1     ZEL. (N) .A. $ $ .E. 0                                        166  LM00233
 01225 TRA +0 02000 0 01260    00027 TTR +0 02100 0 01226    01226 SXA +0 63400 2 01245    01227 TSX +0 07400 2 01245
 01230 TSX +0 07400 4 00023    01231 TXH +3 00000 0 00024    01232 STO +0 60100 0 01257    01233 CAL -0 50000 0 01257
 01234 ANA -0 32000 0 00266    01235 SLW +0 60200 0 01257    01236 CLA +0 50000 0 01257    01237 SUB +0 40200 0 00226
 01240 TZE +0 10000 0 01243    01241 PXD -0 75400 0 00000    01242 TRA +0 02000 0 01244    01243 CLA +0 50000 0 00227
 01244 TRA +0 02000 0 01253    01245 TXH +3 00000 0 00000    01246 SXD -0 63400 1 01245    01247 SXA +0 63400 4 01253
 01250 CLA +0 50000 4 00001    01251 STO +0 60100 0 01231    01252 TRA +0 02000 2 00001    01253 AXT +0 77400 4 00000
 01254 LXA +0 53400 2 01245    01255 LXD -0 53400 1 01245    01256 TRA +0 02000 4 00001
                 INTERNAL FUNCTION CVT. (I, N) =                                    167  LM00235
                1     BZEL. (DEFBC. (I)) .XOR.                                      167  LM00236
                2     (373737373737K .LS. (N * 6))                                  167  LM00237
 01260 TRA +0 02000 0 01323    00025 TTR +0 02100 0 01261    01261 SXA +0 63400 2 01305    01262 TSX +0 07400 2 01305
 01263 LDQ +0 56000 0 00024    01264 MPY +0 20000 0 00232    01265 XCA +0 13100 0 00000    01266 STA +0 62100 0 01270
 01267 CAL -0 50000 0 00255    01270 ALS +0 76700 0 00000    01271 SLW +0 60200 0 01321    01272 TSX +0 07400 4 00004
 01273 TXH +3 00000 0 00024    01274 STO +0 60100 0 01322    01275 TSX +0 07400 4 00001    01276 TXH +3 00000 0 01322
 01277 STO +0 60100 0 01322    01300 CAL -0 50000 0 01322    01301 ERA +0 32200 0 01321    01302 SLW +0 60200 0 01322
 01303 CLA +0 50000 0 01322    01304 TRA +0 02000 0 01315    01305 TXH +3 00000 0 00000    01306 SXD -0 63400 1 01305
 01307 SXA +0 63400 4 01315    01310 CLA +0 50000 4 00001    01311 STO +0 60100 0 01273    01312 CLA +0 50000 4 00002
 01313 STA +0 62100 0 01263    01314 TRA +0 02000 2 00001    01315 AXT +0 77400 4 00000    01316 LXA +0 53400 2 01305
 01317 LXD -0 53400 1 01305    01320 TRA +0 02000 4 00001
                 INTERNAL FUNCTION (I, N)                                           168  LM00239
 01323 TRA +0 02000 0 01424
                 E'O SCVT.                                                          169  LM00240
 01324 TRA +0 02000 0 01327    00030 TTR +0 02100 0 01325    01325 SXA +0 63400 2 01403    01326 TSX +0 07400 2 01403
                 W'R I .RS. 35 .E. 0                                                170  LM00242
 01327 CAL -0 50000 0 00236    01330 STA +0 62100 0 01332    01331 CAL -0 50000 0 00024    01332 LGR -0 76500 0 00000
 01333 SLW +0 60200 0 01422    01334 CLA +0 50000 0 01422    01335 SUB +0 40200 0 00226    01336 TNZ -0 10000 0 01344
                      F'N CVT. (I, N)                                               171  LM00243
 01337 TSX +0 07400 4 00025    01340 TXH +3 00000 0 00024    01341 TXH +3 00000 0 00024    01342 TRA +0 02000 0 01416
                 O'E                                                                172  LM00244
 01343 TRA +0 02000 0 01402
                      F'N RJUST. (((LJUST. (BZEL. (DEFBC. (I)))) .RS. 6)            173  LM00245
                1          .V. $-00000$) .XOR.                                      173  LM00246
                2          (373737373737K .LS. (N * 6))                             173  LM00247
 01344 LDQ +0 56000 0 00024    01345 MPY +0 20000 0 00232    01346 XCA +0 13100 0 00000    01347 STA +0 62100 0 01351
 01350 CAL -0 50000 0 00255    01351 ALS +0 76700 0 00000    01352 SLW +0 60200 0 01422    01353 TSX +0 07400 4 00004
 01354 TXH +3 00000 0 00024    01355 STO +0 60100 0 01423    01356 TSX +0 07400 4 00001    01357 TXH +3 00000 0 01423
 01360 STO +0 60100 0 01423    01361 TSX +0 07400 4 00015    01362 TXH +3 00000 0 01423    01363 STO +0 60100 0 01423
 01364 CAL -0 50000 0 00232    01365 STA +0 62100 0 01367    01366 CAL -0 50000 0 01423    01367 LGR -0 76500 0 00000
 01370 ORA -0 50100 0 00256    01371 SLW +0 60200 0 01423    01372 TSX +0 07400 4 00020    01373 TXH +3 00000 0 01423
 01374 STO +0 60100 0 01423    01375 CAL -0 50000 0 01423    01376 ERA +0 32200 0 01422    01377 SLW +0 60200 0 01423
 01400 CLA +0 50000 0 01423    01401 TRA +0 02000 0 01416
                 E'L                                                                174  LM00248
                 E'N                                                                175  LM00249
 01402 TSX +0 07400 4 00005    01403 TXH +3 00000 0 00000    01404 SXD -0 63400 1 01403    01405 SXA +0 63400 4 01416
 01406 CLA +0 50000 4 00001    01407 STA +0 62100 0 01331    01410 STO +0 60100 0 01340    01411 STO +0 60100 0 01354
 01412 CLA +0 50000 4 00002    01413 STO +0 60100 0 01341    01414 STA +0 62100 0 01344    01415 TRA +0 02000 2 00001
 01416 AXT +0 77400 4 00000    01417 LXA +0 53400 2 01403    01420 LXD -0 53400 1 01403    01421 TRA +0 02000 4 00001
                 E'M                                                                176  LM00255
 01424 TSX +0 07400 4 00005
1            GTPROB - GET PROBLEM NUMBER FOR LOGIN COMMAND.                      05/12/69 2258.4 PAGE 1

                                             2/19/66 - NOEL I. MORRIS

                              * * * * * * * * * * * * * * * * * * * * * * * * * * * * * * * * * * * *
                              *
                              *      CALLING SEQUENCE -
                              *
                              *      GTPROB. (PROBN, ERR)
                              *
                              *      PROBN  - CONTAINS UNCONVERTED PROBLEM NUMBER.  AT COMPLETION
                              *              OF CONVERSION, IT WILL CONTAIN CONVERTED PROBLEM NUMBER.
                              *      ERR    - ERROR LOCATION FOR ILLEGAL PROBLEM NUMBER.
                              *
                              *
                              * * * * * * * * * * * * * * * * * * * * * * * * * * * * * * * * * * * *


                                     UNLIST
 M                            CALL   MACRO   SUBR,LIST


                       00000         ENTRY   GTPROB

      00000  0634 00 2 00034  GTPROB SXA     GTPX,2        SAVE XR2

      00001  0560 60 4 00001         LDQ*    1,4           GET UNCONVERTED PROBLEM NUMBER
      00002 -0600 00 0 00037         STQ     BAD           SAVE FOR ERROR COMMENT

      00003  0774 00 2 00036         AXT     30,2          EXTRACT THE LETTER
      00004 -0754 00 0 00000  PBLOOP ZAC                   ..
      00005 -0763 00 0 00006         LGL     6             ..
      00006 -0340 00 0 00044         LAS     =H00000       CHECK FOR NON-BLANK
      00007  0020 00 0 00021         TRA     FCHAR         NON-BLANK FOUND
      00010  0020 00 0 00012         TRA     *+2           ..
      00011  0020 00 0 00021         TRA     FCHAR         ..
      00012  2 00006 2 00004         TIX     PBLOOP,2,6    ..

      00013  0634 00 4 00016  ERR    SXA     SVX4,4        SAVE XR4
      00014                          COMENT  BAD,5(       IS NOT A PROBLEM NUMBER)
      00014  0074 00 4 00036         TSX     WRFLX,4                                                          .003
      00015  3 00005 0 00037         PAR     BAD,,5                                                           .005
      00016  0774 00 4 00000  SVX4   AXT     **,4          RESTORE XR4
      00017  0522 00 0 00034         XEC     GTPX          RESTORE XR2
      00020  0020 60 4 00002         TRA*    2,4           ERROR RETURN


      00021  0767 00 0 00030  FCHAR  ALS     24            SHIFT TO CORRECT POSITION
      00022 -0501 00 0 00046         ORA     =H 00000      AND OR IN PRECEDING BLANK
      00023  0602 60 4 00001         SLW*    1,4           SAVE THIS PART
      00024 -0320 00 0 00045         ANA     =H0 0000      MUST BE NON-NUMERIC
      00025  0100 00 0 00013         TZE     ERR           ..

      00026 -0754 00 0 00000         ZAC                   ..
      00027 -0765 00 2 00044         LGR     36,2          RIGHT-JUSTIFY REMAINING CHARACTERS
      00030 -0130 00 0 00000         XCL                   ..
      00031 -0602 60 4 00001         ORS*    1,4           OR INTO PROBLEM NUMBER
      00032 -0320 00 0 00050         ANA     =O777760606060 MUST BE NUMERIC
1            GTPROB - GET PROBLEM NUMBER FOR LOGIN COMMAND.                      05/12/69 2258.4 PAGE 2

      00033 -0100 00 0 00013         TNZ     ERR           ..

      00034  0774 00 2 00000  GTPX   AXT     **,2          RESTORE XR2
      00035  0020 00 4 00003         TRA     3,4           RETURN


      00036                          RMT     *             REMOTE SEQUENCES.
      00036  0101 00 0 00047  WRFLX  TIA     =HWRFLX                                                          .002
      00037  606060606060     BAD    BCI     5,       IS NOT A PROBLEM NUMBER                                 .002
      00040  603162604546
      00041  636021604751
      00042  462243254460
      00043  456444222551

                                     END

        LITERALS
      00044  000000000060
      00045  006000000000
      00046  600000000000
      00047  665126436760
      00050  777760606060
1            GTPROB - GET PROBLEM NUMBER FOR LOGIN COMMAND.                      05/12/69 2258.4 PAGE 1
                        POST PROCESSOR ASSEMBLY DATA

         51 IS THE FIRST LOCATION NOT USED BY THIS PROGRAM

0REFERENCES TO DEFINED SYMBOLS
         37    BAD     2,   15
         13    ERR    25,   33
         34   GTPX     0,   17
         16   SVX4    13
         21  FCHAR     7,   11
         36  WRFLX    14
          0 GTPROB     0
          4 PBLOOP    12

0 NO ERROR IN ABOVE ASSEMBLY.


 WRITE   BCD 05/12/69 1851.2    8648         00000
1            ASCII INTERCONSOLE COMMUNICATIONS ROUTINES.                         05/12/69 1724.0 PAGE 1

                                             5/24/66 - NOEL I. MORRIS

                       00005         ENTRY   0
                       00113         ENTRY   PRWORD
                       00123         ENTRY   PRBUFF
                       00167         ENTRY   TYLINE
                       00170         ENTRY   TYWORD


                                     UNLIST
 M                            CALL   MACRO   SUBR,LIST


        TRANSFER VECTOR
      00000  276347514622     GTPROB
      00001  637047466463     TYPOUT
      00002  637047253145     TYPEIN

            LINKAGE DIRECTOR
      00003  000000000000
      00004  000000000000

                       00016  WDSLIN EQU     14
                       00014  ICWDS  EQU     WDSLIN-2
                       00011  ABITS  EQU     9
                       00004  ACHR   EQU     36/ABITS
                       00014  CBITS  EQU     12
                       00003  CCHR   EQU     36/CBITS
                       00170  INSIZE EQU     120
                       00550  N.IN   EQU     360
                       00550  N.OUT  EQU     360
1            ASCII INTERCONSOLE COMMUNICATIONS ROUTINES.                         05/12/69 1724.0 PAGE 2
                           INITIALIZE.

      00005  0760 00 0 00016         EAXM                  7 XRS

      00006                          CALL    SETBRK(BRKXIT) SET A BREAK LEVEL
      00006  0074 00 4 02200         TSX     SETBRK,4                                                         .002
      00007  3 00000 0 00375         PAR     BRKXIT                                                           .004

      00010                          CALL    GETCOM(1)     GET FIRST PARAMETER
      00010  0074 00 4 02201         TSX     GETCOM,4                                                         .002
      00011  3 00000 0 00001         PAR     1                                                                .004
      00012  0602 00 0 00411         SLW     PROB          STORE PROBLEM NO.
      00013  0322 00 0 02270         ERA     =H(REST)      CHECK FOR SLEEP
      00014  0100 00 0 00306         TZE     REST          GO SLEEP


      00015                          CALL    $GTPROB(PROB,CHNXIT) CONVERT PROBLEM NO.
      00015  0074 00 4 00000         TSX     $GTPROB,4                                                        .002
      00016  3 00000 0 00411         PAR     PROB                                                             .004
      00017  3 00000 0 00401         PAR     CHNXIT                                                           .004

      00020                          CALL    GETCOM(2)     GET PROGRAMMER NO.
      00020  0074 00 4 02201         TSX     GETCOM,4                                                         .002
      00021  3 00000 0 00002         PAR     2                                                                .004
      00022  0602 00 0 00412         SLW     PROG          STORE PROGRAMMER NO.

      00023                          CALL    ALLOW(PROB,PROG) PERMIT THE USER
      00023  0074 00 4 02202         TSX     ALLOW,4                                                          .002
      00024  3 00000 0 00411         PAR     PROB                                                             .004
      00025  3 00000 0 00412         PAR     PROG                                                             .004

      00026 -0500 00 0 00411         CAL     PROB          SET WPROB AND WPROG
      00027  0602 00 0 00414         SLW     WPROB         FOR WRMESS
      00030 -0500 00 0 00412         CAL     PROG          ..
      00031  0602 00 0 00415         SLW     WPROG         ..

      00032                   BEGIN  CALL    SETFUL        INTO 12-BIT MODE
      00032  0074 00 4 02203         TSX     SETFUL,4                                                         .002

      00033 -0500 00 0 00426         CAL     BGNMSG        GET BEGINNING MESSAGE
      00034  0602 00 0 00430         SLW     TBUFF         ..
      00035                          CALL    WRITE(CHNXIT) AND SEND OUT INITIAL MESSAGE
      00035  0074 00 4 00237         TSX     WRITE,4                                                          .002
      00036  3 00000 0 00401         PAR     CHNXIT                                                           .004
1            ASCII INTERCONSOLE COMMUNICATIONS ROUTINES.                         05/12/69 1724.0 PAGE 3
                           READIN - READ INPUT AND DISPATCH ON IT.

      00037  0520 00 0 00417  LOOP   ZET     ETXSW.        CHECK FOR 'ETX' RECEIVED
      00040  0020 00 0 00401         TRA     CHNXIT        EXIT ON 'ETX'

      00041                   READIN CALL    RDFLXA((TBUFF,,WDSLIN)) READ INPUT
      00041  0074 00 4 02204         TSX     RDFLXA,4                                                         .002
      00042  3 00016 0 00430         PAR     TBUFF,,WDSLIN                                                    .004
      00043  0602 00 0 00416         SLW     RDWRD         SAVE RETURN WORD FROM 'RDFLXA'

      00044                          CALL    COMCHK(SEND)  CHECK FOR I/C MESSAGE
      00044  0074 00 4 00302         TSX     COMCHK,4                                                         .002
      00045  3 00000 0 00051         PAR     SEND                                                             .004

      00046                          CALL    RECMES(READIN) INTERCONSOLE, RECEIVE THE MESSAGE
      00046  0074 00 4 00057         TSX     RECMES,4                                                         .002
      00047  3 00000 0 00041         PAR     READIN                                                           .004
      00050  0020 00 0 00037         TRA     LOOP          ..

      00051                   SEND   CALL    INPUT(READIN) PROCESS CONSOLE INPUT
      00051  0074 00 4 00135         TSX     INPUT,4                                                          .002
      00052  3 00000 0 00041         PAR     READIN                                                           .004
      00053  0601 00 0 02177         STO     CHRCNT        SAVE NO. OF CHARACTERS READ

      00054                          CALL    SNDMES(CHRCNT) SEND OUT THE MESSAGE
      00054  0074 00 4 00177         TSX     SNDMES,4                                                         .002
      00055  3 00000 0 02177         PAR     CHRCNT                                                           .004
      00056  0020 00 0 00037         TRA     LOOP          ..

1            ASCII INTERCONSOLE COMMUNICATIONS ROUTINES.                         05/12/69 1724.0 PAGE 4
                           RECMES - RECEIVE I/C MESSAGE.

      00057  0634 00 4 00102  RECMES SXA     RECX4,4       SAVE XR4

      00060  0534 00 2 02175         LXA     INCHR,2       INPUT CHARACTER INDEX
      00061  0774 00 4 00014         AXT     ICWDS,4       NO. OF WORDS IN TBUFF

      00062  0560 00 4 00446  LDQ.R  LDQ     TBUFF+WDSLIN,4 PICK UP WORD
      00063  0774 00 1 00044         AXT     36,1          ..
      00064 -0754 00 0 00000  ZAC.R  ZAC                   ..
      00065 -0763 00 0 00011         LGL     ABITS         EXTRACT CHARACTER
      00066 -0340 00 0 00425         LAS     C.EOT         CHECK FOR EOT CHARACTER
      00067  0020 00 0 00071         TRA     *+2           ..
      00070  0020 00 0 00104         TRA     EOT.R         END OF THIS MESSAGE

      00071  1 00001 2 00072         TXI     *+1,2,1       STEP INDEX
      00072  0602 00 2 02004         SLW     AIBUFF,2      AND DEPOSIT CHARACTER
      00073  0322 00 0 00424         ERA     C.ETX         CHECK FOR 'ETX' CHARACTER
      00074 -0100 00 0 00076         TNZ     *+2           ..
      00075 -0625 00 0 00417         STL     ETXSW.        SET 'ETX' SWITCH

      00076  3 00547 2 00104         TXH     EOT.R,2,N.IN-1 TEST FOR BUFFER OVERFLOW
      00077  2 00011 1 00064         TIX     ZAC.R,1,ABITS LOOP
      00100  2 00001 4 00062         TIX     LDQ.R,4,1     ..

      00101  0634 00 2 02175         SXA     INCHR,2       SAVE INPUT INDEX
      00102  0774 00 4 00000  RECX4  AXT     **,4          RESTORE XR4
      00103  0020 60 4 00001         TRA*    1,4           TAKE INCOMPLETE MESSAGE RETURN


      00104  0634 00 2 02175  EOT.R  SXA     INCHR,2       SAVE INPUT INDEX

      00105                          CALL    $TYPOUT(AIBUFF,INCHR) TYPE OUT LINE
      00105  0074 00 4 00001         TSX     $TYPOUT,4                                                        .002
      00106  3 00000 0 02004         PAR     AIBUFF                                                           .004
      00107  3 00000 0 02175         PAR     INCHR                                                            .004

      00110  0600 00 0 02175         STZ     INCHR         RESET INPUT INDEX
      00111  0522 00 0 00102         XEC     RECX4         RESTORE XR4
      00112  0020 00 4 00002         TRA     2,4           AND TAKE NORMAL RETURN
1            ASCII INTERCONSOLE COMMUNICATIONS ROUTINES.                         05/12/69 1724.0 PAGE 5
                           PRWORD/PRBUFF - TYPEWRITER OUTPUT BUFFERING ROUTINES.

      00113  0634 00 4 00121  PRWORD SXA     PRWX4,4       SAVE XR4

      00114 -0500 60 4 00001         CAL*    1,4           PICK UP OUTPUT WORD
      00115  0774 00 4 00034  PRINDX AXT     2*WDSLIN,4    BUFFER INDEX
      00116  0602 00 4 00464         SLW     TBUFF+2*WDSLIN,4 STORE WORD
      00117 -2 00001 4 00130         TNX     PRW,4,1       CHECK FOR FULL BUFFER
      00120  0634 00 4 00115         SXA     PRINDX,4      SAVE INDEX

      00121  0774 00 4 00000  PRWX4  AXT     **,4          RESTORE XR4
      00122  0020 00 4 00002         TRA     2,4           AND RETURN

      00123  1 00001 4 00124  PRBUFF TXI     *+1,4,1       ADJUST XR4
      00124  0634 00 4 00121         SXA     PRWX4,4       AND SAVE IT

      00125  0535 00 4 00115         LAC     PRINDX,4      PICK UP PRINT INDEX
      00126  1 00034 4 00127         TXI     *+1,4,2*WDSLIN CALCULATE SIZE OF BUFFER
      00127 -0634 00 4 00131         SXD     PRW+1,4       AND SET UP CALL TO WRFLXA

      00130                   PRW    CALL    WRFLXA((TBUFF,,2*WDSLIN)) PRINT THE LINE
      00130  0074 00 4 02205         TSX     WRFLXA,4                                                         .002
      00131  3 00034 0 00430         PAR     TBUFF,,2*WDSLIN                                                  .004

      00132  0774 00 4 00034         AXT     2*WDSLIN,4    RESET BUFFER POINTER
      00133 -0634 00 4 00131         SXD     PRW+1,4       ..
      00134  0020 00 0 00120         TRA     PRWX4-1       AND RETURN
1            ASCII INTERCONSOLE COMMUNICATIONS ROUTINES.                         05/12/69 1724.0 PAGE 6
                           INPUT - READ CONSOLE AND CONVERT TO ASCII.

      00135  0634 00 4 00151  INPUT  SXA     INX4,4        SAVE XR4

      00136  0774 00 2 00000  INDEX  AXT     0,2           INPUT WORD INDEX
      00137  0774 00 4 00016         AXT     WDSLIN,4      TBUFF INDEX
      00140 -0500 00 4 00446  CAL.I  CAL     TBUFF+WDSLIN,4 PICK UP WORD
      00141  1 00001 2 00142         TXI     *+1,2,1       STEP INPUT INDEX
      00142  0602 00 2 02174         SLW     INBUFF,2      DEPOSIT WORD
      00143  3 00167 2 00153         TXH     FULLIN,2,INSIZE-1 CHECK FOR OVERFLOW
      00144  2 00001 4 00140         TIX     CAL.I,4,1     LOOP

      00145  0441 00 0 00416         LDI     RDWRD         PICK UP RDFLXA RETURN WORD
      00146  0056 00  040000         RNT     40000         TEST FOR BREAK
      00147  0020 00 0 00153         TRA     FULLIN        BREAK FOUND, CONVERT INPUT

      00150  0634 00 2 00136         SXA     INDEX,2       SAVE INDEX
      00151  0774 00 4 00000  INX4   AXT     **,4          RESTORE XR4
      00152  0020 60 4 00001         TRA*    1,4           TAKE INCOMPLETE RETURN


      00153  0634 00 0 00136  FULLIN ZSA     INDEX         RESET INDICES
      00154  0634 00 0 00171         ZSA     TYNDX         ..

      00155                          CALL    $TYPEIN(AOBUFF,OUTCHR) CONVERT TO ASCII
      00155  0074 00 4 00002         TSX     $TYPEIN,4                                                        .002
      00156  3 00000 0 01234         PAR     AOBUFF                                                           .004
      00157  3 00000 0 02176         PAR     OUTCHR                                                           .004

      00160  0734 00 2 00000         PAX     ,2            LENGTH OF LINE IN XR2
      00161 -0500 00 0 00425         CAL     C.EOT         SET LAST CHARACTER TO 'EOT'
      00162  1 00001 2 00163         TXI     *+1,2,1       ..
      00163  0602 00 2 01234         SLW     AOBUFF,2      ..
      00164  0754 00 2 00000         PXA     ,2            CORRECT COUNT IN AC

      00165  0522 00 0 00151         XEC     INX4          RESTORE XR4
      00166  0020 00 4 00002         TRA     2,4           AND TAKE NORMAL RETURN
1            ASCII INTERCONSOLE COMMUNICATIONS ROUTINES.                         05/12/69 1724.0 PAGE 7
                           TYLINE/TYWORD - TYPEWRITER INPUT SUPPLY ROUTINES.

      00167  0020 00 4 00001  TYLINE TRA     1,4           JUST RETURN


      00170  0634 00 4 00175  TYWORD SXA     TYX4,4        SAVE XR4

      00171  0774 00 4 00000  TYNDX  AXT     0,4           PICK UP SUPPLY INDEX
      00172  1 00001 4 00173         TXI     *+1,4,1       STEP INDEX
      00173  0500 00 4 02174         CLA     INBUFF,4      PICK UP WORD
      00174  0634 00 4 00171         SXA     TYNDX,4       AND SAVE IT

      00175  0774 00 4 00000  TYX4   AXT     **,4          RESTORE XR4
      00176  0020 00 4 00001         TRA     1,4           AND RETURN WITH WORD
1            ASCII INTERCONSOLE COMMUNICATIONS ROUTINES.                         05/12/69 1724.0 PAGE 8
                           SNDMES - PACK ASCII MESSAG AND SEND IT OUT.

      00177  0634 00 4 00235  SNDMES SXA     SNDX4,4       SAVE XR4
      00200 -0500 60 4 00001         CAL*    1,4           PICK UP CHARACTER COUNT
      00201  0734 00 2 00000         PAX     ,2            AND SET 'TXH' INSTRUCTION
      00202 -0634 00 2 00220         SXD     TXH.O,2       ..

      00203  0774 00 2 00001         AXT     1,2           UNPACKED BUFFER INDEX
      00204  0774 00 4 00014  NXT.O  AXT     ICWDS,4       PACKED BUFFER INDEX
      00205  0774 00 1 00044         AXT     36,1          SHIFT INDEX
      00206  0560 00 2 01234  LDQ.O  LDQ     AOBUFF,2      PICK UP CHARACTER
      00207 -0773 00 0 00033         RQL     36-ABITS      LEFT-JUSTIFY
      00210 -0500 00 4 00444         CAL     TBUFF+ICWDS,4 PICK UP PARTIAL PACKED WORD
      00211 -0763 00 0 00011         LGL     ABITS         PACK
      00212  0602 00 4 00444         SLW     TBUFF+ICWDS,4 AND STORE
      00213 -0320 00 0 02250         ANA     =O777         MASK RIGHT-MOST CHARACTER
      00214  0322 00 0 00424         ERA     C.ETX         TEST FOR 'ETX' CHARACTER
      00215 -0100 00 0 00217         TNZ     *+2           ..
      00216 -0625 00 0 00417         STL     ETXSW.        SET 'ETX' SWITCH
      00217  1 00001 2 00220         TXI     *+1,2,1       STEP INDEX
      00220  3 00000 2 00226  TXH.O  TXH     END.O,2,**    TEST FOR COMPLETION

      00221  2 00011 1 00206         TIX     LDQ.O,1,ABITS NEXT CHARACTER
      00222  2 00001 4 00205         TIX     NXT.O+1,4,1   START NEW WORD

      00223                          CALL    WRITE(CHNXIT) SEND OUT BUFFER
      00223  0074 00 4 00237         TSX     WRITE,4                                                          .002
      00224  3 00000 0 00401         PAR     CHNXIT                                                           .004
      00225  0020 00 0 00204         TRA     NXT.O         AND GO BACK FOR MORE


      00226 -0500 00 4 00444  END.O  CAL     TBUFF+ICWDS,4 PICK UP LAST WORD
      00227 -2 00011 1 00232         TNX     *+3,1,ABITS   LEFT-JUSTIFY
      00230 -0763 00 0 00011         LGL     ABITS         ..
      00231  0020 00 0 00227         TRA     *-2           ..
      00232  0602 00 4 00444         SLW     TBUFF+ICWDS,4 AND STORE

      00233                          CALL    WRITE(CHNXIT) WRITE OUT LAST BUFFER FULL
      00233  0074 00 4 00237         TSX     WRITE,4                                                          .002
      00234  3 00000 0 00401         PAR     CHNXIT                                                           .004

      00235  0774 00 4 00000  SNDX4  AXT     **,4          RESTORE XR4
      00236  0020 00 4 00001         TRA     1,4           AND RETURN
1            ASCII INTERCONSOLE COMMUNICATIONS ROUTINES.                         05/12/69 1724.0 PAGE 9
                           WRITE - CALL WRMESS TO SEND MESSAGE.

      00237  0634 00 4 00257  WRITE  SXA     WRX4,4        SAVE XR4

      00240 -0500 00 4 00001         CAL     1,4           GET ERROR RETURN
      00241  0621 00 0 00301         STA     WERRET        AND SET IT
      00242  0600 00 0 00420         STZ     FULL.         RESET BUFFER FULL INDIC.

      00243                   WRM    CALL    WRMESS(WPROB,WPROG(TBUFF,,ICWDS)) SEND THE MESSAGE
      00243  0074 00 4 02206         TSX     WRMESS,4                                                         .002
      00244  3 00000 0 00414         PAR     WPROB                                                            .004
      00245  3 00000 0 00415         PAR     WPROG                                                            .004
      00246  3 00014 0 00430         PAR     TBUFF,,ICWDS                                                     .004
      00247  0734 00 4 00000         PAX     ,4            RETURN CODE IN XR4
      00250  0020 00 4 00254         TRA     WERROR,4      DISPATCH ON RETURN CODE

      00251  0020 00 0 00277         TRA     WERR3         PERMISSION DENIED
      00252  0020 00 0 00270         TRA     WERR2         BUFFER FULL
      00253  0020 00 0 00261         TRA     WERR1         USER NOT LOGGED IN
                       00254  WERROR SYN     *

      00254  0520 00 0 00420         ZET     FULL.         CHECK FOR BUFFER OVERFLOW
      00255                          COMENT  CONTIN,6(0P1L1E1A1S1E0 1C1O1N1T1I1N1U1E0.)
      00255  0074 00 4 02207         TSX     WRFLX,4                                                          .003
      00256  3 00006 0 02210         PAR     CONTIN,,6                                                        .005

      00257  0774 00 4 00000  WRX4   AXT     **,4          RESTORE XR4
      00260  0020 00 4 00002         TRA     2,4           AND RETURN


      00261                   WERR1  CALL    SETBCD        INTO 6-BIT MODE
      00261  0074 00 4 02216         TSX     SETBCD,4                                                         .002
      00262                          CALL    WRFLXA((WPROB,,2)) PRINT PROBN AND PROGN
      00262  0074 00 4 02205         TSX     WRFLXA,4                                                         .002
      00263  3 00002 0 00414         PAR     WPROB,,2                                                         .004
      00264                          CALL    SETFUL        ..
      00264  0074 00 4 02203         TSX     SETFUL,4                                                         .002
      00265                          COMENT  NOLOG,6(0 1I1S0 1N1O1T0 1L1O1G1G1E1D0 1I1N0.)
      00265  0074 00 4 02207         TSX     WRFLX,4                                                          .003
      00266  3 00006 0 02217         PAR     NOLOG,,6                                                         .005
      00267  0020 00 0 00301         TRA     WERRET        ..

      00270 -0520 00 0 00420  WERR2  NZT     FULL.         CHECK FOR BUFFER ALREADY FULL
      00271                          COMENT  STOP,7(0P1L1E1A1S1E0 1S1T1O1P0 1T1Y1P1I1N1G0.)
      00271  0074 00 4 02207         TSX     WRFLX,4                                                          .003
      00272  3 00007 0 02225         PAR     STOP,,7                                                          .005
      00273 -0625 00 0 00420         STL     FULL.         SET FULL INDIC.
      00274 -0500 00 0 02247         CAL     =1            GET OUT OF CORE AND SLEEP
      00275                          CALL    SLEEP         ..
      00275  0074 00 4 02234         TSX     SLEEP,4                                                          .002
      00276  0020 00 0 00243         TRA     WRM           GO TRY TO WRITE AGAIN

      00277                   WERR3  COMENT  DENY,6(OP1E1R1M1I1S1S1I1O1N0 1D1E1N1I1E1D0.)
      00277  0074 00 4 02207         TSX     WRFLX,4                                                          .003
      00300  3 00006 0 02235         PAR     DENY,,6                                                          .005
      00301  0020 00 0 00000  WERRET TRA     **            TAKE ERROR RETURN
1            ASCII INTERCONSOLE COMMUNICATIONS ROUTINES.                         05/12/69 1724.0 PAGE 10
                           INTERCONSOLE UTILITY ROUTINES.

      00302  0441 00 0 00430  COMCHK LDI     TBUFF         PICK UP FIRST WORD OF MESSAGE
      00303 -0056 00  770000         LNT     770000        TEST FOR '77' CHARACTER
      00304  0020 60 4 00001         TRA*    1,4           ERROR RETURN IF NOT INTERCONSOLE
      00305  0020 00 4 00002         TRA     2,4           NORMAL RETURN
1            ASCII INTERCONSOLE COMMUNICATIONS ROUTINES.                         05/12/69 1724.0 PAGE 11
                           REST - SLEEPING PROGRAM.

      00306                   REST   CALL    GETCOM(2)     PICK UP SLEEPING PARAMETER
      00306  0074 00 4 02201         TSX     GETCOM,4                                                         .002
      00307  3 00000 0 00002         PAR     2                                                                .004
      00310  0602 00 0 00422         SLW     NOISE.        ..
      00311                          CALL    GETCOM(3)     GET ALLOWED PROBLEM NO.
      00311  0074 00 4 02201         TSX     GETCOM,4                                                         .002
      00312  3 00000 0 00003         PAR     3                                                                .004
      00313  0602 00 0 00411         SLW     PROB          ..
      00314                          CALL    GETCOM(4)     AND ALLOWED PROGRAMMER NO.
      00314  0074 00 4 02201         TSX     GETCOM,4                                                         .002
      00315  3 00000 0 00004         PAR     4                                                                .004
      00316  0602 00 0 00412         SLW     PROG          ..
      00317 -0625 00 0 00421         STL     NAP.          SET INTERCONSOLE SLEEP INDIC.

      00320                          CALL    ALLOW(PROB,PROG) ALLOW COMMUNICATION
      00320  0074 00 4 02202         TSX     ALLOW,4                                                          .002
      00321  3 00000 0 00411         PAR     PROB                                                             .004
      00322  3 00000 0 00412         PAR     PROG                                                             .004

      00323                          CALL    UPDATE        NOW IS A GOOD TIME TO UPDATE U.F.D.
      00323  0074 00 4 02243         TSX     UPDATE,4                                                         .002

      00324 -0520 00 0 00422  RSLOOP NZT     NOISE.        CHECK FOR SLEEP PRINT
      00325                          CALL    PTIME         GO PRINT TIME COMMENT
      00325  0074 00 4 00354         TSX     PTIME,4                                                          .002

      00326 -0500 00 0 00374  BKTOSL CAL     SLTIME        GET TIME FOR SLEEPING
      00327                          CALL    SLEEP         AND GO TO SLEEP
      00327  0074 00 4 02234         TSX     SLEEP,4                                                          .002

      00330                          CALL    RDMESS((TBUFF,,WDSLIN)) CHECK FOR INPUT
      00330  0074 00 4 02244         TSX     RDMESS,4                                                         .002
      00331  3 00016 0 00430         PAR     TBUFF,,WDSLIN                                                    .004
      00332  0020 00 0 00324         TRA     RSLOOP        IF NONE, BACK TO SLEEP

      00333                          CALL    COMCHK(BKTOSL) CHECK FOR INTERCONSOLE MESSAGE
      00333  0074 00 4 00302         TSX     COMCHK,4                                                         .002
      00334  3 00000 0 00326         PAR     BKTOSL                                                           .004

      00335 -0500 00 0 00430         CAL     TBUFF         PICK UP PROBLEM NO. OF SENDER
      00336  0322 00 0 02251         ERA     =O170000000000 RESET THE '77' BITS
      00337  0602 00 0 00414         SLW     WPROB         ..
      00340 -0500 00 0 00431         CAL     TBUFF+1       PROGRAMMER NO. OF SENDER
      00341  0602 00 0 00415         SLW     WPROG         ..

      00342                          CALL    WRFLX((FROM,,3)) IDENTIFY SENDER
      00342  0074 00 4 02207         TSX     WRFLX,4                                                          .002
      00343  3 00003 0 00413         PAR     FROM,,3                                                          .004

      00344                          CALL    ALLOW(WPROB,WPROG) ALLOW THE SENDER ONLY
      00344  0074 00 4 02202         TSX     ALLOW,4                                                          .002
      00345  3 00000 0 00414         PAR     WPROB                                                            .004
      00346  3 00000 0 00415         PAR     WPROG                                                            .004
1            ASCII INTERCONSOLE COMMUNICATIONS ROUTINES.                         05/12/69 1724.0 PAGE 12
                           REST - SLEEPING PROGRAM.

      00347  0020 00 0 00032         TRA     BEGIN         AND BEGIN COMMUNICATIONS


      00350                   NAPXIT CALL    ALLOW(PROB,PROG) ALLOW REQUESTED USERS
      00350  0074 00 4 02202         TSX     ALLOW,4                                                          .002
      00351  3 00000 0 00411         PAR     PROB                                                             .004
      00352  3 00000 0 00412         PAR     PROG                                                             .004

      00353  0020 00 0 00326         TRA     BKTOSL        AND GO BACK TO SLEEP
1            ASCII INTERCONSOLE COMMUNICATIONS ROUTINES.                         05/12/69 1724.0 PAGE 13
                           PTIME - PRINT SLEEP TIME FOR USER.

      00354  0634 00 4 00365  PTIME  SXA     PTX4,4        SAVE XR4
      00355  0634 00 2 00364         SXA     PTX2,2        AND XR2

      00356                          CALL    WRFLX((COMNT,,2)) PRINT SLEEP MESSAGE
      00356  0074 00 4 02207         TSX     WRFLX,4                                                          .002
      00357  3 00002 0 00372         PAR     COMNT,,2                                                         .004

      00360  0534 00 4 00373         LXA     COMNT+1,4     PICK UP TIME
      00361  1 00100 4 00362         TXI     *+1,4,DMIN    INCREASE MINUTES
      00362  3 50500 4 00367         TXH     HRS,4,MAXMIN  CHECK FOR OVERFLOW
      00363  0634 00 4 00373  NEWTIM SXA     COMNT+1,4     SAVE NEW MINUTES
      00364  0774 00 2 00000  PTX2   AXT     **,2          RESTORE XRS
      00365  0774 00 4 00000  PTX4   AXT     **,4          ..
      00366  0020 00 4 00001         TRA     1,4           AND RETURN

      00367 -0534 00 2 00373  HRS    LXD     COMNT+1,2     PICK UP HOURS PART OF TIME
      00370  1 00001 2 00371         TXI     *+1,2,1       INCREASE BY 1
      00371  1 77200 4 00363         TXI     NEWTIM,4,-6*DMIN SET MINUTES BACK TO ZERO

                      000100  DMIN   BOOL    100
                      050500  MAXMIN BOOL    50500

      00372  636023462425     COMNT  VFD     H6/T,O6/60,H24/CODE,O24/60600035
      00373  606000350000

      00374  0 00000 0 01130  SLTIME PZE     60*10
1            ASCII INTERCONSOLE COMMUNICATIONS ROUTINES.                         05/12/69 1724.0 PAGE 14
                           EXIT FROM I/C ROUTINES.

                       00375  BRKXIT SYN     *
      00375 -0500 00 0 00427         CAL     ETXMSG        GET ETX MESSAGE
      00376  0602 00 0 00430         SLW     TBUFF         AND PLACE IN BUFFER
      00377                          CALL    WRITE(CHNXIT) SEND OUT MESSAGE
      00377  0074 00 4 00237         TSX     WRITE,4                                                          .002
      00400  3 00000 0 00401         PAR     CHNXIT                                                           .004

      00401                   CHNXIT CALL    FORBID        FORBID ALL COMMUNICATION
      00401  0074 00 4 02245         TSX     FORBID,4                                                         .002
      00402                          CALL    SETBCD        AND RETURN TO 6-BIT MODE
      00402  0074 00 4 02216         TSX     SETBCD,4                                                         .002
      00403                          CALL    WRFLX((*,,0)) PRINT A SINGLE C.R.
      00403  0074 00 4 02207         TSX     WRFLX,4                                                          .002
      00404  3 00000 0 00404         PAR     *,,0                                                             .004

      00405  0520 00 0 00421         ZET     NAP.          CHECK FOR SLEEPING
      00406  0020 00 0 00350         TRA     NAPXIT        YES, GO BACK TO SLEEP

      00407                          CALL    CHNCOM(0)     EXIT TO CHNCOM
      00407  0074 00 4 02246         TSX     CHNCOM,4                                                         .002
      00410  3 00000 0 00000         PAR     0                                                                .004
1            ASCII INTERCONSOLE COMMUNICATIONS ROUTINES.                         05/12/69 1724.0 PAGE 15
                           STORAGE AND CONSTANTS.

      00411  0 00000 0 00000  PROB   PZE
      00412  0 00000 0 00000  PROG   PZE

      00413  602651464460     FROM   BCI     1, FROM
      00414  0 00000 0 00000  WPROB  PZE
      00415  0 00000 0 00000  WPROG  PZE

      00416  0 00000 0 00000  RDWRD  PZE
      00417  0 00000 0 00000  ETXSW. PZE
      00420  0 00000 0 00000  FULL.  PZE
      00421  0 00000 0 00000  NAP.   PZE
      00422  0 00000 0 00000  NOISE. PZE
      00423  0 00000 0 00004  N.ACHR PZE     ACHR

                      000003  ETX    BOOL    003
                      000004  EOT    BOOL    004
                      000012  NL     BOOL    012

      00424  000000000003     C.ETX  VFD     O36/ETX
      00425  000000000004     C.EOT  VFD     O36/EOT

      00426  012004000000     BGNMSG VFD     O9/NL,O9/EOT
      00427  003004000000     ETXMSG VFD     O9/ETX,O9/EOT

      00430                   TBUFF  BSS     2*WDSLIN
      01234                   AOBUFF BES     N.OUT
      02004                   AIBUFF BES     N.IN
      02174                          BES     INSIZE
      02174                   INBUFF BSS     1

      02175  0 00000 0 00000  INCHR  PZE
      02176  0 00000 0 00550  OUTCHR PZE     N.OUT
      02177  0 00000 0 00000  CHRCNT PZE


      02200                          RMT     *
      02200  0101 00 0 02261  SETBRK TIA     =HSETBRK                                                         .002
      02201  0101 00 0 02255  GETCOM TIA     =HGETCOM                                                         .002
      02202  0101 00 0 02252  ALLOW  TIA     =HALLOW                                                          .002
      02203  0101 00 0 02262  SETFUL TIA     =HSETFUL                                                         .002
      02204  0101 00 0 02256  RDFLXA TIA     =HRDFLXA                                                         .002
      02205  0101 00 0 02265  WRFLXA TIA     =HWRFLXA                                                         .002
      02206  0101 00 0 02267  WRMESS TIA     =HWRMESS                                                         .002
      02207  0101 00 0 02266  WRFLX  TIA     =HWRFLX                                                          .002
      02210  004701430125     CONTIN BCI     6,0P1L1E1A1S1E0 1C1O1N1T1I1N1U1E0.                               .002
      02211  012101620125
      02212  006001230146
      02213  014501630131
      02214  014501640125
      02215  003360606060
      02216  0101 00 0 02260  SETBCD TIA     =HSETBCD                                                         .002
      02217  006001310162     NOLOG  BCI     6,0 1I1S0 1N1O1T0 1L1O1G1G1E1D0 1I1N0.                           .002
      02220  006001450146
      02221  016300600143
      02222  014601270127
1            ASCII INTERCONSOLE COMMUNICATIONS ROUTINES.                         05/12/69 1724.0 PAGE 16
                           STORAGE AND CONSTANTS.

      02223  012501240060
      02224  013101450033
      02225  004701430125     STOP   BCI     7,0P1L1E1A1S1E0 1S1T1O1P0 1T1Y1P1I1N1G0.                         .002
      02226  012101620125
      02227  006001620163
      02230  014601470060
      02231  016301700147
      02232  013101450127
      02233  003360606060
      02234  0101 00 0 02263  SLEEP  TIA     =HSLEEP                                                          .002
      02235  464701250151     DENY   BCI     6,OP1E1R1M1I1S1S1I1O1N0 1D1E1N1I1E1D0.                           .002
      02236  014401310162
      02237  016201310146
      02240  014500600124
      02241  012501450131
      02242  012501240033
      02243  0101 00 0 02264  UPDATE TIA     =HUPDATE                                                         .002
      02244  0101 00 0 02257  RDMESS TIA     =HRDMESS                                                         .002
      02245  0101 00 0 02254  FORBID TIA     =HFORBID                                                         .002
      02246  0101 00 0 02253  CHNCOM TIA     =HCHNCOM                                                         .002

                                     END

        LITERALS
      02247  000000000001
      02250  000000000777
      02251  170000000000
      02252  214343466660
      02253  233045234644
      02254  264651223124
      02255  272563234644
      02256  512426436721
      02257  512444256262
      02260  622563222324
      02261  622563225142
      02262  622563266443
      02263  624325254760
      02264  644724216325
      02265  665126436721
      02266  665126436760
      02267  665144256262
      02270  745125626334
1            ASCII INTERCONSOLE COMMUNICATIONS ROUTINES.                         05/12/69 1724.0 PAGE 1
                        POST PROCESSOR ASSEMBLY DATA

       2271 IS THE FIRST LOCATION NOT USED BY THIS PROGRAM

0REFERENCES TO DEFINED SYMBOLS
         12     NL   424,  426
          4    EOT   424,  425,  426,  427
          3    ETX   424,  427
        367    HRS   362
        130    PRW   117,  127,  133
        243    WRM   276
          4   ACHR     5,  423
          3   CCHR     5
       2235   DENY   300
        100   DMIN   361,  371,  372
        413   FROM   343
        151   INX4   135,  165
         37   LOOP    50,   56
        421   NAP.   317,  405
        550   N.IN     5,   76, 1234
        411   PROB    12,   16,   24,   26,  313,  321,  351
        412   PROG    22,   25,   30,  316,  322,  352
        364   PTX2   355
        365   PTX4   354
        306   REST    14
         51   SEND    45
       2225   STOP   272
        175   TYX4   170
        257   WRX4   237
         11  ABITS     5,   65,   77,  207,  211,  221,  227,  230
       2202  ALLOW    23,  320,  344,  350
         32  BEGIN   347
        140  CAL.I   144
         14  CBITS     5
        425  C.EOT    66,  161
        424  C.ETX    73,  214
        372  COMNT   357,  360,  363,  367
        226  END.O   220
        104  EOT.R    70,   76
        420  FULL.   242,  254,  270,  273
         14  ICWDS     5,   61,  204,  210,  212,  226,  232,  246
       2175  INCHR    60,  101,  104,  107,  110
        136  INDEX   150,  153
        135  INPUT    51
        206  LDQ.O   221
         62  LDQ.R   100
        550  N.OUT     5,  464, 2176
       2217  NOLOG   266
        204  NXT.O   222,  225
        121  PRWX4   113,  124,  134
        354  PTIME   325
        416  RDWRD    43,  145
        102  RECX4    57,  111
       2234  SLEEP   275,  327
        235  SNDX4   177
        430  TBUFF    34,   42,   62,  116,  131,  140,  210,  212,  226,  232,  246,  302,  331,  335,  340,  376
1            ASCII INTERCONSOLE COMMUNICATIONS ROUTINES.                         05/12/69 1724.0 PAGE 2
                        POST PROCESSOR ASSEMBLY DATA

        220  TXH.O   202
        171  TYNDX   154,  174
        261  WERR1   253
        270  WERR2   252
        277  WERR3   251
        414  WPROB    27,  244,  263,  337,  345
        415  WPROG    31,  245,  341,  346
       2207  WRFLX   255,  265,  271,  277,  342,  356,  403
        237  WRITE    35,  223,  233,  377
         64  ZAC.R    77
       2004 AIBUFF    72,  106
       1234 AOBUFF   156,  163,  206
        426 BGNMSG    33
        326 BKTOSL   334,  353
        375 BRKXIT     7,  375
       2246 CHNCOM   407
        401 CHNXIT    17,   36,   40,  224,  234,  400
       2177 CHRCNT    53,   55
        302 COMCHK    44,  333
       2210 CONTIN   256
        427 ETXMSG   375
        417 ETXSW.    37,   75,  216
       2245 FORBID   401
        153 FULLIN   143,  147
       2201 GETCOM    10,   20,  306,  311,  314
          0 GTPROB    15
       2174 INBUFF   142,  173
        170 INSIZE     5,  143, 2004
      50500 MAXMIN   362,  372
        350 NAPXIT   406
        363 NEWTIM   371
        423 N.ACHR
        422 NOISE.   310,  324
       2176 OUTCHR   157
        123 PRBUFF     0
        115 PRINDX   120,  125
        113 PRWORD     0
       2204 RDFLXA    41
       2244 RDMESS   330
         41 READIN    47,   52
         57 RECMES    46
        324 RSLOOP   332
       2216 SETBCD   261,  402
       2200 SETBRK     6
       2203 SETFUL    32,  264
        374 SLTIME   326
        177 SNDMES    54
        167 TYLINE     0
          2 TYPEIN   155
          1 TYPOUT   105
        170 TYWORD     0
       2243 UPDATE   323
         16 WDSLIN     5,   42,   62,  115,  116,  126,  131,  132,  137,  140,  331,  430
        301 WERRET   241,  267
        254 WERROR   250,  254
1            ASCII INTERCONSOLE COMMUNICATIONS ROUTINES.                         05/12/69 1724.0 PAGE 3
                        POST PROCESSOR ASSEMBLY DATA

       2205 WRFLXA   130,  262
       2206 WRMESS   243

0 NO ERROR IN ABOVE ASSEMBLY.
1            GTPROB - GET PROBLEM NUMBER FOR LOGIN COMMAND.                      05/12/69 1728.5 PAGE 1

                                             2/19/66 - NOEL I. MORRIS

                              * * * * * * * * * * * * * * * * * * * * * * * * * * * * * * * * * * * *
                              *
                              *      CALLING SEQUENCE -
                              *
                              *      GTPROB. (PROBN, ERR)
                              *
                              *      PROBN  - CONTAINS UNCONVERTED PROBLEM NUMBER.  AT COMPLETION
                              *              OF CONVERSION, IT WILL CONTAIN CONVERTED PROBLEM NUMBER.
                              *      ERR    - ERROR LOCATION FOR ILLEGAL PROBLEM NUMBER.
                              *
                              *
                              * * * * * * * * * * * * * * * * * * * * * * * * * * * * * * * * * * * *


                                     UNLIST
 M                            CALL   MACRO   SUBR,LIST


                       00000         ENTRY   GTPROB

      00000  0634 00 2 00034  GTPROB SXA     GTPX,2        SAVE XR2

      00001  0560 60 4 00001         LDQ*    1,4           GET UNCONVERTED PROBLEM NUMBER
      00002 -0600 00 0 00037         STQ     BAD           SAVE FOR ERROR COMMENT

      00003  0774 00 2 00036         AXT     30,2          EXTRACT THE LETTER
      00004 -0754 00 0 00000  PBLOOP ZAC                   ..
      00005 -0763 00 0 00006         LGL     6             ..
      00006 -0340 00 0 00044         LAS     =H00000       CHECK FOR NON-BLANK
      00007  0020 00 0 00021         TRA     FCHAR         NON-BLANK FOUND
      00010  0020 00 0 00012         TRA     *+2           ..
      00011  0020 00 0 00021         TRA     FCHAR         ..
      00012  2 00006 2 00004         TIX     PBLOOP,2,6    ..

      00013  0634 00 4 00016  ERR    SXA     SVX4,4        SAVE XR4
      00014                          COMENT  BAD,5(       IS NOT A PROBLEM NUMBER)
      00014  0074 00 4 00036         TSX     WRFLX,4                                                          .003
      00015  3 00005 0 00037         PAR     BAD,,5                                                           .005
      00016  0774 00 4 00000  SVX4   AXT     **,4          RESTORE XR4
      00017  0522 00 0 00034         XEC     GTPX          RESTORE XR2
      00020  0020 60 4 00002         TRA*    2,4           ERROR RETURN


      00021  0767 00 0 00030  FCHAR  ALS     24            SHIFT TO CORRECT POSITION
      00022 -0501 00 0 00046         ORA     =H 00000      AND OR IN PRECEDING BLANK
      00023  0602 60 4 00001         SLW*    1,4           SAVE THIS PART
      00024 -0320 00 0 00045         ANA     =H0 0000      MUST BE NON-NUMERIC
      00025  0100 00 0 00013         TZE     ERR           ..

      00026 -0754 00 0 00000         ZAC                   ..
      00027 -0765 00 2 00044         LGR     36,2          RIGHT-JUSTIFY REMAINING CHARACTERS
      00030 -0130 00 0 00000         XCL                   ..
      00031 -0602 60 4 00001         ORS*    1,4           OR INTO PROBLEM NUMBER
      00032 -0320 00 0 00050         ANA     =O777760606060 MUST BE NUMERIC
1            GTPROB - GET PROBLEM NUMBER FOR LOGIN COMMAND.                      05/12/69 1728.5 PAGE 2

      00033 -0100 00 0 00013         TNZ     ERR           ..

      00034  0774 00 2 00000  GTPX   AXT     **,2          RESTORE XR2
      00035  0020 00 4 00003         TRA     3,4           RETURN


      00036                          RMT     *             REMOTE SEQUENCES.
      00036  0101 00 0 00047  WRFLX  TIA     =HWRFLX                                                          .002
      00037  606060606060     BAD    BCI     5,       IS NOT A PROBLEM NUMBER                                 .002
      00040  603162604546
      00041  636021604751
      00042  462243254460
      00043  456444222551

                                     END

        LITERALS
      00044  000000000060
      00045  006000000000
      00046  600000000000
      00047  665126436760
      00050  777760606060
1            GTPROB - GET PROBLEM NUMBER FOR LOGIN COMMAND.                      05/12/69 1728.5 PAGE 1
                        POST PROCESSOR ASSEMBLY DATA

         51 IS THE FIRST LOCATION NOT USED BY THIS PROGRAM

0REFERENCES TO DEFINED SYMBOLS
         37    BAD     2,   15
         13    ERR    25,   33
         34   GTPX     0,   17
         16   SVX4    13
         21  FCHAR     7,   11
         36  WRFLX    14
          0 GTPROB     0
          4 PBLOOP    12

0 NO ERROR IN ABOVE ASSEMBLY.


 XPAND   BCD 09/18/68 2339.1   35076         00000
1     MAD PROGRAM LISTING ... ... ...                 FILE   XPAND   MAD            04/23/68    2141.2
-
                 ..  ROUTINE TO UNTAB AND FIX LINEMARKED FILE.                                         LM00001
                 ..     J. H. SALTZER, FEBRUARY, 1965.                                                 LM00002
                 ..     MODIFIED BY S. SCHAFFNER 6-17-67                                               LM00003
                 ..   MODIFIED BY J. BIXBY 4-22-68 TO USE (INPUT PROG                                  LM00004
                 ..      INSTEAD OF (INPUT FILE)                                                       LM00005
                                                                                                       LM00006
                  NORMAL MODE IS INTEGER                                                          *001 LM00007
                  FUNCTION NAME DETAB, MAD                                                        *002 LM00008
                  BOOLEAN TRSW                                                                    *003 LM00009
                  DIMENSION CARD(100),TEMNAM(1)                                                   *004 LM00010
                  VECTOR VALUES BCKSPS = 35K                                                      *005 LM00011
                  VECTOR VALUES FENCE = 777777777777K                                             *006 LM00012
                  VECTOR VALUES TAB = 072K                                                        *007 LM00013
                  VECTOR VALUES BLANK = 60K                                                       *008 LM00014
                                                                                                       LM00015
                  WHOAMI.(TEMNAM(1)...2)                                                          *009 LM00016
                  OLDNAM = COMARG.(1)                                                             *010 LM00017
                  WHENEVER OLDNAM .E. FENCE, TRANSFER TO BADARG                                   *011 LM00018
                  OLDSEC = COMARG.(2)                                                             *012 LM00019
                  WHENEVER OLDSEC .E. FENCE, TRANSFER TO BADARG                                   *013 LM00020
                  NEWNAM = COMARG.(3)                                                             *014 LM00021
                  WHENEVER NEWNAM .E. FENCE                                                       *015 LM00022
                    NEWNAM = OLDNAM                                                               *016 LM00023
                    NEWSEC = OLDSEC                                                               *017 LM00024
                    TRANSFER TO SKP4                                                              *018 LM00025
                  END OF CONDITIONAL                                                              *019 LM00026
                  NEWSEC = COMARG.(4)                                                             *020 LM00027
                  WHENEVER  NEWSEC .E. FENCE, NEWSEC = OLDSEC                                     *021 LM00028
      SKP4        WHENEVER NEWSEC .E. $   FAP$                                                    *022 LM00029
                    DETAB = FAP.                                                                  *023 LM00030
                  OR WHENEVER NEWSEC .E. $   MAD$                                                 *024 LM00031
                    DETAB = MAD.                                                                  *025 LM00032
                  OR WHENEVER OLDSEC .E. $   FAP$                                                 *026 LM00033
                    DETAB = FAP.                                                                  *027 LM00034
                  OR WHENEVER OLDSEC .E. $   MAD$                                                 *028 LM00035
                    DETAB = MAD.                                                                  *029 LM00036
                  OTHERWISE                                                                       *030 LM00037
                    DETAB = STRIP.                                                                *031 LM00038
                  END OF CONDITIONAL                                                              *032 LM00039
                                                                                                       LM00040
                  SEEK.(OLDNAM, OLDSEC, CHN)                                                      *033 LM00041
                  CLRNAM.($(INPUT$, TEMNAM, CHN, 1B)                                              *034 LM00042
                  ASSIGN.($(INPUT$, TEMNAM)                                                       *035 LM00043
                  COUNT = 0                                                                       *036 LM00044
      LOOP        END = READ.(CARD, 100, EOF)                                                     *037 LM00045
                  COUNT = COUNT + 1                                                               *038 LM00046
                  TRSW = 0B                                                                       *039 LM00047
                  END = END-1                                                                     *040 LM00048
                  DETAB(0).                                                                       *041 LM00049
                  WRCARD.(CARD, END)                                                              *042 LM00050
                  WHENEVER TRSW                                                                   *043 LM00051
                    PRINT COMMENT $0T1H1I1S0 1C1A1R1D0 0T0R0U0N0C0A0T0E0D0:$                      *044 LM00052
                    TYPOUT.(CARD, 72)                                                             *045 LM00053
                    PRBUFF.                                                                       *046 LM00054
                  END OF CONDITIONAL                                                              *047 LM00055
                  TRANSFER TO LOOP                                                                *048 LM00056
      EOF         FILE.                                                                           *049 LM00057
                  CLRNAM.(NEWNAM, NEWSEC, COM, 1B)                                                *050 LM00058
                  RENAME.($(INPUT$, TEMNAM, NEWNAM, NEWSEC)                                       *051 LM00059
      CHN         SETBCD.                                                                         *052 LM00060
                  PRINT COMMENT $ *$                                                              *053 LM00061
                  CHNCOM.                                                                         *054 LM00062
                                                                                                       LM00063
      COM         SETBCD.                                                                         *055 LM00064
                  PRMESS.($NEW FI$,$LE NAM$,$E IS ($,$INPUT $,TEMNAM)                             *056 LM00065
                  TRANSFER TO CHN                                                                 *057 LM00066
                                                                                                       LM00067
      BADARG      PRINT COMMENT $0N1O1T0 1E1N1O1U1G1H0 1A1R1G1U1M1E1N1T1S0.$                      *058 LM00068
                  TRANSFER TO CHN                                                                 *059 LM00069
                                                                                                       LM00070
                  INTERNAL FUNCTION                                                               *060 LM00071
                  ENTRY TO STRIP.                                                                 *061 LM00072
                  FUNCTION RETURN                                                                 *062 LM00073
                  END OF FUNCTION                                                                 *063 LM00074
                                                                                                       LM00075
                  INTERNAL FUNCTION(TSTOP)                                                        *064 LM00076
                  ENTRY TO OUTTAB.                                                                *065 LM00077
       FINDTB     THROUGH FINDTB, FOR Q = 1, 1, Q .GE. TSTOP                                      *066 LM00078
                1      .OR. CARD(Q) .E. TAB .OR. Q .G. END                                        *066 LM00079
                   WHENEVER Q .GE. TSTOP .OR. Q .G. END, FUNCTION RETURN                          *067 LM00080
                  DEL = TSTOP - Q - 1                                                             *068 LM00081
                  THROUGH MVCD, FOR J = END, -1, J .LE. Q                                         *069 LM00082
       MVCD         WHENEVER J + DEL .LE. 100, CARD(J+DEL) = CARD(J)                              *070 LM00083
                  THROUGH PKBK, FOR Q = Q, 1, Q .GE. TSTOP                                        *071 LM00084
       PKBK         CARD(Q) = BLANK                                                               *072 LM00085
                  WHENEVER END + DEL .G. 100                                                      *073 LM00086
                    END = 100                                                                     *074 LM00087
                  OTHERWISE                                                                       *075 LM00088
                    END = END + DEL                                                               *076 LM00089
                  END OF CONDITIONAL                                                              *077 LM00090
                  FUNCTION RETURN                                                                 *078 LM00091
                  END OF FUNCTION                                                                 *079 LM00092
                                                                                                       LM00093
                  INTERNAL FUNCTION                                                               *080 LM00094
                  ENTRY TO SERIAL.                                                                *081 LM00095
                    WHENEVER END .G. 72                                                           *082 LM00096
                    TRSW = 1B                                                                     *083 LM00097
                    END = 72                                                                      *084 LM00098
                    END OF CONDITIOANL                                                            *085 LM00099
                    THROUGH PACKBK, FOR Q = END + 1, 1, Q .G. 75                                  *086 LM00100
       PACKBK         CARD(Q) = BLANK                                                             *087 LM00101
                    NUM = COUNT                                                                   *088 LM00102
                    THROUGH INNO, FOR I = 80, -1, I .L. 76                                        *089 LM00103
                      CARD(I) = NUM - (NUM/10)*10                                                 *090 LM00104
       INNO           NUM = NUM/10                                                                *091 LM00105
                    END = 80                                                                      *092 LM00106
                    FUNCTION RETURN                                                               *093 LM00107
                  END OF FUNCTION                                                                 *094 LM00108
                                                                                                       LM00109
                  INTERNAL FUNCTION                                                               *095 LM00110
                  ENTRY TO FAP.                                                                   *096 LM00111
                  THROUGH FAPLP, FOR VALUES OF TB = 8, 16, 30, 34, 38, 42, 46                     *097 LM00112
       FAPLP        OUTTAB.(TB)                                                                   *098 LM00113
                    WHENEVER END .G. 72                                                           *099 LM00114
                      TRSW = 1B                                                                   *100 LM00115
                      END = 72                                                                    *101 LM00116
                    END OF CONDITIONAL                                                            *102 LM00117
                    FUNCTION RETURN                                                               *103 LM00118
                  END OF FUNCTION                                                                 *104 LM00119
                                                                                                       LM00120
                  INTERNAL FUNCTION                                                               *105 LM00121
                  ENTRY TO MAD.                                                                   *106 LM00122
                    OUTTAB.(12)                                                                   *107 LM00123
                    WHENEVER CARD(12) .E. BCKSPS                                                  *108 LM00124
                      THROUGH PUSHL, FOR Q = 13, 1, Q .G. END                                     *109 LM00125
       PUSHL            CARD(Q-2) = CARD(Q)                                                       *110 LM00126
                      END = END - 2                                                               *111 LM00127
                    END OF CONDITIONAL                                                            *112 LM00128
                  THROUGH MDLP, FOR VALUES OF TB = 17, 22, 27, 32, 37, 42, 47                     *113 LM00129
       MDLP         OUTTAB.(TB)                                                                   *114 LM00130
                    SERIAL.                                                                       *115 LM00131
                    FUNCTION RETURN                                                               *116 LM00132
                  END OF FUNCTION                                                                 *117 LM00133
                                                                                                       LM00134
                  END OF PROGRAM                                                                  *118 LM00135
1MAD PROGRAM,TYPE NOV 1963      (ALL NUMBERS ARE OCTAL)
0TOTAL LOCATIONS   01227 TRANSFER VECTOR LENGTH  00021 PROGRAM BEGINS    00270
0VARIABLE STORAGE (A=ARRAY,C=COMMON,E=ERASABLE,DIGIT=MODE)
      BADARG 00027   4        DEL    00205   1        INNO   00026   4        NEWSEC 00214   1        Q      00220   1
      BCKSPS 00035 A 1        DETAB  00206   3        I      00211   1        NUM    00215   1        SKP4   00034   4
      BLANK  00036 A 1        END    00207   1        J      00212   1        OLDNAM 00216   1        TAB    00221 A 1
      CARD   00203 A 1        EOF    00032   4        LOOP   00033   4        OLDSEC 00217   1        TB     00222   1
      CHN    00030   4        FAPLP  00026   4        MDLP   00026   4        PACKBK 00026   4        TEMNAM 00224 A 1
      COM    00031   4        FENCE  00210 A 1        MVCD   00026   4        PKBK   00026   4        TRSW   00225   2
      COUNT  00204   1        FINDTB 00026   4        NEWNAM 00213   1        PUSHL  00026   4
0FUNCTION DICTIONARY
      ASSIGN 00000   1        CHNCOM 00001   1        CLRNAM 00002   1        COMARG 00003   1        EXIT   00004   1
      FILE   00005   1        .PCOMT 00006   1        .SETUP 00007   1        PRBUFF 00010   1        PRMESS 00011   1
      READ   00012   1        RENAME 00013   1        SEEK   00014   1        SETBCD 00015   1        TYPOUT 00016   1
      WHOAMI 00017   1        WRCARD 00020   1        FAP    00021   1        MAD    00022   3        OUTTAB 00023   1
      SERIAL 00024   1        STRIP  00025   1
0ABSOLUTE CONSTANTS
 00252 +000000000057     00246 +000000000045     00244 +000000000040     00242 +000000000033     00241 +000000000026
 00240 +000000000021     00236 +000000000015     00235 +000000000014     00251 +000000000056     00250 +000000000052
 00247 +000000000046     00245 +000000000042     00243 +000000000036     00237 +000000000020     00233 +000000000010
 00234 +000000000012     00255 +000000000114     00256 +000000000120     00254 +000000000113     00262 +314547646360
 00261 +256031626074     00263 -032560452144     00264 -052566602631     00253 +000000000110     00257 +000000000144
 00226 +000000000000     00267 -343145476463     00266 -206060442124     00265 -206060262147     00232 +000000000004
 00231 +000000000003     00230 +000000000002     00227 +000000000001     00260 +233000000000
0STATEMENT DICTIONARY
 00027 TXL -300506000475       00030 TXL -300461000460       00031 TXL -300466000465       00032 TXL -300446000445
 00033 TXL -300411000404       00034 TXL -300337000334
0PROGRAM
                 NORMAL MODE IS INTEGER                                             001  LM00007
                 FUNCTION NAME DETAB, MAD                                           002  LM00008
                 BOOLEAN TRSW                                                       003  LM00009
                 DIMENSION CARD(100),TEMNAM(1)                                      004  LM00010
                 VECTOR VALUES BCKSPS = 35K                                         005  LM00011
 00270 TSX +0 07400 4 00007    00035     +0 00000 0 00035
                 VECTOR VALUES FENCE = 777777777777K                                006  LM00012
 00210     -3 77777 7 77777
                 VECTOR VALUES TAB = 072K                                           007  LM00013
 00221     +0 00000 0 00072
                 VECTOR VALUES BLANK = 60K                                          008  LM00014
 00036     +0 00000 0 00060
                 WHOAMI.(TEMNAM(1)...2)                                             009  LM00016
 00271 TSX +0 07400 4 00017    00272 TIX +2 00230 0 00223
                 OLDNAM = COMARG.(1)                                                010  LM00017
 00273 TSX +0 07400 4 00003    00274 TXH +3 00000 0 00227    00275 STO +0 60100 0 00216
                 W'R OLDNAM .E. FENCE, T'O BADARG                                   011  LM00018
 00276 CLA +0 50000 0 00216    00277 SUB +0 40200 0 00210    00300 TNZ -0 10000 0 00302    00301 TRA +0 02000 0 00027
                 OLDSEC = COMARG.(2)                                                012  LM00019
 00302 TSX +0 07400 4 00003    00303 TXH +3 00000 0 00230    00304 STO +0 60100 0 00217
                 W'R OLDSEC .E. FENCE, T'O BADARG                                   013  LM00020
 00305 CLA +0 50000 0 00217    00306 SUB +0 40200 0 00210    00307 TNZ -0 10000 0 00311    00310 TRA +0 02000 0 00027
                 NEWNAM = COMARG.(3)                                                014  LM00021
 00311 TSX +0 07400 4 00003    00312 TXH +3 00000 0 00231    00313 STO +0 60100 0 00213
                 W'R NEWNAM .E. FENCE                                               015  LM00022
 00314 CLA +0 50000 0 00213    00315 SUB +0 40200 0 00210    00316 TNZ -0 10000 0 00324
                   NEWNAM = OLDNAM                                                  016  LM00023
 00317 CLA +0 50000 0 00216    00320 STO +0 60100 0 00213
                   NEWSEC = OLDSEC                                                  017  LM00024
 00321 CLA +0 50000 0 00217    00322 STO +0 60100 0 00214
                   T'O SKP4                                                         018  LM00025
 00323 TRA +0 02000 0 00034
                 END OF CONDITIONAL                                                 019  LM00026
                 NEWSEC = COMARG.(4)                                                020  LM00027
 00324 TSX +0 07400 4 00003    00325 TXH +3 00000 0 00232    00326 STO +0 60100 0 00214
                 W'R  NEWSEC .E. FENCE, NEWSEC = OLDSEC                             021  LM00028
 00327 CLA +0 50000 0 00214    00330 SUB +0 40200 0 00210    00331 TNZ -0 10000 0 00334    00332 CLA +0 50000 0 00217
 00333 STO +0 60100 0 00214
      SKP4       W'R NEWSEC .E. $   FAP$                                            022  LM00029
 00334 CLA +0 50000 0 00214    00335 SUB +0 40200 0 00265    00336 TNZ -0 10000 0 00342
                   DETAB = FAP.                                                     023  LM00030
 00337 CLA +0 50000 0 00021    00340 STO +0 60100 0 00206
                 O'R NEWSEC .E. $   MAD$                                            024  LM00031
 00341 TRA +0 02000 0 00366    00342 CLA +0 50000 0 00214    00343 SUB +0 40200 0 00266    00344 TNZ -0 10000 0 00350
                   DETAB = MAD.                                                     025  LM00032
 00345 CLA +0 50000 0 00022    00346 STO +0 60100 0 00206
                 O'R OLDSEC .E. $   FAP$                                            026  LM00033
 00347 TRA +0 02000 0 00366    00350 CLA +0 50000 0 00217    00351 SUB +0 40200 0 00265    00352 TNZ -0 10000 0 00356
                   DETAB = FAP.                                                     027  LM00034
 00353 CLA +0 50000 0 00021    00354 STO +0 60100 0 00206
                 O'R OLDSEC .E. $   MAD$                                            028  LM00035
 00355 TRA +0 02000 0 00366    00356 CLA +0 50000 0 00217    00357 SUB +0 40200 0 00266    00360 TNZ -0 10000 0 00364
                   DETAB = MAD.                                                     029  LM00036
 00361 CLA +0 50000 0 00022    00362 STO +0 60100 0 00206
                 OTHERWISE                                                          030  LM00037
 00363 TRA +0 02000 0 00366
                   DETAB = STRIP.                                                   031  LM00038
 00364 CLA +0 50000 0 00025    00365 STO +0 60100 0 00206
                 END OF CONDITIONAL                                                 032  LM00039
                 SEEK.(OLDNAM, OLDSEC, CHN)                                         033  LM00041
 00366 TSX +0 07400 4 00014    00367 TXH +3 00000 0 00216    00370 TXH +3 00000 0 00217    00371 TXH +3 00000 0 00030
                 CLRNAM.($(INPUT$, TEMNAM, CHN, 1B)                                 034  LM00042
 00372 TSX +0 07400 4 00002    00373 TXH +3 00000 0 00267    00374 TXH +3 00000 0 00224    00375 TXH +3 00000 0 00030
 00376 TXH +3 00000 0 00227
                 ASSIGN.($(INPUT$, TEMNAM)                                          035  LM00043
 00377 TSX +0 07400 4 00000    00400 TXH +3 00000 0 00267    00401 TXH +3 00000 0 00224
                 COUNT = 0                                                          036  LM00044
 00402 CLA +0 50000 0 00226    00403 STO +0 60100 0 00204
      LOOP       END = READ.(CARD, 100, EOF)                                        037  LM00045
 00404 TSX +0 07400 4 00012    00405 TXH +3 00000 0 00203    00406 TXH +3 00000 0 00257    00407 TXH +3 00000 0 00032
 00410 STO +0 60100 0 00207
                 COUNT = COUNT + 1                                                  038  LM00046
 00411 CLA +0 50000 0 00204    00412 ADD +0 40000 0 00227    00413 STO +0 60100 0 00204
                 TRSW = 0B                                                          039  LM00047
 00414 CLA +0 50000 0 00226    00415 STO +0 60100 0 00225
                 END = END-1                                                        040  LM00048
 00416 CLA +0 50000 0 00207    00417 SUB +0 40200 0 00227    00420 STO +0 60100 0 00207
                 DETAB(0).                                                          041  LM00049
 00421 TSX +0 07400 4 00206
                 WRCARD.(CARD, END)                                                 042  LM00050
 00422 TSX +0 07400 4 00020    00423 TXH +3 00000 0 00203    00424 TXH +3 00000 0 00207
                 WHENEVER TRSW                                                      043  LM00051
 00425 NZT -0 52000 0 00225    00426 TRA +0 02000 0 00444
                   PRINT COMMENT $0T1H1I1S0 1C1A1R1D0 0T0R0U0N0C0A0T0E0D0:$         044  LM00052
 00427 TSX +0 07400 4 00006    00430     +0 00000 0 00007    00431     +0 06301 3 00131    00432     +0 16200 6 00123
 00433     +0 12101 5 10124    00434     +0 06000 6 30051    00435     +0 06400 4 50023    00436     +0 02100 6 30025
 00437     +0 02400 3 56060
                   TYPOUT.(CARD, 72)                                                045  LM00053
 00440 TSX +0 07400 4 00016    00441 TXH +3 00000 0 00203    00442 TXH +3 00000 0 00253
                   PRBUFF.                                                          046  LM00054
 00443 TSX +0 07400 4 00010
                 END OF CONDITIONAL                                                 047  LM00055
                 T'O LOOP                                                           048  LM00056
 00444 TRA +0 02000 0 00033
      EOF        FILE.                                                              049  LM00057
 00445 TSX +0 07400 4 00005
                 CLRNAM.(NEWNAM, NEWSEC, COM, 1B)                                   050  LM00058
 00446 TSX +0 07400 4 00002    00447 TXH +3 00000 0 00213    00450 TXH +3 00000 0 00214    00451 TXH +3 00000 0 00031
 00452 TXH +3 00000 0 00227
                 RENAME.($(INPUT$, TEMNAM, NEWNAM, NEWSEC)                          051  LM00059
 00453 TSX +0 07400 4 00013    00454 TXH +3 00000 0 00267    00455 TXH +3 00000 0 00224    00456 TXH +3 00000 0 00213
 00457 TXH +3 00000 0 00214
      CHN        SETBCD.                                                            052  LM00060
 00460 TSX +0 07400 4 00015
                 PRINT COMMENT $ *$                                                 053  LM00061
 00461 TSX +0 07400 4 00006    00462     +0 00000 0 00001    00463     -2 05460 6 06060
                 CHNCOM.                                                            054  LM00062
 00464 TSX +0 07400 4 00001
      COM        SETBCD.                                                            055  LM00064
 00465 TSX +0 07400 4 00015
                 PRMESS.($NEW FI$,$LE NAM$,$E IS ($,$INPUT $,TEMNAM)                056  LM00065
 00466 TSX +0 07400 4 00011    00467 TXH +3 00000 0 00264    00470 TXH +3 00000 0 00263    00471 TXH +3 00000 0 00261
 00472 TXH +3 00000 0 00262    00473 TXH +3 00000 0 00224
                 T'O CHN                                                            057  LM00066
 00474 TRA +0 02000 0 00030
      BADARG     PRINT COMMENT $0N1O1T0 1E1N1O1U1G1H0 1A1R1G1U1M1E1N1T1S0.$         058  LM00068
 00475 TSX +0 07400 4 00006    00476     +0 00000 0 00007    00477     +0 04501 4 60163    00500     +0 06001 2 50145
 00501     +0 14601 6 40127    00502     +0 13000 6 00121    00503     +0 15101 2 70164    00504     +0 14401 2 50145
 00505     +0 16301 6 20033
                 T'O CHN                                                            059  LM00069
 00506 TRA +0 02000 0 00030
                 INTERNAL FUNCTION                                                  060  LM00071
 00507 TRA +0 02000 0 00525
                 ENTRY TO STRIP.                                                    061  LM00072
 00510 TRA +0 02000 0 00513    00025 TTR +0 02100 0 00511    00511 SXA +0 63400 2 00515    00512 TSX +0 07400 2 00515
                 FUNCTION RETURN                                                    062  LM00073
 00513 TRA +0 02000 0 00521
                 END OF FUNCTION                                                    063  LM00074
 00514 TSX +0 07400 4 00004    00515 TXH +3 00000 0 00000    00516 SXD -0 63400 1 00515    00517 SXA +0 63400 4 00521
 00520 TRA +0 02000 2 00001    00521 AXT +0 77400 4 00000    00522 LXA +0 53400 2 00515    00523 LXD -0 53400 1 00515
 00524 TRA +0 02000 4 00001
                 INTERNAL FUNCTION(TSTOP)                                           064  LM00076
 00525 TRA +0 02000 0 00667
                 ENTRY TO OUTTAB.                                                   065  LM00077
 00526 TRA +0 02000 0 00531    00023 TTR +0 02100 0 00527    00527 SXA +0 63400 2 00652    00530 TSX +0 07400 2 00652
       FINDTB    THROUGH FINDTB, FOR Q = 1, 1, Q .GE. TSTOP                         066  LM00078
                1     .OR. CARD(Q) .E. TAB .OR. Q .G. END                           066  LM00079
 00531 CLA +0 50000 0 00227    00532 STO +0 60100 0 00220    00533 TRA +0 02000 0 00537    00534 CLA +0 50000 0 00220
 00535 ADD +0 40000 0 00227    00536 STO +0 60100 0 00220    00537 CLA +0 50000 0 00220    00540 SUB +0 40200 0 00207
 00541 TZE +0 10000 0 00543    00542 TPL +0 12000 0 00554    00543 LXA +0 53400 1 00220    00544 CLA +0 50000 1 00203
 00545 SUB +0 40200 0 00221    00546 TZE +0 10000 0 00554    00547 CLA +0 50000 0 00220    00550 SUB +0 40200 0 00024
 00551 TZE +0 10000 0 00554    00552 TPL +0 12000 0 00554    00553 TRA +0 02000 0 00534
                  WHENEVER Q .GE. TSTOP .OR. Q .G. END, FUNCTION RETURN             067  LM00080
 00554 CLA +0 50000 0 00220    00555 SUB +0 40200 0 00207    00556 TZE +0 10000 0 00560    00557 TPL +0 12000 0 00564
 00560 CLA +0 50000 0 00220    00561 SUB +0 40200 0 00024    00562 TZE +0 10000 0 00564    00563 TMI -0 12000 0 00565
 00564 TRA +0 02000 0 00663
                 DEL = TSTOP - Q - 1                                                068  LM00081
 00565 CLA +0 50000 0 00024    00566 SUB +0 40200 0 00220    00567 SUB +0 40200 0 00227    00570 STO +0 60100 0 00205
                 THROUGH MVCD, FOR J = END, -1, J .LE. Q                            069  LM00082
 00571 CLA +0 50000 0 00207    00572 STO +0 60100 0 00212    00573 TRA +0 02000 0 00577    00574 CLS +0 50200 0 00227
 00575 ADD +0 40000 0 00212    00576 STO +0 60100 0 00212    00577 CLA +0 50000 0 00212    00600 SUB +0 40200 0 00220
 00601 TZE +0 10000 0 00617    00602 TMI -0 12000 0 00617
       MVCD        WHENEVER J + DEL .LE. 100, CARD(J+DEL) = CARD(J)                 070  LM00083
 00603 CLA +0 50000 0 00212    00604 ADD +0 40000 0 00205    00605 SUB +0 40200 0 00257    00606 TZE +0 10000 0 00610
 00607 TPL +0 12000 0 00616    00610 CLA +0 50000 0 00212    00611 ADD +0 40000 0 00205    00612 PAX +0 73400 1 00000
 00613 LXA +0 53400 2 00212    00614 CLA +0 50000 2 00203    00615 STO +0 60100 1 00203    00616 TRA +0 02000 0 00574
                 THROUGH PKBK, FOR Q = Q, 1, Q .GE. TSTOP                           071  LM00084
 00617 CLA +0 50000 0 00220    00620 STO +0 60100 0 00220    00621 TRA +0 02000 0 00625    00622 CLA +0 50000 0 00220
 00623 ADD +0 40000 0 00227    00624 STO +0 60100 0 00220    00625 CLA +0 50000 0 00220    00626 SUB +0 40200 0 00024
 00627 TZE +0 10000 0 00635    00630 TPL +0 12000 0 00635
       PKBK        CARD(Q) = BLANK                                                  072  LM00085
 00631 LXA +0 53400 1 00220    00632 CLA +0 50000 0 00036    00633 STO +0 60100 1 00203    00634 TRA +0 02000 0 00622
                 W'R END + DEL .G. 100                                              073  LM00086
 00635 CLA +0 50000 0 00207    00636 ADD +0 40000 0 00205    00637 SUB +0 40200 0 00257    00640 TZE +0 10000 0 00645
 00641 TMI -0 12000 0 00645
                   END = 100                                                        074  LM00087
 00642 CLA +0 50000 0 00257    00643 STO +0 60100 0 00207
                 OTHERWISE                                                          075  LM00088
 00644 TRA +0 02000 0 00650
                   END = END + DEL                                                  076  LM00089
 00645 CLA +0 50000 0 00207    00646 ADD +0 40000 0 00205    00647 STO +0 60100 0 00207
                 END OF CONDITIONAL                                                 077  LM00090
                 FUNCTION RETURN                                                    078  LM00091
 00650 TRA +0 02000 0 00663
                 END OF FUNCTION                                                    079  LM00092
 00651 TSX +0 07400 4 00004    00652 TXH +3 00000 0 00000    00653 SXD -0 63400 1 00652    00654 SXA +0 63400 4 00663
 00655 CLA +0 50000 4 00001    00656 STA +0 62100 0 00550    00657 STA +0 62100 0 00561    00660 STA +0 62100 0 00565
 00661 STA +0 62100 0 00626    00662 TRA +0 02000 2 00001    00663 AXT +0 77400 4 00000    00664 LXA +0 53400 2 00652
 00665 LXD -0 53400 1 00652    00666 TRA +0 02000 4 00001
                 INTERNAL FUNCTION                                                  080  LM00094
 00667 TRA +0 02000 0 00772
                 ENTRY TO SERIAL.                                                   081  LM00095
 00670 TRA +0 02000 0 00673    00024 TTR +0 02100 0 00671    00671 SXA +0 63400 2 00762    00672 TSX +0 07400 2 00762
                   WHENEVER END .G. 72                                              082  LM00096
 00673 CLA +0 50000 0 00207    00674 SUB +0 40200 0 00253    00675 TZE +0 10000 0 00703    00676 TMI -0 12000 0 00703
                   TRSW = 1B                                                        083  LM00097
 00677 CLA +0 50000 0 00227    00700 STO +0 60100 0 00225
                   END = 72                                                         084  LM00098
 00701 CLA +0 50000 0 00253    00702 STO +0 60100 0 00207
                   END OF CONDITIOANL                                               085  LM00099
                   THROUGH PACKBK, FOR Q = END + 1, 1, Q .G. 75                     086  LM00100
 00703 CLA +0 50000 0 00207    00704 ADD +0 40000 0 00227    00705 STO +0 60100 0 00220    00706 TRA +0 02000 0 00712
 00707 CLA +0 50000 0 00220    00710 ADD +0 40000 0 00227    00711 STO +0 60100 0 00220    00712 CLA +0 50000 0 00220
 00713 SUB +0 40200 0 00254    00714 TZE +0 10000 0 00716    00715 TPL +0 12000 0 00722
       PACKBK        CARD(Q) = BLANK                                                087  LM00101
 00716 LXA +0 53400 1 00220    00717 CLA +0 50000 0 00036    00720 STO +0 60100 1 00203    00721 TRA +0 02000 0 00707
                   NUM = COUNT                                                      088  LM00102
 00722 CLA +0 50000 0 00204    00723 STO +0 60100 0 00215
                   THROUGH INNO, FOR I = 80, -1, I .L. 76                           089  LM00103
 00724 CLA +0 50000 0 00256    00725 STO +0 60100 0 00211    00726 TRA +0 02000 0 00732    00727 CLS +0 50200 0 00227
 00730 ADD +0 40000 0 00211    00731 STO +0 60100 0 00211    00732 CLA +0 50000 0 00211    00733 SUB +0 40200 0 00255
 00734 TZE +0 10000 0 00736    00735 TMI -0 12000 0 00756
                     CARD(I) = NUM - (NUM/10)*10                                    090  LM00104
 00736 LDQ +0 56000 0 00215    00737 PXD -0 75400 0 00000    00740 LLS +0 76300 0 00000    00741 DVP +0 22100 0 00234
 00742 MPY +0 20000 0 00234    00743 XCA +0 13100 0 00000    00744 CHS +0 76000 0 00002    00745 ADD +0 40000 0 00215
 00746 LXA +0 53400 1 00211    00747 STO +0 60100 1 00203
       INNO          NUM = NUM/10                                                   091  LM00105
 00750 LDQ +0 56000 0 00215    00751 PXD -0 75400 0 00000    00752 LLS +0 76300 0 00000    00753 DVP +0 22100 0 00234
 00754 STQ -0 60000 0 00215    00755 TRA +0 02000 0 00727
                   END = 80                                                         092  LM00106
 00756 CLA +0 50000 0 00256    00757 STO +0 60100 0 00207
                   FUNCTION RETURN                                                  093  LM00107
 00760 TRA +0 02000 0 00766
                 END OF FUNCTION                                                    094  LM00108
 00761 TSX +0 07400 4 00004    00762 TXH +3 00000 0 00000    00763 SXD -0 63400 1 00762    00764 SXA +0 63400 4 00766
 00765 TRA +0 02000 2 00001    00766 AXT +0 77400 4 00000    00767 LXA +0 53400 2 00762    00770 LXD -0 53400 1 00762
 00771 TRA +0 02000 4 00001
                 INTERNAL FUNCTION                                                  095  LM00110
 00772 TRA +0 02000 0 01076
                 ENTRY TO FAP.                                                      096  LM00111
 00773 TRA +0 02000 0 00776    00021 TTR +0 02100 0 00774    00774 SXA +0 63400 2 01066    00775 TSX +0 07400 2 01066
                 THROUGH FAPLP, FOR VALUES OF TB = 8, 16, 30, 34, 38, 42, 46        097  LM00112
 00776 CLA +0 50000 0 00233    00777 STO +0 60100 0 00222    01000 CLA +0 50000 0 01003    01001 STO +0 60100 0 01050
 01002 TRA +0 02000 0 01051    01003 TRA +0 02000 0 01004    01004 CLA +0 50000 0 00237    01005 STO +0 60100 0 00222
 01006 CLA +0 50000 0 01011    01007 STO +0 60100 0 01050    01010 TRA +0 02000 0 01051    01011 TRA +0 02000 0 01012
 01012 CLA +0 50000 0 00243    01013 STO +0 60100 0 00222    01014 CLA +0 50000 0 01017    01015 STO +0 60100 0 01050
 01016 TRA +0 02000 0 01051    01017 TRA +0 02000 0 01020    01020 CLA +0 50000 0 00245    01021 STO +0 60100 0 00222
 01022 CLA +0 50000 0 01025    01023 STO +0 60100 0 01050    01024 TRA +0 02000 0 01051    01025 TRA +0 02000 0 01026
 01026 CLA +0 50000 0 00247    01027 STO +0 60100 0 00222    01030 CLA +0 50000 0 01033    01031 STO +0 60100 0 01050
 01032 TRA +0 02000 0 01051    01033 TRA +0 02000 0 01034    01034 CLA +0 50000 0 00250    01035 STO +0 60100 0 00222
 01036 CLA +0 50000 0 01041    01037 STO +0 60100 0 01050    01040 TRA +0 02000 0 01051    01041 TRA +0 02000 0 01042
 01042 CLA +0 50000 0 00251    01043 STO +0 60100 0 00222    01044 CLA +0 50000 0 01047    01045 STO +0 60100 0 01050
 01046 TRA +0 02000 0 01051    01047 TRA +0 02000 0 01054    01050 TRA +0 02000 0 01050
       FAPLP       OUTTAB.(TB)                                                      098  LM00113
 01051 TSX +0 07400 4 00023    01052 TXH +3 00000 0 00222    01053 TRA +0 02000 0 01050
                   WHENEVER END .G. 72                                              099  LM00114
 01054 CLA +0 50000 0 00207    01055 SUB +0 40200 0 00253    01056 TZE +0 10000 0 01064    01057 TMI -0 12000 0 01064
                     TRSW = 1B                                                      100  LM00115
 01060 CLA +0 50000 0 00227    01061 STO +0 60100 0 00225
                     END = 72                                                       101  LM00116
 01062 CLA +0 50000 0 00253    01063 STO +0 60100 0 00207
                   END OF CONDITIONAL                                               102  LM00117
                   FUNCTION RETURN                                                  103  LM00118
 01064 TRA +0 02000 0 01072
                 END OF FUNCTION                                                    104  LM00119
 01065 TSX +0 07400 4 00004    01066 TXH +3 00000 0 00000    01067 SXD -0 63400 1 01066    01070 SXA +0 63400 4 01072
 01071 TRA +0 02000 2 00001    01072 AXT +0 77400 4 00000    01073 LXA +0 53400 2 01066    01074 LXD -0 53400 1 01066
 01075 TRA +0 02000 4 00001
                 INTERNAL FUNCTION                                                  105  LM00121
 01076 TRA +0 02000 0 01224
                 ENTRY TO MAD.                                                      106  LM00122
 01077 TRA +0 02000 0 01102    00022 TTR +0 02100 0 01100    01100 SXA +0 63400 2 01214    01101 TSX +0 07400 2 01214
                   OUTTAB.(12)                                                      107  LM00123
 01102 TSX +0 07400 4 00023    01103 TXH +3 00000 0 00235
                   WHENEVER CARD(12) .E. BCKSPS                                     108  LM00124
 01104 CLA +0 50000 0 00167    01105 SUB +0 40200 0 00035    01106 TNZ -0 10000 0 01133
                     THROUGH PUSHL, FOR Q = 13, 1, Q .G. END                        109  LM00125
 01107 CLA +0 50000 0 00236    01110 STO +0 60100 0 00220    01111 TRA +0 02000 0 01115    01112 CLA +0 50000 0 00220
 01113 ADD +0 40000 0 00227    01114 STO +0 60100 0 00220    01115 CLA +0 50000 0 00220    01116 SUB +0 40200 0 00207
 01117 TZE +0 10000 0 01121    01120 TPL +0 12000 0 01130
       PUSHL           CARD(Q-2) = CARD(Q)                                          110  LM00126
 01121 CLA +0 50000 0 00220    01122 SUB +0 40200 0 00230    01123 PAX +0 73400 1 00000    01124 LXA +0 53400 2 00220
 01125 CLA +0 50000 2 00203    01126 STO +0 60100 1 00203    01127 TRA +0 02000 0 01112
                     END = END - 2                                                  111  LM00127
 01130 CLA +0 50000 0 00207    01131 SUB +0 40200 0 00230    01132 STO +0 60100 0 00207
                   END OF CONDITIONAL                                               112  LM00128
                 THROUGH MDLP, FOR VALUES OF TB = 17, 22, 27, 32, 37, 42, 47        113  LM00129
 01133 CLA +0 50000 0 00240    01134 STO +0 60100 0 00222    01135 CLA +0 50000 0 01140    01136 STO +0 60100 0 01205
 01137 TRA +0 02000 0 01206    01140 TRA +0 02000 0 01141    01141 CLA +0 50000 0 00241    01142 STO +0 60100 0 00222
 01143 CLA +0 50000 0 01146    01144 STO +0 60100 0 01205    01145 TRA +0 02000 0 01206    01146 TRA +0 02000 0 01147
 01147 CLA +0 50000 0 00242    01150 STO +0 60100 0 00222    01151 CLA +0 50000 0 01154    01152 STO +0 60100 0 01205
 01153 TRA +0 02000 0 01206    01154 TRA +0 02000 0 01155    01155 CLA +0 50000 0 00244    01156 STO +0 60100 0 00222
 01157 CLA +0 50000 0 01162    01160 STO +0 60100 0 01205    01161 TRA +0 02000 0 01206    01162 TRA +0 02000 0 01163
 01163 CLA +0 50000 0 00246    01164 STO +0 60100 0 00222    01165 CLA +0 50000 0 01170    01166 STO +0 60100 0 01205
 01167 TRA +0 02000 0 01206    01170 TRA +0 02000 0 01171    01171 CLA +0 50000 0 00250    01172 STO +0 60100 0 00222
 01173 CLA +0 50000 0 01176    01174 STO +0 60100 0 01205    01175 TRA +0 02000 0 01206    01176 TRA +0 02000 0 01177
 01177 CLA +0 50000 0 00252    01200 STO +0 60100 0 00222    01201 CLA +0 50000 0 01204    01202 STO +0 60100 0 01205
 01203 TRA +0 02000 0 01206    01204 TRA +0 02000 0 01211    01205 TRA +0 02000 0 01205
       MDLP        OUTTAB.(TB)                                                      114  LM00130
 01206 TSX +0 07400 4 00023    01207 TXH +3 00000 0 00222    01210 TRA +0 02000 0 01205
                   SERIAL.                                                          115  LM00131
 01211 TSX +0 07400 4 00024
                   FUNCTION RETURN                                                  116  LM00132
 01212 TRA +0 02000 0 01220
                 END OF FUNCTION                                                    117  LM00133
 01213 TSX +0 07400 4 00004    01214 TXH +3 00000 0 00000    01215 SXD -0 63400 1 01214    01216 SXA +0 63400 4 01220
 01217 TRA +0 02000 2 00001    01220 AXT +0 77400 4 00000    01221 LXA +0 53400 2 01214    01222 LXD -0 53400 1 01214
 01223 TRA +0 02000 4 00001
                 END OF PROGRAM                                                     118  LM00135
 01224 TSX +0 07400 4 00004
1     MAD PROGRAM LISTING ... ... ...                 FILE  SQUASH   MAD            04/23/68    2152.1
-
                 ..  ROUTINE TO CONVERT CARD IMAGE TO LINEMARKED WITH TABS.                            LM00001
                 ..     J. H. SALTZER, FEBRUARY, 1965.                                                 LM00002
                 ..     MODIFIED BY S. SCHAFFNER 6-17-67                                               LM00003
                 ..     MODIFIED BY J. BIXBY 4-22-68 TO USE (INPUT PROG                                LM00004
                 ..        AS THE INTERMEDIATE FILE INSTEAD OF (INPUT FILE)                            LM00005
                                                                                                       LM00006
                  NORMAL MODE IS INTEGER                                                          *001 LM00007
                  FUNCTION NAME DETAB, MAD                                                        *002 LM00008
                  DIMENSION CARD(84),TEMNAM(1)                                                    *003 LM00009
                  VECTOR VALUES RETURN = 055K                                                     *004 LM00010
                  VECTOR VALUES BCKSPS = 35K                                                      *005 LM00011
                  VECTOR VALUES FENCE = 777777777777K                                             *006 LM00012
                  VECTOR VALUES TAB = 072K                                                        *007 LM00013
                  VECTOR VALUES BLANK = 60K                                                       *008 LM00014
                                                                                                       LM00015
                  WHOAMI.(TEMNAM(1)...2)                                                          *009 LM00016
                  OLDNAM = COMARG.(1)                                                             *010 LM00017
                  WHENEVER OLDNAM .E. FENCE, TRANSFER TO BADARG                                   *011 LM00018
                  OLDSEC = COMARG.(2)                                                             *012 LM00019
                  WHENEVER OLDSEC .E. FENCE, TRANSFER TO BADARG                                   *013 LM00020
                  NEWNAM = COMARG.(3)                                                             *014 LM00021
                  WHENEVER NEWNAM .E. FENCE                                                       *015 LM00022
                    NEWNAM = OLDNAM                                                               *016 LM00023
                    NEWSEC = OLDSEC                                                               *017 LM00024
                    TRANSFER TO SKP4                                                              *018 LM00025
                  END OF CONDITIONAL                                                              *019 LM00026
                  NEWSEC = COMARG.(4)                                                             *020 LM00027
                  WHENEVER  NEWSEC .E. FENCE, NEWSEC = OLDSEC                                     *021 LM00028
      SKP4        WHENEVER OLDSEC .E. $   FAP$                                                    *022 LM00029
                    DETAB = FAP.                                                                  *023 LM00030
                  OR WHENEVER OLDSEC .E. $   MAD$                                                 *024 LM00031
                    DETAB = MAD.                                                                  *025 LM00032
                  OR WHENEVER NEWSEC.E. $   FAP$                                                  *026 LM00033
                    DETAB = FAP.                                                                  *027 LM00034
                  OR WHENEVER NEWSEC.E. $   MAD$                                                  *028 LM00035
                    DETAB = MAD.                                                                  *029 LM00036
                  OTHERWISE                                                                       *030 LM00037
                    DETAB = STRIP.                                                                *031 LM00038
                  END OF CONDITIONAL                                                              *032 LM00039
                                                                                                       LM00040
                  SEEK.(OLDNAM, OLDSEC, CHN)                                                      *033 LM00041
                  CLRNAM.($(INPUT$, TEMNAM, CHN, 1B)                                              *034 LM00042
                  ASSIGN.($(INPUT$, TEMNAM)                                                       *035 LM00043
       LOOP       END = RDCARD.(CARD, 84, EOF)                                                    *036 LM00044
                  DETAB(0).                                                                       *037 LM00045
                  END = END+1                                                                     *038 LM00046
                  PRETEND TO ADD A CARRIAGE RETURN TO LINE                                             LM00047
                  WRITE.(CARD, END)                                                               *039 LM00048
                  TRANSFER TO LOOP                                                                *040 LM00049
      EOF         FILE.                                                                           *041 LM00050
                  CLRNAM.(NEWNAM, NEWSEC, COM, 1B)                                                *042 LM00051
                  RENAME.($(INPUT$, TEMNAM, NEWNAM, NEWSEC)                                       *043 LM00052
      CHN         SETBCD.                                                                         *044 LM00053
                  PRINT COMMENT $ *$                                                              *045 LM00054
                  CHNCOM.                                                                         *046 LM00055
                                                                                                       LM00056
      COM         SETBCD.                                                                         *047 LM00057
                  PRMESS.($NEW FI$,$LE NAM$,$E IS ($,$INPUT $,TEMNAM)                             *048 LM00058
                  TRANSFER TO CHN                                                                 *049 LM00059
                                                                                                       LM00060
      BADARG      PRINT COMMENT $0N1O1T0 1E1N1O1U1G1H0 1A1R1G1U1M1E1N1T1S0.$                      *050 LM00061
                  TRANSFER TO CHN                                                                 *051 LM00062
                                                                                                       LM00063
                  INTERNAL FUNCTION                                                               *052 LM00064
                  ENTRY TO STRIP.                                                                 *053 LM00065
       SLP          THROUGH SLP, FOR END = 72, -1, CARD(END) .NE. BLANK                           *054 LM00066
                1      .OR. END .LE. 1                                                            *054 LM00067
                  FUNCTION RETURN                                                                 *055 LM00068
                  END OF FUNCTION                                                                 *056 LM00069
                                                                                                       LM00070
                  INTERNAL FUNCTION(ARG, ARG2)                                                    *057 LM00071
                  ENTRY TO INTAB.                                                                 *058 LM00072
                    WHENEVER ARG .G. END, FUNCTION RETURN                                         *059 LM00073
       BLKCT      THROUGH BLKCT, FOR Q = ARG-1, -1, CARD(Q) .NE. BLANK                            *060 LM00074
                1     .OR. Q .L. ARG2                                                             *060 LM00075
                    WHENEVER Q .E. ARG-1, FUNCTION RETURN                                         *061 LM00076
                    Q = Q + 1                                                                     *062 LM00077
                    CARD(Q) = TAB                                                                 *063 LM00078
                    THROUGH MOVE, FOR MVR = ARG, 1, MVR .G. END                                   *064 LM00079
                      Q = Q + 1                                                                   *065 LM00080
       MOVE           CARD(Q) = CARD(MVR)                                                         *066 LM00081
                    END = Q                                                                       *067 LM00082
                    FUNCTION RETURN                                                               *068 LM00083
                  END OF FUNCTION                                                                 *069 LM00084
                                                                                                       LM00085
                  INTERNAL FUNCTION                                                               *070 LM00086
                  ENTRY TO FAP.                                                                   *071 LM00087
                    STRIP.                                                                        *072 LM00088
                    INTAB.(30, 16)                                                                *073 LM00089
                    INTAB.(16, 8)                                                                 *074 LM00090
                    INTAB.(8, 0)                                                                  *075 LM00091
                    FUNCTION RETURN                                                               *076 LM00092
                  END OF FUNCTION                                                                 *077 LM00093
                                                                                                       LM00094
                  INTERNAL FUNCTION                                                               *078 LM00095
                  ENTRY TO MAD.                                                                   *079 LM00096
                    STRIP.                                                                        *080 LM00097
                    WHENEVER CARD(11) .NE. BLANK                                                  *081 LM00098
                      THROUGH PUSHR, FOR Q = END, -1, Q .L. 11                                    *082 LM00099
       PUSHR            CARD(Q+1) = CARD(Q)                                                       *083 LM00100
                      END = END + 1                                                               *084 LM00101
                      CARD(11) = BCKSPS                                                           *085 LM00102
                      INTAB.(11,0)                                                                *086 LM00103
                    OTHERWISE                                                                     *087 LM00104
                      INTAB.(12,0)                                                                *088 LM00105
                    END OF CONDITIONAL                                                            *089 LM00106
                    FUNCTION RETURN                                                               *090 LM00107
                  END OF FUNCTION                                                                 *091 LM00108
                                                                                                       LM00109
                  END OF PROGRAM                                                                  *092 LM00110
1MAD PROGRAM,TYPE NOV 1963      (ALL NUMBERS ARE OCTAL)
0TOTAL LOCATIONS   00674 TRANSFER VECTOR LENGTH  00017 PROGRAM BEGINS    00222
0VARIABLE STORAGE (A=ARRAY,C=COMMON,E=ERASABLE,DIGIT=MODE)
      BADARG 00024   4        CHN    00025   4        FENCE  00163 A 1        NEWSEC 00166   1        RETURN 00172 A 1
      BCKSPS 00032 A 1        COM    00026   4        LOOP   00030   4        OLDNAM 00167   1        SKP4   00031   4
      BLANK  00033 A 1        DETAB  00161   3        MOVE   00023   4        OLDSEC 00170   1        SLP    00023   4
      BLKCT  00023   4        END    00162   1        MVR    00164   1        PUSHR  00023   4        TAB    00173 A 1
      CARD   00160 A 1        EOF    00027   4        NEWNAM 00165   1        Q      00171   1        TEMNAM 00175 A 1
0FUNCTION DICTIONARY
      ASSIGN 00000   1        CHNCOM 00001   1        CLRNAM 00002   1        COMARG 00003   1        EXIT   00004   1
      FILE   00005   1        .PCOMT 00006   1        .SETUP 00007   1        PRMESS 00010   1        RDCARD 00011   1
      RENAME 00012   1        SEEK   00013   1        SETBCD 00014   1        WHOAMI 00015   1        WRITE  00016   1
      FAP    00017   1        INTAB  00020   1        MAD    00021   3        STRIP  00022   1
0ABSOLUTE CONSTANTS
 00205 +000000000014     00204 +000000000013     00176 +000000000000     00203 +000000000010     00206 +000000000020
 00207 +000000000036     00210 +000000000110     00214 +314547646360     00213 +256031626074     00215 -032560452144
 00216 -052566602631     00211 +000000000124     00221 -343145476463     00220 -206060442124     00217 -206060262147
 00202 +000000000004     00201 +000000000003     00200 +000000000002     00177 +000000000001     00212 +233000000000
0STATEMENT DICTIONARY
 00024 TXL -300412000401       00025 TXL -300365000364       00026 TXL -300372000371       00027 TXL -300352000351
 00030 TXL -300341000334       00031 TXL -300271000266
0PROGRAM
                 NORMAL MODE IS INTEGER                                             001  LM00007
                 FUNCTION NAME DETAB, MAD                                           002  LM00008
                 DIMENSION CARD(84),TEMNAM(1)                                       003  LM00009
                 VECTOR VALUES RETURN = 055K                                        004  LM00010
 00222 TSX +0 07400 4 00007    00172     +0 00000 0 00055
                 VECTOR VALUES BCKSPS = 35K                                         005  LM00011
 00032     +0 00000 0 00035
                 VECTOR VALUES FENCE = 777777777777K                                006  LM00012
 00163     -3 77777 7 77777
                 VECTOR VALUES TAB = 072K                                           007  LM00013
 00173     +0 00000 0 00072
                 VECTOR VALUES BLANK = 60K                                          008  LM00014
 00033     +0 00000 0 00060
                 WHOAMI.(TEMNAM(1)...2)                                             009  LM00016
 00223 TSX +0 07400 4 00015    00224 TIX +2 00200 0 00174
                 OLDNAM = COMARG.(1)                                                010  LM00017
 00225 TSX +0 07400 4 00003    00226 TXH +3 00000 0 00177    00227 STO +0 60100 0 00167
                 W'R OLDNAM .E. FENCE, T'O BADARG                                   011  LM00018
 00230 CLA +0 50000 0 00167    00231 SUB +0 40200 0 00163    00232 TNZ -0 10000 0 00234    00233 TRA +0 02000 0 00024
                 OLDSEC = COMARG.(2)                                                012  LM00019
 00234 TSX +0 07400 4 00003    00235 TXH +3 00000 0 00200    00236 STO +0 60100 0 00170
                 W'R OLDSEC .E. FENCE, T'O BADARG                                   013  LM00020
 00237 CLA +0 50000 0 00170    00240 SUB +0 40200 0 00163    00241 TNZ -0 10000 0 00243    00242 TRA +0 02000 0 00024
                 NEWNAM = COMARG.(3)                                                014  LM00021
 00243 TSX +0 07400 4 00003    00244 TXH +3 00000 0 00201    00245 STO +0 60100 0 00165
                 W'R NEWNAM .E. FENCE                                               015  LM00022
 00246 CLA +0 50000 0 00165    00247 SUB +0 40200 0 00163    00250 TNZ -0 10000 0 00256
                   NEWNAM = OLDNAM                                                  016  LM00023
 00251 CLA +0 50000 0 00167    00252 STO +0 60100 0 00165
                   NEWSEC = OLDSEC                                                  017  LM00024
 00253 CLA +0 50000 0 00170    00254 STO +0 60100 0 00166
                   T'O SKP4                                                         018  LM00025
 00255 TRA +0 02000 0 00031
                 END OF CONDITIONAL                                                 019  LM00026
                 NEWSEC = COMARG.(4)                                                020  LM00027
 00256 TSX +0 07400 4 00003    00257 TXH +3 00000 0 00202    00260 STO +0 60100 0 00166
                 W'R  NEWSEC .E. FENCE, NEWSEC = OLDSEC                             021  LM00028
 00261 CLA +0 50000 0 00166    00262 SUB +0 40200 0 00163    00263 TNZ -0 10000 0 00266    00264 CLA +0 50000 0 00170
 00265 STO +0 60100 0 00166
      SKP4       W'R OLDSEC .E. $   FAP$                                            022  LM00029
 00266 CLA +0 50000 0 00170    00267 SUB +0 40200 0 00217    00270 TNZ -0 10000 0 00274
                   DETAB = FAP.                                                     023  LM00030
 00271 CLA +0 50000 0 00017    00272 STO +0 60100 0 00161
                 O'R OLDSEC .E. $   MAD$                                            024  LM00031
 00273 TRA +0 02000 0 00320    00274 CLA +0 50000 0 00170    00275 SUB +0 40200 0 00220    00276 TNZ -0 10000 0 00302
                   DETAB = MAD.                                                     025  LM00032
 00277 CLA +0 50000 0 00021    00300 STO +0 60100 0 00161
                 O'R NEWSEC.E. $   FAP$                                             026  LM00033
 00301 TRA +0 02000 0 00320    00302 CLA +0 50000 0 00166    00303 SUB +0 40200 0 00217    00304 TNZ -0 10000 0 00310
                   DETAB = FAP.                                                     027  LM00034
 00305 CLA +0 50000 0 00017    00306 STO +0 60100 0 00161
                 O'R NEWSEC.E. $   MAD$                                             028  LM00035
 00307 TRA +0 02000 0 00320    00310 CLA +0 50000 0 00166    00311 SUB +0 40200 0 00220    00312 TNZ -0 10000 0 00316
                   DETAB = MAD.                                                     029  LM00036
 00313 CLA +0 50000 0 00021    00314 STO +0 60100 0 00161
                 OTHERWISE                                                          030  LM00037
 00315 TRA +0 02000 0 00320
                   DETAB = STRIP.                                                   031  LM00038
 00316 CLA +0 50000 0 00022    00317 STO +0 60100 0 00161
                 END OF CONDITIONAL                                                 032  LM00039
                 SEEK.(OLDNAM, OLDSEC, CHN)                                         033  LM00041
 00320 TSX +0 07400 4 00013    00321 TXH +3 00000 0 00167    00322 TXH +3 00000 0 00170    00323 TXH +3 00000 0 00025
                 CLRNAM.($(INPUT$, TEMNAM, CHN, 1B)                                 034  LM00042
 00324 TSX +0 07400 4 00002    00325 TXH +3 00000 0 00221    00326 TXH +3 00000 0 00175    00327 TXH +3 00000 0 00025
 00330 TXH +3 00000 0 00177
                 ASSIGN.($(INPUT$, TEMNAM)                                          035  LM00043
 00331 TSX +0 07400 4 00000    00332 TXH +3 00000 0 00221    00333 TXH +3 00000 0 00175
       LOOP      END = RDCARD.(CARD, 84, EOF)                                       036  LM00044
 00334 TSX +0 07400 4 00011    00335 TXH +3 00000 0 00160    00336 TXH +3 00000 0 00211    00337 TXH +3 00000 0 00027
 00340 STO +0 60100 0 00162
                 DETAB(0).                                                          037  LM00045
 00341 TSX +0 07400 4 00161
                 END = END+1                                                        038  LM00046
 00342 CLA +0 50000 0 00162    00343 ADD +0 40000 0 00177    00344 STO +0 60100 0 00162
                 WRITE.(CARD, END)                                                  039  LM00048
 00345 TSX +0 07400 4 00016    00346 TXH +3 00000 0 00160    00347 TXH +3 00000 0 00162
                 T'O LOOP                                                           040  LM00049
 00350 TRA +0 02000 0 00030
      EOF        FILE.                                                              041  LM00050
 00351 TSX +0 07400 4 00005
                 CLRNAM.(NEWNAM, NEWSEC, COM, 1B)                                   042  LM00051
 00352 TSX +0 07400 4 00002    00353 TXH +3 00000 0 00165    00354 TXH +3 00000 0 00166    00355 TXH +3 00000 0 00026
 00356 TXH +3 00000 0 00177
                 RENAME.($(INPUT$, TEMNAM, NEWNAM, NEWSEC)                          043  LM00052
 00357 TSX +0 07400 4 00012    00360 TXH +3 00000 0 00221    00361 TXH +3 00000 0 00175    00362 TXH +3 00000 0 00165
 00363 TXH +3 00000 0 00166
      CHN        SETBCD.                                                            044  LM00053
 00364 TSX +0 07400 4 00014
                 PRINT COMMENT $ *$                                                 045  LM00054
 00365 TSX +0 07400 4 00006    00366     +0 00000 0 00001    00367     -2 05460 6 06060
                 CHNCOM.                                                            046  LM00055
 00370 TSX +0 07400 4 00001
      COM        SETBCD.                                                            047  LM00057
 00371 TSX +0 07400 4 00014
                 PRMESS.($NEW FI$,$LE NAM$,$E IS ($,$INPUT $,TEMNAM)                048  LM00058
 00372 TSX +0 07400 4 00010    00373 TXH +3 00000 0 00216    00374 TXH +3 00000 0 00215    00375 TXH +3 00000 0 00213
 00376 TXH +3 00000 0 00214    00377 TXH +3 00000 0 00175
                 T'O CHN                                                            049  LM00059
 00400 TRA +0 02000 0 00025
      BADARG     PRINT COMMENT $0N1O1T0 1E1N1O1U1G1H0 1A1R1G1U1M1E1N1T1S0.$         050  LM00061
 00401 TSX +0 07400 4 00006    00402     +0 00000 0 00007    00403     +0 04501 4 60163    00404     +0 06001 2 50145
 00405     +0 14601 6 40127    00406     +0 13000 6 00121    00407     +0 15101 2 70164    00410     +0 14401 2 50145
 00411     +0 16301 6 20033
                 T'O CHN                                                            051  LM00062
 00412 TRA +0 02000 0 00025
                 INTERNAL FUNCTION                                                  052  LM00064
 00413 TRA +0 02000 0 00450
                 ENTRY TO STRIP.                                                    053  LM00065
 00414 TRA +0 02000 0 00417    00022 TTR +0 02100 0 00415    00415 SXA +0 63400 2 00440    00416 TSX +0 07400 2 00440
       SLP         THROUGH SLP, FOR END = 72, -1, CARD(END) .NE. BLANK              054  LM00066
                1     .OR. END .LE. 1                                               054  LM00067
 00417 CLA +0 50000 0 00210    00420 STO +0 60100 0 00162    00421 TRA +0 02000 0 00425    00422 CLS +0 50200 0 00177
 00423 ADD +0 40000 0 00162    00424 STO +0 60100 0 00162    00425 CLA +0 50000 0 00162    00426 SUB +0 40200 0 00177
 00427 TZE +0 10000 0 00436    00430 TMI -0 12000 0 00436    00431 LXA +0 53400 1 00162    00432 CLA +0 50000 1 00160
 00433 SUB +0 40200 0 00033    00434 TNZ -0 10000 0 00436    00435 TRA +0 02000 0 00422
                 FUNCTION RETURN                                                    055  LM00068
 00436 TRA +0 02000 0 00444
                 END OF FUNCTION                                                    056  LM00069
 00437 TSX +0 07400 4 00004    00440 TXH +3 00000 0 00000    00441 SXD -0 63400 1 00440    00442 SXA +0 63400 4 00444
 00443 TRA +0 02000 2 00001    00444 AXT +0 77400 4 00000    00445 LXA +0 53400 2 00440    00446 LXD -0 53400 1 00440
 00447 TRA +0 02000 4 00001
                 INTERNAL FUNCTION(ARG, ARG2)                                       057  LM00071
 00450 TRA +0 02000 0 00562
                 ENTRY TO INTAB.                                                    058  LM00072
 00451 TRA +0 02000 0 00454    00020 TTR +0 02100 0 00452    00452 SXA +0 63400 2 00543    00453 TSX +0 07400 2 00543
                   W'R ARG .G. END, FUNCTION RETURN                                 059  LM00073
 00454 CLA +0 50000 0 00024    00455 SUB +0 40200 0 00162    00456 TZE +0 10000 0 00461    00457 TMI -0 12000 0 00461
 00460 TRA +0 02000 0 00556
       BLKCT     THROUGH BLKCT, FOR Q = ARG-1, -1, CARD(Q) .NE. BLANK               060  LM00074
                1    .OR. Q .L. ARG2                                                060  LM00075
 00461 CLA +0 50000 0 00024    00462 SUB +0 40200 0 00177    00463 STO +0 60100 0 00171    00464 TRA +0 02000 0 00470
 00465 CLS +0 50200 0 00177    00466 ADD +0 40000 0 00171    00467 STO +0 60100 0 00171    00470 CLA +0 50000 0 00171
 00471 SUB +0 40200 0 00024    00472 TZE +0 10000 0 00474    00473 TMI -0 12000 0 00501    00474 LXA +0 53400 1 00171
 00475 CLA +0 50000 1 00160    00476 SUB +0 40200 0 00033    00477 TNZ -0 10000 0 00501    00500 TRA +0 02000 0 00465
                   W'R Q .E. ARG-1, FUNCTION RETURN                                 061  LM00076
 00501 CLA +0 50000 0 00024    00502 SUB +0 40200 0 00177    00503 CHS +0 76000 0 00002    00504 ADD +0 40000 0 00171
 00505 TNZ -0 10000 0 00507    00506 TRA +0 02000 0 00556
                   Q = Q + 1                                                        062  LM00077
 00507 CLA +0 50000 0 00171    00510 ADD +0 40000 0 00177    00511 STO +0 60100 0 00171
                   CARD(Q) = TAB                                                    063  LM00078
 00512 LXA +0 53400 1 00171    00513 CLA +0 50000 0 00173    00514 STO +0 60100 1 00160
                   THROUGH MOVE, FOR MVR = ARG, 1, MVR .G. END                      064  LM00079
 00515 CLA +0 50000 0 00024    00516 STO +0 60100 0 00164    00517 TRA +0 02000 0 00523    00520 CLA +0 50000 0 00164
 00521 ADD +0 40000 0 00177    00522 STO +0 60100 0 00164    00523 CLA +0 50000 0 00164    00524 SUB +0 40200 0 00162
 00525 TZE +0 10000 0 00527    00526 TPL +0 12000 0 00537
                     Q = Q + 1                                                      065  LM00080
 00527 CLA +0 50000 0 00171    00530 ADD +0 40000 0 00177    00531 STO +0 60100 0 00171
       MOVE          CARD(Q) = CARD(MVR)                                            066  LM00081
 00532 LXA +0 53400 1 00171    00533 LXA +0 53400 2 00164    00534 CLA +0 50000 2 00160    00535 STO +0 60100 1 00160
 00536 TRA +0 02000 0 00520
                   END = Q                                                          067  LM00082
 00537 CLA +0 50000 0 00171    00540 STO +0 60100 0 00162
                   FUNCTION RETURN                                                  068  LM00083
 00541 TRA +0 02000 0 00556
                 END OF FUNCTION                                                    069  LM00084
 00542 TSX +0 07400 4 00004    00543 TXH +3 00000 0 00000    00544 SXD -0 63400 1 00543    00545 SXA +0 63400 4 00556
 00546 CLA +0 50000 4 00001    00547 STA +0 62100 0 00454    00550 STA +0 62100 0 00461    00551 STA +0 62100 0 00501
 00552 STA +0 62100 0 00515    00553 CLA +0 50000 4 00002    00554 STA +0 62100 0 00471    00555 TRA +0 02000 2 00001
 00556 AXT +0 77400 4 00000    00557 LXA +0 53400 2 00543    00560 LXD -0 53400 1 00543    00561 TRA +0 02000 4 00001
                 INTERNAL FUNCTION                                                  070  LM00086
 00562 TRA +0 02000 0 00612
                 ENTRY TO FAP.                                                      071  LM00087
 00563 TRA +0 02000 0 00566    00017 TTR +0 02100 0 00564    00564 SXA +0 63400 2 00602    00565 TSX +0 07400 2 00602
                   STRIP.                                                           072  LM00088
 00566 TSX +0 07400 4 00022
                   INTAB.(30, 16)                                                   073  LM00089
 00567 TSX +0 07400 4 00020    00570 TXH +3 00000 0 00207    00571 TXH +3 00000 0 00206
                   INTAB.(16, 8)                                                    074  LM00090
 00572 TSX +0 07400 4 00020    00573 TXH +3 00000 0 00206    00574 TXH +3 00000 0 00203
                   INTAB.(8, 0)                                                     075  LM00091
 00575 TSX +0 07400 4 00020    00576 TXH +3 00000 0 00203    00577 TXH +3 00000 0 00176
                   FUNCTION RETURN                                                  076  LM00092
 00600 TRA +0 02000 0 00606
                 END OF FUNCTION                                                    077  LM00093
 00601 TSX +0 07400 4 00004    00602 TXH +3 00000 0 00000    00603 SXD -0 63400 1 00602    00604 SXA +0 63400 4 00606
 00605 TRA +0 02000 2 00001    00606 AXT +0 77400 4 00000    00607 LXA +0 53400 2 00602    00610 LXD -0 53400 1 00602
 00611 TRA +0 02000 4 00001
                 INTERNAL FUNCTION                                                  078  LM00095
 00612 TRA +0 02000 0 00671
                 ENTRY TO MAD.                                                      079  LM00096
 00613 TRA +0 02000 0 00616    00021 TTR +0 02100 0 00614    00614 SXA +0 63400 2 00661    00615 TSX +0 07400 2 00661
                   STRIP.                                                           080  LM00097
 00616 TSX +0 07400 4 00022
                   W'R CARD(11) .NE. BLANK                                          081  LM00098
 00617 CLA +0 50000 0 00145    00620 SUB +0 40200 0 00033    00621 TZE +0 10000 0 00654
                     THROUGH PUSHR, FOR Q = END, -1, Q .L. 11                       082  LM00099
 00622 CLA +0 50000 0 00162    00623 STO +0 60100 0 00171    00624 TRA +0 02000 0 00630    00625 CLS +0 50200 0 00177
 00626 ADD +0 40000 0 00171    00627 STO +0 60100 0 00171    00630 CLA +0 50000 0 00171    00631 SUB +0 40200 0 00204
 00632 TZE +0 10000 0 00634    00633 TMI -0 12000 0 00643
       PUSHR           CARD(Q+1) = CARD(Q)                                          083  LM00100
 00634 CLA +0 50000 0 00171    00635 ADD +0 40000 0 00177    00636 PAX +0 73400 1 00000    00637 LXA +0 53400 2 00171
 00640 CLA +0 50000 2 00160    00641 STO +0 60100 1 00160    00642 TRA +0 02000 0 00625
                     END = END + 1                                                  084  LM00101
 00643 CLA +0 50000 0 00162    00644 ADD +0 40000 0 00177    00645 STO +0 60100 0 00162
                     CARD(11) = BCKSPS                                              085  LM00102
 00646 CLA +0 50000 0 00032    00647 STO +0 60100 0 00145
                     INTAB.(11,0)                                                   086  LM00103
 00650 TSX +0 07400 4 00020    00651 TXH +3 00000 0 00204    00652 TXH +3 00000 0 00176
                   OTHERWISE                                                        087  LM00104
 00653 TRA +0 02000 0 00657
                     INTAB.(12,0)                                                   088  LM00105
 00654 TSX +0 07400 4 00020    00655 TXH +3 00000 0 00205    00656 TXH +3 00000 0 00176
                   END OF CONDITIONAL                                               089  LM00106
                   FUNCTION RETURN                                                  090  LM00107
 00657 TRA +0 02000 0 00665
                 END OF FUNCTION                                                    091  LM00108
 00660 TSX +0 07400 4 00004    00661 TXH +3 00000 0 00000    00662 SXD -0 63400 1 00661    00663 SXA +0 63400 4 00665
 00664 TRA +0 02000 2 00001    00665 AXT +0 77400 4 00000    00666 LXA +0 53400 2 00661    00667 LXD -0 53400 1 00661
 00670 TRA +0 02000 4 00001
                 END OF PROGRAM                                                     092  LM00110
 00671 TSX +0 07400 4 00004
1     MAD PROGRAM LISTING ... ... ...                 FILE  IOCARD   MAD            04/23/68    2128.7
-
                 ..     DISK CARD I/O CHARACTER CONTROL ROUTINE.                                       LM00001
                 ..     J. H. SALTZER, JANUARY, 1965.                                                  LM00002
                                                                                                       LM00003
                  EXTERNAL FUNCTION(LINE, ARG2, EOF)                                              *001 LM00004
                                                                                                       LM00005
                  NORMAL MODE IS INTEGER                                                          *002 LM00006
                  VECTOR VALUES NBITS = 6                                                         *003 LM00007
                  VECTOR VALUES WRDSIZ = 36                                                       *004 LM00008
                  VECTOR VALUES BLANK = $00000 $                                                  *005 LM00009
                  VECTOR VALUES CHMASK = 77K                                                      *006 LM00010
                                                                                                       LM00011
                 ..  TO WRITE OUT A CARD . .                                                           LM00012
                 ..          WRCARD.(CARD, COUNT)                                                      LM00013
                                                                                                       LM00014
                  ENTRY TO WRCARD.                                                                *007 LM00015
                  COUNT = ARG2                                                                    *008 LM00016
                  WHENEVER COUNT .G. 84, COUNT = 84                                               *009 LM00017
                    K = 0                                                                         *010 LM00018
                    THROUGH WRLOOP, FOR J = 1, 1, J .G. COUNT                                     *011 LM00019
                      TWORD = (TWORD .LS. 6) .V. LINE(J)                                          *012 LM00020
                      K = K + 1                                                                   *013 LM00021
                      WHENEVER K .GE. 6                                                           *014 LM00022
                        K = 0                                                                     *015 LM00023
                        WRWORD.(TWORD)                                                            *016 LM00024
       WRLOOP         END OF CONDITIONAL                                                          *017 LM00025
                    THROUGH FILOOP, FOR J = J, 1, J .G. 84                                        *018 LM00026
                      TWORD = (TWORD .LS. 6) .V. BLANK                                            *019 LM00027
                      K = K +1                                                                    *020 LM00028
                      WHENEVER K .GE. 6                                                           *021 LM00029
                        K = 0                                                                     *022 LM00030
                        WRWORD.(TWORD)                                                            *023 LM00031
       FILOOP         END OF CONDITIONAL                                                          *024 LM00032
                    FUNCTION RETURN                                                               *025 LM00033
                                                                                                       LM00034
                 ..                                                                                    LM00035
                 ..  TO READ A CARD . .                                                                LM00036
                 ..          LENGTH = RDCARD.(CARD(0), BUFSIZ, EOF)                                    LM00037
                                                                                                       LM00038
                  ENTRY TO RDCARD.                                                                *026 LM00039
                    SIZE = 0                                                                      *027 LM00040
                    THROUGH WRDLP, FOR J = 1, 1, J .G. 14                                         *028 LM00041
                      WORD = RDWORD.(EOF)                                                         *029 LM00042
                      THROUGH DISECT, FOR I = 30, -6, I .L. 0                                     *030 LM00043
                        CHAR = (WORD .RS. I) .A. CHMASK                                           *031 LM00044
                        SIZE = SIZE + 1                                                           *032 LM00045
       DISECT           LINE(SIZE) = CHAR                                                         *033 LM00046
       WRDLP          CONTINUE                                                                    *034 LM00047
                    FUNCTION RETURN 84                                                            *035 LM00048
                                                                                                       LM00049
                  END OF FUNCTION                                                                 *036 LM00050
1MAD PROGRAM,TYPE NOV 1963      (ALL NUMBERS ARE OCTAL)
0TOTAL LOCATIONS   00234 TRANSFER VECTOR LENGTH  00003 PROGRAM BEGINS    00027
0 PROGRAM IS AN EXTERNAL FUNCTION.   THE FOLLOWING ARE ENTRIES
      RDCARD 00137   0        WRCARD 00030   0
0VARIABLE STORAGE (A=ARRAY,C=COMMON,E=ERASABLE,DIGIT=MODE)
      BLANK  00004 A 1        DISECT 00003   4        J      00011   1        SIZE   00014   1        WRDLP  00003   4
      CHAR   00005   1        FILOOP 00003   4        K      00012   1        TWORD  00015   1        WRDSIZ 00017 A 1
      CHMASK 00006 A 1        I      00010   1        NBITS  00013 A 1        WORD   00016   1        WRLOOP 00003   4
      COUNT  00007   1
0FUNCTION DICTIONARY
      EXIT   00000   1        RDWORD 00001   1        WRWORD 00002   1
0ABSOLUTE CONSTANTS
 00024 +000000000036     00023 +000000000016     00022 +000000000006     00020 +000000000000     00025 +000000000124
 00021 +000000000001     00026 +233000000000
0PROGRAM
                 EXTERNAL FUNCTION(LINE, ARG2, EOF)                                 001  LM00004
                 NORMAL MODE IS INTEGER                                             002  LM00006
                 VECTOR VALUES NBITS = 6                                            003  LM00007
 00013     +0 00000 0 00006
                 VECTOR VALUES WRDSIZ = 36                                          004  LM00008
 00017     +0 00000 0 00044
                 VECTOR VALUES BLANK = $00000 $                                     005  LM00009
 00004     +0 00000 0 00060
                 VECTOR VALUES CHMASK = 77K                                         006  LM00010
 00006     +0 00000 0 00077
                 ENTRY TO WRCARD.                                                   007  LM00015
 00027 TRA +0 02000 0 00032    00030 SXA +0 63400 2 00213    00031 TSX +0 07400 2 00213
                 COUNT = ARG2                                                       008  LM00016
 00032 CLA +0 50000 0 00024    00033 STO +0 60100 0 00007
                 WHENEVER COUNT .G. 84, COUNT = 84                                  009  LM00017
 00034 CLA +0 50000 0 00007    00035 SUB +0 40200 0 00025    00036 TZE +0 10000 0 00042    00037 TMI -0 12000 0 00042
 00040 CLA +0 50000 0 00025    00041 STO +0 60100 0 00007
                   K = 0                                                            010  LM00018
 00042 CLA +0 50000 0 00020    00043 STO +0 60100 0 00012
                   THROUGH WRLOOP, FOR J = 1, 1, J .G. COUNT                        011  LM00019
 00044 CLA +0 50000 0 00021    00045 STO +0 60100 0 00011    00046 TRA +0 02000 0 00052    00047 CLA +0 50000 0 00011
 00050 ADD +0 40000 0 00021    00051 STO +0 60100 0 00011    00052 CLA +0 50000 0 00011    00053 SUB +0 40200 0 00007
 00054 TZE +0 10000 0 00056    00055 TPL +0 12000 0 00101
                     TWORD = (TWORD .LS. 6) .V. LINE(J)                             012  LM00020
 00056 CAL -0 50000 0 00022    00057 STA +0 62100 0 00061    00060 CAL -0 50000 0 00015    00061 ALS +0 76700 0 00000
 00062 LXA +0 53400 2 00011    00063 ORA -0 50100 2 00024    00064 SLW +0 60200 0 00015
                     K = K + 1                                                      013  LM00021
 00065 CLA +0 50000 0 00012    00066 ADD +0 40000 0 00021    00067 STO +0 60100 0 00012
                     WHENEVER K .GE. 6                                              014  LM00022
 00070 CLA +0 50000 0 00012    00071 SUB +0 40200 0 00022    00072 TZE +0 10000 0 00074    00073 TMI -0 12000 0 00100
                       K = 0                                                        015  LM00023
 00074 CLA +0 50000 0 00020    00075 STO +0 60100 0 00012
                       WRWORD.(TWORD)                                               016  LM00024
 00076 TSX +0 07400 4 00002    00077 TXH +3 00000 0 00015
       WRLOOP        END OF CONDITIONAL                                             017  LM00025
 00100 TRA +0 02000 0 00047
                   THROUGH FILOOP, FOR J = J, 1, J .G. 84                           018  LM00026
 00101 CLA +0 50000 0 00011    00102 STO +0 60100 0 00011    00103 TRA +0 02000 0 00107    00104 CLA +0 50000 0 00011
 00105 ADD +0 40000 0 00021    00106 STO +0 60100 0 00011    00107 CLA +0 50000 0 00011    00110 SUB +0 40200 0 00025
 00111 TZE +0 10000 0 00113    00112 TPL +0 12000 0 00135
                     TWORD = (TWORD .LS. 6) .V. BLANK                               019  LM00027
 00113 CAL -0 50000 0 00022    00114 STA +0 62100 0 00116    00115 CAL -0 50000 0 00015    00116 ALS +0 76700 0 00000
 00117 ORA -0 50100 0 00004    00120 SLW +0 60200 0 00015
                     K = K +1                                                       020  LM00028
 00121 CLA +0 50000 0 00012    00122 ADD +0 40000 0 00021    00123 STO +0 60100 0 00012
                     WHENEVER K .GE. 6                                              021  LM00029
 00124 CLA +0 50000 0 00012    00125 SUB +0 40200 0 00022    00126 TZE +0 10000 0 00130    00127 TMI -0 12000 0 00134
                       K = 0                                                        022  LM00030
 00130 CLA +0 50000 0 00020    00131 STO +0 60100 0 00012
                       WRWORD.(TWORD)                                               023  LM00031
 00132 TSX +0 07400 4 00002    00133 TXH +3 00000 0 00015
       FILOOP        END OF CONDITIONAL                                             024  LM00032
 00134 TRA +0 02000 0 00104
                   FUNCTION RETURN                                                  025  LM00033
 00135 TRA +0 02000 0 00226
                 ENTRY TO RDCARD.                                                   026  LM00039
 00136 TRA +0 02000 0 00141    00137 SXA +0 63400 2 00213    00140 TSX +0 07400 2 00213
                   SIZE = 0                                                         027  LM00040
 00141 CLA +0 50000 0 00020    00142 STO +0 60100 0 00014
                   THROUGH WRDLP, FOR J = 1, 1, J .G. 14                            028  LM00041
 00143 CLA +0 50000 0 00021    00144 STO +0 60100 0 00011    00145 TRA +0 02000 0 00151    00146 CLA +0 50000 0 00011
 00147 ADD +0 40000 0 00021    00150 STO +0 60100 0 00011    00151 CLA +0 50000 0 00011    00152 SUB +0 40200 0 00023
 00153 TZE +0 10000 0 00155    00154 TPL +0 12000 0 00210
                     WORD = RDWORD.(EOF)                                            029  LM00042
 00155 TSX +0 07400 4 00001    00156 TXH +3 00000 0 00024    00157 STO +0 60100 0 00016
                     THROUGH DISECT, FOR I = 30, -6, I .L. 0                        030  LM00043
 00160 CLA +0 50000 0 00024    00161 STO +0 60100 0 00010    00162 TRA +0 02000 0 00166    00163 CLS +0 50200 0 00022
 00164 ADD +0 40000 0 00010    00165 STO +0 60100 0 00010    00166 CLA +0 50000 0 00010    00167 SUB +0 40200 0 00020
 00170 TZE +0 10000 0 00172    00171 TMI -0 12000 0 00207
                       CHAR = (WORD .RS. I) .A. CHMASK                              031  LM00044
 00172 CAL -0 50000 0 00010    00173 STA +0 62100 0 00175    00174 CAL -0 50000 0 00016    00175 LGR -0 76500 0 00000
 00176 ANA -0 32000 0 00006    00177 SLW +0 60200 0 00005
                       SIZE = SIZE + 1                                              032  LM00045
 00200 CLA +0 50000 0 00014    00201 ADD +0 40000 0 00021    00202 STO +0 60100 0 00014
       DISECT          LINE(SIZE) = CHAR                                            033  LM00046
 00203 LXA +0 53400 1 00014    00204 CLA +0 50000 0 00005    00205 STO +0 60100 1 00024    00206 TRA +0 02000 0 00163
       WRDLP         CONTINUE                                                       034  LM00047
 00207 TRA +0 02000 0 00146
                   FUNCTION RETURN 84                                               035  LM00048
 00210 CLA +0 50000 0 00025    00211 TRA +0 02000 0 00226
                 END OF FUNCTION                                                    036  LM00050
 00212 TSX +0 07400 4 00000    00213 TXH +3 00000 0 00000    00214 SXD -0 63400 1 00213    00215 SXA +0 63400 4 00226
 00216 CLA +0 50000 4 00001    00217 STA +0 62100 0 00063    00220 STA +0 62100 0 00205    00221 CLA +0 50000 4 00002
 00222 STA +0 62100 0 00032    00223 CLA +0 50000 4 00003    00224 STO +0 60100 0 00156    00225 TRA +0 02000 2 00001
 00226 AXT +0 77400 4 00000    00227 LXA +0 53400 2 00213    00230 LXD -0 53400 1 00213    00231 TRA +0 02000 4 00001
1     MAD PROGRAM LISTING ... ... ...                 FILE    6TYP   MAD            04/23/68    2128.9
-
                 ..  TYPEWRITER INPUT CHARACTER CONTROL ROUTINE.                                       LM00001
                 ..  USAGE. . .   COUNT = TYPEIN.(BUFFER, BUFSIZ, ERASE, KILL)                         LM00002
                           J. H. SALTZER, JANUARY, 1965.                                               LM00003
                                                                                                       LM00004
                  EXTERNAL FUNCTION(LINE, BUFSIZ)                                                 *001 LM00005
                                                                                                       LM00006
                  NORMAL MODE IS INTEGER                                                          *002 LM00007
                  VECTOR VALUES E1 = 0137K                                                        *003 LM00008
                  VECTOR VALUES K1 = 0156K                                                        *004 LM00009
                  VECTOR VALUES NBITS = 12                                                        *005 LM00010
                  VECTOR VALUES NULL = 0057K                                                      *006 LM00011
                  VECTOR VALUES ERASE = 0504K                                                     *007 LM00012
                  VECTOR VALUES KILL = 0506K                                                      *008 LM00013
                  VECTOR VALUES RETURN = 0055K                                                    *009 LM00014
                  VECTOR VALUES WRDSIZ = 36                                                       *010 LM00015
                  VECTOR VALUES CHMASK = 7777K                                                    *011 LM00016
                                                                                                       LM00017
                  ENTRY TO SETERS.                                                                *012 LM00018
                    ERASE = LINE                                                                  *013 LM00019
                    FUNCTION RETURN                                                               *014 LM00020
                                                                                                       LM00021
                  ENTRY TO SETKIL.                                                                *015 LM00022
                    KILL = LINE                                                                   *016 LM00023
                    FUNCTION RETURN                                                               *017 LM00024
                                                                                                       LM00025
                  ENTRY TO CANON.                                                                 *018 LM00026
                    FUNCTION RETURN                                                               *019 LM00027
                                                                                                       LM00028
                  ENTRY TO TYPEIN.                                                                *020 LM00029
                    SIZE = 0                                                                      *021 LM00030
                    TYLINE.                                                                       *022 LM00031
       LOOP         WORD = TYWORD.(0)                                                             *023 LM00032
                    THROUGH DISECT, FOR I = WRDSIZ-NBITS,-NBITS, I .L. 0                          *024 LM00033
                      CHAR = (WORD.RS.I) .A. CHMASK                                               *025 LM00034
                      WHENEVER CHAR .E. ERASE .OR. CHAR .E. E1                                    *026 LM00035
                        WHENEVER SIZE .G. 0, SIZE = SIZE - 1                                      *027 LM00036
                      OR WHENEVER CHAR .E. KILL .OR. CHAR .E. K1                                  *028 LM00037
                        SIZE = 0                                                                  *029 LM00038
                      OR WHENEVER CHAR .E. RETURN .OR. CHAR.RS.6 .E. RETURN                       *030 LM00039
                        TRANSFER TO UND                                                           *031 LM00040
                      OR WHENEVER CHAR .A. 0400K .E. 0                                            *032 LM00041
                        SIZE = SIZE + 1                                                           *033 LM00042
                        LINE(SIZE) = CHAR.A.77K                                                   *034 LM00043
                      END OF CONDITIONAL                                                          *035 LM00044
       DISECT         WHENEVER SIZE .GE. BUFSIZ, TRANSFER TO UND                                  *036 LM00045
                    TRANSFER TO LOOP                                                              *037 LM00046
      UND           SIZE = SIZE + 1                                                               *038 LM00047
                    LINE(SIZE) = RETURN                                                           *039 LM00048
                    FUNCTION RETURN SIZE                                                          *040 LM00049
                                                                                                       LM00050
                 ..     TYPEWRITER OUTPUT CHARACTER CONTROL ROUTINE.                                   LM00051
                 ..     USAGE. . .    TYPOUT.(LINE, LENGTH)                                            LM00052
                                                                                                       LM00053
                  ENTRY TO TYPOUT.                                                                *041 LM00054
                    K = 0                                                                         *042 LM00055
                    SETFUL.                                                                       *043 LM00056
                    THROUGH PRLOOP, FOR J = 1, 1, J .G. BUFSIZ                                    *044 LM00057
                      TWORD = (TWORD .LS. NBITS) .V. LINE(J)                                      *045 LM00058
                      K = K + 1                                                                   *046 LM00059
                      WHENEVER K .GE. WRDSIZ/NBITS                                                *047 LM00060
                        K = 0                                                                     *048 LM00061
                        PRWORD.(TWORD)                                                            *049 LM00062
       PRLOOP         END OF CONDITIONAL                                                          *050 LM00063
                    THROUGH NULPK, FOR K = K, 1, K.GE. WRDSIZ/NBITS                               *051 LM00064
       NULPK          TWORD = (TWORD.LS.NBITS) .V. NULL                                           *052 LM00065
                    PRWORD.(TWORD)                                                                *053 LM00066
                    PRBUFF.                                                                       *054 LM00067
                    FUNCTION RETURN                                                               *055 LM00068
                                                                                                       LM00069
                  ENTRY TO HOL.                                                                   *056 LM00070
                    FUNCTION RETURN LINE .A. 77K                                                  *057 LM00071
                                                                                                       LM00072
                  END OF FUNCTION                                                                 *058 LM00073
1MAD PROGRAM,TYPE NOV 1963      (ALL NUMBERS ARE OCTAL)
0TOTAL LOCATIONS   00351 TRANSFER VECTOR LENGTH  00006 PROGRAM BEGINS    00037
0 PROGRAM IS AN EXTERNAL FUNCTION.   THE FOLLOWING ARE ENTRIES
      HOL    00314   0        TYPOUT 00212   0        TYPEIN 00060   0        CANON  00054   0        SETKIL 00046   0
      SETERS 00040   0
0VARIABLE STORAGE (A=ARRAY,C=COMMON,E=ERASABLE,DIGIT=MODE)
      CHAR   00011   1        I      00015   1        K      00021   1        NULPK  00006   4        TWORD  00026   1
      CHMASK 00012 A 1        J      00016   1        LOOP   00007   4        PRLOOP 00006   4        UND    00010   4
      DISECT 00006   4        K1     00017 A 1        NBITS  00022 A 1        RETURN 00024 A 1        WORD   00027   1
      E1     00013 A 1        KILL   00020 A 1        NULL   00023 A 1        SIZE   00025   1        WRDSIZ 00030 A 1
      ERASE  00014 A 1
0FUNCTION DICTIONARY
      EXIT   00000   1        PRBUFF 00001   1        PRWORD 00002   1        SETFUL 00003   1        TYLINE 00004   1
      TYWORD 00005   1
0ABSOLUTE CONSTANTS
 00034 +000000000077     00035 +000000000400     00033 +000000000006     00031 +000000000000     00032 +000000000001
 00036 +233000000000
0STATEMENT DICTIONARY
 00007 TXL -300070000065       00010 TXL -300204000201
0PROGRAM
                 EXTERNAL FUNCTION(LINE, BUFSIZ)                                    001  LM00005
                 NORMAL MODE IS INTEGER                                             002  LM00007
                 VECTOR VALUES E1 = 0137K                                           003  LM00008
 00013     +0 00000 0 00137
                 VECTOR VALUES K1 = 0156K                                           004  LM00009
 00017     +0 00000 0 00156
                 VECTOR VALUES NBITS = 12                                           005  LM00010
 00022     +0 00000 0 00014
                 VECTOR VALUES NULL = 0057K                                         006  LM00011
 00023     +0 00000 0 00057
                 VECTOR VALUES ERASE = 0504K                                        007  LM00012
 00014     +0 00000 0 00504
                 VECTOR VALUES KILL = 0506K                                         008  LM00013
 00020     +0 00000 0 00506
                 VECTOR VALUES RETURN = 0055K                                       009  LM00014
 00024     +0 00000 0 00055
                 VECTOR VALUES WRDSIZ = 36                                          010  LM00015
 00030     +0 00000 0 00044
                 VECTOR VALUES CHMASK = 7777K                                       011  LM00016
 00012     +0 00000 0 07777
                 ENTRY TO SETERS.                                                   012  LM00018
 00037 TRA +0 02000 0 00042    00040 SXA +0 63400 2 00324    00041 TSX +0 07400 2 00324
                   ERASE = LINE                                                     013  LM00019
 00042 CLA +0 50000 0 00024    00043 STO +0 60100 0 00014
                   FUNCTION RETURN                                                  014  LM00020
 00044 TRA +0 02000 0 00342
                 ENTRY TO SETKIL.                                                   015  LM00022
 00045 TRA +0 02000 0 00050    00046 SXA +0 63400 2 00324    00047 TSX +0 07400 2 00324
                   KILL = LINE                                                      016  LM00023
 00050 CLA +0 50000 0 00024    00051 STO +0 60100 0 00020
                   FUNCTION RETURN                                                  017  LM00024
 00052 TRA +0 02000 0 00342
                 ENTRY TO CANON.                                                    018  LM00026
 00053 TRA +0 02000 0 00056    00054 SXA +0 63400 2 00324    00055 TSX +0 07400 2 00324
                   FUNCTION RETURN                                                  019  LM00027
 00056 TRA +0 02000 0 00342
                 ENTRY TO TYPEIN.                                                   020  LM00029
 00057 TRA +0 02000 0 00062    00060 SXA +0 63400 2 00324    00061 TSX +0 07400 2 00324
                   SIZE = 0                                                         021  LM00030
 00062 CLA +0 50000 0 00031    00063 STO +0 60100 0 00025
                   TYLINE.                                                          022  LM00031
 00064 TSX +0 07400 4 00004
       LOOP        WORD = TYWORD.(0)                                                023  LM00032
 00065 TSX +0 07400 4 00005    00066 TXH +3 00000 0 00031    00067 STO +0 60100 0 00027
                   THROUGH DISECT, FOR I = WRDSIZ-NBITS,-NBITS, I .L. 0             024  LM00033
 00070 CLA +0 50000 0 00030    00071 SUB +0 40200 0 00022    00072 STO +0 60100 0 00015    00073 TRA +0 02000 0 00077
 00074 CLS +0 50200 0 00022    00075 ADD +0 40000 0 00015    00076 STO +0 60100 0 00015    00077 CLA +0 50000 0 00015
 00100 SUB +0 40200 0 00031    00101 TZE +0 10000 0 00103    00102 TMI -0 12000 0 00200
                     CHAR = (WORD.RS.I) .A. CHMASK                                  025  LM00034
 00103 CAL -0 50000 0 00015    00104 STA +0 62100 0 00106    00105 CAL -0 50000 0 00027    00106 LGR -0 76500 0 00000
 00107 ANA -0 32000 0 00012    00110 SLW +0 60200 0 00011
                     WHENEVER CHAR .E. ERASE .OR. CHAR .E. E1                       026  LM00035
 00111 CLA +0 50000 0 00011    00112 SUB +0 40200 0 00013    00113 TZE +0 10000 0 00117    00114 CLA +0 50000 0 00011
 00115 SUB +0 40200 0 00014    00116 TNZ -0 10000 0 00127
                       WHENEVER SIZE .G. 0, SIZE = SIZE - 1                         027  LM00036
 00117 CLA +0 50000 0 00025    00120 SUB +0 40200 0 00031    00121 TZE +0 10000 0 00126    00122 TMI -0 12000 0 00126
 00123 CLA +0 50000 0 00025    00124 SUB +0 40200 0 00032    00125 STO +0 60100 0 00025
                     OR WHENEVER CHAR .E. KILL .OR. CHAR .E. K1                     028  LM00037
 00126 TRA +0 02000 0 00172    00127 CLA +0 50000 0 00011    00130 SUB +0 40200 0 00017    00131 TZE +0 10000 0 00135
 00132 CLA +0 50000 0 00011    00133 SUB +0 40200 0 00020    00134 TNZ -0 10000 0 00140
                       SIZE = 0                                                     029  LM00038
 00135 CLA +0 50000 0 00031    00136 STO +0 60100 0 00025
                     O'R CHAR .E. RETURN .OR. CHAR.RS.6 .E. RETURN                  030  LM00039
 00137 TRA +0 02000 0 00172    00140 CAL -0 50000 0 00033    00141 STA +0 62100 0 00143    00142 CAL -0 50000 0 00011
 00143 LGR -0 76500 0 00000    00144 SLW +0 60200 0 00346    00145 CLA +0 50000 0 00346    00146 SUB +0 40200 0 00024
 00147 TZE +0 10000 0 00153    00150 CLA +0 50000 0 00011    00151 SUB +0 40200 0 00024    00152 TNZ -0 10000 0 00155
                       TRANSFER TO UND                                              031  LM00040
 00153 TRA +0 02000 0 00010
                     O'R CHAR .A. 0400K .E. 0                                       032  LM00041
 00154 TRA +0 02000 0 00172    00155 CAL -0 50000 0 00011    00156 ANA -0 32000 0 00035    00157 SLW +0 60200 0 00346
 00160 CLA +0 50000 0 00346    00161 SUB +0 40200 0 00031    00162 TNZ -0 10000 0 00172
                       SIZE = SIZE + 1                                              033  LM00042
 00163 CLA +0 50000 0 00025    00164 ADD +0 40000 0 00032    00165 STO +0 60100 0 00025
                       LINE(SIZE) = CHAR.A.77K                                      034  LM00043
 00166 CAL -0 50000 0 00011    00167 ANA -0 32000 0 00034    00170 LXA +0 53400 1 00025    00171 SLW +0 60200 1 00024
                     END OF CONDITIONAL                                             035  LM00044
       DISECT        WHENEVER SIZE .GE. BUFSIZ, TRANSFER TO UND                     036  LM00045
 00172 CLA +0 50000 0 00025    00173 SUB +0 40200 0 00024    00174 TZE +0 10000 0 00176    00175 TMI -0 12000 0 00177
 00176 TRA +0 02000 0 00010    00177 TRA +0 02000 0 00074
                   TRANSFER TO LOOP                                                 037  LM00046
 00200 TRA +0 02000 0 00007
      UND          SIZE = SIZE + 1                                                  038  LM00047
 00201 CLA +0 50000 0 00025    00202 ADD +0 40000 0 00032    00203 STO +0 60100 0 00025
                   LINE(SIZE) = RETURN                                              039  LM00048
 00204 LXA +0 53400 1 00025    00205 CLA +0 50000 0 00024    00206 STO +0 60100 1 00024
                   FUNCTION RETURN SIZE                                             040  LM00049
 00207 CLA +0 50000 0 00025    00210 TRA +0 02000 0 00342
                 ENTRY TO TYPOUT.                                                   041  LM00054
 00211 TRA +0 02000 0 00214    00212 SXA +0 63400 2 00324    00213 TSX +0 07400 2 00324
                   K = 0                                                            042  LM00055
 00214 CLA +0 50000 0 00031    00215 STO +0 60100 0 00021
                   SETFUL.                                                          043  LM00056
 00216 TSX +0 07400 4 00003
                   THROUGH PRLOOP, FOR J = 1, 1, J .G. BUFSIZ                       044  LM00057
 00217 CLA +0 50000 0 00032    00220 STO +0 60100 0 00016    00221 TRA +0 02000 0 00225    00222 CLA +0 50000 0 00016
 00223 ADD +0 40000 0 00032    00224 STO +0 60100 0 00016    00225 CLA +0 50000 0 00016    00226 SUB +0 40200 0 00024
 00227 TZE +0 10000 0 00231    00230 TPL +0 12000 0 00261
                     TWORD = (TWORD .LS. NBITS) .V. LINE(J)                         045  LM00058
 00231 CAL -0 50000 0 00022    00232 STA +0 62100 0 00234    00233 CAL -0 50000 0 00026    00234 ALS +0 76700 0 00000
 00235 LXA +0 53400 2 00016    00236 ORA -0 50100 2 00024    00237 SLW +0 60200 0 00026
                     K = K + 1                                                      046  LM00059
 00240 CLA +0 50000 0 00021    00241 ADD +0 40000 0 00032    00242 STO +0 60100 0 00021
                     WHENEVER K .GE. WRDSIZ/NBITS                                   047  LM00060
 00243 LDQ +0 56000 0 00030    00244 PXD -0 75400 0 00000    00245 LLS +0 76300 0 00000    00246 DVP +0 22100 0 00022
 00247 XCA +0 13100 0 00000    00250 CHS +0 76000 0 00002    00251 ADD +0 40000 0 00021    00252 TZE +0 10000 0 00254
 00253 TMI -0 12000 0 00260
                       K = 0                                                        048  LM00061
 00254 CLA +0 50000 0 00031    00255 STO +0 60100 0 00021
                       PRWORD.(TWORD)                                               049  LM00062
 00256 TSX +0 07400 4 00002    00257 TXH +3 00000 0 00026
       PRLOOP        END OF CONDITIONAL                                             050  LM00063
 00260 TRA +0 02000 0 00222
                   THROUGH NULPK, FOR K = K, 1, K.GE. WRDSIZ/NBITS                  051  LM00064
 00261 CLA +0 50000 0 00021    00262 STO +0 60100 0 00021    00263 TRA +0 02000 0 00267    00264 CLA +0 50000 0 00021
 00265 ADD +0 40000 0 00032    00266 STO +0 60100 0 00021    00267 LDQ +0 56000 0 00030    00270 PXD -0 75400 0 00000
 00271 LLS +0 76300 0 00000    00272 DVP +0 22100 0 00022    00273 XCA +0 13100 0 00000    00274 CHS +0 76000 0 00002
 00275 ADD +0 40000 0 00021    00276 TZE +0 10000 0 00307    00277 TPL +0 12000 0 00307
       NULPK         TWORD = (TWORD.LS.NBITS) .V. NULL                              052  LM00065
 00300 CAL -0 50000 0 00022    00301 STA +0 62100 0 00303    00302 CAL -0 50000 0 00026    00303 ALS +0 76700 0 00000
 00304 ORA -0 50100 0 00023    00305 SLW +0 60200 0 00026    00306 TRA +0 02000 0 00264
                   PRWORD.(TWORD)                                                   053  LM00066
 00307 TSX +0 07400 4 00002    00310 TXH +3 00000 0 00026
                   PRBUFF.                                                          054  LM00067
 00311 TSX +0 07400 4 00001
                   FUNCTION RETURN                                                  055  LM00068
 00312 TRA +0 02000 0 00342
                 ENTRY TO HOL.                                                      056  LM00070
 00313 TRA +0 02000 0 00316    00314 SXA +0 63400 2 00324    00315 TSX +0 07400 2 00324
                   FUNCTION RETURN LINE .A. 77K                                     057  LM00071
 00316 CAL -0 50000 0 00024    00317 ANA -0 32000 0 00034    00320 SLW +0 60200 0 00346    00321 CLA +0 50000 0 00346
 00322 TRA +0 02000 0 00342
                 END OF FUNCTION                                                    058  LM00073
 00323 TSX +0 07400 4 00000    00324 TXH +3 00000 0 00000    00325 SXD -0 63400 1 00324    00326 SXA +0 63400 4 00342
 00327 CLA +0 50000 4 00001    00330 STA +0 62100 0 00042    00331 STA +0 62100 0 00050    00332 STA +0 62100 0 00171
 00333 STA +0 62100 0 00206    00334 STA +0 62100 0 00236    00335 STA +0 62100 0 00316    00336 CLA +0 50000 4 00002
 00337 STA +0 62100 0 00173    00340 STA +0 62100 0 00226    00341 TRA +0 02000 2 00001    00342 AXT +0 77400 4 00000
 00343 LXA +0 53400 2 00324    00344 LXD -0 53400 1 00324    00345 TRA +0 02000 4 00001
1            ROUTINE TO RENAME A FILE, FORCING PERMANENT MODE IS POSSIBLE.                       PAGE 1

                              *        J. H. SALTZER, MAY, 1965.
                              *
                       00004         ENTRY   RENAME        RENAME FILE.
                              *
                                     EXTERN CHFILE,WRFLX
                              *

        TRANSFER VECTOR
      00000  233026314325     CHFILE
      00001  665126436760     WRFLX

            LINKAGE DIRECTOR
      00002  000000000000
      00003  512545214425

      00004  0500 60 4 00001  RENAME CLA*    1,4           GET FILE NAMES.
      00005  0601 00 0 00071         STO     OLD1          ..
      00006  0500 60 4 00002         CLA*    2,4           ..
      00007  0601 00 0 00072         STO     OLD2          ..
      00010  0601 00 0 00074         STO     NEW2          ASSUME NO CHANGE IN SECONDARY NAMES.
      00011  0500 60 4 00003         CLA*    3,4           ..
      00012  0601 00 0 00073         STO     NEW1          ..
      00013  0560 00 4 00004         LDQ     4,4           CHECK FOR TXH
      00014  0500 00 0 00076         CLA     =O300000000000 ..
      00015  0040 00 0 00020         TLQ     SKPN2         NO TXH, SECONDARY NAME UNCHANGED.
      00016  0500 60 4 00004         CLA*    4,4           TXH, CHANGE SECONDARY NAME.
      00017  0601 00 0 00074         STO     NEW2          ..
      00020  0634 00 4 00036  SKPN2  SXA     RETURN,4      SAVE LINKAGE.
      00021  0074 00 4 00000         TSX     CHFILE,4      CHANGE NAME WITHOUT CHANGING MODE.
 TD   00022  3 00000 0 00071         TXH     OLD1          ..
 TD   00023  3 00000 0 00072         TXH     OLD2          ..
 TD   00024  3 00000 0 00077         TXH     =-0           MODE UNCHANGED.
 TD   00025  3 00000 0 00073         TXH     NEW1          ..
 TD   00026  3 00000 0 00074         TXH     NEW2          ..
      00027  0074 00 4 00000         TSX     CHFILE,4      CHANGE MODE WITHOUT CHANGING NAME.
 TD   00030  3 00000 0 00073         TXH     NEW1          ..
 TD   00031  3 00000 0 00074         TXH     NEW2          ..
 TD   00032  3 00000 0 00075         TXH     =0            PERMANENT MODE.
 TD   00033  3 00000 0 00077         TXH     =-0           NAME UNCHANGED.
 TD   00034  3 00000 0 00077         TXH     =-0           ..
 TD   00035  3 00000 0 00040         TXH     CHERR         IN CASE MODE UNCHANGEABLE.
      00036  0774 00 4 00000  RETURN AXT     --,4          RESTORE LINKAGE.
      00037  0020 00 4 00001         TRA     1,4           RETURN TO CALLER.
                              *
      00040  0074 00 4 00001  CHERR  TSX     WRFLX,4       ASSUME TRACK QUOTA EXHAUSTED, AND COMMENT.
      00041  0 00010 0 00045                 TRKQUO,,8     ..
      00042  0074 00 4 00001         TSX     WRFLX,4       MENTION THAT NEW FILE IS TEMP MODE.
      00043  0 00013 0 00055                 TMPMOD,,11    ....
      00044  0020 00 0 00036         TRA     RETURN        EXIT.
                              *
                              *              COMMENTS AND STORAGE.
                              *
      00045  006301510121     TRKQUO BCI     8,0T1R1A1C1K0 1Q1U1O1T1A0 0E0X0H0A0U0S0T0E0D0.
      00046  012301420060
      00047  015001640146
      00050  016301210060
1            ROUTINE TO RENAME A FILE, FORCING PERMANENT MODE IS POSSIBLE.                       PAGE 2

      00051  002500670030
      00052  002100640062
      00053  006300250024
      00054  003360606060
                              *
      00055  007001460164     TMPMOD BCI     5,0Y1O1U1R0 1N1E1W0 1F1I1L1E0 1I
      00056  015100600145
      00057  012501660060
      00060  012601310143
      00061  012500600131
      00062 +016200600133            OCT     016200600133  S, BLANK, RED SHIFT.
      00063  006300250044            BCI     3,0T0E0M0P0O0R0A0R0Y
      00064  004700460051
      00065  002100510070
      00066 +013200600144            OCT     013200600144  BLACK SHIFT, BLANK, SMALL M.
      00067  014601240125            BCI     2,1O1D1E0.
      00070  003360606060
                              *
      00071  0 00000 0 00000  OLD1
      00072  0 00000 0 00000  OLD2
      00073  0 00000 0 00000  NEW1
      00074  0 00000 0 00000  NEW2
                              *
                                     END

        LITERALS
      00075  000000000000
      00076  300000000000
      00077  400000000000
1            ROUTINE TO RENAME A FILE, FORCING PERMANENT MODE IS POSSIBLE.                       PAGE 1
                        POST PROCESSOR ASSEMBLY DATA

        100 IS THE FIRST LOCATION NOT USED BY THIS PROGRAM

0REFERENCES TO DEFINED SYMBOLS
         73   NEW1    12,   25,   30
         74   NEW2    10,   17,   26,   31
         71   OLD1     5,   22
         72   OLD2     7,   23
         40  CHERR    35
         20  SKPN2    15
          1  WRFLX    40,   42
          0 CHFILE    21,   27
          4 RENAME     0
         36 RETURN    20,   44
         55 TMPMOD    43
         45 TRKQUO    41

0 NO ERROR IN ABOVE ASSEMBLY.
1            LIBRARY PACKAGE.                                                                    PAGE 1

                       00024         ENTRY   .PCOMT        PRINT COMMENT ROUTINE
                       00010         ENTRY   CHNCOM        GO DORMANT.
                       00005         ENTRY   EXIT          SAME.
                       00002         ENTRY   .SETUP        CALLED BY MAD MAIN PROGRA.
                       00013         ENTRY   COMARG        GET COMMAND ARGUMENT.
                       00106         ENTRY   WHOAMI
                       00066         ENTRY   SETBCD
                       00064         ENTRY   SETFUL
                       00065         ENTRY   SETBRK
                       00061         ENTRY   WRFLXA
                       00063         ENTRY   WRFLX
                       00062         ENTRY   RDFLXA
                       00067         ENTRY   UPDATE        UPDATE U.F.D.
                       00070         ENTRY   CHFILE
                       00071         ENTRY   DELFIL
                       00072         ENTRY   FSTATE
                       00073         ENTRY   BUFFER
                       00074         ENTRY   OPEN
                       00075         ENTRY   WRWAIT
                       00076         ENTRY   WRFILE
                       00077         ENTRY   RDWAIT
                       00100         ENTRY   RDFILE
                       00101         ENTRY   CLOSE
                       00043         ENTRY   GETBUF        OBTAIN BUFFERS FROM SUPERVISOR.
                              *

            LINKAGE DIRECTOR
      00000  000000000000
      00001  334723464463

      00002  0760 00 0 00016  .SETUP LMTM                  USE SEVEN TAG MODE.
      00003  0774 00 6 00000         AXT     0,6           SET UP IR6 TO AVOID EARLY CALL TO READ.
      00004  0020 00 0 00064         TRA     SETFUL        USE FULL MODE.  SETFUL RETURNS 1,4.
                              *
      00005  0074 00 4 00066  EXIT   TSX     SETBCD,4      CLEANUP, RESET MODE.
      00006  0074 00 4 00063         TSX     WRFLX,4       PUT OUT A STAR FOR RUNCOMS.
      00007  0 00001 0 00060                 STAR,,1       AND THEN PERFORM CHNCOM SEQUENCE.
      00010  0074 00 4 00102  CHNCOM TSX     CHN,4         THIS CHNCOM ALWAYS GOES DEAD,
 TD   00011  3 00000 0 00107         TXH     =0            IF NO CHAIN EXISTS.
      00012  0020 00 0 00010         TRA     *-2           IN CASE OF RESTART, DON'T.
                              *
      00013  0634 00 4 00022  COMARG SXA     CM4,4         GET COMMAND ARGUMENT FOR MAD.
      00014 -0500 60 4 00001         CAL*    1,4           GET ARGUMENT NUMBER.
      00015  0602 00 0 00017         SLW     ARG           GIVE ARGUMENT NUMBER.
      00016  0074 00 4 00103         TSX     GETCOM,4      GET COMMAND ARGUMENT.
      00017  0 00000 0 00000   ARG                         ..
      00020  0602 00 0 00017         SLW     ARG           MOVE TO ARITHMETIC AC.
      00021  0500 00 0 00017         CLA     ARG           ..
      00022  0774 00 4 00000   CM4   AXT     --,4          RESTORE LINKAGE.
      00023  0020 00 4 00002         TRA     2,4           RETURN TO CALLER.
                              *
      00024 -0500 00 4 00001  .PCOMT CAL     1,4           GET WORD COUNT.
      00025  0621 00 0 00042         STA     RETURN        ON RETURN, JUMP BUFFER.
      00026  0767 00 0 00022         ALS     18            SETUP COUNT.
      00027  0622 00 0 00036         STD     PCNT          ..
      00030  1 77776 4 00031         TXI     *+1,4,-2      SETUP UP BUFFER ADDRESS.
1            LIBRARY PACKAGE.                                                                    PAGE 2

      00031  0636 00 4 00036         SCA     PCNT,4        SAVE BUFFER ADDRESS, AND LINKAGE.
      00032  0074 00 4 00064         TSX     SETFUL,4      MAKE SURE MODE SET AND NO LINES COMING IN.
      00033  0074 00 4 00061         TSX     WRFLXA,4      SWITCH TO RED SHIFT.
      00034  0 00001 0 00056                 REDS,,1       ..
      00035  0074 00 4 00063         TSX     WRFLX,4       PRINT LINE.
      00036  0 00000 0 00000   PCNT          --,,--        ..
      00037  0074 00 4 00061         TSX     WRFLXA,4      SHIFT BACK TO BLACK.
      00040  0 00001 0 00057                 BLCKS,,1      ..
      00041  0535 00 4 00036         LAC     PCNT,4        RESTORE LINKAGE.
      00042  0020 00 4 00000  RETURN TRA     --,4          RETURN TO CALLER.
                              *
      00043  0634 00 4 00052  GETBUF SXA     GX4,4         ENTRY TO GET BUFFERS.
      00044  0602 00 0 00055         SLW     BUFSIZ        SIZE OF BUFFER IN AC.
      00045  0074 00 4 00104         TSX     GETMEM,4      GET PRESENT BOUND.
      00046  0601 00 0 00054         STO     START         SAVE AS BUFFER START.
      00047  0361 00 0 00055         ACL     BUFSIZ        FORM NEW BOUND.
      00050  0074 00 4 00105         TSX     SETMEM,4      ASK FOR MORE.
      00051 -0500 00 0 00054         CAL     START         GIVE CALLER LOCATION OF
      00052  0774 00 4 00000   GX4   AXT     --,4          HIS NEW BUFFER.
      00053  0020 00 4 00001         TRA     1,4           RETURN.
                              *
      00054  0 00000 0 00000   START                       STORAGE FOR BUFFER LOCATION.
      00055  0 00000 0 00000  BUFSIZ                       STORAGE FOR BUFFER SIZE.
                              *
      00056 +013300570057      REDS  OCT     013300570057  RED SHIFT AND TWO NULLS.
      00057 +013200570057      BLCKS OCT     013200570057  BLACK SHIFT AND TWO NULLS.
      00060 -145757575757     STAR   OCT     545757575757  ASTERISK AND 5 NULLS.
                              *
                              *              SUPERVISOR SUBROUTINE CALLERS.
                              *
      00061  0101 00 0 00133  WRFLXA TIA     =HWRFLXA
      00062  0101 00 0 00122  RDFLXA TIA     =HRDFLXA
      00063  0101 00 0 00134  WRFLX  TIA     =HWRFLX
      00064  0101 00 0 00126  SETFUL TIA     =HSETFUL
      00065  0101 00 0 00125  SETBRK TIA     =HSETBRK
      00066  0101 00 0 00124  SETBCD TIA     =HSETBCD
      00067  0101 00 0 00130  UPDATE TIA     =HUPDATE
      00070  0101 00 0 00111  CHFILE TIA     =HCHFILE
      00071  0101 00 0 00114  DELFIL TIA     =HDELFIL
      00072  0101 00 0 00115  FSTATE TIA     =HFSTATE
      00073  0101 00 0 00110  BUFFER TIA     =HBUFFER
      00074  0101 00 0 00120  OPEN   TIA     =HOPEN
      00075  0101 00 0 00135  WRWAIT TIA     =HWRWAIT
      00076  0101 00 0 00132  WRFILE TIA     =HWRFILE
      00077  0101 00 0 00123  RDWAIT TIA     =HRDWAIT
      00100  0101 00 0 00121  RDFILE TIA     =HRDFILE
      00101  0101 00 0 00113  CLOSE  TIA     =HCLOSE
      00102  0101 00 0 00112  CHN    TIA     =HCHNCOM
      00103  0101 00 0 00116  GETCOM TIA     =HGETCOM
      00104  0101 00 0 00117  GETMEM TIA     =HGETMEM
      00105  0101 00 0 00127  SETMEM TIA     =HSETMEM
      00106  0101 00 0 00131  WHOAMI TIA     =HWHOAMI
                              *
                                     END
1            LIBRARY PACKAGE.                                                                    PAGE 3

        LITERALS
      00107  000000000000
      00110  226426262551
      00111  233026314325
      00112  233045234644
      00113  234346622560
      00114  242543263143
      00115  266263216325
      00116  272563234644
      00117  272563442544
      00120  464725456060
      00121  512426314325
      00122  512426436721
      00123  512466213163
      00124  622563222324
      00125  622563225142
      00126  622563266443
      00127  622563442544
      00130  644724216325
      00131  663046214431
      00132  665126314325
      00133  665126436721
      00134  665126436760
      00135  665166213163
1            LIBRARY PACKAGE.                                                                    PAGE 1
                        POST PROCESSOR ASSEMBLY DATA

        136 IS THE FIRST LOCATION NOT USED BY THIS PROGRAM

0REFERENCES TO DEFINED SYMBOLS
         17    ARG    15,   20,   21
        102    CHN    10
         22    CM4    13
         52    GX4    43
          5   EXIT     0
         74   OPEN     0
         36   PCNT    27,   31,   41
         56   REDS    34
         60   STAR     7
         57  BLCKS    40
        101  CLOSE     0
         54  START    46,   51
         63  WRFLX     0,    6,   35
         73 BUFFER     0
         55 BUFSIZ    44,   47
         70 CHFILE     0
         10 CHNCOM     0
         13 COMARG     0
         71 DELFIL     0
         72 FSTATE     0
         43 GETBUF     0
        103 GETCOM    16
        104 GETMEM    45
         24 .PCOMT     0
          2 .SETUP     0
        100 RDFILE     0
         62 RDFLXA     0
         77 RDWAIT     0
         42 RETURN    25
         66 SETBCD     0,    5
         65 SETBRK     0
         64 SETFUL     0,    4,   32
        105 SETMEM    50
         67 UPDATE     0
        106 WHOAMI     0
         76 WRFILE     0
         61 WRFLXA     0,   33,   37
         75 WRWAIT     0

0 NO ERROR IN ABOVE ASSEMBLY.
1            BUFFER CONTROL ROUTINE FOR DISK INPUT AND OUTPUT.                                   PAGE 1

                              *      NOTE, INDEX REGISTERS SIX AND SEVEN MUST BE PRESERVED
                              *      BY THE CALLING PROGRAM.
                              *      THIS ROUTINE MAKES TYPEWRITER COMMENTS, BUT DOES NOT
                              *      AFFECT THE BCD-FULL MODE SWITCH.
                              *
                              *           J. H. SALTZER, JANUARY, 1965.
                              *
                       00015         ENTRY   ASSIGN        TO ASSIGN A NAME TO THE WRITE FILE.
                       00057         ENTRY   WRWORD        TO ADD A WORD TO THE FILE.
                       00100         ENTRY   FILE          TO CLOSE THE FILE.
                              *
                       00160         ENTRY   SEEK          TO OPEN A FILE FOR READING.
                       00242         ENTRY   RDWORD        TO GET A WORD FROM FILE.
                       00275         ENTRY   ENDRD         TO CLOSE THE FILE.
                              *
                                     EXTERN  GETBUF,SETBCD,SETFUL,WRFLX,WRFLXA
                                     EXTERN  OPEN,WRWAIT,RDWAIT,CLOSE,FSTATE,BUFFER
                              *
                              *      ASSIGN.($NAME1$,$NAME2$)
                              *

        TRANSFER VECTOR
      00000  272563226426     GETBUF
      00001  622563222324     SETBCD
      00002  622563266443     SETFUL
      00003  665126436760     WRFLX
      00004  665126436721     WRFLXA
      00005  464725456060     OPEN
      00006  665166213163     WRWAIT
      00007  512466213163     RDWAIT
      00010  234346622560     CLOSE
      00011  266263216325     FSTATE
      00012  226426262551     BUFFER

            LINKAGE DIRECTOR
      00013  000000000000
      00014  216262312745

      00015 -0500 60 4 00001  ASSIGN CAL*    1,4           OPEN FILE, GET FILE NAME.
      00016  0602 00 0 00304         SLW     OUTNAM        ..
      00017 -0500 60 4 00002         CAL*    2,4           ..
      00020  0602 00 0 00305         SLW     OUTNAM+1      ..
      00021  0634 00 4 00041         SXA     OPX4,4        SAVE LINKAGE.
      00022  0020 00 0 00023   OSW   TRA     *+1           ENTER ONE-TIME SECTION TO GET BUFFERS.
                              *                                                    *******************
      00023 -0500 00 0 00315         CAL     WBFSZ         GET AN OUTPUT BUFFER FROM SUPERVISOR.
      00024  0074 00 4 00000         TSX     GETBUF,4      ..
      00025  0621 00 0 00071         STA     WCALL         SAVE LOCATION OF BUFFER.
      00026  0621 00 0 00113         STA     CLCALL        TO CLOSE OUT FILE.
      00027  0361 00 0 00315         ACL     WBFSZ         ADD LENGTH, TO FORM END ADDRESS.
      00030  0621 00 0 00060         STA     WRNM          INSERT IN INSERTER.
      00031 -0500 00 0 00313         CAL     TRKSZ         GET A DISK TRACK BUFFER.
      00032  0074 00 4 00000         TSX     GETBUF,4      ..
      00033  0621 00 0 00055         STA     BFCALL        SET UP BUFFER CALLER.
      00034 -0625 00 0 00022         STL     OSW           RESET ONE-TIME SWITCH.
                              *                                                    *******************
1            BUFFER CONTROL ROUTINE FOR DISK INPUT AND OUTPUT.                                   PAGE 2

      00035  0774 00 4 00040         AXT     OPOK,4        SET QUOTA EXHAUSTED ERROR RETURN.
      00036  0634 00 4 00143         SXA     WRTN,4        ..
      00037  0074 00 3 00043         TSX     OPN,3         OPEN THE FILE.
      00040  0774 00 7 00330  OPOK   AXT     WBFLTH,7      SET UP STORAGE COUNT.
      00041  0774 00 4 00000   OPX4  AXT     --,4          RESTORE LINKAGE.
      00042  0020 00 4 00003         TRA     3,4           RETURN.
                              *
      00043  0074 00 4 00005  OPN    TSX     OPEN,4        OPEN FILE.
 TD   00044  3 00000 0 00324         TXH     =HW           FOR WRITING.
 TD   00045  3 00000 0 00304         TXH     OUTNAM        ..
 TD   00046  3 00000 0 00305         TXH     OUTNAM+1      ..
 TD   00047  3 00000 0 00156         TXH     MODE          MAKE IT PERMANENT IF POSSIBLE.
 TD   00050  3 00000 0 00320         TXH     =2            PUT IT ON THE DISK.
 TD   00051  3 00000 0 00127  OPERR  TXH     OEXH          IN CASE NO MORE QUOTA AVAILABLE.
      00052  0074 00 4 00012         TSX     BUFFER,4      ASSIGN A BUFFER FOR THE FILE.
 TD   00053  3 00000 0 00304         TXH     OUTNAM        ..
 TD   00054  3 00000 0 00305         TXH     OUTNAM+1      ..
      00055  3 00660 0 00000  BFCALL TXH     --,,TRKLTH    ..
      00056  0020 00 3 00001         TRA     1,3           RETURN TO CALLER.
                              *
                              *
                              *      ENTRY TO ADD A WORD TO FILE.
                              *              WRWORD.(WORD)
                              *
      00057 -0500 60 4 00001  WRWORD CAL*    1,4           GET WORD TO BE ADDED.
      00060  0602 00 7 00000   WRNM  SLW     --,7          ADD WORD TO OUTPUT BUFFER.
      00061  2 00001 7 00077         TIX     RETURN,7,1    COUNT AND CHECK FOR FULL BUFFER.
      00062  0634 00 4 00076   FULL  SXA     FULX4,4       BUFFER FULL, WRITE IT OUT.
      00063  0774 00 4 00065         AXT     WRAGN,4       SET UP EXHAUSTED RETURN ADDRESS.
      00064  0634 00 4 00143         SXA     WRTN,4        ..
      00065  0074 00 4 00006  WRAGN  TSX     WRWAIT,4      GIVE BUFFER TO SUPERVISOR.
 TD   00066  3 00000 0 00304         TXH     OUTNAM        ..
 TD   00067  3 00000 0 00305         TXH     OUTNAM+1      ..
 TD   00070  3 00000 0 00316         TXH     =0            ..
      00071  3 00330 0 00000  WCALL  TXH     --,,WBFLTH    ..
 TD   00072  3 00000 0 00321         TXH     =-0           IGNORE POSSIBLE EOF.
 TD   00073  3 00000 0 00321         TXH     =-0           ..
 TD   00074  3 00000 0 00124  WRERR  TXH     WEXH          ALLOW ERROR RETURN.
      00075  0774 00 7 00330         AXT     WBFLTH,7      RESET BUFFER POINTER.
      00076  0774 00 4 00000   FULX4 AXT     --,4          RESTORE LINKAGE.
      00077  0020 00 4 00002  RETURN TRA     2,4           RETURN TO CALLER.
                              *
                              *      FILE.     NO ARGUMENTS.
                              *
      00100  0634 00 4 00122  FILE   SXA     CL4,4         ENTRY TO CLOSE OUT FILE.
      00101 -0634 00 7 00103         SXD     *+2,7         FORM COUNT OF WORDS SINCE
      00102  0774 00 7 00330         AXT     WBFLTH,7      LAST BUFFER WAS WRITTEN.
      00103 -2 00000 7 00117         TNX     NOWR,7,--     IF ZERO, SKIP FINAL WRITE CALL.
      00104 -0634 00 7 00113         SXD     CLCALL,7      NON-ZERO, SET UP WRITE CALL.
      00105  0774 00 4 00107         AXT     FWR,4         SET UP RETURN ADDRESS FOR EXHAUSTED CASE.
      00106  0634 00 4 00143         SXA     WRTN,4        ..
      00107  0074 00 4 00006  FWR    TSX     WRWAIT,4      WRITE OUT PARTIAL BUFFER.
 TD   00110  3 00000 0 00304         TXH     OUTNAM        ..
 TD   00111  3 00000 0 00305         TXH     OUTNAM+1      ..
 TD   00112  3 00000 0 00316         TXH     =0            ..
      00113  3 00000 0 00000  CLCALL TXH     --,,--        ..
1            BUFFER CONTROL ROUTINE FOR DISK INPUT AND OUTPUT.                                   PAGE 3

 TD   00114  3 00000 0 00321         TXH     =-0           IGNORE EOF RETURN.
 TD   00115  3 00000 0 00321         TXH     =-0           ..
 TD   00116  3 00000 0 00124         TXH     WEXH          ALLOW ERROR RETURN.
      00117  0074 00 4 00010  NOWR   TSX     CLOSE,4       CLOSE OUT THE FILE.
 TD   00120  3 00000 0 00304         TXH     OUTNAM        ..
 TD   00121  3 00000 0 00305         TXH     OUTNAM+1      ..
      00122  0774 00 4 00000   CL4   AXT     --,4          RESTORE LINKAGE.
      00123  0020 00 4 00001         TRA     1,4           ..
                              *
      00124  0074 00 4 00010  WEXH   TSX     CLOSE,4       TRACK QUOTA EXHAUSTED, CLOSE FILE.
 TD   00125  3 00000 0 00304         TXH     OUTNAM        ..
 TD   00126  3 00000 0 00305         TXH     OUTNAM+1      ..
      00127  0074 00 4 00001  OEXH   TSX     SETBCD,4      ENTRY FROM OPEN ERROR, COMMENT.
      00130  0601 00 0 00157         STO     MODSW         SAVE OLD CHARACTER MODE SETTING.
      00131  0074 00 4 00003         TSX     WRFLX,4       ..
      00132  0 00011 0 00144                 ERMESS,,9
      00133  0520 00 0 00157         ZET     MODSW         SHOULD 12-BIT INDICATOR BE RESET.
      00134  0074 00 4 00002         TSX     SETFUL,4      YES, RESET INDICATOR.
      00135 -0500 00 0 00317         CAL     =1            SWITCH TO TEMPORARY MODE.
      00136  0601 00 0 00156         STO     MODE          ..
      00137 -0500 00 0 00155         CAL     NOP           BLOCK FUTURE ERROR RETURN.
      00140  0602 00 0 00051         SLW     OPERR         ..
      00141  0602 00 0 00074         SLW     WRERR
      00142  0074 00 3 00043         TSX     OPN,3         NOW, OPEN IT AGAIN.
      00143  0020 00 0 00000  WRTN   TRA     --            ALL FIXED, RETURN TO MAIN STREAM.
                              *
      00144  635121234260     ERMESS BCI     9,TRACK QUOTA EXHAUSTED, TEMPORARY MODE WILL BE USED.
      00145  506446632160
      00146  256730216462
      00147  632524736063
      00150  254447465121
      00151  517060444624
      00152  256066314343
      00153  602225606462
      00154  252433606060
      00155  0761 00 0 00000   NOP   NOP                   INSTRUCTION TO BLOCK ERROR RETURN.
      00156  0 00000 0 00000  MODE           0             START IN PERMANENT MODE.
      00157  0 00000 0 00000  MODSW                        TEMP STORAGE FOR 6-BIT,12-BIT INDICATOR.
                              *
                              * * * * * * * * * * * * * * * * * * * * * * * * * * * * * * * * * *
                              *      SEEK.($NAME1$, $NAME2$, ERRET)
                              *      ERROR RETURN MEANS FILE NOT FOUND.
                              *
      00160 -0500 60 4 00001   SEEK  CAL*    1,4           GET FILE NAME.
      00161  0602 00 0 00306         SLW     INNAM         ..
      00162 -0500 60 4 00002         CAL*    2,4           ..
      00163  0602 00 0 00307         SLW     INNAM+1       ..
      00164  0634 00 4 00222         SXA     SKX4,4        SAVE LINKAGE.
      00165  0020 00 0 00166   SKSW  TRA     *+1           ENTER ONE-TIME SECTION TO GET BUFFERS.
                              *                                                  *********************
      00166 -0500 00 0 00314         CAL     RBFSZ         GET A BUFFER FROM SUPERVISOR.
      00167  0074 00 4 00000         TSX     GETBUF,4      ..
      00170  0621 00 0 00257         STA     ECALL         STORE BUFFER LOCATION.
      00171  0621 00 0 00217         STA     STCALL        ..
      00172 -0625 00 0 00165         STL     SKSW          RESET ONE-TIME SWITCH.
                              *                                                  *********************
1            BUFFER CONTROL ROUTINE FOR DISK INPUT AND OUTPUT.                                   PAGE 4

      00173 -0500 00 0 00217         CAL     STCALL        SET UP PICKUP INSTRUCTION FOR INDEXING.
      00174  0361 00 0 00314         ACL     RBFSZ         ..
      00175  0621 00 0 00242         STA     RDWORD        ..
      00176  0074 00 4 00011         TSX     FSTATE,4      MAKE SURE FILE IS THERE.
 TD   00177  3 00000 0 00306         TXH     INNAM         ..
 TD   00200  3 00000 0 00307         TXH     INNAM+1       ..
 TD   00201  3 00000 0 00321         TXH     =-0           DON'T WANT DATA.
 TD   00202  3 00000 0 00224         TXH     NOTFN         ERROR RETURN MEANS FILE NOT THERE.
      00203  0074 00 4 00005         TSX     OPEN,4        OPEN THE FILE FOR READING.
 TD   00204  3 00000 0 00322         TXH     =HR           ..
 TD   00205  3 00000 0 00306         TXH     INNAM         ..
 TD   00206  3 00000 0 00307         TXH     INNAM+1       ..
      00207  0774 00 6 00660         AXT     RBFLTH,6      SET UP BUFFER COUNTER.
      00210  0774 00 4 00222         AXT     SKX4,4        SET END OF FILE RETURN.
      00211  0634 00 4 00274         SXA     EOFRTN,4      ..
      00212  0600 00 0 00312         STZ     EOFR          CLEAR END OF FILE SWITCH.
      00213  0074 00 4 00007         TSX     RDWAIT,4      GET INITIAL BUFFER LOAD.
 TD   00214  3 00000 0 00306         TXH     INNAM         ..
 TD   00215  3 00000 0 00307         TXH     INNAM+1       ..
 TD   00216  3 00000 0 00316         TXH     =0            ..
      00217  3 00660 0 00000  STCALL TXH     --,,RBFLTH    ..
 TD   00220  3 00000 0 00265         TXH     EOF           END OF FILE RETURN.
 TD   00221  3 00000 0 00311         TXH     EOFCT         ..
      00222  0774 00 4 00000   SKX4  AXT     --,4          RESTORE LINKAGE.
      00223  0020 00 4 00004         TRA     4,4           RETURN TO CALLER.
                              *
      00224  0074 00 4 00001  NOTFN  TSX     SETBCD,4      FILE NOT FOUND, COMMENT.
      00225  0601 00 0 00157         STO     MODSW         SAVE OLD CHARACTER MODE SETTING.
      00226  0074 00 4 00004         TSX     WRFLXA,4      START UP COMMENT.
      00227  0 00001 0 00323                 =H FILE ,,1   ..
      00230  0074 00 4 00004         TSX     WRFLXA,4      INSERT FILE NAME.
      00231  0 00002 0 00306                 INNAM,,2      ..
      00232  0074 00 4 00003         TSX     WRFLX,4       END OF COMMENT.
      00233  0 00002 0 00240                 ECM,,2        ..
      00234  0520 00 0 00157         ZET     MODSW         SHOULD 12-BIT INDICATOR BE RESET.
      00235  0074 00 4 00002         TSX     SETFUL,4      YES, RESET MODE.
      00236  0534 00 4 00222         LXA     SKX4,4        GIVE ERROR RETURN.
      00237  0020 60 4 00003         TRA*    3,4           ..
                              *
      00240  604546636026     ECM    BCI     2, NOT FOUND.
      00241  466445243360
                              *
                              *      ENTRY TO OBTAIN WORD FROM FILE.
                              *              WORD = RDWORD.(EOF)
                              *
      00242  0500 00 6 00000  RDWORD CLA     --,6          GET WORD FROM INPUT BUFFER.
      00243  2 00001 6 00264         TIX     GOBACK,6,1    INDEX, AND CHECK FOR EMPTY BUFFER.
      00244  0520 00 0 00312         ZET     EOFR          BUFFER EMPTY, HAS END OF FILE OCCURRED.
      00245  0020 60 4 00001         TRA*    1,4           YES, GIVE EOF RETURN.
      00246  0601 00 0 00310         STO     RTEMP         NO, SAVE WORD AND GET SOME MORE DATA.
      00247  0634 00 4 00263         SXA     EMPX4,4       SAVE LINKAGE, ALSO.
      00250  0774 00 6 00660         AXT     RBFLTH,6      RESET BUFFER POINTER.
      00251  0774 00 4 00262         AXT     EMPGT,4       SET END OF FILE RETURN.
      00252  0634 00 4 00274         SXA     EOFRTN,4      ..
      00253  0074 00 4 00007         TSX     RDWAIT,4      GET ANOTHER BUFFER LOAD OF DATA.
 TD   00254  3 00000 0 00306         TXH     INNAM         ..
1            BUFFER CONTROL ROUTINE FOR DISK INPUT AND OUTPUT.                                   PAGE 5

 TD   00255  3 00000 0 00307         TXH     INNAM+1       ..
 TD   00256  3 00000 0 00316         TXH     =0            ..
      00257  3 00660 0 00000  ECALL  TXH     --,,RBFLTH    ..
 TD   00260  3 00000 0 00265         TXH     EOF           ..
 TD   00261  3 00000 0 00311         TXH     EOFCT         ..
      00262  0500 00 0 00310   EMPGT CLA     RTEMP         RESTORE WORD FOR THIS CALL.
      00263  0774 00 4 00000   EMPX4 AXT     --,4          RESTORE LINKAGE.
      00264  0020 00 4 00002  GOBACK TRA     2,4           RETURN TO CALLER.
                              *
      00265 -0625 00 0 00312  EOF    STL     EOFR          END OF FILE REACHED, SET SWITCH.
      00266 -0500 00 0 00311         CAL     EOFCT         GET COUNT OF WORDS LEFT.
      00267  0361 00 0 00317         ACL     =1            BUGGER WORD COUNT.
      00270  0734 00 6 00000         PAX     0,6           SET WORD COUNTER.
      00271  0361 00 0 00257         ACL     ECALL         ADJUST PICKUP INSTRUCTION.
      00272  0621 00 0 00242         STA     RDWORD        ..
      00273  0074 00 4 00275         TSX     ENDRD,4       TURN OFF FILE.
      00274  0020 00 0 00000  EOFRTN TRA     --            RETURN TO END OF RDFILE CALLING SEQUENCE.
                              *
                              *      ENTRY TO CLOSE INPUT FILE.
                              *      ENDRD.
                              *
      00275  0634 00 4 00302  ENDRD  SXA     ENDX4,4       SAVE LINKAGE.
      00276  0074 00 4 00010         TSX     CLOSE,4       CLOSE FILE.
 TD   00277  3 00000 0 00306         TXH     INNAM         ..
 TD   00300  3 00000 0 00307         TXH     INNAM+1       ..
 TD   00301  3 00000 0 00302         TXH     *+1           IGNORE ANY ERROR RETURN.
      00302  0774 00 4 00000  ENDX4  AXT     --,4          RESTORE LINKAGE.
      00303  0020 00 4 00001         TRA     1,4           ..
                              *
      00304  545454545454     OUTNAM BCI     2,************  NAME OF OUTPUT FILE.
      00305  545454545454
      00306  545454545454      INNAM BCI     2,************  NAME OF INPUT FILE.
      00307  545454545454
      00310  0 00000 0 00000   RTEMP                       STORAGE FOR WORD.
      00311  0 00000 0 00000  EOFCT                        STORAGE FOR END OF FILE COUNTER.
      00312  0 00000 0 00312   EOFR          *             SWITCH FOR END OF FILE MET.
                              *
                       00660  TRKLTH EQU     432           DISK TRACK LENGTH.
      00313  0 00000 0 00660   TRKSZ         TRKLTH        WORD CONTAINING TRACK LENGTH.
                       00660  RBFLTH EQU     TRKLTH        READ BUFFER LENGTH.
                       00330  WBFLTH EQU     TRKLTH/2      WRITE BUFFER LENGTH.
      00314  0 00000 0 00660  RBFSZ          RBFLTH        WORD CONTAINING READ BUFFER SIZE.
      00315  0 00000 0 00330  WBFSZ          WBFLTH        WORD CONTAINING WRITE BUFFER SIZE.
                              *
                                     END

        LITERALS
      00316  000000000000
      00317  000000000001
      00320  000000000002
      00321  400000000000
      00322  516060606060
      00323  602631432560
      00324  666060606060
1            BUFFER CONTROL ROUTINE FOR DISK INPUT AND OUTPUT.                                   PAGE 1
                        POST PROCESSOR ASSEMBLY DATA

        325 IS THE FIRST LOCATION NOT USED BY THIS PROGRAM

0REFERENCES TO DEFINED SYMBOLS
        122    CL4   100
        240    ECM   233
        265    EOF   220,  260
        107    FWR   105
        155    NOP   137
         43    OPN    37,  142
         22    OSW    34
        312   EOFR   212,  244,  265
        100   FILE     0
         62   FULL
        156   MODE    47,  136
        117   NOWR   103
        127   OEXH    51
          5   OPEN    43,  203
         40   OPOK    35
         41   OPX4    21
        160   SEEK     0
        165   SKSW   172
        222   SKX4   164,  210,  236
        124   WEXH    74,  116
         60   WRNM    30
        143   WRTN    36,   64,  106
         10  CLOSE   117,  124,  276
        257  ECALL   170,  271
        262  EMPGT   251
        263  EMPX4   247
        275  ENDRD     0,  273
        302  ENDX4   275
        311  EOFCT   221,  261,  266
         76  FULX4    62
        306  INNAM   161,  163,  177,  200,  205,  206,  214,  215,  231,  254,  255,  277,  300
        157  MODSW   130,  133,  225,  234
        224  NOTFN   202
         51  OPERR   140
        314  RBFSZ   166,  174
        310  RTEMP   246,  262
        313  TRKSZ    31
        315  WBFSZ    23,   27
         71  WCALL    25
         65  WRAGN    63
         74  WRERR   141
          3  WRFLX   131,  232
         15 ASSIGN     0
         55 BFCALL    33
         12 BUFFER    52
        113 CLCALL    26,  104
        274 EOFRTN   211,  252
        144 ERMESS   132
         11 FSTATE   176
          0 GETBUF    24,   32,  167
        264 GOBACK   243
1            BUFFER CONTROL ROUTINE FOR DISK INPUT AND OUTPUT.                                   PAGE 2
                        POST PROCESSOR ASSEMBLY DATA

        304 OUTNAM    16,   20,   45,   46,   53,   54,   66,   67,  110,  111,  120,  121,  125,  126
        660 RBFLTH   207,  217,  250,  257,  314
          7 RDWAIT   213,  253
        242 RDWORD     0,  175,  272
         77 RETURN    61
          1 SETBCD   127,  224
          2 SETFUL   134,  235
        217 STCALL   171,  173
        660 TRKLTH    55,  313,  314
        330 WBFLTH    40,   71,   75,  102,  314,  315
          4 WRFLXA   226,  230
          6 WRWAIT    65,  107
         57 WRWORD     0

0 NO ERROR IN ABOVE ASSEMBLY.
1            ROUTINE TO MAKE SURE FILE NAME IS USEABLE.                                          PAGE 1

                              *      USAGE  CLRNAM.(NAME1, NAME2, CANT, SW)
                              *        FILE NAME1 NAME2 WILL BE CHECKED FOR AND
                              *        DELETED IF POSSIBLE.  IF SW
                              *        IS TRUE, USER WILL BE ASKED BEFORE DELETING
                              *        THE OLD FILE.
                              *
                       00012         ENTRY   CLRNAM        CLEAR FILE NAME.
                              *
                                     EXTERN  SETFUL,SETBCD,WRFLX,WRFLXA,RDFLXA
                                     EXTERN  FSTATE,CHFILE,DELFIL
                              *

        TRANSFER VECTOR
      00000  622563266443     SETFUL
      00001  622563222324     SETBCD
      00002  665126436760     WRFLX
      00003  665126436721     WRFLXA
      00004  512426436721     RDFLXA
      00005  266263216325     FSTATE
      00006  233026314325     CHFILE
      00007  242543263143     DELFIL

            LINKAGE DIRECTOR
      00010  000000000000
      00011  234351452144

      00012 -0500 60 4 00001  CLRNAM CAL*    1,4           GET FILE NAME.
      00013  0602 00 0 00121         SLW     N1            ..
      00014 -0500 60 4 00002         CAL*    2,4           SECONDARY NAME.
      00015  0602 00 0 00122         SLW     N2            ..
      00016  0634 00 4 00147         SXA     SV4,4         SAVE LINKAGE.
      00017  0074 00 4 00005         TSX     FSTATE,4      CHECK STATE OF FILE.
 TD   00020  3 00000 0 00121         TXH     N1            NAME
 TD   00021  3 00000 0 00122         TXH     N2            NAME
      00022  3 00010 0 00156         TXH     DATA,,8       FILE STATE
 TD   00023  3 00000 0 00112         TXH     FSTERR        IN CASE OF ERROR
 TD   00024  3 00000 0 00155         TXH     ERNO          GATHER ERROR NUMBER.
      00025  0441 00 0 00157         LDI     MODE          CHECK MODE OF FILE.
      00026 -0054 00  400000         LFT     400000        IS MODE NEGATIVE.
      00027  0020 00 0 00100         TRA     LINKED        YES, FILE IS LINKED.
      00030  0600 00 0 00154         STZ     PROTEC        ASSUME NOT PROTECTED.
      00031  0056 00  000100         RNT     100           CHECK PROTECTED BIT.
      00032  0020 00 0 00035         TRA     CKASK         NOT PROTECTED, SHOULD WE ASK ANYWAY.
      00033 -0625 00 0 00154         STL     PROTEC        PROTECTED, SET SWITCH FOR LONG COMMENT.
      00034  0020 00 0 00040         TRA     ASK           GO ASK PERMISSION TO DELETE FILE.
      00035  0534 00 4 00147  CKASK  LXA     SV4,4         GET LINKAGE TO ASK SWITCH.
      00036 -0520 60 4 00004         NZT*    4,4           SHOULD WE ASK PERMISSION ANYWAY.
      00037  0020 00 0 00065         TRA     DELETE        NO, GO DELETE FILE.
      00040  0074 00 4 00000  ASK    TSX     SETFUL,4      SET CHARACTER MODE SWITCH.
      00041  0074 00 4 00003         TSX     WRFLXA,4      BEGIN THE COMMENT.
      00042  0 00003 0 00116                 MI,,3         ..
      00043  0074 00 4 00001         TSX     SETBCD,4      SWITCH TO BCD FOR FILE NAME.
      00044  0074 00 4 00003         TSX     WRFLXA,4      WRITE OUT FILE NAME.
      00045  0 00002 0 00121                 N1,,2
      00046  0074 00 4 00000         TSX     SETFUL,4      BACK TO FULL MODE.
      00047 -0520 00 0 00154         NZT     PROTEC        SHOULD WE CLAIM IT IS PROTECTED.
1            ROUTINE TO MAKE SURE FILE NAME IS USEABLE.                                          PAGE 2

      00050  0020 00 0 00053         TRA     SKPPCM        NO, SKIP THAT PART.
      00051  0074 00 4 00003         TSX     WRFLXA,4      YES, ANNOUNC PROTECTED PART.
      00052  0 00006 0 00123                 ISPTC,,6      ..
      00053  0074 00 4 00003  SKPPCM TSX     WRFLXA,4      NOW ASK FOR PERMISSION.
      00054  0 00012 0 00131                 DOYOU,,10     ..
      00055  0074 00 4 00001         TSX     SETBCD,4      SWITCH SO ERASE WORKS.
      00056  0074 00 4 00004         TSX     RDFLXA,4
      00057  0 00001 0 00150                 IN,,1         GET ONE WORD.
      00060  0074 00 4 00000         TSX     SETFUL,4      RESTORE MODE.
      00061 -0500 00 0 00150         CAL     IN            GET THAT WORD.
      00062  0771 00 0 00022         ARS     18            GET FIRST THREE CHARACTERS.
      00063  0322 00 0 00170         ERA     =H000YES      DID HE SAY YES.
      00064 -0100 00 0 00076         TNZ     ERTN          NO, GIVE ERROR RETURN.
      00065  0074 00 4 00006  DELETE TSX     CHFILE,4      GOODY, WE CAN DELETE IT.
 TD   00066  3 00000 0 00121         TXH     N1            MAKE SURE IT IS DELETEABLE.
 TD   00067  3 00000 0 00122         TXH     N2            ..
 TD   00070  3 00000 0 00166         TXH     =1            BY CHANGING ITS MODE TO TEMPORARY.
      00071  0074 00 4 00007         TSX     DELFIL,4      DELETE THE SILLY THING.
 TD   00072  3 00000 0 00121         TXH     N1            ..
 TD   00073  3 00000 0 00122         TXH     N2            ..
      00074  0534 00 4 00147  RTN    LXA     SV4,4         RESTORE THE LINKAGE.
      00075  0020 00 4 00005         TRA     5,4           RETURN TO CALLER.
                              *
      00076  0534 00 4 00147  ERTN   LXA     SV4,4         ERROR RETURN, FILE CANNOT BE DELETED.
      00077  0020 60 4 00003         TRA*    3,4           RETURN THROUGH ERROR RETURN.
                              *
      00100  0074 00 4 00000  LINKED TSX     SETFUL,4      FILE IS LINKED, COMMENT AND GIVE UP.
      00101  0074 00 4 00003         TSX     WRFLXA,4      START THE COMMENT.
      00102  0 00003 0 00116                 MI,,3         ..
      00103  0074 00 4 00001         TSX     SETBCD,4      SWITCH MODE FOR FILE NAME.
      00104  0074 00 4 00003         TSX     WRFLXA,4      TYPE FILE NAME.
      00105  0 00002 0 00121                 N1,,2         ..
      00106  0074 00 4 00000         TSX     SETFUL,4      SWITCH FOR REST OF COMMENT.
      00107  0074 00 4 00002         TSX     WRFLX,4       END THIS PART WITH A C.R.
      00110  0 00004 0 00143                 ISLNK,,4      ..
      00111  0020 00 0 00076         TRA     ERTN          NOW GIVE AN ERROR RETURN.
                              *
      00112  0500 00 0 00155  FSTERR CLA     ERNO          ERROR RETURN FROM FSTATE, FIND OUT WHY.
      00113  0402 00 0 00167         SUB     =3            RETURN 3 MEANS FILE NOT FOUND.
      00114 -0100 00 0 00100         TNZ     LINKED        WRONG ERROR RETURN, ASSUME LINKED.
      00115  0020 00 0 00074         TRA     RTN           FILE NOT FOUND, NAME IS OK.
                              *
                              *                            DATA, COMMENTS, ETC.
                              *
      00116  004601430124     MI     BCI     3,0O1L1D0 1F1I1L1E0
      00117  006001260131
      00120  014301250060
                              *
      00121  0 00000 0 00000  N1                           STORAGE FOR FILE NAME.
      00122  0 00000 0 00000  N2                           SECONDARY NAME.
                              *
      00123  006001310162     ISPTC  BCI     1,0 1I1S
      00124 +006001330057            OCT     006001330057  BLANK, RED SHIFT, NULL.
      00125  004700510046            BCI     3,0P0R0O0T0E0C0T0E0D
      00126  006300250023
      00127  006300250024
1            ROUTINE TO MAKE SURE FILE NAME IS USEABLE.                                          PAGE 3

      00130 +013200330060            OCT     013200330060  BLACK SHIFT, PERIOD, BLANK.
      00131  006000400040     DOYOU  BCI     9,0 0-0-0D1O0 1Y1O1U0 1W1I1S1H0 1T1O0 1D1E1L1E1T1E0 1I1T
      00132  002401460060
      00133  017001460164
      00134  006001660131
      00135  016201300060
      00136  016301460060
      00137  012401250143
      00140  012501630125
      00141  006001310163
      00142 +015600600060            OCT     015600600060  TERMINAL QUESTION MARK.
                              *
      00143  006001310162     ISLNK  BCI     4,0 1I1S0 1L1I1N1K1E1D0.
      00144  006001430131
      00145  014501420125
      00146  012400336060
                              *
      00147  0 00000 0 00000  SV4                          STORAGE FOR CALLING LINKAGE.
      00150                   IN     BSS     4             FOR INPUT WORD.
      00154  0 00000 0 00000  PROTEC                       SWITCH FOR PROTECTED FILE.
      00155  0 00000 0 00000  ERNO                         STORAGE FOR ERROR NUMBER.
      00156                   DATA   BSS     8             FOR STATE INFORMATION.
                       00161  DEVICE EQU     DATA+3
                       00157  MODE   EQU     DATA+1
                              *
                                     END

        LITERALS
      00166  000000000001
      00167  000000000003
      00170  000000702562
1            ROUTINE TO MAKE SURE FILE NAME IS USEABLE.                                          PAGE 1
                        POST PROCESSOR ASSEMBLY DATA

        171 IS THE FIRST LOCATION NOT USED BY THIS PROGRAM

0REFERENCES TO DEFINED SYMBOLS
        150     IN    57,   61
        116     MI    42,  102
        121     N1    13,   20,   45,   66,   72,  105
        122     N2    15,   21,   67,   73
         40    ASK    34
         74    RTN   115
        147    SV4    16,   35,   74,   76
        156   DATA    22,  166
        155   ERNO    24,  112
         76   ERTN    64,  111
        157   MODE    25,  166
         35  CKASK    32
        131  DOYOU    54
        143  ISLNK   110
        123  ISPTC    52
          2  WRFLX   107
          6 CHFILE    65
         12 CLRNAM     0
         65 DELETE    37
          7 DELFIL    71
        161 DEVICE   166
          5 FSTATE    17
        112 FSTERR    23
        100 LINKED    27,  114
        154 PROTEC    30,   33,   47
          4 RDFLXA    56
          1 SETBCD    43,   55,  103
          0 SETFUL    40,   46,   60,  100,  106
         53 SKPPCM    50
          3 WRFLXA    41,   44,   51,   53,  101,  104

0 NO ERROR IN ABOVE ASSEMBLY.
1            BUFFER CONTROL ROUTINE FOR TYPEWRITER OUTPUT.                                       PAGE 1

                              *
                              *      J. H. SALTZER, JANUARY, 1965.
                              *
                       00004         ENTRY   PRWORD        ADD A WORD TO PRINT BUFFER.
                       00021         ENTRY   PRBUFF        PRINT OUT PARTIAL BUFFER.
                       00030         ENTRY   TYWORD        GET NEXT TYPED WORD.
                       00047         ENTRY   TYLINE        RESET TO START READING NEXT LINE.
                              *
                                     EXTERN RDFLXA,WRFLXA
                              *

        TRANSFER VECTOR
      00000  512426436721     RDFLXA
      00001  665126436721     WRFLXA

            LINKAGE DIRECTOR
      00002  000000000000
      00003  475166465124

                       00034  BUFLEN EQU     28            TYPEWRITER BUFFER SIZE.
                              *
                              *      ADD WORD TO PRINT BUFFER.
                              *      PRWORD.(WORD)
                              *
      00004  0634 00 4 00017  PRWORD SXA     PRX4,4        SAVE LINKAGE.
      00005 -0500 60 4 00001         CAL*    1,4           GET WORD BEING ADDED.
      00006 -0734 00 4 00000         PDX     0,4           CHECK FOR DISK CONTROL WORD.
      00007  3 77776 4 00017         TXH     PRX4,4,-2     DON'T STORE CONTROL WORD.
      00010  0774 00 4 00034   PWCNT AXT     BUFLEN,4      SET WORD COUNTER (INITIALLY BUFLEN.)
      00011  0602 00 4 00105         SLW     BUFF+BUFLEN,4 STORE WORD IN BUFFER.
      00012  2 00001 4 00016         TIX     PSAVE,4,1     COUNT, CHECK FOR OVERFLOW.
      00013  0074 00 4 00001         TSX     WRFLXA,4      BUFFER FULL, PRINT W/O C.R.
      00014  0 00034 0 00051                 BUFF,,BUFLEN  ..
      00015  0774 00 4 00034  PFRESH AXT     BUFLEN,4      RESET WORD COUNTER.
      00016  0634 00 4 00010   PSAVE SXA     PWCNT,4       SAVE WORD COUNTER.
      00017  0774 00 4 00000   PRX4  AXT     --,4          RESTORE LINKAGE.
      00020  0020 00 4 00001         TRA     1,4           RETURN.
                              *
                              *      PRINT OUT REMAINING BUFFER, RESET COUNTER.
                              *
      00021  0634 00 4 00017  PRBUFF SXA     PRX4,4        SAVE LINKAGE.
      00022  0535 00 4 00010         LAC     PWCNT,4       GET WORD COUNT.
      00023  1 00034 4 00024         TXI     *+1,4,BUFLEN  FORM COMPLEMENT MOD BUFLEN.
      00024 -0634 00 4 00026         SXD     PRCL,4        SAVE COUNT IN CALLER.
      00025  0074 00 4 00001         TSX     WRFLXA,4      PRINT REMAINDER.
      00026  0 00000 0 00051   PRCL          BUFF,,--      ..
      00027  0020 00 0 00015         TRA     PFRESH        GO REFRESH COUNTER, AND RETURN.
                              *
                              *      GET A WORD FROM INPUT BUFFER.
                              *         WORD = TYWORD.(0)
                              *
      00030  0634 00 4 00045  TYWORD SXA     TYX4,4        SAVE LINKAGE.
      00031  0774 00 5 00000  TYCNT  AXT     --,5          GET WORD COUNTER.
      00032  0774 00 4 00000  TYPOS  AXT     --,4          GET BUFFER POINTER.
      00033  2 00006 5 00041         TIX     TYGET,5,6     CHECK FOR WORDS LEFT.
      00034  0074 00 4 00000         TSX     RDFLXA,4      NO, GET SOME.
1            BUFFER CONTROL ROUTINE FOR TYPEWRITER OUTPUT.                                       PAGE 2

      00035  0 00034 0 00051  TYCALL         BUFF,,BUFLEN  ..
      00036  0734 00 5 00000         PAX     0,5           INSERT 6-BIT CHARACTER COUNT INTO COUNTER.
      00037  2 40000 5 00040         TIX     *+1,5,16384   REMOVE BIT 21 IF PRESENT.
      00040  0774 00 4 00000         AXT     0,4           RESET INPUT BUFFER POINTER.
      00041  0500 00 4 00051  TYGET  CLA     BUFF,4        GET A WORD.
      00042  1 77777 4 00043         TXI     *+1,4,-1      MOVE POINTER TO NEXT WORD.
      00043  0634 00 4 00032         SXA     TYPOS,4       SAVE POINTER.
      00044  0634 00 5 00031         SXA     TYCNT,5       SAVE CHARACTER COUNTER.
      00045  0774 00 4 00000  TYX4   AXT     --,4          RESTORE LINKAGE.
      00046  0020 00 4 00001         TRA     1,4           RETURN.
                              *
      00047  0634 00 0 00031  TYLINE ZSA     TYCNT         RESET CHARACTER COUNT TO MAKE LINE EMPTY.
      00050  0020 00 4 00001         TRA     1,4           RETURN
                              *
      00051                   BUFF   BSS     BUFLEN            OUTPUT BUFFER.
                              *
                                     END
1            BUFFER CONTROL ROUTINE FOR TYPEWRITER OUTPUT.                                       PAGE 1
                        POST PROCESSOR ASSEMBLY DATA

        105 IS THE FIRST LOCATION NOT USED BY THIS PROGRAM

0REFERENCES TO DEFINED SYMBOLS
         51   BUFF    11,   14,   26,   35,   41
         26   PRCL    24
         17   PRX4     4,    7,   21
         45   TYX4    30
         16  PSAVE    12
         10  PWCNT    16,   22
         31  TYCNT    44,   47
         41  TYGET    33
         32  TYPOS    43
         34 BUFLEN     4,   10,   11,   14,   15,   23,   35,   51
         15 PFRESH    27
         21 PRBUFF     0
          4 PRWORD     0
          0 RDFLXA    34
         35 TYCALL
         47 TYLINE     0
         30 TYWORD     0
          1 WRFLXA    13,   25

0 NO ERROR IN ABOVE ASSEMBLY.
1            SUBROUTINES TO CONTROL CHARACTER PACKING AND UNPACKING.                             PAGE 1

                              *      INPUT AND OUTPUT IS LINE-MARKED FORMAT.
                              *      J. H. SALTZER, JANUARY, 1965
                              *
                       00010         ENTRY   WRITE         WRITE ONE LINE OUT.
                       00071         ENTRY   READ          TO READ NEXT LINE.
                       00167         ENTRY   BOTTOM        TO RAPIDLY MOVE TO BOTTOM OF FILE.
                       00062         ENTRY   CLOSEW        CLOSE OUT WRITE FILE.
                              *
                                     EXTERN  WRFLX,WRWORD,RDWORD,SETBCD,SETFUL,FILE
                              *

        TRANSFER VECTOR
      00000  665126436760     WRFLX
      00001  665166465124     WRWORD
      00002  512466465124     RDWORD
      00003  622563222324     SETBCD
      00004  622563266443     SETFUL
      00005  263143256060     FILE

            LINKAGE DIRECTOR
      00006  000000000000
      00007  665131632560

                       00006   NBITS EQU     6             COULD BE 6, 9, 12, OR 18.
                       00006   NCHRS EQU     36/NBITS      NO. OF CHARACTERS PER WORD ON 7094.
                              *
                              *      WRITE.(LINE, LENGTH)
                              *
      00010  0634 00 4 00056   WRITE SXA     WX4,4         SAVE LINKAGE AND REGISTERS.
      00011  0634 00 2 00057         SXA     WX2,2         ..
      00012  0634 00 1 00060         SXA     WX1,1         ..
      00013 -0500 00 4 00001         CAL     1,4           GET LINE ADDRESS.
      00014  0621 00 0 00035         STA     INLP          SET UP LOCATION OF INPUT.
      00015  0500 60 4 00002         CLA*    2,4           GET CHARACTER COUNT.
      00016  0100 00 4 00003         TZE     3,4           DON'T WORK ON ZERO COUNT.
      00017  0402 00 0 00200         SUB     =1            DISCARD CARRIAGE RETURN AT END.
      00020  0100 00 4 00003         TZE     3,4           ZERO SIZE LINES NOT ALLOWED, EITHER.
      00021  0767 00 0 00022         ALS     18            SET UP CHARACTER COUNT.
      00022  0622 00 0 00041         STD     ENDTST        NCHARS = CPW*NWORDS + EXTRAS
      00023  0361 00 0 00066         ACL     CPWL1         CWP*NWORDS + EXTRAS + CPW - 1
      00024  0131 00 0 00000         XCA                   (CPW*NWORDS + EXTRAS + CWP - 1)/CPW =
      00025 -0754 00 0 00000         ZAC                        NWORDS + (EXTRAS - 1 + CPW)/CPW
      00026  0221 00 0 00065         DVP     CPW           SECOND TERM IS 1 IF EXTRAS .G. 0,
      00027  0131 00 0 00000         XCA                                  0 IF EXTRAS .E. 0
      00030  0621 00 0 00067         STA     CWD           INSERT IN CONTROL WORD.
      00031  0074 00 4 00001         TSX     WRWORD,4      INSERT THIS WORD IN OUTPUT BUFFER.
 TD   00032  3 00000 0 00067         TXH     CWD           ..
      00033  0774 00 2 00001         AXT     1,2
      00034  0774 00 1 00006   OUTLP AXT     36/NBITS,1    SET CHARACTER COUNTER.
      00035  0560 00 2 00000   INLP  LDQ     --,2
      00036 -0773 00 0 00036         RQL     36-NBITS      SHIFT CHARACTER TO POSITION.
      00037 -0763 00 0 00006         LGL     NBITS         AND INTO WORD.
      00040  1 00001 2 00041         TXI     *+1,2,1       COUNT INPUT CHARACTERS.
      00041  3 00000 2 00052  ENDTST TXH     DONE,2,--     CHECK FOR END OF INPUT.
      00042  2 00001 1 00035         TIX     INLP,1,1
      00043  0602 00 0 00070         SLW     WDOUT         SAVE COMPLETED WORD.
1            SUBROUTINES TO CONTROL CHARACTER PACKING AND UNPACKING.                             PAGE 2

      00044  0074 00 4 00001   OUT   TSX     WRWORD,4      STORE COMPLETED WORD.
 TD   00045  3 00000 0 00070         TXH     WDOUT         ..
      00046  0020 00 0 00034         TRA     OUTLP         GO BACK FOR MORE.
                              *
      00047  0560 00 0 00063   NLLP  LDQ     NULL          FILL IN WORD WITH NULLS.
      00050 -0773 00 0 00036         RQL     36-NBITS      MOVE NULL TO POSITION.
      00051 -0763 00 0 00006         LGL     NBITS         SHIFT IN A NULL.
      00052  2 00001 1 00047   DONE  TIX     NLLP,1,1      COUNT SPACES LEFT.
      00053  0602 00 0 00070         SLW     WDOUT         STORE THIS WORD.
      00054  0074 00 4 00001         TSX     WRWORD,4      ADD TO OUTPUT BUFFER.
 TD   00055  3 00000 0 00070         TXH     WDOUT         ..
      00056  0774 00 4 00000   WX4   AXT     --,4          RESTORE LINKAGE, AND IRS.
      00057  0774 00 2 00000   WX2   AXT     --,2          ..
      00060  0774 00 1 00000   WX1   AXT     --,1
      00061  0020 00 4 00003         TRA     3,4           ..
                              *
      00062  0020 00 0 00005  CLOSEW TRA     FILE          REFLECT CLOSE CALL TO BUFFER.
                              *
                              *
      00063 +000000000057      NULL  OCT     0057          NULL CHARACTER.
      00064 +000000000055     RETURN OCT     0055          CARRIAGE RETURN CHARACTER.
      00065  0 00006 0 00000   CPW           ,,NCHRS       NUMBER OF CHARACTERS PER WORD.
      00066  0 00005 0 00000   CPWL1         ,,NCHRS-1     CHARACTERS PER WORD LESS ONE.
                              *
      00067 -377777000000      CWD   OCT     777777000000
      00070  0 00000 0 00000   WDOUT                       STORAGE FOR WORD BEING OUTPUT.
                              *
                              *      LENGTH = READ.(LINE, BUFSIZ, EOF)
                              *
      00071  0634 00 1 00137   READ  SXA     RX1,1         READ NEXT LINE.
      00072  0634 00 2 00136         SXA     RX2,2
      00073  0634 00 4 00134         SXA     RX4,4
      00074  0634 00 3 00135         SXA     RX3,3
      00075 -0500 00 4 00001         CAL     1,4           GET LOCATION OF BUFFER.
      00076  0621 00 0 00124         STA     RPUT
      00077 -0500 60 4 00002         CAL*    2,4           SET UP END TEST.
      00100  0402 00 0 00200         SUB     =1
      00101  0767 00 0 00022         ALS     18            ..
      00102  0622 00 0 00125         STD     BUFTST        ..
      00103  0074 00 4 00002   RDAGN TSX     RDWORD,4      GET CONTROL WORD.
      00104  0 00000 0 00141                 EOF           IN CASE WE ARE AT END OF FILE.
      00105 -0734 00 1 00000         PDX     0,1           PUT FLAG IN IR1.
      00106  0734 00 3 00000         PAX     0,3           PUT COUNT IN IR3.
      00107 -2 77776 1 00146         TNX     WOOPS,1,-2    CHECK FLAG.
      00110 -3 00000 3 00103         TXL     RDAGN,3,0     IGNORE ZERO-LENGTH LINE.
      00111  0774 00 2 00000   RDON  AXT     0,2           SET OUTPUT COUNTER.
      00112  0074 00 4 00002  ROUTLP TSX     RDWORD,4      READ A WORD.
      00113  0 00000 0 00141                 EOF           ..
      00114  0774 00 1 00006         AXT     36/NBITS,1    SET CHARACTER COUNTER.
      00115  0131 00 0 00000         XCA                   WORD TO MQ.
      00116 -0754 00 0 00000   RINLP ZAC                   CLEAR AC.
      00117 -0763 00 0 00006         LGL     NBITS         GET NEXT CHARACTER.
      00120 -0340 00 0 00063         LAS     NULL          IS THIS A NULL CHARACTER.
      00121  0020 00 0 00123         TRA     *+2           NO.
      00122  0020 00 0 00126         TRA     RCH           YES, SKIP IT.
      00123  1 00001 2 00124         TXI     *+1,2,1       COUNT STORAGE SPACES.
1            SUBROUTINES TO CONTROL CHARACTER PACKING AND UNPACKING.                             PAGE 3

      00124  0602 00 2 00000   RPUT  SLW     --,2          STORE CHARACTER IN LINE.
      00125  3 00000 2 00133  BUFTST TXH     PXA,2,--      TEST FOR FULL BUFFER.
      00126  2 00001 1 00116   RCH   TIX     RINLP,1,1     INDEX, AND COUNT CHARACTERS.
      00127  2 00001 3 00112         TIX     ROUTLP,3,1    INDEX, AND COUNT WORDS.
      00130 -0500 00 0 00064         CAL     RETURN        PUT RETURN AT END OF LINE.
      00131  1 00001 2 00132         TXI     *+1,2,1       INCLUDE IN COUNT.
      00132  0522 00 0 00124         XEC     RPUT          INSTALL IT.
      00133  0754 00 2 00000   PXA   PXA     0,2           GET WORD COUNT.
      00134  0774 00 4 00000   RX4   AXT     --,4
      00135  0774 00 3 00000   RX3   AXT     --,3
      00136  0774 00 2 00000   RX2   AXT     --,2
      00137  0774 00 1 00000   RX1   AXT     --,1
      00140  0020 00 4 00004         TRA     4,4
                              *
      00141  0534 00 4 00134   EOF   LXA     RX4,4         END OF FILE REACHED, TAKE ERROR
      00142  0534 00 3 00135         LXA     RX3,3         RETURN.
      00143  0534 00 2 00136         LXA     RX2,2
      00144  0534 00 1 00137         LXA     RX1,1
      00145  0020 60 4 00003         TRA*    3,4
                              *
                              *
      00146  0074 00 4 00003   WOOPS TSX     SETBCD,4      FILE IS NOT LINE-MARKED PROPERLY, COMPLAIN.
      00147  0074 00 4 00000         TSX     WRFLX,4
      00150  0 00006 0 00161                 MESS1,,6
      00151  0074 00 4 00004         TSX     SETFUL,4      RESTORE INDICATOR.
      00152  0074 00 4 00002   LP    TSX     RDWORD,4      SEARCH FOR NEXT LINE MARK.
      00153  0 00000 0 00141                 EOF
      00154 -0734 00 1 00000         PDX     0,1           CHECK FOR LINE MARK IN THIS WORD.
      00155 -2 77776 1 00152         TNX     LP,1,-2       ..
      00156  0734 00 3 00000         PAX     0,3           LINE MARK OK, CHECK COUNT.
      00157 -3 00000 1 00152         TXL     LP,1,0        ..
      00160  0020 00 0 00111         TRA     RDON          COUNT NON-ZERO, READ ON.
                              *
      00161  314547646360      MESS1 BCI     6,INPUT FILE HAS IMPROPER FORMAT.
      00162  263143256030
      00163  216260314447
      00164  514647255160
      00165  264651442163
      00166  336060606060
                              *
                              *      ROUTINE TO SWING TO BOTTOM OF FILE.
                              *
      00167  0634 00 4 00176  BOTTOM SXA     EOFB,4        SAVE LINKAGE.
      00170  0074 00 4 00002   LOOP  TSX     RDWORD,4      GET NEXT INPUT WORD.
      00171  0 00000 0 00176                 EOFB          EXIT ON END OF FILE.
      00172  0601 00 0 00070         STO     WDOUT         SAVE THIS WORD.
      00173  0074 00 4 00001         TSX     WRWORD,4      WRITE OUT THIS WORD.
 TD   00174  3 00000 0 00070         TXH     WDOUT         ..
      00175  0020 00 0 00170         TRA     LOOP          REPEAT.
                              *
      00176  0774 00 4 00000  EOFB   AXT     --,4          RESTORE LINKAGE.
      00177  0020 00 4 00001         TRA     1,4           RETURN.
                              *
                                     END
1            SUBROUTINES TO CONTROL CHARACTER PACKING AND UNPACKING.                             PAGE 4

        LITERALS
      00200  000000000001
1            SUBROUTINES TO CONTROL CHARACTER PACKING AND UNPACKING.                             PAGE 1
                        POST PROCESSOR ASSEMBLY DATA

        201 IS THE FIRST LOCATION NOT USED BY THIS PROGRAM

0REFERENCES TO DEFINED SYMBOLS
        152     LP   155,  157
         65    CPW    26
         67    CWD    30,   32
        141    EOF   104,  113,  153
         44    OUT
        133    PXA   125
        126    RCH   122
        137    RX1    71,  144
        136    RX2    72,  143
        135    RX3    74,  142
        134    RX4    73,  141
         60    WX1    12
         57    WX2    11
         56    WX4    10
         52   DONE    41
        176   EOFB   167,  171
          5   FILE    62
         35   INLP    14,   42
        170   LOOP   175
         47   NLLP    52
         63   NULL    47,  120
        111   RDON   160
         71   READ     0
        124   RPUT    76,  132
         66  CPWL1    23
        161  MESS1   150
          6  NBITS    10,   34,   36,   37,   50,   51,  114,  117
          6  NCHRS    10,   65,   66
         34  OUTLP    46
        103  RDAGN   110
        116  RINLP   126
         70  WDOUT    43,   45,   53,   55,  172,  174
        146  WOOPS   107
          0  WRFLX   147
         10  WRITE     0
        167 BOTTOM     0
        125 BUFTST   102
         62 CLOSEW     0
         41 ENDTST    22
          2 RDWORD   103,  112,  152,  170
         64 RETURN   130
        112 ROUTLP   127
          3 SETBCD   146
          4 SETFUL   151
          1 WRWORD    31,   44,   54,  173

0 NO ERROR IN ABOVE ASSEMBLY.


   ZOT   BCD 02/08/69 0003.9    6243         00000
