1            RUNOFF OUTPUT ROUTINE.                                                              PAGE 1

                              *              J. H. SALTZER, NOVEMBER, 1964.
                              *              MODIFIED 7/18/67 FOR 6-BIT FILE OUTPUT
                              *              BY MICHAEL R COMER
                              *
                       00513         ENTRY SETPK           SET UP OUTPUT BUFFERS.
                       00011         ENTRY   PACK          ADD CHARACTERS TO OUTPUT PAGE.
                       00420         ENTRY   PRPAGE        PRINT OUT THE PAGE.
                       00507         ENTRY   RSPAGE        RESET PAGE, THROW AWAY CHARACTERS.
                       00556         ENTRY   WAIT          WAIT FOR RETURN FROM CONSOLE
                       00563         ENTRY   PKOFF         SHUT DOWN OPERATIONS.
                              *

        TRANSFER VECTOR
      00000  512544214760     REMAP
      00001  665166213163     WRWAIT
      00002  272563226426     GETBUF
      00003  464725456060     OPEN
      00004  226426262551     BUFFER
      00005  234346622560     CLOSE

            LINKAGE DIRECTOR
      00006  000000000000
      00007  622563474260

                       00014  NBITS  EQU     12
                       00006  ABITS  EQU     6
                       04540  BUFSIZ EQU     2400          ROOM FOR MORE THAN ONE PAGE.
      00010  0 00000 0 04540  BUFLEN         BUFSIZ
                              *
      00011  0634 00 1 00406   PACK  SXA     PR1,1         SAVE IRS.
      00012  0634 00 2 00407         SXA     PR2,2
      00013  0634 00 3 00410         SXA     PR3,3
      00014  0634 00 4 00411         SXA     PR4,4
      00015 -0500 60 4 00002         CAL*    2,4           GET COUNT OF CHARACTERS TO MOVE.
      00016  0100 00 4 00003         TZE     3,4           SKIP WORK IF NONE.
      00017  0402 00 0 00616         SUB     =1            SETUP END TEST.
      00020  0767 00 0 00022         ALS     18
      00021  0622 00 0 00370         STD     LEAVE
      00022 -0500 00 4 00001         CAL     1,4           GET ARRAY ADDRESS.
      00023  0621 00 0 00371         STA     NUCHAR
      00024  0534 00 3 00413         LXA     NCHARS,3      LOAD UP OUTPUT CHARACTER COUNT.
      00025  0535 00 2 00416         LAC     NWRDS,2       AND WORD COUNT.
      00026  3 00000 2 00031         TXH     *+3,2,0
      00027  0520 00 0 00576         ZET     OUTSW
      00030  0074 00 4 00327         TSX     STRTLN,4
      00031  0774 00 1 00000         AXT     0,1           SETUP ARRAY INDEX.
      00032 -0500 00 0 00417         CAL     UNFIN         GET UNFINISHED WORD.
      00033 -0520 00 0 00576         NZT     OUTSW         IS OUTPUT TO TYPEWRITER.
      00034  0020 00 0 00371         TRA     NUCHAR        ENTER LOOP.
      00035  0020 00 0 00040         TRA     ASCHAR        OUTPUT TO PRINTER, ENTER LOOP.
      00036  0774 00 3 00000  NUWRD1 AXT     0,3            RESET CHARACTER COUNTER
      00037  0522 00 0 00370  LEAVE1 XEC     LEAVE          SEE IF INPUT IS EXHAUSTED
      00040  0522 00 0 00371  ASCHAR XEC     NUCHAR         GET NEXT CHARACTER
      00041  0602 00 0 00415         SLW     TEMP1          SAVE PARTIAL WORD
      00042 -0130 00 0 00000         XCL                    CHAR TO AC
      00043 -0320 00 0 00623         ANA     =O177          KILL MINUS ZEROES FROM MAD
1            RUNOFF OUTPUT ROUTINE.                                                              PAGE 2

      00044 -0340 00 0 00621         LAS     =O55           SEE IF CARRIAGE RETURN
      00045  0020 00 0 00047         TRA     *+2            NO
      00046  0020 00 0 00111         TRA     RSETLN         YES, START NEXT LINE
      00047 -0340 00 0 00620         LAS     =O52           SEE IF FORM FEED
      00050  0020 00 0 00052         TRA     *+2            NO
      00051  0020 00 0 00116         TRA     EJECT          YES, GO EJECT
      00052  0634 00 1 00073         SXA     C1,1           SAVE CVR XR
      00053 -0340 00 0 00622         LAS     =O100          SMALL OR CAP .Q
      00054  0020 00 0 00060         TRA     CVRCAP         CAP
      00055  0020 00 0 00060         TRA     CVRCAP         CAP
      00056  0114 01 1 00127         CVR     TBL,1,1        SMALL, CONVERT TO LEGAL 6-BIT
      00057  0020 00 0 00061         TRA     *+2            SKIP CAPS
      00060  0114 01 1 00227  CVRCAP CVR     TBL+64,1,1     CONVERT TO LEGAL 6-BIT
      00061  0771 00 0 00036         ARS     30             CHAR TO BITS 30-35
      00062 -0130 00 0 00000         XCL                    TO MQ
      00063  0754 00 1 00000         PXA     ,1             WAS CHAR BACKSPACE 9(O135)
      00064  0361 00 0 00605         ACL     BACKSP         IF SO, 1 IS ADDED TP
      00065  0602 00 0 00605         SLW     BACKSP         BACKSPACE COUNTER
      00066 -0100 00 0 00102         TNZ     ANULL          IF BS COUNTER IS NOT ZERO, SKIP THIS CHAR
      00067 -0500 00 0 00415         CAL     TEMP1          GET PARTIAL WORD
      00070 -0773 00 0 00036         RQL     36-ABITS       SHIFT TO POSITION
      00071 -0763 00 0 00006         LGL     ABITS          ADD TO WORD
      00072  1 00001 3 00073         TXI     *+1,3,1        INC. CHAR COUNTER
      00073  0774 00 1 00000  C1     AXT     ,1             RESTOR INPUT COUNTER
      00074  1 00001 1 00075         TXI     *+1,1,1        COUNT
      00075 -3 00005 3 00037         TXL     LEAVE1,3,36/ABITS-1  IS WORD FULL
      00076  0522 00 0 00400         XEC     BF3            YES, STORE WORD
      00077  1 77777 2 00100         TXI     *+1,2,-1       COUNT WORD
      00100  3 73240 2 00036         TXH     NUWRD1,2,-BUFSIZ  DON'T OVERFLOW OUTPUT
      00101  0020 00 0 00403         TRA     MORE           EXIT
      00102  0754 00 1 00000  ANULL  PXA     ,1             GET BACKSP INDIC
      00103 -0100 00 0 00107         TNZ     SKIP           SKIP IF LAST CHAR WAS BACKSP
      00104 -0500 00 0 00605         CAL     BACKSP         DECREASE BACKSP COUNTER
      00105  0402 00 0 00616         SUB     =1             ..
      00106  0602 00 0 00605         SLW     BACKSP         ..
      00107 -0500 00 0 00415  SKIP   CAL     TEMP1          RESTOR PARTIAL WORD
      00110  0020 00 0 00073         TRA     C1             IGNORE THIS CHARACTER
      00111  1 00001 1 00112  RSETLN TXI     *+1,1,1        COUNT INPUT
      00112  0074 00 4 00340         TSX     ENDLIN,4       END LAST LINE
      00113  0074 00 4 00327         TSX     STRTLN,4       START NEXT LINE
      00114  3 73240 2 00036         TXH     NUWRD1,2,-BUFSIZ  CONTINUE
      00115  0020 00 0 00403         TRA     MORE
      00116 -3 00000 3 00121  EJECT  TXL     *+3,3,0        SKIP IF NEW LINE
      00117  0074 00 4 00340         TSX     ENDLIN,4
      00120  0074 00 4 00327         TSX     STRTLN,4       START NEW LINE
      00121 -0500 00 0 00607         CAL     EJCTMK         GET EJECT
      00122  1 00001 2 00123         TXI     *+1,2,1        POINT TO CONTROL WORD
      00123  0522 00 0 00400         XEC     BF3            GAZABE
      00124  1 77777 2 00125         TXI     *+1,2,-1       POINT BACK
      00125  1 00001 1 00126         TXI     *+1,1,1        COUNT INPUT
      00126  0020 00 0 00036         TRA     NUWRD1         CONTINUE
                              *
                       00127  TBL    SYN     *
                              V      MACRO   VAL
                                     IRP     VAL
                                     IFF     1,VAL
1            RUNOFF OUTPUT ROUTINE.                                                              PAGE 3

                                     VFD     O6/60
                                     IFF     0,VAL
                                     VFD     O6/VAL
                                     IRP
                              V      END
                              *
      00127                          V       (0,1,2,3,4,5,6,7) CVR TABLES
      00137                          V       (10,11,12,13,14,,,)
      00147                          V       (20,21,22,23,24,25,26,27)
      00157                          V       (30,31,,33,34,33,,)
      00167                          V       (40,41,42,43,44,45,46,47)
      00177                          V       (50,51,,53,54,,,57)
      00207                          V       (60,61,62,63,64,65,66,67)
      00217                          V       (70,71,72,73,74,,,)
      00227                          V       (,,,73,,,,)
      00237                          V       (,,,,33,,,)
      00247                          V       (20,21,22,23,24,25,26,27)
      00257                          V       (30,31,,,)
      00264 +000000000001            OCT     1
      00265                          V       (,14)
      00267                          V       (,41,42,43,44,45,46,47)
      00277                          V       (50,51,,,,,33,)
      00307                          V       (,,62,63,64,65,66,67)
      00317                          V       (70,71,72,,,,,)
                              *
      00327 -0500 00 0 00604  STRTLN CAL     LINMRK         GET LINE MARK
      00330  0522 00 0 00400         XEC     BF3            STORE
      00331  1 77777 2 00332         TXI     *+1,2,-1       COUNT
      00332  3 73240 2 00334         TXH     *+2,2,-BUFSIZ  IS BUF FULL
      00333  0020 00 4 00001         TRA     1,4            YES, RETURN
      00334 -0500 00 0 00606         CAL     BLANKS         NO, GET CARRIAGE CONTROL
      00335  0522 00 0 00400         XEC     BF3            GAZABE
      00336  1 77777 2 00337         TXI     *+1,2,-1       COUNT
      00337  0020 00 4 00001         TRA     1,4            RETURN
                              *
      00340  0636 00 2 00416  ENDLIN SCA     NWRDS,2        SAVE COUNT
      00341  1 00001 2 00342         TXI     *+1,2,1        DON'T START TOO HIGH
      00342 -0500 00 0 00604         CAL     LINMRK         GET MODEL
      00343 -0340 60 0 00400         LAS*    BF3            CHECK FOR .GE.
      00344  1 00001 2 00343         TXI     *-1,2,1        NO,BACKSPACE AND TRY AGAIN
      00345  0020 00 0 00346         TRA     *+1            YES
      00346  0754 00 2 00000         PXA     ,2             YES,GET-NEWCOUNT
      00347  0361 00 0 00416         ACL     NWRDS          ADD OLDCOUNT
      00350  0402 00 0 00616         SUB     =1             MAKE IT COME OUT RIGHT
      00351  0621 60 0 00400         STA*    BF3            STICK IN LINE MARK
      00352  0535 00 2 00416         LAC     NWRDS,2        RESET COUNT
      00353  3 00000 3 00355         TXH     *+2,3,0        CHECK FOR UNFINISHED WORD
      00354  0020 00 4 00001         TRA     1,4            NO,RETURN
      00355 -0500 00 0 00415         CAL     TEMP1          YES, GET WORD
      00356  0560 00 0 00574  GNULL  LDQ     NULL           FILL WITH NULLS
      00357 -0773 00 0 00036         RQL     36-ABITS       ..
      00360 -0763 00 0 00006         LGL     ABITS          ..
      00361  1 00001 3 00362         TXI     *+1,3,1        ..
      00362 -3 00005 3 00356         TXL     GNULL,3,36/ABITS-1
      00363  0522 00 0 00400         XEC     BF3            STORE
      00364  1 77777 2 00365         TXI     *+1,2,-1       COUNT
1            RUNOFF OUTPUT ROUTINE.                                                              PAGE 4

      00365  0774 00 3 00000         AXT     0,3            ANNOUNCE FINISHED WORD
      00366  0020 00 0 00340         TRA     ENDLIN         FIX LINE MARK
                              *
                              *
                              *
      00367  0774 00 3 00000   NUWRD AXT     0,3           RESET CHARACTER COUNTER.
      00370  3 00000 1 00403   LEAVE TXH     MORE,1,--     SEE IF INPUT IS EXHAUSTED.
      00371  0560 00 1 00000  NUCHAR LDQ     --,1          GET NEXT INPUT INPUT CHARACTER.
      00372  0074 00 4 00000         TSX     $REMAP,4      GO REMAP IT.
      00373 -0773 00 0 00030         RQL     36-NBITS      SHIFT TO POSITION.
      00374 -0763 00 0 00014         LGL     NBITS         ADD TO CURRENT WORD.
      00375  1 00001 3 00376         TXI     *+1,3,1       COUNT CHARACTERS.
      00376  1 00001 1 00377         TXI     *+1,1,1       COUNT WORDS IN INPUT USED.
      00377 -3 00002 3 00370         TXL     LEAVE,3,36/NBITS-1      IS WORD FULL.
      00400  0602 00 2 00000   BF3   SLW     --,2          YES, STORE WORD.
      00401  1 77777 2 00402         TXI     *+1,2,-1      ADJUST WORD COUNT.
      00402  3 73240 2 00367         TXH     NUWRD,2,-BUFSIZ         DON'T OVERFLOW BUFFER.
                              *
      00403  0602 00 0 00417   MORE  SLW     UNFIN         NEED MORE CHARACTERS, SAVE WORD.
      00404  0634 00 3 00413         SXA     NCHARS,3      SAVE CHARACTER COUNT.
      00405  0636 00 2 00416         SCA     NWRDS,2       SAVE WORD COUNT.
      00406  0774 00 1 00000   PR1   AXT     --,1
      00407  0774 00 2 00000   PR2   AXT     --,2
      00410  0774 00 3 00000  PR3    AXT     --,3
      00411  0774 00 4 00000   PR4   AXT     --,4
      00412  0020 00 4 00003         TRA     3,4
                              *
      00413  0 00000 0 00000  NCHARS
      00414  0 00000 0 00000  TEMP
      00415  0 00000 0 00000  TEMP1
      00416  0 00000 0 00000  NWRDS
      00417  0 00000 0 00000  UNFIN
                              *
      00420  0634 00 1 00467  PRPAGE SXA     PPR1,1
      00421  0634 00 2 00470         SXA     PPR2,2
      00422  0634 00 4 00471         SXA     PPR4,4
      00423  0520 00 0 00576         ZET     OUTSW         IS OUTPUT TO FILE.
      00424  0020 00 0 00473         TRA     ASCOUT        YES, GO WRITE FILE INSTEAD.
      00425  0534 00 1 00413         LXA     NCHARS,1      GET CHARACTER COUNT.
      00426 -3 00000 1 00441         TXL     NONUL,1,0     SEE IF LAST WORD NEEDS FILLING.
                              *
      00427 -0500 00 0 00417         CAL     UNFIN         LAST WORD NEEDS FILLING.
      00430  0560 00 0 00574   AGN   LDQ     NULL          GET A NULL CHARACTER.
      00431 -0773 00 0 00030         RQL     36-NBITS      SHIFT TO POSITION.
      00432 -0763 00 0 00014         LGL     NBITS         INSERT.
      00433  1 00001 1 00434         TXI     *+1,1,1       COUNT.
      00434 -3 00002 1 00430         TXL     AGN,1,36/NBITS-1        CHECK FOR FULL WORD.
      00435  0535 00 2 00416         LAC     NWRDS,2
      00436  0602 00 2 00000   BF2   SLW     --,2          INSERT FULL WORD.
      00437  1 77777 2 00440         TXI     *+1,2,-1      COUNT WORD.
      00440  0636 00 2 00416         SCA     NWRDS,2       SAVE COUNT.
                              *
      00441  0560 00 0 00416  NONUL  LDQ     NWRDS         GET WORD COUNT.
      00442 -0754 00 0 00000         ZAC
      00443  0221 00 0 00617         DVP     =14           COMPUTE NUMBER OF CALLS.
      00444  0767 00 0 00022         ALS     18
1            RUNOFF OUTPUT ROUTINE.                                                              PAGE 5

      00445  0622 00 0 00462         STD     LASTCT        SAVE LENGTH OF LAST CALL.
      00446  0131 00 0 00000         XCA                   GET NUMBER OF CALLS.
      00447  0734 00 1 00000         PAX     0,1
      00450  0074 00 4 00611         TSX     SETFUL,4      SET BCD MODE.
      00451  0774 00 2 00000   BF1   AXT     --,2          GET OUTPUT POSITION.
      00452  1 00001 1 00457         TXI     LPTST,1,1     CHECK FOR NO LOOP NECESSARY.
      00453  0634 00 2 00455   WRLP  SXA     ADR,2         STORE OUTPUT POSITION.
      00454  0074 00 4 00612         TSX     WRFLXA,4      WRITE OUT CHARACTERS.
      00455  0 00016 0 00000   ADR           --,,14
      00456  1 00016 2 00457         TXI     *+1,2,14      INDEX OUTPUT POSITION.
      00457  2 00001 1 00453   LPTST TIX     WRLP,1,1      INDEX, DO AGAIN.
      00460  0634 00 2 00462         SXA     LASTCT,2      SAVE LAST BUFFER ADDRESS.
      00461  0074 00 4 00612         TSX     WRFLXA,4      WRITE LAST LINE.
      00462  0 00000 0 00000  LASTCT         --,,--
                              *
      00463  0074 00 4 00613         TSX     SETBCD,4
      00464  0600 00 0 00416  DONEPR STZ     NWRDS         RESET COUNTERS.
      00465  0600 00 0 00413         STZ     NCHARS
      00466  0600 00 0 00417         STZ     UNFIN
      00467  0774 00 1 00000   PPR1  AXT     --,1
      00470  0774 00 2 00000   PPR2  AXT     --,2
      00471  0774 00 4 00000   PPR4  AXT     --,4
      00472  0020 00 4 00001         TRA     1,4
                              *
      00473  0634 00 3 00477  ASCOUT SXA     PPR3,3         I GUESS WE SHOULD SAVE IT SOMEWHERE
      00474  0534 00 3 00413         LXA     NCHARS,3       SETUP CHAR COUNT
      00475  0535 00 2 00416         LAC     NWRDS,2        AND WORD COUNT
      00476  0074 00 4 00340         TSX     ENDLIN,4       CLOSE LAST LINE
      00477  0774 00 3 00000  PPR3   AXT     ,3
      00500  0636 00 2 00416         SCA     NWRDS,2       SAVE COUNT.
      00501  0074 00 4 00001  WRITE  TSX     $WRWAIT,4
 TD   00502  3 00000 0 00577         TXH     OUTNAM
 TD   00503  3 00000 0 00600         TXH     NAME2
 TD   00504  3 00000 0 00615         TXH     =0
      00505  2 00416 0 00000  BF8    TIX     --,,NWRDS
      00506  0020 00 0 00464         TRA     DONEPR
                              *
      00507  0600 00 0 00416  RSPAGE STZ     NWRDS         RESET WORD COUNT.
      00510  0600 00 0 00413         STZ     NCHARS        CHARACTER COUNT.
      00511  0600 00 0 00417         STZ     UNFIN         ..
      00512  0020 00 4 00001         TRA     1,4
                              *
      00513  0634 00 4 00553  SETPK  SXA     PK4,4         SET UP PACK BUFFERS.
      00514  0634 00 2 00554         SXA     PK2,2
      00515 -0500 60 4 00001         CAL*    1,4           GET ARGUMENTS.
      00516  0602 00 0 00577         SLW     OUTNAM        OUTPUT FILE NAME, IF ANY.
      00517 -0500 60 4 00002         CAL*    2,4           ..
      00520  0602 00 0 00576         SLW     OUTSW         SWITCH ON IF FILE DESIRED.
      00521  0020 00 0 00522   SW1   TRA     *+1           ONE-TIME SWITCH.
      00522 -0500 00 0 00010         CAL     BUFLEN        GET SIZE OF BUFFER NEEDED.
      00523  0074 00 4 00002         TSX     $GETBUF,4      SET UP BUFFER.
      00524  0621 00 0 00451         STA     BF1           SET UP USERS.
      00525  0621 00 0 00505         STA     BF8
      00526  0621 00 0 00436         STA     BF2
      00527  0621 00 0 00400         STA     BF3
      00530 -0520 00 0 00576         NZT     OUTSW         IS OUTPUT FILE WANTED.
1            RUNOFF OUTPUT ROUTINE.                                                              PAGE 6

      00531  0020 00 0 00552         TRA     DSET          NO, SKIP SETUP.
      00532 -0500 00 0 00601         CAL     TRKLEN        YES, GET OUTPUT BUFFER.
      00533  0074 00 4 00002         TSX     $GETBUF,4     ..
      00534  0621 00 0 00544         STA     BF9           ..
      00535  0074 00 4 00003         TSX     $OPEN,4       OPEN OUTPUT FILE.
 TD   00536  3 00000 0 00631         TXH     =HW
 TD   00537  3 00000 0 00577         TXH     OUTNAM
 TD   00540  3 00000 0 00600         TXH     NAME2
      00541  0074 00 4 00004         TSX     $BUFFER,4     GIVE IT A BUFFER.
 TD   00542  3 00000 0 00577         TXH     OUTNAM                                 000000
 TD   00543  3 00000 0 00600         TXH     NAME2
      00544  3 00660 0 00000  BF9    TXH     --,,TRKSIZ
      00545  0074 00 4 00001         TSX     $WRWAIT,4     WRITE OUT FIRST WORD.
 TD   00546  3 00000 0 00577         TXH     OUTNAM
 TD   00547  3 00000 0 00600         TXH     NAME2
 TD   00550  3 00000 0 00615         TXH     =0
      00551  3 00002 0 00602         TXH     FIRST,,2      SKIP TO TOP OF FIRST PAGE.
      00552 -0625 00 0 00521  DSET   STL     SW1           RESET SWITCH.
      00553  0774 00 4 00000  PK4    AXT     --,4          RETURN.
      00554  0774 00 2 00000  PK2    AXT     ,2
      00555  0020 00 4 00001         TRA     1,4           ..
                              *
      00556  0634 00 4 00561  WAIT   SXA     RETURN,4      ENTRY TO WAIT FOR SIGNAL FROM CONSOLE.
      00557  0074 00 4 00614         TSX     RDFLXA,4      SIGNAL IS A CARRIAGE RETURN.
      00560  0 00001 0 00573                 IN,,1         READ INTO DRAIN BUFFER.
      00561  0774 00 4 00000  RETURN AXT     --,4
      00562  0020 00 4 00001         TRA     1,4
                              *
      00563 -0520 00 0 00576  PKOFF  NZT     OUTSW         WAS OUTPUT DONE TO FILE.
      00564  0020 00 4 00001         TRA     1,4           NO, RETURN.
      00565  0634 00 4 00571         SXA     OF4,4         YES, CLOSE FILE.
      00566  0074 00 4 00005         TSX     $CLOSE,4      ..
 TD   00567  3 00000 0 00577         TXH     OUTNAM
 TD   00570  3 00000 0 00600         TXH     NAME2
      00571  0774 00 4 00000  OF4    AXT     --,4          ..
      00572  0020 00 4 00001         TRA     1,4           RETURN TO CALLER.
                              *
      00573  0 00000 0 00000  IN                           INPUT BUFFER FOR CONSOLE SIGNAL.
                              *
      00574 +000000000057      NULL  OCT     57            NULL CHARACTER.
      00575 +000000000000     ASCNUL OCT     0
      00576  0 00000 0 00000  OUTSW                        NON-ZERO IF FILE OUTPUT WANTED.
      00577  0 00000 0 00000  OUTNAM                       BCD NAME OF OUTPUT FILE
      00600  516445462626     NAME2  BCI     1,RUNOFF      SECONDARY NAME OF OUTPUT FILE.
                       00660  TRKSIZ EQU     432           OUTPUT BUFFER SIZE.
      00601  0 00000 0 00660  TRKLEN         TRKSIZ        WORD CONTAINING SAME.
      00602 -377777000001     FIRST  OCT     777777000001   FIRST TWO WORDS
      00603 +015757575757            OCT     015757575757   OF OUTPUT FILE
      00604 -377777000000     LINMRK OCT     777777000000   SEE STATEMENT LABLE
      00605  0 00000 0 00000  BACKSP                        BACKSPACE COUNTER
      00606  616060606060     BLANKS BCI     1,/            NORMAL CARRIAGE CONTROL
      00607 +015757575757     EJCTMK OCT     015757575757   EJECT CARRIAGE
                              *
      00610  0101 00 0 00630  WRFLX  TIA     =HWRFLX
      00611  0101 00 0 00626  SETFUL TIA     =HSETFUL
      00612  0101 00 0 00627  WRFLXA TIA     =HWRFLXA
1            RUNOFF OUTPUT ROUTINE.                                                              PAGE 7

      00613  0101 00 0 00625  SETBCD TIA     =HSETBCD
      00614  0101 00 0 00624  RDFLXA TIA     =HRDFLXA
                              *
                                     END

        LITERALS
      00615  000000000000
      00616  000000000001
      00617  000000000016
      00620  000000000052
      00621  000000000055
      00622  000000000100
      00623  000000000177
      00624  512426436721
      00625  622563222324
      00626  622563266443
      00627  665126436721
      00630  665126436760
      00631  666060606060
1            RUNOFF OUTPUT ROUTINE.                                                              PAGE 1
                        POST PROCESSOR ASSEMBLY DATA

        632 IS THE FIRST LOCATION NOT USED BY THIS PROGRAM

0REFERENCES TO DEFINED SYMBOLS
         73     C1    52,  110
        573     IN   560
        455    ADR   453
        430    AGN   434
        451    BF1   524
        436    BF2   526
        400    BF3    76,  123,  330,  335,  343,  351,  363,  527
        505    BF8   525
        544    BF9   534
        571    OF4   565
        554    PK2   514
        553    PK4   513
        406    PR1    11
        407    PR2    12
        410    PR3    13
        411    PR4    14
        521    SW1   552
        127    TBL    56,   60,  127
        552   DSET   531
        403   MORE   101,  115,  370
        574   NULL   356,  430
          3   OPEN   535
         11   PACK     0
        467   PPR1   420
        470   PPR2   421
        477   PPR3   473
        471   PPR4   422
        107   SKIP   103
        414   TEMP
        556   WAIT     0
        453   WRLP   457
          6  ABITS    10,   70,   71,   75,  357,  360,  362
        102  ANULL    66
          5  CLOSE   566
        116  EJECT    51
        602  FIRST   551
        356  GNULL   362
        370  LEAVE    21,   37,  377
        457  LPTST   452
        600  NAME2   503,  540,  543,  547,  570
         14  NBITS    10,  373,  374,  377,  431,  432,  434
        441  NONUL   426
        367  NUWRD   402
        416  NWRDS    25,  340,  347,  352,  405,  435,  440,  441,  464,  475,  500,  505,  507
        576  OUTSW    27,   33,  423,  520,  530,  563
        563  PKOFF     0
          0  REMAP   372
        513  SETPK     0
        415  TEMP1    41,   67,  107,  355
        417  UNFIN    32,  403,  427,  466,  511
        610  WRFLX
1            RUNOFF OUTPUT ROUTINE.                                                              PAGE 2
                        POST PROCESSOR ASSEMBLY DATA

        501  WRITE
         40 ASCHAR    35
        575 ASCNUL
        473 ASCOUT   424
        605 BACKSP    64,   65,  104,  106
        606 BLANKS   334
          4 BUFFER   541
         10 BUFLEN   522
       4540 BUFSIZ    10,  100,  114,  332,  402
         60 CVRCAP    54,   55
        464 DONEPR   506
        607 EJCTMK   121
        340 ENDLIN   112,  117,  366,  476
          2 GETBUF   523,  533
        462 LASTCT   445,  460
         37 LEAVE1    75
        604 LINMRK   327,  342
        413 NCHARS    24,  404,  425,  465,  474,  510
        371 NUCHAR    23,   34,   40
         36 NUWRD1   100,  114,  126
        577 OUTNAM   502,  516,  537,  542,  546,  567
        420 PRPAGE     0
        614 RDFLXA   557
        561 RETURN   556
        111 RSETLN    46
        507 RSPAGE     0
        613 SETBCD   463
        611 SETFUL   450
        327 STRTLN    30,  113,  120
        601 TRKLEN   532
        660 TRKSIZ   544,  601
        612 WRFLXA   454,  461
          1 WRWAIT   501,  545

0 NO ERROR IN ABOVE ASSEMBLY.
1            CHARACTER REMAPPING PACKAGE.                                                        PAGE 1

                              *      CTSS CHARACTERS WHICH HAVE EQUIVALENTS ON THE NON-STANDARD BALL
                              *      ARE TYPED, THOSE WHICH DON'T ARE PRINTED AS SPACE.
                              *
                       00001         ENTRY   REMAP         GET CORRECT CHARACTER.
                       00015         ENTRY   CHBALL        SET CORRECT MAPPING TABLE.
                              *
                              *      CALLING SEQUENCE,
                              *              LDQ           CHAR     GET INPUT CHARACTER.
                              *              TSX           REMAP,4  MAP IT.
                              *              STQ           CHAR     STORE AWAY PROPER CHARACTER.
                              *      CHAR IS RIGHT ADJUSTED IN MQ.
                              *

        TRANSFER VECTOR
      00000  663046214431     WHOAMI

      00001  0634 00 4 00013  REMAP  SXA     RM4,4         SAVE THE IR THAT WE USE.
      00002 -0520 00 0 00054         NZT     MPSW          IS ANY MAPPING HANNENING.Q
      00003  0020 00 4 00001         TRA     1,4           GUESS NOT, RETURN.
      00004 -0130 00 0 00000         XCL                   GET CHARACTER FROM MQ.
      00005 -0320 00 0 00543         ANA     =O177         FLUSH OUT UNNEEDED BITS.
      00006  0734 00 4 00000         PAX     0,4           MAKE IT AN INDEX.
      00007 -0500 00 4 00000  TSW    CAL     --,4          LOOK UP NEW CHAR WITH OLD ONE AS INDEX.
      00010  0771 00 0 00000  SSW    ARS     --            SHIFT TO CORRECT VARIATION.
      00011 -0320 00 0 00543         ANA     =O177         MASK TO LEAVE ONLY THIS CHARACTER.
      00012 -0130 00 0 00000         XCL                   PUT CHARACTER BACK INTO MQ.
      00013  0774 00 4 00000  RM4    AXT     --,4          RESTORE LINKAGE.
      00014  0020 00 4 00001         TRA     1,4           RETURN TO CALLER.
                              *
                              *
                              *      CALLING SEQUENCE,
                              *              CALL CHBALL.(BALL, AUTHORITY, ERR)
                              *              WHERE BALL IS A BCD BALL NAME,
                              *              AND AUTHORITY IS AN INTEGER.
                              *              IF BALL NOT IN TABLES, EXIT VIA ERR.
                              *
      00015  0500 00 0 00053  CHBALL CLA     AUTH          CHECK AUTHORITY.
      00016  0402 60 4 00002         SUB*    2,4           ..
      00017 -0120 00 4 00003         TMI     3,4           LESS AUTHORITATIVE, RETURN.
      00020  0500 60 4 00002         CLA*    2,4           EQUAL OR MORE, SAVE NEW AUTHORITY.
      00021  0601 00 0 00053         STO     AUTH          ..
      00022 -0500 60 4 00001         CAL*    1,4           GET BALL NAME.
      00023  0634 00 4 00051         SXA     CHX4,4        SAVE LINKAGE.
      00024  0774 00 4 00060         AXT     NBALLS,4      SEARCH FOR THIS BALL NAME.
      00025 -0340 00 4 00141  SRCH   LAS     ETABLE,4      ..
      00026  0020 00 0 00030         TRA     *+2           NOT THIS ONE.
      00027  1 77777 4 00033         TXI     GETTAB,4,-1   FOUND, BOUNCE INDEX AND GET BALL.
      00030  2 00001 4 00025         TIX     SRCH,4,1      INDEX, AND TRY AGAIN.
      00031  0534 00 4 00051         LXA     CHX4,4        NOT FOUND, GIVE ERROR RETURN.
      00032  0020 60 4 00003         TRA*    3,4           AT THIRD ARGUMENT.
                              *
      00033 -0500 00 4 00141  GETTAB CAL     ETABLE,4      GET TABLE LOCATION AND SHIFT SIZE.
      00034  0621 00 0 00007         STA     TSW           SET TABLE ADDRESS.
      00035  0771 00 0 00022         ARS     18            ..
      00036  0621 00 0 00010         STA     SSW           SET VARIATION SHIFTER.
      00037 -0625 00 0 00054         STL     MPSW          SET MAPPING SWITCH ON.
1            CHARACTER REMAPPING PACKAGE.                                                        PAGE 2

      00040  0074 00 4 00000         TSX     $WHOAMI,4     FIND IF WE MUST USE 938 TABLES.
      00041  0 00004 0 00055                 IN,,4         ..
      00042 -0500 00 0 00060         CAL     IN+3          GET UNIT ID CODE.
      00043  0771 00 0 00036         ARS     30            EXTRACT DEVICE CODE.
      00044  0402 00 0 00541         SUB     =2            DEVICE 2 IS THE 1050.
      00045 -0100 00 0 00051         TNZ     CHX4          NOT 1050, ASSUME 2741 TABLE.
      00046 -0500 00 0 00010         CAL     SSW           1050, REDUCE SHIFT BY HALF WORD.
      00047  0402 00 0 00542         SUB     =18           ..
      00050  0621 00 0 00010         STA     SSW           RESET SHIFT ADDRESS
      00051  0774 00 4 00000  CHX4   AXT     --,4          ALL DONE, RESTORE LINKAGE.
      00052  0020 00 4 00004         TRA     4,4           RETURN TO CALLER.
                              *
      00053 +377777777777     AUTH   OCT     377777777777  INITIAL MINIMUM AUTHORITY.
      00054  0 00000 0 00000  MPSW                         STORAGE FOR MAPPING SWITCH.
      00055                   IN     BSS     4             PLACE TO PUT CONSOLE ID.
                              *
                       00061  BTABLE EQU     *             TABLE OF ACCEPTABLE GOLF BALLS.
                                                           BALLS INTENDED FOR 1050.
      00061  606060110310            BCI     1,   938      STANDARD CORRESPONDENCE BALL.
      00062  0 00022 0 00340                 TABLE1,,COL2
      00063  606060110603            BCI     1,   963      360 - PL/I - IBM EXTENDED BCD BALL.
      00064  0 00033 0 00340                 TABLE1,,COL1
                                                           BALLS FOR DOMESTIC SELECTRIC TYPEWRITER.
      00065  606060000001            BCI     1,   001
      00066  0 00022 0 00540                 TABLE2,,COL2
      00067  606060000005            BCI     1,   005
      00070  0 00022 0 00540                 TABLE2,,COL2
      00071  606060000007            BCI     1,   007
      00072  0 00022 0 00540                 TABLE2,,COL2
      00073  606060000010            BCI     1,   008
      00074  0 00022 0 00540                 TABLE2,,COL2
      00075  606060000102            BCI     1,   012
      00076  0 00022 0 00540                 TABLE2,,COL2
      00077  606060000104            BCI     1,   014
      00100  0 00022 0 00540                 TABLE2,,COL2
      00101  606060000105            BCI     1,   015
      00102  0 00022 0 00540                 TABLE2,,COL2
      00103  606060000200            BCI     1,   020
      00104  0 00022 0 00540                 TABLE2,,COL2
      00105  606060000300            BCI     1,   030
      00106  0 00022 0 00540                 TABLE2,,COL2
      00107  606060000500            BCI     1,   050
      00110  0 00022 0 00540                 TABLE2,,COL2
      00111  606060000700            BCI     1,   070
      00112  0 00022 0 00540                 TABLE2,,COL2
                                                           SELECTRIC BALLS WITH OPTIONAL CHARACTERS.
      00113  606060000201            BCI     1,   021
      00114  0 00033 0 00540                 TABLE2,,COL1
      00115  606060000205            BCI     1,   025
      00116  0 00033 0 00540                 TABLE2,,COL1
      00117  606060000206            BCI     1,   026
      00120  0 00033 0 00540                 TABLE2,,COL1
      00121  606060000207            BCI     1,   027
      00122  0 00033 0 00540                 TABLE2,,COL1
      00123  606060000211            BCI     1,   029
      00124  0 00033 0 00540                 TABLE2,,COL1
1            CHARACTER REMAPPING PACKAGE.                                                        PAGE 3

      00125  606060000301            BCI     1,   031
      00126  0 00033 0 00540                 TABLE2,,COL1
      00127  606060000303            BCI     1,   033
      00130  0 00033 0 00540                 TABLE2,,COL1
      00131  606060000305            BCI     1,   035
      00132  0 00033 0 00540                 TABLE2,,COL1
      00133  606060000306            BCI     1,   036
      00134  0 00033 0 00540                 TABLE2,,COL1
      00135  606060000311            BCI     1,   039
      00136  0 00033 0 00540                 TABLE2,,COL1
      00137  606060001100            BCI     1,   090
      00140  0 00033 0 00540                 TABLE2,,COL1

                       00060  NBALLS EQU     *-BTABLE      SIZE OF TABLE

                       00141  ETABLE EQU     *             END OF TABLE OF ACCEPTABLE GOLF BALLS.
                              *
                       00033  COL1   EQU     27            SHIFT DEFINITION.
                       00022  COL2   EQU     18            ..
                       00011  COL3   EQU     9             ..
                       00000  COL4   EQU     0             ..
                              *
                              *      TABLE FOR 1050-STYLE BALLS.  EXCEPTIONS APPEAR AT CODES
                              *      155, 153, 152, 137, 114, 112, 105, 102, 101, AND 100.
                              *
                              *              COLUMN 1 IS FOR BALL 953 WITH CTSS 963 CODE TABLE.
                              *              COLUMN 2 IS FOR BALL 938 WITH CTSS 963 CODE TABLE.
                              *              COLUMN 3 IS FOR BALL 963 WITH CTSS 938 TABLE.
                              *              COLUMN 4 IS FOR BALL 938 WITH CTSS 938 TABLE.
                              *
                              *               1  2  3  4
                              *
      00141 +177177177177            OCT     177177177177
      00142 +176176176176            OCT     176176176176
      00143 +175175175175            OCT     175175175175
      00144 +060060060060            OCT     060060060060  CLOSE BRACE.
      00145 +060060060060            OCT     060060060060  OPEN BRACE.
      00146 +172172172172            OCT     172172172172
      00147 +171171171171            OCT     171171171171
      00150 +170170170170            OCT     170170170170
      00151 +167167167167            OCT     167167167167
      00152 +166166166166            OCT     166166166166
      00153 +165165165165            OCT     165165165165
      00154 +164164164164            OCT     164164164164
      00155 +163163163163            OCT     163163163163
      00156 +162162162162            OCT     162162162162
      00157 +161161161161            OCT     161161161161
      00160 +060060060060            OCT     060060060060  OPEN QUOTE (GRAVE ACCENT.)
      00161 +157157157157            OCT     157157157157
      00162 +156156156156            OCT     156156156156
      00163 +155060137060            OCT     155060137060  GREATER THAN, NOT ON 938 BALL.
      00164 +154154154154            OCT     154154154154
      00165 +060060060060            OCT     060060060060  OPEN SQUARE BRACKET.
      00166 +152060100060            OCT     152060100060  LESS THAN, NOT ON 938 BALL
      00167 +151151151151            OCT     151151151151
      00170 +150150150150            OCT     150150150150
1            CHARACTER REMAPPING PACKAGE.                                                        PAGE 4

      00171 +147147147147            OCT     147147147147
      00172 +146146146146            OCT     146146146146
      00173 +145145145145            OCT     145145145145
      00174 +144144144144            OCT     144144144144
      00175 +143143143143            OCT     143143143143
      00176 +142142142142            OCT     142142142142
      00177 +141141141141            OCT     141141141141
      00200 +140140140140            OCT     140140140140
      00201 +137155112137            OCT     137155112137  DOUBLE QUOTE, IN DIFFERENT PLACES.
      00202 +136136136136            OCT     136136136136
      00203 +135135135135            OCT     135135135135
      00204 +060060060060            OCT     060060060060  TILDE.
      00205 +133133133133            OCT     133133133133
      00206 +132132132132            OCT     132132132132
      00207 +131131131131            OCT     131131131131
      00210 +130130130130            OCT     130130130130
      00211 +127127127127            OCT     127127127127
      00212 +126126126126            OCT     126126126126
      00213 +125125125125            OCT     125125125125
      00214 +124124124124            OCT     124124124124
      00215 +123123123123            OCT     123123123123
      00216 +122122122122            OCT     122122122122
      00217 +121121121121            OCT     121121121121
      00220 +120120120120            OCT     120120120120
      00221 +117117117117            OCT     117117117117
      00222 +116116116116            OCT     116116116116
      00223 +115115115115            OCT     115115115115
      00224 +114114114114            OCT     114114114114
      00225 +113113113113            OCT     113113113113
      00226 +060060060060            OCT     060060060060  CIRCUMFLEX.
      00227 +111111111111            OCT     111111111111
      00230 +110110110110            OCT     110110110110
      00231 +107107107107            OCT     107107107107
      00232 +106106106106            OCT     106106106106
      00233 +105105105105            OCT     105105105105
      00234 +104104104104            OCT     104104104104
      00235 +103103103103            OCT     103103103103
      00236 +060060060060            OCT     060060060060  LEFT SLASH.
      00237 +060060060060            OCT     060060060060  CLOSE SQUARE BRACKET.
      00240 +100060152060            OCT     100060152060  VERTICAL BAR, NOT ON BALL.
      00241 +077077077077            OCT     077077077077
      00242 +076076076076            OCT     076076076076
      00243 +075075075075            OCT     075075075075
      00244 +074074074074            OCT     074074074074
      00245 +073073073073            OCT     073073073073
      00246 +072072072072            OCT     072072072072
      00247 +071071071071            OCT     071071071071
      00250 +070070070070            OCT     070070070070
      00251 +067067067067            OCT     067067067067
      00252 +066066066066            OCT     066066066066
      00253 +065065065065            OCT     065065065065
      00254 +064064064064            OCT     064064064064
      00255 +063063063063            OCT     063063063063
      00256 +062062062062            OCT     062062062062
      00257 +061061061061            OCT     061061061061
      00260 +060060060060            OCT     060060060060
1            CHARACTER REMAPPING PACKAGE.                                                        PAGE 5

      00261 +057057057057            OCT     057057057057
      00262 +056056056056            OCT     056056056056
      00263 +055055055055            OCT     055055055055
      00264 +054054054054            OCT     054054054054
      00265 +053053053053            OCT     053053053053
      00266 +052052052052            OCT     052052052052
      00267 +051051051051            OCT     051051051051
      00270 +050050050050            OCT     050050050050
      00271 +047047047047            OCT     047047047047
      00272 +046046046046            OCT     046046046046
      00273 +045045045045            OCT     045045045045
      00274 +044044044044            OCT     044044044044
      00275 +043043043043            OCT     043043043043
      00276 +042042042042            OCT     042042042042
      00277 +041041041041            OCT     041041041041
      00300 +040040040040            OCT     040040040040
      00301 +037037037037            OCT     037037037037
      00302 +036036036036            OCT     036036036036
      00303 +035035035035            OCT     035035035035
      00304 +034034034034            OCT     034034034034
      00305 +033033033033            OCT     033033033033
      00306 +032032032032            OCT     032032032032
      00307 +031031031031            OCT     031031031031
      00310 +030030030030            OCT     030030030030
      00311 +027027027027            OCT     027027027027
      00312 +026026026026            OCT     026026026026
      00313 +025025025025            OCT     025025025025
      00314 +024024024024            OCT     024024024024
      00315 +023023023023            OCT     023023023023
      00316 +022022022022            OCT     022022022022
      00317 +021021021021            OCT     021021021021
      00320 +020020020020            OCT     020020020020
      00321 +017017017017            OCT     017017017017
      00322 +016016016016            OCT     016016016016
      00323 +015015015015            OCT     015015015015
      00324 +014014014014            OCT     014014014014
      00325 +013013013013            OCT     013013013013
      00326 +012012012012            OCT     012012012012
      00327 +011011011011            OCT     011011011011
      00330 +010010010010            OCT     010010010010
      00331 +007007007007            OCT     007007007007
      00332 +006006006006            OCT     006006006006
      00333 +005005005005            OCT     005005005005
      00334 +004004004004            OCT     004004004004
      00335 +003003003003            OCT     003003003003
      00336 +002002002002            OCT     002002002002
      00337 +001001001001            OCT     001001001001
      00340 +000000000000            OCT     000000000000
                       00340  TABLE1 EQU     *-1           LOCATION OF FIRST CHARACTER.
                              *
                              *      TABLE FOR SELECTRIC-STYLE BALLS.  VIRTUALLY ALL GRAPHICS
                              *      ARE REMAPPED.
                              *
                              *      COLUMNS 1 AND 2 ARE FOR THE SAME BALLS AS COLUMNS
                              *      THREE AND FOUR, BUT ASSUMING CTSS 963 TABLE.
                              *              COLUMN 3 IS FOR SELECTRIC OPTIONAL CHARACTER SET.
1            CHARACTER REMAPPING PACKAGE.                                                        PAGE 6

                              *                  USED FOR BALLS 021, 025, 026, 027, 029, 031, 033,
                              *                       035, 036, 039, AND 090
                              *              COLUMN 4 IS FOR STANDARD SELECTRIC CHARACTER SET.
                              *                  USED FOR BALLS 001, 005, 007, 008, 012, 014, 015,
                              *                       020, 030, 050, AND 070.
                              *
                              *               1  2  3  4   CTSS CODE
                              *
      00341 +177177177177            OCT     177177177177  0177
      00342 +176176176176            OCT     176176176176  0176
      00343 +175175175175            OCT     175175175175  0175
      00344 +060060060060            OCT     060060060060  0174 - CLOSE BRACE, PRINTS AS SPACE.
      00345 +060060060060            OCT     060060060060  0173 - OPEN BRACE, PRINTS AS SPACE.
      00346 +172172172172            OCT     172172172172  0172
      00347 +000000000000            OCT     000000000000  0171 - SMALL Z
      00350 +131131131131            OCT     131131131131  0170 - SMALL Y
      00351 +061061061061            OCT     061061061061  0167 - SMALL X
      00352 +053053053053            OCT     053053053053  0166 - SMALL W
      00353 +143143143143            OCT     143143143143  0165 - SMALL V
      00354 +163163163163            OCT     163163163163  0164 - SMALL U
      00355 -106506506506            OCT     506506506506  0163 - SMALL T
      00356 +151151151151            OCT     151151151151  0162 - SMALL S
      00357 +161161161161            OCT     161161161161  0161
      00360 +060060060060            OCT     060060060060  0160 - OPEN QUOTE, PRINTS AS SPACE.
      00361 +157157157157            OCT     157157157157  0157
      00362 +030030030030            OCT     030030030030  0156 - QUES MARK
      00363 +060060060060            OCT     060060060060  0155 - GREATER THAN SIGN, PRINTS AS SPACE.
      00364 -154554554554            OCT     554554554554  0154
      00365 +060013060013            OCT     060013060013  0153 - OPEN SQUARE BRACKET.
      00366 +060060060060            OCT     060060060060  0152 - LESS THAN SIGN, PRINTS AS SPACE
      00367 +145145145145            OCT     145145145145  0151 - SMALL R
      00370 +126126126126            OCT     126126126126  0150 - SMALL Q
      00371 +124124124124            OCT     124124124124  0147 - SMALL P
      00372 +150150150150            OCT     150150150150  0146 - SMALL 0
      00373 +162162162162            OCT     162162162162  0145 - SMALL N
      00374 +141141141141            OCT     141141141141  0144 - SMALL M
      00375 +170170170170            OCT     170170170170  0143 - SMALL L
      00376 +166166166166            OCT     166166166166  0142 - SMALL K
      00377 +120120120120            OCT     120120120120  0141 - SMALL J
      00400 +112112155155            OCT     112112155155  0140 - UNDERLINE
      00401 +044044044044            OCT     044044044044  0137 - DOUBLE QUOTE
      00402 +136136136136            OCT     136136136136  0136
      00403 +135135135135            OCT     135135135135  0135 - BKSPCE
      00404 +060060060060            OCT     060060060060  0134 - TILDE, PRINTS AS SPACE.
      00405 +133133133133            OCT     133133133133  0133 - RED SHIFT
      00406 +132132132132            OCT     132132132132  0132 - BLACK SHIFT
      00407 +146146146146            OCT     146146146146  0131 - SMALL I
      00410 +171171171171            OCT     171171171171  0130 - SMALL H
      00411 +121121121121            OCT     121121121121  0127 - SMALL G
      00412 +123123123123            OCT     123123123123  0126 - SMALL F
      00413 +164164164164            OCT     164164164164  0125 - SMALL E
      00414 +165165165165            OCT     165165165165  0124 - SMALL D
      00415 +167167167167            OCT     167167167167  0123 - SMALL C
      00416 +073073073073            OCT     073073073073  0122 - SMALL C
      00417 +147147147147            OCT     147147147147  0121 - SMALL A
      00420 -105505505505            OCT     505505505505  0120 - AMPERSAND
1            CHARACTER REMAPPING PACKAGE.                                                        PAGE 7

      00421 +117117117117            OCT     117117117117  0117
      00422 +116116116116            OCT     116116116116  0116
      00423 +115115115115            OCT     115115115115  0115
      00424 +060040060040            OCT     060040060040  0114 - EXCLAMATION POINT.
      00425 +113113113113            OCT     113113113113  0113
      00426 +060060060060            OCT     060060060060  0112 - CIRCUMFLEX, PRINTS AS SPACE.
      00427 +111111111111            OCT     111111111111  0111 -
      00430 +110110110110            OCT     110110110110  0110 - IGNORE SINGLE SPC
      00431 +107107107107            OCT     107107107107  0107 - IGNORE LINE FEED
      00432 +152152100100            OCT     152152100100  0106 - COMMERCIAL AT
      00433 +035035035035            OCT     035035035035  0105 - PERCENT.
      00434 +103103103103            OCT     103103103103  0104 - NUMBER SIGN
      00435 +125125125125            OCT     125125125125  0103 - SEMICOLON
      00436 +060060060060            OCT     060060060060  0102 - LEFT SLASH, PRINTS AS SPACE
      00437 +060001060001            OCT     060001060001  0101 - CLOSE SQUARE BRACKET.
      00440 +060060060060            OCT     060060060060  0100 - UP ARROW, PRINTS AS SPACE.
      00441 +077077077077            OCT     077077077077  0077
      00442 +076076076076            OCT     076076076076  0076
      00443 +075075075075            OCT     075075075075  0075
      00444 +137137112112            OCT     137137112112  0074 - LEFT PAREN
      00445 +027027027027            OCT     027027027027  0073 - COMMA
      00446 +072072072072            OCT     072072072072  0072 - TAB
      00447 +034034034034            OCT     034034034034  0071 - CAP Z
      00450 +031031031031            OCT     031031031031  0070 - CAP Y
      00451 +156156156156            OCT     156156156156  0067 - CAP X
      00452 +114114114114            OCT     114114114114  0066 - CAP W
      00453 +043043043043            OCT     043043043043  0065 - CAP V
      00454 +063063063063            OCT     063063063063  0064 - CAP U
      00455 +102102102102            OCT     102102102102  0063 - CAP T
      00456 +051051051051            OCT     051051051051  0062 - CAP S
      00457 +130130130130            OCT     130130130130  0061 - SLASH
      00460 +060060060060            OCT     060060060060  0060 - SPACE
      00461 +057057057057            OCT     057057057057  0057
      00462 +056056056056            OCT     056056056056  0056
      00463 +055055055055            OCT     055055055055  0055 - NEW LINE
      00464 +155155137137            OCT     155155137137  0054 - ASTERISK
      00465 +054054054054            OCT     054054054054  0053 - DOLLAR SIGN
      00466 +052052052052            OCT     052052052052  0052
      00467 +045045045045            OCT     045045045045  0051 - CAP R
      00470 +026026026026            OCT     026026026026  0050 - CAP Q
      00471 +024024024024            OCT     024024024024  0047 - CAP P
      00472 +050050050050            OCT     050050050050  0046 - CAP O
      00473 +062062062062            OCT     062062062062  0045 - CAP N
      00474 +041041041041            OCT     041041041041  0044 - CAP M
      00475 +070070070070            OCT     070070070070  0043 - CAP L
      00476 +066066066066            OCT     066066066066  0042 - CAP K
      00477 +020020020020            OCT     020020020020  0041 - CAP J
      00500 +033033033033            OCT     033033033033  0040 - MINUS
      00501 +037037037037            OCT     037037037037  0037
      00502 +036036036036            OCT     036036036036  0036
      00503 +025025025025            OCT     025025025025  0035 - COLON
      00504 +074074074074            OCT     074074074074  0034 - RIGHT PAREN
      00505 +042042042042            OCT     042042042042  0033 - PERIOD
      00506 +032032032032            OCT     032032032032  0032
      00507 +046046046046            OCT     046046046046  0031 - CAP I
      00510 +071071071071            OCT     071071071071  0030 - CAP H
1            CHARACTER REMAPPING PACKAGE.                                                        PAGE 8

      00511 +021021021021            OCT     021021021021  0027 - CAP G
      00512 +023023023023            OCT     023023023023  0026 - CAP F
      00513 +064064064064            OCT     064064064064  0025 - CAP E
      00514 +065065065065            OCT     065065065065  0024 - CAP D
      00515 +067067067067            OCT     067067067067  0023 - CAP C
      00516 +100100152152            OCT     100100152152  0022 - CAP B
      00517 +047047047047            OCT     047047047047  0021 - CAP A
      00520 +022022022022            OCT     022022022022  0020 - PLUS SIGN
      00521 +017017017017            OCT     017017017017  0017
      00522 +016016016016            OCT     016016016016  0016
      00523 +015015015015            OCT     015015015015  0015
      00524 +144144144144            OCT     144144144144  0014 - SINGLE QUOTE
      00525 +122122122122            OCT     122122122122  0013 - EQUALS
      00526 +012012012012            OCT     012012012012  0012
      00527 -104504504504            OCT     504504504504  0011 - 9
      00530 +007007007007            OCT     007007007007  0010 - 8
      00531 +005005005005            OCT     005005005005  0007
      00532 +006006006006            OCT     006006006006  0006
      00533 +004004004004            OCT     004004004004  0005
      00534 +010010010010            OCT     010010010010  0004
      00535 +003003003003            OCT     003003003003  0003
      00536 +002002002002            OCT     002002002002  0002
      00537 +001170001170            OCT     001170001170  0001 - 1, PRINTS AS SMALL L.
      00540 +011011011011            OCT     011011011011  0000
                       00540  TABLE2 EQU     *-1           LOCATION OF FIRST CHARACTER.
                              *
                                     END

        LITERALS
      00541  000000000002
      00542  000000000022
      00543  000000000177
1            CHARACTER REMAPPING PACKAGE.                                                        PAGE 1
                        POST PROCESSOR ASSEMBLY DATA

        544 IS THE FIRST LOCATION NOT USED BY THIS PROGRAM

0REFERENCES TO DEFINED SYMBOLS
         55     IN    41,   42
         13    RM4     1
         10    SSW    36,   46,   50
          7    TSW    34
         53   AUTH    15,   21
         51   CHX4    23,   31,   45
         33   COL1    64,  114,  116,  120,  122,  124,  126,  130,  132,  134,  136,  140,  141
         22   COL2    62,   66,   70,   72,   74,   76,  100,  102,  104,  106,  110,  112,  141
         11   COL3   141
          0   COL4   141
         54   MPSW     2,   37
         25   SRCH    30
          1  REMAP     0
         61 BTABLE    61,  141
         15 CHBALL     0
        141 ETABLE    25,   33,  141
         33 GETTAB    27
         60 NBALLS    24,  141
        340 TABLE1    62,   64,  341
        540 TABLE2    66,   70,   72,   74,   76,  100,  102,  104,  106,  110,  112,  114,  116,  120,  122,  124,  126
                     130,  132,  134,  136,  140,  541
          0 WHOAMI    40

0 NO ERROR IN ABOVE ASSEMBLY.
1            BUFFER CONTROL ROUTINE FOR DISK INPUT AND OUTPUT.                                   PAGE 1

                              *      NOTE, INDEX REGISTERS SIX AND SEVEN MUST BE PRESERVED
                              *      BY THE CALLING PROGRAM.
                              *      THIS ROUTINE MAKES TYPEWRITER COMMENTS, BUT DOES NOT
                              *      AFFECT THE BCD-FULL MODE SWITCH.
                              *
                              *           J. H. SALTZER, JANUARY, 1965.
                              *
                       00015         ENTRY   ASSIGN        TO ASSIGN A NAME TO THE WRITE FILE.
                       00057         ENTRY   WRWORD        TO ADD A WORD TO THE FILE.
                       00100         ENTRY   FILE          TO CLOSE THE FILE.
                              *
                       00160         ENTRY   SEEK          TO OPEN A FILE FOR READING.
                       00242         ENTRY   RDWORD        TO GET A WORD FROM FILE.
                       00275         ENTRY   ENDRD         TO CLOSE THE FILE.
                              *
                                     EXTERN  GETBUF,SETBCD,SETFUL,WRFLX,WRFLXA
                                     EXTERN  OPEN,WRWAIT,RDWAIT,CLOSE,FSTATE,BUFFER
                              *
                              *      ASSIGN.($NAME1$,$NAME2$)
                              *

        TRANSFER VECTOR
      00000  272563226426     GETBUF
      00001  622563222324     SETBCD
      00002  622563266443     SETFUL
      00003  665126436760     WRFLX
      00004  665126436721     WRFLXA
      00005  464725456060     OPEN
      00006  665166213163     WRWAIT
      00007  512466213163     RDWAIT
      00010  234346622560     CLOSE
      00011  266263216325     FSTATE
      00012  226426262551     BUFFER

            LINKAGE DIRECTOR
      00013  000000000000
      00014  216262312745

      00015 -0500 60 4 00001  ASSIGN CAL*    1,4           OPEN FILE, GET FILE NAME.
      00016  0602 00 0 00304         SLW     OUTNAM        ..
      00017 -0500 60 4 00002         CAL*    2,4           ..
      00020  0602 00 0 00305         SLW     OUTNAM+1      ..
      00021  0634 00 4 00041         SXA     OPX4,4        SAVE LINKAGE.
      00022  0020 00 0 00023   OSW   TRA     *+1           ENTER ONE-TIME SECTION TO GET BUFFERS.
                              *                                                    *******************
      00023 -0500 00 0 00315         CAL     WBFSZ         GET AN OUTPUT BUFFER FROM SUPERVISOR.
      00024  0074 00 4 00000         TSX     GETBUF,4      ..
      00025  0621 00 0 00071         STA     WCALL         SAVE LOCATION OF BUFFER.
      00026  0621 00 0 00113         STA     CLCALL        TO CLOSE OUT FILE.
      00027  0361 00 0 00315         ACL     WBFSZ         ADD LENGTH, TO FORM END ADDRESS.
      00030  0621 00 0 00060         STA     WRNM          INSERT IN INSERTER.
      00031 -0500 00 0 00313         CAL     TRKSZ         GET A DISK TRACK BUFFER.
      00032  0074 00 4 00000         TSX     GETBUF,4      ..
      00033  0621 00 0 00055         STA     BFCALL        SET UP BUFFER CALLER.
      00034 -0625 00 0 00022         STL     OSW           RESET ONE-TIME SWITCH.
                              *                                                    *******************
1            BUFFER CONTROL ROUTINE FOR DISK INPUT AND OUTPUT.                                   PAGE 2

      00035  0774 00 4 00040         AXT     OPOK,4        SET QUOTA EXHAUSTED ERROR RETURN.
      00036  0634 00 4 00143         SXA     WRTN,4        ..
      00037  0074 00 3 00043         TSX     OPN,3         OPEN THE FILE.
      00040  0774 00 7 00330  OPOK   AXT     WBFLTH,7      SET UP STORAGE COUNT.
      00041  0774 00 4 00000   OPX4  AXT     --,4          RESTORE LINKAGE.
      00042  0020 00 4 00003         TRA     3,4           RETURN.
                              *
      00043  0074 00 4 00005  OPN    TSX     OPEN,4        OPEN FILE.
 TD   00044  3 00000 0 00324         TXH     =HW           FOR WRITING.
 TD   00045  3 00000 0 00304         TXH     OUTNAM        ..
 TD   00046  3 00000 0 00305         TXH     OUTNAM+1      ..
 TD   00047  3 00000 0 00156         TXH     MODE          MAKE IT PERMANENT IF POSSIBLE.
 TD   00050  3 00000 0 00320         TXH     =2            PUT IT ON THE DISK.
 TD   00051  3 00000 0 00127  OPERR  TXH     OEXH          IN CASE NO MORE QUOTA AVAILABLE.
      00052  0074 00 4 00012         TSX     BUFFER,4      ASSIGN A BUFFER FOR THE FILE.
 TD   00053  3 00000 0 00304         TXH     OUTNAM        ..
 TD   00054  3 00000 0 00305         TXH     OUTNAM+1      ..
      00055  3 00660 0 00000  BFCALL TXH     --,,TRKLTH    ..
      00056  0020 00 3 00001         TRA     1,3           RETURN TO CALLER.
                              *
                              *
                              *      ENTRY TO ADD A WORD TO FILE.
                              *              WRWORD.(WORD)
                              *
      00057 -0500 60 4 00001  WRWORD CAL*    1,4           GET WORD TO BE ADDED.
      00060  0602 00 7 00000   WRNM  SLW     --,7          ADD WORD TO OUTPUT BUFFER.
      00061  2 00001 7 00077         TIX     RETURN,7,1    COUNT AND CHECK FOR FULL BUFFER.
      00062  0634 00 4 00076   FULL  SXA     FULX4,4       BUFFER FULL, WRITE IT OUT.
      00063  0774 00 4 00065         AXT     WRAGN,4       SET UP EXHAUSTED RETURN ADDRESS.
      00064  0634 00 4 00143         SXA     WRTN,4        ..
      00065  0074 00 4 00006  WRAGN  TSX     WRWAIT,4      GIVE BUFFER TO SUPERVISOR.
 TD   00066  3 00000 0 00304         TXH     OUTNAM        ..
 TD   00067  3 00000 0 00305         TXH     OUTNAM+1      ..
 TD   00070  3 00000 0 00316         TXH     =0            ..
      00071  3 00330 0 00000  WCALL  TXH     --,,WBFLTH    ..
 TD   00072  3 00000 0 00321         TXH     =-0           IGNORE POSSIBLE EOF.
 TD   00073  3 00000 0 00321         TXH     =-0           ..
 TD   00074  3 00000 0 00124  WRERR  TXH     WEXH          ALLOW ERROR RETURN.
      00075  0774 00 7 00330         AXT     WBFLTH,7      RESET BUFFER POINTER.
      00076  0774 00 4 00000   FULX4 AXT     --,4          RESTORE LINKAGE.
      00077  0020 00 4 00002  RETURN TRA     2,4           RETURN TO CALLER.
                              *
                              *      FILE.     NO ARGUMENTS.
                              *
      00100  0634 00 4 00122  FILE   SXA     CL4,4         ENTRY TO CLOSE OUT FILE.
      00101 -0634 00 7 00103         SXD     *+2,7         FORM COUNT OF WORDS SINCE
      00102  0774 00 7 00330         AXT     WBFLTH,7      LAST BUFFER WAS WRITTEN.
      00103 -2 00000 7 00117         TNX     NOWR,7,--     IF ZERO, SKIP FINAL WRITE CALL.
      00104 -0634 00 7 00113         SXD     CLCALL,7      NON-ZERO, SET UP WRITE CALL.
      00105  0774 00 4 00107         AXT     FWR,4         SET UP RETURN ADDRESS FOR EXHAUSTED CASE.
      00106  0634 00 4 00143         SXA     WRTN,4        ..
      00107  0074 00 4 00006  FWR    TSX     WRWAIT,4      WRITE OUT PARTIAL BUFFER.
 TD   00110  3 00000 0 00304         TXH     OUTNAM        ..
 TD   00111  3 00000 0 00305         TXH     OUTNAM+1      ..
 TD   00112  3 00000 0 00316         TXH     =0            ..
      00113  3 00000 0 00000  CLCALL TXH     --,,--        ..
1            BUFFER CONTROL ROUTINE FOR DISK INPUT AND OUTPUT.                                   PAGE 3

 TD   00114  3 00000 0 00321         TXH     =-0           IGNORE EOF RETURN.
 TD   00115  3 00000 0 00321         TXH     =-0           ..
 TD   00116  3 00000 0 00124         TXH     WEXH          ALLOW ERROR RETURN.
      00117  0074 00 4 00010  NOWR   TSX     CLOSE,4       CLOSE OUT THE FILE.
 TD   00120  3 00000 0 00304         TXH     OUTNAM        ..
 TD   00121  3 00000 0 00305         TXH     OUTNAM+1      ..
      00122  0774 00 4 00000   CL4   AXT     --,4          RESTORE LINKAGE.
      00123  0020 00 4 00001         TRA     1,4           ..
                              *
      00124  0074 00 4 00010  WEXH   TSX     CLOSE,4       TRACK QUOTA EXHAUSTED, CLOSE FILE.
 TD   00125  3 00000 0 00304         TXH     OUTNAM        ..
 TD   00126  3 00000 0 00305         TXH     OUTNAM+1      ..
      00127  0074 00 4 00001  OEXH   TSX     SETBCD,4      ENTRY FROM OPEN ERROR, COMMENT.
      00130  0601 00 0 00157         STO     MODSW         SAVE OLD CHARACTER MODE SETTING.
      00131  0074 00 4 00003         TSX     WRFLX,4       ..
      00132  0 00011 0 00144                 ERMESS,,9
      00133  0520 00 0 00157         ZET     MODSW         SHOULD 12-BIT INDICATOR BE RESET.
      00134  0074 00 4 00002         TSX     SETFUL,4      YES, RESET INDICATOR.
      00135 -0500 00 0 00317         CAL     =1            SWITCH TO TEMPORARY MODE.
      00136  0601 00 0 00156         STO     MODE          ..
      00137 -0500 00 0 00155         CAL     NOP           BLOCK FUTURE ERROR RETURN.
      00140  0602 00 0 00051         SLW     OPERR         ..
      00141  0602 00 0 00074         SLW     WRERR
      00142  0074 00 3 00043         TSX     OPN,3         NOW, OPEN IT AGAIN.
      00143  0020 00 0 00000  WRTN   TRA     --            ALL FIXED, RETURN TO MAIN STREAM.
                              *
      00144  635121234260     ERMESS BCI     9,TRACK QUOTA EXHAUSTED, TEMPORARY MODE WILL BE USED.
      00145  506446632160
      00146  256730216462
      00147  632524736063
      00150  254447465121
      00151  517060444624
      00152  256066314343
      00153  602225606462
      00154  252433606060
      00155  0761 00 0 00000   NOP   NOP                   INSTRUCTION TO BLOCK ERROR RETURN.
      00156  0 00000 0 00000  MODE           0             START IN PERMANENT MODE.
      00157  0 00000 0 00000  MODSW                        TEMP STORAGE FOR 6-BIT,12-BIT INDICATOR.
                              *
                              * * * * * * * * * * * * * * * * * * * * * * * * * * * * * * * * * *
                              *      SEEK.($NAME1$, $NAME2$, ERRET)
                              *      ERROR RETURN MEANS FILE NOT FOUND.
                              *
      00160 -0500 60 4 00001   SEEK  CAL*    1,4           GET FILE NAME.
      00161  0602 00 0 00306         SLW     INNAM         ..
      00162 -0500 60 4 00002         CAL*    2,4           ..
      00163  0602 00 0 00307         SLW     INNAM+1       ..
      00164  0634 00 4 00222         SXA     SKX4,4        SAVE LINKAGE.
      00165  0020 00 0 00166   SKSW  TRA     *+1           ENTER ONE-TIME SECTION TO GET BUFFERS.
                              *                                                  *********************
      00166 -0500 00 0 00314         CAL     RBFSZ         GET A BUFFER FROM SUPERVISOR.
      00167  0074 00 4 00000         TSX     GETBUF,4      ..
      00170  0621 00 0 00257         STA     ECALL         STORE BUFFER LOCATION.
      00171  0621 00 0 00217         STA     STCALL        ..
      00172 -0625 00 0 00165         STL     SKSW          RESET ONE-TIME SWITCH.
                              *                                                  *********************
1            BUFFER CONTROL ROUTINE FOR DISK INPUT AND OUTPUT.                                   PAGE 4

      00173 -0500 00 0 00217         CAL     STCALL        SET UP PICKUP INSTRUCTION FOR INDEXING.
      00174  0361 00 0 00314         ACL     RBFSZ         ..
      00175  0621 00 0 00242         STA     RDWORD        ..
      00176  0074 00 4 00011         TSX     FSTATE,4      MAKE SURE FILE IS THERE.
 TD   00177  3 00000 0 00306         TXH     INNAM         ..
 TD   00200  3 00000 0 00307         TXH     INNAM+1       ..
 TD   00201  3 00000 0 00321         TXH     =-0           DON'T WANT DATA.
 TD   00202  3 00000 0 00224         TXH     NOTFN         ERROR RETURN MEANS FILE NOT THERE.
      00203  0074 00 4 00005         TSX     OPEN,4        OPEN THE FILE FOR READING.
 TD   00204  3 00000 0 00322         TXH     =HR           ..
 TD   00205  3 00000 0 00306         TXH     INNAM         ..
 TD   00206  3 00000 0 00307         TXH     INNAM+1       ..
      00207  0774 00 6 00660         AXT     RBFLTH,6      SET UP BUFFER COUNTER.
      00210  0774 00 4 00222         AXT     SKX4,4        SET END OF FILE RETURN.
      00211  0634 00 4 00274         SXA     EOFRTN,4      ..
      00212  0600 00 0 00312         STZ     EOFR          CLEAR END OF FILE SWITCH.
      00213  0074 00 4 00007         TSX     RDWAIT,4      GET INITIAL BUFFER LOAD.
 TD   00214  3 00000 0 00306         TXH     INNAM         ..
 TD   00215  3 00000 0 00307         TXH     INNAM+1       ..
 TD   00216  3 00000 0 00316         TXH     =0            ..
      00217  3 00660 0 00000  STCALL TXH     --,,RBFLTH    ..
 TD   00220  3 00000 0 00265         TXH     EOF           END OF FILE RETURN.
 TD   00221  3 00000 0 00311         TXH     EOFCT         ..
      00222  0774 00 4 00000   SKX4  AXT     --,4          RESTORE LINKAGE.
      00223  0020 00 4 00004         TRA     4,4           RETURN TO CALLER.
                              *
      00224  0074 00 4 00001  NOTFN  TSX     SETBCD,4      FILE NOT FOUND, COMMENT.
      00225  0601 00 0 00157         STO     MODSW         SAVE OLD CHARACTER MODE SETTING.
      00226  0074 00 4 00004         TSX     WRFLXA,4      START UP COMMENT.
      00227  0 00001 0 00323                 =H FILE ,,1   ..
      00230  0074 00 4 00004         TSX     WRFLXA,4      INSERT FILE NAME.
      00231  0 00002 0 00306                 INNAM,,2      ..
      00232  0074 00 4 00003         TSX     WRFLX,4       END OF COMMENT.
      00233  0 00002 0 00240                 ECM,,2        ..
      00234  0520 00 0 00157         ZET     MODSW         SHOULD 12-BIT INDICATOR BE RESET.
      00235  0074 00 4 00002         TSX     SETFUL,4      YES, RESET MODE.
      00236  0534 00 4 00222         LXA     SKX4,4        GIVE ERROR RETURN.
      00237  0020 60 4 00003         TRA*    3,4           ..
                              *
      00240  604546636026     ECM    BCI     2, NOT FOUND.
      00241  466445243360
                              *
                              *      ENTRY TO OBTAIN WORD FROM FILE.
                              *              WORD = RDWORD.(EOF)
                              *
      00242  0500 00 6 00000  RDWORD CLA     --,6          GET WORD FROM INPUT BUFFER.
      00243  2 00001 6 00264         TIX     GOBACK,6,1    INDEX, AND CHECK FOR EMPTY BUFFER.
      00244  0520 00 0 00312         ZET     EOFR          BUFFER EMPTY, HAS END OF FILE OCCURRED.
      00245  0020 60 4 00001         TRA*    1,4           YES, GIVE EOF RETURN.
      00246  0601 00 0 00310         STO     RTEMP         NO, SAVE WORD AND GET SOME MORE DATA.
      00247  0634 00 4 00263         SXA     EMPX4,4       SAVE LINKAGE, ALSO.
      00250  0774 00 6 00660         AXT     RBFLTH,6      RESET BUFFER POINTER.
      00251  0774 00 4 00262         AXT     EMPGT,4       SET END OF FILE RETURN.
      00252  0634 00 4 00274         SXA     EOFRTN,4      ..
      00253  0074 00 4 00007         TSX     RDWAIT,4      GET ANOTHER BUFFER LOAD OF DATA.
 TD   00254  3 00000 0 00306         TXH     INNAM         ..
1            BUFFER CONTROL ROUTINE FOR DISK INPUT AND OUTPUT.                                   PAGE 5

 TD   00255  3 00000 0 00307         TXH     INNAM+1       ..
 TD   00256  3 00000 0 00316         TXH     =0            ..
      00257  3 00660 0 00000  ECALL  TXH     --,,RBFLTH    ..
 TD   00260  3 00000 0 00265         TXH     EOF           ..
 TD   00261  3 00000 0 00311         TXH     EOFCT         ..
      00262  0500 00 0 00310   EMPGT CLA     RTEMP         RESTORE WORD FOR THIS CALL.
      00263  0774 00 4 00000   EMPX4 AXT     --,4          RESTORE LINKAGE.
      00264  0020 00 4 00002  GOBACK TRA     2,4           RETURN TO CALLER.
                              *
      00265 -0625 00 0 00312  EOF    STL     EOFR          END OF FILE REACHED, SET SWITCH.
      00266 -0500 00 0 00311         CAL     EOFCT         GET COUNT OF WORDS LEFT.
      00267  0361 00 0 00317         ACL     =1            BUGGER WORD COUNT.
      00270  0734 00 6 00000         PAX     0,6           SET WORD COUNTER.
      00271  0361 00 0 00257         ACL     ECALL         ADJUST PICKUP INSTRUCTION.
      00272  0621 00 0 00242         STA     RDWORD        ..
      00273  0074 00 4 00275         TSX     ENDRD,4       TURN OFF FILE.
      00274  0020 00 0 00000  EOFRTN TRA     --            RETURN TO END OF RDFILE CALLING SEQUENCE.
                              *
                              *      ENTRY TO CLOSE INPUT FILE.
                              *      ENDRD.
                              *
      00275  0634 00 4 00302  ENDRD  SXA     ENDX4,4       SAVE LINKAGE.
      00276  0074 00 4 00010         TSX     CLOSE,4       CLOSE FILE.
 TD   00277  3 00000 0 00306         TXH     INNAM         ..
 TD   00300  3 00000 0 00307         TXH     INNAM+1       ..
 TD   00301  3 00000 0 00302         TXH     *+1           IGNORE ANY ERROR RETURN.
      00302  0774 00 4 00000  ENDX4  AXT     --,4          RESTORE LINKAGE.
      00303  0020 00 4 00001         TRA     1,4           ..
                              *
      00304  545454545454     OUTNAM BCI     2,************  NAME OF OUTPUT FILE.
      00305  545454545454
      00306  545454545454      INNAM BCI     2,************  NAME OF INPUT FILE.
      00307  545454545454
      00310  0 00000 0 00000   RTEMP                       STORAGE FOR WORD.
      00311  0 00000 0 00000  EOFCT                        STORAGE FOR END OF FILE COUNTER.
      00312  0 00000 0 00312   EOFR          *             SWITCH FOR END OF FILE MET.
                              *
                       00660  TRKLTH EQU     432           DISK TRACK LENGTH.
      00313  0 00000 0 00660   TRKSZ         TRKLTH        WORD CONTAINING TRACK LENGTH.
                       00660  RBFLTH EQU     TRKLTH        READ BUFFER LENGTH.
                       00330  WBFLTH EQU     TRKLTH/2      WRITE BUFFER LENGTH.
      00314  0 00000 0 00660  RBFSZ          RBFLTH        WORD CONTAINING READ BUFFER SIZE.
      00315  0 00000 0 00330  WBFSZ          WBFLTH        WORD CONTAINING WRITE BUFFER SIZE.
                              *
                                     END

        LITERALS
      00316  000000000000
      00317  000000000001
      00320  000000000002
      00321  400000000000
      00322  516060606060
      00323  602631432560
      00324  666060606060
1            BUFFER CONTROL ROUTINE FOR DISK INPUT AND OUTPUT.                                   PAGE 1
                        POST PROCESSOR ASSEMBLY DATA

        325 IS THE FIRST LOCATION NOT USED BY THIS PROGRAM

0REFERENCES TO DEFINED SYMBOLS
        122    CL4   100
        240    ECM   233
        265    EOF   220,  260
        107    FWR   105
        155    NOP   137
         43    OPN    37,  142
         22    OSW    34
        312   EOFR   212,  244,  265
        100   FILE     0
         62   FULL
        156   MODE    47,  136
        117   NOWR   103
        127   OEXH    51
          5   OPEN    43,  203
         40   OPOK    35
         41   OPX4    21
        160   SEEK     0
        165   SKSW   172
        222   SKX4   164,  210,  236
        124   WEXH    74,  116
         60   WRNM    30
        143   WRTN    36,   64,  106
         10  CLOSE   117,  124,  276
        257  ECALL   170,  271
        262  EMPGT   251
        263  EMPX4   247
        275  ENDRD     0,  273
        302  ENDX4   275
        311  EOFCT   221,  261,  266
         76  FULX4    62
        306  INNAM   161,  163,  177,  200,  205,  206,  214,  215,  231,  254,  255,  277,  300
        157  MODSW   130,  133,  225,  234
        224  NOTFN   202
         51  OPERR   140
        314  RBFSZ   166,  174
        310  RTEMP   246,  262
        313  TRKSZ    31
        315  WBFSZ    23,   27
         71  WCALL    25
         65  WRAGN    63
         74  WRERR   141
          3  WRFLX   131,  232
         15 ASSIGN     0
         55 BFCALL    33
         12 BUFFER    52
        113 CLCALL    26,  104
        274 EOFRTN   211,  252
        144 ERMESS   132
         11 FSTATE   176
          0 GETBUF    24,   32,  167
        264 GOBACK   243
1            BUFFER CONTROL ROUTINE FOR DISK INPUT AND OUTPUT.                                   PAGE 2
                        POST PROCESSOR ASSEMBLY DATA

        304 OUTNAM    16,   20,   45,   46,   53,   54,   66,   67,  110,  111,  120,  121,  125,  126
        660 RBFLTH   207,  217,  250,  257,  314
          7 RDWAIT   213,  253
        242 RDWORD     0,  175,  272
         77 RETURN    61
          1 SETBCD   127,  224
          2 SETFUL   134,  235
        217 STCALL   171,  173
        660 TRKLTH    55,  313,  314
        330 WBFLTH    40,   71,   75,  102,  314,  315
          4 WRFLXA   226,  230
          6 WRWAIT    65,  107
         57 WRWORD     0

0 NO ERROR IN ABOVE ASSEMBLY.
1            SUBROUTINES TO CONTROL CHARACTER PACKING AND UNPACKING.                             PAGE 1

                              *      INPUT AND OUTPUT IS LINE-MARKED FORMAT.
                              *      J. H. SALTZER, JANUARY, 1965
                              *
                       00010         ENTRY   WRITE         WRITE ONE LINE OUT.
                       00071         ENTRY   READ          TO READ NEXT LINE.
                       00167         ENTRY   BOTTOM        TO RAPIDLY MOVE TO BOTTOM OF FILE.
                       00062         ENTRY   CLOSEW        CLOSE OUT WRITE FILE.
                              *
                                     EXTERN  WRFLX,WRWORD,RDWORD,SETBCD,SETFUL,FILE
                              *

        TRANSFER VECTOR
      00000  665126436760     WRFLX
      00001  665166465124     WRWORD
      00002  512466465124     RDWORD
      00003  622563222324     SETBCD
      00004  622563266443     SETFUL
      00005  263143256060     FILE

            LINKAGE DIRECTOR
      00006  000000000000
      00007  665131632560

                       00014   NBITS EQU     12            COULD BE 6, 9, 12, OR 18.
                       00003   NCHRS EQU     36/NBITS      NO. OF CHARACTERS PER WORD ON 7094.
                              *
                              *      WRITE.(LINE, LENGTH)
                              *
      00010  0634 00 4 00056   WRITE SXA     WX4,4         SAVE LINKAGE AND REGISTERS.
      00011  0634 00 2 00057         SXA     WX2,2         ..
      00012  0634 00 1 00060         SXA     WX1,1         ..
      00013 -0500 00 4 00001         CAL     1,4           GET LINE ADDRESS.
      00014  0621 00 0 00035         STA     INLP          SET UP LOCATION OF INPUT.
      00015  0500 60 4 00002         CLA*    2,4           GET CHARACTER COUNT.
      00016  0100 00 4 00003         TZE     3,4           DON'T WORK ON ZERO COUNT.
      00017  0402 00 0 00200         SUB     =1            DISCARD CARRIAGE RETURN AT END.
      00020  0100 00 4 00003         TZE     3,4           ZERO SIZE LINES NOT ALLOWED, EITHER.
      00021  0767 00 0 00022         ALS     18            SET UP CHARACTER COUNT.
      00022  0622 00 0 00041         STD     ENDTST        NCHARS = CPW*NWORDS + EXTRAS
      00023  0361 00 0 00066         ACL     CPWL1         CWP*NWORDS + EXTRAS + CPW - 1
      00024  0131 00 0 00000         XCA                   (CPW*NWORDS + EXTRAS + CWP - 1)/CPW =
      00025 -0754 00 0 00000         ZAC                        NWORDS + (EXTRAS - 1 + CPW)/CPW
      00026  0221 00 0 00065         DVP     CPW           SECOND TERM IS 1 IF EXTRAS .G. 0,
      00027  0131 00 0 00000         XCA                                  0 IF EXTRAS .E. 0
      00030  0621 00 0 00067         STA     CWD           INSERT IN CONTROL WORD.
      00031  0074 00 4 00001         TSX     WRWORD,4      INSERT THIS WORD IN OUTPUT BUFFER.
 TD   00032  3 00000 0 00067         TXH     CWD           ..
      00033  0774 00 2 00001         AXT     1,2
      00034  0774 00 1 00003   OUTLP AXT     36/NBITS,1    SET CHARACTER COUNTER.
      00035  0560 00 2 00000   INLP  LDQ     --,2
      00036 -0773 00 0 00030         RQL     36-NBITS      SHIFT CHARACTER TO POSITION.
      00037 -0763 00 0 00014         LGL     NBITS         AND INTO WORD.
      00040  1 00001 2 00041         TXI     *+1,2,1       COUNT INPUT CHARACTERS.
      00041  3 00000 2 00052  ENDTST TXH     DONE,2,--     CHECK FOR END OF INPUT.
      00042  2 00001 1 00035         TIX     INLP,1,1
      00043  0602 00 0 00070         SLW     WDOUT         SAVE COMPLETED WORD.
1            SUBROUTINES TO CONTROL CHARACTER PACKING AND UNPACKING.                             PAGE 2

      00044  0074 00 4 00001   OUT   TSX     WRWORD,4      STORE COMPLETED WORD.
 TD   00045  3 00000 0 00070         TXH     WDOUT         ..
      00046  0020 00 0 00034         TRA     OUTLP         GO BACK FOR MORE.
                              *
      00047  0560 00 0 00063   NLLP  LDQ     NULL          FILL IN WORD WITH NULLS.
      00050 -0773 00 0 00030         RQL     36-NBITS      MOVE NULL TO POSITION.
      00051 -0763 00 0 00014         LGL     NBITS         SHIFT IN A NULL.
      00052  2 00001 1 00047   DONE  TIX     NLLP,1,1      COUNT SPACES LEFT.
      00053  0602 00 0 00070         SLW     WDOUT         STORE THIS WORD.
      00054  0074 00 4 00001         TSX     WRWORD,4      ADD TO OUTPUT BUFFER.
 TD   00055  3 00000 0 00070         TXH     WDOUT         ..
      00056  0774 00 4 00000   WX4   AXT     --,4          RESTORE LINKAGE, AND IRS.
      00057  0774 00 2 00000   WX2   AXT     --,2          ..
      00060  0774 00 1 00000   WX1   AXT     --,1
      00061  0020 00 4 00003         TRA     3,4           ..
                              *
      00062  0020 00 0 00005  CLOSEW TRA     FILE          REFLECT CLOSE CALL TO BUFFER.
                              *
                              *
      00063 +000000000057      NULL  OCT     0057          NULL CHARACTER.
      00064 +000000000055     RETURN OCT     0055          CARRIAGE RETURN CHARACTER.
      00065  0 00003 0 00000   CPW           ,,NCHRS       NUMBER OF CHARACTERS PER WORD.
      00066  0 00002 0 00000   CPWL1         ,,NCHRS-1     CHARACTERS PER WORD LESS ONE.
                              *
      00067 -377777000000      CWD   OCT     777777000000
      00070  0 00000 0 00000   WDOUT                       STORAGE FOR WORD BEING OUTPUT.
                              *
                              *      LENGTH = READ.(LINE, BUFSIZ, EOF)
                              *
      00071  0634 00 1 00137   READ  SXA     RX1,1         READ NEXT LINE.
      00072  0634 00 2 00136         SXA     RX2,2
      00073  0634 00 4 00134         SXA     RX4,4
      00074  0634 00 3 00135         SXA     RX3,3
      00075 -0500 00 4 00001         CAL     1,4           GET LOCATION OF BUFFER.
      00076  0621 00 0 00124         STA     RPUT
      00077 -0500 60 4 00002         CAL*    2,4           SET UP END TEST.
      00100  0402 00 0 00200         SUB     =1
      00101  0767 00 0 00022         ALS     18            ..
      00102  0622 00 0 00125         STD     BUFTST        ..
      00103  0074 00 4 00002   RDAGN TSX     RDWORD,4      GET CONTROL WORD.
      00104  0 00000 0 00141                 EOF           IN CASE WE ARE AT END OF FILE.
      00105 -0734 00 1 00000         PDX     0,1           PUT FLAG IN IR1.
      00106  0734 00 3 00000         PAX     0,3           PUT COUNT IN IR3.
      00107 -2 77776 1 00146         TNX     WOOPS,1,-2    CHECK FLAG.
      00110 -3 00000 3 00103         TXL     RDAGN,3,0     IGNORE ZERO-LENGTH LINE.
      00111  0774 00 2 00000   RDON  AXT     0,2           SET OUTPUT COUNTER.
      00112  0074 00 4 00002  ROUTLP TSX     RDWORD,4      READ A WORD.
      00113  0 00000 0 00141                 EOF           ..
      00114  0774 00 1 00003         AXT     36/NBITS,1    SET CHARACTER COUNTER.
      00115  0131 00 0 00000         XCA                   WORD TO MQ.
      00116 -0754 00 0 00000   RINLP ZAC                   CLEAR AC.
      00117 -0763 00 0 00014         LGL     NBITS         GET NEXT CHARACTER.
      00120 -0340 00 0 00063         LAS     NULL          IS THIS A NULL CHARACTER.
      00121  0020 00 0 00123         TRA     *+2           NO.
      00122  0020 00 0 00126         TRA     RCH           YES, SKIP IT.
      00123  1 00001 2 00124         TXI     *+1,2,1       COUNT STORAGE SPACES.
1            SUBROUTINES TO CONTROL CHARACTER PACKING AND UNPACKING.                             PAGE 3

      00124  0602 00 2 00000   RPUT  SLW     --,2          STORE CHARACTER IN LINE.
      00125  3 00000 2 00133  BUFTST TXH     PXA,2,--      TEST FOR FULL BUFFER.
      00126  2 00001 1 00116   RCH   TIX     RINLP,1,1     INDEX, AND COUNT CHARACTERS.
      00127  2 00001 3 00112         TIX     ROUTLP,3,1    INDEX, AND COUNT WORDS.
      00130 -0500 00 0 00064         CAL     RETURN        PUT RETURN AT END OF LINE.
      00131  1 00001 2 00132         TXI     *+1,2,1       INCLUDE IN COUNT.
      00132  0522 00 0 00124         XEC     RPUT          INSTALL IT.
      00133  0754 00 2 00000   PXA   PXA     0,2           GET WORD COUNT.
      00134  0774 00 4 00000   RX4   AXT     --,4
      00135  0774 00 3 00000   RX3   AXT     --,3
      00136  0774 00 2 00000   RX2   AXT     --,2
      00137  0774 00 1 00000   RX1   AXT     --,1
      00140  0020 00 4 00004         TRA     4,4
                              *
      00141  0534 00 4 00134   EOF   LXA     RX4,4         END OF FILE REACHED, TAKE ERROR
      00142  0534 00 3 00135         LXA     RX3,3         RETURN.
      00143  0534 00 2 00136         LXA     RX2,2
      00144  0534 00 1 00137         LXA     RX1,1
      00145  0020 60 4 00003         TRA*    3,4
                              *
                              *
      00146  0074 00 4 00003   WOOPS TSX     SETBCD,4      FILE IS NOT LINE-MARKED PROPERLY, COMPLAIN.
      00147  0074 00 4 00000         TSX     WRFLX,4
      00150  0 00006 0 00161                 MESS1,,6
      00151  0074 00 4 00004         TSX     SETFUL,4      RESTORE INDICATOR.
      00152  0074 00 4 00002   LP    TSX     RDWORD,4      SEARCH FOR NEXT LINE MARK.
      00153  0 00000 0 00141                 EOF
      00154 -0734 00 1 00000         PDX     0,1           CHECK FOR LINE MARK IN THIS WORD.
      00155 -2 77776 1 00152         TNX     LP,1,-2       ..
      00156  0734 00 3 00000         PAX     0,3           LINE MARK OK, CHECK COUNT.
      00157 -3 00000 1 00152         TXL     LP,1,0        ..
      00160  0020 00 0 00111         TRA     RDON          COUNT NON-ZERO, READ ON.
                              *
      00161  314547646360      MESS1 BCI     6,INPUT FILE HAS IMPROPER FORMAT.
      00162  263143256030
      00163  216260314447
      00164  514647255160
      00165  264651442163
      00166  336060606060
                              *
                              *      ROUTINE TO SWING TO BOTTOM OF FILE.
                              *
      00167  0634 00 4 00176  BOTTOM SXA     EOFB,4        SAVE LINKAGE.
      00170  0074 00 4 00002   LOOP  TSX     RDWORD,4      GET NEXT INPUT WORD.
      00171  0 00000 0 00176                 EOFB          EXIT ON END OF FILE.
      00172  0601 00 0 00070         STO     WDOUT         SAVE THIS WORD.
      00173  0074 00 4 00001         TSX     WRWORD,4      WRITE OUT THIS WORD.
 TD   00174  3 00000 0 00070         TXH     WDOUT         ..
      00175  0020 00 0 00170         TRA     LOOP          REPEAT.
                              *
      00176  0774 00 4 00000  EOFB   AXT     --,4          RESTORE LINKAGE.
      00177  0020 00 4 00001         TRA     1,4           RETURN.
                              *
                                     END
1            SUBROUTINES TO CONTROL CHARACTER PACKING AND UNPACKING.                             PAGE 4

        LITERALS
      00200  000000000001
1            SUBROUTINES TO CONTROL CHARACTER PACKING AND UNPACKING.                             PAGE 1
                        POST PROCESSOR ASSEMBLY DATA

        201 IS THE FIRST LOCATION NOT USED BY THIS PROGRAM

0REFERENCES TO DEFINED SYMBOLS
        152     LP   155,  157
         65    CPW    26
         67    CWD    30,   32
        141    EOF   104,  113,  153
         44    OUT
        133    PXA   125
        126    RCH   122
        137    RX1    71,  144
        136    RX2    72,  143
        135    RX3    74,  142
        134    RX4    73,  141
         60    WX1    12
         57    WX2    11
         56    WX4    10
         52   DONE    41
        176   EOFB   167,  171
          5   FILE    62
         35   INLP    14,   42
        170   LOOP   175
         47   NLLP    52
         63   NULL    47,  120
        111   RDON   160
         71   READ     0
        124   RPUT    76,  132
         66  CPWL1    23
        161  MESS1   150
         14  NBITS    10,   34,   36,   37,   50,   51,  114,  117
          3  NCHRS    10,   65,   66
         34  OUTLP    46
        103  RDAGN   110
        116  RINLP   126
         70  WDOUT    43,   45,   53,   55,  172,  174
        146  WOOPS   107
          0  WRFLX   147
         10  WRITE     0
        167 BOTTOM     0
        125 BUFTST   102
         62 CLOSEW     0
         41 ENDTST    22
          2 RDWORD   103,  112,  152,  170
         64 RETURN   130
        112 ROUTLP   127
          3 SETBCD   146
          4 SETFUL   151
          1 WRWORD    31,   44,   54,  173

0 NO ERROR IN ABOVE ASSEMBLY.
1            SUBROUTINE TO CONVERT BCD NUMBER TO BINARY.                                         PAGE 1

                              *
                              *        J. H. SALTZER, MAY, 1966.
                       00002         ENTRY   BIN           CONVERTER.

            LINKAGE DIRECTOR
      00000  000000000000
      00001  223145606060

      00002  0634 00 1 00024   BIN   SXA     IRR1,1
      00003  0600 00 0 00027         STZ     INT           CLEAR RESULT.
      00004  0774 00 1 00006         AXT     6,1
      00005  0560 60 4 00001         LDQ*    1,4           GET ARGUMENT.
      00006 -0754 00 0 00000  LOP    ZAC
      00007 -0763 00 0 00006         LGL     6             GET NEXT CHARACTER.
      00010 -0340 00 0 00032         LAS     =10           SKIP OVER NON-DIGITS.
      00011  0020 00 0 00023         TRA     TIX
      00012  0020 00 0 00023         TRA     TIX
      00013  0601 00 0 00030         STO     DIG           NUMBER, SAVE DIGIT.
      00014 -0600 00 0 00031         STQ     TEM           SAVE MQ FOR MULTIPLIACATION.
      00015  0560 00 0 00027         LDQ     INT           GET OLD NUMBER.
      00016  0200 00 0 00032         MPY     =10           SHIFT.
      00017  0131 00 0 00000         XCA
      00020  0400 00 0 00030         ADD     DIG           ADD THIS DIGIT TO RESULT.
      00021  0601 00 0 00027         STO     INT           SAVE, FOR NEXT PASS.
      00022  0560 00 0 00031         LDQ     TEM           RESTORE MQ.
      00023  2 00001 1 00006  TIX    TIX     LOP,1,1
      00024  0774 00 1 00000   IRR1  AXT     --,1
      00025  0500 00 0 00027         CLA     INT           RESULT IN AC.
      00026  0020 00 4 00002         TRA     2,4
                              *
      00027  0 00000 0 00000   INT
      00030  0 00000 0 00000   DIG
      00031  0 00000 0 00000   TEM
                              *
                                     END

        LITERALS
      00032  000000000012
1            SUBROUTINE TO CONVERT BCD NUMBER TO BINARY.                                         PAGE 1
                        POST PROCESSOR ASSEMBLY DATA

         33 IS THE FIRST LOCATION NOT USED BY THIS PROGRAM

0REFERENCES TO DEFINED SYMBOLS
          2    BIN     0
         30    DIG    13,   20
         27    INT     3,   15,   21,   25
          6    LOP    23
         31    TEM    14,   22
         23    TIX    11,   12
         24   IRR1     2

0 NO ERROR IN ABOVE ASSEMBLY.
1            INTERFACE TO PROVIDE EXTENDED MEMORY ARRAY.                                         PAGE 1

                              *      J. H. SALTZER, JANUARY, 1965.
                              *
                       00004         ENTRY FRAME
                       00017         ENTRY PRPIX
                       00022         ENTRY   RSMEM
                              *

        TRANSFER VECTOR
      00000  265121442501     FRAME1
      00001  475147316701     PRPIX1

            LINKAGE DIRECTOR
      00002  000000000000
      00003  265121442560

      00004  0634 00 4 00015   FRAME SXA     FRX4,4        SAVE RETURN.
      00005  0074 00 4 00030         TSX     GETMEM,4      GET LOCATION OF ARRAY.
      00006  0621 00 0 00034         STA     SAVMEM        SAVE FOR RESET ROUTINE.
      00007  0361 00 0 00035         ACL     =5401
      00010  0621 00 0 00013         STA     CAL1          SET UP CALLING SEQUENCE.
      00011  0074 00 4 00027         TSX     SETMEM,4      MOVE BOUND.
      00012  0074 00 4 00000   CAL0  TSX     $FRAME1,4     GO TO MAD.
      00013  3 00033 0 00000  CAL1   TXH     --,,DIM
 TD   00014  3 00000 0 00033         TXH     DIM           SO IT CAN BE CHANGED.
      00015  0774 00 4 00000   FRX4  AXT     --,4
      00016  0020 00 4 00001         TRA     1,4           RETURN TO CALLER WITH AC.
                              *
      00017  0634 00 4 00015   PRPIX SXA     FRX4,4        SAVE RETURN.
      00020 -0774 00 4 00012         AXC     CAL0,4        SET UP CALLING SEQUENCE.
      00021  0020 00 0 00001         TRA     $PRPIX1       BUT CALL DIFFERENT ENTRY.
                              *
      00022  0634 00 4 00025   RSMEM SXA     RSX4,4        SAVE RETURN.
      00023 -0500 00 0 00034         CAL     SAVMEM          RESET MEMORY BOUND.
      00024  0074 00 4 00027         TSX     SETMEM,4
      00025  0774 00 4 00000   RSX4  AXT     --,4
      00026  0020 00 4 00001         TRA     1,4
                              *
      00027  0101 00 0 00037  SETMEM TIA     =HSETMEM
      00030  0101 00 0 00036  GETMEM TIA     =HGETMEM
                              *
      00031  0 00000 0 00000                 --
      00032 +000000000001            DEC     1             BASE
      00033 +000000000002            DEC     2             DIMENSIONS.
                       00033   DIM   SYN     *-1           DIMENSION VECTOR.
      00034  0 00000 0 00000  SAVMEM
                              *
                              *
                                     END

        LITERALS
      00035  000000012431
      00036  272563442544
      00037  622563442544
1            INTERFACE TO PROVIDE EXTENDED MEMORY ARRAY.                                         PAGE 1
                        POST PROCESSOR ASSEMBLY DATA

         40 IS THE FIRST LOCATION NOT USED BY THIS PROGRAM

0REFERENCES TO DEFINED SYMBOLS
         33    DIM    13,   14,   34
         12   CAL0    20
         13   CAL1    10
         15   FRX4     4,   17
         25   RSX4    22
          4  FRAME     0
         17  PRPIX     0
         22  RSMEM     0
          0 FRAME1    12
         30 GETMEM     5
          1 PRPIX1    21
         34 SAVMEM     6,   23
         27 SETMEM    11,   24

0 NO ERROR IN ABOVE ASSEMBLY.
1            LIBRARY PACKAGE.                                                                    PAGE 1

                       00024         ENTRY   .PCOMT        PRINT COMMENT ROUTINE
                       00010         ENTRY   CHNCOM        GO DORMANT.
                       00005         ENTRY   EXIT          SAME.
                       00002         ENTRY   .SETUP        CALLED BY MAD MAIN PROGRA.
                       00013         ENTRY   COMARG        GET COMMAND ARGUMENT.
                       00106         ENTRY   WHOAMI
                       00066         ENTRY   SETBCD
                       00064         ENTRY   SETFUL
                       00065         ENTRY   SETBRK
                       00061         ENTRY   WRFLXA
                       00063         ENTRY   WRFLX
                       00062         ENTRY   RDFLXA
                       00067         ENTRY   UPDATE        UPDATE U.F.D.
                       00070         ENTRY   CHFILE
                       00071         ENTRY   DELFIL
                       00072         ENTRY   FSTATE
                       00073         ENTRY   BUFFER
                       00074         ENTRY   OPEN
                       00075         ENTRY   WRWAIT
                       00076         ENTRY   WRFILE
                       00077         ENTRY   RDWAIT
                       00100         ENTRY   RDFILE
                       00101         ENTRY   CLOSE
                       00043         ENTRY   GETBUF        OBTAIN BUFFERS FROM SUPERVISOR.
                              *

            LINKAGE DIRECTOR
      00000  000000000000
      00001  334723464463

      00002  0760 00 0 00016  .SETUP LMTM                  USE SEVEN TAG MODE.
      00003  0774 00 6 00000         AXT     0,6           SET UP IR6 TO AVOID EARLY CALL TO READ.
      00004  0020 00 0 00064         TRA     SETFUL        USE FULL MODE.  SETFUL RETURNS 1,4.
                              *
      00005  0074 00 4 00066  EXIT   TSX     SETBCD,4      CLEANUP, RESET MODE.
      00006  0074 00 4 00063         TSX     WRFLX,4       PUT OUT A STAR FOR RUNCOMS.
      00007  0 00001 0 00060                 STAR,,1       AND THEN PERFORM CHNCOM SEQUENCE.
      00010  0074 00 4 00102  CHNCOM TSX     CHN,4         THIS CHNCOM ALWAYS GOES DEAD,
 TD   00011  3 00000 0 00107         TXH     =0            IF NO CHAIN EXISTS.
      00012  0020 00 0 00010         TRA     *-2           IN CASE OF RESTART, DON'T.
                              *
      00013  0634 00 4 00022  COMARG SXA     CM4,4         GET COMMAND ARGUMENT FOR MAD.
      00014 -0500 60 4 00001         CAL*    1,4           GET ARGUMENT NUMBER.
      00015  0602 00 0 00017         SLW     ARG           GIVE ARGUMENT NUMBER.
      00016  0074 00 4 00103         TSX     GETCOM,4      GET COMMAND ARGUMENT.
      00017  0 00000 0 00000   ARG                         ..
      00020  0602 00 0 00017         SLW     ARG           MOVE TO ARITHMETIC AC.
      00021  0500 00 0 00017         CLA     ARG           ..
      00022  0774 00 4 00000   CM4   AXT     --,4          RESTORE LINKAGE.
      00023  0020 00 4 00002         TRA     2,4           RETURN TO CALLER.
                              *
      00024 -0500 00 4 00001  .PCOMT CAL     1,4           GET WORD COUNT.
      00025  0621 00 0 00042         STA     RETURN        ON RETURN, JUMP BUFFER.
      00026  0767 00 0 00022         ALS     18            SETUP COUNT.
      00027  0622 00 0 00036         STD     PCNT          ..
      00030  1 77776 4 00031         TXI     *+1,4,-2      SETUP UP BUFFER ADDRESS.
1            LIBRARY PACKAGE.                                                                    PAGE 2

      00031  0636 00 4 00036         SCA     PCNT,4        SAVE BUFFER ADDRESS, AND LINKAGE.
      00032  0074 00 4 00064         TSX     SETFUL,4      MAKE SURE MODE SET AND NO LINES COMING IN.
      00033  0074 00 4 00061         TSX     WRFLXA,4      SWITCH TO RED SHIFT.
      00034  0 00001 0 00056                 REDS,,1       ..
      00035  0074 00 4 00063         TSX     WRFLX,4       PRINT LINE.
      00036  0 00000 0 00000   PCNT          --,,--        ..
      00037  0074 00 4 00061         TSX     WRFLXA,4      SHIFT BACK TO BLACK.
      00040  0 00001 0 00057                 BLCKS,,1      ..
      00041  0535 00 4 00036         LAC     PCNT,4        RESTORE LINKAGE.
      00042  0020 00 4 00000  RETURN TRA     --,4          RETURN TO CALLER.
                              *
      00043  0634 00 4 00052  GETBUF SXA     GX4,4         ENTRY TO GET BUFFERS.
      00044  0602 00 0 00055         SLW     BUFSIZ        SIZE OF BUFFER IN AC.
      00045  0074 00 4 00104         TSX     GETMEM,4      GET PRESENT BOUND.
      00046  0601 00 0 00054         STO     START         SAVE AS BUFFER START.
      00047  0361 00 0 00055         ACL     BUFSIZ        FORM NEW BOUND.
      00050  0074 00 4 00105         TSX     SETMEM,4      ASK FOR MORE.
      00051 -0500 00 0 00054         CAL     START         GIVE CALLER LOCATION OF
      00052  0774 00 4 00000   GX4   AXT     --,4          HIS NEW BUFFER.
      00053  0020 00 4 00001         TRA     1,4           RETURN.
                              *
      00054  0 00000 0 00000   START                       STORAGE FOR BUFFER LOCATION.
      00055  0 00000 0 00000  BUFSIZ                       STORAGE FOR BUFFER SIZE.
                              *
      00056 +013300570057      REDS  OCT     013300570057  RED SHIFT AND TWO NULLS.
      00057 +013200570057      BLCKS OCT     013200570057  BLACK SHIFT AND TWO NULLS.
      00060 -145757575757     STAR   OCT     545757575757  ASTERISK AND 5 NULLS.
                              *
                              *              SUPERVISOR SUBROUTINE CALLERS.
                              *
      00061  0101 00 0 00133  WRFLXA TIA     =HWRFLXA
      00062  0101 00 0 00122  RDFLXA TIA     =HRDFLXA
      00063  0101 00 0 00134  WRFLX  TIA     =HWRFLX
      00064  0101 00 0 00126  SETFUL TIA     =HSETFUL
      00065  0101 00 0 00125  SETBRK TIA     =HSETBRK
      00066  0101 00 0 00124  SETBCD TIA     =HSETBCD
      00067  0101 00 0 00130  UPDATE TIA     =HUPDATE
      00070  0101 00 0 00111  CHFILE TIA     =HCHFILE
      00071  0101 00 0 00114  DELFIL TIA     =HDELFIL
      00072  0101 00 0 00115  FSTATE TIA     =HFSTATE
      00073  0101 00 0 00110  BUFFER TIA     =HBUFFER
      00074  0101 00 0 00120  OPEN   TIA     =HOPEN
      00075  0101 00 0 00135  WRWAIT TIA     =HWRWAIT
      00076  0101 00 0 00132  WRFILE TIA     =HWRFILE
      00077  0101 00 0 00123  RDWAIT TIA     =HRDWAIT
      00100  0101 00 0 00121  RDFILE TIA     =HRDFILE
      00101  0101 00 0 00113  CLOSE  TIA     =HCLOSE
      00102  0101 00 0 00112  CHN    TIA     =HCHNCOM
      00103  0101 00 0 00116  GETCOM TIA     =HGETCOM
      00104  0101 00 0 00117  GETMEM TIA     =HGETMEM
      00105  0101 00 0 00127  SETMEM TIA     =HSETMEM
      00106  0101 00 0 00131  WHOAMI TIA     =HWHOAMI
                              *
                                     END
1            LIBRARY PACKAGE.                                                                    PAGE 3

        LITERALS
      00107  000000000000
      00110  226426262551
      00111  233026314325
      00112  233045234644
      00113  234346622560
      00114  242543263143
      00115  266263216325
      00116  272563234644
      00117  272563442544
      00120  464725456060
      00121  512426314325
      00122  512426436721
      00123  512466213163
      00124  622563222324
      00125  622563225142
      00126  622563266443
      00127  622563442544
      00130  644724216325
      00131  663046214431
      00132  665126314325
      00133  665126436721
      00134  665126436760
      00135  665166213163
1            LIBRARY PACKAGE.                                                                    PAGE 1
                        POST PROCESSOR ASSEMBLY DATA

        136 IS THE FIRST LOCATION NOT USED BY THIS PROGRAM

0REFERENCES TO DEFINED SYMBOLS
         17    ARG    15,   20,   21
        102    CHN    10
         22    CM4    13
         52    GX4    43
          5   EXIT     0
         74   OPEN     0
         36   PCNT    27,   31,   41
         56   REDS    34
         60   STAR     7
         57  BLCKS    40
        101  CLOSE     0
         54  START    46,   51
         63  WRFLX     0,    6,   35
         73 BUFFER     0
         55 BUFSIZ    44,   47
         70 CHFILE     0
         10 CHNCOM     0
         13 COMARG     0
         71 DELFIL     0
         72 FSTATE     0
         43 GETBUF     0
        103 GETCOM    16
        104 GETMEM    45
         24 .PCOMT     0
          2 .SETUP     0
        100 RDFILE     0
         62 RDFLXA     0
         77 RDWAIT     0
         42 RETURN    25
         66 SETBCD     0,    5
         65 SETBRK     0
         64 SETFUL     0,    4,   32
        105 SETMEM    50
         67 UPDATE     0
        106 WHOAMI     0
         76 WRFILE     0
         61 WRFLXA     0,   33,   37
         75 WRWAIT     0

0 NO ERROR IN ABOVE ASSEMBLY.


    SD   BCD 09/18/68 2319.9    4724         00000
1       MAIN PROGRAM FOR SP OR SD COMMAND                                                        PAGE 1

                              *  WRITEEN BY ROGER ROACH  9-6-67

        TRANSFER VECTOR
      00000  263151626360     FIRST

      00001  0074 00 4 00000         TSX     $FIRST,4
      00002  0101 00 0 00003         TIA     =HDEAD        SHOULD NEVER RETURN
                                     END

        LITERALS
      00003  242521246060
1       MAIN PROGRAM FOR SP OR SD COMMAND                                                        PAGE 1
                        POST PROCESSOR ASSEMBLY DATA

          4 IS THE FIRST LOCATION NOT USED BY THIS PROGRAM

0REFERENCES TO DEFINED SYMBOLS
          0  FIRST     1

0 NO ERROR IN ABOVE ASSEMBLY.
1     MAD PROGRAM LISTING ... ... ...                 FILE   SD000   MAD            02/08/68    1318.1
-
       SD        ..ARGUMENT LIST SCANNING. CHECKS RIGHT FORMAT AND SELECT                              LM00001
                 ..APPROPRIATE SUBROUTINE                                                              LM00002
                 ..PAT=0 AT THE VERY BEGINNING OF THE COMMAND                                          LM00003
                                                                                                       LM00004
                  EXTERNAL FUNCTION                                                               *001 LM00005
                  ENTRY TO FIRST.                                                                 *002 LM00006
                  ENTRY TO SD.                                                                    *003 LM00007
                                                                                                       LM00008
                  THROUGH D,FOR ARG=1,1,ARG.G.4                                                   *004 LM00009
      E             K=K+1                                                                         *005 LM00010
                    ARG(ARG)=COMARG.(K)                                                           *006 LM00011
      D             WHENEVER ARG(ARG).E.$$,TRANSFER TO E                                          *007 LM00012
                                                                                                       LM00013
                  WHENEVER ARG(1).NE.FENCE,TRANSFER TO A                                          *008 LM00014
                  TRANSFER TO ERROR1                                                              *009 LM00015
                                                                                                       LM00016
                 ..PAT=1 WHEN IN THE TRACE MODE                                                        LM00017
                 ..PAT=2 WHEN STOMAP IS REQUESTED                                                      LM00018
                 ..PAT=5 WHEN ONE ABSOLUTE LOCATION REQUESTED                                          LM00019
                 ..PAT=6 WHEN PROGRAM NAME IS GIVEN                                                    LM00020
                                                                                                       LM00021
      A           WHENEVER ARG(2).NE.FENCE,TRANSFER TO B                                          *010 LM00022
      F           THROUGH F,FOR ENT=1,1,ENT.G.5.OR.ARG(1).E.ENT(ENT)                              *011 LM00023
                  WHENEVER ENT.LE.5,EXECUTE BRTIT.(ENTRY.,ENT)                                    *012 LM00024
                  WHENEVER ARG(1).E.STOM                                                          *013 LM00025
                    PAT=2                                                                         *014 LM00026
                    EXECUTE BRFIL.(STMAP., PAT)                                                   *015 LM00027
                  OR WHENEVER TOCT.(ARG(1)).E.1                                                   *016 LM00028
                    PAT=5                                                                         *017 LM00029
                    EXECUTE ABS.(PAT)                                                             *018 LM00030
                  OTHERWISE                                                                       *019 LM00031
                    PAT=6                                                                         *020 LM00032
                    EXECUTE BRFIL.(PROG.,PAT)                                                     *021 LM00033
                  END OF CONDITIONAL                                                              *022 LM00034
                                                                                                       LM00035
                 ..PAT=3 WHEN STOMAP REQUESTED FROM SPECIFIED ENTRY                                    LM00036
                 ..PAT=7 WHEN N ABSOLUTE LOCATIONS ARE REQUESTED                                       LM00037
                 ..PAT=8 WHEN ONE LOCATION IS REQUESTED IN A GIVEN PROGRAM                             LM00038
                                                                                                       LM00039
      B           WHENEVER ARG(3).NE.FENCE,TRANSFER TO C                                          *023 LM00040
                  WHENEVER ARG(1).E.STOM                                                          *024 LM00041
                    PAT=3                                                                         *025 LM00042
                    EXECUTE BRFIL.(STMAP., PAT)                                                   *026 LM00043
                  OR WHENEVER ARG(2).E.TRAC                                                       *027 LM00044
                    PAT=1                                                                         *028 LM00045
                    EXECUTE PRNTP.(MESS2)                                                         *029 LM00046
                    EXECUTE CHNCOM.(0)                                                            *030 LM00047
                  OR WHENEVER TOCT.(ARG(1)).E.1                                                   *031 LM00048
                    PAT=7                                                                         *032 LM00049
                    EXECUTE ABS.(PAT)                                                             *033 LM00050
                  OR WHENEVER TOCT.(ARG(2)).E.1                                                   *034 LM00051
                    PAT=8                                                                         *035 LM00052
                    EXECUTE BRFIL.(PROG.,PAT)                                                     *036 LM00053
                  OTHERWISE                                                                       *037 LM00054
                    TRANSFER TO ERROR1                                                            *038 LM00055
                  END OF CONDITIONAL                                                              *039 LM00056
                                                                                                       LM00057
                                                                                                       LM00058
                 ..PAT=9 WHEN N LOCATIONS ARE REQUESTED IN A GIVEN PROGRAM                             LM00059
                                                                                                       LM00060
      C           WHENEVER ARG(4).NE.FENCE                                                        *040 LM00061
                    TRANSFER TO ERROR1                                                            *041 LM00062
                  OR WHENEVER TOCT.(ARG(2)).E.1                                                   *042 LM00063
                    PAT=9                                                                         *043 LM00064
                    EXECUTE BRFIL.(PROG.,PAT)                                                     *044 LM00065
                  OTHERWISE                                                                       *045 LM00066
                    TRANSFER TO ERROR1                                                            *046 LM00067
                  END OF CONDITIONAL                                                              *047 LM00068
                                                                                                       LM00069
      ERROR1      EXECUTE PRNTP.(MESS1)                                                           *048 LM00070
                  EXECUTE CHNCOM.(0)                                                              *049 LM00071
                                                                                                       LM00072
                  NORMAL MODE IS INTEGER                                                          *050 LM00073
                  PROGRAM COMMON ARG                                                              *051 LM00074
                  DIMENSION ARG(4)                                                                *052 LM00075
                                                                                                       LM00076
                  VECTOR VALUES  FENCE=777777777777K                                              *053 LM00077
                  VECTOR VALUES ENT(1)=$COMORGCOMLNGFRSTPTPRGLNGLDNAME$                           *054 LM00078
                  VECTOR VALUES STOM=$STOMAP$                                                     *055 LM00079
                  VECTOR VALUES PAT=0                                                             *056 LM00080
                  VECTOR VALUES K=0                                                               *057 LM00081
                  VECTOR VALUES TRAC=$ TRACE$                                                     *058 LM00082
                  VECTOR VALUES MESS1=$INCORRECT FORMAT$,777777777777K                            *059 LM00083
                  VECTOR VALUES MESS2=$OPTION NOT AVAILABLE$,777777777777K                        *060 LM00084
                  END OF FUNCTION                                                                 *061 LM00085
1MAD PROGRAM,TYPE NOV 1963      (ALL NUMBERS ARE OCTAL)
0TOTAL LOCATIONS   00316 TRANSFER VECTOR LENGTH  00013 PROGRAM BEGINS    00061 FIRST UNUSED COMMON/ERASABLE  77454
0 PROGRAM IS AN EXTERNAL FUNCTION.   THE FOLLOWING ARE ENTRIES
      SD     00065   0        FIRST  00062   0
0VARIABLE STORAGE (A=ARRAY,C=COMMON,E=ERASABLE,DIGIT=MODE)
      ARG    77461 AC1        D      00013   4        E      00020   4        K      00030 A 1        PAT    00042 A 1
      A      00014   4        ENT    00026 A 1        FENCE  00027 A 1        MESS1  00034 A 1        STOM   00043 A 1
      B      00015   4        ERROR1 00017   4        F      00013   4        MESS2  00041 A 1        TRAC   00044 A 1
      C      00016   4
0FUNCTION DICTIONARY
      ABS    00000   1        BRFIL  00001   1        BRTIT  00002   1        CHNCOM 00003   1        COMARG 00004   1
      ENTRY  00005   1        EXIT   00006   1        PRNTP  00007   1        PROG   00010   1        STMAP  00011   1
      TOCT   00012   1
0ABSOLUTE CONSTANTS
 00056 +000000000011     00055 +000000000010     00054 +000000000007     00045 +000000000000     00050 +000000000003
 00053 +000000000006     00047 +000000000002     00052 +000000000005     00060 -206060606060     00051 +000000000004
 00046 +000000000001     00057 +233000000000
0STATEMENT DICTIONARY
 00014 TXL -300127000123       00015 TXL -300210000204       00016 TXL -300262000257       00017 TXL -300301000277
 00020 TXL -300104000101
0PROGRAM
                 EXTERNAL FUNCTION                                                  001  LM00005
                 ENTRY TO FIRST.                                                    002  LM00006
 00061 TRA +0 02000 0 00064    00062 SXA +0 63400 2 00304    00063 TSX +0 07400 2 00304
                 ENTRY TO SD.                                                       003  LM00007
 00064 TRA +0 02000 0 00067    00065 SXA +0 63400 2 00304    00066 TSX +0 07400 2 00304
                 THROUGH D,FOR ARG=1,1,ARG.G.4                                      004  LM00009
 00067 CLA +0 50000 0 00046    00070 STO +0 60100 0 77461    00071 TRA +0 02000 0 00075    00072 CLA +0 50000 0 77461
 00073 ADD +0 40000 0 00046    00074 STO +0 60100 0 77461    00075 CLA +0 50000 0 77461    00076 SUB +0 40200 0 00051
 00077 TZE +0 10000 0 00101    00100 TPL +0 12000 0 00116
      E            K=K+1                                                            005  LM00010
 00101 CLA +0 50000 0 00030    00102 ADD +0 40000 0 00046    00103 STO +0 60100 0 00030
                   ARG(ARG)=COMARG.(K)                                              006  LM00011
 00104 TSX +0 07400 4 00004    00105 TXH +3 00000 0 00030    00106 LXA +0 53400 1 77461    00107 STO +0 60100 1 77461
      D            WHENEVER ARG(ARG).E.$$,TRANSFER TO E                             007  LM00012
 00110 LXA +0 53400 1 77461    00111 CLA +0 50000 1 77461    00112 SUB +0 40200 0 00060    00113 TNZ -0 10000 0 00115
 00114 TRA +0 02000 0 00020    00115 TRA +0 02000 0 00072
                 WHENEVER ARG(1).NE.FENCE,TRANSFER TO A                             008  LM00014
 00116 CLA +0 50000 0 77460    00117 SUB +0 40200 0 00027    00120 TZE +0 10000 0 00122    00121 TRA +0 02000 0 00014
                 TRANSFER TO ERROR1                                                 009  LM00015
 00122 TRA +0 02000 0 00017
      A          WHENEVER ARG(2).NE.FENCE,TRANSFER TO B                             010  LM00022
 00123 CLA +0 50000 0 77457    00124 SUB +0 40200 0 00027    00125 TZE +0 10000 0 00127    00126 TRA +0 02000 0 00015
      F          THROUGH F,FOR ENT=1,1,ENT.G.5.OR.ARG(1).E.ENT(ENT)                 011  LM00023
 00127 CLA +0 50000 0 00046    00130 STO +0 60100 0 00026    00131 TRA +0 02000 0 00135    00132 CLA +0 50000 0 00026
 00133 ADD +0 40000 0 00046    00134 STO +0 60100 0 00026    00135 LXA +0 53400 2 00026    00136 CLA +0 50000 0 77460
 00137 SUB +0 40200 2 00026    00140 TZE +0 10000 0 00146    00141 CLA +0 50000 0 00026    00142 SUB +0 40200 0 00052
 00143 TZE +0 10000 0 00145    00144 TPL +0 12000 0 00146    00145 TRA +0 02000 0 00132
                 WHENEVER ENT.LE.5,EXECUTE BRTIT.(ENTRY.,ENT)                       012  LM00024
 00146 CLA +0 50000 0 00026    00147 SUB +0 40200 0 00052    00150 TZE +0 10000 0 00152    00151 TPL +0 12000 0 00155
 00152 TSX +0 07400 4 00002    00153 TXH +3 00000 0 00005    00154 TXH +3 00000 0 00026
                 WHENEVER ARG(1).E.STOM                                             013  LM00025
 00155 CLA +0 50000 0 77460    00156 SUB +0 40200 0 00043    00157 TNZ -0 10000 0 00166
                   PAT=2                                                            014  LM00026
 00160 CLA +0 50000 0 00047    00161 STO +0 60100 0 00042
                   EXECUTE BRFIL.(STMAP., PAT)                                      015  LM00027
 00162 TSX +0 07400 4 00001    00163 TXH +3 00000 0 00011    00164 TXH +3 00000 0 00042
                 OR WHENEVER TOCT.(ARG(1)).E.1                                      016  LM00028
 00165 TRA +0 02000 0 00204    00166 TSX +0 07400 4 00012    00167 TXH +3 00000 0 77460    00170 SUB +0 40200 0 00046
 00171 TNZ -0 10000 0 00177
                   PAT=5                                                            017  LM00029
 00172 CLA +0 50000 0 00052    00173 STO +0 60100 0 00042
                   EXECUTE ABS.(PAT)                                                018  LM00030
 00174 TSX +0 07400 4 00000    00175 TXH +3 00000 0 00042
                 OTHERWISE                                                          019  LM00031
 00176 TRA +0 02000 0 00204
                   PAT=6                                                            020  LM00032
 00177 CLA +0 50000 0 00053    00200 STO +0 60100 0 00042
                   EXECUTE BRFIL.(PROG.,PAT)                                        021  LM00033
 00201 TSX +0 07400 4 00001    00202 TXH +3 00000 0 00010    00203 TXH +3 00000 0 00042
                 END OF CONDITIONAL                                                 022  LM00034
      B          WHENEVER ARG(3).NE.FENCE,TRANSFER TO C                             023  LM00040
 00204 CLA +0 50000 0 77456    00205 SUB +0 40200 0 00027    00206 TZE +0 10000 0 00210    00207 TRA +0 02000 0 00016
                 WHENEVER ARG(1).E.STOM                                             024  LM00041
 00210 CLA +0 50000 0 77460    00211 SUB +0 40200 0 00043    00212 TNZ -0 10000 0 00221
                   PAT=3                                                            025  LM00042
 00213 CLA +0 50000 0 00050    00214 STO +0 60100 0 00042
                   EXECUTE BRFIL.(STMAP., PAT)                                      026  LM00043
 00215 TSX +0 07400 4 00001    00216 TXH +3 00000 0 00011    00217 TXH +3 00000 0 00042
                 OR WHENEVER ARG(2).E.TRAC                                          027  LM00044
 00220 TRA +0 02000 0 00257    00221 CLA +0 50000 0 77457    00222 SUB +0 40200 0 00044    00223 TNZ -0 10000 0 00233
                   PAT=1                                                            028  LM00045
 00224 CLA +0 50000 0 00046    00225 STO +0 60100 0 00042
                   EXECUTE PRNTP.(MESS2)                                            029  LM00046
 00226 TSX +0 07400 4 00007    00227 TXH +3 00000 0 00041
                   EXECUTE CHNCOM.(0)                                               030  LM00047
 00230 TSX +0 07400 4 00003    00231 TXH +3 00000 0 00045
                 OR WHENEVER TOCT.(ARG(1)).E.1                                      031  LM00048
 00232 TRA +0 02000 0 00257    00233 TSX +0 07400 4 00012    00234 TXH +3 00000 0 77460    00235 SUB +0 40200 0 00046
 00236 TNZ -0 10000 0 00244
                   PAT=7                                                            032  LM00049
 00237 CLA +0 50000 0 00054    00240 STO +0 60100 0 00042
                   EXECUTE ABS.(PAT)                                                033  LM00050
 00241 TSX +0 07400 4 00000    00242 TXH +3 00000 0 00042
                 OR WHENEVER TOCT.(ARG(2)).E.1                                      034  LM00051
 00243 TRA +0 02000 0 00257    00244 TSX +0 07400 4 00012    00245 TXH +3 00000 0 77457    00246 SUB +0 40200 0 00046
 00247 TNZ -0 10000 0 00256
                   PAT=8                                                            035  LM00052
 00250 CLA +0 50000 0 00055    00251 STO +0 60100 0 00042
                   EXECUTE BRFIL.(PROG.,PAT)                                        036  LM00053
 00252 TSX +0 07400 4 00001    00253 TXH +3 00000 0 00010    00254 TXH +3 00000 0 00042
                 OTHERWISE                                                          037  LM00054
 00255 TRA +0 02000 0 00257
                   TRANSFER TO ERROR1                                               038  LM00055
 00256 TRA +0 02000 0 00017
                 END OF CONDITIONAL                                                 039  LM00056
      C          WHENEVER ARG(4).NE.FENCE                                           040  LM00061
 00257 CLA +0 50000 0 77455    00260 SUB +0 40200 0 00027    00261 TZE +0 10000 0 00264
                   TRANSFER TO ERROR1                                               041  LM00062
 00262 TRA +0 02000 0 00017
                 OR WHENEVER TOCT.(ARG(2)).E.1                                      042  LM00063
 00263 TRA +0 02000 0 00277    00264 TSX +0 07400 4 00012    00265 TXH +3 00000 0 77457    00266 SUB +0 40200 0 00046
 00267 TNZ -0 10000 0 00276
                   PAT=9                                                            043  LM00064
 00270 CLA +0 50000 0 00056    00271 STO +0 60100 0 00042
                   EXECUTE BRFIL.(PROG.,PAT)                                        044  LM00065
 00272 TSX +0 07400 4 00001    00273 TXH +3 00000 0 00010    00274 TXH +3 00000 0 00042
                 OTHERWISE                                                          045  LM00066
 00275 TRA +0 02000 0 00277
                   TRANSFER TO ERROR1                                               046  LM00067
 00276 TRA +0 02000 0 00017
                 END OF CONDITIONAL                                                 047  LM00068
      ERROR1     EXECUTE PRNTP.(MESS1)                                              048  LM00070
 00277 TSX +0 07400 4 00007    00300 TXH +3 00000 0 00034
                 EXECUTE CHNCOM.(0)                                                 049  LM00071
 00301 TSX +0 07400 4 00003    00302 TXH +3 00000 0 00045
                 NORMAL MODE IS INTEGER                                             050  LM00073
                 PROGRAM COMMON ARG                                                 051  LM00074
                 DIMENSION ARG(4)                                                   052  LM00075
                 VECTOR VALUES  FENCE=777777777777K                                 053  LM00077
 00027     -3 77777 7 77777
                 VECTOR VALUES ENT(1)=$COMORGCOMLNGFRSTPTPRGLNGLDNAME$              054  LM00078
 00021     -0 32445 2 14425    00022     -0 75127 4 34527    00023     +2 65162 6 34763    00024     +2 34644 4 34527
 00025     +2 34644 4 65127
                 VECTOR VALUES STOM=$STOMAP$                                        055  LM00079
 00043     -2 26346 4 42147
                 VECTOR VALUES PAT=0                                                056  LM00080
 00042     +0 00000 0 00000
                 VECTOR VALUES K=0                                                  057  LM00081
 00030     +0 00000 0 00000
                 VECTOR VALUES TRAC=$ TRACE$                                        058  LM00082
 00044     -2 06351 2 12325
                 VECTOR VALUES MESS1=$INCORRECT FORMAT$,777777777777K               059  LM00083
 00031     -3 77777 7 77777    00032     -1 14421 6 36060    00033     +2 52363 6 02646    00034     +3 14523 4 65151
                 VECTOR VALUES MESS2=$OPTION NOT AVAILABLE$,777777777777K           060  LM00084
 00035     -3 77777 7 77777    00036     -0 32560 6 06060    00037     -2 52131 4 32122    00040     -2 04546 6 36021
 00041     -0 64763 3 14645
                 END OF FUNCTION                                                    061  LM00085
 00303 TSX +0 07400 4 00006    00304 TXH +3 00000 0 00000    00305 SXD -0 63400 1 00304    00306 SXA +0 63400 4 00310
 00307 TRA +0 02000 2 00001    00310 AXT +0 77400 4 00000    00311 LXA +0 53400 2 00304    00312 LXD -0 53400 1 00304
 00313 TRA +0 02000 4 00001


 SDUMP   BCD 09/18/68 2320.0    8011         00000
1                                                                                                PAGE 1
                           SDUMP --- PRINT M.C./CONTENTS OF 'SAVED' FILE

                                     EXTERN  OTBC,DTBC,OCTDMP,BTOC

                              TYPE   MACRO   N,TEXT,LOC
                                     ...     WRFLX((LOC,,N))
                                     RMT
                              LOC    BCI     N,TEXT
                                     RMT
                              TYPE   END

 M                            ...    MACRO   NAME(LIST)
                                     TSX     NAME,4
                                     ARG     (LIST)
                              ...    END

                              ARG    MACRO   NAMES
                                     IRP     NAMES
                                     PAR     NAMES
                                     IRP
                              ARG    END

                              SYS    MACRO   NAMES
                                     IRP     NAMES
                              NAMES  TIA     =H'NAMES
                                     IRP
                              SYS    END

             3 00001 1 60000  PAR    OPSYN   PTH
             2 00017 1 60000  BLK    OPSYN   TIX


      00000  466322236060     OTBC
      00001  246322236060     DTBC
      00002  462363244447     OCTDMP
      00003  226346236060     BTOC

                       01750  BUFSIZ EQU     1000
                              *

      00004                          ...     SETBRK(ENDCPU)
      00006                          ...     FERRTN(TILT)
      00010                          ...     GETCOM(1)     GET 'SAVED' FILE NAME
      00012  0602 00 0 00362         SLW     FN            SAVE IT
      00013  0322 00 0 00533         ERA     =O777777777777
      00014  0100 00 0 00300         TZE     ENDCPU
      00015                          ...     GETCOM(2)
      00017 -0340 00 0 00533         LAS     =O777777777777  CHECK FOR NO STARTING LOCATION
      00020  0020 00 0 00022         TRA     *+2           .. SKIP FOR MEMORY REQUEST
      00021  0020 00 0 00132         TRA     CPU           .. NO STARTING LOC. TYPE OUT CPU
      00022 -0320 00 0 00504         ANA     =O0707070707  INSURE 5 OCTAL DIGITS
      00023 -0130 00 0 00000         XCL                   INTO MQ
      00024  0074 00 4 00000         TSX     $OTBC,4       CONVERT TO BINARY
      00025  0621 00 0 00124         STA     ORG           SAVE INITIAL LOCATION
      00026                          ...     GETCOM(3)     GET COUNT
      00030 -0320 00 0 00503         ANA     =O17171717    INSURE 4 DECIMAL DIGITS
      00031 -0130 00 0 00000         XCL                   INTO MQ
1                                                                                                PAGE 2
                           SDUMP --- PRINT M.C./CONTENTS OF 'SAVED' FILE

      00032  0074 00 4 00001         TSX     $DTBC,4       CONVERT COUNT TO BINARY
      00033  0734 00 4 00000         PAX     0,4           INTO IR4
      00034  3 01750 4 00037         TXH     RDMEM,4,BUFSIZ
      00035  0634 00 4 00367         SXA     COUNT1,4      SAVE COUNT
      00036 -0634 00 4 00125         SXD     COUNT2,4      ..
      00037                   RDMEM  ...     OPEN(=HR,FN,FN+1,MZ,MZ,NFND,ERRBUF)
      00047                          ...     RDWAIT(FN,FN+1,=0(MEMBND,,1)ERREOF,ERRBUF,ERREOF,ERRBUF)
      00060 -0500 00 0 00336         CAL     MEMBND        GET MEMBND,,MCLN
      00061  0771 00 0 00022         ARS     18            ..
      00062 -0320 00 0 00502         ANA     =O77777       ISOLATE LENGTH OF M.C.
      00063  0361 00 0 00477         ACL     =2
      00064  0361 00 0 00124         ACL     ORG
      00065  0601 00 0 00370         STO     RD.REL        (CAN BE .GE. 2 .P. 15)

      00066 -0500 00 0 00336         CAL     MEMBND
      00067 -0320 00 0 00502         ANA     =O77777
      00070  0340 00 0 00502         CAS     =O77777
      00071  0774 00 0 00000         AXT     0,0           (IMPOSSIBLE)
      00072  0361 00 0 00476         ACL     =1
      00073  0402 00 0 00124         SUB     ORG           CALCULATE COUNT
      00074  0100 00 0 00127         TZE     ERROR         (MEMBND IS ONE HIGHER THAN LAST LOCATION)
      00075 -0120 00 0 00127         TMI     ERROR         OUT OF BOUNDS
      00076  0340 00 0 00367         CAS     COUNT1
      00077  0020 00 0 00104         TRA     *+5
      00100  0020 00 0 00104         TRA     *+4
      00101  0621 00 0 00367         STA     COUNT1
      00102  0767 00 0 00022         ALS     18
      00103  0622 00 0 00125         STD     COUNT2

      00104                          ...     GETMEM()
      00105  0621 00 0 00115         STA     C2
      00106  0621 00 0 00125         STA     COUNT2
      00107  0361 00 0 00367         ACL     COUNT1
      00110                          ...     SETMEM()

      00111                          ...     RDFILE(FN,FN+1,RD.REL)
      00115  2 00367 0 00000  C2     BLK     **,,COUNT1
      00116                          ARG     (ERREOF,ERRBUF)

      00120                          ...     CLOSE(FN,FN+1)

      00123  0074 00 4 00002         TSX     $OCTDMP,4     DUMP USER CORE ON HIS CONSOLE
      00124  0 00000 0 00000  ORG            **            ..
      00125  0 01750 0 00000  COUNT2         **,,BUFSIZ    ..
      00126  0020 00 0 00300         TRA     ENDCPU        AND EXIT
                              *
                              *
      00127                   ERROR  TYPE    9,(REQUEST LOCATION NOT IN SAVED FILE.)
      00131  0020 00 0 00300         TRA     ENDCPU
                              *
      00132                   CPU    ...     OPEN(=HR,FN,FN+1,MZ,MZ,NFND,ERRBUF)
      00142                          ...     RDFILE(FN,FN+1,=0(MEMBND,,SLTS-MEMBND+1)ERREOF,ERRBUF)
      00151                          ...     CLOSE(FN,FN+1)
                              *
      00154                          ...     WRFLX(*)      PRINT ONE BLANK LINE
1                                                                                                PAGE 3
                           SDUMP --- PRINT M.C./CONTENTS OF 'SAVED' FILE

                              *
      00156 -0500 00 0 00337         CAL     ILC           SET UP ILC
      00157 -0765 00 0 00022         LGR     18
      00160  0074 00 4 00003         TSX     $BTOC,4
      00161  0767 00 0 00006         ALS     6
      00162 -0501 00 0 00501         ORA     =H00000,
      00163  0602 00 0 00404         SLW     CPU1+1
      00164  0500 00 0 00351         CLA     SQ            SET UP SIGN AND Q BITS
      00165  0767 00 0 00001         ALS     1
      00166  0560 00 0 00527         LDQ     =H S= 1,
      00167 -0120 00 0 00171         TMI     *+2
      00170  0560 00 0 00526         LDQ     =H S= 0,
      00171 -0600 00 0 00405         STQ     CPU1+2
      00172  0560 00 0 00525         LDQ     =H Q= 1,
      00173 -0760 00 0 00001         PBT
      00174  0560 00 0 00524         LDQ     =H Q= 0,
      00175 -0600 00 0 00406         STQ     CPU1+3
      00176  0560 00 0 00350         LDQ     LAC           SET UP LOGICAL AC
      00177  0074 00 4 00003         TSX     $BTOC,4
      00200  0602 00 0 00410         SLW     CPU1+5
      00201  0074 00 4 00003         TSX     $BTOC,4
      00202  0602 00 0 00411         SLW     CPU1+6
      00203  0560 00 0 00352         LDQ     MQ            SET UP MQ
      00204  0074 00 4 00003         TSX     $BTOC,4
      00205  0602 00 0 00413         SLW     CPU1+8
      00206  0074 00 4 00003         TSX     $BTOC,4
      00207  0602 00 0 00414         SLW     CPU1+9
      00210  0560 00 0 00353         LDQ     SI            SET UP SENSE INDICATORS
      00211  0074 00 4 00003         TSX     $BTOC,4
      00212  0602 00 0 00416         SLW     CPU1+11
      00213  0074 00 4 00003         TSX     $BTOC,4
      00214  0602 00 0 00417         SLW     CPU1+12
      00215                          ...     WRFLX((CPU1,,13))  TYPE FIRST LINE

                                     RMT
                              CPU1   BCI     7, ILC= 00000, S= 0, Q= 0, LAC= 000000000000
                                     BCI     6,, MQ= 000000000000, SI= 000000000000
                                     RMT

      00217 -0500 00 0 00514         CAL     =HOFF,        SET UP AC OVERFLOW
      00220  0520 00 0 00354         ZET     OV
      00221 -0500 00 0 00515         CAL     =HON,
      00222  0602 00 0 00421         SLW     CPU2+1
      00223 -0500 00 0 00514         CAL     =HOFF,        SET UP FLOATING TRAP MODE
      00224  0520 00 0 00356         ZET     FLMD
      00225 -0500 00 0 00515         CAL     =HON,
      00226  0602 00 0 00423         SLW     CPU2+3
      00227 -0500 00 0 00514         CAL     =HOFF,        SET UP MULTIPLE TAG MODE
      00230  0520 00 0 00355         ZET     MTMD
      00231 -0500 00 0 00515         CAL     =HON,
      00232  0602 00 0 00425         SLW     CPU2+5
      00233 -0500 00 0 00514         CAL     =HOFF,        SET UP DIVIDE CHECK
      00234  0520 00 0 00360         ZET     DVCK
      00235 -0500 00 0 00515         CAL     =HON,
      00236  0602 00 0 00427         SLW     CPU2+7
1                                                                                                PAGE 4
                           SDUMP --- PRINT M.C./CONTENTS OF 'SAVED' FILE

      00237 -0500 00 0 00336         CAL     MEMBND        SET UP USER MEMORY BOUND
      00240 -0765 00 0 00022         LGR     18
      00241  0074 00 4 00003         TSX     $BTOC,4
      00242 -0501 00 0 00523         ORA     =H 00000
      00243  0602 00 0 00432         SLW     CPU2+10
      00244                          ...     WRFLX((CPU2,,11))  .. SECOND LINE

                                     RMT
                              CPU2   BCI     6, ACOV XXXXXX FLMD XXXXXX MTMD XXXXXX
                                     BCI     5, DVCK XXXXXX     MEMBND= XXXXX
                                     RMT

      00246  0774 00 1 00016         AXT     14,1          SET UP INDEX REGISTERS
      00247  0774 00 2 00000         AXT     0,2
      00250 -0500 00 2 00346  IRS    CAL     IR1,2
      00251 -0765 00 0 00022         LGR     18
      00252  0074 00 4 00003         TSX     $BTOC,4
      00253  0767 00 0 00006         ALS     6
      00254 -0602 00 1 00452         ORS     CPU3+15,1
      00255 -2 00002 1 00257         TNX     *+2,1,2
      00256  1 00001 2 00250         TXI     IRS,2,1
      00257                          ...     WRFLX((CPU3,,14))  .. THIRD LINE

                                     RMT
                              CPU3   BCI     8, IR1= 00000, IR2= 00000, IR3= 00000, IR4= 00000,
                                     BCI     6, IR5= 00000, IR6= 00000, IR7= 00000.
                                     RMT

      00261  0774 00 1 00016         AXT     14,1
      00262  0774 00 2 00000         AXT     0,2
      00263 -0500 00 2 00346  IRSC   CAL     IR1,2
      00264  0737 00 4 00000         PAC     ,4
      00265  0754 00 4 00000         PXA     ,4
      00266 -0765 00 0 00022         LGR     18
      00267  0074 00 4 00003         TSX     BTOC,4
      00270  0767 00 0 00006         ALS     6
      00271 -0602 00 1 00470         ORS     CPU4+15,1
      00272 -2 00002 1 00274         TNX     *+2,1,2
      00273  1 00001 2 00263         TXI     IRSC,2,1
      00274                          ...     WRFLX((CPU4,,14))  .. FOURTH LINE

                                     RMT
                              CPU4   DUP     1,7
                                     BCI     2,    (-00000)
                                     RMT

      00276                          ...     WRFLX(*)
                              *
      00300                   ENDCPU ...     CLOSE(=HALL,MZ)

      00303                          ...     CHNCOM(0)     TO CHAIN OR 'DEAD'
                              *
      00305                   ERREOF TYPE    6,( SAVED FILE HAS ILLEGAL FORMAT.)
      00307  0020 00 0 00300         TRA     ENDCPU
1                                                                                                PAGE 5
                           SDUMP --- PRINT M.C./CONTENTS OF 'SAVED' FILE

      00310 -0500 00 0 00371  NFND   CAL     ERRBUF
      00311  0402 00 0 00500         SUB     =12
      00312 -0100 00 0 00316         TNZ     TILT
      00313                          ...     WRFLX((FN,,4))
      00315  0020 00 0 00300         TRA     ENDCPU

      00316 -3 00322 0 00317  TILT   TXL     *+1,,*+4
      00317 -0500 00 0 00517         CAL     =HPRNTER
      00320  0560 00 0 00533         LDQ     =O777777777777
      00321                          ...     NEXCOM()

      00322                          SYS     (OPEN,RDFILE,RDWAIT,CLOSE)
      00326                          SYS     (SETBRK,FERRTN,WRFLX,GETCOM,CHNCOM)
      00333                          SYS     (GETMEM,SETMEM,NEXCOM)

                              *
      00336  0 00000 0 00000  MEMBND
      00337  0 00000 0 00000  ILC
      00340  0 00000 0 00000  IR7
      00341  0 00000 0 00000  IR6
      00342  0 00000 0 00000  IR5
      00343  0 00000 0 00000  IR4
      00344  0 00000 0 00000  IR3
      00345  0 00000 0 00000  IR2
      00346  0 00000 0 00000  IR1
      00347  0 00000 0 00000  PTIRS
      00350  0 00000 0 00000  LAC
      00351  0 00000 0 00000  SQ
      00352  0 00000 0 00000  MQ
      00353  0 00000 0 00000  SI
      00354  0 00000 0 00000  OV
      00355  0 00000 0 00000  MTMD
      00356  0 00000 0 00000  FLMD
      00357  0 00000 0 00000  IOCK
      00360  0 00000 0 00000  DVCK
      00361  0 00000 0 00000  SLTS
                              *
      00362  545454545454     FN     BCI     2,****** SAVED

      00364  604546636026            BCI     2, NOT FOUND.

      00366 -0 00000 0 00000  MZ     MZE

      00367  0 00000 0 01750  COUNT1         BUFSIZ
      00370  0 00000 0 00000  RD.REL

      00371  0 00000 0 00000  ERRBUF

      00372                          RMT     *
      00372  512550642562     ..001  BCI     9,REQUEST LOCATION NOT IN SAVED FILE.                            .001
      00403  603143231360     CPU1   BCI     7, ILC= 00000, S= 0, Q= 0, LAC= 000000000000                     .001
      00412  736044501360            BCI     6,, MQ= 000000000000, SI= 000000000000                           .001
      00420  602123466560     CPU2   BCI     6, ACOV XXXXXX FLMD XXXXXX MTMD XXXXXX                           .001
      00426  602465234260            BCI     5, DVCK XXXXXX     MEMBND= XXXXX                                 .001
      00433  603151011360     CPU3   BCI     8, IR1= 00000, IR2= 00000, IR3= 00000, IR4= 00000,               .001
1                                                                                                PAGE 6
                           SDUMP --- PRINT M.C./CONTENTS OF 'SAVED' FILE

      00443  603151051360            BCI     6, IR5= 00000, IR6= 00000, IR7= 00000.                           .001
                       00451  CPU4   DUP     1,7                                                              .001
      00451  606060607440            BCI     2,    (-00000)                                                   .001
      00467  606221652524     ..002  BCI     6, SAVED FILE HAS ILLEGAL FORMAT.                                .001

                                     END

        LITERALS
      00475  000000000000
      00476  000000000001
      00477  000000000002
      00500  000000000014
      00501  000000000073
      00502  000000077777
      00503  000017171717
      00504  000707070707
      00505  214343606060
      00506  233045234644
      00507  234346622560
      00510  262551516345
      00511  272563234644
      00512  272563442544
      00513  452567234644
      00514  462626736060
      00515  464573606060
      00516  464725456060
      00517  475145632551
      00520  512426314325
      00521  512466213163
      00522  516060606060
      00523  600000000000
      00524  605013600073
      00525  605013600173
      00526  606213600073
      00527  606213600173
      00530  622563225142
      00531  622563442544
      00532  665126436760
      00533  777777777777
1                                                                                                PAGE 1
                        POST PROCESSOR ASSEMBLY DATA

        534 IS THE FIRST LOCATION NOT USED BY THIS PROGRAM

0REFERENCES TO DEFINED SYMBOLS
        115     C2   105
        362     FN    12,   41,   42,   50,   51,  112,  113,  121,  122,  134,  135,  143,  144,  152,  153,  314
        352     MQ   203
        366     MZ    43,   44,  136,  137,  302
        354     OV   220
        353     SI   210
        351     SQ   164
        132    CPU    21
        337    ILC   156
        346    IR1   250,  263
        345    IR2
        344    IR3
        343    IR4
        342    IR5
        341    IR6
        340    IR7
        250    IRS   256
        350    LAC   176
        124    ORG    25,   64,   73
          3   BTOC   160,  177,  201,  204,  206,  211,  213,  241,  252,  267
        403   CPU1   163,  171,  175,  200,  202,  205,  207,  212,  214,  216
        420   CPU2   222,  226,  232,  236,  243,  245
        433   CPU3   254,  260
        451   CPU4   271,  275
          1   DTBC    32
        360   DVCK   234
        356   FLMD   224
        357   IOCK
        263   IRSC   273
        355   MTMD   230
        310   NFND    45,  140
        322   OPEN    37,  132
          0   OTBC    24
        361   SLTS   146
        316   TILT     7,  312
        325  CLOSE   120,  151,  300
        127  ERROR    74,   75
        372  ..001   130
        467  ..002   306
        347  PTIRS
         37  RDMEM    34
        330  WRFLX   127,  154,  215,  244,  257,  274,  276,  305,  313
       1750 BUFSIZ     4,   34,  125,  367
        332 CHNCOM   303
        367 COUNT1    35,   76,  101,  107,  115
        125 COUNT2    36,  103,  106
        300 ENDCPU     5,   14,  126,  131,  307,  315
        371 ERRBUF    46,   55,   57,  117,  141,  150,  310
        305 ERREOF    54,   56,  116,  147
        327 FERRTN     6
        331 GETCOM    10,   15,   26
1                                                                                                PAGE 2
                        POST PROCESSOR ASSEMBLY DATA

        333 GETMEM   104
        336 MEMBND    53,   60,   66,  146,  237
        335 NEXCOM   321
          2 OCTDMP   123
        323 RDFILE   111,  142
        370 RD.REL    65,  114
        324 RDWAIT    47
        326 SETBRK     4
        334 SETMEM   110

0 NO ERROR IN ABOVE ASSEMBLY.
1                                                                                                PAGE 1
                           OCTDMP --- DUMP OCTAL W/ MNEMONICS

                       00002         ENTRY   OCTDMP
                              *


      00002  0634 00 1 00071  OCTDMP SXA     OCTX1,1
      00003  0634 00 2 00072         SXA     OCTX2,2
      00004  0634 00 4 00073         SXA     OCTX4,4
      00005 -0500 00 4 00001         CAL     1,4           GET RELATIVE LOCATION
      00006  0621 00 0 00441         STA     ORG           SAVE IT
      00007 -0500 00 4 00002         CAL     2,4           PZE BUFF,,N
      00010 -0734 00 1 00000         PDX     0,1           COUNT TO IR1
      00011  0754 00 1 00000         PXA     0,1           TO ADDRESS OF AC
      00012  0401 00 4 00002         ADM     2,4           GET BUFF+N
      00013  0621 00 0 00024         STA     OCT2
      00014  0600 00 0 00444         STZ     SKIPSW
                              *
      00015 -0500 00 0 00441  OCT1   CAL     ORG           SET UP LINE ORIGIN
      00016 -0765 00 0 00022         LGR     18            ..
      00017  0074 00 4 00164         TSX     CONV.,4       CONVERT TO BCD
      00020 -0501 00 0 00446         ORA     =O570000000000  ADD NULL CHAR.
      00021  0602 00 0 00001         SLW     OUT
      00022  0774 00 2 00014         AXT     12,2          SET UP NO. OF WORDS PER LINE
      00023  0600 00 0 00442         STZ     PRTSW         RESET PRINT SWITCH
      00024 -0500 00 1 00000  OCT2   CAL     **,1          GET FIRST OR NEXT WORD TO BE DUMPED
      00025  0100 00 0 00027         TZE     *+2           SKIP IF ZERO
      00026 -0625 00 0 00442         STL     PRTSW         OTHERWISE SET SWITCH TO PRINT THIS LINE
      00027  0074 00 4 00075         TSX     (OPCD),4      FIND SYMBOLIC OPERATION CODE
      00030  0602 00 2 00016         SLW     OUT+13,2      INTO OUTPUT LINE
      00031  0560 60 0 00024         LDQ*    OCT2          RELOAD DUMP WORD
      00032  0074 00 4 00164         TSX     CONV.,4       CONVERT TO BCD
      00033  0602 00 2 00017         SLW     OUT+14,2      ..
      00034  0074 00 4 00164         TSX     CONV.,4       ..
      00035  0602 00 2 00020         SLW     OUT+15,2      ..
      00036 -2 00003 2 00046         TNX     OCT3,2,3      END OF LINE TEST
      00037  2 00001 1 00024         TIX     OCT2,1,1      END OF INPUT TEST
      00040 -0500 00 0 00450         CAL     =H            HERE WHEN DONE
      00041  0602 00 2 00016         SLW     OUT+13,2      FILL OUT LINE WITH BLANKS
      00042  0602 00 2 00017         SLW     OUT+14,2      ..
      00043  0602 00 2 00020         SLW     OUT+15,2      ..
      00044  2 00003 2 00041         TIX     *-3,2,3
      00045 -0625 00 0 00442         STL     PRTSW         INSURE PARTIAL LINE IS PRINTED
      00046 -0520 00 0 00442  OCT3   NZT     PRTSW         HERE AT END OF LINE, IS LINE ALL ZERO
      00047  0020 00 0 00060         TRA     OCT4          YES, SKIP PRINTING
      00050 -0520 00 0 00444         NZT     SKIPSW
      00051  0020 00 0 00055         TRA     OCT5
      00052  0074 00 4 00440         TSX     WRFLX,4
      00053  0 00001 0 00437                 DOTS,,1
      00054  0600 00 0 00444         STZ     SKIPSW
      00055  0074 00 4 00440  OCT5   TSX     WRFLX,4
      00056  0 00015 0 00001                 OUT,,13       ..
      00057  0020 00 0 00061         TRA     *+2
      00060 -0625 00 0 00444  OCT4   STL     SKIPSW
      00061  0534 00 4 00441         LXA     ORG,4         BUMP LINE ORIGIN
      00062  1 00004 4 00063         TXI     *+1,4,4       ..
      00063  0634 00 4 00441         SXA     ORG,4         ..
1                                                                                                PAGE 2
                           OCTDMP --- DUMP OCTAL W/ MNEMONICS

      00064  2 00001 1 00015         TIX     OCT1,1,1      RETURN IF MORE INPUT
      00065 -0520 00 0 00444         NZT     SKIPSW
      00066  0020 00 0 00071         TRA     OCTX1
      00067  0074 00 4 00440         TSX     WRFLX,4
      00070  0 00001 0 00437                 DOTS,,1
      00071  0774 00 1 00000  OCTX1  AXT     **,1
      00072  0774 00 2 00000  OCTX2  AXT     **,2
      00073  0774 00 4 00000  OCTX4  AXT     **,4
      00074  0020 00 4 00003         TRA     3,4

      00075  0634 00 1 00161  (OPCD) SXA     OPCDX1,1      ROUTINE TO FIND SYMBOLIC OP. CODE
      00076  0634 00 2 00162         SXA     OPCDX2,2
      00077  0774 00 1 00000         AXT     0,1
      00100 -0320 00 0 00452         ANA     =O777700000000
      00101  0100 00 0 00150         TZE     OPCDY         SKIP OUT IF HTR
      00102  0602 00 0 00443         SLW     BINOP.        SAVE OP CODE
      00103  0771 00 0 00041         ARS     33            PREFIX TO ADDRESS
      00104 -0320 00 0 00445         ANA     =3            MASK OUT SIGN BIT
      00105 -0100 00 0 00145         TNZ     TYPEA.        SKIP IF TYPE A INSTRUCTION
      00106  0774 00 2 00022         AXT     18,2          OTHERWISE SEARCH OPERATION TABLE
      00107  0020 00 2 00144         TRA     LOWER.,2      ..

      00110 -3 77544 1 00114  SRCH1. TXL     SRCH2.,1,-NTB OPERATION TABLE SEARCH
      00111 -0500 00 1 00203         CAL     TABLE.,1      ..
      00112 -0320 00 0 00452         ANA     =O777700000000 ..
      00113 -0340 00 0 00443         LAS     BINOP.        ..
      00114  1 77776 2 00143  SRCH2. TXI     RAISE.,2,-2   ..
      00115  0020 00 0 00153         TRA     OPCDX         ..
      00116  1 77776 2 00144         TXI     LOWER.,2,-2   ..
      00117  1 00400 1 00110         TXI     SRCH1.,1,+256 ..
      00120  1 77400 1 00110         TXI     SRCH1.,1,-256 ..
      00121  1 00200 1 00110         TXI     SRCH1.,1,+128 ..
      00122  1 77600 1 00110         TXI     SRCH1.,1,-128 ..
      00123  1 00100 1 00110         TXI     SRCH1.,1,+64  ..
      00124  1 77700 1 00110         TXI     SRCH1.,1,-64  ..
      00125  1 00040 1 00110         TXI     SRCH1.,1,+32  ..
      00126  1 77740 1 00110         TXI     SRCH1.,1,-32  ..
      00127  1 00020 1 00110         TXI     SRCH1.,1,+16  ..
      00130  1 77760 1 00110         TXI     SRCH1.,1,-16  ..
      00131  1 00010 1 00110         TXI     SRCH1.,1,+8   ..
      00132  1 77770 1 00110         TXI     SRCH1.,1,-8   ..
      00133  1 00004 1 00110         TXI     SRCH1.,1,+4   ..
      00134  1 77774 1 00110         TXI     SRCH1.,1,-4   ..
      00135  1 00002 1 00110         TXI     SRCH1.,1,+2   ..
      00136  1 77776 1 00110         TXI     SRCH1.,1,-2   ..
      00137  1 00001 1 00110         TXI     SRCH1.,1,+1   ..
      00140  1 77777 1 00110         TXI     SRCH1.,1,-1   ..
      00141  0020 00 0 00145         TRA     TYPEA.        ..
      00142  0020 00 0 00145         TRA     TYPEA.        ..
      00143  0020 00 2 00143  RAISE. TRA     *,2           ..
      00144  0020 00 2 00144  LOWER. TRA     *,2           ..

      00145  0560 00 0 00443  TYPEA. LDQ     BINOP.        HERE FOR TYPE A INSTRUCTION
      00146 -0754 00 0 00000         ZAC
      00147 -0763 00 0 00003         LGL     3
1                                                                                                PAGE 3
                           OCTDMP --- DUMP OCTAL W/ MNEMONICS

      00150  0734 00 2 00000  OPCDY  PAX     0,2           PREFIX TO IR2
      00151  0560 00 2 00203         LDQ     TABLA.+7,2    PICK UP TYPE A SYMBOLIC OP. CODE
      00152  0020 00 0 00155         TRA     OPCD1         AND GO TO EXIT

      00153  0560 00 1 00203  OPCDX  LDQ     TABLE.,1      GET SYMBOLIC OP CODE FROM TABLE
      00154 -0773 00 0 00022         RQL     18            FIX IT UP
      00155 -0754 00 0 00000  OPCD1  ZAC
      00156 -0763 00 0 00022         LGL     18            ..
      00157  0767 00 0 00006         ALS     6             ..
      00160 -0501 00 0 00447         ORA     =H  000       ADD IN BLANKS
      00161  0774 00 1 00000  OPCDX1 AXT     **,1          RESTORE IRS
      00162  0774 00 2 00000  OPCDX2 AXT     **,2          ..
      00163  0020 00 4 00001         TRA     1,4           AND RETURN WITH SYMBOLIC OP. CODE IN AC

      00164  0634 00 4 00172  CONV.  SXA     CVX.,4        ROUTINE TO CONVERT BINARY TO BCD/OCTAL
      00165 -0754 00 0 00000         ZAC
      00166  0774 00 4 00006         AXT     6,4
      00167  0767 00 0 00003         ALS     3
      00170 -0763 00 0 00003         LGL     3
      00171  2 00001 4 00167         TIX     *-2,4,1
      00172  0774 00 4 00000  CVX.   AXT     **,4
      00173  0020 00 4 00001         TRA     1,4

      00174  636743606060     TABLA. BCI     8,TXL   TNX   STR   MZE   TXH   TIX   TXI   PZE

                       00203  TABLE. SYN     *-1

      00204  002000635121            VFD     O12/0020,H24/0TRA   TRA
      00205  002100636351            VFD     O12/0021,H24/0TTR   TTR
      00206  002200635123            VFD     O12/0022,H24/0TRC   TRCA
      00207  002400635123            VFD     O12/0024,H24/0TRC   TRCC
      00210  003000632526            VFD     O12/0030,H24/0TEF   TEFA
      00211  003100632526            VFD     O12/0031,H24/0TEF   TEFC
      00212  004000634350            VFD     O12/0040,H24/0TLQ   TLQ
      00213  004100313121            VFD     O12/0041,H24/0IIA   IIA
      00214  004200633146            VFD     O12/0042,H24/0TIO   TIO
      00215  004300462131            VFD     O12/0043,H24/0OAI   OAI
      00216  004400472131            VFD     O12/0044,H24/0PAI   PAI
      00217  004600633126            VFD     O12/0046,H24/0TIF   TIF
      00220  005100313151            VFD     O12/0051,H24/0IIR   IIR
      00221  005400512663            VFD     O12/0054,H24/0RFT   RFT
      00222  005500623151            VFD     O12/0055,H24/0SIR   SIR
      00223  005600514563            VFD     O12/0056,H24/0RNT   RNT
      00224  005700513151            VFD     O12/0057,H24/0RIR   RIR
      00225  006000632346            VFD     O12/0060,H24/0TCO   TCOA
      00226  006100632346            VFD     O12/0061,H24/0TCO   TCOB
      00227  006200632346            VFD     O12/0062,H24/0TCO   TCOC
      00230  006300632346            VFD     O12/0063,H24/0TCO   TCOD
      00231  007400636267            VFD     O12/0074,H24/0TSX   TSX
      00232  010000637125            VFD     O12/0100,H24/0TZE   TZE
      00233  010100633121            VFD     O12/0101,H24/0TIA   TIA
      00234  011400236551            VFD     O12/0114,H24/0CVR   CVR
      00235  012000634743            VFD     O12/0120,H24/0TPL   TPL
      00236  013100672321            VFD     O12/0131,H24/0XCA   XCA
      00237  014000634665            VFD     O12/0140,H24/0TOV   TOV
1                                                                                                PAGE 4
                           OCTDMP --- DUMP OCTAL W/ MNEMONICS

      00240  016200635047            VFD     O12/0162,H24/0TQP   TQP
      00241  020000444770            VFD     O12/0200,H24/0MPY   MPY
      00242  020400654344            VFD     O12/0204,H24/0VLM   VLM
      00243  022000246530            VFD     O12/0220,H24/0DVH   DVH
      00244  022100246547            VFD     O12/0221,H24/0DVP   DVP
      00245  022400652430            VFD     O12/0224,H24/0VDH   VDH
      00246  022500652447            VFD     O12/0225,H24/0VDP   VDP
      00247  024000262430            VFD     O12/0240,H24/0FDH   FDH
      00250  024100262447            VFD     O12/0241,H24/0FDP   FDP
      00251  026000264447            VFD     O12/0260,H24/0FMP   FMP
      00252  030000262124            VFD     O12/0300,H24/0FAD   FAD
      00253  030200266222            VFD     O12/0302,H24/0FSB   FSB
      00254  030400262144            VFD     O12/0304,H24/0FAM   FAM
      00255  030600266244            VFD     O12/0306,H24/0FSM   FSM
      00256  032000214562            VFD     O12/0320,H24/0ANS   ANS
      00257  032200255121            VFD     O12/0322,H24/0ERA   ERA
      00260  034000232162            VFD     O12/0340,H24/0CAS   CAS
      00261  036100212343            VFD     O12/0361,H24/0ACL   ACL
      00262  040000212424            VFD     O12/0400,H24/0ADD   ADD
      00263  040100212444            VFD     O12/0401,H24/0ADM   ADM
      00264  040200626422            VFD     O12/0402,H24/0SUB   SUB
      00265  042000304751            VFD     O12/0420,H24/0HPR   HPR
      00266  044000313162            VFD     O12/0440,H24/0IIS   IIS
      00267  044100432431            VFD     O12/0441,H24/0LDI   LDI
      00270  044200466231            VFD     O12/0442,H24/0OSI   OSI
      00271  044400462663            VFD     O12/0444,H24/0OFT   OFT
      00272  044500513162            VFD     O12/0445,H24/0RIS   RIS
      00273  044600464563            VFD     O12/0446,H24/0ONT   ONT
      00274  050000234321            VFD     O12/0500,H24/0CLA   CLA
      00275  050200234362            VFD     O12/0502,H24/0CLS   CLS
      00276  052000712563            VFD     O12/0520,H24/0ZET   ZET
      00277  052200672523            VFD     O12/0522,H24/0XEC   XEC
      00300  053400436721            VFD     O12/0534,H24/0LXA   LXA
      00301  053500432123            VFD     O12/0535,H24/0LAC   LAC
      00302  054000512330            VFD     O12/0540,H24/0RCH   RCHA
      00303  054100512330            VFD     O12/0541,H24/0RCH   RCHC
      00304  054400432330            VFD     O12/0544,H24/0LCH   LCHA
      00305  054500432330            VFD     O12/0545,H24/0LCH   LCHC
      00306  056000432450            VFD     O12/0560,H24/0LDQ   LDQ
      00307  056200435131            VFD     O12/0562,H24/0LRI   LRI
      00310  056400254522            VFD     O12/0564,H24/0ENB   ENB
      00311  060000626371            VFD     O12/0600,H24/0STZ   STZ
      00312  060100626346            VFD     O12/0601,H24/0STO   STO
      00313  060200624366            VFD     O12/0602,H24/0SLW   SLW
      00314  060400626331            VFD     O12/0604,H24/0STI   STI
      00315  062100626321            VFD     O12/0621,H24/0STA   STA
      00316  062200626324            VFD     O12/0622,H24/0STD   STD
      00317  062500626363            VFD     O12/0625,H24/0STT   STT
      00320  063000626347            VFD     O12/0630,H24/0STP   STP
      00321  063400626721            VFD     O12/0634,H24/0SXA   SXA
      00322  064000622330            VFD     O12/0640,H24/0SCH   SCHA
      00323  064100622330            VFD     O12/0641,H24/0SCH   SCHA
      00324  073400472167            VFD     O12/0734,H24/0PAX   PAX
      00325  073700472123            VFD     O12/0737,H24/0PAC   PAC
      00326  075400476721            VFD     O12/0754,H24/0PXA   PXA
1                                                                                                PAGE 5
                           OCTDMP --- DUMP OCTAL W/ MNEMONICS

      00327  076000476225            VFD     O12/0760,H24/0PSE   PSE
      00330  076100454647            VFD     O12/0761,H24/0NOP   NOP
      00331  076200512462            VFD     O12/0762,H24/0RDS   RDS
      00332  076300434362            VFD     O12/0763,H24/0LLS   LLS
      00333  076400226251            VFD     O12/0764,H24/0BSR   BSR
      00334  076500435162            VFD     O12/0765,H24/0LRS   LRS
      00335  076600665162            VFD     O12/0766,H24/0WRS   WRS
      00336  076700214362            VFD     O12/0767,H24/0ALS   ALS
      00337  077000662526            VFD     O12/0770,H24/0WEF   WEF
      00340  077100215162            VFD     O12/0771,H24/0ARS   ARS
      00341  077200512566            VFD     O12/0772,H24/0REW   REW
      00342  077400216763            VFD     O12/0774,H24/0AXT   AXT
      00343  077600622445            VFD     O12/0776,H24/0SDN   SDN
      00344  402200635123            VFD     O12/4022,H24/0TRC   TRCB
      00345  402400635123            VFD     O12/4024,H24/0TRC   TRCD
      00346  403000632526            VFD     O12/4030,H24/0TEF   TEFB
      00347  403100632526            VFD     O12/4031,H24/0TEF   TEFD
      00350  404200513121            VFD     O12/4042,H24/0RIA   RIA
      00351  404600473121            VFD     O12/4046,H24/0PIA   PIA
      00352  405100313143            VFD     O12/4051,H24/0IIL   IIL
      00353  405400432663            VFD     O12/4054,H24/0LFT   LFT
      00354  405500623143            VFD     O12/4055,H24/0SIL   SIL
      00355  405600434563            VFD     O12/4056,H24/0LNT   LNT
      00356  405700513143            VFD     O12/4057,H24/0RIL   RIL
      00357  406000632345            VFD     O12/4060,H24/0TCN   TCNA
      00360  406100632345            VFD     O12/4061,H24/0TCN   TCNB
      00361  406200632345            VFD     O12/4062,H24/0TCN   TCNC
      00362  406300632345            VFD     O12/4063,H24/0TCN   TCND
      00363  410000634571            VFD     O12/4100,H24/0TNZ   TNZ
      00364  410100633122            VFD     O12/4101,H24/0TIB   TIB
      00365  411400232150            VFD     O12/4114,H24/0CAQ   CAQ
      00366  412000634431            VFD     O12/4120,H24/0TMI   TMI
      00367  413000672343            VFD     O12/4130,H24/0XCL   XCL
      00370  414000634546            VFD     O12/4140,H24/0TNO   TNO
      00371  415400235150            VFD     O12/4154,H24/0CRQ   CRQ
      00372  420000444751            VFD     O12/4200,H24/0MPR   MPR
      00373  426000642644            VFD     O12/4260,H24/0UFM   UFM
      00374  430000642621            VFD     O12/4300,H24/0UFA   UFA
      00375  430200642662            VFD     O12/4302,H24/0UFS   UFS
      00376  430400642144            VFD     O12/4304,H24/0UAM   UAM
      00377  430600646244            VFD     O12/4306,H24/0USM   USM
      00400  432000214521            VFD     O12/4320,H24/0ANA   ANA
      00401  434000432162            VFD     O12/4340,H24/0LAS   LAS
      00402  440000622244            VFD     O12/4400,H24/0SBM   SBM
      00403  450000232143            VFD     O12/4500,H24/0CAL   CAL
      00404  450100465121            VFD     O12/4501,H24/0ORA   ORA
      00405  452000457163            VFD     O12/4520,H24/0NZT   NZT
      00406  453400436724            VFD     O12/4534,H24/0LXD   LXD
      00407  453500432423            VFD     O12/4535,H24/0LDC   LDC
      00410  454000512330            VFD     O12/4540,H24/0RCH   RCHB
      00411  454100512330            VFD     O12/4541,H24/0RCH   RCHD
      00412  454400432330            VFD     O12/4544,H24/0LCH   LCHB
      00413  454500432330            VFD     O12/4545,H24/0LCH   LCHD
      00414  456400434731            VFD     O12/4564,H24/0LPI   LPI
      00415  460000626350            VFD     O12/4600,H24/0STQ   STQ
1                                                                                                PAGE 6
                           OCTDMP --- DUMP OCTAL W/ MNEMONICS

      00416  460200465162            VFD     O12/4602,H24/0ORS   ORS
      00417  462000624350            VFD     O12/4620,H24/0SLQ   SLQ
      00420  462500626343            VFD     O12/4625,H24/0STL   STL
      00421  463400626724            VFD     O12/4634,H24/0SXD   SXD
      00422  464000622330            VFD     O12/4640,H24/0SCH   SCHB
      00423  464100622330            VFD     O12/4641,H24/0SCH   SCHD
      00424  473400472467            VFD     O12/4734,H24/0PDX   PDX
      00425  473700472423            VFD     O12/4737,H24/0PDC   PDC
      00426  475400476724            VFD     O12/4754,H24/0PXD   PXD
      00427  476000446225            VFD     O12/4760,H24/0MSE   MSE
      00430  476100622554            VFD     O12/4761,H24/0SE*   SEA OR SEB
      00431  476300432743            VFD     O12/4763,H24/0LGL   LGL
      00432  476400226226            VFD     O12/4764,H24/0BSF   BSF
      00433  476500432751            VFD     O12/4765,H24/0LGR   LGR
      00434  477200516445            VFD     O12/4772,H24/0RUN   RUN
      00435  477300515043            VFD     O12/4773,H24/0RQL   RQL
      00436  477400216723            VFD     O12/4774,H24/0AXC   AXC

                       00234  NTB    SYN     *-TABLE.

      00437  404040404060     DOTS   BCI     1,-----

      00440  0101 00 0 00451  WRFLX  TIA     =HWRFLX

      00441  0 00000 0 00000  ORG
      00442  0 00000 0 00000  PRTSW
      00443  0 00000 0 00000  BINOP.
      00444  0 00000 0 00000  SKIPSW

                       00001  OUT    EQU     1             USE LOWER CORE FOR TEMPORARY STORAGE

                                     END

        LITERALS
      00445  000000000003
      00446  570000000000
      00447  606000000060
      00450  606060606060
      00451  665126436760
      00452  777700000000
1                                                                                                PAGE 1
                        POST PROCESSOR ASSEMBLY DATA

        453 IS THE FIRST LOCATION NOT USED BY THIS PROGRAM

0REFERENCES TO DEFINED SYMBOLS
        234    NTB   110,  437
        441    ORG     6,   15,   61,   63
          1    OUT    21,   30,   33,   35,   41,   42,   43,   56,  445
        172   CVX.   164
        437   DOTS    53,   70
         15   OCT1    64
         24   OCT2    13,   31,   37
         46   OCT3    36
         60   OCT4    47
         55   OCT5    51
        164  CONV.    17,   32,   34
         71  OCTX1     2,   66
         72  OCTX2     3
         73  OCTX4     4
        155  OPCD1   152
        153  OPCDX   115
        150  OPCDY   101
        442  PRTSW    23,   26,   45,   46
        440  WRFLX    52,   55,   67
        443 BINOP.   102,  113,  145
        144 LOWER.   107,  116
          2 OCTDMP     0
        161 OPCDX1    75
        162 OPCDX2    76
        143 RAISE.   114
        444 SKIPSW    14,   50,   54,   60,   65
        110 SRCH1.   117,  120,  121,  122,  123,  124,  125,  126,  127,  130,  131,  132,  133,  134,  135,  136,  137
                     140
        114 SRCH2.   110
        174 TABLA.   151
        203 TABLE.   111,  153,  204,  437
        145 TYPEA.   105,  141,  142
         75 (OPCD)    27

0 NO ERROR IN ABOVE ASSEMBLY.


SETFIL   BCD 05/12/69 2020.2    9949         00000
1     MAD PROGRAM LISTING ... ... ...                 FILE  SETFIL   MAD            03/26/69    1815.3
-
                  M1416-3845 PETER R. BOS  12/04/67  -- SETFIL COMMAND                                 LM00001
                      MODE AND DEVICE ARGUMENTS ADDED 03/26/69  D.A. ANDERSON                          LM00002
                                                                                                       LM00003
                  USAGE ...  SETFIL NM1 NM2 DLM TLM DLU AUTH MODE DEV                                  LM00004
                    LISTF '*' CONVENTION APPLIES                                                       LM00005
                    LAST SIX ARG'S MAY BE '*' TO INDICATE                                              LM00006
                      NO CHANGE. TRAILING *'S MAY BE OMITTED.                                          LM00007
                    MODE AND DEV APPLY ONLY TO NEW FILES                                               LM00008
                                                                                                       LM00009
                  NORMAL MODE IS INTEGER                                                          *001 LM00010
                  BOOLEAN RDUFD                                                                   *002 LM00011
                  DIMENSION TEMP(8), BUF1(0), BUF2(0), ARG(8), UFD(7)                             *003 LM00012
                                                                                                       LM00013
                  DEFINE UNARY OPERATOR .CAL., PRECEDENCE SAME AS =                               *004 LM00014
                  MODE STRUCTURE .CAL. 1 TO 1                                                     *005 LM00015
             CAL      B                                                                           *006 LM00016
             OUT      LAC                                                                         *007 LM00017
             END                                                                                  *008 LM00018
                  DEFINE UNARY OPERATOR .LDQ., PRECEDENCE SAME AS =                               *009 LM00019
                  MODE STRUCTURE .LDQ. 1 TO 1                                                     *010 LM00020
             LDQ      B                                                                           *011 LM00021
             OUT      MQ                                                                          *012 LM00022
             END                                                                                  *013 LM00023
                                                                                                       LM00024
                  FERRTN.(ERR)                                                                    *014 LM00025
                  THROUGH ARGS, FOR I=1,1,I.G.MXARG                                               *015 LM00026
                    TEMP=COMARG.(I)                                                               *016 LM00027
                    WHENEVER TEMP.E.FNS                                                           *017 LM00028
                      NARG=I-1                                                                    *018 LM00029
                      TRANSFER TO CHKN                                                            *019 LM00030
                    OTHERWISE                                                                     *020 LM00031
                      ARG(I)=TEMP                                                                 *021 LM00032
                    END OF CONDITIONAL                                                            *022 LM00033
      ARGS        CONTINUE                                                                        *023 LM00034
                  NARG=MXARG                                                                      *024 LM00035
      CHKN        WHENEVER NARG.L.3                                                               *025 LM00036
                    PRMESS.(COMARG.(0),$ NAME1 NAME2 DLM TLM DLU AUTH MODE DEV$                   *026 LM00037
                1   )                                                                             *026 LM00038
                    PRMESS.($LISTF '*' CONVENTION APPLIES$)                                       *027 LM00039
                    PRMESS.($ANY ARG MAY BE '*' TO MEAN 'NO CHANGE'$)                             *028 LM00040
                    CHNCOM.(0)                                                                    *029 LM00041
                  END OF CONDITIONAL                                                              *030 LM00042
                                                                                                       LM00043
                  MSK1=NAMASK.(ARG(1))                                                            *031 LM00044
                  TNM1=ARG(1).A.MSK1                                                              *032 LM00045
                  MSK2=NAMASK.(ARG(2))                                                            *033 LM00046
                  TNM2=ARG(2).A.MSK2                                                              *034 LM00047
                  WHENEVER MSK1.A.MSK2.NE.FNS, RDUFD=1B                                           *035 LM00048
                                                                                                       LM00049
                  WHENEVER ARG(3).NE.STAR, FSDLM=FSDATE.(ARG(3))                                  *036 LM00050
                  WHENEVER ARG(4).NE.STAR, FSTLM=FSTIME.(ARG(4))                                  *037 LM00051
                  WHENEVER ARG(5).NE.STAR, FSDLU=FSDATE.(ARG(5))                                  *038 LM00052
                  WHENEVER ARG(6).NE.STAR, FSAUT=BCDEC.(ZEL.(ARG(6)))                             *039 LM00053
                  WHENEVER ARG(7).NE.STAR, FSMOD=BCOCT.(ARG(7))                                   *040 LM00054
                  WHENEVER ARG(8).NE.STAR, FSDEV=BCDEC.(ARG(8))                                   *041 LM00055
                                                                                                       LM00056
                  WHENEVER .NOT.RDUFD                                                             *042 LM00057
                    FSTATE.(ARG(1),ARG(2),TEMP(8)...8,NOFILE)                                     *043 LM00058
                    WHENEVER ARG(7).NE.STAR.OR.ARG(8).NE.STAR,                                    *044 LM00059
                1   PRMESS.($MODE AND DEVICE ARE APPLICABLE ONLY TO NEW FILES.$                   *044 LM00060
                1     )                                                                           *044 LM00061
                    UFD(7)=ARG(1)                                                                 *045 LM00062
                    UFD(6)=ARG(2)                                                                 *046 LM00063
                    UFD(5)=TEMP(2)                                                                *047 LM00064
                    UFD(4)=TEMP(1)                                                                *048 LM00065
                    FSMOD=-0                                                                      *049 LM00066
                    FSDEV=-0                                                                      *050 LM00067
                    TRANSFER TO SET                                                               *051 LM00068
      NOFILE      UFD(7)=ARG(1)                                                                   *052 LM00069
                  UFD(6)=ARG(2)                                                                   *053 LM00070
                    TEMP=GTDYTM.(0)                                                               *054 LM00071
                    WHENEVER ARG(3).E.STAR, FSDLM=TEMP.A.777777K6                                 *055 LM00072
                    WHENEVER ARG(4).E.STAR, FSTLM=TEMP.A.777777K                                  *056 LM00073
                    WHENEVER ARG(5).E.STAR, FSDLU=TEMP.A.777777K6                                 *057 LM00074
                    ATTNAM.(TEMP(3)...4)                                                          *058 LM00075
                    WHENEVER ARG(6).E.STAR, FSAUT=TEMP(1)                                         *059 LM00076
                    WHENEVER ARG(7).E.STAR, FSMOD=0                                               *060 LM00077
                    WHENEVER ARG(8).E.STAR, FSDEV=2                                               *061 LM00078
                    TRANSFER TO SETF                                                              *062 LM00079
                  END OF CONDITIONAL                                                              *063 LM00080
                                                                                                       LM00081
                  WHENEVER ARG(7).NE.STAR.OR.ARG(8).NE.STAR,                                      *064 LM00082
                1   PRMESS.($MODE AND DEVICE ARE APPLICABLE ONLY TO NEW FILES.$                   *064 LM00083
                1     )                                                                           *064 LM00084
                  UPDATE.                                                                         *065 LM00085
                  TEMP=0                                                                          *066 LM00086
                  GETBUF.(BUF1,432)                                                               *067 LM00087
                  GETBUF.(BUF2,432)                                                               *068 LM00088
                  BFOPEN.($R$,UF,FI,BUF1(BUF1+432),BUF2(BUF2+432),-0,ERR)                         *069 LM00089
                  BFREAD.(UF,FI,TEMP(3)...3,EOFERR,TEMP,ERR)                                      *070 LM00090
                  N=0                                                                             *071 LM00091
      READ        BFREAD.(UF,FI,UFD(7)...7,EOF,TEMP,ERR)                                          *072 LM00092
                  WHENEVER UFD(7).V.UFD(6).E.0, TRANSFER TO READ                                  *073 LM00093
                  WHENEVER UFD(7).A.MSK1.NE.TNM1.OR.UFD(6).A.MSK2.NE.TNM2, TRANSFER TO READ       *074 LM00094
                  WHENEVER UFD(3).A.LINK.E.0, TRANSFER TO READ                                    *075 LM00095
                                                                                                       LM00096
      SET         WHENEVER ARG(3).E.STAR, FSDLM=UFD(5).A.777777K6                                 *076 LM00097
                  WHENEVER ARG(4).E.STAR, FSTLM=UFD(5).A.777777K                                  *077 LM00098
                  WHENEVER ARG(5).E.STAR, FSDLU=UFD(4).A.777777K6                                 *078 LM00099
                  WHENEVER ARG(6).E.STAR, FSAUT=UFD(4).A.777777K                                  *079 LM00100
      SETF        SETFIL.(UFD(7),UFD(6),FSDLM.V.FSTLM,FSDLU.V.FSAUT,FSMOD,FSDEV                   *080 LM00101
                1   )                                                                             *080 LM00102
                  N=N+1                                                                           *081 LM00103
                  WHENEVER .NOT.RDUFD, TRANSFER TO XIT                                            *082 LM00104
                  TRANSFER TO READ                                                                *083 LM00105
                                                                                                       LM00106
      EOF         WHENEVER TEMP.E.0, TRANSFER TO EOFXIT                                           *084 LM00107
      EOFERR      PRMESS.($BAD EOF RETURN READING U.F.D.$)                                        *085 LM00108
      EOFXIT      BFCLOS.(UF,FI,ERR)                                                              *086 LM00109
      XIT         PRMESS.($*$)                                                                    *087 LM00110
                  CHNCOM.(0)                                                                      *088 LM00111
                                                                                                       LM00112
      ERR         .CAL. $PRNTER$                                                                  *089 LM00113
                  .LDQ. 400000000071K                                                             *090 LM00114
                  NEXCOM.                                                                         *091 LM00115
                                                                                                       LM00116
                  VECTOR VALUES STAR=$     *$                                                     *092 LM00117
                  VECTOR VALUES ARG(1)=$     *     *     *     *     *     *     *     *$         *093 LM00118
                  VECTOR VALUES LINK=7K5                                                          *094 LM00119
                  VECTOR VALUES RDUFD=0B                                                          *095 LM00120
                  VECTOR VALUES FNS=777777777777K                                                 *096 LM00121
                  VECTOR VALUES MXARG=8                                                           *097 LM00122
                  VECTOR VALUES UF=$U.F.D.$                                                       *098 LM00123
                  VECTOR VALUES FI=$(FILE)$                                                       *099 LM00124
                                                                                                       LM00125
                  INTERNAL FUNCTION (GNU)                                                         *100 LM00126
                  ENTRY TO FSDATE.                                                                *101 LM00127
                    MM=BCDEC.((ZEL.(GNU)).RS.24)                                                  *102 LM00128
                    DD=BCDEC.((GNU.RS.12).A.7777K)                                                *103 LM00129
                    YY=BCDEC.(GNU.A.7777K)                                                        *104 LM00130
                    WHENEVER MM.G.12.OR.DD.G.31.OR.ZEL.(GNU).A.$ $.NE.0                           *105 LM00131
                1     .OR.MM.E.0.OR.DD.E.0.OR.YY.E.0                                              *105 LM00132
                      PRMESS.($ILLEGAL DATE.....$,GNU)                                            *106 LM00133
                      TRANSFER TO XIT                                                             *107 LM00134
                    END OF CONDITIONAL                                                            *108 LM00135
                    FUNCTION RETURN (YY.LS.27).V.(MM.LS.23).V.(DD.LS.18)                          *109 LM00136
                  ENTRY TO FSTIME.                                                                *110 LM00137
                    WHENEVER GNU.A.77K2.E.$0000.0$                                                *111 LM00138
                      TEMP=ZEL.(GNU.RS.12)                                                        *112 LM00139
                      TM=GNU.A.77K                                                                *113 LM00140
                    OTHERWISE                                                                     *114 LM00141
                      TEMP=ZEL.(GNU)                                                              *115 LM00142
                      TM=0                                                                        *116 LM00143
                    END OF CONDITIONAL                                                            *117 LM00144
                    HH=BCDEC.((TEMP.A.7777K4).RS.12)                                              *118 LM00145
                    MM=BCDEC.(TEMP.A.7777K)                                                       *119 LM00146
                    WHENEVER HH.G.23.OR.MM.G.59.OR.TM.G.9.OR.TEMP.A.$ $.NE.0                      *120 LM00147
                      PRMESS.($ILLEGAL TIME.....$,GNU)                                            *121 LM00148
                      TRANSFER TO XIT                                                             *122 LM00149
                    END OF CONDITIONAL                                                            *123 LM00150
                    FUNCTION RETURN ((HH*60+MM)*10+TM)*6                                          *124 LM00151
                  END OF FUNCTION                                                                 *125 LM00152
                                                                                                       LM00153
                  END OF PROGRAM                                                                  *126 LM00154
                                         MODE STRUCTURE .CAL. 1 TO 1          005  LM00015
 (THE NUMERIC FORM OF THE OPERATOR-MODE ARGUMENT IS    11101 )
                                         MODE STRUCTURE .LDQ. 1 TO 1          010  LM00020
 (THE NUMERIC FORM OF THE OPERATOR-MODE ARGUMENT IS    11201 )
1MAD PROGRAM,TYPE NOV 1963      (ALL NUMBERS ARE OCTAL)
0TOTAL LOCATIONS   01267 TRANSFER VECTOR LENGTH  00024 PROGRAM BEGINS    00233
0VARIABLE STORAGE (A=ARRAY,C=COMMON,E=ERASABLE,DIGIT=MODE)
      ARG    00051 A 1        ERR    00033   4        FSTLM  00064   1        NARG   00074   1        TEMP   00110 A 1
      ARGS   00026   4        FI     00055 A 1        HH     00065   1        NOFILE 00034   4        TM     00111   1
      BUF1   00052 A 1        FNS    00056 A 1        I      00066   1        N      00075   1        TNM1   00112   1
      BUF2   00053 A 1        FSAUT  00057   1        LINK   00067 A 1        RDUFD  00076 A 2        TNM2   00113   1
      CHKN   00027   4        FSDEV  00060   1        MM     00070   1        READ   00035   4        UFD    00123 A 1
      DD     00054   1        FSDLM  00061   1        MSK1   00071   1        SETF   00036   4        UF     00124 A 1
      EOFERR 00030   4        FSDLU  00062   1        MSK2   00072   1        SET    00037   4        XIT    00040   4
      EOF    00031   4        FSMOD  00063   1        MXARG  00073 A 1        STAR   00077 A 1        YY     00125   1
      EOFXIT 00032   4
0FUNCTION DICTIONARY
      ATTNAM 00000   1        BCDEC  00001   1        BCOCT  00002   1        BFCLOS 00003   1        BFOPEN 00004   1
      BFREAD 00005   1        CHNCOM 00006   1        COMARG 00007   1        EXIT   00010   1        FERRTN 00011   1
      FSTATE 00012   1        GETBUF 00013   1        GTDYTM 00014   1        .SETUP 00015   1        NAMASK 00016   1
      NEXCOM 00017   1        PRMESS 00020   1        SETFIL 00021   1        UPDATE 00022   1        ZEL    00023   1
      FSDATE 00024   1        FSTIME 00025   1
0ABSOLUTE CONSTANTS
 00133 +000000000006     00137 +000000000012     00147 +000000000074     00206 -036063314425     00146 +000000000073
 00136 +000000000011     00156 +000077770000     00150 +000000000077     00152 +000000003300     00153 +000000007700
 00144 +000000000033     00142 +000000000027     00141 +000000000022     00177 +333333333360     00205 -036024216325
 00175 +314343252721     00145 +000000000037     00227 -206060606060     00154 +000000007777     00140 +000000000014
 00143 +000000000030     00201 -000000000071     00214 -075145632551     00217 -146060606060     00176 +332633243360
 00165 +243145276064     00215 -114560512521     00171 +266051256364     00162 +222124602546     00134 +000000000007
 00216 -116060606060     00151 +000000000660     00130 +000000000002     00132 +000000000004     00155 +000000777777
 00232 -377777000000     00200 +336060606060     00223 -202631432562     00231 -234660452566     00226 -204645437060
 00173 +312321224325     00167 +256021474743     00174 +312325602151     00211 -052460242565     00207 -044624256021
 00135 +000000000010     00166 +251460606060     00221 -202330214527     00160 +214560144546     00230 -206346604425
 00163 +222560145414     00172 +276044217060     00161 +214570602151     00202 -033125626060     00213 -064560214747
 00212 -056525456331     00157 +145414602346     00203 -033162632660     00170 +256560606060     00210 -044624256024
 00220 -202164633060     00204 -034460244364     00222 -202443446063     00225 -204521442502     00224 -204521442501
 00126 +000000000000     00131 +000000000003     00127 +000000000001     00164 +233000000000
0STATEMENT DICTIONARY
 00027 TXL -300275000271       00030 TXL -300761000753       00031 TXL -300753000747       00032 TXL -300765000761
 00033 TXL -300772000771       00034 TXL -300472000470       00035 TXL -300640000631       00036 TXL -300740000723
 00037 TXL -300701000673       00040 TXL -300767000765
0PROGRAM
                 N'S INTEGER                                                        001  LM00010
                 BOOLEAN RDUFD                                                      002  LM00011
                 D'N TEMP(8), BUF1(0), BUF2(0), ARG(8), UFD(7)                      003  LM00012
                 DEFINE UNARY OPERATOR .CAL., PRECEDENCE SAME AS =                  004  LM00014
                 MODE STRUCTURE .CAL. 1 TO 1                                        005  LM00015
 00233 TSX +0 07400 4 00015
                 DEFINE UNARY OPERATOR .LDQ., PRECEDENCE SAME AS =                  009  LM00019
                 MODE STRUCTURE .LDQ. 1 TO 1                                        010  LM00020
                 FERRTN.(ERR)                                                       014  LM00025
 00234 TSX +0 07400 4 00011    00235 TXH +3 00000 0 00033
                 T'H ARGS, FOR I=1,1,I.G.MXARG                                      015  LM00026
 00236 CLA +0 50000 0 00127    00237 STO +0 60100 0 00066    00240 TRA +0 02000 0 00244    00241 CLA +0 50000 0 00066
 00242 ADD +0 40000 0 00127    00243 STO +0 60100 0 00066    00244 CLA +0 50000 0 00066    00245 SUB +0 40200 0 00073
 00246 TZE +0 10000 0 00250    00247 TPL +0 12000 0 00267
                   TEMP=COMARG.(I)                                                  016  LM00027
 00250 TSX +0 07400 4 00007    00251 TXH +3 00000 0 00066    00252 STO +0 60100 0 00110
                   W'R TEMP.E.FNS                                                   017  LM00028
 00253 CLA +0 50000 0 00110    00254 SUB +0 40200 0 00056    00255 TNZ -0 10000 0 00263
                     NARG=I-1                                                       018  LM00029
 00256 CLA +0 50000 0 00066    00257 SUB +0 40200 0 00127    00260 STO +0 60100 0 00074
                     T'O CHKN                                                       019  LM00030
 00261 TRA +0 02000 0 00027
                   O'E                                                              020  LM00031
 00262 TRA +0 02000 0 00266
                     ARG(I)=TEMP                                                    021  LM00032
 00263 LXA +0 53400 1 00066    00264 CLA +0 50000 0 00110    00265 STO +0 60100 1 00051
                   E'L                                                              022  LM00033
      ARGS       CONTINUE                                                           023  LM00034
 00266 TRA +0 02000 0 00241
                 NARG=MXARG                                                         024  LM00035
 00267 CLA +0 50000 0 00073    00270 STO +0 60100 0 00074
      CHKN       W'R NARG.L.3                                                       025  LM00036
 00271 CLA +0 50000 0 00074    00272 SUB +0 40200 0 00131    00273 TZE +0 10000 0 00331    00274 TPL +0 12000 0 00331
                   PRMESS.(COMARG.(0),$ NAME1 NAME2 DLM TLM DLU AUTH MODE DEV$      026  LM00037
                1  )                                                                026  LM00038
 00275 TSX +0 07400 4 00007    00276 TXH +3 00000 0 00126    00277 STO +0 60100 0 01263    00300 TSX +0 07400 4 00020
 00301 TXH +3 00000 0 01263    00302 TXH +3 00000 0 00224    00303 TXH +3 00000 0 00225    00304 TXH +3 00000 0 00222
 00305 TXH +3 00000 0 00204    00306 TXH +3 00000 0 00220    00307 TXH +3 00000 0 00210    00310 TXH +3 00000 0 00170
                   PRMESS.($LISTF '*' CONVENTION APPLIES$)                          027  LM00039
 00311 TSX +0 07400 4 00020    00312 TXH +3 00000 0 00203    00313 TXH +3 00000 0 00157    00314 TXH +3 00000 0 00212
 00315 TXH +3 00000 0 00213    00316 TXH +3 00000 0 00202
                   PRMESS.($ANY ARG MAY BE '*' TO MEAN 'NO CHANGE'$)                028  LM00040
 00317 TSX +0 07400 4 00020    00320 TXH +3 00000 0 00161    00321 TXH +3 00000 0 00172    00322 TXH +3 00000 0 00163
 00323 TXH +3 00000 0 00230    00324 TXH +3 00000 0 00160    00325 TXH +3 00000 0 00221    00326 TXH +3 00000 0 00166
                   CHNCOM.(0)                                                       029  LM00041
 00327 TSX +0 07400 4 00006    00330 TXH +3 00000 0 00126
                 E'L                                                                030  LM00042
                 MSK1=NAMASK.(ARG(1))                                               031  LM00044
 00331 TSX +0 07400 4 00016    00332 TXH +3 00000 0 00050    00333 STO +0 60100 0 00071
                 TNM1=ARG(1).A.MSK1                                                 032  LM00045
 00334 CAL -0 50000 0 00050    00335 ANA -0 32000 0 00071    00336 SLW +0 60200 0 00112
                 MSK2=NAMASK.(ARG(2))                                               033  LM00046
 00337 TSX +0 07400 4 00016    00340 TXH +3 00000 0 00047    00341 STO +0 60100 0 00072
                 TNM2=ARG(2).A.MSK2                                                 034  LM00047
 00342 CAL -0 50000 0 00047    00343 ANA -0 32000 0 00072    00344 SLW +0 60200 0 00113
                 W'R MSK1.A.MSK2.NE.FNS, RDUFD=1B                                   035  LM00048
 00345 CAL -0 50000 0 00071    00346 ANA -0 32000 0 00072    00347 SLW +0 60200 0 01263    00350 CLA +0 50000 0 01263
 00351 SUB +0 40200 0 00056    00352 TZE +0 10000 0 00355    00353 CLA +0 50000 0 00127    00354 STO +0 60100 0 00076
                 W'R ARG(3).NE.STAR, FSDLM=FSDATE.(ARG(3))                          036  LM00050
 00355 CLA +0 50000 0 00046    00356 SUB +0 40200 0 00077    00357 TZE +0 10000 0 00363    00360 TSX +0 07400 4 00024
 00361 TXH +3 00000 0 00046    00362 STO +0 60100 0 00061
                 W'R ARG(4).NE.STAR, FSTLM=FSTIME.(ARG(4))                          037  LM00051
 00363 CLA +0 50000 0 00045    00364 SUB +0 40200 0 00077    00365 TZE +0 10000 0 00371    00366 TSX +0 07400 4 00025
 00367 TXH +3 00000 0 00045    00370 STO +0 60100 0 00064
                 W'R ARG(5).NE.STAR, FSDLU=FSDATE.(ARG(5))                          038  LM00052
 00371 CLA +0 50000 0 00044    00372 SUB +0 40200 0 00077    00373 TZE +0 10000 0 00377    00374 TSX +0 07400 4 00024
 00375 TXH +3 00000 0 00044    00376 STO +0 60100 0 00062
                 W'R ARG(6).NE.STAR, FSAUT=BCDEC.(ZEL.(ARG(6)))                     039  LM00053
 00377 CLA +0 50000 0 00043    00400 SUB +0 40200 0 00077    00401 TZE +0 10000 0 00410    00402 TSX +0 07400 4 00023
 00403 TXH +3 00000 0 00043    00404 STO +0 60100 0 01263    00405 TSX +0 07400 4 00001    00406 TXH +3 00000 0 01263
 00407 STO +0 60100 0 00057
                 W'R ARG(7).NE.STAR, FSMOD=BCOCT.(ARG(7))                           040  LM00054
 00410 CLA +0 50000 0 00042    00411 SUB +0 40200 0 00077    00412 TZE +0 10000 0 00416    00413 TSX +0 07400 4 00002
 00414 TXH +3 00000 0 00042    00415 STO +0 60100 0 00063
                 W'R ARG(8).NE.STAR, FSDEV=BCDEC.(ARG(8))                           041  LM00055
 00416 CLA +0 50000 0 00041    00417 SUB +0 40200 0 00077    00420 TZE +0 10000 0 00424    00421 TSX +0 07400 4 00001
 00422 TXH +3 00000 0 00041    00423 STO +0 60100 0 00060
                 W'R .NOT.RDUFD                                                     042  LM00057
 00424 ZET +0 52000 0 00076    00425 TRA +0 02000 0 00543
                   FSTATE.(ARG(1),ARG(2),TEMP(8)...8,NOFILE)                        043  LM00058
 00426 TSX +0 07400 4 00012    00427 TXH +3 00000 0 00050    00430 TXH +3 00000 0 00047    00431 TIX +2 00135 0 00100
 00432 TXH +3 00000 0 00034
                   W'R ARG(7).NE.STAR.OR.ARG(8).NE.STAR,                            044  LM00059
                1  PRMESS.($MODE AND DEVICE ARE APPLICABLE ONLY TO NEW FILES.$      044  LM00060
                1    )                                                              044  LM00061
 00433 CLA +0 50000 0 00041    00434 SUB +0 40200 0 00077    00435 TNZ -0 10000 0 00441    00436 CLA +0 50000 0 00042
 00437 SUB +0 40200 0 00077    00440 TZE +0 10000 0 00453    00441 TSX +0 07400 4 00020    00442 TXH +3 00000 0 00207
 00443 TXH +3 00000 0 00211    00444 TXH +3 00000 0 00174    00445 TXH +3 00000 0 00167    00446 TXH +3 00000 0 00173
 00447 TXH +3 00000 0 00226    00450 TXH +3 00000 0 00231    00451 TXH +3 00000 0 00223    00452 TXH +3 00000 0 00200
                   UFD(7)=ARG(1)                                                    045  LM00062
 00453 CLA +0 50000 0 00050    00454 STO +0 60100 0 00114
                   UFD(6)=ARG(2)                                                    046  LM00063
 00455 CLA +0 50000 0 00047    00456 STO +0 60100 0 00115
                   UFD(5)=TEMP(2)                                                   047  LM00064
 00457 CLA +0 50000 0 00106    00460 STO +0 60100 0 00116
                   UFD(4)=TEMP(1)                                                   048  LM00065
 00461 CLA +0 50000 0 00107    00462 STO +0 60100 0 00117
                   FSMOD=-0                                                         049  LM00066
 00463 CLS +0 50200 0 00126    00464 STO +0 60100 0 00063
                   FSDEV=-0                                                         050  LM00067
 00465 CLS +0 50200 0 00126    00466 STO +0 60100 0 00060
                   T'O SET                                                          051  LM00068
 00467 TRA +0 02000 0 00037
      NOFILE     UFD(7)=ARG(1)                                                      052  LM00069
 00470 CLA +0 50000 0 00050    00471 STO +0 60100 0 00114
                 UFD(6)=ARG(2)                                                      053  LM00070
 00472 CLA +0 50000 0 00047    00473 STO +0 60100 0 00115
                   TEMP=GTDYTM.(0)                                                  054  LM00071
 00474 TSX +0 07400 4 00014    00475 TXH +3 00000 0 00126    00476 STO +0 60100 0 00110
                   W'R ARG(3).E.STAR, FSDLM=TEMP.A.777777K6                         055  LM00072
 00477 CLA +0 50000 0 00046    00500 SUB +0 40200 0 00077    00501 TNZ -0 10000 0 00505    00502 CAL -0 50000 0 00110
 00503 ANA -0 32000 0 00232    00504 SLW +0 60200 0 00061
                   W'R ARG(4).E.STAR, FSTLM=TEMP.A.777777K                          056  LM00073
 00505 CLA +0 50000 0 00045    00506 SUB +0 40200 0 00077    00507 TNZ -0 10000 0 00513    00510 CAL -0 50000 0 00110
 00511 ANA -0 32000 0 00155    00512 SLW +0 60200 0 00064
                   W'R ARG(5).E.STAR, FSDLU=TEMP.A.777777K6                         057  LM00074
 00513 CLA +0 50000 0 00044    00514 SUB +0 40200 0 00077    00515 TNZ -0 10000 0 00521    00516 CAL -0 50000 0 00110
 00517 ANA -0 32000 0 00232    00520 SLW +0 60200 0 00062
                   ATTNAM.(TEMP(3)...4)                                             058  LM00075
 00521 TSX +0 07400 4 00000    00522 TIX +2 00132 0 00105
                   W'R ARG(6).E.STAR, FSAUT=TEMP(1)                                 059  LM00076
 00523 CLA +0 50000 0 00043    00524 SUB +0 40200 0 00077    00525 TNZ -0 10000 0 00530    00526 CLA +0 50000 0 00107
 00527 STO +0 60100 0 00057
                   W'R ARG(7).E.STAR, FSMOD=0                                       060  LM00077
 00530 CLA +0 50000 0 00042    00531 SUB +0 40200 0 00077    00532 TNZ -0 10000 0 00535    00533 CLA +0 50000 0 00126
 00534 STO +0 60100 0 00063
                   W'R ARG(8).E.STAR, FSDEV=2                                       061  LM00078
 00535 CLA +0 50000 0 00041    00536 SUB +0 40200 0 00077    00537 TNZ -0 10000 0 00542    00540 CLA +0 50000 0 00130
 00541 STO +0 60100 0 00060
                   T'O SETF                                                         062  LM00079
 00542 TRA +0 02000 0 00036
                 E'L                                                                063  LM00080
                 W'R ARG(7).NE.STAR.OR.ARG(8).NE.STAR,                              064  LM00082
                1  PRMESS.($MODE AND DEVICE ARE APPLICABLE ONLY TO NEW FILES.$      064  LM00083
                1    )                                                              064  LM00084
 00543 CLA +0 50000 0 00041    00544 SUB +0 40200 0 00077    00545 TNZ -0 10000 0 00551    00546 CLA +0 50000 0 00042
 00547 SUB +0 40200 0 00077    00550 TZE +0 10000 0 00563    00551 TSX +0 07400 4 00020    00552 TXH +3 00000 0 00207
 00553 TXH +3 00000 0 00211    00554 TXH +3 00000 0 00174    00555 TXH +3 00000 0 00167    00556 TXH +3 00000 0 00173
 00557 TXH +3 00000 0 00226    00560 TXH +3 00000 0 00231    00561 TXH +3 00000 0 00223    00562 TXH +3 00000 0 00200
                 UPDATE.                                                            065  LM00085
 00563 TSX +0 07400 4 00022
                 TEMP=0                                                             066  LM00086
 00564 CLA +0 50000 0 00126    00565 STO +0 60100 0 00110
                 GETBUF.(BUF1,432)                                                  067  LM00087
 00566 TSX +0 07400 4 00013    00567 TXH +3 00000 0 00052    00570 TXH +3 00000 0 00151
                 GETBUF.(BUF2,432)                                                  068  LM00088
 00571 TSX +0 07400 4 00013    00572 TXH +3 00000 0 00053    00573 TXH +3 00000 0 00151
                 BFOPEN.($R$,UF,FI,BUF1(BUF1+432),BUF2(BUF2+432),-0,ERR)            069  LM00089
 00574 CLS +0 50200 0 00126    00575 STO +0 60100 0 01263    00576 CLA +0 50000 0 00053    00577 ADD +0 40000 0 00151
 00600 SUB +0 40200 0 00601    00601 TXH +3 00000 0 00053    00602 STA +0 62100 0 00615    00603 CLA +0 50000 0 00052
 00604 ADD +0 40000 0 00151    00605 SUB +0 40200 0 00606    00606 TXH +3 00000 0 00052    00607 STA +0 62100 0 00614
 00610 TSX +0 07400 4 00004    00611 TXH +3 00000 0 00216    00612 TXH +3 00000 0 00124    00613 TXH +3 00000 0 00055
 00614 TXH +3 00000 0 00000    00615 TXH +3 00000 0 00000    00616 TXH +3 00000 0 01263    00617 TXH +3 00000 0 00033
                 BFREAD.(UF,FI,TEMP(3)...3,EOFERR,TEMP,ERR)                         070  LM00090
 00620 TSX +0 07400 4 00005    00621 TXH +3 00000 0 00124    00622 TXH +3 00000 0 00055    00623 TIX +2 00131 0 00105
 00624 TXH +3 00000 0 00030    00625 TXH +3 00000 0 00110    00626 TXH +3 00000 0 00033
                 N=0                                                                071  LM00091
 00627 CLA +0 50000 0 00126    00630 STO +0 60100 0 00075
      READ       BFREAD.(UF,FI,UFD(7)...7,EOF,TEMP,ERR)                             072  LM00092
 00631 TSX +0 07400 4 00005    00632 TXH +3 00000 0 00124    00633 TXH +3 00000 0 00055    00634 TIX +2 00134 0 00114
 00635 TXH +3 00000 0 00031    00636 TXH +3 00000 0 00110    00637 TXH +3 00000 0 00033
                 W'R UFD(7).V.UFD(6).E.0, T'O READ                                  073  LM00093
 00640 CAL -0 50000 0 00114    00641 ORA -0 50100 0 00115    00642 SLW +0 60200 0 01263    00643 CLA +0 50000 0 01263
 00644 SUB +0 40200 0 00126    00645 TNZ -0 10000 0 00647    00646 TRA +0 02000 0 00035
                 W'R UFD(7).A.MSK1.NE.TNM1.OR.UFD(6).A.MSK2.NE.TNM2, T'O READ       074  LM00094
 00647 CAL -0 50000 0 00115    00650 ANA -0 32000 0 00072    00651 SLW +0 60200 0 01263    00652 CLA +0 50000 0 01263
 00653 SUB +0 40200 0 00113    00654 TNZ -0 10000 0 00663    00655 CAL -0 50000 0 00114    00656 ANA -0 32000 0 00071
 00657 SLW +0 60200 0 01263    00660 CLA +0 50000 0 01263    00661 SUB +0 40200 0 00112    00662 TZE +0 10000 0 00664
 00663 TRA +0 02000 0 00035
                 W'R UFD(3).A.LINK.E.0, T'O READ                                    075  LM00095
 00664 CAL -0 50000 0 00120    00665 ANA -0 32000 0 00067    00666 SLW +0 60200 0 01263    00667 CLA +0 50000 0 01263
 00670 SUB +0 40200 0 00126    00671 TNZ -0 10000 0 00673    00672 TRA +0 02000 0 00035
      SET        W'R ARG(3).E.STAR, FSDLM=UFD(5).A.777777K6                         076  LM00097
 00673 CLA +0 50000 0 00046    00674 SUB +0 40200 0 00077    00675 TNZ -0 10000 0 00701    00676 CAL -0 50000 0 00116
 00677 ANA -0 32000 0 00232    00700 SLW +0 60200 0 00061
                 W'R ARG(4).E.STAR, FSTLM=UFD(5).A.777777K                          077  LM00098
 00701 CLA +0 50000 0 00045    00702 SUB +0 40200 0 00077    00703 TNZ -0 10000 0 00707    00704 CAL -0 50000 0 00116
 00705 ANA -0 32000 0 00155    00706 SLW +0 60200 0 00064
                 W'R ARG(5).E.STAR, FSDLU=UFD(4).A.777777K6                         078  LM00099
 00707 CLA +0 50000 0 00044    00710 SUB +0 40200 0 00077    00711 TNZ -0 10000 0 00715    00712 CAL -0 50000 0 00117
 00713 ANA -0 32000 0 00232    00714 SLW +0 60200 0 00062
                 W'R ARG(6).E.STAR, FSAUT=UFD(4).A.777777K                          079  LM00100
 00715 CLA +0 50000 0 00043    00716 SUB +0 40200 0 00077    00717 TNZ -0 10000 0 00723    00720 CAL -0 50000 0 00117
 00721 ANA -0 32000 0 00155    00722 SLW +0 60200 0 00057
      SETF       SETFIL.(UFD(7),UFD(6),FSDLM.V.FSTLM,FSDLU.V.FSAUT,FSMOD,FSDEV      080  LM00101
                1  )                                                                080  LM00102
 00723 CAL -0 50000 0 00062    00724 ORA -0 50100 0 00057    00725 SLW +0 60200 0 01263    00726 CAL -0 50000 0 00061
 00727 ORA -0 50100 0 00064    00730 SLW +0 60200 0 01264    00731 TSX +0 07400 4 00021    00732 TXH +3 00000 0 00114
 00733 TXH +3 00000 0 00115    00734 TXH +3 00000 0 01264    00735 TXH +3 00000 0 01263    00736 TXH +3 00000 0 00063
 00737 TXH +3 00000 0 00060
                 N=N+1                                                              081  LM00103
 00740 CLA +0 50000 0 00075    00741 ADD +0 40000 0 00127    00742 STO +0 60100 0 00075
                 W'R .NOT.RDUFD, T'O XIT                                            082  LM00104
 00743 ZET +0 52000 0 00076    00744 TRA +0 02000 0 00746    00745 TRA +0 02000 0 00040
                 T'O READ                                                           083  LM00105
 00746 TRA +0 02000 0 00035
      EOF        W'R TEMP.E.0, T'O EOFXIT                                           084  LM00107
 00747 CLA +0 50000 0 00110    00750 SUB +0 40200 0 00126    00751 TNZ -0 10000 0 00753    00752 TRA +0 02000 0 00032
      EOFERR     PRMESS.($BAD EOF RETURN READING U.F.D.$)                           085  LM00108
 00753 TSX +0 07400 4 00020    00754 TXH +3 00000 0 00162    00755 TXH +3 00000 0 00171    00756 TXH +3 00000 0 00215
 00757 TXH +3 00000 0 00165    00760 TXH +3 00000 0 00176
      EOFXIT     BFCLOS.(UF,FI,ERR)                                                 086  LM00109
 00761 TSX +0 07400 4 00003    00762 TXH +3 00000 0 00124    00763 TXH +3 00000 0 00055    00764 TXH +3 00000 0 00033
      XIT        PRMESS.($*$)                                                       087  LM00110
 00765 TSX +0 07400 4 00020    00766 TXH +3 00000 0 00217
                 CHNCOM.(0)                                                         088  LM00111
 00767 TSX +0 07400 4 00006    00770 TXH +3 00000 0 00126
      ERR        .CAL. $PRNTER$                                                     089  LM00113
 00771 CAL -0 50000 0 00214
                 .LDQ. 400000000071K                                                090  LM00114
 00772 LDQ +0 56000 0 00201
                 NEXCOM.                                                            091  LM00115
 00773 TSX +0 07400 4 00017
                 V'S STAR=$     *$                                                  092  LM00117
 00077     -2 06060 6 06054
                 V'S ARG(1)=$     *     *     *     *     *     *     *     *$      093  LM00118
 00041     -2 06060 6 06054    00042     -2 06060 6 06054    00043     -2 06060 6 06054    00044     -2 06060 6 06054
 00045     -2 06060 6 06054    00046     -2 06060 6 06054    00047     -2 06060 6 06054    00050     -2 06060 6 06054
                 V'S LINK=7K5                                                       094  LM00119
 00067     +0 00000 7 00000
                 V'S RDUFD=0B                                                       095  LM00120
 00076     +0 00000 0 00000
                 V'S FNS=777777777777K                                              096  LM00121
 00056     -3 77777 7 77777
                 V'S MXARG=8                                                        097  LM00122
 00073     +0 00000 0 00010
                 V'S UF=$U.F.D.$                                                    098  LM00123
 00124     -2 43326 3 32433
                 V'S FI=$(FILE)$                                                    099  LM00124
 00055     -3 42631 4 32534
                 INTERNAL FUNCTION (GNU)                                            100  LM00126
 00774 TRA +0 02000 0 01262
                 ENTRY TO FSDATE.                                                   101  LM00127
 00775 TRA +0 02000 0 01000    00024 TTR +0 02100 0 00776    00776 SXA +0 63400 2 01235    00777 TSX +0 07400 2 01235
                   MM=BCDEC.((ZEL.(GNU)).RS.24)                                     102  LM00128
 01000 TSX +0 07400 4 00023    01001 TXH +3 00000 0 00024    01002 STO +0 60100 0 01260    01003 CAL -0 50000 0 00143
 01004 STA +0 62100 0 01006    01005 CAL -0 50000 0 01260    01006 LGR -0 76500 0 00000    01007 SLW +0 60200 0 01260
 01010 TSX +0 07400 4 00001    01011 TXH +3 00000 0 01260    01012 STO +0 60100 0 00070
                   DD=BCDEC.((GNU.RS.12).A.7777K)                                   103  LM00129
 01013 CAL -0 50000 0 00140    01014 STA +0 62100 0 01016    01015 CAL -0 50000 0 00024    01016 LGR -0 76500 0 00000
 01017 ANA -0 32000 0 00154    01020 SLW +0 60200 0 01260    01021 TSX +0 07400 4 00001    01022 TXH +3 00000 0 01260
 01023 STO +0 60100 0 00054
                   YY=BCDEC.(GNU.A.7777K)                                           104  LM00130
 01024 CAL -0 50000 0 00024    01025 ANA -0 32000 0 00154    01026 SLW +0 60200 0 01260    01027 TSX +0 07400 4 00001
 01030 TXH +3 00000 0 01260    01031 STO +0 60100 0 00125
                   W'R MM.G.12.OR.DD.G.31.OR.ZEL.(GNU).A.$ $.NE.0                   105  LM00131
                1    .OR.MM.E.0.OR.DD.E.0.OR.YY.E.0                                 105  LM00132
 01032 CLA +0 50000 0 00125    01033 SUB +0 40200 0 00126    01034 TZE +0 10000 0 01064    01035 CLA +0 50000 0 00054
 01036 SUB +0 40200 0 00126    01037 TZE +0 10000 0 01064    01040 CLA +0 50000 0 00070    01041 SUB +0 40200 0 00126
 01042 TZE +0 10000 0 01064    01043 TSX +0 07400 4 00023    01044 TXH +3 00000 0 00024    01045 STO +0 60100 0 01260
 01046 CAL -0 50000 0 01260    01047 ANA -0 32000 0 00227    01050 SLW +0 60200 0 01260    01051 CLA +0 50000 0 01260
 01052 SUB +0 40200 0 00126    01053 TNZ -0 10000 0 01064    01054 CLA +0 50000 0 00054    01055 SUB +0 40200 0 00145
 01056 TZE +0 10000 0 01060    01057 TPL +0 12000 0 01064    01060 CLA +0 50000 0 00070    01061 SUB +0 40200 0 00140
 01062 TZE +0 10000 0 01072    01063 TMI -0 12000 0 01072
                     PRMESS.($ILLEGAL DATE.....$,GNU)                               106  LM00133
 01064 TSX +0 07400 4 00020    01065 TXH +3 00000 0 00175    01066 TXH +3 00000 0 00205    01067 TXH +3 00000 0 00177
 01070 TXH +3 00000 0 00024
                     T'O XIT                                                        107  LM00134
 01071 TRA +0 02000 0 00040
                   E'L                                                              108  LM00135
                   F'N (YY.LS.27).V.(MM.LS.23).V.(DD.LS.18)                         109  LM00136
 01072 CAL -0 50000 0 00141    01073 STA +0 62100 0 01075    01074 CAL -0 50000 0 00054    01075 ALS +0 76700 0 00000
 01076 SLW +0 60200 0 01260    01077 CAL -0 50000 0 00142    01100 STA +0 62100 0 01102    01101 CAL -0 50000 0 00070
 01102 ALS +0 76700 0 00000    01103 SLW +0 60200 0 01261    01104 CAL -0 50000 0 00144    01105 STA +0 62100 0 01107
 01106 CAL -0 50000 0 00125    01107 ALS +0 76700 0 00000    01110 ORA -0 50100 0 01261    01111 ORA -0 50100 0 01260
 01112 SLW +0 60200 0 01261    01113 CLA +0 50000 0 01261    01114 TRA +0 02000 0 01254
                 ENTRY TO FSTIME.                                                   110  LM00137
 01115 TRA +0 02000 0 01120    00025 TTR +0 02100 0 01116    01116 SXA +0 63400 2 01235    01117 TSX +0 07400 2 01235
                   W'R GNU.A.77K2.E.$0000.0$                                        111  LM00138
 01120 CAL -0 50000 0 00024    01121 ANA -0 32000 0 00153    01122 SLW +0 60200 0 01261    01123 CLA +0 50000 0 01261
 01124 SUB +0 40200 0 00152    01125 TNZ -0 10000 0 01142
                     TEMP=ZEL.(GNU.RS.12)                                           112  LM00139
 01126 CAL -0 50000 0 00140    01127 STA +0 62100 0 01131    01130 CAL -0 50000 0 00024    01131 LGR -0 76500 0 00000
 01132 SLW +0 60200 0 01261    01133 TSX +0 07400 4 00023    01134 TXH +3 00000 0 01261    01135 STO +0 60100 0 00110
                     TM=GNU.A.77K                                                   113  LM00140
 01136 CAL -0 50000 0 00024    01137 ANA -0 32000 0 00150    01140 SLW +0 60200 0 00111
                   O'E                                                              114  LM00141
 01141 TRA +0 02000 0 01147
                     TEMP=ZEL.(GNU)                                                 115  LM00142
 01142 TSX +0 07400 4 00023    01143 TXH +3 00000 0 00024    01144 STO +0 60100 0 00110
                     TM=0                                                           116  LM00143
 01145 CLA +0 50000 0 00126    01146 STO +0 60100 0 00111
                   E'L                                                              117  LM00144
                   HH=BCDEC.((TEMP.A.7777K4).RS.12)                                 118  LM00145
 01147 CAL -0 50000 0 00110    01150 ANA -0 32000 0 00156    01151 SLW +0 60200 0 01261    01152 CAL -0 50000 0 00140
 01153 STA +0 62100 0 01155    01154 CAL -0 50000 0 01261    01155 LGR -0 76500 0 00000    01156 SLW +0 60200 0 01261
 01157 TSX +0 07400 4 00001    01160 TXH +3 00000 0 01261    01161 STO +0 60100 0 00065
                   MM=BCDEC.(TEMP.A.7777K)                                          119  LM00146
 01162 CAL -0 50000 0 00110    01163 ANA -0 32000 0 00154    01164 SLW +0 60200 0 01261    01165 TSX +0 07400 4 00001
 01166 TXH +3 00000 0 01261    01167 STO +0 60100 0 00070
                   W'R HH.G.23.OR.MM.G.59.OR.TM.G.9.OR.TEMP.A.$ $.NE.0              120  LM00147
 01170 CAL -0 50000 0 00110    01171 ANA -0 32000 0 00227    01172 SLW +0 60200 0 01261    01173 CLA +0 50000 0 01261
 01174 SUB +0 40200 0 00126    01175 TNZ -0 10000 0 01212    01176 CLA +0 50000 0 00111    01177 SUB +0 40200 0 00136
 01200 TZE +0 10000 0 01202    01201 TPL +0 12000 0 01212    01202 CLA +0 50000 0 00070    01203 SUB +0 40200 0 00146
 01204 TZE +0 10000 0 01206    01205 TPL +0 12000 0 01212    01206 CLA +0 50000 0 00065    01207 SUB +0 40200 0 00142
 01210 TZE +0 10000 0 01220    01211 TMI -0 12000 0 01220
                     PRMESS.($ILLEGAL TIME.....$,GNU)                               121  LM00148
 01212 TSX +0 07400 4 00020    01213 TXH +3 00000 0 00175    01214 TXH +3 00000 0 00206    01215 TXH +3 00000 0 00177
 01216 TXH +3 00000 0 00024
                     T'O XIT                                                        122  LM00149
 01217 TRA +0 02000 0 00040
                   E'L                                                              123  LM00150
                   F'N ((HH*60+MM)*10+TM)*6                                         124  LM00151
 01220 LDQ +0 56000 0 00065    01221 MPY +0 20000 0 00147    01222 XCA +0 13100 0 00000    01223 ADD +0 40000 0 00070
 01224 XCA +0 13100 0 00000    01225 MPY +0 20000 0 00137    01226 XCA +0 13100 0 00000    01227 ADD +0 40000 0 00111
 01230 XCA +0 13100 0 00000    01231 MPY +0 20000 0 00133    01232 XCA +0 13100 0 00000    01233 TRA +0 02000 0 01254
                 E'N                                                                125  LM00152
 01234 TSX +0 07400 4 00010    01235 TXH +3 00000 0 00000    01236 SXD -0 63400 1 01235    01237 SXA +0 63400 4 01254
 01240 CLA +0 50000 4 00001    01241 STO +0 60100 0 01001    01242 STA +0 62100 0 01015    01243 STA +0 62100 0 01024
 01244 STO +0 60100 0 01044    01245 STO +0 60100 0 01070    01246 STA +0 62100 0 01120    01247 STA +0 62100 0 01130
 01250 STA +0 62100 0 01136    01251 STO +0 60100 0 01143    01252 STO +0 60100 0 01216    01253 TRA +0 02000 2 00001
 01254 AXT +0 77400 4 00000    01255 LXA +0 53400 2 01235    01256 LXD -0 53400 1 01235    01257 TRA +0 02000 4 00001
                 END OF PROGRAM                                                     126  LM00154
 01262 TSX +0 07400 4 00010


    SP   BCD 09/18/68 2320.1    2099         00000
1       MAIN PROGRAM FOR SP OR SD COMMAND                                                        PAGE 1

                              *  WRITEEN BY ROGER ROACH  9-6-67

        TRANSFER VECTOR
      00000  263151626360     FIRST

      00001  0074 00 4 00000         TSX     $FIRST,4
      00002  0101 00 0 00003         TIA     =HDEAD        SHOULD NEVER RETURN
                                     END

        LITERALS
      00003  242521246060
1       MAIN PROGRAM FOR SP OR SD COMMAND                                                        PAGE 1
                        POST PROCESSOR ASSEMBLY DATA

          4 IS THE FIRST LOCATION NOT USED BY THIS PROGRAM

0REFERENCES TO DEFINED SYMBOLS
          0  FIRST     1

0 NO ERROR IN ABOVE ASSEMBLY.
1     MAD PROGRAM LISTING ... ... ...                 FILE   SP000   MAD            02/08/68    1336.3
-
       SP        SYSTEM PATCH COMMAND. ALLOWS PATCHING IN CORE A                                       LM00001
                                                                                                       LM00002
                 FORMAT-SP P M A(1) B(1) C(1)...A(N) B(N) C(N)                                         LM00003
                 C(I) MAY BE AA,AR,RA,RR,OR OMITTED AND IMPLIED AR                                     LM00004
                 P,PROGRAM NAME,MAY BE OMITTED FOR ABSOLUTE PATCH                                      LM00005
                 M,LOCATION FROM WHICH PATCHING IS DONE.                                               LM00006
                                                                                                       LM00007
                  EXTERNAL FUNCTION                                                               *001 LM00008
                  ENTRY TO FIRST.                                                                 *002 LM00009
                  ENTRY TO SP.                                                                    *003 LM00010
                                                                                                       LM00011
                 ARGUMENT SCANNING                                                                     LM00012
      AA          THROUGH AA,FOR ARG=1,1,ARG.G.18.OR.COMARG.(ARG,ARG(ARG)).E.FE                   *004 LM00013
                1 NCE                                                                             *004 LM00014
                  ARG=ARG-1                                                                       *005 LM00015
                  WHENEVER ARG(ARG).E.$$,ARG=ARG-1                                                *006 LM00016
                                                                                                       LM00017
                                                                                                       LM00018
                 ARG IS THE SUBSCRIPT FOR LAST SIGNIFICANT ARGUMENT                                    LM00019
                                                                                                       LM00020
                  PAT=TOCT.(ARG(1))                                                               *007 LM00021
                    PAT=0 IF PROGRAM NAME IS GIVEN                                                     LM00022
                    PAT=1 IF ABSOLUTE PATCHING                                                         LM00023
                  WHENEVER ARG.L.4-PAT,TRANSFER TO ERROR1                                         *008 LM00024
                  WHENEVER TOCT.(ARG(2-PAT)).E.0,TRANSFER TO ERROR1                               *009 LM00025
                  WHENEVER PAT.E.0, EXECUTE BRFIL.(RPAT.)                                         *010 LM00026
                  EXECUTE APAT.                                                                   *011 LM00027
                                                                                                       LM00028
      ERROR1      EXECUTE PRNTP.(MESS1)                                                           *012 LM00029
                  EXECUTE CHNCOM.(0)                                                              *013 LM00030
                                                                                                       LM00031
                                                                                                       LM00032
                  VECTOR VALUES MESS1=$ INCORRECT FORMAT$,777777777777K                           *014 LM00033
                  VECTOR VALUES FENCE=777777777777K                                               *015 LM00034
                  DIMENSION ARG(19)                                                               *016 LM00035
                  PROGRAM COMMON ARG                                                              *017 LM00036
                  NORMAL MODE IS INTEGER                                                          *018 LM00037
                                                                                                       LM00038
                  END OF FUNCTION                                                                 *019 LM00039
1MAD PROGRAM,TYPE NOV 1963      (ALL NUMBERS ARE OCTAL)
0TOTAL LOCATIONS   00144 TRANSFER VECTOR LENGTH  00010 PROGRAM BEGINS    00027 FIRST UNUSED COMMON/ERASABLE  77435
0 PROGRAM IS AN EXTERNAL FUNCTION.   THE FOLLOWING ARE ENTRIES
      SP     00033   0        FIRST  00030   0
0VARIABLE STORAGE (A=ARRAY,C=COMMON,E=ERASABLE,DIGIT=MODE)
      AA     00010   4        ERROR1 00011   4        FENCE  00012 A 1        MESS1  00016 A 1        PAT    00017   1
      ARG    77461 AC1
0FUNCTION DICTIONARY
      APAT   00000   1        BRFIL  00001   1        CHNCOM 00002   1        COMARG 00003   1        EXIT   00004   1
      PRNTP  00005   1        RPAT   00006   1        TOCT   00007   1
0ABSOLUTE CONSTANTS
 00020 +000000000000     00022 +000000000002     00023 +000000000004     00026 -206060606060     00024 +000000000022
 00021 +000000000001     00025 +233000000000
0STATEMENT DICTIONARY
 00011 TXL -300127000125
0PROGRAM
                 EXTERNAL FUNCTION                                                  001  LM00008
                 ENTRY TO FIRST.                                                    002  LM00009
 00027 TRA +0 02000 0 00032    00030 SXA +0 63400 2 00132    00031 TSX +0 07400 2 00132
                 ENTRY TO SP.                                                       003  LM00010
 00032 TRA +0 02000 0 00035    00033 SXA +0 63400 2 00132    00034 TSX +0 07400 2 00132
      AA         THROUGH AA,FOR ARG=1,1,ARG.G.18.OR.COMARG.(ARG,ARG(ARG)).E.FE      004  LM00013
                1NCE                                                                004  LM00014
 00035 CLA +0 50000 0 00021    00036 STO +0 60100 0 77461    00037 TRA +0 02000 0 00043    00040 CLA +0 50000 0 77461
 00041 ADD +0 40000 0 00021    00042 STO +0 60100 0 77461    00043 CLA +0 50000 0 77461    00044 SUB +0 40200 0 00045
 00045 TXH +3 00000 0 77461    00046 STA +0 62100 0 00051    00047 TSX +0 07400 4 00003    00050 TXH +3 00000 0 77461
 00051 TXH +3 00000 0 00000    00052 SUB +0 40200 0 00012    00053 TZE +0 10000 0 00061    00054 CLA +0 50000 0 77461
 00055 SUB +0 40200 0 00024    00056 TZE +0 10000 0 00060    00057 TPL +0 12000 0 00061    00060 TRA +0 02000 0 00040
                 ARG=ARG-1                                                          005  LM00015
 00061 CLA +0 50000 0 77461    00062 SUB +0 40200 0 00021    00063 STO +0 60100 0 77461
                 WHENEVER ARG(ARG).E.$$,ARG=ARG-1                                   006  LM00016
 00064 LXA +0 53400 1 77461    00065 CLA +0 50000 1 77461    00066 SUB +0 40200 0 00026    00067 TNZ -0 10000 0 00073
 00070 CLA +0 50000 0 77461    00071 SUB +0 40200 0 00021    00072 STO +0 60100 0 77461
                 PAT=TOCT.(ARG(1))                                                  007  LM00021
 00073 TSX +0 07400 4 00007    00074 TXH +3 00000 0 77460    00075 STO +0 60100 0 00017
                 WHENEVER ARG.L.4-PAT,TRANSFER TO ERROR1                            008  LM00024
 00076 CLA +0 50000 0 00023    00077 SUB +0 40200 0 00017    00100 CHS +0 76000 0 00002    00101 ADD +0 40000 0 77461
 00102 TZE +0 10000 0 00105    00103 TPL +0 12000 0 00105    00104 TRA +0 02000 0 00011
                 WHENEVER TOCT.(ARG(2-PAT)).E.0,TRANSFER TO ERROR1                  009  LM00025
 00105 CLA +0 50000 0 00022    00106 SUB +0 40200 0 00017    00107 SUB +0 40200 0 00110    00110 TXH +3 00000 0 77461
 00111 STA +0 62100 0 00113    00112 TSX +0 07400 4 00007    00113 TXH +3 00000 0 00000    00114 SUB +0 40200 0 00020
 00115 TNZ -0 10000 0 00117    00116 TRA +0 02000 0 00011
                 WHENEVER PAT.E.0, EXECUTE BRFIL.(RPAT.)                            010  LM00026
 00117 CLA +0 50000 0 00017    00120 SUB +0 40200 0 00020    00121 TNZ -0 10000 0 00124    00122 TSX +0 07400 4 00001
 00123 TXH +3 00000 0 00006
                 EXECUTE APAT.                                                      011  LM00027
 00124 TSX +0 07400 4 00000
      ERROR1     EXECUTE PRNTP.(MESS1)                                              012  LM00029
 00125 TSX +0 07400 4 00005    00126 TXH +3 00000 0 00016
                 EXECUTE CHNCOM.(0)                                                 013  LM00030
 00127 TSX +0 07400 4 00002    00130 TXH +3 00000 0 00020
                 VECTOR VALUES MESS1=$ INCORRECT FORMAT$,777777777777K              014  LM00033
 00013     -3 77777 7 77777    00014     -0 65144 2 16360    00015     -1 12523 6 36026    00016     -2 03145 2 34651
                 VECTOR VALUES FENCE=777777777777K                                  015  LM00034
 00012     -3 77777 7 77777
                 DIMENSION ARG(19)                                                  016  LM00035
                 PROGRAM COMMON ARG                                                 017  LM00036
                 NORMAL MODE IS INTEGER                                             018  LM00037
                 END OF FUNCTION                                                    019  LM00039
 00131 TSX +0 07400 4 00004    00132 TXH +3 00000 0 00000    00133 SXD -0 63400 1 00132    00134 SXA +0 63400 4 00136
 00135 TRA +0 02000 2 00001    00136 AXT +0 77400 4 00000    00137 LXA +0 53400 2 00132    00140 LXD -0 53400 1 00132
 00141 TRA +0 02000 4 00001


 SPLIT   BCD 09/18/68 2320.1   17075         00000
