1     MAD PROGRAM LISTING ... ... ...                 FILE   SPLIT   MAD            02/08/68    1343.4
-
                 ..MAIN PROGRAM FOR CALLING SPLIT AND USE                                              LM00001
                 ..E.QUISENBERRY.....NOVEMBER 65                                                       LM00002
                  NORMAL MODE IS INTEGER                                                          *001 LM00003
                  WHENEVER COMARG.(0).E.$ SPLIT$,FIX.(0,SPLIT.)                                   *002 LM00004
                  WHENEVER COMARG.(0).E.$   USE$,FIX.(0,USE.)                                     *003 LM00005
                 SPLIT COMMAND                                                                         LM00006
                                                                                                       LM00007
                 FORMAT TO USE SPLIT                                                                   LM00008
                                                                                                       LM00009
                  SPLIT NAME1 NAME2 A1 S1 A2 S2 A3 ... AN SN                                           LM00010
                                                                                                       LM00011
                  NAME1 NAME2 IS FILE TO BE SPLIT                                                      LM00012
                  A1, A2,... ARE FILES TO BE CREATED                                                   LM00013
                     ALL SECONDARY NAMES WILL BE NAME2                                                 LM00014
                     ANY AI MAY = *, IF THE FILE FROM S(I-1) TO SI IS                                  LM00015
                         NOT WANTED.                                                                   LM00016
                     ANY AI MAY = NAME1                                                                LM00017
                     ALL PREVIOUS COPIES OF NEW FILES WILL BE DELETED,                                 LM00018
                         IF POSSIBLE.                                                                  LM00019
                  S1, S2,... ARE (NUMERICAL) DIVIDERS OF FILE                                          LM00020
                     MAY BE...SEQUENCE NUMBERS  FOR FILES OF 14 WORD RECORDS                           LM00021
                              RECORD NUMBERS  FOR MIXED LENGTH RECORDS, OR                             LM00022
                                 WHEN ARGUMENT (RCNO) IS USED.                                         LM00023
                              WORD COUNT  WHEN ARGUMENT (WDCT) IS USED                                 LM00024
                     OPTIONAL EXTRA ARGUMENT ((WDCT) OR (RCNO)), MAY                                   LM00025
                         APPEAR AFTER SPLIT OR AFTER NAME2.                                            LM00026
                 CAUTION..WHEN USING (WDCT) OPTION ON LINE-MARKED FILES,                               LM00027
                     REMEMBER THAT LINE MARK IS INCLUDED IN WORD COUNT.                                LM00028
                                                                                                       LM00029
                                                                                                       LM00030
                 SPLIT LOGIC                                                                           LM00031
                                                                                                       LM00032
                  UNLESS OTHERWISE INSTRUCTED, SPLIT WILL ASSUME SI TO BE                              LM00033
                     SEQUENCE NUMBER -- AS LONG AS RECORDS ARE 14 WORDS.                               LM00034
                                                                                                       LM00035
                  WHEN SI FALLS BETWEEN 2 SEQUENCE NUMBERS, FILE IS SPLIT                              LM00036
                     BETWEEN THEM.                                                                     LM00037
                  WHEN SI = SEQUENCE NUMBER, FILE IS SPLIT AFTER THE LINE.                             LM00038
                                                                                                       LM00039
                                                                                                       LM00040
                 LOGIC OF PROGRAM                                                                      LM00041
                                                                                                       LM00042
                  SWITCH = 0  SPLIT BY SEQUENCE NUMBER                                                 LM00043
                           1  SPLIT BY RECORD NUMBER                                                   LM00044
                           2  SPLIT BY WORD COUNT                                                      LM00045
                           3  NO MORE SPLITTING -- JUST COPY                                           LM00046
                                                                                                       LM00047
                                                                                                       LM00048
                                                                                                       LM00049
                                                                                                       LM00050
                  SPLIT MAD                                                                            LM00051
                                                                                                       LM00052
                  INTERNAL FUNCTION (LK)                                                          *004 LM00053
                  ENTRY TO SPLIT.                                                                 *005 LM00054
                                                                                                       LM00055
                                                                                                       LM00056
                  INITIALIZATION                                                                       LM00057
                                                                                                       LM00058
                  THROUGH SPLA1, FOR N=1,1,N.G.18 .OR. COMARG.(N,ARGS                             *006 LM00059
                1 (NOARGS)).E.FENCE                                                               *006 LM00060
                    WHENEVER ARGS(NOARGS) .E. HWDCT                                               *007 LM00061
                      WHENEVER NOARGS .G. 2, TRANSFER TO INVOP                                    *008 LM00062
                      SWITCH = 2                                                                  *009 LM00063
                      XSWTCH = 2                                                                  *010 LM00064
                    OR WHENEVER ARGS (NOARGS) .E. HRCCT                                           *011 LM00065
                      WHENEVER NOARGS.G.2, TRANSFER TO INVOP                                      *012 LM00066
                      SWITCH = 1                                                                  *013 LM00067
                      XSWTCH = 1                                                                  *014 LM00068
                    OTHERWISE                                                                     *015 LM00069
                      NOARGS = NOARGS+1                                                           *016 LM00070
                    END OF CONDITIONAL                                                            *017 LM00071
      SPLA1       CONTINUE                                                                        *018 LM00072
                  NOARGS = NOARGS-1                                                               *019 LM00073
                  WHENEVER NOARGS.LE.1                                                            *020 LM00074
                    EXECUTE PRNTP.(F1)                                                            *021 LM00075
                    EXECUTE CHNCOM.(0)                                                            *022 LM00076
                  END OF CONDITIONAL                                                              *023 LM00077
                                                                                                       LM00078
      SPLA2       WHENEVER FSTAT.(FILNAM) .E. 0                                                   *024 LM00079
                    F2(1) = FILNAM                                                                *025 LM00080
                    F2(2) = FILNAM(1)                                                             *026 LM00081
                    EXECUTE PRNTP.(F2)                                                            *027 LM00082
                    EXECUTE DORMNT.                                                               *028 LM00083
                  END OF CONDITIONAL                                                              *029 LM00084
                                                                                                       LM00085
                  BF1 = GETMEM.(0)+BUFFL                                                          *030 LM00086
                  BF2 = BF1+BUFFL                                                                 *031 LM00087
                  BF3 = BF2+BUFFL                                                                 *032 LM00088
                  BF4 = BF3 + BUFFL                                                               *033 LM00089
                  EXECUTE SMEM.(BF4+1)                                                            *034 LM00090
                  EXECUTE SEEK.(FILNAM,LK(-BF1),LK(-BF2))                                         *035 LM00091
                  NEWFIL(1) = FILNAM(1)                                                           *036 LM00092
                  EXECUTE SETEOF.(EOFILE)                                                         *037 LM00093
                  EXECUTE SETVBF.(14)                                                             *038 LM00094
                                                                                                       LM00095
                                                                                                       LM00096
                  GET NEXT PAIR OF ARGUMENTS                                                           LM00097
                                                                                                       LM00098
                  THROUGH RGLOOP, FOR ARGNO=2,2,ARGNO.G.NOARGS                                    *039 LM00099
                  NEWFIL = ARGS(ARGNO)                                                            *040 LM00100
      SPLA3       WORDS = 0                                                                       *041 LM00101
                    WHENEVER NEWFIL.E.FENCE                                                       *042 LM00102
                      TRANSFER TO END                                                             *043 LM00103
                    OR WHENEVER NEWFIL .E. STAR                                                   *044 LM00104
                      NOWRT = 1                                                                   *045 LM00105
                    OTHERWISE                                                                     *046 LM00106
                      NOWRT = 0                                                                   *047 LM00107
                      WHENEVER NEWFIL.E.FILNAM, NEWFIL = TEMP                                     *048 LM00108
                      WHENEVER SKIPRD.E.1 .OR. NOMORE.E.0,                                        *049 LM00109
                1       EXECUTE ASSIGN.(NEWFIL, LK(-BF3), LK(-BF4))                               *049 LM00110
                    END OF CONDITIONAL                                                            *050 LM00111
                                                                                                       LM00112
                    WHENEVER ARGNO+1 .G. NOARGS                                                   *051 LM00113
                      WHENEVER NEWFIL.E.STAR, TRANSFER TO END                                     *052 LM00114
                      SWITCH = 3                                                                  *053 LM00115
                      BSI = .ABS.FENCE                                                            *054 LM00116
                      WHENEVER SKIPRD.E.0, WC = 22                                                *055 LM00117
                    OTHERWISE                                                                     *056 LM00118
                      SI = ZEL.(ARGS(ARGNO+1))                                                    *057 LM00119
                      BSI = BCDEC.(SI)                                                            *058 LM00120
                      WHENEVER SWITCH.E.1 .OR. SWITCH.E.2                                         *059 LM00121
                        WC = BSI - RECNO                                                          *060 LM00122
                        WHENEVER WC.LE.0                                                          *061 LM00123
                          ALLFI = 0                                                               *062 LM00124
                          TRANSFER TO RGLOOP                                                      *063 LM00125
                        OR WHENEVER WC.G.22                                                       *064 LM00126
                          WC = 22                                                                 *065 LM00127
                        END OF CONDITIONAL                                                        *066 LM00128
                      END OF CONDITIONAL                                                          *067 LM00129
                    END OF CONDITIONAL                                                            *068 LM00130
                                                                                                       LM00131
                                                                                                       LM00132
                  READ NEXT RECORD                                                                     LM00133
                                                                                                       LM00134
      READ        WHENEVER SKIPRD.NE.0, TRANSFER TO BRANCH(SWITCH)                                *069 LM00135
                  WHENEVER NOMORE.E.1, TRANSFER TO EOFA1                                          *070 LM00136
                  WHENEVER SWITCH.GE.2, TRANSFER TO READ2                                         *071 LM00137
                  WC = VREAD.(FILNAM,BLOCK,...,BLOCK(21))                                         *072 LM00138
                  AWC = .ABS.WC                                                                   *073 LM00139
                  RECNO = RECNO+1                                                                 *074 LM00140
                  TRANSFER TO BRANCH(SWITCH)                                                      *075 LM00141
                                                                                                       LM00142
                                                                                                       LM00143
                  SPLIT BY SEQUENCE NUMBER                                                             LM00144
                                                                                                       LM00145
      BRANCH(0)   CONTINUE                                                                        *076 LM00146
                  CHARS = ZEL.(BLOCK(13)/CHAR4 + .ABS.(BLOCK(12)*CHAR3)/CHAR1)                    *077 LM00147
                  WHENEVER CHARS.G.$099999$ .OR. AWC.NE.14                                        *078 LM00148
                    WHENEVER ARGNO.E.2 .AND. RECNO.LE.BSI                                         *079 LM00149
                      SWITCH = 1                                                                  *080 LM00150
                      XSWTCH = 1                                                                  *081 LM00151
                      TRANSFER TO BRANCH(1)                                                       *082 LM00152
                    OTHERWISE                                                                     *083 LM00153
                      SWITCH = 3                                                                  *084 LM00154
                      CRASH = 1                                                                   *085 LM00155
                      TRANSFER TO CLOSE1                                                          *086 LM00156
                    END OF CONDITIONAL                                                            *087 LM00157
                  OR WHENEVER CHARO.LE.SI .AND. SI.L.CHARS                                        *088 LM00158
      CLOSE1        SKIPRD = 1                                                                    *089 LM00159
      CLOSE         WHENEVER NOWRT.E.1                                                            *090 LM00160
                    OR WHENEVER WORDS.E.0                                                         *091 LM00161
                      ALLFI = 0                                                                   *092 LM00162
                    OTHERWISE                                                                     *093 LM00163
                      WHENEVER DELETE.(NEWFIL).E.0 .AND. FSTAT.(NEWFIL).NE.0                      *094 LM00164
                        DFILE(DELNO) = NEWFIL                                                     *095 LM00165
                        DFILE (DELNO+1) = COMMA                                                   *096 LM00166
                        DELNO = DELNO+2                                                           *097 LM00167
                      END OF CONDITIONAL                                                          *098 LM00168
                      EXECUTE FILE.(NEWFIL)                                                       *099 LM00169
                      WHENEVER CRASH.E.2, TRANSFER TO RGLOOP                                      *100 LM00170
                      NFILE(FILNO) = NEWFIL                                                       *101 LM00171
                      NFILE(FILNO+1) = COMMA                                                      *102 LM00172
                      FILNO = FILNO +2                                                            *103 LM00173
                    END OF CONDITIONAL                                                            *104 LM00174
                    WHENEVER CRASH.E.1                                                            *105 LM00175
                      CRFILE(5) = CHARS                                                           *106 LM00176
                      CRFILE(8) = DEFBC.(RECNO)                                                   *107 LM00177
                      CRFIL = NEWFIL                                                              *108 LM00178
                      CRFIL(7) = FILNAM(1)                                                        *109 LM00179
                      NEWFIL = CRFIL(6)                                                           *110 LM00180
                      CRASH = 2                                                                   *111 LM00181
                      TRANSFER TO SPLA3                                                           *112 LM00182
                    END OF CONDITIONAL                                                            *113 LM00183
                    TRANSFER TO RGLOOP                                                            *114 LM00184
                  OTHERWISE                                                                       *115 LM00185
                    CHARO = CHARS                                                                 *116 LM00186
                                                                                                       LM00187
                                                                                                       LM00188
                  SPLIT BY RECORD NUMBER                                                               LM00189
                                                                                                       LM00190
      BRANCH(1)     CONTINUE                                                                      *117 LM00191
      BRANCH(3)     SKIPRD = 0                                                                    *118 LM00192
                    WHENEVER NOWRT.E.1, TRANSFER TO B0A1                                          *119 LM00193
                    WWC = 0                                                                       *120 LM00194
                    WHENEVER WC.L.0                                                               *121 LM00195
                      WWC = FWRITE.(NEWFIL,BLOCK,...,BLOCK(AWC-1))                                *122 LM00196
                    OR WHENEVER WC.G.0                                                            *123 LM00197
                      WWC = VWRITE.(NEWFIL,BLOCK,...,BLOCK(AWC-1))                                *124 LM00198
                    END OF CONDITIONAL                                                            *125 LM00199
                    WORDS = WORDS + .ABS.WWC                                                      *126 LM00200
      B0A1          WHENEVER SWITCH.E.0                                                           *127 LM00201
                      WHENEVER CHARS.E.SI, TRANSFER TO CLOSE                                      *128 LM00202
                    OR WHENEVER SWITCH.E.1                                                        *129 LM00203
                      WHENEVER RECNO.E.BSI, TRANSFER TO CLOSE                                     *130 LM00204
                    OTHERWISE                                                                     *131 LM00205
                      TRANSFER TO B2A1                                                            *132 LM00206
                    END OF CONDITIONAL                                                            *133 LM00207
                  END OF CONDITIONAL                                                              *134 LM00208
                  TRANSFER TO READ                                                                *135 LM00209
                                                                                                       LM00210
                                                                                                       LM00211
                  SPLIT BY WORD COUNT                                                                  LM00212
                                                                                                       LM00213
      READ2       EXECUTE BREAD.(FILNAM,BLOCK,...,BLOCK(WC-1))                                    *136 LM00214
                  RECNO = RECNO + WC                                                              *137 LM00215
      BRANCH(2)   WHENEVER NOWRT.E.1, TRANSFER TO B2A1                                            *138 LM00216
                  EXECUTE BWRITE.(NEWFIL,BLOCK,...,BLOCK(WC-1))                                   *139 LM00217
                  WORDS = WORDS + WC                                                              *140 LM00218
      B2A1        WC = BSI - RECNO                                                                *141 LM00219
                  WHENEVER NOMORE.E.1 .OR. WC.LE.0, TRANSFER TO CLOSE                             *142 LM00220
                  WHENEVER WC.G.22, WC = 22                                                       *143 LM00221
                  TRANSFER TO READ2                                                               *144 LM00222
                                                                                                       LM00223
                                                                                                       LM00224
                  CLEAN UP                                                                             LM00225
                                                                                                       LM00226
      RGLOOP      CONTINUE                                                                        *145 LM00227
      END         WHENEVER NOMORE.E.0, EXECUTE ENDRD.(FILNAM)                                     *146 LM00228
                  THROUGH ENDA1, FOR I=4,2,I.GE.FILNO                                             *147 LM00229
                    WHENEVER NFILE(I).E.TEMP                                                      *148 LM00230
                      TEMP(1) = FILNAM(1)                                                         *149 LM00231
                      WHENEVER RENAME.(TEMP,FILNAM).NE.0                                          *150 LM00232
                        ALLFI = 0                                                                 *151 LM00233
                        TRANSFER TO ENDA2                                                         *152 LM00234
                      END OF CONDITIONAL                                                          *153 LM00235
                      DFILE(DELNO) = FILNAM                                                       *154 LM00236
                      DELNO = DELNO+2                                                             *155 LM00237
                      NFILE(I) = FILNAM                                                           *156 LM00238
                      TRANSFER TO ENDA2                                                           *157 LM00239
                    END OF CONDITIONAL                                                            *158 LM00240
      ENDA1       CONTINUE                                                                        *159 LM00241
                                                                                                       LM00242
      ENDA2       WHENEVER FILNO.G.4                                                              *160 LM00243
                    F3(1) = FILNAM                                                                *161 LM00244
                    F3(2) = FILNAM(1)                                                             *162 LM00245
                    F3(5) = COM(XSWTCH)                                                           *163 LM00246
                    EXECUTE PRNTP.(F3)                                                            *164 LM00247
                  END OF CONDITIONAL                                                              *165 LM00248
                  WHENEVER FILNO.LE.4                                                             *166 LM00249
                    EXECUTE PRNTP.(F4)                                                            *167 LM00250
                  OR WHENEVER ALLFI.E.1                                                           *168 LM00251
                    EXECUTE PRNTP.(F5)                                                            *169 LM00252
                  OTHERWISE                                                                       *170 LM00253
                    NFILE(FILNO-1) = FENCE                                                        *171 LM00254
                    EXECUTE PRNTP.(NFILE)                                                         *172 LM00255
                  END OF CONDITIONAL                                                              *173 LM00256
                  WHENEVER DELNO.G.3                                                              *174 LM00257
                    DFILE(DELNO-1) = FENCE                                                        *175 LM00258
                    EXECUTE PRNTP.(DFILE)                                                         *176 LM00259
                  END OF CONDITIONAL                                                              *177 LM00260
                  WHENEVER CRASH.E.2                                                              *178 LM00261
                    EXECUTE PRNTP.(CRFILE)                                                        *179 LM00262
                    EXECUTE PRNTP.(CRFIL)                                                         *180 LM00263
                    EXECUTE CHMODE.(CRFIL(6),0)                                                   *181 LM00264
                  END OF CONDITIONAL                                                              *182 LM00265
                  EXECUTE CHNCOM.(0)                                                              *183 LM00266
                                                                                                       LM00267
                                                                                                       LM00268
                  MISCELLANEOUS                                                                        LM00269
                                                                                                       LM00270
                  ENTRY TO USE.                                                                   *184 LM00271
                  WHENEVER COMARG.(1,FILNAM).E.FENCE, TRANSFER TO SPLA2                           *185 LM00272
                  WHENEVER COMARG.(2,TEST).NE.FENCE, FILNAM(1) = TEST                             *186 LM00273
                  TRANSFER TO SPLA2                                                               *187 LM00274
      INVOP       EXECUTE PRNTP.(F6)                                                              *188 LM00275
                  EXECUTE CHNCOM.(0)                                                              *189 LM00276
      EOFILE      EXECUTE WRDCNT.(WC)                                                             *190 LM00277
                  NOMORE = 1                                                                      *191 LM00278
                  WHENEVER WC.G.0, TRANSFER TO BRANCH(2)                                          *192 LM00279
      EOFA1       TRANSFER TO CLOSE                                                               *193 LM00280
                                                                                                       LM00281
                  DIMENSION ARGS(18),BLOCK(21),DFILE(18),NFILE(19),NEWFIL(1)                      *194 LM00282
                  DIMENSION FILNAM(1),CRFILE(9),CRFIL(13)                                         *195 LM00283
                  EQUIVALENCE (ARGS,FILNAM)                                                       *196 LM00284
                  VECTOR VALUES FENCE = 777777777777K                                             *197 LM00285
                  VECTOR VALUES BUFFL = 470                                                       *198 LM00286
                  VECTOR VALUES HWDCT = $(WDCT)$                                                  *199 LM00287
                  VECTOR VALUES HRCCT = $(RCNO)$                                                  *200 LM00288
                  VECTOR VALUES STAR = $     *$                                                   *201 LM00289
                  VECTOR VALUES TEMP = $(TSPL)      $                                             *202 LM00290
                  VECTOR VALUES COMMA = 736057575757K                                             *203 LM00291
                  VECTOR VALUES CHAR1 = 1K2                                                       *204 LM00292
                  VECTOR VALUES CHAR3 = 1K6                                                       *205 LM00293
                  VECTOR VALUES CHAR4 = 1K8                                                       *206 LM00294
                  VECTOR VALUES SWITCH = 0                                                        *207 LM00295
                  VECTOR VALUES XSWTCH = 0                                                        *208 LM00296
                  VECTOR VALUES NOARGS = 0                                                        *209 LM00297
                  VECTOR VALUES RECNO = 0                                                         *210 LM00298
                  VECTOR VALUES SKIPRD = 0                                                        *211 LM00299
                  VECTOR VALUES NOMORE = 0                                                        *212 LM00300
                  VECTOR VALUES CHARO = 0                                                         *213 LM00301
                  VECTOR VALUES CRASH = 0                                                         *214 LM00302
                  VECTOR VALUES ALLFI = 1                                                         *215 LM00303
                  VECTOR VALUES COM = $SEQ NOREC NOWRD CT$                                        *216 LM00304
                  VECTOR VALUES FILNO = 4                                                         *217 LM00305
                  VECTOR VALUES DELNO = 3                                                         *218 LM00306
                  VECTOR VALUES F1 = $NO SPLIT REQUIRED$,777777777777K                            *219 LM00307
                  VECTOR VALUES F2 = $NEED              $,777777777777K                           *220 LM00308
                  VECTOR VALUES F3 = $FILE                SPLIT BY        $                       *221 LM00309
                1 ,777777777777K                                                                  *221 LM00310
                  VECTOR VALUES F4 = $NO FILES CREATED$,777777777777K                             *222 LM00311
                  VECTOR VALUES F5 = $ALL FILES CREATED$,777777777777K                            *223 LM00312
                  VECTOR VALUESF6=$INVALID SEQUENCE OF ARGUMENTS$,777777777777K                   *224 LM00313
                  VECTOR VALUES NFILE = $ONLY FILES CREATED ARE,$                                 *225 LM00314
                  VECTOR VALUES DFILE = $DELETED FILES ARE$                                       *226 LM00315
                  VECTOR VALUES CRFILE = $CHANGE OF MODE AT SEQUENCE NO.$                         *227 LM00316
                  VECTOR VALUES CRFILE(6) = $, RECORD NO. $,777777777777K                         *228 LM00317
                  VECTOR VALUES CRFIL(1)=$ IS TRUNCATED. TEMPORARY FILE (SPLT)$                   *229 LM00318
                  VECTOR VALUES CRFIL(8) = $ HOLDS REST OF ORGINAL FILE$                          *230 LM00319
                  VECTOR VALUES CRFIL(13) = 777777777777K                                         *231 LM00320
                  END OF FUNCTION                                                                 *232 LM00321
                  END OF PROGRAM                                                                  *233 LM00322
1MAD PROGRAM,TYPE NOV 1963      (ALL NUMBERS ARE OCTAL)
0TOTAL LOCATIONS   01543 TRANSFER VECTOR LENGTH  00034 PROGRAM BEGINS    00355
0VARIABLE STORAGE (A=ARRAY,C=COMMON,E=ERASABLE,DIGIT=MODE)
      ALLFI  00104 A 1        CHAR1  00143 A 1        ENDA1  00036   4        HRCCT  00270 A 1        SI     00326   1
      ARGNO  00105   1        CHAR3  00144 A 1        ENDA2  00072   4        HWDCT  00271 A 1        SKIPRD 00327 A 1
      ARGS   00061 A 1        CHAR4  00145 A 1        END    00073   4        INVOP  00076   4        SPLA1  00036   4
      AWC    00106   1        CHARO  00146 A 1        EOFA1  00074   4        I      00272   1        SPLA2  00102   4
      B0A1   00062   4        CHARS  00147   1        EOFILE 00075   4        NEWFIL 00274 A 1        SPLA3  00103   4
      B2A1   00063   4        CLOSE1 00070   4        F1     00234 A 1        NFILE  00320 A 1        STAR   00330 A 1
      BF1    00107   1        CLOSE  00071   4        F2     00240 A 1        NOARGS 00321 A 1        SWITCH 00331 A 1
      BF2    00110   1        COMMA  00150 A 1        F3     00247 A 1        NOMORE 00322 A 1        TEMP   00333 A 1
      BF3    00111   1        COM    00153 A 1        F4     00253 A 1        NOWRT  00323   1        TEST   00334   1
      BF4    00112   1        CRASH  00154 A 1        F5     00257 A 1        N      00324   1        WC     00335   1
      BLOCK  00140 A 1        CRFILE 00166 A 1        F6     00265 A 1        READ2  00077   4        WORDS  00336   1
      BRANCH 00067 A 4        CRFIL  00204 A 1        FENCE  00266 A 1        READ   00100   4        WWC    00337   1
      BSI    00141   1        DELNO  00205 A 1        FILNAM 00061 A 1        RECNO  00325 A 1        XSWTCH 00340 A 1
      BUFFL  00142 A 1        DFILE  00230 A 1        FILNO  00267 A 1        RGLOOP 00101   4
0FUNCTION DICTIONARY
      ASSIGN 00000   1        BCDEC  00001   1        BREAD  00002   1        BWRITE 00003   1        CHMODE 00004   1
      CHNCOM 00005   1        COMARG 00006   1        DEFBC  00007   1        DELETE 00010   1        DORMNT 00011   1
      ENDRD  00012   1        EXIT   00013   1        FILE   00014   1        FIX    00015   1        FSTAT  00016   1
      FWRITE 00017   1        GETMEM 00020   1        .SETUP 00021   1        PRNTP  00022   1        RENAME 00023   1
      SEEK   00024   1        SETEOF 00025   1        SETVBF 00026   1        SMEM   00027   1        VREAD  00030   1
      VWRITE 00031   1        WRDCNT 00032   1        ZEL    00033   1        SPLIT  00034   1        USE    00035   1
0ABSOLUTE CONSTANTS
 00345 +000000000004     00351 +001111111111     00350 +000000000026     00344 +000000000003     00346 +000000000016
 00343 +000000000002     00347 +000000000022     00353 -206060646225     00354 -206247433163     00341 +000000000000
 00342 +000000000001     00352 +233000000000
0STATEMENT DICTIONARY
 00062 TXL -301224001221       00063 TXL -301302001277       00064 TXL -301152001150       00065 TXL -301263001257
 00066 TXL -301150001150       00067 TXL -300760000760       00070 TXL -301045001043       00071 TXL -301050001045
 00072 TXL -301376001372       00073 TXL -301327001322       00074 TXL -301521001520       00075 TXL -301511001507
 00076 TXL -301505001503       00077 TXL -301254001243       00100 TXL -300733000726       00101 TXL -301322001321
 00102 TXL -300502000476       00103 TXL -300574000572
0PROGRAM
                 NORMAL MODE IS INTEGER                                             001  LM00003
                 WHENEVER COMARG.(0).E.$ SPLIT$,FIX.(0,SPLIT.)                      002  LM00004
 00355 TSX +0 07400 4 00021    00356 TSX +0 07400 4 00006    00357 TXH +3 00000 0 00341    00360 SUB +0 40200 0 00354
 00361 TNZ -0 10000 0 00365    00362 TSX +0 07400 4 00015    00363 TXH +3 00000 0 00341    00364 TXH +3 00000 0 00034
                 WHENEVER COMARG.(0).E.$   USE$,FIX.(0,USE.)                        003  LM00005
 00365 TSX +0 07400 4 00006    00366 TXH +3 00000 0 00341    00367 SUB +0 40200 0 00353    00370 TNZ -0 10000 0 00374
 00371 TSX +0 07400 4 00015    00372 TXH +3 00000 0 00341    00373 TXH +3 00000 0 00035
                 INTERNAL FUNCTION (LK)                                             004  LM00053
 00374 TRA +0 02000 0 01540
                 ENTRY TO SPLIT.                                                    005  LM00054
 00375 TRA +0 02000 0 00400    00034 TTR +0 02100 0 00376    00376 SXA +0 63400 2 01522    00377 TSX +0 07400 2 01522
                 THROUGH SPLA1, FOR N=1,1,N.G.18 .OR. COMARG.(N,ARGS                006  LM00059
                1(NOARGS)).E.FENCE                                                  006  LM00060
 00400 CLA +0 50000 0 00342    00401 STO +0 60100 0 00324    00402 TRA +0 02000 0 00406    00403 CLA +0 50000 0 00324
 00404 ADD +0 40000 0 00342    00405 STO +0 60100 0 00324    00406 CLA +0 50000 0 00321    00407 SUB +0 40200 0 00410
 00410 TXH +3 00000 0 00061    00411 STA +0 62100 0 00414    00412 TSX +0 07400 4 00006    00413 TXH +3 00000 0 00324
 00414 TXH +3 00000 0 00000    00415 SUB +0 40200 0 00266    00416 TZE +0 10000 0 00463    00417 CLA +0 50000 0 00324
 00420 SUB +0 40200 0 00347    00421 TZE +0 10000 0 00423    00422 TPL +0 12000 0 00463
                   WHENEVER ARGS(NOARGS) .E. HWDCT                                  007  LM00061
 00423 LXA +0 53400 1 00321    00424 CLA +0 50000 1 00061    00425 SUB +0 40200 0 00271    00426 TNZ -0 10000 0 00441
                     WHENEVER NOARGS .G. 2, TRANSFER TO INVOP                       008  LM00062
 00427 CLA +0 50000 0 00321    00430 SUB +0 40200 0 00343    00431 TZE +0 10000 0 00434    00432 TMI -0 12000 0 00434
 00433 TRA +0 02000 0 00076
                     SWITCH = 2                                                     009  LM00063
 00434 CLA +0 50000 0 00343    00435 STO +0 60100 0 00331
                     XSWTCH = 2                                                     010  LM00064
 00436 CLA +0 50000 0 00343    00437 STO +0 60100 0 00340
                   OR WHENEVER ARGS (NOARGS) .E. HRCCT                              011  LM00065
 00440 TRA +0 02000 0 00462    00441 LXA +0 53400 1 00321    00442 CLA +0 50000 1 00061    00443 SUB +0 40200 0 00270
 00444 TNZ -0 10000 0 00457
                     WHENEVER NOARGS.G.2, TRANSFER TO INVOP                         012  LM00066
 00445 CLA +0 50000 0 00321    00446 SUB +0 40200 0 00343    00447 TZE +0 10000 0 00452    00450 TMI -0 12000 0 00452
 00451 TRA +0 02000 0 00076
                     SWITCH = 1                                                     013  LM00067
 00452 CLA +0 50000 0 00342    00453 STO +0 60100 0 00331
                     XSWTCH = 1                                                     014  LM00068
 00454 CLA +0 50000 0 00342    00455 STO +0 60100 0 00340
                   OTHERWISE                                                        015  LM00069
 00456 TRA +0 02000 0 00462
                     NOARGS = NOARGS+1                                              016  LM00070
 00457 CLA +0 50000 0 00321    00460 ADD +0 40000 0 00342    00461 STO +0 60100 0 00321
                   END OF CONDITIONAL                                               017  LM00071
      SPLA1      CONTINUE                                                           018  LM00072
 00462 TRA +0 02000 0 00403
                 NOARGS = NOARGS-1                                                  019  LM00073
 00463 CLA +0 50000 0 00321    00464 SUB +0 40200 0 00342    00465 STO +0 60100 0 00321
                 WHENEVER NOARGS.LE.1                                               020  LM00074
 00466 CLA +0 50000 0 00321    00467 SUB +0 40200 0 00342    00470 TZE +0 10000 0 00472    00471 TPL +0 12000 0 00476
                   EXECUTE PRNTP.(F1)                                               021  LM00075
 00472 TSX +0 07400 4 00022    00473 TXH +3 00000 0 00234
                   EXECUTE CHNCOM.(0)                                               022  LM00076
 00474 TSX +0 07400 4 00005    00475 TXH +3 00000 0 00341
                 END OF CONDITIONAL                                                 023  LM00077
      SPLA2      WHENEVER FSTAT.(FILNAM) .E. 0                                      024  LM00079
 00476 TSX +0 07400 4 00016    00477 TXH +3 00000 0 00061    00500 SUB +0 40200 0 00341    00501 TNZ -0 10000 0 00511
                   F2(1) = FILNAM                                                   025  LM00080
 00502 CLA +0 50000 0 00061    00503 STO +0 60100 0 00237
                   F2(2) = FILNAM(1)                                                026  LM00081
 00504 CLA +0 50000 0 00060    00505 STO +0 60100 0 00236
                   EXECUTE PRNTP.(F2)                                               027  LM00082
 00506 TSX +0 07400 4 00022    00507 TXH +3 00000 0 00240
                   EXECUTE DORMNT.                                                  028  LM00083
 00510 TSX +0 07400 4 00011
                 END OF CONDITIONAL                                                 029  LM00084
                 BF1 = GETMEM.(0)+BUFFL                                             030  LM00086
 00511 TSX +0 07400 4 00020    00512 TXH +3 00000 0 00341    00513 ADD +0 40000 0 00142    00514 STO +0 60100 0 00107
                 BF2 = BF1+BUFFL                                                    031  LM00087
 00515 CLA +0 50000 0 00107    00516 ADD +0 40000 0 00142    00517 STO +0 60100 0 00110
                 BF3 = BF2+BUFFL                                                    032  LM00088
 00520 CLA +0 50000 0 00110    00521 ADD +0 40000 0 00142    00522 STO +0 60100 0 00111
                 BF4 = BF3 + BUFFL                                                  033  LM00089
 00523 CLA +0 50000 0 00111    00524 ADD +0 40000 0 00142    00525 STO +0 60100 0 00112
                 EXECUTE SMEM.(BF4+1)                                               034  LM00090
 00526 CLA +0 50000 0 00112    00527 ADD +0 40000 0 00342    00530 STO +0 60100 0 01537    00531 TSX +0 07400 4 00027
 00532 TXH +3 00000 0 01537
                 EXECUTE SEEK.(FILNAM,LK(-BF1),LK(-BF2))                            035  LM00091
 00533 CLS +0 50200 0 00110    00534 SUB +0 40200 0 00535    00535 TXH +3 00000 0 00024    00536 STA +0 62100 0 00546
 00537 CLS +0 50200 0 00107    00540 SUB +0 40200 0 00541    00541 TXH +3 00000 0 00024    00542 STA +0 62100 0 00545
 00543 TSX +0 07400 4 00024    00544 TXH +3 00000 0 00061    00545 TXH +3 00000 0 00000    00546 TXH +3 00000 0 00000
                 NEWFIL(1) = FILNAM(1)                                              036  LM00092
 00547 CLA +0 50000 0 00060    00550 STO +0 60100 0 00273
                 EXECUTE SETEOF.(EOFILE)                                            037  LM00093
 00551 TSX +0 07400 4 00025    00552 TXH +3 00000 0 00075
                 EXECUTE SETVBF.(14)                                                038  LM00094
 00553 TSX +0 07400 4 00026    00554 TXH +3 00000 0 00346
                 THROUGH RGLOOP, FOR ARGNO=2,2,ARGNO.G.NOARGS                       039  LM00099
 00555 CLA +0 50000 0 00343    00556 STO +0 60100 0 00105    00557 TRA +0 02000 0 00563    00560 CLA +0 50000 0 00105
 00561 ADD +0 40000 0 00343    00562 STO +0 60100 0 00105    00563 CLA +0 50000 0 00105    00564 SUB +0 40200 0 00321
 00565 TZE +0 10000 0 00567    00566 TPL +0 12000 0 01322
                 NEWFIL = ARGS(ARGNO)                                               040  LM00100
 00567 LXA +0 53400 2 00105    00570 CLA +0 50000 2 00061    00571 STO +0 60100 0 00274
      SPLA3      WORDS = 0                                                          041  LM00101
 00572 CLA +0 50000 0 00341    00573 STO +0 60100 0 00336
                   WHENEVER NEWFIL.E.FENCE                                          042  LM00102
 00574 CLA +0 50000 0 00274    00575 SUB +0 40200 0 00266    00576 TNZ -0 10000 0 00601
                     TRANSFER TO END                                                043  LM00103
 00577 TRA +0 02000 0 00073
                   OR WHENEVER NEWFIL .E. STAR                                      044  LM00104
 00600 TRA +0 02000 0 00640    00601 CLA +0 50000 0 00274    00602 SUB +0 40200 0 00330    00603 TNZ -0 10000 0 00607
                     NOWRT = 1                                                      045  LM00105
 00604 CLA +0 50000 0 00342    00605 STO +0 60100 0 00323
                   OTHERWISE                                                        046  LM00106
 00606 TRA +0 02000 0 00640
                     NOWRT = 0                                                      047  LM00107
 00607 CLA +0 50000 0 00341    00610 STO +0 60100 0 00323
                     WHENEVER NEWFIL.E.FILNAM, NEWFIL = TEMP                        048  LM00108
 00611 CLA +0 50000 0 00274    00612 SUB +0 40200 0 00061    00613 TNZ -0 10000 0 00616    00614 CLA +0 50000 0 00333
 00615 STO +0 60100 0 00274
                     WHENEVER SKIPRD.E.1 .OR. NOMORE.E.0,                           049  LM00109
                1      EXECUTE ASSIGN.(NEWFIL, LK(-BF3), LK(-BF4))                  049  LM00110
 00616 CLA +0 50000 0 00322    00617 SUB +0 40200 0 00341    00620 TZE +0 10000 0 00624    00621 CLA +0 50000 0 00327
 00622 SUB +0 40200 0 00342    00623 TNZ -0 10000 0 00640    00624 CLS +0 50200 0 00112    00625 SUB +0 40200 0 00626
 00626 TXH +3 00000 0 00024    00627 STA +0 62100 0 00637    00630 CLS +0 50200 0 00111    00631 SUB +0 40200 0 00632
 00632 TXH +3 00000 0 00024    00633 STA +0 62100 0 00636    00634 TSX +0 07400 4 00000    00635 TXH +3 00000 0 00274
 00636 TXH +3 00000 0 00000    00637 TXH +3 00000 0 00000
                   END OF CONDITIONAL                                               050  LM00111
                   WHENEVER ARGNO+1 .G. NOARGS                                      051  LM00113
 00640 CLA +0 50000 0 00105    00641 ADD +0 40000 0 00342    00642 SUB +0 40200 0 00321    00643 TZE +0 10000 0 00664
 00644 TMI -0 12000 0 00664
                     WHENEVER NEWFIL.E.STAR, TRANSFER TO END                        052  LM00114
 00645 CLA +0 50000 0 00274    00646 SUB +0 40200 0 00330    00647 TNZ -0 10000 0 00651    00650 TRA +0 02000 0 00073
                     SWITCH = 3                                                     053  LM00115
 00651 CLA +0 50000 0 00344    00652 STO +0 60100 0 00331
                     BSI = .ABS.FENCE                                               054  LM00116
 00653 CLA +0 50000 0 00266    00654 SSP +0 76000 0 00003    00655 STO +0 60100 0 00141
                     WHENEVER SKIPRD.E.0, WC = 22                                   055  LM00117
 00656 CLA +0 50000 0 00327    00657 SUB +0 40200 0 00341    00660 TNZ -0 10000 0 00663    00661 CLA +0 50000 0 00350
 00662 STO +0 60100 0 00335
                   OTHERWISE                                                        056  LM00118
 00663 TRA +0 02000 0 00726
                     SI = ZEL.(ARGS(ARGNO+1))                                       057  LM00119
 00664 CLA +0 50000 0 00105    00665 ADD +0 40000 0 00342    00666 SUB +0 40200 0 00667    00667 TXH +3 00000 0 00061
 00670 STA +0 62100 0 00672    00671 TSX +0 07400 4 00033    00672 TXH +3 00000 0 00000    00673 STO +0 60100 0 00326
                     BSI = BCDEC.(SI)                                               058  LM00120
 00674 TSX +0 07400 4 00001    00675 TXH +3 00000 0 00326    00676 STO +0 60100 0 00141
                     WHENEVER SWITCH.E.1 .OR. SWITCH.E.2                            059  LM00121
 00677 CLA +0 50000 0 00331    00700 SUB +0 40200 0 00343    00701 TZE +0 10000 0 00705    00702 CLA +0 50000 0 00331
 00703 SUB +0 40200 0 00342    00704 TNZ -0 10000 0 00726
                       WC = BSI - RECNO                                             060  LM00122
 00705 CLA +0 50000 0 00141    00706 SUB +0 40200 0 00325    00707 STO +0 60100 0 00335
                       WHENEVER WC.LE.0                                             061  LM00123
 00710 CLA +0 50000 0 00335    00711 SUB +0 40200 0 00341    00712 TZE +0 10000 0 00714    00713 TPL +0 12000 0 00720
                         ALLFI = 0                                                  062  LM00124
 00714 CLA +0 50000 0 00341    00715 STO +0 60100 0 00104
                         TRANSFER TO RGLOOP                                         063  LM00125
 00716 TRA +0 02000 0 00101
                       OR WHENEVER WC.G.22                                          064  LM00126
 00717 TRA +0 02000 0 00726    00720 CLA +0 50000 0 00335    00721 SUB +0 40200 0 00350    00722 TZE +0 10000 0 00726
 00723 TMI -0 12000 0 00726
                         WC = 22                                                    065  LM00127
 00724 CLA +0 50000 0 00350    00725 STO +0 60100 0 00335
                       END OF CONDITIONAL                                           066  LM00128
                     END OF CONDITIONAL                                             067  LM00129
                   END OF CONDITIONAL                                               068  LM00130
      READ       WHENEVER SKIPRD.NE.0, TRANSFER TO BRANCH(SWITCH)                   069  LM00135
 00726 CLA +0 50000 0 00327    00727 SUB +0 40200 0 00341    00730 TZE +0 10000 0 00733    00731 LXA +0 53400 2 00331
 00732 TRA +0 02000 2 00067
                 WHENEVER NOMORE.E.1, TRANSFER TO EOFA1                             070  LM00136
 00733 CLA +0 50000 0 00322    00734 SUB +0 40200 0 00342    00735 TNZ -0 10000 0 00737    00736 TRA +0 02000 0 00074
                 WHENEVER SWITCH.GE.2, TRANSFER TO READ2                            071  LM00137
 00737 CLA +0 50000 0 00331    00740 SUB +0 40200 0 00343    00741 TZE +0 10000 0 00743    00742 TMI -0 12000 0 00744
 00743 TRA +0 02000 0 00077
                 WC = VREAD.(FILNAM,BLOCK,...,BLOCK(21))                            072  LM00138
 00744 TSX +0 07400 4 00030    00745 TXH +3 00000 0 00061    00746 TIX +2 00113 0 00140    00747 STO +0 60100 0 00335
                 AWC = .ABS.WC                                                      073  LM00139
 00750 CLA +0 50000 0 00335    00751 SSP +0 76000 0 00003    00752 STO +0 60100 0 00106
                 RECNO = RECNO+1                                                    074  LM00140
 00753 CLA +0 50000 0 00325    00754 ADD +0 40000 0 00342    00755 STO +0 60100 0 00325
                 TRANSFER TO BRANCH(SWITCH)                                         075  LM00141
 00756 LXA +0 53400 2 00331    00757 TRA +0 02000 2 00067
      BRANCH(0)  CONTINUE                                                           076  LM00146
                 CHARS = ZEL.(BLOCK(13)/CHAR4 + .ABS.(BLOCK(12)*CHAR3)/CHAR1)       077  LM00147
 00760 LDQ +0 56000 0 00124    00761 MPY +0 20000 0 00144    00762 XCA +0 13100 0 00000    00763 SSP +0 76000 0 00003
 00764 LRS +0 76500 0 00043    00765 DVP +0 22100 0 00143    00766 STQ -0 60000 0 01537    00767 LDQ +0 56000 0 00123
 00770 PXD -0 75400 0 00000    00771 LLS +0 76300 0 00000    00772 DVP +0 22100 0 00145    00773 XCA +0 13100 0 00000
 00774 ADD +0 40000 0 01537    00775 STO +0 60100 0 01537    00776 TSX +0 07400 4 00033    00777 TXH +3 00000 0 01537
 01000 STO +0 60100 0 00147
                 WHENEVER CHARS.G.$099999$ .OR. AWC.NE.14                           078  LM00148
 01001 CLA +0 50000 0 00106    01002 SUB +0 40200 0 00346    01003 TNZ -0 10000 0 01010    01004 CLA +0 50000 0 00147
 01005 SUB +0 40200 0 00351    01006 TZE +0 10000 0 01033    01007 TMI -0 12000 0 01033
                   WHENEVER ARGNO.E.2 .AND. RECNO.LE.BSI                            079  LM00149
 01010 CLA +0 50000 0 00325    01011 SUB +0 40200 0 00141    01012 TZE +0 10000 0 01014    01013 TPL +0 12000 0 01025
 01014 CLA +0 50000 0 00105    01015 SUB +0 40200 0 00343    01016 TNZ -0 10000 0 01025
                     SWITCH = 1                                                     080  LM00150
 01017 CLA +0 50000 0 00342    01020 STO +0 60100 0 00331
                     XSWTCH = 1                                                     081  LM00151
 01021 CLA +0 50000 0 00342    01022 STO +0 60100 0 00340
                     TRANSFER TO BRANCH(1)                                          082  LM00152
 01023 TRA +0 02000 0 00066
                   OTHERWISE                                                        083  LM00153
 01024 TRA +0 02000 0 01032
                     SWITCH = 3                                                     084  LM00154
 01025 CLA +0 50000 0 00344    01026 STO +0 60100 0 00331
                     CRASH = 1                                                      085  LM00155
 01027 CLA +0 50000 0 00342    01030 STO +0 60100 0 00154
                     TRANSFER TO CLOSE1                                             086  LM00156
 01031 TRA +0 02000 0 00070
                   END OF CONDITIONAL                                               087  LM00157
                 OR WHENEVER CHARO.LE.SI .AND. SI.L.CHARS                           088  LM00158
 01032 TRA +0 02000 0 01242    01033 CLA +0 50000 0 00326    01034 SUB +0 40200 0 00147    01035 TZE +0 10000 0 01146
 01036 TPL +0 12000 0 01146    01037 CLA +0 50000 0 00146    01040 SUB +0 40200 0 00326    01041 TZE +0 10000 0 01043
 01042 TPL +0 12000 0 01146
      CLOSE1       SKIPRD = 1                                                       089  LM00159
 01043 CLA +0 50000 0 00342    01044 STO +0 60100 0 00327
      CLOSE        WHENEVER NOWRT.E.1                                               090  LM00160
 01045 CLA +0 50000 0 00323    01046 SUB +0 40200 0 00342    01047 TNZ -0 10000 0 01051
                   OR WHENEVER WORDS.E.0                                            091  LM00161
 01050 TRA +0 02000 0 01123    01051 CLA +0 50000 0 00336    01052 SUB +0 40200 0 00341    01053 TNZ -0 10000 0 01057
                     ALLFI = 0                                                      092  LM00162
 01054 CLA +0 50000 0 00341    01055 STO +0 60100 0 00104
                   OTHERWISE                                                        093  LM00163
 01056 TRA +0 02000 0 01123
                     WHENEVER DELETE.(NEWFIL).E.0 .AND. FSTAT.(NEWFIL).NE.0         094  LM00164
 01057 TSX +0 07400 4 00016    01060 TXH +3 00000 0 00274    01061 SUB +0 40200 0 00341    01062 TZE +0 10000 0 01102
 01063 TSX +0 07400 4 00010    01064 TXH +3 00000 0 00274    01065 SUB +0 40200 0 00341    01066 TNZ -0 10000 0 01102
                       DFILE(DELNO) = NEWFIL                                        095  LM00165
 01067 LXA +0 53400 1 00205    01070 CLA +0 50000 0 00274    01071 STO +0 60100 1 00230
                       DFILE (DELNO+1) = COMMA                                      096  LM00166
 01072 CLA +0 50000 0 00205    01073 ADD +0 40000 0 00342    01074 PAX +0 73400 1 00000    01075 CLA +0 50000 0 00150
 01076 STO +0 60100 1 00230
                       DELNO = DELNO+2                                              097  LM00167
 01077 CLA +0 50000 0 00205    01100 ADD +0 40000 0 00343    01101 STO +0 60100 0 00205
                     END OF CONDITIONAL                                             098  LM00168
                     EXECUTE FILE.(NEWFIL)                                          099  LM00169
 01102 TSX +0 07400 4 00014    01103 TXH +3 00000 0 00274
                     WHENEVER CRASH.E.2, TRANSFER TO RGLOOP                         100  LM00170
 01104 CLA +0 50000 0 00154    01105 SUB +0 40200 0 00343    01106 TNZ -0 10000 0 01110    01107 TRA +0 02000 0 00101
                     NFILE(FILNO) = NEWFIL                                          101  LM00171
 01110 LXA +0 53400 1 00267    01111 CLA +0 50000 0 00274    01112 STO +0 60100 1 00320
                     NFILE(FILNO+1) = COMMA                                         102  LM00172
 01113 CLA +0 50000 0 00267    01114 ADD +0 40000 0 00342    01115 PAX +0 73400 1 00000    01116 CLA +0 50000 0 00150
 01117 STO +0 60100 1 00320
                     FILNO = FILNO +2                                               103  LM00173
 01120 CLA +0 50000 0 00267    01121 ADD +0 40000 0 00343    01122 STO +0 60100 0 00267
                   END OF CONDITIONAL                                               104  LM00174
                   WHENEVER CRASH.E.1                                               105  LM00175
 01123 CLA +0 50000 0 00154    01124 SUB +0 40200 0 00342    01125 TNZ -0 10000 0 01144
                     CRFILE(5) = CHARS                                              106  LM00176
 01126 CLA +0 50000 0 00147    01127 STO +0 60100 0 00161
                     CRFILE(8) = DEFBC.(RECNO)                                      107  LM00177
 01130 TSX +0 07400 4 00007    01131 TXH +3 00000 0 00325    01132 STO +0 60100 0 00156
                     CRFIL = NEWFIL                                                 108  LM00178
 01133 CLA +0 50000 0 00274    01134 STO +0 60100 0 00204
                     CRFIL(7) = FILNAM(1)                                           109  LM00179
 01135 CLA +0 50000 0 00060    01136 STO +0 60100 0 00175
                     NEWFIL = CRFIL(6)                                              110  LM00180
 01137 CLA +0 50000 0 00176    01140 STO +0 60100 0 00274
                     CRASH = 2                                                      111  LM00181
 01141 CLA +0 50000 0 00343    01142 STO +0 60100 0 00154
                     TRANSFER TO SPLA3                                              112  LM00182
 01143 TRA +0 02000 0 00103
                   END OF CONDITIONAL                                               113  LM00183
                   TRANSFER TO RGLOOP                                               114  LM00184
 01144 TRA +0 02000 0 00101
                 OTHERWISE                                                          115  LM00185
 01145 TRA +0 02000 0 01242
                   CHARO = CHARS                                                    116  LM00186
 01146 CLA +0 50000 0 00147    01147 STO +0 60100 0 00146
      BRANCH(1)    CONTINUE                                                         117  LM00191
      BRANCH(3)    SKIPRD = 0                                                       118  LM00192
 01150 CLA +0 50000 0 00341    01151 STO +0 60100 0 00327
                   WHENEVER NOWRT.E.1, TRANSFER TO B0A1                             119  LM00193
 01152 CLA +0 50000 0 00323    01153 SUB +0 40200 0 00342    01154 TNZ -0 10000 0 01156    01155 TRA +0 02000 0 00062
                   WWC = 0                                                          120  LM00194
 01156 CLA +0 50000 0 00341    01157 STO +0 60100 0 00337
                   WHENEVER WC.L.0                                                  121  LM00195
 01160 CLA +0 50000 0 00335    01161 SUB +0 40200 0 00341    01162 TZE +0 10000 0 01177    01163 TPL +0 12000 0 01177
                     WWC = FWRITE.(NEWFIL,BLOCK,...,BLOCK(AWC-1))                   122  LM00196
 01164 CLA +0 50000 0 00106    01165 SUB +0 40200 0 00342    01166 SUB +0 40200 0 01167    01167 TXH +3 00000 0 00140
 01170 ALS +0 76700 0 00022    01171 STD +0 62200 0 01174    01172 TSX +0 07400 4 00017    01173 TXH +3 00000 0 00274
 01174 TIX +2 00000 0 00140    01175 STO +0 60100 0 00337
                   OR WHENEVER WC.G.0                                               123  LM00197
 01176 TRA +0 02000 0 01215    01177 CLA +0 50000 0 00335    01200 SUB +0 40200 0 00341    01201 TZE +0 10000 0 01215
 01202 TMI -0 12000 0 01215
                     WWC = VWRITE.(NEWFIL,BLOCK,...,BLOCK(AWC-1))                   124  LM00198
 01203 CLA +0 50000 0 00106    01204 SUB +0 40200 0 00342    01205 SUB +0 40200 0 01206    01206 TXH +3 00000 0 00140
 01207 ALS +0 76700 0 00022    01210 STD +0 62200 0 01213    01211 TSX +0 07400 4 00031    01212 TXH +3 00000 0 00274
 01213 TIX +2 00000 0 00140    01214 STO +0 60100 0 00337
                   END OF CONDITIONAL                                               125  LM00199
                   WORDS = WORDS + .ABS.WWC                                         126  LM00200
 01215 CLA +0 50000 0 00337    01216 SSP +0 76000 0 00003    01217 ADD +0 40000 0 00336    01220 STO +0 60100 0 00336
      B0A1         WHENEVER SWITCH.E.0                                              127  LM00201
 01221 CLA +0 50000 0 00331    01222 SUB +0 40200 0 00341    01223 TNZ -0 10000 0 01231
                     WHENEVER CHARS.E.SI, TRANSFER TO CLOSE                         128  LM00202
 01224 CLA +0 50000 0 00147    01225 SUB +0 40200 0 00326    01226 TNZ -0 10000 0 01230    01227 TRA +0 02000 0 00071
                   OR WHENEVER SWITCH.E.1                                           129  LM00203
 01230 TRA +0 02000 0 01242    01231 CLA +0 50000 0 00331    01232 SUB +0 40200 0 00342    01233 TNZ -0 10000 0 01241
                     WHENEVER RECNO.E.BSI, TRANSFER TO CLOSE                        130  LM00204
 01234 CLA +0 50000 0 00325    01235 SUB +0 40200 0 00141    01236 TNZ -0 10000 0 01240    01237 TRA +0 02000 0 00071
                   OTHERWISE                                                        131  LM00205
 01240 TRA +0 02000 0 01242
                     TRANSFER TO B2A1                                               132  LM00206
 01241 TRA +0 02000 0 00063
                   END OF CONDITIONAL                                               133  LM00207
                 END OF CONDITIONAL                                                 134  LM00208
                 TRANSFER TO READ                                                   135  LM00209
 01242 TRA +0 02000 0 00100
      READ2      EXECUTE BREAD.(FILNAM,BLOCK,...,BLOCK(WC-1))                       136  LM00214
 01243 CLA +0 50000 0 00335    01244 SUB +0 40200 0 00342    01245 SUB +0 40200 0 01246    01246 TXH +3 00000 0 00140
 01247 ALS +0 76700 0 00022    01250 STD +0 62200 0 01253    01251 TSX +0 07400 4 00002    01252 TXH +3 00000 0 00061
 01253 TIX +2 00000 0 00140
                 RECNO = RECNO + WC                                                 137  LM00215
 01254 CLA +0 50000 0 00325    01255 ADD +0 40000 0 00335    01256 STO +0 60100 0 00325
      BRANCH(2)  WHENEVER NOWRT.E.1, TRANSFER TO B2A1                               138  LM00216
 01257 CLA +0 50000 0 00323    01260 SUB +0 40200 0 00342    01261 TNZ -0 10000 0 01263    01262 TRA +0 02000 0 00063
                 EXECUTE BWRITE.(NEWFIL,BLOCK,...,BLOCK(WC-1))                      139  LM00217
 01263 CLA +0 50000 0 00335    01264 SUB +0 40200 0 00342    01265 SUB +0 40200 0 01266    01266 TXH +3 00000 0 00140
 01267 ALS +0 76700 0 00022    01270 STD +0 62200 0 01273    01271 TSX +0 07400 4 00003    01272 TXH +3 00000 0 00274
 01273 TIX +2 00000 0 00140
                 WORDS = WORDS + WC                                                 140  LM00218
 01274 CLA +0 50000 0 00336    01275 ADD +0 40000 0 00335    01276 STO +0 60100 0 00336
      B2A1       WC = BSI - RECNO                                                   141  LM00219
 01277 CLA +0 50000 0 00141    01300 SUB +0 40200 0 00325    01301 STO +0 60100 0 00335
                 WHENEVER NOMORE.E.1 .OR. WC.LE.0, TRANSFER TO CLOSE                142  LM00220
 01302 CLA +0 50000 0 00335    01303 SUB +0 40200 0 00341    01304 TZE +0 10000 0 01311    01305 TMI -0 12000 0 01311
 01306 CLA +0 50000 0 00322    01307 SUB +0 40200 0 00342    01310 TNZ -0 10000 0 01312    01311 TRA +0 02000 0 00071
                 WHENEVER WC.G.22, WC = 22                                          143  LM00221
 01312 CLA +0 50000 0 00335    01313 SUB +0 40200 0 00350    01314 TZE +0 10000 0 01320    01315 TMI -0 12000 0 01320
 01316 CLA +0 50000 0 00350    01317 STO +0 60100 0 00335
                 TRANSFER TO READ2                                                  144  LM00222
 01320 TRA +0 02000 0 00077
      RGLOOP     CONTINUE                                                           145  LM00227
 01321 TRA +0 02000 0 00560
      END        WHENEVER NOMORE.E.0, EXECUTE ENDRD.(FILNAM)                        146  LM00228
 01322 CLA +0 50000 0 00322    01323 SUB +0 40200 0 00341    01324 TNZ -0 10000 0 01327    01325 TSX +0 07400 4 00012
 01326 TXH +3 00000 0 00061
                 THROUGH ENDA1, FOR I=4,2,I.GE.FILNO                                147  LM00229
 01327 CLA +0 50000 0 00345    01330 STO +0 60100 0 00272    01331 TRA +0 02000 0 01335    01332 CLA +0 50000 0 00272
 01333 ADD +0 40000 0 00343    01334 STO +0 60100 0 00272    01335 CLA +0 50000 0 00272    01336 SUB +0 40200 0 00267
 01337 TZE +0 10000 0 01372    01340 TPL +0 12000 0 01372
                   WHENEVER NFILE(I).E.TEMP                                         148  LM00230
 01341 LXA +0 53400 1 00272    01342 CLA +0 50000 1 00320    01343 SUB +0 40200 0 00333    01344 TNZ -0 10000 0 01371
                     TEMP(1) = FILNAM(1)                                            149  LM00231
 01345 CLA +0 50000 0 00060    01346 STO +0 60100 0 00332
                     WHENEVER RENAME.(TEMP,FILNAM).NE.0                             150  LM00232
 01347 TSX +0 07400 4 00023    01350 TXH +3 00000 0 00333    01351 TXH +3 00000 0 00061    01352 SUB +0 40200 0 00341
 01353 TZE +0 10000 0 01357
                       ALLFI = 0                                                    151  LM00233
 01354 CLA +0 50000 0 00341    01355 STO +0 60100 0 00104
                       TRANSFER TO ENDA2                                            152  LM00234
 01356 TRA +0 02000 0 00072
                     END OF CONDITIONAL                                             153  LM00235
                     DFILE(DELNO) = FILNAM                                          154  LM00236
 01357 LXA +0 53400 1 00205    01360 CLA +0 50000 0 00061    01361 STO +0 60100 1 00230
                     DELNO = DELNO+2                                                155  LM00237
 01362 CLA +0 50000 0 00205    01363 ADD +0 40000 0 00343    01364 STO +0 60100 0 00205
                     NFILE(I) = FILNAM                                              156  LM00238
 01365 LXA +0 53400 1 00272    01366 CLA +0 50000 0 00061    01367 STO +0 60100 1 00320
                     TRANSFER TO ENDA2                                              157  LM00239
 01370 TRA +0 02000 0 00072
                   END OF CONDITIONAL                                               158  LM00240
      ENDA1      CONTINUE                                                           159  LM00241
 01371 TRA +0 02000 0 01332
      ENDA2      WHENEVER FILNO.G.4                                                 160  LM00243
 01372 CLA +0 50000 0 00267    01373 SUB +0 40200 0 00345    01374 TZE +0 10000 0 01407    01375 TMI -0 12000 0 01407
                   F3(1) = FILNAM                                                   161  LM00244
 01376 CLA +0 50000 0 00061    01377 STO +0 60100 0 00246
                   F3(2) = FILNAM(1)                                                162  LM00245
 01400 CLA +0 50000 0 00060    01401 STO +0 60100 0 00245
                   F3(5) = COM(XSWTCH)                                              163  LM00246
 01402 LXA +0 53400 2 00340    01403 CLA +0 50000 2 00153    01404 STO +0 60100 0 00242
                   EXECUTE PRNTP.(F3)                                               164  LM00247
 01405 TSX +0 07400 4 00022    01406 TXH +3 00000 0 00247
                 END OF CONDITIONAL                                                 165  LM00248
                 WHENEVER FILNO.LE.4                                                166  LM00249
 01407 CLA +0 50000 0 00267    01410 SUB +0 40200 0 00345    01411 TZE +0 10000 0 01413    01412 TPL +0 12000 0 01416
                   EXECUTE PRNTP.(F4)                                               167  LM00250
 01413 TSX +0 07400 4 00022    01414 TXH +3 00000 0 00253
                 OR WHENEVER ALLFI.E.1                                              168  LM00251
 01415 TRA +0 02000 0 01433    01416 CLA +0 50000 0 00104    01417 SUB +0 40200 0 00342    01420 TNZ -0 10000 0 01424
                   EXECUTE PRNTP.(F5)                                               169  LM00252
 01421 TSX +0 07400 4 00022    01422 TXH +3 00000 0 00257
                 OTHERWISE                                                          170  LM00253
 01423 TRA +0 02000 0 01433
                   NFILE(FILNO-1) = FENCE                                           171  LM00254
 01424 CLA +0 50000 0 00267    01425 SUB +0 40200 0 00342    01426 PAX +0 73400 1 00000    01427 CLA +0 50000 0 00266
 01430 STO +0 60100 1 00320
                   EXECUTE PRNTP.(NFILE)                                            172  LM00255
 01431 TSX +0 07400 4 00022    01432 TXH +3 00000 0 00320
                 END OF CONDITIONAL                                                 173  LM00256
                 WHENEVER DELNO.G.3                                                 174  LM00257
 01433 CLA +0 50000 0 00205    01434 SUB +0 40200 0 00344    01435 TZE +0 10000 0 01446    01436 TMI -0 12000 0 01446
                   DFILE(DELNO-1) = FENCE                                           175  LM00258
 01437 CLA +0 50000 0 00205    01440 SUB +0 40200 0 00342    01441 PAX +0 73400 1 00000    01442 CLA +0 50000 0 00266
 01443 STO +0 60100 1 00230
                   EXECUTE PRNTP.(DFILE)                                            176  LM00259
 01444 TSX +0 07400 4 00022    01445 TXH +3 00000 0 00230
                 END OF CONDITIONAL                                                 177  LM00260
                 WHENEVER CRASH.E.2                                                 178  LM00261
 01446 CLA +0 50000 0 00154    01447 SUB +0 40200 0 00343    01450 TNZ -0 10000 0 01460
                   EXECUTE PRNTP.(CRFILE)                                           179  LM00262
 01451 TSX +0 07400 4 00022    01452 TXH +3 00000 0 00166
                   EXECUTE PRNTP.(CRFIL)                                            180  LM00263
 01453 TSX +0 07400 4 00022    01454 TXH +3 00000 0 00204
                   EXECUTE CHMODE.(CRFIL(6),0)                                      181  LM00264
 01455 TSX +0 07400 4 00004    01456 TXH +3 00000 0 00176    01457 TXH +3 00000 0 00341
                 END OF CONDITIONAL                                                 182  LM00265
                 EXECUTE CHNCOM.(0)                                                 183  LM00266
 01460 TSX +0 07400 4 00005    01461 TXH +3 00000 0 00341
                 ENTRY TO USE.                                                      184  LM00271
 01462 TRA +0 02000 0 01465    00035 TTR +0 02100 0 01463    01463 SXA +0 63400 2 01522    01464 TSX +0 07400 2 01522
                 WHENEVER COMARG.(1,FILNAM).E.FENCE, TRANSFER TO SPLA2              185  LM00272
 01465 TSX +0 07400 4 00006    01466 TXH +3 00000 0 00342    01467 TXH +3 00000 0 00061    01470 SUB +0 40200 0 00266
 01471 TNZ -0 10000 0 01473    01472 TRA +0 02000 0 00102
                 WHENEVER COMARG.(2,TEST).NE.FENCE, FILNAM(1) = TEST                186  LM00273
 01473 TSX +0 07400 4 00006    01474 TXH +3 00000 0 00343    01475 TXH +3 00000 0 00334    01476 SUB +0 40200 0 00266
 01477 TZE +0 10000 0 01502    01500 CLA +0 50000 0 00334    01501 STO +0 60100 0 00060
                 TRANSFER TO SPLA2                                                  187  LM00274
 01502 TRA +0 02000 0 00102
      INVOP      EXECUTE PRNTP.(F6)                                                 188  LM00275
 01503 TSX +0 07400 4 00022    01504 TXH +3 00000 0 00265
                 EXECUTE CHNCOM.(0)                                                 189  LM00276
 01505 TSX +0 07400 4 00005    01506 TXH +3 00000 0 00341
      EOFILE     EXECUTE WRDCNT.(WC)                                                190  LM00277
 01507 TSX +0 07400 4 00032    01510 TXH +3 00000 0 00335
                 NOMORE = 1                                                         191  LM00278
 01511 CLA +0 50000 0 00342    01512 STO +0 60100 0 00322
                 WHENEVER WC.G.0, TRANSFER TO BRANCH(2)                             192  LM00279
 01513 CLA +0 50000 0 00335    01514 SUB +0 40200 0 00341    01515 TZE +0 10000 0 01520    01516 TMI -0 12000 0 01520
 01517 TRA +0 02000 0 00065
      EOFA1      TRANSFER TO CLOSE                                                  193  LM00280
 01520 TRA +0 02000 0 00071
                 DIMENSION ARGS(18),BLOCK(21),DFILE(18),NFILE(19),NEWFIL(1)         194  LM00282
                 DIMENSION FILNAM(1),CRFILE(9),CRFIL(13)                            195  LM00283
                 EQUIVALENCE (ARGS,FILNAM)                                          196  LM00284
                 VECTOR VALUES FENCE = 777777777777K                                197  LM00285
 00266     -3 77777 7 77777
                 VECTOR VALUES BUFFL = 470                                          198  LM00286
 00142     +0 00000 0 00726
                 VECTOR VALUES HWDCT = $(WDCT)$                                     199  LM00287
 00271     -3 46624 2 36334
                 VECTOR VALUES HRCCT = $(RCNO)$                                     200  LM00288
 00270     -3 45123 4 54634
                 VECTOR VALUES STAR = $     *$                                      201  LM00289
 00330     -2 06060 6 06054
                 VECTOR VALUES TEMP = $(TSPL)      $                                202  LM00290
 00332     -2 06060 6 06060    00333     -3 46362 4 74334
                 VECTOR VALUES COMMA = 736057575757K                                203  LM00291
 00150     -3 36057 5 75757
                 VECTOR VALUES CHAR1 = 1K2                                          204  LM00292
 00143     +0 00000 0 00100
                 VECTOR VALUES CHAR3 = 1K6                                          205  LM00293
 00144     +0 00001 0 00000
                 VECTOR VALUES CHAR4 = 1K8                                          206  LM00294
 00145     +0 00100 0 00000
                 VECTOR VALUES SWITCH = 0                                           207  LM00295
 00331     +0 00000 0 00000
                 VECTOR VALUES XSWTCH = 0                                           208  LM00296
 00340     +0 00000 0 00000
                 VECTOR VALUES NOARGS = 0                                           209  LM00297
 00321     +0 00000 0 00000
                 VECTOR VALUES RECNO = 0                                            210  LM00298
 00325     +0 00000 0 00000
                 VECTOR VALUES SKIPRD = 0                                           211  LM00299
 00327     +0 00000 0 00000
                 VECTOR VALUES NOMORE = 0                                           212  LM00300
 00322     +0 00000 0 00000
                 VECTOR VALUES CHARO = 0                                            213  LM00301
 00146     +0 00000 0 00000
                 VECTOR VALUES CRASH = 0                                            214  LM00302
 00154     +0 00000 0 00000
                 VECTOR VALUES ALLFI = 1                                            215  LM00303
 00104     +0 00000 0 00001
                 VECTOR VALUES COM = $SEQ NOREC NOWRD CT$                           216  LM00304
 00151     -2 65124 6 02363    00152     -1 12523 6 04546    00153     -2 22550 6 04546
                 VECTOR VALUES FILNO = 4                                            217  LM00305
 00267     +0 00000 0 00004
                 VECTOR VALUES DELNO = 3                                            218  LM00306
 00205     +0 00000 0 00003
                 VECTOR VALUES F1 = $NO SPLIT REQUIRED$,777777777777K               219  LM00307
 00231     -3 77777 7 77777    00232     -2 43151 2 52460    00233     +3 16360 5 12550    00234     -0 54660 6 24743
                 VECTOR VALUES F2 = $NEED              $,777777777777K              220  LM00308
 00235     -3 77777 7 77777    00236     -2 06060 6 06060    00237     -2 06060 6 06060    00240     -0 52525 2 46060
                 VECTOR VALUES F3 = $FILE                SPLIT BY        $          221  LM00309
                1,777777777777K                                                     221  LM00310
 00241     -3 77777 7 77777    00242     -2 06060 6 06060    00243     -2 36022 7 06060    00244     -2 06062 4 74331
 00245     -2 06060 6 06060    00246     -2 06060 6 06060    00247     +2 63143 2 56060
                 VECTOR VALUES F4 = $NO FILES CREATED$,777777777777K                222  LM00311
 00250     -3 77777 7 77777    00251     +2 16325 2 46060    00252     +2 56260 2 35125    00253     -0 54660 2 63143
                 VECTOR VALUES F5 = $ALL FILES CREATED$,777777777777K               223  LM00312
 00254     -3 77777 7 77777    00255     +2 52163 2 52460    00256     -0 32562 6 02351    00257     +2 14343 6 02631
                 VECTOR VALUESF6=$INVALID SEQUENCE OF ARGUMENTS$,777777777777K      224  LM00313
 00260     -3 77777 7 77777    00261     -0 42545 6 36260    00262     +2 66021 5 12764    00263     +2 54523 2 56046
 00264     +2 46062 2 55064    00265     +3 14565 2 14331
                 VECTOR VALUES NFILE = $ONLY FILES CREATED ARE,$                    225  LM00314
 00315     -2 02151 2 57360    00316     -1 12521 6 32524    00317     +3 14325 6 26023    00320     -0 64543 7 06026
                 VECTOR VALUES DFILE = $DELETED FILES ARE$                          226  LM00315
 00226     -2 26021 5 12560    00227     +2 46026 3 14325    00230     +2 42543 2 56325
                 VECTOR VALUES CRFILE = $CHANGE OF MODE AT SEQUENCE NO.$            227  LM00316
 00162     +2 32560 4 54633    00163     -2 22550 6 42545    00164     +2 42560 2 16360    00165     -2 04626 6 04446
 00166     +2 33021 4 52725
                 VECTOR VALUES CRFILE(6) = $, RECORD NO. $,777777777777K            228  LM00317
 00155     -3 77777 7 77777    00156     -2 06060 6 06060    00157     -1 12460 4 54633    00160     -3 36051 2 52346
                 VECTOR VALUES CRFIL(1)=$ IS TRUNCATED. TEMPORARY FILE (SPLT)$      229  LM00318
 00176     -3 46247 4 36334    00177     -2 02631 4 32560    00200     -0 74651 2 15170    00201     +2 43360 6 32544
 00202     -2 44523 2 16325    00203     -2 03162 6 06351
                 VECTOR VALUES CRFIL(8) = $ HOLDS REST OF ORGINAL FILE$             230  LM00319
 00170     +3 14325 6 06060    00171     +3 14521 4 36026    00172     -0 62660 4 65127    00173     -2 05125 6 26360
 00174     -2 03046 4 32462
                 VECTOR VALUES CRFIL(13) = 777777777777K                            231  LM00320
 00167     -3 77777 7 77777
                 END OF FUNCTION                                                    232  LM00321
 01521 TSX +0 07400 4 00013    01522 TXH +3 00000 0 00000    01523 SXD -0 63400 1 01522    01524 SXA +0 63400 4 01533
 01525 CLA +0 50000 4 00001    01526 STO +0 60100 0 00535    01527 STO +0 60100 0 00541    01530 STO +0 60100 0 00626
 01531 STO +0 60100 0 00632    01532 TRA +0 02000 2 00001    01533 AXT +0 77400 4 00000    01534 LXA +0 53400 2 01522
 01535 LXD -0 53400 1 01522    01536 TRA +0 02000 4 00001
                 END OF PROGRAM                                                     233  LM00322
 01540 TSX +0 07400 4 00013
1                                                                                                PAGE 1
                           FILE NAME -- FIX00 FAP

                       00003         ENTRY   FIX

        TRANSFER VECTOR
      00000  244651444563     DORMNT

            LINKAGE DIRECTOR
      00001  000000000000
      00002  263167606060

      00003  0500 60 4 00001  FIX    CLA*    1,4
      00004  0621 00 0 00010         STA     B
      00005  0500 00 4 00002         CLA     2,4
      00006  0621 00 0 00007         STA     A
      00007  0074 00 4 00000  A      TSX     **,4
 TD   00010  3 00000 0 00000  B      TXH     --
      00011  0074 00 4 00000         TSX     $DORMNT,4
                                     END
1                                                                                                PAGE 1
                        POST PROCESSOR ASSEMBLY DATA

         12 IS THE FIRST LOCATION NOT USED BY THIS PROGRAM

0REFERENCES TO DEFINED SYMBOLS
          7      A     6
         10      B     4
          3    FIX     0
          0 DORMNT    11

0 NO ERROR IN ABOVE ASSEMBLY.


 TAPES   BCD 10/04/70 1645.1   10054         00000


 MOUNT   BCD 11/23/69 1439.9    4564         00000
1            MOUNT AND UMOUNT COMMANDS FOR FOREGROUND.                           11/23/69 1425.5 PAGE 1

                                             REVISED 4/21/66 - N. I. MORRIS

                              *-*-*-*-*-*-*-*-*-*-*-*-*-*-*-*-*-*-*-*-*-*-*-*-*-*-*-*-*-*-*-*-*-*-*-*
                              *
                              *      USAGE -
                              *
                              *      MOUNT   REEL  UNITNO  -RING-  -CHAN-  -MESS-
                              *      UMOUNT UNITNO -RING-  -MESS-
                              *
                              *      WHERE -
                              *
                              *      REEL   = TAPE REEL IDENTIFICATION.
                              *      UNITNO = LOGICAL TAPE UNIT NUMBER
                              *      RING   = 'RING' OR 'NORING' ('NORING' WILL BE ASSUMED).
                              *      CHAN   = DESIRED CHANNEL, IF SPECIFIED
                              *      MESS   = 'MESS' IF A MESSAGE IS TO BE SENT TO THE OPERATOR.
                              *
                              *      IF 'MESS' IS PRESENT, PROGRAM WILL TYPE 'TYPE MESSAGE'
                              *      AND WAIT FOR INPUT.
                              *
                              *
                              *-*-*-*-*-*-*-*-*-*-*-*-*-*-*-*-*-*-*-*-*-*-*-*-*-*-*-*-*-*-*-*-*-*-*-*


                                     UNLIST
 M                            CALL   MACRO   SUBR,LIST


      00000  712543606060     ZEL
      00001  222324252360     BCDEC
      00002  512426436760     RDFLX
      00003  444664456360     MOUNT
      00004  644446644563     UMOUNT
      00005  246242255160     DSKER

                      000001  UBIT   BOOL    1             ON IF 'UMOUNT' COMMAND.
                      000002  CBIT   BOOL    2             ON IF CHANNEL SPECIFIED.
                      000004  RBIT   BOOL    4             ON IF 'RING' PARAMETER SPECIFIED.
                      000010  MBIT   BOOL    10            ON IF MESSAGE DESIRED.
                      000020  DBIT   BOOL    20            ON IF MESSAGE TO BE READ FROM DISK.
                      000100  FBIT   BOOL    100           ON IF USER IS FIB.


1            MOUNT AND UMOUNT COMMANDS FOR FOREGROUND.                           11/23/69 1425.5 PAGE 2
                           PICK UP PARAMETERS AND SET UP.

      00006  0057 00  777777         RIR     /             RESET RIGHT HALF INDICATORS

      00007                          CALL    SETBRK(CHN)   SET A BREAK LEVEL
      00007  0074 00 4 00305         TSX     SETBRK,4                                                         .002
      00010  3 00000 0 00213         PAR     CHN                                                              .004

      00011                          CALL    FERRTN        SET ERROR RETURN
      00011  0074 00 4 00306         TSX     FERRTN,4                                                         .002
      00012  0 00000 0 00227         PZE     ERROR         ..

      00013                          CALL    WHOAMI((CBUFF,,4)) CHECK FOR FIB USAGE
      00013  0074 00 4 00307         TSX     WHOAMI,4                                                         .002
      00014  3 00004 0 00261         PAR     CBUFF,,4                                                         .004
      00015 -0500 00 0 00264         CAL     CBUFF+3       GET 'UNITID'
      00016  0322 00 0 00353         ERA     =H(FIB)       ..
      00017 -0100 00 0 00021         TNZ     *+2           ..
      00020  0055 00  000100         SIR     FBIT          SET FIB INDIC.

      00021                          CALL    GETCLS((CBUFF,,0)) FILL BUFFER WITH COMMAND LINE
      00021  0074 00 4 00310         TSX     GETCLS,4                                                         .002
      00022  3 00000 0 00261         PAR     CBUFF,,0                                                         .004

      00023 -0500 00 0 00261         CAL     CBUFF         SEE WHO WE ARE
      00024  0322 00 0 00347         ERA     =HUMOUNT      ..
      00025 -0100 00 0 00042         TNZ     MOUNT)        PARTING

      00026  0055 00  000001         SIR     UBIT          SET UMOUNT INDIC.
      00027  0500 00 0 00343         CLA     =H     D      FIX UP MESSAGE
      00030  0560 00 0 00336         LDQ     =HISMOUN      FOR DISMOUNT COMMENT
      00031 -0603 00 0 00235         DST     MESSAG        ..
      00032  0500 00 0 00346         CLA     =HT TAPE      ..
      00033  0601 00 0 00237         STO     MESSAG+2      ..
      00034 -0774 00 1 00002         AXC     2,1           XR1 IS COMMAND BUFFER INDEX
      00035 -0500 00 0 00262         CAL     CBUFF+1       GET THE UNIT NUMBER
      00036 -0340 00 0 00342         LAS     =H   ALL      CHECK FOR 'UMOUNT ALL'
      00037  0020 00 0 00041         TRA     *+2           ..
      00040  0020 00 0 00063         TRA     ALL           ..
      00041  0020 00 0 00050         TRA     JOIN          AND JOIN

      00042 -0774 00 1 00003  MOUNT) AXC     3,1           ..
      00043 -0500 00 0 00262         CAL     CBUFF+1       GET THE TAPE REEL I.D.
      00044  0602 00 0 00237         SLW     REEL          ..
      00045  0322 00 0 00120         ERA     FENCE         NO FENCE ALLOWED
      00046  0100 00 0 00217         TZE     BADA          ..

      00047 -0500 00 0 00263         CAL     CBUFF+2       GET THE UNIT NUMBER
      00050  0602 00 0 00230  JOIN   SLW     TEM           ..
      00051  0322 00 0 00120         ERA     FENCE         AGAIN NO FENCE
      00052  0100 00 0 00217         TZE     BADA          ..
                              UNITNO =       $ZEL(TEM)     STRIP LEADING BLANKS
      00053  0074 00 4 00000         TSX     $ZEL,4                                                           .003
      00054  3 00000 0 00230         PAR     TEM                                                              .005
      00055  0601 00 0 00232         STO     UNITNO                                                           .002
      00056 -0500 00 0 00232         CAL     UNITNO        CHECK FOR NUMERIC PARAMETER
      00057 -0320 00 0 00344         ANA     =H            ..
1            MOUNT AND UMOUNT COMMANDS FOR FOREGROUND.                           11/23/69 1425.5 PAGE 3
                           PICK UP PARAMETERS AND SET UP.

      00060 -0100 00 0 00222         TNZ     BAD           AIN'T NO SUCH THINGS AS ALPHABETIC NOS.
      00061                          CALL    $BCDEC(UNITNO) CONVERT TO BINARY
      00061  0074 00 4 00001         TSX     $BCDEC,4                                                         .002
      00062  3 00000 0 00232         PAR     UNITNO                                                           .004
      00063  0602 00 0 00232  ALL    SLW     UNITNO        ..

      00064 -0500 00 1 00261  LOOP   CAL     CBUFF,1       GET NEXT PARAMETER
      00065  0602 00 0 00230         SLW     TEM           ..
      00066                          LKP     TBL,2,TRA     SEARCH FOR PARAMETER IN TABLE
      00066  0774 00 2 00012         AXT     NTBL,2                                                           .002
      00067 -0340 00 2 00122         LAS     TBL+NTBL,2                                                       .002
      00070  0020 00 0 00072         TRA     *+2                                                              .002
      00071  0020 00 2 00123         TRA     TBL+NTBL+1,2                                                     .002
      00072  2 00002 2 00067         TIX     *-3,2,2                                                          .002

      00073  0054 00  000003  NOT    RFT     CBIT+UBIT     LOOKS LIKE BETTER BE CHANNO
      00074  0020 00 0 00222         TRA     BAD           IF WE GOT ONE, THIS NO GOOD
                              CHANNO =       $ZEL(TEM)     STRIP LEADING BLANKS
      00075  0074 00 4 00000         TSX     $ZEL,4                                                           .003
      00076  3 00000 0 00230         PAR     TEM                                                              .005
      00077  0601 00 0 00231         STO     CHANNO                                                           .002
      00100 -0500 00 0 00231         CAL     CHANNO        CHECK FOR NUMBER
      00101 -0320 00 0 00344         ANA     =H            ..
      00102 -0100 00 0 00222         TNZ     BAD           ..
                              CHANNO =       $BCDEC(CHANNO) CONVERT TO BINARY
      00103  0074 00 4 00001         TSX     $BCDEC,4                                                         .003
      00104  3 00000 0 00231         PAR     CHANNO                                                           .005
      00105  0601 00 0 00231         STO     CHANNO                                                           .002
      00106  0055 00  000002         SIR     CBIT          SET INDIC.
      00107  1 77777 1 00064         TXI     LOOP,1,-1     NEXT PARAMETER


                       00110  TBL    SYN     *             TABLE OF OPTIONAL PARAMETERS.

      00110                          TTBL    (NORING)RING.
      00110  454651314527            BCI     1,NORING                                                         .002
      00111  0020 00 0 00142         TRA     RING.                                                            .002
      00112                          TTBL    (  RING)RING.
      00112  606051314527            BCI     1,  RING                                                         .002
      00113  0020 00 0 00142         TRA     RING.                                                            .002
      00114                          TTBL    (  MESS)MESS.
      00114  606044256262            BCI     1,  MESS                                                         .002
      00115  0020 00 0 00122         TRA     MESS.                                                            .002
      00116                          TTBL    ((MESS))MESS..
      00116  744425626234            BCI     1,(MESS)                                                         .002
      00117  0020 00 0 00126         TRA     MESS..                                                           .002
      00120  777777777777     FENCE  VFD     O36//
      00121  0021 00 0 00153         XIT     DONE

                       00012  NTBL   EQU     *-TBL

      00122  0054 00  000030  MESS.  RFT     MBIT+DBIT     CHECK VALIDITY
      00123  0020 00 0 00222         TRA     BAD           ..
      00124  0055 00  000010         SIR     MBIT          SET MESSAGE INDIC.
      00125  1 77777 1 00064         TXI     LOOP,1,-1     GO GET NEXT
1            MOUNT AND UMOUNT COMMANDS FOR FOREGROUND.                           11/23/69 1425.5 PAGE 4
                           PICK UP PARAMETERS AND SET UP.

      00126  0054 00  000030  MESS.. RFT     MBIT+DBIT     MESSAGE IS ON DISK
      00127  0020 00 0 00222         TRA     BAD           ..
      00130  0055 00  000030         SIR     MBIT+DBIT     SET INDIC.

      00131 -0500 00 1 00262         CAL     CBUFF+1,1     GET NEXT PARAMETER
      00132  0602 00 0 00233         SLW     NAME1         FIRST NAME OF FILE
      00133  0322 00 0 00120         ERA     FENCE         ..
      00134  0100 00 0 00217         TZE     BADA          ..
      00135 -0500 00 1 00263         CAL     CBUFF+2,1     SECOND NAME
      00136  0602 00 0 00234         SLW     NAME2         ..
      00137  0322 00 0 00120         ERA     FENCE         ..
      00140  0100 00 0 00217         TZE     BADA          ..
      00141  1 77775 1 00064         TXI     LOOP,1,-3     GO ON TO NEXT

      00142  0054 00  000004  RING.  RFT     RBIT          RING ARGUMENT, SEE IF WE GOT ONE
      00143  0020 00 0 00222         TRA     BAD           CAN'T HAVE 2
      00144  0055 00  000004         SIR     RBIT          ..
      00145  0560 00 0 00230         LDQ     TEM           GET PARAMETER
      00146 -0500 00 0 00344         CAL     =H            TRICKY, HUH
      00147 -0765 00 0 00030         LGR     24            ..
      00150 -0773 00 0 00030         RQL     24            ..
      00151 -0620 00 0 00241         SLQ     RING          AND PLACE IN MESSAGE
      00152  1 77777 1 00064         TXI     LOOP,1,-1     NEXT, PLEASE

1            MOUNT AND UMOUNT COMMANDS FOR FOREGROUND.                           11/23/69 1425.5 PAGE 5
                           READ MESSAGE, IF NECESSARY.

      00153  0056 00  000010  DONE   RNT     MBIT          SEE IF MESS REQUIRED
      00154  0020 00 0 00201         TRA     CALL          NO

      00155  0054 00  000020         RFT     DBIT          SEE IF MESSAGE IS ON DISK
      00156  0020 00 0 00164         TRA     RDISK         YES, READ IT FROM DISK

      00157                          COMENT  TYPE,1,(TYPE.),A
      00157  0074 00 4 00311         TSX     WRFLXA,4                                                         .003
      00160  3 00001 0 00312         PAR     TYPE,,1                                                          .005
      00161                          CALL    $RDFLX((BUFF,,14)) READ THE MESSAGE
      00161  0074 00 4 00002         TSX     $RDFLX,4                                                         .002
      00162  3 00016 0 00243         PAR     BUFF,,14                                                         .004
      00163  0020 00 0 00201         TRA     CALL          ..

      00164                   RDISK  CALL    OPEN(=HR,NAME1,NAME2) OPEN THE FILE
      00164  0074 00 4 00313         TSX     OPEN,4                                                           .002
      00165  3 00000 0 00341         PAR     =HR                                                              .004
      00166  3 00000 0 00233         PAR     NAME1                                                            .004
      00167  3 00000 0 00234         PAR     NAME2                                                            .004

      00170                          CALL    RDFILE(NAME1,NAME2,=0(BUFF,,12)*+1) READ THE CARD
      00170  0074 00 4 00314         TSX     RDFILE,4                                                         .002
      00171  3 00000 0 00233         PAR     NAME1                                                            .004
      00172  3 00000 0 00234         PAR     NAME2                                                            .004
      00173  3 00000 0 00331         PAR     =0                                                               .004
      00174  3 00014 0 00243         PAR     BUFF,,12                                                         .004
      00175  3 00000 0 00176         PAR     *+1                                                              .004

      00176                          CALL    CLOSE(NAME1,NAME2) AND CLOSE THE FILE
      00176  0074 00 4 00315         TSX     CLOSE,4                                                          .002
      00177  3 00000 0 00233         PAR     NAME1                                                            .004
      00200  3 00000 0 00234         PAR     NAME2                                                            .004
1            MOUNT AND UMOUNT COMMANDS FOR FOREGROUND.                           11/23/69 1425.5 PAGE 6
                           CALL MOUNT OR UMOUNT.

      00201  0054 00  000001  CALL   RFT     UBIT          SEE WHO TO CALL
      00202  0020 00 0 00210         TRA     UMT           SO, WE DISMOUNT

      00203                   MNT    CALL    $MOUNT(CHANNO,UNITNO(MESSAG,,20))
      00203  0074 00 4 00003         TSX     $MOUNT,4                                                         .002
      00204  3 00000 0 00231         PAR     CHANNO                                                           .004
      00205  3 00000 0 00232         PAR     UNITNO                                                           .004
      00206  3 00024 0 00235         PAR     MESSAG,,20                                                       .004
      00207  0021 00 0 00213         XIT     CHN           EXIT TO CHNCOM

      00210                   UMT    CALL    $UMOUNT(UNITNO(MESSAG,,20))
      00210  0074 00 4 00004         TSX     $UMOUNT,4                                                        .002
      00211  3 00000 0 00232         PAR     UNITNO                                                           .004
      00212  3 00024 0 00235         PAR     MESSAG,,20                                                       .004

      00213                   CHN    CALL    WRFLX((*,,0)) TYPE A C.R.
      00213  0074 00 4 00316         TSX     WRFLX,4                                                          .002
      00214  3 00000 0 00214         PAR     *,,0                                                             .004

      00215                          CALL    CHNCOM(0)     EXIT TO CHNCOM
      00215  0074 00 4 00317         TSX     CHNCOM,4                                                         .002
      00216  3 00000 0 00000         PAR     0                                                                .004
1            MOUNT AND UMOUNT COMMANDS FOR FOREGROUND.                           11/23/69 1425.5 PAGE 7
                           ERROR MESSAGES.

      00217                   BADA   COMENT  NOTNUF,5,(INCOMPLETE SET OF PARAMETERS.)
      00217  0074 00 4 00316         TSX     WRFLX,4                                                          .003
      00220  3 00005 0 00320         PAR     NOTNUF,,5                                                        .005
      00221  0021 00 0 00213         XIT     CHN           ..

      00222 -0500 00 0 00230  BAD    CAL     TEM           GET OFFENDING PARAMETER
      00223  0602 00 0 00330         SLW     ILPAR+3       ..
      00224                          COMENT  ILPAR,4,(INVALID ARGUMENT..      )
      00224  0074 00 4 00316         TSX     WRFLX,4                                                          .003
      00225  3 00004 0 00325         PAR     ILPAR,,4                                                         .005
      00226  0021 00 0 00213         XIT     CHN           ..

      00227  0021 00 0 00005  ERROR  XIT     $DSKER        CHAIN TO PRNTER

1            MOUNT AND UMOUNT COMMANDS FOR FOREGROUND.                           11/23/69 1425.5 PAGE 8
                           STORAGE AND CONSTANTS.

      00230  0 00000 0 00000  TEM    PZE
      00231  0 00000 0 00000  CHANNO PZE
      00232  0 00000 0 00000  UNITNO PZE
      00233  0 00000 0 00000  NAME1  PZE
      00234  0 00000 0 00000  NAME2  PZE


      00235  604446644563     MESSAG BCI     2, MOUNT TAPE
      00237  606060606060     REEL   BCI     2,       WITH
      00241  454660513145     RING   BCI     2,NO RING.
      00243  606060606060     BUFF   BCI ,
      00255  606060606060            BCI     4,

      00261                   CBUFF  BSS     20


      00305                          RMT     *             REMOTE SEQUENCES
      00305  0101 00 0 00345  SETBRK TIA     =HSETBRK                                                         .002
      00306  0101 00 0 00334  FERRTN TIA     =HFERRTN                                                         .002
      00307  0101 00 0 00350  WHOAMI TIA     =HWHOAMI                                                         .002
      00310  0101 00 0 00335  GETCLS TIA     =HGETCLS                                                         .002
      00311  0101 00 0 00351  WRFLXA TIA     =HWRFLXA                                                         .002
      00312  637047253360     TYPE   BCI     1,TYPE.                                                          .002
      00313  0101 00 0 00337  OPEN   TIA     =HOPEN                                                           .002
      00314  0101 00 0 00340  RDFILE TIA     =HRDFILE                                                         .002
      00315  0101 00 0 00333  CLOSE  TIA     =HCLOSE                                                          .002
      00316  0101 00 0 00352  WRFLX  TIA     =HWRFLX                                                          .002
      00317  0101 00 0 00332  CHNCOM TIA     =HCHNCOM                                                         .002
      00320  314523464447     NOTNUF BCI     5,INCOMPLETE SET OF PARAMETERS.                                  .002
      00325  314565214331     ILPAR  BCI     4,INVALID ARGUMENT..                                             .002

                                     END

        LITERALS
      00331  000000000000
      00332  233045234644
      00333  234346622560
      00334  262551516345
      00335  272563234362
      00336  316244466445
      00337  464725456060
      00340  512426314325
      00341  516060606060
      00342  606060214343
      00343  606060606024
      00344  606060606060
      00345  622563225142
      00346  636063214725
      00347  644446644563
      00350  663046214431
      00351  665126436721
      00352  665126436760
      00353  742631223460
1            MOUNT AND UMOUNT COMMANDS FOR FOREGROUND.                           11/23/69 1425.5 PAGE 1
                        POST PROCESSOR ASSEMBLY DATA

        354 IS THE FIRST LOCATION NOT USED BY THIS PROGRAM

0REFERENCES TO DEFINED SYMBOLS
         63    ALL    40
        222    BAD    60,   74,  102,  123,  127,  143
        213    CHN    10,  207,  221,  226
        203    MNT
         73    NOT
        110    TBL    67,   71,  110,  122
        230    TEM    50,   54,   65,   76,  145,  222
        210    UMT   202
          0    ZEL    53,   75
        217   BADA    46,   52,  134,  140
        243   BUFF   162,  174
        201   CALL   154,  163
          2   CBIT     6,   73,  106
         20   DBIT     6,  122,  126,  130,  155
        153   DONE   121
        100   FBIT     6,   20
         50   JOIN    41
         64   LOOP   107,  125,  141,  152
         10   MBIT     6,  122,  124,  126,  130,  153
         12   NTBL    66,   67,   71,  122
        313   OPEN   164
          4   RBIT     6,  142,  144
        237   REEL    44
        241   RING   151
        312   TYPE   160
          1   UBIT     6,   26,   73,  201
          1  BCDEC    61,  103
        261  CBUFF    14,   15,   22,   23,   35,   43,   47,   64,  131,  135
        315  CLOSE   176
          5  DSKER   227
        227  ERROR    12
        120  FENCE    45,   51,  133,  137
        325  ILPAR   223,  225
        122  MESS.   115
          3  MOUNT   203
        233  NAME1   132,  166,  171,  177
        234  NAME2   136,  167,  172,  200
          2  RDFLX   161
        164  RDISK   156
        142  RING.   111,  113
        316  WRFLX   213,  217,  224
        231 CHANNO    77,  100,  104,  105,  204
        317 CHNCOM   215
        306 FERRTN    11
        310 GETCLS    21
        235 MESSAG    31,   33,  206,  212
        126 MESS..   117
         42 MOUNT)    25
        320 NOTNUF   220
        314 RDFILE   170
        305 SETBRK     7
1            MOUNT AND UMOUNT COMMANDS FOR FOREGROUND.                           11/23/69 1425.5 PAGE 2
                        POST PROCESSOR ASSEMBLY DATA

          4 UMOUNT   210
        232 UNITNO    55,   56,   62,   63,  205,  211
        307 WHOAMI    13
        311 WRFLXA   157

0 NO ERROR IN ABOVE ASSEMBLY.


VERIFY   BCD 11/23/69 1439.9    2674         00000
1            VERIFY AND LABEL COMMANDS FOR FOREGROUND.                           11/23/69 1428.2 PAGE 1


                              *-*-*-*-*-*-*-*-*-*-*-*-*-*-*-*-*-*-*-*-*-*-*-*-*-*-*-*-*-*-*-*-*-*-*-*
                              *
                              *      USAGE -
                              *
                              *      VERIFY  UNITNO  - NAME1  NAME2 -
                              *      LABEL   UNITNO  - NAME1  NAME2 -
                              *
                              *      WHERE -
                              *
                              *      UNITNO = LOGICAL UNIT NO. OF TAPE TO BE LABELLED/VERIFIED.
                              *      NAME1  = PRIMARY NAME OF FILE CONTAINING LABEL.
                              *      NAME2  = SECONDARY NAME OF FILE CONTAINING LABEL.
                              *
                              *      IF NO FILE NAME WAS SPECIFIED,  THE PROGRAM WILL ASK
                              *      FOR THE LABEL AND READ IT FROM CONSOLE.
                              *      OTHERWISE, THE LABEL WILL BE READ FROM A FILE.
                              *
                              *
                              *-*-*-*-*-*-*-*-*-*-*-*-*-*-*-*-*-*-*-*-*-*-*-*-*-*-*-*-*-*-*-*-*-*-*-*


                                     UNLIST
 M                            CALL   MACRO   SUBR,LIST


                              GTCM   MACRO   A,B,C
                              A      =L      GETCOM(B)
                                     ERA     FENCE
                                     TZE     C
                              GTCM   END

1            VERIFY AND LABEL COMMANDS FOR FOREGROUND.                           11/23/69 1428.2 PAGE 2


      00000  246242255160     DSKER
      00001  434164626360     LJUST
      00002  712543606060     ZEL
      00003  222324252360     BCDEC
      00004  512426436760     RDFLX

      00005                          CALL    SETBRK(Q)     SET A BREAK LEVEL
      00005  0074 00 4 00130         TSX     SETBRK,4                                                         .002
      00006  3 00000 0 00075         PAR     Q                                                                .004

      00007                          CALL    FERRTN($DSKER) SET FILE SYSTEM ERROR RETURN
      00007  0074 00 4 00131         TSX     FERRTN,4                                                         .002
      00010  3 00000 0 00000         PAR     $DSKER                                                           .004

                              CNAME  =L      GETCOM(0)     SAVE COMMAND NAME
      00011  0074 00 4 00132         TSX     GETCOM,4                                                         .003
      00012  3 00000 0 00000         PAR     0                                                                .005
      00013  0602 00 0 00113         SLW     CNAME                                                            .002

                              CNAME  =       $LJUST(CNAME) MUST BE LEFT-JUSTIFIED
      00014  0074 00 4 00001         TSX     $LJUST,4                                                         .003
      00015  3 00000 0 00113         PAR     CNAME                                                            .005
      00016  0601 00 0 00113         STO     CNAME                                                            .002

      00017                          GTCM    TEM,1,INCOMP  GET UNIT NUMBER
      00017  0074 00 4 00132         TSX     GETCOM,4                                                         .004
      00020  3 00000 0 00001         PAR     1                                                                .006
      00021  0602 00 0 00117         SLW     TEM                                                              .003
                              UNITNO =       $ZEL(TEM)     STRIP LEADING BLANKS
      00024  0074 00 4 00002         TSX     $ZEL,4                                                           .003
      00025  3 00000 0 00117         PAR     TEM                                                              .005
      00026  0601 00 0 00112         STO     UNITNO                                                           .002
      00027 -0320 00 0 00170         ANA     =H            IT IS A LEGAL NUMBER
      00030 -0100 00 0 00105         TNZ     BAD           AIN'T NO SUCH THING AS ALPHABETIC NUMBERS

                              UNITNO =       $BCDEC(UNITNO) NOW CONVERT TO BINARY
      00031  0074 00 4 00003         TSX     $BCDEC,4                                                         .003
      00032  3 00000 0 00112         PAR     UNITNO                                                           .005
      00033  0601 00 0 00112         STO     UNITNO                                                           .002

      00034                          GTCM    N1,2,RDLBL    CHECK FOR FILE NAME GIVEN
      00034  0074 00 4 00132         TSX     GETCOM,4                                                         .004
      00035  3 00000 0 00002         PAR     2                                                                .006
      00036  0602 00 0 00114         SLW     N1                                                               .003
      00041                          GTCM    N2,3,INCOMP   ..
      00041  0074 00 4 00132         TSX     GETCOM,4                                                         .004
      00042  3 00000 0 00003         PAR     3                                                                .006
      00043  0602 00 0 00115         SLW     N2                                                               .003

      00046                          CALL    OPEN(=HR,N1,N2) OPEN THE FILE
      00046  0074 00 4 00133         TSX     OPEN,4                                                           .002
      00047  3 00000 0 00167         PAR     =HR                                                              .004
      00050  3 00000 0 00114         PAR     N1                                                               .004
      00051  3 00000 0 00115         PAR     N2                                                               .004
1            VERIFY AND LABEL COMMANDS FOR FOREGROUND.                           11/23/69 1428.2 PAGE 3

      00052                          CALL    RDFILE(N1,N2,=0(LBL,,4)*+1) READ 4 WORDS
      00052  0074 00 4 00134         TSX     RDFILE,4                                                         .002
      00053  3 00000 0 00114         PAR     N1                                                               .004
      00054  3 00000 0 00115         PAR     N2                                                               .004
      00055  3 00000 0 00155         PAR     =0                                                               .004
      00056  3 00004 0 00120         PAR     LBL,,4                                                           .004
      00057  3 00000 0 00060         PAR     *+1                                                              .004
      00060                          CALL    CLOSE(N1,N2)  AND CLOSE THE FILE
      00060  0074 00 4 00135         TSX     CLOSE,4                                                          .002
      00061  3 00000 0 00114         PAR     N1                                                               .004
      00062  3 00000 0 00115         PAR     N2                                                               .004

      00063  0020 00 0 00070         TRA     TRYAG         NOW GO LABEL/VERIFY THE TAPE


      00064                   RDLBL  COMENT  T,2,(TYPE LABEL.),A ASK FOR LABEL
      00064  0074 00 4 00136         TSX     WRFLXA,4                                                         .003
      00065  3 00002 0 00137         PAR     T,,2                                                             .005
      00066                          CALL    $RDFLX((LBL,,4)) READ THE LABEL
      00066  0074 00 4 00004         TSX     $RDFLX,4                                                         .002
      00067  3 00004 0 00120         PAR     LBL,,4                                                           .004

      00070 -0774 00 4 00071  TRYAG  AXC     *+1,4         SIMULATED TSX
      00071  0101 00 0 00113         TIA     CNAME         TO A-CORE WE GO
      00072  3 00000 0 00112         PAR     UNITNO        ..
      00073  3 00004 0 00120         PAR     LBL,,4        ..
      00074  3 00000 0 00077         PAR     ERR           ..

      00075                   Q      CALL    CHNCOM(0)     EXIT TO CHNCOM
      00075  0074 00 4 00141         TSX     CHNCOM,4                                                         .002
      00076  3 00000 0 00000         PAR     0                                                                .004
1            VERIFY AND LABEL COMMANDS FOR FOREGROUND.                           11/23/69 1428.2 PAGE 4

      00077 -0500 00 0 00165  ERR    CAL     =HPRNTER      COMMAND IN AC
      00100  0560 00 0 00162         LDQ     =O-51         PARAMETER IN MQ
      00101                          CALL    NEXCOM        AND EXIT TO NEXCOM
      00101  0074 00 4 00142         TSX     NEXCOM,4                                                         .002

      00102                   INCOMP COMENT  ICSA,5(INCOMPLETE SET OF PARAMETERS.)
      00102  0074 00 4 00143         TSX     WRFLX,4                                                          .003
      00103  3 00005 0 00144         PAR     ICSA,,5                                                          .005
      00104  0021 00 0 00075         XIT     Q

      00105 -0500 00 0 00117  BAD    CAL     TEM
      00106  0602 00 0 00154         SLW     ILPAR+3
      00107                          COMENT  ILPAR,4,(INVALID ARGUMENT..)
      00107  0074 00 4 00143         TSX     WRFLX,4                                                          .003
      00110  3 00004 0 00151         PAR     ILPAR,,4                                                         .005
      00111  0021 00 0 00075         XIT     Q
1            VERIFY AND LABEL COMMANDS FOR FOREGROUND.                           11/23/69 1428.2 PAGE 5

      00112  0 00000 0 00000  UNITNO PZE
      00113  0 00000 0 00000  CNAME  PZE
      00114  0 00000 0 00000  N1     PZE
      00115  0 00000 0 00000  N2     PZE
      00116  777777777777     FENCE  VFD     O36//
      00117  0 00000 0 00000  TEM    PZE

      00120  606060606060     LBL    BCI     4,

      00124                   WHOBUF BSS     4


      00130                          RMT     *             REMOTE SEQUENCES
      00130  0101 00 0 00171  SETBRK TIA     =HSETBRK                                                         .002
      00131  0101 00 0 00160  FERRTN TIA     =HFERRTN                                                         .002
      00132  0101 00 0 00161  GETCOM TIA     =HGETCOM                                                         .002
      00133  0101 00 0 00164  OPEN   TIA     =HOPEN                                                           .002
      00134  0101 00 0 00166  RDFILE TIA     =HRDFILE                                                         .002
      00135  0101 00 0 00157  CLOSE  TIA     =HCLOSE                                                          .002
      00136  0101 00 0 00172  WRFLXA TIA     =HWRFLXA                                                         .002
      00137  637047256043     T      BCI     2,TYPE LABEL.                                                    .002
      00141  0101 00 0 00156  CHNCOM TIA     =HCHNCOM                                                         .002
      00142  0101 00 0 00163  NEXCOM TIA     =HNEXCOM                                                         .002
      00143  0101 00 0 00173  WRFLX  TIA     =HWRFLX                                                          .002
      00144  314523464447     ICSA   BCI     5,INCOMPLETE SET OF PARAMETERS.                                  .002
      00151  314565214331     ILPAR  BCI     4,INVALID ARGUMENT..                                             .002

                                     END

        LITERALS
      00155  000000000000
      00156  233045234644
      00157  234346622560
      00160  262551516345
      00161  272563234644
      00162  400000000051
      00163  452567234644
      00164  464725456060
      00165  475145632551
      00166  512426314325
      00167  516060606060
      00170  606060606060
      00171  622563225142
      00172  665126436721
      00173  665126436760
1            VERIFY AND LABEL COMMANDS FOR FOREGROUND.                           11/23/69 1428.2 PAGE 1
                        POST PROCESSOR ASSEMBLY DATA

        174 IS THE FIRST LOCATION NOT USED BY THIS PROGRAM

0REFERENCES TO DEFINED SYMBOLS
         75      Q     6,  104,  111
        137      T    65
        114     N1    36,   50,   53,   61
        115     N2    43,   51,   54,   62
        105    BAD    30
         77    ERR    74
        120    LBL    56,   67,   73
        117    TEM    21,   25,  105
          2    ZEL    24
        144   ICSA   103
        133   OPEN    46
          3  BCDEC    31
        135  CLOSE    60
        113  CNAME    13,   15,   16,   71
          0  DSKER    10
        116  FENCE    22,   37,   44
        151  ILPAR   106,  110
          1  LJUST    14
          4  RDFLX    66
         64  RDLBL    40
         70  TRYAG    63
        143  WRFLX   102,  107
        141 CHNCOM    75
        131 FERRTN     7
        132 GETCOM    11,   17,   34,   41
        102 INCOMP    23,   45
        142 NEXCOM   101
        134 RDFILE    52
        130 SETBRK     5
        112 UNITNO    26,   32,   33,   72
        124 WHOBUF
        136 WRFLXA    64

0 NO ERROR IN ABOVE ASSEMBLY.


TAPFIL   BCD 11/23/69 1439.9    2774         00000
1            TAPFIL COMMAND FOR FOREGROUND.                                      11/23/69 1439.6 PAGE 1


                                     UNLIST
 M                            CALL   MACRO   SUBR,LIST


                              *-*-*-*-*-*-*-*-*-*-*-*-*-*-*-*-*-*-*-*-*-*-*-*-*-*-*-*-*-*-*-*-*-*-*-*
                              *
                              *      USAGE -
                              *
                              *      TAPFIL  NAME1  NAME2  UNITNO  -FILENO-
                              *
                              *      WHERE -
                              *
                              *      NAME1  = PRIMARY NAME OF FILE.
                              *      NAME2  = SECONDARY NAME.
                              *      UNITNO = LOGICAL UNIT NO. OF TAPE.
                              *      FILENO = FILE NUMBER ON TAPE.
                              *
                              *      IF 'FILENO' IS NOT GIVEN, IT IS ASSUMED
                              *              TO BE ZERO.
                              *
                              *
                              *-*-*-*-*-*-*-*-*-*-*-*-*-*-*-*-*-*-*-*-*-*-*-*-*-*-*-*-*-*-*-*-*-*-*-*


                              GTCM   MACRO   A,B,C
                              A      =L      GETCOM(B)
                                     ERA     FENCE
                                     TZE     C
                              GTCM   END
1            TAPFIL COMMAND FOR FOREGROUND.                                      11/23/69 1439.6 PAGE 2


      00000  712543606060     ZEL
      00001  222324252360     BCDEC
      00002  242543256325     DELETE

      00003                          CALL    SETBRK(Q)     SET A BREAK LEVEL
      00003  0074 00 4 00150         TSX     SETBRK,4                                                         .002
      00004  3 00000 0 00075         PAR     Q                                                                .004

      00005                          GTCM    NAME1,1,BADA  GET PRIMARY NAME
      00005  0074 00 4 00151         TSX     GETCOM,4                                                         .004
      00006  3 00000 0 00001         PAR     1                                                                .006
      00007  0602 00 0 00135         SLW     NAME1                                                            .003
      00012                          GTCM    NAME2,2,BADA  AND SECONDARY NAME
      00012  0074 00 4 00151         TSX     GETCOM,4                                                         .004
      00013  3 00000 0 00002         PAR     2                                                                .006
      00014  0602 00 0 00137         SLW     NAME2                                                            .003

      00017                          GTCM    TEM,3,BADA    GET UNIT NUMBER
      00017  0074 00 4 00151         TSX     GETCOM,4                                                         .004
      00020  3 00000 0 00003         PAR     3                                                                .006
      00021  0602 00 0 00130         SLW     TEM                                                              .003
                              UNITNO =       $ZEL(TEM)     STRIP LEADING BLANKS
      00024  0074 00 4 00000         TSX     $ZEL,4                                                           .003
      00025  3 00000 0 00130         PAR     TEM                                                              .005
      00026  0601 00 0 00125         STO     UNITNO                                                           .002
      00027 -0320 00 0 00204         ANA     =H            CHECK FOR ZONE BITS
      00030 -0100 00 0 00120         TNZ     BAD           ..
                              UNITNO =       $BCDEC(UNITNO) CONVERT TO BINARY
      00031  0074 00 4 00001         TSX     $BCDEC,4                                                         .003
      00032  3 00000 0 00125         PAR     UNITNO                                                           .005
      00033  0601 00 0 00125         STO     UNITNO                                                           .002

      00034                          GTCM    TEM,4,DONE    GET FILE NO. , IF ANY
      00034  0074 00 4 00151         TSX     GETCOM,4                                                         .004
      00035  3 00000 0 00004         PAR     4                                                                .006
      00036  0602 00 0 00130         SLW     TEM                                                              .003
                              FILENO =       $ZEL(TEM)     STRIP BLANKS
      00041  0074 00 4 00000         TSX     $ZEL,4                                                           .003
      00042  3 00000 0 00130         PAR     TEM                                                              .005
      00043  0601 00 0 00126         STO     FILENO                                                           .002
      00044 -0320 00 0 00204         ANA     =H            AND CHECK FOR ZONE BITS
      00045 -0100 00 0 00120         TNZ     BAD
                              FILENO =       $BCDEC(FILENO) CONVERT TO BINARY
      00046  0074 00 4 00001         TSX     $BCDEC,4                                                         .003
      00047  3 00000 0 00126         PAR     FILENO                                                           .005
      00050  0601 00 0 00126         STO     FILENO                                                           .002

      00051                   DONE   CALL    FSTATE(NAME1,NAME2(TEM,,4)DEL)
      00051  0074 00 4 00152         TSX     FSTATE,4                                                         .002
      00052  3 00000 0 00135         PAR     NAME1                                                            .004
      00053  3 00000 0 00137         PAR     NAME2                                                            .004
      00054  3 00004 0 00130         PAR     TEM,,4                                                           .004
      00055  3 00000 0 00062         PAR     DEL                                                              .004
      00056 -0500 00 0 00133         CAL     DEVICE        CHECK FOR DISK/DRUM FILE
1            TAPFIL COMMAND FOR FOREGROUND.                                      11/23/69 1439.6 PAGE 3

      00057  0402 00 0 00173         SUB     =3            ..
      00060  0100 00 0 00062         TZE     *+2           ..
      00061 -0120 00 0 00102         TMI     DSKFL         GO ASK TO DELETE DISK FILE

      00062                   DEL    CALL    $DELETE(NAME1,NAME2,*,Q) TRY TO DELETE OLD FILE
      00062  0074 00 4 00002         TSX     $DELETE,4                                                        .002
      00063  3 00000 0 00135         PAR     NAME1                                                            .004
      00064  3 00000 0 00137         PAR     NAME2                                                            .004
      00065  3 00000 0 00065         PAR     *                                                                .004
      00066  3 00000 0 00075         PAR     Q                                                                .004

      00067                          CALL    TAPFIL(NAME1,NAME2,UNITNO,FILENO,ERR)
      00067  0074 00 4 00153         TSX     TAPFIL,4                                                         .002
      00070  3 00000 0 00135         PAR     NAME1                                                            .004
      00071  3 00000 0 00137         PAR     NAME2                                                            .004
      00072  3 00000 0 00125         PAR     UNITNO                                                           .004
      00073  3 00000 0 00126         PAR     FILENO                                                           .004
      00074  3 00000 0 00077         PAR     ERR                                                              .004

      00075                   Q      CALL    CHNCOM(0)     EXIT TO CHNCOM
      00075  0074 00 4 00154         TSX     CHNCOM,4                                                         .002
      00076  3 00000 0 00000         PAR     0                                                                .004
1            TAPFIL COMMAND FOR FOREGROUND.                                      11/23/69 1439.6 PAGE 4

      00077 -0500 00 0 00202  ERR    CAL     =HPRNTER      CHAIN TO PRNTER COMMAND
      00100  0560 00 0 00200         LDQ     =O-51         MASK FOR PRNTER
      00101                          CALL    NEXCOM        ..
      00101  0074 00 4 00155         TSX     NEXCOM,4                                                         .002

      00102                   DSKFL  COMENT  DOYOU,12,,A   ASK TO DELETE DISK FILE
      00102  0074 00 4 00156         TSX     WRFLXA,4                                                         .003
      00103  3 00014 0 00134         PAR     DOYOU,,12                                                        .005

      00104                          CALL    RDFLXA((TEM,,1)) READ ANSWER
      00104  0074 00 4 00157         TSX     RDFLXA,4                                                         .002
      00105  3 00001 0 00130         PAR     TEM,,1                                                           .004
      00106 -0500 00 0 00130         CAL     TEM           ..
      00107  0771 00 0 00022         ARS     18            ..
      00110  0322 00 0 00174         ERA     =H000YES      CHECK FOR 'YES'
      00111 -0100 00 0 00075         TNZ     Q             QUIT IF NOT
      00112  0774 00 4 00172         AXT     =0,4          MAKE DELETE QUIET
      00113  0634 00 4 00065         SXA     DEL+3,4       ..
      00114  0020 00 0 00062         TRA     DEL           NOW DELETE THE FILE

      00115                   BADA   COMENT  NOTNUF,5,(INCOMPLETE SET OF PARAMETERS.)
      00115  0074 00 4 00160         TSX     WRFLX,4                                                          .003
      00116  3 00005 0 00161         PAR     NOTNUF,,5                                                        .005
      00117  0021 00 0 00075         XIT     Q             ..

      00120 -0500 00 0 00130  BAD    CAL     TEM           NON-NUMERICAL ARGUMENT
      00121  0602 00 0 00171         SLW     ILPAR+3       ..
      00122                          COMENT  ILPAR,4,(INVALID ARGUMENT..)
      00122  0074 00 4 00160         TSX     WRFLX,4                                                          .003
      00123  3 00004 0 00166         PAR     ILPAR,,4                                                         .005
      00124  0021 00 0 00075         XIT     Q             ..
1            TAPFIL COMMAND FOR FOREGROUND.                                      11/23/69 1439.6 PAGE 5

      00125  0 00000 0 00000  UNITNO PZE
      00126  0 00000 0 00000  FILENO PZE     0
      00127  777777777777     FENCE  VFD     O36//
      00130                   TEM    BSS     3
      00133                   DEVICE BSS     1

      00134  464324255160     DOYOU  BCI     1,OLDER
      00135  0 00000 0 00000  NAME1  PZE
      00136  605757575757            VFD     O36/605757575757
      00137  0 00000 0 00000  NAME2  PZE
      00140  603162602431            BCI     8, IS DISK/DRUM FILE. DO YOU WISH TO DELETE IT -


      00150                          RMT     *             REMOTE SEQUENCES
      00150  0101 00 0 00205  SETBRK TIA     =HSETBRK                                                         .002
      00151  0101 00 0 00177  GETCOM TIA     =HGETCOM                                                         .002
      00152  0101 00 0 00176  FSTATE TIA     =HFSTATE                                                         .002
      00153  0101 00 0 00206  TAPFIL TIA     =HTAPFIL                                                         .002
      00154  0101 00 0 00175  CHNCOM TIA     =HCHNCOM                                                         .002
      00155  0101 00 0 00201  NEXCOM TIA     =HNEXCOM                                                         .002
      00156  0101 00 0 00207  WRFLXA TIA     =HWRFLXA                                                         .002
      00157  0101 00 0 00203  RDFLXA TIA     =HRDFLXA                                                         .002
      00160  0101 00 0 00210  WRFLX  TIA     =HWRFLX                                                          .002
      00161  314523464447     NOTNUF BCI     5,INCOMPLETE SET OF PARAMETERS.                                  .002
      00166  314565214331     ILPAR  BCI     4,INVALID ARGUMENT..                                             .002

                                     END

        LITERALS
      00172  000000000000
      00173  000000000003
      00174  000000702562
      00175  233045234644
      00176  266263216325
      00177  272563234644
      00200  400000000051
      00201  452567234644
      00202  475145632551
      00203  512426436721
      00204  606060606060
      00205  622563225142
      00206  632147263143
      00207  665126436721
      00210  665126436760
1            TAPFIL COMMAND FOR FOREGROUND.                                      11/23/69 1439.6 PAGE 1
                        POST PROCESSOR ASSEMBLY DATA

        211 IS THE FIRST LOCATION NOT USED BY THIS PROGRAM

0REFERENCES TO DEFINED SYMBOLS
         75      Q     4,   66,  111,  117,  124
        120    BAD    30,   45
         62    DEL    55,  113,  114
         77    ERR    74
        130    TEM    21,   25,   36,   42,   54,  105,  106,  120
          0    ZEL    24,   41
        115   BADA    11,   16,   23
         51   DONE    40
          1  BCDEC    31,   46
        134  DOYOU   103
        102  DSKFL    61
        127  FENCE    10,   15,   22,   37
        166  ILPAR   121,  123
        135  NAME1     7,   52,   63,   70
        137  NAME2    14,   53,   64,   71
        160  WRFLX   115,  122
        154 CHNCOM    75
          2 DELETE    62
        133 DEVICE    56
        126 FILENO    43,   47,   50,   73
        152 FSTATE    51
        151 GETCOM     5,   12,   17,   34
        155 NEXCOM   101
        161 NOTNUF   116
        157 RDFLXA   104
        150 SETBRK     3
        153 TAPFIL    67
        125 UNITNO    26,   32,   33,   72
        156 WRFLXA   102

0 NO ERROR IN ABOVE ASSEMBLY.


TTPEEK   BCD 09/18/68 2320.5    3631         00000
1       TTPEEK COMMAND FOR CTSS                            JIM BIXBY 4/11/68                     PAGE 1


                                             USAGE -- 'TTPEEK'
                                                   CAUSES THE PRINTING OF DATE, TIME,
                                                   TIMES ALLOTTED AND USED BY SHIFT, AND
                                                   STORAGE ALLOTTED AND USED BY DEVICE.

                                             TO LOAD THE COMMAND --
                                                   FAP TTPEEK (LIST)
                                                   NCLOAD TTPEEK (LIBE) XLIBE
                                                   SAVE TTPEEK


                                             EQU'S -- CHANGE THESE TO CHANGE THE SHIFT, NUMBER OF
                                                      STORAGE DEVICES, ETC

        TRANSFER VECTOR
      00000  665126436760     WRFLX
      00001  272563634460     GETTM
      00002  234644434623     COMLOC
      00003  272563434623     GETLOC
      00004  242526222360     DEFBC
      00005  227125436060     BZEL
      00006  626346512725     STORGE
      00007  233045234644     CHNCOM

                       00005  SHIFTS EQU     5             NUMBER OF ACCOUNTING SHIFTS
                       00003  UNITS  EQU     3             NUMBER OF SECONDARY STORAGE DEVICES

1       TTPEEK COMMAND FOR CTSS                            JIM BIXBY 4/11/68                     PAGE 2
                           MACROS


                                             * * * * * * * * * * * * * * * * * *
                                             * TCONV - TO CONVERT 60THS TO BCD *
                                             * * * * * * * * * * * * * * * * * *

                              UCONV  MACRO
                                     XCA                   ARG IN AC. MOVE TO MQ
                                     ZAC
                                     DVP     =360          TO DIVIDE IT BY 360
                                     STQ     TEMP
                                     TSX     $DEFBC,4      CONVERT TO BCD
                                     PTH     TEMP
                                     STO     TEMP
                                     TSX     $BZEL,4       AND BLANK THE LEADING ZEROS
                                     PTH     TEMP
                                     XCA
                                     LGL     30            GET FIRST 5 CHARACTERS
                                     ALS     6             MAKE ROOM FOR '.'
                                     ORA     =H00000.      AND PUT IT IN
                                     LGL     6             GET LAST CHARACTER
                              UCONV  END


                              TCONV  MACRO
                                     UCONV
                                     ARS     12
                                     ORA     =H  0000      THIS IS THE ALLOTTED FORM
                                     SLW     TEMP          MAKE SURE AT LEAST '0' IS THERE
                                     ERA     =H
                                     TNZ     *+3
                                     CAL     =H     0
                                     TRA     *+2
                                     CAL     TEMP
                              TCONV  END

1       TTPEEK COMMAND FOR CTSS                            JIM BIXBY 4/11/68                     PAGE 3
                           INITIALIZE AND PRINT THE HEADING


      00010  0074 00 4 00000         TSX     $WRFLX,4      GIVE A CARRIAGE RETURN TO START
      00011  3 00000 0 00000         PTH     0,,0

      00012  0074 00 4 00001         TSX     $GETTM,4      GET THE DATE AND TIME FOR PRINTING
      00013  3 00000 0 00264         PTH     DATE
      00014  3 00000 0 00265         PTH     TIME

      00015  0074 00 4 00002         TSX     $COMLOC,4     GET THE CORE-A COMMON ADDRESS OF THE USER
      00016  3 00000 0 00346         PTH     =HUSER
      00017  0621 00 0 00021         STA     USER

      00020  0074 00 4 00003         TSX     $GETLOC,4     AND THEN PICK UP THE ACTUAL USER NUMBER
      00021  0 00000 0 00000  USER   PZE     **
      00022  0602 00 0 00326         SLW     USERNO

      00023  0074 00 4 00002         TSX     $COMLOC,4     GET THE ADDRESS OF ARRAY 'UTIME'
      00024  3 00000 0 00347         PTH     =HUTIME
      00025  0400 00 0 00326         ADD     USERNO        ADD IN THE USERNO TO GET HIS TIME ADDRESS
      00026  0621 00 0 00030         STA     GTUSD

      00027  0074 00 4 00003         TSX     $GETLOC,4     AND THEN PICK UP THE TIME USED
      00030  0 00000 0 00000  GTUSD  PZE     **


      00031                          UCONV                 CONVERT THE TIME USED TO BCD
      00047  0602 00 0 00270         SLW     TUSED         AND STORE IN THE MESSAGE

      00050  0074 00 4 00000         TSX     $WRFLX,4      WRITE THE DATE, TIME MESSAGE
      00051  3 00005 0 00264         PTH     DATE,,5

      00052  0074 00 4 00000         TSX     $WRFLX,4      GIVE ANOTHER CARRIAGE RETURN
      00053  3 00000 0 00000         PTH     0,,0

      00054  0074 00 4 00000         TSX     $WRFLX,4      AND THEN WRITE THE TIME HEADINGS
      00055  3 00004 0 00271         PTH     LINE1,,4
      00056  0074 00 4 00000         TSX     $WRFLX,4
      00057  3 00004 0 00275         PTH     LINE2,,4

1       TTPEEK COMMAND FOR CTSS                            JIM BIXBY 4/11/68                     PAGE 4
                           GET AND PRINT THE TIMES USED AND ALLOTTED BY SHIFT


                                             GET THE VALUE OF N, THE COMMON ARRAY SIZE

      00060  0074 00 4 00002         TSX     $COMLOC,4     USE COMLOC
      00061  3 00000 0 00337         PTH     =HN
      00062  0400 00 0 00332         ADD     =1
      00063  0737 00 1 00000         PAC     ,1            AND PUT INTO THE ADDRESS CHANGER
      00064 -0634 00 1 00075         SXD     N,1           ..


                                             GET THE CORE-A ADDRESS OF THE TAU VECTOR

      00065  0074 00 4 00002         TSX     $COMLOC,4
      00066  3 00000 0 00345         PTH     =HTAU1
      00067  0400 00 0 00326         ADD     USERNO        ADD TO GET THIS USERS TAU VECTOR
      00070  0734 00 1 00000         PAX     ,1            AND PUT THIS ADDRESS IN XR1


      00071  0774 00 2 00005         AXT     SHIFTS,2      DO THE LOOP SHIFTS TIMES

      00072  0634 00 1 00074  GETTAU SXA     TI,1          PUT THE TAU ADDRESS IN THE GETLOC CALL
      00073  0074 00 4 00003         TSX     $GETLOC,4     PICK UP THE TIME FOR THIS SHIFT
      00074  0 00000 0 00000  TI     PZE     **            FILLED IN ABOVE


      00075  1 00000 1 00076  N      TXI     *+1,1,**      MOVE TO NEXT TAU ENTRY
      00076 -0130 00 0 00000         XCL                   PUT TIME INTO THE MQ
      00077 -0754 00 0 00000         ZAC
      00100 -0763 00 0 00016         LGL     14            GET THE ALLOTTED TIME
      00101  0602 00 0 00302         SLW     ALLOT

      00102 -0773 00 0 00026         RQL     22            REPOSITION THE USED TIME
      00103 -0600 00 0 00304         STQ     USED          AND SAVE THAT TOO
      00104 -0100 00 0 00107         TNZ     *+3           PRINT IF ALLOTTED NONZERO
      00105  0131 00 0 00000         XCA                   OTHERWISE CHECK USED FOR ZERO
      00106  0100 00 0 00201         TZE     TAUTIX        IF BOTH ZERO, SKIP THIS SHIFT
      00107  0754 00 2 00000         PXA     ,2            COMPUTE THE SHIFT WE ARE WORKING ON
      00110 -0760 00 0 00003         SSM
      00111  0400 00 0 00327         ADD     MXSHFT
      00112  0601 00 0 00325         STO     TEMP
      00113  0074 00 4 00004         TSX     $DEFBC,4      AND CONVERT THE SHIFT TO BCD
      00114  3 00000 0 00325         PTH     TEMP
      00115  0601 00 0 00325         STO     TEMP
      00116  0074 00 4 00005         TSX     $BZEL,4       WITH LEADING BLANKS
      00117  3 00000 0 00325         PTH     TEMP
      00120  0131 00 0 00000         XCA                   POSITION THE BCD SHIFT PROPERLY
      00121 -0773 00 0 00030         RQL     24
      00122 -0500 00 0 00334         CAL     =O57          PUT IN A NULL
      00123 -0765 00 0 00006         LGR     6
      00124 -0600 00 0 00301         STQ     TLINE         AND PUT THE RESULT INTO THE MESSAGE
1       TTPEEK COMMAND FOR CTSS                            JIM BIXBY 4/11/68                     PAGE 5
                           GET AND PRINT THE TIMES USED AND ALLOTTED BY SHIFT


      00125  0500 00 0 00302         CLA     ALLOT         CONVERT ALLOT TO PRINTABLE FORM
      00126  0767 00 0 00010         ALS     8             AFTER CHANGING TO 60TH-S
      00127  0400 00 0 00336         ADD     =1801         FUDGE UP
      00130                          TCONV
      00156  0602 00 0 00302         SLW     ALLOT         AND SAVE FOR PRINTING

      00157  0500 00 0 00304         CLA     USED          CONVERT USED TO PRINTABLE FORM
      00160                          UCONV
      00176  0602 00 0 00304         SLW     USED          AND SAVE


      00177  0074 00 4 00000         TSX     $WRFLX,4      WRITE THE LINE FOR THIS SHIFT
      00200  3 00004 0 00301         PTH     TLINE,,4      ..

      00201  2 00001 2 00072  TAUTIX TIX     GETTAU,2,1    AND DO ALL THE SHIFTS


      00202  0074 00 4 00000         TSX     $WRFLX,4      THROW IN AN EXTRA CARRIAGE RETURN
      00203  3 00000 0 00000         PTH     0,,0
1       TTPEEK COMMAND FOR CTSS                            JIM BIXBY 4/11/68                     PAGE 6
                           PRINT THE STORAGE INFORMATION


      00204  0074 00 4 00000         TSX     $WRFLX,4      PRINT THE STORAGE HEADER LINES
      00205  3 00003 0 00305         PTH     LINE3,,3
      00206  0074 00 4 00000         TSX     $WRFLX,4
      00207  3 00004 0 00311         PTH     LINE4,,4


      00210  0774 00 1 00003         AXT     UNITS,1       AND DO LOOP FOR ALL STORAGE UNITS

      00211  0754 00 1 00000  DEV    PXA     ,1            GET THE NUMBER OF THIS UNIT
      00212 -0760 00 0 00003         SSM
      00213  0400 00 0 00330         ADD     DEVMAX
      00214  0601 00 0 00320         STO     STOAG         AND SAVE IT

      00215  0074 00 4 00006         TSX     $STORGE,4     GET THE ALLOTMENT AND USED SPACE
      00216  3 00000 0 00320         PTH     STOAG         FOR THE UNIT IN STOAG
      00217  3 00000 0 00322         PTH     SALLOT
      00220  3 00000 0 00324         PTH     SUSED

      00221  0500 00 0 00322         CLA     SALLOT        CHECK FOR ZERO ALLOTMENT
      00222 -0100 00 0 00225         TNZ     SOMTHR        PRINT IF NOT ZERO
      00223  0500 00 0 00324         CLA     SUSED         OTHERWISE CHECK USED
      00224  0100 00 0 00257         TZE     STOLUP        AND SKIP PRINT IF NOT THERE

      00225  0074 00 4 00004  SOMTHR TSX     $DEFBC,4      CONVERT ALLOTMENT TO BCD
      00226  3 00000 0 00322         PTH     SALLOT
      00227  0601 00 0 00322         STO     SALLOT
      00230  0074 00 4 00005         TSX     $BZEL,4       WITH LEADING BLANKS
      00231  3 00000 0 00322         PTH     SALLOT
      00232  0601 00 0 00322         STO     SALLOT


      00233  0074 00 4 00004         TSX     $DEFBC,4      CONVERT USED FIGURE TO BCD
      00234  3 00000 0 00324         PTH     SUSED
      00235  0601 00 0 00324         STO     SUSED
      00236  0074 00 4 00005         TSX     $BZEL,4       WITH LEADING ZEROES
      00237  3 00000 0 00324         PTH     SUSED
      00240  0601 00 0 00324         STO     SUSED

      00241 -0500 00 0 00324         CAL     SUSED         CHANGE '32767' TO '-1'
      00242  0322 00 0 00340         ERA     =H 32767      IN BOTH PLACES
      00243 -0100 00 0 00246         TNZ     *+3
      00244 -0500 00 0 00342         CAL     =H    -1
      00245  0602 00 0 00324         SLW     SUSED
      00246 -0500 00 0 00322         CAL     SALLOT
      00247  0322 00 0 00340         ERA     =H 32767
      00250 -0100 00 0 00253         TNZ     *+3
      00251 -0500 00 0 00342         CAL     =H    -1
      00252  0602 00 0 00322         SLW     SALLOT

1       TTPEEK COMMAND FOR CTSS                            JIM BIXBY 4/11/68                     PAGE 7
                           PRINT THE STORAGE INFORMATION

      00253 -0500 00 1 00320         CAL     DEVICE+UNITS,1 GET THE NAME OF THE UNIT
      00254  0602 00 0 00320         SLW     STOAG         AND PUT IN THE MESSAGE

      00255  0074 00 4 00000         TSX     $WRFLX,4      WRITE OUT THE STORAGE LINE
      00256  3 00005 0 00320         PTH     STOAG,,5

      00257  2 00001 1 00211  STOLUP TIX     DEV,1,1       AND DO ALL THE DEVICES


      00260  0074 00 4 00000         TSX     $WRFLX,4      PRINT A C.R. WHEN DONE
      00261  3 00000 0 00000         PTH     0,,0


      00262  0074 00 4 00007         TSX     $CHNCOM,4
      00263  3 00000 0 00331         PTH     =0
1       TTPEEK COMMAND FOR CTSS                            JIM BIXBY 4/11/68                     PAGE 8
                           STORAGE AND CONSTANTS


                                             * * * * * * * * *
                                             * BCI CONSTANTS *
                                             * * * * * * * * *

      00264                   DATE   BSS     1
      00265                   TIME   BSS     1
      00266  606331442560            BCI     2, TIME USED =
      00267  646225246013
      00270                   TUSED  BSS     1
      00271  623031266360     LINE1  BCI     4,SHIFT       MINUTES
      00272  606060606060
      00273  443145646325
      00274  626060606060
      00275  606060606060     LINE2  BCI     4,      ALLOTTED   USED
      00276  214343466363
      00277  252460606064
      00300  622524606060
      00301 -176060606060     TLINE  OCT     576060606060
      00302                   ALLOT  BSS     1
      00303 -175760606060            OCT     575760606060
      00304                   USED   BSS     1
      00305  606060606060     LINE3  BCI     4,      STORAGE
      00306  626346512127
      00307  256060606060
      00310  606060606060
      00311  242565312325     LINE4  BCI     4,DEVICE   QUOTA   USED
      00312  606060506446
      00313  632160606064
      00314  622524606060
      00315  245164446060     DEVICE BCI     3,DRUM  DISK  TAPE
      00316  243162426060
      00317  632147256060
      00320                   STOAG  BSS     1
      00321 -206057575757            OCT     606057575757
      00322                   SALLOT BSS     1
      00323 -205757575757            OCT     605757575757
      00324                   SUSED  BSS     1


                                             * * * * * * * * * * * * * * * *
                                             * OTHER STORAGE AND CONSTANTS *
                                             * * * * * * * * * * * * * * * *

      00325                   TEMP   BSS     1
      00326                   USERNO BSS     1
      00327  0 00000 0 00006  MXSHFT PZE     SHIFTS+1
      00330  0 00000 0 00004  DEVMAX PZE     UNITS+1

                                     END
1       TTPEEK COMMAND FOR CTSS                            JIM BIXBY 4/11/68                     PAGE 9
                           STORAGE AND CONSTANTS

        LITERALS
      00331  000000000000
      00332  000000000001
      00333  000000000033
      00334  000000000057
      00335  000000000550
      00336  000000003411
      00337  456060606060
      00340  600302070607
      00341  606000000000
      00342  606060604001
      00343  606060606000
      00344  606060606060
      00345  632164016060
      00346  646225516060
      00347  646331442560
1       TTPEEK COMMAND FOR CTSS                            JIM BIXBY 4/11/68                     PAGE 1
                        POST PROCESSOR ASSEMBLY DATA

        350 IS THE FIRST LOCATION NOT USED BY THIS PROGRAM

0REFERENCES TO DEFINED SYMBOLS
         75      N    64
         74     TI    72
        211    DEV   257
          5   BZEL    40,  116,  137,  167,  230,  236
        264   DATE    13,   51
        325   TEMP    34,   36,   37,   41,  112,  114,  115,  117,  133,  135,  136,  140,  150,  155,  163,  165,  166
                     170
        265   TIME    14
        304   USED   103,  157,  176
         21   USER    17
        302  ALLOT   101,  125,  156
          4  DEFBC    35,  113,  134,  164,  225,  233
          1  GETTM    12
         30  GTUSD    26
        271  LINE1    55
        275  LINE2    57
        305  LINE3   205
        311  LINE4   207
        320  STOAG   214,  216,  254,  256
        324  SUSED   220,  223,  234,  235,  237,  240,  241,  245
        301  TLINE   124,  200
        270  TUSED    47
          3  UNITS    10,  210,  253,  330
          0  WRFLX    10,   50,   52,   54,   56,  177,  202,  204,  206,  255,  260
          7 CHNCOM   262
          2 COMLOC    15,   23,   60,   65
        315 DEVICE   253
        330 DEVMAX   213
          3 GETLOC    20,   27,   73
         72 GETTAU   201
        327 MXSHFT   111
        322 SALLOT   217,  221,  226,  227,  231,  232,  246,  252
          5 SHIFTS    10,   71,  327
        225 SOMTHR   222
        257 STOLUP   224
          6 STORGE   215
        201 TAUTIX   106
        326 USERNO    22,   25,   67

0 NO ERROR IN ABOVE ASSEMBLY.


TYPSET   BCD 09/18/68 2320.5   45913         00000
1     MAD PROGRAM LISTING ... ... ...                 FILE  EDITOR   MAD            02/08/68    1745.3
-
                 ..  EDIT BY CONTEXT PROGRAM.                                                          LM00001
                                                                                                       LM00002
                 ..  J. H. SALTZER, NOVEMBER, 1964.                                                    LM00003
                 ..  LAST MODIFICATION, APRIL, 1967.                                                   LM00004
                 ..  MODIFIED OCTOBER, 1967 BY PETER R. BOS                                            LM00005
                 ..  TO ALLOW SETTING BREAK CHARACTER 'MCHNG'                                          LM00006
                                                                                                       LM00007
                 .. DECLARATIONS.                                                                      LM00008
                                                                                                       LM00009
                  VECTOR VALUES FENCE = 777777777777K                                             *001 LM00010
                  VECTOR VALUES RETURN = 55K                                                      *002 LM00011
                  VECTOR VALUES IN = $(INPUT$                                                     *003 LM00012
                  VECTOR VALUES IN1 = $(INPT1$                                                    *004 LM00013
                  VECTOR VALUES BRIEF = 0B                                                        *005 LM00014
                  VECTOR VALUES OK = 0B                                                           *006 LM00015
                  VECTOR VALUES BUFSIZ = 360                                                      *007 LM00016
                  DIMENSION LINE(361), EDLIN(361)                                                 *008 LM00017
                  DIMENSION REDS(1), BLACKS(1)                                                    *009 LM00018
                  DIMENSION ATNAM(2)                                                              *010 LM00019
                  NORMAL MODE IS INTEGER                                                          *011 LM00020
                  BOOLEAN OK, GLOBAL, FSTPAS                                                      *012 LM00021
                  BOOLEAN CHNG, CLRSW, BRIEF                                                      *013 LM00022
                                                                                                       LM00023
      . . .      . . . . . . . . . . . . . . . . . . . . . . . . . . . . . .                           LM00024
                                                                                                       LM00025
                 ..  INITIALIZATION.                                                                   LM00026
                                                                                                       LM00027
                  SECOND NAME OF INTERMEDIATE FILES NOW PROGNO                                         LM00028
                                                                                                       LM00029
                  WHOAMI.(ATNAM(2)...2)                                                           *014 LM00030
                  FI = ATNAM(1)                                                                   *015 LM00031
                  GETVAL.(BLANK, TAB, DEFALT, MCHNG, REDS(1), BLACKS(1))                          *016 LM00032
                  CLRNAM.(IN, FI, CHN, 1B)                                                        *017 LM00033
                  CLRNAM.(IN1, FI, CHN, 1B)                                                       *018 LM00034
                  ASSIGN.(IN, FI)                                                                 *019 LM00035
                  OLDNAM = COMARG.(1)                                                             *020 LM00036
                  OLDSEC = DEFALT                                                                 *021 LM00037
                  WHENEVER OLDNAM .E. FENCE, TRANSFER TO INSERT                                   *022 LM00038
                  OLDSEC = COMARG.(2)                                                             *023 LM00039
                  WHENEVER OLDSEC .E. FENCE, OLDSEC = DEFALT                                      *024 LM00040
                  SEEK.(OLDNAM, OLDSEC, INSERT)                                                   *025 LM00041
                  FSTPAS = 1B                                                                     *026 LM00042
                  OK = 1B                                                                         *027 LM00043
                                                                                                       LM00044
                 ..  ENTER EDIT MODE.                                                                  LM00045
                                                                                                       LM00046
      EDIT        WHENEVER .NOT. BRIEF, PRINT COMMENT $0E1D1I1T$                                  *028 LM00047
                                                                                                       LM00048
                 ..  OBTAIN NEXT REQUEST.                                                              LM00049
                                                                                                       LM00050
      NXRQ        COUNT = TYPEIN.(EDLIN, BUFSIZ)                                                  *029 LM00051
                  WHENEVER EDLIN(1) .E. MCHNG .AND. COUNT .L. 3                                   *030 LM00052
                1      , TRANSFER TO INSERT                                                       *030 LM00053
                  WHENEVER COUNT .L. 2, TRANSFER TO NXRQ                                          *031 LM00054
                  EDCT = 0                                                                        *032 LM00055
                  CWD = GET.(0)                                                                   *033 LM00056
                                                                                                       LM00057
                  WHENEVER CWD .E. $DELETE$ .OR. CWD .E. $     D$                                 *034 LM00058
                    N = BIN.(GET.(0))                                                             *035 LM00059
                    THROUGH DREAD, FOR I = 1, 1, I .GE. N                                         *036 LM00060
       DREAD          LENGTH = READ.(LINE, BUFSIZ, EOF)                                           *037 LM00061
                    LENGTH = 0                                                                    *038 LM00062
                                                                                                       LM00063
                  OR WHENEVER CWD .E. $  NEXT$ .OR. CWD .E. $     N$                              *039 LM00064
                    N = BIN.(GET.(0))                                                             *040 LM00065
                    WHENEVER N .E. 0, N = 1                                                       *041 LM00066
                    THROUGH NXT, FOR I = 1, 1, I .G. N                                            *042 LM00067
                      WRITE.(LINE, LENGTH)                                                        *043 LM00068
                      WHENEVER .NOT. OK, CLSOUT.                                                  *044 LM00069
                      LENGTH = READ.(LINE, BUFSIZ, EOF)                                           *045 LM00070
       NXT            CONTINUE                                                                    *046 LM00071
                                                                                                       LM00072
                  OR WHENEVER CWD .E. $INSERT$ .OR. CWD .E. $     I$                              *047 LM00073
                    WRITE.(LINE, LENGTH)                                                          *048 LM00074
                    TRANSFER TO RETYPE                                                            *049 LM00075
                                                                                                       LM00076
      INSERT        WHENEVER .NOT. BRIEF, PRINT COMMENT $0I1N1P1U1T$                              *050 LM00077
       INPUT        COUNT = TYPEIN.(EDLIN, BUFSIZ)                                                *051 LM00078
                    WHENEVER COUNT .L. 3 .AND. EDLIN(1) .E. MCHNG                                 *052 LM00079
                1      , TRANSFER TO EDIT                                                         *052 LM00080
                    WRITE.(LINE, LENGTH)                                                          *053 LM00081
                    THROUGH MVLP, FOR I = 1, 1, I .G. COUNT                                       *054 LM00082
       MVLP           LINE(I) = EDLIN(I)                                                          *055 LM00083
                    LENGTH = COUNT                                                                *056 LM00084
                    TRANSFER TO INPUT                                                             *057 LM00085
                                                                                                       LM00086
                  OR WHENEVER CWD .E. $BOTTOM$ .OR. CWD .E. $     B$                              *058 LM00087
                    WRITE.(LINE, LENGTH)                                                          *059 LM00088
                    LENGTH = 0                                                                    *060 LM00089
                    WHENEVER OK, BOTTOM.                                                          *061 LM00090
                    TRANSFER TO INSERT                                                            *062 LM00091
                                                                                                       LM00092
                  OR WHENEVER CWD .E. $APPEND$ .OR. CWD .E. $     A$                              *063 LM00093
                    WHENEVER LENGTH .G. 0, LENGTH = LENGTH - 1                                    *064 LM00094
                    TRANSFER TO APPEND                                                            *065 LM00095
                                                                                                       LM00096
                  OR WHENEVER CWD .E. $RETYPE$ .OR. CWD .E. $     R$                              *066 LM00097
       RETYPE       LENGTH = 0                                                                    *067 LM00098
      APPEND        THROUGH RPLC, FOR EDCT = EDCT + 1, 1, EDCT .G. COUNT                          *068 LM00099
                      LENGTH = LENGTH + 1                                                         *069 LM00100
       RPLC           LINE(LENGTH) = EDLIN(EDCT)                                                  *070 LM00101
                                                                                                       LM00102
                  OR WHENEVER CWD .E. $ ERASE$ .OR. CWD .E. $     E$                              *071 LM00103
                    WHENEVER EDLIN(EDCT+1) .NE. BLANK, SETERS.(EDLIN(EDCT+1))                     *072 LM00104
                                                                                                       LM00105
                  OR WHENEVER CWD .E. $  KILL$ .OR. CWD .E. $     K$                              *073 LM00106
                    WHENEVER EDLIN(EDCT+1) .NE. BLANK, SETKIL.(EDLIN(EDCT+1))                     *074 LM00107
                                                                                                       LM00108
                 ..  MODIFICATION ALLOWS SETTING 'MCHNG'. PRB.                                         LM00109
                                                                                                       LM00110
                  OR WHENEVER CWD .E. $ BREAK$ .OR. CWD .E. $    BR$                              *075 LM00111
                    WHENEVER EDLIN(EDCT) .E. RETURN                                               *076 LM00112
                      MCHNG = RETURN                                                              *077 LM00113
                    OR WHENEVER EDLIN(EDCT+1) .NE. BLANK                                          *078 LM00114
                      MCHNG = EDLIN(EDCT+1)                                                       *079 LM00115
                    END OF CONDITIONAL                                                            *080 LM00116
                                                                                                       LM00117
                  OR WHENEVER CWD .E. $VERIFY$ .OR. CWD .E. $     V$                              *081 LM00118
                    CWD = GET.(0)                                                                 *082 LM00119
                    WHENEVER CWD .E. $    ON$                                                     *083 LM00120
                      BRIEF = 0B                                                                  *084 LM00121
                    OR WHENEVER CWD .E. $   OFF$                                                  *085 LM00122
                      BRIEF = 1B                                                                  *086 LM00123
                    END OF CONDITIONAL                                                            *087 LM00124
                                                                                                       LM00125
                  OR WHENEVER CWD .E. $LOCATE$ .OR. CWD .E. $     L$                              *088 LM00126
                    LOCATE = 1                                                                    *089 LM00127
                    TRANSFER TO FIND                                                              *090 LM00128
                                                                                                       LM00129
                  OR WHENEVER CWD .E. $  FIND$ .OR. CWD .E. $     F$                              *091 LM00130
                    LOCATE = 0                                                                    *092 LM00131
      FIND          WHENEVER EDCT+1 .GE. COUNT                                                    *093 LM00132
                      COUNT = OCOUNT                                                              *094 LM00133
                      EDCT = EDCT + 1                                                             *095 LM00134
                    END OF CONDITIONAL                                                            *096 LM00135
                    OCOUNT = COUNT                                                                *097 LM00136
       NTFND        WRITE.(LINE, LENGTH)                                                          *098 LM00137
                    WHENEVER  .NOT. OK, CLSOUT.                                                   *099 LM00138
                    LENGTH = READ.(LINE, BUFSIZ, EOF)                                             *100 LM00139
                    THROUGH LOCSCN, FOR K=0, 1,K.G.LOCATE*(LENGTH-COUNT+EDCT)                     *101 LM00140
                      J = K                                                                       *102 LM00141
                      THROUGH LOOK, FOR I = EDCT+1, 1, I .GE. COUNT                               *103 LM00142
                        J = J + 1                                                                 *104 LM00143
       TAGN             WHENEVER LINE(J) .E. EDLIN(I), TRANSFER TO LOOK                           *105 LM00144
                        WHENEVER (LINE(J).E. TAB) .AND. (EDLIN(I) .E. BLANK)                      *106 LM00145
                1        , TRANSFER TO LOOK                                                       *106 LM00146
                        WHENEVER EDLIN(I-1) .NE. BLANK .OR. I .E. EDCT + 1                        *107 LM00147
                1        , TRANSFER TO LOCSCN                                                     *107 LM00148
                        WHENEVER LINE(J) .NE. BLANK .AND. LINE(J) .NE. TAB                        *108 LM00149
                1        , TRANSFER TO LOCSCN                                                     *108 LM00150
                        J = J + 1                                                                 *109 LM00151
                        TRANSFER TO TAGN                                                          *110 LM00152
       LOOK             WHENEVER I .E. EDCT+1, FNDST = J                                          *111 LM00153
                      FNDND = J                                                                   *112 LM00154
                      WHENEVER .NOT. BRIEF, PRNT.(FNDST, FNDND)                                   *113 LM00155
                      TRANSFER TO NXRQ                                                            *114 LM00156
        LOCSCN        CONTINUE                                                                    *115 LM00157
                    TRANSFER TO NTFND                                                             *116 LM00158
                                                                                                       LM00159
                  OR WHENEVER CWD .E. $ PRINT$ .OR. CWD .E. $     P$                              *117 LM00160
                    NPRNT = BIN.(GET.(0))                                                         *118 LM00161
      PNTLP         WHENEVER LENGTH .E. 0                                                         *119 LM00162
                      PRINT COMMENT $0N1O0 1C1U1R1R1E1N1T0 1L1I1N1E0.$                            *120 LM00163
                    OTHERWISE                                                                     *121 LM00164
                      TYPOUT.(LINE, LENGTH)                                                       *122 LM00165
                    END OF CONDITIONAL                                                            *123 LM00166
                    NPRNT = NPRNT - 1                                                             *124 LM00167
                    WHENEVER NPRNT .G. 0                                                          *125 LM00168
                      WRITE.(LINE, LENGTH)                                                        *126 LM00169
                      LENGTH = READ.(LINE, BUFSIZ, EOF)                                           *127 LM00170
                      TRANSFER TO PNTLP                                                           *128 LM00171
                    END OF CONDITIONAL                                                            *129 LM00172
                                                                                                       LM00173
                  OR WHENEVER CWD .E. $   TOP$ .OR. CWD .E. $     T$                              *130 LM00174
       TOPLP        WRITE.(LINE, LENGTH)                                                          *131 LM00175
                    WHENEVER OK, BOTTOM.                                                          *132 LM00176
                    CLSOUT.                                                                       *133 LM00177
                                                                                                       LM00178
                  OR WHENEVER CWD .E. $CHANGE$ .OR. CWD .E. $     C$                              *134 LM00179
                                                                                                       LM00180
      . . .       . . . . . . . . . . . . . . . . . . . . . . . . . . . . . .                          LM00181
                                                                                                       LM00182
                 ..  DELINEATE QUOTED STRINGS.                                                         LM00183
                                                                                                       LM00184
                    EDCT = EDCT+1                                                                 *135 LM00185
                    QUOTE = EDLIN(EDCT)                                                           *136 LM00186
                    STR1 = EDCT                                                                   *137 LM00187
      QLOOP         THROUGH QLOOP, FOR EDCT = EDCT+1, 1,                                          *138 LM00188
                1      (EDLIN(EDCT) .E. QUOTE) .OR. (EDCT .GE. COUNT)                             *138 LM00189
                    STR2 = EDCT                                                                   *139 LM00190
      QLOOP1        THROUGH QLOOP1, FOR EDCT = EDCT+1, 1,                                         *140 LM00191
                1      (EDLIN(EDCT) .E. QUOTE) .OR. (EDCT .GE. COUNT)                             *140 LM00192
                    EST2 = EDCT                                                                   *141 LM00193
                                                                                                       LM00194
                 .. CHECK FOR ITERATION COUNT AND GLOBAL REQUEST.                                      LM00195
                                                                                                       LM00196
                    EDCT = EDCT + 1                                                               *142 LM00197
                    TEM = 1                                                                       *143 LM00198
                    GLOBAL = 0B                                                                   *144 LM00199
      ARGLP         CWD = GET.(0)                                                                 *145 LM00200
                    WHENEVER CWD .E. $ $                                                          *146 LM00201
                      TRANSFER TO SHIFT                                                           *147 LM00202
                    OR WHENEVER CWD .E. $     G$                                                  *148 LM00203
                      WHENEVER STR2 .NE. STR1+1, GLOBAL = 1B                                      *149 LM00204
                    OTHERWISE                                                                     *150 LM00205
                      TEM = BIN.(CWD)                                                             *151 LM00206
                    END OF CONDITIONAL                                                            *152 LM00207
                    TRANSFER TO ARGLP                                                             *153 LM00208
                                                                                                       LM00209
                 .. SHIFT LINE TO BOTTOM OF BUFFER.                                                    LM00210
                                                                                                       LM00211
       SHIFT        THROUGH MVDWN, FOR I = LENGTH, -1, I .L. 1                                    *154 LM00212
      MVDWN           LINE(BUFSIZ+I-LENGTH) = LINE(I)                                             *155 LM00213
                    DOWN = BUFSIZ-LENGTH+1                                                        *156 LM00214
                    UP = 0                                                                        *157 LM00215
                    CHNG = 0B                                                                     *158 LM00216
                    CHST = LENGTH + 1                                                             *159 LM00217
                    CHEND = LENGTH                                                                *160 LM00218
                                                                                                       LM00219
                 .. SEARCH FOR PRESENCE OF FIRST STRING.                                               LM00220
                                                                                                       LM00221
      SRCHLP        UP = UP + 1                                                                   *161 LM00222
      SRTST           WHENEVER DOWN .G. BUFSIZ, TRANSFER TO GIVUP                                 *162 LM00223
                      J = DOWN                                                                    *163 LM00224
                      THROUGH COMPAR, FOR I = STR1+1, 1, I .GE. STR2                              *164 LM00225
                        WHENEVER J .GE. BUFSIZ, TRANSFER TO GIVUP                                 *165 LM00226
                        WHENEVER EDLIN(I) .NE. LINE(J), TRANSFER TO NOCOMP                        *166 LM00227
       COMPAR           J = J + 1                                                                 *167 LM00228
                      TRANSFER TO STFND                                                           *168 LM00229
                                                                                                       LM00230
      NOCOMP          LINE(UP) = LINE(DOWN)                                                       *169 LM00231
                      DOWN = DOWN + 1                                                             *170 LM00232
                    TRANSFER TO SRCHLP                                                            *171 LM00233
                                                                                                       LM00234
                 .. STRING FOUND, REPLACE WITH SECOND STRING.                                          LM00235
                                                                                                       LM00236
      STFND         CHNG = 1B                                                                     *172 LM00237
                    DOWN = DOWN + (STR2-STR1-1)                                                   *173 LM00238
                    CHST = UP                                                                     *174 LM00239
                    THROUGH REPLAC, FOR I = STR2 + 1, 1, I .GE. EST2                              *175 LM00240
                      LINE(UP) = EDLIN(I)                                                         *176 LM00241
                      UP = UP + 1                                                                 *177 LM00242
       REPLAC         WHENEVER UP .G. DOWN, TRANSFER TO GIVUP                                     *178 LM00243
                    CHEND = UP - 1                                                                *179 LM00244
                    WHENEVER GLOBAL, TRANSFER TO SRTST                                            *180 LM00245
                                                                                                       LM00246
                 .. MOVE REST OF LINE BACK UP.                                                         LM00247
                                                                                                       LM00248
      GIVUP         THROUGH FILOUT, FOR UP = UP, 1, DOWN .G. BUFSIZ                               *181 LM00249
                      LINE(UP) = LINE(DOWN)                                                       *182 LM00250
      FILOUT          DOWN = DOWN + 1                                                             *183 LM00251
                    LENGTH = UP - 1                                                               *184 LM00252
                    TEM = TEM - 1                                                                 *185 LM00253
                    WHENEVER .NOT. BRIEF .AND. (TEM .G. 0 .THEN. CHNG)                            *186 LM00254
                1        , PRNT.(CHST, CHEND)                                                     *186 LM00255
                    CANON.(LINE, LENGTH, BUFSIZ)                                                  *187 LM00256
                    WHENEVER TEM .G. 0                                                            *188 LM00257
                      WRITE.(LINE, LENGTH)                                                        *189 LM00258
                      LENGTH = READ.(LINE, BUFSIZ, EOF)                                           *190 LM00259
                      TRANSFER TO SHIFT                                                           *191 LM00260
                    END OF CONDITIONAL                                                            *192 LM00261
                                                                                                       LM00262
      . . . .     . . . . . . . . . . . . . . . . . . . . . . . . . . . .                              LM00263
                                                                                                       LM00264
                  OR WHENEVER CWD .E. $ SPLIT$ .OR. CWD .E. $     S$                              *193 LM00265
                    TOPNAM = GET.(0)                                                              *194 LM00266
                    WHENEVER TOPNAM .E. $ $, TRANSFER TO NONAME                                   *195 LM00267
                    WHENEVER TOPNAM .E. OLDNAM .AND. FSTPAS                                       *196 LM00268
      NEWNM           PRINT COMMENT $0P1L1E1A1S1E0 1U1S1E0 1A1N1O1T1H1E1R0 1N1A                   *197 LM00269
                1 1M1E0.$                                                                         *197 LM00270
                      TRANSFER TO NXRQ                                                            *198 LM00271
                    END OF CONDITIONAL                                                            *199 LM00272
                    SECNAM = GET.(0)                                                              *200 LM00273
                  WHENEVER SECNAM .E. $ $, SECNAM = OLDSEC                                        *201 LM00274
                    CLRNAM.(TOPNAM, SECNAM, NEWNM, 1B)                                            *202 LM00275
                    CLOSEW.                                                                       *203 LM00276
                    RENAME.(IN, FI, TOPNAM, SECNAM)                                               *204 LM00277
                    ASSIGN.(IN, FI)                                                               *205 LM00278
                    OLDNAM = FENCE                                                                *206 LM00279
                    TRANSFER TO TOPLP                                                             *207 LM00280
                                                                                                       LM00281
                  OR WHENEVER CWD .E. $  QUIT$ .OR. CWD .E. $     Q$                              *208 LM00282
                    ENDRD.                                                                        *209 LM00283
                    CLOSEW.                                                                       *210 LM00284
                    DELFIL.(IN1, FI, DLQ1)                                                        *211 LM00285
      DLQ1          DELFIL.(IN, FI, DLQ2)                                                         *212 LM00286
      DLQ2          TRANSFER TO CHN                                                               *213 LM00287
                                                                                                       LM00288
                  OR WHENEVER CWD .E. $  FILE$                                                    *214 LM00289
                    PRINAM = GET.(0)                                                              *215 LM00290
                    CLRSW = 1B                                                                    *216 LM00291
                    WHENEVER PRINAM .E. $ $                                                       *217 LM00292
                      PRINAM = OLDNAM                                                             *218 LM00293
                      SECNAM = OLDSEC                                                             *219 LM00294
                      CLRSW = 0B                                                                  *220 LM00295
                    OTHERWISE                                                                     *221 LM00296
                      SECNAM = GET.(0)                                                            *222 LM00297
                      WHENEVER SECNAM .E. $ $                                                     *223 LM00298
                        SECNAM = OLDSEC                                                           *224 LM00299
                      END OF CONDITIONAL                                                          *225 LM00300
                    END OF CONDITIONAL                                                            *226 LM00301
                    WHENEVER PRINAM .E. FENCE                                                     *227 LM00302
      NONAME          PRINT COMMENT $0N1O0 1F1I1L1E0 1N1A1M1E0 1G1I1V1E1N0.$                      *228 LM00303
                      TRANSFER TO NXRQ                                                            *229 LM00304
                    END OF CONDITIONAL                                                            *230 LM00305
                    WRITE.(LINE, LENGTH)                                                          *231 LM00306
                    LENGTH = 0                                                                    *232 LM00307
                    WHENEVER OK, BOTTOM.                                                          *233 LM00308
                    CLRNAM.(PRINAM, SECNAM, NEWNM, CLRSW)                                         *234 LM00309
                    CLOSEW.                                                                       *235 LM00310
                    DELFIL.(IN1, FI, DL1)                                                         *236 LM00311
      DL1           RENAME.(IN, FI, PRINAM, SECNAM)                                               *237 LM00312
      CHN           EXIT.                                                                         *238 LM00313
                                                                                                       LM00314
                  OTHERWISE                                                                       *239 LM00315
                    PRINT COMMENT $0N1O1T0 1A0 1R1E1Q1U1E1S1T0:$                                  *240 LM00316
                    TYPOUT.(EDLIN, COUNT)                                                         *241 LM00317
                                                                                                       LM00318
                  END OF CONDITIONAL                                                              *242 LM00319
                  TRANSFER TO NXRQ                                                                *243 LM00320
                                                                                                       LM00321
      EOF         PRINTCOMMENT $0E1N1D0 1O1F0 1F1I1L1E0 1R1E1A1C1H1E1D0 1B1Y0:$                   *244 LM00322
                  TYPOUT.(EDLIN, COUNT)                                                           *245 LM00323
                  LENGTH = 0                                                                      *246 LM00324
                  OK = 0B                                                                         *247 LM00325
                  TRANSFER TO NXRQ                                                                *248 LM00326
                                                                                                       LM00327
                 . . . . . . . . . . . . . . . . . . . . . . . . . . . . . .                           LM00328
                                                                                                       LM00329
                 .. SUBROUTINES.                                                                       LM00330
                                                                                                       LM00331
       CLSOUT.   .. FUNCTION TO MOVE POINTER BACK TO TOP OF FILE.                                      LM00332
                                                                                                       LM00333
                  INTERNAL FUNCTION                                                               *249 LM00334
                  ENTRY TO CLSOUT.                                                                *250 LM00335
                    CLOSEW.                                                                       *251 LM00336
                    DELFIL.(IN1, FI, DL2)                                                         *252 LM00337
      DL2           CHFILE.(IN, FI, -0, IN1)                                                      *253 LM00338
                    SEEK.(IN1, FI, CHN)                                                           *254 LM00339
                    ASSIGN.(IN, FI)                                                               *255 LM00340
                    OK = 1B                                                                       *256 LM00341
                    LENGTH = 0                                                                    *257 LM00342
                    FSTPAS = 0B                                                                   *258 LM00343
                    FUNCTION RETURN                                                               *259 LM00344
                  END OF FUNCTION                                                                 *260 LM00345
                                                                                                       LM00346
        GET.     .. FUNCTION TO OBTAIN ARGUMENT WORD IN HOLLERITH.                                     LM00347
                                                                                                       LM00348
                  INTERNAL FUNCTION                                                               *261 LM00349
                  ENTRY TO GET.                                                                   *262 LM00350
                    WORD = $ $                                                                    *263 LM00351
      SCANLP        THROUGH SCANLP, FOR EDCT = EDCT, 1,                                           *264 LM00352
                1   (EDLIN(EDCT+1).NE.BLANK) .OR. (EDCT+1.GE.COUNT)                               *264 LM00353
       GTLP         EDCT = EDCT + 1                                                               *265 LM00354
                    WHENEVER EDLIN(EDCT) .E. BLANK, FUNCTION RETURN WORD                          *266 LM00355
                    WHENEVER EDLIN(EDCT) .E. TAB .OR. EDCT .GE. COUNT                             *267 LM00356
                      EDCT = EDCT - 1                                                             *268 LM00357
                      FUNCTION RETURN WORD                                                        *269 LM00358
                    END OF CONDITIONAL                                                            *270 LM00359
                    WORD = (WORD .LS. 6) .V. HOL.(EDLIN(EDCT))                                    *271 LM00360
                    TRANSFER TO GTLP                                                              *272 LM00361
                  END OF FUNCTION                                                                 *273 LM00362
                                                                                                       LM00363
       PRNT.     ..  FUNCTION TO PRINT A LINE WITH COLOR SHIFTS.                                       LM00364
                                                                                                       LM00365
                  INTERNAL FUNCTION(STAR, EN)                                                     *274 LM00366
                  ENTRY TO PRNT.                                                                  *275 LM00367
                    TYPOUT.(LINE, STAR-1)                                                         *276 LM00368
                    TYPOUT.(REDS, 1)                                                              *277 LM00369
                    TYPOUT.(LINE(STAR-1), EN-STAR+1)                                              *278 LM00370
                    TYPOUT.(BLACKS, 1)                                                            *279 LM00371
                    TYPOUT.(LINE(EN), LENGTH-EN)                                                  *280 LM00372
                    FUNCTION RETURN                                                               *281 LM00373
                  END OF FUNCTION                                                                 *282 LM00374
                                                                                                       LM00375
                  END OF PROGRAM                                                                  *283 LM00376
1MAD PROGRAM,TYPE NOV 1963      (ALL NUMBERS ARE OCTAL)
0TOTAL LOCATIONS   03713 TRANSFER VECTOR LENGTH  00030 PROGRAM BEGINS    01555
0VARIABLE STORAGE (A=ARRAY,C=COMMON,E=ERASABLE,DIGIT=MODE)
      APPEND 00034   4        DLQ1   00041   4        GTLP   00047   4        NONAME 00056   4        RETYPE 00062   4
      ARGLP  00035   4        DLQ2   00042   4        IN1    00673 A 1        NPRNT  01455   1        RPLC   00033   4
      ATNAM  00073 A 1        DOWN   00110   1        INPUT  00050   4        N      01456   1        SCANLP 00033   4
      BLACKS 00075 A 1        DREAD  00033   4        IN     00674 A 1        NTFND  00057   4        SECNAM 01470   1
      BLANK  00076   1        EDCT   00111   1        INSERT 00051   4        NXRQ   00060   4        SHIFT  00063   4
      BRIEF  00077 A 2        EDIT   00043   4        I      00675   1        NXT    00033   4        SRCHLP 00064   4
      BUFSIZ 00100 A 1        EDLIN  00663 A 1        J      00676   1        OCOUNT 01457   1        SRTST  00065   4
      CHEND  00101   1        EOF    00044   4        K      00677   1        OK     01460 A 2        STFND  00066   4
      CHNG   00102   2        EST2   00664   1        LENGTH 00700   1        OLDNAM 01461   1        STR1   01471   1
      CHN    00036   4        FENCE  00665 A 1        LINE   01452 A 1        OLDSEC 01462   1        STR2   01472   1
      CHST   00103   1        FILOUT 00033   4        LOCATE 01453   1        PNTLP  00061   4        TAB    01473   1
      CLRSW  00104   2        FIND   00045   4        LOCSCN 00052   4        PRINAM 01463   1        TAGN   00067   4
      COMPAR 00033   4        FI     00666   1        LOOK   00053   4        QLOOP1 00033   4        TEM    01474   1
      COUNT  00105   1        FNDND  00667   1        MCHNG  01454   1        QLOOP  00033   4        TOPLP  00070   4
      CWD    00106   1        FNDST  00670   1        MVDWN  00033   4        QUOTE  01464   1        TOPNAM 01475   1
      DEFALT 00107   1        FSTPAS 00671   2        MVLP   00033   4        REDS   01466 A 1        UP     01476   1
      DL1    00037   4        GIVUP  00046   4        NEWNM  00054   4        REPLAC 00033   4        WORD   01477   1
      DL2    00040   4        GLOBAL 00672   2        NOCOMP 00055   4        RETURN 01467 A 1
0FUNCTION DICTIONARY
      ASSIGN 00000   1        BIN    00001   1        BOTTOM 00002   1        CANON  00003   1        CHFILE 00004   1
      CLOSEW 00005   1        CLRNAM 00006   1        COMARG 00007   1        DELFIL 00010   1        ENDRD  00011   1
      EXIT   00012   1        GETVAL 00013   1        HOL    00014   1        .PCOMT 00015   1        .SETUP 00016   1
      READ   00017   1        RENAME 00020   1        SEEK   00021   1        SETERS 00022   1        SETKIL 00023   1
      TYPEIN 00024   1        TYPOUT 00025   1        WHOAMI 00026   1        WRITE  00027   1        CLSOUT 00030   1
      GET    00031   1        PRNT   00032   1
0ABSOLUTE CONSTANTS
 01504 +000000000006     01520 -206026314325     01524 -206050643163     01544 -206060606050     01553 -206247433163
 01547 -206060606062     01536 -206060606027     01546 -206060606060     01510 +233021452725     01532 -206060606023
 01552 -206060634647     01550 -206060606063     01517 -204751314563     01543 -206060606047     01521 -206026314524
 01535 -206060606026     01513 -034623216325     01541 -206060606043     01525 -206060462626     01527 -206060604645
 01554 -252551312670     01551 -206060606065     01515 -202251252142     01526 -206060602251     01522 -206042314343
 01540 -206060606042     01516 -202551216225     01534 -206060606025     01514 -112563704725     01545 -206060606051
 01505 +214747254524     01530 -206060606021     01506 +224663634644     01531 -206060606022     01512 +314562255163
 01537 -206060606031     01523 -206045256763     01542 -206060606045     01511 +242543256325     01533 -206060606024
 01500 +000000000000     01503 +000000000003     01502 +000000000002     01501 +000000000001     01507 +233000000000
0STATEMENT DICTIONARY
 00034 TXL -302146002133       00035 TXL -302676002673       00036 TXL -303402003401       00037 TXL -303401003374
 00040 TXL -303460003451       00041 TXL -303301003275       00042 TXL -303302003301       00043 TXL -301645001637
 00044 TXL -303430003416       00045 TXL -302334002327       00046 TXL -303117003105       00047 TXL -303543003540
 00050 TXL -302026002022       00051 TXL -302022002014       00052 TXL -302506002505       00053 TXL -302475002465
 00054 TXL -303226003214       00055 TXL -303032003026       00056 TXL -303351003340       00057 TXL -302346002343
 00060 TXL -301651001645       00061 TXL -302527002524       00062 TXL -302133002131       00063 TXL -302734002722
 00064 TXL -302764002761       00065 TXL -302771002764       00066 TXL -303040003036       00067 TXL -302424002416
 00070 TXL -302575002572
0PROGRAM
                 VECTOR VALUES FENCE = 777777777777K                                001  LM00010
 01555 TSX +0 07400 4 00016    00665     -3 77777 7 77777
                 VECTOR VALUES RETURN = 55K                                         002  LM00011
 01467     +0 00000 0 00055
                 VECTOR VALUES IN = $(INPUT$                                        003  LM00012
 00674     -3 43145 4 76463
                 VECTOR VALUES IN1 = $(INPT1$                                       004  LM00013
 00673     -3 43145 4 76301
                 VECTOR VALUES BRIEF = 0B                                           005  LM00014
 00077     +0 00000 0 00000
                 VECTOR VALUES OK = 0B                                              006  LM00015
 01460     +0 00000 0 00000
                 VECTOR VALUES BUFSIZ = 360                                         007  LM00016
 00100     +0 00000 0 00550
                 DIMENSION LINE(361), EDLIN(361)                                    008  LM00017
                 DIMENSION REDS(1), BLACKS(1)                                       009  LM00018
                 D'N ATNAM(2)                                                       010  LM00019
                 NORMAL MODE IS INTEGER                                             011  LM00020
                 BOOLEAN OK, GLOBAL, FSTPAS                                         012  LM00021
                 BOOLEAN CHNG, CLRSW, BRIEF                                         013  LM00022
                 WHOAMI.(ATNAM(2)...2)                                              014  LM00030
 01556 TSX +0 07400 4 00026    01557 TIX +2 01502 0 00071
                 FI = ATNAM(1)                                                      015  LM00031
 01560 CLA +0 50000 0 00072    01561 STO +0 60100 0 00666
                 GETVAL.(BLANK, TAB, DEFALT, MCHNG, REDS(1), BLACKS(1))             016  LM00032
 01562 TSX +0 07400 4 00013    01563 TXH +3 00000 0 00076    01564 TXH +3 00000 0 01473    01565 TXH +3 00000 0 00107
 01566 TXH +3 00000 0 01454    01567 TXH +3 00000 0 01465    01570 TXH +3 00000 0 00074
                 CLRNAM.(IN, FI, CHN, 1B)                                           017  LM00033
 01571 TSX +0 07400 4 00006    01572 TXH +3 00000 0 00674    01573 TXH +3 00000 0 00666    01574 TXH +3 00000 0 00036
 01575 TXH +3 00000 0 01501
                 CLRNAM.(IN1, FI, CHN, 1B)                                          018  LM00034
 01576 TSX +0 07400 4 00006    01577 TXH +3 00000 0 00673    01600 TXH +3 00000 0 00666    01601 TXH +3 00000 0 00036
 01602 TXH +3 00000 0 01501
                 ASSIGN.(IN, FI)                                                    019  LM00035
 01603 TSX +0 07400 4 00000    01604 TXH +3 00000 0 00674    01605 TXH +3 00000 0 00666
                 OLDNAM = COMARG.(1)                                                020  LM00036
 01606 TSX +0 07400 4 00007    01607 TXH +3 00000 0 01501    01610 STO +0 60100 0 01461
                 OLDSEC = DEFALT                                                    021  LM00037
 01611 CLA +0 50000 0 00107    01612 STO +0 60100 0 01462
                 WHENEVER OLDNAM .E. FENCE, TRANSFER TO INSERT                      022  LM00038
 01613 CLA +0 50000 0 01461    01614 SUB +0 40200 0 00665    01615 TNZ -0 10000 0 01617    01616 TRA +0 02000 0 00051
                 OLDSEC = COMARG.(2)                                                023  LM00039
 01617 TSX +0 07400 4 00007    01620 TXH +3 00000 0 01502    01621 STO +0 60100 0 01462
                 WHENEVER OLDSEC .E. FENCE, OLDSEC = DEFALT                         024  LM00040
 01622 CLA +0 50000 0 01462    01623 SUB +0 40200 0 00665    01624 TNZ -0 10000 0 01627    01625 CLA +0 50000 0 00107
 01626 STO +0 60100 0 01462
                 SEEK.(OLDNAM, OLDSEC, INSERT)                                      025  LM00041
 01627 TSX +0 07400 4 00021    01630 TXH +3 00000 0 01461    01631 TXH +3 00000 0 01462    01632 TXH +3 00000 0 00051
                 FSTPAS = 1B                                                        026  LM00042
 01633 CLA +0 50000 0 01501    01634 STO +0 60100 0 00671
                 OK = 1B                                                            027  LM00043
 01635 CLA +0 50000 0 01501    01636 STO +0 60100 0 01460
      EDIT       WHENEVER .NOT. BRIEF, PRINT COMMENT $0E1D1I1T$                     028  LM00047
 01637 ZET +0 52000 0 00077    01640 TRA +0 02000 0 01645    01641 TSX +0 07400 4 00015    01642     +0 00000 0 00002
 01643     +0 02501 2 40131    01644     +0 16360 6 06060
      NXRQ       COUNT = TYPEIN.(EDLIN, BUFSIZ)                                     029  LM00051
 01645 TSX +0 07400 4 00024    01646 TXH +3 00000 0 00663    01647 TXH +3 00000 0 00100    01650 STO +0 60100 0 00105
                 WHENEVER EDLIN(1) .E. MCHNG .AND. COUNT .L. 3                      030  LM00052
                1     , TRANSFER TO INSERT                                          030  LM00053
 01651 CLA +0 50000 0 00105    01652 SUB +0 40200 0 01503    01653 TZE +0 10000 0 01661    01654 TPL +0 12000 0 01661
 01655 CLA +0 50000 0 00662    01656 SUB +0 40200 0 01454    01657 TNZ -0 10000 0 01661    01660 TRA +0 02000 0 00051
                 WHENEVER COUNT .L. 2, TRANSFER TO NXRQ                             031  LM00054
 01661 CLA +0 50000 0 00105    01662 SUB +0 40200 0 01502    01663 TZE +0 10000 0 01666    01664 TPL +0 12000 0 01666
 01665 TRA +0 02000 0 00060
                 EDCT = 0                                                           032  LM00055
 01666 CLA +0 50000 0 01500    01667 STO +0 60100 0 00111
                 CWD = GET.(0)                                                      033  LM00056
 01670 TSX +0 07400 4 00031    01671 TXH +3 00000 0 01500    01672 STO +0 60100 0 00106
                 WHENEVER CWD .E. $DELETE$ .OR. CWD .E. $     D$                    034  LM00058
 01673 CLA +0 50000 0 00106    01674 SUB +0 40200 0 01533    01675 TZE +0 10000 0 01701    01676 CLA +0 50000 0 00106
 01677 SUB +0 40200 0 01511    01700 TNZ -0 10000 0 01732
                   N = BIN.(GET.(0))                                                035  LM00059
 01701 TSX +0 07400 4 00031    01702 TXH +3 00000 0 01500    01703 STO +0 60100 0 03710    01704 TSX +0 07400 4 00001
 01705 TXH +3 00000 0 03710    01706 STO +0 60100 0 01456
                   THROUGH DREAD, FOR I = 1, 1, I .GE. N                            036  LM00060
 01707 CLA +0 50000 0 01501    01710 STO +0 60100 0 00675    01711 TRA +0 02000 0 01715    01712 CLA +0 50000 0 00675
 01713 ADD +0 40000 0 01501    01714 STO +0 60100 0 00675    01715 CLA +0 50000 0 00675    01716 SUB +0 40200 0 01456
 01717 TZE +0 10000 0 01727    01720 TPL +0 12000 0 01727
       DREAD         LENGTH = READ.(LINE, BUFSIZ, EOF)                              037  LM00061
 01721 TSX +0 07400 4 00017    01722 TXH +3 00000 0 01452    01723 TXH +3 00000 0 00100    01724 TXH +3 00000 0 00044
 01725 STO +0 60100 0 00700    01726 TRA +0 02000 0 01712
                   LENGTH = 0                                                       038  LM00062
 01727 CLA +0 50000 0 01500    01730 STO +0 60100 0 00700
                 OR WHENEVER CWD .E. $  NEXT$ .OR. CWD .E. $     N$                 039  LM00064
 01731 TRA +0 02000 0 03415    01732 CLA +0 50000 0 00106    01733 SUB +0 40200 0 01542    01734 TZE +0 10000 0 01740
 01735 CLA +0 50000 0 00106    01736 SUB +0 40200 0 01523    01737 TNZ -0 10000 0 02002
                   N = BIN.(GET.(0))                                                040  LM00065
 01740 TSX +0 07400 4 00031    01741 TXH +3 00000 0 01500    01742 STO +0 60100 0 03710    01743 TSX +0 07400 4 00001
 01744 TXH +3 00000 0 03710    01745 STO +0 60100 0 01456
                   WHENEVER N .E. 0, N = 1                                          041  LM00066
 01746 CLA +0 50000 0 01456    01747 SUB +0 40200 0 01500    01750 TNZ -0 10000 0 01753    01751 CLA +0 50000 0 01501
 01752 STO +0 60100 0 01456
                   THROUGH NXT, FOR I = 1, 1, I .G. N                               042  LM00067
 01753 CLA +0 50000 0 01501    01754 STO +0 60100 0 00675    01755 TRA +0 02000 0 01761    01756 CLA +0 50000 0 00675
 01757 ADD +0 40000 0 01501    01760 STO +0 60100 0 00675    01761 CLA +0 50000 0 00675    01762 SUB +0 40200 0 01456
 01763 TZE +0 10000 0 01765    01764 TPL +0 12000 0 02001
                     WRITE.(LINE, LENGTH)                                           043  LM00068
 01765 TSX +0 07400 4 00027    01766 TXH +3 00000 0 01452    01767 TXH +3 00000 0 00700
                     WHENEVER .NOT. OK, CLSOUT.                                     044  LM00069
 01770 ZET +0 52000 0 01460    01771 TRA +0 02000 0 01773    01772 TSX +0 07400 4 00030
                     LENGTH = READ.(LINE, BUFSIZ, EOF)                              045  LM00070
 01773 TSX +0 07400 4 00017    01774 TXH +3 00000 0 01452    01775 TXH +3 00000 0 00100    01776 TXH +3 00000 0 00044
 01777 STO +0 60100 0 00700
       NXT           CONTINUE                                                       046  LM00071
 02000 TRA +0 02000 0 01756
                 OR WHENEVER CWD .E. $INSERT$ .OR. CWD .E. $     I$                 047  LM00073
 02001 TRA +0 02000 0 03415    02002 CLA +0 50000 0 00106    02003 SUB +0 40200 0 01537    02004 TZE +0 10000 0 02010
 02005 CLA +0 50000 0 00106    02006 SUB +0 40200 0 01512    02007 TNZ -0 10000 0 02064
                   WRITE.(LINE, LENGTH)                                             048  LM00074
 02010 TSX +0 07400 4 00027    02011 TXH +3 00000 0 01452    02012 TXH +3 00000 0 00700
                   TRANSFER TO RETYPE                                               049  LM00075
 02013 TRA +0 02000 0 00062
      INSERT       WHENEVER .NOT. BRIEF, PRINT COMMENT $0I1N1P1U1T$                 050  LM00077
 02014 ZET +0 52000 0 00077    02015 TRA +0 02000 0 02022    02016 TSX +0 07400 4 00015    02017     +0 00000 0 00002
 02020     +0 03101 4 50147    02021     +0 16401 6 36060
       INPUT       COUNT = TYPEIN.(EDLIN, BUFSIZ)                                   051  LM00078
 02022 TSX +0 07400 4 00024    02023 TXH +3 00000 0 00663    02024 TXH +3 00000 0 00100    02025 STO +0 60100 0 00105
                   WHENEVER COUNT .L. 3 .AND. EDLIN(1) .E. MCHNG                    052  LM00079
                1     , TRANSFER TO EDIT                                            052  LM00080
 02026 CLA +0 50000 0 00662    02027 SUB +0 40200 0 01454    02030 TNZ -0 10000 0 02036    02031 CLA +0 50000 0 00105
 02032 SUB +0 40200 0 01503    02033 TZE +0 10000 0 02036    02034 TPL +0 12000 0 02036    02035 TRA +0 02000 0 00043
                   WRITE.(LINE, LENGTH)                                             053  LM00081
 02036 TSX +0 07400 4 00027    02037 TXH +3 00000 0 01452    02040 TXH +3 00000 0 00700
                   THROUGH MVLP, FOR I = 1, 1, I .G. COUNT                          054  LM00082
 02041 CLA +0 50000 0 01501    02042 STO +0 60100 0 00675    02043 TRA +0 02000 0 02047    02044 CLA +0 50000 0 00675
 02045 ADD +0 40000 0 01501    02046 STO +0 60100 0 00675    02047 CLA +0 50000 0 00675    02050 SUB +0 40200 0 00105
 02051 TZE +0 10000 0 02053    02052 TPL +0 12000 0 02060
       MVLP          LINE(I) = EDLIN(I)                                             055  LM00083
 02053 LXA +0 53400 1 00675    02054 LXA +0 53400 2 00675    02055 CLA +0 50000 2 00663    02056 STO +0 60100 1 01452
 02057 TRA +0 02000 0 02044
                   LENGTH = COUNT                                                   056  LM00084
 02060 CLA +0 50000 0 00105    02061 STO +0 60100 0 00700
                   TRANSFER TO INPUT                                                057  LM00085
 02062 TRA +0 02000 0 00050
                 OR WHENEVER CWD .E. $BOTTOM$ .OR. CWD .E. $     B$                 058  LM00087
 02063 TRA +0 02000 0 03415    02064 CLA +0 50000 0 00106    02065 SUB +0 40200 0 01531    02066 TZE +0 10000 0 02072
 02067 CLA +0 50000 0 00106    02070 SUB +0 40200 0 01506    02071 TNZ -0 10000 0 02104
                   WRITE.(LINE, LENGTH)                                             059  LM00088
 02072 TSX +0 07400 4 00027    02073 TXH +3 00000 0 01452    02074 TXH +3 00000 0 00700
                   LENGTH = 0                                                       060  LM00089
 02075 CLA +0 50000 0 01500    02076 STO +0 60100 0 00700
                   WHENEVER OK, BOTTOM.                                             061  LM00090
 02077 NZT -0 52000 0 01460    02100 TRA +0 02000 0 02102    02101 TSX +0 07400 4 00002
                   TRANSFER TO INSERT                                               062  LM00091
 02102 TRA +0 02000 0 00051
                 OR WHENEVER CWD .E. $APPEND$ .OR. CWD .E. $     A$                 063  LM00093
 02103 TRA +0 02000 0 03415    02104 CLA +0 50000 0 00106    02105 SUB +0 40200 0 01530    02106 TZE +0 10000 0 02112
 02107 CLA +0 50000 0 00106    02110 SUB +0 40200 0 01505    02111 TNZ -0 10000 0 02123
                   WHENEVER LENGTH .G. 0, LENGTH = LENGTH - 1                       064  LM00094
 02112 CLA +0 50000 0 00700    02113 SUB +0 40200 0 01500    02114 TZE +0 10000 0 02121    02115 TMI -0 12000 0 02121
 02116 CLA +0 50000 0 00700    02117 SUB +0 40200 0 01501    02120 STO +0 60100 0 00700
                   TRANSFER TO APPEND                                               065  LM00095
 02121 TRA +0 02000 0 00034
                 OR WHENEVER CWD .E. $RETYPE$ .OR. CWD .E. $     R$                 066  LM00097
 02122 TRA +0 02000 0 03415    02123 CLA +0 50000 0 00106    02124 SUB +0 40200 0 01545    02125 TZE +0 10000 0 02131
 02126 CLA +0 50000 0 00106    02127 SUB +0 40200 0 01514    02130 TNZ -0 10000 0 02157
       RETYPE      LENGTH = 0                                                       067  LM00098
 02131 CLA +0 50000 0 01500    02132 STO +0 60100 0 00700
      APPEND       THROUGH RPLC, FOR EDCT = EDCT + 1, 1, EDCT .G. COUNT             068  LM00099
 02133 CLA +0 50000 0 00111    02134 ADD +0 40000 0 01501    02135 STO +0 60100 0 00111    02136 TRA +0 02000 0 02142
 02137 CLA +0 50000 0 00111    02140 ADD +0 40000 0 01501    02141 STO +0 60100 0 00111    02142 CLA +0 50000 0 00111
 02143 SUB +0 40200 0 00105    02144 TZE +0 10000 0 02146    02145 TPL +0 12000 0 02156
                     LENGTH = LENGTH + 1                                            069  LM00100
 02146 CLA +0 50000 0 00700    02147 ADD +0 40000 0 01501    02150 STO +0 60100 0 00700
       RPLC          LINE(LENGTH) = EDLIN(EDCT)                                     070  LM00101
 02151 LXA +0 53400 1 00700    02152 LXA +0 53400 2 00111    02153 CLA +0 50000 2 00663    02154 STO +0 60100 1 01452
 02155 TRA +0 02000 0 02137
                 OR WHENEVER CWD .E. $ ERASE$ .OR. CWD .E. $     E$                 071  LM00103
 02156 TRA +0 02000 0 03415    02157 CLA +0 50000 0 00106    02160 SUB +0 40200 0 01534    02161 TZE +0 10000 0 02165
 02162 CLA +0 50000 0 00106    02163 SUB +0 40200 0 01516    02164 TNZ -0 10000 0 02203
                   WHENEVER EDLIN(EDCT+1) .NE. BLANK, SETERS.(EDLIN(EDCT+1))        072  LM00104
 02165 CLA +0 50000 0 00111    02166 ADD +0 40000 0 01501    02167 PAX +0 73400 1 00000    02170 CLA +0 50000 1 00663
 02171 SUB +0 40200 0 00076    02172 TZE +0 10000 0 02202    02173 CLA +0 50000 0 00111    02174 ADD +0 40000 0 01501
 02175 SUB +0 40200 0 02176    02176 TXH +3 00000 0 00663    02177 STA +0 62100 0 02201    02200 TSX +0 07400 4 00022
 02201 TXH +3 00000 0 00000
                 OR WHENEVER CWD .E. $  KILL$ .OR. CWD .E. $     K$                 073  LM00106
 02202 TRA +0 02000 0 03415    02203 CLA +0 50000 0 00106    02204 SUB +0 40200 0 01540    02205 TZE +0 10000 0 02211
 02206 CLA +0 50000 0 00106    02207 SUB +0 40200 0 01522    02210 TNZ -0 10000 0 02227
                   WHENEVER EDLIN(EDCT+1) .NE. BLANK, SETKIL.(EDLIN(EDCT+1))        074  LM00107
 02211 CLA +0 50000 0 00111    02212 ADD +0 40000 0 01501    02213 PAX +0 73400 1 00000    02214 CLA +0 50000 1 00663
 02215 SUB +0 40200 0 00076    02216 TZE +0 10000 0 02226    02217 CLA +0 50000 0 00111    02220 ADD +0 40000 0 01501
 02221 SUB +0 40200 0 02222    02222 TXH +3 00000 0 00663    02223 STA +0 62100 0 02225    02224 TSX +0 07400 4 00023
 02225 TXH +3 00000 0 00000
                 OR WHENEVER CWD .E. $ BREAK$ .OR. CWD .E. $    BR$                 075  LM00111
 02226 TRA +0 02000 0 03415    02227 CLA +0 50000 0 00106    02230 SUB +0 40200 0 01526    02231 TZE +0 10000 0 02235
 02232 CLA +0 50000 0 00106    02233 SUB +0 40200 0 01515    02234 TNZ -0 10000 0 02260
                   WHENEVER EDLIN(EDCT) .E. RETURN                                  076  LM00112
 02235 LXA +0 53400 1 00111    02236 CLA +0 50000 1 00663    02237 SUB +0 40200 0 01467    02240 TNZ -0 10000 0 02244
                     MCHNG = RETURN                                                 077  LM00113
 02241 CLA +0 50000 0 01467    02242 STO +0 60100 0 01454
                   OR WHENEVER EDLIN(EDCT+1) .NE. BLANK                             078  LM00114
 02243 TRA +0 02000 0 02257    02244 CLA +0 50000 0 00111    02245 ADD +0 40000 0 01501    02246 PAX +0 73400 1 00000
 02247 CLA +0 50000 1 00663    02250 SUB +0 40200 0 00076    02251 TZE +0 10000 0 02257
                     MCHNG = EDLIN(EDCT+1)                                          079  LM00115
 02252 CLA +0 50000 0 00111    02253 ADD +0 40000 0 01501    02254 PAX +0 73400 2 00000    02255 CLA +0 50000 2 00663
 02256 STO +0 60100 0 01454
                   END OF CONDITIONAL                                               080  LM00116
                 OR WHENEVER CWD .E. $VERIFY$ .OR. CWD .E. $     V$                 081  LM00118
 02257 TRA +0 02000 0 03415    02260 CLA +0 50000 0 00106    02261 SUB +0 40200 0 01551    02262 TZE +0 10000 0 02266
 02263 CLA +0 50000 0 00106    02264 SUB +0 40200 0 01554    02265 TNZ -0 10000 0 02305
                   CWD = GET.(0)                                                    082  LM00119
 02266 TSX +0 07400 4 00031    02267 TXH +3 00000 0 01500    02270 STO +0 60100 0 00106
                   WHENEVER CWD .E. $    ON$                                        083  LM00120
 02271 CLA +0 50000 0 00106    02272 SUB +0 40200 0 01527    02273 TNZ -0 10000 0 02277
                     BRIEF = 0B                                                     084  LM00121
 02274 CLA +0 50000 0 01500    02275 STO +0 60100 0 00077
                   OR WHENEVER CWD .E. $   OFF$                                     085  LM00122
 02276 TRA +0 02000 0 02304    02277 CLA +0 50000 0 00106    02300 SUB +0 40200 0 01525    02301 TNZ -0 10000 0 02304
                     BRIEF = 1B                                                     086  LM00123
 02302 CLA +0 50000 0 01501    02303 STO +0 60100 0 00077
                   END OF CONDITIONAL                                               087  LM00124
                 OR WHENEVER CWD .E. $LOCATE$ .OR. CWD .E. $     L$                 088  LM00126
 02304 TRA +0 02000 0 03415    02305 CLA +0 50000 0 00106    02306 SUB +0 40200 0 01541    02307 TZE +0 10000 0 02313
 02310 CLA +0 50000 0 00106    02311 SUB +0 40200 0 01513    02312 TNZ -0 10000 0 02317
                   LOCATE = 1                                                       089  LM00127
 02313 CLA +0 50000 0 01501    02314 STO +0 60100 0 01453
                   TRANSFER TO FIND                                                 090  LM00128
 02315 TRA +0 02000 0 00045
                 OR WHENEVER CWD .E. $  FIND$ .OR. CWD .E. $     F$                 091  LM00130
 02316 TRA +0 02000 0 03415    02317 CLA +0 50000 0 00106    02320 SUB +0 40200 0 01535    02321 TZE +0 10000 0 02325
 02322 CLA +0 50000 0 00106    02323 SUB +0 40200 0 01521    02324 TNZ -0 10000 0 02510
                   LOCATE = 0                                                       092  LM00131
 02325 CLA +0 50000 0 01500    02326 STO +0 60100 0 01453
      FIND         WHENEVER EDCT+1 .GE. COUNT                                       093  LM00132
 02327 CLA +0 50000 0 00111    02330 ADD +0 40000 0 01501    02331 SUB +0 40200 0 00105    02332 TZE +0 10000 0 02334
 02333 TMI -0 12000 0 02341
                     COUNT = OCOUNT                                                 094  LM00133
 02334 CLA +0 50000 0 01457    02335 STO +0 60100 0 00105
                     EDCT = EDCT + 1                                                095  LM00134
 02336 CLA +0 50000 0 00111    02337 ADD +0 40000 0 01501    02340 STO +0 60100 0 00111
                   END OF CONDITIONAL                                               096  LM00135
                   OCOUNT = COUNT                                                   097  LM00136
 02341 CLA +0 50000 0 00105    02342 STO +0 60100 0 01457
       NTFND       WRITE.(LINE, LENGTH)                                             098  LM00137
 02343 TSX +0 07400 4 00027    02344 TXH +3 00000 0 01452    02345 TXH +3 00000 0 00700
                   WHENEVER  .NOT. OK, CLSOUT.                                      099  LM00138
 02346 ZET +0 52000 0 01460    02347 TRA +0 02000 0 02351    02350 TSX +0 07400 4 00030
                   LENGTH = READ.(LINE, BUFSIZ, EOF)                                100  LM00139
 02351 TSX +0 07400 4 00017    02352 TXH +3 00000 0 01452    02353 TXH +3 00000 0 00100    02354 TXH +3 00000 0 00044
 02355 STO +0 60100 0 00700
                   THROUGH LOCSCN, FOR K=0, 1,K.G.LOCATE*(LENGTH-COUNT+EDCT)        101  LM00140
 02356 CLA +0 50000 0 01500    02357 STO +0 60100 0 00677    02360 TRA +0 02000 0 02364    02361 CLA +0 50000 0 00677
 02362 ADD +0 40000 0 01501    02363 STO +0 60100 0 00677    02364 CLA +0 50000 0 00700    02365 SUB +0 40200 0 00105
 02366 ADD +0 40000 0 00111    02367 XCA +0 13100 0 00000    02370 MPY +0 20000 0 01453    02371 XCA +0 13100 0 00000
 02372 CHS +0 76000 0 00002    02373 ADD +0 40000 0 00677    02374 TZE +0 10000 0 02376    02375 TPL +0 12000 0 02506
                     J = K                                                          102  LM00141
 02376 CLA +0 50000 0 00677    02377 STO +0 60100 0 00676
                     THROUGH LOOK, FOR I = EDCT+1, 1, I .GE. COUNT                  103  LM00142
 02400 CLA +0 50000 0 00111    02401 ADD +0 40000 0 01501    02402 STO +0 60100 0 00675    02403 TRA +0 02000 0 02407
 02404 CLA +0 50000 0 00675    02405 ADD +0 40000 0 01501    02406 STO +0 60100 0 00675    02407 CLA +0 50000 0 00675
 02410 SUB +0 40200 0 00105    02411 TZE +0 10000 0 02475    02412 TPL +0 12000 0 02475
                       J = J + 1                                                    104  LM00143
 02413 CLA +0 50000 0 00676    02414 ADD +0 40000 0 01501    02415 STO +0 60100 0 00676
       TAGN            WHENEVER LINE(J) .E. EDLIN(I), TRANSFER TO LOOK              105  LM00144
 02416 LXA +0 53400 1 00676    02417 LXA +0 53400 2 00675    02420 CLA +0 50000 1 01452    02421 SUB +0 40200 2 00663
 02422 TNZ -0 10000 0 02424    02423 TRA +0 02000 0 00053
                       WHENEVER (LINE(J).E. TAB) .AND. (EDLIN(I) .E. BLANK)         106  LM00145
                1       , TRANSFER TO LOOK                                          106  LM00146
 02424 LXA +0 53400 1 00675    02425 CLA +0 50000 1 00663    02426 SUB +0 40200 0 00076    02427 TNZ -0 10000 0 02435
 02430 LXA +0 53400 1 00676    02431 CLA +0 50000 1 01452    02432 SUB +0 40200 0 01473    02433 TNZ -0 10000 0 02435
 02434 TRA +0 02000 0 00053
                       WHENEVER EDLIN(I-1) .NE. BLANK .OR. I .E. EDCT + 1           107  LM00147
                1       , TRANSFER TO LOCSCN                                        107  LM00148
 02435 CLA +0 50000 0 00111    02436 ADD +0 40000 0 01501    02437 CHS +0 76000 0 00002    02440 ADD +0 40000 0 00675
 02441 TZE +0 10000 0 02450    02442 CLA +0 50000 0 00675    02443 SUB +0 40200 0 01501    02444 PAX +0 73400 1 00000
 02445 CLA +0 50000 1 00663    02446 SUB +0 40200 0 00076    02447 TZE +0 10000 0 02451    02450 TRA +0 02000 0 00052
                       WHENEVER LINE(J) .NE. BLANK .AND. LINE(J) .NE. TAB           108  LM00149
                1       , TRANSFER TO LOCSCN                                        108  LM00150
 02451 LXA +0 53400 1 00676    02452 CLA +0 50000 1 01452    02453 SUB +0 40200 0 01473    02454 TZE +0 10000 0 02461
 02455 CLA +0 50000 1 01452    02456 SUB +0 40200 0 00076    02457 TZE +0 10000 0 02461    02460 TRA +0 02000 0 00052
                       J = J + 1                                                    109  LM00151
 02461 CLA +0 50000 0 00676    02462 ADD +0 40000 0 01501    02463 STO +0 60100 0 00676
                       TRANSFER TO TAGN                                             110  LM00152
 02464 TRA +0 02000 0 00067
       LOOK            WHENEVER I .E. EDCT+1, FNDST = J                             111  LM00153
 02465 CLA +0 50000 0 00111    02466 ADD +0 40000 0 01501    02467 CHS +0 76000 0 00002    02470 ADD +0 40000 0 00675
 02471 TNZ -0 10000 0 02474    02472 CLA +0 50000 0 00676    02473 STO +0 60100 0 00670    02474 TRA +0 02000 0 02404
                     FNDND = J                                                      112  LM00154
 02475 CLA +0 50000 0 00676    02476 STO +0 60100 0 00667
                     WHENEVER .NOT. BRIEF, PRNT.(FNDST, FNDND)                      113  LM00155
 02477 ZET +0 52000 0 00077    02500 TRA +0 02000 0 02504    02501 TSX +0 07400 4 00032    02502 TXH +3 00000 0 00670
 02503 TXH +3 00000 0 00667
                     TRANSFER TO NXRQ                                               114  LM00156
 02504 TRA +0 02000 0 00060
        LOCSCN       CONTINUE                                                       115  LM00157
 02505 TRA +0 02000 0 02361
                   TRANSFER TO NTFND                                                116  LM00158
 02506 TRA +0 02000 0 00057
                 OR WHENEVER CWD .E. $ PRINT$ .OR. CWD .E. $     P$                 117  LM00160
 02507 TRA +0 02000 0 03415    02510 CLA +0 50000 0 00106    02511 SUB +0 40200 0 01543    02512 TZE +0 10000 0 02516
 02513 CLA +0 50000 0 00106    02514 SUB +0 40200 0 01517    02515 TNZ -0 10000 0 02564
                   NPRNT = BIN.(GET.(0))                                            118  LM00161
 02516 TSX +0 07400 4 00031    02517 TXH +3 00000 0 01500    02520 STO +0 60100 0 03710    02521 TSX +0 07400 4 00001
 02522 TXH +3 00000 0 03710    02523 STO +0 60100 0 01455
      PNTLP        WHENEVER LENGTH .E. 0                                            119  LM00162
 02524 CLA +0 50000 0 00700    02525 SUB +0 40200 0 01500    02526 TNZ -0 10000 0 02540
                     PRINT COMMENT $0N1O0 1C1U1R1R1E1N1T0 1L1I1N1E0.$               120  LM00163
 02527 TSX +0 07400 4 00015    02530     +0 00000 0 00006    02531     +0 04501 4 60060    02532     +0 12301 6 40151
 02533     +0 15101 2 50145    02534     +0 16300 6 00143    02535     +0 13101 4 50125    02536     +0 03360 6 06060
                   OTHERWISE                                                        121  LM00164
 02537 TRA +0 02000 0 02543
                     TYPOUT.(LINE, LENGTH)                                          122  LM00165
 02540 TSX +0 07400 4 00025    02541 TXH +3 00000 0 01452    02542 TXH +3 00000 0 00700
                   END OF CONDITIONAL                                               123  LM00166
                   NPRNT = NPRNT - 1                                                124  LM00167
 02543 CLA +0 50000 0 01455    02544 SUB +0 40200 0 01501    02545 STO +0 60100 0 01455
                   WHENEVER NPRNT .G. 0                                             125  LM00168
 02546 CLA +0 50000 0 01455    02547 SUB +0 40200 0 01500    02550 TZE +0 10000 0 02563    02551 TMI -0 12000 0 02563
                     WRITE.(LINE, LENGTH)                                           126  LM00169
 02552 TSX +0 07400 4 00027    02553 TXH +3 00000 0 01452    02554 TXH +3 00000 0 00700
                     LENGTH = READ.(LINE, BUFSIZ, EOF)                              127  LM00170
 02555 TSX +0 07400 4 00017    02556 TXH +3 00000 0 01452    02557 TXH +3 00000 0 00100    02560 TXH +3 00000 0 00044
 02561 STO +0 60100 0 00700
                     TRANSFER TO PNTLP                                              128  LM00171
 02562 TRA +0 02000 0 00061
                   END OF CONDITIONAL                                               129  LM00172
                 OR WHENEVER CWD .E. $   TOP$ .OR. CWD .E. $     T$                 130  LM00174
 02563 TRA +0 02000 0 03415    02564 CLA +0 50000 0 00106    02565 SUB +0 40200 0 01550    02566 TZE +0 10000 0 02572
 02567 CLA +0 50000 0 00106    02570 SUB +0 40200 0 01552    02571 TNZ -0 10000 0 02602
       TOPLP       WRITE.(LINE, LENGTH)                                             131  LM00175
 02572 TSX +0 07400 4 00027    02573 TXH +3 00000 0 01452    02574 TXH +3 00000 0 00700
                   WHENEVER OK, BOTTOM.                                             132  LM00176
 02575 NZT -0 52000 0 01460    02576 TRA +0 02000 0 02600    02577 TSX +0 07400 4 00002
                   CLSOUT.                                                          133  LM00177
 02600 TSX +0 07400 4 00030
                 OR WHENEVER CWD .E. $CHANGE$ .OR. CWD .E. $     C$                 134  LM00179
 02601 TRA +0 02000 0 03415    02602 CLA +0 50000 0 00106    02603 SUB +0 40200 0 01532    02604 TZE +0 10000 0 02610
 02605 CLA +0 50000 0 00106    02606 SUB +0 40200 0 01510    02607 TNZ -0 10000 0 03172
                   EDCT = EDCT+1                                                    135  LM00185
 02610 CLA +0 50000 0 00111    02611 ADD +0 40000 0 01501    02612 STO +0 60100 0 00111
                   QUOTE = EDLIN(EDCT)                                              136  LM00186
 02613 LXA +0 53400 2 00111    02614 CLA +0 50000 2 00663    02615 STO +0 60100 0 01464
                   STR1 = EDCT                                                      137  LM00187
 02616 CLA +0 50000 0 00111    02617 STO +0 60100 0 01471
      QLOOP        THROUGH QLOOP, FOR EDCT = EDCT+1, 1,                             138  LM00188
                1     (EDLIN(EDCT) .E. QUOTE) .OR. (EDCT .GE. COUNT)                138  LM00189
 02620 CLA +0 50000 0 00111    02621 ADD +0 40000 0 01501    02622 STO +0 60100 0 00111    02623 TRA +0 02000 0 02627
 02624 CLA +0 50000 0 00111    02625 ADD +0 40000 0 01501    02626 STO +0 60100 0 00111    02627 CLA +0 50000 0 00111
 02630 SUB +0 40200 0 00105    02631 TZE +0 10000 0 02640    02632 TPL +0 12000 0 02640    02633 LXA +0 53400 1 00111
 02634 CLA +0 50000 1 00663    02635 SUB +0 40200 0 01464    02636 TZE +0 10000 0 02640    02637 TRA +0 02000 0 02624
                   STR2 = EDCT                                                      139  LM00190
 02640 CLA +0 50000 0 00111    02641 STO +0 60100 0 01472
      QLOOP1       THROUGH QLOOP1, FOR EDCT = EDCT+1, 1,                            140  LM00191
                1     (EDLIN(EDCT) .E. QUOTE) .OR. (EDCT .GE. COUNT)                140  LM00192
 02642 CLA +0 50000 0 00111    02643 ADD +0 40000 0 01501    02644 STO +0 60100 0 00111    02645 TRA +0 02000 0 02651
 02646 CLA +0 50000 0 00111    02647 ADD +0 40000 0 01501    02650 STO +0 60100 0 00111    02651 CLA +0 50000 0 00111
 02652 SUB +0 40200 0 00105    02653 TZE +0 10000 0 02662    02654 TPL +0 12000 0 02662    02655 LXA +0 53400 1 00111
 02656 CLA +0 50000 1 00663    02657 SUB +0 40200 0 01464    02660 TZE +0 10000 0 02662    02661 TRA +0 02000 0 02646
                   EST2 = EDCT                                                      141  LM00193
 02662 CLA +0 50000 0 00111    02663 STO +0 60100 0 00664
                   EDCT = EDCT + 1                                                  142  LM00197
 02664 CLA +0 50000 0 00111    02665 ADD +0 40000 0 01501    02666 STO +0 60100 0 00111
                   TEM = 1                                                          143  LM00198
 02667 CLA +0 50000 0 01501    02670 STO +0 60100 0 01474
                   GLOBAL = 0B                                                      144  LM00199
 02671 CLA +0 50000 0 01500    02672 STO +0 60100 0 00672
      ARGLP        CWD = GET.(0)                                                    145  LM00200
 02673 TSX +0 07400 4 00031    02674 TXH +3 00000 0 01500    02675 STO +0 60100 0 00106
                   WHENEVER CWD .E. $ $                                             146  LM00201
 02676 CLA +0 50000 0 00106    02677 SUB +0 40200 0 01546    02700 TNZ -0 10000 0 02703
                     TRANSFER TO SHIFT                                              147  LM00202
 02701 TRA +0 02000 0 00063
                   OR WHENEVER CWD .E. $     G$                                     148  LM00203
 02702 TRA +0 02000 0 02721    02703 CLA +0 50000 0 00106    02704 SUB +0 40200 0 01536    02705 TNZ -0 10000 0 02716
                     WHENEVER STR2 .NE. STR1+1, GLOBAL = 1B                         149  LM00204
 02706 CLA +0 50000 0 01471    02707 ADD +0 40000 0 01501    02710 CHS +0 76000 0 00002    02711 ADD +0 40000 0 01472
 02712 TZE +0 10000 0 02715    02713 CLA +0 50000 0 01501    02714 STO +0 60100 0 00672
                   OTHERWISE                                                        150  LM00205
 02715 TRA +0 02000 0 02721
                     TEM = BIN.(CWD)                                                151  LM00206
 02716 TSX +0 07400 4 00001    02717 TXH +3 00000 0 00106    02720 STO +0 60100 0 01474
                   END OF CONDITIONAL                                               152  LM00207
                   TRANSFER TO ARGLP                                                153  LM00208
 02721 TRA +0 02000 0 00035
       SHIFT       THROUGH MVDWN, FOR I = LENGTH, -1, I .L. 1                       154  LM00212
 02722 CLA +0 50000 0 00700    02723 STO +0 60100 0 00675    02724 TRA +0 02000 0 02730    02725 CLS +0 50200 0 01501
 02726 ADD +0 40000 0 00675    02727 STO +0 60100 0 00675    02730 CLA +0 50000 0 00675    02731 SUB +0 40200 0 01501
 02732 TZE +0 10000 0 02734    02733 TMI -0 12000 0 02744
      MVDWN          LINE(BUFSIZ+I-LENGTH) = LINE(I)                                155  LM00213
 02734 CLA +0 50000 0 00100    02735 ADD +0 40000 0 00675    02736 SUB +0 40200 0 00700    02737 PAX +0 73400 1 00000
 02740 LXA +0 53400 2 00675    02741 CLA +0 50000 2 01452    02742 STO +0 60100 1 01452    02743 TRA +0 02000 0 02725
                   DOWN = BUFSIZ-LENGTH+1                                           156  LM00214
 02744 CLA +0 50000 0 00100    02745 SUB +0 40200 0 00700    02746 ADD +0 40000 0 01501    02747 STO +0 60100 0 00110
                   UP = 0                                                           157  LM00215
 02750 CLA +0 50000 0 01500    02751 STO +0 60100 0 01476
                   CHNG = 0B                                                        158  LM00216
 02752 CLA +0 50000 0 01500    02753 STO +0 60100 0 00102
                   CHST = LENGTH + 1                                                159  LM00217
 02754 CLA +0 50000 0 00700    02755 ADD +0 40000 0 01501    02756 STO +0 60100 0 00103
                   CHEND = LENGTH                                                   160  LM00218
 02757 CLA +0 50000 0 00700    02760 STO +0 60100 0 00101
      SRCHLP       UP = UP + 1                                                      161  LM00222
 02761 CLA +0 50000 0 01476    02762 ADD +0 40000 0 01501    02763 STO +0 60100 0 01476
      SRTST          WHENEVER DOWN .G. BUFSIZ, TRANSFER TO GIVUP                    162  LM00223
 02764 CLA +0 50000 0 00110    02765 SUB +0 40200 0 00100    02766 TZE +0 10000 0 02771    02767 TMI -0 12000 0 02771
 02770 TRA +0 02000 0 00046
                     J = DOWN                                                       163  LM00224
 02771 CLA +0 50000 0 00110    02772 STO +0 60100 0 00676
                     THROUGH COMPAR, FOR I = STR1+1, 1, I .GE. STR2                 164  LM00225
 02773 CLA +0 50000 0 01471    02774 ADD +0 40000 0 01501    02775 STO +0 60100 0 00675    02776 TRA +0 02000 0 03002
 02777 CLA +0 50000 0 00675    03000 ADD +0 40000 0 01501    03001 STO +0 60100 0 00675    03002 CLA +0 50000 0 00675
 03003 SUB +0 40200 0 01472    03004 TZE +0 10000 0 03025    03005 TPL +0 12000 0 03025
                       WHENEVER J .GE. BUFSIZ, TRANSFER TO GIVUP                    165  LM00226
 03006 CLA +0 50000 0 00676    03007 SUB +0 40200 0 00100    03010 TZE +0 10000 0 03012    03011 TMI -0 12000 0 03013
 03012 TRA +0 02000 0 00046
                       WHENEVER EDLIN(I) .NE. LINE(J), TRANSFER TO NOCOMP           166  LM00227
 03013 LXA +0 53400 1 00675    03014 LXA +0 53400 2 00676    03015 CLA +0 50000 1 00663    03016 SUB +0 40200 2 01452
 03017 TZE +0 10000 0 03021    03020 TRA +0 02000 0 00055
       COMPAR          J = J + 1                                                    167  LM00228
 03021 CLA +0 50000 0 00676    03022 ADD +0 40000 0 01501    03023 STO +0 60100 0 00676    03024 TRA +0 02000 0 02777
                     TRANSFER TO STFND                                              168  LM00229
 03025 TRA +0 02000 0 00066
      NOCOMP         LINE(UP) = LINE(DOWN)                                          169  LM00231
 03026 LXA +0 53400 1 01476    03027 LXA +0 53400 2 00110    03030 CLA +0 50000 2 01452    03031 STO +0 60100 1 01452
                     DOWN = DOWN + 1                                                170  LM00232
 03032 CLA +0 50000 0 00110    03033 ADD +0 40000 0 01501    03034 STO +0 60100 0 00110
                   TRANSFER TO SRCHLP                                               171  LM00233
 03035 TRA +0 02000 0 00064
      STFND        CHNG = 1B                                                        172  LM00237
 03036 CLA +0 50000 0 01501    03037 STO +0 60100 0 00102
                   DOWN = DOWN + (STR2-STR1-1)                                      173  LM00238
 03040 CLA +0 50000 0 01472    03041 SUB +0 40200 0 01471    03042 SUB +0 40200 0 01501    03043 ADD +0 40000 0 00110
 03044 STO +0 60100 0 00110
                   CHST = UP                                                        174  LM00239
 03045 CLA +0 50000 0 01476    03046 STO +0 60100 0 00103
                   THROUGH REPLAC, FOR I = STR2 + 1, 1, I .GE. EST2                 175  LM00240
 03047 CLA +0 50000 0 01472    03050 ADD +0 40000 0 01501    03051 STO +0 60100 0 00675    03052 TRA +0 02000 0 03056
 03053 CLA +0 50000 0 00675    03054 ADD +0 40000 0 01501    03055 STO +0 60100 0 00675    03056 CLA +0 50000 0 00675
 03057 SUB +0 40200 0 00664    03060 TZE +0 10000 0 03077    03061 TPL +0 12000 0 03077
                     LINE(UP) = EDLIN(I)                                            176  LM00241
 03062 LXA +0 53400 1 01476    03063 LXA +0 53400 2 00675    03064 CLA +0 50000 2 00663    03065 STO +0 60100 1 01452
                     UP = UP + 1                                                    177  LM00242
 03066 CLA +0 50000 0 01476    03067 ADD +0 40000 0 01501    03070 STO +0 60100 0 01476
       REPLAC        WHENEVER UP .G. DOWN, TRANSFER TO GIVUP                        178  LM00243
 03071 CLA +0 50000 0 01476    03072 SUB +0 40200 0 00110    03073 TZE +0 10000 0 03076    03074 TMI -0 12000 0 03076
 03075 TRA +0 02000 0 00046    03076 TRA +0 02000 0 03053
                   CHEND = UP - 1                                                   179  LM00244
 03077 CLA +0 50000 0 01476    03100 SUB +0 40200 0 01501    03101 STO +0 60100 0 00101
                   WHENEVER GLOBAL, TRANSFER TO SRTST                               180  LM00245
 03102 NZT -0 52000 0 00672    03103 TRA +0 02000 0 03105    03104 TRA +0 02000 0 00065
      GIVUP        THROUGH FILOUT, FOR UP = UP, 1, DOWN .G. BUFSIZ                  181  LM00249
 03105 CLA +0 50000 0 01476    03106 STO +0 60100 0 01476    03107 TRA +0 02000 0 03113    03110 CLA +0 50000 0 01476
 03111 ADD +0 40000 0 01501    03112 STO +0 60100 0 01476    03113 CLA +0 50000 0 00110    03114 SUB +0 40200 0 00100
 03115 TZE +0 10000 0 03117    03116 TPL +0 12000 0 03127
                     LINE(UP) = LINE(DOWN)                                          182  LM00250
 03117 LXA +0 53400 1 01476    03120 LXA +0 53400 2 00110    03121 CLA +0 50000 2 01452    03122 STO +0 60100 1 01452
      FILOUT         DOWN = DOWN + 1                                                183  LM00251
 03123 CLA +0 50000 0 00110    03124 ADD +0 40000 0 01501    03125 STO +0 60100 0 00110    03126 TRA +0 02000 0 03110
                   LENGTH = UP - 1                                                  184  LM00252
 03127 CLA +0 50000 0 01476    03130 SUB +0 40200 0 01501    03131 STO +0 60100 0 00700
                   TEM = TEM - 1                                                    185  LM00253
 03132 CLA +0 50000 0 01474    03133 SUB +0 40200 0 01501    03134 STO +0 60100 0 01474
                   WHENEVER .NOT. BRIEF .AND. (TEM .G. 0 .THEN. CHNG)               186  LM00254
                1       , PRNT.(CHST, CHEND)                                        186  LM00255
 03135 ZET +0 52000 0 00102    03136 TRA +0 02000 0 03143    03137 CLA +0 50000 0 01474    03140 SUB +0 40200 0 01500
 03141 TZE +0 10000 0 03143    03142 TPL +0 12000 0 03150    03143 ZET +0 52000 0 00077    03144 TRA +0 02000 0 03150
 03145 TSX +0 07400 4 00032    03146 TXH +3 00000 0 00103    03147 TXH +3 00000 0 00101
                   CANON.(LINE, LENGTH, BUFSIZ)                                     187  LM00256
 03150 TSX +0 07400 4 00003    03151 TXH +3 00000 0 01452    03152 TXH +3 00000 0 00700    03153 TXH +3 00000 0 00100
                   WHENEVER TEM .G. 0                                               188  LM00257
 03154 CLA +0 50000 0 01474    03155 SUB +0 40200 0 01500    03156 TZE +0 10000 0 03171    03157 TMI -0 12000 0 03171
                     WRITE.(LINE, LENGTH)                                           189  LM00258
 03160 TSX +0 07400 4 00027    03161 TXH +3 00000 0 01452    03162 TXH +3 00000 0 00700
                     LENGTH = READ.(LINE, BUFSIZ, EOF)                              190  LM00259
 03163 TSX +0 07400 4 00017    03164 TXH +3 00000 0 01452    03165 TXH +3 00000 0 00100    03166 TXH +3 00000 0 00044
 03167 STO +0 60100 0 00700
                     TRANSFER TO SHIFT                                              191  LM00260
 03170 TRA +0 02000 0 00063
                   END OF CONDITIONAL                                               192  LM00261
                 OR WHENEVER CWD .E. $ SPLIT$ .OR. CWD .E. $     S$                 193  LM00265
 03171 TRA +0 02000 0 03415    03172 CLA +0 50000 0 00106    03173 SUB +0 40200 0 01547    03174 TZE +0 10000 0 03200
 03175 CLA +0 50000 0 00106    03176 SUB +0 40200 0 01553    03177 TNZ -0 10000 0 03261
                   TOPNAM = GET.(0)                                                 194  LM00266
 03200 TSX +0 07400 4 00031    03201 TXH +3 00000 0 01500    03202 STO +0 60100 0 01475
                   WHENEVER TOPNAM .E. $ $, TRANSFER TO NONAME                      195  LM00267
 03203 CLA +0 50000 0 01475    03204 SUB +0 40200 0 01546    03205 TNZ -0 10000 0 03207    03206 TRA +0 02000 0 00056
                   WHENEVER TOPNAM .E. OLDNAM .AND. FSTPAS                          196  LM00268
 03207 NZT -0 52000 0 00671    03210 TRA +0 02000 0 03227    03211 CLA +0 50000 0 01475    03212 SUB +0 40200 0 01461
 03213 TNZ -0 10000 0 03227
      NEWNM          PRINT COMMENT $0P1L1E1A1S1E0 1U1S1E0 1A1N1O1T1H1E1R0 1N1A      197  LM00269
                11M1E0.$                                                            197  LM00270
 03214 TSX +0 07400 4 00015    03215     +0 00000 0 00010    03216     +0 04701 4 30125    03217     +0 12101 6 20125
 03220     +0 06001 6 40162    03221     +0 12500 6 00121    03222     +0 14501 4 60163    03223     +0 13001 2 50151
 03224     +0 06001 4 50121    03225     +0 14401 2 50033
                     TRANSFER TO NXRQ                                               198  LM00271
 03226 TRA +0 02000 0 00060
                   END OF CONDITIONAL                                               199  LM00272
                   SECNAM = GET.(0)                                                 200  LM00273
 03227 TSX +0 07400 4 00031    03230 TXH +3 00000 0 01500    03231 STO +0 60100 0 01470
                 WHENEVER SECNAM .E. $ $, SECNAM = OLDSEC                           201  LM00274
 03232 CLA +0 50000 0 01470    03233 SUB +0 40200 0 01546    03234 TNZ -0 10000 0 03237    03235 CLA +0 50000 0 01462
 03236 STO +0 60100 0 01470
                   CLRNAM.(TOPNAM, SECNAM, NEWNM, 1B)                               202  LM00275
 03237 TSX +0 07400 4 00006    03240 TXH +3 00000 0 01475    03241 TXH +3 00000 0 01470    03242 TXH +3 00000 0 00054
 03243 TXH +3 00000 0 01501
                   CLOSEW.                                                          203  LM00276
 03244 TSX +0 07400 4 00005
                   RENAME.(IN, FI, TOPNAM, SECNAM)                                  204  LM00277
 03245 TSX +0 07400 4 00020    03246 TXH +3 00000 0 00674    03247 TXH +3 00000 0 00666    03250 TXH +3 00000 0 01475
 03251 TXH +3 00000 0 01470
                   ASSIGN.(IN, FI)                                                  205  LM00278
 03252 TSX +0 07400 4 00000    03253 TXH +3 00000 0 00674    03254 TXH +3 00000 0 00666
                   OLDNAM = FENCE                                                   206  LM00279
 03255 CLA +0 50000 0 00665    03256 STO +0 60100 0 01461
                   TRANSFER TO TOPLP                                                207  LM00280
 03257 TRA +0 02000 0 00070
                 OR WHENEVER CWD .E. $  QUIT$ .OR. CWD .E. $     Q$                 208  LM00282
 03260 TRA +0 02000 0 03415    03261 CLA +0 50000 0 00106    03262 SUB +0 40200 0 01544    03263 TZE +0 10000 0 03267
 03264 CLA +0 50000 0 00106    03265 SUB +0 40200 0 01524    03266 TNZ -0 10000 0 03303
                   ENDRD.                                                           209  LM00283
 03267 TSX +0 07400 4 00011
                   CLOSEW.                                                          210  LM00284
 03270 TSX +0 07400 4 00005
                   DELFIL.(IN1, FI, DLQ1)                                           211  LM00285
 03271 TSX +0 07400 4 00010    03272 TXH +3 00000 0 00673    03273 TXH +3 00000 0 00666    03274 TXH +3 00000 0 00041
      DLQ1         DELFIL.(IN, FI, DLQ2)                                            212  LM00286
 03275 TSX +0 07400 4 00010    03276 TXH +3 00000 0 00674    03277 TXH +3 00000 0 00666    03300 TXH +3 00000 0 00042
      DLQ2         TRANSFER TO CHN                                                  213  LM00287
 03301 TRA +0 02000 0 00036
                 OR WHENEVER CWD .E. $  FILE$                                       214  LM00289
 03302 TRA +0 02000 0 03415    03303 CLA +0 50000 0 00106    03304 SUB +0 40200 0 01520    03305 TNZ -0 10000 0 03403
                   PRINAM = GET.(0)                                                 215  LM00290
 03306 TSX +0 07400 4 00031    03307 TXH +3 00000 0 01500    03310 STO +0 60100 0 01463
                   CLRSW = 1B                                                       216  LM00291
 03311 CLA +0 50000 0 01501    03312 STO +0 60100 0 00104
                   WHENEVER PRINAM .E. $ $                                          217  LM00292
 03313 CLA +0 50000 0 01463    03314 SUB +0 40200 0 01546    03315 TNZ -0 10000 0 03325
                     PRINAM = OLDNAM                                                218  LM00293
 03316 CLA +0 50000 0 01461    03317 STO +0 60100 0 01463
                     SECNAM = OLDSEC                                                219  LM00294
 03320 CLA +0 50000 0 01462    03321 STO +0 60100 0 01470
                     CLRSW = 0B                                                     220  LM00295
 03322 CLA +0 50000 0 01500    03323 STO +0 60100 0 00104
                   OTHERWISE                                                        221  LM00296
 03324 TRA +0 02000 0 03335
                     SECNAM = GET.(0)                                               222  LM00297
 03325 TSX +0 07400 4 00031    03326 TXH +3 00000 0 01500    03327 STO +0 60100 0 01470
                     WHENEVER SECNAM .E. $ $                                        223  LM00298
 03330 CLA +0 50000 0 01470    03331 SUB +0 40200 0 01546    03332 TNZ -0 10000 0 03335
                       SECNAM = OLDSEC                                              224  LM00299
 03333 CLA +0 50000 0 01462    03334 STO +0 60100 0 01470
                     END OF CONDITIONAL                                             225  LM00300
                   END OF CONDITIONAL                                               226  LM00301
                   WHENEVER PRINAM .E. FENCE                                        227  LM00302
 03335 CLA +0 50000 0 01463    03336 SUB +0 40200 0 00665    03337 TNZ -0 10000 0 03352
      NONAME         PRINT COMMENT $0N1O0 1F1I1L1E0 1N1A1M1E0 1G1I1V1E1N0.$         228  LM00303
 03340 TSX +0 07400 4 00015    03341     +0 00000 0 00007    03342     +0 04501 4 60060    03343     +0 12601 3 10143
 03344     +0 12500 6 00145    03345     +0 12101 4 40125    03346     +0 06001 2 70131    03347     +0 16501 2 50145
 03350     +0 03360 6 06060
                     TRANSFER TO NXRQ                                               229  LM00304
 03351 TRA +0 02000 0 00060
                   END OF CONDITIONAL                                               230  LM00305
                   WRITE.(LINE, LENGTH)                                             231  LM00306
 03352 TSX +0 07400 4 00027    03353 TXH +3 00000 0 01452    03354 TXH +3 00000 0 00700
                   LENGTH = 0                                                       232  LM00307
 03355 CLA +0 50000 0 01500    03356 STO +0 60100 0 00700
                   WHENEVER OK, BOTTOM.                                             233  LM00308
 03357 NZT -0 52000 0 01460    03360 TRA +0 02000 0 03362    03361 TSX +0 07400 4 00002
                   CLRNAM.(PRINAM, SECNAM, NEWNM, CLRSW)                            234  LM00309
 03362 TSX +0 07400 4 00006    03363 TXH +3 00000 0 01463    03364 TXH +3 00000 0 01470    03365 TXH +3 00000 0 00054
 03366 TXH +3 00000 0 00104
                   CLOSEW.                                                          235  LM00310
 03367 TSX +0 07400 4 00005
                   DELFIL.(IN1, FI, DL1)                                            236  LM00311
 03370 TSX +0 07400 4 00010    03371 TXH +3 00000 0 00673    03372 TXH +3 00000 0 00666    03373 TXH +3 00000 0 00037
      DL1          RENAME.(IN, FI, PRINAM, SECNAM)                                  237  LM00312
 03374 TSX +0 07400 4 00020    03375 TXH +3 00000 0 00674    03376 TXH +3 00000 0 00666    03377 TXH +3 00000 0 01463
 03400 TXH +3 00000 0 01470
      CHN          EXIT.                                                            238  LM00313
 03401 TSX +0 07400 4 00012
                 OTHERWISE                                                          239  LM00315
 03402 TRA +0 02000 0 03415
                   PRINT COMMENT $0N1O1T0 1A0 1R1E1Q1U1E1S1T0:$                     240  LM00316
 03403 TSX +0 07400 4 00015    03404     +0 00000 0 00005    03405     +0 04501 4 60163    03406     +0 06001 2 10060
 03407     +0 15101 2 50150    03410     +0 16401 2 50162    03411     +0 16300 3 56060
                   TYPOUT.(EDLIN, COUNT)                                            241  LM00317
 03412 TSX +0 07400 4 00025    03413 TXH +3 00000 0 00663    03414 TXH +3 00000 0 00105
                 END OF CONDITIONAL                                                 242  LM00319
                 TRANSFER TO NXRQ                                                   243  LM00320
 03415 TRA +0 02000 0 00060
      EOF        PRINTCOMMENT $0E1N1D0 1O1F0 1F1I1L1E0 1R1E1A1C1H1E1D0 1B1Y0:$      244  LM00322
 03416 TSX +0 07400 4 00015    03417     +0 00000 0 00010    03420     +0 02501 4 50124    03421     +0 06001 4 60126
 03422     +0 06001 2 60131    03423     +0 14301 2 50060    03424     +0 15101 2 50121    03425     +0 12301 3 00125
 03426     +0 12400 6 00122    03427     +0 17000 3 56060
                 TYPOUT.(EDLIN, COUNT)                                              245  LM00323
 03430 TSX +0 07400 4 00025    03431 TXH +3 00000 0 00663    03432 TXH +3 00000 0 00105
                 LENGTH = 0                                                         246  LM00324
 03433 CLA +0 50000 0 01500    03434 STO +0 60100 0 00700
                 OK = 0B                                                            247  LM00325
 03435 CLA +0 50000 0 01500    03436 STO +0 60100 0 01460
                 TRANSFER TO NXRQ                                                   248  LM00326
 03437 TRA +0 02000 0 00060
                 INTERNAL FUNCTION                                                  249  LM00334
 03440 TRA +0 02000 0 03510
                 ENTRY TO CLSOUT.                                                   250  LM00335
 03441 TRA +0 02000 0 03444    00030 TTR +0 02100 0 03442    03442 SXA +0 63400 2 03477    03443 TSX +0 07400 2 03477
                   CLOSEW.                                                          251  LM00336
 03444 TSX +0 07400 4 00005
                   DELFIL.(IN1, FI, DL2)                                            252  LM00337
 03445 TSX +0 07400 4 00010    03446 TXH +3 00000 0 00673    03447 TXH +3 00000 0 00666    03450 TXH +3 00000 0 00040
      DL2          CHFILE.(IN, FI, -0, IN1)                                         253  LM00338
 03451 CLS +0 50200 0 01500    03452 STO +0 60100 0 03507    03453 TSX +0 07400 4 00004    03454 TXH +3 00000 0 00674
 03455 TXH +3 00000 0 00666    03456 TXH +3 00000 0 03507    03457 TXH +3 00000 0 00673
                   SEEK.(IN1, FI, CHN)                                              254  LM00339
 03460 TSX +0 07400 4 00021    03461 TXH +3 00000 0 00673    03462 TXH +3 00000 0 00666    03463 TXH +3 00000 0 00036
                   ASSIGN.(IN, FI)                                                  255  LM00340
 03464 TSX +0 07400 4 00000    03465 TXH +3 00000 0 00674    03466 TXH +3 00000 0 00666
                   OK = 1B                                                          256  LM00341
 03467 CLA +0 50000 0 01501    03470 STO +0 60100 0 01460
                   LENGTH = 0                                                       257  LM00342
 03471 CLA +0 50000 0 01500    03472 STO +0 60100 0 00700
                   FSTPAS = 0B                                                      258  LM00343
 03473 CLA +0 50000 0 01500    03474 STO +0 60100 0 00671
                   FUNCTION RETURN                                                  259  LM00344
 03475 TRA +0 02000 0 03503
                 END OF FUNCTION                                                    260  LM00345
 03476 TSX +0 07400 4 00012    03477 TXH +3 00000 0 00000    03500 SXD -0 63400 1 03477    03501 SXA +0 63400 4 03503
 03502 TRA +0 02000 2 00001    03503 AXT +0 77400 4 00000    03504 LXA +0 53400 2 03477    03505 LXD -0 53400 1 03477
 03506 TRA +0 02000 4 00001
                 INTERNAL FUNCTION                                                  261  LM00349
 03510 TRA +0 02000 0 03616
                 ENTRY TO GET.                                                      262  LM00350
 03511 TRA +0 02000 0 03514    00031 TTR +0 02100 0 03512    03512 SXA +0 63400 2 03605    03513 TSX +0 07400 2 03605
                   WORD = $ $                                                       263  LM00351
 03514 CLA +0 50000 0 01546    03515 STO +0 60100 0 01477
      SCANLP       THROUGH SCANLP, FOR EDCT = EDCT, 1,                              264  LM00352
                1  (EDLIN(EDCT+1).NE.BLANK) .OR. (EDCT+1.GE.COUNT)                  264  LM00353
 03516 CLA +0 50000 0 00111    03517 STO +0 60100 0 00111    03520 TRA +0 02000 0 03524    03521 CLA +0 50000 0 00111
 03522 ADD +0 40000 0 01501    03523 STO +0 60100 0 00111    03524 CLA +0 50000 0 00111    03525 ADD +0 40000 0 01501
 03526 SUB +0 40200 0 00105    03527 TZE +0 10000 0 03540    03530 TPL +0 12000 0 03540    03531 CLA +0 50000 0 00111
 03532 ADD +0 40000 0 01501    03533 PAX +0 73400 1 00000    03534 CLA +0 50000 1 00663    03535 SUB +0 40200 0 00076
 03536 TNZ -0 10000 0 03540    03537 TRA +0 02000 0 03521
       GTLP        EDCT = EDCT + 1                                                  265  LM00354
 03540 CLA +0 50000 0 00111    03541 ADD +0 40000 0 01501    03542 STO +0 60100 0 00111
                   WHENEVER EDLIN(EDCT) .E. BLANK, FUNCTION RETURN WORD             266  LM00355
 03543 LXA +0 53400 1 00111    03544 CLA +0 50000 1 00663    03545 SUB +0 40200 0 00076    03546 TNZ -0 10000 0 03551
 03547 CLA +0 50000 0 01477    03550 TRA +0 02000 0 03611
                   WHENEVER EDLIN(EDCT) .E. TAB .OR. EDCT .GE. COUNT                267  LM00356
 03551 CLA +0 50000 0 00111    03552 SUB +0 40200 0 00105    03553 TZE +0 10000 0 03561    03554 TPL +0 12000 0 03561
 03555 LXA +0 53400 1 00111    03556 CLA +0 50000 1 00663    03557 SUB +0 40200 0 01473    03560 TNZ -0 10000 0 03566
                     EDCT = EDCT - 1                                                268  LM00357
 03561 CLA +0 50000 0 00111    03562 SUB +0 40200 0 01501    03563 STO +0 60100 0 00111
                     FUNCTION RETURN WORD                                           269  LM00358
 03564 CLA +0 50000 0 01477    03565 TRA +0 02000 0 03611
                   END OF CONDITIONAL                                               270  LM00359
                   WORD = (WORD .LS. 6) .V. HOL.(EDLIN(EDCT))                       271  LM00360
 03566 CLA +0 50000 0 00111    03567 SUB +0 40200 0 03570    03570 TXH +3 00000 0 00663    03571 STA +0 62100 0 03573
 03572 TSX +0 07400 4 00014    03573 TXH +3 00000 0 00000    03574 STO +0 60100 0 03615    03575 CAL -0 50000 0 01504
 03576 STA +0 62100 0 03600    03577 CAL -0 50000 0 01477    03600 ALS +0 76700 0 00000    03601 ORA -0 50100 0 03615
 03602 SLW +0 60200 0 01477
                   TRANSFER TO GTLP                                                 272  LM00361
 03603 TRA +0 02000 0 00047
                 END OF FUNCTION                                                    273  LM00362
 03604 TSX +0 07400 4 00012    03605 TXH +3 00000 0 00000    03606 SXD -0 63400 1 03605    03607 SXA +0 63400 4 03611
 03610 TRA +0 02000 2 00001    03611 AXT +0 77400 4 00000    03612 LXA +0 53400 2 03605    03613 LXD -0 53400 1 03605
 03614 TRA +0 02000 4 00001
                 INTERNAL FUNCTION(STAR, EN)                                        274  LM00366
 03616 TRA +0 02000 0 03707
                 ENTRY TO PRNT.                                                     275  LM00367
 03617 TRA +0 02000 0 03622    00032 TTR +0 02100 0 03620    03620 SXA +0 63400 2 03666    03621 TSX +0 07400 2 03666
                   TYPOUT.(LINE, STAR-1)                                            276  LM00368
 03622 CLA +0 50000 0 00024    03623 SUB +0 40200 0 01501    03624 STO +0 60100 0 03706    03625 TSX +0 07400 4 00025
 03626 TXH +3 00000 0 01452    03627 TXH +3 00000 0 03706
                   TYPOUT.(REDS, 1)                                                 277  LM00369
 03630 TSX +0 07400 4 00025    03631 TXH +3 00000 0 01466    03632 TXH +3 00000 0 01501
                   TYPOUT.(LINE(STAR-1), EN-STAR+1)                                 278  LM00370
 03633 CLA +0 50000 0 00024    03634 SUB +0 40200 0 00024    03635 ADD +0 40000 0 01501    03636 STO +0 60100 0 03706
 03637 CLA +0 50000 0 00024    03640 SUB +0 40200 0 01501    03641 SUB +0 40200 0 03642    03642 TXH +3 00000 0 01452
 03643 STA +0 62100 0 03645    03644 TSX +0 07400 4 00025    03645 TXH +3 00000 0 00000    03646 TXH +3 00000 0 03706
                   TYPOUT.(BLACKS, 1)                                               279  LM00371
 03647 TSX +0 07400 4 00025    03650 TXH +3 00000 0 00075    03651 TXH +3 00000 0 01501
                   TYPOUT.(LINE(EN), LENGTH-EN)                                     280  LM00372
 03652 CLA +0 50000 0 00700    03653 SUB +0 40200 0 00024    03654 STO +0 60100 0 03706    03655 CLA +0 50000 0 00024
 03656 SUB +0 40200 0 03657    03657 TXH +3 00000 0 01452    03660 STA +0 62100 0 03662    03661 TSX +0 07400 4 00025
 03662 TXH +3 00000 0 00000    03663 TXH +3 00000 0 03706
                   FUNCTION RETURN                                                  281  LM00373
 03664 TRA +0 02000 0 03702
                 END OF FUNCTION                                                    282  LM00374
 03665 TSX +0 07400 4 00012    03666 TXH +3 00000 0 00000    03667 SXD -0 63400 1 03666    03670 SXA +0 63400 4 03702
 03671 CLA +0 50000 4 00001    03672 STA +0 62100 0 03622    03673 STA +0 62100 0 03634    03674 STA +0 62100 0 03637
 03675 CLA +0 50000 4 00002    03676 STA +0 62100 0 03633    03677 STA +0 62100 0 03653    03700 STA +0 62100 0 03655
 03701 TRA +0 02000 2 00001    03702 AXT +0 77400 4 00000    03703 LXA +0 53400 2 03666    03704 LXD -0 53400 1 03666
 03705 TRA +0 02000 4 00001
                 END OF PROGRAM                                                     283  LM00376
 03707 TSX +0 07400 4 00012
1     MAD PROGRAM LISTING ... ... ...                 FILE  TYPVAL   MAD            02/08/68    1747.6
-
                 ..  ROUTINE TO RETURN INITIAL VALUES TO EDITOR FOR                                    LM00001
                 ..  EDITING ASCII FILES.                                                              LM00002
                                                                                                       LM00003
                  EXTERNAL FUNCTION(BLANK, TAB, DEFALT, MCHNG, REDS, BLACKS)                      *001 LM00004
                  NORMAL MODE IS INTEGER                                                          *002 LM00005
                  ENTRY TO GETVAL.                                                                *003 LM00006
                    BLANK  = 060K                                                                 *004 LM00007
                    TAB    = 072K                                                                 *005 LM00008
                    DEFALT = $(MEMO)$                                                             *006 LM00009
                    MCHNG  = 055K                                                                 *007 LM00010
                    REDS   = 133K                                                                 *008 LM00011
                    BLACKS = 132K                                                                 *009 LM00012
                    FUNCTION RETURN                                                               *010 LM00013
                  END OF FUNCTION                                                                 *011 LM00014
1MAD PROGRAM,TYPE NOV 1963      (ALL NUMBERS ARE OCTAL)
0TOTAL LOCATIONS   00061 TRANSFER VECTOR LENGTH  00001 PROGRAM BEGINS    00012
0 PROGRAM IS AN EXTERNAL FUNCTION.   THE FOLLOWING ARE ENTRIES
      GETVAL 00013   0
0FUNCTION DICTIONARY
      EXIT   00000   1
0ABSOLUTE CONSTANTS
 00006 +000000000132     00007 +000000000133     00003 +000000000055     00011 -344425444634     00005 +000000000072
 00004 +000000000060     00002 +000000000001     00010 +233000000000
0PROGRAM
                 EXTERNAL FUNCTION(BLANK, TAB, DEFALT, MCHNG, REDS, BLACKS)         001  LM00004
                 NORMAL MODE IS INTEGER                                             002  LM00005
                 ENTRY TO GETVAL.                                                   003  LM00006
 00012 TRA +0 02000 0 00015    00013 SXA +0 63400 2 00033    00014 TSX +0 07400 2 00033
                   BLANK  = 060K                                                    004  LM00007
 00015 CLA +0 50000 0 00004    00016 STO +0 60100 0 00024
                   TAB    = 072K                                                    005  LM00008
 00017 CLA +0 50000 0 00005    00020 STO +0 60100 0 00024
                   DEFALT = $(MEMO)$                                                006  LM00009
 00021 CLA +0 50000 0 00011    00022 STO +0 60100 0 00024
                   MCHNG  = 055K                                                    007  LM00010
 00023 CLA +0 50000 0 00003    00024 STO +0 60100 0 00024
                   REDS   = 133K                                                    008  LM00011
 00025 CLA +0 50000 0 00007    00026 STO +0 60100 0 00024
                   BLACKS = 132K                                                    009  LM00012
 00027 CLA +0 50000 0 00006    00030 STO +0 60100 0 00024
                   FUNCTION RETURN                                                  010  LM00013
 00031 TRA +0 02000 0 00053
                 END OF FUNCTION                                                    011  LM00014
 00032 TSX +0 07400 4 00000    00033 TXH +3 00000 0 00000    00034 SXD -0 63400 1 00033    00035 SXA +0 63400 4 00053
 00036 CLA +0 50000 4 00001    00037 STA +0 62100 0 00016    00040 CLA +0 50000 4 00002    00041 STA +0 62100 0 00020
 00042 CLA +0 50000 4 00003    00043 STA +0 62100 0 00022    00044 CLA +0 50000 4 00004    00045 STA +0 62100 0 00024
 00046 CLA +0 50000 4 00005    00047 STA +0 62100 0 00026    00050 CLA +0 50000 4 00006    00051 STA +0 62100 0 00030
 00052 TRA +0 02000 2 00001    00053 AXT +0 77400 4 00000    00054 LXA +0 53400 2 00033    00055 LXD -0 53400 1 00033
 00056 TRA +0 02000 4 00001
1            SUBROUTINES TO CONTROL CHARACTER PACKING AND UNPACKING.                             PAGE 1

                              *      INPUT AND OUTPUT IS LINE-MARKED FORMAT.
                              *      J. H. SALTZER, JANUARY, 1965
                              *
                       00010         ENTRY   WRITE         WRITE ONE LINE OUT.
                       00071         ENTRY   READ          TO READ NEXT LINE.
                       00167         ENTRY   BOTTOM        TO RAPIDLY MOVE TO BOTTOM OF FILE.
                       00062         ENTRY   CLOSEW        CLOSE OUT WRITE FILE.
                              *
                                     EXTERN  WRFLX,WRWORD,RDWORD,SETBCD,SETFUL,FILE
                              *

        TRANSFER VECTOR
      00000  665126436760     WRFLX
      00001  665166465124     WRWORD
      00002  512466465124     RDWORD
      00003  622563222324     SETBCD
      00004  622563266443     SETFUL
      00005  263143256060     FILE

            LINKAGE DIRECTOR
      00006  000000000000
      00007  665131632560

                       00014   NBITS EQU     12            COULD BE 6, 9, 12, OR 18.
                       00003   NCHRS EQU     36/NBITS      NO. OF CHARACTERS PER WORD ON 7094.
                              *
                              *      WRITE.(LINE, LENGTH)
                              *
      00010  0634 00 4 00056   WRITE SXA     WX4,4         SAVE LINKAGE AND REGISTERS.
      00011  0634 00 2 00057         SXA     WX2,2         ..
      00012  0634 00 1 00060         SXA     WX1,1         ..
      00013 -0500 00 4 00001         CAL     1,4           GET LINE ADDRESS.
      00014  0621 00 0 00035         STA     INLP          SET UP LOCATION OF INPUT.
      00015  0500 60 4 00002         CLA*    2,4           GET CHARACTER COUNT.
      00016  0100 00 4 00003         TZE     3,4           DON'T WORK ON ZERO COUNT.
      00017  0402 00 0 00200         SUB     =1            DISCARD CARRIAGE RETURN AT END.
      00020  0100 00 4 00003         TZE     3,4           ZERO SIZE LINES NOT ALLOWED, EITHER.
      00021  0767 00 0 00022         ALS     18            SET UP CHARACTER COUNT.
      00022  0622 00 0 00041         STD     ENDTST        NCHARS = CPW*NWORDS + EXTRAS
      00023  0361 00 0 00066         ACL     CPWL1         CWP*NWORDS + EXTRAS + CPW - 1
      00024  0131 00 0 00000         XCA                   (CPW*NWORDS + EXTRAS + CWP - 1)/CPW =
      00025 -0754 00 0 00000         ZAC                        NWORDS + (EXTRAS - 1 + CPW)/CPW
      00026  0221 00 0 00065         DVP     CPW           SECOND TERM IS 1 IF EXTRAS .G. 0,
      00027  0131 00 0 00000         XCA                                  0 IF EXTRAS .E. 0
      00030  0621 00 0 00067         STA     CWD           INSERT IN CONTROL WORD.
      00031  0074 00 4 00001         TSX     WRWORD,4      INSERT THIS WORD IN OUTPUT BUFFER.
 TD   00032  3 00000 0 00067         TXH     CWD           ..
      00033  0774 00 2 00001         AXT     1,2
      00034  0774 00 1 00003   OUTLP AXT     36/NBITS,1    SET CHARACTER COUNTER.
      00035  0560 00 2 00000   INLP  LDQ     --,2
      00036 -0773 00 0 00030         RQL     36-NBITS      SHIFT CHARACTER TO POSITION.
      00037 -0763 00 0 00014         LGL     NBITS         AND INTO WORD.
      00040  1 00001 2 00041         TXI     *+1,2,1       COUNT INPUT CHARACTERS.
      00041  3 00000 2 00052  ENDTST TXH     DONE,2,--     CHECK FOR END OF INPUT.
      00042  2 00001 1 00035         TIX     INLP,1,1
      00043  0602 00 0 00070         SLW     WDOUT         SAVE COMPLETED WORD.
1            SUBROUTINES TO CONTROL CHARACTER PACKING AND UNPACKING.                             PAGE 2

      00044  0074 00 4 00001   OUT   TSX     WRWORD,4      STORE COMPLETED WORD.
 TD   00045  3 00000 0 00070         TXH     WDOUT         ..
      00046  0020 00 0 00034         TRA     OUTLP         GO BACK FOR MORE.
                              *
      00047  0560 00 0 00063   NLLP  LDQ     NULL          FILL IN WORD WITH NULLS.
      00050 -0773 00 0 00030         RQL     36-NBITS      MOVE NULL TO POSITION.
      00051 -0763 00 0 00014         LGL     NBITS         SHIFT IN A NULL.
      00052  2 00001 1 00047   DONE  TIX     NLLP,1,1      COUNT SPACES LEFT.
      00053  0602 00 0 00070         SLW     WDOUT         STORE THIS WORD.
      00054  0074 00 4 00001         TSX     WRWORD,4      ADD TO OUTPUT BUFFER.
 TD   00055  3 00000 0 00070         TXH     WDOUT         ..
      00056  0774 00 4 00000   WX4   AXT     --,4          RESTORE LINKAGE, AND IRS.
      00057  0774 00 2 00000   WX2   AXT     --,2          ..
      00060  0774 00 1 00000   WX1   AXT     --,1
      00061  0020 00 4 00003         TRA     3,4           ..
                              *
      00062  0020 00 0 00005  CLOSEW TRA     FILE          REFLECT CLOSE CALL TO BUFFER.
                              *
                              *
      00063 +000000000057      NULL  OCT     0057          NULL CHARACTER.
      00064 +000000000055     RETURN OCT     0055          CARRIAGE RETURN CHARACTER.
      00065  0 00003 0 00000   CPW           ,,NCHRS       NUMBER OF CHARACTERS PER WORD.
      00066  0 00002 0 00000   CPWL1         ,,NCHRS-1     CHARACTERS PER WORD LESS ONE.
                              *
      00067 -377777000000      CWD   OCT     777777000000
      00070  0 00000 0 00000   WDOUT                       STORAGE FOR WORD BEING OUTPUT.
                              *
                              *      LENGTH = READ.(LINE, BUFSIZ, EOF)
                              *
      00071  0634 00 1 00137   READ  SXA     RX1,1         READ NEXT LINE.
      00072  0634 00 2 00136         SXA     RX2,2
      00073  0634 00 4 00134         SXA     RX4,4
      00074  0634 00 3 00135         SXA     RX3,3
      00075 -0500 00 4 00001         CAL     1,4           GET LOCATION OF BUFFER.
      00076  0621 00 0 00124         STA     RPUT
      00077 -0500 60 4 00002         CAL*    2,4           SET UP END TEST.
      00100  0402 00 0 00200         SUB     =1
      00101  0767 00 0 00022         ALS     18            ..
      00102  0622 00 0 00125         STD     BUFTST        ..
      00103  0074 00 4 00002   RDAGN TSX     RDWORD,4      GET CONTROL WORD.
      00104  0 00000 0 00141                 EOF           IN CASE WE ARE AT END OF FILE.
      00105 -0734 00 1 00000         PDX     0,1           PUT FLAG IN IR1.
      00106  0734 00 3 00000         PAX     0,3           PUT COUNT IN IR3.
      00107 -2 77776 1 00146         TNX     WOOPS,1,-2    CHECK FLAG.
      00110 -3 00000 3 00103         TXL     RDAGN,3,0     IGNORE ZERO-LENGTH LINE.
      00111  0774 00 2 00000   RDON  AXT     0,2           SET OUTPUT COUNTER.
      00112  0074 00 4 00002  ROUTLP TSX     RDWORD,4      READ A WORD.
      00113  0 00000 0 00141                 EOF           ..
      00114  0774 00 1 00003         AXT     36/NBITS,1    SET CHARACTER COUNTER.
      00115  0131 00 0 00000         XCA                   WORD TO MQ.
      00116 -0754 00 0 00000   RINLP ZAC                   CLEAR AC.
      00117 -0763 00 0 00014         LGL     NBITS         GET NEXT CHARACTER.
      00120 -0340 00 0 00063         LAS     NULL          IS THIS A NULL CHARACTER.
      00121  0020 00 0 00123         TRA     *+2           NO.
      00122  0020 00 0 00126         TRA     RCH           YES, SKIP IT.
      00123  1 00001 2 00124         TXI     *+1,2,1       COUNT STORAGE SPACES.
1            SUBROUTINES TO CONTROL CHARACTER PACKING AND UNPACKING.                             PAGE 3

      00124  0602 00 2 00000   RPUT  SLW     --,2          STORE CHARACTER IN LINE.
      00125  3 00000 2 00133  BUFTST TXH     PXA,2,--      TEST FOR FULL BUFFER.
      00126  2 00001 1 00116   RCH   TIX     RINLP,1,1     INDEX, AND COUNT CHARACTERS.
      00127  2 00001 3 00112         TIX     ROUTLP,3,1    INDEX, AND COUNT WORDS.
      00130 -0500 00 0 00064         CAL     RETURN        PUT RETURN AT END OF LINE.
      00131  1 00001 2 00132         TXI     *+1,2,1       INCLUDE IN COUNT.
      00132  0522 00 0 00124         XEC     RPUT          INSTALL IT.
      00133  0754 00 2 00000   PXA   PXA     0,2           GET WORD COUNT.
      00134  0774 00 4 00000   RX4   AXT     --,4
      00135  0774 00 3 00000   RX3   AXT     --,3
      00136  0774 00 2 00000   RX2   AXT     --,2
      00137  0774 00 1 00000   RX1   AXT     --,1
      00140  0020 00 4 00004         TRA     4,4
                              *
      00141  0534 00 4 00134   EOF   LXA     RX4,4         END OF FILE REACHED, TAKE ERROR
      00142  0534 00 3 00135         LXA     RX3,3         RETURN.
      00143  0534 00 2 00136         LXA     RX2,2
      00144  0534 00 1 00137         LXA     RX1,1
      00145  0020 60 4 00003         TRA*    3,4
                              *
                              *
      00146  0074 00 4 00003   WOOPS TSX     SETBCD,4      FILE IS NOT LINE-MARKED PROPERLY, COMPLAIN.
      00147  0074 00 4 00000         TSX     WRFLX,4
      00150  0 00006 0 00161                 MESS1,,6
      00151  0074 00 4 00004         TSX     SETFUL,4      RESTORE INDICATOR.
      00152  0074 00 4 00002   LP    TSX     RDWORD,4      SEARCH FOR NEXT LINE MARK.
      00153  0 00000 0 00141                 EOF
      00154 -0734 00 1 00000         PDX     0,1           CHECK FOR LINE MARK IN THIS WORD.
      00155 -2 77776 1 00152         TNX     LP,1,-2       ..
      00156  0734 00 3 00000         PAX     0,3           LINE MARK OK, CHECK COUNT.
      00157 -3 00000 1 00152         TXL     LP,1,0        ..
      00160  0020 00 0 00111         TRA     RDON          COUNT NON-ZERO, READ ON.
                              *
      00161  314547646360      MESS1 BCI     6,INPUT FILE HAS IMPROPER FORMAT.
      00162  263143256030
      00163  216260314447
      00164  514647255160
      00165  264651442163
      00166  336060606060
                              *
                              *      ROUTINE TO SWING TO BOTTOM OF FILE.
                              *
      00167  0634 00 4 00176  BOTTOM SXA     EOFB,4        SAVE LINKAGE.
      00170  0074 00 4 00002   LOOP  TSX     RDWORD,4      GET NEXT INPUT WORD.
      00171  0 00000 0 00176                 EOFB          EXIT ON END OF FILE.
      00172  0601 00 0 00070         STO     WDOUT         SAVE THIS WORD.
      00173  0074 00 4 00001         TSX     WRWORD,4      WRITE OUT THIS WORD.
 TD   00174  3 00000 0 00070         TXH     WDOUT         ..
      00175  0020 00 0 00170         TRA     LOOP          REPEAT.
                              *
      00176  0774 00 4 00000  EOFB   AXT     --,4          RESTORE LINKAGE.
      00177  0020 00 4 00001         TRA     1,4           RETURN.
                              *
                                     END
1            SUBROUTINES TO CONTROL CHARACTER PACKING AND UNPACKING.                             PAGE 4

        LITERALS
      00200  000000000001
1            SUBROUTINES TO CONTROL CHARACTER PACKING AND UNPACKING.                             PAGE 1
                        POST PROCESSOR ASSEMBLY DATA

        201 IS THE FIRST LOCATION NOT USED BY THIS PROGRAM

0REFERENCES TO DEFINED SYMBOLS
        152     LP   155,  157
         65    CPW    26
         67    CWD    30,   32
        141    EOF   104,  113,  153
         44    OUT
        133    PXA   125
        126    RCH   122
        137    RX1    71,  144
        136    RX2    72,  143
        135    RX3    74,  142
        134    RX4    73,  141
         60    WX1    12
         57    WX2    11
         56    WX4    10
         52   DONE    41
        176   EOFB   167,  171
          5   FILE    62
         35   INLP    14,   42
        170   LOOP   175
         47   NLLP    52
         63   NULL    47,  120
        111   RDON   160
         71   READ     0
        124   RPUT    76,  132
         66  CPWL1    23
        161  MESS1   150
         14  NBITS    10,   34,   36,   37,   50,   51,  114,  117
          3  NCHRS    10,   65,   66
         34  OUTLP    46
        103  RDAGN   110
        116  RINLP   126
         70  WDOUT    43,   45,   53,   55,  172,  174
        146  WOOPS   107
          0  WRFLX   147
         10  WRITE     0
        167 BOTTOM     0
        125 BUFTST   102
         62 CLOSEW     0
         41 ENDTST    22
          2 RDWORD   103,  112,  152,  170
         64 RETURN   130
        112 ROUTLP   127
          3 SETBCD   146
          4 SETFUL   151
          1 WRWORD    31,   44,   54,  173

0 NO ERROR IN ABOVE ASSEMBLY.
1            BUFFER CONTROL ROUTINE FOR DISK INPUT AND OUTPUT.                                   PAGE 1

                              *      NOTE, INDEX REGISTERS SIX AND SEVEN MUST BE PRESERVED
                              *      BY THE CALLING PROGRAM.
                              *      THIS ROUTINE MAKES TYPEWRITER COMMENTS, BUT DOES NOT
                              *      AFFECT THE BCD-FULL MODE SWITCH.
                              *
                              *           J. H. SALTZER, JANUARY, 1965.
                              *
                       00015         ENTRY   ASSIGN        TO ASSIGN A NAME TO THE WRITE FILE.
                       00057         ENTRY   WRWORD        TO ADD A WORD TO THE FILE.
                       00100         ENTRY   FILE          TO CLOSE THE FILE.
                              *
                       00160         ENTRY   SEEK          TO OPEN A FILE FOR READING.
                       00242         ENTRY   RDWORD        TO GET A WORD FROM FILE.
                       00275         ENTRY   ENDRD         TO CLOSE THE FILE.
                              *
                                     EXTERN  GETBUF,SETBCD,SETFUL,WRFLX,WRFLXA
                                     EXTERN  OPEN,WRWAIT,RDWAIT,CLOSE,FSTATE,BUFFER
                              *
                              *      ASSIGN.($NAME1$,$NAME2$)
                              *

        TRANSFER VECTOR
      00000  272563226426     GETBUF
      00001  622563222324     SETBCD
      00002  622563266443     SETFUL
      00003  665126436760     WRFLX
      00004  665126436721     WRFLXA
      00005  464725456060     OPEN
      00006  665166213163     WRWAIT
      00007  512466213163     RDWAIT
      00010  234346622560     CLOSE
      00011  266263216325     FSTATE
      00012  226426262551     BUFFER

            LINKAGE DIRECTOR
      00013  000000000000
      00014  216262312745

      00015 -0500 60 4 00001  ASSIGN CAL*    1,4           OPEN FILE, GET FILE NAME.
      00016  0602 00 0 00304         SLW     OUTNAM        ..
      00017 -0500 60 4 00002         CAL*    2,4           ..
      00020  0602 00 0 00305         SLW     OUTNAM+1      ..
      00021  0634 00 4 00041         SXA     OPX4,4        SAVE LINKAGE.
      00022  0020 00 0 00023   OSW   TRA     *+1           ENTER ONE-TIME SECTION TO GET BUFFERS.
                              *                                                    *******************
      00023 -0500 00 0 00315         CAL     WBFSZ         GET AN OUTPUT BUFFER FROM SUPERVISOR.
      00024  0074 00 4 00000         TSX     GETBUF,4      ..
      00025  0621 00 0 00071         STA     WCALL         SAVE LOCATION OF BUFFER.
      00026  0621 00 0 00113         STA     CLCALL        TO CLOSE OUT FILE.
      00027  0361 00 0 00315         ACL     WBFSZ         ADD LENGTH, TO FORM END ADDRESS.
      00030  0621 00 0 00060         STA     WRNM          INSERT IN INSERTER.
      00031 -0500 00 0 00313         CAL     TRKSZ         GET A DISK TRACK BUFFER.
      00032  0074 00 4 00000         TSX     GETBUF,4      ..
      00033  0621 00 0 00055         STA     BFCALL        SET UP BUFFER CALLER.
      00034 -0625 00 0 00022         STL     OSW           RESET ONE-TIME SWITCH.
                              *                                                    *******************
1            BUFFER CONTROL ROUTINE FOR DISK INPUT AND OUTPUT.                                   PAGE 2

      00035  0774 00 4 00040         AXT     OPOK,4        SET QUOTA EXHAUSTED ERROR RETURN.
      00036  0634 00 4 00143         SXA     WRTN,4        ..
      00037  0074 00 3 00043         TSX     OPN,3         OPEN THE FILE.
      00040  0774 00 7 00330  OPOK   AXT     WBFLTH,7      SET UP STORAGE COUNT.
      00041  0774 00 4 00000   OPX4  AXT     --,4          RESTORE LINKAGE.
      00042  0020 00 4 00003         TRA     3,4           RETURN.
                              *
      00043  0074 00 4 00005  OPN    TSX     OPEN,4        OPEN FILE.
 TD   00044  3 00000 0 00324         TXH     =HW           FOR WRITING.
 TD   00045  3 00000 0 00304         TXH     OUTNAM        ..
 TD   00046  3 00000 0 00305         TXH     OUTNAM+1      ..
 TD   00047  3 00000 0 00156         TXH     MODE          MAKE IT PERMANENT IF POSSIBLE.
 TD   00050  3 00000 0 00320         TXH     =2            PUT IT ON THE DISK.
 TD   00051  3 00000 0 00127  OPERR  TXH     OEXH          IN CASE NO MORE QUOTA AVAILABLE.
      00052  0074 00 4 00012         TSX     BUFFER,4      ASSIGN A BUFFER FOR THE FILE.
 TD   00053  3 00000 0 00304         TXH     OUTNAM        ..
 TD   00054  3 00000 0 00305         TXH     OUTNAM+1      ..
      00055  3 00660 0 00000  BFCALL TXH     --,,TRKLTH    ..
      00056  0020 00 3 00001         TRA     1,3           RETURN TO CALLER.
                              *
                              *
                              *      ENTRY TO ADD A WORD TO FILE.
                              *              WRWORD.(WORD)
                              *
      00057 -0500 60 4 00001  WRWORD CAL*    1,4           GET WORD TO BE ADDED.
      00060  0602 00 7 00000   WRNM  SLW     --,7          ADD WORD TO OUTPUT BUFFER.
      00061  2 00001 7 00077         TIX     RETURN,7,1    COUNT AND CHECK FOR FULL BUFFER.
      00062  0634 00 4 00076   FULL  SXA     FULX4,4       BUFFER FULL, WRITE IT OUT.
      00063  0774 00 4 00065         AXT     WRAGN,4       SET UP EXHAUSTED RETURN ADDRESS.
      00064  0634 00 4 00143         SXA     WRTN,4        ..
      00065  0074 00 4 00006  WRAGN  TSX     WRWAIT,4      GIVE BUFFER TO SUPERVISOR.
 TD   00066  3 00000 0 00304         TXH     OUTNAM        ..
 TD   00067  3 00000 0 00305         TXH     OUTNAM+1      ..
 TD   00070  3 00000 0 00316         TXH     =0            ..
      00071  3 00330 0 00000  WCALL  TXH     --,,WBFLTH    ..
 TD   00072  3 00000 0 00321         TXH     =-0           IGNORE POSSIBLE EOF.
 TD   00073  3 00000 0 00321         TXH     =-0           ..
 TD   00074  3 00000 0 00124  WRERR  TXH     WEXH          ALLOW ERROR RETURN.
      00075  0774 00 7 00330         AXT     WBFLTH,7      RESET BUFFER POINTER.
      00076  0774 00 4 00000   FULX4 AXT     --,4          RESTORE LINKAGE.
      00077  0020 00 4 00002  RETURN TRA     2,4           RETURN TO CALLER.
                              *
                              *      FILE.     NO ARGUMENTS.
                              *
      00100  0634 00 4 00122  FILE   SXA     CL4,4         ENTRY TO CLOSE OUT FILE.
      00101 -0634 00 7 00103         SXD     *+2,7         FORM COUNT OF WORDS SINCE
      00102  0774 00 7 00330         AXT     WBFLTH,7      LAST BUFFER WAS WRITTEN.
      00103 -2 00000 7 00117         TNX     NOWR,7,--     IF ZERO, SKIP FINAL WRITE CALL.
      00104 -0634 00 7 00113         SXD     CLCALL,7      NON-ZERO, SET UP WRITE CALL.
      00105  0774 00 4 00107         AXT     FWR,4         SET UP RETURN ADDRESS FOR EXHAUSTED CASE.
      00106  0634 00 4 00143         SXA     WRTN,4        ..
      00107  0074 00 4 00006  FWR    TSX     WRWAIT,4      WRITE OUT PARTIAL BUFFER.
 TD   00110  3 00000 0 00304         TXH     OUTNAM        ..
 TD   00111  3 00000 0 00305         TXH     OUTNAM+1      ..
 TD   00112  3 00000 0 00316         TXH     =0            ..
      00113  3 00000 0 00000  CLCALL TXH     --,,--        ..
1            BUFFER CONTROL ROUTINE FOR DISK INPUT AND OUTPUT.                                   PAGE 3

 TD   00114  3 00000 0 00321         TXH     =-0           IGNORE EOF RETURN.
 TD   00115  3 00000 0 00321         TXH     =-0           ..
 TD   00116  3 00000 0 00124         TXH     WEXH          ALLOW ERROR RETURN.
      00117  0074 00 4 00010  NOWR   TSX     CLOSE,4       CLOSE OUT THE FILE.
 TD   00120  3 00000 0 00304         TXH     OUTNAM        ..
 TD   00121  3 00000 0 00305         TXH     OUTNAM+1      ..
      00122  0774 00 4 00000   CL4   AXT     --,4          RESTORE LINKAGE.
      00123  0020 00 4 00001         TRA     1,4           ..
                              *
      00124  0074 00 4 00010  WEXH   TSX     CLOSE,4       TRACK QUOTA EXHAUSTED, CLOSE FILE.
 TD   00125  3 00000 0 00304         TXH     OUTNAM        ..
 TD   00126  3 00000 0 00305         TXH     OUTNAM+1      ..
      00127  0074 00 4 00001  OEXH   TSX     SETBCD,4      ENTRY FROM OPEN ERROR, COMMENT.
      00130  0601 00 0 00157         STO     MODSW         SAVE OLD CHARACTER MODE SETTING.
      00131  0074 00 4 00003         TSX     WRFLX,4       ..
      00132  0 00011 0 00144                 ERMESS,,9
      00133  0520 00 0 00157         ZET     MODSW         SHOULD 12-BIT INDICATOR BE RESET.
      00134  0074 00 4 00002         TSX     SETFUL,4      YES, RESET INDICATOR.
      00135 -0500 00 0 00317         CAL     =1            SWITCH TO TEMPORARY MODE.
      00136  0601 00 0 00156         STO     MODE          ..
      00137 -0500 00 0 00155         CAL     NOP           BLOCK FUTURE ERROR RETURN.
      00140  0602 00 0 00051         SLW     OPERR         ..
      00141  0602 00 0 00074         SLW     WRERR
      00142  0074 00 3 00043         TSX     OPN,3         NOW, OPEN IT AGAIN.
      00143  0020 00 0 00000  WRTN   TRA     --            ALL FIXED, RETURN TO MAIN STREAM.
                              *
      00144  635121234260     ERMESS BCI     9,TRACK QUOTA EXHAUSTED, TEMPORARY MODE WILL BE USED.
      00145  506446632160
      00146  256730216462
      00147  632524736063
      00150  254447465121
      00151  517060444624
      00152  256066314343
      00153  602225606462
      00154  252433606060
      00155  0761 00 0 00000   NOP   NOP                   INSTRUCTION TO BLOCK ERROR RETURN.
      00156  0 00000 0 00000  MODE           0             START IN PERMANENT MODE.
      00157  0 00000 0 00000  MODSW                        TEMP STORAGE FOR 6-BIT,12-BIT INDICATOR.
                              *
                              * * * * * * * * * * * * * * * * * * * * * * * * * * * * * * * * * *
                              *      SEEK.($NAME1$, $NAME2$, ERRET)
                              *      ERROR RETURN MEANS FILE NOT FOUND.
                              *
      00160 -0500 60 4 00001   SEEK  CAL*    1,4           GET FILE NAME.
      00161  0602 00 0 00306         SLW     INNAM         ..
      00162 -0500 60 4 00002         CAL*    2,4           ..
      00163  0602 00 0 00307         SLW     INNAM+1       ..
      00164  0634 00 4 00222         SXA     SKX4,4        SAVE LINKAGE.
      00165  0020 00 0 00166   SKSW  TRA     *+1           ENTER ONE-TIME SECTION TO GET BUFFERS.
                              *                                                  *********************
      00166 -0500 00 0 00314         CAL     RBFSZ         GET A BUFFER FROM SUPERVISOR.
      00167  0074 00 4 00000         TSX     GETBUF,4      ..
      00170  0621 00 0 00257         STA     ECALL         STORE BUFFER LOCATION.
      00171  0621 00 0 00217         STA     STCALL        ..
      00172 -0625 00 0 00165         STL     SKSW          RESET ONE-TIME SWITCH.
                              *                                                  *********************
1            BUFFER CONTROL ROUTINE FOR DISK INPUT AND OUTPUT.                                   PAGE 4

      00173 -0500 00 0 00217         CAL     STCALL        SET UP PICKUP INSTRUCTION FOR INDEXING.
      00174  0361 00 0 00314         ACL     RBFSZ         ..
      00175  0621 00 0 00242         STA     RDWORD        ..
      00176  0074 00 4 00011         TSX     FSTATE,4      MAKE SURE FILE IS THERE.
 TD   00177  3 00000 0 00306         TXH     INNAM         ..
 TD   00200  3 00000 0 00307         TXH     INNAM+1       ..
 TD   00201  3 00000 0 00321         TXH     =-0           DON'T WANT DATA.
 TD   00202  3 00000 0 00224         TXH     NOTFN         ERROR RETURN MEANS FILE NOT THERE.
      00203  0074 00 4 00005         TSX     OPEN,4        OPEN THE FILE FOR READING.
 TD   00204  3 00000 0 00322         TXH     =HR           ..
 TD   00205  3 00000 0 00306         TXH     INNAM         ..
 TD   00206  3 00000 0 00307         TXH     INNAM+1       ..
      00207  0774 00 6 00660         AXT     RBFLTH,6      SET UP BUFFER COUNTER.
      00210  0774 00 4 00222         AXT     SKX4,4        SET END OF FILE RETURN.
      00211  0634 00 4 00274         SXA     EOFRTN,4      ..
      00212  0600 00 0 00312         STZ     EOFR          CLEAR END OF FILE SWITCH.
      00213  0074 00 4 00007         TSX     RDWAIT,4      GET INITIAL BUFFER LOAD.
 TD   00214  3 00000 0 00306         TXH     INNAM         ..
 TD   00215  3 00000 0 00307         TXH     INNAM+1       ..
 TD   00216  3 00000 0 00316         TXH     =0            ..
      00217  3 00660 0 00000  STCALL TXH     --,,RBFLTH    ..
 TD   00220  3 00000 0 00265         TXH     EOF           END OF FILE RETURN.
 TD   00221  3 00000 0 00311         TXH     EOFCT         ..
      00222  0774 00 4 00000   SKX4  AXT     --,4          RESTORE LINKAGE.
      00223  0020 00 4 00004         TRA     4,4           RETURN TO CALLER.
                              *
      00224  0074 00 4 00001  NOTFN  TSX     SETBCD,4      FILE NOT FOUND, COMMENT.
      00225  0601 00 0 00157         STO     MODSW         SAVE OLD CHARACTER MODE SETTING.
      00226  0074 00 4 00004         TSX     WRFLXA,4      START UP COMMENT.
      00227  0 00001 0 00323                 =H FILE ,,1   ..
      00230  0074 00 4 00004         TSX     WRFLXA,4      INSERT FILE NAME.
      00231  0 00002 0 00306                 INNAM,,2      ..
      00232  0074 00 4 00003         TSX     WRFLX,4       END OF COMMENT.
      00233  0 00002 0 00240                 ECM,,2        ..
      00234  0520 00 0 00157         ZET     MODSW         SHOULD 12-BIT INDICATOR BE RESET.
      00235  0074 00 4 00002         TSX     SETFUL,4      YES, RESET MODE.
      00236  0534 00 4 00222         LXA     SKX4,4        GIVE ERROR RETURN.
      00237  0020 60 4 00003         TRA*    3,4           ..
                              *
      00240  604546636026     ECM    BCI     2, NOT FOUND.
      00241  466445243360
                              *
                              *      ENTRY TO OBTAIN WORD FROM FILE.
                              *              WORD = RDWORD.(EOF)
                              *
      00242  0500 00 6 00000  RDWORD CLA     --,6          GET WORD FROM INPUT BUFFER.
      00243  2 00001 6 00264         TIX     GOBACK,6,1    INDEX, AND CHECK FOR EMPTY BUFFER.
      00244  0520 00 0 00312         ZET     EOFR          BUFFER EMPTY, HAS END OF FILE OCCURRED.
      00245  0020 60 4 00001         TRA*    1,4           YES, GIVE EOF RETURN.
      00246  0601 00 0 00310         STO     RTEMP         NO, SAVE WORD AND GET SOME MORE DATA.
      00247  0634 00 4 00263         SXA     EMPX4,4       SAVE LINKAGE, ALSO.
      00250  0774 00 6 00660         AXT     RBFLTH,6      RESET BUFFER POINTER.
      00251  0774 00 4 00262         AXT     EMPGT,4       SET END OF FILE RETURN.
      00252  0634 00 4 00274         SXA     EOFRTN,4      ..
      00253  0074 00 4 00007         TSX     RDWAIT,4      GET ANOTHER BUFFER LOAD OF DATA.
 TD   00254  3 00000 0 00306         TXH     INNAM         ..
1            BUFFER CONTROL ROUTINE FOR DISK INPUT AND OUTPUT.                                   PAGE 5

 TD   00255  3 00000 0 00307         TXH     INNAM+1       ..
 TD   00256  3 00000 0 00316         TXH     =0            ..
      00257  3 00660 0 00000  ECALL  TXH     --,,RBFLTH    ..
 TD   00260  3 00000 0 00265         TXH     EOF           ..
 TD   00261  3 00000 0 00311         TXH     EOFCT         ..
      00262  0500 00 0 00310   EMPGT CLA     RTEMP         RESTORE WORD FOR THIS CALL.
      00263  0774 00 4 00000   EMPX4 AXT     --,4          RESTORE LINKAGE.
      00264  0020 00 4 00002  GOBACK TRA     2,4           RETURN TO CALLER.
                              *
      00265 -0625 00 0 00312  EOF    STL     EOFR          END OF FILE REACHED, SET SWITCH.
      00266 -0500 00 0 00311         CAL     EOFCT         GET COUNT OF WORDS LEFT.
      00267  0361 00 0 00317         ACL     =1            BUGGER WORD COUNT.
      00270  0734 00 6 00000         PAX     0,6           SET WORD COUNTER.
      00271  0361 00 0 00257         ACL     ECALL         ADJUST PICKUP INSTRUCTION.
      00272  0621 00 0 00242         STA     RDWORD        ..
      00273  0074 00 4 00275         TSX     ENDRD,4       TURN OFF FILE.
      00274  0020 00 0 00000  EOFRTN TRA     --            RETURN TO END OF RDFILE CALLING SEQUENCE.
                              *
                              *      ENTRY TO CLOSE INPUT FILE.
                              *      ENDRD.
                              *
      00275  0634 00 4 00302  ENDRD  SXA     ENDX4,4       SAVE LINKAGE.
      00276  0074 00 4 00010         TSX     CLOSE,4       CLOSE FILE.
 TD   00277  3 00000 0 00306         TXH     INNAM         ..
 TD   00300  3 00000 0 00307         TXH     INNAM+1       ..
 TD   00301  3 00000 0 00302         TXH     *+1           IGNORE ANY ERROR RETURN.
      00302  0774 00 4 00000  ENDX4  AXT     --,4          RESTORE LINKAGE.
      00303  0020 00 4 00001         TRA     1,4           ..
                              *
      00304  545454545454     OUTNAM BCI     2,************  NAME OF OUTPUT FILE.
      00305  545454545454
      00306  545454545454      INNAM BCI     2,************  NAME OF INPUT FILE.
      00307  545454545454
      00310  0 00000 0 00000   RTEMP                       STORAGE FOR WORD.
      00311  0 00000 0 00000  EOFCT                        STORAGE FOR END OF FILE COUNTER.
      00312  0 00000 0 00312   EOFR          *             SWITCH FOR END OF FILE MET.
                              *
                       00660  TRKLTH EQU     432           DISK TRACK LENGTH.
      00313  0 00000 0 00660   TRKSZ         TRKLTH        WORD CONTAINING TRACK LENGTH.
                       00660  RBFLTH EQU     TRKLTH        READ BUFFER LENGTH.
                       00330  WBFLTH EQU     TRKLTH/2      WRITE BUFFER LENGTH.
      00314  0 00000 0 00660  RBFSZ          RBFLTH        WORD CONTAINING READ BUFFER SIZE.
      00315  0 00000 0 00330  WBFSZ          WBFLTH        WORD CONTAINING WRITE BUFFER SIZE.
                              *
                                     END

        LITERALS
      00316  000000000000
      00317  000000000001
      00320  000000000002
      00321  400000000000
      00322  516060606060
      00323  602631432560
      00324  666060606060
1            BUFFER CONTROL ROUTINE FOR DISK INPUT AND OUTPUT.                                   PAGE 1
                        POST PROCESSOR ASSEMBLY DATA

        325 IS THE FIRST LOCATION NOT USED BY THIS PROGRAM

0REFERENCES TO DEFINED SYMBOLS
        122    CL4   100
        240    ECM   233
        265    EOF   220,  260
        107    FWR   105
        155    NOP   137
         43    OPN    37,  142
         22    OSW    34
        312   EOFR   212,  244,  265
        100   FILE     0
         62   FULL
        156   MODE    47,  136
        117   NOWR   103
        127   OEXH    51
          5   OPEN    43,  203
         40   OPOK    35
         41   OPX4    21
        160   SEEK     0
        165   SKSW   172
        222   SKX4   164,  210,  236
        124   WEXH    74,  116
         60   WRNM    30
        143   WRTN    36,   64,  106
         10  CLOSE   117,  124,  276
        257  ECALL   170,  271
        262  EMPGT   251
        263  EMPX4   247
        275  ENDRD     0,  273
        302  ENDX4   275
        311  EOFCT   221,  261,  266
         76  FULX4    62
        306  INNAM   161,  163,  177,  200,  205,  206,  214,  215,  231,  254,  255,  277,  300
        157  MODSW   130,  133,  225,  234
        224  NOTFN   202
         51  OPERR   140
        314  RBFSZ   166,  174
        310  RTEMP   246,  262
        313  TRKSZ    31
        315  WBFSZ    23,   27
         71  WCALL    25
         65  WRAGN    63
         74  WRERR   141
          3  WRFLX   131,  232
         15 ASSIGN     0
         55 BFCALL    33
         12 BUFFER    52
        113 CLCALL    26,  104
        274 EOFRTN   211,  252
        144 ERMESS   132
         11 FSTATE   176
          0 GETBUF    24,   32,  167
        264 GOBACK   243
1            BUFFER CONTROL ROUTINE FOR DISK INPUT AND OUTPUT.                                   PAGE 2
                        POST PROCESSOR ASSEMBLY DATA

        304 OUTNAM    16,   20,   45,   46,   53,   54,   66,   67,  110,  111,  120,  121,  125,  126
        660 RBFLTH   207,  217,  250,  257,  314
          7 RDWAIT   213,  253
        242 RDWORD     0,  175,  272
         77 RETURN    61
          1 SETBCD   127,  224
          2 SETFUL   134,  235
        217 STCALL   171,  173
        660 TRKLTH    55,  313,  314
        330 WBFLTH    40,   71,   75,  102,  314,  315
          4 WRFLXA   226,  230
          6 WRWAIT    65,  107
         57 WRWORD     0

0 NO ERROR IN ABOVE ASSEMBLY.
