1     MAD PROGRAM LISTING ... ... ...                 FILE  RUNOFF   MAD            02/08/68    1243.3
-
                  EXTERNAL FUNCTION                                                               *001 LM00001
                                                                                                       LM00002
                 ..  RUN OFF AND RIGHT JUSTIFY MEMORANDUM FILE.                                        LM00003
                                                                                                       LM00004
                 ..  J. H. SALTZER, NOVEMBER, 1964.                                                    LM00005
                                                                                                       LM00006
                 ..  DECLARATIONS.                                                                     LM00007
                                                                                                       LM00008
                  INSERT FILE RCOM                                                                *002 LM00009
                                                                                                  *002 LM00001
                 ..  RUNOFF COMMON PACKAGE.                                                       *002 LM00002
                                                                                                  *002 LM00003
                  NORMAL MODE IS INTEGER                                                          *003 LM00004
                                                                                                       LM00005
                  PROGRAM COMMON NOSTOP, NOWAIT, FSTPAG, PRINAM, OUTFIL                           *004 LM00006
                  PROGRAM COMMON HDLTH, HEAD(360), HDPOS                                          *005 LM00007
                  PROGRAM COMMON LINE(360)                                                        *006 LM00008
                  PROGRAM COMMON PGE, PAGENO, PGPOS, FTSW, PGMOD                                  *007 LM00009
                  PROGRAM COMMON PREFIX(25), PRLTH                                                *008 LM00010
                  PROGRAM COMMON RMARG                                                            *009 LM00011
                  PROGRAM COMMON WRD, SIZE, COUNT, WORD(360)                                      *010 LM00012
                  PROGRAM COMMON BEGIN, FILL, ADJST, NCHARS, LENGTH                               *011 LM00013
                  PROGRAM COMMON LMARG, LINECT, BOTLIN, CNTR, FILSW                               *012 LM00014
                  PROGRAM COMMON FLAGSW, DBLSPC, HEDPGE, PIX                                      *013 LM00015
                  PROGRAM COMMON MROW, TBTLIN, TBTPAG                                             *014 LM00016
                  PROGRAM COMMON TPGPOS, TFTSW, TPGE, TPRF(25)                                    *015 LM00017
                  PROGRAM COMMON TPRLTH, THDPOS, TPAGNO, TPGMOD                                   *016 LM00018
                  PROGRAM COMMON BOTPAG, FLAG(3)                                                  *017 LM00019
                  PROGRAM COMMON BLANK, BCKSPC, RETURN(3)                                         *018 LM00020
                  PROGRAM COMMON TAB, PERIOD, QUES, EXCLAM                                        *019 LM00021
                  PROGRAM COMMON COLON, HYPHEN, NULL                                              *020 LM00022
                                                                                                       LM00023
                  BOOLEAN NOSTOP, NOWAIT, FTSW, PGE, OUTFIL                                       *021 LM00024
                  BOOLEAN ADJST                                                                   *022 LM00025
                  BOOLEAN WRD, FILL, BEGIN, CNTR, FILSW, FLAGSW                                   *023 LM00026
                  BOOLEAN DBLSPC, HEDPGE, PIX, TPGE, TFTSW                                        *024 LM00027
                                                                                                       LM00028
                 ..  END OF RUNOFF COMMON PACKAGE                                                      LM00029
                                                                                                       LM00030
                  BOOLEAN NLINE                                                                   *025 LM00010
                  NORMAL MODE IS INTEGER                                                          *026 LM00011
                                                                                                       LM00012
                 ..  CHARACTERS RECOGNIZED BY RUNOFF.                                                  LM00013
                                                                                                       LM00014
                  VECTOR VALUES PERIOD = 0033K                                                    *027 LM00015
                  VECTOR VALUES QUES = 0156K                                                      *028 LM00016
                  VECTOR VALUES EXCLAM = 0153K                                                    *029 LM00017
                  VECTOR VALUES BLANK = 0060K                                                     *030 LM00018
                  VECTOR VALUES HYPHEN = 0040K                                                    *031 LM00019
                  VECTOR VALUES COLON = 0035K                                                     *032 LM00020
                  VECTOR VALUES TAB = 0072K                                                       *033 LM00021
                  VECTOR VALUES NULL = 0057K                                                      *034 LM00022
                  VECTOR VALUES BCKSPC = 0135K                                                    *035 LM00023
                  VECTOR VALUES RETURN = 0055K, 0055K, 0055K                                      *036 LM00024
                                                                                                       LM00025
                 ..  DEFAULT PARAMETER VALUES.                                                         LM00026
                                                                                                       LM00027
                  VECTOR VALUES TPRF(1) = $00000P00000A00000G00000E00000 $                        *037 LM00028
                  VECTOR VALUES HDLTH = 0                                                         *038 LM00029
                  VECTOR VALUES THDPOS = $PPOSED$                                                 *039 LM00030
                  VECTOR VALUES TPGPOS = $MARGIN$                                                 *040 LM00031
                  VECTOR VALUES TFTSW = 0B                                                        *041 LM00032
                  VECTOR VALUES TPRLTH = 5                                                        *042 LM00033
                  VECTOR VALUES TPGE = 0B                                                         *043 LM00034
                  VECTOR VALUES TPAGNO = 2                                                        *044 LM00035
                  VECTOR VALUES TPGMOD = $ARABIC$                                                 *045 LM00036
                  VECTOR VALUES FLAG(1) = $00000 00000 00000*$                                    *046 LM00037
                  VECTOR VALUES RMARG = 60                                                        *047 LM00038
                  VECTOR VALUES LMARG = 0                                                         *048 LM00039
                  VECTOR VALUES TBTLIN = 60                                                       *049 LM00040
                  VECTOR VALUES TBTPAG = 66                                                       *050 LM00041
                  VECTOR VALUES ADJST = 1B                                                        *051 LM00042
                  VECTOR VALUES FILL = 1B                                                         *052 LM00043
                                                                                                       LM00044
                 ..  INITIAL VALUES OF INTERNAL VARIABLES.                                             LM00045
                                                                                                       LM00046
                  VECTOR VALUES PIX = 0B                                                          *053 LM00047
                  VECTOR VALUES FLAGSW = 0B                                                       *054 LM00048
                  VECTOR VALUES LIT = 0B                                                          *055 LM00049
                                                                                                       LM00050
                  ENTRY TO RUNOFF.                                                                *056 LM00051
                                                                                                       LM00052
                  SETUP.                                                                          *057 LM00053
                  SEEK.(PRINAM, $(MEMO)$ , EOF)                                                   *058 LM00054
                  WHENEVER .NOT.NOWAIT                                                            *059 LM00055
                  PRINT COMMENT $0L1O1A1D0 1P1A1P1E1R0,0 1H1I1T0 1R1E1T1U1R1N$                    *060 LM00056
                  WAIT.                                                                           *061 LM00057
                  END OF CONDITIONAL                                                              *062 LM00058
                                                                                                       LM00059
                 .. GET NEXT CHARACTER, BUILD UP WORD                                                  LM00060
                                                                                                       LM00061
      GTNXT       CHAR = NXCHAR.(NLINE, EOF)                                                      *063 LM00062
                                                                                                       LM00063
                  WHENEVER NLINE                                                                  *064 LM00064
                                                                                                       LM00065
                 .. DISCOVER NATURE OF NEXT INPUT LINE.                                                LM00066
                                                                                                       LM00067
      RENEW         WHENEVER LIT                                                                  *065 LM00068
                      LIT = 0B                                                                    *066 LM00069
                    OR WHENEVER CHAR .E. PERIOD                                                   *067 LM00070
                      TRANSFER TO CONTRL                                                          *068 LM00071
                    END OF CONDITIONAL                                                            *069 LM00072
                    SETCHR.(RETURN)                                                               *070 LM00073
                  END OF CONDITIONAL                                                              *071 LM00074
                                                                                                       LM00075
      PROCED      SETCHR.(CHAR)                                                                   *072 LM00076
                  TRANSFER TO GTNXT                                                               *073 LM00077
                                                                                                       LM00078
                 .. CONTROL WORD SECTION.                                                              LM00079
                                                                                                       LM00080
       CONTRL     CWD = GET.(0)                                                                   *074 LM00081
                                                                                                       LM00082
                  WHENEVER CWD .E. $   END$                                                       *075 LM00083
       EOF          SETWRD.                                                                       *076 LM00084
                    SETLIN.                                                                       *077 LM00085
                    SETPAG.                                                                       *078 LM00086
                    SETDWN.                                                                       *079 LM00087
                    CHNCOM.(0)                                                                    *080 LM00088
                                                                                                       LM00089
                  OR WHENEVER CWD .E. $   CWD$                                                    *081 LM00090
                    TRANSFER TO CONTRL                                                            *082 LM00091
                                                                                                       LM00092
                  OR WHENEVER CWD .E. $APPEND$ .OR. CWD .E. $    AP$                              *083 LM00093
                    ENDRD.(PRINAM, $(MEMO)$)                                                      *084 LM00094
                    PRINAM = GET.(0)                                                              *085 LM00095
                    SEEK.(PRINAM, $(MEMO)$, EOF)                                                  *086 LM00096
                    TRANSFER TO GTNXT                                                             *087 LM00097
                                                                                                       LM00098
                  OR WHENEVER CWD .E. $ SPACE$ .OR. CWD .E. $    SP$                              *088 LM00099
                    TEM = NUM.(0)                                                                 *089 LM00100
                    WHENEVER TEM .E. 0, TEM = 1                                                   *090 LM00101
                    SETWRD.                                                                       *091 LM00102
                    SETLIN.                                                                       *092 LM00103
                    WHENEVER TEM + LINECT .L. BOTLIN                                              *093 LM00104
                      THROUGH SPCLP, FOR I = 1, 1, I .G. TEM                                      *094 LM00105
        SPCLP           PACK.(RETURN, 1)                                                          *095 LM00106
                      LINECT = LINECT + TEM                                                       *096 LM00107
                      BRKLIN.                                                                     *097 LM00108
                    OTHERWISE                                                                     *098 LM00109
                      SETPAG.                                                                     *099 LM00110
                    END OF CONDITIONAL                                                            *100 LM00111
                                                                                                       LM00112
                  OR WHENEVER CWD .E. $ BREAK$ .OR. CWD .E. $    BR$                              *101 LM00113
                    BRKLIN.                                                                       *102 LM00114
                                                                                                       LM00115
                  OR WHENEVER CWD .E. $CENTER$ .OR. CWD .E. $    CE$                              *103 LM00116
                    BRKLIN.                                                                       *104 LM00117
                    BEGIN = 1B                                                                    *105 LM00118
                    CNTR = 1B                                                                     *106 LM00119
                    FILSW = FILL                                                                  *107 LM00120
                    FILL = 0B                                                                     *108 LM00121
                                                                                                       LM00122
                  OR WHENEVER CWD .E. $ITERAL$ .OR. CWD .E. $    LI$                              *109 LM00123
                    LIT = 1B                                                                      *110 LM00124
                                                                                                       LM00125
                  OR WHENEVER CWD .E. $  FLAG$ .OR. CWD .E. $    FL$                              *111 LM00126
                    FLAGSW = 1B                                                                   *112 LM00127
                                                                                                       LM00128
                  OR WHENEVER CWD .E. $  LINE$                                                    *113 LM00129
                    CWD = GET.(0)                                                                 *114 LM00130
                    RMARG = NUM.(0)                                                               *115 LM00131
                  OR WHENEVER CWD .E. $    LL$                                                    *116 LM00132
                    RMARG = NUM.(0)                                                               *117 LM00133
                                                                                                       LM00134
                  OR WHENEVER CWD .E. $INDENT$ .OR. CWD .E. $    IN$                              *118 LM00135
                    LMARG = NUM.(0)                                                               *119 LM00136
                                                                                                       LM00137
                  OR WHENEVER CWD .E. $UNDENT$ .OR. CWD .E. $    UN$                              *120 LM00138
                    BRKLIN.                                                                       *121 LM00139
                    NS = LMARG - NUM.(0)                                                          *122 LM00140
                    WHENEVER NS .L. 0, NS = 0                                                     *123 LM00141
                    LINE(1) = NULL                                                                *124 LM00142
                    THROUGH UNDLP, FOR LENGTH = 1, 1, LENGTH .GE. NS+1                            *125 LM00143
       UNDLP          LINE(LENGTH+1) = BLANK                                                      *126 LM00144
                    NCHARS = NS                                                                   *127 LM00145
                                                                                                       LM00146
                                                                                                       LM00147
                  OR WHENEVER CWD .E. $NOJUST$ .OR. CWD .E. $    NJ$                              *128 LM00148
                    BRKLIN.                                                                       *129 LM00149
                    ADJST = 0B                                                                    *130 LM00150
                                                                                                       LM00151
                  OR WHENEVER CWD .E. $ADJUST$ .OR. CWD .E. $    AD$                              *131 LM00152
                    BRKLIN.                                                                       *132 LM00153
                    ADJST = 1B                                                                    *133 LM00154
                                                                                                       LM00155
                  OR WHENEVER CWD .E. $  FILL$ .OR. CWD .E. $    FI$                              *134 LM00156
                    BRKLIN.                                                                       *135 LM00157
                    FILL = 1B                                                                     *136 LM00158
                                                                                                       LM00159
                  OR WHENEVER CWD .E. $NOFILL$ .OR. CWD .E. $    NF$                              *137 LM00160
                    BRKLIN.                                                                       *138 LM00161
                    FILL = 0B                                                                     *139 LM00162
                                                                                                       LM00163
                  OR WHENEVER CWD .E. $SINGLE$ .OR. CWD .E. $    SS$                              *140 LM00164
                    BRKLIN.                                                                       *141 LM00165
                    DBLSPC = 0B                                                                   *142 LM00166
                                                                                                       LM00167
                  OR WHENEVER CWD .E. $DOUBLE$ .OR. CWD .E. $    DS$                              *143 LM00168
                    BRKLIN.                                                                       *144 LM00169
                    DBLSPC = 1B                                                                   *145 LM00170
                                                                                                       LM00171
                  OR WHENEVER CWD .E. $ PAPER$                                                    *146 LM00172
                    CWD = GET.(0)                                                                 *147 LM00173
                    WHENEVER CWD .E. $LENGTH$                                                     *148 LM00174
      PL              TBTPAG = NUM.(0)                                                            *149 LM00175
                      TBTLIN = TBTPAG - 6                                                         *150 LM00176
                    END OF CONDITIONAL                                                            *151 LM00177
                                                                                                       LM00178
                  OR WHENEVER CWD .E. $ SHORT$ .OR. CWD .E. $    SH$                              *152 LM00179
                    BOTLIN = BOTLIN - NUM.(0)                                                     *153 LM00180
                                                                                                       LM00181
                  OR WHENEVER CWD .E. $    PL$                                                    *154 LM00182
                    TRANSFER TO PL                                                                *155 LM00183
                                                                                                       LM00184
                  OR WHENEVER CWD .E. $EADING$                                                    *156 LM00185
                    CWD = GET.(0)                                                                 *157 LM00186
                    TRANSFER TO HM                                                                *158 LM00187
                                                                                                       LM00188
                  OR WHENEVER CWD .E. $    HM$                                                    *159 LM00189
      HM            THDPOS = GET.(0)                                                              *160 LM00190
                                                                                                       LM00191
                  OR WHENEVER CWD .E. $PAGING$                                                    *161 LM00192
                    CWD = GET.(0)                                                                 *162 LM00193
                    TRANSFER TO PM                                                                *163 LM00194
                                                                                                       LM00195
                  OR WHENEVER CWD .E. $    PM$                                                    *164 LM00196
      PM            TPGE = 1B                                                                     *165 LM00197
                    CWD = GET.(0)                                                                 *166 LM00198
                    WHENEVER CWD .E. $ $                                                          *167 LM00199
                      TRANSFER TO DONEP                                                           *168 LM00200
                    OR WHENEVER CWD .E. $MARGIN$                                                  *169 LM00201
                      TPGPOS = CWD                                                                *170 LM00202
                    OR WHENEVER CWD .E. $FACING$                                                  *171 LM00203
                      TPGPOS = CWD                                                                *172 LM00204
                    OR WHENEVER CWD .E. $CENTER$                                                  *173 LM00205
                      TPGPOS = CWD                                                                *174 LM00206
                    OR WHENEVER CWD .E. $   TOP$                                                  *175 LM00207
                      TFTSW = 0B                                                                  *176 LM00208
                    OR WHENEVER CWD .E. $BOTTOM$                                                  *177 LM00209
                      TFTSW = 1B                                                                  *178 LM00210
                    OR WHENEVER CWD .E. $   OFF$                                                  *179 LM00211
                      TPGE = 0B                                                                   *180 LM00212
                    OR WHENEVER CWD .E. $ARABIC$                                                  *181 LM00213
                      TPGMOD = CWD                                                                *182 LM00214
                    OR WHENEVER CWD .E. $ROMANU$                                                  *183 LM00215
                      TPGMOD = CWD                                                                *184 LM00216
                    OR WHENEVER CWD .E. $ROMANL$                                                  *185 LM00217
                      TPGMOD = CWD                                                                *186 LM00218
                    OR WHENEVER CWD .E. $  SKIP$                                                  *187 LM00219
                      TPAGNO = TPAGNO + NUM.(0)                                                   *188 LM00220
                    OR WHENEVER CWD .E. $   SET$                                                  *189 LM00221
                      TPAGNO = NUM.(0)                                                            *190 LM00222
                    OR WHENEVER CWD .E. $PREFIX$                                                  *191 LM00223
                      QUOTE = NXCHAR.(NLINE, EOF)                                                 *192 LM00224
                      THROUGH PRFLP, FOR I = 1, 1, NLINE                                          *193 LM00225
                        TPRF(I) = NXCHAR. (NLINE, EOF)                                            *194 LM00226
      PRFLP             WHENEVER TPRF(I) .E. QUOTE, TRANSFER TO PRFSTP                            *195 LM00227
                      TRANSFER TO RENEW                                                           *196 LM00228
                                                                                                       LM00229
      PRFSTP          TPRLTH = I-1                                                                *197 LM00230
                    END OF CONDITIONAL                                                            *198 LM00231
                    TRANSFER TO PM                                                                *199 LM00232
      DONEP         CONTINUE                                                                      *200 LM00233
                                                                                                       LM00234
                  OR WHENEVER CWD .E. $  PAGE$ .OR. CWD .E. $    PA$                              *201 LM00235
                    TPGE = 1B                                                                     *202 LM00236
                    TEM = NUM.(0)                                                                 *203 LM00237
                    WHENEVER TEM .NE. 0                                                           *204 LM00238
                      SETWRD.                                                                     *205 LM00239
                      SETLIN.                                                                     *206 LM00240
                      TPAGNO = TEM                                                                *207 LM00241
                      SETPAG.                                                                     *208 LM00242
                    END OF CONDITIONAL                                                            *209 LM00243
                                                                                                       LM00244
                  OR WHENEVER CWD .E. $   ODD$ .OR. CWD .E. $    OP$                              *210 LM00245
                    SETWRD.                                                                       *211 LM00246
                    SETLIN.                                                                       *212 LM00247
                    TPAGNO = (TPAGNO/2)*2 + 1                                                     *213 LM00248
                    SETPAG.                                                                       *214 LM00249
                                                                                                       LM00250
                  OR WHENEVER CWD .E. $ BEGIN$ .OR. CWD .E. $    BP$                              *215 LM00251
                    SETWRD.                                                                       *216 LM00252
                    SETLIN.                                                                       *217 LM00253
                    SETPAG.                                                                       *218 LM00254
                                                                                                       LM00255
                  OR WHENEVER CWD .E. $HEADER$ .OR. CWD .E. $    HE$                              *219 LM00256
                    NLINE = 0B                                                                    *220 LM00257
                    THROUGH HDLP, FOR I = 1, 1, NLINE                                             *221 LM00258
        HDLP          HEAD(I) = NXCHAR.(NLINE, EOF)                                               *222 LM00259
                    CHAR = HEAD(I-1)                                                              *223 LM00260
                    HDLTH = I - 2                                                                 *224 LM00261
                    TRANSFER TO RENEW                                                             *225 LM00262
                                                                                                       LM00263
                  OR WHENEVER CWD .E. $FIGURE$                                                    *226 LM00264
                    MROW = FRAME.(0)                                                              *227 LM00265
                    WHENEVER LINECT + MROW .LE. BOTLIN                                            *228 LM00266
                      PRPIX.                                                                      *229 LM00267
                      LINECT = LINECT + MROW                                                      *230 LM00268
                      PIX = 0B                                                                    *231 LM00269
                    OTHERWISE                                                                     *232 LM00270
                      PIX = 1B                                                                    *233 LM00271
                    END OF CONDITIONAL                                                            *234 LM00272
                                                                                                       LM00273
                  OR WHENEVER CWD .E. $DEFINE$                                                    *235 LM00274
                    SYMSTO.(GET.(0), PAGENO)                                                      *236 LM00275
                                                                                                       LM00276
                  OR WHENEVER CWD .E. $   USE$                                                    *237 LM00277
                    SETWRD.                                                                       *238 LM00278
                    SIZE = NUMCON.(SYMGET.(GET.(0),0,$ARABIC$),WORD(1))+1                         *239 LM00279
                    COUNT = SIZE                                                                  *240 LM00280
                    WORD(1) = BLANK                                                               *241 LM00281
                    WRD = 1B                                                                      *242 LM00282
                    TRANSFER TO GTNXT                                                             *243 LM00283
                                                                                                       LM00284
                                                                                                       LM00285
                  END OF CONDITIONAL                                                              *244 LM00286
                                                                                                       LM00287
                  NLINE = 0B                                                                      *245 LM00288
                  THROUGH SKPLP, FOR I = 0, 0, NLINE                                              *246 LM00289
       SKPLP        CHAR = NXCHAR.(NLINE, EOF)                                                    *247 LM00290
                  WHENEVER CNTR, TRANSFER TO PROCED                                               *248 LM00291
                  TRANSFER TO RENEW                                                               *249 LM00292
                                                                                                       LM00293
                  END OF FUNCTION                                                                 *250 LM00294
1MAD PROGRAM,TYPE NOV 1963      (ALL NUMBERS ARE OCTAL)
0TOTAL LOCATIONS   01340 TRANSFER VECTOR LENGTH  00026 PROGRAM BEGINS    00157 FIRST UNUSED COMMON/ERASABLE  75207
0 PROGRAM IS AN EXTERNAL FUNCTION.   THE FOLLOWING ARE ENTRIES
      RUNOFF 00160   0
0VARIABLE STORAGE (A=ARRAY,C=COMMON,E=ERASABLE,DIGIT=MODE)
      ADJST  75311 AC2        FILSW  75302  C2        LINE   76701 AC1        PIX    75276 AC2        SPCLP  00026   4
      BCKSPC 75223 AC1        FLAG   75230 AC1        LIT    00044 A 2        PL     00034   4        TAB    75216 AC1
      BEGIN  75313  C2        FLAGSW 75301 AC2        LMARG  75306 AC1        PM     00035   4        TBTLIN 75274 AC1
      BLANK  75224 AC1        FSTPAG 77457  C1        MROW   75275  C1        PREFIX 76123 AC1        TBTPAG 75273 AC1
      BOTLIN 75304  C1        FTSW   76125  C2        NCHARS 75310  C1        PRFLP  00026   4        TEM    00050   1
      BOTPAG 75231  C1        GTNXT  00032   4        NLINE  00045   2        PRFSTP 00036   4        TFTSW  75271 AC2
      CHAR   00041   1        HDLP   00026   4        NOSTOP 77461  C2        PRINAM 77456  C1        THDPOS 75234 AC1
      CNTR   75303  C2        HDLTH  77454 AC1        NOWAIT 77460  C2        PRLTH  76071  C1        TPAGNO 75233 AC1
      COLON  75212 AC1        HDPOS  76702  C1        NS     00046   1        PROCED 00037   4        TPGE   75270 AC2
      CONTRL 00027   4        HEAD   77453 AC1        NULL   75210 AC1        QUES   75214 AC1        TPGMOD 75232 AC1
      COUNT  76065  C1        HEDPGE 75277  C2        OUTFIL 77455  C2        QUOTE  00047   1        TPGPOS 75272 AC1
      CWD    00042   1        HM     00033   4        PAGENO 76127  C1        RENEW  00040   4        TPRF   75267 AC1
      DBLSPC 75300  C2        HYPHEN 75211 AC1        PERIOD 75215 AC1        RETURN 75222 AC1        TPRLTH 75235 AC1
      DONEP  00030   4        I      00043   1        PGE    76130  C2        RMARG  76070 AC1        UNDLP  00026   4
      EOF    00031   4        LENGTH 75307  C1        PGMOD  76124  C1        SIZE   76066  C1        WORD   76064 AC1
      EXCLAM 75213 AC1        LINECT 75305  C1        PGPOS  76126  C1        SKPLP  00026   4        WRD    76067  C2
      FILL   75312 AC2
0FUNCTION DICTIONARY
      BRKLIN 00000   1        CHNCOM 00001   1        ENDRD  00002   1        EXIT   00003   1        FRAME  00004   1
      GET    00005   1        .PCOMT 00006   1        NUMCON 00007   1        NUM    00010   1        NXCHAR 00011   1
      PACK   00012   1        PRPIX  00013   1        SEEK   00014   1        SETCHR 00015   1        SETDWN 00016   1
      SETLIN 00017   1        SETPAG 00020   1        SETUP  00021   1        SETWRD 00022   1        SYMGET 00023   1
      SYMSTO 00024   1        WAIT   00025   1
0ABSOLUTE CONSTANTS
 00150 -206060646225     00063 +242526314525     00067 +263127645125     00070 +302521242551     00126 -206060603025
 00103 -202225273145     00120 -206060602247     00053 +000000000002     00114 -206060462424     00135 -206060604647
 00111 -206047212725     00136 -206060604721     00100 -075125263167     00146 -206060622563     00151 -206062423147
 00101 -114644214543     00102 -114644214564     00057 +215121223123     00115 -206060462626     00060 +224663634644
 00147 -206060634647     00066 +262123314527     00074 -042151273145     00141 -206060606060     00140 -206060604744
 00077 -072127314527     00127 -206060603044     00065 +252124314527     00137 -206060604743     00152 -206230465163
 00142 -206060606230     00054 +000000000006     00073 -032545276330     00105 -204721472551     00064 +244664224325
 00123 -206060602462     00154 -223145274325     00144 -206060606262     00075 -054626314343     00133 -206060604526
 00106 -206026314343     00124 -206060602631     00055 +212441646263     00116 -206060602124     00076 -054641646263
 00134 -206060604541     00155 -244524254563     00145 -206060606445     00071 +314524254563     00130 -206060603145
 00132 -206060604343     00110 -206043314525     00107 -206026432127     00125 -206060602643     00072 +316325512143
 00131 -206060604331     00061 +232545632551     00122 -206060602325     00104 -202251252142     00121 -206060602251
 00153 -206247212325     00143 -206060606247     00056 +214747254524     00117 -206060602147     00112 -206060236624
 00113 -206060254524     00051 +000000000000     00156 -344425444634     00052 +000000000001     00062 +233000000000
0STATEMENT DICTIONARY
 00027 TXL -300233000230       00030 TXL -301071001071       00031 TXL -300237000236       00032 TXL -300210000204
 00033 TXL -300677000674       00034 TXL -300634000631       00035 TXL -300715000713       00036 TXL -301070001065
 00037 TXL -300227000225       00040 TXL -300214000212
0PROGRAM
                 EXTERNAL FUNCTION                                                  001  LM00001
                 INSERT FILE RCOM                                                   002  LM00009
                 NORMAL MODE IS INTEGER                                             003  LM00004
                 PROGRAM COMMON NOSTOP, NOWAIT, FSTPAG, PRINAM, OUTFIL              004  LM00006
                 PROGRAM COMMON HDLTH, HEAD(360), HDPOS                             005  LM00007
                 PROGRAM COMMON LINE(360)                                           006  LM00008
                 PROGRAM COMMON PGE, PAGENO, PGPOS, FTSW, PGMOD                     007  LM00009
                 PROGRAM COMMON PREFIX(25), PRLTH                                   008  LM00010
                 PROGRAM COMMON RMARG                                               009  LM00011
                 PROGRAM COMMON WRD, SIZE, COUNT, WORD(360)                         010  LM00012
                 PROGRAM COMMON BEGIN, FILL, ADJST, NCHARS, LENGTH                  011  LM00013
                 PROGRAM COMMON LMARG, LINECT, BOTLIN, CNTR, FILSW                  012  LM00014
                 PROGRAM COMMON FLAGSW, DBLSPC, HEDPGE, PIX                         013  LM00015
                 PROGRAM COMMON MROW, TBTLIN, TBTPAG                                014  LM00016
                 PROGRAM COMMON TPGPOS, TFTSW, TPGE, TPRF(25)                       015  LM00017
                 PROGRAM COMMON TPRLTH, THDPOS, TPAGNO, TPGMOD                      016  LM00018
                 PROGRAM COMMON BOTPAG, FLAG(3)                                     017  LM00019
                 PROGRAM COMMON BLANK, BCKSPC, RETURN(3)                            018  LM00020
                 PROGRAM COMMON TAB, PERIOD, QUES, EXCLAM                           019  LM00021
                 PROGRAM COMMON COLON, HYPHEN, NULL                                 020  LM00022
                 BOOLEAN NOSTOP, NOWAIT, FTSW, PGE, OUTFIL                          021  LM00024
                 BOOLEAN ADJST                                                      022  LM00025
                 BOOLEAN WRD, FILL, BEGIN, CNTR, FILSW, FLAGSW                      023  LM00026
                 BOOLEAN DBLSPC, HEDPGE, PIX, TPGE, TFTSW                           024  LM00027
                 BOOLEAN NLINE                                                      025  LM00010
                 NORMAL MODE IS INTEGER                                             026  LM00011
                 VECTOR VALUES PERIOD = 0033K                                       027  LM00015
 75215     +0 00000 0 00033
                 VECTOR VALUES QUES = 0156K                                         028  LM00016
 75214     +0 00000 0 00156
                 VECTOR VALUES EXCLAM = 0153K                                       029  LM00017
 75213     +0 00000 0 00153
                 VECTOR VALUES BLANK = 0060K                                        030  LM00018
 75224     +0 00000 0 00060
                 VECTOR VALUES HYPHEN = 0040K                                       031  LM00019
 75211     +0 00000 0 00040
                 VECTOR VALUES COLON = 0035K                                        032  LM00020
 75212     +0 00000 0 00035
                 VECTOR VALUES TAB = 0072K                                          033  LM00021
 75216     +0 00000 0 00072
                 VECTOR VALUES NULL = 0057K                                         034  LM00022
 75210     +0 00000 0 00057
                 VECTOR VALUES BCKSPC = 0135K                                       035  LM00023
 75223     +0 00000 0 00135
                 VECTOR VALUES RETURN = 0055K, 0055K, 0055K                         036  LM00024
 75220     +0 00000 0 00055    75221     +0 00000 0 00055    75222     +0 00000 0 00055
                 VECTOR VALUES TPRF(1) = $00000P00000A00000G00000E00000 $           037  LM00028
 75262     +0 00000 0 00060    75263     +0 00000 0 00025    75264     +0 00000 0 00027    75265     +0 00000 0 00021
 75266     +0 00000 0 00047
                 VECTOR VALUES HDLTH = 0                                            038  LM00029
 77454     +0 00000 0 00000
                 VECTOR VALUES THDPOS = $PPOSED$                                    039  LM00030
 75234     -0 74746 6 22524
                 VECTOR VALUES TPGPOS = $MARGIN$                                    040  LM00031
 75272     -0 42151 2 73145
                 VECTOR VALUES TFTSW = 0B                                           041  LM00032
 75271     +0 00000 0 00000
                 VECTOR VALUES TPRLTH = 5                                           042  LM00033
 75235     +0 00000 0 00005
                 VECTOR VALUES TPGE = 0B                                            043  LM00034
 75270     +0 00000 0 00000
                 VECTOR VALUES TPAGNO = 2                                           044  LM00035
 75233     +0 00000 0 00002
                 VECTOR VALUES TPGMOD = $ARABIC$                                    045  LM00036
 75232     +2 15121 2 23123
                 VECTOR VALUES FLAG(1) = $00000 00000 00000*$                       046  LM00037
 75225     +0 00000 0 00054    75226     +0 00000 0 00060    75227     +0 00000 0 00060
                 VECTOR VALUES RMARG = 60                                           047  LM00038
 76070     +0 00000 0 00074
                 VECTOR VALUES LMARG = 0                                            048  LM00039
 75306     +0 00000 0 00000
                 VECTOR VALUES TBTLIN = 60                                          049  LM00040
 75274     +0 00000 0 00074
                 VECTOR VALUES TBTPAG = 66                                          050  LM00041
 75273     +0 00000 0 00102
                 VECTOR VALUES ADJST = 1B                                           051  LM00042
 75311     +0 00000 0 00001
                 VECTOR VALUES FILL = 1B                                            052  LM00043
 75312     +0 00000 0 00001
                 VECTOR VALUES PIX = 0B                                             053  LM00047
 75276     +0 00000 0 00000
                 VECTOR VALUES FLAGSW = 0B                                          054  LM00048
 75301     +0 00000 0 00000
                 VECTOR VALUES LIT = 0B                                             055  LM00049
 00044     +0 00000 0 00000
                 ENTRY TO RUNOFF.                                                   056  LM00051
 00157 TRA +0 02000 0 00162    00160 SXA +0 63400 2 01325    00161 TSX +0 07400 2 01325
                 SETUP.                                                             057  LM00053
 00162 TSX +0 07400 4 00021
                 SEEK.(PRINAM, $(MEMO)$ , EOF)                                      058  LM00054
 00163 TSX +0 07400 4 00014    00164 TXH +3 00000 0 77456    00165 TXH +3 00000 0 00156    00166 TXH +3 00000 0 00031
                 WHENEVER .NOT.NOWAIT                                               059  LM00055
 00167 ZET +0 52000 0 77460    00170 TRA +0 02000 0 00204
                 PRINT COMMENT $0L1O1A1D0 1P1A1P1E1R0,0 1H1I1T0 1R1E1T1U1R1N$       060  LM00056
 00171 TSX +0 07400 4 00006    00172     +0 00000 0 00010    00173     +0 04301 4 60121    00174     +0 12400 6 00147
 00175     +0 12101 4 70125    00176     +0 15100 7 30060    00177     +0 13001 3 10163    00200     +0 06001 5 10125
 00201     +0 16301 6 40151    00202     +0 14560 6 06060
                 WAIT.                                                              061  LM00057
 00203 TSX +0 07400 4 00025
                 END OF CONDITIONAL                                                 062  LM00058
      GTNXT      CHAR = NXCHAR.(NLINE, EOF)                                         063  LM00062
 00204 TSX +0 07400 4 00011    00205 TXH +3 00000 0 00045    00206 TXH +3 00000 0 00031    00207 STO +0 60100 0 00041
                 WHENEVER NLINE                                                     064  LM00064
 00210 NZT -0 52000 0 00045    00211 TRA +0 02000 0 00225
      RENEW        WHENEVER LIT                                                     065  LM00068
 00212 NZT -0 52000 0 00044    00213 TRA +0 02000 0 00217
                     LIT = 0B                                                       066  LM00069
 00214 CLA +0 50000 0 00051    00215 STO +0 60100 0 00044
                   OR WHENEVER CHAR .E. PERIOD                                      067  LM00070
 00216 TRA +0 02000 0 00223    00217 CLA +0 50000 0 00041    00220 SUB +0 40200 0 75215    00221 TNZ -0 10000 0 00223
                     TRANSFER TO CONTRL                                             068  LM00071
 00222 TRA +0 02000 0 00027
                   END OF CONDITIONAL                                               069  LM00072
                   SETCHR.(RETURN)                                                  070  LM00073
 00223 TSX +0 07400 4 00015    00224 TXH +3 00000 0 75222
                 END OF CONDITIONAL                                                 071  LM00074
      PROCED     SETCHR.(CHAR)                                                      072  LM00076
 00225 TSX +0 07400 4 00015    00226 TXH +3 00000 0 00041
                 TRANSFER TO GTNXT                                                  073  LM00077
 00227 TRA +0 02000 0 00032
       CONTRL    CWD = GET.(0)                                                      074  LM00081
 00230 TSX +0 07400 4 00005    00231 TXH +3 00000 0 00051    00232 STO +0 60100 0 00042
                 WHENEVER CWD .E. $   END$                                          075  LM00083
 00233 CLA +0 50000 0 00042    00234 SUB +0 40200 0 00113    00235 TNZ -0 10000 0 00245
       EOF         SETWRD.                                                          076  LM00084
 00236 TSX +0 07400 4 00022
                   SETLIN.                                                          077  LM00085
 00237 TSX +0 07400 4 00017
                   SETPAG.                                                          078  LM00086
 00240 TSX +0 07400 4 00020
                   SETDWN.                                                          079  LM00087
 00241 TSX +0 07400 4 00016
                   CHNCOM.(0)                                                       080  LM00088
 00242 TSX +0 07400 4 00001    00243 TXH +3 00000 0 00051
                 OR WHENEVER CWD .E. $   CWD$                                       081  LM00090
 00244 TRA +0 02000 0 01301    00245 CLA +0 50000 0 00042    00246 SUB +0 40200 0 00112    00247 TNZ -0 10000 0 00252
                   TRANSFER TO CONTRL                                               082  LM00091
 00250 TRA +0 02000 0 00027
                 OR WHENEVER CWD .E. $APPEND$ .OR. CWD .E. $    AP$                 083  LM00093
 00251 TRA +0 02000 0 01301    00252 CLA +0 50000 0 00042    00253 SUB +0 40200 0 00117    00254 TZE +0 10000 0 00260
 00255 CLA +0 50000 0 00042    00256 SUB +0 40200 0 00056    00257 TNZ -0 10000 0 00274
                   ENDRD.(PRINAM, $(MEMO)$)                                         084  LM00094
 00260 TSX +0 07400 4 00002    00261 TXH +3 00000 0 77456    00262 TXH +3 00000 0 00156
                   PRINAM = GET.(0)                                                 085  LM00095
 00263 TSX +0 07400 4 00005    00264 TXH +3 00000 0 00051    00265 STO +0 60100 0 77456
                   SEEK.(PRINAM, $(MEMO)$, EOF)                                     086  LM00096
 00266 TSX +0 07400 4 00014    00267 TXH +3 00000 0 77456    00270 TXH +3 00000 0 00156    00271 TXH +3 00000 0 00031
                   TRANSFER TO GTNXT                                                087  LM00097
 00272 TRA +0 02000 0 00032
                 OR WHENEVER CWD .E. $ SPACE$ .OR. CWD .E. $    SP$                 088  LM00099
 00273 TRA +0 02000 0 01301    00274 CLA +0 50000 0 00042    00275 SUB +0 40200 0 00143    00276 TZE +0 10000 0 00302
 00277 CLA +0 50000 0 00042    00300 SUB +0 40200 0 00153    00301 TNZ -0 10000 0 00346
                   TEM = NUM.(0)                                                    089  LM00100
 00302 TSX +0 07400 4 00010    00303 TXH +3 00000 0 00051    00304 STO +0 60100 0 00050
                   WHENEVER TEM .E. 0, TEM = 1                                      090  LM00101
 00305 CLA +0 50000 0 00050    00306 SUB +0 40200 0 00051    00307 TNZ -0 10000 0 00312    00310 CLA +0 50000 0 00052
 00311 STO +0 60100 0 00050
                   SETWRD.                                                          091  LM00102
 00312 TSX +0 07400 4 00022
                   SETLIN.                                                          092  LM00103
 00313 TSX +0 07400 4 00017
                   WHENEVER TEM + LINECT .L. BOTLIN                                 093  LM00104
 00314 CLA +0 50000 0 00050    00315 ADD +0 40000 0 75305    00316 SUB +0 40200 0 75304    00317 TZE +0 10000 0 00344
 00320 TPL +0 12000 0 00344
                     THROUGH SPCLP, FOR I = 1, 1, I .G. TEM                         094  LM00105
 00321 CLA +0 50000 0 00052    00322 STO +0 60100 0 00043    00323 TRA +0 02000 0 00327    00324 CLA +0 50000 0 00043
 00325 ADD +0 40000 0 00052    00326 STO +0 60100 0 00043    00327 CLA +0 50000 0 00043    00330 SUB +0 40200 0 00050
 00331 TZE +0 10000 0 00333    00332 TPL +0 12000 0 00337
        SPCLP          PACK.(RETURN, 1)                                             095  LM00106
 00333 TSX +0 07400 4 00012    00334 TXH +3 00000 0 75222    00335 TXH +3 00000 0 00052    00336 TRA +0 02000 0 00324
                     LINECT = LINECT + TEM                                          096  LM00107
 00337 CLA +0 50000 0 75305    00340 ADD +0 40000 0 00050    00341 STO +0 60100 0 75305
                     BRKLIN.                                                        097  LM00108
 00342 TSX +0 07400 4 00000
                   OTHERWISE                                                        098  LM00109
 00343 TRA +0 02000 0 00345
                     SETPAG.                                                        099  LM00110
 00344 TSX +0 07400 4 00020
                   END OF CONDITIONAL                                               100  LM00111
                 OR WHENEVER CWD .E. $ BREAK$ .OR. CWD .E. $    BR$                 101  LM00113
 00345 TRA +0 02000 0 01301    00346 CLA +0 50000 0 00042    00347 SUB +0 40200 0 00121    00350 TZE +0 10000 0 00354
 00351 CLA +0 50000 0 00042    00352 SUB +0 40200 0 00104    00353 TNZ -0 10000 0 00356
                   BRKLIN.                                                          102  LM00114
 00354 TSX +0 07400 4 00000
                 OR WHENEVER CWD .E. $CENTER$ .OR. CWD .E. $    CE$                 103  LM00116
 00355 TRA +0 02000 0 01301    00356 CLA +0 50000 0 00042    00357 SUB +0 40200 0 00122    00360 TZE +0 10000 0 00364
 00361 CLA +0 50000 0 00042    00362 SUB +0 40200 0 00061    00363 TNZ -0 10000 0 00376
                   BRKLIN.                                                          104  LM00117
 00364 TSX +0 07400 4 00000
                   BEGIN = 1B                                                       105  LM00118
 00365 CLA +0 50000 0 00052    00366 STO +0 60100 0 75313
                   CNTR = 1B                                                        106  LM00119
 00367 CLA +0 50000 0 00052    00370 STO +0 60100 0 75303
                   FILSW = FILL                                                     107  LM00120
 00371 CLA +0 50000 0 75312    00372 STO +0 60100 0 75302
                   FILL = 0B                                                        108  LM00121
 00373 CLA +0 50000 0 00051    00374 STO +0 60100 0 75312
                 OR WHENEVER CWD .E. $ITERAL$ .OR. CWD .E. $    LI$                 109  LM00123
 00375 TRA +0 02000 0 01301    00376 CLA +0 50000 0 00042    00377 SUB +0 40200 0 00131    00400 TZE +0 10000 0 00404
 00401 CLA +0 50000 0 00042    00402 SUB +0 40200 0 00072    00403 TNZ -0 10000 0 00407
                   LIT = 1B                                                         110  LM00124
 00404 CLA +0 50000 0 00052    00405 STO +0 60100 0 00044
                 OR WHENEVER CWD .E. $  FLAG$ .OR. CWD .E. $    FL$                 111  LM00126
 00406 TRA +0 02000 0 01301    00407 CLA +0 50000 0 00042    00410 SUB +0 40200 0 00125    00411 TZE +0 10000 0 00415
 00412 CLA +0 50000 0 00042    00413 SUB +0 40200 0 00107    00414 TNZ -0 10000 0 00420
                   FLAGSW = 1B                                                      112  LM00127
 00415 CLA +0 50000 0 00052    00416 STO +0 60100 0 75301
                 OR WHENEVER CWD .E. $  LINE$                                       113  LM00129
 00417 TRA +0 02000 0 01301    00420 CLA +0 50000 0 00042    00421 SUB +0 40200 0 00110    00422 TNZ -0 10000 0 00432
                   CWD = GET.(0)                                                    114  LM00130
 00423 TSX +0 07400 4 00005    00424 TXH +3 00000 0 00051    00425 STO +0 60100 0 00042
                   RMARG = NUM.(0)                                                  115  LM00131
 00426 TSX +0 07400 4 00010    00427 TXH +3 00000 0 00051    00430 STO +0 60100 0 76070
                 OR WHENEVER CWD .E. $    LL$                                       116  LM00132
 00431 TRA +0 02000 0 01301    00432 CLA +0 50000 0 00042    00433 SUB +0 40200 0 00132    00434 TNZ -0 10000 0 00441
                   RMARG = NUM.(0)                                                  117  LM00133
 00435 TSX +0 07400 4 00010    00436 TXH +3 00000 0 00051    00437 STO +0 60100 0 76070
                 OR WHENEVER CWD .E. $INDENT$ .OR. CWD .E. $    IN$                 118  LM00135
 00440 TRA +0 02000 0 01301    00441 CLA +0 50000 0 00042    00442 SUB +0 40200 0 00130    00443 TZE +0 10000 0 00447
 00444 CLA +0 50000 0 00042    00445 SUB +0 40200 0 00071    00446 TNZ -0 10000 0 00453
                   LMARG = NUM.(0)                                                  119  LM00136
 00447 TSX +0 07400 4 00010    00450 TXH +3 00000 0 00051    00451 STO +0 60100 0 75306
                 OR WHENEVER CWD .E. $UNDENT$ .OR. CWD .E. $    UN$                 120  LM00138
 00452 TRA +0 02000 0 01301    00453 CLA +0 50000 0 00042    00454 SUB +0 40200 0 00145    00455 TZE +0 10000 0 00461
 00456 CLA +0 50000 0 00042    00457 SUB +0 40200 0 00155    00460 TNZ -0 10000 0 00524
                   BRKLIN.                                                          121  LM00139
 00461 TSX +0 07400 4 00000
                   NS = LMARG - NUM.(0)                                             122  LM00140
 00462 TSX +0 07400 4 00010    00463 TXH +3 00000 0 00051    00464 CHS +0 76000 0 00002    00465 ADD +0 40000 0 75306
 00466 STO +0 60100 0 00046
                   WHENEVER NS .L. 0, NS = 0                                        123  LM00141
 00467 CLA +0 50000 0 00046    00470 SUB +0 40200 0 00051    00471 TZE +0 10000 0 00475    00472 TPL +0 12000 0 00475
 00473 CLA +0 50000 0 00051    00474 STO +0 60100 0 00046
                   LINE(1) = NULL                                                   124  LM00142
 00475 CLA +0 50000 0 75210    00476 STO +0 60100 0 76700
                   THROUGH UNDLP, FOR LENGTH = 1, 1, LENGTH .GE. NS+1               125  LM00143
 00477 CLA +0 50000 0 00052    00500 STO +0 60100 0 75307    00501 TRA +0 02000 0 00505    00502 CLA +0 50000 0 75307
 00503 ADD +0 40000 0 00052    00504 STO +0 60100 0 75307    00505 CLA +0 50000 0 00046    00506 ADD +0 40000 0 00052
 00507 CHS +0 76000 0 00002    00510 ADD +0 40000 0 75307    00511 TZE +0 10000 0 00521    00512 TPL +0 12000 0 00521
       UNDLP         LINE(LENGTH+1) = BLANK                                         126  LM00144
 00513 CLA +0 50000 0 75307    00514 ADD +0 40000 0 00052    00515 PAX +0 73400 1 00000    00516 CLA +0 50000 0 75224
 00517 STO +0 60100 1 76701    00520 TRA +0 02000 0 00502
                   NCHARS = NS                                                      127  LM00145
 00521 CLA +0 50000 0 00046    00522 STO +0 60100 0 75310
                 OR WHENEVER CWD .E. $NOJUST$ .OR. CWD .E. $    NJ$                 128  LM00148
 00523 TRA +0 02000 0 01301    00524 CLA +0 50000 0 00042    00525 SUB +0 40200 0 00134    00526 TZE +0 10000 0 00532
 00527 CLA +0 50000 0 00042    00530 SUB +0 40200 0 00076    00531 TNZ -0 10000 0 00536
                   BRKLIN.                                                          129  LM00149
 00532 TSX +0 07400 4 00000
                   ADJST = 0B                                                       130  LM00150
 00533 CLA +0 50000 0 00051    00534 STO +0 60100 0 75311
                 OR WHENEVER CWD .E. $ADJUST$ .OR. CWD .E. $    AD$                 131  LM00152
 00535 TRA +0 02000 0 01301    00536 CLA +0 50000 0 00042    00537 SUB +0 40200 0 00116    00540 TZE +0 10000 0 00544
 00541 CLA +0 50000 0 00042    00542 SUB +0 40200 0 00055    00543 TNZ -0 10000 0 00550
                   BRKLIN.                                                          132  LM00153
 00544 TSX +0 07400 4 00000
                   ADJST = 1B                                                       133  LM00154
 00545 CLA +0 50000 0 00052    00546 STO +0 60100 0 75311
                 OR WHENEVER CWD .E. $  FILL$ .OR. CWD .E. $    FI$                 134  LM00156
 00547 TRA +0 02000 0 01301    00550 CLA +0 50000 0 00042    00551 SUB +0 40200 0 00124    00552 TZE +0 10000 0 00556
 00553 CLA +0 50000 0 00042    00554 SUB +0 40200 0 00106    00555 TNZ -0 10000 0 00562
                   BRKLIN.                                                          135  LM00157
 00556 TSX +0 07400 4 00000
                   FILL = 1B                                                        136  LM00158
 00557 CLA +0 50000 0 00052    00560 STO +0 60100 0 75312
                 OR WHENEVER CWD .E. $NOFILL$ .OR. CWD .E. $    NF$                 137  LM00160
 00561 TRA +0 02000 0 01301    00562 CLA +0 50000 0 00042    00563 SUB +0 40200 0 00133    00564 TZE +0 10000 0 00570
 00565 CLA +0 50000 0 00042    00566 SUB +0 40200 0 00075    00567 TNZ -0 10000 0 00574
                   BRKLIN.                                                          138  LM00161
 00570 TSX +0 07400 4 00000
                   FILL = 0B                                                        139  LM00162
 00571 CLA +0 50000 0 00051    00572 STO +0 60100 0 75312
                 OR WHENEVER CWD .E. $SINGLE$ .OR. CWD .E. $    SS$                 140  LM00164
 00573 TRA +0 02000 0 01301    00574 CLA +0 50000 0 00042    00575 SUB +0 40200 0 00144    00576 TZE +0 10000 0 00602
 00577 CLA +0 50000 0 00042    00600 SUB +0 40200 0 00154    00601 TNZ -0 10000 0 00606
                   BRKLIN.                                                          141  LM00165
 00602 TSX +0 07400 4 00000
                   DBLSPC = 0B                                                      142  LM00166
 00603 CLA +0 50000 0 00051    00604 STO +0 60100 0 75300
                 OR WHENEVER CWD .E. $DOUBLE$ .OR. CWD .E. $    DS$                 143  LM00168
 00605 TRA +0 02000 0 01301    00606 CLA +0 50000 0 00042    00607 SUB +0 40200 0 00123    00610 TZE +0 10000 0 00614
 00611 CLA +0 50000 0 00042    00612 SUB +0 40200 0 00064    00613 TNZ -0 10000 0 00620
                   BRKLIN.                                                          144  LM00169
 00614 TSX +0 07400 4 00000
                   DBLSPC = 1B                                                      145  LM00170
 00615 CLA +0 50000 0 00052    00616 STO +0 60100 0 75300
                 OR WHENEVER CWD .E. $ PAPER$                                       146  LM00172
 00617 TRA +0 02000 0 01301    00620 CLA +0 50000 0 00042    00621 SUB +0 40200 0 00105    00622 TNZ -0 10000 0 00640
                   CWD = GET.(0)                                                    147  LM00173
 00623 TSX +0 07400 4 00005    00624 TXH +3 00000 0 00051    00625 STO +0 60100 0 00042
                   WHENEVER CWD .E. $LENGTH$                                        148  LM00174
 00626 CLA +0 50000 0 00042    00627 SUB +0 40200 0 00073    00630 TNZ -0 10000 0 00637
      PL             TBTPAG = NUM.(0)                                               149  LM00175
 00631 TSX +0 07400 4 00010    00632 TXH +3 00000 0 00051    00633 STO +0 60100 0 75273
                     TBTLIN = TBTPAG - 6                                            150  LM00176
 00634 CLA +0 50000 0 75273    00635 SUB +0 40200 0 00054    00636 STO +0 60100 0 75274
                   END OF CONDITIONAL                                               151  LM00177
                 OR WHENEVER CWD .E. $ SHORT$ .OR. CWD .E. $    SH$                 152  LM00179
 00637 TRA +0 02000 0 01301    00640 CLA +0 50000 0 00042    00641 SUB +0 40200 0 00142    00642 TZE +0 10000 0 00646
 00643 CLA +0 50000 0 00042    00644 SUB +0 40200 0 00152    00645 TNZ -0 10000 0 00654
                   BOTLIN = BOTLIN - NUM.(0)                                        153  LM00180
 00646 TSX +0 07400 4 00010    00647 TXH +3 00000 0 00051    00650 CHS +0 76000 0 00002    00651 ADD +0 40000 0 75304
 00652 STO +0 60100 0 75304
                 OR WHENEVER CWD .E. $    PL$                                       154  LM00182
 00653 TRA +0 02000 0 01301    00654 CLA +0 50000 0 00042    00655 SUB +0 40200 0 00137    00656 TNZ -0 10000 0 00661
                   TRANSFER TO PL                                                   155  LM00183
 00657 TRA +0 02000 0 00034
                 OR WHENEVER CWD .E. $EADING$                                       156  LM00185
 00660 TRA +0 02000 0 01301    00661 CLA +0 50000 0 00042    00662 SUB +0 40200 0 00065    00663 TNZ -0 10000 0 00671
                   CWD = GET.(0)                                                    157  LM00186
 00664 TSX +0 07400 4 00005    00665 TXH +3 00000 0 00051    00666 STO +0 60100 0 00042
                   TRANSFER TO HM                                                   158  LM00187
 00667 TRA +0 02000 0 00033
                 OR WHENEVER CWD .E. $    HM$                                       159  LM00189
 00670 TRA +0 02000 0 01301    00671 CLA +0 50000 0 00042    00672 SUB +0 40200 0 00127    00673 TNZ -0 10000 0 00700
      HM           THDPOS = GET.(0)                                                 160  LM00190
 00674 TSX +0 07400 4 00005    00675 TXH +3 00000 0 00051    00676 STO +0 60100 0 75234
                 OR WHENEVER CWD .E. $PAGING$                                       161  LM00192
 00677 TRA +0 02000 0 01301    00700 CLA +0 50000 0 00042    00701 SUB +0 40200 0 00077    00702 TNZ -0 10000 0 00710
                   CWD = GET.(0)                                                    162  LM00193
 00703 TSX +0 07400 4 00005    00704 TXH +3 00000 0 00051    00705 STO +0 60100 0 00042
                   TRANSFER TO PM                                                   163  LM00194
 00706 TRA +0 02000 0 00035
                 OR WHENEVER CWD .E. $    PM$                                       164  LM00196
 00707 TRA +0 02000 0 01301    00710 CLA +0 50000 0 00042    00711 SUB +0 40200 0 00140    00712 TNZ -0 10000 0 01072
      PM           TPGE = 1B                                                        165  LM00197
 00713 CLA +0 50000 0 00052    00714 STO +0 60100 0 75270
                   CWD = GET.(0)                                                    166  LM00198
 00715 TSX +0 07400 4 00005    00716 TXH +3 00000 0 00051    00717 STO +0 60100 0 00042
                   WHENEVER CWD .E. $ $                                             167  LM00199
 00720 CLA +0 50000 0 00042    00721 SUB +0 40200 0 00141    00722 TNZ -0 10000 0 00725
                     TRANSFER TO DONEP                                              168  LM00200
 00723 TRA +0 02000 0 00030
                   OR WHENEVER CWD .E. $MARGIN$                                     169  LM00201
 00724 TRA +0 02000 0 01070    00725 CLA +0 50000 0 00042    00726 SUB +0 40200 0 00074    00727 TNZ -0 10000 0 00733
                     TPGPOS = CWD                                                   170  LM00202
 00730 CLA +0 50000 0 00042    00731 STO +0 60100 0 75272
                   OR WHENEVER CWD .E. $FACING$                                     171  LM00203
 00732 TRA +0 02000 0 01070    00733 CLA +0 50000 0 00042    00734 SUB +0 40200 0 00066    00735 TNZ -0 10000 0 00741
                     TPGPOS = CWD                                                   172  LM00204
 00736 CLA +0 50000 0 00042    00737 STO +0 60100 0 75272
                   OR WHENEVER CWD .E. $CENTER$                                     173  LM00205
 00740 TRA +0 02000 0 01070    00741 CLA +0 50000 0 00042    00742 SUB +0 40200 0 00061    00743 TNZ -0 10000 0 00747
                     TPGPOS = CWD                                                   174  LM00206
 00744 CLA +0 50000 0 00042    00745 STO +0 60100 0 75272
                   OR WHENEVER CWD .E. $   TOP$                                     175  LM00207
 00746 TRA +0 02000 0 01070    00747 CLA +0 50000 0 00042    00750 SUB +0 40200 0 00147    00751 TNZ -0 10000 0 00755
                     TFTSW = 0B                                                     176  LM00208
 00752 CLA +0 50000 0 00051    00753 STO +0 60100 0 75271
                   OR WHENEVER CWD .E. $BOTTOM$                                     177  LM00209
 00754 TRA +0 02000 0 01070    00755 CLA +0 50000 0 00042    00756 SUB +0 40200 0 00060    00757 TNZ -0 10000 0 00763
                     TFTSW = 1B                                                     178  LM00210
 00760 CLA +0 50000 0 00052    00761 STO +0 60100 0 75271
                   OR WHENEVER CWD .E. $   OFF$                                     179  LM00211
 00762 TRA +0 02000 0 01070    00763 CLA +0 50000 0 00042    00764 SUB +0 40200 0 00115    00765 TNZ -0 10000 0 00771
                     TPGE = 0B                                                      180  LM00212
 00766 CLA +0 50000 0 00051    00767 STO +0 60100 0 75270
                   OR WHENEVER CWD .E. $ARABIC$                                     181  LM00213
 00770 TRA +0 02000 0 01070    00771 CLA +0 50000 0 00042    00772 SUB +0 40200 0 00057    00773 TNZ -0 10000 0 00777
                     TPGMOD = CWD                                                   182  LM00214
 00774 CLA +0 50000 0 00042    00775 STO +0 60100 0 75232
                   OR WHENEVER CWD .E. $ROMANU$                                     183  LM00215
 00776 TRA +0 02000 0 01070    00777 CLA +0 50000 0 00042    01000 SUB +0 40200 0 00102    01001 TNZ -0 10000 0 01005
                     TPGMOD = CWD                                                   184  LM00216
 01002 CLA +0 50000 0 00042    01003 STO +0 60100 0 75232
                   OR WHENEVER CWD .E. $ROMANL$                                     185  LM00217
 01004 TRA +0 02000 0 01070    01005 CLA +0 50000 0 00042    01006 SUB +0 40200 0 00101    01007 TNZ -0 10000 0 01013
                     TPGMOD = CWD                                                   186  LM00218
 01010 CLA +0 50000 0 00042    01011 STO +0 60100 0 75232
                   OR WHENEVER CWD .E. $  SKIP$                                     187  LM00219
 01012 TRA +0 02000 0 01070    01013 CLA +0 50000 0 00042    01014 SUB +0 40200 0 00151    01015 TNZ -0 10000 0 01023
                     TPAGNO = TPAGNO + NUM.(0)                                      188  LM00220
 01016 TSX +0 07400 4 00010    01017 TXH +3 00000 0 00051    01020 ADD +0 40000 0 75233    01021 STO +0 60100 0 75233
                   OR WHENEVER CWD .E. $   SET$                                     189  LM00221
 01022 TRA +0 02000 0 01070    01023 CLA +0 50000 0 00042    01024 SUB +0 40200 0 00146    01025 TNZ -0 10000 0 01032
                     TPAGNO = NUM.(0)                                               190  LM00222
 01026 TSX +0 07400 4 00010    01027 TXH +3 00000 0 00051    01030 STO +0 60100 0 75233
                   OR WHENEVER CWD .E. $PREFIX$                                     191  LM00223
 01031 TRA +0 02000 0 01070    01032 CLA +0 50000 0 00042    01033 SUB +0 40200 0 00100    01034 TNZ -0 10000 0 01070
                     QUOTE = NXCHAR.(NLINE, EOF)                                    192  LM00224
 01035 TSX +0 07400 4 00011    01036 TXH +3 00000 0 00045    01037 TXH +3 00000 0 00031    01040 STO +0 60100 0 00047
                     THROUGH PRFLP, FOR I = 1, 1, NLINE                             193  LM00225
 01041 CLA +0 50000 0 00052    01042 STO +0 60100 0 00043    01043 TRA +0 02000 0 01047    01044 CLA +0 50000 0 00043
 01045 ADD +0 40000 0 00052    01046 STO +0 60100 0 00043    01047 ZET +0 52000 0 00045    01050 TRA +0 02000 0 01064
                       TPRF(I) = NXCHAR. (NLINE, EOF)                               194  LM00226
 01051 TSX +0 07400 4 00011    01052 TXH +3 00000 0 00045    01053 TXH +3 00000 0 00031    01054 LXA +0 53400 1 00043
 01055 STO +0 60100 1 75267
      PRFLP            WHENEVER TPRF(I) .E. QUOTE, TRANSFER TO PRFSTP               195  LM00227
 01056 LXA +0 53400 1 00043    01057 CLA +0 50000 1 75267    01060 SUB +0 40200 0 00047    01061 TNZ -0 10000 0 01063
 01062 TRA +0 02000 0 00036    01063 TRA +0 02000 0 01044
                     TRANSFER TO RENEW                                              196  LM00228
 01064 TRA +0 02000 0 00040
      PRFSTP         TPRLTH = I-1                                                   197  LM00230
 01065 CLA +0 50000 0 00043    01066 SUB +0 40200 0 00052    01067 STO +0 60100 0 75235
                   END OF CONDITIONAL                                               198  LM00231
                   TRANSFER TO PM                                                   199  LM00232
 01070 TRA +0 02000 0 00035
      DONEP        CONTINUE                                                         200  LM00233
                 OR WHENEVER CWD .E. $  PAGE$ .OR. CWD .E. $    PA$                 201  LM00235
 01071 TRA +0 02000 0 01301    01072 CLA +0 50000 0 00042    01073 SUB +0 40200 0 00136    01074 TZE +0 10000 0 01100
 01075 CLA +0 50000 0 00042    01076 SUB +0 40200 0 00111    01077 TNZ -0 10000 0 01116
                   TPGE = 1B                                                        202  LM00236
 01100 CLA +0 50000 0 00052    01101 STO +0 60100 0 75270
                   TEM = NUM.(0)                                                    203  LM00237
 01102 TSX +0 07400 4 00010    01103 TXH +3 00000 0 00051    01104 STO +0 60100 0 00050
                   WHENEVER TEM .NE. 0                                              204  LM00238
 01105 CLA +0 50000 0 00050    01106 SUB +0 40200 0 00051    01107 TZE +0 10000 0 01115
                     SETWRD.                                                        205  LM00239
 01110 TSX +0 07400 4 00022
                     SETLIN.                                                        206  LM00240
 01111 TSX +0 07400 4 00017
                     TPAGNO = TEM                                                   207  LM00241
 01112 CLA +0 50000 0 00050    01113 STO +0 60100 0 75233
                     SETPAG.                                                        208  LM00242
 01114 TSX +0 07400 4 00020
                   END OF CONDITIONAL                                               209  LM00243
                 OR WHENEVER CWD .E. $   ODD$ .OR. CWD .E. $    OP$                 210  LM00245
 01115 TRA +0 02000 0 01301    01116 CLA +0 50000 0 00042    01117 SUB +0 40200 0 00135    01120 TZE +0 10000 0 01124
 01121 CLA +0 50000 0 00042    01122 SUB +0 40200 0 00114    01123 TNZ -0 10000 0 01140
                   SETWRD.                                                          211  LM00246
 01124 TSX +0 07400 4 00022
                   SETLIN.                                                          212  LM00247
 01125 TSX +0 07400 4 00017
                   TPAGNO = (TPAGNO/2)*2 + 1                                        213  LM00248
 01126 LDQ +0 56000 0 75233    01127 PXD -0 75400 0 00000    01130 LLS +0 76300 0 00000    01131 DVP +0 22100 0 00053
 01132 MPY +0 20000 0 00053    01133 XCA +0 13100 0 00000    01134 ADD +0 40000 0 00052    01135 STO +0 60100 0 75233
                   SETPAG.                                                          214  LM00249
 01136 TSX +0 07400 4 00020
                 OR WHENEVER CWD .E. $ BEGIN$ .OR. CWD .E. $    BP$                 215  LM00251
 01137 TRA +0 02000 0 01301    01140 CLA +0 50000 0 00042    01141 SUB +0 40200 0 00120    01142 TZE +0 10000 0 01146
 01143 CLA +0 50000 0 00042    01144 SUB +0 40200 0 00103    01145 TNZ -0 10000 0 01152
                   SETWRD.                                                          216  LM00252
 01146 TSX +0 07400 4 00022
                   SETLIN.                                                          217  LM00253
 01147 TSX +0 07400 4 00017
                   SETPAG.                                                          218  LM00254
 01150 TSX +0 07400 4 00020
                 OR WHENEVER CWD .E. $HEADER$ .OR. CWD .E. $    HE$                 219  LM00256
 01151 TRA +0 02000 0 01301    01152 CLA +0 50000 0 00042    01153 SUB +0 40200 0 00126    01154 TZE +0 10000 0 01160
 01155 CLA +0 50000 0 00042    01156 SUB +0 40200 0 00070    01157 TNZ -0 10000 0 01212
                   NLINE = 0B                                                       220  LM00257
 01160 CLA +0 50000 0 00051    01161 STO +0 60100 0 00045
                   THROUGH HDLP, FOR I = 1, 1, NLINE                                221  LM00258
 01162 CLA +0 50000 0 00052    01163 STO +0 60100 0 00043    01164 TRA +0 02000 0 01170    01165 CLA +0 50000 0 00043
 01166 ADD +0 40000 0 00052    01167 STO +0 60100 0 00043    01170 ZET +0 52000 0 00045    01171 TRA +0 02000 0 01200
        HDLP         HEAD(I) = NXCHAR.(NLINE, EOF)                                  222  LM00259
 01172 TSX +0 07400 4 00011    01173 TXH +3 00000 0 00045    01174 TXH +3 00000 0 00031    01175 LXA +0 53400 1 00043
 01176 STO +0 60100 1 77453    01177 TRA +0 02000 0 01165
                   CHAR = HEAD(I-1)                                                 223  LM00260
 01200 CLA +0 50000 0 00043    01201 SUB +0 40200 0 00052    01202 PAX +0 73400 2 00000    01203 CLA +0 50000 2 77453
 01204 STO +0 60100 0 00041
                   HDLTH = I - 2                                                    224  LM00261
 01205 CLA +0 50000 0 00043    01206 SUB +0 40200 0 00053    01207 STO +0 60100 0 77454
                   TRANSFER TO RENEW                                                225  LM00262
 01210 TRA +0 02000 0 00040
                 OR WHENEVER CWD .E. $FIGURE$                                       226  LM00264
 01211 TRA +0 02000 0 01301    01212 CLA +0 50000 0 00042    01213 SUB +0 40200 0 00067    01214 TNZ -0 10000 0 01237
                   MROW = FRAME.(0)                                                 227  LM00265
 01215 TSX +0 07400 4 00004    01216 TXH +3 00000 0 00051    01217 STO +0 60100 0 75275
                   WHENEVER LINECT + MROW .LE. BOTLIN                               228  LM00266
 01220 CLA +0 50000 0 75305    01221 ADD +0 40000 0 75275    01222 SUB +0 40200 0 75304    01223 TZE +0 10000 0 01225
 01224 TPL +0 12000 0 01234
                     PRPIX.                                                         229  LM00267
 01225 TSX +0 07400 4 00013
                     LINECT = LINECT + MROW                                         230  LM00268
 01226 CLA +0 50000 0 75305    01227 ADD +0 40000 0 75275    01230 STO +0 60100 0 75305
                     PIX = 0B                                                       231  LM00269
 01231 CLA +0 50000 0 00051    01232 STO +0 60100 0 75276
                   OTHERWISE                                                        232  LM00270
 01233 TRA +0 02000 0 01236
                     PIX = 1B                                                       233  LM00271
 01234 CLA +0 50000 0 00052    01235 STO +0 60100 0 75276
                   END OF CONDITIONAL                                               234  LM00272
                 OR WHENEVER CWD .E. $DEFINE$                                       235  LM00274
 01236 TRA +0 02000 0 01301    01237 CLA +0 50000 0 00042    01240 SUB +0 40200 0 00063    01241 TNZ -0 10000 0 01251
                   SYMSTO.(GET.(0), PAGENO)                                         236  LM00275
 01242 TSX +0 07400 4 00005    01243 TXH +3 00000 0 00051    01244 STO +0 60100 0 01335    01245 TSX +0 07400 4 00024
 01246 TXH +3 00000 0 01335    01247 TXH +3 00000 0 76127
                 OR WHENEVER CWD .E. $   USE$                                       237  LM00277
 01250 TRA +0 02000 0 01301    01251 CLA +0 50000 0 00042    01252 SUB +0 40200 0 00150    01253 TNZ -0 10000 0 01301
                   SETWRD.                                                          238  LM00278
 01254 TSX +0 07400 4 00022
                   SIZE = NUMCON.(SYMGET.(GET.(0),0,$ARABIC$),WORD(1))+1            239  LM00279
 01255 TSX +0 07400 4 00005    01256 TXH +3 00000 0 00051    01257 STO +0 60100 0 01335    01260 TSX +0 07400 4 00023
 01261 TXH +3 00000 0 01335    01262 TXH +3 00000 0 00051    01263 TXH +3 00000 0 00057    01264 STO +0 60100 0 01335
 01265 TSX +0 07400 4 00007    01266 TXH +3 00000 0 01335    01267 TXH +3 00000 0 76063    01270 ADD +0 40000 0 00052
 01271 STO +0 60100 0 76066
                   COUNT = SIZE                                                     240  LM00280
 01272 CLA +0 50000 0 76066    01273 STO +0 60100 0 76065
                   WORD(1) = BLANK                                                  241  LM00281
 01274 CLA +0 50000 0 75224    01275 STO +0 60100 0 76063
                   WRD = 1B                                                         242  LM00282
 01276 CLA +0 50000 0 00052    01277 STO +0 60100 0 76067
                   TRANSFER TO GTNXT                                                243  LM00283
 01300 TRA +0 02000 0 00032
                 END OF CONDITIONAL                                                 244  LM00286
                 NLINE = 0B                                                         245  LM00288
 01301 CLA +0 50000 0 00051    01302 STO +0 60100 0 00045
                 THROUGH SKPLP, FOR I = 0, 0, NLINE                                 246  LM00289
 01303 CLA +0 50000 0 00051    01304 STO +0 60100 0 00043    01305 TRA +0 02000 0 01311    01306 CLA +0 50000 0 00043
 01307 ADD +0 40000 0 00051    01310 STO +0 60100 0 00043    01311 ZET +0 52000 0 00045    01312 TRA +0 02000 0 01320
       SKPLP       CHAR = NXCHAR.(NLINE, EOF)                                       247  LM00290
 01313 TSX +0 07400 4 00011    01314 TXH +3 00000 0 00045    01315 TXH +3 00000 0 00031    01316 STO +0 60100 0 00041
 01317 TRA +0 02000 0 01306
                 WHENEVER CNTR, TRANSFER TO PROCED                                  248  LM00291
 01320 NZT -0 52000 0 75303    01321 TRA +0 02000 0 01323    01322 TRA +0 02000 0 00037
                 TRANSFER TO RENEW                                                  249  LM00292
 01323 TRA +0 02000 0 00040
                 END OF FUNCTION                                                    250  LM00294
 01324 TSX +0 07400 4 00003    01325 TXH +3 00000 0 00000    01326 SXD -0 63400 1 01325    01327 SXA +0 63400 4 01331
 01330 TRA +0 02000 2 00001    01331 AXT +0 77400 4 00000    01332 LXA +0 53400 2 01325    01333 LXD -0 53400 1 01325
 01334 TRA +0 02000 4 00001
1     MAD PROGRAM LISTING ... ... ...                 FILE  NXCHAR   MAD            02/08/68    1243.8
-
                 .. SUBROUTINE TO GET NEXT CHARACTER FROM INPUT STREAM.                                LM00001
                    IF NEW LINE ENCOUNTERED, SETS NLINE TO 1B.                                         LM00002
                    IF EOF ENCOUNTERED, TRANSFERS TO EOF                                               LM00003
                                                                                                       LM00004
                 .. USES .A., .V., .LS. OPERATORS.                                                     LM00005
                    TRANSLATE APPROPRIATELY.                                                           LM00006
                                                                                                       LM00007
                 ..  J. H. SALTZER, NOVEMBER, 1964                                                     LM00008
                                                                                                       LM00009
                  EXTERNAL FUNCTION (NLINE, EOF)                                                  *001 LM00010
                                                                                                       LM00011
                  VECTOR VALUES BLANK = 0060K                                                     *002 LM00012
                  VECTOR VALUES NULL = 0057K                                                      *003 LM00013
                  VECTOR VALUES RETURN = 0055K                                                    *004 LM00014
                  NORMAL MODE IS INTEGER                                                          *005 LM00015
                  STATEMENT LABEL EOF                                                             *006 LM00016
                  BOOLEAN NLINE                                                                   *007 LM00017
                  DIMENSION LINE(360)                                                             *008 LM00018
                                                                                                       LM00019
                  ENTRY TO NXCHAR.                                                                *009 LM00020
                  NLINE = 0B                                                                      *010 LM00021
      PUSH        COUNT = COUNT + 1                                                               *011 LM00022
                  WHENEVER COUNT .G. LENGTH, TRANSFER TO RENEW                                    *012 LM00023
                  FUNCTION RETURN LINE(COUNT)                                                     *013 LM00024
                                                                                                       LM00025
      RENEW       LENGTH = READ.(LINE, 360, EOF)                                                  *014 LM00026
       REDUCE     WHENEVER LINE(LENGTH) .E. BLANK                                                 *015 LM00027
                1      .OR. LINE(LENGTH) .E. RETURN                                               *015 LM00028
                1      .OR. LINE(LENGTH) .E. NULL                                                 *015 LM00029
                    LENGTH = LENGTH -1                                                            *016 LM00030
                    WHENEVER LENGTH .E. 0, TRANSFER TO RENEW                                      *017 LM00031
                    TRANSFER TO REDUCE                                                            *018 LM00032
                  END OF CONDITIONAL                                                              *019 LM00033
                  NLINE = 1B                                                                      *020 LM00034
                  COUNT = 0                                                                       *021 LM00035
                  TRANSFER TO PUSH                                                                *022 LM00036
                                                                                                       LM00037
                 .. ENTRY TO GET NEXT 6-CHARACTER WORD FROM THIS LINE.                                 LM00038
                                                                                                       LM00039
                  ENTRY TO GET.                                                                   *023 LM00040
                  WORD = $ $                                                                      *024 LM00041
                  SCAN.                                                                           *025 LM00042
      GULP        COUNT = COUNT + 1                                                               *026 LM00043
                  WHENEVER COUNT .G. LENGTH .OR. LINE(COUNT) .E. BLANK,                           *027 LM00044
                1      FUNCTION RETURN WORD                                                       *027 LM00045
                  WORD = (WORD .LS. 6) .V. (LINE(COUNT) .A. 77K)                                  *028 LM00046
                  TRANSFER TO GULP                                                                *029 LM00047
                                                                                                       LM00048
                 .. ENTRY TO GET DECIMAL INTEGER FROM INPUT STREAM.                                    LM00049
                                                                                                       LM00050
                  ENTRY TO NUM.                                                                   *030 LM00051
                  INT = 0                                                                         *031 LM00052
                  SCAN.                                                                           *032 LM00053
       MULP       COUNT = COUNT+1                                                                 *033 LM00054
                  WHENEVER COUNT .G. LENGTH .OR. LINE(COUNT) .E. BLANK,                           *034 LM00055
                1      FUNCTION RETURN INT                                                        *034 LM00056
                  WHENEVER LINE(COUNT) .LE. 9, INT = INT*10 + LINE(COUNT)                         *035 LM00057
                  TRANSFER TO MULP                                                                *036 LM00058
                                                                                                       LM00059
                 ..  FUNCTION TO SCAN FOR NON BNALK CHARACTER.                                         LM00060
                                                                                                       LM00061
                  INTERNAL FUNCTION                                                               *037 LM00062
                  ENTRY TO SCAN.                                                                  *038 LM00063
       SCANLP     WHENEVER LINE(COUNT+1) .NE. BLANK .OR. COUNT+1 .G. LENGTH                       *039 LM00064
                1      , FUNCTION RETURN                                                          *039 LM00065
                  COUNT = COUNT+1                                                                 *040 LM00066
                  TRANSFER TO SCANLP                                                              *041 LM00067
                  END OF FUNCTION                                                                 *042 LM00068
                                                                                                       LM00069
                                                                                                       LM00070
                  END OF FUNCTION                                                                 *043 LM00071
1MAD PROGRAM,TYPE NOV 1963      (ALL NUMBERS ARE OCTAL)
0TOTAL LOCATIONS   01032 TRANSFER VECTOR LENGTH  00002 PROGRAM BEGINS    00603
0 PROGRAM IS AN EXTERNAL FUNCTION.   THE FOLLOWING ARE ENTRIES
      NUM    00716   0        GET    00660   0        NXCHAR 00604   0
0VARIABLE STORAGE (A=ARRAY,C=COMMON,E=ERASABLE,DIGIT=MODE)
      BLANK  00012 A 1        INT    00014   1        MULP   00005   4        REDUCE 00007   4        SCANLP 00011   4
      COUNT  00013   1        LENGTH 00015   1        NULL   00567 A 1        RENEW  00010   4        WORD   00571   1
      GULP   00004   4        LINE   00566 A 1        PUSH   00006   4        RETURN 00570 A 1
0FUNCTION DICTIONARY
      EXIT   00000   1        READ   00001   1        SCAN   00002   1
0ABSOLUTE CONSTANTS
 00576 +000000000012     00575 +000000000011     00574 +000000000006     00577 +000000000077     00602 -206060606060
 00600 +000000000550     00572 +000000000000     00573 +000000000001     00601 +233000000000
0STATEMENT DICTIONARY
 00004 TXL -300670000665       00005 TXL -300726000723       00006 TXL -300613000610       00007 TXL -300642000630
 00010 TXL -300630000623       00011 TXL -300774000760
0PROGRAM
                 EXTERNAL FUNCTION (NLINE, EOF)                                     001  LM00010
                 VECTOR VALUES BLANK = 0060K                                        002  LM00012
 00012     +0 00000 0 00060
                 VECTOR VALUES NULL = 0057K                                         003  LM00013
 00567     +0 00000 0 00057
                 VECTOR VALUES RETURN = 0055K                                       004  LM00014
 00570     +0 00000 0 00055
                 NORMAL MODE IS INTEGER                                             005  LM00015
                 STATEMENT LABEL EOF                                                006  LM00016
                 BOOLEAN NLINE                                                      007  LM00017
                 DIMENSION LINE(360)                                                008  LM00018
                 ENTRY TO NXCHAR.                                                   009  LM00020
 00603 TRA +0 02000 0 00606    00604 SXA +0 63400 2 01012    00605 TSX +0 07400 2 01012
                 NLINE = 0B                                                         010  LM00021
 00606 CLA +0 50000 0 00572    00607 STO +0 60100 0 00024
      PUSH       COUNT = COUNT + 1                                                  011  LM00022
 00610 CLA +0 50000 0 00013    00611 ADD +0 40000 0 00573    00612 STO +0 60100 0 00013
                 WHENEVER COUNT .G. LENGTH, TRANSFER TO RENEW                       012  LM00023
 00613 CLA +0 50000 0 00013    00614 SUB +0 40200 0 00015    00615 TZE +0 10000 0 00620    00616 TMI -0 12000 0 00620
 00617 TRA +0 02000 0 00010
                 FUNCTION RETURN LINE(COUNT)                                        013  LM00024
 00620 LXA +0 53400 2 00013    00621 CLA +0 50000 2 00566    00622 TRA +0 02000 0 01023
      RENEW      LENGTH = READ.(LINE, 360, EOF)                                     014  LM00026
 00623 TSX +0 07400 4 00001    00624 TXH +3 00000 0 00566    00625 TXH +3 00000 0 00600    00626 TXH +3 00000 0 00024
 00627 STO +0 60100 0 00015
       REDUCE    WHENEVER LINE(LENGTH) .E. BLANK                                    015  LM00027
                1     .OR. LINE(LENGTH) .E. RETURN                                  015  LM00028
                1     .OR. LINE(LENGTH) .E. NULL                                    015  LM00029
 00630 LXA +0 53400 1 00015    00631 CLA +0 50000 1 00566    00632 SUB +0 40200 0 00567    00633 TZE +0 10000 0 00642
 00634 CLA +0 50000 1 00566    00635 SUB +0 40200 0 00570    00636 TZE +0 10000 0 00642    00637 CLA +0 50000 1 00566
 00640 SUB +0 40200 0 00012    00641 TNZ -0 10000 0 00652
                   LENGTH = LENGTH -1                                               016  LM00030
 00642 CLA +0 50000 0 00015    00643 SUB +0 40200 0 00573    00644 STO +0 60100 0 00015
                   WHENEVER LENGTH .E. 0, TRANSFER TO RENEW                         017  LM00031
 00645 CLA +0 50000 0 00015    00646 SUB +0 40200 0 00572    00647 TNZ -0 10000 0 00651    00650 TRA +0 02000 0 00010
                   TRANSFER TO REDUCE                                               018  LM00032
 00651 TRA +0 02000 0 00007
                 END OF CONDITIONAL                                                 019  LM00033
                 NLINE = 1B                                                         020  LM00034
 00652 CLA +0 50000 0 00573    00653 STO +0 60100 0 00024
                 COUNT = 0                                                          021  LM00035
 00654 CLA +0 50000 0 00572    00655 STO +0 60100 0 00013
                 TRANSFER TO PUSH                                                   022  LM00036
 00656 TRA +0 02000 0 00006
                 ENTRY TO GET.                                                      023  LM00040
 00657 TRA +0 02000 0 00662    00660 SXA +0 63400 2 01012    00661 TSX +0 07400 2 01012
                 WORD = $ $                                                         024  LM00041
 00662 CLA +0 50000 0 00602    00663 STO +0 60100 0 00571
                 SCAN.                                                              025  LM00042
 00664 TSX +0 07400 4 00002
      GULP       COUNT = COUNT + 1                                                  026  LM00043
 00665 CLA +0 50000 0 00013    00666 ADD +0 40000 0 00573    00667 STO +0 60100 0 00013
                 WHENEVER COUNT .G. LENGTH .OR. LINE(COUNT) .E. BLANK,              027  LM00044
                1     FUNCTION RETURN WORD                                          027  LM00045
 00670 LXA +0 53400 1 00013    00671 CLA +0 50000 1 00566    00672 SUB +0 40200 0 00012    00673 TZE +0 10000 0 00700
 00674 CLA +0 50000 0 00013    00675 SUB +0 40200 0 00015    00676 TZE +0 10000 0 00702    00677 TMI -0 12000 0 00702
 00700 CLA +0 50000 0 00571    00701 TRA +0 02000 0 01023
                 WORD = (WORD .LS. 6) .V. (LINE(COUNT) .A. 77K)                     028  LM00046
 00702 LXA +0 53400 1 00013    00703 CAL -0 50000 1 00566    00704 ANA -0 32000 0 00577    00705 SLW +0 60200 0 01027
 00706 CAL -0 50000 0 00574    00707 STA +0 62100 0 00711    00710 CAL -0 50000 0 00571    00711 ALS +0 76700 0 00000
 00712 ORA -0 50100 0 01027    00713 SLW +0 60200 0 00571
                 TRANSFER TO GULP                                                   029  LM00047
 00714 TRA +0 02000 0 00004
                 ENTRY TO NUM.                                                      030  LM00051
 00715 TRA +0 02000 0 00720    00716 SXA +0 63400 2 01012    00717 TSX +0 07400 2 01012
                 INT = 0                                                            031  LM00052
 00720 CLA +0 50000 0 00572    00721 STO +0 60100 0 00014
                 SCAN.                                                              032  LM00053
 00722 TSX +0 07400 4 00002
       MULP      COUNT = COUNT+1                                                    033  LM00054
 00723 CLA +0 50000 0 00013    00724 ADD +0 40000 0 00573    00725 STO +0 60100 0 00013
                 WHENEVER COUNT .G. LENGTH .OR. LINE(COUNT) .E. BLANK,              034  LM00055
                1     FUNCTION RETURN INT                                           034  LM00056
 00726 LXA +0 53400 1 00013    00727 CLA +0 50000 1 00566    00730 SUB +0 40200 0 00012    00731 TZE +0 10000 0 00736
 00732 CLA +0 50000 0 00013    00733 SUB +0 40200 0 00015    00734 TZE +0 10000 0 00740    00735 TMI -0 12000 0 00740
 00736 CLA +0 50000 0 00014    00737 TRA +0 02000 0 01023
                 WHENEVER LINE(COUNT) .LE. 9, INT = INT*10 + LINE(COUNT)            035  LM00057
 00740 LXA +0 53400 1 00013    00741 CLA +0 50000 1 00566    00742 SUB +0 40200 0 00575    00743 TZE +0 10000 0 00745
 00744 TPL +0 12000 0 00753    00745 LDQ +0 56000 0 00014    00746 MPY +0 20000 0 00576    00747 LXA +0 53400 2 00013
 00750 XCA +0 13100 0 00000    00751 ADD +0 40000 2 00566    00752 STO +0 60100 0 00014
                 TRANSFER TO MULP                                                   036  LM00058
 00753 TRA +0 02000 0 00005
                 INTERNAL FUNCTION                                                  037  LM00062
 00754 TRA +0 02000 0 01011
                 ENTRY TO SCAN.                                                     038  LM00063
 00755 TRA +0 02000 0 00760    00002 TTR +0 02100 0 00756    00756 SXA +0 63400 2 01001    00757 TSX +0 07400 2 01001
       SCANLP    WHENEVER LINE(COUNT+1) .NE. BLANK .OR. COUNT+1 .G. LENGTH          039  LM00064
                1     , FUNCTION RETURN                                             039  LM00065
 00760 CLA +0 50000 0 00013    00761 ADD +0 40000 0 00573    00762 SUB +0 40200 0 00015    00763 TZE +0 10000 0 00765
 00764 TPL +0 12000 0 00773    00765 CLA +0 50000 0 00013    00766 ADD +0 40000 0 00573    00767 PAX +0 73400 1 00000
 00770 CLA +0 50000 1 00566    00771 SUB +0 40200 0 00012    00772 TZE +0 10000 0 00774    00773 TRA +0 02000 0 01005
                 COUNT = COUNT+1                                                    040  LM00066
 00774 CLA +0 50000 0 00013    00775 ADD +0 40000 0 00573    00776 STO +0 60100 0 00013
                 TRANSFER TO SCANLP                                                 041  LM00067
 00777 TRA +0 02000 0 00011
                 END OF FUNCTION                                                    042  LM00068
 01000 TSX +0 07400 4 00000    01001 TXH +3 00000 0 00000    01002 SXD -0 63400 1 01001    01003 SXA +0 63400 4 01005
 01004 TRA +0 02000 2 00001    01005 AXT +0 77400 4 00000    01006 LXA +0 53400 2 01001    01007 LXD -0 53400 1 01001
 01010 TRA +0 02000 4 00001
                 END OF FUNCTION                                                    043  LM00071
 01011 TSX +0 07400 4 00000    01012 TXH +3 00000 0 00000    01013 SXD -0 63400 1 01012    01014 SXA +0 63400 4 01023
 01015 CLA +0 50000 4 00001    01016 STA +0 62100 0 00607    01017 STA +0 62100 0 00653    01020 CLA +0 50000 4 00002
 01021 STO +0 60100 0 00626    01022 TRA +0 02000 2 00001    01023 AXT +0 77400 4 00000    01024 LXA +0 53400 2 01012
 01025 LXD -0 53400 1 01012    01026 TRA +0 02000 4 00001
1     MAD PROGRAM LISTING ... ... ...                 FILE  SETTYP   MAD            02/08/68    1243.8
-
                 ..  GALLEY SETUP ROUTINES.                                                            LM00001
                 ..                                                                                    LM00002
                 ..  J. H. SALTZER, DECEMBER, 1965.                                                    LM00003
                                                                                                       LM00004
                  EXTERNAL FUNCTION(CHAR)                                                         *001 LM00005
                                                                                                       LM00006
                  INSERT FILE RCOM                                                                *002 LM00007
                                                                                                  *002 LM00001
                 ..  RUNOFF COMMON PACKAGE.                                                       *002 LM00002
                                                                                                  *002 LM00003
                  NORMAL MODE IS INTEGER                                                          *003 LM00004
                                                                                                       LM00005
                  PROGRAM COMMON NOSTOP, NOWAIT, FSTPAG, PRINAM, OUTFIL                           *004 LM00006
                  PROGRAM COMMON HDLTH, HEAD(360), HDPOS                                          *005 LM00007
                  PROGRAM COMMON LINE(360)                                                        *006 LM00008
                  PROGRAM COMMON PGE, PAGENO, PGPOS, FTSW, PGMOD                                  *007 LM00009
                  PROGRAM COMMON PREFIX(25), PRLTH                                                *008 LM00010
                  PROGRAM COMMON RMARG                                                            *009 LM00011
                  PROGRAM COMMON WRD, SIZE, COUNT, WORD(360)                                      *010 LM00012
                  PROGRAM COMMON BEGIN, FILL, ADJST, NCHARS, LENGTH                               *011 LM00013
                  PROGRAM COMMON LMARG, LINECT, BOTLIN, CNTR, FILSW                               *012 LM00014
                  PROGRAM COMMON FLAGSW, DBLSPC, HEDPGE, PIX                                      *013 LM00015
                  PROGRAM COMMON MROW, TBTLIN, TBTPAG                                             *014 LM00016
                  PROGRAM COMMON TPGPOS, TFTSW, TPGE, TPRF(25)                                    *015 LM00017
                  PROGRAM COMMON TPRLTH, THDPOS, TPAGNO, TPGMOD                                   *016 LM00018
                  PROGRAM COMMON BOTPAG, FLAG(3)                                                  *017 LM00019
                  PROGRAM COMMON BLANK, BCKSPC, RETURN(3)                                         *018 LM00020
                  PROGRAM COMMON TAB, PERIOD, QUES, EXCLAM                                        *019 LM00021
                  PROGRAM COMMON COLON, HYPHEN, NULL                                              *020 LM00022
                                                                                                       LM00023
                  BOOLEAN NOSTOP, NOWAIT, FTSW, PGE, OUTFIL                                       *021 LM00024
                  BOOLEAN ADJST                                                                   *022 LM00025
                  BOOLEAN WRD, FILL, BEGIN, CNTR, FILSW, FLAGSW                                   *023 LM00026
                  BOOLEAN DBLSPC, HEDPGE, PIX, TPGE, TFTSW                                        *024 LM00027
                                                                                                       LM00028
                 ..  END OF RUNOFF COMMON PACKAGE                                                      LM00029
                                                                                                       LM00030
                                                                                                  *002 LM00008
                  DIMENSION TBUF(360)                                                             *025 LM00009
                  BOOLEAN FIRST, NLINE                                                            *026 LM00010
                                                                                                       LM00011
                 ..  WRITEAROUNDS TO ALLOW INTERNAL AND                                                LM00012
                 ..  EXTERNAL USE OF FUNCTIONS.                                                        LM00013
                                                                                                       LM00014
                  ENTRY TO SETUP.                                                                 *027 LM00015
                    FIRST = 1B                                                                    *028 LM00016
                    COUNT = 0                                                                     *029 LM00017
                    HEDPGE = 1B                                                                   *030 LM00018
                    LENGTH = 0                                                                    *031 LM00019
                    NCHARS = 0                                                                    *032 LM00020
                    SETPK.(PRINAM, OUTFIL)                                                        *033 LM00021
                    INHDFT.                                                                       *034 LM00022
                    THROUGH STLP, FOR LINECT = 0, 1, LINECT .G. 11                                *035 LM00023
      STLP            PACK.(RETURN, 1)                                                            *036 LM00024
                    WRD = 0B                                                                      *037 LM00025
                    FUNCTION RETURN                                                               *038 LM00026
                                                                                                       LM00027
                  ENTRY TO SETDWN.                                                                *039 LM00028
                    PKOFF.                                                                        *040 LM00029
                    FUNCTION RETURN                                                               *041 LM00030
                                                                                                       LM00031
                  ENTRY TO SETCHR.                                                                *042 LM00032
                    WHENEVER CHAR .E. RETURN                                                      *043 LM00033
                      WHENEVER CNTR, BREAK.                                                       *044 LM00034
                      NLINE = 1B                                                                  *045 LM00035
                      FUNCTION RETURN                                                             *046 LM00036
                    END OF CONDITIONAL                                                            *047 LM00037
                    WHENEVER NLINE                                                                *048 LM00038
                      NLINE = 0B                                                                  *049 LM00039
                      WHENEVER FIRST, TRANSFER TO SKIP                                            *050 LM00040
                                                                                                       LM00041
                 .. IF NEW LINE IS CONTINUATION OF OLD, PATCH BROKEN WORD.                             LM00042
                                                                                                       LM00043
                    WHENEVER CHAR .NE. BLANK .AND. CHAR .NE. TAB .AND. FILL                       *051 LM00044
                       WHENEVER .NOT.WRD                                                          *052 LM00045
                         CONTINUE                                                                 *053 LM00046
                       OR WHENEVER WORD(COUNT) .E. HYPHEN                                         *054 LM00047
                         COUNT = COUNT - 1                                                        *055 LM00048
                         SIZE = SIZE - 1                                                          *056 LM00049
                       OTHERWISE                                                                  *057 LM00050
                         WHENEVER WORD(COUNT) .E. PERIOD                                          *058 LM00051
                1            .OR. WORD(COUNT) .E. QUES                                            *058 LM00052
                2            .OR. WORD(COUNT) .E. EXCLAM                                          *058 LM00053
                2            .OR. WORD(COUNT) .E. COLON                                           *058 LM00054
                3            .OR. WORD(COUNT-1) .E. PERIOD                                        *058 LM00055
                4            .OR. WORD(COUNT-1) .E. QUES                                          *058 LM00056
                5            .OR. WORD(COUNT-1) .E. EXCLAM                                        *058 LM00057
                6            .OR. WORD(COUNT-2) .E. PERIOD                                        *058 LM00058
                7            .OR. WORD(COUNT-2) .E. QUES                                          *058 LM00059
                8            .OR. WORD(COUNT-2) .E. EXCLAM                                        *058 LM00060
                9                , ADCHR.(BLANK)                                                  *058 LM00061
                         ADCHR.(BLANK)                                                            *059 LM00062
                       END OF CONDITIONAL                                                         *060 LM00063
                    OTHERWISE                                                                     *061 LM00064
                                                                                                       LM00065
                 .. NEW LINE STARTS NEW PARAGRAPH, PROCESS LAST LINE.                                  LM00066
                                                                                                       LM00067
                      BREAK.                                                                      *062 LM00068
      SKIP            FIRST = 0B                                                                  *063 LM00069
                      BEGIN = 0B                                                                  *064 LM00070
                    END OF CONDITIONAL                                                            *065 LM00071
                    END OF CONDITIONAL                                                            *066 LM00072
                    ADCHR.(CHAR)                                                                  *067 LM00073
                    FUNCTION RETURN                                                               *068 LM00074
                                                                                                       LM00075
                  ENTRY TO SETWRD.                                                                *069 LM00076
                    ADLP.                                                                         *070 LM00077
                    FUNCTION RETURN                                                               *071 LM00078
                                                                                                       LM00079
                  ENTRY TO SETLIN.                                                                *072 LM00080
                    INSERT.                                                                       *073 LM00081
                    FUNCTION RETURN                                                               *074 LM00082
                                                                                                       LM00083
                  ENTRY TO BRKLIN.                                                                *075 LM00084
                    BREAK.                                                                        *076 LM00085
                    FUNCTION RETURN                                                               *077 LM00086
                                                                                                       LM00087
                  ENTRY TO SETPAG.                                                                *078 LM00088
                    PGOUT.                                                                        *079 LM00089
                    FUNCTION RETURN                                                               *080 LM00090
                                                                                                       LM00091
                  INTERNAL FUNCTION(CHR)                                                          *081 LM00092
                  ENTRY TO ADCHR.                                                                 *082 LM00093
                    WHENEVER CHR .E. BLANK .AND. WRD                                              *083 LM00094
                      ADLP.                                                                       *084 LM00095
                      BEGIN = 0B                                                                  *085 LM00096
                    OR WHENEVER CHR .NE. BLANK                                                    *086 LM00097
                      WRD = 1B                                                                    *087 LM00098
                    END OF CONDITIONAL                                                            *088 LM00099
                    WHENEVER CHR .E. BCKSPC                                                       *089 LM00100
                      SIZE = SIZE - 1                                                             *090 LM00101
                    OTHERWISE                                                                     *091 LM00102
                      SIZE = SIZE + 1                                                             *092 LM00103
                    END OF CONDITIONAL                                                            *093 LM00104
                    COUNT = COUNT + 1                                                             *094 LM00105
                    WORD(COUNT) = CHR                                                             *095 LM00106
                    FUNCTION RETURN                                                               *096 LM00107
                                                                                                       LM00108
                  END OF FUNCTION                                                                 *097 LM00109
                                                                                                       LM00110
                  . . . . . . . . . . . . . . . . . . . . . . . . . . . . . .                          LM00111
                                                                                                       LM00112
                 ..          SUBROUTINES.                                                              LM00113
                                                                                                       LM00114
      ADLP       .. FUNCTION TO MOVE WORD INTO LINE.                                                   LM00115
                                                                                                       LM00116
                  INTERNAL FUNCTION                                                               *098 LM00117
                  ENTRY TO ADLP.                                                                  *099 LM00118
                    WHENEVER COUNT .LE. 0, FUNCTION RETURN                                        *100 LM00119
                    WHENEVER SIZE + NCHARS .G. RMARG .AND. FILL                                   *101 LM00120
                      WHENEVER ADJST,ADJUST.(LINE,LENGTH,RMARG,NCHARS)                            *102 LM00121
                      INSERT.                                                                     *103 LM00122
                    END OF CONDITIONAL                                                            *104 LM00123
                    WHENEVER LENGTH .E. 0 .AND. LMARG .G. 0                                       *105 LM00124
                      THROUGH MARGLP, FOR I = 1, 1, I .G. LMARG                                   *106 LM00125
                        LENGTH = LENGTH + 1                                                       *107 LM00126
                        LINE(LENGTH) = BLANK                                                      *108 LM00127
       MARGLP           NCHARS = NCHARS + 1                                                       *109 LM00128
                    END OF CONDITIONAL                                                            *110 LM00129
                    THROUGH ADL1, FOR I = 1, 1, I .G. COUNT                                       *111 LM00130
                      WHENEVER WORD(I) .E. BLANK .AND. BEGIN, TRANSFER TO ADL1                    *112 LM00131
                      WHENEVER WORD(I) .E. BCKSPC                                                 *113 LM00132
                        NCHARS = NCHARS - 1                                                       *114 LM00133
                      OTHERWISE                                                                   *115 LM00134
                        NCHARS = NCHARS + 1                                                       *116 LM00135
                      END OF CONDITIONAL                                                          *117 LM00136
                      LENGTH = LENGTH+1                                                           *118 LM00137
                      LINE(LENGTH) = WORD(I)                                                      *119 LM00138
       ADL1           CONTINUE                                                                    *120 LM00139
                    COUNT = 0                                                                     *121 LM00140
                    SIZE = 0                                                                      *122 LM00141
                    WRD = 0B                                                                      *123 LM00142
                    FUNCTION RETURN                                                               *124 LM00143
                  END OF FUNCTION                                                                 *125 LM00144
                                                                                                       LM00145
      INSERT     .. FUNCTION TO ADD LINE TO PAGE.                                                      LM00146
                                                                                                       LM00147
                  INTERNAL FUNCTION                                                               *126 LM00148
                  ENTRY TO INSERT.                                                                *127 LM00149
                    WHENEVER LENGTH .LE. LMARG, FUNCTION RETURN                                   *128 LM00150
                    WHENEVER LINECT .GE. BOTLIN, PGOUT.                                           *129 LM00151
                    WHENEVER CNTR                                                                 *130 LM00152
                      CENTER.(LINE,LENGTH,RMARG,NCHARS)                                           *131 LM00153
                      CNTR = 0B                                                                   *132 LM00154
                      WHENEVER FILSW, FILL = 1B                                                   *133 LM00155
                    END OF CONDITIONAL                                                            *134 LM00156
                    LINECT = LINECT + 1                                                           *135 LM00157
                    PACK.(LINE(1), LENGTH)                                                        *136 LM00158
                  WHENEVER FLAGSW                                                                 *137 LM00159
                      THROUGH PKEND, FOR I = 1, 1, I .G. RMARG-NCHARS                             *138 LM00160
        PKEND           PACK.(BLANK, 1)                                                           *139 LM00161
                      PACK.(FLAG(1), 3)                                                           *140 LM00162
                      FLAGSW = 0B                                                                 *141 LM00163
                    END OF CONDITIONAL                                                            *142 LM00164
                    PACK.(RETURN, 1)                                                              *143 LM00165
                    WHENEVER DBLSPC .AND. LINECT .L. BOTLIN                                       *144 LM00166
                      LINECT = LINECT+1                                                           *145 LM00167
                      PACK.(RETURN, 1)                                                            *146 LM00168
                    END OF CONDITIONAL                                                            *147 LM00169
                    LENGTH = 0                                                                    *148 LM00170
                    NCHARS = 0                                                                    *149 LM00171
                    BEGIN = 1B                                                                    *150 LM00172
                    FUNCTION RETURN                                                               *151 LM00173
                  END OF FUNCTION                                                                 *152 LM00174
                                                                                                       LM00175
      PGOUT      .. FUNCTION TO PRINT OUT PAGE, BEGIN NEXT PAGE.                                       LM00176
                                                                                                       LM00177
                  INTERNAL FUNCTION                                                               *153 LM00178
                  ENTRY TO PGOUT.                                                                 *154 LM00179
       PPGE         WHENEVER PAGENO .L. FSTPAG, TRANSFER TO PREPAR                                *155 LM00180
                    WHENEVER LINECT .L. 7                                                         *156 LM00181
                1      .OR. (LINECT .L. 13 .AND. HEDPGE)                                          *156 LM00182
                2      , TRANSFER TO PREPAR                                                       *156 LM00183
                  WHENEVER OUTFIL .AND. .NOT. FTSW                                                *157 LM00184
                      PACK.(EJECT,1)                                                              *158 LM00185
                      TRANSFER TO GAZABE                                                          *159 LM00186
                  END OF CONDITIONAL                                                              *160 LM00187
                    THROUGH RESTOR, FOR I = LINECT+1, 1, I .GE. BOTPAG-3                          *161 LM00188
      RESTOR          PACK.(RETURN, 1)                                                            *162 LM00189
                    SETFT.(TBUF, TLTH)                                                            *163 LM00190
                    PACK.(TBUF(1), TLTH)                                                          *164 LM00191
                    PACK.(RETURN,1)                                                               *165 LM00192
                    WHENEVER OUTFIL                                                               *166 LM00193
                      PACK.(EJECT,1)                                                              *167 LM00194
                    OTHERWISE                                                                     *168 LM00195
                      PACK.(RETURN, 2)                                                            *169 LM00196
                      WHENEVER NOSTOP, PACK.(RETURN, 1)                                           *170 LM00197
                    END OF CONDITIONAL                                                            *171 LM00198
      ....       ...............MOVE SOMEPLACE ELSE...........                                         LM00199
                    VECTOR VALUES EJECT = 52K                                                     *172 LM00200
      ....       .........................                                                             LM00201
      GAZABE        PRPAGE.                                                                       *173 LM00202
                    WHENEVER .NOT. NOSTOP, WAIT.                                                  *174 LM00203
                                                                                                       LM00204
      PREPAR        RSPAGE.                                                                       *175 LM00205
                    HEDPGE = 0B                                                                   *176 LM00206
                    INHDFT.                                                                       *177 LM00207
                    TPAGNO = TPAGNO + 1                                                           *178 LM00208
                    PACK.(RETURN, 3)                                                              *179 LM00209
                    SETHD.(TBUF, TLTH)                                                            *180 LM00210
                    PACK.(TBUF(1), TLTH)                                                          *181 LM00211
                    PACK.(RETURN, 3)                                                              *182 LM00212
                    LINECT = 6                                                                    *183 LM00213
                    WHENEVER PIX                                                                  *184 LM00214
                      PRPIX.                                                                      *185 LM00215
                      LINECT = LINECT+MROW                                                        *186 LM00216
                      PIX = 0B                                                                    *187 LM00217
                      WHENEVER LINECT .G. BOTLIN, TRANSFER TO PPGE                                *188 LM00218
                    END OF CONDITIONAL                                                            *189 LM00219
                    FUNCTION RETURN                                                               *190 LM00220
                    END OF FUNCTION                                                               *191 LM00221
                                                                                                       LM00222
      BREAK      .. FUNCTION TO BREAK UP OUTPUT LINES.                                                 LM00223
                                                                                                       LM00224
                  INTERNAL FUNCTION                                                               *192 LM00225
                  ENTRY TO BREAK.                                                                 *193 LM00226
                    ADLP.                                                                         *194 LM00227
                    INSERT.                                                                       *195 LM00228
                 .. DON'T PUT FIRST LINE OF NEW PARAGRAPH AT BOTTOM OF PAGE.                           LM00229
                    WHENEVER LINECT + 1 .GE. BOTLIN                                               *196 LM00230
                1       .OR.(LINECT + 2 .GE. BOTLIN .AND. DBLSPC)                                 *196 LM00231
                2           , PGOUT.                                                              *196 LM00232
                    BEGIN = 0B                                                                    *197 LM00233
                    FUNCTION RETURN                                                               *198 LM00234
                  END OF FUNCTION                                                                 *199 LM00235
                                                                                                       LM00236
      INHDFT     ..  FUNCTION TO SET PAGING AND HEADING MODES.                                         LM00237
                                                                                                       LM00238
                  INTERNAL FUNCTION                                                               *200 LM00239
                  ENTRY TO INHDFT.                                                                *201 LM00240
                    PGPOS = TPGPOS                                                                *202 LM00241
                    FTSW = TFTSW                                                                  *203 LM00242
                    PGE = TPGE                                                                    *204 LM00243
                    THROUGH TPFLP, FOR I = 1, 1, I .G. TPRLTH                                     *205 LM00244
      TPFLP           PREFIX(I) = TPRF(I)                                                         *206 LM00245
                    PRLTH = TPRLTH                                                                *207 LM00246
                    HDPOS = THDPOS                                                                *208 LM00247
                    PAGENO = TPAGNO                                                               *209 LM00248
                    PGMOD = TPGMOD                                                                *210 LM00249
                    BOTLIN = TBTLIN                                                               *211 LM00250
                    BOTPAG = TBTPAG                                                               *212 LM00251
                    FUNCTION RETURN                                                               *213 LM00252
                                                                                                       LM00253
                  END OF FUNCTION                                                                 *214 LM00254
                                                                                                       LM00255
                  . . . . . . . . . . . . . . . . . . . . . . . . . . . . . .                          LM00256
                                                                                                       LM00257
                  END OF FUNCTION                                                                 *215 LM00258
1MAD PROGRAM,TYPE NOV 1963      (ALL NUMBERS ARE OCTAL)
0TOTAL LOCATIONS   01762 TRANSFER VECTOR LENGTH  00014 PROGRAM BEGINS    00617 FIRST UNUSED COMMON/ERASABLE  75207
0 PROGRAM IS AN EXTERNAL FUNCTION.   THE FOLLOWING ARE ENTRIES
      SETPAG 01055   0        BRKLIN 01050   0        SETLIN 01043   0        SETWRD 01036   0        SETCHR 00667   0
      SETDWN 00662   0        SETUP  00620   0
0VARIABLE STORAGE (A=ARRAY,C=COMMON,E=ERASABLE,DIGIT=MODE)
      ADJST  75311  C2        FIRST  00031   2        LMARG  75306  C1        PKEND  00022   4        TBTPAG 75273  C1
      ADL1   00023   4        FLAG   75230 AC1        MARGLP 00022   4        PPGE   00025   4        TBUF   00604 A 1
      BCKSPC 75223  C1        FLAGSW 75301  C2        MROW   75275  C1        PREFIX 76123 AC1        TFTSW  75271  C2
      BEGIN  75313  C2        FSTPAG 77457  C1        NCHARS 75310  C1        PREPAR 00026   4        THDPOS 75234  C1
      BLANK  75224  C1        FTSW   76125  C2        NLINE  00033   2        PRINAM 77456  C1        TLTH   00605   1
      BOTLIN 75304  C1        GAZABE 00024   4        NOSTOP 77461  C2        PRLTH  76071  C1        TPAGNO 75233  C1
      BOTPAG 75231  C1        HDLTH  77454  C1        NOWAIT 77460  C2        QUES   75214  C1        TPFLP  00022   4
      CNTR   75303  C2        HDPOS  76702  C1        NULL   75210  C1        RESTOR 00022   4        TPGE   75270  C2
      COLON  75212  C1        HEAD   77453 AC1        OUTFIL 77455  C2        RETURN 75222 AC1        TPGMOD 75232  C1
      COUNT  76065  C1        HEDPGE 75277  C2        PAGENO 76127  C1        RMARG  76070  C1        TPGPOS 75272  C1
      DBLSPC 75300  C2        HYPHEN 75211  C1        PERIOD 75215  C1        SIZE   76066  C1        TPRF   75267 AC1
      EJECT  00030 A 1        I      00032   1        PGE    76130  C2        SKIP   00027   4        TPRLTH 75235  C1
      EXCLAM 75213  C1        LENGTH 75307  C1        PGMOD  76124  C1        STLP   00022   4        WORD   76064 AC1
      FILL   75312  C2        LINECT 75305  C1        PGPOS  76126  C1        TAB    75216  C1        WRD    76067  C2
      FILSW  75302  C2        LINE   76701 AC1        PIX    75276  C2        TBTLIN 75274  C1
0FUNCTION DICTIONARY
      ADJUST 00000   1        CENTER 00001   1        EXIT   00002   1        PACK   00003   1        PKOFF  00004   1
      PRPAGE 00005   1        PRPIX  00006   1        RSPAGE 00007   1        SETFT  00010   1        SETHD  00011   1
      SETPK  00012   1        WAIT   00013   1        ADCHR  00014   1        ADLP   00015   1        BREAK  00016   1
      INHDFT 00017   1        INSERT 00020   1        PGOUT  00021   1
0ABSOLUTE CONSTANTS
 00612 +000000000006     00613 +000000000007     00615 +000000000015     00611 +000000000003     00610 +000000000002
 00614 +000000000013     00606 +000000000000     00607 +000000000001     00616 +233000000000
0STATEMENT DICTIONARY
 00023 TXL -301271001270       00024 TXL -301545001544       00025 TXL -301451001444       00026 TXL -301551001550
 00027 TXL -301030001026
0PROGRAM
                 EXTERNAL FUNCTION(CHAR)                                            001  LM00005
                 INSERT FILE RCOM                                                   002  LM00007
                 NORMAL MODE IS INTEGER                                             003  LM00004
                 PROGRAM COMMON NOSTOP, NOWAIT, FSTPAG, PRINAM, OUTFIL              004  LM00006
                 PROGRAM COMMON HDLTH, HEAD(360), HDPOS                             005  LM00007
                 PROGRAM COMMON LINE(360)                                           006  LM00008
                 PROGRAM COMMON PGE, PAGENO, PGPOS, FTSW, PGMOD                     007  LM00009
                 PROGRAM COMMON PREFIX(25), PRLTH                                   008  LM00010
                 PROGRAM COMMON RMARG                                               009  LM00011
                 PROGRAM COMMON WRD, SIZE, COUNT, WORD(360)                         010  LM00012
                 PROGRAM COMMON BEGIN, FILL, ADJST, NCHARS, LENGTH                  011  LM00013
                 PROGRAM COMMON LMARG, LINECT, BOTLIN, CNTR, FILSW                  012  LM00014
                 PROGRAM COMMON FLAGSW, DBLSPC, HEDPGE, PIX                         013  LM00015
                 PROGRAM COMMON MROW, TBTLIN, TBTPAG                                014  LM00016
                 PROGRAM COMMON TPGPOS, TFTSW, TPGE, TPRF(25)                       015  LM00017
                 PROGRAM COMMON TPRLTH, THDPOS, TPAGNO, TPGMOD                      016  LM00018
                 PROGRAM COMMON BOTPAG, FLAG(3)                                     017  LM00019
                 PROGRAM COMMON BLANK, BCKSPC, RETURN(3)                            018  LM00020
                 PROGRAM COMMON TAB, PERIOD, QUES, EXCLAM                           019  LM00021
                 PROGRAM COMMON COLON, HYPHEN, NULL                                 020  LM00022
                 BOOLEAN NOSTOP, NOWAIT, FTSW, PGE, OUTFIL                          021  LM00024
                 BOOLEAN ADJST                                                      022  LM00025
                 BOOLEAN WRD, FILL, BEGIN, CNTR, FILSW, FLAGSW                      023  LM00026
                 BOOLEAN DBLSPC, HEDPGE, PIX, TPGE, TFTSW                           024  LM00027
                 DIMENSION TBUF(360)                                                025  LM00009
                 BOOLEAN FIRST, NLINE                                               026  LM00010
                 ENTRY TO SETUP.                                                    027  LM00015
 00617 TRA +0 02000 0 00622    00620 SXA +0 63400 2 01743    00621 TSX +0 07400 2 01743
                   FIRST = 1B                                                       028  LM00016
 00622 CLA +0 50000 0 00607    00623 STO +0 60100 0 00031
                   COUNT = 0                                                        029  LM00017
 00624 CLA +0 50000 0 00606    00625 STO +0 60100 0 76065
                   HEDPGE = 1B                                                      030  LM00018
 00626 CLA +0 50000 0 00607    00627 STO +0 60100 0 75277
                   LENGTH = 0                                                       031  LM00019
 00630 CLA +0 50000 0 00606    00631 STO +0 60100 0 75307
                   NCHARS = 0                                                       032  LM00020
 00632 CLA +0 50000 0 00606    00633 STO +0 60100 0 75310
                   SETPK.(PRINAM, OUTFIL)                                           033  LM00021
 00634 TSX +0 07400 4 00012    00635 TXH +3 00000 0 77456    00636 TXH +3 00000 0 77455
                   INHDFT.                                                          034  LM00022
 00637 TSX +0 07400 4 00017
                   THROUGH STLP, FOR LINECT = 0, 1, LINECT .G. 11                   035  LM00023
 00640 CLA +0 50000 0 00606    00641 STO +0 60100 0 75305    00642 TRA +0 02000 0 00646    00643 CLA +0 50000 0 75305
 00644 ADD +0 40000 0 00607    00645 STO +0 60100 0 75305    00646 CLA +0 50000 0 75305    00647 SUB +0 40200 0 00614
 00650 TZE +0 10000 0 00652    00651 TPL +0 12000 0 00656
      STLP           PACK.(RETURN, 1)                                               036  LM00024
 00652 TSX +0 07400 4 00003    00653 TXH +3 00000 0 75222    00654 TXH +3 00000 0 00607    00655 TRA +0 02000 0 00643
                   WRD = 0B                                                         037  LM00025
 00656 CLA +0 50000 0 00606    00657 STO +0 60100 0 76067
                   FUNCTION RETURN                                                  038  LM00026
 00660 TRA +0 02000 0 01754
                 ENTRY TO SETDWN.                                                   039  LM00028
 00661 TRA +0 02000 0 00664    00662 SXA +0 63400 2 01743    00663 TSX +0 07400 2 01743
                   PKOFF.                                                           040  LM00029
 00664 TSX +0 07400 4 00004
                   FUNCTION RETURN                                                  041  LM00030
 00665 TRA +0 02000 0 01754
                 ENTRY TO SETCHR.                                                   042  LM00032
 00666 TRA +0 02000 0 00671    00667 SXA +0 63400 2 01743    00670 TSX +0 07400 2 01743
                   WHENEVER CHAR .E. RETURN                                         043  LM00033
 00671 CLA +0 50000 0 00000    00672 SUB +0 40200 0 75222    00673 TNZ -0 10000 0 00702
                     WHENEVER CNTR, BREAK.                                          044  LM00034
 00674 NZT -0 52000 0 75303    00675 TRA +0 02000 0 00677    00676 TSX +0 07400 4 00016
                     NLINE = 1B                                                     045  LM00035
 00677 CLA +0 50000 0 00607    00700 STO +0 60100 0 00033
                     FUNCTION RETURN                                                046  LM00036
 00701 TRA +0 02000 0 01754
                   END OF CONDITIONAL                                               047  LM00037
                   WHENEVER NLINE                                                   048  LM00038
 00702 NZT -0 52000 0 00033    00703 TRA +0 02000 0 01032
                     NLINE = 0B                                                     049  LM00039
 00704 CLA +0 50000 0 00606    00705 STO +0 60100 0 00033
                     WHENEVER FIRST, TRANSFER TO SKIP                               050  LM00040
 00706 NZT -0 52000 0 00031    00707 TRA +0 02000 0 00711    00710 TRA +0 02000 0 00027
                   WHENEVER CHAR .NE. BLANK .AND. CHAR .NE. TAB .AND. FILL          051  LM00044
 00711 NZT -0 52000 0 75312    00712 TRA +0 02000 0 01025    00713 CLA +0 50000 0 00000    00714 SUB +0 40200 0 75216
 00715 TZE +0 10000 0 01025    00716 CLA +0 50000 0 00000    00717 SUB +0 40200 0 75224    00720 TZE +0 10000 0 01025
                      WHENEVER .NOT.WRD                                             052  LM00045
 00721 ZET +0 52000 0 76067    00722 TRA +0 02000 0 00724
                        CONTINUE                                                    053  LM00046
                      OR WHENEVER WORD(COUNT) .E. HYPHEN                            054  LM00047
 00723 TRA +0 02000 0 01024    00724 LXA +0 53400 1 76065    00725 CLA +0 50000 1 76064    00726 SUB +0 40200 0 75211
 00727 TNZ -0 10000 0 00737
                        COUNT = COUNT - 1                                           055  LM00048
 00730 CLA +0 50000 0 76065    00731 SUB +0 40200 0 00607    00732 STO +0 60100 0 76065
                        SIZE = SIZE - 1                                             056  LM00049
 00733 CLA +0 50000 0 76066    00734 SUB +0 40200 0 00607    00735 STO +0 60100 0 76066
                      OTHERWISE                                                     057  LM00050
 00736 TRA +0 02000 0 01024
                        WHENEVER WORD(COUNT) .E. PERIOD                             058  LM00051
                1           .OR. WORD(COUNT) .E. QUES                               058  LM00052
                2           .OR. WORD(COUNT) .E. EXCLAM                             058  LM00053
                2           .OR. WORD(COUNT) .E. COLON                              058  LM00054
                3           .OR. WORD(COUNT-1) .E. PERIOD                           058  LM00055
                4           .OR. WORD(COUNT-1) .E. QUES                             058  LM00056
                5           .OR. WORD(COUNT-1) .E. EXCLAM                           058  LM00057
                6           .OR. WORD(COUNT-2) .E. PERIOD                           058  LM00058
                7           .OR. WORD(COUNT-2) .E. QUES                             058  LM00059
                8           .OR. WORD(COUNT-2) .E. EXCLAM                           058  LM00060
                9               , ADCHR.(BLANK)                                     058  LM00061
 00737 CLA +0 50000 0 76065    00740 SUB +0 40200 0 00610    00741 PAX +0 73400 1 00000    00742 CLA +0 50000 1 76064
 00743 SUB +0 40200 0 75213    00744 TZE +0 10000 0 01020    00745 CLA +0 50000 0 76065    00746 SUB +0 40200 0 00610
 00747 PAX +0 73400 1 00000    00750 CLA +0 50000 1 76064    00751 SUB +0 40200 0 75214    00752 TZE +0 10000 0 01020
 00753 CLA +0 50000 0 76065    00754 SUB +0 40200 0 00610    00755 PAX +0 73400 1 00000    00756 CLA +0 50000 1 76064
 00757 SUB +0 40200 0 75215    00760 TZE +0 10000 0 01020    00761 CLA +0 50000 0 76065    00762 SUB +0 40200 0 00607
 00763 PAX +0 73400 1 00000    00764 CLA +0 50000 1 76064    00765 SUB +0 40200 0 75213    00766 TZE +0 10000 0 01020
 00767 CLA +0 50000 0 76065    00770 SUB +0 40200 0 00607    00771 PAX +0 73400 1 00000    00772 CLA +0 50000 1 76064
 00773 SUB +0 40200 0 75214    00774 TZE +0 10000 0 01020    00775 CLA +0 50000 0 76065    00776 SUB +0 40200 0 00607
 00777 PAX +0 73400 1 00000    01000 CLA +0 50000 1 76064    01001 SUB +0 40200 0 75215    01002 TZE +0 10000 0 01020
 01003 LXA +0 53400 1 76065    01004 CLA +0 50000 1 76064    01005 SUB +0 40200 0 75212    01006 TZE +0 10000 0 01020
 01007 CLA +0 50000 1 76064    01010 SUB +0 40200 0 75213    01011 TZE +0 10000 0 01020    01012 CLA +0 50000 1 76064
 01013 SUB +0 40200 0 75214    01014 TZE +0 10000 0 01020    01015 CLA +0 50000 1 76064    01016 SUB +0 40200 0 75215
 01017 TNZ -0 10000 0 01022    01020 TSX +0 07400 4 00014    01021 TXH +3 00000 0 75224
                        ADCHR.(BLANK)                                               059  LM00062
 01022 TSX +0 07400 4 00014    01023 TXH +3 00000 0 75224
                      END OF CONDITIONAL                                            060  LM00063
                   OTHERWISE                                                        061  LM00064
 01024 TRA +0 02000 0 01032
                     BREAK.                                                         062  LM00068
 01025 TSX +0 07400 4 00016
      SKIP           FIRST = 0B                                                     063  LM00069
 01026 CLA +0 50000 0 00606    01027 STO +0 60100 0 00031
                     BEGIN = 0B                                                     064  LM00070
 01030 CLA +0 50000 0 00606    01031 STO +0 60100 0 75313
                   END OF CONDITIONAL                                               065  LM00071
                   END OF CONDITIONAL                                               066  LM00072
                   ADCHR.(CHAR)                                                     067  LM00073
 01032 TSX +0 07400 4 00014    01033 TXH +3 00000 0 00000
                   FUNCTION RETURN                                                  068  LM00074
 01034 TRA +0 02000 0 01754
                 ENTRY TO SETWRD.                                                   069  LM00076
 01035 TRA +0 02000 0 01040    01036 SXA +0 63400 2 01743    01037 TSX +0 07400 2 01743
                   ADLP.                                                            070  LM00077
 01040 TSX +0 07400 4 00015
                   FUNCTION RETURN                                                  071  LM00078
 01041 TRA +0 02000 0 01754
                 ENTRY TO SETLIN.                                                   072  LM00080
 01042 TRA +0 02000 0 01045    01043 SXA +0 63400 2 01743    01044 TSX +0 07400 2 01743
                   INSERT.                                                          073  LM00081
 01045 TSX +0 07400 4 00020
                   FUNCTION RETURN                                                  074  LM00082
 01046 TRA +0 02000 0 01754
                 ENTRY TO BRKLIN.                                                   075  LM00084
 01047 TRA +0 02000 0 01052    01050 SXA +0 63400 2 01743    01051 TSX +0 07400 2 01743
                   BREAK.                                                           076  LM00085
 01052 TSX +0 07400 4 00016
                   FUNCTION RETURN                                                  077  LM00086
 01053 TRA +0 02000 0 01754
                 ENTRY TO SETPAG.                                                   078  LM00088
 01054 TRA +0 02000 0 01057    01055 SXA +0 63400 2 01743    01056 TSX +0 07400 2 01743
                   PGOUT.                                                           079  LM00089
 01057 TSX +0 07400 4 00021
                   FUNCTION RETURN                                                  080  LM00090
 01060 TRA +0 02000 0 01754
                 INTERNAL FUNCTION(CHR)                                             081  LM00092
 01061 TRA +0 02000 0 01142
                 ENTRY TO ADCHR.                                                    082  LM00093
 01062 TRA +0 02000 0 01065    00014 TTR +0 02100 0 01063    01063 SXA +0 63400 2 01125    01064 TSX +0 07400 2 01125
                   WHENEVER CHR .E. BLANK .AND. WRD                                 083  LM00094
 01065 NZT -0 52000 0 76067    01066 TRA +0 02000 0 01076    01067 CLA +0 50000 0 00000    01070 SUB +0 40200 0 75224
 01071 TNZ -0 10000 0 01076
                     ADLP.                                                          084  LM00095
 01072 TSX +0 07400 4 00015
                     BEGIN = 0B                                                     085  LM00096
 01073 CLA +0 50000 0 00606    01074 STO +0 60100 0 75313
                   OR WHENEVER CHR .NE. BLANK                                       086  LM00097
 01075 TRA +0 02000 0 01103    01076 CLA +0 50000 0 00000    01077 SUB +0 40200 0 75224    01100 TZE +0 10000 0 01103
                     WRD = 1B                                                       087  LM00098
 01101 CLA +0 50000 0 00607    01102 STO +0 60100 0 76067
                   END OF CONDITIONAL                                               088  LM00099
                   WHENEVER CHR .E. BCKSPC                                          089  LM00100
 01103 CLA +0 50000 0 00000    01104 SUB +0 40200 0 75223    01105 TNZ -0 10000 0 01112
                     SIZE = SIZE - 1                                                090  LM00101
 01106 CLA +0 50000 0 76066    01107 SUB +0 40200 0 00607    01110 STO +0 60100 0 76066
                   OTHERWISE                                                        091  LM00102
 01111 TRA +0 02000 0 01115
                     SIZE = SIZE + 1                                                092  LM00103
 01112 CLA +0 50000 0 76066    01113 ADD +0 40000 0 00607    01114 STO +0 60100 0 76066
                   END OF CONDITIONAL                                               093  LM00104
                   COUNT = COUNT + 1                                                094  LM00105
 01115 CLA +0 50000 0 76065    01116 ADD +0 40000 0 00607    01117 STO +0 60100 0 76065
                   WORD(COUNT) = CHR                                                095  LM00106
 01120 LXA +0 53400 1 76065    01121 CLA +0 50000 0 00000    01122 STO +0 60100 1 76064
                   FUNCTION RETURN                                                  096  LM00107
 01123 TRA +0 02000 0 01136
                 END OF FUNCTION                                                    097  LM00109
 01124 TSX +0 07400 4 00002    01125 TXH +3 00000 0 00000    01126 SXD -0 63400 1 01125    01127 SXA +0 63400 4 01136
 01130 CLA +0 50000 4 00001    01131 STA +0 62100 0 01067    01132 STA +0 62100 0 01076    01133 STA +0 62100 0 01103
 01134 STA +0 62100 0 01121    01135 TRA +0 02000 2 00001    01136 AXT +0 77400 4 00000    01137 LXA +0 53400 2 01125
 01140 LXD -0 53400 1 01125    01141 TRA +0 02000 4 00001
                 INTERNAL FUNCTION                                                  098  LM00117
 01142 TRA +0 02000 0 01311
                 ENTRY TO ADLP.                                                     099  LM00118
 01143 TRA +0 02000 0 01146    00015 TTR +0 02100 0 01144    01144 SXA +0 63400 2 01301    01145 TSX +0 07400 2 01301
                   WHENEVER COUNT .LE. 0, FUNCTION RETURN                           100  LM00119
 01146 CLA +0 50000 0 76065    01147 SUB +0 40200 0 00606    01150 TZE +0 10000 0 01152    01151 TPL +0 12000 0 01153
 01152 TRA +0 02000 0 01305
                   WHENEVER SIZE + NCHARS .G. RMARG .AND. FILL                      101  LM00120
 01153 NZT -0 52000 0 75312    01154 TRA +0 02000 0 01172    01155 CLA +0 50000 0 76066    01156 ADD +0 40000 0 75310
 01157 SUB +0 40200 0 76070    01160 TZE +0 10000 0 01172    01161 TMI -0 12000 0 01172
                     WHENEVER ADJST,ADJUST.(LINE,LENGTH,RMARG,NCHARS)               102  LM00121
 01162 NZT -0 52000 0 75311    01163 TRA +0 02000 0 01171    01164 TSX +0 07400 4 00000    01165 TXH +3 00000 0 76701
 01166 TXH +3 00000 0 75307    01167 TXH +3 00000 0 76070    01170 TXH +3 00000 0 75310
                     INSERT.                                                        103  LM00122
 01171 TSX +0 07400 4 00020
                   END OF CONDITIONAL                                               104  LM00123
                   WHENEVER LENGTH .E. 0 .AND. LMARG .G. 0                          105  LM00124
 01172 CLA +0 50000 0 75306    01173 SUB +0 40200 0 00606    01174 TZE +0 10000 0 01225    01175 TMI -0 12000 0 01225
 01176 CLA +0 50000 0 75307    01177 SUB +0 40200 0 00606    01200 TNZ -0 10000 0 01225
                     THROUGH MARGLP, FOR I = 1, 1, I .G. LMARG                      106  LM00125
 01201 CLA +0 50000 0 00607    01202 STO +0 60100 0 00032    01203 TRA +0 02000 0 01207    01204 CLA +0 50000 0 00032
 01205 ADD +0 40000 0 00607    01206 STO +0 60100 0 00032    01207 CLA +0 50000 0 00032    01210 SUB +0 40200 0 75306
 01211 TZE +0 10000 0 01213    01212 TPL +0 12000 0 01225
                       LENGTH = LENGTH + 1                                          107  LM00126
 01213 CLA +0 50000 0 75307    01214 ADD +0 40000 0 00607    01215 STO +0 60100 0 75307
                       LINE(LENGTH) = BLANK                                         108  LM00127
 01216 LXA +0 53400 1 75307    01217 CLA +0 50000 0 75224    01220 STO +0 60100 1 76701
       MARGLP          NCHARS = NCHARS + 1                                          109  LM00128
 01221 CLA +0 50000 0 75310    01222 ADD +0 40000 0 00607    01223 STO +0 60100 0 75310    01224 TRA +0 02000 0 01204
                   END OF CONDITIONAL                                               110  LM00129
                   THROUGH ADL1, FOR I = 1, 1, I .G. COUNT                          111  LM00130
 01225 CLA +0 50000 0 00607    01226 STO +0 60100 0 00032    01227 TRA +0 02000 0 01233    01230 CLA +0 50000 0 00032
 01231 ADD +0 40000 0 00607    01232 STO +0 60100 0 00032    01233 CLA +0 50000 0 00032    01234 SUB +0 40200 0 76065
 01235 TZE +0 10000 0 01237    01236 TPL +0 12000 0 01271
                     WHENEVER WORD(I) .E. BLANK .AND. BEGIN, TRANSFER TO ADL1       112  LM00131
 01237 NZT -0 52000 0 75313    01240 TRA +0 02000 0 01246    01241 LXA +0 53400 1 00032    01242 CLA +0 50000 1 76064
 01243 SUB +0 40200 0 75224    01244 TNZ -0 10000 0 01246    01245 TRA +0 02000 0 00023
                     WHENEVER WORD(I) .E. BCKSPC                                    113  LM00132
 01246 LXA +0 53400 1 00032    01247 CLA +0 50000 1 76064    01250 SUB +0 40200 0 75223    01251 TNZ -0 10000 0 01256
                       NCHARS = NCHARS - 1                                          114  LM00133
 01252 CLA +0 50000 0 75310    01253 SUB +0 40200 0 00607    01254 STO +0 60100 0 75310
                     OTHERWISE                                                      115  LM00134
 01255 TRA +0 02000 0 01261
                       NCHARS = NCHARS + 1                                          116  LM00135
 01256 CLA +0 50000 0 75310    01257 ADD +0 40000 0 00607    01260 STO +0 60100 0 75310
                     END OF CONDITIONAL                                             117  LM00136
                     LENGTH = LENGTH+1                                              118  LM00137
 01261 CLA +0 50000 0 75307    01262 ADD +0 40000 0 00607    01263 STO +0 60100 0 75307
                     LINE(LENGTH) = WORD(I)                                         119  LM00138
 01264 LXA +0 53400 1 75307    01265 LXA +0 53400 2 00032    01266 CLA +0 50000 2 76064    01267 STO +0 60100 1 76701
       ADL1          CONTINUE                                                       120  LM00139
 01270 TRA +0 02000 0 01230
                   COUNT = 0                                                        121  LM00140
 01271 CLA +0 50000 0 00606    01272 STO +0 60100 0 76065
                   SIZE = 0                                                         122  LM00141
 01273 CLA +0 50000 0 00606    01274 STO +0 60100 0 76066
                   WRD = 0B                                                         123  LM00142
 01275 CLA +0 50000 0 00606    01276 STO +0 60100 0 76067
                   FUNCTION RETURN                                                  124  LM00143
 01277 TRA +0 02000 0 01305
                 END OF FUNCTION                                                    125  LM00144
 01300 TSX +0 07400 4 00002    01301 TXH +3 00000 0 00000    01302 SXD -0 63400 1 01301    01303 SXA +0 63400 4 01305
 01304 TRA +0 02000 2 00001    01305 AXT +0 77400 4 00000    01306 LXA +0 53400 2 01301    01307 LXD -0 53400 1 01301
 01310 TRA +0 02000 4 00001
                 INTERNAL FUNCTION                                                  126  LM00148
 01311 TRA +0 02000 0 01440
                 ENTRY TO INSERT.                                                   127  LM00149
 01312 TRA +0 02000 0 01315    00020 TTR +0 02100 0 01313    01313 SXA +0 63400 2 01430    01314 TSX +0 07400 2 01430
                   WHENEVER LENGTH .LE. LMARG, FUNCTION RETURN                      128  LM00150
 01315 CLA +0 50000 0 75307    01316 SUB +0 40200 0 75306    01317 TZE +0 10000 0 01321    01320 TPL +0 12000 0 01322
 01321 TRA +0 02000 0 01434
                   WHENEVER LINECT .GE. BOTLIN, PGOUT.                              129  LM00151
 01322 CLA +0 50000 0 75305    01323 SUB +0 40200 0 75304    01324 TZE +0 10000 0 01326    01325 TMI -0 12000 0 01327
 01326 TSX +0 07400 4 00021
                   WHENEVER CNTR                                                    130  LM00152
 01327 NZT -0 52000 0 75303    01330 TRA +0 02000 0 01344
                     CENTER.(LINE,LENGTH,RMARG,NCHARS)                              131  LM00153
 01331 TSX +0 07400 4 00001    01332 TXH +3 00000 0 76701    01333 TXH +3 00000 0 75307    01334 TXH +3 00000 0 76070
 01335 TXH +3 00000 0 75310
                     CNTR = 0B                                                      132  LM00154
 01336 CLA +0 50000 0 00606    01337 STO +0 60100 0 75303
                     WHENEVER FILSW, FILL = 1B                                      133  LM00155
 01340 NZT -0 52000 0 75302    01341 TRA +0 02000 0 01344    01342 CLA +0 50000 0 00607    01343 STO +0 60100 0 75312
                   END OF CONDITIONAL                                               134  LM00156
                   LINECT = LINECT + 1                                              135  LM00157
 01344 CLA +0 50000 0 75305    01345 ADD +0 40000 0 00607    01346 STO +0 60100 0 75305
                   PACK.(LINE(1), LENGTH)                                           136  LM00158
 01347 TSX +0 07400 4 00003    01350 TXH +3 00000 0 76700    01351 TXH +3 00000 0 75307
                 WHENEVER FLAGSW                                                    137  LM00159
 01352 NZT -0 52000 0 75301    01353 TRA +0 02000 0 01401
                     THROUGH PKEND, FOR I = 1, 1, I .G. RMARG-NCHARS                138  LM00160
 01354 CLA +0 50000 0 00607    01355 STO +0 60100 0 00032    01356 TRA +0 02000 0 01362    01357 CLA +0 50000 0 00032
 01360 ADD +0 40000 0 00607    01361 STO +0 60100 0 00032    01362 CLA +0 50000 0 76070    01363 SUB +0 40200 0 75310
 01364 CHS +0 76000 0 00002    01365 ADD +0 40000 0 00032    01366 TZE +0 10000 0 01370    01367 TPL +0 12000 0 01374
        PKEND          PACK.(BLANK, 1)                                              139  LM00161
 01370 TSX +0 07400 4 00003    01371 TXH +3 00000 0 75224    01372 TXH +3 00000 0 00607    01373 TRA +0 02000 0 01357
                     PACK.(FLAG(1), 3)                                              140  LM00162
 01374 TSX +0 07400 4 00003    01375 TXH +3 00000 0 75227    01376 TXH +3 00000 0 00611
                     FLAGSW = 0B                                                    141  LM00163
 01377 CLA +0 50000 0 00606    01400 STO +0 60100 0 75301
                   END OF CONDITIONAL                                               142  LM00164
                   PACK.(RETURN, 1)                                                 143  LM00165
 01401 TSX +0 07400 4 00003    01402 TXH +3 00000 0 75222    01403 TXH +3 00000 0 00607
                   WHENEVER DBLSPC .AND. LINECT .L. BOTLIN                          144  LM00166
 01404 CLA +0 50000 0 75305    01405 SUB +0 40200 0 75304    01406 TZE +0 10000 0 01420    01407 TPL +0 12000 0 01420
 01410 NZT -0 52000 0 75300    01411 TRA +0 02000 0 01420
                     LINECT = LINECT+1                                              145  LM00167
 01412 CLA +0 50000 0 75305    01413 ADD +0 40000 0 00607    01414 STO +0 60100 0 75305
                     PACK.(RETURN, 1)                                               146  LM00168
 01415 TSX +0 07400 4 00003    01416 TXH +3 00000 0 75222    01417 TXH +3 00000 0 00607
                   END OF CONDITIONAL                                               147  LM00169
                   LENGTH = 0                                                       148  LM00170
 01420 CLA +0 50000 0 00606    01421 STO +0 60100 0 75307
                   NCHARS = 0                                                       149  LM00171
 01422 CLA +0 50000 0 00606    01423 STO +0 60100 0 75310
                   BEGIN = 1B                                                       150  LM00172
 01424 CLA +0 50000 0 00607    01425 STO +0 60100 0 75313
                   FUNCTION RETURN                                                  151  LM00173
 01426 TRA +0 02000 0 01434
                 END OF FUNCTION                                                    152  LM00174
 01427 TSX +0 07400 4 00002    01430 TXH +3 00000 0 00000    01431 SXD -0 63400 1 01430    01432 SXA +0 63400 4 01434
 01433 TRA +0 02000 2 00001    01434 AXT +0 77400 4 00000    01435 LXA +0 53400 2 01430    01436 LXD -0 53400 1 01430
 01437 TRA +0 02000 4 00001
                 INTERNAL FUNCTION                                                  153  LM00178
 01440 TRA +0 02000 0 01624
                 ENTRY TO PGOUT.                                                    154  LM00179
 01441 TRA +0 02000 0 01444    00021 TTR +0 02100 0 01442    01442 SXA +0 63400 2 01614    01443 TSX +0 07400 2 01614
       PPGE        WHENEVER PAGENO .L. FSTPAG, TRANSFER TO PREPAR                   155  LM00180
 01444 CLA +0 50000 0 76127    01445 SUB +0 40200 0 77457    01446 TZE +0 10000 0 01451    01447 TPL +0 12000 0 01451
 01450 TRA +0 02000 0 00026
                   WHENEVER LINECT .L. 7                                            156  LM00181
                1     .OR. (LINECT .L. 13 .AND. HEDPGE)                             156  LM00182
                2     , TRANSFER TO PREPAR                                          156  LM00183
 01451 NZT -0 52000 0 75277    01452 TRA +0 02000 0 01457    01453 CLA +0 50000 0 75305    01454 SUB +0 40200 0 00615
 01455 TZE +0 10000 0 01457    01456 TMI -0 12000 0 01463    01457 CLA +0 50000 0 75305    01460 SUB +0 40200 0 00613
 01461 TZE +0 10000 0 01464    01462 TPL +0 12000 0 01464    01463 TRA +0 02000 0 00026
                 WHENEVER OUTFIL .AND. .NOT. FTSW                                   157  LM00184
 01464 ZET +0 52000 0 76125    01465 TRA +0 02000 0 01474    01466 NZT -0 52000 0 77455    01467 TRA +0 02000 0 01474
                     PACK.(EJECT,1)                                                 158  LM00185
 01470 TSX +0 07400 4 00003    01471 TXH +3 00000 0 00030    01472 TXH +3 00000 0 00607
                     TRANSFER TO GAZABE                                             159  LM00186
 01473 TRA +0 02000 0 00024
                 END OF CONDITIONAL                                                 160  LM00187
                   THROUGH RESTOR, FOR I = LINECT+1, 1, I .GE. BOTPAG-3             161  LM00188
 01474 CLA +0 50000 0 75305    01475 ADD +0 40000 0 00607    01476 STO +0 60100 0 00032    01477 TRA +0 02000 0 01503
 01500 CLA +0 50000 0 00032    01501 ADD +0 40000 0 00607    01502 STO +0 60100 0 00032    01503 CLA +0 50000 0 75231
 01504 SUB +0 40200 0 00611    01505 CHS +0 76000 0 00002    01506 ADD +0 40000 0 00032    01507 TZE +0 10000 0 01515
 01510 TPL +0 12000 0 01515
      RESTOR         PACK.(RETURN, 1)                                               162  LM00189
 01511 TSX +0 07400 4 00003    01512 TXH +3 00000 0 75222    01513 TXH +3 00000 0 00607    01514 TRA +0 02000 0 01500
                   SETFT.(TBUF, TLTH)                                               163  LM00190
 01515 TSX +0 07400 4 00010    01516 TXH +3 00000 0 00604    01517 TXH +3 00000 0 00605
                   PACK.(TBUF(1), TLTH)                                             164  LM00191
 01520 TSX +0 07400 4 00003    01521 TXH +3 00000 0 00603    01522 TXH +3 00000 0 00605
                   PACK.(RETURN,1)                                                  165  LM00192
 01523 TSX +0 07400 4 00003    01524 TXH +3 00000 0 75222    01525 TXH +3 00000 0 00607
                   WHENEVER OUTFIL                                                  166  LM00193
 01526 NZT -0 52000 0 77455    01527 TRA +0 02000 0 01534
                     PACK.(EJECT,1)                                                 167  LM00194
 01530 TSX +0 07400 4 00003    01531 TXH +3 00000 0 00030    01532 TXH +3 00000 0 00607
                   OTHERWISE                                                        168  LM00195
 01533 TRA +0 02000 0 01544
                     PACK.(RETURN, 2)                                               169  LM00196
 01534 TSX +0 07400 4 00003    01535 TXH +3 00000 0 75222    01536 TXH +3 00000 0 00610
                     WHENEVER NOSTOP, PACK.(RETURN, 1)                              170  LM00197
 01537 NZT -0 52000 0 77461    01540 TRA +0 02000 0 01544    01541 TSX +0 07400 4 00003    01542 TXH +3 00000 0 75222
 01543 TXH +3 00000 0 00607
                   END OF CONDITIONAL                                               171  LM00198
                   VECTOR VALUES EJECT = 52K                                        172  LM00200
 00030     +0 00000 0 00052
      GAZABE       PRPAGE.                                                          173  LM00202
 01544 TSX +0 07400 4 00005
                   WHENEVER .NOT. NOSTOP, WAIT.                                     174  LM00203
 01545 ZET +0 52000 0 77461    01546 TRA +0 02000 0 01550    01547 TSX +0 07400 4 00013
      PREPAR       RSPAGE.                                                          175  LM00205
 01550 TSX +0 07400 4 00007
                   HEDPGE = 0B                                                      176  LM00206
 01551 CLA +0 50000 0 00606    01552 STO +0 60100 0 75277
                   INHDFT.                                                          177  LM00207
 01553 TSX +0 07400 4 00017
                   TPAGNO = TPAGNO + 1                                              178  LM00208
 01554 CLA +0 50000 0 75233    01555 ADD +0 40000 0 00607    01556 STO +0 60100 0 75233
                   PACK.(RETURN, 3)                                                 179  LM00209
 01557 TSX +0 07400 4 00003    01560 TXH +3 00000 0 75222    01561 TXH +3 00000 0 00611
                   SETHD.(TBUF, TLTH)                                               180  LM00210
 01562 TSX +0 07400 4 00011    01563 TXH +3 00000 0 00604    01564 TXH +3 00000 0 00605
                   PACK.(TBUF(1), TLTH)                                             181  LM00211
 01565 TSX +0 07400 4 00003    01566 TXH +3 00000 0 00603    01567 TXH +3 00000 0 00605
                   PACK.(RETURN, 3)                                                 182  LM00212
 01570 TSX +0 07400 4 00003    01571 TXH +3 00000 0 75222    01572 TXH +3 00000 0 00611
                   LINECT = 6                                                       183  LM00213
 01573 CLA +0 50000 0 00612    01574 STO +0 60100 0 75305
                   WHENEVER PIX                                                     184  LM00214
 01575 NZT -0 52000 0 75276    01576 TRA +0 02000 0 01612
                     PRPIX.                                                         185  LM00215
 01577 TSX +0 07400 4 00006
                     LINECT = LINECT+MROW                                           186  LM00216
 01600 CLA +0 50000 0 75305    01601 ADD +0 40000 0 75275    01602 STO +0 60100 0 75305
                     PIX = 0B                                                       187  LM00217
 01603 CLA +0 50000 0 00606    01604 STO +0 60100 0 75276
                     WHENEVER LINECT .G. BOTLIN, TRANSFER TO PPGE                   188  LM00218
 01605 CLA +0 50000 0 75305    01606 SUB +0 40200 0 75304    01607 TZE +0 10000 0 01612    01610 TMI -0 12000 0 01612
 01611 TRA +0 02000 0 00025
                   END OF CONDITIONAL                                               189  LM00219
                   FUNCTION RETURN                                                  190  LM00220
 01612 TRA +0 02000 0 01620
                   END OF FUNCTION                                                  191  LM00221
 01613 TSX +0 07400 4 00002    01614 TXH +3 00000 0 00000    01615 SXD -0 63400 1 01614    01616 SXA +0 63400 4 01620
 01617 TRA +0 02000 2 00001    01620 AXT +0 77400 4 00000    01621 LXA +0 53400 2 01614    01622 LXD -0 53400 1 01614
 01623 TRA +0 02000 4 00001
                 INTERNAL FUNCTION                                                  192  LM00225
 01624 TRA +0 02000 0 01663
                 ENTRY TO BREAK.                                                    193  LM00226
 01625 TRA +0 02000 0 01630    00016 TTR +0 02100 0 01626    01626 SXA +0 63400 2 01653    01627 TSX +0 07400 2 01653
                   ADLP.                                                            194  LM00227
 01630 TSX +0 07400 4 00015
                   INSERT.                                                          195  LM00228
 01631 TSX +0 07400 4 00020
                   WHENEVER LINECT + 1 .GE. BOTLIN                                  196  LM00230
                1      .OR.(LINECT + 2 .GE. BOTLIN .AND. DBLSPC)                    196  LM00231
                2          , PGOUT.                                                 196  LM00232
 01632 NZT -0 52000 0 75300    01633 TRA +0 02000 0 01641    01634 CLA +0 50000 0 75305    01635 ADD +0 40000 0 00610
 01636 SUB +0 40200 0 75304    01637 TZE +0 10000 0 01646    01640 TPL +0 12000 0 01646    01641 CLA +0 50000 0 75305
 01642 ADD +0 40000 0 00607    01643 SUB +0 40200 0 75304    01644 TZE +0 10000 0 01646    01645 TMI -0 12000 0 01647
 01646 TSX +0 07400 4 00021
                   BEGIN = 0B                                                       197  LM00233
 01647 CLA +0 50000 0 00606    01650 STO +0 60100 0 75313
                   FUNCTION RETURN                                                  198  LM00234
 01651 TRA +0 02000 0 01657
                 END OF FUNCTION                                                    199  LM00235
 01652 TSX +0 07400 4 00002    01653 TXH +3 00000 0 00000    01654 SXD -0 63400 1 01653    01655 SXA +0 63400 4 01657
 01656 TRA +0 02000 2 00001    01657 AXT +0 77400 4 00000    01660 LXA +0 53400 2 01653    01661 LXD -0 53400 1 01653
 01662 TRA +0 02000 4 00001
                 INTERNAL FUNCTION                                                  200  LM00239
 01663 TRA +0 02000 0 01742
                 ENTRY TO INHDFT.                                                   201  LM00240
 01664 TRA +0 02000 0 01667    00017 TTR +0 02100 0 01665    01665 SXA +0 63400 2 01732    01666 TSX +0 07400 2 01732
                   PGPOS = TPGPOS                                                   202  LM00241
 01667 CLA +0 50000 0 75272    01670 STO +0 60100 0 76126
                   FTSW = TFTSW                                                     203  LM00242
 01671 CLA +0 50000 0 75271    01672 STO +0 60100 0 76125
                   PGE = TPGE                                                       204  LM00243
 01673 CLA +0 50000 0 75270    01674 STO +0 60100 0 76130
                   THROUGH TPFLP, FOR I = 1, 1, I .G. TPRLTH                        205  LM00244
 01675 CLA +0 50000 0 00607    01676 STO +0 60100 0 00032    01677 TRA +0 02000 0 01703    01700 CLA +0 50000 0 00032
 01701 ADD +0 40000 0 00607    01702 STO +0 60100 0 00032    01703 CLA +0 50000 0 00032    01704 SUB +0 40200 0 75235
 01705 TZE +0 10000 0 01707    01706 TPL +0 12000 0 01714
      TPFLP          PREFIX(I) = TPRF(I)                                            206  LM00245
 01707 LXA +0 53400 1 00032    01710 LXA +0 53400 2 00032    01711 CLA +0 50000 2 75267    01712 STO +0 60100 1 76123
 01713 TRA +0 02000 0 01700
                   PRLTH = TPRLTH                                                   207  LM00246
 01714 CLA +0 50000 0 75235    01715 STO +0 60100 0 76071
                   HDPOS = THDPOS                                                   208  LM00247
 01716 CLA +0 50000 0 75234    01717 STO +0 60100 0 76702
                   PAGENO = TPAGNO                                                  209  LM00248
 01720 CLA +0 50000 0 75233    01721 STO +0 60100 0 76127
                   PGMOD = TPGMOD                                                   210  LM00249
 01722 CLA +0 50000 0 75232    01723 STO +0 60100 0 76124
                   BOTLIN = TBTLIN                                                  211  LM00250
 01724 CLA +0 50000 0 75274    01725 STO +0 60100 0 75304
                   BOTPAG = TBTPAG                                                  212  LM00251
 01726 CLA +0 50000 0 75273    01727 STO +0 60100 0 75231
                   FUNCTION RETURN                                                  213  LM00252
 01730 TRA +0 02000 0 01736
                 END OF FUNCTION                                                    214  LM00254
 01731 TSX +0 07400 4 00002    01732 TXH +3 00000 0 00000    01733 SXD -0 63400 1 01732    01734 SXA +0 63400 4 01736
 01735 TRA +0 02000 2 00001    01736 AXT +0 77400 4 00000    01737 LXA +0 53400 2 01732    01740 LXD -0 53400 1 01732
 01741 TRA +0 02000 4 00001
                 END OF FUNCTION                                                    215  LM00258
 01742 TSX +0 07400 4 00002    01743 TXH +3 00000 0 00000    01744 SXD -0 63400 1 01743    01745 SXA +0 63400 4 01754
 01746 CLA +0 50000 4 00001    01747 STA +0 62100 0 00671    01750 STA +0 62100 0 00713    01751 STA +0 62100 0 00716
 01752 STO +0 60100 0 01033    01753 TRA +0 02000 2 00001    01754 AXT +0 77400 4 00000    01755 LXA +0 53400 2 01743
 01756 LXD -0 53400 1 01743    01757 TRA +0 02000 4 00001
1     MAD PROGRAM LISTING ... ... ...                 FILE  ADJUST   MAD            02/08/68    1244.0
-
                 ..  SUBROUTINE TO FILL OUT A LINE WITH BLANKS.                                        LM00001
                     (TYPE JUSTIFICATION.)                                                             LM00002
                                                                                                       LM00003
                 ..  J. H. SALTZER, NOVEMBER, 1964                                                     LM00004
                                                                                                       LM00005
                  EXTERNAL FUNCTION (LINE, LENGTH, RMARG, NCHARS)                                 *001 LM00006
                                                                                                       LM00007
                  NORMAL MODE IS INTEGER                                                          *002 LM00008
                  BOOLEAN FIRST, CHR                                                              *003 LM00009
                  VECTOR VALUES BLANK = 0060K                                                     *004 LM00010
                                                                                                       LM00011
                  ENTRY TO ADJUST.                                                                *005 LM00012
                  WHENEVER NCHARS .GE. RMARG, FUNCTION RETURN                                     *006 LM00013
                                                                                                       LM00014
                 .. MAKE SURE LINE IS FILLABLE.                                                        LM00015
                                                                                                       LM00016
                  CHR = 0B                                                                        *007 LM00017
                  FSTCH = 1                                                                       *008 LM00018
                  THROUGH CKSP, FOR I = 1, 1, I .G. LENGTH                                        *009 LM00019
                    WHENEVER LINE(I) .NE. BLANK .AND. (.NOT.CHR)                                  *010 LM00020
                      FSTCH = I                                                                   *011 LM00021
                      CHR = 1B                                                                    *012 LM00022
                    END OF CONDITIONAL                                                            *013 LM00023
       CKSP         WHENEVER LINE(I) .E. BLANK .AND. CHR, TRANSFER TO OK                          *014 LM00024
                  FUNCTION RETURN                                                                 *015 LM00025
                                                                                                       LM00026
       OK         FIRST = 1B                                                                      *016 LM00027
                                                                                                       LM00028
                 .. SCAN LINE BACKWARDS, INSERT SPACES WHERE THERE ARE SPACES                          LM00029
                                                                                                       LM00030
                  TMARG = RMARG + LENGTH - NCHARS                                                 *017 LM00031
       LOOP       PNTR = TMARG                                                                    *018 LM00032
                  DEL = -1                                                                        *019 LM00033
                  LNOW = LENGTH                                                                   *020 LM00034
                  THROUGH BACKLP, FOR J = LENGTH, -1, J .L. FSTCH                                 *021 LM00035
       EN1          LINE(PNTR) = LINE(J)                                                          *022 LM00036
                    PNTR = PNTR + DEL                                                             *023 LM00037
                    WHENEVER LINE(J) .E. BLANK .AND. (FIRST .OR. (J/2)*2 .E. J)                   *024 LM00038
                         LINE(PNTR) = BLANK                                                       *025 LM00039
                         PNTR = PNTR + DEL                                                        *026 LM00040
                         LENGTH = LENGTH + 1                                                      *027 LM00041
                         NCHARS = NCHARS + 1                                                      *028 LM00042
                         WHENEVER NCHARS .GE. RMARG, FUNCTION RETURN                              *029 LM00043
                    END OF CONDITIONAL                                                            *030 LM00044
       BACKLP       WHENEVER DEL .G. 0, TRANSFER TO FORLP                                         *031 LM00045
                                                                                                       LM00046
                 .. IF NOTHING WAS ACCOMPLISHED, GIVE UP.                                              LM00047
                                                                                                       LM00048
                  WHENEVER LENGTH .E. LNOW, FUNCTION RETURN                                       *032 LM00049
                                                                                                       LM00050
                 .. NOW SCAN FORWARDS.                                                                 LM00051
                                                                                                       LM00052
                  FIRST = 0B                                                                      *033 LM00053
                  DEL = +1                                                                        *034 LM00054
                  BEGIN = PNTR + 1                                                                *035 LM00055
                  PNTR = FSTCH                                                                    *036 LM00056
                  THROUGH FORLP, FOR J = BEGIN, +1, J .G. TMARG                                   *037 LM00057
                    TRANSFER TO EN1                                                               *038 LM00058
       FORLP        CONTINUE                                                                      *039 LM00059
                  TRANSFER TO LOOP                                                                *040 LM00060
                                                                                                       LM00061
                 .. SUBROUTINE TO CENTER A LINE.                                                       LM00062
                                                                                                       LM00063
                  ENTRY TO CENTER.                                                                *041 LM00064
                  WHENEVER NCHARS .GE. RMARG-1, FUNCTION RETURN                                   *042 LM00065
                  DEL = (RMARG-NCHARS)/2                                                          *043 LM00066
                  THROUGH CTRLP, FOR I = LENGTH, -1, I .L. 1                                      *044 LM00067
       CTRLP        LINE(I+DEL) = LINE(I)                                                         *045 LM00068
                  THROUGH FILLUP, FOR I = 1, 1, I .G. DEL                                         *046 LM00069
       FILLUP       LINE(I) = BLANK                                                               *047 LM00070
                  LENGTH = LENGTH + DEL                                                           *048 LM00071
                  NCHARS = NCHARS + DEL                                                           *049 LM00072
                  FUNCTION RETURN                                                                 *050 LM00073
                                                                                                       LM00074
                  END OF FUNCTION                                                                 *051 LM00075
1MAD PROGRAM,TYPE NOV 1963      (ALL NUMBERS ARE OCTAL)
0TOTAL LOCATIONS   00377 TRANSFER VECTOR LENGTH  00001 PROGRAM BEGINS    00025
0 PROGRAM IS AN EXTERNAL FUNCTION.   THE FOLLOWING ARE ENTRIES
      CENTER 00233   0        ADJUST 00026   0
0VARIABLE STORAGE (A=ARRAY,C=COMMON,E=ERASABLE,DIGIT=MODE)
      BACKLP 00001   4        CKSP   00001   4        FILLUP 00001   4        I      00014   1        OK     00005   4
      BEGIN  00006   1        CTRLP  00001   4        FIRST  00012   2        J      00015   1        PNTR   00017   1
      BLANK  00007 A 1        DEL    00011   1        FORLP  00003   4        LNOW   00016   1        TMARG  00020   1
      CHR    00010   2        EN1    00002   4        FSTCH  00013   1        LOOP   00004   4
0FUNCTION DICTIONARY
      EXIT   00000   1
0ABSOLUTE CONSTANTS
 00023 +000000000002     00021 +000000000000     00022 +000000000001     00024 +233000000000
0STATEMENT DICTIONARY
 00002 TXL -300130000124       00003 TXL -300231000230       00004 TXL -300106000104       00005 TXL -300100000076
0PROGRAM
                 EXTERNAL FUNCTION (LINE, LENGTH, RMARG, NCHARS)                    001  LM00006
                 NORMAL MODE IS INTEGER                                             002  LM00008
                 BOOLEAN FIRST, CHR                                                 003  LM00009
                 VECTOR VALUES BLANK = 0060K                                        004  LM00010
 00007     +0 00000 0 00060
                 ENTRY TO ADJUST.                                                   005  LM00012
 00025 TRA +0 02000 0 00030    00026 SXA +0 63400 2 00320    00027 TSX +0 07400 2 00320
                 WHENEVER NCHARS .GE. RMARG, FUNCTION RETURN                        006  LM00013
 00030 CLA +0 50000 0 00024    00031 SUB +0 40200 0 00024    00032 TZE +0 10000 0 00034    00033 TMI -0 12000 0 00035
 00034 TRA +0 02000 0 00371
                 CHR = 0B                                                           007  LM00017
 00035 CLA +0 50000 0 00021    00036 STO +0 60100 0 00010
                 FSTCH = 1                                                          008  LM00018
 00037 CLA +0 50000 0 00022    00040 STO +0 60100 0 00013
                 THROUGH CKSP, FOR I = 1, 1, I .G. LENGTH                           009  LM00019
 00041 CLA +0 50000 0 00022    00042 STO +0 60100 0 00014    00043 TRA +0 02000 0 00047    00044 CLA +0 50000 0 00014
 00045 ADD +0 40000 0 00022    00046 STO +0 60100 0 00014    00047 CLA +0 50000 0 00014    00050 SUB +0 40200 0 00024
 00051 TZE +0 10000 0 00053    00052 TPL +0 12000 0 00075
                   WHENEVER LINE(I) .NE. BLANK .AND. (.NOT.CHR)                     010  LM00020
 00053 ZET +0 52000 0 00010    00054 TRA +0 02000 0 00065    00055 LXA +0 53400 1 00014    00056 CLA +0 50000 1 00024
 00057 SUB +0 40200 0 00007    00060 TZE +0 10000 0 00065
                     FSTCH = I                                                      011  LM00021
 00061 CLA +0 50000 0 00014    00062 STO +0 60100 0 00013
                     CHR = 1B                                                       012  LM00022
 00063 CLA +0 50000 0 00022    00064 STO +0 60100 0 00010
                   END OF CONDITIONAL                                               013  LM00023
       CKSP        WHENEVER LINE(I) .E. BLANK .AND. CHR, TRANSFER TO OK             014  LM00024
 00065 NZT -0 52000 0 00010    00066 TRA +0 02000 0 00074    00067 LXA +0 53400 1 00014    00070 CLA +0 50000 1 00024
 00071 SUB +0 40200 0 00007    00072 TNZ -0 10000 0 00074    00073 TRA +0 02000 0 00005    00074 TRA +0 02000 0 00044
                 FUNCTION RETURN                                                    015  LM00025
 00075 TRA +0 02000 0 00371
       OK        FIRST = 1B                                                         016  LM00027
 00076 CLA +0 50000 0 00022    00077 STO +0 60100 0 00012
                 TMARG = RMARG + LENGTH - NCHARS                                    017  LM00031
 00100 CLA +0 50000 0 00024    00101 ADD +0 40000 0 00024    00102 SUB +0 40200 0 00024    00103 STO +0 60100 0 00020
       LOOP      PNTR = TMARG                                                       018  LM00032
 00104 CLA +0 50000 0 00020    00105 STO +0 60100 0 00017
                 DEL = -1                                                           019  LM00033
 00106 CLS +0 50200 0 00022    00107 STO +0 60100 0 00011
                 LNOW = LENGTH                                                      020  LM00034
 00110 CLA +0 50000 0 00024    00111 STO +0 60100 0 00016
                 THROUGH BACKLP, FOR J = LENGTH, -1, J .L. FSTCH                    021  LM00035
 00112 CLA +0 50000 0 00024    00113 STO +0 60100 0 00015    00114 TRA +0 02000 0 00120    00115 CLS +0 50200 0 00022
 00116 ADD +0 40000 0 00015    00117 STO +0 60100 0 00015    00120 CLA +0 50000 0 00015    00121 SUB +0 40200 0 00013
 00122 TZE +0 10000 0 00124    00123 TMI -0 12000 0 00200
       EN1         LINE(PNTR) = LINE(J)                                             022  LM00036
 00124 LXA +0 53400 1 00017    00125 LXA +0 53400 2 00015    00126 CLA +0 50000 2 00024    00127 STO +0 60100 1 00024
                   PNTR = PNTR + DEL                                                023  LM00037
 00130 CLA +0 50000 0 00017    00131 ADD +0 40000 0 00011    00132 STO +0 60100 0 00017
                   WHENEVER LINE(J) .E. BLANK .AND. (FIRST .OR. (J/2)*2 .E. J)      024  LM00038
 00133 LDQ +0 56000 0 00015    00134 PXD -0 75400 0 00000    00135 LLS +0 76300 0 00000    00136 DVP +0 22100 0 00023
 00137 MPY +0 20000 0 00023    00140 XCA +0 13100 0 00000    00141 SUB +0 40200 0 00015    00142 TZE +0 10000 0 00145
 00143 NZT -0 52000 0 00012    00144 TRA +0 02000 0 00172    00145 LXA +0 53400 1 00015    00146 CLA +0 50000 1 00024
 00147 SUB +0 40200 0 00007    00150 TNZ -0 10000 0 00172
                        LINE(PNTR) = BLANK                                          025  LM00039
 00151 LXA +0 53400 1 00017    00152 CLA +0 50000 0 00007    00153 STO +0 60100 1 00024
                        PNTR = PNTR + DEL                                           026  LM00040
 00154 CLA +0 50000 0 00017    00155 ADD +0 40000 0 00011    00156 STO +0 60100 0 00017
                        LENGTH = LENGTH + 1                                         027  LM00041
 00157 CLA +0 50000 0 00024    00160 ADD +0 40000 0 00022    00161 STO +0 60100 0 00024
                        NCHARS = NCHARS + 1                                         028  LM00042
 00162 CLA +0 50000 0 00024    00163 ADD +0 40000 0 00022    00164 STO +0 60100 0 00024
                        WHENEVER NCHARS .GE. RMARG, FUNCTION RETURN                 029  LM00043
 00165 CLA +0 50000 0 00024    00166 SUB +0 40200 0 00024    00167 TZE +0 10000 0 00171    00170 TMI -0 12000 0 00172
 00171 TRA +0 02000 0 00371
                   END OF CONDITIONAL                                               030  LM00044
       BACKLP      WHENEVER DEL .G. 0, TRANSFER TO FORLP                            031  LM00045
 00172 CLA +0 50000 0 00011    00173 SUB +0 40200 0 00021    00174 TZE +0 10000 0 00177    00175 TMI -0 12000 0 00177
 00176 TRA +0 02000 0 00003    00177 TRA +0 02000 0 00115
                 WHENEVER LENGTH .E. LNOW, FUNCTION RETURN                          032  LM00049
 00200 CLA +0 50000 0 00024    00201 SUB +0 40200 0 00016    00202 TNZ -0 10000 0 00204    00203 TRA +0 02000 0 00371
                 FIRST = 0B                                                         033  LM00053
 00204 CLA +0 50000 0 00021    00205 STO +0 60100 0 00012
                 DEL = +1                                                           034  LM00054
 00206 CLA +0 50000 0 00022    00207 STO +0 60100 0 00011
                 BEGIN = PNTR + 1                                                   035  LM00055
 00210 CLA +0 50000 0 00017    00211 ADD +0 40000 0 00022    00212 STO +0 60100 0 00006
                 PNTR = FSTCH                                                       036  LM00056
 00213 CLA +0 50000 0 00013    00214 STO +0 60100 0 00017
                 THROUGH FORLP, FOR J = BEGIN, +1, J .G. TMARG                      037  LM00057
 00215 CLA +0 50000 0 00006    00216 STO +0 60100 0 00015    00217 TRA +0 02000 0 00223    00220 CLA +0 50000 0 00015
 00221 ADD +0 40000 0 00022    00222 STO +0 60100 0 00015    00223 CLA +0 50000 0 00015    00224 SUB +0 40200 0 00020
 00225 TZE +0 10000 0 00227    00226 TPL +0 12000 0 00231
                   TRANSFER TO EN1                                                  038  LM00058
 00227 TRA +0 02000 0 00002
       FORLP       CONTINUE                                                         039  LM00059
 00230 TRA +0 02000 0 00220
                 TRANSFER TO LOOP                                                   040  LM00060
 00231 TRA +0 02000 0 00004
                 ENTRY TO CENTER.                                                   041  LM00064
 00232 TRA +0 02000 0 00235    00233 SXA +0 63400 2 00320    00234 TSX +0 07400 2 00320
                 WHENEVER NCHARS .GE. RMARG-1, FUNCTION RETURN                      042  LM00065
 00235 CLA +0 50000 0 00024    00236 SUB +0 40200 0 00022    00237 CHS +0 76000 0 00002    00240 ADD +0 40000 0 00024
 00241 TZE +0 10000 0 00243    00242 TMI -0 12000 0 00244    00243 TRA +0 02000 0 00371
                 DEL = (RMARG-NCHARS)/2                                             043  LM00066
 00244 CLA +0 50000 0 00024    00245 SUB +0 40200 0 00024    00246 LRS +0 76500 0 00043    00247 DVP +0 22100 0 00023
 00250 STQ -0 60000 0 00011
                 THROUGH CTRLP, FOR I = LENGTH, -1, I .L. 1                         044  LM00067
 00251 CLA +0 50000 0 00024    00252 STO +0 60100 0 00014    00253 TRA +0 02000 0 00257    00254 CLS +0 50200 0 00022
 00255 ADD +0 40000 0 00014    00256 STO +0 60100 0 00014    00257 CLA +0 50000 0 00014    00260 SUB +0 40200 0 00022
 00261 TZE +0 10000 0 00263    00262 TMI -0 12000 0 00272
       CTRLP       LINE(I+DEL) = LINE(I)                                            045  LM00068
 00263 CLA +0 50000 0 00014    00264 ADD +0 40000 0 00011    00265 PAX +0 73400 1 00000    00266 LXA +0 53400 2 00014
 00267 CLA +0 50000 2 00024    00270 STO +0 60100 1 00024    00271 TRA +0 02000 0 00254
                 THROUGH FILLUP, FOR I = 1, 1, I .G. DEL                            046  LM00069
 00272 CLA +0 50000 0 00022    00273 STO +0 60100 0 00014    00274 TRA +0 02000 0 00300    00275 CLA +0 50000 0 00014
 00276 ADD +0 40000 0 00022    00277 STO +0 60100 0 00014    00300 CLA +0 50000 0 00014    00301 SUB +0 40200 0 00011
 00302 TZE +0 10000 0 00304    00303 TPL +0 12000 0 00310
       FILLUP      LINE(I) = BLANK                                                  047  LM00070
 00304 LXA +0 53400 1 00014    00305 CLA +0 50000 0 00007    00306 STO +0 60100 1 00024    00307 TRA +0 02000 0 00275
                 LENGTH = LENGTH + DEL                                              048  LM00071
 00310 CLA +0 50000 0 00024    00311 ADD +0 40000 0 00011    00312 STO +0 60100 0 00024
                 NCHARS = NCHARS + DEL                                              049  LM00072
 00313 CLA +0 50000 0 00024    00314 ADD +0 40000 0 00011    00315 STO +0 60100 0 00024
                 FUNCTION RETURN                                                    050  LM00073
 00316 TRA +0 02000 0 00371
                 END OF FUNCTION                                                    051  LM00075
 00317 TSX +0 07400 4 00000    00320 TXH +3 00000 0 00000    00321 SXD -0 63400 1 00320    00322 SXA +0 63400 4 00371
 00323 CLA +0 50000 4 00001    00324 STA +0 62100 0 00056    00325 STA +0 62100 0 00070    00326 STA +0 62100 0 00126
 00327 STA +0 62100 0 00127    00330 STA +0 62100 0 00146    00331 STA +0 62100 0 00153    00332 STA +0 62100 0 00267
 00333 STA +0 62100 0 00270    00334 STA +0 62100 0 00306    00335 CLA +0 50000 4 00002    00336 STA +0 62100 0 00050
 00337 STA +0 62100 0 00101    00340 STA +0 62100 0 00110    00341 STA +0 62100 0 00112    00342 STA +0 62100 0 00157
 00343 STA +0 62100 0 00161    00344 STA +0 62100 0 00200    00345 STA +0 62100 0 00251    00346 STA +0 62100 0 00310
 00347 STA +0 62100 0 00312    00350 CLA +0 50000 4 00003    00351 STA +0 62100 0 00031    00352 STA +0 62100 0 00100
 00353 STA +0 62100 0 00166    00354 STA +0 62100 0 00235    00355 STA +0 62100 0 00244    00356 CLA +0 50000 4 00004
 00357 STA +0 62100 0 00030    00360 STA +0 62100 0 00102    00361 STA +0 62100 0 00162    00362 STA +0 62100 0 00164
 00363 STA +0 62100 0 00165    00364 STA +0 62100 0 00240    00365 STA +0 62100 0 00245    00366 STA +0 62100 0 00313
 00367 STA +0 62100 0 00315    00370 TRA +0 02000 2 00001    00371 AXT +0 77400 4 00000    00372 LXA +0 53400 2 00320
 00373 LXD -0 53400 1 00320    00374 TRA +0 02000 4 00001
1     MAD PROGRAM LISTING ... ... ...                 FILE    HDFT   MAD            02/08/68    1244.5
-
                 ..  ROUTINE TO SET UP HEADER AND FOOTER HFLINES.                                      LM00001
                 ..                                                                                    LM00002
                 ..  J. H. SALTZER, DECEMBER, 1965                                                     LM00003
                                                                                                       LM00004
                  EXTERNAL FUNCTION(HFLINE, HFLTH)                                                *001 LM00005
                                                                                                       LM00006
                  NORMAL MODE IS INTEGER                                                          *002 LM00007
                  BOOLEAN EVENPG                                                                  *003 LM00008
                  VECTOR VALUES BLANK = 0060K                                                     *004 LM00009
                  INSERT FILE RCOM                                                                *005 LM00010
                                                                                                  *005 LM00001
                 ..  RUNOFF COMMON PACKAGE.                                                       *005 LM00002
                                                                                                  *005 LM00003
                  NORMAL MODE IS INTEGER                                                          *006 LM00004
                                                                                                       LM00005
                  PROGRAM COMMON NOSTOP, NOWAIT, FSTPAG, PRINAM, OUTFIL                           *007 LM00006
                  PROGRAM COMMON HDLTH, HEAD(360), HDPOS                                          *008 LM00007
                  PROGRAM COMMON LINE(360)                                                        *009 LM00008
                  PROGRAM COMMON PGE, PAGENO, PGPOS, FTSW, PGMOD                                  *010 LM00009
                  PROGRAM COMMON PREFIX(25), PRLTH                                                *011 LM00010
                  PROGRAM COMMON RMARG                                                            *012 LM00011
                  PROGRAM COMMON WRD, SIZE, COUNT, WORD(360)                                      *013 LM00012
                  PROGRAM COMMON BEGIN, FILL, ADJST, NCHARS, LENGTH                               *014 LM00013
                  PROGRAM COMMON LMARG, LINECT, BOTLIN, CNTR, FILSW                               *015 LM00014
                  PROGRAM COMMON FLAGSW, DBLSPC, HEDPGE, PIX                                      *016 LM00015
                  PROGRAM COMMON MROW, TBTLIN, TBTPAG                                             *017 LM00016
                  PROGRAM COMMON TPGPOS, TFTSW, TPGE, TPRF(25)                                    *018 LM00017
                  PROGRAM COMMON TPRLTH, THDPOS, TPAGNO, TPGMOD                                   *019 LM00018
                  PROGRAM COMMON BOTPAG, FLAG(3)                                                  *020 LM00019
                  PROGRAM COMMON BLANK, BCKSPC, RETURN(3)                                         *021 LM00020
                  PROGRAM COMMON TAB, PERIOD, QUES, EXCLAM                                        *022 LM00021
                  PROGRAM COMMON COLON, HYPHEN, NULL                                              *023 LM00022
                                                                                                       LM00023
                  BOOLEAN NOSTOP, NOWAIT, FTSW, PGE, OUTFIL                                       *024 LM00024
                  BOOLEAN ADJST                                                                   *025 LM00025
                  BOOLEAN WRD, FILL, BEGIN, CNTR, FILSW, FLAGSW                                   *026 LM00026
                  BOOLEAN DBLSPC, HEDPGE, PIX, TPGE, TFTSW                                        *027 LM00027
                                                                                                       LM00028
                 ..  END OF RUNOFF COMMON PACKAGE                                                      LM00029
                                                                                                       LM00030
                                                                                                  *005 LM00011
                  ENTRY TO SETHD.                                                                 *028 LM00012
                    I = 1                                                                         *029 LM00013
                    HFLTH = 0                                                                     *030 LM00014
                    EVENPG = (PAGENO/2)*2 .E. PAGENO                                              *031 LM00015
                    WHENEVER HDLTH .E. 0, TRANSFER TO PAGET                                       *032 LM00016
                                                                                                       LM00017
                 ..  SET Z TO POSITION OF HEADER.                                                      LM00018
                                                                                                       LM00019
                    WHENEVER HDPOS .E. $CENTER$                                                   *033 LM00020
                      Z = (RMARG - HDLTH) / 2                                                     *034 LM00021
                    OR WHENEVER HDPOS .E. $FACING$ .AND. EVENPG                                   *035 LM00022
                      Z = 0                                                                       *036 LM00023
                    OR WHENEVER HDPOS .E. $MARGIN$ .OR. HDPOS .E. $FACING$                        *037 LM00024
                      Z = RMARG - HDLTH                                                           *038 LM00025
                    OR WHENEVER HDPOS .E. $PPOSED$                                                *039 LM00026
                      WHENEVER EVENPG .AND. PGPOS .E. $FACING$                                    *040 LM00027
                        Z = RMARG - HDLTH                                                         *041 LM00028
                      OTHERWISE                                                                   *042 LM00029
                        Z = 0                                                                     *043 LM00030
                      END OF CONDITIONAL                                                          *044 LM00031
                    END OF CONDITIONAL                                                            *045 LM00032
                                                                                                       LM00033
                 ..  PACK BLANKS AHEAD OF THE HEADER.                                                  LM00034
                                                                                                       LM00035
                    THROUGH PADHD, FOR I = 1, 1, I .G. Z                                          *046 LM00036
      PADHD           HFLINE(I) = BLANK                                                           *047 LM00037
                                                                                                       LM00038
                 ..  NOW INSERT THE HEADER.                                                            LM00039
                                                                                                       LM00040
                    THROUGH INHEAD, FOR I = Z+1, 1, I .G. (Z+HDLTH)                               *048 LM00041
      INHEAD          HFLINE(I) = HEAD(I-Z)                                                       *049 LM00042
                    HFLTH = I-1                                                                   *050 LM00043
                                                                                                       LM00044
                 ..  GO GET THE PAGE NUMBER, IF ANY.                                                   LM00045
                                                                                                       LM00046
      PAGET         WHENEVER .NOT.FTSW, TRANSFER TO FOOT                                          *051 LM00047
                    FUNCTION RETURN                                                               *052 LM00048
                                                                                                       LM00049
                  ENTRY TO SETFT.                                                                 *053 LM00050
                    HFLTH = 0                                                                     *054 LM00051
                    WHENEVER .NOT.FTSW, FUNCTION RETURN                                           *055 LM00052
                    I = 1                                                                         *056 LM00053
                    EVENPG = (PAGENO/2)*2 .NE. PAGENO                                             *057 LM00054
                                                                                                       LM00055
      FOOT          WHENEVER .NOT. PGE, FUNCTION RETURN                                           *058 LM00056
                    NMLTH = NUMCON.(PAGENO, PREFIX(PRLTH), PGMOD) + PRLTH                         *059 LM00057
                                                                                                       LM00058
                 ..  SET Z TO POSITION OF PAGE NUMBER.                                                 LM00059
                                                                                                       LM00060
                    WHENEVER PGPOS .E. $CENTER$                                                   *060 LM00061
                      Z = (RMARG-NMLTH)/2                                                         *061 LM00062
                    OR WHENEVER PGPOS .E. $FACING$ .AND. EVENPG                                   *062 LM00063
                      Z = 0                                                                       *063 LM00064
                    OTHERWISE                                                                     *064 LM00065
                      Z = RMARG - NMLTH                                                           *065 LM00066
                    END OF CONDITIONAL                                                            *066 LM00067
                                                                                                       LM00068
                 ..  PACK BLANKS IF NOT ALREADY THERE.                                                 LM00069
                                                                                                       LM00070
                    THROUGH PADFT, FOR I = I, 1, I .G. Z                                          *067 LM00071
      PADFT           HFLINE(I) = BLANK                                                           *068 LM00072
                                                                                                       LM00073
                 ..  INSERT PAGE NUMBER.                                                               LM00074
                                                                                                       LM00075
                    THROUGH INPAGE, FOR I = Z+1, 1, I .G. (Z+NMLTH)                               *069 LM00076
      INPAGE          HFLINE(I) = PREFIX(I-Z)                                                     *070 LM00077
                                                                                                       LM00078
                    WHENEVER HFLTH .L. I-1, HFLTH = I-1                                           *071 LM00079
                    FUNCTION RETURN                                                               *072 LM00080
                                                                                                       LM00081
                  END OF FUNCTION                                                                 *073 LM00082
1MAD PROGRAM,TYPE NOV 1963      (ALL NUMBERS ARE OCTAL)
0TOTAL LOCATIONS   00363 TRANSFER VECTOR LENGTH  00002 PROGRAM BEGINS    00021 FIRST UNUSED COMMON/ERASABLE  75207
0 PROGRAM IS AN EXTERNAL FUNCTION.   THE FOLLOWING ARE ENTRIES
      SETFT  00173   0        SETHD  00022   0
0VARIABLE STORAGE (A=ARRAY,C=COMMON,E=ERASABLE,DIGIT=MODE)
      ADJST  75311  C2        FLAG   75230 AC1        LINECT 75305  C1        PERIOD 75215  C1        TBTLIN 75274  C1
      BCKSPC 75223  C1        FLAGSW 75301  C2        LINE   76701 AC1        PGE    76130  C2        TBTPAG 75273  C1
      BEGIN  75313  C2        FOOT   00003   4        LMARG  75306  C1        PGMOD  76124  C1        TFTSW  75271  C2
      BLANK  75224 AC1        FSTPAG 77457  C1        MROW   75275  C1        PGPOS  76126  C1        THDPOS 75234  C1
      BOTLIN 75304  C1        FTSW   76125  C2        NCHARS 75310  C1        PIX    75276  C2        TPAGNO 75233  C1
      BOTPAG 75231  C1        HDLTH  77454  C1        NMLTH  00007   1        PREFIX 76123 AC1        TPGE   75270  C2
      CNTR   75303  C2        HDPOS  76702  C1        NOSTOP 77461  C2        PRINAM 77456  C1        TPGMOD 75232  C1
      COLON  75212  C1        HEAD   77453 AC1        NOWAIT 77460  C2        PRLTH  76071  C1        TPGPOS 75272  C1
      COUNT  76065  C1        HEDPGE 75277  C2        NULL   75210  C1        QUES   75214  C1        TPRF   75267 AC1
      DBLSPC 75300  C2        HYPHEN 75211  C1        OUTFIL 77455  C2        RETURN 75222 AC1        TPRLTH 75235  C1
      EVENPG 00005   2        INHEAD 00002   4        PADFT  00002   4        RMARG  76070  C1        WORD   76064 AC1
      EXCLAM 75213  C1        INPAGE 00002   4        PADHD  00002   4        SIZE   76066  C1        WRD    76067  C2
      FILL   75312  C2        I      00006   1        PAGENO 76127  C1        TAB    75216  C1        Z      00010   1
      FILSW  75302  C2        LENGTH 75307  C1        PAGET  00004   4
0FUNCTION DICTIONARY
      EXIT   00000   1        NUMCON 00001   1
0ABSOLUTE CONSTANTS
 00020 -074746622524     00017 -042151273145     00016 +262123314527     00014 +232545632551     00013 +000000000002
 00011 +000000000000     00012 +000000000001     00015 +233000000000
0STATEMENT DICTIONARY
 00003 TXL -300223000220       00004 TXL -300171000166
0PROGRAM
                 EXTERNAL FUNCTION(HFLINE, HFLTH)                                   001  LM00005
                 NORMAL MODE IS INTEGER                                             002  LM00007
                 BOOLEAN EVENPG                                                     003  LM00008
                 VECTOR VALUES BLANK = 0060K                                        004  LM00009
 75224     +0 00000 0 00060
                 INSERT FILE RCOM                                                   005  LM00010
                 NORMAL MODE IS INTEGER                                             006  LM00004
                 PROGRAM COMMON NOSTOP, NOWAIT, FSTPAG, PRINAM, OUTFIL              007  LM00006
                 PROGRAM COMMON HDLTH, HEAD(360), HDPOS                             008  LM00007
                 PROGRAM COMMON LINE(360)                                           009  LM00008
                 PROGRAM COMMON PGE, PAGENO, PGPOS, FTSW, PGMOD                     010  LM00009
                 PROGRAM COMMON PREFIX(25), PRLTH                                   011  LM00010
                 PROGRAM COMMON RMARG                                               012  LM00011
                 PROGRAM COMMON WRD, SIZE, COUNT, WORD(360)                         013  LM00012
                 PROGRAM COMMON BEGIN, FILL, ADJST, NCHARS, LENGTH                  014  LM00013
                 PROGRAM COMMON LMARG, LINECT, BOTLIN, CNTR, FILSW                  015  LM00014
                 PROGRAM COMMON FLAGSW, DBLSPC, HEDPGE, PIX                         016  LM00015
                 PROGRAM COMMON MROW, TBTLIN, TBTPAG                                017  LM00016
                 PROGRAM COMMON TPGPOS, TFTSW, TPGE, TPRF(25)                       018  LM00017
                 PROGRAM COMMON TPRLTH, THDPOS, TPAGNO, TPGMOD                      019  LM00018
                 PROGRAM COMMON BOTPAG, FLAG(3)                                     020  LM00019
                 PROGRAM COMMON BLANK, BCKSPC, RETURN(3)                            021  LM00020
                 PROGRAM COMMON TAB, PERIOD, QUES, EXCLAM                           022  LM00021
                 PROGRAM COMMON COLON, HYPHEN, NULL                                 023  LM00022
                 BOOLEAN NOSTOP, NOWAIT, FTSW, PGE, OUTFIL                          024  LM00024
                 BOOLEAN ADJST                                                      025  LM00025
                 BOOLEAN WRD, FILL, BEGIN, CNTR, FILSW, FLAGSW                      026  LM00026
                 BOOLEAN DBLSPC, HEDPGE, PIX, TPGE, TFTSW                           027  LM00027
                 ENTRY TO SETHD.                                                    028  LM00012
 00021 TRA +0 02000 0 00024    00022 SXA +0 63400 2 00336    00023 TSX +0 07400 2 00336
                   I = 1                                                            029  LM00013
 00024 CLA +0 50000 0 00012    00025 STO +0 60100 0 00006
                   HFLTH = 0                                                        030  LM00014
 00026 CLA +0 50000 0 00011    00027 STO +0 60100 0 00000
                   EVENPG = (PAGENO/2)*2 .E. PAGENO                                 031  LM00015
 00030 LDQ +0 56000 0 76127    00031 PXD -0 75400 0 00000    00032 LLS +0 76300 0 00000    00033 DVP +0 22100 0 00013
 00034 MPY +0 20000 0 00013    00035 XCA +0 13100 0 00000    00036 SUB +0 40200 0 76127    00037 TZE +0 10000 0 00042
 00040 PXD -0 75400 0 00000    00041 TRA +0 02000 0 00043    00042 CLA +0 50000 0 00012    00043 STO +0 60100 0 00005
                   WHENEVER HDLTH .E. 0, TRANSFER TO PAGET                          032  LM00016
 00044 CLA +0 50000 0 77454    00045 SUB +0 40200 0 00011    00046 TNZ -0 10000 0 00050    00047 TRA +0 02000 0 00004
                   WHENEVER HDPOS .E. $CENTER$                                      033  LM00020
 00050 CLA +0 50000 0 76702    00051 SUB +0 40200 0 00014    00052 TNZ -0 10000 0 00061
                     Z = (RMARG - HDLTH) / 2                                        034  LM00021
 00053 CLA +0 50000 0 76070    00054 SUB +0 40200 0 77454    00055 LRS +0 76500 0 00043    00056 DVP +0 22100 0 00013
 00057 STQ -0 60000 0 00010
                   OR WHENEVER HDPOS .E. $FACING$ .AND. EVENPG                      035  LM00022
 00060 TRA +0 02000 0 00121    00061 NZT -0 52000 0 00005    00062 TRA +0 02000 0 00071    00063 CLA +0 50000 0 76702
 00064 SUB +0 40200 0 00016    00065 TNZ -0 10000 0 00071
                     Z = 0                                                          036  LM00023
 00066 CLA +0 50000 0 00011    00067 STO +0 60100 0 00010
                   OR WHENEVER HDPOS .E. $MARGIN$ .OR. HDPOS .E. $FACING$           037  LM00024
 00070 TRA +0 02000 0 00121    00071 CLA +0 50000 0 76702    00072 SUB +0 40200 0 00016    00073 TZE +0 10000 0 00077
 00074 CLA +0 50000 0 76702    00075 SUB +0 40200 0 00017    00076 TNZ -0 10000 0 00103
                     Z = RMARG - HDLTH                                              038  LM00025
 00077 CLA +0 50000 0 76070    00100 SUB +0 40200 0 77454    00101 STO +0 60100 0 00010
                   OR WHENEVER HDPOS .E. $PPOSED$                                   039  LM00026
 00102 TRA +0 02000 0 00121    00103 CLA +0 50000 0 76702    00104 SUB +0 40200 0 00020    00105 TNZ -0 10000 0 00121
                     WHENEVER EVENPG .AND. PGPOS .E. $FACING$                       040  LM00027
 00106 CLA +0 50000 0 76126    00107 SUB +0 40200 0 00016    00110 TNZ -0 10000 0 00117    00111 NZT -0 52000 0 00005
 00112 TRA +0 02000 0 00117
                       Z = RMARG - HDLTH                                            041  LM00028
 00113 CLA +0 50000 0 76070    00114 SUB +0 40200 0 77454    00115 STO +0 60100 0 00010
                     OTHERWISE                                                      042  LM00029
 00116 TRA +0 02000 0 00121
                       Z = 0                                                        043  LM00030
 00117 CLA +0 50000 0 00011    00120 STO +0 60100 0 00010
                     END OF CONDITIONAL                                             044  LM00031
                   END OF CONDITIONAL                                               045  LM00032
                   THROUGH PADHD, FOR I = 1, 1, I .G. Z                             046  LM00036
 00121 CLA +0 50000 0 00012    00122 STO +0 60100 0 00006    00123 TRA +0 02000 0 00127    00124 CLA +0 50000 0 00006
 00125 ADD +0 40000 0 00012    00126 STO +0 60100 0 00006    00127 CLA +0 50000 0 00006    00130 SUB +0 40200 0 00010
 00131 TZE +0 10000 0 00133    00132 TPL +0 12000 0 00137
      PADHD          HFLINE(I) = BLANK                                              047  LM00037
 00133 LXA +0 53400 1 00006    00134 CLA +0 50000 0 75224    00135 STO +0 60100 1 00000    00136 TRA +0 02000 0 00124
                   THROUGH INHEAD, FOR I = Z+1, 1, I .G. (Z+HDLTH)                  048  LM00041
 00137 CLA +0 50000 0 00010    00140 ADD +0 40000 0 00012    00141 STO +0 60100 0 00006    00142 TRA +0 02000 0 00146
 00143 CLA +0 50000 0 00006    00144 ADD +0 40000 0 00012    00145 STO +0 60100 0 00006    00146 CLA +0 50000 0 00010
 00147 ADD +0 40000 0 77454    00150 CHS +0 76000 0 00002    00151 ADD +0 40000 0 00006    00152 TZE +0 10000 0 00154
 00153 TPL +0 12000 0 00163
      INHEAD         HFLINE(I) = HEAD(I-Z)                                          049  LM00042
 00154 CLA +0 50000 0 00006    00155 SUB +0 40200 0 00010    00156 LXA +0 53400 1 00006    00157 PAX +0 73400 2 00000
 00160 CLA +0 50000 2 77453    00161 STO +0 60100 1 00000    00162 TRA +0 02000 0 00143
                   HFLTH = I-1                                                      050  LM00043
 00163 CLA +0 50000 0 00006    00164 SUB +0 40200 0 00012    00165 STO +0 60100 0 00000
      PAGET        WHENEVER .NOT.FTSW, TRANSFER TO FOOT                             051  LM00047
 00166 ZET +0 52000 0 76125    00167 TRA +0 02000 0 00171    00170 TRA +0 02000 0 00003
                   FUNCTION RETURN                                                  052  LM00048
 00171 TRA +0 02000 0 00355
                 ENTRY TO SETFT.                                                    053  LM00050
 00172 TRA +0 02000 0 00175    00173 SXA +0 63400 2 00336    00174 TSX +0 07400 2 00336
                   HFLTH = 0                                                        054  LM00051
 00175 CLA +0 50000 0 00011    00176 STO +0 60100 0 00000
                   WHENEVER .NOT.FTSW, FUNCTION RETURN                              055  LM00052
 00177 ZET +0 52000 0 76125    00200 TRA +0 02000 0 00202    00201 TRA +0 02000 0 00355
                   I = 1                                                            056  LM00053
 00202 CLA +0 50000 0 00012    00203 STO +0 60100 0 00006
                   EVENPG = (PAGENO/2)*2 .NE. PAGENO                                057  LM00054
 00204 LDQ +0 56000 0 76127    00205 PXD -0 75400 0 00000    00206 LLS +0 76300 0 00000    00207 DVP +0 22100 0 00013
 00210 MPY +0 20000 0 00013    00211 XCA +0 13100 0 00000    00212 SUB +0 40200 0 76127    00213 TNZ -0 10000 0 00216
 00214 PXD -0 75400 0 00000    00215 TRA +0 02000 0 00217    00216 CLA +0 50000 0 00012    00217 STO +0 60100 0 00005
      FOOT         WHENEVER .NOT. PGE, FUNCTION RETURN                              058  LM00056
 00220 ZET +0 52000 0 76130    00221 TRA +0 02000 0 00223    00222 TRA +0 02000 0 00355
                   NMLTH = NUMCON.(PAGENO, PREFIX(PRLTH), PGMOD) + PRLTH            059  LM00057
 00223 CLA +0 50000 0 76071    00224 SUB +0 40200 0 00225    00225 TXH +3 00000 0 76123    00226 STA +0 62100 0 00231
 00227 TSX +0 07400 4 00001    00230 TXH +3 00000 0 76127    00231 TXH +3 00000 0 00000    00232 TXH +3 00000 0 76124
 00233 ADD +0 40000 0 76071    00234 STO +0 60100 0 00007
                   WHENEVER PGPOS .E. $CENTER$                                      060  LM00061
 00235 CLA +0 50000 0 76126    00236 SUB +0 40200 0 00014    00237 TNZ -0 10000 0 00246
                     Z = (RMARG-NMLTH)/2                                            061  LM00062
 00240 CLA +0 50000 0 76070    00241 SUB +0 40200 0 00007    00242 LRS +0 76500 0 00043    00243 DVP +0 22100 0 00013
 00244 STQ -0 60000 0 00010
                   OR WHENEVER PGPOS .E. $FACING$ .AND. EVENPG                      062  LM00063
 00245 TRA +0 02000 0 00261    00246 NZT -0 52000 0 00005    00247 TRA +0 02000 0 00256    00250 CLA +0 50000 0 76126
 00251 SUB +0 40200 0 00016    00252 TNZ -0 10000 0 00256
                     Z = 0                                                          063  LM00064
 00253 CLA +0 50000 0 00011    00254 STO +0 60100 0 00010
                   OTHERWISE                                                        064  LM00065
 00255 TRA +0 02000 0 00261
                     Z = RMARG - NMLTH                                              065  LM00066
 00256 CLA +0 50000 0 76070    00257 SUB +0 40200 0 00007    00260 STO +0 60100 0 00010
                   END OF CONDITIONAL                                               066  LM00067
                   THROUGH PADFT, FOR I = I, 1, I .G. Z                             067  LM00071
 00261 CLA +0 50000 0 00006    00262 STO +0 60100 0 00006    00263 TRA +0 02000 0 00267    00264 CLA +0 50000 0 00006
 00265 ADD +0 40000 0 00012    00266 STO +0 60100 0 00006    00267 CLA +0 50000 0 00006    00270 SUB +0 40200 0 00010
 00271 TZE +0 10000 0 00273    00272 TPL +0 12000 0 00277
      PADFT          HFLINE(I) = BLANK                                              068  LM00072
 00273 LXA +0 53400 1 00006    00274 CLA +0 50000 0 75224    00275 STO +0 60100 1 00000    00276 TRA +0 02000 0 00264
                   THROUGH INPAGE, FOR I = Z+1, 1, I .G. (Z+NMLTH)                  069  LM00076
 00277 CLA +0 50000 0 00010    00300 ADD +0 40000 0 00012    00301 STO +0 60100 0 00006    00302 TRA +0 02000 0 00306
 00303 CLA +0 50000 0 00006    00304 ADD +0 40000 0 00012    00305 STO +0 60100 0 00006    00306 CLA +0 50000 0 00010
 00307 ADD +0 40000 0 00007    00310 CHS +0 76000 0 00002    00311 ADD +0 40000 0 00006    00312 TZE +0 10000 0 00314
 00313 TPL +0 12000 0 00323
      INPAGE         HFLINE(I) = PREFIX(I-Z)                                        070  LM00077
 00314 CLA +0 50000 0 00006    00315 SUB +0 40200 0 00010    00316 LXA +0 53400 1 00006    00317 PAX +0 73400 2 00000
 00320 CLA +0 50000 2 76123    00321 STO +0 60100 1 00000    00322 TRA +0 02000 0 00303
                   WHENEVER HFLTH .L. I-1, HFLTH = I-1                              071  LM00079
 00323 CLA +0 50000 0 00006    00324 SUB +0 40200 0 00012    00325 CHS +0 76000 0 00002    00326 ADD +0 40000 0 00000
 00327 TZE +0 10000 0 00334    00330 TPL +0 12000 0 00334    00331 CLA +0 50000 0 00006    00332 SUB +0 40200 0 00012
 00333 STO +0 60100 0 00000
                   FUNCTION RETURN                                                  072  LM00080
 00334 TRA +0 02000 0 00355
                 END OF FUNCTION                                                    073  LM00082
 00335 TSX +0 07400 4 00000    00336 TXH +3 00000 0 00000    00337 SXD -0 63400 1 00336    00340 SXA +0 63400 4 00355
 00341 CLA +0 50000 4 00001    00342 STA +0 62100 0 00135    00343 STA +0 62100 0 00161    00344 STA +0 62100 0 00275
 00345 STA +0 62100 0 00321    00346 CLA +0 50000 4 00002    00347 STA +0 62100 0 00027    00350 STA +0 62100 0 00165
 00351 STA +0 62100 0 00176    00352 STA +0 62100 0 00326    00353 STA +0 62100 0 00333    00354 TRA +0 02000 2 00001
 00355 AXT +0 77400 4 00000    00356 LXA +0 53400 2 00336    00357 LXD -0 53400 1 00336    00360 TRA +0 02000 4 00001
1     MAD PROGRAM LISTING ... ... ...                 FILE  NUMCON   MAD            02/08/68    1245.5
-
                 ..  BINARY NUMBER TO CHARACTER STRING CONVERSION.                                     LM00001
                                                                                                       LM00002
                 ..  CALLING SEQUENCE...                                                               LM00003
                 ..      Z = NUMCON.(INT, LOC, MODE)                                                   LM00004
                     WHERE                                                                             LM00005
                 ..      INT IS THE NUMBER TO BE CONVERTED                                             LM00006
                 ..   LOC(1) IS FIRST LOCATION TO RECEIVE OUTPUT.                                      LM00007
                      MODE IS ARABIC FOR ARABIC                                                        LM00008
                              ROMANU FOR UPPER CASE ROMAN                                              LM00009
                              ROMANL FOR LOWER CASE ROMAN.                                             LM00010
                 ..        Z IS LENGTH OF OUTPUT STRING.                                               LM00011
                                                                                                       LM00012
                  EXTERNAL FUNCTION(INT, LOC, MODE)                                               *001 LM00013
                                                                                                       LM00014
                    NORMAL MODE IS INTEGER                                                        *002 LM00015
                    VECTOR VALUES PLACE(1) = $00000I$, $00000V$, $00000X$,                        *003 LM00016
                1      $00000L$, $00000C$, $00000D$, $00000M$                                     *003 LM00017
                    VECTOR VALUES NMODES = 3                                                      *004 LM00018
                    VECTOR VALUES XMODE(1) = $ARABIC$,$ROMANU$,$ROMANL$                           *005 LM00019
                    VECTOR VALUES CONV(1) = ARABIC, ROMANU, ROMANL                                *006 LM00020
                  DIMENSION OBUF(16)                                                              *007 LM00021
                                                                                                       LM00022
                  ENTRY TO NUMCON.                                                                *008 LM00023
                    Q = 0                                                                         *009 LM00024
                    K = INT                                                                       *010 LM00025
                    CASEBT = 0                                                                    *011 LM00026
                    THROUGH DSPTCH, FOR I = 1, 1, I .G. NMODES                                    *012 LM00027
      DSPTCH          WHENEVER XMODE(I) .E. MODE, TRANSFER TO CONV(I)                             *013 LM00028
                    FUNCTION RETURN                                                               *014 LM00029
                                                                                                       LM00030
      . . . .    ..  CONVERT TO ARABIC NUMBERS . . . . . .                                             LM00031
                                                                                                       LM00032
      ARABIC        OUT.(K - (K/10)*10)                                                           *015 LM00033
                    K = K/10                                                                      *016 LM00034
                    WHENEVER K .G. 0, TRANSFER TO ARABIC                                          *017 LM00035
                    TRANSFER TO DONE                                                              *018 LM00036
                                                                                                       LM00037
      . . . .    ..  CONVERT TO ROMAN NUMERALS . . . . . .                                             LM00038
                                                                                                       LM00039
      ROMANL        CASEBT = $000010$                                                             *019 LM00040
                                                                                                       LM00041
      ROMANU      THROUGH SCAN, FOR J = 1, 2, K .E. 0                                             *020 LM00042
                    R1 = K-(K/5)*5                                                                *021 LM00043
                    K = K/5                                                                       *022 LM00044
                    R2 = K-(K/2)*2                                                                *023 LM00045
                    K = K/2                                                                       *024 LM00046
                                                                                                       LM00047
                    WHENEVER R1 .E. 4                                                             *025 LM00048
                      WHENEVER R2 .E. 0                                                           *026 LM00049
                        OUT.(PLACE(J+1))                                                          *027 LM00050
                      OTHERWISE                                                                   *028 LM00051
                        OUT.(PLACE(J+2))                                                          *029 LM00052
                      END OF CONDITIONAL                                                          *030 LM00053
                      OUT.(PLACE(J))                                                              *031 LM00054
                    OTHERWISE                                                                     *032 LM00055
                      THROUGH COUNT, FOR I = 1, 1, I .G. R1                                       *033 LM00056
      COUNT             OUT.(PLACE(J))                                                            *034 LM00057
                      WHENEVER R2 .E. 1, OUT.(PLACE(J+1))                                         *035 LM00058
      SCAN          END OF CONDITIONAL                                                            *036 LM00059
                                                                                                       LM00060
      DONE          THROUGH OUTPUT, FOR K = 1, 1, K .G. Q                                         *037 LM00061
      OUTPUT          LOC(K) = OBUF(Q-K+1)                                                        *038 LM00062
                    FUNCTION RETURN Q                                                             *039 LM00063
                                                                                                       LM00064
                    INTERNAL FUNCTION(X)                                                          *040 LM00065
                      ENTRY TO OUT.                                                               *041 LM00066
                        Q = Q + 1                                                                 *042 LM00067
                        OBUF(Q) = X .V. CASEBT                                                    *043 LM00068
                        FUNCTION RETURN                                                           *044 LM00069
                    END OF FUNCTION                                                               *045 LM00070
                                                                                                       LM00071
                  END OF FUNCTION                                                                 *046 LM00072
1MAD PROGRAM,TYPE NOV 1963      (ALL NUMBERS ARE OCTAL)
0TOTAL LOCATIONS   00405 TRANSFER VECTOR LENGTH  00001 PROGRAM BEGINS    00070
0 PROGRAM IS AN EXTERNAL FUNCTION.   THE FOLLOWING ARE ENTRIES
      NUMCON 00071   0
0VARIABLE STORAGE (A=ARRAY,C=COMMON,E=ERASABLE,DIGIT=MODE)
      ARABIC 00003   4        DONE   00010   4        K      00016   1        PLACE  00050 A 1        ROMANL 00011   4
      CASEBT 00013   1        DSPTCH 00002   4        NMODES 00017 A 1        Q      00051   1        ROMANU 00012   4
      CONV   00007 A 4        I      00014   1        OBUF   00040 A 1        R1     00052   1        SCAN   00002   4
      COUNT  00002   4        J      00015   1        OUTPUT 00002   4        R2     00053   1        XMODE  00057 A 1
0FUNCTION DICTIONARY
      EXIT   00000   1        OUT    00001   1
0ABSOLUTE CONSTANTS
 00063 +000000000004     00064 +000000000005     00062 +000000000002     00066 +000000000100     00065 +000000000012
 00060 +000000000000     00061 +000000000001     00067 +233000000000
0STATEMENT DICTIONARY
 00003 TXL -300136000123       00010 TXL -300322000310       00011 TXL -300153000151       00012 TXL -300164000153
0PROGRAM
                 EXTERNAL FUNCTION(INT, LOC, MODE)                                  001  LM00013
                   NORMAL MODE IS INTEGER                                           002  LM00015
                   VECTOR VALUES PLACE(1) = $00000I$, $00000V$, $00000X$,           003  LM00016
                1     $00000L$, $00000C$, $00000D$, $00000M$                        003  LM00017
 00041     +0 00000 0 00044    00042     +0 00000 0 00024    00043     +0 00000 0 00023    00044     +0 00000 0 00043
 00045     +0 00000 0 00067    00046     +0 00000 0 00065    00047     +0 00000 0 00031
                   VECTOR VALUES NMODES = 3                                         004  LM00018
 00017     +0 00000 0 00003
                   VECTOR VALUES XMODE(1) = $ARABIC$,$ROMANU$,$ROMANL$              005  LM00019
 00054     -1 14644 2 14543    00055     -1 14644 2 14564    00056     +2 15121 2 23123
                   VECTOR VALUES CONV(1) = ARABIC, ROMANU, ROMANL                   006  LM00020
 00004 TXL -3 00000 0 00011    00005 TXL -3 00000 0 00012    00006 TXL -3 00000 0 00003
                 DIMENSION OBUF(16)                                                 007  LM00021
                 ENTRY TO NUMCON.                                                   008  LM00023
 00070 TRA +0 02000 0 00073    00071 SXA +0 63400 2 00364    00072 TSX +0 07400 2 00364
                   Q = 0                                                            009  LM00024
 00073 CLA +0 50000 0 00060    00074 STO +0 60100 0 00051
                   K = INT                                                          010  LM00025
 00075 CLA +0 50000 0 00024    00076 STO +0 60100 0 00016
                   CASEBT = 0                                                       011  LM00026
 00077 CLA +0 50000 0 00060    00100 STO +0 60100 0 00013
                   THROUGH DSPTCH, FOR I = 1, 1, I .G. NMODES                       012  LM00027
 00101 CLA +0 50000 0 00061    00102 STO +0 60100 0 00014    00103 TRA +0 02000 0 00107    00104 CLA +0 50000 0 00014
 00105 ADD +0 40000 0 00061    00106 STO +0 60100 0 00014    00107 CLA +0 50000 0 00014    00110 SUB +0 40200 0 00017
 00111 TZE +0 10000 0 00113    00112 TPL +0 12000 0 00122
      DSPTCH         WHENEVER XMODE(I) .E. MODE, TRANSFER TO CONV(I)                013  LM00028
 00113 LXA +0 53400 1 00014    00114 CLA +0 50000 1 00057    00115 SUB +0 40200 0 00024    00116 TNZ -0 10000 0 00121
 00117 LXA +0 53400 2 00014    00120 TRA +0 02000 2 00007    00121 TRA +0 02000 0 00104
                   FUNCTION RETURN                                                  014  LM00029
 00122 TRA +0 02000 0 00376
      ARABIC       OUT.(K - (K/10)*10)                                              015  LM00033
 00123 LDQ +0 56000 0 00016    00124 PXD -0 75400 0 00000    00125 LLS +0 76300 0 00000    00126 DVP +0 22100 0 00065
 00127 MPY +0 20000 0 00065    00130 XCA +0 13100 0 00000    00131 CHS +0 76000 0 00002    00132 ADD +0 40000 0 00016
 00133 STO +0 60100 0 00402    00134 TSX +0 07400 4 00001    00135 TXH +3 00000 0 00402
                   K = K/10                                                         016  LM00034
 00136 LDQ +0 56000 0 00016    00137 PXD -0 75400 0 00000    00140 LLS +0 76300 0 00000    00141 DVP +0 22100 0 00065
 00142 STQ -0 60000 0 00016
                   WHENEVER K .G. 0, TRANSFER TO ARABIC                             017  LM00035
 00143 CLA +0 50000 0 00016    00144 SUB +0 40200 0 00060    00145 TZE +0 10000 0 00150    00146 TMI -0 12000 0 00150
 00147 TRA +0 02000 0 00003
                   TRANSFER TO DONE                                                 018  LM00036
 00150 TRA +0 02000 0 00010
      ROMANL       CASEBT = $000010$                                                019  LM00040
 00151 CLA +0 50000 0 00066    00152 STO +0 60100 0 00013
      ROMANU     THROUGH SCAN, FOR J = 1, 2, K .E. 0                                020  LM00042
 00153 CLA +0 50000 0 00061    00154 STO +0 60100 0 00015    00155 TRA +0 02000 0 00161    00156 CLA +0 50000 0 00015
 00157 ADD +0 40000 0 00062    00160 STO +0 60100 0 00015    00161 CLA +0 50000 0 00016    00162 SUB +0 40200 0 00060
 00163 TZE +0 10000 0 00310
                   R1 = K-(K/5)*5                                                   021  LM00043
 00164 LDQ +0 56000 0 00016    00165 PXD -0 75400 0 00000    00166 LLS +0 76300 0 00000    00167 DVP +0 22100 0 00064
 00170 MPY +0 20000 0 00064    00171 XCA +0 13100 0 00000    00172 CHS +0 76000 0 00002    00173 ADD +0 40000 0 00016
 00174 STO +0 60100 0 00052
                   K = K/5                                                          022  LM00044
 00175 LDQ +0 56000 0 00016    00176 PXD -0 75400 0 00000    00177 LLS +0 76300 0 00000    00200 DVP +0 22100 0 00064
 00201 STQ -0 60000 0 00016
                   R2 = K-(K/2)*2                                                   023  LM00045
 00202 LDQ +0 56000 0 00016    00203 PXD -0 75400 0 00000    00204 LLS +0 76300 0 00000    00205 DVP +0 22100 0 00062
 00206 MPY +0 20000 0 00062    00207 XCA +0 13100 0 00000    00210 CHS +0 76000 0 00002    00211 ADD +0 40000 0 00016
 00212 STO +0 60100 0 00053
                   K = K/2                                                          024  LM00046
 00213 LDQ +0 56000 0 00016    00214 PXD -0 75400 0 00000    00215 LLS +0 76300 0 00000    00216 DVP +0 22100 0 00062
 00217 STQ -0 60000 0 00016
                   WHENEVER R1 .E. 4                                                025  LM00048
 00220 CLA +0 50000 0 00052    00221 SUB +0 40200 0 00063    00222 TNZ -0 10000 0 00254
                     WHENEVER R2 .E. 0                                              026  LM00049
 00223 CLA +0 50000 0 00053    00224 SUB +0 40200 0 00060    00225 TNZ -0 10000 0 00236
                       OUT.(PLACE(J+1))                                             027  LM00050
 00226 CLA +0 50000 0 00015    00227 ADD +0 40000 0 00061    00230 SUB +0 40200 0 00231    00231 TXH +3 00000 0 00050
 00232 STA +0 62100 0 00234    00233 TSX +0 07400 4 00001    00234 TXH +3 00000 0 00000
                     OTHERWISE                                                      028  LM00051
 00235 TRA +0 02000 0 00245
                       OUT.(PLACE(J+2))                                             029  LM00052
 00236 CLA +0 50000 0 00015    00237 ADD +0 40000 0 00062    00240 SUB +0 40200 0 00241    00241 TXH +3 00000 0 00050
 00242 STA +0 62100 0 00244    00243 TSX +0 07400 4 00001    00244 TXH +3 00000 0 00000
                     END OF CONDITIONAL                                             030  LM00053
                     OUT.(PLACE(J))                                                 031  LM00054
 00245 CLA +0 50000 0 00015    00246 SUB +0 40200 0 00247    00247 TXH +3 00000 0 00050    00250 STA +0 62100 0 00252
 00251 TSX +0 07400 4 00001    00252 TXH +3 00000 0 00000
                   OTHERWISE                                                        032  LM00055
 00253 TRA +0 02000 0 00307
                     THROUGH COUNT, FOR I = 1, 1, I .G. R1                          033  LM00056
 00254 CLA +0 50000 0 00061    00255 STO +0 60100 0 00014    00256 TRA +0 02000 0 00262    00257 CLA +0 50000 0 00014
 00260 ADD +0 40000 0 00061    00261 STO +0 60100 0 00014    00262 CLA +0 50000 0 00014    00263 SUB +0 40200 0 00052
 00264 TZE +0 10000 0 00266    00265 TPL +0 12000 0 00275
      COUNT            OUT.(PLACE(J))                                               034  LM00057
 00266 CLA +0 50000 0 00015    00267 SUB +0 40200 0 00270    00270 TXH +3 00000 0 00050    00271 STA +0 62100 0 00273
 00272 TSX +0 07400 4 00001    00273 TXH +3 00000 0 00000    00274 TRA +0 02000 0 00257
                     WHENEVER R2 .E. 1, OUT.(PLACE(J+1))                            035  LM00058
 00275 CLA +0 50000 0 00053    00276 SUB +0 40200 0 00061    00277 TNZ -0 10000 0 00307    00300 CLA +0 50000 0 00015
 00301 ADD +0 40000 0 00061    00302 SUB +0 40200 0 00303    00303 TXH +3 00000 0 00050    00304 STA +0 62100 0 00306
 00305 TSX +0 07400 4 00001    00306 TXH +3 00000 0 00000
      SCAN         END OF CONDITIONAL                                               036  LM00059
 00307 TRA +0 02000 0 00156
      DONE         THROUGH OUTPUT, FOR K = 1, 1, K .G. Q                            037  LM00061
 00310 CLA +0 50000 0 00061    00311 STO +0 60100 0 00016    00312 TRA +0 02000 0 00316    00313 CLA +0 50000 0 00016
 00314 ADD +0 40000 0 00061    00315 STO +0 60100 0 00016    00316 CLA +0 50000 0 00016    00317 SUB +0 40200 0 00051
 00320 TZE +0 10000 0 00322    00321 TPL +0 12000 0 00332
      OUTPUT         LOC(K) = OBUF(Q-K+1)                                           038  LM00062
 00322 CLA +0 50000 0 00051    00323 SUB +0 40200 0 00016    00324 ADD +0 40000 0 00061    00325 LXA +0 53400 1 00016
 00326 PAX +0 73400 2 00000    00327 CLA +0 50000 2 00040    00330 STO +0 60100 1 00024    00331 TRA +0 02000 0 00313
                   FUNCTION RETURN Q                                                039  LM00063
 00332 CLA +0 50000 0 00051    00333 TRA +0 02000 0 00376
                   INTERNAL FUNCTION(X)                                             040  LM00065
 00334 TRA +0 02000 0 00363
                     ENTRY TO OUT.                                                  041  LM00066
 00335 TRA +0 02000 0 00340    00001 TTR +0 02100 0 00336    00336 SXA +0 63400 2 00351    00337 TSX +0 07400 2 00351
                       Q = Q + 1                                                    042  LM00067
 00340 CLA +0 50000 0 00051    00341 ADD +0 40000 0 00061    00342 STO +0 60100 0 00051
                       OBUF(Q) = X .V. CASEBT                                       043  LM00068
 00343 CAL -0 50000 0 00024    00344 ORA -0 50100 0 00013    00345 LXA +0 53400 1 00051    00346 SLW +0 60200 1 00040
                       FUNCTION RETURN                                              044  LM00069
 00347 TRA +0 02000 0 00357
                   END OF FUNCTION                                                  045  LM00070
 00350 TSX +0 07400 4 00000    00351 TXH +3 00000 0 00000    00352 SXD -0 63400 1 00351    00353 SXA +0 63400 4 00357
 00354 CLA +0 50000 4 00001    00355 STA +0 62100 0 00343    00356 TRA +0 02000 2 00001    00357 AXT +0 77400 4 00000
 00360 LXA +0 53400 2 00351    00361 LXD -0 53400 1 00351    00362 TRA +0 02000 4 00001
                 END OF FUNCTION                                                    046  LM00072
 00363 TSX +0 07400 4 00000    00364 TXH +3 00000 0 00000    00365 SXD -0 63400 1 00364    00366 SXA +0 63400 4 00376
 00367 CLA +0 50000 4 00001    00370 STA +0 62100 0 00075    00371 CLA +0 50000 4 00002    00372 STA +0 62100 0 00330
 00373 CLA +0 50000 4 00003    00374 STA +0 62100 0 00115    00375 TRA +0 02000 2 00001    00376 AXT +0 77400 4 00000
 00377 LXA +0 53400 2 00364    00400 LXD -0 53400 1 00364    00401 TRA +0 02000 4 00001
1     MAD PROGRAM LISTING ... ... ...                 FILE  FRAME1   MAD            02/08/68    1244.9
-
                 ..  ROUTINES TO FRAME OUT AND PRINT FLOW DIAGRAMS.                                    LM00001
                                                                                                       LM00002
                 ..  J. H. SALTZER, JANUARY, 1965.                                                     LM00003
                                                                                                       LM00004
                  EXTERNAL FUNCTION(PAGE, DP)                                                     *001 LM00005
                                                                                                       LM00006
                  DIMENSION LENGTH(100)                                                           *002 LM00007
                  VECTOR VALUES FENCE = 777777777777K                                             *003 LM00008
                  VECTOR VALUES DISK = 1                                                          *004 LM00009
                  DIMENSION LINE(100)                                                             *005 LM00010
                  VECTOR VALUES RETURN = 0055K                                                    *006 LM00011
                  VECTOR VALUES PERIOD = 0033K                                                    *007 LM00012
                  VECTOR VALUES BLANK = 0060K                                                     *008 LM00013
                  VECTOR VALUES NULL = 0057K                                                      *009 LM00014
                  NORMAL MODE IS INTEGER                                                          *010 LM00015
                                                                                                       LM00016
                  ENTRY TO FRAME1.                                                                *011 LM00017
       IN         LENGTH = READ.(LINE, 100, EOF)                                                  *012 LM00018
                  WHENEVER LINE(1) .E. PERIOD, TRANSFER TO CONTRL                                 *013 LM00019
       DATA       WHENEVER ROW .G.  MAXROW                                                        *014 LM00020
       COM          PRINT COMMENT $0B0O0X0 0E0X0T0E0N0D0S0 0O0U0T0S0I0D0E0 0F0R                   *015 LM00021
                1 0A0M0E0.$                                                                       *015 LM00022
                    ROW = ROW + 1                                                                 *016 LM00023
                    TRANSFER TO IN                                                                *017 LM00024
                  END OF CONDITIONAL                                                              *018 LM00025
                  THROUGH PUTLIN, FOR I = 1, 1, I .G. LENGTH                                      *019 LM00026
                  WHENEVER COL+I-1 .G. MAXCOL .AND. LINE(I) .NE. NULL, TRANSFER TO COM            *020 LM00027
       PUTLIN       WHENEVER LINE(I) .NE. NULL, PAGE(ROW, COL+I-1) = LINE(I)                      *021 LM00028
                  ROW = ROW+1                                                                     *022 LM00029
                  TRANSFER TO IN                                                                  *023 LM00030
                                                                                                       LM00031
       CONTRL     EDCT = 1                                                                        *024 LM00032
                  CWD = GET.(0)                                                                   *025 LM00033
                  WHENEVER CWD .E. $   BOX$ .OR. CWD .E. $    BO$                                 *026 LM00034
                    ROW = NUM.(0)                                                                 *027 LM00035
                    COL = NUM.(0)                                                                 *028 LM00036
                                                                                                       LM00037
                  OR WHENEVER CWD .E. $ FRAME$                                                    *029 LM00038
                    MAXROW = NUM.(0)                                                              *030 LM00039
                    MAXCOL = NUM.(0)                                                              *031 LM00040
                    DP(2) = MAXCOL + 1                                                            *032 LM00041
                    THROUGH BLANKR, FOR I = 1, 1, I .G. MAXROW*(MAXCOL+1)                         *033 LM00042
       BLANKR         PAGE(I) = BLANK                                                             *034 LM00043
                                                                                                       LM00044
                  OR WHENEVER CWD .E. $   END$                                                    *035 LM00045
       EOF          FUNCTION RETURN MAXROW                                                        *036 LM00046
                  OTHERWISE                                                                       *037 LM00047
                    TRANSFER TO DATA                                                              *038 LM00048
                                                                                                       LM00049
                  END OF CONDITIONAL                                                              *039 LM00050
                  TRANSFER TO IN                                                                  *040 LM00051
                                                                                                       LM00052
                  ENTRY TO PRPIX1.                                                                *041 LM00053
                    THROUGH PRSCN, FOR ROW = 1, 1, ROW .G. MAXROW                                 *042 LM00054
                      LENGTH(ROW) = SIZE.(ROW) + 1                                                *043 LM00055
                      PAGE(ROW, LENGTH(ROW)) = RETURN                                             *044 LM00056
       PRSCN          PACK.(PAGE(ROW,1), LENGTH(ROW))                                             *045 LM00057
                    RSMEM.                                                                        *046 LM00058
                    FUNCTION RETURN                                                               *047 LM00059
                                                                                                       LM00060
       SIZE.     .. FUNCTION TO SCAN FOR LINE SIZE.                                                    LM00061
                                                                                                       LM00062
                  INTERNAL FUNCTION(RW)                                                           *048 LM00063
                  ENTRY TO SIZE.                                                                  *049 LM00064
       SZLP         THROUGH SZLP, FOR I = MAXCOL, -1, I .E. 0                                     *050 LM00065
                1         .OR. PAGE(RW, I) .NE. BLANK                                             *050 LM00066
                    FUNCTION RETURN I                                                             *051 LM00067
                  END OF FUNCTION                                                                 *052 LM00068
                                                                                                       LM00069
       GET.      ..  FUNCTION TO OBTAIN AGRUMENT WORD IN 6-BIT MODE.                                   LM00070
                                                                                                       LM00071
                  INTERNAL FUNCTION                                                               *053 LM00072
                  ENTRY TO GET.                                                                   *054 LM00073
                    WORD = $ $                                                                    *055 LM00074
                    SCANB.                                                                        *056 LM00075
       GTLP         EDCT = EDCT + 1                                                               *057 LM00076
                    WHENEVER LINE(EDCT) .E. BLANK .OR. EDCT .G. LENGTH                            *058 LM00077
                1           , FUNCTION RETURN WORD                                                *058 LM00078
                    WORD = (WORD .LS. 6) .V. (LINE(EDCT) .A. 77K)                                 *059 LM00079
                    TRANSFER TO GTLP                                                              *060 LM00080
                  END OF FUNCTION                                                                 *061 LM00081
                                                                                                       LM00082
       NUM.      .. FUNCTION TO OBTAIN DECIMAL INTEGER FROM INPUT.                                     LM00083
                                                                                                       LM00084
                  INTERNAL FUNCTION                                                               *062 LM00085
                  ENTRY TO NUM.                                                                   *063 LM00086
                    INT = 0                                                                       *064 LM00087
                    SCANB.                                                                        *065 LM00088
       MULP         EDCT = EDCT + 1                                                               *066 LM00089
                    WHENEVER LINE(EDCT) .E. BLANK .OR. EDCT .G. LENGTH                            *067 LM00090
                1      .OR. LINE(EDCT) .G. 9, FUNCTION RETURN INT                                 *067 LM00091
                    INT = INT*10 + LINE(EDCT)                                                     *068 LM00092
                    TRANSFER TO MULP                                                              *069 LM00093
                  END OF FUNCTION                                                                 *070 LM00094
                                                                                                       LM00095
       SCANB.    ..  FUNCTION TO SCAN FOR NON-BLANK CHARACTER.                                         LM00096
                                                                                                       LM00097
                  INTERNAL FUNCTION                                                               *071 LM00098
                  ENTRY TO SCANB.                                                                 *072 LM00099
       SCANLP       WHENEVER LINE(EDCT+1) .NE. BLANK .OR. EDCT+1 .G. LENGTH                       *073 LM00100
                1        , FUNCTION RETURN                                                        *073 LM00101
                    EDCT = EDCT+1                                                                 *074 LM00102
                    TRANSFER TO SCANLP                                                            *075 LM00103
                  END OF FUNCTION                                                                 *076 LM00104
                                                                                                       LM00105
                  END OF FUNCTION                                                                 *077 LM00106
1MAD PROGRAM,TYPE NOV 1963      (ALL NUMBERS ARE OCTAL)
0TOTAL LOCATIONS   01124 TRANSFER VECTOR LENGTH  00007 PROGRAM BEGINS    00372
0 PROGRAM IS AN EXTERNAL FUNCTION.   THE FOLLOWING ARE ENTRIES
      PRPIX1 00575   0        FRAME1 00373   0
0VARIABLE STORAGE (A=ARRAY,C=COMMON,E=ERASABLE,DIGIT=MODE)
      BLANKR 00013   4        DATA   00016   4        IN     00021   4        MAXROW 00347   1        RETURN 00352 A 1
      BLANK  00024 A 1        DISK   00027 A 1        INT    00032   1        MULP   00022   4        ROW    00353   1
      COL    00025   1        EDCT   00030   1        I      00033   1        NULL   00350 A 1        SCANLP 00023   4
      COM    00014   4        EOF    00017   4        LENGTH 00200 A 1        PERIOD 00351 A 1        SZLP   00013   4
      CONTRL 00015   4        FENCE  00031 A 1        LINE   00345 A 1        PRSCN  00013   4        WORD   00354   1
      CWD    00026   1        GTLP   00020   4        MAXCOL 00346   1        PUTLIN 00013   4
0FUNCTION DICTIONARY
      .03310 00000   0        .03311 00001   0        EXIT   00002   1        .PCOMT 00003   1        PACK   00004   1
      READ   00005   1        RSMEM  00006   1        GET    00007   1        NUM    00010   1        SCANB  00011   1
      SIZE   00012   1
0ABSOLUTE CONSTANTS
 00361 +000000000012     00360 +000000000011     00357 +000000000006     00362 +000000000077     00371 -206060606060
 00367 -206060254524     00365 -202651214425     00366 -206060224667     00370 -206060602246     00355 +000000000000
 00363 +000000000144     00356 +000000000001     00364 +233000000000
0STATEMENT DICTIONARY
 00014 TXL -300425000412       00015 TXL -300504000502       00016 TXL -300412000406       00017 TXL -300571000567
 00020 TXL -300727000724       00021 TXL -300402000375       00022 TXL -301000000775       00023 TXL -301056001042
0PROGRAM
                 EXTERNAL FUNCTION(PAGE, DP)                                        001  LM00005
                 DIMENSION LENGTH(100)                                              002  LM00007
                 VECTOR VALUES FENCE = 777777777777K                                003  LM00008
 00031     -3 77777 7 77777
                 VECTOR VALUES DISK = 1                                             004  LM00009
 00027     +0 00000 0 00001
                 DIMENSION LINE(100)                                                005  LM00010
                 VECTOR VALUES RETURN = 0055K                                       006  LM00011
 00352     +0 00000 0 00055
                 VECTOR VALUES PERIOD = 0033K                                       007  LM00012
 00351     +0 00000 0 00033
                 VECTOR VALUES BLANK = 0060K                                        008  LM00013
 00024     +0 00000 0 00060
                 VECTOR VALUES NULL = 0057K                                         009  LM00014
 00350     +0 00000 0 00057
                 NORMAL MODE IS INTEGER                                             010  LM00015
                 ENTRY TO FRAME1.                                                   011  LM00017
 00372 TRA +0 02000 0 00375    00373 SXA +0 63400 2 01075    00374 TSX +0 07400 2 01075
       IN        LENGTH = READ.(LINE, 100, EOF)                                     012  LM00018
 00375 TSX +0 07400 4 00005    00376 TXH +3 00000 0 00345    00377 TXH +3 00000 0 00363    00400 TXH +3 00000 0 00017
 00401 STO +0 60100 0 00200
                 W'R LINE(1) .E. PERIOD, T'O CONTRL                                 013  LM00019
 00402 CLA +0 50000 0 00344    00403 SUB +0 40200 0 00351    00404 TNZ -0 10000 0 00406    00405 TRA +0 02000 0 00015
       DATA      W'R ROW .G.  MAXROW                                                014  LM00020
 00406 CLA +0 50000 0 00353    00407 SUB +0 40200 0 00347    00410 TZE +0 10000 0 00431    00411 TMI -0 12000 0 00431
       COM         PRINT COMMENT $0B0O0X0 0E0X0T0E0N0D0S0 0O0U0T0S0I0D0E0 0F0R      015  LM00021
                10A0M0E0.$                                                          015  LM00022
 00412 TSX +0 07400 4 00003    00413     +0 00000 0 00011    00414     +0 02200 4 60067    00415     +0 06000 2 50067
 00416     +0 06300 2 50045    00417     +0 02400 6 20060    00420     +0 04600 6 40063    00421     +0 06200 3 10024
 00422     +0 02500 6 00026    00423     +0 05100 2 10044    00424     +0 02500 3 36060
                   ROW = ROW + 1                                                    016  LM00023
 00425 CLA +0 50000 0 00353    00426 ADD +0 40000 0 00356    00427 STO +0 60100 0 00353
                   T'O IN                                                           017  LM00024
 00430 TRA +0 02000 0 00021
                 END OF CONDITIONAL                                                 018  LM00025
                 T'H PUTLIN, FOR I = 1, 1, I .G. LENGTH                             019  LM00026
 00431 CLA +0 50000 0 00356    00432 STO +0 60100 0 00033    00433 TRA +0 02000 0 00437    00434 CLA +0 50000 0 00033
 00435 ADD +0 40000 0 00356    00436 STO +0 60100 0 00033    00437 CLA +0 50000 0 00033    00440 SUB +0 40200 0 00200
 00441 TZE +0 10000 0 00443    00442 TPL +0 12000 0 00476
                 W'R COL+I-1 .G. MAXCOL .AND. LINE(I) .NE. NULL, T'O COM            020  LM00027
 00443 LXA +0 53400 1 00033    00444 CLA +0 50000 1 00345    00445 SUB +0 40200 0 00350    00446 TZE +0 10000 0 00456
 00447 CLA +0 50000 0 00025    00450 ADD +0 40000 0 00033    00451 SUB +0 40200 0 00356    00452 SUB +0 40200 0 00346
 00453 TZE +0 10000 0 00456    00454 TMI -0 12000 0 00456    00455 TRA +0 02000 0 00014
       PUTLIN      W'R LINE(I) .NE. NULL, PAGE(ROW, COL+I-1) = LINE(I)              021  LM00028
 00456 LXA +0 53400 1 00033    00457 CLA +0 50000 1 00345    00460 SUB +0 40200 0 00350    00461 TZE +0 10000 0 00475
 00462 CLA +0 50000 0 00025    00463 ADD +0 40000 0 00033    00464 SUB +0 40200 0 00356    00465 XCA +0 13100 0 00000
 00466 CLA +0 50000 0 00353    00467 TSX +0 07400 4 00001    00470 TXH +3 00000 0 00022    00471 PAX +0 73400 1 00000
 00472 LXA +0 53400 2 00033    00473 CLA +0 50000 2 00345    00474 STO +0 60100 1 00022    00475 TRA +0 02000 0 00434
                 ROW = ROW+1                                                        022  LM00029
 00476 CLA +0 50000 0 00353    00477 ADD +0 40000 0 00356    00500 STO +0 60100 0 00353
                 T'O IN                                                             023  LM00030
 00501 TRA +0 02000 0 00021
       CONTRL    EDCT = 1                                                           024  LM00032
 00502 CLA +0 50000 0 00356    00503 STO +0 60100 0 00030
                 CWD = GET.(0)                                                      025  LM00033
 00504 TSX +0 07400 4 00007    00505 TXH +3 00000 0 00355    00506 STO +0 60100 0 00026
                 W'R CWD .E. $   BOX$ .OR. CWD .E. $    BO$                         026  LM00034
 00507 CLA +0 50000 0 00026    00510 SUB +0 40200 0 00370    00511 TZE +0 10000 0 00515    00512 CLA +0 50000 0 00026
 00513 SUB +0 40200 0 00366    00514 TNZ -0 10000 0 00524
                   ROW = NUM.(0)                                                    027  LM00035
 00515 TSX +0 07400 4 00010    00516 TXH +3 00000 0 00355    00517 STO +0 60100 0 00353
                   COL = NUM.(0)                                                    028  LM00036
 00520 TSX +0 07400 4 00010    00521 TXH +3 00000 0 00355    00522 STO +0 60100 0 00025
                 O'R CWD .E. $ FRAME$                                               029  LM00038
 00523 TRA +0 02000 0 00573    00524 CLA +0 50000 0 00026    00525 SUB +0 40200 0 00365    00526 TNZ -0 10000 0 00564
                   MAXROW = NUM.(0)                                                 030  LM00039
 00527 TSX +0 07400 4 00010    00530 TXH +3 00000 0 00355    00531 STO +0 60100 0 00347
                   MAXCOL = NUM.(0)                                                 031  LM00040
 00532 TSX +0 07400 4 00010    00533 TXH +3 00000 0 00355    00534 STO +0 60100 0 00346
                   DP(2) = MAXCOL + 1                                               032  LM00041
 00535 CLA +0 50000 0 00346    00536 ADD +0 40000 0 00356    00537 STO +0 60100 0 00020
                   T'H BLANKR, FOR I = 1, 1, I .G. MAXROW*(MAXCOL+1)                033  LM00042
 00540 CLA +0 50000 0 00356    00541 STO +0 60100 0 00033    00542 TRA +0 02000 0 00546    00543 CLA +0 50000 0 00033
 00544 ADD +0 40000 0 00356    00545 STO +0 60100 0 00033    00546 CLA +0 50000 0 00346    00547 ADD +0 40000 0 00356
 00550 XCA +0 13100 0 00000    00551 MPY +0 20000 0 00347    00552 XCA +0 13100 0 00000    00553 CHS +0 76000 0 00002
 00554 ADD +0 40000 0 00033    00555 TZE +0 10000 0 00557    00556 TPL +0 12000 0 00563
       BLANKR        PAGE(I) = BLANK                                                034  LM00043
 00557 LXA +0 53400 1 00033    00560 CLA +0 50000 0 00024    00561 STO +0 60100 1 00022    00562 TRA +0 02000 0 00543
                 O'R CWD .E. $   END$                                               035  LM00045
 00563 TRA +0 02000 0 00573    00564 CLA +0 50000 0 00026    00565 SUB +0 40200 0 00367    00566 TNZ -0 10000 0 00572
       EOF         F'N MAXROW                                                       036  LM00046
 00567 CLA +0 50000 0 00347    00570 TRA +0 02000 0 01116
                 O'E                                                                037  LM00047
 00571 TRA +0 02000 0 00573
                   T'O DATA                                                         038  LM00048
 00572 TRA +0 02000 0 00016
                 END OF CONDITIONAL                                                 039  LM00050
                 T'O IN                                                             040  LM00051
 00573 TRA +0 02000 0 00021
                 ENTRY TO PRPIX1.                                                   041  LM00053
 00574 TRA +0 02000 0 00577    00575 SXA +0 63400 2 01075    00576 TSX +0 07400 2 01075
                   THROUGH PRSCN, FOR ROW = 1, 1, ROW .G. MAXROW                    042  LM00054
 00577 CLA +0 50000 0 00356    00600 STO +0 60100 0 00353    00601 TRA +0 02000 0 00605    00602 CLA +0 50000 0 00353
 00603 ADD +0 40000 0 00356    00604 STO +0 60100 0 00353    00605 CLA +0 50000 0 00353    00606 SUB +0 40200 0 00347
 00607 TZE +0 10000 0 00611    00610 TPL +0 12000 0 00650
                     LENGTH(ROW) = SIZE.(ROW) + 1                                   043  LM00055
 00611 TSX +0 07400 4 00012    00612 TXH +3 00000 0 00353    00613 ADD +0 40000 0 00356    00614 LXA +0 53400 1 00353
 00615 STO +0 60100 1 00200
                     PAGE(ROW, LENGTH(ROW)) = RETURN                                044  LM00056
 00616 CLA +0 50000 0 00353    00617 SUB +0 40200 0 00620    00620 TXH +3 00000 0 00200    00621 STA +0 62100 0 00622
 00622 LDQ +0 56000 0 00000    00623 CLA +0 50000 0 00353    00624 TSX +0 07400 4 00000    00625 TXH +3 00000 0 00022
 00626 PAX +0 73400 1 00000    00627 CLA +0 50000 0 00352    00630 STO +0 60100 1 00022
       PRSCN         PACK.(PAGE(ROW,1), LENGTH(ROW))                                045  LM00057
 00631 CLA +0 50000 0 00353    00632 SUB +0 40200 0 00633    00633 TXH +3 00000 0 00200    00634 STA +0 62100 0 00646
 00635 LDQ +0 56000 0 00356    00636 CLA +0 50000 0 00353    00637 TSX +0 07400 4 00001    00640 TXH +3 00000 0 00022
 00641 SUB +0 40200 0 00642    00642 TXH +3 00000 0 00022    00643 STA +0 62100 0 00645    00644 TSX +0 07400 4 00004
 00645 TXH +3 00000 0 00000    00646 TXH +3 00000 0 00000    00647 TRA +0 02000 0 00602
                   RSMEM.                                                           046  LM00058
 00650 TSX +0 07400 4 00006
                   F'N                                                              047  LM00059
 00651 TRA +0 02000 0 01116
                 INTERNAL FUNCTION(RW)                                              048  LM00063
 00652 TRA +0 02000 0 00715
                 ENTRY TO SIZE.                                                     049  LM00064
 00653 TRA +0 02000 0 00656    00012 TTR +0 02100 0 00654    00654 SXA +0 63400 2 00703    00655 TSX +0 07400 2 00703
       SZLP        THROUGH SZLP, FOR I = MAXCOL, -1, I .E. 0                        050  LM00065
                1        .OR. PAGE(RW, I) .NE. BLANK                                050  LM00066
 00656 CLA +0 50000 0 00346    00657 STO +0 60100 0 00033    00660 TRA +0 02000 0 00664    00661 CLS +0 50200 0 00356
 00662 ADD +0 40000 0 00033    00663 STO +0 60100 0 00033    00664 LDQ +0 56000 0 00033    00665 CLA +0 50000 0 00022
 00666 TSX +0 07400 4 00001    00667 TXH +3 00000 0 00022    00670 PAX +0 73400 1 00000    00671 CLA +0 50000 1 00022
 00672 SUB +0 40200 0 00024    00673 TNZ -0 10000 0 00700    00674 CLA +0 50000 0 00033    00675 SUB +0 40200 0 00355
 00676 TZE +0 10000 0 00700    00677 TRA +0 02000 0 00661
                   FUNCTION RETURN I                                                051  LM00067
 00700 CLA +0 50000 0 00033    00701 TRA +0 02000 0 00711
                 END OF FUNCTION                                                    052  LM00068
 00702 TSX +0 07400 4 00002    00703 TXH +3 00000 0 00000    00704 SXD -0 63400 1 00703    00705 SXA +0 63400 4 00711
 00706 CLA +0 50000 4 00001    00707 STA +0 62100 0 00665    00710 TRA +0 02000 2 00001    00711 AXT +0 77400 4 00000
 00712 LXA +0 53400 2 00703    00713 LXD -0 53400 1 00703    00714 TRA +0 02000 4 00001
                 INTERNAL FUNCTION                                                  053  LM00072
 00715 TRA +0 02000 0 00766
                 ENTRY TO GET.                                                      054  LM00073
 00716 TRA +0 02000 0 00721    00007 TTR +0 02100 0 00717    00717 SXA +0 63400 2 00755    00720 TSX +0 07400 2 00755
                   WORD = $ $                                                       055  LM00074
 00721 CLA +0 50000 0 00371    00722 STO +0 60100 0 00354
                   SCANB.                                                           056  LM00075
 00723 TSX +0 07400 4 00011
       GTLP        EDCT = EDCT + 1                                                  057  LM00076
 00724 CLA +0 50000 0 00030    00725 ADD +0 40000 0 00356    00726 STO +0 60100 0 00030
                   WHENEVER LINE(EDCT) .E. BLANK .OR. EDCT .G. LENGTH               058  LM00077
                1          , FUNCTION RETURN WORD                                   058  LM00078
 00727 CLA +0 50000 0 00030    00730 SUB +0 40200 0 00200    00731 TZE +0 10000 0 00733    00732 TPL +0 12000 0 00737
 00733 LXA +0 53400 1 00030    00734 CLA +0 50000 1 00345    00735 SUB +0 40200 0 00024    00736 TNZ -0 10000 0 00741
 00737 CLA +0 50000 0 00354    00740 TRA +0 02000 0 00761
                   WORD = (WORD .LS. 6) .V. (LINE(EDCT) .A. 77K)                    059  LM00079
 00741 LXA +0 53400 1 00030    00742 CAL -0 50000 1 00345    00743 ANA -0 32000 0 00362    00744 SLW +0 60200 0 00765
 00745 CAL -0 50000 0 00357    00746 STA +0 62100 0 00750    00747 CAL -0 50000 0 00354    00750 ALS +0 76700 0 00000
 00751 ORA -0 50100 0 00765    00752 SLW +0 60200 0 00354
                   TRANSFER TO GTLP                                                 060  LM00080
 00753 TRA +0 02000 0 00020
                 END OF FUNCTION                                                    061  LM00081
 00754 TSX +0 07400 4 00002    00755 TXH +3 00000 0 00000    00756 SXD -0 63400 1 00755    00757 SXA +0 63400 4 00761
 00760 TRA +0 02000 2 00001    00761 AXT +0 77400 4 00000    00762 LXA +0 53400 2 00755    00763 LXD -0 53400 1 00755
 00764 TRA +0 02000 4 00001
                 INTERNAL FUNCTION                                                  062  LM00085
 00766 TRA +0 02000 0 01036
                 ENTRY TO NUM.                                                      063  LM00086
 00767 TRA +0 02000 0 00772    00010 TTR +0 02100 0 00770    00770 SXA +0 63400 2 01026    00771 TSX +0 07400 2 01026
                   INT = 0                                                          064  LM00087
 00772 CLA +0 50000 0 00355    00773 STO +0 60100 0 00032
                   SCANB.                                                           065  LM00088
 00774 TSX +0 07400 4 00011
       MULP        EDCT = EDCT + 1                                                  066  LM00089
 00775 CLA +0 50000 0 00030    00776 ADD +0 40000 0 00356    00777 STO +0 60100 0 00030
                   WHENEVER LINE(EDCT) .E. BLANK .OR. EDCT .G. LENGTH               067  LM00090
                1     .OR. LINE(EDCT) .G. 9, FUNCTION RETURN INT                    067  LM00091
 01000 LXA +0 53400 1 00030    01001 CLA +0 50000 1 00345    01002 SUB +0 40200 0 00360    01003 TZE +0 10000 0 01005
 01004 TPL +0 12000 0 01014    01005 CLA +0 50000 0 00030    01006 SUB +0 40200 0 00200    01007 TZE +0 10000 0 01011
 01010 TPL +0 12000 0 01014    01011 CLA +0 50000 1 00345    01012 SUB +0 40200 0 00024    01013 TNZ -0 10000 0 01016
 01014 CLA +0 50000 0 00032    01015 TRA +0 02000 0 01032
                   INT = INT*10 + LINE(EDCT)                                        068  LM00092
 01016 LDQ +0 56000 0 00032    01017 MPY +0 20000 0 00361    01020 LXA +0 53400 2 00030    01021 XCA +0 13100 0 00000
 01022 ADD +0 40000 2 00345    01023 STO +0 60100 0 00032
                   TRANSFER TO MULP                                                 069  LM00093
 01024 TRA +0 02000 0 00022
                 END OF FUNCTION                                                    070  LM00094
 01025 TSX +0 07400 4 00002    01026 TXH +3 00000 0 00000    01027 SXD -0 63400 1 01026    01030 SXA +0 63400 4 01032
 01031 TRA +0 02000 2 00001    01032 AXT +0 77400 4 00000    01033 LXA +0 53400 2 01026    01034 LXD -0 53400 1 01026
 01035 TRA +0 02000 4 00001
                 INTERNAL FUNCTION                                                  071  LM00098
 01036 TRA +0 02000 0 01073
                 ENTRY TO SCANB.                                                    072  LM00099
 01037 TRA +0 02000 0 01042    00011 TTR +0 02100 0 01040    01040 SXA +0 63400 2 01063    01041 TSX +0 07400 2 01063
       SCANLP      WHENEVER LINE(EDCT+1) .NE. BLANK .OR. EDCT+1 .G. LENGTH          073  LM00100
                1       , FUNCTION RETURN                                           073  LM00101
 01042 CLA +0 50000 0 00030    01043 ADD +0 40000 0 00356    01044 SUB +0 40200 0 00200    01045 TZE +0 10000 0 01047
 01046 TPL +0 12000 0 01055    01047 CLA +0 50000 0 00030    01050 ADD +0 40000 0 00356    01051 PAX +0 73400 1 00000
 01052 CLA +0 50000 1 00345    01053 SUB +0 40200 0 00024    01054 TZE +0 10000 0 01056    01055 TRA +0 02000 0 01067
                   EDCT = EDCT+1                                                    074  LM00102
 01056 CLA +0 50000 0 00030    01057 ADD +0 40000 0 00356    01060 STO +0 60100 0 00030
                   TRANSFER TO SCANLP                                               075  LM00103
 01061 TRA +0 02000 0 00023
                 END OF FUNCTION                                                    076  LM00104
 01062 TSX +0 07400 4 00002    01063 TXH +3 00000 0 00000    01064 SXD -0 63400 1 01063    01065 SXA +0 63400 4 01067
 01066 TRA +0 02000 2 00001    01067 AXT +0 77400 4 00000    01070 LXA +0 53400 2 01063    01071 LXD -0 53400 1 01063
 01072 TRA +0 02000 4 00001
                 END OF FUNCTION                                                    077  LM00106
 01073 TSX +0 07400 4 00002    01074 PZE +0 00000 0 00002    01075 TXH +3 00000 0 00000    01076 SXD -0 63400 1 01075
 01077 SXA +0 63400 4 01116    01100 CLA +0 50000 4 00001    01101 STO +0 60100 0 00470    01102 STA +0 62100 0 00474
 01103 STA +0 62100 0 00561    01104 STO +0 60100 0 00625    01105 STA +0 62100 0 00630    01106 STO +0 60100 0 00640
 01107 STO +0 60100 0 00642    01110 STO +0 60100 0 00667    01111 STA +0 62100 0 00671    01112 CLA +0 50000 4 00002
 01113 SUB +0 40200 0 01074    01114 STA +0 62100 0 00537    01115 TRA +0 02000 2 00001    01116 AXT +0 77400 4 00000
 01117 LXA +0 53400 2 01075    01120 LXD -0 53400 1 01075    01121 TRA +0 02000 4 00001
1     MAD PROGRAM LISTING ... ... ...                 FILE  SYMSTO   MAD            02/08/68    1245.2
-
                 ..  SYMBOL TABLE PACKAGE.                                                             LM00001
                                                                                                       LM00002
                 ..  J. H. SALTZER, JANUARY, 1965.                                                     LM00003
                                                                                                       LM00004
                  EXTERNAL FUNCTION(SYMBOL, VALUE)                                                *001 LM00005
                  NORMAL MODE IS INTEGER                                                          *002 LM00006
                  DIMENSION SYM(10), VAL(10)                                                      *003 LM00007
                  VECTOR VALUES COUNT = 0                                                         *004 LM00008
                                                                                                       LM00009
                  ENTRY TO SYMSTO.                                                                *005 LM00010
                    WHENEVER COUNT .GE. 10                                                        *006 LM00011
                      PRINTCOMMENT $0S0Y0M0B0O0L0 0T0A0B0L0E0 0O0V0E0R0F0L0O0W$                   *007 LM00012
                      FUNCTION RETURN                                                             *008 LM00013
                    END OF CONDITIONAL                                                            *009 LM00014
                    COUNT = COUNT + 1                                                             *010 LM00015
                    SYM(COUNT) = SYMBOL                                                           *011 LM00016
                    VAL(COUNT) = VALUE                                                            *012 LM00017
                    FUNCTION RETURN                                                               *013 LM00018
                                                                                                       LM00019
                  ENTRY TO SYMGET.                                                                *014 LM00020
                    THROUGH LOOK, FOR I = 1, 1, I .G. COUNT                                       *015 LM00021
       LOOK           WHENEVER SYM(I) .E. SYMBOL, FUNCTION RETURN VAL(I)                          *016 LM00022
                    FUNCTION RETURN 0                                                             *017 LM00023
                  END OF FUNCTION                                                                 *018 LM00024
1MAD PROGRAM,TYPE NOV 1963      (ALL NUMBERS ARE OCTAL)
0TOTAL LOCATIONS   00140 TRANSFER VECTOR LENGTH  00002 PROGRAM BEGINS    00037
0 PROGRAM IS AN EXTERNAL FUNCTION.   THE FOLLOWING ARE ENTRIES
      SYMGET 00072   0        SYMSTO 00040   0
0VARIABLE STORAGE (A=ARRAY,C=COMMON,E=ERASABLE,DIGIT=MODE)
      COUNT  00003 A 1        I      00004   1        LOOK   00002   4        SYM    00017 A 1        VAL    00032 A 1
0FUNCTION DICTIONARY
      EXIT   00000   1        .PCOMT 00001   1
0ABSOLUTE CONSTANTS
 00033 +000000000000     00035 +000000000012     00034 +000000000001     00036 +233000000000
0PROGRAM
                 EXTERNAL FUNCTION(SYMBOL, VALUE)                                   001  LM00005
                 NORMAL MODE IS INTEGER                                             002  LM00006
                 DIMENSION SYM(10), VAL(10)                                         003  LM00007
                 VECTOR VALUES COUNT = 0                                            004  LM00008
 00003     +0 00000 0 00000
                 ENTRY TO SYMSTO.                                                   005  LM00010
 00037 TRA +0 02000 0 00042    00040 SXA +0 63400 2 00121    00041 TSX +0 07400 2 00121
                   W'R COUNT .GE. 10                                                006  LM00011
 00042 CLA +0 50000 0 00003    00043 SUB +0 40200 0 00035    00044 TZE +0 10000 0 00046    00045 TMI -0 12000 0 00060
                     PRINTCOMMENT $0S0Y0M0B0O0L0 0T0A0B0L0E0 0O0V0E0R0F0L0O0W$      007  LM00012
 00046 TSX +0 07400 4 00001    00047     +0 00000 0 00007    00050     +0 06200 7 00044    00051     +0 02200 4 60043
 00052     +0 06000 6 30021    00053     +0 02200 4 30025    00054     +0 06000 4 60065    00055     +0 02500 5 10026
 00056     +0 04300 4 60066
                     FUNCTION RETURN                                                008  LM00013
 00057 TRA +0 02000 0 00132
                   END OF CONDITIONAL                                               009  LM00014
                   COUNT = COUNT + 1                                                010  LM00015
 00060 CLA +0 50000 0 00003    00061 ADD +0 40000 0 00034    00062 STO +0 60100 0 00003
                   SYM(COUNT) = SYMBOL                                              011  LM00016
 00063 LXA +0 53400 1 00003    00064 CLA +0 50000 0 00024    00065 STO +0 60100 1 00017
                   VAL(COUNT) = VALUE                                               012  LM00017
 00066 CLA +0 50000 0 00024    00067 STO +0 60100 1 00032
                   FUNCTION RETURN                                                  013  LM00018
 00070 TRA +0 02000 0 00132
                 ENTRY TO SYMGET.                                                   014  LM00020
 00071 TRA +0 02000 0 00074    00072 SXA +0 63400 2 00121    00073 TSX +0 07400 2 00121
                   THROUGH LOOK, FOR I = 1, 1, I .G. COUNT                          015  LM00021
 00074 CLA +0 50000 0 00034    00075 STO +0 60100 0 00004    00076 TRA +0 02000 0 00102    00077 CLA +0 50000 0 00004
 00100 ADD +0 40000 0 00034    00101 STO +0 60100 0 00004    00102 CLA +0 50000 0 00004    00103 SUB +0 40200 0 00003
 00104 TZE +0 10000 0 00106    00105 TPL +0 12000 0 00116
       LOOK          WHENEVER SYM(I) .E. SYMBOL, FUNCTION RETURN VAL(I)             016  LM00022
 00106 LXA +0 53400 1 00004    00107 CLA +0 50000 1 00017    00110 SUB +0 40200 0 00024    00111 TNZ -0 10000 0 00115
 00112 LXA +0 53400 2 00004    00113 CLA +0 50000 2 00032    00114 TRA +0 02000 0 00132    00115 TRA +0 02000 0 00077
                   FUNCTION RETURN 0                                                017  LM00023
 00116 CLA +0 50000 0 00033    00117 TRA +0 02000 0 00132
                 END OF FUNCTION                                                    018  LM00024
 00120 TSX +0 07400 4 00000    00121 TXH +3 00000 0 00000    00122 SXD -0 63400 1 00121    00123 SXA +0 63400 4 00132
 00124 CLA +0 50000 4 00001    00125 STA +0 62100 0 00064    00126 STA +0 62100 0 00110    00127 CLA +0 50000 4 00002
 00130 STA +0 62100 0 00066    00131 TRA +0 02000 2 00001    00132 AXT +0 77400 4 00000    00133 LXA +0 53400 2 00121
 00134 LXD -0 53400 1 00121    00135 TRA +0 02000 4 00001
