1     MAD PROGRAM LISTING ... ... ...                 FILE  PBLOAD   MAD            02/07/68    2215.9
-
                                                                                                       LM00001
                    PRELOD NAME1 TYPE -COMB- -NOLIST-                                                  LM00002
                      WHERE TYPE IS EITHER 'NCLOAD' OR 'VLOAD' OR NOTHING                              LM00003
                                                                                                       LM00004
                    CHECKS NAME1 LOAD TO SEE IF IT WILL LOAD                                           LM00005
                    SUCCESSFULLY.  CREATES A LINE MARKED                                               LM00006
                    FILE, NAME1 STOMAP, WHICH INCLUDES ERROR                                           LM00007
                    COMMENTS IF ANY, CHECKS FOR MISSING FILES,                                         LM00008
                    MISSING ENTRY POINTS, DUPLICATED ENTRY POINTS,                                     LM00009
                    AND CORE OVERLAP.                                                                  LM00010
                                                                                                       LM00011
                  NORMAL MODE IS INTEGER                                                          *001 LM00012
                  DIMENSION BUFF1(432),BUFF2(432),A(14),PROG(28),TVARAY(4000)                     *002 LM00013
                  DIMENSION EPARAY(9600,DIM),MFARAY(100),MEARAY(600),MULT(200)                    *003 LM00014
                  DIMENSION LINE(33),FILNAM(2),BUFF3(432),TV1(8000,DTV)                           *004 LM00015
                  EQUIVALENCE (FILNAM(0),N1),(FILNAM(1),NA2)                                      *005 LM00016
                  VECTOR VALUES BL = 432                                                          *006 LM00017
                  VECTOR VALUES BLANK3 = $                  $,777777000003K                       *007 LM00018
                  VECTOR VALUES DIFC=$TOTAL LOCATIONS NOT USED      $,0,$ DECIMAL$,               *008 LM00019
                1 777777777777K                                                                   *008 LM00020
                  VECTOR VALUES DIM = 2,17,16                                                     *009 LM00021
                  VECTOR VALUES DTV = 2,3,2                                                       *010 LM00022
                  VECTOR VALUES FENCE = 777777777777K                                             *011 LM00023
                  VECTOR VALUES HEAD = 777777000013K,$0            NAME  T.V. ORGIN LENTH         *012 LM00024
                1  COMMON      CROSS REFERENCE$                                                   *012 LM00025
                  VECTOR VALUES HPC = $HIGHEST PROGRAM LOCATION      $,0,777777777777K            *013 LM00026
                  VECTOR VALUES ICOMB = 0                                                         *014 LM00027
                  VECTOR VALUES ILIST = 0                                                         *015 LM00028
                  VECTOR VALUES JE = 0                                                            *016 LM00029
                  VECTOR VALUES JT = -50                                                          *017 LM00030
                  VECTOR VALUES LCOM = 77777K                                                     *018 LM00031
                  VECTOR VALUES LCM = $LOWEST COMMON LOCATION        $,0,777777777777K            *019 LM00032
                  VECTOR VALUES LC = 33                                                           *020 LM00033
                  VECTOR VALUES LPOINT = 7000K                                                    *021 LM00034
                  VECTOR VALUES MASK1 = 7777K8                                                    *022 LM00035
                  VECTOR VALUES MASK2 = 000077000000K                                             *023 LM00036
                  VECTOR VALUES MASK3 = 000000777777K                                             *024 LM00037
                  VECTOR VALUES MASK4 = 577777777777K                                             *025 LM00038
                  VECTOR VALUES MEARAY(0) = 0                                                     *026 LM00039
                  VECTOR VALUES MESS1 = $EOF IN PROGRAM CARD INFORMATION, FILE SKIPPED$           *027 LM00040
                  VECTOR VALUES MESS2 = $COMMAND FORM IS ' PLOAD NAME1 -TYPE- -'NOLIST'-          *028 LM00041
                1 -'COMB'-'$,777777777777K                                                        *028 LM00042
                  VECTOR VALUES MESS3 = $  WHERE TYPE MAY BE 'NCLOAD' OR 'VLOAD'$,                *029 LM00043
                1  777777777777K                                                                  *029 LM00044
                  VECTOR VALUES MFARAY(0) = 0                                                     *030 LM00045
                  VECTOR VALUES MULT(0) = 0                                                       *031 LM00046
                  VECTOR VALUES NASTY = 0,777777777777K                                           *032 LM00047
                  VECTOR VALUES NA2 = $STOMAP$                                                    *033 LM00048
                  VECTOR VALUES N2 = $  LOAD$                                                     *034 LM00049
                  VECTOR VALUES QBSS = $   BSS$                                                   *035 LM00050
                  VECTOR VALUES QCOMB = $  COMB$                                                  *036 LM00051
                  VECTOR VALUES PROGSW = 0                                                        *037 LM00052
                  VECTOR VALUES SUM1 = 777777000004K,$0   PRELOAD   SUCCESSFUL$,                  *038 LM00053
                2 777777000006K,$      LOWEST COMMON LOCATION  $,0,                               *038 LM00054
                3 777777000006K,$      HIGHEST PROGRAM LOCATION$,0,                               *038 LM00055
                4 777777000010K,$      TOTAL NOT USED          $,0,$ DECIMAL$                     *038 LM00056
                  VECTOR VALUES SUM1A = $UNSUCC$                                                  *039 LM00057
                  VECTOR VALUES SUM2 = 777777000004K,$      MISSING FILES ARE$                    *040 LM00058
                  VECTOR VALUES SUM3 = 777777000005K,$      MISSING ENTRY POINTS ARE$             *041 LM00059
                  VECTOR VALUES SUM4 = 777777000006K,$      DUPLICATED ENTRY POINTS ARE$          *042 LM00060
                  VECTOR VALUES TITLE = 777777000020K,$   STOMAP FOR PRELOD OF $                  *043 LM00061
                1  ,0,$ SYSTEM $,0,$            $,0,$      $,0,$      $,0,0                       *043 LM00062
                  VECTOR VALUES TVSW = 0                                                          *044 LM00063
                  VECTOR VALUES PL = 0                                                            *045 LM00064
                  VECTOR VALUES TAG = $******$                                                    *046 LM00065
                  VECTOR VALUES BLANK = $      $                                                  *047 LM00066
                  VECTOR VALUES ZERO = 0                                                          *048 LM00067
                  FERRTN.(ERR1)                                                                   *049 LM00068
                  FERRTN.(ERR2)                                                                   *050 LM00069
                  FERRTN.(ERR3)                                                                   *051 LM00070
                  FERRTN.(ERR4)                                                                   *052 LM00071
                                                                                                       LM00072
                    GET AND CHECK ARGUMENTS                                                            LM00073
                                                                                                       LM00074
                  WHENEVER COMARG.(1,N1).E.FENCE                                                  *053 LM00075
                     PRNTP.(MESS2)                                                                *054 LM00076
                     PRNTP.(MESS3)                                                                *055 LM00077
                     CHNCOM.(0)                                                                   *056 LM00078
                  OR WHENEVER COMARG.(2) .E. FENCE                                                *057 LM00079
                    TRANSFER TO START                                                             *058 LM00080
                  OR WHENEVER COMARG.(2).E.$NCLOAD$                                               *059 LM00081
                    LPOINT = 30K                                                                  *060 LM00082
                  OR WHENEVER COMARG.(2).E.$ VLOAD$                                               *061 LM00083
                    LPOINT = 346K                                                                 *062 LM00084
                  END OF CONDITIONAL                                                              *063 LM00085
                  WHENEVER COMARG.(2).E.QCOMB .OR. COMARG.(3) .E. QCOMB                           *064 LM00086
                1  .OR. COMARG.(4) .E. QCOMB,ICOMB = 1                                            *064 LM00087
                  WHENEVER COMARG.(3) .E. $NOLIST$ .OR. COMARG.(2) .E. $NOLIST$                   *065 LM00088
                1  .OR. COMARG.(4) .E. $NOLIST$,  ILIST = 1                                       *065 LM00089
                    READ FILE NAMES FROM CTSSLD                                                        LM00090
      START       BFOPEN.($R$,N1,N2,BUFF1(BL),-0,-0,ERR1)                                         *066 LM00091
                                                                                                       LM00092
                    READ CTSSLD                                                                        LM00093
                                                                                                       LM00094
      READ1       BFREAD.(N1,N2,A(14)...14,EOF1,EOFCT,ERR1)                                       *067 LM00095
                  WHENEVER (A(14) .E. TAG) .OR. (A(14) .E. $      $), TRANSFER TO READ1           *068 LM00096
                  BFOPEN.($R$,A(14),QBSS,BUFF2(BL),-0,-0,ERR2)                                    *069 LM00097
                                                                                                       LM00098
                    READ NEXT BSS FILE CARD                                                            LM00099
                                                                                                       LM00100
      READ2       BFREAD.(A(14),QBSS,PROG(28)...28,EOF2,EOFCT,ERR2)                               *070 LM00101
      R2          WHENEVER (PROG(28) .A. MASK1) .E. 4005K8                                        *071 LM00102
                    NW = (PROG(28) .A. MASK2) .RS. 18                                             *072 LM00103
                    K = 26                                                                        *073 LM00104
                    WHENEVER PROGSW .E. 1, TRANSFER TO LTOP1                                      *074 LM00105
                    NW = NW-2                                                                     *075 LM00106
                    K = K-2                                                                       *076 LM00107
                    PROGSW = 1                                                                    *077 LM00108
                    LPOINT = LPOINT + PL                                                          *078 LM00109
                  TEMP = (PROG(25) .A. 4K11) .RS. 3                                               *079 LM00110
                  WHENEVER TEMP .NE. 0, LPOINT = 2*((LPOINT+1)/2)                                 *080 LM00111
                                                                                                       LM00112
                    STORE PROGRAM INFORMATION                                                          LM00113
                                                                                                       LM00114
                    PL = PROG(26).A.MASK3                                                         *081 LM00115
                    TVL = PROG(26) .RS. 18                                                        *082 LM00116
                    EPARAY(JE,3) = PROG(25) .A. 377777777777K                                     *083 LM00117
                  WHENEVER (EPARAY(JE,3).NE.0).AND.(EPARAY(JE,3).L.LCOM),                         *084 LM00118
                1 LCOM = EPARAY(JE,3)                                                             *084 LM00119
                    EPARAY(JE,0) = A(14)                                                          *085 LM00120
                    EPARAY(JE,1) = OCABC.(LPOINT)                                                 *086 LM00121
                    EPARAY(JE,2) = PL                                                             *087 LM00122
                    EPARAY(JE,4) = TAG                                                            *088 LM00123
                    JE =JE+1                                                                      *089 LM00124
      LTOP1         THROUGH LOOP1, FOR ICNT = NW,-2,ICNT.LE.0                                     *090 LM00125
                      EPARAY(JE,0) = PROG(K)                                                      *091 LM00126
                      EPARAY(JE,1) = OCABC.(.ABS.(PROG(K-1)) + LPOINT)                            *092 LM00127
                    EPARAY(JE,2) = 3                                                              *093 LM00128
                      K = K-2                                                                     *094 LM00129
      LOOP1           JE = JE + 1                                                                 *095 LM00130
                    TRANSFER TO READ2                                                             *096 LM00131
                    END OF CONDITIONAL                                                            *097 LM00132
                                                                                                       LM00133
                    STORE TRANSFER VECTOR                                                              LM00134
                                                                                                       LM00135
                  WHENEVER TVSW .E. 1, TRANSFER TO LTOP2                                          *098 LM00136
                  TVSW =1                                                                         *099 LM00137
                  JT = (JT/50 + 1) * 50                                                           *100 LM00138
                  TVARAY(JT) = A(14)                                                              *101 LM00139
                  JT = JT + 1                                                                     *102 LM00140
      LTOP2       K = 24                                                                          *103 LM00141
                  IC = 20                                                                         *104 LM00142
                  WHENEVER TVL.L.20, IC = TVL                                                     *105 LM00143
                  THROUGH LOOP2, FOR ICNT = IC, -1, ICNT .E. 0                                    *106 LM00144
                    TVARAY(JT) = PROG(K)                                                          *107 LM00145
                    K = K - 1                                                                     *108 LM00146
      LOOP2         JT = JT + 1                                                                   *109 LM00147
                  WHENEVER TVL .G. 20                                                             *110 LM00148
                    TVL = TVL - 20                                                                *111 LM00149
                    TRANSFER TO READ2                                                             *112 LM00150
                  OTHERWISE                                                                       *113 LM00151
                    TVARAY(JT) = FENCE                                                            *114 LM00152
                    TVSW = 0                                                                      *115 LM00153
                  END OF CONDITIONAL                                                              *116 LM00154
                  PROGSW = 0                                                                      *117 LM00155
                  WHENEVER ICOMB .E. 0                                                            *118 LM00156
                    BFCLOS.(A(14),QBSS,READ1)                                                     *119 LM00157
                    TRANSFER TO READ1                                                             *120 LM00158
                  END OF CONDITIONAL                                                              *121 LM00159
                                                                                                       LM00160
                    IF THIS IS A COMBINED FILE, SEARCH FOR REMAINING P.C.                              LM00161
                                                                                                       LM00162
      SKIP        BFREAD.(A(14),QBSS,PROG(28)...28,EOF3,EOFCT,ERR3)                               *122 LM00163
                  WHENEVER PROG(28) .A. MASK1 .E. 4005K8, TRANSFER TO R2                          *123 LM00164
                  TRANSFER TO SKIP                                                                *124 LM00165
      EOF3        BFCLOS.(A(14),QBSS,READ1)                                                       *125 LM00166
                  TRANSFER TO READ1                                                               *126 LM00167
                                                                                                       LM00168
                    ENTIRE CTSSLD HAS BEEN READ AND ALL PROGRAM                                        LM00169
                    INFORMATION STORED                                                                 LM00170
                                                                                                       LM00171
      EOF1        BFCLOS.(N1,N2,EOF1A)                                                            *127 LM00172
      EOF1A       HCORE = LPOINT + PL                                                             *128 LM00173
                  JESAVE = JE                                                                     *129 LM00174
                  WHENEVER JT .L. 0                                                               *130 LM00175
                    TVARAY(1) = FENCE                                                             *131 LM00176
                    TVARAY(2) = FENCE                                                             *132 LM00177
                    TRANSFER TO PART2                                                             *133 LM00178
                  END OF CONDITIONAL                                                              *134 LM00179
                  TVARAY(JT+1) = FENCE                                                            *135 LM00180
                  JT = - 50                                                                       *136 LM00181
                  TRANSFER TO PART2                                                               *137 LM00182
                                                                                                       LM00183
                    I/O ERROR RETURNS                                                                  LM00184
                                                                                                       LM00185
      EOF2        PRNTP.(MESS1)                                                                   *138 LM00186
                  TRANSFER TO ER2A                                                                *139 LM00187
      ERR1        PRNTER.                                                                         *140 LM00188
                  BFCLOS.($ALL$,-0,ERRX)                                                          *141 LM00189
      ERRX        CHNCOM.(0)                                                                      *142 LM00190
      ERR2        PRNTER.                                                                         *143 LM00191
      ER2A        BFCLOS.(A(14),QBSS,ER2B)                                                        *144 LM00192
      ER2B        MFARAY = MFARAY + 1                                                             *145 LM00193
                  MFARAY(MFARAY) = A(14)                                                          *146 LM00194
                  TRANSFER TO READ1                                                               *147 LM00195
      ERR3        PRNTER.                                                                         *148 LM00196
                  BFCLOS. (A(14),QBSS,READ1)                                                      *149 LM00197
                  TRANSFER TO READ1                                                               *150 LM00198
                                                                                                       LM00199
                    CHECK T.V. AGAINST ENTRY POINTS                                                    LM00200
                    IF ENTRY POINT FOUND, STORE CALLING FILE NAME                                      LM00201
                    IF ENTRY POINT NOT FOUND, STORE TRANSFER NAME                                      LM00202
                    IN MISSING ENTRY POINT ARRAY (MEARAY)                                              LM00203
                                                                                                       LM00204
      PART2       JT = (JT/50 + 1)*50                                                             *151 LM00205
                  MODNAM = TVARAY(JT)                                                             *152 LM00206
      MNAM        JT = JT +1                                                                      *153 LM00207
                  WHENEVER TVARAY(JT) .NE. FENCE, TRANSFER TO LTOP3                               *154 LM00208
                  WHENEVER TVARAY(JT+1) .E. FENCE, TRANSFER TO DUPCK                              *155 LM00209
                  TRANSFER TO PART2                                                               *156 LM00210
      LTOP3       THROUGH LOOP3, FOR JE=1,1, JE.GE.JESAVE                                         *157 LM00211
                    WHENEVER EPARAY(JE,4) .E. TAG                                                 *158 LM00212
                      FILEN = EPARAY(JE,0)                                                        *159 LM00213
                      TRANSFER TO LOOP3                                                           *160 LM00214
                    END OF CONDITIONAL                                                            *161 LM00215
                    WHENEVER TVARAY(JT) .NE. EPARAY(JE,0), TRANSFER TO LOOP3                      *162 LM00216
                    TV1(JT,0) = FILEN                                                             *163 LM00217
                    TV1(JT,1) = EPARAY(JE,1)                                                      *164 LM00218
                    WHENEVER EPARAY(JE,2) .G. 14, TRANSFER TO MNAM                                *165 LM00219
                    EPARAY(JE,EPARAY(JE,2)) = MODNAM                                              *166 LM00220
                    EPARAY(JE,2) = EPARAY(JE,2) + 1                                               *167 LM00221
                    TRANSFER TO MNAM                                                              *168 LM00222
      LOOP3       CONTINUE                                                                        *169 LM00223
                  MEARAY = MEARAY + 1                                                             *170 LM00224
                  MEARAY(MEARAY) = TVARAY(JT)                                                     *171 LM00225
                  TV1(JT,0) = BLANK                                                               *172 LM00226
                  TV1(JT,1) = BLANK                                                               *173 LM00227
                  TRANSFER TO MNAM                                                                *174 LM00228
                                                                                                       LM00229
                    CHECK FOR DUPLICATED ENTRY POINTS                                                  LM00230
                                                                                                       LM00231
      DUPCK       THROUGH LOOP5, FOR JE1 = 1,1,JE1.GE.JESAVE                                      *175 LM00232
                    WHENEVER EPARAY(JE1,4) .E. TAG, TRANSFER TO LOOP5                             *176 LM00233
                    THROUGH LOOP4, FOR JE=JE1+1,1,JE.E.JESAVE                                     *177 LM00234
                      WHENEVER EPARAY(JE,4) .E. TAG, TRANSFER TO LOOP4                            *178 LM00235
                      WHENEVER EPARAY(JE1,0) .NE. EPARAY(JE,0), TRANSFER TO LOOP4                 *179 LM00236
                      MULT = MULT + 1                                                             *180 LM00237
                      MULT(MULT) = EPARAY(JE,0)                                                   *181 LM00238
                      TRANSFER TO LOOP5                                                           *182 LM00239
      LOOP4         CONTINUE                                                                      *183 LM00240
      LOOP5       CONTINUE                                                                        *184 LM00241
                                                                                                       LM00242
                    WRITE FILE FOR OUTPUT                                                              LM00243
                                                                                                       LM00244
                  EXECUTE DELETE.(FILNAM)                                                         *185 LM00245
                  BFOPEN.($W$,N1,NA2,BUFF1(BL),BUFF2(BL),BUFF3(BL),ERR4)                          *186 LM00246
                  TITLE(8) = N1                                                                   *187 LM00247
                  GETTM.(TITLE(11),TITLE(13))                                                     *188 LM00248
                  TITLE(5)=(N1.A.777777770000K).V.000000005757K                                   *189 LM00249
                  WHOAMI.(TITLE(16)...2)                                                          *190 LM00250
                  LINE(LC-15) = TITLE(16)                                                         *191 LM00251
                  LINE(LC-16) = TITLE(15)                                                         *192 LM00252
                  THROUGH LOOP6, FOR IC = 0,1,IC .G. 14                                           *193 LM00253
      LOOP6       LINE(LC-IC) = TITLE(IC)                                                         *194 LM00254
                  BFWRIT.(N1,NA2,LINE(LC)...17,ERR4)                                              *195 LM00255
                  WHENEVER ILIST .E. 1 .OR. JESAVE .L. 1, TRANSFER TO SUMERY                      *196 LM00256
                  THROUGH LOOP7, FOR IC = 0,1,IC .G. 11                                           *197 LM00257
      LOOP7       LINE(LC-IC) = HEAD(IC)                                                          *198 LM00258
                  BFWRIT.(N1,NA2,LINE(LC)...12, ERR4)                                             *199 LM00259
                  JT = -50                                                                        *200 LM00260
                  JE = 0                                                                          *201 LM00261
                                                                                                       LM00262
                    PRINT FILE LINE                                                                    LM00263
                                                                                                       LM00264
      LTOP8       BFWRIT.(N1,NA2,BLANK3(3)...4,ERR4)                                              *202 LM00265
                  LINE(LC) = 777777000007K                                                        *203 LM00266
                  LINE(LC-1) = BLANK                                                              *204 LM00267
                  LINE(LC-2) = $FILE  $                                                           *205 LM00268
                  LINE(LC-3) = EPARAY(JE,0)                                                       *206 LM00269
                  LINE(LC-4) = BLANK                                                              *207 LM00270
                  LINE(LC-5) = (EPARAY(JE,1))                                                     *208 LM00271
                  LINE(LC-6) = OCABC.(EPARAY(JE,2))                                               *209 LM00272
                  LINE(LC-7) = OCABC.(EPARAY(JE,3))                                               *210 LM00273
                  BFWRIT.(N1,NA2,LINE(LC)...8,ERR4)                                               *211 LM00274
                                                                                                       LM00275
                    PRINT EACH TRANSFER VECTOR                                                         LM00276
                                                                                                       LM00277
                  LINE(LC) = 777777000011K                                                        *212 LM00278
                  LINE(LC-1) = BLANK                                                              *213 LM00279
                  LINE(LC-2) = BLANK                                                              *214 LM00280
                  LINE(LC-3) = BLANK                                                              *215 LM00281
                  LINE(LC-5) = BLANK                                                              *216 LM00282
                  LINE(LC-6) = BLANK                                                              *217 LM00283
                  LINE(LC-7) = BLANK                                                              *218 LM00284
                  JT = (JT/50+1)*50 + 1                                                           *219 LM00285
      LTOP9       WHENEVER TVARAY(JT) .E. FENCE, TRANSFER TO TOP10                                *220 LM00286
                  LINE(LC-4) = TVARAY(JT)                                                         *221 LM00287
                  LINE(LC-8) = TV1(JT,0)                                                          *222 LM00288
                  LINE(LC-9) = TV1(JT,1)                                                          *223 LM00289
                  BFWRIT.(N1,NA2,LINE(LC)...10,ERR4)                                              *224 LM00290
                  JT = JT + 1                                                                     *225 LM00291
                  TRANSFER TO LTOP9                                                               *226 LM00292
      TOP10       LINE(LC-4) = BLANK                                                              *227 LM00293
                  LINE(LC-6) = BLANK                                                              *228 LM00294
                  LINE(LC-7) = BLANK                                                              *229 LM00295
      LTOP10      JE = JE + 1                                                                     *230 LM00296
                                                                                                       LM00297
                    PRINT EACH ENTRY POINT NAME, LOAD POINT                                            LM00298
                    AND CALLERS                                                                        LM00299
                                                                                                       LM00300
                  WHENEVER JE .GE. JESAVE, TRANSFER TO SUMERY                                     *231 LM00301
                  WHENEVER EPARAY(JE,4) .E. TAG, TRANSFER TO LTOP8                                *232 LM00302
                  NLC= (2*(EPARAY(JE,2)-3)+7)                                                     *233 LM00303
                  LINE(LC)= (NLC-1).V.777777K6                                                    *234 LM00304
                  LINE(LC-3) = EPARAY(JE,0)                                                       *235 LM00305
                  LINE(LC-5) = (EPARAY(JE,1))                                                     *236 LM00306
                  LINE(LC-7) = BLANK                                                              *237 LM00307
                  LCNT = LC - 8                                                                   *238 LM00308
                  THROUGH LOOP11, FOR IC = 3,1,IC .E. EPARAY(JE,2)                                *239 LM00309
                    LINE(LCNT) = EPARAY(JE,IC)                                                    *240 LM00310
                    LINE(LCNT-1) = 735757575757K                                                  *241 LM00311
      LOOP11      LCNT = LCNT-2                                                                   *242 LM00312
                  BFWRIT.(N1,NA2,LINE(LC)...NLC,ERR4)                                             *243 LM00313
                  TRANSFER TO LTOP10                                                              *244 LM00314
                                                                                                       LM00315
                    PRINT PRELOD SUMMARY                                                               LM00316
                                                                                                       LM00317
      SUMERY      SUM1(18) = OCABC.(HCORE)                                                        *245 LM00318
                  SUM1(11) = OCABC.(LCOM)                                                         *246 LM00319
                  SUM1(25) = BZEL.(DERBC.(LCOM-HCORE))                                            *247 LM00320
                  WHENEVER HCORE.G.LCOM, SUM1(25) =SUM1(25).A.MASK4                               *248 LM00321
                  HPC(5) = SUM1(18)                                                               *249 LM00322
                  LCM(5) = SUM1(11)                                                               *250 LM00323
                  DIFC(5) = SUM1(25)                                                              *251 LM00324
                  WHENEVER HCORE .L. LCOM .AND. (MEARAY+MFARAY) .E. 0                             *252 LM00325
                                                                                                       LM00326
                    SUCCESSFUL PRELOD                                                                  LM00327
                                                                                                       LM00328
                    THROUGH LOOP13, FOR IC = 0,1,IC .G. 27                                        *253 LM00329
      LOOP13        LINE(LC-IC) = SUM1(IC)                                                        *254 LM00330
                    BFWRIT.(N1,NA2,LINE(LC)...28,ERR4)                                            *255 LM00331
                    PRINT COMMENT $SYSTEM PRELOAD SUCCESSFUL$                                     *256 LM00332
                  PRNTP.(LCM)                                                                     *257 LM00333
                  PRNTP.(HPC)                                                                     *258 LM00334
                  PRNTP.(DIFC)                                                                    *259 LM00335
                    TRANSFER TO MUCK                                                              *260 LM00336
                  END OF CONDITIONAL                                                              *261 LM00337
                    UNSUCCESSFUL PRELOD                                                                LM00338
                                                                                                       LM00339
                  SUM1(3) = SUM1A                                                                 *262 LM00340
                  THROUGH LOOP14, FOR IC = 0,1,IC .G. 27                                          *263 LM00341
      LOOP14      LINE(LC-IC) = SUM1(IC)                                                          *264 LM00342
                  BFWRIT.(N1,NA2,LINE(LC)...28, ERR4)                                             *265 LM00343
                  PRINT COMMENT $SYSTEM PRELOAD UNSUCCESSFUL$                                     *266 LM00344
                  PRNTP.(LCM)                                                                     *267 LM00345
                  PRNTP.(HPC)                                                                     *268 LM00346
                  PRNTP.(DIFC)                                                                    *269 LM00347
                  WHENEVER MFARAY .E. 0, TRANSFER TO MECK                                         *270 LM00348
                                                                                                       LM00349
                    PRINT MISSING FILES                                                                LM00350
                                                                                                       LM00351
                  THROUGH LOOP15, FOR IC = 0,1,IC .G. 4                                           *271 LM00352
      LOOP15      LINE(LC-IC) = SUM2(IC)                                                          *272 LM00353
                  BFWRIT.(N1,NA2,LINE(LC)...5,ERR4)                                               *273 LM00354
                  PRINT COMMENT $MISSING FILES ARE$                                               *274 LM00355
                  LINE(LC) = 777777000003K                                                        *275 LM00356
                  LINE(LC-2) = BLANK                                                              *276 LM00357
                  THROUGH LOOP16, FOR IC = 1,1,IC .G. MFARAY                                      *277 LM00358
                  LINE(LC-3) = MFARAY(IC)                                                         *278 LM00359
                  NASTY(0) = MFARAY(IC)                                                           *279 LM00360
                  PRNTP.(NASTY)                                                                   *280 LM00361
      LOOP16      BFWRIT.(N1,NA2,LINE(LC)...4,ERR4)                                               *281 LM00362
      MECK        WHENEVER MEARAY .E. 0, TRANSFER TO MUCK                                         *282 LM00363
                                                                                                       LM00364
                    PRINT MISSING ENTRY POINTS                                                         LM00365
                                                                                                       LM00366
                  THROUGH LOOP17, FOR IC = 0,1,IC .G. 5                                           *283 LM00367
      LOOP17      LINE(LC-IC) = SUM3(IC)                                                          *284 LM00368
                  BFWRIT.(N1,NA2,LINE(LC)...6,ERR4)                                               *285 LM00369
                  PRINT COMMENT $MISSING ENTRY POINTS ARE$                                        *286 LM00370
                  LINE(LC) = 777777000003K                                                        *287 LM00371
                  LINE(LC-2) = BLANK                                                              *288 LM00372
                  THROUGH LOOP18, FOR IC = 1,1,IC .G. MEARAY                                      *289 LM00373
                  LINE(LC-3) = MEARAY(IC)                                                         *290 LM00374
                  NASTY(0) = MEARAY(IC)                                                           *291 LM00375
                  PRNTP.(NASTY)                                                                   *292 LM00376
      LOOP18      BFWRIT. (N1,NA2,LINE(LC)...4,ERR4)                                              *293 LM00377
      MUCK        WHENEVER MULT .E. 0, TRANSFER TO END                                            *294 LM00378
                                                                                                       LM00379
                    PRINT DUPLICATED ENTRY POINTS                                                      LM00380
                                                                                                       LM00381
                  THROUGH LOOP19, FOR IC = 0,1,IC .G. 6                                           *295 LM00382
      LOOP19      LINE(LC-IC) = SUM4(IC)                                                          *296 LM00383
                  BFWRIT.(N1,NA2,LINE(LC)...7,ERR4)                                               *297 LM00384
                  PRINT COMMENT $DUPLICATED ENTRY POINTS ARE$                                     *298 LM00385
                  LINE(LC) = 777777000003K                                                        *299 LM00386
                  LINE (LC-2) = BLANK                                                             *300 LM00387
                  THROUGH LOOP20, FOR IC = 1,1,IC .G. MULT                                        *301 LM00388
                  LINE(LC-3) = MULT(IC)                                                           *302 LM00389
                  NASTY(0) = MULT(IC)                                                             *303 LM00390
                  PRNTP.(NASTY)                                                                   *304 LM00391
      LOOP20      BFWRIT.(N1,NA2,LINE(LC)...4,ERR4)                                               *305 LM00392
                  TRANSFER TO END                                                                 *306 LM00393
      ERR4        PRNTER.                                                                         *307 LM00394
      END         BFCLOS.(N1,NA2,END2)                                                            *308 LM00395
      END2        CHNCOM.(0)                                                                      *309 LM00396
                  END OF PROGRAM                                                                  *310 LM00397
1MAD PROGRAM,TYPE NOV 1963      (ALL NUMBERS ARE OCTAL)
0TOTAL LOCATIONS   61746 TRANSFER VECTOR LENGTH  00024 PROGRAM BEGINS    57137
0VARIABLE STORAGE (A=ARRAY,C=COMMON,E=ERASABLE,DIGIT=MODE)
      A      00110 A 1        ERR3   00043   4        LOOP11 00024   4        MASK1  25477 A 1        PROGSW 27411 A 1
      BLANK3 00114 A 1        ERR4   00044   4        LOOP13 00024   4        MASK2  25500 A 1        QBSS   27412 A 1
      BLANK  00115 A 1        ERRX   00045   4        LOOP14 00024   4        MASK3  25501 A 1        QCOMB  27413 A 1
      BL     00116 A 1        FENCE  25363 A 1        LOOP15 00024   4        MASK4  25502 A 1        R2     00063   4
      BUFF1  00777 A 1        FILEN  25364   1        LOOP16 00024   4        MEARAY 26633 A 1        READ1  00064   4
      BUFF2  01660 A 1        FILNAM 00027 A 1        LOOP17 00024   4        MECK   00057   4        READ2  00065   4
      BUFF3  02541 A 1        HCORE  25365   1        LOOP18 00024   4        MESS1  26643 A 1        SKIP   00066   4
      DIFC   02552 A 1        HEAD   25401 A 1        LOOP19 00024   4        MESS2  26656 A 1        START  00067   4
      DIM    02555 A 1        HPC    25410 A 1        LOOP1  00024   4        MESS3  26666 A 1        SUM1A  27414 A 1
      DTV    02560 A 1        ICNT   25411   1        LOOP20 00024   4        MFARAY 27033 A 1        SUM1   27450 A 1
      DUPCK  00030   4        ICOMB  25412 A 1        LOOP2  00024   4        MNAM   00060   4        SUM2   27455 A 1
      END2   00031   4        IC     25413   1        LOOP3  00046   4        MODNAM 27034   1        SUM3   27463 A 1
      END    00032   4        ILIST  25414 A 1        LOOP4  00047   4        MUCK   00061   4        SUM4   27472 A 1
      EOF1A  00033   4        JE1    25415   1        LOOP5  00050   4        MULT   27345 A 1        SUMERY 00070   4
      EOF1   00034   4        JE     25416 A 1        LOOP6  00024   4        N1     00027   1        TAG    27473 A 1
      EOF2   00035   4        JESAVE 25417   1        LOOP7  00024   4        N2     27346 A 1        TEMP   27474   1
      EOF3   00036   4        JT     25420 A 1        LPOINT 25476 A 1        NA2    00026 A 1        TITLE  27515 A 1
      EOFCT  02561   1        K      25421   1        LTOP10 00051   4        NASTY  27350 A 1        TOP10  00071   4
      EPARAY 25362 A 1        LCM    25430 A 1        LTOP1  00052   4        NLC    27351   1        TV1    47216 A 1
      ER2A   00037   4        LCNT   25431   1        LTOP2  00053   4        NW     27352   1        TVARAY 57057 A 1
      ER2B   00040   4        LCOM   25432 A 1        LTOP3  00054   4        PART2  00062   4        TVL    57060   1
      ERR1   00041   4        LC     25433 A 1        LTOP8  00055   4        PL     27353 A 1        TVSW   57061 A 1
      ERR2   00042   4        LINE   25475 A 1        LTOP9  00056   4        PROG   27410 A 1        ZERO   57062 A 1
0FUNCTION DICTIONARY
      .03310 00000   0        .03311 00001   0        BFCLOS 00002   1        BFOPEN 00003   1        BFREAD 00004   1
      BFWRIT 00005   1        BZEL   00006   1        CHNCOM 00007   1        COMARG 00010   1        DELETE 00011   1
      DERBC  00012   1        EXIT   00013   1        FERRTN 00014   1        GETTM  00015   1        .PCOMT 00016   1
      .SETUP 00017   1        OCABC  00020   1        PRNTER 00021   1        PRNTP  00022   1        WHOAMI 00023   1
0ABSOLUTE CONSTANTS
 57133 -377777000003     57110 +000000000033     57131 -335757575757     57132 -377777000000     57075 +000000000012
 57074 +000000000011     57135 -377777000011     57073 +000000000010     57072 +000000000007     57071 +000000000006
 57070 +000000000005     57117 +263143256060     57134 -377777000007     57077 +000000000014     57076 +000000000013
 57103 +000000000021     57102 +000000000020     57101 +000000000017     57114 +000000005757     57136 -377777770000
 57130 -266060606060     57115 +214343606060     57105 +000000000024     57112 +000000000062     57120 +377777777777
 57121 -000000000000     57107 +000000000032     57104 +000000000022     57122 -000500000000     57111 +000000000034
 57126 -206060606060     57100 +000000000016     57125 -116060606060     57124 -054643316263     57066 +000000000003
 57067 +000000000004     57113 +000000000346     57127 -206543462124     57106 +000000000030     57123 -052343462124
 57065 +000000000002     57063 +000000000000     57064 +000000000001     57116 +233000000000
0STATEMENT DICTIONARY
 00030 TXL -360272060260       00031 TXL -361741061737       00032 TXL -361737061733       00033 TXL -357754057751
 00034 TXL -357751057745       00035 TXL -360001057777       00036 TXL -357744057740       00037 TXL -360020060014
 00040 TXL -360023060020       00041 TXL -360003060002       00042 TXL -360014060013       00043 TXL -360030060027
 00044 TXL -361733061732       00045 TXL -360013060011       00046 TXL -360232060231       00047 TXL -360362060361
 00050 TXL -360363060362       00051 TXL -361036061033       00052 TXL -357536057524       00053 TXL -357635057633
 00054 TXL -360103060071       00055 TXL -360543060536       00056 TXL -360743060736       00057 TXL -361510061504
 00060 TXL -360054060051       00061 TXL -361622061616       00062 TXL -360046060035       00063 TXL -357336057330
 00064 TXL -357272057263       00065 TXL -357330057321       00066 TXL -357730057721       00067 TXL -357263057243
 00070 TXL -361211061206       00071 TXL -361021061014
0PROGRAM
                 NORMAL MODE IS INTEGER                                             001  LM00012
                 DIMENSION BUFF1(432),BUFF2(432),A(14),PROG(28),TVARAY(4000)        002  LM00013
                 DIMENSION EPARAY(9600,DIM),MFARAY(100),MEARAY(600),MULT(200)       003  LM00014
                 DIMENSION LINE(33),FILNAM(2),BUFF3(432),TV1(8000,DTV)              004  LM00015
                 EQUIVALENCE (FILNAM(0),N1),(FILNAM(1),NA2)                         005  LM00016
                 V'S BL = 432                                                       006  LM00017
 57137 TSX +0 07400 4 00017    00116     +0 00000 0 00660
                 V'S BLANK3 = $                  $,777777000003K                    007  LM00018
 00111     -3 77777 0 00003    00112     -2 06060 6 06060    00113     -2 06060 6 06060    00114     -2 06060 6 06060
                 V'S DIFC=$TOTAL LOCATIONS NOT USED      $,0,$ DECIMAL$,            008  LM00019
                1777777777777K                                                      008  LM00020
 02542     -3 77777 7 77777    02543     +2 14360 6 06060    02544     -2 02425 2 33144    02545     +0 00000 0 00000
 02546     -2 06060 6 06060    02547     -2 36064 6 22524    02550     -0 64562 6 04546    02551     -0 34623 2 16331
 02552     -2 34663 2 14360
                 V'S DIM = 2,17,16                                                  009  LM00021
 02553     +0 00000 0 00020    02554     +0 00000 0 00021    02555     +0 00000 0 00002
                 V'S DTV = 2,3,2                                                    010  LM00022
 02556     +0 00000 0 00002    02557     +0 00000 0 00003    02560     +0 00000 0 00002
                 V'S FENCE = 777777777777K                                          011  LM00023
 25363     -3 77777 7 77777
                 V'S HEAD = 777777000013K,$0            NAME  T.V. ORGIN LENTH      012  LM00024
                1 COMMON      CROSS REFERENCE$                                      012  LM00025
 25366     -0 52325 6 06060    25367     -1 12526 2 55125    25370     +2 35146 6 26260    25371     -2 06060 6 06060
 25372     +2 34644 4 44645    25373     -0 32545 6 33060    25374     -0 65127 3 14560    25375     -2 06333 6 53360
 25376     -2 04521 4 42560    25377     -2 06060 6 06060    25400     +0 06060 6 06060    25401     -3 77777 0 00013
                 V'S HPC = $HIGHEST PROGRAM LOCATION      $,0,777777777777K         013  LM00026
 25402     -3 77777 7 77777    25403     +0 00000 0 00000    25404     -2 06060 6 06060    25405     +2 32163 3 14645
 25406     -1 12144 6 04346    25407     -2 36047 5 14627    25410     +3 03127 3 02562
                 V'S ICOMB = 0                                                      014  LM00027
 25412     +0 00000 0 00000
                 V'S ILIST = 0                                                      015  LM00028
 25414     +0 00000 0 00000
                 V'S JE = 0                                                         016  LM00029
 25416     +0 00000 0 00000
                 V'S JT = -50                                                       017  LM00030
 25420     -0 00000 0 00062
                 V'S LCOM = 77777K                                                  018  LM00031
 25432     +0 00000 0 77777
                 V'S LCM = $LOWEST COMMON LOCATION        $,0,777777777777K         019  LM00032
 25422     -3 77777 7 77777    25423     +0 00000 0 00000    25424     -2 06060 6 06060    25425     -2 33146 4 56060
 25426     -0 56043 4 62321    25427     -2 02346 4 44446    25430     -0 34666 2 56263
                 V'S LC = 33                                                        020  LM00033
 25433     +0 00000 0 00041
                 V'S LPOINT = 7000K                                                 021  LM00034
 25476     +0 00000 0 07000
                 V'S MASK1 = 7777K8                                                 022  LM00035
 25477     -3 77700 0 00000
                 V'S MASK2 = 000077000000K                                          023  LM00036
 25500     +0 00077 0 00000
                 V'S MASK3 = 000000777777K                                          024  LM00037
 25501     +0 00000 7 77777
                 V'S MASK4 = 577777777777K                                          025  LM00038
 25502     -1 77777 7 77777
                 V'S MEARAY(0) = 0                                                  026  LM00039
 26633     +0 00000 0 00000
                 V'S MESS1 = $EOF IN PROGRAM CARD INFORMATION, FILE SKIPPED$        027  LM00040
 26634     -0 72524 6 06060    26635     +2 56062 4 23147    26636     -0 57360 2 63143    26637     -1 14421 6 33146
 26640     +2 46031 4 52646    26641     +2 14460 2 32151    26642     -2 04751 4 62751    26643     +2 54626 6 03145
                 V'S MESS2 = $COMMAND FORM IS ' PLOAD NAME1 -TYPE- -'NOLIST'-       028  LM00041
                1-'COMB'-'$,777777777777K                                           028  LM00042
 26644     -3 77777 7 77777    26645     +1 44014 6 06060    26646     -0 01423 4 64422    26647     +3 16263 1 44060
 26650     -2 04014 4 54643    26651     -0 06370 4 72540    26652     -0 52144 2 50160    26653     -0 74346 2 12460
 26654     -2 03162 6 01460    26655     +2 46026 4 65144    26656     +2 34644 4 42145
                 V'S MESS3 = $  WHERE TYPE MAY BE 'NCLOAD' OR 'VLOAD'$,             029  LM00043
                1 777777777777K                                                     029  LM00044
 26657     -3 77777 7 77777    26660     +2 12414 6 06060    26661     -1 16014 6 54346    26662     -0 62124 1 46046
 26663     +2 56014 4 52343    26664     -2 04421 7 06022    26665     +2 56063 7 04725    26666     -2 06066 3 02551
                 V'S MFARAY(0) = 0                                                  030  LM00045
 27033     +0 00000 0 00000
                 V'S MULT(0) = 0                                                    031  LM00046
 27345     +0 00000 0 00000
                 V'S NASTY = 0,777777777777K                                        032  LM00047
 27347     -3 77777 7 77777    27350     +0 00000 0 00000
                 V'S NA2 = $STOMAP$                                                 033  LM00048
 00026     -2 26346 4 42147
                 V'S N2 = $  LOAD$                                                  034  LM00049
 27346     -2 06043 4 62124
                 V'S QBSS = $   BSS$                                                035  LM00050
 27412     -2 06060 2 26262
                 V'S QCOMB = $  COMB$                                               036  LM00051
 27413     -2 06023 4 64422
                 V'S PROGSW = 0                                                     037  LM00052
 27411     +0 00000 0 00000
                 V'S SUM1 = 777777000004K,$0   PRELOAD   SUCCESSFUL$,               038  LM00053
                2777777000006K,$      LOWEST COMMON LOCATION  $,0,                  038  LM00054
                3777777000006K,$      HIGHEST PROGRAM LOCATION$,0,                  038  LM00055
                4777777000010K,$      TOTAL NOT USED          $,0,$ DECIMAL$        038  LM00056
 27415     +2 14360 6 06060    27416     -2 02425 2 33144    27417     +0 00000 0 00000    27420     -2 06060 6 06060
 27421     +2 52460 6 06060    27422     -0 54663 6 06462    27423     -2 34663 2 14360    27424     -2 06060 6 06060
 27425     -3 77777 0 00010    27426     +0 00000 0 00000    27427     +2 32163 3 14645    27430     -1 12144 6 04346
 27431     -2 36047 5 14627    27432     +3 03127 3 02562    27433     -2 06060 6 06060    27434     -3 77777 0 00006
 27435     +0 00000 0 00000    27436     -2 33146 4 56060    27437     -0 56043 4 62321    27440     -2 02346 4 44446
 27441     -0 34666 2 56263    27442     -2 06060 6 06060    27443     -3 77777 0 00006    27444     +2 56262 2 66443
 27445     -2 06062 6 42323    27446     +2 54346 2 12460    27447     +0 06060 6 04751    27450     -3 77777 0 00004
                 V'S SUM1A = $UNSUCC$                                               039  LM00057
 27414     -2 44562 6 42323
                 V'S SUM2 = 777777000004K,$      MISSING FILES ARE$                 040  LM00058
 27451     -2 26021 5 12560    27452     +2 76026 3 14325    27453     -0 43162 6 23145    27454     -2 06060 6 06060
 27455     -3 77777 0 00004
                 V'S SUM3 = 777777000005K,$      MISSING ENTRY POINTS ARE$          041  LM00059
 27456     -2 36260 2 15125    27457     -3 06047 4 63145    27460     +2 76025 4 56351    27461     -0 43162 6 23145
 27462     -2 06060 6 06060    27463     -3 77777 0 00005
                 V'S SUM4 = 777777000006K,$      DUPLICATED ENTRY POINTS ARE$       042  LM00060
 27464     +2 15125 6 06060    27465     -0 63145 6 36260    27466     -0 56351 7 06047    27467     +2 16325 2 46025
 27470     +2 46447 4 33123    27471     -2 06060 6 06060    27472     -3 77777 0 00006
                 V'S TITLE = 777777000020K,$   STOMAP FOR PRELOD OF $               043  LM00061
                1 ,0,$ SYSTEM $,0,$            $,0,$      $,0,$      $,0,0          043  LM00062
 27475     +0 00000 0 00000    27476     +0 00000 0 00000    27477     -2 06060 6 06060    27500     +0 00000 0 00000
 27501     -2 06060 6 06060    27502     +0 00000 0 00000    27503     -2 06060 6 06060    27504     -2 06060 6 06060
 27505     +0 00000 0 00000    27506     -0 46060 6 06060    27507     -2 06270 6 26325    27510     +0 00000 0 00000
 27511     -0 62460 4 62660    27512     -1 16047 5 12543    27513     -0 42147 6 02646    27514     -2 06060 6 26346
 27515     -3 77777 0 00020
                 V'S TVSW = 0                                                       044  LM00063
 57061     +0 00000 0 00000
                 V'S PL = 0                                                         045  LM00064
 27353     +0 00000 0 00000
                 V'S TAG = $******$                                                 046  LM00065
 27473     -1 45454 5 45454
                 V'S BLANK = $      $                                               047  LM00066
 00115     -2 06060 6 06060
                 V'S ZERO = 0                                                       048  LM00067
 57062     +0 00000 0 00000
                 FERRTN.(ERR1)                                                      049  LM00068
 57140 TSX +0 07400 4 00014    57141 TXH +3 00000 0 00041
                 FERRTN.(ERR2)                                                      050  LM00069
 57142 TSX +0 07400 4 00014    57143 TXH +3 00000 0 00042
                 FERRTN.(ERR3)                                                      051  LM00070
 57144 TSX +0 07400 4 00014    57145 TXH +3 00000 0 00043
                 FERRTN.(ERR4)                                                      052  LM00071
 57146 TSX +0 07400 4 00014    57147 TXH +3 00000 0 00044
                 W'R COMARG.(1,N1).E.FENCE                                          053  LM00075
 57150 TSX +0 07400 4 00010    57151 TXH +3 00000 0 57064    57152 TXH +3 00000 0 00027    57153 SUB +0 40200 0 25363
 57154 TNZ -0 10000 0 57164
                    PRNTP.(MESS2)                                                   054  LM00076
 57155 TSX +0 07400 4 00022    57156 TXH +3 00000 0 26656
                    PRNTP.(MESS3)                                                   055  LM00077
 57157 TSX +0 07400 4 00022    57160 TXH +3 00000 0 26666
                    CHNCOM.(0)                                                      056  LM00078
 57161 TSX +0 07400 4 00007    57162 TXH +3 00000 0 57063
                 O'R COMARG.(2) .E. FENCE                                           057  LM00079
 57163 TRA +0 02000 0 57207    57164 TSX +0 07400 4 00010    57165 TXH +3 00000 0 57065    57166 SUB +0 40200 0 25363
 57167 TNZ -0 10000 0 57172
                   T'O START                                                        058  LM00080
 57170 TRA +0 02000 0 00067
                 O'R COMARG.(2).E.$NCLOAD$                                          059  LM00081
 57171 TRA +0 02000 0 57207    57172 TSX +0 07400 4 00010    57173 TXH +3 00000 0 57065    57174 SUB +0 40200 0 57123
 57175 TNZ -0 10000 0 57201
                   LPOINT = 30K                                                     060  LM00082
 57176 CLA +0 50000 0 57106    57177 STO +0 60100 0 25476
                 O'R COMARG.(2).E.$ VLOAD$                                          061  LM00083
 57200 TRA +0 02000 0 57207    57201 TSX +0 07400 4 00010    57202 TXH +3 00000 0 57065    57203 SUB +0 40200 0 57127
 57204 TNZ -0 10000 0 57207
                   LPOINT = 346K                                                    062  LM00084
 57205 CLA +0 50000 0 57113    57206 STO +0 60100 0 25476
                 E'L                                                                063  LM00085
                 W'R COMARG.(2).E.QCOMB .OR. COMARG.(3) .E. QCOMB                   064  LM00086
                1 .OR. COMARG.(4) .E. QCOMB,ICOMB = 1                               064  LM00087
 57207 TSX +0 07400 4 00010    57210 TXH +3 00000 0 57067    57211 SUB +0 40200 0 27413    57212 TZE +0 10000 0 57223
 57213 TSX +0 07400 4 00010    57214 TXH +3 00000 0 57066    57215 SUB +0 40200 0 27413    57216 TZE +0 10000 0 57223
 57217 TSX +0 07400 4 00010    57220 TXH +3 00000 0 57065    57221 SUB +0 40200 0 27413    57222 TNZ -0 10000 0 57225
 57223 CLA +0 50000 0 57064    57224 STO +0 60100 0 25412
                 W'R COMARG.(3) .E. $NOLIST$ .OR. COMARG.(2) .E. $NOLIST$           065  LM00088
                1 .OR. COMARG.(4) .E. $NOLIST$,  ILIST = 1                          065  LM00089
 57225 TSX +0 07400 4 00010    57226 TXH +3 00000 0 57067    57227 SUB +0 40200 0 57124    57230 TZE +0 10000 0 57241
 57231 TSX +0 07400 4 00010    57232 TXH +3 00000 0 57065    57233 SUB +0 40200 0 57124    57234 TZE +0 10000 0 57241
 57235 TSX +0 07400 4 00010    57236 TXH +3 00000 0 57066    57237 SUB +0 40200 0 57124    57240 TNZ -0 10000 0 57243
 57241 CLA +0 50000 0 57064    57242 STO +0 60100 0 25414
      START      BFOPEN.($R$,N1,N2,BUFF1(BL),-0,-0,ERR1)                            066  LM00091
 57243 CLS +0 50200 0 57063    57244 STO +0 60100 0 61742    57245 CLS +0 50200 0 57063    57246 STO +0 60100 0 61743
 57247 CLA +0 50000 0 00116    57250 SUB +0 40200 0 57251    57251 TXH +3 00000 0 00777    57252 STA +0 62100 0 57257
 57253 TSX +0 07400 4 00003    57254 TXH +3 00000 0 57125    57255 TXH +3 00000 0 00027    57256 TXH +3 00000 0 27346
 57257 TXH +3 00000 0 00000    57260 TXH +3 00000 0 61743    57261 TXH +3 00000 0 61742    57262 TXH +3 00000 0 00041
      READ1      BFREAD.(N1,N2,A(14)...14,EOF1,EOFCT,ERR1)                          067  LM00095
 57263 TSX +0 07400 4 00004    57264 TXH +3 00000 0 00027    57265 TXH +3 00000 0 27346    57266 TIX +2 57100 0 00072
 57267 TXH +3 00000 0 00034    57270 TXH +3 00000 0 02561    57271 TXH +3 00000 0 00041
                 W'R (A(14) .E. TAG) .OR. (A(14) .E. $      $), T'O READ1           068  LM00096
 57272 CLA +0 50000 0 00072    57273 SUB +0 40200 0 57126    57274 TZE +0 10000 0 57300    57275 CLA +0 50000 0 00072
 57276 SUB +0 40200 0 27473    57277 TNZ -0 10000 0 57301    57300 TRA +0 02000 0 00064
                 BFOPEN.($R$,A(14),QBSS,BUFF2(BL),-0,-0,ERR2)                       069  LM00097
 57301 CLS +0 50200 0 57063    57302 STO +0 60100 0 61743    57303 CLS +0 50200 0 57063    57304 STO +0 60100 0 61742
 57305 CLA +0 50000 0 00116    57306 SUB +0 40200 0 57307    57307 TXH +3 00000 0 01660    57310 STA +0 62100 0 57315
 57311 TSX +0 07400 4 00003    57312 TXH +3 00000 0 57125    57313 TXH +3 00000 0 00072    57314 TXH +3 00000 0 27412
 57315 TXH +3 00000 0 00000    57316 TXH +3 00000 0 61742    57317 TXH +3 00000 0 61743    57320 TXH +3 00000 0 00042
      READ2      BFREAD.(A(14),QBSS,PROG(28)...28,EOF2,EOFCT,ERR2)                  070  LM00101
 57321 TSX +0 07400 4 00004    57322 TXH +3 00000 0 00072    57323 TXH +3 00000 0 27412    57324 TIX +2 57111 0 27354
 57325 TXH +3 00000 0 00035    57326 TXH +3 00000 0 02561    57327 TXH +3 00000 0 00042
      R2         W'R (PROG(28) .A. MASK1) .E. 4005K8                                071  LM00102
 57330 CAL -0 50000 0 27354    57331 ANA -0 32000 0 25477    57332 SLW +0 60200 0 61743    57333 CLA +0 50000 0 61743
 57334 SUB +0 40200 0 57122    57335 TNZ -0 10000 0 57606
                   NW = (PROG(28) .A. MASK2) .RS. 18                                072  LM00103
 57336 CAL -0 50000 0 27354    57337 ANA -0 32000 0 25500    57340 SLW +0 60200 0 61743    57341 CAL -0 50000 0 57104
 57342 STA +0 62100 0 57344    57343 CAL -0 50000 0 61743    57344 LGR -0 76500 0 00000    57345 SLW +0 60200 0 27352
                   K = 26                                                           073  LM00104
 57346 CLA +0 50000 0 57107    57347 STO +0 60100 0 25421
                   W'R PROGSW .E. 1, T'O LTOP1                                      074  LM00105
 57350 CLA +0 50000 0 27411    57351 SUB +0 40200 0 57064    57352 TNZ -0 10000 0 57354    57353 TRA +0 02000 0 00052
                   NW = NW-2                                                        075  LM00106
 57354 CLA +0 50000 0 27352    57355 SUB +0 40200 0 57065    57356 STO +0 60100 0 27352
                   K = K-2                                                          076  LM00107
 57357 CLA +0 50000 0 25421    57360 SUB +0 40200 0 57065    57361 STO +0 60100 0 25421
                   PROGSW = 1                                                       077  LM00108
 57362 CLA +0 50000 0 57064    57363 STO +0 60100 0 27411
                   LPOINT = LPOINT + PL                                             078  LM00109
 57364 CLA +0 50000 0 25476    57365 ADD +0 40000 0 27353    57366 STO +0 60100 0 25476
                 TEMP = (PROG(25) .A. 4K11) .RS. 3                                  079  LM00110
 57367 CAL -0 50000 0 27357    57370 ANA -0 32000 0 57121    57371 SLW +0 60200 0 61743    57372 CAL -0 50000 0 57066
 57373 STA +0 62100 0 57375    57374 CAL -0 50000 0 61743    57375 LGR -0 76500 0 00000    57376 SLW +0 60200 0 27474
                 W'R TEMP .NE. 0, LPOINT = 2*((LPOINT+1)/2)                         080  LM00111
 57377 CLA +0 50000 0 27474    57400 SUB +0 40200 0 57063    57401 TZE +0 10000 0 57410    57402 CLA +0 50000 0 25476
 57403 ADD +0 40000 0 57064    57404 LRS +0 76500 0 00043    57405 DVP +0 22100 0 57065    57406 MPY +0 20000 0 57065
 57407 STQ -0 60000 0 25476
                   PL = PROG(26).A.MASK3                                            081  LM00115
 57410 CAL -0 50000 0 27356    57411 ANA -0 32000 0 25501    57412 SLW +0 60200 0 27353
                   TVL = PROG(26) .RS. 18                                           082  LM00116
 57413 CAL -0 50000 0 57104    57414 STA +0 62100 0 57416    57415 CAL -0 50000 0 27356    57416 LGR -0 76500 0 00000
 57417 SLW +0 60200 0 57060
                   EPARAY(JE,3) = PROG(25) .A. 377777777777K                        083  LM00117
 57420 CAL -0 50000 0 27357    57421 ANA -0 32000 0 57120    57422 SLW +0 60200 0 61743    57423 LDQ +0 56000 0 57066
 57424 CLA +0 50000 0 25416    57425 TSX +0 07400 4 00001    57426 TXH +3 02555 0 25362    57427 PAX +0 73400 1 00000
 57430 CLA +0 50000 0 61743    57431 STO +0 60100 1 25362
                 W'R (EPARAY(JE,3).NE.0).AND.(EPARAY(JE,3).L.LCOM),                 084  LM00118
                1LCOM = EPARAY(JE,3)                                                084  LM00119
 57432 LDQ +0 56000 0 57066    57433 CLA +0 50000 0 25416    57434 TSX +0 07400 4 00001    57435 TXH +3 02555 0 25362
 57436 PAX +0 73400 1 00000    57437 CLA +0 50000 1 25362    57440 SUB +0 40200 0 25432    57441 TZE +0 10000 0 57462
 57442 TPL +0 12000 0 57462    57443 LDQ +0 56000 0 57066    57444 CLA +0 50000 0 25416    57445 TSX +0 07400 4 00001
 57446 TXH +3 02555 0 25362    57447 PAX +0 73400 1 00000    57450 CLA +0 50000 1 25362    57451 SUB +0 40200 0 57063
 57452 TZE +0 10000 0 57462    57453 LDQ +0 56000 0 57066    57454 CLA +0 50000 0 25416    57455 TSX +0 07400 4 00001
 57456 TXH +3 02555 0 25362    57457 PAX +0 73400 2 00000    57460 CLA +0 50000 2 25362    57461 STO +0 60100 0 25432
                   EPARAY(JE,0) = A(14)                                             085  LM00120
 57462 LDQ +0 56000 0 57063    57463 CLA +0 50000 0 25416    57464 TSX +0 07400 4 00001    57465 TXH +3 02555 0 25362
 57466 PAX +0 73400 1 00000    57467 CLA +0 50000 0 00072    57470 STO +0 60100 1 25362
                   EPARAY(JE,1) = OCABC.(LPOINT)                                    086  LM00121
 57471 TSX +0 07400 4 00020    57472 TXH +3 00000 0 25476    57473 STO +0 60100 0 61743    57474 LDQ +0 56000 0 57064
 57475 CLA +0 50000 0 25416    57476 TSX +0 07400 4 00001    57477 TXH +3 02555 0 25362    57500 PAX +0 73400 1 00000
 57501 CLA +0 50000 0 61743    57502 STO +0 60100 1 25362
                   EPARAY(JE,2) = PL                                                087  LM00122
 57503 LDQ +0 56000 0 57065    57504 CLA +0 50000 0 25416    57505 TSX +0 07400 4 00001    57506 TXH +3 02555 0 25362
 57507 PAX +0 73400 1 00000    57510 CLA +0 50000 0 27353    57511 STO +0 60100 1 25362
                   EPARAY(JE,4) = TAG                                               088  LM00123
 57512 LDQ +0 56000 0 57067    57513 CLA +0 50000 0 25416    57514 TSX +0 07400 4 00001    57515 TXH +3 02555 0 25362
 57516 PAX +0 73400 1 00000    57517 CLA +0 50000 0 27473    57520 STO +0 60100 1 25362
                   JE =JE+1                                                         089  LM00124
 57521 CLA +0 50000 0 25416    57522 ADD +0 40000 0 57064    57523 STO +0 60100 0 25416
      LTOP1        T'H LOOP1, FOR ICNT = NW,-2,ICNT.LE.0                            090  LM00125
 57524 CLA +0 50000 0 27352    57525 STO +0 60100 0 25411    57526 TRA +0 02000 0 57532    57527 CLS +0 50200 0 57065
 57530 ADD +0 40000 0 25411    57531 STO +0 60100 0 25411    57532 CLA +0 50000 0 25411    57533 SUB +0 40200 0 57063
 57534 TZE +0 10000 0 57605    57535 TMI -0 12000 0 57605
                     EPARAY(JE,0) = PROG(K)                                         091  LM00126
 57536 LDQ +0 56000 0 57063    57537 CLA +0 50000 0 25416    57540 TSX +0 07400 4 00001    57541 TXH +3 02555 0 25362
 57542 PAX +0 73400 1 00000    57543 LXA +0 53400 2 25421    57544 CLA +0 50000 2 27410    57545 STO +0 60100 1 25362
                     EPARAY(JE,1) = OCABC.(.ABS.(PROG(K-1)) + LPOINT)               092  LM00127
 57546 CLA +0 50000 0 25421    57547 SUB +0 40200 0 57064    57550 PAX +0 73400 2 00000    57551 CLA +0 50000 2 27410
 57552 SSP +0 76000 0 00003    57553 ADD +0 40000 0 25476    57554 STO +0 60100 0 61743    57555 TSX +0 07400 4 00020
 57556 TXH +3 00000 0 61743    57557 STO +0 60100 0 61743    57560 LDQ +0 56000 0 57064    57561 CLA +0 50000 0 25416
 57562 TSX +0 07400 4 00001    57563 TXH +3 02555 0 25362    57564 PAX +0 73400 1 00000    57565 CLA +0 50000 0 61743
 57566 STO +0 60100 1 25362
                   EPARAY(JE,2) = 3                                                 093  LM00128
 57567 LDQ +0 56000 0 57065    57570 CLA +0 50000 0 25416    57571 TSX +0 07400 4 00001    57572 TXH +3 02555 0 25362
 57573 PAX +0 73400 1 00000    57574 CLA +0 50000 0 57066    57575 STO +0 60100 1 25362
                     K = K-2                                                        094  LM00129
 57576 CLA +0 50000 0 25421    57577 SUB +0 40200 0 57065    57600 STO +0 60100 0 25421
      LOOP1          JE = JE + 1                                                    095  LM00130
 57601 CLA +0 50000 0 25416    57602 ADD +0 40000 0 57064    57603 STO +0 60100 0 25416    57604 TRA +0 02000 0 57527
                   T'O READ2                                                        096  LM00131
 57605 TRA +0 02000 0 00065
                   E'L                                                              097  LM00132
                 W'R TVSW .E. 1, T'O LTOP2                                          098  LM00136
 57606 CLA +0 50000 0 57061    57607 SUB +0 40200 0 57064    57610 TNZ -0 10000 0 57612    57611 TRA +0 02000 0 00053
                 TVSW =1                                                            099  LM00137
 57612 CLA +0 50000 0 57064    57613 STO +0 60100 0 57061
                 JT = (JT/50 + 1) * 50                                              100  LM00138
 57614 LDQ +0 56000 0 25420    57615 PXD -0 75400 0 00000    57616 LLS +0 76300 0 00000    57617 DVP +0 22100 0 57112
 57620 XCA +0 13100 0 00000    57621 ADD +0 40000 0 57064    57622 XCA +0 13100 0 00000    57623 MPY +0 20000 0 57112
 57624 STQ -0 60000 0 25420
                 TVARAY(JT) = A(14)                                                 101  LM00139
 57625 LXA +0 53400 1 25420    57626 CLA +0 50000 0 00072    57627 STO +0 60100 1 57057
                 JT = JT + 1                                                        102  LM00140
 57630 CLA +0 50000 0 25420    57631 ADD +0 40000 0 57064    57632 STO +0 60100 0 25420
      LTOP2      K = 24                                                             103  LM00141
 57633 CLA +0 50000 0 57106    57634 STO +0 60100 0 25421
                 IC = 20                                                            104  LM00142
 57635 CLA +0 50000 0 57105    57636 STO +0 60100 0 25413
                 W'R TVL.L.20, IC = TVL                                             105  LM00143
 57637 CLA +0 50000 0 57060    57640 SUB +0 40200 0 57105    57641 TZE +0 10000 0 57645    57642 TPL +0 12000 0 57645
 57643 CLA +0 50000 0 57060    57644 STO +0 60100 0 25413
                 T'H LOOP2, FOR ICNT = IC, -1, ICNT .E. 0                           106  LM00144
 57645 CLA +0 50000 0 25413    57646 STO +0 60100 0 25411    57647 TRA +0 02000 0 57653    57650 CLS +0 50200 0 57064
 57651 ADD +0 40000 0 25411    57652 STO +0 60100 0 25411    57653 CLA +0 50000 0 25411    57654 SUB +0 40200 0 57063
 57655 TZE +0 10000 0 57671
                   TVARAY(JT) = PROG(K)                                             107  LM00145
 57656 LXA +0 53400 1 25420    57657 LXA +0 53400 2 25421    57660 CLA +0 50000 2 27410    57661 STO +0 60100 1 57057
                   K = K - 1                                                        108  LM00146
 57662 CLA +0 50000 0 25421    57663 SUB +0 40200 0 57064    57664 STO +0 60100 0 25421
      LOOP2        JT = JT + 1                                                      109  LM00147
 57665 CLA +0 50000 0 25420    57666 ADD +0 40000 0 57064    57667 STO +0 60100 0 25420    57670 TRA +0 02000 0 57650
                 W'R TVL .G. 20                                                     110  LM00148
 57671 CLA +0 50000 0 57060    57672 SUB +0 40200 0 57105    57673 TZE +0 10000 0 57702    57674 TMI -0 12000 0 57702
                   TVL = TVL - 20                                                   111  LM00149
 57675 CLA +0 50000 0 57060    57676 SUB +0 40200 0 57105    57677 STO +0 60100 0 57060
                   T'O READ2                                                        112  LM00150
 57700 TRA +0 02000 0 00065
                 O'E                                                                113  LM00151
 57701 TRA +0 02000 0 57707
                   TVARAY(JT) = FENCE                                               114  LM00152
 57702 LXA +0 53400 1 25420    57703 CLA +0 50000 0 25363    57704 STO +0 60100 1 57057
                   TVSW = 0                                                         115  LM00153
 57705 CLA +0 50000 0 57063    57706 STO +0 60100 0 57061
                 E'L                                                                116  LM00154
                 PROGSW = 0                                                         117  LM00155
 57707 CLA +0 50000 0 57063    57710 STO +0 60100 0 27411
                 W'R ICOMB .E. 0                                                    118  LM00156
 57711 CLA +0 50000 0 25412    57712 SUB +0 40200 0 57063    57713 TNZ -0 10000 0 57721
                   BFCLOS.(A(14),QBSS,READ1)                                        119  LM00157
 57714 TSX +0 07400 4 00002    57715 TXH +3 00000 0 00072    57716 TXH +3 00000 0 27412    57717 TXH +3 00000 0 00064
                   T'O READ1                                                        120  LM00158
 57720 TRA +0 02000 0 00064
                 E'L                                                                121  LM00159
      SKIP       BFREAD.(A(14),QBSS,PROG(28)...28,EOF3,EOFCT,ERR3)                  122  LM00163
 57721 TSX +0 07400 4 00004    57722 TXH +3 00000 0 00072    57723 TXH +3 00000 0 27412    57724 TIX +2 57111 0 27354
 57725 TXH +3 00000 0 00036    57726 TXH +3 00000 0 02561    57727 TXH +3 00000 0 00043
                 W'R PROG(28) .A. MASK1 .E. 4005K8, T'O R2                          123  LM00164
 57730 CAL -0 50000 0 27354    57731 ANA -0 32000 0 25477    57732 SLW +0 60200 0 61743    57733 CLA +0 50000 0 61743
 57734 SUB +0 40200 0 57122    57735 TNZ -0 10000 0 57737    57736 TRA +0 02000 0 00063
                 T'O SKIP                                                           124  LM00165
 57737 TRA +0 02000 0 00066
      EOF3       BFCLOS.(A(14),QBSS,READ1)                                          125  LM00166
 57740 TSX +0 07400 4 00002    57741 TXH +3 00000 0 00072    57742 TXH +3 00000 0 27412    57743 TXH +3 00000 0 00064
                 T'O READ1                                                          126  LM00167
 57744 TRA +0 02000 0 00064
      EOF1       BFCLOS.(N1,N2,EOF1A)                                               127  LM00172
 57745 TSX +0 07400 4 00002    57746 TXH +3 00000 0 00027    57747 TXH +3 00000 0 27346    57750 TXH +3 00000 0 00033
      EOF1A      HCORE = LPOINT + PL                                                128  LM00173
 57751 CLA +0 50000 0 25476    57752 ADD +0 40000 0 27353    57753 STO +0 60100 0 25365
                 JESAVE = JE                                                        129  LM00174
 57754 CLA +0 50000 0 25416    57755 STO +0 60100 0 25417
                 W'R JT .L. 0                                                       130  LM00175
 57756 CLA +0 50000 0 25420    57757 SUB +0 40200 0 57063    57760 TZE +0 10000 0 57767    57761 TPL +0 12000 0 57767
                   TVARAY(1) = FENCE                                                131  LM00176
 57762 CLA +0 50000 0 25363    57763 STO +0 60100 0 57056
                   TVARAY(2) = FENCE                                                132  LM00177
 57764 CLA +0 50000 0 25363    57765 STO +0 60100 0 57055
                   T'O PART2                                                        133  LM00178
 57766 TRA +0 02000 0 00062
                 E'L                                                                134  LM00179
                 TVARAY(JT+1) = FENCE                                               135  LM00180
 57767 CLA +0 50000 0 25420    57770 ADD +0 40000 0 57064    57771 PAX +0 73400 1 00000    57772 CLA +0 50000 0 25363
 57773 STO +0 60100 1 57057
                 JT = - 50                                                          136  LM00181
 57774 CLS +0 50200 0 57112    57775 STO +0 60100 0 25420
                 T'O PART2                                                          137  LM00182
 57776 TRA +0 02000 0 00062
      EOF2       PRNTP.(MESS1)                                                      138  LM00186
 57777 TSX +0 07400 4 00022    60000 TXH +3 00000 0 26643
                 T'O ER2A                                                           139  LM00187
 60001 TRA +0 02000 0 00037
      ERR1       PRNTER.                                                            140  LM00188
 60002 TSX +0 07400 4 00021
                 BFCLOS.($ALL$,-0,ERRX)                                             141  LM00189
 60003 CLS +0 50200 0 57063    60004 STO +0 60100 0 61743    60005 TSX +0 07400 4 00002    60006 TXH +3 00000 0 57115
 60007 TXH +3 00000 0 61743    60010 TXH +3 00000 0 00045
      ERRX       CHNCOM.(0)                                                         142  LM00190
 60011 TSX +0 07400 4 00007    60012 TXH +3 00000 0 57063
      ERR2       PRNTER.                                                            143  LM00191
 60013 TSX +0 07400 4 00021
      ER2A       BFCLOS.(A(14),QBSS,ER2B)                                           144  LM00192
 60014 TSX +0 07400 4 00002    60015 TXH +3 00000 0 00072    60016 TXH +3 00000 0 27412    60017 TXH +3 00000 0 00040
      ER2B       MFARAY = MFARAY + 1                                                145  LM00193
 60020 CLA +0 50000 0 27033    60021 ADD +0 40000 0 57064    60022 STO +0 60100 0 27033
                 MFARAY(MFARAY) = A(14)                                             146  LM00194
 60023 LXA +0 53400 1 27033    60024 CLA +0 50000 0 00072    60025 STO +0 60100 1 27033
                 T'O READ1                                                          147  LM00195
 60026 TRA +0 02000 0 00064
      ERR3       PRNTER.                                                            148  LM00196
 60027 TSX +0 07400 4 00021
                 BFCLOS. (A(14),QBSS,READ1)                                         149  LM00197
 60030 TSX +0 07400 4 00002    60031 TXH +3 00000 0 00072    60032 TXH +3 00000 0 27412    60033 TXH +3 00000 0 00064
                 T'O READ1                                                          150  LM00198
 60034 TRA +0 02000 0 00064
      PART2      JT = (JT/50 + 1)*50                                                151  LM00205
 60035 LDQ +0 56000 0 25420    60036 PXD -0 75400 0 00000    60037 LLS +0 76300 0 00000    60040 DVP +0 22100 0 57112
 60041 XCA +0 13100 0 00000    60042 ADD +0 40000 0 57064    60043 XCA +0 13100 0 00000    60044 MPY +0 20000 0 57112
 60045 STQ -0 60000 0 25420
                 MODNAM = TVARAY(JT)                                                152  LM00206
 60046 LXA +0 53400 2 25420    60047 CLA +0 50000 2 57057    60050 STO +0 60100 0 27034
      MNAM       JT = JT +1                                                         153  LM00207
 60051 CLA +0 50000 0 25420    60052 ADD +0 40000 0 57064    60053 STO +0 60100 0 25420
                 W'R TVARAY(JT) .NE. FENCE, T'O LTOP3                               154  LM00208
 60054 LXA +0 53400 1 25420    60055 CLA +0 50000 1 57057    60056 SUB +0 40200 0 25363    60057 TZE +0 10000 0 60061
 60060 TRA +0 02000 0 00054
                 W'R TVARAY(JT+1) .E. FENCE, T'O DUPCK                              155  LM00209
 60061 CLA +0 50000 0 25420    60062 ADD +0 40000 0 57064    60063 PAX +0 73400 1 00000    60064 CLA +0 50000 1 57057
 60065 SUB +0 40200 0 25363    60066 TNZ -0 10000 0 60070    60067 TRA +0 02000 0 00030
                 T'O PART2                                                          156  LM00210
 60070 TRA +0 02000 0 00062
      LTOP3      T'H LOOP3, FOR JE=1,1, JE.GE.JESAVE                                157  LM00211
 60071 CLA +0 50000 0 57064    60072 STO +0 60100 0 25416    60073 TRA +0 02000 0 60077    60074 CLA +0 50000 0 25416
 60075 ADD +0 40000 0 57064    60076 STO +0 60100 0 25416    60077 CLA +0 50000 0 25416    60100 SUB +0 40200 0 25417
 60101 TZE +0 10000 0 60232    60102 TPL +0 12000 0 60232
                   W'R EPARAY(JE,4) .E. TAG                                         158  LM00212
 60103 LDQ +0 56000 0 57067    60104 CLA +0 50000 0 25416    60105 TSX +0 07400 4 00001    60106 TXH +3 02555 0 25362
 60107 PAX +0 73400 1 00000    60110 CLA +0 50000 1 25362    60111 SUB +0 40200 0 27473    60112 TNZ -0 10000 0 60123
                     FILEN = EPARAY(JE,0)                                           159  LM00213
 60113 LDQ +0 56000 0 57063    60114 CLA +0 50000 0 25416    60115 TSX +0 07400 4 00001    60116 TXH +3 02555 0 25362
 60117 PAX +0 73400 2 00000    60120 CLA +0 50000 2 25362    60121 STO +0 60100 0 25364
                     T'O LOOP3                                                      160  LM00214
 60122 TRA +0 02000 0 00046
                   E'L                                                              161  LM00215
                   W'R TVARAY(JT) .NE. EPARAY(JE,0), T'O LOOP3                      162  LM00216
 60123 LDQ +0 56000 0 57063    60124 CLA +0 50000 0 25416    60125 TSX +0 07400 4 00001    60126 TXH +3 02555 0 25362
 60127 LXA +0 53400 1 25420    60130 PAX +0 73400 2 00000    60131 CLA +0 50000 1 57057    60132 SUB +0 40200 2 25362
 60133 TZE +0 10000 0 60135    60134 TRA +0 02000 0 00046
                   TV1(JT,0) = FILEN                                                163  LM00217
 60135 LDQ +0 56000 0 57063    60136 CLA +0 50000 0 25420    60137 TSX +0 07400 4 00001    60140 TXH +3 02560 0 47216
 60141 PAX +0 73400 1 00000    60142 CLA +0 50000 0 25364    60143 STO +0 60100 1 47216
                   TV1(JT,1) = EPARAY(JE,1)                                         164  LM00218
 60144 LDQ +0 56000 0 57064    60145 CLA +0 50000 0 25416    60146 TSX +0 07400 4 00001    60147 TXH +3 02555 0 25362
 60150 STO +0 60100 0 61743    60151 LDQ +0 56000 0 57064    60152 CLA +0 50000 0 25420    60153 TSX +0 07400 4 00001
 60154 TXH +3 02560 0 47216    60155 PAX +0 73400 1 00000    60156 LXA +0 53400 2 61743    60157 CLA +0 50000 2 25362
 60160 STO +0 60100 1 47216
                   W'R EPARAY(JE,2) .G. 14, T'O MNAM                                165  LM00219
 60161 LDQ +0 56000 0 57065    60162 CLA +0 50000 0 25416    60163 TSX +0 07400 4 00001    60164 TXH +3 02555 0 25362
 60165 PAX +0 73400 1 00000    60166 CLA +0 50000 1 25362    60167 SUB +0 40200 0 57100    60170 TZE +0 10000 0 60173
 60171 TMI -0 12000 0 60173    60172 TRA +0 02000 0 00060
                   EPARAY(JE,EPARAY(JE,2)) = MODNAM                                 166  LM00220
 60173 LDQ +0 56000 0 57065    60174 CLA +0 50000 0 25416    60175 TSX +0 07400 4 00001    60176 TXH +3 02555 0 25362
 60177 SUB +0 40200 0 60200    60200 TXH +3 00000 0 25362    60201 STA +0 62100 0 60202    60202 LDQ +0 56000 0 00000
 60203 CLA +0 50000 0 25416    60204 TSX +0 07400 4 00000    60205 TXH +3 02555 0 25362    60206 PAX +0 73400 1 00000
 60207 CLA +0 50000 0 27034    60210 STO +0 60100 1 25362
                   EPARAY(JE,2) = EPARAY(JE,2) + 1                                  167  LM00221
 60211 LDQ +0 56000 0 57065    60212 CLA +0 50000 0 25416    60213 TSX +0 07400 4 00001    60214 TXH +3 02555 0 25362
 60215 PAX +0 73400 1 00000    60216 CLA +0 50000 1 25362    60217 ADD +0 40000 0 57064    60220 STO +0 60100 0 61743
 60221 LDQ +0 56000 0 57065    60222 CLA +0 50000 0 25416    60223 TSX +0 07400 4 00001    60224 TXH +3 02555 0 25362
 60225 PAX +0 73400 1 00000    60226 CLA +0 50000 0 61743    60227 STO +0 60100 1 25362
                   T'O MNAM                                                         168  LM00222
 60230 TRA +0 02000 0 00060
      LOOP3      CONTINUE                                                           169  LM00223
 60231 TRA +0 02000 0 60074
                 MEARAY = MEARAY + 1                                                170  LM00224
 60232 CLA +0 50000 0 26633    60233 ADD +0 40000 0 57064    60234 STO +0 60100 0 26633
                 MEARAY(MEARAY) = TVARAY(JT)                                        171  LM00225
 60235 LXA +0 53400 1 26633    60236 LXA +0 53400 2 25420    60237 CLA +0 50000 2 57057    60240 STO +0 60100 1 26633
                 TV1(JT,0) = BLANK                                                  172  LM00226
 60241 LDQ +0 56000 0 57063    60242 CLA +0 50000 0 25420    60243 TSX +0 07400 4 00001    60244 TXH +3 02560 0 47216
 60245 PAX +0 73400 1 00000    60246 CLA +0 50000 0 00115    60247 STO +0 60100 1 47216
                 TV1(JT,1) = BLANK                                                  173  LM00227
 60250 LDQ +0 56000 0 57064    60251 CLA +0 50000 0 25420    60252 TSX +0 07400 4 00001    60253 TXH +3 02560 0 47216
 60254 PAX +0 73400 1 00000    60255 CLA +0 50000 0 00115    60256 STO +0 60100 1 47216
                 T'O MNAM                                                           174  LM00228
 60257 TRA +0 02000 0 00060
      DUPCK      T'H LOOP5, FOR JE1 = 1,1,JE1.GE.JESAVE                             175  LM00232
 60260 CLA +0 50000 0 57064    60261 STO +0 60100 0 25415    60262 TRA +0 02000 0 60266    60263 CLA +0 50000 0 25415
 60264 ADD +0 40000 0 57064    60265 STO +0 60100 0 25415    60266 CLA +0 50000 0 25415    60267 SUB +0 40200 0 25417
 60270 TZE +0 10000 0 60363    60271 TPL +0 12000 0 60363
                   W'R EPARAY(JE1,4) .E. TAG, T'O LOOP5                             176  LM00233
 60272 LDQ +0 56000 0 57067    60273 CLA +0 50000 0 25415    60274 TSX +0 07400 4 00001    60275 TXH +3 02555 0 25362
 60276 PAX +0 73400 1 00000    60277 CLA +0 50000 1 25362    60300 SUB +0 40200 0 27473    60301 TNZ -0 10000 0 60303
 60302 TRA +0 02000 0 00050
                   T'H LOOP4, FOR JE=JE1+1,1,JE.E.JESAVE                            177  LM00234
 60303 CLA +0 50000 0 25415    60304 ADD +0 40000 0 57064    60305 STO +0 60100 0 25416    60306 TRA +0 02000 0 60312
 60307 CLA +0 50000 0 25416    60310 ADD +0 40000 0 57064    60311 STO +0 60100 0 25416    60312 CLA +0 50000 0 25416
 60313 SUB +0 40200 0 25417    60314 TZE +0 10000 0 60362
                     W'R EPARAY(JE,4) .E. TAG, T'O LOOP4                            178  LM00235
 60315 LDQ +0 56000 0 57067    60316 CLA +0 50000 0 25416    60317 TSX +0 07400 4 00001    60320 TXH +3 02555 0 25362
 60321 PAX +0 73400 1 00000    60322 CLA +0 50000 1 25362    60323 SUB +0 40200 0 27473    60324 TNZ -0 10000 0 60326
 60325 TRA +0 02000 0 00047
                     W'R EPARAY(JE1,0) .NE. EPARAY(JE,0), T'O LOOP4                 179  LM00236
 60326 LDQ +0 56000 0 57063    60327 CLA +0 50000 0 25416    60330 TSX +0 07400 4 00001    60331 TXH +3 02555 0 25362
 60332 STO +0 60100 0 61743    60333 LDQ +0 56000 0 57063    60334 CLA +0 50000 0 25415    60335 TSX +0 07400 4 00001
 60336 TXH +3 02555 0 25362    60337 PAX +0 73400 1 00000    60340 LXA +0 53400 2 61743    60341 CLA +0 50000 1 25362
 60342 SUB +0 40200 2 25362    60343 TZE +0 10000 0 60345    60344 TRA +0 02000 0 00047
                     MULT = MULT + 1                                                180  LM00237
 60345 CLA +0 50000 0 27345    60346 ADD +0 40000 0 57064    60347 STO +0 60100 0 27345
                     MULT(MULT) = EPARAY(JE,0)                                      181  LM00238
 60350 LDQ +0 56000 0 57063    60351 CLA +0 50000 0 25416    60352 TSX +0 07400 4 00001    60353 TXH +3 02555 0 25362
 60354 LXA +0 53400 1 27345    60355 PAX +0 73400 2 00000    60356 CLA +0 50000 2 25362    60357 STO +0 60100 1 27345
                     T'O LOOP5                                                      182  LM00239
 60360 TRA +0 02000 0 00050
      LOOP4        CONTINUE                                                         183  LM00240
 60361 TRA +0 02000 0 60307
      LOOP5      CONTINUE                                                           184  LM00241
 60362 TRA +0 02000 0 60263
                 EXECUTE DELETE.(FILNAM)                                            185  LM00245
 60363 TSX +0 07400 4 00011    60364 TXH +3 00000 0 00027
                 BFOPEN.($W$,N1,NA2,BUFF1(BL),BUFF2(BL),BUFF3(BL),ERR4)             186  LM00246
 60365 CLA +0 50000 0 00116    60366 SUB +0 40200 0 60367    60367 TXH +3 00000 0 02541    60370 STA +0 62100 0 60407
 60371 CLA +0 50000 0 00116    60372 SUB +0 40200 0 60373    60373 TXH +3 00000 0 01660    60374 STA +0 62100 0 60406
 60375 CLA +0 50000 0 00116    60376 SUB +0 40200 0 60377    60377 TXH +3 00000 0 00777    60400 STA +0 62100 0 60405
 60401 TSX +0 07400 4 00003    60402 TXH +3 00000 0 57130    60403 TXH +3 00000 0 00027    60404 TXH +3 00000 0 00026
 60405 TXH +3 00000 0 00000    60406 TXH +3 00000 0 00000    60407 TXH +3 00000 0 00000    60410 TXH +3 00000 0 00044
                 TITLE(8) = N1                                                      187  LM00247
 60411 CLA +0 50000 0 00027    60412 STO +0 60100 0 27505
                 GETTM.(TITLE(11),TITLE(13))                                        188  LM00248
 60413 TSX +0 07400 4 00015    60414 TXH +3 00000 0 27502    60415 TXH +3 00000 0 27500
                 TITLE(5)=(N1.A.777777770000K).V.000000005757K                      189  LM00249
 60416 CAL -0 50000 0 00027    60417 ANA -0 32000 0 57136    60420 ORA -0 50100 0 57114    60421 SLW +0 60200 0 27510
                 WHOAMI.(TITLE(16)...2)                                             190  LM00250
 60422 TSX +0 07400 4 00023    60423 TIX +2 57065 0 27475
                 LINE(LC-15) = TITLE(16)                                            191  LM00251
 60424 CLA +0 50000 0 25433    60425 SUB +0 40200 0 57101    60426 PAX +0 73400 1 00000    60427 CLA +0 50000 0 27475
 60430 STO +0 60100 1 25475
                 LINE(LC-16) = TITLE(15)                                            192  LM00252
 60431 CLA +0 50000 0 25433    60432 SUB +0 40200 0 57102    60433 PAX +0 73400 1 00000    60434 CLA +0 50000 0 27476
 60435 STO +0 60100 1 25475
                 T'H LOOP6, FOR IC = 0,1,IC .G. 14                                  193  LM00253
 60436 CLA +0 50000 0 57063    60437 STO +0 60100 0 25413    60440 TRA +0 02000 0 60444    60441 CLA +0 50000 0 25413
 60442 ADD +0 40000 0 57064    60443 STO +0 60100 0 25413    60444 CLA +0 50000 0 25413    60445 SUB +0 40200 0 57100
 60446 TZE +0 10000 0 60450    60447 TPL +0 12000 0 60457
      LOOP6      LINE(LC-IC) = TITLE(IC)                                            194  LM00254
 60450 CLA +0 50000 0 25433    60451 SUB +0 40200 0 25413    60452 PAX +0 73400 1 00000    60453 LXA +0 53400 2 25413
 60454 CLA +0 50000 2 27515    60455 STO +0 60100 1 25475    60456 TRA +0 02000 0 60441
                 BFWRIT.(N1,NA2,LINE(LC)...17,ERR4)                                 195  LM00255
 60457 CLA +0 50000 0 25433    60460 SUB +0 40200 0 60461    60461 TXH +3 00000 0 25475    60462 STA +0 62100 0 60466
 60463 TSX +0 07400 4 00005    60464 TXH +3 00000 0 00027    60465 TXH +3 00000 0 00026    60466 TIX +2 57103 0 00000
 60467 TXH +3 00000 0 00044
                 W'R ILIST .E. 1 .OR. JESAVE .L. 1, T'O SUMERY                      196  LM00256
 60470 CLA +0 50000 0 25417    60471 SUB +0 40200 0 57064    60472 TZE +0 10000 0 60474    60473 TMI -0 12000 0 60477
 60474 CLA +0 50000 0 25414    60475 SUB +0 40200 0 57064    60476 TNZ -0 10000 0 60500    60477 TRA +0 02000 0 00070
                 T'H LOOP7, FOR IC = 0,1,IC .G. 11                                  197  LM00257
 60500 CLA +0 50000 0 57063    60501 STO +0 60100 0 25413    60502 TRA +0 02000 0 60506    60503 CLA +0 50000 0 25413
 60504 ADD +0 40000 0 57064    60505 STO +0 60100 0 25413    60506 CLA +0 50000 0 25413    60507 SUB +0 40200 0 57076
 60510 TZE +0 10000 0 60512    60511 TPL +0 12000 0 60521
      LOOP7      LINE(LC-IC) = HEAD(IC)                                             198  LM00258
 60512 CLA +0 50000 0 25433    60513 SUB +0 40200 0 25413    60514 PAX +0 73400 1 00000    60515 LXA +0 53400 2 25413
 60516 CLA +0 50000 2 25401    60517 STO +0 60100 1 25475    60520 TRA +0 02000 0 60503
                 BFWRIT.(N1,NA2,LINE(LC)...12, ERR4)                                199  LM00259
 60521 CLA +0 50000 0 25433    60522 SUB +0 40200 0 60523    60523 TXH +3 00000 0 25475    60524 STA +0 62100 0 60530
 60525 TSX +0 07400 4 00005    60526 TXH +3 00000 0 00027    60527 TXH +3 00000 0 00026    60530 TIX +2 57077 0 00000
 60531 TXH +3 00000 0 00044
                 JT = -50                                                           200  LM00260
 60532 CLS +0 50200 0 57112    60533 STO +0 60100 0 25420
                 JE = 0                                                             201  LM00261
 60534 CLA +0 50000 0 57063    60535 STO +0 60100 0 25416
      LTOP8      BFWRIT.(N1,NA2,BLANK3(3)...4,ERR4)                                 202  LM00265
 60536 TSX +0 07400 4 00005    60537 TXH +3 00000 0 00027    60540 TXH +3 00000 0 00026    60541 TIX +2 57067 0 00111
 60542 TXH +3 00000 0 00044
                 LINE(LC) = 777777000007K                                           203  LM00266
 60543 LXA +0 53400 1 25433    60544 CLA +0 50000 0 57134    60545 STO +0 60100 1 25475
                 LINE(LC-1) = BLANK                                                 204  LM00267
 60546 CLA +0 50000 0 25433    60547 SUB +0 40200 0 57064    60550 PAX +0 73400 1 00000    60551 CLA +0 50000 0 00115
 60552 STO +0 60100 1 25475
                 LINE(LC-2) = $FILE  $                                              205  LM00268
 60553 CLA +0 50000 0 25433    60554 SUB +0 40200 0 57065    60555 PAX +0 73400 1 00000    60556 CLA +0 50000 0 57117
 60557 STO +0 60100 1 25475
                 LINE(LC-3) = EPARAY(JE,0)                                          206  LM00269
 60560 LDQ +0 56000 0 57063    60561 CLA +0 50000 0 25416    60562 TSX +0 07400 4 00001    60563 TXH +3 02555 0 25362
 60564 STO +0 60100 0 61743    60565 CLA +0 50000 0 25433    60566 SUB +0 40200 0 57066    60567 PAX +0 73400 1 00000
 60570 LXA +0 53400 2 61743    60571 CLA +0 50000 2 25362    60572 STO +0 60100 1 25475
                 LINE(LC-4) = BLANK                                                 207  LM00270
 60573 CLA +0 50000 0 25433    60574 SUB +0 40200 0 57067    60575 PAX +0 73400 1 00000    60576 CLA +0 50000 0 00115
 60577 STO +0 60100 1 25475
                 LINE(LC-5) = (EPARAY(JE,1))                                        208  LM00271
 60600 LDQ +0 56000 0 57064    60601 CLA +0 50000 0 25416    60602 TSX +0 07400 4 00001    60603 TXH +3 02555 0 25362
 60604 STO +0 60100 0 61743    60605 CLA +0 50000 0 25433    60606 SUB +0 40200 0 57070    60607 PAX +0 73400 1 00000
 60610 LXA +0 53400 2 61743    60611 CLA +0 50000 2 25362    60612 STO +0 60100 1 25475
                 LINE(LC-6) = OCABC.(EPARAY(JE,2))                                  209  LM00272
 60613 LDQ +0 56000 0 57065    60614 CLA +0 50000 0 25416    60615 TSX +0 07400 4 00001    60616 TXH +3 02555 0 25362
 60617 SUB +0 40200 0 60620    60620 TXH +3 00000 0 25362    60621 STA +0 62100 0 60623    60622 TSX +0 07400 4 00020
 60623 TXH +3 00000 0 00000    60624 STO +0 60100 0 61743    60625 CLA +0 50000 0 25433    60626 SUB +0 40200 0 57071
 60627 PAX +0 73400 1 00000    60630 CLA +0 50000 0 61743    60631 STO +0 60100 1 25475
                 LINE(LC-7) = OCABC.(EPARAY(JE,3))                                  210  LM00273
 60632 LDQ +0 56000 0 57066    60633 CLA +0 50000 0 25416    60634 TSX +0 07400 4 00001    60635 TXH +3 02555 0 25362
 60636 SUB +0 40200 0 60637    60637 TXH +3 00000 0 25362    60640 STA +0 62100 0 60642    60641 TSX +0 07400 4 00020
 60642 TXH +3 00000 0 00000    60643 STO +0 60100 0 61743    60644 CLA +0 50000 0 25433    60645 SUB +0 40200 0 57072
 60646 PAX +0 73400 1 00000    60647 CLA +0 50000 0 61743    60650 STO +0 60100 1 25475
                 BFWRIT.(N1,NA2,LINE(LC)...8,ERR4)                                  211  LM00274
 60651 CLA +0 50000 0 25433    60652 SUB +0 40200 0 60653    60653 TXH +3 00000 0 25475    60654 STA +0 62100 0 60660
 60655 TSX +0 07400 4 00005    60656 TXH +3 00000 0 00027    60657 TXH +3 00000 0 00026    60660 TIX +2 57073 0 00000
 60661 TXH +3 00000 0 00044
                 LINE(LC) = 777777000011K                                           212  LM00278
 60662 LXA +0 53400 1 25433    60663 CLA +0 50000 0 57135    60664 STO +0 60100 1 25475
                 LINE(LC-1) = BLANK                                                 213  LM00279
 60665 CLA +0 50000 0 25433    60666 SUB +0 40200 0 57064    60667 PAX +0 73400 1 00000    60670 CLA +0 50000 0 00115
 60671 STO +0 60100 1 25475
                 LINE(LC-2) = BLANK                                                 214  LM00280
 60672 CLA +0 50000 0 25433    60673 SUB +0 40200 0 57065    60674 PAX +0 73400 1 00000    60675 CLA +0 50000 0 00115
 60676 STO +0 60100 1 25475
                 LINE(LC-3) = BLANK                                                 215  LM00281
 60677 CLA +0 50000 0 25433    60700 SUB +0 40200 0 57066    60701 PAX +0 73400 1 00000    60702 CLA +0 50000 0 00115
 60703 STO +0 60100 1 25475
                 LINE(LC-5) = BLANK                                                 216  LM00282
 60704 CLA +0 50000 0 25433    60705 SUB +0 40200 0 57070    60706 PAX +0 73400 1 00000    60707 CLA +0 50000 0 00115
 60710 STO +0 60100 1 25475
                 LINE(LC-6) = BLANK                                                 217  LM00283
 60711 CLA +0 50000 0 25433    60712 SUB +0 40200 0 57071    60713 PAX +0 73400 1 00000    60714 CLA +0 50000 0 00115
 60715 STO +0 60100 1 25475
                 LINE(LC-7) = BLANK                                                 218  LM00284
 60716 CLA +0 50000 0 25433    60717 SUB +0 40200 0 57072    60720 PAX +0 73400 1 00000    60721 CLA +0 50000 0 00115
 60722 STO +0 60100 1 25475
                 JT = (JT/50+1)*50 + 1                                              219  LM00285
 60723 LDQ +0 56000 0 25420    60724 PXD -0 75400 0 00000    60725 LLS +0 76300 0 00000    60726 DVP +0 22100 0 57112
 60727 XCA +0 13100 0 00000    60730 ADD +0 40000 0 57064    60731 XCA +0 13100 0 00000    60732 MPY +0 20000 0 57112
 60733 XCA +0 13100 0 00000    60734 ADD +0 40000 0 57064    60735 STO +0 60100 0 25420
      LTOP9      W'R TVARAY(JT) .E. FENCE, T'O TOP10                                220  LM00286
 60736 LXA +0 53400 1 25420    60737 CLA +0 50000 1 57057    60740 SUB +0 40200 0 25363    60741 TNZ -0 10000 0 60743
 60742 TRA +0 02000 0 00071
                 LINE(LC-4) = TVARAY(JT)                                            221  LM00287
 60743 CLA +0 50000 0 25433    60744 SUB +0 40200 0 57067    60745 PAX +0 73400 1 00000    60746 LXA +0 53400 2 25420
 60747 CLA +0 50000 2 57057    60750 STO +0 60100 1 25475
                 LINE(LC-8) = TV1(JT,0)                                             222  LM00288
 60751 LDQ +0 56000 0 57063    60752 CLA +0 50000 0 25420    60753 TSX +0 07400 4 00001    60754 TXH +3 02560 0 47216
 60755 STO +0 60100 0 61743    60756 CLA +0 50000 0 25433    60757 SUB +0 40200 0 57073    60760 PAX +0 73400 1 00000
 60761 LXA +0 53400 2 61743    60762 CLA +0 50000 2 47216    60763 STO +0 60100 1 25475
                 LINE(LC-9) = TV1(JT,1)                                             223  LM00289
 60764 LDQ +0 56000 0 57064    60765 CLA +0 50000 0 25420    60766 TSX +0 07400 4 00001    60767 TXH +3 02560 0 47216
 60770 STO +0 60100 0 61743    60771 CLA +0 50000 0 25433    60772 SUB +0 40200 0 57074    60773 PAX +0 73400 1 00000
 60774 LXA +0 53400 2 61743    60775 CLA +0 50000 2 47216    60776 STO +0 60100 1 25475
                 BFWRIT.(N1,NA2,LINE(LC)...10,ERR4)                                 224  LM00290
 60777 CLA +0 50000 0 25433    61000 SUB +0 40200 0 61001    61001 TXH +3 00000 0 25475    61002 STA +0 62100 0 61006
 61003 TSX +0 07400 4 00005    61004 TXH +3 00000 0 00027    61005 TXH +3 00000 0 00026    61006 TIX +2 57075 0 00000
 61007 TXH +3 00000 0 00044
                 JT = JT + 1                                                        225  LM00291
 61010 CLA +0 50000 0 25420    61011 ADD +0 40000 0 57064    61012 STO +0 60100 0 25420
                 T'O LTOP9                                                          226  LM00292
 61013 TRA +0 02000 0 00056
      TOP10      LINE(LC-4) = BLANK                                                 227  LM00293
 61014 CLA +0 50000 0 25433    61015 SUB +0 40200 0 57067    61016 PAX +0 73400 1 00000    61017 CLA +0 50000 0 00115
 61020 STO +0 60100 1 25475
                 LINE(LC-6) = BLANK                                                 228  LM00294
 61021 CLA +0 50000 0 25433    61022 SUB +0 40200 0 57071    61023 PAX +0 73400 1 00000    61024 CLA +0 50000 0 00115
 61025 STO +0 60100 1 25475
                 LINE(LC-7) = BLANK                                                 229  LM00295
 61026 CLA +0 50000 0 25433    61027 SUB +0 40200 0 57072    61030 PAX +0 73400 1 00000    61031 CLA +0 50000 0 00115
 61032 STO +0 60100 1 25475
      LTOP10     JE = JE + 1                                                        230  LM00296
 61033 CLA +0 50000 0 25416    61034 ADD +0 40000 0 57064    61035 STO +0 60100 0 25416
                 W'R JE .GE. JESAVE, T'O SUMERY                                     231  LM00301
 61036 CLA +0 50000 0 25416    61037 SUB +0 40200 0 25417    61040 TZE +0 10000 0 61042    61041 TMI -0 12000 0 61043
 61042 TRA +0 02000 0 00070
                 W'R EPARAY(JE,4) .E. TAG, T'O LTOP8                                232  LM00302
 61043 LDQ +0 56000 0 57067    61044 CLA +0 50000 0 25416    61045 TSX +0 07400 4 00001    61046 TXH +3 02555 0 25362
 61047 PAX +0 73400 1 00000    61050 CLA +0 50000 1 25362    61051 SUB +0 40200 0 27473    61052 TNZ -0 10000 0 61054
 61053 TRA +0 02000 0 00055
                 NLC= (2*(EPARAY(JE,2)-3)+7)                                        233  LM00303
 61054 LDQ +0 56000 0 57065    61055 CLA +0 50000 0 25416    61056 TSX +0 07400 4 00001    61057 TXH +3 02555 0 25362
 61060 PAX +0 73400 1 00000    61061 CLA +0 50000 1 25362    61062 SUB +0 40200 0 57066    61063 XCA +0 13100 0 00000
 61064 MPY +0 20000 0 57065    61065 XCA +0 13100 0 00000    61066 ADD +0 40000 0 57072    61067 STO +0 60100 0 27351
                 LINE(LC)= (NLC-1).V.777777K6                                       234  LM00304
 61070 CLA +0 50000 0 27351    61071 SUB +0 40200 0 57064    61072 STO +0 60100 0 61743    61073 CAL -0 50000 0 61743
 61074 ORA -0 50100 0 57132    61075 LXA +0 53400 1 25433    61076 SLW +0 60200 1 25475
                 LINE(LC-3) = EPARAY(JE,0)                                          235  LM00305
 61077 LDQ +0 56000 0 57063    61100 CLA +0 50000 0 25416    61101 TSX +0 07400 4 00001    61102 TXH +3 02555 0 25362
 61103 STO +0 60100 0 61743    61104 CLA +0 50000 0 25433    61105 SUB +0 40200 0 57066    61106 PAX +0 73400 1 00000
 61107 LXA +0 53400 2 61743    61110 CLA +0 50000 2 25362    61111 STO +0 60100 1 25475
                 LINE(LC-5) = (EPARAY(JE,1))                                        236  LM00306
 61112 LDQ +0 56000 0 57064    61113 CLA +0 50000 0 25416    61114 TSX +0 07400 4 00001    61115 TXH +3 02555 0 25362
 61116 STO +0 60100 0 61743    61117 CLA +0 50000 0 25433    61120 SUB +0 40200 0 57070    61121 PAX +0 73400 1 00000
 61122 LXA +0 53400 2 61743    61123 CLA +0 50000 2 25362    61124 STO +0 60100 1 25475
                 LINE(LC-7) = BLANK                                                 237  LM00307
 61125 CLA +0 50000 0 25433    61126 SUB +0 40200 0 57072    61127 PAX +0 73400 1 00000    61130 CLA +0 50000 0 00115
 61131 STO +0 60100 1 25475
                 LCNT = LC - 8                                                      238  LM00308
 61132 CLA +0 50000 0 25433    61133 SUB +0 40200 0 57073    61134 STO +0 60100 0 25431
                 T'H LOOP11, FOR IC = 3,1,IC .E. EPARAY(JE,2)                       239  LM00309
 61135 CLA +0 50000 0 57066    61136 STO +0 60100 0 25413    61137 TRA +0 02000 0 61143    61140 CLA +0 50000 0 25413
 61141 ADD +0 40000 0 57064    61142 STO +0 60100 0 25413    61143 LDQ +0 56000 0 57065    61144 CLA +0 50000 0 25416
 61145 TSX +0 07400 4 00001    61146 TXH +3 02555 0 25362    61147 PAX +0 73400 2 00000    61150 CLA +0 50000 0 25413
 61151 SUB +0 40200 2 25362    61152 TZE +0 10000 0 61174
                   LINE(LCNT) = EPARAY(JE,IC)                                       240  LM00310
 61153 LDQ +0 56000 0 25413    61154 CLA +0 50000 0 25416    61155 TSX +0 07400 4 00001    61156 TXH +3 02555 0 25362
 61157 LXA +0 53400 1 25431    61160 PAX +0 73400 2 00000    61161 CLA +0 50000 2 25362    61162 STO +0 60100 1 25475
                   LINE(LCNT-1) = 735757575757K                                     241  LM00311
 61163 CLA +0 50000 0 25431    61164 SUB +0 40200 0 57064    61165 PAX +0 73400 1 00000    61166 CLA +0 50000 0 57131
 61167 STO +0 60100 1 25475
      LOOP11     LCNT = LCNT-2                                                      242  LM00312
 61170 CLA +0 50000 0 25431    61171 SUB +0 40200 0 57065    61172 STO +0 60100 0 25431    61173 TRA +0 02000 0 61140
                 BFWRIT.(N1,NA2,LINE(LC)...NLC,ERR4)                                243  LM00313
 61174 CLA +0 50000 0 25433    61175 SUB +0 40200 0 61176    61176 TXH +3 00000 0 25475    61177 STA +0 62100 0 61203
 61200 TSX +0 07400 4 00005    61201 TXH +3 00000 0 00027    61202 TXH +3 00000 0 00026    61203 TIX +2 27351 0 00000
 61204 TXH +3 00000 0 00044
                 T'O LTOP10                                                         244  LM00314
 61205 TRA +0 02000 0 00051
      SUMERY     SUM1(18) = OCABC.(HCORE)                                           245  LM00318
 61206 TSX +0 07400 4 00020    61207 TXH +3 00000 0 25365    61210 STO +0 60100 0 27426
                 SUM1(11) = OCABC.(LCOM)                                            246  LM00319
 61211 TSX +0 07400 4 00020    61212 TXH +3 00000 0 25432    61213 STO +0 60100 0 27435
                 SUM1(25) = BZEL.(DERBC.(LCOM-HCORE))                               247  LM00320
 61214 CLA +0 50000 0 25432    61215 SUB +0 40200 0 25365    61216 STO +0 60100 0 61743    61217 TSX +0 07400 4 00012
 61220 TXH +3 00000 0 61743    61221 STO +0 60100 0 61743    61222 TSX +0 07400 4 00006    61223 TXH +3 00000 0 61743
 61224 STO +0 60100 0 27417
                 W'R HCORE.G.LCOM, SUM1(25) =SUM1(25).A.MASK4                       248  LM00321
 61225 CLA +0 50000 0 25365    61226 SUB +0 40200 0 25432    61227 TZE +0 10000 0 61234    61230 TMI -0 12000 0 61234
 61231 CAL -0 50000 0 27417    61232 ANA -0 32000 0 25502    61233 SLW +0 60200 0 27417
                 HPC(5) = SUM1(18)                                                  249  LM00322
 61234 CLA +0 50000 0 27426    61235 STO +0 60100 0 25403
                 LCM(5) = SUM1(11)                                                  250  LM00323
 61236 CLA +0 50000 0 27435    61237 STO +0 60100 0 25423
                 DIFC(5) = SUM1(25)                                                 251  LM00324
 61240 CLA +0 50000 0 27417    61241 STO +0 60100 0 02545
                 W'R HCORE .L. LCOM .AND. (MEARAY+MFARAY) .E. 0                     252  LM00325
 61242 CLA +0 50000 0 26633    61243 ADD +0 40000 0 27033    61244 SUB +0 40200 0 57063    61245 TNZ -0 10000 0 61322
 61246 CLA +0 50000 0 25365    61247 SUB +0 40200 0 25432    61250 TZE +0 10000 0 61322    61251 TPL +0 12000 0 61322
                   T'H LOOP13, FOR IC = 0,1,IC .G. 27                               253  LM00329
 61252 CLA +0 50000 0 57063    61253 STO +0 60100 0 25413    61254 TRA +0 02000 0 61260    61255 CLA +0 50000 0 25413
 61256 ADD +0 40000 0 57064    61257 STO +0 60100 0 25413    61260 CLA +0 50000 0 25413    61261 SUB +0 40200 0 57110
 61262 TZE +0 10000 0 61264    61263 TPL +0 12000 0 61273
      LOOP13       LINE(LC-IC) = SUM1(IC)                                           254  LM00330
 61264 CLA +0 50000 0 25433    61265 SUB +0 40200 0 25413    61266 PAX +0 73400 1 00000    61267 LXA +0 53400 2 25413
 61270 CLA +0 50000 2 27450    61271 STO +0 60100 1 25475    61272 TRA +0 02000 0 61255
                   BFWRIT.(N1,NA2,LINE(LC)...28,ERR4)                               255  LM00331
 61273 CLA +0 50000 0 25433    61274 SUB +0 40200 0 61275    61275 TXH +3 00000 0 25475    61276 STA +0 62100 0 61302
 61277 TSX +0 07400 4 00005    61300 TXH +3 00000 0 00027    61301 TXH +3 00000 0 00026    61302 TIX +2 57111 0 00000
 61303 TXH +3 00000 0 00044
                   PRINT COMMENT $SYSTEM PRELOAD SUCCESSFUL$                        256  LM00332
 61304 TSX +0 07400 4 00016    61305     +0 00000 0 00005    61306     -2 27062 6 32544    61307     -2 04751 2 54346
 61310     +2 12460 6 26423    61311     +2 32562 6 22664    61312     -0 36060 6 06060
                 PRNTP.(LCM)                                                        257  LM00333
 61313 TSX +0 07400 4 00022    61314 TXH +3 00000 0 25430
                 PRNTP.(HPC)                                                        258  LM00334
 61315 TSX +0 07400 4 00022    61316 TXH +3 00000 0 25410
                 PRNTP.(DIFC)                                                       259  LM00335
 61317 TSX +0 07400 4 00022    61320 TXH +3 00000 0 02552
                   T'O MUCK                                                         260  LM00336
 61321 TRA +0 02000 0 00061
                 E'L                                                                261  LM00337
                 SUM1(3) = SUM1A                                                    262  LM00340
 61322 CLA +0 50000 0 27414    61323 STO +0 60100 0 27445
                 T'H LOOP14, FOR IC = 0,1,IC .G. 27                                 263  LM00341
 61324 CLA +0 50000 0 57063    61325 STO +0 60100 0 25413    61326 TRA +0 02000 0 61332    61327 CLA +0 50000 0 25413
 61330 ADD +0 40000 0 57064    61331 STO +0 60100 0 25413    61332 CLA +0 50000 0 25413    61333 SUB +0 40200 0 57110
 61334 TZE +0 10000 0 61336    61335 TPL +0 12000 0 61345
      LOOP14     LINE(LC-IC) = SUM1(IC)                                             264  LM00342
 61336 CLA +0 50000 0 25433    61337 SUB +0 40200 0 25413    61340 PAX +0 73400 1 00000    61341 LXA +0 53400 2 25413
 61342 CLA +0 50000 2 27450    61343 STO +0 60100 1 25475    61344 TRA +0 02000 0 61327
                 BFWRIT.(N1,NA2,LINE(LC)...28, ERR4)                                265  LM00343
 61345 CLA +0 50000 0 25433    61346 SUB +0 40200 0 61347    61347 TXH +3 00000 0 25475    61350 STA +0 62100 0 61354
 61351 TSX +0 07400 4 00005    61352 TXH +3 00000 0 00027    61353 TXH +3 00000 0 00026    61354 TIX +2 57111 0 00000
 61355 TXH +3 00000 0 00044
                 PRINT COMMENT $SYSTEM PRELOAD UNSUCCESSFUL$                        266  LM00344
 61356 TSX +0 07400 4 00016    61357     +0 00000 0 00005    61360     -2 27062 6 32544    61361     -2 04751 2 54346
 61362     +2 12460 6 44562    61363     -2 42323 2 56262    61364     +2 66443 6 06060
                 PRNTP.(LCM)                                                        267  LM00345
 61365 TSX +0 07400 4 00022    61366 TXH +3 00000 0 25430
                 PRNTP.(HPC)                                                        268  LM00346
 61367 TSX +0 07400 4 00022    61370 TXH +3 00000 0 25410
                 PRNTP.(DIFC)                                                       269  LM00347
 61371 TSX +0 07400 4 00022    61372 TXH +3 00000 0 02552
                 W'R MFARAY .E. 0, T'O MECK                                         270  LM00348
 61373 CLA +0 50000 0 27033    61374 SUB +0 40200 0 57063    61375 TNZ -0 10000 0 61377    61376 TRA +0 02000 0 00057
                 T'H LOOP15, FOR IC = 0,1,IC .G. 4                                  271  LM00352
 61377 CLA +0 50000 0 57063    61400 STO +0 60100 0 25413    61401 TRA +0 02000 0 61405    61402 CLA +0 50000 0 25413
 61403 ADD +0 40000 0 57064    61404 STO +0 60100 0 25413    61405 CLA +0 50000 0 25413    61406 SUB +0 40200 0 57067
 61407 TZE +0 10000 0 61411    61410 TPL +0 12000 0 61420
      LOOP15     LINE(LC-IC) = SUM2(IC)                                             272  LM00353
 61411 CLA +0 50000 0 25433    61412 SUB +0 40200 0 25413    61413 PAX +0 73400 1 00000    61414 LXA +0 53400 2 25413
 61415 CLA +0 50000 2 27455    61416 STO +0 60100 1 25475    61417 TRA +0 02000 0 61402
                 BFWRIT.(N1,NA2,LINE(LC)...5,ERR4)                                  273  LM00354
 61420 CLA +0 50000 0 25433    61421 SUB +0 40200 0 61422    61422 TXH +3 00000 0 25475    61423 STA +0 62100 0 61427
 61424 TSX +0 07400 4 00005    61425 TXH +3 00000 0 00027    61426 TXH +3 00000 0 00026    61427 TIX +2 57070 0 00000
 61430 TXH +3 00000 0 00044
                 PRINT COMMENT $MISSING FILES ARE$                                  274  LM00355
 61431 TSX +0 07400 4 00016    61432     +0 00000 0 00003    61433     -0 43162 6 23145    61434     +2 76026 3 14325
 61435     -2 26021 5 12560
                 LINE(LC) = 777777000003K                                           275  LM00356
 61436 LXA +0 53400 1 25433    61437 CLA +0 50000 0 57133    61440 STO +0 60100 1 25475
                 LINE(LC-2) = BLANK                                                 276  LM00357
 61441 CLA +0 50000 0 25433    61442 SUB +0 40200 0 57065    61443 PAX +0 73400 1 00000    61444 CLA +0 50000 0 00115
 61445 STO +0 60100 1 25475
                 T'H LOOP16, FOR IC = 1,1,IC .G. MFARAY                             277  LM00358
 61446 CLA +0 50000 0 57064    61447 STO +0 60100 0 25413    61450 TRA +0 02000 0 61454    61451 CLA +0 50000 0 25413
 61452 ADD +0 40000 0 57064    61453 STO +0 60100 0 25413    61454 CLA +0 50000 0 25413    61455 SUB +0 40200 0 27033
 61456 TZE +0 10000 0 61460    61457 TPL +0 12000 0 61504
                 LINE(LC-3) = MFARAY(IC)                                            278  LM00359
 61460 CLA +0 50000 0 25433    61461 SUB +0 40200 0 57066    61462 PAX +0 73400 1 00000    61463 LXA +0 53400 2 25413
 61464 CLA +0 50000 2 27033    61465 STO +0 60100 1 25475
                 NASTY(0) = MFARAY(IC)                                              279  LM00360
 61466 CLA +0 50000 2 27033    61467 STO +0 60100 0 27350
                 PRNTP.(NASTY)                                                      280  LM00361
 61470 TSX +0 07400 4 00022    61471 TXH +3 00000 0 27350
      LOOP16     BFWRIT.(N1,NA2,LINE(LC)...4,ERR4)                                  281  LM00362
 61472 CLA +0 50000 0 25433    61473 SUB +0 40200 0 61474    61474 TXH +3 00000 0 25475    61475 STA +0 62100 0 61501
 61476 TSX +0 07400 4 00005    61477 TXH +3 00000 0 00027    61500 TXH +3 00000 0 00026    61501 TIX +2 57067 0 00000
 61502 TXH +3 00000 0 00044    61503 TRA +0 02000 0 61451
      MECK       W'R MEARAY .E. 0, T'O MUCK                                         282  LM00363
 61504 CLA +0 50000 0 26633    61505 SUB +0 40200 0 57063    61506 TNZ -0 10000 0 61510    61507 TRA +0 02000 0 00061
                 T'H LOOP17, FOR IC = 0,1,IC .G. 5                                  283  LM00367
 61510 CLA +0 50000 0 57063    61511 STO +0 60100 0 25413    61512 TRA +0 02000 0 61516    61513 CLA +0 50000 0 25413
 61514 ADD +0 40000 0 57064    61515 STO +0 60100 0 25413    61516 CLA +0 50000 0 25413    61517 SUB +0 40200 0 57070
 61520 TZE +0 10000 0 61522    61521 TPL +0 12000 0 61531
      LOOP17     LINE(LC-IC) = SUM3(IC)                                             284  LM00368
 61522 CLA +0 50000 0 25433    61523 SUB +0 40200 0 25413    61524 PAX +0 73400 1 00000    61525 LXA +0 53400 2 25413
 61526 CLA +0 50000 2 27463    61527 STO +0 60100 1 25475    61530 TRA +0 02000 0 61513
                 BFWRIT.(N1,NA2,LINE(LC)...6,ERR4)                                  285  LM00369
 61531 CLA +0 50000 0 25433    61532 SUB +0 40200 0 61533    61533 TXH +3 00000 0 25475    61534 STA +0 62100 0 61540
 61535 TSX +0 07400 4 00005    61536 TXH +3 00000 0 00027    61537 TXH +3 00000 0 00026    61540 TIX +2 57071 0 00000
 61541 TXH +3 00000 0 00044
                 PRINT COMMENT $MISSING ENTRY POINTS ARE$                           286  LM00370
 61542 TSX +0 07400 4 00016    61543     +0 00000 0 00004    61544     -0 43162 6 23145    61545     +2 76025 4 56351
 61546     -3 06047 4 63145    61547     -2 36260 2 15125
                 LINE(LC) = 777777000003K                                           287  LM00371
 61550 LXA +0 53400 1 25433    61551 CLA +0 50000 0 57133    61552 STO +0 60100 1 25475
                 LINE(LC-2) = BLANK                                                 288  LM00372
 61553 CLA +0 50000 0 25433    61554 SUB +0 40200 0 57065    61555 PAX +0 73400 1 00000    61556 CLA +0 50000 0 00115
 61557 STO +0 60100 1 25475
                 T'H LOOP18, FOR IC = 1,1,IC .G. MEARAY                             289  LM00373
 61560 CLA +0 50000 0 57064    61561 STO +0 60100 0 25413    61562 TRA +0 02000 0 61566    61563 CLA +0 50000 0 25413
 61564 ADD +0 40000 0 57064    61565 STO +0 60100 0 25413    61566 CLA +0 50000 0 25413    61567 SUB +0 40200 0 26633
 61570 TZE +0 10000 0 61572    61571 TPL +0 12000 0 61616
                 LINE(LC-3) = MEARAY(IC)                                            290  LM00374
 61572 CLA +0 50000 0 25433    61573 SUB +0 40200 0 57066    61574 PAX +0 73400 1 00000    61575 LXA +0 53400 2 25413
 61576 CLA +0 50000 2 26633    61577 STO +0 60100 1 25475
                 NASTY(0) = MEARAY(IC)                                              291  LM00375
 61600 CLA +0 50000 2 26633    61601 STO +0 60100 0 27350
                 PRNTP.(NASTY)                                                      292  LM00376
 61602 TSX +0 07400 4 00022    61603 TXH +3 00000 0 27350
      LOOP18     BFWRIT. (N1,NA2,LINE(LC)...4,ERR4)                                 293  LM00377
 61604 CLA +0 50000 0 25433    61605 SUB +0 40200 0 61606    61606 TXH +3 00000 0 25475    61607 STA +0 62100 0 61613
 61610 TSX +0 07400 4 00005    61611 TXH +3 00000 0 00027    61612 TXH +3 00000 0 00026    61613 TIX +2 57067 0 00000
 61614 TXH +3 00000 0 00044    61615 TRA +0 02000 0 61563
      MUCK       W'R MULT .E. 0, T'O END                                            294  LM00378
 61616 CLA +0 50000 0 27345    61617 SUB +0 40200 0 57063    61620 TNZ -0 10000 0 61622    61621 TRA +0 02000 0 00032
                 T'H LOOP19, FOR IC = 0,1,IC .G. 6                                  295  LM00382
 61622 CLA +0 50000 0 57063    61623 STO +0 60100 0 25413    61624 TRA +0 02000 0 61630    61625 CLA +0 50000 0 25413
 61626 ADD +0 40000 0 57064    61627 STO +0 60100 0 25413    61630 CLA +0 50000 0 25413    61631 SUB +0 40200 0 57071
 61632 TZE +0 10000 0 61634    61633 TPL +0 12000 0 61643
      LOOP19     LINE(LC-IC) = SUM4(IC)                                             296  LM00383
 61634 CLA +0 50000 0 25433    61635 SUB +0 40200 0 25413    61636 PAX +0 73400 1 00000    61637 LXA +0 53400 2 25413
 61640 CLA +0 50000 2 27472    61641 STO +0 60100 1 25475    61642 TRA +0 02000 0 61625
                 BFWRIT.(N1,NA2,LINE(LC)...7,ERR4)                                  297  LM00384
 61643 CLA +0 50000 0 25433    61644 SUB +0 40200 0 61645    61645 TXH +3 00000 0 25475    61646 STA +0 62100 0 61652
 61647 TSX +0 07400 4 00005    61650 TXH +3 00000 0 00027    61651 TXH +3 00000 0 00026    61652 TIX +2 57072 0 00000
 61653 TXH +3 00000 0 00044
                 PRINT COMMENT $DUPLICATED ENTRY POINTS ARE$                        298  LM00385
 61654 TSX +0 07400 4 00016    61655     +0 00000 0 00005    61656     +2 46447 4 33123    61657     +2 16325 2 46025
 61660     -0 56351 7 06047    61661     -0 63145 6 36260    61662     +2 15125 6 06060
                 LINE(LC) = 777777000003K                                           299  LM00386
 61663 LXA +0 53400 1 25433    61664 CLA +0 50000 0 57133    61665 STO +0 60100 1 25475
                 LINE (LC-2) = BLANK                                                300  LM00387
 61666 CLA +0 50000 0 25433    61667 SUB +0 40200 0 57065    61670 PAX +0 73400 1 00000    61671 CLA +0 50000 0 00115
 61672 STO +0 60100 1 25475
                 T'H LOOP20, FOR IC = 1,1,IC .G. MULT                               301  LM00388
 61673 CLA +0 50000 0 57064    61674 STO +0 60100 0 25413    61675 TRA +0 02000 0 61701    61676 CLA +0 50000 0 25413
 61677 ADD +0 40000 0 57064    61700 STO +0 60100 0 25413    61701 CLA +0 50000 0 25413    61702 SUB +0 40200 0 27345
 61703 TZE +0 10000 0 61705    61704 TPL +0 12000 0 61731
                 LINE(LC-3) = MULT(IC)                                              302  LM00389
 61705 CLA +0 50000 0 25433    61706 SUB +0 40200 0 57066    61707 PAX +0 73400 1 00000    61710 LXA +0 53400 2 25413
 61711 CLA +0 50000 2 27345    61712 STO +0 60100 1 25475
                 NASTY(0) = MULT(IC)                                                303  LM00390
 61713 CLA +0 50000 2 27345    61714 STO +0 60100 0 27350
                 PRNTP.(NASTY)                                                      304  LM00391
 61715 TSX +0 07400 4 00022    61716 TXH +3 00000 0 27350
      LOOP20     BFWRIT.(N1,NA2,LINE(LC)...4,ERR4)                                  305  LM00392
 61717 CLA +0 50000 0 25433    61720 SUB +0 40200 0 61721    61721 TXH +3 00000 0 25475    61722 STA +0 62100 0 61726
 61723 TSX +0 07400 4 00005    61724 TXH +3 00000 0 00027    61725 TXH +3 00000 0 00026    61726 TIX +2 57067 0 00000
 61727 TXH +3 00000 0 00044    61730 TRA +0 02000 0 61676
                 T'O END                                                            306  LM00393
 61731 TRA +0 02000 0 00032
      ERR4       PRNTER.                                                            307  LM00394
 61732 TSX +0 07400 4 00021
      END        BFCLOS.(N1,NA2,END2)                                               308  LM00395
 61733 TSX +0 07400 4 00002    61734 TXH +3 00000 0 00027    61735 TXH +3 00000 0 00026    61736 TXH +3 00000 0 00031
      END2       CHNCOM.(0)                                                         309  LM00396
 61737 TSX +0 07400 4 00007    61740 TXH +3 00000 0 57063
                 E'M                                                                310  LM00397
 61741 TSX +0 07400 4 00013


 PRBIN   BCD 05/12/69 2020.2   16186         00000
1     MAD PROGRAM LISTING ... ... ...                 FILE   PRBIN   MAD            02/24/69    2223.1
-
      PRBIN       PRINT A FILE IN SPREAD OCTAL (BINARY).                                               LM00001
                                                                                                       LM00002
                  D. A. ANDERSON AND R. A. ROACH   02/24/69                                            LM00003
                                                                                                       LM00004
                  USAGE:                                                                               LM00005
                                                                                                       LM00006
                                                                                                       LM00007
                  PRBIN N1 N2 -START- -'THRU'/'TO'/'...' END- -NWORDS-                                 LM00008
                       -DELTA- -BLOCKSIZE- -'OFF'/'OFFON'/'ONOFF'- -N3- -N4-                           LM00009
                                                                                                       LM00010
                   LOADING INSTRUCTIONS:                                                               LM00011
                                                                                                       LM00012
                   LAED NCLOAD PRBIN (SRCH) (SYS) XLIBE                                                LM00013
                   SAVE PRBIN                                                                          LM00014
                                                                                                       LM00015
                                                                                                       LM00016
                  NORMAL MODE IS INTEGER                                                          *001 LM00017
                  DIMENSION B0(0),B1(0),B2(0),B3(0),BON(50),BOFF(50)                              *002 LM00018
                  BOOLEAN STARTF,ENDF,LLF,DELTAF,TEMPF,OFF,ON,NEWON,NEWOFF,OCT                    *003 LM00019
                  BOOLEAN BLKSZF                                                                  *004 LM00020
                  VECTOR VALUES STARTF = 0B                                                       *005 LM00021
                  VECTOR VALUES ENDF = 0B                                                         *006 LM00022
                  VECTOR VALUES LLF = 0B                                                          *007 LM00023
                  VECTOR VALUES DELTAF = 0B                                                       *008 LM00024
                  VECTOR VALUES BLKSZF = 0B                                                       *009 LM00025
                  VECTOR VALUES ON = 1B                                                           *010 LM00026
                  VECTOR VALUES OFF = 0B                                                          *011 LM00027
                  VECTOR VALUES NEWON = 1B                                                        *012 LM00028
                  VECTOR VALUES NEWOFF = 1B                                                       *013 LM00029
                  VECTOR VALUES OCT = 0B                                                          *014 LM00030
                  VECTOR VALUES FENCE = 777777777777K                                             *015 LM00031
                  VECTOR VALUES MAXON = 25,19,25,19,19,19,19,19,25,16                             *016 LM00032
                  VECTOR VALUES BL = 605757575757K                                                *017 LM00033
                  VECTOR VALUES CR = 555757575757K                                                *018 LM00034
                  EQUIVALENCE (BL,BOFF(49))                                                       *019 LM00035
                  EQUIVALENCE (TEMP,TEMPF)                                                        *020 LM00036
                  VECTOR VALUES LM = 777777K6                                                     *021 LM00037
                  VECTOR VALUES N4 = $   BIN$                                                     *022 LM00038
                  VECTOR VALUES RECCNT = 432                                                      *023 LM00039
                  VECTOR VALUES MAXOFF = 29                                                       *024 LM00040
                  VECTOR VALUES ARGS1 = 3,$    TO$,$  THRU$,$   ...$                              *025 LM00041
                  VECTOR VALUES ARGS2 = 6,$     O$,$   OFF$,$ (OFF)$,$ OFFON$,$ONOFF$,            *026 LM00042
                1   $     *$                                                                      *026 LM00043
                                                                                                       LM00044
                                                                                                       LM00045
                  PROCESS COMMAND BUFFER AND SET UP FLAGS                                              LM00046
                                                                                                       LM00047
                  N1 = COMARG.(1)                                                                 *027 LM00048
                  WHENEVER N1 .E. FENCE .OR. N1 .E. $(HELP)$                                      *028 LM00049
      HELP           PRMESS.                                                                      *029 LM00050
                     PRMESS.($ CORRECT USAGE IS:$)                                                *030 LM00051
                     PRMESS.                                                                      *031 LM00052
                     PRMESA.(COMARG.(0),$ N1  N2  -START- -'THRU'/'TO'/'...' $)                   *032 LM00053
                     PRMESS.($END- -NWORDS- -DELTA- -BLOCKSIZE-$)                                 *033 LM00054
                     PRMESS.($      -'OFF'/'OFFON'/'ONOFF'- -N3- -N4-$)                           *034 LM00055
                     EXITM.                                                                       *035 LM00056
                  END OF CONDITIONAL                                                              *036 LM00057
                                                                                                       LM00058
                  WHENEVER COMARG.(2,N2) .E. FENCE                                                *037 LM00059
                    TRANSFER TO HELP                                                              *038 LM00060
      BADFMT        PRMESS.($ILLEGAL ARGUMENT:$,TEMP)                                             *039 LM00061
                     EXITM.                                                                       *040 LM00062
                  END OF CONDITIONAL                                                              *041 LM00063
                                                                                                       LM00064
                  J = 3                                                                           *042 LM00065
                  NUMBER.(START,STARTF,GO,OCT)                                                    *043 LM00066
                  WHENEVER COMARG.(J,TEMP) .E. FENCE, TRANSFER TO GO                              *044 LM00067
      LOOPA       THROUGH LOOPA, FOR K = 1,1,K.G.ARGS1 .OR. TEMP.E.ARGS1(K)                       *045 LM00068
                  WHENEVER K .LE. ARGS1                                                           *046 LM00069
                     J = J+1                                                                      *047 LM00070
                     NUMBER.(END,ENDF,BADFMT,TEMPF)                                               *048 LM00071
                  END OF CONDITIONAL                                                              *049 LM00072
                  NUMBER.(NON,LLF,GO,TEMPF)                                                       *050 LM00073
                  NUMBER.(DELTA,DELTAF,GO,TEMPF)                                                  *051 LM00074
                  NUMBER.(BLKSIZ,BLKSZF,GO,TEMPF)                                                 *052 LM00075
                  TEMPF = 0B                                                                      *053 LM00076
                  NUMBER.(TEMP,TEMPF,GO,TEMPF)                                                    *054 LM00077
                  WHENEVER TEMPF, TRANSFER TO HELP                                                *055 LM00078
                                                                                                       LM00079
      GO          WHENEVER .NOT.STARTF, START = 1                                                 *056 LM00080
                  WHENEVER START .E. 0, START = 1                                                 *057 LM00081
                  WHENEVER .NOT.ENDF, END = 377777777777K                                         *058 LM00082
                  WHENEVER .NOT.DELTAF, DELTA = 1                                                 *059 LM00083
                  WHENEVER .NOT.BLKSZF, BLKSIZ = 1                                                *060 LM00084
                                                                                                       LM00085
                  WHENEVER BLKSIZ .G. DELTA                                                       *061 LM00086
                    PRMESS.($BLOCK SIZE GREATER THAN DELTA.$)                                     *062 LM00087
                    EXITM.                                                                        *063 LM00088
                  END OF CONDITIONAL                                                              *064 LM00089
                                                                                                       LM00090
                  WHOAMI.(BOFF(3)...4)                                                            *065 LM00091
                  CONSOL = BOFF.RS.30                                                             *066 LM00092
                  WHENEVER CONSOL .G. 9, CONSOL = 0                                               *067 LM00093
                  GETTM.(DATE,TIME)                                                               *068 LM00094
                  WHENEVER LLF                                                                    *069 LM00095
                     NOFF = NON                                                                   *070 LM00096
                  OTHERWISE                                                                       *071 LM00097
                     NON = (MAXON(CONSOL)-1)/3                                                    *072 LM00098
                     NOFF = 9                                                                     *073 LM00099
                  END OF CONDITIONAL                                                              *074 LM00100
                                                                                                       LM00101
                  GETBUF.(B0,432)                                                                 *075 LM00102
                  FERRTN.(IOERR)                                                                  *076 LM00103
                  SETBRK.(EXITM.)                                                                 *077 LM00104
                  OPEN.($R$,N1,N2)                                                                *078 LM00105
                                                                                                       LM00106
                                                                                                       LM00107
                  WHENEVER ON                                                                     *079 LM00108
                     PRMESS.(CR,N1,BL,N2,BL,BL,DATE,BL,TIME,CR)                                   *080 LM00109
                  END OF CONDITIONAL                                                              *081 LM00110
                                                                                                       LM00111
                  WHENEVER OFF                                                                    *082 LM00112
                     GETBUF.(B1,432)                                                              *083 LM00113
                     GETBUF.(B2,432)                                                              *084 LM00114
                     GETBUF.(B3,432)                                                              *085 LM00115
                     BFOPEN.($W$,N3,N4,B1(B1+432),B2(B2+432),B3(B3+432),IOERR)                    *086 LM00116
                                                                                                       LM00117
                     BOFF(48) = 777777000012K                                                     *087 LM00118
                     BOFF(47) = $1$                                                               *088 LM00119
                     BOFF(46) = N1                                                                *089 LM00120
                     BOFF(45) = BL                                                                *090 LM00121
                     BOFF(44) = BZ57.(N2)                                                         *091 LM00122
                     BOFF(43) = $  FOR$                                                           *092 LM00123
                     BOFF(42) = BOFF(3)                                                           *093 LM00124
                     BOFF(41) = BZ57.(BOFF(2)) - 1K10                                             *094 LM00125
                     BOFF(40) = $$                                                                *095 LM00126
                     BOFF(39) = DATE                                                              *096 LM00127
                     BOFF(38) = TIME                                                              *097 LM00128
                     BOFF(37) = 777777000001K                                                     *098 LM00129
                     BOFF(36) = BL                                                                *099 LM00130
                     BOFF(35) = 777777000001K                                                     *100 LM00131
                     BOFF(34) = BL                                                                *101 LM00132
                                                                                                       LM00133
                     BFWRIT.(N3,N4,BOFF(48)...15,IOERR)                                           *102 LM00134
                  END OF CONDITIONAL                                                              *103 LM00135
                                                                                                       LM00136
                  THROUGH LOOP, FOR LOC1 = START,DELTA,LOC1.G.END                                 *104 LM00137
                  WHENEVER BLKSZF                                                                 *105 LM00138
                    WHENEVER ON.AND.ONCNT.G.1                                                     *106 LM00139
                      PRMESS.(BON(1)...ONCNT)                                                     *107 LM00140
                      NEWON=1B                                                                    *108 LM00141
                      ONCNT=1                                                                     *109 LM00142
                    END OF CONDITIONAL                                                            *110 LM00143
                    WHENEVER OFF.AND.OFFCNT.G.2                                                   *111 LM00144
                      BOFF(50)=OFFCNT.V.LM                                                        *112 LM00145
                      MCOUNT=OFFCNT+1                                                             *113 LM00146
                      BFWRIT.(N3,N4,BOFF(50)...MCOUNT,IOERR)                                      *114 LM00147
                      NEWOFF=1B                                                                   *115 LM00148
                      OFFCNT=2                                                                    *116 LM00149
                    END OF CONDITIONAL                                                            *117 LM00150
                  END OF CONDITIONAL                                                              *118 LM00151
                  THROUGH LOOP, FOR LOC=LOC1,1,LOC.E.LOC1+BLKSIZ                                  *119 LM00152
                  TEMP = (LOC-1)/432 * 432 + 1                                                    *120 LM00153
                  WHENEVER TEMP .NE. RELLOC                                                       *121 LM00154
                     RELLOC = TEMP                                                                *122 LM00155
                     RDWAIT.(N1,N2,RELLOC,B0(B0+432)...432,EOF,EOFCT)                             *123 LM00156
                  END OF CONDITIONAL                                                              *124 LM00157
      BACK        TEMP = LOC - RELLOC                                                             *125 LM00158
                  WHENEVER TEMP .G. RECCNT, TRANSFER TO FINALE                                    *126 LM00159
                  WORD = B0(B0+432-TEMP)                                                          *127 LM00160
                                                                                                       LM00161
                                                                                                       LM00162
                  WHENEVER .NOT.ON, TRANSFER TO OVER1                                             *128 LM00163
                  WHENEVER NEWON                                                                  *129 LM00164
                     WHENEVER .NOT. OCT                                                           *130 LM00165
                        BON(1) = BZEL.(DEFBC.(LOC))                                               *131 LM00166
                     OTHERWISE                                                                    *132 LM00167
                        BON(1) = OCRBC.(LOC)                                                      *133 LM00168
                     END OF CONDITIONAL                                                           *134 LM00169
                     NEWON = 0B                                                                   *135 LM00170
                     ONCNT = 1                                                                    *136 LM00171
                     ONWRDS = 0                                                                   *137 LM00172
                  END OF CONDITIONAL                                                              *138 LM00173
                                                                                                       LM00174
                  BON(ONCNT+1) = BL                                                               *139 LM00175
                  BON(ONCNT+2) = OCLBC.(WORD)                                                     *140 LM00176
                  BON(ONCNT+3) = OCRBC.(WORD)                                                     *141 LM00177
                  ONCNT = ONCNT + 3                                                               *142 LM00178
                  ONWRDS = ONWRDS + 1                                                             *143 LM00179
                                                                                                       LM00180
                  WHENEVER ONWRDS.GE.NON                                                          *144 LM00181
                     PRMESS.(BON(1)...ONCNT)                                                      *145 LM00182
                     NEWON = 1B                                                                   *146 LM00183
                     ONCNT = 1                                                                    *147 LM00184
                  OR WHENEVER ONCNT .GE. MAXON(CONSOL)                                            *148 LM00185
                     PRMESS.(BON(1)...ONCNT)                                                      *149 LM00186
                     BON(1) = $$                                                                  *150 LM00187
                     ONCNT = 1                                                                    *151 LM00188
                  END OF CONDITIONAL                                                              *152 LM00189
                                                                                                       LM00190
      OVER1       WHENEVER .NOT. OFF, TRANSFER TO LOOP                                            *153 LM00191
                  WHENEVER NEWOFF                                                                 *154 LM00192
                     WHENEVER .NOT. OCT                                                           *155 LM00193
                       BOFF(48) = BZEL.(DEFBC.(LOC))                                              *156 LM00194
                     OTHERWISE                                                                    *157 LM00195
                       BOFF(48) = OCRBC.(LOC)                                                     *158 LM00196
                     END OF CONDITIONAL                                                           *159 LM00197
                     NEWOFF = 0B                                                                  *160 LM00198
                     OFFCNT = 2                                                                   *161 LM00199
                     OFFWDS = 0                                                                   *162 LM00200
                  END OF CONDITIONAL                                                              *163 LM00201
                                                                                                       LM00202
                  BOFF(50-OFFCNT-1) = BL                                                          *164 LM00203
                  BOFF(50-OFFCNT-2) = OCLBC.(WORD)                                                *165 LM00204
                  BOFF(50-OFFCNT-3) = OCRBC.(WORD)                                                *166 LM00205
                  OFFCNT = OFFCNT + 3                                                             *167 LM00206
                  OFFWDS = OFFWDS + 1                                                             *168 LM00207
                                                                                                       LM00208
                  WHENEVER OFFWDS .GE. NOFF                                                       *169 LM00209
                     BOFF(50) = OFFCNT.V.LM                                                       *170 LM00210
                     MCOUNT = OFFCNT+1                                                            *171 LM00211
                     BFWRIT.(N3,N4,BOFF(50)...MCOUNT,IOERR)                                       *172 LM00212
                     NEWOFF = 1B                                                                  *173 LM00213
                     OFFCNT = 2                                                                   *174 LM00214
                  OR WHENEVER OFFCNT .GE. MAXOFF                                                  *175 LM00215
                     BOFF(50) = OFFCNT.V.LM                                                       *176 LM00216
                     MCOUNT = OFFCNT+1                                                            *177 LM00217
                     BFWRIT.(N3,N4,BOFF(50)...MCOUNT,IOERR)                                       *178 LM00218
                     OFFCNT = 2                                                                   *179 LM00219
                     BOFF(48) = $$                                                                *180 LM00220
                  END OF CONDITIONAL                                                              *181 LM00221
      LOOP        CONTINUE                                                                        *182 LM00222
                                                                                                       LM00223
                                                                                                       LM00224
      EOF         RECCNT = EOFCT - 1                                                              *183 LM00225
                  TRANSFER TO BACK                                                                *184 LM00226
                                                                                                       LM00227
                                                                                                       LM00228
      IOERR       PRDIAG.                                                                         *185 LM00229
                                                                                                       LM00230
                                                                                                       LM00231
      FINALE      WHENEVER ON .AND. ONCNT.G.1, PRMESS.(BON(1)...ONCNT)                            *186 LM00232
                  WHENEVER OFF .AND. OFFCNT .G. 2                                                 *187 LM00233
                     BOFF(50) = OFFCNT .V. LM                                                     *188 LM00234
                     MCOUNT = -OFFCNT-1                                                           *189 LM00235
                     BFWRIT.(N3,N4,BOFF(50)...MCOUNT,IOERR)                                       *190 LM00236
                     BFCLOS.(N3,N4,IOERR)                                                         *191 LM00237
                  END OF CONDITIONAL                                                              *192 LM00238
                  EXITM.                                                                          *193 LM00239
                                                                                                       LM00240
                  INTERNAL FUNCTION (A,B,C,D)                                                     *194 LM00241
                  STATEMENT LABEL C                                                               *195 LM00242
                  BOOLEAN B,D                                                                     *196 LM00243
                  ENTRY TO NUMBER.                                                                *197 LM00244
                                                                                                       LM00245
      NUM         WHENEVER COMARG.(J,TEMP).E.FENCE, TRANSFER TO C                                 *198 LM00246
                  J = J+1                                                                         *199 LM00247
      LOOPA2      THROUGH LOOPA2, FOR K = ARGS2,-1,K.E.0 .OR. TEMP.E.ARGS2(K)                     *200 LM00248
                  TRANSFER TO ARGT(K)                                                             *201 LM00249
                                                                                                       LM00250
      ARGT(0)     WHENEVER ZEL.(TEMP) .A. $$ .NE. 0, TRANSFER TO BADFMT                           *202 LM00251
                  A = BCDEC.(TEMP)                                                                *203 LM00252
                  B = 1B                                                                          *204 LM00253
      ARGT(6)     FUNCTION RETURN                                                                 *205 LM00254
                                                                                                       LM00255
      ARGT(1)     WHENEVER COMARG.(J,TEMP) .E. FENCE, TRANSFER TO BADFMT                          *206 LM00256
                  J = J + 1                                                                       *207 LM00257
                  WHENEVER ZEL.(TEMP).A.$YYYYYY$ .NE. 0, TRANSFER TO BADFMT                       *208 LM00258
                  A = BCOCT.(TEMP)                                                                *209 LM00259
                  D = 1B                                                                          *210 LM00260
                  B = 1B                                                                          *211 LM00261
                  FUNCTION RETURN                                                                 *212 LM00262
                                                                                                       LM00263
                                                                                                       LM00264
                    'OFF' OR '(OFF)'                                                                   LM00265
                                                                                                       LM00266
      ARGT(2)                                                                                     *213 LM00267
      ARGT(3)     ON = 0B                                                                         *214 LM00268
                                                                                                       LM00269
                  'OFFON' OR 'ONOFF'                                                                   LM00270
                                                                                                       LM00271
      ARGT(4)                                                                                     *215 LM00272
      ARGT(5)     OFF = 1B                                                                        *216 LM00273
                  WHENEVER COMARG.(J,N3) .E. FENCE                                                *217 LM00274
                     N3 = N1                                                                      *218 LM00275
                     TRANSFER TO C                                                                *219 LM00276
                  END OF CONDITIONAL                                                              *220 LM00277
                                                                                                       LM00278
                  J = J+2                                                                         *221 LM00279
                  WHENEVER COMARG.(J-1,N4) .NE. FENCE, TRANSFER TO NUM                            *222 LM00280
                  N4 = $   BIN$                                                                   *223 LM00281
                  TRANSFER TO C                                                                   *224 LM00282
                                                                                                       LM00283
                  END OF FUNCTION                                                                 *225 LM00284
                                                                                                       LM00285
                  END OF PROGRAM                                                                  *226 LM00286
1MAD PROGRAM,TYPE NOV 1963      (ALL NUMBERS ARE OCTAL)
0TOTAL LOCATIONS   01702 TRANSFER VECTOR LENGTH  00031 PROGRAM BEGINS    00410
0VARIABLE STORAGE (A=ARRAY,C=COMMON,E=ERASABLE,DIGIT=MODE)
      ARGS1  00143 A 1        BON    00243 A 1        HELP   00133   4        MCOUNT 00276   1        OFFWDS 00312   1
      ARGS2  00152 A 1        CONSOL 00244   1        IOERR  00134   4        N1     00277   1        ONCNT  00313   1
      ARGT   00125 A 4        CR     00245 A 1        J      00255   1        N2     00300   1        ON     00314 A 2
      B0     00153 A 1        DATE   00246   1        K      00256   1        N3     00301   1        ONWRDS 00315   1
      B1     00154 A 1        DELTAF 00247 A 2        LLF    00257 A 2        N4     00302 A 1        OVER1  00137   4
      B2     00155 A 1        DELTA  00250   1        LM     00260 A 1        NEWOFF 00303 A 2        RECCNT 00316 A 1
      B3     00156 A 1        ENDF   00251 A 2        LOC1   00261   1        NEWON  00304 A 2        RELLOC 00317   1
      BACK   00126   4        END    00252   1        LOC    00262   1        NOFF   00305   1        STARTF 00320 A 2
      BADFMT 00127   4        EOFCT  00253   1        LOOPA2 00032   4        NON    00306   1        START  00321   1
      BLKSIZ 00157   1        EOF    00130   4        LOOPA  00032   4        NUM    00136   4        TEMPF  00116   2
      BLKSZF 00160 A 2        FENCE  00254 A 1        LOOP   00135   4        OCT    00307 A 2        TEMP   00116   1
      BL     00034 A 1        FINALE 00131   4        MAXOFF 00263 A 1        OFFCNT 00310   1        TIME   00322   1
      BOFF   00115 A 1        GO     00132   4        MAXON  00275 A 1        OFF    00311 A 2        WORD   00323   1
0FUNCTION DICTIONARY
      BCDEC  00000   1        BCOCT  00001   1        BFCLOS 00002   1        BFOPEN 00003   1        BFWRIT 00004   1
      BZ57   00005   1        BZEL   00006   1        COMARG 00007   1        DEFBC  00010   1        EXITM  00011   1
      EXIT   00012   1        FERRTN 00013   1        GETBUF 00014   1        GETTM  00015   1        .SETUP 00016   1
      OCLBC  00017   1        OCRBC  00020   1        OPEN   00021   1        PRDIAG 00022   1        PRMESA 00023   1
      PRMESS 00024   1        RDWAIT 00025   1        SETBRK 00026   1        WHOAMI 00027   1        ZEL    00030   1
      NUMBER 00031   1
0ABSOLUTE CONSTANTS
 00373 -206060223145     00403 -307070707070     00334 +000000000062     00332 +000000000017     00406 -377777000001
 00336 +010000000000     00372 -206026465160     00337 +016060606060     00407 -377777000012     00402 -266060606060
 00367 -116060606060     00335 +000000000660     00331 +000000000011     00333 +000000000036     00330 +000000000004
 00347 +242543632133     00375 -206330214560     00366 -112521632551     00400 -223171256027     00344 +224346234260
 00353 +377777777777     00327 +000000000003     00361 -042545633560     00360 -036021512764     00352 +314343252721
 00326 +000000000002     00362 -050440606060     00355 -004503406040     00365 -062626144060     00363 -051461144645
 00376 -211446262646     00354 -001446262614     00374 -206060606060     00404 -312540606060     00357 -034623426231
 00401 -232140604022     00356 -006040242543     00364 -056646512462     00350 +254524406040     00341 +143333331460
 00377 -211463461461     00342 +146330516414     00343 +215163406040     00340 +026060406263     00371 -204501606045
 00324 +000000000000     00351 +272560316235     00346 +236360646221     00370 -202346515125     00405 -343025434734
 00325 +000000000001     00345 +233000000000
0STATEMENT DICTIONARY
 00117 TXL -301562001561       00120 TXL -301621001617       00121 TXL -301617001617       00122 TXL -301617001615
 00123 TXL -301615001615       00124 TXL -301570001562       00125 TXL -301554001542       00126 TXL -301161001156
 00127 TXL -300476000471       00130 TXL -301445001442       00131 TXL -301457001447       00132 TXL -300604000600
 00133 TXL -300423000422       00134 TXL -301447001446       00135 TXL -301442001440       00136 TXL -301517001511
 00137 TXL -301307001304
0PROGRAM
                 N'R                                                                001  LM00017
                 D'N B0(0),B1(0),B2(0),B3(0),BON(50),BOFF(50)                       002  LM00018
                 BOOLEAN STARTF,ENDF,LLF,DELTAF,TEMPF,OFF,ON,NEWON,NEWOFF,OCT       003  LM00019
                 BOOLEAN BLKSZF                                                     004  LM00020
                 V'S STARTF = 0B                                                    005  LM00021
 00410 TSX +0 07400 4 00016    00320     +0 00000 0 00000
                 V'S ENDF = 0B                                                      006  LM00022
 00251     +0 00000 0 00000
                 V'S LLF = 0B                                                       007  LM00023
 00257     +0 00000 0 00000
                 V'S DELTAF = 0B                                                    008  LM00024
 00247     +0 00000 0 00000
                 V'S BLKSZF = 0B                                                    009  LM00025
 00160     +0 00000 0 00000
                 V'S ON = 1B                                                        010  LM00026
 00314     +0 00000 0 00001
                 V'S OFF = 0B                                                       011  LM00027
 00311     +0 00000 0 00000
                 V'S NEWON = 1B                                                     012  LM00028
 00304     +0 00000 0 00001
                 V'S NEWOFF = 1B                                                    013  LM00029
 00303     +0 00000 0 00001
                 V'S OCT = 0B                                                       014  LM00030
 00307     +0 00000 0 00000
                 V'S FENCE = 777777777777K                                          015  LM00031
 00254     -3 77777 7 77777
                 V'S MAXON = 25,19,25,19,19,19,19,19,25,16                          016  LM00032
 00264     +0 00000 0 00020    00265     +0 00000 0 00031    00266     +0 00000 0 00023    00267     +0 00000 0 00023
 00270     +0 00000 0 00023    00271     +0 00000 0 00023    00272     +0 00000 0 00023    00273     +0 00000 0 00031
 00274     +0 00000 0 00023    00275     +0 00000 0 00031
                 V'S BL = 605757575757K                                             017  LM00033
 00034     -2 05757 5 75757
                 V'S CR = 555757575757K                                             018  LM00034
 00245     -1 55757 5 75757
                 E'E (BL,BOFF(49))                                                  019  LM00035
                 E'E (TEMP,TEMPF)                                                   020  LM00036
                 V'S LM = 777777K6                                                  021  LM00037
 00260     -3 77777 0 00000
                 V'S N4 = $   BIN$                                                  022  LM00038
 00302     -2 06060 2 23145
                 V'S RECCNT = 432                                                   023  LM00039
 00316     +0 00000 0 00660
                 V'S MAXOFF = 29                                                    024  LM00040
 00263     +0 00000 0 00035
                 V'S ARGS1 = 3,$    TO$,$  THRU$,$   ...$                           025  LM00041
 00140     -2 06060 3 33333    00141     -2 06063 3 05164    00142     -2 06060 6 06346    00143     +0 00000 0 00003
                 V'S ARGS2 = 6,$     O$,$   OFF$,$ (OFF)$,$ OFFON$,$ONOFF$,         026  LM00042
                1  $     *$                                                         026  LM00043
 00144     -2 06060 6 06054    00145     -0 64546 2 62660    00146     -2 04626 2 64645    00147     -2 07446 2 62634
 00150     -2 06060 4 62626    00151     -2 06060 6 06046    00152     +0 00000 0 00006
                 N1 = COMARG.(1)                                                    027  LM00048
 00411 TSX +0 07400 4 00007    00412 TXH +3 00000 0 00325    00413 STO +0 60100 0 00277
                 W'R N1 .E. FENCE .OR. N1 .E. $(HELP)$                              028  LM00049
 00414 CLA +0 50000 0 00277    00415 SUB +0 40200 0 00405    00416 TZE +0 10000 0 00422    00417 CLA +0 50000 0 00277
 00420 SUB +0 40200 0 00254    00421 TNZ -0 10000 0 00463
      HELP          PRMESS.                                                         029  LM00050
 00422 TSX +0 07400 4 00024
                    PRMESS.($ CORRECT USAGE IS:$)                                   030  LM00051
 00423 TSX +0 07400 4 00024    00424 TXH +3 00000 0 00370    00425 TXH +3 00000 0 00346    00426 TXH +3 00000 0 00351
                    PRMESS.                                                         031  LM00052
 00427 TSX +0 07400 4 00024
                    PRMESA.(COMARG.(0),$ N1  N2  -START- -'THRU'/'TO'/'...' $)      032  LM00053
 00430 TSX +0 07400 4 00007    00431 TXH +3 00000 0 00324    00432 STO +0 60100 0 01677    00433 TSX +0 07400 4 00023
 00434 TXH +3 00000 0 01677    00435 TXH +3 00000 0 00371    00436 TXH +3 00000 0 00340    00437 TXH +3 00000 0 00343
 00440 TXH +3 00000 0 00342    00441 TXH +3 00000 0 00377    00442 TXH +3 00000 0 00341
                    PRMESS.($END- -NWORDS- -DELTA- -BLOCKSIZE-$)                    033  LM00054
 00443 TSX +0 07400 4 00024    00444 TXH +3 00000 0 00350    00445 TXH +3 00000 0 00364    00446 TXH +3 00000 0 00356
 00447 TXH +3 00000 0 00401    00450 TXH +3 00000 0 00357    00451 TXH +3 00000 0 00404
                    PRMESS.($      -'OFF'/'OFFON'/'ONOFF'- -N3- -N4-$)              034  LM00055
 00452 TSX +0 07400 4 00024    00453 TXH +3 00000 0 00374    00454 TXH +3 00000 0 00354    00455 TXH +3 00000 0 00376
 00456 TXH +3 00000 0 00363    00457 TXH +3 00000 0 00365    00460 TXH +3 00000 0 00355    00461 TXH +3 00000 0 00362
                    EXITM.                                                          035  LM00056
 00462 TSX +0 07400 4 00011
                 E'L                                                                036  LM00057
                 W'R COMARG.(2,N2) .E. FENCE                                        037  LM00059
 00463 TSX +0 07400 4 00007    00464 TXH +3 00000 0 00326    00465 TXH +3 00000 0 00300    00466 SUB +0 40200 0 00254
 00467 TNZ -0 10000 0 00477
                   T'O HELP                                                         038  LM00060
 00470 TRA +0 02000 0 00133
      BADFMT       PRMESS.($ILLEGAL ARGUMENT:$,TEMP)                                039  LM00061
 00471 TSX +0 07400 4 00024    00472 TXH +3 00000 0 00352    00473 TXH +3 00000 0 00360    00474 TXH +3 00000 0 00361
 00475 TXH +3 00000 0 00116
                    EXITM.                                                          040  LM00062
 00476 TSX +0 07400 4 00011
                 E'L                                                                041  LM00063
                 J = 3                                                              042  LM00065
 00477 CLA +0 50000 0 00327    00500 STO +0 60100 0 00255
                 NUMBER.(START,STARTF,GO,OCT)                                       043  LM00066
 00501 TSX +0 07400 4 00031    00502 TXH +3 00000 0 00321    00503 TXH +3 00000 0 00320    00504 TXH +3 00000 0 00132
 00505 TXH +3 00000 0 00307
                 W'R COMARG.(J,TEMP) .E. FENCE, T'O GO                              044  LM00067
 00506 TSX +0 07400 4 00007    00507 TXH +3 00000 0 00255    00510 TXH +3 00000 0 00116    00511 SUB +0 40200 0 00254
 00512 TNZ -0 10000 0 00514    00513 TRA +0 02000 0 00132
      LOOPA      T'H LOOPA, FOR K = 1,1,K.G.ARGS1 .OR. TEMP.E.ARGS1(K)              045  LM00068
 00514 CLA +0 50000 0 00325    00515 STO +0 60100 0 00256    00516 TRA +0 02000 0 00522    00517 CLA +0 50000 0 00256
 00520 ADD +0 40000 0 00325    00521 STO +0 60100 0 00256    00522 LXA +0 53400 2 00256    00523 CLA +0 50000 0 00116
 00524 SUB +0 40200 2 00143    00525 TZE +0 10000 0 00533    00526 CLA +0 50000 0 00256    00527 SUB +0 40200 0 00143
 00530 TZE +0 10000 0 00532    00531 TPL +0 12000 0 00533    00532 TRA +0 02000 0 00517
                 W'R K .LE. ARGS1                                                   046  LM00069
 00533 CLA +0 50000 0 00256    00534 SUB +0 40200 0 00143    00535 TZE +0 10000 0 00537    00536 TPL +0 12000 0 00547
                    J = J+1                                                         047  LM00070
 00537 CLA +0 50000 0 00255    00540 ADD +0 40000 0 00325    00541 STO +0 60100 0 00255
                    NUMBER.(END,ENDF,BADFMT,TEMPF)                                  048  LM00071
 00542 TSX +0 07400 4 00031    00543 TXH +3 00000 0 00252    00544 TXH +3 00000 0 00251    00545 TXH +3 00000 0 00127
 00546 TXH +3 00000 0 00116
                 E'L                                                                049  LM00072
                 NUMBER.(NON,LLF,GO,TEMPF)                                          050  LM00073
 00547 TSX +0 07400 4 00031    00550 TXH +3 00000 0 00306    00551 TXH +3 00000 0 00257    00552 TXH +3 00000 0 00132
 00553 TXH +3 00000 0 00116
                 NUMBER.(DELTA,DELTAF,GO,TEMPF)                                     051  LM00074
 00554 TSX +0 07400 4 00031    00555 TXH +3 00000 0 00250    00556 TXH +3 00000 0 00247    00557 TXH +3 00000 0 00132
 00560 TXH +3 00000 0 00116
                 NUMBER.(BLKSIZ,BLKSZF,GO,TEMPF)                                    052  LM00075
 00561 TSX +0 07400 4 00031    00562 TXH +3 00000 0 00157    00563 TXH +3 00000 0 00160    00564 TXH +3 00000 0 00132
 00565 TXH +3 00000 0 00116
                 TEMPF = 0B                                                         053  LM00076
 00566 CLA +0 50000 0 00324    00567 STO +0 60100 0 00116
                 NUMBER.(TEMP,TEMPF,GO,TEMPF)                                       054  LM00077
 00570 TSX +0 07400 4 00031    00571 TXH +3 00000 0 00116    00572 TXH +3 00000 0 00116    00573 TXH +3 00000 0 00132
 00574 TXH +3 00000 0 00116
                 W'R TEMPF, T'O HELP                                                055  LM00078
 00575 NZT -0 52000 0 00116    00576 TRA +0 02000 0 00600    00577 TRA +0 02000 0 00133
      GO         W'R .NOT.STARTF, START = 1                                         056  LM00080
 00600 ZET +0 52000 0 00320    00601 TRA +0 02000 0 00604    00602 CLA +0 50000 0 00325    00603 STO +0 60100 0 00321
                 W'R START .E. 0, START = 1                                         057  LM00081
 00604 CLA +0 50000 0 00321    00605 SUB +0 40200 0 00324    00606 TNZ -0 10000 0 00611    00607 CLA +0 50000 0 00325
 00610 STO +0 60100 0 00321
                 W'R .NOT.ENDF, END = 377777777777K                                 058  LM00082
 00611 ZET +0 52000 0 00251    00612 TRA +0 02000 0 00615    00613 CLA +0 50000 0 00353    00614 STO +0 60100 0 00252
                 W'R .NOT.DELTAF, DELTA = 1                                         059  LM00083
 00615 ZET +0 52000 0 00247    00616 TRA +0 02000 0 00621    00617 CLA +0 50000 0 00325    00620 STO +0 60100 0 00250
                 W'R .NOT.BLKSZF, BLKSIZ = 1                                        060  LM00084
 00621 ZET +0 52000 0 00160    00622 TRA +0 02000 0 00625    00623 CLA +0 50000 0 00325    00624 STO +0 60100 0 00157
                 W'R BLKSIZ .G. DELTA                                               061  LM00086
 00625 CLA +0 50000 0 00157    00626 SUB +0 40200 0 00250    00627 TZE +0 10000 0 00640    00630 TMI -0 12000 0 00640
                   PRMESS.($BLOCK SIZE GREATER THAN DELTA.$)                        062  LM00087
 00631 TSX +0 07400 4 00024    00632 TXH +3 00000 0 00344    00633 TXH +3 00000 0 00400    00634 TXH +3 00000 0 00366
 00635 TXH +3 00000 0 00375    00636 TXH +3 00000 0 00347
                   EXITM.                                                           063  LM00088
 00637 TSX +0 07400 4 00011
                 E'L                                                                064  LM00089
                 WHOAMI.(BOFF(3)...4)                                               065  LM00091
 00640 TSX +0 07400 4 00027    00641 TIX +2 00330 0 00112
                 CONSOL = BOFF.RS.30                                                066  LM00092
 00642 CAL -0 50000 0 00333    00643 STA +0 62100 0 00645    00644 CAL -0 50000 0 00115    00645 LGR -0 76500 0 00000
 00646 SLW +0 60200 0 00244
                 W'R CONSOL .G. 9, CONSOL = 0                                       067  LM00093
 00647 CLA +0 50000 0 00244    00650 SUB +0 40200 0 00331    00651 TZE +0 10000 0 00655    00652 TMI -0 12000 0 00655
 00653 CLA +0 50000 0 00324    00654 STO +0 60100 0 00244
                 GETTM.(DATE,TIME)                                                  068  LM00094
 00655 TSX +0 07400 4 00015    00656 TXH +3 00000 0 00246    00657 TXH +3 00000 0 00322
                 W'R LLF                                                            069  LM00095
 00660 NZT -0 52000 0 00257    00661 TRA +0 02000 0 00665
                    NOFF = NON                                                      070  LM00096
 00662 CLA +0 50000 0 00306    00663 STO +0 60100 0 00305
                 O'E                                                                071  LM00097
 00664 TRA +0 02000 0 00675
                    NON = (MAXON(CONSOL)-1)/3                                       072  LM00098
 00665 LXA +0 53400 1 00244    00666 CLA +0 50000 1 00275    00667 SUB +0 40200 0 00325    00670 LRS +0 76500 0 00043
 00671 DVP +0 22100 0 00327    00672 STQ -0 60000 0 00306
                    NOFF = 9                                                        073  LM00099
 00673 CLA +0 50000 0 00331    00674 STO +0 60100 0 00305
                 E'L                                                                074  LM00100
                 GETBUF.(B0,432)                                                    075  LM00102
 00675 TSX +0 07400 4 00014    00676 TXH +3 00000 0 00153    00677 TXH +3 00000 0 00335
                 FERRTN.(IOERR)                                                     076  LM00103
 00700 TSX +0 07400 4 00013    00701 TXH +3 00000 0 00134
                 SETBRK.(EXITM.)                                                    077  LM00104
 00702 TSX +0 07400 4 00026    00703 TXH +3 00000 0 00011
                 OPEN.($R$,N1,N2)                                                   078  LM00105
 00704 TSX +0 07400 4 00021    00705 TXH +3 00000 0 00367    00706 TXH +3 00000 0 00277    00707 TXH +3 00000 0 00300
                 W'R ON                                                             079  LM00108
 00710 NZT -0 52000 0 00314    00711 TRA +0 02000 0 00725
                    PRMESS.(CR,N1,BL,N2,BL,BL,DATE,BL,TIME,CR)                      080  LM00109
 00712 TSX +0 07400 4 00024    00713 TXH +3 00000 0 00245    00714 TXH +3 00000 0 00277    00715 TXH +3 00000 0 00034
 00716 TXH +3 00000 0 00300    00717 TXH +3 00000 0 00034    00720 TXH +3 00000 0 00034    00721 TXH +3 00000 0 00246
 00722 TXH +3 00000 0 00034    00723 TXH +3 00000 0 00322    00724 TXH +3 00000 0 00245
                 E'L                                                                081  LM00110
                 W'R OFF                                                            082  LM00112
 00725 NZT -0 52000 0 00311    00726 TRA +0 02000 0 01035
                    GETBUF.(B1,432)                                                 083  LM00113
 00727 TSX +0 07400 4 00014    00730 TXH +3 00000 0 00154    00731 TXH +3 00000 0 00335
                    GETBUF.(B2,432)                                                 084  LM00114
 00732 TSX +0 07400 4 00014    00733 TXH +3 00000 0 00155    00734 TXH +3 00000 0 00335
                    GETBUF.(B3,432)                                                 085  LM00115
 00735 TSX +0 07400 4 00014    00736 TXH +3 00000 0 00156    00737 TXH +3 00000 0 00335
                    BFOPEN.($W$,N3,N4,B1(B1+432),B2(B2+432),B3(B3+432),IOERR)       086  LM00116
 00740 CLA +0 50000 0 00156    00741 ADD +0 40000 0 00335    00742 SUB +0 40200 0 00743    00743 TXH +3 00000 0 00156
 00744 STA +0 62100 0 00765    00745 CLA +0 50000 0 00155    00746 ADD +0 40000 0 00335    00747 SUB +0 40200 0 00750
 00750 TXH +3 00000 0 00155    00751 STA +0 62100 0 00764    00752 CLA +0 50000 0 00154    00753 ADD +0 40000 0 00335
 00754 SUB +0 40200 0 00755    00755 TXH +3 00000 0 00154    00756 STA +0 62100 0 00763    00757 TSX +0 07400 4 00003
 00760 TXH +3 00000 0 00402    00761 TXH +3 00000 0 00301    00762 TXH +3 00000 0 00302    00763 TXH +3 00000 0 00000
 00764 TXH +3 00000 0 00000    00765 TXH +3 00000 0 00000    00766 TXH +3 00000 0 00134
                    BOFF(48) = 777777000012K                                        087  LM00118
 00767 CLA +0 50000 0 00407    00770 STO +0 60100 0 00035
                    BOFF(47) = $1$                                                  088  LM00119
 00771 CLA +0 50000 0 00337    00772 STO +0 60100 0 00036
                    BOFF(46) = N1                                                   089  LM00120
 00773 CLA +0 50000 0 00277    00774 STO +0 60100 0 00037
                    BOFF(45) = BL                                                   090  LM00121
 00775 CLA +0 50000 0 00034    00776 STO +0 60100 0 00040
                    BOFF(44) = BZ57.(N2)                                            091  LM00122
 00777 TSX +0 07400 4 00005    01000 TXH +3 00000 0 00300    01001 STO +0 60100 0 00041
                    BOFF(43) = $  FOR$                                              092  LM00123
 01002 CLA +0 50000 0 00372    01003 STO +0 60100 0 00042
                    BOFF(42) = BOFF(3)                                              093  LM00124
 01004 CLA +0 50000 0 00112    01005 STO +0 60100 0 00043
                    BOFF(41) = BZ57.(BOFF(2)) - 1K10                                094  LM00125
 01006 TSX +0 07400 4 00005    01007 TXH +3 00000 0 00113    01010 SUB +0 40200 0 00336    01011 STO +0 60100 0 00044
                    BOFF(40) = $$                                                   095  LM00126
 01012 CLA +0 50000 0 00374    01013 STO +0 60100 0 00045
                    BOFF(39) = DATE                                                 096  LM00127
 01014 CLA +0 50000 0 00246    01015 STO +0 60100 0 00046
                    BOFF(38) = TIME                                                 097  LM00128
 01016 CLA +0 50000 0 00322    01017 STO +0 60100 0 00047
                    BOFF(37) = 777777000001K                                        098  LM00129
 01020 CLA +0 50000 0 00406    01021 STO +0 60100 0 00050
                    BOFF(36) = BL                                                   099  LM00130
 01022 CLA +0 50000 0 00034    01023 STO +0 60100 0 00051
                    BOFF(35) = 777777000001K                                        100  LM00131
 01024 CLA +0 50000 0 00406    01025 STO +0 60100 0 00052
                    BOFF(34) = BL                                                   101  LM00132
 01026 CLA +0 50000 0 00034    01027 STO +0 60100 0 00053
                    BFWRIT.(N3,N4,BOFF(48)...15,IOERR)                              102  LM00134
 01030 TSX +0 07400 4 00004    01031 TXH +3 00000 0 00301    01032 TXH +3 00000 0 00302    01033 TIX +2 00332 0 00035
 01034 TXH +3 00000 0 00134
                 E'L                                                                103  LM00135
                 T'H LOOP, FOR LOC1 = START,DELTA,LOC1.G.END                        104  LM00137
 01035 CLA +0 50000 0 00321    01036 STO +0 60100 0 00261    01037 TRA +0 02000 0 01043    01040 CLA +0 50000 0 00261
 01041 ADD +0 40000 0 00250    01042 STO +0 60100 0 00261    01043 CLA +0 50000 0 00261    01044 SUB +0 40200 0 00252
 01045 TZE +0 10000 0 01047    01046 TPL +0 12000 0 01442
                 W'R BLKSZF                                                         105  LM00138
 01047 NZT -0 52000 0 00160    01050 TRA +0 02000 0 01112
                   W'R ON.AND.ONCNT.G.1                                             106  LM00139
 01051 CLA +0 50000 0 00313    01052 SUB +0 40200 0 00325    01053 TZE +0 10000 0 01065    01054 TMI -0 12000 0 01065
 01055 NZT -0 52000 0 00314    01056 TRA +0 02000 0 01065
                     PRMESS.(BON(1)...ONCNT)                                        107  LM00140
 01057 TSX +0 07400 4 00024    01060 TIX +2 00313 0 00242
                     NEWON=1B                                                       108  LM00141
 01061 CLA +0 50000 0 00325    01062 STO +0 60100 0 00304
                     ONCNT=1                                                        109  LM00142
 01063 CLA +0 50000 0 00325    01064 STO +0 60100 0 00313
                   E'L                                                              110  LM00143
                   W'R OFF.AND.OFFCNT.G.2                                           111  LM00144
 01065 CLA +0 50000 0 00310    01066 SUB +0 40200 0 00326    01067 TZE +0 10000 0 01112    01070 TMI -0 12000 0 01112
 01071 NZT -0 52000 0 00311    01072 TRA +0 02000 0 01112
                     BOFF(50)=OFFCNT.V.LM                                           112  LM00145
 01073 CAL -0 50000 0 00310    01074 ORA -0 50100 0 00260    01075 SLW +0 60200 0 00033
                     MCOUNT=OFFCNT+1                                                113  LM00146
 01076 CLA +0 50000 0 00310    01077 ADD +0 40000 0 00325    01100 STO +0 60100 0 00276
                     BFWRIT.(N3,N4,BOFF(50)...MCOUNT,IOERR)                         114  LM00147
 01101 TSX +0 07400 4 00004    01102 TXH +3 00000 0 00301    01103 TXH +3 00000 0 00302    01104 TIX +2 00276 0 00033
 01105 TXH +3 00000 0 00134
                     NEWOFF=1B                                                      115  LM00148
 01106 CLA +0 50000 0 00325    01107 STO +0 60100 0 00303
                     OFFCNT=2                                                       116  LM00149
 01110 CLA +0 50000 0 00326    01111 STO +0 60100 0 00310
                   E'L                                                              117  LM00150
                 E'L                                                                118  LM00151
                 T'H LOOP, FOR LOC=LOC1,1,LOC.E.LOC1+BLKSIZ                         119  LM00152
 01112 CLA +0 50000 0 00261    01113 STO +0 60100 0 00262    01114 TRA +0 02000 0 01120    01115 CLA +0 50000 0 00262
 01116 ADD +0 40000 0 00325    01117 STO +0 60100 0 00262    01120 CLA +0 50000 0 00261    01121 ADD +0 40000 0 00157
 01122 CHS +0 76000 0 00002    01123 ADD +0 40000 0 00262    01124 TZE +0 10000 0 01441
                 TEMP = (LOC-1)/432 * 432 + 1                                       120  LM00153
 01125 CLA +0 50000 0 00262    01126 SUB +0 40200 0 00325    01127 LRS +0 76500 0 00043    01130 DVP +0 22100 0 00335
 01131 MPY +0 20000 0 00335    01132 XCA +0 13100 0 00000    01133 ADD +0 40000 0 00325    01134 STO +0 60100 0 00116
                 W'R TEMP .NE. RELLOC                                               121  LM00154
 01135 CLA +0 50000 0 00116    01136 SUB +0 40200 0 00317    01137 TZE +0 10000 0 01156
                    RELLOC = TEMP                                                   122  LM00155
 01140 CLA +0 50000 0 00116    01141 STO +0 60100 0 00317
                    RDWAIT.(N1,N2,RELLOC,B0(B0+432)...432,EOF,EOFCT)                123  LM00156
 01142 CLA +0 50000 0 00153    01143 ADD +0 40000 0 00335    01144 SUB +0 40200 0 01145    01145 TXH +3 00000 0 00153
 01146 STA +0 62100 0 01153    01147 TSX +0 07400 4 00025    01150 TXH +3 00000 0 00277    01151 TXH +3 00000 0 00300
 01152 TXH +3 00000 0 00317    01153 TIX +2 00335 0 00000    01154 TXH +3 00000 0 00130    01155 TXH +3 00000 0 00253
                 E'L                                                                124  LM00157
      BACK       TEMP = LOC - RELLOC                                                125  LM00158
 01156 CLA +0 50000 0 00262    01157 SUB +0 40200 0 00317    01160 STO +0 60100 0 00116
                 W'R TEMP .G. RECCNT, T'O FINALE                                    126  LM00159
 01161 CLA +0 50000 0 00116    01162 SUB +0 40200 0 00316    01163 TZE +0 10000 0 01166    01164 TMI -0 12000 0 01166
 01165 TRA +0 02000 0 00131
                 WORD = B0(B0+432-TEMP)                                             127  LM00160
 01166 CLA +0 50000 0 00153    01167 ADD +0 40000 0 00335    01170 SUB +0 40200 0 00116    01171 PAX +0 73400 2 00000
 01172 CLA +0 50000 2 00153    01173 STO +0 60100 0 00323
                 W'R .NOT.ON, T'O OVER1                                             128  LM00163
 01174 ZET +0 52000 0 00314    01175 TRA +0 02000 0 01177    01176 TRA +0 02000 0 00137
                 W'R NEWON                                                          129  LM00164
 01177 NZT -0 52000 0 00304    01200 TRA +0 02000 0 01223
                    W'R .NOT. OCT                                                   130  LM00165
 01201 ZET +0 52000 0 00307    01202 TRA +0 02000 0 01212
                       BON(1) = BZEL.(DEFBC.(LOC))                                  131  LM00166
 01203 TSX +0 07400 4 00010    01204 TXH +3 00000 0 00262    01205 STO +0 60100 0 01677    01206 TSX +0 07400 4 00006
 01207 TXH +3 00000 0 01677    01210 STO +0 60100 0 00242
                    O'E                                                             132  LM00167
 01211 TRA +0 02000 0 01215
                       BON(1) = OCRBC.(LOC)                                         133  LM00168
 01212 TSX +0 07400 4 00020    01213 TXH +3 00000 0 00262    01214 STO +0 60100 0 00242
                    E'L                                                             134  LM00169
                    NEWON = 0B                                                      135  LM00170
 01215 CLA +0 50000 0 00324    01216 STO +0 60100 0 00304
                    ONCNT = 1                                                       136  LM00171
 01217 CLA +0 50000 0 00325    01220 STO +0 60100 0 00313
                    ONWRDS = 0                                                      137  LM00172
 01221 CLA +0 50000 0 00324    01222 STO +0 60100 0 00315
                 E'L                                                                138  LM00173
                 BON(ONCNT+1) = BL                                                  139  LM00175
 01223 CLA +0 50000 0 00313    01224 ADD +0 40000 0 00325    01225 PAX +0 73400 1 00000    01226 CLA +0 50000 0 00034
 01227 STO +0 60100 1 00243
                 BON(ONCNT+2) = OCLBC.(WORD)                                        140  LM00176
 01230 TSX +0 07400 4 00017    01231 TXH +3 00000 0 00323    01232 STO +0 60100 0 01677    01233 CLA +0 50000 0 00313
 01234 ADD +0 40000 0 00326    01235 PAX +0 73400 1 00000    01236 CLA +0 50000 0 01677    01237 STO +0 60100 1 00243
                 BON(ONCNT+3) = OCRBC.(WORD)                                        141  LM00177
 01240 TSX +0 07400 4 00020    01241 TXH +3 00000 0 00323    01242 STO +0 60100 0 01677    01243 CLA +0 50000 0 00313
 01244 ADD +0 40000 0 00327    01245 PAX +0 73400 1 00000    01246 CLA +0 50000 0 01677    01247 STO +0 60100 1 00243
                 ONCNT = ONCNT + 3                                                  142  LM00178
 01250 CLA +0 50000 0 00313    01251 ADD +0 40000 0 00327    01252 STO +0 60100 0 00313
                 ONWRDS = ONWRDS + 1                                                143  LM00179
 01253 CLA +0 50000 0 00315    01254 ADD +0 40000 0 00325    01255 STO +0 60100 0 00315
                 W'R ONWRDS.GE.NON                                                  144  LM00181
 01256 CLA +0 50000 0 00315    01257 SUB +0 40200 0 00306    01260 TZE +0 10000 0 01262    01261 TMI -0 12000 0 01271
                    PRMESS.(BON(1)...ONCNT)                                         145  LM00182
 01262 TSX +0 07400 4 00024    01263 TIX +2 00313 0 00242
                    NEWON = 1B                                                      146  LM00183
 01264 CLA +0 50000 0 00325    01265 STO +0 60100 0 00304
                    ONCNT = 1                                                       147  LM00184
 01266 CLA +0 50000 0 00325    01267 STO +0 60100 0 00313
                 O'R ONCNT .GE. MAXON(CONSOL)                                       148  LM00185
 01270 TRA +0 02000 0 01304    01271 LXA +0 53400 2 00244    01272 CLA +0 50000 0 00313    01273 SUB +0 40200 2 00275
 01274 TZE +0 10000 0 01276    01275 TMI -0 12000 0 01304
                    PRMESS.(BON(1)...ONCNT)                                         149  LM00186
 01276 TSX +0 07400 4 00024    01277 TIX +2 00313 0 00242
                    BON(1) = $$                                                     150  LM00187
 01300 CLA +0 50000 0 00374    01301 STO +0 60100 0 00242
                    ONCNT = 1                                                       151  LM00188
 01302 CLA +0 50000 0 00325    01303 STO +0 60100 0 00313
                 E'L                                                                152  LM00189
      OVER1      W'R .NOT. OFF, T'O LOOP                                            153  LM00191
 01304 ZET +0 52000 0 00311    01305 TRA +0 02000 0 01307    01306 TRA +0 02000 0 00135
                 W'R NEWOFF                                                         154  LM00192
 01307 NZT -0 52000 0 00303    01310 TRA +0 02000 0 01333
                    W'R .NOT. OCT                                                   155  LM00193
 01311 ZET +0 52000 0 00307    01312 TRA +0 02000 0 01322
                      BOFF(48) = BZEL.(DEFBC.(LOC))                                 156  LM00194
 01313 TSX +0 07400 4 00010    01314 TXH +3 00000 0 00262    01315 STO +0 60100 0 01677    01316 TSX +0 07400 4 00006
 01317 TXH +3 00000 0 01677    01320 STO +0 60100 0 00035
                    O'E                                                             157  LM00195
 01321 TRA +0 02000 0 01325
                      BOFF(48) = OCRBC.(LOC)                                        158  LM00196
 01322 TSX +0 07400 4 00020    01323 TXH +3 00000 0 00262    01324 STO +0 60100 0 00035
                    E'L                                                             159  LM00197
                    NEWOFF = 0B                                                     160  LM00198
 01325 CLA +0 50000 0 00324    01326 STO +0 60100 0 00303
                    OFFCNT = 2                                                      161  LM00199
 01327 CLA +0 50000 0 00326    01330 STO +0 60100 0 00310
                    OFFWDS = 0                                                      162  LM00200
 01331 CLA +0 50000 0 00324    01332 STO +0 60100 0 00312
                 E'L                                                                163  LM00201
                 BOFF(50-OFFCNT-1) = BL                                             164  LM00203
 01333 CLA +0 50000 0 00334    01334 SUB +0 40200 0 00310    01335 SUB +0 40200 0 00325    01336 PAX +0 73400 1 00000
 01337 CLA +0 50000 0 00034    01340 STO +0 60100 1 00115
                 BOFF(50-OFFCNT-2) = OCLBC.(WORD)                                   165  LM00204
 01341 TSX +0 07400 4 00017    01342 TXH +3 00000 0 00323    01343 STO +0 60100 0 01677    01344 CLA +0 50000 0 00334
 01345 SUB +0 40200 0 00310    01346 SUB +0 40200 0 00326    01347 PAX +0 73400 1 00000    01350 CLA +0 50000 0 01677
 01351 STO +0 60100 1 00115
                 BOFF(50-OFFCNT-3) = OCRBC.(WORD)                                   166  LM00205
 01352 TSX +0 07400 4 00020    01353 TXH +3 00000 0 00323    01354 STO +0 60100 0 01677    01355 CLA +0 50000 0 00334
 01356 SUB +0 40200 0 00310    01357 SUB +0 40200 0 00327    01360 PAX +0 73400 1 00000    01361 CLA +0 50000 0 01677
 01362 STO +0 60100 1 00115
                 OFFCNT = OFFCNT + 3                                                167  LM00206
 01363 CLA +0 50000 0 00310    01364 ADD +0 40000 0 00327    01365 STO +0 60100 0 00310
                 OFFWDS = OFFWDS + 1                                                168  LM00207
 01366 CLA +0 50000 0 00312    01367 ADD +0 40000 0 00325    01370 STO +0 60100 0 00312
                 W'R OFFWDS .GE. NOFF                                               169  LM00209
 01371 CLA +0 50000 0 00312    01372 SUB +0 40200 0 00305    01373 TZE +0 10000 0 01375    01374 TMI -0 12000 0 01415
                    BOFF(50) = OFFCNT.V.LM                                          170  LM00210
 01375 CAL -0 50000 0 00310    01376 ORA -0 50100 0 00260    01377 SLW +0 60200 0 00033
                    MCOUNT = OFFCNT+1                                               171  LM00211
 01400 CLA +0 50000 0 00310    01401 ADD +0 40000 0 00325    01402 STO +0 60100 0 00276
                    BFWRIT.(N3,N4,BOFF(50)...MCOUNT,IOERR)                          172  LM00212
 01403 TSX +0 07400 4 00004    01404 TXH +3 00000 0 00301    01405 TXH +3 00000 0 00302    01406 TIX +2 00276 0 00033
 01407 TXH +3 00000 0 00134
                    NEWOFF = 1B                                                     173  LM00213
 01410 CLA +0 50000 0 00325    01411 STO +0 60100 0 00303
                    OFFCNT = 2                                                      174  LM00214
 01412 CLA +0 50000 0 00326    01413 STO +0 60100 0 00310
                 O'R OFFCNT .GE. MAXOFF                                             175  LM00215
 01414 TRA +0 02000 0 01440    01415 CLA +0 50000 0 00310    01416 SUB +0 40200 0 00263    01417 TZE +0 10000 0 01421
 01420 TMI -0 12000 0 01440
                    BOFF(50) = OFFCNT.V.LM                                          176  LM00216
 01421 CAL -0 50000 0 00310    01422 ORA -0 50100 0 00260    01423 SLW +0 60200 0 00033
                    MCOUNT = OFFCNT+1                                               177  LM00217
 01424 CLA +0 50000 0 00310    01425 ADD +0 40000 0 00325    01426 STO +0 60100 0 00276
                    BFWRIT.(N3,N4,BOFF(50)...MCOUNT,IOERR)                          178  LM00218
 01427 TSX +0 07400 4 00004    01430 TXH +3 00000 0 00301    01431 TXH +3 00000 0 00302    01432 TIX +2 00276 0 00033
 01433 TXH +3 00000 0 00134
                    OFFCNT = 2                                                      179  LM00219
 01434 CLA +0 50000 0 00326    01435 STO +0 60100 0 00310
                    BOFF(48) = $$                                                   180  LM00220
 01436 CLA +0 50000 0 00374    01437 STO +0 60100 0 00035
                 E'L                                                                181  LM00221
      LOOP       CONTINUE                                                           182  LM00222
 01440 TRA +0 02000 0 01115    01441 TRA +0 02000 0 01040
      EOF        RECCNT = EOFCT - 1                                                 183  LM00225
 01442 CLA +0 50000 0 00253    01443 SUB +0 40200 0 00325    01444 STO +0 60100 0 00316
                 T'O BACK                                                           184  LM00226
 01445 TRA +0 02000 0 00126
      IOERR      PRDIAG.                                                            185  LM00229
 01446 TSX +0 07400 4 00022
      FINALE     W'R ON .AND. ONCNT.G.1, PRMESS.(BON(1)...ONCNT)                    186  LM00232
 01447 CLA +0 50000 0 00313    01450 SUB +0 40200 0 00325    01451 TZE +0 10000 0 01457    01452 TMI -0 12000 0 01457
 01453 NZT -0 52000 0 00314    01454 TRA +0 02000 0 01457    01455 TSX +0 07400 4 00024    01456 TIX +2 00313 0 00242
                 W'R OFF .AND. OFFCNT .G. 2                                         187  LM00233
 01457 CLA +0 50000 0 00310    01460 SUB +0 40200 0 00326    01461 TZE +0 10000 0 01504    01462 TMI -0 12000 0 01504
 01463 NZT -0 52000 0 00311    01464 TRA +0 02000 0 01504
                    BOFF(50) = OFFCNT .V. LM                                        188  LM00234
 01465 CAL -0 50000 0 00310    01466 ORA -0 50100 0 00260    01467 SLW +0 60200 0 00033
                    MCOUNT = -OFFCNT-1                                              189  LM00235
 01470 CLS +0 50200 0 00310    01471 SUB +0 40200 0 00325    01472 STO +0 60100 0 00276
                    BFWRIT.(N3,N4,BOFF(50)...MCOUNT,IOERR)                          190  LM00236
 01473 TSX +0 07400 4 00004    01474 TXH +3 00000 0 00301    01475 TXH +3 00000 0 00302    01476 TIX +2 00276 0 00033
 01477 TXH +3 00000 0 00134
                    BFCLOS.(N3,N4,IOERR)                                            191  LM00237
 01500 TSX +0 07400 4 00002    01501 TXH +3 00000 0 00301    01502 TXH +3 00000 0 00302    01503 TXH +3 00000 0 00134
                 E'L                                                                192  LM00238
                 EXITM.                                                             193  LM00239
 01504 TSX +0 07400 4 00011
                 I'N (A,B,C,D)                                                      194  LM00241
 01505 TRA +0 02000 0 01676
                 STATEMENT LABEL C                                                  195  LM00242
                 BOOLEAN B,D                                                        196  LM00243
                 E'O NUMBER.                                                        197  LM00244
 01506 TRA +0 02000 0 01511    00031 TTR +0 02100 0 01507    01507 SXA +0 63400 2 01651    01510 TSX +0 07400 2 01651
      NUM        W'R COMARG.(J,TEMP).E.FENCE, T'O C                                 198  LM00246
 01511 TSX +0 07400 4 00007    01512 TXH +3 00000 0 00255    01513 TXH +3 00000 0 00116    01514 SUB +0 40200 0 00254
 01515 TNZ -0 10000 0 01517    01516 TRA +0 02000 0 00024
                 J = J+1                                                            199  LM00247
 01517 CLA +0 50000 0 00255    01520 ADD +0 40000 0 00325    01521 STO +0 60100 0 00255
      LOOPA2     T'H LOOPA2, FOR K = ARGS2,-1,K.E.0 .OR. TEMP.E.ARGS2(K)            200  LM00248
 01522 CLA +0 50000 0 00152    01523 STO +0 60100 0 00256    01524 TRA +0 02000 0 01530    01525 CLS +0 50200 0 00325
 01526 ADD +0 40000 0 00256    01527 STO +0 60100 0 00256    01530 LXA +0 53400 2 00256    01531 CLA +0 50000 0 00116
 01532 SUB +0 40200 2 00152    01533 TZE +0 10000 0 01540    01534 CLA +0 50000 0 00256    01535 SUB +0 40200 0 00324
 01536 TZE +0 10000 0 01540    01537 TRA +0 02000 0 01525
                 T'O ARGT(K)                                                        201  LM00249
 01540 LXA +0 53400 2 00256    01541 TRA +0 02000 2 00125
      ARGT(0)    W'R ZEL.(TEMP) .A. $$ .NE. 0, T'O BADFMT                           202  LM00251
 01542 TSX +0 07400 4 00030    01543 TXH +3 00000 0 00116    01544 STO +0 60100 0 01675    01545 CAL -0 50000 0 01675
 01546 ANA -0 32000 0 00374    01547 SLW +0 60200 0 01675    01550 CLA +0 50000 0 01675    01551 SUB +0 40200 0 00324
 01552 TZE +0 10000 0 01554    01553 TRA +0 02000 0 00127
                 A = BCDEC.(TEMP)                                                   203  LM00252
 01554 TSX +0 07400 4 00000    01555 TXH +3 00000 0 00116    01556 STO +0 60100 0 00024
                 B = 1B                                                             204  LM00253
 01557 CLA +0 50000 0 00325    01560 STO +0 60100 0 00024
      ARGT(6)    F'N                                                                205  LM00254
 01561 TRA +0 02000 0 01671
      ARGT(1)    W'R COMARG.(J,TEMP) .E. FENCE, T'O BADFMT                          206  LM00256
 01562 TSX +0 07400 4 00007    01563 TXH +3 00000 0 00255    01564 TXH +3 00000 0 00116    01565 SUB +0 40200 0 00254
 01566 TNZ -0 10000 0 01570    01567 TRA +0 02000 0 00127
                 J = J + 1                                                          207  LM00257
 01570 CLA +0 50000 0 00255    01571 ADD +0 40000 0 00325    01572 STO +0 60100 0 00255
                 W'R ZEL.(TEMP).A.$YYYYYY$ .NE. 0, T'O BADFMT                       208  LM00258
 01573 TSX +0 07400 4 00030    01574 TXH +3 00000 0 00116    01575 STO +0 60100 0 01675    01576 CAL -0 50000 0 01675
 01577 ANA -0 32000 0 00403    01600 SLW +0 60200 0 01675    01601 CLA +0 50000 0 01675    01602 SUB +0 40200 0 00324
 01603 TZE +0 10000 0 01605    01604 TRA +0 02000 0 00127
                 A = BCOCT.(TEMP)                                                   209  LM00259
 01605 TSX +0 07400 4 00001    01606 TXH +3 00000 0 00116    01607 STO +0 60100 0 00024
                 D = 1B                                                             210  LM00260
 01610 CLA +0 50000 0 00325    01611 STO +0 60100 0 00024
                 B = 1B                                                             211  LM00261
 01612 CLA +0 50000 0 00325    01613 STO +0 60100 0 00024
                 F'N                                                                212  LM00262
 01614 TRA +0 02000 0 01671
      ARGT(2)                                                                       213  LM00267
      ARGT(3)    ON = 0B                                                            214  LM00268
 01615 CLA +0 50000 0 00324    01616 STO +0 60100 0 00314
      ARGT(4)                                                                       215  LM00272
      ARGT(5)    OFF = 1B                                                           216  LM00273
 01617 CLA +0 50000 0 00325    01620 STO +0 60100 0 00311
                 W'R COMARG.(J,N3) .E. FENCE                                        217  LM00274
 01621 TSX +0 07400 4 00007    01622 TXH +3 00000 0 00255    01623 TXH +3 00000 0 00301    01624 SUB +0 40200 0 00254
 01625 TNZ -0 10000 0 01631
                    N3 = N1                                                         218  LM00275
 01626 CLA +0 50000 0 00277    01627 STO +0 60100 0 00301
                    T'O C                                                           219  LM00276
 01630 TRA +0 02000 0 00024
                 E'L                                                                220  LM00277
                 J = J+2                                                            221  LM00279
 01631 CLA +0 50000 0 00255    01632 ADD +0 40000 0 00326    01633 STO +0 60100 0 00255
                 W'R COMARG.(J-1,N4) .NE. FENCE, T'O NUM                            222  LM00280
 01634 CLA +0 50000 0 00255    01635 SUB +0 40200 0 00325    01636 STO +0 60100 0 01675    01637 TSX +0 07400 4 00007
 01640 TXH +3 00000 0 01675    01641 TXH +3 00000 0 00302    01642 SUB +0 40200 0 00254    01643 TZE +0 10000 0 01645
 01644 TRA +0 02000 0 00136
                 N4 = $   BIN$                                                      223  LM00281
 01645 CLA +0 50000 0 00373    01646 STO +0 60100 0 00302
                 T'O C                                                              224  LM00282
 01647 TRA +0 02000 0 00024
                 E'N                                                                225  LM00284
 01650 TSX +0 07400 4 00012    01651 TXH +3 00000 0 00000    01652 SXD -0 63400 1 01651    01653 SXA +0 63400 4 01671
 01654 CLA +0 50000 4 00001    01655 STA +0 62100 0 01556    01656 STA +0 62100 0 01607    01657 CLA +0 50000 4 00002
 01660 STA +0 62100 0 01560    01661 STA +0 62100 0 01613    01662 CLA +0 50000 4 00003    01663 STA +0 62100 0 01516
 01664 STA +0 62100 0 01630    01665 STA +0 62100 0 01647    01666 CLA +0 50000 4 00004    01667 STA +0 62100 0 01611
 01670 TRA +0 02000 2 00001    01671 AXT +0 77400 4 00000    01672 LXA +0 53400 2 01651    01673 LXD -0 53400 1 01651
 01674 TRA +0 02000 4 00001
                 E'M                                                                226  LM00286
 01676 TSX +0 07400 4 00012


 PRBSS   BCD 09/18/68 2319.2   10583         00000
1            PRBSS - PRINT BSS FILE SUMMARY.                                                     PAGE 1

                                             7/7/65 - NOEL I. MORRIS

                                     UNLIST
 M                            CALL   MACRO   SUBR,LIST


1            PRBSS - PRINT BSS FILE SUMMARY.                                                     PAGE 2
                           INITIALIZE AND READ BSS FILE.


        TRANSFER VECTOR
      00000  434164626360     LJUST
      00001  222646472545     BFOPEN
      00002  246242255160     DSKER
      00003  512422626260     RDBSS
      00004  222623434662     BFCLOS
      00005  256646512460     EWORD
      00006  252330215160     ECHAR
      00007  664331452560     WLINE
      00010  462321222360     OCABC
      00011  227125436060     BZEL
      00012  462324222360     OCDBC
      00013  462351222360     OCRBC
      00014  514164626360     RJUST

      00015  0760 00 0 00016  START  LMTM                  7 XRS
      00016                          CALL    SETBRK(CHNXIT)    SET BREAK LEVEL
      00016  0074 00 4 00417         TSX     SETBRK,4                                                         .002
      00017  3 00000 0 00356         PAR     CHNXIT                                                           .004

      00020 -0500 00 0 00470         CAL     =HSQZBSS      SET SECONDARY NAME TO 'SQZBSS'
      00021  0602 00 0 00373         SLW     SNAM          INITIALLY

      00022                          CALL    GC            GET FIRST PARAMETER
      00022  0074 00 4 00335         TSX     GC,4                                                             .002
      00023  0602 00 0 77425         SLW     FILNAM        ..

      00024 -0340 00 0 00465         LAS     =H (SQZ)      CHECK FOR SQUEEZED FILE
      00025  0020 00 0 00027         TRA     *+2           ..
      00026  0020 00 0 00106         TRA     SQ            ..

      00027  0560 00 0 00464         LDQ     =H            CHANGE SQZBSS
      00030 -0620 00 0 00373         SLQ     SNAM          TO BSS

      00031  0322 00 0 00374  FERA   ERA     FENCE         CHECK FOR FENCE
      00032  0100 00 0 00345         TZE     ILPAR         INCOMPLETE SET OF PARAMETERS

      00033                          CALL    GC            NEXT PARAMETER
      00033  0074 00 4 00335         TSX     GC,4                                                             .002
      00034  0602 00 0 00376         SLW     ENTRY         ENTRY POINT TO LOOK FOR
      00035  0322 00 0 00374         ERA     FENCE         CHECK FOR NONE
      00036 -0100 00 0 00041         TNZ     *+3           IF NONE, PRINT ALL
      00037 -0625 00 0 00366         STL     FOUND         ..
      00040  0020 00 0 00044         TRA     GMEM          SKIP LJUST

      00041                          CALL    $LJUST(ENTRY) ENTRIES ARE LEFT JUSTIFIED
      00041  0074 00 4 00000         TSX     $LJUST,4                                                         .002
      00042  3 00000 0 00376         PAR     ENTRY                                                            .004
      00043  0601 00 0 00376         STO     ENTRY         ..

                                             GET MEMORY BOUND AND ASSIGN BUFFERS.
1            PRBSS - PRINT BSS FILE SUMMARY.                                                     PAGE 3
                           INITIALIZE AND READ BSS FILE.

      00044                   GMEM   CALL    GETMEM        GET MEMORY BOUND
      00044  0074 00 4 00420         TSX     GETMEM,4                                                         .002

      00045  0361 00 0 00361         ACL     LENGTH        ENTRY/T.V. BUFFER
      00046  0621 00 0 00226         STA     TBL1          ..
      00047  0621 00 0 00262         STA     TBL4+1        ..
      00050  0361 00 0 00451         ACL     =1            ..
      00051  0621 00 0 00257         STA     PENT          ..
      00052  0621 00 0 00153         STA     PTV           ..
      00053  0621 00 0 00232         STA     TBL2          ..
      00054  0621 00 0 00330         STA     TBL3          ..

      00055  0361 00 0 00451         ACL     =1            DISK BUFFERS
      00056  0621 00 0 00067         STA     OPN+4         ..
      00057  0361 00 0 00452         ACL     =432          ..
      00060  0621 00 0 00070         STA     OPN+5         ..
      00061  0361 00 0 00452         ACL     =432          ..

      00062                          CALL    SETMEM        RESET MEMORY BOUND
      00062  0074 00 4 00421         TSX     SETMEM,4                                                         .002

      00063                   OPN    CALL    $BFOPEN(=HR,FILNAM,SNAM,**,**,=-0,$DSKER)
      00063  0074 00 4 00001         TSX     $BFOPEN,4                                                        .002
      00064  3 00000 0 00462         PAR     =HR                                                              .004
      00065  3 00000 0 77425         PAR     FILNAM                                                           .004
      00066  3 00000 0 00373         PAR     SNAM                                                             .004
      00067  3 00000 0 00000         PAR     **                                                               .004
      00070  3 00000 0 00000         PAR     **                                                               .004
      00071  3 00000 0 00460         PAR     =-0                                                              .004
      00072  3 00000 0 00002         PAR     $DSKER                                                           .004

      00073  0520 00 0 00365  NEXCD  ZET     ENDSW         CHECK FOR END OF RUN
      00074  0020 00 0 00116         TRA     END           ..
      00075                          CALL    $RDBSS(EOF)   READ A CARD
      00075  0074 00 4 00003         TSX     $RDBSS,4                                                         .002
      00076  3 00000 0 00112         PAR     EOF                                                              .004

      00077 -0046 00 0 00000         PIA                   FIRST WORD IN AC
      00100 -0320 00 0 00453         ANA     =O37077777    MASK WDCNT AND LOAD ADDRESS
      00101  0734 00 2 00000         PAX     ,2            LOAD ADDRESS IN XR2
      00102 -0734 00 3 00000         PDX     ,3            WDCNT IN XR3

      00103 -0056 00  400000         LNT     400000        CHECK FOR PROGRAM CARD
      00104  0020 00 0 00243         TRA     I.C.          INSTRUCTION CARD
      00105  0020 00 0 00136         TRA     P.C.          PROGRAM CARD


      00106 -0625 00 0 77424  SQ     STL     FILNAM-1      SET SQUEEZ PARAMETER

      00107                          CALL    GC            GET NEXT PARAMETER
      00107  0074 00 4 00335         TSX     GC,4                                                             .002
      00110  0602 00 0 77425         SLW     FILNAM        ..
      00111  0020 00 0 00031         TRA     FERA          GO CHECK PARAMETER
1            PRBSS - PRINT BSS FILE SUMMARY.                                                     PAGE 4
                           END OF FILE SECTION.

      00112 -0625 00 0 00365  EOF    STL     ENDSW         SET EOF SWITCH
      00113  0520 00 0 00363         ZET     PCSW          CHECK FOR PROCESSING PROGRAM CARDS
      00114  0020 00 0 00251         TRA     LASTNT        THIS WILL CATCH PROG. WITH NO INST. CARDS
      00115  0020 00 0 00145         TRA     LASTV         AND PROCESS THE LAST OF THE STUFF


      00116                   END    CALL    $BFCLOS(FILNAM,SNAM,$DSKER)
      00116  0074 00 4 00004         TSX     $BFCLOS,4                                                        .002
      00117  3 00000 0 77425         PAR     FILNAM                                                           .004
      00120  3 00000 0 00373         PAR     SNAM                                                             .004
      00121  3 00000 0 00002         PAR     $DSKER                                                           .004

      00122                          CALL    WRFLX((*,,0)) PRINT A CARRIAGE RETURN
      00122  0074 00 4 00422         TSX     WRFLX,4                                                          .002
      00123  3 00000 0 00123         PAR     *,,0                                                             .004

      00124  0520 00 0 00366         ZET     FOUND         CHECK FOR ENTRY EVER FOUND
      00125  0020 00 0 00357         TRA     CHN           WAS FOUND, EXIT TO CHNCOM

      00126 -0500 00 0 77425         CAL     FILNAM        SET NAME IN ERROR COMMENT
      00127  0602 00 0 00403         SLW     NAME          ..

      00130                          CALL    WRFLX((NONE,,7))  COMMENT THAT ENTRY NOT FOUND
      00130  0074 00 4 00422         TSX     WRFLX,4                                                          .002
      00131  3 00007 0 00375         PAR     NONE,,7                                                          .004

      00132  0520 00 0 00370         ZET     EOVF          CHECK FOR ENTRY TABLE OVERFLOW
      00133                          COMENT  CAUSE,6,(MAY BE DUE TO OVERFLOW IN ENTRY TABLE.)
      00133  0074 00 4 00422         TSX     WRFLX,4                                                          .003
      00134  3 00006 0 00423         PAR     CAUSE,,6                                                         .005
                                                           COMMENT ON POSSIBLE CAUSE.
      00135  0020 00 0 00357         TRA     CHN           AND EXIT TO CHNCOM
1            PRBSS - PRINT BSS FILE SUMMARY.                                                     PAGE 5
                           PROCESS PROGRAM CARDS.

      00136 -0625 00 0 00363  P.C.   STL     PCSW          SET PROGRAM CARD SWITCH
      00137 -0636 00 3 00241         SCD     PWC,3         COMPLEMENT OF WORD COUNT
      00140 -0774 00 4 00000         AXC     0,4           INITIALIZE CARD WORD INDEX

      00141 -0520 00 0 00362         NZT     ICSW          CHECK FOR FIRST PROGRAM CARD
      00142  0020 00 0 00222         TRA     ECHK-2        NOT FIRST, SKIP THIS SECT.
      00143  0600 00 0 00362         STZ     ICSW          RESET INSTRUCTION CARD SWITCH

      00144  0520 00 0 00364         ZET     SUBSQ         CHECK FOR FIRST TIME THROUGH
      00145 -0520 00 0 00366  LASTV  NZT     FOUND         HAS ENTRY BEEN FOUND
      00146  0020 00 0 00164         TRA     PSKP          NO, SKIP PRINT

      00147  0774 00 2 00001         AXT     1,2           XR2 IS T.V. ENTRY POINTER

      00150  0774 00 3 00014  PTVCK1 AXT     12,3          12 ENTRIES PER LINE
      00151  3 00000 2 00164         TXH     PSKP,2,**     DON'T PRINT NULL LINE

      00152  3 00000 2 00163  PTVCHK TXH     TVFIN,2,**    CHECK FOR ALL T.V. ENTRIES
      00153  0560 00 2 00000  PTV    LDQ     **,2          GET ENTRY
      00154                          CALL    $EWORD        GIVE TO PRINT ASSEMBLER
      00154  0074 00 4 00005         TSX     $EWORD,4                                                         .002

      00155  0560 00 0 00464         LDQ     =H            FOLLOW BY 1 BALNK
      00156                          CALL    $ECHAR        ..
      00156  0074 00 4 00006         TSX     $ECHAR,4                                                         .002

      00157  1 00001 2 00160         TXI     *+1,2,1       NEXT T.V. ENTRY
      00160  2 00001 3 00152         TIX     PTVCHK,3,1    NEXT

      00161                          CALL    $WLINE        PRINT OUT ASSEMBLED LINE
      00161  0074 00 4 00007         TSX     $WLINE,4                                                         .002
      00162  0020 00 0 00150         TRA     PTVCK1        AND START NEXT ONE

      00163                   TVFIN  CALL    $WLINE        PRINT LAST LINE
      00163  0074 00 4 00007         TSX     $WLINE,4                                                         .002

      00164  0520 00 0 00365  PSKP   ZET     ENDSW         CHECK FOR END OF FILE ENCOUNTERED
      00165  0020 00 0 00116         TRA     END           GOOD-BYE

      00166 -0625 00 0 00364         STL     SUBSQ         SET SUBSEQUENT INDIC.

      00167 -0534 00 4 77430         LXD     CARD+2,4      GET T.V. LENGTH IN XR4
      00170 -3 00617 4 00173         TXL     *+3,4,LTH-1   CHECK FOR TOO BIG FOR T.V. TABLE
      00171 -0625 00 0 00371         STL     TVOV          SET T.V. OVERFLOW INDIC.
      00172  0774 00 4 00617         AXT     LTH-1,4       FORCE LENGTH TO 199
      00173 -0634 00 4 00152         SXD     PTVCHK,4      STORE FOR T.V. CHECKING
      00174 -0634 00 4 00151         SXD     PTVCK1+1,4    ..
      00175 -0634 00 4 00326         SXD     ITVCHK,4      ..

      00176                          CALL    $OCABC(CARD+2)    CONVERT LENGTH
      00176  0074 00 4 00010         TSX     $OCABC,4                                                         .002
      00177  3 00000 0 77430         PAR     CARD+2                                                           .004
      00200  0601 00 0 00407         STO     COMENT+2      STORE INTO COMMENT
      00201                          CALL    $BZEL(COMENT+2)   BLANK LEADING ZEROS
      00201  0074 00 4 00011         TSX     $BZEL,4                                                          .002
1            PRBSS - PRINT BSS FILE SUMMARY.                                                     PAGE 6
                           PROCESS PROGRAM CARDS.

      00202  3 00000 0 00407         PAR     COMENT+2                                                         .004
      00203  0601 00 0 00407         STO     COMENT+2      ..

      00204                          CALL    $OCDBC(CARD+2)    ALSO T.V. SIZE
      00204  0074 00 4 00012         TSX     $OCDBC,4                                                         .002
      00205  3 00000 0 77430         PAR     CARD+2                                                           .004
      00206  0601 00 0 00415         STO     COMENT+8      ..
      00207                          CALL    $BZEL(COMENT+8)   ..
      00207  0074 00 4 00011         TSX     $BZEL,4                                                          .002
      00210  3 00000 0 00415         PAR     COMENT+8                                                         .004
      00211  0601 00 0 00415         STO     COMENT+8      ..

      00212                          CALL    $OCABC(CARD+3)    AND LOWEST COMMON
      00212  0074 00 4 00010         TSX     $OCABC,4                                                         .002
      00213  3 00000 0 77431         PAR     CARD+3                                                           .004
      00214  0601 00 0 00412         STO     COMENT+5      ..
      00215                          CALL    $BZEL(COMENT+5)   ..
      00215  0074 00 4 00011         TSX     $BZEL,4                                                          .002
      00216  3 00000 0 00412         PAR     COMENT+5                                                         .004
      00217  0601 00 0 00412         STO     COMENT+5      ..

      00220  0774 00 1 00000         AXT     0,1           ENTRY TABLE POINTER
      00221 -0774 00 4 00002         AXC     2,4           SKIP FIRST 2 WORDS ON FIRST P.C.

      00222  0520 00 0 00367         ZET     EOV           CHECK FOR PREVIOUS OVERFLOW
      00223  0020 00 0 00073         TRA     NEXCD         ..

      00224  3 00617 1 00350  ECHK   TXH     EFULL,1,LTH-1 CHECK FOR FULL TABLE

      00225 -0500 00 4 77431         CAL     CARD+3,4      GET NUMERIC ENTRY
      00226  0602 00 1 00000  TBL1   SLW     **,1          ..

      00227 -0500 00 4 77430         CAL     CARD+2,4      AND BCD NAME
      00230 -0100 00 0 00232         TNZ     *+2           IF ZERO,
      00231 -0500 00 0 00472         CAL     =H(MAIN)      SET TO '(MAIN)'
      00232  0602 00 1 00000  TBL2   SLW     **,1          ..

      00233  0322 00 0 00376         ERA     ENTRY         IS THIS ENTRY
      00234 -0100 00 0 00236         TNZ     *+2           ..
      00235 -0625 00 0 00366         STL     FOUND         SET INDIC. IF ENTRY FOUND

      00236 -0634 00 1 00307         SXD     ECOUNT,1      SAVE ENTRY COUNTER
      00237  1 00002 1 00240         TXI     *+1,1,2       STEP ENTRY TABLE POINTER
      00240  1 77776 4 00241         TXI     *+1,4,-2      AND CARD POINTER
      00241  3 00000 4 00224  PWC    TXH     ECHK,4,**     AND GET NEXT PAIR
      00242  0020 00 0 00073         TRA     NEXCD         GO READ NEXT CARD
1            PRBSS - PRINT BSS FILE SUMMARY.                                                     PAGE 7
                           PROCESS INSTRUCTION CARDS.

      00243 -0625 00 0 00362  I.C.   STL     ICSW          SET INSTRUCTION CARD SWITCH
      00244 -0636 00 3 00333         SCD     IWC,3         COMPLEMENT OF WORD COUNT
      00245  1 00001 2 00246         TXI     *+1,2,1

      00246 -0520 00 0 00363         NZT     PCSW          CHECK FOR FIRST INSTRUCTION CARD
      00247  0020 00 0 00323         TRA     ISKP          SKIP PRINT AFTER FIRST
      00250  0600 00 0 00363         STZ     PCSW          RESET PROGRAM CARD SWITCH

      00251 -0520 00 0 00366  LASTNT NZT     FOUND         HAS ENTRY BEEN FOUND
      00252  0020 00 0 00073         TRA     NEXCD         NO,SKIP PRINT

      00253                          CALL    WRFLX((*,,0)) SKIP A LINE
      00253  0074 00 4 00422         TSX     WRFLX,4                                                          .002
      00254  3 00000 0 00254         PAR     *,,0                                                             .004

      00255  0774 00 5 00000         AXT     0,5           XR5 IS ENTRY TABLE POINTER
      00256  0774 00 3 00006         AXT     6,3           6 ENTRIES PER LINE

      00257  0560 00 5 00000  PENT   LDQ     **,5          GET NAME
      00260                          CALL    $EWORD        SEND TO PRINT ROUTINE
      00260  0074 00 4 00005         TSX     $EWORD,4                                                         .002

      00261                   TBL4   CALL    $OCRBC((**,5))    CONVERT ENTRY TO OCTAL BCD
      00261  0074 00 4 00013         TSX     $OCRBC,4                                                         .002
      00262  0761 00 5 00000         EFA     **,5                                                             .004
      00263  0560 00 0 00464         LDQ     =H            BLANKS IN MQ
      00264 -0765 00 0 00006         LGR     6             DO AN LJUST
      00265 -0100 00 0 00264         TNZ     *-1           ..

      00266  0500 60 0 00262         CLA*    TBL4+1        GET ENTRY POINT
      00267  0120 00 0 00272         TPL     *+3           CHECK FOR NEG. ENTRY POINT

      00270 -0500 00 0 00463         CAL     =H     -      GET MINUS SIGN
      00271 -0765 00 0 00006         LGR     6             AND SIFT IN
      00272 -0600 00 0 00372         STQ     TEMP          ..

      00273                          CALL    $RJUST(TEMP)  NOW RIGHT ADJUST
      00273  0074 00 4 00014         TSX     $RJUST,4                                                         .002
      00274  3 00000 0 00372         PAR     TEMP                                                             .004
      00275  0601 00 0 00372         STO     TEMP          ..

      00276                          CALL    $BZEL(TEMP)   BLANK LEADING ZEROS
      00276  0074 00 4 00011         TSX     $BZEL,4                                                          .002
      00277  3 00000 0 00372         PAR     TEMP                                                             .004
      00300  0131 00 0 00000         XCA                   ..
      00301                          CALL    $EWORD        AND ENTER THAT ALSO
      00301  0074 00 4 00005         TSX     $EWORD,4                                                         .002

      00302  0560 00 0 00457         LDQ     =H.           AND DECIMAL POINT AND BLANK
      00303                          CALL    $ECHAR        ..
      00303  0074 00 4 00006         TSX     $ECHAR,4                                                         .002
      00304 -0773 00 0 00006         RQL     6             ..
      00305                          CALL    $ECHAR        ..
      00305  0074 00 4 00006         TSX     $ECHAR,4                                                         .002
1            PRBSS - PRINT BSS FILE SUMMARY.                                                     PAGE 8
                           PROCESS INSTRUCTION CARDS.

      00306  1 00002 5 00307         TXI     *+1,5,2       NEXT ENTRY
      00307  3 00000 5 00313  ECOUNT TXH     EFIN,5,**     CHECK FOR ALL ENTRIES PRINTED
      00310  2 00001 3 00257         TIX     PENT,3,1      ..

      00311                          CALL    $WLINE        PRINT OUT COMPLETED LINE
      00311  0074 00 4 00007         TSX     $WLINE,4                                                         .002
      00312  0020 00 0 00256         TRA     PENT-1        NEXT LINE

      00313                   EFIN   CALL    $WLINE        PRINT OUT LAST LINE
      00313  0074 00 4 00007         TSX     $WLINE,4                                                         .002

      00314                          CALL    WRFLX((COMENT,,10))   AND COMMENT
      00314  0074 00 4 00422         TSX     WRFLX,4                                                          .002
      00315  3 00012 0 00405         PAR     COMENT,,10                                                       .004

      00316  0520 00 0 00371         ZET     TVOV          CHECK FOR T.V. TABLE OVERFLOW
      00317                          COMENT  TVF,4,(T.V. TABLE IS FULL.)
      00317  0074 00 4 00422         TSX     WRFLX,4                                                          .003
      00320  3 00004 0 00431         PAR     TVF,,4                                                           .005
                                                           COMMENT ON T.V. TABLE OVERFLOW
      00321  0600 00 0 00371         STZ     TVOV          RESET T.V. OVERFLOW INDIC.
      00322  0600 00 0 00367         STZ     EOV           AND ENTRY TABLE OVERFLOW INDIC.

      00323 -0520 00 0 00366  ISKP   NZT     FOUND         SKIP NEXT SECTION IF NOT FOUND
      00324  0020 00 0 00073         TRA     NEXCD         ..

      00325  0774 00 4 00000         AXT     0,4           CARD POINTER
      00326  3 00000 2 00073  ITVCHK TXH     NEXCD,2,**    CHECK FOR LOAD ADDRESS .G. T.V. LTH

      00327 -0500 00 4 77432         CAL     CARD+4,4      GET T.V. ENTRY
      00330  0602 00 2 00000  TBL3   SLW     **,2          STORE IN TABLE
      00331  1 00001 2 00332         TXI     *+1,2,1       STEP ADDRESS
      00332  1 77777 4 00333         TXI     *+1,4,-1      AND CARD POINTER
      00333  3 00000 4 00326  IWC    TXH     ITVCHK,4,**   CHECK FOR WORD COUNT EXCEEDED
      00334  0020 00 0 00073         TRA     NEXCD         AND READ NEXT CARD IF SO
1            PRBSS - PRINT BSS FILE SUMMARY.                                                     PAGE 9
                           MISCELLANEOUS ROUTINES.

      00335  0634 00 4 00343  GC     SXA     GCX4,4        GETCOM CALLING ROUTINE
      00336  0534 00 4 00342         LXA     .GX,4         GET PARAMETER COUNT
      00337  1 00001 4 00340         TXI     *+1,4,1       INCREMENT
      00340  0634 00 4 00342         SXA     .GX,4         AND RESTORE

      00341                          CALL    GETCOM        NOW GO TO GETCOM
      00341  0074 00 4 00435         TSX     GETCOM,4                                                         .002
      00342  0 00000 0 00000  .GX    PZE     0             PARAMETER NUMBER

      00343  0774 00 4 00000  GCX4   AXT     **,4          RESTORE XR4
      00344  0020 00 4 00001         TRA     1,4           RETURN WITH PARAMETER IN LAC

      00345                   ILPAR  COMENT  ICSET,5,(INCOMPLETE SET OF PARAMETERS.)
      00345  0074 00 4 00422         TSX     WRFLX,4                                                          .003
      00346  3 00005 0 00436         PAR     ICSET,,5                                                         .005

      00347  0020 00 0 00356         TRA     CHNXIT        EXIT TO CHNCOM

      00350  0520 00 0 00366  EFULL  ZET     FOUND         CHECK FOR ENTRY FOUND
      00351                          COMENT  ETF,4,(ENTRY TABLE OVERFLOW.)
      00351  0074 00 4 00422         TSX     WRFLX,4                                                          .003
      00352  3 00004 0 00443         PAR     ETF,,4                                                           .005

      00353 -0625 00 0 00367         STL     EOV           SET OVERFLOW INDICS.
      00354 -0625 00 0 00370         STL     EOVF          ..
      00355  0020 00 0 00073         TRA     NEXCD         AND GO TO NEXT CARD

      00356                   CHNXIT CALL    RESETF        RESET ACTIVE FILES (IF ANY)
      00356  0074 00 4 00447         TSX     RESETF,4                                                         .002

      00357                   CHN    CALL    CHNCOM(0)     AND EXIT TO CHNCOM
      00357  0074 00 4 00450         TSX     CHNCOM,4                                                         .002
      00360  3 00000 0 00000         PAR     0                                                                .004

1            PRBSS - PRINT BSS FILE SUMMARY.                                                     PAGE 10
                           STORAGE AND CONSTANTS.

                       00620  LTH    EQU     400
      00361  0 00000 0 00617  LENGTH PZE     LTH-1

      00362  0 00000 0 00362  ICSW   PZE     *             NON-ZERO FOR INSTRUCTION
      00363  0 00000 0 00000  PCSW   PZE                   NON-ZERO FRO PROGRAM CARD
      00364  0 00000 0 00000  SUBSQ  PZE                   ZERO FIRST TIME THROUGH
      00365  0 00000 0 00000  ENDSW  PZE                   GOES NON-ZERO AFTER EOF ENCOUNTERED
      00366  0 00000 0 00000  FOUND  PZE                   NON-ZERO WHEN ENTRY FOUND
      00367  0 00000 0 00000  EOV    PZE                   NON-ZERO IF ENTRY TABLE FULL
      00370  0 00000 0 00000  EOVF   PZE                   NON-ZERO IF ENTRY TABLE OVERFLOWED
      00371  0 00000 0 00000  TVOV   PZE                   NON-ZERO IF T.V. TABLE FULL
      00372  0 00000 0 00000  TEMP   PZE                   TEMPORARY STORAGE LOC'N
      00373  0 00000 0 00000  SNAM   PZE                   SECOND NAME FOR FILE

      00374 -377777777777     FENCE  OCT     777777777777
      00375  254563517060     NONE   BCI     1,ENTRY
      00376  0 00000 0 00000  ENTRY  PZE
      00377  604546636026            BCI     3, NOT FOUND IN LIBE
      00400  466445246031
      00401  456043312225
      00402  605757575757            VFD     O36/605757575757
      00403  0 00000 0 00000  NAME   PZE
      00404  606060226262            BCI     1,   BSS

      00405  432545276330     COMENT VFD     H36/LENGTH,O6/60,H6/=,O24/57575757,36/0,O12/7360,
      00406  601357575757
      00407  000000000000
      00410  736023464444            ETC     H36/COMMON,O6/60,H6/=,O12/5757,36/0,O12/7360,H24/T.V.,
      00411  464560135757
      00412  000000000000
      00413  736063336533
      00414  601357575757            ETC     O6/60,H6/=,O24/57575757,36/0,H6/.,O30/5757575757
      00415  000000000000
      00416  335757575757

                       77426         COMMON  27
                       77426  CARD   COMMON  1
                       77425  FILNAM COMMON  2

      00417                          RMT     *             REMOTE SEQUENCES.
      00417  0101 00 0 00466  SETBRK TIA     =HSETBRK                                                         .002
      00420  0101 00 0 00456  GETMEM TIA     =HGETMEM                                                         .002
      00421  0101 00 0 00467  SETMEM TIA     =HSETMEM                                                         .002
      00422  0101 00 0 00471  WRFLX  TIA     =HWRFLX                                                          .002
      00423  442170602225     CAUSE  BCI     6,MAY BE DUE TO OVERFLOW IN ENTRY TABLE.                         .002
      00424  602464256063
      00425  466046652551
      00426  264346666031
      00427  456025456351
      00430  706063212243
      00431  633365336063     TVF    BCI     4,T.V. TABLE IS FULL.                                            .002
      00432  212243256031
      00433  626026644343
      00434  336060606060
      00435  0101 00 0 00455  GETCOM TIA     =HGETCOM                                                         .002
1            PRBSS - PRINT BSS FILE SUMMARY.                                                     PAGE 11
                           STORAGE AND CONSTANTS.

      00436  314523464447     ICSET  BCI     5,INCOMPLETE SET OF PARAMETERS.                                  .002
      00437  432563256062
      00440  256360462660
      00441  472151214425
      00442  632551623360
      00443  254563517060     ETF    BCI     4,ENTRY TABLE OVERFLOW.                                          .002
      00444  632122432560
      00445  466525512643
      00446  466633606060
      00447  0101 00 0 00461  RESETF TIA     =HRESETF                                                         .002
      00450  0101 00 0 00454  CHNCOM TIA     =HCHNCOM                                                         .002

                                     END

        LITERALS
      00451  000000000001
      00452  000000000660
      00453  000037077777
      00454  233045234644
      00455  272563234644
      00456  272563442544
      00457  336060606060
      00460  400000000000
      00461  512562256326
      00462  516060606060
      00463  606060606040
      00464  606060606060
      00465  607462507134
      00466  622563225142
      00467  622563442544
      00470  625071226262
      00471  665126436760
      00472  744421314534
1            PRBSS - PRINT BSS FILE SUMMARY.                                                     PAGE 1
                        POST PROCESSOR ASSEMBLY DATA

       77423 IS THE LAST LOCATION NOT USED BY THIS PROGRAM
        473 IS THE FIRST LOCATION NOT USED BY THIS PROGRAM

0REFERENCES TO DEFINED SYMBOLS
        335     GC    22,   33,  107
        106     SQ    26
        357    CHN   125,  135
        116    END    74,  165
        112    EOF    76
        367    EOV   222,  322,  353
        443    ETF   352
        333    IWC   244
        342    .GX   336,  340
        620    LTH   170,  172,  224,  361
         63    OPN    56,   60
        153    PTV    52
        241    PWC   137
        431    TVF   320
         11   BZEL   201,  207,  215,  276
      77426   CARD   167,  177,  205,  213,  225,  227,  327,  417
        224   ECHK   142,  241
        313   EFIN   307
        370   EOVF   132,  354
         31   FERA   111
        343   GCX4   335
         44   GMEM    40
        362   ICSW   141,  143,  243
        243   I.C.   104
        323   ISKP   247
        403   NAME   127
        375   NONE   131
        363   PCSW   113,  136,  246,  250
        257   PENT    51,  310,  312
        136   P.C.   105
        164   PSKP   146,  151
        373   SNAM    21,   30,   66,  120
        226   TBL1    46
        232   TBL2    53
        330   TBL3    54
        261   TBL4    47,  266
        372   TEMP   272,  274,  275,  277
        371   TVOV   171,  316,  321
        423  CAUSE   134
          2  DSKER    72,  121
          6  ECHAR   156,  303,  305
        350  EFULL   224
        365  ENDSW    73,  112,  164
        376  ENTRY    34,   42,   43,  233
          5  EWORD   154,  260,  301
        374  FENCE    31,   35
        366  FOUND    37,  124,  145,  235,  251,  323,  350
        436  ICSET   346
        345  ILPAR    32
        145  LASTV   115
1            PRBSS - PRINT BSS FILE SUMMARY.                                                     PAGE 2
                        POST PROCESSOR ASSEMBLY DATA

          0  LJUST    41
         73  NEXCD   223,  242,  252,  324,  326,  334,  355
         10  OCABC   176,  212
         12  OCDBC   204
         13  OCRBC   261
          3  RDBSS    75
         14  RJUST   273
         15  START
        364  SUBSQ   144,  166
        163  TVFIN   152
          7  WLINE   161,  163,  311,  313
        422  WRFLX   122,  130,  133,  253,  314,  317,  345,  351
          4 BFCLOS   116
          1 BFOPEN    63
        450 CHNCOM   357
        356 CHNXIT    17,  347
        405 COMENT   200,  202,  203,  206,  210,  211,  214,  216,  217,  315
        307 ECOUNT   236
      77425 FILNAM    23,   65,  106,  110,  117,  126,  417
        435 GETCOM   341
        420 GETMEM    44
        326 ITVCHK   175,  333
        251 LASTNT   114
        361 LENGTH    45
        152 PTVCHK   160,  173
        150 PTVCK1   162,  174
        447 RESETF   356
        417 SETBRK    16
        421 SETMEM    62

0 NO ERROR IN ABOVE ASSEMBLY.
1            RDBSS - BSS FILE READING ROUTINE.                                                   PAGE 1

                                             NOEL I. MORRIS - 6/21/65

                                     UNLIST
 M                            CALL   MACRO   SUBR,LIST


                       00003         ENTRY   RDBSS


        TRANSFER VECTOR
      00000  222651252124     BFREAD
      00001  246242255160     DSKER
      00002  462321222360     OCABC

      00003  0634 00 4 00073  RDBSS  SXA     XR4,4         SAVE XRS

      00004  0520 00 0 77424  WZERO  ZET     FILN-1        CHECK FOR SQZBSS FILE
      00005  0020 00 0 00017         TRA     SQZ           ..

      00006                          CALL    $BFREAD(FILN,BSS(BUFF,,28)EOF,EOFCT,$DSKER)
      00006  0074 00 4 00000         TSX     $BFREAD,4                                                        .002
      00007  3 00000 0 77425         PAR     FILN                                                             .004
      00010  3 00000 0 00114         PAR     BSS                                                              .004
      00011  3 00034 0 77426         PAR     BUFF,,28                                                         .004
      00012  3 00000 0 00111         PAR     EOF                                                              .004
      00013  3 00000 0 00113         PAR     EOFCT                                                            .004
      00014  3 00000 0 00001         PAR     $DSKER                                                           .004
      00015  0441 00 0 77426         LDI     BUFF          GET FIRST WORD IN SI
      00016  0020 00 0 00050         TRA     CHECK         GO CHECK CHECKSUM

      00017  0774 00 4 00034  SQZ    AXT     28,4          ZERO OUT THE READ BUFFER
      00020  0600 00 4 77462         STZ     BUFF+28,4     ..
      00021  2 00001 4 00020         TIX     *-1,4,1       ..

      00022                          CALL    $BFREAD(FILN,=HSQZBSS(BUFF,,1)EOF,EOFCT,$DSKER)
      00022  0074 00 4 00000         TSX     $BFREAD,4                                                        .002
      00023  3 00000 0 77425         PAR     FILN                                                             .004
      00024  3 00000 0 00134         PAR     =HSQZBSS                                                         .004
      00025  3 00001 0 77426         PAR     BUFF,,1                                                          .004
      00026  3 00000 0 00111         PAR     EOF                                                              .004
      00027  3 00000 0 00113         PAR     EOFCT                                                            .004
      00030  3 00000 0 00001         PAR     $DSKER                                                           .004

      00031  0441 00 0 77426         LDI     BUFF          GET FIRST WORD IN SI
      00032 -0046 00 0 00000         PIA                   IN AC
      00033 -0320 00 0 00130         ANA     =O77000000    MASK WORDCOUNT
      00034 -0734 00 4 00000         PDX     ,4            WORDCOUNT IN XR4
      00035 -0056 00  200000         LNT     200000        CHECK FOR REL. BIN CARD
      00036  1 00001 4 00040         TXI     *+2,4,1       MUST BE A PROGRAM CARD
      00037  1 00003 4 00040         TXI     *+1,4,3       RELOCATABLE INSTRUCTION CARD
      00040 -0634 00 4 00044         SXD     VRR+3,4       STORE FOR READING REST OF CARD

      00041                   VRR    CALL    $BFREAD(FILN,=HSQZBSS(BUFF+1,,**)EOF,EOFCT,$DSKER)
      00041  0074 00 4 00000         TSX     $BFREAD,4                                                        .002
      00042  3 00000 0 77425         PAR     FILN                                                             .004
      00043  3 00000 0 00134         PAR     =HSQZBSS                                                         .004
1            RDBSS - BSS FILE READING ROUTINE.                                                   PAGE 2

      00044  3 00000 0 77427         PAR     BUFF+1,,**                                                       .004
      00045  3 00000 0 00111         PAR     EOF                                                              .004
      00046  3 00000 0 00113         PAR     EOFCT                                                            .004
      00047  3 00000 0 00001         PAR     $DSKER                                                           .004

      00050 -0046 00 0 00000  CHECK  PIA                   FIRST WORD IN AC
      00051 -0320 00 0 00130         ANA     =O77000000    MASK THE WORD COUNT
      00052 -0734 00 4 00000         PDX     ,4            WORD COUNT IN XR4
      00053 -3 00000 4 00004         TXL     WZERO,4,0     TRY AGAIN IF WORD COUNT ZERO

      00054 -0056 00  400000         LNT     400000        CHECK FOR PROGRAM CARD
      00055  0020 00 0 00062         TRA     *+5           ..
      00056 -0500 00 0 77432         CAL     BUFF+4        GET ENTRY NAME
      00057 -0100 00 0 00061         TNZ     *+2           CHECK FOR MAIN PROGRAM
      00060 -0500 00 0 00136         CAL     =H(MAIN)      SET ENTRY TO '(MAIN)'
      00061  0602 00 0 00121         SLW     PGN           ..

      00062 -0056 00  100000         LNT     100000        CHECK FOR IGNORE CHECKSUM PUNCH
      00063 -0520 00 0 77427         NZT     BUFF+1        ALSO BLANK CHECKSUM
      00064  0020 00 0 00073         TRA     IGCHK

      00065  0774 00 4 00026         AXT     22,4          ADD UP CHECKSUM
      00066 -0500 00 0 77426         CAL     BUFF          ..
      00067  0361 00 4 77456         ACL     BUFF+24,4     ..
      00070  2 00001 4 00067         TIX     *-1,4,1       ..
      00071  0322 00 0 77427         ERA     BUFF+1        XOR IN THE CHECKSUM TO COMPARE
      00072 -0100 00 0 00075         TNZ     CHKERR        NON-ZERO ON ERROR

                       00073  IGCHK  SYN     *

      00073  0774 00 4 00000  XR4    AXT     **,4          RESTORE XRS
      00074  0020 00 4 00002         TRA     2,4           RETURN

      00075 -0054 00  400000  CHKERR LFT     400000        CHECK FOR PROG. CARD
      00076  0020 00 0 00106         TRA     P.C.          ..

      00077                          CALL    $OCABC(BUFF)  CONVERT LOAD ADDRESS TO OCTAL BCD
      00077  0074 00 4 00002         TSX     $OCABC,4                                                         .002
      00100  3 00000 0 77426         PAR     BUFF                                                             .004
      00101  0560 00 0 00133         LDQ     =H            BLANK OUT SECOND WORD

      00102 -0603 00 0 00125  DST    DST     MSG+8         STORE INTO MESSAGE
      00103                          CALL    WRFLX((MSG,,10))  PRINT ERROR MESSAGE
      00103  0074 00 4 00127         TSX     WRFLX,4                                                          .002
      00104  3 00012 0 00115         PAR     MSG,,10                                                          .004
      00105  0020 00 0 00073         TRA     IGCHK         KEEP GOING

      00106  0500 00 0 00132  P.C.   CLA     =HPROGRA      SET LOAD ADDRESS TO
      00107  0560 00 0 00131         LDQ     =HM CARD      'PROGRAM CARD'
      00110  0020 00 0 00102         TRA     DST           ..

                       00111  EOF    SYN     *
      00111  0522 00 0 00073         XEC     XR4           AND XRS
      00112  0020 60 4 00001         TRA*    1,4           EOF RETURN
1            RDBSS - BSS FILE READING ROUTINE.                                                   PAGE 3

      00113  0 00000 0 00000  EOFCT  PZE
      00114  606060226262     BSS    BCI     1,   BSS
      00115  233025234262     MSG    BCI     4,CHECKSUM ERROR IN PROG.
      00116  644460255151
      00117  465160314560
      00120  475146273360
      00121  0 00000 0 00000  PGN    PZE
      00122  736043462124            BCI     2,, LOAD ADDRE
      00123  602124245125
      00124  626260135757            VFD     H12/SS,O6/60,H6/=,O12/5757
      00125                          BSS     2

                       77426         COMMON  27
                       77426  BUFF   COMMON  1
                       77425  FILN   COMMON  2

      00127                          RMT     *             REMOTE SEQUENCES
      00127  0101 00 0 00135  WRFLX  TIA     =HWRFLX                                                          .002
                                     END

        LITERALS
      00130  000077000000
      00131  446023215124
      00132  475146275121
      00133  606060606060
      00134  625071226262
      00135  665126436760
      00136  744421314534
1            RDBSS - BSS FILE READING ROUTINE.                                                   PAGE 1
                        POST PROCESSOR ASSEMBLY DATA

       77423 IS THE LAST LOCATION NOT USED BY THIS PROGRAM
        137 IS THE FIRST LOCATION NOT USED BY THIS PROGRAM

0REFERENCES TO DEFINED SYMBOLS
        114    BSS    10
        102    DST   110
        111    EOF    12,   26,   45,  111
        115    MSG   102,  104
        121    PGN    61
         17    SQZ     5
         41    VRR    40
         73    XR4     3,  111
      77426   BUFF    11,   15,   20,   25,   31,   44,   56,   63,   66,   67,   71,  100,  127
      77425   FILN     4,    7,   23,   42,  127
        106   P.C.    76
         50  CHECK    16
          1  DSKER    14,   30,   47
        113  EOFCT    13,   27,   46
         73  IGCHK    64,   73,  105
          2  OCABC    77
          3  RDBSS     0
        127  WRFLX   103
          4  WZERO    53
          0 BFREAD     6,   22,   41
         75 CHKERR    72

0 NO ERROR IN ABOVE ASSEMBLY.
1            ASSEMBLE 84 CHARACTER PRINT BUFFER.                                                 PAGE 1

                                             7/4/65 - NOEL I. MORRIS

                                     UNLIST
 M                            CALL   MACRO   SUBR,LIST

                       00002         ENTRY   ECHAR
                       00011         ENTRY   EWORD
                       00022         ENTRY   WLINE


            LINKAGE DIRECTOR
      00000  000000000000
      00001  252330215160

                       00016  WPL    EQU     14            WORDS PER LINE
                       00124  CPL    EQU     6*WPL         CHARACTERS PER LINE
                       00000  XR4    EQU     *-2           LINKAGE DIRECTOR

                              *-*-*-*-*-*-*-*-*-*-*-*-*-*-*-*-*-*-*-*-*-*-*-*-*-*-*-*-*-*-*-*-*-*-*-*-

                                             ECHAR - ENTER ONE CHARACTER INTO PRINT BUFFER.

                              *-*-*-*-*-*-*-*-*-*-*-*-*-*-*-*-*-*-*-*-*-*-*-*-*-*-*-*-*-*-*-*-*-*-*-*-

      00002 -0634 00 4 00000  ECHAR  SXD     XR4,4         SAVE XR4

      00003  0774 00 4 00124  CHX    AXT     CPL,4         INDEX TO CURRENT POSITION IN PRINT BUFFER
      00004 -0620 00 4 00173         SLQ     PTBL+CPL,4    STORE CHARACTER FOR CRQ TABLE
      00005  1 77777 4 00006         TXI     *+1,4,-1      CHECK FOR OVERFLOW
      00006  0634 00 4 00003         SXA     CHX,4         SAVE BUFFER INDEX

      00007 -0534 00 4 00000  ERTN   LXD     XR4,4         RESTORE XR4
      00010  0020 00 4 00001         TRA     1,4           AND RETURN


                              *-*-*-*-*-*-*-*-*-*-*-*-*-*-*-*-*-*-*-*-*-*-*-*-*-*-*-*-*-*-*-*-*-*-*-*-

                                             EWORD - ENTER A FULL WORD INTO PRINT BUFFER.

                              *-*-*-*-*-*-*-*-*-*-*-*-*-*-*-*-*-*-*-*-*-*-*-*-*-*-*-*-*-*-*-*-*-*-*-*-

      00011  0634 00 4 00017  EWORD  SXA     WX4,4         SAVE XRS
      00012  0634 00 1 00020         SXA     WX1,1         ..

      00013  0774 00 1 00006         AXT     6,1           SIX CHARACTERS IN WORD
      00014                          CALL    ECHAR
      00014  0074 00 4 00002         TSX     ECHAR,4                                                          .002
      00015 -0773 00 0 00006         RQL     6             SHIFT TO NEXT CHARACTER
      00016  2 00001 1 00014         TIX     *-2,1,1       AND LOOP

      00017  0774 00 4 00000  WX4    AXT     **,4          RESTORE XRS
      00020  0774 00 1 00000  WX1    AXT     **,1          ..
      00021  0020 00 4 00001         TRA     1,4           RETURN
1            ASSEMBLE 84 CHARACTER PRINT BUFFER.                                                 PAGE 2


                              *-*-*-*-*-*-*-*-*-*-*-*-*-*-*-*-*-*-*-*-*-*-*-*-*-*-*-*-*-*-*-*-*-*-*-*-

                                             WLINE - ASSEMBLE AND PRINT OUT BUFFER CONTENTS.

                              *-*-*-*-*-*-*-*-*-*-*-*-*-*-*-*-*-*-*-*-*-*-*-*-*-*-*-*-*-*-*-*-*-*-*-*-

      00022 -0634 00 4 00000  WLINE  SXD     XR4,4         SAVE XRS
      00023  0634 00 1 00035         SXA     XR1,1         ..

      00024  0774 00 4 00016         AXT     WPL,4         OUTPUT WORD COUNTER
      00025  0774 00 1 00047         AXT     PTBL,1        INITIALIZE CRQ
      00026  0634 00 1 00030  CRL    SXA     CRQ,1         CRQ TABLE ADDRESS
      00027  0560 00 0 00174         LDQ     =0            MUST BE ZERO FOR CRQ
      00030 -0154 06 1 00047  CRQ    CRQ     PTBL,1,6      PRESTO, SIX CHARACTERS IN MQ
      00031 -0600 00 4 00065         STQ     PTBL+WPL,4    USE SAME BUFFER
      00032  2 00001 4 00026         TIX     CRL,4,1       ASSEMBLE ALL WORDS

      00033                          CALL    WRFLX((PTBL,,WPL))
      00033  0074 00 4 00173         TSX     WRFLX,4                                                          .002
      00034  3 00016 0 00047         PAR     PTBL,,WPL                                                        .004
                                                           WRITE OUT BUFFER CONTENTS ON CONSOLE

      00035  0774 00 1 00000  XR1    AXT     **,1          RESTORE XR1

      00036  0774 00 4 00124  RESET  AXT     CPL,4         RESET THE CRQ TABLE
      00037  0634 00 4 00003         SXA     CHX,4         ..

      00040 -0500 00 0 00046         CAL     INIW          ..
      00041  0602 00 4 00173         SLW     PTBL+CPL,4    ..
      00042  0361 00 0 00175         ACL     =1            ..
      00043  2 00001 4 00041         TIX     *-2,4,1       ..

      00044 -0534 00 4 00000         LXD     XR4,4         RESTORE XR4
      00045  0020 00 4 00001         TRA     1,4           AND RETURN


                              *-*-*-*-*-*-*-*-*-*-*-*-*-*-*-*-*-*-*-*-*-*-*-*-*-*-*-*-*-*-*-*-*-*-*-*-

      00046  600000000050     INIW   VFD     O21/6000000,15/PTBL+1
                       00047  PTBL   DUP     1,CPL
      00047  600000000050            VFD     O21/6000000,15/*+1
      00050  600000000051
      00051  600000000052
      00052  600000000053
      00053  600000000054
      00054  600000000055
      00055  600000000056
      00056  600000000057
      00057  600000000060
      00060  600000000061
      00061  600000000062
      00062  600000000063
      00063  600000000064
      00064  600000000065
1            ASSEMBLE 84 CHARACTER PRINT BUFFER.                                                 PAGE 3

      00065  600000000066
      00066  600000000067
      00067  600000000070
      00070  600000000071
      00071  600000000072
      00072  600000000073
      00073  600000000074
      00074  600000000075
      00075  600000000076
      00076  600000000077
      00077  600000000100
      00100  600000000101
      00101  600000000102
      00102  600000000103
      00103  600000000104
      00104  600000000105
      00105  600000000106
      00106  600000000107
      00107  600000000110
      00110  600000000111
      00111  600000000112
      00112  600000000113
      00113  600000000114
      00114  600000000115
      00115  600000000116
      00116  600000000117
      00117  600000000120
      00120  600000000121
      00121  600000000122
      00122  600000000123
      00123  600000000124
      00124  600000000125
      00125  600000000126
      00126  600000000127
      00127  600000000130
      00130  600000000131
      00131  600000000132
      00132  600000000133
      00133  600000000134
      00134  600000000135
      00135  600000000136
      00136  600000000137
      00137  600000000140
      00140  600000000141
      00141  600000000142
      00142  600000000143
      00143  600000000144
      00144  600000000145
      00145  600000000146
      00146  600000000147
      00147  600000000150
      00150  600000000151
      00151  600000000152
      00152  600000000153
      00153  600000000154
      00154  600000000155
1            ASSEMBLE 84 CHARACTER PRINT BUFFER.                                                 PAGE 4

      00155  600000000156
      00156  600000000157
      00157  600000000160
      00160  600000000161
      00161  600000000162
      00162  600000000163
      00163  600000000164
      00164  600000000165
      00165  600000000166
      00166  600000000167
      00167  600000000170
      00170  600000000171
      00171  600000000172
      00172  600000000173
                                     END
                                              REMOTE SEQUENCES
                              WRFLX  GEN     (TIA)(=HWRFLX)                                                   .001
      00173  0101 00 0 00176  WRFLX  TIA     =HWRFLX                                                          .002
1            ASSEMBLE 84 CHARACTER PRINT BUFFER.                                                 PAGE 1
                        POST PROCESSOR ASSEMBLY DATA

        177 IS THE FIRST LOCATION NOT USED BY THIS PROGRAM

0REFERENCES TO DEFINED SYMBOLS
          3    CHX     6,   37
        124    CPL     2,    3,    4,   36,   41,   47
         26    CRL    32
         30    CRQ    26
         16    WPL     2,   24,   31,   34
         20    WX1    12
         17    WX4    11
         35    XR1    23
          0    XR4     2,    7,   22,   44
          7   ERTN
         46   INIW    40
         47   PTBL     4,   25,   30,   31,   34,   41,   46
          2  ECHAR     0,   14
         11  EWORD     0
         36  RESET
         22  WLINE     0
        173  WRFLX    33

0 NO ERROR IN ABOVE ASSEMBLY.
1            DISK ERROR SUBROUTINE - CALLS PRNTER VIA NEXCOM.                                    PAGE 1

                                             REVISED 9/14/65 - NOEL I. MORRIS

                                     UNLIST
 M                            CALL   MACRO   SUBR,LIST


                       00000         ENTRY   DSKER

      00000 -0500 00 0 00006  DSKER  CAL     =HPRNTER
      00001  0560 00 0 00004         LDQ     =O-71
      00002                          CALL    NEXCOM
      00002  0074 00 4 00003         TSX     NEXCOM,4                                                         .002

      00003                          RMT     *             REMOTE SEQUENCES
      00003  0101 00 0 00005  NEXCOM TIA     =HNEXCOM                                                         .002

                                     END

        LITERALS
      00004  400000000071
      00005  452567234644
      00006  475145632551
1            DISK ERROR SUBROUTINE - CALLS PRNTER VIA NEXCOM.                                    PAGE 1
                        POST PROCESSOR ASSEMBLY DATA

          7 IS THE FIRST LOCATION NOT USED BY THIS PROGRAM

0REFERENCES TO DEFINED SYMBOLS
          0  DSKER     0
          3 NEXCOM     2

0 NO ERROR IN ABOVE ASSEMBLY.


 PRFIB   BCD 05/12/69 2020.2    4682         00000
1     MAD PROGRAM LISTING ... ... ...                 FILE   PRFIB   MAD            05/04/69    1511.6
-
      PRFIB           PRINT ALL PENDING FIB JOBS FOR USER                                              LM00001
                                                                                                       LM00002
                                                                                                       LM00003
                  MODIFIED FOR '(ALL)' ARGUMENT BY ROGER ROACH 5/18/67                                 LM00004
                  MODIFIED FOR 'PROB PROG' ARGUMENTS BY JIM BIXBY 12/26/67                             LM00005
                  ABOVE OPTIONS RESTRICTED TO M1416 BY P.R.BOS 1/2/68                                  LM00006
                                                                                                       LM00007
                  NORMAL MODE IS INTEGER                                                          *001 LM00008
                  DIMENSION CARD (13), WHO (1),  BUFF1 (431)                                      *002 LM00009
                                                                                                       LM00010
                      PRESET DECLARATIONS.                                                             LM00011
                                                                                                       LM00012
                  VECTOR VALUES FIBJOB = $FIBJOB$                                                 *003 LM00013
                  VECTOR VALUES   FILE = $  FILE$                                                 *004 LM00014
                  VECTOR VALUES  C0056 = $ C0056$                                                 *005 LM00015
                  VECTOR VALUES FIBMON = $ 99995$                                                 *006 LM00016
                  VECTOR VALUES  FENCE = 777777777777K                                            *007 LM00017
                  VECTOR VALUES    MZE = -0                                                       *008 LM00018
                  VECTOR VALUES     CT = 0                                                        *009 LM00019
                  VECTOR VALUES  FIRST = 1B                                                       *010 LM00020
                  VECTOR VALUES    ALL = $ (ALL)$                                                 *011 LM00021
                  VECTOR VALUES  M1416 = $ M1416$                                                 *012 LM00022
                                                                                                       LM00023
                                                                                                       LM00024
                  EQUIVALENCE  (PROBN, WHO (1)), (PROGN, WHO)                                     *013 LM00025
                  EQUIVALENCE  (JPROB, CARD (13)), (JPROG, CARD (11)),                            *014 LM00026
                1      (ESTTIM, CARD (9)), (DRB4, CARD (8)),                                      *014 LM00027
                2      (JNAME, CARD (10))                                                         *014 LM00028
                                                                                                       LM00029
                                                                                                       LM00030
                                                                                                       LM00031
                      PICK UP PARAMETERS                                                               LM00032
                                                                                                       LM00033
                  PRMESS.                                                                         *015 LM00034
                  WHOAMI. (WHO (1) ... 2)                                                         *016 LM00035
                  WHENEVER WHO(1) .NE. M1416                                                      *017 LM00036
                    ARG = FENCE                                                                   *018 LM00037
                  OTHERWISE                                                                       *019 LM00038
                    ARG = COMARG.(1)                                                              *020 LM00039
                    ARG2 = COMARG.(2)                                                             *021 LM00040
                    WHENEVER ARG.NE.FENCE.AND.ARG2.NE.FENCE                                       *022 LM00041
                      PROBN = ARG                                                                 *023 LM00042
                      PROGN = ARG2                                                                *024 LM00043
                    END OF CONDITIONAL                                                            *025 LM00044
                  END OF CONDITIONAL                                                              *026 LM00045
                                                                                                       LM00046
                  FERRTN. (ERROR)                                                                 *027 LM00047
                                                                                                       LM00048
                                                                                                       LM00049
                      LINK TO FIBJOB FILE AND SEARCH FOR USER'S JOB.                                   LM00050
                                                                                                       LM00051
                  LINK. (FIBJOB, FILE, C0056, FIBMON, MZE, MZE, 124K, ERR1)                       *028 LM00052
                  BFOPEN. ($R$, FIBJOB, FILE, BUFF1 (431), MZE, MZE, ERR1)                        *029 LM00053
                  UNLINK. (FIBJOB, FILE)                                                          *030 LM00054
                                                                                                       LM00055
      READ        BFREAD. (FIBJOB, FILE, CARD (13) ... 14, CLOS, CT, ERROR)                       *031 LM00056
                                                                                                       LM00057
                  WHENEVER ARG .E. ALL, TRANSFER TO ONWARD                                        *032 LM00058
                  WHENEVER JPROB .NE. PROBN .OR. JPROG .NE. PROGN, TRANSFER TO READ               *033 LM00059
                                                                                                       LM00060
                                                                                                       LM00061
                      CARD FOUND.                                                                      LM00062
                                                                                                       LM00063
      ONWARD      WHENEVER FIRST                                                                  *034 LM00064
                    WHENEVER ARG.E.ALL,PRMESA.($ PROB   PROG$,BL)                                 *035 LM00065
                    PRMESS. (HEADER ... 5)                                                        *036 LM00066
                    VECTOR VALUES HEADER = $JOBNAM  LIMIT   DATE  TIME$                           *037 LM00067
                    PRMESS.                                                                       *038 LM00068
                    FIRST = 0B                                                                    *039 LM00069
                  END OF CONDITIONAL                                                              *040 LM00070
                                                                                                       LM00071
                  FTIME. (DRB4, DATE, TIME)                                                       *041 LM00072
                  DATEX = ((DATE.A.7777K8)).V.((DATE.A.7777K4).RS.6).V.$00/00 $                   *042 LM00073
                  WHENEVER ARG.E.ALL,PRMESA.(JPROB,JPROG,BL)                                      *043 LM00074
                  PRMESS. (JNAME, BZEL. (DERBC. (ESTTIM)), BL, DATEX, TIME)                       *044 LM00075
                  VECTOR VALUES BL = 6060 6057 5757K                                              *045 LM00076
                  TRANSFER TO READ                                                                *046 LM00077
                                                                                                       LM00078
      CLOS        BFCLOS. (FIBJOB, FILE, ERROR)                                                   *047 LM00079
                                                                                                       LM00080
                  WHENEVER FIRST                                                                  *048 LM00081
                    PRMESS. (NOJOB ... 3, PROBN, PROGN, $.$)                                      *049 LM00082
                    VECTOR VALUES NOJOB = $ NO FIB JOBS FOR$                                      *050 LM00083
                  END OF CONDITIONAL                                                              *051 LM00084
                                                                                                       LM00085
                  PRMESS.                                                                         *052 LM00086
                                                                                                       LM00087
                  CHNCOM. (0)                                                                     *053 LM00088
                                                                                                       LM00089
                                                                                                       LM00090
                      FILE SYSTEM ERROR ENCOUNTERED.                                                   LM00091
                                                                                                       LM00092
      ERR1        UNLINK. (FIBJOB, FILE)                                                          *054 LM00093
      ERROR       DSKER.                                                                          *055 LM00094
                                                                                                       LM00095
                                                                                                       LM00096
                  END OF PROGRAM                                                                  *056 LM00097
1MAD PROGRAM,TYPE NOV 1963      (ALL NUMBERS ARE OCTAL)
0TOTAL LOCATIONS   01212 TRANSFER VECTOR LENGTH  00021 PROGRAM BEGINS    00777
0VARIABLE STORAGE (A=ARRAY,C=COMMON,E=ERASABLE,DIGIT=MODE)
      ALL    00047 A 1        CLOS   00042   4        ESTTIM 00030   1        JNAME  00027   1        ONWARD 00045   4
      ARG2   00050   1        CT     00734 A 1        FENCE  00737 A 1        JPROB  00024   1        PROBN  00022   1
      ARG    00051   1        DATE   00735   1        FIBJOB 00740 A 1        JPROG  00026   1        PROGN  00023   1
      BL     00052 A 1        DATEX  00736   1        FIBMON 00741 A 1        M1416  00751 A 1        READ   00046   4
      BUFF1  00732 A 1        DRB4   00031   1        FILE   00742 A 1        MZE    00752 A 1        TIME   00756   1
      C0056  00733 A 1        ERR1   00043   4        FIRST  00743 A 2        NOJOB  00755 A 1        WHO    00023 A 1
      CARD   00041 A 1        ERROR  00044   4        HEADER 00750 A 1
0FUNCTION DICTIONARY
      BFCLOS 00000   1        BFOPEN 00001   1        BFREAD 00002   1        BZEL   00003   1        CHNCOM 00004   1
      COMARG 00005   1        DERBC  00006   1        DSKER  00007   1        EXIT   00010   1        FERRTN 00011   1
      FTIME  00012   1        .SETUP 00013   1        LINK   00014   1        PRMESA 00015   1        PRMESS 00016   1
      UNLINK 00017   1        WHOAMI 00020   1
0ABSOLUTE CONSTANTS
 00772 +336060606060     00762 +000000000003     00767 +000061000060     00776 -377700000000     00764 +000000000006
 00770 +000077770000     00757 +000000000000     00763 +000000000005     00775 -206047514627     00774 -204751462260
 00765 +000000000016     00773 -116060606060     00766 +000000000124     00761 +000000000002     00760 +000000000001
 00771 +233000000000
0STATEMENT DICTIONARY
 00042 TXL -301170001164       00043 TXL -301205001202       00044 TXL -301206001205       00045 TXL -301103001101
 00046 TXL -301066001057
0PROGRAM
                 N'R                                                                001  LM00008
                 D'N CARD (13), WHO (1),  BUFF1 (431)                               002  LM00009
                 V'S FIBJOB = $FIBJOB$                                              003  LM00013
 00777 TSX +0 07400 4 00013    00740     +2 63122 4 14622
                 V'S   FILE = $  FILE$                                              004  LM00014
 00742     -2 06026 3 14325
                 V'S  C0056 = $ C0056$                                              005  LM00015
 00733     -2 02300 0 00506
                 V'S FIBMON = $ 99995$                                              006  LM00016
 00741     -2 01111 1 11105
                 V'S  FENCE = 777777777777K                                         007  LM00017
 00737     -3 77777 7 77777
                 V'S    MZE = -0                                                    008  LM00018
 00752     -0 00000 0 00000
                 V'S     CT = 0                                                     009  LM00019
 00734     +0 00000 0 00000
                 V'S  FIRST = 1B                                                    010  LM00020
 00743     +0 00000 0 00001
                 V'S    ALL = $ (ALL)$                                              011  LM00021
 00047     -2 07421 4 34334
                 V'S  M1416 = $ M1416$                                              012  LM00022
 00751     -2 04401 0 40106
                 E'E  (PROBN, WHO (1)), (PROGN, WHO)                                013  LM00025
                 E'E  (JPROB, CARD (13)), (JPROG, CARD (11)),                       014  LM00026
                1     (ESTTIM, CARD (9)), (DRB4, CARD (8)),                         014  LM00027
                2     (JNAME, CARD (10))                                            014  LM00028
                 PRMESS.                                                            015  LM00034
 01000 TSX +0 07400 4 00016
                 WHOAMI. (WHO (1) ... 2)                                            016  LM00035
 01001 TSX +0 07400 4 00020    01002 TIX +2 00761 0 00022
                 W'R WHO(1) .NE. M1416                                              017  LM00036
 01003 CLA +0 50000 0 00022    01004 SUB +0 40200 0 00751    01005 TZE +0 10000 0 01011
                   ARG = FENCE                                                      018  LM00037
 01006 CLA +0 50000 0 00737    01007 STO +0 60100 0 00051
                 O'E                                                                019  LM00038
 01010 TRA +0 02000 0 01031
                   ARG = COMARG.(1)                                                 020  LM00039
 01011 TSX +0 07400 4 00005    01012 TXH +3 00000 0 00760    01013 STO +0 60100 0 00051
                   ARG2 = COMARG.(2)                                                021  LM00040
 01014 TSX +0 07400 4 00005    01015 TXH +3 00000 0 00761    01016 STO +0 60100 0 00050
                   W'R ARG.NE.FENCE.AND.ARG2.NE.FENCE                               022  LM00041
 01017 CLA +0 50000 0 00050    01020 SUB +0 40200 0 00737    01021 TZE +0 10000 0 01031    01022 CLA +0 50000 0 00051
 01023 SUB +0 40200 0 00737    01024 TZE +0 10000 0 01031
                     PROBN = ARG                                                    023  LM00042
 01025 CLA +0 50000 0 00051    01026 STO +0 60100 0 00022
                     PROGN = ARG2                                                   024  LM00043
 01027 CLA +0 50000 0 00050    01030 STO +0 60100 0 00023
                   E'L                                                              025  LM00044
                 E'L                                                                026  LM00045
                 FERRTN. (ERROR)                                                    027  LM00047
 01031 TSX +0 07400 4 00011    01032 TXH +3 00000 0 00044
                 LINK. (FIBJOB, FILE, C0056, FIBMON, MZE, MZE, 124K, ERR1)          028  LM00052
 01033 TSX +0 07400 4 00014    01034 TXH +3 00000 0 00740    01035 TXH +3 00000 0 00742    01036 TXH +3 00000 0 00733
 01037 TXH +3 00000 0 00741    01040 TXH +3 00000 0 00752    01041 TXH +3 00000 0 00752    01042 TXH +3 00000 0 00766
 01043 TXH +3 00000 0 00043
                 BFOPEN. ($R$, FIBJOB, FILE, BUFF1 (431), MZE, MZE, ERR1)           029  LM00053
 01044 TSX +0 07400 4 00001    01045 TXH +3 00000 0 00773    01046 TXH +3 00000 0 00740    01047 TXH +3 00000 0 00742
 01050 TXH +3 00000 0 00053    01051 TXH +3 00000 0 00752    01052 TXH +3 00000 0 00752    01053 TXH +3 00000 0 00043
                 UNLINK. (FIBJOB, FILE)                                             030  LM00054
 01054 TSX +0 07400 4 00017    01055 TXH +3 00000 0 00740    01056 TXH +3 00000 0 00742
      READ       BFREAD. (FIBJOB, FILE, CARD (13) ... 14, CLOS, CT, ERROR)          031  LM00056
 01057 TSX +0 07400 4 00002    01060 TXH +3 00000 0 00740    01061 TXH +3 00000 0 00742    01062 TIX +2 00765 0 00024
 01063 TXH +3 00000 0 00042    01064 TXH +3 00000 0 00734    01065 TXH +3 00000 0 00044
                 W'R ARG .E. ALL, T'O ONWARD                                        032  LM00058
 01066 CLA +0 50000 0 00051    01067 SUB +0 40200 0 00047    01070 TNZ -0 10000 0 01072    01071 TRA +0 02000 0 00045
                 W'R JPROB .NE. PROBN .OR. JPROG .NE. PROGN, T'O READ               033  LM00059
 01072 CLA +0 50000 0 00026    01073 SUB +0 40200 0 00023    01074 TNZ -0 10000 0 01100    01075 CLA +0 50000 0 00024
 01076 SUB +0 40200 0 00022    01077 TZE +0 10000 0 01101    01100 TRA +0 02000 0 00046
      ONWARD     W'R FIRST                                                          034  LM00064
 01101 NZT -0 52000 0 00743    01102 TRA +0 02000 0 01117
                   W'R ARG.E.ALL,PRMESA.($ PROB   PROG$,BL)                         035  LM00065
 01103 CLA +0 50000 0 00051    01104 SUB +0 40200 0 00047    01105 TNZ -0 10000 0 01112    01106 TSX +0 07400 4 00015
 01107 TXH +3 00000 0 00774    01110 TXH +3 00000 0 00775    01111 TXH +3 00000 0 00052
                   PRMESS. (HEADER ... 5)                                           036  LM00066
 01112 TSX +0 07400 4 00016    01113 TIX +2 00763 0 00750
                   V'S HEADER = $JOBNAM  LIMIT   DATE  TIME$                        037  LM00067
 00744     -0 42560 6 06060    00745     -2 32560 6 06331    00746     -2 36060 6 02421    00747     -2 06043 3 14431
 00750     -0 14622 4 52144
                   PRMESS.                                                          038  LM00068
 01114 TSX +0 07400 4 00016
                   FIRST = 0B                                                       039  LM00069
 01115 CLA +0 50000 0 00757    01116 STO +0 60100 0 00743
                 E'L                                                                040  LM00070
                 FTIME. (DRB4, DATE, TIME)                                          041  LM00072
 01117 TSX +0 07400 4 00012    01120 TXH +3 00000 0 00031    01121 TXH +3 00000 0 00735    01122 TXH +3 00000 0 00756
                 DATEX = ((DATE.A.7777K8)).V.((DATE.A.7777K4).RS.6).V.$00/00 $      042  LM00073
 01123 CAL -0 50000 0 00735    01124 ANA -0 32000 0 00770    01125 SLW +0 60200 0 01207    01126 CAL -0 50000 0 00764
 01127 STA +0 62100 0 01131    01130 CAL -0 50000 0 01207    01131 LGR -0 76500 0 00000    01132 SLW +0 60200 0 01207
 01133 CAL -0 50000 0 00735    01134 ANA -0 32000 0 00776    01135 ORA -0 50100 0 01207    01136 ORA -0 50100 0 00767
 01137 SLW +0 60200 0 00736
                 W'R ARG.E.ALL,PRMESA.(JPROB,JPROG,BL)                              043  LM00074
 01140 CLA +0 50000 0 00051    01141 SUB +0 40200 0 00047    01142 TNZ -0 10000 0 01147    01143 TSX +0 07400 4 00015
 01144 TXH +3 00000 0 00024    01145 TXH +3 00000 0 00026    01146 TXH +3 00000 0 00052
                 PRMESS. (JNAME, BZEL. (DERBC. (ESTTIM)), BL, DATEX, TIME)          044  LM00075
 01147 TSX +0 07400 4 00006    01150 TXH +3 00000 0 00030    01151 STO +0 60100 0 01207    01152 TSX +0 07400 4 00003
 01153 TXH +3 00000 0 01207    01154 STO +0 60100 0 01207    01155 TSX +0 07400 4 00016    01156 TXH +3 00000 0 00027
 01157 TXH +3 00000 0 01207    01160 TXH +3 00000 0 00052    01161 TXH +3 00000 0 00736    01162 TXH +3 00000 0 00756
                 V'S BL = 6060 6057 5757K                                           045  LM00076
 00052     -2 06060 5 75757
                 T'O READ                                                           046  LM00077
 01163 TRA +0 02000 0 00046
      CLOS       BFCLOS. (FIBJOB, FILE, ERROR)                                      047  LM00079
 01164 TSX +0 07400 4 00000    01165 TXH +3 00000 0 00740    01166 TXH +3 00000 0 00742    01167 TXH +3 00000 0 00044
                 W'R FIRST                                                          048  LM00081
 01170 NZT -0 52000 0 00743    01171 TRA +0 02000 0 01177
                   PRMESS. (NOJOB ... 3, PROBN, PROGN, $.$)                         049  LM00082
 01172 TSX +0 07400 4 00016    01173 TIX +2 00762 0 00755    01174 TXH +3 00000 0 00022    01175 TXH +3 00000 0 00023
 01176 TXH +3 00000 0 00772
                   V'S NOJOB = $ NO FIB JOBS FOR$                                   050  LM00083
 00753     -2 02646 5 16060    00754     +2 26041 4 62262    00755     -2 04546 6 02631
                 E'L                                                                051  LM00084
                 PRMESS.                                                            052  LM00086
 01177 TSX +0 07400 4 00016
                 CHNCOM. (0)                                                        053  LM00088
 01200 TSX +0 07400 4 00004    01201 TXH +3 00000 0 00757
      ERR1       UNLINK. (FIBJOB, FILE)                                             054  LM00093
 01202 TSX +0 07400 4 00017    01203 TXH +3 00000 0 00740    01204 TXH +3 00000 0 00742
      ERROR      DSKER.                                                             055  LM00094
 01205 TSX +0 07400 4 00007
                 E'M                                                                056  LM00097
 01206 TSX +0 07400 4 00010


 PRINT   BCD 09/18/68 2319.3   23960         00000
