1            ROUTINE TO MAKE SURE FILE NAME IS USEABLE.                                          PAGE 1

                              *      USAGE  CLRNAM.(NAME1, NAME2, CANT, SW)
                              *        FILE NAME1 NAME2 WILL BE CHECKED FOR AND
                              *        DELETED IF POSSIBLE.  IF SW
                              *        IS TRUE, USER WILL BE ASKED BEFORE DELETING
                              *        THE OLD FILE.
                              *
                       00012         ENTRY   CLRNAM        CLEAR FILE NAME.
                              *
                                     EXTERN  SETFUL,SETBCD,WRFLX,WRFLXA,RDFLXA
                                     EXTERN  FSTATE,CHFILE,DELFIL
                              *

        TRANSFER VECTOR
      00000  622563266443     SETFUL
      00001  622563222324     SETBCD
      00002  665126436760     WRFLX
      00003  665126436721     WRFLXA
      00004  512426436721     RDFLXA
      00005  266263216325     FSTATE
      00006  233026314325     CHFILE
      00007  242543263143     DELFIL

            LINKAGE DIRECTOR
      00010  000000000000
      00011  234351452144

      00012 -0500 60 4 00001  CLRNAM CAL*    1,4           GET FILE NAME.
      00013  0602 00 0 00121         SLW     N1            ..
      00014 -0500 60 4 00002         CAL*    2,4           SECONDARY NAME.
      00015  0602 00 0 00122         SLW     N2            ..
      00016  0634 00 4 00147         SXA     SV4,4         SAVE LINKAGE.
      00017  0074 00 4 00005         TSX     FSTATE,4      CHECK STATE OF FILE.
 TD   00020  3 00000 0 00121         TXH     N1            NAME
 TD   00021  3 00000 0 00122         TXH     N2            NAME
      00022  3 00010 0 00156         TXH     DATA,,8       FILE STATE
 TD   00023  3 00000 0 00112         TXH     FSTERR        IN CASE OF ERROR
 TD   00024  3 00000 0 00155         TXH     ERNO          GATHER ERROR NUMBER.
      00025  0441 00 0 00157         LDI     MODE          CHECK MODE OF FILE.
      00026 -0054 00  400000         LFT     400000        IS MODE NEGATIVE.
      00027  0020 00 0 00100         TRA     LINKED        YES, FILE IS LINKED.
      00030  0600 00 0 00154         STZ     PROTEC        ASSUME NOT PROTECTED.
      00031  0056 00  000100         RNT     100           CHECK PROTECTED BIT.
      00032  0020 00 0 00035         TRA     CKASK         NOT PROTECTED, SHOULD WE ASK ANYWAY.
      00033 -0625 00 0 00154         STL     PROTEC        PROTECTED, SET SWITCH FOR LONG COMMENT.
      00034  0020 00 0 00040         TRA     ASK           GO ASK PERMISSION TO DELETE FILE.
      00035  0534 00 4 00147  CKASK  LXA     SV4,4         GET LINKAGE TO ASK SWITCH.
      00036 -0520 60 4 00004         NZT*    4,4           SHOULD WE ASK PERMISSION ANYWAY.
      00037  0020 00 0 00065         TRA     DELETE        NO, GO DELETE FILE.
      00040  0074 00 4 00000  ASK    TSX     SETFUL,4      SET CHARACTER MODE SWITCH.
      00041  0074 00 4 00003         TSX     WRFLXA,4      BEGIN THE COMMENT.
      00042  0 00003 0 00116                 MI,,3         ..
      00043  0074 00 4 00001         TSX     SETBCD,4      SWITCH TO BCD FOR FILE NAME.
      00044  0074 00 4 00003         TSX     WRFLXA,4      WRITE OUT FILE NAME.
      00045  0 00002 0 00121                 N1,,2
      00046  0074 00 4 00000         TSX     SETFUL,4      BACK TO FULL MODE.
      00047 -0520 00 0 00154         NZT     PROTEC        SHOULD WE CLAIM IT IS PROTECTED.
1            ROUTINE TO MAKE SURE FILE NAME IS USEABLE.                                          PAGE 2

      00050  0020 00 0 00053         TRA     SKPPCM        NO, SKIP THAT PART.
      00051  0074 00 4 00003         TSX     WRFLXA,4      YES, ANNOUNC PROTECTED PART.
      00052  0 00006 0 00123                 ISPTC,,6      ..
      00053  0074 00 4 00003  SKPPCM TSX     WRFLXA,4      NOW ASK FOR PERMISSION.
      00054  0 00012 0 00131                 DOYOU,,10     ..
      00055  0074 00 4 00001         TSX     SETBCD,4      SWITCH SO ERASE WORKS.
      00056  0074 00 4 00004         TSX     RDFLXA,4
      00057  0 00001 0 00150                 IN,,1         GET ONE WORD.
      00060  0074 00 4 00000         TSX     SETFUL,4      RESTORE MODE.
      00061 -0500 00 0 00150         CAL     IN            GET THAT WORD.
      00062  0771 00 0 00022         ARS     18            GET FIRST THREE CHARACTERS.
      00063  0322 00 0 00170         ERA     =H000YES      DID HE SAY YES.
      00064 -0100 00 0 00076         TNZ     ERTN          NO, GIVE ERROR RETURN.
      00065  0074 00 4 00006  DELETE TSX     CHFILE,4      GOODY, WE CAN DELETE IT.
 TD   00066  3 00000 0 00121         TXH     N1            MAKE SURE IT IS DELETEABLE.
 TD   00067  3 00000 0 00122         TXH     N2            ..
 TD   00070  3 00000 0 00166         TXH     =1            BY CHANGING ITS MODE TO TEMPORARY.
      00071  0074 00 4 00007         TSX     DELFIL,4      DELETE THE SILLY THING.
 TD   00072  3 00000 0 00121         TXH     N1            ..
 TD   00073  3 00000 0 00122         TXH     N2            ..
      00074  0534 00 4 00147  RTN    LXA     SV4,4         RESTORE THE LINKAGE.
      00075  0020 00 4 00005         TRA     5,4           RETURN TO CALLER.
                              *
      00076  0534 00 4 00147  ERTN   LXA     SV4,4         ERROR RETURN, FILE CANNOT BE DELETED.
      00077  0020 60 4 00003         TRA*    3,4           RETURN THROUGH ERROR RETURN.
                              *
      00100  0074 00 4 00000  LINKED TSX     SETFUL,4      FILE IS LINKED, COMMENT AND GIVE UP.
      00101  0074 00 4 00003         TSX     WRFLXA,4      START THE COMMENT.
      00102  0 00003 0 00116                 MI,,3         ..
      00103  0074 00 4 00001         TSX     SETBCD,4      SWITCH MODE FOR FILE NAME.
      00104  0074 00 4 00003         TSX     WRFLXA,4      TYPE FILE NAME.
      00105  0 00002 0 00121                 N1,,2         ..
      00106  0074 00 4 00000         TSX     SETFUL,4      SWITCH FOR REST OF COMMENT.
      00107  0074 00 4 00002         TSX     WRFLX,4       END THIS PART WITH A C.R.
      00110  0 00004 0 00143                 ISLNK,,4      ..
      00111  0020 00 0 00076         TRA     ERTN          NOW GIVE AN ERROR RETURN.
                              *
      00112  0500 00 0 00155  FSTERR CLA     ERNO          ERROR RETURN FROM FSTATE, FIND OUT WHY.
      00113  0402 00 0 00167         SUB     =3            RETURN 3 MEANS FILE NOT FOUND.
      00114 -0100 00 0 00100         TNZ     LINKED        WRONG ERROR RETURN, ASSUME LINKED.
      00115  0020 00 0 00074         TRA     RTN           FILE NOT FOUND, NAME IS OK.
                              *
                              *                            DATA, COMMENTS, ETC.
                              *
      00116  004601430124     MI     BCI     3,0O1L1D0 1F1I1L1E0
      00117  006001260131
      00120  014301250060
                              *
      00121  0 00000 0 00000  N1                           STORAGE FOR FILE NAME.
      00122  0 00000 0 00000  N2                           SECONDARY NAME.
                              *
      00123  006001310162     ISPTC  BCI     1,0 1I1S
      00124 +006001330057            OCT     006001330057  BLANK, RED SHIFT, NULL.
      00125  004700510046            BCI     3,0P0R0O0T0E0C0T0E0D
      00126  006300250023
      00127  006300250024
1            ROUTINE TO MAKE SURE FILE NAME IS USEABLE.                                          PAGE 3

      00130 +013200330060            OCT     013200330060  BLACK SHIFT, PERIOD, BLANK.
      00131  006000400040     DOYOU  BCI     9,0 0-0-0D1O0 1Y1O1U0 1W1I1S1H0 1T1O0 1D1E1L1E1T1E0 1I1T
      00132  002401460060
      00133  017001460164
      00134  006001660131
      00135  016201300060
      00136  016301460060
      00137  012401250143
      00140  012501630125
      00141  006001310163
      00142 +015600600060            OCT     015600600060  TERMINAL QUESTION MARK.
                              *
      00143  006001310162     ISLNK  BCI     4,0 1I1S0 1L1I1N1K1E1D0.
      00144  006001430131
      00145  014501420125
      00146  012400336060
                              *
      00147  0 00000 0 00000  SV4                          STORAGE FOR CALLING LINKAGE.
      00150                   IN     BSS     4             FOR INPUT WORD.
      00154  0 00000 0 00000  PROTEC                       SWITCH FOR PROTECTED FILE.
      00155  0 00000 0 00000  ERNO                         STORAGE FOR ERROR NUMBER.
      00156                   DATA   BSS     8             FOR STATE INFORMATION.
                       00161  DEVICE EQU     DATA+3
                       00157  MODE   EQU     DATA+1
                              *
                                     END

        LITERALS
      00166  000000000001
      00167  000000000003
      00170  000000702562
1            ROUTINE TO MAKE SURE FILE NAME IS USEABLE.                                          PAGE 1
                        POST PROCESSOR ASSEMBLY DATA

        171 IS THE FIRST LOCATION NOT USED BY THIS PROGRAM

0REFERENCES TO DEFINED SYMBOLS
        150     IN    57,   61
        116     MI    42,  102
        121     N1    13,   20,   45,   66,   72,  105
        122     N2    15,   21,   67,   73
         40    ASK    34
         74    RTN   115
        147    SV4    16,   35,   74,   76
        156   DATA    22,  166
        155   ERNO    24,  112
         76   ERTN    64,  111
        157   MODE    25,  166
         35  CKASK    32
        131  DOYOU    54
        143  ISLNK   110
        123  ISPTC    52
          2  WRFLX   107
          6 CHFILE    65
         12 CLRNAM     0
         65 DELETE    37
          7 DELFIL    71
        161 DEVICE   166
          5 FSTATE    17
        112 FSTERR    23
        100 LINKED    27,  114
        154 PROTEC    30,   33,   47
          4 RDFLXA    56
          1 SETBCD    43,   55,  103
          0 SETFUL    40,   46,   60,  100,  106
         53 SKPPCM    50
          3 WRFLXA    41,   44,   51,   53,  101,  104

0 NO ERROR IN ABOVE ASSEMBLY.
1            ROUTINE TO RENAME A FILE, FORCING PERMANENT MODE IS POSSIBLE.                       PAGE 1

                              *        J. H. SALTZER, MAY, 1965.
                              *
                       00004         ENTRY   RENAME        RENAME FILE.
                              *
                                     EXTERN CHFILE,WRFLX
                              *

        TRANSFER VECTOR
      00000  233026314325     CHFILE
      00001  665126436760     WRFLX

            LINKAGE DIRECTOR
      00002  000000000000
      00003  512545214425

      00004  0500 60 4 00001  RENAME CLA*    1,4           GET FILE NAMES.
      00005  0601 00 0 00071         STO     OLD1          ..
      00006  0500 60 4 00002         CLA*    2,4           ..
      00007  0601 00 0 00072         STO     OLD2          ..
      00010  0601 00 0 00074         STO     NEW2          ASSUME NO CHANGE IN SECONDARY NAMES.
      00011  0500 60 4 00003         CLA*    3,4           ..
      00012  0601 00 0 00073         STO     NEW1          ..
      00013  0560 00 4 00004         LDQ     4,4           CHECK FOR TXH
      00014  0500 00 0 00076         CLA     =O300000000000 ..
      00015  0040 00 0 00020         TLQ     SKPN2         NO TXH, SECONDARY NAME UNCHANGED.
      00016  0500 60 4 00004         CLA*    4,4           TXH, CHANGE SECONDARY NAME.
      00017  0601 00 0 00074         STO     NEW2          ..
      00020  0634 00 4 00036  SKPN2  SXA     RETURN,4      SAVE LINKAGE.
      00021  0074 00 4 00000         TSX     CHFILE,4      CHANGE NAME WITHOUT CHANGING MODE.
 TD   00022  3 00000 0 00071         TXH     OLD1          ..
 TD   00023  3 00000 0 00072         TXH     OLD2          ..
 TD   00024  3 00000 0 00077         TXH     =-0           MODE UNCHANGED.
 TD   00025  3 00000 0 00073         TXH     NEW1          ..
 TD   00026  3 00000 0 00074         TXH     NEW2          ..
      00027  0074 00 4 00000         TSX     CHFILE,4      CHANGE MODE WITHOUT CHANGING NAME.
 TD   00030  3 00000 0 00073         TXH     NEW1          ..
 TD   00031  3 00000 0 00074         TXH     NEW2          ..
 TD   00032  3 00000 0 00075         TXH     =0            PERMANENT MODE.
 TD   00033  3 00000 0 00077         TXH     =-0           NAME UNCHANGED.
 TD   00034  3 00000 0 00077         TXH     =-0           ..
 TD   00035  3 00000 0 00040         TXH     CHERR         IN CASE MODE UNCHANGEABLE.
      00036  0774 00 4 00000  RETURN AXT     --,4          RESTORE LINKAGE.
      00037  0020 00 4 00001         TRA     1,4           RETURN TO CALLER.
                              *
      00040  0074 00 4 00001  CHERR  TSX     WRFLX,4       ASSUME TRACK QUOTA EXHAUSTED, AND COMMENT.
      00041  0 00010 0 00045                 TRKQUO,,8     ..
      00042  0074 00 4 00001         TSX     WRFLX,4       MENTION THAT NEW FILE IS TEMP MODE.
      00043  0 00013 0 00055                 TMPMOD,,11    ....
      00044  0020 00 0 00036         TRA     RETURN        EXIT.
                              *
                              *              COMMENTS AND STORAGE.
                              *
      00045  006301510121     TRKQUO BCI     8,0T1R1A1C1K0 1Q1U1O1T1A0 0E0X0H0A0U0S0T0E0D0.
      00046  012301420060
      00047  015001640146
      00050  016301210060
1            ROUTINE TO RENAME A FILE, FORCING PERMANENT MODE IS POSSIBLE.                       PAGE 2

      00051  002500670030
      00052  002100640062
      00053  006300250024
      00054  003360606060
                              *
      00055  007001460164     TMPMOD BCI     5,0Y1O1U1R0 1N1E1W0 1F1I1L1E0 1I
      00056  015100600145
      00057  012501660060
      00060  012601310143
      00061  012500600131
      00062 +016200600133            OCT     016200600133  S, BLANK, RED SHIFT.
      00063  006300250044            BCI     3,0T0E0M0P0O0R0A0R0Y
      00064  004700460051
      00065  002100510070
      00066 +013200600144            OCT     013200600144  BLACK SHIFT, BLANK, SMALL M.
      00067  014601240125            BCI     2,1O1D1E0.
      00070  003360606060
                              *
      00071  0 00000 0 00000  OLD1
      00072  0 00000 0 00000  OLD2
      00073  0 00000 0 00000  NEW1
      00074  0 00000 0 00000  NEW2
                              *
                                     END

        LITERALS
      00075  000000000000
      00076  300000000000
      00077  400000000000
1            ROUTINE TO RENAME A FILE, FORCING PERMANENT MODE IS POSSIBLE.                       PAGE 1
                        POST PROCESSOR ASSEMBLY DATA

        100 IS THE FIRST LOCATION NOT USED BY THIS PROGRAM

0REFERENCES TO DEFINED SYMBOLS
         73   NEW1    12,   25,   30
         74   NEW2    10,   17,   26,   31
         71   OLD1     5,   22
         72   OLD2     7,   23
         40  CHERR    35
         20  SKPN2    15
          1  WRFLX    40,   42
          0 CHFILE    21,   27
          4 RENAME     0
         36 RETURN    20,   44
         55 TMPMOD    43
         45 TRKQUO    41

0 NO ERROR IN ABOVE ASSEMBLY.
1     MAD PROGRAM LISTING ... ... ...                 FILE   12TYP   MAD            02/08/68    1745.9
-
                 ..  TYPEWRITER INPUT CHARACTER CONTROL ROUTINE.                                       LM00001
                 ..  USAGE. . .   COUNT = TYPEIN.(BUFFER, BUFSIZ, ERASE, KILL)                         LM00002
                           J. H. SALTZER, JANUARY, 1965.                                               LM00003
                                                                                                       LM00004
                  EXTERNAL FUNCTION(LINE, BUFSIZ)                                                 *001 LM00005
                                                                                                       LM00006
                  NORMAL MODE IS INTEGER                                                          *002 LM00007
                  VECTOR VALUES NBITS = 12                                                        *003 LM00008
                  VECTOR VALUES NULL = 0057K                                                      *004 LM00009
                  VECTOR VALUES ERASE = 0504K                                                     *005 LM00010
                  VECTOR VALUES KILL = 0506K                                                      *006 LM00011
                  VECTOR VALUES RETURN = 0055K                                                    *007 LM00012
                  VECTOR VALUES WRDSIZ = 36                                                       *008 LM00013
                  VECTOR VALUES CHMASK = 7777K                                                    *009 LM00014
                                                                                                       LM00015
                  ENTRY TO SETERS.                                                                *010 LM00016
                    ERASE = LINE                                                                  *011 LM00017
                    FUNCTION RETURN                                                               *012 LM00018
                                                                                                       LM00019
                  ENTRY TO SETKIL.                                                                *013 LM00020
                    KILL = LINE                                                                   *014 LM00021
                    FUNCTION RETURN                                                               *015 LM00022
                                                                                                       LM00023
                  ENTRY TO TYPEIN.                                                                *016 LM00024
                    SIZE = 0                                                                      *017 LM00025
                    TYLINE.                                                                       *018 LM00026
       LOOP         WORD = TYWORD.(0)                                                             *019 LM00027
                    THROUGH DISECT, FOR I = WRDSIZ-NBITS,-NBITS, I .L. 0                          *020 LM00028
                      CHAR = (WORD.RS.I) .A. CHMASK                                               *021 LM00029
                      WHENEVER CHAR .E. ERASE                                                     *022 LM00030
                        WHENEVER SIZE .G. 0, SIZE = SIZE - 1                                      *023 LM00031
                      OR WHENEVER CHAR .E. KILL                                                   *024 LM00032
                        SIZE = 0                                                                  *025 LM00033
                      OR WHENEVER CHAR .E. RETURN .OR. CHAR.RS.6 .E. RETURN                       *026 LM00034
                        TRANSFER TO UND                                                           *027 LM00035
                      OTHERWISE                                                                   *028 LM00036
                        SIZE = SIZE + 1                                                           *029 LM00037
                        LINE(SIZE) = CHAR                                                         *030 LM00038
                      END OF CONDITIONAL                                                          *031 LM00039
       DISECT         WHENEVER SIZE .GE. BUFSIZ, TRANSFER TO UND                                  *032 LM00040
                    TRANSFER TO LOOP                                                              *033 LM00041
       UND          CANON.(LINE, SIZE, BUFSIZ)                                                    *034 LM00042
                    SIZE = SIZE + 1                                                               *035 LM00043
                    LINE(SIZE) = RETURN                                                           *036 LM00044
                    FUNCTION RETURN SIZE                                                          *037 LM00045
                                                                                                       LM00046
                 ..     TYPEWRITER OUTPUT CHARACTER CONTROL ROUTINE.                                   LM00047
                 ..     USAGE. . .    TYPOUT.(LINE, LENGTH)                                            LM00048
                                                                                                       LM00049
                  ENTRY TO TYPOUT.                                                                *038 LM00050
                    K = 0                                                                         *039 LM00051
                    SETFUL.                                                                       *040 LM00052
                    THROUGH PRLOOP, FOR J = 1, 1, J .G. BUFSIZ                                    *041 LM00053
                      TWORD = (TWORD .LS. NBITS) .V. LINE(J)                                      *042 LM00054
                      K = K + 1                                                                   *043 LM00055
                      WHENEVER K .GE. WRDSIZ/NBITS                                                *044 LM00056
                        K = 0                                                                     *045 LM00057
                        PRWORD.(TWORD)                                                            *046 LM00058
       PRLOOP         END OF CONDITIONAL                                                          *047 LM00059
                    THROUGH NULPK, FOR K = K, 1, K.GE. WRDSIZ/NBITS                               *048 LM00060
       NULPK          TWORD = (TWORD.LS.NBITS) .V. NULL                                           *049 LM00061
                    PRWORD.(TWORD)                                                                *050 LM00062
                    PRBUFF.                                                                       *051 LM00063
                    FUNCTION RETURN                                                               *052 LM00064
                                                                                                       LM00065
                  ENTRY TO HOL.                                                                   *053 LM00066
                    WHENEVER LINE .A. 400K .E. 0                                                  *054 LM00067
                      FUNCTION RETURN LINE .A. 77K                                                *055 LM00068
                    OTHERWISE                                                                     *056 LM00069
                      FUNCTION RETURN $00000*$                                                    *057 LM00070
                    END OF CONDITIONAL                                                            *058 LM00071
                                                                                                       LM00072
                  END OF FUNCTION                                                                 *059 LM00073
1MAD PROGRAM,TYPE NOV 1963      (ALL NUMBERS ARE OCTAL)
0TOTAL LOCATIONS   00350 TRANSFER VECTOR LENGTH  00007 PROGRAM BEGINS    00037
0 PROGRAM IS AN EXTERNAL FUNCTION.   THE FOLLOWING ARE ENTRIES
      HOL    00277   0        TYPOUT 00175   0        TYPEIN 00054   0        SETKIL 00046   0        SETERS 00040   0
0VARIABLE STORAGE (A=ARRAY,C=COMMON,E=ERASABLE,DIGIT=MODE)
      CHAR   00012   1        I      00015   1        LOOP   00010   4        PRLOOP 00007   4        UND    00011   4
      CHMASK 00013 A 1        J      00016   1        NBITS  00021 A 1        RETURN 00023 A 1        WORD   00026   1
      DISECT 00007   4        KILL   00017 A 1        NULL   00022 A 1        SIZE   00024   1        WRDSIZ 00027 A 1
      ERASE  00014 A 1        K      00020   1        NULPK  00007   4        TWORD  00025   1
0FUNCTION DICTIONARY
      CANON  00000   1        EXIT   00001   1        PRBUFF 00002   1        PRWORD 00003   1        SETFUL 00004   1
      TYLINE 00005   1        TYWORD 00006   1
0ABSOLUTE CONSTANTS
 00033 +000000000054     00034 +000000000077     00035 +000000000400     00032 +000000000006     00030 +000000000000
 00031 +000000000001     00036 +233000000000
0STATEMENT DICTIONARY
 00010 TXL -300064000061       00011 TXL -300164000160
0PROGRAM
                 EXTERNAL FUNCTION(LINE, BUFSIZ)                                    001  LM00005
                 NORMAL MODE IS INTEGER                                             002  LM00007
                 VECTOR VALUES NBITS = 12                                           003  LM00008
 00021     +0 00000 0 00014
                 VECTOR VALUES NULL = 0057K                                         004  LM00009
 00022     +0 00000 0 00057
                 VECTOR VALUES ERASE = 0504K                                        005  LM00010
 00014     +0 00000 0 00504
                 VECTOR VALUES KILL = 0506K                                         006  LM00011
 00017     +0 00000 0 00506
                 VECTOR VALUES RETURN = 0055K                                       007  LM00012
 00023     +0 00000 0 00055
                 VECTOR VALUES WRDSIZ = 36                                          008  LM00013
 00027     +0 00000 0 00044
                 VECTOR VALUES CHMASK = 7777K                                       009  LM00014
 00013     +0 00000 0 07777
                 ENTRY TO SETERS.                                                   010  LM00016
 00037 TRA +0 02000 0 00042    00040 SXA +0 63400 2 00320    00041 TSX +0 07400 2 00320
                   ERASE = LINE                                                     011  LM00017
 00042 CLA +0 50000 0 00024    00043 STO +0 60100 0 00014
                   FUNCTION RETURN                                                  012  LM00018
 00044 TRA +0 02000 0 00341
                 ENTRY TO SETKIL.                                                   013  LM00020
 00045 TRA +0 02000 0 00050    00046 SXA +0 63400 2 00320    00047 TSX +0 07400 2 00320
                   KILL = LINE                                                      014  LM00021
 00050 CLA +0 50000 0 00024    00051 STO +0 60100 0 00017
                   FUNCTION RETURN                                                  015  LM00022
 00052 TRA +0 02000 0 00341
                 ENTRY TO TYPEIN.                                                   016  LM00024
 00053 TRA +0 02000 0 00056    00054 SXA +0 63400 2 00320    00055 TSX +0 07400 2 00320
                   SIZE = 0                                                         017  LM00025
 00056 CLA +0 50000 0 00030    00057 STO +0 60100 0 00024
                   TYLINE.                                                          018  LM00026
 00060 TSX +0 07400 4 00005
       LOOP        WORD = TYWORD.(0)                                                019  LM00027
 00061 TSX +0 07400 4 00006    00062 TXH +3 00000 0 00030    00063 STO +0 60100 0 00026
                   THROUGH DISECT, FOR I = WRDSIZ-NBITS,-NBITS, I .L. 0             020  LM00028
 00064 CLA +0 50000 0 00027    00065 SUB +0 40200 0 00021    00066 STO +0 60100 0 00015    00067 TRA +0 02000 0 00073
 00070 CLS +0 50200 0 00021    00071 ADD +0 40000 0 00015    00072 STO +0 60100 0 00015    00073 CLA +0 50000 0 00015
 00074 SUB +0 40200 0 00030    00075 TZE +0 10000 0 00077    00076 TMI -0 12000 0 00157
                     CHAR = (WORD.RS.I) .A. CHMASK                                  021  LM00029
 00077 CAL -0 50000 0 00015    00100 STA +0 62100 0 00102    00101 CAL -0 50000 0 00026    00102 LGR -0 76500 0 00000
 00103 ANA -0 32000 0 00013    00104 SLW +0 60200 0 00012
                     WHENEVER CHAR .E. ERASE                                        022  LM00030
 00105 CLA +0 50000 0 00012    00106 SUB +0 40200 0 00014    00107 TNZ -0 10000 0 00120
                       WHENEVER SIZE .G. 0, SIZE = SIZE - 1                         023  LM00031
 00110 CLA +0 50000 0 00024    00111 SUB +0 40200 0 00030    00112 TZE +0 10000 0 00117    00113 TMI -0 12000 0 00117
 00114 CLA +0 50000 0 00024    00115 SUB +0 40200 0 00031    00116 STO +0 60100 0 00024
                     OR WHENEVER CHAR .E. KILL                                      024  LM00032
 00117 TRA +0 02000 0 00151    00120 CLA +0 50000 0 00012    00121 SUB +0 40200 0 00017    00122 TNZ -0 10000 0 00126
                       SIZE = 0                                                     025  LM00033
 00123 CLA +0 50000 0 00030    00124 STO +0 60100 0 00024
                     O'R CHAR .E. RETURN .OR. CHAR.RS.6 .E. RETURN                  026  LM00034
 00125 TRA +0 02000 0 00151    00126 CAL -0 50000 0 00032    00127 STA +0 62100 0 00131    00130 CAL -0 50000 0 00012
 00131 LGR -0 76500 0 00000    00132 SLW +0 60200 0 00345    00133 CLA +0 50000 0 00345    00134 SUB +0 40200 0 00023
 00135 TZE +0 10000 0 00141    00136 CLA +0 50000 0 00012    00137 SUB +0 40200 0 00023    00140 TNZ -0 10000 0 00143
                       TRANSFER TO UND                                              027  LM00035
 00141 TRA +0 02000 0 00011
                     OTHERWISE                                                      028  LM00036
 00142 TRA +0 02000 0 00151
                       SIZE = SIZE + 1                                              029  LM00037
 00143 CLA +0 50000 0 00024    00144 ADD +0 40000 0 00031    00145 STO +0 60100 0 00024
                       LINE(SIZE) = CHAR                                            030  LM00038
 00146 LXA +0 53400 1 00024    00147 CLA +0 50000 0 00012    00150 STO +0 60100 1 00024
                     END OF CONDITIONAL                                             031  LM00039
       DISECT        WHENEVER SIZE .GE. BUFSIZ, TRANSFER TO UND                     032  LM00040
 00151 CLA +0 50000 0 00024    00152 SUB +0 40200 0 00024    00153 TZE +0 10000 0 00155    00154 TMI -0 12000 0 00156
 00155 TRA +0 02000 0 00011    00156 TRA +0 02000 0 00070
                   TRANSFER TO LOOP                                                 033  LM00041
 00157 TRA +0 02000 0 00010
       UND         CANON.(LINE, SIZE, BUFSIZ)                                       034  LM00042
 00160 TSX +0 07400 4 00000    00161 TXH +3 00000 0 00024    00162 TXH +3 00000 0 00024    00163 TXH +3 00000 0 00024
                   SIZE = SIZE + 1                                                  035  LM00043
 00164 CLA +0 50000 0 00024    00165 ADD +0 40000 0 00031    00166 STO +0 60100 0 00024
                   LINE(SIZE) = RETURN                                              036  LM00044
 00167 LXA +0 53400 1 00024    00170 CLA +0 50000 0 00023    00171 STO +0 60100 1 00024
                   FUNCTION RETURN SIZE                                             037  LM00045
 00172 CLA +0 50000 0 00024    00173 TRA +0 02000 0 00341
                 ENTRY TO TYPOUT.                                                   038  LM00050
 00174 TRA +0 02000 0 00177    00175 SXA +0 63400 2 00320    00176 TSX +0 07400 2 00320
                   K = 0                                                            039  LM00051
 00177 CLA +0 50000 0 00030    00200 STO +0 60100 0 00020
                   SETFUL.                                                          040  LM00052
 00201 TSX +0 07400 4 00004
                   THROUGH PRLOOP, FOR J = 1, 1, J .G. BUFSIZ                       041  LM00053
 00202 CLA +0 50000 0 00031    00203 STO +0 60100 0 00016    00204 TRA +0 02000 0 00210    00205 CLA +0 50000 0 00016
 00206 ADD +0 40000 0 00031    00207 STO +0 60100 0 00016    00210 CLA +0 50000 0 00016    00211 SUB +0 40200 0 00024
 00212 TZE +0 10000 0 00214    00213 TPL +0 12000 0 00244
                     TWORD = (TWORD .LS. NBITS) .V. LINE(J)                         042  LM00054
 00214 CAL -0 50000 0 00021    00215 STA +0 62100 0 00217    00216 CAL -0 50000 0 00025    00217 ALS +0 76700 0 00000
 00220 LXA +0 53400 2 00016    00221 ORA -0 50100 2 00024    00222 SLW +0 60200 0 00025
                     K = K + 1                                                      043  LM00055
 00223 CLA +0 50000 0 00020    00224 ADD +0 40000 0 00031    00225 STO +0 60100 0 00020
                     WHENEVER K .GE. WRDSIZ/NBITS                                   044  LM00056
 00226 LDQ +0 56000 0 00027    00227 PXD -0 75400 0 00000    00230 LLS +0 76300 0 00000    00231 DVP +0 22100 0 00021
 00232 XCA +0 13100 0 00000    00233 CHS +0 76000 0 00002    00234 ADD +0 40000 0 00020    00235 TZE +0 10000 0 00237
 00236 TMI -0 12000 0 00243
                       K = 0                                                        045  LM00057
 00237 CLA +0 50000 0 00030    00240 STO +0 60100 0 00020
                       PRWORD.(TWORD)                                               046  LM00058
 00241 TSX +0 07400 4 00003    00242 TXH +3 00000 0 00025
       PRLOOP        END OF CONDITIONAL                                             047  LM00059
 00243 TRA +0 02000 0 00205
                   THROUGH NULPK, FOR K = K, 1, K.GE. WRDSIZ/NBITS                  048  LM00060
 00244 CLA +0 50000 0 00020    00245 STO +0 60100 0 00020    00246 TRA +0 02000 0 00252    00247 CLA +0 50000 0 00020
 00250 ADD +0 40000 0 00031    00251 STO +0 60100 0 00020    00252 LDQ +0 56000 0 00027    00253 PXD -0 75400 0 00000
 00254 LLS +0 76300 0 00000    00255 DVP +0 22100 0 00021    00256 XCA +0 13100 0 00000    00257 CHS +0 76000 0 00002
 00260 ADD +0 40000 0 00020    00261 TZE +0 10000 0 00272    00262 TPL +0 12000 0 00272
       NULPK         TWORD = (TWORD.LS.NBITS) .V. NULL                              049  LM00061
 00263 CAL -0 50000 0 00021    00264 STA +0 62100 0 00266    00265 CAL -0 50000 0 00025    00266 ALS +0 76700 0 00000
 00267 ORA -0 50100 0 00022    00270 SLW +0 60200 0 00025    00271 TRA +0 02000 0 00247
                   PRWORD.(TWORD)                                                   050  LM00062
 00272 TSX +0 07400 4 00003    00273 TXH +3 00000 0 00025
                   PRBUFF.                                                          051  LM00063
 00274 TSX +0 07400 4 00002
                   FUNCTION RETURN                                                  052  LM00064
 00275 TRA +0 02000 0 00341
                 ENTRY TO HOL.                                                      053  LM00066
 00276 TRA +0 02000 0 00301    00277 SXA +0 63400 2 00320    00300 TSX +0 07400 2 00320
                   WHENEVER LINE .A. 400K .E. 0                                     054  LM00067
 00301 CAL -0 50000 0 00024    00302 ANA -0 32000 0 00035    00303 SLW +0 60200 0 00345    00304 CLA +0 50000 0 00345
 00305 SUB +0 40200 0 00030    00306 TNZ -0 10000 0 00315
                     FUNCTION RETURN LINE .A. 77K                                   055  LM00068
 00307 CAL -0 50000 0 00024    00310 ANA -0 32000 0 00034    00311 SLW +0 60200 0 00345    00312 CLA +0 50000 0 00345
 00313 TRA +0 02000 0 00341
                   OTHERWISE                                                        056  LM00069
 00314 TRA +0 02000 0 00317
                     FUNCTION RETURN $00000*$                                       057  LM00070
 00315 CLA +0 50000 0 00033    00316 TRA +0 02000 0 00341
                   END OF CONDITIONAL                                               058  LM00071
                 END OF FUNCTION                                                    059  LM00073
 00317 TSX +0 07400 4 00001    00320 TXH +3 00000 0 00000    00321 SXD -0 63400 1 00320    00322 SXA +0 63400 4 00341
 00323 CLA +0 50000 4 00001    00324 STA +0 62100 0 00042    00325 STA +0 62100 0 00050    00326 STA +0 62100 0 00150
 00327 STO +0 60100 0 00161    00330 STA +0 62100 0 00171    00331 STA +0 62100 0 00221    00332 STA +0 62100 0 00301
 00333 STA +0 62100 0 00307    00334 CLA +0 50000 4 00002    00335 STA +0 62100 0 00152    00336 STO +0 60100 0 00163
 00337 STA +0 62100 0 00211    00340 TRA +0 02000 2 00001    00341 AXT +0 77400 4 00000    00342 LXA +0 53400 2 00320
 00343 LXD -0 53400 1 00320    00344 TRA +0 02000 4 00001
1     MAD PROGRAM LISTING ... ... ...                 FILE   REUND   MAD            02/08/68    1745.9
-
                 ..  FUNCTION REUND.                                                                   LM00001
                 ..  REFORMAT UNDERLINES AND OVERSTRIKES.                                              LM00002
                                                                                                       LM00003
                 ..  EARL VAN HORN, NOVEMBER, 1964.                                                    LM00004
                                                                                                       LM00005
                  EXTERNAL FUNCTION(LIN,SIZE,BUFSIZ)                                              *001 LM00006
                                                                                                       LM00007
                  NORMAL MODE IS INTEGER                                                          *002 LM00008
                  BOOLEAN ADVAN                                                                   *003 LM00009
                  VECTOR VALUES BACKSP = 0135K                                                    *004 LM00010
                  VECTOR VALUES BLANK = 0060K                                                     *005 LM00011
                  VECTOR VALUES UNDER = 0540K                                                     *006 LM00012
                                                                                                       LM00013
                  ENTRY TO CANON.                                                                 *007 LM00014
                  WHENEVER SIZE .GE. BUFSIZ, FUNCTION RETURN                                      *008 LM00015
                  ADVAN = 1B                                                                      *009 LM00016
                  THROUGH L11, FOR STRING = 1, 1, STRING .G. SIZE                                 *010 LM00017
                  WHENEVER ADVAN                                                                  *011 LM00018
                    WHENEVER LIN(STRING) .E. BACKSP                                               *012 LM00019
                      ADVAN = 0B                                                                  *013 LM00020
                      CARAGE = STRING                                                             *014 LM00021
                      FAREST = STRING                                                             *015 LM00022
                      TRANSFER TO L7                                                              *016 LM00023
                    END OF CONDITIONAL                                                            *017 LM00024
                    TRANSFER TO L11                                                               *018 LM00025
                  OTHERWISE                                                                       *019 LM00026
                    STR = LIN(STRING)                                                             *020 LM00027
                    CAR = LIN(CARAGE)                                                             *021 LM00028
                    WHENEVER STR .E. BACKSP, TRANSFER TO L7                                       *022 LM00029
                    WHENEVER STR .E. BLANK, TRANSFER TO L5                                        *023 LM00030
                    WHENEVER STR .E. UNDER                                                        *024 LM00031
                      WHENEVER (CAR .A. 3K11) .NE. 0                                              *025 LM00032
                        LIN(CARAGE) = (CAR .V. 1K11)                                              *026 LM00033
                      OR WHENEVER CAR .E. BLANK                                                   *027 LM00034
                        LIN(CARAGE) = STR                                                         *028 LM00035
                      OR WHENEVER CAR .NE. UNDER                                                  *029 LM00036
                        LIN(CARAGE) = (CAR .V. 1K11)                                              *030 LM00037
                      END OF CONDITIONAL                                                          *031 LM00038
                    OTHERWISE                                                                     *032 LM00039
                      WHENEVER (CAR .A. 2K11) .NE. 0                                              *033 LM00040
                1           .OR. (CAR .A. 7777K) .E. STR, TRANSFER TO L5                          *033 LM00041
                      WHENEVER CAR .E. BLANK                                                      *034 LM00042
                        LIN(CARAGE) = STR                                                         *035 LM00043
                      OR WHENEVER CAR .E. UNDER                                                   *036 LM00044
                        LIN(CARAGE) = (STR .V. 1K11)                                              *037 LM00045
                      OTHERWISE                                                                   *038 LM00046
                        EARLT = (CAR .A. 7777K)                                                   *039 LM00047
                        WHENEVER STR .L. EARLT                                                    *040 LM00048
                          EARLT = STR                                                             *041 LM00049
                          STR = (CAR .A. 7777K)                                                   *042 LM00050
                        END OF CONDITIONAL                                                        *043 LM00051
                        LIN(CARAGE) = ((((STR .LS. 12) .V. EARLT)                                 *044 LM00052
                1           .V. 2K11) .V. (CAR .A. 1K11))                                         *044 LM00053
                      END OF CONDITIONAL                                                          *045 LM00054
                    END OF CONDITIONAL                                                            *046 LM00055
                  END OF CONDITIONAL                                                              *047 LM00056
      L5          CARAGE = CARAGE + 1                                                             *048 LM00057
                  WHENEVER (LIN(CARAGE) .A. 4K10) .NE. 0                                          *049 LM00058
                1           .AND. CARAGE .NE. FAREST                                              *049 LM00059
                2           , TRANSFER TO L5                                                      *049 LM00060
                  TRANSFER TO L6                                                                  *050 LM00061
      L7          WHENEVER CARAGE .E. 1, TRANSFER TO L6                                           *051 LM00062
                  CARAGE = CARAGE - 1                                                             *052 LM00063
                  WHENEVER (LIN(CARAGE) .A. 4K10) .NE. 0                                          *053 LM00064
                1           , TRANSFER TO L7                                                      *053 LM00065
      L6          LIN(STRING) = (LIN(STRING) .V. 4K10)                                            *054 LM00066
                  WHENEVER CARAGE .E. FAREST .AND. .NOT. ADVAN                                    *055 LM00067
                1           , ADVAN = 1B                                                          *055 LM00068
      L11         CONTINUE                                                                        *056 LM00069
                  J = BUFSIZ                                                                      *057 LM00070
                  THROUGH L33, FOR I = SIZE, -1, I .L. 1                                          *058 LM00071
                  WHENEVER (LIN(I) .A. 4K10) .E. 0                                                *059 LM00072
                    LIN(J) = LIN(I)                                                               *060 LM00073
                    J = J - 1                                                                     *061 LM00074
                  END OF CONDITIONAL                                                              *062 LM00075
      L33         CONTINUE                                                                        *063 LM00076
                  I = 1                                                                           *064 LM00077
                  THROUGH L44, FOR J = J + 1, 1, J .G. BUFSIZ                                     *065 LM00078
                  EARLT = LIN(J)                                                                  *066 LM00079
                  WHENEVER (EARLT .A. 3K11) .E. 0                                                 *067 LM00080
                    LIN(I) = EARLT                                                                *068 LM00081
                  OTHERWISE                                                                       *069 LM00082
                    LIN(I) = (EARLT .A. 7777K)                                                    *070 LM00083
                    WHENEVER (EARLT .A. 2K11) .NE. 0                                              *071 LM00084
                      LIN(I+1) = BACKSP                                                           *072 LM00085
                      LIN(I+2) = ((EARLT .A. 7777K4) .RS. 12)                                     *073 LM00086
                      I = I + 2                                                                   *074 LM00087
                    END OF CONDITIONAL                                                            *075 LM00088
                    WHENEVER (EARLT .A. 1K11) .NE. 0                                              *076 LM00089
                      LIN(I+1) = BACKSP                                                           *077 LM00090
                      LIN(I+2) = UNDER                                                            *078 LM00091
                      I = I + 2                                                                   *079 LM00092
                    END OF CONDITIONAL                                                            *080 LM00093
                  END OF CONDITIONAL                                                              *081 LM00094
                  I = I + 1                                                                       *082 LM00095
      L44         CONTINUE                                                                        *083 LM00096
                  SIZE = I - 1                                                                    *084 LM00097
                  FUNCTION RETURN                                                                 *085 LM00098
                                                                                                       LM00099
                  END OF FUNCTION                                                                 *086 LM00100
1MAD PROGRAM,TYPE NOV 1963      (ALL NUMBERS ARE OCTAL)
0TOTAL LOCATIONS   00545 TRANSFER VECTOR LENGTH  00001 PROGRAM BEGINS    00035
0 PROGRAM IS AN EXTERNAL FUNCTION.   THE FOLLOWING ARE ENTRIES
      CANON  00036   0
0VARIABLE STORAGE (A=ARRAY,C=COMMON,E=ERASABLE,DIGIT=MODE)
      ADVAN  00006   2        CAR    00012   1        J      00016   1        L5     00003   4        STRING 00017   1
      BACKSP 00007 A 1        EARLT  00013   1        L11    00002   4        L6     00004   4        STR    00020   1
      BLANK  00010 A 1        FAREST 00014   1        L33    00001   4        L7     00005   4        UNDER  00021 A 1
      CARAGE 00011   1        I      00015   1        L44    00001   4
0FUNCTION DICTIONARY
      EXIT   00000   1
0ABSOLUTE CONSTANTS
 00024 +000000000002     00027 +000077770000     00030 +040000000000     00025 +000000000014     00032 +200000000000
 00026 +000000007777     00031 +100000000000     00034 +300000000000     00022 +000000000000     00023 +000000000001
 00033 +233000000000
0STATEMENT DICTIONARY
 00002 TXL -300311000310       00003 TXL -300242000237       00004 TXL -300301000275       00005 TXL -300262000256
0PROGRAM
                 EXTERNAL FUNCTION(LIN,SIZE,BUFSIZ)                                 001  LM00006
                 NORMAL MODE IS INTEGER                                             002  LM00008
                 BOOLEAN ADVAN                                                      003  LM00009
                 VECTOR VALUES BACKSP = 0135K                                       004  LM00010
 00007     +0 00000 0 00135
                 VECTOR VALUES BLANK = 0060K                                        005  LM00011
 00010     +0 00000 0 00060
                 VECTOR VALUES UNDER = 0540K                                        006  LM00012
 00021     +0 00000 0 00540
                 ENTRY TO CANON.                                                    007  LM00014
 00035 TRA +0 02000 0 00040    00036 SXA +0 63400 2 00471    00037 TSX +0 07400 2 00471
                 WHENEVER SIZE .GE. BUFSIZ, FUNCTION RETURN                         008  LM00015
 00040 CLA +0 50000 0 00024    00041 SUB +0 40200 0 00024    00042 TZE +0 10000 0 00044    00043 TMI -0 12000 0 00045
 00044 TRA +0 02000 0 00536
                 ADVAN = 1B                                                         009  LM00016
 00045 CLA +0 50000 0 00023    00046 STO +0 60100 0 00006
                 THROUGH L11, FOR STRING = 1, 1, STRING .G. SIZE                    010  LM00017
 00047 CLA +0 50000 0 00023    00050 STO +0 60100 0 00017    00051 TRA +0 02000 0 00055    00052 CLA +0 50000 0 00017
 00053 ADD +0 40000 0 00023    00054 STO +0 60100 0 00017    00055 CLA +0 50000 0 00017    00056 SUB +0 40200 0 00024
 00057 TZE +0 10000 0 00061    00060 TPL +0 12000 0 00311
                 WHENEVER ADVAN                                                     011  LM00018
 00061 NZT -0 52000 0 00006    00062 TRA +0 02000 0 00100
                   WHENEVER LIN(STRING) .E. BACKSP                                  012  LM00019
 00063 LXA +0 53400 1 00017    00064 CLA +0 50000 1 00024    00065 SUB +0 40200 0 00007    00066 TNZ -0 10000 0 00076
                     ADVAN = 0B                                                     013  LM00020
 00067 CLA +0 50000 0 00022    00070 STO +0 60100 0 00006
                     CARAGE = STRING                                                014  LM00021
 00071 CLA +0 50000 0 00017    00072 STO +0 60100 0 00011
                     FAREST = STRING                                                015  LM00022
 00073 CLA +0 50000 0 00017    00074 STO +0 60100 0 00014
                     TRANSFER TO L7                                                 016  LM00023
 00075 TRA +0 02000 0 00005
                   END OF CONDITIONAL                                               017  LM00024
                   TRANSFER TO L11                                                  018  LM00025
 00076 TRA +0 02000 0 00002
                 OTHERWISE                                                          019  LM00026
 00077 TRA +0 02000 0 00237
                   STR = LIN(STRING)                                                020  LM00027
 00100 LXA +0 53400 2 00017    00101 CLA +0 50000 2 00024    00102 STO +0 60100 0 00020
                   CAR = LIN(CARAGE)                                                021  LM00028
 00103 LXA +0 53400 2 00011    00104 CLA +0 50000 2 00024    00105 STO +0 60100 0 00012
                   WHENEVER STR .E. BACKSP, TRANSFER TO L7                          022  LM00029
 00106 CLA +0 50000 0 00020    00107 SUB +0 40200 0 00007    00110 TNZ -0 10000 0 00112    00111 TRA +0 02000 0 00005
                   WHENEVER STR .E. BLANK, TRANSFER TO L5                           023  LM00030
 00112 CLA +0 50000 0 00020    00113 SUB +0 40200 0 00010    00114 TNZ -0 10000 0 00116    00115 TRA +0 02000 0 00003
                   WHENEVER STR .E. UNDER                                           024  LM00031
 00116 CLA +0 50000 0 00020    00117 SUB +0 40200 0 00021    00120 TNZ -0 10000 0 00153
                     WHENEVER (CAR .A. 3K11) .NE. 0                                 025  LM00032
 00121 CAL -0 50000 0 00012    00122 ANA -0 32000 0 00034    00123 SLW +0 60200 0 00542    00124 CLA +0 50000 0 00542
 00125 SUB +0 40200 0 00022    00126 TZE +0 10000 0 00134
                       LIN(CARAGE) = (CAR .V. 1K11)                                 026  LM00033
 00127 CAL -0 50000 0 00012    00130 ORA -0 50100 0 00031    00131 LXA +0 53400 1 00011    00132 SLW +0 60200 1 00024
                     OR WHENEVER CAR .E. BLANK                                      027  LM00034
 00133 TRA +0 02000 0 00152    00134 CLA +0 50000 0 00012    00135 SUB +0 40200 0 00010    00136 TNZ -0 10000 0 00143
                       LIN(CARAGE) = STR                                            028  LM00035
 00137 LXA +0 53400 1 00011    00140 CLA +0 50000 0 00020    00141 STO +0 60100 1 00024
                     OR WHENEVER CAR .NE. UNDER                                     029  LM00036
 00142 TRA +0 02000 0 00152    00143 CLA +0 50000 0 00012    00144 SUB +0 40200 0 00021    00145 TZE +0 10000 0 00152
                       LIN(CARAGE) = (CAR .V. 1K11)                                 030  LM00037
 00146 CAL -0 50000 0 00012    00147 ORA -0 50100 0 00031    00150 LXA +0 53400 1 00011    00151 SLW +0 60200 1 00024
                     END OF CONDITIONAL                                             031  LM00038
                   OTHERWISE                                                        032  LM00039
 00152 TRA +0 02000 0 00237
                     WHENEVER (CAR .A. 2K11) .NE. 0                                 033  LM00040
                1          .OR. (CAR .A. 7777K) .E. STR, TRANSFER TO L5             033  LM00041
 00153 CAL -0 50000 0 00012    00154 ANA -0 32000 0 00026    00155 SLW +0 60200 0 00542    00156 CLA +0 50000 0 00542
 00157 SUB +0 40200 0 00020    00160 TZE +0 10000 0 00167    00161 CAL -0 50000 0 00012    00162 ANA -0 32000 0 00032
 00163 SLW +0 60200 0 00542    00164 CLA +0 50000 0 00542    00165 SUB +0 40200 0 00022    00166 TZE +0 10000 0 00170
 00167 TRA +0 02000 0 00003
                     WHENEVER CAR .E. BLANK                                         034  LM00042
 00170 CLA +0 50000 0 00012    00171 SUB +0 40200 0 00010    00172 TNZ -0 10000 0 00177
                       LIN(CARAGE) = STR                                            035  LM00043
 00173 LXA +0 53400 1 00011    00174 CLA +0 50000 0 00020    00175 STO +0 60100 1 00024
                     OR WHENEVER CAR .E. UNDER                                      036  LM00044
 00176 TRA +0 02000 0 00237    00177 CLA +0 50000 0 00012    00200 SUB +0 40200 0 00021    00201 TNZ -0 10000 0 00207
                       LIN(CARAGE) = (STR .V. 1K11)                                 037  LM00045
 00202 CAL -0 50000 0 00020    00203 ORA -0 50100 0 00031    00204 LXA +0 53400 1 00011    00205 SLW +0 60200 1 00024
                     OTHERWISE                                                      038  LM00046
 00206 TRA +0 02000 0 00237
                       EARLT = (CAR .A. 7777K)                                      039  LM00047
 00207 CAL -0 50000 0 00012    00210 ANA -0 32000 0 00026    00211 SLW +0 60200 0 00013
                       WHENEVER STR .L. EARLT                                       040  LM00048
 00212 CLA +0 50000 0 00020    00213 SUB +0 40200 0 00013    00214 TZE +0 10000 0 00223    00215 TPL +0 12000 0 00223
                         EARLT = STR                                                041  LM00049
 00216 CLA +0 50000 0 00020    00217 STO +0 60100 0 00013
                         STR = (CAR .A. 7777K)                                      042  LM00050
 00220 CAL -0 50000 0 00012    00221 ANA -0 32000 0 00026    00222 SLW +0 60200 0 00020
                       END OF CONDITIONAL                                           043  LM00051
                       LIN(CARAGE) = ((((STR .LS. 12) .V. EARLT)                    044  LM00052
                1          .V. 2K11) .V. (CAR .A. 1K11))                            044  LM00053
 00223 CAL -0 50000 0 00012    00224 ANA -0 32000 0 00031    00225 SLW +0 60200 0 00542    00226 CAL -0 50000 0 00025
 00227 STA +0 62100 0 00231    00230 CAL -0 50000 0 00020    00231 ALS +0 76700 0 00000    00232 ORA -0 50100 0 00013
 00233 ORA -0 50100 0 00032    00234 ORA -0 50100 0 00542    00235 LXA +0 53400 1 00011    00236 SLW +0 60200 1 00024
                     END OF CONDITIONAL                                             045  LM00054
                   END OF CONDITIONAL                                               046  LM00055
                 END OF CONDITIONAL                                                 047  LM00056
      L5         CARAGE = CARAGE + 1                                                048  LM00057
 00237 CLA +0 50000 0 00011    00240 ADD +0 40000 0 00023    00241 STO +0 60100 0 00011
                 WHENEVER (LIN(CARAGE) .A. 4K10) .NE. 0                             049  LM00058
                1          .AND. CARAGE .NE. FAREST                                 049  LM00059
                2          , TRANSFER TO L5                                         049  LM00060
 00242 CLA +0 50000 0 00011    00243 SUB +0 40200 0 00014    00244 TZE +0 10000 0 00255    00245 LXA +0 53400 1 00011
 00246 CAL -0 50000 1 00024    00247 ANA -0 32000 0 00030    00250 SLW +0 60200 0 00542    00251 CLA +0 50000 0 00542
 00252 SUB +0 40200 0 00022    00253 TZE +0 10000 0 00255    00254 TRA +0 02000 0 00003
                 TRANSFER TO L6                                                     050  LM00061
 00255 TRA +0 02000 0 00004
      L7         WHENEVER CARAGE .E. 1, TRANSFER TO L6                              051  LM00062
 00256 CLA +0 50000 0 00011    00257 SUB +0 40200 0 00023    00260 TNZ -0 10000 0 00262    00261 TRA +0 02000 0 00004
                 CARAGE = CARAGE - 1                                                052  LM00063
 00262 CLA +0 50000 0 00011    00263 SUB +0 40200 0 00023    00264 STO +0 60100 0 00011
                 WHENEVER (LIN(CARAGE) .A. 4K10) .NE. 0                             053  LM00064
                1          , TRANSFER TO L7                                         053  LM00065
 00265 LXA +0 53400 1 00011    00266 CAL -0 50000 1 00024    00267 ANA -0 32000 0 00030    00270 SLW +0 60200 0 00542
 00271 CLA +0 50000 0 00542    00272 SUB +0 40200 0 00022    00273 TZE +0 10000 0 00275    00274 TRA +0 02000 0 00005
      L6         LIN(STRING) = (LIN(STRING) .V. 4K10)                               054  LM00066
 00275 LXA +0 53400 1 00017    00276 CAL -0 50000 1 00024    00277 ORA -0 50100 0 00030    00300 SLW +0 60200 1 00024
                 WHENEVER CARAGE .E. FAREST .AND. .NOT. ADVAN                       055  LM00067
                1          , ADVAN = 1B                                             055  LM00068
 00301 ZET +0 52000 0 00006    00302 TRA +0 02000 0 00310    00303 CLA +0 50000 0 00011    00304 SUB +0 40200 0 00014
 00305 TNZ -0 10000 0 00310    00306 CLA +0 50000 0 00023    00307 STO +0 60100 0 00006
      L11        CONTINUE                                                           056  LM00069
 00310 TRA +0 02000 0 00052
                 J = BUFSIZ                                                         057  LM00070
 00311 CLA +0 50000 0 00024    00312 STO +0 60100 0 00016
                 THROUGH L33, FOR I = SIZE, -1, I .L. 1                             058  LM00071
 00313 CLA +0 50000 0 00024    00314 STO +0 60100 0 00015    00315 TRA +0 02000 0 00321    00316 CLS +0 50200 0 00023
 00317 ADD +0 40000 0 00015    00320 STO +0 60100 0 00015    00321 CLA +0 50000 0 00015    00322 SUB +0 40200 0 00023
 00323 TZE +0 10000 0 00325    00324 TMI -0 12000 0 00344
                 WHENEVER (LIN(I) .A. 4K10) .E. 0                                   059  LM00072
 00325 LXA +0 53400 1 00015    00326 CAL -0 50000 1 00024    00327 ANA -0 32000 0 00030    00330 SLW +0 60200 0 00542
 00331 CLA +0 50000 0 00542    00332 SUB +0 40200 0 00022    00333 TNZ -0 10000 0 00343
                   LIN(J) = LIN(I)                                                  060  LM00073
 00334 LXA +0 53400 1 00016    00335 LXA +0 53400 2 00015    00336 CLA +0 50000 2 00024    00337 STO +0 60100 1 00024
                   J = J - 1                                                        061  LM00074
 00340 CLA +0 50000 0 00016    00341 SUB +0 40200 0 00023    00342 STO +0 60100 0 00016
                 END OF CONDITIONAL                                                 062  LM00075
      L33        CONTINUE                                                           063  LM00076
 00343 TRA +0 02000 0 00316
                 I = 1                                                              064  LM00077
 00344 CLA +0 50000 0 00023    00345 STO +0 60100 0 00015
                 THROUGH L44, FOR J = J + 1, 1, J .G. BUFSIZ                        065  LM00078
 00346 CLA +0 50000 0 00016    00347 ADD +0 40000 0 00023    00350 STO +0 60100 0 00016    00351 TRA +0 02000 0 00355
 00352 CLA +0 50000 0 00016    00353 ADD +0 40000 0 00023    00354 STO +0 60100 0 00016    00355 CLA +0 50000 0 00016
 00356 SUB +0 40200 0 00024    00357 TZE +0 10000 0 00361    00360 TPL +0 12000 0 00464
                 EARLT = LIN(J)                                                     066  LM00079
 00361 LXA +0 53400 2 00016    00362 CLA +0 50000 2 00024    00363 STO +0 60100 0 00013
                 WHENEVER (EARLT .A. 3K11) .E. 0                                    067  LM00080
 00364 CAL -0 50000 0 00013    00365 ANA -0 32000 0 00034    00366 SLW +0 60200 0 00542    00367 CLA +0 50000 0 00542
 00370 SUB +0 40200 0 00022    00371 TNZ -0 10000 0 00376
                   LIN(I) = EARLT                                                   068  LM00081
 00372 LXA +0 53400 1 00015    00373 CLA +0 50000 0 00013    00374 STO +0 60100 1 00024
                 OTHERWISE                                                          069  LM00082
 00375 TRA +0 02000 0 00460
                   LIN(I) = (EARLT .A. 7777K)                                       070  LM00083
 00376 CAL -0 50000 0 00013    00377 ANA -0 32000 0 00026    00400 LXA +0 53400 1 00015    00401 SLW +0 60200 1 00024
                   WHENEVER (EARLT .A. 2K11) .NE. 0                                 071  LM00084
 00402 CAL -0 50000 0 00013    00403 ANA -0 32000 0 00032    00404 SLW +0 60200 0 00542    00405 CLA +0 50000 0 00542
 00406 SUB +0 40200 0 00022    00407 TZE +0 10000 0 00435
                     LIN(I+1) = BACKSP                                              072  LM00085
 00410 CLA +0 50000 0 00015    00411 ADD +0 40000 0 00023    00412 PAX +0 73400 1 00000    00413 CLA +0 50000 0 00007
 00414 STO +0 60100 1 00024
                     LIN(I+2) = ((EARLT .A. 7777K4) .RS. 12)                        073  LM00086
 00415 CAL -0 50000 0 00013    00416 ANA -0 32000 0 00027    00417 SLW +0 60200 0 00542    00420 CAL -0 50000 0 00025
 00421 STA +0 62100 0 00423    00422 CAL -0 50000 0 00542    00423 LGR -0 76500 0 00000    00424 SLW +0 60200 0 00542
 00425 CLA +0 50000 0 00015    00426 ADD +0 40000 0 00024    00427 PAX +0 73400 1 00000    00430 CLA +0 50000 0 00542
 00431 STO +0 60100 1 00024
                     I = I + 2                                                      074  LM00087
 00432 CLA +0 50000 0 00015    00433 ADD +0 40000 0 00024    00434 STO +0 60100 0 00015
                   END OF CONDITIONAL                                               075  LM00088
                   WHENEVER (EARLT .A. 1K11) .NE. 0                                 076  LM00089
 00435 CAL -0 50000 0 00013    00436 ANA -0 32000 0 00031    00437 SLW +0 60200 0 00542    00440 CLA +0 50000 0 00542
 00441 SUB +0 40200 0 00022    00442 TZE +0 10000 0 00460
                     LIN(I+1) = BACKSP                                              077  LM00090
 00443 CLA +0 50000 0 00015    00444 ADD +0 40000 0 00023    00445 PAX +0 73400 1 00000    00446 CLA +0 50000 0 00007
 00447 STO +0 60100 1 00024
                     LIN(I+2) = UNDER                                               078  LM00091
 00450 CLA +0 50000 0 00015    00451 ADD +0 40000 0 00024    00452 PAX +0 73400 1 00000    00453 CLA +0 50000 0 00021
 00454 STO +0 60100 1 00024
                     I = I + 2                                                      079  LM00092
 00455 CLA +0 50000 0 00015    00456 ADD +0 40000 0 00024    00457 STO +0 60100 0 00015
                   END OF CONDITIONAL                                               080  LM00093
                 END OF CONDITIONAL                                                 081  LM00094
                 I = I + 1                                                          082  LM00095
 00460 CLA +0 50000 0 00015    00461 ADD +0 40000 0 00023    00462 STO +0 60100 0 00015
      L44        CONTINUE                                                           083  LM00096
 00463 TRA +0 02000 0 00352
                 SIZE = I - 1                                                       084  LM00097
 00464 CLA +0 50000 0 00015    00465 SUB +0 40200 0 00023    00466 STO +0 60100 0 00024
                 FUNCTION RETURN                                                    085  LM00098
 00467 TRA +0 02000 0 00536
                 END OF FUNCTION                                                    086  LM00100
 00470 TSX +0 07400 4 00000    00471 TXH +3 00000 0 00000    00472 SXD -0 63400 1 00471    00473 SXA +0 63400 4 00536
 00474 CLA +0 50000 4 00001    00475 STA +0 62100 0 00064    00476 STA +0 62100 0 00101    00477 STA +0 62100 0 00104
 00500 STA +0 62100 0 00132    00501 STA +0 62100 0 00141    00502 STA +0 62100 0 00151    00503 STA +0 62100 0 00175
 00504 STA +0 62100 0 00205    00505 STA +0 62100 0 00236    00506 STA +0 62100 0 00246    00507 STA +0 62100 0 00266
 00510 STA +0 62100 0 00276    00511 STA +0 62100 0 00300    00512 STA +0 62100 0 00326    00513 STA +0 62100 0 00336
 00514 STA +0 62100 0 00337    00515 STA +0 62100 0 00362    00516 STA +0 62100 0 00374    00517 STA +0 62100 0 00401
 00520 STA +0 62100 0 00414    00521 STA +0 62100 0 00431    00522 STA +0 62100 0 00447    00523 STA +0 62100 0 00454
 00524 CLA +0 50000 4 00002    00525 STA +0 62100 0 00040    00526 STA +0 62100 0 00056    00527 STA +0 62100 0 00313
 00530 STA +0 62100 0 00466    00531 CLA +0 50000 4 00003    00532 STA +0 62100 0 00041    00533 STA +0 62100 0 00311
 00534 STA +0 62100 0 00356    00535 TRA +0 02000 2 00001    00536 AXT +0 77400 4 00000    00537 LXA +0 53400 2 00471
 00540 LXD -0 53400 1 00471    00541 TRA +0 02000 4 00001
1            BUFFER CONTROL ROUTINE FOR TYPEWRITER OUTPUT.                                       PAGE 1

                              *
                              *      J. H. SALTZER, JANUARY, 1965.
                              *
                       00004         ENTRY   PRWORD        ADD A WORD TO PRINT BUFFER.
                       00021         ENTRY   PRBUFF        PRINT OUT PARTIAL BUFFER.
                       00030         ENTRY   TYWORD        GET NEXT TYPED WORD.
                       00047         ENTRY   TYLINE        RESET TO START READING NEXT LINE.
                              *
                                     EXTERN RDFLXA,WRFLXA
                              *

        TRANSFER VECTOR
      00000  512426436721     RDFLXA
      00001  665126436721     WRFLXA

            LINKAGE DIRECTOR
      00002  000000000000
      00003  475166465124

                       00034  BUFLEN EQU     28            TYPEWRITER BUFFER SIZE.
                              *
                              *      ADD WORD TO PRINT BUFFER.
                              *      PRWORD.(WORD)
                              *
      00004  0634 00 4 00017  PRWORD SXA     PRX4,4        SAVE LINKAGE.
      00005 -0500 60 4 00001         CAL*    1,4           GET WORD BEING ADDED.
      00006 -0734 00 4 00000         PDX     0,4           CHECK FOR DISK CONTROL WORD.
      00007  3 77776 4 00017         TXH     PRX4,4,-2     DON'T STORE CONTROL WORD.
      00010  0774 00 4 00034   PWCNT AXT     BUFLEN,4      SET WORD COUNTER (INITIALLY BUFLEN.)
      00011  0602 00 4 00105         SLW     BUFF+BUFLEN,4 STORE WORD IN BUFFER.
      00012  2 00001 4 00016         TIX     PSAVE,4,1     COUNT, CHECK FOR OVERFLOW.
      00013  0074 00 4 00001         TSX     WRFLXA,4      BUFFER FULL, PRINT W/O C.R.
      00014  0 00034 0 00051                 BUFF,,BUFLEN  ..
      00015  0774 00 4 00034  PFRESH AXT     BUFLEN,4      RESET WORD COUNTER.
      00016  0634 00 4 00010   PSAVE SXA     PWCNT,4       SAVE WORD COUNTER.
      00017  0774 00 4 00000   PRX4  AXT     --,4          RESTORE LINKAGE.
      00020  0020 00 4 00001         TRA     1,4           RETURN.
                              *
                              *      PRINT OUT REMAINING BUFFER, RESET COUNTER.
                              *
      00021  0634 00 4 00017  PRBUFF SXA     PRX4,4        SAVE LINKAGE.
      00022  0535 00 4 00010         LAC     PWCNT,4       GET WORD COUNT.
      00023  1 00034 4 00024         TXI     *+1,4,BUFLEN  FORM COMPLEMENT MOD BUFLEN.
      00024 -0634 00 4 00026         SXD     PRCL,4        SAVE COUNT IN CALLER.
      00025  0074 00 4 00001         TSX     WRFLXA,4      PRINT REMAINDER.
      00026  0 00000 0 00051   PRCL          BUFF,,--      ..
      00027  0020 00 0 00015         TRA     PFRESH        GO REFRESH COUNTER, AND RETURN.
                              *
                              *      GET A WORD FROM INPUT BUFFER.
                              *         WORD = TYWORD.(0)
                              *
      00030  0634 00 4 00045  TYWORD SXA     TYX4,4        SAVE LINKAGE.
      00031  0774 00 5 00000  TYCNT  AXT     --,5          GET WORD COUNTER.
      00032  0774 00 4 00000  TYPOS  AXT     --,4          GET BUFFER POINTER.
      00033  2 00006 5 00041         TIX     TYGET,5,6     CHECK FOR WORDS LEFT.
      00034  0074 00 4 00000         TSX     RDFLXA,4      NO, GET SOME.
1            BUFFER CONTROL ROUTINE FOR TYPEWRITER OUTPUT.                                       PAGE 2

      00035  0 00034 0 00051  TYCALL         BUFF,,BUFLEN  ..
      00036  0734 00 5 00000         PAX     0,5           INSERT 6-BIT CHARACTER COUNT INTO COUNTER.
      00037  2 40000 5 00040         TIX     *+1,5,16384   REMOVE BIT 21 IF PRESENT.
      00040  0774 00 4 00000         AXT     0,4           RESET INPUT BUFFER POINTER.
      00041  0500 00 4 00051  TYGET  CLA     BUFF,4        GET A WORD.
      00042  1 77777 4 00043         TXI     *+1,4,-1      MOVE POINTER TO NEXT WORD.
      00043  0634 00 4 00032         SXA     TYPOS,4       SAVE POINTER.
      00044  0634 00 5 00031         SXA     TYCNT,5       SAVE CHARACTER COUNTER.
      00045  0774 00 4 00000  TYX4   AXT     --,4          RESTORE LINKAGE.
      00046  0020 00 4 00001         TRA     1,4           RETURN.
                              *
      00047  0634 00 0 00031  TYLINE ZSA     TYCNT         RESET CHARACTER COUNT TO MAKE LINE EMPTY.
      00050  0020 00 4 00001         TRA     1,4           RETURN
                              *
      00051                   BUFF   BSS     BUFLEN            OUTPUT BUFFER.
                              *
                                     END
1            BUFFER CONTROL ROUTINE FOR TYPEWRITER OUTPUT.                                       PAGE 1
                        POST PROCESSOR ASSEMBLY DATA

        105 IS THE FIRST LOCATION NOT USED BY THIS PROGRAM

0REFERENCES TO DEFINED SYMBOLS
         51   BUFF    11,   14,   26,   35,   41
         26   PRCL    24
         17   PRX4     4,    7,   21
         45   TYX4    30
         16  PSAVE    12
         10  PWCNT    16,   22
         31  TYCNT    44,   47
         41  TYGET    33
         32  TYPOS    43
         34 BUFLEN     4,   10,   11,   14,   15,   23,   35,   51
         15 PFRESH    27
         21 PRBUFF     0
          4 PRWORD     0
          0 RDFLXA    34
         35 TYCALL
         47 TYLINE     0
         30 TYWORD     0
          1 WRFLXA    13,   25

0 NO ERROR IN ABOVE ASSEMBLY.
1            SUBROUTINE TO CONVERT BCD NUMBER TO BINARY.                                         PAGE 1

                              *
                              *        J. H. SALTZER, MAY, 1966.
                       00002         ENTRY   BIN           CONVERTER.

            LINKAGE DIRECTOR
      00000  000000000000
      00001  223145606060

      00002  0634 00 1 00024   BIN   SXA     IRR1,1
      00003  0600 00 0 00027         STZ     INT           CLEAR RESULT.
      00004  0774 00 1 00006         AXT     6,1
      00005  0560 60 4 00001         LDQ*    1,4           GET ARGUMENT.
      00006 -0754 00 0 00000  LOP    ZAC
      00007 -0763 00 0 00006         LGL     6             GET NEXT CHARACTER.
      00010 -0340 00 0 00032         LAS     =10           SKIP OVER NON-DIGITS.
      00011  0020 00 0 00023         TRA     TIX
      00012  0020 00 0 00023         TRA     TIX
      00013  0601 00 0 00030         STO     DIG           NUMBER, SAVE DIGIT.
      00014 -0600 00 0 00031         STQ     TEM           SAVE MQ FOR MULTIPLIACATION.
      00015  0560 00 0 00027         LDQ     INT           GET OLD NUMBER.
      00016  0200 00 0 00032         MPY     =10           SHIFT.
      00017  0131 00 0 00000         XCA
      00020  0400 00 0 00030         ADD     DIG           ADD THIS DIGIT TO RESULT.
      00021  0601 00 0 00027         STO     INT           SAVE, FOR NEXT PASS.
      00022  0560 00 0 00031         LDQ     TEM           RESTORE MQ.
      00023  2 00001 1 00006  TIX    TIX     LOP,1,1
      00024  0774 00 1 00000   IRR1  AXT     --,1
      00025  0500 00 0 00027         CLA     INT           RESULT IN AC.
      00026  0020 00 4 00002         TRA     2,4
                              *
      00027  0 00000 0 00000   INT
      00030  0 00000 0 00000   DIG
      00031  0 00000 0 00000   TEM
                              *
                                     END

        LITERALS
      00032  000000000012
1            SUBROUTINE TO CONVERT BCD NUMBER TO BINARY.                                         PAGE 1
                        POST PROCESSOR ASSEMBLY DATA

         33 IS THE FIRST LOCATION NOT USED BY THIS PROGRAM

0REFERENCES TO DEFINED SYMBOLS
          2    BIN     0
         30    DIG    13,   20
         27    INT     3,   15,   21,   25
          6    LOP    23
         31    TEM    14,   22
         23    TIX    11,   12
         24   IRR1     2

0 NO ERROR IN ABOVE ASSEMBLY.
1            LIBRARY PACKAGE.                                                                    PAGE 1

                       00024         ENTRY   .PCOMT        PRINT COMMENT ROUTINE
                       00010         ENTRY   CHNCOM        GO DORMANT.
                       00005         ENTRY   EXIT          SAME.
                       00002         ENTRY   .SETUP        CALLED BY MAD MAIN PROGRA.
                       00013         ENTRY   COMARG        GET COMMAND ARGUMENT.
                       00106         ENTRY   WHOAMI
                       00066         ENTRY   SETBCD
                       00064         ENTRY   SETFUL
                       00065         ENTRY   SETBRK
                       00061         ENTRY   WRFLXA
                       00063         ENTRY   WRFLX
                       00062         ENTRY   RDFLXA
                       00067         ENTRY   UPDATE        UPDATE U.F.D.
                       00070         ENTRY   CHFILE
                       00071         ENTRY   DELFIL
                       00072         ENTRY   FSTATE
                       00073         ENTRY   BUFFER
                       00074         ENTRY   OPEN
                       00075         ENTRY   WRWAIT
                       00076         ENTRY   WRFILE
                       00077         ENTRY   RDWAIT
                       00100         ENTRY   RDFILE
                       00101         ENTRY   CLOSE
                       00043         ENTRY   GETBUF        OBTAIN BUFFERS FROM SUPERVISOR.
                              *

            LINKAGE DIRECTOR
      00000  000000000000
      00001  334723464463

      00002  0760 00 0 00016  .SETUP LMTM                  USE SEVEN TAG MODE.
      00003  0774 00 6 00000         AXT     0,6           SET UP IR6 TO AVOID EARLY CALL TO READ.
      00004  0020 00 0 00064         TRA     SETFUL        USE FULL MODE.  SETFUL RETURNS 1,4.
                              *
      00005  0074 00 4 00066  EXIT   TSX     SETBCD,4      CLEANUP, RESET MODE.
      00006  0074 00 4 00063         TSX     WRFLX,4       PUT OUT A STAR FOR RUNCOMS.
      00007  0 00001 0 00060                 STAR,,1       AND THEN PERFORM CHNCOM SEQUENCE.
      00010  0074 00 4 00102  CHNCOM TSX     CHN,4         THIS CHNCOM ALWAYS GOES DEAD,
 TD   00011  3 00000 0 00107         TXH     =0            IF NO CHAIN EXISTS.
      00012  0020 00 0 00010         TRA     *-2           IN CASE OF RESTART, DON'T.
                              *
      00013  0634 00 4 00022  COMARG SXA     CM4,4         GET COMMAND ARGUMENT FOR MAD.
      00014 -0500 60 4 00001         CAL*    1,4           GET ARGUMENT NUMBER.
      00015  0602 00 0 00017         SLW     ARG           GIVE ARGUMENT NUMBER.
      00016  0074 00 4 00103         TSX     GETCOM,4      GET COMMAND ARGUMENT.
      00017  0 00000 0 00000   ARG                         ..
      00020  0602 00 0 00017         SLW     ARG           MOVE TO ARITHMETIC AC.
      00021  0500 00 0 00017         CLA     ARG           ..
      00022  0774 00 4 00000   CM4   AXT     --,4          RESTORE LINKAGE.
      00023  0020 00 4 00002         TRA     2,4           RETURN TO CALLER.
                              *
      00024 -0500 00 4 00001  .PCOMT CAL     1,4           GET WORD COUNT.
      00025  0621 00 0 00042         STA     RETURN        ON RETURN, JUMP BUFFER.
      00026  0767 00 0 00022         ALS     18            SETUP COUNT.
      00027  0622 00 0 00036         STD     PCNT          ..
      00030  1 77776 4 00031         TXI     *+1,4,-2      SETUP UP BUFFER ADDRESS.
1            LIBRARY PACKAGE.                                                                    PAGE 2

      00031  0636 00 4 00036         SCA     PCNT,4        SAVE BUFFER ADDRESS, AND LINKAGE.
      00032  0074 00 4 00064         TSX     SETFUL,4      MAKE SURE MODE SET AND NO LINES COMING IN.
      00033  0074 00 4 00061         TSX     WRFLXA,4      SWITCH TO RED SHIFT.
      00034  0 00001 0 00056                 REDS,,1       ..
      00035  0074 00 4 00063         TSX     WRFLX,4       PRINT LINE.
      00036  0 00000 0 00000   PCNT          --,,--        ..
      00037  0074 00 4 00061         TSX     WRFLXA,4      SHIFT BACK TO BLACK.
      00040  0 00001 0 00057                 BLCKS,,1      ..
      00041  0535 00 4 00036         LAC     PCNT,4        RESTORE LINKAGE.
      00042  0020 00 4 00000  RETURN TRA     --,4          RETURN TO CALLER.
                              *
      00043  0634 00 4 00052  GETBUF SXA     GX4,4         ENTRY TO GET BUFFERS.
      00044  0602 00 0 00055         SLW     BUFSIZ        SIZE OF BUFFER IN AC.
      00045  0074 00 4 00104         TSX     GETMEM,4      GET PRESENT BOUND.
      00046  0601 00 0 00054         STO     START         SAVE AS BUFFER START.
      00047  0361 00 0 00055         ACL     BUFSIZ        FORM NEW BOUND.
      00050  0074 00 4 00105         TSX     SETMEM,4      ASK FOR MORE.
      00051 -0500 00 0 00054         CAL     START         GIVE CALLER LOCATION OF
      00052  0774 00 4 00000   GX4   AXT     --,4          HIS NEW BUFFER.
      00053  0020 00 4 00001         TRA     1,4           RETURN.
                              *
      00054  0 00000 0 00000   START                       STORAGE FOR BUFFER LOCATION.
      00055  0 00000 0 00000  BUFSIZ                       STORAGE FOR BUFFER SIZE.
                              *
      00056 +013300570057      REDS  OCT     013300570057  RED SHIFT AND TWO NULLS.
      00057 +013200570057      BLCKS OCT     013200570057  BLACK SHIFT AND TWO NULLS.
      00060 -145757575757     STAR   OCT     545757575757  ASTERISK AND 5 NULLS.
                              *
                              *              SUPERVISOR SUBROUTINE CALLERS.
                              *
      00061  0101 00 0 00133  WRFLXA TIA     =HWRFLXA
      00062  0101 00 0 00122  RDFLXA TIA     =HRDFLXA
      00063  0101 00 0 00134  WRFLX  TIA     =HWRFLX
      00064  0101 00 0 00126  SETFUL TIA     =HSETFUL
      00065  0101 00 0 00125  SETBRK TIA     =HSETBRK
      00066  0101 00 0 00124  SETBCD TIA     =HSETBCD
      00067  0101 00 0 00130  UPDATE TIA     =HUPDATE
      00070  0101 00 0 00111  CHFILE TIA     =HCHFILE
      00071  0101 00 0 00114  DELFIL TIA     =HDELFIL
      00072  0101 00 0 00115  FSTATE TIA     =HFSTATE
      00073  0101 00 0 00110  BUFFER TIA     =HBUFFER
      00074  0101 00 0 00120  OPEN   TIA     =HOPEN
      00075  0101 00 0 00135  WRWAIT TIA     =HWRWAIT
      00076  0101 00 0 00132  WRFILE TIA     =HWRFILE
      00077  0101 00 0 00123  RDWAIT TIA     =HRDWAIT
      00100  0101 00 0 00121  RDFILE TIA     =HRDFILE
      00101  0101 00 0 00113  CLOSE  TIA     =HCLOSE
      00102  0101 00 0 00112  CHN    TIA     =HCHNCOM
      00103  0101 00 0 00116  GETCOM TIA     =HGETCOM
      00104  0101 00 0 00117  GETMEM TIA     =HGETMEM
      00105  0101 00 0 00127  SETMEM TIA     =HSETMEM
      00106  0101 00 0 00131  WHOAMI TIA     =HWHOAMI
                              *
                                     END
1            LIBRARY PACKAGE.                                                                    PAGE 3

        LITERALS
      00107  000000000000
      00110  226426262551
      00111  233026314325
      00112  233045234644
      00113  234346622560
      00114  242543263143
      00115  266263216325
      00116  272563234644
      00117  272563442544
      00120  464725456060
      00121  512426314325
      00122  512426436721
      00123  512466213163
      00124  622563222324
      00125  622563225142
      00126  622563266443
      00127  622563442544
      00130  644724216325
      00131  663046214431
      00132  665126314325
      00133  665126436721
      00134  665126436760
      00135  665166213163
1            LIBRARY PACKAGE.                                                                    PAGE 1
                        POST PROCESSOR ASSEMBLY DATA

        136 IS THE FIRST LOCATION NOT USED BY THIS PROGRAM

0REFERENCES TO DEFINED SYMBOLS
         17    ARG    15,   20,   21
        102    CHN    10
         22    CM4    13
         52    GX4    43
          5   EXIT     0
         74   OPEN     0
         36   PCNT    27,   31,   41
         56   REDS    34
         60   STAR     7
         57  BLCKS    40
        101  CLOSE     0
         54  START    46,   51
         63  WRFLX     0,    6,   35
         73 BUFFER     0
         55 BUFSIZ    44,   47
         70 CHFILE     0
         10 CHNCOM     0
         13 COMARG     0
         71 DELFIL     0
         72 FSTATE     0
         43 GETBUF     0
        103 GETCOM    16
        104 GETMEM    45
         24 .PCOMT     0
          2 .SETUP     0
        100 RDFILE     0
         62 RDFLXA     0
         77 RDWAIT     0
         42 RETURN    25
         66 SETBCD     0,    5
         65 SETBRK     0
         64 SETFUL     0,    4,   32
        105 SETMEM    50
         67 UPDATE     0
        106 WHOAMI     0
         76 WRFILE     0
         61 WRFLXA     0,   33,   37
         75 WRWAIT     0

0 NO ERROR IN ABOVE ASSEMBLY.


UNLINK   BCD 08/24/72 2356.1   15167         00000
1     MAD PROGRAM LISTING ... ... ...                 FILE  UNLINK   MAD            07/06/71    1754.9
-
                  CHMODE, DELETE, RENAME AND UNLINK COMMANDS.                                          LM00001
                  WRITTEN BY ROGER ROACH 3/26/68                                                       LM00002
                  MODIFIED 07/05/71 BY P. BOS FOR MOVFIL FUNCTION                                      LM00003
                                                                                                       LM00004
                                                                                                       LM00005
                  NORMAL MODE IS INTEGER                                                          *001 LM00006
                  BOOLEAN SCANI, ONCE, OLDER                                                      *002 LM00007
                  DIMENSION COMBUF(20), ENTRY(10), WHO(8)                                         *003 LM00008
                  EQUIVALENCE (COMBUF(20), FENCE), (NAME3, MODE)                                  *004 LM00009
                  EQUIVALENCE (ENTRY(10), NAME1), (ENTRY(9), NAME2)                               *005 LM00010
                  VECTOR VALUES FENCE = 777777777777K                                             *006 LM00011
                  VECTOR VALUES B = 605757575757K                                                 *007 LM00012
                  VECTOR VALUES TYPE = $ FILES$                                                   *008 LM00013
                  VECTOR VALUES FIRST = 263151626357K                                             *009 LM00014
                  VECTOR VALUES SECOND = $SECOND$                                                 *010 LM00015
                  VECTOR VALUES STAR = $     *$                                                   *011 LM00016
                  VECTOR VALUES ANSWER = $NO$                                                     *012 LM00017
                  VECTOR VALUES ONCE = 1B                                                         *013 LM00018
                  VECTOR VALUES OLDER = 0B                                                        *014 LM00019
                                                                                                       LM00020
                                                                                                       LM00021
                  GCLS.(COMBUF,0)                                                                 *015 LM00022
      LOOPI       THROUGH LOOPI, FOR N = 1,1,COMBUF(N).E.FENCE                                    *016 LM00023
                  WHOAMI.(WHO(8)...8)                                                             *017 LM00024
                  COMMND = LJUST.(COMBUF).A.77K10                                                 *018 LM00025
                  WHENEVER COMMND .E. $C00000$                                                    *019 LM00026
                    C=1                                                                           *020 LM00027
                    D=3                                                                           *021 LM00028
                  OR WHENEVER COMMND .E. $D00000$                                                 *022 LM00029
                    C=2                                                                           *023 LM00030
                    D=2                                                                           *024 LM00031
                  OR WHENEVER COMMND .E. $R00000$                                                 *025 LM00032
                    C=3                                                                           *026 LM00033
                    D=4                                                                           *027 LM00034
                    OLDER=1B                                                                      *028 LM00035
                  OR WHENEVER COMMND .E. $U00000$                                                 *029 LM00036
                    C=4                                                                           *030 LM00037
                    D=2                                                                           *031 LM00038
                    TYPE = $ LINKS$                                                               *032 LM00039
                  OR WHENEVER COMMND .E. $M00000$                                                 *033 LM00040
                    C=5                                                                           *034 LM00041
                    D=4                                                                           *035 LM00042
                  OTHERWISE                                                                       *036 LM00043
                    TSK.                                                                          *037 LM00044
                  END OF CONDITIONAL                                                              *038 LM00045
                  WHENEVER COMBUF(1).E.FENCE, TRANSFER TO PFORMT(C)                               *039 LM00046
                                                                                                       LM00047
                  NOW JUMP THROUGH THE COMMAND BUFFERS 'D' AT A TIME.                                  LM00048
                    THE FIRST 2 ARGUMENTS ARE ALWAYS NAME1 AND NAME2.                                  LM00049
                                                                                                       LM00050
                  THROUGH LOOP, FOR I=1,D,COMBUF(I).E.FENCE.OR.I.G.N                              *040 LM00051
                  NAME1 = COMBUF(I)                                                               *041 LM00052
                  NAME2 = COMBUF(I+1)                                                             *042 LM00053
                  NAME3 = COMBUF(I+2)                                                             *043 LM00054
                  NAME4 = COMBUF(I+3)                                                             *044 LM00055
                  WHENEVER NAME2 .E. FENCE                                                        *045 LM00056
                    PRMESA.(NAME1)                                                                *046 LM00057
                    TRANSFER TO ICOMPT                                                            *047 LM00058
                  OR WHENEVER (C.E.1 .OR. C.E.3) .AND. NAME3 .E. FENCE                            *048 LM00059
                    PRMESA.(NAME1,B,NAME2)                                                        *049 LM00060
                    TRANSFER TO ICOMPT                                                            *050 LM00061
                  END OF CONDITIONAL                                                              *051 LM00062
                  MASK1 = NAMASK.(NAME1)                                                          *052 LM00063
                  MASK2 = NAMASK.(NAME2)                                                          *053 LM00064
                  WHENEVER MASK1.A.MASK2 .E. FENCE                                                *054 LM00065
                    SCANI = 0B                                                                    *055 LM00066
                    FSTATE.(NAME1,NAME2,ENTRY(8)...8,FSERR2,ERCODE)                               *056 LM00067
                  OTHERWISE                                                                       *057 LM00068
                    SCANI = 1B                                                                    *058 LM00069
                    WHENEVER ONCE                                                                 *059 LM00070
                      ONCE = 0B                                                                   *060 LM00071
                      UPDATE.                                                                     *061 LM00072
                      SCNFIL.($U.F.D.(FILE)$)                                                     *062 LM00073
                    END OF CONDITIONAL                                                            *063 LM00074
                    ISCAN.(NAME1,NAME2)                                                           *064 LM00075
                    SCAN.(ENTRY(10)...7,DONE1)                                                    *065 LM00076
      BACK          WHENEVER ( C.E.4 .AND. ENTRY(6).A.7K5.NE.0) .OR.                              *066 LM00077
                1  (ENTRY(6).A.7K5.E.0 .AND. C .NE. 4)                                            *066 LM00078
                      SCAN.(ENTRY(10)...7,DONE1)                                                  *067 LM00079
                      TRANSFER TO BACK                                                            *068 LM00080
                    END OF CONDITIONAL                                                            *069 LM00081
                  END OF CONDITIONAL                                                              *070 LM00082
                  TRANSFER TO FUNC(C)                                                             *071 LM00083
                                                                                                       LM00084
      DONE1       WHENEVER COMBUF(I).E.STAR                                                       *072 LM00085
                    EITHER = SECOND                                                               *073 LM00086
                    NAME = COMBUF(I+1)                                                            *074 LM00087
                  OR WHENEVER COMBUF(I+1).E.STAR                                                  *075 LM00088
                    EITHER = FIRST                                                                *076 LM00089
                    NAME = COMBUF(I)                                                              *077 LM00090
                  OTHERWISE                                                                       *078 LM00091
                    PRMESS.(TYPE,B,COMBUF(I),B,COMBUF(I+1),$ NOT FOUND.$)                         *079 LM00092
                    TRANSFER TO LOOP                                                              *080 LM00093
                  END OF CONDITIONAL                                                              *081 LM00094
                  PRMESS.(604546575757K,TYPE,$ WITH$,EITHER,$ NAME$,NAME,                         *082 LM00095
                1   $ FOUND.$)                                                                    *082 LM00096
                  TRANSFER TO LOOP                                                                *083 LM00097
                                                                                                       LM00098
                  ... THE CHMODE FUNCTION                                                              LM00099
                                                                                                       LM00100
      FUNC(1)     CONTINUE                                                                        *084 LM00101
      FUN(1)      WHENEVER SCANI                                                                  *085 LM00102
                     MODE=NEWMOD.(ENTRY(6).RS.28,COMBUF(I+2),BADMOD)                              *086 LM00103
                  OTHERWISE                                                                       *087 LM00104
                     MODE=NEWMOD.(ENTRY(7),COMBUF(I+2),BADMOD)                                    *088 LM00105
                  END OF CONDITIONAL                                                              *089 LM00106
                  CHFILE.(NAME1,NAME2,MODE,-0,-0,IOERR)                                           *090 LM00107
                  TRANSFER TO NEXT                                                                *091 LM00108
                                                                                                       LM00109
      BADMOD      PRMESS.($ ILLEGAL MODE  -$,MODE)                                                *092 LM00110
                  TRANSFER TO LOOP                                                                *093 LM00111
                                                                                                       LM00112
                  ... THE DELETE FUNCTION                                                              LM00113
                                                                                                       LM00114
      FUN(2)      CONTINUE                                                                        *094 LM00115
      FUNC(2)     WHENEVER MASK1.V.MASK2 .E. 0                                                    *095 LM00116
                    NAME1 = STAR                                                                  *096 LM00117
                    NAME2 = STAR                                                                  *097 LM00118
                    SCANI = 0B                                                                    *098 LM00119
                    FSTATE.(NAME1,NAME2,ENTRY(8)...8,IOERR)                                       *099 LM00120
                  END OF CONDITIONAL                                                              *100 LM00121
                  DELETE.(NAME1,NAME2)                                                            *101 LM00122
                  TRANSFER TO NEXT                                                                *102 LM00123
                                                                                                       LM00124
                  ... THE DELETE INTERNAL FUNCTION                                                     LM00125
                                                                                                       LM00126
                  INTERNAL FUNCTION (N1,N2)                                                       *103 LM00127
                  ENTRY TO DELETE.                                                                *104 LM00128
                  FSTATE.(N1,N2,ENTRY(1)...2,FSERR,FSCODE)                                        *105 LM00129
                  WHENEVER ENTRY.RS.35 .E. 1                                                      *106 LM00130
                    WHENEVER C.E. 3                                                               *107 LM00131
                      PRMESA.(N1,B,N2,$ IS A LINK.  IT CANNOT BE DELETED.$)                       *108 LM00132
                      FUNCTION RETURN 0                                                           *109 LM00133
                    END OF CONDITIONAL                                                            *110 LM00134
                    PRMESA.(N1,B,N2,$ IS A LINK.  DO YOU WISH TO DELETE IT,$)                     *111 LM00135
                    WHENEVER WHO(5) .NE. $(FIB)$, RDFLXC.(ANSWER,6)                               *112 LM00136
                    WHENEVER ANSWER.NE.$YES$, TRANSFER TO NOPE                                    *113 LM00137
                  END OF CONDITIONAL                                                              *114 LM00138
                  WHENEVER ENTRY.A. 134K .NE. 0                                                   *115 LM00139
                    WHENEVER OLDER, PRMESA.($OLDER$)                                              *116 LM00140
                    PRMESA.(N1,B,N2,603162601457K,OCRBC.(ENTRY).V.575757K6,                       *117 LM00141
                1       $' MODE.  DO YOU WISH TO DELETE IT,$)                                     *117 LM00142
                    WHENEVER WHO(5).NE.$(FIB)$, RDFLXC.(ANSWER,6)                                 *118 LM00143
                    WHENEVER ANSWER.NE.$YES$                                                      *119 LM00144
      NOPE            PRMESS.(N1,B,N2,$ NOT DELETED.$)                                            *120 LM00145
                      FUNCTION RETURN 0                                                           *121 LM00146
                    END OF CONDITIONAL                                                            *122 LM00147
                    CHFILE.(N1,N2,1,-0,-0,NOPE)                                                   *123 LM00148
                  END OF CONDITIONAL                                                              *124 LM00149
                  DELFIL.(N1,N2,NOPE)                                                             *125 LM00150
                  FUNCTION RETURN 1                                                               *126 LM00151
      FSERR       WHENEVER FSCODE.NE.3, TRANSFER TO NOPE                                          *127 LM00152
                  FUNCTION RETURN 1                                                               *128 LM00153
                  END OF FUNCTION                                                                 *129 LM00154
                                                                                                       LM00155
                  ... THE RENAME FUNCTION                                                              LM00156
                                                                                                       LM00157
      FUNC(3)     WHENEVER NAME4 .E. FENCE, NAME4 = STAR                                          *130 LM00158
                  MASK3 = NAMASK.(NAME3)                                                          *131 LM00159
                  MASK4 = NAMASK.(NAME4)                                                          *132 LM00160
                  MASK3P = COM.(MASK3)                                                            *133 LM00161
                  MASK4P = COM.(MASK4)                                                            *134 LM00162
                  NAME3 = NAME3.A.MASK3                                                           *135 LM00163
                  NAME4 = NAME4.A.MASK4                                                           *136 LM00164
      FUN(3)      N3 = (NAME1.A.MASK3P).V.NAME3                                                   *137 LM00165
                  N4 = (NAME2.A.MASK4P).V.NAME4                                                   *138 LM00166
                  WHENEVER NAME1.E.N3 .AND. NAME2.E.N4, TRANSFER TO CHANGE                        *139 LM00167
                  WHENEVER DELETE.(N3,N4).E.0                                                     *140 LM00168
                    PRMESS.(NAME1,B,NAME2,$ NOT RENAMED$)                                         *141 LM00169
                  OTHERWISE                                                                       *142 LM00170
      CHANGE        CHFILE.(NAME1,NAME2,-0,N3,N4,IOERR)                                           *143 LM00171
                  END OF CONDITIONAL                                                              *144 LM00172
                  TRANSFER TO NEXT                                                                *145 LM00173
                                                                                                       LM00174
                  ... THE UNLINK FUNCTION                                                              LM00175
                                                                                                       LM00176
      FUN(4)      WHENEVER ENTRY(6).A.7K5.NE.0, TRANSFER TO NEXT                                  *146 LM00177
      FUNC(4)     UNLINK.(NAME1,NAME2,IOERR)                                                      *147 LM00178
                  TRANSFER TO NEXT                                                                *148 LM00179
                                                                                                       LM00180
                  ... THE MOVFIL FUNTION                                                               LM00181
                                                                                                       LM00182
      FUNC(5)     CONTINUE                                                                        *149 LM00183
      FUN(5)      WHENEVER WHO(1).A.2K .E. 2K, TRANSFER TO MVOK                                   *150 LM00184
                  WHENEVER NAME3 .NE. WHO(8), TRANSFER TO MVBAD                                   *151 LM00185
                  WHENEVER NAME4 .E. WHO(3), TRANSFER TO MVOK                                     *152 LM00186
                  WHENEVER WHO(1).A.1K .NE. 1K, TRANSFER TO MVBAD                                 *153 LM00187
                  WHENEVER NAME4.A.777777770000K .NE. $CMFL00$, TRANSFER TO MVBAD                 *154 LM00188
      MVOK        MOVFIL.(NAME1, NAME2, NAME3, NAME4, IOERR)                                      *155 LM00189
                  TRANSFER TO NEXT                                                                *156 LM00190
                                                                                                       LM00191
      MVBAD       PRMESS.($ ILLEGAL USE OF COMMAND$)                                              *157 LM00192
                  TRANSFER TO LOOP                                                                *158 LM00193
                                                                                                       LM00194
                   ... NEXT - GET THE NEXT ENTRY.                                                      LM00195
                                                                                                       LM00196
      NEXT        WHENEVER .NOT. SCANI, TRANSFER TO LOOP                                          *159 LM00197
                  SCAN.(ENTRY(10)...7,LOOP)                                                       *160 LM00198
                  WHENEVER ENTRY(6).A.7K5.E.0 .AND. C.NE.4,TRANSFER TO NEXT                       *161 LM00199
                  TRANSFER TO FUN(C)                                                              *162 LM00200
                                                                                                       LM00201
                  ... IOERR (AND FSERR2) - I/O ERROR RETURNS                                           LM00202
                                                                                                       LM00203
      FSERR2      WHENEVER C.E.4 .AND. ERCODE.NE.3, TRANSFER TO FUNC(C)                           *163 LM00204
      IOERR       PRNTER.(61K)                                                                    *164 LM00205
                  TRANSFER TO NEXT                                                                *165 LM00206
                                                                                                       LM00207
      LOOP        CONTINUE                                                                        *166 LM00208
                  CHNCOM.(0)                                                                      *167 LM00209
                                                                                                       LM00210
                  ... PRINT CORRECT FORMATS.                                                           LM00211
                                                                                                       LM00212
      PFORMT(1)   PRMESS.(COMBUF(0),$ NAME1 NAME2 MODE NAME1' NAME2' MODE' ...$                   *168 LM00213
                1 )                                                                               *168 LM00214
                  TRANSFER TO PFMT                                                                *169 LM00215
                                                                                                       LM00216
      PFORMT(2)   PRMESS.(COMBUF(0),$ NAME1 NAME2 NAME1' NAME2' ...$)                             *170 LM00217
                  TRANSFER TO PFMT                                                                *171 LM00218
                                                                                                       LM00219
      PFORMT(3)   PRMESS.(COMBUF(0),$ OLDNM1 OLDNM2 NEWNM1 NEWNM2 OLDNM1' OLDNM                   *172 LM00220
                1 2' NEWNM1' NEWNM2' ...$)                                                        *172 LM00221
                  TRANSFER TO PFMT                                                                *173 LM00222
                                                                                                       LM00223
      PFORMT(4)   TRANSFER TO PFORMT(2)                                                           *174 LM00224
                                                                                                       LM00225
      PFORMT(5)   PRMESS.(COMBUF(0), $ NAME1 NAME2 PROB PROG NAME1' NAME2' PROB                   *175 LM00226
                1 ' PROG' ...$)                                                                   *175 LM00227
                                                                                                       LM00228
      PFMT        PRMESS.($THE LISTF ASTERISK CONVENTION APPLIES.$)                               *176 LM00229
                  CHNCOM.(0)                                                                      *177 LM00230
                                                                                                       LM00231
                  ... INCOMPLETE SET OF ARGUMENTS                                                      LM00232
                                                                                                       LM00233
      ICOMPT      PRMESS.($ IS AN INCOMPLETE SET OF ARGUMENTS.$)                                  *178 LM00234
                  CHNCOM.(0)                                                                      *179 LM00235
                  END OF PROGRAM                                                                  *180 LM00236
1MAD PROGRAM,TYPE NOV 1963      (ALL NUMBERS ARE OCTAL)
0TOTAL LOCATIONS   01603 TRANSFER VECTOR LENGTH  00030 PROGRAM BEGINS    00344
0VARIABLE STORAGE (A=ARRAY,C=COMMON,E=ERASABLE,DIGIT=MODE)
      ANSWER 00133 A 1        ENTRY  00072 A 1        I      00144   1        MVOK   00121   4        N      00157   1
      BACK   00073   4        ERCODE 00141   1        LOOPI  00031   4        N3     00153   1        OLDER  00160 A 2
      BADMOD 00074   4        FENCE  00032 A 1        LOOP   00117   4        N4     00154   1        ONCE   00161 A 2
      B      00134 A 1        FIRST  00142 A 1        MASK1  00145   1        NAME1  00060   1        PFMT   00124   4
      CHANGE 00075   4        FSCODE 00143   1        MASK2  00146   1        NAME2  00061   1        PFORMT 00132 A 4
      COMBUF 00056 A 1        FSERR2 00077   4        MASK3P 00147   1        NAME3  00057   1        SCANI  00162   2
      COMMND 00135   1        FSERR  00100   4        MASK3  00150   1        NAME4  00155   1        SECOND 00163 A 1
      C      00136   1        FUNC   00106 A 4        MASK4P 00151   1        NAME   00156   1        STAR   00164 A 1
      DONE1  00076   4        FUN    00114 A 4        MASK4  00152   1        NEXT   00122   4        TYPE   00165 A 1
      D      00137   1        ICOMPT 00115   4        MODE   00057   1        NOPE   00123   4        WHO    00176 A 1
      EITHER 00140   1        IOERR  00116   4        MVBAD  00120   4
0FUNCTION DICTIONARY
      CHFILE 00000   1        CHNCOM 00001   1        COM    00002   1        DELFIL 00003   1        EXIT   00004   1
      FSTATE 00005   1        GCLS   00006   1        ISCAN  00007   1        .SETUP 00010   1        LJUST  00011   1
      MOVFIL 00012   1        NAMASK 00013   1        NEWMOD 00014   1        OCRBC  00015   1        PRMESA 00016   1
      PRMESS 00017   1        PRNTER 00020   1        RDFLXC 00021   1        SCAN   00022   1        SCNFIL 00023   1
      TSK    00024   1        UNLINK 00025   1        UPDATE 00026   1        WHOAMI 00027   1        DELETE 00030   1
0ABSOLUTE CONSTANTS
 00236 +254563623360     00266 -202151276444     00322 -222563604626     00262 -074325632560     00273 -203145234644
 00275 -203162602145     00324 -223360606060     00226 +214747433125     00257 -056331464560     00267 -202346456525
 00327 -232551316242     00325 -226326602162     00330 -233025604331     00317 -204751462714     00315 -204751462214
 00253 -052144250214     00225 +214425011460     00263 -075146276045     00316 -204751462260     00301 -203333336060
 00241 +256645440214     00254 -054401146045     00217 +021460452566     00244 -032445440114     00335 -264544026046
 00255 -054401604525     00250 -040260452566     00215 +016046432445     00314 -204643244544     00216 +021460333333
 00222 +146045214425     00220 +146033333360     00252 -052144250114     00303 -204446242560     00305 -204521442502
 00304 -204521442501     00212 +000000000061     00251 -044421452460     00313 -204626602346     00224 +214360646225
 00231 +234426430000     00343 -377777770000     00235 +254521442524     00312 -204546636051     00234 +254325632524
 00310 -204546636024     00300 -203163736060     00233 +242543256325     00323 -223060634660     00337 -304664606631
 00242 +336060244660     00221 +146044462425     00274 -203162601457     00265 -175757000000     00260 -064324255160
 00213 +000000000134     00336 -302562606060     00205 +000000000006     00340 -342631223460     00331 -237360606060
 00245 -032563256031     00320 -206346602425     00334 -246066316230     00270 -202446607046     00326 -232524336060
 00237 +256024254325     00256 -054546636022     00277 -203163602321     00246 -033145423360     00276 -203162602160
 00211 +000000000043     00240 +256060406060     00223 +214360444624     00272 -203143432527     00210 +000000000034
 00243 +336060606060     00271 -202646644524     00306 -204521442560     00321 -206631633060     00307 -204546575757
 00261 -066445243360     00311 -204546636026     00214 +000000700000     00206 +000000000007     00341 -342631432534
 00333 -243326332433     00204 +000000000005     00247 -040000000000     00302 -204331454262     00332 -240000000000
 00203 +000000000004     00264 -110000000000     00201 +000000000002     00232 +240000000000     00202 +000000000003
 00227 +230000000000     00342 -370000000000     00207 +000000000010     00177 +000000000000     00200 +000000000001
 00230 +233000000000
0STATEMENT DICTIONARY
 00073 TXL -300632000607       00074 TXL -301001000774       00075 TXL -301350001337       00076 TXL -300644000640
 00077 TXL -301471001461       00100 TXL -301220001214       00101 TXL -301365001365       00102 TXL -301364001360
 00103 TXL -301262001255       00104 TXL -301010001002       00105 TXL -300724000724       00107 TXL -301374001365
 00110 TXL -301360001351       00111 TXL -301310001304       00112 TXL -301002001002       00113 TXL -300726000724
 00115 TXL -301574001565       00116 TXL -301473001471       00117 TXL -301475001474       00120 TXL -301436001431
 00121 TXL -301430001422       00122 TXL -301442001437       00123 TXL -301171001162       00124 TXL -301563001553
 00125 TXL -301553001540       00126 TXL -301540001537       00127 TXL -301536001521       00130 TXL -301520001511
 00131 TXL -301510001477
0PROGRAM
                 N'R                                                                001  LM00006
                 BOOLEAN SCANI, ONCE, OLDER                                         002  LM00007
                 D'N COMBUF(20), ENTRY(10), WHO(8)                                  003  LM00008
                 E'E (COMBUF(20), FENCE), (NAME3, MODE)                             004  LM00009
                 E'E (ENTRY(10), NAME1), (ENTRY(9), NAME2)                          005  LM00010
                 V'S FENCE = 777777777777K                                          006  LM00011
 00344 TSX +0 07400 4 00010    00032     -3 77777 7 77777
                 V'S B = 605757575757K                                              007  LM00012
 00134     -2 05757 5 75757
                 V'S TYPE = $ FILES$                                                008  LM00013
 00165     -2 02631 4 32562
                 V'S FIRST = 263151626357K                                          009  LM00014
 00142     +2 63151 6 26357
                 V'S SECOND = $SECOND$                                              010  LM00015
 00163     -2 22523 4 64524
                 V'S STAR = $     *$                                                011  LM00016
 00164     -2 06060 6 06054
                 V'S ANSWER = $NO$                                                  012  LM00017
 00133     -0 54660 6 06060
                 V'S ONCE = 1B                                                      013  LM00018
 00161     +0 00000 0 00001
                 V'S OLDER = 0B                                                     014  LM00019
 00160     +0 00000 0 00000
                 GCLS.(COMBUF,0)                                                    015  LM00022
 00345 TSX +0 07400 4 00006    00346 TXH +3 00000 0 00056    00347 TXH +3 00000 0 00177
      LOOPI      T'H LOOPI, FOR N = 1,1,COMBUF(N).E.FENCE                           016  LM00023
 00350 CLA +0 50000 0 00200    00351 STO +0 60100 0 00157    00352 TRA +0 02000 0 00356    00353 CLA +0 50000 0 00157
 00354 ADD +0 40000 0 00200    00355 STO +0 60100 0 00157    00356 LXA +0 53400 1 00157    00357 CLA +0 50000 1 00056
 00360 SUB +0 40200 0 00032    00361 TZE +0 10000 0 00363    00362 TRA +0 02000 0 00353
                 WHOAMI.(WHO(8)...8)                                                017  LM00024
 00363 TSX +0 07400 4 00027    00364 TIX +2 00207 0 00166
                 COMMND = LJUST.(COMBUF).A.77K10                                    018  LM00025
 00365 TSX +0 07400 4 00011    00366 TXH +3 00000 0 00056    00367 STO +0 60100 0 01577    00370 CAL -0 50000 0 01577
 00371 ANA -0 32000 0 00342    00372 SLW +0 60200 0 00135
                 W'R COMMND .E. $C00000$                                            019  LM00026
 00373 CLA +0 50000 0 00135    00374 SUB +0 40200 0 00227    00375 TNZ -0 10000 0 00403
                   C=1                                                              020  LM00027
 00376 CLA +0 50000 0 00200    00377 STO +0 60100 0 00136
                   D=3                                                              021  LM00028
 00400 CLA +0 50000 0 00202    00401 STO +0 60100 0 00137
                 O'R COMMND .E. $D00000$                                            022  LM00029
 00402 TRA +0 02000 0 00450    00403 CLA +0 50000 0 00135    00404 SUB +0 40200 0 00232    00405 TNZ -0 10000 0 00413
                   C=2                                                              023  LM00030
 00406 CLA +0 50000 0 00201    00407 STO +0 60100 0 00136
                   D=2                                                              024  LM00031
 00410 CLA +0 50000 0 00201    00411 STO +0 60100 0 00137
                 O'R COMMND .E. $R00000$                                            025  LM00032
 00412 TRA +0 02000 0 00450    00413 CLA +0 50000 0 00135    00414 SUB +0 40200 0 00264    00415 TNZ -0 10000 0 00425
                   C=3                                                              026  LM00033
 00416 CLA +0 50000 0 00202    00417 STO +0 60100 0 00136
                   D=4                                                              027  LM00034
 00420 CLA +0 50000 0 00203    00421 STO +0 60100 0 00137
                   OLDER=1B                                                         028  LM00035
 00422 CLA +0 50000 0 00200    00423 STO +0 60100 0 00160
                 O'R COMMND .E. $U00000$                                            029  LM00036
 00424 TRA +0 02000 0 00450    00425 CLA +0 50000 0 00135    00426 SUB +0 40200 0 00332    00427 TNZ -0 10000 0 00437
                   C=4                                                              030  LM00037
 00430 CLA +0 50000 0 00203    00431 STO +0 60100 0 00136
                   D=2                                                              031  LM00038
 00432 CLA +0 50000 0 00201    00433 STO +0 60100 0 00137
                   TYPE = $ LINKS$                                                  032  LM00039
 00434 CLA +0 50000 0 00302    00435 STO +0 60100 0 00165
                 O'R COMMND .E. $M00000$                                            033  LM00040
 00436 TRA +0 02000 0 00450    00437 CLA +0 50000 0 00135    00440 SUB +0 40200 0 00247    00441 TNZ -0 10000 0 00447
                   C=5                                                              034  LM00041
 00442 CLA +0 50000 0 00204    00443 STO +0 60100 0 00136
                   D=4                                                              035  LM00042
 00444 CLA +0 50000 0 00203    00445 STO +0 60100 0 00137
                 O'E                                                                036  LM00043
 00446 TRA +0 02000 0 00450
                   TSK.                                                             037  LM00044
 00447 TSX +0 07400 4 00024
                 E'L                                                                038  LM00045
                 W'R COMBUF(1).E.FENCE, T'O PFORMT(C)                               039  LM00046
 00450 CLA +0 50000 0 00055    00451 SUB +0 40200 0 00032    00452 TNZ -0 10000 0 00455    00453 LXA +0 53400 2 00136
 00454 TRA +0 02000 2 00132
                 T'H LOOP, FOR I=1,D,COMBUF(I).E.FENCE.OR.I.G.N                     040  LM00051
 00455 CLA +0 50000 0 00200    00456 STO +0 60100 0 00144    00457 TRA +0 02000 0 00463    00460 CLA +0 50000 0 00144
 00461 ADD +0 40000 0 00137    00462 STO +0 60100 0 00144    00463 CLA +0 50000 0 00144    00464 SUB +0 40200 0 00157
 00465 TZE +0 10000 0 00467    00466 TPL +0 12000 0 01475    00467 LXA +0 53400 1 00144    00470 CLA +0 50000 1 00056
 00471 SUB +0 40200 0 00032    00472 TZE +0 10000 0 01475
                 NAME1 = COMBUF(I)                                                  041  LM00052
 00473 LXA +0 53400 2 00144    00474 CLA +0 50000 2 00056    00475 STO +0 60100 0 00060
                 NAME2 = COMBUF(I+1)                                                042  LM00053
 00476 CLA +0 50000 0 00144    00477 ADD +0 40000 0 00200    00500 PAX +0 73400 2 00000    00501 CLA +0 50000 2 00056
 00502 STO +0 60100 0 00061
                 NAME3 = COMBUF(I+2)                                                043  LM00054
 00503 CLA +0 50000 0 00144    00504 ADD +0 40000 0 00201    00505 PAX +0 73400 2 00000    00506 CLA +0 50000 2 00056
 00507 STO +0 60100 0 00057
                 NAME4 = COMBUF(I+3)                                                044  LM00055
 00510 CLA +0 50000 0 00144    00511 ADD +0 40000 0 00202    00512 PAX +0 73400 2 00000    00513 CLA +0 50000 2 00056
 00514 STO +0 60100 0 00155
                 W'R NAME2 .E. FENCE                                                045  LM00056
 00515 CLA +0 50000 0 00061    00516 SUB +0 40200 0 00032    00517 TNZ -0 10000 0 00524
                   PRMESA.(NAME1)                                                   046  LM00057
 00520 TSX +0 07400 4 00016    00521 TXH +3 00000 0 00060
                   T'O ICOMPT                                                       047  LM00058
 00522 TRA +0 02000 0 00115
                 O'R (C.E.1 .OR. C.E.3) .AND. NAME3 .E. FENCE                       048  LM00059
 00523 TRA +0 02000 0 00542    00524 CLA +0 50000 0 00057    00525 SUB +0 40200 0 00032    00526 TNZ -0 10000 0 00542
 00527 CLA +0 50000 0 00136    00530 SUB +0 40200 0 00202    00531 TZE +0 10000 0 00535    00532 CLA +0 50000 0 00136
 00533 SUB +0 40200 0 00200    00534 TNZ -0 10000 0 00542
                   PRMESA.(NAME1,B,NAME2)                                           049  LM00060
 00535 TSX +0 07400 4 00016    00536 TXH +3 00000 0 00060    00537 TXH +3 00000 0 00134    00540 TXH +3 00000 0 00061
                   T'O ICOMPT                                                       050  LM00061
 00541 TRA +0 02000 0 00115
                 E'L                                                                051  LM00062
                 MASK1 = NAMASK.(NAME1)                                             052  LM00063
 00542 TSX +0 07400 4 00013    00543 TXH +3 00000 0 00060    00544 STO +0 60100 0 00145
                 MASK2 = NAMASK.(NAME2)                                             053  LM00064
 00545 TSX +0 07400 4 00013    00546 TXH +3 00000 0 00061    00547 STO +0 60100 0 00146
                 W'R MASK1.A.MASK2 .E. FENCE                                        054  LM00065
 00550 CAL -0 50000 0 00145    00551 ANA -0 32000 0 00146    00552 SLW +0 60200 0 01577    00553 CLA +0 50000 0 01577
 00554 SUB +0 40200 0 00032    00555 TNZ -0 10000 0 00567
                   SCANI = 0B                                                       055  LM00066
 00556 CLA +0 50000 0 00177    00557 STO +0 60100 0 00162
                   FSTATE.(NAME1,NAME2,ENTRY(8)...8,FSERR2,ERCODE)                  056  LM00067
 00560 TSX +0 07400 4 00005    00561 TXH +3 00000 0 00060    00562 TXH +3 00000 0 00061    00563 TIX +2 00207 0 00062
 00564 TXH +3 00000 0 00077    00565 TXH +3 00000 0 00141
                 O'E                                                                057  LM00068
 00566 TRA +0 02000 0 00636
                   SCANI = 1B                                                       058  LM00069
 00567 CLA +0 50000 0 00200    00570 STO +0 60100 0 00162
                   W'R ONCE                                                         059  LM00070
 00571 NZT -0 52000 0 00161    00572 TRA +0 02000 0 00601
                     ONCE = 0B                                                      060  LM00071
 00573 CLA +0 50000 0 00177    00574 STO +0 60100 0 00161
                     UPDATE.                                                        061  LM00072
 00575 TSX +0 07400 4 00026
                     SCNFIL.($U.F.D.(FILE)$)                                        062  LM00073
 00576 TSX +0 07400 4 00023    00577 TXH +3 00000 0 00333    00600 TXH +3 00000 0 00341
                   E'L                                                              063  LM00074
                   ISCAN.(NAME1,NAME2)                                              064  LM00075
 00601 TSX +0 07400 4 00007    00602 TXH +3 00000 0 00060    00603 TXH +3 00000 0 00061
                   SCAN.(ENTRY(10)...7,DONE1)                                       065  LM00076
 00604 TSX +0 07400 4 00022    00605 TIX +2 00206 0 00060    00606 TXH +3 00000 0 00076
      BACK         W'R ( C.E.4 .AND. ENTRY(6).A.7K5.NE.0) .OR.                      066  LM00077
                1 (ENTRY(6).A.7K5.E.0 .AND. C .NE. 4)                               066  LM00078
 00607 CLA +0 50000 0 00136    00610 SUB +0 40200 0 00203    00611 TZE +0 10000 0 00620    00612 CAL -0 50000 0 00064
 00613 ANA -0 32000 0 00214    00614 SLW +0 60200 0 01577    00615 CLA +0 50000 0 01577    00616 SUB +0 40200 0 00177
 00617 TZE +0 10000 0 00632    00620 CAL -0 50000 0 00064    00621 ANA -0 32000 0 00214    00622 SLW +0 60200 0 01577
 00623 CLA +0 50000 0 01577    00624 SUB +0 40200 0 00177    00625 TZE +0 10000 0 00631    00626 CLA +0 50000 0 00136
 00627 SUB +0 40200 0 00203    00630 TZE +0 10000 0 00632    00631 TRA +0 02000 0 00636
                     SCAN.(ENTRY(10)...7,DONE1)                                     067  LM00079
 00632 TSX +0 07400 4 00022    00633 TIX +2 00206 0 00060    00634 TXH +3 00000 0 00076
                     T'O BACK                                                       068  LM00080
 00635 TRA +0 02000 0 00073
                   E'L                                                              069  LM00081
                 E'L                                                                070  LM00082
                 T'O FUNC(C)                                                        071  LM00083
 00636 LXA +0 53400 2 00136    00637 TRA +0 02000 2 00106
      DONE1      W'R COMBUF(I).E.STAR                                               072  LM00085
 00640 LXA +0 53400 1 00144    00641 CLA +0 50000 1 00056    00642 SUB +0 40200 0 00164    00643 TNZ -0 10000 0 00654
                   EITHER = SECOND                                                  073  LM00086
 00644 CLA +0 50000 0 00163    00645 STO +0 60100 0 00140
                   NAME = COMBUF(I+1)                                               074  LM00087
 00646 CLA +0 50000 0 00144    00647 ADD +0 40000 0 00200    00650 PAX +0 73400 2 00000    00651 CLA +0 50000 2 00056
 00652 STO +0 60100 0 00156
                 O'R COMBUF(I+1).E.STAR                                             075  LM00088
 00653 TRA +0 02000 0 00712    00654 CLA +0 50000 0 00144    00655 ADD +0 40000 0 00200    00656 PAX +0 73400 1 00000
 00657 CLA +0 50000 1 00056    00660 SUB +0 40200 0 00164    00661 TNZ -0 10000 0 00670
                   EITHER = FIRST                                                   076  LM00089
 00662 CLA +0 50000 0 00142    00663 STO +0 60100 0 00140
                   NAME = COMBUF(I)                                                 077  LM00090
 00664 LXA +0 53400 2 00144    00665 CLA +0 50000 2 00056    00666 STO +0 60100 0 00156
                 O'E                                                                078  LM00091
 00667 TRA +0 02000 0 00712
                   PRMESS.(TYPE,B,COMBUF(I),B,COMBUF(I+1),$ NOT FOUND.$)            079  LM00092
 00670 CLA +0 50000 0 00144    00671 ADD +0 40000 0 00200    00672 SUB +0 40200 0 00673    00673 TXH +3 00000 0 00056
 00674 STA +0 62100 0 00706    00675 CLA +0 50000 0 00144    00676 SUB +0 40200 0 00677    00677 TXH +3 00000 0 00056
 00700 STA +0 62100 0 00704    00701 TSX +0 07400 4 00017    00702 TXH +3 00000 0 00165    00703 TXH +3 00000 0 00134
 00704 TXH +3 00000 0 00000    00705 TXH +3 00000 0 00134    00706 TXH +3 00000 0 00000    00707 TXH +3 00000 0 00311
 00710 TXH +3 00000 0 00261
                   T'O LOOP                                                         080  LM00093
 00711 TRA +0 02000 0 00117
                 E'L                                                                081  LM00094
                 PRMESS.(604546575757K,TYPE,$ WITH$,EITHER,$ NAME$,NAME,            082  LM00095
                1  $ FOUND.$)                                                       082  LM00096
 00712 TSX +0 07400 4 00017    00713 TXH +3 00000 0 00307    00714 TXH +3 00000 0 00165    00715 TXH +3 00000 0 00321
 00716 TXH +3 00000 0 00140    00717 TXH +3 00000 0 00306    00720 TXH +3 00000 0 00156    00721 TXH +3 00000 0 00271
 00722 TXH +3 00000 0 00243
                 T'O LOOP                                                           083  LM00097
 00723 TRA +0 02000 0 00117
      FUNC(1)    CONTINUE                                                           084  LM00101
      FUN(1)     W'R SCANI                                                          085  LM00102
 00724 NZT -0 52000 0 00162    00725 TRA +0 02000 0 00746
                    MODE=NEWMOD.(ENTRY(6).RS.28,COMBUF(I+2),BADMOD)                 086  LM00103
 00726 CLA +0 50000 0 00144    00727 ADD +0 40000 0 00201    00730 SUB +0 40200 0 00731    00731 TXH +3 00000 0 00056
 00732 STA +0 62100 0 00742    00733 CAL -0 50000 0 00210    00734 STA +0 62100 0 00736    00735 CAL -0 50000 0 00064
 00736 LGR -0 76500 0 00000    00737 SLW +0 60200 0 01577    00740 TSX +0 07400 4 00014    00741 TXH +3 00000 0 01577
 00742 TXH +3 00000 0 00000    00743 TXH +3 00000 0 00074    00744 STO +0 60100 0 00057
                 O'E                                                                087  LM00104
 00745 TRA +0 02000 0 00760
                    MODE=NEWMOD.(ENTRY(7),COMBUF(I+2),BADMOD)                       088  LM00105
 00746 CLA +0 50000 0 00144    00747 ADD +0 40000 0 00201    00750 SUB +0 40200 0 00751    00751 TXH +3 00000 0 00056
 00752 STA +0 62100 0 00755    00753 TSX +0 07400 4 00014    00754 TXH +3 00000 0 00063    00755 TXH +3 00000 0 00000
 00756 TXH +3 00000 0 00074    00757 STO +0 60100 0 00057
                 E'L                                                                089  LM00106
                 CHFILE.(NAME1,NAME2,MODE,-0,-0,IOERR)                              090  LM00107
 00760 CLS +0 50200 0 00177    00761 STO +0 60100 0 01577    00762 CLS +0 50200 0 00177    00763 STO +0 60100 0 01600
 00764 TSX +0 07400 4 00000    00765 TXH +3 00000 0 00060    00766 TXH +3 00000 0 00061    00767 TXH +3 00000 0 00057
 00770 TXH +3 00000 0 01600    00771 TXH +3 00000 0 01577    00772 TXH +3 00000 0 00116
                 T'O NEXT                                                           091  LM00108
 00773 TRA +0 02000 0 00122
      BADMOD     PRMESS.($ ILLEGAL MODE  -$,MODE)                                   092  LM00110
 00774 TSX +0 07400 4 00017    00775 TXH +3 00000 0 00272    00776 TXH +3 00000 0 00223    00777 TXH +3 00000 0 00240
 01000 TXH +3 00000 0 00057
                 T'O LOOP                                                           093  LM00111
 01001 TRA +0 02000 0 00117
      FUN(2)     CONTINUE                                                           094  LM00115
      FUNC(2)    W'R MASK1.V.MASK2 .E. 0                                            095  LM00116
 01002 CAL -0 50000 0 00145    01003 ORA -0 50100 0 00146    01004 SLW +0 60200 0 01600    01005 CLA +0 50000 0 01600
 01006 SUB +0 40200 0 00177    01007 TNZ -0 10000 0 01023
                   NAME1 = STAR                                                     096  LM00117
 01010 CLA +0 50000 0 00164    01011 STO +0 60100 0 00060
                   NAME2 = STAR                                                     097  LM00118
 01012 CLA +0 50000 0 00164    01013 STO +0 60100 0 00061
                   SCANI = 0B                                                       098  LM00119
 01014 CLA +0 50000 0 00177    01015 STO +0 60100 0 00162
                   FSTATE.(NAME1,NAME2,ENTRY(8)...8,IOERR)                          099  LM00120
 01016 TSX +0 07400 4 00005    01017 TXH +3 00000 0 00060    01020 TXH +3 00000 0 00061    01021 TIX +2 00207 0 00062
 01022 TXH +3 00000 0 00116
                 E'L                                                                100  LM00121
                 DELETE.(NAME1,NAME2)                                               101  LM00122
 01023 TSX +0 07400 4 00030    01024 TXH +3 00000 0 00060    01025 TXH +3 00000 0 00061
                 T'O NEXT                                                           102  LM00123
 01026 TRA +0 02000 0 00122
                 INTERNAL FUNCTION (N1,N2)                                          103  LM00127
 01027 TRA +0 02000 0 01255
                 ENTRY TO DELETE.                                                   104  LM00128
 01030 TRA +0 02000 0 01033    00030 TTR +0 02100 0 01031    01031 SXA +0 63400 2 01223    01032 TSX +0 07400 2 01223
                 FSTATE.(N1,N2,ENTRY(1)...2,FSERR,FSCODE)                           105  LM00129
 01033 TSX +0 07400 4 00005    01034 TXH +3 00000 0 00024    01035 TXH +3 00000 0 00024    01036 TIX +2 00201 0 00071
 01037 TXH +3 00000 0 00100    01040 TXH +3 00000 0 00143
                 W'R ENTRY.RS.35 .E. 1                                              106  LM00130
 01041 CAL -0 50000 0 00211    01042 STA +0 62100 0 01044    01043 CAL -0 50000 0 00072    01044 LGR -0 76500 0 00000
 01045 SLW +0 60200 0 01253    01046 CLA +0 50000 0 01253    01047 SUB +0 40200 0 00200    01050 TNZ -0 10000 0 01115
                   W'R C.E. 3                                                       107  LM00131
 01051 CLA +0 50000 0 00136    01052 SUB +0 40200 0 00202    01053 TNZ -0 10000 0 01070
                     PRMESA.(N1,B,N2,$ IS A LINK.  IT CANNOT BE DELETED.$)          108  LM00132
 01054 TSX +0 07400 4 00016    01055 TXH +3 00000 0 00024    01056 TXH +3 00000 0 00134    01057 TXH +3 00000 0 00024
 01060 TXH +3 00000 0 00276    01061 TXH +3 00000 0 00246    01062 TXH +3 00000 0 00277    01063 TXH +3 00000 0 00256
 01064 TXH +3 00000 0 00237    01065 TXH +3 00000 0 00326
                     FUNCTION RETURN 0                                              109  LM00133
 01066 CLA +0 50000 0 00177    01067 TRA +0 02000 0 01247
                   E'L                                                              110  LM00134
                   PRMESA.(N1,B,N2,$ IS A LINK.  DO YOU WISH TO DELETE IT,$)        111  LM00135
 01070 TSX +0 07400 4 00016    01071 TXH +3 00000 0 00024    01072 TXH +3 00000 0 00134    01073 TXH +3 00000 0 00024
 01074 TXH +3 00000 0 00276    01075 TXH +3 00000 0 00246    01076 TXH +3 00000 0 00270    01077 TXH +3 00000 0 00334
 01100 TXH +3 00000 0 00320    01101 TXH +3 00000 0 00245    01102 TXH +3 00000 0 00331
                   W'R WHO(5) .NE. $(FIB)$, RDFLXC.(ANSWER,6)                       112  LM00136
 01103 CLA +0 50000 0 00171    01104 SUB +0 40200 0 00340    01105 TZE +0 10000 0 01111    01106 TSX +0 07400 4 00021
 01107 TXH +3 00000 0 00133    01110 TXH +3 00000 0 00205
                   W'R ANSWER.NE.$YES$, T'O NOPE                                    113  LM00137
 01111 CLA +0 50000 0 00133    01112 SUB +0 40200 0 00336    01113 TZE +0 10000 0 01115    01114 TRA +0 02000 0 00123
                 E'L                                                                114  LM00138
                 W'R ENTRY.A. 134K .NE. 0                                           115  LM00139
 01115 CAL -0 50000 0 00072    01116 ANA -0 32000 0 00213    01117 SLW +0 60200 0 01253    01120 CLA +0 50000 0 01253
 01121 SUB +0 40200 0 00177    01122 TZE +0 10000 0 01206
                   W'R OLDER, PRMESA.($OLDER$)                                      116  LM00140
 01123 NZT -0 52000 0 00160    01124 TRA +0 02000 0 01127    01125 TSX +0 07400 4 00016    01126 TXH +3 00000 0 00260
                   PRMESA.(N1,B,N2,603162601457K,OCRBC.(ENTRY).V.575757K6,          117  LM00141
                1      $' MODE.  DO YOU WISH TO DELETE IT,$)                        117  LM00142
 01127 TSX +0 07400 4 00015    01130 TXH +3 00000 0 00072    01131 STO +0 60100 0 01253    01132 CAL -0 50000 0 01253
 01133 ORA -0 50100 0 00265    01134 SLW +0 60200 0 01253    01135 TSX +0 07400 4 00016    01136 TXH +3 00000 0 00024
 01137 TXH +3 00000 0 00134    01140 TXH +3 00000 0 00024    01141 TXH +3 00000 0 00274    01142 TXH +3 00000 0 01253
 01143 TXH +3 00000 0 00221    01144 TXH +3 00000 0 00242    01145 TXH +3 00000 0 00337    01146 TXH +3 00000 0 00323
 01147 TXH +3 00000 0 00233    01150 TXH +3 00000 0 00300
                   W'R WHO(5).NE.$(FIB)$, RDFLXC.(ANSWER,6)                         118  LM00143
 01151 CLA +0 50000 0 00171    01152 SUB +0 40200 0 00340    01153 TZE +0 10000 0 01157    01154 TSX +0 07400 4 00021
 01155 TXH +3 00000 0 00133    01156 TXH +3 00000 0 00205
                   W'R ANSWER.NE.$YES$                                              119  LM00144
 01157 CLA +0 50000 0 00133    01160 SUB +0 40200 0 00336    01161 TZE +0 10000 0 01173
      NOPE           PRMESS.(N1,B,N2,$ NOT DELETED.$)                               120  LM00145
 01162 TSX +0 07400 4 00017    01163 TXH +3 00000 0 00024    01164 TXH +3 00000 0 00134    01165 TXH +3 00000 0 00024
 01166 TXH +3 00000 0 00310    01167 TXH +3 00000 0 00234    01170 TXH +3 00000 0 00243
                     FUNCTION RETURN 0                                              121  LM00146
 01171 CLA +0 50000 0 00177    01172 TRA +0 02000 0 01247
                   E'L                                                              122  LM00147
                   CHFILE.(N1,N2,1,-0,-0,NOPE)                                      123  LM00148
 01173 CLS +0 50200 0 00177    01174 STO +0 60100 0 01253    01175 CLS +0 50200 0 00177    01176 STO +0 60100 0 01254
 01177 TSX +0 07400 4 00000    01200 TXH +3 00000 0 00024    01201 TXH +3 00000 0 00024    01202 TXH +3 00000 0 00200
 01203 TXH +3 00000 0 01254    01204 TXH +3 00000 0 01253    01205 TXH +3 00000 0 00123
                 E'L                                                                124  LM00149
                 DELFIL.(N1,N2,NOPE)                                                125  LM00150
 01206 TSX +0 07400 4 00003    01207 TXH +3 00000 0 00024    01210 TXH +3 00000 0 00024    01211 TXH +3 00000 0 00123
                 FUNCTION RETURN 1                                                  126  LM00151
 01212 CLA +0 50000 0 00200    01213 TRA +0 02000 0 01247
      FSERR      W'R FSCODE.NE.3, T'O NOPE                                          127  LM00152
 01214 CLA +0 50000 0 00143    01215 SUB +0 40200 0 00202    01216 TZE +0 10000 0 01220    01217 TRA +0 02000 0 00123
                 F'N 1                                                              128  LM00153
 01220 CLA +0 50000 0 00200    01221 TRA +0 02000 0 01247
                 E'N                                                                129  LM00154
 01222 TSX +0 07400 4 00004    01223 TXH +3 00000 0 00000    01224 SXD -0 63400 1 01223    01225 SXA +0 63400 4 01247
 01226 CLA +0 50000 4 00001    01227 STO +0 60100 0 01034    01230 STO +0 60100 0 01055    01231 STO +0 60100 0 01071
 01232 STO +0 60100 0 01136    01233 STO +0 60100 0 01163    01234 STO +0 60100 0 01200    01235 STO +0 60100 0 01207
 01236 CLA +0 50000 4 00002    01237 STO +0 60100 0 01035    01240 STO +0 60100 0 01057    01241 STO +0 60100 0 01073
 01242 STO +0 60100 0 01140    01243 STO +0 60100 0 01165    01244 STO +0 60100 0 01201    01245 STO +0 60100 0 01210
 01246 TRA +0 02000 2 00001    01247 AXT +0 77400 4 00000    01250 LXA +0 53400 2 01223    01251 LXD -0 53400 1 01223
 01252 TRA +0 02000 4 00001
      FUNC(3)    W'R NAME4 .E. FENCE, NAME4 = STAR                                  130  LM00158
 01255 CLA +0 50000 0 00155    01256 SUB +0 40200 0 00032    01257 TNZ -0 10000 0 01262    01260 CLA +0 50000 0 00164
 01261 STO +0 60100 0 00155
                 MASK3 = NAMASK.(NAME3)                                             131  LM00159
 01262 TSX +0 07400 4 00013    01263 TXH +3 00000 0 00057    01264 STO +0 60100 0 00150
                 MASK4 = NAMASK.(NAME4)                                             132  LM00160
 01265 TSX +0 07400 4 00013    01266 TXH +3 00000 0 00155    01267 STO +0 60100 0 00152
                 MASK3P = COM.(MASK3)                                               133  LM00161
 01270 TSX +0 07400 4 00002    01271 TXH +3 00000 0 00150    01272 STO +0 60100 0 00147
                 MASK4P = COM.(MASK4)                                               134  LM00162
 01273 TSX +0 07400 4 00002    01274 TXH +3 00000 0 00152    01275 STO +0 60100 0 00151
                 NAME3 = NAME3.A.MASK3                                              135  LM00163
 01276 CAL -0 50000 0 00057    01277 ANA -0 32000 0 00150    01300 SLW +0 60200 0 00057
                 NAME4 = NAME4.A.MASK4                                              136  LM00164
 01301 CAL -0 50000 0 00155    01302 ANA -0 32000 0 00152    01303 SLW +0 60200 0 00155
      FUN(3)     N3 = (NAME1.A.MASK3P).V.NAME3                                      137  LM00165
 01304 CAL -0 50000 0 00060    01305 ANA -0 32000 0 00147    01306 ORA -0 50100 0 00057    01307 SLW +0 60200 0 00153
                 N4 = (NAME2.A.MASK4P).V.NAME4                                      138  LM00166
 01310 CAL -0 50000 0 00061    01311 ANA -0 32000 0 00151    01312 ORA -0 50100 0 00155    01313 SLW +0 60200 0 00154
                 W'R NAME1.E.N3 .AND. NAME2.E.N4, T'O CHANGE                        139  LM00167
 01314 CLA +0 50000 0 00061    01315 SUB +0 40200 0 00154    01316 TNZ -0 10000 0 01323    01317 CLA +0 50000 0 00060
 01320 SUB +0 40200 0 00153    01321 TNZ -0 10000 0 01323    01322 TRA +0 02000 0 00075
                 W'R DELETE.(N3,N4).E.0                                             140  LM00168
 01323 TSX +0 07400 4 00030    01324 TXH +3 00000 0 00153    01325 TXH +3 00000 0 00154    01326 SUB +0 40200 0 00177
 01327 TNZ -0 10000 0 01337
                   PRMESS.(NAME1,B,NAME2,$ NOT RENAMED$)                            141  LM00169
 01330 TSX +0 07400 4 00017    01331 TXH +3 00000 0 00060    01332 TXH +3 00000 0 00134    01333 TXH +3 00000 0 00061
 01334 TXH +3 00000 0 00312    01335 TXH +3 00000 0 00235
                 O'E                                                                142  LM00170
 01336 TRA +0 02000 0 01350
      CHANGE       CHFILE.(NAME1,NAME2,-0,N3,N4,IOERR)                              143  LM00171
 01337 CLS +0 50200 0 00177    01340 STO +0 60100 0 01600    01341 TSX +0 07400 4 00000    01342 TXH +3 00000 0 00060
 01343 TXH +3 00000 0 00061    01344 TXH +3 00000 0 01600    01345 TXH +3 00000 0 00153    01346 TXH +3 00000 0 00154
 01347 TXH +3 00000 0 00116
                 E'L                                                                144  LM00172
                 T'O NEXT                                                           145  LM00173
 01350 TRA +0 02000 0 00122
      FUN(4)     W'R ENTRY(6).A.7K5.NE.0, T'O NEXT                                  146  LM00177
 01351 CAL -0 50000 0 00064    01352 ANA -0 32000 0 00214    01353 SLW +0 60200 0 01600    01354 CLA +0 50000 0 01600
 01355 SUB +0 40200 0 00177    01356 TZE +0 10000 0 01360    01357 TRA +0 02000 0 00122
      FUNC(4)    UNLINK.(NAME1,NAME2,IOERR)                                         147  LM00178
 01360 TSX +0 07400 4 00025    01361 TXH +3 00000 0 00060    01362 TXH +3 00000 0 00061    01363 TXH +3 00000 0 00116
                 T'O NEXT                                                           148  LM00179
 01364 TRA +0 02000 0 00122
      FUNC(5)    C'E                                                                149  LM00183
      FUN(5)     W'R WHO(1).A.2K .E. 2K, T'O MVOK                                   150  LM00184
 01365 CAL -0 50000 0 00175    01366 ANA -0 32000 0 00201    01367 SLW +0 60200 0 01600    01370 CLA +0 50000 0 01600
 01371 SUB +0 40200 0 00201    01372 TNZ -0 10000 0 01374    01373 TRA +0 02000 0 00121
                 W'R NAME3 .NE. WHO(8), T'O MVBAD                                   151  LM00185
 01374 CLA +0 50000 0 00057    01375 SUB +0 40200 0 00166    01376 TZE +0 10000 0 01400    01377 TRA +0 02000 0 00120
                 W'R NAME4 .E. WHO(3), T'O MVOK                                     152  LM00186
 01400 CLA +0 50000 0 00155    01401 SUB +0 40200 0 00173    01402 TNZ -0 10000 0 01404    01403 TRA +0 02000 0 00121
                 W'R WHO(1).A.1K .NE. 1K, T'O MVBAD                                 153  LM00187
 01404 CAL -0 50000 0 00175    01405 ANA -0 32000 0 00200    01406 SLW +0 60200 0 01600    01407 CLA +0 50000 0 01600
 01410 SUB +0 40200 0 00200    01411 TZE +0 10000 0 01413    01412 TRA +0 02000 0 00120
                 W'R NAME4.A.777777770000K .NE. $CMFL00$, T'O MVBAD                 154  LM00188
 01413 CAL -0 50000 0 00155    01414 ANA -0 32000 0 00343    01415 SLW +0 60200 0 01600    01416 CLA +0 50000 0 01600
 01417 SUB +0 40200 0 00231    01420 TZE +0 10000 0 01422    01421 TRA +0 02000 0 00120
      MVOK       MOVFIL.(NAME1, NAME2, NAME3, NAME4, IOERR)                         155  LM00189
 01422 TSX +0 07400 4 00012    01423 TXH +3 00000 0 00060    01424 TXH +3 00000 0 00061    01425 TXH +3 00000 0 00057
 01426 TXH +3 00000 0 00155    01427 TXH +3 00000 0 00116
                 T'O NEXT                                                           156  LM00190
 01430 TRA +0 02000 0 00122
      MVBAD      PRMESS.($ ILLEGAL USE OF COMMAND$)                                 157  LM00192
 01431 TSX +0 07400 4 00017    01432 TXH +3 00000 0 00272    01433 TXH +3 00000 0 00224    01434 TXH +3 00000 0 00313
 01435 TXH +3 00000 0 00251
                 T'O LOOP                                                           158  LM00193
 01436 TRA +0 02000 0 00117
      NEXT       W'R .NOT. SCANI, T'O LOOP                                          159  LM00197
 01437 ZET +0 52000 0 00162    01440 TRA +0 02000 0 01442    01441 TRA +0 02000 0 00117
                 SCAN.(ENTRY(10)...7,LOOP)                                          160  LM00198
 01442 TSX +0 07400 4 00022    01443 TIX +2 00206 0 00060    01444 TXH +3 00000 0 00117
                 W'R ENTRY(6).A.7K5.E.0 .AND. C.NE.4,T'O NEXT                       161  LM00199
 01445 CLA +0 50000 0 00136    01446 SUB +0 40200 0 00203    01447 TZE +0 10000 0 01457    01450 CAL -0 50000 0 00064
 01451 ANA -0 32000 0 00214    01452 SLW +0 60200 0 01600    01453 CLA +0 50000 0 01600    01454 SUB +0 40200 0 00177
 01455 TNZ -0 10000 0 01457    01456 TRA +0 02000 0 00122
                 T'O FUN(C)                                                         162  LM00200
 01457 LXA +0 53400 2 00136    01460 TRA +0 02000 2 00114
      FSERR2     W'R C.E.4 .AND. ERCODE.NE.3, T'O FUNC(C)                           163  LM00204
 01461 CLA +0 50000 0 00141    01462 SUB +0 40200 0 00202    01463 TZE +0 10000 0 01471    01464 CLA +0 50000 0 00136
 01465 SUB +0 40200 0 00203    01466 TNZ -0 10000 0 01471    01467 LXA +0 53400 2 00136    01470 TRA +0 02000 2 00106
      IOERR      PRNTER.(61K)                                                       164  LM00205
 01471 TSX +0 07400 4 00020    01472 TXH +3 00000 0 00212
                 T'O NEXT                                                           165  LM00206
 01473 TRA +0 02000 0 00122
      LOOP       CONTINUE                                                           166  LM00208
 01474 TRA +0 02000 0 00460
                 CHNCOM.(0)                                                         167  LM00209
 01475 TSX +0 07400 4 00001    01476 TXH +3 00000 0 00177
      PFORMT(1)  PRMESS.(COMBUF(0),$ NAME1 NAME2 MODE NAME1' NAME2' MODE' ...$      168  LM00213
                1)                                                                  168  LM00214
 01477 TSX +0 07400 4 00017    01500 TXH +3 00000 0 00056    01501 TXH +3 00000 0 00304    01502 TXH +3 00000 0 00305
 01503 TXH +3 00000 0 00303    01504 TXH +3 00000 0 00252    01505 TXH +3 00000 0 00305    01506 TXH +3 00000 0 00221
 01507 TXH +3 00000 0 00220
                 T'O PFMT                                                           169  LM00215
 01510 TRA +0 02000 0 00124
      PFORMT(2)  PRMESS.(COMBUF(0),$ NAME1 NAME2 NAME1' NAME2' ...$)                170  LM00217
 01511 TSX +0 07400 4 00017    01512 TXH +3 00000 0 00056    01513 TXH +3 00000 0 00304    01514 TXH +3 00000 0 00305
 01515 TXH +3 00000 0 00304    01516 TXH +3 00000 0 00222    01517 TXH +3 00000 0 00216
                 T'O PFMT                                                           171  LM00218
 01520 TRA +0 02000 0 00124
      PFORMT(3)  PRMESS.(COMBUF(0),$ OLDNM1 OLDNM2 NEWNM1 NEWNM2 OLDNM1' OLDNM      172  LM00220
                12' NEWNM1' NEWNM2' ...$)                                           172  LM00221
 01521 TSX +0 07400 4 00017    01522 TXH +3 00000 0 00056    01523 TXH +3 00000 0 00314    01524 TXH +3 00000 0 00215
 01525 TXH +3 00000 0 00250    01526 TXH +3 00000 0 00255    01527 TXH +3 00000 0 00335    01530 TXH +3 00000 0 00244
 01531 TXH +3 00000 0 00314    01532 TXH +3 00000 0 00217    01533 TXH +3 00000 0 00254    01534 TXH +3 00000 0 00241
 01535 TXH +3 00000 0 00301
                 T'O PFMT                                                           173  LM00222
 01536 TRA +0 02000 0 00124
      PFORMT(4)  T'O PFORMT(2)                                                      174  LM00224
 01537 TRA +0 02000 0 00130
      PFORMT(5)  PRMESS.(COMBUF(0), $ NAME1 NAME2 PROB PROG NAME1' NAME2' PROB      175  LM00226
                1' PROG' ...$)                                                      175  LM00227
 01540 TSX +0 07400 4 00017    01541 TXH +3 00000 0 00056    01542 TXH +3 00000 0 00304    01543 TXH +3 00000 0 00305
 01544 TXH +3 00000 0 00316    01545 TXH +3 00000 0 00263    01546 TXH +3 00000 0 00225    01547 TXH +3 00000 0 00253
 01550 TXH +3 00000 0 00315    01551 TXH +3 00000 0 00317    01552 TXH +3 00000 0 00301
      PFMT       PRMESS.($THE LISTF ASTERISK CONVENTION APPLIES.$)                  176  LM00229
 01553 TSX +0 07400 4 00017    01554 TXH +3 00000 0 00330    01555 TXH +3 00000 0 00325    01556 TXH +3 00000 0 00327
 01557 TXH +3 00000 0 00267    01560 TXH +3 00000 0 00257    01561 TXH +3 00000 0 00226    01562 TXH +3 00000 0 00324
                 CHNCOM.(0)                                                         177  LM00230
 01563 TSX +0 07400 4 00001    01564 TXH +3 00000 0 00177
      ICOMPT     PRMESS.($ IS AN INCOMPLETE SET OF ARGUMENTS.$)                     178  LM00234
 01565 TSX +0 07400 4 00017    01566 TXH +3 00000 0 00275    01567 TXH +3 00000 0 00273    01570 TXH +3 00000 0 00262
 01571 TXH +3 00000 0 00322    01572 TXH +3 00000 0 00266    01573 TXH +3 00000 0 00236
                 CHNCOM.(0)                                                         179  LM00235
 01574 TSX +0 07400 4 00001    01575 TXH +3 00000 0 00177
                 E'M                                                                180  LM00236
 01576 TSX +0 07400 4 00004
1      NEWMOD  -  03/25/68   D.A. ANDERSON  COMPUTE NEW MODE FOR FILE            07/06/71 1755.1 PAGE 1

                       00002         ENTRY   NEWMOD


        LINKAGE DIRECTOR
      00000  000000000000
      00001  452566444624

      00002  0634 00 1 00027  NEWMOD SXA     XR1,1
      00003  0634 00 2 00026         SXA     XR2,2
      00004  0634 00 4 00025         SXA     XR4,4
      00005 -0500 60 4 00001         CAL*    1,4
      00006  0602 00 0 00101         SLW     OLDMOD
      00007  0560 60 4 00002         LDQ*    2,4
      00010  0774 00 1 00006         AXT     6,1
      00011  0600 00 0 00124         STZ     MODE1
      00012  0600 00 0 00125         STZ     MODE2
      00013  0074 00 4 00031  CYCLE  TSX     GENMOD,4
      00014  0 00000 0 00124                 MODE1
      00015 -3 00024 2 00021         TXL     NOREM,2,REMOVE
      00016  0074 00 4 00031         TSX     GENMOD,4
      00017  0 00000 0 00125                 MODE2
      00020  3 00024 2 00013         TXH     CYCLE,2,REMOVE
      00021 -0500 00 0 00125  NOREM  CAL     MODE2
      00022  0760 00 0 00006         COM
      00023 -0320 00 0 00124         ANA     MODE1
      00024 -0320 00 0 00131         ANA     =O377
      00025  0774 00 4 00000  XR4    AXT     **,4
      00026  0774 00 2 00000  XR2    AXT     **,2
      00027  0774 00 1 00000  XR1    AXT     **,1
      00030  0020 00 4 00004         TRA     4,4

      00031  0600 00 0 00127  GENMOD STZ     OCTBUF
      00032  0600 00 0 00126         STZ     HAVSUM
      00033  0774 00 2 00000         AXT     0,2
      00034 -0754 00 0 00000  LOOP   ZAC
      00035 -0763 00 0 00006         LGL     6
      00036 -0340 00 0 00130         LAS     =7
      00037  0020 00 0 00046         TRA     NOTOCT
      00040  0761 00 0 00000         NOP
      00041 -0765 00 0 00003         LGR     3
      00042 -0500 00 0 00127         CAL     OCTBUF
      00043 -0763 00 0 00003         LGL     3
      00044  0602 00 0 00127         SLW     OCTBUF
      00045  0020 00 0 00065         TRA     SETHAV
      00046  0774 00 2 00026  NOTOCT AXT     NMOD,2
      00047 -0340 00 2 00124         LAS     MODS+NMOD,2
      00050  0020 00 0 00052         TRA     *+2
      00051  0020 00 0 00057         TRA     GOTMOD
      00052  2 00002 2 00047         TIX     *-3,2,2
      00053  0534 00 1 00027  BAD    LXA     XR1,1
      00054  0534 00 2 00026         LXA     XR2,2
      00055  0534 00 4 00025         LXA     XR4,4
      00056  0020 60 4 00003         TRA*    3,4
1      NEWMOD  -  03/25/68   D.A. ANDERSON  COMPUTE NEW MODE FOR FILE            07/06/71 1755.1 PAGE 2

      00057  3 00024 2 00074  GOTMOD TXH     OUT,2,REMOVE
      00060  0500 00 2 00125         CLA     MODS+NMOD+1,2
      00061 -0501 00 0 00127         ORA     OCTBUF
      00062  0600 00 0 00127         STZ     OCTBUF
      00063 -0602 60 4 00001         ORS*    1,4
      00064 -0120 00 0 00066         TMI     NDLOP
      00065 -0625 00 0 00126  SETHAV STL     HAVSUM
      00066  2 00001 1 00034  NDLOP  TIX     LOOP,1,1
      00067 -0500 00 0 00127  EXIT   CAL     OCTBUF
      00070 -0520 00 0 00126         NZT     HAVSUM
      00071 -0501 00 0 00101         ORA     OLDMOD
      00072 -0602 60 4 00001         ORS*    1,4
      00073  0020 00 4 00002         TRA     2,4

      00074 -2 00001 1 00053  OUT    TNX     BAD,1,1
      00075  0020 00 0 00067         TRA     EXIT

      00076  000000000061     MODS   BCI     1,00000/
      00077  0 00000 0 00000         PZE
      00100  000000000054     .RMV.  BCI     1,00000*
      00101  0 00000 0 00000  OLDMOD PZE
      00102  000000000044            BCI     1,00000M
      00103 +000000000200            OCT     200
      00104  000000000047            BCI     1,00000P
      00105 +000000000100            OCT     100
      00106  000000000043            BCI     1,00000L
      00107 +000000000040            OCT     40
      00110  000000000065            BCI     1,00000V
      00111 +000000000020            OCT     20
      00112  000000000066            BCI     1,00000W
      00113 +000000000010            OCT     10
      00114  000000000051            BCI     1,00000R
      00115 +000000000004            OCT     4
      00116  000000000062            BCI     1,00000S
      00117 +000000000002            OCT     2
      00120  000000000063            BCI     1,00000T
      00121 +000000000001            OCT     1
      00122  000000000060            BCI     1,00000
      00123 -000000000000            OCT     -0
                       00024  REMOVE EQU     *-.RMV.
                       00026  NMOD   EQU     *-MODS

      00124  0 00000 0 00000  MODE1
      00125  0 00000 0 00000  MODE2
      00126  0 00000 0 00000  HAVSUM
      00127  0 00000 0 00000  OCTBUF

                                     END

        LITERALS
      00130  000000000007
      00131  000000000377
1      NEWMOD  -  03/25/68   D.A. ANDERSON  COMPUTE NEW MODE FOR FILE            07/06/71 1755.1 PAGE 1
                        POST PROCESSOR ASSEMBLY DATA

        132 IS THE FIRST LOCATION NOT USED BY THIS PROGRAM

0REFERENCES TO DEFINED SYMBOLS
         53    BAD    74
         74    OUT    57
         27    XR1     2,   53
         26    XR2     3,   54
         25    XR4     4,   55
         67   EXIT    75
         34   LOOP    66
         76   MODS    47,   60,  124
         26   NMOD    46,   47,   60,  124
         13  CYCLE    20
        100  .RMV.   124
        124  MODE1    11,   14,   23
        125  MODE2    12,   17,   21
         66  NDLOP    64
         21  NOREM    15
         31 GENMOD    13,   16
         57 GOTMOD    51
        126 HAVSUM    32,   65,   70
          2 NEWMOD     0
         46 NOTOCT    37
        127 OCTBUF    31,   42,   44,   61,   62,   67
        101 OLDMOD     6,   71
         24 REMOVE    15,   20,   57,  124
         65 SETHAV    45

0 NO ERROR IN ABOVE ASSEMBLY.


UPDATE   BCD 09/18/68 2320.9   11110         00000
1            COPY/UPDATE - COMMON FILE TRANSMISSION COMMANDS.                                    PAGE 1

                                             7/28/66 - NOEL I. MORRIS

                                     UNLIST
 M                            CALL   MACRO   SUBR,LIST


        TRANSFER VECTOR
      00000  712543606060     ZEL
      00001  644531506425     UNIQUE
      00002  234647706060     COPY
      00003  242543256325     DELETE
      00004  475145632551     PRNTER

                       00660  RCOUNT EQU     432
1            COPY/UPDATE - COMMON FILE TRANSMISSION COMMANDS.                                    PAGE 2
                           PICK UP PARAMETERS AND ASSIGN BUFFERS.

      00005                          CALL    SETBRK(CHN)   SET A BREAK LEVEL
      00005  0074 00 4 00347         TSX     SETBRK,4                                                         .002
      00006  3 00000 0 00216         PAR     CHN                                                              .004

      00007                          CALL    FERRTN        SET FILE SYSTEM ERROR RETURN
      00007  0074 00 4 00350         TSX     FERRTN,4                                                         .002
      00010  0 00000 0 00237         PZE     ERR           ..

      00011                          CALL    GETCLS((CBUF,,0))  PICK UP PARAMETERS
      00011  0074 00 4 00351         TSX     GETCLS,4                                                         .002
      00012  3 00000 0 00307         PAR     CBUF,,0                                                          .004

      00013 -0500 00 0 00307         CAL     CBUF          CHECK NAME OF COMMAND
      00014 -0340 00 0 00430         LAS     =H  COPY      ..
      00015  0020 00 0 00017         TRA     *+2           ..
      00016  0020 00 0 00024         TRA     NAMOK         THIS IS COPY COMMAND
      00017 -0340 00 0 00433         LAS     =HUPDATE      ..
      00020  0020 00 0 00222         TRA     BADNAM        COMMAND NAME UNKNOWN
      00021  0020 00 0 00023         TRA     *+2           ..
      00022  0020 00 0 00222         TRA     BADNAM        ..
      00023 -0625 00 0 00344         STL     UPDSW.        SET UPDATE INDIC.
                       00024  NAMOK  SYN     *

      00024  0774 00 4 00002         AXT     2,4           CHECK FOR EARLY FENCE
      00025 -0500 00 4 00312         CAL     CBUF+3,4      ..
      00026  0322 00 0 00346         ERA     FENCE         ..
      00027  0100 00 0 00225         TZE     NOPAR         INCOMPLETE SET OF PARAMETERS
      00030  2 00001 4 00025         TIX     *-3,4,1       ..

      00031                          CALL    $ZEL(CBUF+1)  CONVERT COMMON FILE NO.
      00031  0074 00 4 00000         TSX     $ZEL,4                                                           .002
      00032  3 00000 0 00310         PAR     CBUF+1                                                           .004
      00033 -0340 00 0 00405         LAS     =H00000S      CHECK FOR 'S'
      00034  0020 00 0 00036         TRA     *+2           ..
      00035 -0500 00 0 00404         CAL     =H00000P      CHANGE 'S' TO 'P'
      00036  0602 00 0 00340         SLW     CFN           ..
                              CF0    =L      GETCF         PICK UP HOME COMMON FILE NO.
      00037  0074 00 4 00352         TSX     GETCF,4                                                          .003
      00040  0602 00 0 00337         SLW     CF0                                                              .002


      00041                          CALL    GETMEM        GET MEMBND
      00041  0074 00 4 00353         TSX     GETMEM,4                                                         .002
      00042  0621 00 0 00160         STA     MOV+5         ..
      00043  0361 00 0 00345         ACL     BUFLEN        ..
      00044  0621 00 0 00161         STA     MOV+6         ..
      00045  0361 00 0 00345         ACL     BUFLEN        ..
      00046  0621 00 0 00162         STA     MOV+7         ..
      00047  0361 00 0 00345         ACL     BUFLEN        ..
      00050                          EXTEND  (BFR+3)       EXTEND MEMBND
      00050  0621 00 0 00152         STA     BFR+3                                                            .003
      00051  0361 00 0 00407         ACL     =432                                                             .002
      00052  0074 00 4 00354         TSX     SETMEM,4                                                         .003
1            COPY/UPDATE - COMMON FILE TRANSMISSION COMMANDS.                                    PAGE 3
                           COPY OR UPDATE THE FILE.

      00053 -0774 00 1 00002         AXC     2,1           PARAMETER PICK UP INDEX
      00054 -0500 00 1 00307  LOOP   CAL     CBUF,1        FIRST NAME OF FILE
      00055  0602 00 0 00272         SLW     N1            ..
      00056  0322 00 0 00346         ERA     FENCE         CHECK FOR NONE
      00057  0100 00 0 00216         TZE     FIN           ALL FINISHED IF FENCE
      00060 -0500 00 1 00310         CAL     CBUF+1,1      SECOND NAME OF FILE
      00061  0602 00 0 00274         SLW     N2            ..
      00062  0322 00 0 00346         ERA     FENCE         CHECK FOR UNPAIRED FILE NAME
      00063  0100 00 0 00232         TZE     UNPAIR        ..

      00064                          CALL    $UNIQUE(T1,T2) PICK UP UNIQUE TEMPORARY FILE NAME
      00064  0074 00 4 00001         TSX     $UNIQUE,4                                                        .002
      00065  3 00000 0 00335         PAR     T1                                                               .004
      00066  3 00000 0 00336         PAR     T2                                                               .004

      00067 -0500 00 0 00272         CAL     N1            CHECK FOR OUTPUT RQUEST FILE
      00070  0322 00 0 00425         ERA     =HOUTPUT      ..
      00071 -0100 00 0 00116         TNZ     NO.RQ         ..
      00072 -0500 00 0 00274         CAL     N2            ..
      00073  0322 00 0 00426         ERA     =HRQUEST      ..
      00074 -0100 00 0 00116         TNZ     NO.RQ         ..

      00075  0520 00 0 00344         ZET     UPDSW.        CHECK FOR UPDATE
      00076                          CALL    CMFL(CFN)     SWITCH COMFILS
      00076  0074 00 4 00220         TSX     CMFL,4                                                           .002
      00077  3 00000 0 00340         PAR     CFN                                                              .004

      00100                          CALL    FSTATE(N1,N2(*,,0)*+2) CHECK FOR FILE
      00100  0074 00 4 00355         TSX     FSTATE,4                                                         .002
      00101  3 00000 0 00272         PAR     N1                                                               .004
      00102  3 00000 0 00274         PAR     N2                                                               .004
      00103  3 00000 0 00103         PAR     *,,0                                                             .004
      00104  3 00000 0 00106         PAR     *+2                                                              .004

      00105                          CALL    CHFILE(N1,N2,=-0,T1,T2) RENAME TO TEMPORARY FILE
      00105  0074 00 4 00356         TSX     CHFILE,4                                                         .002
      00106  3 00000 0 00272         PAR     N1                                                               .004
      00107  3 00000 0 00274         PAR     N2                                                               .004
      00110  3 00000 0 00423         PAR     =-0                                                              .004
      00111  3 00000 0 00335         PAR     T1                                                               .004
      00112  3 00000 0 00336         PAR     T2                                                               .004

      00113  0520 00 0 00344         ZET     UPDSW.        CHECK FOR UPDATE AGAIN
      00114                          CALL    CMFL(CF0)     AND SWITCH BACK IF NECESSARY
      00114  0074 00 4 00220         TSX     CMFL,4                                                           .002
      00115  3 00000 0 00337         PAR     CF0                                                              .004

                       00116  NO.RQ  SYN     *
      00116 -0520 00 0 00344         NZT     UPDSW.        CHECK FOR COPY
      00117                          CALL    CMFL(CFN)     SWITCH TO COMMON FILE FOR COPY
      00117  0074 00 4 00220         TSX     CMFL,4                                                           .002
      00120  3 00000 0 00340         PAR     CFN                                                              .004
1            COPY/UPDATE - COMMON FILE TRANSMISSION COMMANDS.                                    PAGE 4
                           COPY OR UPDATE THE FILE.

      00121                          CALL    FSTATE(N1,N2(STAT,,2))  CHECK MODE OF ORIGINAL FILE
      00121  0074 00 4 00355         TSX     FSTATE,4                                                         .002
      00122  3 00000 0 00272         PAR     N1                                                               .004
      00123  3 00000 0 00274         PAR     N2                                                               .004
      00124  3 00002 0 00333         PAR     STAT,,2                                                          .004

      00125                          CALL    OPEN(=HR,N1,N2)  OPEN THE FILE
      00125  0074 00 4 00357         TSX     OPEN,4                                                           .002
      00126  3 00000 0 00427         PAR     =HR                                                              .004
      00127  3 00000 0 00272         PAR     N1                                                               .004
      00130  3 00000 0 00274         PAR     N2                                                               .004

      00131  0520 00 0 00344         ZET     UPDSW.        CHECK FOR COPY OR UPDATE
      00132                          CALL    CMFL(CFN)     UPDATE - SWITCH TO COMFIL
      00132  0074 00 4 00220         TSX     CMFL,4                                                           .002
      00133  3 00000 0 00340         PAR     CFN                                                              .004
      00134 -0520 00 0 00344         NZT     UPDSW.        ..
      00135                          CALL    CMFL(CF0)     COPY - SWITCH HOME
      00135  0074 00 4 00220         TSX     CMFL,4                                                           .002
      00136  3 00000 0 00337         PAR     CF0                                                              .004

      00137                   OPN    CALL    OPEN(=HW,T1,T2,OP.MOD,=-0,OPERR,ERCODE)  OPEN TEMP.
      00137  0074 00 4 00357         TSX     OPEN,4                                                           .002
      00140  3 00000 0 00436         PAR     =HW                                                              .004
      00141  3 00000 0 00335         PAR     T1                                                               .004
      00142  3 00000 0 00336         PAR     T2                                                               .004
      00143  3 00000 0 00343         PAR     OP.MOD                                                           .004
      00144  3 00000 0 00423         PAR     =-0                                                              .004
      00145  3 00000 0 00246         PAR     OPERR                                                            .004
      00146  3 00000 0 00341         PAR     ERCODE                                                           .004

      00147                   BFR    CALL    BUFFER(T1,T2(**,,RCOUNT))  ASSIGN FILE SYSTEM BUFFER
      00147  0074 00 4 00360         TSX     BUFFER,4                                                         .002
      00150  3 00000 0 00335         PAR     T1                                                               .004
      00151  3 00000 0 00336         PAR     T2                                                               .004
      00152  3 00660 0 00000         PAR     **,,RCOUNT                                                       .004

      00153                   MOV    CALL    $COPY(N1,N2,T1,T2,**,**,**,BUFLEN,ERR)  COPY THE FILE
      00153  0074 00 4 00002         TSX     $COPY,4                                                          .002
      00154  3 00000 0 00272         PAR     N1                                                               .004
      00155  3 00000 0 00274         PAR     N2                                                               .004
      00156  3 00000 0 00335         PAR     T1                                                               .004
      00157  3 00000 0 00336         PAR     T2                                                               .004
      00160  3 00000 0 00000         PAR     **                                                               .004
      00161  3 00000 0 00000         PAR     **                                                               .004
      00162  3 00000 0 00000         PAR     **                                                               .004
      00163  3 00000 0 00345         PAR     BUFLEN                                                           .004
      00164  3 00000 0 00237         PAR     ERR                                                              .004

      00165                          CALL    CLOSE(=HALL,=-0)  CLOSE ALL FILES
      00165  0074 00 4 00361         TSX     CLOSE,4                                                          .002
      00166  3 00000 0 00410         PAR     =HALL                                                            .004
      00167  3 00000 0 00423         PAR     =-0                                                              .004
1            COPY/UPDATE - COMMON FILE TRANSMISSION COMMANDS.                                    PAGE 5
                           COPY OR UPDATE THE FILE.

                              MODE   =       $DELETE(N1,N2,*,NOXMT)  DELETE OLD FILE, IF ANY
      00170  0074 00 4 00003         TSX     $DELETE,4                                                        .003
      00171  3 00000 0 00272         PAR     N1                                                               .005
      00172  3 00000 0 00274         PAR     N2                                                               .005
      00173  3 00000 0 00173         PAR     *                                                                .005
      00174  3 00000 0 00241         PAR     NOXMT                                                            .005
      00175  0601 00 0 00342         STO     MODE                                                             .002

      00176 -0520 00 0 00344         NZT     UPDSW.        IF UPDATE
      00177  0020 00 0 00202         TRA     *+3           ..
      00200 -0500 00 0 00334         CAL     STAT+1        USE MODE OF TRANSMITTED FILE
      00201  0602 00 0 00342         SLW     MODE          OTHERWISE, MODE OF OLD FILE

      00202                   CHF    CALL    CHFILE(T1,T2,MODE,N1,N2,CHERR,ERCODE)  TRY TO RENAME
      00202  0074 00 4 00356         TSX     CHFILE,4                                                         .002
      00203  3 00000 0 00335         PAR     T1                                                               .004
      00204  3 00000 0 00336         PAR     T2                                                               .004
      00205  3 00000 0 00342         PAR     MODE                                                             .004
      00206  3 00000 0 00272         PAR     N1                                                               .004
      00207  3 00000 0 00274         PAR     N2                                                               .004
      00210  3 00000 0 00254         PAR     CHERR                                                            .004
      00211  3 00000 0 00341         PAR     ERCODE                                                           .004

      00212  0520 00 0 00344         ZET     UPDSW.        IF UPDATE,
      00213                          CALL    CMFL(CF0)     SWITCH HOME
      00213  0074 00 4 00220         TSX     CMFL,4                                                           .002
      00214  3 00000 0 00337         PAR     CF0                                                              .004

      00215  1 77776 1 00054         TXI     LOOP,1,-2     SEE IF MORE FILES TO TRANSMIT


                       00216  FIN    SYN     *
      00216                   CHN    CALL    CHNCOM(0)
      00216  0074 00 4 00362         TSX     CHNCOM,4                                                         .002
      00217  3 00000 0 00000         PAR     0                                                                .004


      00220 -0500 60 4 00001  CMFL   CAL*    1,4           PICK UP COMMON FILE NUMBER
      00221  0101 00 0 00415         TIA     =HCOMFIL      AND GO TO A-CORE
1            COPY/UPDATE - COMMON FILE TRANSMISSION COMMANDS.                                    PAGE 6
                           ERROR SECTION.

      00222                   BADNAM COMENT  C1,4( ILLEGAL COMMAND NAME.)
      00222  0074 00 4 00363         TSX     WRFLX,4                                                          .003
      00223  3 00004 0 00364         PAR     C1,,4                                                            .005
      00224  0021 00 0 00216         XIT     CHN           ..

      00225 -0500 00 0 00307  NOPAR  CAL     CBUF          INSERT NAME OF COMMAND
      00226  0602 00 0 00302         SLW     USAGE+2       INTO USAGE MESSAGE

      00227                          COMENT  USAGE,7
      00227  0074 00 4 00363         TSX     WRFLX,4                                                          .003
      00230  3 00007 0 00300         PAR     USAGE,,7                                                         .005
      00231  0021 00 0 00216         XIT     CHN           ..

      00232 -0500 00 1 00307  UNPAIR CAL     CBUF,1        GET UNPAIRED PARAMETER
      00233  0602 00 0 00370         SLW     C3            FOR ERROR MESSAGE

      00234                          COMENT  C3,3(XXXXXX IGNORED.)
      00234  0074 00 4 00363         TSX     WRFLX,4                                                          .003
      00235  3 00003 0 00370         PAR     C3,,3                                                            .005
      00236  0021 00 0 00216         XIT     CHN           ..

      00237                   ERR    CALL    $PRNTER(=O71)  PRINT FILE SYSTEM ERROR MESSAGE
      00237  0074 00 4 00004         TSX     $PRNTER,4                                                        .002
      00240  3 00000 0 00406         PAR     =O71                                                             .004

      00241                   NOXMT  CALL    WRFLX((N1,,6))  TELL USER FILE NOT TRANSMITTED
      00241  0074 00 4 00363         TSX     WRFLX,4                                                          .002
      00242  3 00006 0 00272         PAR     N1,,6                                                            .004

      00243                          CALL    CMFL(CF0)     SWITCH HOME
      00243  0074 00 4 00220         TSX     CMFL,4                                                           .002
      00244  3 00000 0 00337         PAR     CF0                                                              .004
      00245  1 77776 1 00054         TXI     LOOP,1,-2     BACK FOR MORE

      00246  0500 00 0 00341  OPERR  CLA     ERCODE        CHECK FOR RECORD QUOTA OVERFLOW
      00247  0402 00 0 00402         SUB     =15           ..
      00250 -0100 00 0 00237         TNZ     ERR           ANY OTHER ERROR IS FATAL

      00251 -0500 00 0 00400         CAL     =O001         TEMPORARY MUST BE IN TEMPORARY MODE
      00252  0602 00 0 00343         SLW     OP.MOD        ..
      00253  0020 00 0 00137         TRA     OPN           TRY AGAIN NOW

      00254  0500 00 0 00341  CHERR  CLA     ERCODE        PICK UP CHFILE ERROR CODE
      00255  0402 00 0 00401         SUB     =9            CHECK FOR RECORD QUOTA OVERFLOW
      00256 -0100 00 0 00237         TNZ     ERR           ANY OTHER ERROR IS NOT EXPECTED

      00257                          CALL    $PRNTER(=O41) PRINT ERROR MESSAGE
      00257  0074 00 4 00004         TSX     $PRNTER,4                                                        .002
      00260  3 00000 0 00403         PAR     =O41                                                             .004

      00261 -0500 00 0 00400         CAL     =O001         NEW FILE WILL HAVE TO BE TEMPORARY
      00262  0602 00 0 00342         SLW     MODE
1            COPY/UPDATE - COMMON FILE TRANSMISSION COMMANDS.                                    PAGE 7
                           ERROR SECTION.

      00263                          CALL    WRFLXA((YNF,,5))  TELL USER NEW FILE IS TEMPORARY
      00263  0074 00 4 00373         TSX     WRFLXA,4                                                         .002
      00264  3 00005 0 00270         PAR     YNF,,5                                                           .004
      00265                          COMENT  C4,4( IS IN TEMPORARY MODE.)
      00265  0074 00 4 00363         TSX     WRFLX,4                                                          .003
      00266  3 00004 0 00374         PAR     C4,,4                                                            .005
      00267  0020 00 0 00202         TRA     CHF           TRY AGAIN TO CHFILE
1            COPY/UPDATE - COMMON FILE TRANSMISSION COMMANDS.                                    PAGE 8
                           STORAGE AND CONSTANTS.

      00270  606070466451     YNF    BCI     2,  YOUR NEW
      00271  604525666060
      00272  0 00000 0 00000  N1     PZE
      00273  575757575760            VFD     O36/575757575760
      00274  0 00000 0 00000  N2     PZE
      00275  604546636063            BCI     3, NOT TRANSMITTED.
      00276  512145624431
      00277  636325243360
      00300  606064622127     USAGE  BCI     7,  USAGE IS 'XXXXXX N NAME1 NAME2 ... ...'
      00301  256031626014
      00302  676767676767
      00303  604560452144
      00304  250160452144
      00305  250260333333
      00306  603333331460

      00307                   CBUF   BSS     20
      00333                   STAT   BSS     2

      00335                   T1     BSS     1
      00336                   T2     BSS     1

      00337                   CF0    BSS     1
      00340                   CFN    BSS     1

      00341                   ERCODE BSS     1
      00342                   MODE   BSS     1

      00343  000000000000     OP.MOD VFD     O36/000
      00344  0 00000 0 00000  UPDSW. PZE     0
      00345  0 00000 0 03300  BUFLEN PZE     RCOUNT*4

      00346  777777777777     FENCE  VFD     O36//

      00347                          RMT     *             REMOTE SEQUENCES
      00347  0101 00 0 00431  SETBRK TIA     =HSETBRK                                                         .002
      00350  0101 00 0 00416  FERRTN TIA     =HFERRTN                                                         .002
      00351  0101 00 0 00421  GETCLS TIA     =HGETCLS                                                         .002
      00352  0101 00 0 00420  GETCF  TIA     =HGETCF                                                          .002
      00353  0101 00 0 00422  GETMEM TIA     =HGETMEM                                                         .002
      00354  0101 00 0 00432  SETMEM TIA     =HSETMEM                                                         .002
      00355  0101 00 0 00417  FSTATE TIA     =HFSTATE                                                         .002
      00356  0101 00 0 00412  CHFILE TIA     =HCHFILE                                                         .002
      00357  0101 00 0 00424  OPEN   TIA     =HOPEN                                                           .002
      00360  0101 00 0 00411  BUFFER TIA     =HBUFFER                                                         .002
      00361  0101 00 0 00414  CLOSE  TIA     =HCLOSE                                                          .002
      00362  0101 00 0 00413  CHNCOM TIA     =HCHNCOM                                                         .002
      00363  0101 00 0 00435  WRFLX  TIA     =HWRFLX                                                          .002
      00364  603143432527     C1     BCI     4, ILLEGAL COMMAND NAME.                                         .002
      00365  214360234644
      00366  442145246045
      00367  214425336060
      00370  676767676767     C3     BCI     3,XXXXXX IGNORED.                                                .002
      00371  603127454651
      00372  252433606060
1            COPY/UPDATE - COMMON FILE TRANSMISSION COMMANDS.                                    PAGE 9
                           STORAGE AND CONSTANTS.

      00373  0101 00 0 00434  WRFLXA TIA     =HWRFLXA                                                         .002
      00374  603162603145     C4     BCI     4, IS IN TEMPORARY MODE.                                         .002
      00375  606325444746
      00376  512151706044
      00377  462425336060

                                     END

        LITERALS
      00400  000000000001
      00401  000000000011
      00402  000000000017
      00403  000000000041
      00404  000000000047
      00405  000000000062
      00406  000000000071
      00407  000000000660
      00410  214343606060
      00411  226426262551
      00412  233026314325
      00413  233045234644
      00414  234346622560
      00415  234644263143
      00416  262551516345
      00417  266263216325
      00420  272563232660
      00421  272563234362
      00422  272563442544
      00423  400000000000
      00424  464725456060
      00425  466463476463
      00426  515064256263
      00427  516060606060
      00430  606023464770
      00431  622563225142
      00432  622563442544
      00433  644724216325
      00434  665126436721
      00435  665126436760
      00436  666060606060
1            COPY/UPDATE - COMMON FILE TRANSMISSION COMMANDS.                                    PAGE 1
                        POST PROCESSOR ASSEMBLY DATA

        437 IS THE FIRST LOCATION NOT USED BY THIS PROGRAM

0REFERENCES TO DEFINED SYMBOLS
        364     C1   223
        370     C3   233,  235
        374     C4   266
        272     N1    55,   67,  101,  106,  122,  127,  154,  171,  206,  242
        274     N2    61,   72,  102,  107,  123,  130,  155,  172,  207
        335     T1    65,  111,  141,  150,  156,  203
        336     T2    66,  112,  142,  151,  157,  204
        147    BFR    50
        337    CF0    40,  115,  136,  214,  244
        340    CFN    36,   77,  120,  133
        202    CHF   267
        216    CHN     6,  224,  231,  236
        237    ERR    10,  164,  250,  256
        216    FIN    57,  216
        153    MOV    42,   44,   46
        137    OPN   253
        270    YNF   264
          0    ZEL    31
        307   CBUF    12,   13,   25,   32,   54,   60,  225,  232
        220   CMFL    76,  114,  117,  132,  135,  213,  243
          2   COPY   153
         54   LOOP   215,  245
        342   MODE   175,  201,  205,  262
        357   OPEN   125,  137
        333   STAT   124,  200
        254  CHERR   210
        361  CLOSE   165
        346  FENCE    26,   56,   62
        352  GETCF    37
         24  NAMOK    16,   24
        116  NO.RQ    71,   74,  116
        225  NOPAR    27
        241  NOXMT   174
        246  OPERR   145
        300  USAGE   226,  230
        363  WRFLX   222,  227,  234,  241,  265
        222 BADNAM    20,   22
        360 BUFFER   147
        345 BUFLEN    43,   45,   47,  163
        356 CHFILE   105,  202
        362 CHNCOM   216
          3 DELETE   170
        341 ERCODE   146,  211,  246,  254
        350 FERRTN     7
        355 FSTATE   100,  121
        351 GETCLS    11
        353 GETMEM    41
        343 OP.MOD   143,  252
          4 PRNTER   237,  257
        660 RCOUNT     5,  152,  345
        347 SETBRK     5
1            COPY/UPDATE - COMMON FILE TRANSMISSION COMMANDS.                                    PAGE 2
                        POST PROCESSOR ASSEMBLY DATA

        354 SETMEM    52
          1 UNIQUE    64
        232 UNPAIR    63
        344 UPDSW.    23,   75,  113,  116,  131,  134,  176,  212
        373 WRFLXA   263

0 NO ERROR IN ABOVE ASSEMBLY.
1            COPY - COPY ONE FILE INTO ANOTHER.                                                  PAGE 1

                                             1/18/66 - NOEL I. MORRIS

                              * * * * * * * * * * * * * * * * * * * * * * * * * * * * * * * * * * * *
                              *
                              *      CALLING SEQUENCE -
                              *
                              *      COPY. (IN1, IN2, OUT1, OUT2, BUFF1, BUFF2, BUFF3, NWDSPR, ERRET)
                              *
                              *      IN1    = PRIMARY NAME OF INPUT FILE.
                              *      IN2    = SECONDARY NAME OF INPUT FILE.
                              *      OUT1   = PRIMARY NAME OF OUTPUT FILE.
                              *      OUT2   = SECONDARY NAME OF OUTPUT FILE.
                              *      BUFF1, BUFF2, AND BUFF3 ARE DISK BUFFERS.
                              *      NWDSPR = LENGTH OF THE DISK BUFFERS.
                              *      ERRET  = FILE SYSTEM ERROR RETURN.
                              *
                              *
                              * * * * * * * * * * * * * * * * * * * * * * * * * * * * * * * * * * * *


                                     UNLIST
 M                            CALL   MACRO   SUBR,LIST


                       00000         ENTRY   COPY

      00000  0634 00 1 00107  COPY   SXA     X1,1          SAVE XRS
      00001  0634 00 2 00110         SXA     X2,2          ..
      00002  0634 00 4 00111         SXA     X4,4          ..

      00003 -0500 60 4 00001         CAL*    1,4           GET IN1
      00004  0602 00 0 00170         SLW     IN1           ..
      00005 -0500 60 4 00002         CAL*    2,4           GET IN2
      00006  0602 00 0 00171         SLW     IN2           ..
      00007 -0500 60 4 00003         CAL*    3,4           GET OUT1
      00010  0602 00 0 00172         SLW     OUT1          ..
      00011 -0500 60 4 00004         CAL*    4,4           GET OUT2
      00012  0602 00 0 00173         SLW     OUT2          ..
      00013 -0500 00 4 00005         CAL     5,4           GET BUFFER ADDRESSES
      00014  0621 00 0 00151         STA     BUFF1         ..
      00015 -0500 00 4 00006         CAL     6,4           ..
      00016  0621 00 0 00152         STA     BUFF2         ..
      00017 -0500 00 4 00007         CAL     7,4           ..
      00020  0621 00 0 00153         STA     BUFF3         ..
      00021 -0500 60 4 00010         CAL*    8,4           GET RECORD COUNT
      00022  0602 00 0 00154         SLW     EOFCT         ..
      00023  0602 00 0 00155         SLW     EOFCT+1       ..
      00024  0602 00 0 00156         SLW     EOFCT+2       ..

      00025                          CALL    FERRTN        SET UP FILE SYSTEM ERROR RETURN
      00025  0074 00 4 00174         TSX     FERRTN,4                                                         .002
      00026  0 00000 0 00141         PZE     ERR           ..
      00027  0621 00 0 00106         STA     RETERR        SAVE OLD ERROR RETURN
1            COPY - COPY ONE FILE INTO ANOTHER.                                                  PAGE 2

      00030  0600 00 0 00166         STZ     TEOF          RESET EOF INDIC.
      00031 -0625 00 0 00165         STL     FIRST         SET FIRST TIME INDIC.

      00032                          CALL    FSTATE(IN1,IN2(STAT,,5)) PICK UP INPUT FILE STATUS
      00032  0074 00 4 00175         TSX     FSTATE,4                                                         .002
      00033  3 00000 0 00170         PAR     IN1                                                              .004
      00034  3 00000 0 00171         PAR     IN2                                                              .004
      00035  3 00005 0 00157         PAR     STAT,,5                                                          .004

      00036 -0774 00 1 00000         AXC     0,1           INITIALIZE INPUT BUFFER INDEX
      00037 -0774 00 2 00000         AXC     0,2           INITIALIZE OUTPUT BUFFER INDEX

                       00040  LOOP   SYN     *

      00040  0520 00 0 00166         ZET     TEOF          CHECK FOR PREVIOUS EOF
      00041  0020 00 0 00065         TRA     CONTIN        SKIP READ IF SO

      00042 -0500 00 1 00151         CAL     BUFLOC,1      SET BUFFER FOR READ
      00043  0602 00 0 00050         SLW     RD+4          ..

      00044                   RD     CALL    RDFILE(IN1,IN2,=0(**,...,**)EOF,COUNT) READ
      00044  0074 00 4 00176         TSX     RDFILE,4                                                         .002
      00045  3 00000 0 00170         PAR     IN1                                                              .004
      00046  3 00000 0 00171         PAR     IN2                                                              .004
      00047  3 00000 0 00201         PAR     =0                                                               .004
      00050  2 00000 0 00000         BLK     **,,**                                                           .004
      00051  3 00000 0 00113         PAR     EOF                                                              .004
      00052  3 00000 0 00164         PAR     COUNT                                                            .004

      00053  0500 00 0 00163         CLA     R.PTR         STEP THE READ POINTER
      00054  0400 00 0 00154         ADD     EOFCT         BY BUFFER LENGTH
      00055  0602 00 0 00163         SLW     R.PTR         ..

      00056  1 77777 1 00057         TXI     *+1,1,-1      STEP READ BUFFER INDEX
      00057  3 77775 1 00061         TXH     *+2,1,-3      ..
      00060 -0774 00 1 00000         AXC     0,1           ..

      00061 -0520 00 0 00165         NZT     FIRST         IF NOT FIRST TIME,
      00062  0020 00 0 00065         TRA     CONTIN        KEEP GOING
      00063  0600 00 0 00165         STZ     FIRST         OTHERWISE,
      00064  0020 00 0 00040         TRA     LOOP          GO READ ANOTHER RECORD


      00065 -0500 00 2 00151  CONTIN CAL     BUFLOC,2      SET BUFFER FOR WRITE
      00066  0602 00 0 00073         SLW     WR+4          ..

      00067                   WR     CALL    WRFILE(OUT1,OUT2,=0(**,...,**)) WRITE
      00067  0074 00 4 00177         TSX     WRFILE,4                                                         .002
      00070  3 00000 0 00172         PAR     OUT1                                                             .004
      00071  3 00000 0 00173         PAR     OUT2                                                             .004
      00072  3 00000 0 00201         PAR     =0                                                               .004
      00073  2 00000 0 00000         BLK     **,,**                                                           .004

      00074 -0520 00 0 00166         NZT     TEOF          IF EOF,
      00075  0020 00 0 00101         TRA     WINCR         ..
      00076  0756 00 2 00000         PCA     ,2            CHECK FOR HAVING WRITTEN LAST RECORD
1            COPY - COPY ONE FILE INTO ANOTHER.                                                  PAGE 3

      00077  0402 00 0 00167         SUB     EOFX          ..
      00100  0100 00 0 00105         TZE     FINISH        ..

      00101  1 77777 2 00102  WINCR  TXI     *+1,2,-1      STEP WRITE BUFFER INDEX
      00102  3 77775 2 00104         TXH     *+2,2,-3      ..
      00103 -0774 00 2 00000         AXC     0,2           ..
      00104  0020 00 0 00040         TRA     LOOP          CONTINUE COPYING


                       00105  FINISH SYN     *
      00105                          CALL    FERRTN        RESTORE OLD ERROR RETURN
      00105  0074 00 4 00174         TSX     FERRTN,4                                                         .002
      00106  0 00000 0 00000  RETERR PZE     **            ..

      00107  0774 00 1 00000  X1     AXT     **,1          RESTORE XRS
      00110  0774 00 2 00000  X2     AXT     **,2          ..
      00111  0774 00 4 00000  X4     AXT     **,4          ..
      00112  0020 00 4 00012         TRA     10,4          RETURN

      00113 -0625 00 0 00166  EOF    STL     TEOF          SET EOF INDIC.

      00114                          CALL    FSTATE(IN1,IN2(STAT,,1)) FIND LENGTH NOW
      00114  0074 00 4 00175         TSX     FSTATE,4                                                         .002
      00115  3 00000 0 00170         PAR     IN1                                                              .004
      00116  3 00000 0 00171         PAR     IN2                                                              .004
      00117  3 00001 0 00157         PAR     STAT,,1                                                          .004

      00120  0500 00 0 00157         CLA     STAT          LENGTH + 1 - POINTER
      00121  0400 00 0 00202         ADD     =1            ..
      00122  0402 00 0 00163         SUB     R.PTR         ..
      00123  0402 00 0 00164         SUB     COUNT         SHOULD EQUAL EOF COUNT
      00124  0100 00 0 00132         TZE     EOF.OK        IF SO, NOTHING TO CORRECT

      00125  0400 00 0 00154         ADD     EOFCT         LENGTH + 1 - POINTER + BUFFER LENGTH
      00126  0601 00 0 00164         STO     COUNT         IS THE CORRECT EOF COUNT

      00127  3 00000 1 00131         TXH     *+2,1,0       DECREASE THE READ BUFFER INDEX
      00130 -0774 00 1 00003         AXC     3,1           ..
      00131  1 00001 1 00132         TXI     *+1,1,1       TO CORRECT FOR MISSED EOF

      00132 -0500 00 0 00164  EOF.OK CAL     COUNT         SET EOF COUNT
      00133  0602 00 1 00154         SLW     EOFCT,1       ..
      00134  0636 00 1 00167         SCA     EOFX,1        SAVE READ BUFFER INDEX

      00135                          CALL    FWAIT(IN1,IN2) WAIT FOR I/O
      00135  0074 00 4 00200         TSX     FWAIT,4                                                          .002
      00136  3 00000 0 00170         PAR     IN1                                                              .004
      00137  3 00000 0 00171         PAR     IN2                                                              .004
      00140  0020 00 0 00065         TRA     CONTIN        NOW, FINISH UP

      00141 -0500 00 0 00106  ERR    CAL     RETERR        RESTORE OLD ERROR RETURN
      00142  0621 00 0 00144         STA     *+2           ..
      00143                          CALL    FERRTN        ..
      00143  0074 00 4 00174         TSX     FERRTN,4                                                         .002
      00144  0 00000 0 00000         PZE     **            ..
1            COPY - COPY ONE FILE INTO ANOTHER.                                                  PAGE 4

      00145  0522 00 0 00107         XEC     X1            RESTORE XRS
      00146  0522 00 0 00110         XEC     X2            ..
      00147  0522 00 0 00111         XEC     X4            ..
      00150  0020 60 4 00011         TRA*    9,4           AND TAKE ERROR RETURN


                       00151  BUFLOC SYN     *
      00151  2 00154 0 00000  BUFF1  PTW     **,,EOFCT
      00152  2 00155 0 00000  BUFF2  PTW     **,,EOFCT+1
      00153  2 00156 0 00000  BUFF3  PTW     **,,EOFCT+2

      00154                   EOFCT  BSS     3

      00157                   STAT   BSS     5
                       00163  R.PTR  SYN     STAT+4

      00164  0 00000 0 00000  COUNT  PZE
      00165  0 00000 0 00000  FIRST  PZE
      00166  0 00000 0 00000  TEOF   PZE
      00167  0 00000 0 00000  EOFX   PZE

      00170  0 00000 0 00000  IN1    PZE
      00171  0 00000 0 00000  IN2    PZE
      00172  0 00000 0 00000  OUT1   PZE
      00173  0 00000 0 00000  OUT2   PZE

      00174                          RMT     *             REMOTE SEQUENCES.
      00174  0101 00 0 00203  FERRTN TIA     =HFERRTN                                                         .002
      00175  0101 00 0 00204  FSTATE TIA     =HFSTATE                                                         .002
      00176  0101 00 0 00206  RDFILE TIA     =HRDFILE                                                         .002
      00177  0101 00 0 00207  WRFILE TIA     =HWRFILE                                                         .002
      00200  0101 00 0 00205  FWAIT  TIA     =HFWAIT                                                          .002

                                     END

        LITERALS
      00201  000000000000
      00202  000000000001
      00203  262551516345
      00204  266263216325
      00205  266621316360
      00206  512426314325
      00207  665126314325
1            COPY - COPY ONE FILE INTO ANOTHER.                                                  PAGE 1
                        POST PROCESSOR ASSEMBLY DATA

        210 IS THE FIRST LOCATION NOT USED BY THIS PROGRAM

0REFERENCES TO DEFINED SYMBOLS
         44     RD    43
         67     WR    66
        107     X1     0,  145
        110     X2     1,  146
        111     X4     2,  147
        113    EOF    51
        141    ERR    26
        170    IN1     4,   33,   45,  115,  136
        171    IN2     6,   34,   46,  116,  137
          0   COPY     0
        167   EOFX    77,  134
         40   LOOP    40,   64,  104
        172   OUT1    10,   70
        173   OUT2    12,   71
        157   STAT    35,  117,  120,  164
        166   TEOF    30,   40,   74,  113
        151  BUFF1    14
        152  BUFF2    16
        153  BUFF3    20
        164  COUNT    52,  123,  126,  132
        154  EOFCT    22,   23,   24,   54,  125,  133,  151,  152,  153
        165  FIRST    31,   61,   63
        200  FWAIT   135
        163  R.PTR    53,   55,  122,  164
        101  WINCR    75
        151 BUFLOC    42,   65,  151
         65 CONTIN    41,   62,  140
        132 EOF.OK   124
        174 FERRTN    25,  105,  143
        105 FINISH   100,  105
        175 FSTATE    32,  114
        176 RDFILE    44
        106 RETERR    27,  141
        177 WRFILE    67

0 NO ERROR IN ABOVE ASSEMBLY.
1                                                                                                PAGE 1
                           UNIQUE NAME GENERATOR


  BINARY CARD NO. UNIQUE00
                       00003         ENTRY   UNIQUE
                                     EXTERN  GETIME

                                             THIS PROGRAM GENERATES A UNIQUE PAIR OF NAMES

                                             TSX           $UNIQUE,4
                                             PTH           NAME1
                                             PTH           NAME2

                                             THIS PROGRAM IS USED TO GENERATE UNIQUE
                                             NAMES FOR INTERMEDIATE FILES

                                                           D.R. WIDRIG  DEC. 1965


        TRANSFER VECTOR

  BINARY CARD NO. UNIQUE01
      00000  272563314425     GETIME

            LINKAGE DIRECTOR
      00001  000000000000
      00002  644531506425

      00003  0634 00 4 00007  UNIQUE SXA     X4,4          SAVE LINKAGE
      00004  0634 00 1 00026         SXA     X1,1          COUNTER
      00005  0074 00 4 00000         TSX     GETIME,4      GET DATE AND TIME
      00006 -0130 00 0 00000         XCL                   SWITCH AC AND MQ
      00007  0774 00 4 00000  X4     AXT     **,4          RESTORE LINKAGE
      00010 -0320 00 0 00030         ANA     =O777777770000 MASK OUT YY PORTION OF DATE
      00011  0602 60 4 00001         SLW*    1,4           TEMPORARY SAVE
      00012 -0754 00 0 00000         ZAC                   CLEAR AC
      00013 -0773 00 0 00014         RQL     12            THROW OUT HIGH-ORDER ZEROES
      00014 -0763 00 0 00003         LGL     3             CONVERT TO OCTAL
      00015  0767 00 0 00003         ALS     3             ..
      00016 -0763 00 0 00003         LGL     3             ..
      00017 -0602 60 4 00001         ORS*    1,4           'OR' WITH MMDD
      00020  0774 00 1 00006         AXT     6,1           SET LOOP COUNT
      00021 -0754 00 0 00000         ZAC                   CLEAR AC
      00022  0767 00 0 00003         ALS     3             CONVERT TO OCTAL
      00023 -0763 00 0 00003         LGL     3             ..

  BINARY CARD NO. UNIQUE02
      00024  2 00001 1 00022         TIX     *-2,1,1       LOOP
      00025  0602 60 4 00002         SLW*    2,4           SAVE NAME2
      00026  0774 00 1 00000  X1     AXT     **,1          RESTORE XR1
      00027  0020 00 4 00003         TRA     3,4           RETURN
                                     END

        LITERALS
      00030  777777770000
1                                                                                                PAGE 1
                        POST PROCESSOR ASSEMBLY DATA

         31 IS THE FIRST LOCATION NOT USED BY THIS PROGRAM

0REFERENCES TO DEFINED SYMBOLS
         26     X1     4
          7     X4     3
          0 GETIME     5
          3 UNIQUE     0

0 NO ERROR IN ABOVE ASSEMBLY.
1            DELETE ALL VERSIONS OF AN OLD FILE.                                                 PAGE 1

                                             NOEL I. MORRIS - 6/22/65

                                     UNLIST
 M                            CALL   MACRO   SUBR,LIST


                       00001         ENTRY   DELETE


      00000  462351222360     OCRBC

      00001  0634 00 4 00035  DELETE SXA     XR4,4         SAVE XRS
      00002  0604 00 0 00125         STI     SVSI          SAVE SI
      00003  0600 00 0 00122         STZ     MODE          SET MODE TO 'P'

      00004 -0500 60 4 00001         CAL*    1,4           GET FILE NAME
      00005  0602 00 0 00107         SLW     FNAM          ..
      00006 -0500 60 4 00002         CAL*    2,4           ..
      00007  0602 00 0 00111         SLW     FNAM+2        ..

      00010 -0500 60 4 00003         CAL*    3,4           GET DELETION PRINT SWITCH
      00011  0602 00 0 00124         SLW     PSW           ..

      00012                          CALL    FSTATE(FNAM,FNAM+2(BUFF,,2)FSERR,ERCODE)
      00012  0074 00 4 00126         TSX     FSTATE,4                                                         .002
      00013  3 00000 0 00107         PAR     FNAM                                                             .004
      00014  3 00000 0 00111         PAR     FNAM+2                                                           .004
      00015  3 00002 0 00121         PAR     BUFF,,2                                                          .004
      00016  3 00000 0 00070         PAR     FSERR                                                            .004
      00017  3 00000 0 00123         PAR     ERCODE                                                           .004

      00020  0441 00 0 00122         LDI     MODE          GET MODE BITS
      00021 -0054 00  400000         LFT     400000        CHECK FOR LINKED FILE
      00022  0020 00 0 00073         TRA     LINKD         IS LINKED, WILL NOT DELETE

      00023  0054 00  000134         RFT     134           CHECK FOR READ-ONLY/PROTECTED, ETC.
      00024  0020 00 0 00040         TRA     ASK           PROTECTED, ASK FOR DELETE

      00025                   DEL    CALL    DELFIL(FNAM,FNAM+2,NODEL)
      00025  0074 00 4 00127         TSX     DELFIL,4                                                         .002
      00026  3 00000 0 00107         PAR     FNAM                                                             .004
      00027  3 00000 0 00111         PAR     FNAM+2                                                           .004
      00030  3 00000 0 00075         PAR     NODEL                                                            .004

      00031  0520 00 0 00124         ZET     PSW           CHECK FOR DELETION PRINT
      00032                          CALL    WRFLX((DTOF,,6)) PRINT DELETION COMMENT
      00032  0074 00 4 00130         TSX     WRFLX,4                                                          .002
      00033  3 00006 0 00104         PAR     DTOF,,6                                                          .004

      00034 -0500 00 0 00122  GONE   CAL     MODE          GET THE MODE
      00035  0774 00 4 00000  XR4    AXT     **,4          RESTORE XRS
      00036  0441 00 0 00125         LDI     SVSI          AND THE SI
      00037  0020 00 4 00005         TRA     5,4           RETURN
1            DELETE ALL VERSIONS OF AN OLD FILE.                                                 PAGE 2

      00040                   ASK    CALL    $OCRBC(MODE)  CONVERT TO BCD
      00040  0074 00 4 00000         TSX     $OCRBC,4                                                         .002
      00041  3 00000 0 00122         PAR     MODE                                                             .004
      00042 -0501 00 0 00151         ORA     =O605757000000 MASK PROPERLY
      00043  0602 00 0 00112         SLW     BCMODE        AND STORE IN COMMENT

      00044                          CALL    WRFLXA((FNAM-1,,11))
      00044  0074 00 4 00131         TSX     WRFLXA,4                                                         .002
      00045  3 00013 0 00106         PAR     FNAM-1,,11                                                       .004

      00046                          CALL    RDFLXA((BUFF,,1))
      00046  0074 00 4 00132         TSX     RDFLXA,4                                                         .002
      00047  3 00001 0 00121         PAR     BUFF,,1                                                          .004

      00050 -0500 00 0 00121         CAL     BUFF          LOOK AT ANSWER
      00051  0771 00 0 00022         ARS     18            ..
      00052  0322 00 0 00143         ERA     =H000YES      CHECK FOR SPECIFIC 'YES'
      00053 -0100 00 0 00075         TNZ     NODEL         NON-ZERO IF 'NO' OR GARBAGE

      00054                          CALL    CHFILE(FNAM,FNAM+2,=1,=-0,=-0,NODEL)
      00054  0074 00 4 00133         TSX     CHFILE,4                                                         .002
      00055  3 00000 0 00107         PAR     FNAM                                                             .004
      00056  3 00000 0 00111         PAR     FNAM+2                                                           .004
      00057  3 00000 0 00141         PAR     =1                                                               .004
      00060  3 00000 0 00147         PAR     =-0                                                              .004
      00061  3 00000 0 00147         PAR     =-0                                                              .004
      00062  3 00000 0 00075         PAR     NODEL                                                            .004

      00063                          CALL    DELFIL(FNAM,FNAM+2,NODEL) DELETE IT NOW
      00063  0074 00 4 00127         TSX     DELFIL,4                                                         .002
      00064  3 00000 0 00107         PAR     FNAM                                                             .004
      00065  3 00000 0 00111         PAR     FNAM+2                                                           .004
      00066  3 00000 0 00075         PAR     NODEL                                                            .004
      00067  0020 00 0 00034         TRA     GONE          ..

      00070 -0500 00 0 00123  FSERR  CAL     ERCODE        GET FSTATE ERROR CODE
      00071  0402 00 0 00142         SUB     =3            ANYTHING ELSE THAN 3
      00072  0100 00 0 00034         TZE     GONE          IS A LINK ERROR

      00073                   LINKD  COMENT  LNKMSG,3,(FILE IS A LINK.),A
      00073  0074 00 4 00131         TSX     WRFLXA,4                                                         .003
      00074  3 00003 0 00134         PAR     LNKMSG,,3                                                        .005
                                                           DO NOT DELETE A LINK

      00075                   NODEL  CALL    WRFLXA((FNAM,,3))
      00075  0074 00 4 00131         TSX     WRFLXA,4                                                         .002
      00076  3 00003 0 00107         PAR     FNAM,,3                                                          .004
      00077                          COMENT  NOT,2,( NOT DELETED)
      00077  0074 00 4 00130         TSX     WRFLX,4                                                          .003
      00100  3 00002 0 00137         PAR     NOT,,2                                                           .005

      00101  0522 00 0 00035         XEC     XR4           RESTORE XRS
      00102  0441 00 0 00125         LDI     SVSI          AND SI
      00103  0020 60 4 00004         TRA*    4,4           ERROR RETURN
1            DELETE ALL VERSIONS OF AN OLD FILE.                                                 PAGE 3

      00104  242543256325     DTOF   BCI     3,DELETED THE OLDER
      00107  000000000000     FNAM   VFD     36/0,O36/576057575757,36/0
      00112  606060606060     BCMODE BCI     6,       MODE. DO YOU WANT TO DELETE I
      00120  637360605757            VFD     H6/T,O30/7360605757
      00121  0 00000 0 00000  BUFF   PZE
      00122  0 00000 0 00000  MODE   PZE
      00123  0 00000 0 00000  ERCODE PZE
      00124  0 00000 0 00000  PSW    PZE
      00125  0 00000 0 00000  SVSI   PZE

      00126                          RMT     *             REMOTE SEQUENCES
      00126  0101 00 0 00146  FSTATE TIA     =HFSTATE                                                         .002
      00127  0101 00 0 00145  DELFIL TIA     =HDELFIL                                                         .002
      00130  0101 00 0 00153  WRFLX  TIA     =HWRFLX                                                          .002
      00131  0101 00 0 00152  WRFLXA TIA     =HWRFLXA                                                         .002
      00132  0101 00 0 00150  RDFLXA TIA     =HRDFLXA                                                         .002
      00133  0101 00 0 00144  CHFILE TIA     =HCHFILE                                                         .002
      00134  263143256031     LNKMSG BCI     3,FILE IS A LINK.                                                .002
      00137  604546636024     NOT    BCI     2, NOT DELETED                                                   .002

                                     END

        LITERALS
      00141  000000000001
      00142  000000000003
      00143  000000702562
      00144  233026314325
      00145  242543263143
      00146  266263216325
      00147  400000000000
      00150  512426436721
      00151  605757000000
      00152  665126436721
      00153  665126436760
1            DELETE ALL VERSIONS OF AN OLD FILE.                                                 PAGE 1
                        POST PROCESSOR ASSEMBLY DATA

        154 IS THE FIRST LOCATION NOT USED BY THIS PROGRAM

0REFERENCES TO DEFINED SYMBOLS
         40    ASK    24
         25    DEL
        137    NOT   100
        124    PSW    11,   31
         35    XR4     1,  101
        121   BUFF    15,   47,   50
        104   DTOF    33
        107   FNAM     5,    7,   13,   14,   26,   27,   45,   55,   56,   64,   65,   76
         34   GONE    67,   72
        122   MODE     3,   20,   34,   41
        125   SVSI     2,   36,  102
         70  FSERR    16
         73  LINKD    22
         75  NODEL    30,   53,   62,   66
          0  OCRBC    40
        130  WRFLX    32,   77
        112 BCMODE    43
        133 CHFILE    54
          1 DELETE     0
        127 DELFIL    25,   63
        123 ERCODE    17,   70
        126 FSTATE    12
        134 LNKMSG    74
        132 RDFLXA    46
        131 WRFLXA    44,   73,   75

0 NO ERROR IN ABOVE ASSEMBLY.


UPDBSS   BCD 09/18/68 2338.9   14901         00000
1            UPDBSS COMMAND FOR FOREGROUND.                                                      PAGE 1
                           FILE NAME -- UPDBS FAP


                                             9/25/65 - NOEL I. MORRIS

                                     UNLIST
 M                            CALL   MACRO   SUBR,LIST


        TRANSFER VECTOR
      00000  434164626360     LJUST
      00001  222646472545     BFOPEN
      00002  246242255160     DSKER
      00003  242543256325     DELETE
      00004  512422626260     RDBSS
      00005  626522626260     SVBSS
      00006  516222626260     RSBSS
      00007  665122626260     WRBSS
      00010  516225632260     RSETB
      00011  222623434662     BFCLOS

                       00010  NFILS  EQU     8
                      000025  USELOC BOOL    25
                                             INITIALIZE ARRAYS.

      00012                   START  CALL    SETBRK(BREAK) SET A BREAK LEVEL
      00012  0074 00 4 00522         TSX     SETBRK,4                                                         .002
      00013  3 00000 0 00437         PAR     BREAK                                                            .004

      00014 -0500 00 0 00455         CAL     USETRA        SET UP LOWER CORE FOR 'USE' COMMAND
      00015  0602 00 0 00025         SLW     USELOC        ..

      00016                          CALL    GETCLS((CARD,,0)) GET COMMAND BUFFER
      00016  0074 00 4 00523         TSX     GETCLS,4                                                         .002
      00017  3 00000 0 77426         PAR     CARD,,0                                                          .004

      00020 -0774 00 1 00001         AXC     1,1           GETCOM INDEX
      00021 -0500 00 1 77426  SQI    CAL     CARD,1        GET FIRST PARAMETER

      00022 -0340 00 0 00023         LAS     FENCE         CHECK FOR NONE
      00023  777777777777     FENCE  VFD     36/-1
      00024  0020 00 0 00441         TRA     PERR          NO PARAMETERS GIVEN

      00025  0602 00 0 77425         SLW     INFILE        NAME OF INPUT FILE
      00026  0322 00 0 00041         ERA     (SQZ)         IS IT SQZBSS
      00027 -0100 00 0 00035         TNZ     NO.SQI        IF YES,

      00030 -0625 00 0 77424         STL     INFILE-1      SET SQZ INDIC.
      00031 -0625 00 0 77422         STL     OUTFIL-1      ..

      00032  0560 00 0 00061         LDQ     SQZ           SECONDARY NAME
      00033 -0620 00 0 00470         SLQ     N2            IS SQZBSS
1            UPDBSS COMMAND FOR FOREGROUND.                                                      PAGE 2
                           FILE NAME -- UPDBS FAP

      00034  1 77777 1 00021         TXI     SQI,1,-1      AND GO GET THE NEXT PARAMETER

      00035  1 77777 1 00036  NO.SQI TXI     *+1,1,-1      NEXT PARAMETER

      00036 -0774 00 2 00000         AXC     0,2           OUTPUT FILE LIST INDEX

      00037 -0500 00 1 77426  PARLP  CAL     CARD,1        GET PARAMETER
      00040 -0340 00 0 00023         LAS     FENCE         CHECK FOR NONE
      00041  607462507134     (SQZ)  BCI     1, (SQZ)
      00042  0020 00 0 00077         TRA     SOUT          FINISHED

      00043  0602 00 0 00452         SLW     TEM           SAVE FOR RJUSTING
      00044  0602 00 2 00472         SLW     LIST+1,2      BOTH FILE NAME AND ENTRY NAME

      00045                          CALL    $LJUST(TEM)   ENTRIES ARE LEFT JUSTIFIED
      00045  0074 00 4 00000         TSX     $LJUST,4                                                         .002
      00046  3 00000 0 00452         PAR     TEM                                                              .004
      00047  0601 00 2 00473         STO     LIST+2,2      ..

      00050 -0500 00 0 00452         CAL     TEM           NOW CHECK FOR SQZBSS
      00051  0322 00 0 00041         ERA     (SQZ)         ..
      00052 -0100 00 0 00056         TNZ     NO.SQO        IF SO,

      00053  0560 00 0 00061         LDQ     SQZ           SET SECONDARY NAME TO
      00054 -0620 00 2 00474         SLQ     LIST+3,2      SQZBSS

      00055  1 77777 1 00037         TXI     PARLP,1,-1    NEXT PARAMETER

      00056  1 77777 1 00057  NO.SQO TXI     *+1,1,-1      NEXT PARAMETER

      00057 -0500 00 1 77426         CAL     CARD,1        ..
      00060 -0340 00 0 00023         LAS     FENCE         CHECK FOR NONE
      00061  625071606060     SQZ    BCI     1,SQZ
      00062  1 77775 2 00077         TXI     SOUT,2,-3     FINISHED
      00063  0602 00 0 00452         SLW     TEM           SAVE ENTRY NAME

      00064  0322 00 0 00610         ERA     =H     =      IS IT EQUAL SIGN
      00065  0100 00 0 00071         TZE     NEX           YES, ENTRY = SECONDARY NAME

      00066                          CALL    $LJUST(TEM)   ..
      00066  0074 00 4 00000         TSX     $LJUST,4                                                         .002
      00067  3 00000 0 00452         PAR     TEM                                                              .004
      00070  0601 00 2 00473         STO     LIST+2,2      ..

      00071  1 77777 1 00072  NEX    TXI     *+1,1,-1      NEXT PARAMETER
      00072  1 77775 2 00073         TXI     *+1,2,-3      AND NEXT OUTPUT FILE
      00073  3 00030 2 00037         TXH     PARLP,2,3*NFILS   CHECK FOR FULL LIST

      00074                          COMENT  TOO,5,(TOO MANY FILES REQUESTED.)
      00074  0074 00 4 00524         TSX     WRFLX,4                                                          .003
      00075  3 00005 0 00525         PAR     TOO,,5                                                           .005
      00076  0021 00 0 00427         XIT     CHN           EXIT TO CHNCOM
1            UPDBSS COMMAND FOR FOREGROUND.                                                      PAGE 3
                           FILE NAME -- UPDBS FAP

      00077 -3 00000 2 00444  SOUT   TXL     NONE,2,0      CHECK FOR NO FILES
      00100  0636 00 2 00471         SCA     LIST,2        STORE FILE COUNT
      00101  0634 00 2 00215         SXA     SRCH,2        ..
      00102  0634 00 2 00345         SXA     NSRCH,2       ..

      00103 -0500 00 0 00617         CAL     =H(FILE)      SET TEMPORARY FILE
      00104  0602 00 0 77423         SLW     OUTFIL        TO (FILE)
1            UPDBSS COMMAND FOR FOREGROUND.                                                      PAGE 4
                           OPEN AND RAD LIBRARY FILE.

      00105                          CALL    GETMEM        ASSIGN DISK BUFFERS
      00105  0074 00 4 00532         TSX     GETMEM,4                                                         .002

      00106                          EXTEND  (OPNR+4,OPNR+5,OPNW+4,OPNW+5,OPNW+6,UPOP+4,UPOP+5)
      00106  0621 00 0 00131         STA     OPNR+4                                                           .003
      00107  0361 00 0 00570         ACL     =432                                                             .002
      00110  0621 00 0 00132         STA     OPNR+5                                                           .003
      00111  0361 00 0 00570         ACL     =432                                                             .002
      00112  0621 00 0 00146         STA     OPNW+4                                                           .003
      00113  0361 00 0 00570         ACL     =432                                                             .002
      00114  0621 00 0 00147         STA     OPNW+5                                                           .003
      00115  0361 00 0 00570         ACL     =432                                                             .002
      00116  0621 00 0 00150         STA     OPNW+6                                                           .003
      00117  0361 00 0 00570         ACL     =432                                                             .002
      00120  0621 00 0 00265         STA     UPOP+4                                                           .003
      00121  0361 00 0 00570         ACL     =432                                                             .002
      00122  0621 00 0 00266         STA     UPOP+5                                                           .003
      00123  0361 00 0 00570         ACL     =432                                                             .002
      00124  0074 00 4 00533         TSX     SETMEM,4                                                         .003

      00125                   OPNR   CALL    $BFOPEN(=HR,INFILE,N2,**,**,=-0,$DSKER)
      00125  0074 00 4 00001         TSX     $BFOPEN,4                                                        .002
      00126  3 00000 0 00606         PAR     =HR                                                              .004
      00127  3 00000 0 77425         PAR     INFILE                                                           .004
      00130  3 00000 0 00470         PAR     N2                                                               .004
      00131  3 00000 0 00000         PAR     **                                                               .004
      00132  3 00000 0 00000         PAR     **                                                               .004
      00133  3 00000 0 00603         PAR     =-0                                                              .004
      00134  3 00000 0 00002         PAR     $DSKER                                                           .004
                                                           OPEN LIBRARY FILE FOR READING

      00135                          CALL    $DELETE(OUTFIL,N2,=0,*+1) DELETE ANY OLD TEMPORARY
      00135  0074 00 4 00003         TSX     $DELETE,4                                                        .002
      00136  3 00000 0 77423         PAR     OUTFIL                                                           .004
      00137  3 00000 0 00470         PAR     N2                                                               .004
      00140  3 00000 0 00567         PAR     =0                                                               .004
      00141  3 00000 0 00142         PAR     *+1                                                              .004

      00142                   OPNW   CALL    $BFOPEN(=HW,OUTFIL,N2,**,**,**,$DSKER)
      00142  0074 00 4 00001         TSX     $BFOPEN,4                                                        .002
      00143  3 00000 0 00616         PAR     =HW                                                              .004
      00144  3 00000 0 77423         PAR     OUTFIL                                                           .004
      00145  3 00000 0 00470         PAR     N2                                                               .004
      00146  3 00000 0 00000         PAR     **                                                               .004
      00147  3 00000 0 00000         PAR     **                                                               .004
      00150  3 00000 0 00000         PAR     **                                                               .004
      00151  3 00000 0 00002         PAR     $DSKER                                                           .004
                                                           OPEN TEMPORARY FOR WRITING

      00152                   NEXCD  CALL    $RDBSS(EOF)   READ A CARD
      00152  0074 00 4 00004         TSX     $RDBSS,4                                                         .002
      00153  3 00000 0 00345         PAR     EOF                                                              .004
1            UPDBSS COMMAND FOR FOREGROUND.                                                      PAGE 5
                           OPEN AND RAD LIBRARY FILE.

      00154 -0054 00  400000         LFT     400000        IS IT A PROGRAM CARD
      00155  0020 00 0 00170         TRA     P.C.          YES, GO PROCESS

      00156  0520 00 0 00450         ZET     FOUND         INSTRUCTION CARD, WAS ENTRY FOUND
      00157  0020 00 0 00164         TRA     ISKP          YES

      00160  0520 00 0 00447         ZET     ICSW          NOT FOUND, IS THIS FIRST I.C.
      00161  0020 00 0 00166         TRA     WRI           NO

      00162                          CALL    $SVBSS        YES, SAVE IT AND THEN
      00162  0074 00 4 00005         TSX     $SVBSS,4                                                         .002
      00163                          CALL    $RSBSS        WRITE OUT ALL SAVED BSS CARDS
      00163  0074 00 4 00006         TSX     $RSBSS,4                                                         .002

      00164 -0625 00 0 00447  ISKP   STL     ICSW          SET INSTRUCTION CARD SWITCH
      00165  0020 00 0 00152         TRA     NEXCD         AND GO ON

      00166                   WRI    CALL    $WRBSS        WRITE THIS CARD OUT
      00166  0074 00 4 00007         TSX     $WRBSS,4                                                         .002
      00167  0020 00 0 00152         TRA     NEXCD         AND GO GET NEXT
1            UPDBSS COMMAND FOR FOREGROUND.                                                      PAGE 6
                           PROCESS PROGRAM CARDS.

      00170 -0520 00 0 00447  P.C.   NZT     ICSW          IF NOT FIRST CARD
      00171 -0520 00 0 00450         NZT     FOUND         AND ENTRY WAS FOUND
      00172  0020 00 0 00174         TRA     NOTF          ..
      00173  0020 00 0 00152         TRA     NEXCD         THEN GO ON TO NEXT

      00174  0600 00 0 00450  NOTF   STZ     FOUND         RESET FOUND INDIC.

      00175 -0520 00 0 00447         NZT     ICSW          CHECK FOR FIRST P.C.
      00176  0020 00 0 00205         TRA     SPC           NOT FIRST

      00177  0534 00 4 00471         LXA     LIST,4        IS LIST OF ENTRIES EXHAUSTED
      00200 -3 00000 4 00343         TXL     SLOP,4,0      YES, JUST SLOP STUFF INTO TEMORARY

      00201                          CALL    $RSETB        FLUSH THE CARD SAVE BUFFERS
      00201  0074 00 4 00010         TSX     $RSETB,4                                                         .002

      00202 -0774 00 4 00002         AXC     2,4           CARD WORD INDEX, 2 GREATER ON FIRST
      00203  0600 00 0 00447         STZ     ICSW          RESET INSTRUCTION CARD SWITCH

      00204  0020 00 0 00206         TRA     GCNT          ..

      00205 -0774 00 4 00000  SPC    AXC     0,4           CARD WORD INDEX

      00206 -0046 00 0 00000  GCNT   PIA                   FIRST WORD IN AC
      00207 -0320 00 0 00572         ANA     =O37077777    MASK OFF THE WRDCNT
      00210 -0734 00 1 00000         PDX     ,1            AND PLACE IN XR1
      00211 -0636 00 1 00224         SCD     ECHK,1        SAVE FOR ENTRY PICKUP CHECK

      00212 -0500 00 4 77430  ELP    CAL     CARD+2,4      GET AN ENTRY FROM P.C.
      00213 -0100 00 0 00215         TNZ     *+2           IF ZERO,
      00214 -0500 00 0 00620         CAL     =H(MAIN)      IT IS A MAIN PROGRAM

      00215  0774 00 1 00000  SRCH   AXT     **,1          CHECK LIST FOR ENTRY
      00216 -0340 00 1 00470         LAS     LIST-1,1      ..
      00217  0020 00 0 00221         TRA     *+2           ..
      00220  0020 00 0 00227         TRA     GOT.IT        FOUND

      00221  1 00003 1 00222         TXI     *+1,1,3       NEXT ENTRY IN LIST
      00222  3 00000 1 00216         TXH     SRCH+1,1,0    ..

      00223  1 77776 4 00224         TXI     *+1,4,-2      GO TO NEXT ENTRY ON P.C.
      00224  3 00000 4 00212  ECHK   TXH     ELP,4,**      CHECK FOR CARD FINISHED

      00225                          CALL    $SVBSS        SAVE THIS CARD IN CASE WE NEED IT
      00225  0074 00 4 00005         TSX     $SVBSS,4                                                         .002

      00226  0020 00 0 00152         TRA     NEXCD         AND GO ON TO THE NEXT
1            UPDBSS COMMAND FOR FOREGROUND.                                                      PAGE 7
                           PROCESS PROGRAM CARDS.

      00227 -0500 00 1 00471  GOT.IT CAL     LIST,1        GET SECONDARY NAME
      00230  0602 00 0 00465         SLW     FILNAM+2      ..

      00231 -0500 00 1 00467         CAL     LIST-2,1      AND PRIMARY NAME
      00232  0602 00 0 00463         SLW     FILNAM        ..

      00233 -0500 00 0 00023         CAL     FENCE         NULLIFY THE ENTRY NAME
      00234  0602 00 1 00470         SLW     LIST-1,1      ..

      00235  0534 00 4 00471         LXA     LIST,4        DECREASE THE LIST COUNT
      00236  1 77775 4 00237         TXI     *+1,4,-3      ..
      00237  0634 00 4 00471         SXA     LIST,4        ..

      00240 -0625 00 0 00450         STL     FOUND         SET FOUND INDIC.

      00241                          CALL    UPDATE        GO DO THE UPDATE
      00241  0074 00 4 00246         TSX     UPDATE,4                                                         .002
      00242  0020 00 0 00244         TRA     NOPE          RETURN HERE FOR NO UPDATE

      00243  0020 00 0 00152         TRA     NEXCD         AND ON TO THE NEXT CARD

      00244  0600 00 0 00450  NOPE   STZ     FOUND         GUESS HE DIDN'T WANT
      00245  0020 00 0 00225         TRA     ECHK+1        THE UPDATE ANYWAY
1            UPDBSS COMMAND FOR FOREGROUND.                                                      PAGE 8
                           UPDATE - INSERT THE NEW FILE.

      00246  0634 00 4 00306  UPDATE SXA     UPDX4,4       SAVE XR4

      00247  0443 00 0 77424         DLD     INFILE-1      GET THE LIBRARY FILE
      00250 -0603 00 0 00453         DST     SAVFIL        AND SAVE IT

      00251 -0500 00 0 00463  UPFND  CAL     FILNAM        GET FILE NAME
      00252  0322 00 0 00322         ERA     STAR          CHECK FOR ASTERISK FOR DELETE
      00253  0100 00 0 00306         TZE     UPDX4         UPDATE DELETE

      00254                          CALL    FSTATE(FILNAM,FILNAM+2(*,,0)NOTFND)
      00254  0074 00 4 00534         TSX     FSTATE,4                                                         .002
      00255  3 00000 0 00463         PAR     FILNAM                                                           .004
      00256  3 00000 0 00465         PAR     FILNAM+2                                                         .004
      00257  3 00000 0 00257         PAR     *,,0                                                             .004
      00260  3 00000 0 00313         PAR     NOTFND                                                           .004
                                                           CHECK FOR FILE

      00261                   UPOP   CALL    $BFOPEN(=HR,FILNAM,FILNAM+2,**,**,=-0,$DSKER)
      00261  0074 00 4 00001         TSX     $BFOPEN,4                                                        .002
      00262  3 00000 0 00606         PAR     =HR                                                              .004
      00263  3 00000 0 00463         PAR     FILNAM                                                           .004
      00264  3 00000 0 00465         PAR     FILNAM+2                                                         .004
      00265  3 00000 0 00000         PAR     **                                                               .004
      00266  3 00000 0 00000         PAR     **                                                               .004
      00267  3 00000 0 00603         PAR     =-0                                                              .004
      00270  3 00000 0 00002         PAR     $DSKER                                                           .004
                                                           OPEN FILE FOR READING

      00271 -0500 00 0 00463         CAL     FILNAM        SET UP RDBSS FOR
      00272  0602 00 0 77425         SLW     INFILE        INSERTING FILE

      00273 -0500 00 0 00465         CAL     FILNAM+2      ..
      00274  0322 00 0 00607         ERA     =H   BSS      ..
      00275  0602 00 0 77424         SLW     INFILE-1      ..

      00276                   UPLOOP CALL    $RDBSS(ENDUP) NOW, READ AND
      00276  0074 00 4 00004         TSX     $RDBSS,4                                                         .002
      00277  3 00000 0 00302         PAR     ENDUP                                                            .004

      00300                          CALL    $WRBSS        WRITE
      00300  0074 00 4 00007         TSX     $WRBSS,4                                                         .002

      00301  0020 00 0 00276         TRA     UPLOOP        UNTIL EOF ENCOUNTERED

      00302                   ENDUP  CALL    $BFCLOS(FILNAM,FILNAM+2,$DSKER) CLOSE THE FILE
      00302  0074 00 4 00011         TSX     $BFCLOS,4                                                        .002
      00303  3 00000 0 00463         PAR     FILNAM                                                           .004
      00304  3 00000 0 00465         PAR     FILNAM+2                                                         .004
      00305  3 00000 0 00002         PAR     $DSKER                                                           .004

      00306  0774 00 4 00000  UPDX4  AXT     **,4          RESTORE XR4

      00307  0500 00 0 00453  UPXIT  CLA     SAVFIL        RESTORE LIBRARY FILE
      00310  0560 00 0 00454         LDQ     SAVFIL+1      FOR RDBSS
      00311 -0603 00 0 77424         DST     INFILE-1      ..
1            UPDBSS COMMAND FOR FOREGROUND.                                                      PAGE 9
                           UPDATE - INSERT THE NEW FILE.

      00312  0020 00 4 00002         TRA     2,4           RETURN

      00313                   NOTFND CALL    WRFLX((FILNAM,,5)) PRINT NOT FOUND COMMENT
      00313  0074 00 4 00524         TSX     WRFLX,4                                                          .002
      00314  3 00005 0 00463         PAR     FILNAM,,5                                                        .004

      00315                          CALL    DORMNT        AND GO TO DORMNT
      00315  0074 00 4 00535         TSX     DORMNT,4                                                         .002

      00316                   RSTART CALL    GETCOM(1)     WAKE UP AND GET PARAMETERS
      00316  0074 00 4 00536         TSX     GETCOM,4                                                         .002
      00317  3 00000 0 00001         PAR     1                                                                .004

      00320  0602 00 0 00463         SLW     FILNAM        CHECK FOR NONE GIVEN
      00321 -0340 00 0 00023         LAS     FENCE         ..
      00322  606060606054     STAR   BCI     1,     *
      00323  0020 00 0 00337         TRA     NOUP          NO UPDATE TO BE DONE AFTER ALL

      00324  0322 00 0 00041         ERA     (SQZ)         CHECK FOR SQZBSS FILE
      00325 -0100 00 0 00334         TNZ     UPBS          NO, REGULAR BSS

      00326  0560 00 0 00061         LDQ     SQZ           YES, SET SECONDARY NAME
      00327 -0620 00 0 00465         SLQ     FILNAM+2      TO SQZBSS

      00330                          CALL    GETCOM(2)     AND GET NEXT PARAMETER
      00330  0074 00 4 00536         TSX     GETCOM,4                                                         .002
      00331  3 00000 0 00002         PAR     2                                                                .004
      00332  0602 00 0 00463         SLW     FILNAM        ..

      00333  0020 00 0 00251         TRA     UPFND         NOW, GO TRY TO INSERT IT

      00334  0560 00 0 00611  UPBS   LDQ     =H            SET SECONDARY NAME
      00335 -0620 00 0 00465         SLQ     FILNAM+2      TO BSS
      00336  0020 00 0 00251         TRA     UPFND         ..

      00337  0522 00 0 00306  NOUP   XEC     UPDX4         RESTORE XR4
      00340  1 00001 4 00307         TXI     UPXIT,4,1     MAKE IT RETURN 1,4
1            UPDBSS COMMAND FOR FOREGROUND.                                                      PAGE 10
                           END OF FILE - CLEAN UP AND EXIT.

      00341                   SLOPLP CALL    $RDBSS(EOF)   SLOP THROUGH THE REST OF FILE
      00341  0074 00 4 00004         TSX     $RDBSS,4                                                         .002
      00342  3 00000 0 00345         PAR     EOF                                                              .004

      00343                   SLOP   CALL    $WRBSS        ..
      00343  0074 00 4 00007         TSX     $WRBSS,4                                                         .002

      00344  0020 00 0 00341         TRA     SLOPLP        ..

                       00345  EOF    SYN     *
      00345  0774 00 1 00000  NSRCH  AXT     **,1          NOW, LOOK THROUGH LIST FOR
      00346 -0500 00 1 00470         CAL     LIST-1,1      ANY UNUSED ENTRIES
      00347  0602 00 0 00540         SLW     ENTRY+1       ..
      00350  0322 00 0 00023         ERA     FENCE         ..
      00351  0100 00 0 00377         TZE     FOK           ..

      00352                          COMENT  ENTRY,4,(ENTRY        NOT FOUND.)
      00352  0074 00 4 00524         TSX     WRFLX,4                                                          .003
      00353  3 00004 0 00537         PAR     ENTRY,,4                                                         .005
                                                           COMMENT ON ENTRY NOT FOUND


      00354  0602 00 0 00465         SLW     FILNAM+2      ..

      00355 -0500 00 1 00467         CAL     LIST-2,1      AND PRIMARY NAME
      00356  0602 00 0 00463         SLW     FILNAM        ..

      00357  0322 00 0 00322         ERA     STAR          CHECK FOR ASTERISK
      00360  0100 00 0 00377         TZE     FOK           IGNORE UPDATE IF A STAR

      00361                          CALL    WRFLXA((ASK,,5)) ASK FOR APPENDING FILE
      00361  0074 00 4 00543         TSX     WRFLXA,4                                                         .002
      00362  3 00005 0 00456         PAR     ASK,,5                                                           .004

      00363                          CALL    RDFLXA((TEM,,1)) READ ANSWER
      00363  0074 00 4 00544         TSX     RDFLXA,4                                                         .002
      00364  3 00001 0 00452         PAR     TEM,,1                                                           .004

      00365 -0500 00 0 00452         CAL     TEM           GET ANSWER
      00366  0771 00 0 00022         ARS     18            ..
      00367  0322 00 0 00571         ERA     =H000YES      WAS IT YES
      00370 -0100 00 0 00377         TNZ     FOK           IGNORE UPDATE IF NOT

      00371 -0500 00 1 00471         CAL     LIST,1        SET UP FILE NAME
      00372  0602 00 0 00465         SLW     FILNAM+2      FOR UPDATING

      00373 -0500 00 1 00467         CAL     LIST-2,1      ..
      00374  0602 00 0 00463         SLW     FILNAM        ..

      00375                          CALL    UPDATE        GO APPEND THIS FILE
      00375  0074 00 4 00246         TSX     UPDATE,4                                                         .002
      00376  0020 00 0 00377         TRA     *+1           ..
1            UPDBSS COMMAND FOR FOREGROUND.                                                      PAGE 11
                           END OF FILE - CLEAN UP AND EXIT.

      00377  1 00003 1 00400  FOK    TXI     *+1,1,3       SEARCH THE ENTIRE ENTRY TABLE
      00400  3 00000 1 00346         TXH     NSRCH+1,1,0   ..

      00401                          CALL    $BFCLOS(OUTFIL,N2,$DSKER) CLOSE THE TEMPORARY
      00401  0074 00 4 00011         TSX     $BFCLOS,4                                                        .002
      00402  3 00000 0 77423         PAR     OUTFIL                                                           .004
      00403  3 00000 0 00470         PAR     N2                                                               .004
      00404  3 00000 0 00002         PAR     $DSKER                                                           .004

      00405                          CALL    $BFCLOS(INFILE,N2,$DSKER) CLOSE LIBRARY FILE
      00405  0074 00 4 00011         TSX     $BFCLOS,4                                                        .002
      00406  3 00000 0 77425         PAR     INFILE                                                           .004
      00407  3 00000 0 00470         PAR     N2                                                               .004
      00410  3 00000 0 00002         PAR     $DSKER                                                           .004

      00411                          CALL    $DELETE(INFILE,N2,=0,NODEL) DELETE THE OLD LIBRARY
      00411  0074 00 4 00003         TSX     $DELETE,4                                                        .002
      00412  3 00000 0 77425         PAR     INFILE                                                           .004
      00413  3 00000 0 00470         PAR     N2                                                               .004
      00414  3 00000 0 00567         PAR     =0                                                               .004
      00415  3 00000 0 00431         PAR     NODEL                                                            .004
      00416  0602 00 0 00451         SLW     MODE          SAVE MODE FOR NEW LIBRARY

      00417                          CALL    CHFILE(OUTFIL,N2,MODE,INFILE,N2) RENAME THE TEMPORARY
      00417  0074 00 4 00545         TSX     CHFILE,4                                                         .002
      00420  3 00000 0 77423         PAR     OUTFIL                                                           .004
      00421  3 00000 0 00470         PAR     N2                                                               .004
      00422  3 00000 0 00451         PAR     MODE                                                             .004
      00423  3 00000 0 77425         PAR     INFILE                                                           .004
      00424  3 00000 0 00470         PAR     N2                                                               .004

      00425                          COMENT  DONE,3,(UPDATING OVER.) WHEEEE
      00425  0074 00 4 00524         TSX     WRFLX,4                                                          .003
      00426  3 00003 0 00546         PAR     DONE,,3                                                          .005

      00427                   CHN    CALL    CHNCOM(0)     EXIT TO CHNCOM
      00427  0074 00 4 00551         TSX     CHNCOM,4                                                         .002
      00430  3 00000 0 00000         PAR     0                                                                .004

      00431                   NODEL  CALL    DELFIL(OUTFIL,N2,=0,*+1) DELETE THE TEMPORARY
      00431  0074 00 4 00552         TSX     DELFIL,4                                                         .002
      00432  3 00000 0 77423         PAR     OUTFIL                                                           .004
      00433  3 00000 0 00470         PAR     N2                                                               .004
      00434  3 00000 0 00567         PAR     =0                                                               .004
      00435  3 00000 0 00436         PAR     *+1                                                              .004
      00436  0021 00 0 00427         XIT     CHN           AND EXIT TO CHNCOM

      00437                   BREAK  CALL    RESETF        RESET ALL ACTIVE FILES
      00437  0074 00 4 00553         TSX     RESETF,4                                                         .002

      00440  0021 00 0 00427         XIT     CHN           AND EXIT TO CHNCOM

      00441                   PERR   COMENT  BADPAR,5,(ILLEGAL PARAMETER SEQUENCE.)
      00441  0074 00 4 00524         TSX     WRFLX,4                                                          .003
      00442  3 00005 0 00554         PAR     BADPAR,,5                                                        .005
1            UPDBSS COMMAND FOR FOREGROUND.                                                      PAGE 12
                           END OF FILE - CLEAN UP AND EXIT.

      00443  0021 00 0 00427         XIT     CHN           ..

      00444                   NONE   COMENT  NOFILS,6,(NO FILES SPECIFIED FOR UPDATING.)
      00444  0074 00 4 00524         TSX     WRFLX,4                                                          .003
      00445  3 00006 0 00561         PAR     NOFILS,,6                                                        .005
      00446  0021 00 0 00427         XIT     CHN           ..
1            UPDBSS COMMAND FOR FOREGROUND.                                                      PAGE 13
                           STORAGE AND CONSTANTS.

      00447  0 00000 0 00447  ICSW   PZE     *
      00450  0 00000 0 00000  FOUND  PZE
      00451  0 00000 0 00000  MODE   PZE
      00452  0 00000 0 00000  TEM    PZE
      00453                   SAVFIL BSS     2
      00455  0020 00 0 00316  USETRA TRA     RSTART

      00456  244660704664     ASK    BCI     4,DO YOU WISH TO APPEND IT
      00457  606631623060
      00460  634660214747
      00461  254524603163
      00462  736060575757            VFD     O36/736060575757

      00463  000000000000     FILNAM VFD     36/0,O36/605757575757,36/0
      00464  605757575757
      00465  000000000000
      00466  604546636026            BCI     2, NOT FOUND.
      00467  466445243360

      00470  606060226262     N2     BCI     1,   BSS

      00471  0 00000 0 00000  LIST   PZE
                       00472         DUP     1,NFILS
      00472  777777777777            VFD     36/-1,36/-1,O18/606060,H18/BSS
      00473  777777777777
      00474  606060226262
      00475  777777777777
      00476  777777777777
      00477  606060226262
      00500  777777777777
      00501  777777777777
      00502  606060226262
      00503  777777777777
      00504  777777777777
      00505  606060226262
      00506  777777777777
      00507  777777777777
      00510  606060226262
      00511  777777777777
      00512  777777777777
      00513  606060226262
      00514  777777777777
      00515  777777777777
      00516  606060226262
      00517  777777777777
      00520  777777777777
      00521  606060226262

                       77426         COMMON  27
                       77426  CARD   COMMON  1
                       77425  INFILE COMMON  2
                       77423  OUTFIL COMMON  2
1            UPDBSS COMMAND FOR FOREGROUND.                                                      PAGE 14
                           STORAGE AND CONSTANTS.

      00522                          RMT     *             REMOTE SEQUENCES
      00522  0101 00 0 00612  SETBRK TIA     =HSETBRK                                                         .002
      00523  0101 00 0 00600  GETCLS TIA     =HGETCLS                                                         .002
      00524  0101 00 0 00615  WRFLX  TIA     =HWRFLX                                                          .002
      00525  634646604421     TOO    BCI     5,TOO MANY FILES REQUESTED.                                      .002
      00526  457060263143
      00527  256260512550
      00530  642562632524
      00531  336060606060
      00532  0101 00 0 00602  GETMEM TIA     =HGETMEM                                                         .002
      00533  0101 00 0 00613  SETMEM TIA     =HSETMEM                                                         .002
      00534  0101 00 0 00577  FSTATE TIA     =HFSTATE                                                         .002
      00535  0101 00 0 00576  DORMNT TIA     =HDORMNT                                                         .002
      00536  0101 00 0 00601  GETCOM TIA     =HGETCOM                                                         .002
      00537  254563517060     ENTRY  BCI     4,ENTRY        NOT FOUND.                                        .002
      00540  606060606060
      00541  604546636026
      00542  466445243360
      00543  0101 00 0 00614  WRFLXA TIA     =HWRFLXA                                                         .002
      00544  0101 00 0 00604  RDFLXA TIA     =HRDFLXA                                                         .002
      00545  0101 00 0 00573  CHFILE TIA     =HCHFILE                                                         .002
      00546  644724216331     DONE   BCI     3,UPDATING OVER.                                                 .002
      00547  452760466525
      00550  513360606060
      00551  0101 00 0 00574  CHNCOM TIA     =HCHNCOM                                                         .002
      00552  0101 00 0 00575  DELFIL TIA     =HDELFIL                                                         .002
      00553  0101 00 0 00605  RESETF TIA     =HRESETF                                                         .002
      00554  314343252721     BADPAR BCI     5,ILLEGAL PARAMETER SEQUENCE.                                    .002
      00555  436047215121
      00556  442563255160
      00557  622550642545
      00560  232533606060
      00561  454660263143     NOFILS BCI     6,NO FILES SPECIFIED FOR UPDATING.                               .002
      00562  256260624725
      00563  233126312524
      00564  602646516064
      00565  472421633145
      00566  273360606060

                                     END

        LITERALS
      00567  000000000000
      00570  000000000660
      00571  000000702562
      00572  000037077777
      00573  233026314325
      00574  233045234644
      00575  242543263143
      00576  244651444563
      00577  266263216325
      00600  272563234362
      00601  272563234644
      00602  272563442544
      00603  400000000000
1            UPDBSS COMMAND FOR FOREGROUND.                                                      PAGE 15
                           STORAGE AND CONSTANTS.

      00604  512426436721
      00605  512562256326
      00606  516060606060
      00607  606060226262
      00610  606060606013
      00611  606060606060
      00612  622563225142
      00613  622563442544
      00614  665126436721
      00615  665126436760
      00616  666060606060
      00617  742631432534
      00620  744421314534
1            UPDBSS COMMAND FOR FOREGROUND.                                                      PAGE 1
                        POST PROCESSOR ASSEMBLY DATA

       77421 IS THE LAST LOCATION NOT USED BY THIS PROGRAM
        621 IS THE FIRST LOCATION NOT USED BY THIS PROGRAM

0REFERENCES TO DEFINED SYMBOLS
        470     N2    33,  130,  137,  145,  403,  407,  413,  421,  424,  433
        456    ASK   362
        427    CHN    76,  436,  440,  443,  446
        212    ELP   224
        345    EOF   153,  342,  345
        377    FOK   351,  360,  370
         71    NEX    65
        205    SPC   176
         21    SQI    34
         61    SQZ    32,   53,  326
        452    TEM    43,   46,   50,   63,   67,  364,  365
        525    TOO    75
        166    WRI   161
      77426   CARD    17,   21,   37,   57,  212,  522
        546   DONE   426
        224   ECHK   211,  245
        206   GCNT   204
        447   ICSW   160,  164,  170,  175,  203
        164   ISKP   157
        471   LIST    44,   47,   54,   70,  100,  177,  216,  227,  231,  234,  235,  237,  346,  355,  371,  373
        451   MODE   416,  422
        444   NONE    77
        244   NOPE   242
        174   NOTF   172
        337   NOUP   323
        125   OPNR   106,  110
        142   OPNW   112,  114,  116
        441   PERR    24
        170   P.C.   155
        343   SLOP   200
         77   SOUT    42,   62
        215   SRCH   101,  222
        322   STAR   252,  357
        334   UPBS   325
        261   UPOP   120,  122
        437  BREAK    13
          2  DSKER   134,  151,  270,  305,  404,  410
        302  ENDUP   277
        537  ENTRY   347,  353
         23  FENCE    22,   40,   60,  233,  321,  350
        450  FOUND   156,  171,  174,  240,  244
          0  LJUST    45,   66
        152  NEXCD   165,  167,  173,  226,  243
         10  NFILS    12,   73,  472
        431  NODEL   415
        345  NSRCH   102,  400
         37  PARLP    55,   73
          4  RDBSS   152,  276,  341
          6  RSBSS   163
         10  RSETB   201
1            UPDBSS COMMAND FOR FOREGROUND.                                                      PAGE 2
                        POST PROCESSOR ASSEMBLY DATA

         12  START
          5  SVBSS   162,  225
        306  UPDX4   246,  253,  337
        251  UPFND   333,  336
        307  UPXIT   340
          7  WRBSS   166,  300,  343
        524  WRFLX    74,  313,  352,  425,  441,  444
         41  (SQZ)    26,   51,  324
        554 BADPAR   442
         11 BFCLOS   302,  401,  405
          1 BFOPEN   125,  142,  261
        545 CHFILE   417
        551 CHNCOM   427
          3 DELETE   135,  411
        552 DELFIL   431
        535 DORMNT   315
        463 FILNAM   230,  232,  251,  255,  256,  263,  264,  271,  273,  303,  304,  314,  320,  327,  332,  335,  354
                     356,  372,  374
        534 FSTATE   254
        523 GETCLS    16
        536 GETCOM   316,  330
        532 GETMEM   105
        227 GOT.IT   220
      77425 INFILE    25,   30,  127,  247,  272,  275,  311,  406,  412,  423,  522
        561 NOFILS   445
         35 NO.SQI    27
         56 NO.SQO    52
        313 NOTFND   260
      77423 OUTFIL    31,  104,  136,  144,  402,  420,  432,  522
        544 RDFLXA   363
        553 RESETF   437
        316 RSTART   455
        453 SAVFIL   250,  307,  310
        522 SETBRK    12
        533 SETMEM   124
        341 SLOPLP   344
        246 UPDATE   241,  375
        276 UPLOOP   301
         25 USELOC    12,   15
        455 USETRA    14
        543 WRFLXA   361

0 NO ERROR IN ABOVE ASSEMBLY.
1            RDBSS - BSS FILE READING ROUTINE.                                                   PAGE 1

                                             NOEL I. MORRIS - 6/21/65

                                     UNLIST
 M                            CALL   MACRO   SUBR,LIST


                       00003         ENTRY   RDBSS


        TRANSFER VECTOR
      00000  222651252124     BFREAD
      00001  246242255160     DSKER
      00002  462321222360     OCABC

      00003  0634 00 4 00073  RDBSS  SXA     XR4,4         SAVE XRS

      00004  0520 00 0 77424  WZERO  ZET     FILN-1        CHECK FOR SQZBSS FILE
      00005  0020 00 0 00017         TRA     SQZ           ..

      00006                          CALL    $BFREAD(FILN,BSS(BUFF,,28)EOF,EOFCT,$DSKER)
      00006  0074 00 4 00000         TSX     $BFREAD,4                                                        .002
      00007  3 00000 0 77425         PAR     FILN                                                             .004
      00010  3 00000 0 00114         PAR     BSS                                                              .004
      00011  3 00034 0 77426         PAR     BUFF,,28                                                         .004
      00012  3 00000 0 00111         PAR     EOF                                                              .004
      00013  3 00000 0 00113         PAR     EOFCT                                                            .004
      00014  3 00000 0 00001         PAR     $DSKER                                                           .004
      00015  0441 00 0 77426         LDI     BUFF          GET FIRST WORD IN SI
      00016  0020 00 0 00050         TRA     CHECK         GO CHECK CHECKSUM

      00017  0774 00 4 00034  SQZ    AXT     28,4          ZERO OUT THE READ BUFFER
      00020  0600 00 4 77462         STZ     BUFF+28,4     ..
      00021  2 00001 4 00020         TIX     *-1,4,1       ..

      00022                          CALL    $BFREAD(FILN,=HSQZBSS(BUFF,,1)EOF,EOFCT,$DSKER)
      00022  0074 00 4 00000         TSX     $BFREAD,4                                                        .002
      00023  3 00000 0 77425         PAR     FILN                                                             .004
      00024  3 00000 0 00134         PAR     =HSQZBSS                                                         .004
      00025  3 00001 0 77426         PAR     BUFF,,1                                                          .004
      00026  3 00000 0 00111         PAR     EOF                                                              .004
      00027  3 00000 0 00113         PAR     EOFCT                                                            .004
      00030  3 00000 0 00001         PAR     $DSKER                                                           .004

      00031  0441 00 0 77426         LDI     BUFF          GET FIRST WORD IN SI
      00032 -0046 00 0 00000         PIA                   IN AC
      00033 -0320 00 0 00130         ANA     =O77000000    MASK WORDCOUNT
      00034 -0734 00 4 00000         PDX     ,4            WORDCOUNT IN XR4
      00035 -0056 00  200000         LNT     200000        CHECK FOR REL. BIN CARD
      00036  1 00001 4 00040         TXI     *+2,4,1       MUST BE A PROGRAM CARD
      00037  1 00003 4 00040         TXI     *+1,4,3       RELOCATABLE INSTRUCTION CARD
      00040 -0634 00 4 00044         SXD     VRR+3,4       STORE FOR READING REST OF CARD

      00041                   VRR    CALL    $BFREAD(FILN,=HSQZBSS(BUFF+1,,**)EOF,EOFCT,$DSKER)
      00041  0074 00 4 00000         TSX     $BFREAD,4                                                        .002
      00042  3 00000 0 77425         PAR     FILN                                                             .004
      00043  3 00000 0 00134         PAR     =HSQZBSS                                                         .004
1            RDBSS - BSS FILE READING ROUTINE.                                                   PAGE 2

      00044  3 00000 0 77427         PAR     BUFF+1,,**                                                       .004
      00045  3 00000 0 00111         PAR     EOF                                                              .004
      00046  3 00000 0 00113         PAR     EOFCT                                                            .004
      00047  3 00000 0 00001         PAR     $DSKER                                                           .004

      00050 -0046 00 0 00000  CHECK  PIA                   FIRST WORD IN AC
      00051 -0320 00 0 00130         ANA     =O77000000    MASK THE WORD COUNT
      00052 -0734 00 4 00000         PDX     ,4            WORD COUNT IN XR4
      00053 -3 00000 4 00004         TXL     WZERO,4,0     TRY AGAIN IF WORD COUNT ZERO

      00054 -0056 00  400000         LNT     400000        CHECK FOR PROGRAM CARD
      00055  0020 00 0 00062         TRA     *+5           ..
      00056 -0500 00 0 77432         CAL     BUFF+4        GET ENTRY NAME
      00057 -0100 00 0 00061         TNZ     *+2           CHECK FOR MAIN PROGRAM
      00060 -0500 00 0 00136         CAL     =H(MAIN)      SET ENTRY TO '(MAIN)'
      00061  0602 00 0 00121         SLW     PGN           ..

      00062 -0056 00  100000         LNT     100000        CHECK FOR IGNORE CHECKSUM PUNCH
      00063 -0520 00 0 77427         NZT     BUFF+1        ALSO BLANK CHECKSUM
      00064  0020 00 0 00073         TRA     IGCHK

      00065  0774 00 4 00026         AXT     22,4          ADD UP CHECKSUM
      00066 -0500 00 0 77426         CAL     BUFF          ..
      00067  0361 00 4 77456         ACL     BUFF+24,4     ..
      00070  2 00001 4 00067         TIX     *-1,4,1       ..
      00071  0322 00 0 77427         ERA     BUFF+1        XOR IN THE CHECKSUM TO COMPARE
      00072 -0100 00 0 00075         TNZ     CHKERR        NON-ZERO ON ERROR

                       00073  IGCHK  SYN     *

      00073  0774 00 4 00000  XR4    AXT     **,4          RESTORE XRS
      00074  0020 00 4 00002         TRA     2,4           RETURN

      00075 -0054 00  400000  CHKERR LFT     400000        CHECK FOR PROG. CARD
      00076  0020 00 0 00106         TRA     P.C.          ..

      00077                          CALL    $OCABC(BUFF)  CONVERT LOAD ADDRESS TO OCTAL BCD
      00077  0074 00 4 00002         TSX     $OCABC,4                                                         .002
      00100  3 00000 0 77426         PAR     BUFF                                                             .004
      00101  0560 00 0 00133         LDQ     =H            BLANK OUT SECOND WORD

      00102 -0603 00 0 00125  DST    DST     MSG+8         STORE INTO MESSAGE
      00103                          CALL    WRFLX((MSG,,10))  PRINT ERROR MESSAGE
      00103  0074 00 4 00127         TSX     WRFLX,4                                                          .002
      00104  3 00012 0 00115         PAR     MSG,,10                                                          .004
      00105  0020 00 0 00073         TRA     IGCHK         KEEP GOING

      00106  0500 00 0 00132  P.C.   CLA     =HPROGRA      SET LOAD ADDRESS TO
      00107  0560 00 0 00131         LDQ     =HM CARD      'PROGRAM CARD'
      00110  0020 00 0 00102         TRA     DST           ..

                       00111  EOF    SYN     *
      00111  0522 00 0 00073         XEC     XR4           AND XRS
      00112  0020 60 4 00001         TRA*    1,4           EOF RETURN
1            RDBSS - BSS FILE READING ROUTINE.                                                   PAGE 3

      00113  0 00000 0 00000  EOFCT  PZE
      00114  606060226262     BSS    BCI     1,   BSS
      00115  233025234262     MSG    BCI     4,CHECKSUM ERROR IN PROG.
      00116  644460255151
      00117  465160314560
      00120  475146273360
      00121  0 00000 0 00000  PGN    PZE
      00122  736043462124            BCI     2,, LOAD ADDRE
      00123  602124245125
      00124  626260135757            VFD     H12/SS,O6/60,H6/=,O12/5757
      00125                          BSS     2

                       77426         COMMON  27
                       77426  BUFF   COMMON  1
                       77425  FILN   COMMON  2

      00127                          RMT     *             REMOTE SEQUENCES
      00127  0101 00 0 00135  WRFLX  TIA     =HWRFLX                                                          .002
                                     END

        LITERALS
      00130  000077000000
      00131  446023215124
      00132  475146275121
      00133  606060606060
      00134  625071226262
      00135  665126436760
      00136  744421314534
1            RDBSS - BSS FILE READING ROUTINE.                                                   PAGE 1
                        POST PROCESSOR ASSEMBLY DATA

       77423 IS THE LAST LOCATION NOT USED BY THIS PROGRAM
        137 IS THE FIRST LOCATION NOT USED BY THIS PROGRAM

0REFERENCES TO DEFINED SYMBOLS
        114    BSS    10
        102    DST   110
        111    EOF    12,   26,   45,  111
        115    MSG   102,  104
        121    PGN    61
         17    SQZ     5
         41    VRR    40
         73    XR4     3,  111
      77426   BUFF    11,   15,   20,   25,   31,   44,   56,   63,   66,   67,   71,  100,  127
      77425   FILN     4,    7,   23,   42,  127
        106   P.C.    76
         50  CHECK    16
          1  DSKER    14,   30,   47
        113  EOFCT    13,   27,   46
         73  IGCHK    64,   73,  105
          2  OCABC    77
          3  RDBSS     0
        127  WRFLX   103
          4  WZERO    53
          0 BFREAD     6,   22,   41
         75 CHKERR    72

0 NO ERROR IN ABOVE ASSEMBLY.
1            WRBSS - WRITE A BSS FILE.                                                           PAGE 1

                                             NOEL I. MORRIS - 6/22/65

                                     UNLIST
 M                            CALL   MACRO   SUBR,LIST


                       00002         ENTRY   WRBSS


        TRANSFER VECTOR
      00000  222666513163     BFWRIT
      00001  246242255160     DSKER

      00002  0634 00 4 00030  WRBSS  SXA     XR4,4         SAVE XRS
      00003  0604 00 0 00033         STI     SVSI          AND SI

      00004  0441 00 0 77426         LDI     BUFF          FIRST WORD IN SI
      00005 -0046 00 0 00000         PIA                   LOOK AT FIRST WORD
      00006 -0320 00 0 00035         ANA     =O77000000    MASK OFF WORD COUNT
      00007 -0734 00 4 00000         PDX     ,4            WORD COUNT IN XR4
      00010 -3 00000 4 00030         TXL     XR4,4,0       DON'T WRITE ANYTHING IF WORD COUNT ZERO

      00011 -0520 00 0 77422         NZT     FNAM-1        CHECK FOR SQZBSS FILE
      00012  0020 00 0 00017         TRA     FIX           ..

      00013 -0500 00 0 00037         CAL     =HSQZBSS      SECONDARY NAME IS 'SQZBSS'
      00014 -0056 00  200000         LNT     200000        CHECK FOR INSTRUCTION CARD
      00015  1 00002 4 00021         TXI     SLW,4,2       MUST BE PROGRAM CARD
      00016  1 00004 4 00021         TXI     SLW,4,4       INSTRUCTION CARD

      00017 -0500 00 0 00036  FIX    CAL     =H   BSS      SECONDARY NAME IS 'BSS'
      00020  0774 00 4 00034         AXT     28,4          RECORD LENGTH IS 28

      00021  0602 00 0 00034  SLW    SLW     SNAM          STORE SECONDARY NAME
      00022 -0634 00 4 00026         SXD     WRITE+3,4     STORE WORD COUNT

      00023                   WRITE  CALL    $BFWRIT(FNAM,SNAM,(BUFF,,**),$DSKER)
      00023  0074 00 4 00000         TSX     $BFWRIT,4                                                        .002
      00024  3 00000 0 77423         PAR     FNAM                                                             .004
      00025  3 00000 0 00034         PAR     SNAM                                                             .004
      00026  3 00000 0 77426         PAR     BUFF,,**                                                         .004
      00027  3 00000 0 00001         PAR     $DSKER                                                           .004

      00030  0774 00 4 00000  XR4    AXT     **,4          RESTORE XRS
      00031  0441 00 0 00033         LDI     SVSI          AND SI
      00032  0020 00 4 00001         TRA     1,4           RETURN

      00033  0 00000 0 00000  SVSI   PZE
      00034  0 00000 0 00000  SNAM   PZE

                       77426         COMMON  27
                       77426  BUFF   COMMON  3
                       77423  FNAM   COMMON  2
1            WRBSS - WRITE A BSS FILE.                                                           PAGE 2

      00035                          RMT     *             REMOTE SEQUENCES

                                     END

        LITERALS
      00035  000077000000
      00036  606060226262
      00037  625071226262
1            WRBSS - WRITE A BSS FILE.                                                           PAGE 1
                        POST PROCESSOR ASSEMBLY DATA

       77421 IS THE LAST LOCATION NOT USED BY THIS PROGRAM
         40 IS THE FIRST LOCATION NOT USED BY THIS PROGRAM

0REFERENCES TO DEFINED SYMBOLS
         17    FIX    12
         21    SLW    15,   16
         30    XR4     2,   10
      77426   BUFF     4,   26,   35
      77423   FNAM    11,   24,   35
         34   SNAM    21,   25
         33   SVSI     3,   31
          1  DSKER    27
          2  WRBSS     0
         23  WRITE    22
          0 BFWRIT    23

0 NO ERROR IN ABOVE ASSEMBLY.
1            SVBSS - SAVE AND RESTORE BSS CARD IMAGES.                                           PAGE 1

                                             9/12/65 - NOEL I. MORRIS

                                     UNLIST
 M                            CALL   MACRO   SUBR,LIST


                       00001         ENTRY   SVBSS
                       00034         ENTRY   RSBSS
                       00056         ENTRY   RSETB


        TRANSFER VECTOR
      00000  665122626260     WRBSS

                       00034  CLTH   EQU     28
                       00002  N      EQU     2
1            SVBSS - SAVE AND RESTORE BSS CARD IMAGES.                                           PAGE 2
                           SAVE BSS CARD IMAGES IN EXTENDED MEMORY.

      00001  0634 00 4 00032  SVBSS  SXA     SV4,4         SAVE XR4

      00002  0020 00 0 00003  SUBSQ  TRA     *+1           EXECUTE NEXT SECTION ONLY ONCE

      00003                          CALL    GETMEM        GET CURRENT MEMBND
      00003  0074 00 4 00064         TSX     GETMEM,4                                                         .002

      00004 -0765 00 0 00001         LGR     1             ROUND TO NEXT HIGHEST
      00005  0760 00 0 00010         RND                   EVEN NUMBER
      00006  0767 00 0 00001         ALS     1             FOR DLD INSTRUCTION

      00007  0621 00 0 00016         STA     BUFF          SAVE CARD BUFFER ADDRESS
      00010  0621 00 0 00040         STA     RESET         ..

      00011  0361 00 0 00063         ACL     LTH           INCREASE TO INITIAL SIZE
      00012  0734 00 4 00000         PAX     ,4            ..
      00013 -0634 00 4 00022         SXD     MEMBND,4      SAVE FOR CHECKING

      00014                          EXTEND                AND RESET THE MEMORY BOUND
      00014  0074 00 4 00065         TSX     SETMEM,4                                                         .003

      00015 -0625 00 0 00002         STL     SUBSQ         SET SWITCH TO SKIP INITIALIZATION

      00016  0774 00 4 00000  BUFF   AXT     **,4          LAST CARD BUFFER ADDRESS
      00017  1 00034 4 00020         TXI     *+1,4,CLTH    INCREASE
      00020  0634 00 4 00016         SXA     BUFF,4        SAVE NEW BUFFER ADDRESS
      00021  0634 00 4 00030         SXA     MOVIN,4       ..
      00022 -3 00000 4 00026  MEMBND TXL     NOXTND,4,**   CHECK FOR MEMBND EXCEEDED

      00023 -0634 00 4 00022         SXD     MEMBND,4      NEED HIGHER MEMBND, SO
      00024  0754 00 4 00000         PXA     ,4            WE SET IT HIGHER
      00025                          EXTEND                ..
      00025  0074 00 4 00065         TSX     SETMEM,4                                                         .003

      00026  0774 00 4 00034  NOXTND AXT     CLTH,4        FAST MOVE LOOP
      00027  0443 00 4 77462         DLD     CARD+CLTH,4   ONLY 84 CYCLES FOR 1 CARD IMAGE
      00030 -0603 00 4 00000  MOVIN  DST     **,4          ..
      00031  2 00002 4 00027         TIX     *-2,4,2       ..

      00032  0774 00 4 00000  SV4    AXT     **,4          RESTORE XR4
      00033  0020 00 4 00001         TRA     1,4           AND RETURN
1            SVBSS - SAVE AND RESTORE BSS CARD IMAGES.                                           PAGE 3
                           RESTORE AND WRITE OUT SAVED BSS CARDS.

      00034  0634 00 4 00053  RSBSS  SXA     RX4,4         SAVE XRS
      00035  0634 00 1 00054         SXA     RX1,1         ..

      00036  0534 00 4 00016         LXA     BUFF,4        LAST BUFFER USED
      00037 -0634 00 4 00043         SXD     TXH,4         SAVE FOR CHECKING

      00040  0774 00 1 00000  RESET  AXT     **,1          NOW RESET THE BUFFER STORE POINTER
      00041  0634 00 1 00016         SXA     BUFF,1        ..

      00042  1 00034 1 00043  LOOP   TXI     *+1,1,CLTH    STEP TO NEXT CARD
      00043  3 00000 1 00053  TXH    TXH     ENDRS,1,**    CHECK FOR ALL CARDS DONE
      00044  0634 00 1 00046         SXA     MOVOUT,1      STORE BUFFER ADDRESS

      00045  0774 00 4 00034         AXT     CLTH,4        FAST MOVE AGAIN
      00046  0443 00 4 00000  MOVOUT DLD     **,4          ..
      00047 -0603 00 4 77462         DST     CARD+CLTH,4   ..
      00050  2 00002 4 00046         TIX     MOVOUT,4,2    ..

      00051                          CALL    $WRBSS        WRITE OUT CARD
      00051  0074 00 4 00000         TSX     $WRBSS,4                                                         .002
      00052  0020 00 0 00042         TRA     LOOP          AND GO TO NEXT CARD

                       00053  ENDRS  SYN     *

      00053  0774 00 4 00000  RX4    AXT     **,4          RESTORE XRS
      00054  0774 00 1 00000  RX1    AXT     **,1          ..
      00055  0020 00 4 00001         TRA     1,4           AND RETURN
1            SVBSS - SAVE AND RESTORE BSS CARD IMAGES.                                           PAGE 4
                           RSETB - RESET THE BUFFERS FOR NEXT PROGRAM.

      00056  0634 00 4 00061  RSETB  SXA     RSX4,4        SAVE XR4

      00057  0534 00 4 00040         LXA     RESET,4       GET RESET ADDRESS FOR BUFFER
      00060  0634 00 4 00016         SXA     BUFF,4        ..

      00061  0774 00 4 00000  RSX4   AXT     **,4          RESTORE XR4
      00062  0020 00 4 00001         TRA     1,4           AND RETURN
1            SVBSS - SAVE AND RESTORE BSS CARD IMAGES.                                           PAGE 5
                           STORAGE AND CONSTANTS.

      00063  0 00000 0 00070  LTH    PZE     N*CLTH

                       77426         COMMON  27
                       77426  CARD   COMMON  1

      00064                          RMT     *             REMOTE SEQUENCES.
      00064  0101 00 0 00066  GETMEM TIA     =HGETMEM                                                         .002
      00065  0101 00 0 00067  SETMEM TIA     =HSETMEM                                                         .002

                                     END

        LITERALS
      00066  272563442544
      00067  622563442544
1            SVBSS - SAVE AND RESTORE BSS CARD IMAGES.                                           PAGE 1
                        POST PROCESSOR ASSEMBLY DATA

       77425 IS THE LAST LOCATION NOT USED BY THIS PROGRAM
         70 IS THE FIRST LOCATION NOT USED BY THIS PROGRAM

0REFERENCES TO DEFINED SYMBOLS
          2      N     1,   63
         63    LTH    11
         54    RX1    35
         53    RX4    34
         32    SV4     1
         43    TXH    37
         16   BUFF     7,   20,   36,   41,   60
      77426   CARD    27,   47,   64
         34   CLTH     1,   17,   26,   27,   42,   45,   47,   63
         42   LOOP    52
         61   RSX4    56
         53  ENDRS    43,   53
         30  MOVIN    21
         40  RESET    10,   57
         34  RSBSS     0
         56  RSETB     0
          2  SUBSQ    15
          1  SVBSS     0
          0  WRBSS    51
         64 GETMEM     3
         22 MEMBND    13,   23
         46 MOVOUT    44,   50
         26 NOXTND    22
         65 SETMEM    14,   25

0 NO ERROR IN ABOVE ASSEMBLY.
1            DELETE ALL VERSIONS OF AN OLD FILE.                                                 PAGE 1

                                             NOEL I. MORRIS - 6/22/65

                                     UNLIST
 M                            CALL   MACRO   SUBR,LIST


                       00001         ENTRY   DELETE


      00000  462351222360     OCRBC

      00001  0634 00 4 00035  DELETE SXA     XR4,4         SAVE XRS
      00002  0604 00 0 00125         STI     SVSI          SAVE SI
      00003  0600 00 0 00122         STZ     MODE          SET MODE TO 'P'

      00004 -0500 60 4 00001         CAL*    1,4           GET FILE NAME
      00005  0602 00 0 00107         SLW     FNAM          ..
      00006 -0500 60 4 00002         CAL*    2,4           ..
      00007  0602 00 0 00111         SLW     FNAM+2        ..

      00010 -0500 60 4 00003         CAL*    3,4           GET DELETION PRINT SWITCH
      00011  0602 00 0 00124         SLW     PSW           ..

      00012                          CALL    FSTATE(FNAM,FNAM+2(BUFF,,2)FSERR,ERCODE)
      00012  0074 00 4 00126         TSX     FSTATE,4                                                         .002
      00013  3 00000 0 00107         PAR     FNAM                                                             .004
      00014  3 00000 0 00111         PAR     FNAM+2                                                           .004
      00015  3 00002 0 00121         PAR     BUFF,,2                                                          .004
      00016  3 00000 0 00070         PAR     FSERR                                                            .004
      00017  3 00000 0 00123         PAR     ERCODE                                                           .004

      00020  0441 00 0 00122         LDI     MODE          GET MODE BITS
      00021 -0054 00  400000         LFT     400000        CHECK FOR LINKED FILE
      00022  0020 00 0 00073         TRA     LINKD         IS LINKED, WILL NOT DELETE

      00023  0054 00  000134         RFT     134           CHECK FOR READ-ONLY/PROTECTED, ETC.
      00024  0020 00 0 00040         TRA     ASK           PROTECTED, ASK FOR DELETE

      00025                   DEL    CALL    DELFIL(FNAM,FNAM+2,NODEL)
      00025  0074 00 4 00127         TSX     DELFIL,4                                                         .002
      00026  3 00000 0 00107         PAR     FNAM                                                             .004
      00027  3 00000 0 00111         PAR     FNAM+2                                                           .004
      00030  3 00000 0 00075         PAR     NODEL                                                            .004

      00031  0520 00 0 00124         ZET     PSW           CHECK FOR DELETION PRINT
      00032                          CALL    WRFLX((DTOF,,6)) PRINT DELETION COMMENT
      00032  0074 00 4 00130         TSX     WRFLX,4                                                          .002
      00033  3 00006 0 00104         PAR     DTOF,,6                                                          .004

      00034 -0500 00 0 00122  GONE   CAL     MODE          GET THE MODE
      00035  0774 00 4 00000  XR4    AXT     **,4          RESTORE XRS
      00036  0441 00 0 00125         LDI     SVSI          AND THE SI
      00037  0020 00 4 00005         TRA     5,4           RETURN
1            DELETE ALL VERSIONS OF AN OLD FILE.                                                 PAGE 2

      00040                   ASK    CALL    $OCRBC(MODE)  CONVERT TO BCD
      00040  0074 00 4 00000         TSX     $OCRBC,4                                                         .002
      00041  3 00000 0 00122         PAR     MODE                                                             .004
      00042 -0501 00 0 00151         ORA     =O605757000000 MASK PROPERLY
      00043  0602 00 0 00112         SLW     BCMODE        AND STORE IN COMMENT

      00044                          CALL    WRFLXA((FNAM-1,,11))
      00044  0074 00 4 00131         TSX     WRFLXA,4                                                         .002
      00045  3 00013 0 00106         PAR     FNAM-1,,11                                                       .004

      00046                          CALL    RDFLXA((BUFF,,1))
      00046  0074 00 4 00132         TSX     RDFLXA,4                                                         .002
      00047  3 00001 0 00121         PAR     BUFF,,1                                                          .004

      00050 -0500 00 0 00121         CAL     BUFF          LOOK AT ANSWER
      00051  0771 00 0 00022         ARS     18            ..
      00052  0322 00 0 00143         ERA     =H000YES      CHECK FOR SPECIFIC 'YES'
      00053 -0100 00 0 00075         TNZ     NODEL         NON-ZERO IF 'NO' OR GARBAGE

      00054                          CALL    CHFILE(FNAM,FNAM+2,=1,=-0,=-0,NODEL)
      00054  0074 00 4 00133         TSX     CHFILE,4                                                         .002
      00055  3 00000 0 00107         PAR     FNAM                                                             .004
      00056  3 00000 0 00111         PAR     FNAM+2                                                           .004
      00057  3 00000 0 00141         PAR     =1                                                               .004
      00060  3 00000 0 00147         PAR     =-0                                                              .004
      00061  3 00000 0 00147         PAR     =-0                                                              .004
      00062  3 00000 0 00075         PAR     NODEL                                                            .004

      00063                          CALL    DELFIL(FNAM,FNAM+2,NODEL) DELETE IT NOW
      00063  0074 00 4 00127         TSX     DELFIL,4                                                         .002
      00064  3 00000 0 00107         PAR     FNAM                                                             .004
      00065  3 00000 0 00111         PAR     FNAM+2                                                           .004
      00066  3 00000 0 00075         PAR     NODEL                                                            .004
      00067  0020 00 0 00034         TRA     GONE          ..

      00070 -0500 00 0 00123  FSERR  CAL     ERCODE        GET FSTATE ERROR CODE
      00071  0402 00 0 00142         SUB     =3            ANYTHING ELSE THAN 3
      00072  0100 00 0 00034         TZE     GONE          IS A LINK ERROR

      00073                   LINKD  COMENT  LNKMSG,3,(FILE IS A LINK.),A
      00073  0074 00 4 00131         TSX     WRFLXA,4                                                         .003
      00074  3 00003 0 00134         PAR     LNKMSG,,3                                                        .005
                                                           DO NOT DELETE A LINK

      00075                   NODEL  CALL    WRFLXA((FNAM,,3))
      00075  0074 00 4 00131         TSX     WRFLXA,4                                                         .002
      00076  3 00003 0 00107         PAR     FNAM,,3                                                          .004
      00077                          COMENT  NOT,2,( NOT DELETED)
      00077  0074 00 4 00130         TSX     WRFLX,4                                                          .003
      00100  3 00002 0 00137         PAR     NOT,,2                                                           .005

      00101  0522 00 0 00035         XEC     XR4           RESTORE XRS
      00102  0441 00 0 00125         LDI     SVSI          AND SI
      00103  0020 60 4 00004         TRA*    4,4           ERROR RETURN
1            DELETE ALL VERSIONS OF AN OLD FILE.                                                 PAGE 3

      00104  242543256325     DTOF   BCI     3,DELETED THE OLDER
      00107  000000000000     FNAM   VFD     36/0,O36/576057575757,36/0
      00112  606060606060     BCMODE BCI     6,       MODE. DO YOU WANT TO DELETE I
      00120  637360605757            VFD     H6/T,O30/7360605757
      00121  0 00000 0 00000  BUFF   PZE
      00122  0 00000 0 00000  MODE   PZE
      00123  0 00000 0 00000  ERCODE PZE
      00124  0 00000 0 00000  PSW    PZE
      00125  0 00000 0 00000  SVSI   PZE

      00126                          RMT     *             REMOTE SEQUENCES
      00126  0101 00 0 00146  FSTATE TIA     =HFSTATE                                                         .002
      00127  0101 00 0 00145  DELFIL TIA     =HDELFIL                                                         .002
      00130  0101 00 0 00153  WRFLX  TIA     =HWRFLX                                                          .002
      00131  0101 00 0 00152  WRFLXA TIA     =HWRFLXA                                                         .002
      00132  0101 00 0 00150  RDFLXA TIA     =HRDFLXA                                                         .002
      00133  0101 00 0 00144  CHFILE TIA     =HCHFILE                                                         .002
      00134  263143256031     LNKMSG BCI     3,FILE IS A LINK.                                                .002
      00137  604546636024     NOT    BCI     2, NOT DELETED                                                   .002

                                     END

        LITERALS
      00141  000000000001
      00142  000000000003
      00143  000000702562
      00144  233026314325
      00145  242543263143
      00146  266263216325
      00147  400000000000
      00150  512426436721
      00151  605757000000
      00152  665126436721
      00153  665126436760
1            DELETE ALL VERSIONS OF AN OLD FILE.                                                 PAGE 1
                        POST PROCESSOR ASSEMBLY DATA

        154 IS THE FIRST LOCATION NOT USED BY THIS PROGRAM

0REFERENCES TO DEFINED SYMBOLS
         40    ASK    24
         25    DEL
        137    NOT   100
        124    PSW    11,   31
         35    XR4     1,  101
        121   BUFF    15,   47,   50
        104   DTOF    33
        107   FNAM     5,    7,   13,   14,   26,   27,   45,   55,   56,   64,   65,   76
         34   GONE    67,   72
        122   MODE     3,   20,   34,   41
        125   SVSI     2,   36,  102
         70  FSERR    16
         73  LINKD    22
         75  NODEL    30,   53,   62,   66
          0  OCRBC    40
        130  WRFLX    32,   77
        112 BCMODE    43
        133 CHFILE    54
          1 DELETE     0
        127 DELFIL    25,   63
        123 ERCODE    17,   70
        126 FSTATE    12
        134 LNKMSG    74
        132 RDFLXA    46
        131 WRFLXA    44,   73,   75

0 NO ERROR IN ABOVE ASSEMBLY.
1            DISK ERROR SUBROUTINE - CALLS PRNTER VIA NEXCOM.                                    PAGE 1

                                             REVISED 9/14/65 - NOEL I. MORRIS

                                     UNLIST
 M                            CALL   MACRO   SUBR,LIST


                       00000         ENTRY   DSKER

      00000 -0500 00 0 00006  DSKER  CAL     =HPRNTER
      00001  0560 00 0 00004         LDQ     =O-71
      00002                          CALL    NEXCOM
      00002  0074 00 4 00003         TSX     NEXCOM,4                                                         .002

      00003                          RMT     *             REMOTE SEQUENCES
      00003  0101 00 0 00005  NEXCOM TIA     =HNEXCOM                                                         .002

                                     END

        LITERALS
      00004  400000000071
      00005  452567234644
      00006  475145632551
1            DISK ERROR SUBROUTINE - CALLS PRNTER VIA NEXCOM.                                    PAGE 1
                        POST PROCESSOR ASSEMBLY DATA

          7 IS THE FIRST LOCATION NOT USED BY THIS PROGRAM

0REFERENCES TO DEFINED SYMBOLS
          0  DSKER     0
          3 NEXCOM     2

0 NO ERROR IN ABOVE ASSEMBLY.


   WHO   BCD 05/12/69 2320.6   14731         00000
