


DSKEDT   BCD 05/15/71 1242.5   21245         00000
1     MAD PROGRAM LISTING ... ... ...                 FILE  DSKEDT   MAD            05/15/71    1238.1
-
                 ...DSKEDT - MAIN CONTROL FOR THE DISK EDITOR                                          LM00001
                 ...I.E., BULK INPUT AND OUTPUT BY CONTROL CARDS                                       LM00002
                 ...OR RQUEST COMMAND FILE CALLED OUTPUT RQUEST.                                       LM00003
                                                                                                       LM00004
                  INSERT FILE .SW.                                                                *001 LM00005
                  DEFINE UNARY OPERATOR .SW., PRECEDENCE SAME AS .ABS.                            *002 LM00001
                  MODE STRUCTURE .SW. 1 TO 2                                                      *003 LM00002
             JMP  *+1,AC,*+2                                                                      *004 LM00003
             STO  T                                                                               *005 LM00004
             JMP  *+1,MQ,*+2                                                                      *006 LM00005
             STQ  T                                                                               *007 LM00006
             JMP  *+1,LA,*+2                                                                      *008 LM00007
             SLW  T                                                                               *009 LM00008
             CAL  B                                                                               *010 LM00009
             ANA  =7                                                                              *011 LM00010
             ORA  =76000000160K                                                                   *012 LM00011
             SLW  LOC+2                                                                           *013 LM00012
             CLA  C1                                                                              *014 LM00013
             PZE                                                                                  *015 LM00014
             PXD                                                                                  *016 LM00015
             OUT  AC                                                                              *017 LM00016
             END                                                                                  *018 LM00017
                                                                                                       LM00018
                                                                                                       LM00019
                  DEFINE BINARY OPERATOR .ACL., PRECEDENCE SAME AS +                              *019 LM00020
                  MODE STRUCTURE 1 .ACL. 1 TO 1                                                   *020 LM00021
             JMP  *+7,AC,*+1                                                                      *021 LM00022
             JMP  *+1,MQ,*+3                                                                      *022 LM00023
             JMP  *+9,AT,*+1                                                                      *023 LM00024
             JMP  *+10,BT,*+13                                                                    *024 LM00025
             JMP  *+1,LA,*+4                                                                      *025 LM00026
             JMP  *+4,AT,*+1                                                                      *026 LM00027
             JMP  *+8,BT,*+12                                                                     *027 LM00028
             STO  T                                                                               *028 LM00029
             CAL  A                                                                               *029 LM00030
             ACL  B                                                                               *030 LM00031
             OUT  LAC                                                                             *031 LM00032
             XCL                                                                                  *032 LM00033
             JMP  *-3                                                                             *033 LM00034
             XCL                                                                                  *034 LM00035
             ACL  A                                                                               *035 LM00036
             OUT  LAC                                                                             *036 LM00037
             STQ  T                                                                               *037 LM00038
             JMP  *-9                                                                             *038 LM00039
             SLW  T                                                                               *039 LM00040
             JMP  *-11                                                                            *040 LM00041
             END                                                                                  *041 LM00042
                                                                                                       LM00043
                                                                                                       LM00044
                  INSERT FILE COMDSK                                                              *042 LM00006
                 ...COMMON PACKAGE FOR DISK EDITOR -DSKEDT                                        *042 LM00001
                  PROGRAM COMMON B4SWT,PRIVIL,CARSWT,PRNSWT                                       *043 LM00002
                  PROGRAM COMMON PROB,PROG,FNAM1,FNAM2,MODE,C,ERCOD,DUM                           *044 LM00003
                  PROGRAM COMMON PROB1, PROG1, DATE,TIME,BUF                                      *045 LM00004
                  FUNCTION NAME CTLF,EXIT                                                         *046 LM00005
                  DIMENSION C(14),BUF(864)                                                        *047 LM00006
                  VECTOR VALUES ONOFRT = 7                                                        *048 LM00007
                  VECTOR VALUES ONRT = 5                                                          *049 LM00008
                  VECTOR VALUES OFRT = 3                                                          *050 LM00009
                  VECTOR VALUES ONOF = 6                                                          *051 LM00010
                  VECTOR VALUES ON = 4                                                            *052 LM00011
                  VECTOR VALUES OF = 2                                                            *053 LM00012
                  VECTOR VALUES EOFCT = 0                                                         *054 LM00013
                  VECTOR VALUES MZE = -0                                                          *055 LM00014
                  VECTOR VALUES DSKEDT = $DSKEDT$                                                 *056 LM00015
                  VECTOR VALUES FILE = $.FILE.$                                                   *057 LM00016
                  VECTOR VALUES CRYMAP = $CRYMAP$                                                 *058 LM00017
                  NORMAL MODE IS INTEGER                                                          *059 LM00018
                  EQUIVALENCE(RDCD,CRDEOF)                                                        *060 LM00007
                  PRIVIL = PRIV.(0)                                                               *061 LM00008
                  BPNCHI.(2202K)                                                                  *062 LM00009
                  BINREW.                                                                         *063 LM00010
                  GETTIM.(DATE,TIME)                                                              *064 LM00011
                  IDD(2) = DATE                                                                   *065 LM00012
                  IDD(4) = TIME                                                                   *066 LM00013
                  BPUNCH.(IDD(0)...IDD(4))                                                        *067 LM00014
                     VECTOR VALUES IDD = $ ID CARDS   $,$$,$$,$$                                  *068 LM00015
                                                                                                       LM00016
                  UPDMFD.(DSKEDT,FILE,ALRDY1)                                                     *069 LM00017
                  ATTACH.(DSKEDT,FILE)                                                            *070 LM00018
                  ALLOT.(2,100)                                                                   *071 LM00019
      ALRDY1      CARSWT = 0                                                                      *072 LM00020
                  ATTACH.(DSKEDT,FILE)                                                            *073 LM00021
                  RESETF.(AX1)                                                                    *074 LM00022
      AX1         CLOSE.(STAT,FILE,OPSTAT)                                                        *075 LM00023
                                                                                                       LM00024
      OPSTAT      OPEN.($RW$,STAT,FILE,MZE,MZE,ER13,ERCOD)                                        *076 LM00025
                  BUFFER.(STAT,FILE,BUFT(432)...432,ER13,ERCOD)                                   *077 LM00026
                                                                                                       LM00027
                  WHENEVER .SW. 2, TRANSFER TO QUIT                                               *078 LM00028
                  WHENEVER .SW. 4, TRANSFER TO GOCARD                                             *079 LM00029
      RQST        ONLINE.(MESS...MESS(1))                                                         *080 LM00030
                     VECTOR VALUES MESS = $RQUEST FILES$                                          *081 LM00031
                  STPCHG.                                                                         *082 LM00032
                  UPDCHG.                                                                         *083 LM00033
                  WHENEVER .SW. 3                                                                 *084 LM00034
                       PROB = DAEPRB                                                              *085 LM00035
                       PROG = DAEPRG                                                              *086 LM00036
                       ATTACH.(PROB,PROG,ER14)                                                    *087 LM00037
                       FSTATE.(OUT,RQU,A(8)...8,ER14)                                             *088 LM00038
                       ONLINE.(DEMON...DEMON(3))                                                  *089 LM00039
                          VECTOR VALUES DEMON = $STARTING DAEMON REQUESTS$                        *090 LM00040
                       TRANSFER TO ATTDAE                                                         *091 LM00041
                  END OF CONDITIONAL                                                              *092 LM00042
                                                                                                       LM00043
      SCMFD       WHENEVER .SW. 3                                                                 *093 LM00044
                     ONLINE.(SWT3T1...SWT3T1(7))                                                  *094 LM00045
                     ONLINE.(SWT3T2...SWT3T2(3))                                                  *095 LM00046
                     ONLINE.(SWT3T3...SWT3T3(7))                                                  *096 LM00047
                  VECTOR VALUES SWT3T1=$FINISHED DAEMON. RESET SWT 3 TO CONTINUE RQUEST$          *097 LM00048
                     VECTOR VALUES SWT3T2 = $SWT 3 OR 2 DWN TO QUIT.$                             *098 LM00049
                     VECTOR VALUES SWT3T3 =$SWT 3 AND 2 UP WITH 4 DWN TO DO INPUT TAPE.$          *099 LM00050
                     PAUSE NO. 7                                                                  *100 LM00051
                     WHENEVER .SW. 3, TRANSFER TO QUIT                                            *101 LM00052
                  END OF CONDITIONAL                                                              *102 LM00053
                  WHENEVER .SW. 2,TRANSFER TO QUIT                                                *103 LM00054
                  WHENEVER .SW. 4, TRANSFER TO GOCARD                                             *104 LM00055
                                                                                                       LM00056
                  TILOCK.(SCMFD)                                                                  *105 LM00057
                  SUCESS = SCNMFD.(PROB,PROG,ENDMFD)                                              *106 LM00058
                  WHENEVER SUCESS .E. 0, TRANSFER TO ENDMFD                                       *107 LM00059
                  ATTACH.(PROB,PROG,SCMFD)                                                        *108 LM00060
                                                                                                       LM00061
                 ...SWT 6 -UP -DONT PROCESS TEMP MODE RQUEST FILES                                     LM00062
                          DWN - PROCESS ALL RQUEST FILES FOR RERUN                                     LM00063
                  FSTATE.(OUT,RQU,A(8)...8,SCMFD)                                                 *109 LM00064
      ATTDAE         WHENEVER .NOT. .SW. 6                                                        *110 LM00065
                        WHENEVER A(7) .A. 1 .E. 1                                                 *111 LM00066
                           DELFIL.(OUT,RQU,SCMFD)                                                 *112 LM00067
                           TRANSFER TO SCMFD                                                      *113 LM00068
                                                                                                       LM00069
                        END OF CONDITIONAL                                                        *114 LM00070
                                                                                                       LM00071
                     END OF CONDITIONAL                                                           *115 LM00072
                                                                                                       LM00073
                  CHARGE.(PROB,PROG)                                                              *116 LM00074
                  GETTIM.(DATE,TIME)                                                              *117 LM00075
                  CHFILE.(OUT,RQU,124K,MZE,MZE,ER3,ERCOD)                                         *118 LM00076
                  OPEN.($R$,OUT,RQU,MZE,MZE,SCMFD)                                                *119 LM00077
                  BUFFER.(OUT,RQU,BUFFR(470)...470,ER1,ERCOD)                                     *120 LM00078
                  TILOCK.(NAMES)                                                                  *121 LM00079
                                                                                                       LM00080
      READ        STPCH1.                                                                         *122 LM00081
                  RDWAIT.(OUT,RQU,0,C(14)...14,EOF,EOFCT,ER3,ERCOD)                               *123 LM00082
                  ERR.(C(14)...C(1), ONOFRT,CONTRL)                                               *124 LM00083
      CONTRL      FF = SCANI.(C(14),ER4)                                                          *125 LM00084
                  WHENEVER FF .E. $     C$, TRANSFER TO NAMES                                     *126 LM00085
      FINDI       THROUGH FINDI, FOR I =1,1,I .G. CTL .OR. CTL(I) .E. FF                          *127 LM00086
                  WHENEVER I .G. CTL, TRANSFER TO ER6                                             *128 LM00087
                  WHENEVER FF .E. $UPDMFD$ .OR. FF .E. $  LINK$, TRANSFER TO ER5                  *129 LM00088
                  CHARG1.(CTLCHG(I))                                                              *130 LM00089
                  PROB1 = C(2)                                                                    *131 LM00090
                  PROG1 = C(1)                                                                    *132 LM00091
                  WHENEVER FF .E. $ PRINT$ .OR. FF .E. $PRNDEL$,                                  *133 LM00092
                1    NPRINT.(EJECT...EJECT)                                                       *133 LM00093
      NAMES       FNAM1 = SCAN.(READ)                                                             *134 LM00094
                  FNAM2 = SCAN.(ER4)                                                              *135 LM00095
                  WHENEVER FNAM1 .E. $OUTPUT$ .AND. FNAM2 .E. $RQUEST$, TRANSFER TO NAMES         *136 LM00096
                                                                                                       LM00097
                 ...GO TO DESIRED CONTROL FUNCTION                                                     LM00098
                  SUCESS= CTLF(I).                                                                *137 LM00099
                  UPDATE.                                                                         *138 LM00100
                  TRANSFER TO NAMES                                                               *139 LM00101
                                                                                                       LM00102
      EOF         CLOSE.(OUT,RQU,ER12,ERCOD)                                                      *140 LM00103
                  CHFILE.(OUT,RQU,1,MZE,MZE,ER9,ERCOD)                                            *141 LM00104
                  STPCHG.                                                                         *142 LM00105
                  TRANSFER TO SCMFD                                                               *143 LM00106
                                                                                                       LM00107
                 ...READ CONTROL CARDS FROM A2 IF SWT 4 IS DOWN                                        LM00108
                                                                                                       LM00109
      ENDMFD      UPDCHG.                                                                         *144 LM00110
                  ONLINE.(MFDMSG...MFDMSG(6))                                                     *145 LM00111
                  ONLINE.(MFDMS1...MFDMS1(5))                                                     *146 LM00112
                        VECTOR VALUES MFDMSG = $FINISHED RQUEST FILES. SWT 4-DWN-TAPE A2$         *147 LM00113
                     VECTOR VALUES MFDMS1 = $$,$$,$$,$SWT 4 -UP- QUIT$                            *148 LM00114
                      VECTOR VALUES MFDMS2 = $SWT 1 - READ ONLINE$                                *149 LM00115
                  PAUSE NO. 1                                                                     *150 LM00116
                  WHENEVER .NOT. .SW. 4, TRANSFER TO QUIT                                         *151 LM00117
      GOCARD      CT = 0                                                                          *152 LM00118
                  ONLINE.(STRTA2...STRTA2(5))                                                     *153 LM00119
                    VECTOR VALUES STRTA2 =$AM STARTING TAPE A2. RESET SWT 4.$                     *154 LM00120
                    ONLINE.(MFDMS2...MFDMS2(3))                                                   *155 LM00121
                  PAUSE NO. 2                                                                     *156 LM00122
                                                                                                       LM00123
                  TILOCK.(NXTNAM)                                                                 *157 LM00124
      CRD1        TAPEI.(1002K)                                                                   *158 LM00125
      CARD        WHENEVER .SW. 1                                                                 *159 LM00126
                       RDCARD.(C(14)...RDCD)                                                      *160 LM00127
                       C(1)=$$                                                                    *161 LM00128
                       C(2)=$$                                                                    *162 LM00129
                       T = 14                                                                     *163 LM00130
                  OTHERWISE                                                                       *164 LM00131
                   T = TAPE.(C(14)...C(1),ER8,CARD)                                               *165 LM00132
                  END OF CONDITIONAL                                                              *166 LM00133
                  WHENEVER .SW. 2, TRANSFER TO QUIT                                               *167 LM00134
                  WHENEVER .SW. 4, TRANSFER TO RQUST                                              *168 LM00135
      CARDON      FF = SCANI.(C(14),CARD)                                                         *169 LM00136
                  ERR.(C(14)...C(1),ONOFRT,ISCONT)                                                *170 LM00137
      ISCONT      WHENEVER FF .E. $ CLOSE$, TRANSFER TO RQUST                                     *171 LM00138
                  WHENEVER FF .E. $  STOP$                                                        *172 LM00139
      CRDEOF      STPCHG.                                                                         *173 LM00140
                  UPDCHG.                                                                         *174 LM00141
                     ONLINE.(MSGXXX...MSGXXX(3))                                                  *175 LM00142
                     ONLINE.(MSGXX1...MSGXX1(2))                                                  *176 LM00143
                     ONLINE.(MSGXX2...MSGXX2(3))                                                  *177 LM00144
                     VECTOR VALUES MSGXXX = $SWT 2 -UP- CONTINUE $                                *178 LM00145
                     VECTOR VALUES MSGXX1 = $SWT 2 -DWN- QUIT$                                    *179 LM00146
                     VECTOR VALUES MSGXX2 = $SWT 4 -DWN- REQUEST FILES$                           *180 LM00147
                     PAUSE NO. 70707                                                              *181 LM00148
                     WHENEVER .SW. 4, TRANSFER TO RQUST                                           *182 LM00149
                     WHENEVER .SW. 2, TRANSFER TO QUIT                                            *183 LM00150
                     BSRA2.                                                                       *184 LM00151
                     TRANSFER TO CRD1                                                             *185 LM00152
                  END OF CONDITIONAL                                                              *186 LM00153
                  WHENEVER FF .E. $     C$                                                        *187 LM00154
                       WHENEVER CT .E. 0, TRANSFER TO NXTNAM                                      *188 LM00155
                       TRANSFER TO CARD                                                           *189 LM00156
                  END OF CONDITIONAL                                                              *190 LM00157
      WHATI       THROUGH WHATI, FOR I = 1,1,I .G. CTL .OR. FF .E. CTL(I)                         *191 LM00158
                  WHENEVER I .G. CTL, TRANSFER TO ER7                                             *192 LM00159
                  CT = 0                                                                          *193 LM00160
                  PROB = ADJPRB.( SCAN.(ER7),ER7)                                                 *194 LM00161
                  PROG = SCAN.(ER7)                                                               *195 LM00162
                  WHENEVER PROG .A. 777777777700K .E. $ 32760$,                                   *196 LM00163
                1    PROG = (8-(PROG .A. 7K)) .V. $CMFL00$                                        *196 LM00164
                  STPCHG.                                                                         *197 LM00165
                  CHARGE.(PROB,PROG)                                                              *198 LM00166
                  CHARG1.(CTLCHG(I))                                                              *199 LM00167
                  WHENEVER FF .E. $UPDMFD$, TRANSFER TO CNTRL1                                    *200 LM00168
                  ATTACH.(PROB,PROG,ER10,ERCOD)                                                   *201 LM00169
                  PROB1 = PROB                                                                    *202 LM00170
                  PROG1 = PROG                                                                    *203 LM00171
                  WHENEVER FF .E. $ PRINT$ .OR. FF .E. $PRNDEL$,                                  *204 LM00172
                1    NPRINT.(EJECT...EJECT)                                                       *204 LM00173
                  GETTIM.(DATE,TIME)                                                              *205 LM00174
      NXTNAM      FNAM1 = SCAN.(CARD)                                                             *206 LM00175
                  FNAM2 = SCAN.(ER7)                                                              *207 LM00176
                                                                                                       LM00177
                 ...GO TO CONTROL FUNCTION                                                             LM00178
      CNTRL1      SUCESS= CTLF(I).                                                                *208 LM00179
                  UPDATE.                                                                         *209 LM00180
                  STPCH1.                                                                         *210 LM00181
                  WHENEVER FF .E. $ INPUT$, TRANSFER TO CARD                                      *211 LM00182
                  TRANSFER TO NXTNAM                                                              *212 LM00183
                                                                                                       LM00184
      QUIT        ERR.(MSGEND...MSGEND(3),ONOFRT,THRU)                                            *213 LM00185
                     VECTOR VALUES MSGEND = $FINISHED INPUT EDIT.$                                *214 LM00186
      THRU        STPCHG.                                                                         *215 LM00187
                  UPDCHG.                                                                         *216 LM00188
                  ATTACH.(DSKEDT,FILE,ER11,ERCOD)                                                 *217 LM00189
                  FNAM2 = FILE                                                                    *218 LM00190
                  PROB = $$                                                                       *219 LM00191
                  PROG = $$                                                                       *220 LM00192
                  PROB1 = $$                                                                      *221 LM00193
                  PROG1 = $$                                                                      *222 LM00194
                  FSTATE.(CRYMAP,FILE,A(8)...8,CHKCAR)                                            *223 LM00195
                  WHENEVER A(6) .NE. 1,                                                           *224 LM00196
                1 CLOSE.(CRYMAP,FILE,ER11,ERCOD)                                                  *224 LM00197
      THRU1          BPNCHI.(2201K)                                                               *225 LM00198
                  BPUNCH.(STOPCD...STOPCD(13))                                                    *226 LM00199
                  BPUNCH.(STOPCD(20)...STOPCD(7))                                                 *227 LM00200
                     VECTOR VALUES STOPCD(7) = $$,$$,$$,$$,$$,$$,$$,$$,$$,$$,$$,$$,$$             *228 LM00201
                     VECTOR VALUES STOPCD = $STOP  -END OF CARRY TAPE$,$$,$$,$$                   *229 LM00202
                     VECTOR VALUES STOPCD(20) = $CLOSE$                                           *230 LM00203
                     BINEOF.(2201K)                                                               *231 LM00204
                     BINEOF.(2201K)                                                               *232 LM00205
                  RUNCRY.                                                                         *233 LM00206
                  NPRINT.(EJECT...EJECT)                                                          *234 LM00207
                  NPRINT.(CRYMSG...CRYMSG(5))                                                     *235 LM00208
                     VECTOR VALUES CRYMSG = $ **TABLE OF CONTENTS OF CARRY TAPE.$                 *236 LM00209
                  FNAM1 = CRYMAP                                                                  *237 LM00210
                  PRNT.                                                                           *238 LM00211
                  DELFIL.(CRYMAP,FILE,THRU2)                                                      *239 LM00212
      THRU2       NPRINT.(EJECT...EJECT)                                                          *240 LM00213
                  NPRINT.(REQUES...REQUES(3))                                                     *241 LM00214
                     VECTOR VALUES REQUES = $ **REQUESTS PROCESSED$                               *242 LM00215
                  FNAM1 = STAT                                                                    *243 LM00216
                  CLOSE.(STAT,FILE,THRU4)                                                         *244 LM00217
      THRU4       PRNT.                                                                           *245 LM00218
                  DELFIL.(STAT,FILE,THRU3)                                                        *246 LM00219
      THRU3       PRNEOF.                                                                         *247 LM00220
                  CLOSE.($M.F.D.$,$(FILE)$,NX1)                                                   *248 LM00221
      NX1         WHENEVER B4SWT .NE. 0                                                           *249 LM00222
                     PNCEOF.                                                                      *250 LM00223
                     BPNCHI.(2202K)                                                               *251 LM00224
                     BINEOF.(2202K)                                                               *252 LM00225
                     BINEOF.(2202K)                                                               *253 LM00226
                     RUNCRY.                                                                      *254 LM00227
                  END OF CONDITIONAL                                                              *255 LM00228
                  WHENEVER .SW. 3                                                                 *256 LM00229
                     ONLINE.(RES3...RES3(1))                                                      *257 LM00230
                        VECTOR VALUES RES3 = $RESET SWT 3.$                                       *258 LM00231
                     PAUSE NO. 10                                                                 *259 LM00232
                  END OF CONDITIONAL                                                              *260 LM00233
                  CARSWT = 0                                                                      *261 LM00234
                                                                                                       LM00235
                      FINISH OFF ASCII REQUESTS, IF ANY                                                LM00236
                                                                                                       LM00237
                  EXIT.                                                                           *262 LM00238
                                                                                                       LM00239
      CHKCAR      WHENEVER CARSWT .E. 77777K, TRANSFER TO THRU1                                   *263 LM00240
                  TRANSFER TO THRU2                                                               *264 LM00241
      RQUST       ONLINE.(TTAP...TTAP(6))                                                         *265 LM00242
                  VECTOR VALUES TTAP = $AM STARTING REQUEST FILES. RESET SWT 4.$                  *266 LM00243
                  BSRA2.                                                                          *267 LM00244
                  PAUSE NO. 3                                                                     *268 LM00245
                  TRANSFER TO RQST                                                                *269 LM00246
                                                                                                       LM00247
                 ...ERROR RETURNS                                                                      LM00248
                                                                                                       LM00249
      ER1         MSG1(4) = PROB                                                                  *270 LM00250
                  MSG1(5) = PROG                                                                  *271 LM00251
                  ERR.(MSG1...MSG1(5),ONOFRT,EOF)                                                 *272 LM00252
                     VECTOR VALUES MSG1 = $CAN'T PROCESS RQUEST FILES$                            *273 LM00253
      ER3         MSG3(5) = PROB                                                                  *274 LM00254
                  MSG3(6) = PROG                                                                  *275 LM00255
                  ERR.(MSG3...MSG3(6),ONOFRT,EOF)                                                 *276 LM00256
                     VECTOR VALUES MSG3 = $ERR IN READING RQUEST FILES$                           *277 LM00257
      ER4         ERR.(MSG4...MSG4(3),ONOFRT,READ)                                                *278 LM00258
                     VECTOR VALUES MSG4 = $ILLEGAL RQUEST FORMAT$                                 *279 LM00259
      ER5         ERR.(MSG5...MSG5(4), ONOFRT,READ)                                               *280 LM00260
                     VECTOR VALUES MSG5 = $NOT LEGAL FROM RQUEST FILES$                           *281 LM00261
      ER6         ERR.(MSG6...MSG6(3),ONOFRT,READ)                                                *282 LM00262
                     VECTOR VALUES MSG6 = $ILLEGAL CONTROL WORD$                                  *283 LM00263
      ER7         CT = 7777K                                                                      *284 LM00264
                  ERR.(MSG7...MSG7(3),ONOFRT,ERRTST)                                              *285 LM00265
                     VECTOR VALUES MSG7 = $ILLEGAL CARD FORMAT$                                   *286 LM00266
      ER8         ERR.(MSG8...MSG8(3),ONOFRT,CARDON)                                              *287 LM00267
                     VECTOR VALUES MSG8 = $UNRECOVERED ERR ON A2$                                 *288 LM00268
      ER9         ERR.(MSG9...MSG9(3),ONOFRT,SCMFD)                                               *289 LM00269
                     VECTOR VALUES MSG9 = $CAN'T DELETE RQUEST FILE$                              *290 LM00270
      ER10        ERR.(MSG10...MSG10(2), ONOFRT,ERRTST)                                           *291 LM00271
                     VECTOR VALUES MSG10 = $USER NOT IN MFD$                                      *292 LM00272
      ER11        ERR.(MSG11...MSG11(5),ONOFRT,THRU1)                                             *293 LM00273
                     VECTOR VALUES MSG11 = $CARRY TABLE OF CONTENTS TROUBLE$                      *294 LM00274
      ER12        ERR.(MSG12...MSG12(3),ONOFRT,SCMFD)                                             *295 LM00275
                     VECTOR VALUES MSG12 = $CAN'T CLOSE RQUEST FILE$                              *296 LM00276
      ER13        ONLINE.(MSG13...MSG13(7))                                                       *297 LM00277
                     VECTOR VALUES MSG13 = $CAN'T OPEN STATISTICS FILE. RERUN OR SALVAG.$         *298 LM00278
                  CLOSE.(STAT,FILE,THRU3)                                                         *299 LM00279
                  TRANSFER TO ALRDY1                                                              *300 LM00280
      ER14        ERR.(MSG14...MSG14(2),ONOFRT,SCMFD)                                             *301 LM00281
                     VECTOR VALUES MSG14 = $NO DAEMON REQUESTS$                                   *302 LM00282
      ERRTST      WHENEVER FF .NE. $ INPUT$, TRANSFER TO CARD                                     *303 LM00283
      ERRTT       TAPE.(C(14)...C(13),ERRTT,CARD)                                                 *304 LM00284
                  TRANSFER TO ERRTT                                                               *305 LM00285
                                                                                                       LM00286
                 ...PROGRAM DATA                                                                       LM00287
                                                                                                       LM00288
                  DIMENSION A(9), BUFFR(470),BUFT(432)                                            *306 LM00289
                  VECTOR VALUES ERCOD = 0                                                         *307 LM00290
                  VECTOR VALUES DAEPRB = $ C0056$                                                 *308 LM00291
                  VECTOR VALUES DAEPRG = $ 99999$                                                 *309 LM00292
                  VECTOR VALUES B4SWT = 0                                                         *310 LM00293
                  VECTOR VALUES PRNSWT = 0                                                        *311 LM00294
                  VECTOR VALUES STAT = $STATIS$                                                   *312 LM00295
                  VECTOR VALUES FF = 0                                                            *313 LM00296
                  VECTOR VALUES T = 0                                                             *314 LM00297
                  VECTOR VALUES EJECT = $1$                                                       *315 LM00298
                  VECTOR VALUES OUT = $OUTPUT$                                                    *316 LM00299
                  VECTOR VALUES RQU = $RQUEST$                                                    *317 LM00300
                  VECTOR VALUES CTL = 17,$ PRINT$,$DPUNCH$,$BPUNCH$, $DELETE$, $7PUNCH$,          *318 LM00301
                1  $SSPRNT$,$SSPRDL$,                                                             *318 LM00302
                1  $ INPUT$, $UPDMFD$, $PRNDEL$, $DPUDEL$, $BPUDEL$, $7PUDEL$                     *318 LM00303
                1  ,$ CARRY$, $  LINK$, $CHFILE$,$UNLINK$                                         *318 LM00304
                  VECTOR VALUES CTLF(1) = PRNT., DPNCH., BPNCH., DLETE., PNCH7.,                  *319 LM00305
                1  SSPRNT.,SSPRDL.,                                                               *319 LM00306
                1  INPUT., ADDMFD., PRNDL., DPUDL., BPUDL., PU7DL.                                *319 LM00307
                1  ,CARRY., LNK., CHNGE., NLINK.                                                  *319 LM00308
                  VECTOR VALUES CTLCHG(1) = 2,4,5,0,3,2,2,1,0,2,4,5,3,6,0,0,0                     *320 LM00309
                  END OF PROGRAM                                                                  *321 LM00310
                                         MODE STRUCTURE .SW. 1 TO 2           003  LM00002
 (THE NUMERIC FORM OF THE OPERATOR-MODE ARGUMENT IS    11101 )
                                         MODE STRUCTURE 1 .ACL. 1 TO 1        020  LM00021
 (THE NUMERIC FORM OF THE OPERATOR-MODE ARGUMENT IS    11211 )
1MAD PROGRAM,TYPE NOV 1963      (ALL NUMBERS ARE OCTAL)
0TOTAL LOCATIONS   03744 TRANSFER VECTOR LENGTH  00072 PROGRAM BEGINS    02423 FIRST UNUSED COMMON/ERASABLE  75662
0VARIABLE STORAGE (A=ARRAY,C=COMMON,E=ERASABLE,DIGIT=MODE)
      ALRDY1 00074   4        DATE   77425  C1        FILE   02100 A 1        MSG9   02224 A 1        RDCD   00073   1
      A      00157 A 1        DEMON  02073 A 1        FINDI  00072   4        MSGEND 02230 A 1        READ   00135   4
      ATTDAE 00075   4        DSKEDT 02074 A 1        FNAM1  77453  C1        MSGXX1 02233 A 1        REQUES 02260 A 1
      AX1    00076   4        DUM    77430  C1        FNAM2  77452  C1        MSGXX2 02240 A 1        RES3   02262 A 1
      B4SWT  77461 AC1        EJECT  02075 A 1        GOCARD 00126   4        MSGXXX 02244 A 1        RQST   00136   4
      BUFFR  01106 A 1        ENDMFD 00105   4        IDD    02105 A 1        MZE    02245 A 1        RQU    02263 A 1
      BUF    77423 AC1        EOFCT  02076 A 1        I      02106   1        NAMES  00130   4        RQUST  00137   4
      BUFT   01767 A 1        EOF    00106   4        ISCONT 00127   4        NX1    00131   4        SCMFD  00140   4
      CARDON 00077   4        ER10   00107   4        MESS   02110 A 1        NXTNAM 00132   4        STAT   02264 A 1
      CARD   00100   4        ER11   00110   4        MFDMS1 02116 A 1        OFRT   02246 A 1        STOPCD 02311 A 1
      CARSWT 77457  C1        ER12   00111   4        MFDMS2 02122 A 1        OF     02247 A 1        STRTA2 02317 A 1
      CHKCAR 00101   4        ER13   00112   4        MFDMSG 02131 A 1        ONOFRT 02250 A 1        SUCESS 02320   1
      CNTRL1 00102   4        ER14   00113   4        MODE   77451  C1        ONOF   02251 A 1        SWT3T1 02330 A 1
      CONTRL 00103   4        ER1    00114   4        MSG10  02134 A 1        ONRT   02252 A 1        SWT3T2 02334 A 1
      CRD1   00104   4        ER3    00115   4        MSG11  02142 A 1        ON     02253 A 1        SWT3T3 02344 A 1
      CRDEOF 00073   4        ER4    00116   4        MSG12  02146 A 1        OPSTAT 00133   4        THRU1  00141   4
      CRYMAP 01770 A 1        ER5    00117   4        MSG13  02156 A 1        OUT    02254 A 1        THRU2  00142   4
      CRYMSG 01776 A 1        ER6    00120   4        MSG14  02161 A 1        PRIVIL 77460  C1        THRU3  00143   4
      C      77450 AC1        ER7    00121   4        MSG1   02166 A 1        PRNSWT 77456 AC1        THRU4  00144   4
      CTLCHG 02020 A 1        ER8    00122   4        MSG3   02173 A 1        PROB1  77427  C1        THRU   00145   4
      CTLF   02042 A 3        ER9    00123   4        MSG4   02177 A 1        PROB   77455  C1        TIME   77424  C1
      CTL    02064 A 1        ERCOD  77431 AC1        MSG5   02204 A 1        PROG1  77426  C1        T      02345 A 1
      CT     02065   1        ERRTST 00124   4        MSG6   02210 A 1        PROG   77454  C1        TTAP   02354 A 1
      DAEPRB 02066 A 1        ERRTT  00125   4        MSG7   02214 A 1        QUIT   00134   4        WHATI  00072   4
      DAEPRG 02067 A 1        FF     02077 A 1        MSG8   02220 A 1
0FUNCTION DICTIONARY
      .03200 00000   0        ADDMFD 00001   1        ADJPRB 00002   1        ALLOT  00003   1        ATTACH 00004   1
      BINEOF 00005   1        BINREW 00006   1        BPNCHI 00007   1        BPNCH  00010   1        BPUDL  00011   1
      BPUNCH 00012   1        BSRA2  00013   1        BUFFER 00014   1        CARRY  00015   1        CHARG1 00016   1
      CHARGE 00017   1        CHFILE 00020   1        CHNGE  00021   1        CLOSE  00022   1        DELFIL 00023   1
      DLETE  00024   1        DPNCH  00025   1        DPUDL  00026   1        ERR    00027   1        EXIT   00030   3
      FSTATE 00031   1        GETTIM 00032   1        INPUT  00033   1        .SETUP 00034   1        LNK    00035   1
      NLINK  00036   1        NPRINT 00037   1        ONLINE 00040   1        OPEN   00041   1        PNCEOF 00042   1
      PNCH7  00043   1        PRIV   00044   1        PRNDL  00045   1        PRNEOF 00046   1        PRNT   00047   1
      PU7DL  00050   1        RDCARD 00051   1        RDWAIT 00052   1        RESETF 00053   1        RUNCRY 00054   1
      SCANI  00055   1        SCAN   00056   1        SCNMFD 00057   1        SSPRDL 00060   1        SSPRNT 00061   1
      STPCH1 00062   1        STPCHG 00063   1        TAPEI  00064   1        TAPE   00065   1        TILOCK 00066   1
      UPDATE 00067   1        UPDCHG 00070   1        UPDMFD 00071   1
0ABSOLUTE CONSTANTS
 02375 +000000007777     02376 +000000077777     02421 -342631432534     02402 -043326332433     02373 +000000002201
 02412 -203145476463     02401 +234426430000     02410 -200302070600     02422 -377777777700     02417 -206062634647
 02411 -202343466225     02416 -206060606060     02372 +000000001002     02403 -066463476463     02405 -115064256263
 02413 -204751314563     02404 -075145242543     02420 -244724442624     02414 -206043314542     02415 -206060606023
 02365 +000000000016     02371 +000000000726     02406 -116060606060     02366 +000000000124     02362 +000000000006
 02364 +000000000010     02360 +000000000003     02361 +000000000004     02370 +000000000660     02407 -116660606060
 02367 +000000000144     02357 +000000000002     02374 +000000002202     02355 +000000000000     02377 +076000000160
 02363 +000000000007     02356 +000000000001     02400 +233000000000
0STATEMENT DICTIONARY
 00073 TXL -303235003234       00074 TXL -302457002455       00075 TXL -302673002663       00076 TXL -302470002464
 00077 TXL -303221003215       00100 TXL -303155003145       00101 TXL -303617003613       00102 TXL -303436003431
 00103 TXL -302765002761       00104 TXL -303145003143       00105 TXL -303112003111       00106 TXL -303077003072
 00107 TXL -303704003700       00110 TXL -303710003704       00111 TXL -303714003710       00112 TXL -303716003714
 00113 TXL -303727003723       00114 TXL -303630003626       00115 TXL -303640003636       00116 TXL -303652003646
 00117 TXL -303656003652       00120 TXL -303662003656       00121 TXL -303664003662       00122 TXL -303674003670
 00123 TXL -303700003674       00124 TXL -303733003727       00125 TXL -303737003733       00126 TXL -303133003131
 00127 TXL -303231003225       00130 TXL -303051003046       00131 TXL -303564003561       00132 TXL -303426003423
 00133 TXL -302500002470       00134 TXL -303451003445       00135 TXL -302744002743       00136 TXL -302532002530
 00137 TXL -303622003620       00140 TXL -302574002564       00141 TXL -303511003507       00142 TXL -303537003535
 00143 TXL -303555003554       00144 TXL -303550003547       00145 TXL -303452003451
0PROGRAM
                 INSERT FILE .SW.                                                   001  LM00005
                 DEFINE UNARY OPERATOR .SW., PRECEDENCE SAME AS .ABS.               002  LM00001
                 MODE STRUCTURE .SW. 1 TO 2                                         003  LM00002
 02423 TSX +0 07400 4 00034
                 DEFINE BINARY OPERATOR .ACL., PRECEDENCE SAME AS +                 019  LM00020
                 MODE STRUCTURE 1 .ACL. 1 TO 1                                      020  LM00021
                 INSERT FILE COMDSK                                                 042  LM00006
                 PROGRAM COMMON B4SWT,PRIVIL,CARSWT,PRNSWT                          043  LM00002
                 PROGRAM COMMON PROB,PROG,FNAM1,FNAM2,MODE,C,ERCOD,DUM              044  LM00003
                 PROGRAM COMMON PROB1, PROG1, DATE,TIME,BUF                         045  LM00004
                 FUNCTION NAME CTLF,EXIT                                            046  LM00005
                 DIMENSION C(14),BUF(864)                                           047  LM00006
                 V'S ONOFRT = 7                                                     048  LM00007
 02250     +0 00000 0 00007
                 V'S ONRT = 5                                                       049  LM00008
 02252     +0 00000 0 00005
                 V'S OFRT = 3                                                       050  LM00009
 02246     +0 00000 0 00003
                 V'S ONOF = 6                                                       051  LM00010
 02251     +0 00000 0 00006
                 V'S ON = 4                                                         052  LM00011
 02253     +0 00000 0 00004
                 V'S OF = 2                                                         053  LM00012
 02247     +0 00000 0 00002
                 V'S EOFCT = 0                                                      054  LM00013
 02076     +0 00000 0 00000
                 V'S MZE = -0                                                       055  LM00014
 02245     -0 00000 0 00000
                 V'S DSKEDT = $DSKEDT$                                              056  LM00015
 02074     +2 46242 2 52463
                 V'S FILE = $.FILE.$                                                057  LM00016
 02100     +3 32631 4 32533
                 V'S CRYMAP = $CRYMAP$                                              058  LM00017
 01770     +2 35170 4 42147
                 N'S INTEGER                                                        059  LM00018
                 E'E(RDCD,CRDEOF)                                                   060  LM00007
                 PRIVIL = PRIV.(0)                                                  061  LM00008
 02424 TSX +0 07400 4 00044    02425 TXH +3 00000 0 02355    02426 STO +0 60100 0 77460
                 BPNCHI.(2202K)                                                     062  LM00009
 02427 TSX +0 07400 4 00007    02430 TXH +3 00000 0 02374
                 BINREW.                                                            063  LM00010
 02431 TSX +0 07400 4 00006
                 GETTIM.(DATE,TIME)                                                 064  LM00011
 02432 TSX +0 07400 4 00032    02433 TXH +3 00000 0 77425    02434 TXH +3 00000 0 77424
                 IDD(2) = DATE                                                      065  LM00012
 02435 CLA +0 50000 0 77425    02436 STO +0 60100 0 02103
                 IDD(4) = TIME                                                      066  LM00013
 02437 CLA +0 50000 0 77424    02440 STO +0 60100 0 02101
                 BPUNCH.(IDD(0)...IDD(4))                                           067  LM00014
 02441 TSX +0 07400 4 00012    02442 TIX +2 02101 0 02105
                    V'S IDD = $ ID CARDS   $,$$,$$,$$                               068  LM00015
 02101     -2 06060 6 06060    02102     -2 06060 6 06060    02103     -2 06060 6 06060    02104     -1 12462 6 06060
 02105     -2 03124 6 02321
                 UPDMFD.(DSKEDT,FILE,ALRDY1)                                        069  LM00017
 02443 TSX +0 07400 4 00071    02444 TXH +3 00000 0 02074    02445 TXH +3 00000 0 02100    02446 TXH +3 00000 0 00074
                 ATTACH.(DSKEDT,FILE)                                               070  LM00018
 02447 TSX +0 07400 4 00004    02450 TXH +3 00000 0 02074    02451 TXH +3 00000 0 02100
                 ALLOT.(2,100)                                                      071  LM00019
 02452 TSX +0 07400 4 00003    02453 TXH +3 00000 0 02357    02454 TXH +3 00000 0 02367
      ALRDY1     CARSWT = 0                                                         072  LM00020
 02455 CLA +0 50000 0 02355    02456 STO +0 60100 0 77457
                 ATTACH.(DSKEDT,FILE)                                               073  LM00021
 02457 TSX +0 07400 4 00004    02460 TXH +3 00000 0 02074    02461 TXH +3 00000 0 02100
                 RESETF.(AX1)                                                       074  LM00022
 02462 TSX +0 07400 4 00053    02463 TXH +3 00000 0 00076
      AX1        CLOSE.(STAT,FILE,OPSTAT)                                           075  LM00023
 02464 TSX +0 07400 4 00022    02465 TXH +3 00000 0 02264    02466 TXH +3 00000 0 02100    02467 TXH +3 00000 0 00133
      OPSTAT     OPEN.($RW$,STAT,FILE,MZE,MZE,ER13,ERCOD)                           076  LM00025
 02470 TSX +0 07400 4 00041    02471 TXH +3 00000 0 02407    02472 TXH +3 00000 0 02264    02473 TXH +3 00000 0 02100
 02474 TXH +3 00000 0 02245    02475 TXH +3 00000 0 02245    02476 TXH +3 00000 0 00112    02477 TXH +3 00000 0 77431
                 BUFFER.(STAT,FILE,BUFT(432)...432,ER13,ERCOD)                      077  LM00026
 02500 TSX +0 07400 4 00014    02501 TXH +3 00000 0 02264    02502 TXH +3 00000 0 02100    02503 TIX +2 02370 0 01107
 02504 TXH +3 00000 0 00112    02505 TXH +3 00000 0 77431
                 W'R .SW. 2, T'O QUIT                                               078  LM00028
 02506 CAL -0 50000 0 02357    02507 ANA -0 32000 0 02363    02510 ORA -0 50100 0 02377    02511 SLW +0 60200 0 02513
 02512 CLA +0 50000 0 02356    02513 PZE +0 00000 0 00000    02514 PXD -0 75400 0 00000    02515 TZE +0 10000 0 02517
 02516 TRA +0 02000 0 00134
                 W'R .SW. 4, T'O GOCARD                                             079  LM00029
 02517 CAL -0 50000 0 02361    02520 ANA -0 32000 0 02363    02521 ORA -0 50100 0 02377    02522 SLW +0 60200 0 02524
 02523 CLA +0 50000 0 02356    02524 PZE +0 00000 0 00000    02525 PXD -0 75400 0 00000    02526 TZE +0 10000 0 02530
 02527 TRA +0 02000 0 00126
      RQST       ONLINE.(MESS...MESS(1))                                            080  LM00030
 02530 TSX +0 07400 4 00040    02531 TIX +2 02107 0 02110
                    V'S MESS = $RQUEST FILES$                                       081  LM00031
 02107     -2 02631 4 32562    02110     -1 15064 2 56263
                 STPCHG.                                                            082  LM00032
 02532 TSX +0 07400 4 00063
                 UPDCHG.                                                            083  LM00033
 02533 TSX +0 07400 4 00070
                 W'R .SW. 3                                                         084  LM00034
 02534 CAL -0 50000 0 02360    02535 ANA -0 32000 0 02363    02536 ORA -0 50100 0 02377    02537 SLW +0 60200 0 02541
 02540 CLA +0 50000 0 02356    02541 PZE +0 00000 0 00000    02542 PXD -0 75400 0 00000    02543 TZE +0 10000 0 02564
                      PROB = DAEPRB                                                 085  LM00035
 02544 CLA +0 50000 0 02066    02545 STO +0 60100 0 77455
                      PROG = DAEPRG                                                 086  LM00036
 02546 CLA +0 50000 0 02067    02547 STO +0 60100 0 77454
                      ATTACH.(PROB,PROG,ER14)                                       087  LM00037
 02550 TSX +0 07400 4 00004    02551 TXH +3 00000 0 77455    02552 TXH +3 00000 0 77454    02553 TXH +3 00000 0 00113
                      FSTATE.(OUT,RQU,A(8)...8,ER14)                                088  LM00038
 02554 TSX +0 07400 4 00031    02555 TXH +3 00000 0 02254    02556 TXH +3 00000 0 02263    02557 TIX +2 02364 0 00147
 02560 TXH +3 00000 0 00113
                      ONLINE.(DEMON...DEMON(3))                                     089  LM00039
 02561 TSX +0 07400 4 00040    02562 TIX +2 02070 0 02073
                         V'S DEMON = $STARTING DAEMON REQUESTS$                     090  LM00040
 02070     -1 06425 6 26362    02071     -0 44645 6 05125    02072     -0 52760 2 42125    02073     -2 26321 5 16331
                      T'O ATTDAE                                                    091  LM00041
 02563 TRA +0 02000 0 00075
                 E'L                                                                092  LM00042
      SCMFD      W'R .SW. 3                                                         093  LM00044
 02564 CAL -0 50000 0 02360    02565 ANA -0 32000 0 02363    02566 ORA -0 50100 0 02377    02567 SLW +0 60200 0 02571
 02570 CLA +0 50000 0 02356    02571 PZE +0 00000 0 00000    02572 PXD -0 75400 0 00000    02573 TZE +0 10000 0 02615
                    ONLINE.(SWT3T1...SWT3T1(7))                                     094  LM00045
 02574 TSX +0 07400 4 00040    02575 TIX +2 02321 0 02330
                    ONLINE.(SWT3T2...SWT3T2(3))                                     095  LM00046
 02576 TSX +0 07400 4 00040    02577 TIX +2 02331 0 02334
                    ONLINE.(SWT3T3...SWT3T3(7))                                     096  LM00047
 02600 TSX +0 07400 4 00040    02601 TIX +2 02335 0 02344
                 V'S SWT3T1=$FINISHED DAEMON. RESET SWT 3 TO CONTINUE RQUEST$       097  LM00048
 02321     -1 06425 6 26360    02322     +3 14564 2 56051    02323     -0 66023 4 64563    02324     -2 66360 0 36063
 02325     +2 56225 6 36062    02326     -0 44645 3 36051    02327     +2 52460 2 42125    02330     +2 63145 3 16230
                    V'S SWT3T2 = $SWT 3 OR 2 DWN TO QUIT.$                          098  LM00049
 02331     -1 06431 6 33360    02332     -2 64560 6 34660    02333     -0 65160 0 26024    02334     -2 26663 6 00360
                    V'S SWT3T3 =$SWT 3 AND 2 UP WITH 4 DWN TO DO INPUT TAPE.$       099  LM00050
 02335     +3 36060 6 06060    02336     -2 36063 2 14725    02337     -0 66031 4 54764    02340     -0 56063 4 66024
 02341     +3 06004 6 02466    02342     -2 44760 6 63163    02343     +2 14524 6 00260    02344     -2 26663 6 00360
                    PAUSE NO. 7                                                     100  LM00051
 02602 TSX +0 07400 4 00000    02603 TXH +3 00000 0 00007
                    W'R .SW. 3, T'O QUIT                                            101  LM00052
 02604 CAL -0 50000 0 02360    02605 ANA -0 32000 0 02363    02606 ORA -0 50100 0 02377    02607 SLW +0 60200 0 02611
 02610 CLA +0 50000 0 02356    02611 PZE +0 00000 0 00000    02612 PXD -0 75400 0 00000    02613 TZE +0 10000 0 02615
 02614 TRA +0 02000 0 00134
                 E'L                                                                102  LM00053
                 W'R .SW. 2,T'O QUIT                                                103  LM00054
 02615 CAL -0 50000 0 02357    02616 ANA -0 32000 0 02363    02617 ORA -0 50100 0 02377    02620 SLW +0 60200 0 02622
 02621 CLA +0 50000 0 02356    02622 PZE +0 00000 0 00000    02623 PXD -0 75400 0 00000    02624 TZE +0 10000 0 02626
 02625 TRA +0 02000 0 00134
                 W'R .SW. 4, T'O GOCARD                                             104  LM00055
 02626 CAL -0 50000 0 02361    02627 ANA -0 32000 0 02363    02630 ORA -0 50100 0 02377    02631 SLW +0 60200 0 02633
 02632 CLA +0 50000 0 02356    02633 PZE +0 00000 0 00000    02634 PXD -0 75400 0 00000    02635 TZE +0 10000 0 02637
 02636 TRA +0 02000 0 00126
                 TILOCK.(SCMFD)                                                     105  LM00057
 02637 TSX +0 07400 4 00066    02640 TXH +3 00000 0 00140
                 SUCESS = SCNMFD.(PROB,PROG,ENDMFD)                                 106  LM00058
 02641 TSX +0 07400 4 00057    02642 TXH +3 00000 0 77455    02643 TXH +3 00000 0 77454    02644 TXH +3 00000 0 00105
 02645 STO +0 60100 0 02320
                 W'R SUCESS .E. 0, T'O ENDMFD                                       107  LM00059
 02646 CLA +0 50000 0 02320    02647 SUB +0 40200 0 02355    02650 TNZ -0 10000 0 02652    02651 TRA +0 02000 0 00105
                 ATTACH.(PROB,PROG,SCMFD)                                           108  LM00060
 02652 TSX +0 07400 4 00004    02653 TXH +3 00000 0 77455    02654 TXH +3 00000 0 77454    02655 TXH +3 00000 0 00140
                 FSTATE.(OUT,RQU,A(8)...8,SCMFD)                                    109  LM00064
 02656 TSX +0 07400 4 00031    02657 TXH +3 00000 0 02254    02660 TXH +3 00000 0 02263    02661 TIX +2 02364 0 00147
 02662 TXH +3 00000 0 00140
      ATTDAE        W'R .NOT. .SW. 6                                                110  LM00065
 02663 CAL -0 50000 0 02362    02664 ANA -0 32000 0 02363    02665 ORA -0 50100 0 02377    02666 SLW +0 60200 0 02670
 02667 CLA +0 50000 0 02356    02670 PZE +0 00000 0 00000    02671 PXD -0 75400 0 00000    02672 TNZ -0 10000 0 02706
                       W'R A(7) .A. 1 .E. 1                                         111  LM00066
 02673 CAL -0 50000 0 00150    02674 ANA -0 32000 0 02356    02675 SLW +0 60200 0 03741    02676 CLA +0 50000 0 03741
 02677 SUB +0 40200 0 02356    02700 TNZ -0 10000 0 02706
                          DELFIL.(OUT,RQU,SCMFD)                                    112  LM00067
 02701 TSX +0 07400 4 00023    02702 TXH +3 00000 0 02254    02703 TXH +3 00000 0 02263    02704 TXH +3 00000 0 00140
                          T'O SCMFD                                                 113  LM00068
 02705 TRA +0 02000 0 00140
                       E'L                                                          114  LM00070
                    E'L                                                             115  LM00072
                 CHARGE.(PROB,PROG)                                                 116  LM00074
 02706 TSX +0 07400 4 00017    02707 TXH +3 00000 0 77455    02710 TXH +3 00000 0 77454
                 GETTIM.(DATE,TIME)                                                 117  LM00075
 02711 TSX +0 07400 4 00032    02712 TXH +3 00000 0 77425    02713 TXH +3 00000 0 77424
                 CHFILE.(OUT,RQU,124K,MZE,MZE,ER3,ERCOD)                            118  LM00076
 02714 TSX +0 07400 4 00020    02715 TXH +3 00000 0 02254    02716 TXH +3 00000 0 02263    02717 TXH +3 00000 0 02366
 02720 TXH +3 00000 0 02245    02721 TXH +3 00000 0 02245    02722 TXH +3 00000 0 00115    02723 TXH +3 00000 0 77431
                 OPEN.($R$,OUT,RQU,MZE,MZE,SCMFD)                                   119  LM00077
 02724 TSX +0 07400 4 00041    02725 TXH +3 00000 0 02406    02726 TXH +3 00000 0 02254    02727 TXH +3 00000 0 02263
 02730 TXH +3 00000 0 02245    02731 TXH +3 00000 0 02245    02732 TXH +3 00000 0 00140
                 BUFFER.(OUT,RQU,BUFFR(470)...470,ER1,ERCOD)                        120  LM00078
 02733 TSX +0 07400 4 00014    02734 TXH +3 00000 0 02254    02735 TXH +3 00000 0 02263    02736 TIX +2 02371 0 00160
 02737 TXH +3 00000 0 00114    02740 TXH +3 00000 0 77431
                 TILOCK.(NAMES)                                                     121  LM00079
 02741 TSX +0 07400 4 00066    02742 TXH +3 00000 0 00130
      READ       STPCH1.                                                            122  LM00081
 02743 TSX +0 07400 4 00062
                 RDWAIT.(OUT,RQU,0,C(14)...14,EOF,EOFCT,ER3,ERCOD)                  123  LM00082
 02744 TSX +0 07400 4 00052    02745 TXH +3 00000 0 02254    02746 TXH +3 00000 0 02263    02747 TXH +3 00000 0 02355
 02750 TIX +2 02365 0 77432    02751 TXH +3 00000 0 00106    02752 TXH +3 00000 0 02076    02753 TXH +3 00000 0 00115
 02754 TXH +3 00000 0 77431
                 ERR.(C(14)...C(1), ONOFRT,CONTRL)                                  124  LM00083
 02755 TSX +0 07400 4 00027    02756 TIX +2 77447 0 77432    02757 TXH +3 00000 0 02250    02760 TXH +3 00000 0 00103
      CONTRL     FF = SCANI.(C(14),ER4)                                             125  LM00084
 02761 TSX +0 07400 4 00055    02762 TXH +3 00000 0 77432    02763 TXH +3 00000 0 00116    02764 STO +0 60100 0 02077
                 W'R FF .E. $     C$, T'O NAMES                                     126  LM00085
 02765 CLA +0 50000 0 02077    02766 SUB +0 40200 0 02415    02767 TNZ -0 10000 0 02771    02770 TRA +0 02000 0 00130
      FINDI      T'H FINDI, FOR I =1,1,I .G. CTL .OR. CTL(I) .E. FF                 127  LM00086
 02771 CLA +0 50000 0 02356    02772 STO +0 60100 0 02106    02773 TRA +0 02000 0 02777    02774 CLA +0 50000 0 02106
 02775 ADD +0 40000 0 02356    02776 STO +0 60100 0 02106    02777 LXA +0 53400 1 02106    03000 CLA +0 50000 1 02064
 03001 SUB +0 40200 0 02077    03002 TZE +0 10000 0 03010    03003 CLA +0 50000 0 02106    03004 SUB +0 40200 0 02064
 03005 TZE +0 10000 0 03007    03006 TPL +0 12000 0 03010    03007 TRA +0 02000 0 02774
                 W'R I .G. CTL, T'O ER6                                             128  LM00087
 03010 CLA +0 50000 0 02106    03011 SUB +0 40200 0 02064    03012 TZE +0 10000 0 03015    03013 TMI -0 12000 0 03015
 03014 TRA +0 02000 0 00120
                 W'R FF .E. $UPDMFD$ .OR. FF .E. $  LINK$, T'O ER5                  129  LM00088
 03015 CLA +0 50000 0 02077    03016 SUB +0 40200 0 02414    03017 TZE +0 10000 0 03023    03020 CLA +0 50000 0 02077
 03021 SUB +0 40200 0 02420    03022 TNZ -0 10000 0 03024    03023 TRA +0 02000 0 00117
                 CHARG1.(CTLCHG(I))                                                 130  LM00089
 03024 CLA +0 50000 0 02106    03025 SUB +0 40200 0 03026    03026 TXH +3 00000 0 02020    03027 STA +0 62100 0 03031
 03030 TSX +0 07400 4 00016    03031 TXH +3 00000 0 00000
                 PROB1 = C(2)                                                       131  LM00090
 03032 CLA +0 50000 0 77446    03033 STO +0 60100 0 77427
                 PROG1 = C(1)                                                       132  LM00091
 03034 CLA +0 50000 0 77447    03035 STO +0 60100 0 77426
                 W'R FF .E. $ PRINT$ .OR. FF .E. $PRNDEL$,                          133  LM00092
                1   NPRINT.(EJECT...EJECT)                                          133  LM00093
 03036 CLA +0 50000 0 02077    03037 SUB +0 40200 0 02404    03040 TZE +0 10000 0 03044    03041 CLA +0 50000 0 02077
 03042 SUB +0 40200 0 02413    03043 TNZ -0 10000 0 03046    03044 TSX +0 07400 4 00037    03045 TIX +2 02075 0 02075
      NAMES      FNAM1 = SCAN.(READ)                                                134  LM00094
 03046 TSX +0 07400 4 00056    03047 TXH +3 00000 0 00135    03050 STO +0 60100 0 77453
                 FNAM2 = SCAN.(ER4)                                                 135  LM00095
 03051 TSX +0 07400 4 00056    03052 TXH +3 00000 0 00116    03053 STO +0 60100 0 77452
                 W'R FNAM1 .E. $OUTPUT$ .AND. FNAM2 .E. $RQUEST$, T'O NAMES         136  LM00096
 03054 CLA +0 50000 0 77452    03055 SUB +0 40200 0 02405    03056 TNZ -0 10000 0 03063    03057 CLA +0 50000 0 77453
 03060 SUB +0 40200 0 02403    03061 TNZ -0 10000 0 03063    03062 TRA +0 02000 0 00130
                 SUCESS= CTLF(I).                                                   137  LM00099
 03063 LXA +0 53400 1 02106    03064 CLA +0 50000 1 02042    03065 STO +0 60100 0 03741    03066 TSX +0 07400 4 03741
 03067 STO +0 60100 0 02320
                 UPDATE.                                                            138  LM00100
 03070 TSX +0 07400 4 00067
                 T'O NAMES                                                          139  LM00101
 03071 TRA +0 02000 0 00130
      EOF        CLOSE.(OUT,RQU,ER12,ERCOD)                                         140  LM00103
 03072 TSX +0 07400 4 00022    03073 TXH +3 00000 0 02254    03074 TXH +3 00000 0 02263    03075 TXH +3 00000 0 00111
 03076 TXH +3 00000 0 77431
                 CHFILE.(OUT,RQU,1,MZE,MZE,ER9,ERCOD)                               141  LM00104
 03077 TSX +0 07400 4 00020    03100 TXH +3 00000 0 02254    03101 TXH +3 00000 0 02263    03102 TXH +3 00000 0 02356
 03103 TXH +3 00000 0 02245    03104 TXH +3 00000 0 02245    03105 TXH +3 00000 0 00123    03106 TXH +3 00000 0 77431
                 STPCHG.                                                            142  LM00105
 03107 TSX +0 07400 4 00063
                 T'O SCMFD                                                          143  LM00106
 03110 TRA +0 02000 0 00140
      ENDMFD     UPDCHG.                                                            144  LM00110
 03111 TSX +0 07400 4 00070
                 ONLINE.(MFDMSG...MFDMSG(6))                                        145  LM00111
 03112 TSX +0 07400 4 00040    03113 TIX +2 02123 0 02131
                 ONLINE.(MFDMS1...MFDMS1(5))                                        146  LM00112
 03114 TSX +0 07400 4 00040    03115 TIX +2 02111 0 02116
                       V'S MFDMSG = $FINISHED RQUEST FILES. SWT 4-DWN-TAPE A2$      147  LM00113
 02123     +2 56021 0 26060    02124     -2 64540 6 32147    02125     -2 66360 0 44024    02126     -0 32562 3 36062
 02127     +2 56263 6 02631    02130     +2 52460 5 15064    02131     +2 63145 3 16230
                    V'S MFDMS1 = $$,$$,$$,$SWT 4 -UP- QUIT$                         148  LM00114
 02111     -2 43163 6 06060    02112     -0 06447 4 06050    02113     -2 26663 6 00460    02114     -2 06060 6 06060
 02115     -2 06060 6 06060    02116     -2 06060 6 06060
                     V'S MFDMS2 = $SWT 1 - READ ONLINE$                             149  LM00115
 02117     +2 56060 6 06060    02120     -2 04645 4 33145    02121     -0 06051 2 52124    02122     -2 26663 6 00160
                 PAUSE NO. 1                                                        150  LM00116
 03116 TSX +0 07400 4 00000    03117 TXH +3 00000 0 00001
                 W'R .NOT. .SW. 4, T'O QUIT                                         151  LM00117
 03120 CAL -0 50000 0 02361    03121 ANA -0 32000 0 02363    03122 ORA -0 50100 0 02377    03123 SLW +0 60200 0 03125
 03124 CLA +0 50000 0 02356    03125 PZE +0 00000 0 00000    03126 PXD -0 75400 0 00000    03127 TNZ -0 10000 0 03131
 03130 TRA +0 02000 0 00134
      GOCARD     CT = 0                                                             152  LM00118
 03131 CLA +0 50000 0 02355    03132 STO +0 60100 0 02065
                 ONLINE.(STRTA2...STRTA2(5))                                        153  LM00119
 03133 TSX +0 07400 4 00040    03134 TIX +2 02312 0 02317
                   V'S STRTA2 =$AM STARTING TAPE A2. RESET SWT 4.$                  154  LM00120
 02312     -2 00433 6 06060    02313     +2 56360 6 26663    02314     +0 23360 5 12562    02315     -2 32147 2 56021
 02316     -1 16331 4 52760    02317     +2 14460 6 26321
                   ONLINE.(MFDMS2...MFDMS2(3))                                      155  LM00121
 03135 TSX +0 07400 4 00040    03136 TIX +2 02117 0 02122
                 PAUSE NO. 2                                                        156  LM00122
 03137 TSX +0 07400 4 00000    03140 TXH +3 00000 0 00002
                 TILOCK.(NXTNAM)                                                    157  LM00124
 03141 TSX +0 07400 4 00066    03142 TXH +3 00000 0 00132
      CRD1       TAPEI.(1002K)                                                      158  LM00125
 03143 TSX +0 07400 4 00064    03144 TXH +3 00000 0 02372
      CARD       W'R .SW. 1                                                         159  LM00126
 03145 CAL -0 50000 0 02356    03146 ANA -0 32000 0 02363    03147 ORA -0 50100 0 02377    03150 SLW +0 60200 0 03152
 03151 CLA +0 50000 0 02356    03152 PZE +0 00000 0 00000    03153 PXD -0 75400 0 00000    03154 TZE +0 10000 0 03166
                      RDCARD.(C(14)...RDCD)                                         160  LM00127
 03155 TSX +0 07400 4 00051    03156 TIX +2 00073 0 77432
                      C(1)=$$                                                       161  LM00128
 03157 CLA +0 50000 0 02416    03160 STO +0 60100 0 77447
                      C(2)=$$                                                       162  LM00129
 03161 CLA +0 50000 0 02416    03162 STO +0 60100 0 77446
                      T = 14                                                        163  LM00130
 03163 CLA +0 50000 0 02365    03164 STO +0 60100 0 02345
                 O'E                                                                164  LM00131
 03165 TRA +0 02000 0 03173
                  T = TAPE.(C(14)...C(1),ER8,CARD)                                  165  LM00132
 03166 TSX +0 07400 4 00065    03167 TIX +2 77447 0 77432    03170 TXH +3 00000 0 00122    03171 TXH +3 00000 0 00100
 03172 STO +0 60100 0 02345
                 E'L                                                                166  LM00133
                 W'R .SW. 2, T'O QUIT                                               167  LM00134
 03173 CAL -0 50000 0 02357    03174 ANA -0 32000 0 02363    03175 ORA -0 50100 0 02377    03176 SLW +0 60200 0 03200
 03177 CLA +0 50000 0 02356    03200 PZE +0 00000 0 00000    03201 PXD -0 75400 0 00000    03202 TZE +0 10000 0 03204
 03203 TRA +0 02000 0 00134
                 W'R .SW. 4, T'O RQUST                                              168  LM00135
 03204 CAL -0 50000 0 02361    03205 ANA -0 32000 0 02363    03206 ORA -0 50100 0 02377    03207 SLW +0 60200 0 03211
 03210 CLA +0 50000 0 02356    03211 PZE +0 00000 0 00000    03212 PXD -0 75400 0 00000    03213 TZE +0 10000 0 03215
 03214 TRA +0 02000 0 00137
      CARDON     FF = SCANI.(C(14),CARD)                                            169  LM00136
 03215 TSX +0 07400 4 00055    03216 TXH +3 00000 0 77432    03217 TXH +3 00000 0 00100    03220 STO +0 60100 0 02077
                 ERR.(C(14)...C(1),ONOFRT,ISCONT)                                   170  LM00137
 03221 TSX +0 07400 4 00027    03222 TIX +2 77447 0 77432    03223 TXH +3 00000 0 02250    03224 TXH +3 00000 0 00127
      ISCONT     W'R FF .E. $ CLOSE$, T'O RQUST                                     171  LM00138
 03225 CLA +0 50000 0 02077    03226 SUB +0 40200 0 02411    03227 TNZ -0 10000 0 03231    03230 TRA +0 02000 0 00137
                 W'R FF .E. $  STOP$                                                172  LM00139
 03231 CLA +0 50000 0 02077    03232 SUB +0 40200 0 02417    03233 TNZ -0 10000 0 03272
      CRDEOF     STPCHG.                                                            173  LM00140
 03234 TSX +0 07400 4 00063
                 UPDCHG.                                                            174  LM00141
 03235 TSX +0 07400 4 00070
                    ONLINE.(MSGXXX...MSGXXX(3))                                     175  LM00142
 03236 TSX +0 07400 4 00040    03237 TIX +2 02241 0 02244
                    ONLINE.(MSGXX1...MSGXX1(2))                                     176  LM00143
 03240 TSX +0 07400 4 00040    03241 TIX +2 02231 0 02233
                    ONLINE.(MSGXX2...MSGXX2(3))                                     177  LM00144
 03242 TSX +0 07400 4 00040    03243 TIX +2 02235 0 02240
                    V'S MSGXXX = $SWT 2 -UP- CONTINUE $                             178  LM00145
 02241     +2 56060 6 06060    02242     -0 64563 3 14564    02243     -0 06447 4 06023    02244     -2 26663 6 00260
                    V'S MSGXX1 = $SWT 2 -DWN- QUIT$                                 179  LM00146
 02231     -1 06431 6 36060    02232     -0 02466 4 54060    02233     -2 26663 6 00260
                    V'S MSGXX2 = $SWT 4 -DWN- REQUEST FILES$                        180  LM00147
 02234     -2 26060 6 06060    02235     -2 36026 3 14325    02236     -1 12550 6 42562    02237     -0 02466 4 54060
 02240     -2 26663 6 00460
                    PAUSE NO. 70707                                                 181  LM00148
 03244 TSX +0 07400 4 00000    03245 TXH +3 00000 0 70707
                    W'R .SW. 4, T'O RQUST                                           182  LM00149
 03246 CAL -0 50000 0 02361    03247 ANA -0 32000 0 02363    03250 ORA -0 50100 0 02377    03251 SLW +0 60200 0 03253
 03252 CLA +0 50000 0 02356    03253 PZE +0 00000 0 00000    03254 PXD -0 75400 0 00000    03255 TZE +0 10000 0 03257
 03256 TRA +0 02000 0 00137
                    W'R .SW. 2, T'O QUIT                                            183  LM00150
 03257 CAL -0 50000 0 02357    03260 ANA -0 32000 0 02363    03261 ORA -0 50100 0 02377    03262 SLW +0 60200 0 03264
 03263 CLA +0 50000 0 02356    03264 PZE +0 00000 0 00000    03265 PXD -0 75400 0 00000    03266 TZE +0 10000 0 03270
 03267 TRA +0 02000 0 00134
                    BSRA2.                                                          184  LM00151
 03270 TSX +0 07400 4 00013
                    T'O CRD1                                                        185  LM00152
 03271 TRA +0 02000 0 00104
                 E'L                                                                186  LM00153
                 W'R FF .E. $     C$                                                187  LM00154
 03272 CLA +0 50000 0 02077    03273 SUB +0 40200 0 02415    03274 TNZ -0 10000 0 03302
                      W'R CT .E. 0, T'O NXTNAM                                      188  LM00155
 03275 CLA +0 50000 0 02065    03276 SUB +0 40200 0 02355    03277 TNZ -0 10000 0 03301    03300 TRA +0 02000 0 00132
                      T'O CARD                                                      189  LM00156
 03301 TRA +0 02000 0 00100
                 E'L                                                                190  LM00157
      WHATI      T'H WHATI, FOR I = 1,1,I .G. CTL .OR. FF .E. CTL(I)                191  LM00158
 03302 CLA +0 50000 0 02356    03303 STO +0 60100 0 02106    03304 TRA +0 02000 0 03310    03305 CLA +0 50000 0 02106
 03306 ADD +0 40000 0 02356    03307 STO +0 60100 0 02106    03310 LXA +0 53400 2 02106    03311 CLA +0 50000 0 02077
 03312 SUB +0 40200 2 02064    03313 TZE +0 10000 0 03321    03314 CLA +0 50000 0 02106    03315 SUB +0 40200 0 02064
 03316 TZE +0 10000 0 03320    03317 TPL +0 12000 0 03321    03320 TRA +0 02000 0 03305
                 W'R I .G. CTL, T'O ER7                                             192  LM00159
 03321 CLA +0 50000 0 02106    03322 SUB +0 40200 0 02064    03323 TZE +0 10000 0 03326    03324 TMI -0 12000 0 03326
 03325 TRA +0 02000 0 00121
                 CT = 0                                                             193  LM00160
 03326 CLA +0 50000 0 02355    03327 STO +0 60100 0 02065
                 PROB = ADJPRB.( SCAN.(ER7),ER7)                                    194  LM00161
 03330 TSX +0 07400 4 00056    03331 TXH +3 00000 0 00121    03332 STO +0 60100 0 03741    03333 TSX +0 07400 4 00002
 03334 TXH +3 00000 0 03741    03335 TXH +3 00000 0 00121    03336 STO +0 60100 0 77455
                 PROG = SCAN.(ER7)                                                  195  LM00162
 03337 TSX +0 07400 4 00056    03340 TXH +3 00000 0 00121    03341 STO +0 60100 0 77454
                 W'R PROG .A. 777777777700K .E. $ 32760$,                           196  LM00163
                1   PROG = (8-(PROG .A. 7K)) .V. $CMFL00$                           196  LM00164
 03342 CAL -0 50000 0 77454    03343 ANA -0 32000 0 02422    03344 SLW +0 60200 0 03741    03345 CLA +0 50000 0 03741
 03346 SUB +0 40200 0 02410    03347 TNZ -0 10000 0 03361    03350 CAL -0 50000 0 77454    03351 ANA -0 32000 0 02363
 03352 SLW +0 60200 0 03741    03353 CLA +0 50000 0 02364    03354 SUB +0 40200 0 03741    03355 STO +0 60100 0 03741
 03356 CAL -0 50000 0 03741    03357 ORA -0 50100 0 02401    03360 SLW +0 60200 0 77454
                 STPCHG.                                                            197  LM00165
 03361 TSX +0 07400 4 00063
                 CHARGE.(PROB,PROG)                                                 198  LM00166
 03362 TSX +0 07400 4 00017    03363 TXH +3 00000 0 77455    03364 TXH +3 00000 0 77454
                 CHARG1.(CTLCHG(I))                                                 199  LM00167
 03365 CLA +0 50000 0 02106    03366 SUB +0 40200 0 03367    03367 TXH +3 00000 0 02020    03370 STA +0 62100 0 03372
 03371 TSX +0 07400 4 00016    03372 TXH +3 00000 0 00000
                 W'R FF .E. $UPDMFD$, T'O CNTRL1                                    200  LM00168
 03373 CLA +0 50000 0 02077    03374 SUB +0 40200 0 02420    03375 TNZ -0 10000 0 03377    03376 TRA +0 02000 0 00102
                 ATTACH.(PROB,PROG,ER10,ERCOD)                                      201  LM00169
 03377 TSX +0 07400 4 00004    03400 TXH +3 00000 0 77455    03401 TXH +3 00000 0 77454    03402 TXH +3 00000 0 00107
 03403 TXH +3 00000 0 77431
                 PROB1 = PROB                                                       202  LM00170
 03404 CLA +0 50000 0 77455    03405 STO +0 60100 0 77427
                 PROG1 = PROG                                                       203  LM00171
 03406 CLA +0 50000 0 77454    03407 STO +0 60100 0 77426
                 W'R FF .E. $ PRINT$ .OR. FF .E. $PRNDEL$,                          204  LM00172
                1   NPRINT.(EJECT...EJECT)                                          204  LM00173
 03410 CLA +0 50000 0 02077    03411 SUB +0 40200 0 02404    03412 TZE +0 10000 0 03416    03413 CLA +0 50000 0 02077
 03414 SUB +0 40200 0 02413    03415 TNZ -0 10000 0 03420    03416 TSX +0 07400 4 00037    03417 TIX +2 02075 0 02075
                 GETTIM.(DATE,TIME)                                                 205  LM00174
 03420 TSX +0 07400 4 00032    03421 TXH +3 00000 0 77425    03422 TXH +3 00000 0 77424
      NXTNAM     FNAM1 = SCAN.(CARD)                                                206  LM00175
 03423 TSX +0 07400 4 00056    03424 TXH +3 00000 0 00100    03425 STO +0 60100 0 77453
                 FNAM2 = SCAN.(ER7)                                                 207  LM00176
 03426 TSX +0 07400 4 00056    03427 TXH +3 00000 0 00121    03430 STO +0 60100 0 77452
      CNTRL1     SUCESS= CTLF(I).                                                   208  LM00179
 03431 LXA +0 53400 1 02106    03432 CLA +0 50000 1 02042    03433 STO +0 60100 0 03741    03434 TSX +0 07400 4 03741
 03435 STO +0 60100 0 02320
                 UPDATE.                                                            209  LM00180
 03436 TSX +0 07400 4 00067
                 STPCH1.                                                            210  LM00181
 03437 TSX +0 07400 4 00062
                 W'R FF .E. $ INPUT$, T'O CARD                                      211  LM00182
 03440 CLA +0 50000 0 02077    03441 SUB +0 40200 0 02412    03442 TNZ -0 10000 0 03444    03443 TRA +0 02000 0 00100
                 T'O NXTNAM                                                         212  LM00183
 03444 TRA +0 02000 0 00132
      QUIT       ERR.(MSGEND...MSGEND(3),ONOFRT,THRU)                               213  LM00185
 03445 TSX +0 07400 4 00027    03446 TIX +2 02225 0 02230    03447 TXH +3 00000 0 02250    03450 TXH +3 00000 0 00145
                    V'S MSGEND = $FINISHED INPUT EDIT.$                             214  LM00186
 02225     -2 33360 6 06060    02226     -2 46360 2 52431    02227     +2 52460 3 14547    02230     +2 63145 3 16230
      THRU       STPCHG.                                                            215  LM00187
 03451 TSX +0 07400 4 00063
                 UPDCHG.                                                            216  LM00188
 03452 TSX +0 07400 4 00070
                 ATTACH.(DSKEDT,FILE,ER11,ERCOD)                                    217  LM00189
 03453 TSX +0 07400 4 00004    03454 TXH +3 00000 0 02074    03455 TXH +3 00000 0 02100    03456 TXH +3 00000 0 00110
 03457 TXH +3 00000 0 77431
                 FNAM2 = FILE                                                       218  LM00190
 03460 CLA +0 50000 0 02100    03461 STO +0 60100 0 77452
                 PROB = $$                                                          219  LM00191
 03462 CLA +0 50000 0 02416    03463 STO +0 60100 0 77455
                 PROG = $$                                                          220  LM00192
 03464 CLA +0 50000 0 02416    03465 STO +0 60100 0 77454
                 PROB1 = $$                                                         221  LM00193
 03466 CLA +0 50000 0 02416    03467 STO +0 60100 0 77427
                 PROG1 = $$                                                         222  LM00194
 03470 CLA +0 50000 0 02416    03471 STO +0 60100 0 77426
                 FSTATE.(CRYMAP,FILE,A(8)...8,CHKCAR)                               223  LM00195
 03472 TSX +0 07400 4 00031    03473 TXH +3 00000 0 01770    03474 TXH +3 00000 0 02100    03475 TIX +2 02364 0 00147
 03476 TXH +3 00000 0 00101
                 W'R A(6) .NE. 1,                                                   224  LM00196
                1CLOSE.(CRYMAP,FILE,ER11,ERCOD)                                     224  LM00197
 03477 CLA +0 50000 0 00151    03500 SUB +0 40200 0 02356    03501 TZE +0 10000 0 03507    03502 TSX +0 07400 4 00022
 03503 TXH +3 00000 0 01770    03504 TXH +3 00000 0 02100    03505 TXH +3 00000 0 00110    03506 TXH +3 00000 0 77431
      THRU1         BPNCHI.(2201K)                                                  225  LM00198
 03507 TSX +0 07400 4 00007    03510 TXH +3 00000 0 02373
                 BPUNCH.(STOPCD...STOPCD(13))                                       226  LM00199
 03511 TSX +0 07400 4 00012    03512 TIX +2 02274 0 02311
                 BPUNCH.(STOPCD(20)...STOPCD(7))                                    227  LM00200
 03513 TSX +0 07400 4 00012    03514 TIX +2 02302 0 02265
                    V'S STOPCD(7) = $$,$$,$$,$$,$$,$$,$$,$$,$$,$$,$$,$$,$$          228  LM00201
 02266     -2 06060 6 06060    02267     -2 06060 6 06060    02270     -2 06060 6 06060    02271     -2 06060 6 06060
 02272     -2 06060 6 06060    02273     -2 06060 6 06060    02274     -2 06060 6 06060    02275     -2 06060 6 06060
 02276     -2 06060 6 06060    02277     -2 06060 6 06060    02300     -2 06060 6 06060    02301     -2 06060 6 06060
 02302     -2 06060 6 06060
                    V'S STOPCD = $STOP  -END OF CARRY TAPE$,$$,$$,$$                229  LM00202
 02303     -2 06060 6 06060    02304     -2 06060 6 06060    02305     -2 06060 6 06060    02306     -3 06063 2 14725
 02307     +2 66023 2 15151    02310     -0 02545 2 46046    02311     -2 26346 4 76060
                    V'S STOPCD(20) = $CLOSE$                                        230  LM00203
 02265     +2 34346 6 22560
                    BINEOF.(2201K)                                                  231  LM00204
 03515 TSX +0 07400 4 00005    03516 TXH +3 00000 0 02373
                    BINEOF.(2201K)                                                  232  LM00205
 03517 TSX +0 07400 4 00005    03520 TXH +3 00000 0 02373
                 RUNCRY.                                                            233  LM00206
 03521 TSX +0 07400 4 00054
                 NPRINT.(EJECT...EJECT)                                             234  LM00207
 03522 TSX +0 07400 4 00037    03523 TIX +2 02075 0 02075
                 NPRINT.(CRYMSG...CRYMSG(5))                                        235  LM00208
 03524 TSX +0 07400 4 00037    03525 TIX +2 01771 0 01776
                    V'S CRYMSG = $ **TABLE OF CONTENTS OF CARRY TAPE.$              236  LM00209
 01771     -2 32147 2 53360    01772     +2 32151 5 17060    01773     -2 36260 4 62660    01774     +2 34645 6 32545
 01775     -0 32560 4 62660    01776     -2 05454 6 32122
                 FNAM1 = CRYMAP                                                     237  LM00210
 03526 CLA +0 50000 0 01770    03527 STO +0 60100 0 77453
                 PRNT.                                                              238  LM00211
 03530 TSX +0 07400 4 00047
                 DELFIL.(CRYMAP,FILE,THRU2)                                         239  LM00212
 03531 TSX +0 07400 4 00023    03532 TXH +3 00000 0 01770    03533 TXH +3 00000 0 02100    03534 TXH +3 00000 0 00142
      THRU2      NPRINT.(EJECT...EJECT)                                             240  LM00213
 03535 TSX +0 07400 4 00037    03536 TIX +2 02075 0 02075
                 NPRINT.(REQUES...REQUES(3))                                        241  LM00214
 03537 TSX +0 07400 4 00037    03540 TIX +2 02255 0 02260
                    V'S REQUES = $ **REQUESTS PROCESSED$                            242  LM00215
 02255     -2 22524 6 06060    02256     -0 75146 2 32562    02257     -2 42562 6 36260    02260     -2 05454 5 12550
                 FNAM1 = STAT                                                       243  LM00216
 03541 CLA +0 50000 0 02264    03542 STO +0 60100 0 77453
                 CLOSE.(STAT,FILE,THRU4)                                            244  LM00217
 03543 TSX +0 07400 4 00022    03544 TXH +3 00000 0 02264    03545 TXH +3 00000 0 02100    03546 TXH +3 00000 0 00144
      THRU4      PRNT.                                                              245  LM00218
 03547 TSX +0 07400 4 00047
                 DELFIL.(STAT,FILE,THRU3)                                           246  LM00219
 03550 TSX +0 07400 4 00023    03551 TXH +3 00000 0 02264    03552 TXH +3 00000 0 02100    03553 TXH +3 00000 0 00143
      THRU3      PRNEOF.                                                            247  LM00220
 03554 TSX +0 07400 4 00046
                 CLOSE.($M.F.D.$,$(FILE)$,NX1)                                      248  LM00221
 03555 TSX +0 07400 4 00022    03556 TXH +3 00000 0 02402    03557 TXH +3 00000 0 02421    03560 TXH +3 00000 0 00131
      NX1        W'R B4SWT .NE. 0                                                   249  LM00222
 03561 CLA +0 50000 0 77461    03562 SUB +0 40200 0 02355    03563 TZE +0 10000 0 03574
                    PNCEOF.                                                         250  LM00223
 03564 TSX +0 07400 4 00042
                    BPNCHI.(2202K)                                                  251  LM00224
 03565 TSX +0 07400 4 00007    03566 TXH +3 00000 0 02374
                    BINEOF.(2202K)                                                  252  LM00225
 03567 TSX +0 07400 4 00005    03570 TXH +3 00000 0 02374
                    BINEOF.(2202K)                                                  253  LM00226
 03571 TSX +0 07400 4 00005    03572 TXH +3 00000 0 02374
                    RUNCRY.                                                         254  LM00227
 03573 TSX +0 07400 4 00054
                 E'L                                                                255  LM00228
                 W'R .SW. 3                                                         256  LM00229
 03574 CAL -0 50000 0 02360    03575 ANA -0 32000 0 02363    03576 ORA -0 50100 0 02377    03577 SLW +0 60200 0 03601
 03600 CLA +0 50000 0 02356    03601 PZE +0 00000 0 00000    03602 PXD -0 75400 0 00000    03603 TZE +0 10000 0 03610
                    ONLINE.(RES3...RES3(1))                                         257  LM00230
 03604 TSX +0 07400 4 00040    03605 TIX +2 02261 0 02262
                       V'S RES3 = $RESET SWT 3.$                                    258  LM00231
 02261     -2 26663 6 00333    02262     -1 12562 2 56360
                    PAUSE NO. 10                                                    259  LM00232
 03606 TSX +0 07400 4 00000    03607 TXH +3 00000 0 00010
                 E'L                                                                260  LM00233
                 CARSWT = 0                                                         261  LM00234
 03610 CLA +0 50000 0 02355    03611 STO +0 60100 0 77457
                 EXIT.                                                              262  LM00238
 03612 TSX +0 07400 4 00030
      CHKCAR     W'R CARSWT .E. 77777K, T'O THRU1                                   263  LM00240
 03613 CLA +0 50000 0 77457    03614 SUB +0 40200 0 02376    03615 TNZ -0 10000 0 03617    03616 TRA +0 02000 0 00141
                 T'O THRU2                                                          264  LM00241
 03617 TRA +0 02000 0 00142
      RQUST      ONLINE.(TTAP...TTAP(6))                                            265  LM00242
 03620 TSX +0 07400 4 00040    03621 TIX +2 02346 0 02354
                 V'S TTAP = $AM STARTING REQUEST FILES. RESET SWT 4.$               266  LM00243
 02346     -2 00433 6 06060    02347     +2 56360 6 26663    02350     -2 23360 5 12562    02351     -2 36026 3 14325
 02352     -1 12550 6 42562    02353     -1 16331 4 52760    02354     +2 14460 6 26321
                 BSRA2.                                                             267  LM00244
 03622 TSX +0 07400 4 00013
                 PAUSE NO. 3                                                        268  LM00245
 03623 TSX +0 07400 4 00000    03624 TXH +3 00000 0 00003
                 T'O RQST                                                           269  LM00246
 03625 TRA +0 02000 0 00136
      ER1        MSG1(4) = PROB                                                     270  LM00250
 03626 CLA +0 50000 0 77455    03627 STO +0 60100 0 02162
                 MSG1(5) = PROG                                                     271  LM00251
 03630 CLA +0 50000 0 77454    03631 STO +0 60100 0 02161
                 ERR.(MSG1...MSG1(5),ONOFRT,EOF)                                    272  LM00252
 03632 TSX +0 07400 4 00027    03633 TIX +2 02161 0 02166    03634 TXH +3 00000 0 02250    03635 TXH +3 00000 0 00106
                    V'S MSG1 = $CAN'T PROCESS RQUEST FILES$                         273  LM00253
 02162     +2 56260 6 06060    02163     -2 26360 2 63143    02164     -2 26051 5 06425    02165     -0 75146 2 32562
 02166     +2 32145 1 46360
      ER3        MSG3(5) = PROB                                                     274  LM00254
 03636 CLA +0 50000 0 77455    03637 STO +0 60100 0 02166
                 MSG3(6) = PROG                                                     275  LM00255
 03640 CLA +0 50000 0 77454    03641 STO +0 60100 0 02165
                 ERR.(MSG3...MSG3(6),ONOFRT,EOF)                                    276  LM00256
 03642 TSX +0 07400 4 00027    03643 TIX +2 02165 0 02173    03644 TXH +3 00000 0 02250    03645 TXH +3 00000 0 00106
                    V'S MSG3 = $ERR IN READING RQUEST FILES$                        277  LM00257
 02167     -0 32562 6 06060    02170     +2 56263 6 02631    02171     -0 52760 5 15064    02172     -2 05125 2 12431
 02173     +2 55151 6 03145
      ER4        ERR.(MSG4...MSG4(3),ONOFRT,READ)                                   278  LM00258
 03646 TSX +0 07400 4 00027    03647 TIX +2 02174 0 02177    03650 TXH +3 00000 0 02250    03651 TXH +3 00000 0 00135
                    V'S MSG4 = $ILLEGAL RQUEST FORMAT$                              279  LM00259
 02174     -0 42163 6 06060    02175     -2 26360 2 64651    02176     -0 36051 5 06425    02177     +3 14343 2 52721
      ER5        ERR.(MSG5...MSG5(4), ONOFRT,READ)                                  280  LM00260
 03652 TSX +0 07400 4 00027    03653 TIX +2 02200 0 02204    03654 TXH +3 00000 0 02250    03655 TXH +3 00000 0 00135
                    V'S MSG5 = $NOT LEGAL FROM RQUEST FILES$                        281  LM00261
 02200     -0 32562 6 06060    02201     +2 56263 6 02631    02202     -0 64460 5 15064    02203     +2 72143 6 02651
 02204     -0 54663 6 04325
      ER6        ERR.(MSG6...MSG6(3),ONOFRT,READ)                                   282  LM00262
 03656 TSX +0 07400 4 00027    03657 TIX +2 02205 0 02210    03660 TXH +3 00000 0 02250    03661 TXH +3 00000 0 00135
                    V'S MSG6 = $ILLEGAL CONTROL WORD$                               283  LM00263
 02205     -1 12460 6 06060    02206     -1 14643 6 06646    02207     -0 36023 4 64563    02210     +3 14343 2 52721
      ER7        CT = 7777K                                                         284  LM00264
 03662 CLA +0 50000 0 02375    03663 STO +0 60100 0 02065
                 ERR.(MSG7...MSG7(3),ONOFRT,ERRTST)                                 285  LM00265
 03664 TSX +0 07400 4 00027    03665 TIX +2 02211 0 02214    03666 TXH +3 00000 0 02250    03667 TXH +3 00000 0 00124
                    V'S MSG7 = $ILLEGAL CARD FORMAT$                                286  LM00266
 02211     -2 36060 6 06060    02212     -2 02646 5 14421    02213     -0 36023 2 15124    02214     +3 14343 2 52721
      ER8        ERR.(MSG8...MSG8(3),ONOFRT,CARDON)                                 287  LM00267
 03670 TSX +0 07400 4 00027    03671 TIX +2 02215 0 02220    03672 TXH +3 00000 0 02250    03673 TXH +3 00000 0 00077
                    V'S MSG8 = $UNRECOVERED ERR ON A2$                              288  LM00268
 02215     -2 02102 6 06060    02216     +2 55151 6 04645    02217     -2 52551 2 52460    02220     -2 44551 2 52346
      ER9        ERR.(MSG9...MSG9(3),ONOFRT,SCMFD)                                  289  LM00269
 03674 TSX +0 07400 4 00027    03675 TIX +2 02221 0 02224    03676 TXH +3 00000 0 02250    03677 TXH +3 00000 0 00140
                    V'S MSG9 = $CAN'T DELETE RQUEST FILE$                           290  LM00270
 02221     -2 36026 3 14325    02222     -2 05150 6 42562    02223     +2 42543 2 56325    02224     +2 32145 1 46360
      ER10       ERR.(MSG10...MSG10(2), ONOFRT,ERRTST)                              291  LM00271
 03700 TSX +0 07400 4 00027    03701 TIX +2 02132 0 02134    03702 TXH +3 00000 0 02250    03703 TXH +3 00000 0 00124
                    V'S MSG10 = $USER NOT IN MFD$                                   292  LM00272
 02132     -0 42624 6 06060    02133     -0 66360 3 14560    02134     -2 46225 5 16045
      ER11       ERR.(MSG11...MSG11(5),ONOFRT,THRU1)                                293  LM00273
 03704 TSX +0 07400 4 00027    03705 TIX +2 02135 0 02142    03706 TXH +3 00000 0 02250    03707 TXH +3 00000 0 00141
                    V'S MSG11 = $CARRY TABLE OF CONTENTS TROUBLE$                   294  LM00274
 02135     +2 56060 6 06060    02136     -2 35146 6 42243    02137     -2 32545 6 36260    02140     -0 62660 2 34645
 02141     -2 32122 4 32560    02142     +2 32151 5 17060
      ER12       ERR.(MSG12...MSG12(3),ONOFRT,SCMFD)                                295  LM00275
 03710 TSX +0 07400 4 00027    03711 TIX +2 02143 0 02146    03712 TXH +3 00000 0 02250    03713 TXH +3 00000 0 00140
                    V'S MSG12 = $CAN'T CLOSE RQUEST FILE$                           296  LM00276
 02143     -2 02631 4 32560    02144     -1 15064 2 56263    02145     +2 34346 6 22560    02146     +2 32145 1 46360
      ER13       ONLINE.(MSG13...MSG13(7))                                          297  LM00277
 03714 TSX +0 07400 4 00040    03715 TIX +2 02147 0 02156
                    V'S MSG13 = $CAN'T OPEN STATISTICS FILE. RERUN OR SALVAG.$      298  LM00278
 02147     +2 73360 6 06060    02150     -2 06221 4 36521    02151     -1 16445 6 04651    02152     -0 32533 6 05125
 02153     +3 12362 6 02631    02154     -2 32163 3 16263    02155     -0 64725 4 56062    02156     +2 32145 1 46360
                 CLOSE.(STAT,FILE,THRU3)                                            299  LM00279
 03716 TSX +0 07400 4 00022    03717 TXH +3 00000 0 02264    03720 TXH +3 00000 0 02100    03721 TXH +3 00000 0 00143
                 T'O ALRDY1                                                         300  LM00280
 03722 TRA +0 02000 0 00074
      ER14       ERR.(MSG14...MSG14(2),ONOFRT,SCMFD)                                301  LM00281
 03723 TSX +0 07400 4 00027    03724 TIX +2 02157 0 02161    03725 TXH +3 00000 0 02250    03726 TXH +3 00000 0 00140
                    V'S MSG14 = $NO DAEMON REQUESTS$                                302  LM00282
 02157     -1 06425 6 26362    02160     -0 44645 6 05125    02161     -0 54660 2 42125
      ERRTST     W'R FF .NE. $ INPUT$, T'O CARD                                     303  LM00283
 03727 CLA +0 50000 0 02077    03730 SUB +0 40200 0 02412    03731 TZE +0 10000 0 03733    03732 TRA +0 02000 0 00100
      ERRTT      TAPE.(C(14)...C(13),ERRTT,CARD)                                    304  LM00284
 03733 TSX +0 07400 4 00065    03734 TIX +2 77433 0 77432    03735 TXH +3 00000 0 00125    03736 TXH +3 00000 0 00100
                 T'O ERRTT                                                          305  LM00285
 03737 TRA +0 02000 0 00125
                 D'N A(9), BUFFR(470),BUFT(432)                                     306  LM00289
                 V'S ERCOD = 0                                                      307  LM00290
 77431     +0 00000 0 00000
                 V'S DAEPRB = $ C0056$                                              308  LM00291
 02066     -2 02300 0 00506
                 V'S DAEPRG = $ 99999$                                              309  LM00292
 02067     -2 01111 1 11111
                 V'S B4SWT = 0                                                      310  LM00293
 77461     +0 00000 0 00000
                 V'S PRNSWT = 0                                                     311  LM00294
 77456     +0 00000 0 00000
                 V'S STAT = $STATIS$                                                312  LM00295
 02264     -2 26321 6 33162
                 V'S FF = 0                                                         313  LM00296
 02077     +0 00000 0 00000
                 V'S T = 0                                                          314  LM00297
 02345     +0 00000 0 00000
                 V'S EJECT = $1$                                                    315  LM00298
 02075     +0 16060 6 06060
                 V'S OUT = $OUTPUT$                                                 316  LM00299
 02254     -0 66463 4 76463
                 V'S RQU = $RQUEST$                                                 317  LM00300
 02263     -1 15064 2 56263
                 V'S CTL = 17,$ PRINT$,$DPUNCH$,$BPUNCH$, $DELETE$, $7PUNCH$,       318  LM00301
                1 $SSPRNT$,$SSPRDL$,                                                318  LM00302
                1 $ INPUT$, $UPDMFD$, $PRNDEL$, $DPUDEL$, $BPUDEL$, $7PUDEL$        318  LM00303
                1 ,$ CARRY$, $  LINK$, $CHFILE$,$UNLINK$                            318  LM00304
 02043     -2 44543 3 14542    02044     +2 33026 3 14325    02045     -2 06043 3 14542    02046     -2 02321 5 15170
 02047     +0 74764 2 42543    02050     +2 24764 2 42543    02051     +2 44764 2 42543    02052     -0 75145 2 42543
 02053     -2 44724 4 42624    02054     -2 03145 4 76463    02055     -2 26247 5 12443    02056     -2 26247 5 14563
 02057     +0 74764 4 52330    02060     +2 42543 2 56325    02061     +2 24764 4 52330    02062     +2 44764 4 52330
 02063     -2 04751 3 14563    02064     +0 00000 0 00021
                 V'S CTLF(1) = PRNT., DPNCH., BPNCH., DLETE., PNCH7.,               319  LM00305
                1 SSPRNT.,SSPRDL.,                                                  319  LM00306
                1 INPUT., ADDMFD., PRNDL., DPUDL., BPUDL., PU7DL.                   319  LM00307
                1 ,CARRY., LNK., CHNGE., NLINK.                                     319  LM00308
 02021 TXL -3 00000 0 00036    02022 TXL -3 00000 0 00021    02023 TXL -3 00000 0 00035    02024 TXL -3 00000 0 00015
 02025 TXL -3 00000 0 00050    02026 TXL -3 00000 0 00011    02027 TXL -3 00000 0 00026    02030 TXL -3 00000 0 00045
 02031 TXL -3 00000 0 00001    02032 TXL -3 00000 0 00033    02033 TXL -3 00000 0 00060    02034 TXL -3 00000 0 00061
 02035 TXL -3 00000 0 00043    02036 TXL -3 00000 0 00024    02037 TXL -3 00000 0 00010    02040 TXL -3 00000 0 00025
 02041 TXL -3 00000 0 00047
                 V'S CTLCHG(1) = 2,4,5,0,3,2,2,1,0,2,4,5,3,6,0,0,0                  320  LM00309
 01777     +0 00000 0 00000    02000     +0 00000 0 00000    02001     +0 00000 0 00000    02002     +0 00000 0 00006
 02003     +0 00000 0 00003    02004     +0 00000 0 00005    02005     +0 00000 0 00004    02006     +0 00000 0 00002
 02007     +0 00000 0 00000    02010     +0 00000 0 00001    02011     +0 00000 0 00002    02012     +0 00000 0 00002
 02013     +0 00000 0 00003    02014     +0 00000 0 00000    02015     +0 00000 0 00005    02016     +0 00000 0 00004
 02017     +0 00000 0 00002
                 E'M                                                                321  LM00310
 03740 TSX +0 07400 4 00030


 INPUT   BCD 05/15/71 1242.6   12684         00000
1     MAD PROGRAM LISTING ... ... ...                 FILE   INPUT   MAD            05/15/71    1238.3
-
                 ...INPUT FUNCTION ROUTINE TO LOAD A DISK FILE FROM INPUT TAPE                         LM00001
                 ...FILE MAY BE DECIMAL, BINARY, OR MIXED.                                             LM00002
                                                                                                       LM00003
                  EXTERNAL FUNCTION                                                               *001 LM00004
                  ENTRY TO INPUT.                                                                 *002 LM00005
                  INSERT FILE .SW.                                                                *003 LM00006
                  DEFINE UNARY OPERATOR .SW., PRECEDENCE SAME AS .ABS.                            *004 LM00001
                  MODE STRUCTURE .SW. 1 TO 2                                                      *005 LM00002
             JMP  *+1,AC,*+2                                                                      *006 LM00003
             STO  T                                                                               *007 LM00004
             JMP  *+1,MQ,*+2                                                                      *008 LM00005
             STQ  T                                                                               *009 LM00006
             JMP  *+1,LA,*+2                                                                      *010 LM00007
             SLW  T                                                                               *011 LM00008
             CAL  B                                                                               *012 LM00009
             ANA  =7                                                                              *013 LM00010
             ORA  =76000000160K                                                                   *014 LM00011
             SLW  LOC+2                                                                           *015 LM00012
             CLA  C1                                                                              *016 LM00013
             PZE                                                                                  *017 LM00014
             PXD                                                                                  *018 LM00015
             OUT  AC                                                                              *019 LM00016
             END                                                                                  *020 LM00017
                                                                                                       LM00018
                                                                                                       LM00019
                  DEFINE BINARY OPERATOR .ACL., PRECEDENCE SAME AS +                              *021 LM00020
                  MODE STRUCTURE 1 .ACL. 1 TO 1                                                   *022 LM00021
             JMP  *+7,AC,*+1                                                                      *023 LM00022
             JMP  *+1,MQ,*+3                                                                      *024 LM00023
             JMP  *+9,AT,*+1                                                                      *025 LM00024
             JMP  *+10,BT,*+13                                                                    *026 LM00025
             JMP  *+1,LA,*+4                                                                      *027 LM00026
             JMP  *+4,AT,*+1                                                                      *028 LM00027
             JMP  *+8,BT,*+12                                                                     *029 LM00028
             STO  T                                                                               *030 LM00029
             CAL  A                                                                               *031 LM00030
             ACL  B                                                                               *032 LM00031
             OUT  LAC                                                                             *033 LM00032
             XCL                                                                                  *034 LM00033
             JMP  *-3                                                                             *035 LM00034
             XCL                                                                                  *036 LM00035
             ACL  A                                                                               *037 LM00036
             OUT  LAC                                                                             *038 LM00037
             STQ  T                                                                               *039 LM00038
             JMP  *-9                                                                             *040 LM00039
             SLW  T                                                                               *041 LM00040
             JMP  *-11                                                                            *042 LM00041
             END                                                                                  *043 LM00042
                                                                                                       LM00043
                                                                                                       LM00044
                  INSERT FILE COMDSK                                                              *044 LM00007
                 ...COMMON PACKAGE FOR DISK EDITOR -DSKEDT                                        *044 LM00001
                  PROGRAM COMMON B4SWT,PRIVIL,CARSWT,PRNSWT                                       *045 LM00002
                  PROGRAM COMMON PROB,PROG,FNAM1,FNAM2,MODE,C,ERCOD,DUM                           *046 LM00003
                  PROGRAM COMMON PROB1, PROG1, DATE,TIME,BUF                                      *047 LM00004
                  FUNCTION NAME CTLF,EXIT                                                         *048 LM00005
                  DIMENSION C(14),BUF(864)                                                        *049 LM00006
                  VECTOR VALUES ONOFRT = 7                                                        *050 LM00007
                  VECTOR VALUES ONRT = 5                                                          *051 LM00008
                  VECTOR VALUES OFRT = 3                                                          *052 LM00009
                  VECTOR VALUES ONOF = 6                                                          *053 LM00010
                  VECTOR VALUES ON = 4                                                            *054 LM00011
                  VECTOR VALUES OF = 2                                                            *055 LM00012
                  VECTOR VALUES EOFCT = 0                                                         *056 LM00013
                  VECTOR VALUES MZE = -0                                                          *057 LM00014
                  VECTOR VALUES DSKEDT = $DSKEDT$                                                 *058 LM00015
                  VECTOR VALUES FILE = $.FILE.$                                                   *059 LM00016
                  VECTOR VALUES CRYMAP = $CRYMAP$                                                 *060 LM00017
                  NORMAL MODE IS INTEGER                                                          *061 LM00018
                                                                                                       LM00008
                  SEQ = 0                                                                         *062 LM00009
                  MODE = 0                                                                        *063 LM00010
                  FSTATE.(FNAM1,FNAM2,T(8)...8, TRBL, ERCOD)                                      *064 LM00011
                  MAY NOT INPUT FILE OF SAME NAME UNLESS PRIVILEGED                                    LM00012
                  WHENEVER PRIVIL .E. 0                                                           *065 LM00013
                     WHENEVER T(7) .A. 120K .NE. 0, TRANSFER TO ER23                              *066 LM00014
                     WHENEVER (T(7).RS.35) .NE. 0, TRANSFER TO ER23                               *067 LM00015
                  END OF CONDITIONAL                                                              *068 LM00016
                  MODE = T(7)                                                                     *069 LM00017
      WHTMD       THROUGH NAMFND, FOR J = 1,1, J .E. 10                                           *070 LM00018
                  FSTATE.(TEMPF1,TEMPF2,T(8)...8,OPN1)                                            *071 LM00019
      NAMFND      TEMPF2 = TEMPF2(J)                                                              *072 LM00020
                  TRANSFER TO ER20                                                                *073 LM00021
      OPN1        MODE = SCAN.(OPN)                                                               *074 LM00022
                  MODE = SOCTBN.(MODE)                                                            *075 LM00023
                  WHENEVER MODE .E. 1, MODE = 0                                                   *076 LM00024
      OPN         OPEN.($W$,TEMPF1,TEMPF2,1,MZE,ER20,ERCOD)                                       *077 LM00025
                  BUFFER.(TEMPF1,TEMPF2,BUF(432)...432,ER20,ERCOD)                                *078 LM00026
                  PASSIS = 1B                                                                     *079 LM00027
                  J = 432                                                                         *080 LM00028
                  CNT = 0                                                                         *081 LM00029
      INP1        T = TAPE.(T(28)...T(1),RTT,EOF)                                                 *082 LM00030
                  WHENEVER PASSIS                                                                 *083 LM00031
                  IGNORE FLIP CARDS                                                                    LM00032
                  WHENEVER T(28) .A. 77777K6 .E. 5K8,                                             *084 LM00033
                1    TRANSFER TO INP1                                                             *084 LM00034
                       PASSIS = 0B                                                                *085 LM00035
                     WHENEVER T(28) .A. 7007K8 .E. 7005K8, TRANSFER TO INP7A                      *086 LM00036
                  END OF CONDITIONAL                                                              *087 LM00037
                  I = 1                                                                           *088 LM00038
      LPP         THROUGH LLP, FOR CNT = CNT,1,CNT .GE. 432 .OR. I .G. T                          *089 LM00039
                  S(J-CNT) = T(29-I)                                                              *090 LM00040
      LLP         I = I+1                                                                         *091 LM00041
                  WHENEVER CNT .GE. 432                                                           *092 LM00042
                     WRFILE.(TEMPF1,TEMPF2,0,S(J)...432,MZE,MZE,ER21,ERCOD)                       *093 LM00043
                     WHENEVER J .G. 433                                                           *094 LM00044
                        J = 432                                                                   *095 LM00045
                     OTHERWISE                                                                    *096 LM00046
                        J = 900                                                                   *097 LM00047
                     END OF CONDITIONAL                                                           *098 LM00048
                     CNT = 0                                                                      *099 LM00049
                     TRANSFER TO LPP                                                              *100 LM00050
                  END OF CONDITIONAL                                                              *101 LM00051
                  TRANSFER TO INP1                                                                *102 LM00052
      RTT         ERR.(RTTMSG...RTTMSG(5),ONOFRT,ENDI)                                            *103 LM00053
                     VECTOR VALUES RTTMSG = $REDUNDANCY ON TAPE. FILE NOT INPUT.$                 *104 LM00054
                                                                                                       LM00055
      EOF         WHENEVER CNT .NE. 0,                                                            *105 LM00056
                1    WRFILE.(TEMPF1,TEMPF2,0,S(J)...CNT,MZE,MZE,ER21,ERCOD)                       *105 LM00057
                  CLOSE.(TEMPF1,TEMPF2,ER24,ERCOD)                                                *106 LM00058
                  CHFILE.(FNAM1,FNAM2,1,MZE,MZE,CHF)                                              *107 LM00059
                  DELFIL.(FNAM1,FNAM2,CHF)                                                        *108 LM00060
      CHF         CHFILE.(TEMPF1,TEMPF2,MODE,FNAM1,FNAM2,ER22,ERCOD)                              *109 LM00061
                  FSTATE.(FNAM1,FNAM2,T(8)...8,ER26,ERCOD)                                        *110 LM00062
                  PG = DECCNV.(PROG) .A. 777777K                                                  *111 LM00063
                  WHENEVER PG .E. 0,PG = DECCNV.(SCAN.(ZER)).A.777777K                            *112 LM00064
      ZER         T(1) = (T(1) .A. 777777K6) .V. PG                                               *113 LM00065
                  SETFIL.(FNAM1,FNAM2,T(2),T(1),MODE,2,FLINK)                                     *114 LM00066
                  DELFIL.(TEMPF1,TEMPF2,FLINK)                                                    *115 LM00067
      FLINK       TEMPF2 = TEMPF3                                                                 *116 LM00068
                  FUNCTION RETURN 1                                                               *117 LM00069
                                                                                                       LM00070
      ENDI        TAPE.(T(28)...T(1),ENDI,EOF1)                                                   *118 LM00071
                  TRANSFER TO ENDI                                                                *119 LM00072
      EOF1        CLOSE.(TEMPF1,TEMPF2,FAILED,ERCOD)                                              *120 LM00073
                  DELFIL.(TEMPF1,TEMPF2,FAILED,ERCOD)                                             *121 LM00074
      FAILED      FUNCTION RETURN 0                                                               *122 LM00075
                                                                                                       LM00076
      INP7        T = TAPE.(T(28)...T(1),RTT,EOF99)                                               *123 LM00077
      INP7A       WHENEVER T(28) .A. 7007K8 .NE. 7005K8,                                          *124 LM00078
                1  ERR.(ILGMSG...ILGMSG(6),ONOFRT,ENDI)                                           *124 LM00079
                     VECTOR VALUES ILGMSG = $ILLEGAL CARD IN DECK. FILE NOT INPUT.$               *125 LM00080
                  TPRIME = (T(28) .A. 77K6) .RS. 18                                               *126 LM00081
                  WC = (T(28) .A. 77K9) .RS. 21                                                   *127 LM00082
                  TPRIME = TPRIME .V. WC                                                          *128 LM00083
                  WHENEVER TPRIME .E. 0, TRANSFER TO INP7                                         *129 LM00084
                  WC = T(28) .A. 77777K                                                           *130 LM00085
                  WHENEVER WC .NE. SEQ, TRANSFER TO ER25                                          *131 LM00086
                  SEQ = SEQ +1                                                                    *132 LM00087
                  TAG = T(28) .A. 7K5                                                             *133 LM00088
      INPCON      WHENEVER TPRIME .LE. 22                                                         *134 LM00089
                       WC = TPRIME                                                                *135 LM00090
                  OTHERWISE                                                                       *136 LM00091
                       WC = 1                                                                     *137 LM00092
                  END OF CONDITIONAL                                                              *138 LM00093
                  CKSUM = T(28)                                                                   *139 LM00094
                  THROUGH INP7L, FOR I = 1,1,I .G. WC                                             *140 LM00095
      INP7L       CKSUM = CKSUM .ACL. T(27-I)                                                     *141 LM00096
                  WHENEVER CKSUM .NE. T(27)                                                       *142 LM00097
                       CSMSG(4) = SPRDOC.(T(28) .RS. 18)                                          *143 LM00098
                       CSMSG(5) = SPRDOC.(T(28) .A. 77777K)                                       *144 LM00099
                       ERR.(CSMSG...CSMSG(8),ONOFRT,CKTEST)                                       *145 LM00100
      CKTEST           WHENEVER T(27) .NE. 0, TRANSFER TO ENDI                                    *146 LM00101
                  END OF CONDITIONAL                                                              *147 LM00102
                     VECTOR VALUES CSMSG = $CHECK SUM ERROR ON CARD$,$$,$$,                       *148 LM00103
                1  $ FILE NOT INPUT.$                                                             *148 LM00104
                     I = 1                                                                        *149 LM00105
      LPP2           THROUGH LLP2, FOR CNT = CNT,1,CNT .GE. 432 .OR.  I .G. TPRIME                *150 LM00106
                  WHENEVER WC .E. 1                                                               *151 LM00107
                        S(J-CNT) = T(26)                                                          *152 LM00108
                     OTHERWISE                                                                    *153 LM00109
                        S(J-CNT) = T(27-I)                                                        *154 LM00110
                     END OF CONDITIONAL                                                           *155 LM00111
      LLP2           I = I+1                                                                      *156 LM00112
                     WHENEVER CNT .GE. 432                                                        *157 LM00113
                        WRFILE.(TEMPF1,TEMPF2,0,S(J)...432,MZE,MZE,ER21,ERCOD)                    *158 LM00114
                        WHENEVER J .G. 433                                                        *159 LM00115
                           J = 432                                                                *160 LM00116
                        OTHERWISE                                                                 *161 LM00117
                           J = 900                                                                *162 LM00118
                        END OF CONDITIONAL                                                        *163 LM00119
                        CNT = 0                                                                   *164 LM00120
                        TRANSFER TO LPP2                                                          *165 LM00121
                     END OF CONDITIONAL                                                           *166 LM00122
                     TRANSFER TO INP7                                                             *167 LM00123
      TRBL        WHENEVER ERCOD .G. 3, TRANSFER TO ER23                                          *168 LM00124
                  ERCOD = 0                                                                       *169 LM00125
                  TRANSFER TO WHTMD                                                               *170 LM00126
                                                                                                       LM00127
                 ...ERROR RETURNS                                                                      LM00128
                                                                                                       LM00129
      ER20        ERR.(MSG20...MSG20(5),ONOFRT,ENDI)                                              *171 LM00130
                     VECTOR VALUES MSG20 = $CAN'T OPEN FILE TO RECEIVE INPUT$                     *172 LM00131
      ER21        ERR.(MSG21...MSG21(5),ONOFRT,ENDI)                                              *173 LM00132
                     VECTOR VALUES MSG21 = $ERROR WRITING  FILE FOR INPUT$                        *174 LM00133
      ER22        MSG22(7) = TEMPF2                                                               *175 LM00134
                  ERR.(MSG22...MSG22(7),ONOFRT,FLD1)                                              *176 LM00135
      FLD1        CHFILE.(TEMPF1,TEMPF2,0,MZE,MZE,FLINK)                                          *177 LM00136
                  TRANSFER TO FLINK                                                               *178 LM00137
                     VECTOR VALUES MSG22 = $CAN'T DELETE OLD FILE.  NEW FILE IS .TEMP.$           *179 LM00138
                     VECTOR VALUES MSG22(7) = $.FILE.$                                            *180 LM00139
      ER23        ERR.(MSG23...MSG23(5),ONOFRT,ENDI)                                              *181 LM00140
                     VECTOR VALUES MSG23 = $FILE ALREADY EXISTS. FILE NOT INPUT.$                 *182 LM00141
      ER24        ERR.(MSG24...MSG24(2),ONOFRT,FAILED)                                            *183 LM00142
                     VECTOR VALUES MSG24 = $CAN'T CLOSE FILE.$                                    *184 LM00143
      ER25        MSG25(4) = SPRDOC.(SEQ)                                                         *185 LM00144
                  ERR.(MSG25...MSG25(4),OFRT,INPCON)                                              *186 LM00145
                     VECTOR VALUES MSG25 = $FAULTY SEQUENCE NUMBER        $                       *187 LM00146
      ER26        ERR.(MSG26...MSG26(3),ONOFRT,FLINK)                                             *188 LM00147
                     VECTOR VALUES MSG26 = $INPUT FILE WAS LOST.$                                 *189 LM00148
      EOF99       WHENEVER TAG .NE. 0, TRANSFER TO EOF                                            *190 LM00149
                     ERR.(BADEND...BADEND(1),ONOFRT,EOF)                                          *191 LM00150
                        VECTOR VALUES BADEND = $NO LAST CARD$                                     *192 LM00151
                                                                                                       LM00152
                 .. PROGRAM PARAMETERS                                                                 LM00153
                                                                                                       LM00154
                  VECTOR VALUES TEMPF1 = $.TEMP.$                                                 *193 LM00155
                  VECTOR VALUES TEMPF2 = $.FILE..FIL1..FIL2..FIL3..FIL4..FIL5.$                   *194 LM00156
                  VECTOR VALUES TEMPF2(6) = $.FIL6..FIL7..FIL8..FIL9..FILZ.$                      *195 LM00157
                  VECTOR VALUES TEMPF3 = $.FILE.$                                                 *196 LM00158
                  VECTOR VALUES PASSIS = 1B                                                       *197 LM00159
                  VECTOR VALUES PG = 0                                                            *198 LM00160
                  NORMAL MODE IS INTEGER                                                          *199 LM00161
                  BOOLEAN PASSIS                                                                  *200 LM00162
                  DIMENSION T(56), S(1000)                                                        *201 LM00163
                  END OF FUNCTION                                                                 *202 LM00164
                                         MODE STRUCTURE .SW. 1 TO 2           005  LM00002
 (THE NUMERIC FORM OF THE OPERATOR-MODE ARGUMENT IS    11101 )
                                         MODE STRUCTURE 1 .ACL. 1 TO 1        022  LM00021
 (THE NUMERIC FORM OF THE OPERATOR-MODE ARGUMENT IS    11211 )
1MAD PROGRAM,TYPE NOV 1963      (ALL NUMBERS ARE OCTAL)
0TOTAL LOCATIONS   03313 TRANSFER VECTOR LENGTH  00017 PROGRAM BEGINS    02313 FIRST UNUSED COMMON/ERASABLE  75662
0 PROGRAM IS AN EXTERNAL FUNCTION.   THE FOLLOWING ARE ENTRIES
      INPUT  02314   0
0VARIABLE STORAGE (A=ARRAY,C=COMMON,E=ERASABLE,DIGIT=MODE)
      B4SWT  77461  C1        EOF    00025   4        INP7A  00041   4        MSG26  00152 A 1        PROG1  77426  C1
      BADEND 00055 A 1        ER20   00026   4        INP7L  00017   4        MZE    00153 A 1        PROG   77454  C1
      BUF    77423 AC1        ER21   00027   4        INP7   00042   4        NAMFND 00017   4        RTTMSG 00171 A 1
      CARSWT 77457  C1        ER22   00030   4        INPCON 00043   4        OFRT   00154 A 1        RTT    00050   4
      CHF    00020   4        ER23   00031   4        I      00104   1        OF     00155 A 1        SEQ    00172   1
      CKSUM  00056   1        ER24   00032   4        J      00105   1        ONOFRT 00156 A 1        S      02143 A 1
      CKTEST 00021   4        ER25   00033   4        LLP2   00017   4        ONOF   00157 A 1        TAG    02144   1
      CNT    00057   1        ER26   00034   4        LLP    00017   4        ONRT   00160 A 1        TEMPF1 02145 A 1
      CRYMAP 00060 A 1        ERCOD  77431  C1        LPP2   00044   4        ON     00161 A 1        TEMPF2 02160 A 1
      C      77450 AC1        FAILED 00035   4        LPP    00045   4        OPN1   00046   4        TEMPF3 02161 A 1
      CSMSG  00071 A 1        FILE   00074 A 1        MODE   77451  C1        OPN    00047   4        TIME   77424  C1
      DATE   77425  C1        FLD1   00036   4        MSG20  00113 A 1        PASSIS 00162 A 2        TPRIME 02162   1
      DSKEDT 00072 A 1        FLINK  00037   4        MSG21  00120 A 1        PG     00163 A 1        TRBL   00051   4
      DUM    77430  C1        FNAM1  77453  C1        MSG22  00130 A 1        PRIVIL 77460  C1        T      02253 A 1
      ENDI   00022   4        FNAM2  77452  C1        MSG23  00136 A 1        PRNSWT 77456  C1        WC     02254   1
      EOF1   00023   4        ILGMSG 00103 A 1        MSG24  00141 A 1        PROB1  77427  C1        WHTMD  00052   4
      EOF99  00024   4        INP1   00040   4        MSG25  00146 A 1        PROB   77455  C1        ZER    00053   4
      EOFCT  00073 A 1
0FUNCTION DICTIONARY
      BUFFER 00000   1        CHFILE 00001   1        CLOSE  00002   1        DECCNV 00003   1        DELFIL 00004   1
      ERR    00005   1        EXIT   00006   3        FSTATE 00007   1        OPEN   00010   1        SCAN   00011   1
      SETFIL 00012   1        SOCTBN 00013   1        SPRDOC 00014   1        TAPE   00015   1        WRFILE 00016   1
0ABSOLUTE CONSTANTS
 02260 +000000000003     02267 +000000000033     02266 +000000000026     02277 +000000700000     02276 +000000077777
 02265 +000000000025     02304 +077000000000     02264 +000000000022     02301 +000077000000     02257 +000000000002
 02312 -377777000000     02300 +000000777777     02275 +000000001604     02274 +000000000661     02270 +000000000035
 02310 -300500000000     02311 -300700000000     02302 +000500000000     02305 +077777000000     02273 +000000000660
 02307 -266060606060     02263 +000000000012     02271 +000000000043     02272 +000000000120     02262 +000000000010
 02255 +000000000000     02303 +076000000160     02261 +000000000007     02256 +000000000001     02306 +233000000000
0STATEMENT DICTIONARY
 00020 TXL -302635002625       00021 TXL -303102003076       00022 TXL -302715002711       00023 TXL -302723002716
 00024 TXL -303273003267       00025 TXL -302605002565       00026 TXL -303222003216       00027 TXL -303226003222
 00030 TXL -303230003226       00031 TXL -303250003244       00032 TXL -303254003250       00033 TXL -303257003254
 00034 TXL -303267003263       00035 TXL -302732002730       00036 TXL -303243003234       00037 TXL -302707002705
 00040 TXL -302444002437       00041 TXL -302751002737       00042 TXL -302737002732       00043 TXL -303021003015
 00044 TXL -303122003104       00045 TXL -302506002470       00046 TXL -302403002400       00047 TXL -302423002413
 00050 TXL -302565002561       00051 TXL -303213003206       00052 TXL -302366002355       00053 TXL -302671002665
0PROGRAM
                 EXTERNAL FUNCTION                                                  001  LM00004
                 ENTRY TO INPUT.                                                    002  LM00005
 02313 TRA +0 02000 0 02316    02314 SXA +0 63400 2 03300    02315 TSX +0 07400 2 03300
                 INSERT FILE .SW.                                                   003  LM00006
                 DEFINE UNARY OPERATOR .SW., PRECEDENCE SAME AS .ABS.               004  LM00001
                 MODE STRUCTURE .SW. 1 TO 2                                         005  LM00002
                 DEFINE BINARY OPERATOR .ACL., PRECEDENCE SAME AS +                 021  LM00020
                 MODE STRUCTURE 1 .ACL. 1 TO 1                                      022  LM00021
                 INSERT FILE COMDSK                                                 044  LM00007
                 PROGRAM COMMON B4SWT,PRIVIL,CARSWT,PRNSWT                          045  LM00002
                 PROGRAM COMMON PROB,PROG,FNAM1,FNAM2,MODE,C,ERCOD,DUM              046  LM00003
                 PROGRAM COMMON PROB1, PROG1, DATE,TIME,BUF                         047  LM00004
                 FUNCTION NAME CTLF,EXIT                                            048  LM00005
                 DIMENSION C(14),BUF(864)                                           049  LM00006
                 V'S ONOFRT = 7                                                     050  LM00007
 00156     +0 00000 0 00007
                 V'S ONRT = 5                                                       051  LM00008
 00160     +0 00000 0 00005
                 V'S OFRT = 3                                                       052  LM00009
 00154     +0 00000 0 00003
                 V'S ONOF = 6                                                       053  LM00010
 00157     +0 00000 0 00006
                 V'S ON = 4                                                         054  LM00011
 00161     +0 00000 0 00004
                 V'S OF = 2                                                         055  LM00012
 00155     +0 00000 0 00002
                 V'S EOFCT = 0                                                      056  LM00013
 00073     +0 00000 0 00000
                 V'S MZE = -0                                                       057  LM00014
 00153     -0 00000 0 00000
                 V'S DSKEDT = $DSKEDT$                                              058  LM00015
 00072     +2 46242 2 52463
                 V'S FILE = $.FILE.$                                                059  LM00016
 00074     +3 32631 4 32533
                 V'S CRYMAP = $CRYMAP$                                              060  LM00017
 00060     +2 35170 4 42147
                 N'S INTEGER                                                        061  LM00018
                 SEQ = 0                                                            062  LM00009
 02316 CLA +0 50000 0 02255    02317 STO +0 60100 0 00172
                 MODE = 0                                                           063  LM00010
 02320 CLA +0 50000 0 02255    02321 STO +0 60100 0 77451
                 FSTATE.(FNAM1,FNAM2,T(8)...8, TRBL, ERCOD)                         064  LM00011
 02322 TSX +0 07400 4 00007    02323 TXH +3 00000 0 77453    02324 TXH +3 00000 0 77452    02325 TIX +2 02262 0 02243
 02326 TXH +3 00000 0 00051    02327 TXH +3 00000 0 77431
                 W'R PRIVIL .E. 0                                                   065  LM00013
 02330 CLA +0 50000 0 77460    02331 SUB +0 40200 0 02255    02332 TNZ -0 10000 0 02353
                    W'R T(7) .A. 120K .NE. 0, T'O ER23                              066  LM00014
 02333 CAL -0 50000 0 02244    02334 ANA -0 32000 0 02272    02335 SLW +0 60200 0 03310    02336 CLA +0 50000 0 03310
 02337 SUB +0 40200 0 02255    02340 TZE +0 10000 0 02342    02341 TRA +0 02000 0 00031
                    W'R (T(7).RS.35) .NE. 0, T'O ER23                               067  LM00015
 02342 CAL -0 50000 0 02271    02343 STA +0 62100 0 02345    02344 CAL -0 50000 0 02244    02345 LGR -0 76500 0 00000
 02346 SLW +0 60200 0 03310    02347 CLA +0 50000 0 03310    02350 SUB +0 40200 0 02255    02351 TZE +0 10000 0 02353
 02352 TRA +0 02000 0 00031
                 E'L                                                                068  LM00016
                 MODE = T(7)                                                        069  LM00017
 02353 CLA +0 50000 0 02244    02354 STO +0 60100 0 77451
      WHTMD      T'H NAMFND, FOR J = 1,1, J .E. 10                                  070  LM00018
 02355 CLA +0 50000 0 02256    02356 STO +0 60100 0 00105    02357 TRA +0 02000 0 02363    02360 CLA +0 50000 0 00105
 02361 ADD +0 40000 0 02256    02362 STO +0 60100 0 00105    02363 CLA +0 50000 0 00105    02364 SUB +0 40200 0 02263
 02365 TZE +0 10000 0 02377
                 FSTATE.(TEMPF1,TEMPF2,T(8)...8,OPN1)                               071  LM00019
 02366 TSX +0 07400 4 00007    02367 TXH +3 00000 0 02145    02370 TXH +3 00000 0 02160    02371 TIX +2 02262 0 02243
 02372 TXH +3 00000 0 00046
      NAMFND     TEMPF2 = TEMPF2(J)                                                 072  LM00020
 02373 LXA +0 53400 2 00105    02374 CLA +0 50000 2 02160    02375 STO +0 60100 0 02160    02376 TRA +0 02000 0 02360
                 T'O ER20                                                           073  LM00021
 02377 TRA +0 02000 0 00026
      OPN1       MODE = SCAN.(OPN)                                                  074  LM00022
 02400 TSX +0 07400 4 00011    02401 TXH +3 00000 0 00047    02402 STO +0 60100 0 77451
                 MODE = SOCTBN.(MODE)                                               075  LM00023
 02403 TSX +0 07400 4 00013    02404 TXH +3 00000 0 77451    02405 STO +0 60100 0 77451
                 W'R MODE .E. 1, MODE = 0                                           076  LM00024
 02406 CLA +0 50000 0 77451    02407 SUB +0 40200 0 02256    02410 TNZ -0 10000 0 02413    02411 CLA +0 50000 0 02255
 02412 STO +0 60100 0 77451
      OPN        OPEN.($W$,TEMPF1,TEMPF2,1,MZE,ER20,ERCOD)                          077  LM00025
 02413 TSX +0 07400 4 00010    02414 TXH +3 00000 0 02307    02415 TXH +3 00000 0 02145    02416 TXH +3 00000 0 02160
 02417 TXH +3 00000 0 02256    02420 TXH +3 00000 0 00153    02421 TXH +3 00000 0 00026    02422 TXH +3 00000 0 77431
                 BUFFER.(TEMPF1,TEMPF2,BUF(432)...432,ER20,ERCOD)                   078  LM00026
 02423 TSX +0 07400 4 00000    02424 TXH +3 00000 0 02145    02425 TXH +3 00000 0 02160    02426 TIX +2 02273 0 76543
 02427 TXH +3 00000 0 00026    02430 TXH +3 00000 0 77431
                 PASSIS = 1B                                                        079  LM00027
 02431 CLA +0 50000 0 02256    02432 STO +0 60100 0 00162
                 J = 432                                                            080  LM00028
 02433 CLA +0 50000 0 02273    02434 STO +0 60100 0 00105
                 CNT = 0                                                            081  LM00029
 02435 CLA +0 50000 0 02255    02436 STO +0 60100 0 00057
      INP1       T = TAPE.(T(28)...T(1),RTT,EOF)                                    082  LM00030
 02437 TSX +0 07400 4 00015    02440 TIX +2 02252 0 02217    02441 TXH +3 00000 0 00050    02442 TXH +3 00000 0 00025
 02443 STO +0 60100 0 02253
                 W'R PASSIS                                                         083  LM00031
 02444 NZT -0 52000 0 00162    02445 TRA +0 02000 0 02466
                 W'R T(28) .A. 77777K6 .E. 5K8,                                     084  LM00033
                1   T'O INP1                                                        084  LM00034
 02446 CAL -0 50000 0 02217    02447 ANA -0 32000 0 02305    02450 SLW +0 60200 0 03310    02451 CLA +0 50000 0 03310
 02452 SUB +0 40200 0 02302    02453 TNZ -0 10000 0 02455    02454 TRA +0 02000 0 00040
                      PASSIS = 0B                                                   085  LM00035
 02455 CLA +0 50000 0 02255    02456 STO +0 60100 0 00162
                    W'R T(28) .A. 7007K8 .E. 7005K8, T'O INP7A                      086  LM00036
 02457 CAL -0 50000 0 02217    02460 ANA -0 32000 0 02311    02461 SLW +0 60200 0 03310    02462 CLA +0 50000 0 03310
 02463 SUB +0 40200 0 02310    02464 TNZ -0 10000 0 02466    02465 TRA +0 02000 0 00041
                 E'L                                                                087  LM00037
                 I = 1                                                              088  LM00038
 02466 CLA +0 50000 0 02256    02467 STO +0 60100 0 00104
      LPP        T'H LLP, FOR CNT = CNT,1,CNT .GE. 432 .OR. I .G. T                 089  LM00039
 02470 CLA +0 50000 0 00057    02471 STO +0 60100 0 00057    02472 TRA +0 02000 0 02476    02473 CLA +0 50000 0 00057
 02474 ADD +0 40000 0 02256    02475 STO +0 60100 0 00057    02476 CLA +0 50000 0 00104    02477 SUB +0 40200 0 02253
 02500 TZE +0 10000 0 02502    02501 TPL +0 12000 0 02523    02502 CLA +0 50000 0 00057    02503 SUB +0 40200 0 02273
 02504 TZE +0 10000 0 02523    02505 TPL +0 12000 0 02523
                 S(J-CNT) = T(29-I)                                                 090  LM00040
 02506 CLA +0 50000 0 02270    02507 SUB +0 40200 0 00104    02510 STO +0 60100 0 03310    02511 CLA +0 50000 0 00105
 02512 SUB +0 40200 0 00057    02513 PAX +0 73400 1 00000    02514 LXA +0 53400 2 03310    02515 CLA +0 50000 2 02253
 02516 STO +0 60100 1 02143
      LLP        I = I+1                                                            091  LM00041
 02517 CLA +0 50000 0 00104    02520 ADD +0 40000 0 02256    02521 STO +0 60100 0 00104    02522 TRA +0 02000 0 02473
                 W'R CNT .GE. 432                                                   092  LM00042
 02523 CLA +0 50000 0 00057    02524 SUB +0 40200 0 02273    02525 TZE +0 10000 0 02527    02526 TMI -0 12000 0 02560
                    WRFILE.(TEMPF1,TEMPF2,0,S(J)...432,MZE,MZE,ER21,ERCOD)          093  LM00043
 02527 CLA +0 50000 0 00105    02530 SUB +0 40200 0 02531    02531 TXH +3 00000 0 02143    02532 STA +0 62100 0 02537
 02533 TSX +0 07400 4 00016    02534 TXH +3 00000 0 02145    02535 TXH +3 00000 0 02160    02536 TXH +3 00000 0 02255
 02537 TIX +2 02273 0 00000    02540 TXH +3 00000 0 00153    02541 TXH +3 00000 0 00153    02542 TXH +3 00000 0 00027
 02543 TXH +3 00000 0 77431
                    W'R J .G. 433                                                   094  LM00044
 02544 CLA +0 50000 0 00105    02545 SUB +0 40200 0 02274    02546 TZE +0 10000 0 02553    02547 TMI -0 12000 0 02553
                       J = 432                                                      095  LM00045
 02550 CLA +0 50000 0 02273    02551 STO +0 60100 0 00105
                    O'E                                                             096  LM00046
 02552 TRA +0 02000 0 02555
                       J = 900                                                      097  LM00047
 02553 CLA +0 50000 0 02275    02554 STO +0 60100 0 00105
                    E'L                                                             098  LM00048
                    CNT = 0                                                         099  LM00049
 02555 CLA +0 50000 0 02255    02556 STO +0 60100 0 00057
                    T'O LPP                                                         100  LM00050
 02557 TRA +0 02000 0 00045
                 E'L                                                                101  LM00051
                 T'O INP1                                                           102  LM00052
 02560 TRA +0 02000 0 00040
      RTT        ERR.(RTTMSG...RTTMSG(5),ONOFRT,ENDI)                               103  LM00053
 02561 TSX +0 07400 4 00005    02562 TIX +2 00164 0 00171    02563 TXH +3 00000 0 00156    02564 TXH +3 00000 0 00022
                    V'S RTTMSG = $REDUNDANCY ON TAPE. FILE NOT INPUT.$              104  LM00054
 00164     -0 54764 6 33360    00165     -2 04546 6 36031    00166     +3 36026 3 14325    00167     -0 56063 2 14725
 00170     +2 14523 7 06046    00171     -1 12524 6 44524
      EOF        W'R CNT .NE. 0,                                                    105  LM00056
                1   WRFILE.(TEMPF1,TEMPF2,0,S(J)...CNT,MZE,MZE,ER21,ERCOD)          105  LM00057
 02565 CLA +0 50000 0 00057    02566 SUB +0 40200 0 02255    02567 TZE +0 10000 0 02605    02570 CLA +0 50000 0 00105
 02571 SUB +0 40200 0 02572    02572 TXH +3 00000 0 02143    02573 STA +0 62100 0 02600    02574 TSX +0 07400 4 00016
 02575 TXH +3 00000 0 02145    02576 TXH +3 00000 0 02160    02577 TXH +3 00000 0 02255    02600 TIX +2 00057 0 00000
 02601 TXH +3 00000 0 00153    02602 TXH +3 00000 0 00153    02603 TXH +3 00000 0 00027    02604 TXH +3 00000 0 77431
                 CLOSE.(TEMPF1,TEMPF2,ER24,ERCOD)                                   106  LM00058
 02605 TSX +0 07400 4 00002    02606 TXH +3 00000 0 02145    02607 TXH +3 00000 0 02160    02610 TXH +3 00000 0 00032
 02611 TXH +3 00000 0 77431
                 CHFILE.(FNAM1,FNAM2,1,MZE,MZE,CHF)                                 107  LM00059
 02612 TSX +0 07400 4 00001    02613 TXH +3 00000 0 77453    02614 TXH +3 00000 0 77452    02615 TXH +3 00000 0 02256
 02616 TXH +3 00000 0 00153    02617 TXH +3 00000 0 00153    02620 TXH +3 00000 0 00020
                 DELFIL.(FNAM1,FNAM2,CHF)                                           108  LM00060
 02621 TSX +0 07400 4 00004    02622 TXH +3 00000 0 77453    02623 TXH +3 00000 0 77452    02624 TXH +3 00000 0 00020
      CHF        CHFILE.(TEMPF1,TEMPF2,MODE,FNAM1,FNAM2,ER22,ERCOD)                 109  LM00061
 02625 TSX +0 07400 4 00001    02626 TXH +3 00000 0 02145    02627 TXH +3 00000 0 02160    02630 TXH +3 00000 0 77451
 02631 TXH +3 00000 0 77453    02632 TXH +3 00000 0 77452    02633 TXH +3 00000 0 00030    02634 TXH +3 00000 0 77431
                 FSTATE.(FNAM1,FNAM2,T(8)...8,ER26,ERCOD)                           110  LM00062
 02635 TSX +0 07400 4 00007    02636 TXH +3 00000 0 77453    02637 TXH +3 00000 0 77452    02640 TIX +2 02262 0 02243
 02641 TXH +3 00000 0 00034    02642 TXH +3 00000 0 77431
                 PG = DECCNV.(PROG) .A. 777777K                                     111  LM00063
 02643 TSX +0 07400 4 00003    02644 TXH +3 00000 0 77454    02645 STO +0 60100 0 03310    02646 CAL -0 50000 0 03310
 02647 ANA -0 32000 0 02300    02650 SLW +0 60200 0 00163
                 W'R PG .E. 0,PG = DECCNV.(SCAN.(ZER)).A.777777K                    112  LM00064
 02651 CLA +0 50000 0 00163    02652 SUB +0 40200 0 02255    02653 TNZ -0 10000 0 02665    02654 TSX +0 07400 4 00011
 02655 TXH +3 00000 0 00053    02656 STO +0 60100 0 03310    02657 TSX +0 07400 4 00003    02660 TXH +3 00000 0 03310
 02661 STO +0 60100 0 03310    02662 CAL -0 50000 0 03310    02663 ANA -0 32000 0 02300    02664 SLW +0 60200 0 00163
      ZER        T(1) = (T(1) .A. 777777K6) .V. PG                                  113  LM00065
 02665 CAL -0 50000 0 02252    02666 ANA -0 32000 0 02312    02667 ORA -0 50100 0 00163    02670 SLW +0 60200 0 02252
                 SETFIL.(FNAM1,FNAM2,T(2),T(1),MODE,2,FLINK)                        114  LM00066
 02671 TSX +0 07400 4 00012    02672 TXH +3 00000 0 77453    02673 TXH +3 00000 0 77452    02674 TXH +3 00000 0 02251
 02675 TXH +3 00000 0 02252    02676 TXH +3 00000 0 77451    02677 TXH +3 00000 0 02257    02700 TXH +3 00000 0 00037
                 DELFIL.(TEMPF1,TEMPF2,FLINK)                                       115  LM00067
 02701 TSX +0 07400 4 00004    02702 TXH +3 00000 0 02145    02703 TXH +3 00000 0 02160    02704 TXH +3 00000 0 00037
      FLINK      TEMPF2 = TEMPF3                                                    116  LM00068
 02705 CLA +0 50000 0 02161    02706 STO +0 60100 0 02160
                 F'N 1                                                              117  LM00069
 02707 CLA +0 50000 0 02256    02710 TRA +0 02000 0 03304
      ENDI       TAPE.(T(28)...T(1),ENDI,EOF1)                                      118  LM00071
 02711 TSX +0 07400 4 00015    02712 TIX +2 02252 0 02217    02713 TXH +3 00000 0 00022    02714 TXH +3 00000 0 00023
                 T'O ENDI                                                           119  LM00072
 02715 TRA +0 02000 0 00022
      EOF1       CLOSE.(TEMPF1,TEMPF2,FAILED,ERCOD)                                 120  LM00073
 02716 TSX +0 07400 4 00002    02717 TXH +3 00000 0 02145    02720 TXH +3 00000 0 02160    02721 TXH +3 00000 0 00035
 02722 TXH +3 00000 0 77431
                 DELFIL.(TEMPF1,TEMPF2,FAILED,ERCOD)                                121  LM00074
 02723 TSX +0 07400 4 00004    02724 TXH +3 00000 0 02145    02725 TXH +3 00000 0 02160    02726 TXH +3 00000 0 00035
 02727 TXH +3 00000 0 77431
      FAILED     F'N 0                                                              122  LM00075
 02730 CLA +0 50000 0 02255    02731 TRA +0 02000 0 03304
      INP7       T = TAPE.(T(28)...T(1),RTT,EOF99)                                  123  LM00077
 02732 TSX +0 07400 4 00015    02733 TIX +2 02252 0 02217    02734 TXH +3 00000 0 00050    02735 TXH +3 00000 0 00024
 02736 STO +0 60100 0 02253
      INP7A      W'R T(28) .A. 7007K8 .NE. 7005K8,                                  124  LM00078
                1 ERR.(ILGMSG...ILGMSG(6),ONOFRT,ENDI)                              124  LM00079
 02737 CAL -0 50000 0 02217    02740 ANA -0 32000 0 02311    02741 SLW +0 60200 0 03310    02742 CLA +0 50000 0 03310
 02743 SUB +0 40200 0 02310    02744 TZE +0 10000 0 02751    02745 TSX +0 07400 4 00005    02746 TIX +2 00075 0 00103
 02747 TXH +3 00000 0 00156    02750 TXH +3 00000 0 00022
                    V'S ILGMSG = $ILLEGAL CARD IN DECK. FILE NOT INPUT.$            125  LM00080
 00075     +3 36060 6 06060    00076     -2 03145 4 76463    00077     -0 32560 4 54663    00100     +2 34233 6 02631
 00101     -2 03145 6 02425    00102     -0 36023 2 15124    00103     +3 14343 2 52721
                 TPRIME = (T(28) .A. 77K6) .RS. 18                                  126  LM00081
 02751 CAL -0 50000 0 02217    02752 ANA -0 32000 0 02301    02753 SLW +0 60200 0 03310    02754 CAL -0 50000 0 02264
 02755 STA +0 62100 0 02757    02756 CAL -0 50000 0 03310    02757 LGR -0 76500 0 00000    02760 SLW +0 60200 0 02162
                 WC = (T(28) .A. 77K9) .RS. 21                                      127  LM00082
 02761 CAL -0 50000 0 02217    02762 ANA -0 32000 0 02304    02763 SLW +0 60200 0 03310    02764 CAL -0 50000 0 02265
 02765 STA +0 62100 0 02767    02766 CAL -0 50000 0 03310    02767 LGR -0 76500 0 00000    02770 SLW +0 60200 0 02254
                 TPRIME = TPRIME .V. WC                                             128  LM00083
 02771 CAL -0 50000 0 02162    02772 ORA -0 50100 0 02254    02773 SLW +0 60200 0 02162
                 W'R TPRIME .E. 0, T'O INP7                                         129  LM00084
 02774 CLA +0 50000 0 02162    02775 SUB +0 40200 0 02255    02776 TNZ -0 10000 0 03000    02777 TRA +0 02000 0 00042
                 WC = T(28) .A. 77777K                                              130  LM00085
 03000 CAL -0 50000 0 02217    03001 ANA -0 32000 0 02276    03002 SLW +0 60200 0 02254
                 W'R WC .NE. SEQ, T'O ER25                                          131  LM00086
 03003 CLA +0 50000 0 02254    03004 SUB +0 40200 0 00172    03005 TZE +0 10000 0 03007    03006 TRA +0 02000 0 00033
                 SEQ = SEQ +1                                                       132  LM00087
 03007 CLA +0 50000 0 00172    03010 ADD +0 40000 0 02256    03011 STO +0 60100 0 00172
                 TAG = T(28) .A. 7K5                                                133  LM00088
 03012 CAL -0 50000 0 02217    03013 ANA -0 32000 0 02277    03014 SLW +0 60200 0 02144
      INPCON     W'R TPRIME .LE. 22                                                 134  LM00089
 03015 CLA +0 50000 0 02162    03016 SUB +0 40200 0 02266    03017 TZE +0 10000 0 03021    03020 TPL +0 12000 0 03024
                      WC = TPRIME                                                   135  LM00090
 03021 CLA +0 50000 0 02162    03022 STO +0 60100 0 02254
                 O'E                                                                136  LM00091
 03023 TRA +0 02000 0 03026
                      WC = 1                                                        137  LM00092
 03024 CLA +0 50000 0 02256    03025 STO +0 60100 0 02254
                 E'L                                                                138  LM00093
                 CKSUM = T(28)                                                      139  LM00094
 03026 CLA +0 50000 0 02217    03027 STO +0 60100 0 00056
                 T'H INP7L, FOR I = 1,1,I .G. WC                                    140  LM00095
 03030 CLA +0 50000 0 02256    03031 STO +0 60100 0 00104    03032 TRA +0 02000 0 03036    03033 CLA +0 50000 0 00104
 03034 ADD +0 40000 0 02256    03035 STO +0 60100 0 00104    03036 CLA +0 50000 0 00104    03037 SUB +0 40200 0 02254
 03040 TZE +0 10000 0 03042    03041 TPL +0 12000 0 03051
      INP7L      CKSUM = CKSUM .ACL. T(27-I)                                        141  LM00096
 03042 CLA +0 50000 0 02267    03043 SUB +0 40200 0 00104    03044 PAX +0 73400 2 00000    03045 CAL -0 50000 0 00056
 03046 ACL +0 36100 2 02253    03047 SLW +0 60200 0 00056    03050 TRA +0 02000 0 03033
                 W'R CKSUM .NE. T(27)                                               142  LM00097
 03051 CLA +0 50000 0 00056    03052 SUB +0 40200 0 02220    03053 TZE +0 10000 0 03102
                      CSMSG(4) = SPRDOC.(T(28) .RS. 18)                             143  LM00098
 03054 CAL -0 50000 0 02264    03055 STA +0 62100 0 03057    03056 CAL -0 50000 0 02217    03057 LGR -0 76500 0 00000
 03060 SLW +0 60200 0 03310    03061 TSX +0 07400 4 00014    03062 TXH +3 00000 0 03310    03063 STO +0 60100 0 00065
                      CSMSG(5) = SPRDOC.(T(28) .A. 77777K)                          144  LM00099
 03064 CAL -0 50000 0 02217    03065 ANA -0 32000 0 02276    03066 SLW +0 60200 0 03310    03067 TSX +0 07400 4 00014
 03070 TXH +3 00000 0 03310    03071 STO +0 60100 0 00064
                      ERR.(CSMSG...CSMSG(8),ONOFRT,CKTEST)                          145  LM00100
 03072 TSX +0 07400 4 00005    03073 TIX +2 00061 0 00071    03074 TXH +3 00000 0 00156    03075 TXH +3 00000 0 00021
      CKTEST          W'R T(27) .NE. 0, T'O ENDI                                    146  LM00101
 03076 CLA +0 50000 0 02220    03077 SUB +0 40200 0 02255    03100 TZE +0 10000 0 03102    03101 TRA +0 02000 0 00022
                 E'L                                                                147  LM00102
                    V'S CSMSG = $CHECK SUM ERROR ON CARD$,$$,$$,                    148  LM00103
                1 $ FILE NOT INPUT.$                                                148  LM00104
 00061     -0 76463 3 36060    00062     -0 54663 6 03145    00063     -2 02631 4 32560    00064     -2 06060 6 06060
 00065     -2 06060 6 06060    00066     -2 02321 5 12460    00067     -1 14651 6 04645    00070     -2 26444 6 02551
 00071     +2 33025 2 34260
                    I = 1                                                           149  LM00105
 03102 CLA +0 50000 0 02256    03103 STO +0 60100 0 00104
      LPP2          T'H LLP2, FOR CNT = CNT,1,CNT .GE. 432 .OR.  I .G. TPRIME       150  LM00106
 03104 CLA +0 50000 0 00057    03105 STO +0 60100 0 00057    03106 TRA +0 02000 0 03112    03107 CLA +0 50000 0 00057
 03110 ADD +0 40000 0 02256    03111 STO +0 60100 0 00057    03112 CLA +0 50000 0 00104    03113 SUB +0 40200 0 02162
 03114 TZE +0 10000 0 03116    03115 TPL +0 12000 0 03150    03116 CLA +0 50000 0 00057    03117 SUB +0 40200 0 02273
 03120 TZE +0 10000 0 03150    03121 TPL +0 12000 0 03150
                 W'R WC .E. 1                                                       151  LM00107
 03122 CLA +0 50000 0 02254    03123 SUB +0 40200 0 02256    03124 TNZ -0 10000 0 03133
                       S(J-CNT) = T(26)                                             152  LM00108
 03125 CLA +0 50000 0 00105    03126 SUB +0 40200 0 00057    03127 PAX +0 73400 1 00000    03130 CLA +0 50000 0 02221
 03131 STO +0 60100 1 02143
                    O'E                                                             153  LM00109
 03132 TRA +0 02000 0 03144
                       S(J-CNT) = T(27-I)                                           154  LM00110
 03133 CLA +0 50000 0 02267    03134 SUB +0 40200 0 00104    03135 STO +0 60100 0 03310    03136 CLA +0 50000 0 00105
 03137 SUB +0 40200 0 00057    03140 PAX +0 73400 1 00000    03141 LXA +0 53400 2 03310    03142 CLA +0 50000 2 02253
 03143 STO +0 60100 1 02143
                    E'L                                                             155  LM00111
      LLP2          I = I+1                                                         156  LM00112
 03144 CLA +0 50000 0 00104    03145 ADD +0 40000 0 02256    03146 STO +0 60100 0 00104    03147 TRA +0 02000 0 03107
                    W'R CNT .GE. 432                                                157  LM00113
 03150 CLA +0 50000 0 00057    03151 SUB +0 40200 0 02273    03152 TZE +0 10000 0 03154    03153 TMI -0 12000 0 03205
                       WRFILE.(TEMPF1,TEMPF2,0,S(J)...432,MZE,MZE,ER21,ERCOD)       158  LM00114
 03154 CLA +0 50000 0 00105    03155 SUB +0 40200 0 03156    03156 TXH +3 00000 0 02143    03157 STA +0 62100 0 03164
 03160 TSX +0 07400 4 00016    03161 TXH +3 00000 0 02145    03162 TXH +3 00000 0 02160    03163 TXH +3 00000 0 02255
 03164 TIX +2 02273 0 00000    03165 TXH +3 00000 0 00153    03166 TXH +3 00000 0 00153    03167 TXH +3 00000 0 00027
 03170 TXH +3 00000 0 77431
                       W'R J .G. 433                                                159  LM00115
 03171 CLA +0 50000 0 00105    03172 SUB +0 40200 0 02274    03173 TZE +0 10000 0 03200    03174 TMI -0 12000 0 03200
                          J = 432                                                   160  LM00116
 03175 CLA +0 50000 0 02273    03176 STO +0 60100 0 00105
                       O'E                                                          161  LM00117
 03177 TRA +0 02000 0 03202
                          J = 900                                                   162  LM00118
 03200 CLA +0 50000 0 02275    03201 STO +0 60100 0 00105
                       E'L                                                          163  LM00119
                       CNT = 0                                                      164  LM00120
 03202 CLA +0 50000 0 02255    03203 STO +0 60100 0 00057
                       T'O LPP2                                                     165  LM00121
 03204 TRA +0 02000 0 00044
                    E'L                                                             166  LM00122
                    T'O INP7                                                        167  LM00123
 03205 TRA +0 02000 0 00042
      TRBL       W'R ERCOD .G. 3, T'O ER23                                          168  LM00124
 03206 CLA +0 50000 0 77431    03207 SUB +0 40200 0 02260    03210 TZE +0 10000 0 03213    03211 TMI -0 12000 0 03213
 03212 TRA +0 02000 0 00031
                 ERCOD = 0                                                          169  LM00125
 03213 CLA +0 50000 0 02255    03214 STO +0 60100 0 77431
                 T'O WHTMD                                                          170  LM00126
 03215 TRA +0 02000 0 00052
      ER20       ERR.(MSG20...MSG20(5),ONOFRT,ENDI)                                 171  LM00130
 03216 TSX +0 07400 4 00005    03217 TIX +2 00106 0 00113    03220 TXH +3 00000 0 00156    03221 TXH +3 00000 0 00022
                    V'S MSG20 = $CAN'T OPEN FILE TO RECEIVE INPUT$                  172  LM00131
 00106     -2 46360 6 06060    00107     -2 52560 3 14547    00110     -2 05125 2 32531    00111     +3 14325 6 06346
 00112     -0 64725 4 56026    00113     +2 32145 1 46360
      ER21       ERR.(MSG21...MSG21(5),ONOFRT,ENDI)                                 173  LM00132
 03222 TSX +0 07400 4 00005    03223 TIX +2 00113 0 00120    03224 TXH +3 00000 0 00156    03225 TXH +3 00000 0 00022
                    V'S MSG21 = $ERROR WRITING  FILE FOR INPUT$                     174  LM00133
 00114     +3 14547 6 46360    00115     +2 56026 4 65160    00116     +2 76060 2 63143    00117     -2 65131 6 33145
 00120     +2 55151 4 65160
      ER22       MSG22(7) = TEMPF2                                                  175  LM00134
 03226 CLA +0 50000 0 02160    03227 STO +0 60100 0 00121
                 ERR.(MSG22...MSG22(7),ONOFRT,FLD1)                                 176  LM00135
 03230 TSX +0 07400 4 00005    03231 TIX +2 00121 0 00130    03232 TXH +3 00000 0 00156    03233 TXH +3 00000 0 00036
      FLD1       CHFILE.(TEMPF1,TEMPF2,0,MZE,MZE,FLINK)                             177  LM00136
 03234 TSX +0 07400 4 00001    03235 TXH +3 00000 0 02145    03236 TXH +3 00000 0 02160    03237 TXH +3 00000 0 02255
 03240 TXH +3 00000 0 00153    03241 TXH +3 00000 0 00153    03242 TXH +3 00000 0 00037
                 T'O FLINK                                                          178  LM00137
 03243 TRA +0 02000 0 00037
                    V'S MSG22 = $CAN'T DELETE OLD FILE.  NEW FILE IS .TEMP.$        179  LM00138
 00122     +3 36325 4 44733    00123     -0 32560 3 16260    00124     -0 52566 6 02631    00125     +3 14325 3 36060
 00126     -2 04643 2 46026    00127     +2 42543 2 56325    00130     +2 32145 1 46360
                    V'S MSG22(7) = $.FILE.$                                         180  LM00139
 00121     +3 32631 4 32533
      ER23       ERR.(MSG23...MSG23(5),ONOFRT,ENDI)                                 181  LM00140
 03244 TSX +0 07400 4 00005    03245 TIX +2 00131 0 00136    03246 TXH +3 00000 0 00156    03247 TXH +3 00000 0 00022
                    V'S MSG23 = $FILE ALREADY EXISTS. FILE NOT INPUT.$              182  LM00141
 00131     +3 14547 6 46333    00132     +2 56045 4 66360    00133     -2 23360 2 63143    00134     -2 02567 3 16263
 00135     -0 35125 2 12470    00136     +2 63143 2 56021
      ER24       ERR.(MSG24...MSG24(2),ONOFRT,FAILED)                               183  LM00142
 03250 TSX +0 07400 4 00005    03251 TIX +2 00137 0 00141    03252 TXH +3 00000 0 00156    03253 TXH +3 00000 0 00035
                    V'S MSG24 = $CAN'T CLOSE FILE.$                                 184  LM00143
 00137     +2 63143 2 53360    00140     +2 34346 6 22560    00141     +2 32145 1 46360
      ER25       MSG25(4) = SPRDOC.(SEQ)                                            185  LM00144
 03254 TSX +0 07400 4 00014    03255 TXH +3 00000 0 00172    03256 STO +0 60100 0 00142
                 ERR.(MSG25...MSG25(4),OFRT,INPCON)                                 186  LM00145
 03257 TSX +0 07400 4 00005    03260 TIX +2 00142 0 00146    03261 TXH +3 00000 0 00154    03262 TXH +3 00000 0 00043
                    V'S MSG25 = $FAULTY SEQUENCE NUMBER        $                    187  LM00146
 00142     -2 06060 6 06060    00143     -0 42225 5 16060    00144     -0 52325 6 04564    00145     -2 06225 5 06425
 00146     +2 62164 4 36370
      ER26       ERR.(MSG26...MSG26(3),ONOFRT,FLINK)                                188  LM00147
 03263 TSX +0 07400 4 00005    03264 TIX +2 00147 0 00152    03265 TXH +3 00000 0 00156    03266 TXH +3 00000 0 00037
                    V'S MSG26 = $INPUT FILE WAS LOST.$                              189  LM00148
 00147     -2 33360 6 06060    00150     +2 16260 4 34662    00151     +2 63143 2 56066    00152     +3 14547 6 46360
      EOF99      W'R TAG .NE. 0, T'O EOF                                            190  LM00149
 03267 CLA +0 50000 0 02144    03270 SUB +0 40200 0 02255    03271 TZE +0 10000 0 03273    03272 TRA +0 02000 0 00025
                    ERR.(BADEND...BADEND(1),ONOFRT,EOF)                             191  LM00150
 03273 TSX +0 07400 4 00005    03274 TIX +2 00054 0 00055    03275 TXH +3 00000 0 00156    03276 TXH +3 00000 0 00025
                       V'S BADEND = $NO LAST CARD$                                  192  LM00151
 00054     -2 36023 2 15124    00055     -0 54660 4 32162
                 V'S TEMPF1 = $.TEMP.$                                              193  LM00155
 02145     +3 36325 4 44733
                 V'S TEMPF2 = $.FILE..FIL1..FIL2..FIL3..FIL4..FIL5.$                194  LM00156
 02153     +3 32631 4 30533    02154     +3 32631 4 30433    02155     +3 32631 4 30333    02156     +3 32631 4 30233
 02157     +3 32631 4 30133    02160     +3 32631 4 32533
                 V'S TEMPF2(6) = $.FIL6..FIL7..FIL8..FIL9..FILZ.$                   195  LM00157
 02146     +3 32631 4 37133    02147     +3 32631 4 31133    02150     +3 32631 4 31033    02151     +3 32631 4 30733
 02152     +3 32631 4 30633
                 V'S TEMPF3 = $.FILE.$                                              196  LM00158
 02161     +3 32631 4 32533
                 V'S PASSIS = 1B                                                    197  LM00159
 00162     +0 00000 0 00001
                 V'S PG = 0                                                         198  LM00160
 00163     +0 00000 0 00000
                 N'S INTEGER                                                        199  LM00161
                 BOOLEAN PASSIS                                                     200  LM00162
                 D'N T(56), S(1000)                                                 201  LM00163
                 E'N                                                                202  LM00164
 03277 TSX +0 07400 4 00006    03300 TXH +3 00000 0 00000    03301 SXD -0 63400 1 03300    03302 SXA +0 63400 4 03304
 03303 TRA +0 02000 2 00001    03304 AXT +0 77400 4 00000    03305 LXA +0 53400 2 03300    03306 LXD -0 53400 1 03300
 03307 TRA +0 02000 4 00001


 DPNCH   BCD 05/15/71 1242.6   27509         00000
