1     MAD PROGRAM LISTING ... ... ...                 FILE   DPNCH   MAD            05/15/71    1238.5
-
                 ...FUNCTION TO PRINT OR PUNCH A BCD FILE                                              LM00001
                  EXTERNAL FUNCTION                                                               *001 LM00002
                  ENTRY TO PRNDL.                                                                 *002 LM00003
                  DLTSWT = 1B                                                                     *003 LM00004
                  TRANSFER TO PRNT1                                                               *004 LM00005
                  ENTRY TO DPUDL.                                                                 *005 LM00006
                  DLTSWT = 1B                                                                     *006 LM00007
                  TRANSFER TO DPNCH1                                                              *007 LM00008
                  ENTRY TO SSPRNT.                                                                *008 LM00009
                    DLTSWT = 0B                                                                   *009 LM00010
                    SS = 1B                                                                       *010 LM00011
                    TRANSFER TO PRNT2                                                             *011 LM00012
                  ENTRY TO SSPRDL.                                                                *012 LM00013
                    DLTSWT = 1B                                                                   *013 LM00014
                    SS = 1B                                                                       *014 LM00015
                    TRANSFER TO PRNT2                                                             *015 LM00016
                  ENTRY TO PRNT.                                                                  *016 LM00017
                  DLTSWT = 0B                                                                     *017 LM00018
      PRNT1       SS = 0B                                                                         *018 LM00019
      PRNT2          PRINTS = 1B                                                                  *019 LM00020
                     WMAX = 22                                                                    *020 LM00021
                  NPRINT.(ASTERS(22)...ASTERS(1))                                                 *021 LM00022
                  TITLE(14) = PROB                                                                *022 LM00023
                  TITLE(12) = PROG                                                                *023 LM00024
                  TITLE(10) = FNAM1                                                               *024 LM00025
                  TITLE(8) = FNAM2                                                                *025 LM00026
                  TITLE(6) = PROB1                                                                *026 LM00027
                  TITLE(4) = PROG1                                                                *027 LM00028
                  TITLE(2) = DATE                                                                 *028 LM00029
                  TITLE = TIME                                                                    *029 LM00030
                  VECTOR VALUES TITLE = $$,$$,$$,$$                                               *030 LM00031
                     VECTOR VALUES TITLE(4) = $$,$$,$$,$ FOR $,$$,$$,$$,$$,$$,$$,$$,$$            *031 LM00032
                  NPRINT.(TITLE(15)...TITLE)                                                      *032 LM00033
                  TRANSFER TO PRPU                                                                *033 LM00034
                                                                                                       LM00035
                  ENTRY TO DPNCH.                                                                 *034 LM00036
                  DLTSWT = 0B                                                                     *035 LM00037
      DPNCH1          PRINTS = 0B                                                                 *036 LM00038
                      SS = 0B                                                                     *037 LM00039
                  SS = 0B                                                                         *038 LM00040
                  B4SWT = 77777K                                                                  *039 LM00041
                     WMAX = 14                                                                    *040 LM00042
                    L(9) = PROB                                                                   *041 LM00043
                    L(8) = PROG                                                                   *042 LM00044
                    L(6) = FNAM1                                                                  *043 LM00045
                    L(5) = FNAM2                                                                  *044 LM00046
                    L(7) = DATE                                                                   *045 LM00047
                    L(4) = TIME                                                                   *046 LM00048
                    L(3) = 777777777777K                                                          *047 LM00049
                    FLIP1.(L(9))                                                                  *048 LM00050
                    L(10) = $DPUNCH$                                                              *049 LM00051
                    L(7) = PROB1                                                                  *050 LM00052
                    L(6) = PROG1                                                                  *051 LM00053
                    L(5) = FNAM1                                                                  *052 LM00054
                    L(4) = FNAM2                                                                  *053 LM00055
                    L(3) = $$                                                                     *054 LM00056
                    L(2) = DATE                                                                   *055 LM00057
                    L(1) = TIME                                                                   *056 LM00058
                    BPNCHI.(2202K)                                                                *057 LM00059
                    BPUNCH.(L(10)...L(1))                                                         *058 LM00060
      PRPU        J = 432                                                                         *059 LM00061
                  K = 864                                                                         *060 LM00062
                  EOFCT = 432                                                                     *061 LM00063
                  M= 0                                                                            *062 LM00064
                  EOFSWT = 0                                                                      *063 LM00065
                  TRSW = 0B                                                                       *064 LM00066
                  GW1 = 15                                                                        *065 LM00067
                  GW2 = 14                                                                        *066 LM00068
                  L(15) = $$                                                                      *067 LM00069
                  WC = 14                                                                         *068 LM00070
                  FSTATE.(FNAM1,FNAM2,T(8)...8,ER34)                                              *069 LM00071
                  T(1) = 10                                                                       *070 LM00072
                  WHENEVER T(7) .A. 20K .NE. 0 .AND. PRIVIL .E. 0, TRANSFER TO ER35               *071 LM00073
                  OPEN.($R$, FNAM1,FNAM2,MZE,MZE,ER34,ERCOD)                                      *072 LM00074
                  RDFILE.(FNAM1,FNAM2,0,BUF(J)...432,EOF,EOFCT,ER30,ERCOD)                        *073 LM00075
                  T(1) = 15                                                                       *074 LM00076
                  RDFILE.(FNAM1,FNAM2,0,BUF(K)...432,EOF,EOFCT,ER30,ERCOD)                        *075 LM00077
                  T(1) = 20                                                                       *076 LM00078
      FINI        MARK = BUF(J) .A. 777777K6                                                      *077 LM00079
                  WHENEVER MARK .E. 777777K6, TRANSFER TO PRL                                     *078 LM00080
                                                                                                       LM00081
                 ...HERE TO PRINT OR PUNCH CARD IMAGE FILES                                            LM00082
      DEBLCK      THROUGH BLKLP, FOR N = 1,1, N .G. 14                                            *079 LM00083
                     L(15-N) = BUF(J-M)                                                           *080 LM00084
      BLKLP          READBF.                                                                      *081 LM00085
                  WHENEVER PRINTS                                                                 *082 LM00086
                     NPRINT.(L(15)...L(1))                                                        *083 LM00087
                  OTHERWISE                                                                       *084 LM00088
                     DPUNCH.(L(14)...L(1))                                                        *085 LM00089
                  END OF CONDITIONAL                                                              *086 LM00090
                  TRANSFER TO DEBLCK                                                              *087 LM00091
      EOF         CLOSE.(FNAM1,FNAM2,ER30,ERCOD)                                                  *088 LM00092
                  EOFSWT = 77K                                                                    *089 LM00093
                  WHENEVER T(1) .E. 10,TRANSFER TO FINI                                           *090 LM00094
                  EOFTMP = EOFCT                                                                  *091 LM00095
                  EOFCT = 432                                                                     *092 LM00096
                  WHENEVER T(1) .E. 15, TRANSFER TO FINI                                          *093 LM00097
                  TRANSFER TO RDXT                                                                *094 LM00098
      EOF3        WHENEVER T(1) .E. 10, TRANSFER TO EOF2                                          *095 LM00099
                  EOFCT = EOFTMP                                                                  *096 LM00100
                  T(1) = 10                                                                       *097 LM00101
                  TRANSFER TO RDXT                                                                *098 LM00102
      EOF2        WHENEVER FLAG .E. 7                                                             *099 LM00103
                     END = UNPACK.(LINE,N,CARD,132)                                               *100 LM00104
                     END = END - 1                                                                *101 LM00105
                     WHENEVER END .G. 132,                                                        *102 LM00106
                1       ONLINE.(MSG31...MSG31(3))                                                 *102 LM00107
                     COUNT = COUNT + 10                                                           *103 LM00108
                     DETAB(0).                                                                    *104 LM00109
                  PACKFP.(CARD,L,END,GW2)                                                         *105 LM00110
                     WHENEVER PRINTS                                                              *106 LM00111
                        WHENEVER TRSW,NPRINT.(TRUN...TRUN(4))                                     *107 LM00112
                     END OF CONDITIONAL                                                           *108 LM00113
                  OTHERWISE                                                                       *109 LM00114
                    GW1 = 15                                                                      *110 LM00115
                    GW2 = 14                                                                      *111 LM00116
                  END OF CONDITIONAL                                                              *112 LM00117
                  FLAG = 0                                                                        *113 LM00118
                  WHENEVER PRINTS                                                                 *114 LM00119
                     WHENEVER GW1 .NE. 22, WC = 15                                                *115 LM00120
                     NPRINT.(L(GW1)...L(GW1-WC+1))                                                *116 LM00121
                     NPRINT.(ASTERS(22)...ASTERS(1))                                              *117 LM00122
                     TRANSFER TO EOF1                                                             *118 LM00123
                  OTHERWISE                                                                       *119 LM00124
                     DPUNCH.(L(GW2)...L(1))                                                       *120 LM00125
                     PNCEOF.                                                                      *121 LM00126
                  END OF CONDITIONAL                                                              *122 LM00127
      EOF1        WHENEVER DLTSWT                                                                 *123 LM00128
                     WHENEVER T(7) .L. 0, TRANSFER TO ER39                                        *124 LM00129
                     WHENEVER T(7) .A. 120K .NE. 0, TRANSFER TO ER40                              *125 LM00130
                     WHENEVER (T(7).RS.35) .NE. 0, TRANSFER TO ER39                               *126 LM00131
                      CHFILE.(FNAM1,FNAM2,1,MZE,MZE,ER33,ERCOD)                                   *127 LM00132
                  END OF CONDITIONAL                                                              *128 LM00133
                  FUNCTION RETURN 1                                                               *129 LM00134
                                                                                                       LM00135
                 ...HERE TO PRINT OR PUNCH LINE-MARKED FILES                                           LM00136
      PRL         GETFNT.(FNAM2)                                                                  *130 LM00137
                  INTERNAL FUNCTION (ARGUME)                                                      *131 LM00138
                  ENTRY TO GETFNT.                                                                *132 LM00139
                  SR = 0B                                                                         *133 LM00140
                  L(15) = $$                                                                      *134 LM00141
                  SSS = 0                                                                         *135 LM00142
                  WHENEVER SS, SSS = 1                                                            *136 LM00143
                  WHENEVER ARGUME .E. $RUNCOM$                                                    *137 LM00144
                     SSS = 1                                                                      *138 LM00145
                     GW1 = 22                                                                     *139 LM00146
                     GW2 = 22                                                                     *140 LM00147
                     DETAB = OTHER.                                                               *141 LM00148
                  OR WHENEVER ARGUME .E. $   MAD$                                                 *142 LM00149
                     DETAB = MAD.                                                                 *143 LM00150
                     SR = 1B                                                                      *144 LM00151
                     GW1 = 15                                                                     *145 LM00152
                     GW2 = 14                                                                     *146 LM00153
                  OR WHENEVER ARGUME .E. $   FAP$ .OR. ARGUME .E. $   TAP$                        *147 LM00154
                     DETAB = FAP.                                                                 *148 LM00155
                     SR = 1B                                                                      *149 LM00156
                     GW1 = 15                                                                     *150 LM00157
                     GW2 = 14                                                                     *151 LM00158
                  OR WHENEVER ARGUME .E. $ ALGOL$                                                 *152 LM00159
                     GW1 = 22                                                                     *153 LM00160
                     GW2 = 22                                                                     *154 LM00161
                     DETAB = ALGOL.                                                               *155 LM00162
                  OR WHENEVER ARGUME .E. $  LISP$ .OR. ARGUME .E. $LSPOUT$                        *156 LM00163
                     GW1 = 22                                                                     *157 LM00164
                     GW2 = 22                                                                     *158 LM00165
                     DETAB = LISP.                                                                *159 LM00166
                  OR WHENEVER ARGUME .E. $SCRIPT$                                                 *160 LM00167
                     GW1 = 22                                                                     *161 LM00168
                     GW2 = 22                                                                     *162 LM00169
                     DETAB = SCRIPT.                                                              *163 LM00170
                  OTHERWISE                                                                       *164 LM00171
                     GW1 = 22                                                                     *165 LM00172
                     GW2 = 22                                                                     *166 LM00173
                     DETAB = OTHER.                                                               *167 LM00174
                  END OF CONDITIONAL                                                              *168 LM00175
                  FUNCTION RETURN                                                                 *169 LM00176
                  END OF FUNCTION                                                                 *170 LM00177
                  ACNT = 0                                                                        *171 LM00178
                  ARCHIV = 0B                                                                     *172 LM00179
                  THROUGH NEXT, FOR JI = J,-1,JI.E.J-4                                            *173 LM00180
      NEXT        WHENEVER BUF(JI).NE.777777K6,TRANSFER TO NARCH                                  *174 LM00181
                  WHENEVER BUF(J-4).E.777777000011K,ARCHIV=1B                                     *175 LM00182
      NARCH       CONTINUE                                                                        *176 LM00183
                  FLAG = 7                                                                        *177 LM00184
                  COUNT = 0                                                                       *178 LM00185
      NEWLIN      TRSW = 0B                                                                       *179 LM00186
                  CONTRL = 0B                                                                     *180 LM00187
                  END = READLN.(CARD,132)                                                         *181 LM00188
                  COUNT = COUNT + 10                                                              *182 LM00189
                  WHENEVER ARCHIV                                                                 *183 LM00190
                    ARCH.                                                                         *184 LM00191
                  OTHERWISE                                                                       *185 LM00192
                    DETAB(0).                                                                     *186 LM00193
                  END OF CONDITIONAL                                                              *187 LM00194
                  PACKFP.(CARD,L,END,GW2)                                                         *188 LM00195
                  WHENEVER PRINTS                                                                 *189 LM00196
                    WHENEVER CONTRL                                                               *190 LM00197
                      GWT = GW1                                                                   *191 LM00198
                      GW1 = GW2                                                                   *192 LM00199
                    END OF CONDITIONAL                                                            *193 LM00200
                     NPRINT.(L(GW1)...L(1))                                                       *194 LM00201
                    WHENEVER CONTRL                                                               *195 LM00202
                      GW1 = GWT                                                                   *196 LM00203
                    BLANK(14) = BLANK(1)                                                          *197 LM00204
                    BLANK(15) = BLANK(1)                                                          *198 LM00205
                    NPRINT.(BLANK(1)...BLANK(15))                                                 *199 LM00206
                  END OF CONDITIONAL                                                              *200 LM00207
                     WHENEVER TRSW, NPRINT.(TRUN...TRUN(4))                                       *201 LM00208
                        VECTOR VALUES TRUN = $ **** THIS LINE WAS TRUNCATED.$                     *202 LM00209
                  OTHERWISE                                                                       *203 LM00210
                     DPUNCH.(L(GW2)...L(1))                                                       *204 LM00211
                  END OF CONDITIONAL                                                              *205 LM00212
                  TRANSFER TO NEWLIN                                                              *206 LM00213
                 ...                                                                                   LM00214
                  ...ROUTINES FOR XPANDING SQUASHED FILES                                              LM00215
                  INTERNAL FUNCTION                                                               *207 LM00216
                  ENTRY TO ARCH.                                                                  *208 LM00217
      GO          WHENEVER WC .E. 0                                                               *209 LM00218
                    ACNT = ACNT+1                                                                 *210 LM00219
                    END = READLN.(CARD,132)                                                       *211 LM00220
                    TRANSFER TO GO                                                                *212 LM00221
                  OR WHENEVER WC .E. 9 .AND. ACNT .E. 4                                           *213 LM00222
                    COUNT = 0                                                                     *214 LM00223
                    ACNT = 0                                                                      *215 LM00224
                    LISP.                                                                         *216 LM00225
                    CARD(1) = 1                                                                   *217 LM00226
                    WHENEVER SS, CARD(1) = DASH                                                   *218 LM00227
                    WHENEVER .NOT. PRINTS, CARD(1) = BLANK                                        *219 LM00228
                    CONTRL = 1B                                                                   *220 LM00229
                    BLANK(14) = BLANK(1)                                                          *221 LM00230
                    BLANK(15) = BLANK(1)                                                          *222 LM00231
                    GETFNT.(LINE(2))                                                              *223 LM00232
                    FUNCTION RETURN                                                               *224 LM00233
                  OR WHENEVER ACNT .G.0                                                           *225 LM00234
                    THROUGH GORNK,FOR ACNT = ACNT,-1,ACNT.LE.0                                    *226 LM00235
                    WHENEVER SR                                                                   *227 LM00236
                      TEMP = DERBC.(COUNT)                                                        *228 LM00237
                      COUNT = COUNT + 10                                                          *229 LM00238
                      BLANK(14) = TEMP.RS.18.V.60606K7                                            *230 LM00239
                      BLANK(15) = TEMP.LS.24.V.60606060K                                          *231 LM00240
                     VECTOR VALUES BLANK(1) =$$,$$,$$,$$,$$,$$,$$,$$,$$,$$,$$,$$,$$,$$,$$         *232 LM00241
                    OTHERWISE                                                                     *233 LM00242
                      BLANK(14) = BLANK(1)                                                        *234 LM00243
                      BLANK(15) = BLANK(1)                                                        *235 LM00244
                    END OF CONDITIONAL                                                            *236 LM00245
                    NPRINT.(BLANK(1)...BLANK(15))                                                 *237 LM00246
      GORNK         CONTINUE                                                                      *238 LM00247
                  END OF CONDITIONAL                                                              *239 LM00248
                  DETAB(0).                                                                       *240 LM00249
                  FUNCTION RETURN                                                                 *241 LM00250
                  END OF FUNCTION                                                                 *242 LM00251
                 ...                                                                                   LM00252
                 ...                                                                                   LM00253
                  INTERNAL FUNCTION                                                               *243 LM00254
                  ENTRY TO OTHER.                                                                 *244 LM00255
                  VECTOR VALUES OTHTAB=11,21,31,41,51,61,71,81,91,101,111,121,-0                  *245 LM00256
                  END=UNTAB.(OTHTAB,0,CARD(0),CARD(SSS),END)                                      *246 LM00257
                  WHENEVER SSS .G. 0                                                              *247 LM00258
                    END = END + SSS                                                               *248 LM00259
                    WHENEVER END .G. 132, END = 132                                               *249 LM00260
                    THROUGH SSSLP, FOR Q = 1, 1, Q .G. SSS                                        *250 LM00261
                      CARD(Q) = BLANK                                                             *251 LM00262
      SSSLP         CONTINUE                                                                      *252 LM00263
                  END OF CONDITIONAL                                                              *253 LM00264
                  FUNCTION RETURN                                                                 *254 LM00265
                  END OF FUNCTION                                                                 *255 LM00266
                 ...                                                                                   LM00267
                  .....                                                                                LM00268
                  INTERNAL FUNCTION                                                               *256 LM00269
                  ENTRY TO FAP.                                                                   *257 LM00270
                  VECTOR VALUES FAPTAB=8,16,30,34,38,42,46,55,-0                                  *258 LM00271
                  END=UNTAB.(FAPTAB,0,CARD(0),CARD(0),END)                                        *259 LM00272
                  END=SERIAL.(CARD(0),COUNT,END,TRSW)                                             *260 LM00273
                  FUNCTION RETURN                                                                 *261 LM00274
                  END OF FUNCTION                                                                 *262 LM00275
                 ....                                                                                  LM00276
                  ....                                                                                 LM00277
                  INTERNAL FUNCTION                                                               *263 LM00278
                  ENTRY TO ALGOL.                                                                 *264 LM00279
                  VECTOR VALUES ALGTAB=11,16,21,26,31,36,41,46,51,56,61,66,-0                     *265 LM00280
                  END=UNTAB.(ALGTAB,0,CARD(0),CARD(1),END)+1                                      *266 LM00281
                  CARD(1)=BLANK                                                                   *267 LM00282
                  FUNCTION RETURN                                                                 *268 LM00283
                  END OF FUNCTION                                                                 *269 LM00284
                 ....                                                                                  LM00285
                  ....                                                                                 LM00286
                  INTERNAL FUNCTION                                                               *270 LM00287
                  ENTRY TO LISP.                                                                  *271 LM00288
                  ENTRY TO SCRIPT.                                                                *272 LM00289
                  VECTOR VALUES LSPTAB=-0                                                         *273 LM00290
                  WHENEVER END .G. 131, END = 131                                                 *274 LM00291
                  END=UNTAB.(LSPTAB,0,CARD(0),CARD(1),END)+1                                      *275 LM00292
                  CARD(1)=BLANK                                                                   *276 LM00293
                  FUNCTION RETURN                                                                 *277 LM00294
                  END OF FUNCTION                                                                 *278 LM00295
                 ....                                                                                  LM00296
                  ....                                                                                 LM00297
                  INTERNAL FUNCTION                                                               *279 LM00298
                  ENTRY TO MAD.                                                                   *280 LM00299
                  VECTOR VALUES MADTAB=12,17,22,27,32,37,42,47,55,-0                              *281 LM00300
                  VECTOR VALUES MDBKSP=12                                                         *282 LM00301
                  END=UNTAB.(MADTAB,MDBKSP,CARD(0),CARD(0),END)                                   *283 LM00302
                  END=SERIAL.(CARD(0),COUNT,END,TRSW)                                             *284 LM00303
                  FUNCTION RETURN                                                                 *285 LM00304
                  END OF FUNCTION                                                                 *286 LM00305
                 .....                                                                                 LM00306
                  .....                                                                                LM00307
                  INTERNAL FUNCTION(CARDTP,LIMIT)                                                 *287 LM00308
                  ENTRY TO READLN.                                                                *288 LM00309
                  MARK = BUF(J-M) .A. 777777K6                                                    *289 LM00310
                  WHENEVER MARK .NE. 777777K6, TRANSFER TO XER                                    *290 LM00311
      RDCONT      WC = BUF(J-M) .A. 77777K                                                        *291 LM00312
                  WHENEVER WC .E. 0, LINE(1) = $$                                                 *292 LM00313
                  READBF.                                                                         *293 LM00314
                  THROUGH RDLP1, FOR N = 1,1, N .G. WC .OR. N .G. 150                             *294 LM00315
                     LINE(N) = BUF(J-M)                                                           *295 LM00316
      RDLP1          READBF.                                                                      *296 LM00317
                  N = N-1                                                                         *297 LM00318
                  ENDTP = UNPACK.(LINE,N,CARDTP,LIMIT)                                            *298 LM00319
                  ENDTP = ENDTP - 1                                                               *299 LM00320
                     WHENEVER ENDTP .G. LIMIT                                                     *300 LM00321
                        LNSCAN.                                                                   *301 LM00322
                        TRANSFER TO ER37                                                          *302 LM00323
                     END OF CONDITIONAL                                                           *303 LM00324
      RDLP3       FUNCTION RETURN ENDTP                                                           *304 LM00325
                  END OF FUNCTION                                                                 *305 LM00326
      ER30        ERR.(MSG30...MSG30(2),ONOFRT,FAILED)                                            *306 LM00327
                     VECTOR VALUES MSG30 = $ERR READING FILE$                                     *307 LM00328
                     VECTOR VALUES MSG31 = $ ******LINE IS TOO LONG$                              *308 LM00329
                     VECTOR VALUES MSG32 = $ *****LINE-MARK ERROR$                                *309 LM00330
      ER33        ERR.(MSG33...MSG33(2),OFRT,ERXT)                                                *310 LM00331
                     VECTOR VALUES MSG33 = $CAN'T DELETE FILE$                                    *311 LM00332
      ER34        ERR.(MSG34...MSG34( 2),ONOFRT,FLD1)                                             *312 LM00333
                     VECTOR VALUES MSG34 = $FILE NOT FOUND$                                       *313 LM00334
      ER35        ERR.(MSG35...MSG35(4),ONOFRT,FLD1)                                              *314 LM00335
                     VECTOR VALUES MSG35 = $CAN'T OUTPUT A PRIVATE FILE$                          *315 LM00336
      ER36        ERR.(MSG36...MSG36(2),ONOFRT,FLD1)                                              *316 LM00337
                     VECTOR VALUES MSG36 = $CAN'T CLOSE FILE.$                                    *317 LM00338
      ER37        ERR.(MSG31...MSG31(3),OFRT,RDLP3)                                               *318 LM00339
      ER38        ERR.(MSG32...MSG32(3),OFRT,XER37)                                               *319 LM00340
      ER39        ERR.(MSG39...MSG39(3),OFRT,ERXT)                                                *320 LM00341
                     VECTOR VALUES MSG39 = $LINKED FILE NOT DELETED$                              *321 LM00342
      ER40        ERR.(MSG40...MSG40(4),OFRT,ERXT)                                                *322 LM00343
                     VECTOR VALUES MSG40 = $CAN'T DELETE PROTECTED FILE.$                         *323 LM00344
      XER         L(15) = $$                                                                      *324 LM00345
                  FLAG = 0                                                                        *325 LM00346
                  THROUGH GAZABE, FOR N = 1,1,N.G.14                                              *326 LM00347
                    L(15-N) = BUF(J-M)                                                            *327 LM00348
                  READBF.                                                                         *328 LM00349
                  WHENEVER BUF(J-M).A.777777K6.E.777777K6                                         *329 LM00350
                    FLAG = 7                                                                      *330 LM00351
                    WHENEVER PRINTS                                                               *331 LM00352
                      NPRINT.(L(15)...L(15-N))                                                    *332 LM00353
                    OTHERWISE                                                                     *333 LM00354
                      DPUNCH.(L(14)...L(15-N))                                                    *334 LM00355
                    END OF CONDITIONAL                                                            *335 LM00356
                  WHENEVER N.NE.14,TRANSFER TOER38                                                *336 LM00357
      XER37         TRANSFER TO RDCONT                                                            *337 LM00358
                  END OF CONDITIONAL                                                              *338 LM00359
      GAZABE      CONTINUE                                                                        *339 LM00360
                  WHENEVER PRINTS                                                                 *340 LM00361
                  NPRINT.(L(15)...L(1))                                                           *341 LM00362
                  OTHERWISE                                                                       *342 LM00363
                    DPUNCH.(L(14)...L(1))                                                         *343 LM00364
                  END OF CONDITIONAL                                                              *344 LM00365
                  TRANSFER TO XER                                                                 *345 LM00366
      FAILED      CLOSE.(FNAM1,FNAM2,ER36,ERCOD)                                                  *346 LM00367
      FLD1        WHENEVER PRINTS                                                                 *347 LM00368
                  OTHERWISE                                                                       *348 LM00369
                     PNCEOF.                                                                      *349 LM00370
                  END OF CONDITIONAL                                                              *350 LM00371
      ERXT        FUNCTION RETURN 0                                                               *351 LM00372
                 ....                                                                                  LM00373
                  ....                                                                                 LM00374
                  INTERNAL FUNCTION                                                               *352 LM00375
                  ENTRY TO LNSCAN.                                                                *353 LM00376
       RDNXT      READBF.                                                                         *354 LM00377
                  MARK = BUF(J-M) .A. 777777K6                                                    *355 LM00378
                  WHENEVER MARK .NE. 777777K6, TRANSFER TO RDNXT                                  *356 LM00379
                  WC = BUF(J-M) .A. 77777K                                                        *357 LM00380
                  FUNCTION RETURN                                                                 *358 LM00381
                  END OF FUNCTION                                                                 *359 LM00382
                  INTERNAL FUNCTION                                                               *360 LM00383
                  ENTRY TO READBF.                                                                *361 LM00384
                  M = M+1                                                                         *362 LM00385
                  WHENEVER M .GE. EOFCT                                                           *363 LM00386
                     M = 0                                                                        *364 LM00387
                     WHENEVER K .G. 433                                                           *365 LM00388
                        K = 432                                                                   *366 LM00389
                        J = 864                                                                   *367 LM00390
                     OTHERWISE                                                                    *368 LM00391
                        K = 864                                                                   *369 LM00392
                        J = 432                                                                   *370 LM00393
                     END OF CONDITIONAL                                                           *371 LM00394
                     WHENEVER EOFSWT .NE. 0, TRANSFER TO EOF3                                     *372 LM00395
                     RDFILE.(FNAM1,FNAM2,0,BUF(K)...432,EOF,EOFCT,ER30,ERCOD)                     *373 LM00396
                  END OF CONDITIONAL                                                              *374 LM00397
      RDXT        FUNCTION RETURN                                                                 *375 LM00398
                  END OF FUNCTION                                                                 *376 LM00399
                                                                                                       LM00400
                 ...PROGRAM DATA                                                                       LM00401
                  BOOLEAN CONTRL,SR,PRINTS,TRSW,SS,ARCHIV,DLTSWT                                  *377 LM00402
                  VECTOR VALUES EOFSWT = 0                                                        *378 LM00403
                  VECTOR VALUES FLAG = 0                                                          *379 LM00404
                  DIMENSION L(30),T(8),CARD(150),LINE(150)                                        *380 LM00405
                  FUNCTION NAME DETAB                                                             *381 LM00406
                  VECTOR VALUES NULL = 57K                                                        *382 LM00407
                  VECTOR VALUES SEVENS = 77K                                                      *383 LM00408
                  VECTOR VALUES BCKSPS = 35K                                                      *384 LM00409
                  VECTOR VALUES TAB = 72K                                                         *385 LM00410
                  VECTOR VALUES BLANK = 60K                                                       *386 LM00411
                  VECTOR VALUES DASH = 40K                                                        *387 LM00412
                  VECTOR VALUES M = 0                                                             *388 LM00413
                  VECTOR VALUES ASTERS    = $******************************$                      *389 LM00414
                  VECTOR VALUES ASTERS(5) = $******************************$                      *390 LM00415
                  VECTOR VALUES ASTERS(10)= $******************************$                      *391 LM00416
                  VECTOR VALUES ASTERS(15)= $******************************$                      *392 LM00417
                  VECTOR VALUES ASTERS(20)= $************1*****$                                  *393 LM00418
                  INSERT FILE COMDSK                                                              *394 LM00419
                 ...COMMON PACKAGE FOR DISK EDITOR -DSKEDT                                        *394 LM00001
                  PROGRAM COMMON B4SWT,PRIVIL,CARSWT,PRNSWT                                       *395 LM00002
                  PROGRAM COMMON PROB,PROG,FNAM1,FNAM2,MODE,C,ERCOD,DUM                           *396 LM00003
                  PROGRAM COMMON PROB1, PROG1, DATE,TIME,BUF                                      *397 LM00004
                  FUNCTION NAME CTLF,EXIT                                                         *398 LM00005
                  DIMENSION C(14),BUF(864)                                                        *399 LM00006
                  VECTOR VALUES ONOFRT = 7                                                        *400 LM00007
                  VECTOR VALUES ONRT = 5                                                          *401 LM00008
                  VECTOR VALUES OFRT = 3                                                          *402 LM00009
                  VECTOR VALUES ONOF = 6                                                          *403 LM00010
                  VECTOR VALUES ON = 4                                                            *404 LM00011
                  VECTOR VALUES OF = 2                                                            *405 LM00012
                  VECTOR VALUES EOFCT = 0                                                         *406 LM00013
                  VECTOR VALUES MZE = -0                                                          *407 LM00014
                  VECTOR VALUES DSKEDT = $DSKEDT$                                                 *408 LM00015
                  VECTOR VALUES FILE = $.FILE.$                                                   *409 LM00016
                  VECTOR VALUES CRYMAP = $CRYMAP$                                                 *410 LM00017
                  NORMAL MODE IS INTEGER                                                          *411 LM00018
                  END OF FUNCTION                                                                 *412 LM00420
1MAD PROGRAM,TYPE NOV 1963      (ALL NUMBERS ARE OCTAL)
0TOTAL LOCATIONS   03324 TRANSFER VECTOR LENGTH  00023 PROGRAM BEGINS    01171 FIRST UNUSED COMMON/ERASABLE  75662
0 PROGRAM IS AN EXTERNAL FUNCTION.   THE FOLLOWING ARE ENTRIES
      DPNCH  01266   0        PRNT   01226   0        SSPRDL 01216   0        SSPRNT 01206   0        DPUDL  01200   0
      PRNDL  01172   0
0VARIABLE STORAGE (A=ARRAY,C=COMMON,E=ERASABLE,DIGIT=MODE)
      ACNT   00077   1        EOF1   00041   4        FNAM2  77452  C1        MSG39  01012 A 1        PROG   77454  C1
      ALGTAB 00114 A 1        EOF2   00042   4        GAZABE 00036   4        MSG40  01017 A 1        PRPU   00070   4
      ARCHIV 00115   2        EOF3   00043   4        GORNK  00036   4        MZE    01020 A 1        Q      01047   1
      ASTERS 00144 A 1        EOFCT  00426 A 1        GO     00062   4        NARCH  00063   4        RDCONT 00071   4
      B4SWT  77461  C1        EOF    00044   4        GW1    00444   1        NEWLIN 00064   4        RDLP1  00036   4
      BCKSPS 00145 A 1        EOFSWT 00427 A 1        GW2    00445   1        NEXT   00036   4        RDLP3  00072   4
      BLANK  00165 A 1        EOFTMP 00430   1        GWT    00446   1        N      01021   1        RDNXT  00073   4
      BLKLP  00036   4        ER30   00045   4        JI     00447   1        NULL   01022 A 1        RDXT   00074   4
      BUF    77423 AC1        ER33   00046   4        J      00450   1        OFRT   01023 A 1        SEVENS 01050 A 1
      CARD   00414 A 1        ER34   00047   4        K      00451   1        OF     01024 A 1        SR     01051   2
      CARSWT 77457  C1        ER35   00050   4        LINE   00700 A 1        ONOFRT 01025 A 1        SS     01052   2
      CONTRL 00415   2        ER36   00051   4        L      00737 A 1        ONOF   01026 A 1        SSSLP  00036   4
      COUNT  00416   1        ER37   00052   4        LSPTAB 00740 A 1        ONRT   01027 A 1        SSS    01053   1
      CRYMAP 00417 A 1        ER38   00053   4        MADTAB 00752 A 1        ON     01030 A 1        TAB    01054 A 1
      C      77450 AC1        ER39   00054   4        MARK   00753   1        OTHTAB 01045 A 1        TEMP   01055   1
      DASH   00420 A 1        ER40   00055   4        MDBKSP 00754 A 1        PRINTS 01046   2        TIME   77424  C1
      DATE   77425  C1        ERCOD  77431  C1        MODE   77451  C1        PRIVIL 77460  C1        TITLE  01075 A 1
      DEBLCK 00037   4        ERXT   00056   4        M      00755 A 1        PRL    00065   4        TRSW   01076   2
      DETAB  00421   3        FAILED 00057   4        MSG30  00760 A 1        PRNSWT 77456  C1        TRUN   01103 A 1
      DLTSWT 00422   2        FAPTAB 00441 A 1        MSG31  00764 A 1        PRNT1  00066   4        T      01114 A 1
      DPNCH1 00040   4        FILE   00442 A 1        MSG32  00770 A 1        PRNT2  00067   4        WC     01115   1
      DSKEDT 00423 A 1        FINI   00060   4        MSG33  00773 A 1        PROB1  77427  C1        WMAX   01116   1
      DUM    77430  C1        FLAG   00443 A 1        MSG34  00776 A 1        PROB   77455  C1        XER37  00075   4
      END    00424   1        FLD1   00061   4        MSG35  01003 A 1        PROG1  77426  C1        XER    00076   4
      ENDTP  00425   1        FNAM1  77453  C1        MSG36  01006 A 1
0FUNCTION DICTIONARY
      BPNCHI 00000   1        BPUNCH 00001   1        CHFILE 00002   1        CLOSE  00003   1        DERBC  00004   1
      DPUNCH 00005   1        ERR    00006   1        EXIT   00007   3        FLIP1  00010   1        FSTATE 00011   1
      NPRINT 00012   1        ONLINE 00013   1        OPEN   00014   1        PACKFP 00015   1        PNCEOF 00016   1
      RDFILE 00017   1        SERIAL 00020   1        UNPACK 00021   1        UNTAB  00022   1        ALGOL  00023   1
      ARCH   00024   1        FAP    00025   1        GETFNT 00026   1        LISP   00027   1        LNSCAN 00030   1
      MAD    00031   1        OTHER  00032   1        READBF 00033   1        READLN 00034   1        SCRIPT 00035   1
0ABSOLUTE CONSTANTS
 01144 +000000000661     01142 +000000000226     01140 +000000000203     01150 +000060606060     01134 +000000000030
 01160 -206060000000     01131 +000000000022     01124 +000000000011     01167 -377777000011     01121 +000000000004
 01165 -222351314763     01157 -206043316247     01153 -036247466463     01156 -202143274643     01161 -206060262147
 01164 -206060632147     01162 -206060442124     01155 -116445234644     01135 +000000000043     01137 +000000000120
 01141 +000000000204     01122 +000000000007     01136 +000000000077     01166 -377777000000     01132 +000000000024
 01154 -116060606060     01130 +000000000020     01125 +000000000012     01123 +000000000010     01127 +000000000017
 01145 +000000001540     01143 +000000000660     01146 +000000002202     01163 -206060606060     01152 +244764452330
 01170 -377777777777     01126 +000000000016     01147 +000000077777     01133 +000000000026     01117 +000000000000
 01120 +000000000001     01151 +233000000000
0STATEMENT DICTIONARY
 00037 TXL -301505001473       00040 TXL -301274001272       00041 TXL -301676001674       00042 TXL -301570001565
 00043 TXL -301560001554       00044 TXL -301535001530       00045 TXL -303005003001       00046 TXL -303011003005
 00047 TXL -303015003011       00050 TXL -303021003015       00051 TXL -303025003021       00052 TXL -303031003025
 00053 TXL -303035003031       00054 TXL -303041003035       00055 TXL -303045003041       00056 TXL -303164003162
 00057 TXL -303156003151       00060 TXL -301467001463       00061 TXL -303160003156       00062 TXL -302257002254
 00063 TXL -302153002153       00064 TXL -302161002157       00065 TXL -301737001735       00066 TXL -301234001232
 00067 TXL -301236001234       00070 TXL -301352001350       00071 TXL -302703002675       00072 TXL -302763002761
 00073 TXL -303171003170       00074 TXL -303277003276       00075 TXL -303140003137       00076 TXL -303047003045
0PROGRAM
                 EXTERNAL FUNCTION                                                  001  LM00002
                 ENTRY TO PRNDL.                                                    002  LM00003
 01171 TRA +0 02000 0 01174    01172 SXA +0 63400 2 03311    01173 TSX +0 07400 2 03311
                 DLTSWT = 1B                                                        003  LM00004
 01174 CLA +0 50000 0 01120    01175 STO +0 60100 0 00422
                 T'O PRNT1                                                          004  LM00005
 01176 TRA +0 02000 0 00066
                 ENTRY TO DPUDL.                                                    005  LM00006
 01177 TRA +0 02000 0 01202    01200 SXA +0 63400 2 03311    01201 TSX +0 07400 2 03311
                 DLTSWT = 1B                                                        006  LM00007
 01202 CLA +0 50000 0 01120    01203 STO +0 60100 0 00422
                 T'O DPNCH1                                                         007  LM00008
 01204 TRA +0 02000 0 00040
                 ENTRY TO SSPRNT.                                                   008  LM00009
 01205 TRA +0 02000 0 01210    01206 SXA +0 63400 2 03311    01207 TSX +0 07400 2 03311
                   DLTSWT = 0B                                                      009  LM00010
 01210 CLA +0 50000 0 01117    01211 STO +0 60100 0 00422
                   SS = 1B                                                          010  LM00011
 01212 CLA +0 50000 0 01120    01213 STO +0 60100 0 01052
                   T'O PRNT2                                                        011  LM00012
 01214 TRA +0 02000 0 00067
                 ENTRY TO SSPRDL.                                                   012  LM00013
 01215 TRA +0 02000 0 01220    01216 SXA +0 63400 2 03311    01217 TSX +0 07400 2 03311
                   DLTSWT = 1B                                                      013  LM00014
 01220 CLA +0 50000 0 01120    01221 STO +0 60100 0 00422
                   SS = 1B                                                          014  LM00015
 01222 CLA +0 50000 0 01120    01223 STO +0 60100 0 01052
                   T'O PRNT2                                                        015  LM00016
 01224 TRA +0 02000 0 00067
                 ENTRY TO PRNT.                                                     016  LM00017
 01225 TRA +0 02000 0 01230    01226 SXA +0 63400 2 03311    01227 TSX +0 07400 2 03311
                 DLTSWT = 0B                                                        017  LM00018
 01230 CLA +0 50000 0 01117    01231 STO +0 60100 0 00422
      PRNT1      SS = 0B                                                            018  LM00019
 01232 CLA +0 50000 0 01117    01233 STO +0 60100 0 01052
      PRNT2         PRINTS = 1B                                                     019  LM00020
 01234 CLA +0 50000 0 01120    01235 STO +0 60100 0 01046
                    WMAX = 22                                                       020  LM00021
 01236 CLA +0 50000 0 01133    01237 STO +0 60100 0 01116
                 NPRINT.(ASTERS(22)...ASTERS(1))                                    021  LM00022
 01240 TSX +0 07400 4 00012    01241 TIX +2 00143 0 00116
                 TITLE(14) = PROB                                                   022  LM00023
 01242 CLA +0 50000 0 77455    01243 STO +0 60100 0 01057
                 TITLE(12) = PROG                                                   023  LM00024
 01244 CLA +0 50000 0 77454    01245 STO +0 60100 0 01061
                 TITLE(10) = FNAM1                                                  024  LM00025
 01246 CLA +0 50000 0 77453    01247 STO +0 60100 0 01063
                 TITLE(8) = FNAM2                                                   025  LM00026
 01250 CLA +0 50000 0 77452    01251 STO +0 60100 0 01065
                 TITLE(6) = PROB1                                                   026  LM00027
 01252 CLA +0 50000 0 77427    01253 STO +0 60100 0 01067
                 TITLE(4) = PROG1                                                   027  LM00028
 01254 CLA +0 50000 0 77426    01255 STO +0 60100 0 01071
                 TITLE(2) = DATE                                                    028  LM00029
 01256 CLA +0 50000 0 77425    01257 STO +0 60100 0 01073
                 TITLE = TIME                                                       029  LM00030
 01260 CLA +0 50000 0 77424    01261 STO +0 60100 0 01075
                 V'S TITLE = $$,$$,$$,$$                                            030  LM00031
 01072     -2 06060 6 06060    01073     -2 06060 6 06060    01074     -2 06060 6 06060    01075     -2 06060 6 06060
                    V'S TITLE(4) = $$,$$,$$,$ FOR $,$$,$$,$$,$$,$$,$$,$$,$$         031  LM00032
 01056     -2 06060 6 06060    01057     -2 06060 6 06060    01060     -2 06060 6 06060    01061     -2 06060 6 06060
 01062     -2 06060 6 06060    01063     -2 06060 6 06060    01064     -2 06060 6 06060    01065     -2 06060 6 06060
 01066     -2 02646 5 16060    01067     -2 06060 6 06060    01070     -2 06060 6 06060    01071     -2 06060 6 06060
                 NPRINT.(TITLE(15)...TITLE)                                         032  LM00033
 01262 TSX +0 07400 4 00012    01263 TIX +2 01075 0 01056
                 T'O PRPU                                                           033  LM00034
 01264 TRA +0 02000 0 00070
                 ENTRY TO DPNCH.                                                    034  LM00036
 01265 TRA +0 02000 0 01270    01266 SXA +0 63400 2 03311    01267 TSX +0 07400 2 03311
                 DLTSWT = 0B                                                        035  LM00037
 01270 CLA +0 50000 0 01117    01271 STO +0 60100 0 00422
      DPNCH1         PRINTS = 0B                                                    036  LM00038
 01272 CLA +0 50000 0 01117    01273 STO +0 60100 0 01046
                     SS = 0B                                                        037  LM00039
 01274 CLA +0 50000 0 01117    01275 STO +0 60100 0 01052
                 SS = 0B                                                            038  LM00040
 01276 CLA +0 50000 0 01117    01277 STO +0 60100 0 01052
                 B4SWT = 77777K                                                     039  LM00041
 01300 CLA +0 50000 0 01147    01301 STO +0 60100 0 77461
                    WMAX = 14                                                       040  LM00042
 01302 CLA +0 50000 0 01126    01303 STO +0 60100 0 01116
                   L(9) = PROB                                                      041  LM00043
 01304 CLA +0 50000 0 77455    01305 STO +0 60100 0 00726
                   L(8) = PROG                                                      042  LM00044
 01306 CLA +0 50000 0 77454    01307 STO +0 60100 0 00727
                   L(6) = FNAM1                                                     043  LM00045
 01310 CLA +0 50000 0 77453    01311 STO +0 60100 0 00731
                   L(5) = FNAM2                                                     044  LM00046
 01312 CLA +0 50000 0 77452    01313 STO +0 60100 0 00732
                   L(7) = DATE                                                      045  LM00047
 01314 CLA +0 50000 0 77425    01315 STO +0 60100 0 00730
                   L(4) = TIME                                                      046  LM00048
 01316 CLA +0 50000 0 77424    01317 STO +0 60100 0 00733
                   L(3) = 777777777777K                                             047  LM00049
 01320 CLA +0 50000 0 01170    01321 STO +0 60100 0 00734
                   FLIP1.(L(9))                                                     048  LM00050
 01322 TSX +0 07400 4 00010    01323 TXH +3 00000 0 00726
                   L(10) = $DPUNCH$                                                 049  LM00051
 01324 CLA +0 50000 0 01152    01325 STO +0 60100 0 00725
                   L(7) = PROB1                                                     050  LM00052
 01326 CLA +0 50000 0 77427    01327 STO +0 60100 0 00730
                   L(6) = PROG1                                                     051  LM00053
 01330 CLA +0 50000 0 77426    01331 STO +0 60100 0 00731
                   L(5) = FNAM1                                                     052  LM00054
 01332 CLA +0 50000 0 77453    01333 STO +0 60100 0 00732
                   L(4) = FNAM2                                                     053  LM00055
 01334 CLA +0 50000 0 77452    01335 STO +0 60100 0 00733
                   L(3) = $$                                                        054  LM00056
 01336 CLA +0 50000 0 01163    01337 STO +0 60100 0 00734
                   L(2) = DATE                                                      055  LM00057
 01340 CLA +0 50000 0 77425    01341 STO +0 60100 0 00735
                   L(1) = TIME                                                      056  LM00058
 01342 CLA +0 50000 0 77424    01343 STO +0 60100 0 00736
                   BPNCHI.(2202K)                                                   057  LM00059
 01344 TSX +0 07400 4 00000    01345 TXH +3 00000 0 01146
                   BPUNCH.(L(10)...L(1))                                            058  LM00060
 01346 TSX +0 07400 4 00001    01347 TIX +2 00736 0 00725
      PRPU       J = 432                                                            059  LM00061
 01350 CLA +0 50000 0 01143    01351 STO +0 60100 0 00450
                 K = 864                                                            060  LM00062
 01352 CLA +0 50000 0 01145    01353 STO +0 60100 0 00451
                 EOFCT = 432                                                        061  LM00063
 01354 CLA +0 50000 0 01143    01355 STO +0 60100 0 00426
                 M= 0                                                               062  LM00064
 01356 CLA +0 50000 0 01117    01357 STO +0 60100 0 00755
                 EOFSWT = 0                                                         063  LM00065
 01360 CLA +0 50000 0 01117    01361 STO +0 60100 0 00427
                 TRSW = 0B                                                          064  LM00066
 01362 CLA +0 50000 0 01117    01363 STO +0 60100 0 01076
                 GW1 = 15                                                           065  LM00067
 01364 CLA +0 50000 0 01127    01365 STO +0 60100 0 00444
                 GW2 = 14                                                           066  LM00068
 01366 CLA +0 50000 0 01126    01367 STO +0 60100 0 00445
                 L(15) = $$                                                         067  LM00069
 01370 CLA +0 50000 0 01163    01371 STO +0 60100 0 00720
                 WC = 14                                                            068  LM00070
 01372 CLA +0 50000 0 01126    01373 STO +0 60100 0 01115
                 FSTATE.(FNAM1,FNAM2,T(8)...8,ER34)                                 069  LM00071
 01374 TSX +0 07400 4 00011    01375 TXH +3 00000 0 77453    01376 TXH +3 00000 0 77452    01377 TIX +2 01123 0 01104
 01400 TXH +3 00000 0 00047
                 T(1) = 10                                                          070  LM00072
 01401 CLA +0 50000 0 01125    01402 STO +0 60100 0 01113
                 W'R T(7) .A. 20K .NE. 0 .AND. PRIVIL .E. 0, T'O ER35               071  LM00073
 01403 CLA +0 50000 0 77460    01404 SUB +0 40200 0 01117    01405 TNZ -0 10000 0 01415    01406 CAL -0 50000 0 01105
 01407 ANA -0 32000 0 01130    01410 SLW +0 60200 0 03321    01411 CLA +0 50000 0 03321    01412 SUB +0 40200 0 01117
 01413 TZE +0 10000 0 01415    01414 TRA +0 02000 0 00050
                 OPEN.($R$, FNAM1,FNAM2,MZE,MZE,ER34,ERCOD)                         072  LM00074
 01415 TSX +0 07400 4 00014    01416 TXH +3 00000 0 01154    01417 TXH +3 00000 0 77453    01420 TXH +3 00000 0 77452
 01421 TXH +3 00000 0 01020    01422 TXH +3 00000 0 01020    01423 TXH +3 00000 0 00047    01424 TXH +3 00000 0 77431
                 RDFILE.(FNAM1,FNAM2,0,BUF(J)...432,EOF,EOFCT,ER30,ERCOD)           073  LM00075
 01425 CLA +0 50000 0 00450    01426 SUB +0 40200 0 01427    01427 TXH +3 00000 0 77423    01430 STA +0 62100 0 01435
 01431 TSX +0 07400 4 00017    01432 TXH +3 00000 0 77453    01433 TXH +3 00000 0 77452    01434 TXH +3 00000 0 01117
 01435 TIX +2 01143 0 00000    01436 TXH +3 00000 0 00044    01437 TXH +3 00000 0 00426    01440 TXH +3 00000 0 00045
 01441 TXH +3 00000 0 77431
                 T(1) = 15                                                          074  LM00076
 01442 CLA +0 50000 0 01127    01443 STO +0 60100 0 01113
                 RDFILE.(FNAM1,FNAM2,0,BUF(K)...432,EOF,EOFCT,ER30,ERCOD)           075  LM00077
 01444 CLA +0 50000 0 00451    01445 SUB +0 40200 0 01446    01446 TXH +3 00000 0 77423    01447 STA +0 62100 0 01454
 01450 TSX +0 07400 4 00017    01451 TXH +3 00000 0 77453    01452 TXH +3 00000 0 77452    01453 TXH +3 00000 0 01117
 01454 TIX +2 01143 0 00000    01455 TXH +3 00000 0 00044    01456 TXH +3 00000 0 00426    01457 TXH +3 00000 0 00045
 01460 TXH +3 00000 0 77431
                 T(1) = 20                                                          076  LM00078
 01461 CLA +0 50000 0 01132    01462 STO +0 60100 0 01113
      FINI       MARK = BUF(J) .A. 777777K6                                         077  LM00079
 01463 LXA +0 53400 1 00450    01464 CAL -0 50000 1 77423    01465 ANA -0 32000 0 01166    01466 SLW +0 60200 0 00753
                 W'R MARK .E. 777777K6, T'O PRL                                     078  LM00080
 01467 CLA +0 50000 0 00753    01470 SUB +0 40200 0 01166    01471 TNZ -0 10000 0 01473    01472 TRA +0 02000 0 00065
      DEBLCK     T'H BLKLP, FOR N = 1,1, N .G. 14                                   079  LM00083
 01473 CLA +0 50000 0 01120    01474 STO +0 60100 0 01021    01475 TRA +0 02000 0 01501    01476 CLA +0 50000 0 01021
 01477 ADD +0 40000 0 01120    01500 STO +0 60100 0 01021    01501 CLA +0 50000 0 01021    01502 SUB +0 40200 0 01126
 01503 TZE +0 10000 0 01505    01504 TPL +0 12000 0 01520
                    L(15-N) = BUF(J-M)                                              080  LM00084
 01505 CLA +0 50000 0 00450    01506 SUB +0 40200 0 00755    01507 STO +0 60100 0 03321    01510 CLA +0 50000 0 01127
 01511 SUB +0 40200 0 01021    01512 PAX +0 73400 1 00000    01513 LXA +0 53400 2 03321    01514 CLA +0 50000 2 77423
 01515 STO +0 60100 1 00737
      BLKLP         READBF.                                                         081  LM00085
 01516 TSX +0 07400 4 00033    01517 TRA +0 02000 0 01476
                 W'R PRINTS                                                         082  LM00086
 01520 NZT -0 52000 0 01046    01521 TRA +0 02000 0 01525
                    NPRINT.(L(15)...L(1))                                           083  LM00087
 01522 TSX +0 07400 4 00012    01523 TIX +2 00736 0 00720
                 O'E                                                                084  LM00088
 01524 TRA +0 02000 0 01527
                    DPUNCH.(L(14)...L(1))                                           085  LM00089
 01525 TSX +0 07400 4 00005    01526 TIX +2 00736 0 00721
                 E'L                                                                086  LM00090
                 T'O DEBLCK                                                         087  LM00091
 01527 TRA +0 02000 0 00037
      EOF        CLOSE.(FNAM1,FNAM2,ER30,ERCOD)                                     088  LM00092
 01530 TSX +0 07400 4 00003    01531 TXH +3 00000 0 77453    01532 TXH +3 00000 0 77452    01533 TXH +3 00000 0 00045
 01534 TXH +3 00000 0 77431
                 EOFSWT = 77K                                                       089  LM00093
 01535 CLA +0 50000 0 01136    01536 STO +0 60100 0 00427
                 W'R T(1) .E. 10,T'O FINI                                           090  LM00094
 01537 CLA +0 50000 0 01113    01540 SUB +0 40200 0 01125    01541 TNZ -0 10000 0 01543    01542 TRA +0 02000 0 00060
                 EOFTMP = EOFCT                                                     091  LM00095
 01543 CLA +0 50000 0 00426    01544 STO +0 60100 0 00430
                 EOFCT = 432                                                        092  LM00096
 01545 CLA +0 50000 0 01143    01546 STO +0 60100 0 00426
                 W'R T(1) .E. 15, T'O FINI                                          093  LM00097
 01547 CLA +0 50000 0 01113    01550 SUB +0 40200 0 01127    01551 TNZ -0 10000 0 01553    01552 TRA +0 02000 0 00060
                 T'O RDXT                                                           094  LM00098
 01553 TRA +0 02000 0 00074
      EOF3       W'R T(1) .E. 10, T'O EOF2                                          095  LM00099
 01554 CLA +0 50000 0 01113    01555 SUB +0 40200 0 01125    01556 TNZ -0 10000 0 01560    01557 TRA +0 02000 0 00042
                 EOFCT = EOFTMP                                                     096  LM00100
 01560 CLA +0 50000 0 00430    01561 STO +0 60100 0 00426
                 T(1) = 10                                                          097  LM00101
 01562 CLA +0 50000 0 01125    01563 STO +0 60100 0 01113
                 T'O RDXT                                                           098  LM00102
 01564 TRA +0 02000 0 00074
      EOF2       W'R FLAG .E. 7                                                     099  LM00103
 01565 CLA +0 50000 0 00443    01566 SUB +0 40200 0 01122    01567 TNZ -0 10000 0 01627
                    END = UNPACK.(LINE,N,CARD,132)                                  100  LM00104
 01570 TSX +0 07400 4 00021    01571 TXH +3 00000 0 00700    01572 TXH +3 00000 0 01021    01573 TXH +3 00000 0 00414
 01574 TXH +3 00000 0 01141    01575 STO +0 60100 0 00424
                    END = END - 1                                                   101  LM00105
 01576 CLA +0 50000 0 00424    01577 SUB +0 40200 0 01120    01600 STO +0 60100 0 00424
                    W'R END .G. 132,                                                102  LM00106
                1      ONLINE.(MSG31...MSG31(3))                                    102  LM00107
 01601 CLA +0 50000 0 00424    01602 SUB +0 40200 0 01141    01603 TZE +0 10000 0 01607    01604 TMI -0 12000 0 01607
 01605 TSX +0 07400 4 00013    01606 TIX +2 00761 0 00764
                    COUNT = COUNT + 10                                              103  LM00108
 01607 CLA +0 50000 0 00416    01610 ADD +0 40000 0 01125    01611 STO +0 60100 0 00416
                    DETAB(0).                                                       104  LM00109
 01612 TSX +0 07400 4 00421
                 PACKFP.(CARD,L,END,GW2)                                            105  LM00110
 01613 TSX +0 07400 4 00015    01614 TXH +3 00000 0 00414    01615 TXH +3 00000 0 00737    01616 TXH +3 00000 0 00424
 01617 TXH +3 00000 0 00445
                    W'R PRINTS                                                      106  LM00111
 01620 NZT -0 52000 0 01046    01621 TRA +0 02000 0 01626
                       W'R TRSW,NPRINT.(TRUN...TRUN(4))                             107  LM00112
 01622 NZT -0 52000 0 01076    01623 TRA +0 02000 0 01626    01624 TSX +0 07400 4 00012    01625 TIX +2 01077 0 01103
                    E'L                                                             108  LM00113
                 O'E                                                                109  LM00114
 01626 TRA +0 02000 0 01633
                   GW1 = 15                                                         110  LM00115
 01627 CLA +0 50000 0 01127    01630 STO +0 60100 0 00444
                   GW2 = 14                                                         111  LM00116
 01631 CLA +0 50000 0 01126    01632 STO +0 60100 0 00445
                 E'L                                                                112  LM00117
                 FLAG = 0                                                           113  LM00118
 01633 CLA +0 50000 0 01117    01634 STO +0 60100 0 00443
                 W'R PRINTS                                                         114  LM00119
 01635 NZT -0 52000 0 01046    01636 TRA +0 02000 0 01665
                    W'R GW1 .NE. 22, WC = 15                                        115  LM00120
 01637 CLA +0 50000 0 00444    01640 SUB +0 40200 0 01133    01641 TZE +0 10000 0 01644    01642 CLA +0 50000 0 01127
 01643 STO +0 60100 0 01115
                    NPRINT.(L(GW1)...L(GW1-WC+1))                                   116  LM00121
 01644 CLA +0 50000 0 00444    01645 SUB +0 40200 0 01115    01646 ADD +0 40000 0 01120    01647 SUB +0 40200 0 01650
 01650 TXH +3 00000 0 00737    01651 ALS +0 76700 0 00022    01652 STD +0 62200 0 01660    01653 CLA +0 50000 0 00444
 01654 SUB +0 40200 0 01655    01655 TXH +3 00000 0 00737    01656 STA +0 62100 0 01660    01657 TSX +0 07400 4 00012
 01660 TIX +2 00000 0 00000
                    NPRINT.(ASTERS(22)...ASTERS(1))                                 117  LM00122
 01661 TSX +0 07400 4 00012    01662 TIX +2 00143 0 00116
                    T'O EOF1                                                        118  LM00123
 01663 TRA +0 02000 0 00041
                 O'E                                                                119  LM00124
 01664 TRA +0 02000 0 01674
                    DPUNCH.(L(GW2)...L(1))                                          120  LM00125
 01665 CLA +0 50000 0 00445    01666 SUB +0 40200 0 01667    01667 TXH +3 00000 0 00737    01670 STA +0 62100 0 01672
 01671 TSX +0 07400 4 00005    01672 TIX +2 00736 0 00000
                    PNCEOF.                                                         121  LM00126
 01673 TSX +0 07400 4 00016
                 E'L                                                                122  LM00127
      EOF1       W'R DLTSWT                                                         123  LM00128
 01674 NZT -0 52000 0 00422    01675 TRA +0 02000 0 01733
                    W'R T(7) .L. 0, T'O ER39                                        124  LM00129
 01676 CLA +0 50000 0 01105    01677 SUB +0 40200 0 01117    01700 TZE +0 10000 0 01703    01701 TPL +0 12000 0 01703
 01702 TRA +0 02000 0 00054
                    W'R T(7) .A. 120K .NE. 0, T'O ER40                              125  LM00130
 01703 CAL -0 50000 0 01105    01704 ANA -0 32000 0 01137    01705 SLW +0 60200 0 03321    01706 CLA +0 50000 0 03321
 01707 SUB +0 40200 0 01117    01710 TZE +0 10000 0 01712    01711 TRA +0 02000 0 00055
                    W'R (T(7).RS.35) .NE. 0, T'O ER39                               126  LM00131
 01712 CAL -0 50000 0 01135    01713 STA +0 62100 0 01715    01714 CAL -0 50000 0 01105    01715 LGR -0 76500 0 00000
 01716 SLW +0 60200 0 03321    01717 CLA +0 50000 0 03321    01720 SUB +0 40200 0 01117    01721 TZE +0 10000 0 01723
 01722 TRA +0 02000 0 00054
                     CHFILE.(FNAM1,FNAM2,1,MZE,MZE,ER33,ERCOD)                      127  LM00132
 01723 TSX +0 07400 4 00002    01724 TXH +3 00000 0 77453    01725 TXH +3 00000 0 77452    01726 TXH +3 00000 0 01120
 01727 TXH +3 00000 0 01020    01730 TXH +3 00000 0 01020    01731 TXH +3 00000 0 00046    01732 TXH +3 00000 0 77431
                 E'L                                                                128  LM00133
                 F'N 1                                                              129  LM00134
 01733 CLA +0 50000 0 01120    01734 TRA +0 02000 0 03315
      PRL        GETFNT.(FNAM2)                                                     130  LM00137
 01735 TSX +0 07400 4 00026    01736 TXH +3 00000 0 77452
                 INTERNAL FUNCTION (ARGUME)                                         131  LM00138
 01737 TRA +0 02000 0 02116
                 ENTRY TO GETFNT.                                                   132  LM00139
 01740 TRA +0 02000 0 01743    00026 TTR +0 02100 0 01741    01741 SXA +0 63400 2 02075    01742 TSX +0 07400 2 02075
                 SR = 0B                                                            133  LM00140
 01743 CLA +0 50000 0 01117    01744 STO +0 60100 0 01051
                 L(15) = $$                                                         134  LM00141
 01745 CLA +0 50000 0 01163    01746 STO +0 60100 0 00720
                 SSS = 0                                                            135  LM00142
 01747 CLA +0 50000 0 01117    01750 STO +0 60100 0 01053
                 W'R SS, SSS = 1                                                    136  LM00143
 01751 NZT -0 52000 0 01052    01752 TRA +0 02000 0 01755    01753 CLA +0 50000 0 01120    01754 STO +0 60100 0 01053
                 W'R ARGUME .E. $RUNCOM$                                            137  LM00144
 01755 CLA +0 50000 0 00000    01756 SUB +0 40200 0 01155    01757 TNZ -0 10000 0 01771
                    SSS = 1                                                         138  LM00145
 01760 CLA +0 50000 0 01120    01761 STO +0 60100 0 01053
                    GW1 = 22                                                        139  LM00146
 01762 CLA +0 50000 0 01133    01763 STO +0 60100 0 00444
                    GW2 = 22                                                        140  LM00147
 01764 CLA +0 50000 0 01133    01765 STO +0 60100 0 00445
                    DETAB = OTHER.                                                  141  LM00148
 01766 CLA +0 50000 0 00032    01767 STO +0 60100 0 00421
                 O'R ARGUME .E. $   MAD$                                            142  LM00149
 01770 TRA +0 02000 0 02073    01771 CLA +0 50000 0 00000    01772 SUB +0 40200 0 01162    01773 TNZ -0 10000 0 02005
                    DETAB = MAD.                                                    143  LM00150
 01774 CLA +0 50000 0 00031    01775 STO +0 60100 0 00421
                    SR = 1B                                                         144  LM00151
 01776 CLA +0 50000 0 01120    01777 STO +0 60100 0 01051
                    GW1 = 15                                                        145  LM00152
 02000 CLA +0 50000 0 01127    02001 STO +0 60100 0 00444
                    GW2 = 14                                                        146  LM00153
 02002 CLA +0 50000 0 01126    02003 STO +0 60100 0 00445
                 O'R ARGUME .E. $   FAP$ .OR. ARGUME .E. $   TAP$                   147  LM00154
 02004 TRA +0 02000 0 02073    02005 CLA +0 50000 0 00000    02006 SUB +0 40200 0 01164    02007 TZE +0 10000 0 02013
 02010 CLA +0 50000 0 00000    02011 SUB +0 40200 0 01161    02012 TNZ -0 10000 0 02024
                    DETAB = FAP.                                                    148  LM00155
 02013 CLA +0 50000 0 00025    02014 STO +0 60100 0 00421
                    SR = 1B                                                         149  LM00156
 02015 CLA +0 50000 0 01120    02016 STO +0 60100 0 01051
                    GW1 = 15                                                        150  LM00157
 02017 CLA +0 50000 0 01127    02020 STO +0 60100 0 00444
                    GW2 = 14                                                        151  LM00158
 02021 CLA +0 50000 0 01126    02022 STO +0 60100 0 00445
                 O'R ARGUME .E. $ ALGOL$                                            152  LM00159
 02023 TRA +0 02000 0 02073    02024 CLA +0 50000 0 00000    02025 SUB +0 40200 0 01156    02026 TNZ -0 10000 0 02036
                    GW1 = 22                                                        153  LM00160
 02027 CLA +0 50000 0 01133    02030 STO +0 60100 0 00444
                    GW2 = 22                                                        154  LM00161
 02031 CLA +0 50000 0 01133    02032 STO +0 60100 0 00445
                    DETAB = ALGOL.                                                  155  LM00162
 02033 CLA +0 50000 0 00023    02034 STO +0 60100 0 00421
                 OR WHENEVER ARGUME .E. $  LISP$ .OR. ARGUME .E. $LSPOUT$           156  LM00163
 02035 TRA +0 02000 0 02073    02036 CLA +0 50000 0 00000    02037 SUB +0 40200 0 01153    02040 TZE +0 10000 0 02044
 02041 CLA +0 50000 0 00000    02042 SUB +0 40200 0 01157    02043 TNZ -0 10000 0 02053
                    GW1 = 22                                                        157  LM00164
 02044 CLA +0 50000 0 01133    02045 STO +0 60100 0 00444
                    GW2 = 22                                                        158  LM00165
 02046 CLA +0 50000 0 01133    02047 STO +0 60100 0 00445
                    DETAB = LISP.                                                   159  LM00166
 02050 CLA +0 50000 0 00027    02051 STO +0 60100 0 00421
                 O'R ARGUME .E. $SCRIPT$                                            160  LM00167
 02052 TRA +0 02000 0 02073    02053 CLA +0 50000 0 00000    02054 SUB +0 40200 0 01165    02055 TNZ -0 10000 0 02065
                    GW1 = 22                                                        161  LM00168
 02056 CLA +0 50000 0 01133    02057 STO +0 60100 0 00444
                    GW2 = 22                                                        162  LM00169
 02060 CLA +0 50000 0 01133    02061 STO +0 60100 0 00445
                    DETAB = SCRIPT.                                                 163  LM00170
 02062 CLA +0 50000 0 00035    02063 STO +0 60100 0 00421
                 O'E                                                                164  LM00171
 02064 TRA +0 02000 0 02073
                    GW1 = 22                                                        165  LM00172
 02065 CLA +0 50000 0 01133    02066 STO +0 60100 0 00444
                    GW2 = 22                                                        166  LM00173
 02067 CLA +0 50000 0 01133    02070 STO +0 60100 0 00445
                    DETAB = OTHER.                                                  167  LM00174
 02071 CLA +0 50000 0 00032    02072 STO +0 60100 0 00421
                 E'L                                                                168  LM00175
                 FUNCTION RETURN                                                    169  LM00176
 02073 TRA +0 02000 0 02112
                 END OF FUNCTION                                                    170  LM00177
 02074 TSX +0 07400 4 00007    02075 TXH +3 00000 0 00000    02076 SXD -0 63400 1 02075    02077 SXA +0 63400 4 02112
 02100 CLA +0 50000 4 00001    02101 STA +0 62100 0 01755    02102 STA +0 62100 0 01771    02103 STA +0 62100 0 02005
 02104 STA +0 62100 0 02010    02105 STA +0 62100 0 02024    02106 STA +0 62100 0 02036    02107 STA +0 62100 0 02041
 02110 STA +0 62100 0 02053    02111 TRA +0 02000 2 00001    02112 AXT +0 77400 4 00000    02113 LXA +0 53400 2 02075
 02114 LXD -0 53400 1 02075    02115 TRA +0 02000 4 00001
                 ACNT = 0                                                           171  LM00178
 02116 CLA +0 50000 0 01117    02117 STO +0 60100 0 00077
                 ARCHIV = 0B                                                        172  LM00179
 02120 CLA +0 50000 0 01117    02121 STO +0 60100 0 00115
                 T'H NEXT, FOR JI = J,-1,JI.E.J-4                                   173  LM00180
 02122 CLA +0 50000 0 00450    02123 STO +0 60100 0 00447    02124 TRA +0 02000 0 02130    02125 CLS +0 50200 0 01120
 02126 ADD +0 40000 0 00447    02127 STO +0 60100 0 00447    02130 CLA +0 50000 0 00450    02131 SUB +0 40200 0 01121
 02132 CHS +0 76000 0 00002    02133 ADD +0 40000 0 00447    02134 TZE +0 10000 0 02143
      NEXT       W'R BUF(JI).NE.777777K6,T'O NARCH                                  174  LM00181
 02135 LXA +0 53400 1 00447    02136 CLA +0 50000 1 77423    02137 SUB +0 40200 0 01166    02140 TZE +0 10000 0 02142
 02141 TRA +0 02000 0 00063    02142 TRA +0 02000 0 02125
                 W'R BUF(J-4).E.777777000011K,ARCHIV=1B                             175  LM00182
 02143 CLA +0 50000 0 00450    02144 SUB +0 40200 0 01121    02145 PAX +0 73400 1 00000    02146 CLA +0 50000 1 77423
 02147 SUB +0 40200 0 01167    02150 TNZ -0 10000 0 02153    02151 CLA +0 50000 0 01120    02152 STO +0 60100 0 00115
      NARCH      CONTINUE                                                           176  LM00183
                 FLAG = 7                                                           177  LM00184
 02153 CLA +0 50000 0 01122    02154 STO +0 60100 0 00443
                 COUNT = 0                                                          178  LM00185
 02155 CLA +0 50000 0 01117    02156 STO +0 60100 0 00416
      NEWLIN     TRSW = 0B                                                          179  LM00186
 02157 CLA +0 50000 0 01117    02160 STO +0 60100 0 01076
                 CONTRL = 0B                                                        180  LM00187
 02161 CLA +0 50000 0 01117    02162 STO +0 60100 0 00415
                 END = READLN.(CARD,132)                                            181  LM00188
 02163 TSX +0 07400 4 00034    02164 TXH +3 00000 0 00414    02165 TXH +3 00000 0 01141    02166 STO +0 60100 0 00424
                 COUNT = COUNT + 10                                                 182  LM00189
 02167 CLA +0 50000 0 00416    02170 ADD +0 40000 0 01125    02171 STO +0 60100 0 00416
                 W'R ARCHIV                                                         183  LM00190
 02172 NZT -0 52000 0 00115    02173 TRA +0 02000 0 02176
                   ARCH.                                                            184  LM00191
 02174 TSX +0 07400 4 00024
                 O'E                                                                185  LM00192
 02175 TRA +0 02000 0 02177
                   DETAB(0).                                                        186  LM00193
 02176 TSX +0 07400 4 00421
                 E'L                                                                187  LM00194
                 PACKFP.(CARD,L,END,GW2)                                            188  LM00195
 02177 TSX +0 07400 4 00015    02200 TXH +3 00000 0 00414    02201 TXH +3 00000 0 00737    02202 TXH +3 00000 0 00424
 02203 TXH +3 00000 0 00445
                 W'R PRINTS                                                         189  LM00196
 02204 NZT -0 52000 0 01046    02205 TRA +0 02000 0 02241
                   W'R CONTRL                                                       190  LM00197
 02206 NZT -0 52000 0 00415    02207 TRA +0 02000 0 02214
                     GWT = GW1                                                      191  LM00198
 02210 CLA +0 50000 0 00444    02211 STO +0 60100 0 00446
                     GW1 = GW2                                                      192  LM00199
 02212 CLA +0 50000 0 00445    02213 STO +0 60100 0 00444
                   E'L                                                              193  LM00200
                    NPRINT.(L(GW1)...L(1))                                          194  LM00201
 02214 CLA +0 50000 0 00444    02215 SUB +0 40200 0 02216    02216 TXH +3 00000 0 00737    02217 STA +0 62100 0 02221
 02220 TSX +0 07400 4 00012    02221 TIX +2 00736 0 00000
                   W'R CONTRL                                                       195  LM00202
 02222 NZT -0 52000 0 00415    02223 TRA +0 02000 0 02234
                     GW1 = GWT                                                      196  LM00203
 02224 CLA +0 50000 0 00446    02225 STO +0 60100 0 00444
                   BLANK(14) = BLANK(1)                                             197  LM00204
 02226 CLA +0 50000 0 00164    02227 STO +0 60100 0 00147
                   BLANK(15) = BLANK(1)                                             198  LM00205
 02230 CLA +0 50000 0 00164    02231 STO +0 60100 0 00146
                   NPRINT.(BLANK(1)...BLANK(15))                                    199  LM00206
 02232 TSX +0 07400 4 00012    02233 TIX +2 00146 0 00164
                 E'L                                                                200  LM00207
                    W'R TRSW, NPRINT.(TRUN...TRUN(4))                               201  LM00208
 02234 NZT -0 52000 0 01076    02235 TRA +0 02000 0 02240    02236 TSX +0 07400 4 00012    02237 TIX +2 01077 0 01103
                       V'S TRUN = $ **** THIS LINE WAS TRUNCATED.$                  202  LM00209
 01077     +2 32163 2 52433    01100     -2 26063 5 16445    01101     +3 14525 6 06621    01102     -2 33031 6 26043
 01103     -2 05454 5 45460
                 O'E                                                                203  LM00210
 02240 TRA +0 02000 0 02247
                    DPUNCH.(L(GW2)...L(1))                                          204  LM00211
 02241 CLA +0 50000 0 00445    02242 SUB +0 40200 0 02243    02243 TXH +3 00000 0 00737    02244 STA +0 62100 0 02246
 02245 TSX +0 07400 4 00005    02246 TIX +2 00736 0 00000
                 E'L                                                                205  LM00212
                 T'O NEWLIN                                                         206  LM00213
 02247 TRA +0 02000 0 00064
                 INTERNAL FUNCTION                                                  207  LM00216
 02250 TRA +0 02000 0 02414
                 ENTRY TO ARCH.                                                     208  LM00217
 02251 TRA +0 02000 0 02254    00024 TTR +0 02100 0 02252    02252 SXA +0 63400 2 02404    02253 TSX +0 07400 2 02404
      GO         W'R WC .E. 0                                                       209  LM00218
 02254 CLA +0 50000 0 01115    02255 SUB +0 40200 0 01117    02256 TNZ -0 10000 0 02270
                   ACNT = ACNT+1                                                    210  LM00219
 02257 CLA +0 50000 0 00077    02260 ADD +0 40000 0 01120    02261 STO +0 60100 0 00077
                   END = READLN.(CARD,132)                                          211  LM00220
 02262 TSX +0 07400 4 00034    02263 TXH +3 00000 0 00414    02264 TXH +3 00000 0 01141    02265 STO +0 60100 0 00424
                   T'O GO                                                           212  LM00221
 02266 TRA +0 02000 0 00062
                 O'R WC .E. 9 .AND. ACNT .E. 4                                      213  LM00222
 02267 TRA +0 02000 0 02401    02270 CLA +0 50000 0 00077    02271 SUB +0 40200 0 01121    02272 TNZ -0 10000 0 02327
 02273 CLA +0 50000 0 01115    02274 SUB +0 40200 0 01124    02275 TNZ -0 10000 0 02327
                   COUNT = 0                                                        214  LM00223
 02276 CLA +0 50000 0 01117    02277 STO +0 60100 0 00416
                   ACNT = 0                                                         215  LM00224
 02300 CLA +0 50000 0 01117    02301 STO +0 60100 0 00077
                   LISP.                                                            216  LM00225
 02302 TSX +0 07400 4 00027
                   CARD(1) = 1                                                      217  LM00226
 02303 CLA +0 50000 0 01120    02304 STO +0 60100 0 00413
                   W'R SS, CARD(1) = DASH                                           218  LM00227
 02305 NZT -0 52000 0 01052    02306 TRA +0 02000 0 02311    02307 CLA +0 50000 0 00420    02310 STO +0 60100 0 00413
                   W'R .NOT. PRINTS, CARD(1) = BLANK                                219  LM00228
 02311 ZET +0 52000 0 01046    02312 TRA +0 02000 0 02315    02313 CLA +0 50000 0 00165    02314 STO +0 60100 0 00413
                   CONTRL = 1B                                                      220  LM00229
 02315 CLA +0 50000 0 01120    02316 STO +0 60100 0 00415
                   BLANK(14) = BLANK(1)                                             221  LM00230
 02317 CLA +0 50000 0 00164    02320 STO +0 60100 0 00147
                   BLANK(15) = BLANK(1)                                             222  LM00231
 02321 CLA +0 50000 0 00164    02322 STO +0 60100 0 00146
                   GETFNT.(LINE(2))                                                 223  LM00232
 02323 TSX +0 07400 4 00026    02324 TXH +3 00000 0 00676
                   F'N                                                              224  LM00233
 02325 TRA +0 02000 0 02410
                 O'R ACNT .G.0                                                      225  LM00234
 02326 TRA +0 02000 0 02401    02327 CLA +0 50000 0 00077    02330 SUB +0 40200 0 01117    02331 TZE +0 10000 0 02401
 02332 TMI -0 12000 0 02401
                   T'H GORNK,FOR ACNT = ACNT,-1,ACNT.LE.0                           226  LM00235
 02333 CLA +0 50000 0 00077    02334 STO +0 60100 0 00077    02335 TRA +0 02000 0 02341    02336 CLS +0 50200 0 01120
 02337 ADD +0 40000 0 00077    02340 STO +0 60100 0 00077    02341 CLA +0 50000 0 00077    02342 SUB +0 40200 0 01117
 02343 TZE +0 10000 0 02401    02344 TMI -0 12000 0 02401
                   W'R SR                                                           227  LM00236
 02345 NZT -0 52000 0 01051    02346 TRA +0 02000 0 02372
                     TEMP = DERBC.(COUNT)                                           228  LM00237
 02347 TSX +0 07400 4 00004    02350 TXH +3 00000 0 00416    02351 STO +0 60100 0 01055
                     COUNT = COUNT + 10                                             229  LM00238
 02352 CLA +0 50000 0 00416    02353 ADD +0 40000 0 01125    02354 STO +0 60100 0 00416
                     BLANK(14) = TEMP.RS.18.V.60606K7                               230  LM00239
 02355 CAL -0 50000 0 01131    02356 STA +0 62100 0 02360    02357 CAL -0 50000 0 01055    02360 LGR -0 76500 0 00000
 02361 ORA -0 50100 0 01160    02362 SLW +0 60200 0 00147
                     BLANK(15) = TEMP.LS.24.V.60606060K                             231  LM00240
 02363 CAL -0 50000 0 01134    02364 STA +0 62100 0 02366    02365 CAL -0 50000 0 01055    02366 ALS +0 76700 0 00000
 02367 ORA -0 50100 0 01150    02370 SLW +0 60200 0 00146
                    V'S BLANK(1) =$$,$$,$$,$$,$$,$$,$$,$$,$$,$$,$$,$$,$$,$$,$$      232  LM00241
 00146     -2 06060 6 06060    00147     -2 06060 6 06060    00150     -2 06060 6 06060    00151     -2 06060 6 06060
 00152     -2 06060 6 06060    00153     -2 06060 6 06060    00154     -2 06060 6 06060    00155     -2 06060 6 06060
 00156     -2 06060 6 06060    00157     -2 06060 6 06060    00160     -2 06060 6 06060    00161     -2 06060 6 06060
 00162     -2 06060 6 06060    00163     -2 06060 6 06060    00164     -2 06060 6 06060
                   O'E                                                              233  LM00242
 02371 TRA +0 02000 0 02376
                     BLANK(14) = BLANK(1)                                           234  LM00243
 02372 CLA +0 50000 0 00164    02373 STO +0 60100 0 00147
                     BLANK(15) = BLANK(1)                                           235  LM00244
 02374 CLA +0 50000 0 00164    02375 STO +0 60100 0 00146
                   E'L                                                              236  LM00245
                   NPRINT.(BLANK(1)...BLANK(15))                                    237  LM00246
 02376 TSX +0 07400 4 00012    02377 TIX +2 00146 0 00164
      GORNK        CONTINUE                                                         238  LM00247
 02400 TRA +0 02000 0 02336
                 E'L                                                                239  LM00248
                 DETAB(0).                                                          240  LM00249
 02401 TSX +0 07400 4 00421
                 F'N                                                                241  LM00250
 02402 TRA +0 02000 0 02410
                 E'N                                                                242  LM00251
 02403 TSX +0 07400 4 00007    02404 TXH +3 00000 0 00000    02405 SXD -0 63400 1 02404    02406 SXA +0 63400 4 02410
 02407 TRA +0 02000 2 00001    02410 AXT +0 77400 4 00000    02411 LXA +0 53400 2 02404    02412 LXD -0 53400 1 02404
 02413 TRA +0 02000 4 00001
                 INTERNAL FUNCTION                                                  243  LM00254
 02414 TRA +0 02000 0 02500
                 ENTRY TO OTHER.                                                    244  LM00255
 02415 TRA +0 02000 0 02420    00032 TTR +0 02100 0 02416    02416 SXA +0 63400 2 02470    02417 TSX +0 07400 2 02470
                 V'S OTHTAB=11,21,31,41,51,61,71,81,91,101,111,121,-0               245  LM00256
 01031     -0 00000 0 00000    01032     +0 00000 0 00171    01033     +0 00000 0 00157    01034     +0 00000 0 00145
 01035     +0 00000 0 00133    01036     +0 00000 0 00121    01037     +0 00000 0 00107    01040     +0 00000 0 00075
 01041     +0 00000 0 00063    01042     +0 00000 0 00051    01043     +0 00000 0 00037    01044     +0 00000 0 00025
 01045     +0 00000 0 00013
                 END=UNTAB.(OTHTAB,0,CARD(0),CARD(SSS),END)                         246  LM00257
 02420 CLA +0 50000 0 01053    02421 SUB +0 40200 0 02422    02422 TXH +3 00000 0 00414    02423 STA +0 62100 0 02430
 02424 TSX +0 07400 4 00022    02425 TXH +3 00000 0 01045    02426 TXH +3 00000 0 01117    02427 TXH +3 00000 0 00414
 02430 TXH +3 00000 0 00000    02431 TXH +3 00000 0 00424    02432 STO +0 60100 0 00424
                 W'R SSS .G. 0                                                      247  LM00258
 02433 CLA +0 50000 0 01053    02434 SUB +0 40200 0 01117    02435 TZE +0 10000 0 02466    02436 TMI -0 12000 0 02466
                   END = END + SSS                                                  248  LM00259
 02437 CLA +0 50000 0 00424    02440 ADD +0 40000 0 01053    02441 STO +0 60100 0 00424
                   W'R END .G. 132, END = 132                                       249  LM00260
 02442 CLA +0 50000 0 00424    02443 SUB +0 40200 0 01141    02444 TZE +0 10000 0 02450    02445 TMI -0 12000 0 02450
 02446 CLA +0 50000 0 01141    02447 STO +0 60100 0 00424
                   T'H SSSLP, FOR Q = 1, 1, Q .G. SSS                               250  LM00261
 02450 CLA +0 50000 0 01120    02451 STO +0 60100 0 01047    02452 TRA +0 02000 0 02456    02453 CLA +0 50000 0 01047
 02454 ADD +0 40000 0 01120    02455 STO +0 60100 0 01047    02456 CLA +0 50000 0 01047    02457 SUB +0 40200 0 01053
 02460 TZE +0 10000 0 02462    02461 TPL +0 12000 0 02466
                     CARD(Q) = BLANK                                                251  LM00262
 02462 LXA +0 53400 1 01047    02463 CLA +0 50000 0 00165    02464 STO +0 60100 1 00414
      SSSLP        CONTINUE                                                         252  LM00263
 02465 TRA +0 02000 0 02453
                 E'L                                                                253  LM00264
                 F'N                                                                254  LM00265
 02466 TRA +0 02000 0 02474
                 E'N                                                                255  LM00266
 02467 TSX +0 07400 4 00007    02470 TXH +3 00000 0 00000    02471 SXD -0 63400 1 02470    02472 SXA +0 63400 4 02474
 02473 TRA +0 02000 2 00001    02474 AXT +0 77400 4 00000    02475 LXA +0 53400 2 02470    02476 LXD -0 53400 1 02470
 02477 TRA +0 02000 4 00001
                 INTERNAL FUNCTION                                                  256  LM00269
 02500 TRA +0 02000 0 02533
                 ENTRY TO FAP.                                                      257  LM00270
 02501 TRA +0 02000 0 02504    00025 TTR +0 02100 0 02502    02502 SXA +0 63400 2 02523    02503 TSX +0 07400 2 02523
                 V'S FAPTAB=8,16,30,34,38,42,46,55,-0                               258  LM00271
 00431     -0 00000 0 00000    00432     +0 00000 0 00067    00433     +0 00000 0 00056    00434     +0 00000 0 00052
 00435     +0 00000 0 00046    00436     +0 00000 0 00042    00437     +0 00000 0 00036    00440     +0 00000 0 00020
 00441     +0 00000 0 00010
                 END=UNTAB.(FAPTAB,0,CARD(0),CARD(0),END)                           259  LM00272
 02504 TSX +0 07400 4 00022    02505 TXH +3 00000 0 00441    02506 TXH +3 00000 0 01117    02507 TXH +3 00000 0 00414
 02510 TXH +3 00000 0 00414    02511 TXH +3 00000 0 00424    02512 STO +0 60100 0 00424
                 END=SERIAL.(CARD(0),COUNT,END,TRSW)                                260  LM00273
 02513 TSX +0 07400 4 00020    02514 TXH +3 00000 0 00414    02515 TXH +3 00000 0 00416    02516 TXH +3 00000 0 00424
 02517 TXH +3 00000 0 01076    02520 STO +0 60100 0 00424
                 F'N                                                                261  LM00274
 02521 TRA +0 02000 0 02527
                 E'N                                                                262  LM00275
 02522 TSX +0 07400 4 00007    02523 TXH +3 00000 0 00000    02524 SXD -0 63400 1 02523    02525 SXA +0 63400 4 02527
 02526 TRA +0 02000 2 00001    02527 AXT +0 77400 4 00000    02530 LXA +0 53400 2 02523    02531 LXD -0 53400 1 02523
 02532 TRA +0 02000 4 00001
                 INTERNAL FUNCTION                                                  263  LM00278
 02533 TRA +0 02000 0 02563
                 ENTRY TO ALGOL.                                                    264  LM00279
 02534 TRA +0 02000 0 02537    00023 TTR +0 02100 0 02535    02535 SXA +0 63400 2 02553    02536 TSX +0 07400 2 02553
                 V'S ALGTAB=11,16,21,26,31,36,41,46,51,56,61,66,-0                  265  LM00280
 00100     -0 00000 0 00000    00101     +0 00000 0 00102    00102     +0 00000 0 00075    00103     +0 00000 0 00070
 00104     +0 00000 0 00063    00105     +0 00000 0 00056    00106     +0 00000 0 00051    00107     +0 00000 0 00044
 00110     +0 00000 0 00037    00111     +0 00000 0 00032    00112     +0 00000 0 00025    00113     +0 00000 0 00020
 00114     +0 00000 0 00013
                 END=UNTAB.(ALGTAB,0,CARD(0),CARD(1),END)+1                         266  LM00281
 02537 TSX +0 07400 4 00022    02540 TXH +3 00000 0 00114    02541 TXH +3 00000 0 01117    02542 TXH +3 00000 0 00414
 02543 TXH +3 00000 0 00413    02544 TXH +3 00000 0 00424    02545 ADD +0 40000 0 01120    02546 STO +0 60100 0 00424
                 CARD(1)=BLANK                                                      267  LM00282
 02547 CLA +0 50000 0 00165    02550 STO +0 60100 0 00413
                 F'N                                                                268  LM00283
 02551 TRA +0 02000 0 02557
                 E'N                                                                269  LM00284
 02552 TSX +0 07400 4 00007    02553 TXH +3 00000 0 00000    02554 SXD -0 63400 1 02553    02555 SXA +0 63400 4 02557
 02556 TRA +0 02000 2 00001    02557 AXT +0 77400 4 00000    02560 LXA +0 53400 2 02553    02561 LXD -0 53400 1 02553
 02562 TRA +0 02000 4 00001
                 INTERNAL FUNCTION                                                  270  LM00287
 02563 TRA +0 02000 0 02624
                 E'O LISP.                                                          271  LM00288
 02564 TRA +0 02000 0 02567    00027 TTR +0 02100 0 02565    02565 SXA +0 63400 2 02614    02566 TSX +0 07400 2 02614
                 E'O SCRIPT.                                                        272  LM00289
 02567 TRA +0 02000 0 02572    00035 TTR +0 02100 0 02570    02570 SXA +0 63400 2 02614    02571 TSX +0 07400 2 02614
                 V'S LSPTAB=-0                                                      273  LM00290
 00740     -0 00000 0 00000
                 WHENEVER END .G. 131, END = 131                                    274  LM00291
 02572 CLA +0 50000 0 00424    02573 SUB +0 40200 0 01140    02574 TZE +0 10000 0 02600    02575 TMI -0 12000 0 02600
 02576 CLA +0 50000 0 01140    02577 STO +0 60100 0 00424
                 END=UNTAB.(LSPTAB,0,CARD(0),CARD(1),END)+1                         275  LM00292
 02600 TSX +0 07400 4 00022    02601 TXH +3 00000 0 00740    02602 TXH +3 00000 0 01117    02603 TXH +3 00000 0 00414
 02604 TXH +3 00000 0 00413    02605 TXH +3 00000 0 00424    02606 ADD +0 40000 0 01120    02607 STO +0 60100 0 00424
                 CARD(1)=BLANK                                                      276  LM00293
 02610 CLA +0 50000 0 00165    02611 STO +0 60100 0 00413
                 FUNCTION RETURN                                                    277  LM00294
 02612 TRA +0 02000 0 02620
                 END OF FUNCTION                                                    278  LM00295
 02613 TSX +0 07400 4 00007    02614 TXH +3 00000 0 00000    02615 SXD -0 63400 1 02614    02616 SXA +0 63400 4 02620
 02617 TRA +0 02000 2 00001    02620 AXT +0 77400 4 00000    02621 LXA +0 53400 2 02614    02622 LXD -0 53400 1 02614
 02623 TRA +0 02000 4 00001
                 INTERNAL FUNCTION                                                  279  LM00298
 02624 TRA +0 02000 0 02657
                 ENTRY TO MAD.                                                      280  LM00299
 02625 TRA +0 02000 0 02630    00031 TTR +0 02100 0 02626    02626 SXA +0 63400 2 02647    02627 TSX +0 07400 2 02647
                 V'S MADTAB=12,17,22,27,32,37,42,47,55,-0                           281  LM00300
 00741     -0 00000 0 00000    00742     +0 00000 0 00067    00743     +0 00000 0 00057    00744     +0 00000 0 00052
 00745     +0 00000 0 00045    00746     +0 00000 0 00040    00747     +0 00000 0 00033    00750     +0 00000 0 00026
 00751     +0 00000 0 00021    00752     +0 00000 0 00014
                 V'S MDBKSP=12                                                      282  LM00301
 00754     +0 00000 0 00014
                 END=UNTAB.(MADTAB,MDBKSP,CARD(0),CARD(0),END)                      283  LM00302
 02630 TSX +0 07400 4 00022    02631 TXH +3 00000 0 00752    02632 TXH +3 00000 0 00754    02633 TXH +3 00000 0 00414
 02634 TXH +3 00000 0 00414    02635 TXH +3 00000 0 00424    02636 STO +0 60100 0 00424
                 END=SERIAL.(CARD(0),COUNT,END,TRSW)                                284  LM00303
 02637 TSX +0 07400 4 00020    02640 TXH +3 00000 0 00414    02641 TXH +3 00000 0 00416    02642 TXH +3 00000 0 00424
 02643 TXH +3 00000 0 01076    02644 STO +0 60100 0 00424
                 F'N                                                                285  LM00304
 02645 TRA +0 02000 0 02653
                 E'N                                                                286  LM00305
 02646 TSX +0 07400 4 00007    02647 TXH +3 00000 0 00000    02650 SXD -0 63400 1 02647    02651 SXA +0 63400 4 02653
 02652 TRA +0 02000 2 00001    02653 AXT +0 77400 4 00000    02654 LXA +0 53400 2 02647    02655 LXD -0 53400 1 02647
 02656 TRA +0 02000 4 00001
                 INTERNAL FUNCTION(CARDTP,LIMIT)                                    287  LM00308
 02657 TRA +0 02000 0 03001
                 ENTRY TO READLN.                                                   288  LM00309
 02660 TRA +0 02000 0 02663    00034 TTR +0 02100 0 02661    02661 SXA +0 63400 2 02764    02662 TSX +0 07400 2 02764
                 MARK = BUF(J-M) .A. 777777K6                                       289  LM00310
 02663 CLA +0 50000 0 00450    02664 SUB +0 40200 0 00755    02665 PAX +0 73400 1 00000    02666 CAL -0 50000 1 77423
 02667 ANA -0 32000 0 01166    02670 SLW +0 60200 0 00753
                 W'R MARK .NE. 777777K6, T'O XER                                    290  LM00311
 02671 CLA +0 50000 0 00753    02672 SUB +0 40200 0 01166    02673 TZE +0 10000 0 02675    02674 TRA +0 02000 0 00076
      RDCONT     WC = BUF(J-M) .A. 77777K                                           291  LM00312
 02675 CLA +0 50000 0 00450    02676 SUB +0 40200 0 00755    02677 PAX +0 73400 1 00000    02700 CAL -0 50000 1 77423
 02701 ANA -0 32000 0 01147    02702 SLW +0 60200 0 01115
                 W'R WC .E. 0, LINE(1) = $$                                         292  LM00313
 02703 CLA +0 50000 0 01115    02704 SUB +0 40200 0 01117    02705 TNZ -0 10000 0 02710    02706 CLA +0 50000 0 01163
 02707 STO +0 60100 0 00677
                 READBF.                                                            293  LM00314
 02710 TSX +0 07400 4 00033
                 T'H RDLP1, FOR N = 1,1, N .G. WC .OR. N .G. 150                    294  LM00315
 02711 CLA +0 50000 0 01120    02712 STO +0 60100 0 01021    02713 TRA +0 02000 0 02717    02714 CLA +0 50000 0 01021
 02715 ADD +0 40000 0 01120    02716 STO +0 60100 0 01021    02717 CLA +0 50000 0 01021    02720 SUB +0 40200 0 01142
 02721 TZE +0 10000 0 02723    02722 TPL +0 12000 0 02737    02723 CLA +0 50000 0 01021    02724 SUB +0 40200 0 01115
 02725 TZE +0 10000 0 02727    02726 TPL +0 12000 0 02737
                    LINE(N) = BUF(J-M)                                              295  LM00316
 02727 CLA +0 50000 0 00450    02730 SUB +0 40200 0 00755    02731 LXA +0 53400 1 01021    02732 PAX +0 73400 2 00000
 02733 CLA +0 50000 2 77423    02734 STO +0 60100 1 00700
      RDLP1         READBF.                                                         296  LM00317
 02735 TSX +0 07400 4 00033    02736 TRA +0 02000 0 02714
                 N = N-1                                                            297  LM00318
 02737 CLA +0 50000 0 01021    02740 SUB +0 40200 0 01120    02741 STO +0 60100 0 01021
                 ENDTP = UNPACK.(LINE,N,CARDTP,LIMIT)                               298  LM00319
 02742 TSX +0 07400 4 00021    02743 TXH +3 00000 0 00700    02744 TXH +3 00000 0 01021    02745 TXH +3 00000 0 00000
 02746 TXH +3 00000 0 00000    02747 STO +0 60100 0 00425
                 ENDTP = ENDTP - 1                                                  299  LM00320
 02750 CLA +0 50000 0 00425    02751 SUB +0 40200 0 01120    02752 STO +0 60100 0 00425
                    W'R ENDTP .G. LIMIT                                             300  LM00321
 02753 CLA +0 50000 0 00425    02754 SUB +0 40200 0 00000    02755 TZE +0 10000 0 02761    02756 TMI -0 12000 0 02761
                       LNSCAN.                                                      301  LM00322
 02757 TSX +0 07400 4 00030
                       T'O ER37                                                     302  LM00323
 02760 TRA +0 02000 0 00052
                    E'L                                                             303  LM00324
      RDLP3      F'N ENDTP                                                          304  LM00325
 02761 CLA +0 50000 0 00425    02762 TRA +0 02000 0 02775
                 E'N                                                                305  LM00326
 02763 TSX +0 07400 4 00007    02764 TXH +3 00000 0 00000    02765 SXD -0 63400 1 02764    02766 SXA +0 63400 4 02775
 02767 CLA +0 50000 4 00001    02770 STO +0 60100 0 02745    02771 CLA +0 50000 4 00002    02772 STO +0 60100 0 02746
 02773 STA +0 62100 0 02754    02774 TRA +0 02000 2 00001    02775 AXT +0 77400 4 00000    02776 LXA +0 53400 2 02764
 02777 LXD -0 53400 1 02764    03000 TRA +0 02000 4 00001
      ER30       ERR.(MSG30...MSG30(2),ONOFRT,FAILED)                               306  LM00327
 03001 TSX +0 07400 4 00006    03002 TIX +2 00756 0 00760    03003 TXH +3 00000 0 01025    03004 TXH +3 00000 0 00057
                    V'S MSG30 = $ERR READING FILE$                                  307  LM00328
 00756     +2 63143 2 56060    00757     +2 12431 4 52760    00760     +2 55151 6 05125
                    V'S MSG31 = $ ******LINE IS TOO LONG$                           308  LM00329
 00761     -2 04346 4 52760    00762     +3 16260 6 34646    00763     -1 44331 4 52560    00764     -2 05454 5 45454
                    V'S MSG32 = $ *****LINE-MARK ERROR$                             309  LM00330
 00765     -1 14651 6 06060    00766     +2 15142 6 02551    00767     -0 33145 2 54044    00770     -2 05454 5 45454
      ER33       ERR.(MSG33...MSG33(2),OFRT,ERXT)                                   310  LM00331
 03005 TSX +0 07400 4 00006    03006 TIX +2 00771 0 00773    03007 TXH +3 00000 0 01023    03010 TXH +3 00000 0 00056
                    V'S MSG33 = $CAN'T DELETE FILE$                                 311  LM00332
 00771     -2 02631 4 32560    00772     +2 42543 2 56325    00773     +2 32145 1 46360
      ER34       ERR.(MSG34...MSG34( 2),ONOFRT,FLD1)                                312  LM00333
 03011 TSX +0 07400 4 00006    03012 TIX +2 00774 0 00776    03013 TXH +3 00000 0 01025    03014 TXH +3 00000 0 00061
                    V'S MSG34 = $FILE NOT FOUND$                                    313  LM00334
 00774     -0 52460 6 06060    00775     -0 66360 2 64664    00776     +2 63143 2 56045
      ER35       ERR.(MSG35...MSG35(4),ONOFRT,FLD1)                                 314  LM00335
 03015 TSX +0 07400 4 00006    03016 TIX +2 00777 0 01003    03017 TXH +3 00000 0 01025    03020 TXH +3 00000 0 00061
                    V'S MSG35 = $CAN'T OUTPUT A PRIVATE FILE$                       315  LM00336
 00777     +3 14325 6 06060    01000     -2 52163 2 56026    01001     -2 02160 4 75131    01002     -0 66463 4 76463
 01003     +2 32145 1 46360
      ER36       ERR.(MSG36...MSG36(2),ONOFRT,FLD1)                                 316  LM00337
 03021 TSX +0 07400 4 00006    03022 TIX +2 01004 0 01006    03023 TXH +3 00000 0 01025    03024 TXH +3 00000 0 00061
                    V'S MSG36 = $CAN'T CLOSE FILE.$                                 317  LM00338
 01004     +2 63143 2 53360    01005     +2 34346 6 22560    01006     +2 32145 1 46360
      ER37       ERR.(MSG31...MSG31(3),OFRT,RDLP3)                                  318  LM00339
 03025 TSX +0 07400 4 00006    03026 TIX +2 00761 0 00764    03027 TXH +3 00000 0 01023    03030 TXH +3 00000 0 00072
      ER38       ERR.(MSG32...MSG32(3),OFRT,XER37)                                  319  LM00340
 03031 TSX +0 07400 4 00006    03032 TIX +2 00765 0 00770    03033 TXH +3 00000 0 01023    03034 TXH +3 00000 0 00075
      ER39       ERR.(MSG39...MSG39(3),OFRT,ERXT)                                   320  LM00341
 03035 TSX +0 07400 4 00006    03036 TIX +2 01007 0 01012    03037 TXH +3 00000 0 01023    03040 TXH +3 00000 0 00056
                    V'S MSG39 = $LINKED FILE NOT DELETED$                           321  LM00342
 01007     -0 32563 2 52460    01010     -0 54663 6 02425    01011     -2 02631 4 32560    01012     -0 33145 4 22524
      ER40       ERR.(MSG40...MSG40(4),OFRT,ERXT)                                   322  LM00343
 03041 TSX +0 07400 4 00006    03042 TIX +2 01013 0 01017    03043 TXH +3 00000 0 01023    03044 TXH +3 00000 0 00056
                    V'S MSG40 = $CAN'T DELETE PROTECTED FILE.$                      323  LM00344
 01013     +3 14325 3 36060    01014     +2 36325 2 46026    01015     -2 04751 4 66325    01016     +2 42543 2 56325
 01017     +2 32145 1 46360
      XER        L(15) = $$                                                         324  LM00345
 03045 CLA +0 50000 0 01163    03046 STO +0 60100 0 00720
                 FLAG = 0                                                           325  LM00346
 03047 CLA +0 50000 0 01117    03050 STO +0 60100 0 00443
                 T'H GAZABE, FOR N = 1,1,N.G.14                                     326  LM00347
 03051 CLA +0 50000 0 01120    03052 STO +0 60100 0 01021    03053 TRA +0 02000 0 03057    03054 CLA +0 50000 0 01021
 03055 ADD +0 40000 0 01120    03056 STO +0 60100 0 01021    03057 CLA +0 50000 0 01021    03060 SUB +0 40200 0 01126
 03061 TZE +0 10000 0 03063    03062 TPL +0 12000 0 03141
                   L(15-N) = BUF(J-M)                                               327  LM00348
 03063 CLA +0 50000 0 00450    03064 SUB +0 40200 0 00755    03065 STO +0 60100 0 03321    03066 CLA +0 50000 0 01127
 03067 SUB +0 40200 0 01021    03070 PAX +0 73400 1 00000    03071 LXA +0 53400 2 03321    03072 CLA +0 50000 2 77423
 03073 STO +0 60100 1 00737
                 READBF.                                                            328  LM00349
 03074 TSX +0 07400 4 00033
                 W'R BUF(J-M).A.777777K6.E.777777K6                                 329  LM00350
 03075 CLA +0 50000 0 00450    03076 SUB +0 40200 0 00755    03077 PAX +0 73400 1 00000    03100 CAL -0 50000 1 77423
 03101 ANA -0 32000 0 01166    03102 SLW +0 60200 0 03321    03103 CLA +0 50000 0 03321    03104 SUB +0 40200 0 01166
 03105 TNZ -0 10000 0 03140
                   FLAG = 7                                                         330  LM00351
 03106 CLA +0 50000 0 01122    03107 STO +0 60100 0 00443
                   W'R PRINTS                                                       331  LM00352
 03110 NZT -0 52000 0 01046    03111 TRA +0 02000 0 03123
                     NPRINT.(L(15)...L(15-N))                                       332  LM00353
 03112 CLA +0 50000 0 01127    03113 SUB +0 40200 0 01021    03114 SUB +0 40200 0 03115    03115 TXH +3 00000 0 00737
 03116 ALS +0 76700 0 00022    03117 STD +0 62200 0 03121    03120 TSX +0 07400 4 00012    03121 TIX +2 00000 0 00720
                   O'E                                                              333  LM00354
 03122 TRA +0 02000 0 03133
                     DPUNCH.(L(14)...L(15-N))                                       334  LM00355
 03123 CLA +0 50000 0 01127    03124 SUB +0 40200 0 01021    03125 SUB +0 40200 0 03126    03126 TXH +3 00000 0 00737
 03127 ALS +0 76700 0 00022    03130 STD +0 62200 0 03132    03131 TSX +0 07400 4 00005    03132 TIX +2 00000 0 00721
                   E'L                                                              335  LM00356
                 W'R N.NE.14,T'OER38                                                336  LM00357
 03133 CLA +0 50000 0 01021    03134 SUB +0 40200 0 01126    03135 TZE +0 10000 0 03137    03136 TRA +0 02000 0 00053
      XER37        T'O RDCONT                                                       337  LM00358
 03137 TRA +0 02000 0 00071
                 E'L                                                                338  LM00359
      GAZABE     CONTINUE                                                           339  LM00360
 03140 TRA +0 02000 0 03054
                 W'R PRINTS                                                         340  LM00361
 03141 NZT -0 52000 0 01046    03142 TRA +0 02000 0 03146
                 NPRINT.(L(15)...L(1))                                              341  LM00362
 03143 TSX +0 07400 4 00012    03144 TIX +2 00736 0 00720
                 O'E                                                                342  LM00363
 03145 TRA +0 02000 0 03150
                   DPUNCH.(L(14)...L(1))                                            343  LM00364
 03146 TSX +0 07400 4 00005    03147 TIX +2 00736 0 00721
                 E'L                                                                344  LM00365
                 T'O XER                                                            345  LM00366
 03150 TRA +0 02000 0 00076
      FAILED     CLOSE.(FNAM1,FNAM2,ER36,ERCOD)                                     346  LM00367
 03151 TSX +0 07400 4 00003    03152 TXH +3 00000 0 77453    03153 TXH +3 00000 0 77452    03154 TXH +3 00000 0 00051
 03155 TXH +3 00000 0 77431
      FLD1       W'R PRINTS                                                         347  LM00368
 03156 NZT -0 52000 0 01046    03157 TRA +0 02000 0 03161
                 O'E                                                                348  LM00369
 03160 TRA +0 02000 0 03162
                    PNCEOF.                                                         349  LM00370
 03161 TSX +0 07400 4 00016
                 E'L                                                                350  LM00371
      ERXT       F'N 0                                                              351  LM00372
 03162 CLA +0 50000 0 01117    03163 TRA +0 02000 0 03315
                 INTERNAL FUNCTION                                                  352  LM00375
 03164 TRA +0 02000 0 03223
                 ENTRY TO LNSCAN.                                                   353  LM00376
 03165 TRA +0 02000 0 03170    00030 TTR +0 02100 0 03166    03166 SXA +0 63400 2 03213    03167 TSX +0 07400 2 03213
       RDNXT     READBF.                                                            354  LM00377
 03170 TSX +0 07400 4 00033
                 MARK = BUF(J-M) .A. 777777K6                                       355  LM00378
 03171 CLA +0 50000 0 00450    03172 SUB +0 40200 0 00755    03173 PAX +0 73400 1 00000    03174 CAL -0 50000 1 77423
 03175 ANA -0 32000 0 01166    03176 SLW +0 60200 0 00753
                 W'R MARK .NE. 777777K6, T'O RDNXT                                  356  LM00379
 03177 CLA +0 50000 0 00753    03200 SUB +0 40200 0 01166    03201 TZE +0 10000 0 03203    03202 TRA +0 02000 0 00073
                 WC = BUF(J-M) .A. 77777K                                           357  LM00380
 03203 CLA +0 50000 0 00450    03204 SUB +0 40200 0 00755    03205 PAX +0 73400 1 00000    03206 CAL -0 50000 1 77423
 03207 ANA -0 32000 0 01147    03210 SLW +0 60200 0 01115
                 F'N                                                                358  LM00381
 03211 TRA +0 02000 0 03217
                 E'N                                                                359  LM00382
 03212 TSX +0 07400 4 00007    03213 TXH +3 00000 0 00000    03214 SXD -0 63400 1 03213    03215 SXA +0 63400 4 03217
 03216 TRA +0 02000 2 00001    03217 AXT +0 77400 4 00000    03220 LXA +0 53400 2 03213    03221 LXD -0 53400 1 03213
 03222 TRA +0 02000 4 00001
                 INTERNAL FUNCTION                                                  360  LM00383
 03223 TRA +0 02000 0 03310
                 ENTRY TO READBF.                                                   361  LM00384
 03224 TRA +0 02000 0 03227    00033 TTR +0 02100 0 03225    03225 SXA +0 63400 2 03300    03226 TSX +0 07400 2 03300
                 M = M+1                                                            362  LM00385
 03227 CLA +0 50000 0 00755    03230 ADD +0 40000 0 01120    03231 STO +0 60100 0 00755
                 W'R M .GE. EOFCT                                                   363  LM00386
 03232 CLA +0 50000 0 00755    03233 SUB +0 40200 0 00426    03234 TZE +0 10000 0 03236    03235 TMI -0 12000 0 03276
                    M = 0                                                           364  LM00387
 03236 CLA +0 50000 0 01117    03237 STO +0 60100 0 00755
                    W'R K .G. 433                                                   365  LM00388
 03240 CLA +0 50000 0 00451    03241 SUB +0 40200 0 01144    03242 TZE +0 10000 0 03251    03243 TMI -0 12000 0 03251
                       K = 432                                                      366  LM00389
 03244 CLA +0 50000 0 01143    03245 STO +0 60100 0 00451
                       J = 864                                                      367  LM00390
 03246 CLA +0 50000 0 01145    03247 STO +0 60100 0 00450
                    O'E                                                             368  LM00391
 03250 TRA +0 02000 0 03255
                       K = 864                                                      369  LM00392
 03251 CLA +0 50000 0 01145    03252 STO +0 60100 0 00451
                       J = 432                                                      370  LM00393
 03253 CLA +0 50000 0 01143    03254 STO +0 60100 0 00450
                    E'L                                                             371  LM00394
                    W'R EOFSWT .NE. 0, T'O EOF3                                     372  LM00395
 03255 CLA +0 50000 0 00427    03256 SUB +0 40200 0 01117    03257 TZE +0 10000 0 03261    03260 TRA +0 02000 0 00043
                    RDFILE.(FNAM1,FNAM2,0,BUF(K)...432,EOF,EOFCT,ER30,ERCOD)        373  LM00396
 03261 CLA +0 50000 0 00451    03262 SUB +0 40200 0 03263    03263 TXH +3 00000 0 77423    03264 STA +0 62100 0 03271
 03265 TSX +0 07400 4 00017    03266 TXH +3 00000 0 77453    03267 TXH +3 00000 0 77452    03270 TXH +3 00000 0 01117
 03271 TIX +2 01143 0 00000    03272 TXH +3 00000 0 00044    03273 TXH +3 00000 0 00426    03274 TXH +3 00000 0 00045
 03275 TXH +3 00000 0 77431
                 E'L                                                                374  LM00397
      RDXT       F'N                                                                375  LM00398
 03276 TRA +0 02000 0 03304
                 E'N                                                                376  LM00399
 03277 TSX +0 07400 4 00007    03300 TXH +3 00000 0 00000    03301 SXD -0 63400 1 03300    03302 SXA +0 63400 4 03304
 03303 TRA +0 02000 2 00001    03304 AXT +0 77400 4 00000    03305 LXA +0 53400 2 03300    03306 LXD -0 53400 1 03300
 03307 TRA +0 02000 4 00001
                 BOOLEAN CONTRL,SR,PRINTS,TRSW,SS,ARCHIV,DLTSWT                     377  LM00402
                 V'S EOFSWT = 0                                                     378  LM00403
 00427     +0 00000 0 00000
                 V'S FLAG = 0                                                       379  LM00404
 00443     +0 00000 0 00000
                 D'N L(30),T(8),CARD(150),LINE(150)                                 380  LM00405
                 FUNCTION NAME DETAB                                                381  LM00406
                 V'S NULL = 57K                                                     382  LM00407
 01022     +0 00000 0 00057
                 V'S SEVENS = 77K                                                   383  LM00408
 01050     +0 00000 0 00077
                 V'S BCKSPS = 35K                                                   384  LM00409
 00145     +0 00000 0 00035
                 V'S TAB = 72K                                                      385  LM00410
 01054     +0 00000 0 00072
                 V'S BLANK = 60K                                                    386  LM00411
 00165     +0 00000 0 00060
                 V'S DASH = 40K                                                     387  LM00412
 00420     +0 00000 0 00040
                 V'S M = 0                                                          388  LM00413
 00755     +0 00000 0 00000
                 V'S ASTERS    = $******************************$                   389  LM00414
 00140     -1 45454 5 45454    00141     -1 45454 5 45454    00142     -1 45454 5 45454    00143     -1 45454 5 45454
 00144     -1 45454 5 45454
                 V'S ASTERS(5) = $******************************$                   390  LM00415
 00133     -1 45454 5 45454    00134     -1 45454 5 45454    00135     -1 45454 5 45454    00136     -1 45454 5 45454
 00137     -1 45454 5 45454
                 V'S ASTERS(10)= $******************************$                   391  LM00416
 00126     -1 45454 5 45454    00127     -1 45454 5 45454    00130     -1 45454 5 45454    00131     -1 45454 5 45454
 00132     -1 45454 5 45454
                 V'S ASTERS(15)= $******************************$                   392  LM00417
 00121     -1 45454 5 45454    00122     -1 45454 5 45454    00123     -1 45454 5 45454    00124     -1 45454 5 45454
 00125     -1 45454 5 45454
                 V'S ASTERS(20)= $************1*****$                               393  LM00418
 00116     +0 15454 5 45454    00117     -1 45454 5 45454    00120     -1 45454 5 45454
                 INSERT FILE COMDSK                                                 394  LM00419
                 PROGRAM COMMON B4SWT,PRIVIL,CARSWT,PRNSWT                          395  LM00002
                 PROGRAM COMMON PROB,PROG,FNAM1,FNAM2,MODE,C,ERCOD,DUM              396  LM00003
                 PROGRAM COMMON PROB1, PROG1, DATE,TIME,BUF                         397  LM00004
                 FUNCTION NAME CTLF,EXIT                                            398  LM00005
                 DIMENSION C(14),BUF(864)                                           399  LM00006
                 V'S ONOFRT = 7                                                     400  LM00007
 01025     +0 00000 0 00007
                 V'S ONRT = 5                                                       401  LM00008
 01027     +0 00000 0 00005
                 V'S OFRT = 3                                                       402  LM00009
 01023     +0 00000 0 00003
                 V'S ONOF = 6                                                       403  LM00010
 01026     +0 00000 0 00006
                 V'S ON = 4                                                         404  LM00011
 01030     +0 00000 0 00004
                 V'S OF = 2                                                         405  LM00012
 01024     +0 00000 0 00002
                 V'S EOFCT = 0                                                      406  LM00013
 00426     +0 00000 0 00000
                 V'S MZE = -0                                                       407  LM00014
 01020     -0 00000 0 00000
                 V'S DSKEDT = $DSKEDT$                                              408  LM00015
 00423     +2 46242 2 52463
                 V'S FILE = $.FILE.$                                                409  LM00016
 00442     +3 32631 4 32533
                 V'S CRYMAP = $CRYMAP$                                              410  LM00017
 00417     +2 35170 4 42147
                 N'S INTEGER                                                        411  LM00018
                 E'N                                                                412  LM00420
 03310 TSX +0 07400 4 00007    03311 TXH +3 00000 0 00000    03312 SXD -0 63400 1 03311    03313 SXA +0 63400 4 03315
 03314 TRA +0 02000 2 00001    03315 AXT +0 77400 4 00000    03316 LXA +0 53400 2 03311    03317 LXD -0 53400 1 03311
 03320 TRA +0 02000 4 00001


 BPNCH   BCD 05/15/71 1242.7    8297         00000
1     MAD PROGRAM LISTING ... ... ...                 FILE   BPNCH   MAD            05/15/71    1238.8
-
                 ...PROGRAM TO PUNCH BINARY FILES (28 WORDS)                                           LM00001
                                                                                                       LM00002
                  EXTERNAL FUNCTION                                                               *001 LM00003
                  ENTRY TO BPUDL.                                                                 *002 LM00004
                  DLTSWT = 77777K                                                                 *003 LM00005
                  TRANSFER TO BPN                                                                 *004 LM00006
                  ENTRY TO BPNCH.                                                                 *005 LM00007
                  DLTSWT = 0                                                                      *006 LM00008
                                                                                                       LM00009
      BPN         FSTATE.(FNAM1,FNAM2,T(8)...8,ER51)                                              *007 LM00010
                  B4SWT = 77777K                                                                  *008 LM00011
                  WHENEVER T(7) .A. 20K .NE. 0 .AND. PRIVIL .E. 0,TRANSFER TO ER54                *009 LM00012
                  OPEN.( $R$,FNAM1, FNAM2, 0, 2, ER51,ERCOD )                                     *010 LM00013
                                                                                                       LM00014
                  J = 432                                                                         *011 LM00015
                  K= 864                                                                          *012 LM00016
                  M = -1                                                                          *013 LM00017
                  EOFCT = 432                                                                     *014 LM00018
                  EOFSWT = 0                                                                      *015 LM00019
                  FLAG = 10                                                                       *016 LM00020
                  BPNCHI.(2202K)                                                                  *017 LM00021
                    L(9) = PROB                                                                   *018 LM00022
                    L(8) = PROG                                                                   *019 LM00023
                    L(6) = FNAM1                                                                  *020 LM00024
                    L(5) = FNAM2                                                                  *021 LM00025
                    L(7) = DATE                                                                   *022 LM00026
                    L(4) = TIME                                                                   *023 LM00027
                    L(3) = 777777777777K                                                          *024 LM00028
                  FLIP1.(L(9))                                                                    *025 LM00029
                    L(10) = $BPUNCH$                                                              *026 LM00030
                  L(7) = PROB1                                                                    *027 LM00031
                  L(6) = PROG1                                                                    *028 LM00032
                  L(5) = FNAM1                                                                    *029 LM00033
                  L(4) = FNAM2                                                                    *030 LM00034
                  L(3) = $$                                                                       *031 LM00035
                  L(2) = DATE                                                                     *032 LM00036
                  L(1) = TIME                                                                     *033 LM00037
                    BPUNCH.(L(10)...L(1))                                                         *034 LM00038
                  BPNCHI.(2224K)                                                                  *035 LM00039
                  RDFILE.(FNAM1,FNAM2,0,BUF(J)...432,EOF,EOFCT,ER52,ERCOD)                        *036 LM00040
                  FLAG = 15                                                                       *037 LM00041
                  RDFILE.(FNAM1,FNAM2,0,BUF(K)...432,EOF,EOFCT,ER52,ERCOD)                        *038 LM00042
                  FLAG = 20                                                                       *039 LM00043
      GLT1        THROUGH GLITCH, FOR II = 1,1, II .G. 28                                         *040 LM00044
                  READBF.                                                                         *041 LM00045
      GLITCH      L(II) = BUF(J-M)                                                                *042 LM00046
                  BPUNCH.(L(1)...L(28))                                                           *043 LM00047
                  TRANSFER TO GLT1                                                                *044 LM00048
      EOF         CLOSE.(FNAM1,FNAM2,ER55,ERCOD)                                                  *045 LM00049
                  EOFSWT = 77777K                                                                 *046 LM00050
                  WHENEVER FLAG .E. 10, TRANSFER TO GLT1                                          *047 LM00051
                  EOFTMP = EOFCT                                                                  *048 LM00052
                  EOFCT = 432                                                                     *049 LM00053
                  WHENEVER FLAG .E. 15, TRANSFER TO GLT1                                          *050 LM00054
                  TRANSFER TO RDXT                                                                *051 LM00055
      EOF3        WHENEVER FLAG .E. 10, TRANSFER TO EOF1                                          *052 LM00056
                  EOFCT = EOFTMP                                                                  *053 LM00057
                  FLAG = 10                                                                       *054 LM00058
                  TRANSFER TO RDXT                                                                *055 LM00059
      EOF1        WHENEVER II .LE. 28 .AND. II .G. 1,BPUNCH.(L(1)...L(II))                        *056 LM00060
                  BINEOF.(2224K)                                                                  *057 LM00061
                  WHENEVER DLTSWT .E. 77777K                                                      *058 LM00062
                     WHENEVER T(7) .A. 120K .NE. 0, TRANSFER TO ER56                              *059 LM00063
                     WHENEVER T(7) .L. 0, TRANSFER TO ER57                                        *060 LM00064
                     WHENEVER (T(7).RS.35) .NE. 0, TRANSFER TO ER57                               *061 LM00065
                       CHFILE.(FNAM1,FNAM2,1,MZE,MZE,ER53,ERCOD)                                  *062 LM00066
                  END OF CONDITIONAL                                                              *063 LM00067
      RTN         FUNCTION RETURN 1                                                               *064 LM00068
                 ....                                                                                  LM00069
                 ....                                                                                  LM00070
                  INTERNAL FUNCTION                                                               *065 LM00071
                  ENTRY TO READBF.                                                                *066 LM00072
                  M = M+1                                                                         *067 LM00073
                  WHENEVER M .GE. EOFCT                                                           *068 LM00074
                     M = 0                                                                        *069 LM00075
                     WHENEVER K .G. 433                                                           *070 LM00076
                        K = 432                                                                   *071 LM00077
                        J = 864                                                                   *072 LM00078
                     OTHERWISE                                                                    *073 LM00079
                        K = 864                                                                   *074 LM00080
                        J = 432                                                                   *075 LM00081
                     END OF CONDITIONAL                                                           *076 LM00082
                     WHENEVER EOFSWT .NE. 0, TRANSFER TO EOF3                                     *077 LM00083
                     RDFILE.(FNAM1,FNAM2,0,BUF(K)...432,EOF,EOFCT,ER52,ERCOD)                     *078 LM00084
                  END OF CONDITIONAL                                                              *079 LM00085
      RDXT        FUNCTION RETURN                                                                 *080 LM00086
                  END OF FUNCTION                                                                 *081 LM00087
      ER51        ERR.(MSG51...MSG51(2),OFRT,ERRT)                                                *082 LM00088
                     VECTOR VALUES MSG51 = $FILE NOT FOUND$                                       *083 LM00089
      ER52        ERR.(MSG52...MSG52(4),ONOFRT,ERRT1)                                             *084 LM00090
                     VECTOR VALUES MSG52 = $ERR READING FILE FOR BPUNCH$                          *085 LM00091
      ER53        ERR.(MSG53...MSG53(2),OFRT,ERRT)                                                *086 LM00092
                     VECTOR VALUES MSG53 = $CAN'T DELETE FILE$                                    *087 LM00093
      ER54        ERR.(MSG54...MSG54(4),ONOFRT,ERRT)                                              *088 LM00094
                     VECTOR VALUES MSG54 = $CAN'T OUTPUT A PRIVATE FILE$                          *089 LM00095
      ER55        ERR.(MSG55...MSG55(2),ONOFRT,ERRT)                                              *090 LM00096
                     VECTOR VALUES MSG55 = $CAN'T CLOSE FILE$                                     *091 LM00097
      ER56        ERR.(MSG56...MSG56(4),OFRT,RTN)                                                 *092 LM00098
                     VECTOR VALUES MSG56 = $CAN'T DELETE PROTECTED FILE.$                         *093 LM00099
      ER57        ERR.(MSG57...MSG57(3),OFRT,RTN)                                                 *094 LM00100
                     VECTOR VALUES MSG57 = $LINKED FILE NOT DELETED$                              *095 LM00101
      ERRT1       CLOSE.(FNAM1,FNAM2,ER55,ERCOD)                                                  *096 LM00102
      ERRT        BINEOF.(2224K)                                                                  *097 LM00103
                  FUNCTION RETURN 0                                                               *098 LM00104
                  DIMENSION L(57),T(8)                                                            *099 LM00105
                  INSERT FILE COMDSK                                                              *100 LM00106
                 ...COMMON PACKAGE FOR DISK EDITOR -DSKEDT                                        *100 LM00001
                  PROGRAM COMMON B4SWT,PRIVIL,CARSWT,PRNSWT                                       *101 LM00002
                  PROGRAM COMMON PROB,PROG,FNAM1,FNAM2,MODE,C,ERCOD,DUM                           *102 LM00003
                  PROGRAM COMMON PROB1, PROG1, DATE,TIME,BUF                                      *103 LM00004
                  FUNCTION NAME CTLF,EXIT                                                         *104 LM00005
                  DIMENSION C(14),BUF(864)                                                        *105 LM00006
                  VECTOR VALUES ONOFRT = 7                                                        *106 LM00007
                  VECTOR VALUES ONRT = 5                                                          *107 LM00008
                  VECTOR VALUES OFRT = 3                                                          *108 LM00009
                  VECTOR VALUES ONOF = 6                                                          *109 LM00010
                  VECTOR VALUES ON = 4                                                            *110 LM00011
                  VECTOR VALUES OF = 2                                                            *111 LM00012
                  VECTOR VALUES EOFCT = 0                                                         *112 LM00013
                  VECTOR VALUES MZE = -0                                                          *113 LM00014
                  VECTOR VALUES DSKEDT = $DSKEDT$                                                 *114 LM00015
                  VECTOR VALUES FILE = $.FILE.$                                                   *115 LM00016
                  VECTOR VALUES CRYMAP = $CRYMAP$                                                 *116 LM00017
                  NORMAL MODE IS INTEGER                                                          *117 LM00018
                  VECTOR VALUES DLTSWT = 0                                                        *118 LM00107
                  VECTOR VALUES FLAG = 0                                                          *119 LM00108
                  VECTOR VALUES EOFTMP = 0                                                        *120 LM00109
                  VECTOR VALUES EOFSWT = 0                                                        *121 LM00110
                  END OF FUNCTION                                                                 *122 LM00111
1MAD PROGRAM,TYPE NOV 1963      (ALL NUMBERS ARE OCTAL)
0TOTAL LOCATIONS   00744 TRANSFER VECTOR LENGTH  00013 PROGRAM BEGINS    00245 FIRST UNUSED COMMON/ERASABLE  75662
0 PROGRAM IS AN EXTERNAL FUNCTION.   THE FOLLOWING ARE ENTRIES
      BPNCH  00254   0        BPUDL  00246   0
0VARIABLE STORAGE (A=ARRAY,C=COMMON,E=ERASABLE,DIGIT=MODE)
      B4SWT  77461  C1        EOF    00020   4        FILE   00043 A 1        MSG51  00145 A 1        ONRT   00204 A 1
      BPN    00015   4        EOFSWT 00041 A 1        FLAG   00044 A 1        MSG52  00152 A 1        ON     00205 A 1
      BUF    77423 AC1        EOFTMP 00042 A 1        FNAM1  77453  C1        MSG53  00155 A 1        PRIVIL 77460  C1
      CARSWT 77457  C1        ER51   00021   4        FNAM2  77452  C1        MSG54  00162 A 1        PRNSWT 77456  C1
      CRYMAP 00035 A 1        ER52   00022   4        GLITCH 00014   4        MSG55  00165 A 1        PROB1  77427  C1
      C      77450 AC1        ER53   00023   4        GLT1   00032   4        MSG56  00172 A 1        PROB   77455  C1
      DATE   77425  C1        ER54   00024   4        II     00045   1        MSG57  00176 A 1        PROG1  77426  C1
      DLTSWT 00036 A 1        ER55   00025   4        J      00046   1        MZE    00177 A 1        PROG   77454  C1
      DSKEDT 00037 A 1        ER56   00026   4        K      00047   1        OFRT   00200 A 1        RDXT   00033   4
      DUM    77430  C1        ER57   00027   4        L      00141 A 1        OF     00201 A 1        RTN    00034   4
      EOF1   00016   4        ERCOD  77431  C1        MODE   77451  C1        ONOFRT 00202 A 1        TIME   77424  C1
      EOF3   00017   4        ERRT1  00030   4        M      00142   1        ONOF   00203 A 1        T      00216 A 1
      EOFCT  00040 A 1        ERRT   00031   4
0FUNCTION DICTIONARY
      BINEOF 00000   1        BPNCHI 00001   1        BPUNCH 00002   1        CHFILE 00003   1        CLOSE  00004   1
      ERR    00005   1        EXIT   00006   3        FLIP1  00007   1        FSTATE 00010   1        OPEN   00011   1
      RDFILE 00012   1        READBF 00013   1
0ABSOLUTE CONSTANTS
 00233 +000000000661     00230 +000000000043     00231 +000000000120     00227 +000000000034     00226 +000000000024
 00224 +000000000017     00236 +000000002224     00243 -206060606060     00240 +224764452330     00244 -377777777777
 00235 +000000002202     00223 +000000000012     00234 +000000001540     00232 +000000000660     00221 +000000000002
 00242 -116060606060     00225 +000000000020     00222 +000000000010     00217 +000000000000     00237 +000000077777
 00220 +000000000001     00241 +233000000000
0STATEMENT DICTIONARY
 00015 TXL -300265000260       00016 TXL -300532000513       00017 TXL -300506000502       00020 TXL -300463000456
 00021 TXL -300667000663       00022 TXL -300673000667       00023 TXL -300677000673       00024 TXL -300703000677
 00025 TXL -300707000703       00026 TXL -300713000707       00027 TXL -300717000713       00030 TXL -300724000717
 00031 TXL -300726000724       00032 TXL -300443000431       00033 TXL -300652000651       00034 TXL -300576000574
0PROGRAM
                 EXTERNAL FUNCTION                                                  001  LM00003
                 ENTRY TO BPUDL.                                                    002  LM00004
 00245 TRA +0 02000 0 00250    00246 SXA +0 63400 2 00731    00247 TSX +0 07400 2 00731
                 DLTSWT = 77777K                                                    003  LM00005
 00250 CLA +0 50000 0 00237    00251 STO +0 60100 0 00036
                 T'O BPN                                                            004  LM00006
 00252 TRA +0 02000 0 00015
                 ENTRY TO BPNCH.                                                    005  LM00007
 00253 TRA +0 02000 0 00256    00254 SXA +0 63400 2 00731    00255 TSX +0 07400 2 00731
                 DLTSWT = 0                                                         006  LM00008
 00256 CLA +0 50000 0 00217    00257 STO +0 60100 0 00036
      BPN        FSTATE.(FNAM1,FNAM2,T(8)...8,ER51)                                 007  LM00010
 00260 TSX +0 07400 4 00010    00261 TXH +3 00000 0 77453    00262 TXH +3 00000 0 77452    00263 TIX +2 00222 0 00206
 00264 TXH +3 00000 0 00021
                 B4SWT = 77777K                                                     008  LM00011
 00265 CLA +0 50000 0 00237    00266 STO +0 60100 0 77461
                 W'R T(7) .A. 20K .NE. 0 .AND. PRIVIL .E. 0,T'O ER54                009  LM00012
 00267 CLA +0 50000 0 77460    00270 SUB +0 40200 0 00217    00271 TNZ -0 10000 0 00301    00272 CAL -0 50000 0 00207
 00273 ANA -0 32000 0 00225    00274 SLW +0 60200 0 00741    00275 CLA +0 50000 0 00741    00276 SUB +0 40200 0 00217
 00277 TZE +0 10000 0 00301    00300 TRA +0 02000 0 00024
                 OPEN.( $R$,FNAM1, FNAM2, 0, 2, ER51,ERCOD )                        010  LM00013
 00301 TSX +0 07400 4 00011    00302 TXH +3 00000 0 00242    00303 TXH +3 00000 0 77453    00304 TXH +3 00000 0 77452
 00305 TXH +3 00000 0 00217    00306 TXH +3 00000 0 00221    00307 TXH +3 00000 0 00021    00310 TXH +3 00000 0 77431
                 J = 432                                                            011  LM00015
 00311 CLA +0 50000 0 00232    00312 STO +0 60100 0 00046
                 K= 864                                                             012  LM00016
 00313 CLA +0 50000 0 00234    00314 STO +0 60100 0 00047
                 M = -1                                                             013  LM00017
 00315 CLS +0 50200 0 00220    00316 STO +0 60100 0 00142
                 EOFCT = 432                                                        014  LM00018
 00317 CLA +0 50000 0 00232    00320 STO +0 60100 0 00040
                 EOFSWT = 0                                                         015  LM00019
 00321 CLA +0 50000 0 00217    00322 STO +0 60100 0 00041
                 FLAG = 10                                                          016  LM00020
 00323 CLA +0 50000 0 00223    00324 STO +0 60100 0 00044
                 BPNCHI.(2202K)                                                     017  LM00021
 00325 TSX +0 07400 4 00001    00326 TXH +3 00000 0 00235
                   L(9) = PROB                                                      018  LM00022
 00327 CLA +0 50000 0 77455    00330 STO +0 60100 0 00130
                   L(8) = PROG                                                      019  LM00023
 00331 CLA +0 50000 0 77454    00332 STO +0 60100 0 00131
                   L(6) = FNAM1                                                     020  LM00024
 00333 CLA +0 50000 0 77453    00334 STO +0 60100 0 00133
                   L(5) = FNAM2                                                     021  LM00025
 00335 CLA +0 50000 0 77452    00336 STO +0 60100 0 00134
                   L(7) = DATE                                                      022  LM00026
 00337 CLA +0 50000 0 77425    00340 STO +0 60100 0 00132
                   L(4) = TIME                                                      023  LM00027
 00341 CLA +0 50000 0 77424    00342 STO +0 60100 0 00135
                   L(3) = 777777777777K                                             024  LM00028
 00343 CLA +0 50000 0 00244    00344 STO +0 60100 0 00136
                 FLIP1.(L(9))                                                       025  LM00029
 00345 TSX +0 07400 4 00007    00346 TXH +3 00000 0 00130
                   L(10) = $BPUNCH$                                                 026  LM00030
 00347 CLA +0 50000 0 00240    00350 STO +0 60100 0 00127
                 L(7) = PROB1                                                       027  LM00031
 00351 CLA +0 50000 0 77427    00352 STO +0 60100 0 00132
                 L(6) = PROG1                                                       028  LM00032
 00353 CLA +0 50000 0 77426    00354 STO +0 60100 0 00133
                 L(5) = FNAM1                                                       029  LM00033
 00355 CLA +0 50000 0 77453    00356 STO +0 60100 0 00134
                 L(4) = FNAM2                                                       030  LM00034
 00357 CLA +0 50000 0 77452    00360 STO +0 60100 0 00135
                 L(3) = $$                                                          031  LM00035
 00361 CLA +0 50000 0 00243    00362 STO +0 60100 0 00136
                 L(2) = DATE                                                        032  LM00036
 00363 CLA +0 50000 0 77425    00364 STO +0 60100 0 00137
                 L(1) = TIME                                                        033  LM00037
 00365 CLA +0 50000 0 77424    00366 STO +0 60100 0 00140
                   BPUNCH.(L(10)...L(1))                                            034  LM00038
 00367 TSX +0 07400 4 00002    00370 TIX +2 00140 0 00127
                 BPNCHI.(2224K)                                                     035  LM00039
 00371 TSX +0 07400 4 00001    00372 TXH +3 00000 0 00236
                 RDFILE.(FNAM1,FNAM2,0,BUF(J)...432,EOF,EOFCT,ER52,ERCOD)           036  LM00040
 00373 CLA +0 50000 0 00046    00374 SUB +0 40200 0 00375    00375 TXH +3 00000 0 77423    00376 STA +0 62100 0 00403
 00377 TSX +0 07400 4 00012    00400 TXH +3 00000 0 77453    00401 TXH +3 00000 0 77452    00402 TXH +3 00000 0 00217
 00403 TIX +2 00232 0 00000    00404 TXH +3 00000 0 00020    00405 TXH +3 00000 0 00040    00406 TXH +3 00000 0 00022
 00407 TXH +3 00000 0 77431
                 FLAG = 15                                                          037  LM00041
 00410 CLA +0 50000 0 00224    00411 STO +0 60100 0 00044
                 RDFILE.(FNAM1,FNAM2,0,BUF(K)...432,EOF,EOFCT,ER52,ERCOD)           038  LM00042
 00412 CLA +0 50000 0 00047    00413 SUB +0 40200 0 00414    00414 TXH +3 00000 0 77423    00415 STA +0 62100 0 00422
 00416 TSX +0 07400 4 00012    00417 TXH +3 00000 0 77453    00420 TXH +3 00000 0 77452    00421 TXH +3 00000 0 00217
 00422 TIX +2 00232 0 00000    00423 TXH +3 00000 0 00020    00424 TXH +3 00000 0 00040    00425 TXH +3 00000 0 00022
 00426 TXH +3 00000 0 77431
                 FLAG = 20                                                          039  LM00043
 00427 CLA +0 50000 0 00226    00430 STO +0 60100 0 00044
      GLT1       T'H GLITCH, FOR II = 1,1, II .G. 28                                040  LM00044
 00431 CLA +0 50000 0 00220    00432 STO +0 60100 0 00045    00433 TRA +0 02000 0 00437    00434 CLA +0 50000 0 00045
 00435 ADD +0 40000 0 00220    00436 STO +0 60100 0 00045    00437 CLA +0 50000 0 00045    00440 SUB +0 40200 0 00227
 00441 TZE +0 10000 0 00443    00442 TPL +0 12000 0 00453
                 READBF.                                                            041  LM00045
 00443 TSX +0 07400 4 00013
      GLITCH     L(II) = BUF(J-M)                                                   042  LM00046
 00444 CLA +0 50000 0 00046    00445 SUB +0 40200 0 00142    00446 LXA +0 53400 1 00045    00447 PAX +0 73400 2 00000
 00450 CLA +0 50000 2 77423    00451 STO +0 60100 1 00141    00452 TRA +0 02000 0 00434
                 BPUNCH.(L(1)...L(28))                                              043  LM00047
 00453 TSX +0 07400 4 00002    00454 TIX +2 00105 0 00140
                 T'O GLT1                                                           044  LM00048
 00455 TRA +0 02000 0 00032
      EOF        CLOSE.(FNAM1,FNAM2,ER55,ERCOD)                                     045  LM00049
 00456 TSX +0 07400 4 00004    00457 TXH +3 00000 0 77453    00460 TXH +3 00000 0 77452    00461 TXH +3 00000 0 00025
 00462 TXH +3 00000 0 77431
                 EOFSWT = 77777K                                                    046  LM00050
 00463 CLA +0 50000 0 00237    00464 STO +0 60100 0 00041
                 W'R FLAG .E. 10, T'O GLT1                                          047  LM00051
 00465 CLA +0 50000 0 00044    00466 SUB +0 40200 0 00223    00467 TNZ -0 10000 0 00471    00470 TRA +0 02000 0 00032
                 EOFTMP = EOFCT                                                     048  LM00052
 00471 CLA +0 50000 0 00040    00472 STO +0 60100 0 00042
                 EOFCT = 432                                                        049  LM00053
 00473 CLA +0 50000 0 00232    00474 STO +0 60100 0 00040
                 W'R FLAG .E. 15, T'O GLT1                                          050  LM00054
 00475 CLA +0 50000 0 00044    00476 SUB +0 40200 0 00224    00477 TNZ -0 10000 0 00501    00500 TRA +0 02000 0 00032
                 T'O RDXT                                                           051  LM00055
 00501 TRA +0 02000 0 00033
      EOF3       W'R FLAG .E. 10, T'O EOF1                                          052  LM00056
 00502 CLA +0 50000 0 00044    00503 SUB +0 40200 0 00223    00504 TNZ -0 10000 0 00506    00505 TRA +0 02000 0 00016
                 EOFCT = EOFTMP                                                     053  LM00057
 00506 CLA +0 50000 0 00042    00507 STO +0 60100 0 00040
                 FLAG = 10                                                          054  LM00058
 00510 CLA +0 50000 0 00223    00511 STO +0 60100 0 00044
                 T'O RDXT                                                           055  LM00059
 00512 TRA +0 02000 0 00033
      EOF1       W'R II .LE. 28 .AND. II .G. 1,BPUNCH.(L(1)...L(II))                056  LM00060
 00513 CLA +0 50000 0 00045    00514 SUB +0 40200 0 00220    00515 TZE +0 10000 0 00532    00516 TMI -0 12000 0 00532
 00517 CLA +0 50000 0 00045    00520 SUB +0 40200 0 00227    00521 TZE +0 10000 0 00523    00522 TPL +0 12000 0 00532
 00523 CLA +0 50000 0 00045    00524 SUB +0 40200 0 00525    00525 TXH +3 00000 0 00141    00526 ALS +0 76700 0 00022
 00527 STD +0 62200 0 00531    00530 TSX +0 07400 4 00002    00531 TIX +2 00000 0 00140
                 BINEOF.(2224K)                                                     057  LM00061
 00532 TSX +0 07400 4 00000    00533 TXH +3 00000 0 00236
                 W'R DLTSWT .E. 77777K                                              058  LM00062
 00534 CLA +0 50000 0 00036    00535 SUB +0 40200 0 00237    00536 TNZ -0 10000 0 00574
                    W'R T(7) .A. 120K .NE. 0, T'O ER56                              059  LM00063
 00537 CAL -0 50000 0 00207    00540 ANA -0 32000 0 00231    00541 SLW +0 60200 0 00741    00542 CLA +0 50000 0 00741
 00543 SUB +0 40200 0 00217    00544 TZE +0 10000 0 00546    00545 TRA +0 02000 0 00026
                    W'R T(7) .L. 0, T'O ER57                                        060  LM00064
 00546 CLA +0 50000 0 00207    00547 SUB +0 40200 0 00217    00550 TZE +0 10000 0 00553    00551 TPL +0 12000 0 00553
 00552 TRA +0 02000 0 00027
                    W'R (T(7).RS.35) .NE. 0, T'O ER57                               061  LM00065
 00553 CAL -0 50000 0 00230    00554 STA +0 62100 0 00556    00555 CAL -0 50000 0 00207    00556 LGR -0 76500 0 00000
 00557 SLW +0 60200 0 00741    00560 CLA +0 50000 0 00741    00561 SUB +0 40200 0 00217    00562 TZE +0 10000 0 00564
 00563 TRA +0 02000 0 00027
                      CHFILE.(FNAM1,FNAM2,1,MZE,MZE,ER53,ERCOD)                     062  LM00066
 00564 TSX +0 07400 4 00003    00565 TXH +3 00000 0 77453    00566 TXH +3 00000 0 77452    00567 TXH +3 00000 0 00220
 00570 TXH +3 00000 0 00177    00571 TXH +3 00000 0 00177    00572 TXH +3 00000 0 00023    00573 TXH +3 00000 0 77431
                 E'L                                                                063  LM00067
      RTN        F'N 1                                                              064  LM00068
 00574 CLA +0 50000 0 00220    00575 TRA +0 02000 0 00735
                 INTERNAL FUNCTION                                                  065  LM00071
 00576 TRA +0 02000 0 00663
                 ENTRY TO READBF.                                                   066  LM00072
 00577 TRA +0 02000 0 00602    00013 TTR +0 02100 0 00600    00600 SXA +0 63400 2 00653    00601 TSX +0 07400 2 00653
                 M = M+1                                                            067  LM00073
 00602 CLA +0 50000 0 00142    00603 ADD +0 40000 0 00220    00604 STO +0 60100 0 00142
                 W'R M .GE. EOFCT                                                   068  LM00074
 00605 CLA +0 50000 0 00142    00606 SUB +0 40200 0 00040    00607 TZE +0 10000 0 00611    00610 TMI -0 12000 0 00651
                    M = 0                                                           069  LM00075
 00611 CLA +0 50000 0 00217    00612 STO +0 60100 0 00142
                    W'R K .G. 433                                                   070  LM00076
 00613 CLA +0 50000 0 00047    00614 SUB +0 40200 0 00233    00615 TZE +0 10000 0 00624    00616 TMI -0 12000 0 00624
                       K = 432                                                      071  LM00077
 00617 CLA +0 50000 0 00232    00620 STO +0 60100 0 00047
                       J = 864                                                      072  LM00078
 00621 CLA +0 50000 0 00234    00622 STO +0 60100 0 00046
                    O'E                                                             073  LM00079
 00623 TRA +0 02000 0 00630
                       K = 864                                                      074  LM00080
 00624 CLA +0 50000 0 00234    00625 STO +0 60100 0 00047
                       J = 432                                                      075  LM00081
 00626 CLA +0 50000 0 00232    00627 STO +0 60100 0 00046
                    E'L                                                             076  LM00082
                    W'R EOFSWT .NE. 0, T'O EOF3                                     077  LM00083
 00630 CLA +0 50000 0 00041    00631 SUB +0 40200 0 00217    00632 TZE +0 10000 0 00634    00633 TRA +0 02000 0 00017
                    RDFILE.(FNAM1,FNAM2,0,BUF(K)...432,EOF,EOFCT,ER52,ERCOD)        078  LM00084
 00634 CLA +0 50000 0 00047    00635 SUB +0 40200 0 00636    00636 TXH +3 00000 0 77423    00637 STA +0 62100 0 00644
 00640 TSX +0 07400 4 00012    00641 TXH +3 00000 0 77453    00642 TXH +3 00000 0 77452    00643 TXH +3 00000 0 00217
 00644 TIX +2 00232 0 00000    00645 TXH +3 00000 0 00020    00646 TXH +3 00000 0 00040    00647 TXH +3 00000 0 00022
 00650 TXH +3 00000 0 77431
                 E'L                                                                079  LM00085
      RDXT       F'N                                                                080  LM00086
 00651 TRA +0 02000 0 00657
                 E'N                                                                081  LM00087
 00652 TSX +0 07400 4 00006    00653 TXH +3 00000 0 00000    00654 SXD -0 63400 1 00653    00655 SXA +0 63400 4 00657
 00656 TRA +0 02000 2 00001    00657 AXT +0 77400 4 00000    00660 LXA +0 53400 2 00653    00661 LXD -0 53400 1 00653
 00662 TRA +0 02000 4 00001
      ER51       ERR.(MSG51...MSG51(2),OFRT,ERRT)                                   082  LM00088
 00663 TSX +0 07400 4 00005    00664 TIX +2 00143 0 00145    00665 TXH +3 00000 0 00200    00666 TXH +3 00000 0 00031
                    V'S MSG51 = $FILE NOT FOUND$                                    083  LM00089
 00143     -0 52460 6 06060    00144     -0 66360 2 64664    00145     +2 63143 2 56045
      ER52       ERR.(MSG52...MSG52(4),ONOFRT,ERRT1)                                084  LM00090
 00667 TSX +0 07400 4 00005    00670 TIX +2 00146 0 00152    00671 TXH +3 00000 0 00202    00672 TXH +3 00000 0 00030
                    V'S MSG52 = $ERR READING FILE FOR BPUNCH$                       085  LM00091
 00146     -0 52330 6 06060    00147     -0 65160 2 24764    00150     +2 63143 2 56026    00151     +2 12431 4 52760
 00152     +2 55151 6 05125
      ER53       ERR.(MSG53...MSG53(2),OFRT,ERRT)                                   086  LM00092
 00673 TSX +0 07400 4 00005    00674 TIX +2 00153 0 00155    00675 TXH +3 00000 0 00200    00676 TXH +3 00000 0 00031
                    V'S MSG53 = $CAN'T DELETE FILE$                                 087  LM00093
 00153     -2 02631 4 32560    00154     +2 42543 2 56325    00155     +2 32145 1 46360
      ER54       ERR.(MSG54...MSG54(4),ONOFRT,ERRT)                                 088  LM00094
 00677 TSX +0 07400 4 00005    00700 TIX +2 00156 0 00162    00701 TXH +3 00000 0 00202    00702 TXH +3 00000 0 00031
                    V'S MSG54 = $CAN'T OUTPUT A PRIVATE FILE$                       089  LM00095
 00156     +3 14325 6 06060    00157     -2 52163 2 56026    00160     -2 02160 4 75131    00161     -0 66463 4 76463
 00162     +2 32145 1 46360
      ER55       ERR.(MSG55...MSG55(2),ONOFRT,ERRT)                                 090  LM00096
 00703 TSX +0 07400 4 00005    00704 TIX +2 00163 0 00165    00705 TXH +3 00000 0 00202    00706 TXH +3 00000 0 00031
                    V'S MSG55 = $CAN'T CLOSE FILE$                                  091  LM00097
 00163     +2 63143 2 56060    00164     +2 34346 6 22560    00165     +2 32145 1 46360
      ER56       ERR.(MSG56...MSG56(4),OFRT,RTN)                                    092  LM00098
 00707 TSX +0 07400 4 00005    00710 TIX +2 00166 0 00172    00711 TXH +3 00000 0 00200    00712 TXH +3 00000 0 00034
                    V'S MSG56 = $CAN'T DELETE PROTECTED FILE.$                      093  LM00099
 00166     +3 14325 3 36060    00167     +2 36325 2 46026    00170     -2 04751 4 66325    00171     +2 42543 2 56325
 00172     +2 32145 1 46360
      ER57       ERR.(MSG57...MSG57(3),OFRT,RTN)                                    094  LM00100
 00713 TSX +0 07400 4 00005    00714 TIX +2 00173 0 00176    00715 TXH +3 00000 0 00200    00716 TXH +3 00000 0 00034
                    V'S MSG57 = $LINKED FILE NOT DELETED$                           095  LM00101
 00173     -0 32563 2 52460    00174     -0 54663 6 02425    00175     -2 02631 4 32560    00176     -0 33145 4 22524
      ERRT1      CLOSE.(FNAM1,FNAM2,ER55,ERCOD)                                     096  LM00102
 00717 TSX +0 07400 4 00004    00720 TXH +3 00000 0 77453    00721 TXH +3 00000 0 77452    00722 TXH +3 00000 0 00025
 00723 TXH +3 00000 0 77431
      ERRT       BINEOF.(2224K)                                                     097  LM00103
 00724 TSX +0 07400 4 00000    00725 TXH +3 00000 0 00236
                 F'N 0                                                              098  LM00104
 00726 CLA +0 50000 0 00217    00727 TRA +0 02000 0 00735
                 D'N L(57),T(8)                                                     099  LM00105
                 INSERT FILE COMDSK                                                 100  LM00106
                 PROGRAM COMMON B4SWT,PRIVIL,CARSWT,PRNSWT                          101  LM00002
                 PROGRAM COMMON PROB,PROG,FNAM1,FNAM2,MODE,C,ERCOD,DUM              102  LM00003
                 PROGRAM COMMON PROB1, PROG1, DATE,TIME,BUF                         103  LM00004
                 FUNCTION NAME CTLF,EXIT                                            104  LM00005
                 DIMENSION C(14),BUF(864)                                           105  LM00006
                 V'S ONOFRT = 7                                                     106  LM00007
 00202     +0 00000 0 00007
                 V'S ONRT = 5                                                       107  LM00008
 00204     +0 00000 0 00005
                 V'S OFRT = 3                                                       108  LM00009
 00200     +0 00000 0 00003
                 V'S ONOF = 6                                                       109  LM00010
 00203     +0 00000 0 00006
                 V'S ON = 4                                                         110  LM00011
 00205     +0 00000 0 00004
                 V'S OF = 2                                                         111  LM00012
 00201     +0 00000 0 00002
                 V'S EOFCT = 0                                                      112  LM00013
 00040     +0 00000 0 00000
                 V'S MZE = -0                                                       113  LM00014
 00177     -0 00000 0 00000
                 V'S DSKEDT = $DSKEDT$                                              114  LM00015
 00037     +2 46242 2 52463
                 V'S FILE = $.FILE.$                                                115  LM00016
 00043     +3 32631 4 32533
                 V'S CRYMAP = $CRYMAP$                                              116  LM00017
 00035     +2 35170 4 42147
                 N'S INTEGER                                                        117  LM00018
                 V'S DLTSWT = 0                                                     118  LM00107
 00036     +0 00000 0 00000
                 V'S FLAG = 0                                                       119  LM00108
 00044     +0 00000 0 00000
                 V'S EOFTMP = 0                                                     120  LM00109
 00042     +0 00000 0 00000
                 V'S EOFSWT = 0                                                     121  LM00110
 00041     +0 00000 0 00000
                 E'N                                                                122  LM00111
 00730 TSX +0 07400 4 00006    00731 TXH +3 00000 0 00000    00732 SXD -0 63400 1 00731    00733 SXA +0 63400 4 00735
 00734 TRA +0 02000 2 00001    00735 AXT +0 77400 4 00000    00736 LXA +0 53400 2 00731    00737 LXD -0 53400 1 00731
 00740 TRA +0 02000 4 00001


 PNCH7   BCD 05/15/71 1242.7    9659         00000
1     MAD PROGRAM LISTING ... ... ...                 FILE   PNCH7   MAD            05/15/71    1238.9
-
                   7PUNCH SUBROUTINE                                                                   LM00001
                  EXTERNAL FUNCTION                                                               *001 LM00002
                  ENTRY TO PU7DL.                                                                 *002 LM00003
                  DLTSWT = 77777K                                                                 *003 LM00004
                  TRANSFER TO PNCH                                                                *004 LM00005
                  ENTRY TO PNCH7.                                                                 *005 LM00006
                  DLTSWT = 0                                                                      *006 LM00007
      PNCH        BPNCHI.(2202K)                                                                  *007 LM00008
                  FSTATE.(FNAM1,FNAM2,T(8)...8,ER41)                                              *008 LM00009
                  WHENEVER T(7) .A. 20K .NE. 0 .AND. PRIVIL .E. 0, TRANSFER TO ER45               *009 LM00010
                    L(9) = PROB                                                                   *010 LM00011
                    L(8) = PROG                                                                   *011 LM00012
                    L(6) = FNAM1                                                                  *012 LM00013
                    L(5) = FNAM2                                                                  *013 LM00014
                    L(7) = DATE                                                                   *014 LM00015
                    L(4) = TIME                                                                   *015 LM00016
                    L(3) = 777777777777K                                                          *016 LM00017
                    FLIP1.(L(9))                                                                  *017 LM00018
                    L(10) = $7PUNCH$                                                              *018 LM00019
                  L(7) = PROB1                                                                    *019 LM00020
                    L(6) = PROG1                                                                  *020 LM00021
                    L(5) = FNAM1                                                                  *021 LM00022
                    L(4) = FNAM2                                                                  *022 LM00023
                    L(3) = $$                                                                     *023 LM00024
                    L(2) = DATE                                                                   *024 LM00025
                    L(1) = TIME                                                                   *025 LM00026
                    BPUNCH.(L(10)...L(1))                                                         *026 LM00027
                  BPNCHI.(2224K)                                                                  *027 LM00028
      BEGIN       EOFCT = 432                                                                     *028 LM00029
                  J = 864                                                                         *029 LM00030
                  K = 432                                                                         *030 LM00031
                  OPEN.($R$,FNAM1,FNAM2,MZE,MZE,ER41,ERCOD)                                       *031 LM00032
                  T(1) =0                                                                         *032 LM00033
                  RDFILE.(FNAM1,FNAM2,0,BUF(K)...432,EOF,EOFCT,ER42,ERCOD)                        *033 LM00034
                  T(1) =7                                                                         *034 LM00035
      READLP      RDFILE.(FNAM1, FNAM2, 0, BUF(J)...432, EOF, EOFCT,ER42,ERCOD)                   *035 LM00036
                  P7CARD.(BUF(K),432,0)                                                           *036 LM00037
                  WHENEVER K .G. 432                                                              *037 LM00038
                      K = 432                                                                     *038 LM00039
                      J = 864                                                                     *039 LM00040
                      TRANSFER TO READLP                                                          *040 LM00041
                  OTHERWISE                                                                       *041 LM00042
                      K = 864                                                                     *042 LM00043
                      J = 432                                                                     *043 LM00044
                      TRANSFER TO READLP                                                          *044 LM00045
                  END OF CONDITIONAL                                                              *045 LM00046
      EOF         FCHECK.(FNAM1,FNAM2,EOF1,ER42,ERCOD)                                            *046 LM00047
                  TRANSFER TO EOF                                                                 *047 LM00048
      EOF1        WHENEVER T(1) .NE. 0                                                            *048 LM00049
                     P7CARD.(BUF(K),432,0)                                                        *049 LM00050
                  OTHERWISE                                                                       *050 LM00051
                     J = 432                                                                      *051 LM00052
                  END OF CONDITIONAL                                                              *052 LM00053
                  P7CARD.(BUF(J),EOFCT,7)                                                         *053 LM00054
                  BINEOF.(2224K)                                                                  *054 LM00055
                  CLOSE.(FNAM1,FNAM2,ER47,ERCOD)                                                  *055 LM00056
                  WHENEVER DLTSWT .E. 77777K                                                      *056 LM00057
                     WHENEVER T(7) .A. 120K .NE. 0,TRANSFER TO ER48                               *057 LM00058
                     WHENEVER (T(7).RS.35) .NE. 0, TRANSFER TO ER49                               *058 LM00059
                   CHFILE.(FNAM1,FNAM2,TEMP,MZE,MZE,ER46,ERCOD)                                   *059 LM00060
                  END OF CONDITIONAL                                                              *060 LM00061
      XXRTN       FUNCTION RETURN 1                                                               *061 LM00062
                                                                                                       LM00063
                     CARRY ROUTINE                                                                     LM00064
                  ENTRY TO CARRY.                                                                 *062 LM00065
                  FSTATE.(FNAM1,FNAM2,T(8)...8,ER41)                                              *063 LM00066
                  WHENEVER T(7) .A. 20K .NE. 0 .AND. PRIVIL .E. 0,TRANSFER TO ER45                *064 LM00067
                  DLTSWT = 0                                                                      *065 LM00068
                  CARSWT = 77777K                                                                 *066 LM00069
                  BPNCHI.(2201K)                                                                  *067 LM00070
                  PB = PROB                                                                       *068 LM00071
                  PG = PROG                                                                       *069 LM00072
                  F1 = FNAM1                                                                      *070 LM00073
                  F2 = FNAM2                                                                      *071 LM00074
                  PB = SCAN.(MOVINP)                                                              *072 LM00075
                  PG = SCAN.(ER43)                                                                *073 LM00076
                  F1 = SCAN.(MOVINP)                                                              *074 LM00077
                  F2 = SCAN.(ER43)                                                                *075 LM00078
      MOVINP      INP(13) = PB                                                                    *076 LM00079
                  INP(11) = PG                                                                    *077 LM00080
                  INP(9) = F1                                                                     *078 LM00081
                  INP(7) = F2                                                                     *079 LM00082
                  WHENEVER TRASWT .NE. 0                                                          *080 LM00083
                  BINREW.                                                                         *081 LM00084
                     ATTACH.(DSKEDT,FILE)                                                         *082 LM00085
                     FSTATE.(CRYMAP,FILE,TBUF(8)...8,OPNN)                                        *083 LM00086
                     DELFIL.(CRYMAP,FILE,OPNN)                                                    *084 LM00087
      OPNN        OPEN.($W$,CRYMAP,FILE,MZE,MZE,ER44,ERCOD)                                       *085 LM00088
                     BUFFER.(CRYMAP,FILE,TBUF(432)...432,ER44,ERCOD)                              *086 LM00089
                     ATTACH.(PROB,PROG)                                                           *087 LM00090
                     TRASWT = 0                                                                   *088 LM00091
                  END OF CONDITIONAL                                                              *089 LM00092
                  WRFILE.(CRYMAP,FILE,0,INP(14)...14,ER44,ERCOD)                                  *090 LM00093
                  BPUNCH.(INP(14)...INP(1))                                                       *091 LM00094
                  BPNCHI.(2221K)                                                                  *092 LM00095
      DELAY       FCHECK.(CRYMAP,FILE,BEGIN,ER44,ERCOD)                                           *093 LM00096
                  TRANSFER TO DELAY                                                               *094 LM00097
      ER41        ERR.(MSG41...MSG41(2), OFRT, XRTN)                                              *095 LM00098
                      VECTOR VALUES MSG41 = $NO FILE FOUND$                                       *096 LM00099
      ER42        ERR.(MSG42...MSG42(4),ONOFRT,RTN)                                               *097 LM00100
                     VECTOR VALUES MSG42 = $ERR READING FILE FOR 7PUNCH$                          *098 LM00101
      ER43        ERR.(MSG43...MSG43(3),ONOFRT,XRTN)                                              *099 LM00102
                     VECTOR VALUES MSG43 = $ILLEGAL REQUEST FORMAT$                               *100 LM00103
      ER44        ERR.(MSG44...MSG44(5),ONRT,BEGIN)                                               *101 LM00104
                     VECTOR VALUES MSG44=$TROUBLE WITH CARRY TABLE OF CONTENTS$                   *102 LM00105
      ER45        ERR.(MSG45...MSG45(6),ONOFRT,XXRTN)                                             *103 LM00106
                     VECTOR VALUES MSG45 = $CAN'T OUTPUT A PRIVATE FILE.$                         *104 LM00107
      ER46        ERR.(MSG46...MSG46(4),ONOFRT,XXRTN)                                             *105 LM00108
                     VECTOR VALUES MSG46 = $CAN'T CHANGE FILE TO TEMPORARY.$                      *106 LM00109
      ER47        ERR.(MSG47...MSG47(2),ONOFRT,XXRTN)                                             *107 LM00110
                     VECTOR VALUES MSG47 = $CAN'T CLOSE FILE.$                                    *108 LM00111
      ER48        ERR.(MSG48...MSG48(4),OFRT,XXRTN)                                               *109 LM00112
                     VECTOR VALUES MSG48 = $CAN'T DELETE PROTECTED FILE$                          *110 LM00113
      ER49        ERR.(MSG49...MSG49(3),OFRT,XXRTN)                                               *111 LM00114
                     VECTOR VALUES MSG49 = $LINKED FILE NOT DELETED$                              *112 LM00115
      RTN         CLOSE.(FNAM1,FNAM2,XRTN)                                                        *113 LM00116
                  BINEOF.(2224K)                                                                  *114 LM00117
      XRTN         FUNCTION RETURN 0                                                              *115 LM00118
                                                                                                       LM00119
                  DIMENSION TBUF(432),T(14), L(11)                                                *116 LM00120
                  VECTOR VALUES INP(14) = $INPUT,$                                                *117 LM00121
                  VECTOR VALUES INP(12) = $$                                                      *118 LM00122
                  VECTOR VALUES INP(1) = $$,$$,$$,$$,$$,$$,$$,$$,$$,$$                            *119 LM00123
                  VECTOR VALUES TEMP = 1                                                          *120 LM00124
                  VECTOR VALUES J = 864                                                           *121 LM00125
                  VECTOR VALUES K = 432                                                           *122 LM00126
                  VECTOR VALUES N = 0                                                             *123 LM00127
                  VECTOR VALUES TRASWT = 777K                                                     *124 LM00128
                  VECTOR VALUES DLTSWT = 0                                                        *125 LM00129
                  INSERT FILE COMDSK                                                              *126 LM00130
                 ...COMMON PACKAGE FOR DISK EDITOR -DSKEDT                                        *126 LM00001
                  PROGRAM COMMON B4SWT,PRIVIL,CARSWT,PRNSWT                                       *127 LM00002
                  PROGRAM COMMON PROB,PROG,FNAM1,FNAM2,MODE,C,ERCOD,DUM                           *128 LM00003
                  PROGRAM COMMON PROB1, PROG1, DATE,TIME,BUF                                      *129 LM00004
                  FUNCTION NAME CTLF,EXIT                                                         *130 LM00005
                  DIMENSION C(14),BUF(864)                                                        *131 LM00006
                  VECTOR VALUES ONOFRT = 7                                                        *132 LM00007
                  VECTOR VALUES ONRT = 5                                                          *133 LM00008
                  VECTOR VALUES OFRT = 3                                                          *134 LM00009
                  VECTOR VALUES ONOF = 6                                                          *135 LM00010
                  VECTOR VALUES ON = 4                                                            *136 LM00011
                  VECTOR VALUES OF = 2                                                            *137 LM00012
                  VECTOR VALUES EOFCT = 0                                                         *138 LM00013
                  VECTOR VALUES MZE = -0                                                          *139 LM00014
                  VECTOR VALUES DSKEDT = $DSKEDT$                                                 *140 LM00015
                  VECTOR VALUES FILE = $.FILE.$                                                   *141 LM00016
                  VECTOR VALUES CRYMAP = $CRYMAP$                                                 *142 LM00017
                  NORMAL MODE IS INTEGER                                                          *143 LM00018
                  END OF FUNCTION                                                                 *144 LM00131
1MAD PROGRAM,TYPE NOV 1963      (ALL NUMBERS ARE OCTAL)
0TOTAL LOCATIONS   01673 TRANSFER VECTOR LENGTH  00023 PROGRAM BEGINS    01126 FIRST UNUSED COMMON/ERASABLE  75662
0 PROGRAM IS AN EXTERNAL FUNCTION.   THE FOLLOWING ARE ENTRIES
      CARRY  01433   0        PNCH7  01135   0        PU7DL  01127   0
0VARIABLE STORAGE (A=ARRAY,C=COMMON,E=ERASABLE,DIGIT=MODE)
      B4SWT  77461  C1        ER42   00031   4        INP    00075 A 1        MSG49  00164 A 1        PRNSWT 77456  C1
      BEGIN  00024   4        ER43   00032   4        J      00076 A 1        MZE    00165 A 1        PROB1  77427  C1
      BUF    77423 AC1        ER44   00033   4        K      00077 A 1        N      00166 A 1        PROB   77455  C1
      CARSWT 77457  C1        ER45   00034   4        L      00113 A 1        OFRT   00167 A 1        PROG1  77426  C1
      CRYMAP 00050 A 1        ER46   00035   4        MODE   77451  C1        OF     00170 A 1        PROG   77454  C1
      C      77450 AC1        ER47   00036   4        MOVINP 00041   4        ONOFRT 00171 A 1        READLP 00044   4
      DATE   77425  C1        ER48   00037   4        MSG41  00116 A 1        ONOF   00172 A 1        RTN    00045   4
      DELAY  00025   4        ER49   00040   4        MSG42  00123 A 1        ONRT   00173 A 1        TBUF   01057 A 1
      DLTSWT 00051 A 1        ERCOD  77431  C1        MSG43  00127 A 1        ON     00174 A 1        TEMP   01060 A 1
      DSKEDT 00052 A 1        F1     00054   1        MSG44  00135 A 1        OPNN   00042   4        TIME   77424  C1
      DUM    77430  C1        F2     00055   1        MSG45  00142 A 1        PB     00175   1        TRASWT 01061 A 1
      EOF1   00026   4        FILE   00056 A 1        MSG46  00150 A 1        PG     00176   1        T      01100 A 1
      EOFCT  00053 A 1        FNAM1  77453  C1        MSG47  00153 A 1        PNCH   00043   4        XRTN   00046   4
      EOF    00027   4        FNAM2  77452  C1        MSG48  00160 A 1        PRIVIL 77460  C1        XXRTN  00047   4
      ER41   00030   4
0FUNCTION DICTIONARY
      ATTACH 00000   1        BINEOF 00001   1        BINREW 00002   1        BPNCHI 00003   1        BPUNCH 00004   1
      BUFFER 00005   1        CHFILE 00006   1        CLOSE  00007   1        DELFIL 00010   1        ERR    00011   1
      EXIT   00012   3        FCHECK 00013   1        FLIP1  00014   1        FSTATE 00015   1        OPEN   00016   1
      P7CARD 00017   1        RDFILE 00020   1        SCAN   00021   1        WRFILE 00022   1
0ABSOLUTE CONSTANTS
 01115 +000000002221     01105 +000000000016     01124 -266060606060     01113 +000000002201     01107 +000000000043
 01110 +000000000120     01103 +000000000007     01122 -116060606060     01112 +000000001540     01111 +000000000660
 01116 +000000002224     01123 -206060606060     01120 +074764452330     01125 -377777777777     01106 +000000000020
 01104 +000000000010     01114 +000000002202     01101 +000000000000     01117 +000000077777     01102 +000000000001
 01121 +233000000000
0STATEMENT DICTIONARY
 00024 TXL -301230001226       00025 TXL -301602001574       00026 TXL -301343001340       00027 TXL -301337001331
 00030 TXL -301607001603       00031 TXL -301613001607       00032 TXL -301617001613       00033 TXL -301623001617
 00034 TXL -301627001623       00035 TXL -301633001627       00036 TXL -301637001633       00037 TXL -301643001637
 00040 TXL -301647001643       00041 TXL -301510001506       00042 TXL -301546001536       00043 TXL -301143001141
 00044 TXL -301302001265       00045 TXL -301653001647       00046 TXL -301657001655       00047 TXL -301432001430
0PROGRAM
                 EXTERNAL FUNCTION                                                  001  LM00002
                 ENTRY TO PU7DL.                                                    002  LM00003
 01126 TRA +0 02000 0 01131    01127 SXA +0 63400 2 01660    01130 TSX +0 07400 2 01660
                 DLTSWT = 77777K                                                    003  LM00004
 01131 CLA +0 50000 0 01117    01132 STO +0 60100 0 00051
                 T'O PNCH                                                           004  LM00005
 01133 TRA +0 02000 0 00043
                 ENTRY TO PNCH7.                                                    005  LM00006
 01134 TRA +0 02000 0 01137    01135 SXA +0 63400 2 01660    01136 TSX +0 07400 2 01660
                 DLTSWT = 0                                                         006  LM00007
 01137 CLA +0 50000 0 01101    01140 STO +0 60100 0 00051
      PNCH       BPNCHI.(2202K)                                                     007  LM00008
 01141 TSX +0 07400 4 00003    01142 TXH +3 00000 0 01114
                 FSTATE.(FNAM1,FNAM2,T(8)...8,ER41)                                 008  LM00009
 01143 TSX +0 07400 4 00015    01144 TXH +3 00000 0 77453    01145 TXH +3 00000 0 77452    01146 TIX +2 01104 0 01070
 01147 TXH +3 00000 0 00030
                 W'R T(7) .A. 20K .NE. 0 .AND. PRIVIL .E. 0, T'O ER45               009  LM00010
 01150 CLA +0 50000 0 77460    01151 SUB +0 40200 0 01101    01152 TNZ -0 10000 0 01162    01153 CAL -0 50000 0 01071
 01154 ANA -0 32000 0 01106    01155 SLW +0 60200 0 01670    01156 CLA +0 50000 0 01670    01157 SUB +0 40200 0 01101
 01160 TZE +0 10000 0 01162    01161 TRA +0 02000 0 00034
                   L(9) = PROB                                                      010  LM00011
 01162 CLA +0 50000 0 77455    01163 STO +0 60100 0 00102
                   L(8) = PROG                                                      011  LM00012
 01164 CLA +0 50000 0 77454    01165 STO +0 60100 0 00103
                   L(6) = FNAM1                                                     012  LM00013
 01166 CLA +0 50000 0 77453    01167 STO +0 60100 0 00105
                   L(5) = FNAM2                                                     013  LM00014
 01170 CLA +0 50000 0 77452    01171 STO +0 60100 0 00106
                   L(7) = DATE                                                      014  LM00015
 01172 CLA +0 50000 0 77425    01173 STO +0 60100 0 00104
                   L(4) = TIME                                                      015  LM00016
 01174 CLA +0 50000 0 77424    01175 STO +0 60100 0 00107
                   L(3) = 777777777777K                                             016  LM00017
 01176 CLA +0 50000 0 01125    01177 STO +0 60100 0 00110
                   FLIP1.(L(9))                                                     017  LM00018
 01200 TSX +0 07400 4 00014    01201 TXH +3 00000 0 00102
                   L(10) = $7PUNCH$                                                 018  LM00019
 01202 CLA +0 50000 0 01120    01203 STO +0 60100 0 00101
                 L(7) = PROB1                                                       019  LM00020
 01204 CLA +0 50000 0 77427    01205 STO +0 60100 0 00104
                   L(6) = PROG1                                                     020  LM00021
 01206 CLA +0 50000 0 77426    01207 STO +0 60100 0 00105
                   L(5) = FNAM1                                                     021  LM00022
 01210 CLA +0 50000 0 77453    01211 STO +0 60100 0 00106
                   L(4) = FNAM2                                                     022  LM00023
 01212 CLA +0 50000 0 77452    01213 STO +0 60100 0 00107
                   L(3) = $$                                                        023  LM00024
 01214 CLA +0 50000 0 01123    01215 STO +0 60100 0 00110
                   L(2) = DATE                                                      024  LM00025
 01216 CLA +0 50000 0 77425    01217 STO +0 60100 0 00111
                   L(1) = TIME                                                      025  LM00026
 01220 CLA +0 50000 0 77424    01221 STO +0 60100 0 00112
                   BPUNCH.(L(10)...L(1))                                            026  LM00027
 01222 TSX +0 07400 4 00004    01223 TIX +2 00112 0 00101
                 BPNCHI.(2224K)                                                     027  LM00028
 01224 TSX +0 07400 4 00003    01225 TXH +3 00000 0 01116
      BEGIN      EOFCT = 432                                                        028  LM00029
 01226 CLA +0 50000 0 01111    01227 STO +0 60100 0 00053
                 J = 864                                                            029  LM00030
 01230 CLA +0 50000 0 01112    01231 STO +0 60100 0 00076
                 K = 432                                                            030  LM00031
 01232 CLA +0 50000 0 01111    01233 STO +0 60100 0 00077
                 OPEN.($R$,FNAM1,FNAM2,MZE,MZE,ER41,ERCOD)                          031  LM00032
 01234 TSX +0 07400 4 00016    01235 TXH +3 00000 0 01122    01236 TXH +3 00000 0 77453    01237 TXH +3 00000 0 77452
 01240 TXH +3 00000 0 00165    01241 TXH +3 00000 0 00165    01242 TXH +3 00000 0 00030    01243 TXH +3 00000 0 77431
                 T(1) =0                                                            032  LM00033
 01244 CLA +0 50000 0 01101    01245 STO +0 60100 0 01077
                 RDFILE.(FNAM1,FNAM2,0,BUF(K)...432,EOF,EOFCT,ER42,ERCOD)           033  LM00034
 01246 CLA +0 50000 0 00077    01247 SUB +0 40200 0 01250    01250 TXH +3 00000 0 77423    01251 STA +0 62100 0 01256
 01252 TSX +0 07400 4 00020    01253 TXH +3 00000 0 77453    01254 TXH +3 00000 0 77452    01255 TXH +3 00000 0 01101
 01256 TIX +2 01111 0 00000    01257 TXH +3 00000 0 00027    01260 TXH +3 00000 0 00053    01261 TXH +3 00000 0 00031
 01262 TXH +3 00000 0 77431
                 T(1) =7                                                            034  LM00035
 01263 CLA +0 50000 0 01103    01264 STO +0 60100 0 01077
      READLP     RDFILE.(FNAM1, FNAM2, 0, BUF(J)...432, EOF, EOFCT,ER42,ERCOD)      035  LM00036
 01265 CLA +0 50000 0 00076    01266 SUB +0 40200 0 01267    01267 TXH +3 00000 0 77423    01270 STA +0 62100 0 01275
 01271 TSX +0 07400 4 00020    01272 TXH +3 00000 0 77453    01273 TXH +3 00000 0 77452    01274 TXH +3 00000 0 01101
 01275 TIX +2 01111 0 00000    01276 TXH +3 00000 0 00027    01277 TXH +3 00000 0 00053    01300 TXH +3 00000 0 00031
 01301 TXH +3 00000 0 77431
                 P7CARD.(BUF(K),432,0)                                              036  LM00037
 01302 CLA +0 50000 0 00077    01303 SUB +0 40200 0 01304    01304 TXH +3 00000 0 77423    01305 STA +0 62100 0 01307
 01306 TSX +0 07400 4 00017    01307 TXH +3 00000 0 00000    01310 TXH +3 00000 0 01111    01311 TXH +3 00000 0 01101
                 W'R K .G. 432                                                      037  LM00038
 01312 CLA +0 50000 0 00077    01313 SUB +0 40200 0 01111    01314 TZE +0 10000 0 01324    01315 TMI -0 12000 0 01324
                     K = 432                                                        038  LM00039
 01316 CLA +0 50000 0 01111    01317 STO +0 60100 0 00077
                     J = 864                                                        039  LM00040
 01320 CLA +0 50000 0 01112    01321 STO +0 60100 0 00076
                     T'O READLP                                                     040  LM00041
 01322 TRA +0 02000 0 00044
                 O'E                                                                041  LM00042
 01323 TRA +0 02000 0 01331
                     K = 864                                                        042  LM00043
 01324 CLA +0 50000 0 01112    01325 STO +0 60100 0 00077
                     J = 432                                                        043  LM00044
 01326 CLA +0 50000 0 01111    01327 STO +0 60100 0 00076
                     T'O READLP                                                     044  LM00045
 01330 TRA +0 02000 0 00044
                 E'L                                                                045  LM00046
      EOF        FCHECK.(FNAM1,FNAM2,EOF1,ER42,ERCOD)                               046  LM00047
 01331 TSX +0 07400 4 00013    01332 TXH +3 00000 0 77453    01333 TXH +3 00000 0 77452    01334 TXH +3 00000 0 00026
 01335 TXH +3 00000 0 00031    01336 TXH +3 00000 0 77431
                 T'O EOF                                                            047  LM00048
 01337 TRA +0 02000 0 00027
      EOF1       W'R T(1) .NE. 0                                                    048  LM00049
 01340 CLA +0 50000 0 01077    01341 SUB +0 40200 0 01101    01342 TZE +0 10000 0 01354
                    P7CARD.(BUF(K),432,0)                                           049  LM00050
 01343 CLA +0 50000 0 00077    01344 SUB +0 40200 0 01345    01345 TXH +3 00000 0 77423    01346 STA +0 62100 0 01350
 01347 TSX +0 07400 4 00017    01350 TXH +3 00000 0 00000    01351 TXH +3 00000 0 01111    01352 TXH +3 00000 0 01101
                 O'E                                                                050  LM00051
 01353 TRA +0 02000 0 01356
                    J = 432                                                         051  LM00052
 01354 CLA +0 50000 0 01111    01355 STO +0 60100 0 00076
                 E'L                                                                052  LM00053
                 P7CARD.(BUF(J),EOFCT,7)                                            053  LM00054
 01356 CLA +0 50000 0 00076    01357 SUB +0 40200 0 01360    01360 TXH +3 00000 0 77423    01361 STA +0 62100 0 01363
 01362 TSX +0 07400 4 00017    01363 TXH +3 00000 0 00000    01364 TXH +3 00000 0 00053    01365 TXH +3 00000 0 01103
                 BINEOF.(2224K)                                                     054  LM00055
 01366 TSX +0 07400 4 00001    01367 TXH +3 00000 0 01116
                 CLOSE.(FNAM1,FNAM2,ER47,ERCOD)                                     055  LM00056
 01370 TSX +0 07400 4 00007    01371 TXH +3 00000 0 77453    01372 TXH +3 00000 0 77452    01373 TXH +3 00000 0 00036
 01374 TXH +3 00000 0 77431
                 W'R DLTSWT .E. 77777K                                              056  LM00057
 01375 CLA +0 50000 0 00051    01376 SUB +0 40200 0 01117    01377 TNZ -0 10000 0 01430
                    W'R T(7) .A. 120K .NE. 0,T'O ER48                               057  LM00058
 01400 CAL -0 50000 0 01071    01401 ANA -0 32000 0 01110    01402 SLW +0 60200 0 01670    01403 CLA +0 50000 0 01670
 01404 SUB +0 40200 0 01101    01405 TZE +0 10000 0 01407    01406 TRA +0 02000 0 00037
                    W'R (T(7).RS.35) .NE. 0, T'O ER49                               058  LM00059
 01407 CAL -0 50000 0 01107    01410 STA +0 62100 0 01412    01411 CAL -0 50000 0 01071    01412 LGR -0 76500 0 00000
 01413 SLW +0 60200 0 01670    01414 CLA +0 50000 0 01670    01415 SUB +0 40200 0 01101    01416 TZE +0 10000 0 01420
 01417 TRA +0 02000 0 00040
                  CHFILE.(FNAM1,FNAM2,TEMP,MZE,MZE,ER46,ERCOD)                      059  LM00060
 01420 TSX +0 07400 4 00006    01421 TXH +3 00000 0 77453    01422 TXH +3 00000 0 77452    01423 TXH +3 00000 0 01060
 01424 TXH +3 00000 0 00165    01425 TXH +3 00000 0 00165    01426 TXH +3 00000 0 00035    01427 TXH +3 00000 0 77431
                 E'L                                                                060  LM00061
      XXRTN      F'N 1                                                              061  LM00062
 01430 CLA +0 50000 0 01102    01431 TRA +0 02000 0 01664
                 ENTRY TO CARRY.                                                    062  LM00065
 01432 TRA +0 02000 0 01435    01433 SXA +0 63400 2 01660    01434 TSX +0 07400 2 01660
                 FSTATE.(FNAM1,FNAM2,T(8)...8,ER41)                                 063  LM00066
 01435 TSX +0 07400 4 00015    01436 TXH +3 00000 0 77453    01437 TXH +3 00000 0 77452    01440 TIX +2 01104 0 01070
 01441 TXH +3 00000 0 00030
                 W'R T(7) .A. 20K .NE. 0 .AND. PRIVIL .E. 0,T'O ER45                064  LM00067
 01442 CLA +0 50000 0 77460    01443 SUB +0 40200 0 01101    01444 TNZ -0 10000 0 01454    01445 CAL -0 50000 0 01071
 01446 ANA -0 32000 0 01106    01447 SLW +0 60200 0 01670    01450 CLA +0 50000 0 01670    01451 SUB +0 40200 0 01101
 01452 TZE +0 10000 0 01454    01453 TRA +0 02000 0 00034
                 DLTSWT = 0                                                         065  LM00068
 01454 CLA +0 50000 0 01101    01455 STO +0 60100 0 00051
                 CARSWT = 77777K                                                    066  LM00069
 01456 CLA +0 50000 0 01117    01457 STO +0 60100 0 77457
                 BPNCHI.(2201K)                                                     067  LM00070
 01460 TSX +0 07400 4 00003    01461 TXH +3 00000 0 01113
                 PB = PROB                                                          068  LM00071
 01462 CLA +0 50000 0 77455    01463 STO +0 60100 0 00175
                 PG = PROG                                                          069  LM00072
 01464 CLA +0 50000 0 77454    01465 STO +0 60100 0 00176
                 F1 = FNAM1                                                         070  LM00073
 01466 CLA +0 50000 0 77453    01467 STO +0 60100 0 00054
                 F2 = FNAM2                                                         071  LM00074
 01470 CLA +0 50000 0 77452    01471 STO +0 60100 0 00055
                 PB = SCAN.(MOVINP)                                                 072  LM00075
 01472 TSX +0 07400 4 00021    01473 TXH +3 00000 0 00041    01474 STO +0 60100 0 00175
                 PG = SCAN.(ER43)                                                   073  LM00076
 01475 TSX +0 07400 4 00021    01476 TXH +3 00000 0 00032    01477 STO +0 60100 0 00176
                 F1 = SCAN.(MOVINP)                                                 074  LM00077
 01500 TSX +0 07400 4 00021    01501 TXH +3 00000 0 00041    01502 STO +0 60100 0 00054
                 F2 = SCAN.(ER43)                                                   075  LM00078
 01503 TSX +0 07400 4 00021    01504 TXH +3 00000 0 00032    01505 STO +0 60100 0 00055
      MOVINP     INP(13) = PB                                                       076  LM00079
 01506 CLA +0 50000 0 00175    01507 STO +0 60100 0 00060
                 INP(11) = PG                                                       077  LM00080
 01510 CLA +0 50000 0 00176    01511 STO +0 60100 0 00062
                 INP(9) = F1                                                        078  LM00081
 01512 CLA +0 50000 0 00054    01513 STO +0 60100 0 00064
                 INP(7) = F2                                                        079  LM00082
 01514 CLA +0 50000 0 00055    01515 STO +0 60100 0 00066
                 W'R TRASWT .NE. 0                                                  080  LM00083
 01516 CLA +0 50000 0 01061    01517 SUB +0 40200 0 01101    01520 TZE +0 10000 0 01561
                 BINREW.                                                            081  LM00084
 01521 TSX +0 07400 4 00002
                    ATTACH.(DSKEDT,FILE)                                            082  LM00085
 01522 TSX +0 07400 4 00000    01523 TXH +3 00000 0 00052    01524 TXH +3 00000 0 00056
                    FSTATE.(CRYMAP,FILE,TBUF(8)...8,OPNN)                           083  LM00086
 01525 TSX +0 07400 4 00015    01526 TXH +3 00000 0 00050    01527 TXH +3 00000 0 00056    01530 TIX +2 01104 0 01047
 01531 TXH +3 00000 0 00042
                    DELFIL.(CRYMAP,FILE,OPNN)                                       084  LM00087
 01532 TSX +0 07400 4 00010    01533 TXH +3 00000 0 00050    01534 TXH +3 00000 0 00056    01535 TXH +3 00000 0 00042
      OPNN       OPEN.($W$,CRYMAP,FILE,MZE,MZE,ER44,ERCOD)                          085  LM00088
 01536 TSX +0 07400 4 00016    01537 TXH +3 00000 0 01124    01540 TXH +3 00000 0 00050    01541 TXH +3 00000 0 00056
 01542 TXH +3 00000 0 00165    01543 TXH +3 00000 0 00165    01544 TXH +3 00000 0 00033    01545 TXH +3 00000 0 77431
                    BUFFER.(CRYMAP,FILE,TBUF(432)...432,ER44,ERCOD)                 086  LM00089
 01546 TSX +0 07400 4 00005    01547 TXH +3 00000 0 00050    01550 TXH +3 00000 0 00056    01551 TIX +2 01111 0 00177
 01552 TXH +3 00000 0 00033    01553 TXH +3 00000 0 77431
                    ATTACH.(PROB,PROG)                                              087  LM00090
 01554 TSX +0 07400 4 00000    01555 TXH +3 00000 0 77455    01556 TXH +3 00000 0 77454
                    TRASWT = 0                                                      088  LM00091
 01557 CLA +0 50000 0 01101    01560 STO +0 60100 0 01061
                 E'L                                                                089  LM00092
                 WRFILE.(CRYMAP,FILE,0,INP(14)...14,ER44,ERCOD)                     090  LM00093
 01561 TSX +0 07400 4 00022    01562 TXH +3 00000 0 00050    01563 TXH +3 00000 0 00056    01564 TXH +3 00000 0 01101
 01565 TIX +2 01105 0 00057    01566 TXH +3 00000 0 00033    01567 TXH +3 00000 0 77431
                 BPUNCH.(INP(14)...INP(1))                                          091  LM00094
 01570 TSX +0 07400 4 00004    01571 TIX +2 00074 0 00057
                 BPNCHI.(2221K)                                                     092  LM00095
 01572 TSX +0 07400 4 00003    01573 TXH +3 00000 0 01115
      DELAY      FCHECK.(CRYMAP,FILE,BEGIN,ER44,ERCOD)                              093  LM00096
 01574 TSX +0 07400 4 00013    01575 TXH +3 00000 0 00050    01576 TXH +3 00000 0 00056    01577 TXH +3 00000 0 00024
 01600 TXH +3 00000 0 00033    01601 TXH +3 00000 0 77431
                 T'O DELAY                                                          094  LM00097
 01602 TRA +0 02000 0 00025
      ER41       ERR.(MSG41...MSG41(2), OFRT, XRTN)                                 095  LM00098
 01603 TSX +0 07400 4 00011    01604 TIX +2 00114 0 00116    01605 TXH +3 00000 0 00167    01606 TXH +3 00000 0 00046
                     V'S MSG41 = $NO FILE FOUND$                                    096  LM00099
 00114     +2 46060 6 06060    00115     +2 56026 4 66445    00116     -0 54660 2 63143
      ER42       ERR.(MSG42...MSG42(4),ONOFRT,RTN)                                  097  LM00100
 01607 TSX +0 07400 4 00011    01610 TIX +2 00117 0 00123    01611 TXH +3 00000 0 00171    01612 TXH +3 00000 0 00045
                    V'S MSG42 = $ERR READING FILE FOR 7PUNCH$                       098  LM00101
 00117     -0 52330 6 06060    00120     -0 65160 0 74764    00121     +2 63143 2 56026    00122     +2 12431 4 52760
 00123     +2 55151 6 05125
      ER43       ERR.(MSG43...MSG43(3),ONOFRT,XRTN)                                 099  LM00102
 01613 TSX +0 07400 4 00011    01614 TIX +2 00124 0 00127    01615 TXH +3 00000 0 00171    01616 TXH +3 00000 0 00046
                    V'S MSG43 = $ILLEGAL REQUEST FORMAT$                            100  LM00103
 00124     -1 14421 6 36060    00125     +2 56263 6 02646    00126     -0 36051 2 55064    00127     +3 14343 2 52721
      ER44       ERR.(MSG44...MSG44(5),ONRT,BEGIN)                                  101  LM00104
 01617 TSX +0 07400 4 00011    01620 TIX +2 00130 0 00135    01621 TXH +3 00000 0 00173    01622 TXH +3 00000 0 00024
                    V'S MSG44=$TROUBLE WITH CARRY TABLE OF CONTENTS$                102  LM00105
 00130     -0 56325 4 56362    00131     -2 04626 6 02346    00132     -2 06321 2 24325    00133     -2 02321 5 15170
 00134     +2 56066 3 16330    00135     -2 35146 6 42243
      ER45       ERR.(MSG45...MSG45(6),ONOFRT,XXRTN)                                103  LM00106
 01623 TSX +0 07400 4 00011    01624 TIX +2 00134 0 00142    01625 TXH +3 00000 0 00171    01626 TXH +3 00000 0 00047
                    V'S MSG45 = $CAN'T OUTPUT A PRIVATE FILE.$                      104  LM00107
 00136     +3 14325 3 36060    00137     -2 52163 2 56026    00140     -2 02160 4 75131    00141     -0 66463 4 76463
 00142     +2 32145 1 46360
      ER46       ERR.(MSG46...MSG46(4),ONOFRT,XXRTN)                                105  LM00108
 01627 TSX +0 07400 4 00011    01630 TIX +2 00144 0 00150    01631 TXH +3 00000 0 00171    01632 TXH +3 00000 0 00047
                    V'S MSG46 = $CAN'T CHANGE FILE TO TEMPORARY.$                   106  LM00109
 00143     +3 36060 6 06060    00144     -0 74651 2 15170    00145     -2 34660 6 32544    00146     -2 02631 4 32560
 00147     +2 33021 4 52725    00150     +2 32145 1 46360
      ER47       ERR.(MSG47...MSG47(2),ONOFRT,XXRTN)                                107  LM00110
 01633 TSX +0 07400 4 00011    01634 TIX +2 00151 0 00153    01635 TXH +3 00000 0 00171    01636 TXH +3 00000 0 00047
                    V'S MSG47 = $CAN'T CLOSE FILE.$                                 108  LM00111
 00151     +2 63143 2 53360    00152     +2 34346 6 22560    00153     +2 32145 1 46360
      ER48       ERR.(MSG48...MSG48(4),OFRT,XXRTN)                                  109  LM00112
 01637 TSX +0 07400 4 00011    01640 TIX +2 00154 0 00160    01641 TXH +3 00000 0 00167    01642 TXH +3 00000 0 00047
                    V'S MSG48 = $CAN'T DELETE PROTECTED FILE$                       110  LM00113
 00154     +3 14325 6 06060    00155     +2 36325 2 46026    00156     -2 04751 4 66325    00157     +2 42543 2 56325
 00160     +2 32145 1 46360
      ER49       ERR.(MSG49...MSG49(3),OFRT,XXRTN)                                  111  LM00114
 01643 TSX +0 07400 4 00011    01644 TIX +2 00161 0 00164    01645 TXH +3 00000 0 00167    01646 TXH +3 00000 0 00047
                    V'S MSG49 = $LINKED FILE NOT DELETED$                           112  LM00115
 00161     -0 32563 2 52460    00162     -0 54663 6 02425    00163     -2 02631 4 32560    00164     -0 33145 4 22524
      RTN        CLOSE.(FNAM1,FNAM2,XRTN)                                           113  LM00116
 01647 TSX +0 07400 4 00007    01650 TXH +3 00000 0 77453    01651 TXH +3 00000 0 77452    01652 TXH +3 00000 0 00046
                 BINEOF.(2224K)                                                     114  LM00117
 01653 TSX +0 07400 4 00001    01654 TXH +3 00000 0 01116
      XRTN        F'N 0                                                             115  LM00118
 01655 CLA +0 50000 0 01101    01656 TRA +0 02000 0 01664
                 D'N TBUF(432),T(14), L(11)                                         116  LM00120
                 V'S INP(14) = $INPUT,$                                             117  LM00121
 00057     +3 14547 6 46373
                 V'S INP(12) = $$                                                   118  LM00122
 00061     -2 06060 6 06060
                 V'S INP(1) = $$,$$,$$,$$,$$,$$,$$,$$,$$,$$                         119  LM00123
 00063     -2 06060 6 06060    00064     -2 06060 6 06060    00065     -2 06060 6 06060    00066     -2 06060 6 06060
 00067     -2 06060 6 06060    00070     -2 06060 6 06060    00071     -2 06060 6 06060    00072     -2 06060 6 06060
 00073     -2 06060 6 06060    00074     -2 06060 6 06060
                 V'S TEMP = 1                                                       120  LM00124
 01060     +0 00000 0 00001
                 V'S J = 864                                                        121  LM00125
 00076     +0 00000 0 01540
                 V'S K = 432                                                        122  LM00126
 00077     +0 00000 0 00660
                 V'S N = 0                                                          123  LM00127
 00166     +0 00000 0 00000
                 V'S TRASWT = 777K                                                  124  LM00128
 01061     +0 00000 0 00777
                 V'S DLTSWT = 0                                                     125  LM00129
 00051     +0 00000 0 00000
                 INSERT FILE COMDSK                                                 126  LM00130
                 PROGRAM COMMON B4SWT,PRIVIL,CARSWT,PRNSWT                          127  LM00002
                 PROGRAM COMMON PROB,PROG,FNAM1,FNAM2,MODE,C,ERCOD,DUM              128  LM00003
                 PROGRAM COMMON PROB1, PROG1, DATE,TIME,BUF                         129  LM00004
                 FUNCTION NAME CTLF,EXIT                                            130  LM00005
                 DIMENSION C(14),BUF(864)                                           131  LM00006
                 V'S ONOFRT = 7                                                     132  LM00007
 00171     +0 00000 0 00007
                 V'S ONRT = 5                                                       133  LM00008
 00173     +0 00000 0 00005
                 V'S OFRT = 3                                                       134  LM00009
 00167     +0 00000 0 00003
                 V'S ONOF = 6                                                       135  LM00010
 00172     +0 00000 0 00006
                 V'S ON = 4                                                         136  LM00011
 00174     +0 00000 0 00004
                 V'S OF = 2                                                         137  LM00012
 00170     +0 00000 0 00002
                 V'S EOFCT = 0                                                      138  LM00013
 00053     +0 00000 0 00000
                 V'S MZE = -0                                                       139  LM00014
 00165     -0 00000 0 00000
                 V'S DSKEDT = $DSKEDT$                                              140  LM00015
 00052     +2 46242 2 52463
                 V'S FILE = $.FILE.$                                                141  LM00016
 00056     +3 32631 4 32533
                 V'S CRYMAP = $CRYMAP$                                              142  LM00017
 00050     +2 35170 4 42147
                 N'S INTEGER                                                        143  LM00018
                 E'N                                                                144  LM00131
 01657 TSX +0 07400 4 00012    01660 TXH +3 00000 0 00000    01661 SXD -0 63400 1 01660    01662 SXA +0 63400 4 01664
 01663 TRA +0 02000 2 00001    01664 AXT +0 77400 4 00000    01665 LXA +0 53400 2 01660    01666 LXD -0 53400 1 01660
 01667 TRA +0 02000 4 00001


MFDDLT   BCD 05/15/71 1242.8    8365         00000
1     MAD PROGRAM LISTING ... ... ...                 FILE  MFDDLT   MAD            05/15/71    1239.0
-
                 ...DELETE A FILE FROM PROB PROG                                                       LM00001
                  EXTERNAL FUNCTION                                                               *001 LM00002
                  ENTRY TO DLETE.                                                                 *002 LM00003
                  FSTATE.(FNAM1,FNAM2,A(8)...8,ER61)                                              *003 LM00004
                  WHENEVER PRIVIL .E. 0                                                           *004 LM00005
                     WHENEVER A(7) .A. 120K .NE. 0, TRANSFER TO PRVRTN                            *005 LM00006
                     WHENEVER (A(7) .RS. 35) .NE. 0, TRANSFER TO PRVRTN                           *006 LM00007
                     CHFILE.(FNAM1,FNAM2,1,MZE,MZE,DELF)                                          *007 LM00008
      DELF           DELFIL.(FNAM1,FNAM2,ER62,ERCOD)                                              *008 LM00009
                  OTHERWISE                                                                       *009 LM00010
                     OPEN.($W$,FNAM1,FNAM2,MZE,MZE,DELT)                                          *010 LM00011
      DELT           TRFILE. (FNAM1,FNAM2,0,ER62,ERCOD)                                           *011 LM00012
                  END OF CONDITIONAL                                                              *012 LM00013
                  FUNCTION RETURN 1                                                               *013 LM00014
      ER61         ERR.(MSG61...MSG61(2), ONOFRT,RTN)                                             *014 LM00015
                  VECTOR VALUES MSG61 = $ NO FILE FOUND$                                          *015 LM00016
      ER62        ERR.(MSG62...MSG62(2),ONOFRT,RTN)                                               *016 LM00017
                     VECTOR VALUES MSG62 = $CAN'T DELETE FILE$                                    *017 LM00018
      RTN         FUNCTION RETURN 0                                                               *018 LM00019
                                                                                                       LM00020
                  ENTRY TO NLINK.                                                                 *019 LM00021
                  WHENEVER PRIVIL .E.  0, TRANSFER TO PRVRTN                                      *020 LM00022
                  UNLINK.(FNAM1,FNAM2,ER67,ERCOD)                                                 *021 LM00023
                  FUNCTION RETURN 1                                                               *022 LM00024
      ER67        ERR.(MSG67...MSG67(1),ONOFRT,ERRTN)                                             *023 LM00025
                     VECTOR VALUES MSG67 = $CAN'T UNLINK.$                                        *024 LM00026
                   BY CONTROL CARD TO INPUT, ADD A USER TO MFD                                         LM00027
                                                                                                       LM00028
                  ENTRY TO ADDMFD.                                                                *025 LM00029
                  WHENEVER PRIVIL .E. 0, TRANSFER TO PRVRTN                                       *026 LM00030
                  UPDMFD.(PROB, PROG, ALOTT)                                                      *027 LM00031
      ALOTT       DRUM = SCAN.(ER64)                                                              *028 LM00032
                  DISK = SCAN.(ER64)                                                              *029 LM00033
                  TAPE = SCAN.(ER64)                                                              *030 LM00034
                  DRUM = DECCNV.(DRUM)                                                            *031 LM00035
                  DISK = DECCNV.(DISK)                                                            *032 LM00036
                  TAPE = DECCNV.(TAPE)                                                            *033 LM00037
                  ATTACH.(PROB,PROG,ER63,ERCOD)                                                   *034 LM00038
                  ALLOT.(1,DRUM,ER63,ERCOD)                                                       *035 LM00039
                  ALLOT.(2,DISK,ER63,ERCOD)                                                       *036 LM00040
                  ALLOT.(3,TAPE,ER63,ERCOD)                                                       *037 LM00041
                  FUNCTION RETURN 1                                                               *038 LM00042
      ER63        ERR.(MSG63...MSG63(3),ONOFRT,ERRTN)                                             *039 LM00043
                     VECTOR VALUES MSG63 = $TROUBLE WITH ALLOTTING$                               *040 LM00044
      ERRTN       FUNCTION RETURN 0                                                               *041 LM00045
                                                                                                       LM00046
                  ENTRY TO LNK.                                                                   *042 LM00047
                  WHENEVER PRIVIL .E. 0, TRANSFER TO PRVRTN                                       *043 LM00048
                  FSTATE.(FNAM1,FNAM2,A(8)...8,OK)                                                *044 LM00049
                  WHENEVER (A(7) .RS. 35) .NE. 0                                                  *045 LM00050
                     UNLINK.(FNAM1,FNAM2,ER65,ERCOD)                                              *046 LM00051
                  OTHERWISE                                                                       *047 LM00052
                  CHFILE.(FNAM1,FNAM2,1,MZE,MZE,DLT1)                                             *048 LM00053
      DLT1           DELFIL.(FNAM1,FNAM2,ER65,ERCOD)                                              *049 LM00054
                  END OF CONDITIONAL                                                              *050 LM00055
                 ...RQUEST - LINK PROB PROG FN1 FN2 PROB1 PROG1                                        LM00056
      OK          PB = ADJPRB.(SCAN.(ER64),ER64)                                                  *051 LM00057
                  PG = SCAN. (ER64)                                                               *052 LM00058
                  MODE = MZE                                                                      *053 LM00059
                  FN1 = MZE                                                                       *054 LM00060
                  FN2 = MZE                                                                       *055 LM00061
                  FN1 = SCAN.(NXT)                                                                *056 LM00062
                  WHENEVER FN1 .E. $     *$, FN1 = MZE                                            *057 LM00063
                  FN2 = SCAN.(NXT)                                                                *058 LM00064
                  WHENEVER FN2 .E. $     *$, FN2 = MZE                                            *059 LM00065
                  MODE = SCAN.(NXT)                                                               *060 LM00066
                  WHENEVER MODE .E. $     *$                                                      *061 LM00067
                     MODE = MZE                                                                   *062 LM00068
                     TRANSFER TO NXT                                                              *063 LM00069
                  END OF CONDITIONAL                                                              *064 LM00070
                  MODE = SOCTBN.(MODE)                                                            *065 LM00071
      NXT         LINK.(FNAM1,FNAM2,PB,PG,FN1,FN2,MODE,ER65,ERCOD)                                *066 LM00072
                  FUNCTION RETURN 1                                                               *067 LM00073
                                                                                                       LM00074
      ER64        ERR.(MSG64...MSG64(3),ONOFRT,ERRTN)                                             *068 LM00075
                     VECTOR VALUES MSG64 = $ILLEGAL RQUEST FORMAT$                                *069 LM00076
      ER65        ERR.(MSG65...MSG65(1),ONOFRT,ERRTN)                                             *070 LM00077
                     VECTOR VALUES MSG65 = $CAN'T LINK$                                           *071 LM00078
                                                                                                       LM00079
                 ...FUNCTION TO CHANGE FILE.                                                           LM00080
                  ENTRY TO CHNGE.                                                                 *072 LM00081
                  WHENEVER PRIVIL .E. 0, TRANSFER TO PRVRTN                                       *073 LM00082
                  MODE = SCAN.(ER64)                                                              *074 LM00083
                     WHENEVER MODE .E. $$ .OR. MODE .E. $     *$, MODE = MZE                      *075 LM00084
                     WHENEVER MODE .NE. MZE, MODE = SOCTBN.(MODE)                                 *076 LM00085
                  NEW1 = SCAN.(SAME1)                                                             *077 LM00086
                  NEW2 = SCAN.(SAME1)                                                             *078 LM00087
      SAME1       WHENEVER NEW1 .E. $$ .OR. NEW1 .E. $     *$, NEW1 = MZE                         *079 LM00088
                  WHENEVER NEW2 .E. $$ .OR. NEW2 .E. $     *$, NEW2 = MZE                         *080 LM00089
                  WHENEVER NEW1 .E. MZE .AND. NEW2 .E. MZE, TRANSFER TO OK1                       *081 LM00090
                  WHENEVER NEW1 .E. MZE, NEW1 = FNAM1                                             *082 LM00091
                  WHENEVER NEW2 .E. MZE, NEW2 = FNAM2                                             *083 LM00092
                  FSTATE.(NEW1,NEW2,A(8)...8,OK1)                                                 *084 LM00093
                  CHFILE.(NEW1,NEW2,1,MZE,MZE,DLT2)                                               *085 LM00094
      DLT2        DELFIL.(NEW1,NEW2,ER66,ERCOD)                                                   *086 LM00095
      OK1         CHFILE.(FNAM1,FNAM2,MODE,NEW1,NEW2,ER66,ERCOD)                                  *087 LM00096
                  NEW1 = $     *$                                                                 *088 LM00097
                  NEW2 = $     *$                                                                 *089 LM00098
                  FUNCTION RETURN 1                                                               *090 LM00099
                                                                                                       LM00100
      ER66        ERR.(MSG66...MSG66(1),ONOFRT,ERRTN)                                             *091 LM00101
                     VECTOR VALUES MSG66 = $CAN'T CHFILE$                                         *092 LM00102
      PRVRTN      ERR.(MSG67...MSG67(3),ONOFRT,RTN)                                               *093 LM00103
                     VECTOR VALUES MSG67 = $CAN'T DO. NOT PRIVILEGED.$                            *094 LM00104
                                                                                                       LM00105
                  DIMENSION A(8)                                                                  *095 LM00106
                  VECTOR VALUES PB = $$                                                           *096 LM00107
                  VECTOR VALUES PG = $$                                                           *097 LM00108
                  VECTOR VALUES FN1 = -0                                                          *098 LM00109
                  VECTOR VALUES FN2 = -0                                                          *099 LM00110
                  VECTOR VALUES NEW1 = $$                                                         *100 LM00111
                  VECTOR VALUES NEW2 = $$                                                         *101 LM00112
                  INSERT FILE COMDSK                                                              *102 LM00113
                 ...COMMON PACKAGE FOR DISK EDITOR -DSKEDT                                        *102 LM00001
                  PROGRAM COMMON B4SWT,PRIVIL,CARSWT,PRNSWT                                       *103 LM00002
                  PROGRAM COMMON PROB,PROG,FNAM1,FNAM2,MODE,C,ERCOD,DUM                           *104 LM00003
                  PROGRAM COMMON PROB1, PROG1, DATE,TIME,BUF                                      *105 LM00004
                  FUNCTION NAME CTLF,EXIT                                                         *106 LM00005
                  DIMENSION C(14),BUF(864)                                                        *107 LM00006
                  VECTOR VALUES ONOFRT = 7                                                        *108 LM00007
                  VECTOR VALUES ONRT = 5                                                          *109 LM00008
                  VECTOR VALUES OFRT = 3                                                          *110 LM00009
                  VECTOR VALUES ONOF = 6                                                          *111 LM00010
                  VECTOR VALUES ON = 4                                                            *112 LM00011
                  VECTOR VALUES OF = 2                                                            *113 LM00012
                  VECTOR VALUES EOFCT = 0                                                         *114 LM00013
                  VECTOR VALUES MZE = -0                                                          *115 LM00014
                  VECTOR VALUES DSKEDT = $DSKEDT$                                                 *116 LM00015
                  VECTOR VALUES FILE = $.FILE.$                                                   *117 LM00016
                  VECTOR VALUES CRYMAP = $CRYMAP$                                                 *118 LM00017
                  NORMAL MODE IS INTEGER                                                          *119 LM00018
                  END OF FUNCTION                                                                 *120 LM00114
1MAD PROGRAM,TYPE NOV 1963      (ALL NUMBERS ARE OCTAL)
0TOTAL LOCATIONS   00707 TRANSFER VECTOR LENGTH  00020 PROGRAM BEGINS    00143 FIRST UNUSED COMMON/ERASABLE  75662
0 PROGRAM IS AN EXTERNAL FUNCTION.   THE FOLLOWING ARE ENTRIES
      CHNGE  00526   0        LNK    00360   0        ADDMFD 00267   0        NLINK  00245   0        DLETE  00144   0
0VARIABLE STORAGE (A=ARRAY,C=COMMON,E=ERASABLE,DIGIT=MODE)
      ALOTT  00021   4        DRUM   00057   1        FILE   00062 A 1        MZE    00114 A 1        PG     00126 A 1
      A      00054 A 1        DSKEDT 00060 A 1        FN1    00063 A 1        NEW1   00115 A 1        PRIVIL 77460  C1
      B4SWT  77461  C1        DUM    77430  C1        FN2    00064 A 1        NEW2   00116 A 1        PRNSWT 77456  C1
      BUF    77423 AC1        EOFCT  00061 A 1        FNAM1  77453  C1        NXT    00036   4        PROB1  77427  C1
      CARSWT 77457  C1        ER61   00026   4        FNAM2  77452  C1        OFRT   00117 A 1        PROB   77455  C1
      CRYMAP 00055 A 1        ER62   00027   4        MODE   77451  C1        OF     00120 A 1        PROG1  77426  C1
      C      77450 AC1        ER63   00030   4        MSG61  00067 A 1        OK1    00037   4        PROG   77454  C1
      DATE   77425  C1        ER64   00031   4        MSG62  00072 A 1        OK     00040   4        PRVRTN 00041   4
      DELF   00022   4        ER65   00032   4        MSG63  00076 A 1        ONOFRT 00121 A 1        RTN    00042   4
      DELT   00023   4        ER66   00033   4        MSG64  00102 A 1        ONOF   00122 A 1        SAME1  00043   4
      DISK   00056   1        ER67   00034   4        MSG65  00104 A 1        ONRT   00123 A 1        TAPE   00127   1
      DLT1   00024   4        ERCOD  77431  C1        MSG66  00106 A 1        ON     00124 A 1        TIME   77424  C1
      DLT2   00025   4        ERRTN  00035   4        MSG67  00113 A 1        PB     00125 A 1
0FUNCTION DICTIONARY
      ADJPRB 00000   1        ALLOT  00001   1        ATTACH 00002   1        CHFILE 00003   1        DECCNV 00004   1
      DELFIL 00005   1        ERR    00006   1        EXIT   00007   3        FSTATE 00010   1        LINK   00011   1
      OPEN   00012   1        SCAN   00013   1        SOCTBN 00014   1        TRFILE 00015   1        UNLINK 00016   1
      UPDMFD 00017   1
0ABSOLUTE CONSTANTS
 00141 -206060606060     00140 -206060606054     00133 +000000000003     00132 +000000000002     00142 -266060606060
 00135 +000000000043     00136 +000000000120     00130 +000000000000     00134 +000000000010     00131 +000000000001
 00137 +233000000000
0STATEMENT DICTIONARY
 00021 TXL -300304000301       00022 TXL -300212000205       00023 TXL -300230000222       00024 TXL -300425000420
 00025 TXL -300645000640       00026 TXL -300236000232       00027 TXL -300242000236       00030 TXL -300355000351
 00031 TXL -300521000515       00032 TXL -300525000521       00033 TXL -300667000663       00034 TXL -300266000262
 00035 TXL -300357000355       00036 TXL -300513000501       00037 TXL -300655000645       00040 TXL -300434000425
 00041 TXL -300673000667       00042 TXL -300244000242       00043 TXL -300573000563
0PROGRAM
                 EXTERNAL FUNCTION                                                  001  LM00002
                 ENTRY TO DLETE.                                                    002  LM00003
 00143 TRA +0 02000 0 00146    00144 SXA +0 63400 2 00674    00145 TSX +0 07400 2 00674
                 FSTATE.(FNAM1,FNAM2,A(8)...8,ER61)                                 003  LM00004
 00146 TSX +0 07400 4 00010    00147 TXH +3 00000 0 77453    00150 TXH +3 00000 0 77452    00151 TIX +2 00134 0 00044
 00152 TXH +3 00000 0 00026
                 W'R PRIVIL .E. 0                                                   004  LM00005
 00153 CLA +0 50000 0 77460    00154 SUB +0 40200 0 00130    00155 TNZ -0 10000 0 00213
                    W'R A(7) .A. 120K .NE. 0, T'O PRVRTN                            005  LM00006
 00156 CAL -0 50000 0 00045    00157 ANA -0 32000 0 00136    00160 SLW +0 60200 0 00704    00161 CLA +0 50000 0 00704
 00162 SUB +0 40200 0 00130    00163 TZE +0 10000 0 00165    00164 TRA +0 02000 0 00041
                    W'R (A(7) .RS. 35) .NE. 0, T'O PRVRTN                           006  LM00007
 00165 CAL -0 50000 0 00135    00166 STA +0 62100 0 00170    00167 CAL -0 50000 0 00045    00170 LGR -0 76500 0 00000
 00171 SLW +0 60200 0 00704    00172 CLA +0 50000 0 00704    00173 SUB +0 40200 0 00130    00174 TZE +0 10000 0 00176
 00175 TRA +0 02000 0 00041
                    CHFILE.(FNAM1,FNAM2,1,MZE,MZE,DELF)                             007  LM00008
 00176 TSX +0 07400 4 00003    00177 TXH +3 00000 0 77453    00200 TXH +3 00000 0 77452    00201 TXH +3 00000 0 00131
 00202 TXH +3 00000 0 00114    00203 TXH +3 00000 0 00114    00204 TXH +3 00000 0 00022
      DELF          DELFIL.(FNAM1,FNAM2,ER62,ERCOD)                                 008  LM00009
 00205 TSX +0 07400 4 00005    00206 TXH +3 00000 0 77453    00207 TXH +3 00000 0 77452    00210 TXH +3 00000 0 00027
 00211 TXH +3 00000 0 77431
                 O'E                                                                009  LM00010
 00212 TRA +0 02000 0 00230
                    OPEN.($W$,FNAM1,FNAM2,MZE,MZE,DELT)                             010  LM00011
 00213 TSX +0 07400 4 00012    00214 TXH +3 00000 0 00142    00215 TXH +3 00000 0 77453    00216 TXH +3 00000 0 77452
 00217 TXH +3 00000 0 00114    00220 TXH +3 00000 0 00114    00221 TXH +3 00000 0 00023
      DELT          TRFILE. (FNAM1,FNAM2,0,ER62,ERCOD)                              011  LM00012
 00222 TSX +0 07400 4 00015    00223 TXH +3 00000 0 77453    00224 TXH +3 00000 0 77452    00225 TXH +3 00000 0 00130
 00226 TXH +3 00000 0 00027    00227 TXH +3 00000 0 77431
                 E'L                                                                012  LM00013
                 F'N 1                                                              013  LM00014
 00230 CLA +0 50000 0 00131    00231 TRA +0 02000 0 00700
      ER61        ERR.(MSG61...MSG61(2), ONOFRT,RTN)                                014  LM00015
 00232 TSX +0 07400 4 00006    00233 TIX +2 00065 0 00067    00234 TXH +3 00000 0 00121    00235 TXH +3 00000 0 00042
                 V'S MSG61 = $ NO FILE FOUND$                                       015  LM00016
 00065     -0 52460 6 06060    00066     -0 32560 2 64664    00067     -2 04546 6 02631
      ER62       ERR.(MSG62...MSG62(2),ONOFRT,RTN)                                  016  LM00017
 00236 TSX +0 07400 4 00006    00237 TIX +2 00070 0 00072    00240 TXH +3 00000 0 00121    00241 TXH +3 00000 0 00042
                    V'S MSG62 = $CAN'T DELETE FILE$                                 017  LM00018
 00070     -2 02631 4 32560    00071     +2 42543 2 56325    00072     +2 32145 1 46360
      RTN        F'N 0                                                              018  LM00019
 00242 CLA +0 50000 0 00130    00243 TRA +0 02000 0 00700
                 ENTRY TO NLINK.                                                    019  LM00021
 00244 TRA +0 02000 0 00247    00245 SXA +0 63400 2 00674    00246 TSX +0 07400 2 00674
                 W'R PRIVIL .E.  0, T'O PRVRTN                                      020  LM00022
 00247 CLA +0 50000 0 77460    00250 SUB +0 40200 0 00130    00251 TNZ -0 10000 0 00253    00252 TRA +0 02000 0 00041
                 UNLINK.(FNAM1,FNAM2,ER67,ERCOD)                                    021  LM00023
 00253 TSX +0 07400 4 00016    00254 TXH +3 00000 0 77453    00255 TXH +3 00000 0 77452    00256 TXH +3 00000 0 00034
 00257 TXH +3 00000 0 77431
                 F'N 1                                                              022  LM00024
 00260 CLA +0 50000 0 00131    00261 TRA +0 02000 0 00700
      ER67       ERR.(MSG67...MSG67(1),ONOFRT,ERRTN)                                023  LM00025
 00262 TSX +0 07400 4 00006    00263 TIX +2 00112 0 00113    00264 TXH +3 00000 0 00121    00265 TXH +3 00000 0 00035
                    V'S MSG67 = $CAN'T UNLINK.$                                     024  LM00026
 00111     +3 36060 6 06060    00112     -2 44543 3 14542    00113     +2 32145 1 46360
                 ENTRY TO ADDMFD.                                                   025  LM00029
 00266 TRA +0 02000 0 00271    00267 SXA +0 63400 2 00674    00270 TSX +0 07400 2 00674
                 W'R PRIVIL .E. 0, T'O PRVRTN                                       026  LM00030
 00271 CLA +0 50000 0 77460    00272 SUB +0 40200 0 00130    00273 TNZ -0 10000 0 00275    00274 TRA +0 02000 0 00041
                 UPDMFD.(PROB, PROG, ALOTT)                                         027  LM00031
 00275 TSX +0 07400 4 00017    00276 TXH +3 00000 0 77455    00277 TXH +3 00000 0 77454    00300 TXH +3 00000 0 00021
      ALOTT      DRUM = SCAN.(ER64)                                                 028  LM00032
 00301 TSX +0 07400 4 00013    00302 TXH +3 00000 0 00031    00303 STO +0 60100 0 00057
                 DISK = SCAN.(ER64)                                                 029  LM00033
 00304 TSX +0 07400 4 00013    00305 TXH +3 00000 0 00031    00306 STO +0 60100 0 00056
                 TAPE = SCAN.(ER64)                                                 030  LM00034
 00307 TSX +0 07400 4 00013    00310 TXH +3 00000 0 00031    00311 STO +0 60100 0 00127
                 DRUM = DECCNV.(DRUM)                                               031  LM00035
 00312 TSX +0 07400 4 00004    00313 TXH +3 00000 0 00057    00314 STO +0 60100 0 00057
                 DISK = DECCNV.(DISK)                                               032  LM00036
 00315 TSX +0 07400 4 00004    00316 TXH +3 00000 0 00056    00317 STO +0 60100 0 00056
                 TAPE = DECCNV.(TAPE)                                               033  LM00037
 00320 TSX +0 07400 4 00004    00321 TXH +3 00000 0 00127    00322 STO +0 60100 0 00127
                 ATTACH.(PROB,PROG,ER63,ERCOD)                                      034  LM00038
 00323 TSX +0 07400 4 00002    00324 TXH +3 00000 0 77455    00325 TXH +3 00000 0 77454    00326 TXH +3 00000 0 00030
 00327 TXH +3 00000 0 77431
                 ALLOT.(1,DRUM,ER63,ERCOD)                                          035  LM00039
 00330 TSX +0 07400 4 00001    00331 TXH +3 00000 0 00131    00332 TXH +3 00000 0 00057    00333 TXH +3 00000 0 00030
 00334 TXH +3 00000 0 77431
                 ALLOT.(2,DISK,ER63,ERCOD)                                          036  LM00040
 00335 TSX +0 07400 4 00001    00336 TXH +3 00000 0 00132    00337 TXH +3 00000 0 00056    00340 TXH +3 00000 0 00030
 00341 TXH +3 00000 0 77431
                 ALLOT.(3,TAPE,ER63,ERCOD)                                          037  LM00041
 00342 TSX +0 07400 4 00001    00343 TXH +3 00000 0 00133    00344 TXH +3 00000 0 00127    00345 TXH +3 00000 0 00030
 00346 TXH +3 00000 0 77431
                 F'N 1                                                              038  LM00042
 00347 CLA +0 50000 0 00131    00350 TRA +0 02000 0 00700
      ER63       ERR.(MSG63...MSG63(3),ONOFRT,ERRTN)                                039  LM00043
 00351 TSX +0 07400 4 00006    00352 TIX +2 00073 0 00076    00353 TXH +3 00000 0 00121    00354 TXH +3 00000 0 00035
                    V'S MSG63 = $TROUBLE WITH ALLOTTING$                            040  LM00044
 00073     -2 33145 2 76060    00074     -2 02143 4 34663    00075     +2 56066 3 16330    00076     -2 35146 6 42243
      ERRTN      F'N 0                                                              041  LM00045
 00355 CLA +0 50000 0 00130    00356 TRA +0 02000 0 00700
                 ENTRY TO LNK.                                                      042  LM00047
 00357 TRA +0 02000 0 00362    00360 SXA +0 63400 2 00674    00361 TSX +0 07400 2 00674
                 W'R PRIVIL .E. 0, T'O PRVRTN                                       043  LM00048
 00362 CLA +0 50000 0 77460    00363 SUB +0 40200 0 00130    00364 TNZ -0 10000 0 00366    00365 TRA +0 02000 0 00041
                 FSTATE.(FNAM1,FNAM2,A(8)...8,OK)                                   044  LM00049
 00366 TSX +0 07400 4 00010    00367 TXH +3 00000 0 77453    00370 TXH +3 00000 0 77452    00371 TIX +2 00134 0 00044
 00372 TXH +3 00000 0 00040
                 W'R (A(7) .RS. 35) .NE. 0                                          045  LM00050
 00373 CAL -0 50000 0 00135    00374 STA +0 62100 0 00376    00375 CAL -0 50000 0 00045    00376 LGR -0 76500 0 00000
 00377 SLW +0 60200 0 00704    00400 CLA +0 50000 0 00704    00401 SUB +0 40200 0 00130    00402 TZE +0 10000 0 00411
                    UNLINK.(FNAM1,FNAM2,ER65,ERCOD)                                 046  LM00051
 00403 TSX +0 07400 4 00016    00404 TXH +3 00000 0 77453    00405 TXH +3 00000 0 77452    00406 TXH +3 00000 0 00032
 00407 TXH +3 00000 0 77431
                 O'E                                                                047  LM00052
 00410 TRA +0 02000 0 00425
                 CHFILE.(FNAM1,FNAM2,1,MZE,MZE,DLT1)                                048  LM00053
 00411 TSX +0 07400 4 00003    00412 TXH +3 00000 0 77453    00413 TXH +3 00000 0 77452    00414 TXH +3 00000 0 00131
 00415 TXH +3 00000 0 00114    00416 TXH +3 00000 0 00114    00417 TXH +3 00000 0 00024
      DLT1          DELFIL.(FNAM1,FNAM2,ER65,ERCOD)                                 049  LM00054
 00420 TSX +0 07400 4 00005    00421 TXH +3 00000 0 77453    00422 TXH +3 00000 0 77452    00423 TXH +3 00000 0 00032
 00424 TXH +3 00000 0 77431
                 E'L                                                                050  LM00055
      OK         PB = ADJPRB.(SCAN.(ER64),ER64)                                     051  LM00057
 00425 TSX +0 07400 4 00013    00426 TXH +3 00000 0 00031    00427 STO +0 60100 0 00704    00430 TSX +0 07400 4 00000
 00431 TXH +3 00000 0 00704    00432 TXH +3 00000 0 00031    00433 STO +0 60100 0 00125
                 PG = SCAN. (ER64)                                                  052  LM00058
 00434 TSX +0 07400 4 00013    00435 TXH +3 00000 0 00031    00436 STO +0 60100 0 00126
                 MODE = MZE                                                         053  LM00059
 00437 CLA +0 50000 0 00114    00440 STO +0 60100 0 77451
                 FN1 = MZE                                                          054  LM00060
 00441 CLA +0 50000 0 00114    00442 STO +0 60100 0 00063
                 FN2 = MZE                                                          055  LM00061
 00443 CLA +0 50000 0 00114    00444 STO +0 60100 0 00064
                 FN1 = SCAN.(NXT)                                                   056  LM00062
 00445 TSX +0 07400 4 00013    00446 TXH +3 00000 0 00036    00447 STO +0 60100 0 00063
                 W'R FN1 .E. $     *$, FN1 = MZE                                    057  LM00063
 00450 CLA +0 50000 0 00063    00451 SUB +0 40200 0 00140    00452 TNZ -0 10000 0 00455    00453 CLA +0 50000 0 00114
 00454 STO +0 60100 0 00063
                 FN2 = SCAN.(NXT)                                                   058  LM00064
 00455 TSX +0 07400 4 00013    00456 TXH +3 00000 0 00036    00457 STO +0 60100 0 00064
                 W'R FN2 .E. $     *$, FN2 = MZE                                    059  LM00065
 00460 CLA +0 50000 0 00064    00461 SUB +0 40200 0 00140    00462 TNZ -0 10000 0 00465    00463 CLA +0 50000 0 00114
 00464 STO +0 60100 0 00064
                 MODE = SCAN.(NXT)                                                  060  LM00066
 00465 TSX +0 07400 4 00013    00466 TXH +3 00000 0 00036    00467 STO +0 60100 0 77451
                 W'R MODE .E. $     *$                                              061  LM00067
 00470 CLA +0 50000 0 77451    00471 SUB +0 40200 0 00140    00472 TNZ -0 10000 0 00476
                    MODE = MZE                                                      062  LM00068
 00473 CLA +0 50000 0 00114    00474 STO +0 60100 0 77451
                    T'O NXT                                                         063  LM00069
 00475 TRA +0 02000 0 00036
                 E'L                                                                064  LM00070
                 MODE = SOCTBN.(MODE)                                               065  LM00071
 00476 TSX +0 07400 4 00014    00477 TXH +3 00000 0 77451    00500 STO +0 60100 0 77451
      NXT        LINK.(FNAM1,FNAM2,PB,PG,FN1,FN2,MODE,ER65,ERCOD)                   066  LM00072
 00501 TSX +0 07400 4 00011    00502 TXH +3 00000 0 77453    00503 TXH +3 00000 0 77452    00504 TXH +3 00000 0 00125
 00505 TXH +3 00000 0 00126    00506 TXH +3 00000 0 00063    00507 TXH +3 00000 0 00064    00510 TXH +3 00000 0 77451
 00511 TXH +3 00000 0 00032    00512 TXH +3 00000 0 77431
                 F'N 1                                                              067  LM00073
 00513 CLA +0 50000 0 00131    00514 TRA +0 02000 0 00700
      ER64       ERR.(MSG64...MSG64(3),ONOFRT,ERRTN)                                068  LM00075
 00515 TSX +0 07400 4 00006    00516 TIX +2 00077 0 00102    00517 TXH +3 00000 0 00121    00520 TXH +3 00000 0 00035
                    V'S MSG64 = $ILLEGAL RQUEST FORMAT$                             069  LM00076
 00077     -0 42163 6 06060    00100     -2 26360 2 64651    00101     -0 36051 5 06425    00102     +3 14343 2 52721
      ER65       ERR.(MSG65...MSG65(1),ONOFRT,ERRTN)                                070  LM00077
 00521 TSX +0 07400 4 00006    00522 TIX +2 00103 0 00104    00523 TXH +3 00000 0 00121    00524 TXH +3 00000 0 00035
                    V'S MSG65 = $CAN'T LINK$                                        071  LM00078
 00103     -0 33145 4 26060    00104     +2 32145 1 46360
                 ENTRY TO CHNGE.                                                    072  LM00081
 00525 TRA +0 02000 0 00530    00526 SXA +0 63400 2 00674    00527 TSX +0 07400 2 00674
                 W'R PRIVIL .E. 0, T'O PRVRTN                                       073  LM00082
 00530 CLA +0 50000 0 77460    00531 SUB +0 40200 0 00130    00532 TNZ -0 10000 0 00534    00533 TRA +0 02000 0 00041
                 MODE = SCAN.(ER64)                                                 074  LM00083
 00534 TSX +0 07400 4 00013    00535 TXH +3 00000 0 00031    00536 STO +0 60100 0 77451
                    W'R MODE .E. $$ .OR. MODE .E. $     *$, MODE = MZE              075  LM00084
 00537 CLA +0 50000 0 77451    00540 SUB +0 40200 0 00140    00541 TZE +0 10000 0 00545    00542 CLA +0 50000 0 77451
 00543 SUB +0 40200 0 00141    00544 TNZ -0 10000 0 00547    00545 CLA +0 50000 0 00114    00546 STO +0 60100 0 77451
                    W'R MODE .NE. MZE, MODE = SOCTBN.(MODE)                         076  LM00085
 00547 CLA +0 50000 0 77451    00550 SUB +0 40200 0 00114    00551 TZE +0 10000 0 00555    00552 TSX +0 07400 4 00014
 00553 TXH +3 00000 0 77451    00554 STO +0 60100 0 77451
                 NEW1 = SCAN.(SAME1)                                                077  LM00086
 00555 TSX +0 07400 4 00013    00556 TXH +3 00000 0 00043    00557 STO +0 60100 0 00115
                 NEW2 = SCAN.(SAME1)                                                078  LM00087
 00560 TSX +0 07400 4 00013    00561 TXH +3 00000 0 00043    00562 STO +0 60100 0 00116
      SAME1      W'R NEW1 .E. $$ .OR. NEW1 .E. $     *$, NEW1 = MZE                 079  LM00088
 00563 CLA +0 50000 0 00115    00564 SUB +0 40200 0 00140    00565 TZE +0 10000 0 00571    00566 CLA +0 50000 0 00115
 00567 SUB +0 40200 0 00141    00570 TNZ -0 10000 0 00573    00571 CLA +0 50000 0 00114    00572 STO +0 60100 0 00115
                 W'R NEW2 .E. $$ .OR. NEW2 .E. $     *$, NEW2 = MZE                 080  LM00089
 00573 CLA +0 50000 0 00116    00574 SUB +0 40200 0 00140    00575 TZE +0 10000 0 00601    00576 CLA +0 50000 0 00116
 00577 SUB +0 40200 0 00141    00600 TNZ -0 10000 0 00603    00601 CLA +0 50000 0 00114    00602 STO +0 60100 0 00116
                 W'R NEW1 .E. MZE .AND. NEW2 .E. MZE, T'O OK1                       081  LM00090
 00603 CLA +0 50000 0 00116    00604 SUB +0 40200 0 00114    00605 TNZ -0 10000 0 00612    00606 CLA +0 50000 0 00115
 00607 SUB +0 40200 0 00114    00610 TNZ -0 10000 0 00612    00611 TRA +0 02000 0 00037
                 W'R NEW1 .E. MZE, NEW1 = FNAM1                                     082  LM00091
 00612 CLA +0 50000 0 00115    00613 SUB +0 40200 0 00114    00614 TNZ -0 10000 0 00617    00615 CLA +0 50000 0 77453
 00616 STO +0 60100 0 00115
                 W'R NEW2 .E. MZE, NEW2 = FNAM2                                     083  LM00092
 00617 CLA +0 50000 0 00116    00620 SUB +0 40200 0 00114    00621 TNZ -0 10000 0 00624    00622 CLA +0 50000 0 77452
 00623 STO +0 60100 0 00116
                 FSTATE.(NEW1,NEW2,A(8)...8,OK1)                                    084  LM00093
 00624 TSX +0 07400 4 00010    00625 TXH +3 00000 0 00115    00626 TXH +3 00000 0 00116    00627 TIX +2 00134 0 00044
 00630 TXH +3 00000 0 00037
                 CHFILE.(NEW1,NEW2,1,MZE,MZE,DLT2)                                  085  LM00094
 00631 TSX +0 07400 4 00003    00632 TXH +3 00000 0 00115    00633 TXH +3 00000 0 00116    00634 TXH +3 00000 0 00131
 00635 TXH +3 00000 0 00114    00636 TXH +3 00000 0 00114    00637 TXH +3 00000 0 00025
      DLT2       DELFIL.(NEW1,NEW2,ER66,ERCOD)                                      086  LM00095
 00640 TSX +0 07400 4 00005    00641 TXH +3 00000 0 00115    00642 TXH +3 00000 0 00116    00643 TXH +3 00000 0 00033
 00644 TXH +3 00000 0 77431
      OK1        CHFILE.(FNAM1,FNAM2,MODE,NEW1,NEW2,ER66,ERCOD)                     087  LM00096
 00645 TSX +0 07400 4 00003    00646 TXH +3 00000 0 77453    00647 TXH +3 00000 0 77452    00650 TXH +3 00000 0 77451
 00651 TXH +3 00000 0 00115    00652 TXH +3 00000 0 00116    00653 TXH +3 00000 0 00033    00654 TXH +3 00000 0 77431
                 NEW1 = $     *$                                                    088  LM00097
 00655 CLA +0 50000 0 00140    00656 STO +0 60100 0 00115
                 NEW2 = $     *$                                                    089  LM00098
 00657 CLA +0 50000 0 00140    00660 STO +0 60100 0 00116
                 F'N 1                                                              090  LM00099
 00661 CLA +0 50000 0 00131    00662 TRA +0 02000 0 00700
      ER66       ERR.(MSG66...MSG66(1),ONOFRT,ERRTN)                                091  LM00101
 00663 TSX +0 07400 4 00006    00664 TIX +2 00105 0 00106    00665 TXH +3 00000 0 00121    00666 TXH +3 00000 0 00035
                    V'S MSG66 = $CAN'T CHFILE$                                      092  LM00102
 00105     +2 33026 3 14325    00106     +2 32145 1 46360
      PRVRTN     ERR.(MSG67...MSG67(3),ONOFRT,RTN)                                  093  LM00103
 00667 TSX +0 07400 4 00006    00670 TIX +2 00110 0 00113    00671 TXH +3 00000 0 00121    00672 TXH +3 00000 0 00042
                    V'S MSG67 = $CAN'T DO. NOT PRIVILEGED.$                         094  LM00104
 00107     +3 36060 6 06060    00110     +3 14325 2 72524    00111     -2 36047 5 13165    00112     +2 44633 6 04546
 00113     +2 32145 1 46360
                 D'N A(8)                                                           095  LM00106
                 V'S PB = $$                                                        096  LM00107
 00125     -2 06060 6 06060
                 V'S PG = $$                                                        097  LM00108
 00126     -2 06060 6 06060
                 V'S FN1 = -0                                                       098  LM00109
 00063     -0 00000 0 00000
                 V'S FN2 = -0                                                       099  LM00110
 00064     -0 00000 0 00000
                 V'S NEW1 = $$                                                      100  LM00111
 00115     -2 06060 6 06060
                 V'S NEW2 = $$                                                      101  LM00112
 00116     -2 06060 6 06060
                 INSERT FILE COMDSK                                                 102  LM00113
                 PROGRAM COMMON B4SWT,PRIVIL,CARSWT,PRNSWT                          103  LM00002
                 PROGRAM COMMON PROB,PROG,FNAM1,FNAM2,MODE,C,ERCOD,DUM              104  LM00003
                 PROGRAM COMMON PROB1, PROG1, DATE,TIME,BUF                         105  LM00004
                 FUNCTION NAME CTLF,EXIT                                            106  LM00005
                 DIMENSION C(14),BUF(864)                                           107  LM00006
                 V'S ONOFRT = 7                                                     108  LM00007
 00121     +0 00000 0 00007
                 V'S ONRT = 5                                                       109  LM00008
 00123     +0 00000 0 00005
                 V'S OFRT = 3                                                       110  LM00009
 00117     +0 00000 0 00003
                 V'S ONOF = 6                                                       111  LM00010
 00122     +0 00000 0 00006
                 V'S ON = 4                                                         112  LM00011
 00124     +0 00000 0 00004
                 V'S OF = 2                                                         113  LM00012
 00120     +0 00000 0 00002
                 V'S EOFCT = 0                                                      114  LM00013
 00061     +0 00000 0 00000
                 V'S MZE = -0                                                       115  LM00014
 00114     -0 00000 0 00000
                 V'S DSKEDT = $DSKEDT$                                              116  LM00015
 00060     +2 46242 2 52463
                 V'S FILE = $.FILE.$                                                117  LM00016
 00062     +3 32631 4 32533
                 V'S CRYMAP = $CRYMAP$                                              118  LM00017
 00055     +2 35170 4 42147
                 N'S INTEGER                                                        119  LM00018
                 E'N                                                                120  LM00114
 00673 TSX +0 07400 4 00007    00674 TXH +3 00000 0 00000    00675 SXD -0 63400 1 00674    00676 SXA +0 63400 4 00700
 00677 TRA +0 02000 2 00001    00700 AXT +0 77400 4 00000    00701 LXA +0 53400 2 00674    00702 LXD -0 53400 1 00674
 00703 TRA +0 02000 4 00001


PACKFP   BCD 05/15/71 1242.8     510         00000
1            FAP CODE TO REPLACE MAD PACKING ROUTINE                             05/15/71 1239.1 PAGE 1

                              *      IN HOPES OF SPEEDING UP THE PRINT ROUTINE
                              *      MOVE SINGLE CHARACTERS FROM CARD TO FULL WORDS AT L.
                              *      CALL PACKFP.(CARD,L,END,GW2)
                       00002         ENTRY   PACKFP

        LINKAGE DIRECTOR
      00000  000000000000
      00001  472123422647

      00002  0634 00 1 00031  PACKFP SXA     X1,1
      00003  0634 00 2 00032         SXA     X1+1,2
      00004  0634 00 4 00033         SXA     X1+2,4
      00005 -0500 00 4 00001         CAL     1,4
      00006  0621 00 0 00025         STA     CARD
      00007  0500 00 4 00002         CLA     2,4
      00010  0621 00 0 00027         STA     L
      00011  0500 60 4 00003         CLA*    3,4           END OC CODES IN CARD
      00012  0734 00 1 00000         PAX     0,1
      00013 -0634 00 1 00022         SXD     ENDTST,1
      00014  0500 60 4 00004         CLA*    4,4
      00015  0734 00 1 00000         PAX     0,1           PRESET IR1 TO GW2, BOTTOM OF L
      00016  0774 00 4 00000         AXT     0,4           FIRST CARD
      00017  0774 00 2 00006  CRDLP  AXT     6,2           6 CHAR PER WORD
      00020  0767 00 0 00006  LLP    ALS     6
      00021  1 00001 4 00022         TXI     *+1,4,1
      00022 -3 00000 4 00025  ENDTST TXL     *+3,4,**      END,BOTTOM OF CARD
      00023  0560 00 0 00035         LDQ     BLANK
      00024 -0600 60 0 00025         STQ*    CARD
      00025 -0501 00 4 00000  CARD   ORA     **,4
      00026  2 00001 2 00020         TIX     LLP,2,1
      00027  0602 00 1 00000  L      SLW     **,1
      00030  2 00001 1 00017         TIX     CRDLP,1,1
      00031  0774 00 1 00000  X1     AXT     **,1
      00032  0774 00 2 00000         AXT     **,2
      00033  0774 00 4 00000         AXT     **,4
      00034  0020 00 4 00005         TRA     5,4
      00035 +000000000060     BLANK  OCT     60
                                     END
1            FAP CODE TO REPLACE MAD PACKING ROUTINE                             05/15/71 1239.1 PAGE 1
                        POST PROCESSOR ASSEMBLY DATA

         36 IS THE FIRST LOCATION NOT USED BY THIS PROGRAM

0REFERENCES TO DEFINED SYMBOLS
         27      L    10
         31     X1     2,    3,    4
         20    LLP    26
         25   CARD     6,   24
         35  BLANK    23
         17  CRDLP    30
         22 ENDTST    13
          2 PACKFP     0

0 NO ERROR IN ABOVE ASSEMBLY.


UNPACK   BCD 05/15/71 1242.8     564         00000
1            NCHAR = UNPACK.(INPUT,LNGTH,OUTPUT,MAXCHR)                          05/15/71 1239.1 PAGE 1

                              *      UNPACK WORDS INTO CHARACTERS AND IGNORE NULLS
                       00000         ENTRY   UNPACK
      00000  0634 00 4 00036  UNPACK SXA     X4,4
      00001  0634 00 2 00037         SXA     X2,2
      00002  0634 00 1 00040         SXA     X1,1
      00003 -0500 00 4 00001         CAL     1,4           INPUT
      00004  0621 00 0 00020         STA     GET
      00005 -0500 60 4 00002         CAL*    2,4           NUMBER OF WORDS IN INPUT
      00006  0734 00 1 00000         PAX     0,1
      00007 -0634 00 1 00034         SXD     LTH,1
      00010 -0500 00 4 00003         CAL     3,4           OUTPUT
      00011  0621 00 0 00030         STA     PUT
      00012 -0500 60 4 00004         CAL*    4,4           MAX OUTPUT CHRS.
      00013  0734 00 1 00000         PAX     0,1
      00014  1 00001 1 00015         TXI     *+1,1,1
      00015 -0634 00 1 00027         SXD     MXCHRS,1
      00016  0774 00 1 00001         AXT     1,1           INPUT INDEX
      00017  0774 00 4 00001         AXT     1,4           OUTPUT ONDEX
      00020  0560 00 1 00000  GET    LDQ     **,1          GET WORD
      00021  0774 00 2 00044         AXT     36,2
      00022 -0754 00 0 00000  CHLP   ZAC
      00023 -0763 00 0 00006         LGL     6             SHIFT CHAR TO AC
      00024 -0340 00 0 00042         LAS     =O57          CHECK FOR NULL
      00025  0020 00 0 00027         TRA     *+2
      00026  0020 00 0 00032         TRA     TIX
      00027  3 00000 4 00035  MXCHRS TXH     FULL,4,**     CHECK FOR FULL OUTPUT
      00030  0602 00 4 00000  PUT    SLW     **,4          STORE CHAR
      00031  1 00001 4 00032         TXI     *+1,4,1
      00032  2 00006 2 00022  TIX    TIX     CHLP,2,6
      00033  1 00001 1 00034         TXI     *+1,1,1
      00034 -3 00000 1 00020  LTH    TXL     GET,1,**
      00035  0754 00 4 00000  FULL   PXA     0,4           CHAR COUNT IN AC
      00036  0774 00 4 00000  X4     AXT     **,4
      00037  0774 00 2 00000  X2     AXT     **,2
      00040  0774 00 1 00000  X1     AXT     **,1
      00041  0020 00 4 00005         TRA     5,4
                                     END

        LITERALS
      00042  000000000057
1            NCHAR = UNPACK.(INPUT,LNGTH,OUTPUT,MAXCHR)                          05/15/71 1239.1 PAGE 1
                        POST PROCESSOR ASSEMBLY DATA

         43 IS THE FIRST LOCATION NOT USED BY THIS PROGRAM

0REFERENCES TO DEFINED SYMBOLS
         40     X1     2
         37     X2     1
         36     X4     0
         20    GET     4,   34
         34    LTH     7
         30    PUT    11
         32    TIX    26
         22   CHLP    32
         35   FULL    27
         27 MXCHRS    15
          0 UNPACK     0

0 NO ERROR IN ABOVE ASSEMBLY.


 UNTAB   BCD 05/15/71 1242.8    3425         00000
1       M1416-3845  PETER R. BOS  2/22/68 -- TAB CONVERSION FOR DISK EDITOR      05/15/71 1239.2 PAGE 1

                                     PCC     ON
                       00002         ENTRY   UNTAB         TO CONVERT TABS TO SPACES
                       00104         ENTRY   SERIAL        TO SERIALIZE LINES
                                     LBL     UNTAB
                                     PCC     OFF

                              *
                              *  CALLING SEQUENCES...
                              *
                              *      COUNT = UNTAB.(TABS,BKSP,IN(0),OUT(0),COUNT)
                              *  WHERE COUNT IS CHARACTER COUNT, TABS IS BASE OF VECTOR CONTAINING
                              *  TAB SETTINGS (TERMINATED BY A -0), BKSP IS VALUE OF COLUMN IN WHICH
                              *  A COLON IS TO BE A BACKSPACE (ONE SETTING ONLY, FOR MAD), IN(0) IS
                              *  BASE OF INPUT ARRAY (FIRST CHARACTER AT IN(1)), OUT(0) IS BASE OF
                              *  OUTPUT ARRAY (FIRST CHAR. AT OUT(1)), AND MAXIMUM NUBER OF COLUMNS
                              *  PER LINE IS 132.
                              *
                              *      COUNT = SERIAL.(LINE(0),LNUM,COUNT,TRSW)
                              *  WHERE COUNT IS AS ABOVE, LINE(0) IS ARRAY BASE WITH FIRST CHARACTER
                              *  AT LINE(1), LNUM IS LINE NUMBER TO BE APPLIED, AND TRSW IS SET TO
                              *  NON-ZERO IF LINE WAS MORE THAN 72 COLUMNS.
                              *
                              *  NOTE THAT CHARACTERS ARE STORED AND HANDLED ONE PER WORD, RIGHT
                              *  JUSTIFIED WITH LEADING 0'S.
                              *


        LINKAGE DIRECTOR
      00000  000000000000
      00001  644563212260

      00002  0760 00 0 00016  UNTAB  LMTM                  NEED 4.
      00003  0634 00 4 00077         SXA     X4,4          SAVE XRS.
      00004  0634 00 2 00100         SXA     X2,2
      00005  0634 00 1 00101         SXA     X1,1          ..
      00006  0634 00 7 00102         SXA     X7,7          ..
      00007 -0500 00 4 00001         CAL     1,4           GET POINTER TO TAB VECTOR
      00010  0621 00 0 00041         STA     GOTONE        ..
      00011  0500 60 4 00002         CLA*    2,4           GET BACKSPACE IF ANY
      00012  0602 00 0 00250         SLW     BKSPN         ..
      00013 -0500 00 4 00003         CAL     3,4           INPUT VECTOR BASE
      00014  0621 00 0 00030         STA     NXT           ..
      00015 -0500 00 4 00004         CAL     4,4           OUTPUT VECTOR BASE
      00016  0621 00 0 00074         STA     RSTCHR
      00017  0600 00 0 00247         STZ     ENDCT         CLEAR RETURN CHAR COUNT
      00020 -0500 60 4 00005         CAL*    5,4           GET COUNT ON INPUT
      00021  0734 00 4 00000         PAX     0,4
      00022 -3 00000 4 00076         TXL     XIT,4,0       SKIP IF NO CHARACTERS.
      00023 -0634 00 4 00037         SXD     TSTEND,4      SAVE FOR TEST LATER

      00024  0774 00 7 00000         AXT     0,7           INITIALIZE INDICES
      00025  0774 00 1 00001         AXT     1,1
      00026  0774 00 2 00001         AXT     1,2           ..
      00027  0774 00 0 00000         EVEN                  .. EVERY LITTLE BIT HELPS ..
      00030 -0500 00 1 00000  NXT    CAL     -,1           PICK UP CHAR FROM IN
      00031  0734 00 4 00000         PAX     0,4           CHARACTER TO X4
1       M1416-3845  PETER R. BOS  2/22/68 -- TAB CONVERSION FOR DISK EDITOR      05/15/71 1239.2 PAGE 2

      00032  3 00077 4 00036         TXH     INCNXT,4,63   ONLY 6 BITS/CHAR
      00033  0522 00 4 00241         XEC     CHRTBL,4      GO DO SOMETHING WITH CHARACTER
      00034  1 00001 2 00035         TXI     *+1,2,1       INCREMENT OUTPUT INDEX
      00035  3 00204 2 00070         TXH     RANOUT,2,132  ONLY 132 COLS OF LINE
      00036  1 00001 1 00037  INCNXT TXI     *+1,1,1       INCREMENT INPUT INDEX
      00037 -3 00000 1 00030  TSTEND TXL     NXT,1,-       IF NOT LAST CHAR, CONTINUE
      00040  0020 00 0 00070         TRA     RANOUT        NO MORE INPUT NOW.

      00041  0500 00 7 00000  GOTONE CLA     -,7           FOUND TAB, GET NEXT TAB STOP
      00042 -0120 00 0 00057         TMI     NOMOR         '-' SIGN INDICATES END OF TAB VECTOR
      00043  0734 00 4 00000         PAX     0,4           TAB STOP TO X4
      00044  3 00204 4 00057         TXH     NOMOR,4,132   CAN'T HAVE TABS OFF THE PAPER
      00045  1 77777 4 00046         TXI     *+1,4,-1      7094 TXL IS CROCKED, SO...
      00046 -0634 00 4 00047         SXD     *+1,4         SET IN TEST
      00047 -3 00000 2 00051         TXL     *+2,2,-       IF OUTPUT COLUMN MARKER LESS THAN
      00050  1 00001 7 00041         TXI     GOTONE,7,1    TAB SETTING, SKIP. ELSE, NEXT TAB STOP.
      00051 -0634 00 4 00055         SXD     *+4,4         SAVE FOR TEST
      00052 -0500 00 0 00254         CAL     BLNK          =O60, ONE BLANK
      00053  0602 00 2 00461         SLW     OUTPUT,2      INSERT BLANK IN OUTPUT
      00054  1 00001 2 00055         TXI     *+1,2,1       INCREMENT OUTPUT INDEX
      00055 -3 00000 2 00053         TXL     *-2,2,-       IF STILL LESS THAN TAB STOP, DO IT AGAIN
      00056  0020 00 0 00036         TRA     INCNXT        ELSE, GO SET UP FOR NEXT CHAR

      00057 -0500 00 0 00254  NOMOR  CAL     BLNK          NO MORE TAB STOPS, USE ONE BLANK
      00060  0602 00 2 00461  STCHR  SLW     OUTPUT,2      STORE BLANK
      00061  1 00001 2 00035         TXI     INCNXT-1,2,1  INCREMENT OUTPUT COUNT AND RETURN

      00062  0754 00 2 00000  GOTBKS PXA     0,2           FOUND COLON, CHECK COLUMN MARK
      00063  0402 00 0 00250         SUB     BKSPN         ..
      00064 -0100 00 0 00066         TNZ     *+2           NOT RIGHT PLACE, SKIP
      00065  1 77777 2 00036         TXI     INCNXT,2,-1   BACKSPACE, RESET COLUMN MARKER
      00066 -0500 00 0 00253         CAL     BKSP          RESTORE COLON - IS NOT BACKSPACE
      00067  0020 00 0 00060         TRA     STCHR         GO INSERT COLON

      00070  1 77777 2 00071  RANOUT TXI     *+1,2,-1      HERE WHEN DONE. GET CHAR COUNT
      00071  0754 00 2 00000         PXA     0,2           ..
      00072  0602 00 0 00247         SLW     ENDCT         SAVE
      00073 -0500 00 2 00461         CAL     OUTPUT,2      NOW MOVE BACK INTO ORIGINAL ARRAY
      00074  0602 00 2 00000  RSTCHR SLW     -,2           (MAY BE SAME ONE, OR DIFFERENT)
      00075  2 00001 2 00073         TIX     *-2,2,1       ..
      00076  0500 00 0 00247  XIT    CLA     ENDCT         EXIT, RETURN CHAR COUNT
      00077  0774 00 4 00000  X4     AXT     -,4           RESTORE XRS
      00100  0774 00 2 00000  X2     AXT     -,2
      00101  0774 00 1 00000  X1     AXT     -,1
      00102  0774 00 7 00000  X7     AXT     -,7
      00103  0020 00 4 00006         TRA     6,4           RETURN


      00104  0634 00 4 00137  SERIAL SXA     SX4,4         SAVE XRS
      00105  0634 00 1 00140         SXA     SX1,1         ..
      00106  0500 60 4 00003         CLA*    3,4           GET CHAR. COUNT
      00107 -0340 00 0 00461         LAS     =72           IF GREATER THAN 72,
      00110 -0625 60 4 00004         STL*    4,4           SET TRUNCATED FLAG
      00111 -0500 00 0 00461         CAL     =72           AND SET TO 72
      00112  0734 00 1 00000         PAX     0,1           COUNT TO X1
1       M1416-3845  PETER R. BOS  2/22/68 -- TAB CONVERSION FOR DISK EDITOR      05/15/71 1239.2 PAGE 3

      00113  1 00001 1 00114         TXI     *+1,1,1       ADD BLANKS FROM LAST CHAR
      00114  0500 60 4 00002         CLA*    2,4           GET LINE NUMBER
      00115  0602 00 0 00251         SLW     COUNT         ..
      00116 -0500 00 4 00001         CAL     1,4           GET VECTOR BASE
      00117  0621 00 0 00122         STA     STC1          ..
      00120  0621 00 0 00132         STA     STC2          ..

      00121 -0500 00 0 00254         CAL     BLNK          NOW BLANK OUT REST OF LINE
      00122  0602 00 1 00000  STC1   SLW     -,1           ..
      00123  1 00001 1 00124         TXI     *+1,1,1       ..
      00124 -3 00113 1 00122         TXL     *-2,1,75      UNTIL PAST COL. 75
      00125  0774 00 4 00005         AXT     5,4           5 DIGITS TO LINE NUMBER
      00126  0500 00 0 00251         CLA     COUNT         GET NUMBER
      00127  0131 00 0 00000  XCA    XCA                   TO MQ
      00130 -0754 00 0 00000         ZAC                   PREPARE DIVIDE
      00131  0221 00 4 00247         DVP     DIGIT,4       GET THIS DIGIT
      00132 -0600 00 1 00000  STC2   STQ     -,1           INSERT DIGIT IN LINE
      00133  1 00001 1 00134         TXI     *+1,1,1       INCREMENT INDEX
      00134  3 00120 1 00136         TXH     *+2,1,80      AT COL. 80 WE ARE DONE
      00135  2 00001 4 00127         TIX     XCA,4,1       ELSE, GO FOR NEXT DIGIT

      00136  0500 00 0 00462         CLA     =80           CHARACTER COUNT IS 80 FOR CARD
      00137  0774 00 4 00000  SX4    AXT     -,4           RESTORE XRS
      00140  0774 00 1 00000  SX1    AXT     -,1
      00141  0020 00 4 00005         TRA     5,4           RETURN


                                             STORAGE AND CONSTANTS

                                             TABLE FOR PROCESSING CHARACTERS

      00142  0020 00 0 00036  .77    TRA     INCNXT        ILLEGAL CHARACTER, IGNORE
      00143  0020 00 0 00036  .76    TRA     INCNXT
      00144  0020 00 0 00036  .75    TRA     INCNXT
      00145  0602 00 2 00461  .74    SLW     OUTPUT,2      (
      00146  0602 00 2 00461  .73    SLW     OUTPUT,2      ,
      00147  0020 00 0 00041  .72    TRA     GOTONE        TAB
      00150  0602 00 2 00461  .71    SLW     OUTPUT,2      Z
      00151  0602 00 2 00461  .70    SLW     OUTPUT,2      Y
      00152  0602 00 2 00461  .67    SLW     OUTPUT,2      X
      00153  0602 00 2 00461  .66    SLW     OUTPUT,2      W
      00154  0602 00 2 00461  .65    SLW     OUTPUT,2      V
      00155  0602 00 2 00461  .64    SLW     OUTPUT,2      U
      00156  0602 00 2 00461  .63    SLW     OUTPUT,2      T
      00157  0602 00 2 00461  .62    SLW     OUTPUT,2      S
      00160  0602 00 2 00461  .61    SLW     OUTPUT,2      /
      00161  0602 00 2 00461  .60    SLW     OUTPUT,2      SPACE
      00162  0020 00 0 00036  .57    TRA     INCNXT        ILLEGAL
      00163  0020 00 0 00036  .56    TRA     INCNXT
      00164  0020 00 0 00036  .55    TRA     INCNXT
      00165  0602 00 2 00461  .54    SLW     OUTPUT,2      *
      00166  0602 00 2 00461  .53    SLW     OUTPUT,2      $
      00167  0020 00 0 00036  .52    TRA     INCNXT        ILLEGAL
      00170  0602 00 2 00461  .51    SLW     OUTPUT,2      R
      00171  0602 00 2 00461  .50    SLW     OUTPUT,2      Q
1       M1416-3845  PETER R. BOS  2/22/68 -- TAB CONVERSION FOR DISK EDITOR      05/15/71 1239.2 PAGE 4

      00172  0602 00 2 00461  .47    SLW     OUTPUT,2      P
      00173  0602 00 2 00461  .46    SLW     OUTPUT,2      O
      00174  0602 00 2 00461  .45    SLW     OUTPUT,2      N
      00175  0602 00 2 00461  .44    SLW     OUTPUT,2      M
      00176  0602 00 2 00461  .43    SLW     OUTPUT,2      L
      00177  0602 00 2 00461  .42    SLW     OUTPUT,2      K
      00200  0602 00 2 00461  .41    SLW     OUTPUT,2      J
      00201  0602 00 2 00461  .40    SLW     OUTPUT,2      -
      00202  0020 00 0 00036  .37    TRA     INCNXT        ILLEGAL
      00203  0020 00 0 00036  .36    TRA     INCNXT
      00204  0020 00 0 00062  .35    TRA     GOTBKS        COLON
      00205  0602 00 2 00461  .34    SLW     OUTPUT,2      )
      00206  0602 00 2 00461  .33    SLW     OUTPUT,2      .
      00207  0020 00 0 00036  .32    TRA     INCNXT        ILLEGAL
      00210  0602 00 2 00461  .31    SLW     OUTPUT,2      I
      00211  0602 00 2 00461  .30    SLW     OUTPUT,2      H
      00212  0602 00 2 00461  .27    SLW     OUTPUT,2      G
      00213  0602 00 2 00461  .26    SLW     OUTPUT,2      F
      00214  0602 00 2 00461  .25    SLW     OUTPUT,2      E
      00215  0602 00 2 00461  .24    SLW     OUTPUT,2      D
      00216  0602 00 2 00461  .23    SLW     OUTPUT,2      C
      00217  0602 00 2 00461  .22    SLW     OUTPUT,2      B
      00220  0602 00 2 00461  .21    SLW     OUTPUT,2      A
      00221  0602 00 2 00461  .20    SLW     OUTPUT,2      +
      00222  0020 00 0 00036  .17    TRA     INCNXT        ILLEGAL
      00223  0020 00 0 00036  .16    TRA     INCNXT
      00224  0020 00 0 00036  .15    TRA     INCNXT
      00225  0602 00 2 00461  .14    SLW     OUTPUT,2      '
      00226  0602 00 2 00461  .13    SLW     OUTPUT,2      =
      00227  0020 00 0 00036  .12    TRA     INCNXT        ILLEGAL
      00230  0602 00 2 00461  .11    SLW     OUTPUT,2      9
      00231  0602 00 2 00461  .10    SLW     OUTPUT,2      8
      00232  0602 00 2 00461  .07    SLW     OUTPUT,2      7
      00233  0602 00 2 00461  .06    SLW     OUTPUT,2      6
      00234  0602 00 2 00461  .05    SLW     OUTPUT,2      5
      00235  0602 00 2 00461  .04    SLW     OUTPUT,2      4
      00236  0602 00 2 00461  .03    SLW     OUTPUT,2      3
      00237  0602 00 2 00461  .02    SLW     OUTPUT,2      2
      00240  0602 00 2 00461  .01    SLW     OUTPUT,2      1
      00241  0602 00 2 00461  .00    SLW     OUTPUT,2      0
                       00241  CHRTBL SYN     .00           BOTTOM OF CHARACTER TABLE

      00242 +000000023420            DEC     10000         TABLE OF DIGITS FOR SERIAL
      00243 +000000001750            DEC     1000          ..
      00244 +000000000144            DEC     100           ..
      00245 +000000000012            DEC     10            ..
      00246 +000000000001            DEC     1             ..
                       00247  DIGIT  SYN     *             ..

      00247  0 00000 0 00000  ENDCT  PZE
      00250  0 00000 0 00000  BKSPN  PZE
      00251  0 00000 0 00000  COUNT  PZE
      00252 +000000000072     TAB    OCT     72
      00253 +000000000035     BKSP   OCT     35
      00254 +000000000060     BLNK   OCT     60
      00461                   OUTPUT BES     132
1       M1416-3845  PETER R. BOS  2/22/68 -- TAB CONVERSION FOR DISK EDITOR      05/15/71 1239.2 PAGE 5

                                     END

        LITERALS
      00461  000000000110
      00462  000000000120
1       M1416-3845  PETER R. BOS  2/22/68 -- TAB CONVERSION FOR DISK EDITOR      05/15/71 1239.2 PAGE 1
                        POST PROCESSOR ASSEMBLY DATA

        463 IS THE FIRST LOCATION NOT USED BY THIS PROGRAM

0REFERENCES TO DEFINED SYMBOLS
        101     X1     5
        100     X2     4
         77     X4     3
        102     X7     6
        241    .00   242
        240    .01
        237    .02
        236    .03
        235    .04
        234    .05
        233    .06
        232    .07
        231    .10
        230    .11
        227    .12
        226    .13
        225    .14
        224    .15
        223    .16
        222    .17
        221    .20
        220    .21
        217    .22
        216    .23
        215    .24
        214    .25
        213    .26
        212    .27
        211    .30
        210    .31
        207    .32
        206    .33
        205    .34
        204    .35
        203    .36
        202    .37
        201    .40
        200    .41
        177    .42
        176    .43
        175    .44
        174    .45
        173    .46
        172    .47
        171    .50
        170    .51
        167    .52
        166    .53
        165    .54
        164    .55
        163    .56
1       M1416-3845  PETER R. BOS  2/22/68 -- TAB CONVERSION FOR DISK EDITOR      05/15/71 1239.2 PAGE 2
                        POST PROCESSOR ASSEMBLY DATA

        162    .57
        161    .60
        160    .61
        157    .62
        156    .63
        155    .64
        154    .65
        153    .66
        152    .67
        151    .70
        150    .71
        147    .72
        146    .73
        145    .74
        144    .75
        143    .76
        142    .77
         30    NXT    14,   37
        140    SX1   105
        137    SX4   104
        252    TAB
        127    XCA   135
         76    XIT    22
        253   BKSP    66
        254   BLNK    52,   57,  121
        122   STC1   117
        132   STC2   120
        250  BKSPN    12,   63
        251  COUNT   115,  126
        247  DIGIT   131,  247
        247  ENDCT    17,   72,   76
         57  NOMOR    42,   44
         60  STCHR    67
          2  UNTAB     0
        241 CHRTBL    33,  242
         62 GOTBKS   204
         41 GOTONE    10,   50,  147
         36 INCNXT    32,   56,   61,   65,  142,  143,  144,  162,  163,  164,  167,  202,  203,  207,  222,  223,  224
                     227
        461 OUTPUT    53,   60,   73,  145,  146,  150,  151,  152,  153,  154,  155,  156,  157,  160,  161,  165,  166
                     170,  171,  172,  173,  174,  175,  176,  177,  200,  201,  205,  206,  210,  211,  212,  213,  214
                     215,  216,  217,  220,  221,  225,  226,  230,  231,  232,  233,  234,  235,  236,  237,  240,  241
         70 RANOUT    35,   40
         74 RSTCHR    16
        104 SERIAL     0
         37 TSTEND    23

0 NO ERROR IN ABOVE ASSEMBLY.


CDDELT   BCD 05/15/71 1242.8    1988         00000
1      CDDELT        SUBROUTINE TO PUNCH PREFIX 7 CARDS                          05/15/71 1239.3 PAGE 1

                              *      THIS ROUTINE IS CALLED BY
                              *      TSX     CDDELT,4
                              *      PZE     FIRST,T,N
                              *      RETURN
                              *
                              *      THIS ROUTINE BUNCHES A BUFFER OF WORDS IN 7PUNCH FORM.
                              *      THE ENTIRE BUFFER IS PUNCHED.  SINCE THE LAST 7PUNCH CARD OF
                              *      FILE HAS A NON-ZERO TAG, THE CALLING ROUTINE MUST SIGNAL THIS
                              *      ROUTINE AT THE LAST BUFFER.  THIS IS DONE BY MAKING 'T' IN THE
                              *      CALLING SEQUENCE NON-ZERO. OTHERWISE IT MUST BE ZERO.

  BINARY CARD NO. CDDELT00
                       00020         ENTRY   CDDELT
                       00003         ENTRY   P7CARD
                              *

                                             ALSO, INCLUDES A SMALL WRITE-AROUND FOR MAD CALLERS.


        TRANSFER VECTOR
      00000  224764452330     BPUNCH

        LINKAGE DIRECTOR
      00001  000000000000
      00002  232424254363

      00003  0636 00 4 00016  P7CARD SCA     P7X4,4        SAVE LINKAGE
      00004  0500 00 4 00001         CLA     1,4           GET POINTER TO BUFFER
      00005  0621 00 0 00015         STA     P7CALL+1      SAVE IT
      00006  0500 60 4 00002         CLA*    2,4           GET COUNT OF WORDS
      00007  0767 00 0 00022         ALS     18            POSITION COUNT
      00010  0622 00 0 00015         STD     P7CALL+1      SAVE COUNT
      00011  0500 60 4 00003         CLA*    3,4           GET 'LAST-CARD' FLAG
      00012  0767 00 0 00017         ALS     15            POSITION FLAG
      00013  0625 00 0 00015         STT     P7CALL+1      AND SAVE TAG

      00014  0074 00 4 00020  P7CALL TSX     CDDELT,4      MAKE 7PUNCH CARD(S)
      00015  0 00000 0 00000         PZE     **,**,**      ..

      00016 -0774 00 4 00000  P7X4   AXC     **,4          RESTORE LINKAGE
      00017  0020 00 4 00004         TRA     4,4           RETURN TO CALLER
1      CDDELT        SUBROUTINE TO PUNCH PREFIX 7 CARDS                          05/15/71 1239.3 PAGE 2

      00020  0634 00 4 00153  CDDELT SXA     CDDXR4,4
      00021  0634 00 2 00154         SXA     CDDXR2,2
      00022  0634 00 1 00155         SXA     CDDXR1,1
      00023 -0500 00 4 00001         CAL     1,4
      00024 -0734 00 1 00000         PDX     ,1
      00025  0621 00 0 00027         STA     DEL1
      00026  0044 00 0 00000         PAI                   SAVE THE ARGUMENT FOR TESTING TAG
      00027  0774 00 2 00000  DEL1   AXT     **,2
      00030  0634 00 2 00157         SXA     DEL3,2
      00031  0634 00 2 00117         SXA     DEL2,2
      00032  0634 00 2 00044         SXA     DEL5,2
      00033  3 00026 1 00042         TXH     DEL4,1,22     SEE IF MORE THAN ONE CARD REMAINING
      00034  0754 00 1 00000         PXA     ,1            IF LAST CARD
      00035  0774 00 1 00000         AXT     0,1           INDICATE BY IR1=0
      00036  0734 00 4 00000         PAX     ,4
      00037 -0500 00 1 00037         CAL     *,1           SET UP A TAG OF 1 TO INDICATE LAST CARD
      00040  0625 00 0 00160         STT     DETWD1        *
      00041  0020 00 0 00071         TRA     DEL3B
                       00042  DEL4   SYN     *
      00042 -0500 60 0 00157         CAL*    DEL3          GET FIRST WORD ON CARD
      00043 -0774 00 4 00000         AXC     0,4           AND SET UP TO COUNT EQUAL WORDS
      00044 -0340 00 4 00000  DEL5   LAS     **,4          COMPARE WORDS FOR =ITY
      00045  0020 00 0 00054         TRA     DEL3A         WORDS NOT EWUAL
      00046  1 77777 4 00050         TXI     *+2,4,-1      = WORDS, COUNT THEM
      00047  0020 00 0 00054         TRA     DEL3A         WORDS NOT EQUAL
      00050  1 77777 1 00051         TXI     *+1,1,-1      REDUCE BUFFER COUNT
      00051  3 00000 1 00044         TXH     DEL5,1,0      AND CONTINUE IF BUFFER NOT EMPTY
      00052 -0500 00 1 00052         CAL     *,1           SET MARKER FOR LAST CARD
      00053  0625 00 0 00160         STT     DETWD1        *
      00054  0634 00 4 00055  DEL3A  SXA     *+1,4         RESTORE COUNT
      00055 -0774 00 4 00000         AXC     **,4          * TO INDEX
      00056  3 00026 4 00071         TXH     DEL3B,4,22    IF COUNT .G. 22, CONTINUE
      00057  3 00000 1 00063         TXH     DEL3C,1,0     KEEP GOING IF BUFFER NOT EMPTY
      00060 -0500 00 1 00060         CAL     *,1           OTHERWISE MARK LAST CARD
      00061  0625 00 0 00160         STT     DETWD1        *
      00062  0020 00 0 00071         TRA     DEL3D
      00063 -0636 00 4 00065  DEL3C  SCD     *+2,4         REDUCE BUFFER COUNTER BY THE DIFFERENCE
      00064  0774 00 4 00026         AXT     22,4          OF 22 WORDS LESS THOSE THAT WERE EQUAL
      00065  1 00000 4 00066         TXI     *+1,4,**      HERE IS THE DIFFERENCE IN IR4
      00066 -0636 00 4 00067         SCD     *+1,4         NOW REDUCE THE COUNTER
      00067  1 00000 1 00070         TXI     *+1,1,**      *
      00070  0774 00 4 00026         AXT     22,4
                       00071  DEL3D  SYN     *
                       00071  DEL3B  SYN     *
      00071 -0634 00 4 00112         SXD     DEPCNT,4      SET UP THE REAL COUNT
      00072  0754 00 4 00000         PXA     ,4
      00073 -3 00026 4 00075  TXL    TXL     *+2,4,22      IF COUNT .L. 23, THEN LEAVE
      00074  0774 00 4 00001         AXT     1,4           OTHERWISE SET UP A SINGLE WORD
      00075 -0634 00 4 00157         SXD     DEL3,4        *
      00076  0634 00 4 00115         SXA     DEPCT1,4
      00077 -0765 00 0 00006         LGR     6             AND MAKE COUNT THAT GOES ON CARD
      00100  0767 00 0 00003         ALS     3             *
      00101 -0501 00 0 00215         ORA     =O7005
      00102 -0763 00 0 00006         LGL     6             AND FINISH COUNT
      00103  0767 00 0 00022         ALS     18            MOVE COUNT TO DECREMENT
      00104  0622 00 0 00160         STD     DETWD1        STORE WORD COUNT
1      CDDELT        SUBROUTINE TO PUNCH PREFIX 7 CARDS                          05/15/71 1239.3 PAGE 3

      00105  0630 00 0 00160         STP     DETWD1
      00106  0054 00  700000         RFT     700000        IS TAG NON-ZERO (FROM CALLING SEQUENCE)
      00107  0020 00 0 00112         TRA     *+3           MEANS TO LEAVE THE 1 IN THE TAG
      00110 -0754 00 0 00000         ZAC                   OTHERWISE ZERO IT OUT
      00111  0625 00 0 00160         STT     DETWD1        AND SET CORRECT
      00112  1 00000 2 00113  DEPCNT TXI     *+1,2,**      MOVE BUFFER POINTER
      00113  0634 00 2 00027         SXA     DEL1,2        SAVE BUFFER POINTER
      00114 -0774 00 2 00000         AXC     0,2
      00115  0774 00 4 00000  DEPCT1 AXT     **,4
      00116 -0500 00 0 00160         CAL     DETWD1        FOR THE PROPER CHECK SUM
      00117  0361 00 2 00000  DEL2   ACL     **,2          COMPUTE THE CKECK SUM FOR THE CARD
      00120  1 77777 2 00121         TXI     *+1,2,-1
      00121  2 00001 4 00117         TIX     DEL2,4,1
      00122  0602 00 0 00161         SLW     DETWD2        STORED
      00123  0534 00 4 00157         LXA     DEL3,4
      00124  0634 00 4 00131         SXA     DEL6,4
      00125 -0534 00 4 00157         LXD     DEL3,4
      00126 -0774 00 2 00002         AXC     2,2
      00127  0634 00 1 00147         SXA     DELX1,1       SAVE INDEX 1
      00130 -0774 00 1 00000         AXC     0,1
      00131  0560 00 1 00000  DEL6   LDQ     **,1
      00132 -0600 00 2 00160         STQ     DETWD1,2
      00133 -2 00001 4 00136         TNX     DEL7,4,1
      00134  1 77777 1 00135         TXI     *+1,1,-1
      00135  1 77777 2 00131         TXI     DEL6,2,-1
      00136  0756 00 2 00000  DEL7   PCA     ,2
      00137  0361 00 0 00143         ACL     DEL8
      00140  0767 00 0 00022         ALS     18
      00141  0622 00 0 00143         STD     DEL8
      00142  0074 00 4 00000         TSX     $BPUNCH,4
      00143  0 00000 0 00160  DEL8   PZE     DETWD1,,**
      00144 -0500 00 0 00160         CAL     DETWD1        CONTROL WORD FOR CARD
      00145  0400 00 0 00214         ADD     =1            UPDATE SEQUENCE NUMBER
      00146  0621 00 0 00160         STA     DETWD1
      00147  0774 00 1 00000  DELX1  AXT     **,1          RESTOR INDEX 1
      00150  3 00000 1 00027         TXH     DEL1,1,0      TEST FOR END OF BUFFER
      00151  0054 00  700000         RFT     700000
      00152  0600 00 0 00160         STZ     DETWD1        AT END OF BUFFER RESET COUNT
      00153  0774 00 4 00000  CDDXR4 AXT     **,4
      00154  0774 00 2 00000  CDDXR2 AXT     **,2
      00155  0774 00 1 00000  CDDXR1 AXT     **,1
      00156  0020 00 4 00002         TRA     2,4
                              *
      00157  0 00000 0 00000  DEL3   PZE     **,,**
      00160                   DETWD1 BSS     28
                       00161  DETWD2 SYN     DETWD1+1
                                     END

        LITERALS
      00214  000000000001
      00215  000000007005
1      CDDELT        SUBROUTINE TO PUNCH PREFIX 7 CARDS                          05/15/71 1239.3 PAGE 1
                        POST PROCESSOR ASSEMBLY DATA

        216 IS THE FIRST LOCATION NOT USED BY THIS PROGRAM

0REFERENCES TO DEFINED SYMBOLS
         73    TXL
         27   DEL1    25,  113,  150
        117   DEL2    31,  121
        157   DEL3    30,   42,   75,  123,  125
         42   DEL4    33,   42
         44   DEL5    32,   51
        131   DEL6   124,  135
        136   DEL7   133
        143   DEL8   137,  141
         16   P7X4     3
         54  DEL3A    45,   47
         71  DEL3B    41,   56,   71
         63  DEL3C    57
         71  DEL3D    62,   71
        147  DELX1   127
          0 BPUNCH   142
         20 CDDELT     0,   14
        155 CDDXR1    22
        154 CDDXR2    21
        153 CDDXR4    20
        112 DEPCNT    71
        115 DEPCT1    76
        160 DETWD1    40,   53,   61,  104,  105,  111,  116,  132,  143,  144,  146,  152,  214
        161 DETWD2   122,  214
         14 P7CALL     5,   10,   13
          3 P7CARD     0

0 NO ERROR IN ABOVE ASSEMBLY.


  SCAN   BCD 05/15/71 1242.8    1291         00000
