1      SCAN  ROUTINE TO SCAN CHARACTERS AND FORM A FIELD                         05/15/71 1239.4 PAGE 1

                              *      FIELDS ARE BROKEN BY A BLANK OR A COMMA
                              *      WORDS ARE RETURNED RIGHT JUSTIFIED WITH LEADING BLANKS
                              *      IN THE -ARITHMETIC- AC
                              *      A FIRST CALL IS MADE TO SCANI
                              *      TSX     SCANI,4
                              *      BRN     BUF           WITH THE STARTING ADDRESS OF BUFFER
                              *      BRN     X             RETURN FOR NO MORE CHARACTERS
                              *
                              *      ALL FOLLOWING CALLS ARE TO SCAN
                              *      TSX     SCAN,4
                              *      BRN     X             NO MORE CHARACTERS
                              *
                              ************************************************************************

  BINARY CARD NO. SCAN0000
                       00002         ENTRY   SCANI         INITIAL ENTRY
                       00036         ENTRY   SCAN          NORMAL
                              *

        LINKAGE DIRECTOR
      00000  000000000000
      00001  622321453160

      00002  0634 00 4 00030  SCANI  SXA     SCNIX4,4
      00003  0634 00 2 00031         SXA     SCNIX2,2
      00004  0634 00 1 00032         SXA     SCNIX1,1
      00005 -0500 00 4 00001         CAL     1,4           BRN STARTING ADDRESS
      00006  0734 00 4 00000         PAX     ,4
      00007  1 00014 4 00010         TXI     *+1,4,12
      00010  0634 00 4 00014         SXA     SCNI1+1,4
      00011 -0774 00 4 00001         AXC     1,4           START POINTER FOR CHARACTERS
      00012  0774 00 2 00014         AXT     12,2
      00013  0774 00 1 00006  SCNI1  AXT     6,1           CHARACTERS PER WORD
      00014  0560 00 2 00000         LDQ     **,2          FIRST OR NEXT WORD
      00015 -0754 00 0 00000         ZAC
      00016 -0763 00 0 00006         LGL     6             FIRST OR NEXT CHARACTER
      00017  0601 00 4 00107         STO     S,4           SAVE IN BUFFER
      00020  1 77777 4 00021         TXI     *+1,4,-1      MOVE CHARACTER POINTER
      00021  2 00001 1 00015         TIX     SCNI1+2,1,1
      00022  2 00001 2 00013         TIX     SCNI1,2,1     COUNT WORDS

      00023 -0625 00 0 00106         STL     SCNIBS        SHOW BLANK LINE
      00024  0636 00 2 00042         SCA     SCN2,2
      00025  0074 00 4 00036         TSX     SCAN,4        SCAN LINE
      00026  0 00000 0 00030                 *+2           FOR BLANK LINE
      00027  0600 00 0 00106         STZ     SCNIBS        FOR NON-BLANK LINE
      00030  0774 00 4 00000  SCNIX4 AXT     **,4
      00031  0774 00 2 00000  SCNIX2 AXT     **,2
      00032  0774 00 1 00000  SCNIX1 AXT     **,1
      00033 -0520 00 0 00106         NZT     SCNIBS        WAS LINE BLANK
      00034  0020 00 4 00001         TRA     1,4           NO
      00035  0020 60 4 00002         TRA*    2,4
                              *
                              *
      00036  0634 00 4 00103  SCAN   SXA     SCNX4,4
      00037  0634 00 2 00104         SXA     SCNX2,2
1      SCAN  ROUTINE TO SCAN CHARACTERS AND FORM A FIELD                         05/15/71 1239.4 PAGE 2

      00040  0500 00 0 00222         CLA     =H
      00041  0601 00 0 00107         STO     S
      00042  0774 00 2 00000  SCN2   AXT     **,2
      00043 -3 77667 2 00054         TXL     SCN1A,2,-73
      00044  0500 00 2 00107         CLA     S,2
      00045  0340 00 0 00220         CAS     =O60          COMPARE CHARACTER TO BLANK
      00046  0020 00 0 00050         TRA     SCN6          NOT A BLANK
      00047  1 77777 2 00043         TXI     SCN2+1,2,-1   SKIP BLANKS
      00050  0340 00 0 00221  SCN6   CAS     =H00000,
      00051  0020 00 0 00061         TRA     SCN3
      00052  1 77777 2 00043         TXI     SCN2+1,2,-1
      00053  0020 00 0 00061         TRA     SCN3

      00054  0500 00 0 00222  SCN1A  CLA     =H
      00055  0634 00 2 00042         SXA     SCN2,2
      00056  0534 00 4 00103         LXA     SCNX4,4
      00057  0534 00 2 00104         LXA     SCNX2,2
      00060  0020 60 4 00001         TRA*    1,4           NO CHARACTERS

      00061  0500 00 2 00107  SCN3   CLA     S,2
      00062  0340 00 0 00221         CAS     =H00000,
      00063  0020 00 0 00065         TRA     SCN5
      00064  1 77777 2 00100         TXI     SCN4,2,-1
      00065 -0765 00 0 00006  SCN5   LGR     6
      00066 -0500 00 0 00107         CAL     S
      00067 -0763 00 0 00006         LGL     6             INSERT CHARACTER
      00070  0602 00 0 00107         SLW     S
      00071  1 77777 2 00072         TXI     *+1,2,-1
      00072 -3 77667 2 00100         TXL     SCN4,2,-73
      00073  0500 00 2 00107         CLA     S,2
      00074  0340 00 0 00220         CAS     =O60
      00075  0020 00 0 00061         TRA     SCN3
      00076  1 77777 2 00100         TXI     SCN4,2,-1
      00077  0020 00 0 00061         TRA     SCN3

      00100  0634 00 2 00042  SCN4   SXA     SCN2,2
      00101  0500 00 0 00107         CLA     S
      00102  0140 00 0 00103         TOV     *+1           TURN OFF OVERFLOW
      00103  0774 00 4 00000  SCNX4  AXT     **,4
      00104  0774 00 2 00000  SCNX2  AXT     **,2
      00105  0020 00 4 00002         TRA     2,4

      00106                   SCNIBS BSS     1
      00107                   S      BSS     1
      00110                          BSS     72
                                     END

        LITERALS
      00220  000000000060
      00221  000000000073
      00222  606060606060
1      SCAN  ROUTINE TO SCAN CHARACTERS AND FORM A FIELD                         05/15/71 1239.4 PAGE 1
                        POST PROCESSOR ASSEMBLY DATA

        223 IS THE FIRST LOCATION NOT USED BY THIS PROGRAM

0REFERENCES TO DEFINED SYMBOLS
        107      S    17,   41,   44,   61,   66,   70,   73,  101
         36   SCAN     0,   25
         42   SCN2    24,   47,   52,   55,  100
         61   SCN3    51,   53,   75,   77
        100   SCN4    64,   72,   76
         65   SCN5    63
         50   SCN6    46
          2  SCANI     0
         54  SCN1A    43
         13  SCNI1    10,   21,   22
        104  SCNX2    37,   57
        103  SCNX4    36,   56
        106 SCNIBS    23,   27,   33
         32 SCNIX1     4
         31 SCNIX2     3
         30 SCNIX4     2

0 NO ERROR IN ABOVE ASSEMBLY.


GETAPE   BCD 05/15/71 1242.8     408         00000
1         ROUTINE TO SPACE OVER A 50 FOOT LEADER ON GE TAPE                      05/15/71 1239.4 PAGE 1

                       00004         ENTRY   GETAPE
                                     EXTERN  SCAN
                                     EXTERN DECCNV
                                     BCORE

        TRANSFER VECTOR
      00000  622321456060     SCAN
      00001  242523234565     DECCNV

        LINKAGE DIRECTOR
      00002  000000000000
      00003  272563214725

      00004  0634 00 4 00021  GETAPE SXA     XT,4
      00005  0074 00 4 00000         TSX     SCAN,4        ARGUMENT FROM CARD OF HOW MANY RECORDS
      00006  0500 00 0 00024         CLA     =H    45      NO ARGUMENT ON CARD
      00007  0602 00 0 00023         SLW     N
      00010  0074 00 4 00001         TSX     DECCNV,4      BCD TO BINARY
      00011  0 00000 0 00023         PZE     N
      00012  0602 00 0 00023         SLW     N
      00013  0534 00 4 00023         LXA     N,4           HOW MANY
      00014  0762 00 0 01202         RDS     A2
      00015  0060 00 0 00015         TCOA    *
      00016  0761 00 0 00000         NOP
      00017  2 00001 4 00014         TIX     *-3,4,1
      00020  0772 00 0 01202         REW     A2
      00021  0774 00 4 00000  XT     AXT     **,4
      00022  0020 00 4 00001         TRA     1,4
                      001202  A2     BOOL    1202
      00023  0 00000 0 00000  N      PZE
                                     END

        LITERALS
      00024  606060600405
1         ROUTINE TO SPACE OVER A 50 FOOT LEADER ON GE TAPE                      05/15/71 1239.4 PAGE 1
                        POST PROCESSOR ASSEMBLY DATA

         25 IS THE FIRST LOCATION NOT USED BY THIS PROGRAM

0REFERENCES TO DEFINED SYMBOLS
         23      N     7,   11,   12,   13
       1202     A2    14,   20,   23
         21     XT     4
          0   SCAN     5
          1 DECCNV    10
          4 GETAPE     0

0 NO ERROR IN ABOVE ASSEMBLY.


STMARG   BCD 05/15/71 1242.8     303         00000
1      STMARG SUBROUTINE RE-CREATED FROM THE BINARY FOR DISK EDITOR              05/15/71 1239.5 PAGE 1

                              *JANUARY 1966, L. ODLAND
                       00002         ENTRY STMARG

        LINKAGE DIRECTOR
      00000  000000000000
      00001  626344215127

      00002 -0500 60 4 00001  STMARG CAL*    1,4
      00003  0621 00 0 00017         STA     TEMP
      00004  0771 00 0 00022         ARS     18
      00005 -0320 00 0 00021         ANA     =O77777
      00006  0100 00 0 00010         TZE     *+2
      00007  0402 00 0 00017         SUB     TEMP
      00010  0774 00 1 77777         AXT     -1,1
      00011  0120 00 0 00013         TPL     *+2
      00012  0774 00 1 00001         AXT     1,1
      00013  0361 00 0 00020         ACL     =1
      00014  0767 00 0 00022         ALS     18
      00015 -0501 00 0 00017         ORA     TEMP
      00016  0020 00 4 00002         TRA     2,4
      00017  0 00000 0 00000  TEMP   PZE
                                     END

        LITERALS
      00020  000000000001
      00021  000000077777
1      STMARG SUBROUTINE RE-CREATED FROM THE BINARY FOR DISK EDITOR              05/15/71 1239.5 PAGE 1
                        POST PROCESSOR ASSEMBLY DATA

         22 IS THE FIRST LOCATION NOT USED BY THIS PROGRAM

0REFERENCES TO DEFINED SYMBOLS
         17   TEMP     3,    7,   15
          2 STMARG     0

0 NO ERROR IN ABOVE ASSEMBLY.


ADJPRB   BCD 05/15/71 1242.8    1335         00000
1     MAD PROGRAM LISTING ... ... ...                 FILE  ADJPRB   MAD            05/15/71    1239.6
-
                 PROGRAM TO ADJUST PROBNO TO FORM BANNNN                                               LM00001
                  EXTERNAL FUNCTION (A,B)                                                         *001 LM00002
                  ENTRY TO ADJPRB.                                                                *002 LM00003
                  THROUGH ADJ, FOR K = 1,1, K .G. MM(2)                                           *003 LM00004
                  T = (A .A. M(K)) .RS. (36 - K*MM(1))                                            *004 LM00005
                  WHENEVER T .E. 0 .OR. T .E. $00000 $, TRANSFER TO ADJ                           *005 LM00006
                  A = T .LS. 24 .V. (A .A. MM(K+1)) .V. MM                                        *006 LM00007
                  FUNCTION RETURN A                                                               *007 LM00008
      ADJ         CONTINUE                                                                        *008 LM00009
                  TRANSFER TO B                                                                   *009 LM00010
                  NORMAL MODE IS INTEGER                                                          *010 LM00011
                  STATEMENT LABEL B                                                               *011 LM00012
                  VECTOR VALUES M = 0,2,77K8,77K6,77K4,77K2                                       *012 LM00013
                  VECTOR VALUES MM = 60K10,6,5,77777777K,777777K,7777K,77K                        *013 LM00014
                  VECTOR VALUES T = 0                                                             *014 LM00015
                  END OF FUNCTION                                                                 *015 LM00016
1MAD PROGRAM,TYPE NOV 1963      (ALL NUMBERS ARE OCTAL)
0TOTAL LOCATIONS   00140 TRANSFER VECTOR LENGTH  00001 PROGRAM BEGINS    00030
0 PROGRAM IS AN EXTERNAL FUNCTION.   THE FOLLOWING ARE ENTRIES
      ADJPRB 00031   0
0VARIABLE STORAGE (A=ARRAY,C=COMMON,E=ERASABLE,DIGIT=MODE)
      ADJ    00002   4        K      00003   1        MM     00012 A 1        M      00020 A 1        T      00021 A 1
0FUNCTION DICTIONARY
      EXIT   00000   1
0ABSOLUTE CONSTANTS
 00024 +000000000030     00022 +000000000000     00026 +000000000060     00025 +000000000044     00023 +000000000001
 00027 +233000000000
0STATEMENT DICTIONARY
 00002 TXL -300113000112
0PROGRAM
                 EXTERNAL FUNCTION (A,B)                                            001  LM00002
                 ENTRY TO ADJPRB.                                                   002  LM00003
 00030 TRA +0 02000 0 00033    00031 SXA +0 63400 2 00115    00032 TSX +0 07400 2 00115
                 T'H ADJ, FOR K = 1,1, K .G. MM(2)                                  003  LM00004
 00033 CLA +0 50000 0 00023    00034 STO +0 60100 0 00003    00035 TRA +0 02000 0 00041    00036 CLA +0 50000 0 00003
 00037 ADD +0 40000 0 00023    00040 STO +0 60100 0 00003    00041 CLA +0 50000 0 00003    00042 SUB +0 40200 0 00010
 00043 TZE +0 10000 0 00045    00044 TPL +0 12000 0 00113
                 T = (A .A. M(K)) .RS. (36 - K*MM(1))                               004  LM00005
 00045 LDQ +0 56000 0 00003    00046 MPY +0 20000 0 00011    00047 XCA +0 13100 0 00000    00050 CHS +0 76000 0 00002
 00051 ADD +0 40000 0 00025    00052 LXA +0 53400 2 00003    00053 STO +0 60100 0 00134    00054 CAL -0 50000 0 00024
 00055 ANA -0 32000 2 00020    00056 SLW +0 60200 0 00135    00057 CAL -0 50000 0 00134    00060 STA +0 62100 0 00062
 00061 CAL -0 50000 0 00135    00062 LGR -0 76500 0 00000    00063 SLW +0 60200 0 00021
                 W'R T .E. 0 .OR. T .E. $00000 $, T'O ADJ                           005  LM00006
 00064 CLA +0 50000 0 00021    00065 SUB +0 40200 0 00026    00066 TZE +0 10000 0 00072    00067 CLA +0 50000 0 00021
 00070 SUB +0 40200 0 00022    00071 TNZ -0 10000 0 00073    00072 TRA +0 02000 0 00002
                 A = T .LS. 24 .V. (A .A. MM(K+1)) .V. MM                           006  LM00007
 00073 CLA +0 50000 0 00003    00074 ADD +0 40000 0 00023    00075 PAX +0 73400 2 00000    00076 CAL -0 50000 0 00024
 00077 ANA -0 32000 2 00012    00100 SLW +0 60200 0 00135    00101 CAL -0 50000 0 00024    00102 STA +0 62100 0 00104
 00103 CAL -0 50000 0 00021    00104 ALS +0 76700 0 00000    00105 ORA -0 50100 0 00135    00106 ORA -0 50100 0 00012
 00107 SLW +0 60200 0 00024
                 F'N A                                                              007  LM00008
 00110 CLA +0 50000 0 00024    00111 TRA +0 02000 0 00130
      ADJ        CONTINUE                                                           008  LM00009
 00112 TRA +0 02000 0 00036
                 T'O B                                                              009  LM00010
 00113 TRA +0 02000 0 00024
                 N'S INTEGER                                                        010  LM00011
                 STATEMENT LABEL B                                                  011  LM00012
                 V'S M = 0,2,77K8,77K6,77K4,77K2                                    012  LM00013
 00013     +0 00000 0 07700    00014     +0 00000 7 70000    00015     +0 00077 0 00000    00016     +0 07700 0 00000
 00017     +0 00000 0 00002    00020     +0 00000 0 00000
                 V'S MM = 60K10,6,5,77777777K,777777K,7777K,77K                     013  LM00014
 00004     +0 00000 0 00077    00005     +0 00000 0 07777    00006     +0 00000 7 77777    00007     +0 00077 7 77777
 00010     +0 00000 0 00005    00011     +0 00000 0 00006    00012     -2 00000 0 00000
                 V'S T = 0                                                          014  LM00015
 00021     +0 00000 0 00000
                 E'N                                                                015  LM00016
 00114 TSX +0 07400 4 00000    00115 TXH +3 00000 0 00000    00116 SXD -0 63400 1 00115    00117 SXA +0 63400 4 00130
 00120 CLA +0 50000 4 00001    00121 STA +0 62100 0 00054    00122 STA +0 62100 0 00076    00123 STA +0 62100 0 00107
 00124 STA +0 62100 0 00110    00125 CLA +0 50000 4 00002    00126 STA +0 62100 0 00113    00127 TRA +0 02000 2 00001
 00130 AXT +0 77400 4 00000    00131 LXA +0 53400 2 00115    00132 LXD -0 53400 1 00115    00133 TRA +0 02000 4 00001


SPRDOC   BCD 05/15/71 1242.8     419         00000
1        ROUTINE TO CONVERT FROM BIN TO SPREAD OCT AND VISA VERSA                05/15/71 1239.6 PAGE 1

                       00002         ENTRY   SPRDOC
                       00014         ENTRY   SOCTBN
                       00025         ENTRY   LOC

        LINKAGE DIRECTOR
      00000  000000000000
      00001  624751244623

      00002  0560 60 4 00001  SPRDOC LDQ*    1,4           SPRDOC.(ARG)
      00003 -0763 00 0 00022         LGL     18            RETURN SPREAD OCTAL IN AC
      00004  0634 00 4 00012         SXA     X4,4
      00005  0774 00 4 00006         AXT     6,4           ARG IS INTEGER
      00006 -0754 00 0 00000         ZAC
      00007  0767 00 0 00003         ALS     3
      00010 -0763 00 0 00003         LGL     3
      00011  2 00001 4 00007         TIX     *-2,4,1
      00012  0774 00 4 00000  X4     AXT     **,4
      00013  0020 00 4 00002         TRA     2,4
                              *
                              *     OCT TO BIN   SOCTBN.(ARG)
                              *                  RETURN BINARY INTEGER IN AC
      00014  0634 00 4 00023  SOCTBN SXA     XX4,4
      00015 -0500 60 4 00001         CAL*    1,4
      00016  0774 00 4 00006         AXT     6,4
      00017 -0765 00 0 00003         LGR     3
      00020  0771 00 0 00003         ARS     3
      00021  2 00001 4 00017         TIX     *-2,4,1
      00022 -0763 00 0 00022         LGL     18
      00023  0774 00 4 00000  XX4    AXT     **,4
      00024  0020 00 4 00002         TRA     2,4
      00025  0560 00 4 00001  LOC    LDQ     1,4
      00026  0020 00 0 00003         TRA     SPRDOC+1
                                     END
1        ROUTINE TO CONVERT FROM BIN TO SPREAD OCT AND VISA VERSA                05/15/71 1239.6 PAGE 1
                        POST PROCESSOR ASSEMBLY DATA

         27 IS THE FIRST LOCATION NOT USED BY THIS PROGRAM

0REFERENCES TO DEFINED SYMBOLS
         12     X4     4
         25    LOC     0
         23    XX4    14
         14 SOCTBN     0
          2 SPRDOC     0,   26

0 NO ERROR IN ABOVE ASSEMBLY.


DECCNV   BCD 05/15/71 1242.8     417         00000
1       BCD TO BINARY CONVERSION WITH ZERO RETURNED IF ANY ALPHA CHARACTER       05/15/71 1239.7 PAGE 1

                       00002         ENTRY   DECCNV

        LINKAGE DIRECTOR
      00000  000000000000
      00001  242523234565

      00002  0634 00 4 00026  DECCNV SXA     X4,4
      00003  0560 60 4 00001         LDQ*    1,4           BCD RIGHT ADJUSTED
      00004  0600 00 0 00030         STZ     G
      00005  0774 00 4 00006         AXT     6,4
      00006 -0754 00 0 00000  CNV    ZAC
      00007 -0763 00 0 00002         LGL     2             FIND ZONE BITS
      00010 -0100 00 0 00022         TNZ     ERRXT         RETURN ZERO IF ALPHA
      00011 -0763 00 0 00004         LGL     4             DECIMAL DIGIT
      00012  0361 00 0 00030  CNV1   ACL     G             PREVIOUS RESULT
      00013  0602 00 0 00030         SLW     G
      00014 -2 00001 4 00026         TNX     X4,4,1
      00015  0767 00 0 00002         ALS     2             TIMES 4
      00016  0361 00 0 00030         ACL     G             TIMES 5
      00017  0767 00 0 00001         ALS     1             TIMES 10
      00020  0602 00 0 00030         SLW     G             SAVE RESULT
      00021  0020 00 0 00006         TRA     CNV
      00022 -0754 00 0 00000  ERRXT  ZAC
      00023 -0763 00 0 00004         LGL     4
      00024  0100 00 0 00012         TZE     CNV1
      00025 -0754 00 0 00000         ZAC
      00026  0774 00 4 00000  X4     AXT     **,4
      00027  0020 00 4 00002         TRA     2,4
      00030  0 00000 0 00000  G      PZE                   TEMP CELL
                                     END
1       BCD TO BINARY CONVERSION WITH ZERO RETURNED IF ANY ALPHA CHARACTER       05/15/71 1239.7 PAGE 1
                        POST PROCESSOR ASSEMBLY DATA

         31 IS THE FIRST LOCATION NOT USED BY THIS PROGRAM

0REFERENCES TO DEFINED SYMBOLS
         30      G     4,   12,   13,   16,   20
         26     X4     2,   14
          6    CNV    21
         12   CNV1    24
         22  ERRXT    10
          2 DECCNV     0

0 NO ERROR IN ABOVE ASSEMBLY.


  GETT   BCD 05/15/71 1242.8     907         00000
1            ROUTINES TO FORMAT AND RETURN DATE AND TIME                         05/15/71 1239.7 PAGE 1
                           D.R. WIDRIG  JAN. 1966

                       00001         ENTRY   GETTIM
                       00003         ENTRY   GETTM

                                             SAMPLE CALLING SEQUENCES ARE..
                                                           GETTIM.(DATE,TIME)
                                                           RETURNS DATE AS MMDDYY AND TIME AS HHMM.M

                                                           GETTM.(DATE,TIME)
                                                           RETURNS DATE AS MM/DD (LEFT ADJUSTED) AND
                                                           TIME AS HHMM.M


        TRANSFER VECTOR
      00000  272563314425     GETIME

      00001 -0625 00 0 00060  GETTIM STL     DATESW        SET NO-DATE-PROCESS SWITCH
      00002  0020 00 0 00004         TRA     *+2           AND REJOIN ROUTINE

      00003  0600 00 0 00060  GETTM  STZ     DATESW        SET TO PROCESS DATE
      00004  0636 00 4 00006         SCA     *+2,4         SAVE CALLING LINKAGE
      00005  0074 00 4 00000         TSX     $GETIME,4     GET DATE AND TIME
      00006 -0774 00 4 00000         AXC     **,4          RESTORE CALLING LINKAGE
      00007  0602 00 0 00055         SLW     60THS         SAVE TIME FOR A MOMENT (HO HO)
      00010  0520 00 0 00060         ZET     DATESW        TEST FOR DATE PROCESSING
      00011  0020 00 0 00021         TRA     RETDAT        OFF, SKIP DATE PROCESSING

      00012 -0754 00 0 00000         ZAC                   POSITION AND SET SHORT FORM OF DATE
      00013 -0763 00 0 00014         LGL     12
      00014  0767 00 0 00006         ALS     6
      00015 -0763 00 0 00014         LGL     12
      00016  0767 00 0 00006         ALS     6
      00017 -0501 00 0 00065         ORA     =H00/00
      00020 -0130 00 0 00000         XCL                   POSITION RESULT
      00021 -0600 60 4 00001  RETDAT STQ*    1,4           RETURN DATE TO USER

      00022 -0754 00 0 00000         ZAC                   NOW GET BCD TIME AS HHMM.M
      00023  0560 00 0 00055         LDQ     60THS
      00024  0221 00 0 00063         DVP     =360
      00025 -0754 00 0 00000         ZAC
      00026  0221 00 0 00061         DVP     =10
      00027  0601 00 0 00056         STO     WORD
      00030 -0754 00 0 00000         ZAC
      00031  0221 00 0 00062         DVP     =60
      00032  0601 00 0 00057         STO     MINS
      00033 -0754 00 0 00000         ZAC
      00034  0221 00 0 00061         DVP     =10
      00035  0767 00 0 00030         ALS     24
      00036 -0602 00 0 00056         ORS     WORD
      00037 -0130 00 0 00000         XCL
      00040  0767 00 0 00036         ALS     30
      00041 -0602 00 0 00056         ORS     WORD
      00042  0560 00 0 00057         LDQ     MINS
      00043 -0754 00 0 00000         ZAC
      00044  0221 00 0 00061         DVP     =10
      00045  0767 00 0 00014         ALS     12
1            ROUTINES TO FORMAT AND RETURN DATE AND TIME                         05/15/71 1239.7 PAGE 2
                           D.R. WIDRIG  JAN. 1966

      00046 -0602 00 0 00056         ORS     WORD
      00047 -0773 00 0 00022         RQL     18
      00050 -0130 00 0 00000         XCL
      00051 -0501 00 0 00056         ORA     WORD
      00052 -0501 00 0 00064         ORA     =H0000.0
      00053  0602 60 4 00002         SLW*    2,4
      00054  0020 00 4 00003         TRA     3,4
      00055  0 00000 0 00000  60THS
      00056  0 00000 0 00000  WORD
      00057  0 00000 0 00000  MINS
      00060  0 00000 0 00000  DATESW PZE     **            NON-ZERO IF NO DATE PROCESSING
                                     END

        LITERALS
      00061  000000000012
      00062  000000000074
      00063  000000000550
      00064  000000003300
      00065  000061000060
1            ROUTINES TO FORMAT AND RETURN DATE AND TIME                         05/15/71 1239.7 PAGE 1
                        POST PROCESSOR ASSEMBLY DATA

         66 IS THE FIRST LOCATION NOT USED BY THIS PROGRAM

0REFERENCES TO DEFINED SYMBOLS
         57   MINS    32,   42
         56   WORD    27,   36,   41,   46,   51
         55  60THS     7,   23
          3  GETTM     0
         60 DATESW     1,    3,   10
          0 GETIME     5
          1 GETTIM     0
         21 RETDAT    11

0 NO ERROR IN ABOVE ASSEMBLY.


 DERBC   BCD 05/15/71 1242.8     635         00000
1            DEFBC   CONVERTS BINARY INTEGER TO BCD FORM                         05/15/71 1239.8 PAGE 1

                              *COMPUTATION CENTER          LOUIS POUZIN
                              *      JUNE    64
                              *      CALLING SEQUENCE
                              *FAP   TSX     DEFBC,4       DEFBC USES FULL WORD
                              *      PZE     DATA          DERBC USES RIGHT HALF ONLY
                              *      STO     RESULT        DELBC USES LEFT HALF ONLY
                              *MAD   R=DERBC.(DATA)
                              *FORTR R=DELBC(DATA)


  BINARY CARD NO. DEBC0000
                       00010         ENTRY   DEFBC
                       00002         ENTRY   DELBC
                       00005         ENTRY   DERBC


        LINKAGE DIRECTOR

  BINARY CARD NO. DEBC0001
      00000  000000000000
      00001  242526222360

                       00000  X4     SYN     *-2

                       00002  DELBC  SYN     *
      00002 -0500 60 4 00001         CAL*    1,4
      00003  0771 00 0 00022         ARS     18
      00004  0020 00 0 00006         TRA     A

                       00005  DERBC  SYN     *
      00005 -0500 60 4 00001         CAL*    1,4
      00006 -0320 00 0 00027  A      ANA     =O777777
      00007  0020 00 0 00011         TRA     B

                       00010  DEFBC  SYN     *
      00010 -0500 60 4 00001         CAL*    1,4
      00011  0131 00 0 00000  B      XCA
      00012 -0634 00 4 00000         SXD     X4,4
      00013  0774 00 4 00044         AXT     36,4
      00014  0600 00 0 00025         STZ     D
      00015 -0754 00 0 00000  C      ZAC
      00016  0221 00 0 00026         DVP     =10           SUCCESSIVE DIGITS FROM RIGHT TO LEFT
      00017  0767 00 4 00044         ALS     36,4          SHIFT TO PROPER RANK
      00020 -0602 00 0 00025         ORS     D
      00021  2 00006 4 00015         TIX     C,4,6
      00022 -0534 00 4 00000         LXD     X4,4
      00023  0500 00 0 00025         CLA     D

  BINARY CARD NO. DEBC0002
      00024  0020 00 4 00002         TRA     2,4
1            DEFBC   CONVERTS BINARY INTEGER TO BCD FORM                         05/15/71 1239.8 PAGE 2

      00025  0 00000 0 00000  D      PZE                   TEMPORARY RESULT
                                     END

        LITERALS
      00026  000000000012
      00027  000000777777
1            DEFBC   CONVERTS BINARY INTEGER TO BCD FORM                         05/15/71 1239.8 PAGE 1
                        POST PROCESSOR ASSEMBLY DATA

         30 IS THE FIRST LOCATION NOT USED BY THIS PROGRAM

0REFERENCES TO DEFINED SYMBOLS
          6      A     4
         11      B     7
         15      C    21
         25      D    14,   20,   23
          0     X4     2,   12,   22
         10  DEFBC     0,   10
          2  DELBC     0,    2
          5  DERBC     0,    5

0 NO ERROR IN ABOVE ASSEMBLY.


   IOU   BCD 05/15/71 1242.8     341         00000
1     FAP ASSEMBLY LISTING ... ... ...          FILE     IOU   FAP               05/15/71 1239.9 PAGE 1

                       00005         ENTRY   (IOU)

        LINKAGE DIRECTOR
      00000  000000000000
      00001  743146643460

      00002  0 00000 0 01361         PZE     PRINT
      00003  0 00000 0 01341         PZE     PUNCH
      00004  0 00000 0 01321         PZE     READ
      00005  0 00000 0 00004  (IOU)  PZE     NTAPES
      00006  0 00000 0 01201         PZE     A1
      00007  0 00000 0 01203         PZE     A3
      00010  0 00000 0 02204         PZE     B4
      00011  0 00000 0 01202         PZE     A2
                       00004  NTAPES EQU     *-(IOU)-1
                      001321  READ   BOOL    1321
                      001341  PUNCH  BOOL    1341
                      001361  PRINT  BOOL    1361
                      001201  A1     BOOL    1201
                      001202  A2     BOOL    1202
                      001203  A3     BOOL    1203
                      002204  B4     BOOL    2204
                                     END
1     FAP ASSEMBLY LISTING ... ... ...          FILE     IOU   FAP               05/15/71 1239.9 PAGE 1
                        POST PROCESSOR ASSEMBLY DATA

         12 IS THE FIRST LOCATION NOT USED BY THIS PROGRAM

0REFERENCES TO DEFINED SYMBOLS
       1201     A1     6,   12
       1202     A2    11,   12
       1203     A3     7,   12
       2204     B4    10,   12
       1321   READ     4,   12
       1361  PRINT     2,   12
       1341  PUNCH     3,   12
          5  (IOU)     0,   12
          4 NTAPES     5,   12

0 NO ERROR IN ABOVE ASSEMBLY.


   ERR   BCD 05/15/71 1242.8    1938         00000
1       ERR - ERROR PROCESSOR FOR THE DISK EDITOR                                05/15/71 1239.9 PAGE 1

                              *      IF CALLED BY MAD USE
                              *              ERR.( COM...COM(N), B, C )
                              *      WHERE COM IS THE COMMENT TO BE NPRINTED AND AND B AND C ARE AS BE
                              *
                                             THE CODES WITHIN THE STR ARE
                                             A- THE ADDRESS OF A PZE FIRST,,LAST
                                                THAT IS TO BE USED FOR NPRINTING
                                             B- A CODE THAT CONTROLS ACTION
                                                BIT 18 ON, NPRINT COMMENT ON-LINE
                                                BIT 19 ON, NPRINT COMMENT OFF-LINE
                                                BIT 20 ON, TRANSFER TO LOCATION C
                                             C- LOCATION TO RETURN TO IF BIT 20 ON
                                             IF C IS NOT USED THEN RETURN IS MADE TO THE
                                             LOCATION SPECIFIED AT 1,4 IN THE CALL TO ERR.
                              *******        THIS ROUTINE MAY HAVE A BUG WHEN CALLED VIA THE STR

                       00010         ENTRY   ERR
                       00152         ENTRY   LDITRA
                                     EXTERN  PRINT,NPRINT,SPRDOC


        TRANSFER VECTOR

  BINARY CARD NO. ERR00000
      00000  475131456360     PRINT
      00001  454751314563     NPRINT
      00002  624751244623     SPRDOC
      00003  626344215127     STMARG
      00004  665166213163     WRWAIT
      00005  475145632551     PRNTER

        LINKAGE DIRECTOR
      00006  000000000000
      00007  255151606060

      00010  0604 00 0 00157  ERR    STI     ERRSI
      00011  0634 00 4 00146         SXA     ERRX4,4
      00012  0634 00 2 00147         SXA     ERRX2,2
      00013  0634 00 1 00150         SXA     ERRX1,1
      00014  0602 00 0 00160         SLW     ERRAC
      00015  0771 00 0 00002         ARS     2
      00016  0601 00 0 00161         STO     ERRSQ
      00017 -0600 00 0 00162         STQ     ERRMQ
      00020 -0500 00 4 00001         CAL     1,4
      00021  0602 00 0 00165         SLW     TEMP1
      00022 -0500 00 0 00021         CAL     *-1
      00023  0621 00 0 00164         STA     TEMP
      00024 -0500 60 4 00002         CAL*    2,4
      00025  0767 00 0 00017         ALS     15
      00026  0625 00 0 00164         STT     TEMP
      00027 -0500 00 4 00003         CAL     3,4
      00030  0767 00 0 00022         ALS     18
      00031  0622 00 0 00164         STD     TEMP
      00032 -0500 00 0 00164         CAL     TEMP
      00033  1 77777 4 00034         TXI     ERR0A,4,-1    ADJUST INDEX FOR ERROR LOCATION
                                                           CPU SAVED
1       ERR - ERROR PROCESSOR FOR THE DISK EDITOR                                05/15/71 1239.9 PAGE 2

      00034  0044 00 0 00000  ERR0A  PAI
      00035  0621 00 0 00052         STA     ERR1
      00036  0771 00 0 00022         ARS     18
      00037  0621 00 0 00151         STA     ERRSX
      00040  0756 00 4 00000         PCA     ,4
      00041  0402 00 0 00224         SUB     =1
      00042  0602 00 0 00166         SLW     TEMP2
      00043  0074 00 4 00002         TSX     $SPRDOC,4
      00044  3 00000 0 00166         BRN     TEMP2
      00045  0602 00 0 00172         SLW     ERRC+1
      00046  0074 00 4 00002         TSX     $SPRDOC,4
      00047  3 00000 0 77431         BRN     ERCOD
      00050  0602 00 0 00173         SLW     ERRC+2
      00051  0074 00 4 00003         TSX     $STMARG,4
      00052  3 00000 0 00000  ERR1   BRN     **
      00053 -0634 00 1 00064         SXD     ERR1A,1       IR1 CONTAINS DIRECTION ON RETURN
      00054 -0734 00 1 00000         PDX     ,1
      00055 -0774 00 2 00000         AXC     0,2
      00056 -0774 00 4 00004         AXC     4,4
      00057  0621 00 0 00060         STA     *+1
      00060 -0500 00 2 00000         CAL     **,2
      00061  0602 00 4 00171         SLW     ERRC,4
      00062 -2 00001 1 00065         TNX     *+3,1,1
      00063  1 77777 4 00064         TXI     *+1,4,-1
      00064  1 00000 2 00060  ERR1A  TXI     *-4,2,**
      00065  0500 00 0 77431         CLA     ERCOD
      00066  0774 00 2 00171         AXT     ERRC,2
      00067 -0100 00 0 00074         TNZ     *+5
      00070  0500 00 0 00170         CLA     ERRC-1
      00071  0601 00 0 00173         STO     ERRC+2
      00072  1 00003 2 00073         TXI     *+1,2,3
      00073  1 00003 4 00074         TXI     *+1,4,3
      00074  0634 00 2 00115         SXA     ERR2,2
      00075  0634 00 2 00132         SXA     ERR2A,2
      00076  1 77777 2 00077         TXI     *+1,2,-1
      00077  0634 00 2 00122         SXA     ERR89,2
      00100  0756 00 4 00000         PCA     ,4
      00101  0361 00 0 00132         ACL     ERR2A
      00102  0767 00 0 00022         ALS     18
      00103  0622 00 0 00132         STD     ERR2A         ERRC+N+1
      00104  1 77777 4 00105         TXI     *+1,4,-1
      00105 -0636 00 4 00115         SCD     ERR2,4        N
      00106  0756 00 4 00000         PCA     0,4
      00107  0621 60 0 00122         STA*    ERR89
      00110  1 77777 4 00111         TXI     *+1,4,-1
      00111 -0636 00 4 00122         SCD     ERR89,4

      00112  0056 00  400000  ERR5   RNT     400000        IS ON-LINE NPRINT REQUESTED
      00113  0020 00 0 00127         TRA     ERR3          NO
      00114  0074 00 4 00000         TSX     PRINT,4
      00115  0 00000 0 00171  ERR2   PZE     ERRC,,**
      00116  0074 00 4 00004  LDIMOD TSX     $WRWAIT,4          TRA  LDI FOR HSTLOD
      00117  3 00000 0 00226         PAR     =HSTATIS
      00120  3 00000 0 00225         PAR     =H.FILE.
      00121  3 00000 0 00223         PAR     =0
      00122  3 00000 0 00171  ERR89  PAR     ERRC,,**      ERRC-1,,N+1
1       ERR - ERROR PROCESSOR FOR THE DISK EDITOR                                05/15/71 1239.9 PAGE 3

      00123  3 00000 0 00156         PAR     MZE
      00124  3 00000 0 00156         PAR     MZE
      00125  3 00000 0 00126         PAR     *+1
      00126  0441 00 0 00164  LDI    LDI     TEMP
      00127  0056 00  200000  ERR3   RNT     200000        IS OFF-LINE NPRINT REQUESTED
      00130  0020 00 0 00133         TRA     ERR4          NO
      00131  0074 00 4 00001         TSX     NPRINT,4
      00132  3 00000 0 00171  ERR2A  BRN     ERRC,,**
      00133 -0520 00 0 77431  ERR4   NZT     ERCOD
      00134  0020 00 0 00137         TRA     *+3
      00135  0074 00 4 00005         TSX     $PRNTER,4
      00136  0560 00 0 00161         LDQ     ERRSQ
      00137 -0500 00 0 00137         CAL     *
      00140  0763 00 0 00001         LLS     1
      00141  0767 00 0 00044         ALS     36
      00142 -0501 00 0 00160         ORA     ERRAC
      00143  0560 00 0 00162         LDQ     ERRMQ
      00144  0441 00 0 00157         LDI     ERRSI
      00145  0600 00 0 77431         STZ     ERCOD
      00146  0774 00 4 00000  ERRX4  AXT     **,4
      00147  0774 00 2 00000  ERRX2  AXT     **,2
      00150  0774 00 1 00000  ERRX1  AXT     **,1
      00151  0020 00 0 00000  ERRSX  TRA     **
      00152  0500 00 0 00155  LDITRA CLA     *+3
      00153  0601 00 0 00116         STO     LDIMOD
      00154  0020 00 4 00001         TRA     1,4
      00155  0020 00 0 00126         TRA     LDI
      00156 -0 00000 0 00000  MZE    MZE

      00157  0 00000 0 00000  ERRSI  PZE     0
      00160  0 00000 0 00000  ERRAC  PZE     0
      00161  0 00000 0 00000  ERRSQ  PZE     0
      00162  0 00000 0 00000  ERRMQ  PZE     0
      00163  0 00000 0 00000  FPCALL PZE     **
      00164  0 00000 0 00000  TEMP   PZE     0
      00165  0 00000 0 00000  TEMP1  PZE     **,,**
      00166  0 00000 0 00000  TEMP2  PZE
      00167  0 00000 0 00010  EIGHT  PZE     8
      00170 -377777000000            OCT     777777000000
      00171  605425515154     ERRC   BCI     4, *ERR*
      00172  606060606060
      00173  606060606060
      00174  606060606060
      00175                          BSS     22
                       77461  DUMMY  COMMON  24
                       77431  ERCOD  COMMON  1
                                     END

        LITERALS
      00223  000000000000
      00224  000000000001
      00225  332631432533
      00226  626321633162
1       ERR - ERROR PROCESSOR FOR THE DISK EDITOR                                05/15/71 1239.9 PAGE 1
                        POST PROCESSOR ASSEMBLY DATA

       77430 IS THE LAST LOCATION NOT USED BY THIS PROGRAM
        227 IS THE FIRST LOCATION NOT USED BY THIS PROGRAM

0REFERENCES TO DEFINED SYMBOLS
         10    ERR     0
        126    LDI   155
        156    MZE   123,  124
         52   ERR1    35
        115   ERR2    74,  105
        127   ERR3   113
        133   ERR4   130
        112   ERR5
        171   ERRC    45,   50,   61,   66,   70,   71,  115,  122,  132
        164   TEMP    23,   26,   31,   32,  126
      77461  DUMMY   223
        167  EIGHT
      77431  ERCOD    47,   65,  133,  145,  223
         34  ERR0A    33
         64  ERR1A    53
        132  ERR2A    75,  101,  103
        122  ERR89    77,  107,  111
        160  ERRAC    14,  142
        162  ERRMQ    17,  143
        157  ERRSI    10,  144
        161  ERRSQ    16,  136
        151  ERRSX    37
        150  ERRX1    13
        147  ERRX2    12
        146  ERRX4    11
          0  PRINT   114
        165  TEMP1    21
        166  TEMP2    42,   44
        163 FPCALL
        116 LDIMOD   153
        152 LDITRA     0
          1 NPRINT   131
          5 PRNTER   135
          2 SPRDOC    43,   46
          3 STMARG    51
          4 WRWAIT   116

0 NO ERROR IN ABOVE ASSEMBLY.


.03200   BCD 05/15/71 1242.9     310         00000
1        SIMULATE PAUSE FOR THE DISK EDITOR                                      05/15/71 1240.0 PAGE 1

                       00003         ENTRY   .03200
                                     EXTERN  PRINT

        TRANSFER VECTOR
      00000  475131456360     PRINT

        LINKAGE DIRECTOR
      00001  000000000000
      00002  330003020000

      00003  0634 00 4 00011  .03200 SXA     XT,4
      00004 -0600 00 0 00013         STQ     MQ
      00005  0074 00 4 00000         TSX     PRINT,4
      00006  0 00005 0 00014         PZE     MESS,,5
      00007  0560 00 0 00013         LDQ     MQ
      00010  0000 00 0 00011         HTR     *+1           STOP FOR THE OPERATOR
      00011  0774 00 4 00000  XT     AXT     **,4
      00012  0020 00 4 00001         TRA     1,4
      00013  0 00000 0 00000  MQ     PZE
      00014  604751256262     MESS   BCI     5, PRESS START TO CONTINUE.
      00015  606263215163
      00016  606346602346
      00017  456331456425
      00020  336060606060
                                     END
1        SIMULATE PAUSE FOR THE DISK EDITOR                                      05/15/71 1240.0 PAGE 1
                        POST PROCESSOR ASSEMBLY DATA

         21 IS THE FIRST LOCATION NOT USED BY THIS PROGRAM

0REFERENCES TO DEFINED SYMBOLS
         13     MQ     4,    7
         11     XT     3
         14   MESS     6
          0  PRINT     5
          3 . 3200     0

0 NO ERROR IN ABOVE ASSEMBLY.


 EDTIO   BCD 05/15/71 1242.9    6256         00000
1       EDTIO   - DISK EDITOR I/O ROUTINES                                       05/15/71 1240.1 PAGE 1

                              *      MAD-- TAPEI.(1002K)      INITIALIZE TAPE UNIT
                              *      N =  TAPE.(LOC(14)...LOC(1), RTT,EOF)
                              *      *EOF* CARDS ARE RECOGNIZED AS EOF'S
                       00006         ENTRY   TAPE
                       00342         ENTRY   RUNCRY
                       00116         ENTRY   TAPEI
                       00345         ENTRY   BPUNCH
                       00310         ENTRY   BPNCHI
                       00344         ENTRY   BINEOF
                       00305         ENTRY   BINREW
                       00530         ENTRY   NPRINT
                       00507         ENTRY   PNCEOF
                       00514         ENTRY   PRNEOF
                       00526         ENTRY   DPUNCH
                       00524         ENTRY   ONLINE
                       00004         ENTRY   BSRA2
                                     INSERT  CORE
                              *      ASSEMBLY FOR I/O IN CORE A

        TRANSFER VECTOR
      00000  626344215127     STMARG
      00001  475131456360     PRINT

        LINKAGE DIRECTOR
      00002  000000000000
      00003  632147256060

      00004  0522 00 0 00104  BSRA2  XEC     RTTA
      00005  0020 00 4 00001         TRA     1,4
      00006  0634 00 4 00036  TAPE   SXA     EXIT,4
      00007  0634 00 1 00037         SXA     EXIT+1,1
      00010  0634 00 2 00040         SXA     EXIT+2,2
      00011  0774 00 2 00000  CHAN   AXT     **,2          CHANNEL SET BY TAPEI
      00012  0500 00 4 00001         CLA     1,4
      00013  0621 00 0 00066         STA     MVELP         WHERE TO MOVE DATA
      00014  0760 00 0 00006         COM                   HOW MANY TO MOVE
      00015  0734 00 1 00000         PAX     0,1           -LOC-1
      00016  0622 00 0 00017         STD     *+1           -(LOC+N-1)-1
      00017  2 00000 1 00020         TIX     *+1,1,**
      00020  1 00001 1 00021         TXI     *+1,1,1
      00021 -0636 00 1 00070         SCD     MVELP+2,1
      00022  0500 00 0 00011         CLA     CHAN
      00023  0074 00 4 00137         TSX     DELAY,4
      00024  0774 00 1 00024         AXT     20,1
      00025 -0520 00 0 00211         NZT     FIRST
      00026  0020 00 0 00046         TRA     MOVE          NOT FIRST TIME HERE
      00027  0762 00 0 00000  READ   RDS     **            READ ADDRESS SET BY TAPEI
      00030  0522 00 2 00174         XEC     A2RCH,2
      00031  0500 00 0 00301         CLA     A2CON
      00032  0601 00 2 00223         STO     ACTIVE,2
      00033  0520 00 0 00211         ZET     FIRST
      00034  0020 00 0 00046         TRA     MOVE          MOVE FIRST RECORD
      00035 -0520 00 0 00212         NZT     SWITCH
      00036  0774 00 4 00000  EXIT   AXT     **,4
      00037  0774 00 1 00000         AXT     **,1
      00040  0774 00 2 00000         AXT     **,2
1       EDTIO   - DISK EDITOR I/O ROUTINES                                       05/15/71 1240.1 PAGE 2

      00041  0500 00 0 00213         CLA     WC
      00042 -0520 00 0 00212         NZT     SWITCH
      00043  0020 00 4 00004         TRA     4,4
      00044  0600 00 0 00212         STZ     SWITCH
      00045  0020 60 4 00003         TRA*    3,4
      00046  0500 00 0 00011  MOVE   CLA     CHAN
      00047  0600 00 0 00211         STZ     FIRST
      00050  0074 00 4 00137         TSX     DELAY,4
      00051  0520 00 0 00273         ZET     EOFEOF-A2
      00052  0020 00 0 00112         TRA     EOF
      00053  0520 00 0 00300         ZET     RTTRTT-A2
      00054  0020 00 0 00072         TRA     RTT
      00055 -0500 00 0 00225         CAL     BUFF+1        CHECK FOR *EOF*
      00056  0322 00 0 01460         ERA     =H *EOF*
      00057  0100 00 0 00112         TZE     EOF
      00060  0534 00 1 00220         LXA     X-A2,1
      00061  2 00224 1 00063         TIX     *+2,1,BUFF
      00062  0774 00 1 00000         AXT     0,1
      00063  0634 00 1 00213         SXA     WC,1
      00064  0774 00 1 00000         AXT     0,1
      00065  0500 00 1 00224         CLA     BUFF,1
      00066  0601 00 1 00000  MVELP  STO     **,1
      00067  1 77777 1 00070         TXI     *+1,1,-1
      00070  3 00000 1 00065         TXH     *-3,1,**
      00071  0020 00 0 00027         TRA     READ          START NEXT RECORD
      00072 -0500 00 0 00027  RTT    CAL     READ
      00073  0600 00 0 00300         STZ     RTTRTT-A2
      00074  0322 00 0 00210         ERA     HOLD          CHANGE MODE AND READ AGAIN
      00075  0100 00 0 00101         TZE     *+4           CHANGE TO BCD
      00076  0500 00 0 00210         CLA     HOLD
      00077  0601 00 0 00027         STO     READ
      00100  0020 00 0 00103         TRA     *+3
      00101  0500 00 0 01453         CLA     =O20
      00102 -0602 00 0 00027         ORS     READ
      00103 -2 00001 1 00107         TNX     *+4,1,1      20 FAILURES
      00104  0764 00 0 00200  RTTA   BSR     **
      00105 -0625 00 0 00211         STL     FIRST
      00106  0020 00 0 00027         TRA     READ
      00107  0522 00 0 00036         XEC     EXIT          RELOAD IR4
      00110  1 00001 4 00111         TXI     *+1,4,1       SET RTT EXIT
      00111  0020 00 0 00113         TRA     IRET
      00112  0522 00 0 00036  EOF    XEC     EXIT          RELOAD IR4
      00113 -0625 00 0 00212  IRET   STL     SWITCH
      00114  0600 00 0 00273         STZ     EOFEOF-A2
      00115  0020 00 0 00027         TRA     READ
      00116  0500 60 4 00001  TAPEI  CLA*    1,4
      00117  0634 00 4 00135         SXA     TX4,4
      00120 -0501 00 0 01454         ORA     =O200
      00121 -0320 00 0 01455         ANA     =O7757
      00122  0621 00 0 00104         STA     RTTA           TAPE ADDRESS TO BSR
      00123  0621 00 0 00027         STA     READ          TAPE ADDRESS TO RDS
      00124 -0625 00 0 00211         STL     FIRST         SET FIRST TIME SWITCH
      00125  0771 00 0 00012         ARS     10             FIND CHANNEL
      00126 -0320 00 0 01452         ANA     =1
      00127  0621 00 0 00011         STA     CHAN
      00130  0074 00 4 00137         TSX     DELAY,4
1       EDTIO   - DISK EDITOR I/O ROUTINES                                       05/15/71 1240.1 PAGE 3

      00131  0500 00 0 00027         CLA     READ
      00132  0601 00 0 00210         STO     HOLD          SAVE MASK TO CHANGE MODE
      00133  0600 00 0 00273         STZ     EOFEOF-A2     CLEAR ANY OLD FLAGS
      00134  0600 00 0 00300         STZ     RTTRTT-A2
      00135  0774 00 4 00000  TX4    AXT     **,4
      00136  0020 00 4 00002         TRA     2,4
      00137  0634 00 4 00156  DELAY  SXA     DLX4,4
      00140  0634 00 2 00157         SXA     DLX2,2
      00141  0734 00 2 00000         PAX     ,2
      00142  0500 00 2 00223         CLA     ACTIVE,2
      00143  0100 00 0 00156         TZE     DLX4
      00144  0734 00 4 00000         PAX     ,4
      00145  0600 00 4 00267         STZ     ETTETT,4
      00146  0600 00 4 00301         STZ     RTTRTT,4
      00147 -0625 00 2 00177         STL     TCO,2
      00150  0522 00 2 00177         XEC     TCO,2
      00151  0522 00 2 00201         XEC     TET,2
      00152  0522 00 2 00203         XEC     TEF,2
      00153  0522 00 2 00205         XEC     TRC,2
      00154  0522 00 2 00207         XEC     SCH,2
      00155  0600 00 2 00223         STZ     ACTIVE,2
      00156  0774 00 4 00000  DLX4   AXT     **,4
      00157  0774 00 2 00000  DLX2   AXT     **,2
      00160  0020 00 4 00001         TRA     1,4
                              *
      00161 -0760 00 0 01000  ETTA   ETTA
      00162 -0625 00 4 00267         STL     ETTETT,4
      00163  0020 00 0 00152         TRA     DLX4-4
      00164 -0760 00 0 02000  ETTB   ETTB
      00165 -0625 00 4 00267         STL     ETTETT,4
      00166  0020 00 0 00152         TRA     DLX4-4
      00167 -0625 00 4 00274  SETEOF STL     EOFEOF,4
      00170  0020 00 0 00153         TRA     DLX4-3
      00171 -0625 00 4 00301  SETRTT STL     RTTRTT,4
      00172  0020 00 0 00154         TRA     DLX4-2
                              *
                              *
      00173 -0540 00 0 00175         RCHB    A2IO
      00174  0540 00 0 00175  A2RCH  RCHA    A2IO
      00175  3 00036 0 00224  A2IO   IORT    BUFF,,30
      00176  0061 00 0 00000         TCOB    **
      00177  0060 00 0 00000  TCO    TCOA    **
      00200  0020 00 0 00164         TRA     ETTB
      00201  0020 00 0 00161  TET    TRA     ETTA
      00202 -0030 00 0 00167         TEFB    SETEOF
      00203  0030 00 0 00167  TEF    TEFA    SETEOF
      00204 -0022 00 0 00171         TRCB    SETRTT
      00205  0022 00 0 00171  TRC    TRCA    SETRTT
      00206 -0640 00 4 00221         SCHB    X,4
      00207  0640 00 4 00221  SCH    SCHA    X,4
      00210  0 00000 0 00000  HOLD   PZE
      00211  0 00000 0 00000  FIRST  PZE
      00212  0 00000 0 00000  SWITCH PZE
      00213  0 00000 0 00000  WC     PZE
      00221                   X      BES     5
      00223                   ACTIVE BES     2
1       EDTIO   - DISK EDITOR I/O ROUTINES                                       05/15/71 1240.1 PAGE 4

      00223  0 00000 0 00000         PZE
      00224                   BUFF   BSS     30
      00267                   ETTETT BES     5
      00274                   EOFEOF BES     5
      00301                   RTTRTT BES     5
      00301  0 00000 0 00001  A2CON  PZE     1
                       00001  A2     EQU     1
      00302  0 00000 0 00002  B4CON  PZE     2
                       00002  B4     EQU     2
      00303  0 00000 0 00003  A3CON  PZE     3
                       00003  A3     EQU     3
                       00004  DPN    EQU     4
      00304  0 00000 0 00004  DPNCON PZE     4
                              * BPUNCH FOR BINARY PUNCHING OF B4 AND CARRY TAPES
                              *
      00305  0522 00 0 00307  BINREW XEC     BPREW
      00306  0020 00 4 00001         TRA     1,4
      00307  0772 00 0 00200  BPREW  REW     **
      00310 -0500 60 4 00001  BPNCHI CAL*    1,4
      00311  0771 00 0 00012         ARS     10
      00312 -0320 00 0 01452         ANA     =1            DETERMINE CHANNEL
      00313  0621 00 0 00352         STA     CHANL
      00314  0634 00 1 00430         SXA     BPX1,1
      00315  0634 00 2 00427         SXA     BPX2,2
      00316  0634 00 4 00426         SXA     X4,4
      00317  0534 00 1 00352         LXA     CHANL,1       SET UP REGISTERS TO DELAY CHANNEL
      00320  0774 00 2 00012         AXT     10,2
      00321  0074 00 4 00137         TSX     DELAY,4       AC MUST CONTAIN CHANL
      00322 -0625 00 0 00504         STL     INITSW        SET INITSW FOR POSSIBLE RTT RETURN
      00323  0520 00 0 00277         ZET     RTTRTT-B4     CHECK FOR REDUNDANCY ON PREVIOUS WRITE
      00324  0020 00 0 00432         TRA     BPRC
      00325  0600 00 0 00504  INTRTN STZ     INITSW        RESET INITIAL SWT
      00326  0534 00 4 00426         LXA     X4,4
      00327  0534 00 1 00430         LXA     BPX1,1
      00330  0534 00 2 00427         LXA     BPX2,2
      00331  0500 60 4 00001         CLA*    1,4
      00332 -0501 00 0 01454         ORA     =O200
      00333 -0320 00 0 01456         ANA     =O7777
      00334  0621 00 0 00422         STA     BP4
      00335  0621 00 0 00342         STA     RUNCRY
      00336  0621 00 0 00366         STA     WEF
      00337  0621 00 0 00432         STA     BPRC
      00340  0621 00 0 00307         STA     BPREW
      00341  0020 00 4 00002         TRA     2,4
      00342 -0772 00 0 00200  RUNCRY RUN     **
      00343  0020 00 4 00001         TRA     1,4
      00344 -0625 00 0 00503  BINEOF STL     EOFSWT
      00345  0634 00 4 00426  BPUNCH SXA     X4,4
      00346  0500 00 4 00001         CLA     1,4
      00347  0601 00 0 01001         STO     TEMP
      00350  0634 00 2 00427         SXA     BPX2,2
      00351  0634 00 1 00430         SXA     BPX1,1
      00352  0774 00 1 00000  CHANL  AXT     **,1
      00353  0774 00 2 00012         AXT     10,2
      00354  0500 00 0 00352  BP1    CLA     CHANL
      00355  0074 00 4 00137         TSX     DELAY,4
1       EDTIO   - DISK EDITOR I/O ROUTINES                                       05/15/71 1240.1 PAGE 5

      00356  0520 00 0 00277         ZET     RTTRTT-B4
      00357  0020 00 0 00432         TRA     BPRC
      00360 -0520 00 0 00265         NZT     ETTETT-B4
      00361  0020 00 0 00364         TRA     *+3
      00362  0522 00 0 00366         XEC     WEF
      00363  0522 00 0 00342         XEC     RUNCRY
      00364  0500 00 0 00503         CLA     EOFSWT
      00365  0100 00 0 00377         TZE     PNCH
      00366  0770 00 0 00200  WEF    WEF     **
      00367  0600 00 0 00503         STZ     EOFSWT
      00370  0500 00 0 00302         CLA     B4CON
      00371  0601 00 1 00223         STO     ACTIVE,1
      00372  0500 00 0 00352         CLA     CHANL
      00373  0074 00 4 00137         TSX     DELAY,4
      00374  0600 00 0 00272         STZ     EOFEOF-B4
      00375  0600 00 0 00277         STZ     RTTRTT-B4
      00376  0020 00 0 00426         TRA     BPX2-1
      00377  0774 00 2 00034  PNCH   AXT     28,2
      00400  0600 00 2 00503         STZ     PB+28,2
      00401  2 00001 2 00400         TIX     *-1,2,1
      00402  0074 00 4 00000         TSX     $STMARG,4
      00403  3 00000 0 01001         BRN     TEMP
      00404 -0634 00 1 00416         SXD     BP3,1
      00405  0621 00 0 00414         STA     BP3A
      00406 -0734 00 1 00000         PDX     ,1
      00407 -3 00034 1 00411         TXL     *+2,1,28
      00410  0774 00 1 00034         AXT     28,1
      00411 -0634 00 1 00446         SXD     IOPB,1
      00412 -0774 00 2 00000         AXC     0,2
      00413  0774 00 4 00000         AXT     0,4
      00414  0560 00 2 00000  BP3A   LDQ     **,2
      00415 -0600 00 4 00447         STQ     PB,4
      00416  1 00000 2 00417  BP3    TXI     *+1,2,**
      00417  1 77777 4 00420         TXI     *+1,4,-1
      00420  2 00001 1 00414         TIX     BP3A,1,1
                              *
      00421  0534 00 1 00352         LXA     CHANL,1
      00422  0766 00 0 02224  BP4    WTBP
      00423  0522 00 1 00506         XEC     RCH,1
      00424  0500 00 0 00302         CLA     B4CON
      00425  0601 00 1 00223         STO     ACTIVE,1
      00426  0774 00 4 00000  X4     AXT     **,4
      00427  0774 00 2 00000  BPX2   AXT     ,2
      00430  0774 00 1 00000  BPX1   AXT     ,1
      00431  0020 00 4 00002         TRA     2,4
                              *
      00432  0764 00 0 02204  BPRC   BSRP    **
      00433 -2 00001 2 00444         TNX     BPRC1,2,1
      00434  0522 00 0 00422  BPRC2  XEC     BP4
      00435  0522 00 1 00506         XEC     RCH,1
      00436  0600 00 0 00277         STZ     RTTRTT-B4
      00437  0500 00 0 00302         CLA     B4CON
      00440  0601 00 1 00223         STO     ACTIVE,1
      00441  0520 00 0 00504         ZET     INITSW        IS THIS INITIAL CHECK
      00442  0020 00 0 00325         TRA     INTRTN        YES
      00443  0020 00 0 00354         TRA     BP1
1       EDTIO   - DISK EDITOR I/O ROUTINES                                       05/15/71 1240.1 PAGE 6

                              *
      00444  0522 00 0 00422  BPRC1  XEC     BP4
      00445  1 00023 2 00434         TXI     BPRC2,2,19     RETRY TAPE AFTER SKIPPING
                              *
      00446  0 00034 0 00447  IOPB   IOCD    PB,,28
      00447                   PB     BSS     28
      00503  0 00000 0 00000  EOFSWT PZE
      00504  0 00000 0 00000  INITSW PZE
      00505 -0540 00 0 00446         RCHB    IOPB
      00506  0540 00 0 00446  RCH    RCHA    IOPB
                              *
                              *      CALL WITH     TSX  NPRINT,4   OR DPUNCH
                              *                    BLK  FIRST,,LAST
                              *
                       01203  T      TAPENO  A3
                       02204  P      TAPENO  B4
                       00175  N      EQU     125           NPRINT BUFFER SIZE
                              *
                              ******
      00507 -0625 00 0 00503  PNCEOF STL     EOFSWT
      00510  0760 00 0 00016         LMTM
      00511  0634 00 7 00775         SXA     PX7,7
      00512  0634 00 4 00426         SXA     X4,4
      00513  0020 00 0 00560         TRA     PUCHCK-1
                              ******
      00514 -0625 00 0 00503  PRNEOF STL     EOFSWT
      00515  0634 00 4 00426         SXA     X4,4
      00516  0634 00 2 00773         SXA     PX2,2
      00517  0634 00 1 00774         SXA     PX1,1
      00520  0760 00 0 00016         LMTM
      00521  0634 00 7 00775         SXA     PX7,7
      00522  0534 00 7 00642         LXA     PACK+1,7
      00523  0020 00 0 00664         TRA     EMPTY
                              ******
      00524 -0625 00 0 00777  ONLINE STL     ONLSW         SHOW ON LINE NPRINT
      00525  0020 00 0 00531         TRA     NPRINT+1       IGNORE OTHER SWITCHES
                              ******
      00526  0600 00 0 01000  DPUNCH STZ     PRSW
      00527  0020 00 0 00531         TRA     NPRINT+1
                              ******
      00530 -0625 00 0 01000  NPRINT STL     PRSW
      00531  0634 00 4 00426         SXA     X4,4
      00532  0634 00 2 00773         SXA     PX2,2
      00533  0634 00 1 00774         SXA     PX1,1
      00534  0760 00 0 00016         LMTM
      00535  0634 00 7 00775         SXA     PX7,7
      00536 -0500 00 4 00001         CAL     1,4
      00537 -0320 00 0 01457         ANA     =O77777077777
      00540  0602 00 0 01001         SLW     TEMP
      00541  0074 00 4 00000         TSX     $STMARG,4
      00542  3 00000 0 01001         BRN     TEMP
      00543 -0634 00 1 00622         SXD     TXI,1
      00544 -0634 00 1 00651         SXD     PK3,1
      00545 -0634 00 1 00764         SXD     P4,1
      00546  0621 00 0 00760         STA     P3
      00547 -0774 00 2 00000         AXC     0,2
1       EDTIO   - DISK EDITOR I/O ROUTINES                                       05/15/71 1240.1 PAGE 7

      00550 -0734 00 1 00000         PDX     ,1
      00551 -3 00026 1 00553         TXL     *+2,1,22
      00552  0774 00 1 00026         AXT     22,1
      00553  0634 00 1 00754         SXA     P2,1          SAVE THE COUNT
      00554  0520 00 0 00777         ZET     ONLSW         IS THIS ONLINE CALL
      00555  0020 00 0 00755         TRA     P2+1          YES, GO NPRINT IT THAT WAY
      00556  0520 00 0 01000         ZET     PRSW
      00557  0020 00 0 00641         TRA     PACK
      00560  0774 00 7 00024         AXT     20,7
      00561  0500 00 0 01452  PUCHCK CLA     =1
      00562  0074 00 4 00137         TSX     DELAY,4
      00563  0520 00 0 00275         ZET     RTTRTT-DPN
      00564  0020 00 0 00630         TRA     OOPS
      00565 -0520 00 0 00263         NZT     ETTETT-DPN
      00566  0020 00 0 00572         TRA     *+4
      00567  0770 00 0 02204         WEFP
      00570  0770 00 0 02204         WEFP
      00571 -0772 00 0 02204         RUNP
      00572  0500 00 0 00503         CLA     EOFSWT
      00573  0100 00 0 00610         TZE     GOON
      00574  0770 00 0 02204         WEFP
      00575  0500 00 0 00304         CLA     DPNCON
      00576  0601 00 0 00222         STO     ACTIVE-1
      00577  0500 00 0 01452         CLA     =1
      00600  0074 00 4 00137         TSX     DELAY,4
      00601  0600 00 0 00270         STZ     EOFEOF-DPN
      00602  0600 00 0 00275         STZ     RTTRTT-DPN
      00603  0600 00 0 00263         STZ     ETTETT-DPN
      00604  0534 00 4 00426         LXA     X4,4
      00605  0534 00 7 00775         LXA     PX7,7
      00606  0600 00 0 00503         STZ     EOFSWT
      00607  0020 00 4 00001         TRA     1,4
      00610  0774 00 4 00016  GOON   AXT     14,4
      00611  0500 00 0 01461         CLA     =H
      00612  0601 00 4 01452         STO     PUBUF+14,4
      00613  2 00001 4 00612         TIX     *-1,4,1
      00614  0774 00 4 00000         AXT     0,4
      00615  0522 00 0 00760  P1     XEC     P3
      00616  0602 00 4 01434         SLW     PUBUF,4
      00617  1 77777 4 00620         TXI     *+1,4,-1
      00620 -3 77762 4 00623         TXL     P7,4,-14
      00621 -2 00001 1 00623         TNX     P7,1,1
      00622  1 00000 2 00615  TXI    TXI     P1,2,**
      00623  0766 00 0 02204  P7     WTDP
      00624 -0540 00 0 01031         RCHP    PUIO
      00625  0500 00 0 00304         CLA     DPNCON
      00626  0601 00 0 00222         STO     ACTIVE-1
      00627  0020 00 0 00772         TRA     PX
      00630  0764 00 0 02204  OOPS   BSRP
      00631 -2 00001 7 00637         TNX     OOPS1,7,1
      00632  0766 00 0 02204         WTDP
      00633 -0540 00 0 01031         RCHP    PUIO
      00634  0500 00 0 00304         CLA     DPNCON
      00635  0601 00 0 00222         STO     ACTIVE-1
      00636  0020 00 0 00561         TRA     PUCHCK
      00637  0766 00 0 02204  OOPS1  WTDP
1       EDTIO   - DISK EDITOR I/O ROUTINES                                       05/15/71 1240.1 PAGE 8

      00640  1 00023 7 00632         TXI     OOPS+2,7,19
      00641  0774 00 4 00175  PACK   AXT     N,4
      00642  0774 00 7 00001         AXT     1,7
      00643 -0634 00 1 00644         SXD     *+1,1
      00644 -3 00000 4 00664         TXL     EMPTY,4,**
      00645  0522 00 0 00760  PK1    XEC     P3
      00646  0522 00 7 01040         XEC     SLW+1,7
      00647  1 77777 4 00650         TXI     *+1,4,-1
      00650 -2 00001 1 00652         TNX     PK2,1,1
      00651  1 00000 2 00645  PK3    TXI     PK1,2,**
      00652  1 00001 4 00653  PK2    TXI     *+1,4,1
      00653 -0500 60 7 01040         CAL*    SLW+1,7
      00654  0322 00 0 01461         ERA     =H
      00655  0100 00 0 00652         TZE     *-3
      00656  1 77777 4 00657         TXI     *+1,4,-1
      00657 -0500 00 0 01032         CAL     EOR
      00660  0522 00 7 01040         XEC     SLW+1,7
      00661  1 77777 4 00662         TXI     *+1,4,-1
      00662  0634 00 4 00641         SXA     PACK,4
      00663  0020 00 0 00751         TRA     CONTIN
      00664  0634 00 6 00677  EMPTY  SXA     X6,6
      00665  0774 00 6 00024         AXT     20,6
      00666 -0754 00 0 00000         ZAC
      00667  0074 00 4 00137         TSX     DELAY,4
      00670  0520 00 0 00276         ZET     RTTRTT-A3
      00671  0020 00 0 00736         TRA     OHOH
      00672 -0520 00 0 00264         NZT     ETTETT-A3
      00673  0020 00 0 00676         TRA     *+3
      00674  0770 00 0 01203         WEFT
      00675 -0772 00 0 01203         RUNT
      00676  0535 00 4 00641  EMPRT  LAC     PACK,4
      00677  0774 00 6 00000  X6     AXT     **,6
      00700  1 00175 4 00701         TXI     *+1,4,N
      00701 -0754 00 4 00000         PXD     0,4
      00702  0100 00 0 00717         TZE     EOFF
      00703  0622 00 7 01036         STD     PRIO+1,7
      00704  0500 00 7 01036         CLA     PRIO+1,7
      00705  0601 00 0 01033         STO     IO
      00706  0766 00 0 01203         WTDT
      00707  0522 00 7 01042         XEC     RCHPRN+1,7
      00710  0500 00 0 00303         CLA     A3CON
      00711  0601 00 0 00223         STO     ACTIVE
      00712  2 00001 7 00714         TIX     *+2,7,1
      00713  1 00001 7 00714         TXI     *+1,7,1
      00714  0634 00 7 00642         SXA     PACK+1,7
      00715  0774 00 4 00175         AXT     N,4
      00716  0634 00 4 00641         SXA     PACK,4
      00717  0500 00 0 00503  EOFF   CLA     EOFSWT
      00720  0100 00 0 00645         TZE     PK1
      00721 -0754 00 0 00000         ZAC
      00722  0074 00 4 00137         TSX     DELAY,4
      00723  0600 00 0 01033         STZ     IO
      00724  0770 00 0 01203         WEFT
      00725  0500 00 0 00303         CLA     A3CON
      00726  0601 00 0 00223         STO     ACTIVE
      00727  0600 00 0 00503         STZ     EOFSWT
1       EDTIO   - DISK EDITOR I/O ROUTINES                                       05/15/71 1240.1 PAGE 9

      00730 -0754 00 0 00000         ZAC
      00731  0074 00 4 00137         TSX     DELAY,4
      00732  0600 00 0 00271         STZ     EOFEOF-A3
      00733  0600 00 0 00276         STZ     RTTRTT-A3
      00734  0600 00 0 00264         STZ     ETTETT-A3
      00735  0020 00 0 00772         TRA     PX
      00736 -0520 00 0 01033  OHOH   NZT     IO
      00737  0020 00 0 00676         TRA     EMPRT
      00740  0764 00 0 01203         BSRT
      00741 -2 00001 6 00747         TNX     OH1,6,1
      00742  0766 00 0 01203  OH2    WTDT
      00743  0540 00 0 01033         RCHT    IO
      00744  0500 00 0 00303         CLA     A3CON
      00745  0601 00 0 00223         STO     ACTIVE
      00746  0020 00 0 00666         TRA     EMPTY+2
      00747  0766 00 0 01203  OH1    WTDT
      00750  1 00023 6 00742         TXI     OH2,6,19
      00751  0520 00 0 01000  CONTIN ZET     PRSW
      00752  0760 00 0 00165         SWT     5
      00753  0020 00 0 00772         TRA     PX
      00754  0774 00 1 00000  P2     AXT     **,1
      00755 -0774 00 2 00000         AXC     0,2
      00756 -0634 00 1 00770         SXD     P5,1
      00757 -0774 00 4 00000         AXC     0,4           START BUFFER POINTER
      00760 -0500 00 2 00000  P3     CAL     **,2
      00761  0602 00 4 01002         SLW     NPB,4         STORE WORD IN BUFFER
      00762 -2 00001 1 00767         TNX     P6,1,1
      00763  1 77777 4 00764         TXI     *+1,4,-1      MOVE BUFFER POINTER
      00764  1 00000 2 00760  P4     TXI     P3,2,**
      00765 -0754 00 0 00000         ZAC
      00766  0074 00 4 00137         TSX     DELAY,4
      00767  0074 00 4 00001  P6     TSX     $PRINT,4
      00770  0 00000 0 01002  P5     PZE     NPB,,**
      00771  0600 00 0 00777         STZ     ONLSW         TURN OFF ONLINE NPRINT SWITCH
                              *
      00772  0534 00 4 00426  PX     LXA     X4,4
      00773  0774 00 2 00000  PX2    AXT     ,2
      00774  0774 00 1 00000  PX1    AXT     ,1
      00775  0774 00 7 00000  PX7    AXT     **,7
      00776  0020 00 4 00001         TRA     1,4
                              *
      00777  0 00000 0 00000  ONLSW  PZE     **
      01000  0 00000 0 00000  PRSW   PZE     **
      01001  0 00000 0 00000  TEMP   PZE     0
      01002                   NPB    BSS     23
      01031  0 00016 0 01434  PUIO   IOCD    PUBUF,,14
      01032 -206060606072     EOR    OCT     606060606072
      01033  0 00000 0 00000  IO     PZE
      01034  0 00000 0 01237         IOCD    PRBUF+N,,**
      01035  0 00000 0 01042  PRIO   IOCD    PRBUF,,**
      01036  0602 00 4 01434         SLW     PRBUF+N+N,4
      01037  0602 00 4 01237  SLW    SLW     PRBUF+N,4
      01040  0540 00 0 01034         RCHT    PRIO-1
      01041  0540 00 0 01035  RCHPRN RCHT    PRIO
      01042                   PRBUF  BSS     N+N
      01434                   PUBUF  BSS     14
1       EDTIO   - DISK EDITOR I/O ROUTINES                                       05/15/71 1240.1 PAGE 10

                                     END

        LITERALS
      01452  000000000001
      01453  000000000020
      01454  000000000200
      01455  000000007757
      01456  000000007777
      01457  077777077777
      01460  605425462654
      01461  606060606060
1       EDTIO   - DISK EDITOR I/O ROUTINES                                       05/15/71 1240.1 PAGE 1
                        POST PROCESSOR ASSEMBLY DATA

       1462 IS THE FIRST LOCATION NOT USED BY THIS PROGRAM

0REFERENCES TO DEFINED SYMBOLS
        175      N   507,  641,  700,  715, 1034, 1036, 1037, 1042
       2204      P   422,  432,  507,  567,  570,  571,  574,  623,  624,  630,  632,  633,  637
       1203      T   507,  674,  675,  706,  724,  740,  742,  743,  747, 1040, 1041
        221      X    60,  206,  207
          1     A2    51,   53,   60,   73,  114,  133,  134,  302
          3     A3   304,  670,  672,  732,  733,  734
          2     B4   303,  323,  356,  360,  374,  375,  436
       1033     IO   705,  723,  736,  743
        615     P1   622
        754     P2   553,  555
        760     P3   546,  615,  645,  764
        764     P4   545
        770     P5   756
        767     P6   762
        623     P7   620,  621
        447     PB   400,  415,  446
        772     PX   627,  735,  753
        213     WC    41,   63
        426     X4   316,  326,  345,  512,  515,  531,  604,  772
        677     X6   664
        354    BP1   443
        416    BP3   404
        422    BP4   334,  434,  444
          4    DPN   304,  563,  565,  601,  602,  603
        112    EOF    52,   57
       1032    EOR   657
       1002    NPB   761,  770
        747    OH1   741
        742    OH2   750
        645    PK1   651,  720
        652    PK2   650
        651    PK3   544
        774    PX1   517,  533
        773    PX2   516,  532
        775    PX7   511,  521,  535,  605
        506    RCH   423,  435
         72    RTT    54
        207    SCH   154
       1037    SLW   646,  653,  660
        177    TCO   147,  150
        203    TEF   152
        201    TET   151
        205    TRC   153
        135    TX4   117
        622    TXI   543
        366    WEF   336,  362
        175   A2IO   173,  174
        414   BP3A   405,  420
        432   BPRC   324,  337,  357
        430   BPX1   314,  327,  351
        427   BPX2   315,  330,  350,  376
1       EDTIO   - DISK EDITOR I/O ROUTINES                                       05/15/71 1240.1 PAGE 2
                        POST PROCESSOR ASSEMBLY DATA

        224   BUFF    55,   61,   65,  175
         11   CHAN    22,   46,  127
        157   DLX2   140
        156   DLX4   137,  143,  163,  166,  170,  172
        717   EOFF   702
        161   ETTA   201
        164   ETTB   200
         36   EXIT     6,    7,   10,  107,  112
        610   GOON   573
        210   HOLD    74,   76,  132
        446   IOPB   411,  505,  506
        113   IRET   111
         46   MOVE    26,   34
        736   OHOH   671
        630   OOPS   564,  640
        641   PACK   522,  557,  662,  676,  714,  716
        377   PNCH   365
       1035   PRIO   703,  704, 1040, 1041
       1000   PRSW   526,  530,  556,  751
       1031   PUIO   624,  633
         27   READ    71,   72,   77,  102,  106,  115,  123,  131
        104   RTTA     4,  122
          6   TAPE     0
       1001   TEMP   347,  403,  540,  542
        301  A2CON    31
        174  A2RCH    30
        303  A3CON   710,  725,  744
        302  B4CON   370,  424,  437
        444  BPRC1   433
        434  BPRC2   445
        307  BPREW   305,  340
          4  BSRA2     0
        352  CHANL   313,  317,  354,  372,  421
        137  DELAY    23,   50,  130,  321,  355,  373,  562,  600,  667,  722,  731,  766
        676  EMPRT   737
        664  EMPTY   523,  644,  746
        211  FIRST    25,   33,   47,  105,  124
         66  MVELP    13,   21
        777  ONLSW   524,  554,  771
        637  OOPS1   631
       1042  PRBUF  1034, 1035, 1036, 1037
          1  PRINT   767
       1434  PUBUF   612,  616, 1031
        116  TAPEI     0
        223 ACTIVE    32,  142,  155,  371,  425,  440,  576,  626,  635,  711,  726,  745
        344 BINEOF     0
        305 BINREW     0
        310 BPNCHI     0
        345 BPUNCH     0
        751 CONTIN   663
        304 DPNCON   575,  625,  634
        526 DPUNCH     0
        274 EOFEOF    51,  114,  133,  167,  374,  601,  732
        503 EOFSWT   344,  364,  367,  507,  514,  572,  606,  717,  727
        267 ETTETT   145,  162,  165,  360,  565,  603,  672,  734
1       EDTIO   - DISK EDITOR I/O ROUTINES                                       05/15/71 1240.1 PAGE 3
                        POST PROCESSOR ASSEMBLY DATA

        504 INITSW   322,  325,  441
        325 INTRTN   442
        530 NPRINT     0,  525,  527
        524 ONLINE     0
        507 PNCEOF     0
        514 PRNEOF     0
        561 PUCHCK   513,  636
       1041 RCHPRN   707
        301 RTTRTT    53,   73,  134,  146,  171,  323,  356,  375,  436,  563,  602,  670,  733
        342 RUNCRY     0,  335,  363
        167 SETEOF   202,  203
        171 SETRTT   204,  205
          0 STMARG   402,  541
        212 SWITCH    35,   42,   44,  113

0 NO ERROR IN ABOVE ASSEMBLY.


  FLIP   BCD 05/15/71 1242.9    4890         00000
1      FLIP               MI FLIP ROUTINE                                        05/15/71 1240.2 PAGE 1

                              *      MAY 16 1963 REVISED FOR TSS BACKGROUND                         MI
                                     INSERT  CORE
                              *      ASSEMBLY FOR I/O IN CORE A

  BINARY CARD NO. FLIP0000
                       00003         ENTRY   FLIP
                       00105         ENTRY   FLIP1
                       00110         ENTRY   PILF1
                              *      AUGUST 27,1962

        TRANSFER VECTOR

  BINARY CARD NO. FLIP0001
      00000  743146643460     (IOU)

        LINKAGE DIRECTOR
      00001  000000000000
      00002  264331476060

      00003  0604 00 0 00147   FLIP  STI     IRET
      00004  0441 00 0 00563         LDI     =O1           SET INDICATORS FOR FLIP
      00005  0500 00 0 00564         CLA     =2            SET NORMAL RETURN -
      00006  0621 00 0 00104         STA     OUT           TAPE NO. NOT SPECIFIED
      00007  0500 00 4 00002         CLA     2,4
      00010  0601 00 0 00150         STO     TAPE          TO BE USED ONLY IF TAPE IS SPECIFIED
      00011  0634 00 1 00100   F18   SXA     F11,1
      00012  0634 00 2 00101         SXA     F11+1,2
      00013  0634 00 4 00102         SXA     F11+2,4
      00014 -0500 00 0 00572         CAL     =O77777
      00015  0320 00 0 00057         ANS     F9+1          CLEAR OUT WORDS WHERE INSTRUCTIONS
      00016  0320 00 0 00060         ANS     F9+2                                                   MI
      00017  0320 00 0 00062         ANS     F9+4          ARE TO BE STORED BUT SAVE ADDRESS        MI
      00020  0320 00 0 00063         ANS     F9+5                                                   MI
      00021  0320 00 0 00202         ANS     F26+1
      00022  0320 00 0 00203         ANS     F26+2
      00023 -0500 00 0 00150         CAL     TAPE

  BINARY CARD NO. FLIP0002
      00024 -0765 00 0 00017         LGR     15
      00025  0100 00 0 00117         TZE     F3            TRANSFER IF PZE - TAPE NO. IS SPEC.
      00026  0402 00 0 00571         SUB     =O74000
      00027  0100 00 0 00117         TZE     F3            TRANSFER IF TSX - TAPE  NO. IS SPEC.
      00030 -0774 00 1 00003         AXC     3,1           TAPE UNIT NOT SPEC. - TAKE TO BE 3
      00031 -0500 00 0 00000   F4    CAL     $(IOU)        GET TAPE ADDRESS
      00032  0621 00 0 00033         STA     *+1           AND INITIALIZE FOR FLOP SUBROUTINE
      00033 -0500 00 1 00000         CAL     **,1
      00034  0400 00 0 00567         ADD     =O20
      00035  0621 00 0 00056         STA     F9
      00036  0621 00 0 00061         STA     F9+3                                                   MI
      00037  0621 00 0 00201         STA     F26
      00040  0771 00 0 00011         ARS     9
      00041  0760 00 0 00001         LBT                   CHANNEL A OR B
      00042  0020 00 0 00125         TRA     F5            CHANNEL B
      00043 -0500 00 0 00143         CAL     RCHA          CHANNEL A
      00044  0560 00 0 00145         LDQ     TCOA
      00045 -0602 00 0 00057   F15   ORS     F9+1
1      FLIP               MI FLIP ROUTINE                                        05/15/71 1240.2 PAGE 2

      00046 -0602 00 0 00062         ORS     F9+4                                                   MI
      00047 -0602 00 0 00202         ORS     F26+1

  BINARY CARD NO. FLIP0003
      00050  0131 00 0 00000         XCA
      00051 -0602 00 0 00060         ORS     F9+2                                                   MI
      00052 -0602 00 0 00063         ORS     F9+5                                                   MI
      00053 -0602 00 0 00203         ORS     F26+2
      00054  0056 00  000001         RNT     1             IS THIS FLIP
      00055  0020 00 0 00064         TRA     F10           NO. SKIP BLANK CARDS SEQUENCE
      00056  0766 00 0 00000   F9    WRS     **            YES
      00057  0 00000 0 00212         PZE     ZRO           RCHA OR RCHB
      00060  0 00000 0 00060         PZE     *             TCOA OR TCOB                             MI
      00061  0766 00 0 00000         WRS     **
      00062  0 00000 0 00212         PZE     ZRO           RCHA OR RCHB
      00063  0 00000 0 00063         PZE     *             TCOA OR TCOB                             MI
      00064  0054 00  000004   F10   RFT     4             IS THIS PILF1
      00065  0020 00 0 00130         TRA     F16           YES
      00066  0500 00 4 00001         CLA     1,4           NO. PREPARE TO WRITE OUT FOR FLIP OR FLIP1
      00067  0621 00 0 00071         STA     *+2
      00070  0774 00 1 00000         AXT     0,1
      00071  0500 00 1 00000   F7    CLA     **,1
      00072  0340 00 0 00573         CAS     =O777777777777  LOOK FOR END OF HOLLERITH
      00073  0020 00 0 00075         TRA     *+2

  BINARY CARD NO. FLIP0004
      00074  0020 00 0 00100         TRA     F11
      00075  0131 00 0 00000         XCA
      00076  0074 00 4 00151         TSX     FLOP,4
      00077  1 77777 1 00071         TXI     F7,1,-1
      00100  0774 00 1 00000   F11   AXT     **,1
      00101  0774 00 2 00000         AXT     **,2
      00102  0774 00 4 00000         AXT     **,4
      00103  0441 00 0 00147         LDI     IRET
      00104  0020 00 4 00000   OUT   TRA     **,4
      00105  0604 00 0 00147   FLIP1 STI     IRET
      00106  0441 00 0 00564         LDI     =O2           SET INDICATORS FOR FLIP1
      00107  0020 00 0 00005         TRA     FLIP+2
      00110  0604 00 0 00147   PILF1 STI     IRET
      00111  0441 00 0 00566         LDI     =O4           SET INDICATORS FOR PILF1
      00112  0500 00 0 00565         CLA     =3            SET NORMAL RETURN
      00113  0621 00 0 00104         STA     OUT
      00114  0500 00 4 00003         CLA     3,4
      00115  0601 00 0 00150         STO     TAPE          TO BE USED ONLY IF TAPE IS SPECIFIED
      00116  0020 00 0 00011         TRA     F18
      00117  0500 60 0 00150   F3    CLA*    TAPE          GET TAPE NUMBER

  BINARY CARD NO. FLIP0005
      00120 -0737 00 1 00000         PDC     0,1
      00121  0500 00 0 00104         CLA     OUT           CHANGE RETURN FOR
      00122  0400 00 0 00563         ADD     =1            TAPE SPECIFIED CASE
      00123  0621 00 0 00104         STA     OUT
      00124  0020 00 0 00031         TRA     F4
      00125 -0500 00 0 00144   F5    CAL     RCHB
      00126  0560 00 0 00146         LDQ     TCOB
      00127  0020 00 0 00045         TRA     F15
1      FLIP               MI FLIP ROUTINE                                        05/15/71 1240.2 PAGE 3

      00130  0774 00 1 00001   F16   AXT     1,1
      00131  0500 60 4 00002         CLA*    2,4
      00132  0622 00 0 00141         STD     F12
      00133  0500 00 4 00001         CLA     1,4
      00134  0400 00 0 00563         ADD     =1
      00135  0621 00 0 00136         STA     *+1
      00136  0560 00 1 00000   F13   LDQ     **,1
      00137  0074 00 4 00151         TSX     FLOP,4
      00140  1 00001 1 00141         TXI     *+1,1,1
      00141 -3 00000 1 00136   F12   TXL     F13,1,**
      00142  0020 00 0 00100         TRA     F11
      00143 +054000000000      RCHA  OCT     +054000000000

  BINARY CARD NO. FLIP0006
      00144 -054000000000      RCHB  OCT     -054000000000
      00145 +006000000000      TCOA  OCT     +006000000000
      00146 +006100000000      TCOB  OCT     +006100000000
      00147  0 00000 0 00000   IRET  PZE     0
      00150  0 00000 0 00000   TAPE  PZE     0
      00151  0634 00 2 00205   FLOP  SXA     AAA2,2
      00152  0634 00 4 00206         SXA     AAA4,4
      00153  0634 00 1 00204         SXA     AAA1,1
      00154  0774 00 4 00006         AXT 6,4
      00155  0774 00 1 00000         AXT 0,1
      00156  0774 00 2 00003   LIR2  AXT 3,2
      00157 -0763 00 0 00006         LGL     6
      00160 -0320 00 0 00570         ANA     =O77
      00161  0361 00 0 00250         ACL     DSPH
      00162  0621 00 0 00163         STA     *+1
      00163 -0500 00 0 00000         CAL     **            DISPATCH TABLE
      00164  0621 00 0 00170         STA F25
      00165 -0500 00 0 00210         CAL BORD
      00166  0602 00 1 00240         SLW IMAGE+20,1        SPACE CHARACTERS
      00167  1 00001 1 00170         TXI *+1,1,1

  BINARY CARD NO. FLIP0007
      00170 -0500 00 2 00000   F25   CAL **,2
      00171  0602 00 1 00244         SLW IMAGE+24,1
      00172  1 00001 1 00173         TXI *+1,1,1
      00173  2 00001 2 00170         TIX F25,2,1
      00174  2 00001 4 00156         TIX LIR2,4,1          BCD CHARACTER COUNT
      00175 -0500 00 0 00211         CAL     BLBITS
      00176  0602 00 0 00214         SLW IMAGE
      00177  0771 00 0 00014         ARS     12
      00200  0602 00 0 00246         SLW     IMAGE+26
      00201  0766 00 0 00000   F26   WRS **
      00202  0 00000 0 00213         PZE CPY               RCHA OR RCHB
      00203  0 00000 0 00203         PZE *                 TCOA OR TCOB
      00204  0774 00 1 00000   AAA1  AXT     **,1
      00205  0774 00 2 00000   AAA2  AXT     **,2
      00206  0774 00 4 00000   AAA4  AXT     **,4
      00207  0020 00 4 00001         TRA 1,4
      00210 +200220022002      BORD  OCT 200220022002
      00211 +000500000000     BLBITS OCT 500000000
      00212  0 00001 0 00211   ZRO   IOCD    BLBITS,,1
      00213  0 00034 0 00214  CPY    IOCD    IMAGE,,28
1      FLIP               MI FLIP ROUTINE                                        05/15/71 1240.2 PAGE 4

      00214                   IMAGE  BSS     28

  BINARY CARD NO. FLIP0008
      00250  0 00000 0 00251   DSPH  PZE *+1
      00251  0 00000 0 00354         PZE T2                0
      00252  0 00000 0 00357         PZE T3                1
      00253  0 00000 0 00362         PZE T4                2
      00254  0 00000 0 00365         PZE T5                3
      00255  0 00000 0 00370         PZE T6                4
      00256  0 00000 0 00373         PZE T7                5
      00257  0 00000 0 00376         PZE T8                6
      00260  0 00000 0 00401         PZE T9                7
      00261  0 00000 0 00404         PZE T10               8
      00262  0 00000 0 00407         PZE T11               9
      00263  0 00000 0 00522         PZE T36               ILLEGAL CHARACTER
      00264  0 00000 0 00412         PZE T12               =
      00265  0 00000 0 00415         PZE T13               -
      00266  0 00000 0 00522         PZE T36               ILLEGAL CHARACTER
      00267  0 00000 0 00522         PZE T36               ILLEGAL CHARACTER
      00270  0 00000 0 00522         PZE T36               ILLEGAL CHARACTER
      00271  0 00000 0 00420         PZE T14               +
      00272  0 00000 0 00423         PZE T15               A
      00273  0 00000 0 00426         PZE T16               B

  BINARY CARD NO. FLIP0009
      00274  0 00000 0 00431         PZE T17               C
      00275  0 00000 0 00434         PZE T18               D
      00276  0 00000 0 00437         PZE T19               E
      00277  0 00000 0 00442         PZE T20               F
      00300  0 00000 0 00445         PZE T21               G
      00301  0 00000 0 00450         PZE T22               H
      00302  0 00000 0 00453         PZE T23               I
      00303  0 00000 0 00522         PZE T36               ILLEGAL CHARACTER
      00304  0 00000 0 00456         PZE T24               .
      00305  0 00000 0 00461         PZE T25               )
      00306  0 00000 0 00522         PZE T36               ILLEGAL CHARACTER
      00307  0 00000 0 00522         PZE T36               ILLEGAL CHARACTER
      00310  0 00000 0 00522         PZE T36               ILLEGAL CHARACTER
      00311  0 00000 0 00415         PZE T13               -
      00312  0 00000 0 00464         PZE T26               J
      00313  0 00000 0 00467         PZE T27               K
      00314  0 00000 0 00472         PZE T28               L
      00315  0 00000 0 00475         PZE T29               M
      00316  0 00000 0 00500         PZE T30               N
      00317  0 00000 0 00354         PZE T2                O

  BINARY CARD NO. FLIP0010
      00320  0 00000 0 00503         PZE T31               P
      00321  0 00000 0 00506         PZE T32               Q
      00322  0 00000 0 00511         PZE T33               R
      00323  0 00000 0 00522         PZE T36               ILLEGAL CHARACTER
      00324  0 00000 0 00514         PZE T34               $
      00325  0 00000 0 00517         PZE T35               *
      00326  0 00000 0 00522         PZE T36               ILLEGAL CHARACTER
      00327  0 00000 0 00522         PZE T36               ILLEGAL CHARACTER
      00330  0 00000 0 00522         PZE T36               ILLEGAL CHARACTER
1      FLIP               MI FLIP ROUTINE                                        05/15/71 1240.2 PAGE 5

      00331  0 00000 0 00522         PZE T36               BLANK
      00332  0 00000 0 00525         PZE T37               /
      00333  0 00000 0 00530         PZE T38               S
      00334  0 00000 0 00533         PZE T39               T
      00335  0 00000 0 00536         PZE T40               U
      00336  0 00000 0 00541         PZE T41               V
      00337  0 00000 0 00544         PZE T42               W
      00340  0 00000 0 00547         PZE T43               X
      00341  0 00000 0 00552         PZE T44               Y
      00342  0 00000 0 00555         PZE T45               Z
      00343  0 00000 0 00522         PZE T36               ILLEGAL CHARACTER

  BINARY CARD NO. FLIP0011
      00344  0 00000 0 00560         PZE T46               ,
      00345  0 00000 0 00563         PZE T47               (
      00346  0 00000 0 00522         PZE     T36           ILLEGAL CHARACTER
      00347  0 00000 0 00522         PZE     T36           ILLEGAL CHARACTER
      00350  0 00000 0 00522         PZE     T36           ILLEGAL CHARACTER
                                         *************************************************************
                                         OCTAL WORDS TO PRODUCE CHARACTERS
      00351 +301224222342      T1    OCT 301224222342,301230123012,234224223012                      0
      00352 +301230123012
      00353 +234224223012
      00354 +200220022002      T2    OCT 200220022002,200237723772,200220022002                      1
      00355 +200237723772
      00356 +200220022002
      00357 +303230122412      T3    OCT 303230122412,301230523012,261230123112                      2
      00360 +301230523012
      00361 +261230123112
      00362 +311231123012      T4    OCT 311231123012,311231123112,266231123112                      3
      00363 +311231123112
      00364 +266231123112
      00365 +210221023702      T5    OCT 210221023702,210221022102,377221022102
      00366 +210221022102
      00367 +377221022102

  BINARY CARD NO. FLIP0012
      00370 +311231123712      T6    OCT 311231123712,311231123112,306231123112                      5
      00371 +311231123112
      00372 +306231123112
      00373 +211231122772      T7    OCT 211231122772,211221122112,206221122112                      6
      00374 +211221122112
      00375 +206221122112
      00376 +301230023002      T8    OCT 301230023002,310230423022,300234023202                      7
      00377 +310230423022
      00400 +300234023202
      00401 +311231122662      T9    OCT 311231122662,311231123112,266231123112                      8
      00402 +311231123112
      00403 +266231123112
      00404 +310231022602      T10   OCT 310231022602,310231023102,376231123102                      9
      00405 +310231023102
      00406 +376231123102
      00407 +224220022242      T11   OCT 224220022242,200222422002,224220022242                      =
      00410 +200222422002
      00411 +224220022242
      00412 +210220022102      T12   OCT 210220022102,200221022002,210220022102                      -
1      FLIP               MI FLIP ROUTINE                                        05/15/71 1240.2 PAGE 6

      00413 +200221022002

  BINARY CARD NO. FLIP0013
      00414 +210220022102
      00415 +210220022102      T13   OCT 210220022102,200227622002,210220022102                      +
      00416 +200227622002
      00417 +210220022102
      00420 +310231022772      T14   OCT 310231022772,310231023102,277231023102                      A
      00421 +310231023102
      00422 +277231023102
      00423 +311231123772      T15   OCT 311231123772,311231123112,266231123112                      B
      00424 +311231123112
      00425 +266231123112
      00426 +301224222342      T16   OCT 301224222342,301230123012,242230123012                      C
      00427 +301230123012
      00430 +242230123012
      00431 +301230123772      T17   OCT 301230123772,301230123012,276230123012                      D
      00432 +301230123012
      00433 +276230123012
      00434 +311231123772      T18   OCT 311231123772,311231123112,301230123012                      E
      00435 +311231123112
      00436 +301230123012
      00437 +310231023772      T19   OCT 310231023772,310231023102,300230023002                      F

  BINARY CARD NO. FLIP0014
      00440 +310231023102
      00441 +300230023002
      00442 +301224222342      T20   OCT 301224222342,301230123012,246230523052                      G
      00443 +301230123012
      00444 +246230523052
      00445 +210221023772      T21   OCT 210221023772,210221022102,377221022102                      H
      00446 +210221022102
      00447 +377221022102
      00450 +301220022002      T22   OCT 301220022002,301237723772,200220022002                      I
      00451 +301237723772
      00452 +200220022002
      00453 +200220022002      T23   OCT 200220022002,206220022062,200220022002                      .
      00454 +206220022062
      00455 +200220022002
      00456 +301220022002      T24   OCT 301220022002,200224222002,200220022342                      )
      00457 +200224222002
      00460 +200220022342
      00461 +301220122022      T25   OCT 301220122022,376230123012,300230023002                      J
      00462 +376230123012
      00463 +300230023002

  BINARY CARD NO. FLIP0015
      00464 +210220023772      T26   OCT 210220023772,200222422002,301220022422                      K
      00465 +200222422002
      00466 +301220022422
      00467 +201220123772      T27   OCT 201220123772,201220122012,201220122012                      L
      00470 +201220122012
      00471 +201220122012
      00472 +240230023772      T28   OCT 240230023772,220221022202,377230022402                      M
      00473 +220221022202
      00474 +377230022402
1      FLIP               MI FLIP ROUTINE                                        05/15/71 1240.2 PAGE 7

      00475 +240230023772      T29   OCT 240230023772,204221022202,377220122022                      N
      00476 +204221022202
      00477 +377220122022
      00500 +310231023772      T30   OCT 310231023772,310231023102,260231023102                      P
      00501 +310231023102
      00502 +260231023102
      00503 +301224222342      T31   OCT 301224222342,301230123012,235224223052                      Q
      00504 +301230123012
      00505 +235224223052
      00506 +310231023772      T32   OCT 310231023772,310231023102,261231223142                      R
      00507 +310231023102

  BINARY CARD NO. FLIP0016
      00510 +261231223142
      00511 +252225222222      T33   OCT 252225222222,252237722522,200224422522                      $
      00512 +252237722522
      00513 +200224422522
      00514 +234220022522      T34   OCT 234220022522,200221022002,252220022342                      *
      00515 +200221022002
      00516 +252220022342
      00517 +200220022002      T35   OCT 200220022002,200220022002,200220022002
      00520 +200220022002
      00521 +200220022002
      00522 +206220322012      T36   OCT 206220322012,260223022142,200230023402                      /
      00523 +260223022142
      00524 +200230023402
      00525 +311231122622      T37   OCT 311231122622,311231123112,246231123112                      S
      00526 +311231123112
      00527 +246231123112
      00530 +300230023002      T38   OCT 300230023002,300237723002,300230023002                      T
      00531 +300237723002
      00532 +300230023002
      00533 +201220123762      T39   OCT 201220123762,201220122012,376220122012                      U

  BINARY CARD NO. FLIP0017
      00534 +201220122012
      00535 +376220122012
      00536 +204222023002      T40   OCT 204222023002,200220122002,300222022042                      V
      00537 +200220122002
      00540 +300222022042
      00541 +202220123772      T41   OCT 202220123772,204221022042,377220122022                      W
      00542 +204221022042
      00543 +377220122022
      00544 +242230123012      T42   OCT 242230123012,224221022242,301230122422                      X
      00545 +224221022242
      00546 +301230122422
      00547 +220224023002      T43   OCT 220224023002,200221722002,300224022202                      Y
      00550 +200221722002
      00551 +300224022202
      00552 +305230323012      T44   OCT 305230323012,301231123012,301234123212                      Z
      00553 +301231123012
      00554 +301234123212
      00555 +201220122012      T45   OCT 201220122012,206220022062,200220022002                      ,
      00556 +206220022062
      00557 +200220022002
1      FLIP               MI FLIP ROUTINE                                        05/15/71 1240.2 PAGE 8

  BINARY CARD NO. FLIP0018
      00560 +234220022002      T46   OCT 234220022002,200224222002,200220023012                      (
      00561 +200224222002
      00562 +200220023012
                       00563   T47   SYN *
                                         *************************************************************
                                     END

        LITERALS
      00563  000000000001
      00564  000000000002
      00565  000000000003
      00566  000000000004
      00567  000000000020
      00570  000000000077
      00571  000000074000
      00572  000000077777
      00573  777777777777
1      FLIP               MI FLIP ROUTINE                                        05/15/71 1240.2 PAGE 1
                        POST PROCESSOR ASSEMBLY DATA

        574 IS THE FIRST LOCATION NOT USED BY THIS PROGRAM

0REFERENCES TO DEFINED SYMBOLS
        117     F3    25,   27
         31     F4   124
        125     F5    42
         71     F7    77
         56     F9    15,   16,   17,   20,   35,   36,   45,   46,   51,   52
        351     T1
        354     T2   251,  317
        357     T3   252
        362     T4   253
        365     T5   254
        370     T6   255
        373     T7   256
        376     T8   257
        401     T9   260
        213    CPY   202
         64    F10    55
        100    F11    11,   12,   13,   74,  142
        141    F12   132
        136    F13   141
         45    F15   127
        130    F16    65
         11    F18   116
        170    F25   164,  173
        201    F26    21,   22,   37,   47,   53
        104    OUT     6,  113,  121,  123
        404    T10   261
        407    T11   262
        412    T12   264
        415    T13   265,  311
        420    T14   271
        423    T15   272
        426    T16   273
        431    T17   274
        434    T18   275
        437    T19   276
        442    T20   277
        445    T21   300
        450    T22   301
        453    T23   302
        456    T24   304
        461    T25   305
        464    T26   312
        467    T27   313
        472    T28   314
        475    T29   315
        500    T30   316
        503    T31   320
        506    T32   321
        511    T33   322
        514    T34   324
        517    T35   325
1      FLIP               MI FLIP ROUTINE                                        05/15/71 1240.2 PAGE 2
                        POST PROCESSOR ASSEMBLY DATA

        522    T36   263,  266,  267,  270,  303,  306,  307,  310,  323,  326,  327,  330,  331,  343,  346,  347,  350
        525    T37   332
        530    T38   333
        533    T39   334
        536    T40   335
        541    T41   336
        544    T42   337
        547    T43   340
        552    T44   341
        555    T45   342
        560    T46   344
        563    T47   345,  563
        212    ZRO    57,   62
        204   AAA1   153
        205   AAA2   151
        206   AAA4   152
        210   BORD   165
        250   DSPH   161
          3   FLIP     0,  107
        151   FLOP    76,  137
        147   IRET     3,  103,  105,  110
        156   LIR2   174
        143   RCHA    43
        144   RCHB   125
        150   TAPE    10,   23,  115,  117
        145   TCOA    44
        146   TCOB   126
        105  FLIP1     0
        214  IMAGE   166,  171,  176,  200,  213
        110  PILF1     0
          0  (IOU)    31
        211 BLBITS   175,  212

0 NO ERROR IN ABOVE ASSEMBLY.


 RCARD   BCD 05/15/71 1242.9    2173         00000
1       RCARD - READ ON-LINE CONTROL CARDS                                       05/15/71 1240.3 PAGE 1
                           READ A CARD FROM ON-LINE CARD READER


  BINARY CARD NO. RDCARD00
                       00004         ENTRY   RDCARD
                                     EXTERN  PRINT,TPWAIT

                                             RDCARD..... READ ONE CARD FROM ON-LINE CARD READER
                                                           TSX RDCARD,4
                                                               BUF,,EOFRTN

                                             THIS INCREDIBLE ROUTINE WAS PIRATED FROM THE CTSS
                                             CYLINDER LOADER.  IT READS BCD CARDS
                                             FROM THE ON-LINE CARD READER.

                                                           D.R. WIDRIG  DEC. 1965

                                     INSERT  CORE          INSERT PROPER CORE DESIGNATION
                              *      ASSEMBLY FOR I/O IN CORE A


  BINARY CARD NO. RDCARD01
      00000  475131456360     PRINT
      00001  634766213163     TPWAIT


      00004  0634 00 4 00135  RDCARD SXA     X4,4
      00005  0634 00 2 00134         SXA     X2,2
      00006  0634 00 1 00133         SXA     XR1,1
      00007 -0500 00 4 00001         CAL     1,4           PICK UP ADDRESS OF CALLER'S BUFFER
      00010  0361 00 0 00347         ACL     =12           .. BUFF+12
      00011  0621 00 0 00131         STA     CTX
      00012  0074 00 4 00001         TSX     TPWAIT,4      WAIT ON CHANNEL 'A'
      00013  3 00000 0 00001         PTH     1             ..
      00014  0761 00 0 00000         NOP                   .. IGNORE TAPE CHECK
      00015  0761 00 0 00000         NOP                   .. AND EOF RETURNS
      00016  0774 00 1 00014         AXT     12,1          CLEAR BCD RECORD AREA
      00017  0600 00 1 00336         STZ     REC+12,1      ..
      00020  2 00001 1 00017         TIX     *-1,1,1       ..
      00021  0762 00 0 01321         RCDA                  READ A CARD FROM ON LINE READER
      00022  0540 00 0 00156         RCHA    CTB           ..
      00023  0074 00 4 00001         TSX     TPWAIT,4      WAIT UNTIL CARD IS READ

  BINARY CARD NO. RDCARD02
      00024  3 00000 0 00001         PTH     1             ..
      00025  0761 00 0 00000         NOP                   .. TAPE CHECK, SHOULD NEVER HAPPEN
      00026  0020 00 0 00137         TRA     EOF           .. END OF FILE RETURN

      00027  0774 00 4 00004         AXT     4,4           INITIALIZE LEFT HALF
      00030 -0774 00 2 00015  CT9    AXC     13,2
      00031  0441 00 0 00176         LDI     CTG           CLEAR SENSE IND
      00032 -0500 60 4 00172  CT10   CAL*    CTD+4,4
      00033  1 00002 2 00034         TXI     *+1,2,2
      00034 -0501 60 4 00172         ORA*    CTD+4,4
      00035  0602 00 0 00200         SLW     CTH
1       RCARD - READ ON-LINE CONTROL CARDS                                       05/15/71 1240.3 PAGE 2
                           READ A CARD FROM ON-LINE CARD READER

      00036  1 77764 2 00037         TXI     *+1,2,-12
      00037  0441 60 4 00172         LDI*    CTD+4,4
      00040  1 00002 2 00041         TXI     *+1,2,2
      00041  0444 60 4 00172         OFT*    CTD+4,4
      00042  0020 00 0 00146  CT11   TRA     ERR
      00043  0442 60 4 00172         OSI*    CTD+4,4
      00044  0604 00 0 00202         STI     CTI
      00045  1 00024 2 00046         TXI     *+1,2,20
      00046  0441 60 4 00172         LDI*    CTD+4,4
      00047  1 77760 2 00050         TXI     *+1,2,-16

  BINARY CARD NO. RDCARD03
      00050  0774 00 1 00007         AXT     7,1
      00051  0444 60 4 00172  CT12   OFT*    CTD+4,4
      00052  0020 00 0 00146  CT13   TRA     ERR
      00053  0442 60 4 00172         OSI*    CTD+4,4
      00054  1 00002 2 00055         TXI     *+1,2,2
      00055  2 00001 1 00051         TIX     CT12,1,1
      00056  0440 00 0 00200         IIS     CTH
      00057  0444 60 4 00172         OFT*    CTD+4,4
      00060  0020 00 0 00146         TRA     ERR
      00061  0442 60 4 00172         OSI*    CTD+4,4
      00062  0442 00 0 00200         OSI     CTH
      00063  1 77760 2 00064         TXI     *+1,2,-16
      00064 -0046 00 0 00000         PIA
      00065 -0320 60 4 00172         ANA*    CTD+4,4
      00066  0602 00 0 00200         SLW     CTH
      00067 -0320 00 0 00202         ANA     CTI
      00070 -0100 00 0 00146         TNZ     ERR
      00071 -0500 60 4 00172         CAL*    CTD+4,4
      00072  0043 00 0 00000         OAI
      00073  0442 00 0 00202         OSI     CTI

  BINARY CARD NO. RDCARD04
      00074 -0320 00 0 00202         ANA     CTI
      00075  0602 60 4 00172         SLW*    CTD+4,4
      00076 -0046 00 0 00000         PIA
      00077  0760 00 0 00006         COM
      00100 -0501 00 0 00200         ORA     CTH
      00101  1 77772 2 00102         TXI     *+1,2,-6
      00102  0602 60 4 00172         SLW*    CTD+4,4
      00103  0774 00 1 00006  CT20   AXT     6,1
      00104 -0500 60 4 00172         CAL*    CTD+4,4
      00105  0602 00 0 00200         SLW     CTH
      00106  0560 00 0 00200  CT21   LDQ     CTH
      00107  0634 00 1 00114         SXA     X1,1
      00110  0774 00 1 00006         AXT     6,1
      00111  0767 00 0 00005  CT22   ALS     5
      00112 -0763 00 0 00001         LGL     1
      00113  2 00001 1 00111         TIX     CT22,1,1
      00114  0774 00 1 00000  X1     AXT     **,1
      00115 -0600 00 0 00200         STQ     CTH
      00116 -0130 00 0 00000         XCL
      00117  0200 00 2 00154  PCT23  MPY     CTA-1,2
1       RCARD - READ ON-LINE CONTROL CARDS                                       05/15/71 1240.3 PAGE 3
                           READ A CARD FROM ON-LINE CARD READER

  BINARY CARD NO. RDCARD05
      00120  0763 00 0 00043         LLS     35
      00121  0361 60 4 00176         ACL*    CTE+4,4
      00122  0602 60 4 00176         SLW*    CTE+4,4
      00123  2 00001 1 00106         TIX     CT21,1,1
      00124  3 77775 2 00126  CT24   TXH     CT25,2,-3
      00125  1 00002 2 00103         TXI     CT20,2,2
      00126  2 00002 4 00030  CT25   TIX     CT9,4,2
      00127  0774 00 4 00014         AXT     12,4
      00130 -0500 00 4 00336         CAL     REC+12,4
      00131  0602 00 4 00000  CTX    SLW     **,4
      00132  2 00001 4 00130         TIX     *-2,4,1
      00133  0774 00 1 00000  XR1    AXT     **,1
      00134  0774 00 2 00000  X2     AXT     **,2
      00135  0774 00 4 00000  X4     AXT     **,4
      00136  0020 00 4 00002         TRA     2,4

      00137  0534 00 2 00134  EOF    LXA     X2,2          HERE ON EOF FROM CARD READER
      00140  0534 00 4 00135         LXA     X4,4          .. RESTORE CALLER'S IRS
      00141  0534 00 1 00133         LXA     XR1,1         ..
      00142 -0500 00 4 00001         CAL     1,4           PICK UP EOF RETURN
      00143  0771 00 0 00022         ARS     18            GET CALLER'S EOF RETURN

  BINARY CARD NO. RDCARD06
      00144  0621 00 0 00145         STA     *+1           PLANT IT
      00145  0020 00 0 00000         TRA     **            TAKE EOF RETURN

      00146  0074 00 4 00000  ERR    TSX     PRINT,4       HERE FOR ILLEGAL BCD IN CARD, PRINT ERROR
      00147  0 00011 0 00336                 CHS,,CHS1     ..
      00150  0000 00 0 00151         HTR     *+1           WAIT FOR REPLY
      00151  0534 00 4 00135         LXA     X4,4          RESTORE USER'S CONDITIONS
      00152  0534 00 2 00134         LXA     X2,2          ..
      00153  0534 00 1 00133         LXA     XR1,1         ..
      00154  0020 00 0 00004         TRA     RDCARD        READ NEXT CARD

      00155 +000000000011     CTA    OCT     11
      00156  0 00030 0 00206  CTB    IOCD    9ROWL,,24
      00157 +000000000010            OCT     10
      00160  0 00000 0 00000         PZE
      00161 +000000000007            OCT     7
      00162  0 00000 0 00000         PZE
      00163 +000000000006            OCT     6
      00164  0 00000 0 00000         PZE
      00165 +000000000005            OCT     5
      00166  0 00000 2 00205  CTD    PZE     9ROWL-1,2
      00167 +000000000004            OCT     4

  BINARY CARD NO. RDCARD07
      00170  0 00000 2 00206         PZE     9ROWL,2
      00171 +000000000003            OCT     3
      00172  0 00000 1 00330  CTE    PZE     REC+6,1
      00173 +000000000002            OCT     2
      00174  0 00000 1 00336         PZE     REC+12,1
      00175 +000000000001     CTF    OCT     1
      00176  0 00000 0 00000  CTG    PZE
1       RCARD - READ ON-LINE CONTROL CARDS                                       05/15/71 1240.3 PAGE 4
                           READ A CARD FROM ON-LINE CARD READER

      00177 +000000000012            OCT     12
      00200  0 00000 0 00000  CTH    PZE
      00201 +000000000040            OCT     40
      00202  0 00000 0 00000  CTI    PZE
      00203 +000000000020            OCT     20
      00204  0 00000 0 00000  CTJ    PZE
      00205 +000000000060            OCT     60
      00206                   9ROWL  BSS     76
      00322                   REC    BSS     12


  BINARY CARD NO. RDCARD08
      00336  602362306026     CHS    BCI     9, CSH FOUND ILLEGAL BCD CARD. PUSH START TO IGNORE CARD
                       00011  CHS1   SYN     *-CHS

                                     END

        LITERALS
      00347  000000000014
1       RCARD - READ ON-LINE CONTROL CARDS                                       05/15/71 1240.3 PAGE 1
                        POST PROCESSOR ASSEMBLY DATA

        350 IS THE FIRST LOCATION NOT USED BY THIS PROGRAM

0REFERENCES TO DEFINED SYMBOLS
        114     X1   107
        134     X2     5,  137,  152
        135     X4     4,  140,  151
        336    CHS   147,  347
         30    CT9   126
        155    CTA   117
        156    CTB    22
        166    CTD    32,   34,   37,   41,   43,   46,   51,   53,   57,   61,   65,   71,   75,  102,  104
        172    CTE   121,  122
        175    CTF
        176    CTG    31
        200    CTH    35,   56,   62,   66,  100,  105,  106,  115
        202    CTI    44,   67,   73,   74
        204    CTJ
        131    CTX    11
        137    EOF    26
        146    ERR    42,   52,   60,   70
        322    REC    17,  130,  172,  174
        133    XR1     6,  141,  153
         11   CHS1   147,  347
         32   CT10
         42   CT11
         51   CT12    55
         52   CT13
        103   CT20   125
        106   CT21   123
        111   CT22   113
        124   CT24
        126   CT25   124
        206  9ROWL   156,  166,  170
        117  PCT23
          0  PRINT   146
          4 RDCARD     0,  154
          1 TPWAIT    12,   23

0 NO ERROR IN ABOVE ASSEMBLY.


PRIVL7   BCD 05/15/71 1242.9     154         00000
1     FAP ASSEMBLY LISTING ... ... ...          FILE  PRIVL7   FAP               05/15/71 1240.8 PAGE 1

                       00002         ENTRY   PRIV

        LINKAGE DIRECTOR
      00000  000000000000
      00001  475131656060

      00002  0500 00 0 00002  PRIV   CLA     *
      00003  0020 00 4 00001         TRA     1,4
                                     END
1     FAP ASSEMBLY LISTING ... ... ...          FILE  PRIVL7   FAP               05/15/71 1240.8 PAGE 1
                        POST PROCESSOR ASSEMBLY DATA

          4 IS THE FIRST LOCATION NOT USED BY THIS PROGRAM

0REFERENCES TO DEFINED SYMBOLS
          2   PRIV     0

0 NO ERROR IN ABOVE ASSEMBLY.


PRIVLZ   BCD 05/15/71 1242.9     153         00000
1     FAP ASSEMBLY LISTING ... ... ...          FILE  PRIVLZ   FAP               05/15/71 1240.8 PAGE 1

                       00002         ENTRY   PRIV

        LINKAGE DIRECTOR
      00000  000000000000
      00001  475131656060

      00002 -0754 00 0 00000  PRIV   ZAC
      00003  0020 00 4 00001         TRA     1,4
                                     END
1     FAP ASSEMBLY LISTING ... ... ...          FILE  PRIVLZ   FAP               05/15/71 1240.8 PAGE 1
                        POST PROCESSOR ASSEMBLY DATA

          4 IS THE FIRST LOCATION NOT USED BY THIS PROGRAM

0REFERENCES TO DEFINED SYMBOLS
          2   PRIV     0

0 NO ERROR IN ABOVE ASSEMBLY.


 SETUP   BCD 05/15/71 1243.0     437         00000
1            SETUP ROUTINE FOR STAND-ALONE DISK-EDITOR                           05/15/71 1240.9 PAGE 1
                           D.R. WIDRIG  DEC. 1966


                       00004         ENTRY   .SETUP
                       00005         ENTRY   SETUP


        TRANSFER VECTOR
      00000  622563314660     SETIO
      00001  256731636060     EXIT

        LINKAGE DIRECTOR
      00002  000000000000
      00003  336225636447

                       00004  .SETUP EQU     *
      00004  0000 00 0 00005         HTR     *+1           STOP FOR OPERATOR.
      00005  0636 00 4 00014  SETUP  SCA     SX4,4         SAVE LINKAGE
      00006  0760 00 0 00016         LMTM                  7-TAG MODE FOR FILE SYSTEM
      00007  0074 00 4 00000         TSX     $SETIO,4      PREPARE FILE SYSTEM
      00010 -0 00000 0 00017         MZE     =0            ZERO AUTHNO

      00011  0500 00 0 00016         CLA     PANIC         SETUP FOR PANIC STOP
      00012  0601 00 0 00000         STO     0             ..
      00013  0601 00 0 00034         STO     28            (34)8

      00014 -0774 00 4 00000  SX4    AXC     **,4          RESTORE LINKAGE
      00015  0020 00 4 00001         TRA     1,4
1            SETUP ROUTINE FOR STAND-ALONE DISK-EDITOR                           05/15/71 1240.9 PAGE 2
                           PANIC AND EXIT ROUTINES

      00016  0021 00 0 00001  PANIC  TTR     $EXIT         HERE IN EMERGENCY

                                     END

        LITERALS
      00017  000000000000
1            SETUP ROUTINE FOR STAND-ALONE DISK-EDITOR                           05/15/71 1240.9 PAGE 1
                        POST PROCESSOR ASSEMBLY DATA

         20 IS THE FIRST LOCATION NOT USED BY THIS PROGRAM

0REFERENCES TO DEFINED SYMBOLS
         14    SX4     5
          1   EXIT    16
         16  PANIC    11
          0  SETIO     7
          5  SETUP     0
          4 .SETUP     0,    4

0 NO ERROR IN ABOVE ASSEMBLY.


SCNMF1   BCD 05/15/71 1243.0    3589         00000
1     MAD PROGRAM LISTING ... ... ...                 FILE  SCNMF1   MAD            05/15/71    1241.0
-
                  PROGRAM TO SCAN THE MFD AND RETURN USERS IN ORDER                                    LM00001
                    CROCKED FOR MININUM LENGTH SO THE STAND-ALONE                                      LM00002
                      EDITORS CAN BE LOADED VIA FMS.  04/18/68                                         LM00003
                                                                                                       LM00004
                  EXTERNAL FUNCTION (PB,PG,END)                                                   *001 LM00005
                  ENTRY TO SCNMFD.                                                                *002 LM00006
                                                                                                       LM00007
                  INSERT FILE COMDSK                                                              *003 LM00008
                 ...COMMON PACKAGE FOR DISK EDITOR -DSKEDT                                        *003 LM00001
                  PROGRAM COMMON B4SWT,PRIVIL,CARSWT,PRNSWT                                       *004 LM00002
                  PROGRAM COMMON PROB,PROG,FNAM1,FNAM2,MODE,C,ERCOD,DUM                           *005 LM00003
                  PROGRAM COMMON PROB1, PROG1, DATE,TIME,BUF                                      *006 LM00004
                  FUNCTION NAME CTLF,EXIT                                                         *007 LM00005
                  DIMENSION C(14),BUF(864)                                                        *008 LM00006
                  VECTOR VALUES ONOFRT = 7                                                        *009 LM00007
                  VECTOR VALUES ONRT = 5                                                          *010 LM00008
                  VECTOR VALUES OFRT = 3                                                          *011 LM00009
                  VECTOR VALUES ONOF = 6                                                          *012 LM00010
                  VECTOR VALUES ON = 4                                                            *013 LM00011
                  VECTOR VALUES OF = 2                                                            *014 LM00012
                  VECTOR VALUES EOFCT = 0                                                         *015 LM00013
                  VECTOR VALUES MZE = -0                                                          *016 LM00014
                  VECTOR VALUES DSKEDT = $DSKEDT$                                                 *017 LM00015
                  VECTOR VALUES FILE = $.FILE.$                                                   *018 LM00016
                  VECTOR VALUES CRYMAP = $CRYMAP$                                                 *019 LM00017
                  NORMAL MODE IS INTEGER                                                          *020 LM00018
                                                                                                       LM00009
                  WHENEVER NEWSW                                                                  *021 LM00010
                    ATTACH.(MFD,FILE,BAD)                                                         *022 LM00011
                    CLOSE.(MFD,FILE,OPNMFD)                                                       *023 LM00012
      OPNMFD        OPEN.($R$,MFD,FILE,-0,-0,BAD)                                                 *024 LM00013
                    NEWSW=0B                                                                      *025 LM00014
                    RDFILE.(MFD,FILE,0,MFDENT(6)...3,EOF,-0,NOREAD)                               *026 LM00015
                  END OF CONDITIONAL                                                              *027 LM00016
                                                                                                       LM00017
      RDMFD       RDWAIT.(MFD,FILE,0,MFDENT(6)...7,EOF,-0,NOREAD)                                 *028 LM00018
                  PB=MFDENT(6)                                                                    *029 LM00019
                  PG=MFDENT(5)                                                                    *030 LM00020
                  WHENEVER PB.V.PG.E.0.OR.PG.E.FILE, TRANSFER TO RDMFD                            *031 LM00021
                  FUNCTION RETURN 1                                                               *032 LM00022
                                                                                                       LM00023
      EOF         NEWSW=1B                                                                        *033 LM00024
                  CLOSE.(MFD,FILE,NOCLOS)                                                         *034 LM00025
                  TRANSFER TO END                                                                 *035 LM00026
                                                                                                       LM00027
      BAD         ERR.(MSG1...MSG1(2),ONOFRT,BADXIT)                                              *036 LM00028
                    VECTOR VALUES MSG1=$CAN'T PROCESS MFD$                                        *037 LM00029
      BADXIT      FUNCTION RETURN 0                                                               *038 LM00030
                                                                                                       LM00031
      NOREAD      ERR.(MSG2...MSG2(2),ONOFRT,BADXIT)                                              *039 LM00032
                    VECTOR VALUES MSG2=$ERROR READING MFD$                                        *040 LM00033
                                                                                                       LM00034
      NOCLOS      ERR.(MSG3...MSG3(2),ONOFRT,BADXIT)                                              *041 LM00035
                    VECTOR VALUES MSG3=$CAN'T CLOSE MFD$                                          *042 LM00036
                                                                                                       LM00037
                  DIMENSION MFDENT(6)                                                             *043 LM00038
                  VECTOR VALUES NEWSW=1B                                                          *044 LM00039
                  VECTOR VALUES MFD=$M.F.D.$                                                      *045 LM00040
                  VECTOR VALUES FILE=$(FILE)$                                                     *046 LM00041
                  STATEMENT LABEL END                                                             *047 LM00042
                  NORMAL MODE IS INTEGER                                                          *048 LM00043
                  BOOLEAN NEWSW                                                                   *049 LM00044
                                                                                                       LM00045
                  END OF FUNCTION                                                                 *050 LM00046
1MAD PROGRAM,TYPE NOV 1963      (ALL NUMBERS ARE OCTAL)
0TOTAL LOCATIONS   00233 TRANSFER VECTOR LENGTH  00007 PROGRAM BEGINS    00062 FIRST UNUSED COMMON/ERASABLE  75662
0 PROGRAM IS AN EXTERNAL FUNCTION.   THE FOLLOWING ARE ENTRIES
      SCNMFD 00063   0
0VARIABLE STORAGE (A=ARRAY,C=COMMON,E=ERASABLE,DIGIT=MODE)
      B4SWT  77461  C1        DUM    77430  C1        MFD    00032 A 1        NOREAD 00014   4        PRIVIL 77460  C1
      BAD    00010   4        EOFCT  00021 A 1        MODE   77451  C1        OFRT   00046 A 1        PRNSWT 77456  C1
      BADXIT 00011   4        EOF    00012   4        MSG1   00035 A 1        OF     00047 A 1        PROB1  77427  C1
      BUF    77423 AC1        ERCOD  77431  C1        MSG2   00040 A 1        ONOFRT 00050 A 1        PROB   77455  C1
      CARSWT 77457  C1        FILE   00022 A 1        MSG3   00043 A 1        ONOF   00051 A 1        PROG1  77426  C1
      CRYMAP 00017 A 1        FNAM1  77453  C1        MZE    00044 A 1        ONRT   00052 A 1        PROG   77454  C1
      C      77450 AC1        FNAM2  77452  C1        NEWSW  00045 A 2        ON     00053 A 1        RDMFD  00016   4
      DATE   77425  C1        MFDENT 00031 A 1        NOCLOS 00013   4        OPNMFD 00015   4        TIME   77424  C1
      DSKEDT 00020 A 1
0FUNCTION DICTIONARY
      ATTACH 00000   1        CLOSE  00001   1        ERR    00002   1        EXIT   00003   3        OPEN   00004   1
      RDFILE 00005   1        RDWAIT 00006   1
0ABSOLUTE CONSTANTS
 00057 +000000000007     00056 +000000000003     00061 -116060606060     00054 +000000000000     00055 +000000000001
 00060 +233000000000
0STATEMENT DICTIONARY
 00010 TXL -300173000167       00011 TXL -300175000173       00012 TXL -300162000160       00013 TXL -300205000201
 00014 TXL -300201000175       00015 TXL -300112000077       00016 TXL -300140000126
0PROGRAM
                 EXTERNAL FUNCTION (PB,PG,END)                                      001  LM00005
                 E'O SCNMFD.                                                        002  LM00006
 00062 TRA +0 02000 0 00065    00063 SXA +0 63400 2 00206    00064 TSX +0 07400 2 00206
                 I'E COMDSK                                                         003  LM00008
                 PROGRAM COMMON B4SWT,PRIVIL,CARSWT,PRNSWT                          004  LM00002
                 PROGRAM COMMON PROB,PROG,FNAM1,FNAM2,MODE,C,ERCOD,DUM              005  LM00003
                 PROGRAM COMMON PROB1, PROG1, DATE,TIME,BUF                         006  LM00004
                 FUNCTION NAME CTLF,EXIT                                            007  LM00005
                 DIMENSION C(14),BUF(864)                                           008  LM00006
                 V'S ONOFRT = 7                                                     009  LM00007
 00050     +0 00000 0 00007
                 V'S ONRT = 5                                                       010  LM00008
 00052     +0 00000 0 00005
                 V'S OFRT = 3                                                       011  LM00009
 00046     +0 00000 0 00003
                 V'S ONOF = 6                                                       012  LM00010
 00051     +0 00000 0 00006
                 V'S ON = 4                                                         013  LM00011
 00053     +0 00000 0 00004
                 V'S OF = 2                                                         014  LM00012
 00047     +0 00000 0 00002
                 V'S EOFCT = 0                                                      015  LM00013
 00021     +0 00000 0 00000
                 V'S MZE = -0                                                       016  LM00014
 00044     -0 00000 0 00000
                 V'S DSKEDT = $DSKEDT$                                              017  LM00015
 00020     +2 46242 2 52463
                 V'S FILE = $.FILE.$                                                018  LM00016
 00022     +3 32631 4 32533
                 V'S CRYMAP = $CRYMAP$                                              019  LM00017
 00017     +2 35170 4 42147
                 N'S INTEGER                                                        020  LM00018
                 W'R NEWSW                                                          021  LM00010
 00065 NZT -0 52000 0 00045    00066 TRA +0 02000 0 00126
                   ATTACH.(MFD,FILE,BAD)                                            022  LM00011
 00067 TSX +0 07400 4 00000    00070 TXH +3 00000 0 00032    00071 TXH +3 00000 0 00022    00072 TXH +3 00000 0 00010
                   CLOSE.(MFD,FILE,OPNMFD)                                          023  LM00012
 00073 TSX +0 07400 4 00001    00074 TXH +3 00000 0 00032    00075 TXH +3 00000 0 00022    00076 TXH +3 00000 0 00015
      OPNMFD       OPEN.($R$,MFD,FILE,-0,-0,BAD)                                    024  LM00013
 00077 CLS +0 50200 0 00054    00100 STO +0 60100 0 00227    00101 CLS +0 50200 0 00054    00102 STO +0 60100 0 00230
 00103 TSX +0 07400 4 00004    00104 TXH +3 00000 0 00061    00105 TXH +3 00000 0 00032    00106 TXH +3 00000 0 00022
 00107 TXH +3 00000 0 00230    00110 TXH +3 00000 0 00227    00111 TXH +3 00000 0 00010
                   NEWSW=0B                                                         025  LM00014
 00112 CLA +0 50000 0 00054    00113 STO +0 60100 0 00045
                   RDFILE.(MFD,FILE,0,MFDENT(6)...3,EOF,-0,NOREAD)                  026  LM00015
 00114 CLS +0 50200 0 00054    00115 STO +0 60100 0 00230    00116 TSX +0 07400 4 00005    00117 TXH +3 00000 0 00032
 00120 TXH +3 00000 0 00022    00121 TXH +3 00000 0 00054    00122 TIX +2 00056 0 00023    00123 TXH +3 00000 0 00012
 00124 TXH +3 00000 0 00230    00125 TXH +3 00000 0 00014
                 E'L                                                                027  LM00016
      RDMFD      RDWAIT.(MFD,FILE,0,MFDENT(6)...7,EOF,-0,NOREAD)                    028  LM00018
 00126 CLS +0 50200 0 00054    00127 STO +0 60100 0 00230    00130 TSX +0 07400 4 00006    00131 TXH +3 00000 0 00032
 00132 TXH +3 00000 0 00022    00133 TXH +3 00000 0 00054    00134 TIX +2 00057 0 00023    00135 TXH +3 00000 0 00012
 00136 TXH +3 00000 0 00230    00137 TXH +3 00000 0 00014
                 PB=MFDENT(6)                                                       029  LM00019
 00140 CLA +0 50000 0 00023    00141 STO +0 60100 0 00000
                 PG=MFDENT(5)                                                       030  LM00020
 00142 CLA +0 50000 0 00024    00143 STO +0 60100 0 00000
                 W'R PB.V.PG.E.0.OR.PG.E.FILE, T'O RDMFD                            031  LM00021
 00144 CLA +0 50000 0 00000    00145 SUB +0 40200 0 00022    00146 TZE +0 10000 0 00155    00147 CAL -0 50000 0 00000
 00150 ORA -0 50100 0 00000    00151 SLW +0 60200 0 00230    00152 CLA +0 50000 0 00230    00153 SUB +0 40200 0 00054
 00154 TNZ -0 10000 0 00156    00155 TRA +0 02000 0 00016
                 F'N 1                                                              032  LM00022
 00156 CLA +0 50000 0 00055    00157 TRA +0 02000 0 00223
      EOF        NEWSW=1B                                                           033  LM00024
 00160 CLA +0 50000 0 00055    00161 STO +0 60100 0 00045
                 CLOSE.(MFD,FILE,NOCLOS)                                            034  LM00025
 00162 TSX +0 07400 4 00001    00163 TXH +3 00000 0 00032    00164 TXH +3 00000 0 00022    00165 TXH +3 00000 0 00013
                 T'O END                                                            035  LM00026
 00166 TRA +0 02000 0 00000
      BAD        ERR.(MSG1...MSG1(2),ONOFRT,BADXIT)                                 036  LM00028
 00167 TSX +0 07400 4 00002    00170 TIX +2 00033 0 00035    00171 TXH +3 00000 0 00050    00172 TXH +3 00000 0 00011
                   V'S MSG1=$CAN'T PROCESS MFD$                                     037  LM00029
 00033     -2 26044 2 62460    00034     -0 75146 2 32562    00035     +2 32145 1 46360
      BADXIT     F'N 0                                                              038  LM00030
 00173 CLA +0 50000 0 00054    00174 TRA +0 02000 0 00223
      NOREAD     ERR.(MSG2...MSG2(2),ONOFRT,BADXIT)                                 039  LM00032
 00175 TSX +0 07400 4 00002    00176 TIX +2 00036 0 00040    00177 TXH +3 00000 0 00050    00200 TXH +3 00000 0 00011
                   V'S MSG2=$ERROR READING MFD$                                     040  LM00033
 00036     +2 76044 2 62460    00037     -1 12521 2 43145    00040     +2 55151 4 65160
      NOCLOS     ERR.(MSG3...MSG3(2),ONOFRT,BADXIT)                                 041  LM00035
 00201 TSX +0 07400 4 00002    00202 TIX +2 00041 0 00043    00203 TXH +3 00000 0 00050    00204 TXH +3 00000 0 00011
                   V'S MSG3=$CAN'T CLOSE MFD$                                       042  LM00036
 00041     -0 42624 6 06060    00042     +2 34346 6 22560    00043     +2 32145 1 46360
                 D'N MFDENT(6)                                                      043  LM00038
                 V'S NEWSW=1B                                                       044  LM00039
 00045     +0 00000 0 00001
                 V'S MFD=$M.F.D.$                                                   045  LM00040
 00032     -0 43326 3 32433
                 V'S FILE=$(FILE)$                                                  046  LM00041
 00022     -3 42631 4 32534
                 STATEMENT LABEL END                                                047  LM00042
                 N'R                                                                048  LM00043
                 BOOLEAN NEWSW                                                      049  LM00044
                 E'N                                                                050  LM00046
 00205 TSX +0 07400 4 00003    00206 TXH +3 00000 0 00000    00207 SXD -0 63400 1 00206    00210 SXA +0 63400 4 00223
 00211 CLA +0 50000 4 00001    00212 STA +0 62100 0 00141    00213 STA +0 62100 0 00147    00214 CLA +0 50000 4 00002
 00215 STA +0 62100 0 00143    00216 STA +0 62100 0 00144    00217 STA +0 62100 0 00150    00220 CLA +0 50000 4 00003
 00221 STA +0 62100 0 00166    00222 TRA +0 02000 2 00001    00223 AXT +0 77400 4 00000    00224 LXA +0 53400 2 00206
 00225 LXD -0 53400 1 00206    00226 TRA +0 02000 4 00001


CHRG.S   BCD 05/15/71 1243.0    4477         00000
1      CHRG.S   08/08/68    D.A. ANDERSON   WRITE 'DISKED TIMACC'                05/15/71 1241.1 PAGE 1
                       STAND-ALONE VERSION

                       00015         ENTRY   CHARGE        (PROB,PROG)  START CHARGING USER
                       00066         ENTRY   CHARG1        (TYPE) START CHARGING USER FOR 'TYPE'
                       00116         ENTRY   STPCH1        () STOP CHARGING USER FOR 'TYPE'
                       00137         ENTRY   STPCHG        ()   STOP CHARGING USER
                       00246         ENTRY   UPDCHG        ()   UPDATE 'DISKED TIMACC'


        TRANSFER VECTOR
      00000  276324706344     GTDYTM
      00001  475145632551     PRNTER
      00002  665166213163     WRWAIT
      00003  226426262551     BUFFER
      00004  464725456060     OPEN
      00005  234346622560     CLOSE
      00006  512466213163     RDWAIT
      00007  216363452144     ATTNAM
      00010  216363212330     ATTACH
      00011  242523234565     DECCNV
      00012  242526222360     DEFBC

        LINKAGE DIRECTOR
      00013  000000000000
      00014  233021512725

                       00001  ALONE  EQU     1             0 FOR BACKGROUND, 1 FOR STAND-ALONE


                                     EXTERN  GTDYTM
                                     EXTERN  PRNTER
                                     EXTERN  WRWAIT,BUFFER,OPEN,CLOSE,RDWAIT
                                     EXTERN  ATTNAM,ATTACH
                                     EXTERN  DECCNV,DEFBC
                                     EXTERN  DECCNV,DEFBC


 M                            CALL   MACRO   NAME,LIST
                                     TSX     NAME,4
                                     IRP     LIST
                                     PTH     LIST
                                     IRP
                              CALL   END


1      CHRG.S   08/08/68    D.A. ANDERSON   WRITE 'DISKED TIMACC'                05/15/71 1241.1 PAGE 2
                       STAND-ALONE VERSION

      00015  0634 00 4 00064  CHARGE SXA     CX4,4
      00016 -0520 00 0 00520         NZT     RMEMBR
      00017  0020 00 0 00023         TRA     *+4
      00020  0074 00 4 00116         TSX     STPCH1,4
      00021  0074 00 4 00137         TSX     STPCHG,4
      00022  0534 00 4 00064         LXA     CX4,4
      00023  0500 60 4 00001         CLA*    1,4
      00024  0560 60 4 00002         LDQ*    2,4
      00025  0774 00 4 00322         AXT     BUFL,4
      00026 -0520 00 4 01055  FNDCHG NZT     PROBN,4
      00027  0520 00 4 01056         ZET     PROGN,4
      00030  0020 00 0 00040         TRA     CHGCHK
      00031  0634 00 4 00520         SXA     RMEMBR,4
      00032  2 00016 4 00026  NOTHIS TIX     FNDCHG,4,LINLEN
      00033  0520 00 0 00520         ZET     RMEMBR
      00034  0020 00 0 00054         TRA     CHGTHS
      00035  0074 00 4 00246         TSX     UPDCHG,4
      00036  0534 00 4 00064         LXA     CX4,4
      00037  0020 00 0 00016         TRA     CHARGE+1

      00040  0340 00 4 01055  CHGCHK CAS     PROBN,4
      00041  0020 00 0 00032         TRA     NOTHIS
      00042  0020 00 0 00044         TRA     *+2
      00043  0020 00 0 00032         TRA     NOTHIS
      00044  0131 00 0 00000         XCA
      00045  0340 00 4 01056         CAS     PROGN,4
      00046  0020 00 0 00050         TRA     *+2
      00047  0020 00 0 00052         TRA     CHGTH1
      00050  0131 00 0 00000         XCA
      00051  0020 00 0 00032         TRA     NOTHIS

      00052  0634 00 4 00520  CHGTH1 SXA     RMEMBR,4
      00053  0020 00 0 00056         TRA     CHGTHS+2

      00054  0534 00 4 00520  CHGTHS LXA     RMEMBR,4
      00055 -0603 00 4 01055         DST     PROBN,4
      00056  0074 00 4 00000         TSX     GTDYTM,4
      00057 -0320 00 0 00164         ANA     RITE
      00060  0602 00 0 00521         SLW     CHGTIM
      00061  0774 00 4 00000  NCHRG  AXT     **,4
      00062  1 00001 4 00063         TXI     *+1,4,1
      00063  0634 00 4 00061         SXA     NCHRG,4
      00064  0774 00 4 00000  CX4    AXT     **,4
      00065  0020 00 4 00003         TRA     3,4
1      CHRG.S   08/08/68    D.A. ANDERSON   WRITE 'DISKED TIMACC'                05/15/71 1241.1 PAGE 3
                       STAND-ALONE VERSION

      00066  0520 00 0 00520  CHARG1 ZET     RMEMBR
      00067  0020 00 0 00072         TRA     *+3
      00070  0600 00 0 00523         STZ     TYPE
      00071  0020 00 4 00002         TRA     2,4
      00072  0634 00 4 00114         SXA     C1X4,4
      00073 -0520 00 0 00523         NZT     TYPE
      00074  0020 00 0 00077         TRA     *+3
      00075  0074 00 4 00116         TSX     STPCH1,4
      00076  0534 00 4 00114         LXA     C1X4,4
      00077 -0500 60 4 00001         CAL*    1,4
      00100  0602 00 0 00523         SLW     TYPE
      00101  0100 00 4 00002         TZE     2,4
      00102  0734 00 4 00000         PAX     ,4
      00103  1 00003 4 00104         TXI     *+1,4,3
      00104 -3 00016 4 00107         TXL     *+3,4,LINLEN
      00105  0600 00 0 00523         STZ     TYPE
      00106  0020 00 0 00114         TRA     C1X4
      00107  0400 00 0 00532         ADD     PROBN2
      00110  0621 00 0 00127         STA     STPCH
      00111  0074 00 4 00000         TSX     GTDYTM,4
      00112 -0320 00 0 00164         ANA     RITE
      00113  0602 00 0 00522         SLW     CHGTM
      00114  0774 00 4 00000  C1X4   AXT     **,4
      00115  0020 00 4 00002         TRA     2,4
1      CHRG.S   08/08/68    D.A. ANDERSON   WRITE 'DISKED TIMACC'                05/15/71 1241.1 PAGE 4
                       STAND-ALONE VERSION

      00116 -0520 00 0 00523  STPCH1 NZT     TYPE
      00117  0020 00 4 00001         TRA     1,4
      00120  0634 00 4 00135         SXA     S1X4,4
      00121  0074 00 4 00000         TSX     GTDYTM,4
      00122 -0320 00 0 00164         ANA     RITE
      00123  0402 00 0 00522         SUB     CHGTM
      00124  0120 00 0 00126         TPL     *+2
      00125  0400 00 0 00163         ADD     1DAY
      00126  0534 00 4 00520         LXA     RMEMBR,4
      00127  0400 00 4 00000  STPCH  ADD     **,4
      00130  0601 60 0 00127         STO*    STPCH
      00131  0774 00 4 00002         AXT     2,4
      00132  0634 00 4 00242         SXA     LINE,4
      00133  0074 00 4 00165         TSX     WRTIME,4
      00134  0600 00 0 00523         STZ     TYPE
      00135  0774 00 4 00000  S1X4   AXT     **,4
      00136  0020 00 4 00001         TRA     1,4
1      CHRG.S   08/08/68    D.A. ANDERSON   WRITE 'DISKED TIMACC'                05/15/71 1241.1 PAGE 5
                       STAND-ALONE VERSION

      00137 -0520 00 0 00520  STPCHG NZT     RMEMBR
      00140  0020 00 4 00001         TRA     1,4
      00141  0634 00 4 00161         SXA     SX4,4
      00142  0520 00 0 00523         ZET     TYPE
      00143  0074 00 4 00116         TSX     STPCH1,4
      00144  0074 00 4 00000         TSX     GTDYTM,4
      00145 -0320 00 0 00164         ANA     RITE
      00146  0402 00 0 00521         SUB     CHGTIM
      00147  0120 00 0 00151         TPL     *+2
      00150  0400 00 0 00163         ADD     1DAY
      00151  0044 00 0 00000         PAI
      00152  0534 00 4 00520         LXA     RMEMBR,4
      00153  0400 00 4 01057         ADD     TIMUSD,4
      00154  0601 00 4 01057         STO     TIMUSD,4
      00155  0774 00 4 00003         AXT     3,4
      00156  0634 00 4 00242         SXA     LINE,4
      00157  0074 00 4 00165         TSX     WRTIME,4
      00160  0600 00 0 00520         STZ     RMEMBR
      00161  0774 00 4 00000  SX4    AXT     **,4
      00162  0020 00 4 00001         TRA     1,4

      00163  000000250600     1DAY   VFD     36/24*60*60
      00164 +000000777777     RITE   OCT     777777
1      CHRG.S   08/08/68    D.A. ANDERSON   WRITE 'DISKED TIMACC'                05/15/71 1241.1 PAGE 6
                       STAND-ALONE VERSION

      00165  0634 00 4 00233  WRTIME SXA     TX4,4
      00166 -0130 00 0 00000         XCL
      00167 -0754 00 0 00000         ZAC
      00170  0221 00 0 01754         DVP     =3600
      00171  0602 00 0 00244         SLW     LINE+2
      00172 -0600 00 0 00243         STQ     LINE+1
      00173  0074 00 4 00012         TSX     DEFBC,4
      00174  3 00000 0 00243         PTH     LINE+1
      00175  0100 00 0 00235         TZE     WRTM1
      00176  0560 00 0 01756         LDQ     =H.00000
      00177 -0774 00 4 00000         AXC     0,4
      00200 -0765 00 0 00006         LGR     6
      00201  0100 00 0 00203         TZE     *+2
      00202  1 77772 4 00200         TXI     *-2,4,-6
      00203 -0500 00 0 01761         CAL     =H
      00204 -0763 00 4 00000         LGL     ,4
      00205 -0130 00 0 00000         XCL
      00206  0044 00 0 00000         PAI
      00207 -0600 00 0 00243  WRTM2  STQ     LINE+1
      00210  0560 00 0 00244         LDQ     LINE+2
      00211  0200 00 0 01755         MPY     =10000
      00212  0221 00 0 01754         DVP     =3600
      00213 -0600 00 0 00244         STQ     LINE+2
      00214  0074 00 4 00012         TSX     DEFBC,4
      00215  3 00000 0 00244         PTH     LINE+2
      00216  0043 00 0 00000         OAI
      00217  0604 00 0 00244         STI     LINE+2
      00220  0534 00 4 00242         LXA     LINE,4
      00221  1 00001 4 00222         TXI     *+1,4,1
      00222 -0634 00 4 00227         SXD     WRTM3,4
      00223  0074 00 4 00002         TSX     WRWAIT,4
      00224  3 00000 0 00240         PTH     STATIS
      00225  3 00000 0 00241         PTH     .FILE.
      00226  3 00000 0 01753         PTH     =0
      00227  3 00000 0 00242  WRTM3  PTH     LINE,,**
      00230  3 00000 0 00230         PTH     *
      00231  3 00000 0 01757         PTH     =-0
      00232  3 00000 0 00232         PTH     *
      00233  0774 00 4 00000  TX4    AXT     **,4
      00234  0020 00 4 00001         TRA     1,4

      00235  0560 00 0 01761  WRTM1  LDQ     =H
      00236  0441 00 0 01760         LDI     =H .0000
      00237  0020 00 0 00207         TRA     WRTM2

      00240  626321633162     STATIS BCI     1,STATIS
      00241  332631432533     .FILE. BCI     1,.FILE.
      00242 -377777000000     LINE   OCT     777777000000
      00243  605454545454            BCI     3, ******.**** TOTAL
1      CHRG.S   08/08/68    D.A. ANDERSON   WRITE 'DISKED TIMACC'                05/15/71 1241.1 PAGE 7
                       STAND-ALONE VERSION

      00246  0634 00 1 00423  UPDCHG SXA     UX1,1
      00247  0534 00 1 00061         LXA     NCHRG,1
      00250 -3 00000 1 00423         TXL     UX1,1,0
      00251  0634 00 2 00422         SXA     UX2,2
      00252  0634 00 4 00420         SXA     UX4,4
      00253  0760 00 0 00016         EAXM
      00254  0634 00 3 00421         SXA     UX3,3
      00255  0634 00 5 00417         SXA     UX5,5
      00256  0634 00 7 00416         SXA     UX7,7
      00257 -0520 00 0 00520         NZT     RMEMBR
      00260  0020 00 0 00263         TRA     *+3
      00261  0074 00 4 00116         TSX     STPCH1,4
      00262  0074 00 4 00137         TSX     STPCHG,4
      00263                          CALL    ATTNAM((ME,,2))
      00265                          CALL    ATTACH(M1416,CMFL02,IOERR)
      00271  0774 00 2 00001         AXT     1,2           SET UP RELLOC FOR WRWAIT
      00272                          CALL    OPEN(RW,DISKED,TIMACC,.120,.2,IOERR)
      00301                          CALL    BUFFER(DISKED,TIMACC(B1,,432)IOERR)

      00306                   UPDLOP CALL    RDWAIT(DISKED,TIMACC,.0(PROBN,,LINLEN)EOF,EOFCT,IOERR)
      00316 -0500 00 0 01055         CAL     PROBN
      00317  0560 00 0 01056         LDQ     PROGN
      00320  0774 00 3 00322         AXT     BUFL,3

      00321 -0340 00 3 01055  UPDLP1 LAS     PROBN,3
      00322  0020 00 0 00324         TRA     *+2
      00323  0020 00 0 00326         TRA     UPDPRG
      00324  2 00016 3 00321  UPDL1N TIX     UPDLP1,3,LINLEN
      00325  1 00016 2 00306         TXI     UPDLOP,2,LINLEN
      00326 -0130 00 0 00000  UPDPRG XCL
      00327 -0340 00 3 01056         LAS     PROGN,3
      00330  0020 00 0 00332         TRA     *+2
      00331  0020 00 0 00334         TRA     REWRIT
      00332 -0130 00 0 00000         XCL
      00333  0020 00 0 00324         TRA     UPDL1N

      00334  0774 00 7 00014  REWRIT AXT     LINLEN-2,7
      00335  0754 00 3 00000         PXA     ,3
      00336  0734 00 5 00000         PAX     ,5
      00337  1 77776 5 00340         TXI     *+1,5,-2
      00340 -0500 00 7 01073  ADD    CAL     PROBN+LINLEN,7
      00341  0602 00 0 00524         SLW     TEMP
      00342                          CALL    DECCNV(TEMP)
      00344  0400 00 5 01055         ADD     PROBN,5
      00345  1 77777 5 00346         TXI     *+1,5,-1
      00346  0601 00 0 00524         STO     TEMP
      00347                          CALL    DEFBC(TEMP)
      00351  0601 00 7 01073         STO     PROBN+LINLEN,7
      00352  2 00001 7 00340         TIX     ADD,7,1
      00353  0074 00 7 00355         TSX     RWR,7
      00354  1 00016 2 00306         TXI     UPDLOP,2,LINLEN

      00355  0634 00 7 00377  RWR    SXA     RWR7,7
      00356  0754 00 2 00000         PXA     ,2
      00357  0602 00 0 00526         SLW     RELLOC
1      CHRG.S   08/08/68    D.A. ANDERSON   WRITE 'DISKED TIMACC'                05/15/71 1241.1 PAGE 8
                       STAND-ALONE VERSION

      00360  0774 00 4 00016         AXT     LINLEN,4
      00361  0754 00 3 00000         PXA     ,3
      00362  0734 00 5 00000         PAX     ,5
      00363  0600 00 5 01055         STZ     PROBN,5
      00364  1 77777 5 00365         TXI     *+1,5,-1
      00365  2 00001 4 00363         TIX     *-2,4,1
      00366                          CALL    WRWAIT(DISKED,TIMACC,RELLOC(PROBN,,LINLEN)$
                                     ETC     WEOF,EOFCT,IOERR)
      00376 -2 00001 1 00406  BACK   TNX     EGRETS,1,1
      00377  0774 00 7 00000  RWR7   AXT     **,7
      00400  0020 00 7 00001         TRA     1,7

      00401  0774 00 3 00322  EOF    AXT     BUFL,3
      00402 -0520 00 3 01055  UPDLP2 NZT     PROBN,3
      00403  0520 00 3 01056         ZET     PROGN,3
      00404  0020 00 0 00425         TRA     APPEND
      00405  2 00016 3 00402  UPDL2N TIX     UPDLP2,3,LINLEN

      00406  0634 00 0 00061  EGRETS ZSA     NCHRG
      00407                          CALL    CLOSE(DISKED,TIMACC,IOERR)

      00413                   OUT    CALL    ATTACH(ME,ME+1)

      00416  0774 00 7 00000  UX7    AXT     **,7
      00417  0774 00 5 00000  UX5    AXT     **,5
      00420  0774 00 4 00000  UX4    AXT     **,4
      00421  0774 00 3 00000  UX3    AXT     **,3
      00422  0774 00 2 00000  UX2    AXT     **,2
      00423  0774 00 1 00000  UX1    AXT     **,1
      00424  0020 00 4 00001         TRA     1,4

      00425  0500 00 3 01055  APPEND CLA     PROBN,3
      00426  0560 00 3 01056         LDQ     PROGN,3
      00427 -0603 00 0 01055         DST     PROBN
      00430  0774 00 7 00014         AXT     LINLEN-2,7
      00431  0754 00 3 00000         PXA     ,3
      00432  0734 00 5 00000         PAX     ,5
      00433  1 77776 5 00434         TXI     *+1,5,-2
      00434 -0500 00 5 01055  MOVE   CAL     PROBN,5
      00435  1 77777 5 00436         TXI     *+1,5,-1
      00436  0602 00 0 00524         SLW     TEMP
      00437                          CALL    DEFBC(TEMP)
      00441  0601 00 7 01073         STO     PROBN+LINLEN,7
      00442  2 00001 7 00434         TIX     MOVE,7,1
      00443  0074 00 7 00355         TSX     RWR,7
      00444  1 00016 2 00405         TXI     UPDL2N,2,LINLEN

      00445 -0520 00 0 00525  ADJUST NZT     EOFCT
      00446  0020 00 3 00001         TRA     1,3
      00447  0500 00 0 00531         CLA     LINELN
      00450  0402 00 0 00525         SUB     EOFCT
      00451  0767 00 0 00022         ALS     18
      00452  0622 00 0 00457         STD     *+5
      00453                          CALL    WRWAIT(DISKED,TIMACC,.0(*,,**)*,EOFCT,IOERR)
      00463  0020 00 3 00001         TRA     1,3
1      CHRG.S   08/08/68    D.A. ANDERSON   WRITE 'DISKED TIMACC'                05/15/71 1241.1 PAGE 9
                       STAND-ALONE VERSION

      00464  0074 00 3 00445  WEOF   TSX     ADJUST,3
      00465                          CALL    WRWAIT(DISKED,TIMACC,RELLOC(PROBN,,3)BACK,EOFCT,IOERR)
      00475  0020 00 0 00376         TRA     BACK

      00476                   IOERR  CALL    PRNTER(.374)
      00500                          CALL    CLOSE(DISKED,TIMACC,*)
      00504  0634 00 0 00061         ZSA     NCHRG
      00505  0020 00 0 00413         TRA     OUT
1      CHRG.S   08/08/68    D.A. ANDERSON   WRITE 'DISKED TIMACC'                05/15/71 1241.1 PAGE 10
                       STAND-ALONE VERSION

      00506  516660606060     RW     BCI     1,RW
      00507  604401040106     M1416  BCI     1, M1416
      00510  234426430002     CMFL02 BCI     1,CMFL02
      00511  243162422524     DISKED BCI     1,DISKED
      00512  633144212323     TIMACC BCI     1,TIMACC

      00513 +000000000000     .0     OCT     0
      00514 +000000000002     .2     OCT     2
      00515 +000000000003     .3     OCT     3
      00516 +000000000120     .120   OCT     120
      00517 +000000000374     .374   OCT     374

      00520  0 00000 0 00000  RMEMBR
      00521  0 00000 0 00000  CHGTIM
      00522  0 00000 0 00000  CHGTM
      00523  0 00000 0 00000  TYPE
      00524  0 00000 0 00000  TEMP
      00525  0 00000 0 00000  EOFCT
      00526  0 00000 0 00000  RELLOC
      00527                   ME     BSS     2

                       00016  LINLEN EQU     14
      00531  0 00000 0 00016  LINELN PZE     LINLEN
      00532  0 00000 0 01057  PROBN2 PZE     PROBN+2


                       00017  N      EQU     15
                       00322  BUFL   EQU     LINLEN*N
                       00533         DUP     1,BUFL
      00533 +000000000000            OCT     0
      01055  0 00000 0 00000  PROBN  PZE
      01056  0 00000 0 00000  PROGN  PZE
      01057                   TIMUSD BSS     LINLEN-2

      01073                   B1     BSS     432

                                     END

        LITERALS
      01753  000000000000
      01754  000000007020
      01755  000000023420
      01756  330000000000
      01757  400000000000
      01760  603300000000
      01761  606060606060
1      CHRG.S   08/08/68    D.A. ANDERSON   WRITE 'DISKED TIMACC'                05/15/71 1241.1 PAGE 1
                        POST PROCESSOR ASSEMBLY DATA

       1762 IS THE FIRST LOCATION NOT USED BY THIS PROGRAM

0REFERENCES TO DEFINED SYMBOLS
         17      N   533
       1073     B1   304
        513     .0   311,  456
        514     .2   277
        515     .3
        527     ME   264,  414,  415
        506     RW   273
        340    ADD   352
         64    CX4    15,   22,   36
        401    EOF   313
        413    OUT   505
        355    RWR   353,  443
        161    SX4   141
        233    TX4   165
        423    UX1   246,  250
        422    UX2   251
        421    UX3   254
        420    UX4   252
        417    UX5   255
        416    UX7   256
        163   1DAY   125,  150
        376   BACK   472,  475
        322   BUFL    25,  320,  401,  533
        114   C1X4    72,   76,  106
        516   .120   276
        517   .374   477
        242   LINE   132,  156,  171,  172,  174,  207,  210,  213,  215,  217,  220,  227
        434   MOVE   442
          4   OPEN   272
        164   RITE    57,  112,  122,  145
        377   RWR7   355
        135   S1X4   120
        524   TEMP   341,  343,  346,  350,  436,  440
        523   TYPE    70,   73,  100,  105,  116,  134,  142
        464   WEOF   373
          1  ALONE    15
        522  CHGTM   113,  123
          5  CLOSE   407,  500
         12  DEFBC   173,  214,  347,  437
        525  EOFCT   314,  374,  445,  450,  461,  473
        476  IOERR   270,  300,  305,  315,  375,  412,  462,  474
        507  M1416   266
         61  NCHRG    63,  247,  406,  504
       1055  PROBN    26,   40,   55,  312,  316,  321,  340,  344,  351,  363,  372,  402,  425,  427,  434,  441,  471
                     532
       1056  PROGN    27,   45,  317,  327,  403,  426
        127  STPCH   110,  130
        235  WRTM1   175
        207  WRTM2   237
        227  WRTM3   222
        445 ADJUST   464
1      CHRG.S   08/08/68    D.A. ANDERSON   WRITE 'DISKED TIMACC'                05/15/71 1241.1 PAGE 2
                        POST PROCESSOR ASSEMBLY DATA

        425 APPEND   404
         10 ATTACH   265,  413
          7 ATTNAM   263
          3 BUFFER   301
         66 CHARG1     0
         15 CHARGE     0,   37
         40 CHGCHK    30
         52 CHGTH1    47
         54 CHGTHS    34,   53
        521 CHGTIM    60,  146
        510 CMFL02   267
         11 DECCNV   342
        511 DISKED   274,  302,  307,  367,  410,  454,  466,  501
        406 EGRETS   376
         26 FNDCHG    32
          0 GTDYTM    56,  111,  121,  144
        241 .FILE.   225
        531 LINELN   447
         16 LINLEN    32,  104,  312,  324,  325,  334,  340,  351,  354,  360,  372,  405,  430,  441,  444,  531,  533
                    1057
         32 NOTHIS    41,   43,   51
          1 PRNTER   476
        532 PROBN2   107
          6 RDWAIT   306
        526 RELLOC   357,  371,  470
        334 REWRIT   331
        520 RMEMBR    16,   31,   33,   52,   54,   66,  126,  137,  152,  160,  257
        240 STATIS   224
        116 STPCH1     0,   20,   75,  143,  261
        137 STPCHG     0,   21,  262
        512 TIMACC   275,  303,  310,  370,  411,  455,  467,  502
       1057 TIMUSD   153,  154
        246 UPDCHG     0,   35
        324 UPDL1N   333
        405 UPDL2N   444
        306 UPDLOP   325,  354
        321 UPDLP1   324
        402 UPDLP2   405
        326 UPDPRG   323
        165 WRTIME   133,  157
          2 WRWAIT   223,  366,  453,  465

0 NO ERROR IN ABOVE ASSEMBLY.


EXTBKG   BCD 05/15/71 1243.0     449         00000
1       M1416 3845  PETER R. BOS ..... .SETUP, EXIT FOR BACKGROUND PROGRAMS      05/15/71 1241.2 PAGE 1

                                     PCC     ON
                                     NOLNK
                       00001         ENTRY   .SETUP
                       00004         ENTRY   EXIT
                                     LBL     BKXT
                                     PCC     OFF

                                     EXTERN  PRINT


        TRANSFER VECTOR
      00000  475131456360     PRINT

      00001  0760 00 0 00016  .SETUP LMTM                  INITIAL ENTRY ROUTINE
      00002  0000 00 0 00003         HTR     *+1           PAUSE FOR OPERATOR
      00003  0020 00 4 00001         TRA     1,4           RETURN

      00004  0074 00 4 00020  EXIT   TSX     GETCOM,4      BACKGROUND COMMAND, GET NAME
      00005  3 00000 0 00000         PAR     0             ..
      00006  0602 00 0 00013         SLW     MESG          PUT INTO MESSAGE
      00007  0074 00 4 00000         TSX     PRINT,4       PRINT IT
      00010  0 00005 0 00013         PZE     MESG,,5       ..
      00011  0074 00 4 00021         TSX     DEAD,4        TERMINATE VIA SUPERVISOR
      00012  0020 00 0 00007         TRA     *-3           .. SHOULD NOT GET HERE

      00013  545454545454     MESG   BCI     5,****** FINISHED, EXIT CALLED.
      00014  602631453162
      00015  302524736025
      00016  673163602321
      00017  434325243360
      00020  0101 00 0 00023  GETCOM TIA     =HGETCOM
      00021  0101 00 0 00022  DEAD   TIA     =HDEAD

                                     END

        LITERALS
      00022  242521246060
      00023  272563234644
1       M1416 3845  PETER R. BOS ..... .SETUP, EXIT FOR BACKGROUND PROGRAMS      05/15/71 1241.2 PAGE 1
                        POST PROCESSOR ASSEMBLY DATA

         24 IS THE FIRST LOCATION NOT USED BY THIS PROGRAM

0REFERENCES TO DEFINED SYMBOLS
         21   DEAD    11
          4   EXIT     0
         13   MESG     6,   10
          0  PRINT     7
         20 GETCOM     4
          1 .SETUP     0

0 NO ERROR IN ABOVE ASSEMBLY.


SCNMFD   BCD 05/15/71 1243.0    6355         00000
1     MAD PROGRAM LISTING ... ... ...                 FILE  SCNMFD   MAD            05/15/71    1241.3
-
                 ...PROGRAM TO SCAN THE MFD FILE AND RETURN USERS IN ORDER.                            LM00001
                                                                                                       LM00002
                  EXTERNAL FUNCTION (PB, PG, END)                                                 *001 LM00003
                  ENTRY TO SCNMFD.                                                                *002 LM00004
                                                                                                       LM00005
                  INSERT FILE COMDSK                                                              *003 LM00006
                 ...COMMON PACKAGE FOR DISK EDITOR -DSKEDT                                        *003 LM00001
                  PROGRAM COMMON B4SWT,PRIVIL,CARSWT,PRNSWT                                       *004 LM00002
                  PROGRAM COMMON PROB,PROG,FNAM1,FNAM2,MODE,C,ERCOD,DUM                           *005 LM00003
                  PROGRAM COMMON PROB1, PROG1, DATE,TIME,BUF                                      *006 LM00004
                  FUNCTION NAME CTLF,EXIT                                                         *007 LM00005
                  DIMENSION C(14),BUF(864)                                                        *008 LM00006
                  VECTOR VALUES ONOFRT = 7                                                        *009 LM00007
                  VECTOR VALUES ONRT = 5                                                          *010 LM00008
                  VECTOR VALUES OFRT = 3                                                          *011 LM00009
                  VECTOR VALUES ONOF = 6                                                          *012 LM00010
                  VECTOR VALUES ON = 4                                                            *013 LM00011
                  VECTOR VALUES OF = 2                                                            *014 LM00012
                  VECTOR VALUES EOFCT = 0                                                         *015 LM00013
                  VECTOR VALUES MZE = -0                                                          *016 LM00014
                  VECTOR VALUES DSKEDT = $DSKEDT$                                                 *017 LM00015
                  VECTOR VALUES FILE = $.FILE.$                                                   *018 LM00016
                  VECTOR VALUES CRYMAP = $CRYMAP$                                                 *019 LM00017
                  NORMAL MODE IS INTEGER                                                          *020 LM00018
                  WHENEVER  NEWSW                                                                 *021 LM00007
                       ATTACH.(MFD,FILE,ER10)                                                     *022 LM00008
                        CLOSE.(MFD,FILE,OPNMFD)                                                   *023 LM00009
      OPNMFD           OPEN.( $R$, MFD, FILE, MZE,MZE,ER10,ERCOD)                                 *024 LM00010
                       NEWSW = 0B                                                                 *025 LM00011
                     EOFSWT = 0                                                                   *026 LM00012
                        EOFCT = 432                                                               *027 LM00013
                       M = 2                                                                      *028 LM00014
                     J = 432                                                                      *029 LM00015
                     K = 864                                                                      *030 LM00016
                     FLAG = 10                                                                    *031 LM00017
                     RDFILE.(MFD,FILE,0,BUFFR(J)...432,EOF1,EOFCT,ER11,ERCOD)                     *032 LM00018
                     FLAG = 15                                                                    *033 LM00019
                     RDFILE.(MFD,FILE,0,BUFFR(K)...432,EOF1,EOFCT,ER11,ERCOD)                     *034 LM00020
                     FLAG = 20                                                                    *035 LM00021
                  END OF CONDITIONAL                                                              *036 LM00022
                                                                                                       LM00023
      READMD      READBF.                                                                         *037 LM00024
                  PB = BUFFR(J-M)                                                                 *038 LM00025
                  READBF.                                                                         *039 LM00026
                  PG = BUFFR(J-M)                                                                 *040 LM00027
                  THROUGH FLIP, FOR I = 1,1, I .G. 5                                              *041 LM00028
      FLIP        READBF.                                                                         *042 LM00029
                  WHENEVER PG .E. 0 .AND. PB .E. 0, TRANSFER TO READMD                            *043 LM00030
                  WHENEVER PG .E. $(FILE)$, TRANSFER TO READMD                                    *044 LM00031
                  FUNCTION RETURN 1                                                               *045 LM00032
                                                                                                       LM00033
      EOF1        CLOSE.(MFD,FILE,ER12,ERCOD)                                                     *046 LM00034
                  EOFSWT = 77777K                                                                 *047 LM00035
                  WHENEVER FLAG .E. 10,TRANSFER TO READMD                                         *048 LM00036
                  EOFTMP = EOFCT                                                                  *049 LM00037
                  EOFCT = 432                                                                     *050 LM00038
                  WHENEVER  FLAG .E. 15,TRANSFER TO READMD                                        *051 LM00039
                  TRANSFER TO RDXT                                                                *052 LM00040
      EOF3        WHENEVER FLAG .E. 10,TRANSFER TO EOF                                            *053 LM00041
                  EOFCT = EOFTMP                                                                  *054 LM00042
                  FLAG = 10                                                                       *055 LM00043
                  TRANSFER TO RDXT                                                                *056 LM00044
      EOF         NEWSW = 1B                                                                      *057 LM00045
                  TRANSFER TO END                                                                 *058 LM00046
                                                                                                       LM00047
                 ... ERROR RETURN                                                                      LM00048
                                                                                                       LM00049
      ER10        ERR.(MSG10...MSG10(2),ONOFRT,NXTRT)                                             *059 LM00050
                       VECTOR VALUES MSG10 = $CAN'T PROCESS MFD$                                  *060 LM00051
      NXTRT       FUNCTION RETURN 0                                                               *061 LM00052
      ER11        ERR.(MSG11...MSG11(2),ONOFRT,NXTRT)                                             *062 LM00053
                       VECTOR VALUES MSG11 = $ERROR READING MFD$                                  *063 LM00054
      ER12        ERR.(MSG12...MSG12(2),ONOFRT,NXTRT)                                             *064 LM00055
                     VECTOR VALUES MSG12 = $CAN'T CLOSE M.F.D.$                                   *065 LM00056
                 ...                                                                                   LM00057
                 ....                                                                                  LM00058
                  INTERNAL FUNCTION                                                               *066 LM00059
                  ENTRY TO READBF.                                                                *067 LM00060
                  M = M+1                                                                         *068 LM00061
                  WHENEVER M .GE. EOFCT                                                           *069 LM00062
                     M = 0                                                                        *070 LM00063
                     WHENEVER K .G. 433                                                           *071 LM00064
                        K = 432                                                                   *072 LM00065
                        J = 864                                                                   *073 LM00066
                     OTHERWISE                                                                    *074 LM00067
                        K = 864                                                                   *075 LM00068
                        J  = 432                                                                  *076 LM00069
                     END OF CONDITIONAL                                                           *077 LM00070
                      WHENEVER EOFSWT .NE. 0, TRANSFER TO EOF3                                    *078 LM00071
                     RDFILE.(MFD,FILE,0,BUFFR(K)...432,EOF1,EOFCT,ER11,ERCOD)                     *079 LM00072
                  END OF CONDITIONAL                                                              *080 LM00073
      RDXT        FUNCTION RETURN                                                                 *081 LM00074
                  END OF FUNCTION                                                                 *082 LM00075
                                                                                                       LM00076
                 ...COMPILATION INFO.                                                                  LM00077
                                                                                                       LM00078
                  VECTOR VALUES NEWSW = 1B                                                        *083 LM00079
                  VECTOR VALUES EOFSWT = 0                                                        *084 LM00080
                  VECTOR VALUES FLAG = 0                                                          *085 LM00081
                  VECTOR VALUES EOFTMP = 0                                                        *086 LM00082
                  VECTOR VALUES MFD = $M.F.D.$                                                    *087 LM00083
                  VECTOR VALUES FILE = $(FILE)$                                                   *088 LM00084
                  DIMENSION BUFFR(864)                                                            *089 LM00085
                  STATEMENT LABEL END                                                             *090 LM00086
                  NORMAL MODE IS INTEGER                                                          *091 LM00087
                  BOOLEAN NEWSW                                                                   *092 LM00088
                                                                                                       LM00089
                  END OF FUNCTION                                                                 *093 LM00090
1MAD PROGRAM,TYPE NOV 1963      (ALL NUMBERS ARE OCTAL)
0TOTAL LOCATIONS   02173 TRANSFER VECTOR LENGTH  00006 PROGRAM BEGINS    01636 FIRST UNUSED COMMON/ERASABLE  75662
0 PROGRAM IS AN EXTERNAL FUNCTION.   THE FOLLOWING ARE ENTRIES
      SCNMFD 01637   0
0VARIABLE STORAGE (A=ARRAY,C=COMMON,E=ERASABLE,DIGIT=MODE)
      B4SWT  77461  C1        EOFCT  01565 A 1        FNAM1  77453  C1        MSG12  01607 A 1        OPNMFD 00017   4
      BUFFR  01562 A 1        EOF    00012   4        FNAM2  77452  C1        MZE    01610 A 1        PRIVIL 77460  C1
      BUF    77423 AC1        EOFSWT 01566 A 1        I      01572   1        NEWSW  01611 A 2        PRNSWT 77456  C1
      CARSWT 77457  C1        EOFTMP 01567 A 1        J      01573   1        NXTRT  00016   4        PROB1  77427  C1
      CRYMAP 01563 A 1        ER10   00013   4        K      01574   1        OFRT   01612 A 1        PROB   77455  C1
      C      77450 AC1        ER11   00014   4        MFD    01575 A 1        OF     01613 A 1        PROG1  77426  C1
      DATE   77425  C1        ER12   00015   4        MODE   77451  C1        ONOFRT 01614 A 1        PROG   77454  C1
      DSKEDT 01564 A 1        ERCOD  77431  C1        M      01576   1        ONOF   01615 A 1        RDXT   00020   4
      DUM    77430  C1        FILE   01570 A 1        MSG10  01601 A 1        ONRT   01616 A 1        READMD 00021   4
      EOF1   00010   4        FLAG   01571 A 1        MSG11  01604 A 1        ON     01617 A 1        TIME   77424  C1
      EOF3   00011   4        FLIP   00007   4
0FUNCTION DICTIONARY
      ATTACH 00000   1        CLOSE  00001   1        ERR    00002   1        EXIT   00003   3        OPEN   00004   1
      RDFILE 00005   1        READBF 00006   1
0ABSOLUTE CONSTANTS
 01630 +000000000661     01632 +000000077777     01635 -342631432534     01623 +000000000005     01626 +000000000024
 01625 +000000000017     01624 +000000000012     01631 +000000001540     01622 +000000000002     01627 +000000000660
 01620 +000000000000     01634 -116060606060     01621 +000000000001     01633 +233000000000
0STATEMENT DICTIONARY
 00010 TXL -302011002004       00011 TXL -302034002030       00012 TXL -302043002041       00013 TXL -302050002044
 00014 TXL -302056002052       00015 TXL -302062002056       00016 TXL -302052002050       00017 TXL -301663001653
 00020 TXL -302136002135       00021 TXL -301740001737
0PROGRAM
                 EXTERNAL FUNCTION (PB, PG, END)                                    001  LM00003
                 ENTRY TO SCNMFD.                                                   002  LM00004
 01636 TRA +0 02000 0 01641    01637 SXA +0 63400 2 02150    01640 TSX +0 07400 2 02150
                 INSERT FILE COMDSK                                                 003  LM00006
                 PROGRAM COMMON B4SWT,PRIVIL,CARSWT,PRNSWT                          004  LM00002
                 PROGRAM COMMON PROB,PROG,FNAM1,FNAM2,MODE,C,ERCOD,DUM              005  LM00003
                 PROGRAM COMMON PROB1, PROG1, DATE,TIME,BUF                         006  LM00004
                 FUNCTION NAME CTLF,EXIT                                            007  LM00005
                 DIMENSION C(14),BUF(864)                                           008  LM00006
                 V'S ONOFRT = 7                                                     009  LM00007
 01614     +0 00000 0 00007
                 V'S ONRT = 5                                                       010  LM00008
 01616     +0 00000 0 00005
                 V'S OFRT = 3                                                       011  LM00009
 01612     +0 00000 0 00003
                 V'S ONOF = 6                                                       012  LM00010
 01615     +0 00000 0 00006
                 V'S ON = 4                                                         013  LM00011
 01617     +0 00000 0 00004
                 V'S OF = 2                                                         014  LM00012
 01613     +0 00000 0 00002
                 V'S EOFCT = 0                                                      015  LM00013
 01565     +0 00000 0 00000
                 V'S MZE = -0                                                       016  LM00014
 01610     -0 00000 0 00000
                 V'S DSKEDT = $DSKEDT$                                              017  LM00015
 01564     +2 46242 2 52463
                 V'S FILE = $.FILE.$                                                018  LM00016
 01570     +3 32631 4 32533
                 V'S CRYMAP = $CRYMAP$                                              019  LM00017
 01563     +2 35170 4 42147
                 N'S INTEGER                                                        020  LM00018
                 W'R  NEWSW                                                         021  LM00007
 01641 NZT -0 52000 0 01611    01642 TRA +0 02000 0 01737
                      ATTACH.(MFD,FILE,ER10)                                        022  LM00008
 01643 TSX +0 07400 4 00000    01644 TXH +3 00000 0 01575    01645 TXH +3 00000 0 01570    01646 TXH +3 00000 0 00013
                       CLOSE.(MFD,FILE,OPNMFD)                                      023  LM00009
 01647 TSX +0 07400 4 00001    01650 TXH +3 00000 0 01575    01651 TXH +3 00000 0 01570    01652 TXH +3 00000 0 00017
      OPNMFD          OPEN.( $R$, MFD, FILE, MZE,MZE,ER10,ERCOD)                    024  LM00010
 01653 TSX +0 07400 4 00004    01654 TXH +3 00000 0 01634    01655 TXH +3 00000 0 01575    01656 TXH +3 00000 0 01570
 01657 TXH +3 00000 0 01610    01660 TXH +3 00000 0 01610    01661 TXH +3 00000 0 00013    01662 TXH +3 00000 0 77431
                      NEWSW = 0B                                                    025  LM00011
 01663 CLA +0 50000 0 01620    01664 STO +0 60100 0 01611
                    EOFSWT = 0                                                      026  LM00012
 01665 CLA +0 50000 0 01620    01666 STO +0 60100 0 01566
                       EOFCT = 432                                                  027  LM00013
 01667 CLA +0 50000 0 01627    01670 STO +0 60100 0 01565
                      M = 2                                                         028  LM00014
 01671 CLA +0 50000 0 01622    01672 STO +0 60100 0 01576
                    J = 432                                                         029  LM00015
 01673 CLA +0 50000 0 01627    01674 STO +0 60100 0 01573
                    K = 864                                                         030  LM00016
 01675 CLA +0 50000 0 01631    01676 STO +0 60100 0 01574
                    FLAG = 10                                                       031  LM00017
 01677 CLA +0 50000 0 01624    01700 STO +0 60100 0 01571
                    RDFILE.(MFD,FILE,0,BUFFR(J)...432,EOF1,EOFCT,ER11,ERCOD)        032  LM00018
 01701 CLA +0 50000 0 01573    01702 SUB +0 40200 0 01703    01703 TXH +3 00000 0 01562    01704 STA +0 62100 0 01711
 01705 TSX +0 07400 4 00005    01706 TXH +3 00000 0 01575    01707 TXH +3 00000 0 01570    01710 TXH +3 00000 0 01620
 01711 TIX +2 01627 0 00000    01712 TXH +3 00000 0 00010    01713 TXH +3 00000 0 01565    01714 TXH +3 00000 0 00014
 01715 TXH +3 00000 0 77431
                    FLAG = 15                                                       033  LM00019
 01716 CLA +0 50000 0 01625    01717 STO +0 60100 0 01571
                    RDFILE.(MFD,FILE,0,BUFFR(K)...432,EOF1,EOFCT,ER11,ERCOD)        034  LM00020
 01720 CLA +0 50000 0 01574    01721 SUB +0 40200 0 01722    01722 TXH +3 00000 0 01562    01723 STA +0 62100 0 01730
 01724 TSX +0 07400 4 00005    01725 TXH +3 00000 0 01575    01726 TXH +3 00000 0 01570    01727 TXH +3 00000 0 01620
 01730 TIX +2 01627 0 00000    01731 TXH +3 00000 0 00010    01732 TXH +3 00000 0 01565    01733 TXH +3 00000 0 00014
 01734 TXH +3 00000 0 77431
                    FLAG = 20                                                       035  LM00021
 01735 CLA +0 50000 0 01626    01736 STO +0 60100 0 01571
                 E'L                                                                036  LM00022
      READMD     READBF.                                                            037  LM00024
 01737 TSX +0 07400 4 00006
                 PB = BUFFR(J-M)                                                    038  LM00025
 01740 CLA +0 50000 0 01573    01741 SUB +0 40200 0 01576    01742 PAX +0 73400 2 00000    01743 CLA +0 50000 2 01562
 01744 STO +0 60100 0 00000
                 READBF.                                                            039  LM00026
 01745 TSX +0 07400 4 00006
                 PG = BUFFR(J-M)                                                    040  LM00027
 01746 CLA +0 50000 0 01573    01747 SUB +0 40200 0 01576    01750 PAX +0 73400 2 00000    01751 CLA +0 50000 2 01562
 01752 STO +0 60100 0 00000
                 T'H FLIP, FOR I = 1,1, I .G. 5                                     041  LM00028
 01753 CLA +0 50000 0 01621    01754 STO +0 60100 0 01572    01755 TRA +0 02000 0 01761    01756 CLA +0 50000 0 01572
 01757 ADD +0 40000 0 01621    01760 STO +0 60100 0 01572    01761 CLA +0 50000 0 01572    01762 SUB +0 40200 0 01623
 01763 TZE +0 10000 0 01765    01764 TPL +0 12000 0 01767
      FLIP       READBF.                                                            042  LM00029
 01765 TSX +0 07400 4 00006    01766 TRA +0 02000 0 01756
                 W'R PG .E. 0 .AND. PB .E. 0, T'O READMD                            043  LM00030
 01767 CLA +0 50000 0 00000    01770 SUB +0 40200 0 01620    01771 TNZ -0 10000 0 01776    01772 CLA +0 50000 0 00000
 01773 SUB +0 40200 0 01620    01774 TNZ -0 10000 0 01776    01775 TRA +0 02000 0 00021
                 W'R PG .E. $(FILE)$, T'O READMD                                    044  LM00031
 01776 CLA +0 50000 0 00000    01777 SUB +0 40200 0 01635    02000 TNZ -0 10000 0 02002    02001 TRA +0 02000 0 00021
                 F'N 1                                                              045  LM00032
 02002 CLA +0 50000 0 01621    02003 TRA +0 02000 0 02165
      EOF1       CLOSE.(MFD,FILE,ER12,ERCOD)                                        046  LM00034
 02004 TSX +0 07400 4 00001    02005 TXH +3 00000 0 01575    02006 TXH +3 00000 0 01570    02007 TXH +3 00000 0 00015
 02010 TXH +3 00000 0 77431
                 EOFSWT = 77777K                                                    047  LM00035
 02011 CLA +0 50000 0 01632    02012 STO +0 60100 0 01566
                 W'R FLAG .E. 10,T'O READMD                                         048  LM00036
 02013 CLA +0 50000 0 01571    02014 SUB +0 40200 0 01624    02015 TNZ -0 10000 0 02017    02016 TRA +0 02000 0 00021
                 EOFTMP = EOFCT                                                     049  LM00037
 02017 CLA +0 50000 0 01565    02020 STO +0 60100 0 01567
                 EOFCT = 432                                                        050  LM00038
 02021 CLA +0 50000 0 01627    02022 STO +0 60100 0 01565
                 W'R  FLAG .E. 15,T'O READMD                                        051  LM00039
 02023 CLA +0 50000 0 01571    02024 SUB +0 40200 0 01625    02025 TNZ -0 10000 0 02027    02026 TRA +0 02000 0 00021
                 T'O RDXT                                                           052  LM00040
 02027 TRA +0 02000 0 00020
      EOF3       W'R FLAG .E. 10,T'O EOF                                            053  LM00041
 02030 CLA +0 50000 0 01571    02031 SUB +0 40200 0 01624    02032 TNZ -0 10000 0 02034    02033 TRA +0 02000 0 00012
                 EOFCT = EOFTMP                                                     054  LM00042
 02034 CLA +0 50000 0 01567    02035 STO +0 60100 0 01565
                 FLAG = 10                                                          055  LM00043
 02036 CLA +0 50000 0 01624    02037 STO +0 60100 0 01571
                 T'O RDXT                                                           056  LM00044
 02040 TRA +0 02000 0 00020
      EOF        NEWSW = 1B                                                         057  LM00045
 02041 CLA +0 50000 0 01621    02042 STO +0 60100 0 01611
                 T'O END                                                            058  LM00046
 02043 TRA +0 02000 0 00000
      ER10       ERR.(MSG10...MSG10(2),ONOFRT,NXTRT)                                059  LM00050
 02044 TSX +0 07400 4 00002    02045 TIX +2 01577 0 01601    02046 TXH +3 00000 0 01614    02047 TXH +3 00000 0 00016
                      V'S MSG10 = $CAN'T PROCESS MFD$                               060  LM00051
 01577     -2 26044 2 62460    01600     -0 75146 2 32562    01601     +2 32145 1 46360
      NXTRT      F'N 0                                                              061  LM00052
 02050 CLA +0 50000 0 01620    02051 TRA +0 02000 0 02165
      ER11       ERR.(MSG11...MSG11(2),ONOFRT,NXTRT)                                062  LM00053
 02052 TSX +0 07400 4 00002    02053 TIX +2 01602 0 01604    02054 TXH +3 00000 0 01614    02055 TXH +3 00000 0 00016
                      V'S MSG11 = $ERROR READING MFD$                               063  LM00054
 01602     +2 76044 2 62460    01603     -1 12521 2 43145    01604     +2 55151 4 65160
      ER12       ERR.(MSG12...MSG12(2),ONOFRT,NXTRT)                                064  LM00055
 02056 TSX +0 07400 4 00002    02057 TIX +2 01605 0 01607    02060 TXH +3 00000 0 01614    02061 TXH +3 00000 0 00016
                    V'S MSG12 = $CAN'T CLOSE M.F.D.$                                065  LM00056
 01605     -0 43326 3 32433    01606     +2 34346 6 22560    01607     +2 32145 1 46360
                 INTERNAL FUNCTION                                                  066  LM00059
 02062 TRA +0 02000 0 02147
                 ENTRY TO READBF.                                                   067  LM00060
 02063 TRA +0 02000 0 02066    00006 TTR +0 02100 0 02064    02064 SXA +0 63400 2 02137    02065 TSX +0 07400 2 02137
                 M = M+1                                                            068  LM00061
 02066 CLA +0 50000 0 01576    02067 ADD +0 40000 0 01621    02070 STO +0 60100 0 01576
                 W'R M .GE. EOFCT                                                   069  LM00062
 02071 CLA +0 50000 0 01576    02072 SUB +0 40200 0 01565    02073 TZE +0 10000 0 02075    02074 TMI -0 12000 0 02135
                    M = 0                                                           070  LM00063
 02075 CLA +0 50000 0 01620    02076 STO +0 60100 0 01576
                    W'R K .G. 433                                                   071  LM00064
 02077 CLA +0 50000 0 01574    02100 SUB +0 40200 0 01630    02101 TZE +0 10000 0 02110    02102 TMI -0 12000 0 02110
                       K = 432                                                      072  LM00065
 02103 CLA +0 50000 0 01627    02104 STO +0 60100 0 01574
                       J = 864                                                      073  LM00066
 02105 CLA +0 50000 0 01631    02106 STO +0 60100 0 01573
                    O'E                                                             074  LM00067
 02107 TRA +0 02000 0 02114
                       K = 864                                                      075  LM00068
 02110 CLA +0 50000 0 01631    02111 STO +0 60100 0 01574
                       J  = 432                                                     076  LM00069
 02112 CLA +0 50000 0 01627    02113 STO +0 60100 0 01573
                    E'L                                                             077  LM00070
                     W'R EOFSWT .NE. 0, T'O EOF3                                    078  LM00071
 02114 CLA +0 50000 0 01566    02115 SUB +0 40200 0 01620    02116 TZE +0 10000 0 02120    02117 TRA +0 02000 0 00011
                    RDFILE.(MFD,FILE,0,BUFFR(K)...432,EOF1,EOFCT,ER11,ERCOD)        079  LM00072
 02120 CLA +0 50000 0 01574    02121 SUB +0 40200 0 02122    02122 TXH +3 00000 0 01562    02123 STA +0 62100 0 02130
 02124 TSX +0 07400 4 00005    02125 TXH +3 00000 0 01575    02126 TXH +3 00000 0 01570    02127 TXH +3 00000 0 01620
 02130 TIX +2 01627 0 00000    02131 TXH +3 00000 0 00010    02132 TXH +3 00000 0 01565    02133 TXH +3 00000 0 00014
 02134 TXH +3 00000 0 77431
                 E'L                                                                080  LM00073
      RDXT       F'N                                                                081  LM00074
 02135 TRA +0 02000 0 02143
                 E'N                                                                082  LM00075
 02136 TSX +0 07400 4 00003    02137 TXH +3 00000 0 00000    02140 SXD -0 63400 1 02137    02141 SXA +0 63400 4 02143
 02142 TRA +0 02000 2 00001    02143 AXT +0 77400 4 00000    02144 LXA +0 53400 2 02137    02145 LXD -0 53400 1 02137
 02146 TRA +0 02000 4 00001
                 V'S NEWSW = 1B                                                     083  LM00079
 01611     +0 00000 0 00001
                 V'S EOFSWT = 0                                                     084  LM00080
 01566     +0 00000 0 00000
                 V'S FLAG = 0                                                       085  LM00081
 01571     +0 00000 0 00000
                 V'S EOFTMP = 0                                                     086  LM00082
 01567     +0 00000 0 00000
                 V'S MFD = $M.F.D.$                                                 087  LM00083
 01575     -0 43326 3 32433
                 V'S FILE = $(FILE)$                                                088  LM00084
 01570     -3 42631 4 32534
                 D'N BUFFR(864)                                                     089  LM00085
                 STATEMENT LABEL END                                                090  LM00086
                 N'S INTEGER                                                        091  LM00087
                 BOOLEAN NEWSW                                                      092  LM00088
                 END OF FUNCTION                                                    093  LM00090
 02147 TSX +0 07400 4 00003    02150 TXH +3 00000 0 00000    02151 SXD -0 63400 1 02150    02152 SXA +0 63400 4 02165
 02153 CLA +0 50000 4 00001    02154 STA +0 62100 0 01744    02155 STA +0 62100 0 01767    02156 CLA +0 50000 4 00002
 02157 STA +0 62100 0 01752    02160 STA +0 62100 0 01772    02161 STA +0 62100 0 01776    02162 CLA +0 50000 4 00003
 02163 STA +0 62100 0 02043    02164 TRA +0 02000 2 00001    02165 AXT +0 77400 4 00000    02166 LXA +0 53400 2 02150
 02167 LXD -0 53400 1 02150    02170 TRA +0 02000 4 00001


CHRG.B   BCD 05/15/71 1243.0    4416         00000
1      CHRG.B   08/08/68    D.A. ANDERSON   WRITE 'DISKED TIMACC'                05/15/71 1241.4 PAGE 1
                       BACKGROUND VERSION

                       00014         ENTRY   CHARGE        (PROB,PROG)  START CHARGING USER
                       00064         ENTRY   CHARG1        (TYPE) START CHARGING USER FOR 'TYPE'
                       00113         ENTRY   STPCH1        () STOP CHARGING USER FOR 'TYPE'
                       00135         ENTRY   STPCHG        ()   STOP CHARGING USER
                       00243         ENTRY   UPDCHG        ()   UPDATE 'DISKED TIMACC'


        TRANSFER VECTOR
      00000  475145632551     PRNTER
      00001  665166213163     WRWAIT
      00002  226426262551     BUFFER
      00003  464725456060     OPEN
      00004  234346622560     CLOSE
      00005  512466213163     RDWAIT
      00006  216363452144     ATTNAM
      00007  216363212330     ATTACH
      00010  242523234565     DECCNV
      00011  242526222360     DEFBC

        LINKAGE DIRECTOR
      00012  000000000000
      00013  233021512725

                       00000  ALONE  EQU     0             0 FOR BACKGROUND, 1 FOR STAND-ALONE


                                     EXTERN  PRNTER
                                     EXTERN  WRWAIT,BUFFER,OPEN,CLOSE,RDWAIT
                                     EXTERN  ATTNAM,ATTACH
                                     EXTERN  DECCNV,DEFBC
                                     EXTERN  DECCNV,DEFBC


 M                            CALL   MACRO   NAME,LIST
                                     TSX     NAME,4
                                     IRP     LIST
                                     PTH     LIST
                                     IRP
                              CALL   END


1      CHRG.B   08/08/68    D.A. ANDERSON   WRITE 'DISKED TIMACC'                05/15/71 1241.4 PAGE 2
                       BACKGROUND VERSION

      00014  0634 00 4 00062  CHARGE SXA     CX4,4
      00015 -0520 00 0 00516         NZT     RMEMBR
      00016  0020 00 0 00022         TRA     *+4
      00017  0074 00 4 00113         TSX     STPCH1,4
      00020  0074 00 4 00135         TSX     STPCHG,4
      00021  0534 00 4 00062         LXA     CX4,4
      00022  0500 60 4 00001         CLA*    1,4
      00023  0560 60 4 00002         LDQ*    2,4
      00024  0774 00 4 00322         AXT     BUFL,4
      00025 -0520 00 4 01053  FNDCHG NZT     PROBN,4
      00026  0520 00 4 01054         ZET     PROGN,4
      00027  0020 00 0 00037         TRA     CHGCHK
      00030  0634 00 4 00516         SXA     RMEMBR,4
      00031  2 00016 4 00025  NOTHIS TIX     FNDCHG,4,LINLEN
      00032  0520 00 0 00516         ZET     RMEMBR
      00033  0020 00 0 00053         TRA     CHGTHS
      00034  0074 00 4 00243         TSX     UPDCHG,4
      00035  0534 00 4 00062         LXA     CX4,4
      00036  0020 00 0 00015         TRA     CHARGE+1

      00037  0340 00 4 01053  CHGCHK CAS     PROBN,4
      00040  0020 00 0 00031         TRA     NOTHIS
      00041  0020 00 0 00043         TRA     *+2
      00042  0020 00 0 00031         TRA     NOTHIS
      00043  0131 00 0 00000         XCA
      00044  0340 00 4 01054         CAS     PROGN,4
      00045  0020 00 0 00047         TRA     *+2
      00046  0020 00 0 00051         TRA     CHGTH1
      00047  0131 00 0 00000         XCA
      00050  0020 00 0 00031         TRA     NOTHIS

      00051  0634 00 4 00516  CHGTH1 SXA     RMEMBR,4
      00052  0020 00 0 00055         TRA     CHGTHS+2

      00053  0534 00 4 00516  CHGTHS LXA     RMEMBR,4
      00054 -0603 00 4 01053         DST     PROBN,4
      00055 -0500 00 0 00005         CAL     5
      00056  0602 00 0 00517         SLW     CHGTIM
      00057  0774 00 4 00000  NCHRG  AXT     **,4
      00060  1 00001 4 00061         TXI     *+1,4,1
      00061  0634 00 4 00057         SXA     NCHRG,4
      00062  0774 00 4 00000  CX4    AXT     **,4
      00063  0020 00 4 00003         TRA     3,4
1      CHRG.B   08/08/68    D.A. ANDERSON   WRITE 'DISKED TIMACC'                05/15/71 1241.4 PAGE 3
                       BACKGROUND VERSION

      00064  0520 00 0 00516  CHARG1 ZET     RMEMBR
      00065  0020 00 0 00070         TRA     *+3
      00066  0600 00 0 00521         STZ     TYPE
      00067  0020 00 4 00002         TRA     2,4
      00070  0634 00 4 00111         SXA     C1X4,4
      00071 -0520 00 0 00521         NZT     TYPE
      00072  0020 00 0 00075         TRA     *+3
      00073  0074 00 4 00113         TSX     STPCH1,4
      00074  0534 00 4 00111         LXA     C1X4,4
      00075 -0500 60 4 00001         CAL*    1,4
      00076  0602 00 0 00521         SLW     TYPE
      00077  0100 00 4 00002         TZE     2,4
      00100  0734 00 4 00000         PAX     ,4
      00101  1 00003 4 00102         TXI     *+1,4,3
      00102 -3 00016 4 00105         TXL     *+3,4,LINLEN
      00103  0600 00 0 00521         STZ     TYPE
      00104  0020 00 0 00111         TRA     C1X4
      00105  0400 00 0 00530         ADD     PROBN2
      00106  0621 00 0 00125         STA     STPCH
      00107 -0500 00 0 00005         CAL     5
      00110  0602 00 0 00520         SLW     CHGTM
      00111  0774 00 4 00000  C1X4   AXT     **,4
      00112  0020 00 4 00002         TRA     2,4
1      CHRG.B   08/08/68    D.A. ANDERSON   WRITE 'DISKED TIMACC'                05/15/71 1241.4 PAGE 4
                       BACKGROUND VERSION

      00113 -0520 00 0 00521  STPCH1 NZT     TYPE
      00114  0020 00 4 00001         TRA     1,4
      00115  0634 00 4 00133         SXA     S1X4,4
      00116 -0500 00 0 00005         CAL     5
      00117  0402 00 0 00520         SUB     CHGTM
      00120 -0130 00 0 00000         XCL
      00121 -0754 00 0 00000         ZAC
      00122  0221 00 0 00513         DVP     .60
      00123 -0130 00 0 00000         XCL
      00124  0534 00 4 00516         LXA     RMEMBR,4
      00125  0400 00 4 00000  STPCH  ADD     **,4
      00126  0601 60 0 00125         STO*    STPCH
      00127  0774 00 4 00002         AXT     2,4
      00130  0634 00 4 00237         SXA     LINE,4
      00131  0074 00 4 00162         TSX     WRTIME,4
      00132  0600 00 0 00521         STZ     TYPE
      00133  0774 00 4 00000  S1X4   AXT     **,4
      00134  0020 00 4 00001         TRA     1,4
1      CHRG.B   08/08/68    D.A. ANDERSON   WRITE 'DISKED TIMACC'                05/15/71 1241.4 PAGE 5
                       BACKGROUND VERSION

      00135 -0520 00 0 00516  STPCHG NZT     RMEMBR
      00136  0020 00 4 00001         TRA     1,4
      00137  0634 00 4 00160         SXA     SX4,4
      00140  0520 00 0 00521         ZET     TYPE
      00141  0074 00 4 00113         TSX     STPCH1,4
      00142 -0500 00 0 00005         CAL     5
      00143  0402 00 0 00517         SUB     CHGTIM
      00144 -0130 00 0 00000         XCL
      00145 -0754 00 0 00000         ZAC
      00146  0221 00 0 00513         DVP     .60
      00147 -0130 00 0 00000         XCL
      00150  0044 00 0 00000         PAI
      00151  0534 00 4 00516         LXA     RMEMBR,4
      00152  0400 00 4 01055         ADD     TIMUSD,4
      00153  0601 00 4 01055         STO     TIMUSD,4
      00154  0774 00 4 00003         AXT     3,4
      00155  0634 00 4 00237         SXA     LINE,4
      00156  0074 00 4 00162         TSX     WRTIME,4
      00157  0600 00 0 00516         STZ     RMEMBR
      00160  0774 00 4 00000  SX4    AXT     **,4
      00161  0020 00 4 00001         TRA     1,4

1      CHRG.B   08/08/68    D.A. ANDERSON   WRITE 'DISKED TIMACC'                05/15/71 1241.4 PAGE 6
                       BACKGROUND VERSION

      00162  0634 00 4 00230  WRTIME SXA     TX4,4
      00163 -0130 00 0 00000         XCL
      00164 -0754 00 0 00000         ZAC
      00165  0221 00 0 01752         DVP     =3600
      00166  0602 00 0 00241         SLW     LINE+2
      00167 -0600 00 0 00240         STQ     LINE+1
      00170  0074 00 4 00011         TSX     DEFBC,4
      00171  3 00000 0 00240         PTH     LINE+1
      00172  0100 00 0 00232         TZE     WRTM1
      00173  0560 00 0 01754         LDQ     =H.00000
      00174 -0774 00 4 00000         AXC     0,4
      00175 -0765 00 0 00006         LGR     6
      00176  0100 00 0 00200         TZE     *+2
      00177  1 77772 4 00175         TXI     *-2,4,-6
      00200 -0500 00 0 01757         CAL     =H
      00201 -0763 00 4 00000         LGL     ,4
      00202 -0130 00 0 00000         XCL
      00203  0044 00 0 00000         PAI
      00204 -0600 00 0 00240  WRTM2  STQ     LINE+1
      00205  0560 00 0 00241         LDQ     LINE+2
      00206  0200 00 0 01753         MPY     =10000
      00207  0221 00 0 01752         DVP     =3600
      00210 -0600 00 0 00241         STQ     LINE+2
      00211  0074 00 4 00011         TSX     DEFBC,4
      00212  3 00000 0 00241         PTH     LINE+2
      00213  0043 00 0 00000         OAI
      00214  0604 00 0 00241         STI     LINE+2
      00215  0534 00 4 00237         LXA     LINE,4
      00216  1 00001 4 00217         TXI     *+1,4,1
      00217 -0634 00 4 00224         SXD     WRTM3,4
      00220  0074 00 4 00001         TSX     WRWAIT,4
      00221  3 00000 0 00235         PTH     STATIS
      00222  3 00000 0 00236         PTH     .FILE.
      00223  3 00000 0 01751         PTH     =0
      00224  3 00000 0 00237  WRTM3  PTH     LINE,,**
      00225  3 00000 0 00225         PTH     *
      00226  3 00000 0 01755         PTH     =-0
      00227  3 00000 0 00227         PTH     *
      00230  0774 00 4 00000  TX4    AXT     **,4
      00231  0020 00 4 00001         TRA     1,4

      00232  0560 00 0 01757  WRTM1  LDQ     =H
      00233  0441 00 0 01756         LDI     =H .0000
      00234  0020 00 0 00204         TRA     WRTM2

      00235  626321633162     STATIS BCI     1,STATIS
      00236  332631432533     .FILE. BCI     1,.FILE.
      00237 -377777000000     LINE   OCT     777777000000
      00240  605454545454            BCI     3, ******.**** TOTAL
1      CHRG.B   08/08/68    D.A. ANDERSON   WRITE 'DISKED TIMACC'                05/15/71 1241.4 PAGE 7
                       BACKGROUND VERSION

      00243  0634 00 1 00420  UPDCHG SXA     UX1,1
      00244  0534 00 1 00057         LXA     NCHRG,1
      00245 -3 00000 1 00420         TXL     UX1,1,0
      00246  0634 00 2 00417         SXA     UX2,2
      00247  0634 00 4 00415         SXA     UX4,4
      00250  0760 00 0 00016         EAXM
      00251  0634 00 3 00416         SXA     UX3,3
      00252  0634 00 5 00414         SXA     UX5,5
      00253  0634 00 7 00413         SXA     UX7,7
      00254 -0520 00 0 00516         NZT     RMEMBR
      00255  0020 00 0 00260         TRA     *+3
      00256  0074 00 4 00113         TSX     STPCH1,4
      00257  0074 00 4 00135         TSX     STPCHG,4
      00260                          CALL    ATTNAM((ME,,2))
      00262                          CALL    ATTACH(M1416,CMFL02,IOERR)
      00266  0774 00 2 00001         AXT     1,2           SET UP RELLOC FOR WRWAIT
      00267                          CALL    OPEN(RW,DISKED,TIMACC,.120,.2,IOERR)
      00276                          CALL    BUFFER(DISKED,TIMACC(B1,,432)IOERR)

      00303                   UPDLOP CALL    RDWAIT(DISKED,TIMACC,.0(PROBN,,LINLEN)EOF,EOFCT,IOERR)
      00313 -0500 00 0 01053         CAL     PROBN
      00314  0560 00 0 01054         LDQ     PROGN
      00315  0774 00 3 00322         AXT     BUFL,3

      00316 -0340 00 3 01053  UPDLP1 LAS     PROBN,3
      00317  0020 00 0 00321         TRA     *+2
      00320  0020 00 0 00323         TRA     UPDPRG
      00321  2 00016 3 00316  UPDL1N TIX     UPDLP1,3,LINLEN
      00322  1 00016 2 00303         TXI     UPDLOP,2,LINLEN
      00323 -0130 00 0 00000  UPDPRG XCL
      00324 -0340 00 3 01054         LAS     PROGN,3
      00325  0020 00 0 00327         TRA     *+2
      00326  0020 00 0 00331         TRA     REWRIT
      00327 -0130 00 0 00000         XCL
      00330  0020 00 0 00321         TRA     UPDL1N

      00331  0774 00 7 00014  REWRIT AXT     LINLEN-2,7
      00332  0754 00 3 00000         PXA     ,3
      00333  0734 00 5 00000         PAX     ,5
      00334  1 77776 5 00335         TXI     *+1,5,-2
      00335 -0500 00 7 01071  ADD    CAL     PROBN+LINLEN,7
      00336  0602 00 0 00522         SLW     TEMP
      00337                          CALL    DECCNV(TEMP)
      00341  0400 00 5 01053         ADD     PROBN,5
      00342  1 77777 5 00343         TXI     *+1,5,-1
      00343  0601 00 0 00522         STO     TEMP
      00344                          CALL    DEFBC(TEMP)
      00346  0601 00 7 01071         STO     PROBN+LINLEN,7
      00347  2 00001 7 00335         TIX     ADD,7,1
      00350  0074 00 7 00352         TSX     RWR,7
      00351  1 00016 2 00303         TXI     UPDLOP,2,LINLEN

      00352  0634 00 7 00374  RWR    SXA     RWR7,7
      00353  0754 00 2 00000         PXA     ,2
      00354  0602 00 0 00524         SLW     RELLOC
1      CHRG.B   08/08/68    D.A. ANDERSON   WRITE 'DISKED TIMACC'                05/15/71 1241.4 PAGE 8
                       BACKGROUND VERSION

      00355  0774 00 4 00016         AXT     LINLEN,4
      00356  0754 00 3 00000         PXA     ,3
      00357  0734 00 5 00000         PAX     ,5
      00360  0600 00 5 01053         STZ     PROBN,5
      00361  1 77777 5 00362         TXI     *+1,5,-1
      00362  2 00001 4 00360         TIX     *-2,4,1
      00363                          CALL    WRWAIT(DISKED,TIMACC,RELLOC(PROBN,,LINLEN)$
                                     ETC     WEOF,EOFCT,IOERR)
      00373 -2 00001 1 00403  BACK   TNX     EGRETS,1,1
      00374  0774 00 7 00000  RWR7   AXT     **,7
      00375  0020 00 7 00001         TRA     1,7

      00376  0774 00 3 00322  EOF    AXT     BUFL,3
      00377 -0520 00 3 01053  UPDLP2 NZT     PROBN,3
      00400  0520 00 3 01054         ZET     PROGN,3
      00401  0020 00 0 00422         TRA     APPEND
      00402  2 00016 3 00377  UPDL2N TIX     UPDLP2,3,LINLEN

      00403  0634 00 0 00057  EGRETS ZSA     NCHRG
      00404                          CALL    CLOSE(DISKED,TIMACC,IOERR)

      00410                   OUT    CALL    ATTACH(ME,ME+1)

      00413  0774 00 7 00000  UX7    AXT     **,7
      00414  0774 00 5 00000  UX5    AXT     **,5
      00415  0774 00 4 00000  UX4    AXT     **,4
      00416  0774 00 3 00000  UX3    AXT     **,3
      00417  0774 00 2 00000  UX2    AXT     **,2
      00420  0774 00 1 00000  UX1    AXT     **,1
      00421  0020 00 4 00001         TRA     1,4

      00422  0500 00 3 01053  APPEND CLA     PROBN,3
      00423  0560 00 3 01054         LDQ     PROGN,3
      00424 -0603 00 0 01053         DST     PROBN
      00425  0774 00 7 00014         AXT     LINLEN-2,7
      00426  0754 00 3 00000         PXA     ,3
      00427  0734 00 5 00000         PAX     ,5
      00430  1 77776 5 00431         TXI     *+1,5,-2
      00431 -0500 00 5 01053  MOVE   CAL     PROBN,5
      00432  1 77777 5 00433         TXI     *+1,5,-1
      00433  0602 00 0 00522         SLW     TEMP
      00434                          CALL    DEFBC(TEMP)
      00436  0601 00 7 01071         STO     PROBN+LINLEN,7
      00437  2 00001 7 00431         TIX     MOVE,7,1
      00440  0074 00 7 00352         TSX     RWR,7
      00441  1 00016 2 00402         TXI     UPDL2N,2,LINLEN

      00442 -0520 00 0 00523  ADJUST NZT     EOFCT
      00443  0020 00 3 00001         TRA     1,3
      00444  0500 00 0 00527         CLA     LINELN
      00445  0402 00 0 00523         SUB     EOFCT
      00446  0767 00 0 00022         ALS     18
      00447  0622 00 0 00454         STD     *+5
      00450                          CALL    WRWAIT(DISKED,TIMACC,.0(*,,**)*,EOFCT,IOERR)
      00460  0020 00 3 00001         TRA     1,3
1      CHRG.B   08/08/68    D.A. ANDERSON   WRITE 'DISKED TIMACC'                05/15/71 1241.4 PAGE 9
                       BACKGROUND VERSION

      00461  0074 00 3 00442  WEOF   TSX     ADJUST,3
      00462                          CALL    WRWAIT(DISKED,TIMACC,RELLOC(PROBN,,3)BACK,EOFCT,IOERR)
      00472  0020 00 0 00373         TRA     BACK

      00473                   IOERR  CALL    PRNTER(.374)
      00475                          CALL    CLOSE(DISKED,TIMACC,*)
      00501  0634 00 0 00057         ZSA     NCHRG
      00502  0020 00 0 00410         TRA     OUT
1      CHRG.B   08/08/68    D.A. ANDERSON   WRITE 'DISKED TIMACC'                05/15/71 1241.4 PAGE 10
                       BACKGROUND VERSION

      00503  516660606060     RW     BCI     1,RW
      00504  604401040106     M1416  BCI     1, M1416
      00505  234426430002     CMFL02 BCI     1,CMFL02
      00506  243162422524     DISKED BCI     1,DISKED
      00507  633144212323     TIMACC BCI     1,TIMACC

      00510 +000000000000     .0     OCT     0
      00511 +000000000002     .2     OCT     2
      00512 +000000000003     .3     OCT     3
      00513 +000000000074     .60    DEC     60
      00514 +000000000120     .120   OCT     120
      00515 +000000000374     .374   OCT     374

      00516  0 00000 0 00000  RMEMBR
      00517  0 00000 0 00000  CHGTIM
      00520  0 00000 0 00000  CHGTM
      00521  0 00000 0 00000  TYPE
      00522  0 00000 0 00000  TEMP
      00523  0 00000 0 00000  EOFCT
      00524  0 00000 0 00000  RELLOC
      00525                   ME     BSS     2

                       00016  LINLEN EQU     14
      00527  0 00000 0 00016  LINELN PZE     LINLEN
      00530  0 00000 0 01055  PROBN2 PZE     PROBN+2


                       00017  N      EQU     15
                       00322  BUFL   EQU     LINLEN*N
                       00531         DUP     1,BUFL
      00531 +000000000000            OCT     0
      01053  0 00000 0 00000  PROBN  PZE
      01054  0 00000 0 00000  PROGN  PZE
      01055                   TIMUSD BSS     LINLEN-2

      01071                   B1     BSS     432

                                     END

        LITERALS
      01751  000000000000
      01752  000000007020
      01753  000000023420
      01754  330000000000
      01755  400000000000
      01756  603300000000
      01757  606060606060
1      CHRG.B   08/08/68    D.A. ANDERSON   WRITE 'DISKED TIMACC'                05/15/71 1241.4 PAGE 1
                        POST PROCESSOR ASSEMBLY DATA

       1760 IS THE FIRST LOCATION NOT USED BY THIS PROGRAM

0REFERENCES TO DEFINED SYMBOLS
         17      N   531
       1071     B1   301
        510     .0   306,  453
        511     .2   274
        512     .3
        525     ME   261,  411,  412
        503     RW   270
        335    ADD   347
         62    CX4    14,   21,   35
        376    EOF   310
        513    .60   122,  146
        410    OUT   502
        352    RWR   350,  440
        160    SX4   137
        230    TX4   162
        420    UX1   243,  245
        417    UX2   246
        416    UX3   251
        415    UX4   247
        414    UX5   252
        413    UX7   253
        373   BACK   467,  472
        322   BUFL    24,  315,  376,  531
        111   C1X4    70,   74,  104
        514   .120   273
        515   .374   474
        237   LINE   130,  155,  166,  167,  171,  204,  205,  210,  212,  214,  215,  224
        431   MOVE   437
          3   OPEN   267
        374   RWR7   352
        133   S1X4   115
        522   TEMP   336,  340,  343,  345,  433,  435
        521   TYPE    66,   71,   76,  103,  113,  132,  140
        461   WEOF   370
          0  ALONE    14
        520  CHGTM   110,  117
          4  CLOSE   404,  475
         11  DEFBC   170,  211,  344,  434
        523  EOFCT   311,  371,  442,  445,  456,  470
        473  IOERR   265,  275,  302,  312,  372,  407,  457,  471
        504  M1416   263
         57  NCHRG    61,  244,  403,  501
       1053  PROBN    25,   37,   54,  307,  313,  316,  335,  341,  346,  360,  367,  377,  422,  424,  431,  436,  466
                     530
       1054  PROGN    26,   44,  314,  324,  400,  423
        125  STPCH   106,  126
        232  WRTM1   172
        204  WRTM2   234
        224  WRTM3   217
        442 ADJUST   461
        422 APPEND   401
1      CHRG.B   08/08/68    D.A. ANDERSON   WRITE 'DISKED TIMACC'                05/15/71 1241.4 PAGE 2
                        POST PROCESSOR ASSEMBLY DATA

          7 ATTACH   262,  410
          6 ATTNAM   260
          2 BUFFER   276
         64 CHARG1     0
         14 CHARGE     0,   36
         37 CHGCHK    27
         51 CHGTH1    46
         53 CHGTHS    33,   52
        517 CHGTIM    56,  143
        505 CMFL02   264
         10 DECCNV   337
        506 DISKED   271,  277,  304,  364,  405,  451,  463,  476
        403 EGRETS   373
         25 FNDCHG    31
        236 .FILE.   222
        527 LINELN   444
         16 LINLEN    31,  102,  307,  321,  322,  331,  335,  346,  351,  355,  367,  402,  425,  436,  441,  527,  531
                    1055
         31 NOTHIS    40,   42,   50
          0 PRNTER   473
        530 PROBN2   105
          5 RDWAIT   303
        524 RELLOC   354,  366,  465
        331 REWRIT   326
        516 RMEMBR    15,   30,   32,   51,   53,   64,  124,  135,  151,  157,  254
        235 STATIS   221
        113 STPCH1     0,   17,   73,  141,  256
        135 STPCHG     0,   20,  257
        507 TIMACC   272,  300,  305,  365,  406,  452,  464,  477
       1055 TIMUSD   152,  153
        243 UPDCHG     0,   34
        321 UPDL1N   330
        402 UPDL2N   441
        303 UPDLOP   322,  351
        316 UPDLP1   321
        377 UPDLP2   402
        323 UPDPRG   320
        162 WRTIME   131,  156
          1 WRWAIT   220,  363,  450,  462

0 NO ERROR IN ABOVE ASSEMBLY.


FILSYS   BCD 05/15/71 1243.0    2038         00000
1      M1416 3845  PETER R. BOS ..... FILE SYSTEM ENTRIES FOR BACKGROUND .....   05/15/71 1241.5 PAGE 1

                                     PCC     ON
                                     BCORE
                                     NOLNK
                       00000         ENTRY   SETIO         DUMMY ENTRY TO INITIALIZE FILE SYSTEM
                       00001         ENTRY   GETIME        GET DATE AND TIME OF DAY
                       00002         ENTRY   TPWAIT        WAIT ON TAPE CHANNELS
                       00024         ENTRY   FERRTN        SET UP FILE ERROR RETURN
                       00025         ENTRY   TILOCK        SET UP FILE INTERLOCK RETURN
                       00026         ENTRY   PRINT         PRINT ON ON-LINE PRINTER
                       00027         ENTRY   PUNCH         PUNCH CARD ONLINE
                       00030         ENTRY   EPRINT        PRINT ONLINE DISABLED
                       00031         ENTRY   WRFLX         TYPE ON TYPEWRITER (FOR COMPATIBILITY)

                       00032         ENTRY   UPDMFD        ENTRIES TO CTSS FILE COORDINATOR
                       00033         ENTRY   DELMFD        ..
                       00034         ENTRY   ATTACH        ..
                       00035         ENTRY   ATTNAM        ..
                       00036         ENTRY   UPDATE        ..
                       00037         ENTRY   SETPRI        ..
                       00040         ENTRY   OPEN          ..
                       00041         ENTRY   BUFFER        ..
                       00042         ENTRY   RDFILE        ..
                       00043         ENTRY   RDWAIT        ..
                       00044         ENTRY   WRFILE        ..
                       00045         ENTRY   WRWAIT        ..
                       00046         ENTRY   TRFILE        ..
                       00047         ENTRY   FCHECK        ..
                       00050         ENTRY   FWAIT         ..
                       00051         ENTRY   CLOSE         ..
                       00052         ENTRY   RESETF        ..
                       00053         ENTRY   CHFILE        ..
                       00054         ENTRY   DELFIL        ..
                       00055         ENTRY   FSTATE        ..
                       00056         ENTRY   MOVFIL        ..
                       00057         ENTRY   SETFIL        ..
                       00060         ENTRY   LINK          ..
                       00061         ENTRY   UNLINK        ..
                       00062         ENTRY   ALLOT         ..
                       00063         ENTRY   STORGE        ..
                       00064         ENTRY   MOUNT         ..
                       00065         ENTRY   UMOUNT        ..
                       00066         ENTRY   VERIFY        ..
                       00067         ENTRY   LABEL         ..
                       00070         ENTRY   TAPFIL        ..
                       00071         ENTRY   IODIAG        ..
                                     LBL     FSYS
                                     PCC     OFF


      00000  0020 00 4 00002  SETIO  TRA     2,4           DUMMY INITIALIZE ENTRY

      00001  0101 00 0 00106  GETIME TIA     =HGETIME      ..

      00002  0634 00 1 00012  TPWAIT SXA     TPX1,1        WAIT ON TAPE CHANNELS
      00003 -0500 00 4 00001         CAL     1,4           CHANNEL NUMBER
      00004  0737 00 1 00000         PAC     ,1            ..
1      M1416 3845  PETER R. BOS ..... FILE SYSTEM ENTRIES FOR BACKGROUND .....   05/15/71 1241.5 PAGE 2

      00005 -3 77775 1 00011         TXL     OOPS,1,-3     BAD CHANNEL NO.
      00006  0522 00 1 00013  BACK   XEC     TCO,1         WAIT FOR I/O COMPLETION
      00007  0522 00 1 00015         XEC     TRC,1         CHECK FOR REDUNDANCY
      00010  0522 00 1 00017         XEC     TEF,1         CHECK FOR EOF
      00011  1 77774 4 00012  OOPS   TXI     *+1,4,-4      NORMAL RETURN 4,4
      00012  0774 00 1 00000  TPX1   AXT     -,1           RESTORE X1
      00013  0020 00 4 00000         TRA     0,4           EXIT
                       00013  TCO    SYN     *-1           TABLE OF TCOX INST.
      00014  0060 00 0 00006         TCOA    BACK          ..
      00015  0061 00 0 00006         TCOB    BACK          ..
                       00015  TRC    SYN     *-1           TABLE OF TRCX
      00016  0022 00 0 00022         TRCA    ERR           ..
      00017 -0022 00 0 00022         TRCB    ERR           ..
                       00017  TEF    SYN     *-1           TABLE OF TEFX
      00020  0030 00 0 00023         TEFA    EOF           ..
      00021 -0030 00 0 00023         TEFB    EOF           ..
      00022  1 77776 4 00012  ERR    TXI     TPX1,4,-2     TAPE CHECK RETURN 2,4
      00023  1 77775 4 00012  EOF    TXI     TPX1,4,-3     EOF RETURN 3,4

      00024  0101 00 0 00103  FERRTN TIA     =HFERRTN      ..
      00025  0101 00 0 00126  TILOCK TIA     =HTILOCK      ..
      00026  0101 00 0 00115  PRINT  TIA     =HPRINT       ..
      00027  0101 00 0 00116  PUNCH  TIA     =HPUNCH       ..
      00030  0101 00 0 00115  EPRINT TIA     =HPRINT       ..
      00031  0101 00 0 00136  WRFLX  TIA     =HWRFLX       ..

      00032  0101 00 0 00133  UPDMFD TIA     =HUPDMFD      FILE COORDINATOR ENTRIES
      00033  0101 00 0 00101  DELMFD TIA     =HDELMFD      ..
      00034  0101 00 0 00073  ATTACH TIA     =HATTACH      ..
      00035  0101 00 0 00074  ATTNAM TIA     =HATTNAM      ..
      00036  0101 00 0 00132  UPDATE TIA     =HUPDATE      ..
      00037  0101 00 0 00123  SETPRI TIA     =HSETPRI      ..
      00040  0101 00 0 00114  OPEN   TIA     =HOPEN        ..
      00041  0101 00 0 00075  BUFFER TIA     =HBUFFER      ..
      00042  0101 00 0 00117  RDFILE TIA     =HRDFILE      ..
      00043  0101 00 0 00120  RDWAIT TIA     =HRDWAIT      ..
      00044  0101 00 0 00135  WRFILE TIA     =HWRFILE      ..
      00045  0101 00 0 00137  WRWAIT TIA     =HWRWAIT      ..
      00046  0101 00 0 00127  TRFILE TIA     =HTRFILE      ..
      00047  0101 00 0 00102  FCHECK TIA     =HFCHECK      ..
      00050  0101 00 0 00105  FWAIT  TIA     =HFWAIT       ..
      00051  0101 00 0 00077  CLOSE  TIA     =HCLOSE       ..
      00052  0101 00 0 00121  RESETF TIA     =HRESETF      ..
      00053  0101 00 0 00076  CHFILE TIA     =HCHFILE      ..
      00054  0101 00 0 00100  DELFIL TIA     =HDELFIL      ..
      00055  0101 00 0 00104  FSTATE TIA     =HFSTATE      ..
      00056  0101 00 0 00113  MOVFIL TIA     =HMOVFIL      ..
      00057  0101 00 0 00122  SETFIL TIA     =HSETFIL      ..
      00060  0101 00 0 00111  LINK   TIA     =HLINK        ..
      00061  0101 00 0 00131  UNLINK TIA     =HUNLINK      ..
      00062  0101 00 0 00072  ALLOT  TIA     =HALLOT       ..
      00063  0101 00 0 00124  STORGE TIA     =HSTORGE      ..
      00064  0101 00 0 00112  MOUNT  TIA     =HMOUNT       ..
      00065  0101 00 0 00130  UMOUNT TIA     =HUMOUNT      ..
      00066  0101 00 0 00134  VERIFY TIA     =HVERIFY      ..
      00067  0101 00 0 00110  LABEL  TIA     =HLABEL       ..
1      M1416 3845  PETER R. BOS ..... FILE SYSTEM ENTRIES FOR BACKGROUND .....   05/15/71 1241.5 PAGE 3

      00070  0101 00 0 00125  TAPFIL TIA     =HTAPFIL      ..
      00071  0101 00 0 00107  IODIAG TIA     =HIODIAG      ..

      00072                          RMT     *
                                     END

        LITERALS
      00072  214343466360
      00073  216363212330
      00074  216363452144
      00075  226426262551
      00076  233026314325
      00077  234346622560
      00100  242543263143
      00101  242543442624
      00102  262330252342
      00103  262551516345
      00104  266263216325
      00105  266621316360
      00106  272563314425
      00107  314624312127
      00110  432122254360
      00111  433145426060
      00112  444664456360
      00113  444665263143
      00114  464725456060
      00115  475131456360
      00116  476445233060
      00117  512426314325
      00120  512466213163
      00121  512562256326
      00122  622563263143
      00123  622563475131
      00124  626346512725
      00125  632147263143
      00126  633143462342
      00127  635126314325
      00130  644446644563
      00131  644543314542
      00132  644724216325
      00133  644724442624
      00134  652551312670
      00135  665126314325
      00136  665126436760
      00137  665166213163
1      M1416 3845  PETER R. BOS ..... FILE SYSTEM ENTRIES FOR BACKGROUND .....   05/15/71 1241.5 PAGE 1
                        POST PROCESSOR ASSEMBLY DATA

        140 IS THE FIRST LOCATION NOT USED BY THIS PROGRAM

0REFERENCES TO DEFINED SYMBOLS
         23    EOF    20,   21
         22    ERR    16,   17
         13    TCO     6,   14
         17    TEF    10,   20
         15    TRC     7,   16
          6   BACK    14,   15
         60   LINK     0
         11   OOPS     5
         40   OPEN     0
         12   TPX1     2,   22,   23
         62  ALLOT     0
         51  CLOSE     0
         50  FWAIT     0
         67  LABEL     0
         64  MOUNT     0
         26  PRINT     0
         27  PUNCH     0
          0  SETIO     0
         31  WRFLX     0
         34 ATTACH     0
         35 ATTNAM     0
         41 BUFFER     0
         53 CHFILE     0
         54 DELFIL     0
         33 DELMFD     0
         30 EPRINT     0
         47 FCHECK     0
         24 FERRTN     0
         55 FSTATE     0
          1 GETIME     0
         71 IODIAG     0
         56 MOVFIL     0
         42 RDFILE     0
         43 RDWAIT     0
         52 RESETF     0
         57 SETFIL     0
         37 SETPRI     0
         63 STORGE     0
         70 TAPFIL     0
         25 TILOCK     0
          2 TPWAIT     0
         46 TRFILE     0
         65 UMOUNT     0
         61 UNLINK     0
         36 UPDATE     0
         32 UPDMFD     0
         66 VERIFY     0
         44 WRFILE     0
         45 WRWAIT     0
1      M1416 3845  PETER R. BOS ..... FILE SYSTEM ENTRIES FOR BACKGROUND .....   05/15/71 1241.5 PAGE 2
                        POST PROCESSOR ASSEMBLY DATA

0 NO ERROR IN ABOVE ASSEMBLY.
