


DAEMON   BCD 05/11/69 2035.9    7892         00000
1            THE DAEMON DUMP/LOAD PROGRAM  G.F. CLANCY                           05/11/69 2000.3 PAGE 1

                              *
                                     EXTERN  NGETA,SLEEP,CHNCOM,ALLOT,SETCLS
                                     EXTERN  GETCOM,ATTACH
                                     EXTERN  SETCLC,WRFLX,FSTATE
                                     EXTERN  NEXCOM,GETIME,FERRTN
                              *
                                     INSERT  DMCRSA
                              *
                              *      MACRO TO WRITE N WORDS FROM ARRAY ET SEQ ONTO ALREADY OPENED
                              *      SECONDARY STORAGE FILE (NAME1,NAME2) AND WAIT UNTIL TRANSMITTED.
                              *
                               WSSF  MACRO   ARRAY,N,NAME1,NAME2
                                     TSX     ATTACH,4      RE-ATTACH TO DUMPER'S FILES
                                     TXH     DMPUSR
                                     TXH     DMPRGR
                                     TSX     WRFILE,4      WRITE
                                     TXH     NAME1         ONTO (NAME1,
                                     TXH     NAME2         NAME2)
                                     TXH     =0            AT POSITION WHERE LAST CEASED
                                     TIX     ARRAY,,N      FROM ARRAY THROUGH ARRAY+N-1
                                     TSX     FWAIT,4       WAIT
                                     TXH     NAME1
                                     TXH     NAME2
                               WSSF  END
                              *
                              *  ZERO-IZE A THROUGH A+X-1
                              *
                               CLEAR MACRO   A,X
                                     AXT     X,1
                                     STZ     A+X,1
                                     TIX     *-1,1,1
                               CLEAR END
                              *
                              *      MOVE X WORDS FROM A ET SEQ TO B ET SEQ
                              *
                               MOVE  MACRO   X,A,B
                                     AXT     X,1
                                     CAL     A+X,1
                                     SLW     B+X,1
                                     TIX     *-2,1,1
                               MOVE  END
                              *
                              *      PRINT ONE LINE, CLEAR BUFFER
                              *
                              PRBUFF MACRO   BUFF,NWDS
                                     SXA     *+3,4
                                     TSX     WRFLX,4
                                             BUFF,,NWDS
                                     AXT     **,4
                                     CLEAR   BUFF,NWDS
                              PRBUFF END
                              *
                              *      PRINT STANDARD BEGINNING TO DUMPER ERROR MESSAGE
                              *
                              BGNERM MACRO   TYPE
                                     SXA     *+3,4
1            THE DAEMON DUMP/LOAD PROGRAM  G.F. CLANCY                           05/11/69 2000.3 PAGE 2

                                     TSX     $BERM,4
                                     PZE     TYPE
                                     AXT     **,4
                              BGNERM END
                              *
                              *  PRINT ONE LINE COMMENT
                              *
                              PRLINE MACRO   COMNT,NWC,N,WORD1,WORD2,LOC
                                     IFF     0,NWC,0
                                     MOVE    NWC,LOC,PBF
                                     IFF     N-2,N,1
                                     CAL     WORD1
                                     IFF     N-2,N,1
                                     SLW     PBF+NWC
                                     IFF     1,N,2
                                     CAL     WORD2
                                     IFF     1,N,2
                                     SLW     PBF+NWC+1
                                     PRBUFF  PBF,NWC+N
                                     RMT
                               LOC   BCI     NWC,COMNT
                                     RMT
                              PRLINE END
                              *
                              *      PRINT ONE LINE MESSAGE
                              *
                              PRMESS MACRO   MESNAM,N,ADR1,ADR2
                                     TSX     $PRLINE,4
                                     BCI     1,MESNAM
                                     IFF     N,N,N
                                     TXH     ADR1
                                     IFF     N,N,N
                                     TXH     ADR2
                              PRMESS END
                              *
                              *      MACRO TO OPEN FILE (X,Y) OF USER (A,B) FOR READING
                              *      AND ASSIGN BUFFER F OF LENGTH L TO I/O SYSTEM FOR THAT PURPOSE.
                              *        ( ERR IS TRANSFER ADDRESS FOR ERROR RETURN )
                              *
                              RDOPEN MACRO   X,Y,A,B,F,L,ERR
                                     TSX     ATTACH,4      ATTACH TO USER (A,B)
                                     TXH     A
                                     TXH     B
                                     TSX     OPEN,4        OPEN FILE (X,Y) FOR READING
                                     TXH     R
                                     TXH     X
                                     TXH     Y
                                     TXH     =0
                                     TXH     =0
                                     TXH     ERR           (TRANSFER ADDRESS FOR ERROR)
                                     TSX     BUFFER,4      ASSIGN L WORDS OF BUFFER F TO (X,Y)
                                     TXH     X
                                     TXH     Y
                                     TIX     F,,L
                              RDOPEN END
                              *
1            THE DAEMON DUMP/LOAD PROGRAM  G.F. CLANCY                           05/11/69 2000.3 PAGE 3

                              *      PRINT ERROR CODE, END MESSAGE
                              *
                                ERTN MACRO   ADRERR
                                     SXA     *+2,4
                                     TSX     $ERREND,4
                                     AXT     **,4
                                     TRA     ADRERR
                                ERTN END
                              *
                              *      ASK OPERATOR TO SET KEY CODE DC IF HE WANTS
                              *      ACTION GIVEN BY N-WORD MESSAGE M
                              *
                              PRCODE MACRO   DC,M,N
                                     TSX     $PRCODE,4
                                     TXH     DC
                                     TXH     M,,N
                              PRCODE END
                              *
                              *      TEST LAST KEY SETTING VIA SUPERVISOR, GO TO JUMP IF IT IS CODE
                              *
                              TESTKY MACRO   CODE,JUMP
                                     TSX     $NGETA,7
                                     LDQ     DEMKEY
                                     STQ     KEYVAL
                                     AXT     CODE,1
                                     PXA     0,1
                                     SUB     KEYVAL
                                     TZE     JUMP
                              TESTKY END
                              *
                              *      SET UP LOGICAL TAPE RECORD WRITING
                              *
                              LOGREC MACRO   X
                                     CLA     LTPBF
                                     SUB     =12
                                     STO     TEMP
                                     CAL     X+4
                                     ANA     =O77777
                                     STO     RCOUNT
                                     TSX     $NLREC,4
                                     TXH     NORECS
                                     TXH     RCOUNT
                                     TXH     LCOUNT
                                     TXH     TEMP
                                     TXH     =12
                                     TXH     PHYSRC
                                     TXH     NFLR
                                     TXH     NLAST
                              LOGREC END
                              *
                              *
                              ATTACH MACRO   A,B
                                     TSX     ATTACH,4
                                     TXH     A
                                     TXH     B
                              ATTACH END
1            THE DAEMON DUMP/LOAD PROGRAM  G.F. CLANCY                           05/11/69 2000.3 PAGE 4

                              *
                              *      PRINT ERROR MESSAGE AND INTERROGATE KEYS
                              *
                              PRERR  MACRO
                                     TSX     $PRNTER,4
                                     TSX     $GDSIG,4
                              PRERR  END
                              *
                              *
                              *- - - - - - - - - - - - - - - - - - - - - - - - - - - -
                              *      BEGIN DAEMON PROGRAM
                              *- - - - - - - - - - - - - - - - - - - - - - - - - - - -
                              *

      00000  452725632160     NGETA
      00001  624325254760     SLEEP
      00002  233045234644     CHNCOM
      00003  214343466360     ALLOT
      00004  622563234362     SETCLS
      00005  272563234644     GETCOM
      00006  216363212330     ATTACH
      00007  622563234323     SETCLC
      00010  665126436760     WRFLX
      00011  266263216325     FSTATE
      00012  452567234644     NEXCOM
      00013  272563314425     GETIME
      00014  262551516345     FERRTN
      00015  475145632551     PRNTER
      00016  475123462425     PRCODE
      00017  476463314560     PUTIN

      00020  0760 00 0 00016         LMTM
      00021  0074 00 4 00006         TSX     ATTACH,4
      00022  3 00000 0 01502         PAR     =H C0056
      00023  3 00000 0 01501         PAR     =H 99999
      00024  0074 00 4 00014         TSX     FERRTN,4
      00025  0 00000 0 00027         PZE     ELOC
      00026  0020 00 0 00056         TRA     OVER
                              *
      00027  0634 00 1 00053  ELOC   SXA     ELOC1,1
      00030  0634 00 4 00054         SXA     ELOC4,4
      00031                          PRLINE  ( UNEXPECTED IO SYSTEM ERROR RETURN),6,0
      00044  0074 00 4 00015         TSX     $PRNTER,4
      00045  0760 00 0 00004         ENK
      00046 -0130 00 0 00000         XCL
      00047 -0501 00 0 01470         ORA     =O70000
      00050  0322 00 0 01503         ERA     =O707070777070
      00051 -0100 00 0 00053         TNZ     *+2
      00052  0074 00 4 00002         TSX     CHNCOM,4
      00053  0774 00 1 00000  ELOC1  AXT     **,1
      00054  0774 00 4 00000  ELOC4  AXT     **,4
      00055  0020 00 4 00001         TRA     1,4
                              *
      00056  0074 00 4 00005  OVER   TSX     GETCOM,4
      00057  0 00000 0 00001         PZE     1
      00060 -0340 00 0 01471         LAS     =H0
1            THE DAEMON DUMP/LOAD PROGRAM  G.F. CLANCY                           05/11/69 2000.3 PAGE 5

      00061  0020 00 0 00063         TRA     *+2
      00062  0020 00 0 00107         TRA     LOOP1-3
      00063                          PRLINE  ( THE DAEMON DUMP/LOAD PROGRAM IS STARTING UP.),8,0
      00076  0074 00 4 00003         TSX     ALLOT,4
      00077  3 00000 0 01464         PAR     =1
      00100  3 00000 0 00446         PAR     ALL
      00101  0074 00 4 00003         TSX     ALLOT,4
      00102  3 00000 0 01465         PAR     =2
      00103  3 00000 0 00446         PAR     ALL
      00104  0074 00 4 00003         TSX     ALLOT,4
      00105  3 00000 0 01466         PAR     =3
      00106  3 00000 0 00446         PAR     ALL
                              *
      00107  0074 00 4 00410         TSX     STATE,4
      00110  3 00000 0 01472         PAR     =HDRSTOR
      00111  0020 00 0 00175         TRA     SALVG
      00112  0074 00 4 00410  LOOP1  TSX     STATE,4
      00113  3 00000 0 01500         PAR     =HRESTOR
      00114  0020 00 0 00116         TRA     *+2
      00115 -0625 00 0 00465         STL     LOADSW
      00116 -0500 00 0 00465  LOOP   CAL     LOADSW
      00117 -0100 00 0 00123         TNZ     NOLOAD
      00120                          PRCODE  LOAD,MESA,6
 TD   00121  3 00000 0 00001         TXH     LOAD                                                             .001
      00123                   NOLOAD PRCODE  CDT,MESB,6
 TD   00124  3 00000 0 00002         TXH     CDT                                                              .001
      00126                          PRCODE  NFT,MESC,6
 TD   00127  3 00000 0 00003         TXH     NFT                                                              .001
      00131                          PRCODE  LOGOUT,MESF,4
 TD   00132  3 00000 0 00006         TXH     LOGOUT                                                           .001
      00134 -0500 00 0 01467         CAL     =15
      00135  0074 00 4 00001         TSX     SLEEP,4
      00136 -0500 00 0 00465         CAL     LOADSW
      00137 -0100 00 0 00147         TNZ     NLDKY
      00140                          TESTKY  LOAD,DOLOAD
      00147                   NLDKY  TESTKY  CDT,COMPDP
      00156                          TESTKY  LOGOUT,LLOT
      00165                          TESTKY  NFT,NEWFIL
      00174  0020 00 0 00116         TRA     LOOP
                              *
      00175                   SALVG  PRLINE  ( DUMPER BEING RESUMED AFTER MACHINE CATASTROPHE),8,0
      00210                          PRLINE  ( OR OPERATOR INTERRUPTION),5,0
      00223                          PRCODE  SAVE,MESD,6
 TD   00224  3 00000 0 00004         TXH     SAVE                                                             .001
      00226                          PRCODE  NOSAVE,MESE,6
 TD   00227  3 00000 0 00005         TXH     NOSAVE                                                           .001
      00231                          PRCODE  LOGOUT,MESF,4
 TD   00232  3 00000 0 00006         TXH     LOGOUT                                                           .001
      00234 -0500 00 0 01467         CAL     =15
      00235  0074 00 4 00001         TSX     SLEEP,4
      00236                          TESTKY  SAVE,RDSDMP
      00245                          TESTKY  NOSAVE,LOOP1
      00254                          TESTKY  LOGOUT,LLOT3
      00263  0020 00 0 00175         TRA     SALVG
                              *
      00264 -0500 00 0 00443  COMPDP CAL     DSDUMP
1            THE DAEMON DUMP/LOAD PROGRAM  G.F. CLANCY                           05/11/69 2000.3 PAGE 6

      00265  0602 00 0 00434         SLW     CMARG1
      00266  0020 00 0 00301         TRA     COMM2
                              *
      00267 -0500 00 0 00443  NEWFIL CAL     DSDUMP
      00270  0602 00 0 00434         SLW     CMARG1
      00271 -0500 00 0 00441         CAL     TWO
      00272  0020 00 0 00302         TRA     COMMON
                              *
      00273 -0500 00 0 00443  RDSDMP CAL     DSDUMP
      00274  0602 00 0 00434         SLW     CMARG1
      00275 -0500 00 0 00442         CAL     THREE
      00276  0020 00 0 00302         TRA     COMMON
                              *
      00277 -0500 00 0 00444  DOLOAD CAL     DSLOAD
      00300  0602 00 0 00434         SLW     CMARG1
      00301 -0500 00 0 00437  COMM2  CAL     ZERO
      00302  0602 00 0 00435  COMMON SLW     CMARG
      00303  0074 00 4 00004         TSX     SETCLS,4
      00304  0 00001 0 00434         PZE     COMD,,1
      00305 -0500 00 0 00440         CAL     ONE
      00306  0602 00 0 00435         SLW     CMARG
      00307  0074 00 4 00004         TSX     SETCLS,4
      00310  0 00002 0 00434         PZE     COMD,,2
      00311  0074 00 4 00004         TSX     SETCLS,4
      00312  0 00003 0 00434         PZE     COMD,,3
      00313  0074 00 7 00000         TSX     NGETA,7
      00314  0600 00 0 74446         STZ     DEMKEY
      00315 -0500 00 0 00445         CAL     CHNWRD
      00316  0074 00 4 00007         TSX     SETCLC,4
      00317  0074 00 4 00002         TSX     CHNCOM,4
                              *
      00320  0074 00 4 00011  LLOT   TSX     FSTATE,4
      00321  3 00000 0 01472         PAR     =HDRSTOR
      00322  3 00000 0 01475         PAR     =HFILE.3
      00323  3 00001 0 00463         PAR     TEMP,,1
      00324  3 00000 0 00330         PAR     WAKEUP
      00325 -0500 00 0 01476  LLOT3  CAL     =HLOGOUT
      00326  0560 00 0 01504         LDQ     =O777777777777
      00327  0074 00 4 00012         TSX     NEXCOM,4
                              *
      00330                   WAKEUP PRCODE  PROTCT,MESG,5
 TD   00331  3 00000 0 00001         TXH     PROTCT                                                           .001
      00333                          PRCODE  SKIPIT,MESH,2
 TD   00334  3 00000 0 00002         TXH     SKIPIT                                                           .001
      00336 -0500 00 0 01467         CAL     =15
      00337  0074 00 4 00001         TSX     SLEEP,4
      00340                          TESTKY  PROTCT,INSRE
      00347                          TESTKY  SKIPIT,LLOT3
      00356  0020 00 0 00330         TRA     WAKEUP
      00357  0074 00 7 00000  INSRE  TSX     $NGETA,7
      00360  0560 00 0 74623         LDQ     SYSDAT
      00361 -0600 00 0 00470         STQ     T+2
      00362  0074 00 7 00000         TSX     $NGETA,7
      00363 -0500 00 0 74624         CAL     SYSTIM
      00364  0602 00 0 00467         SLW     T+1
      00365 -0500 00 0 01477         CAL     =HPROTCT
1            THE DAEMON DUMP/LOAD PROGRAM  G.F. CLANCY                           05/11/69 2000.3 PAGE 7

      00366  0602 00 0 00466         SLW     T
      00367  0074 00 4 00017  INSRE3 TSX     $PUTIN,4
      00370  3 00000 0 00471         PAR     IOBUF
      00371  3 00000 0 00466         PAR     T
      00372  3 00000 0 00374         PAR     ERROR
      00373  0020 00 0 00325         TRA     LLOT3
      00374                   ERROR  PRLINE  ( PRIMING FAILED, TRYING AGAIN),5,0
      00407  0020 00 0 00367         TRA     INSRE3
      00410  0634 00 4 00430  STATE  SXA     S4,4
      00411 -0500 00 4 00001         CAL     1,4
      00412  0621 00 0 00415         STA     A1
      00413  0621 00 0 00423         STA     A2
      00414  0074 00 4 00011         TSX     FSTATE,4
      00415  3 00000 0 00000  A1     PAR     **
      00416  3 00000 0 01473         PAR     =HFILE.1
      00417  3 00001 0 00463         PAR     TEMP,,1
      00420  3 00000 0 00422         PAR     *+2
      00421  0020 00 0 00432         TRA     YES
      00422  0074 00 4 00011         TSX     FSTATE,4
      00423  3 00000 0 00000  A2     PAR     **
      00424  3 00000 0 01474         PAR     =HFILE.2
      00425  3 00001 0 00463         PAR     TEMP,,1
      00426  3 00000 0 00430         PAR     *+2
      00427  0020 00 0 00432         TRA     YES
      00430  0774 00 4 00000  S4     AXT     **,4
      00431  0020 00 4 00003         TRA     3,4
      00432  0534 00 4 00430  YES    LXA     S4,4
      00433  0020 00 4 00002         TRA     2,4
                              *
                              *- - - - - - - - - - - - - - - - - - - - - - - -
                              *      MISCELANNY
                              *- - - - - - - - - - - - - - - - - - - - - - - -
                              *
                      074446  DEMKEY BOOL    74446
                      074624  SYSTIM BOOL    74624
                      074623  SYSDAT BOOL    74623
                      000017  BASE   BOOL    17
                      000001  LOAD   BOOL    1
                      000002  CDT    BOOL    2
                      000003  NFT    BOOL    3
                      000004  SAVE   BOOL    4
                      000005  NOSAVE BOOL    5
                      000006  LOGOUT BOOL    6
                      000001  PROTCT BOOL    1
                      000002  SKIPIT BOOL    2
                              *
      00434  0 00000 0 00000  CMARG1 PZE
                       00434  COMD   SYN     CMARG1
      00435  0 00000 0 00000  CMARG  PZE
      00436 -377777777777            OCT     777777777777
                              *
      00437  006060606060     ZERO   BCI     1,0
      00440  016060606060     ONE    BCI     1,1
      00441  026060606060     TWO    BCI     1,2
      00442  036060606060     THREE  BCI     1,3
      00443  246224644447     DSDUMP BCI     1,DSDUMP
1            THE DAEMON DUMP/LOAD PROGRAM  G.F. CLANCY                           05/11/69 2000.3 PAGE 8

      00444  246243462124     DSLOAD BCI     1,DSLOAD
      00445  0 00003 0 00001  CHNWRD PZE     1,,3
      00446 +000000077777     ALL    OCT     77777
      00447                   PBF    BSS     12
      00463  0 00000 0 00000  TEMP   PZE
      00464  0 00000 0 00000  KEYVAL PZE
      00465  0 00000 0 00000  LOADSW PZE
      00466                   T      BSS     3
      00471                   IOBUF  BSS     432
                              *
      01351  606346605125     MESA   BCI     6, TO RESUME DISK RELOADING, OR -
      01357  606346602725     MESB   BCI     6, TO GET COMPLETE DUMP OF DISK, OR
      01365  606346602225     MESC   BCI     6, TO BEGIN NEW FILE DUMPING
      01373  606346602163     MESD   BCI     6, TO ATTEMPT RECOVERY PROCEDURES
      01401  606346602122     MESE   BCI     6, TO ABANDON THE CURRENT TAPE
      01407  606346604346     MESF   BCI     4, TO LOGOUT THE DAEMON
      01413  606346604751     MESG   BCI     5, TO PROTECT THIS PERIOD
      01420  606346606242     MESH   BCI     2, TO SKIP IT
      01422  622563604225     MESEX  BCI     2,SET KEY CODE
                                     END
                                              REMOTE SEQUENCES
1            THE DAEMON DUMP/LOAD PROGRAM  G.F. CLANCY                           05/11/69 2000.3 PAGE 1
                        POST PROCESSOR ASSEMBLY DATA

       1505 IS THE FIRST LOCATION NOT USED BY THIS PROGRAM

0REFERENCES TO DEFINED SYMBOLS
        466      T   361,  364,  366,  371
        415     A1   412
        423     A2   413
        430     S4   410,  432
        446    ALL   100,  103,  106
          2    CDT   124,  152,  434
          3    NFT   127,  170,  434
        440    ONE   305
        447    PBF    33,   37,   42,   65,   71,   74,  177,  203,  206,  212,  216,  221,  376,  402,  405
        441    TWO   271
        432    YES   421,  427
         17   BASE   434
        434   COMD   304,  310,  312,  435
         27   ELOC    25
        320   LLOT   164
          1   LOAD   121,  143,  434
        116   LOOP   174
       1351   MESA   122
       1357   MESB   125
       1365   MESC   130
       1373   MESD   225
       1401   MESE   230
       1407   MESF   133,  233
       1413   MESG   332
       1420   MESH   335
         56   OVER    26
          4   SAVE   224,  241,  434
        463   TEMP   323,  417,  425
        437   ZERO   301
          3  ALLOT    76,  101,  104
        435  CMARG   302,  306
        301  COMM2   266
         53  ELOC1    27
         54  ELOC4    30
        374  ERROR   372
        357  INSRE   346
        471  IOBUF   370
       1424  ..003    32
       1432  ..006    64
       1442  ..009   176
       1452  ..012   211
       1457  ..015   375
        325  LLOT3   262,  355,  373
        112  LOOP1    62,  253
       1422  MESEX
          0  NGETA   140,  147,  156,  165,  236,  245,  254,  313,  340,  347,  357,  362
        147  NLDKY   137
         17  PUTIN   367
        175  SALVG   111,  263
          1  SLEEP   135,  235,  337
        410  STATE   107,  112
1            THE DAEMON DUMP/LOAD PROGRAM  G.F. CLANCY                           05/11/69 2000.3 PAGE 2
                        POST PROCESSOR ASSEMBLY DATA

        442  THREE   275
         10  WRFLX    36,   70,  202,  215,  401
          6 ATTACH    21
          2 CHNCOM    52,  317
        445 CHNWRD   315
        434 CMARG1   265,  270,  274,  300,  435
        302 COMMON   272,  276
        264 COMPDP   155
      74446 DEMKEY   141,  150,  157,  166,  237,  246,  255,  314,  341,  350,  434
        277 DOLOAD   146
        443 DSDUMP   264,  267,  273
        444 DSLOAD   277
         14 FERRTN    24
         11 FSTATE   320,  414,  422
          5 GETCOM    56
         13 GETIME
        367 INSRE3   407
        464 KEYVAL   142,  145,  151,  154,  160,  163,  167,  172,  240,  243,  247,  252,  256,  261,  342,  345,  351
                     354
        465 LOADSW   115,  116,  136
          6 LOGOUT   132,  161,  232,  257,  434
        267 NEWFIL   173
         12 NEXCOM   327
        123 NOLOAD   117
          5 NOSAVE   227,  250,  434
         16 PRCODE   120,  123,  126,  131,  223,  226,  231,  330,  333
         15 PRNTER    44
          1 PROTCT   331,  343,  434
        273 RDSDMP   244
          7 SETCLC   316
          4 SETCLS   303,  307,  311
          2 SKIPIT   334,  352,  434
      74623 SYSDAT   360,  434
      74624 SYSTIM   363,  434
        330 WAKEUP   324,  356

0 NO ERROR IN ABOVE ASSEMBLY.
1                                                                                05/11/69 2000.5 PAGE 1

                       00004         ENTRY   GETA
                       00005         ENTRY   NGETA
                                     EXTERN  GETLOC,SETLOC

        TRANSFER VECTOR
      00000  272563434623     GETLOC
      00001  622563434623     SETLOC

            LINKAGE DIRECTOR
      00002  000000000000
      00003  272563216060

      00004  0600 00 0 00067  GETA   STZ     NINDC
      00005 -0600 00 0 00072  NGETA  STQ     TMPMQ
      00006  0601 00 0 00071         STO     TMPAC
      00007  0602 00 0 00073         SLW     TMPACL
      00010  0634 00 7 00062         SXA     NGX7,7
      00011  0634 00 4 00063         SXA     NGX4,4
      00012  0604 00 0 00066         STI     INDIC
      00013  0441 00 7 00001         LDI     1,7
      00014  0520 00 0 00067         ZET     NINDC
      00015  0020 00 0 00031         TRA     GETL          DON'T COMPUTE EFFECTIVE ADDRESS
      00016 -0625 00 0 00067         STL     NINDC
      00017 -0046 00 0 00000         PIA
      00020  0074 00 7 00074  CKRL1  TSX     GETEFA,7      GET EFFECTIVE ADDRESS
      00021 -0056 00  000060         LNT     60            IS THERE INDIRECT ADDRESS
      00022  0020 00 0 00027         TRA     CKRL2         NO
      00023 -0057 00  000077         RIL     77            TURN OFF INDIRECT ADDRESS BITS
      00024  0737 00 7 00000         PAC     0,7
      00025 -0500 00 7 00000         CAL     0,7
      00026  0020 00 0 00020         TRA     CKRL1         COMPUTE FINAL ADDRESS
      00027  0057 00  777777  CKRL2  RIR     777777        FINAL ADDRESS IN AC NOW
      00030  0043 00 0 00000         OAI                   OP CODE IN INDICATOR
      00031 -0046 00 0 00000  GETL   PIA                   INSTRUCTION IN AC
      00032  0621 00 0 00055         STA     GA2
      00033  0621 00 0 00040         STA     GA            SET ADDRESS TO GET FROM CORE A
      00034  0622 00 0 00047         STD     XGA           SET OP CODE OF INSTRUCTION
      00035  0630 00 0 00047         STP     XGA
      00036  0625 00 0 00047         STT     XGA
      00037  0074 00 4 00000         TSX     GETLOC,4
      00040  0 00000 0 00000  GA     PZE     **
      00041  0602 00 0 00070         SLW     GTMP          WORD FROM CORE A INTO GTMP
      00042 -0500 00 0 00073         CAL     TMPACL
      00043  0560 00 0 00071         LDQ     TMPAC
      00044  0763 00 0 00000         LLS     0
      00045  0560 00 0 00072         LDQ     TMPMQ
      00046  0441 00 0 00066         LDI     INDIC
      00047  0 00000 0 00070  XGA    ***     GTMP          EXECUTE INSTRUCTION
      00050  0441 00 0 00047         LDI     XGA
      00051 -0056 00  060000         LNT     060000        IS THIS A STORE-TYPE INSTRUCTION
      00052  0020 00 0 00062         TRA     NGX7          NO
      00053 -0500 00 0 00070         CAL     GTMP
      00054  0074 00 4 00001         TSX     SETLOC,4
      00055  0 00000 0 00000  GA2    PZE     **
      00056 -0500 00 0 00073         CAL     TMPACL
      00057  0560 00 0 00071         LDQ     TMPAC
1                                                                                05/11/69 2000.5 PAGE 2

      00060  0763 00 0 00000         LLS     0
      00061  0560 00 0 00072         LDQ     TMPMQ
      00062  0774 00 7 00000  NGX7   AXT     **,7
      00063  0774 00 4 00000  NGX4   AXT     **,4
      00064  0441 00 0 00066         LDI     INDIC
      00065  0020 00 7 00002         TRA     2,7
      00066  0 00000 0 00000  INDIC  PZE     0
      00067 +000000777777     NINDC  OCT     777777
      00070  0 00000 0 00000  GTMP   PZE     0
      00071  0 00000 0 00000  TMPAC  PZE     0
      00072  0 00000 0 00000  TMPMQ  PZE     0
      00073  0 00000 0 00000  TMPACL PZE     0
      00074  0634 00 7 00102  GETEFA SXA     GETF7,7
      00075  0625 00 0 00077         STT     *+2           TAG
      00076  0734 00 7 00000         PAX     ,7            PTR
      00077 -0636 00 0 00100         SCD     *+1,**        -C(TAG)
      00100  1 00000 7 00101         TXI     *+1,7,**      PTH-C(TAG)
      00101  0754 00 7 00000         PXA     ,7            INTO AC
      00102  0774 00 7 00000  GETF7  AXT     **,7
      00103  0020 00 7 00001         TRA     1,7
                                     END
1                                                                                05/11/69 2000.5 PAGE 1
                        POST PROCESSOR ASSEMBLY DATA

        104 IS THE FIRST LOCATION NOT USED BY THIS PROGRAM

0REFERENCES TO DEFINED SYMBOLS
         40     GA    33
         55    GA2    32
         47    XGA    34,   35,   36,   50
          4   GETA     0
         31   GETL    15
         70   GTMP    41,   47,   53
         63   NGX4    11
         62   NGX7    10,   52
         20  CKRL1    26
         27  CKRL2    22
        102  GETF7    74
         66  INDIC    12,   46,   64
          5  NGETA     0
         67  NINDC     4,   14,   16
         71  TMPAC     6,   43,   57
         72  TMPMQ     5,   45,   61
         74 GETEFA    20
          0 GETLOC    37
          1 SETLOC    54
         73 TMPACL     7,   42,   56

0 NO ERROR IN ABOVE ASSEMBLY.
1     FAP ASSEMBLY LISTING  ...  ...  ...        FILE PRCODE _____FAP___         05/11/69 2000.7 PAGE 1

                       00003         ENTRY   PRCODE
                                     EXTERN  WRFLX

        TRANSFER VECTOR
      00000  665126436760     WRFLX

            LINKAGE DIRECTOR
      00001  000000000000
      00002  475123462425

      00003  0634 00 1 00042  PRCODE SXA     P1,1
      00004  0634 00 4 00043         SXA     P4,4
      00005 -0500 00 4 00001         CAL     1,4
      00006  0400 00 0 00063         ADD     =O17
      00007  0322 00 0 00064         ERA     =O506060600000
      00010 -0765 00 0 00014         LGR     12
      00011 -0773 00 0 00006         RQL     6
      00012  0774 00 1 00002         AXT     2,1
      00013  0767 00 0 00003         ALS     3
      00014 -0763 00 0 00003         LGL     3
      00015  2 00001 1 00013         TIX     *-2,1,1
      00016  0602 00 0 00047         SLW     MESX+2
      00017 -0500 00 4 00002         CAL     2,4
      00020 -0734 00 1 00000         PDX     ,1
      00021 -0634 00 1 00030         SXD     INC,1
      00022 -0634 00 1 00031         SXD     INC+1,1
      00023  0634 00 1 00034         SXA     INC+4,1
      00024  1 00003 1 00025         TXI     *+1,1,3
      00025 -0634 00 1 00041         SXD     PRNT,1
      00026  0734 00 1 00000         PAX     ,1
      00027  0774 00 4 00050         AXT     MESX+3,4
      00030  1 00000 1 00031  INC    TXI     *+1,1,**
      00031  1 00000 4 00032         TXI     *+1,4,**
      00032  0634 00 1 00035         SXA     FROM,1
      00033  0634 00 4 00036         SXA     TO,4
      00034  0774 00 1 00000         AXT     **,1
      00035 -0500 00 1 00000  FROM   CAL     **,1
      00036  0602 00 1 00000  TO     SLW     **,1
      00037  2 00001 1 00035         TIX     *-2,1,1
      00040  0074 00 4 00000         TSX     WRFLX,4
      00041  0 00000 0 00045  PRNT           MESX,,**
      00042  0774 00 1 00000  P1     AXT     **,1
      00043  0774 00 4 00000  P4     AXT     **,4
      00044  0020 00 4 00003         TRA     3,4
                              *
      00045  622563604225     MESX   BCI     2,SET KEY CODE
      00046  706023462425
      00047                          BSS     12
                                     END

        LITERALS
      00063  000000000017
      00064  506060600000
1     FAP ASSEMBLY LISTING  ...  ...  ...        FILE PRCODE _____FAP___         05/11/69 2000.7 PAGE 1
                        POST PROCESSOR ASSEMBLY DATA

         65 IS THE FIRST LOCATION NOT USED BY THIS PROGRAM

0REFERENCES TO DEFINED SYMBOLS
         42     P1     3
         43     P4     4
         36     TO    33
         30    INC    21,   22,   23
         35   FROM    32
         45   MESX    16,   27,   41
         41   PRNT    25
          0  WRFLX    40
          3 PRCODE     0

0 NO ERROR IN ABOVE ASSEMBLY.
1            THIS IS A COOL PROGRAM                                              05/11/69 2000.6 PAGE 1

                              *
                                     EXTERN  OPEN,BUFFER,CLOSE,RDFILE,WRFILE
                                     EXTERN  CHFILE,FWAIT,DELFIL,FSTATE
                              *
                       00013         ENTRY   PUTIN
                       00027         ENTRY   GETOUT
                              *

      00000  464725456060     OPEN
      00001  226426262551     BUFFER
      00002  234346622560     CLOSE
      00003  512426314325     RDFILE
      00004  665126314325     WRFILE
      00005  233026314325     CHFILE
      00006  266621316360     FWAIT
      00007  242543263143     DELFIL
      00010  266263216325     FSTATE


      00013 -0500 00 0 00150  PUTIN  CAL     =HW
      00014  0602 00 0 00140         SLW     STATUS
      00015 -0500 00 0 00142         CAL     WRITE
      00016  0602 00 0 00065         SLW     IO
      00017  0600 00 0 00134         STZ     FINGER
      00020  0634 00 4 00106         SXA     I4,4
      00021  0074 00 4 00002         TSX     CLOSE,4
 TD   00022  3 00000 0 00135         TXH     NAME1
 TD   00023  3 00000 0 00136         TXH     NAME2
 TD   00024  3 00000 0 00025         TXH     *+1
      00025  0074 00 4 00116         TSX     DELDRS,4
      00026  0020 00 0 00042         TRA     HOP
      00027 -0500 00 0 00147  GETOUT CAL     =HR
      00030  0602 00 0 00140         SLW     STATUS
      00031 -0500 00 0 00141         CAL     READ
      00032  0602 00 0 00065         SLW     IO
      00033 -0625 00 0 00134         STL     FINGER
      00034  0634 00 4 00106         SXA     I4,4
      00035  0074 00 4 00010         TSX     FSTATE,4
 TD   00036  3 00000 0 00135         TXH     NAME1
 TD   00037  3 00000 0 00136         TXH     NAME2
      00040  3 00001 0 00137         TXH     TEMP,,1
 TD   00041  3 00000 0 00112         TXH     ERROR
      00042  0634 00 2 00110  HOP    SXA     I2,2
      00043  0634 00 1 00107         SXA     I1,1
      00044  0534 00 4 00106         LXA     I4,4
      00045 -0500 00 4 00001         CAL     1,4
      00046  0621 00 0 00063         STA     BUFFAD
      00047 -0500 00 4 00002         CAL     2,4
      00050  0621 00 0 00071         STA     WHERE
      00051  0074 00 4 00000         TSX     OPEN,4
 TD   00052  3 00000 0 00140         TXH     STATUS
 TD   00053  3 00000 0 00135         TXH     NAME1
 TD   00054  3 00000 0 00136         TXH     NAME2
 TD   00055  3 00000 0 00145         TXH     =O120
 TD   00056  3 00000 0 00146         TXH     =-0
 TD   00057  3 00000 0 00112         TXH     ERROR
1            THIS IS A COOL PROGRAM                                              05/11/69 2000.6 PAGE 2

      00060  0074 00 4 00001         TSX     BUFFER,4
 TD   00061  3 00000 0 00135         TXH     NAME1
 TD   00062  3 00000 0 00136         TXH     NAME2
      00063  3 00660 0 00000  BUFFAD TXH     **,,432
 TD   00064  3 00000 0 00112         TXH     ERROR
      00065  0 00000 0 00000  IO     ***     **,,**
 TD   00066  3 00000 0 00135         TXH     NAME1
 TD   00067  3 00000 0 00136         TXH     NAME2
 TD   00070  3 00000 0 00144         TXH     =1
      00071  3 00003 0 00000  WHERE  TXH     **,,3
 TD   00072  3 00000 0 00112         TXH     ERROR
 TD   00073  3 00000 0 00137         TXH     TEMP
 TD   00074  3 00000 0 00112         TXH     ERROR
      00075  0074 00 4 00006         TSX     FWAIT,4
 TD   00076  3 00000 0 00135         TXH     NAME1
 TD   00077  3 00000 0 00136         TXH     NAME2
 TD   00100  3 00000 0 00112         TXH     ERROR
      00101  0074 00 4 00002         TSX     CLOSE,4
 TD   00102  3 00000 0 00135         TXH     NAME1
 TD   00103  3 00000 0 00136         TXH     NAME2
      00104  0520 00 0 00134         ZET     FINGER
      00105  0074 00 4 00116         TSX     DELDRS,4
      00106  0774 00 4 00000  I4     AXT     **,4
      00107  0774 00 1 00000  I1     AXT     **,1
      00110  0774 00 2 00000  I2     AXT     **,2
      00111  0020 00 4 00004         TRA     4,4
      00112  0534 00 4 00106  ERROR  LXA     I4,4
      00113  0534 00 1 00107         LXA     I1,1
      00114  0534 00 2 00110         LXA     I2,2
      00115  0020 60 4 00003         TRA*    3,4
                              *
      00116  0634 00 4 00132  DELDRS SXA     DEL4,4
      00117  0074 00 4 00005         TSX     CHFILE,4
 TD   00120  3 00000 0 00135         TXH     NAME1
 TD   00121  3 00000 0 00136         TXH     NAME2
 TD   00122  3 00000 0 00143         TXH     =0
 TD   00123  3 00000 0 00146         TXH     =-0
 TD   00124  3 00000 0 00146         TXH     =-0
 TD   00125  3 00000 0 00126         TXH     *+1
      00126  0074 00 4 00007         TSX     DELFIL,4
 TD   00127  3 00000 0 00135         TXH     NAME1
 TD   00130  3 00000 0 00136         TXH     NAME2
 TD   00131  3 00000 0 00132         TXH     *+1
      00132  0774 00 4 00000  DEL4   AXT     **,4
      00133  0020 00 4 00001         TRA     1,4
                              *
      00134  0 00000 0 00000  FINGER PZE
      00135  245162634651     NAME1  BCI     1,DRSTOR
      00136  263143253303     NAME2  BCI     1,FILE.3
      00137  0 00000 0 00000  TEMP   PZE
      00140  0 00000 0 00000  STATUS PZE
      00141  0074 00 4 00003  READ   TSX     RDFILE,4
      00142  0074 00 4 00004  WRITE  TSX     WRFILE,4
                                     END
1            THIS IS A COOL PROGRAM                                              05/11/69 2000.6 PAGE 1
                        POST PROCESSOR ASSEMBLY DATA

        151 IS THE FIRST LOCATION NOT USED BY THIS PROGRAM

0REFERENCES TO DEFINED SYMBOLS
        107     I1    43,  113
        110     I2    42,  114
        106     I4    20,   34,   44,  112
         65     IO    16,   32
         42    HOP    26
        132   DEL4   116
          0   OPEN    51
        141   READ    31
        137   TEMP    40,   73
          2  CLOSE    21,  101
        112  ERROR    41,   57,   64,   72,   74,  100
          6  FWAIT    75
        135  NAME1    22,   36,   53,   61,   66,   76,  102,  120,  127
        136  NAME2    23,   37,   54,   62,   67,   77,  103,  121,  130
         13  PUTIN     0
         71  WHERE    50
        142  WRITE    15
         63 BUFFAD    46
          1 BUFFER    60
          5 CHFILE   117
        116 DELDRS    25,  105
          7 DELFIL   126
        134 FINGER    17,   33,  104
         10 FSTATE    35
         27 GETOUT     0
          3 RDFILE   141
        140 STATUS    14,   30,   52
          4 WRFILE   142

0 NO ERROR IN ABOVE ASSEMBLY.


DSDUMP   BCD 05/11/69 2036.0  120696         00000
1           INCREMENTAL NEW FILES DUMP AND COMPLETE DUMP...M.J.BAILEY,12/31/64   05/11/69 2009.2 PAGE 1

                              *              (MAIN PROGRAM)
                                     EXTERN  BUFFER,SETFIL,FSTATE,DELFIL,ATTACH
                                     EXTERN  SETCLS,SETCLC
                                     EXTERN  OPEN,CLOSE,SLEEP,WRFLX,WRFILE
                                     EXTERN  FWAIT,UMOUNT,FERRTN,TILOCK,GETCOM
                                     EXTERN  NEXCOM,CHFILE,GETIME,CHNCOM
                              *
                                     INSERT  DMCRSA
                              *
                              *      MACRO TO WRITE N WORDS FROM ARRAY ET SEQ ONTO ALREADY OPENED
                              *      SECONDARY STORAGE FILE (NAME1,NAME2) AND WAIT UNTIL TRANSMITTED.
                              *
                               WSSF  MACRO   ARRAY,N,NAME1,NAME2
                                     TSX     ATTACH,4      RE-ATTACH TO DUMPER'S FILES
                                     TXH     DMPUSR
                                     TXH     DMPRGR
                                     TSX     WRFILE,4      WRITE
                                     TXH     NAME1         ONTO (NAME1,
                                     TXH     NAME2         NAME2)
                                     TXH     =0            AT POSITION WHERE LAST CEASED
                                     TIX     ARRAY,,N      FROM ARRAY THROUGH ARRAY+N-1
                                     TSX     FWAIT,4       WAIT
                                     TXH     NAME1
                                     TXH     NAME2
                               WSSF  END
                              *
                              *  ZERO-IZE A THROUGH A+X-1
                              *
                               CLEAR MACRO   A,X
                                     AXT     X,1
                                     STZ     A+X,1
                                     TIX     *-1,1,1
                               CLEAR END
                              *
                              *      MOVE X WORDS FROM A ET SEQ TO B ET SEQ
                              *
                               MOVE  MACRO   X,A,B
                                     AXT     X,1
                                     CAL     A+X,1
                                     SLW     B+X,1
                                     TIX     *-2,1,1
                               MOVE  END
                              *
                              *      PRINT ONE LINE, CLEAR BUFFER
                              *
                              PRBUFF MACRO   BUFF,NWDS
                                     SXA     *+3,4
                                     TSX     WRFLX,4
                                             BUFF,,NWDS
                                     AXT     **,4
                                     CLEAR   BUFF,NWDS
                              PRBUFF END
                              *
                              *      PRINT STANDARD BEGINNING TO DUMPER ERROR MESSAGE
                              *
                              BGNERM MACRO   TYPE
1           INCREMENTAL NEW FILES DUMP AND COMPLETE DUMP...M.J.BAILEY,12/31/64   05/11/69 2009.2 PAGE 2

                                     SXA     *+3,4
                                     TSX     $BERM,4
                                     PZE     TYPE
                                     AXT     **,4
                              BGNERM END
                              *
                              *  PRINT ONE LINE COMMENT
                              *
                              PRLINE MACRO   COMNT,NWC,N,WORD1,WORD2,LOC
                                     IFF     0,NWC,0
                                     MOVE    NWC,LOC,PBF
                                     IFF     N-2,N,1
                                     CAL     WORD1
                                     IFF     N-2,N,1
                                     SLW     PBF+NWC
                                     IFF     1,N,2
                                     CAL     WORD2
                                     IFF     1,N,2
                                     SLW     PBF+NWC+1
                                     PRBUFF  PBF,NWC+N
                                     RMT
                               LOC   BCI     NWC,COMNT
                                     RMT
                              PRLINE END
                              *
                              *      PRINT ONE LINE MESSAGE
                              *
                              PRMESS MACRO   MESNAM,N,ADR1,ADR2
                                     TSX     $PRLINE,4
                                     BCI     1,MESNAM
                                     IFF     N,N,N
                                     TXH     ADR1
                                     IFF     N,N,N
                                     TXH     ADR2
                              PRMESS END
                              *
                              *      MACRO TO OPEN FILE (X,Y) OF USER (A,B) FOR READING
                              *      AND ASSIGN BUFFER F OF LENGTH L TO I/O SYSTEM FOR THAT PURPOSE.
                              *        ( ERR IS TRANSFER ADDRESS FOR ERROR RETURN )
                              *
                              RDOPEN MACRO   X,Y,A,B,F,L,ERR
                                     TSX     ATTACH,4      ATTACH TO USER (A,B)
                                     TXH     A
                                     TXH     B
                                     TSX     OPEN,4        OPEN FILE (X,Y) FOR READING
                                     TXH     R
                                     TXH     X
                                     TXH     Y
                                     TXH     =0
                                     TXH     =0
                                     TXH     ERR           (TRANSFER ADDRESS FOR ERROR)
                                     TSX     BUFFER,4      ASSIGN L WORDS OF BUFFER F TO (X,Y)
                                     TXH     X
                                     TXH     Y
                                     TIX     F,,L
                              RDOPEN END
1           INCREMENTAL NEW FILES DUMP AND COMPLETE DUMP...M.J.BAILEY,12/31/64   05/11/69 2009.2 PAGE 3

                              *
                              *      PRINT ERROR CODE, END MESSAGE
                              *
                                ERTN MACRO   ADRERR
                                     SXA     *+2,4
                                     TSX     $ERREND,4
                                     AXT     **,4
                                     TRA     ADRERR
                                ERTN END
                              *
                              *      ASK OPERATOR TO SET KEY CODE DC IF HE WANTS
                              *      ACTION GIVEN BY N-WORD MESSAGE M
                              *
                              PRCODE MACRO   DC,M,N
                                     TSX     $PRCODE,4
                                     TXH     DC
                                     TXH     M,,N
                              PRCODE END
                              *
                              *      TEST LAST KEY SETTING VIA SUPERVISOR, GO TO JUMP IF IT IS CODE
                              *
                              TESTKY MACRO   CODE,JUMP
                                     TSX     $NGETA,7
                                     LDQ     DEMKEY
                                     STQ     KEYVAL
                                     AXT     CODE,1
                                     PXA     0,1
                                     SUB     KEYVAL
                                     TZE     JUMP
                              TESTKY END
                              *
                              *      SET UP LOGICAL TAPE RECORD WRITING
                              *
                              LOGREC MACRO   X
                                     CLA     LTPBF
                                     SUB     =12
                                     STO     TEMP
                                     CAL     X+4
                                     ANA     =O77777
                                     STO     RCOUNT
                                     TSX     $NLREC,4
                                     TXH     NORECS
                                     TXH     RCOUNT
                                     TXH     LCOUNT
                                     TXH     TEMP
                                     TXH     =12
                                     TXH     PHYSRC
                                     TXH     NFLR
                                     TXH     NLAST
                              LOGREC END
                              *
                              *
                              ATTACH MACRO   A,B
                                     TSX     ATTACH,4
                                     TXH     A
                                     TXH     B
1           INCREMENTAL NEW FILES DUMP AND COMPLETE DUMP...M.J.BAILEY,12/31/64   05/11/69 2009.2 PAGE 4

                              ATTACH END
                              *
                              *      PRINT ERROR MESSAGE AND INTERROGATE KEYS
                              *
                              PRERR  MACRO
                                     TSX     $PRNTER,4
                                     TSX     $GDSIG,4
                              PRERR  END
                              *
                              *
                              *
                              *  .  .  .  .  .  .  .  .  .  .  .  .  .  .  .  .  .  .  .  .
                              *      START OF MAIN PROGRAM
                              *  .  .  .  .  .  .  .  .  .  .  .  .  .  .  .  .  .  .  .  .
                              *

        TRANSFER VECTOR
      00000  226426262551     BUFFER
      00001  622563263143     SETFIL
      00002  266263216325     FSTATE
      00003  242543263143     DELFIL
      00004  216363212330     ATTACH
      00005  622563234362     SETCLS
      00006  622563234323     SETCLC
      00007  464725456060     OPEN
      00010  234346622560     CLOSE
      00011  624325254760     SLEEP
      00012  665126436760     WRFLX
      00013  665126314325     WRFILE
      00014  266621316360     FWAIT
      00015  644446644563     UMOUNT
      00016  262551516345     FERRTN
      00017  633143462342     TILOCK
      00020  272563234644     GETCOM
      00021  452567234644     NEXCOM
      00022  233026314325     CHFILE
      00023  272563314425     GETIME
      00024  233045234644     CHNCOM
      00025  475145632551     PRNTER
      00026  272462312760     GDSIG
      00027  452725632160     NGETA
      00030  272463627062     GDTSYS
      00031  272563466463     GETOUT
      00032  246362216525     DTSAVE
      00033  245162634651     DRSTOR
      00034  622165442147     SAVMAP
      00035  212424633144     ADDTIM
      00036  512444262460     RDMFD
      00037  512426606060     RDF
      00040  222551446060     BERM
      00041  255151254524     ERREND
      00042  622426606060     SDF
      00043  624426606060     SMF
      00044  314622246360     IOBDT
      00045  272463606060     GDT
      00046  244447263143     DMPFIL
1           INCREMENTAL NEW FILES DUMP AND COMPLETE DUMP...M.J.BAILEY,12/31/64   05/11/69 2009.2 PAGE 5

      00047  242370234325     DCYCLE
      00050  475123462425     PRCODE
      00051  254426606060     EMF
      00052  244426606060     DMF
      00053  664430606060     WMH
      00054  626422242170     SUBDAY
      00055  246462510160     DUSR1
      00056  234223462425     CKCODE

      00057  0600 00 0 60261         STZ     ALOG
      00060  0760 00 0 00016         LMTM
      00061 -0500 00 0 03602         CAL     =H 99999
      00062  0602 00 0 62726         SLW     DMPRGR
      00063 -0500 00 0 03603         CAL     =H C0056
      00064  0602 00 0 62727         SLW     DMPUSR
      00065  0074 00 4 00004         TSX     ATTACH,4
 TD   00066  3 00000 0 62727         TXH     DU
 TD   00067  3 00000 0 62726         TXH     DP
      00070  0500 00 0 03545         CLA     =4
      00071  0601 00 0 62725         STO     MFD1W
      00072  0074 00 4 00016         TSX     FERRTN,4      SET ADDRESS FOR UNSPECIFIED
      00073  0 00000 0 00075         PZE     ELOC          I/O SYSTEM ERROR RETURN
      00074  0020 00 0 00117         TRA     D3
                              *
      00075  0634 00 4 00115  ELOC   SXA     ELOC4,4       UNSPECIFIED ERROR RETURN FROM I/O SYSTEM
      00076  0634 00 1 00114         SXA     ELOC1,1
      00077                          MOVE    9,MESX,PBF
      00077  0774 00 1 00011         AXT     9,1                                                              .001
      00100 -0500 00 1 03034         CAL     MESX+9,1                                                         .001
      00101  0602 00 1 64537         SLW     PBF+9,1                                                          .001
      00102  2 00001 1 00100         TIX     *-2,1,1                                                          .001
      00103                          PRBUFF  PBF,9
      00103  0634 00 4 00106         SXA     *+3,4                                                            .001
      00104  0074 00 4 00012         TSX     WRFLX,4                                                          .001
      00105  0 00011 0 64526                 PBF,,9                                                           .001
      00106  0774 00 4 00000         AXT     **,4                                                             .001
      00107                          CLEAR   PBF,9                                                            .001
      00107  0774 00 1 00011         AXT     9,1                                                              .002
      00110  0600 00 1 64537         STZ     PBF+9,1                                                          .002
      00111  2 00001 1 00110         TIX     *-1,1,1                                                          .002
      00112                          PRERR
      00112  0074 00 4 00025         TSX     $PRNTER,4                                                        .001
      00113  0074 00 4 00026         TSX     $GDSIG,4                                                         .001
      00114  0774 00 1 00000  ELOC1  AXT     **,1
      00115  0774 00 4 00000  ELOC4  AXT     **,4
      00116  0020 00 4 00001         TRA     1,4
                              *
      00117  0074 00 4 00017  D3     TSX     TILOCK,4      SET ADDRESS FOR UNEXPECTED READ-INTERLOCK
      00120  0 00000 0 00122         PZE     ILOC
      00121  0020 00 0 00142         TRA     D4            SKIP
                              *
      00122  0634 00 4 00140  ILOC   SXA     ILOC4,4       READ INTERLOCK TRAP
      00123  0634 00 1 00137         SXA     ILOC1,1
      00124                          PRLINE  ( UNEXPECTED READ INTERLOCK TRAP IN DUMPER.),7,0
      00124                          MOVE    7,..003,PBF                                                      .001
      00124  0774 00 1 00007         AXT     7,1                                                              .002
1           INCREMENTAL NEW FILES DUMP AND COMPLETE DUMP...M.J.BAILEY,12/31/64   05/11/69 2009.2 PAGE 6

      00125 -0500 00 1 03460         CAL     ..003+7,1                                                        .002
      00126  0602 00 1 64535         SLW     PBF+7,1                                                          .002
      00127  2 00001 1 00125         TIX     *-2,1,1                                                          .002
      00130                          PRBUFF  PBF,7+0                                                          .001
      00130  0634 00 4 00133         SXA     *+3,4                                                            .002
      00131  0074 00 4 00012         TSX     WRFLX,4                                                          .002
      00132  0 00007 0 64526                 PBF,,7+0                                                         .002
      00133  0774 00 4 00000         AXT     **,4                                                             .002
      00134                          CLEAR   PBF,7+0                                                          .002
      00134  0774 00 1 00007         AXT     7+0,1                                                            .003
      00135  0600 00 1 64535         STZ     PBF+7+0,1                                                        .003
      00136  2 00001 1 00135         TIX     *-1,1,1                                                          .003
                                     RMT                                                                      .001
                              ..003  BCI     7, UNEXPECTED READ INTERLOCK TRAP IN DUMPER.                     .001
                                     RMT                                                                      .001
      00137  0774 00 1 00000  ILOC1  AXT     **,1
      00140  0774 00 4 00000  ILOC4  AXT     **,4
      00141  0020 00 4 00001         TRA     1,4           BLUNDER ON
                              *
      00142  0500 00 0 03060  D4     CLA     PBBASE        SET PERCENTAGE
      00143  0074 00 7 00027         TSX     $NGETA,7
      00144  0601 00 0 74674         STO     PB+2
      00145 -0500 00 0 03575         CAL     =H.DUMP.
      00146  0602 00 0 62723         SLW     NFN1
      00147  0602 00 0 62721         SLW     NFN2
      00150 -0500 00 0 03567         CAL     =HFILE.1
      00151  0602 00 0 62724         SLW     NFN1+1
      00152 -0500 00 0 03570         CAL     =HFILE.2
      00153  0602 00 0 62722         SLW     NFN2+1
      00154  0074 00 4 00020         TSX     GETCOM,4
      00155  0 00000 0 00001         PZE     1
      00156  0602 00 0 00333         SLW     ARGSAV
      00157  0074 00 4 00005         TSX     SETCLS,4
      00160  0 00001 0 00327         PZE     COMD,,1
      00161  0074 00 4 00005         TSX     SETCLS,4
      00162  0 00002 0 00327         PZE     COMD,,2
      00163 -0500 00 0 00332         CAL     CHNWRD
      00164  0074 00 4 00006         TSX     SETCLC,4
                              *
      00165  0074 00 7 00027         TSX     $NGETA,7
      00166 -0500 00 0 74624         CAL     SYSTIM
      00167  0074 00 7 00027         TSX     $NGETA,7
      00170  0560 00 0 74623         LDQ     SYSDAT
      00171  0074 00 4 00030         TSX     $GDTSYS,4
      00172  0602 00 0 00334         SLW     TMPSYS
                              *
      00173  0074 00 4 00010         TSX     CLOSE,4
 TD   00174  3 00000 0 03562         TXH     =HALL
      00175  0074 00 4 00015         TSX     UMOUNT,4
 TD   00176  3 00000 0 03562         TXH     =HALL
      00177  2 03265 0 03253         TIX     ALLMES,,LALMES
      00200  0074 00 4 00002         TSX     FSTATE,4
 TD   00201  3 00000 0 03566         TXH     =HDRSTOR
 TD   00202  3 00000 0 03567         TXH     =HFILE.1
      00203  3 00001 0 00325         TXH     TEMPS,,1
 TD   00204  3 00000 0 00206         TXH     *+2
1           INCREMENTAL NEW FILES DUMP AND COMPLETE DUMP...M.J.BAILEY,12/31/64   05/11/69 2009.2 PAGE 7

      00205  0020 00 0 00246         TRA     RESET
      00206  0074 00 4 00002         TSX     FSTATE,4
 TD   00207  3 00000 0 03566         TXH     =HDRSTOR
 TD   00210  3 00000 0 03570         TXH     =HFILE.2
      00211  3 00001 0 00325         TXH     TEMPS,,1
 TD   00212  3 00000 0 00214         TXH     *+2
      00213  0020 00 0 00246         TRA     RESET
      00214  0074 00 4 00031         TSX     $GETOUT,4
 TD   00215  3 00000 0 63630         TXH     IOBUF
 TD   00216  3 00000 0 00321         TXH     T
 TD   00217  3 00000 0 00221         TXH     *+2
      00220  0020 00 0 00312         TRA     AFFIX
      00221 -0500 00 0 00334         CAL     TMPSYS
      00222  0602 00 0 62730         SLW     DAWN
      00223 -0500 00 0 62730  PUMP   CAL     DAWN
      00224  0602 00 0 60255         SLW     ODAWN
      00225  0600 00 0 60262         STZ     TFOSW
      00226  0074 00 4 00032         TSX     $DTSAVE,4
      00227  0761 00 0 00000         NOP
      00230  0074 00 4 00032         TSX     $DTSAVE,4
      00231  0761 00 0 00000         NOP
      00232  0600 00 0 77456         STZ     NMFDU
      00233 -0500 00 0 03600         CAL     =HRESTOR
      00234  0602 00 0 03044         SLW     NAME1
      00235  0074 00 4 00335         TSX     DDR,4
      00236 -0500 00 0 00333         CAL     ARGSAV
      00237 -0340 00 0 03556         LAS     =H0
      00240  0020 00 0 00242         TRA     *+2
      00241  0020 00 0 01371         TRA     CDUMP
      00242 -0340 00 0 03560         LAS     =H2
      00243  0020 00 0 00245         TRA     *+2
      00244  0020 00 0 00366         TRA     IDUMP
      00245  0074 00 4 00024         TSX     CHNCOM,4
                              *
                              *
      00246  0074 00 4 00033  RESET  TSX     $DRSTOR,4
      00247  0020 00 0 00246         TRA     *-1
      00250 -0500 00 0 62730         CAL     DAWN
      00251 -0100 00 0 00254         TNZ     *+3
      00252 -0500 00 0 00334         CAL     TMPSYS
      00253  0602 00 0 62730         SLW     DAWN
      00254  0074 00 4 00031         TSX     $GETOUT,4
 TD   00255  3 00000 0 63630         TXH     IOBUF
 TD   00256  3 00000 0 00321         TXH     T
 TD   00257  3 00000 0 00270         TXH     RSME
      00260 -0500 00 0 00322         CAL     T+1
      00261  0560 00 0 00323         LDQ     T+2
      00262  0074 00 4 00030         TSX     $GDTSYS,4
      00263  0602 00 0 00324         SLW     DWNTMP
      00264  0402 00 0 62730         SUB     DAWN
      00265  0120 00 0 00270         TPL     RSME
      00266 -0500 00 0 00324         CAL     DWNTMP
      00267  0602 00 0 62730         SLW     DAWN
      00270 -0500 00 0 00333  RSME   CAL     ARGSAV
      00271 -0340 00 0 03561         LAS     =H3
      00272  0020 00 0 00223         TRA     PUMP
1           INCREMENTAL NEW FILES DUMP AND COMPLETE DUMP...M.J.BAILEY,12/31/64   05/11/69 2009.2 PAGE 8

      00273  0020 00 0 00275         TRA     *+2
      00274  0020 00 0 00223         TRA     PUMP
      00275  0520 00 0 60243         ZET     SKELSW
      00276  0020 00 0 00316         TRA     RIDUMP
      00277 -0520 00 0 60266         NZT     CDSW
      00300  0020 00 0 00316         TRA     RIDUMP
      00301  0500 00 0 60262         CLA     TFOSW
      00302  0100 00 0 01371         TZE     CDUMP
      00303  0402 00 0 03542         SUB     =1
      00304 -0100 00 0 00306         TNZ     *+2
      00305  0020 00 0 01371         TRA     CDUMP
      00306 -0625 00 0 00326         STL     UDTSW
      00307  0074 00 4 00034         TSX     $SAVMAP,4
 TD   00310  3 00000 0 03541         TXH     =0
      00311  0020 00 0 01534         TRA     UDTPAT
                              *
      00312 -0500 00 0 00322  AFFIX  CAL     T+1
      00313  0560 00 0 00323         LDQ     T+2
      00314  0074 00 4 00030         TSX     $GDTSYS,4
      00315  0020 00 0 00222         TRA     PUMP-1
                              *
      00316  0074 00 4 00034  RIDUMP TSX     $SAVMAP,4
 TD   00317  3 00000 0 03450         TXH     IMPINS
      00320  0020 00 0 00366         TRA     IDUMP
                              *
      00321                   T      BSS     3
      00324  0 00000 0 00000  DWNTMP PZE
      00325  0 00000 0 00000  TEMPS  PZE
      00326  0 00000 0 00000  UDTSW  PZE
      00327  242125444645     COMD   BCI     1,DAEMON
      00330  006060606060            BCI     1,0
      00331 -377777777777            OCT     777777777777
      00332  0 00002 0 00001  CHNWRD PZE     1,,2
      00333  0 00000 0 00000  ARGSAV PZE
      00334  0 00000 0 00000  TMPSYS PZE
                              *
      00335  0634 00 4 00364  DDR    SXA     DDR4,4
      00336  0074 00 4 00022         TSX     CHFILE,4
 TD   00337  3 00000 0 03044         TXH     NAME1
 TD   00340  3 00000 0 03567         TXH     =HFILE.1
 TD   00341  3 00000 0 03541         TXH     =0
 TD   00342  3 00000 0 03576         TXH     =-0
 TD   00343  3 00000 0 03576         TXH     =-0
 TD   00344  3 00000 0 00345         TXH     *+1
      00345  0074 00 4 00003         TSX     DELFIL,4
 TD   00346  3 00000 0 03044         TXH     NAME1
 TD   00347  3 00000 0 03567         TXH     =HFILE.1
 TD   00350  3 00000 0 00351         TXH     *+1
      00351  0074 00 4 00022         TSX     CHFILE,4
 TD   00352  3 00000 0 03044         TXH     NAME1
 TD   00353  3 00000 0 03570         TXH     =HFILE.2
 TD   00354  3 00000 0 03541         TXH     =0
 TD   00355  3 00000 0 03576         TXH     =-0
 TD   00356  3 00000 0 03576         TXH     =-0
 TD   00357  3 00000 0 00360         TXH     *+1
      00360  0074 00 4 00003         TSX     DELFIL,4
1           INCREMENTAL NEW FILES DUMP AND COMPLETE DUMP...M.J.BAILEY,12/31/64   05/11/69 2009.2 PAGE 9

 TD   00361  3 00000 0 03044         TXH     NAME1
 TD   00362  3 00000 0 03570         TXH     =HFILE.2
 TD   00363  3 00000 0 00364         TXH     *+1
      00364  0774 00 4 00000  DDR4   AXT     **,4
      00365  0020 00 4 00001         TRA     1,4
                              *  .  .  .  .  .  .  .  .  .  .  .  .  .  .  .  .  .  .
                              *      START OF INCREMENTAL NEW FILE DUMP
                              *  .  .  .  .  .  .  .  .  .  .  .  .  .  .  .  .  .  .
                              *
      00366  0600 00 0 60266  IDUMP  STZ     CDSW
      00367 -0500 00 0 00334         CAL     TMPSYS
      00370  0074 00 4 00035         TSX     $ADDTIM,4
 TD   00371  3 00000 0 03063         TXH     DAY
      00372  0602 00 0 61157         SLW     DUSK          SET DUSK = DAWN + (LENGTH OF 'DAY')
      00373  0500 00 0 03542         CLA     =1
      00374  0601 00 0 03066         STO     J             J=1
                              *
                              *  .  .  .  .  .  .  .  .  .  .  .  .  .  .  .  .  .  .  .  .
                              *   INITIALIZE FOR A NEW 'DAY'
                              *  .  .  .  .  .  .  .  .  .  .  .  .  .  .  .  .  .  .  .  .
                              *
      00375  0074 00 4 00004  IDD    TSX     ATTACH,4      ATTACH TO DUMP PROGRAM'S FILES
 TD   00376  3 00000 0 62727         TXH     DMPUSR
 TD   00377  3 00000 0 62726         TXH     DMPRGR
      00400  0074 00 4 00003         TSX     DELFIL,4
 TD   00401  3 00000 0 03047         TXH     BA
 TD   00402  3 00000 0 03050         TXH     BB
 TD   00403  3 00000 0 00404         TXH     *+1
      00404  0074 00 4 00007  IDDA   TSX     OPEN,4        OPEN TEMPORARY USER LIST FILE
 TD   00405  3 00000 0 03046         TXH     W             FOR MAKING NEW LIST
 TD   00406  3 00000 0 03047         TXH     BA
 TD   00407  3 00000 0 03050         TXH     BB
 TD   00410  3 00000 0 03542         TXH     =1
 TD   00411  3 00000 0 03051         TXH     LLSD          TRY FOR LOW-SPEED DRUM
 TD   00412  3 00000 0 02655         TXH     ERRID2        (ERROR TRANSFER ADDRESS)
      00413  0074 00 4 00000  IDE    TSX     BUFFER,4
 TD   00414  3 00000 0 03047         TXH     BA
 TD   00415  3 00000 0 03050         TXH     BB
      00416  2 03053 0 62750         TIX     IOBUF2,,LBUF2
      00417  0500 00 0 62725         CLA     MFD1W         CONTINUE PREPARING TO WRITE NEW
      00420  0601 00 0 62740         STO     MFDC          USER LIST, FROM MFD
      00421  0601 00 0 62735         STO     MFDEOF
      00422  0074 00 4 01720         TSX     OPNMFD,4
                              *
                              *      WRITE NEW USER LIST
                              *
      00423  0074 00 4 00036  IDF    TSX     $RDMFD,4      READ NEXT MFD ENTRY (NEXT USER)
      00424  0020 00 0 00426         TRA     *+2           ERROR
      00425  0020 00 0 00432         TRA     IDFA          O.K., SKIP
      00426  0074 00 4 00010         TSX     CLOSE,4
 TD   00427  3 00000 0 03047         TXH     BA
 TD   00430  3 00000 0 03050         TXH     BB
      00431  0020 00 0 00375         TRA     IDD           ERROR, START AGAIN
      00432  0534 00 1 77456  IDFA   LXA     NMFDU,1       SEARCH LIST TO SEE IF NEXT
      00433 -0634 00 1 00443         SXD     IDH,1         USER IS IN IT
      00434 -3 00000 1 00455         TXL     IDK,1,0
1           INCREMENTAL NEW FILES DUMP AND COMPLETE DUMP...M.J.BAILEY,12/31/64   05/11/69 2009.2 PAGE 10

      00435  0774 00 1 00001         AXT     1,1
      00436 -0500 00 0 64511         CAL     MFDENT+1
      00437 -0340 00 1 76145   IDG   LAS     PROGNO+1,1
      00440  0020 00 0 00442         TRA     *+2
      00441  0020 00 0 00445         TRA     IDI
      00442  1 00001 1 00443         TXI     *+1,1,1
      00443 -3 00000 1 00437   IDH   TXL     IDG,1,**
      00444  0020 00 0 00455         TRA     IDK           NOT IN LIST, SKIP
      00445 -0500 00 0 64510   IDI   CAL     MFDENT
      00446 -0340 00 1 74651         LAS     PROBNO+1,1
      00447  0020 00 0 00451         TRA     *+2
      00450  0020 00 0 00453         TRA     IDJ           USER IN LIST, SKIP
      00451 -0500 00 0 64511         CAL     MFDENT+1
      00452  1 00001 1 00443         TXI     IDH,1,1
      00453 -0500 00 1 77441   IDJ   CAL     DTLD+1,1      USER IN LIST, GET HIS TLD
      00454  0020 00 0 00456         TRA     *+2           SKIP
      00455 -0500 00 0 60255   IDK   CAL     ODAWN         NOT IN LIST, GET 'DAWN' OF PREVIOUS DAY
      00456  0602 00 0 64512         SLW     MFDENT+2      SET HIS TLD APPROPRIATELY
      00457                          WSSF    MFDENT,L3,BA,BB  WRITE PROBNO.,PROGNO.,+TLD ON TEMP FILE
      00457  0074 00 4 00004         TSX     ATTACH,4                                                         .001
 TD   00460  3 00000 0 62727         TXH     DMPUSR                                                           .001
 TD   00461  3 00000 0 62726         TXH     DMPRGR                                                           .001
      00462  0074 00 4 00013         TSX     WRFILE,4                                                         .001
 TD   00463  3 00000 0 03047         TXH     BA                                                               .001
 TD   00464  3 00000 0 03050         TXH     BB                                                               .001
 TD   00465  3 00000 0 03541         TXH     =0            AT POSITION WHERE LAST CEASED                      .001
      00466  2 03054 0 64510         TIX     MFDENT,,L3                                                       .001
      00467  0074 00 4 00014         TSX     FWAIT,4                                                          .001
 TD   00470  3 00000 0 03047         TXH     BA                                                               .001
 TD   00471  3 00000 0 03050         TXH     BB                                                               .001
      00472  0520 00 0 62735         ZET     MFDEOF        ANY MORE USERS IN MFD(Q)
      00473  0020 00 0 00423         TRA     IDF           YES, GO BACK FOR NEXT USER
      00474  0074 00 4 00010         TSX     CLOSE,4       NO, CLOSE TEMP. USER LIST FILE
 TD   00475  3 00000 0 03047         TXH     BA
 TD   00476  3 00000 0 03050         TXH     BB
 TD   00477  3 00000 0 02655         TXH     ERRID2
      00500  0074 00 4 00026         TSX     $GDSIG,4
      00501  0074 00 4 01736         TSX     CLSMFD,4
                              *
                              *      READ NEW USER LIST INTO CORE
                              *
                                             PREPARE TO UPDATE USER LIST IN CORE FROM THE TEMP. FILE

      00502                          RDOPEN  BA,BB,DMPUSR,DMPRGR,IOBUF2,LBUF2,ERRID3
      00502  0074 00 4 00004         TSX     ATTACH,4                                                         .001
 TD   00503  3 00000 0 62727         TXH     DMPUSR                                                           .001
 TD   00504  3 00000 0 62726         TXH     DMPRGR                                                           .001
      00505  0074 00 4 00007         TSX     OPEN,4                                                           .001
 TD   00506  3 00000 0 03062         TXH     R                                                                .001
 TD   00507  3 00000 0 03047         TXH     BA                                                               .001
 TD   00510  3 00000 0 03050         TXH     BB                                                               .001
 TD   00511  3 00000 0 03541         TXH     =0                                                               .001
 TD   00512  3 00000 0 03541         TXH     =0                                                               .001
 TD   00513  3 00000 0 02701         TXH     ERRID3                                                           .001
      00514  0074 00 4 00000         TSX     BUFFER,4                                                         .001
 TD   00515  3 00000 0 03047         TXH     BA                                                               .001
1           INCREMENTAL NEW FILES DUMP AND COMPLETE DUMP...M.J.BAILEY,12/31/64   05/11/69 2009.2 PAGE 11

 TD   00516  3 00000 0 03050         TXH     BB                                                               .001
      00517  2 03053 0 62750         TIX     IOBUF2,,LBUF2                                                    .001
      00520 -0500 00 0 03047   IDKA  CAL     BA
      00521  0602 00 0 62741         SLW     UFDENT
      00522 -0500 00 0 03050         CAL     BB
      00523  0602 00 0 62742         SLW     UFDENT+1
      00524 -0500 00 0 62727         CAL     DMPUSR
      00525  0602 00 0 64510         SLW     MFDENT
      00526 -0500 00 0 62726         CAL     DMPRGR
      00527  0602 00 0 64511         SLW     MFDENT+1
      00530  0601 00 0 62733         STO     FEOF
      00531  0534 00 1 03043         LXA     MXIOU,1
      00532 -0634 00 1 00555         SXD     IDM,1
      00533  0774 00 1 00001         AXT     1,1
                              *
      00534  0074 00 4 00037  IDL    TSX     $RDF,4        READ NEXT ENTRY FROM USER LIST FILE
 TD   00535  3 00000 0 70053         TXH     TPBUF
 TD   00536  3 00000 0 03544         TXH     =3
      00537  0020 00 0 00375         TRA     IDD           ERROR RETURN GO REWRITE IT AGAIN
      00540 -0520 00 0 62733         NZT     FEOF
      00541  0020 00 0 00551         TRA     IDLA          SKIP IF EOF
      00542 -0500 00 0 70053         CAL     TPBUF
      00543  0602 00 1 74651         SLW     PROBNO+1,1    STORE THIS USER'S PROBLEM NO.
      00544 -0500 00 0 70054         CAL     TPBUF+1
      00545  0602 00 1 76145         SLW     PROGNO+1,1    AND HIS PROGRAMMER NO.
      00546 -0500 00 0 70055         CAL     TPBUF+2
      00547  0602 00 1 77441         SLW     DTLD+1,1      AND HIS TLD
      00550  1 00001 1 00555         TXI     IDM,1,1       SKIP IF NO EOF YET
      00551  0074 00 4 00010  IDLA   TSX     CLOSE,4       EOF, CLOSE THE TEMP. FILE
 TD   00552  3 00000 0 03047         TXH     BA
 TD   00553  3 00000 0 03050         TXH     BB
      00554  0020 00 0 00620         TRA     IDN           MOVE ON
      00555 -3 00000 1 00534  IDM    TXL     IDL,1,**      RETURN FOR NEXT USER, IF CORE SPACE LEFT
      00556 -0500 00 0 03056         CAL     LIDD          NO MORE SPACE, ERROR
      00557  0621 00 0 00616  IDCA   STA     IDCB          REMEDY IS TO REDUCE MFD OR RE-ASSEMBLE
      00560                          BGNERM  =HID01        PRINT ERROR I.D.
      00560  0634 00 4 00563         SXA     *+3,4                                                            .001
      00561  0074 00 4 00040         TSX     $BERM,4                                                          .001
      00562  0 00000 0 03571         PZE     =HID01                                                           .001
      00563  0774 00 4 00000         AXT     **,4                                                             .001
      00564                          PRLINE  ( NOT ENOUGH SPACE IN DUMP PROGRAM'S USER LIST.),8,0
      00564                          MOVE    8,..006,PBF                                                      .001
      00564  0774 00 1 00010         AXT     8,1                                                              .002
      00565 -0500 00 1 03470         CAL     ..006+8,1                                                        .002
      00566  0602 00 1 64536         SLW     PBF+8,1                                                          .002
      00567  2 00001 1 00565         TIX     *-2,1,1                                                          .002
      00570                          PRBUFF  PBF,8+0                                                          .001
      00570  0634 00 4 00573         SXA     *+3,4                                                            .002
      00571  0074 00 4 00012         TSX     WRFLX,4                                                          .002
      00572  0 00010 0 64526                 PBF,,8+0                                                         .002
      00573  0774 00 4 00000         AXT     **,4                                                             .002
      00574                          CLEAR   PBF,8+0                                                          .002
      00574  0774 00 1 00010         AXT     8+0,1                                                            .003
      00575  0600 00 1 64536         STZ     PBF+8+0,1                                                        .003
      00576  2 00001 1 00575         TIX     *-1,1,1                                                          .003
                                     RMT                                                                      .001
1           INCREMENTAL NEW FILES DUMP AND COMPLETE DUMP...M.J.BAILEY,12/31/64   05/11/69 2009.2 PAGE 12

                              ..006  BCI     8, NOT ENOUGH SPACE IN DUMP PROGRAM'S USER LIST.                 .001
                                     RMT                                                                      .001
      00577                          PRLINE  ( REDUCE M.F.D. OR RE-ASSEMBLE DUMP PROGRAM.),7,0
      00577                          MOVE    7,..009,PBF                                                      .001
      00577  0774 00 1 00007         AXT     7,1                                                              .002
      00600 -0500 00 1 03477         CAL     ..009+7,1                                                        .002
      00601  0602 00 1 64535         SLW     PBF+7,1                                                          .002
      00602  2 00001 1 00600         TIX     *-2,1,1                                                          .002
      00603                          PRBUFF  PBF,7+0                                                          .001
      00603  0634 00 4 00606         SXA     *+3,4                                                            .002
      00604  0074 00 4 00012         TSX     WRFLX,4                                                          .002
      00605  0 00007 0 64526                 PBF,,7+0                                                         .002
      00606  0774 00 4 00000         AXT     **,4                                                             .002
      00607                          CLEAR   PBF,7+0                                                          .002
      00607  0774 00 1 00007         AXT     7+0,1                                                            .003
      00610  0600 00 1 64535         STZ     PBF+7+0,1                                                        .003
      00611  2 00001 1 00610         TIX     *-1,1,1                                                          .003
                                     RMT                                                                      .001
                              ..009  BCI     7, REDUCE M.F.D. OR RE-ASSEMBLE DUMP PROGRAM.                    .001
                                     RMT                                                                      .001
      00612                          ERTN    IDCB          CONCLUDE MESSAGE
      00612  0634 00 4 00614         SXA     *+2,4                                                            .001
      00613  0074 00 4 00041         TSX     $ERREND,4                                                        .001
      00614  0774 00 4 00000         AXT     **,4                                                             .001
      00615  0020 00 0 00616         TRA     IDCB                                                             .001
      00616  0020 00 0 00000  IDCB   TRA     **
      00617  0020 00 0 00557         TRA     IDCA          MESSAGE, THEN RETURN TO REMAKE LIST
                              *
                              *  .  .  .  .  .  .  .  .  .  .  .  .  .  .  .  .  .  .  .  .
                              *      BEGIN A NEW DUMP 'DAY'
                              *  .  .  .  .  .  .  .  .  .  .  .  .  .  .  .  .  .  .  .  .
                              *
      00620  0634 00 1 77456  IDN    SXA     NMFDU,1       SAVE NO. OF USERS IN USER LIST
                              *
                              *      OPEN DUMP TAPE FILES, WRITE DUMP TAPE I.D.RECORD
                              *
      00621  0074 00 4 00032         TSX     $DTSAVE,4
      00622  0761 00 0 00000         NOP
      00623  0074 00 4 00026         TSX     $GDSIG,4
      00624  0534 00 2 03066         LXA     J,2
      00625 -0500 00 0 03067         CAL     NXDUSK
      00626  3 00001 2 00630         TXH     *+2,2,1       SKIP IF J .GR. 1 (BEHIND SCHEDULE)
      00627 -0500 00 0 61157         CAL     DUSK          J=1, NORMAL CASE - ON SCHEDULE
      00630  0602 00 0 70062         SLW     TPBUF+7       DATE/TIME OF END OF THIS 'DAY'
      00631                          MOVE    4,DTPID,TAPEID
      00631  0774 00 1 00004         AXT     4,1                                                              .001
      00632 -0500 00 1 03114         CAL     DTPID+4,1                                                        .001
      00633  0602 00 1 60250         SLW     TAPEID+4,1                                                       .001
      00634  2 00001 1 00632         TIX     *-2,1,1                                                          .001
      00635  0074 00 4 00042         TSX     $SDF,4
      00636  2 03137 0 03114         TIX     SIDMES,,LSIDMS  (MESSAGE FOR START OF INCREMENTAL DUMP)
                              *
                              *      INITIATE, THEN WRITE HEADING FOR, NEW DUMP TAPE 'MAP' FILE
                              *
      00637  0074 00 4 00043         TSX     $SMF,4        INITIATE 'MAP' FILE
      00640 -0500 00 0 70062         CAL     TPBUF+7       GET DATE/TIME OF END OF 'DAY'
1           INCREMENTAL NEW FILES DUMP AND COMPLETE DUMP...M.J.BAILEY,12/31/64   05/11/69 2009.2 PAGE 13

      00641  0074 00 4 00044         TSX     $IOBDT,4      CONVERT TO HHMM.M IN AC, MMDDYY IN MQ
      00642  0602 00 0 03345         SLW     MHA           STORE TIME IN 'MAP' FILE HEADING
      00643 -0500 00 0 03611         CAL     =O777700007700
      00644  0320 00 0 03346         ANS     MHA+1
 T    00645 -0754 00 0 00000         PXD
      00646 -0763 00 0 00014         LGL     12
      00647  0767 00 0 00006         ALS     6
      00650 -0763 00 0 00006         LGL     6
      00651 -0602 00 0 03346         ORS     MHA+1         STORE HALF OF DATE IN 'MAP' FILE HEADING
      00652 -0500 00 0 03557         CAL     =O007700007777
      00653  0320 00 0 03347         ANS     MHA+2
 T    00654 -0754 00 0 00000         PXD
      00655 -0763 00 0 00006         LGL     6
      00656  0767 00 0 00006         ALS     6
      00657 -0763 00 0 00014         LGL     12
      00660  0767 00 0 00014         ALS     12
      00661 -0602 00 0 03347         ORS     MHA+2         STORE 2ND HALF OF DATE IN 'MAP' HEADING
      00662 -0500 00 0 70057         CAL     TPBUF+4       GET TIME DUMPING STARTING
      00663  0602 00 0 03361         SLW     MHB           STORE IN 'MAP' HEADING
      00664  0560 00 0 70060         LDQ     TPBUF+5       GET DATE DUMPING STARTED (MMDDYY)
      00665 -0500 00 0 03613         CAL     =O777777770000
      00666  0320 00 0 03362         ANS     MHB+1
 T    00667 -0754 00 0 00000         PXD
      00670 -0763 00 0 00014         LGL     12
      00671 -0602 00 0 03362         ORS     MHB+1         STORE 1ST PART OF DATE IN 'MAP' HEADING
      00672 -0500 00 0 03610         CAL     =O770000770000
      00673  0320 00 0 03363         ANS     MHB+2
 T    00674 -0754 00 0 00000         PXD
      00675 -0763 00 0 00014         LGL     12
      00676  0767 00 0 00006         ALS     6
      00677 -0763 00 0 00014         LGL     12
      00700 -0602 00 0 03363         ORS     MHB+2         STORE 2ND PART OF DATE IN 'MAP' HEADING
                              *
      00701  0074 00 4 00013         TSX     WRFILE,4      WRITE MAP HEADING ON MAP FILE
 TD   00702  3 00000 0 03311         TXH     MAP1          (WHICH IS A LINE-MARKED BCD PRINT FILE)
 TD   00703  3 00000 0 03312         TXH     MAP2
 TD   00704  3 00000 0 03541         TXH     =0
      00705  2 03447 0 03313         TIX     MAPHD,,LMHD
                              *
                              *      DUMP MFD FILE
                              *
      00706  0074 00 4 00026         TSX     $GDSIG,4
      00707  0074 00 4 00045         TSX     $GDT,4
      00710  0602 00 0 60263         SLW     TCYCLE
      00711 -0500 00 0 03071         CAL     UFDNAM        MFD FILE'S 'FILE NAME'
      00712  0602 00 0 62741         SLW     UFDENT
      00713 -0500 00 0 03072         CAL     UFDNAM+1
      00714  0602 00 0 62742         SLW     UFDENT+1
      00715  0602 00 0 64511         SLW     MFDENT+1      MFD FILE'S 'USER NAME'
      00716 -0500 00 0 03073         CAL     MFDNAM
      00717  0602 00 0 64510         SLW     MFDENT
      00720  0074 00 4 00046         TSX     $DMPFIL,4     DUMP MFD FILE
      00721  0074 00 4 01720         TSX     OPNMFD,4
      00722 -0625 00 0 60243         STL     SKELSW
      00723  0074 00 4 00047         TSX     $DCYCLE,4
      00724  0 00000 0 00000         PZE
1           INCREMENTAL NEW FILES DUMP AND COMPLETE DUMP...M.J.BAILEY,12/31/64   05/11/69 2009.2 PAGE 14

      00725  0761 00 0 00000         NOP
      00726  0600 00 0 60243         STZ     SKELSW
      00727  0074 00 4 00032         TSX     $DTSAVE,4
      00730  0761 00 0 00000         NOP
      00731  0074 00 4 02626         TSX     WREND,4
                              *
      00732  3 00001 2 01033         TXH     TMB,2,1       SKIP IF J GREATER THAN 1 (BEHIND SCHEDULE)
                              *
      00733  0600 00 0 61156         STZ     ENDSW         CLEAR END-OF-DAY SWITCH
      00734  0600 00 0 62720         STZ     TNDSW         ENSURE TND TAKEN AS CURRENT TIME
                                                                             FOR EACH USER.
      00735  0600 00 0 73354         STZ     FLUSH         ENSURE FLUSH MODE DUMPING NOT FORCED,
                                                             BUT ACCORDING TO KEY K SETTING
      00736  0534 00 4 03107         LXA     NIDXM,4       SET NO. OF USERS EXEMPT FROM INCR. DUMP
      00737  3 00014 4 02711         TXH     ERRID6,4,2*NX ERROR IF MORE THAN SPACE ALLOTTED
      00740  0634 00 4 77441         SXA     NXMPT,4
      00741 -0500 00 4 03107  IDNZ   CAL     NIDXM,4       SET NAMES OF USERS EXEMPT FROM INCR. DUMPS
      00742  0602 00 4 77456         SLW     EXEMPT+1,4
      00743 -0500 00 4 03110         CAL     NIDXM+1,4
      00744  0602 00 4 77457         SLW     EXEMPT+2,4
      00745  2 00002 4 00741         TIX     *-4,4,2
                              *
                              *  .  .  .  .  .  .  .  .  .  .  .  .  .  .  .  .  .  .  .  .
                              *  INDEFINITELY REPEAT THE CONTINUOUS DUMP CYCLE
                              *  .  .  .  .  .  .  .  .  .  .  .  .  .  .  .  .  .  .  .  .
                              *
      00746 -0500 00 0 00746  IDQ    CAL     *             INDICATE NOTHING DUMPED YET,
      00747  0602 00 0 62731         SLW     DMPSW         FOR NEXT DUMP CYCLE
      00750  0074 00 4 00026         TSX     $GDSIG,4
                              *
      00751  0074 00 4 00047         TSX     $DCYCLE,4     PERFORM ONE DUMP CYCLE
      00752  0761 00 0 00000         NOP                   (SOME USERS MAY BE EXEMPT)
      00753  0020 00 0 01021         TRA     TMA           END-OF-'DAY' RETURN, SKIP
                              *
      00754 -0520 00 0 62731         NZT     DMPSW         NORMAL RETURN,
      00755  0020 00 0 00746         TRA     IDQ           GO DO ANOTHER CYCLE IF SOMETHING
                                                             WAS DUMPED LAST TIME,
      00756                          PRLINE  ( DUMPER GOING TO SLEEP. ),4,0
      00756                          MOVE    4,..012,PBF                                                      .001
      00756  0774 00 1 00004         AXT     4,1                                                              .002
      00757 -0500 00 1 03503         CAL     ..012+4,1                                                        .002
      00760  0602 00 1 64532         SLW     PBF+4,1                                                          .002
      00761  2 00001 1 00757         TIX     *-2,1,1                                                          .002
      00762                          PRBUFF  PBF,4+0                                                          .001
      00762  0634 00 4 00765         SXA     *+3,4                                                            .002
      00763  0074 00 4 00012         TSX     WRFLX,4                                                          .002
      00764  0 00004 0 64526                 PBF,,4+0                                                         .002
      00765  0774 00 4 00000         AXT     **,4                                                             .002
      00766                          CLEAR   PBF,4+0                                                          .002
      00766  0774 00 1 00004         AXT     4+0,1                                                            .003
      00767  0600 00 1 64532         STZ     PBF+4+0,1                                                        .003
      00770  2 00001 1 00767         TIX     *-1,1,1                                                          .003
                                     RMT                                                                      .001
                              ..012  BCI     4, DUMPER GOING TO SLEEP.                                        .001
                                     RMT                                                                      .001
      00771 -0500 00 0 03555         CAL     =1800         OTHERWISE SLEEP FOR 10 MINS.
1           INCREMENTAL NEW FILES DUMP AND COMPLETE DUMP...M.J.BAILEY,12/31/64   05/11/69 2009.2 PAGE 15

      00772  0074 00 4 00011         TSX     SLEEP,4       ZZZ-ZZZ-ZZZ-ZZZ-ZZZ-ZZ.....Z-ZZZ-ZZZ
      00773                          PRLINE  ( DUMPER WAKING UP.),3,0
      00773                          MOVE    3,..015,PBF                                                      .001
      00773  0774 00 1 00003         AXT     3,1                                                              .002
      00774 -0500 00 1 03506         CAL     ..015+3,1                                                        .002
      00775  0602 00 1 64531         SLW     PBF+3,1                                                          .002
      00776  2 00001 1 00774         TIX     *-2,1,1                                                          .002
      00777                          PRBUFF  PBF,3+0                                                          .001
      00777  0634 00 4 01002         SXA     *+3,4                                                            .002
      01000  0074 00 4 00012         TSX     WRFLX,4                                                          .002
      01001  0 00003 0 64526                 PBF,,3+0                                                         .002
      01002  0774 00 4 00000         AXT     **,4                                                             .002
      01003                          CLEAR   PBF,3+0                                                          .002
      01003  0774 00 1 00003         AXT     3+0,1                                                            .003
      01004  0600 00 1 64531         STZ     PBF+3+0,1                                                        .003
      01005  2 00001 1 01004         TIX     *-1,1,1                                                          .003
                                     RMT                                                                      .001
                              ..015  BCI     3, DUMPER WAKING UP.                                             .001
                                     RMT                                                                      .001
      01006  0074 00 7 00027         TSX     $NGETA,7      AWAKEN,.....
      01007  0500 00 0 74674         CLA     PB+2
      01010  0402 00 0 03060         SUB     PBBASE        DONT LET WRKING PERCENT GO .L. BASE
      01011 -0120 00 0 00746         TMI     IDQ
      01012  0100 00 0 00746         TZE     IDQ           SKIP IF OUR PERCENTAGE IS ZERO
      01013  0402 00 0 03546         SUB     =5            ELSE REDUCE IT BY 5
      01014  0120 00 0 01016         TPL     *+2
 T    01015 -0754 00 0 00000         PXD
      01016  0074 00 7 00027         TSX     $NGETA,7
      01017  0601 00 0 74674         STO     PB+2
      01020  0020 00 0 00746         TRA     IDQ           TRY AGAIN TO DUMP
                              *
                              *  .  .  .  .  .  .  .  .  .  .  .  .  .  .  .  .  .  .  .  .
                              *      TERMINATION AT END OF 'DAY'
                              *  .  .  .  .  .  .  .  .  .  .  .  .  .  .  .  .  .  .  .  .
                              *
      01021  0600 00 0 62735  TMA    STZ     MFDEOF
      01022  0500 00 0 61156         CLA     ENDSW
      01023  0402 00 0 03542         SUB     =1
      01024 -0100 00 0 01027         TNZ     TMAA          SKIP IF END-OF-DAY WAS OPERATOR-INITIATED
      01025 -0500 00 0 61157         CAL     DUSK          SET TND=DUSK IF NORMAL END OF DAY
      01026  0020 00 0 01034         TRA     TMC
                              *
      01027  0600 00 0 03055  TMAA   STZ     PASS          OPERATOR INITIATED END OF TAPE
      01030  0600 00 0 01300         STZ     PASS2
      01031  0074 00 4 00045  TMAC   TSX     $GDT,4
      01032  0020 00 0 01034         TRA     TMC           SET TND=CURRENT TIME
                              *
      01033 -0500 00 0 03067  TMB    CAL     NXDUSK        SET TND=NXDUSK, BEHIND SCHEDULE
      01034  0602 00 0 73353  TMC    SLW     TND           TND=DUSK+(J-1)*DAY
      01035  0602 00 0 73354         SLW     FLUSH         FORCE FLUSH MODE
      01036  0602 00 0 62720         SLW     TNDSW         ENSURE TND TAKEN AS CONSTANT
      01037  0074 00 4 00026         TSX     $GDSIG,4
      01040  0074 00 4 00045         TSX     $GDT,4
      01041  0602 00 0 60263         SLW     TCYCLE        SET TIME OF THIS LAST CYCLE
                              *
      01042  0074 00 4 00047         TSX     $DCYCLE,4     PERFORM FLUSH DUMP CYCLE UP TO TIME TND
1           INCREMENTAL NEW FILES DUMP AND COMPLETE DUMP...M.J.BAILEY,12/31/64   05/11/69 2009.2 PAGE 16

      01043  0 00000 0 00000         PZE                   (NO EXEMPT USERS)
      01044  0020 00 0 01027         TRA     TMAA          END-OF-DAY (INITIATED BY OPERATOR
                                                           DURING NORMAL FLUSH DUMP)
                              *
                              *      IF END OF TAPE WAS ASKED FOR BY OPERATOR FOR AUTOLOGOUT
                              *      PURPOSES, ENSURE A FURTHER FLUSH IS TAKEN BEFORE LOGGING OUT
                              *
      01045  0500 00 0 61156         CLA     ENDSW
      01046  0402 00 0 03543         SUB     =2
      01047 -0100 00 0 01115         TNZ     TMZ           SKIP IF AUTOMATIC END-TAPE
                              *
      01050  0074 00 7 00027         TSX     $NGETA,7
      01051  0500 00 0 74454         CLA     AUTOND
      01052  0100 00 0 01066         TZE     TMX           SKIP IF NO AUTOLOGOUT REQUEST DETECTED
      01053 -0625 00 0 03045         STL     ALOGSW
      01054  0074 00 7 00027  TMAB3  TSX     $NGETA,7      TAPE FILE CLOSED FOR
      01055  0500 00 0 74532         CLA     NUSERS        AN AUTOLOGOUT
      01056  0402 00 0 03543         SUB     =2            LOOK AT CORE A FOR NO. USERS
      01057  0120 00 0 01223         TPL     TMAC3         FLUSH AGAIN IF 2 OR MORE USERS IN
      01060  0500 00 0 03055  TMAC4  CLA     PASS          ONLY 1 USER, ME
      01061  0400 00 0 03542         ADD     =1
      01062  0601 00 0 03055         STO     PASS
      01063  0402 00 0 03542         SUB     =1
      01064  0100 00 0 01031         TZE     TMAC          MAKE FINAL FLUSH IF NOT DONE
      01065  0020 00 0 01115         TRA     TMZ           OR GO AND FINISH CLOSING TAPE FILE
                              *
      01066                   TMX    PRCODE  AK,MESD,7     ASK OPERATOR IF HE INTENDS AUTOLOGOUT
      01066  0074 00 4 00050         TSX     $PRCODE,4                                                        .001
 TD   01067  3 00000 0 00004         TXH     AK                                                               .001
      01070  3 00007 0 03010         TXH     MESD,,7                                                          .001
      01071                          PRCODE  C,MESE,2      OR NOT
      01071  0074 00 4 00050         TSX     $PRCODE,4                                                        .001
 TD   01072  3 00000 0 00003         TXH     C                                                                .001
      01073  3 00002 0 03017         TXH     MESE,,2                                                          .001
      01074 -0500 00 0 03553         CAL     =20           WAIT
      01075  0074 00 4 00011         TSX     SLEEP,4
      01076                          TESTKY  AK,TMAB3      SKIP IF YES
      01076  0074 00 7 00027         TSX     $NGETA,7                                                         .001
      01077  0560 00 0 74446         LDQ     DEMKEY                                                           .001
      01100 -0600 00 0 77461         STQ     KEYVAL                                                           .001
      01101  0774 00 1 00004         AXT     AK,1                                                             .001
      01102  0754 00 1 00000         PXA     0,1                                                              .001
      01103  0402 00 0 77461         SUB     KEYVAL                                                           .001
      01104  0100 00 0 01054         TZE     TMAB3                                                            .001
      01105                          TESTKY  C,TMZ         SKIP IF NO
      01105  0074 00 7 00027         TSX     $NGETA,7                                                         .001
      01106  0560 00 0 74446         LDQ     DEMKEY                                                           .001
      01107 -0600 00 0 77461         STQ     KEYVAL                                                           .001
      01110  0774 00 1 00003         AXT     C,1                                                              .001
      01111  0754 00 1 00000         PXA     0,1                                                              .001
      01112  0402 00 0 77461         SUB     KEYVAL                                                           .001
      01113  0100 00 0 01115         TZE     TMZ                                                              .001
      01114  0020 00 0 01066         TRA     TMX           ASK AGAIN IF NO REPLY
                              *
                              *
      01115  0074 00 4 01736  TMZ    TSX     CLSMFD,4
1           INCREMENTAL NEW FILES DUMP AND COMPLETE DUMP...M.J.BAILEY,12/31/64   05/11/69 2009.2 PAGE 17

      01116 -0500 00 0 03071         CAL     UFDNAM
      01117  0602 00 0 62741         SLW     UFDENT
      01120 -0500 00 0 03072         CAL     UFDNAM+1
      01121  0602 00 0 62742         SLW     UFDENT+1
      01122  0602 00 0 64511         SLW     MFDENT+1      MFD FILE'S 'USER NAME'
      01123 -0500 00 0 03073         CAL     MFDNAM
      01124  0602 00 0 64510         SLW     MFDENT
      01125  0074 00 4 00046         TSX     $DMPFIL,4     DUMP MFD FILE
                              *
                              *      TERMINATE 'MAP' FILE, DUMP IT, THEN COPY IT ON TO THE
                              *      PRINT OUTPUT TAPE, AND CLOSE THE DUMP TAPE FILES
                              *
      01126  0074 00 4 00051         TSX     $EMF,4        END MAP FILE
 TD   01127  3 00000 0 03450         TXH     IMPINS
      01130  0074 00 4 00052         TSX     $DMF,4        DUMP MAP,PUT IT ON PRINT TAPE
      01131  0074 00 4 00004         TSX     ATTACH,4
 TD   01132  3 00000 0 62727         TXH     DMPUSR
 TD   01133  3 00000 0 62726         TXH     DMPRGR
                              *
      01134  0074 00 4 00010         TSX     CLOSE,4       CLOSE DUMP FILE COPY 1
 TD   01135  3 00000 0 62723         TXH     NFN1
 TD   01136  3 00000 0 62724         TXH     NFN1+1
      01137  0074 00 4 00010         TSX     CLOSE,4       CLOSE DUMP FILE COPY 2
 TD   01140  3 00000 0 62721         TXH     NFN2
 TD   01141  3 00000 0 62722         TXH     NFN2+1
      01142  0600 00 0 60262         STZ     TFOSW
      01143  0074 00 4 00015         TSX     UMOUNT,4      HAVE OPERATOR DISMOUNT REEL
 TD   01144  3 00000 0 03550         TXH     =11           FROM UNIT 11 (DUMP TAPE COPY 1)
      01145  2 03163 0 03140         TIX     EIDMES,,LEIDMS  AND GIVE END OF DUMP MESSAGE
      01146  0074 00 4 00015         TSX     UMOUNT,4      REPEAT FOR UNIT 12 (DUMP TAPE COPY 2)
 TD   01147  3 00000 0 03551         TXH     =12
      01150  2 03163 0 03140         TIX     EIDMES,,LEIDMS
                              *
      01151  0074 00 4 00032         TSX     $DTSAVE,4
      01152  0761 00 0 00000         NOP
      01153  0074 00 4 00032         TSX     $DTSAVE,4
      01154  0761 00 0 00000         NOP
      01155 -0500 00 0 62730         CAL     DAWN
      01156  0602 00 0 60255         SLW     ODAWN
      01157  0074 00 4 00026         TSX     $GDSIG,4
      01160  0600 00 0 77457         STZ     ENTPSW
      01161  0074 00 4 00032         TSX     $DTSAVE,4
      01162  0761 00 0 00000         NOP
                              *
                              *      CHECK THAT THERE IS NOT 1 'DAY''S BACKLOG OF DUMPING,
                              *      AND RETURN FOR NEXT 'DAY''S DUMPING OF NEW FILES.
                              *
      01163 -0500 00 0 73353         CAL     TND           DUSK + (J-1)*DAY
      01164  0074 00 4 00035         TSX     $ADDTIM,4     + DAY
 TD   01165  3 00000 0 03063         TXH     DAY           DUSK + J*DAY IN AC
      01166  0602 00 0 03067         SLW     NXDUSK        DUSK FOR NEXT DAY
      01167  0500 00 0 61156         CLA     ENDSW
      01170  0402 00 0 03542         SUB     =1
      01171 -0100 00 0 01213         TNZ     TMCB          SKIP IF END-OF-DAY OPERATOR-INITIATED
                              *
      01172  0074 00 4 00045         TSX     $GDT,4        GET CURRENT TIME IF NORMAL END-OF-DAY
1           INCREMENTAL NEW FILES DUMP AND COMPLETE DUMP...M.J.BAILEY,12/31/64   05/11/69 2009.2 PAGE 18

      01173  0402 00 0 03067         SUB     NXDUSK        CHECK FOR A BACKLOG
      01174  0120 00 0 01203         TPL     TME           SKIP IF CURRENT TIME .GE. DUSK+J*DAY
                              *
      01175 -0500 00 0 73353   TMCA  CAL     TND           DUMP IS ON SCHEDULE, PREPARE FOR NEXT DAY
      01176  0602 00 0 62730         SLW     DAWN          DAWN=DUSK+(J-1)*DAY
      01177 -0500 00 0 03067  TMCC   CAL     NXDUSK
      01200  0602 00 0 61157         SLW     DUSK          DUSK=DUSK+J*DAY
      01201  0774 00 2 00001         AXT     1,2           RE-SET J=1
      01202  0020 00 0 01211         TRA     TMG           GO RETURN FOR NEXT 'DAY'.
                              *
                              *      WHEN BACKLOG OF DUMPING EXISTS, SET
                              *      BIGGER PERCENTAGE RUNNING-TIME FOR DUMP PROGRAM
                              *
      01203  0074 00 7 00027  TME    TSX     $NGETA,7
      01204  0500 00 0 74674         CLA     PB+2          INCREASE OUR PERCENTAGE BY 5
      01205  0400 00 0 03546         ADD     =5
      01206  0074 00 7 00027         TSX     $NGETA,7
      01207  0601 00 0 74674         STO     PB+2
                              *
      01210  1 00001 2 01211         TXI     *+1,2,1       SET J=J+1, PREPARE FOR ANOTHER FLUSH DUMP
      01211  0634 00 2 03066   TMG   SXA     J,2           SAVE J
      01212  0020 00 0 00375         TRA     IDD           RETURN FOR NEXT DAY'S DUMPING
                              *
                              *    WHEN OPERATOR-INITIATED END-OF-DAY TERMINATION IS COMPLETE, EITHER
                              *    LOG OUT OR, AWAIT INSTRUCTIONS FOR, EITHER RESUMPTION OF NEW FILE
                              *    DUMPING OR A COMPLETE DUMP, REMINDING HIM FROM
                              *    TIME TO TIME THAT THE REQUESTED DUMP TERMINATION IS DONE.
                              *
      01213 -0520 00 0 03045  TMCB   NZT     ALOGSW
      01214  0020 00 0 01310         TRA     TMH
                              *
      01215 -0500 00 0 03566         CAL     =HDRSTOR
      01216  0602 00 0 03044         SLW     NAME1
      01217  0074 00 4 00335         TSX     DDR,4
      01220 -0500 00 0 03577         CAL     =HLOGOUT
      01221  0560 00 0 03614         LDQ     =O777777777777
      01222  0074 00 4 00021         TSX     NEXCOM,4      LOG OURSELVES OUT
                              *
      01223  0500 00 0 01300  TMAC3  CLA     PASS2
      01224  0400 00 0 03542         ADD     =1
      01225  0601 00 0 01300         STO     PASS2
      01226  0402 00 0 03542         SUB     =1
      01227  0100 00 0 01031         TZE     TMAC
      01230  0074 00 7 00027         TSX     $NGETA,7
      01231  0600 00 0 74446         STZ     DEMKEY
      01232                          PRLINE  ( NUSERS STILL GREATER THAN ONE),5,0
      01232                          MOVE    5,..018,PBF                                                      .001
      01232  0774 00 1 00005         AXT     5,1                                                              .002
      01233 -0500 00 1 03513         CAL     ..018+5,1                                                        .002
      01234  0602 00 1 64533         SLW     PBF+5,1                                                          .002
      01235  2 00001 1 01233         TIX     *-2,1,1                                                          .002
      01236                          PRBUFF  PBF,5+0                                                          .001
      01236  0634 00 4 01241         SXA     *+3,4                                                            .002
      01237  0074 00 4 00012         TSX     WRFLX,4                                                          .002
      01240  0 00005 0 64526                 PBF,,5+0                                                         .002
      01241  0774 00 4 00000         AXT     **,4                                                             .002
1           INCREMENTAL NEW FILES DUMP AND COMPLETE DUMP...M.J.BAILEY,12/31/64   05/11/69 2009.2 PAGE 19

      01242                          CLEAR   PBF,5+0                                                          .002
      01242  0774 00 1 00005         AXT     5+0,1                                                            .003
      01243  0600 00 1 64533         STZ     PBF+5+0,1                                                        .003
      01244  2 00001 1 01243         TIX     *-1,1,1                                                          .003
                                     RMT                                                                      .001
                              ..018  BCI     5, NUSERS STILL GREATER THAN ONE                                 .001
                                     RMT                                                                      .001
      01245                   RETURN PRCODE  CORREC,PNUSMS,4
      01245  0074 00 4 00050         TSX     $PRCODE,4                                                        .001
 TD   01246  3 00000 0 00006         TXH     CORREC                                                           .001
      01247  3 00004 0 01301         TXH     PNUSMS,,4                                                        .001
      01250                          PRCODE  PAUSE,DPNSMS,3
      01250  0074 00 4 00050         TSX     $PRCODE,4                                                        .001
 TD   01251  3 00000 0 00002         TXH     PAUSE                                                            .001
      01252  3 00003 0 01305         TXH     DPNSMS,,3                                                        .001
      01253 -0500 00 0 03552         CAL     =15
      01254  0074 00 4 00011         TSX     SLEEP,4
      01255                          TESTKY  CORREC,TMZ3
      01255  0074 00 7 00027         TSX     $NGETA,7                                                         .001
      01256  0560 00 0 74446         LDQ     DEMKEY                                                           .001
      01257 -0600 00 0 77461         STQ     KEYVAL                                                           .001
      01260  0774 00 1 00006         AXT     CORREC,1                                                         .001
      01261  0754 00 1 00000         PXA     0,1                                                              .001
      01262  0402 00 0 77461         SUB     KEYVAL                                                           .001
      01263  0100 00 0 01274         TZE     TMZ3                                                             .001
      01264                          TESTKY  PAUSE,TMAC
      01264  0074 00 7 00027         TSX     $NGETA,7                                                         .001
      01265  0560 00 0 74446         LDQ     DEMKEY                                                           .001
      01266 -0600 00 0 77461         STQ     KEYVAL                                                           .001
      01267  0774 00 1 00002         AXT     PAUSE,1                                                          .001
      01270  0754 00 1 00000         PXA     0,1                                                              .001
      01271  0402 00 0 77461         SUB     KEYVAL                                                           .001
      01272  0100 00 0 01031         TZE     TMAC                                                             .001
      01273  0020 00 0 01245         TRA     RETURN
      01274 -0500 00 0 03542  TMZ3   CAL     =1
      01275  0074 00 7 00027         TSX     $NGETA,7
      01276  0602 00 0 74532         SLW     NUSERS
      01277  0020 00 0 01060         TRA     TMAC4
                              *
                      000006  CORREC BOOL    6
      01300  0 00000 0 00000  PASS2  PZE
      01301  606346602346     PNUSMS BCI     4, TO CORRECT THIS, OR
      01302  515125236360
      01303  633031627360
      01304  465160606060
      01305  606346602346     DPNSMS BCI     3, TO CONTINUE AS IS
      01306  456331456425
      01307  602162603162
      01310                   TMH    PRLINE  (  REQUESTED DUMP TAPE TERMINATION IS DONE.),7,0
      01310                          MOVE    7,..021,PBF                                                      .001
      01310  0774 00 1 00007         AXT     7,1                                                              .002
      01311 -0500 00 1 03522         CAL     ..021+7,1                                                        .002
      01312  0602 00 1 64535         SLW     PBF+7,1                                                          .002
      01313  2 00001 1 01311         TIX     *-2,1,1                                                          .002
      01314                          PRBUFF  PBF,7+0                                                          .001
      01314  0634 00 4 01317         SXA     *+3,4                                                            .002
1           INCREMENTAL NEW FILES DUMP AND COMPLETE DUMP...M.J.BAILEY,12/31/64   05/11/69 2009.2 PAGE 20

      01315  0074 00 4 00012         TSX     WRFLX,4                                                          .002
      01316  0 00007 0 64526                 PBF,,7+0                                                         .002
      01317  0774 00 4 00000         AXT     **,4                                                             .002
      01320                          CLEAR   PBF,7+0                                                          .002
      01320  0774 00 1 00007         AXT     7+0,1                                                            .003
      01321  0600 00 1 64535         STZ     PBF+7+0,1                                                        .003
      01322  2 00001 1 01321         TIX     *-1,1,1                                                          .003
                                     RMT                                                                      .001
                              ..021  BCI     7,  REQUESTED DUMP TAPE TERMINATION IS DONE.                     .001
                                     RMT                                                                      .001
      01323                   TMI    PRCODE  PAUSE,MESZ,7
      01323  0074 00 4 00050         TSX     $PRCODE,4                                                        .001
 TD   01324  3 00000 0 00002         TXH     PAUSE                                                            .001
      01325  3 00007 0 03034         TXH     MESZ,,7                                                          .001
      01326 -0500 00 0 03547         CAL     =10
      01327  0074 00 4 00011         TSX     SLEEP,4
      01330                          TESTKY  PAUSE,TMJ
      01330  0074 00 7 00027         TSX     $NGETA,7                                                         .001
      01331  0560 00 0 74446         LDQ     DEMKEY                                                           .001
      01332 -0600 00 0 77461         STQ     KEYVAL                                                           .001
      01333  0774 00 1 00002         AXT     PAUSE,1                                                          .001
      01334  0754 00 1 00000         PXA     0,1                                                              .001
      01335  0402 00 0 77461         SUB     KEYVAL                                                           .001
      01336  0100 00 0 01340         TZE     TMJ                                                              .001
      01337  0020 00 0 01323         TRA     TMI
      01340                   TMJ    PRCODE  C,MESA,6      ASK OPERATOR TO SET KEYS FOR COMPLETE
      01340  0074 00 4 00050         TSX     $PRCODE,4                                                        .001
 TD   01341  3 00000 0 00003         TXH     C                                                                .001
      01342  3 00006 0 02765         TXH     MESA,,6                                                          .001
      01343                          PRCODE  I,MESB,7      OR INCREMENTAL DUMP
      01343  0074 00 4 00050         TSX     $PRCODE,4                                                        .001
 TD   01344  3 00000 0 00001         TXH     I                                                                .001
      01345  3 00007 0 02773         TXH     MESB,,7                                                          .001
      01346 -0500 00 0 03552         CAL     =15
      01347  0074 00 4 00011         TSX     SLEEP,4
      01350                          TESTKY  C,CDUMP1      SKIP IF COMPLETE DUMP
      01350  0074 00 7 00027         TSX     $NGETA,7                                                         .001
      01351  0560 00 0 74446         LDQ     DEMKEY                                                           .001
      01352 -0600 00 0 77461         STQ     KEYVAL                                                           .001
      01353  0774 00 1 00003         AXT     C,1                                                              .001
      01354  0754 00 1 00000         PXA     0,1                                                              .001
      01355  0402 00 0 77461         SUB     KEYVAL                                                           .001
      01356  0100 00 0 01373         TZE     CDUMP1                                                           .001
      01357                          TESTKY  I,TMCA        SKIP IF INCREMENTAL
      01357  0074 00 7 00027         TSX     $NGETA,7                                                         .001
      01360  0560 00 0 74446         LDQ     DEMKEY                                                           .001
      01361 -0600 00 0 77461         STQ     KEYVAL                                                           .001
      01362  0774 00 1 00001         AXT     I,1                                                              .001
      01363  0754 00 1 00000         PXA     0,1                                                              .001
      01364  0402 00 0 77461         SUB     KEYVAL                                                           .001
      01365  0100 00 0 01175         TZE     TMCA                                                             .001
      01366 -0500 00 0 03554         CAL     =60
      01367  0074 00 4 00011         TSX     SLEEP,4       SLEEP FOR 1 MINUTE
      01370  0020 00 0 01340         TRA     TMJ
                              *
                              *  .  .  .  .  .  .  .  .  .  .  .  .  .  .  .  .  .  .
1           INCREMENTAL NEW FILES DUMP AND COMPLETE DUMP...M.J.BAILEY,12/31/64   05/11/69 2009.2 PAGE 21

                              *      START COMPLETE DUMP OF SYSTEM AND CURRENT USER FILES
                              *  .  .  .  .  .  .  .  .  .  .  .  .  .  .  .  .  .  .
                              *
                              *      (ENTRY USED AT SYSTEM START UP TIME)
                              *
      01371  0600 00 0 60260  CDUMP  STZ     SW1           SET SW1 ZERO
      01372  0020 00 0 01376         TRA     CDA
                              *
                              *      (ENTRY USED AFTER AND BETWEEN NEW-FILE DUMPS)
                              *
      01373 -0500 00 0 73353  CDUMP1 CAL     TND           SET DAWN READY FOR NEXT DUMP 'DAY'
      01374  0602 00 0 62730         SLW     DAWN          = TIME OF END OF PREVIOUS 'DAY'
      01375  0602 00 0 60260         SLW     SW1           SET SW1 NON-ZERO
                              *
                              *  MAKE NEW LIST OF SYSTEM FILE OWNER NAMES (EXEMPT FROM USER FILE DUMP)
                              *
      01376  0600 00 0 62735  CDA    STZ     MFDEOF
      01377  0600 00 0 60243         STZ     SKELSW
      01400 -0625 00 0 60266         STL     CDSW          SET COMPLETE-DUMP SWITCH
      01401  0074 00 4 00026         TSX     $GDSIG,4
      01402  0534 00 1 03102         LXA     SYSFL,1       2*(NO. OF SYSTEM FILE USER NAMES)
      01403  3 00014 1 02722         TXH     ERRCD1,1,2*NX ERROR IF IT IS .GR. SPACE ALLOCATED
      01404  0634 00 1 77441         SXA     NXMPT,1       SAVE NO. USERS EXEMPT FROM USER FILE DUMP
      01405 -0500 00 1 03102  CDB    CAL     SYSFL,1       PROBLEM NO. OF SYSTEM FILE USER NAME
      01406  0602 00 1 77456         SLW     EXEMPT+1,1
      01407 -0500 00 1 03103         CAL     SYSFL+1,1     PROG. NO. OF SYSTEM FILE USER NAME
      01410  0602 00 1 77457         SLW     EXEMPT+2,1
      01411  2 00002 1 01405         TIX     CDB,1,2
                              *
                              *      OPEN SYSTEM-FILES-'COMPLETE'-DUMP TAPE FILES, WRITE I.D. RECORDS
                              *
      01412  0600 00 0 70062         STZ     TPBUF+7       NO END OF 'DAY' IN I.D. RECORD
      01413                          MOVE    4,SDTID,TAPEID
      01413  0774 00 1 00004         AXT     4,1                                                              .001
      01414 -0500 00 1 03170         CAL     SDTID+4,1                                                        .001
      01415  0602 00 1 60250         SLW     TAPEID+4,1                                                       .001
      01416  2 00001 1 01414         TIX     *-2,1,1                                                          .001
      01417  0074 00 4 00042         TSX     $SDF,4
      01420  2 03205 0 03170         TIX     SSDMES,,LSSDMS  (MESSAGE FOR START OF SYSTEM-FILE DUMP)
                              *
                              *      INITIATE, THEN WRITE HEADING FOR, SYSTEM FILE DUMP TAPE MAP FILE
                              *
      01421  0074 00 4 00043         TSX     $SMF,4        INITIATE MAP FILE FOR SYSTEM-FILE DUMP TAPE
      01422  0074 00 4 00053         TSX     $WMH,4        WRITE MAP FILE HEADING
 TD   01423  3 00000 0 03606         TXH     =HSYSTEM      (FOR SYSTEM FILE DUMP)
      01424  0074 00 4 00032         TSX     $DTSAVE,4     SAVE DUMPER TABLES ETC.
      01425  0761 00 0 00000         NOP
                              *
                              *      DUMP M.F.D. FILE
                              *
      01426  0074 00 4 00045         TSX     $GDT,4
      01427  0602 00 0 60263         SLW     TCYCLE
      01430 -0500 00 0 03071         CAL     UFDNAM
      01431  0602 00 0 62741         SLW     UFDENT
      01432 -0500 00 0 03072         CAL     UFDNAM+1
      01433  0602 00 0 62742         SLW     UFDENT+1
1           INCREMENTAL NEW FILES DUMP AND COMPLETE DUMP...M.J.BAILEY,12/31/64   05/11/69 2009.2 PAGE 22

      01434  0602 00 0 64511         SLW     MFDENT+1
      01435 -0500 00 0 03073         CAL     MFDNAM
      01436  0602 00 0 64510         SLW     MFDENT
      01437  0074 00 4 00046         TSX     $DMPFIL,4
                              *
                              *  .  .  .  .  .  .  .  .  .  .  .  .  .  .  .  .  .  .  .  .  .  .  .
                              * START COMPLETE-SYSTEM-FILE DUMPING, FILE USER NAME BY FILE USER NAME
                              *  .  .  .  .  .  .  .  .  .  .  .  .  .  .  .  .  .  .  .  .  .  .  .
                              *
      01440  0074 00 4 00045         TSX     $GDT,4        CURRENT DATE/TIME TEMP LABLE
      01441 -0320 00 0 03612         ANA     =O777777000000  DATE TO-DAY
      01442  0602 00 0 73353         SLW     TND           SET TND
      01443  0602 00 0 60256         SLW     TNDSAV        SAVE TND (= TIME OF START OF TO-DAY)
      01444  0074 00 4 00032         TSX     $DTSAVE,4     SAVE DUMPER TABLES ETC.
      01445  0761 00 0 00000         NOP
      01446 -0500 00 0 60256  CDBA   CAL     TNDSAV
      01447  0074 00 4 00054         TSX     $SUBDAY,4
 TD   01450  3 00000 0 03064         TXH     LNCD
      01451  0602 00 0 62737         SLW     TLD           TLD=START OF 'CURRENT' FILE PERIOD
      01452  0602 00 0 60257         SLW     TCP           SAVE IT (= TO-DAY - NCD DAYS)
      01453  0074 00 4 00045         TSX     $GDT,4
      01454  0602 00 0 60263         SLW     TCYCLE        SET TIME OF THIS LAST CYCLE ON TAPE
      01455  0602 00 0 73354         SLW     FLUSH         FORCE FLUSH DUMP
      01456  0534 00 1 03102         LXA     SYSFL,1       NO. SYSTEM FILE USER/OWNERS
                              *
      01457  0074 00 4 00032  CDC    TSX     $DTSAVE,4     SAVE DUMPER TABLES ETC.
      01460  0761 00 0 00000         NOP
      01461 -0500 00 1 03102         CAL     SYSFL,1
      01462  0602 00 0 64510         SLW     MFDENT        PROB. NO. OF NEXT SYSTEM FILE USER NAME
      01463 -0500 00 1 03103         CAL     SYSFL+1,1
      01464  0602 00 0 64511         SLW     MFDENT+1      PROG. NO. OF NEXT SYSTEM FILE USER NAME
                              *
      01465  0074 00 4 00055         TSX     $DUSR1,4      DUMP THIS USER
                              *
      01466  0020 00 0 02745         TRA     ERRCD2        (END OF DAY RETURN - IMPOSSIBLE)
      01467  0020 00 0 02755         TRA     ERRCD3        ERROR RETURN - UFD FILE UNREADABLE
      01470  0074 00 4 00026         TSX     $GDSIG,4
      01471  1 77776 1 01472         TXI     *+1,1,-2
      01472  3 00000 1 01457  CDD    TXH     CDC,1,**      RETURN FOR NEXT SYSTEM FILE USER
                              *
                              *      DUMP M.F.D. FILE
                              *
      01473 -0500 00 0 03071         CAL     UFDNAM
      01474  0602 00 0 62741         SLW     UFDENT
      01475 -0500 00 0 03072         CAL     UFDNAM+1
      01476  0602 00 0 62742         SLW     UFDENT+1
      01477  0602 00 0 64511         SLW     MFDENT+1
      01500 -0500 00 0 03073         CAL     MFDNAM
      01501  0602 00 0 64510         SLW     MFDENT
      01502  0074 00 4 00046         TSX     $DMPFIL,4
                              *
                              *      TERMINATE MAP FILE, DUMP IT, COPY IT ON TO THE
                              *      PRINT OUTPUT TAPE TAPE, AND CLOSE DUMP TAPE FILES
                              *
      01503  0074 00 4 00051         TSX     $EMF,4        END MAP FILE
 TD   01504  3 00000 0 03541         TXH     =0
1           INCREMENTAL NEW FILES DUMP AND COMPLETE DUMP...M.J.BAILEY,12/31/64   05/11/69 2009.2 PAGE 23

      01505  0074 00 4 00052         TSX     $DMF,4        DUMP MAP FILE, COPY ONTO PRINT TAPE
      01506  0074 00 4 00004         TSX     ATTACH,4
 TD   01507  3 00000 0 62727         TXH     DMPUSR
 TD   01510  3 00000 0 62726         TXH     DMPRGR
                              *
      01511  0074 00 4 00032         TSX     $DTSAVE,4     SAVE DUMPER TABLES ETC.
      01512  0761 00 0 00000         NOP
      01513  0074 00 4 00010         TSX     CLOSE,4       CLOSE COMPLETE SYSTEM DUMP TAPE FILES
 TD   01514  3 00000 0 62723         TXH     NFN1
 TD   01515  3 00000 0 62724         TXH     NFN1+1
      01516  0074 00 4 00010         TSX     CLOSE,4
 TD   01517  3 00000 0 62721         TXH     NFN2
 TD   01520  3 00000 0 62722         TXH     NFN2+1
      01521  0074 00 4 00015         TSX     UMOUNT,4      HAVE OPERATOR DISMOUNT REEL
 TD   01522  3 00000 0 03550         TXH     =11           FROM UNIT 11 (DUMP TAPE COPY 1)
      01523  2 03230 0 03206         TIX     ESDMES,,LESDMS  AND GIVE END OF DUMP MESSAGE
      01524  0074 00 4 00015         TSX     UMOUNT,4      REPEAT FOR UNIT 12 (DUMP TAPE COPY 2)
 TD   01525  3 00000 0 03551         TXH     =12
      01526  2 03230 0 03206         TIX     ESDMES,,LESDMS
      01527  0074 00 4 00026         TSX     $GDSIG,4
      01530  0074 00 4 00032         TSX     $DTSAVE,4
      01531  0761 00 0 00000         NOP
      01532  0074 00 4 00032         TSX     $DTSAVE,4
      01533  0761 00 0 00000         NOP
                              *
                              *  OPEN USER-FILES-'COMPLETE'-DUMP TAPE FILES, WRITE I.D. RECORD ON EACH
                              *
      01534  0600 00 0 70062  UDTPAT STZ     TPBUF+7       (NO END OF DAY IN THIS I.D. RECORD)
      01535                          MOVE    4,UFDTID,TAPEID
      01535  0774 00 1 00004         AXT     4,1                                                              .001
      01536 -0500 00 1 03235         CAL     UFDTID+4,1                                                       .001
      01537  0602 00 1 60250         SLW     TAPEID+4,1                                                       .001
      01540  2 00001 1 01536         TIX     *-2,1,1                                                          .001
      01541  0074 00 4 00042         TSX     $SDF,4
      01542  2 03252 0 03235         TIX     SUDMES,,LSUDMS  (MESSAGE FOR START OF USERS' FILES DUMP)
                              *
                              *      INITIATE, AND WRITE HEADING FOR, USERS'-FILES DUMP TAPE MAP FILE
                              *
      01543  0074 00 4 00043         TSX     $SMF,4        INITIATE MAP FILE
      01544  0074 00 4 00053         TSX     $WMH,4        WRITE MAP HEADING
 TD   01545  3 00000 0 03607         TXH     =HUSERS'      (FOR USERS'-FILES-DUMP TAPE FILE)
      01546  0074 00 4 00026         TSX     $GDSIG,4
                              *
                              *      DUMP M.F.D. FILE
                              *
      01547 -0500 00 0 62737         CAL     TLD
      01550  0602 00 0 03070         SLW     TTLD
      01551  0074 00 4 00045         TSX     $GDT,4
      01552  0602 00 0 60263         SLW     TCYCLE
      01553 -0500 00 0 03071         CAL     UFDNAM
      01554  0602 00 0 62741         SLW     UFDENT
      01555 -0500 00 0 03072         CAL     UFDNAM+1
      01556  0602 00 0 62742         SLW     UFDENT+1
      01557  0602 00 0 64511         SLW     MFDENT+1
      01560 -0500 00 0 03073         CAL     MFDNAM
      01561  0602 00 0 64510         SLW     MFDENT
1           INCREMENTAL NEW FILES DUMP AND COMPLETE DUMP...M.J.BAILEY,12/31/64   05/11/69 2009.2 PAGE 24

      01562  0074 00 4 00046         TSX     $DMPFIL,4
      01563  0074 00 4 01720         TSX     OPNMFD,4
      01564  0500 00 0 00326         CLA     UDTSW
      01565  0100 00 0 01572         TZE     AUTOM
      01566  0600 00 0 00326         STZ     UDTSW
      01567 -0500 00 0 03070         CAL     TTLD
      01570  0602 00 0 62737         SLW     TLD
                              *      TZE     CDF2
                              *      SUB     TNDSAV
                              *      TZE     CDF3
      01571  0020 00 0 01601         TRA     CDF
                              *
                              *  .  .  .  .  .  .  .  .  .  .  .  .  .  .  .  .  .  .  .  .  .
                              *      START COMPLETE CURRENT USER FILE DUMPING, IN
                              *      GROUPS ACCORDING TO MOST RECENT USE.
                              *  .  .  .  .  .  .  .  .  .  .  .  .  .  .  .  .  .  .  .  .  .
                              *
      01572  0074 00 4 00026  AUTOM  TSX     $GDSIG,4
      01573  0074 00 4 00045         TSX     $GDT,4
      01574  0602 00 0 60263         SLW     TCYCLE        SET TIME OF THIS LAST CYCLE ON DUMP TAPE FI
      01575  0602 00 0 62720         SLW     TNDSW         ENSURE TND WILL BE TAKEN AS A CONSTANT
      01576 -0500 00 0 60256         CAL     TNDSAV        RESTORE TND = START OF TOMORROW
                              *
                              *CDE   SLW     TND           SET TND
                              *      TSX     $SUBDAY,4
                              *      TXH     LDINC
                              *      SLW     TLD           TLD=TND-DINC
                              *      SUB     TCP
                              *      TPL     *+3           SKIP IF TLD .GE. TCP
                              *      CAL     TCP           TLD LESS THAN TCP,
                              *      SLW     TLD           SET TLD=TCP
      01577  0074 00 4 00032         TSX     $DTSAVE,4     SAVE DUMPER TABLES ETC.
      01600  0761 00 0 00000         NOP
                              *
      01601  0074 00 4 00047  CDF    TSX     $DCYCLE,4     PERFORM DUMP CYCLE, DUMPING ALL FILES WHOSE
      01602  0761 00 0 00000         NOP                   DATE LAST USED IS BETWEEN TLD AND TND, WITH
                                                           SOME EXEMPT USERS.
      01603  0761 00 0 00000         NOP                   (END OF DAY RETURN - IMPOSSIBLE)
                              *
                              *      CLA     TLD
                              *      SUB     TCP
                              *      TZE     *+3           ALMOST FINISHED IF TLD=TCP
                              *      CAL     TLD           SETTING TND = TLD,
                              *      TRA     CDE           RETURN FOR NEXT MOST RECENTLY USED FILES
                              *      CAL     TLD
                              *      SLW     TND
                              *      STZ     TLD
                              **
                              *      TSX     $DTSAVE,4
                              *      NOP
                              *CDF2  TSX     $DCYCLE,4     TO DUMP ALL TIME
                              *      NOP
                              *      NOP
                              *      CAL     TNDSAV        DATE COMPLETE DUMP BEGAN (= TO-DAY
                              *      SLW     TLD           OR POSSIBLY IT IS YESTERDAY BY NOW)
                              *      TSX     $ADDDAY,4     ADD 2 DAYS TO
1           INCREMENTAL NEW FILES DUMP AND COMPLETE DUMP...M.J.BAILEY,12/31/64   05/11/69 2009.2 PAGE 25

                              *      TSX     $ADDDAY,4     ENSURE WE CATCH EVERYTHING
                              *      SLW     TND           USED SINCE COMPLETE DUMP BEGAN
                              *CDF3  TSX     $DCYCLE,4     MAKE FINAL CYCLE TO GET RECENTLY USED FILES
                              *      NOP
                              *      NOP
                              *
                              *      DUMP M.F.D. FILE
                              *
      01604  0074 00 4 01736         TSX     CLSMFD,4
      01605 -0500 00 0 03071         CAL     UFDNAM
      01606  0602 00 0 62741         SLW     UFDENT
      01607 -0500 00 0 03072         CAL     UFDNAM+1
      01610  0602 00 0 62742         SLW     UFDENT+1
      01611  0602 00 0 64511         SLW     MFDENT+1
      01612 -0500 00 0 03073         CAL     MFDNAM
      01613  0602 00 0 64510         SLW     MFDENT
      01614  0074 00 4 00046         TSX     $DMPFIL,4
                              *
                              *  TERMINATE MAP FILE,DUMP IT, COPY IT ON TO THE PRINT
                              *   OUTPUT TAPE, CLOSE THE USER-DUMP FILES.
                              *
      01615  0074 00 4 00051         TSX     $EMF,4        END MAP FILE
 TD   01616  3 00000 0 03541         TXH     =0
      01617  0074 00 4 00052         TSX     $DMF,4        DUMP MAP FILE, COPY TO PRINT TAPE
      01620  0074 00 4 00004         TSX     ATTACH,4
 TD   01621  3 00000 0 62727         TXH     DMPUSR
 TD   01622  3 00000 0 62726         TXH     DMPRGR
                              *
      01623  0074 00 4 00032         TSX     $DTSAVE,4
      01624  0761 00 0 00000         NOP
      01625  0074 00 4 00010         TSX     CLOSE,4       CLOSE USERS'-FILES DUMP TAPE FILES
 TD   01626  3 00000 0 62723         TXH     NFN1
 TD   01627  3 00000 0 62724         TXH     NFN1+1
      01630  0074 00 4 00010         TSX     CLOSE,4
 TD   01631  3 00000 0 62721         TXH     NFN2
 TD   01632  3 00000 0 62722         TXH     NFN2+1
      01633  0074 00 4 00026         TSX     $GDSIG,4
      01634  0074 00 4 00015         TSX     UMOUNT,4      HAVE OPERATOR DISMOUNT REEL
 TD   01635  3 00000 0 03550         TXH     =11           FROM UNIT 11 (DUMP TAPE COPY 1)
      01636  2 03310 0 03266         TIX     EUDMES,,LEUDMS  AND GIVE END OF DUMP MESSAGE
      01637  0074 00 4 00015         TSX     UMOUNT,4      REPEAT FOR UNIT 12 (DUMP TAPE COPY 2)
 TD   01640  3 00000 0 03551         TXH     =12
      01641  2 03310 0 03266         TIX     EUDMES,,LEUDMS
      01642  0600 00 0 60262         STZ     TFOSW
      01643  0074 00 4 00032         TSX     $DTSAVE,4
      01644  0761 00 0 00000         NOP
      01645  0074 00 4 00032         TSX     $DTSAVE,4
      01646  0761 00 0 00000         NOP
                              *
                              *      WHEN COMPLETE DUMP IS FINISHED, PRINT MESSAGE TO INFORM OPERATOR,
                              *      AND THEN, EITHER MOVE ON TO INCREMENTAL DUMP IF SYSTEM JUST
                              *      LOADED, OR, IF THE COMPLETE DUMP FOLLOWED AN OPERATOR-INITIATED
                              *      TERMINATION OF AN INCREMENTAL DUMP 'DAY', WAIT FOR A SIGNAL TO
                              *      RESUME INCREMENTAL DUMPING.
                              *
      01647  0600 00 0 60266         STZ     CDSW          INDICATE COMPLETE DUMP FINISHED
1           INCREMENTAL NEW FILES DUMP AND COMPLETE DUMP...M.J.BAILEY,12/31/64   05/11/69 2009.2 PAGE 26

      01650 -0520 00 0 60260         NZT     SW1           DID WE JUST LOAD THE SYSTEM
      01651  0020 00 0 00366         TRA     IDUMP         YES, RETURN TO INCREMENTAL DUMP
                              *
      01652                   CDG    PRLINE  (  REQUESTED COMPLETE DUMP IS ALL DONE.),7,0
      01652                          MOVE    7,..024,PBF                                                      .001
      01652  0774 00 1 00007         AXT     7,1                                                              .002
      01653 -0500 00 1 03531         CAL     ..024+7,1                                                        .002
      01654  0602 00 1 64535         SLW     PBF+7,1                                                          .002
      01655  2 00001 1 01653         TIX     *-2,1,1                                                          .002
      01656                          PRBUFF  PBF,7+0                                                          .001
      01656  0634 00 4 01661         SXA     *+3,4                                                            .002
      01657  0074 00 4 00012         TSX     WRFLX,4                                                          .002
      01660  0 00007 0 64526                 PBF,,7+0                                                         .002
      01661  0774 00 4 00000         AXT     **,4                                                             .002
      01662                          CLEAR   PBF,7+0                                                          .002
      01662  0774 00 1 00007         AXT     7+0,1                                                            .003
      01663  0600 00 1 64535         STZ     PBF+7+0,1                                                        .003
      01664  2 00001 1 01663         TIX     *-1,1,1                                                          .003
                                     RMT                                                                      .001
                              ..024  BCI     7,  REQUESTED COMPLETE DUMP IS ALL DONE.                         .001
                                     RMT                                                                      .001
      01665  0074 00 4 00026  CDH    TSX     $GDSIG,4
      01666                          PRCODE  I,MESB,7      ASK OPERATOR TO SET EITHER INCREMENTAL
      01666  0074 00 4 00050         TSX     $PRCODE,4                                                        .001
 TD   01667  3 00000 0 00001         TXH     I                                                                .001
      01670  3 00007 0 02773         TXH     MESB,,7                                                          .001
      01671                          PRCODE  PAUSE,MESC,6  DUMP KEY CODE, OR PAUSE KEY CODE
      01671  0074 00 4 00050         TSX     $PRCODE,4                                                        .001
 TD   01672  3 00000 0 00002         TXH     PAUSE                                                            .001
      01673  3 00006 0 03002         TXH     MESC,,6                                                          .001
      01674 -0500 00 0 03552         CAL     =15
      01675  0074 00 4 00011         TSX     SLEEP,4
      01676                          TESTKY  I,TMCC        SKIP TO RESUME INCREMENTAL DUMP
      01676  0074 00 7 00027         TSX     $NGETA,7                                                         .001
      01677  0560 00 0 74446         LDQ     DEMKEY                                                           .001
      01700 -0600 00 0 77461         STQ     KEYVAL                                                           .001
      01701  0774 00 1 00001         AXT     I,1                                                              .001
      01702  0754 00 1 00000         PXA     0,1                                                              .001
      01703  0402 00 0 77461         SUB     KEYVAL                                                           .001
      01704  0100 00 0 01177         TZE     TMCC                                                             .001
      01705                          TESTKY  PAUSE,CDI     OR SKIP TO PAUSE FOR 1 MIN.
      01705  0074 00 7 00027         TSX     $NGETA,7                                                         .001
      01706  0560 00 0 74446         LDQ     DEMKEY                                                           .001
      01707 -0600 00 0 77461         STQ     KEYVAL                                                           .001
      01710  0774 00 1 00002         AXT     PAUSE,1                                                          .001
      01711  0754 00 1 00000         PXA     0,1                                                              .001
      01712  0402 00 0 77461         SUB     KEYVAL                                                           .001
      01713  0100 00 0 01715         TZE     CDI                                                              .001
      01714  0020 00 0 01665         TRA     CDH           OR ASK AGAIN IF NO RESPONSE
      01715 -0500 00 0 03554  CDI    CAL     =60
      01716  0074 00 4 00011         TSX     SLEEP,4       SLEEP FOR 1 MIN.
      01717  0020 00 0 01652         TRA     CDG           LOOP BACK
                              *
                              *
                              *
      01720  0634 00 4 01734  OPNMFD SXA     O4,4
1           INCREMENTAL NEW FILES DUMP AND COMPLETE DUMP...M.J.BAILEY,12/31/64   05/11/69 2009.2 PAGE 27

      01721  0074 00 4 00004         TSX     ATTACH,4
 TD   01722  3 00000 0 03073         TXH     MFDNAM
 TD   01723  3 00000 0 03072         TXH     UFDNAM+1
      01724  0074 00 4 00007         TSX     OPEN,4
 TD   01725  3 00000 0 03601         TXH     =HR
 TD   01726  3 00000 0 03073         TXH     MFDNAM
 TD   01727  3 00000 0 03072         TXH     UFDNAM+1
      01730  0074 00 4 00000         TSX     BUFFER,4
 TD   01731  3 00000 0 03073         TXH     MFDNAM
 TD   01732  3 00000 0 03072         TXH     UFDNAM+1
      01733  3 00660 0 01746         TXH     IOBUF3,,432
      01734  0774 00 4 00000  O4     AXT     **,4
      01735  0020 00 4 00001         TRA     1,4
                              *
      01736  0634 00 4 01734  CLSMFD SXA     O4,4
      01737  0074 00 4 00004         TSX     ATTACH,4
 TD   01740  3 00000 0 03073         TXH     MFDNAM
 TD   01741  3 00000 0 03072         TXH     UFDNAM+1
      01742  0074 00 4 00010         TSX     CLOSE,4
 TD   01743  3 00000 0 03073         TXH     MFDNAM
 TD   01744  3 00000 0 03072         TXH     UFDNAM+1
      01745  0020 00 0 01734         TRA     O4
                              *
      01746                   IOBUF3 BSS     432
                              *
      02626  0634 00 4 02653  WREND  SXA     WEND,4
      02627  0074 00 4 00004         TSX     ATTACH,4
 TD   02630  3 00000 0 62727         TXH     DMPUSR
 TD   02631  3 00000 0 62726         TXH     DMPRGR
      02632  0074 00 4 00001         TSX     $SETFIL,4
 TD   02633  3 00000 0 03605         TXH     =H   THE
 TD   02634  3 00000 0 03604         TXH     =H   END
 TD   02635  3 00000 0 03541         TXH     =0
 TD   02636  3 00000 0 03541         TXH     =0
      02637 -0500 00 0 03605         CAL     =H   THE
      02640  0602 00 0 62741         SLW     UFDENT
      02641 -0500 00 0 03604         CAL     =H   END
      02642  0602 00 0 62742         SLW     UFDENT+1
      02643 -0500 00 0 62727         CAL     DMPUSR
      02644  0602 00 0 64510         SLW     MFDENT
      02645 -0500 00 0 62726         CAL     DMPRGR
      02646  0602 00 0 64511         SLW     MFDENT+1
      02647  0074 00 4 00046         TSX     $DMPFIL,4
      02650  0074 00 4 00003         TSX     $DELFIL,4
 TD   02651  3 00000 0 03605         TXH     =H   THE
 TD   02652  3 00000 0 03604         TXH     =H   END
      02653  0774 00 4 00000  WEND   AXT     **,4
      02654  0020 00 4 00001         TRA     1,4
                              *
                              *
                              *  .  .  .  .  .  .  .  .  .  .  .  .  .  .  .  .  .  .  .  .
                              *      ERROR FIX-UP SECTION
                              *  .  .  .  .  .  .  .  .  .  .  .  .  .  .  .  .  .  .  .  .
                              *
      02655  0074 00 4 00056  ERRID2 TSX     $CKCODE,4     ERROR  WRITING
      02656  464725456060            BCI     1,OPEN        CHECK IF IT WAS 'NO DRUM AVAILABLE'
1           INCREMENTAL NEW FILES DUMP AND COMPLETE DUMP...M.J.BAILEY,12/31/64   05/11/69 2009.2 PAGE 28

      02657  0 00000 0 00016         PZE     ERCODB
      02660  0 00000 0 02671         PZE     ED2A          TRANSFER ADDRESS FOR SOME OTHER ERROR
      02661  0074 00 4 00007         TSX     OPEN,4        NO DRUM AVAILABLE, MAKE IT DISK
 TD   02662  3 00000 0 03046         TXH     W
 TD   02663  3 00000 0 03047         TXH     BA
 TD   02664  3 00000 0 03050         TXH     BB
 TD   02665  3 00000 0 03541         TXH     =0
 TD   02666  3 00000 0 03052         TXH     LDSK
 TD   02667  3 00000 0 02671         TXH     ED2A          (ERROR ADDRESS)
      02670  0020 00 0 00413         TRA     IDE           NOW CARRY ON
      02671                   ED2A   BGNERM  =HID02        SOME OTHER ERROR, PRINT STANDARD MESSAGE
      02671  0634 00 4 02674         SXA     *+3,4                                                            .001
      02672  0074 00 4 00040         TSX     $BERM,4                                                          .001
      02673  0 00000 0 03572         PZE     =HID02                                                           .001
      02674  0774 00 4 00000         AXT     **,4                                                             .001
      02675                          ERTN    IDDA          TRY AGAIN
      02675  0634 00 4 02677         SXA     *+2,4                                                            .001
      02676  0074 00 4 00041         TSX     $ERREND,4                                                        .001
      02677  0774 00 4 00000         AXT     **,4                                                             .001
      02700  0020 00 0 00404         TRA     IDDA                                                             .001
                              *
      02701                   ERRID3 BGNERM  =HID03        ERROR OPENING TEMP. USER LIST FILE
      02701  0634 00 4 02704         SXA     *+3,4                                                            .001
      02702  0074 00 4 00040         TSX     $BERM,4                                                          .001
      02703  0 00000 0 03573         PZE     =HID03                                                           .001
      02704  0774 00 4 00000         AXT     **,4                                                             .001
      02705                          ERTN    IDKA-4        PRINT STANDARD MESSAGE,CONTINUE
      02705  0634 00 4 02707         SXA     *+2,4                                                            .001
      02706  0074 00 4 00041         TSX     $ERREND,4                                                        .001
      02707  0774 00 4 00000         AXT     **,4                                                             .001
      02710  0020 00 0 00514         TRA     IDKA-4                                                           .001
                              *
      02711                   ERRID6 BGNERM  =HID06        TOO MANY USERS EXEMPT FROM ALL DUMPS
      02711  0634 00 4 02714         SXA     *+3,4                                                            .001
      02712  0074 00 4 00040         TSX     $BERM,4                                                          .001
      02713  0 00000 0 03574         PZE     =HID06                                                           .001
      02714  0774 00 4 00000         AXT     **,4                                                             .001
      02715  0774 00 4 00014         AXT     2*NX,4        LIMIT THE NUMBER ALLOWED (REAL CURE IS
      02716                          ERTN    IDNZ          TO GIVE NX BIGGER VALUE AND RE-ASSEMBLE)
      02716  0634 00 4 02720         SXA     *+2,4                                                            .001
      02717  0074 00 4 00041         TSX     $ERREND,4                                                        .001
      02720  0774 00 4 00000         AXT     **,4                                                             .001
      02721  0020 00 0 00741         TRA     IDNZ                                                             .001
                              *
      02722                   ERRCD1 BGNERM  =HCD01        EXEMPT USER ARRAY TOO SMALL
      02722  0634 00 4 02725         SXA     *+3,4                                                            .001
      02723  0074 00 4 00040         TSX     $BERM,4                                                          .001
      02724  0 00000 0 03563         PZE     =HCD01                                                           .001
      02725  0774 00 4 00000         AXT     **,4                                                             .001
      02726                          PRLINE  ( COMPLETE DUMP HAS TO BE ABANDONED. RE-ASSEMBLE.),8,0
      02726                          MOVE    8,..027,PBF                                                      .001
      02726  0774 00 1 00010         AXT     8,1                                                              .002
      02727 -0500 00 1 03541         CAL     ..027+8,1                                                        .002
      02730  0602 00 1 64536         SLW     PBF+8,1                                                          .002
      02731  2 00001 1 02727         TIX     *-2,1,1                                                          .002
      02732                          PRBUFF  PBF,8+0                                                          .001
1           INCREMENTAL NEW FILES DUMP AND COMPLETE DUMP...M.J.BAILEY,12/31/64   05/11/69 2009.2 PAGE 29

      02732  0634 00 4 02735         SXA     *+3,4                                                            .002
      02733  0074 00 4 00012         TSX     WRFLX,4                                                          .002
      02734  0 00010 0 64526                 PBF,,8+0                                                         .002
      02735  0774 00 4 00000         AXT     **,4                                                             .002
      02736                          CLEAR   PBF,8+0                                                          .002
      02736  0774 00 1 00010         AXT     8+0,1                                                            .003
      02737  0600 00 1 64536         STZ     PBF+8+0,1                                                        .003
      02740  2 00001 1 02737         TIX     *-1,1,1                                                          .003
                                     RMT                                                                      .001
                              ..027  BCI     8, COMPLETE DUMP HAS TO BE ABANDONED. RE-ASSEMBLE.               .001
                                     RMT                                                                      .001
      02741                          ERTN    TMI           ABANDON COMPLETE DUMP
      02741  0634 00 4 02743         SXA     *+2,4                                                            .001
      02742  0074 00 4 00041         TSX     $ERREND,4                                                        .001
      02743  0774 00 4 00000         AXT     **,4                                                             .001
      02744  0020 00 0 01323         TRA     TMI                                                              .001
                              *
      02745                   ERRCD2 BGNERM  =HCD02        'IMPOSSIBLE' END OF DAY RETURN FROM DUSR
      02745  0634 00 4 02750         SXA     *+3,4                                                            .001
      02746  0074 00 4 00040         TSX     $BERM,4                                                          .001
      02747  0 00000 0 03564         PZE     =HCD02                                                           .001
      02750  0774 00 4 00000         AXT     **,4                                                             .001
      02751                          ERTN    CDD-1         MOVE TO NEXT SYSTEM FILE OWNER/USER
      02751  0634 00 4 02753         SXA     *+2,4                                                            .001
      02752  0074 00 4 00041         TSX     $ERREND,4                                                        .001
      02753  0774 00 4 00000         AXT     **,4                                                             .001
      02754  0020 00 0 01471         TRA     CDD-1                                                            .001
                              *
      02755                   ERRCD3 BGNERM  =HCD03        UFD FILE READING ERROR
      02755  0634 00 4 02760         SXA     *+3,4                                                            .001
      02756  0074 00 4 00040         TSX     $BERM,4                                                          .001
      02757  0 00000 0 03565         PZE     =HCD03                                                           .001
      02760  0774 00 4 00000         AXT     **,4                                                             .001
      02761                          ERTN    CDD-1         MOVE TO NEXT SYSTEM FILE OWNER/USER
      02761  0634 00 4 02763         SXA     *+2,4                                                            .001
      02762  0074 00 4 00041         TSX     $ERREND,4                                                        .001
      02763  0774 00 4 00000         AXT     **,4                                                             .001
      02764  0020 00 0 01471         TRA     CDD-1                                                            .001
                              *
                              *  .  .  .  .  .  .  .  .  .  .  .  .  .  .  .  .  .  .  .  .
                              *      CONSTANTS, VARIABLES, ETC.
                              *  .  .  .  .  .  .  .  .  .  .  .  .  .  .  .  .  .  .  .  .
                              *
      02765  606346602725     MESA   BCI     6, TO GET COMPLETE DUMP OF DISK NEXT.
      02766  636023464447
      02767  432563256024
      02770  644447604626
      02771  602431624260
      02772  452567633360
      02773  606346605125     MESB   BCI     7, TO RESUME INCREMENTAL NEW FILE DUMPING.
      02774  626444256031
      02775  452351254425
      02776  456321436045
      02777  256660263143
      03000  256024644447
      03001  314527336060
1           INCREMENTAL NEW FILES DUMP AND COMPLETE DUMP...M.J.BAILEY,12/31/64   05/11/69 2009.2 PAGE 30

      03002  606346606264     MESC   BCI     6, TO SUSPEND DUMPER FOR 1 MINUTE
      03003  624725452460
      03004  246444472551
      03005  602646516001
      03006  604431456463
      03007  256060606060
      03010  603126607046     MESD   BCI     7, IF YOU PLAN TO DO AUTOMATIC LOGOUT SOON.
      03011  646047432145
      03012  606346602446
      03013  602164634644
      03014  216331236043
      03015  462746646360
      03016  624646453360
      03017  603126604546     MESE   BCI     2, IF NOT.
      03020  633360606060
      03021  622563604225     MESEX  BCI     2,SET KEY CODE
      03022  706023462425
      03023  606445256747     MESX   BCI     9, UNEXPECTED AND/OR NON-CRUCIAL I/O SYSTEM ERROR RETURN
      03024  252363252460
      03025  214524614651
      03026  604546454023
      03027  516423312143
      03030  603161466062
      03031  706263254460
      03032  255151465160
      03033  512563645145
      03034  606346605125     MESZ   BCI     7, TO RE-ACTIVATE DUMPER, WHICH YOU MUST.
      03035  402123633165
      03036  216325602464
      03037  444725517360
      03040  663031233060
      03041  704664604464
      03042  626333606060
      03043  0 00000 0 01274  MXIOU  PZE     U
      03044  0 00000 0 00000  NAME1  PZE
      03045  0 00000 0 00000  ALOGSW PZE
      03046  666060606060      W     BCI     1,W
      03047  226431432433     BA     BCI     1,BUILD.
      03050  606060634324     BB     BCI     1,   TLD
      03051  0 00000 0 00001   LLSD  PZE     LSDRUM
      03052  0 00000 0 00002   LDSK  PZE     DISK
      03053  0 00000 0 00660   LBUF2 PZE     NW
      03054  0 00000 0 00003  L3     PZE     3
      03055  0 00000 0 00000  PASS   PZE     **
      03056  0 00000 0 00375  LIDD   PZE     IDD
      03057  0 00000 0 00000  DAUTH  PZE
      03060 +000000000000     PBBASE DEC     0
      03061 +000000200660     MDDVC  OCT     000000200660
      03062  516060606060      R     BCI     1,R


      03063  000000250600     DAY    VFD     36/NHOUR*60*60
1           INCREMENTAL NEW FILES DUMP AND COMPLETE DUMP...M.J.BAILEY,12/31/64   05/11/69 2009.2 PAGE 31

                              *
                              *
                              *
      03064  0 00000 0 00030   LNCD  PZE     NCD
      03065  0 00000 0 00014  LDINC  PZE     DINC
      03066  0 00000 0 00000    J    PZE     **
      03067  0 00000 0 00000  NXDUSK PZE     **
      03070  0 00000 0 00000  TTLD   PZE
      03071  643326332433     UFDNAM BCI     2,U.F.D.(FILE)
      03072  742631432534
      03073  443326332433     MFDNAM BCI     1,M.F.D.
      03074  604401040106     SFA    BCI     2, M1416CMFL01
      03075  234426430001
      03076  604401040106            BCI     2, M1416CMFL02
      03077  234426430002
      03100  604401040106            BCI     2, M1416CMFL05
      03101  234426430005
      03102  0 00000 0 00006  SYSFL  PZE     *-SFA
      03103  602300000506     IDXM   BCI     2, C0056 99999
      03104  601111111111
      03105  604401040106            BCI     2, M1416CMFL02
      03106  234426430002
      03107  0 00000 0 00004  NIDXM  PZE     *-IDXM
      03110  602351252163     DTPID  BCI     4, CREATED-FILE DUMP TAPE
      03111  252440263143
      03112  256024644447
      03113  606321472560
      03114  606263215163     SIDMES BCI     7, START OF NEW INCREMENTAL DUMP PERIOD.
      03115  604626604525
      03116  666031452351
      03117  254425456321
      03120  436024644447
      03121  604725513146
      03122  243360606060
      03123  602330252342            BCI     6, CHECK FLUSH MODE STATUS.
      03124  602643646230
      03125  604446242560
      03126  626321636462
      03127  336060606060
      03130  606060606060
      03131  604525666051            BCI     6, NEW REELS SHOULD BE MOUNTED.
      03132  252543626062
      03133  304664432460
      03134  222560444664
      03135  456325243360
      03136  606060606060
      03137  0 00000 0 00023  LSIDMS PZE     *-SIDMES
      03140  602545246046     EIDMES BCI     8, END OF INCREMENTAL NEW FILE DUMP TAPE FILE.
      03141  266031452351
      03142  254425456321
      03143  436045256660
      03144  263143256024
      03145  644447606321
      03146  472560263143
      03147  253360606060
      03150  602246633060            BCI     7, BOTH COPIES OF DUMP TAPE SHOULD BE SAVED,
1           INCREMENTAL NEW FILES DUMP AND COMPLETE DUMP...M.J.BAILEY,12/31/64   05/11/69 2009.2 PAGE 32

      03151  234647312562
      03152  604626602464
      03153  444760632147
      03154  256062304664
      03155  432460222560
      03156  622165252473
      03157  602162606246            BCI     4, AS SOON AS POSSIBLE.
      03160  464560216260
      03161  474662623122
      03162  432533606060
      03163  0 00000 0 00023  LEIDMS PZE     *-EIDMES
      03164  606270626325      SDTID BCI     4, SYSTEM-FILES DUMP TAPE
      03165  444026314325
      03166  626024644447
      03167  606321472560
      03170  606270626325     SSDMES BCI     7, SYSTEM-FILE COMPLETE DUMP BEGINNING.
      03171  444026314325
      03172  602346444743
      03173  256325602464
      03174  444760222527
      03175  314545314527
      03176  336060606060
      03177  604525666051            BCI     6, NEW REELS SHOULD BE MOUNTED.
      03200  252543626062
      03201  304664432460
      03202  222560444664
      03203  456325243360
      03204  606060606060
      03205  0 00000 0 00015  LSSDMS PZE     *-SSDMES
      03206  602545246046     ESDMES BCI     6, END OF SYSTEM-FILE COMPLETE DUMP.
      03207  266062706263
      03210  254440263143
      03211  256023464447
      03212  432563256024
      03213  644447336060
      03214  605125444665            BCI     8, REMOVE AND SAVE BOTH COPIES OF THIS DUMP TAPE,
      03215  256021452460
      03216  622165256022
      03217  466330602346
      03220  473125626046
      03221  266063303162
      03222  602464444760
      03223  632147257360
      03224  602162606246            BCI     4, AS SOON AS POSSIBLE.
      03225  464560216260
      03226  474662623122
      03227  432533606060
      03230  0 00000 0 00022  LESDMS PZE     *-ESDMES
      03231  606462255162     UFDTID BCI     4, USERS'-FILES DUMP TAPE
      03232  144026314325
      03233  626024644447
      03234  606321472560
      03235  646225514026     SUDMES BCI     7,USER-FILE COMPLETE DUMP BEGINNING.
      03236  314325602346
      03237  444743256325
      03240  602464444760
1           INCREMENTAL NEW FILES DUMP AND COMPLETE DUMP...M.J.BAILEY,12/31/64   05/11/69 2009.2 PAGE 33

      03241  222527314545
      03242  314527336060
      03243  606060606060
      03244  604525666051            BCI     6, NEW REELS SHOULD BE MOUNTED.
      03245  252543626062
      03246  304664432460
      03247  222560444664
      03250  456325243360
      03251  606060606060
      03252  0 00000 0 00015  LSUDMS PZE     *-SUDMES
      03253  604721453123     ALLMES BCI     3, PANIC UNMOUNT,
      03254  606445444664
      03255  456373606060
      03256  602464444760            BCI     7, DUMP MAP NOT DUMPED ON THESE TAPES
      03257  442147604546
      03260  636024644447
      03261  252460464560
      03262  633025622560
      03263  632147256260
      03264  606060606060
      03265  0 00000 0 00012  LALMES PZE     *-ALLMES
      03266  602545246046     EUDMES BCI     6, END OF USERS'-FILES COMPLETE DUMP.
      03267  266064622551
      03270  621440263143
      03271  256260234644
      03272  474325632560
      03273  246444473360
      03274  605125444665            BCI     8, REMOVE AND SAVE BOTH COPIES OF THIS DUMP TAPE,
      03275  256021452460
      03276  622165256022
      03277  466330602346
      03300  473125626046
      03301  266063303162
      03302  602464444760
      03303  632147257360
      03304  602162606246            BCI     4, AS SOON AS POSSIBLE.
      03305  464560216260
      03306  474662623122
      03307  432533606060
      03310  0 00000 0 00022  LEUDMS PZE     *-EUDMES
      03311  246444476347     MAP1   BCI     1,DUMPTP
      03312  601444214714     MAP2   BCI     1, 'MAP'
      03313 -377777000015     MAPHD  OCT     777777000015
      03314  016060606060            BCI     9,1                       MAP OF THE CONTENTS OF THE CRE
      03315  606060606060
      03316  606060606060
      03317  606060606060
      03320  442147604626
      03321  606330256023
      03322  464563254563
      03323  626046266063
      03324  302560235125
      03325  216325244026            BCI     4,ATED-FILE DUMP TAPE FILE
      03326  314325602464
      03327  444760632147
      03330  256026314325
1           INCREMENTAL NEW FILES DUMP AND COMPLETE DUMP...M.J.BAILEY,12/31/64   05/11/69 2009.2 PAGE 34

      03331 -377777000016            OCT     777777000016
      03332  006060606060            BCI     9,0                       OF FILES CREATED DURING THE PE
      03333  606060606060
      03334  606060606060
      03335  606060606060
      03336  462660263143
      03337  256260235125
      03340  216325246024
      03341  645131452760
      03342  633025604725
      03343  513146246025            BCI     2,RIOD ENDING
      03344  452431452760
      03345  606060606060      MHA   BCI     3,      ,   /  /  .
      03346  736060606160
      03347  606160603360
      03350 -377777000013            OCT     777777000013
      03351  006060606060            BCI     8,0                             (DUMPING BEGAN AT
      03352  606060606060
      03353  606060606060
      03354  606060606060
      03355  606060606060
      03356  742464444731
      03357  452760222527
      03360  214560216360
      03361  606060606060      MHB   BCI     3,       ON   /  /
      03362  604645606060
      03363  616060616060
      03364 -377777000014            OCT     777777000014
      03365  606060606060            BCI     8,                                AND FINISHED AT
      03366  606060606060
      03367  606060606060
      03370  606060606060
      03371  606060606060
      03372  606021452460
      03373  263145316230
      03374  252460216360
      03375  606060606060      MHC   BCI     4,       ON   /  /  )
      03376  604645606060
      03377  616060616060
      03400  346060606060
      03401 -377777000001            OCT     777777000001
      03402  606060606060            BCI     1,
      03403 -377777000021            OCT     777777000021
      03404  006060606331            BCI     9,0   TIME DUMPED          USER           FILE      DATE
      03405  442560246444
      03406  472524606060
      03407  606060606060
      03410  606462255160
      03411  606060606060
      03412  606060602631
      03413  432560606060
      03414  606024216325
      03415  616331442560            BCI     8,/TIME OF FILE    USER'S T.L.D.        T.N.D.
      03416  462660263143
      03417  256060606064
      03420  622551146260
1           INCREMENTAL NEW FILES DUMP AND COMPLETE DUMP...M.J.BAILEY,12/31/64   05/11/69 2009.2 PAGE 35

      03421  633343332433
      03422  606060606060
      03423  606063334533
      03424  243360606060
      03425 -377777000021            OCT     777777000021
      03426  606060604040            BCI     9,    -----------          ----           ----      ----
      03427  404040404040
      03430  404040606060
      03431  606060606060
      03432  604040404060
      03433  606060606060
      03434  606060604040
      03435  404060606060
      03436  606040404040
      03437  404040404040            BCI     8,-------------    -------------        ------
      03440  404040404040
      03441  406060606040
      03442  404040404040
      03443  404040404040
      03444  606060606060
      03445  606040404040
      03446  404060606060
      03447  0 00000 0 00134   LMHD  PZE     *-MAPHD       LENGTH OF 'MAP' FILE HEADING
      03450  0 00000 0 00063  IMPINS PZE     MHC-MAPHD+1
                                     INSERT  DCMEQB
                              *
                              *  .  .  .  .  .  .  .  .  .  .  .  .  .  .  .  .  .  .
                              *    COMMON AND EQUIVALENCE FOR GENERAL DUMP PROGRAM
                              *  .  .  .  .  .  .  .  .  .  .  .  .  .  .  .  .  .  .
                              *
                      074446  DEMKEY BOOL    74446         CORE A LOCATION FOR DAEMON'S KEY SETTING
                      074624  SYSTIM BOOL    74624         CORE A LOCATION FOR SYSTEM  TIME
                      074623  SYSDAT BOOL    74623         CORE A LOCATION FOR SYSTEM INIT. DATE
                      076041  RCODE  BOOL    76041         CORE A LOCATION FOR RESTRICTION CODE VECTOR
                      074454  AUTOND BOOL    74454         CORE A AUTOMATIC LOGOUT INDICATOR
                      074532  NUSERS BOOL    74532         CORE A LOGGED-IN USER COUNT
                      076500  PROBN  BOOL    76500         CORE A PROBNO ARRAY
                      076305  UFDNM  BOOL    76305         CORE A UFDNM ARRAY
                      074672  PB     BOOL    74672         CORE A GUARANTEED PERCENTAGE VECTOR BASE
                       00050  N      EQU     40            CORE A MAX. NO. OF USERS (SIZE OF PROBN)
                              *
                      000017  BASE   BOOL    17            KEY CODE BASE
                      000001  I      BOOL    1             KEY CODE TO START INCREMENTAL DUMP
                      000002  PAUSE  BOOL    2             KEY CODE TO WAIT FOR 1 MIN.
                      000003  C      BOOL    3             KEY CODE TO DO COMPLETE DUMP
                      000004  AK     BOOL    4             KEY CODE FOR IMPENDING AUTOLOGOUT
                      000005  ENFLSH BOOL    5             KEY CODE TO ENTER FLUSH MODE
                      000006  LVFLSH BOOL    6             KEY CODE TO LEAVE FLUSH MODE
                      000007  ENDTAP BOOL    7             KEY CODE TO TERMINATE DUMP TAPE FILE
                      000010  INT    BOOL    10            SIMULATE INTERRUPT
                       00660  RECSIZ EQU     432           TAPE RECORD SIZE
                       00006   NX    EQU     6             MAX. NO. OF SYSTEM FILE OWNERS
                       00030  NCD    EQU     24            MAX. NO. 'DAYS' NON-USE OF CURRENT FILES
                       00014  DINC   EQU     12            NO. DAYS OF 'RECENCY' INCREMENT (C.DUMP)
                       01274  U      EQU     700           MAX. NO. USERS IN MFD USER LIST
                       03300  TBSIZ  EQU     4*RECSIZ      TAPE BUFFER SIZE
1           INCREMENTAL NEW FILES DUMP AND COMPLETE DUMP...M.J.BAILEY,12/31/64   05/11/69 2009.2 PAGE 36

                       00007  ERYSIZ EQU     7             I/O SYSTEM ERROR ARRAY SIZE
                       00014  ERCODA EQU     12            'OPEN' ERROR CODE FOR FILE NOT FOUND
                       00016  ERCODB EQU     14            'OPEN' ERROR CODE RQSTD. DEVICE UNAVBLE
                       00660  NW     EQU     432           SIZE OF SECONDARY I/O FILE BUFFERS
                       00001  LSDRUM EQU     1             I/O SYSTEM DEVICE CODE FOR L.S.DRUM
                       00002    DISK EQU     2             I/O SYSTEM DEVICE CODE FOR DISK
                       00003   TAPE  EQU     3             I/O SYSTEM DEVICE CODE FOR TAPE
                       00030  NHOUR  EQU     24            NO. OF HOURS IN A 'DAY'
                       77461  KEYVAL COMMON  1             LAST KEY SETTING READ FROM SUPERVISOR
                       77460  FLSHSW COMMON  1             FLUSH MODE SWITCH
                       77457  ENTPSW COMMON  1             OPERATOR-REQUESTED-END-TAPE INDICATOR
                       77456  NMFDU  COMMON  1             NO. USERS CURRENTLY IN LIST
                       77455  EXEMPT COMMON  2*NX          LIST OF SYSTEM FILE OWNERS
                       77441  NXMPT  COMMON  1             NO. FILE USERS EXEMPT FROM DUMP IN DCYCLE
                       77440  DTLD   COMMON  U             TIME LAST DUMPED FOR EACH USER
                       76144  PROGNO COMMON  U             PROGRAMMER NO. OF EACH USER
                       74650  PROBNO COMMON  U             PROBLEM NO. OF EACH USER
                       73354   FLUSH COMMON  1             NON-ZERO INDICATES FLUSH MODE IS FORCED
                       73353   TND   COMMON  1             TIME OF NEXT DUMP FOR CURRENT USER
                       70053         COMMON  TBSIZ-1       TAPE BUFFER
                       70053  TPBUF  COMMON  1             TAPE BUFFER 1ST WORD
                       64553         COMMON  TBSIZ-1       2ND TAPE BUFFER
                       64553  TPBUF2 COMMON  1             2ND TAPE BUFFER, 1ST WORD
                       64544         COMMON  ERYSIZ-1      ERROR ARRAY
                       64544  ERAY   COMMON  1             ERROR ARRAY 1ST WORD
                       64526         COMMON  13            PRINT BUFFER
                       64526   PBF   COMMON  1             PRINT BUFFER 1ST WORD
                       64510         COMMON  13            MFD ENTRY BUFFER
                       64510  MFDENT COMMON  1             MFD ENTRY BUFFER 1ST WORD
                       63630         COMMON  NW-1          SECONDARY I/0 FILE BUFFER
                       63630   IOBUF COMMON  1             SECONDARY IO BUFFER 1ST WORD
                       62750         COMMON  NW-1          SECONDARY I/O FILE BUFFER
                       62750  IOBUF2 COMMON  1             SECONDARY I/O BUFFER 1ST WORD
                       62747  UFDEOF COMMON  1             ZERO INDICATES EOF IN UFD FILE
                       62741         COMMON  5             PARTIAL UFD ENTRY BUFFER
                       62741  UFDENT COMMON  1             PARTIAL UFD ENTRY BUFFER 1ST WORD
                       62740   MFDC  COMMON  1             NEXT WORD TO BE READ FROM MFD FILE
                       62737   TLD   COMMON  1             TIME LAST DUMP OF USER CURRENTLY DUMPING
                       62736   UFDC  COMMON  1             NEXT UNREAD POS. OF UFDFILE (NORMALLY ZERO)
                       62735  MFDEOF COMMON  1             ZERO INDICATES EOF IN MFD FILE
                       62734   EOFCT COMMON  1             NO. OF WORDS READ BEFORE AN EOF
                       62733   FEOF  COMMON  1             ZERO INDICATES EOF IN A USER FILE
                       62732  EOFCTA COMMON  1             NO. OF WORDS BEFORE AN EOF
                       62731   DMPSW COMMON  1             NON-ZERO INDICATES A FILE HAS BEEN DUMPED
                       62730   DAWN  COMMON  1             TIME OF START OF 'DAY'
                       62727  DMPUSR COMMON  1             PROBLEM NO. OF DUMP/LOAD PACKAGE
                       62726  DMPRGR COMMON  1             PROGRAMMER NO. OF  DITTO.
                       62727  DU     EQU     DMPUSR
                       62726  DP     EQU     DMPRGR
                       62725   MFD1W COMMON  1             NO. OF 1ST GOOD WORD IN MFD AND UFD FILES
                       62723         COMMON  1             2ND PART OF DUMP TAPE FILE (COPY 1) NAME
                       62723  NFN1   COMMON  1             1ST PART OF DUMP TAPE FILE (COPY 1) NAME
                       62721         COMMON  1             2ND PART OF DUMP TAPE FILE (COPY 2) NAME
                       62721   NFN2  COMMON  1             1ST PART OF DUMP TAPE FILE (COPY 2) NAME
                       62720  TNDSW  COMMON  1             INDICATES TIME OF THIS DUMP CURRENT OR NO
                       62040         COMMON  RECSIZ-1      INTERNAL TAPE BUFFER
1           INCREMENTAL NEW FILES DUMP AND COMPLETE DUMP...M.J.BAILEY,12/31/64   05/11/69 2009.2 PAGE 37

                       62040   ITB1  COMMON  1                ,,     ,,    ,,  1ST WORD
                       61160         COMMON  RECSIZ-1      INTERNAL TAPE BUFFER
                       61160   ITB2  COMMON  1                ,,     ,,  ,,  1ST WORD
                       61157   DUSK  COMMON  1             TIME OF END OF CURRENT 'DAY'
                       61156   ENDSW COMMON  1             IF 1, NORMAL END-OF-DAY,ELSE OPERATOR ONE
                       60276         COMMON  NW-1          INTERNAL BUFFER FOR 'MAP' FILE
                       60276    IMP  COMMON  1                ,,      ,,    ,,   ,,   ,,  1ST WORD
                       60267         COMMON  6             'MAP' FILE LINE PARAMETER ARRAY
                       60267  ARGLST COMMON  1               ,,   ,,   ,,      ,,      ,,  1ST WORD
                       60266  CDSW   COMMON  1             NON-ZERO DURING COMPLETE DUMP,ELSE ZERO
                       60265  DATE   COMMON  1             DATE THE DUMP NOW IN PROGRESS BEGAN
                       60264  TIME   COMMON  1             TIME DUMP NOW IN PROGRESS BEGAN
                       60263  TCYCLE COMMON  1             'TIME' OF LAST CYCLE ON DUMP TAPE FILE
                       60262  TFOSW  COMMON  1             NON-ZERO IF DUMP TAPE FILE IS OPEN
                       60261  ALOG   COMMON  1             NON-ZERO IF AUTOLOGOUT ON
                       60260  SW1    COMMON  1
                       60257  TCP    COMMON  1
                       60256  TNDSAV COMMON  1
                       60255  ODAWN  COMMON  1             TIME OF START OF PREVIOUS 'DAY'
                       60244         COMMON  8             TAPE LABEL
                       60244  TAPEID COMMON  1             TAPE LABEL 1ST WORD
                       60243  SKELSW COMMON  1
                       60254  REELNO EQU     TAPEID+8
                                     END
                                              REMOTE SEQUENCES
      03451  606445256747     ..003  BCI     7, UNEXPECTED READ INTERLOCK TRAP IN DUMPER.                     .001
      03452  252363252460
      03453  512521246031
      03454  456325514346
      03455  234260635121
      03456  476031456024
      03457  644447255133
      03460  604546636025     ..006  BCI     8, NOT ENOUGH SPACE IN DUMP PROGRAMS USER LIST.                  .001
      03461  454664273060
      03462  624721232560
      03463  314560246444
      03464  476047514627
      03465  512144626064
      03466  622551604331
      03467  626333606060
      03470  605125246423     ..009  BCI     7, REDUCE M.F.D. OR RE-ASSEMBLE DUMP PROGRAM.                    .001
      03471  256044332633
      03472  243360465160
      03473  512540216262
      03474  254422432560
      03475  246444476047
      03476  514627512144
      03477  602464444725     ..012  BCI     4, DUMPER GOING TO SLEEP.                                        .001
      03500  516027463145
      03501  276063466062
      03502  432525473360
      03503  602464444725     ..015  BCI     3, DUMPER WAKING UP.                                             .001
      03504  516066214231
      03505  452760644733
      03506  604564622551     ..018  BCI     5, NUSERS STILL GREATER THAN ONE                                 .001
      03507  626062633143
1           INCREMENTAL NEW FILES DUMP AND COMPLETE DUMP...M.J.BAILEY,12/31/64   05/11/69 2009.2 PAGE 38

      03510  436027512521
      03511  632551606330
      03512  214560464525
      03513  606051255064     ..021  BCI     7,  REQUESTED DUMP TAPE TERMINATION IS DONE.                     .001
      03514  256263252460
      03515  246444476063
      03516  214725606325
      03517  514431452163
      03520  314645603162
      03521  602446452533
      03522  606051255064     ..024  BCI     7,  REQUESTED COMPLETE DUMP IS ALL DONE.                         .001
      03523  256263252460
      03524  234644474325
      03525  632560246444
      03526  476031626021
      03527  434360244645
      03530  253360606060
      03531  602346444743     ..027  BCI     8, COMPLETE DUMP HAS TO BE ABANDONED. RE-ASSEMBLE.               .001
      03532  256325602464
      03533  444760302162
      03534  606346602225
      03535  602122214524
      03536  464525243360
      03537  512540216262
      03540  254422432533

        LITERALS
      03541  000000000000
      03542  000000000001
      03543  000000000002
      03544  000000000003
      03545  000000000004
      03546  000000000005
      03547  000000000012
      03550  000000000013
      03551  000000000014
      03552  000000000017
      03553  000000000024
      03554  000000000074
      03555  000000003410
      03556  006060606060
      03557  007700007777
      03560  026060606060
      03561  036060606060
      03562  214343606060
      03563  232400016060
      03564  232400026060
      03565  232400036060
      03566  245162634651
      03567  263143253301
      03570  263143253302
      03571  312400016060
      03572  312400026060
      03573  312400036060
      03574  312400066060
      03575  332464444733
1           INCREMENTAL NEW FILES DUMP AND COMPLETE DUMP...M.J.BAILEY,12/31/64   05/11/69 2009.2 PAGE 39

      03576  400000000000
      03577  434627466463
      03600  512562634651
      03601  516060606060
      03602  601111111111
      03603  602300000506
      03604  606060254524
      03605  606060633025
      03606  627062632544
      03607  646225516214
      03610  770000770000
      03611  777700007700
      03612  777777000000
      03613  777777770000
      03614  777777777777
1           INCREMENTAL NEW FILES DUMP AND COMPLETE DUMP...M.J.BAILEY,12/31/64   05/11/69 2009.2 PAGE 1
                        POST PROCESSOR ASSEMBLY DATA

       60242 IS THE LAST LOCATION NOT USED BY THIS PROGRAM
       3615 IS THE FIRST LOCATION NOT USED BY THIS PROGRAM

0REFERENCES TO DEFINED SYMBOLS
          3      C  1072, 1110, 1341, 1353, 3451
          1      I  1344, 1362, 1667, 1701, 3451
       3066      J   374,  624, 1211
         50      N  3451
       3062      R   506
        321      T   216,  256,  260,  261,  312,  313
       1274      U  3043, 3451
       3046      W   405, 2662
          4     AK  1067, 1101, 3451
       3047     BA   401,  406,  414,  427,  463,  470,  475,  507,  515,  520,  552, 2663
       3050     BB   402,  407,  415,  430,  464,  471,  476,  510,  516,  522,  553, 2664
        117     D3    74
        142     D4   121
      62726     DP    67, 3451
      62727     DU    66, 3451
       3054     L3   466
        660     NW  3053, 3451
          6     NX   737, 1403, 2715, 3451
       1734     O4  1720, 1736, 1745
      74672     PB   144, 1007, 1017, 1204, 1207, 3451
       1376    CDA  1372
       1405    CDB  1411
       1457    CDC  1472
       1472    CDD  2754, 2764
       1601    CDF  1571
       1652    CDG  1717
       1665    CDH  1714
       1715    CDI  1713
       3063    DAY   371, 1165
        335    DDR   235, 1217
         52    DMF  1130, 1505, 1617
         51    EMF  1126, 1503, 1615
         45    GDT   707, 1031, 1040, 1172, 1426, 1440, 1453, 1551, 1573
        375    IDD   431,  537, 1212, 3056
        413    IDE  2670
        423    IDF   473
        437    IDG   443
        443    IDH   433,  452
        445    IDI   441
        453    IDJ   450
        455    IDK   434,  444
        534    IDL   555
        555    IDM   532,  550
        620    IDN   554
        746    IDQ   755, 1011, 1012, 1020
      60276    IMP  3451
         10    INT  3451
       3345    MHA   642,  644,  651,  653,  661
       3361    MHB   663,  666,  671,  673,  700
       3375    MHC  3450
1           INCREMENTAL NEW FILES DUMP AND COMPLETE DUMP...M.J.BAILEY,12/31/64   05/11/69 2009.2 PAGE 2
                        POST PROCESSOR ASSEMBLY DATA

         30    NCD  3064, 3451
      64526    PBF   101,  105,  110,  126,  132,  135,  566,  572,  575,  601,  605,  610,  760,  764,  767,  775, 1001
                    1004, 1234, 1240, 1243, 1312, 1316, 1321, 1654, 1660, 1663, 2730, 2734, 2737, 3451
         37    RDF   534
         42    SDF   635, 1417, 1541
       3074    SFA  3102
         43    SMF   637, 1421, 1543
      60260    SW1  1371, 1375, 1650, 3451
      60257    TCP  1452, 3451
      62737    TLD  1451, 1547, 1570, 3451
       1021    TMA   753
       1033    TMB   732
       1034    TMC  1026, 1032
       1203    TME  1174
       1211    TMG  1202
       1310    TMH  1214
       1323    TMI  1337, 2744
       1340    TMJ  1336, 1370
       1066    TMX  1052, 1114
       1115    TMZ  1047, 1065, 1113
      73353    TND  1034, 1163, 1175, 1373, 1442, 3451
         53    WMH  1422, 1544
      60261   ALOG    57, 3451
         17   BASE  3451
         40   BERM   561, 2672, 2702, 2712, 2723, 2746, 2756
       1446   CDBA
      60266   CDSW   277,  366, 1400, 1647, 3451
        327   COMD   160,  162
      60265   DATE  3451
      62730   DAWN   222,  223,  250,  253,  264,  267, 1155, 1176, 1374, 3451
        364   DDR4   335
         14   DINC  3065, 3451
          2   DISK  3052, 3451
      77440   DTLD   453,  547, 3451
      61157   DUSK   372,  627, 1025, 1200, 3451
       2671   ED2A  2660, 2667
         75   ELOC    73
      64544   ERAY  3451
      62733   FEOF   530,  540, 3451
        557   IDCA   617
        616   IDCB   557,  615
        404   IDDA  2700
        432   IDFA   425
        520   IDKA  2710
        551   IDLA   541
        741   IDNZ  2721
       3103   IDXM  3107
        122   ILOC   120
      62040   ITB1  3451
      61160   ITB2  3451
       3052   LDSK  2666
       3056   LIDD   556
       3051   LLSD   411
       3447   LMHD   705
       3064   LNCD  1450
1           INCREMENTAL NEW FILES DUMP AND COMPLETE DUMP...M.J.BAILEY,12/31/64   05/11/69 2009.2 PAGE 3
                        POST PROCESSOR ASSEMBLY DATA

       3311   MAP1   702
       3312   MAP2   703
       2765   MESA  1342
       2773   MESB  1345, 1670
       3002   MESC  1673
       3010   MESD  1070
       3017   MESE  1073
       3023   MESX   100
       3034   MESZ  1325
      62740   MFDC   420, 3451
      62723   NFN1   146,  151, 1135, 1136, 1514, 1515, 1626, 1627, 3451
      62721   NFN2   147,  153, 1140, 1141, 1517, 1520, 1631, 1632, 3451
          7   OPEN   404,  505, 1724, 2661
       3055   PASS  1027, 1060, 1062
        223   PUMP   272,  274,  315
        270   RSME   257,  265
          3   TAPE  3451
      60264   TIME  3451
       1027   TMAA  1024, 1044
       1031   TMAC  1064, 1227, 1272
       1175   TMCA  1365
       1213   TMCB  1171
       1177   TMCC  1704
       1274   TMZ3  1263
       3070   TTLD  1550, 1567
      62736   UFDC  3451
       2653   WEND  2626
        312  AFFIX   220
       1572  AUTOM  1565
       1371  CDUMP   241,  302,  305
         10  CLOSE   173,  426,  474,  551, 1134, 1137, 1513, 1516, 1625, 1630, 1742
       3057  DAUTH
      62731  DMPSW   747,  754, 3451
       3110  DTPID   632
         55  DUSR1  1465
        114  ELOC1    76
        115  ELOC4    75
      61156  ENDSW   733, 1022, 1045, 1167, 3451
      62734  EOFCT  3451
      73354  FLUSH   735, 1035, 1455, 3451
         14  FWAIT   467
         26  GDSIG   113,  500,  623,  706,  750, 1037, 1157, 1401, 1470, 1527, 1546, 1572, 1633, 1665
        366  IDUMP   244,  320, 1651
        137  ILOC1   123
        140  ILOC4   122
         44  IOBDT   641
      63630  IOBUF   215,  255, 3451
       3451  ..003   125
       3460  ..006   565
       3470  ..009   600
       3477  ..012   757
       3503  ..015   774
       3506  ..018  1233
       3513  ..021  1311
       3522  ..024  1653
1           INCREMENTAL NEW FILES DUMP AND COMPLETE DUMP...M.J.BAILEY,12/31/64   05/11/69 2009.2 PAGE 4
                        POST PROCESSOR ASSEMBLY DATA

       3531  ..027  2727
       3053  LBUF2   416,  517
       3065  LDINC
       3313  MAPHD   705, 3447, 3450
       3061  MDDVC
       3021  MESEX
      62725  MFD1W    71,  417, 3451
       3043  MXIOU   531
       3044  NAME1   234,  337,  346,  352,  361, 1216
         27  NGETA   143,  165,  167, 1006, 1016, 1050, 1054, 1076, 1105, 1203, 1206, 1230, 1255, 1264, 1275, 1330, 1350
                    1357, 1676, 1705
         30  NHOUR  3063, 3451
       3107  NIDXM   736,  741,  743
      77456  NMFDU   232,  432,  620, 3451
      77441  NXMPT   740, 1404, 3451
      60255  ODAWN   224,  455, 1156, 3451
       1300  PASS2  1030, 1223, 1225
          2  PAUSE  1251, 1267, 1324, 1333, 1672, 1710, 3451
      76500  PROBN  3451
      76041  RCODE  3451
         36  RDMFD   423
        246  RESET   205,  213
       3164  SDTID  1414
         11  SLEEP   772, 1075, 1254, 1327, 1347, 1367, 1675, 1716
       3102  SYSFL  1402, 1405, 1407, 1456, 1461, 1463
       3300  TBSIZ  3451
        325  TEMPS   203,  211
      60262  TFOSW   225,  301, 1142, 1642, 3451
       1054  TMAB3  1104
       1223  TMAC3  1057
       1060  TMAC4  1277
      62720  TNDSW   734, 1036, 1575, 3451
      70053  TPBUF   535,  542,  544,  546,  630,  640,  662,  664, 1412, 1534, 3451
        326  UDTSW   306, 1564, 1566
      76305  UFDNM  3451
       2626  WREND   731
         12  WRFLX   104,  131,  571,  604,  763, 1000, 1237, 1315, 1657, 2733
         35 ADDTIM   370, 1164
       3253 ALLMES   177, 3265
       3045 ALOGSW  1053, 1213
      60267 ARGLST  3451
        333 ARGSAV   156,  236,  270
          4 ATTACH    65,  375,  457,  502, 1131, 1506, 1620, 1721, 1737, 2627
      74454 AUTOND  1051, 3451
          0 BUFFER   413,  514, 1730
       1373 CDUMP1  1356
         22 CHFILE   336,  351
         24 CHNCOM   245
        332 CHNWRD   163
         56 CKCODE  2655
       1736 CLSMFD   501, 1115, 1604
          6 CORREC  1246, 1260, 1300
         47 DCYCLE   723,  751, 1042, 1601
          3 DELFIL   345,  360,  400, 2650
      74446 DEMKEY  1077, 1106, 1231, 1256, 1265, 1331, 1351, 1360, 1677, 1706, 3451
1           INCREMENTAL NEW FILES DUMP AND COMPLETE DUMP...M.J.BAILEY,12/31/64   05/11/69 2009.2 PAGE 5
                        POST PROCESSOR ASSEMBLY DATA

         46 DMPFIL   720, 1125, 1437, 1502, 1562, 1614, 2647
      62726 DMPRGR    62,  377,  461,  504,  526, 1133, 1510, 1622, 2631, 2645, 3451
      62727 DMPUSR    64,  376,  460,  503,  524, 1132, 1507, 1621, 2630, 2643, 3451
       1305 DPNSMS  1252
         33 DRSTOR   246
         32 DTSAVE   226,  230,  621,  727, 1151, 1153, 1161, 1424, 1444, 1457, 1511, 1530, 1532, 1577, 1623, 1643, 1645
        324 DWNTMP   263,  266
       3140 EIDMES  1145, 1150, 3163
          7 ENDTAP  3451
          5 ENFLSH  3451
      77457 ENTPSW  1160, 3451
      62732 EOFCTA  3451
         14 ERCODA  3451
         16 ERCODB  2657, 3451
       2722 ERRCD1  1403
       2745 ERRCD2  1466
       2755 ERRCD3  1467
         41 ERREND   613, 2676, 2706, 2717, 2742, 2752, 2762
       2655 ERRID2   412,  477
       2701 ERRID3   513
       2711 ERRID6   737
          7 ERYSIZ  3451
       3206 ESDMES  1523, 1526, 3230
       3266 EUDMES  1636, 1641, 3310
      77455 EXEMPT   742,  744, 1406, 1410, 3451
         16 FERRTN    72
      77460 FLSHSW  3451
          2 FSTATE   200,  206
         30 GDTSYS   171,  262,  314
         20 GETCOM   154
         23 GETIME
         31 GETOUT   214,  254
       3450 IMPINS   317, 1127
      62750 IOBUF2   416,  517, 3451
       1746 IOBUF3  1733
      77461 KEYVAL  1100, 1103, 1107, 1112, 1257, 1262, 1266, 1271, 1332, 1335, 1352, 1355, 1361, 1364, 1700, 1703, 1707
                    1712, 3451
       3265 LALMES   177
       3163 LEIDMS  1145, 1150
       3230 LESDMS  1523, 1526
       3310 LEUDMS  1636, 1641
          1 LSDRUM  3051, 3451
       3137 LSIDMS   636
       3205 LSSDMS  1420
       3252 LSUDMS  1542
          6 LVFLSH  3451
      64510 MFDENT   436,  445,  451,  456,  466,  525,  527,  715,  717, 1122, 1124, 1434, 1436, 1462, 1464, 1477, 1501
                    1557, 1561, 1611, 1613, 2644, 2646, 3451
      62735 MFDEOF   421,  472, 1021, 1376, 3451
       3073 MFDNAM   716, 1123, 1435, 1500, 1560, 1612, 1722, 1726, 1731, 1740, 1743
         21 NEXCOM  1222
      74532 NUSERS  1055, 1276, 3451
       3067 NXDUSK   625, 1033, 1166, 1173, 1177
       1720 OPNMFD   422,  721, 1563
       3060 PBBASE   142, 1010
1           INCREMENTAL NEW FILES DUMP AND COMPLETE DUMP...M.J.BAILEY,12/31/64   05/11/69 2009.2 PAGE 6
                        POST PROCESSOR ASSEMBLY DATA

       1301 PNUSMS  1247
         50 PRCODE  1066, 1071, 1245, 1250, 1323, 1340, 1343, 1666, 1671
         25 PRNTER   112
      74650 PROBNO   446,  543, 3451
      76144 PROGNO   437,  545, 3451
        660 RECSIZ  3451
      60254 REELNO  3451
       1245 RETURN  1273
        316 RIDUMP   276,  300
         34 SAVMAP   307,  316
          6 SETCLC   164
          5 SETCLS   157,  161
          1 SETFIL  2632
       3114 SIDMES   636, 3137
      60243 SKELSW   275,  722,  726, 1377, 3451
       3170 SSDMES  1420, 3205
         54 SUBDAY  1447
       3235 SUDMES  1542, 3252
      74623 SYSDAT   170, 3451
      74624 SYSTIM   166, 3451
      60244 TAPEID   633, 1415, 1537, 3451
      60263 TCYCLE   710, 1041, 1427, 1454, 1552, 1574, 3451
         17 TILOCK   117
        334 TMPSYS   172,  221,  252,  367
      60256 TNDSAV  1443, 1446, 1576, 3451
      64553 TPBUF2  3451
       1534 UDTPAT   311
      62741 UFDENT   521,  523,  712,  714, 1117, 1121, 1431, 1433, 1474, 1476, 1554, 1556, 1606, 1610, 2640, 2642, 3451
      62747 UFDEOF  3451
       3071 UFDNAM   711,  713, 1116, 1120, 1430, 1432, 1473, 1475, 1553, 1555, 1605, 1607, 1723, 1727, 1732, 1741, 1744
       3231 UFDTID  1536
         15 UMOUNT   175, 1143, 1146, 1521, 1524, 1634, 1637
         13 WRFILE   462,  701

0 NO ERROR IN ABOVE ASSEMBLY.
1         SUBROUTINE TO PERFORM ONE GENERAL DUMP CYCLE....M.J.BAILEY,11/30/64    05/11/69 2010.4 PAGE 1

                              *
                              *      1. ENTER WITH TNDSW ZERO, AND TND WILL BE TAKEN
                              *         AS CURRENT TIME, FOR EACH USER. OTHERWISE TND WILL
                              *         BE TAKEN AS A CONSTANT (ITS CURRENT VALUE).
                              *      2. IF CONTENTS OF (1,4) ARE ZERO EVERY USER WILL BE DUMPED.
                              *         OTHERWISE (NXMPT/2) OF THOSE NAMED IN EXEMPT WILL NOT.
                              *      3. IF FLUSH IS NON-ZERO, FLUSH MODE IS FORCED ON.
                              *         OTHERWISE A SWITCH IS EXAMINED, AND IF ON MODE IS FLUSH,
                              *         AND IF OFF MODE IS NORMAL. THIS SWITCH IS SET ACCORDING TO A
                              *         KEY SETTING, THE KEYS BEING PERIODICALLY TESTED VIA CORE A.
                              *      4. IF CDSW IS NON-ZERO, COMPLETE DUMP IS IN PROGRESS,
                              *         AND TLD AND TND WILL BE TAKEN AS CONSTANTS (AS SET).
                              *
                       00012         ENTRY   DCYCLE
                              *
                              *  .  .  .  .  .  .  .  .  .  .  .  .  .  .  .  .  .  .  .  .
                              *      INITIALIZATION OF GENERAL DUMP CYCLE
                              *  .  .  .  .  .  .  .  .  .  .  .  .  .  .  .  .  .  .  .  .
                              *

        TRANSFER VECTOR
      00000  272463606060     GDT
      00001  272462312760     GDSIG
      00002  512444262460     RDMFD
      00003  244447642624     DMPUFD
      00004  246462516760     DUSRX
      00005  246362216525     DTSAVE
      00006  272563216060     GETA
      00007  246462516060     DUSR

            LINKAGE DIRECTOR
      00010  000000000000
      00011  242370234325

      00012  0500 00 0 62735  DCYCLE CLA     MFDEOF        ENSURE MFD FILE READ STARTING AT
      00013 -0100 00 0 00017         TNZ     *+4
      00014  0500 00 0 62725         CLA     MFD1W
      00015  0601 00 0 62740         STO     MFDC          1ST GOOD WORD
      00016  0601 00 0 62735         STO     MFDEOF        SET MFD FILE EOF INDICATOR NON-ZERO
      00017  0634 00 1 00237         SXA     NXY,1
      00020  0634 00 2 00240         SXA     NXZ,2
      00021  0634 00 7 00241         SXA     NXZZ,7
      00022  0634 00 4 00030         SXA     DCYC4,4
                              *
                              *  .  .  .  .  .  .  .  .  .  .  .  .  .  .  .  .  .  .  .  .
                              *      START OF DUMP CYCLE
                              *  .  .  .  .  .  .  .  .  .  .  .  .  .  .  .  .  .  .  .  .
                              *
      00023  0074 00 4 00000   NXUSR TSX     $GDT,4        CURRENT DATE/TIME IN AC
      00024  0602 00 0 00243         SLW     DATIM         SAVE IT
      00025  0074 00 4 00001         TSX     $GDSIG,4      GET KEY SETTINGS, SET SWITCHES
                              *
                              *      READ NEXT USER'S ENTRY FROM MFD
                              *
      00026  0074 00 4 00002         TSX     $RDMFD,4      READ NEXT USER'S MFD ENTRY INTO MFDENT
      00027  0020 00 0 00065         TRA     NXBA           ERROR RETURN, GO TO NEXT USER
1         SUBROUTINE TO PERFORM ONE GENERAL DUMP CYCLE....M.J.BAILEY,11/30/64    05/11/69 2010.4 PAGE 2

      00030  0774 00 4 00000  DCYC4  AXT     **,4
                              *
      00031  0534 00 1 00256         LXA     NALDXM,1      IS THIS USER EXEMPT FROM ALL DUMPS
      00032 -0500 00 0 64510         CAL     MFDENT
      00033 -0340 00 1 00256  ZA     LAS     NALDXM,1
      00034  0020 00 0 00036         TRA     ZB
      00035  0020 00 0 00040         TRA     ZC
      00036  2 00002 1 00033  ZB     TIX     ZA,1,2
      00037  0020 00 0 00046         TRA     ZD
      00040 -0500 00 0 64511  ZC     CAL     MFDENT+1
      00041 -0340 00 1 00257         LAS     NALDXM+1,1
      00042  0020 00 0 00044         TRA     *+2
      00043  0020 00 0 00065         TRA     NXBA          YES, EXEMPT, GO TO NEXT USER
      00044 -0500 00 0 64510         CAL     MFDENT
      00045  0020 00 0 00036         TRA     ZB
                              *
      00046 -0520 00 4 00001  ZD     NZT     1,4           ANY EXEMPT USERS ALLOWED FROM THIS DUMP
      00047  0020 00 0 00070         TRA     NXBB          NO, GO DUMP THIS ONE
                              *
                              *      CHECK WHETHER THIS USER IS EXEMPT FROM THIS DUMP
                              *
      00050  0534 00 1 77441         LXA     NXMPT,1
      00051 -0500 00 0 64510         CAL     MFDENT        USER PROBNO.
      00052 -0340 00 1 77456  NXA    LAS     EXEMPT+1,1    IS IT THAT OF NEXT EXEMPT USER
      00053  0020 00 0 00055         TRA     NXB           NO, HE IS NOT THIS EXEMPT USER
      00054  0020 00 0 00057         TRA     *+3           COULD BE, HIS PROBLEM NO. MATCHES
      00055  2 00002 1 00052   NXB   TIX     NXA,1,2       NO, GO TRY NEXT EXEMPT USER PROBNO
      00056  0020 00 0 00070         TRA     NXBB          THIS USER NOT EXEMPT, GO DUMP HIM
      00057 -0500 00 0 64511         CAL     MFDENT+1      PROB. NO. MATCHES, LOOK AT HIS PROG. NO.
      00060 -0340 00 1 77457         LAS     EXEMPT+2,1
      00061  0020 00 0 00063         TRA     *+2           NO MATCH
      00062  0020 00 0 00065         TRA     NXBA           YES, HE IS EXEMPT, GO TO NEXT USER
      00063 -0500 00 0 64510         CAL     MFDENT        NO, HE IS NOT THIS EXEMPT USER,
      00064  0020 00 0 00055         TRA     NXB           GO BACK TO TRY NEXT
      00065  0520 00 0 60266  NXBA   ZET     CDSW
      00066  0020 00 0 00234         TRA     NXIB
      00067  0020 00 0 00207         TRA     NXX
                              *
                              *      UPDATE THE USER'S FILE DIRECTORY
                              *
      00070  0074 00 4 00001  NXBB   TSX     $GDSIG,4
                              *
                              *      IF COMPLETE DUMP DUMP THE USER NOW
                              *
      00071  0500 00 0 60243         CLA     SKELSW
      00072  0100 00 0 00077         TZE     *+5
      00073  0074 00 4 00003         TSX     $DMPUFD,4
      00074  0020 00 0 00076         TRA     *+2
      00075  0020 00 0 00076         TRA     *+1
      00076  0020 00 0 00104         TRA     NXBC
      00077 -0520 00 0 60266         NZT     CDSW
      00100  0020 00 0 00110         TRA     NXC           SKIP IF INCREMENTAL DUMP
      00101  0074 00 4 00004         TSX     $DUSRX,4
      00102  0020 00 0 00104         TRA     NXBC          ('IMPOSSBCLE')
      00103  0020 00 0 00104         TRA     NXBC          ERROR RETURN
      00104  0774 00 1 00003  NXBC   AXT     3,1           NORMAL RETURN
1         SUBROUTINE TO PERFORM ONE GENERAL DUMP CYCLE....M.J.BAILEY,11/30/64    05/11/69 2010.4 PAGE 3

      00105  0074 00 4 00005         TSX     $DTSAVE,4     SAVE USER LIST ETC. ON DISK
      00106  2 00001 1 00105         TIX     *-1,1,1       ERROR RETURN, TRY UP TO 3 TIMES
      00107  0020 00 0 00234         TRA     NXIB
                              *
                              *  LOOK UP THIS USER'S TIME-LAST-DUMPED, IF INCREMENTAL DUMP
                              *
      00110  0534 00 1 77456  NXC    LXA     NMFDU,1       GET THIS USER'S TLD (DATE/TIME LAST DUMPED)
      00111 -0634 00 1 00120         SXD     NXE,1
      00112  0774 00 1 00001         AXT     1,1           1ST LOOK UP HIS PROG. NO. IN THE USER LIST
      00113 -0500 00 0 64511         CAL     MFDENT+1
      00114 -0340 00 1 76145   NXD   LAS     PROGNO+1,1
      00115  0020 00 0 00117         TRA     *+2           NO MATCH GO TRY NEXT
      00116  0020 00 0 00122         TRA     NXF           GOT PROG. NO., SKIP
      00117  1 00001 1 00120         TXI     *+1,1,1       NO MATCH
      00120 -3 00000 1 00114   NXE   TXL     NXD,1,**      TRY NEXT PROGNO IF ANY MORE
      00121  0020 00 0 00207         TRA     NXX           USER NOT IN OUR USER LIST, FORGET HIM
      00122 -0500 00 0 64510   NXF   CAL     MFDENT        CHECK HIS PROB. NO.  NOW
      00123 -0340 00 1 74651         LAS     PROBNO+1,1
      00124  0020 00 0 00126         TRA     *+2           NO MATCH, SKIP
      00125  0020 00 0 00130         TRA     NXG           YES, THIS IS THE USER WE WANT
      00126 -0500 00 0 64511         CAL     MFDENT+1      NO MATCH, SEE IF PROGNO MATCHES AGAIN
      00127  0020 00 0 00117         TRA     NXE-1
      00130 -0634 00 1 00244  NXG    SXD     USERX,1       SAVE USER LIST INDEX FOR THIS USER
      00131 -0500 00 1 77441         CAL     DTLD+1,1      GET HIS DATE/TIME LAST DUMPED
      00132  0602 00 0 62737         SLW     TLD
                              *
                              *      SEE IF HE HAS ANY FILES WE SHOULD DUMP THIS TIME
                              *
      00133  0074 00 4 00001         TSX     $GDSIG,4
      00134  0520 00 0 73354         ZET     FLUSH         SOMETHING CHANGED, IS FLUSH MODE FORCED ON
      00135  0020 00 0 00162         TRA     NXH           YES, SKIP
      00136  0520 00 0 77460         ZET     FLSHSW        NO, TEST TYPE OF DUMP MODE (AS SET ON KEYS)
      00137  0020 00 0 00162         TRA     NXH           FLUSH MODE, SKIP
      00140  0534 00 2 00245         LXA     MXUSRS,2      NORMAL MODE, TEST WHETHER USER LOGGED IN
      00141  0074 00 7 00006  LA     TSX     $GETA,7       COMPARE USER'S PROBLEM NO. WITH
      00142 -0500 00 2 76551         CAL     PROBN+N+1,2   THAT OF NEXT LOGGED IN USER (VIA CORE A)
      00143 -0340 00 0 64510         LAS     MFDENT
      00144  0020 00 0 00146         TRA     *+2           NOT THIS PROB. NO.
      00145  0020 00 0 00150         TRA     LC            SKIP IF PROB. NO. MATCHES
      00146  2 00001 2 00141  LB     TIX     LA,2,1        NOT THIS PROB. NO., RETURN FOR NEXT
      00147  0020 00 0 00162         TRA     NXH           NO MORE, USER NOT LOGGED IN
                              *
      00150 -0500 00 0 64511  LC     CAL     MFDENT+1      GET PROG. NO.
      00151 -0320 00 0 00262         ANA     =O777777770000 TO TEST FOR A COMMON FILE
      00152  0322 00 0 00261         ERA     =HCMFL00
      00153  0100 00 0 00207         TZE     NXX
      00154  0074 00 7 00006         TSX     $GETA,7       PROB. NO. O.K., CHECK WHETHER
      00155 -0500 00 2 76356         CAL     UFDNM+N+1,2   UFD NAME COMPARES ALSO
      00156 -0340 00 0 64511         LAS     MFDENT+1
      00157  0020 00 0 00146         TRA     LB            NO, CHECK ANY RE-OCCURENCE OF PROGRAMMER NO
      00160  0020 00 0 00207         TRA     NXX           YES, USER LOGGED IN, GO TO NEXT USER
      00161  0020 00 0 00146         TRA     LB            NO, GO CHECK FOR PROG. NO. AGAIN
                              *
                              *      DUMP THIS USER, RESET HIS TIME LAST DUMPED, THEN SAVE USER LIST
                              *
      00162  0520 00 0 62720  NXH    ZET     TNDSW         EITHER NORMAL AND NOT LOGGED IN OR ELSE
1         SUBROUTINE TO PERFORM ONE GENERAL DUMP CYCLE....M.J.BAILEY,11/30/64    05/11/69 2010.4 PAGE 4

                                                             FLUSH MODE AT THIS POINT
      00163  0020 00 0 00166         TRA     NXI           TND NON-ZERO, IT IS ALREADY SET
      00164 -0500 00 0 00243         CAL     DATIM         TND ZERO, GET CURRENT DATE/TIME IN AC
      00165  0602 00 0 73353         SLW     TND           SET TND
      00166  0500 00 0 64512  NXI    CLA     MFDENT+2
      00167  0402 00 0 62737         SUB     TLD
      00170 -0120 00 0 00207         TMI     NXX
      00171  0500 00 0 64512         CLA     MFDENT+2      GET TLM, DATE/TIME A FILE LAST CHANGED
      00172  0402 00 0 73353         SUB     TND           COMPARE WITH THE DATE/TIME DUMPED NOW
      00173  0120 00 0 00207         TPL     NXX           TLM .GE. TND, INVALID CHANGE FOR THIS DUMP
                              *
      00174  0074 00 4 00001         TSX     $GDSIG,4
      00175  0074 00 4 00007         TSX     $DUSR,4       DUMP THIS USER'S FILES
      00176  0020 00 0 00200         TRA     *+2           END-OF-'DAY' RETURN (CURRENTLY IMPOSSIBLE)
      00177  0020 00 0 00207         TRA     NXX           ERROR RETURN - TROUBLE WITH UFD FILE
                              *
      00200 -0534 00 1 00244         LXD     USERX,1       NORMAL RETURN,
      00201 -0500 00 0 73353         CAL     TND           SET HIS TIME LAST DUMPED
      00202  0602 00 1 77441         SLW     DTLD+1,1      EQUAL TO TIME OF THIS DUMP
                              *
      00203  0774 00 1 00003         AXT     3,1
      00204  0074 00 4 00005         TSX     $DTSAVE,4     SAVE USER TABLE ETC.
      00205  2 00001 1 00204         TIX     *-1,1,1       ERROR RETURN, TRY UP TO 3 TIMES
                              *
      00206  0020 00 0 00213         TRA     NXXX
                              *
      00207  0520 00 0 62720  NXX    ZET     TNDSW
      00210  0020 00 0 00213         TRA     NXXX
      00211  0074 00 4 00000         TSX     $GDT,4        UPDATE TND IF IT WAS NOT PRE-SET
      00212  0602 00 0 73353         SLW     TND           AND USER WAS SKIPPED, TO PICK UP END OF DAY
                              *
                              *      END OF DUMP CYCLE
                              *
      00213  0074 00 4 00001  NXXX   TSX     $GDSIG,4
      00214  0500 00 0 61156         CLA     ENDSW         CHECK IF END-OF-DAY FLUSH IN PROGRESS
      00215  0402 00 0 00260         SUB     =2            (EITHER OPERATER-INITIATED OR NATURAL)
      00216  0100 00 0 00234         TZE     NXIB          SKIP IF OPERATOR INITIATED FLUSH IN PROGRES
      00217  0500 00 0 77457         CLA     ENTPSW        HAS OPERATOR REQUESTED END-OF-DUMP-DAY
      00220 -0100 00 0 00230         TNZ     NXIA          SKIP IF YES, EXTERNAL END DUMP REQUEST
      00221  0520 00 0 61156         ZET     ENDSW         NO, NO EXTERNAL END-OF-DAY FLUSH REQUESTED
      00222  0020 00 0 00234         TRA     NXIB          SKIP IF NORMAL END OF DAY FLUSH IN PROGRESS
      00223  0500 00 0 73353         CLA     TND           NO, NO FLUSH DUMP IN PROGRESS
      00224  0402 00 0 61157         SUB     DUSK          TEST FOR NORMAL END-OF-DAY
      00225 -0120 00 0 00234         TMI     NXIB          SKIP IF NOT (TND LESS THAN DUSK)
      00226  0500 00 0 00257         CLA     =1            YES, NORMAL END-OF-DAY PASSED,SET ENDSW=1
      00227  0020 00 0 00231         TRA     *+2
      00230  0500 00 0 00260   NXIA  CLA     =2            OPERATOR REQUESTED END DUMP,SET ENDSW=2
      00231  0601 00 0 61156         STO     ENDSW
      00232  0534 00 4 00030         LXA     DCYC4,4       SET UP END OF DAY RETURN
      00233  1 00001 4 00237         TXI     NXY,4,1       GO RETURN VIA (2,4)
                              *
      00234  0520 00 0 62735  NXIB   ZET     MFDEOF
      00235  0020 00 0 00023         TRA     NXUSR         NO, RETURN FOR NEXT
                              *
      00236  0534 00 4 00030         LXA     DCYC4,4       YES, PREPARE TO RETURN TO CALLER
      00237  0774 00 1 00000   NXY   AXT     **,1
1         SUBROUTINE TO PERFORM ONE GENERAL DUMP CYCLE....M.J.BAILEY,11/30/64    05/11/69 2010.4 PAGE 5

      00240  0774 00 2 00000  NXZ    AXT     **,2
      00241  0774 00 7 00000  NXZZ   AXT     **,7
      00242  0020 00 4 00003         TRA     3,4           RETURN TO CALLER
                              *
                              *      CONSTANTS, VARIABLES, ETC.
                              *
      00243  0 00000 0 00000   DATIM PZE                   DATE/TIME OF NEXT DUMP OF CURRENT USER
      00244  0 00000 0 00000   USERX PZE     ,,**          USER LIST INDEX OF CURRENT USER
      00245  0 00000 0 00050  MXUSRS PZE     N             MAX. NO. USERS
      00246  443326332433     ALLDXM BCI     2,M.F.D.(FILE)
      00247  742631432534
      00250  245164446463            BCI     2,DRUMUT(FILE)
      00251  742631432534
      00252  243162426463            BCI     2,DISKUT(FILE)
      00253  742631432534
      00254  602300000506            BCI     2, C0056 99999
      00255  601111111111
 T    00256 -0754 00 0 00010  NALDXM PXD     *-ALLDXM
                                     INSERT DCMEQB
                              *
                              *  .  .  .  .  .  .  .  .  .  .  .  .  .  .  .  .  .  .
                              *    COMMON AND EQUIVALENCE FOR GENERAL DUMP PROGRAM
                              *  .  .  .  .  .  .  .  .  .  .  .  .  .  .  .  .  .  .
                              *
                      074446  DEMKEY BOOL    74446         CORE A LOCATION FOR DAEMON'S KEY SETTING
                      074624  SYSTIM BOOL    74624         CORE A LOCATION FOR SYSTEM  TIME
                      074623  SYSDAT BOOL    74623         CORE A LOCATION FOR SYSTEM INIT. DATE
                      076041  RCODE  BOOL    76041         CORE A LOCATION FOR RESTRICTION CODE VECTOR
                      074454  AUTOND BOOL    74454         CORE A AUTOMATIC LOGOUT INDICATOR
                      074532  NUSERS BOOL    74532         CORE A LOGGED-IN USER COUNT
                      076500  PROBN  BOOL    76500         CORE A PROBNO ARRAY
                      076305  UFDNM  BOOL    76305         CORE A UFDNM ARRAY
                      074672  PB     BOOL    74672         CORE A GUARANTEED PERCENTAGE VECTOR BASE
                       00050  N      EQU     40            CORE A MAX. NO. OF USERS (SIZE OF PROBN)
                              *
                      000017  BASE   BOOL    17            KEY CODE BASE
                      000001  I      BOOL    1             KEY CODE TO START INCREMENTAL DUMP
                      000002  PAUSE  BOOL    2             KEY CODE TO WAIT FOR 1 MIN.
                      000003  C      BOOL    3             KEY CODE TO DO COMPLETE DUMP
                      000004  AK     BOOL    4             KEY CODE FOR IMPENDING AUTOLOGOUT
                      000005  ENFLSH BOOL    5             KEY CODE TO ENTER FLUSH MODE
                      000006  LVFLSH BOOL    6             KEY CODE TO LEAVE FLUSH MODE
                      000007  ENDTAP BOOL    7             KEY CODE TO TERMINATE DUMP TAPE FILE
                      000010  INT    BOOL    10            SIMULATE INTERRUPT
                       00660  RECSIZ EQU     432           TAPE RECORD SIZE
                       00006   NX    EQU     6             MAX. NO. OF SYSTEM FILE OWNERS
                       00030  NCD    EQU     24            MAX. NO. 'DAYS' NON-USE OF CURRENT FILES
                       00014  DINC   EQU     12            NO. DAYS OF 'RECENCY' INCREMENT (C.DUMP)
                       01274  U      EQU     700           MAX. NO. USERS IN MFD USER LIST
                       03300  TBSIZ  EQU     4*RECSIZ      TAPE BUFFER SIZE
                       00007  ERYSIZ EQU     7             I/O SYSTEM ERROR ARRAY SIZE
                       00014  ERCODA EQU     12            'OPEN' ERROR CODE FOR FILE NOT FOUND
                       00016  ERCODB EQU     14            'OPEN' ERROR CODE RQSTD. DEVICE UNAVBLE
                       00660  NW     EQU     432           SIZE OF SECONDARY I/O FILE BUFFERS
                       00001  LSDRUM EQU     1             I/O SYSTEM DEVICE CODE FOR L.S.DRUM
                       00002    DISK EQU     2             I/O SYSTEM DEVICE CODE FOR DISK
1         SUBROUTINE TO PERFORM ONE GENERAL DUMP CYCLE....M.J.BAILEY,11/30/64    05/11/69 2010.4 PAGE 6

                       00003   TAPE  EQU     3             I/O SYSTEM DEVICE CODE FOR TAPE
                       00030  NHOUR  EQU     24            NO. OF HOURS IN A 'DAY'
                       77461  KEYVAL COMMON  1             LAST KEY SETTING READ FROM SUPERVISOR
                       77460  FLSHSW COMMON  1             FLUSH MODE SWITCH
                       77457  ENTPSW COMMON  1             OPERATOR-REQUESTED-END-TAPE INDICATOR
                       77456  NMFDU  COMMON  1             NO. USERS CURRENTLY IN LIST
                       77455  EXEMPT COMMON  2*NX          LIST OF SYSTEM FILE OWNERS
                       77441  NXMPT  COMMON  1             NO. FILE USERS EXEMPT FROM DUMP IN DCYCLE
                       77440  DTLD   COMMON  U             TIME LAST DUMPED FOR EACH USER
                       76144  PROGNO COMMON  U             PROGRAMMER NO. OF EACH USER
                       74650  PROBNO COMMON  U             PROBLEM NO. OF EACH USER
                       73354   FLUSH COMMON  1             NON-ZERO INDICATES FLUSH MODE IS FORCED
                       73353   TND   COMMON  1             TIME OF NEXT DUMP FOR CURRENT USER
                       70053         COMMON  TBSIZ-1       TAPE BUFFER
                       70053  TPBUF  COMMON  1             TAPE BUFFER 1ST WORD
                       64553         COMMON  TBSIZ-1       2ND TAPE BUFFER
                       64553  TPBUF2 COMMON  1             2ND TAPE BUFFER, 1ST WORD
                       64544         COMMON  ERYSIZ-1      ERROR ARRAY
                       64544  ERAY   COMMON  1             ERROR ARRAY 1ST WORD
                       64526         COMMON  13            PRINT BUFFER
                       64526   PBF   COMMON  1             PRINT BUFFER 1ST WORD
                       64510         COMMON  13            MFD ENTRY BUFFER
                       64510  MFDENT COMMON  1             MFD ENTRY BUFFER 1ST WORD
                       63630         COMMON  NW-1          SECONDARY I/0 FILE BUFFER
                       63630   IOBUF COMMON  1             SECONDARY IO BUFFER 1ST WORD
                       62750         COMMON  NW-1          SECONDARY I/O FILE BUFFER
                       62750  IOBUF2 COMMON  1             SECONDARY I/O BUFFER 1ST WORD
                       62747  UFDEOF COMMON  1             ZERO INDICATES EOF IN UFD FILE
                       62741         COMMON  5             PARTIAL UFD ENTRY BUFFER
                       62741  UFDENT COMMON  1             PARTIAL UFD ENTRY BUFFER 1ST WORD
                       62740   MFDC  COMMON  1             NEXT WORD TO BE READ FROM MFD FILE
                       62737   TLD   COMMON  1             TIME LAST DUMP OF USER CURRENTLY DUMPING
                       62736   UFDC  COMMON  1             NEXT UNREAD POS. OF UFDFILE (NORMALLY ZERO)
                       62735  MFDEOF COMMON  1             ZERO INDICATES EOF IN MFD FILE
                       62734   EOFCT COMMON  1             NO. OF WORDS READ BEFORE AN EOF
                       62733   FEOF  COMMON  1             ZERO INDICATES EOF IN A USER FILE
                       62732  EOFCTA COMMON  1             NO. OF WORDS BEFORE AN EOF
                       62731   DMPSW COMMON  1             NON-ZERO INDICATES A FILE HAS BEEN DUMPED
                       62730   DAWN  COMMON  1             TIME OF START OF 'DAY'
                       62727  DMPUSR COMMON  1             PROBLEM NO. OF DUMP/LOAD PACKAGE
                       62726  DMPRGR COMMON  1             PROGRAMMER NO. OF  DITTO.
                       62727  DU     EQU     DMPUSR
                       62726  DP     EQU     DMPRGR
                       62725   MFD1W COMMON  1             NO. OF 1ST GOOD WORD IN MFD AND UFD FILES
                       62723         COMMON  1             2ND PART OF DUMP TAPE FILE (COPY 1) NAME
                       62723  NFN1   COMMON  1             1ST PART OF DUMP TAPE FILE (COPY 1) NAME
                       62721         COMMON  1             2ND PART OF DUMP TAPE FILE (COPY 2) NAME
                       62721   NFN2  COMMON  1             1ST PART OF DUMP TAPE FILE (COPY 2) NAME
                       62720  TNDSW  COMMON  1             INDICATES TIME OF THIS DUMP CURRENT OR NO
                       62040         COMMON  RECSIZ-1      INTERNAL TAPE BUFFER
                       62040   ITB1  COMMON  1                ,,     ,,    ,,  1ST WORD
                       61160         COMMON  RECSIZ-1      INTERNAL TAPE BUFFER
                       61160   ITB2  COMMON  1                ,,     ,,  ,,  1ST WORD
                       61157   DUSK  COMMON  1             TIME OF END OF CURRENT 'DAY'
                       61156   ENDSW COMMON  1             IF 1, NORMAL END-OF-DAY,ELSE OPERATOR ONE
                       60276         COMMON  NW-1          INTERNAL BUFFER FOR 'MAP' FILE
1         SUBROUTINE TO PERFORM ONE GENERAL DUMP CYCLE....M.J.BAILEY,11/30/64    05/11/69 2010.4 PAGE 7

                       60276    IMP  COMMON  1                ,,      ,,    ,,   ,,   ,,  1ST WORD
                       60267         COMMON  6             'MAP' FILE LINE PARAMETER ARRAY
                       60267  ARGLST COMMON  1               ,,   ,,   ,,      ,,      ,,  1ST WORD
                       60266  CDSW   COMMON  1             NON-ZERO DURING COMPLETE DUMP,ELSE ZERO
                       60265  DATE   COMMON  1             DATE THE DUMP NOW IN PROGRESS BEGAN
                       60264  TIME   COMMON  1             TIME DUMP NOW IN PROGRESS BEGAN
                       60263  TCYCLE COMMON  1             'TIME' OF LAST CYCLE ON DUMP TAPE FILE
                       60262  TFOSW  COMMON  1             NON-ZERO IF DUMP TAPE FILE IS OPEN
                       60261  ALOG   COMMON  1             NON-ZERO IF AUTOLOGOUT ON
                       60260  SW1    COMMON  1
                       60257  TCP    COMMON  1
                       60256  TNDSAV COMMON  1
                       60255  ODAWN  COMMON  1             TIME OF START OF PREVIOUS 'DAY'
                       60244         COMMON  8             TAPE LABEL
                       60244  TAPEID COMMON  1             TAPE LABEL 1ST WORD
                       60243  SKELSW COMMON  1
                       60254  REELNO EQU     TAPEID+8
                                     END

        LITERALS
      00257  000000000001
      00260  000000000002
      00261  234426430000
      00262  777777770000
1         SUBROUTINE TO PERFORM ONE GENERAL DUMP CYCLE....M.J.BAILEY,11/30/64    05/11/69 2010.4 PAGE 1
                        POST PROCESSOR ASSEMBLY DATA

       60242 IS THE LAST LOCATION NOT USED BY THIS PROGRAM
        263 IS THE FIRST LOCATION NOT USED BY THIS PROGRAM

0REFERENCES TO DEFINED SYMBOLS
          3      C   257
          1      I   257
         50      N   142,  155,  245,  257
       1274      U   257
          4     AK   257
      62726     DP   257
      62727     DU   257
        141     LA   146
        146     LB   157,  161
        150     LC   145
        660     NW   257
          6     NX   257
      74672     PB   257
         33     ZA    36
         36     ZB    34,   45
         40     ZC    35
         46     ZD    37
          0    GDT    23,  211
      60276    IMP   257
         10    INT   257
         30    NCD   257
         52    NXA    55
         55    NXB    53,   64
        110    NXC   100
        114    NXD   120
        120    NXE   111,  127
        122    NXF   116
        130    NXG   125
        162    NXH   135,  137,  147
        166    NXI   163
        207    NXX    67,  121,  153,  160,  170,  173,  177
        237    NXY    17,  233
        240    NXZ    20
      64526    PBF   257
      60260    SW1   257
      60257    TCP   257
      62737    TLD   132,  167,  257
      73353    TND   165,  172,  201,  212,  223,  257
      60261   ALOG   257
         17   BASE   257
      60266   CDSW    65,   77,  257
      60265   DATE   257
      62730   DAWN   257
         14   DINC   257
          2   DISK   257
      77440   DTLD   131,  202,  257
      61157   DUSK   224,  257
          7   DUSR   175
      64544   ERAY   257
      62733   FEOF   257
1         SUBROUTINE TO PERFORM ONE GENERAL DUMP CYCLE....M.J.BAILEY,11/30/64    05/11/69 2010.4 PAGE 2
                        POST PROCESSOR ASSEMBLY DATA

          6   GETA   141,  154
      62040   ITB1   257
      61160   ITB2   257
      62740   MFDC    15,  257
      62723   NFN1   257
      62721   NFN2   257
         65   NXBA    27,   43,   62
         70   NXBB    47,   56
        104   NXBC    76,  102,  103
        230   NXIA   220
        234   NXIB    66,  107,  216,  222,  225
        213   NXXX   206,  210
        241   NXZZ    21
          3   TAPE   257
      60264   TIME   257
      62736   UFDC   257
        243  DATIM    24,  164
         30  DCYC4    22,  232,  236
      62731  DMPSW   257
          4  DUSRX   101
      61156  ENDSW   214,  221,  231,  257
      62734  EOFCT   257
      73354  FLUSH   134,  257
          1  GDSIG    25,   70,  133,  174,  213
      63630  IOBUF   257
      62725  MFD1W    14,  257
         30  NHOUR   257
      77456  NMFDU   110,  257
      77441  NXMPT    50,  257
         23  NXUSR   235
      60255  ODAWN   257
          2  PAUSE   257
      76500  PROBN   142,  257
      76041  RCODE   257
          2  RDMFD    26
       3300  TBSIZ   257
      60262  TFOSW   257
      62720  TNDSW   162,  207,  257
      70053  TPBUF   257
      76305  UFDNM   155,  257
        244  USERX   130,  200
        246 ALLDXM   256
      60267 ARGLST   257
      74454 AUTOND   257
         12 DCYCLE     0
      74446 DEMKEY   257
      62726 DMPRGR   257
          3 DMPUFD    73
      62727 DMPUSR   257
          5 DTSAVE   105,  204
          7 ENDTAP   257
          5 ENFLSH   257
      77457 ENTPSW   217,  257
      62732 EOFCTA   257
         14 ERCODA   257
1         SUBROUTINE TO PERFORM ONE GENERAL DUMP CYCLE....M.J.BAILEY,11/30/64    05/11/69 2010.4 PAGE 3
                        POST PROCESSOR ASSEMBLY DATA

         16 ERCODB   257
          7 ERYSIZ   257
      77455 EXEMPT    52,   60,  257
      77460 FLSHSW   136,  257
      62750 IOBUF2   257
      77461 KEYVAL   257
          1 LSDRUM   257
          6 LVFLSH   257
      64510 MFDENT    32,   40,   44,   51,   57,   63,  113,  122,  126,  143,  150,  156,  166,  171,  257
      62735 MFDEOF    12,   16,  234,  257
        245 MXUSRS   140
        256 NALDXM    31,   33,   41
      74532 NUSERS   257
      74650 PROBNO   123,  257
      76144 PROGNO   114,  257
        660 RECSIZ   257
      60254 REELNO   257
      60243 SKELSW    71,  257
      74623 SYSDAT   257
      74624 SYSTIM   257
      60244 TAPEID   257
      60263 TCYCLE   257
      60256 TNDSAV   257
      64553 TPBUF2   257
      62741 UFDENT   257
      62747 UFDEOF   257

0 NO ERROR IN ABOVE ASSEMBLY.
1            DUMP TAPE FILE 'MAP' PREPARATION ROUTINES....M.J.BAILEY,12/15/64    05/11/69 2010.7 PAGE 1

                              *
                       00023         ENTRY   MAPLIN        WRITE 1 MAP LINE (ALL DUMPS)
                              *
                       00467         ENTRY   SAVMAP
                              *
                       00307         ENTRY   SMF           START MAP FILE (ALL DUMPS)
                              *
                       00342         ENTRY   WMH           WRITE MAP HEADING (NOT FOR NEW-FILE DUMP)
                              *
                       00374         ENTRY   EMF           END MAP FILE (ALL DUMPS)
                              *
                       00510         ENTRY   DMF           DUMP AND REMOTE PRINT MAP FILE (ALL DUMPS)
                              *
                                     EXTERN  CHFILE,DELFIL,OPEN,BUFFER,CLOSE,TILOCK
                                     EXTERN  FWAIT,WRFILE,ATTACH,FSTATE
                              *

                              *
                              *   WRITE ONE LINE IN TAPE 'MAP' FILE TO RECORD THE DUMPING OF A FILE
                              *

        TRANSFER VECTOR
      00000  233026314325     CHFILE
      00001  242543263143     DELFIL
      00002  464725456060     OPEN
      00003  226426262551     BUFFER
      00004  234346622560     CLOSE
      00005  633143462342     TILOCK
      00006  266621316360     FWAIT
      00007  665126314325     WRFILE
      00010  216363212330     ATTACH
      00011  266263216325     FSTATE
      00012  272463606060     GDT
      00013  242551222360     DERBC
      00014  272462312760     GDSIG
      00015  314622246360     IOBDT
      00016  222324246344     BCDDTM
      00017  244447263143     DMPFIL
      00020  475145632551     PRNTER

            LINKAGE DIRECTOR
      00021  000000000000
      00022  442147433145

      00023  0634 00 4 00260  MAPLIN SXA     MPG,4
      00024  0634 00 2 00256         SXA     MPF,2
      00025  0634 00 1 00255         SXA     MPE,1
      00026 -0500 00 0 60267         CAL     ARGLST        SEE IF FILE TO BE RECORDED IS MAP ITSELF
      00027 -0340 00 0 62727         LAS     DMPUSR        .
      00030  0020 00 0 00051         TRA     MPA           .
      00031  0020 00 0 00033         TRA     *+2           .
      00032  0020 00 0 00051         TRA     MPA           .
      00033 -0500 00 0 60270         CAL     ARGLST+1      .
      00034 -0340 00 0 62726         LAS     DMPRGR        .
      00035  0020 00 0 00051         TRA     MPA           .
      00036  0020 00 0 00040         TRA     *+2           .
1            DUMP TAPE FILE 'MAP' PREPARATION ROUTINES....M.J.BAILEY,12/15/64    05/11/69 2010.7 PAGE 2

      00037  0020 00 0 00051         TRA     MPA           .
      00040 -0500 00 0 60271         CAL     ARGLST+2      .
      00041 -0340 00 0 01052         LAS     MAP1          .
      00042  0020 00 0 00051         TRA     MPA           .
      00043  0020 00 0 00045         TRA     *+2           .
      00044  0020 00 0 00051         TRA     MPA           .
      00045 -0500 00 0 60272         CAL     ARGLST+3      .
      00046 -0340 00 0 01053         LAS     MAP2          .
      00047  0020 00 0 00051         TRA     MPA           .
      00050  0020 00 4 00001         TRA     1,4           EXIT IF MAP FILE ITSELF WAS TO BE RECORDED
                              *
      00051  0074 00 4 00010   MPA   TSX     ATTACH,4
 TD   00052  3 00000 0 62727         TXH     DMPUSR
 TD   00053  3 00000 0 62726         TXH     DMPRGR
      00054  0534 00 1 01055         LXA     COUNT,1
      00055  2 00001 1 00262         TIX     MWAIT,1,1
      00056  0074 00 4 00004         TSX     CLOSE,4
 TD   00057  3 00000 0 01052         TXH     MAP1
 TD   00060  3 00000 0 01053         TXH     MAP2
      00061  0074 00 4 00324         TSX     SMF2,4
      00062  0774 00 1 00031         AXT     25,1
      00063  0634 00 1 01055  NOCLOS SXA     COUNT,1
                              *
      00064  0774 00 1 00021         AXT     17,1          CLEAR LINE BUFFER
      00065  0600 00 1 01105         STZ     T+18,1
      00066  2 00001 1 00065         TIX     *-1,1,1
      00067 -0500 00 0 01125         CAL     =O777777000023
      00070  0602 00 0 01063         SLW     T             SET LINE-MARKED BCD CONTROL WORD IN LINE
                              *
      00071  0074 00 4 00012         TSX     $GDT,4        GET I/O SYSTEM FORM CURRENT DATE/TIME
      00072  0074 00 2 00266         TSX     DT,2          CONVERT IT TO '0  MM/DD/YY HHMM.M' IN TEMP
      00073  0560 00 0 01060         LDQ     TEMP          PACK AND STORE CURRENT DATE/TIME IN LINE
      00074 -0763 00 0 00014         LGL     12
      00075 -0500 00 0 01123         CAL     =H
      00076 -0763 00 0 00030         LGL     24
      00077  0560 00 0 01061         LDQ     TEMP+1
      00100 -0763 00 0 00006         LGL     6
      00101  0602 00 0 01064         SLW     T+1
      00102 -0763 00 0 00036         LGL     30
      00103  0560 00 0 01062         LDQ     TEMP+2
      00104 -0763 00 0 00006         LGL     6
      00105  0602 00 0 01065         SLW     T+2
      00106 -0763 00 0 00036         LGL     30
      00107  0767 00 0 00006         ALS     6
      00110 -0501 00 0 01111         ORA     =O60
      00111  0602 00 0 01066         SLW     T+3
                              *
      00112  0560 00 0 60267         LDQ     ARGLST        GET FILE'S USER PROB. NO.
      00113 -0500 00 0 01054         CAL     BLANKS        AND PACK AND STORE IT IN LINE BUFFER
      00114 -0763 00 0 00022         LGL     18
      00115  0602 00 0 01067         SLW     T+4
      00116 -0763 00 0 00022         LGL     18
      00117  0767 00 0 00006         ALS     6
      00120 -0501 00 0 01111         ORA     =O60
                              *
      00121  0560 00 0 60270         LDQ     ARGLST+1      FILE'S USER PROGRAMMER NO.
1            DUMP TAPE FILE 'MAP' PREPARATION ROUTINES....M.J.BAILEY,12/15/64    05/11/69 2010.7 PAGE 3

      00122 -0763 00 0 00014         LGL     12            PACK AND STORE IT IN LINE BUFFER
      00123  0602 00 0 01070         SLW     T+5
      00124 -0763 00 0 00030         LGL     24
      00125  0560 00 0 01054         LDQ     BLANKS
      00126 -0763 00 0 00014         LGL     12
      00127  0602 00 0 01071         SLW     T+6
                              *
      00130 -0500 00 0 60271         CAL     ARGLST+2      GET FILE'S 1ST NAME
      00131  0602 00 0 01072         SLW     T+7           STORE IN LINE BUFFER
      00132 -0500 00 0 01111         CAL     =O60
                              *
      00133  0560 00 0 60272         LDQ     ARGLST+3      PACK AND STORE FILE'S 2ND NAME
      00134 -0763 00 0 00036         LGL     30
      00135  0602 00 0 01073         SLW     T+8
      00136 -0763 00 0 00006         LGL     6
      00137  0602 00 0 01056         SLW     HOLD          HOLD LAST CHAR. OF FILE NAME
                              *
      00140 -0500 00 0 60273         CAL     ARGLST+4      GET DATE/TIME FILE LAST MODIFIED
      00141 -0100 00 0 00147         TNZ     MPB
      00142 -0500 00 0 01054         CAL     BLANKS        BLANKS IF DATE/TIME ZERO
      00143  0602 00 0 01060         SLW     TEMP
      00144  0602 00 0 01061         SLW     TEMP+1
      00145  0602 00 0 01062         SLW     TEMP+2
      00146  0020 00 0 00150         TRA     *+2
      00147  0074 00 2 00266   MPB   TSX     DT,2          CONVERT DATE/TIME FILE LAST MODIFIED TO BCD
      00150  0560 00 0 01060         LDQ     TEMP          PACK AND STORE IT IN LINE BUFFER
      00151 -0763 00 0 00006         LGL     6
 T    00152 -0754 00 0 00000         PXD
      00153 -0500 00 0 01056         CAL     HOLD
      00154 -0763 00 0 00036         LGL     30
      00155  0602 00 0 01074         SLW     T+9
      00156 -0500 00 0 01061         CAL     TEMP+1
      00157  0602 00 0 01075         SLW     T+10
      00160 -0500 00 0 01062         CAL     TEMP+2
      00161  0602 00 0 01076         SLW     T+11
                              *
      00162 -0500 00 0 60274         CAL     ARGLST+5      GET DATE/TIME USER LAST DUMPED
      00163 -0100 00 0 00171         TNZ     MPC
      00164 -0500 00 0 01054         CAL     BLANKS        BLANKS IF DATE/TIME ZERO
      00165  0602 00 0 01060         SLW     TEMP
      00166  0602 00 0 01061         SLW     TEMP+1
      00167  0602 00 0 01062         SLW     TEMP+2
      00170  0020 00 0 00172         TRA     *+2
      00171  0074 00 2 00266   MPC   TSX     DT,2          CONVERT DATE/TIME USER LAST DUMPED TO BCD
      00172  0560 00 0 01060         LDQ     TEMP          AND PACK AND STORE IT IN LINE BUFFER
      00173 -0763 00 0 00006         LGL     6
      00174 -0500 00 0 01054         CAL     BLANKS
      00175 -0763 00 0 00030         LGL     24
      00176  0602 00 0 01077         SLW     T+12
      00177 -0763 00 0 00006         LGL     6
      00200  0560 00 0 01061         LDQ     TEMP+1
      00201 -0763 00 0 00036         LGL     30
      00202  0602 00 0 01100         SLW     T+13
      00203 -0763 00 0 00006         LGL     6
      00204 -0520 00 0 60266         NZT     CDSW
      00205  0020 00 0 00210         TRA     *+3           SKIP IF INCREMENTAL DUMP
1            DUMP TAPE FILE 'MAP' PREPARATION ROUTINES....M.J.BAILEY,12/15/64    05/11/69 2010.7 PAGE 4

      00206  0560 00 0 01054         LDQ     BLANKS        IF COMPLETE DUMP ARGLST+5 IS
      00207  0020 00 0 00211         TRA     *+2           DATE FILE LAST USED (NO TIME)
      00210  0560 00 0 01062         LDQ     TEMP+2
      00211 -0763 00 0 00036         LGL     30
      00212  0602 00 0 01101         SLW     T+14
      00213 -0763 00 0 00006         LGL     6
      00214  0602 00 0 01056         SLW     HOLD          HOLD LAST CHAR. OF DATE/TIME LAST DUMPED
                              *
      00215 -0500 00 0 60275         CAL     ARGLST+6      GET DATE/TIME OF THIS DUMP
      00216 -0100 00 0 00224         TNZ     MPD
      00217 -0500 00 0 01054         CAL     BLANKS        BLANKS IF DATE/TIME ZERO
      00220  0602 00 0 01060         SLW     TEMP
      00221  0602 00 0 01061         SLW     TEMP+1
      00222  0602 00 0 01062         SLW     TEMP+2
      00223  0020 00 0 00225         TRA     *+2
      00224  0074 00 2 00266   MPD   TSX     DT,2          CONVERT DATE/TIME OF THIS DUMP TO BCD
      00225  0560 00 0 01060         LDQ     TEMP          AND PACK AND STORE IT IN LINE BUFFER
      00226 -0763 00 0 00006         LGL     6
 T    00227 -0754 00 0 00000         PXD
      00230 -0500 00 0 01056         CAL     HOLD
      00231 -0763 00 0 00036         LGL     30
      00232  0602 00 0 01102         SLW     T+15
      00233 -0500 00 0 01061         CAL     TEMP+1
      00234  0602 00 0 01103         SLW     T+16
      00235 -0500 00 0 01062         CAL     TEMP+2
      00236  0602 00 0 01104         SLW     T+17
      00237  0500 00 0 60254         CLA     REELNO        PUT REEL NUMBER INTO OUTPUT LINE
      00240  0400 00 0 01110         ADD     =1
      00241  0601 00 0 01106         STO     T+19
      00242  0074 00 4 00013         TSX     $DERBC,4
      00243  3 00000 0 01106         PTH     T+19
      00244 -0501 00 0 01121         ORA     =O575757600000
      00245  0602 00 0 01106         SLW     T+19
      00246 -0500 00 0 01122         CAL     =H  REEL
      00247  0602 00 0 01105         SLW     T+18
                              *
      00250  0074 00 4 00007         TSX     WRFILE,4      WRITE LINE FROM BUFFER ONTO DISK FILE
 TD   00251  3 00000 0 01052         TXH     MAP1
 TD   00252  3 00000 0 01053         TXH     MAP2
 TD   00253  3 00000 0 01107         TXH     =0
      00254  2 01057 0 01063         TIX     T,,L20
                              *
      00255  0774 00 1 00000   MPE   AXT     **,1
      00256  0774 00 2 00000  MPF    AXT     **,2
      00257  0074 00 4 00014         TSX     $GDSIG,4
      00260  0774 00 4 00000   MPG   AXT     **,4
      00261  0020 00 4 00001         TRA     1,4           RETURN TO CALLER
                              *
      00262  0074 00 4 00006  MWAIT  TSX     FWAIT,4
 TD   00263  3 00000 0 01052         TXH     MAP1
 TD   00264  3 00000 0 01053         TXH     MAP2
      00265  0020 00 0 00063         TRA     NOCLOS
                              *
                              *      CONVERT I/O SYSTEM FORM DATE/TIME TO
                              *      '0 MM/DD/YY HHMM.M' IN BCD,
                              *      AND STORE IN TEMP,TEMP+1,TEMP+2.
1            DUMP TAPE FILE 'MAP' PREPARATION ROUTINES....M.J.BAILEY,12/15/64    05/11/69 2010.7 PAGE 5

                              *
      00266  0074 00 4 00015   DT    TSX     $IOBDT,4      CONVERT I/O SYSTEM DATE/TIME
      00267  0602 00 0 01062         SLW     TEMP+2        TO HHMM.M IN AC AND MMDDYY IN MQ
      00270 -0500 00 0 01115         CAL     =O006060
      00271 -0763 00 0 00014         LGL     12
      00272  0767 00 0 00006         ALS     6
      00273 -0501 00 0 01112         ORA     =O61
      00274  0602 00 0 01060         SLW     TEMP          '0  MM/' TO TEMP
 T    00275 -0754 00 0 00000         PXD
      00276 -0763 00 0 00014         LGL     12
      00277  0767 00 0 00006         ALS     6
      00300 -0501 00 0 01112         ORA     =O61
      00301 -0763 00 0 00014         LGL     12
      00302  0767 00 0 00006         ALS     6
      00303 -0501 00 0 01111         ORA     =O60
      00304  0602 00 0 01061         SLW     TEMP+1        'DD/YY ' TO TEMP+1
 T    00305 -0754 00 0 00000         PXD
      00306  0020 00 2 00001         TRA     1,2
                              *
                              *      INITIATE MAP FILE
                              *
      00307  0634 00 4 00340  SMF    SXA     SMF4,4
      00310  0074 00 4 00000         TSX     CHFILE,4
 TD   00311  3 00000 0 01052         TXH     MAP1
 TD   00312  3 00000 0 01053         TXH     MAP2
 TD   00313  3 00000 0 01107         TXH     =O0           DE-PROTECT OLD 'MAP' FILE
 TD   00314  3 00000 0 01116         TXH     =-0
 TD   00315  3 00000 0 01116         TXH     =-0
 TD   00316  3 00000 0 00317         TXH     *+1
                              *
      00317  0074 00 4 00001         TSX     DELFIL,4      DELETE IT
 TD   00320  3 00000 0 01052         TXH     MAP1
 TD   00321  3 00000 0 01053         TXH     MAP2
 TD   00322  3 00000 0 00323         TXH     *+1
      00323  0020 00 0 00325         TRA     *+2
      00324  0634 00 4 00340  SMF2   SXA     SMF4,4
                              *
      00325  0074 00 4 00002         TSX     OPEN,4        OPEN NEW MAP FILE
 TD   00326  3 00000 0 00640         TXH     W
 TD   00327  3 00000 0 01052         TXH     MAP1
 TD   00330  3 00000 0 01053         TXH     MAP2
 TD   00331  3 00000 0 01114         TXH     =O130         (MODE PROTECTED,PRIVATE)
 TD   00332  3 00000 0 00642         TXH     LDSK
      00333  0074 00 4 00003         TSX     BUFFER,4      ASSIGN INTERNAL BUFFERS
 TD   00334  3 00000 0 01052         TXH     MAP1
 TD   00335  3 00000 0 01053         TXH     MAP2
      00336  2 00641 0 60276         TIX     IMP,,LIMP
      00337  0074 00 4 00014         TSX     $GDSIG,4
      00340  0774 00 4 00000  SMF4   AXT     **,4
      00341  0020 00 4 00001         TRA     1,4
                              *
                              *      WRITE HEADING FOR MAP OF SYSTEM FILE COMPLETE DUMP AND
                              *       FOR MAP OF USER FILE COMPLETE DUMP TAPES.
                              *
      00342  0634 00 4 00372  WMH    SXA     WMH4,4
      00343 -0500 60 4 00001         CAL*    1,4           STATE WHICH SET OF FILES BEING DUMPED
1            DUMP TAPE FILE 'MAP' PREPARATION ROUTINES....M.J.BAILEY,12/15/64    05/11/69 2010.7 PAGE 6

      00344  0602 00 0 00713         SLW     CMA           (SYSTEM OR USERS')
      00345 -0500 00 0 60264         CAL     TIME       STORE TIME DUMPING STARTED
      00346  0602 00 0 00731         SLW     CMB
      00347  0560 00 0 60265         LDQ     DATE       STORE DATE DUMPING STARTED
      00350 -0500 00 0 01126         CAL     =O777777770000
      00351  0320 00 0 00732         ANS     CMC
 T    00352 -0754 00 0 00000         PXD
      00353 -0763 00 0 00014         LGL     12
      00354 -0602 00 0 00732         ORS     CMC           STORE MONTH DIGITS OF DATE DUMPING STARTED
      00355 -0500 00 0 01124         CAL     =O770000770000
      00356  0320 00 0 00733         ANS     CMD
 T    00357 -0754 00 0 00000         PXD
      00360 -0763 00 0 00014         LGL     12
      00361  0767 00 0 00006         ALS     6
      00362 -0763 00 0 00014         LGL     12
      00363 -0602 00 0 00733         ORS     CMD           STORE DAY,YEAR DIGITS OF DATE DUMP STARTED
                              *
      00364  0074 00 4 00007         TSX     WRFILE,4      WRITE HEADING ON MAP FILE
 TD   00365  3 00000 0 01052         TXH     MAP1
 TD   00366  3 00000 0 01053         TXH     MAP2          (WHICH IS LINE-MARKED BCD)
 TD   00367  3 00000 0 01107         TXH     =0
      00370  2 01013 0 00657         TIX     CDMHED,,LCMHD
      00371  0074 00 4 00014         TSX     $GDSIG,4
      00372  0774 00 4 00000  WMH4   AXT     **,4
      00373  0020 00 4 00002         TRA     2,4
                              *
                              *      END 'MAP' FILE
                              *
      00374  0634 00 4 00465  EMF    SXA     EMF4,4
      00375  0500 00 4 00001         CLA     1,4           SET ADDRESS OF THE POSITION OF DATE/TIME
      00376 -0520 60 4 00001         NZT*    1,4           DUMPING ENDED IN HEADING OF MAP
      00377  0500 00 0 01032         CLA     AMPINS
      00400  0621 00 0 00457         STA     EMF1
                              *
      00401  0074 00 4 00016         TSX     $BCDDTM,4     GET CURRENT DATE/TIME FOR 'MAP' HEADING
      00402  0602 00 0 01026         SLW     MPINS         STORE TIME DUMPING FINISHED
      00403 -0500 00 0 01126         CAL     =O777777770000
      00404  0320 00 0 01027         ANS     MPINS+1
 T    00405 -0754 00 0 00000         PXD
      00406 -0763 00 0 00014         LGL     12
      00407 -0602 00 0 01027         ORS     MPINS+1       STORE 1ST PART OF DATE DUMPING ENDED
      00410 -0500 00 0 01124         CAL     =O770000770000
      00411  0320 00 0 01030         ANS     MPINS+2
 T    00412 -0754 00 0 00000         PXD
      00413 -0763 00 0 00014         LGL     12
      00414  0767 00 0 00006         ALS     6
      00415 -0763 00 0 00014         LGL     12
      00416 -0602 00 0 01030         ORS     MPINS+2       STORE 2ND PART OF DATE DUMPING ENDED
                              *
      00417  0074 00 4 00010         TSX     ATTACH,4
 TD   00420  3 00000 0 62727         TXH     DMPUSR
 TD   00421  3 00000 0 62726         TXH     DMPRGR
      00422  0074 00 4 00006         TSX     FWAIT,4       WAIT FOR PREVIOUS 'MAP' FILE WRITE TO END
 TD   00423  3 00000 0 01052         TXH     MAP1
 TD   00424  3 00000 0 01053         TXH     MAP2
      00425  0074 00 4 00007         TSX     WRFILE,4      WRITE MAP TAIL ENDING
1            DUMP TAPE FILE 'MAP' PREPARATION ROUTINES....M.J.BAILEY,12/15/64    05/11/69 2010.7 PAGE 7

 TD   00426  3 00000 0 01052         TXH     MAP1
 TD   00427  3 00000 0 01053         TXH     MAP2
 TD   00430  3 00000 0 01107         TXH     =0
      00431  2 01025 0 01014  FAKOUT TIX     MAPTL,,LMTL
      00432  0074 00 4 00006         TSX     FWAIT,4       WAIT FOR IT
 TD   00433  3 00000 0 01052         TXH     MAP1
 TD   00434  3 00000 0 01053         TXH     MAP2
      00435  0074 00 4 00004         TSX     CLOSE,4
 TD   00436  3 00000 0 01052         TXH     MAP1
 TD   00437  3 00000 0 01053         TXH     MAP2
      00440  0074 00 4 00000         TSX     CHFILE,4
 TD   00441  3 00000 0 01052         TXH     MAP1
 TD   00442  3 00000 0 01053         TXH     MAP2
 TD   00443  3 00000 0 01113         TXH     =O120
      00444  0074 00 4 00002         TSX     OPEN,4
 TD   00445  3 00000 0 00640         TXH     W
 TD   00446  3 00000 0 01052         TXH     MAP1
 TD   00447  3 00000 0 01053         TXH     MAP2
      00450  0074 00 4 00003         TSX     BUFFER,4
 TD   00451  3 00000 0 01052         TXH     MAP1
 TD   00452  3 00000 0 01053         TXH     MAP2
      00453  3 00641 0 60276         TXH     IMP,,LIMP
                              *
      00454  0074 00 4 00007         TSX     WRFILE,4      INSERT DATE/TIME DUMPING ENDED
 TD   00455  3 00000 0 01052         TXH     MAP1          INTO HEADING OF MAP
 TD   00456  3 00000 0 01053         TXH     MAP2
 TD   00457  3 00000 0 00000  EMF1   TXH     **
      00460  3 00003 0 01026         TXH     MPINS,,3
      00461  0074 00 4 00004         TSX     CLOSE,4       CLOSE IT
 TD   00462  3 00000 0 01052         TXH     MAP1
 TD   00463  3 00000 0 01053         TXH     MAP2
                              *
      00464  0074 00 4 00014         TSX     $GDSIG,4
      00465  0774 00 4 00000  EMF4   AXT     **,4
      00466  0020 00 4 00002         TRA     2,4           RETURN TO CALLER
                              *
                              *      ENTRY TO SAVE MAP AFTER MACHINE FAILURE
                              *
      00467  0634 00 4 00504  SAVMAP SXA     S4,4
      00470 -0500 00 4 00001         CAL     1,4
      00471  0621 00 0 00500         STA     S4-4
      00472  0074 00 4 00324         TSX     SMF2,4
      00473 -0500 00 0 00431         CAL     FAKOUT
      00474  0602 00 0 00506         SLW     FSAVE
      00475 -0500 00 0 00507         CAL     ICT
      00476  0602 00 0 00431         SLW     FAKOUT
      00477  0074 00 4 00374         TSX     EMF,4
 TD   00500  3 00000 0 00000         TXH     **
      00501 -0500 00 0 00506         CAL     FSAVE
      00502  0602 00 0 00431         SLW     FAKOUT
      00503  0074 00 4 00530         TSX     DMF2,4
      00504  0774 00 4 00000  S4     AXT     **,4
      00505  0020 00 4 00001         TRA     1,4
                              *
      00506  0 00000 0 00000  FSAVE  PZE
      00507  2 00656 0 00643  ICT    TIX     FLM,,LFLM
1            DUMP TAPE FILE 'MAP' PREPARATION ROUTINES....M.J.BAILEY,12/15/64    05/11/69 2010.7 PAGE 8

                              *
                              *      DUMP MAP FILE AND COPY IT ON TO PRINT OUTPUT TAPE
                              *
      00510  0634 00 4 00610  DMF    SXA     DMF4,4
      00511  0634 00 1 00611         SXA     DMF1,1
      00512  0074 00 4 00000         TSX     CHFILE,4
 TD   00513  3 00000 0 01052         TXH     MAP1          MAKE IT PERMANENT MODE IN
 TD   00514  3 00000 0 01053         TXH     MAP2          ORDER TO DUMP IT
 TD   00515  3 00000 0 01113         TXH     =O120
      00516 -0500 00 0 01052         CAL     MAP1          MAP FILE'S NAMES
      00517  0602 00 0 62741         SLW     UFDENT
      00520 -0500 00 0 01053         CAL     MAP2
      00521  0602 00 0 62742         SLW     UFDENT+1
      00522 -0500 00 0 62727         CAL     DMPUSR        DUMP PROGRAM'S U.F.D. NAMES
      00523  0602 00 0 64510         SLW     MFDENT
      00524 -0500 00 0 62726         CAL     DMPRGR
      00525  0602 00 0 64511         SLW     MFDENT+1
      00526  0074 00 4 00017         TSX     $DMPFIL,4     DUMP MAP FILE
      00527  0020 00 0 00532         TRA     *+3
                              *
      00530  0634 00 4 00610  DMF2   SXA     DMF4,4
      00531  0634 00 1 00611         SXA     DMF1,1
      00532  0074 00 4 00016         TSX     $BCDDTM,4     CURRENT BCD DATE TIME
      00533 -0600 00 0 01035         STQ     PRM5          DATE WILL BE 1ST PART OF NEW MAP FILE NAME
      00534  0602 00 0 01037         SLW     PRM6          TIME  ,,  ,, 2ND  ,,  ,,  ,,  ,,  ,,   ,,
      00535  0074 00 4 00000         TSX     CHFILE,4      CHANGE NAME OF MAP FILE FOR PRINTING
 TD   00536  3 00000 0 01052         TXH     MAP1
 TD   00537  3 00000 0 01053         TXH     MAP2
 TD   00540  3 00000 0 01107         TXH     =0            REGULAR PERMANENT MODE
 TD   00541  3 00000 0 01035         TXH     PRM5
 TD   00542  3 00000 0 01037         TXH     PRM6
                              *
      00543  0774 00 1 00003         AXT     3,1
      00544  0074 00 4 00005         TSX     TILOCK,4
      00545  0 00000 0 00547         PZE     ORQFS
      00546  0621 00 0 00606         STA     DMFC
      00547  0074 00 4 00011  ORQFS  TSX     FSTATE,4
 TD   00550  3 00000 0 01117         TXH     =HOUTPUT
 TD   00551  3 00000 0 01120         TXH     =HRQUEST
      00552  3 00002 0 00620         TXH     A,,2
 TD   00553  3 00000 0 00562         TXH     DMFA
      00554 -0500 00 0 00621         CAL     A+1
      00555 -0320 00 0 01110         ANA     =1
      00556 -0100 00 0 00613         TNZ     DELRQS
      00557 -0500 00 0 00621         CAL     A+1
      00560 -0320 00 0 00630         ANA     SMODE
      00561 -0100 00 0 00547         TNZ     ORQFS
      00562  0074 00 4 00002  DMFA   TSX     OPEN,4        MAKE PRINT OUTPUT REQUEST FOR MAP
 TD   00563  3 00000 0 00640         TXH     W
 TD   00564  3 00000 0 01117         TXH     =HOUTPUT
 TD   00565  3 00000 0 01120         TXH     =HRQUEST
 TD   00566  3 00000 0 01107         TXH     =0
 TD   00567  3 00000 0 00642         TXH     LDSK
      00570  0074 00 4 00003         TSX     BUFFER,4
 TD   00571  3 00000 0 01117         TXH     =HOUTPUT
 TD   00572  3 00000 0 01120         TXH     =HRQUEST
1            DUMP TAPE FILE 'MAP' PREPARATION ROUTINES....M.J.BAILEY,12/15/64    05/11/69 2010.7 PAGE 9

      00573  2 00641 0 60276         TIX     IMP,,LIMP
      00574  0074 00 4 00007         TSX     WRFILE,4
 TD   00575  3 00000 0 01117         TXH     =HOUTPUT
 TD   00576  3 00000 0 01120         TXH     =HRQUEST
 TD   00577  3 00000 0 01107         TXH     =0
      00600  2 01051 0 01033         TIX     PRM1,,L14
      00601  0074 00 4 00004         TSX     CLOSE,4
 TD   00602  3 00000 0 01117         TXH     =HOUTPUT
 TD   00603  3 00000 0 01120         TXH     =HRQUEST
 TD   00604  3 00000 0 00631         TXH     ERR
      00605  0074 00 4 00005  DMFB   TSX     TILOCK,4
      00606  0 00000 0 00000  DMFC   PZE     **
                              *
      00607  0074 00 4 00014         TSX     $GDSIG,4
      00610  0774 00 4 00000  DMF4   AXT     **,4
      00611  0774 00 1 00000  DMF1   AXT     **,1
      00612  0020 00 4 00001         TRA     1,4           RETURN TO CALLER
      00613  0074 00 4 00001  DELRQS TSX     DELFIL,4
 TD   00614  3 00000 0 01117         TXH     =HOUTPUT
 TD   00615  3 00000 0 01120         TXH     =HRQUEST
 TD   00616  3 00000 0 00617         TXH     *+1
      00617  0020 00 0 00562         TRA     DMFA
                              *
      00620                   A      BSS     8
      00630 +000000000124     SMODE  OCT     124
                              *
                              *
      00631  0074 00 4 00020  ERR    TSX     $PRNTER,4
      00632  0074 00 4 00014         TSX     $GDSIG,4
      00633  0074 00 4 00004         TSX     CLOSE,4
 TD   00634  3 00000 0 01117         TXH     =HOUTPUT
 TD   00635  3 00000 0 01120         TXH     =HRQUEST
      00636  2 00001 1 00562         TIX     DMFA,1,1
      00637  0020 00 0 00605         TRA     DMFB
                              *
      00640  666060606060     W      BCI     1,W
      00641  0 00000 0 00660  LIMP   PZE     NW
      00642  0 00000 0 00002  LDSK   PZE     DISK
                              *
      00643 -377777000001     FLM    OCT     777777000001
      00644  606060606060            BCI     1,
      00645 -377777000001            OCT     777777000001
      00646  606060606060            BCI     1,
      00647 -377777000006            OCT     777777000006
      00650  006060606060            BCI     6,0     END OF MAP (INCOMPLETE TAPE)
      00651  254524604626
      00652  604421476074
      00653  314523464447
      00654  432563256063
      00655  214725346060
      00656  0 00000 0 00013  LFLM   PZE     *-FLM
                              *
      00657 -377777000016     CDMHED OCT     777777000016
      00660  016060606060            BCI     7,1
      00661  606060606060
      00662  606060606060
1            DUMP TAPE FILE 'MAP' PREPARATION ROUTINES....M.J.BAILEY,12/15/64    05/11/69 2010.7 PAGE 10

      00663  606060606060
      00664  606060606060
      00665  606060606060
      00666  606060606060
      00667  604421476046            BCI     7, MAP OF THE CONTENTS OF THE DUMP TAPE FILE
      00670  266063302560
      00671  234645632545
      00672  636260462660
      00673  633025602464
      00674  444760632147
      00675  256026314325
      00676 -377777000017            OCT     777777000017
      00677  006060606060            BCI     7,0
      00700  606060606060
      00701  606060606060
      00702  606060606060
      00703  606060606060
      00704  606060606060
      00705  606060606060
      00706  602646516063            BCI     5, FOR THE COMPLETE DUMP OF THE
      00707  302560234644
      00710  474325632560
      00711  246444476046
      00712  266063302560
      00713  606060606060     CMA    BCI     3,       FILES,
      00714  602631432562
      00715  736060606060
      00716 -377777000015            OCT     777777000015
      00717  006060606060            BCI     7,0
      00720  606060606060
      00721  606060606060
      00722  606060606060
      00723  606060606060
      00724  606060606060
      00725  606060606060
      00726  606630312330            BCI     3, WHICH STARTED AT
      00727  606263215163
      00730  252460216360
      00731  606060606060     CMB    BCI     1,
      00732  604645606060     CMC    BCI     1, ON
      00733  616060616060     CMD    BCI     1,/  /
      00734 -377777000016            OCT     777777000016
      00735  006060606060            BCI     7,0
      00736  606060606060
      00737  606060606060
      00740  606060606060
      00741  606060606060
      00742  606060606060
      00743  606060606060
      00744  606021452460            BCI     3,  AND FINISHED AT
      00745  263145316230
      00746  252460216360
      00747  606060606060     CME    BCI     1,
      00750  604645606060            BCI     1, ON
      00751  616060616060            BCI     2,/  /  .
      00752  336060606060
1            DUMP TAPE FILE 'MAP' PREPARATION ROUTINES....M.J.BAILEY,12/15/64    05/11/69 2010.7 PAGE 11

      00753 -377777000017            OCT     777777000017
      00754  006060606331            BCI     9,0   TIME DUMPED          USER           FILE      DATE
      00755  442560246444
      00756  472524606060
      00757  606060606060
      00760  606462255160
      00761  606060606060
      00762  606060602631
      00763  432560606060
      00764  606024216325
      00765  616331442560            BCI     6,/TIME OF FILE    WHEN LAST USED
      00766  462660263143
      00767  256060606066
      00770  302545604321
      00771  626360646225
      00772  246060606060
      00773 -377777000017            OCT     777777000017
      00774  606060604040            BCI     9,    -----------          ----           ----      ----
      00775  404040404040
      00776  404040606060
      00777  606060606060
      01000  604040404060
      01001  606060606060
      01002  606060604040
      01003  404060606060
      01004  606040404040
      01005  404040404040            BCI     6,-------------    --------------
      01006  404040404040
      01007  406060606040
      01010  404040404040
      01011  404040404040
      01012  406060606060
      01013  0 00000 0 00134  LCMHD  PZE     *-CDMHED
      01014 -377777000001     MAPTL  OCT     777777000001
      01015  606060606060            BCI     1,
      01016 -377777000001            OCT     777777000001
      01017  606060606060            BCI     1,
      01020 -377777000004            OCT     777777000004
      01021  006060606060            BCI     4,0         END OF MAP.
      01022  606060602545
      01023  246046266044
      01024  214733606060
      01025  0 00000 0 00011  LMTL   PZE     *-MAPTL
      01026  606060606060     MPINS  BCI     3,       ON   /  /
      01027  604645606060
      01030  616060616060
      01031  0 00000 0 00071  IMPINS PZE     CME-CDMHED+1
      01032  0 00000 0 01031  AMPINS PZE     IMPINS
                              *
      01033  475145242543     PRM1   BCI     1,PRNDEL
      01034  606060606060            BCI     1,
      01035  606060606060     PRM5   BCI     1,            MAP FILE OUTPUT REQUEST NAME PART 1
      01036  606060606060            BCI     1,
      01037  606060606060     PRM6   BCI     1,            MAP FILE OUTPUT REQUEST NAME PART 2
      01040  606060606060            BCI     7,
      01041  606060606060
1            DUMP TAPE FILE 'MAP' PREPARATION ROUTINES....M.J.BAILEY,12/15/64    05/11/69 2010.7 PAGE 12

      01042  606060606060
      01043  606060606060
      01044  606060606060
      01045  606060606060
      01046  606060606060
      01047  602300000506            BCI     2, C0056 99999
      01050  601111111111
      01051  0 00000 0 00016  L14    PZE     14
                              *
      01052  246444476347      MAP1  BCI     1,DUMPTP
      01053  601444214714      MAP2  BCI     1, 'MAP'
      01054  606060606060     BLANKS BCI     1,
      01055  0 00000 0 00031  COUNT  PZE     25
      01056  0 00000 0 00000   HOLD  PZE
      01057  0 00000 0 00024  L20    PZE     20
      01060                   TEMP   BSS     3
      01063                   T      BSS     20
                              *
                                     INSERT  DCMEQB
                              *
                              *  .  .  .  .  .  .  .  .  .  .  .  .  .  .  .  .  .  .
                              *    COMMON AND EQUIVALENCE FOR GENERAL DUMP PROGRAM
                              *  .  .  .  .  .  .  .  .  .  .  .  .  .  .  .  .  .  .
                              *
                      074446  DEMKEY BOOL    74446         CORE A LOCATION FOR DAEMON'S KEY SETTING
                      074624  SYSTIM BOOL    74624         CORE A LOCATION FOR SYSTEM  TIME
                      074623  SYSDAT BOOL    74623         CORE A LOCATION FOR SYSTEM INIT. DATE
                      076041  RCODE  BOOL    76041         CORE A LOCATION FOR RESTRICTION CODE VECTOR
                      074454  AUTOND BOOL    74454         CORE A AUTOMATIC LOGOUT INDICATOR
                      074532  NUSERS BOOL    74532         CORE A LOGGED-IN USER COUNT
                      076500  PROBN  BOOL    76500         CORE A PROBNO ARRAY
                      076305  UFDNM  BOOL    76305         CORE A UFDNM ARRAY
                      074672  PB     BOOL    74672         CORE A GUARANTEED PERCENTAGE VECTOR BASE
                       00050  N      EQU     40            CORE A MAX. NO. OF USERS (SIZE OF PROBN)
                              *
                      000017  BASE   BOOL    17            KEY CODE BASE
                      000001  I      BOOL    1             KEY CODE TO START INCREMENTAL DUMP
                      000002  PAUSE  BOOL    2             KEY CODE TO WAIT FOR 1 MIN.
                      000003  C      BOOL    3             KEY CODE TO DO COMPLETE DUMP
                      000004  AK     BOOL    4             KEY CODE FOR IMPENDING AUTOLOGOUT
                      000005  ENFLSH BOOL    5             KEY CODE TO ENTER FLUSH MODE
                      000006  LVFLSH BOOL    6             KEY CODE TO LEAVE FLUSH MODE
                      000007  ENDTAP BOOL    7             KEY CODE TO TERMINATE DUMP TAPE FILE
                      000010  INT    BOOL    10            SIMULATE INTERRUPT
                       00660  RECSIZ EQU     432           TAPE RECORD SIZE
                       00006   NX    EQU     6             MAX. NO. OF SYSTEM FILE OWNERS
                       00030  NCD    EQU     24            MAX. NO. 'DAYS' NON-USE OF CURRENT FILES
                       00014  DINC   EQU     12            NO. DAYS OF 'RECENCY' INCREMENT (C.DUMP)
                       01274  U      EQU     700           MAX. NO. USERS IN MFD USER LIST
                       03300  TBSIZ  EQU     4*RECSIZ      TAPE BUFFER SIZE
                       00007  ERYSIZ EQU     7             I/O SYSTEM ERROR ARRAY SIZE
                       00014  ERCODA EQU     12            'OPEN' ERROR CODE FOR FILE NOT FOUND
                       00016  ERCODB EQU     14            'OPEN' ERROR CODE RQSTD. DEVICE UNAVBLE
                       00660  NW     EQU     432           SIZE OF SECONDARY I/O FILE BUFFERS
                       00001  LSDRUM EQU     1             I/O SYSTEM DEVICE CODE FOR L.S.DRUM
                       00002    DISK EQU     2             I/O SYSTEM DEVICE CODE FOR DISK
1            DUMP TAPE FILE 'MAP' PREPARATION ROUTINES....M.J.BAILEY,12/15/64    05/11/69 2010.7 PAGE 13

                       00003   TAPE  EQU     3             I/O SYSTEM DEVICE CODE FOR TAPE
                       00030  NHOUR  EQU     24            NO. OF HOURS IN A 'DAY'
                       77461  KEYVAL COMMON  1             LAST KEY SETTING READ FROM SUPERVISOR
                       77460  FLSHSW COMMON  1             FLUSH MODE SWITCH
                       77457  ENTPSW COMMON  1             OPERATOR-REQUESTED-END-TAPE INDICATOR
                       77456  NMFDU  COMMON  1             NO. USERS CURRENTLY IN LIST
                       77455  EXEMPT COMMON  2*NX          LIST OF SYSTEM FILE OWNERS
                       77441  NXMPT  COMMON  1             NO. FILE USERS EXEMPT FROM DUMP IN DCYCLE
                       77440  DTLD   COMMON  U             TIME LAST DUMPED FOR EACH USER
                       76144  PROGNO COMMON  U             PROGRAMMER NO. OF EACH USER
                       74650  PROBNO COMMON  U             PROBLEM NO. OF EACH USER
                       73354   FLUSH COMMON  1             NON-ZERO INDICATES FLUSH MODE IS FORCED
                       73353   TND   COMMON  1             TIME OF NEXT DUMP FOR CURRENT USER
                       70053         COMMON  TBSIZ-1       TAPE BUFFER
                       70053  TPBUF  COMMON  1             TAPE BUFFER 1ST WORD
                       64553         COMMON  TBSIZ-1       2ND TAPE BUFFER
                       64553  TPBUF2 COMMON  1             2ND TAPE BUFFER, 1ST WORD
                       64544         COMMON  ERYSIZ-1      ERROR ARRAY
                       64544  ERAY   COMMON  1             ERROR ARRAY 1ST WORD
                       64526         COMMON  13            PRINT BUFFER
                       64526   PBF   COMMON  1             PRINT BUFFER 1ST WORD
                       64510         COMMON  13            MFD ENTRY BUFFER
                       64510  MFDENT COMMON  1             MFD ENTRY BUFFER 1ST WORD
                       63630         COMMON  NW-1          SECONDARY I/0 FILE BUFFER
                       63630   IOBUF COMMON  1             SECONDARY IO BUFFER 1ST WORD
                       62750         COMMON  NW-1          SECONDARY I/O FILE BUFFER
                       62750  IOBUF2 COMMON  1             SECONDARY I/O BUFFER 1ST WORD
                       62747  UFDEOF COMMON  1             ZERO INDICATES EOF IN UFD FILE
                       62741         COMMON  5             PARTIAL UFD ENTRY BUFFER
                       62741  UFDENT COMMON  1             PARTIAL UFD ENTRY BUFFER 1ST WORD
                       62740   MFDC  COMMON  1             NEXT WORD TO BE READ FROM MFD FILE
                       62737   TLD   COMMON  1             TIME LAST DUMP OF USER CURRENTLY DUMPING
                       62736   UFDC  COMMON  1             NEXT UNREAD POS. OF UFDFILE (NORMALLY ZERO)
                       62735  MFDEOF COMMON  1             ZERO INDICATES EOF IN MFD FILE
                       62734   EOFCT COMMON  1             NO. OF WORDS READ BEFORE AN EOF
                       62733   FEOF  COMMON  1             ZERO INDICATES EOF IN A USER FILE
                       62732  EOFCTA COMMON  1             NO. OF WORDS BEFORE AN EOF
                       62731   DMPSW COMMON  1             NON-ZERO INDICATES A FILE HAS BEEN DUMPED
                       62730   DAWN  COMMON  1             TIME OF START OF 'DAY'
                       62727  DMPUSR COMMON  1             PROBLEM NO. OF DUMP/LOAD PACKAGE
                       62726  DMPRGR COMMON  1             PROGRAMMER NO. OF  DITTO.
                       62727  DU     EQU     DMPUSR
                       62726  DP     EQU     DMPRGR
                       62725   MFD1W COMMON  1             NO. OF 1ST GOOD WORD IN MFD AND UFD FILES
                       62723         COMMON  1             2ND PART OF DUMP TAPE FILE (COPY 1) NAME
                       62723  NFN1   COMMON  1             1ST PART OF DUMP TAPE FILE (COPY 1) NAME
                       62721         COMMON  1             2ND PART OF DUMP TAPE FILE (COPY 2) NAME
                       62721   NFN2  COMMON  1             1ST PART OF DUMP TAPE FILE (COPY 2) NAME
                       62720  TNDSW  COMMON  1             INDICATES TIME OF THIS DUMP CURRENT OR NO
                       62040         COMMON  RECSIZ-1      INTERNAL TAPE BUFFER
                       62040   ITB1  COMMON  1                ,,     ,,    ,,  1ST WORD
                       61160         COMMON  RECSIZ-1      INTERNAL TAPE BUFFER
                       61160   ITB2  COMMON  1                ,,     ,,  ,,  1ST WORD
                       61157   DUSK  COMMON  1             TIME OF END OF CURRENT 'DAY'
                       61156   ENDSW COMMON  1             IF 1, NORMAL END-OF-DAY,ELSE OPERATOR ONE
                       60276         COMMON  NW-1          INTERNAL BUFFER FOR 'MAP' FILE
1            DUMP TAPE FILE 'MAP' PREPARATION ROUTINES....M.J.BAILEY,12/15/64    05/11/69 2010.7 PAGE 14

                       60276    IMP  COMMON  1                ,,      ,,    ,,   ,,   ,,  1ST WORD
                       60267         COMMON  6             'MAP' FILE LINE PARAMETER ARRAY
                       60267  ARGLST COMMON  1               ,,   ,,   ,,      ,,      ,,  1ST WORD
                       60266  CDSW   COMMON  1             NON-ZERO DURING COMPLETE DUMP,ELSE ZERO
                       60265  DATE   COMMON  1             DATE THE DUMP NOW IN PROGRESS BEGAN
                       60264  TIME   COMMON  1             TIME DUMP NOW IN PROGRESS BEGAN
                       60263  TCYCLE COMMON  1             'TIME' OF LAST CYCLE ON DUMP TAPE FILE
                       60262  TFOSW  COMMON  1             NON-ZERO IF DUMP TAPE FILE IS OPEN
                       60261  ALOG   COMMON  1             NON-ZERO IF AUTOLOGOUT ON
                       60260  SW1    COMMON  1
                       60257  TCP    COMMON  1
                       60256  TNDSAV COMMON  1
                       60255  ODAWN  COMMON  1             TIME OF START OF PREVIOUS 'DAY'
                       60244         COMMON  8             TAPE LABEL
                       60244  TAPEID COMMON  1             TAPE LABEL 1ST WORD
                       60243  SKELSW COMMON  1
                       60254  REELNO EQU     TAPEID+8
                                     END

        LITERALS
      01107  000000000000
      01110  000000000001
      01111  000000000060
      01112  000000000061
      01113  000000000120
      01114  000000000130
      01115  000000006060
      01116  400000000000
      01117  466463476463
      01120  515064256263
      01121  575757600000
      01122  606051252543
      01123  606060606060
      01124  770000770000
      01125  777777000023
      01126  777777770000
1            DUMP TAPE FILE 'MAP' PREPARATION ROUTINES....M.J.BAILEY,12/15/64    05/11/69 2010.7 PAGE 1
                        POST PROCESSOR ASSEMBLY DATA

       60242 IS THE LAST LOCATION NOT USED BY THIS PROGRAM
       1127 IS THE FIRST LOCATION NOT USED BY THIS PROGRAM

0REFERENCES TO DEFINED SYMBOLS
        620      A   552,  554,  557
          3      C  1107
          1      I  1107
         50      N  1107
       1063      T    65,   70,  101,  105,  111,  115,  123,  127,  131,  135,  155,  157,  161,  176,  202,  212,  232
                     234,  236,  241,  243,  245,  247,  254
       1274      U  1107
        640      W   326,  445,  563
          4     AK  1107
      62726     DP  1107
        266     DT    72,  147,  171,  224
      62727     DU  1107
        660     NW   641, 1107
          6     NX  1107
      74672     PB  1107
        504     S4   467,  471
        713    CMA   344
        731    CMB   346
        732    CMC   351,  354
        733    CMD   356,  363
        747    CME  1031
        510    DMF     0
        374    EMF     0,  477
        631    ERR   604
        643    FLM   507,  656
         12    GDT    71
        507    ICT   475
      60276    IMP   336,  453,  573, 1107
         10    INT  1107
       1051    L14   600
       1057    L20   254
         51    MPA    30,   32,   35,   37,   42,   44,   47
        147    MPB   141
        171    MPC   163
        224    MPD   216
        255    MPE    25
        256    MPF    24
        260    MPG    23
         30    NCD  1107
      64526    PBF  1107
        307    SMF     0
      60260    SW1  1107
      60257    TCP  1107
      62737    TLD  1107
      73353    TND  1107
        342    WMH     0
      60261   ALOG  1107
         17   BASE  1107
      60266   CDSW   204, 1107
      60265   DATE   347, 1107
1            DUMP TAPE FILE 'MAP' PREPARATION ROUTINES....M.J.BAILEY,12/15/64    05/11/69 2010.7 PAGE 2
                        POST PROCESSOR ASSEMBLY DATA

      62730   DAWN  1107
         14   DINC  1107
          2   DISK   642, 1107
        611   DMF1   511,  531
        530   DMF2   503
        610   DMF4   510,  530
        562   DMFA   553,  617,  636
        605   DMFB   637
        606   DMFC   546
      77440   DTLD  1107
      61157   DUSK  1107
        457   EMF1   400
        465   EMF4   374
      64544   ERAY  1107
      62733   FEOF  1107
       1056   HOLD   137,  153,  214,  230
      62040   ITB1  1107
      61160   ITB2  1107
        642   LDSK   332,  567
        656   LFLM   507
        641   LIMP   336,  453,  573
       1025   LMTL   431
       1052   MAP1    41,   57,  251,  263,  311,  320,  327,  334,  365,  423,  426,  433,  436,  441,  446,  451,  455
                     462,  513,  516,  536
       1053   MAP2    46,   60,  252,  264,  312,  321,  330,  335,  366,  424,  427,  434,  437,  442,  447,  452,  456
                     463,  514,  520,  537
      62740   MFDC  1107
      62723   NFN1  1107
      62721   NFN2  1107
          2   OPEN   325,  444,  562
       1033   PRM1   600
       1035   PRM5   533,  541
       1037   PRM6   534,  542
        324   SMF2    61,  472
        340   SMF4   307,  324
          3   TAPE  1107
       1060   TEMP    73,   77,  103,  143,  144,  145,  150,  156,  160,  165,  166,  167,  172,  200,  210,  220,  221
                     222,  225,  233,  235,  267,  274,  304
      60264   TIME   345, 1107
      62736   UFDC  1107
        372   WMH4   342
          4  CLOSE    56,  435,  461,  601,  633
       1055  COUNT    54,   63
         13  DERBC   242
      62731  DMPSW  1107
      61156  ENDSW  1107
      62734  EOFCT  1107
      73354  FLUSH  1107
        506  FSAVE   474,  501
          6  FWAIT   262,  422,  432
         14  GDSIG   257,  337,  371,  464,  607,  632
         15  IOBDT   266
      63630  IOBUF  1107
       1013  LCMHD   370
       1014  MAPTL   431, 1025
1            DUMP TAPE FILE 'MAP' PREPARATION ROUTINES....M.J.BAILEY,12/15/64    05/11/69 2010.7 PAGE 3
                        POST PROCESSOR ASSEMBLY DATA

      62725  MFD1W  1107
       1026  MPINS   402,  404,  407,  411,  416,  460
        262  MWAIT    55
         30  NHOUR  1107
      77456  NMFDU  1107
      77441  NXMPT  1107
      60255  ODAWN  1107
        547  ORQFS   545,  561
          2  PAUSE  1107
      76500  PROBN  1107
      76041  RCODE  1107
        630  SMODE   560
       3300  TBSIZ  1107
      60262  TFOSW  1107
      62720  TNDSW  1107
      70053  TPBUF  1107
      76305  UFDNM  1107
       1032 AMPINS   377
      60267 ARGLST    26,   33,   40,   45,  112,  121,  130,  133,  140,  162,  215, 1107
         10 ATTACH    51,  417
      74454 AUTOND  1107
         16 BCDDTM   401,  532
       1054 BLANKS   113,  125,  142,  164,  174,  206,  217
          3 BUFFER   333,  450,  570
        657 CDMHED   370, 1013, 1031
          0 CHFILE   310,  440,  512,  535
          1 DELFIL   317,  613
        613 DELRQS   556
      74446 DEMKEY  1107
         17 DMPFIL   526
      62726 DMPRGR    34,   53,  421,  524, 1107
      62727 DMPUSR    27,   52,  420,  522, 1107
          7 ENDTAP  1107
          5 ENFLSH  1107
      77457 ENTPSW  1107
      62732 EOFCTA  1107
         14 ERCODA  1107
         16 ERCODB  1107
          7 ERYSIZ  1107
      77455 EXEMPT  1107
        431 FAKOUT   473,  476,  502
      77460 FLSHSW  1107
         11 FSTATE   547
       1031 IMPINS  1032
      62750 IOBUF2  1107
      77461 KEYVAL  1107
          1 LSDRUM  1107
          6 LVFLSH  1107
         23 MAPLIN     0
      64510 MFDENT   523,  525, 1107
      62735 MFDEOF  1107
         63 NOCLOS   265
      74532 NUSERS  1107
         20 PRNTER   631
      74650 PROBNO  1107
1            DUMP TAPE FILE 'MAP' PREPARATION ROUTINES....M.J.BAILEY,12/15/64    05/11/69 2010.7 PAGE 4
                        POST PROCESSOR ASSEMBLY DATA

      76144 PROGNO  1107
        660 RECSIZ  1107
      60254 REELNO   237, 1107
        467 SAVMAP     0
      60243 SKELSW  1107
      74623 SYSDAT  1107
      74624 SYSTIM  1107
      60244 TAPEID  1107
      60263 TCYCLE  1107
          5 TILOCK   544,  605
      60256 TNDSAV  1107
      64553 TPBUF2  1107
      62741 UFDENT   517,  521, 1107
      62747 UFDEOF  1107
          7 WRFILE   250,  364,  425,  454,  574

0 NO ERROR IN ABOVE ASSEMBLY.
