1            START DUMP TAPE FILE.....M.J.BAILEY,12/15/64                        05/11/69 2010.9 PAGE 1

                              *
                       00020         ENTRY   SDF
                              *
                                     EXTERN  BUFFER,ATTACH,CHFILE,TAPFIL
                                     EXTERN  MOUNT,LABEL,OPEN,DELFIL

        TRANSFER VECTOR
      00000  226426262551     BUFFER
      00001  216363212330     ATTACH
      00002  233026314325     CHFILE
      00003  632147263143     TAPFIL
      00004  444664456360     MOUNT
      00005  432122254360     LABEL
      00006  464725456060     OPEN
      00007  242543263143     DELFIL
      00010  272462312760     GDSIG
      00011  222324246344     BCDDTM
      00012  272463606060     GDT
      00013  665145266060     WRNF
      00014  222551446060     BERM
      00015  255151254524     ERREND

            LINKAGE DIRECTOR
      00016  000000000000
      00017  622426606060

      00020  0634 00 1 00205  SDF    SXA     SDY,1
      00021  0634 00 4 00206         SXA     SDZ,4
      00022  0600 00 0 60254         STZ     REELNO
      00023  0500 00 4 00001         CLA     1,4           ADDRESS OF TAPE-MOUNT MESSAGE
      00024  0601 00 0 00055         STO     SDFA
      00025  0601 00 0 00105         STO     SDFC
                              *
      00026  0074 00 4 00010         TSX     $GDSIG,4
      00027  0074 00 4 00001         TSX     ATTACH,4
 TD   00030  3 00000 0 62727         TXH     DMPUSR
 TD   00031  3 00000 0 62726         TXH     DMPRGR
      00032  0074 00 4 00002         TSX     CHFILE,4      DE-PROTECT OLD DUMP TAPE FILE (COPY 1)
 TD   00033  3 00000 0 62723         TXH     NFN1
 TD   00034  3 00000 0 62724         TXH     NFN1+1
 TD   00035  3 00000 0 00231         TXH     =O0
 TD   00036  3 00000 0 00237         TXH     =-0
 TD   00037  3 00000 0 00237         TXH     =-0
 TD   00040  3 00000 0 00041         TXH     *+1
      00041  0074 00 4 00007         TSX     DELFIL,4      DELETE IT
 TD   00042  3 00000 0 62723         TXH     NFN1
 TD   00043  3 00000 0 62724         TXH     NFN1+1
 TD   00044  3 00000 0 00045         TXH     *+1
      00045  0074 00 4 00003         TSX     TAPFIL,4      DECLARE UNIT 11,FILE 1, TO BE
 TD   00046  3 00000 0 62723         TXH     NFN1          DUMP FILE COPY 1
 TD   00047  3 00000 0 62724         TXH     NFN1+1
 TD   00050  3 00000 0 00234         TXH     =11
 TD   00051  3 00000 0 00231         TXH     =0
      00052  0074 00 4 00004         TSX     MOUNT,4       ASK OPERATOR FOR REEL
 TD   00053  3 00000 0 00232         TXH     =1            ON CHANNEL A
 TD   00054  3 00000 0 00234         TXH     =11           ON UNIT 11,GIVE HIM MESSAGE
1            START DUMP TAPE FILE.....M.J.BAILEY,12/15/64                        05/11/69 2010.9 PAGE 2

      00055  2 00000 0 00000  SDFA   TIX     **,,**
      00056  0074 00 4 00005         TSX     LABEL,4       GIVE I/O SYSTEM TAPE LABEL
 TD   00057  3 00000 0 00234         TXH     =11
      00060  2 00225 0 60244         TIX     TAPEID,,L4
 TD   00061  3 00000 0 00052         TXH     *-7
                              *
      00062  0074 00 4 00002         TSX     CHFILE,4      DE-PROTECT OLD DUMP TAPE FILE (COPY 2)
 TD   00063  3 00000 0 62721         TXH     NFN2
 TD   00064  3 00000 0 62722         TXH     NFN2+1
 TD   00065  3 00000 0 00231         TXH     =O0
 TD   00066  3 00000 0 00237         TXH     =-0
 TD   00067  3 00000 0 00237         TXH     =-0
 TD   00070  3 00000 0 00071         TXH     *+1
      00071  0074 00 4 00007         TSX     DELFIL,4      DELETE IT
 TD   00072  3 00000 0 62721         TXH     NFN2
 TD   00073  3 00000 0 62722         TXH     NFN2+1
 TD   00074  3 00000 0 00075         TXH     *+1
      00075  0074 00 4 00003         TSX     TAPFIL,4      DECLARE UNIT 12,FILE 1, TO BE
 TD   00076  3 00000 0 62721         TXH     NFN2          DUMP FILE COPY 2
 TD   00077  3 00000 0 62722         TXH     NFN2+1
 TD   00100  3 00000 0 00235         TXH     =12
 TD   00101  3 00000 0 00231         TXH     =0
      00102  0074 00 4 00004         TSX     MOUNT,4       ASK OPERATOR FOR REEL
 TD   00103  3 00000 0 00233         TXH     =2            ON CHANNEL B
 TD   00104  3 00000 0 00235         TXH     =12           ON UNIT 12, GIVE HIM MESSAGE
      00105  2 00000 0 00000  SDFC   TIX     **,,**
      00106  0074 00 4 00005         TSX     LABEL,4       GIVE I/O SYSTEM TAPE LABEL
 TD   00107  3 00000 0 00235         TXH     =12
      00110  2 00225 0 60244         TIX     TAPEID,,L4
 TD   00111  3 00000 0 00102         TXH     *-7
                              *
                              *      OPEN DUMP TAPE FILES
                              *
      00112  0074 00 4 00006   IDNA  TSX     OPEN,4        NOW, OPEN DUMP TAPE FILES
 TD   00113  3 00000 0 00221         TXH     W
 TD   00114  3 00000 0 62723         TXH     NFN1
 TD   00115  3 00000 0 62724         TXH     NFN1+1
 TD   00116  3 00000 0 00236         TXH     =O120
 TD   00117  3 00000 0 00220         TXH     LTAPE
 TD   00120  3 00000 0 00210         TXH     ERRID4
      00121  0074 00 4 00000  IDO    TSX     BUFFER,4
 TD   00122  3 00000 0 62723         TXH     NFN1
 TD   00123  3 00000 0 62724         TXH     NFN1+1
      00124  2 00222 0 62040         TIX     ITB1,,LITB1
      00125  0074 00 4 00006   IDOA  TSX     OPEN,4
 TD   00126  3 00000 0 00221         TXH     W
 TD   00127  3 00000 0 62721         TXH     NFN2
 TD   00130  3 00000 0 62722         TXH     NFN2+1
 TD   00131  3 00000 0 00236         TXH     =O120
 TD   00132  3 00000 0 00220         TXH     LTAPE
 TD   00133  3 00000 0 00214         TXH     ERRID5
      00134  0074 00 4 00000  IDP    TSX     BUFFER,4
 TD   00135  3 00000 0 62721         TXH     NFN2
 TD   00136  3 00000 0 62722         TXH     NFN2+1
      00137  2 00223 0 61160         TIX     ITB2,,LITB2
      00140  0500 00 0 60262         CLA     TFOSW
1            START DUMP TAPE FILE.....M.J.BAILEY,12/15/64                        05/11/69 2010.9 PAGE 3

      00141  0400 00 0 00232         ADD     =1
      00142  0601 00 0 60262         STO     TFOSW
                              *
                              *      PREPARE THEN WRITE TAPE I.D. RECORD
                              *
      00143  0774 00 1 00650         AXT     RECSIZ-8,1
      00144  0600 00 1 70733         STZ     TPBUF+RECSIZ,1  CLEAR ALL BUT BOTTOM OF BUFFER
      00145  2 00001 1 00144         TIX     *-1,1,1
      00146  0774 00 1 00004         AXT     4,1
      00147 -0500 00 1 60250  IDX    CAL     TAPEID+4,1    STORE HEADER LABEL IN BUFFER
      00150  0602 00 1 70057         SLW     TPBUF+4,1
      00151  2 00001 1 00147         TIX     IDX,1,1
      00152  0074 00 4 00011         TSX     $BCDDTM,4     CURRENT DATE/TIME
      00153  0602 00 0 70057         SLW     TPBUF+4       TIME (HHMM.M IN BCD)
      00154  0602 00 0 60264         SLW     TIME          SAVE TIME DUMPING STARTED
      00155 -0600 00 0 70060         STQ     TPBUF+5       DATE (MMDDYY IN BCD)
      00156 -0600 00 0 60265         STQ     DATE          SAVE DATE DUMPING STARTED
      00157  0074 00 4 00012         TSX     $GDT,4        I/O SYSTEM FORM CURRENT DATE/TIME
      00160  0602 00 0 70061         SLW     TPBUF+6
      00161  0774 00 1 00004         AXT     4,1
      00162 -0500 00 1 70063         CAL     TPBUF+8,1
      00163  0602 00 1 60254         SLW     TAPEID+8,1
      00164  2 00001 1 00162         TIX     *-2,1,1
      00165 -0500 00 0 00224         CAL     LRSIZ
      00166  0771 00 0 00003         ARS     3             RECSIZ/8  (INTEGER)
      00167  0402 00 0 00232         SUB     =1            RECSIZ/8-1
      00170  0767 00 0 00003         ALS     3             (RECSIZ/8-1)*8
      00171  0734 00 4 00000         PAX     0,4
      00172 -0760 00 0 00016         EMTM
      00173  0774 00 1 00000         AXT     0,1           REPEAT THE 8 I.D. WORDS
      00174 -0500 00 1 70062         CAL     TPBUF+7,1     THROUGHOUT THE FIRST PHYSICAL RECORD
      00175  0602 00 5 70742         SLW     TPBUF+RECSIZ/8*8+7,5
      00176  1 00001 1 00177         TXI     *+1,1,1
      00177 -3 00007 1 00174         TXL     *-3,1,7
      00200  2 00010 4 00173         TIX     *-5,4,8
      00201  0760 00 0 00016         LMTM
                              *
      00202  0074 00 4 00013         TSX     $WRNF,4       WRITE DUMP TAPE(S) ID RECORD
 TD   00203  3 00000 0 70053         TXH     TPBUF
 TD   00204  3 00000 0 00224         TXH     LRSIZ
                              *
      00205  0774 00 1 00000   SDY   AXT     **,1
      00206  0774 00 4 00000   SDZ   AXT     **,4
      00207  0020 00 4 00002         TRA     2,4
                              *
      00210  0074 00 4 00014  ERRID4 TSX     $BERM,4       PRINT STANDARD MESSAGE
      00211  0 00000 0 00240         PZE     =HSDF01
      00212  0074 00 4 00015         TSX     $ERREND,4
      00213  0020 00 0 00112         TRA     IDNA          TRY AGAIN
                              *
      00214  0074 00 4 00014  ERRID5 TSX     $BERM,4       PRINT STANDARD MESSAGE
      00215  0 00000 0 00241         PZE     =HSDF02
      00216  0074 00 4 00015         TSX     $ERREND,4
      00217  0020 00 0 00125         TRA     IDOA          TRY AGAIN
                              *
                              *      CONSTANTS, VARIABLES, ETC.
1            START DUMP TAPE FILE.....M.J.BAILEY,12/15/64                        05/11/69 2010.9 PAGE 4

                              *
      00220  0 00000 0 00003  LTAPE  PZE     TAPE
      00221  666060606060      W     BCI     1,W
      00222  0 00000 0 01540   LITB1 PZE     2*RECSIZ
      00223  0 00000 0 01540   LITB2 PZE     2*RECSIZ
      00224  0 00000 0 00660   LRSIZ PZE     RECSIZ
      00225  0 00000 0 00004  L4     PZE     4
      00226  643326332433     UFDNAM BCI     2,U.F.D.(FILE)
      00227  742631432534
      00230  443326332433     MFDNAM BCI     1,M.F.D.
                                     INSERT  DCMEQB
                              *
                              *  .  .  .  .  .  .  .  .  .  .  .  .  .  .  .  .  .  .
                              *    COMMON AND EQUIVALENCE FOR GENERAL DUMP PROGRAM
                              *  .  .  .  .  .  .  .  .  .  .  .  .  .  .  .  .  .  .
                              *
                      074446  DEMKEY BOOL    74446         CORE A LOCATION FOR DAEMON'S KEY SETTING
                      074624  SYSTIM BOOL    74624         CORE A LOCATION FOR SYSTEM  TIME
                      074623  SYSDAT BOOL    74623         CORE A LOCATION FOR SYSTEM INIT. DATE
                      076041  RCODE  BOOL    76041         CORE A LOCATION FOR RESTRICTION CODE VECTOR
                      074454  AUTOND BOOL    74454         CORE A AUTOMATIC LOGOUT INDICATOR
                      074532  NUSERS BOOL    74532         CORE A LOGGED-IN USER COUNT
                      076500  PROBN  BOOL    76500         CORE A PROBNO ARRAY
                      076305  UFDNM  BOOL    76305         CORE A UFDNM ARRAY
                      074672  PB     BOOL    74672         CORE A GUARANTEED PERCENTAGE VECTOR BASE
                       00050  N      EQU     40            CORE A MAX. NO. OF USERS (SIZE OF PROBN)
                              *
                      000017  BASE   BOOL    17            KEY CODE BASE
                      000001  I      BOOL    1             KEY CODE TO START INCREMENTAL DUMP
                      000002  PAUSE  BOOL    2             KEY CODE TO WAIT FOR 1 MIN.
                      000003  C      BOOL    3             KEY CODE TO DO COMPLETE DUMP
                      000004  AK     BOOL    4             KEY CODE FOR IMPENDING AUTOLOGOUT
                      000005  ENFLSH BOOL    5             KEY CODE TO ENTER FLUSH MODE
                      000006  LVFLSH BOOL    6             KEY CODE TO LEAVE FLUSH MODE
                      000007  ENDTAP BOOL    7             KEY CODE TO TERMINATE DUMP TAPE FILE
                      000010  INT    BOOL    10            SIMULATE INTERRUPT
                       00660  RECSIZ EQU     432           TAPE RECORD SIZE
                       00006   NX    EQU     6             MAX. NO. OF SYSTEM FILE OWNERS
                       00030  NCD    EQU     24            MAX. NO. 'DAYS' NON-USE OF CURRENT FILES
                       00014  DINC   EQU     12            NO. DAYS OF 'RECENCY' INCREMENT (C.DUMP)
                       01274  U      EQU     700           MAX. NO. USERS IN MFD USER LIST
                       03300  TBSIZ  EQU     4*RECSIZ      TAPE BUFFER SIZE
                       00007  ERYSIZ EQU     7             I/O SYSTEM ERROR ARRAY SIZE
                       00014  ERCODA EQU     12            'OPEN' ERROR CODE FOR FILE NOT FOUND
                       00016  ERCODB EQU     14            'OPEN' ERROR CODE RQSTD. DEVICE UNAVBLE
                       00660  NW     EQU     432           SIZE OF SECONDARY I/O FILE BUFFERS
                       00001  LSDRUM EQU     1             I/O SYSTEM DEVICE CODE FOR L.S.DRUM
                       00002    DISK EQU     2             I/O SYSTEM DEVICE CODE FOR DISK
                       00003   TAPE  EQU     3             I/O SYSTEM DEVICE CODE FOR TAPE
                       00030  NHOUR  EQU     24            NO. OF HOURS IN A 'DAY'
                       77461  KEYVAL COMMON  1             LAST KEY SETTING READ FROM SUPERVISOR
                       77460  FLSHSW COMMON  1             FLUSH MODE SWITCH
                       77457  ENTPSW COMMON  1             OPERATOR-REQUESTED-END-TAPE INDICATOR
                       77456  NMFDU  COMMON  1             NO. USERS CURRENTLY IN LIST
                       77455  EXEMPT COMMON  2*NX          LIST OF SYSTEM FILE OWNERS
                       77441  NXMPT  COMMON  1             NO. FILE USERS EXEMPT FROM DUMP IN DCYCLE
1            START DUMP TAPE FILE.....M.J.BAILEY,12/15/64                        05/11/69 2010.9 PAGE 5

                       77440  DTLD   COMMON  U             TIME LAST DUMPED FOR EACH USER
                       76144  PROGNO COMMON  U             PROGRAMMER NO. OF EACH USER
                       74650  PROBNO COMMON  U             PROBLEM NO. OF EACH USER
                       73354   FLUSH COMMON  1             NON-ZERO INDICATES FLUSH MODE IS FORCED
                       73353   TND   COMMON  1             TIME OF NEXT DUMP FOR CURRENT USER
                       70053         COMMON  TBSIZ-1       TAPE BUFFER
                       70053  TPBUF  COMMON  1             TAPE BUFFER 1ST WORD
                       64553         COMMON  TBSIZ-1       2ND TAPE BUFFER
                       64553  TPBUF2 COMMON  1             2ND TAPE BUFFER, 1ST WORD
                       64544         COMMON  ERYSIZ-1      ERROR ARRAY
                       64544  ERAY   COMMON  1             ERROR ARRAY 1ST WORD
                       64526         COMMON  13            PRINT BUFFER
                       64526   PBF   COMMON  1             PRINT BUFFER 1ST WORD
                       64510         COMMON  13            MFD ENTRY BUFFER
                       64510  MFDENT COMMON  1             MFD ENTRY BUFFER 1ST WORD
                       63630         COMMON  NW-1          SECONDARY I/0 FILE BUFFER
                       63630   IOBUF COMMON  1             SECONDARY IO BUFFER 1ST WORD
                       62750         COMMON  NW-1          SECONDARY I/O FILE BUFFER
                       62750  IOBUF2 COMMON  1             SECONDARY I/O BUFFER 1ST WORD
                       62747  UFDEOF COMMON  1             ZERO INDICATES EOF IN UFD FILE
                       62741         COMMON  5             PARTIAL UFD ENTRY BUFFER
                       62741  UFDENT COMMON  1             PARTIAL UFD ENTRY BUFFER 1ST WORD
                       62740   MFDC  COMMON  1             NEXT WORD TO BE READ FROM MFD FILE
                       62737   TLD   COMMON  1             TIME LAST DUMP OF USER CURRENTLY DUMPING
                       62736   UFDC  COMMON  1             NEXT UNREAD POS. OF UFDFILE (NORMALLY ZERO)
                       62735  MFDEOF COMMON  1             ZERO INDICATES EOF IN MFD FILE
                       62734   EOFCT COMMON  1             NO. OF WORDS READ BEFORE AN EOF
                       62733   FEOF  COMMON  1             ZERO INDICATES EOF IN A USER FILE
                       62732  EOFCTA COMMON  1             NO. OF WORDS BEFORE AN EOF
                       62731   DMPSW COMMON  1             NON-ZERO INDICATES A FILE HAS BEEN DUMPED
                       62730   DAWN  COMMON  1             TIME OF START OF 'DAY'
                       62727  DMPUSR COMMON  1             PROBLEM NO. OF DUMP/LOAD PACKAGE
                       62726  DMPRGR COMMON  1             PROGRAMMER NO. OF  DITTO.
                       62727  DU     EQU     DMPUSR
                       62726  DP     EQU     DMPRGR
                       62725   MFD1W COMMON  1             NO. OF 1ST GOOD WORD IN MFD AND UFD FILES
                       62723         COMMON  1             2ND PART OF DUMP TAPE FILE (COPY 1) NAME
                       62723  NFN1   COMMON  1             1ST PART OF DUMP TAPE FILE (COPY 1) NAME
                       62721         COMMON  1             2ND PART OF DUMP TAPE FILE (COPY 2) NAME
                       62721   NFN2  COMMON  1             1ST PART OF DUMP TAPE FILE (COPY 2) NAME
                       62720  TNDSW  COMMON  1             INDICATES TIME OF THIS DUMP CURRENT OR NO
                       62040         COMMON  RECSIZ-1      INTERNAL TAPE BUFFER
                       62040   ITB1  COMMON  1                ,,     ,,    ,,  1ST WORD
                       61160         COMMON  RECSIZ-1      INTERNAL TAPE BUFFER
                       61160   ITB2  COMMON  1                ,,     ,,  ,,  1ST WORD
                       61157   DUSK  COMMON  1             TIME OF END OF CURRENT 'DAY'
                       61156   ENDSW COMMON  1             IF 1, NORMAL END-OF-DAY,ELSE OPERATOR ONE
                       60276         COMMON  NW-1          INTERNAL BUFFER FOR 'MAP' FILE
                       60276    IMP  COMMON  1                ,,      ,,    ,,   ,,   ,,  1ST WORD
                       60267         COMMON  6             'MAP' FILE LINE PARAMETER ARRAY
                       60267  ARGLST COMMON  1               ,,   ,,   ,,      ,,      ,,  1ST WORD
                       60266  CDSW   COMMON  1             NON-ZERO DURING COMPLETE DUMP,ELSE ZERO
                       60265  DATE   COMMON  1             DATE THE DUMP NOW IN PROGRESS BEGAN
                       60264  TIME   COMMON  1             TIME DUMP NOW IN PROGRESS BEGAN
                       60263  TCYCLE COMMON  1             'TIME' OF LAST CYCLE ON DUMP TAPE FILE
                       60262  TFOSW  COMMON  1             NON-ZERO IF DUMP TAPE FILE IS OPEN
1            START DUMP TAPE FILE.....M.J.BAILEY,12/15/64                        05/11/69 2010.9 PAGE 6

                       60261  ALOG   COMMON  1             NON-ZERO IF AUTOLOGOUT ON
                       60260  SW1    COMMON  1
                       60257  TCP    COMMON  1
                       60256  TNDSAV COMMON  1
                       60255  ODAWN  COMMON  1             TIME OF START OF PREVIOUS 'DAY'
                       60244         COMMON  8             TAPE LABEL
                       60244  TAPEID COMMON  1             TAPE LABEL 1ST WORD
                       60243  SKELSW COMMON  1
                       60254  REELNO EQU     TAPEID+8
                                     END

        LITERALS
      00231  000000000000
      00232  000000000001
      00233  000000000002
      00234  000000000013
      00235  000000000014
      00236  000000000120
      00237  400000000000
      00240  622426000160
      00241  622426000260
1            START DUMP TAPE FILE.....M.J.BAILEY,12/15/64                        05/11/69 2010.9 PAGE 1
                        POST PROCESSOR ASSEMBLY DATA

       60242 IS THE LAST LOCATION NOT USED BY THIS PROGRAM
        242 IS THE FIRST LOCATION NOT USED BY THIS PROGRAM

0REFERENCES TO DEFINED SYMBOLS
          3      C   231
          1      I   231
         50      N   231
       1274      U   231
        221      W   113,  126
          4     AK   231
      62726     DP   231
      62727     DU   231
        225     L4    60,  110
        660     NW   231
          6     NX   231
      74672     PB   231
         12    GDT   157
        121    IDO
        134    IDP
        147    IDX   151
      60276    IMP   231
         10    INT   231
         30    NCD   231
      64526    PBF   231
         20    SDF     0
        205    SDY    20
        206    SDZ    21
      60260    SW1   231
      60257    TCP   231
      62737    TLD   231
      73353    TND   231
      60261   ALOG   231
         17   BASE   231
         14   BERM   210,  214
      60266   CDSW   231
      60265   DATE   156,  231
      62730   DAWN   231
         14   DINC   231
          2   DISK   231
      77440   DTLD   231
      61157   DUSK   231
      64544   ERAY   231
      62733   FEOF   231
        112   IDNA   213
        125   IDOA   217
      62040   ITB1   124,  231
      61160   ITB2   137,  231
      62740   MFDC   231
      62723   NFN1    33,   34,   42,   43,   46,   47,  114,  115,  122,  123,  231
      62721   NFN2    63,   64,   72,   73,   76,   77,  127,  130,  135,  136,  231
          6   OPEN   112,  125
         55   SDFA    24
        105   SDFC    25
          3   TAPE   220,  231
1            START DUMP TAPE FILE.....M.J.BAILEY,12/15/64                        05/11/69 2010.9 PAGE 2
                        POST PROCESSOR ASSEMBLY DATA

      60264   TIME   154,  231
      62736   UFDC   231
         13   WRNF   202
      62731  DMPSW   231
      61156  ENDSW   231
      62734  EOFCT   231
      73354  FLUSH   231
         10  GDSIG    26
      63630  IOBUF   231
          5  LABEL    56,  106
        222  LITB1   124
        223  LITB2   137
        224  LRSIZ   165,  204
        220  LTAPE   117,  132
      62725  MFD1W   231
          4  MOUNT    52,  102
         30  NHOUR   231
      77456  NMFDU   231
      77441  NXMPT   231
      60255  ODAWN   231
          2  PAUSE   231
      76500  PROBN   231
      76041  RCODE   231
       3300  TBSIZ   231
      60262  TFOSW   140,  142,  231
      62720  TNDSW   231
      70053  TPBUF   144,  150,  153,  155,  160,  162,  174,  175,  203,  231
      76305  UFDNM   231
      60267 ARGLST   231
          1 ATTACH    27
      74454 AUTOND   231
         11 BCDDTM   152
          0 BUFFER   121,  134
          2 CHFILE    32,   62
          7 DELFIL    41,   71
      74446 DEMKEY   231
      62726 DMPRGR    31,  231
      62727 DMPUSR    30,  231
          7 ENDTAP   231
          5 ENFLSH   231
      77457 ENTPSW   231
      62732 EOFCTA   231
         14 ERCODA   231
         16 ERCODB   231
         15 ERREND   212,  216
        210 ERRID4   120
        214 ERRID5   133
          7 ERYSIZ   231
      77455 EXEMPT   231
      77460 FLSHSW   231
      62750 IOBUF2   231
      77461 KEYVAL   231
          1 LSDRUM   231
          6 LVFLSH   231
      64510 MFDENT   231
1            START DUMP TAPE FILE.....M.J.BAILEY,12/15/64                        05/11/69 2010.9 PAGE 3
                        POST PROCESSOR ASSEMBLY DATA

      62735 MFDEOF   231
        230 MFDNAM
      74532 NUSERS   231
      74650 PROBNO   231
      76144 PROGNO   231
        660 RECSIZ   143,  144,  175,  222,  223,  224,  231
      60254 REELNO    22,  231
      60243 SKELSW   231
      74623 SYSDAT   231
      74624 SYSTIM   231
      60244 TAPEID    60,  110,  147,  163,  231
          3 TAPFIL    45,   75
      60263 TCYCLE   231
      60256 TNDSAV   231
      64553 TPBUF2   231
      62741 UFDENT   231
      62747 UFDEOF   231
        226 UFDNAM

0 NO ERROR IN ABOVE ASSEMBLY.
1            ROUTINES FOR GENERAL ERROR PROCESSING....M.J.BAILEY,11/1/64         05/11/69 2011.2 PAGE 1

                              *
                              *
                       00005         ENTRY   CKCODE        CHECK FOR A PARTICULAR ERROR
                       00022         ENTRY   BERM          PRINT STANDARD BEGINNING TO ERROR MESSAGE
                       00064         ENTRY   ERREND        PRINT ERROR CODE AND TERMINATE MESSAGE
                              *
                                     EXTERN  WRFLX,IODIAG
                              *
                                     INSERT  DMCRSA
                              *
                              *      MACRO TO WRITE N WORDS FROM ARRAY ET SEQ ONTO ALREADY OPENED
                              *      SECONDARY STORAGE FILE (NAME1,NAME2) AND WAIT UNTIL TRANSMITTED.
                              *
                               WSSF  MACRO   ARRAY,N,NAME1,NAME2
                                     TSX     ATTACH,4      RE-ATTACH TO DUMPER'S FILES
                                     TXH     DMPUSR
                                     TXH     DMPRGR
                                     TSX     WRFILE,4      WRITE
                                     TXH     NAME1         ONTO (NAME1,
                                     TXH     NAME2         NAME2)
                                     TXH     =0            AT POSITION WHERE LAST CEASED
                                     TIX     ARRAY,,N      FROM ARRAY THROUGH ARRAY+N-1
                                     TSX     FWAIT,4       WAIT
                                     TXH     NAME1
                                     TXH     NAME2
                               WSSF  END
                              *
                              *  ZERO-IZE A THROUGH A+X-1
                              *
                               CLEAR MACRO   A,X
                                     AXT     X,1
                                     STZ     A+X,1
                                     TIX     *-1,1,1
                               CLEAR END
                              *
                              *      MOVE X WORDS FROM A ET SEQ TO B ET SEQ
                              *
                               MOVE  MACRO   X,A,B
                                     AXT     X,1
                                     CAL     A+X,1
                                     SLW     B+X,1
                                     TIX     *-2,1,1
                               MOVE  END
                              *
                              *      PRINT ONE LINE, CLEAR BUFFER
                              *
                              PRBUFF MACRO   BUFF,NWDS
                                     SXA     *+3,4
                                     TSX     WRFLX,4
                                             BUFF,,NWDS
                                     AXT     **,4
                                     CLEAR   BUFF,NWDS
                              PRBUFF END
                              *
                              *      PRINT STANDARD BEGINNING TO DUMPER ERROR MESSAGE
                              *
1            ROUTINES FOR GENERAL ERROR PROCESSING....M.J.BAILEY,11/1/64         05/11/69 2011.2 PAGE 2

                              BGNERM MACRO   TYPE
                                     SXA     *+3,4
                                     TSX     $BERM,4
                                     PZE     TYPE
                                     AXT     **,4
                              BGNERM END
                              *
                              *  PRINT ONE LINE COMMENT
                              *
                              PRLINE MACRO   COMNT,NWC,N,WORD1,WORD2,LOC
                                     IFF     0,NWC,0
                                     MOVE    NWC,LOC,PBF
                                     IFF     N-2,N,1
                                     CAL     WORD1
                                     IFF     N-2,N,1
                                     SLW     PBF+NWC
                                     IFF     1,N,2
                                     CAL     WORD2
                                     IFF     1,N,2
                                     SLW     PBF+NWC+1
                                     PRBUFF  PBF,NWC+N
                                     RMT
                               LOC   BCI     NWC,COMNT
                                     RMT
                              PRLINE END
                              *
                              *      PRINT ONE LINE MESSAGE
                              *
                              PRMESS MACRO   MESNAM,N,ADR1,ADR2
                                     TSX     $PRLINE,4
                                     BCI     1,MESNAM
                                     IFF     N,N,N
                                     TXH     ADR1
                                     IFF     N,N,N
                                     TXH     ADR2
                              PRMESS END
                              *
                              *      MACRO TO OPEN FILE (X,Y) OF USER (A,B) FOR READING
                              *      AND ASSIGN BUFFER F OF LENGTH L TO I/O SYSTEM FOR THAT PURPOSE.
                              *        ( ERR IS TRANSFER ADDRESS FOR ERROR RETURN )
                              *
                              RDOPEN MACRO   X,Y,A,B,F,L,ERR
                                     TSX     ATTACH,4      ATTACH TO USER (A,B)
                                     TXH     A
                                     TXH     B
                                     TSX     OPEN,4        OPEN FILE (X,Y) FOR READING
                                     TXH     R
                                     TXH     X
                                     TXH     Y
                                     TXH     =0
                                     TXH     =0
                                     TXH     ERR           (TRANSFER ADDRESS FOR ERROR)
                                     TSX     BUFFER,4      ASSIGN L WORDS OF BUFFER F TO (X,Y)
                                     TXH     X
                                     TXH     Y
                                     TIX     F,,L
1            ROUTINES FOR GENERAL ERROR PROCESSING....M.J.BAILEY,11/1/64         05/11/69 2011.2 PAGE 3

                              RDOPEN END
                              *
                              *      PRINT ERROR CODE, END MESSAGE
                              *
                                ERTN MACRO   ADRERR
                                     SXA     *+2,4
                                     TSX     $ERREND,4
                                     AXT     **,4
                                     TRA     ADRERR
                                ERTN END
                              *
                              *      ASK OPERATOR TO SET KEY CODE DC IF HE WANTS
                              *      ACTION GIVEN BY N-WORD MESSAGE M
                              *
                              PRCODE MACRO   DC,M,N
                                     TSX     $PRCODE,4
                                     TXH     DC
                                     TXH     M,,N
                              PRCODE END
                              *
                              *      TEST LAST KEY SETTING VIA SUPERVISOR, GO TO JUMP IF IT IS CODE
                              *
                              TESTKY MACRO   CODE,JUMP
                                     TSX     $NGETA,7
                                     LDQ     DEMKEY
                                     STQ     KEYVAL
                                     AXT     CODE,1
                                     PXA     0,1
                                     SUB     KEYVAL
                                     TZE     JUMP
                              TESTKY END
                              *
                              *      SET UP LOGICAL TAPE RECORD WRITING
                              *
                              LOGREC MACRO   X
                                     CLA     LTPBF
                                     SUB     =12
                                     STO     TEMP
                                     CAL     X+4
                                     ANA     =O77777
                                     STO     RCOUNT
                                     TSX     $NLREC,4
                                     TXH     NORECS
                                     TXH     RCOUNT
                                     TXH     LCOUNT
                                     TXH     TEMP
                                     TXH     =12
                                     TXH     PHYSRC
                                     TXH     NFLR
                                     TXH     NLAST
                              LOGREC END
                              *
                              *
                              ATTACH MACRO   A,B
                                     TSX     ATTACH,4
                                     TXH     A
1            ROUTINES FOR GENERAL ERROR PROCESSING....M.J.BAILEY,11/1/64         05/11/69 2011.2 PAGE 4

                                     TXH     B
                              ATTACH END
                              *
                              *      PRINT ERROR MESSAGE AND INTERROGATE KEYS
                              *
                              PRERR  MACRO
                                     TSX     $PRNTER,4
                                     TSX     $GDSIG,4
                              PRERR  END
                              *
                              *
                              *  .  .  .  .  .  .  .  .  .  .  .  .  .  .  .  .  .  .  .  .  .
                              *      CHECK FOR OCCURRENCE OF I/O SYSTEM ERROR DEFINED BY
                              *      THE ERROR CODE GIVEN BY (2,4), IN THE I/O SYSTEM ENTRY
                              *      GIVEN BY (1,4). IF IT HAS OCCURRED, RETURN TO (4,4),
                              *      OTHERWISE TRANSFER TO LOCATION CONTAINED IN (3,4).
                              *  .  .  .  .  .  .  .  .  .  .  .  .  .  .  .  .  .  .  .  .  .
                              *

        TRANSFER VECTOR
      00000  665126436760     WRFLX
      00001  314624312127     IODIAG
      00002  222324246344     BCDDTM

            LINKAGE DIRECTOR
      00003  000000000000
      00004  234223462425

      00005  0634 00 4 00010  CKCODE SXA     *+3,4
      00006  0074 00 4 00001         TSX     IODIAG,4
      00007  2 00214 0 64544         TIX     ERAY,,LERAY
      00010  0774 00 4 00000         AXT     **,4
      00011 -0500 00 4 00001         CAL     1,4           (NAME OF OFFENDING I/O SYSTEM ENTRY)
      00012 -0340 00 0 64545         LAS     ERAY+1
      00013  0020 60 4 00003         TRA*    3,4           NO MATCH, EXIT
      00014  0020 00 0 00016         TRA     *+2
      00015  0020 60 4 00003         TRA*    3,4           NO MATCH, EXIT
      00016  0500 00 0 64546         CLA     ERAY+2
      00017  0402 00 4 00002         SUB     2,4           (ERROR CODE)
      00020  0100 00 4 00004         TZE     4,4           SUCCESSFUL MATCH,EXIT
      00021  0020 60 4 00003         TRA*    3,4           NO MATCH, EXIT
                              *
                              *  .  .  .  .  .  .  .  .  .  .  .  .  .  .  .  .  .  .  .  .  .  .  .
                              *  PRINT STANDARD BEGINNING TO ERROR MESSAGE, WITH CURRENT DATE/TIME
                              *  .  .  .  .  .  .  .  .  .  .  .  .  .  .  .  .  .  .  .  .  .  .  .
                              *
      00022  0634 00 1 00061    BERM SXA     BMX1,1
      00023  0634 00 4 00062         SXA     BMX4,4
      00024                          MOVE    6,ERRHD,PBF
      00024  0774 00 1 00006         AXT     6,1                                                              .001
      00025 -0500 00 1 00214         CAL     ERRHD+6,1                                                        .001
      00026  0602 00 1 64534         SLW     PBF+6,1                                                          .001
      00027  2 00001 1 00025         TIX     *-2,1,1                                                          .001
      00030 -0500 60 4 00001         CAL*    1,4
      00031  0602 00 0 64534         SLW     PBF+6
      00032 -0500 00 0 00226         CAL     =H
1            ROUTINES FOR GENERAL ERROR PROCESSING....M.J.BAILEY,11/1/64         05/11/69 2011.2 PAGE 5

      00033  0602 00 0 64535         SLW     PBF+7
      00034  0074 00 4 00002         TSX     $BCDDTM,4
      00035  0602 00 0 64536         SLW     PBF+8
      00036 -0500 00 0 00226         CAL     =H
      00037  0602 00 0 64537         SLW     PBF+9
      00040 -0763 00 0 00014         LGL     12
      00041  0767 00 0 00006         ALS     6
      00042 -0501 00 0 00223         ORA     =H00000/
      00043 -0763 00 0 00014         LGL     12
      00044  0767 00 0 00006         ALS     6
      00045 -0501 00 0 00223         ORA     =H00000/
      00046  0602 00 0 64540         SLW     PBF+10
      00047 -0130 00 0 00000         XCL
      00050 -0501 00 0 00224         ORA     =H00
      00051  0602 00 0 64541         SLW     PBF+11
      00052                          PRBUFF  PBF,12
      00052  0634 00 4 00055         SXA     *+3,4                                                            .001
      00053  0074 00 4 00000         TSX     WRFLX,4                                                          .001
      00054  0 00014 0 64526                 PBF,,12                                                          .001
      00055  0774 00 4 00000         AXT     **,4                                                             .001
      00056                          CLEAR   PBF,12                                                           .001
      00056  0774 00 1 00014         AXT     12,1                                                             .002
      00057  0600 00 1 64542         STZ     PBF+12,1                                                         .002
      00060  2 00001 1 00057         TIX     *-1,1,1                                                          .002
      00061  0774 00 1 00000   BMX1  AXT     **,1
      00062  0774 00 4 00000   BMX4  AXT     **,4
      00063  0020 00 4 00002         TRA     2,4
                              *
                              *  .  .  .  .  .  .  .  .  .  .  .  .  .  .  .  .  .  .  .  .  .  .
                              *      PRINT ERROR CODE AND STANDARD ERROR MESSAGE ENDING
                              *  .  .  .  .  .  .  .  .  .  .  .  .  .  .  .  .  .  .  .  .  .  .
                              *
      00064  0634 00 4 00175  ERREND SXA     ERND4,4
      00065  0634 00 1 00176         SXA     ERND1,1
      00066  0074 00 4 00001         TSX     IODIAG,4
      00067  2 00214 0 64544         TIX     ERAY,,LERAY
      00070 -0500 00 0 64546         CAL     ERAY+2
      00071 -0765 00 0 00003         LGR     3
      00072  0767 00 0 00003         ALS     3
      00073 -0763 00 0 00003         LGL     3
      00074  0560 00 0 00225         LDQ     =H OCT
      00075 -0763 00 0 00030         LGL     24
      00076  0602 00 0 00200         SLW     ERTEMP
      00077                          PRLINE  ( CODE ),1,2,ERAY+1,ERTEMP
      00077                          MOVE    1,..001,PBF                                                      .001
      00077  0774 00 1 00001         AXT     1,1                                                              .002
      00100 -0500 00 1 00216         CAL     ..001+1,1                                                        .002
      00101  0602 00 1 64527         SLW     PBF+1,1                                                          .002
      00102  2 00001 1 00100         TIX     *-2,1,1                                                          .002
      00103 -0500 00 0 64545         CAL     ERAY+1                                                           .001
      00104  0602 00 0 64527         SLW     PBF+1                                                            .001
      00105 -0500 00 0 00200         CAL     ERTEMP                                                           .001
      00106  0602 00 0 64530         SLW     PBF+1+1                                                          .001
      00107                          PRBUFF  PBF,1+2                                                          .001
      00107  0634 00 4 00112         SXA     *+3,4                                                            .002
      00110  0074 00 4 00000         TSX     WRFLX,4                                                          .002
1            ROUTINES FOR GENERAL ERROR PROCESSING....M.J.BAILEY,11/1/64         05/11/69 2011.2 PAGE 6

      00111  0 00003 0 64526                 PBF,,1+2                                                         .002
      00112  0774 00 4 00000         AXT     **,4                                                             .002
      00113                          CLEAR   PBF,1+2                                                          .002
      00113  0774 00 1 00003         AXT     1+2,1                                                            .003
      00114  0600 00 1 64531         STZ     PBF+1+2,1                                                        .003
      00115  2 00001 1 00114         TIX     *-1,1,1                                                          .003
                                     RMT                                                                      .001
                              ..001  BCI     1, CODE                                                          .001
                                     RMT                                                                      .001
      00116 -0500 00 0 64547         CAL     ERAY+3        I/O ERROR TYPE
      00117  0100 00 0 00143         TZE     ERA           SKIP IF NOT I/O ERROR
      00120 -0765 00 0 00003         LGR     3
      00121  0767 00 0 00003         ALS     3
      00122 -0763 00 0 00003         LGL     3
      00123  0560 00 0 00225         LDQ     =H OCT
      00124 -0763 00 0 00030         LGL     24
      00125  0602 00 0 00200         SLW     ERTEMP
      00126                          PRLINE  ( I/O ERROR TYPE  ),3,1,ERTEMP
      00126                          MOVE    3,..003,PBF                                                      .001
      00126  0774 00 1 00003         AXT     3,1                                                              .002
      00127 -0500 00 1 00221         CAL     ..003+3,1                                                        .002
      00130  0602 00 1 64531         SLW     PBF+3,1                                                          .002
      00131  2 00001 1 00127         TIX     *-2,1,1                                                          .002
      00132 -0500 00 0 00200         CAL     ERTEMP                                                           .001
      00133  0602 00 0 64531         SLW     PBF+3                                                            .001
      00134                          PRBUFF  PBF,3+1                                                          .001
      00134  0634 00 4 00137         SXA     *+3,4                                                            .002
      00135  0074 00 4 00000         TSX     WRFLX,4                                                          .002
      00136  0 00004 0 64526                 PBF,,3+1                                                         .002
      00137  0774 00 4 00000         AXT     **,4                                                             .002
      00140                          CLEAR   PBF,3+1                                                          .002
      00140  0774 00 1 00004         AXT     3+1,1                                                            .003
      00141  0600 00 1 64532         STZ     PBF+3+1,1                                                        .003
      00142  2 00001 1 00141         TIX     *-1,1,1                                                          .003
                                     RMT                                                                      .001
                              ..003  BCI     3, I/O ERROR TYPE                                                .001
                                     RMT                                                                      .001
      00143                   ERA    PRLINE  ( FILE NAME  ),2,2,ERAY+4,ERAY+5
      00143                          MOVE    2,..004,PBF                                                      .001
      00143  0774 00 1 00002         AXT     2,1                                                              .002
      00144 -0500 00 1 00223         CAL     ..004+2,1                                                        .002
      00145  0602 00 1 64530         SLW     PBF+2,1                                                          .002
      00146  2 00001 1 00144         TIX     *-2,1,1                                                          .002
      00147 -0500 00 0 64550         CAL     ERAY+4                                                           .001
      00150  0602 00 0 64530         SLW     PBF+2                                                            .001
      00151 -0500 00 0 64551         CAL     ERAY+5                                                           .001
      00152  0602 00 0 64531         SLW     PBF+2+1                                                          .001
      00153                          PRBUFF  PBF,2+2                                                          .001
      00153  0634 00 4 00156         SXA     *+3,4                                                            .002
      00154  0074 00 4 00000         TSX     WRFLX,4                                                          .002
      00155  0 00004 0 64526                 PBF,,2+2                                                         .002
      00156  0774 00 4 00000         AXT     **,4                                                             .002
      00157                          CLEAR   PBF,2+2                                                          .002
      00157  0774 00 1 00004         AXT     2+2,1                                                            .003
      00160  0600 00 1 64532         STZ     PBF+2+2,1                                                        .003
      00161  2 00001 1 00160         TIX     *-1,1,1                                                          .003
1            ROUTINES FOR GENERAL ERROR PROCESSING....M.J.BAILEY,11/1/64         05/11/69 2011.2 PAGE 7

                                     RMT                                                                      .001
                              ..004  BCI     2, FILE NAME                                                     .001
                                     RMT                                                                      .001
      00162                          MOVE    5,ERSTAT,PBF
      00162  0774 00 1 00005         AXT     5,1                                                              .001
      00163 -0500 00 1 00206         CAL     ERSTAT+5,1                                                       .001
      00164  0602 00 1 64533         SLW     PBF+5,1                                                          .001
      00165  2 00001 1 00163         TIX     *-2,1,1                                                          .001
      00166                          PRBUFF  PBF,5
      00166  0634 00 4 00171         SXA     *+3,4                                                            .001
      00167  0074 00 4 00000         TSX     WRFLX,4                                                          .001
      00170  0 00005 0 64526                 PBF,,5                                                           .001
      00171  0774 00 4 00000         AXT     **,4                                                             .001
      00172                          CLEAR   PBF,5                                                            .001
      00172  0774 00 1 00005         AXT     5,1                                                              .002
      00173  0600 00 1 64533         STZ     PBF+5,1                                                          .002
      00174  2 00001 1 00173         TIX     *-1,1,1                                                          .002
      00175  0774 00 4 00000  ERND4  AXT     **,4
      00176  0774 00 1 00000  ERND1  AXT     **,1
      00177  0020 00 4 00001         TRA     1,4
      00200  0 00000 0 00000  ERTEMP PZE
                              *
      00201  606270626325     ERSTAT BCI     5, SYSTEM OR MACHINE ERROR.
      00202  446046516044
      00203  212330314525
      00204  602551514651
      00205  336060606060
      00206  606027254525     ERRHD  BCI     6,  GENERAL DUMP PROGRAM ERROR, TYPE
      00207  512143602464
      00210  444760475146
      00211  275121446025
      00212  515146517360
      00213  637047256060
      00214  0 00000 0 00007  LERAY  PZE     ERYSIZ        SIZE OF ERROR ARRAY
                              *
                                     INSERT  DCMEQB
                              *
                              *  .  .  .  .  .  .  .  .  .  .  .  .  .  .  .  .  .  .
                              *    COMMON AND EQUIVALENCE FOR GENERAL DUMP PROGRAM
                              *  .  .  .  .  .  .  .  .  .  .  .  .  .  .  .  .  .  .
                              *
                      074446  DEMKEY BOOL    74446         CORE A LOCATION FOR DAEMON'S KEY SETTING
                      074624  SYSTIM BOOL    74624         CORE A LOCATION FOR SYSTEM  TIME
                      074623  SYSDAT BOOL    74623         CORE A LOCATION FOR SYSTEM INIT. DATE
                      076041  RCODE  BOOL    76041         CORE A LOCATION FOR RESTRICTION CODE VECTOR
                      074454  AUTOND BOOL    74454         CORE A AUTOMATIC LOGOUT INDICATOR
                      074532  NUSERS BOOL    74532         CORE A LOGGED-IN USER COUNT
                      076500  PROBN  BOOL    76500         CORE A PROBNO ARRAY
                      076305  UFDNM  BOOL    76305         CORE A UFDNM ARRAY
                      074672  PB     BOOL    74672         CORE A GUARANTEED PERCENTAGE VECTOR BASE
                       00050  N      EQU     40            CORE A MAX. NO. OF USERS (SIZE OF PROBN)
                              *
                      000017  BASE   BOOL    17            KEY CODE BASE
                      000001  I      BOOL    1             KEY CODE TO START INCREMENTAL DUMP
                      000002  PAUSE  BOOL    2             KEY CODE TO WAIT FOR 1 MIN.
                      000003  C      BOOL    3             KEY CODE TO DO COMPLETE DUMP
1            ROUTINES FOR GENERAL ERROR PROCESSING....M.J.BAILEY,11/1/64         05/11/69 2011.2 PAGE 8

                      000004  AK     BOOL    4             KEY CODE FOR IMPENDING AUTOLOGOUT
                      000005  ENFLSH BOOL    5             KEY CODE TO ENTER FLUSH MODE
                      000006  LVFLSH BOOL    6             KEY CODE TO LEAVE FLUSH MODE
                      000007  ENDTAP BOOL    7             KEY CODE TO TERMINATE DUMP TAPE FILE
                      000010  INT    BOOL    10            SIMULATE INTERRUPT
                       00660  RECSIZ EQU     432           TAPE RECORD SIZE
                       00006   NX    EQU     6             MAX. NO. OF SYSTEM FILE OWNERS
                       00030  NCD    EQU     24            MAX. NO. 'DAYS' NON-USE OF CURRENT FILES
                       00014  DINC   EQU     12            NO. DAYS OF 'RECENCY' INCREMENT (C.DUMP)
                       01274  U      EQU     700           MAX. NO. USERS IN MFD USER LIST
                       03300  TBSIZ  EQU     4*RECSIZ      TAPE BUFFER SIZE
                       00007  ERYSIZ EQU     7             I/O SYSTEM ERROR ARRAY SIZE
                       00014  ERCODA EQU     12            'OPEN' ERROR CODE FOR FILE NOT FOUND
                       00016  ERCODB EQU     14            'OPEN' ERROR CODE RQSTD. DEVICE UNAVBLE
                       00660  NW     EQU     432           SIZE OF SECONDARY I/O FILE BUFFERS
                       00001  LSDRUM EQU     1             I/O SYSTEM DEVICE CODE FOR L.S.DRUM
                       00002    DISK EQU     2             I/O SYSTEM DEVICE CODE FOR DISK
                       00003   TAPE  EQU     3             I/O SYSTEM DEVICE CODE FOR TAPE
                       00030  NHOUR  EQU     24            NO. OF HOURS IN A 'DAY'
                       77461  KEYVAL COMMON  1             LAST KEY SETTING READ FROM SUPERVISOR
                       77460  FLSHSW COMMON  1             FLUSH MODE SWITCH
                       77457  ENTPSW COMMON  1             OPERATOR-REQUESTED-END-TAPE INDICATOR
                       77456  NMFDU  COMMON  1             NO. USERS CURRENTLY IN LIST
                       77455  EXEMPT COMMON  2*NX          LIST OF SYSTEM FILE OWNERS
                       77441  NXMPT  COMMON  1             NO. FILE USERS EXEMPT FROM DUMP IN DCYCLE
                       77440  DTLD   COMMON  U             TIME LAST DUMPED FOR EACH USER
                       76144  PROGNO COMMON  U             PROGRAMMER NO. OF EACH USER
                       74650  PROBNO COMMON  U             PROBLEM NO. OF EACH USER
                       73354   FLUSH COMMON  1             NON-ZERO INDICATES FLUSH MODE IS FORCED
                       73353   TND   COMMON  1             TIME OF NEXT DUMP FOR CURRENT USER
                       70053         COMMON  TBSIZ-1       TAPE BUFFER
                       70053  TPBUF  COMMON  1             TAPE BUFFER 1ST WORD
                       64553         COMMON  TBSIZ-1       2ND TAPE BUFFER
                       64553  TPBUF2 COMMON  1             2ND TAPE BUFFER, 1ST WORD
                       64544         COMMON  ERYSIZ-1      ERROR ARRAY
                       64544  ERAY   COMMON  1             ERROR ARRAY 1ST WORD
                       64526         COMMON  13            PRINT BUFFER
                       64526   PBF   COMMON  1             PRINT BUFFER 1ST WORD
                       64510         COMMON  13            MFD ENTRY BUFFER
                       64510  MFDENT COMMON  1             MFD ENTRY BUFFER 1ST WORD
                       63630         COMMON  NW-1          SECONDARY I/0 FILE BUFFER
                       63630   IOBUF COMMON  1             SECONDARY IO BUFFER 1ST WORD
                       62750         COMMON  NW-1          SECONDARY I/O FILE BUFFER
                       62750  IOBUF2 COMMON  1             SECONDARY I/O BUFFER 1ST WORD
                       62747  UFDEOF COMMON  1             ZERO INDICATES EOF IN UFD FILE
                       62741         COMMON  5             PARTIAL UFD ENTRY BUFFER
                       62741  UFDENT COMMON  1             PARTIAL UFD ENTRY BUFFER 1ST WORD
                       62740   MFDC  COMMON  1             NEXT WORD TO BE READ FROM MFD FILE
                       62737   TLD   COMMON  1             TIME LAST DUMP OF USER CURRENTLY DUMPING
                       62736   UFDC  COMMON  1             NEXT UNREAD POS. OF UFDFILE (NORMALLY ZERO)
                       62735  MFDEOF COMMON  1             ZERO INDICATES EOF IN MFD FILE
                       62734   EOFCT COMMON  1             NO. OF WORDS READ BEFORE AN EOF
                       62733   FEOF  COMMON  1             ZERO INDICATES EOF IN A USER FILE
                       62732  EOFCTA COMMON  1             NO. OF WORDS BEFORE AN EOF
                       62731   DMPSW COMMON  1             NON-ZERO INDICATES A FILE HAS BEEN DUMPED
                       62730   DAWN  COMMON  1             TIME OF START OF 'DAY'
1            ROUTINES FOR GENERAL ERROR PROCESSING....M.J.BAILEY,11/1/64         05/11/69 2011.2 PAGE 9

                       62727  DMPUSR COMMON  1             PROBLEM NO. OF DUMP/LOAD PACKAGE
                       62726  DMPRGR COMMON  1             PROGRAMMER NO. OF  DITTO.
                       62727  DU     EQU     DMPUSR
                       62726  DP     EQU     DMPRGR
                       62725   MFD1W COMMON  1             NO. OF 1ST GOOD WORD IN MFD AND UFD FILES
                       62723         COMMON  1             2ND PART OF DUMP TAPE FILE (COPY 1) NAME
                       62723  NFN1   COMMON  1             1ST PART OF DUMP TAPE FILE (COPY 1) NAME
                       62721         COMMON  1             2ND PART OF DUMP TAPE FILE (COPY 2) NAME
                       62721   NFN2  COMMON  1             1ST PART OF DUMP TAPE FILE (COPY 2) NAME
                       62720  TNDSW  COMMON  1             INDICATES TIME OF THIS DUMP CURRENT OR NO
                       62040         COMMON  RECSIZ-1      INTERNAL TAPE BUFFER
                       62040   ITB1  COMMON  1                ,,     ,,    ,,  1ST WORD
                       61160         COMMON  RECSIZ-1      INTERNAL TAPE BUFFER
                       61160   ITB2  COMMON  1                ,,     ,,  ,,  1ST WORD
                       61157   DUSK  COMMON  1             TIME OF END OF CURRENT 'DAY'
                       61156   ENDSW COMMON  1             IF 1, NORMAL END-OF-DAY,ELSE OPERATOR ONE
                       60276         COMMON  NW-1          INTERNAL BUFFER FOR 'MAP' FILE
                       60276    IMP  COMMON  1                ,,      ,,    ,,   ,,   ,,  1ST WORD
                       60267         COMMON  6             'MAP' FILE LINE PARAMETER ARRAY
                       60267  ARGLST COMMON  1               ,,   ,,   ,,      ,,      ,,  1ST WORD
                       60266  CDSW   COMMON  1             NON-ZERO DURING COMPLETE DUMP,ELSE ZERO
                       60265  DATE   COMMON  1             DATE THE DUMP NOW IN PROGRESS BEGAN
                       60264  TIME   COMMON  1             TIME DUMP NOW IN PROGRESS BEGAN
                       60263  TCYCLE COMMON  1             'TIME' OF LAST CYCLE ON DUMP TAPE FILE
                       60262  TFOSW  COMMON  1             NON-ZERO IF DUMP TAPE FILE IS OPEN
                       60261  ALOG   COMMON  1             NON-ZERO IF AUTOLOGOUT ON
                       60260  SW1    COMMON  1
                       60257  TCP    COMMON  1
                       60256  TNDSAV COMMON  1
                       60255  ODAWN  COMMON  1             TIME OF START OF PREVIOUS 'DAY'
                       60244         COMMON  8             TAPE LABEL
                       60244  TAPEID COMMON  1             TAPE LABEL 1ST WORD
                       60243  SKELSW COMMON  1
                       60254  REELNO EQU     TAPEID+8
                                     END
                                              REMOTE SEQUENCES
      00215  602346242560     ..001  BCI     1, CODE                                                          .001
      00216  603161466025     ..003  BCI     3, I/O ERROR TYPE                                                .001
      00217  515146516063
      00220  704725606060
      00221  602631432560     ..004  BCI     2, FILE NAME                                                     .001
      00222  452144256060

        LITERALS
      00223  000000000061
      00224  000060606060
      00225  604623636060
      00226  606060606060
1            ROUTINES FOR GENERAL ERROR PROCESSING....M.J.BAILEY,11/1/64         05/11/69 2011.2 PAGE 1
                        POST PROCESSOR ASSEMBLY DATA

       60242 IS THE LAST LOCATION NOT USED BY THIS PROGRAM
        227 IS THE FIRST LOCATION NOT USED BY THIS PROGRAM

0REFERENCES TO DEFINED SYMBOLS
          3      C   215
          1      I   215
         50      N   215
       1274      U   215
          4     AK   215
      62726     DP   215
      62727     DU   215
        660     NW   215
          6     NX   215
      74672     PB   215
        143    ERA   117
      60276    IMP   215
         10    INT   215
         30    NCD   215
      64526    PBF    26,   31,   33,   35,   37,   46,   51,   54,   57,  101,  104,  106,  111,  114,  130,  133,  136
                     141,  145,  150,  152,  155,  160,  164,  170,  173,  215
      60260    SW1   215
      60257    TCP   215
      62737    TLD   215
      73353    TND   215
      60261   ALOG   215
         17   BASE   215
         22   BERM     0
         61   BMX1    22
         62   BMX4    23
      60266   CDSW   215
      60265   DATE   215
      62730   DAWN   215
         14   DINC   215
          2   DISK   215
      77440   DTLD   215
      61157   DUSK   215
      64544   ERAY     7,   12,   16,   67,   70,  103,  116,  147,  151,  215
      62733   FEOF   215
      62040   ITB1   215
      61160   ITB2   215
      62740   MFDC   215
      62723   NFN1   215
      62721   NFN2   215
          3   TAPE   215
      60264   TIME   215
      62736   UFDC   215
      62731  DMPSW   215
      61156  ENDSW   215
      62734  EOFCT   215
        176  ERND1    65
        175  ERND4    64
        206  ERRHD    25
      73354  FLUSH   215
      63630  IOBUF   215
1            ROUTINES FOR GENERAL ERROR PROCESSING....M.J.BAILEY,11/1/64         05/11/69 2011.2 PAGE 2
                        POST PROCESSOR ASSEMBLY DATA

        215  ..001   100
        216  ..003   127
        221  ..004   144
        214  LERAY     7,   67
      62725  MFD1W   215
         30  NHOUR   215
      77456  NMFDU   215
      77441  NXMPT   215
      60255  ODAWN   215
          2  PAUSE   215
      76500  PROBN   215
      76041  RCODE   215
       3300  TBSIZ   215
      60262  TFOSW   215
      62720  TNDSW   215
      70053  TPBUF   215
      76305  UFDNM   215
          0  WRFLX    53,  110,  135,  154,  167
      60267 ARGLST   215
      74454 AUTOND   215
          2 BCDDTM    34
          5 CKCODE     0
      74446 DEMKEY   215
      62726 DMPRGR   215
      62727 DMPUSR   215
          7 ENDTAP   215
          5 ENFLSH   215
      77457 ENTPSW   215
      62732 EOFCTA   215
         14 ERCODA   215
         16 ERCODB   215
         64 ERREND     0
        201 ERSTAT   163
        200 ERTEMP    76,  105,  125,  132
          7 ERYSIZ   214,  215
      77455 EXEMPT   215
      77460 FLSHSW   215
      62750 IOBUF2   215
          1 IODIAG     6,   66
      77461 KEYVAL   215
          1 LSDRUM   215
          6 LVFLSH   215
      64510 MFDENT   215
      62735 MFDEOF   215
      74532 NUSERS   215
      74650 PROBNO   215
      76144 PROGNO   215
        660 RECSIZ   215
      60254 REELNO   215
      60243 SKELSW   215
      74623 SYSDAT   215
      74624 SYSTIM   215
      60244 TAPEID   215
      60263 TCYCLE   215
      60256 TNDSAV   215
1            ROUTINES FOR GENERAL ERROR PROCESSING....M.J.BAILEY,11/1/64         05/11/69 2011.2 PAGE 3
                        POST PROCESSOR ASSEMBLY DATA

      64553 TPBUF2   215
      62741 UFDENT   215
      62747 UFDEOF   215

0 NO ERROR IN ABOVE ASSEMBLY.
1            MISCELLANEOUS FILE READ/WRITE ROUTINES....M.J.BAILEY,11/15/64       05/11/69 2011.6 PAGE 1

                              *
                       00741         ENTRY   RDMFD         READ MFD ENTRY
                       01070         ENTRY   NRDUFD
                       01101         ENTRY   RDUFD         READ PORTION OF UFD
                       01245         ENTRY   WRNF          WRITE DUMP TAPE
                       06035         ENTRY   RDF           READ PORTION OF A USER FILE
                       06161         ENTRY   IENUFD        INITIALIZE UFD ENTRY READ
                       06173         ENTRY   ENTUFD        READ UFD ENTRY FROM UFD COPY
                              *
                                     EXTERN  ATTACH,DELFIL,TAPFIL,OPEN,BUFFER
                                     EXTERN  RDFILE,FWAIT,CLOSE,WRFILE,WRFLX,MOUNT
                                     EXTERN  UMOUNT,LABEL,IODIAG
                                     INSERT  DMCRSA
                              *
                              *      MACRO TO WRITE N WORDS FROM ARRAY ET SEQ ONTO ALREADY OPENED
                              *      SECONDARY STORAGE FILE (NAME1,NAME2) AND WAIT UNTIL TRANSMITTED.
                              *
                               WSSF  MACRO   ARRAY,N,NAME1,NAME2
                                     TSX     ATTACH,4      RE-ATTACH TO DUMPER'S FILES
                                     TXH     DMPUSR
                                     TXH     DMPRGR
                                     TSX     WRFILE,4      WRITE
                                     TXH     NAME1         ONTO (NAME1,
                                     TXH     NAME2         NAME2)
                                     TXH     =0            AT POSITION WHERE LAST CEASED
                                     TIX     ARRAY,,N      FROM ARRAY THROUGH ARRAY+N-1
                                     TSX     FWAIT,4       WAIT
                                     TXH     NAME1
                                     TXH     NAME2
                               WSSF  END
                              *
                              *  ZERO-IZE A THROUGH A+X-1
                              *
                               CLEAR MACRO   A,X
                                     AXT     X,1
                                     STZ     A+X,1
                                     TIX     *-1,1,1
                               CLEAR END
                              *
                              *      MOVE X WORDS FROM A ET SEQ TO B ET SEQ
                              *
                               MOVE  MACRO   X,A,B
                                     AXT     X,1
                                     CAL     A+X,1
                                     SLW     B+X,1
                                     TIX     *-2,1,1
                               MOVE  END
                              *
                              *      PRINT ONE LINE, CLEAR BUFFER
                              *
                              PRBUFF MACRO   BUFF,NWDS
                                     SXA     *+3,4
                                     TSX     WRFLX,4
                                             BUFF,,NWDS
                                     AXT     **,4
                                     CLEAR   BUFF,NWDS
1            MISCELLANEOUS FILE READ/WRITE ROUTINES....M.J.BAILEY,11/15/64       05/11/69 2011.6 PAGE 2

                              PRBUFF END
                              *
                              *      PRINT STANDARD BEGINNING TO DUMPER ERROR MESSAGE
                              *
                              BGNERM MACRO   TYPE
                                     SXA     *+3,4
                                     TSX     $BERM,4
                                     PZE     TYPE
                                     AXT     **,4
                              BGNERM END
                              *
                              *  PRINT ONE LINE COMMENT
                              *
                              PRLINE MACRO   COMNT,NWC,N,WORD1,WORD2,LOC
                                     IFF     0,NWC,0
                                     MOVE    NWC,LOC,PBF
                                     IFF     N-2,N,1
                                     CAL     WORD1
                                     IFF     N-2,N,1
                                     SLW     PBF+NWC
                                     IFF     1,N,2
                                     CAL     WORD2
                                     IFF     1,N,2
                                     SLW     PBF+NWC+1
                                     PRBUFF  PBF,NWC+N
                                     RMT
                               LOC   BCI     NWC,COMNT
                                     RMT
                              PRLINE END
                              *
                              *      PRINT ONE LINE MESSAGE
                              *
                              PRMESS MACRO   MESNAM,N,ADR1,ADR2
                                     TSX     $PRLINE,4
                                     BCI     1,MESNAM
                                     IFF     N,N,N
                                     TXH     ADR1
                                     IFF     N,N,N
                                     TXH     ADR2
                              PRMESS END
                              *
                              *      MACRO TO OPEN FILE (X,Y) OF USER (A,B) FOR READING
                              *      AND ASSIGN BUFFER F OF LENGTH L TO I/O SYSTEM FOR THAT PURPOSE.
                              *        ( ERR IS TRANSFER ADDRESS FOR ERROR RETURN )
                              *
                              RDOPEN MACRO   X,Y,A,B,F,L,ERR
                                     TSX     ATTACH,4      ATTACH TO USER (A,B)
                                     TXH     A
                                     TXH     B
                                     TSX     OPEN,4        OPEN FILE (X,Y) FOR READING
                                     TXH     R
                                     TXH     X
                                     TXH     Y
                                     TXH     =0
                                     TXH     =0
                                     TXH     ERR           (TRANSFER ADDRESS FOR ERROR)
1            MISCELLANEOUS FILE READ/WRITE ROUTINES....M.J.BAILEY,11/15/64       05/11/69 2011.6 PAGE 3

                                     TSX     BUFFER,4      ASSIGN L WORDS OF BUFFER F TO (X,Y)
                                     TXH     X
                                     TXH     Y
                                     TIX     F,,L
                              RDOPEN END
                              *
                              *      PRINT ERROR CODE, END MESSAGE
                              *
                                ERTN MACRO   ADRERR
                                     SXA     *+2,4
                                     TSX     $ERREND,4
                                     AXT     **,4
                                     TRA     ADRERR
                                ERTN END
                              *
                              *      ASK OPERATOR TO SET KEY CODE DC IF HE WANTS
                              *      ACTION GIVEN BY N-WORD MESSAGE M
                              *
                              PRCODE MACRO   DC,M,N
                                     TSX     $PRCODE,4
                                     TXH     DC
                                     TXH     M,,N
                              PRCODE END
                              *
                              *      TEST LAST KEY SETTING VIA SUPERVISOR, GO TO JUMP IF IT IS CODE
                              *
                              TESTKY MACRO   CODE,JUMP
                                     TSX     $NGETA,7
                                     LDQ     DEMKEY
                                     STQ     KEYVAL
                                     AXT     CODE,1
                                     PXA     0,1
                                     SUB     KEYVAL
                                     TZE     JUMP
                              TESTKY END
                              *
                              *      SET UP LOGICAL TAPE RECORD WRITING
                              *
                              LOGREC MACRO   X
                                     CLA     LTPBF
                                     SUB     =12
                                     STO     TEMP
                                     CAL     X+4
                                     ANA     =O77777
                                     STO     RCOUNT
                                     TSX     $NLREC,4
                                     TXH     NORECS
                                     TXH     RCOUNT
                                     TXH     LCOUNT
                                     TXH     TEMP
                                     TXH     =12
                                     TXH     PHYSRC
                                     TXH     NFLR
                                     TXH     NLAST
                              LOGREC END
                              *
1            MISCELLANEOUS FILE READ/WRITE ROUTINES....M.J.BAILEY,11/15/64       05/11/69 2011.6 PAGE 4

                              *
                              ATTACH MACRO   A,B
                                     TSX     ATTACH,4
                                     TXH     A
                                     TXH     B
                              ATTACH END
                              *
                              *      PRINT ERROR MESSAGE AND INTERROGATE KEYS
                              *
                              PRERR  MACRO
                                     TSX     $PRNTER,4
                                     TSX     $GDSIG,4
                              PRERR  END
                              *
                              *
                              *  .  .  .  .  .  .  .  .  .  .  .  .  .  .  .  .  .  .  .  .
                              *  TRANSFER VECTOR, CONSTANTS, VARIABLES
                              *     FOR GENERAL DUMP ROUTINE
                              *  .  .  .  .  .  .  .  .  .  .  .  .  .  .  .  .  .  .  .  .
                              *

        TRANSFER VECTOR
      00000  216363212330     ATTACH
      00001  242543263143     DELFIL
      00002  632147263143     TAPFIL
      00003  464725456060     OPEN
      00004  226426262551     BUFFER
      00005  512426314325     RDFILE
      00006  266621316360     FWAIT
      00007  234346622560     CLOSE
      00010  665126314325     WRFILE
      00011  665126436760     WRFLX
      00012  444664456360     MOUNT
      00013  644446644563     UMOUNT
      00014  432122254360     LABEL
      00015  314624312127     IODIAG
      00016  272462312760     GDSIG
      00017  222551446060     BERM
      00020  255151254524     ERREND
      00021  475145632551     PRNTER

            LINKAGE DIRECTOR
      00022  000000000000
      00023  512444262460

      00024  0 00000 0 00660  LITB1  PZE     RECSIZ
      00025  0 00000 0 00660  LITB2  PZE     RECSIZ
      00026  0 00000 0 00004  L4     PZE     4
      00027  0 00000 0 00007  L7     PZE     7
      00030  0 00000 0 00660   LBUF  PZE     NW
      00031  0 00000 0 00003  LTAPE  PZE     TAPE
      00032  666060606060     W      BCI     1,W
      00033  236451456333     OURUFD BCI     2,CURNT.UFDFIL
      00034  642624263143
      00035  0 00000 0 00033  OURADD PZE     OURUFD
      00036  0 00000 0 00042  THRADD PZE     UFDNAM
1            MISCELLANEOUS FILE READ/WRITE ROUTINES....M.J.BAILEY,11/15/64       05/11/69 2011.6 PAGE 5

      00037  0761 00 0 00000  NOP    NOP
      00040  0020 00 0 01124  TRA    TRA     BOTH+4
      00041  443326332433     MFDNAM BCI     1,M.F.D.
      00042  643326332433     UFDNAM BCI     2,U.F.D.(FILE)
      00043  742631432534
      00044  516060606060          R BCI     1,R
      00045  606270626325     ERSTAT BCI     5, SYSTEM OR MACHINE ERROR.
      00046  446046516044
      00047  212330314525
      00050  602551514651
      00051  336060606060
      00052  0 00000 0 00000   CFDC  PZE     **            UBUF POINTER TO START OF NEXT UFD ENTRY
      00053  0 00000 0 00000  CFDEOF PZE     **            ZERO INDICATES EOF IN OUR COPY OF UFD
      00054  0 00000 0 00000   SW    PZE     **            SWITCH
                       00660  UBSIZ  EQU     432
      00055                    UBUF  BSS     UBSIZ
      00735  0 00000 0 00660  LUBSIZ PZE     UBSIZ
      00736  0 00000 0 00062   UBADR PZE     UBUF+5
      00737  0 00000 0 00000  EOFCTB PZE     **            NO. OF WORDS BEFORE AN EOF IN UFD COPY
      00740  0 00000 0 00010  L8     PZE     8
                              *
                              * . . . . . . . . . . . . . . . . . . . . . . . . . . . .
                              *   READ NEXT M.F.D. ENTRY INTO MFDENT ET SEQ
                              * . . . . . . . . . . . . . . . . . . . . . . . . . . . .
                              *
      00741  0634 00 4 00767  RDMFD  SXA     RMB,4
                              *
      00742  0074 00 4 00016         TSX     $GDSIG,4
      00743  0074 00 4 00000         TSX     ATTACH,4      RE-ATTACH TO USER CALLED 'M.F.D. FILE'
 TD   00744  3 00000 0 00041         TXH     MFDNAM
 TD   00745  3 00000 0 00043         TXH     UFDNAM+1
                              *
                              *
      00746  0074 00 4 00005  ZENT   TSX     RDFILE,4      READ 14 WORDS FROM START OF NEXT MFD ENTRY
 TD   00747  3 00000 0 00041         TXH     MFDNAM
 TD   00750  3 00000 0 00043         TXH     UFDNAM+1
 TD   00751  3 00000 0 62740         TXH     MFDC          WHICH STARTS AT MFDC'TH WORD IN MFD FILE
      00752  2 00740 0 64510         TIX     MFDENT,,L8    INTO MFDENT.
 TD   00753  3 00000 0 00771         TXH     RMC           EOF TRANSFER
 TD   00754  3 00000 0 62734         TXH     EOFCT
                              *
      00755  0074 00 4 00006  RMA    TSX     FWAIT,4       WAIT UNTIL TRANSMISSION COMPLETE
 TD   00756  3 00000 0 00041         TXH     MFDNAM
 TD   00757  3 00000 0 00043         TXH     UFDNAM+1      .
 TD   00760  3 00000 0 01045         TXH     ERRD          (ERROR TRANSFER ADDRESS)
                              *
      00761  0500 00 0 06556         CLA     =1            P
      00762  0400 00 0 62740         ADD     MFDC          MFDC+P
      00763  0400 00 0 06562         ADD     =6            MFDC+6+P
      00764  0601 00 0 62740         STO     MFDC          MFDC=MFDC+6+P
      00765 -0520 00 0 64510         NZT     MFDENT
      00766  0020 00 0 00746         TRA     ZENT
                              *
      00767  0774 00 4 00000   RMB   AXT     **,4
      00770  0020 00 4 00002         TRA     2,4           RETURN TO CALLER
                              *
1            MISCELLANEOUS FILE READ/WRITE ROUTINES....M.J.BAILEY,11/15/64       05/11/69 2011.6 PAGE 6

      00771  0600 00 0 62735   RMC   STZ     MFDEOF        INDICATE EOF IN MFD FILE
      00772  0534 00 4 62734         LXA     EOFCT,4
      00773  3 00005 4 00755         TXH     RMA,4,5       CONTINUE IF AT LEAST 6 WDS READ BEFORE EOF
                              *
      00774                          BGNERM  =HRMFD01      OTHERWISE, ERROR
      00774  0634 00 4 00777         SXA     *+3,4                                                            .001
      00775  0074 00 4 00017         TSX     $BERM,4                                                          .001
      00776  0 00000 0 06577         PZE     =HRMFD01                                                         .001
      00777  0774 00 4 00000         AXT     **,4                                                             .001
      01000                          PRLINE  ( M.F.D. READING ERROR - 5 OR LESS WORDS   ),7,0
      01000                          MOVE    7,..003,PBF                                                      .001
      01000  0774 00 1 00007         AXT     7,1                                                              .002
      01001 -0500 00 1 06414         CAL     ..003+7,1                                                        .002
      01002  0602 00 1 64535         SLW     PBF+7,1                                                          .002
      01003  2 00001 1 01001         TIX     *-2,1,1                                                          .002
      01004                          PRBUFF  PBF,7+0                                                          .001
      01004  0634 00 4 01007         SXA     *+3,4                                                            .002
      01005  0074 00 4 00011         TSX     WRFLX,4                                                          .002
      01006  0 00007 0 64526                 PBF,,7+0                                                         .002
      01007  0774 00 4 00000         AXT     **,4                                                             .002
      01010                          CLEAR   PBF,7+0                                                          .002
      01010  0774 00 1 00007         AXT     7+0,1                                                            .003
      01011  0600 00 1 64535         STZ     PBF+7+0,1                                                        .003
      01012  2 00001 1 01011         TIX     *-1,1,1                                                          .003
                                     RMT                                                                      .001
                              ..003  BCI     7, M.F.D. READING ERROR - 5 OR LESS WORDS                        .001
                                     RMT                                                                      .001
      01013                          PRLINE  ( PICKED UP BEFORE END OF FILE IN M.F.D.   ),7,0
      01013                          MOVE    7,..006,PBF                                                      .001
      01013  0774 00 1 00007         AXT     7,1                                                              .002
      01014 -0500 00 1 06423         CAL     ..006+7,1                                                        .002
      01015  0602 00 1 64535         SLW     PBF+7,1                                                          .002
      01016  2 00001 1 01014         TIX     *-2,1,1                                                          .002
      01017                          PRBUFF  PBF,7+0                                                          .001
      01017  0634 00 4 01022         SXA     *+3,4                                                            .002
      01020  0074 00 4 00011         TSX     WRFLX,4                                                          .002
      01021  0 00007 0 64526                 PBF,,7+0                                                         .002
      01022  0774 00 4 00000         AXT     **,4                                                             .002
      01023                          CLEAR   PBF,7+0                                                          .002
      01023  0774 00 1 00007         AXT     7+0,1                                                            .003
      01024  0600 00 1 64535         STZ     PBF+7+0,1                                                        .003
      01025  2 00001 1 01024         TIX     *-1,1,1                                                          .003
                                     RMT                                                                      .001
                              ..006  BCI     7, PICKED UP BEFORE END OF FILE IN M.F.D.                        .001
                                     RMT                                                                      .001
      01026                    RMD   MOVE    5,ERSTAT,PBF
      01026  0774 00 1 00005         AXT     5,1                                                              .001
      01027 -0500 00 1 00052         CAL     ERSTAT+5,1                                                       .001
      01030  0602 00 1 64533         SLW     PBF+5,1                                                          .001
      01031  2 00001 1 01027         TIX     *-2,1,1                                                          .001
      01032                          PRBUFF  PBF,5
      01032  0634 00 4 01035         SXA     *+3,4                                                            .001
      01033  0074 00 4 00011         TSX     WRFLX,4                                                          .001
      01034  0 00005 0 64526                 PBF,,5                                                           .001
      01035  0774 00 4 00000         AXT     **,4                                                             .001
      01036                          CLEAR   PBF,5                                                            .001
1            MISCELLANEOUS FILE READ/WRITE ROUTINES....M.J.BAILEY,11/15/64       05/11/69 2011.6 PAGE 7

      01036  0774 00 1 00005         AXT     5,1                                                              .002
      01037  0600 00 1 64533         STZ     PBF+5,1                                                          .002
      01040  2 00001 1 01037         TIX     *-1,1,1                                                          .002
      01041  0534 00 4 00767         LXA     RMB,4         SET UP ERROR RETURN - TO (1,4)
      01042  1 00001 4 01043         TXI     *+1,4,1
      01043  0634 00 4 00767         SXA     RMB,4
      01044  0020 00 0 00767         TRA     RMB
                              *
      01045                   ERRD   BGNERM  =HD           TROUBLE READING MFD IN RMFD
      01045  0634 00 4 01050         SXA     *+3,4                                                            .001
      01046  0074 00 4 00017         TSX     $BERM,4                                                          .001
      01047  0 00000 0 06573         PZE     =HD                                                              .001
      01050  0774 00 4 00000         AXT     **,4                                                             .001
      01051                          PRLINE  ( ERROR READING M.F.D. FILE.),5,0
      01051                          MOVE    5,..009,PBF                                                      .001
      01051  0774 00 1 00005         AXT     5,1                                                              .002
      01052 -0500 00 1 06430         CAL     ..009+5,1                                                        .002
      01053  0602 00 1 64533         SLW     PBF+5,1                                                          .002
      01054  2 00001 1 01052         TIX     *-2,1,1                                                          .002
      01055                          PRBUFF  PBF,5+0                                                          .001
      01055  0634 00 4 01060         SXA     *+3,4                                                            .002
      01056  0074 00 4 00011         TSX     WRFLX,4                                                          .002
      01057  0 00005 0 64526                 PBF,,5+0                                                         .002
      01060  0774 00 4 00000         AXT     **,4                                                             .002
      01061                          CLEAR   PBF,5+0                                                          .002
      01061  0774 00 1 00005         AXT     5+0,1                                                            .003
      01062  0600 00 1 64533         STZ     PBF+5+0,1                                                        .003
      01063  2 00001 1 01062         TIX     *-1,1,1                                                          .003
                                     RMT                                                                      .001
                              ..009  BCI     5, ERROR READING M.F.D. FILE.                                    .001
                                     RMT                                                                      .001
      01064                          ERTN    RMD           PRINT COMMON MESSAGE, RETURN VIA (1,4)
      01064  0634 00 4 01066         SXA     *+2,4                                                            .001
      01065  0074 00 4 00020         TSX     $ERREND,4                                                        .001
      01066  0774 00 4 00000         AXT     **,4                                                             .001
      01067  0020 00 0 01026         TRA     RMD                                                              .001

                              *
                              * . . . . . . . . . . . . . . . . . . . . . . . . . . . . . . . . . . .
                              *      READ N WORDS, FROM NEXT UNREAD POSITION OF THE ALREADY OPENED
                              *       UFD FILE OF THE USER GIVEN IN BCD IN MFDENT AND MFDENT+1,
                              *       INTO ARRAY THROUGH ARRAY+N-1. IF AN EOF IS MET, EOFCT IS SET
                              *       TO THE NO. OF WORDS READ IMMEDIATELY BEFORE THE EOF, AND
                              *       UFDEOF IS SET TO ZERO.
                              *
                              *      CALLING SEQUENCE -  TSX RDUFD,4
                              *                          TXH ARRAY
                              *                          TXH N
                              *                          (ERROR RETURN)
                              *                          (NORMAL RETURN)
                              * . . . . . . . . . . . . . . . . . . . . . . . . . . . . . . . . . . .
                              *
      01070 -0500 00 0 00040  NRDUFD CAL     TRA
      01071  0602 00 0 01120         SLW     BOTH
      01072 -0500 00 0 00035         CAL     OURADD
      01073  0621 00 0 01125         STA     RUA-3
1            MISCELLANEOUS FILE READ/WRITE ROUTINES....M.J.BAILEY,11/15/64       05/11/69 2011.6 PAGE 8

      01074  0621 00 0 01134         STA     RUC+1
      01075  0400 00 0 06556         ADD     =1
      01076  0621 00 0 01126         STA     RUA-2
      01077  0621 00 0 01135         STA     RUC+2
      01100  0020 00 0 01111         TRA     RDUFD+8
      01101 -0500 00 0 00037  RDUFD  CAL     NOP
      01102  0602 00 0 01120         SLW     BOTH
      01103 -0500 00 0 00036         CAL     THRADD
      01104  0621 00 0 01125         STA     RUA-3
      01105  0621 00 0 01134         STA     RUC+1
      01106  0400 00 0 06556         ADD     =1
      01107  0621 00 0 01126         STA     RUA-2
      01110  0621 00 0 01135         STA     RUC+2
      01111  0634 00 4 01140         SXA     RUD,4
      01112  0500 00 4 00001         CLA     1,4
      01113  0621 00 0 01130         STA     RUA           ARRAY ADDRESS
      01114  0500 00 4 00002         CLA     2,4
      01115  0767 00 0 00022         ALS     18
      01116  0622 00 0 01130         STD     RUA           ADDRESS OF N
                              *
      01117  0074 00 4 00016         TSX     $GDSIG,4
      01120  0 00000 0 00000  BOTH   PZE
      01121  0074 00 4 00000         TSX     ATTACH,4      RE-ATTACH TO APPROPRIATE USER
 TD   01122  3 00000 0 64510         TXH     MFDENT
 TD   01123  3 00000 0 64511         TXH     MFDENT+1
                              *
      01124  0074 00 4 00005         TSX     RDFILE,4      READ N WORDS FROM
 TD   01125  3 00000 0 00000         TXH     **            'U.F.D. FILE'
 TD   01126  3 00000 0 00000         TXH     **
 TD   01127  3 00000 0 62736         TXH     UFDC          STARTING AT THE NEXT UNREAD POSTN.
      01130  2 00000 0 00000   RUA   TIX     **,,**        INTO ARRAY THROUGH ARRAY+N-1
 TD   01131  3 00000 0 01142         TXH     RUE           EOF TRANSFER
 TD   01132  3 00000 0 62734         TXH     EOFCT
                              *
      01133  0074 00 4 00006  RUC    TSX     FWAIT,4       WAIT UNTIL TRANSMISSION COMPLETE
 TD   01134  3 00000 0 00000         TXH     **
 TD   01135  3 00000 0 00000         TXH     **
 TD   01136  3 00000 0 01144         TXH     ERRC          (ERROR TRANSFER)
                              *
      01137  0600 00 0 62736         STZ     UFDC
      01140  0774 00 4 00000   RUD   AXT     **,4
      01141  0020 00 4 00004   RUDA  TRA     4,4           RETURN TO CALLER
                              *
      01142  0600 00 0 62747   RUE   STZ     UFDEOF        INDICATE END OF FILE
      01143  0020 00 0 01133         TRA     RUC           RETURN TO WAIT FOR COMPLETION
                              *
      01144                   ERRC   BGNERM  =HC           TROUBLE READING UFD FILE
      01144  0634 00 4 01147         SXA     *+3,4                                                            .001
      01145  0074 00 4 00017         TSX     $BERM,4                                                          .001
      01146  0 00000 0 06570         PZE     =HC                                                              .001
      01147  0774 00 4 00000         AXT     **,4                                                             .001
      01150                          PRLINE  ( ERROR READING U.F.D. FILE OF FOLLOWING USER -  ),8,0
      01150                          MOVE    8,..012,PBF                                                      .001
      01150  0774 00 1 00010         AXT     8,1                                                              .002
      01151 -0500 00 1 06440         CAL     ..012+8,1                                                        .002
      01152  0602 00 1 64536         SLW     PBF+8,1                                                          .002
1            MISCELLANEOUS FILE READ/WRITE ROUTINES....M.J.BAILEY,11/15/64       05/11/69 2011.6 PAGE 9

      01153  2 00001 1 01151         TIX     *-2,1,1                                                          .002
      01154                          PRBUFF  PBF,8+0                                                          .001
      01154  0634 00 4 01157         SXA     *+3,4                                                            .002
      01155  0074 00 4 00011         TSX     WRFLX,4                                                          .002
      01156  0 00010 0 64526                 PBF,,8+0                                                         .002
      01157  0774 00 4 00000         AXT     **,4                                                             .002
      01160                          CLEAR   PBF,8+0                                                          .002
      01160  0774 00 1 00010         AXT     8+0,1                                                            .003
      01161  0600 00 1 64536         STZ     PBF+8+0,1                                                        .003
      01162  2 00001 1 01161         TIX     *-1,1,1                                                          .003
                                     RMT                                                                      .001
                              ..012  BCI     8, ERROR READING U.F.D. FILE OF FOLLOWING USER -                 .001
                                     RMT                                                                      .001
      01163                          PRLINE  (                        PROBLEM NO. ),6,1,MFDENT
      01163                          MOVE    6,..014,PBF                                                      .001
      01163  0774 00 1 00006         AXT     6,1                                                              .002
      01164 -0500 00 1 06446         CAL     ..014+6,1                                                        .002
      01165  0602 00 1 64534         SLW     PBF+6,1                                                          .002
      01166  2 00001 1 01164         TIX     *-2,1,1                                                          .002
      01167 -0500 00 0 64510         CAL     MFDENT                                                           .001
      01170  0602 00 0 64534         SLW     PBF+6                                                            .001
      01171                          PRBUFF  PBF,6+1                                                          .001
      01171  0634 00 4 01174         SXA     *+3,4                                                            .002
      01172  0074 00 4 00011         TSX     WRFLX,4                                                          .002
      01173  0 00007 0 64526                 PBF,,6+1                                                         .002
      01174  0774 00 4 00000         AXT     **,4                                                             .002
      01175                          CLEAR   PBF,6+1                                                          .002
      01175  0774 00 1 00007         AXT     6+1,1                                                            .003
      01176  0600 00 1 64535         STZ     PBF+6+1,1                                                        .003
      01177  2 00001 1 01176         TIX     *-1,1,1                                                          .003
                                     RMT                                                                      .001
                              ..014  BCI     6,                        PROBLEM NO.                            .001
                                     RMT                                                                      .001
      01200                          PRLINE  (                     PROGRAMMER NO. ),6,1,MFDENT+1
      01200                          MOVE    6,..016,PBF                                                      .001
      01200  0774 00 1 00006         AXT     6,1                                                              .002
      01201 -0500 00 1 06454         CAL     ..016+6,1                                                        .002
      01202  0602 00 1 64534         SLW     PBF+6,1                                                          .002
      01203  2 00001 1 01201         TIX     *-2,1,1                                                          .002
      01204 -0500 00 0 64511         CAL     MFDENT+1                                                         .001
      01205  0602 00 0 64534         SLW     PBF+6                                                            .001
      01206                          PRBUFF  PBF,6+1                                                          .001
      01206  0634 00 4 01211         SXA     *+3,4                                                            .002
      01207  0074 00 4 00011         TSX     WRFLX,4                                                          .002
      01210  0 00007 0 64526                 PBF,,6+1                                                         .002
      01211  0774 00 4 00000         AXT     **,4                                                             .002
      01212                          CLEAR   PBF,6+1                                                          .002
      01212  0774 00 1 00007         AXT     6+1,1                                                            .003
      01213  0600 00 1 64535         STZ     PBF+6+1,1                                                        .003
      01214  2 00001 1 01213         TIX     *-1,1,1                                                          .003
                                     RMT                                                                      .001
                              ..016  BCI     6,                     PROGRAMMER NO.                            .001
                                     RMT                                                                      .001
      01215                          PRLINE  ( ABANDONING THIS USER IN THE CURRENT DUMP CYCLE.),8,0
      01215                          MOVE    8,..019,PBF                                                      .001
      01215  0774 00 1 00010         AXT     8,1                                                              .002
1            MISCELLANEOUS FILE READ/WRITE ROUTINES....M.J.BAILEY,11/15/64       05/11/69 2011.6 PAGE 10

      01216 -0500 00 1 06464         CAL     ..019+8,1                                                        .002
      01217  0602 00 1 64536         SLW     PBF+8,1                                                          .002
      01220  2 00001 1 01216         TIX     *-2,1,1                                                          .002
      01221                          PRBUFF  PBF,8+0                                                          .001
      01221  0634 00 4 01224         SXA     *+3,4                                                            .002
      01222  0074 00 4 00011         TSX     WRFLX,4                                                          .002
      01223  0 00010 0 64526                 PBF,,8+0                                                         .002
      01224  0774 00 4 00000         AXT     **,4                                                             .002
      01225                          CLEAR   PBF,8+0                                                          .002
      01225  0774 00 1 00010         AXT     8+0,1                                                            .003
      01226  0600 00 1 64536         STZ     PBF+8+0,1                                                        .003
      01227  2 00001 1 01226         TIX     *-1,1,1                                                          .003
                                     RMT                                                                      .001
                              ..019  BCI     8, ABANDONING THIS USER IN THE CURRENT DUMP CYCLE.               .001
                                     RMT                                                                      .001
      01230                          MOVE    5,ERSTAT,PBF
      01230  0774 00 1 00005         AXT     5,1                                                              .001
      01231 -0500 00 1 00052         CAL     ERSTAT+5,1                                                       .001
      01232  0602 00 1 64533         SLW     PBF+5,1                                                          .001
      01233  2 00001 1 01231         TIX     *-2,1,1                                                          .001
      01234                          PRBUFF  PBF,5
      01234  0634 00 4 01237         SXA     *+3,4                                                            .001
      01235  0074 00 4 00011         TSX     WRFLX,4                                                          .001
      01236  0 00005 0 64526                 PBF,,5                                                           .001
      01237  0774 00 4 00000         AXT     **,4                                                             .001
      01240                          CLEAR   PBF,5                                                            .001
      01240  0774 00 1 00005         AXT     5,1                                                              .002
      01241  0600 00 1 64533         STZ     PBF+5,1                                                          .002
      01242  2 00001 1 01241         TIX     *-1,1,1                                                          .002
      01243  0534 00 4 01140         LXA     RUD,4
      01244  1 00001 4 01141         TXI     RUDA,4,1      GO TAKE ERROR EXIT (3,4)

                              *
                              * . . . . . . . . . . . . . . . . . . . . . . . . . . . . . . . . . . .
                              *      WRITE N WORDS FROM ARRAY THROUGH ARRAY+N-1 ONTO THE DUMP
                              *      PROGRAM'S ALREADY OPENED DUPLICATE DUMP TAPE FILES (CALLED
                              *      'NEW   FILES1' AND 'NEW   FILES2'), STARTING AT THE PLACE
                              *      WHERE WRITING LAST STOPPED.
                              *           CALLING SEQUENCE -  TSX  WRNF,4
                              *                               TXH  ARRAY
                              *                               TXH  N
                              * . . . . . . . . . . . . . . . . . . . . . . . . . . . . . . . . . . .
                              *
      01245  0634 00 4 01326  WRNF   SXA     WNJ,4
      01246  0634 00 1 01325         SXA     WNI,1
      01247  0500 00 4 00001         CLA     1,4           ADDRESS OF NEW MATERIAL
      01250  0621 00 0 01273         STA     WNC
      01251  0500 00 4 00002         CLA     2,4           LENGTH OF NEW MATERIAL
      01252  0621 00 0 01270         STA     WNB
                              *
      01253  0074 00 4 00016         TSX     $GDSIG,4
      01254  0074 00 4 00000         TSX     ATTACH,4      RE-ATTACH TO DAEMON
 TD   01255  3 00000 0 62727         TXH     DU
 TD   01256  3 00000 0 62726         TXH     DP
                              *
      01257  0600 00 0 05732  WNA    STZ     WSW
1            MISCELLANEOUS FILE READ/WRITE ROUTINES....M.J.BAILEY,11/15/64       05/11/69 2011.6 PAGE 11

      01260  0074 00 4 00006         TSX     FWAIT,4       WAIT FOR PREVIOUS WRITE
 TD   01261  3 00000 0 62723         TXH     NFN1
 TD   01262  3 00000 0 62724         TXH     NFN1+1
 TD   01263  3 00000 0 01330         TXH     WNK           ERROR DURING PREVIOUS WRITE
      01264  0074 00 4 00006         TSX     FWAIT,4       WAIT FOR PREVIOUS WRITE
 TD   01265  3 00000 0 62721         TXH     NFN2
 TD   01266  3 00000 0 62722         TXH     NFN2+1
 TD   01267  3 00000 0 01330         TXH     WNK           ERROR DURING PREVIOUS WRITE
                              *
      01270  0535 00 1 00000  WNB    LAC     **,1          O.K., MOVE NEW MATERIAL TO OUR BUFFER
      01271 -0634 00 1 01276         SXD     WND,1
      01272  0774 00 1 00000         AXT     0,1
      01273 -0500 00 1 00000  WNC    CAL     **,1
      01274  0602 00 1 01551         SLW     FBUF,1
      01275  1 77777 1 01276         TXI     *+1,1,-1
      01276  3 00000 1 01273  WND    TXH     WNC,1,**
      01277 -0500 00 0 01270         CAL     WNB
      01300  0621 00 0 01301         STA     *+1
      01301 -0500 00 0 00000         CAL     **
      01302  0767 00 0 00022         ALS     18
      01303  0622 00 0 01311         STD     WNF
      01304  0622 00 0 01320         STD     WNH
                              *
      01305  0074 00 4 00010  WNE    TSX     WRFILE,4      INITIATE WRITE FROM OUR BUFFER
 TD   01306  3 00000 0 62723         TXH     NFN1
 TD   01307  3 00000 0 62724         TXH     NFN1+1
 TD   01310  3 00000 0 06555         TXH     =0
      01311  3 00000 0 01551  WNF    TXH     FBUF,,**
 TD   01312  3 00000 0 01312         TXH     *
 TD   01313  3 00000 0 01313         TXH     *
      01314  0074 00 4 00010  WNG    TSX     WRFILE,4
 TD   01315  3 00000 0 62721         TXH     NFN2
 TD   01316  3 00000 0 62722         TXH     NFN2+1
 TD   01317  3 00000 0 06555         TXH     =0
      01320  3 00000 0 01551  WNH    TXH     FBUF,,**
 TD   01321  3 00000 0 01321         TXH     *
 TD   01322  3 00000 0 01322         TXH     *
      01323  0520 00 0 05732         ZET     WSW
      01324  0020 00 0 01257         TRA     WNA           GO WAIT FOR IT IF A RE-WRITE
                              *
      01325  0774 00 1 00000  WNI    AXT     **,1
      01326  0774 00 4 00000  WNJ    AXT     **,4
      01327  0020 00 4 00003         TRA     3,4           EXIT
                              *
      01330  0500 00 0 01330  WNK    CLA     *             ERROR DURING (NOW-COMPLETED) WRITE
      01331  0601 00 0 05732         STO     WSW
      01332  0074 00 4 00015         TSX     IODIAG,4
      01333  2 00027 0 64544         TIX     ERAY,,L7
      01334 -0500 00 0 06575         CAL     =HFWAIT
      01335 -0340 00 0 64545         LAS     ERAY+1
      01336  0020 00 0 01347         TRA     WNL
      01337  0020 00 0 01341         TRA     *+2
      01340  0020 00 0 01347         TRA     WNL
      01341  0500 00 0 64546         CLA     ERAY+2
      01342  0402 00 0 06561         SUB     =5
      01343 -0100 00 0 01347         TNZ     WNL
1            MISCELLANEOUS FILE READ/WRITE ROUTINES....M.J.BAILEY,11/15/64       05/11/69 2011.6 PAGE 12

      01344  0500 00 0 64547         CLA     ERAY+3
      01345  0402 00 0 06562         SUB     =6
      01346  0100 00 0 01352         TZE     WNM           SKIP IF END-OF-REEL
      01347                   WNL    PRERR
      01347  0074 00 4 00021         TSX     $PRNTER,4                                                        .001
      01350  0074 00 4 00016         TSX     $GDSIG,4                                                         .001
      01351  0020 00 0 01305         TRA     WNE           TRY AGAIN IF NOT END OF REEL
                              *
      01352                   WNM    PRLINE  ( END OF REEL ON DUMP TAPE FILE.),6,0
      01352                          MOVE    6,..022,PBF                                                      .001
      01352  0774 00 1 00006         AXT     6,1                                                              .002
      01353 -0500 00 1 06472         CAL     ..022+6,1                                                        .002
      01354  0602 00 1 64534         SLW     PBF+6,1                                                          .002
      01355  2 00001 1 01353         TIX     *-2,1,1                                                          .002
      01356                          PRBUFF  PBF,6+0                                                          .001
      01356  0634 00 4 01361         SXA     *+3,4                                                            .002
      01357  0074 00 4 00011         TSX     WRFLX,4                                                          .002
      01360  0 00006 0 64526                 PBF,,6+0                                                         .002
      01361  0774 00 4 00000         AXT     **,4                                                             .002
      01362                          CLEAR   PBF,6+0                                                          .002
      01362  0774 00 1 00006         AXT     6+0,1                                                            .003
      01363  0600 00 1 64534         STZ     PBF+6+0,1                                                        .003
      01364  2 00001 1 01363         TIX     *-1,1,1                                                          .003
                                     RMT                                                                      .001
                              ..022  BCI     6, END OF REEL ON DUMP TAPE FILE.                                .001
                                     RMT                                                                      .001
      01365  0074 00 4 00007         TSX     CLOSE,4
 TD   01366  3 00000 0 62723         TXH     NFN1
 TD   01367  3 00000 0 62724         TXH     NFN1+1
 TD   01370  3 00000 0 01365         TXH     *-3
      01371  0074 00 4 00007         TSX     CLOSE,4
 TD   01372  3 00000 0 62721         TXH     NFN2
 TD   01373  3 00000 0 62722         TXH     NFN2+1
 TD   01374  3 00000 0 01371         TXH     *-3
      01375  0074 00 4 00013         TSX     UMOUNT,4
 TD   01376  3 00000 0 06564         TXH     =11
      01377  2 05764 0 05755         TIX     MESA,,LMESA
      01400  0074 00 4 00013         TSX     UMOUNT,4
 TD   01401  3 00000 0 06565         TXH     =12
      01402  2 05774 0 05765         TIX     MESB,,LMESB
                              *
      01403  0500 00 0 60254         CLA     REELNO
      01404  0400 00 0 06557         ADD     =2
      01405  0074 00 4 06015         TSX     BINBCD,4
      01406 -0501 00 0 06601         ORA     =H    00
      01407  0602 00 0 05753         SLW     REEL+3
                              *
      01410  0074 00 4 00010         TSX     WRFILE,4      INDICATE END OF REEL ON MAP
 TD   01411  3 00000 0 06574         TXH     =HDUMPTP
 TD   01412  3 00000 0 06600         TXH     =H 'MAP'
 TD   01413  3 00000 0 06555         TXH     =0
      01414  2 05754 0 05733         TIX     EREELM,,LREELM
      01415  0074 00 4 01417         TSX     PATCH1,4
      01416  0020 00 0 01305         TRA     WNE
                              *
      01417  0634 00 4 01547  PATCH1 SXA     PXR4,4
1            MISCELLANEOUS FILE READ/WRITE ROUTINES....M.J.BAILEY,11/15/64       05/11/69 2011.6 PAGE 13

      01420  0074 00 4 00001         TSX     DELFIL,4
 TD   01421  3 00000 0 62723         TXH     NFN1
 TD   01422  3 00000 0 62724         TXH     NFN1+1
 TD   01423  3 00000 0 01424         TXH     *+1
      01424  0074 00 4 00002         TSX     TAPFIL,4
 TD   01425  3 00000 0 62723         TXH     NFN1
 TD   01426  3 00000 0 62724         TXH     NFN1+1
 TD   01427  3 00000 0 06564         TXH     =11
 TD   01430  3 00000 0 06555         TXH     =0
      01431  0074 00 4 00012         TSX     MOUNT,4       MOUNT AND LABEL NEW REELS
 TD   01432  3 00000 0 06556         TXH     =1
 TD   01433  3 00000 0 06564         TXH     =11
      01434  2 06004 0 05775         TIX     MESC,,LMESC
      01435  0074 00 4 00014         TSX     LABEL,4
 TD   01436  3 00000 0 06564         TXH     =11
      01437  2 00026 0 60244         TIX     TAPEID,,L4
 TD   01440  3 00000 0 01431         TXH     *-7
      01441  0074 00 4 00001         TSX     DELFIL,4
 TD   01442  3 00000 0 62721         TXH     NFN2
 TD   01443  3 00000 0 62722         TXH     NFN2+1
 TD   01444  3 00000 0 01445         TXH     *+1
      01445  0074 00 4 00002         TSX     TAPFIL,4
 TD   01446  3 00000 0 62721         TXH     NFN2
 TD   01447  3 00000 0 62722         TXH     NFN2+1
 TD   01450  3 00000 0 06565         TXH     =12
 TD   01451  3 00000 0 06555         TXH     =0
      01452  0074 00 4 00012         TSX     MOUNT,4
 TD   01453  3 00000 0 06557         TXH     =2
 TD   01454  3 00000 0 06565         TXH     =12
      01455  2 06014 0 06005         TIX     MESD,,LMESD
      01456  0074 00 4 00014         TSX     LABEL,4
 TD   01457  3 00000 0 06565         TXH     =12
      01460  2 00026 0 60244         TIX     TAPEID,,L4
 TD   01461  3 00000 0 01452         TXH     *-7
                              *
      01462  0074 00 4 00003  WNN    TSX     OPEN,4        RE-OPEN DUMP TAPE FILES
 TD   01463  3 00000 0 00032         TXH     W
 TD   01464  3 00000 0 62723         TXH     NFN1
 TD   01465  3 00000 0 62724         TXH     NFN1+1
 TD   01466  3 00000 0 06567         TXH     =O120
 TD   01467  3 00000 0 00031         TXH     LTAPE
 TD   01470  3 00000 0 01472         TXH     *+2
      01471  0020 00 0 01475         TRA     WNO
      01472                          PRERR
      01472  0074 00 4 00021         TSX     $PRNTER,4                                                        .001
      01473  0074 00 4 00016         TSX     $GDSIG,4                                                         .001
      01474  0020 00 0 01462         TRA     WNN
      01475  0074 00 4 00003  WNO    TSX     OPEN,4
 TD   01476  3 00000 0 00032         TXH     W
 TD   01477  3 00000 0 62721         TXH     NFN2
 TD   01500  3 00000 0 62722         TXH     NFN2+1
 TD   01501  3 00000 0 06567         TXH     =O120
 TD   01502  3 00000 0 00031         TXH     LTAPE
 TD   01503  3 00000 0 01505         TXH     *+2
      01504  0020 00 0 01510         TRA     WNP
      01505                          PRERR
1            MISCELLANEOUS FILE READ/WRITE ROUTINES....M.J.BAILEY,11/15/64       05/11/69 2011.6 PAGE 14

      01505  0074 00 4 00021         TSX     $PRNTER,4                                                        .001
      01506  0074 00 4 00016         TSX     $GDSIG,4                                                         .001
      01507  0020 00 0 01475         TRA     WNO
                              *
      01510  0074 00 4 00004  WNP    TSX     BUFFER,4
 TD   01511  3 00000 0 62723         TXH     NFN1
 TD   01512  3 00000 0 62724         TXH     NFN1+1
      01513  2 00024 0 62040         TIX     ITB1,,LITB1
      01514  0074 00 4 00004         TSX     BUFFER,4
 TD   01515  3 00000 0 62721         TXH     NFN2
 TD   01516  3 00000 0 62722         TXH     NFN2+1
      01517  2 00025 0 61160         TIX     ITB2,,LITB2
                              *
      01520  0500 00 0 60254         CLA     REELNO
      01521  0400 00 0 06556         ADD     =1
      01522  0601 00 0 60254         STO     REELNO
      01523                          MOVE    9,TAPEID,PHBUF
      01523  0774 00 1 00011         AXT     9,1                                                              .001
      01524 -0500 00 1 60255         CAL     TAPEID+9,1                                                       .001
      01525  0602 00 1 05062         SLW     PHBUF+9,1                                                        .001
      01526  2 00001 1 01524         TIX     *-2,1,1                                                          .001
      01527  0074 00 4 00010         TSX     WRFILE,4      WRITE DAEMON I.D. LABEL RECORD
 TD   01530  3 00000 0 62723         TXH     NFN1
 TD   01531  3 00000 0 62724         TXH     NFN1+1
 TD   01532  3 00000 0 06555         TXH     =0
      01533  2 05731 0 05051         TIX     PHBUF,,LPHSIZ
      01534  0074 00 4 00010         TSX     WRFILE,4
 TD   01535  3 00000 0 62721         TXH     NFN2
 TD   01536  3 00000 0 62722         TXH     NFN2+1
 TD   01537  3 00000 0 06555         TXH     =0
      01540  2 05731 0 05051         TIX     PHBUF,,LPHSIZ
      01541  0074 00 4 00006         TSX     FWAIT,4
 TD   01542  3 00000 0 62723         TXH     NFN1
 TD   01543  3 00000 0 62724         TXH     NFN1+1
      01544  0074 00 4 00006         TSX     FWAIT,4
 TD   01545  3 00000 0 62721         TXH     NFN2
 TD   01546  3 00000 0 62722         TXH     NFN2+1
      01547  0774 00 4 00000  PXR4   AXT     **,4
      01550  0020 00 4 00001         TRA     1,4
                              *
                       00660  RECSZ  EQU     432
      01551                   FBUF   BSS     4*RECSZ
      05051                   PHBUF  BSS     RECSZ
      05731  0 00000 0 00660  LPHSIZ PZE     RECSZ
      05732  0 00000 0 00000  WSW    PZE
      05733 -377777000013     EREELM OCT     777777000013
      05734  006060606060            BCI     7,0
      05735  606060606060
      05736  606060606060
      05737  606060606060
      05740  606060606060
      05741  606060606060
      05742  606060606060
      05743  545454607460            BCI     4,*** ( END OF REEL ) ***
      05744  254524604626
      05745  605125254360
1            MISCELLANEOUS FILE READ/WRITE ROUTINES....M.J.BAILEY,11/15/64       05/11/69 2011.6 PAGE 15

      05746  346054545460
      05747 -377777000004            OCT     777777000004
      05750  016060606060     REEL   BCI     4,1     REEL NUMBER
      05751  512525436045
      05752  644422255160
      05753  606060606060
      05754  0 00000 0 00021  LREELM PZE     *-EREELM
      05755  606445444664     MESA   BCI     7, UNMOUNT DUMP TAPE REEL ON CHANNEL A.
      05756  456360246444
      05757  476063214725
      05760  605125254360
      05761  464560233021
      05762  454525436021
      05763  336060606060
      05764  0 00000 0 00007  LMESA  PZE     *-MESA
      05765  606445444664     MESB   BCI     7, UNMOUNT DUMP TAPE REEL ON CHANNEL B.
      05766  456360246444
      05767  476063214725
      05770  605125254360
      05771  464560233021
      05772  454525436022
      05773  336060606060
      05774  0 00000 0 00007  LMESB  PZE     *-MESB
      05775  604446644563     MESC   BCI     7, MOUNT FRESH REEL ON CHANNEL A FOR DUMPER.
      05776  602651256230
      05777  605125254360
      06000  464560233021
      06001  454525436021
      06002  602646516024
      06003  644447255133
      06004  0 00000 0 00007  LMESC  PZE     *-MESC
      06005  604446644563     MESD   BCI     7, MOUNT FRESH REEL ON CHANNEL B FOR DUMPER.
      06006  602651256230
      06007  605125254360
      06010  464560233021
      06011  454525436022
      06012  602646516024
      06013  644447255133
      06014  0 00000 0 00007  LMESD  PZE     *-MESD
      06015  0634 00 4 06033  BINBCD SXA     B4,4
      06016  0634 00 1 06032         SXA     B1,1
      06017  0774 00 1 00000         AXT     0,1
      06020 -0320 00 0 06566         ANA     =O77
      06021  0402 00 0 06563         SUB     =10
      06022  0120 00 0 06024         TPL     *+2
      06023  0020 00 0 06026         TRA     *+3
      06024  1 00001 1 06025         TXI     *+1,1,1
      06025  0020 00 0 06021         TRA     *-4
      06026  0400 00 0 06563         ADD     =10
      06027 -0765 00 0 00006         LGR     6
      06030  0754 00 1 00000         PXA     ,1
      06031 -0763 00 0 00006         LGL     6
      06032  0774 00 1 00000  B1     AXT     **,1
      06033  0774 00 4 00000  B4     AXT     **,4
      06034  0020 00 4 00001         TRA     1,4
                              *
1            MISCELLANEOUS FILE READ/WRITE ROUTINES....M.J.BAILEY,11/15/64       05/11/69 2011.6 PAGE 16

                              * . . . . . . . . . . . . . . . . . . . . . . . . . . . . . . . . . . .
                              *      READ N WORDS FROM NEXT UNREAD POSITION OF THE ALREADY OPENED
                              *      FILE (UFDENT,UFDENT+1) OF USER (MFDENT,MFDENT+1) INTO ARRAY
                              *      THROUGH ARRAY+N-1. IF AN EOF IS MET, EOFCTA IS SET TO NO. OF
                              *      WORDS READBEFORE IT, AND FEOF IS SET TO ZERO.
                              *
                              *              CALLING SEQUENCE -  TSX  RDF,4
                              *                                  TXH  ARRAY
                              *                                  TXH  N
                              *                          (ERROR RETURN)
                              *                          (NORMAL RETURN)
                              * . . . . . . . . . . . . . . . . . . . . . . . . . . . . . . . . . . .
                              *
      06035  0634 00 4 06063  RDF    SXA     RDD,4
      06036  0500 00 4 00001         CLA     1,4
      06037  0621 00 0 06053         STA     RDA           (ARRAY)
      06040  0500 00 4 00002         CLA     2,4
      06041  0767 00 0 00022         ALS     18
      06042  0622 00 0 06053         STD     RDA           (N)
                              *
      06043  0074 00 4 00016         TSX     $GDSIG,4
      06044  0074 00 4 00000         TSX     ATTACH,4      ATTACH TO USER CURRENTLY BEING DUMPED
 TD   06045  3 00000 0 64510         TXH     MFDENT
 TD   06046  3 00000 0 64511         TXH     MFDENT+1
                              *
      06047  0074 00 4 00005         TSX     RDFILE,4      READ N WORDS FROM FILE CURRENTLY
 TD   06050  3 00000 0 62741         TXH     UFDENT         BEING DUMPED
 TD   06051  3 00000 0 62742         TXH     UFDENT+1
 TD   06052  3 00000 0 06555         TXH     =0            FROM NEXT UNREAD POSITION IN IT,
      06053  2 00000 0 00000   RDA   TIX     **,,**        INTO ARRAY THROUGH ARRAY+N-1
 TD   06054  3 00000 0 06065         TXH     RDE           END OF FILE TRANSFER ADDRESS
 TD   06055  3 00000 0 62732         TXH     EOFCTA
 TD   06056  3 00000 0 06067         TXH     ERRH          (ERROR TRANSFER ADDRESS)
                              *
      06057  0074 00 4 00006  RDC    TSX     FWAIT,4       WAIT UNTIL READING COMPLETE
 TD   06060  3 00000 0 62741         TXH     UFDENT        .
 TD   06061  3 00000 0 62742         TXH     UFDENT+1      .
 TD   06062  3 00000 0 06067         TXH     ERRH
                              *
      06063  0774 00 4 00000   RDD   AXT     **,4
      06064  0020 00 4 00004   RDDA  TRA     4,4           RETURN TO CALLER
                              *
      06065  0600 00 0 62733  RDE    STZ     FEOF          INDICATE END OF FILE OCCURRED
      06066  0020 00 0 06057         TRA     RDC           RETURN TO WAIT FOR COMPLETION
                              *
      06067                   ERRH   BGNERM  =HH           TROUBLE READING A FILE TO BE DUMPED
      06067  0634 00 4 06072         SXA     *+3,4                                                            .001
      06070  0074 00 4 00017         TSX     $BERM,4                                                          .001
      06071  0 00000 0 06576         PZE     =HH                                                              .001
      06072  0774 00 4 00000         AXT     **,4                                                             .001
      06073                          PRLINE  ( ERROR READING THE FOLLOWING FILE  -      ),7,2,UFDENT,U
                                     ETC     FDENT+1
      06073                          MOVE    7,..023,PBF                                                      .001
      06073  0774 00 1 00007         AXT     7,1                                                              .002
      06074 -0500 00 1 06501         CAL     ..023+7,1                                                        .002
      06075  0602 00 1 64535         SLW     PBF+7,1                                                          .002
1            MISCELLANEOUS FILE READ/WRITE ROUTINES....M.J.BAILEY,11/15/64       05/11/69 2011.6 PAGE 17

      06076  2 00001 1 06074         TIX     *-2,1,1                                                          .002
      06077 -0500 00 0 62741         CAL     UFDENT                                                           .001
      06100  0602 00 0 64535         SLW     PBF+7                                                            .001
      06101 -0500 00 0 62742         CAL     UFDENT+1                                                         .001
      06102  0602 00 0 64536         SLW     PBF+7+1                                                          .001
      06103                          PRBUFF  PBF,7+2                                                          .001
      06103  0634 00 4 06106         SXA     *+3,4                                                            .002
      06104  0074 00 4 00011         TSX     WRFLX,4                                                          .002
      06105  0 00011 0 64526                 PBF,,7+2                                                         .002
      06106  0774 00 4 00000         AXT     **,4                                                             .002
      06107                          CLEAR   PBF,7+2                                                          .002
      06107  0774 00 1 00011         AXT     7+2,1                                                            .003
      06110  0600 00 1 64537         STZ     PBF+7+2,1                                                        .003
      06111  2 00001 1 06110         TIX     *-1,1,1                                                          .003
                                     RMT                                                                      .001
                              ..023  BCI     7, ERROR READING THE FOLLOWING FILE  -                           .001
                                     RMT                                                                      .001
      06112                          PRLINE  ( IT BELONGS TO -  ),3,2,MFDENT,MFDENT+1
      06112                          MOVE    3,..024,PBF                                                      .001
      06112  0774 00 1 00003         AXT     3,1                                                              .002
      06113 -0500 00 1 06504         CAL     ..024+3,1                                                        .002
      06114  0602 00 1 64531         SLW     PBF+3,1                                                          .002
      06115  2 00001 1 06113         TIX     *-2,1,1                                                          .002
      06116 -0500 00 0 64510         CAL     MFDENT                                                           .001
      06117  0602 00 0 64531         SLW     PBF+3                                                            .001
      06120 -0500 00 0 64511         CAL     MFDENT+1                                                         .001
      06121  0602 00 0 64532         SLW     PBF+3+1                                                          .001
      06122                          PRBUFF  PBF,3+2                                                          .001
      06122  0634 00 4 06125         SXA     *+3,4                                                            .002
      06123  0074 00 4 00011         TSX     WRFLX,4                                                          .002
      06124  0 00005 0 64526                 PBF,,3+2                                                         .002
      06125  0774 00 4 00000         AXT     **,4                                                             .002
      06126                          CLEAR   PBF,3+2                                                          .002
      06126  0774 00 1 00005         AXT     3+2,1                                                            .003
      06127  0600 00 1 64533         STZ     PBF+3+2,1                                                        .003
      06130  2 00001 1 06127         TIX     *-1,1,1                                                          .003
                                     RMT                                                                      .001
                              ..024  BCI     3, IT BELONGS TO -                                               .001
                                     RMT                                                                      .001
      06131                          PRLINE  ( MOVING ON TO HIS NEXT FILE.  ),5,0
      06131                          MOVE    5,..027,PBF                                                      .001
      06131  0774 00 1 00005         AXT     5,1                                                              .002
      06132 -0500 00 1 06511         CAL     ..027+5,1                                                        .002
      06133  0602 00 1 64533         SLW     PBF+5,1                                                          .002
      06134  2 00001 1 06132         TIX     *-2,1,1                                                          .002
      06135                          PRBUFF  PBF,5+0                                                          .001
      06135  0634 00 4 06140         SXA     *+3,4                                                            .002
      06136  0074 00 4 00011         TSX     WRFLX,4                                                          .002
      06137  0 00005 0 64526                 PBF,,5+0                                                         .002
      06140  0774 00 4 00000         AXT     **,4                                                             .002
      06141                          CLEAR   PBF,5+0                                                          .002
      06141  0774 00 1 00005         AXT     5+0,1                                                            .003
      06142  0600 00 1 64533         STZ     PBF+5+0,1                                                        .003
      06143  2 00001 1 06142         TIX     *-1,1,1                                                          .003
                                     RMT                                                                      .001
                              ..027  BCI     5, MOVING ON TO HIS NEXT FILE.                                   .001
1            MISCELLANEOUS FILE READ/WRITE ROUTINES....M.J.BAILEY,11/15/64       05/11/69 2011.6 PAGE 18

                                     RMT                                                                      .001
      06144                          MOVE    5,ERSTAT,PBF
      06144  0774 00 1 00005         AXT     5,1                                                              .001
      06145 -0500 00 1 00052         CAL     ERSTAT+5,1                                                       .001
      06146  0602 00 1 64533         SLW     PBF+5,1                                                          .001
      06147  2 00001 1 06145         TIX     *-2,1,1                                                          .001
      06150                          PRBUFF  PBF,5
      06150  0634 00 4 06153         SXA     *+3,4                                                            .001
      06151  0074 00 4 00011         TSX     WRFLX,4                                                          .001
      06152  0 00005 0 64526                 PBF,,5                                                           .001
      06153  0774 00 4 00000         AXT     **,4                                                             .001
      06154                          CLEAR   PBF,5                                                            .001
      06154  0774 00 1 00005         AXT     5,1                                                              .002
      06155  0600 00 1 64533         STZ     PBF+5,1                                                          .002
      06156  2 00001 1 06155         TIX     *-1,1,1                                                          .002
      06157  0534 00 4 06063         LXA     RDD,4
      06160  1 00001 4 06064         TXI     RDDA,4,1      GO TAKE ERROR EXIT (3,4)

                              *
                              * . . . . . . . . . . . . . . . . . . . . . . . . . . . . . . . . . . .
                              *   READ NEXT U.F.D. ENTRY FROM BUFFER UBUF INTO UFDENT THROUGH UFDENT+5
                              *    (WHEN UBUF IS EMPTIED, REFILL IT FROM OUR COPY OF UFD FILE)
                              *
                              *    CALLING SEQUENCES -  1. TO INITIALISE,   TSX  IENUFD,4
                              *                                              (ERROR RETURN)
                              *                                              (NORMAL RETURN)
                              *
                              *                         2. NORMAL ENTRY,    TSX  ENTUFD,4
                              *                                              (ERROR RETURN)
                              *                                              (NORMAL RETURN)
                              * . . . . . . . . . . . . . . . . . . . . . . . . . . . . . . . . . . .
                              *
      06161  0500 00 0 06161  IENUFD CLA     *             ZERO CFDEOF INDICATES PHYSICAL EOF
      06162  0601 00 0 00053         STO     CFDEOF        HAS OCCURRED IN OUR COPY OF CURRENT UFD.
      06163  0601 00 0 62747         STO     UFDEOF        ZERO UFDEOF INDICATES LAST ENTRY BEEN READ
      06164  0601 00 0 00054         STO     SW            SET SWITCH NON-ZERO
      06165  0500 00 0 06560         CLA     =4            UFDC POINTS TO NEXT UNREAD ENTRY IN
      06166  0601 00 0 62736         STO     UFDC          OUR COPY OF THE UFD FILE
      06167  0634 00 1 06221         SXA     EUD,1
      06170  0634 00 2 06222         SXA     EUE,2
      06171  0634 00 4 06220         SXA     EUCA,4
      06172  0020 00 0 06230         TRA     EUG
                              *
                              *      NORMAL ENTRY
                              *
      06173  0634 00 1 06221  ENTUFD SXA     EUD,1
      06174  0634 00 2 06222         SXA     EUE,2
      06175  0634 00 4 06220         SXA     EUCA,4
      06176  0500 00 0 00736         CLA     UBADR         PREPARE ADDRESS
      06177  0400 00 0 00052         ADD     CFDC          OF 6TH WORD OF
      06200  0621 00 0 06202         STA     EUA           NEXT UFD ENTRY IN UBUF
      06201  0774 00 1 00006         AXT     6,1
      06202  0500 00 1 00000   EUA   CLA     **,1          MOVE 1ST 6 WORDS OF UFD ENTRY FROM
      06203  0601 00 1 62747         STO     UFDENT+6,1    UBUF+CFDC-1 ET SEQ TO UFDENT ET SEQ
      06204  2 00001 1 06202         TIX     EUA,1,1
                              *
1            MISCELLANEOUS FILE READ/WRITE ROUTINES....M.J.BAILEY,11/15/64       05/11/69 2011.6 PAGE 19

      06205  0500 00 0 06556  EUB    CLA     =1            P
      06206  0400 00 0 06562         ADD     =6            6+P
      06207  0400 00 0 00052         ADD     CFDC          CFDC+6+P
      06210  0601 00 0 00052         STO     CFDC          UPDATE CFDC BY (6+P) FOR NEXT TIME
                              *
      06211 -0520 00 0 00053         NZT     CFDEOF        HAS PHYSICAL EOF OCCURRED IN UFD FILE
      06212  0020 00 0 06253         TRA     EUJ           YES, SKIP
      06213  0500 00 0 00735         CLA     LUBSIZ        NO, SEE IF AT LEAST 6 WORDS LEFT IN UBUF
      06214  0402 00 0 06561         SUB     =5            FOR NEXT TIME
      06215  0402 00 0 00052         SUB     CFDC
      06216 -0120 00 0 06224         TMI     EUF           NO, SKIP IF CFDC .GR. (LUBSIZ-5)
      06217  0600 00 0 00054   EUC   STZ     SW            O.K., CFDC .LE. (LUBSIZ-5), ZEROISE SWITCH
      06220  0774 00 4 00000   EUCA  AXT     **,4
      06221  0774 00 1 00000   EUD   AXT     **,1
      06222  0774 00 2 00000   EUE   AXT     **,2
      06223  0020 00 4 00002         TRA     2,4           RETURN TO CALLER
                              *
      06224  0500 00 0 62736   EUF   CLA     UFDC          LESS THAN 6 WORDS LEFT IN UBUF, PREPARE
      06225  0400 00 0 00052         ADD     CFDC          TO REFILL IT -  UPDATE PHYSICAL
      06226  0402 00 0 06556         SUB     =1                            FILE POINTER.
      06227  0601 00 0 62736         STO     UFDC
                              *
      06230  0500 00 0 06556  EUG    CLA     =1            RESET CFDC TO 1
      06231  0601 00 0 00052         STO     CFDC
      06232  0074 00 4 00016         TSX     $GDSIG,4
      06233  0074 00 4 00000         TSX     ATTACH,4
 TD   06234  3 00000 0 64510         TXH     MFDENT
 TD   06235  3 00000 0 64511         TXH     MFDENT+1
      06236  0074 00 4 00005         TSX     RDFILE,4      REFILL UBUF FROM OUR COPY OF UFD FILE
 TD   06237  3 00000 0 00042         TXH     UFDNAM
 TD   06240  3 00000 0 00043         TXH     UFDNAM+1
 TD   06241  3 00000 0 62736         TXH     UFDC
      06242  2 00735 0 00055         TIX     UBUF,,LUBSIZ
 TD   06243  3 00000 0 06252         TXH     EUI           EOF TRANSFER ADDRESS
 TD   06244  3 00000 0 00737         TXH     EOFCTB
      06245  0074 00 4 00006  EUH    TSX     FWAIT,4       WAIT UNTIL TRANSMISSION COMPLETION
 TD   06246  3 00000 0 00042         TXH     UFDNAM
 TD   06247  3 00000 0 00043         TXH     UFDNAM+1
 TD   06250  3 00000 0 06403         TXH     EUM           ERROR
      06251  0020 00 0 06217         TRA     EUC           WAIT SOME MORE
                              *
      06252  0600 00 0 00053   EUI   STZ     CFDEOF        EOF
      06253  0500 00 0 00737   EUJ   CLA     EOFCTB        PHYSICAL EOF HAS BEEN DETECTED IN UFD FILE
      06254  0402 00 0 06561         SUB     =5            ARE THERE ENOUGH WORDS LEFT IN IT
      06255  0402 00 0 00052         SUB     CFDC          FOR ANOTHER ENTRY
      06256  0120 00 0 06245         TPL     EUH           CFDC .LESS. EOFCT-5, ENOUGH LEFT, GO EXIT
      06257  0400 00 0 06562         ADD     =6            NO, NO MORE ENTRIES, CHECK THAT
      06260 -0100 00 0 06271         TNZ     EUK           CFDC=EOFCT+1 .  ERROR IF NOT, SKIP
      06261  0600 00 0 62747         STZ     UFDEOF        INDICATE THIS WAS LAST ENTRY
      06262 -0520 00 0 00054         NZT     SW            FILE WAS EMPTY IF SWITCH STILL NON-ZERO
      06263  0020 00 0 06245         TRA     EUH           IT WAS NOT EMPTY, GO EXIT
                                             ERROR TREATMENT
      06264                          BGNERM  =HCUFD01
      06264  0634 00 4 06267         SXA     *+3,4                                                            .001
      06265  0074 00 4 00017         TSX     $BERM,4                                                          .001
      06266  0 00000 0 06571         PZE     =HCUFD01                                                         .001
1            MISCELLANEOUS FILE READ/WRITE ROUTINES....M.J.BAILEY,11/15/64       05/11/69 2011.6 PAGE 20

      06267  0774 00 4 00000         AXT     **,4                                                             .001
      06270  0020 00 0 06275         TRA     EUL
      06271                    EUK   BGNERM  =HCUFD02
      06271  0634 00 4 06274         SXA     *+3,4                                                            .001
      06272  0074 00 4 00017         TSX     $BERM,4                                                          .001
      06273  0 00000 0 06572         PZE     =HCUFD02                                                         .001
      06274  0774 00 4 00000         AXT     **,4                                                             .001
      06275                   EUL    PRLINE  ( E.O.F. DETECTED IN WRONG PLACE IN DUMP PROGRAM'S COPY),
                                     ETC     9,0
      06275                          MOVE    9,..030,PBF                                                      .001
      06275  0774 00 1 00011         AXT     9,1                                                              .002
      06276 -0500 00 1 06522         CAL     ..030+9,1                                                        .002
      06277  0602 00 1 64537         SLW     PBF+9,1                                                          .002
      06300  2 00001 1 06276         TIX     *-2,1,1                                                          .002
      06301                          PRBUFF  PBF,9+0                                                          .001
      06301  0634 00 4 06304         SXA     *+3,4                                                            .002
      06302  0074 00 4 00011         TSX     WRFLX,4                                                          .002
      06303  0 00011 0 64526                 PBF,,9+0                                                         .002
      06304  0774 00 4 00000         AXT     **,4                                                             .002
      06305                          CLEAR   PBF,9+0                                                          .002
      06305  0774 00 1 00011         AXT     9+0,1                                                            .003
      06306  0600 00 1 64537         STZ     PBF+9+0,1                                                        .003
      06307  2 00001 1 06306         TIX     *-1,1,1                                                          .003
                                     RMT                                                                      .001
                              ..030  BCI     9, E.O.F. DETECTED IN WRONG PLACE IN DUMP PROGRAM'S COPY         .001
                                     RMT                                                                      .001
      06310                          PRLINE  (  OF THE U.F.D. FOR THE FOLLOWING USER -  ),7,0
      06310                          MOVE    7,..033,PBF                                                      .001
      06310  0774 00 1 00007         AXT     7,1                                                              .002
      06311 -0500 00 1 06531         CAL     ..033+7,1                                                        .002
      06312  0602 00 1 64535         SLW     PBF+7,1                                                          .002
      06313  2 00001 1 06311         TIX     *-2,1,1                                                          .002
      06314                          PRBUFF  PBF,7+0                                                          .001
      06314  0634 00 4 06317         SXA     *+3,4                                                            .002
      06315  0074 00 4 00011         TSX     WRFLX,4                                                          .002
      06316  0 00007 0 64526                 PBF,,7+0                                                         .002
      06317  0774 00 4 00000         AXT     **,4                                                             .002
      06320                          CLEAR   PBF,7+0                                                          .002
      06320  0774 00 1 00007         AXT     7+0,1                                                            .003
      06321  0600 00 1 64535         STZ     PBF+7+0,1                                                        .003
      06322  2 00001 1 06321         TIX     *-1,1,1                                                          .003
                                     RMT                                                                      .001
                              ..033  BCI     7,  OF THE U.F.D. FOR THE FOLLOWING USER -                       .001
                                     RMT                                                                      .001
      06323                          PRLINE  (                        PROBLEM NO. ),6,1,MFDENT
      06323                          MOVE    6,..035,PBF                                                      .001
      06323  0774 00 1 00006         AXT     6,1                                                              .002
      06324 -0500 00 1 06537         CAL     ..035+6,1                                                        .002
      06325  0602 00 1 64534         SLW     PBF+6,1                                                          .002
      06326  2 00001 1 06324         TIX     *-2,1,1                                                          .002
      06327 -0500 00 0 64510         CAL     MFDENT                                                           .001
      06330  0602 00 0 64534         SLW     PBF+6                                                            .001
      06331                          PRBUFF  PBF,6+1                                                          .001
      06331  0634 00 4 06334         SXA     *+3,4                                                            .002
      06332  0074 00 4 00011         TSX     WRFLX,4                                                          .002
      06333  0 00007 0 64526                 PBF,,6+1                                                         .002
1            MISCELLANEOUS FILE READ/WRITE ROUTINES....M.J.BAILEY,11/15/64       05/11/69 2011.6 PAGE 21

      06334  0774 00 4 00000         AXT     **,4                                                             .002
      06335                          CLEAR   PBF,6+1                                                          .002
      06335  0774 00 1 00007         AXT     6+1,1                                                            .003
      06336  0600 00 1 64535         STZ     PBF+6+1,1                                                        .003
      06337  2 00001 1 06336         TIX     *-1,1,1                                                          .003
                                     RMT                                                                      .001
                              ..035  BCI     6,                        PROBLEM NO.                            .001
                                     RMT                                                                      .001
      06340                          PRLINE  (                     PROGRAMMER NO. ),6,1,MFDENT+1
      06340                          MOVE    6,..037,PBF                                                      .001
      06340  0774 00 1 00006         AXT     6,1                                                              .002
      06341 -0500 00 1 06545         CAL     ..037+6,1                                                        .002
      06342  0602 00 1 64534         SLW     PBF+6,1                                                          .002
      06343  2 00001 1 06341         TIX     *-2,1,1                                                          .002
      06344 -0500 00 0 64511         CAL     MFDENT+1                                                         .001
      06345  0602 00 0 64534         SLW     PBF+6                                                            .001
      06346                          PRBUFF  PBF,6+1                                                          .001
      06346  0634 00 4 06351         SXA     *+3,4                                                            .002
      06347  0074 00 4 00011         TSX     WRFLX,4                                                          .002
      06350  0 00007 0 64526                 PBF,,6+1                                                         .002
      06351  0774 00 4 00000         AXT     **,4                                                             .002
      06352                          CLEAR   PBF,6+1                                                          .002
      06352  0774 00 1 00007         AXT     6+1,1                                                            .003
      06353  0600 00 1 64535         STZ     PBF+6+1,1                                                        .003
      06354  2 00001 1 06353         TIX     *-1,1,1                                                          .003
                                     RMT                                                                      .001
                              ..037  BCI     6,                     PROGRAMMER NO.                            .001
                                     RMT                                                                      .001
      06355                          PRLINE  ( ABANDONING THIS USER IN THE CURRENT DUMP CYCLE.),8,0
      06355                          MOVE    8,..040,PBF                                                      .001
      06355  0774 00 1 00010         AXT     8,1                                                              .002
      06356 -0500 00 1 06555         CAL     ..040+8,1                                                        .002
      06357  0602 00 1 64536         SLW     PBF+8,1                                                          .002
      06360  2 00001 1 06356         TIX     *-2,1,1                                                          .002
      06361                          PRBUFF  PBF,8+0                                                          .001
      06361  0634 00 4 06364         SXA     *+3,4                                                            .002
      06362  0074 00 4 00011         TSX     WRFLX,4                                                          .002
      06363  0 00010 0 64526                 PBF,,8+0                                                         .002
      06364  0774 00 4 00000         AXT     **,4                                                             .002
      06365                          CLEAR   PBF,8+0                                                          .002
      06365  0774 00 1 00010         AXT     8+0,1                                                            .003
      06366  0600 00 1 64536         STZ     PBF+8+0,1                                                        .003
      06367  2 00001 1 06366         TIX     *-1,1,1                                                          .003
                                     RMT                                                                      .001
                              ..040  BCI     8, ABANDONING THIS USER IN THE CURRENT DUMP CYCLE.               .001
                                     RMT                                                                      .001
      06370                          MOVE    5,ERSTAT,PBF
      06370  0774 00 1 00005         AXT     5,1                                                              .001
      06371 -0500 00 1 00052         CAL     ERSTAT+5,1                                                       .001
      06372  0602 00 1 64533         SLW     PBF+5,1                                                          .001
      06373  2 00001 1 06371         TIX     *-2,1,1                                                          .001
      06374                          PRBUFF  PBF,5
      06374  0634 00 4 06377         SXA     *+3,4                                                            .001
      06375  0074 00 4 00011         TSX     WRFLX,4                                                          .001
      06376  0 00005 0 64526                 PBF,,5                                                           .001
      06377  0774 00 4 00000         AXT     **,4                                                             .001
1            MISCELLANEOUS FILE READ/WRITE ROUTINES....M.J.BAILEY,11/15/64       05/11/69 2011.6 PAGE 22

      06400                          CLEAR   PBF,5                                                            .001
      06400  0774 00 1 00005         AXT     5,1                                                              .002
      06401  0600 00 1 64533         STZ     PBF+5,1                                                          .002
      06402  2 00001 1 06401         TIX     *-1,1,1                                                          .002
      06403  0534 00 4 06220  EUM    LXA     EUCA,4
      06404  1 00001 4 06221         TXI     EUD,4,1
                              *
                                     INSERT  DCMEQB
                              *
                              *  .  .  .  .  .  .  .  .  .  .  .  .  .  .  .  .  .  .
                              *    COMMON AND EQUIVALENCE FOR GENERAL DUMP PROGRAM
                              *  .  .  .  .  .  .  .  .  .  .  .  .  .  .  .  .  .  .
                              *
                      074446  DEMKEY BOOL    74446         CORE A LOCATION FOR DAEMON'S KEY SETTING
                      074624  SYSTIM BOOL    74624         CORE A LOCATION FOR SYSTEM  TIME
                      074623  SYSDAT BOOL    74623         CORE A LOCATION FOR SYSTEM INIT. DATE
                      076041  RCODE  BOOL    76041         CORE A LOCATION FOR RESTRICTION CODE VECTOR
                      074454  AUTOND BOOL    74454         CORE A AUTOMATIC LOGOUT INDICATOR
                      074532  NUSERS BOOL    74532         CORE A LOGGED-IN USER COUNT
                      076500  PROBN  BOOL    76500         CORE A PROBNO ARRAY
                      076305  UFDNM  BOOL    76305         CORE A UFDNM ARRAY
                      074672  PB     BOOL    74672         CORE A GUARANTEED PERCENTAGE VECTOR BASE
                       00050  N      EQU     40            CORE A MAX. NO. OF USERS (SIZE OF PROBN)
                              *
                      000017  BASE   BOOL    17            KEY CODE BASE
                      000001  I      BOOL    1             KEY CODE TO START INCREMENTAL DUMP
                      000002  PAUSE  BOOL    2             KEY CODE TO WAIT FOR 1 MIN.
                      000003  C      BOOL    3             KEY CODE TO DO COMPLETE DUMP
                      000004  AK     BOOL    4             KEY CODE FOR IMPENDING AUTOLOGOUT
                      000005  ENFLSH BOOL    5             KEY CODE TO ENTER FLUSH MODE
                      000006  LVFLSH BOOL    6             KEY CODE TO LEAVE FLUSH MODE
                      000007  ENDTAP BOOL    7             KEY CODE TO TERMINATE DUMP TAPE FILE
                      000010  INT    BOOL    10            SIMULATE INTERRUPT
                       00660  RECSIZ EQU     432           TAPE RECORD SIZE
                       00006   NX    EQU     6             MAX. NO. OF SYSTEM FILE OWNERS
                       00030  NCD    EQU     24            MAX. NO. 'DAYS' NON-USE OF CURRENT FILES
                       00014  DINC   EQU     12            NO. DAYS OF 'RECENCY' INCREMENT (C.DUMP)
                       01274  U      EQU     700           MAX. NO. USERS IN MFD USER LIST
                       03300  TBSIZ  EQU     4*RECSIZ      TAPE BUFFER SIZE
                       00007  ERYSIZ EQU     7             I/O SYSTEM ERROR ARRAY SIZE
                       00014  ERCODA EQU     12            'OPEN' ERROR CODE FOR FILE NOT FOUND
                       00016  ERCODB EQU     14            'OPEN' ERROR CODE RQSTD. DEVICE UNAVBLE
                       00660  NW     EQU     432           SIZE OF SECONDARY I/O FILE BUFFERS
                       00001  LSDRUM EQU     1             I/O SYSTEM DEVICE CODE FOR L.S.DRUM
                       00002    DISK EQU     2             I/O SYSTEM DEVICE CODE FOR DISK
                       00003   TAPE  EQU     3             I/O SYSTEM DEVICE CODE FOR TAPE
                       00030  NHOUR  EQU     24            NO. OF HOURS IN A 'DAY'
                       77461  KEYVAL COMMON  1             LAST KEY SETTING READ FROM SUPERVISOR
                       77460  FLSHSW COMMON  1             FLUSH MODE SWITCH
                       77457  ENTPSW COMMON  1             OPERATOR-REQUESTED-END-TAPE INDICATOR
                       77456  NMFDU  COMMON  1             NO. USERS CURRENTLY IN LIST
                       77455  EXEMPT COMMON  2*NX          LIST OF SYSTEM FILE OWNERS
                       77441  NXMPT  COMMON  1             NO. FILE USERS EXEMPT FROM DUMP IN DCYCLE
                       77440  DTLD   COMMON  U             TIME LAST DUMPED FOR EACH USER
                       76144  PROGNO COMMON  U             PROGRAMMER NO. OF EACH USER
                       74650  PROBNO COMMON  U             PROBLEM NO. OF EACH USER
1            MISCELLANEOUS FILE READ/WRITE ROUTINES....M.J.BAILEY,11/15/64       05/11/69 2011.6 PAGE 23

                       73354   FLUSH COMMON  1             NON-ZERO INDICATES FLUSH MODE IS FORCED
                       73353   TND   COMMON  1             TIME OF NEXT DUMP FOR CURRENT USER
                       70053         COMMON  TBSIZ-1       TAPE BUFFER
                       70053  TPBUF  COMMON  1             TAPE BUFFER 1ST WORD
                       64553         COMMON  TBSIZ-1       2ND TAPE BUFFER
                       64553  TPBUF2 COMMON  1             2ND TAPE BUFFER, 1ST WORD
                       64544         COMMON  ERYSIZ-1      ERROR ARRAY
                       64544  ERAY   COMMON  1             ERROR ARRAY 1ST WORD
                       64526         COMMON  13            PRINT BUFFER
                       64526   PBF   COMMON  1             PRINT BUFFER 1ST WORD
                       64510         COMMON  13            MFD ENTRY BUFFER
                       64510  MFDENT COMMON  1             MFD ENTRY BUFFER 1ST WORD
                       63630         COMMON  NW-1          SECONDARY I/0 FILE BUFFER
                       63630   IOBUF COMMON  1             SECONDARY IO BUFFER 1ST WORD
                       62750         COMMON  NW-1          SECONDARY I/O FILE BUFFER
                       62750  IOBUF2 COMMON  1             SECONDARY I/O BUFFER 1ST WORD
                       62747  UFDEOF COMMON  1             ZERO INDICATES EOF IN UFD FILE
                       62741         COMMON  5             PARTIAL UFD ENTRY BUFFER
                       62741  UFDENT COMMON  1             PARTIAL UFD ENTRY BUFFER 1ST WORD
                       62740   MFDC  COMMON  1             NEXT WORD TO BE READ FROM MFD FILE
                       62737   TLD   COMMON  1             TIME LAST DUMP OF USER CURRENTLY DUMPING
                       62736   UFDC  COMMON  1             NEXT UNREAD POS. OF UFDFILE (NORMALLY ZERO)
                       62735  MFDEOF COMMON  1             ZERO INDICATES EOF IN MFD FILE
                       62734   EOFCT COMMON  1             NO. OF WORDS READ BEFORE AN EOF
                       62733   FEOF  COMMON  1             ZERO INDICATES EOF IN A USER FILE
                       62732  EOFCTA COMMON  1             NO. OF WORDS BEFORE AN EOF
                       62731   DMPSW COMMON  1             NON-ZERO INDICATES A FILE HAS BEEN DUMPED
                       62730   DAWN  COMMON  1             TIME OF START OF 'DAY'
                       62727  DMPUSR COMMON  1             PROBLEM NO. OF DUMP/LOAD PACKAGE
                       62726  DMPRGR COMMON  1             PROGRAMMER NO. OF  DITTO.
                       62727  DU     EQU     DMPUSR
                       62726  DP     EQU     DMPRGR
                       62725   MFD1W COMMON  1             NO. OF 1ST GOOD WORD IN MFD AND UFD FILES
                       62723         COMMON  1             2ND PART OF DUMP TAPE FILE (COPY 1) NAME
                       62723  NFN1   COMMON  1             1ST PART OF DUMP TAPE FILE (COPY 1) NAME
                       62721         COMMON  1             2ND PART OF DUMP TAPE FILE (COPY 2) NAME
                       62721   NFN2  COMMON  1             1ST PART OF DUMP TAPE FILE (COPY 2) NAME
                       62720  TNDSW  COMMON  1             INDICATES TIME OF THIS DUMP CURRENT OR NO
                       62040         COMMON  RECSIZ-1      INTERNAL TAPE BUFFER
                       62040   ITB1  COMMON  1                ,,     ,,    ,,  1ST WORD
                       61160         COMMON  RECSIZ-1      INTERNAL TAPE BUFFER
                       61160   ITB2  COMMON  1                ,,     ,,  ,,  1ST WORD
                       61157   DUSK  COMMON  1             TIME OF END OF CURRENT 'DAY'
                       61156   ENDSW COMMON  1             IF 1, NORMAL END-OF-DAY,ELSE OPERATOR ONE
                       60276         COMMON  NW-1          INTERNAL BUFFER FOR 'MAP' FILE
                       60276    IMP  COMMON  1                ,,      ,,    ,,   ,,   ,,  1ST WORD
                       60267         COMMON  6             'MAP' FILE LINE PARAMETER ARRAY
                       60267  ARGLST COMMON  1               ,,   ,,   ,,      ,,      ,,  1ST WORD
                       60266  CDSW   COMMON  1             NON-ZERO DURING COMPLETE DUMP,ELSE ZERO
                       60265  DATE   COMMON  1             DATE THE DUMP NOW IN PROGRESS BEGAN
                       60264  TIME   COMMON  1             TIME DUMP NOW IN PROGRESS BEGAN
                       60263  TCYCLE COMMON  1             'TIME' OF LAST CYCLE ON DUMP TAPE FILE
                       60262  TFOSW  COMMON  1             NON-ZERO IF DUMP TAPE FILE IS OPEN
                       60261  ALOG   COMMON  1             NON-ZERO IF AUTOLOGOUT ON
                       60260  SW1    COMMON  1
                       60257  TCP    COMMON  1
1            MISCELLANEOUS FILE READ/WRITE ROUTINES....M.J.BAILEY,11/15/64       05/11/69 2011.6 PAGE 24

                       60256  TNDSAV COMMON  1
                       60255  ODAWN  COMMON  1             TIME OF START OF PREVIOUS 'DAY'
                       60244         COMMON  8             TAPE LABEL
                       60244  TAPEID COMMON  1             TAPE LABEL 1ST WORD
                       60243  SKELSW COMMON  1
                       60254  REELNO EQU     TAPEID+8
                                     END
                                              REMOTE SEQUENCES
      06405  604433263324     ..003  BCI     7, M.F.D. READING ERROR - 5 OR LESS WORDS                        .001
      06406  336051252124
      06407  314527602551
      06410  514651604060
      06411  056046516043
      06412  256262606646
      06413  512462606060
      06414  604731234225     ..006  BCI     7, PICKED UP BEFORE END OF FILE IN M.F.D.                        .001
      06415  246064476022
      06416  252646512560
      06417  254524604626
      06420  602631432560
      06421  314560443326
      06422  332433606060
      06423  602551514651     ..009  BCI     5, ERROR READING M.F.D. FILE.                                    .001
      06424  605125212431
      06425  452760443326
      06426  332433602631
      06427  432533606060
      06430  602551514651     ..012  BCI     8, ERROR READING U.F.D. FILE OF FOLLOWING USER -                 .001
      06431  605125212431
      06432  452760643326
      06433  332433602631
      06434  432560462660
      06435  264643434666
      06436  314527606462
      06437  255160406060
      06440  606060606060     ..014  BCI     6,                        PROBLEM NO.                            .001
      06441  606060606060
      06442  606060606060
      06443  606060606060
      06444  475146224325
      06445  446045463360
      06446  606060606060     ..016  BCI     6,                     PROGRAMMER NO.                            .001
      06447  606060606060
      06450  606060606060
      06451  606060475146
      06452  275121444425
      06453  516045463360
      06454  602122214524     ..019  BCI     8, ABANDONING THIS USER IN THE CURRENT DUMP CYCLE.               .001
      06455  464531452760
      06456  633031626064
      06457  622551603145
      06460  606330256023
      06461  645151254563
      06462  602464444760
      06463  237023432533
      06464  602545246046     ..022  BCI     6, END OF REEL ON DUMP TAPE FILE.                                .001
1            MISCELLANEOUS FILE READ/WRITE ROUTINES....M.J.BAILEY,11/15/64       05/11/69 2011.6 PAGE 25

      06465  266051252543
      06466  604645602464
      06467  444760632147
      06470  256026314325
      06471  336060606060
      06472  602551514651     ..023  BCI     7, ERROR READING THE FOLLOWING FILE  -                           .001
      06473  605125212431
      06474  452760633025
      06475  602646434346
      06476  663145276026
      06477  314325606040
      06500  606060606060
      06501  603163602225     ..024  BCI     3, IT BELONGS TO -                                               .001
      06502  434645276260
      06503  634660406060
      06504  604446653145     ..027  BCI     5, MOVING ON TO HIS NEXT FILE.                                   .001
      06505  276046456063
      06506  466030316260
      06507  452567636026
      06510  314325336060
      06511  602533463326     ..030  BCI     9, E.O.F. DETECTED IN WRONG PLACE IN DUMP PROGRAMS COPY          .001
      06512  336024256325
      06513  236325246031
      06514  456066514645
      06515  276047432123
      06516  256031456024
      06517  644447604751
      06520  462751214462
      06521  602346477060
      06522  606046266063     ..033  BCI     7,  OF THE U.F.D. FOR THE FOLLOWING USER -                       .001
      06523  302560643326
      06524  332433602646
      06525  516063302560
      06526  264643434666
      06527  314527606462
      06530  255160406060
      06531  606060606060     ..035  BCI     6,                        PROBLEM NO.                            .001
      06532  606060606060
      06533  606060606060
      06534  606060606060
      06535  475146224325
      06536  446045463360
      06537  606060606060     ..037  BCI     6,                     PROGRAMMER NO.                            .001
      06540  606060606060
      06541  606060606060
      06542  606060475146
      06543  275121444425
      06544  516045463360
      06545  602122214524     ..040  BCI     8, ABANDONING THIS USER IN THE CURRENT DUMP CYCLE.               .001
      06546  464531452760
      06547  633031626064
      06550  622551603145
      06551  606330256023
      06552  645151254563
      06553  602464444760
      06554  237023432533
1            MISCELLANEOUS FILE READ/WRITE ROUTINES....M.J.BAILEY,11/15/64       05/11/69 2011.6 PAGE 26

        LITERALS
      06555  000000000000
      06556  000000000001
      06557  000000000002
      06560  000000000004
      06561  000000000005
      06562  000000000006
      06563  000000000012
      06564  000000000013
      06565  000000000014
      06566  000000000077
      06567  000000000120
      06570  236060606060
      06571  236426240001
      06572  236426240002
      06573  246060606060
      06574  246444476347
      06575  266621316360
      06576  306060606060
      06577  514426240001
      06600  601444214714
      06601  606060600000
1            MISCELLANEOUS FILE READ/WRITE ROUTINES....M.J.BAILEY,11/15/64       05/11/69 2011.6 PAGE 1
                        POST PROCESSOR ASSEMBLY DATA

       60242 IS THE LAST LOCATION NOT USED BY THIS PROGRAM
       6602 IS THE FIRST LOCATION NOT USED BY THIS PROGRAM

0REFERENCES TO DEFINED SYMBOLS
          3      C  6405
          1      I  6405
         50      N  6405
         44      R
       1274      U  6405
         32      W  1463, 1476
          4     AK  6405
       6032     B1  6016
       6033     B4  6015
      62726     DP  1256, 6405
      62727     DU  1255, 6405
         26     L4  1437, 1460
         27     L7  1333
        740     L8   752
        660     NW    30, 6405
          6     NX  6405
      74672     PB  6405
         54     SW  6164, 6217, 6262
       6202    EUA  6200, 6204
       6205    EUB
       6217    EUC  6251
       6221    EUD  6167, 6173, 6404
       6222    EUE  6170, 6174
       6224    EUF  6216
       6230    EUG  6172
       6245    EUH  6256, 6263
       6252    EUI  6243
       6253    EUJ  6212
       6271    EUK  6260
       6275    EUL  6270
       6403    EUM  6250
      60276    IMP  6405
         10    INT  6405
         30    NCD  6405
         37    NOP  1101
      64526    PBF  1002, 1006, 1011, 1015, 1021, 1024, 1030, 1034, 1037, 1053, 1057, 1062, 1152, 1156, 1161, 1165, 1170
                    1173, 1176, 1202, 1205, 1210, 1213, 1217, 1223, 1226, 1232, 1236, 1241, 1354, 1360, 1363, 6075, 6100
                    6102, 6105, 6110, 6114, 6117, 6121, 6124, 6127, 6133, 6137, 6142, 6146, 6152, 6155, 6277, 6303, 6306
                    6312, 6316, 6321, 6325, 6330, 6333, 6336, 6342, 6345, 6350, 6353, 6357, 6363, 6366, 6372, 6376, 6401
                    6405
       6053    RDA  6037, 6042
       6057    RDC  6066
       6063    RDD  6035, 6157
       6065    RDE  6054
       6035    RDF     0
        755    RMA   773
        767    RMB   741, 1041, 1043, 1044
        771    RMC   753
       1026    RMD  1067
       1130    RUA  1073, 1076, 1104, 1107, 1113, 1116
1            MISCELLANEOUS FILE READ/WRITE ROUTINES....M.J.BAILEY,11/15/64       05/11/69 2011.6 PAGE 2
                        POST PROCESSOR ASSEMBLY DATA

       1133    RUC  1074, 1077, 1105, 1110, 1143
       1140    RUD  1111, 1243
       1142    RUE  1131
      60260    SW1  6405
      60257    TCP  6405
      62737    TLD  6405
      73353    TND  6405
         40    TRA  1070
       1257    WNA  1324
       1270    WNB  1252, 1277
       1273    WNC  1250, 1276
       1276    WND  1271
       1305    WNE  1351, 1416
       1311    WNF  1303
       1314    WNG
       1320    WNH  1304
       1325    WNI  1246
       1326    WNJ  1245
       1330    WNK  1263, 1267
       1347    WNL  1336, 1340, 1343
       1352    WNM  1346
       1462    WNN  1474
       1475    WNO  1471, 1507
       1510    WNP  1504
       5732    WSW  1257, 1323, 1331
      60261   ALOG  6405
         17   BASE  6405
         17   BERM   775, 1046, 1145, 6070, 6265, 6272
       1120   BOTH    40, 1071, 1102
      60266   CDSW  6405
         52   CFDC  6177, 6207, 6210, 6215, 6225, 6231, 6255
      60265   DATE  6405
      62730   DAWN  6405
         14   DINC  6405
          2   DISK  6405
      77440   DTLD  6405
      61157   DUSK  6405
      64544   ERAY  1333, 1335, 1341, 1344, 6405
       1144   ERRC  1136
       1045   ERRD   760
       6067   ERRH  6056, 6062
       6220   EUCA  6171, 6175, 6403
       1551   FBUF  1274, 1311, 1320
      62733   FEOF  6065, 6405
      62040   ITB1  1513, 6405
      61160   ITB2  1517, 6405
         30   LBUF
       5755   MESA  1377, 5764
       5765   MESB  1402, 5774
       5775   MESC  1434, 6004
       6005   MESD  1455, 6014
      62740   MFDC   751,  762,  764, 6405
      62723   NFN1  1261, 1262, 1306, 1307, 1366, 1367, 1421, 1422, 1425, 1426, 1464, 1465, 1511, 1512, 1530, 1531, 1542
                    1543, 6405
      62721   NFN2  1265, 1266, 1315, 1316, 1372, 1373, 1442, 1443, 1446, 1447, 1477, 1500, 1515, 1516, 1535, 1536, 1545
1            MISCELLANEOUS FILE READ/WRITE ROUTINES....M.J.BAILEY,11/15/64       05/11/69 2011.6 PAGE 3
                        POST PROCESSOR ASSEMBLY DATA

                    1546, 6405
          3   OPEN  1462, 1475
       1547   PXR4  1417
       6064   RDDA  6160
       5750   REEL  1407
       1141   RUDA  1244
          3   TAPE    31, 6405
      60264   TIME  6405
         55   UBUF   736, 6242
      62736   UFDC  1127, 1137, 6166, 6224, 6227, 6241, 6405
       1245   WRNF     0
        746   ZENT   766
          7  CLOSE  1365, 1371
      62731  DMPSW  6405
      61156  ENDSW  6405
      62734  EOFCT   754,  772, 1132, 6405
      73354  FLUSH  6405
          6  FWAIT   755, 1133, 1260, 1264, 1541, 1544, 6057, 6245
         16  GDSIG   742, 1117, 1253, 1350, 1473, 1506, 6043, 6232
      63630  IOBUF  6405
       6405  ..003  1001
       6414  ..006  1014
       6423  ..009  1052
       6430  ..012  1151
       6440  ..014  1164
       6446  ..016  1201
       6454  ..019  1216
       6464  ..022  1353
       6472  ..023  6074
       6501  ..024  6113
       6504  ..027  6132
       6511  ..030  6276
       6522  ..033  6311
       6531  ..035  6324
       6537  ..037  6341
       6545  ..040  6356
         14  LABEL  1435, 1456
         24  LITB1  1513
         25  LITB2  1517
       5764  LMESA  1377
       5774  LMESB  1402
       6004  LMESC  1434
       6014  LMESD  1455
         31  LTAPE  1467, 1502
      62725  MFD1W  6405
         12  MOUNT  1431, 1452
         30  NHOUR  6405
      77456  NMFDU  6405
      77441  NXMPT  6405
      60255  ODAWN  6405
          2  PAUSE  6405
       5051  PHBUF  1525, 1533, 1540
      76500  PROBN  6405
      76041  RCODE  6405
        741  RDMFD     0
1            MISCELLANEOUS FILE READ/WRITE ROUTINES....M.J.BAILEY,11/15/64       05/11/69 2011.6 PAGE 4
                        POST PROCESSOR ASSEMBLY DATA

       1101  RDUFD     0, 1100
        660  RECSZ  1551, 5051, 5731
       3300  TBSIZ  6405
      60262  TFOSW  6405
      62720  TNDSW  6405
      70053  TPBUF  6405
        736  UBADR  6176
        660  UBSIZ    55,  735
      76305  UFDNM  6405
         11  WRFLX  1005, 1020, 1033, 1056, 1155, 1172, 1207, 1222, 1235, 1357, 6104, 6123, 6136, 6151, 6302, 6315, 6332
                    6347, 6362, 6375
      60267 ARGLST  6405
          0 ATTACH   743, 1121, 1254, 6044, 6233
      74454 AUTOND  6405
       6015 BINBCD  1405
          4 BUFFER  1510, 1514
         53 CFDEOF  6162, 6211, 6252
          1 DELFIL  1420, 1441
      74446 DEMKEY  6405
      62726 DMPRGR  6405
      62727 DMPUSR  6405
          7 ENDTAP  6405
          5 ENFLSH  6405
      77457 ENTPSW  6405
       6173 ENTUFD     0
      62732 EOFCTA  6055, 6405
        737 EOFCTB  6244, 6253
         14 ERCODA  6405
         16 ERCODB  6405
       5733 EREELM  1414, 5754
         20 ERREND  1065
         45 ERSTAT  1027, 1231, 6145, 6371
          7 ERYSIZ  6405
      77455 EXEMPT  6405
      77460 FLSHSW  6405
       6161 IENUFD     0
      62750 IOBUF2  6405
         15 IODIAG  1332
      77461 KEYVAL  6405
       5731 LPHSIZ  1533, 1540
       5754 LREELM  1414
          1 LSDRUM  6405
        735 LUBSIZ  6213, 6242
          6 LVFLSH  6405
      64510 MFDENT   752,  765, 1122, 1123, 1167, 1204, 6045, 6046, 6116, 6120, 6234, 6235, 6327, 6344, 6405
      62735 MFDEOF   771, 6405
         41 MFDNAM   744,  747,  756
       1070 NRDUFD     0
      74532 NUSERS  6405
         35 OURADD  1072
         33 OURUFD    35
       1417 PATCH1  1415
         21 PRNTER  1347, 1472, 1505
      74650 PROBNO  6405
      76144 PROGNO  6405
1            MISCELLANEOUS FILE READ/WRITE ROUTINES....M.J.BAILEY,11/15/64       05/11/69 2011.6 PAGE 5
                        POST PROCESSOR ASSEMBLY DATA

          5 RDFILE   746, 1124, 6047, 6236
        660 RECSIZ    24,   25, 6405
      60254 REELNO  1403, 1520, 1522, 6405
      60243 SKELSW  6405
      74623 SYSDAT  6405
      74624 SYSTIM  6405
      60244 TAPEID  1437, 1460, 1524, 6405
          2 TAPFIL  1424, 1445
      60263 TCYCLE  6405
         36 THRADD  1103
      60256 TNDSAV  6405
      64553 TPBUF2  6405
      62741 UFDENT  6050, 6051, 6060, 6061, 6077, 6101, 6203, 6405
      62747 UFDEOF  1142, 6163, 6261, 6405
         42 UFDNAM    36,  745,  750,  757, 6237, 6240, 6246, 6247
         13 UMOUNT  1375, 1400
         10 WRFILE  1305, 1314, 1410, 1527, 1534

0 NO ERROR IN ABOVE ASSEMBLY.
1            GENERAL DATE/TIME MANIPULATION ROUTINES                             05/11/69 2012.8 PAGE 1

                              *
                       00007         ENTRY   GDT
                       00005         ENTRY   GDTSYS

                       00056         ENTRY   BCDDTM        (ENTRY-PT. FOR BCD TIME IN AC DATE IN MQ)

                       00134         ENTRY   ADDTIM        ADD TO I/O SYSTEM DATE/TIME

                       00132         ENTRY   ADDDAY        ADD 1 DAY TO I/O SYSTEM DATE/TIME IN LAC

                       00247         ENTRY   SUBDAY        SUBTRACT N DAYS FROM DITTO IN LOGICAL AC

                       00130         ENTRY   CNVDT         CONVERT TO I/O SYSTEM DATE/TIME

                       00274         ENTRY   IOBDT         CONVERT FROM I/O SYSTEM TO BCD
                              *
                                     EXTERN  GETIME


                              *
                              *   RETURN CURRENT DATE AND TIME IN I/O SYSTEM FORM IN AC
                              *                            (VIA GETIME)
                              *      FORMAT  -
                              *                BITS S,1-8   (YEAR-400)MODULO(500)
                              *                BITS  9-12   MONTH
                              *                BITS 13-17   DAY
                              *                BITS 18-35   NO. OF SECS. ELAPSED SINCE MIDNIGHT
                              *

        TRANSFER VECTOR
      00000  272563314425     GETIME
      00001  622563416443     SETJUL
      00002  622563314663     SETIOT

            LINKAGE DIRECTOR
      00003  000000000000
      00004  272463606060

      00005  0634 00 4 00033  GDTSYS SXA     GDTA,4
      00006  0020 00 0 00011         TRA     *+3
      00007  0634 00 4 00033   GDT   SXA     GDTA,4
      00010  0074 00 4 00000         TSX     GETIME,4
      00011  0602 00 0 00037         SLW     GDTM          SAVE TIME FROM AC
      00012  0634 00 1 00034         SXA     GDTB,1
      00013  0074 00 4 00040         TSX     TWODIG,4      GET MONTH (4 BITS) FROM BCD 'MMDDYY' IN MQ
      00014  0767 00 0 00005         ALS     5
      00015  0602 00 0 00036         SLW     GDTD
      00016  0074 00 4 00040         TSX     TWODIG,4      GET DAY (5 BITS) FROM BCD 'DDYY' IN MQ
      00017 -0320 00 0 00354         ANA     =O37
      00020 -0602 00 0 00036         ORS     GDTD          MONTH (4 BITS),DAY (5 BITS) IN GDTD
      00021  0074 00 4 00040         TSX     TWODIG,4      GET YEAR (9 BITS) FROM BCD 'YY' IN MQ
      00022 -0320 00 0 00361         ANA     =O777
      00023  0767 00 0 00011         ALS     9
      00024 -0602 00 0 00036         ORS     GDTD          YEAR (9 BITS),MONTH(4),DAY(5) IN GDTD
 T    00025 -0754 00 0 00000         PXD
      00026  0560 00 0 00037         LDQ     GDTM          TIME IS IN 1/60THS OF A SEC.
1            GENERAL DATE/TIME MANIPULATION ROUTINES                             05/11/69 2012.8 PAGE 2

      00027  0220 00 0 00356         DVH     =60           GET IT IN SECONDS
      00030 -0763 00 0 00022         LGL     18            TIME IN SECS. IN MQ LEFT-HALF
      00031 -0500 00 0 00036         CAL     GDTD
      00032 -0763 00 0 00022         LGL     18            YEAR,MONTH,DAY,TIME IN LOGICAL AC
      00033  0774 00 4 00000   GDTA  AXT     **,4
      00034  0774 00 1 00000   GDTB  AXT     **,1
      00035  0020 00 4 00001         TRA     1,4           RETURN
                              *
      00036  0 00000 0 00000   GDTD  PZE     **
      00037  0 00000 0 00000   GDTM  PZE     **
                              *
 T    00040 -0754 00 0 00000  TWODIG PXD                   CONVERT 1ST 2 DIGITS OF BCD MQ
                                                           TO BINARY IN AC ADDRESS
      00041  0600 00 0 00055         STZ     TENS
      00042 -0763 00 0 00006         LGL     6             1ST DIGIT
      00043  0100 00 0 00052         TZE     *+7
      00044  0734 00 1 00000         PAX     0,1
 T    00045 -0754 00 0 00000         PXD
      00046  0400 00 0 00350         ADD     =10
      00047  2 00001 1 00046         TIX     *-1,1,1
      00050  0602 00 0 00055         SLW     TENS          TENS DIGIT X 10
 T    00051 -0754 00 0 00000         PXD
      00052 -0763 00 0 00006         LGL     6             UNITS DIGIT
      00053  0400 00 0 00055         ADD     TENS          ADD 10 X TENS DIGIT TO UNITS DIGIT
      00054  0020 00 4 00001         TRA     1,4           RETURN TO CALLER
      00055  0 00000 0 00000   TENS  PZE     **
                              *
                              *      ENTRY TO RETURN TIME IN AC IN BCD AS HHMM.M
                              *             AND DATE IN MQ AS MMDDYY VIA GETIME.
                              *
      00056  0634 00 4 00107  BCDDTM SXA     TPWATX,4
      00057  0074 00 4 00000         TSX     GETIME,4      TIME IN 1/60TH'S OF SEC. IN AC
      00060  0131 00 0 00000         XCA                   TIME TO MQ, DATE TO AC
      00061  0601 00 0 00125         STO     DATE.         SAVE DATE
      00062 -0754 00 0 00000   BCA   ZAC
      00063  0221 00 0 00362         DVP     =216000       FIND HOUR
      00064  0601 00 0 00127         STO     MIN.          SAVE REMAINDER (MINUTES)
      00065  0074 00 4 00111         TSX     BINBCD,4      CONVERT HOURS TO BCD
      00066 -0765 00 0 00006         LGR     6
      00067 -0100 00 0 00071         TNZ     *+2
      00070 -0500 00 0 00355         CAL     =O60          REPLACE LEADING ZERO WITH BLANK
      00071 -0763 00 0 00006         LGL     6
      00072  0767 00 0 00030         ALS     24            LEAVE ROOM FOR MINUTE
      00073  0602 00 0 00126         SLW     HOUR.         SAVE HOUR
      00074  0560 00 0 00127         LDQ     MIN.          MINUTE
      00075 -0754 00 0 00000         ZAC
      00076  0221 00 0 00360         DVP     =360          FIND NO. OF TENTHS OF MINUTES
      00077  0074 00 4 00111         TSX     BINBCD,4      CONVERT TO BCD
      00100 -0765 00 0 00006         LGR     6             TENTHS TO MQ
      00101  0767 00 0 00014         ALS     12
      00102 -0602 00 0 00126         ORS     HOUR.         ADD MINUTE TO HOUR
      00103 -0500 00 0 00353         CAL     =H00000.      PRECEDE TENTHS WITH .
      00104 -0763 00 0 00006         LGL     6             BRING BACK TENTHS
      00105 -0501 00 0 00126         ORA     HOUR.         HHMM.M IN LOGICAL AC
      00106  0560 00 0 00125         LDQ     DATE.         DATE TO MQ
      00107  0774 00 4 00000  TPWATX AXT     **,4
1            GENERAL DATE/TIME MANIPULATION ROUTINES                             05/11/69 2012.8 PAGE 3

      00110  0020 00 4 00001         TRA     1,4

      00111  0634 00 4 00122  BINBCD SXA     BNBCDX,4      BINARY TO BCD CONVERTER
      00112  0600 00 0 00124         STZ     TPLIN.
      00113  0774 00 4 00044         AXT     36,4
      00114 -0754 00 0 00000  BNBCD1 ZAC                   CONVERT INTEGER TO BCD
      00115  0221 00 0 00350         DVP     =10           ..
      00116  0767 00 4 00044         ALS     36,4          ..
      00117 -0602 00 0 00124         ORS     TPLIN.        ..
      00120  2 00006 4 00114         TIX     BNBCD1,4,6    ..
      00121 -0500 00 0 00124         CAL     TPLIN.
      00122  0774 00 4 00000  BNBCDX AXT     **,4
      00123  0020 00 4 00001         TRA     1,4
      00124  0 00000 0 00000  TPLIN. PZE                   TEMPORARY
      00125  606060606060      DATE. BCI     1,
      00126  606060606060      HOUR. BCI     1,
      00127  0 00000 0 00000   MIN.  PZE
                              *
                              *      ENTRY TO CONVERT TIME IN 1/60THS SEC. IN LAC, AND DATE (MMDDYY)
                              *      IN BCD IN MQ, TO DATE/TIME IN I/OSYSTEM FORM IN LAC.
                              *
      00130  0634 00 4 00033   CNVDT SXA     GDTA,4
      00131  0020 00 0 00011         TRA     GDT+2
                              *
                              *  TO ADD 1 DAY TO THE I/O SYSTEM DATE/TIME IN THE LOGICAL AC
                              *
      00132  0602 00 0 00036  ADDDAY SLW     GDTD
      00133  1 00001 4 00152         TXI     ADDATE+2,4,1  (RETURN TO 1,4)
                              *
                              *      TO ADD A NUMBER OF SECONDS CONTAINED IN (1,4) TO THE I/O SYSTEM
                              *      TYPE DATE/TIME IN THE LOGICAL AC, AND RETURN THE RESULTING I/O
                              *      SYSTEM DATE/TIME TO THE LOGICAL AC.
                              *         THE ADDEND MUST BE LESS THAN 24 HOURS.
                              *         (AN INCORRECT RESULT WILL BE OBTAINED AT TURN OF CENTURY)
                              *
      00134  0630 00 0 00036  ADDTIM STP     GDTD
      00135  0622 00 0 00036         STD     GDTD          SAVE DATE
      00136 -0320 00 0 00363         ANA     =O777777
      00137  0760 00 0 00003         SSP
      00140  0400 60 4 00001         ADD*    1,4
      00141  0621 00 0 00036         STA     GDTD
      00142  0625 00 0 00036         STT     GDTD          SAVE NEW TIME
      00143  0402 00 0 00230         SUB     DAYSEC
      00144  0120 00 0 00150         TPL     ADDATE        SKIP IF NOW PAST MIDNIGHT
      00145  0100 00 0 00150         TZE     ADDATE        SKIP IF NOW MIDNIGHT
      00146 -0500 00 0 00036         CAL     GDTD          SAME DATE
      00147  0020 00 4 00002         TRA     2,4           RETURN
                              *
      00150  0621 00 0 00036  ADDATE STA     GDTD
      00151  0625 00 0 00036         STT     GDTD          NEW TIME = EXCESS OVER MIDNIGHT
      00152  0560 00 0 00036         LDQ     GDTD          PREPARE TO INCREMENT DATE
 T    00153 -0754 00 0 00000         PXD
      00154 -0763 00 0 00011         LGL     9
      00155  0601 00 0 00231         STO     YEAR          SAVE YEAR
 T    00156 -0754 00 0 00000         PXD
      00157 -0763 00 0 00004         LGL     4
1            GENERAL DATE/TIME MANIPULATION ROUTINES                             05/11/69 2012.8 PAGE 4

      00160  0601 00 0 00232         STO     MONTH         SAVE MONTH
      00161  0634 00 1 00226         SXA     ADE,1
      00162  0734 00 1 00000         PAX     0,1           MONTH IN IR1
      00163 -3 00001 1 00174         TXL     ADA,1,1       SKIP IF NOT FEB.
      00164  3 00002 1 00174         TXH     ADA,1,2       SKIP IF NOT FEB.
                              *
      00165 -0500 00 0 00231         CAL     YEAR          ITS FEB., IS IT LEAP YEAR
      00166 -0765 00 0 00002         LGR     2
 T    00167 -0754 00 0 00000         PXD
      00170 -0763 00 0 00002         LGL     2
      00171 -0100 00 0 00174         TNZ     ADA           NOT LEAP YEAR, SKIP
      00172  0774 00 1 00035         AXT     29,1          FEB. AND LEAP YEAR, LAST DAY IS 29
      00173  0020 00 0 00176         TRA     ADB           SKIP
      00174 -0500 00 1 00247   ADA   CAL     MT+1,1        NOT FEB.,LEAP YEAR,GET LAST DAY OF MONTH
      00175  0734 00 1 00000         PAX     0,1
      00176 -0634 00 1 00203   ADB   SXD     ADC,1         NO. OF LAST DAY OF MONTH TO DECREMENT
 T    00177 -0754 00 0 00000         PXD
      00200 -0763 00 0 00005         LGL     5             DAY
      00201  0734 00 1 00000         PAX     0,1           IN IR1
      00202  1 00001 1 00203         TXI     *+1,1,1       DAY+1
      00203 -3 00000 1 00216   ADC   TXL     ADD,1,**      SKIP IF NO MONTH CHANGE NEEDED
                              *
      00204  0774 00 1 00001         AXT     1,1           CHANGE OF MONTH,NEW DAY IS 1ST
      00205  0500 00 0 00232         CLA     MONTH
      00206  0400 00 0 00347         ADD     =1
      00207  0601 00 0 00232         STO     MONTH         MONTH=MONTH+1
      00210  0402 00 0 00351         SUB     =13
      00211 -0120 00 0 00216         TMI     ADD           SKIP IF NO YEAR CHANGE NEEDED
                              *
      00212  0500 00 0 00347         CLA     =1            CHANGE OF YEAR,NEW MONTH IS 1ST
      00213  0601 00 0 00232         STO     MONTH
      00214  0400 00 0 00231         ADD     YEAR          ADD 1 TO YEAR
      00215  0601 00 0 00231         STO     YEAR
                              *
      00216 -0754 00 1 00000   ADD   PXD     0,1           DAY
      00217  0622 00 0 00036         STD     GDTD
      00220  0630 00 0 00036         STP     GDTD          PACK AND SAVE DAY WITH TIME
      00221 -0500 00 0 00231         CAL     YEAR
      00222  0767 00 0 00004         ALS     4             9-BIT YEAR,
      00223 -0501 00 0 00232         ORA     MONTH         AND 4-BIT MONTH TO LOGICAL AC
      00224  0767 00 0 00027         ALS     23
      00225 -0501 00 0 00036         ORA     GDTD          YEAR,MONTH,DAY,TIME IN LOGICAL AC
      00226  0774 00 1 00000   ADE   AXT     **,1
      00227  0020 00 4 00002         TRA     2,4           RETURN
                              *
      00230 +000000250600     DAYSEC OCT     250600        NO. OF SECS. IN A DAY
      00231  0 00000 0 00000   YEAR  PZE     **
      00232  0 00000 0 00000   MONTH PZE     **
      00233  0 00000 0 00037         PZE     31            DECEMBER
      00234  0 00000 0 00036         PZE     30            NOVEMBER
      00235  0 00000 0 00037         PZE     31            OCTOBER
      00236  0 00000 0 00036         PZE     30            SEPTEMBER
      00237  0 00000 0 00037         PZE     31            AUGUST
      00240  0 00000 0 00037         PZE     31            JULY
      00241  0 00000 0 00036         PZE     30            JUNE
      00242  0 00000 0 00037         PZE     31            MAY
1            GENERAL DATE/TIME MANIPULATION ROUTINES                             05/11/69 2012.8 PAGE 5

      00243  0 00000 0 00036         PZE     30            APRIL
      00244  0 00000 0 00037         PZE     31            MARCH
      00245  0 00000 0 00034         PZE     28            FEBRUARY
      00246  0 00000 0 00037   MT    PZE     31            JANUARY
                              *
                              *      SUBTRACT THE NO. OF DAYS CONTAINED IN (1,4) FROM
                              *      THE I/O SYSTEM DATE/TIME IN THE LOGICAL AC.
                              *
      00247  0634 00 1 00270  SUBDAY SXA     SBDY1,1
      00250  0634 00 4 00271         SXA     SBDY4,4
      00251  0602 00 0 00036         SLW     GDTD
      00252  0500 60 4 00001         CLA*    1,4
      00253  0734 00 1 00000         PAX     0,1           NO. OF DAYS IN IR1
      00254  0074 00 4 00001         TSX     $SETJUL,4     CONVERT AC TO JULIAN-TYPE DATE/TIME
 TD   00255  3 00000 0 00036         TXH     GDTD
 TD   00256  3 00000 0 00273         TXH     JULIAN
      00257  0500 00 0 00273         CLA     JULIAN
      00260 -3 00000 1 00263         TXL     *+3,1,0
      00261  0402 00 0 00230         SUB     DAYSEC        SUBTRACT DAYS
      00262  2 00001 1 00261         TIX     *-1,1,1
      00263  0601 00 0 00273         STO     JULIAN
      00264  0074 00 4 00002         TSX     $SETIOT,4     CONVERT RESULT TO I/O SYSTEM FORM
 TD   00265  3 00000 0 00036         TXH     GDTD
 TD   00266  3 00000 0 00273         TXH     JULIAN
      00267 -0500 00 0 00036         CAL     GDTD
      00270  0774 00 1 00000  SBDY1  AXT     **,1
      00271  0774 00 4 00000  SBDY4  AXT     **,4
      00272  0020 00 4 00002         TRA     2,4           RETURN TO CALLER
      00273  0 00000 0 00000  JULIAN PZE
                              *
                              *   CONVERT I/O SYSTEM DATE/TIME FROM LAC TO BCD TIME AND DATE --
                              *      HHMM.M (TIME) IN AC, MMDDYY (DATE) IN MQ
                              *
      00274 -0130 00 0 00000   IOBDT XCL
 T    00275 -0754 00 0 00000         PXD
      00276 -0763 00 0 00011         LGL     9             YEAR IN AC
      00277 -0600 00 0 00036         STQ     GDTD
      00300 -0130 00 0 00000         XCL                   YEAR IN MQ
 T    00301 -0754 00 0 00000         PXD
      00302  0221 00 0 00350         DVP     =10           TENS DIGIT OF YEAR IN MQ, UNITS IN AC
      00303 -0320 00 0 00352         ANA     =O17
      00304  0602 00 0 00125         SLW     DATE.         '00000Y'  OF DATE
      00305 -0130 00 0 00000         XCL
      00306 -0320 00 0 00352         ANA     =O17
      00307  0767 00 0 00006         ALS     6
      00310 -0602 00 0 00125         ORS     DATE.         '0000YY' OF DATE
      00311  0560 00 0 00036         LDQ     GDTD
 T    00312 -0754 00 0 00000         PXD
      00313 -0763 00 0 00004         LGL     4             MONTH IN AC
      00314  0601 00 0 00037         STO     GDTM
      00315  0402 00 0 00350         SUB     =10
      00316 -0120 00 0 00322         TMI     IBA
      00317  0601 00 0 00037         STO     GDTM          SAVE UNITS DIGIT OF MONTH
      00320  0500 00 0 00357         CLA     =O100
      00321  0020 00 0 00323         TRA     *+2
 T    00322 -0754 00 0 00000    IBA  PXD
1            GENERAL DATE/TIME MANIPULATION ROUTINES                             05/11/69 2012.8 PAGE 6

      00323  0400 00 0 00037         ADD     GDTM
      00324  0767 00 0 00030         ALS     24            'MM0000'
      00325 -0602 00 0 00125         ORS     DATE.         'MM00YY' OF DATE
 T    00326 -0754 00 0 00000         PXD
      00327 -0763 00 0 00005         LGL     5             DAY IN AC
      00330 -0600 00 0 00036         STQ     GDTD          SAVE THE TIME
      00331 -0130 00 0 00000         XCL                   DAY IN MQ
 T    00332 -0754 00 0 00000         PXD
      00333  0221 00 0 00350         DVP     =10           TENS DIGIT OF DAY IN MQ, UNITS IN AC
      00334 -0773 00 0 00006         RQL     6
      00335 -0600 00 0 00037         STQ     GDTM          STORE '0000D0'
      00336  0400 00 0 00037         ADD     GDTM          '0000DD' IN AC
      00337  0767 00 0 00014         ALS     12            '00DD00' IN AC
      00340 -0602 00 0 00125         ORS     DATE.         'MMDDYY' OF DATE
      00341 -0500 00 0 00036         CAL     GDTD          TIME
      00342  0771 00 0 00022         ARS     18
      00343 -0130 00 0 00000         XCL                   TIME IN SECS. IN MQ
      00344  0200 00 0 00356         MPY     =60           GET TIME IN 1/60TH'S SEC. IN MQ
      00345  0634 00 4 00107         SXA     TPWATX,4
      00346  0020 00 0 00062         TRA     BCA           GO FINISH TIME CONVERSION TO BCD 'HHMM.M'
                              *
                                     END

        LITERALS
      00347  000000000001
      00350  000000000012
      00351  000000000015
      00352  000000000017
      00353  000000000033
      00354  000000000037
      00355  000000000060
      00356  000000000074
      00357  000000000100
      00360  000000000550
      00361  000000000777
      00362  000000645700
      00363  000000777777
1            GENERAL DATE/TIME MANIPULATION ROUTINES                             05/11/69 2012.8 PAGE 1
                        POST PROCESSOR ASSEMBLY DATA

        364 IS THE FIRST LOCATION NOT USED BY THIS PROGRAM

0REFERENCES TO DEFINED SYMBOLS
        246     MT   174
        174    ADA   163,  164,  171
        176    ADB   173
        203    ADC   176
        216    ADD   203,  211
        226    ADE   161
         62    BCA   346
          7    GDT     0,  131
        322    IBA   316
         33   GDTA     5,    7,  130
         34   GDTB    12
         36   GDTD    15,   20,   24,   31,  132,  134,  135,  141,  142,  146,  150,  151,  152,  217,  220,  225,  251
                     255,  265,  267,  277,  311,  330,  341
         37   GDTM    11,   26,  314,  317,  323,  335,  336
        127   MIN.    64,   74
         55   TENS    41,   50,   53
        231   YEAR   155,  165,  214,  215,  221
        130  CNVDT     0
        125  DATE.    61,  106,  304,  310,  325,  340
        126  HOUR.    73,  102,  105
        274  IOBDT     0
        232  MONTH   160,  205,  207,  213,  223
        270  SBDY1   247
        271  SBDY4   250
        150 ADDATE   133,  144,  145
        132 ADDDAY     0
        134 ADDTIM     0
         56 BCDDTM     0
        111 BINBCD    65,   77
        114 BNBCD1   120
        122 BNBCDX   111
        230 DAYSEC   143,  261
          5 GDTSYS     0
          0 GETIME    10,   57
        273 JULIAN   256,  257,  263,  266
          2 SETIOT   264
          1 SETJUL   254
        247 SUBDAY     0
        124 TPLIN.   112,  117,  121
        107 TPWATX    56,  345
         40 TWODIG    13,   16,   21

0 NO ERROR IN ABOVE ASSEMBLY.
1            SUBROUTINE TO DUMP ONE USER'S FILES....M.J.BAILEY,11/30/64          05/11/69 2013.4 PAGE 1

                              *
                              *      DUSR DUMPS THOSE OF THE USER DEFINED BY THE PARTIAL MFD ENTRY
                              *      CONTAINED IN COMMON LOCATIONS MFDENT THROUGH MFDENT+6.
                              *        FILES WHOSE DATE/TIME LAST MODIFIED IS T, WILL BE DUMPED, WHERE
                              *      TLD IS LESS THAN OR EQUALS T AND T IS LESS THAN TND. TLD AND TND
                              *      ARE ALSO ALREADY SET IN COMMON.
                              *      DURING COMPLETE DUMPS, T IS TAKEN AS THE TIME LAST USED FOR EACH
                              *      FILE.
                              *        ONLY FILES ON DISK AND LOW-SPEED DRUM ARE CURRENTLY DUMPED.
                              *        TEMPORARY FILES ARE NOT DUMPED.
                              *
                              *              CALLING SEQUENCE -  TSX  $DUSR,4
                              *                                       (END-OF-DAY RETURN)
                              *                                       (ERROR RETURN)
                              *                                       (NORMAL RETURN)
                              *
                              *
                       00221         ENTRY   DUSR          DUMP ONE USER'S FILES
                       00215         ENTRY   DMPUFD
                       00217         ENTRY   DUSRX
                       00113         ENTRY   DMNDMP
                       00150         ENTRY   DUSR1         DUMP FILES OF USER WHOSE MFD ENTRY UNREAD
                       00120         ENTRY   DMPFIL        DUMP SPECIAL FILE
                                     EXTERN  ATTACH,TILOCK,OPEN,BUFFER,FWAIT,CLOSE
                                     EXTERN  DELFIL
                                     EXTERN  WRFILE,WRFLX,CHFILE,FSTATE,SETFIL
                              *
                                     INSERT  DMCRSA
                              *
                              *      MACRO TO WRITE N WORDS FROM ARRAY ET SEQ ONTO ALREADY OPENED
                              *      SECONDARY STORAGE FILE (NAME1,NAME2) AND WAIT UNTIL TRANSMITTED.
                              *
                               WSSF  MACRO   ARRAY,N,NAME1,NAME2
                                     TSX     ATTACH,4      RE-ATTACH TO DUMPER'S FILES
                                     TXH     DMPUSR
                                     TXH     DMPRGR
                                     TSX     WRFILE,4      WRITE
                                     TXH     NAME1         ONTO (NAME1,
                                     TXH     NAME2         NAME2)
                                     TXH     =0            AT POSITION WHERE LAST CEASED
                                     TIX     ARRAY,,N      FROM ARRAY THROUGH ARRAY+N-1
                                     TSX     FWAIT,4       WAIT
                                     TXH     NAME1
                                     TXH     NAME2
                               WSSF  END
                              *
                              *  ZERO-IZE A THROUGH A+X-1
                              *
                               CLEAR MACRO   A,X
                                     AXT     X,1
                                     STZ     A+X,1
                                     TIX     *-1,1,1
                               CLEAR END
                              *
                              *      MOVE X WORDS FROM A ET SEQ TO B ET SEQ
                              *
1            SUBROUTINE TO DUMP ONE USER'S FILES....M.J.BAILEY,11/30/64          05/11/69 2013.4 PAGE 2

                               MOVE  MACRO   X,A,B
                                     AXT     X,1
                                     CAL     A+X,1
                                     SLW     B+X,1
                                     TIX     *-2,1,1
                               MOVE  END
                              *
                              *      PRINT ONE LINE, CLEAR BUFFER
                              *
                              PRBUFF MACRO   BUFF,NWDS
                                     SXA     *+3,4
                                     TSX     WRFLX,4
                                             BUFF,,NWDS
                                     AXT     **,4
                                     CLEAR   BUFF,NWDS
                              PRBUFF END
                              *
                              *      PRINT STANDARD BEGINNING TO DUMPER ERROR MESSAGE
                              *
                              BGNERM MACRO   TYPE
                                     SXA     *+3,4
                                     TSX     $BERM,4
                                     PZE     TYPE
                                     AXT     **,4
                              BGNERM END
                              *
                              *  PRINT ONE LINE COMMENT
                              *
                              PRLINE MACRO   COMNT,NWC,N,WORD1,WORD2,LOC
                                     IFF     0,NWC,0
                                     MOVE    NWC,LOC,PBF
                                     IFF     N-2,N,1
                                     CAL     WORD1
                                     IFF     N-2,N,1
                                     SLW     PBF+NWC
                                     IFF     1,N,2
                                     CAL     WORD2
                                     IFF     1,N,2
                                     SLW     PBF+NWC+1
                                     PRBUFF  PBF,NWC+N
                                     RMT
                               LOC   BCI     NWC,COMNT
                                     RMT
                              PRLINE END
                              *
                              *      PRINT ONE LINE MESSAGE
                              *
                              PRMESS MACRO   MESNAM,N,ADR1,ADR2
                                     TSX     $PRLINE,4
                                     BCI     1,MESNAM
                                     IFF     N,N,N
                                     TXH     ADR1
                                     IFF     N,N,N
                                     TXH     ADR2
                              PRMESS END
                              *
1            SUBROUTINE TO DUMP ONE USER'S FILES....M.J.BAILEY,11/30/64          05/11/69 2013.4 PAGE 3

                              *      MACRO TO OPEN FILE (X,Y) OF USER (A,B) FOR READING
                              *      AND ASSIGN BUFFER F OF LENGTH L TO I/O SYSTEM FOR THAT PURPOSE.
                              *        ( ERR IS TRANSFER ADDRESS FOR ERROR RETURN )
                              *
                              RDOPEN MACRO   X,Y,A,B,F,L,ERR
                                     TSX     ATTACH,4      ATTACH TO USER (A,B)
                                     TXH     A
                                     TXH     B
                                     TSX     OPEN,4        OPEN FILE (X,Y) FOR READING
                                     TXH     R
                                     TXH     X
                                     TXH     Y
                                     TXH     =0
                                     TXH     =0
                                     TXH     ERR           (TRANSFER ADDRESS FOR ERROR)
                                     TSX     BUFFER,4      ASSIGN L WORDS OF BUFFER F TO (X,Y)
                                     TXH     X
                                     TXH     Y
                                     TIX     F,,L
                              RDOPEN END
                              *
                              *      PRINT ERROR CODE, END MESSAGE
                              *
                                ERTN MACRO   ADRERR
                                     SXA     *+2,4
                                     TSX     $ERREND,4
                                     AXT     **,4
                                     TRA     ADRERR
                                ERTN END
                              *
                              *      ASK OPERATOR TO SET KEY CODE DC IF HE WANTS
                              *      ACTION GIVEN BY N-WORD MESSAGE M
                              *
                              PRCODE MACRO   DC,M,N
                                     TSX     $PRCODE,4
                                     TXH     DC
                                     TXH     M,,N
                              PRCODE END
                              *
                              *      TEST LAST KEY SETTING VIA SUPERVISOR, GO TO JUMP IF IT IS CODE
                              *
                              TESTKY MACRO   CODE,JUMP
                                     TSX     $NGETA,7
                                     LDQ     DEMKEY
                                     STQ     KEYVAL
                                     AXT     CODE,1
                                     PXA     0,1
                                     SUB     KEYVAL
                                     TZE     JUMP
                              TESTKY END
                              *
                              *      SET UP LOGICAL TAPE RECORD WRITING
                              *
                              LOGREC MACRO   X
                                     CLA     LTPBF
                                     SUB     =12
1            SUBROUTINE TO DUMP ONE USER'S FILES....M.J.BAILEY,11/30/64          05/11/69 2013.4 PAGE 4

                                     STO     TEMP
                                     CAL     X+4
                                     ANA     =O77777
                                     STO     RCOUNT
                                     TSX     $NLREC,4
                                     TXH     NORECS
                                     TXH     RCOUNT
                                     TXH     LCOUNT
                                     TXH     TEMP
                                     TXH     =12
                                     TXH     PHYSRC
                                     TXH     NFLR
                                     TXH     NLAST
                              LOGREC END
                              *
                              *
                              ATTACH MACRO   A,B
                                     TSX     ATTACH,4
                                     TXH     A
                                     TXH     B
                              ATTACH END
                              *
                              *      PRINT ERROR MESSAGE AND INTERROGATE KEYS
                              *
                              PRERR  MACRO
                                     TSX     $PRNTER,4
                                     TSX     $GDSIG,4
                              PRERR  END
                              *
                              *
                              *  .  .  .  .  .  .  .  .  .  .  .  .  .  .  .  .  .  .  .  .
                              *      TRANSFER VECTOR, CONSTANTS, VARIABLES,
                              *  .  .  .  .  .  .  .  .  .  .  .  .  .  .  .  .  .  .  .  .
                              *

        TRANSFER VECTOR
      00000  216363212330     ATTACH
      00001  633143462342     TILOCK
      00002  464725456060     OPEN
      00003  226426262551     BUFFER
      00004  266621316360     FWAIT
      00005  234346622560     CLOSE
      00006  242543263143     DELFIL
      00007  665126314325     WRFILE
      00010  665126436760     WRFLX
      00011  233026314325     CHFILE
      00012  266263216325     FSTATE
      00013  622563263143     SETFIL
      00014  272463606060     GDT
      00015  272462312760     GDSIG
      00016  454351252360     NLREC
      00017  512464262460     RDUFD
      00020  665145266060     WRNF
      00021  442147433145     MAPLIN
      00022  312545642624     IENUFD
      00023  254563642624     ENTUFD
1            SUBROUTINE TO DUMP ONE USER'S FILES....M.J.BAILEY,11/30/64          05/11/69 2013.4 PAGE 5

      00024  512426606060     RDF
      00025  222551446060     BERM
      00026  234223462425     CKCODE
      00027  255151254524     ERREND

            LINKAGE DIRECTOR
      00030  000000000000
      00031  246462516060

      00032  643326332433     UFDNAM BCI     2,U.F.D.(FILE)
      00033  742631432534
      00034  516060606060      R     BCI     1,R
      00035  0 00000 0 00000  TEMP   PZE                   TEMPORARY
      00036  646225516026     UFDID  BCI     3,USER FILE DIRECTRY
      00037  314325602431
      00040  512523635170
      00041  606270626325     ERSTAT BCI     5, SYSTEM OR MACHINE ERROR.
      00042  446046516044
      00043  212330314525
      00044  602551514651
      00045  336060606060
      00046  0 00000 0 00000  EMPTSW PZE
      00047  0 00000 0 03300  LTPBF  PZE     TBSIZ         SIZE OF TAPE BUFFER
      00050  0 00000 0 00660   LBUF  PZE     NW
      00051  0 00000 0 00660   LBUF2 PZE     NW
      00052  0 00000 0 00000  RCOUNT PZE     **            NO. WORDS/PHYS. REC. OF FILE BEING DUMPED
      00053  0 00000 0 00000  NORECS PZE     **            NO. PHYSICAL RECS. IN FILE BEING DUMPED
      00054  0 00000 0 00000  LCOUNT PZE     **            NO. WPRDS IN LAST PHYSICAL RECORD
      00055  0 00000 0 00000   NFLR  PZE     **
      00056  0 00000 0 00000   NLAST PZE     **
      00057  0 00000 0 00660  PHYSRC PZE     RECSIZ
      00060  443326332433     MFDNAM BCI     1,M.F.D.
      00061  0 00000 0 00000  STATUS PZE
      00062                   Y      BSS     8
      00072  0 00000 0 00007  L7     PZE     7
      00073  0 00000 0 00000  ALLSW  PZE     **
      00074  0 00000 0 64553         PZE     TPBUF2
      00075  0 00000 0 70053  TBA1   PZE     TPBUF
      00076  0 00000 0 64566         PZE     TPBUF2+11
      00077  0 00000 0 70066  TBA2   PZE     TPBUF+11
      00100  0 00000 0 70053         PZE     TPBUF2+TBSIZ
      00101  0 00000 0 73353  TBA3   PZE     TPBUF+TBSIZ
      00102  0 00000 0 00000  FLFL   PZE     **
      00103                   A      BSS     8
                              *
                              *      ENTRY   TO DUMP DAEMON'S FILES
                              *
      00113 -0500 60 4 00001  DMNDMP CAL*    1,4
      00114  0602 00 0 62744         SLW     UFDENT+3
      00115 -0500 60 4 00002         CAL*    2,4
      00116  0602 00 0 62745         SLW     UFDENT+4
      00117  0020 00 0 00123         TRA     DMPFIL+3
                              *
                              *  .  .  .  .  .  .  .  .  .  .  .  .  .  .  .  .  .  .  .  .
                              *  ENTRY TO DUMP THE SPECIAL FILE (MFDENT,MFDENT+1,UFDENT,UFDENT+1)
                              *  .  .  .  .  .  .  .  .  .  .  .  .  .  .  .  .  .  .  .  .
1            SUBROUTINE TO DUMP ONE USER'S FILES....M.J.BAILEY,11/30/64          05/11/69 2013.4 PAGE 6

                              *
      00120  0600 00 0 62744  DMPFIL STZ     UFDENT+3
      00121  0600 00 0 62745         STZ     UFDENT+4
      00122  1 00002 4 00123         TXI     *+1,4,2
      00123  0634 00 1 01016         SXA     DU1,1
      00124  0634 00 2 01017         SXA     DU2,2
      00125  0634 00 4 01020         SXA     DU4,4
      00126  0500 00 0 60263         CLA     TCYCLE        (TIME OF LAST DUMP CYCLEON THIS TAPE)
      00127  0601 00 0 64512         STO     MFDENT+2      FIX THINGS SO THAT CODING
      00130  0600 00 0 62747         STZ     UFDEOF        MAY BE USED TO DUMP A SINGLE FILE
      00131  0600 00 0 62737         STZ     TLD
      00132  0074 00 4 00014         TSX     $GDT,4        (CURRENT DATE/TIME)
      00133  0602 00 0 62743         SLW     UFDENT+2
      00134 -0500 00 0 64510         CAL     MFDENT        PREPARE PARAMETERS FOR DUMP TAPE 'MAP' LINE
      00135  0602 00 0 60267         SLW     ARGLST
      00136 -0500 00 0 62741         CAL     UFDENT
      00137  0602 00 0 60271         SLW     ARGLST+2
      00140 -0500 00 0 64511         CAL     MFDENT+1
      00141  0602 00 0 60270         SLW     ARGLST+1
      00142 -0500 00 0 62742         CAL     UFDENT+1
      00143  0602 00 0 60272         SLW     ARGLST+3
      00144  0600 00 0 60273         STZ     ARGLST+4
      00145  0600 00 0 60274         STZ     ARGLST+5
      00146  0600 00 0 60275         STZ     ARGLST+6
      00147  0020 00 0 00531         TRA     NXLB
                              *
                              *  .  .  .  .  .  .  .  .  .  .  .  .  .  .  .  .  .  .  .  .  .
                              *      ENTRY TO DUMP A USER'S FILES WHOSE MFD
                              *      ENTRY HAS NOT BEEN READ (AS IN COMPLETE SYSTEM FILE DUMP)
                              *  .  .  .  .  .  .  .  .  .  .  .  .  .  .  .  .  .  .  .  .  .
                              *
      00150  0634 00 1 01016  DUSR1  SXA     DU1,1
      00151  0634 00 2 01017         SXA     DU2,2
      00152  0634 00 4 01020         SXA     DU4,4
      00153                          RDOPEN  UFDNAM,UFDNAM+1,MFDENT,MFDENT+1,IOBUF,LBUF,ERRA
      00153  0074 00 4 00000         TSX     ATTACH,4                                                         .001
 TD   00154  3 00000 0 64510         TXH     MFDENT                                                           .001
 TD   00155  3 00000 0 64511         TXH     MFDENT+1                                                         .001
      00156  0074 00 4 00002         TSX     OPEN,4                                                           .001
 TD   00157  3 00000 0 00034         TXH     R                                                                .001
 TD   00160  3 00000 0 00032         TXH     UFDNAM                                                           .001
 TD   00161  3 00000 0 00033         TXH     UFDNAM+1                                                         .001
 TD   00162  3 00000 0 01340         TXH     =0                                                               .001
 TD   00163  3 00000 0 01340         TXH     =0                                                               .001
 TD   00164  3 00000 0 01022         TXH     ERRA                                                             .001
      00165  0074 00 4 00003         TSX     BUFFER,4                                                         .001
 TD   00166  3 00000 0 00032         TXH     UFDNAM                                                           .001
 TD   00167  3 00000 0 00033         TXH     UFDNAM+1                                                         .001
      00170  2 00050 0 63630         TIX     IOBUF,,LBUF                                                      .001
      00171  0600 00 0 64513         STZ     MFDENT+3
      00172  0600 00 0 64514         STZ     MFDENT+4
      00173  0074 00 4 00012         TSX     FSTATE,4
 TD   00174  3 00000 0 00032         TXH     UFDNAM
 TD   00175  3 00000 0 00033         TXH     UFDNAM+1
      00176  3 00010 0 00062         TXH     Y,,8
      00177 -0500 00 0 00070         CAL     Y+6           TIME LAST WRITTEN OF THIS USER
1            SUBROUTINE TO DUMP ONE USER'S FILES....M.J.BAILEY,11/30/64          05/11/69 2013.4 PAGE 7

      00200  0602 00 0 64512         SLW     MFDENT+2
      00201 -0500 00 0 00071         CAL     Y+7
      00202  0602 00 0 64513         SLW     MFDENT+3
      00203 -0500 00 0 00062         CAL     Y
      00204  0602 00 0 64515         SLW     MFDENT+5
      00205  0602 00 0 00054         SLW     LCOUNT
      00206  0402 00 0 01342         SUB     =3
      00207 -0100 00 0 00211         TNZ     *+2
      00210 -0625 00 0 00046         STL     EMPTSW
      00211  0500 00 0 01341         CLA     =1
      00212  0601 00 0 00053         STO     NORECS
      00213  0601 00 0 00073         STO     ALLSW
      00214  0020 00 0 00271         TRA     NXI
                              *
                              *  .  .  .  .  .  .  .  .  .  .  .  .  .  .  .  .  .  .  .  .  . .
                              *      ENTRY TO DUMP ONE USER'S FILES
                              *  .  .  .  .  .  .  .  .  .  .  .  .  .  .  .  .  .  .  .  .  . .
                              *
      00215 -0625 00 0 00046  DMPUFD STL     EMPTSW
      00216  0020 00 0 00221         TRA     DUSR
      00217 -0625 00 0 00073  DUSRX  STL     ALLSW
      00220  0020 00 0 00222         TRA     *+2
      00221  0600 00 0 00073  DUSR   STZ     ALLSW
      00222  0634 00 1 01016         SXA     DU1,1
      00223  0634 00 2 01017         SXA     DU2,2
      00224  0634 00 4 01020         SXA     DU4,4
      00225  0600 00 0 00054         STZ     LCOUNT
      00226 -0500 00 0 64515         CAL     MFDENT+5
      00227 -0320 00 0 01350         ANA     =O77777077777
      00230 -0340 00 0 01347         LAS     =O1000003
      00231  0020 00 0 00233         TRA     *+2
      00232 -0625 00 0 00046         STL     EMPTSW
      00233  0621 00 0 00054         STA     LCOUNT
      00234  0771 00 0 00022         ARS     18
      00235  0621 00 0 00053         STA     NORECS
      00236 -0500 00 0 64514         CAL     MFDENT+4
      00237  0621 00 0 00052         STA     RCOUNT
      00240  0500 00 0 00053         CLA     NORECS
      00241  0402 00 0 01341         SUB     =1
      00242  0100 00 0 00246         TZE     OQD
      00243  0131 00 0 00000         XCA
      00244  0200 00 0 00052         MPY     RCOUNT
      00245  0131 00 0 00000         XCA
      00246  0400 00 0 00054  OQD    ADD     LCOUNT
      00247  0601 00 0 00054         STO     LCOUNT
      00250  0601 00 0 64515         STO     MFDENT+5
      00251  0500 00 0 01341         CLA     =1
      00252  0601 00 0 00053         STO     NORECS
                              *
                              *      INITIALIZE THE USER'S U.F.D. FILE FOR READING
                              *
      00253                          RDOPEN  UFDNAM,UFDNAM+1,MFDENT,MFDENT+1,IOBUF,LBUF,ERRA
      00253  0074 00 4 00000         TSX     ATTACH,4                                                         .001
 TD   00254  3 00000 0 64510         TXH     MFDENT                                                           .001
 TD   00255  3 00000 0 64511         TXH     MFDENT+1                                                         .001
      00256  0074 00 4 00002         TSX     OPEN,4                                                           .001
1            SUBROUTINE TO DUMP ONE USER'S FILES....M.J.BAILEY,11/30/64          05/11/69 2013.4 PAGE 8

 TD   00257  3 00000 0 00034         TXH     R                                                                .001
 TD   00260  3 00000 0 00032         TXH     UFDNAM                                                           .001
 TD   00261  3 00000 0 00033         TXH     UFDNAM+1                                                         .001
 TD   00262  3 00000 0 01340         TXH     =0                                                               .001
 TD   00263  3 00000 0 01340         TXH     =0                                                               .001
 TD   00264  3 00000 0 01022         TXH     ERRA                                                             .001
      00265  0074 00 4 00003         TSX     BUFFER,4                                                         .001
 TD   00266  3 00000 0 00032         TXH     UFDNAM                                                           .001
 TD   00267  3 00000 0 00033         TXH     UFDNAM+1                                                         .001
      00270  2 00050 0 63630         TIX     IOBUF,,LBUF                                                      .001
      00271  0500 00 0 01341  NXI    CLA     =1            INITIALIZE READING FROM UFD FILE
      00272  0601 00 0 62736         STO     UFDC
      00273  0601 00 0 62747         STO     UFDEOF        ZERO UFDEOF INDICATES EOF IN UFD FILE
      00274                          CLEAR   TPBUF,TBSIZ   CLEAR OUT TAPE FILE BUFFER
      00274  0774 00 1 03300         AXT     TBSIZ,1                                                          .001
      00275  0600 00 1 73353         STZ     TPBUF+TBSIZ,1                                                    .001
      00276  2 00001 1 00275         TIX     *-1,1,1                                                          .001
      00277  0760 00 0 00165         SWT     5
      00300  0020 00 0 00303         TRA     *+3
      00301  0074 00 4 00010         TSX     WRFLX,4
      00302  0 00002 0 64510                 MFDENT,,2
                              *
                              *      INITIALIZE THE WRITING OF OUR COPY OF THE U.F.D. FILE
                              *
      00303  0074 00 4 00015         TSX     $GDSIG,4
                              *
                              *      PREPARE DUMP TAPE PREAMBLE FOR DUMPED UFD FILE
                              *
      00304  0774 00 1 00003         AXT     3,1           PREPARE 11 WORDS OF DUMP TAPE PREAMBLE
      00305 -0500 00 1 64513         CAL     MFDENT+3,1    1ST 3 WDS OF THIS MFD ENTRY IN WORDS 1,2,3
      00306  0602 00 1 70056         SLW     TPBUF+3,1     .
      00307 -0500 00 1 64516         CAL     MFDENT+6,1    NEXT 3 TO WORDS 9,10,11
      00310  0602 00 1 70066         SLW     TPBUF+11,1    .
      00311 -0500 00 1 00041         CAL     UFDID+3,1     LABEL IN WORDS 6,7,8
      00312  0602 00 1 70063         SLW     TPBUF+8,1     .
      00313  2 00001 1 00305         TIX     *-6,1,1
      00314 -0500 00 0 62737         CAL     TLD           TLD(I) IN WORD 4
      00315  0602 00 0 70056         SLW     TPBUF+3       .
      00316 -0500 00 0 73353         CAL     TND           TND IN WORD 5
      00317  0602 00 0 70057         SLW     TPBUF+4       .
                              *
                              *      FIND NO. OF FULL LOGICAL RECORDS (NFLR), AND NO. OF WORDS
                              *      TO BE WRITTEN IN LAST LOGICAL RECORD (NLAST), OF UFD FILE
                              *
      00320                          LOGREC  MFDENT
      00320  0500 00 0 00047         CLA     LTPBF                                                            .001
      00321  0402 00 0 01344         SUB     =12                                                              .001
      00322  0601 00 0 00035         STO     TEMP                                                             .001
      00323 -0500 00 0 64514         CAL     MFDENT+4                                                         .001
      00324 -0320 00 0 01346         ANA     =O77777                                                          .001
      00325  0601 00 0 00052         STO     RCOUNT                                                           .001
      00326  0074 00 4 00016         TSX     $NLREC,4                                                         .001
 TD   00327  3 00000 0 00053         TXH     NORECS                                                           .001
 TD   00330  3 00000 0 00052         TXH     RCOUNT                                                           .001
 TD   00331  3 00000 0 00054         TXH     LCOUNT                                                           .001
 TD   00332  3 00000 0 00035         TXH     TEMP                                                             .001
1            SUBROUTINE TO DUMP ONE USER'S FILES....M.J.BAILEY,11/30/64          05/11/69 2013.4 PAGE 9

 TD   00333  3 00000 0 01344         TXH     =12                                                              .001
 TD   00334  3 00000 0 00057         TXH     PHYSRC                                                           .001
 TD   00335  3 00000 0 00055         TXH     NFLR                                                             .001
 TD   00336  3 00000 0 00056         TXH     NLAST                                                            .001
      00337  0534 00 2 00055         LXA     NFLR,2
      00340 -0634 00 2 00366         SXD     NXIC,2        NO. OF FULL LOGICAL RECORDS
      00341  0520 00 0 00056         ZET     NLAST
      00342  1 00001 2 00343         TXI     *+1,2,1       ADD 1 IF PARTIAL RECORD AT END
      00343  0634 00 2 70066         SXA     TPBUF+11,2    NO. LOGICAL RECS. TO 12TH PREAMBLE WORD
      00344  0774 00 2 00001         AXT     1,2           1ST RECORD NO. IS 1
      00345 -0520 00 0 00055         NZT     NFLR
      00346  0020 00 0 00371         TRA     NXJ           SKIP IF NO FULL RECORDS
                              *
                              *  .  .  .  .  .  .  .  .  .  .  .  .  .  .  .  .  .  .  .  .
                              *      READ, COPY ON DRUM OR DISK, AND DUMP, THIS UFD FILE
                              *  .  .  .  .  .  .  .  .  .  .  .  .  .  .  .  .  .  .  .  .
                              *
      00347 -0634 00 2 70066  NXIB   SXD     TPBUF+11,2    RECORD NO. TO 12TH PREAMBLE WORD
      00350                          CLEAR   TPBUF+12,TBSIZ-12
      00350  0774 00 1 03264         AXT     TBSIZ-12,1                                                       .001
      00351  0600 00 1 73353         STZ     TPBUF+12+TBSIZ-12,1                                              .001
      00352  2 00001 1 00351         TIX     *-1,1,1                                                          .001
      00353 -0520 00 0 62747         NZT     UFDEOF
      00354  0020 00 0 00361         TRA     *+5           SKIP IF UFD EOF EARLY DUE TO DELETIONS
      00355  0074 00 4 00017         TSX     $RDUFD,4      FILL UP BUFFER FROM UFD
 TD   00356  3 00000 0 70067         TXH     TPBUF+12
 TD   00357  3 00000 0 00035         TXH     TEMP
      00360  0020 00 0 01265         TRA     NXR           ERROR RETURN, ABANDON THIS USER
      00361  0074 00 4 00020         TSX     $WRNF,4
 TD   00362  3 00000 0 70053         TXH     TPBUF
 TD   00363  3 00000 0 00047         TXH     LTPBF
      00364  0074 00 4 00015         TSX     $GDSIG,4
      00365  1 00001 2 00366         TXI     *+1,2,1       INCREMENT RECORD NO. BY 1
      00366 -3 00000 2 00347   NXIC  TXL     NXIB,2,**     GO BACK FOR NEXT BUFFER FULL
                              *
      00367 -0520 00 0 00056         NZT     NLAST         NOW WRITE PARTIAL RECORD
      00370  0020 00 0 00407         TRA     NXK           SKIP IF NO PARTIAL RECORD
      00371 -0634 00 2 70066  NXJ    SXD     TPBUF+11,2    RECORD NO. TO 12TH PREAMBLE WORD
      00372                          CLEAR   TPBUF+12,TBSIZ-12
      00372  0774 00 1 03264         AXT     TBSIZ-12,1                                                       .001
      00373  0600 00 1 73353         STZ     TPBUF+12+TBSIZ-12,1                                              .001
      00374  2 00001 1 00373         TIX     *-1,1,1                                                          .001
      00375 -0520 00 0 62747         NZT     UFDEOF
      00376  0020 00 0 00403         TRA     *+5           SKIP IF EOF ALREADY DUE TO DELETIONS
      00377  0074 00 4 00017         TSX     $RDUFD,4      READ LAST PART OF UFD FILE
 TD   00400  3 00000 0 70067         TXH     TPBUF+12
 TD   00401  3 00000 0 00035         TXH     TEMP
      00402  0020 00 0 01265         TRA     NXR           ERROR RETURN, ABANDON THIS USER
      00403  0074 00 4 00020         TSX     $WRNF,4
 TD   00404  3 00000 0 70053         TXH     TPBUF
 TD   00405  3 00000 0 00056         TXH     NLAST
      00406  0074 00 4 00015         TSX     $GDSIG,4
                              *
                              *
                              *      RECORD DUMPING OF THIS UFD FILE, ON DUMP TAPE MAP FILE
                              *
1            SUBROUTINE TO DUMP ONE USER'S FILES....M.J.BAILEY,11/30/64          05/11/69 2013.4 PAGE 10

      00407 -0500 00 0 64510  NXK    CAL     MFDENT
      00410  0602 00 0 60267         SLW     ARGLST
      00411 -0500 00 0 64511         CAL     MFDENT+1
      00412  0602 00 0 60270         SLW     ARGLST+1
      00413 -0500 00 0 00032         CAL     UFDNAM
      00414  0602 00 0 60271         SLW     ARGLST+2
      00415 -0500 00 0 00033         CAL     UFDNAM+1
      00416  0602 00 0 60272         SLW     ARGLST+3
      00417 -0500 00 0 64512         CAL     MFDENT+2
      00420  0602 00 0 60273         SLW     ARGLST+4
      00421  0520 00 0 60266         ZET     CDSW
      00422  0020 00 0 00430         TRA     NXKA
      00423 -0500 00 0 62737         CAL     TLD
      00424  0602 00 0 60274         SLW     ARGLST+5
      00425 -0500 00 0 73353         CAL     TND
      00426  0602 00 0 60275         SLW     ARGLST+6
      00427  0020 00 0 00434         TRA     *+5
      00430 -0500 00 0 64513  NXKA   CAL     MFDENT+3
      00431 -0320 00 0 01356         ANA     =O777777000000
      00432  0602 00 0 60274         SLW     ARGLST+5
      00433  0600 00 0 60275         STZ     ARGLST+6
      00434  0074 00 4 00021         TSX     $MAPLIN,4
                              *
                              *      INITIALIZE USER'S UFD FILE FOR READING
                              *
      00435 -0500 00 0 00046         CAL     EMPTSW
      00436  0100 00 0 00441         TZE     *+3
      00437  0600 00 0 00046         STZ     EMPTSW
      00440  0020 00 0 01012         TRA     DU111
      00441  0074 00 4 00022         TSX     $IENUFD,4     INITIATE READING FOR ENTUFD ROUTINE
      00442  0020 00 0 01265         TRA     NXR           TROUBLE WITH READING, SKIP TO FIX UP
                              *
                              *  .  .  .  .  .  .  .  .  .  .  .  .  .  .  .  .  .  .  .
                              *      START DUMP USER FILE LOOP
                              *  .  .  .  .  .  .  .  .  .  .  .  .  .  .  .  .  .  .  .
                              *
      00443  0074 00 4 00023  NXFILE TSX     $ENTUFD,4     GET UFD ENTRY FOR NEXT FILE IN UFDENT
      00444  0020 00 0 01265         TRA     NXR           READING TROUBLE IN OUR COPY OF UFD
      00445 -0500 00 0 62741         CAL     UFDENT
      00446 -0520 00 0 62742         NZT     UFDENT+1
      00447  0100 00 0 01007         TZE     NXQ           IGNORE UFD ENTRY IF ALL ZEROS
      00450 -0340 00 0 00032         LAS     UFDNAM
      00451  0020 00 0 00460         TRA     NXFLA         O.K. IF NOT UFD FILE
      00452  0020 00 0 00454         TRA     *+2
      00453  0020 00 0 00460         TRA     NXFLA         OK NOT UFD FILE
      00454 -0500 00 0 62742         CAL     UFDENT+1
      00455 -0340 00 0 00033         LAS     UFDNAM+1
      00456  0020 00 0 00460         TRA     NXFLA         OK NOT UFD FILE
      00457  0020 00 0 01007         TRA     NXQ           DO NOT DUMP IF UFD FILE
                              *
                              * CHECK THAT FILE HAS A TIME T SUCH THAT (TLD .LE. T .L. TND),
                              *  ALSO THAT IT IS ON DISK OR DRUM, AND IS NOT TEMPORARY.
                              *   (IF WRITE-ONLY, TEMPORARILY CHANGE ITS MODE.)
                              *
      00460  0520 00 0 00073  NXFLA  ZET     ALLSW
      00461  0020 00 0 00476         TRA     NXFLAA        SKIP TIME CRITERIA IF SYSTEMFILE DUMP
1            SUBROUTINE TO DUMP ONE USER'S FILES....M.J.BAILEY,11/30/64          05/11/69 2013.4 PAGE 11

      00462 -0500 00 0 62743         CAL     UFDENT+2      TIME LAST MODIFIED
      00463 -0520 00 0 60266         NZT     CDSW
      00464  0020 00 0 00467         TRA     *+3           IF INCR. DUMP T =TIME LAST MODIFIED
      00465 -0500 00 0 62744         CAL     UFDENT+3      IF COMPLETE DUMP T = TIME LAST USED
      00466 -0320 00 0 01356         ANA     =O777777000000
      00467  0602 00 0 00035         SLW     TEMP
      00470  0500 00 0 00035         CLA     TEMP      GET DATE/TIME FILE LAST MODIFIED OR USED, T
      00471  0402 00 0 73353         SUB     TND           COMPARE WITH DATE/TIME OF THIS DUMP, TND
      00472  0120 00 0 01007         TPL     NXQ           T .GE. TND, DON'T DUMP, GO FOR NEXT FILE
      00473  0500 00 0 00035         CLA     TEMP      GET T AGAIN
      00474  0402 00 0 62737         SUB     TLD           COMPARE WITH DATE/TIME OF USER'S LAST DUMP
      00475 -0120 00 0 01007         TMI     NXQ           T .LESS. TLD, DON'T DUMP, GO FOR NEXT FILE
      00476 -0500 00 0 62745  NXFLAA CAL     UFDENT+4      CHECK DEVICE ON WHICH FILE RESIDES
      00477  0771 00 0 00017         ARS     15
      00500 -0320 00 0 01343         ANA     =O7
      00501  0734 00 1 00000         PAX     0,1
      00502 -3 00000 1 00504         TXL     *+2,1,LSDRUM-1
      00503 -3 00001 1 00506         TXL     NXFDMP,1,LSDRUM         SKIP TO DUMP IF FILE ON L.S.DRUM
      00504 -3 00001 1 01007         TXL     NXQ,1,DISK-1  DON'T DUMP IF NOT ON DISK OR L.S. DRUM
      00505  3 00002 1 01007         TXH     NXQ,1,DISK    .
                              *

                                          (AT THIS POINT FURTHER CRITERIA FOR DUMPING MAY BE APPLIED)
                              *

                              *
      00506 -0500 00 0 64510  NXFDMP CAL     MFDENT
      00507  0602 00 0 60267         SLW     ARGLST        SET UP PARAMETERS FOR DUMP TAPE 'MAP' LINE
      00510 -0500 00 0 64511         CAL     MFDENT+1
      00511  0602 00 0 60270         SLW     ARGLST+1
      00512                          MOVE    3,UFDENT,ARGLST+2
      00512  0774 00 1 00003         AXT     3,1                                                              .001
      00513 -0500 00 1 62744         CAL     UFDENT+3,1                                                       .001
      00514  0602 00 1 60274         SLW     ARGLST+2+3,1                                                     .001
      00515  2 00001 1 00513         TIX     *-2,1,1                                                          .001
      00516  0520 00 0 60266         ZET     CDSW
      00517  0020 00 0 00525         TRA     NXFDB         SKIP IF COMPLETE DUMP
      00520 -0500 00 0 62737         CAL     TLD
      00521  0602 00 0 60274         SLW     ARGLST+5
      00522 -0500 00 0 73353         CAL     TND
      00523  0602 00 0 60275         SLW     ARGLST+6
      00524  0020 00 0 00531         TRA     *+5
      00525 -0500 00 0 62744  NXFDB  CAL     UFDENT+3
      00526 -0320 00 0 01356         ANA     =O777777000000
      00527  0602 00 0 60274         SLW     ARGLST+5      DATE LAST MODIFIED
      00530  0600 00 0 60275         STZ     ARGLST+6
                              *
                              *      INITIALIZE FILE TO BE DUMPED FOR READING
                              *
      00531  0074 00 4 00001  NXLB   TSX     TILOCK,4      SET READ INTERLOCK TRAP TRANSFER
      00532  0 00000 0 01005         PZE     NXPA          (FORGET THIS FILE IF INTERLOCKED)
      00533  0621 00 0 00774         STA     NXPD          SAVE PREVIOUS INTERLOCK TRANSFER ADDRESS
      00534  0621 00 0 01006         STA     NXPE
      00535  0074 00 4 00015         TSX     $GDSIG,4      GET KEYS, SET SWITCHES
      00536 -0500 00 0 00034         CAL     R
      00537  0560 00 0 62745         LDQ     UFDENT+4
1            SUBROUTINE TO DUMP ONE USER'S FILES....M.J.BAILEY,11/30/64          05/11/69 2013.4 PAGE 12

      00540 -0773 00 0 00007         RQL     7
      00541  0162 00 0 00543         TQP     *+2
      00542 -0500 00 0 01355         CAL     =HRW
      00543  0602 00 0 00061         SLW     STATUS
      00544  0074 00 4 00000         TSX     ATTACH,4
 TD   00545  3 00000 0 64510         TXH     MFDENT
 TD   00546  3 00000 0 64511         TXH     MFDENT+1
      00547  0074 00 4 00002         TSX     OPEN,4
 TD   00550  3 00000 0 00061         TXH     STATUS
 TD   00551  3 00000 0 62741         TXH     UFDENT
 TD   00552  3 00000 0 62742         TXH     UFDENT+1
 TD   00553  3 00000 0 01340         TXH     =0
 TD   00554  3 00000 0 01340         TXH     =0
 TD   00555  3 00000 0 01145         TXH     ERRG
      00556  0074 00 4 00003         TSX     BUFFER,4
 TD   00557  3 00000 0 62741         TXH     UFDENT
 TD   00560  3 00000 0 62742         TXH     UFDENT+1
      00561  2 00051 0 62750         TIX     IOBUF2,,LBUF2
      00562  0074 00 4 00012         TSX     FSTATE,4
 TD   00563  3 00000 0 62741         TXH     UFDENT
 TD   00564  3 00000 0 62742         TXH     UFDENT+1
      00565  3 00010 0 00103         TXH     A,,8          IN A
      00566 -0500 00 0 00103         CAL     A             'LCOUNT'=A
      00567  0602 00 0 62746         SLW     UFDENT+5
      00570  0602 00 0 00054         SLW     LCOUNT
      00571  0500 00 0 01341         CLA     =1
      00572  0601 00 0 00053         STO     NORECS
      00573  0500 00 0 00573         CLA     *
      00574  0601 00 0 62733         STO     FEOF          ZERO FEOF INDICATES EOF IN THIS FILE
      00575                          CLEAR   TPBUF,TBSIZ   CLEAR DUMP TAPE BUFFER
      00575  0774 00 1 03300         AXT     TBSIZ,1                                                          .001
      00576  0600 00 1 73353         STZ     TPBUF+TBSIZ,1                                                    .001
      00577  2 00001 1 00576         TIX     *-1,1,1                                                          .001
                              *
                              *      PREPARE DUMP TAPE PREAMBLE FOR THIS FILE
                              *
      00600  0760 00 0 00166         SWT     6             TEST FOR PRINT OF FILE NAME
      00601  0020 00 0 00604         TRA     *+3           NO PRINT, SKIP
      00602  0074 00 4 00010         TSX     WRFLX,4       PRINT IT
      00603  0 00002 0 62741         PZE     UFDENT,,2     ..
      00604                          MOVE    3,MFDENT,TPBUF  PREPARE 11 WORDS OF DUMP TAPE PREAMBLE
      00604  0774 00 1 00003         AXT     3,1                                                              .001
      00605 -0500 00 1 64513         CAL     MFDENT+3,1                                                       .001
      00606  0602 00 1 70056         SLW     TPBUF+3,1                                                        .001
      00607  2 00001 1 00605         TIX     *-2,1,1                                                          .001
      00610                          MOVE    3,MFDENT,TPBUF2  SAME FOR OTHER BUFFER
      00610  0774 00 1 00003         AXT     3,1                                                              .001
      00611 -0500 00 1 64513         CAL     MFDENT+3,1                                                       .001
      00612  0602 00 1 64556         SLW     TPBUF2+3,1                                                       .001
      00613  2 00001 1 00611         TIX     *-2,1,1                                                          .001
      00614 -0500 00 0 62737         CAL     TLD           DUMPED COPY OF THIS FILE, CONSISTING
      00615  0602 00 0 70056         SLW     TPBUF+3       OF 1ST 3 WORDS OF MFD ENTRY IN WORDS 1-3
      00616  0602 00 0 64556         SLW     TPBUF2+3
      00617 -0500 00 0 73353         CAL     TND           AND TLD IN WORD 4,
      00620  0602 00 0 70057         SLW     TPBUF+4       TND IN WORD 5,
      00621  0602 00 0 64557         SLW     TPBUF2+4
1            SUBROUTINE TO DUMP ONE USER'S FILES....M.J.BAILEY,11/30/64          05/11/69 2013.4 PAGE 13

      00622                          MOVE    6,UFDENT,TPBUF+5   AND UFD ENTRY IN WORDS 6-11.
      00622  0774 00 1 00006         AXT     6,1                                                              .001
      00623 -0500 00 1 62747         CAL     UFDENT+6,1                                                       .001
      00624  0602 00 1 70066         SLW     TPBUF+5+6,1                                                      .001
      00625  2 00001 1 00623         TIX     *-2,1,1                                                          .001
      00626                          MOVE    6,UFDENT,TPBUF2+5
      00626  0774 00 1 00006         AXT     6,1                                                              .001
      00627 -0500 00 1 62747         CAL     UFDENT+6,1                                                       .001
      00630  0602 00 1 64566         SLW     TPBUF2+5+6,1                                                     .001
      00631  2 00001 1 00627         TIX     *-2,1,1                                                          .001
                              *
                              *      FIND NO. OF FULL LENGTH RECORDS (NFLR) AND NO. OF
                              *      WORDS TO BE WRITTEN IN LAST LOGICAL RECORD (NLAST)
                              *      OF THIS NEXT FILE.
                              *
      00632                          LOGREC  UFDENT
      00632  0500 00 0 00047         CLA     LTPBF                                                            .001
      00633  0402 00 0 01344         SUB     =12                                                              .001
      00634  0601 00 0 00035         STO     TEMP                                                             .001
      00635 -0500 00 0 62745         CAL     UFDENT+4                                                         .001
      00636 -0320 00 0 01346         ANA     =O77777                                                          .001
      00637  0601 00 0 00052         STO     RCOUNT                                                           .001
      00640  0074 00 4 00016         TSX     $NLREC,4                                                         .001
 TD   00641  3 00000 0 00053         TXH     NORECS                                                           .001
 TD   00642  3 00000 0 00052         TXH     RCOUNT                                                           .001
 TD   00643  3 00000 0 00054         TXH     LCOUNT                                                           .001
 TD   00644  3 00000 0 00035         TXH     TEMP                                                             .001
 TD   00645  3 00000 0 01344         TXH     =12                                                              .001
 TD   00646  3 00000 0 00057         TXH     PHYSRC                                                           .001
 TD   00647  3 00000 0 00055         TXH     NFLR                                                             .001
 TD   00650  3 00000 0 00056         TXH     NLAST                                                            .001
      00651  0534 00 2 00055         LXA     NFLR,2
      00652 -0634 00 2 00727         SXD     NXN,2         NO. OF FULL LENGTH RECS.
      00653  0520 00 0 00055         ZET     NFLR
      00654  0020 00 0 00663         TRA     *+7
      00655  0520 00 0 00056         ZET     NLAST
      00656  0020 00 0 00664         TRA     *+6
      00657  0774 00 2 00001         AXT     1,2
      00660 -0500 00 0 00057         CAL     PHYSRC
      00661  0602 00 0 00056         SLW     NLAST
      00662  0020 00 0 00665         TRA     *+3
      00663  0520 00 0 00056         ZET     NLAST
      00664  1 00001 2 00665         TXI     *+1,2,1       ADD 1 IF A PARTIAL REC. AT END
      00665  0634 00 2 70066         SXA     TPBUF+11,2    NO. OF LOGICAL RECS. TO 12TH PREAMBLE WORD
      00666  0634 00 2 64566         SXA     TPBUF2+11,2
      00667  0774 00 2 00001         AXT     1,2           1ST RECORD NO. IS 1
      00670  0634 00 2 00102         SXA     FLFL,2        INITIALIZE BUFFER SWITCH
      00671 -0520 00 0 00055         NZT     NFLR
      00672  0020 00 0 00732         TRA     NXP           SKIP IF NO FULL RECORDS
                              *
                              *  .  .  .  .  .  .  .  .  .  .  .  .  .  .  .  .  .  .  .  .
                              *      READ AND DUMP THIS USER FILE
                              *  .  .  .  .  .  .  .  .  .  .  .  .  .  .  .  .  .  .  .  .
                              *
      00673  0534 00 1 00102  NXM    LXA     FLFL,1        SWITCH TO ALTERNATE BUFFER ADDRESS
      00674  1 00001 1 00675         TXI     *+1,1,1
1            SUBROUTINE TO DUMP ONE USER'S FILES....M.J.BAILEY,11/30/64          05/11/69 2013.4 PAGE 14

      00675 -3 00001 1 00677         TXL     *+2,1,1
      00676  0774 00 1 00000         AXT     0,1
      00677  0634 00 1 00102         SXA     FLFL,1
      00700  0500 00 1 00075         CLA     TBA1,1
      00701  0621 00 0 00723         STA     NXM4
      00702  0500 00 1 00077         CLA     TBA2,1
      00703  0621 00 0 00710         STA     NXM1
      00704  0400 00 0 01341         ADD     =1
      00705  0621 00 0 00715         STA     NXM3
      00706  0500 00 1 00101         CLA     TBA3,1
      00707  0621 00 0 00712         STA     NXM2
      00710 -0634 00 2 00000  NXM1   SXD     **,2          SET LOGICAL REC. NO. IN PREAMBLE
      00711  0774 00 1 03264         AXT     TBSIZ-12,1    CLEAR BULK OF BUFFER
      00712  0600 00 1 00000  NXM2   STZ     **,1
      00713  2 00001 1 00712         TIX     NXM2,1,1
      00714  0074 00 4 00024         TSX     $RDF,4        FILL UP BUFFER FROM THIS FILE
 TD   00715  3 00000 0 00000  NXM3   TXH     **
 TD   00716  3 00000 0 00035         TXH     TEMP
      00717  0020 00 0 00764         TRA     NXPB          ERROR RETURN, MOVE TO NEXT FILE
      00720 -0520 00 0 62733         NZT     FEOF
      00721  0020 00 0 01166         TRA     ERRL          EOF IN WRONG PLACE
      00722  0074 00 4 00020  NXMA   TSX     $WRNF,4       WRITE OUT BUFFER FULL OF THIS FILE
 TD   00723  3 00000 0 00000  NXM4   TXH     **            ( A LOGICAL REC.) ONTO DUMP TAPE
 TD   00724  3 00000 0 00047         TXH     LTPBF
      00725  0074 00 4 00015         TSX     $GDSIG,4
      00726  1 00001 2 00727         TXI     *+1,2,1
      00727 -3 00000 2 00673   NXN   TXL     NXM,2,**      GO BACK FOR NEXT RECORD/BUFFER-FULL,IF ANY
                              *
      00730 -0520 00 0 00056         NZT     NLAST         NOW WRITE PARTIAL LOGICAL RECORD
      00731  0020 00 0 00763         TRA     NXPBG         SKIP IF NO PARTIAL LOGICAL RECORD
      00732  0534 00 1 00102  NXP    LXA     FLFL,1        SWITCH TO ALTERNATE BUFFER ADDRESS
      00733  1 00001 1 00734         TXI     *+1,1,1
      00734 -3 00001 1 00736         TXL     *+2,1,1
      00735  0774 00 1 00000         AXT     0,1
      00736  0500 00 1 00075         CLA     TBA1,1
      00737  0621 00 0 00761         STA     NXP4
      00740  0500 00 1 00077         CLA     TBA2,1
      00741  0621 00 0 00746         STA     NXP1
      00742  0400 00 0 01341         ADD     =1
      00743  0621 00 0 00753         STA     NXP3
      00744  0500 00 1 00101         CLA     TBA3,1
      00745  0621 00 0 00750         STA     NXP2
      00746 -0634 00 2 00000  NXP1   SXD     **,2          SET LOGICAL REC. NO. IN PREAMBLE
      00747  0774 00 1 03264         AXT     TBSIZ-12,1    CLEAR BULK OF BUFFER
      00750  0600 00 1 00000  NXP2   STZ     **,1
      00751  2 00001 1 00750         TIX     NXP2,1,1
      00752  0074 00 4 00024         TSX     $RDF,4        READ LAST PART OF FILE
 TD   00753  3 00000 0 00000  NXP3   TXH     **
 TD   00754  3 00000 0 00035         TXH     TEMP
      00755  0020 00 0 00764         TRA     NXPB          ERROR RETURN, MOVE TO NEXT FILE
      00756  0520 00 0 62733         ZET     FEOF
      00757  0020 00 0 01252         TRA     ERRM          EOF NOT WHERE IT SHOULD BE, ERROR
      00760  0074 00 4 00020  NXNA   TSX     $WRNF,4       WRITE OUT REMAINDER OF FILE
 TD   00761  3 00000 0 00000  NXP4   TXH     **
 TD   00762  3 00000 0 00056         TXH     NLAST
                              *
1            SUBROUTINE TO DUMP ONE USER'S FILES....M.J.BAILEY,11/30/64          05/11/69 2013.4 PAGE 15

                              *      CLOSE THIS FILE, RECORD ITS BEING DUMPED,RESTORE ITS MODE
                              *
      00763  0074 00 4 00021  NXPBG  TSX     $MAPLIN,4     WRITE LINE ON DUMPTP 'MAP' FOR THIS FILE
      00764  0074 00 4 00000  NXPB   TSX     ATTACH,4      YES, CLOSE THIS FILE,
 TD   00765  3 00000 0 64510         TXH     MFDENT        WHICH IS NOW COMPLETELY (OR PARTLY) DUMPED
 TD   00766  3 00000 0 64511         TXH     MFDENT+1      .
      00767  0074 00 4 00005         TSX     CLOSE,4       .
 TD   00770  3 00000 0 62741         TXH     UFDENT        .
 TD   00771  3 00000 0 62742         TXH     UFDENT+1      .
      00772  0600 00 0 62731         STZ     DMPSW         INDICATE SOMETHING GOT DUMPED
      00773  0074 00 4 00001         TSX     TILOCK,4      ENSURE READ-INTERLOCK TRAP ADDRESS RESTORED
      00774  0 00000 0 00000  NXPD   PZE     **
      00775  0074 00 4 00013         TSX     SETFIL,4      RESTORE USERS FILE STATUS
 TD   00776  3 00000 0 62741         TXH     UFDENT
 TD   00777  3 00000 0 62742         TXH     UFDENT+1
 TD   01000  3 00000 0 00111         TXH     A+6
 TD   01001  3 00000 0 00112         TXH     A+7
 TD   01002  3 00000 0 00104         TXH     A+1
 TD   01003  3 00000 0 00106         TXH     A+3
      01004  0020 00 0 01007         TRA     NXQ
      01005  0074 00 4 00001  NXPA   TSX     TILOCK,4
      01006  0 00000 0 00000  NXPE   PZE     **
                              *
                              *      END OF DUMP FILE LOOP
                              *
      01007  0074 00 4 00015  NXQ    TSX     $GDSIG,4
      01010  0520 00 0 62747         ZET     UFDEOF        WAS THIS LAST UFD ENTRY (AS DETECTED
                                                            BY ENTUFD), I.E. WAS THIS LAST FILE
      01011  0020 00 0 00443         TRA     NXFILE        NO, GO BACK TO DUMP NEXT FILE
      01012  0074 00 4 00005  DU111  TSX     CLOSE,4       YES, CLOSE OUR COPY OF UFD
 TD   01013  3 00000 0 00032         TXH     UFDNAM
 TD   01014  3 00000 0 00033         TXH     UFDNAM+1
 TD   01015  3 00000 0 01016         TXH     *+1
                              *
      01016  0774 00 1 00000   DU1   AXT     **,1
      01017  0774 00 2 00000    DU2  AXT     **,2
      01020  0774 00 4 00000    DU4  AXT     **,4
      01021  0020 00 4 00003         TRA     3,4
                              *
                              *  .  .  .  .  .  .  .  .  .  .  .  .  .  .  .  .  .  .  .  .
                              *      ERROR FIX-UP SECTION FOR CREATED-FILE DUMPER
                              *  .  .  .  .  .  .  .  .  .  .  .  .  .  .  .  .  .  .  .  .
                              *
      01022                    ERRA  BGNERM  =HA           TROUBLE OPENING UFD FILE
      01022  0634 00 4 01025         SXA     *+3,4                                                            .001
      01023  0074 00 4 00025         TSX     $BERM,4                                                          .001
      01024  0 00000 0 01351         PZE     =HA                                                              .001
      01025  0774 00 4 00000         AXT     **,4                                                             .001
      01026  0074 00 4 00026         TSX     $CKCODE,4
      01027  464725456060            BCI     1,OPEN
      01030  0 00000 0 00014         PZE     ERCODA
      01031  0 00000 0 01060         PZE     ERRA1         (TRANSFER IF NOT THE ERROR WE ARE SEEKING)
      01032                          PRLINE  ( U.F.D. FILE NOT FOUND FOR FOLLOWING USER,     ),8,0
      01032                          MOVE    8,..003,PBF                                                      .001
      01032  0774 00 1 00010         AXT     8,1                                                              .002
      01033 -0500 00 1 01304         CAL     ..003+8,1                                                        .002
1            SUBROUTINE TO DUMP ONE USER'S FILES....M.J.BAILEY,11/30/64          05/11/69 2013.4 PAGE 16

      01034  0602 00 1 64536         SLW     PBF+8,1                                                          .002
      01035  2 00001 1 01033         TIX     *-2,1,1                                                          .002
      01036                          PRBUFF  PBF,8+0                                                          .001
      01036  0634 00 4 01041         SXA     *+3,4                                                            .002
      01037  0074 00 4 00010         TSX     WRFLX,4                                                          .002
      01040  0 00010 0 64526                 PBF,,8+0                                                         .002
      01041  0774 00 4 00000         AXT     **,4                                                             .002
      01042                          CLEAR   PBF,8+0                                                          .002
      01042  0774 00 1 00010         AXT     8+0,1                                                            .003
      01043  0600 00 1 64536         STZ     PBF+8+0,1                                                        .003
      01044  2 00001 1 01043         TIX     *-1,1,1                                                          .003
                                     RMT                                                                      .001
                              ..003  BCI     8, U.F.D. FILE NOT FOUND FOR FOLLOWING USER,                     .001
                                     RMT                                                                      .001
      01045                          PRLINE  ( WHO IS IN M.F.D. -     ),4,0
      01045                          MOVE    4,..006,PBF                                                      .001
      01045  0774 00 1 00004         AXT     4,1                                                              .002
      01046 -0500 00 1 01310         CAL     ..006+4,1                                                        .002
      01047  0602 00 1 64532         SLW     PBF+4,1                                                          .002
      01050  2 00001 1 01046         TIX     *-2,1,1                                                          .002
      01051                          PRBUFF  PBF,4+0                                                          .001
      01051  0634 00 4 01054         SXA     *+3,4                                                            .002
      01052  0074 00 4 00010         TSX     WRFLX,4                                                          .002
      01053  0 00004 0 64526                 PBF,,4+0                                                         .002
      01054  0774 00 4 00000         AXT     **,4                                                             .002
      01055                          CLEAR   PBF,4+0                                                          .002
      01055  0774 00 1 00004         AXT     4+0,1                                                            .003
      01056  0600 00 1 64532         STZ     PBF+4+0,1                                                        .003
      01057  2 00001 1 01056         TIX     *-1,1,1                                                          .003
                                     RMT                                                                      .001
                              ..006  BCI     4, WHO IS IN M.F.D. -                                            .001
                                     RMT                                                                      .001
      01060                    ERRA1 PRLINE  (                        PROBLEM NO. ),6,1,MFDENT
      01060                          MOVE    6,..008,PBF                                                      .001
      01060  0774 00 1 00006         AXT     6,1                                                              .002
      01061 -0500 00 1 01316         CAL     ..008+6,1                                                        .002
      01062  0602 00 1 64534         SLW     PBF+6,1                                                          .002
      01063  2 00001 1 01061         TIX     *-2,1,1                                                          .002
      01064 -0500 00 0 64510         CAL     MFDENT                                                           .001
      01065  0602 00 0 64534         SLW     PBF+6                                                            .001
      01066                          PRBUFF  PBF,6+1                                                          .001
      01066  0634 00 4 01071         SXA     *+3,4                                                            .002
      01067  0074 00 4 00010         TSX     WRFLX,4                                                          .002
      01070  0 00007 0 64526                 PBF,,6+1                                                         .002
      01071  0774 00 4 00000         AXT     **,4                                                             .002
      01072                          CLEAR   PBF,6+1                                                          .002
      01072  0774 00 1 00007         AXT     6+1,1                                                            .003
      01073  0600 00 1 64535         STZ     PBF+6+1,1                                                        .003
      01074  2 00001 1 01073         TIX     *-1,1,1                                                          .003
                                     RMT                                                                      .001
                              ..008  BCI     6,                        PROBLEM NO.                            .001
                                     RMT                                                                      .001
      01075                          PRLINE  (                     PROGRAMMER NO. ),6,1,MFDENT+1
      01075                          MOVE    6,..010,PBF                                                      .001
      01075  0774 00 1 00006         AXT     6,1                                                              .002
      01076 -0500 00 1 01324         CAL     ..010+6,1                                                        .002
1            SUBROUTINE TO DUMP ONE USER'S FILES....M.J.BAILEY,11/30/64          05/11/69 2013.4 PAGE 17

      01077  0602 00 1 64534         SLW     PBF+6,1                                                          .002
      01100  2 00001 1 01076         TIX     *-2,1,1                                                          .002
      01101 -0500 00 0 64511         CAL     MFDENT+1                                                         .001
      01102  0602 00 0 64534         SLW     PBF+6                                                            .001
      01103                          PRBUFF  PBF,6+1                                                          .001
      01103  0634 00 4 01106         SXA     *+3,4                                                            .002
      01104  0074 00 4 00010         TSX     WRFLX,4                                                          .002
      01105  0 00007 0 64526                 PBF,,6+1                                                         .002
      01106  0774 00 4 00000         AXT     **,4                                                             .002
      01107                          CLEAR   PBF,6+1                                                          .002
      01107  0774 00 1 00007         AXT     6+1,1                                                            .003
      01110  0600 00 1 64535         STZ     PBF+6+1,1                                                        .003
      01111  2 00001 1 01110         TIX     *-1,1,1                                                          .003
                                     RMT                                                                      .001
                              ..010  BCI     6,                     PROGRAMMER NO.                            .001
                                     RMT                                                                      .001
      01112                          PRLINE  ( ABANDONING THIS USER IN THE CURRENT DUMP CYCLE.),8,0
      01112                          MOVE    8,..013,PBF                                                      .001
      01112  0774 00 1 00010         AXT     8,1                                                              .002
      01113 -0500 00 1 01334         CAL     ..013+8,1                                                        .002
      01114  0602 00 1 64536         SLW     PBF+8,1                                                          .002
      01115  2 00001 1 01113         TIX     *-2,1,1                                                          .002
      01116                          PRBUFF  PBF,8+0                                                          .001
      01116  0634 00 4 01121         SXA     *+3,4                                                            .002
      01117  0074 00 4 00010         TSX     WRFLX,4                                                          .002
      01120  0 00010 0 64526                 PBF,,8+0                                                         .002
      01121  0774 00 4 00000         AXT     **,4                                                             .002
      01122                          CLEAR   PBF,8+0                                                          .002
      01122  0774 00 1 00010         AXT     8+0,1                                                            .003
      01123  0600 00 1 64536         STZ     PBF+8+0,1                                                        .003
      01124  2 00001 1 01123         TIX     *-1,1,1                                                          .003
                                     RMT                                                                      .001
                              ..013  BCI     8, ABANDONING THIS USER IN THE CURRENT DUMP CYCLE.               .001
                                     RMT                                                                      .001
      01125                    ERRA2 MOVE    5,ERSTAT,PBF
      01125  0774 00 1 00005         AXT     5,1                                                              .001
      01126 -0500 00 1 00046         CAL     ERSTAT+5,1                                                       .001
      01127  0602 00 1 64533         SLW     PBF+5,1                                                          .001
      01130  2 00001 1 01126         TIX     *-2,1,1                                                          .001
      01131                          PRBUFF  PBF,5
      01131  0634 00 4 01134         SXA     *+3,4                                                            .001
      01132  0074 00 4 00010         TSX     WRFLX,4                                                          .001
      01133  0 00005 0 64526                 PBF,,5                                                           .001
      01134  0774 00 4 00000         AXT     **,4                                                             .001
      01135                          CLEAR   PBF,5                                                            .001
      01135  0774 00 1 00005         AXT     5,1                                                              .002
      01136  0600 00 1 64533         STZ     PBF+5,1                                                          .002
      01137  2 00001 1 01136         TIX     *-1,1,1                                                          .002
      01140  0020 00 0 01265         TRA     NXR           GO TO ERROR RETURN
      01141                   ERRA3  ERTN    NXR           PRINT COMMON MESSAGE THEN GO TO NXX
      01141  0634 00 4 01143         SXA     *+2,4                                                            .001
      01142  0074 00 4 00027         TSX     $ERREND,4                                                        .001
      01143  0774 00 4 00000         AXT     **,4                                                             .001
      01144  0020 00 0 01265         TRA     NXR                                                              .001
1            SUBROUTINE TO DUMP ONE USER'S FILES....M.J.BAILEY,11/30/64          05/11/69 2013.4 PAGE 18

                              *

                              *
      01145  0074 00 4 00026  ERRG   TSX     $CKCODE,4
      01146  464725456060            BCI     1,OPEN
      01147  0 00000 0 01345         PZE     =O15
      01150  0 00000 0 01005         PZE     NXPA
      01151  0074 00 4 00026         TSX     $CKCODE,4     ERROR OPENING FILE TO BE DUMPED
      01152  464725456060            BCI     1,OPEN
      01153  0 00000 0 00014         PZE     ERCODA
      01154  0 00000 0 01156         PZE     ERRG1
      01155  0020 00 0 01005         TRA     NXPA          IF USER FILE NOT FOUND, MOVE TO NEXT
      01156                    ERRG1 BGNERM  =HG           SOME OTHER ERROR
      01156  0634 00 4 01161         SXA     *+3,4                                                            .001
      01157  0074 00 4 00025         TSX     $BERM,4                                                          .001
      01160  0 00000 0 01352         PZE     =HG                                                              .001
      01161  0774 00 4 00000         AXT     **,4                                                             .001
      01162                          ERTN    NXPA          PRINT COMMON MESSAGE, MOVE TO NEXT FILE
      01162  0634 00 4 01164         SXA     *+2,4                                                            .001
      01163  0074 00 4 00027         TSX     $ERREND,4                                                        .001
      01164  0774 00 4 00000         AXT     **,4                                                             .001
      01165  0020 00 0 01005         TRA     NXPA                                                             .001

                              *
      01166  0500 00 0 64510  ERRL   CLA     MFDENT
      01167  0402 00 0 00060         SUB     MFDNAM
      01170 -0100 00 0 01174         TNZ     ERRLA
      01171  0500 00 0 64511         CLA     MFDENT+1
      01172  0402 00 0 00033         SUB     UFDNAM+1
      01173  0100 00 0 00722         TZE     NXMA          NO ERROR IF FILE IS MFD FILE
      01174                   ERRLA  BGNERM  =HL
      01174  0634 00 4 01177         SXA     *+3,4                                                            .001
      01175  0074 00 4 00025         TSX     $BERM,4                                                          .001
      01176  0 00000 0 01353         PZE     =HL                                                              .001
      01177  0774 00 4 00000         AXT     **,4                                                             .001
      01200                   ERRL1  PRLINE  (IN FILE -   ),2,2,UFDENT,UFDENT+1
      01200                          MOVE    2,..014,PBF                                                      .001
      01200  0774 00 1 00002         AXT     2,1                                                              .002
      01201 -0500 00 1 01336         CAL     ..014+2,1                                                        .002
      01202  0602 00 1 64530         SLW     PBF+2,1                                                          .002
      01203  2 00001 1 01201         TIX     *-2,1,1                                                          .002
      01204 -0500 00 0 62741         CAL     UFDENT                                                           .001
      01205  0602 00 0 64530         SLW     PBF+2                                                            .001
      01206 -0500 00 0 62742         CAL     UFDENT+1                                                         .001
      01207  0602 00 0 64531         SLW     PBF+2+1                                                          .001
      01210                          PRBUFF  PBF,2+2                                                          .001
      01210  0634 00 4 01213         SXA     *+3,4                                                            .002
      01211  0074 00 4 00010         TSX     WRFLX,4                                                          .002
      01212  0 00004 0 64526                 PBF,,2+2                                                         .002
      01213  0774 00 4 00000         AXT     **,4                                                             .002
      01214                          CLEAR   PBF,2+2                                                          .002
      01214  0774 00 1 00004         AXT     2+2,1                                                            .003
      01215  0600 00 1 64532         STZ     PBF+2+2,1                                                        .003
      01216  2 00001 1 01215         TIX     *-1,1,1                                                          .003
                                     RMT                                                                      .001
                              ..014  BCI     2,IN FILE -                                                      .001
1            SUBROUTINE TO DUMP ONE USER'S FILES....M.J.BAILEY,11/30/64          05/11/69 2013.4 PAGE 19

                                     RMT                                                                      .001
      01217                          PRLINE  (OF USER -   ),2,2,MFDENT,MFDENT+1
      01217                          MOVE    2,..015,PBF                                                      .001
      01217  0774 00 1 00002         AXT     2,1                                                              .002
      01220 -0500 00 1 01340         CAL     ..015+2,1                                                        .002
      01221  0602 00 1 64530         SLW     PBF+2,1                                                          .002
      01222  2 00001 1 01220         TIX     *-2,1,1                                                          .002
      01223 -0500 00 0 64510         CAL     MFDENT                                                           .001
      01224  0602 00 0 64530         SLW     PBF+2                                                            .001
      01225 -0500 00 0 64511         CAL     MFDENT+1                                                         .001
      01226  0602 00 0 64531         SLW     PBF+2+1                                                          .001
      01227                          PRBUFF  PBF,2+2                                                          .001
      01227  0634 00 4 01232         SXA     *+3,4                                                            .002
      01230  0074 00 4 00010         TSX     WRFLX,4                                                          .002
      01231  0 00004 0 64526                 PBF,,2+2                                                         .002
      01232  0774 00 4 00000         AXT     **,4                                                             .002
      01233                          CLEAR   PBF,2+2                                                          .002
      01233  0774 00 1 00004         AXT     2+2,1                                                            .003
      01234  0600 00 1 64532         STZ     PBF+2+2,1                                                        .003
      01235  2 00001 1 01234         TIX     *-1,1,1                                                          .003
                                     RMT                                                                      .001
                              ..015  BCI     2,OF USER -                                                      .001
                                     RMT                                                                      .001
      01236                          MOVE    5,ERSTAT,PBF
      01236  0774 00 1 00005         AXT     5,1                                                              .001
      01237 -0500 00 1 00046         CAL     ERSTAT+5,1                                                       .001
      01240  0602 00 1 64533         SLW     PBF+5,1                                                          .001
      01241  2 00001 1 01237         TIX     *-2,1,1                                                          .001
      01242                          PRBUFF  PBF,5
      01242  0634 00 4 01245         SXA     *+3,4                                                            .001
      01243  0074 00 4 00010         TSX     WRFLX,4                                                          .001
      01244  0 00005 0 64526                 PBF,,5                                                           .001
      01245  0774 00 4 00000         AXT     **,4                                                             .001
      01246                          CLEAR   PBF,5                                                            .001
      01246  0774 00 1 00005         AXT     5,1                                                              .002
      01247  0600 00 1 64533         STZ     PBF+5,1                                                          .002
      01250  2 00001 1 01247         TIX     *-1,1,1                                                          .002
      01251  0020 00 0 00764         TRA     NXPB
                              *
      01252  0500 00 0 64510  ERRM   CLA     MFDENT
      01253  0402 00 0 00060         SUB     MFDNAM
      01254 -0100 00 0 01260         TNZ     ERRMA
      01255  0500 00 0 64511         CLA     MFDENT+1
      01256  0402 00 0 00033         SUB     UFDNAM+1
      01257  0100 00 0 00760         TZE     NXNA          NO ERROR IF FILE IS MFD FILE
      01260                   ERRMA  BGNERM  =HM
      01260  0634 00 4 01263         SXA     *+3,4                                                            .001
      01261  0074 00 4 00025         TSX     $BERM,4                                                          .001
      01262  0 00000 0 01354         PZE     =HM                                                              .001
      01263  0774 00 4 00000         AXT     **,4                                                             .001
      01264  0020 00 0 01200         TRA     ERRL1
                              *
      01265  0074 00 4 00005   NXR   TSX     CLOSE,4       CLOSE U.F.D. FILE
 TD   01266  3 00000 0 00032         TXH     UFDNAM
 TD   01267  3 00000 0 00033         TXH     UFDNAM+1
      01270  0534 00 4 01020         LXA     DU4,4         SET UP RETURN TO (2,4), ERROR RETURN
1            SUBROUTINE TO DUMP ONE USER'S FILES....M.J.BAILEY,11/30/64          05/11/69 2013.4 PAGE 20

      01271  1 00001 4 01272         TXI     *+1,4,1
      01272  0634 00 4 01020         SXA     DU4,4
      01273  0020 00 0 01016         TRA     DU1           GO EXIT
                              *
                                     INSERT  DCMEQB
                              *
                              *  .  .  .  .  .  .  .  .  .  .  .  .  .  .  .  .  .  .
                              *    COMMON AND EQUIVALENCE FOR GENERAL DUMP PROGRAM
                              *  .  .  .  .  .  .  .  .  .  .  .  .  .  .  .  .  .  .
                              *
                      074446  DEMKEY BOOL    74446         CORE A LOCATION FOR DAEMON'S KEY SETTING
                      074624  SYSTIM BOOL    74624         CORE A LOCATION FOR SYSTEM  TIME
                      074623  SYSDAT BOOL    74623         CORE A LOCATION FOR SYSTEM INIT. DATE
                      076041  RCODE  BOOL    76041         CORE A LOCATION FOR RESTRICTION CODE VECTOR
                      074454  AUTOND BOOL    74454         CORE A AUTOMATIC LOGOUT INDICATOR
                      074532  NUSERS BOOL    74532         CORE A LOGGED-IN USER COUNT
                      076500  PROBN  BOOL    76500         CORE A PROBNO ARRAY
                      076305  UFDNM  BOOL    76305         CORE A UFDNM ARRAY
                      074672  PB     BOOL    74672         CORE A GUARANTEED PERCENTAGE VECTOR BASE
                       00050  N      EQU     40            CORE A MAX. NO. OF USERS (SIZE OF PROBN)
                              *
                      000017  BASE   BOOL    17            KEY CODE BASE
                      000001  I      BOOL    1             KEY CODE TO START INCREMENTAL DUMP
                      000002  PAUSE  BOOL    2             KEY CODE TO WAIT FOR 1 MIN.
                      000003  C      BOOL    3             KEY CODE TO DO COMPLETE DUMP
                      000004  AK     BOOL    4             KEY CODE FOR IMPENDING AUTOLOGOUT
                      000005  ENFLSH BOOL    5             KEY CODE TO ENTER FLUSH MODE
                      000006  LVFLSH BOOL    6             KEY CODE TO LEAVE FLUSH MODE
                      000007  ENDTAP BOOL    7             KEY CODE TO TERMINATE DUMP TAPE FILE
                      000010  INT    BOOL    10            SIMULATE INTERRUPT
                       00660  RECSIZ EQU     432           TAPE RECORD SIZE
                       00006   NX    EQU     6             MAX. NO. OF SYSTEM FILE OWNERS
                       00030  NCD    EQU     24            MAX. NO. 'DAYS' NON-USE OF CURRENT FILES
                       00014  DINC   EQU     12            NO. DAYS OF 'RECENCY' INCREMENT (C.DUMP)
                       01274  U      EQU     700           MAX. NO. USERS IN MFD USER LIST
                       03300  TBSIZ  EQU     4*RECSIZ      TAPE BUFFER SIZE
                       00007  ERYSIZ EQU     7             I/O SYSTEM ERROR ARRAY SIZE
                       00014  ERCODA EQU     12            'OPEN' ERROR CODE FOR FILE NOT FOUND
                       00016  ERCODB EQU     14            'OPEN' ERROR CODE RQSTD. DEVICE UNAVBLE
                       00660  NW     EQU     432           SIZE OF SECONDARY I/O FILE BUFFERS
                       00001  LSDRUM EQU     1             I/O SYSTEM DEVICE CODE FOR L.S.DRUM
                       00002    DISK EQU     2             I/O SYSTEM DEVICE CODE FOR DISK
                       00003   TAPE  EQU     3             I/O SYSTEM DEVICE CODE FOR TAPE
                       00030  NHOUR  EQU     24            NO. OF HOURS IN A 'DAY'
                       77461  KEYVAL COMMON  1             LAST KEY SETTING READ FROM SUPERVISOR
                       77460  FLSHSW COMMON  1             FLUSH MODE SWITCH
                       77457  ENTPSW COMMON  1             OPERATOR-REQUESTED-END-TAPE INDICATOR
                       77456  NMFDU  COMMON  1             NO. USERS CURRENTLY IN LIST
                       77455  EXEMPT COMMON  2*NX          LIST OF SYSTEM FILE OWNERS
                       77441  NXMPT  COMMON  1             NO. FILE USERS EXEMPT FROM DUMP IN DCYCLE
                       77440  DTLD   COMMON  U             TIME LAST DUMPED FOR EACH USER
                       76144  PROGNO COMMON  U             PROGRAMMER NO. OF EACH USER
                       74650  PROBNO COMMON  U             PROBLEM NO. OF EACH USER
                       73354   FLUSH COMMON  1             NON-ZERO INDICATES FLUSH MODE IS FORCED
                       73353   TND   COMMON  1             TIME OF NEXT DUMP FOR CURRENT USER
                       70053         COMMON  TBSIZ-1       TAPE BUFFER
1            SUBROUTINE TO DUMP ONE USER'S FILES....M.J.BAILEY,11/30/64          05/11/69 2013.4 PAGE 21

                       70053  TPBUF  COMMON  1             TAPE BUFFER 1ST WORD
                       64553         COMMON  TBSIZ-1       2ND TAPE BUFFER
                       64553  TPBUF2 COMMON  1             2ND TAPE BUFFER, 1ST WORD
                       64544         COMMON  ERYSIZ-1      ERROR ARRAY
                       64544  ERAY   COMMON  1             ERROR ARRAY 1ST WORD
                       64526         COMMON  13            PRINT BUFFER
                       64526   PBF   COMMON  1             PRINT BUFFER 1ST WORD
                       64510         COMMON  13            MFD ENTRY BUFFER
                       64510  MFDENT COMMON  1             MFD ENTRY BUFFER 1ST WORD
                       63630         COMMON  NW-1          SECONDARY I/0 FILE BUFFER
                       63630   IOBUF COMMON  1             SECONDARY IO BUFFER 1ST WORD
                       62750         COMMON  NW-1          SECONDARY I/O FILE BUFFER
                       62750  IOBUF2 COMMON  1             SECONDARY I/O BUFFER 1ST WORD
                       62747  UFDEOF COMMON  1             ZERO INDICATES EOF IN UFD FILE
                       62741         COMMON  5             PARTIAL UFD ENTRY BUFFER
                       62741  UFDENT COMMON  1             PARTIAL UFD ENTRY BUFFER 1ST WORD
                       62740   MFDC  COMMON  1             NEXT WORD TO BE READ FROM MFD FILE
                       62737   TLD   COMMON  1             TIME LAST DUMP OF USER CURRENTLY DUMPING
                       62736   UFDC  COMMON  1             NEXT UNREAD POS. OF UFDFILE (NORMALLY ZERO)
                       62735  MFDEOF COMMON  1             ZERO INDICATES EOF IN MFD FILE
                       62734   EOFCT COMMON  1             NO. OF WORDS READ BEFORE AN EOF
                       62733   FEOF  COMMON  1             ZERO INDICATES EOF IN A USER FILE
                       62732  EOFCTA COMMON  1             NO. OF WORDS BEFORE AN EOF
                       62731   DMPSW COMMON  1             NON-ZERO INDICATES A FILE HAS BEEN DUMPED
                       62730   DAWN  COMMON  1             TIME OF START OF 'DAY'
                       62727  DMPUSR COMMON  1             PROBLEM NO. OF DUMP/LOAD PACKAGE
                       62726  DMPRGR COMMON  1             PROGRAMMER NO. OF  DITTO.
                       62727  DU     EQU     DMPUSR
                       62726  DP     EQU     DMPRGR
                       62725   MFD1W COMMON  1             NO. OF 1ST GOOD WORD IN MFD AND UFD FILES
                       62723         COMMON  1             2ND PART OF DUMP TAPE FILE (COPY 1) NAME
                       62723  NFN1   COMMON  1             1ST PART OF DUMP TAPE FILE (COPY 1) NAME
                       62721         COMMON  1             2ND PART OF DUMP TAPE FILE (COPY 2) NAME
                       62721   NFN2  COMMON  1             1ST PART OF DUMP TAPE FILE (COPY 2) NAME
                       62720  TNDSW  COMMON  1             INDICATES TIME OF THIS DUMP CURRENT OR NO
                       62040         COMMON  RECSIZ-1      INTERNAL TAPE BUFFER
                       62040   ITB1  COMMON  1                ,,     ,,    ,,  1ST WORD
                       61160         COMMON  RECSIZ-1      INTERNAL TAPE BUFFER
                       61160   ITB2  COMMON  1                ,,     ,,  ,,  1ST WORD
                       61157   DUSK  COMMON  1             TIME OF END OF CURRENT 'DAY'
                       61156   ENDSW COMMON  1             IF 1, NORMAL END-OF-DAY,ELSE OPERATOR ONE
                       60276         COMMON  NW-1          INTERNAL BUFFER FOR 'MAP' FILE
                       60276    IMP  COMMON  1                ,,      ,,    ,,   ,,   ,,  1ST WORD
                       60267         COMMON  6             'MAP' FILE LINE PARAMETER ARRAY
                       60267  ARGLST COMMON  1               ,,   ,,   ,,      ,,      ,,  1ST WORD
                       60266  CDSW   COMMON  1             NON-ZERO DURING COMPLETE DUMP,ELSE ZERO
                       60265  DATE   COMMON  1             DATE THE DUMP NOW IN PROGRESS BEGAN
                       60264  TIME   COMMON  1             TIME DUMP NOW IN PROGRESS BEGAN
                       60263  TCYCLE COMMON  1             'TIME' OF LAST CYCLE ON DUMP TAPE FILE
                       60262  TFOSW  COMMON  1             NON-ZERO IF DUMP TAPE FILE IS OPEN
                       60261  ALOG   COMMON  1             NON-ZERO IF AUTOLOGOUT ON
                       60260  SW1    COMMON  1
                       60257  TCP    COMMON  1
                       60256  TNDSAV COMMON  1
                       60255  ODAWN  COMMON  1             TIME OF START OF PREVIOUS 'DAY'
                       60244         COMMON  8             TAPE LABEL
1            SUBROUTINE TO DUMP ONE USER'S FILES....M.J.BAILEY,11/30/64          05/11/69 2013.4 PAGE 22

                       60244  TAPEID COMMON  1             TAPE LABEL 1ST WORD
                       60243  SKELSW COMMON  1
                       60254  REELNO EQU     TAPEID+8
                                     END
                                              REMOTE SEQUENCES
      01274  606433263324     ..003  BCI     8, U.F.D. FILE NOT FOUND FOR FOLLOWING USER,                     .001
      01275  336026314325
      01276  604546636026
      01277  466445246026
      01300  465160264643
      01301  434666314527
      01302  606462255173
      01303  606060606060
      01304  606630466031     ..006  BCI     4, WHO IS IN M.F.D. -                                            .001
      01305  626031456044
      01306  332633243360
      01307  406060606060
      01310  606060606060     ..008  BCI     6,                        PROBLEM NO.                            .001
      01311  606060606060
      01312  606060606060
      01313  606060606060
      01314  475146224325
      01315  446045463360
      01316  606060606060     ..010  BCI     6,                     PROGRAMMER NO.                            .001
      01317  606060606060
      01320  606060606060
      01321  606060475146
      01322  275121444425
      01323  516045463360
      01324  602122214524     ..013  BCI     8, ABANDONING THIS USER IN THE CURRENT DUMP CYCLE.               .001
      01325  464531452760
      01326  633031626064
      01327  622551603145
      01330  606330256023
      01331  645151254563
      01332  602464444760
      01333  237023432533
      01334  314560263143     ..014  BCI     2,IN FILE -                                                      .001
      01335  256040606060
      01336  462660646225     ..015  BCI     2,OF USER -                                                      .001
      01337  516040606060

        LITERALS
      01340  000000000000
      01341  000000000001
      01342  000000000003
      01343  000000000007
      01344  000000000014
      01345  000000000015
      01346  000000077777
      01347  000001000003
      01350  077777077777
      01351  216060606060
      01352  276060606060
      01353  436060606060
      01354  446060606060
1            SUBROUTINE TO DUMP ONE USER'S FILES....M.J.BAILEY,11/30/64          05/11/69 2013.4 PAGE 23

      01355  516660606060
      01356  777777000000
1            SUBROUTINE TO DUMP ONE USER'S FILES....M.J.BAILEY,11/30/64          05/11/69 2013.4 PAGE 1
                        POST PROCESSOR ASSEMBLY DATA

       60242 IS THE LAST LOCATION NOT USED BY THIS PROGRAM
       1357 IS THE FIRST LOCATION NOT USED BY THIS PROGRAM

0REFERENCES TO DEFINED SYMBOLS
        103      A   565,  566, 1000, 1001, 1002, 1003
          3      C  1274
          1      I  1274
         50      N  1274
         34      R   157,  257,  536
       1274      U  1274
         62      Y   176,  177,  201,  203
          4     AK  1274
      62726     DP  1274
      62727     DU  1274
         72     L7
        660     NW    50,   51, 1274
          6     NX  1274
      74672     PB  1274
       1016    DU1   123,  150,  222, 1273
       1017    DU2   124,  151,  223
       1020    DU4   125,  152,  224, 1270, 1272
         14    GDT   132
      60276    IMP  1274
         10    INT  1274
         30    NCD  1274
        271    NXI   214
        371    NXJ   346
        407    NXK   370
        673    NXM   727
        727    NXN   652
        732    NXP   672
       1007    NXQ   447,  457,  472,  475,  504,  505, 1004
       1265    NXR   360,  402,  442,  444, 1140, 1144
        246    OQD   242
      64526    PBF  1034, 1040, 1043, 1047, 1053, 1056, 1062, 1065, 1070, 1073, 1077, 1102, 1105, 1110, 1114, 1120, 1123
                    1127, 1133, 1136, 1202, 1205, 1207, 1212, 1215, 1221, 1224, 1226, 1231, 1234, 1240, 1244, 1247, 1274
         24    RDF   714,  752
      60260    SW1  1274
      60257    TCP  1274
      62737    TLD   131,  314,  423,  474,  520,  614, 1274
      73353    TND   316,  425,  471,  522,  617, 1274
      60261   ALOG  1274
         17   BASE  1274
         25   BERM  1023, 1157, 1175, 1261
      60266   CDSW   421,  463,  516, 1274
      60265   DATE  1274
      62730   DAWN  1274
         14   DINC  1274
          2   DISK   504,  505, 1274
      77440   DTLD  1274
      61157   DUSK  1274
        221   DUSR     0,  216
      64544   ERAY  1274
       1022   ERRA   164,  264
1            SUBROUTINE TO DUMP ONE USER'S FILES....M.J.BAILEY,11/30/64          05/11/69 2013.4 PAGE 2
                        POST PROCESSOR ASSEMBLY DATA

       1145   ERRG   555
       1166   ERRL   721
       1252   ERRM   757
      62733   FEOF   574,  720,  756, 1274
        102   FLFL   670,  673,  677,  732
      62040   ITB1  1274
      61160   ITB2  1274
         50   LBUF   170,  270
      62740   MFDC  1274
         55   NFLR   335,  337,  345,  647,  651,  653,  671
      62723   NFN1  1274
      62721   NFN2  1274
        347   NXIB   366
        366   NXIC   340
        430   NXKA   422
        531   NXLB   147
        710   NXM1   703
        712   NXM2   707,  713
        715   NXM3   705
        723   NXM4   701
        722   NXMA  1173
        760   NXNA  1257
        746   NXP1   741
        750   NXP2   745,  751
        753   NXP3   743
        761   NXP4   737
       1005   NXPA   532, 1150, 1155, 1165
        764   NXPB   717,  755, 1251
        774   NXPD   533
       1006   NXPE   534
          2   OPEN   156,  256,  547
          3   TAPE  1274
         75   TBA1   700,  736
         77   TBA2   702,  740
        101   TBA3   706,  744
         35   TEMP   322,  332,  357,  401,  467,  470,  473,  634,  644,  716,  754
      60264   TIME  1274
      62736   UFDC   272, 1274
         20   WRNF   361,  403,  722,  760
         73  ALLSW   213,  217,  221,  460
          5  CLOSE   767, 1012, 1265
      62731  DMPSW   772, 1274
       1012  DU111   440
        150  DUSR1     0
        217  DUSRX     0
      61156  ENDSW  1274
      62734  EOFCT  1274
       1060  ERRA1  1031
       1125  ERRA2
       1141  ERRA3
       1156  ERRG1  1154
       1200  ERRL1  1264
       1174  ERRLA  1170
       1260  ERRMA  1254
      73354  FLUSH  1274
1            SUBROUTINE TO DUMP ONE USER'S FILES....M.J.BAILEY,11/30/64          05/11/69 2013.4 PAGE 3
                        POST PROCESSOR ASSEMBLY DATA

          4  FWAIT
         15  GDSIG   303,  364,  406,  535,  725, 1007
      63630  IOBUF   170,  270, 1274
       1274  ..003  1033
       1304  ..006  1046
       1310  ..008  1061
       1316  ..010  1076
       1324  ..013  1113
       1334  ..014  1201
       1336  ..015  1220
         51  LBUF2   561
         47  LTPBF   320,  363,  632,  724
      62725  MFD1W  1274
         30  NHOUR  1274
         56  NLAST   336,  341,  367,  405,  650,  655,  661,  663,  730,  762
         16  NLREC   326,  640
      77456  NMFDU  1274
        525  NXFDB   517
        460  NXFLA   451,  453,  456
      77441  NXMPT  1274
        763  NXPBG   731
      60255  ODAWN  1274
          2  PAUSE  1274
      76500  PROBN  1274
      76041  RCODE  1274
         17  RDUFD   355,  377
       3300  TBSIZ    47,  100,  101,  274,  275,  350,  351,  372,  373,  575,  576,  711,  747, 1274
      60262  TFOSW  1274
      62720  TNDSW  1274
      70053  TPBUF    75,   77,  101,  275,  306,  310,  312,  315,  317,  343,  347,  351,  356,  362,  371,  373,  400
                     404,  576,  606,  615,  620,  624,  665, 1274
         36  UFDID   311
      76305  UFDNM  1274
         10  WRFLX   301,  602, 1037, 1052, 1067, 1104, 1117, 1132, 1211, 1230, 1243
      60267 ARGLST   135,  137,  141,  143,  144,  145,  146,  410,  412,  414,  416,  420,  424,  426,  432,  433,  507
                     511,  514,  521,  523,  527,  530, 1274
          0 ATTACH   153,  253,  544,  764
      74454 AUTOND  1274
          3 BUFFER   165,  265,  556
         11 CHFILE
         26 CKCODE  1026, 1145, 1151
          6 DELFIL
      74446 DEMKEY  1274
        113 DMNDMP     0
        120 DMPFIL     0,  117
      62726 DMPRGR  1274
        215 DMPUFD     0
      62727 DMPUSR  1274
         46 EMPTSW   210,  215,  232,  435,  437
          7 ENDTAP  1274
          5 ENFLSH  1274
      77457 ENTPSW  1274
         23 ENTUFD   443
      62732 EOFCTA  1274
         14 ERCODA  1030, 1153, 1274
1            SUBROUTINE TO DUMP ONE USER'S FILES....M.J.BAILEY,11/30/64          05/11/69 2013.4 PAGE 4
                        POST PROCESSOR ASSEMBLY DATA

         16 ERCODB  1274
         27 ERREND  1142, 1163
         41 ERSTAT  1126, 1237
          7 ERYSIZ  1274
      77455 EXEMPT  1274
      77460 FLSHSW  1274
         12 FSTATE   173,  562
         22 IENUFD   441
      62750 IOBUF2   561, 1274
      77461 KEYVAL  1274
         54 LCOUNT   205,  225,  233,  246,  247,  331,  570,  643
          1 LSDRUM   502,  503, 1274
          6 LVFLSH  1274
         21 MAPLIN   434,  763
      64510 MFDENT   127,  134,  140,  154,  155,  171,  172,  200,  202,  204,  226,  236,  250,  254,  255,  302,  305
                     307,  323,  407,  411,  417,  430,  506,  510,  545,  546,  605,  611,  765,  766, 1064, 1101, 1166
                    1171, 1223, 1225, 1252, 1255, 1274
      62735 MFDEOF  1274
         60 MFDNAM  1167, 1253
         53 NORECS   212,  235,  240,  252,  327,  572,  641
      74532 NUSERS  1274
        506 NXFDMP   503
        443 NXFILE  1011
        476 NXFLAA   461
         57 PHYSRC   334,  646,  660
      74650 PROBNO  1274
      76144 PROGNO  1274
         52 RCOUNT   237,  244,  325,  330,  637,  642
        660 RECSIZ    57, 1274
      60254 REELNO  1274
         13 SETFIL   775
      60243 SKELSW  1274
         61 STATUS   543,  550
      74623 SYSDAT  1274
      74624 SYSTIM  1274
      60244 TAPEID  1274
      60263 TCYCLE   126, 1274
          1 TILOCK   531,  773, 1005
      60256 TNDSAV  1274
      64553 TPBUF2    74,   76,  100,  612,  616,  621,  630,  666, 1274
      62741 UFDENT   114,  116,  120,  121,  133,  136,  142,  445,  446,  454,  462,  465,  476,  513,  525,  537,  551
                     552,  557,  560,  563,  564,  567,  603,  623,  627,  635,  770,  771,  776,  777, 1204, 1206, 1274
      62747 UFDEOF   130,  273,  353,  375, 1010, 1274
         32 UFDNAM   160,  161,  166,  167,  174,  175,  260,  261,  266,  267,  413,  415,  450,  455, 1013, 1014, 1172
                    1256, 1266, 1267
          7 WRFILE

0 NO ERROR IN ABOVE ASSEMBLY.
