1                                                                                05/11/69 2006.7 PAGE 1

                       00004         ENTRY   GETA
                       00005         ENTRY   NGETA
                                     EXTERN  GETLOC,SETLOC

        TRANSFER VECTOR
      00000  272563434623     GETLOC
      00001  622563434623     SETLOC

            LINKAGE DIRECTOR
      00002  000000000000
      00003  272563216060

      00004  0600 00 0 00067  GETA   STZ     NINDC
      00005 -0600 00 0 00072  NGETA  STQ     TMPMQ
      00006  0601 00 0 00071         STO     TMPAC
      00007  0602 00 0 00073         SLW     TMPACL
      00010  0634 00 7 00062         SXA     NGX7,7
      00011  0634 00 4 00063         SXA     NGX4,4
      00012  0604 00 0 00066         STI     INDIC
      00013  0441 00 7 00001         LDI     1,7
      00014  0520 00 0 00067         ZET     NINDC
      00015  0020 00 0 00031         TRA     GETL          DON'T COMPUTE EFFECTIVE ADDRESS
      00016 -0625 00 0 00067         STL     NINDC
      00017 -0046 00 0 00000         PIA
      00020  0074 00 7 00074  CKRL1  TSX     GETEFA,7      GET EFFECTIVE ADDRESS
      00021 -0056 00  000060         LNT     60            IS THERE INDIRECT ADDRESS
      00022  0020 00 0 00027         TRA     CKRL2         NO
      00023 -0057 00  000077         RIL     77            TURN OFF INDIRECT ADDRESS BITS
      00024  0737 00 7 00000         PAC     0,7
      00025 -0500 00 7 00000         CAL     0,7
      00026  0020 00 0 00020         TRA     CKRL1         COMPUTE FINAL ADDRESS
      00027  0057 00  777777  CKRL2  RIR     777777        FINAL ADDRESS IN AC NOW
      00030  0043 00 0 00000         OAI                   OP CODE IN INDICATOR
      00031 -0046 00 0 00000  GETL   PIA                   INSTRUCTION IN AC
      00032  0621 00 0 00055         STA     GA2
      00033  0621 00 0 00040         STA     GA            SET ADDRESS TO GET FROM CORE A
      00034  0622 00 0 00047         STD     XGA           SET OP CODE OF INSTRUCTION
      00035  0630 00 0 00047         STP     XGA
      00036  0625 00 0 00047         STT     XGA
      00037  0074 00 4 00000         TSX     GETLOC,4
      00040  0 00000 0 00000  GA     PZE     **
      00041  0602 00 0 00070         SLW     GTMP          WORD FROM CORE A INTO GTMP
      00042 -0500 00 0 00073         CAL     TMPACL
      00043  0560 00 0 00071         LDQ     TMPAC
      00044  0763 00 0 00000         LLS     0
      00045  0560 00 0 00072         LDQ     TMPMQ
      00046  0441 00 0 00066         LDI     INDIC
      00047  0 00000 0 00070  XGA    ***     GTMP          EXECUTE INSTRUCTION
      00050  0441 00 0 00047         LDI     XGA
      00051 -0056 00  060000         LNT     060000        IS THIS A STORE-TYPE INSTRUCTION
      00052  0020 00 0 00062         TRA     NGX7          NO
      00053 -0500 00 0 00070         CAL     GTMP
      00054  0074 00 4 00001         TSX     SETLOC,4
      00055  0 00000 0 00000  GA2    PZE     **
      00056 -0500 00 0 00073         CAL     TMPACL
      00057  0560 00 0 00071         LDQ     TMPAC
1                                                                                05/11/69 2006.7 PAGE 2

      00060  0763 00 0 00000         LLS     0
      00061  0560 00 0 00072         LDQ     TMPMQ
      00062  0774 00 7 00000  NGX7   AXT     **,7
      00063  0774 00 4 00000  NGX4   AXT     **,4
      00064  0441 00 0 00066         LDI     INDIC
      00065  0020 00 7 00002         TRA     2,7
      00066  0 00000 0 00000  INDIC  PZE     0
      00067 +000000777777     NINDC  OCT     777777
      00070  0 00000 0 00000  GTMP   PZE     0
      00071  0 00000 0 00000  TMPAC  PZE     0
      00072  0 00000 0 00000  TMPMQ  PZE     0
      00073  0 00000 0 00000  TMPACL PZE     0
      00074  0634 00 7 00102  GETEFA SXA     GETF7,7
      00075  0625 00 0 00077         STT     *+2           TAG
      00076  0734 00 7 00000         PAX     ,7            PTR
      00077 -0636 00 0 00100         SCD     *+1,**        -C(TAG)
      00100  1 00000 7 00101         TXI     *+1,7,**      PTH-C(TAG)
      00101  0754 00 7 00000         PXA     ,7            INTO AC
      00102  0774 00 7 00000  GETF7  AXT     **,7
      00103  0020 00 7 00001         TRA     1,7
                                     END
1                                                                                05/11/69 2006.7 PAGE 1
                        POST PROCESSOR ASSEMBLY DATA

        104 IS THE FIRST LOCATION NOT USED BY THIS PROGRAM

0REFERENCES TO DEFINED SYMBOLS
         40     GA    33
         55    GA2    32
         47    XGA    34,   35,   36,   50
          4   GETA     0
         31   GETL    15
         70   GTMP    41,   47,   53
         63   NGX4    11
         62   NGX7    10,   52
         20  CKRL1    26
         27  CKRL2    22
        102  GETF7    74
         66  INDIC    12,   46,   64
          5  NGETA     0
         67  NINDC     4,   14,   16
         71  TMPAC     6,   43,   57
         72  TMPMQ     5,   45,   61
         74 GETEFA    20
          0 GETLOC    37
          1 SETLOC    54
         73 TMPACL     7,   42,   56

0 NO ERROR IN ABOVE ASSEMBLY.
1     MAD PROGRAM LISTING ... ... ...                 FILE   NLREC   MAD            05/11/69    2006.9
-
                  EXTERNAL FUNCTION (NRECS,IRC,LRC,LTRC,LPREAM,LPHYS,NFLR,NLAST                   *001  000001
                1 )                                                                               *001  000002
                  ENTRY TO    NLREC .                                                             *002  000003
                  NWDS=(NRECS-1)*IRC+LRC                                                          *003  000004
                  NFLR=NWDS/LTRC                                                                  *004  000005
                  NLEFT=XMOD  .(    NWDS,LTRC)                                                    *005  000006
                  WHENEVER (NLEFT) .LE. 0, TRANSFER TO QQ0004                                     *006  000007
                  MLPH = NLEFT + LPREAM                                                           *007  000017
                  REM = MLPH - (MLPH/LPHYS)*LPHYS                                                 *008  000027
                  NLAST=(MLPH/LPHYS+(REM/REM))*LPHYS                                              *009  000037
                  TRANSFER TO QQ0005                                                              *010  000047
      QQ0004      NLAST=0                                                                         *011  000057
      QQ0005      FUNCTION RETURN                                                                 *012  000067
                  INTEGER     NWDS  ,     NRECS ,     IRC   ,     LRC                             *013  000077
                  INTEGER     NFLR  ,     LTRC  ,     NLEFT ,     XMOD                            *014  000087
                  INTEGER     NLAST ,     LPREAM,     LPHYS                                       *015  000097
                  INTEGER   MLPH,     REM                                                         *016  000107
                  END OF FUNCTION                                                                 *017  000117
1MAD PROGRAM,TYPE NOV 1963      (ALL NUMBERS ARE OCTAL)
0TOTAL LOCATIONS   00143 TRANSFER VECTOR LENGTH  00002 PROGRAM BEGINS    00014
0 PROGRAM IS AN EXTERNAL FUNCTION.   THE FOLLOWING ARE ENTRIES
      NLREC  00015   0
0VARIABLE STORAGE (A=ARRAY,C=COMMON,E=ERASABLE,DIGIT=MODE)
      MLPH   00005   1        NWDS   00007   1        QQ0004 00003   4        QQ0005 00004   4        REM    00010   1
      NLEFT  00006   1
0FUNCTION DICTIONARY
      EXIT   00000   0        XMOD   00001   1
0ABSOLUTE CONSTANTS
 00011 +000000000000     00012 +000000000001     00013 +233000000000
0STATEMENT DICTIONARY
 00003 TXL -300101000077       00004 TXL -300102000101
0PROGRAM
                 EXTERNAL FUNCTION (NRECS,IRC,LRC,LTRC,LPREAM,LPHYS,NFLR,NLAST      001   000001
                1)                                                                  001   000002
                 ENTRY TO    NLREC .                                                002   000003
 00014 TRA +0 02000 0 00017    00015 SXA +0 63400 2 00103    00016 TSX +0 07400 2 00103
                 NWDS=(NRECS-1)*IRC+LRC                                             003   000004
 00017 CLA +0 50000 0 00024    00020 SUB +0 40200 0 00012    00021 XCA +0 13100 0 00000    00022 MPY +0 20000 0 00024
 00023 XCA +0 13100 0 00000    00024 ADD +0 40000 0 00024    00025 STO +0 60100 0 00007
                 NFLR=NWDS/LTRC                                                     004   000005
 00026 LDQ +0 56000 0 00007    00027 PXD -0 75400 0 00000    00030 LLS +0 76300 0 00000    00031 DVP +0 22100 0 00024
 00032 STQ -0 60000 0 00024
                 NLEFT=XMOD  .(    NWDS,LTRC)                                       005   000006
 00033 TSX +0 07400 4 00001    00034 TXH +3 00000 0 00007    00035 TXH +3 00000 0 00024    00036 STO +0 60100 0 00006
                 WHENEVER (NLEFT) .LE. 0, TRANSFER TO QQ0004                        006   000007
 00037 CLA +0 50000 0 00006    00040 SUB +0 40200 0 00011    00041 TZE +0 10000 0 00043    00042 TPL +0 12000 0 00044
 00043 TRA +0 02000 0 00003
                 MLPH = NLEFT + LPREAM                                              007   000017
 00044 CLA +0 50000 0 00006    00045 ADD +0 40000 0 00024    00046 STO +0 60100 0 00005
                 REM = MLPH - (MLPH/LPHYS)*LPHYS                                    008   000027
 00047 LDQ +0 56000 0 00005    00050 PXD -0 75400 0 00000    00051 LLS +0 76300 0 00000    00052 DVP +0 22100 0 00024
 00053 MPY +0 20000 0 00024    00054 XCA +0 13100 0 00000    00055 CHS +0 76000 0 00002    00056 ADD +0 40000 0 00005
 00057 STO +0 60100 0 00010
                 NLAST=(MLPH/LPHYS+(REM/REM))*LPHYS                                 009   000037
 00060 LDQ +0 56000 0 00010    00061 PXD -0 75400 0 00000    00062 LLS +0 76300 0 00000    00063 DVP +0 22100 0 00010
 00064 STQ -0 60000 0 00140    00065 LDQ +0 56000 0 00005    00066 PXD -0 75400 0 00000    00067 LLS +0 76300 0 00000
 00070 DVP +0 22100 0 00024    00071 XCA +0 13100 0 00000    00072 ADD +0 40000 0 00140    00073 XCA +0 13100 0 00000
 00074 MPY +0 20000 0 00024    00075 STQ -0 60000 0 00024
                 TRANSFER TO QQ0005                                                 010   000047
 00076 TRA +0 02000 0 00004
      QQ0004     NLAST=0                                                            011   000057
 00077 CLA +0 50000 0 00011    00100 STO +0 60100 0 00024
      QQ0005     FUNCTION RETURN                                                    012   000067
 00101 TRA +0 02000 0 00134
                 INTEGER     NWDS  ,     NRECS ,     IRC   ,     LRC                013   000077
                 INTEGER     NFLR  ,     LTRC  ,     NLEFT ,     XMOD               014   000087
                 INTEGER     NLAST ,     LPREAM,     LPHYS                          015   000097
                 INTEGER   MLPH,     REM                                            016   000107
                 END OF FUNCTION                                                    017   000117
 00102 TSX +0 07400 4 00000    00103 TXH +3 00000 0 00000    00104 SXD -0 63400 1 00103    00105 SXA +0 63400 4 00134
 00106 CLA +0 50000 4 00001    00107 STA +0 62100 0 00017    00110 CLA +0 50000 4 00002    00111 STA +0 62100 0 00022
 00112 CLA +0 50000 4 00003    00113 STA +0 62100 0 00024    00114 CLA +0 50000 4 00004    00115 STA +0 62100 0 00031
 00116 STO +0 60100 0 00035    00117 CLA +0 50000 4 00005    00120 STA +0 62100 0 00045    00121 CLA +0 50000 4 00006
 00122 STA +0 62100 0 00052    00123 STA +0 62100 0 00053    00124 STA +0 62100 0 00070    00125 STA +0 62100 0 00074
 00126 CLA +0 50000 4 00007    00127 STA +0 62100 0 00032    00130 CLA +0 50000 4 00010    00131 STA +0 62100 0 00075
 00132 STA +0 62100 0 00100    00133 TRA +0 02000 2 00001    00134 AXT +0 77400 4 00000    00135 LXA +0 53400 2 00103
 00136 LXD -0 53400 1 00103    00137 TRA +0 02000 4 00001
1     FAP ASSEMBLY LISTING  ...  ...  ...        FILE PRCODE _____FAP___         05/11/69 2007.1 PAGE 1

                       00003         ENTRY   PRCODE
                                     EXTERN  WRFLX

        TRANSFER VECTOR
      00000  665126436760     WRFLX

            LINKAGE DIRECTOR
      00001  000000000000
      00002  475123462425

      00003  0634 00 1 00042  PRCODE SXA     P1,1
      00004  0634 00 4 00043         SXA     P4,4
      00005 -0500 00 4 00001         CAL     1,4
      00006  0400 00 0 00063         ADD     =O17
      00007  0322 00 0 00064         ERA     =O506060600000
      00010 -0765 00 0 00014         LGR     12
      00011 -0773 00 0 00006         RQL     6
      00012  0774 00 1 00002         AXT     2,1
      00013  0767 00 0 00003         ALS     3
      00014 -0763 00 0 00003         LGL     3
      00015  2 00001 1 00013         TIX     *-2,1,1
      00016  0602 00 0 00047         SLW     MESX+2
      00017 -0500 00 4 00002         CAL     2,4
      00020 -0734 00 1 00000         PDX     ,1
      00021 -0634 00 1 00030         SXD     INC,1
      00022 -0634 00 1 00031         SXD     INC+1,1
      00023  0634 00 1 00034         SXA     INC+4,1
      00024  1 00003 1 00025         TXI     *+1,1,3
      00025 -0634 00 1 00041         SXD     PRNT,1
      00026  0734 00 1 00000         PAX     ,1
      00027  0774 00 4 00050         AXT     MESX+3,4
      00030  1 00000 1 00031  INC    TXI     *+1,1,**
      00031  1 00000 4 00032         TXI     *+1,4,**
      00032  0634 00 1 00035         SXA     FROM,1
      00033  0634 00 4 00036         SXA     TO,4
      00034  0774 00 1 00000         AXT     **,1
      00035 -0500 00 1 00000  FROM   CAL     **,1
      00036  0602 00 1 00000  TO     SLW     **,1
      00037  2 00001 1 00035         TIX     *-2,1,1
      00040  0074 00 4 00000         TSX     WRFLX,4
      00041  0 00000 0 00045  PRNT           MESX,,**
      00042  0774 00 1 00000  P1     AXT     **,1
      00043  0774 00 4 00000  P4     AXT     **,4
      00044  0020 00 4 00003         TRA     3,4
                              *
      00045  622563604225     MESX   BCI     2,SET KEY CODE
      00046  706023462425
      00047                          BSS     12
                                     END

        LITERALS
      00063  000000000017
      00064  506060600000
1     FAP ASSEMBLY LISTING  ...  ...  ...        FILE PRCODE _____FAP___         05/11/69 2007.1 PAGE 1
                        POST PROCESSOR ASSEMBLY DATA

         65 IS THE FIRST LOCATION NOT USED BY THIS PROGRAM

0REFERENCES TO DEFINED SYMBOLS
         42     P1     3
         43     P4     4
         36     TO    33
         30    INC    21,   22,   23
         35   FROM    32
         45   MESX    16,   27,   41
         41   PRNT    25
          0  WRFLX    40
          3 PRCODE     0

0 NO ERROR IN ABOVE ASSEMBLY.
1            CONVERT I/O SYSTEM DATE/TIME TO BCD.....M.J.BAILEY,12/11/64         05/11/69 2007.3 PAGE 1

                              *       (EXTRACTED FROM GDT FOR LOADER USE)
                              *
                       00002         ENTRY   IOBDT
                              *
                              *   CONVERT I/O SYSTEM DATE/TIME FROM LAC TO BCD TIME AND DATE --
                              *      HHMM.M (TIME) IN AC, MMDDYY (DATE) IN MQ
                              *

            LINKAGE DIRECTOR
      00000  000000000000
      00001  314622246360

      00002 -0130 00 0 00000   IOBDT XCL
 T    00003 -0754 00 0 00000         PXD
      00004 -0763 00 0 00011         LGL     9             YEAR IN AC
      00005 -0600 00 0 00122         STQ     GDTD
      00006 -0130 00 0 00000         XCL                   YEAR IN MQ
 T    00007 -0754 00 0 00000         PXD
      00010  0221 00 0 00124         DVP     =10           TENS DIGIT OF YEAR IN MQ, UNITS IN AC
      00011 -0320 00 0 00125         ANA     =O17
      00012  0602 00 0 00117         SLW     DATE.         '00000Y'  OF DATE
      00013 -0130 00 0 00000         XCL
      00014 -0320 00 0 00125         ANA     =O17
      00015  0767 00 0 00006         ALS     6
      00016 -0602 00 0 00117         ORS     DATE.         '0000YY' OF DATE
      00017  0560 00 0 00122         LDQ     GDTD
 T    00020 -0754 00 0 00000         PXD
      00021 -0763 00 0 00004         LGL     4             MONTH IN AC
      00022  0601 00 0 00123         STO     GDTM
      00023  0402 00 0 00124         SUB     =10
      00024 -0120 00 0 00030         TMI     IBA
      00025  0601 00 0 00123         STO     GDTM          SAVE UNITS DIGIT OF MONTH
      00026  0500 00 0 00131         CLA     =O100
      00027  0020 00 0 00031         TRA     *+2
 T    00030 -0754 00 0 00000    IBA  PXD
      00031  0400 00 0 00123         ADD     GDTM
      00032  0767 00 0 00030         ALS     24            'MM0000'
      00033 -0602 00 0 00117         ORS     DATE.         'MM00YY' OF DATE
 T    00034 -0754 00 0 00000         PXD
      00035 -0763 00 0 00005         LGL     5             DAY IN AC
      00036 -0600 00 0 00122         STQ     GDTD          SAVE THE TIME
      00037 -0130 00 0 00000         XCL                   DAY IN MQ
 T    00040 -0754 00 0 00000         PXD
      00041  0221 00 0 00124         DVP     =10           TENS DIGIT OF DAY IN MQ, UNITS IN AC
      00042 -0773 00 0 00006         RQL     6
      00043 -0600 00 0 00123         STQ     GDTM          STORE '0000D0'
      00044  0400 00 0 00123         ADD     GDTM          '0000DD' IN AC
      00045  0767 00 0 00014         ALS     12            '00DD00' IN AC
      00046 -0602 00 0 00117         ORS     DATE.         'MMDDYY' OF DATE
      00047 -0500 00 0 00122         CAL     GDTD          TIME
      00050  0771 00 0 00022         ARS     18
      00051 -0130 00 0 00000         XCL                   TIME IN SECS. IN MQ
      00052  0200 00 0 00130         MPY     =60           GET TIME IN 1/60TH'S SEC. IN MQ
      00053  0634 00 4 00101         SXA     TPWATX,4
                              *
      00054 -0754 00 0 00000   BCA   ZAC
1            CONVERT I/O SYSTEM DATE/TIME TO BCD.....M.J.BAILEY,12/11/64         05/11/69 2007.3 PAGE 2

      00055  0221 00 0 00133         DVP     =216000       FIND HOUR
      00056  0601 00 0 00121         STO     MIN.          SAVE REMAINDER (MINUTES)
      00057  0074 00 4 00103         TSX     BINBCD,4      CONVERT HOURS TO BCD
      00060 -0765 00 0 00006         LGR     6
      00061 -0100 00 0 00063         TNZ     *+2
      00062 -0500 00 0 00127         CAL     =O60          REPLACE LEADING ZERO WITH BLANK
      00063 -0763 00 0 00006         LGL     6
      00064  0767 00 0 00030         ALS     24            LEAVE ROOM FOR MINUTE
      00065  0602 00 0 00120         SLW     HOUR.         SAVE HOUR
      00066  0560 00 0 00121         LDQ     MIN.          MINUTE
      00067 -0754 00 0 00000         ZAC
      00070  0221 00 0 00132         DVP     =360          FIND NO. OF TENTHS OF MINUTES
      00071  0074 00 4 00103         TSX     BINBCD,4      CONVERT TO BCD
      00072 -0765 00 0 00006         LGR     6             TENTHS TO MQ
      00073  0767 00 0 00014         ALS     12
      00074 -0602 00 0 00120         ORS     HOUR.         ADD MINUTE TO HOUR
      00075 -0500 00 0 00126         CAL     =H00000.      PRECEDE TENTHS WITH .
      00076 -0763 00 0 00006         LGL     6             BRING BACK TENTHS
      00077 -0501 00 0 00120         ORA     HOUR.         HHMM.M IN LOGICAL AC
      00100  0560 00 0 00117         LDQ     DATE.         DATE TO MQ
      00101  0774 00 4 00000  TPWATX AXT     **,4
      00102  0020 00 4 00001         TRA     1,4

      00103  0634 00 4 00114  BINBCD SXA     BNBCDX,4      BINARY TO BCD CONVERTER
      00104  0600 00 0 00116         STZ     TPLIN.
      00105  0774 00 4 00044         AXT     36,4
      00106 -0754 00 0 00000  BNBCD1 ZAC                   CONVERT INTEGER TO BCD
      00107  0221 00 0 00124         DVP     =10           ..
      00110  0767 00 4 00044         ALS     36,4          ..
      00111 -0602 00 0 00116         ORS     TPLIN.        ..
      00112  2 00006 4 00106         TIX     BNBCD1,4,6    ..
      00113 -0500 00 0 00116         CAL     TPLIN.
      00114  0774 00 4 00000  BNBCDX AXT     **,4
      00115  0020 00 4 00001         TRA     1,4
      00116  0 00000 0 00000  TPLIN. PZE                   TEMPORARY
      00117  606060606060      DATE. BCI     1,
      00120  606060606060      HOUR. BCI     1,
      00121  0 00000 0 00000   MIN.  PZE
      00122  0 00000 0 00000  GDTD   PZE
      00123  0 00000 0 00000  GDTM   PZE
                                     END

        LITERALS
      00124  000000000012
      00125  000000000017
      00126  000000000033
      00127  000000000060
      00130  000000000074
      00131  000000000100
      00132  000000000550
      00133  000000645700
1            CONVERT I/O SYSTEM DATE/TIME TO BCD.....M.J.BAILEY,12/11/64         05/11/69 2007.3 PAGE 1
                        POST PROCESSOR ASSEMBLY DATA

        134 IS THE FIRST LOCATION NOT USED BY THIS PROGRAM

0REFERENCES TO DEFINED SYMBOLS
         54    BCA
         30    IBA    24
        122   GDTD     5,   17,   36,   47
        123   GDTM    22,   25,   31,   43,   44
        121   MIN.    56,   66
        117  DATE.    12,   16,   33,   46,  100
        120  HOUR.    65,   74,   77
          2  IOBDT     0
        103 BINBCD    57,   71
        106 BNBCD1   112
        114 BNBCDX   103
        116 TPLIN.   104,  111,  113
        101 TPWATX    53

0 NO ERROR IN ABOVE ASSEMBLY.
1      XMOD          REMAINDERING ARG1(MOD ARG2)                                 05/11/69 2007.4 PAGE 1

                              *              CALLING SEQUENCE TSX XMOD,4
                              *                               TXH ARG1(FIXED)
                              *                               TXH ARG2(FIXED)
                              *                               3,4 RETURN
                              *              FUNCTION FIXED
                       00002         ENTRY   XMOD

            LINKAGE DIRECTOR
      00000  000000000000
      00001  674446246060

      00002  0760 00 0 00000  XMOD   CLM
      00003  0560 60 4 00001         LDQ*    1,4
 A    00004  0763 00 0 00000         LLS                   SIGN OF MQ TO AC
      00005  0221 60 4 00002         DVP*    2,4
      00006  0020 00 4 00003         TRA     3,4
                                                           FUNCTION IN ARITHMETIC AC FIXED
                                     END
1      XMOD          REMAINDERING ARG1(MOD ARG2)                                 05/11/69 2007.4 PAGE 1
                        POST PROCESSOR ASSEMBLY DATA

          7 IS THE FIRST LOCATION NOT USED BY THIS PROGRAM

0REFERENCES TO DEFINED SYMBOLS
          2   XMOD     0

0 NO ERROR IN ABOVE ASSEMBLY.
1     MAD PROGRAM LISTING ... ... ...                 FILE  CRECAP   MAD            05/11/69    2007.5
-
                  EXTERNAL FUNCTION                                                               *001 LM00001
                  NORMAL MODE IS INTEGER                                                          *002 LM00002
                  DIMENSION ENTRY(7),USER(7)                                                      *003 LM00003
                  DIMENSION BUFF1(432),BUFF2(432)                                                 *004 LM00004
                  EQUIVALENCE (N1,ENTRY(7)),(N2,ENTRY(6)),(PB,USER(7)),(PG,USER(6))               *005 LM00005
                  EQUIVALENCE (MODE,ENTRY(3)),(NORECS,ENTRY(2)),(DEVICE,ENTRY(3))                 *006 LM00006
                  VECTOR VALUES MFD=$M.F.D.$                                                      *007 LM00007
                  VECTOR VALUES UFD=$U.F.D.$                                                      *008 LM00008
                  VECTOR VALUES FILE=$(FILE)$                                                     *009 LM00009
                  VECTOR VALUES SYSTEM=$ C0056$                                                   *010 LM00010
                  VECTOR VALUES DAEMON=$ 99999$                                                   *011 LM00011
                  VECTOR VALUES URGENT=$URGENT$                                                   *012 LM00012
                  VECTOR VALUES MAIL=$  MAIL$                                                     *013 LM00013
                  VECTOR VALUES POST=$  POST$                                                     *014 LM00014
                  VECTOR VALUES ERROR=$ ERROR$                                                    *015 LM00015
                  VECTOR VALUES RELOAD=$RELOAD$                                                   *016 LM00016
                  VECTOR VALUES MZE=-0                                                            *017 LM00017
                  VECTOR VALUES R=432                                                             *018 LM00018
                  ENTRY TO RECAP.                                                                 *019 LM00019
                  ATTACH.(MFD,FILE,WOOPS)                                                         *020 LM00020
                  OPEN.($R$,UFD,FILE,MZE,MZE,WOOPS)                                               *021 LM00021
                  BUFFER.(UFD,FILE,BUFF1(432)...432,WOOPS)                                        *022 LM00022
                  RDWAIT.(UFD,FILE,0,ENTRY(3)...3,MEOF,EOFCT,WOOPS)                               *023 LM00023
      READM       RDWAIT.(UFD,FILE,0,USER(7)...7,MEOF,EOFCT,WOOPS)                                *024 LM00024
                  WHENEVER ((PB.V.PG).E.0).OR.(PG.E.FILE), TRANSFER TO READM                      *025 LM00025
                  OPEN.($R$,PB,PG,MZE,MZE,WOOPS)                                                  *026 LM00026
                  BUFFER.(PB,PG,BUFF2(432)...432,WOOPS)                                           *027 LM00027
                  RDWAIT.(PB,PG,0,ENTRY(3)...3,UEOF,EOFCT,WOOPS)                                  *028 LM00028
      READU       RDWAIT.(PB,PG,0,ENTRY(7)...7,UEOF,EOFCT,WOOPS)                                  *029 LM00029
                  WHENEVER ((N1.V.N2).E.0), TRANSFER TO READU                                     *030 LM00030
                  WHENEVER (DEVICE.A.7K5).E.0, TRANSFER TO READU                                  *031 LM00031
                  WHENEVER (MODE.L.0).AND.((NORECS.A.77777K6).E.0)                                *032 LM00032
                       ATTACH.(PB,PG,LKERR2)                                                      *033 LM00033
                       UNLINK.(URGENT,MAIL,NOMAIL)                                                *034 LM00034
      NOMAIL           UNLINK.(URGENT,POST,NOPOST)                                                *035 LM00035
      NOPOST           CONTINUE                                                                   *036 LM00036
                       LINK.(URGENT,MAIL,SYSTEM,DAEMON,                                           *037 LM00037
                1           ERROR,RELOAD,104K,LKERR1)                                             *037 LM00038
                       TRANSFER TO UEOF                                                           *038 LM00039
      LKERR1           LINK.(URGENT,POST,SYSTEM,DAEMON,                                           *039 LM00040
                1           ERROR,RELOAD,104K,LKERR2)                                             *039 LM00041
                       TRANSFER TO UEOF                                                           *040 LM00042
      LKERR2           PRNTER.                                                                    *041 LM00043
                       TRANSFER TO UEOF                                                           *042 LM00044
                  END OF CONDITIONAL                                                              *043 LM00045
                  TRANSFER TO READU                                                               *044 LM00046
      UEOF        ATTACH.(MFD,FILE,WOOPS)                                                         *045 LM00047
                  CLOSE.(PB,PG,NERR1)                                                             *046 LM00048
      NERR1       TRANSFER TO READM                                                               *047 LM00049
      MEOF        CLOSE.(UFD,FILE,NERR2)                                                          *048 LM00050
      NERR2       FUNCTION RETURN                                                                 *049 LM00051
      WOOPS       PRNTER.                                                                         *050 LM00052
                  CLOSE.($ALL$,MZE,NERR3)                                                         *051 LM00053
      NERR3       FUNCTION RETURN                                                                 *052 LM00054
                  END OF FUNCTION                                                                 *053 LM00055
1MAD PROGRAM,TYPE NOV 1963      (ALL NUMBERS ARE OCTAL)
0TOTAL LOCATIONS   02104 TRANSFER VECTOR LENGTH  00011 PROGRAM BEGINS    01640
0 PROGRAM IS AN EXTERNAL FUNCTION.   THE FOLLOWING ARE ENTRIES
      RECAP  01641   0
0VARIABLE STORAGE (A=ARRAY,C=COMMON,E=ERASABLE,DIGIT=MODE)
      BUFF1  00726 A 1        LKERR1 00032   4        N1     00012   1        NORECS 00017   1        R      01621 A 1
      BUFF2  01607 A 1        LKERR2 00033   4        N2     00013   1        PB     00022   1        SYSTEM 01622 A 1
      DAEMON 01610 A 1        MAIL   01614 A 1        NERR1  00035   4        PG     00023   1        UEOF   00044   4
      DEVICE 00016   1        MEOF   00034   4        NERR2  00036   4        POST   01617 A 1        UFD    01623 A 1
      ENTRY  00021 A 1        MFD    01615 A 1        NERR3  00037   4        READM  00042   4        URGENT 01624 A 1
      EOFCT  01611   1        MODE   00016   1        NOMAIL 00040   4        READU  00043   4        USER   00031 A 1
      ERROR  01612 A 1        MZE    01616 A 1        NOPOST 00041   4        RELOAD 01620 A 1        WOOPS  00045   4
      FILE   01613 A 1
0FUNCTION DICTIONARY
      ATTACH 00000   1        BUFFER 00001   1        CLOSE  00002   1        EXIT   00003   1        LINK   00004   1
      OPEN   00005   1        PRNTER 00006   1        RDWAIT 00007   1        UNLINK 00010   1
0ABSOLUTE CONSTANTS
 01635 +214343606060     01631 +000000000104     01634 +077777000000     01633 +000000700000     01630 +000000000007
 01627 +000000000003     01625 +000000000000     01632 +000000000660     01637 -116060606060     01626 +000000000001
 01636 +233000000000
0STATEMENT DICTIONARY
 00032 TXL -302040002027       00033 TXL -302042002041       00034 TXL -302061002055       00035 TXL -302055002054
 00036 TXL -302062002061       00037 TXL -302070002067       00040 TXL -302015002011       00041 TXL -302015002015
 00042 TXL -301703001673       00043 TXL -301751001741       00044 TXL -302050002044       00045 TXL -302063002062
0PROGRAM
                 EXTERNAL FUNCTION                                                  001  LM00001
                 N'R                                                                002  LM00002
                 D'N ENTRY(7),USER(7)                                               003  LM00003
                 D'N BUFF1(432),BUFF2(432)                                          004  LM00004
                 E'E (N1,ENTRY(7)),(N2,ENTRY(6)),(PB,USER(7)),(PG,USER(6))          005  LM00005
                 E'E (MODE,ENTRY(3)),(NORECS,ENTRY(2)),(DEVICE,ENTRY(3))            006  LM00006
                 V'S MFD=$M.F.D.$                                                   007  LM00007
 01615     -0 43326 3 32433
                 V'S UFD=$U.F.D.$                                                   008  LM00008
 01623     -2 43326 3 32433
                 V'S FILE=$(FILE)$                                                  009  LM00009
 01613     -3 42631 4 32534
                 V'S SYSTEM=$ C0056$                                                010  LM00010
 01622     -2 02300 0 00506
                 V'S DAEMON=$ 99999$                                                011  LM00011
 01610     -2 01111 1 11111
                 V'S URGENT=$URGENT$                                                012  LM00012
 01624     -2 45127 2 54563
                 V'S MAIL=$  MAIL$                                                  013  LM00013
 01614     -2 06044 2 13143
                 V'S POST=$  POST$                                                  014  LM00014
 01617     -2 06047 4 66263
                 V'S ERROR=$ ERROR$                                                 015  LM00015
 01612     -2 02551 5 14651
                 V'S RELOAD=$RELOAD$                                                016  LM00016
 01620     -1 12543 4 62124
                 V'S MZE=-0                                                         017  LM00017
 01616     -0 00000 0 00000
                 V'S R=432                                                          018  LM00018
 01621     +0 00000 0 00660
                 E'O RECAP.                                                         019  LM00019
 01640 TRA +0 02000 0 01643    01641 SXA +0 63400 2 02071    01642 TSX +0 07400 2 02071
                 ATTACH.(MFD,FILE,WOOPS)                                            020  LM00020
 01643 TSX +0 07400 4 00000    01644 TXH +3 00000 0 01615    01645 TXH +3 00000 0 01613    01646 TXH +3 00000 0 00045
                 OPEN.($R$,UFD,FILE,MZE,MZE,WOOPS)                                  021  LM00021
 01647 TSX +0 07400 4 00005    01650 TXH +3 00000 0 01637    01651 TXH +3 00000 0 01623    01652 TXH +3 00000 0 01613
 01653 TXH +3 00000 0 01616    01654 TXH +3 00000 0 01616    01655 TXH +3 00000 0 00045
                 BUFFER.(UFD,FILE,BUFF1(432)...432,WOOPS)                           022  LM00022
 01656 TSX +0 07400 4 00001    01657 TXH +3 00000 0 01623    01660 TXH +3 00000 0 01613    01661 TIX +2 01632 0 00046
 01662 TXH +3 00000 0 00045
                 RDWAIT.(UFD,FILE,0,ENTRY(3)...3,MEOF,EOFCT,WOOPS)                  023  LM00023
 01663 TSX +0 07400 4 00007    01664 TXH +3 00000 0 01623    01665 TXH +3 00000 0 01613    01666 TXH +3 00000 0 01625
 01667 TIX +2 01627 0 00016    01670 TXH +3 00000 0 00034    01671 TXH +3 00000 0 01611    01672 TXH +3 00000 0 00045
      READM      RDWAIT.(UFD,FILE,0,USER(7)...7,MEOF,EOFCT,WOOPS)                   024  LM00024
 01673 TSX +0 07400 4 00007    01674 TXH +3 00000 0 01623    01675 TXH +3 00000 0 01613    01676 TXH +3 00000 0 01625
 01677 TIX +2 01630 0 00022    01700 TXH +3 00000 0 00034    01701 TXH +3 00000 0 01611    01702 TXH +3 00000 0 00045
                 W'R ((PB.V.PG).E.0).OR.(PG.E.FILE), T'O READM                      025  LM00025
 01703 CLA +0 50000 0 00023    01704 SUB +0 40200 0 01613    01705 TZE +0 10000 0 01714    01706 CAL -0 50000 0 00022
 01707 ORA -0 50100 0 00023    01710 SLW +0 60200 0 02101    01711 CLA +0 50000 0 02101    01712 SUB +0 40200 0 01625
 01713 TNZ -0 10000 0 01715    01714 TRA +0 02000 0 00042
                 OPEN.($R$,PB,PG,MZE,MZE,WOOPS)                                     026  LM00026
 01715 TSX +0 07400 4 00005    01716 TXH +3 00000 0 01637    01717 TXH +3 00000 0 00022    01720 TXH +3 00000 0 00023
 01721 TXH +3 00000 0 01616    01722 TXH +3 00000 0 01616    01723 TXH +3 00000 0 00045
                 BUFFER.(PB,PG,BUFF2(432)...432,WOOPS)                              027  LM00027
 01724 TSX +0 07400 4 00001    01725 TXH +3 00000 0 00022    01726 TXH +3 00000 0 00023    01727 TIX +2 01632 0 00727
 01730 TXH +3 00000 0 00045
                 RDWAIT.(PB,PG,0,ENTRY(3)...3,UEOF,EOFCT,WOOPS)                     028  LM00028
 01731 TSX +0 07400 4 00007    01732 TXH +3 00000 0 00022    01733 TXH +3 00000 0 00023    01734 TXH +3 00000 0 01625
 01735 TIX +2 01627 0 00016    01736 TXH +3 00000 0 00044    01737 TXH +3 00000 0 01611    01740 TXH +3 00000 0 00045
      READU      RDWAIT.(PB,PG,0,ENTRY(7)...7,UEOF,EOFCT,WOOPS)                     029  LM00029
 01741 TSX +0 07400 4 00007    01742 TXH +3 00000 0 00022    01743 TXH +3 00000 0 00023    01744 TXH +3 00000 0 01625
 01745 TIX +2 01630 0 00012    01746 TXH +3 00000 0 00044    01747 TXH +3 00000 0 01611    01750 TXH +3 00000 0 00045
                 W'R ((N1.V.N2).E.0), T'O READU                                     030  LM00030
 01751 CAL -0 50000 0 00012    01752 ORA -0 50100 0 00013    01753 SLW +0 60200 0 02101    01754 CLA +0 50000 0 02101
 01755 SUB +0 40200 0 01625    01756 TNZ -0 10000 0 01760    01757 TRA +0 02000 0 00043
                 W'R (DEVICE.A.7K5).E.0, T'O READU                                  031  LM00031
 01760 CAL -0 50000 0 00016    01761 ANA -0 32000 0 01633    01762 SLW +0 60200 0 02101    01763 CLA +0 50000 0 02101
 01764 SUB +0 40200 0 01625    01765 TNZ -0 10000 0 01767    01766 TRA +0 02000 0 00043
                 W'R (MODE.L.0).AND.((NORECS.A.77777K6).E.0)                        032  LM00032
 01767 CAL -0 50000 0 00017    01770 ANA -0 32000 0 01634    01771 SLW +0 60200 0 02101    01772 CLA +0 50000 0 02101
 01773 SUB +0 40200 0 01625    01774 TNZ -0 10000 0 02043    01775 CLA +0 50000 0 00016    01776 SUB +0 40200 0 01625
 01777 TZE +0 10000 0 02043    02000 TPL +0 12000 0 02043
                      ATTACH.(PB,PG,LKERR2)                                         033  LM00033
 02001 TSX +0 07400 4 00000    02002 TXH +3 00000 0 00022    02003 TXH +3 00000 0 00023    02004 TXH +3 00000 0 00033
                      UNLINK.(URGENT,MAIL,NOMAIL)                                   034  LM00034
 02005 TSX +0 07400 4 00010    02006 TXH +3 00000 0 01624    02007 TXH +3 00000 0 01614    02010 TXH +3 00000 0 00040
      NOMAIL          UNLINK.(URGENT,POST,NOPOST)                                   035  LM00035
 02011 TSX +0 07400 4 00010    02012 TXH +3 00000 0 01624    02013 TXH +3 00000 0 01617    02014 TXH +3 00000 0 00041
      NOPOST          CONTINUE                                                      036  LM00036
                      LINK.(URGENT,MAIL,SYSTEM,DAEMON,                              037  LM00037
                1          ERROR,RELOAD,104K,LKERR1)                                037  LM00038
 02015 TSX +0 07400 4 00004    02016 TXH +3 00000 0 01624    02017 TXH +3 00000 0 01614    02020 TXH +3 00000 0 01622
 02021 TXH +3 00000 0 01610    02022 TXH +3 00000 0 01612    02023 TXH +3 00000 0 01620    02024 TXH +3 00000 0 01631
 02025 TXH +3 00000 0 00032
                      T'O UEOF                                                      038  LM00039
 02026 TRA +0 02000 0 00044
      LKERR1          LINK.(URGENT,POST,SYSTEM,DAEMON,                              039  LM00040
                1          ERROR,RELOAD,104K,LKERR2)                                039  LM00041
 02027 TSX +0 07400 4 00004    02030 TXH +3 00000 0 01624    02031 TXH +3 00000 0 01617    02032 TXH +3 00000 0 01622
 02033 TXH +3 00000 0 01610    02034 TXH +3 00000 0 01612    02035 TXH +3 00000 0 01620    02036 TXH +3 00000 0 01631
 02037 TXH +3 00000 0 00033
                      T'O UEOF                                                      040  LM00042
 02040 TRA +0 02000 0 00044
      LKERR2          PRNTER.                                                       041  LM00043
 02041 TSX +0 07400 4 00006
                      T'O UEOF                                                      042  LM00044
 02042 TRA +0 02000 0 00044
                 E'L                                                                043  LM00045
                 T'O READU                                                          044  LM00046
 02043 TRA +0 02000 0 00043
      UEOF       ATTACH.(MFD,FILE,WOOPS)                                            045  LM00047
 02044 TSX +0 07400 4 00000    02045 TXH +3 00000 0 01615    02046 TXH +3 00000 0 01613    02047 TXH +3 00000 0 00045
                 CLOSE.(PB,PG,NERR1)                                                046  LM00048
 02050 TSX +0 07400 4 00002    02051 TXH +3 00000 0 00022    02052 TXH +3 00000 0 00023    02053 TXH +3 00000 0 00035
      NERR1      T'O READM                                                          047  LM00049
 02054 TRA +0 02000 0 00042
      MEOF       CLOSE.(UFD,FILE,NERR2)                                             048  LM00050
 02055 TSX +0 07400 4 00002    02056 TXH +3 00000 0 01623    02057 TXH +3 00000 0 01613    02060 TXH +3 00000 0 00036
      NERR2      F'N                                                                049  LM00051
 02061 TRA +0 02000 0 02075
      WOOPS      PRNTER.                                                            050  LM00052
 02062 TSX +0 07400 4 00006
                 CLOSE.($ALL$,MZE,NERR3)                                            051  LM00053
 02063 TSX +0 07400 4 00002    02064 TXH +3 00000 0 01635    02065 TXH +3 00000 0 01616    02066 TXH +3 00000 0 00037
      NERR3      F'N                                                                052  LM00054
 02067 TRA +0 02000 0 02075
                 E'N                                                                053  LM00055
 02070 TSX +0 07400 4 00003    02071 TXH +3 00000 0 00000    02072 SXD -0 63400 1 02071    02073 SXA +0 63400 4 02075
 02074 TRA +0 02000 2 00001    02075 AXT +0 77400 4 00000    02076 LXA +0 53400 2 02071    02077 LXD -0 53400 1 02071
 02100 TRA +0 02000 4 00001


RETRVE   BCD 05/11/69 2038.7  104263         00000


TRIEVE   BCD 03/15/68 0017.9   18091         00000
1     MAD PROGRAM LISTING ... ... ...                 FILE  TRIEVE   MAD            03/01/68    1655.3
-
                      MAIN PROGRAM FOR RETRIEVE COMMAND                                                LM00001
                           D.R. WIDRIG  DEC. 1965                                                      LM00002
                                                                                                       LM00003
                      THE MAIN PROGRAM GATHERS ARGUMENTS, FORMS A TABLE                                LM00004
                      OF TASKS, AND SUPERVISES THE FLOW OF CONTROL                                     LM00005
                      DURING RETRIEVALS.  THE HEART OF THE PROGRAM IS                                  LM00006
                      THE VECTOR 'TABLE', THE COLLECTION OF TASKS.                                     LM00007
                      EACH ENTRY IS EXACTLY 11 WORDS LONG AND IS                                       LM00008
                      ARRANGED AS FOLLOWS ...                                                          LM00009
                                                                                                       LM00010
                      WHERE I = 11 * N, N = 0,1,2, ... I .LE. 'TABLIM'                                 LM00011
                                                                                                       LM00012
                      TABLE(I+0) = 'PROBNO' OF TAPE FILE                                               LM00013
                      TABLE(I+1) = 'PROGNO' OF TAPE FILE                                               LM00014
                      TABLE(I+2) = 'PROBNO' OF USER RECEIVING FILE                                     LM00015
                           (0 = ENTRY DELETED)                                                         LM00016
                      TABLE(I+3) = 'PROGNO' OF USER RECEIVING FILE                                     LM00017
                      TABLE(I+4) = 'NAME1' OF DESIRED FILE                                             LM00018
                           (FENCE = ANY 'NAME1')                                                       LM00019
                      TABLE(I+5) = 'NAME2' OF DESIRED FILE                                             LM00020
                           (FENCE = ANY 'NAME2')                                                       LM00021
                      TABLE(I+6) = DATE OF TAPE TO BE USED                                             LM00022
                      TABLE(I+7) = LOWER BOUND ON TIME OF N.F.T. DESIRED                               LM00023
                           (0 = LATEST ONE)                                                            LM00024
                      TABLE(I+8) = UPPER BOUND ON TIME DUMPED ONTO N.F.T.                              LM00025
                           (0 = FIRST ONE)                                                             LM00026
                           (FENCE = LAST ONE)                                                          LM00027
                      TABLE(I+9) = TYPE OF DAEMON TAPE DESIRED                                         LM00028
                           (2 = N.F.T.)                                                                LM00029
                           (3 = U.D.T.)                                                                LM00030
                           (4 = S.D.T.)                                                                LM00031
                      NOTE.. A C.D.T. HAS TABLE(I+7) = 0, TABLE(I+8) = 0                               LM00032
                      TABLE(I+10) = NUMBER OF FILES LOADED FOR THIS ENTRY                              LM00033
                                                                                                       LM00034
                      AFTER A FILE IS LOADED, THE LOADING TABLE, 'LODTAB',                             LM00035
                      IS UPDATED.  THE FORMAT OF THE TABLE IS ...                                      LM00036
                                                                                                       LM00037
                      WHERE J = 4 * N, N = 0,1,2, ...  J .L. 'LODLIM'                                  LM00038
                                                                                                       LM00039
                      LODTAB(J+0) = I (THE INDEX OF THE CONTROLLING TASK)                              LM00040
                      LODTAB(J+1) = 'NAME1'                                                            LM00041
                      LODTAB(J+2) = 'NAME2'                                                            LM00042
                      LODTAB(J+3) = 0  (UNUSED)                                                        LM00043
                                                                                                       LM00044
                      THE FOLLOWING COMMON ARRAYS AND VARIABLES                                        LM00045
                      ARE USED ...                                                                     LM00046
                                                                                                       LM00047
                      BUFF - GENERAL UTILITY BUFFER                                                    LM00048
                      BUFF1 - BUFFERS FOR I/O                                                          LM00049
                      BUFF2 -     ''                                                                   LM00050
                      DRAIN - DRAIN BUFFER FOR TEMPORARY USE                                           LM00051
                      HEADER - 12-WORD PREAMBLE OF TAPE FILE                                           LM00052
                      UFD - HOLDS 7-WORD UFD ENTRIES                                                   LM00053
                      TABLE - TASK VECTOR                                                              LM00054
                      TSKLTH - LENGTH OF TASK TABLE ENTRY                                              LM00055
                      LODTAB - VECTOR OF LOADED FILES                                                  LM00056
                                                                                                       LM00057
                      AINDEX - CONTAINS 'TABLE' LENGTH TO DATE                                         LM00058
                      TABLIM - CONTAINS MAX. LENGTH OF 'TABLE'                                         LM00059
                      LINDEX - CONTAINS 'LODTAB' LENGTH TO DATE                                        LM00060
                      LODLIM - CONTAINS MAX. LENGTH OF 'LODTAB'                                        LM00061
                      UNIT - CONTAINS LOGICAL UNIT NUMBER OF TAPE                                      LM00062
                      D,T - NAME OF TAPE FILE                                                          LM00063
                      MZE - CONTAINS -0                                                                LM00064
                      FENCE - 777777777777K                                                            LM00065
                      USERF,ILEDI - PREAMBLE ENTRY FOR USER'S U.F.D. (FILE)                            LM00066
                      LPREAM - CONTAINS LENGTH OF PREAMBLE                                             LM00067
                      HPROB,HPROG - HOME 'PROBNO','PROGNO' OF USER                                     LM00068
                      AUTHOR - AUTHNO OF USER                                                          LM00069
                      REELNO - REEL NUMBER OF CURRENT TAPE                                             LM00070
                      SYSTEM - SYSTEM OPERATIONS 'PROBNO'                                              LM00071
                      DAEMON - DAEMON 'PROGNO'                                                         LM00072
                                                                                                       LM00073
                      NOTE THAT THIS COMMAND ACTS DIFFERENTLY FOR                                      LM00074
                      DIFFERENT USERS.  IF SECURITY IS NOT A PROBLEM,                                  LM00075
                      THEN USERS MAY USE THIS COMMAND.                                                 LM00076
                                                                                                       LM00077
                  INSERT FILE COM                                                                 *001 LM00078
                                                                                                  *001 LM00001
                  NORMAL MODE IS INTEGER                                                          *002 LM00002
                  BOOLEAN SWT.                                                                    *003 LM00003
                                                                                                       LM00004
                  DIMENSION TABLE(210),BUFF(432),BUFF1(432),BUFF2(432)                            *004 LM00005
                  DIMENSION HEADER(12),UFD(7),DRAIN(432),LODTAB(2000)                             *005 LM00006
                  EQUIVALENCE (PB,HEADER(12)),(PG,HEADER(11)),(DND,HEADER(8)),                    *006 LM00007
                1      (WC,HEADER(2)),(LRCT,HEADER(1))                                            *006 LM00008
                  PROGRAM COMMON TABLE,BUFF,BUFF1,BUFF2                                           *007 LM00009
                  PROGRAM COMMON HEADER,DRAIN,UFD,LODTAB                                          *008 LM00010
                  PROGRAM COMMON AINDEX,UNIT,D,T,MZE,TFUDG,FENCE,USERF,ILEDI,PRIV                 *009 LM00011
                  PROGRAM COMMON TABLIM,LPREAM,HPROB,HPROG,CURPTR,AUTHOR,LINDEX                   *010 LM00012
                  PROGRAM COMMON LODLIM,SYSTEM,DAEMON,REELNO,TSKLTH                               *011 LM00013
                                                                                                       LM00014
                  VECTOR VALUES FENCE = 777777777777K                                             *012 LM00015
                  VECTOR VALUES MZE = 4K11                                                        *013 LM00016
                  VECTOR VALUES TFUDG = 1800                                                      *014 LM00017
                  VECTOR VALUES TABLIM = 200                                                      *015 LM00018
                  VECTOR VALUES LODLIM = 2000                                                     *016 LM00019
                  VECTOR VALUES LPREAM = 12                                                       *017 LM00020
                  VECTOR VALUES TSKLTH = 11                                                       *018 LM00021
                                                                                                       LM00022
                  VECTOR VALUES SYSTEM = $ C0056$                                                 *019 LM00023
                  VECTOR VALUES DAEMON = $ 99999$                                                 *020 LM00024
                  VECTOR VALUES D = $(DUMP)$                                                      *021 LM00025
                  VECTOR VALUES T = $(TAPE)$                                                      *022 LM00026
                  VECTOR VALUES USERF = $USER F$                                                  *023 LM00027
                  VECTOR VALUES ILEDI = $ILE DI$                                                  *024 LM00028
                  DIMENSION HEDER2(12)                                                            *025 LM00029
                  PROGRAM COMMON HEDER2                                                           *026 LM00030
                                                                                                       LM00031
                  BOOLEAN MORE, STARPT                                                            *027 LM00079
                  DIMENSION A(20),LINE(30)                                                        *028 LM00080
                  EQUIVALENCE (MESS2(4),LINE(0))                                                  *029 LM00081
                                                                                                       LM00082
                  VECTOR VALUES MESS1 = $USER NOT ALLOWED TO USE THIS COMMAND$,                   *030 LM00083
                1      777777777777K                                                              *030 LM00084
                  VECTOR VALUES MESS2 = $    ARGUMENTS IGNORED.. $,0,0,0,0,0,0,                   *031 LM00085
                1      0,0,0,0,0,0,0,0,0,0,0,0,0,0,0,0,0,0,0,0,0,0,0,0                            *031 LM00086
                  VECTOR VALUES MESS3 = $ALL ARGUMENTS PROCESSED$,777777777777K                   *032 LM00087
                  VECTOR VALUES MESS4(1) = $PE    $,$HIS TA$,$WITH T$,$ DONE $,$   ALL$           *033 LM00088
                                                                                                       LM00089
                  VECTOR VALUES CD = $    CD$                                                     *034 LM00090
                  VECTOR VALUES CNTNU = $(MORE)$                                                  *035 LM00091
                  VECTOR VALUES F = $     F$                                                      *036 LM00092
                  VECTOR VALUES IN = $  INTO$                                                     *037 LM00093
                  VECTOR VALUES L = $     L$                                                      *038 LM00094
                  VECTOR VALUES M = $ M1416$                                                      *039 LM00095
                  VECTOR VALUES SF = $CMFL01$,$CMFL02$,$CMFL05$,$ 99999$,                         *040 LM00096
                1      777777777777K                                                              *040 LM00097
                  VECTOR VALUES STAR = $     *$                                                   *041 LM00098
                                                                                                       LM00099
                  VECTOR VALUES BLANK1 = 575757575760K                                            *042 LM00100
                                                                                                       LM00101
                  VECTOR VALUES AINDEX = 0                                                        *043 LM00102
                  VECTOR VALUES LINDEX = 0                                                        *044 LM00103
                                                                                                       LM00104
                      TEST USER QUALIFICATIONS                                                         LM00105
                                                                                                       LM00106
                  WHOAMI.(BUFF(2)...2)                                                            *045 LM00107
                  HPROB = BUFF(2)                                                                 *046 LM00108
                  AUTHOR = BCDEC.(BUFF(1))                                                        *047 LM00109
                  WHENEVER (HPROB.E.SYSTEM)                                                       *048 LM00110
                       PRIV = 0                                                                   *049 LM00111
                  OR WHENEVER (HPROB.E.M)                                                         *050 LM00112
                       PRIV = 0                                                                   *051 LM00113
                  OTHERWISE                                                                       *052 LM00114
                       PRIV = 2                                                                   *053 LM00115
                       PRNTP.(MESS1)                                                              *054 LM00116
                       CHNCOM.(0)                                                                 *055 LM00117
                  END OF CONDITIONAL                                                              *056 LM00118
                                                                                                       LM00119
                      GET ATTACHMENT                                                                   LM00120
                                                                                                       LM00121
                  ATTNAM.(BUFF(2)...2)                                                            *057 LM00122
                  HPROB = BUFF(2)                                                                 *058 LM00123
                  HPROG = BUFF(1)                                                                 *059 LM00124
                  TRANSFER TO GETARG                                                              *060 LM00125
                                                                                                       LM00126
      PAUSE       WHENEVER (AINDEX .G. TABLIM), TRANSFER TO ROAR                                  *061 LM00127
                  DORMNT.                                                                         *062 LM00128
                  MORE = 0B                                                                       *063 LM00129
                                                                                                       LM00130
                      GET ALL ARGUMENTS AND ORGANIZE                                                   LM00131
                                                                                                       LM00132
      GETARG      THROUGH GETARG, FOR A=1,1,(COMARG.(A,A(A)).E.FENCE).OR.(A.E.19)                 *064 LM00133
                1      .OR.(COMARG.(A,A(A)).E.CNTNU)                                              *064 LM00134
                  WHENEVER A(A).E.CNTNU                                                           *065 LM00135
                       A(A) = FENCE                                                               *066 LM00136
                       MORE = 1B                                                                  *067 LM00137
                  END OF CONDITIONAL                                                              *068 LM00138
                  ENDARG = A                                                                      *069 LM00139
                  A = 1                                                                           *070 LM00140
                  START = 1                                                                       *071 LM00141
                                                                                                       LM00142
                      SET UP TABLE                                                                     LM00143
                                                                                                       LM00144
                  THROUGH LOOP3, FOR AINDEX=AINDEX,TSKLTH,(A.GE.ENDARG).OR.                       *072 LM00145
                1      (AINDEX.G.TABLIM)                                                          *072 LM00146
                                                                                                       LM00147
                      CHECK FOR '*' OPTION.                                                            LM00148
                                                                                                       LM00149
                  STARPT = 0B                                                                     *073 LM00150
                  WHENEVER A (A) .E. STAR                                                         *074 LM00151
                       WHENEVER (A + 2 .GE. ENDARG), TRANSFER TO IGNORE                           *075 LM00152
                       BINDEX = AINDEX - TSKLTH                                                   *076 LM00153
                       WHENEVER BINDEX .L. 0, TRANSFER TO IGNORE                                  *077 LM00154
                       THROUGH CPYLP, FOR I = 0, 1, I .GE. TSKLTH                                 *078 LM00155
      CPYLP            TABLE (AINDEX + I) = TABLE (BINDEX + I)                                    *079 LM00156
                       A = A + 1                                                                  *080 LM00157
                       STARPT = 1B                                                                *081 LM00158
                       TRANSFER TO NAMES                                                          *082 LM00159
                  END OF CONDITIONAL                                                              *083 LM00160
                                                                                                       LM00161
                       TABLE(AINDEX) = HPROB                                                      *084 LM00162
                       TABLE(AINDEX+1) = HPROG                                                    *085 LM00163
                       TABLE(AINDEX+2) = FENCE                                                    *086 LM00164
                       TABLE(AINDEX+3) = FENCE                                                    *087 LM00165
                       TABLE(AINDEX+9) = 4                                                        *088 LM00166
                       TABLE(AINDEX+10) = 0                                                       *089 LM00167
                       TRANSFER TO ST(PRIV)                                                       *090 LM00168
                                                                                                       LM00169
                      SETTLE 'INTO' QUESTION                                                           LM00170
                                                                                                       LM00171
      ST(0)            WHENEVER (A(A).E.IN)                                                       *091 LM00172
                            WHENEVER ((A+2).GE.ENDARG), TRANSFER TO IGNORE                        *092 LM00173
                            TABLE(AINDEX+2) = PROBN.(A(A+1),IGNORE)                               *093 LM00174
                            TABLE(AINDEX+3) = PROGN.(A(A+2),IGNORE)                               *094 LM00175
                            A = A+3                                                               *095 LM00176
                       END OF CONDITIONAL                                                         *096 LM00177
                                                                                                       LM00178
                      GET 'PROBNO' AND 'PROGNO'                                                        LM00179
                                                                                                       LM00180
      ST(1)            WHENEVER ((A+1).GE.ENDARG), TRANSFER TO IGNORE                             *097 LM00181
                       TABLE(AINDEX) = PROBN.(A(A),IGNORE)                                        *098 LM00182
                       TABLE(AINDEX+1) = PROGN.(A(A+1),IGNORE)                                    *099 LM00183
                                                                                                       LM00184
                      CHECK FOR SYSTEM FILES                                                           LM00185
                                                                                                       LM00186
                       WHENEVER (A(A) .E. M) .OR. (A(A) .E. SYSTEM)                               *100 LM00187
                            THROUGH LOOP1, FOR I=0,1,SF(I).E.FENCE                                *101 LM00188
                                 WHENEVER A(A+1).NE.SF(I), TRANSFER TO LOOP1                      *102 LM00189
                                 TABLE(AINDEX+9) = 3                                              *103 LM00190
                                 TRANSFER TO INUIT                                                *104 LM00191
      LOOP1                 CONTINUE                                                              *105 LM00192
                       END OF CONDITIONAL                                                         *106 LM00193
      INUIT            A= A+2                                                                     *107 LM00194
                                                                                                       LM00195
                      NOW FINISH 'INTO' PROCESSING                                                     LM00196
                                                                                                       LM00197
      ST(2)            WHENEVER TABLE(AINDEX+2).E.FENCE,                                          *108 LM00198
                1           TABLE(AINDEX+2) = TABLE(AINDEX)                                       *108 LM00199
                       WHENEVER TABLE(AINDEX+3).E.FENCE,                                          *109 LM00200
                1           TABLE(AINDEX+3) = TABLE(AINDEX+1)                                     *109 LM00201
                                                                                                       LM00202
                           GET FILE NAMES                                                              LM00203
                                                                                                       LM00204
                       WHENEVER ((A+1) .GE. ENDARG)                                               *110 LM00205
                            TRANSFER TO IGNORE                                                    *111 LM00206
                       OTHERWISE                                                                  *112 LM00207
      NAMES                 WHENEVER A(A) .E. STAR                                                *113 LM00208
                                 TABLE(AINDEX+4) = FENCE                                          *114 LM00209
                            OTHERWISE                                                             *115 LM00210
                                 TABLE(AINDEX+4) = A(A)                                           *116 LM00211
                            END OF CONDITIONAL                                                    *117 LM00212
                            WHENEVER A(A+1) .E. STAR                                              *118 LM00213
                                 TABLE(AINDEX+5) = FENCE                                          *119 LM00214
                            OTHERWISE                                                             *120 LM00215
                                 TABLE(AINDEX+5) = A(A+1)                                         *121 LM00216
                            END OF CONDITIONAL                                                    *122 LM00217
                            A = A+2                                                               *123 LM00218
                            WHENEVER STARPT, TRANSFER TO LOOP3                                    *124 LM00219
                       END OF CONDITIONAL                                                         *125 LM00220
                                                                                                       LM00221
                      GET DATE, CONVERT AND CHECK IT                                                   LM00222
                                                                                                       LM00223
                       WHENEVER A .GE. ENDARG, TRANSFER TO IGNORE                                 *126 LM00224
                       TABLE(AINDEX+6) = DATECV.(A(A),IGNORE)                                     *127 LM00225
                       A = A+1                                                                    *128 LM00226
                                                                                                       LM00227
                      GET TIME OR TAPE SPECIFICATION                                                   LM00228
                                                                                                       LM00229
                       WHENEVER (A .GE. ENDARG)                                                   *129 LM00230
                            TRANSFER TO IGNORE                                                    *130 LM00231
                       OR WHENEVER A(A) .E. CD                                                    *131 LM00232
                            TABLE(AINDEX+9) = 12/TABLE(AINDEX+9)                                  *132 LM00233
                            TABLE(AINDEX+8) = 0                                                   *133 LM00234
                            TABLE(AINDEX+7) = 0                                                   *134 LM00235
                            A = A+1                                                               *135 LM00236
                       OR WHENEVER ((A+1) .GE. ENDARG)                                            *136 LM00237
                            TRANSFER TO IGNORE                                                    *137 LM00238
                       OTHERWISE                                                                  *138 LM00239
                            TABLE(AINDEX+9) = 8/TABLE(AINDEX+9)                                   *139 LM00240
                            WHENEVER A(A) .E. STAR                                                *140 LM00241
                                 TABLE(AINDEX+7) = 0                                              *141 LM00242
                            OTHERWISE                                                             *142 LM00243
                                 TABLE(AINDEX+7) = TIMECV.(A(A),IGNORE)                           *143 LM00244
                            END OF CONDITIONAL                                                    *144 LM00245
                            WHENEVER A(A+1) .E. F                                                 *145 LM00246
                                 TABLE(AINDEX+8) = 0                                              *146 LM00247
                            OR WHENEVER A(A+1) .E. L                                              *147 LM00248
                                 TABLE(AINDEX+8) = FENCE                                          *148 LM00249
                            OTHERWISE                                                             *149 LM00250
                                 TABLE(AINDEX+8) = TIMECV.(A(A+1),IGNORE)                         *150 LM00251
                            END OF CONDITIONAL                                                    *151 LM00252
                            A = A+2                                                               *152 LM00253
                       END OF CONDITIONAL                                                         *153 LM00254
                       START = A                                                                  *154 LM00255
                       TRANSFER TO LOOP3                                                          *155 LM00256
                                                                                                       LM00257
                      PRINT IGNORE MESSAGE AND QUIT IF NOT ENOUGH ARGUMENTS                            LM00258
                                                                                                       LM00259
      IGNORE           THROUGH LOOP2, FOR I=START,1,I.G.ENDARG                                    *156 LM00260
                            J = 2 * (I - START)                                                   *157 LM00261
                            LINE(J) = A(I)                                                        *158 LM00262
                            LINE(J+1) = BLANK1                                                    *159 LM00263
      LOOP2            CONTINUE                                                                   *160 LM00264
                       PRNTP.(MESS2)                                                              *161 LM00265
                       TABLE(AINDEX+2) = 0                                                        *162 LM00266
                       TRANSFER TO PAUSE                                                          *163 LM00267
                                                                                                       LM00268
      LOOP3       CONTINUE                                                                        *164 LM00269
                  WHENEVER (AINDEX.G.TABLIM), TRANSFER TO ROAR                                    *165 LM00270
                                                                                                       LM00271
                      TEST CONTINUATION SWITCH                                                         LM00272
                                                                                                       LM00273
                  WHENEVER MORE, TRANSFER TO PAUSE                                                *166 LM00274
                                                                                                       LM00275
                      SET CATCH-ALL ERROR RETURN                                                       LM00276
                                                                                                       LM00277
      ROAR        FERRTN.(ERR)                                                                    *167 LM00278
                                                                                                       LM00279
                      CHECK TABLE ENTRIES                                                              LM00280
                                                                                                       LM00281
      CKTAB       CKENT.(ENDUP)                                                                   *168 LM00282
                                                                                                       LM00283
                      GET A TAPE MOUNTED                                                               LM00284
                                                                                                       LM00285
                  UNIT = SETTAP.(0)                                                               *169 LM00286
                  WHENEVER UNIT .E. 0, TRANSFER TO ENDUP                                          *170 LM00287
                                                                                                       LM00288
                      GET HEADER OF FILE                                                               LM00289
                                                                                                       LM00290
      GETMOR      STAPE.(MZE,MZE,LPREAM)                                                          *171 LM00291
                  RDTAPE.(HEADER,LPREAM,DRAIN,ENDTAP,DRAIN,GETMR3,ENDTAP)                         *172 LM00292
                                                                                                       LM00293
      GETMR1      WHENEVER SWT.(5)                                                                *173 LM00294
                       LINE(0) = PB                                                               *174 LM00295
                       LINE(1) = PG                                                               *175 LM00296
                       LINE(2) = HEADER(7)                                                        *176 LM00297
                       LINE(3) = HEADER(6)                                                        *177 LM00298
                       LINE(4) = CVTIME.(DND)                                                     *178 LM00299
                       LINE(5) = FENCE                                                            *179 LM00300
                       PRNTP.(LINE)                                                               *180 LM00301
                  END OF CONDITIONAL                                                              *181 LM00302
                                                                                                       LM00303
                      DECIDE IF A FILE IS USEFUL                                                       LM00304
                                                                                                       LM00305
                  DECIDE.(HEADER,YES,NO,1B)                                                       *182 LM00306
                                                                                                       LM00307
      NO          DRAINW.(MZE,LRCT.RS.18,WC,ENDTAP,DRAIN,GETMR3,ENDTAP)                           *183 LM00308
                  TRANSFER TO GETMOR                                                              *184 LM00309
                                                                                                       LM00310
                                                                                                       LM00311
                      CHECK UFD OR LOAD RELEVANT FILE                                                  LM00312
                                                                                                       LM00313
      YES         WHENEVER (HEADER(7).E.USERF).AND.(HEADER(6).E.ILEDI)                            *185 LM00314
                       CKUFD.(GETMR2,ERR)                                                         *186 LM00315
                  OTHERWISE                                                                       *187 LM00316
                       LDFILE.(GETMR2,ENDUP1)                                                     *188 LM00317
                  END OF CONDITIONAL                                                              *189 LM00318
                                                                                                       LM00319
                      CHECK TO SEE IF RETRIEVALS COMPLETED                                             LM00320
                                                                                                       LM00321
                  RECAP.(0B,ENDTAP)                                                               *190 LM00322
                  TRANSFER TO GETMOR                                                              *191 LM00323
      GETMR2      RECAP.(0B,ENDTAP)                                                               *192 LM00324
      GETMR3      THROUGH LOOP4, FOR I = 1,1,I .G. LPREAM                                         *193 LM00325
      LOOP4        HEADER(I) = HEDER2(I)                                                          *194 LM00326
                  TRANSFER TO GETMR1                                                              *195 LM00327
                                                                                                       LM00328
                      FINISHED WITH TAPE, LOOK FOR MORE WORK                                           LM00329
                                                                                                       LM00330
      ENDTAP      CLOSE.(D,T,ERR)                                                                 *196 LM00331
                  UMOUNT.(UNIT,MESS4(5)...5,ERR,ERCODE)                                           *197 LM00332
                  RECAP.(1B,CKTAB)                                                                *198 LM00333
                  TRANSFER TO CKTAB                                                               *199 LM00334
                                                                                                       LM00335
      ERR         PRNTER.                                                                         *200 LM00336
                  RECAP.(1B,ENDUP1)                                                               *201 LM00337
                  TRANSFER TO ENDUP1                                                              *202 LM00338
                                                                                                       LM00339
                      CLOSE OUT AND LEAVE                                                              LM00340
                                                                                                       LM00341
      ENDUP       PRNTP.(MESS3)                                                                   *203 LM00342
      ENDUP1      ATTACH.(HPROB,HPROG,NERR3)                                                      *204 LM00343
      NERR3       CLOSE.($ALL$,MZE,NERR1)                                                         *205 LM00344
      NERR1       UMOUNT.($ALL$,MESS4(5)...2,NERR2,ERCODE)                                        *206 LM00345
      NERR2       DELFIL.(D,T,NERR4)                                                              *207 LM00346
      NERR4       CHNCOM.(1)                                                                      *208 LM00347
                                                                                                       LM00348
                  END OF PROGRAM                                                                  *209 LM00349
1MAD PROGRAM,TYPE NOV 1963      (ALL NUMBERS ARE OCTAL)
0TOTAL LOCATIONS   01521 TRANSFER VECTOR LENGTH  00036 PROGRAM BEGINS    00250 FIRST UNUSED COMMON/ERASABLE  67621
0VARIABLE STORAGE (A=ARRAY,C=COMMON,E=ERASABLE,DIGIT=MODE)
      AINDEX 67664 AC1        ENDTAP 00103   4        ILEDI  67654 AC1        MESS2  00101 A 1        ROAR   00127   4
      A      00160 A 1        ENDUP1 00104   4        IN     00170 A 1        MESS3  00207 A 1        SF     00224 A 1
      AUTHOR 67645  C1        ENDUP  00105   4        INUIT  00115   4        MESS4  00215 A 1        STARPT 00225   2
      BINDEX 00161   1        ERCODE 00166   1        I      00171   1        MORE   00216   2        STAR   00226 A 1
      BLANK1 00162 A 1        ERR    00106   4        J      00172   1        M      00217 A 1        START  00227   1
      BUFF1  76255 AC1        FENCE  67656 AC1        LINDEX 67644 AC1        MZE    67660 AC1        ST     00132 A 4
      BUFF2  75374 AC1        F      00167 A 1        LINE   00075 A 1        NAMES  00120   4        SYSTEM 67642 AC1
      BUFF   77136 AC1        GETARG 00107   4        LODLIM 67643 AC1        NERR1  00121   4        TABLE  77461 AC1
      CD     00163 A 1        GETMOR 00110   4        LODTAB 73605 AC1        NERR2  00122   4        TABLIM 67652 AC1
      CKTAB  00102   4        GETMR1 00111   4        LOOP1  00116   4        NERR3  00123   4        TFUDG  67657 AC1
      CNTNU  00164 A 1        GETMR2 00112   4        LOOP2  00036   4        NERR4  00124   4        T      67661 AC1
      CPYLP  00036   4        GETMR3 00113   4        LOOP3  00117   4        NO     00125   4        TSKLTH 67637 AC1
      CURPTR 67646  C1        HEADER 74513 AC1        LOOP4  00036   4        PAUSE  00126   4        UFD    73615 AC1
      DAEMON 67641 AC1        HEDER2 67636 AC1        LPREAM 67651 AC1        PB     74477  C1        UNIT   67663  C1
      DND    74503  C1        HPROB  67650  C1        LRCT   74512  C1        PG     74500  C1        USERF  67655 AC1
      DRAIN  74476 AC1        HPROG  67647  C1        L      00173 A 1        PRIV   67653  C1        WC     74511  C1
      D      67662 AC1        IGNORE 00114   4        MESS1  00202 A 1        REELNO 67640  C1        YES    00133   4
      ENDARG 00165   1
0FUNCTION DICTIONARY
      ATTACH 00000   1        ATTNAM 00001   1        BCDEC  00002   1        CHNCOM 00003   1        CKENT  00004   1
      CKUFD  00005   1        CLOSE  00006   1        COMARG 00007   1        CVTIME 00010   1        DATECV 00011   1
      DECIDE 00012   1        DELFIL 00013   1        DORMNT 00014   1        DRAINW 00015   1        EXIT   00016   1
      FERRTN 00017   1        .SETUP 00020   1        LDFILE 00021   1        PRNTER 00022   1        PRNTP  00023   1
      PROBN  00024   1        PROGN  00025   1        RDTAPE 00026   1        RECAP  00027   1        SETTAP 00030   1
      STAPE  00031   1        SWT    00032   2        TIMECV 00033   1        UMOUNT 00034   1        WHOAMI 00035   1
0ABSOLUTE CONSTANTS
 00246 +214343606060     00244 +000000000022     00237 +000000000007     00240 +000000000010     00243 +000000000014
 00236 +000000000006     00235 +000000000005     00242 +000000000012     00234 +000000000004     00241 +000000000011
 00233 +000000000003     00245 +000000000023     00230 +000000000000     00232 +000000000002     00231 +000000000001
 00247 +233000000000
0STATEMENT DICTIONARY
 00102 TXL -301312001310       00103 TXL -301452001446       00104 TXL -301476001472       00105 TXL -301472001470
 00106 TXL -301464001463       00107 TXL -300355000321       00110 TXL -301325001321       00111 TXL -301340001335
 00112 TXL -301426001423       00113 TXL -301440001426       00114 TXL -301246001234       00115 TXL -300676000673
 00116 TXL -300673000672       00117 TXL -301276001275       00120 TXL -300744000740       00121 TXL -301507001502
 00122 TXL -301513001507       00123 TXL -301502001476       00124 TXL -301515001513       00125 TXL -301401001364
 00126 TXL -300316000311       00127 TXL -301310001306       00130 TXL -300712000676       00131 TXL -300604000576
 00132 TXL -300531000525       00133 TXL -301410001402
0PROGRAM
                 I'E COM                                                            001  LM00078
                 N'R                                                                002  LM00002
                 B'N SWT.                                                           003  LM00003
                 D'N TABLE(210),BUFF(432),BUFF1(432),BUFF2(432)                     004  LM00005
                 D'N HEADER(12),UFD(7),DRAIN(432),LODTAB(2000)                      005  LM00006
                 E'E (PB,HEADER(12)),(PG,HEADER(11)),(DND,HEADER(8)),               006  LM00007
                1     (WC,HEADER(2)),(LRCT,HEADER(1))                               006  LM00008
                 P'N TABLE,BUFF,BUFF1,BUFF2                                         007  LM00009
                 P'N HEADER,DRAIN,UFD,LODTAB                                        008  LM00010
                 P'N AINDEX,UNIT,D,T,MZE,TFUDG,FENCE,USERF,ILEDI,PRIV               009  LM00011
                 P'N TABLIM,LPREAM,HPROB,HPROG,CURPTR,AUTHOR,LINDEX                 010  LM00012
                 P'N LODLIM,SYSTEM,DAEMON,REELNO,TSKLTH                             011  LM00013
                 V'S FENCE = 777777777777K                                          012  LM00015
 00250 TSX +0 07400 4 00020    67656     -3 77777 7 77777
                 V'S MZE = 4K11                                                     013  LM00016
 67660     -0 00000 0 00000
                 V'S TFUDG = 1800                                                   014  LM00017
 67657     +0 00000 0 03410
                 V'S TABLIM = 200                                                   015  LM00018
 67652     +0 00000 0 00310
                 V'S LODLIM = 2000                                                  016  LM00019
 67643     +0 00000 0 03720
                 V'S LPREAM = 12                                                    017  LM00020
 67651     +0 00000 0 00014
                 V'S TSKLTH = 11                                                    018  LM00021
 67637     +0 00000 0 00013
                 V'S SYSTEM = $ C0056$                                              019  LM00023
 67642     -2 02300 0 00506
                 V'S DAEMON = $ 99999$                                              020  LM00024
 67641     -2 01111 1 11111
                 V'S D = $(DUMP)$                                                   021  LM00025
 67662     -3 42464 4 44734
                 V'S T = $(TAPE)$                                                   022  LM00026
 67661     -3 46321 4 72534
                 V'S USERF = $USER F$                                               023  LM00027
 67655     -2 46225 5 16026
                 V'S ILEDI = $ILE DI$                                               024  LM00028
 67654     +3 14325 6 02431
                 DIMENSION HEDER2(12)                                               025  LM00029
                 P'N HEDER2                                                         026  LM00030
                 B'N MORE, STARPT                                                   027  LM00079
                 D'N A(20),LINE(30)                                                 028  LM00080
                 E'E (MESS2(4),LINE(0))                                             029  LM00081
                 V'S MESS1 = $USER NOT ALLOWED TO USE THIS COMMAND$,                030  LM00083
                1     777777777777K                                                 030  LM00084
 00174     -3 77777 7 77777    00175     -0 64444 2 14524    00176     -2 33031 6 26023    00177     -0 66064 6 22560
 00200     -0 66625 2 46063    00201     -0 66360 2 14343    00202     -2 46225 5 16045
                 V'S MESS2 = $    ARGUMENTS IGNORED.. $,0,0,0,0,0,0,                031  LM00085
                1     0,0,0,0,0,0,0,0,0,0,0,0,0,0,0,0,0,0,0,0,0,0,0,0               031  LM00086
 00040     +0 00000 0 00000    00041     +0 00000 0 00000    00042     +0 00000 0 00000    00043     +0 00000 0 00000
 00044     +0 00000 0 00000    00045     +0 00000 0 00000    00046     +0 00000 0 00000    00047     +0 00000 0 00000
 00050     +0 00000 0 00000    00051     +0 00000 0 00000    00052     +0 00000 0 00000    00053     +0 00000 0 00000
 00054     +0 00000 0 00000    00055     +0 00000 0 00000    00056     +0 00000 0 00000    00057     +0 00000 0 00000
 00060     +0 00000 0 00000    00061     +0 00000 0 00000    00062     +0 00000 0 00000    00063     +0 00000 0 00000
 00064     +0 00000 0 00000    00065     +0 00000 0 00000    00066     +0 00000 0 00000    00067     +0 00000 0 00000
 00070     +0 00000 0 00000    00071     +0 00000 0 00000    00072     +0 00000 0 00000    00073     +0 00000 0 00000
 00074     +0 00000 0 00000    00075     +0 00000 0 00000    00076     -1 12524 3 33360    00077     -2 26031 2 74546
 00100     +2 76444 2 54563    00101     -2 06060 6 02151
                 V'S MESS3 = $ALL ARGUMENTS PROCESSED$,777777777777K                032  LM00087
 00203     -3 77777 7 77777    00204     +2 56262 2 52460    00205     -2 26047 5 14623    00206     +2 76444 2 54563
 00207     +2 14343 6 02151
                 V'S MESS4(1) = $PE    $,$HIS TA$,$WITH T$,$ DONE $,$   ALL$        033  LM00088
 00210     -2 06060 2 14343    00211     -2 02446 4 52560    00212     -2 63163 3 06063    00213     +3 03162 6 06321
 00214     -0 72560 6 06060
                 V'S CD = $    CD$                                                  034  LM00090
 00163     -2 06060 6 02324
                 V'S CNTNU = $(MORE)$                                               035  LM00091
 00164     -3 44446 5 12534
                 V'S F = $     F$                                                   036  LM00092
 00167     -2 06060 6 06026
                 V'S IN = $  INTO$                                                  037  LM00093
 00170     -2 06031 4 56346
                 V'S L = $     L$                                                   038  LM00094
 00173     -2 06060 6 06043
                 V'S M = $ M1416$                                                   039  LM00095
 00217     -2 04401 0 40106
                 V'S SF = $CMFL01$,$CMFL02$,$CMFL05$,$ 99999$,                      040  LM00096
                1     777777777777K                                                 040  LM00097
 00220     -3 77777 7 77777    00221     -2 01111 1 11111    00222     +2 34426 4 30005    00223     +2 34426 4 30002
 00224     +2 34426 4 30001
                 V'S STAR = $     *$                                                041  LM00098
 00226     -2 06060 6 06054
                 V'S BLANK1 = 575757575760K                                         042  LM00100
 00162     -1 75757 5 75760
                 V'S AINDEX = 0                                                     043  LM00102
 67664     +0 00000 0 00000
                 V'S LINDEX = 0                                                     044  LM00103
 67644     +0 00000 0 00000
                 WHOAMI.(BUFF(2)...2)                                               045  LM00107
 00251 TSX +0 07400 4 00035    00252 TIX +2 00232 0 77134
                 HPROB = BUFF(2)                                                    046  LM00108
 00253 CLA +0 50000 0 77134    00254 STO +0 60100 0 67650
                 AUTHOR = BCDEC.(BUFF(1))                                           047  LM00109
 00255 TSX +0 07400 4 00002    00256 TXH +3 00000 0 77135    00257 STO +0 60100 0 67645
                 W'R (HPROB.E.SYSTEM)                                               048  LM00110
 00260 CLA +0 50000 0 67650    00261 SUB +0 40200 0 67642    00262 TNZ -0 10000 0 00266
                      PRIV = 0                                                      049  LM00111
 00263 CLA +0 50000 0 00230    00264 STO +0 60100 0 67653
                 O'R (HPROB.E.M)                                                    050  LM00112
 00265 TRA +0 02000 0 00302    00266 CLA +0 50000 0 67650    00267 SUB +0 40200 0 00217    00270 TNZ -0 10000 0 00274
                      PRIV = 0                                                      051  LM00113
 00271 CLA +0 50000 0 00230    00272 STO +0 60100 0 67653
                 O'E                                                                052  LM00114
 00273 TRA +0 02000 0 00302
                      PRIV = 2                                                      053  LM00115
 00274 CLA +0 50000 0 00232    00275 STO +0 60100 0 67653
                      PRNTP.(MESS1)                                                 054  LM00116
 00276 TSX +0 07400 4 00023    00277 TXH +3 00000 0 00202
                      CHNCOM.(0)                                                    055  LM00117
 00300 TSX +0 07400 4 00003    00301 TXH +3 00000 0 00230
                 E'L                                                                056  LM00118
                 ATTNAM.(BUFF(2)...2)                                               057  LM00122
 00302 TSX +0 07400 4 00001    00303 TIX +2 00232 0 77134
                 HPROB = BUFF(2)                                                    058  LM00123
 00304 CLA +0 50000 0 77134    00305 STO +0 60100 0 67650
                 HPROG = BUFF(1)                                                    059  LM00124
 00306 CLA +0 50000 0 77135    00307 STO +0 60100 0 67647
                 T'O GETARG                                                         060  LM00125
 00310 TRA +0 02000 0 00107
      PAUSE      W'R (AINDEX .G. TABLIM), T'O ROAR                                  061  LM00127
 00311 CLA +0 50000 0 67664    00312 SUB +0 40200 0 67652    00313 TZE +0 10000 0 00316    00314 TMI -0 12000 0 00316
 00315 TRA +0 02000 0 00127
                 DORMNT.                                                            062  LM00128
 00316 TSX +0 07400 4 00014
                 MORE = 0B                                                          063  LM00129
 00317 CLA +0 50000 0 00230    00320 STO +0 60100 0 00216
      GETARG     T'H GETARG, FOR A=1,1,(COMARG.(A,A(A)).E.FENCE).OR.(A.E.19)        064  LM00133
                1     .OR.(COMARG.(A,A(A)).E.CNTNU)                                 064  LM00134
 00321 CLA +0 50000 0 00231    00322 STO +0 60100 0 00160    00323 TRA +0 02000 0 00327    00324 CLA +0 50000 0 00160
 00325 ADD +0 40000 0 00231    00326 STO +0 60100 0 00160    00327 CLA +0 50000 0 00160    00330 SUB +0 40200 0 00331
 00331 TXH +3 00000 0 00160    00332 STA +0 62100 0 00335    00333 TSX +0 07400 4 00007    00334 TXH +3 00000 0 00160
 00335 TXH +3 00000 0 00000    00336 SUB +0 40200 0 00164    00337 TZE +0 10000 0 00355    00340 CLA +0 50000 0 00160
 00341 SUB +0 40200 0 00245    00342 TZE +0 10000 0 00355    00343 CLA +0 50000 0 00160    00344 SUB +0 40200 0 00345
 00345 TXH +3 00000 0 00160    00346 STA +0 62100 0 00351    00347 TSX +0 07400 4 00007    00350 TXH +3 00000 0 00160
 00351 TXH +3 00000 0 00000    00352 SUB +0 40200 0 67656    00353 TZE +0 10000 0 00355    00354 TRA +0 02000 0 00324
                 W'R A(A).E.CNTNU                                                   065  LM00135
 00355 LXA +0 53400 1 00160    00356 CLA +0 50000 1 00160    00357 SUB +0 40200 0 00164    00360 TNZ -0 10000 0 00365
                      A(A) = FENCE                                                  066  LM00136
 00361 CLA +0 50000 0 67656    00362 STO +0 60100 1 00160
                      MORE = 1B                                                     067  LM00137
 00363 CLA +0 50000 0 00231    00364 STO +0 60100 0 00216
                 E'L                                                                068  LM00138
                 ENDARG = A                                                         069  LM00139
 00365 CLA +0 50000 0 00160    00366 STO +0 60100 0 00165
                 A = 1                                                              070  LM00140
 00367 CLA +0 50000 0 00231    00370 STO +0 60100 0 00160
                 START = 1                                                          071  LM00141
 00371 CLA +0 50000 0 00231    00372 STO +0 60100 0 00227
                 T'H LOOP3, FOR AINDEX=AINDEX,TSKLTH,(A.GE.ENDARG).OR.              072  LM00145
                1     (AINDEX.G.TABLIM)                                             072  LM00146
 00373 CLA +0 50000 0 67664    00374 STO +0 60100 0 67664    00375 TRA +0 02000 0 00401    00376 CLA +0 50000 0 67664
 00377 ADD +0 40000 0 67637    00400 STO +0 60100 0 67664    00401 CLA +0 50000 0 67664    00402 SUB +0 40200 0 67652
 00403 TZE +0 10000 0 00405    00404 TPL +0 12000 0 01276    00405 CLA +0 50000 0 00160    00406 SUB +0 40200 0 00165
 00407 TZE +0 10000 0 01276    00410 TPL +0 12000 0 01276
                 STARPT = 0B                                                        073  LM00150
 00411 CLA +0 50000 0 00230    00412 STO +0 60100 0 00225
                 W'R A (A) .E. STAR                                                 074  LM00151
 00413 LXA +0 53400 1 00160    00414 CLA +0 50000 1 00160    00415 SUB +0 40200 0 00226    00416 TNZ -0 10000 0 00467
                      W'R (A + 2 .GE. ENDARG), T'O IGNORE                           075  LM00152
 00417 CLA +0 50000 0 00160    00420 ADD +0 40000 0 00232    00421 SUB +0 40200 0 00165    00422 TZE +0 10000 0 00424
 00423 TMI -0 12000 0 00425    00424 TRA +0 02000 0 00114
                      BINDEX = AINDEX - TSKLTH                                      076  LM00153
 00425 CLA +0 50000 0 67664    00426 SUB +0 40200 0 67637    00427 STO +0 60100 0 00161
                      W'R BINDEX .L. 0, T'O IGNORE                                  077  LM00154
 00430 CLA +0 50000 0 00161    00431 SUB +0 40200 0 00230    00432 TZE +0 10000 0 00435    00433 TPL +0 12000 0 00435
 00434 TRA +0 02000 0 00114
                      T'H CPYLP, FOR I = 0, 1, I .GE. TSKLTH                        078  LM00155
 00435 CLA +0 50000 0 00230    00436 STO +0 60100 0 00171    00437 TRA +0 02000 0 00443    00440 CLA +0 50000 0 00171
 00441 ADD +0 40000 0 00231    00442 STO +0 60100 0 00171    00443 CLA +0 50000 0 00171    00444 SUB +0 40200 0 67637
 00445 TZE +0 10000 0 00461    00446 TPL +0 12000 0 00461
      CPYLP           TABLE (AINDEX + I) = TABLE (BINDEX + I)                       079  LM00156
 00447 CLA +0 50000 0 00161    00450 ADD +0 40000 0 00171    00451 STO +0 60100 0 01516    00452 CLA +0 50000 0 67664
 00453 ADD +0 40000 0 00171    00454 PAX +0 73400 1 00000    00455 LXA +0 53400 2 01516    00456 CLA +0 50000 2 77461
 00457 STO +0 60100 1 77461    00460 TRA +0 02000 0 00440
                      A = A + 1                                                     080  LM00157
 00461 CLA +0 50000 0 00160    00462 ADD +0 40000 0 00231    00463 STO +0 60100 0 00160
                      STARPT = 1B                                                   081  LM00158
 00464 CLA +0 50000 0 00231    00465 STO +0 60100 0 00225
                      T'O NAMES                                                     082  LM00159
 00466 TRA +0 02000 0 00120
                 E'L                                                                083  LM00160
                      TABLE(AINDEX) = HPROB                                         084  LM00162
 00467 LXA +0 53400 1 67664    00470 CLA +0 50000 0 67650    00471 STO +0 60100 1 77461
                      TABLE(AINDEX+1) = HPROG                                       085  LM00163
 00472 CLA +0 50000 0 67664    00473 ADD +0 40000 0 00231    00474 PAX +0 73400 1 00000    00475 CLA +0 50000 0 67647
 00476 STO +0 60100 1 77461
                      TABLE(AINDEX+2) = FENCE                                       086  LM00164
 00477 CLA +0 50000 0 67664    00500 ADD +0 40000 0 00232    00501 PAX +0 73400 1 00000    00502 CLA +0 50000 0 67656
 00503 STO +0 60100 1 77461
                      TABLE(AINDEX+3) = FENCE                                       087  LM00165
 00504 CLA +0 50000 0 67664    00505 ADD +0 40000 0 00233    00506 PAX +0 73400 1 00000    00507 CLA +0 50000 0 67656
 00510 STO +0 60100 1 77461
                      TABLE(AINDEX+9) = 4                                           088  LM00166
 00511 CLA +0 50000 0 67664    00512 ADD +0 40000 0 00241    00513 PAX +0 73400 1 00000    00514 CLA +0 50000 0 00234
 00515 STO +0 60100 1 77461
                      TABLE(AINDEX+10) = 0                                          089  LM00167
 00516 CLA +0 50000 0 67664    00517 ADD +0 40000 0 00242    00520 PAX +0 73400 1 00000    00521 CLA +0 50000 0 00230
 00522 STO +0 60100 1 77461
                      T'O ST(PRIV)                                                  090  LM00168
 00523 LXA +0 53400 2 67653    00524 TRA +0 02000 2 00132
      ST(0)           W'R (A(A).E.IN)                                               091  LM00172
 00525 LXA +0 53400 1 00160    00526 CLA +0 50000 1 00160    00527 SUB +0 40200 0 00170    00530 TNZ -0 10000 0 00576
                           W'R ((A+2).GE.ENDARG), T'O IGNORE                        092  LM00173
 00531 CLA +0 50000 0 00160    00532 ADD +0 40000 0 00232    00533 SUB +0 40200 0 00165    00534 TZE +0 10000 0 00536
 00535 TMI -0 12000 0 00537    00536 TRA +0 02000 0 00114
                           TABLE(AINDEX+2) = PROBN.(A(A+1),IGNORE)                  093  LM00174
 00537 CLA +0 50000 0 00160    00540 ADD +0 40000 0 00231    00541 SUB +0 40200 0 00542    00542 TXH +3 00000 0 00160
 00543 STA +0 62100 0 00545    00544 TSX +0 07400 4 00024    00545 TXH +3 00000 0 00000    00546 TXH +3 00000 0 00114
 00547 STO +0 60100 0 01516    00550 CLA +0 50000 0 67664    00551 ADD +0 40000 0 00232    00552 PAX +0 73400 1 00000
 00553 CLA +0 50000 0 01516    00554 STO +0 60100 1 77461
                           TABLE(AINDEX+3) = PROGN.(A(A+2),IGNORE)                  094  LM00175
 00555 CLA +0 50000 0 00160    00556 ADD +0 40000 0 00232    00557 SUB +0 40200 0 00560    00560 TXH +3 00000 0 00160
 00561 STA +0 62100 0 00563    00562 TSX +0 07400 4 00025    00563 TXH +3 00000 0 00000    00564 TXH +3 00000 0 00114
 00565 STO +0 60100 0 01516    00566 CLA +0 50000 0 67664    00567 ADD +0 40000 0 00233    00570 PAX +0 73400 1 00000
 00571 CLA +0 50000 0 01516    00572 STO +0 60100 1 77461
                           A = A+3                                                  095  LM00176
 00573 CLA +0 50000 0 00160    00574 ADD +0 40000 0 00233    00575 STO +0 60100 0 00160
                      E'L                                                           096  LM00177
      ST(1)           W'R ((A+1).GE.ENDARG), T'O IGNORE                             097  LM00181
 00576 CLA +0 50000 0 00160    00577 ADD +0 40000 0 00231    00600 SUB +0 40200 0 00165    00601 TZE +0 10000 0 00603
 00602 TMI -0 12000 0 00604    00603 TRA +0 02000 0 00114
                      TABLE(AINDEX) = PROBN.(A(A),IGNORE)                           098  LM00182
 00604 CLA +0 50000 0 00160    00605 SUB +0 40200 0 00606    00606 TXH +3 00000 0 00160    00607 STA +0 62100 0 00611
 00610 TSX +0 07400 4 00024    00611 TXH +3 00000 0 00000    00612 TXH +3 00000 0 00114    00613 LXA +0 53400 1 67664
 00614 STO +0 60100 1 77461
                      TABLE(AINDEX+1) = PROGN.(A(A+1),IGNORE)                       099  LM00183
 00615 CLA +0 50000 0 00160    00616 ADD +0 40000 0 00231    00617 SUB +0 40200 0 00620    00620 TXH +3 00000 0 00160
 00621 STA +0 62100 0 00623    00622 TSX +0 07400 4 00025    00623 TXH +3 00000 0 00000    00624 TXH +3 00000 0 00114
 00625 STO +0 60100 0 01516    00626 CLA +0 50000 0 67664    00627 ADD +0 40000 0 00231    00630 PAX +0 73400 1 00000
 00631 CLA +0 50000 0 01516    00632 STO +0 60100 1 77461
                      W'R (A(A) .E. M) .OR. (A(A) .E. SYSTEM)                       100  LM00187
 00633 LXA +0 53400 1 00160    00634 CLA +0 50000 1 00160    00635 SUB +0 40200 0 67642    00636 TZE +0 10000 0 00642
 00637 CLA +0 50000 1 00160    00640 SUB +0 40200 0 00217    00641 TNZ -0 10000 0 00673
                           T'H LOOP1, FOR I=0,1,SF(I).E.FENCE                       101  LM00188
 00642 CLA +0 50000 0 00230    00643 STO +0 60100 0 00171    00644 TRA +0 02000 0 00650    00645 CLA +0 50000 0 00171
 00646 ADD +0 40000 0 00231    00647 STO +0 60100 0 00171    00650 LXA +0 53400 1 00171    00651 CLA +0 50000 1 00224
 00652 SUB +0 40200 0 67656    00653 TZE +0 10000 0 00673
                                W'R A(A+1).NE.SF(I), T'O LOOP1                      102  LM00189
 00654 CLA +0 50000 0 00160    00655 ADD +0 40000 0 00231    00656 PAX +0 73400 1 00000    00657 LXA +0 53400 2 00171
 00660 CLA +0 50000 1 00160    00661 SUB +0 40200 2 00224    00662 TZE +0 10000 0 00664    00663 TRA +0 02000 0 00116
                                TABLE(AINDEX+9) = 3                                 103  LM00190
 00664 CLA +0 50000 0 67664    00665 ADD +0 40000 0 00241    00666 PAX +0 73400 1 00000    00667 CLA +0 50000 0 00233
 00670 STO +0 60100 1 77461
                                T'O INUIT                                           104  LM00191
 00671 TRA +0 02000 0 00115
      LOOP1                C'E                                                      105  LM00192
 00672 TRA +0 02000 0 00645
                      E'L                                                           106  LM00193
      INUIT           A= A+2                                                        107  LM00194
 00673 CLA +0 50000 0 00160    00674 ADD +0 40000 0 00232    00675 STO +0 60100 0 00160
      ST(2)           W'R TABLE(AINDEX+2).E.FENCE,                                  108  LM00198
                1          TABLE(AINDEX+2) = TABLE(AINDEX)                          108  LM00199
 00676 CLA +0 50000 0 67664    00677 ADD +0 40000 0 00232    00700 PAX +0 73400 1 00000    00701 CLA +0 50000 1 77461
 00702 SUB +0 40200 0 67656    00703 TNZ -0 10000 0 00712    00704 CLA +0 50000 0 67664    00705 ADD +0 40000 0 00232
 00706 PAX +0 73400 1 00000    00707 LXA +0 53400 2 67664    00710 CLA +0 50000 2 77461    00711 STO +0 60100 1 77461
                      W'R TABLE(AINDEX+3).E.FENCE,                                  109  LM00200
                1          TABLE(AINDEX+3) = TABLE(AINDEX+1)                        109  LM00201
 00712 CLA +0 50000 0 67664    00713 ADD +0 40000 0 00233    00714 PAX +0 73400 1 00000    00715 CLA +0 50000 1 77461
 00716 SUB +0 40200 0 67656    00717 TNZ -0 10000 0 00731    00720 CLA +0 50000 0 67664    00721 ADD +0 40000 0 00231
 00722 STO +0 60100 0 01516    00723 CLA +0 50000 0 67664    00724 ADD +0 40000 0 00233    00725 PAX +0 73400 1 00000
 00726 LXA +0 53400 2 01516    00727 CLA +0 50000 2 77461    00730 STO +0 60100 1 77461
                      W'R ((A+1) .GE. ENDARG)                                       110  LM00205
 00731 CLA +0 50000 0 00160    00732 ADD +0 40000 0 00231    00733 SUB +0 40200 0 00165    00734 TZE +0 10000 0 00736
 00735 TMI -0 12000 0 00740
                           T'O IGNORE                                               111  LM00206
 00736 TRA +0 02000 0 00114
                      O'E                                                           112  LM00207
 00737 TRA +0 02000 0 01013
      NAMES                W'R A(A) .E. STAR                                        113  LM00208
 00740 LXA +0 53400 1 00160    00741 CLA +0 50000 1 00160    00742 SUB +0 40200 0 00226    00743 TNZ -0 10000 0 00752
                                TABLE(AINDEX+4) = FENCE                             114  LM00209
 00744 CLA +0 50000 0 67664    00745 ADD +0 40000 0 00234    00746 PAX +0 73400 1 00000    00747 CLA +0 50000 0 67656
 00750 STO +0 60100 1 77461
                           O'E                                                      115  LM00210
 00751 TRA +0 02000 0 00760
                                TABLE(AINDEX+4) = A(A)                              116  LM00211
 00752 CLA +0 50000 0 67664    00753 ADD +0 40000 0 00234    00754 PAX +0 73400 1 00000    00755 LXA +0 53400 2 00160
 00756 CLA +0 50000 2 00160    00757 STO +0 60100 1 77461
                           E'L                                                      117  LM00212
                           W'R A(A+1) .E. STAR                                      118  LM00213
 00760 CLA +0 50000 0 00160    00761 ADD +0 40000 0 00231    00762 PAX +0 73400 1 00000    00763 CLA +0 50000 1 00160
 00764 SUB +0 40200 0 00226    00765 TNZ -0 10000 0 00774
                                TABLE(AINDEX+5) = FENCE                             119  LM00214
 00766 CLA +0 50000 0 67664    00767 ADD +0 40000 0 00235    00770 PAX +0 73400 1 00000    00771 CLA +0 50000 0 67656
 00772 STO +0 60100 1 77461
                           O'E                                                      120  LM00215
 00773 TRA +0 02000 0 01005
                                TABLE(AINDEX+5) = A(A+1)                            121  LM00216
 00774 CLA +0 50000 0 00160    00775 ADD +0 40000 0 00231    00776 STO +0 60100 0 01516    00777 CLA +0 50000 0 67664
 01000 ADD +0 40000 0 00235    01001 PAX +0 73400 1 00000    01002 LXA +0 53400 2 01516    01003 CLA +0 50000 2 00160
 01004 STO +0 60100 1 77461
                           E'L                                                      122  LM00217
                           A = A+2                                                  123  LM00218
 01005 CLA +0 50000 0 00160    01006 ADD +0 40000 0 00232    01007 STO +0 60100 0 00160
                           W'R STARPT, T'O LOOP3                                    124  LM00219
 01010 NZT -0 52000 0 00225    01011 TRA +0 02000 0 01013    01012 TRA +0 02000 0 00117
                      E'L                                                           125  LM00220
                      W'R A .GE. ENDARG, T'O IGNORE                                 126  LM00224
 01013 CLA +0 50000 0 00160    01014 SUB +0 40200 0 00165    01015 TZE +0 10000 0 01017    01016 TMI -0 12000 0 01020
 01017 TRA +0 02000 0 00114
                      TABLE(AINDEX+6) = DATECV.(A(A),IGNORE)                        127  LM00225
 01020 CLA +0 50000 0 00160    01021 SUB +0 40200 0 01022    01022 TXH +3 00000 0 00160    01023 STA +0 62100 0 01025
 01024 TSX +0 07400 4 00011    01025 TXH +3 00000 0 00000    01026 TXH +3 00000 0 00114    01027 STO +0 60100 0 01516
 01030 CLA +0 50000 0 67664    01031 ADD +0 40000 0 00236    01032 PAX +0 73400 1 00000    01033 CLA +0 50000 0 01516
 01034 STO +0 60100 1 77461
                      A = A+1                                                       128  LM00226
 01035 CLA +0 50000 0 00160    01036 ADD +0 40000 0 00231    01037 STO +0 60100 0 00160
                      W'R (A .GE. ENDARG)                                           129  LM00230
 01040 CLA +0 50000 0 00160    01041 SUB +0 40200 0 00165    01042 TZE +0 10000 0 01044    01043 TMI -0 12000 0 01046
                           T'O IGNORE                                               130  LM00231
 01044 TRA +0 02000 0 00114
                      O'R A(A) .E. CD                                               131  LM00232
 01045 TRA +0 02000 0 01231    01046 LXA +0 53400 1 00160    01047 CLA +0 50000 1 00160    01050 SUB +0 40200 0 00163
 01051 TNZ -0 10000 0 01105
                           TABLE(AINDEX+9) = 12/TABLE(AINDEX+9)                     132  LM00233
 01052 CLA +0 50000 0 67664    01053 ADD +0 40000 0 00241    01054 PAX +0 73400 2 00000    01055 LDQ +0 56000 0 00243
 01056 PXD -0 75400 0 00000    01057 LLS +0 76300 0 00000    01060 DVP +0 22100 2 77461    01061 STQ -0 60000 0 01516
 01062 CLA +0 50000 0 67664    01063 ADD +0 40000 0 00241    01064 PAX +0 73400 1 00000    01065 CLA +0 50000 0 01516
 01066 STO +0 60100 1 77461
                           TABLE(AINDEX+8) = 0                                      133  LM00234
 01067 CLA +0 50000 0 67664    01070 ADD +0 40000 0 00240    01071 PAX +0 73400 1 00000    01072 CLA +0 50000 0 00230
 01073 STO +0 60100 1 77461
                           TABLE(AINDEX+7) = 0                                      134  LM00235
 01074 CLA +0 50000 0 67664    01075 ADD +0 40000 0 00237    01076 PAX +0 73400 1 00000    01077 CLA +0 50000 0 00230
 01100 STO +0 60100 1 77461
                           A = A+1                                                  135  LM00236
 01101 CLA +0 50000 0 00160    01102 ADD +0 40000 0 00231    01103 STO +0 60100 0 00160
                      O'R ((A+1) .GE. ENDARG)                                       136  LM00237
 01104 TRA +0 02000 0 01231    01105 CLA +0 50000 0 00160    01106 ADD +0 40000 0 00231    01107 SUB +0 40200 0 00165
 01110 TZE +0 10000 0 01112    01111 TMI -0 12000 0 01114
                           T'O IGNORE                                               137  LM00238
 01112 TRA +0 02000 0 00114
                      O'E                                                           138  LM00239
 01113 TRA +0 02000 0 01231
                           TABLE(AINDEX+9) = 8/TABLE(AINDEX+9)                      139  LM00240
 01114 CLA +0 50000 0 67664    01115 ADD +0 40000 0 00241    01116 PAX +0 73400 2 00000    01117 LDQ +0 56000 0 00240
 01120 PXD -0 75400 0 00000    01121 LLS +0 76300 0 00000    01122 DVP +0 22100 2 77461    01123 STQ -0 60000 0 01516
 01124 CLA +0 50000 0 67664    01125 ADD +0 40000 0 00241    01126 PAX +0 73400 1 00000    01127 CLA +0 50000 0 01516
 01130 STO +0 60100 1 77461
                           W'R A(A) .E. STAR                                        140  LM00241
 01131 LXA +0 53400 1 00160    01132 CLA +0 50000 1 00160    01133 SUB +0 40200 0 00226    01134 TNZ -0 10000 0 01143
                                TABLE(AINDEX+7) = 0                                 141  LM00242
 01135 CLA +0 50000 0 67664    01136 ADD +0 40000 0 00237    01137 PAX +0 73400 1 00000    01140 CLA +0 50000 0 00230
 01141 STO +0 60100 1 77461
                           O'E                                                      142  LM00243
 01142 TRA +0 02000 0 01160
                                TABLE(AINDEX+7) = TIMECV.(A(A),IGNORE)              143  LM00244
 01143 CLA +0 50000 0 00160    01144 SUB +0 40200 0 01145    01145 TXH +3 00000 0 00160    01146 STA +0 62100 0 01150
 01147 TSX +0 07400 4 00033    01150 TXH +3 00000 0 00000    01151 TXH +3 00000 0 00114    01152 STO +0 60100 0 01516
 01153 CLA +0 50000 0 67664    01154 ADD +0 40000 0 00237    01155 PAX +0 73400 1 00000    01156 CLA +0 50000 0 01516
 01157 STO +0 60100 1 77461
                           E'L                                                      144  LM00245
                           W'R A(A+1) .E. F                                         145  LM00246
 01160 CLA +0 50000 0 00160    01161 ADD +0 40000 0 00231    01162 PAX +0 73400 1 00000    01163 CLA +0 50000 1 00160
 01164 SUB +0 40200 0 00167    01165 TNZ -0 10000 0 01174
                                TABLE(AINDEX+8) = 0                                 146  LM00247
 01166 CLA +0 50000 0 67664    01167 ADD +0 40000 0 00240    01170 PAX +0 73400 1 00000    01171 CLA +0 50000 0 00230
 01172 STO +0 60100 1 77461
                           O'R A(A+1) .E. L                                         147  LM00248
 01173 TRA +0 02000 0 01226    01174 CLA +0 50000 0 00160    01175 ADD +0 40000 0 00231    01176 PAX +0 73400 1 00000
 01177 CLA +0 50000 1 00160    01200 SUB +0 40200 0 00173    01201 TNZ -0 10000 0 01210
                                TABLE(AINDEX+8) = FENCE                             148  LM00249
 01202 CLA +0 50000 0 67664    01203 ADD +0 40000 0 00240    01204 PAX +0 73400 1 00000    01205 CLA +0 50000 0 67656
 01206 STO +0 60100 1 77461
                           O'E                                                      149  LM00250
 01207 TRA +0 02000 0 01226
                                TABLE(AINDEX+8) = TIMECV.(A(A+1),IGNORE)            150  LM00251
 01210 CLA +0 50000 0 00160    01211 ADD +0 40000 0 00231    01212 SUB +0 40200 0 01213    01213 TXH +3 00000 0 00160
 01214 STA +0 62100 0 01216    01215 TSX +0 07400 4 00033    01216 TXH +3 00000 0 00000    01217 TXH +3 00000 0 00114
 01220 STO +0 60100 0 01516    01221 CLA +0 50000 0 67664    01222 ADD +0 40000 0 00240    01223 PAX +0 73400 1 00000
 01224 CLA +0 50000 0 01516    01225 STO +0 60100 1 77461
                           E'L                                                      151  LM00252
                           A = A+2                                                  152  LM00253
 01226 CLA +0 50000 0 00160    01227 ADD +0 40000 0 00232    01230 STO +0 60100 0 00160
                      E'L                                                           153  LM00254
                      START = A                                                     154  LM00255
 01231 CLA +0 50000 0 00160    01232 STO +0 60100 0 00227
                      T'O LOOP3                                                     155  LM00256
 01233 TRA +0 02000 0 00117
      IGNORE          T'H LOOP2, FOR I=START,1,I.G.ENDARG                           156  LM00260
 01234 CLA +0 50000 0 00227    01235 STO +0 60100 0 00171    01236 TRA +0 02000 0 01242    01237 CLA +0 50000 0 00171
 01240 ADD +0 40000 0 00231    01241 STO +0 60100 0 00171    01242 CLA +0 50000 0 00171    01243 SUB +0 40200 0 00165
 01244 TZE +0 10000 0 01246    01245 TPL +0 12000 0 01265
                           J = 2 * (I - START)                                      157  LM00261
 01246 CLA +0 50000 0 00171    01247 SUB +0 40200 0 00227    01250 XCA +0 13100 0 00000    01251 MPY +0 20000 0 00232
 01252 STQ -0 60000 0 00172
                           LINE(J) = A(I)                                           158  LM00262
 01253 LXA +0 53400 1 00172    01254 LXA +0 53400 2 00171    01255 CLA +0 50000 2 00160    01256 STO +0 60100 1 00075
                           LINE(J+1) = BLANK1                                       159  LM00263
 01257 CLA +0 50000 0 00172    01260 ADD +0 40000 0 00231    01261 PAX +0 73400 1 00000    01262 CLA +0 50000 0 00162
 01263 STO +0 60100 1 00075
      LOOP2           C'E                                                           160  LM00264
 01264 TRA +0 02000 0 01237
                      PRNTP.(MESS2)                                                 161  LM00265
 01265 TSX +0 07400 4 00023    01266 TXH +3 00000 0 00101
                      TABLE(AINDEX+2) = 0                                           162  LM00266
 01267 CLA +0 50000 0 67664    01270 ADD +0 40000 0 00232    01271 PAX +0 73400 1 00000    01272 CLA +0 50000 0 00230
 01273 STO +0 60100 1 77461
                      T'O PAUSE                                                     163  LM00267
 01274 TRA +0 02000 0 00126
      LOOP3      C'E                                                                164  LM00269
 01275 TRA +0 02000 0 00376
                 W'R (AINDEX.G.TABLIM), T'O ROAR                                    165  LM00270
 01276 CLA +0 50000 0 67664    01277 SUB +0 40200 0 67652    01300 TZE +0 10000 0 01303    01301 TMI -0 12000 0 01303
 01302 TRA +0 02000 0 00127
                 W'R MORE, T'O PAUSE                                                166  LM00274
 01303 NZT -0 52000 0 00216    01304 TRA +0 02000 0 01306    01305 TRA +0 02000 0 00126
      ROAR       FERRTN.(ERR)                                                       167  LM00278
 01306 TSX +0 07400 4 00017    01307 TXH +3 00000 0 00106
      CKTAB      CKENT.(ENDUP)                                                      168  LM00282
 01310 TSX +0 07400 4 00004    01311 TXH +3 00000 0 00105
                 UNIT = SETTAP.(0)                                                  169  LM00286
 01312 TSX +0 07400 4 00030    01313 TXH +3 00000 0 00230    01314 STO +0 60100 0 67663
                 W'R UNIT .E. 0, T'O ENDUP                                          170  LM00287
 01315 CLA +0 50000 0 67663    01316 SUB +0 40200 0 00230    01317 TNZ -0 10000 0 01321    01320 TRA +0 02000 0 00105
      GETMOR     STAPE.(MZE,MZE,LPREAM)                                             171  LM00291
 01321 TSX +0 07400 4 00031    01322 TXH +3 00000 0 67660    01323 TXH +3 00000 0 67660    01324 TXH +3 00000 0 67651
                 RDTAPE.(HEADER,LPREAM,DRAIN,ENDTAP,DRAIN,GETMR3,ENDTAP)            172  LM00292
 01325 TSX +0 07400 4 00026    01326 TXH +3 00000 0 74513    01327 TXH +3 00000 0 67651    01330 TXH +3 00000 0 74476
 01331 TXH +3 00000 0 00103    01332 TXH +3 00000 0 74476    01333 TXH +3 00000 0 00113    01334 TXH +3 00000 0 00103
      GETMR1     W'R SWT.(5)                                                        173  LM00294
 01335 TSX +0 07400 4 00032    01336 TXH +3 00000 0 00235    01337 TZE +0 10000 0 01357
                      LINE(0) = PB                                                  174  LM00295
 01340 CLA +0 50000 0 74477    01341 STO +0 60100 0 00075
                      LINE(1) = PG                                                  175  LM00296
 01342 CLA +0 50000 0 74500    01343 STO +0 60100 0 00074
                      LINE(2) = HEADER(7)                                           176  LM00297
 01344 CLA +0 50000 0 74504    01345 STO +0 60100 0 00073
                      LINE(3) = HEADER(6)                                           177  LM00298
 01346 CLA +0 50000 0 74505    01347 STO +0 60100 0 00072
                      LINE(4) = CVTIME.(DND)                                        178  LM00299
 01350 TSX +0 07400 4 00010    01351 TXH +3 00000 0 74503    01352 STO +0 60100 0 00071
                      LINE(5) = FENCE                                               179  LM00300
 01353 CLA +0 50000 0 67656    01354 STO +0 60100 0 00070
                      PRNTP.(LINE)                                                  180  LM00301
 01355 TSX +0 07400 4 00023    01356 TXH +3 00000 0 00075
                 E'L                                                                181  LM00302
                 DECIDE.(HEADER,YES,NO,1B)                                          182  LM00306
 01357 TSX +0 07400 4 00012    01360 TXH +3 00000 0 74513    01361 TXH +3 00000 0 00133    01362 TXH +3 00000 0 00125
 01363 TXH +3 00000 0 00231
      NO         DRAINW.(MZE,LRCT.RS.18,WC,ENDTAP,DRAIN,GETMR3,ENDTAP)              183  LM00308
 01364 CAL -0 50000 0 00244    01365 STA +0 62100 0 01367    01366 CAL -0 50000 0 74512    01367 LGR -0 76500 0 00000
 01370 SLW +0 60200 0 01516    01371 TSX +0 07400 4 00015    01372 TXH +3 00000 0 67660    01373 TXH +3 00000 0 01516
 01374 TXH +3 00000 0 74511    01375 TXH +3 00000 0 00103    01376 TXH +3 00000 0 74476    01377 TXH +3 00000 0 00113
 01400 TXH +3 00000 0 00103
                 T'O GETMOR                                                         184  LM00309
 01401 TRA +0 02000 0 00110
      YES        W'R (HEADER(7).E.USERF).AND.(HEADER(6).E.ILEDI)                    185  LM00314
 01402 CLA +0 50000 0 74505    01403 SUB +0 40200 0 67654    01404 TNZ -0 10000 0 01414    01405 CLA +0 50000 0 74504
 01406 SUB +0 40200 0 67655    01407 TNZ -0 10000 0 01414
                      CKUFD.(GETMR2,ERR)                                            186  LM00315
 01410 TSX +0 07400 4 00005    01411 TXH +3 00000 0 00112    01412 TXH +3 00000 0 00106
                 O'E                                                                187  LM00316
 01413 TRA +0 02000 0 01417
                      LDFILE.(GETMR2,ENDUP1)                                        188  LM00317
 01414 TSX +0 07400 4 00021    01415 TXH +3 00000 0 00112    01416 TXH +3 00000 0 00104
                 E'L                                                                189  LM00318
                 RECAP.(0B,ENDTAP)                                                  190  LM00322
 01417 TSX +0 07400 4 00027    01420 TXH +3 00000 0 00230    01421 TXH +3 00000 0 00103
                 T'O GETMOR                                                         191  LM00323
 01422 TRA +0 02000 0 00110
      GETMR2     RECAP.(0B,ENDTAP)                                                  192  LM00324
 01423 TSX +0 07400 4 00027    01424 TXH +3 00000 0 00230    01425 TXH +3 00000 0 00103
      GETMR3     THROUGH LOOP4, FOR I = 1,1,I .G. LPREAM                            193  LM00325
 01426 CLA +0 50000 0 00231    01427 STO +0 60100 0 00171    01430 TRA +0 02000 0 01434    01431 CLA +0 50000 0 00171
 01432 ADD +0 40000 0 00231    01433 STO +0 60100 0 00171    01434 CLA +0 50000 0 00171    01435 SUB +0 40200 0 67651
 01436 TZE +0 10000 0 01440    01437 TPL +0 12000 0 01445
      LOOP4       HEADER(I) = HEDER2(I)                                             194  LM00326
 01440 LXA +0 53400 1 00171    01441 LXA +0 53400 2 00171    01442 CLA +0 50000 2 67636    01443 STO +0 60100 1 74513
 01444 TRA +0 02000 0 01431
                 T'O GETMR1                                                         195  LM00327
 01445 TRA +0 02000 0 00111
      ENDTAP     CLOSE.(D,T,ERR)                                                    196  LM00331
 01446 TSX +0 07400 4 00006    01447 TXH +3 00000 0 67662    01450 TXH +3 00000 0 67661    01451 TXH +3 00000 0 00106
                 UMOUNT.(UNIT,MESS4(5)...5,ERR,ERCODE)                              197  LM00332
 01452 TSX +0 07400 4 00034    01453 TXH +3 00000 0 67663    01454 TIX +2 00235 0 00210    01455 TXH +3 00000 0 00106
 01456 TXH +3 00000 0 00166
                 RECAP.(1B,CKTAB)                                                   198  LM00333
 01457 TSX +0 07400 4 00027    01460 TXH +3 00000 0 00231    01461 TXH +3 00000 0 00102
                 T'O CKTAB                                                          199  LM00334
 01462 TRA +0 02000 0 00102
      ERR        PRNTER.                                                            200  LM00336
 01463 TSX +0 07400 4 00022
                 RECAP.(1B,ENDUP1)                                                  201  LM00337
 01464 TSX +0 07400 4 00027    01465 TXH +3 00000 0 00231    01466 TXH +3 00000 0 00104
                 T'O ENDUP1                                                         202  LM00338
 01467 TRA +0 02000 0 00104
      ENDUP      PRNTP.(MESS3)                                                      203  LM00342
 01470 TSX +0 07400 4 00023    01471 TXH +3 00000 0 00207
      ENDUP1     ATTACH.(HPROB,HPROG,NERR3)                                         204  LM00343
 01472 TSX +0 07400 4 00000    01473 TXH +3 00000 0 67650    01474 TXH +3 00000 0 67647    01475 TXH +3 00000 0 00123
      NERR3      CLOSE.($ALL$,MZE,NERR1)                                            205  LM00344
 01476 TSX +0 07400 4 00006    01477 TXH +3 00000 0 00246    01500 TXH +3 00000 0 67660    01501 TXH +3 00000 0 00121
      NERR1      UMOUNT.($ALL$,MESS4(5)...2,NERR2,ERCODE)                           206  LM00345
 01502 TSX +0 07400 4 00034    01503 TXH +3 00000 0 00246    01504 TIX +2 00232 0 00210    01505 TXH +3 00000 0 00122
 01506 TXH +3 00000 0 00166
      NERR2      DELFIL.(D,T,NERR4)                                                 207  LM00346
 01507 TSX +0 07400 4 00013    01510 TXH +3 00000 0 67662    01511 TXH +3 00000 0 67661    01512 TXH +3 00000 0 00124
      NERR4      CHNCOM.(1)                                                         208  LM00347
 01513 TSX +0 07400 4 00003    01514 TXH +3 00000 0 00231
                 E'M                                                                209  LM00349
 01515 TSX +0 07400 4 00016


 CKENT   BCD 04/29/67 2209.9    5750         00000
1     MAD PROGRAM LISTING ... ... ...                 FILE   CKENT   MAD            04/29/67    2204.1
-
                      CHECK FOR TROUBLES WITH MFD, ETC.                                                LM00001
                      ALSO, SEE IF THERE IS WORK TO DO                                                 LM00002
                           D.R. WIDRIG  DEC. 1965                                                      LM00003
                                                                                                       LM00004
                  EXTERNAL FUNCTION (Y)                                                           *001 LM00005
                  INSERT FILE COM                                                                 *002 LM00006
                                                                                                  *002 LM00001
                  NORMAL MODE IS INTEGER                                                          *003 LM00002
                  BOOLEAN SWT.                                                                    *004 LM00003
                                                                                                       LM00004
                  DIMENSION TABLE(210),BUFF(432),BUFF1(432),BUFF2(432)                            *005 LM00005
                  DIMENSION HEADER(12),UFD(7),DRAIN(432),LODTAB(2000)                             *006 LM00006
                  EQUIVALENCE (PB,HEADER(12)),(PG,HEADER(11)),(DND,HEADER(8)),                    *007 LM00007
                1      (WC,HEADER(2)),(LRCT,HEADER(1))                                            *007 LM00008
                  PROGRAM COMMON TABLE,BUFF,BUFF1,BUFF2                                           *008 LM00009
                  PROGRAM COMMON HEADER,DRAIN,UFD,LODTAB                                          *009 LM00010
                  PROGRAM COMMON AINDEX,UNIT,D,T,MZE,TFUDG,FENCE,USERF,ILEDI,PRIV                 *010 LM00011
                  PROGRAM COMMON TABLIM,LPREAM,HPROB,HPROG,CURPTR,AUTHOR,LINDEX                   *011 LM00012
                  PROGRAM COMMON LODLIM,SYSTEM,DAEMON,REELNO,TSKLTH                               *012 LM00013
                                                                                                       LM00014
                  VECTOR VALUES FENCE = 777777777777K                                             *013 LM00015
                  VECTOR VALUES MZE = 4K11                                                        *014 LM00016
                  VECTOR VALUES TFUDG = 1800                                                      *015 LM00017
                  VECTOR VALUES TABLIM = 200                                                      *016 LM00018
                  VECTOR VALUES LODLIM = 2000                                                     *017 LM00019
                  VECTOR VALUES LPREAM = 12                                                       *018 LM00020
                  VECTOR VALUES TSKLTH = 11                                                       *019 LM00021
                                                                                                       LM00022
                  VECTOR VALUES SYSTEM = $ C0056$                                                 *020 LM00023
                  VECTOR VALUES DAEMON = $ 99999$                                                 *021 LM00024
                  VECTOR VALUES D = $(DUMP)$                                                      *022 LM00025
                  VECTOR VALUES T = $(TAPE)$                                                      *023 LM00026
                  VECTOR VALUES USERF = $USER F$                                                  *024 LM00027
                  VECTOR VALUES ILEDI = $ILE DI$                                                  *025 LM00028
                  DIMENSION HEDER2(12)                                                            *026 LM00029
                  PROGRAM COMMON HEDER2                                                           *027 LM00030
                                                                                                       LM00031
                  STATEMENT LABEL Y                                                               *028 LM00007
                  BOOLEAN GO                                                                      *029 LM00008
                                                                                                       LM00009
                  VECTOR VALUES MESS1 = $ USER $,0,575757575760K,0,                               *030 LM00010
                1      $ NOT FOUND IN M.F.D.$,777777777777K                                       *030 LM00011
                  VECTOR VALUES MESS2 = $ FILE $,0,575757575760K,0,$ ALREADY EXISTS IN$,          *031 LM00012
                1      $ U.F.D. OF $,0,575757575760K,0,777777777777K                              *031 LM00013
                                                                                                       LM00014
                  ENTRY TO CKENT.                                                                 *032 LM00015
                  GO = 0B                                                                         *033 LM00016
                                                                                                       LM00017
                      SEARCH TABLE FOR TROUBLE SPOTS                                                   LM00018
                                                                                                       LM00019
                  THROUGH LOOP1, FOR I = 0,TSKLTH,(I.GE.AINDEX)                                   *034 LM00020
                       WHENEVER (TABLE(I+2).E.0).OR.(TABLE(I+10).NE.0), TRANSFER TO LOOP1         *035 LM00021
                                                                                                       LM00022
                      MAKE SURE USER EXISTS                                                            LM00023
                                                                                                       LM00024
                       ATTACH.(TABLE(I+2),TABLE(I+3),ERR,ERCODE)                                  *036 LM00025
                                                                                                       LM00026
                      USER EXISTS, DOES FILE EXIST ALREADY                                             LM00027
                                                                                                       LM00028
                       WHENEVER (TABLE(I+4).E.FENCE).OR.(TABLE(I+5).E.FENCE)                      *037 LM00029
      NOFILE                GO = 1B                                                               *038 LM00030
                            TRANSFER TO LOOP1                                                     *039 LM00031
                       OTHERWISE                                                                  *040 LM00032
                            FSTATE.(TABLE(I+4),TABLE(I+5),DRAIN(2)...2,                           *041 LM00033
                1                ABSENT,ERCODE)                                                   *041 LM00034
                                                                                                       LM00035
                      FILE EXISTS, CHECK FOR ''REMOVED'' FILE                                          LM00036
                                                                                                       LM00037
                            WHENEVER ((DRAIN(1).A.202K).NE.0), TRANSFER TO NOFILE                 *042 LM00038
                                                                                                       LM00039
      EXISTS                MESS2(1) = TABLE(I+4)                                                 *043 LM00040
                            MESS2(3) = TABLE(I+5)                                                 *044 LM00041
                            MESS2(9) = TABLE(I+2)                                                 *045 LM00042
                            MESS2(11) = TABLE(I+3)                                                *046 LM00043
                            PRNTP.(MESS2)                                                         *047 LM00044
                            MAIL.(TABLE(I+2),TABLE(I+3),MESS2,1B)                                 *048 LM00045
                            TABLE(I+2) = 0                                                        *049 LM00046
                            TRANSFER TO LOOP1                                                     *050 LM00047
                       END OF CONDITIONAL                                                         *051 LM00048
                                                                                                       LM00049
                      ABSENT ERROR FROM FSTATE, CHECK IT                                               LM00050
                                                                                                       LM00051
      ABSENT           WHENEVER (ERCODE.E.4).OR.(ERCODE.E.5)                                      *052 LM00052
                            TRANSFER TO EXISTS                                                    *053 LM00053
                       OTHERWISE                                                                  *054 LM00054
                            TRANSFER TO NOFILE                                                    *055 LM00055
                       END OF CONDITIONAL                                                         *056 LM00056
                                                                                                       LM00057
                      ERROR FROM ATTACH, CHECK IT                                                      LM00058
                                                                                                       LM00059
      ERR              WHENEVER ERCODE.E.3                                                        *057 LM00060
                            MESS1(1) = TABLE(I+2)                                                 *058 LM00061
                            MESS1(3) = TABLE(I+3)                                                 *059 LM00062
                            PRNTP.(MESS1)                                                         *060 LM00063
                            TABLE(I+2) = 0                                                        *061 LM00064
                       OTHERWISE                                                                  *062 LM00065
                            PRNTER.                                                               *063 LM00066
                            TABLE(I+2) = 0                                                        *064 LM00067
                       END OF CONDITIONAL                                                         *065 LM00068
                                                                                                       LM00069
      LOOP1       CONTINUE                                                                        *066 LM00070
                                                                                                       LM00071
                  WHENEVER GO .AND. (LINDEX.L.LODLIM)                                             *067 LM00072
                       FUNCTION RETURN                                                            *068 LM00073
                  OTHERWISE                                                                       *069 LM00074
                       TRANSFER TO Y                                                              *070 LM00075
                  END OF CONDITIONAL                                                              *071 LM00076
                                                                                                       LM00077
                  END OF FUNCTION                                                                 *072 LM00078
1MAD PROGRAM,TYPE NOV 1963      (ALL NUMBERS ARE OCTAL)
0TOTAL LOCATIONS   00347 TRANSFER VECTOR LENGTH  00006 PROGRAM BEGINS    00056 FIRST UNUSED COMMON/ERASABLE  67621
0 PROGRAM IS AN EXTERNAL FUNCTION.   THE FOLLOWING ARE ENTRIES
      CKENT  00057   0
0VARIABLE STORAGE (A=ARRAY,C=COMMON,E=ERASABLE,DIGIT=MODE)
      ABSENT 00007   4        D      67662 AC1        HPROG  67647  C1        MESS1  00027 A 1        TABLE  77461 AC1
      AINDEX 67664  C1        ERCODE 00014   1        ILEDI  67654 AC1        MESS2  00044 A 1        TABLIM 67652 AC1
      AUTHOR 67645  C1        ERR    00010   4        I      00016   1        MZE    67660 AC1        TFUDG  67657 AC1
      BUFF1  76255 AC1        EXISTS 00011   4        LINDEX 67644  C1        NOFILE 00013   4        T      67661 AC1
      BUFF2  75374 AC1        FENCE  67656 AC1        LODLIM 67643 AC1        PB     74477  C1        TSKLTH 67637 AC1
      BUFF   77136 AC1        GO     00015   2        LODTAB 73605 AC1        PG     74500  C1        UFD    73615 AC1
      CURPTR 67646  C1        HEADER 74513 AC1        LOOP1  00012   4        PRIV   67653  C1        UNIT   67663  C1
      DAEMON 67641 AC1        HEDER2 67636 AC1        LPREAM 67651 AC1        REELNO 67640  C1        USERF  67655 AC1
      DND    74503  C1        HPROB  67650  C1        LRCT   74512  C1        SYSTEM 67642 AC1        WC     74511  C1
      DRAIN  74476 AC1
0FUNCTION DICTIONARY
      ATTACH 00000   1        EXIT   00001   1        FSTATE 00002   1        MAIL   00003   1        PRNTER 00004   1
      PRNTP  00005   1
0ABSOLUTE CONSTANTS
 00054 +000000000202     00051 +000000000004     00052 +000000000005     00050 +000000000003     00047 +000000000002
 00053 +000000000012     00045 +000000000000     00046 +000000000001     00055 +233000000000
0STATEMENT DICTIONARY
 00007 TXL -300261000253       00010 TXL -300267000264       00011 TXL -300205000200       00012 TXL -300320000317
 00013 TXL -300147000145
0PROGRAM
                 EXTERNAL FUNCTION (Y)                                              001  LM00005
                 I'E COM                                                            002  LM00006
                 N'R                                                                003  LM00002
                 B'N SWT.                                                           004  LM00003
                 D'N TABLE(210),BUFF(432),BUFF1(432),BUFF2(432)                     005  LM00005
                 D'N HEADER(12),UFD(7),DRAIN(432),LODTAB(2000)                      006  LM00006
                 E'E (PB,HEADER(12)),(PG,HEADER(11)),(DND,HEADER(8)),               007  LM00007
                1     (WC,HEADER(2)),(LRCT,HEADER(1))                               007  LM00008
                 P'N TABLE,BUFF,BUFF1,BUFF2                                         008  LM00009
                 P'N HEADER,DRAIN,UFD,LODTAB                                        009  LM00010
                 P'N AINDEX,UNIT,D,T,MZE,TFUDG,FENCE,USERF,ILEDI,PRIV               010  LM00011
                 P'N TABLIM,LPREAM,HPROB,HPROG,CURPTR,AUTHOR,LINDEX                 011  LM00012
                 P'N LODLIM,SYSTEM,DAEMON,REELNO,TSKLTH                             012  LM00013
                 V'S FENCE = 777777777777K                                          013  LM00015
 67656     -3 77777 7 77777
                 V'S MZE = 4K11                                                     014  LM00016
 67660     -0 00000 0 00000
                 V'S TFUDG = 1800                                                   015  LM00017
 67657     +0 00000 0 03410
                 V'S TABLIM = 200                                                   016  LM00018
 67652     +0 00000 0 00310
                 V'S LODLIM = 2000                                                  017  LM00019
 67643     +0 00000 0 03720
                 V'S LPREAM = 12                                                    018  LM00020
 67651     +0 00000 0 00014
                 V'S TSKLTH = 11                                                    019  LM00021
 67637     +0 00000 0 00013
                 V'S SYSTEM = $ C0056$                                              020  LM00023
 67642     -2 02300 0 00506
                 V'S DAEMON = $ 99999$                                              021  LM00024
 67641     -2 01111 1 11111
                 V'S D = $(DUMP)$                                                   022  LM00025
 67662     -3 42464 4 44734
                 V'S T = $(TAPE)$                                                   023  LM00026
 67661     -3 46321 4 72534
                 V'S USERF = $USER F$                                               024  LM00027
 67655     -2 46225 5 16026
                 V'S ILEDI = $ILE DI$                                               025  LM00028
 67654     +3 14325 6 02431
                 DIMENSION HEDER2(12)                                               026  LM00029
                 P'N HEDER2                                                         027  LM00030
                 S'L Y                                                              028  LM00007
                 B'N GO                                                             029  LM00008
                 V'S MESS1 = $ USER $,0,575757575760K,0,                            030  LM00010
                1     $ NOT FOUND IN M.F.D.$,777777777777K                          030  LM00011
 00017     -3 77777 7 77777    00020     +2 43360 6 06060    00021     -0 56044 3 32633    00022     -0 66445 2 46031
 00023     -2 04546 6 36026    00024     +0 00000 0 00000    00025     -1 75757 5 75760    00026     +0 00000 0 00000
 00027     -2 06462 2 55160
                 V'S MESS2 = $ FILE $,0,575757575760K,0,$ ALREADY EXISTS IN$,       031  LM00012
                1     $ U.F.D. OF $,0,575757575760K,0,777777777777K                 031  LM00013
 00030     -3 77777 7 77777    00031     +0 00000 0 00000    00032     -1 75757 5 75760    00033     +0 00000 0 00000
 00034     +3 36046 2 66060    00035     -2 06433 2 63324    00036     -2 26362 6 03145    00037     +2 47060 2 56731
 00040     -2 02143 5 12521    00041     +0 00000 0 00000    00042     -1 75757 5 75760    00043     +0 00000 0 00000
 00044     -2 02631 4 32560
                 E'O CKENT.                                                         032  LM00015
 00056 TRA +0 02000 0 00061    00057 SXA +0 63400 2 00332    00060 TSX +0 07400 2 00332
                 GO = 0B                                                            033  LM00016
 00061 CLA +0 50000 0 00045    00062 STO +0 60100 0 00015
                 T'H LOOP1, FOR I = 0,TSKLTH,(I.GE.AINDEX)                          034  LM00020
 00063 CLA +0 50000 0 00045    00064 STO +0 60100 0 00016    00065 TRA +0 02000 0 00071    00066 CLA +0 50000 0 00016
 00067 ADD +0 40000 0 67637    00070 STO +0 60100 0 00016    00071 CLA +0 50000 0 00016    00072 SUB +0 40200 0 67664
 00073 TZE +0 10000 0 00320    00074 TPL +0 12000 0 00320
                      W'R (TABLE(I+2).E.0).OR.(TABLE(I+10).NE.0), T'O LOOP1         035  LM00021
 00075 CLA +0 50000 0 00016    00076 ADD +0 40000 0 00053    00077 PAX +0 73400 1 00000    00100 CLA +0 50000 1 77461
 00101 SUB +0 40200 0 00045    00102 TNZ -0 10000 0 00111    00103 CLA +0 50000 0 00016    00104 ADD +0 40000 0 00047
 00105 PAX +0 73400 1 00000    00106 CLA +0 50000 1 77461    00107 SUB +0 40200 0 00045    00110 TNZ -0 10000 0 00112
 00111 TRA +0 02000 0 00012
                      ATTACH.(TABLE(I+2),TABLE(I+3),ERR,ERCODE)                     036  LM00025
 00112 CLA +0 50000 0 00016    00113 ADD +0 40000 0 00050    00114 SUB +0 40200 0 00115    00115 TXH +3 00000 0 77461
 00116 STA +0 62100 0 00126    00117 CLA +0 50000 0 00016    00120 ADD +0 40000 0 00047    00121 SUB +0 40200 0 00122
 00122 TXH +3 00000 0 77461    00123 STA +0 62100 0 00125    00124 TSX +0 07400 4 00000    00125 TXH +3 00000 0 00000
 00126 TXH +3 00000 0 00000    00127 TXH +3 00000 0 00010    00130 TXH +3 00000 0 00014
                      W'R (TABLE(I+4).E.FENCE).OR.(TABLE(I+5).E.FENCE)              037  LM00029
 00131 CLA +0 50000 0 00016    00132 ADD +0 40000 0 00052    00133 PAX +0 73400 1 00000    00134 CLA +0 50000 1 77461
 00135 SUB +0 40200 0 67656    00136 TZE +0 10000 0 00145    00137 CLA +0 50000 0 00016    00140 ADD +0 40000 0 00051
 00141 PAX +0 73400 1 00000    00142 CLA +0 50000 1 77461    00143 SUB +0 40200 0 67656    00144 TNZ -0 10000 0 00151
      NOFILE               GO = 1B                                                  038  LM00030
 00145 CLA +0 50000 0 00046    00146 STO +0 60100 0 00015
                           T'O LOOP1                                                039  LM00031
 00147 TRA +0 02000 0 00012
                      O'E                                                           040  LM00032
 00150 TRA +0 02000 0 00253
                           FSTATE.(TABLE(I+4),TABLE(I+5),DRAIN(2)...2,              041  LM00033
                1               ABSENT,ERCODE)                                      041  LM00034
 00151 CLA +0 50000 0 00016    00152 ADD +0 40000 0 00052    00153 SUB +0 40200 0 00154    00154 TXH +3 00000 0 77461
 00155 STA +0 62100 0 00165    00156 CLA +0 50000 0 00016    00157 ADD +0 40000 0 00051    00160 SUB +0 40200 0 00161
 00161 TXH +3 00000 0 77461    00162 STA +0 62100 0 00164    00163 TSX +0 07400 4 00002    00164 TXH +3 00000 0 00000
 00165 TXH +3 00000 0 00000    00166 TIX +2 00047 0 74474    00167 TXH +3 00000 0 00007    00170 TXH +3 00000 0 00014
                           W'R ((DRAIN(1).A.202K).NE.0), T'O NOFILE                 042  LM00038
 00171 CAL -0 50000 0 74475    00172 ANA -0 32000 0 00054    00173 SLW +0 60200 0 00344    00174 CLA +0 50000 0 00344
 00175 SUB +0 40200 0 00045    00176 TZE +0 10000 0 00200    00177 TRA +0 02000 0 00013
      EXISTS               MESS2(1) = TABLE(I+4)                                    043  LM00040
 00200 CLA +0 50000 0 00016    00201 ADD +0 40000 0 00051    00202 PAX +0 73400 2 00000    00203 CLA +0 50000 2 77461
 00204 STO +0 60100 0 00043
                           MESS2(3) = TABLE(I+5)                                    044  LM00041
 00205 CLA +0 50000 0 00016    00206 ADD +0 40000 0 00052    00207 PAX +0 73400 2 00000    00210 CLA +0 50000 2 77461
 00211 STO +0 60100 0 00041
                           MESS2(9) = TABLE(I+2)                                    045  LM00042
 00212 CLA +0 50000 0 00016    00213 ADD +0 40000 0 00047    00214 PAX +0 73400 2 00000    00215 CLA +0 50000 2 77461
 00216 STO +0 60100 0 00033
                           MESS2(11) = TABLE(I+3)                                   046  LM00043
 00217 CLA +0 50000 0 00016    00220 ADD +0 40000 0 00050    00221 PAX +0 73400 2 00000    00222 CLA +0 50000 2 77461
 00223 STO +0 60100 0 00031
                           PRNTP.(MESS2)                                            047  LM00044
 00224 TSX +0 07400 4 00005    00225 TXH +3 00000 0 00044
                           MAIL.(TABLE(I+2),TABLE(I+3),MESS2,1B)                    048  LM00045
 00226 CLA +0 50000 0 00016    00227 ADD +0 40000 0 00050    00230 SUB +0 40200 0 00231    00231 TXH +3 00000 0 77461
 00232 STA +0 62100 0 00242    00233 CLA +0 50000 0 00016    00234 ADD +0 40000 0 00047    00235 SUB +0 40200 0 00236
 00236 TXH +3 00000 0 77461    00237 STA +0 62100 0 00241    00240 TSX +0 07400 4 00003    00241 TXH +3 00000 0 00000
 00242 TXH +3 00000 0 00000    00243 TXH +3 00000 0 00044    00244 TXH +3 00000 0 00046
                           TABLE(I+2) = 0                                           049  LM00046
 00245 CLA +0 50000 0 00016    00246 ADD +0 40000 0 00047    00247 PAX +0 73400 1 00000    00250 CLA +0 50000 0 00045
 00251 STO +0 60100 1 77461
                           T'O LOOP1                                                050  LM00047
 00252 TRA +0 02000 0 00012
                      E'L                                                           051  LM00048
      ABSENT          W'R (ERCODE.E.4).OR.(ERCODE.E.5)                              052  LM00052
 00253 CLA +0 50000 0 00014    00254 SUB +0 40200 0 00052    00255 TZE +0 10000 0 00261    00256 CLA +0 50000 0 00014
 00257 SUB +0 40200 0 00051    00260 TNZ -0 10000 0 00263
                           T'O EXISTS                                               053  LM00053
 00261 TRA +0 02000 0 00011
                      O'E                                                           054  LM00054
 00262 TRA +0 02000 0 00264
                           T'O NOFILE                                               055  LM00055
 00263 TRA +0 02000 0 00013
                      E'L                                                           056  LM00056
      ERR             W'R ERCODE.E.3                                                057  LM00060
 00264 CLA +0 50000 0 00014    00265 SUB +0 40200 0 00050    00266 TNZ -0 10000 0 00311
                           MESS1(1) = TABLE(I+2)                                    058  LM00061
 00267 CLA +0 50000 0 00016    00270 ADD +0 40000 0 00047    00271 PAX +0 73400 2 00000    00272 CLA +0 50000 2 77461
 00273 STO +0 60100 0 00026
                           MESS1(3) = TABLE(I+3)                                    059  LM00062
 00274 CLA +0 50000 0 00016    00275 ADD +0 40000 0 00050    00276 PAX +0 73400 2 00000    00277 CLA +0 50000 2 77461
 00300 STO +0 60100 0 00024
                           PRNTP.(MESS1)                                            060  LM00063
 00301 TSX +0 07400 4 00005    00302 TXH +3 00000 0 00027
                           TABLE(I+2) = 0                                           061  LM00064
 00303 CLA +0 50000 0 00016    00304 ADD +0 40000 0 00047    00305 PAX +0 73400 1 00000    00306 CLA +0 50000 0 00045
 00307 STO +0 60100 1 77461
                      O'E                                                           062  LM00065
 00310 TRA +0 02000 0 00317
                           PRNTER.                                                  063  LM00066
 00311 TSX +0 07400 4 00004
                           TABLE(I+2) = 0                                           064  LM00067
 00312 CLA +0 50000 0 00016    00313 ADD +0 40000 0 00047    00314 PAX +0 73400 1 00000    00315 CLA +0 50000 0 00045
 00316 STO +0 60100 1 77461
                      E'L                                                           065  LM00068
      LOOP1      C'E                                                                066  LM00070
 00317 TRA +0 02000 0 00066
                 W'R GO .AND. (LINDEX.L.LODLIM)                                     067  LM00072
 00320 CLA +0 50000 0 67644    00321 SUB +0 40200 0 67643    00322 TZE +0 10000 0 00330    00323 TPL +0 12000 0 00330
 00324 NZT -0 52000 0 00015    00325 TRA +0 02000 0 00330
                      F'N                                                           068  LM00073
 00326 TRA +0 02000 0 00340
                 O'E                                                                069  LM00074
 00327 TRA +0 02000 0 00331
                      T'O Y                                                         070  LM00075
 00330 TRA +0 02000 0 00000
                 E'L                                                                071  LM00076
                 E'N                                                                072  LM00078
 00331 TSX +0 07400 4 00001    00332 TXH +3 00000 0 00000    00333 SXD -0 63400 1 00332    00334 SXA +0 63400 4 00340
 00335 CLA +0 50000 4 00001    00336 STA +0 62100 0 00330    00337 TRA +0 02000 2 00001    00340 AXT +0 77400 4 00000
 00341 LXA +0 53400 2 00332    00342 LXD -0 53400 1 00332    00343 TRA +0 02000 4 00001


SETTAP   BCD 04/29/67 2209.9   13100         00000
1     MAD PROGRAM LISTING ... ... ...                 FILE  SETTAP   MAD            04/29/67    2139.8
-
                      SELECT AND MOUNT A TAPE FOR RETRIEVALS                                           LM00001
                           D.R. WIDRIG  DEC. 1965                                                      LM00002
                                                                                                       LM00003
                  EXTERNAL FUNCTION                                                               *001 LM00004
                  INSERT FILE COM                                                                 *002 LM00005
                                                                                                  *002 LM00001
                  NORMAL MODE IS INTEGER                                                          *003 LM00002
                  BOOLEAN SWT.                                                                    *004 LM00003
                                                                                                       LM00004
                  DIMENSION TABLE(210),BUFF(432),BUFF1(432),BUFF2(432)                            *005 LM00005
                  DIMENSION HEADER(12),UFD(7),DRAIN(432),LODTAB(2000)                             *006 LM00006
                  EQUIVALENCE (PB,HEADER(12)),(PG,HEADER(11)),(DND,HEADER(8)),                    *007 LM00007
                1      (WC,HEADER(2)),(LRCT,HEADER(1))                                            *007 LM00008
                  PROGRAM COMMON TABLE,BUFF,BUFF1,BUFF2                                           *008 LM00009
                  PROGRAM COMMON HEADER,DRAIN,UFD,LODTAB                                          *009 LM00010
                  PROGRAM COMMON AINDEX,UNIT,D,T,MZE,TFUDG,FENCE,USERF,ILEDI,PRIV                 *010 LM00011
                  PROGRAM COMMON TABLIM,LPREAM,HPROB,HPROG,CURPTR,AUTHOR,LINDEX                   *011 LM00012
                  PROGRAM COMMON LODLIM,SYSTEM,DAEMON,REELNO,TSKLTH                               *012 LM00013
                                                                                                       LM00014
                  VECTOR VALUES FENCE = 777777777777K                                             *013 LM00015
                  VECTOR VALUES MZE = 4K11                                                        *014 LM00016
                  VECTOR VALUES TFUDG = 1800                                                      *015 LM00017
                  VECTOR VALUES TABLIM = 200                                                      *016 LM00018
                  VECTOR VALUES LODLIM = 2000                                                     *017 LM00019
                  VECTOR VALUES LPREAM = 12                                                       *018 LM00020
                  VECTOR VALUES TSKLTH = 11                                                       *019 LM00021
                                                                                                       LM00022
                  VECTOR VALUES SYSTEM = $ C0056$                                                 *020 LM00023
                  VECTOR VALUES DAEMON = $ 99999$                                                 *021 LM00024
                  VECTOR VALUES D = $(DUMP)$                                                      *022 LM00025
                  VECTOR VALUES T = $(TAPE)$                                                      *023 LM00026
                  VECTOR VALUES USERF = $USER F$                                                  *024 LM00027
                  VECTOR VALUES ILEDI = $ILE DI$                                                  *025 LM00028
                  DIMENSION HEDER2(12)                                                            *026 LM00029
                  PROGRAM COMMON HEDER2                                                           *027 LM00030
                                                                                                       LM00031
                  VECTOR VALUES MESSV(1) = $N.F.T.$,$U.D.T.$,$S.D.T.$                             *028 LM00006
                  VECTOR VALUES MESS1(1) = $ALS   $,$ETRIEV$,$ FOR R$,0,$, TIME$,0,               *029 LM00007
                1      $ DATE $,0,$MOUNT $                                                        *029 LM00008
                  VECTOR VALUES MESS2 = $NO TAPES AVAILABLE NOW$,777777777777K                    *030 LM00009
                  VECTOR VALUES MESS3 = $INCORRECT LABELING, WILL UNMOUNT AND TRY AGAIN$          *031 LM00010
                1      ,777777777777K                                                             *031 LM00011
                  VECTOR VALUES MESS4(1) = $GAIN  $,$ TRY A$,$LABEL,$,$ECTED $,                   *032 LM00012
                1      $CH EXP$,$OT MAT$,$DOES N$,$LABEL $                                        *032 LM00013
                  VECTOR VALUES MESS5 = $NOW MOUNTING$,575757575760K,0,$ DATED$,                  *033 LM00014
                1      575757575760K,0,$, TIME$,0,$ FOR RETRIEVAL$,                               *033 LM00015
                2      777777777777K                                                              *033 LM00016
                  VECTOR VALUES MESS6 = $INCORRECT HEADER, WILL TRY AGAIN$,                       *034 LM00017
                1      777777777777K                                                              *034 LM00018
                  VECTOR VALUES MESS7 = $HEADER$,0,0,$, WILL TRY AGAIN$,777777777777K             *035 LM00019
                  VECTOR VALUES MESS8(1) = $AGAIN $,$, TRY $,0,$, TIME$,0,                        *036 LM00020
                1      $ DATE $,$HEADER$                                                          *036 LM00021
                  VECTOR VALUES MESS9 = $CANNOT MOUNT TAPE FOR $,0,575757575760K,0,               *037 LM00022
                1      777777777777K                                                              *037 LM00023
                  VECTOR VALUES MESS10 = $ERROR READING HEADER$,777777777777K                     *038 LM00024
                  VECTOR VALUES MESS11 = $TAPE IS MOUNTED AND CHECKED$,777777777777K              *039 LM00025
                  VECTOR VALUES MESS12(1) = $EEL   $,$NEXT R$,$UE TO $,$CONTIN$,                  *040 LM00026
                1      $ WILL $,$ REEL.$,$END OF$                                                 *040 LM00027
                  VECTOR VALUES MESS13 = $END OF REEL. NOW MOUNTING REEL$,0,                      *041 LM00028
                1      $ OF DUMP TAPE$,777777777777K                                              *041 LM00029
                  VECTOR VALUES MESS14(1) = 0,$EEL   $,$T IS R$,$NCE. I$,$ SEQUE$,                *042 LM00030
                1      $APE IN$,$NEXT T$,$MOUNT $                                                 *042 LM00031
                  VECTOR VALUES MESS15 = $TAPE MOUNTED WAS NOT IN SEQUENCE.$,                     *043 LM00032
                1      $WILL UNMOUNT AND TRY AGAIN$,777777777777K                                 *043 LM00033
                  VECTOR VALUES MESS16(1) = $ENCE  $,$N SEQU$,$NEXT I$,$S NOT $,                  *044 LM00034
                1      $TAPE I$                                                                   *044 LM00035
                  VECTOR VALUES LABL(1) = $ TAPE $,$E DUMP$,$ED-FIL$,$ CREAT$                     *045 LM00036
                1      ,$ TAPE $,$S DUMP$,$'-FILE$,$ USERS$,                                      *045 LM00037
                2      $ TAPE $,$S DUMP$,$M-FILE$,$ SYSTE$                                        *045 LM00038
                                                                                                       LM00039
                  VECTOR VALUES HIODTM = 426                                                      *046 LM00040
                  VECTOR VALUES HREEL = 424                                                       *047 LM00041
                                                                                                       LM00042
                  DIMENSION HSAVE(6),V(2)                                                         *048 LM00043
                                                                                                       LM00044
                                                                                                       LM00045
                  ENTRY TO SETTAP.                                                                *049 LM00046
                  ATTACH.(HPROB,HPROG)                                                            *050 LM00047
                                                                                                       LM00048
                      GET A TAPE MOUNTED AND READY                                                     LM00049
                                                                                                       LM00050
                  THROUGH LOOP1, FOR I = 0,TSKLTH,(I .GE. AINDEX)                                 *051 LM00051
                       WHENEVER (TABLE(I+2).E.0).OR.(TABLE(I+10).NE.0), TRANSFER TO LOOP1         *052 LM00052
                       UNIT = TABLE(I+9)-1                                                        *053 LM00053
                       MESS9(4) = TABLE(I+2)                                                      *054 LM00054
                       MESS9(6) = TABLE(I+3)                                                      *055 LM00055
                       UNIT4 = UNIT*4                                                             *056 LM00056
                       CLEAR.(D,T)                                                                *057 LM00057
                       TAPFIL.(D,T,UNIT,1)                                                        *058 LM00058
                                                                                                       LM00059
                      SET UP MOUNT MESSAGES                                                            LM00060
                                                                                                       LM00061
                       MESS1(4) = CVTIME.(TABLE(I+7))                                             *059 LM00062
                       MESS1(6) = CVDATE.(TABLE(I+6))                                             *060 LM00063
                       MESS1(8) = MESSV(UNIT)                                                     *061 LM00064
                       MESS5(8) = MESS1(4)                                                        *062 LM00065
                       MESS5(6) = MESS1(6)                                                        *063 LM00066
                       MESS5(3) = MESS1(8)                                                        *064 LM00067
                       PRNTP.(MESS5)                                                              *065 LM00068
                                                                                                       LM00069
      MLABL            MOUNT.(MZE,UNIT,MESS1(9)...9,NOTAPE)                                       *066 LM00070
                       VERIFY.(UNIT,LABL(UNIT4)...4,TRBL,ERCODE)                                  *067 LM00071
                                                                                                       LM00072
                      READ AND CHECK HEADER RECORD                                                     LM00073
                                                                                                       LM00074
                  OPEN.($R$,D,T,-0,3,ERR)                                                         *068 LM00075
                  BUFFER.(D,T,BUFF1(432)...432)                                                   *069 LM00076
                  RDWAIT.(D,T,0,DRAIN(432)...432,REOF,TEMP,ERR)                                   *070 LM00077
                       TEMP = 432-UNIT4                                                           *071 LM00078
                                                                                                       LM00079
                       THROUGH LOOP2, FOR J=UNIT4,-1,J.L.(UNIT4-3)                                *072 LM00080
                            WHENEVER DRAIN(J+TEMP).E.LABL(J), TRANSFER TO LOOP2                   *073 LM00081
                            PRNTP.(MESS6)                                                         *074 LM00082
                            TRANSFER TO TRBL2                                                     *075 LM00083
      LOOP2            CONTINUE                                                                   *076 LM00084
                                                                                                       LM00085
                      TEST FOR CORRECT DATE AND TIME                                                   LM00086
                                                                                                       LM00087
                       WHENEVER TABLE(I+6).NE.(DRAIN(HIODTM).A.777777K6)                          *077 LM00088
                                                                                                       LM00089
                      INCORRECT DATE, TRY AGAIN                                                        LM00090
                                                                                                       LM00091
                            MESS7(2) = CVDATE.(DRAIN(HIODTM))                                     *078 LM00092
                            MESS7(1) = $ DATE $                                                   *079 LM00093
      OHME                  PRNTP.(MESS7)                                                         *080 LM00094
                            MESS8(5) = CVDATE.(DRAIN(HIODTM))                                     *081 LM00095
                            MESS8(3) = CVTIME.(DRAIN(HIODTM))                                     *082 LM00096
                            CLOSE.(D,T,ERR)                                                       *083 LM00097
                            UMOUNT.(UNIT,MESS8(7)...7,MLABL,ERCODE)                               *084 LM00098
                            TRANSFER TO MLABL                                                     *085 LM00099
                       OR WHENEVER (TABLE(I+7).NE.0).AND.                                         *086 LM00100
                1           (TABLE(I+7).L.(DRAIN(HIODTM).A.777777K))                              *086 LM00101
                                                                                                       LM00102
                      INCORRECT TIME, TRY AGAIN                                                        LM00103
                                                                                                       LM00104
                            MESS7(2) = CVTIME.(DRAIN(HIODTM))                                     *087 LM00105
                            MESS7(1) = $ TIME $                                                   *088 LM00106
                            TRANSFER TO OHME                                                      *089 LM00107
                       END OF CONDITIONAL                                                         *090 LM00108
                                                                                                       LM00109
                      TAPE NOW READY, ROUTINE IS DONE                                                  LM00110
                      SAVE REEL NUMBER AND HEADER                                                      LM00111
                                                                                                       LM00112
                       WHENEVER DRAIN(HREEL) .E. DRAIN(432)                                       *091 LM00113
                            REELNO = 0                                                            *092 LM00114
                       OTHERWISE                                                                  *093 LM00115
                            REELNO = DRAIN(HREEL)                                                 *094 LM00116
                       END OF CONDITIONAL                                                         *095 LM00117
                       THROUGH LOOP3, FOR J=0,1,J.G.6                                             *096 LM00118
                            HSAVE(J) = DRAIN(432-J)                                               *097 LM00119
      LOOP3            CONTINUE                                                                   *098 LM00120
                                                                                                       LM00121
                       PRNTP.(MESS11)                                                             *099 LM00122
                       FUNCTION RETURN UNIT                                                       *100 LM00123
                                                                                                       LM00124
                      TAPE CANNOT BE MOUNTED                                                           LM00125
                                                                                                       LM00126
      NOTAPE           PRNTP.(MESS2)                                                              *101 LM00127
                       TABLE(I+2) = 0                                                             *102 LM00128
                       TRANSFER TO LOOP1                                                          *103 LM00129
                                                                                                       LM00130
      ERR              PRNTER.                                                                    *104 LM00131
                       PRNTP.(MESS10)                                                             *105 LM00132
                       CLOSE.(D,T,LOOP1)                                                          *106 LM00133
                       TRANSFER TO LOOP1                                                          *107 LM00134
                                                                                                       LM00135
      REOF             CLOSE.(D,T,TRBL1)                                                          *108 LM00136
                       TRANSFER TO TRBL1                                                          *109 LM00137
                                                                                                       LM00138
                      CHECK VERIFY ERROR CODE                                                          LM00139
                                                                                                       LM00140
      TRBL        WHENEVER ERCODE.E.7                                                             *110 LM00141
      TRBL1                 PRNTP.(MESS3)                                                         *111 LM00142
      TRBL2                 UMOUNT.(UNIT,MESS4(8)...8,MLABL,ERCODE)                               *112 LM00143
                            TRANSFER TO MLABL                                                     *113 LM00144
                       OTHERWISE                                                                  *114 LM00145
                            PRNTP.(MESS9)                                                         *115 LM00146
                            TABLE(I+2) = 0                                                        *116 LM00147
                       END OF CONDITIONAL                                                         *117 LM00148
                                                                                                       LM00149
      LOOP1       CONTINUE                                                                        *118 LM00150
                                                                                                       LM00151
                  FUNCTION RETURN 0                                                               *119 LM00152
                                                                                                       LM00153
                      ROUTINE TO GET A NEW REEL MOUNTED                                                LM00154
                      THIS ROUTINE IS CALLED BY 'TPREAD' MODULE                                        LM00155
                      WHEN A LOGICAL FILE IS SPLIT ACROSS TWO REELS                                    LM00156
                                                                                                       LM00157
                  ENTRY TO NEWTAP.                                                                *120 LM00158
                                                                                                       LM00159
                      CLEAR OLD TAPE FILE AND SET UP NEW ONE                                           LM00160
                                                                                                       LM00161
                  ATTNAM.(V(2)...2)                                                               *121 LM00162
                  ATTACH.(HPROB,HPROG)                                                            *122 LM00163
                  CLOSE.(D,T,NERR1)                                                               *123 LM00164
      NERR1       CLEAR.(D,T)                                                                     *124 LM00165
                  TAPFIL.(D,T,UNIT,1,ERR1)                                                        *125 LM00166
                  UMOUNT.(UNIT,MESS12(7)...7,ERR1,ERCODE)                                         *126 LM00167
                                                                                                       LM00168
                      GET NEW REEL NUMBER AND ASK FOR IT TO BE MOUNTED                                 LM00169
                                                                                                       LM00170
                  REELNO = REELNO + 1                                                             *127 LM00171
                  MESS13(5) = BZEL.(DERBC.(REELNO+1))                                             *128 LM00172
                  MESS14(1) = MESS13(5)                                                           *129 LM00173
                  PRNTP.(MESS13)                                                                  *130 LM00174
                                                                                                       LM00175
      AGAIN       MOUNT.(MZE,UNIT,MESS14(8)...8,ERR1)                                             *131 LM00176
                  VERIFY.(UNIT,LABL(UNIT4)...4,ERR1,ERCODE)                                       *132 LM00177
                                                                                                       LM00178
                      MAKE SURE NEW HEADER MATCHES OLD ONE                                             LM00179
                                                                                                       LM00180
                  OPEN.($R$,D,T,-0,3,ERR2)                                                        *133 LM00181
                  BUFFER.(D,T,BUFF1(432)...432)                                                   *134 LM00182
                  RDWAIT.(D,T,0,DRAIN(432)...432,NREOF,DRAIN,ERR2)                                *135 LM00183
                  THROUGH LOOP4, FOR J=0,1,J.G.6                                                  *136 LM00184
                       WHENEVER HSAVE(J) .NE. DRAIN(432-J), TRANSFER TO OHNO                      *137 LM00185
      LOOP4       CONTINUE                                                                        *138 LM00186
                                                                                                       LM00187
                      MAKE SURE REEL NUMBER IS CORRECT                                                 LM00188
                                                                                                       LM00189
                  WHENEVER REELNO .NE. DRAIN(HREEL)                                               *139 LM00190
      OHNO             PRNTP.(MESS15)                                                             *140 LM00191
                       CLOSE.(D,T,ERR1)                                                           *141 LM00192
                       UMOUNT.(UNIT,MESS16(5)...5,ERR1,ERCODE)                                    *142 LM00193
                       TRANSFER TO AGAIN                                                          *143 LM00194
                  END OF CONDITIONAL                                                              *144 LM00195
                                                                                                       LM00196
                      NEW REEL IS MOUNTED AND CHECKED, RETURN                                          LM00197
                                                                                                       LM00198
                  PRNTP.(MESS11)                                                                  *145 LM00199
                  ATTACH.(V(2),V(1))                                                              *146 LM00200
                  FUNCTION RETURN UNIT                                                            *147 LM00201
                                                                                                       LM00202
      ERR2        PRNTER.                                                                         *148 LM00203
      NREOF       CLOSE.(D,T,NERR2)                                                               *149 LM00204
      NERR2       PRNTP.(MESS10)                                                                  *150 LM00205
                  TRANSFER TO AWAY                                                                *151 LM00206
                                                                                                       LM00207
                      CANNOT GET TAPE MOUNTED, TOO BAD                                                 LM00208
                                                                                                       LM00209
      ERR1        PRNTER.                                                                         *152 LM00210
                  PRNTP.(MESS9)                                                                   *153 LM00211
      AWAY        ATTACH.(V(2),V(1))                                                              *154 LM00212
                  FUNCTION RETURN 0                                                               *155 LM00213
                                                                                                       LM00214
                  END OF FUNCTION                                                                 *156 LM00215
1MAD PROGRAM,TYPE NOV 1963      (ALL NUMBERS ARE OCTAL)
0TOTAL LOCATIONS   01224 TRANSFER VECTOR LENGTH  00022 PROGRAM BEGINS    00335 FIRST UNUSED COMMON/ERASABLE  67621
0 PROGRAM IS AN EXTERNAL FUNCTION.   THE FOLLOWING ARE ENTRIES
      NEWTAP 01002   0        SETTAP 00336   0
0VARIABLE STORAGE (A=ARRAY,C=COMMON,E=ERASABLE,DIGIT=MODE)
      AGAIN  00023   4        HEADER 74513 AC1        LOOP4  00022   4        MESS8  00271 A 1        SYSTEM 67642 AC1
      AINDEX 67664  C1        HEDER2 67636 AC1        LPREAM 67651 AC1        MESS9  00301 A 1        TABLE  77461 AC1
      AUTHOR 67645  C1        HIODTM 00046 A 1        LRCT   74512  C1        MESSV  00305 A 1        TABLIM 67652 AC1
      AWAY   00024   4        HPROB  67650  C1        MESS10 00102 A 1        MLABL  00032   4        TEMP   00306   1
      BUFF1  76255 AC1        HPROG  67647  C1        MESS11 00110 A 1        MZE    67660 AC1        TFUDG  67657 AC1
      BUFF2  75374 AC1        HREEL  00047 A 1        MESS12 00120 A 1        NERR1  00033   4        TRBL1  00042   4
      BUFF   77136 AC1        HSAVE  00056 A 1        MESS13 00132 A 1        NERR2  00034   4        TRBL2  00043   4
      CURPTR 67646  C1        ILEDI  67654 AC1        MESS14 00143 A 1        NOTAPE 00035   4        TRBL   00044   4
      DAEMON 67641 AC1        I      00057   1        MESS15 00157 A 1        NREOF  00036   4        T      67661 AC1
      DND    74503  C1        J      00060   1        MESS16 00165 A 1        OHME   00037   4        TSKLTH 67637 AC1
      DRAIN  74476 AC1        LABL   00075 A 1        MESS1  00177 A 1        OHNO   00040   4        UFD    73615 AC1
      D      67662 AC1        LINDEX 67644  C1        MESS2  00204 A 1        PB     74477  C1        UNIT4  00307   1
      ERCODE 00045   1        LODLIM 67643 AC1        MESS3  00215 A 1        PG     74500  C1        UNIT   67663  C1
      ERR1   00025   4        LODTAB 73605 AC1        MESS4  00226 A 1        PRIV   67653  C1        USERF  67655 AC1
      ERR2   00026   4        LOOP1  00030   4        MESS5  00243 A 1        REELNO 67640  C1        V      00312 A 1
      ERR    00027   4        LOOP2  00031   4        MESS6  00252 A 1        REOF   00041   4        WC     74511  C1
      FENCE  67656 AC1        LOOP3  00022   4        MESS7  00261 A 1
0FUNCTION DICTIONARY
      ATTACH 00000   1        ATTNAM 00001   1        BUFFER 00002   1        BZEL   00003   1        CLEAR  00004   1
      CLOSE  00005   1        CVDATE 00006   1        CVTIME 00007   1        DERBC  00010   1        EXIT   00011   1
      MOUNT  00012   1        OPEN   00013   1        PRNTER 00014   1        PRNTP  00015   1        RDWAIT 00016   1
      TAPFIL 00017   1        UMOUNT 00020   1        VERIFY 00021   1
0ABSOLUTE CONSTANTS
 00320 +000000000005     00323 +000000000010     00333 -206331442560     00327 +000000777777     00332 -202421632560
 00334 -377777000000     00326 +000000000660     00331 -116060606060     00321 +000000000006     00322 +000000000007
 00317 +000000000004     00316 +000000000003     00324 +000000000011     00315 +000000000002     00325 +000000000012
 00313 +000000000000     00314 +000000000001     00330 +233000000000
0STATEMENT DICTIONARY
 00023 TXL -301060001053       00024 TXL -301206001203       00025 TXL -301201001200       00026 TXL -301171001170
 00027 TXL -300737000736       00030 TXL -300777000776       00031 TXL -300556000555       00032 TXL -300465000460
 00033 TXL -301020001015       00034 TXL -301177001175       00035 TXL -300730000726       00036 TXL -301175001171
 00037 TXL -300603000601       00040 TXL -301147001145       00041 TXL -300752000746       00042 TXL -300760000756
 00043 TXL -300765000760       00044 TXL -300756000753
0PROGRAM
                 EXTERNAL FUNCTION                                                  001  LM00004
                 I'E COM                                                            002  LM00005
                 N'R                                                                003  LM00002
                 B'N SWT.                                                           004  LM00003
                 D'N TABLE(210),BUFF(432),BUFF1(432),BUFF2(432)                     005  LM00005
                 D'N HEADER(12),UFD(7),DRAIN(432),LODTAB(2000)                      006  LM00006
                 E'E (PB,HEADER(12)),(PG,HEADER(11)),(DND,HEADER(8)),               007  LM00007
                1     (WC,HEADER(2)),(LRCT,HEADER(1))                               007  LM00008
                 P'N TABLE,BUFF,BUFF1,BUFF2                                         008  LM00009
                 P'N HEADER,DRAIN,UFD,LODTAB                                        009  LM00010
                 P'N AINDEX,UNIT,D,T,MZE,TFUDG,FENCE,USERF,ILEDI,PRIV               010  LM00011
                 P'N TABLIM,LPREAM,HPROB,HPROG,CURPTR,AUTHOR,LINDEX                 011  LM00012
                 P'N LODLIM,SYSTEM,DAEMON,REELNO,TSKLTH                             012  LM00013
                 V'S FENCE = 777777777777K                                          013  LM00015
 67656     -3 77777 7 77777
                 V'S MZE = 4K11                                                     014  LM00016
 67660     -0 00000 0 00000
                 V'S TFUDG = 1800                                                   015  LM00017
 67657     +0 00000 0 03410
                 V'S TABLIM = 200                                                   016  LM00018
 67652     +0 00000 0 00310
                 V'S LODLIM = 2000                                                  017  LM00019
 67643     +0 00000 0 03720
                 V'S LPREAM = 12                                                    018  LM00020
 67651     +0 00000 0 00014
                 V'S TSKLTH = 11                                                    019  LM00021
 67637     +0 00000 0 00013
                 V'S SYSTEM = $ C0056$                                              020  LM00023
 67642     -2 02300 0 00506
                 V'S DAEMON = $ 99999$                                              021  LM00024
 67641     -2 01111 1 11111
                 V'S D = $(DUMP)$                                                   022  LM00025
 67662     -3 42464 4 44734
                 V'S T = $(TAPE)$                                                   023  LM00026
 67661     -3 46321 4 72534
                 V'S USERF = $USER F$                                               024  LM00027
 67655     -2 46225 5 16026
                 V'S ILEDI = $ILE DI$                                               025  LM00028
 67654     +3 14325 6 02431
                 DIMENSION HEDER2(12)                                               026  LM00029
                 P'N HEDER2                                                         027  LM00030
                 V'S MESSV(1) = $N.F.T.$,$U.D.T.$,$S.D.T.$                          028  LM00006
 00302     -2 23324 3 36333    00303     -2 43324 3 36333    00304     -0 53326 3 36333
                 V'S MESS1(1) = $ALS   $,$ETRIEV$,$ FOR R$,0,$, TIME$,0,            029  LM00007
                1     $ DATE $,0,$MOUNT $                                           029  LM00008
 00166     -0 44664 4 56360    00167     +0 00000 0 00000    00170     -2 02421 6 32560    00171     +0 00000 0 00000
 00172     -3 36063 3 14425    00173     +0 00000 0 00000    00174     -2 02646 5 16051    00175     +2 56351 3 12565
 00176     +2 14362 6 06060
                 V'S MESS2 = $NO TAPES AVAILABLE NOW$,777777777777K                 030  LM00009
 00200     -3 77777 7 77777    00201     -2 04546 6 66060    00202     +3 14321 2 24325    00203     +2 56260 2 16521
 00204     -0 54660 6 32147
                 V'S MESS3 = $INCORRECT LABELING, WILL UNMOUNT AND TRY AGAIN$       031  LM00010
                1     ,777777777777K                                                031  LM00011
 00205     -3 77777 7 77777    00206     +2 72131 4 56060    00207     -2 06351 7 06021    00210     -0 56360 2 14524
 00211     -2 06445 4 44664    00212     -3 36066 3 14343    00213     +2 22543 3 14527    00214     +2 52363 6 04321
 00215     +3 14523 4 65151
                 V'S MESS4(1) = $GAIN  $,$ TRY A$,$LABEL,$,$ECTED $,                032  LM00012
                1     $CH EXP$,$OT MAT$,$DOES N$,$LABEL $                           032  LM00013
 00216     -0 32122 2 54360    00217     +2 44625 6 26045    00220     -0 66360 4 42163    00221     +2 33060 2 56747
 00222     +2 52363 2 52460    00223     -0 32122 2 54373    00224     -2 06351 7 06021    00225     +2 72131 4 56060
                 V'S MESS5 = $NOW MOUNTING$,575757575760K,0,$ DATED$,               033  LM00014
                1     575757575760K,0,$, TIME$,0,$ FOR RETRIEVAL$,                  033  LM00015
                2     777777777777K                                                 033  LM00016
 00227     -3 77777 7 77777    00230     +2 14360 6 06060    00231     +2 56351 3 12565    00232     -2 02646 5 16051
 00233     +0 00000 0 00000    00234     -3 36063 3 14425    00235     +0 00000 0 00000    00236     -1 75757 5 75760
 00237     -2 02421 6 32524    00240     +0 00000 0 00000    00241     -1 75757 5 75760    00242     -2 44563 3 14527
 00243     -0 54666 6 04446
                 V'S MESS6 = $INCORRECT HEADER, WILL TRY AGAIN$,                    034  LM00017
                1     777777777777K                                                 034  LM00018
 00244     -3 77777 7 77777    00245     +3 14560 6 06060    00246     -1 17060 2 12721    00247     -2 63143 4 36063
 00250     +2 12425 5 17360    00251     +2 52363 6 03025    00252     +3 14523 4 65151
                 V'S MESS7 = $HEADER$,0,0,$, WILL TRY AGAIN$,777777777777K          035  LM00019
 00253     -3 77777 7 77777    00254     +2 72131 4 56060    00255     -2 06351 7 06021    00256     -3 36066 3 14343
 00257     +0 00000 0 00000    00260     +0 00000 0 00000    00261     +3 02521 2 42551
                 V'S MESS8(1) = $AGAIN $,$, TRY $,0,$, TIME$,0,                     036  LM00020
                1     $ DATE $,$HEADER$                                             036  LM00021
 00262     +3 02521 2 42551    00263     -2 02421 6 32560    00264     +0 00000 0 00000    00265     -3 36063 3 14425
 00266     +0 00000 0 00000    00267     -3 36063 5 17060    00270     +2 12721 3 14560
                 V'S MESS9 = $CANNOT MOUNT TAPE FOR $,0,575757575760K,0,            037  LM00022
                1     777777777777K                                                 037  LM00023
 00272     -3 77777 7 77777    00273     +0 00000 0 00000    00274     -1 75757 5 75760    00275     +0 00000 0 00000
 00276     +2 64651 6 06060    00277     -2 06321 4 72560    00300     -2 04446 6 44563    00301     +2 32145 4 54663
                 V'S MESS10 = $ERROR READING HEADER$,777777777777K                  038  LM00024
 00076     -3 77777 7 77777    00077     +2 55160 6 06060    00100     +2 76030 2 52124    00101     -1 12521 2 43145
 00102     +2 55151 4 65160
                 V'S MESS11 = $TAPE IS MOUNTED AND CHECKED$,777777777777K           039  LM00025
 00103     -3 77777 7 77777    00104     -0 22524 6 06060    00105     +2 46023 3 02523    00106     -2 32524 6 02145
 00107     -2 26044 4 66445    00110     -2 32147 2 56031
                 V'S MESS12(1) = $EEL   $,$NEXT R$,$UE TO $,$CONTIN$,               040  LM00026
                1     $ WILL $,$ REEL.$,$END OF$                                    040  LM00027
 00111     +2 54524 6 04626    00112     -2 05125 2 54333    00113     -2 06631 4 34360    00114     +2 34645 6 33145
 00115     -2 42560 6 34660    00116     -0 52567 6 36051    00117     +2 52543 6 06060
                 V'S MESS13 = $END OF REEL. NOW MOUNTING REEL$,0,                   041  LM00028
                1     $ OF DUMP TAPE$,777777777777K                                 041  LM00029
 00121     -3 77777 7 77777    00122     +2 56060 6 06060    00123     -0 44760 6 32147    00124     -2 04626 6 02464
 00125     +0 00000 0 00000    00126     +2 76051 2 52543    00127     -0 66445 6 33145    00130     -2 04546 6 66044
 00131     -2 05125 2 54333    00132     +2 54524 6 04626
                 V'S MESS14(1) = 0,$EEL   $,$T IS R$,$NCE. I$,$ SEQUE$,             042  LM00030
                1     $APE IN$,$NEXT T$,$MOUNT $                                    042  LM00031
 00133     -0 44664 4 56360    00134     -0 52567 6 36063    00135     +2 14725 6 03145    00136     -2 06225 5 06425
 00137     -0 52325 3 36031    00140     -2 36031 6 26051    00141     +2 52543 6 06060    00142     +0 00000 0 00000
                 V'S MESS15 = $TAPE MOUNTED WAS NOT IN SEQUENCE.$,                  043  LM00032
                1     $WILL UNMOUNT AND TRY AGAIN$,777777777777K                    043  LM00033
 00144     -3 77777 7 77777    00145     +3 14560 6 06060    00146     -1 17060 2 12721    00147     -2 02145 2 46063
 00150     -0 54446 6 44563    00151     -2 63143 4 36064    00152     +2 32533 6 06060    00153     -2 22550 6 42545
 00154     -0 66360 3 14560    00155     -2 06621 6 26045    00156     -0 66445 6 32524    00157     -2 32147 2 56044
                 V'S MESS16(1) = $ENCE  $,$N SEQU$,$NEXT I$,$S NOT $,               044  LM00034
                1     $TAPE I$                                                      044  LM00035
 00160     -2 32147 2 56031    00161     -2 26045 4 66360    00162     -0 52567 6 36031    00163     -0 56062 2 55064
 00164     +2 54523 2 56060
                 V'S LABL(1) = $ TAPE $,$E DUMP$,$ED-FIL$,$ CREAT$                  045  LM00036
                1     ,$ TAPE $,$S DUMP$,$'-FILE$,$ USERS$,                         045  LM00037
                2     $ TAPE $,$S DUMP$,$M-FILE$,$ SYSTE$                           045  LM00038
 00061     -2 06270 6 26325    00062     -0 44026 3 14325    00063     -2 26024 6 44447    00064     -2 06321 4 72560
 00065     -2 06462 2 55162    00066     +1 44026 3 14325    00067     -2 26024 6 44447    00070     -2 06321 4 72560
 00071     -2 02351 2 52163    00072     +2 52440 2 63143    00073     +2 56024 6 44447    00074     -2 06321 4 72560
                 V'S HIODTM = 426                                                   046  LM00040
 00046     +0 00000 0 00652
                 V'S HREEL = 424                                                    047  LM00041
 00047     +0 00000 0 00650
                 D'N HSAVE(6),V(2)                                                  048  LM00043
                 E'O SETTAP.                                                        049  LM00046
 00335 TRA +0 02000 0 00340    00336 SXA +0 63400 2 01211    00337 TSX +0 07400 2 01211
                 ATTACH.(HPROB,HPROG)                                               050  LM00047
 00340 TSX +0 07400 4 00000    00341 TXH +3 00000 0 67650    00342 TXH +3 00000 0 67647
                 T'H LOOP1, FOR I = 0,TSKLTH,(I .GE. AINDEX)                        051  LM00051
 00343 CLA +0 50000 0 00313    00344 STO +0 60100 0 00057    00345 TRA +0 02000 0 00351    00346 CLA +0 50000 0 00057
 00347 ADD +0 40000 0 67637    00350 STO +0 60100 0 00057    00351 CLA +0 50000 0 00057    00352 SUB +0 40200 0 67664
 00353 TZE +0 10000 0 00777    00354 TPL +0 12000 0 00777
                      W'R (TABLE(I+2).E.0).OR.(TABLE(I+10).NE.0), T'O LOOP1         052  LM00052
 00355 CLA +0 50000 0 00057    00356 ADD +0 40000 0 00325    00357 PAX +0 73400 1 00000    00360 CLA +0 50000 1 77461
 00361 SUB +0 40200 0 00313    00362 TNZ -0 10000 0 00371    00363 CLA +0 50000 0 00057    00364 ADD +0 40000 0 00315
 00365 PAX +0 73400 1 00000    00366 CLA +0 50000 1 77461    00367 SUB +0 40200 0 00313    00370 TNZ -0 10000 0 00372
 00371 TRA +0 02000 0 00030
                      UNIT = TABLE(I+9)-1                                           053  LM00053
 00372 CLA +0 50000 0 00057    00373 ADD +0 40000 0 00324    00374 PAX +0 73400 1 00000    00375 CLA +0 50000 1 77461
 00376 SUB +0 40200 0 00314    00377 STO +0 60100 0 67663
                      MESS9(4) = TABLE(I+2)                                         054  LM00054
 00400 CLA +0 50000 0 00057    00401 ADD +0 40000 0 00315    00402 PAX +0 73400 2 00000    00403 CLA +0 50000 2 77461
 00404 STO +0 60100 0 00275
                      MESS9(6) = TABLE(I+3)                                         055  LM00055
 00405 CLA +0 50000 0 00057    00406 ADD +0 40000 0 00316    00407 PAX +0 73400 2 00000    00410 CLA +0 50000 2 77461
 00411 STO +0 60100 0 00273
                      UNIT4 = UNIT*4                                                056  LM00056
 00412 LDQ +0 56000 0 67663    00413 MPY +0 20000 0 00317    00414 STQ -0 60000 0 00307
                      CLEAR.(D,T)                                                   057  LM00057
 00415 TSX +0 07400 4 00004    00416 TXH +3 00000 0 67662    00417 TXH +3 00000 0 67661
                      TAPFIL.(D,T,UNIT,1)                                           058  LM00058
 00420 TSX +0 07400 4 00017    00421 TXH +3 00000 0 67662    00422 TXH +3 00000 0 67661    00423 TXH +3 00000 0 67663
 00424 TXH +3 00000 0 00314
                      MESS1(4) = CVTIME.(TABLE(I+7))                                059  LM00062
 00425 CLA +0 50000 0 00057    00426 ADD +0 40000 0 00322    00427 SUB +0 40200 0 00430    00430 TXH +3 00000 0 77461
 00431 STA +0 62100 0 00433    00432 TSX +0 07400 4 00007    00433 TXH +3 00000 0 00000    00434 STO +0 60100 0 00173
                      MESS1(6) = CVDATE.(TABLE(I+6))                                060  LM00063
 00435 CLA +0 50000 0 00057    00436 ADD +0 40000 0 00321    00437 SUB +0 40200 0 00440    00440 TXH +3 00000 0 77461
 00441 STA +0 62100 0 00443    00442 TSX +0 07400 4 00006    00443 TXH +3 00000 0 00000    00444 STO +0 60100 0 00171
                      MESS1(8) = MESSV(UNIT)                                        061  LM00064
 00445 LXA +0 53400 2 67663    00446 CLA +0 50000 2 00305    00447 STO +0 60100 0 00167
                      MESS5(8) = MESS1(4)                                           062  LM00065
 00450 CLA +0 50000 0 00173    00451 STO +0 60100 0 00233
                      MESS5(6) = MESS1(6)                                           063  LM00066
 00452 CLA +0 50000 0 00171    00453 STO +0 60100 0 00235
                      MESS5(3) = MESS1(8)                                           064  LM00067
 00454 CLA +0 50000 0 00167    00455 STO +0 60100 0 00240
                      PRNTP.(MESS5)                                                 065  LM00068
 00456 TSX +0 07400 4 00015    00457 TXH +3 00000 0 00243
      MLABL           MOUNT.(MZE,UNIT,MESS1(9)...9,NOTAPE)                          066  LM00070
 00460 TSX +0 07400 4 00012    00461 TXH +3 00000 0 67660    00462 TXH +3 00000 0 67663    00463 TIX +2 00324 0 00166
 00464 TXH +3 00000 0 00035
                      VERIFY.(UNIT,LABL(UNIT4)...4,TRBL,ERCODE)                     067  LM00071
 00465 CLA +0 50000 0 00307    00466 SUB +0 40200 0 00467    00467 TXH +3 00000 0 00075    00470 STA +0 62100 0 00473
 00471 TSX +0 07400 4 00021    00472 TXH +3 00000 0 67663    00473 TIX +2 00317 0 00000    00474 TXH +3 00000 0 00044
 00475 TXH +3 00000 0 00045
                 OPEN.($R$,D,T,-0,3,ERR)                                            068  LM00075
 00476 CLS +0 50200 0 00313    00477 STO +0 60100 0 01221    00500 TSX +0 07400 4 00013    00501 TXH +3 00000 0 00331
 00502 TXH +3 00000 0 67662    00503 TXH +3 00000 0 67661    00504 TXH +3 00000 0 01221    00505 TXH +3 00000 0 00316
 00506 TXH +3 00000 0 00027
                 BUFFER.(D,T,BUFF1(432)...432)                                      069  LM00076
 00507 TSX +0 07400 4 00002    00510 TXH +3 00000 0 67662    00511 TXH +3 00000 0 67661    00512 TIX +2 00326 0 75375
                 RDWAIT.(D,T,0,DRAIN(432)...432,REOF,TEMP,ERR)                      070  LM00077
 00513 TSX +0 07400 4 00016    00514 TXH +3 00000 0 67662    00515 TXH +3 00000 0 67661    00516 TXH +3 00000 0 00313
 00517 TIX +2 00326 0 73616    00520 TXH +3 00000 0 00041    00521 TXH +3 00000 0 00306    00522 TXH +3 00000 0 00027
                      TEMP = 432-UNIT4                                              071  LM00078
 00523 CLA +0 50000 0 00326    00524 SUB +0 40200 0 00307    00525 STO +0 60100 0 00306
                      T'H LOOP2, FOR J=UNIT4,-1,J.L.(UNIT4-3)                       072  LM00080
 00526 CLA +0 50000 0 00307    00527 STO +0 60100 0 00060    00530 TRA +0 02000 0 00534    00531 CLS +0 50200 0 00314
 00532 ADD +0 40000 0 00060    00533 STO +0 60100 0 00060    00534 CLA +0 50000 0 00307    00535 SUB +0 40200 0 00316
 00536 CHS +0 76000 0 00002    00537 ADD +0 40000 0 00060    00540 TZE +0 10000 0 00542    00541 TMI -0 12000 0 00556
                           W'R DRAIN(J+TEMP).E.LABL(J), T'O LOOP2                   073  LM00081
 00542 CLA +0 50000 0 00060    00543 ADD +0 40000 0 00306    00544 PAX +0 73400 1 00000    00545 LXA +0 53400 2 00060
 00546 CLA +0 50000 1 74476    00547 SUB +0 40200 2 00075    00550 TNZ -0 10000 0 00552    00551 TRA +0 02000 0 00031
                           PRNTP.(MESS6)                                            074  LM00082
 00552 TSX +0 07400 4 00015    00553 TXH +3 00000 0 00252
                           T'O TRBL2                                                075  LM00083
 00554 TRA +0 02000 0 00043
      LOOP2           C'E                                                           076  LM00084
 00555 TRA +0 02000 0 00531
                      W'R TABLE(I+6).NE.(DRAIN(HIODTM).A.777777K6)                  077  LM00088
 00556 LXA +0 53400 1 00046    00557 CAL -0 50000 1 74476    00560 ANA -0 32000 0 00334    00561 SLW +0 60200 0 01221
 00562 CLA +0 50000 0 00057    00563 ADD +0 40000 0 00321    00564 PAX +0 73400 1 00000    00565 CLA +0 50000 1 77461
 00566 SUB +0 40200 0 01221    00567 TZE +0 10000 0 00634
                           MESS7(2) = CVDATE.(DRAIN(HIODTM))                        078  LM00092
 00570 CLA +0 50000 0 00046    00571 SUB +0 40200 0 00572    00572 TXH +3 00000 0 74476    00573 STA +0 62100 0 00575
 00574 TSX +0 07400 4 00006    00575 TXH +3 00000 0 00000    00576 STO +0 60100 0 00257
                           MESS7(1) = $ DATE $                                      079  LM00093
 00577 CLA +0 50000 0 00332    00600 STO +0 60100 0 00260
      OHME                 PRNTP.(MESS7)                                            080  LM00094
 00601 TSX +0 07400 4 00015    00602 TXH +3 00000 0 00261
                           MESS8(5) = CVDATE.(DRAIN(HIODTM))                        081  LM00095
 00603 CLA +0 50000 0 00046    00604 SUB +0 40200 0 00605    00605 TXH +3 00000 0 74476    00606 STA +0 62100 0 00610
 00607 TSX +0 07400 4 00006    00610 TXH +3 00000 0 00000    00611 STO +0 60100 0 00264
                           MESS8(3) = CVTIME.(DRAIN(HIODTM))                        082  LM00096
 00612 CLA +0 50000 0 00046    00613 SUB +0 40200 0 00614    00614 TXH +3 00000 0 74476    00615 STA +0 62100 0 00617
 00616 TSX +0 07400 4 00007    00617 TXH +3 00000 0 00000    00620 STO +0 60100 0 00266
                           CLOSE.(D,T,ERR)                                          083  LM00097
 00621 TSX +0 07400 4 00005    00622 TXH +3 00000 0 67662    00623 TXH +3 00000 0 67661    00624 TXH +3 00000 0 00027
                           UMOUNT.(UNIT,MESS8(7)...7,MLABL,ERCODE)                  084  LM00098
 00625 TSX +0 07400 4 00020    00626 TXH +3 00000 0 67663    00627 TIX +2 00322 0 00262    00630 TXH +3 00000 0 00032
 00631 TXH +3 00000 0 00045
                           T'O MLABL                                                085  LM00099
 00632 TRA +0 02000 0 00032
                      O'R (TABLE(I+7).NE.0).AND.                                    086  LM00100
                1          (TABLE(I+7).L.(DRAIN(HIODTM).A.777777K))                 086  LM00101
 00633 TRA +0 02000 0 00667    00634 LXA +0 53400 1 00046    00635 CAL -0 50000 1 74476    00636 ANA -0 32000 0 00327
 00637 SLW +0 60200 0 01221    00640 CLA +0 50000 0 00057    00641 ADD +0 40000 0 00322    00642 PAX +0 73400 1 00000
 00643 CLA +0 50000 1 77461    00644 SUB +0 40200 0 01221    00645 TZE +0 10000 0 00667    00646 TPL +0 12000 0 00667
 00647 CLA +0 50000 0 00057    00650 ADD +0 40000 0 00322    00651 PAX +0 73400 1 00000    00652 CLA +0 50000 1 77461
 00653 SUB +0 40200 0 00313    00654 TZE +0 10000 0 00667
                           MESS7(2) = CVTIME.(DRAIN(HIODTM))                        087  LM00105
 00655 CLA +0 50000 0 00046    00656 SUB +0 40200 0 00657    00657 TXH +3 00000 0 74476    00660 STA +0 62100 0 00662
 00661 TSX +0 07400 4 00007    00662 TXH +3 00000 0 00000    00663 STO +0 60100 0 00257
                           MESS7(1) = $ TIME $                                      088  LM00106
 00664 CLA +0 50000 0 00333    00665 STO +0 60100 0 00260
                           T'O OHME                                                 089  LM00107
 00666 TRA +0 02000 0 00037
                      E'L                                                           090  LM00108
                      W'R DRAIN(HREEL) .E. DRAIN(432)                               091  LM00113
 00667 LXA +0 53400 1 00047    00670 CLA +0 50000 1 74476    00671 SUB +0 40200 0 73616    00672 TNZ -0 10000 0 00676
                           REELNO = 0                                               092  LM00114
 00673 CLA +0 50000 0 00313    00674 STO +0 60100 0 67640
                      O'E                                                           093  LM00115
 00675 TRA +0 02000 0 00701
                           REELNO = DRAIN(HREEL)                                    094  LM00116
 00676 LXA +0 53400 2 00047    00677 CLA +0 50000 2 74476    00700 STO +0 60100 0 67640
                      E'L                                                           095  LM00117
                      T'H LOOP3, FOR J=0,1,J.G.6                                    096  LM00118
 00701 CLA +0 50000 0 00313    00702 STO +0 60100 0 00060    00703 TRA +0 02000 0 00707    00704 CLA +0 50000 0 00060
 00705 ADD +0 40000 0 00314    00706 STO +0 60100 0 00060    00707 CLA +0 50000 0 00060    00710 SUB +0 40200 0 00321
 00711 TZE +0 10000 0 00713    00712 TPL +0 12000 0 00722
                           HSAVE(J) = DRAIN(432-J)                                  097  LM00119
 00713 CLA +0 50000 0 00326    00714 SUB +0 40200 0 00060    00715 LXA +0 53400 1 00060    00716 PAX +0 73400 2 00000
 00717 CLA +0 50000 2 74476    00720 STO +0 60100 1 00056
      LOOP3           C'E                                                           098  LM00120
 00721 TRA +0 02000 0 00704
                      PRNTP.(MESS11)                                                099  LM00122
 00722 TSX +0 07400 4 00015    00723 TXH +3 00000 0 00110
                      F'N UNIT                                                      100  LM00123
 00724 CLA +0 50000 0 67663    00725 TRA +0 02000 0 01215
      NOTAPE          PRNTP.(MESS2)                                                 101  LM00127
 00726 TSX +0 07400 4 00015    00727 TXH +3 00000 0 00204
                      TABLE(I+2) = 0                                                102  LM00128
 00730 CLA +0 50000 0 00057    00731 ADD +0 40000 0 00315    00732 PAX +0 73400 1 00000    00733 CLA +0 50000 0 00313
 00734 STO +0 60100 1 77461
                      T'O LOOP1                                                     103  LM00129
 00735 TRA +0 02000 0 00030
      ERR             PRNTER.                                                       104  LM00131
 00736 TSX +0 07400 4 00014
                      PRNTP.(MESS10)                                                105  LM00132
 00737 TSX +0 07400 4 00015    00740 TXH +3 00000 0 00102
                      CLOSE.(D,T,LOOP1)                                             106  LM00133
 00741 TSX +0 07400 4 00005    00742 TXH +3 00000 0 67662    00743 TXH +3 00000 0 67661    00744 TXH +3 00000 0 00030
                      T'O LOOP1                                                     107  LM00134
 00745 TRA +0 02000 0 00030
      REOF            CLOSE.(D,T,TRBL1)                                             108  LM00136
 00746 TSX +0 07400 4 00005    00747 TXH +3 00000 0 67662    00750 TXH +3 00000 0 67661    00751 TXH +3 00000 0 00042
                      T'O TRBL1                                                     109  LM00137
 00752 TRA +0 02000 0 00042
      TRBL       W'R ERCODE.E.7                                                     110  LM00141
 00753 CLA +0 50000 0 00045    00754 SUB +0 40200 0 00322    00755 TNZ -0 10000 0 00767
      TRBL1                PRNTP.(MESS3)                                            111  LM00142
 00756 TSX +0 07400 4 00015    00757 TXH +3 00000 0 00215
      TRBL2                UMOUNT.(UNIT,MESS4(8)...8,MLABL,ERCODE)                  112  LM00143
 00760 TSX +0 07400 4 00020    00761 TXH +3 00000 0 67663    00762 TIX +2 00323 0 00216    00763 TXH +3 00000 0 00032
 00764 TXH +3 00000 0 00045
                           T'O MLABL                                                113  LM00144
 00765 TRA +0 02000 0 00032
                      O'E                                                           114  LM00145
 00766 TRA +0 02000 0 00776
                           PRNTP.(MESS9)                                            115  LM00146
 00767 TSX +0 07400 4 00015    00770 TXH +3 00000 0 00301
                           TABLE(I+2) = 0                                           116  LM00147
 00771 CLA +0 50000 0 00057    00772 ADD +0 40000 0 00315    00773 PAX +0 73400 1 00000    00774 CLA +0 50000 0 00313
 00775 STO +0 60100 1 77461
                      E'L                                                           117  LM00148
      LOOP1      C'E                                                                118  LM00150
 00776 TRA +0 02000 0 00346
                 F'N 0                                                              119  LM00152
 00777 CLA +0 50000 0 00313    01000 TRA +0 02000 0 01215
                 E'O NEWTAP.                                                        120  LM00158
 01001 TRA +0 02000 0 01004    01002 SXA +0 63400 2 01211    01003 TSX +0 07400 2 01211
                 ATTNAM.(V(2)...2)                                                  121  LM00162
 01004 TSX +0 07400 4 00001    01005 TIX +2 00315 0 00310
                 ATTACH.(HPROB,HPROG)                                               122  LM00163
 01006 TSX +0 07400 4 00000    01007 TXH +3 00000 0 67650    01010 TXH +3 00000 0 67647
                 CLOSE.(D,T,NERR1)                                                  123  LM00164
 01011 TSX +0 07400 4 00005    01012 TXH +3 00000 0 67662    01013 TXH +3 00000 0 67661    01014 TXH +3 00000 0 00033
      NERR1      CLEAR.(D,T)                                                        124  LM00165
 01015 TSX +0 07400 4 00004    01016 TXH +3 00000 0 67662    01017 TXH +3 00000 0 67661
                 TAPFIL.(D,T,UNIT,1,ERR1)                                           125  LM00166
 01020 TSX +0 07400 4 00017    01021 TXH +3 00000 0 67662    01022 TXH +3 00000 0 67661    01023 TXH +3 00000 0 67663
 01024 TXH +3 00000 0 00314    01025 TXH +3 00000 0 00025
                 UMOUNT.(UNIT,MESS12(7)...7,ERR1,ERCODE)                            126  LM00167
 01026 TSX +0 07400 4 00020    01027 TXH +3 00000 0 67663    01030 TIX +2 00322 0 00111    01031 TXH +3 00000 0 00025
 01032 TXH +3 00000 0 00045
                 REELNO = REELNO + 1                                                127  LM00171
 01033 CLA +0 50000 0 67640    01034 ADD +0 40000 0 00314    01035 STO +0 60100 0 67640
                 MESS13(5) = BZEL.(DERBC.(REELNO+1))                                128  LM00172
 01036 CLA +0 50000 0 67640    01037 ADD +0 40000 0 00314    01040 STO +0 60100 0 01221    01041 TSX +0 07400 4 00010
 01042 TXH +3 00000 0 01221    01043 STO +0 60100 0 01221    01044 TSX +0 07400 4 00003    01045 TXH +3 00000 0 01221
 01046 STO +0 60100 0 00125
                 MESS14(1) = MESS13(5)                                              129  LM00173
 01047 CLA +0 50000 0 00125    01050 STO +0 60100 0 00142
                 PRNTP.(MESS13)                                                     130  LM00174
 01051 TSX +0 07400 4 00015    01052 TXH +3 00000 0 00132
      AGAIN      MOUNT.(MZE,UNIT,MESS14(8)...8,ERR1)                                131  LM00176
 01053 TSX +0 07400 4 00012    01054 TXH +3 00000 0 67660    01055 TXH +3 00000 0 67663    01056 TIX +2 00323 0 00133
 01057 TXH +3 00000 0 00025
                 VERIFY.(UNIT,LABL(UNIT4)...4,ERR1,ERCODE)                          132  LM00177
 01060 CLA +0 50000 0 00307    01061 SUB +0 40200 0 01062    01062 TXH +3 00000 0 00075    01063 STA +0 62100 0 01066
 01064 TSX +0 07400 4 00021    01065 TXH +3 00000 0 67663    01066 TIX +2 00317 0 00000    01067 TXH +3 00000 0 00025
 01070 TXH +3 00000 0 00045
                 OPEN.($R$,D,T,-0,3,ERR2)                                           133  LM00181
 01071 CLS +0 50200 0 00313    01072 STO +0 60100 0 01221    01073 TSX +0 07400 4 00013    01074 TXH +3 00000 0 00331
 01075 TXH +3 00000 0 67662    01076 TXH +3 00000 0 67661    01077 TXH +3 00000 0 01221    01100 TXH +3 00000 0 00316
 01101 TXH +3 00000 0 00026
                 BUFFER.(D,T,BUFF1(432)...432)                                      134  LM00182
 01102 TSX +0 07400 4 00002    01103 TXH +3 00000 0 67662    01104 TXH +3 00000 0 67661    01105 TIX +2 00326 0 75375
                 RDWAIT.(D,T,0,DRAIN(432)...432,NREOF,DRAIN,ERR2)                   135  LM00183
 01106 TSX +0 07400 4 00016    01107 TXH +3 00000 0 67662    01110 TXH +3 00000 0 67661    01111 TXH +3 00000 0 00313
 01112 TIX +2 00326 0 73616    01113 TXH +3 00000 0 00036    01114 TXH +3 00000 0 74476    01115 TXH +3 00000 0 00026
                 T'H LOOP4, FOR J=0,1,J.G.6                                         136  LM00184
 01116 CLA +0 50000 0 00313    01117 STO +0 60100 0 00060    01120 TRA +0 02000 0 01124    01121 CLA +0 50000 0 00060
 01122 ADD +0 40000 0 00314    01123 STO +0 60100 0 00060    01124 CLA +0 50000 0 00060    01125 SUB +0 40200 0 00321
 01126 TZE +0 10000 0 01130    01127 TPL +0 12000 0 01141
                      W'R HSAVE(J) .NE. DRAIN(432-J), T'O OHNO                      137  LM00185
 01130 CLA +0 50000 0 00326    01131 SUB +0 40200 0 00060    01132 LXA +0 53400 1 00060    01133 PAX +0 73400 2 00000
 01134 CLA +0 50000 1 00056    01135 SUB +0 40200 2 74476    01136 TZE +0 10000 0 01140    01137 TRA +0 02000 0 00040
      LOOP4      C'E                                                                138  LM00186
 01140 TRA +0 02000 0 01121
                 W'R REELNO .NE. DRAIN(HREEL)                                       139  LM00190
 01141 LXA +0 53400 2 00047    01142 CLA +0 50000 0 67640    01143 SUB +0 40200 2 74476    01144 TZE +0 10000 0 01161
      OHNO            PRNTP.(MESS15)                                                140  LM00191
 01145 TSX +0 07400 4 00015    01146 TXH +3 00000 0 00157
                      CLOSE.(D,T,ERR1)                                              141  LM00192
 01147 TSX +0 07400 4 00005    01150 TXH +3 00000 0 67662    01151 TXH +3 00000 0 67661    01152 TXH +3 00000 0 00025
                      UMOUNT.(UNIT,MESS16(5)...5,ERR1,ERCODE)                       142  LM00193
 01153 TSX +0 07400 4 00020    01154 TXH +3 00000 0 67663    01155 TIX +2 00320 0 00160    01156 TXH +3 00000 0 00025
 01157 TXH +3 00000 0 00045
                      T'O AGAIN                                                     143  LM00194
 01160 TRA +0 02000 0 00023
                 E'L                                                                144  LM00195
                 PRNTP.(MESS11)                                                     145  LM00199
 01161 TSX +0 07400 4 00015    01162 TXH +3 00000 0 00110
                 ATTACH.(V(2),V(1))                                                 146  LM00200
 01163 TSX +0 07400 4 00000    01164 TXH +3 00000 0 00310    01165 TXH +3 00000 0 00311
                 F'N UNIT                                                           147  LM00201
 01166 CLA +0 50000 0 67663    01167 TRA +0 02000 0 01215
      ERR2       PRNTER.                                                            148  LM00203
 01170 TSX +0 07400 4 00014
      NREOF      CLOSE.(D,T,NERR2)                                                  149  LM00204
 01171 TSX +0 07400 4 00005    01172 TXH +3 00000 0 67662    01173 TXH +3 00000 0 67661    01174 TXH +3 00000 0 00034
      NERR2      PRNTP.(MESS10)                                                     150  LM00205
 01175 TSX +0 07400 4 00015    01176 TXH +3 00000 0 00102
                 T'O AWAY                                                           151  LM00206
 01177 TRA +0 02000 0 00024
      ERR1       PRNTER.                                                            152  LM00210
 01200 TSX +0 07400 4 00014
                 PRNTP.(MESS9)                                                      153  LM00211
 01201 TSX +0 07400 4 00015    01202 TXH +3 00000 0 00301
      AWAY       ATTACH.(V(2),V(1))                                                 154  LM00212
 01203 TSX +0 07400 4 00000    01204 TXH +3 00000 0 00310    01205 TXH +3 00000 0 00311
                 F'N 0                                                              155  LM00213
 01206 CLA +0 50000 0 00313    01207 TRA +0 02000 0 01215
                 E'N                                                                156  LM00215
 01210 TSX +0 07400 4 00011    01211 TXH +3 00000 0 00000    01212 SXD -0 63400 1 01211    01213 SXA +0 63400 4 01215
 01214 TRA +0 02000 2 00001    01215 AXT +0 77400 4 00000    01216 LXA +0 53400 2 01211    01217 LXD -0 53400 1 01211
 01220 TRA +0 02000 4 00001


DECIDE   BCD 04/29/67 2209.9   10128         00000
1     MAD PROGRAM LISTING ... ... ...                 FILE  DECIDE   MAD            04/29/67    2140.0
-
                      TEST CURRENT TAPE FILE FOR UTILITY                                               LM00001
                           D.R. WIDRIG  DEC. 1965                                                      LM00002
                                                                                                       LM00003
                  EXTERNAL FUNCTION (V,X,Y,Z)                                                     *001 LM00004
                  INSERT FILE COM                                                                 *002 LM00005
                                                                                                  *002 LM00001
                  NORMAL MODE IS INTEGER                                                          *003 LM00002
                  BOOLEAN SWT.                                                                    *004 LM00003
                                                                                                       LM00004
                  DIMENSION TABLE(210),BUFF(432),BUFF1(432),BUFF2(432)                            *005 LM00005
                  DIMENSION HEADER(12),UFD(7),DRAIN(432),LODTAB(2000)                             *006 LM00006
                  EQUIVALENCE (PB,HEADER(12)),(PG,HEADER(11)),(DND,HEADER(8)),                    *007 LM00007
                1      (WC,HEADER(2)),(LRCT,HEADER(1))                                            *007 LM00008
                  PROGRAM COMMON TABLE,BUFF,BUFF1,BUFF2                                           *008 LM00009
                  PROGRAM COMMON HEADER,DRAIN,UFD,LODTAB                                          *009 LM00010
                  PROGRAM COMMON AINDEX,UNIT,D,T,MZE,TFUDG,FENCE,USERF,ILEDI,PRIV                 *010 LM00011
                  PROGRAM COMMON TABLIM,LPREAM,HPROB,HPROG,CURPTR,AUTHOR,LINDEX                   *011 LM00012
                  PROGRAM COMMON LODLIM,SYSTEM,DAEMON,REELNO,TSKLTH                               *012 LM00013
                                                                                                       LM00014
                  VECTOR VALUES FENCE = 777777777777K                                             *013 LM00015
                  VECTOR VALUES MZE = 4K11                                                        *014 LM00016
                  VECTOR VALUES TFUDG = 1800                                                      *015 LM00017
                  VECTOR VALUES TABLIM = 200                                                      *016 LM00018
                  VECTOR VALUES LODLIM = 2000                                                     *017 LM00019
                  VECTOR VALUES LPREAM = 12                                                       *018 LM00020
                  VECTOR VALUES TSKLTH = 11                                                       *019 LM00021
                                                                                                       LM00022
                  VECTOR VALUES SYSTEM = $ C0056$                                                 *020 LM00023
                  VECTOR VALUES DAEMON = $ 99999$                                                 *021 LM00024
                  VECTOR VALUES D = $(DUMP)$                                                      *022 LM00025
                  VECTOR VALUES T = $(TAPE)$                                                      *023 LM00026
                  VECTOR VALUES USERF = $USER F$                                                  *024 LM00027
                  VECTOR VALUES ILEDI = $ILE DI$                                                  *025 LM00028
                  DIMENSION HEDER2(12)                                                            *026 LM00029
                  PROGRAM COMMON HEDER2                                                           *027 LM00030
                                                                                                       LM00031
                  STATEMENT LABEL X,Y                                                             *028 LM00006
                  BOOLEAN Z                                                                       *029 LM00007
                                                                                                       LM00008
                  VECTOR VALUES MESS1 = $ FILE $,0,575757575760K,0,$ IS PRIVATE$,                 *030 LM00009
                1      777777777777K                                                              *030 LM00010
                  VECTOR VALUES MESS2 = $ FILE $,0,575757575760K,0,                               *031 LM00011
                1      $ ALREADY EXISTS FOR $,0,575757575760K,                                    *031 LM00012
                2      0,777777777777K                                                            *031 LM00013
                                                                                                       LM00014
                  DIMENSION U(7)                                                                  *032 LM00015
                                                                                                       LM00016
                      DECIDE IF A FILE IS USEFUL                                                       LM00017
                      IF THE FILE CONTAINED IN UFD ENTRY U(7)...U(1)                                   LM00018
                      IS TO BE LOADED OR EXAMINED, TRANSFER TO 'X'                                     LM00019
                      IF NOT, TRANSFER TO 'Y'                                                          LM00020
                      SWITCH 'Z' CONTROLS A 'QUIET' DECISION                                           LM00021
                                                                                                       LM00022
                  ENTRY TO DECIDE.                                                                *033 LM00023
                                                                                                       LM00024
                      SHORTEN UP LINKAGE                                                               LM00025
                                                                                                       LM00026
                  THROUGH LOOP0, FOR I=3,1,(I.G.7)                                                *034 LM00027
                       U(I) = V(I)                                                                *035 LM00028
      LOOP0       CONTINUE                                                                        *036 LM00029
                                                                                                       LM00030
                      MAKE QUICK TEST                                                                  LM00031
                                                                                                       LM00032
                  WHENEVER (LINDEX.GE.LODLIM).OR.((LRCT.RS.18).NE.1)                              *037 LM00033
                1      .OR.((U(7).E.0).AND.(U(6).E.0)), TRANSFER TO Y                             *037 LM00034
                                                                                                       LM00035
                      CHECK GENERAL QUALIFICATIONS                                                     LM00036
                                                                                                       LM00037
                  TND = DND.A.777777K                                                             *038 LM00038
                  THROUGH LOOP1, FOR I = 0,TSKLTH,(I .GE. AINDEX)                                 *039 LM00039
                       WHENEVER TABLE(I+2).E.0, TRANSFER TO LOOP1                                 *040 LM00040
                       WHENEVER (TABLE(I).NE.PB).OR.(TABLE(I+1).NE.PG).OR.                        *041 LM00041
                1           ((U(7).NE.USERF).AND.(TABLE(I+4).NE.FENCE).AND.                       *041 LM00042
                2           (TABLE(I+4).NE.U(7))).OR.((U(6).NE.ILEDI).AND.                        *041 LM00043
                3           (TABLE(I+5).NE.FENCE).AND.(TABLE(I+5).NE.U(6)))                       *041 LM00044
                4           .OR.((UNIT+1).NE.TABLE(I+9))                                          *041 LM00045
                            TRANSFER TO LOOP1                                                     *042 LM00046
                       OR WHENEVER (TABLE(I+7).NE.0)                                              *043 LM00047
                            WHENEVER (TABLE(I+8).E.0).OR.(TABLE(I+8).E.FENCE)                     *044 LM00048
                                 WHENEVER ((TND.G.TABLE(I+7)).OR.                                 *045 LM00049
                1                (TABLE(I+7)-TND).L.TFUDG)                                        *045 LM00050
                                      TRANSFER TO FIND                                            *046 LM00051
                                 OTHERWISE                                                        *047 LM00052
                                      TRANSFER TO LOOP1                                           *048 LM00053
                                 END OF CONDITIONAL                                               *049 LM00054
                            OTHERWISE                                                             *050 LM00055
                                 WHENEVER ((TND.G.TABLE(I+7)).OR.                                 *051 LM00056
                1                ((TABLE(I+7)-TND).L.TFUDG)).AND.                                 *051 LM00057
                2                ((TND.L.TABLE(I+8)).OR.                                          *051 LM00058
                3                ((TND-TABLE(I+8)).L.TFUDG))                                      *051 LM00059
                                      TRANSFER TO FIND                                            *052 LM00060
                                 OTHERWISE                                                        *053 LM00061
                                      TRANSFER TO LOOP1                                           *054 LM00062
                                 END OF CONDITIONAL                                               *055 LM00063
                            END OF CONDITIONAL                                                    *056 LM00064
                       OTHERWISE                                                                  *057 LM00065
                            WHENEVER (TABLE(I+8).E.0)                                             *058 LM00066
                                 TRANSFER TO FIND                                                 *059 LM00067
                            OR WHENEVER (TABLE(I+8).E.FENCE)                                      *060 LM00068
                                 TRANSFER TO FIND                                                 *061 LM00069
                            OR WHENEVER ((TND.L.TABLE(I+8)).OR.                                   *062 LM00070
                1                ((TND-TABLE(I+8)).L.TFUDG))                                      *062 LM00071
                                 TRANSFER TO FIND                                                 *063 LM00072
                            END OF CONDITIONAL                                                    *064 LM00073
                       END OF CONDITIONAL                                                         *065 LM00074
                       TRANSFER TO LOOP1                                                          *066 LM00075
                                                                                                       LM00076
                      FOUND ONE, CHECK  FOR PRIVATE MODE, ETC.                                         LM00077
                                                                                                       LM00078
      FIND             DEVICE = (U(3).RS.15).A.7K                                                 *067 LM00079
                       MODE = (U(3).RS.28)                                                        *068 LM00080
                                                                                                       LM00081
                      SKIP MODE TEST IF LINKED FILE                                                    LM00082
                                                                                                       LM00083
                       WHENEVER (DEVICE .E. 0)                                                    *069 LM00084
                            TRANSFER TO TEST                                                      *070 LM00085
                       OR WHENEVER ((MODE.A.020K).NE.0).AND.                                      *071 LM00086
                1      ((U(4).A.777777K).NE.BCDEC.(TABLE(I+3))).AND.(PRIV.E.2)                    *071 LM00087
                            MESS1(1) = U(7)                                                       *072 LM00088
                            MESS1(3) = U(6)                                                       *073 LM00089
                            PRNTP.(MESS1)                                                         *074 LM00090
                            MAIL.(TABLE(I+2),TABLE(I+3),MESS1,1B)                                 *075 LM00091
      TOOBAD                WHENEVER (TABLE(I+4).NE.FENCE).AND.                                   *076 LM00092
                1                (TABLE(I+5).NE.FENCE), TABLE(I+2) = 0                            *076 LM00093
                            TRANSFER TO LOOP1                                                     *077 LM00094
                       OTHERWISE                                                                  *078 LM00095
                                                                                                       LM00096
                      CHECK FOR FILE ALREADY EXISTING                                                  LM00097
                                                                                                       LM00098
      TEST                  ATTACH.(TABLE(I+2),TABLE(I+3),ERR1)                                   *079 LM00099
                            FSTATE.(U(7),U(6),DRAIN(2)...2,ABSENT,ERCODE)                         *080 LM00100
                                                                                                       LM00101
                      FILE EXISTS, CHECK FOR ''REMOVED'' FILE                                          LM00102
                                                                                                       LM00103
                            WHENEVER ((DRAIN(1).A.202K).NE.0), TRANSFER TO NOFILE                 *081 LM00104
                            TRANSFER TO EXISTS                                                    *082 LM00105
                                                                                                       LM00106
                      ERROR RETURN FROM FSTATE, CHECK IT                                               LM00107
                                                                                                       LM00108
      ABSENT                WHENEVER (ERCODE.NE.4).AND.(ERCODE.NE.5),                             *083 LM00109
                1                TRANSFER TO NOFILE                                               *083 LM00110
                                                                                                       LM00111
                      FILE ALREADY EXISTS, INVESTIGATE                                                 LM00112
                                                                                                       LM00113
      EXISTS                WHENEVER (TABLE(I+10).E.0)                                            *084 LM00114
                               WHENEVER Z                                                         *085 LM00115
      NASTY                      MESS2(1) = U(7)                                                  *086 LM00116
                                 MESS2(3) = U(6)                                                  *087 LM00117
                                 MESS2(8) = TABLE(I+2)                                            *088 LM00118
                                 MESS2(10) = TABLE(I+3)                                           *089 LM00119
                                      PRNTP.(MESS2)                                               *090 LM00120
                                      MAIL.(TABLE(I+2),TABLE(I+3),MESS2,1B)                       *091 LM00121
                                 END OF CONDITIONAL                                               *092 LM00122
                                 TRANSFER TO TOOBAD                                               *093 LM00123
                            END OF CONDITIONAL                                                    *094 LM00124
                                                                                                       LM00125
                      EXISTS, BUT WE DID IT (MAYBE)                                                    LM00126
                                                                                                       LM00127
                            THROUGH LOOPT, FOR J=0,4,J.GE.LINDEX                                  *095 LM00128
                                 WHENEVER (LODTAB(J).E.I).AND.(LODTAB(J+1).E.U(7))                *096 LM00129
                1                .AND.(LODTAB(J+2).E.U(6)), TRANSFER TO US                        *096 LM00130
      LOOPT                 CONTINUE                                                              *097 LM00131
                            TRANSFER TO NASTY                                                     *098 LM00132
                                                                                                       LM00133
                      WE'VE LOADED THIS ONE, ARE MORE NEEDED                                           LM00134
                                                                                                       LM00135
      US                    WHENEVER TABLE(I+8) .E. FENCE                                         *099 LM00136
                                 TRANSFER TO NOFILE                                               *100 LM00137
                            OTHERWISE                                                             *101 LM00138
                                 TRANSFER TO LOOP1                                                *102 LM00139
                            END OF CONDITIONAL                                                    *103 LM00140
                       END OF CONDITIONAL                                                         *104 LM00141
                                                                                                       LM00142
                      EVERYTHING OK, SET UP RECEIVING DIRECTORY                                        LM00143
                      DON'T RESET PB,PG ON UFD FILES                                                   LM00144
                                                                                                       LM00145
      NOFILE           WHENEVER (HEADER(7).NE.USERF).OR.(HEADER(6).NE.ILEDI)                      *105 LM00146
                            PB = TABLE(I+2)                                                       *106 LM00147
                            PG = TABLE(I+3)                                                       *107 LM00148
                       END OF CONDITIONAL                                                         *108 LM00149
                       CURPTR = I                                                                 *109 LM00150
                       TRANSFER TO X                                                              *110 LM00151
                                                                                                       LM00152
      ERR1             PRNTER.                                                                    *111 LM00153
                                                                                                       LM00154
      LOOP1       CONTINUE                                                                        *112 LM00155
                                                                                                       LM00156
                  TRANSFER TO Y                                                                   *113 LM00157
                                                                                                       LM00158
                  END OF FUNCTION                                                                 *114 LM00159
1MAD PROGRAM,TYPE NOV 1963      (ALL NUMBERS ARE OCTAL)
0TOTAL LOCATIONS   01003 TRANSFER VECTOR LENGTH  00007 PROGRAM BEGINS    00104 FIRST UNUSED COMMON/ERASABLE  67621
0 PROGRAM IS AN EXTERNAL FUNCTION.   THE FOLLOWING ARE ENTRIES
      DECIDE 00105   0
0VARIABLE STORAGE (A=ARRAY,C=COMMON,E=ERASABLE,DIGIT=MODE)
      ABSENT 00010   4        ERCODE 00023   1        LINDEX 67644  C1        MZE    67660 AC1        TFUDG  67657 AC1
      AINDEX 67664  C1        ERR1   00011   4        LODLIM 67643 AC1        NASTY  00015   4        TND    00052   1
      AUTHOR 67645  C1        EXISTS 00012   4        LODTAB 73605 AC1        NOFILE 00016   4        TOOBAD 00020   4
      BUFF1  76255 AC1        FENCE  67656 AC1        LOOP0  00007   4        PB     74477  C1        T      67661 AC1
      BUFF2  75374 AC1        FIND   00013   4        LOOP1  00014   4        PG     74500  C1        TSKLTH 67637 AC1
      BUFF   77136 AC1        HEADER 74513 AC1        LOOPT  00007   4        PRIV   67653  C1        UFD    73615 AC1
      CURPTR 67646  C1        HEDER2 67636 AC1        LPREAM 67651 AC1        REELNO 67640  C1        UNIT   67663  C1
      DAEMON 67641 AC1        HPROB  67650  C1        LRCT   74512  C1        SYSTEM 67642 AC1        U      00062 A 1
      DEVICE 00022   1        HPROG  67647  C1        MESS1  00034 A 1        TABLE  77461 AC1        USERF  67655 AC1
      DND    74503  C1        ILEDI  67654 AC1        MESS2  00050 A 1        TABLIM 67652 AC1        US     00021   4
      DRAIN  74476 AC1        I      00024   1        MODE   00051   1        TEST   00017   4        WC     74511  C1
      D      67662 AC1        J      00025   1
0FUNCTION DICTIONARY
      ATTACH 00000   1        BCDEC  00001   1        EXIT   00002   1        FSTATE 00003   1        MAIL   00004   1
      PRNTER 00005   1        PRNTP  00006   1
0ABSOLUTE CONSTANTS
 00074 +000000000012     00101 +000000000202     00076 +000000000020     00100 +000000000034     00075 +000000000017
 00072 +000000000010     00067 +000000000004     00070 +000000000005     00073 +000000000011     00065 +000000000002
 00102 +000000777777     00077 +000000000022     00063 +000000000000     00071 +000000000007     00066 +000000000003
 00064 +000000000001     00103 +233000000000
0STATEMENT DICTIONARY
 00010 TXL -300611000602       00011 TXL -300753000752       00012 TXL -300617000611       00013 TXL -300435000427
 00014 TXL -300754000753       00015 TXL -300623000621       00016 TXL -300735000727       00017 TXL -300564000546
 00020 TXL -300544000523       00021 TXL -300724000716
0PROGRAM
                 EXTERNAL FUNCTION (V,X,Y,Z)                                        001  LM00004
                 I'E COM                                                            002  LM00005
                 N'R                                                                003  LM00002
                 B'N SWT.                                                           004  LM00003
                 D'N TABLE(210),BUFF(432),BUFF1(432),BUFF2(432)                     005  LM00005
                 D'N HEADER(12),UFD(7),DRAIN(432),LODTAB(2000)                      006  LM00006
                 E'E (PB,HEADER(12)),(PG,HEADER(11)),(DND,HEADER(8)),               007  LM00007
                1     (WC,HEADER(2)),(LRCT,HEADER(1))                               007  LM00008
                 P'N TABLE,BUFF,BUFF1,BUFF2                                         008  LM00009
                 P'N HEADER,DRAIN,UFD,LODTAB                                        009  LM00010
                 P'N AINDEX,UNIT,D,T,MZE,TFUDG,FENCE,USERF,ILEDI,PRIV               010  LM00011
                 P'N TABLIM,LPREAM,HPROB,HPROG,CURPTR,AUTHOR,LINDEX                 011  LM00012
                 P'N LODLIM,SYSTEM,DAEMON,REELNO,TSKLTH                             012  LM00013
                 V'S FENCE = 777777777777K                                          013  LM00015
 67656     -3 77777 7 77777
                 V'S MZE = 4K11                                                     014  LM00016
 67660     -0 00000 0 00000
                 V'S TFUDG = 1800                                                   015  LM00017
 67657     +0 00000 0 03410
                 V'S TABLIM = 200                                                   016  LM00018
 67652     +0 00000 0 00310
                 V'S LODLIM = 2000                                                  017  LM00019
 67643     +0 00000 0 03720
                 V'S LPREAM = 12                                                    018  LM00020
 67651     +0 00000 0 00014
                 V'S TSKLTH = 11                                                    019  LM00021
 67637     +0 00000 0 00013
                 V'S SYSTEM = $ C0056$                                              020  LM00023
 67642     -2 02300 0 00506
                 V'S DAEMON = $ 99999$                                              021  LM00024
 67641     -2 01111 1 11111
                 V'S D = $(DUMP)$                                                   022  LM00025
 67662     -3 42464 4 44734
                 V'S T = $(TAPE)$                                                   023  LM00026
 67661     -3 46321 4 72534
                 V'S USERF = $USER F$                                               024  LM00027
 67655     -2 46225 5 16026
                 V'S ILEDI = $ILE DI$                                               025  LM00028
 67654     +3 14325 6 02431
                 DIMENSION HEDER2(12)                                               026  LM00029
                 P'N HEDER2                                                         027  LM00030
                 S'L X,Y                                                            028  LM00006
                 B'N Z                                                              029  LM00007
                 V'S MESS1 = $ FILE $,0,575757575760K,0,$ IS PRIVATE$,              030  LM00009
                1     777777777777K                                                 030  LM00010
 00026     -3 77777 7 77777    00027     +3 16521 6 32560    00030     -2 03162 6 04751    00031     +0 00000 0 00000
 00032     -1 75757 5 75760    00033     +0 00000 0 00000    00034     -2 02631 4 32560
                 V'S MESS2 = $ FILE $,0,575757575760K,0,                            031  LM00011
                1     $ ALREADY EXISTS FOR $,0,575757575760K,                       031  LM00012
                2     0,777777777777K                                               031  LM00013
 00035     -3 77777 7 77777    00036     +0 00000 0 00000    00037     -1 75757 5 75760    00040     +0 00000 0 00000
 00041     -1 16060 6 06060    00042     -2 26362 6 02646    00043     +2 47060 2 56731    00044     -2 02143 5 12521
 00045     +0 00000 0 00000    00046     -1 75757 5 75760    00047     +0 00000 0 00000    00050     -2 02631 4 32560
                 D'N U(7)                                                           032  LM00015
                 E'O DECIDE.                                                        033  LM00023
 00104 TRA +0 02000 0 00107    00105 SXA +0 63400 2 00756    00106 TSX +0 07400 2 00756
                 T'H LOOP0, FOR I=3,1,(I.G.7)                                       034  LM00027
 00107 CLA +0 50000 0 00066    00110 STO +0 60100 0 00024    00111 TRA +0 02000 0 00115    00112 CLA +0 50000 0 00024
 00113 ADD +0 40000 0 00064    00114 STO +0 60100 0 00024    00115 CLA +0 50000 0 00024    00116 SUB +0 40200 0 00071
 00117 TZE +0 10000 0 00121    00120 TPL +0 12000 0 00126
                      U(I) = V(I)                                                   035  LM00028
 00121 LXA +0 53400 1 00024    00122 LXA +0 53400 2 00024    00123 CLA +0 50000 2 00000    00124 STO +0 60100 1 00062
      LOOP0      C'E                                                                036  LM00029
 00125 TRA +0 02000 0 00112
                 W'R (LINDEX.GE.LODLIM).OR.((LRCT.RS.18).NE.1)                      037  LM00033
                1     .OR.((U(7).E.0).AND.(U(6).E.0)), T'O Y                        037  LM00034
 00126 CLA +0 50000 0 00054    00127 SUB +0 40200 0 00063    00130 TNZ -0 10000 0 00134    00131 CLA +0 50000 0 00053
 00132 SUB +0 40200 0 00063    00133 TZE +0 10000 0 00150    00134 CAL -0 50000 0 00077    00135 STA +0 62100 0 00137
 00136 CAL -0 50000 0 74512    00137 LGR -0 76500 0 00000    00140 SLW +0 60200 0 00777    00141 CLA +0 50000 0 00777
 00142 SUB +0 40200 0 00064    00143 TNZ -0 10000 0 00150    00144 CLA +0 50000 0 67644    00145 SUB +0 40200 0 67643
 00146 TZE +0 10000 0 00150    00147 TMI -0 12000 0 00151    00150 TRA +0 02000 0 00000
                 TND = DND.A.777777K                                                038  LM00038
 00151 CAL -0 50000 0 74503    00152 ANA -0 32000 0 00102    00153 SLW +0 60200 0 00052
                 T'H LOOP1, FOR I = 0,TSKLTH,(I .GE. AINDEX)                        039  LM00039
 00154 CLA +0 50000 0 00063    00155 STO +0 60100 0 00024    00156 TRA +0 02000 0 00162    00157 CLA +0 50000 0 00024
 00160 ADD +0 40000 0 67637    00161 STO +0 60100 0 00024    00162 CLA +0 50000 0 00024    00163 SUB +0 40200 0 67664
 00164 TZE +0 10000 0 00754    00165 TPL +0 12000 0 00754
                      W'R TABLE(I+2).E.0, T'O LOOP1                                 040  LM00040
 00166 CLA +0 50000 0 00024    00167 ADD +0 40000 0 00065    00170 PAX +0 73400 1 00000    00171 CLA +0 50000 1 77461
 00172 SUB +0 40200 0 00063    00173 TNZ -0 10000 0 00175    00174 TRA +0 02000 0 00014
                      W'R (TABLE(I).NE.PB).OR.(TABLE(I+1).NE.PG).OR.                041  LM00041
                1          ((U(7).NE.USERF).AND.(TABLE(I+4).NE.FENCE).AND.          041  LM00042
                2          (TABLE(I+4).NE.U(7))).OR.((U(6).NE.ILEDI).AND.           041  LM00043
                3          (TABLE(I+5).NE.FENCE).AND.(TABLE(I+5).NE.U(6)))          041  LM00044
                4          .OR.((UNIT+1).NE.TABLE(I+9))                             041  LM00045
 00175 CLA +0 50000 0 00024    00176 ADD +0 40000 0 00073    00177 STO +0 60100 0 00777    00200 CLA +0 50000 0 67663
 00201 ADD +0 40000 0 00064    00202 LXA +0 53400 2 00777    00203 SUB +0 40200 2 77461    00204 TNZ -0 10000 0 00255
 00205 CLA +0 50000 0 00024    00206 ADD +0 40000 0 00070    00207 PAX +0 73400 1 00000    00210 CLA +0 50000 1 77461
 00211 SUB +0 40200 0 00054    00212 TZE +0 10000 0 00224    00213 CLA +0 50000 0 00024    00214 ADD +0 40000 0 00070
 00215 PAX +0 73400 1 00000    00216 CLA +0 50000 1 77461    00217 SUB +0 40200 0 67656    00220 TZE +0 10000 0 00224
 00221 CLA +0 50000 0 00054    00222 SUB +0 40200 0 67654    00223 TNZ -0 10000 0 00255    00224 CLA +0 50000 0 00024
 00225 ADD +0 40000 0 00067    00226 PAX +0 73400 1 00000    00227 CLA +0 50000 1 77461    00230 SUB +0 40200 0 00053
 00231 TZE +0 10000 0 00243    00232 CLA +0 50000 0 00024    00233 ADD +0 40000 0 00067    00234 PAX +0 73400 1 00000
 00235 CLA +0 50000 1 77461    00236 SUB +0 40200 0 67656    00237 TZE +0 10000 0 00243    00240 CLA +0 50000 0 00053
 00241 SUB +0 40200 0 67655    00242 TNZ -0 10000 0 00255    00243 CLA +0 50000 0 00024    00244 ADD +0 40000 0 00064
 00245 PAX +0 73400 1 00000    00246 CLA +0 50000 1 77461    00247 SUB +0 40200 0 74500    00250 TNZ -0 10000 0 00255
 00251 LXA +0 53400 1 00024    00252 CLA +0 50000 1 77461    00253 SUB +0 40200 0 74477    00254 TZE +0 10000 0 00257
                           T'O LOOP1                                                042  LM00046
 00255 TRA +0 02000 0 00014
                      O'R (TABLE(I+7).NE.0)                                         043  LM00047
 00256 TRA +0 02000 0 00426    00257 CLA +0 50000 0 00024    00260 ADD +0 40000 0 00071    00261 PAX +0 73400 1 00000
 00262 CLA +0 50000 1 77461    00263 SUB +0 40200 0 00063    00264 TZE +0 10000 0 00366
                           W'R (TABLE(I+8).E.0).OR.(TABLE(I+8).E.FENCE)             044  LM00048
 00265 CLA +0 50000 0 00024    00266 ADD +0 40000 0 00072    00267 PAX +0 73400 1 00000    00270 CLA +0 50000 1 77461
 00271 SUB +0 40200 0 67656    00272 TZE +0 10000 0 00301    00273 CLA +0 50000 0 00024    00274 ADD +0 40000 0 00072
 00275 PAX +0 73400 1 00000    00276 CLA +0 50000 1 77461    00277 SUB +0 40200 0 00063    00300 TNZ -0 10000 0 00324
                                W'R ((TND.G.TABLE(I+7)).OR.                         045  LM00049
                1               (TABLE(I+7)-TND).L.TFUDG)                           045  LM00050
 00301 CLA +0 50000 0 00024    00302 ADD +0 40000 0 00071    00303 PAX +0 73400 1 00000    00304 CLA +0 50000 1 77461
 00305 SUB +0 40200 0 00052    00306 SUB +0 40200 0 67657    00307 TZE +0 10000 0 00311    00310 TMI -0 12000 0 00320
 00311 CLA +0 50000 0 00024    00312 ADD +0 40000 0 00071    00313 PAX +0 73400 2 00000    00314 CLA +0 50000 0 00052
 00315 SUB +0 40200 2 77461    00316 TZE +0 10000 0 00322    00317 TMI -0 12000 0 00322
                                     T'O FIND                                       046  LM00051
 00320 TRA +0 02000 0 00013
                                O'E                                                 047  LM00052
 00321 TRA +0 02000 0 00323
                                     T'O LOOP1                                      048  LM00053
 00322 TRA +0 02000 0 00014
                                E'L                                                 049  LM00054
                           O'E                                                      050  LM00055
 00323 TRA +0 02000 0 00365
                                W'R ((TND.G.TABLE(I+7)).OR.                         051  LM00056
                1               ((TABLE(I+7)-TND).L.TFUDG)).AND.                    051  LM00057
                2               ((TND.L.TABLE(I+8)).OR.                             051  LM00058
                3               ((TND-TABLE(I+8)).L.TFUDG))                         051  LM00059
 00324 CLA +0 50000 0 00024    00325 ADD +0 40000 0 00072    00326 PAX +0 73400 2 00000    00327 CLA +0 50000 0 00052
 00330 SUB +0 40200 2 77461    00331 SUB +0 40200 0 67657    00332 TZE +0 10000 0 00334    00333 TMI -0 12000 0 00343
 00334 CLA +0 50000 0 00024    00335 ADD +0 40000 0 00072    00336 PAX +0 73400 2 00000    00337 CLA +0 50000 0 00052
 00340 SUB +0 40200 2 77461    00341 TZE +0 10000 0 00364    00342 TPL +0 12000 0 00364    00343 CLA +0 50000 0 00024
 00344 ADD +0 40000 0 00071    00345 PAX +0 73400 1 00000    00346 CLA +0 50000 1 77461    00347 SUB +0 40200 0 00052
 00350 SUB +0 40200 0 67657    00351 TZE +0 10000 0 00353    00352 TMI -0 12000 0 00362    00353 CLA +0 50000 0 00024
 00354 ADD +0 40000 0 00071    00355 PAX +0 73400 2 00000    00356 CLA +0 50000 0 00052    00357 SUB +0 40200 2 77461
 00360 TZE +0 10000 0 00364    00361 TMI -0 12000 0 00364
                                     T'O FIND                                       052  LM00060
 00362 TRA +0 02000 0 00013
                                O'E                                                 053  LM00061
 00363 TRA +0 02000 0 00365
                                     T'O LOOP1                                      054  LM00062
 00364 TRA +0 02000 0 00014
                                E'L                                                 055  LM00063
                           E'L                                                      056  LM00064
                      O'E                                                           057  LM00065
 00365 TRA +0 02000 0 00426
                           W'R (TABLE(I+8).E.0)                                     058  LM00066
 00366 CLA +0 50000 0 00024    00367 ADD +0 40000 0 00072    00370 PAX +0 73400 1 00000    00371 CLA +0 50000 1 77461
 00372 SUB +0 40200 0 00063    00373 TNZ -0 10000 0 00376
                                T'O FIND                                            059  LM00067
 00374 TRA +0 02000 0 00013
                           O'R (TABLE(I+8).E.FENCE)                                 060  LM00068
 00375 TRA +0 02000 0 00426    00376 CLA +0 50000 0 00024    00377 ADD +0 40000 0 00072    00400 PAX +0 73400 1 00000
 00401 CLA +0 50000 1 77461    00402 SUB +0 40200 0 67656    00403 TNZ -0 10000 0 00406
                                T'O FIND                                            061  LM00069
 00404 TRA +0 02000 0 00013
                           O'R ((TND.L.TABLE(I+8)).OR.                              062  LM00070
                1               ((TND-TABLE(I+8)).L.TFUDG))                         062  LM00071
 00405 TRA +0 02000 0 00426    00406 CLA +0 50000 0 00024    00407 ADD +0 40000 0 00072    00410 PAX +0 73400 2 00000
 00411 CLA +0 50000 0 00052    00412 SUB +0 40200 2 77461    00413 SUB +0 40200 0 67657    00414 TZE +0 10000 0 00416
 00415 TMI -0 12000 0 00425    00416 CLA +0 50000 0 00024    00417 ADD +0 40000 0 00072    00420 PAX +0 73400 2 00000
 00421 CLA +0 50000 0 00052    00422 SUB +0 40200 2 77461    00423 TZE +0 10000 0 00426    00424 TPL +0 12000 0 00426
                                T'O FIND                                            063  LM00072
 00425 TRA +0 02000 0 00013
                           E'L                                                      064  LM00073
                      E'L                                                           065  LM00074
                      T'O LOOP1                                                     066  LM00075
 00426 TRA +0 02000 0 00014
      FIND            DEVICE = (U(3).RS.15).A.7K                                    067  LM00079
 00427 CAL -0 50000 0 00075    00430 STA +0 62100 0 00432    00431 CAL -0 50000 0 00057    00432 LGR -0 76500 0 00000
 00433 ANA -0 32000 0 00071    00434 SLW +0 60200 0 00022
                      MODE = (U(3).RS.28)                                           068  LM00080
 00435 CAL -0 50000 0 00100    00436 STA +0 62100 0 00440    00437 CAL -0 50000 0 00057    00440 LGR -0 76500 0 00000
 00441 SLW +0 60200 0 00051
                      W'R (DEVICE .E. 0)                                            069  LM00084
 00442 CLA +0 50000 0 00022    00443 SUB +0 40200 0 00063    00444 TNZ -0 10000 0 00447
                           T'O TEST                                                 070  LM00085
 00445 TRA +0 02000 0 00017
                      O'R ((MODE.A.020K).NE.0).AND.                                 071  LM00086
                1     ((U(4).A.777777K).NE.BCDEC.(TABLE(I+3))).AND.(PRIV.E.2)       071  LM00087
 00446 TRA +0 02000 0 00727    00447 CLA +0 50000 0 67653    00450 SUB +0 40200 0 00065    00451 TNZ -0 10000 0 00546
 00452 CLA +0 50000 0 00024    00453 ADD +0 40000 0 00066    00454 SUB +0 40200 0 00455    00455 TXH +3 00000 0 77461
 00456 STA +0 62100 0 00460    00457 TSX +0 07400 4 00001    00460 TXH +3 00000 0 00000    00461 STO +0 60100 0 00777
 00462 CAL -0 50000 0 00056    00463 ANA -0 32000 0 00102    00464 SLW +0 60200 0 01000    00465 CLA +0 50000 0 01000
 00466 SUB +0 40200 0 00777    00467 TZE +0 10000 0 00546    00470 CAL -0 50000 0 00051    00471 ANA -0 32000 0 00076
 00472 SLW +0 60200 0 01000    00473 CLA +0 50000 0 01000    00474 SUB +0 40200 0 00063    00475 TZE +0 10000 0 00546
                           MESS1(1) = U(7)                                          072  LM00088
 00476 CLA +0 50000 0 00053    00477 STO +0 60100 0 00033
                           MESS1(3) = U(6)                                          073  LM00089
 00500 CLA +0 50000 0 00054    00501 STO +0 60100 0 00031
                           PRNTP.(MESS1)                                            074  LM00090
 00502 TSX +0 07400 4 00006    00503 TXH +3 00000 0 00034
                           MAIL.(TABLE(I+2),TABLE(I+3),MESS1,1B)                    075  LM00091
 00504 CLA +0 50000 0 00024    00505 ADD +0 40000 0 00066    00506 SUB +0 40200 0 00507    00507 TXH +3 00000 0 77461
 00510 STA +0 62100 0 00520    00511 CLA +0 50000 0 00024    00512 ADD +0 40000 0 00065    00513 SUB +0 40200 0 00514
 00514 TXH +3 00000 0 77461    00515 STA +0 62100 0 00517    00516 TSX +0 07400 4 00004    00517 TXH +3 00000 0 00000
 00520 TXH +3 00000 0 00000    00521 TXH +3 00000 0 00034    00522 TXH +3 00000 0 00064
      TOOBAD               W'R (TABLE(I+4).NE.FENCE).AND.                           076  LM00092
                1               (TABLE(I+5).NE.FENCE), TABLE(I+2) = 0               076  LM00093
 00523 CLA +0 50000 0 00024    00524 ADD +0 40000 0 00070    00525 PAX +0 73400 1 00000    00526 CLA +0 50000 1 77461
 00527 SUB +0 40200 0 67656    00530 TZE +0 10000 0 00544    00531 CLA +0 50000 0 00024    00532 ADD +0 40000 0 00067
 00533 PAX +0 73400 1 00000    00534 CLA +0 50000 1 77461    00535 SUB +0 40200 0 67656    00536 TZE +0 10000 0 00544
 00537 CLA +0 50000 0 00024    00540 ADD +0 40000 0 00065    00541 PAX +0 73400 1 00000    00542 CLA +0 50000 0 00063
 00543 STO +0 60100 1 77461
                           T'O LOOP1                                                077  LM00094
 00544 TRA +0 02000 0 00014
                      O'E                                                           078  LM00095
 00545 TRA +0 02000 0 00727
      TEST                 ATTACH.(TABLE(I+2),TABLE(I+3),ERR1)                      079  LM00099
 00546 CLA +0 50000 0 00024    00547 ADD +0 40000 0 00066    00550 SUB +0 40200 0 00551    00551 TXH +3 00000 0 77461
 00552 STA +0 62100 0 00562    00553 CLA +0 50000 0 00024    00554 ADD +0 40000 0 00065    00555 SUB +0 40200 0 00556
 00556 TXH +3 00000 0 77461    00557 STA +0 62100 0 00561    00560 TSX +0 07400 4 00000    00561 TXH +3 00000 0 00000
 00562 TXH +3 00000 0 00000    00563 TXH +3 00000 0 00011
                           FSTATE.(U(7),U(6),DRAIN(2)...2,ABSENT,ERCODE)            080  LM00100
 00564 TSX +0 07400 4 00003    00565 TXH +3 00000 0 00053    00566 TXH +3 00000 0 00054    00567 TIX +2 00065 0 74474
 00570 TXH +3 00000 0 00010    00571 TXH +3 00000 0 00023
                           W'R ((DRAIN(1).A.202K).NE.0), T'O NOFILE                 081  LM00104
 00572 CAL -0 50000 0 74475    00573 ANA -0 32000 0 00101    00574 SLW +0 60200 0 01000    00575 CLA +0 50000 0 01000
 00576 SUB +0 40200 0 00063    00577 TZE +0 10000 0 00601    00600 TRA +0 02000 0 00016
                           T'O EXISTS                                               082  LM00105
 00601 TRA +0 02000 0 00012
      ABSENT               W'R (ERCODE.NE.4).AND.(ERCODE.NE.5),                     083  LM00109
                1               T'O NOFILE                                          083  LM00110
 00602 CLA +0 50000 0 00023    00603 SUB +0 40200 0 00070    00604 TZE +0 10000 0 00611    00605 CLA +0 50000 0 00023
 00606 SUB +0 40200 0 00067    00607 TZE +0 10000 0 00611    00610 TRA +0 02000 0 00016
      EXISTS               W'R (TABLE(I+10).E.0)                                    084  LM00114
 00611 CLA +0 50000 0 00024    00612 ADD +0 40000 0 00074    00613 PAX +0 73400 1 00000    00614 CLA +0 50000 1 77461
 00615 SUB +0 40200 0 00063    00616 TNZ -0 10000 0 00661
                              W'R Z                                                 085  LM00115
 00617 NZT -0 52000 0 00000    00620 TRA +0 02000 0 00660
      NASTY                     MESS2(1) = U(7)                                     086  LM00116
 00621 CLA +0 50000 0 00053    00622 STO +0 60100 0 00047
                                MESS2(3) = U(6)                                     087  LM00117
 00623 CLA +0 50000 0 00054    00624 STO +0 60100 0 00045
                                MESS2(8) = TABLE(I+2)                               088  LM00118
 00625 CLA +0 50000 0 00024    00626 ADD +0 40000 0 00065    00627 PAX +0 73400 2 00000    00630 CLA +0 50000 2 77461
 00631 STO +0 60100 0 00040
                                MESS2(10) = TABLE(I+3)                              089  LM00119
 00632 CLA +0 50000 0 00024    00633 ADD +0 40000 0 00066    00634 PAX +0 73400 2 00000    00635 CLA +0 50000 2 77461
 00636 STO +0 60100 0 00036
                                     PRNTP.(MESS2)                                  090  LM00120
 00637 TSX +0 07400 4 00006    00640 TXH +3 00000 0 00050
                                     MAIL.(TABLE(I+2),TABLE(I+3),MESS2,1B)          091  LM00121
 00641 CLA +0 50000 0 00024    00642 ADD +0 40000 0 00066    00643 SUB +0 40200 0 00644    00644 TXH +3 00000 0 77461
 00645 STA +0 62100 0 00655    00646 CLA +0 50000 0 00024    00647 ADD +0 40000 0 00065    00650 SUB +0 40200 0 00651
 00651 TXH +3 00000 0 77461    00652 STA +0 62100 0 00654    00653 TSX +0 07400 4 00004    00654 TXH +3 00000 0 00000
 00655 TXH +3 00000 0 00000    00656 TXH +3 00000 0 00050    00657 TXH +3 00000 0 00064
                                E'L                                                 092  LM00122
                                T'O TOOBAD                                          093  LM00123
 00660 TRA +0 02000 0 00020
                           E'L                                                      094  LM00124
                           T'H LOOPT, FOR J=0,4,J.GE.LINDEX                         095  LM00128
 00661 CLA +0 50000 0 00063    00662 STO +0 60100 0 00025    00663 TRA +0 02000 0 00667    00664 CLA +0 50000 0 00025
 00665 ADD +0 40000 0 00067    00666 STO +0 60100 0 00025    00667 CLA +0 50000 0 00025    00670 SUB +0 40200 0 67644
 00671 TZE +0 10000 0 00715    00672 TPL +0 12000 0 00715
                                W'R (LODTAB(J).E.I).AND.(LODTAB(J+1).E.U(7))        096  LM00129
                1               .AND.(LODTAB(J+2).E.U(6)), T'O US                   096  LM00130
 00673 CLA +0 50000 0 00025    00674 ADD +0 40000 0 00065    00675 PAX +0 73400 1 00000    00676 CLA +0 50000 1 73605
 00677 SUB +0 40200 0 00054    00700 TNZ -0 10000 0 00714    00701 CLA +0 50000 0 00025    00702 ADD +0 40000 0 00064
 00703 PAX +0 73400 1 00000    00704 CLA +0 50000 1 73605    00705 SUB +0 40200 0 00053    00706 TNZ -0 10000 0 00714
 00707 LXA +0 53400 1 00025    00710 CLA +0 50000 1 73605    00711 SUB +0 40200 0 00024    00712 TNZ -0 10000 0 00714
 00713 TRA +0 02000 0 00021
      LOOPT                C'E                                                      097  LM00131
 00714 TRA +0 02000 0 00664
                           T'O NASTY                                                098  LM00132
 00715 TRA +0 02000 0 00015
      US                   W'R TABLE(I+8) .E. FENCE                                 099  LM00136
 00716 CLA +0 50000 0 00024    00717 ADD +0 40000 0 00072    00720 PAX +0 73400 1 00000    00721 CLA +0 50000 1 77461
 00722 SUB +0 40200 0 67656    00723 TNZ -0 10000 0 00726
                                T'O NOFILE                                          100  LM00137
 00724 TRA +0 02000 0 00016
                           O'E                                                      101  LM00138
 00725 TRA +0 02000 0 00727
                                T'O LOOP1                                           102  LM00139
 00726 TRA +0 02000 0 00014
                           E'L                                                      103  LM00140
                      E'L                                                           104  LM00141
      NOFILE          W'R (HEADER(7).NE.USERF).OR.(HEADER(6).NE.ILEDI)              105  LM00146
 00727 CLA +0 50000 0 74505    00730 SUB +0 40200 0 67654    00731 TNZ -0 10000 0 00735    00732 CLA +0 50000 0 74504
 00733 SUB +0 40200 0 67655    00734 TZE +0 10000 0 00747
                           PB = TABLE(I+2)                                          106  LM00147
 00735 CLA +0 50000 0 00024    00736 ADD +0 40000 0 00065    00737 PAX +0 73400 2 00000    00740 CLA +0 50000 2 77461
 00741 STO +0 60100 0 74477
                           PG = TABLE(I+3)                                          107  LM00148
 00742 CLA +0 50000 0 00024    00743 ADD +0 40000 0 00066    00744 PAX +0 73400 2 00000    00745 CLA +0 50000 2 77461
 00746 STO +0 60100 0 74500
                      E'L                                                           108  LM00149
                      CURPTR = I                                                    109  LM00150
 00747 CLA +0 50000 0 00024    00750 STO +0 60100 0 67646
                      T'O X                                                         110  LM00151
 00751 TRA +0 02000 0 00000
      ERR1            PRNTER.                                                       111  LM00153
 00752 TSX +0 07400 4 00005
      LOOP1      C'E                                                                112  LM00155
 00753 TRA +0 02000 0 00157
                 T'O Y                                                              113  LM00157
 00754 TRA +0 02000 0 00000
                 E'N                                                                114  LM00159
 00755 TSX +0 07400 4 00002    00756 TXH +3 00000 0 00000    00757 SXD -0 63400 1 00756    00760 SXA +0 63400 4 00773
 00761 CLA +0 50000 4 00001    00762 STA +0 62100 0 00123    00763 CLA +0 50000 4 00002    00764 STA +0 62100 0 00751
 00765 CLA +0 50000 4 00003    00766 STA +0 62100 0 00150    00767 STA +0 62100 0 00754    00770 CLA +0 50000 4 00004
 00771 STA +0 62100 0 00617    00772 TRA +0 02000 2 00001    00773 AXT +0 77400 4 00000    00774 LXA +0 53400 2 00756
 00775 LXD -0 53400 1 00756    00776 TRA +0 02000 4 00001


 CKUFD   BCD 04/29/67 2209.9    6886         00000
