1            GET OPERATOR SIGNALS AND REFER TO CORE A...M.J.BAILEY,2/28/65       05/11/69 2013.7 PAGE 1

                              *
                       00011         ENTRY   GETA
                       00012         ENTRY   NGETA
                       00111         ENTRY   GDSIG
                              *
                                     EXTERN  GETLOC,SETLOC,WRFLX
                                     EXTERN  CHNCOM,SLEEP,ATTACH
                                     INSERT  DMCRSA
                              *
                              *      MACRO TO WRITE N WORDS FROM ARRAY ET SEQ ONTO ALREADY OPENED
                              *      SECONDARY STORAGE FILE (NAME1,NAME2) AND WAIT UNTIL TRANSMITTED.
                              *
                               WSSF  MACRO   ARRAY,N,NAME1,NAME2
                                     TSX     ATTACH,4      RE-ATTACH TO DUMPER'S FILES
                                     TXH     DMPUSR
                                     TXH     DMPRGR
                                     TSX     WRFILE,4      WRITE
                                     TXH     NAME1         ONTO (NAME1,
                                     TXH     NAME2         NAME2)
                                     TXH     =0            AT POSITION WHERE LAST CEASED
                                     TIX     ARRAY,,N      FROM ARRAY THROUGH ARRAY+N-1
                                     TSX     FWAIT,4       WAIT
                                     TXH     NAME1
                                     TXH     NAME2
                               WSSF  END
                              *
                              *  ZERO-IZE A THROUGH A+X-1
                              *
                               CLEAR MACRO   A,X
                                     AXT     X,1
                                     STZ     A+X,1
                                     TIX     *-1,1,1
                               CLEAR END
                              *
                              *      MOVE X WORDS FROM A ET SEQ TO B ET SEQ
                              *
                               MOVE  MACRO   X,A,B
                                     AXT     X,1
                                     CAL     A+X,1
                                     SLW     B+X,1
                                     TIX     *-2,1,1
                               MOVE  END
                              *
                              *      PRINT ONE LINE, CLEAR BUFFER
                              *
                              PRBUFF MACRO   BUFF,NWDS
                                     SXA     *+3,4
                                     TSX     WRFLX,4
                                             BUFF,,NWDS
                                     AXT     **,4
                                     CLEAR   BUFF,NWDS
                              PRBUFF END
                              *
                              *      PRINT STANDARD BEGINNING TO DUMPER ERROR MESSAGE
                              *
                              BGNERM MACRO   TYPE
1            GET OPERATOR SIGNALS AND REFER TO CORE A...M.J.BAILEY,2/28/65       05/11/69 2013.7 PAGE 2

                                     SXA     *+3,4
                                     TSX     $BERM,4
                                     PZE     TYPE
                                     AXT     **,4
                              BGNERM END
                              *
                              *  PRINT ONE LINE COMMENT
                              *
                              PRLINE MACRO   COMNT,NWC,N,WORD1,WORD2,LOC
                                     IFF     0,NWC,0
                                     MOVE    NWC,LOC,PBF
                                     IFF     N-2,N,1
                                     CAL     WORD1
                                     IFF     N-2,N,1
                                     SLW     PBF+NWC
                                     IFF     1,N,2
                                     CAL     WORD2
                                     IFF     1,N,2
                                     SLW     PBF+NWC+1
                                     PRBUFF  PBF,NWC+N
                                     RMT
                               LOC   BCI     NWC,COMNT
                                     RMT
                              PRLINE END
                              *
                              *      PRINT ONE LINE MESSAGE
                              *
                              PRMESS MACRO   MESNAM,N,ADR1,ADR2
                                     TSX     $PRLINE,4
                                     BCI     1,MESNAM
                                     IFF     N,N,N
                                     TXH     ADR1
                                     IFF     N,N,N
                                     TXH     ADR2
                              PRMESS END
                              *
                              *      MACRO TO OPEN FILE (X,Y) OF USER (A,B) FOR READING
                              *      AND ASSIGN BUFFER F OF LENGTH L TO I/O SYSTEM FOR THAT PURPOSE.
                              *        ( ERR IS TRANSFER ADDRESS FOR ERROR RETURN )
                              *
                              RDOPEN MACRO   X,Y,A,B,F,L,ERR
                                     TSX     ATTACH,4      ATTACH TO USER (A,B)
                                     TXH     A
                                     TXH     B
                                     TSX     OPEN,4        OPEN FILE (X,Y) FOR READING
                                     TXH     R
                                     TXH     X
                                     TXH     Y
                                     TXH     =0
                                     TXH     =0
                                     TXH     ERR           (TRANSFER ADDRESS FOR ERROR)
                                     TSX     BUFFER,4      ASSIGN L WORDS OF BUFFER F TO (X,Y)
                                     TXH     X
                                     TXH     Y
                                     TIX     F,,L
                              RDOPEN END
1            GET OPERATOR SIGNALS AND REFER TO CORE A...M.J.BAILEY,2/28/65       05/11/69 2013.7 PAGE 3

                              *
                              *      PRINT ERROR CODE, END MESSAGE
                              *
                                ERTN MACRO   ADRERR
                                     SXA     *+2,4
                                     TSX     $ERREND,4
                                     AXT     **,4
                                     TRA     ADRERR
                                ERTN END
                              *
                              *      ASK OPERATOR TO SET KEY CODE DC IF HE WANTS
                              *      ACTION GIVEN BY N-WORD MESSAGE M
                              *
                              PRCODE MACRO   DC,M,N
                                     TSX     $PRCODE,4
                                     TXH     DC
                                     TXH     M,,N
                              PRCODE END
                              *
                              *      TEST LAST KEY SETTING VIA SUPERVISOR, GO TO JUMP IF IT IS CODE
                              *
                              TESTKY MACRO   CODE,JUMP
                                     TSX     $NGETA,7
                                     LDQ     DEMKEY
                                     STQ     KEYVAL
                                     AXT     CODE,1
                                     PXA     0,1
                                     SUB     KEYVAL
                                     TZE     JUMP
                              TESTKY END
                              *
                              *      SET UP LOGICAL TAPE RECORD WRITING
                              *
                              LOGREC MACRO   X
                                     CLA     LTPBF
                                     SUB     =12
                                     STO     TEMP
                                     CAL     X+4
                                     ANA     =O77777
                                     STO     RCOUNT
                                     TSX     $NLREC,4
                                     TXH     NORECS
                                     TXH     RCOUNT
                                     TXH     LCOUNT
                                     TXH     TEMP
                                     TXH     =12
                                     TXH     PHYSRC
                                     TXH     NFLR
                                     TXH     NLAST
                              LOGREC END
                              *
                              *
                              ATTACH MACRO   A,B
                                     TSX     ATTACH,4
                                     TXH     A
                                     TXH     B
1            GET OPERATOR SIGNALS AND REFER TO CORE A...M.J.BAILEY,2/28/65       05/11/69 2013.7 PAGE 4

                              ATTACH END
                              *
                              *      PRINT ERROR MESSAGE AND INTERROGATE KEYS
                              *
                              PRERR  MACRO
                                     TSX     $PRNTER,4
                                     TSX     $GDSIG,4
                              PRERR  END
                              *
                              *
                              *

        TRANSFER VECTOR
      00000  272563434623     GETLOC
      00001  622563434623     SETLOC
      00002  665126436760     WRFLX
      00003  233045234644     CHNCOM
      00004  624325254760     SLEEP
      00005  216363212330     ATTACH
      00006  475123462425     PRCODE

            LINKAGE DIRECTOR
      00007  000000000000
      00010  272563216060

      00011  0600 00 0 00074  GETA   STZ     NINDC
      00012 -0600 00 0 00077  NGETA  STQ     TMPMQ
      00013  0601 00 0 00076         STO     TMPAC
      00014  0602 00 0 00100         SLW     TMPACL
      00015  0634 00 4 00070         SXA     NGX4,4
      00016  0634 00 7 00067         SXA     NGX7,7
      00017  0604 00 0 00073         STI     INDIC
      00020  0441 00 7 00001         LDI     1,7
      00021  0520 00 0 00074         ZET     NINDC
      00022  0020 00 0 00036         TRA     GETL          DON'T COMPUTE EFFECTIVE ADDRESS
      00023 -0625 00 0 00074         STL     NINDC
      00024 -0046 00 0 00000         PIA
      00025  0074 00 7 00101  CKRL1  TSX     GETEFA,7      GET EFFECTIVE ADDRESS
      00026 -0056 00  000060         LNT     60            IS THERE INDIRECT ADDRESS
      00027  0020 00 0 00034         TRA     CKRL2         NO
      00030 -0057 00  000077         RIL     77            TURN OFF INDIRECT ADDRESS BITS
      00031  0737 00 7 00000         PAC     0,7
      00032 -0500 00 7 00000         CAL     0,7
      00033  0020 00 0 00025         TRA     CKRL1         COMPUTE FINAL ADDRESS
      00034  0057 00  777777  CKRL2  RIR     777777        FINAL ADDRESS IN AC NOW
      00035  0043 00 0 00000         OAI                   OP CODE IN INDICATOR
      00036 -0046 00 0 00000  GETL   PIA                   INSTRUCTION IN AC
      00037  0621 00 0 00062         STA     GA2
      00040  0621 00 0 00045         STA     GA            SET ADDRESS TO GET FROM CORE A
      00041  0622 00 0 00054         STD     XGA           SET OP CODE OF INSTRUCTION
      00042  0630 00 0 00054         STP     XGA
      00043  0625 00 0 00054         STT     XGA
      00044  0074 00 4 00000         TSX     GETLOC,4
      00045  0 00000 0 00000  GA     PZE     **
      00046  0602 00 0 00075         SLW     GTMP          WORD FROM CORE A INTO GTMP
      00047 -0500 00 0 00100         CAL     TMPACL
1            GET OPERATOR SIGNALS AND REFER TO CORE A...M.J.BAILEY,2/28/65       05/11/69 2013.7 PAGE 5

      00050  0560 00 0 00076         LDQ     TMPAC
      00051  0763 00 0 00000         LLS     0
      00052  0560 00 0 00077         LDQ     TMPMQ
      00053  0441 00 0 00073         LDI     INDIC
      00054  0 00000 0 00075  XGA    ***     GTMP          EXECUTE INSTRUCTION
      00055  0441 00 0 00054         LDI     XGA
      00056 -0056 00  060000         LNT     060000        IS THIS A STORE-TYPE INSTRUCTION
      00057  0020 00 0 00067         TRA     NGX7          NO
      00060 -0500 00 0 00075         CAL     GTMP
      00061  0074 00 4 00001         TSX     SETLOC,4
      00062  0 00000 0 00000  GA2    PZE     **
      00063 -0500 00 0 00100         CAL     TMPACL
      00064  0560 00 0 00076         LDQ     TMPAC
      00065  0763 00 0 00000         LLS     0
      00066  0560 00 0 00077         LDQ     TMPMQ
      00067  0774 00 7 00000  NGX7   AXT     **,7
      00070  0774 00 4 00000  NGX4   AXT     **,4
      00071  0441 00 0 00073         LDI     INDIC
      00072  0020 00 7 00002         TRA     2,7
      00073  0 00000 0 00000  INDIC  PZE     0
      00074 +000000777777     NINDC  OCT     777777
      00075  0 00000 0 00000  GTMP   PZE     0
      00076  0 00000 0 00000  TMPAC  PZE     0
      00077  0 00000 0 00000  TMPMQ  PZE     0
      00100  0 00000 0 00000  TMPACL PZE     0
      00101  0634 00 7 00107  GETEFA SXA     GETF7,7
      00102  0625 00 0 00104         STT     *+2           TAG
      00103  0734 00 7 00000         PAX     ,7            PTR
      00104 -0636 00 0 00105         SCD     *+1,**        -C(TAG)
      00105  1 00000 7 00106         TXI     *+1,7,**      PTH-C(TAG)
      00106  0754 00 7 00000         PXA     ,7            INTO AC
      00107  0774 00 7 00000  GETF7  AXT     **,7
      00110  0020 00 7 00001         TRA     1,7
                              *
                              *      PICK UP OPERATOR SIGNALS TO DUMPER FROM KEYS, AND
                              *      IF ANY, SET SWITCHES ACCORDINGLY.
                              *
      00111  0634 00 7 00300  GDSIG  SXA     GX7,7
      00112  0634 00 4 00301         SXA     GX4,4
      00113  0634 00 1 00302         SXA     GX1,1
      00114 -0500 00 0 00363         CAL     =1
      00115 -0602 00 0 00327         ORS     SS
      00116  0760 00 0 00004         ENK
      00117 -0130 00 0 00000         XCL
      00120 -0501 00 0 00371         ORA     =O70000
      00121  0322 00 0 00372         ERA     =O015002070177
      00122  0100 00 0 00126         TZE     SETC
      00123 -0500 00 0 00327         CAL     SS
      00124  0322 00 0 00363         ERA     =1
      00125  0602 00 0 00327         SLW     SS
      00126 -0500 00 0 00327  SETC   CAL     SS
      00127  0100 00 0 00167         TZE     NOKEY
      00130  0402 00 0 00364         SUB     =2
      00131  0100 00 0 00146         TZE     RSALL
      00132  0020 00 0 00146         TRA     RSALL
      00133 -0500 00 0 00327         CAL     SS
1            GET OPERATOR SIGNALS AND REFER TO CORE A...M.J.BAILEY,2/28/65       05/11/69 2013.7 PAGE 6

      00134  0402 00 0 00363         SUB     =1
      00135  0100 00 0 00150         TZE     PATCH
      00136  0402 00 0 00365         SUB     =3
      00137  0100 00 0 00143         TZE     SETS2
      00140  0402 00 0 00365         SUB     =3
      00141  0100 00 0 00160         TZE     UNPTCH
      00142  0020 00 0 00167         TRA     NOKEY
      00143 -0500 00 0 00364  SETS2  CAL     =2
      00144 -0602 00 0 00327         ORS     SS
      00145  0020 00 0 00167         TRA     NOKEY
      00146  0600 00 0 00327  RSALL  STZ     SS
      00147  0020 00 0 00167         TRA     NOKEY
      00150  0074 00 7 00011  PATCH  TSX     GETA,7
      00151 -0500 00 1 76111         CAL     RCODE+N,1
      00152  0602 00 0 00330         SLW     OLDCOD
      00153 -0501 00 0 00370         ORA     =O177
      00154  0074 00 7 00011         TSX     GETA,7
      00155  0602 00 1 76111         SLW     RCODE+N,1
      00156 -0500 00 0 00366         CAL     =4
      00157  0020 00 0 00144         TRA     SETS2+1
      00160 -0500 00 0 00330  UNPTCH CAL     OLDCOD
      00161  0074 00 7 00011         TSX     GETA,7
      00162  0602 00 1 76111         SLW     RCODE+N,1
      00163 -0500 00 0 00327         CAL     SS
      00164 -0501 00 0 00366         ORA     =4
      00165  0322 00 0 00366         ERA     =4
      00166  0602 00 0 00327         SLW     SS
      00167  0074 00 7 00012  NOKEY  TSX     NGETA,7
      00170  0560 00 0 74446         LDQ     DEMKEY
      00171 -0600 00 0 77461         STQ     KEYVAL
      00172  0774 00 1 00010         AXT     INT,1
      00173  0754 00 1 00000         PXA     0,1
      00174  0402 00 0 77461         SUB     KEYVAL
      00175 -0100 00 0 00242         TNZ     GSB2
      00176                          PRLINE  ( DAEMON INTERRUPT),3,0
      00211  0074 00 7 00012         TSX     NGETA,7
      00212  0600 00 0 74446         STZ     DEMKEY
      00213  0074 00 4 00006         TSX     $PRCODE,4
      00214  3 00000 0 00010         PAR     INT
      00215  3 00004 0 00323         PAR     MELLG,,4
      00216 -0500 00 0 00367         CAL     =30
      00217  0074 00 4 00004         TSX     SLEEP,4
      00220  0074 00 7 00012         TSX     NGETA,7
      00221  0560 00 0 74446         LDQ     DEMKEY
      00222 -0600 00 0 77461         STQ     KEYVAL
      00223  0774 00 1 00010         AXT     INT,1
      00224  0754 00 1 00000         PXA     ,1
      00225  0402 00 0 77461         SUB     KEYVAL
      00226  0100 00 0 00304         TZE     CHAIN
      00227                          PRLINE  ( INT. IGNORED),3,0
      00242  0774 00 1 00005  GSB2   AXT     ENFLSH,1      CODE TO ENTER FLUSH MODE
      00243  0754 00 1 00000         PXA     0,1
      00244  0402 00 0 77461         SUB     KEYVAL
      00245 -0100 00 0 00254         TNZ     GSB
      00246  0500 00 0 77460         CLA     FLSHSW
      00247 -0100 00 0 00300         TNZ     GX7           SKIP IF ALREADY IN FLUSH MODE
1            GET OPERATOR SIGNALS AND REFER TO CORE A...M.J.BAILEY,2/28/65       05/11/69 2013.7 PAGE 7

      00250  0074 00 4 00002         TSX     WRFLX,4
      00251  0 00005 0 00336                 MESB,,5
      00252 -0625 00 0 77460         STL     FLSHSW
      00253  0020 00 0 00300         TRA     GX7           EXIT HAVING SET FLSHSW IF CODE SET
      00254  0774 00 1 00006  GSB    AXT     LVFLSH,1      CODE TO LEAVE FLUSH MODE
      00255  0754 00 1 00000         PXA     0,1
      00256  0402 00 0 77461         SUB     KEYVAL
      00257 -0100 00 0 00266         TNZ     GSA           SKIP TO CHECK NEXT CODE
      00260  0500 00 0 77460         CLA     FLSHSW
      00261  0100 00 0 00300         TZE     GX7           SKIP IF NOT IN FLUSH MODE
      00262  0074 00 4 00002         TSX     WRFLX,4
      00263  0 00005 0 00331                 MESA,,5
      00264  0600 00 0 77460         STZ     FLSHSW
      00265  0020 00 0 00300         TRA     GX7           EXIT
                              *
      00266  0774 00 1 00007  GSA    AXT     ENDTAP,1      CODE TO TERMINATE TAPE FILE
      00267  0754 00 1 00000         PXA     0,1
      00270  0402 00 0 77461         SUB     KEYVAL
      00271 -0100 00 0 00300         TNZ     GX7
      00272  0500 00 0 77457         CLA     ENTPSW
      00273 -0100 00 0 00300         TNZ     GX7           SKIP IF SIGNAL ALREADY DETECTED
      00274  0074 00 4 00002         TSX     WRFLX,4
      00275  0 00011 0 00343                 MESC,,9
      00276  0500 00 0 00276         CLA     *
      00277  0601 00 0 77457         STO     ENTPSW        SET ENTPSW NON-ZERO IF CODE SET
                              *
      00300  0774 00 7 00000  GX7    AXT     **,7
      00301  0774 00 4 00000  GX4    AXT     **,4
      00302  0774 00 1 00000  GX1    AXT     **,1
      00303  0020 00 4 00001         TRA     1,4
                              *
      00304                   CHAIN  PRLINE  ( QUIT.),1,0
      00317  0074 00 4 00005         TSX     ATTACH,4
      00320  3 00000 0 62727         PAR     DU
      00321  3 00000 0 62726         PAR     DP
      00322  0074 00 4 00003         TSX     CHNCOM,4
                              *
      00323  606346605125     MELLG  BCI     4, TO RESET THE DAEMON.
      00324  622563606330
      00325  256024212544
      00326  464533606060
                              *
                              *
      00327  0 00000 0 00000  SS     PZE
      00330  0 00000 0 00000  OLDCOD PZE
      00331  602421254446     MESA   BCI     5, DAEMON LEAVING FLUSH MODE.
      00332  456043252165
      00333  314527602643
      00334  646230604446
      00335  242533606060
      00336  602421254446     MESB   BCI     5, DAEMON ENTERING FLUSH MODE.
      00337  456025456325
      00340  513145276026
      00341  436462306044
      00342  462425336060
      00343  604525666026     MESC   BCI     9, NEW FILE DUMP TAPE WILL BE TERMINATED, AS REQUESTED.
1            GET OPERATOR SIGNALS AND REFER TO CORE A...M.J.BAILEY,2/28/65       05/11/69 2013.7 PAGE 8

      00344  314325602464
      00345  444760632147
      00346  256066314343
      00347  602225606325
      00350  514431452163
      00351  252473602162
      00352  605125506425
      00353  626325243360
                              *
                                     INSERT  DCMEQB
                              *
                              *  .  .  .  .  .  .  .  .  .  .  .  .  .  .  .  .  .  .
                              *    COMMON AND EQUIVALENCE FOR GENERAL DUMP PROGRAM
                              *  .  .  .  .  .  .  .  .  .  .  .  .  .  .  .  .  .  .
                              *
                      074446  DEMKEY BOOL    74446         CORE A LOCATION FOR DAEMON'S KEY SETTING
                      074624  SYSTIM BOOL    74624         CORE A LOCATION FOR SYSTEM  TIME
                      074623  SYSDAT BOOL    74623         CORE A LOCATION FOR SYSTEM INIT. DATE
                      076041  RCODE  BOOL    76041         CORE A LOCATION FOR RESTRICTION CODE VECTOR
                      074454  AUTOND BOOL    74454         CORE A AUTOMATIC LOGOUT INDICATOR
                      074532  NUSERS BOOL    74532         CORE A LOGGED-IN USER COUNT
                      076500  PROBN  BOOL    76500         CORE A PROBNO ARRAY
                      076305  UFDNM  BOOL    76305         CORE A UFDNM ARRAY
                      074672  PB     BOOL    74672         CORE A GUARANTEED PERCENTAGE VECTOR BASE
                       00050  N      EQU     40            CORE A MAX. NO. OF USERS (SIZE OF PROBN)
                              *
                      000017  BASE   BOOL    17            KEY CODE BASE
                      000001  I      BOOL    1             KEY CODE TO START INCREMENTAL DUMP
                      000002  PAUSE  BOOL    2             KEY CODE TO WAIT FOR 1 MIN.
                      000003  C      BOOL    3             KEY CODE TO DO COMPLETE DUMP
                      000004  AK     BOOL    4             KEY CODE FOR IMPENDING AUTOLOGOUT
                      000005  ENFLSH BOOL    5             KEY CODE TO ENTER FLUSH MODE
                      000006  LVFLSH BOOL    6             KEY CODE TO LEAVE FLUSH MODE
                      000007  ENDTAP BOOL    7             KEY CODE TO TERMINATE DUMP TAPE FILE
                      000010  INT    BOOL    10            SIMULATE INTERRUPT
                       00660  RECSIZ EQU     432           TAPE RECORD SIZE
                       00006   NX    EQU     6             MAX. NO. OF SYSTEM FILE OWNERS
                       00030  NCD    EQU     24            MAX. NO. 'DAYS' NON-USE OF CURRENT FILES
                       00014  DINC   EQU     12            NO. DAYS OF 'RECENCY' INCREMENT (C.DUMP)
                       01274  U      EQU     700           MAX. NO. USERS IN MFD USER LIST
                       03300  TBSIZ  EQU     4*RECSIZ      TAPE BUFFER SIZE
                       00007  ERYSIZ EQU     7             I/O SYSTEM ERROR ARRAY SIZE
                       00014  ERCODA EQU     12            'OPEN' ERROR CODE FOR FILE NOT FOUND
                       00016  ERCODB EQU     14            'OPEN' ERROR CODE RQSTD. DEVICE UNAVBLE
                       00660  NW     EQU     432           SIZE OF SECONDARY I/O FILE BUFFERS
                       00001  LSDRUM EQU     1             I/O SYSTEM DEVICE CODE FOR L.S.DRUM
                       00002    DISK EQU     2             I/O SYSTEM DEVICE CODE FOR DISK
                       00003   TAPE  EQU     3             I/O SYSTEM DEVICE CODE FOR TAPE
                       00030  NHOUR  EQU     24            NO. OF HOURS IN A 'DAY'
                       77461  KEYVAL COMMON  1             LAST KEY SETTING READ FROM SUPERVISOR
                       77460  FLSHSW COMMON  1             FLUSH MODE SWITCH
                       77457  ENTPSW COMMON  1             OPERATOR-REQUESTED-END-TAPE INDICATOR
                       77456  NMFDU  COMMON  1             NO. USERS CURRENTLY IN LIST
                       77455  EXEMPT COMMON  2*NX          LIST OF SYSTEM FILE OWNERS
                       77441  NXMPT  COMMON  1             NO. FILE USERS EXEMPT FROM DUMP IN DCYCLE
                       77440  DTLD   COMMON  U             TIME LAST DUMPED FOR EACH USER
1            GET OPERATOR SIGNALS AND REFER TO CORE A...M.J.BAILEY,2/28/65       05/11/69 2013.7 PAGE 9

                       76144  PROGNO COMMON  U             PROGRAMMER NO. OF EACH USER
                       74650  PROBNO COMMON  U             PROBLEM NO. OF EACH USER
                       73354   FLUSH COMMON  1             NON-ZERO INDICATES FLUSH MODE IS FORCED
                       73353   TND   COMMON  1             TIME OF NEXT DUMP FOR CURRENT USER
                       70053         COMMON  TBSIZ-1       TAPE BUFFER
                       70053  TPBUF  COMMON  1             TAPE BUFFER 1ST WORD
                       64553         COMMON  TBSIZ-1       2ND TAPE BUFFER
                       64553  TPBUF2 COMMON  1             2ND TAPE BUFFER, 1ST WORD
                       64544         COMMON  ERYSIZ-1      ERROR ARRAY
                       64544  ERAY   COMMON  1             ERROR ARRAY 1ST WORD
                       64526         COMMON  13            PRINT BUFFER
                       64526   PBF   COMMON  1             PRINT BUFFER 1ST WORD
                       64510         COMMON  13            MFD ENTRY BUFFER
                       64510  MFDENT COMMON  1             MFD ENTRY BUFFER 1ST WORD
                       63630         COMMON  NW-1          SECONDARY I/0 FILE BUFFER
                       63630   IOBUF COMMON  1             SECONDARY IO BUFFER 1ST WORD
                       62750         COMMON  NW-1          SECONDARY I/O FILE BUFFER
                       62750  IOBUF2 COMMON  1             SECONDARY I/O BUFFER 1ST WORD
                       62747  UFDEOF COMMON  1             ZERO INDICATES EOF IN UFD FILE
                       62741         COMMON  5             PARTIAL UFD ENTRY BUFFER
                       62741  UFDENT COMMON  1             PARTIAL UFD ENTRY BUFFER 1ST WORD
                       62740   MFDC  COMMON  1             NEXT WORD TO BE READ FROM MFD FILE
                       62737   TLD   COMMON  1             TIME LAST DUMP OF USER CURRENTLY DUMPING
                       62736   UFDC  COMMON  1             NEXT UNREAD POS. OF UFDFILE (NORMALLY ZERO)
                       62735  MFDEOF COMMON  1             ZERO INDICATES EOF IN MFD FILE
                       62734   EOFCT COMMON  1             NO. OF WORDS READ BEFORE AN EOF
                       62733   FEOF  COMMON  1             ZERO INDICATES EOF IN A USER FILE
                       62732  EOFCTA COMMON  1             NO. OF WORDS BEFORE AN EOF
                       62731   DMPSW COMMON  1             NON-ZERO INDICATES A FILE HAS BEEN DUMPED
                       62730   DAWN  COMMON  1             TIME OF START OF 'DAY'
                       62727  DMPUSR COMMON  1             PROBLEM NO. OF DUMP/LOAD PACKAGE
                       62726  DMPRGR COMMON  1             PROGRAMMER NO. OF  DITTO.
                       62727  DU     EQU     DMPUSR
                       62726  DP     EQU     DMPRGR
                       62725   MFD1W COMMON  1             NO. OF 1ST GOOD WORD IN MFD AND UFD FILES
                       62723         COMMON  1             2ND PART OF DUMP TAPE FILE (COPY 1) NAME
                       62723  NFN1   COMMON  1             1ST PART OF DUMP TAPE FILE (COPY 1) NAME
                       62721         COMMON  1             2ND PART OF DUMP TAPE FILE (COPY 2) NAME
                       62721   NFN2  COMMON  1             1ST PART OF DUMP TAPE FILE (COPY 2) NAME
                       62720  TNDSW  COMMON  1             INDICATES TIME OF THIS DUMP CURRENT OR NO
                       62040         COMMON  RECSIZ-1      INTERNAL TAPE BUFFER
                       62040   ITB1  COMMON  1                ,,     ,,    ,,  1ST WORD
                       61160         COMMON  RECSIZ-1      INTERNAL TAPE BUFFER
                       61160   ITB2  COMMON  1                ,,     ,,  ,,  1ST WORD
                       61157   DUSK  COMMON  1             TIME OF END OF CURRENT 'DAY'
                       61156   ENDSW COMMON  1             IF 1, NORMAL END-OF-DAY,ELSE OPERATOR ONE
                       60276         COMMON  NW-1          INTERNAL BUFFER FOR 'MAP' FILE
                       60276    IMP  COMMON  1                ,,      ,,    ,,   ,,   ,,  1ST WORD
                       60267         COMMON  6             'MAP' FILE LINE PARAMETER ARRAY
                       60267  ARGLST COMMON  1               ,,   ,,   ,,      ,,      ,,  1ST WORD
                       60266  CDSW   COMMON  1             NON-ZERO DURING COMPLETE DUMP,ELSE ZERO
                       60265  DATE   COMMON  1             DATE THE DUMP NOW IN PROGRESS BEGAN
                       60264  TIME   COMMON  1             TIME DUMP NOW IN PROGRESS BEGAN
                       60263  TCYCLE COMMON  1             'TIME' OF LAST CYCLE ON DUMP TAPE FILE
                       60262  TFOSW  COMMON  1             NON-ZERO IF DUMP TAPE FILE IS OPEN
                       60261  ALOG   COMMON  1             NON-ZERO IF AUTOLOGOUT ON
1            GET OPERATOR SIGNALS AND REFER TO CORE A...M.J.BAILEY,2/28/65       05/11/69 2013.7 PAGE 10

                       60260  SW1    COMMON  1
                       60257  TCP    COMMON  1
                       60256  TNDSAV COMMON  1
                       60255  ODAWN  COMMON  1             TIME OF START OF PREVIOUS 'DAY'
                       60244         COMMON  8             TAPE LABEL
                       60244  TAPEID COMMON  1             TAPE LABEL 1ST WORD
                       60243  SKELSW COMMON  1
                       60254  REELNO EQU     TAPEID+8
                                     END
                                              REMOTE SEQUENCES
1            GET OPERATOR SIGNALS AND REFER TO CORE A...M.J.BAILEY,2/28/65       05/11/69 2013.7 PAGE 1
                        POST PROCESSOR ASSEMBLY DATA

       60242 IS THE LAST LOCATION NOT USED BY THIS PROGRAM
        373 IS THE FIRST LOCATION NOT USED BY THIS PROGRAM

0REFERENCES TO DEFINED SYMBOLS
          3      C   354
          1      I   354
         50      N   151,  155,  162,  354
       1274      U   354
          4     AK   354
      62726     DP   321,  354
      62727     DU   320,  354
         45     GA    40
        660     NW   354
          6     NX   354
      74672     PB   354
        327     SS   115,  123,  125,  126,  133,  144,  146,  163,  166
         62    GA2    37
        266    GSA   257
        254    GSB   245
        302    GX1   113
        301    GX4   112
        300    GX7   111,  247,  253,  261,  265,  271,  273
      60276    IMP   354
         10    INT   172,  214,  223,  354
         30    NCD   354
      64526    PBF   200,  204,  207,  231,  235,  240,  306,  312,  315,  354
      60260    SW1   354
      60257    TCP   354
      62737    TLD   354
      73353    TND   354
         54    XGA    41,   42,   43,   55
      60261   ALOG   354
         17   BASE   354
      60266   CDSW   354
      60265   DATE   354
      62730   DAWN   354
         14   DINC   354
          2   DISK   354
      77440   DTLD   354
      61157   DUSK   354
      64544   ERAY   354
      62733   FEOF   354
         11   GETA     0,  150,  154,  161
         36   GETL    22
        242   GSB2   175
         75   GTMP    46,   54,   60
      62040   ITB1   354
      61160   ITB2   354
        331   MESA   263
        336   MESB   251
        343   MESC   275
      62740   MFDC   354
      62723   NFN1   354
      62721   NFN2   354
1            GET OPERATOR SIGNALS AND REFER TO CORE A...M.J.BAILEY,2/28/65       05/11/69 2013.7 PAGE 2
                        POST PROCESSOR ASSEMBLY DATA

         70   NGX4    15
         67   NGX7    16,   57
        126   SETC   122
          3   TAPE   354
      60264   TIME   354
      62736   UFDC   354
        304  CHAIN   226
         25  CKRL1    33
         34  CKRL2    27
      62731  DMPSW   354
      61156  ENDSW   354
      62734  EOFCT   354
      73354  FLUSH   354
        111  GDSIG     0
        107  GETF7   101
         73  INDIC    17,   53,   71
      63630  IOBUF   354
        354  ..003   177
        357  ..006   230
        362  ..009   305
        323  MELLG   215
      62725  MFD1W   354
         12  NGETA     0,  167,  211,  220
         30  NHOUR   354
         74  NINDC    11,   21,   23
      77456  NMFDU   354
        167  NOKEY   127,  142,  145,  147
      77441  NXMPT   354
      60255  ODAWN   354
        150  PATCH   135
          2  PAUSE   354
      76500  PROBN   354
      76041  RCODE   151,  155,  162,  354
        146  RSALL   131,  132
        143  SETS2   137,  157
          4  SLEEP   217
       3300  TBSIZ   354
      60262  TFOSW   354
         76  TMPAC    13,   50,   64
         77  TMPMQ    12,   52,   66
      62720  TNDSW   354
      70053  TPBUF   354
      76305  UFDNM   354
          2  WRFLX   203,  234,  250,  262,  274,  311
      60267 ARGLST   354
          5 ATTACH   317
      74454 AUTOND   354
          3 CHNCOM   322
      74446 DEMKEY   170,  212,  221,  354
      62726 DMPRGR   354
      62727 DMPUSR   354
          7 ENDTAP   266,  354
          5 ENFLSH   242,  354
      77457 ENTPSW   272,  277,  354
      62732 EOFCTA   354
1            GET OPERATOR SIGNALS AND REFER TO CORE A...M.J.BAILEY,2/28/65       05/11/69 2013.7 PAGE 3
                        POST PROCESSOR ASSEMBLY DATA

         14 ERCODA   354
         16 ERCODB   354
          7 ERYSIZ   354
      77455 EXEMPT   354
      77460 FLSHSW   246,  252,  260,  264,  354
        101 GETEFA    25
          0 GETLOC    44
      62750 IOBUF2   354
      77461 KEYVAL   171,  174,  222,  225,  244,  256,  270,  354
          1 LSDRUM   354
          6 LVFLSH   254,  354
      64510 MFDENT   354
      62735 MFDEOF   354
      74532 NUSERS   354
        330 OLDCOD   152,  160
          6 PRCODE   213
      74650 PROBNO   354
      76144 PROGNO   354
        660 RECSIZ   354
      60254 REELNO   354
          1 SETLOC    61
      60243 SKELSW   354
      74623 SYSDAT   354
      74624 SYSTIM   354
      60244 TAPEID   354
      60263 TCYCLE   354
        100 TMPACL    14,   47,   63
      60256 TNDSAV   354
      64553 TPBUF2   354
      62741 UFDENT   354
      62747 UFDEOF   354
        160 UNPTCH   141

0 NO ERROR IN ABOVE ASSEMBLY.
1            WRITE OR READ RESTORE FILE FOR DISK DUMPER....M.J.BAILEY,2/15/65    05/11/69 2014.4 PAGE 1

                              *
                       00020         ENTRY   DTSAVE        WRITE RESTORE FILE TO SAVE DUMP TABLES ETC.
                       00217         ENTRY   DRSTOR        RELOAD RESTORE FILE TO RESUME DUMPING
                              *
                                     EXTERN  ATTACH,CHFILE,DELFIL,OPEN,BUFFER,WRFILE
                                     EXTERN  FWAIT,CLOSE,FSTATE,RDFILE,WRFLX
                              *
                              *      WRITE RESTORE FILE FOR DUMPER TABLES AND VALUES
                              *

        TRANSFER VECTOR
      00000  216363212330     ATTACH
      00001  233026314325     CHFILE
      00002  242543263143     DELFIL
      00003  464725456060     OPEN
      00004  226426262551     BUFFER
      00005  665126314325     WRFILE
      00006  266621316360     FWAIT
      00007  234346622560     CLOSE
      00010  266263216325     FSTATE
      00011  512426314325     RDFILE
      00012  665126436760     WRFLX
      00013  314622246360     IOBDT
      00014  475145632551     PRNTER
      00015  272462312760     GDSIG

            LINKAGE DIRECTOR
      00016  000000000000
      00017  246362216525

      00020  0634 00 4 00213  DTSAVE SXA     X4,4
      00021  0634 00 1 00214         SXA     X1,1
      00022  0760 00 0 00164         SWT     4
      00023  0020 00 0 00032         TRA     *+7
      00024 -0500 00 0 60255         CAL     ODAWN
      00025  0074 00 4 00013         TSX     $IOBDT,4
      00026  0602 00 0 00443         SLW     T
      00027 -0600 00 0 00444         STQ     T+1
      00030  0074 00 4 00012         TSX     $WRFLX,4
      00031  0 00002 0 00443                 T,,2
      00032  0774 00 1 00031         AXT     25,1
      00033  0500 00 0 00436         CLA     SFNO          INCREASE SAVE FILE NO.
      00034  0400 00 0 00504         ADD     =1
      00035  0601 00 0 00436         STO     SFNO
      00036  0760 00 0 00001         LBT                   SELECT ALTERNATE COPY FOR REWRITE
      00037  0020 00 0 00042         TRA     *+3
      00040  0500 00 0 00440         CLA     NAME1
      00041  0020 00 0 00043         TRA     *+2
      00042  0500 00 0 00441         CLA     NAME2
      00043  0601 00 0 00442         STO     B
                              *
      00044  0500 00 0 00436         CLA     SFNO          SET UP MISCELLANEOUS VARIABLES FOR WRITING
      00045  0601 00 0 00443         STO     T
      00046  0500 00 0 77456         CLA     NMFDU
      00047  0601 00 0 00444         STO     T+1
      00050  0500 00 0 60262         CLA     TFOSW
1            WRITE OR READ RESTORE FILE FOR DISK DUMPER....M.J.BAILEY,2/15/65    05/11/69 2014.4 PAGE 2

      00051  0601 00 0 00445         STO     T+2
      00052  0500 00 0 62730         CLA     DAWN
      00053  0601 00 0 00446         STO     T+3
      00054  0500 00 0 60266         CLA     CDSW
      00055  0601 00 0 00447         STO     T+4
      00056  0500 00 0 60260         CLA     SW1
      00057  0601 00 0 00450         STO     T+5
      00060  0500 00 0 73353         CLA     TND
      00061  0601 00 0 00451         STO     T+6
      00062  0500 00 0 62737         CLA     TLD
      00063  0601 00 0 00452         STO     T+7
      00064  0500 00 0 60256         CLA     TNDSAV
      00065  0601 00 0 00453         STO     T+8
      00066  0500 00 0 60257         CLA     TCP
      00067  0601 00 0 00454         STO     T+9
      00070  0500 00 0 61156         CLA     ENDSW
      00071  0601 00 0 00455         STO     T+10
      00072  0500 00 0 61157         CLA     DUSK
      00073  0601 00 0 00456         STO     T+11
      00074  0500 00 0 60255         CLA     ODAWN
      00075  0601 00 0 00457         STO     T+12
      00076  0500 00 0 62740         CLA     MFDC
      00077  0601 00 0 00460         STO     T+13
      00100  0500 00 0 62735         CLA     MFDEOF
      00101  0601 00 0 00461         STO     T+14
      00102  0500 00 0 77457         CLA     ENTPSW
      00103  0601 00 0 00462         STO     T+15
      00104  0500 00 0 60243         CLA     SKELSW
      00105  0601 00 0 00463         STO     T+16
                              *
      00106  0074 00 4 00000         TSX     ATTACH,4
 TD   00107  3 00000 0 62727         TXH     DU
 TD   00110  3 00000 0 62726         TXH     DP
      00111  0500 00 0 00436         CLA     SFNO
      00112  0402 00 0 00506         SUB     =3
      00113 -0120 00 0 00127         TMI     LA            SKIP IF THIS IS FIRST OR SECOND SAVE
      00114  0074 00 4 00001         TSX     CHFILE,4
 TD   00115  3 00000 0 00437         TXH     A
 TD   00116  3 00000 0 00442         TXH     B
 TD   00117  3 00000 0 00503         TXH     =O0
 TD   00120  3 00000 0 00510         TXH     =-0
 TD   00121  3 00000 0 00510         TXH     =-0
 TD   00122  3 00000 0 00123         TXH     *+1
      00123  0074 00 4 00002         TSX     DELFIL,4      DELETE OLD COPY
 TD   00124  3 00000 0 00437         TXH     A
 TD   00125  3 00000 0 00442         TXH     B
 TD   00126  3 00000 0 00127         TXH     *+1
                              *
      00127  0074 00 4 00003  LA     TSX     OPEN,4        OPEN NEW ONE
 TD   00130  3 00000 0 00512         TXH     =HW
 TD   00131  3 00000 0 00437         TXH     A
 TD   00132  3 00000 0 00442         TXH     B
 TD   00133  3 00000 0 00507         TXH     =O120
 TD   00134  3 00000 0 00505         TXH     =2
 TD   00135  3 00000 0 00173         TXH     ERRA
      00136  0074 00 4 00004  LB     TSX     BUFFER,4
1            WRITE OR READ RESTORE FILE FOR DISK DUMPER....M.J.BAILEY,2/15/65    05/11/69 2014.4 PAGE 3

 TD   00137  3 00000 0 00437         TXH     A
 TD   00140  3 00000 0 00442         TXH     B
      00141  2 00465 0 63630         TIX     IOBUF,,LBUF
 TD   00142  3 00000 0 00200         TXH     ERRB
                              *
      00143  0074 00 4 00005  LC     TSX     WRFILE,4      WRITE MISCELLANEOUS VARIABLES
 TD   00144  3 00000 0 00437         TXH     A
 TD   00145  3 00000 0 00442         TXH     B
 TD   00146  3 00000 0 00504         TXH     =1
      00147  2 00464 0 00443         TIX     T,,NXW
 TD   00150  3 00000 0 00153         TXH     *+3
 TD   00151  3 00000 0 00466         TXH     TEMP
 TD   00152  3 00000 0 00207         TXH     ERRC
      00153  0074 00 4 00005         TSX     WRFILE,4      WRITE TUFD/G
 TD   00154  3 00000 0 00437         TXH     A
 TD   00155  3 00000 0 00442         TXH     B
 TD   00156  3 00000 0 00467         TXH     NXWT
      00157  2 00470 0 73355         TIX     PROBNO+1-U,,LTLDFL
 TD   00160  3 00000 0 00163         TXH     *+3
 TD   00161  3 00000 0 00466         TXH     TEMP
 TD   00162  3 00000 0 00207         TXH     ERRC
      00163  0074 00 4 00006         TSX     FWAIT,4
 TD   00164  3 00000 0 00437         TXH     A
 TD   00165  3 00000 0 00442         TXH     B
 TD   00166  3 00000 0 00207         TXH     ERRC
                              *
      00167  0074 00 4 00007         TSX     CLOSE,4
 TD   00170  3 00000 0 00437         TXH     A
 TD   00171  3 00000 0 00442         TXH     B
      00172  0020 00 0 00213         TRA     X4
                              *
      00173  0074 00 4 00014  ERRA   TSX     $PRNTER,4
      00174  0074 00 4 00015         TSX     $GDSIG,4
      00175  2 00001 1 00127         TIX     LA,1,1
      00176  0534 00 4 00213  EREX   LXA     X4,4
      00177  1 00001 4 00214         TXI     X1,4,1        EXIT VIA 1,4
      00200  0074 00 4 00014  ERRB   TSX     $PRNTER,4
      00201  0074 00 4 00015         TSX     $GDSIG,4
      00202  2 00001 1 00136         TIX     LB,1,1
      00203  0074 00 4 00007  ERCLEX TSX     CLOSE,4
 TD   00204  3 00000 0 00437         TXH     A
 TD   00205  3 00000 0 00442         TXH     B
      00206  0020 00 0 00176         TRA     EREX
      00207  0074 00 4 00014  ERRC   TSX     $PRNTER,4
      00210  0074 00 4 00015         TSX     $GDSIG,4
      00211  2 00001 1 00143         TIX     LC,1,1
      00212  0020 00 0 00203         TRA     ERCLEX
                              *
      00213  0774 00 4 00000  X4     AXT     **,4
      00214  0774 00 1 00000  X1     AXT     **,1
      00215  0600 00 0 00442         STZ     B             INDICATE SAVE PERFORMED LAST
      00216  0020 00 4 00002         TRA     2,4
                              *
                              *      READ RESTORE FILE, TO BE ABLE TO RESUME LOADING
                              *
      00217  0634 00 4 00432  DRSTOR SXA     RX4,4
1            WRITE OR READ RESTORE FILE FOR DISK DUMPER....M.J.BAILEY,2/15/65    05/11/69 2014.4 PAGE 4

      00220  0634 00 1 00434         SXA     RX1,1
      00221  0760 00 0 00164         SWT     4
      00222  0020 00 0 00231         TRA     *+7
      00223 -0500 00 0 60255         CAL     ODAWN
      00224  0074 00 4 00013         TSX     $IOBDT,4
      00225  0602 00 0 00443         SLW     T
      00226 -0600 00 0 00444         STQ     T+1
      00227  0074 00 4 00012         TSX     $WRFLX,4
      00230  0 00002 0 00443                 T,,2
      00231  0074 00 4 00000         TSX     ATTACH,4
 TD   00232  3 00000 0 62727         TXH     DU
 TD   00233  3 00000 0 62726         TXH     DP
      00234 -0500 00 0 00442         CAL     B
      00235  0100 00 0 00242         TZE     RA            SKIP IF RESTORE O.K. LAST CALL
      00236 -0340 00 0 00440         LAS     NAME1         IF NOT, BE SURE TO USE OTHER COPY NOW
      00237  0020 00 0 00261         TRA     RBA
      00240  0020 00 0 00257         TRA     RB
      00241  0020 00 0 00261         TRA     RBA
      00242  0074 00 4 00010  RA     TSX     FSTATE,4
 TD   00243  3 00000 0 00437         TXH     A
 TD   00244  3 00000 0 00440         TXH     NAME1
      00245  2 00471 0 00443         TIX     T,,L7
 TD   00246  3 00000 0 00257         TXH     RB
      00247  0074 00 4 00010         TSX     FSTATE,4
 TD   00250  3 00000 0 00437         TXH     A
 TD   00251  3 00000 0 00441         TXH     NAME2
      00252  2 00471 0 00442         TIX     T-1,,L7
 TD   00253  3 00000 0 00376         TXH     ERRD
      00254  0500 00 0 00451         CLA     T+6           SEE WHICH COPY IS THE LATEST
      00255  0402 00 0 00450         SUB     T+5
      00256  0120 00 0 00261         TPL     *+3
      00257  0500 00 0 00441  RB     CLA     NAME2
      00260  0020 00 0 00262         TRA     *+2
      00261  0500 00 0 00440  RBA    CLA     NAME1
      00262  0601 00 0 00442         STO     B             SET NAME OF LATEST OF THE 2 COPIES
                              *
      00263  0774 00 1 00005         AXT     5,1
      00264  0074 00 4 00003  RC     TSX     OPEN,4
 TD   00265  3 00000 0 00511         TXH     =HR
 TD   00266  3 00000 0 00437         TXH     A
 TD   00267  3 00000 0 00442         TXH     B
 TD   00270  3 00000 0 00510         TXH     =-0
 TD   00271  3 00000 0 00510         TXH     =-0
 TD   00272  3 00000 0 00403         TXH     ERRE
      00273  0074 00 4 00004  RD     TSX     BUFFER,4
 TD   00274  3 00000 0 00437         TXH     A
 TD   00275  3 00000 0 00442         TXH     B
      00276  2 00465 0 63630         TIX     IOBUF,,LBUF
 TD   00277  3 00000 0 00407         TXH     ERRF
                              *
      00300  0074 00 4 00011  RE     TSX     RDFILE,4      READ MISCELLANEOUS VARIABLES
 TD   00301  3 00000 0 00437         TXH     A
 TD   00302  3 00000 0 00442         TXH     B
 TD   00303  3 00000 0 00504         TXH     =1
      00304  2 00464 0 00443         TIX     T,,NXW
 TD   00305  3 00000 0 00416         TXH     ERRG
1            WRITE OR READ RESTORE FILE FOR DISK DUMPER....M.J.BAILEY,2/15/65    05/11/69 2014.4 PAGE 5

 TD   00306  3 00000 0 00466         TXH     TEMP
 TD   00307  3 00000 0 00426         TXH     ERRH
      00310  0074 00 4 00011  RG     TSX     RDFILE,4      READ TUFD/G TABLE
 TD   00311  3 00000 0 00437         TXH     A
 TD   00312  3 00000 0 00442         TXH     B
 TD   00313  3 00000 0 00467         TXH     NXWT
      00314  2 00470 0 73355         TIX     PROBNO+1-U,,LTLDFL
 TD   00315  3 00000 0 00321         TXH     RH
 TD   00316  3 00000 0 00466         TXH     TEMP
 TD   00317  3 00000 0 00426         TXH     ERRH
      00320  0020 00 0 00324         TRA     RI
      00321  0500 00 0 00466  RH     CLA     TEMP
      00322  0402 00 0 00464         SUB     NXW
      00323 -0100 00 0 00416         TNZ     ERRG
      00324  0074 00 4 00006  RI     TSX     FWAIT,4
 TD   00325  3 00000 0 00437         TXH     A
 TD   00326  3 00000 0 00442         TXH     B
 TD   00327  3 00000 0 00426         TXH     ERRH
                              *
      00330  0500 00 0 00443  RJ     CLA     T             RESTORE MISCELLANEOUS VARIABLES
      00331  0601 00 0 00436         STO     SFNO
      00332  0500 00 0 00444         CLA     T+1
      00333  0601 00 0 77456         STO     NMFDU
      00334  0500 00 0 00445         CLA     T+2
      00335  0601 00 0 60262         STO     TFOSW
      00336  0500 00 0 00446         CLA     T+3
      00337  0601 00 0 62730         STO     DAWN
      00340  0500 00 0 00447         CLA     T+4
      00341  0601 00 0 60266         STO     CDSW
      00342  0500 00 0 00450         CLA     T+5
      00343  0601 00 0 60260         STO     SW1
      00344  0500 00 0 00451         CLA     T+6
      00345  0601 00 0 73353         STO     TND
      00346  0500 00 0 00452         CLA     T+7
      00347  0601 00 0 62737         STO     TLD
      00350  0500 00 0 00453         CLA     T+8
      00351  0601 00 0 60256         STO     TNDSAV
      00352  0500 00 0 00454         CLA     T+9
      00353  0601 00 0 60257         STO     TCP
      00354  0500 00 0 00455         CLA     T+10
      00355  0601 00 0 61156         STO     ENDSW
      00356  0500 00 0 00456         CLA     T+11
      00357  0601 00 0 61157         STO     DUSK
      00360  0500 00 0 00457         CLA     T+12
      00361  0601 00 0 60255         STO     ODAWN
      00362  0500 00 0 00460         CLA     T+13
      00363  0601 00 0 62740         STO     MFDC
      00364  0500 00 0 00461         CLA     T+14
      00365  0601 00 0 62735         STO     MFDEOF
      00366  0500 00 0 00462         CLA     T+15
      00367  0601 00 0 77457         STO     ENTPSW
      00370  0500 00 0 00463         CLA     T+16
      00371  0601 00 0 60243         STO     SKELSW
                              *
      00372  0074 00 4 00007         TSX     CLOSE,4
 TD   00373  3 00000 0 00437         TXH     A
1            WRITE OR READ RESTORE FILE FOR DISK DUMPER....M.J.BAILEY,2/15/65    05/11/69 2014.4 PAGE 6

 TD   00374  3 00000 0 00442         TXH     B
      00375  0020 00 0 00432         TRA     RX4
                              *
      00376  0074 00 4 00014  ERRD   TSX     $PRNTER,4
      00377  0074 00 4 00015         TSX     $GDSIG,4
      00400  2 00001 1 00242         TIX     RA,1,1
      00401  0534 00 4 00432  ERXR   LXA     RX4,4
      00402  1 00001 4 00434         TXI     RX1,4,1       EXIT VIA 1,4  --  ERROR
      00403  0074 00 4 00014  ERRE   TSX     $PRNTER,4
      00404  0074 00 4 00015         TSX     $GDSIG,4
      00405  2 00001 1 00264         TIX     RC,1,1
      00406  0020 00 0 00401         TRA     ERXR
      00407  0074 00 4 00014  ERRF   TSX     $PRNTER,4
      00410  0074 00 4 00015         TSX     $GDSIG,4
      00411  2 00001 1 00273         TIX     RD,1,1
      00412  0074 00 4 00007  ERCLXR TSX     CLOSE,4
 TD   00413  3 00000 0 00437         TXH     A
 TD   00414  3 00000 0 00442         TXH     B
      00415  0020 00 0 00401         TRA     ERXR
      00416  0074 00 4 00006  ERRG   TSX     FWAIT,4
 TD   00417  3 00000 0 00437         TXH     A
 TD   00420  3 00000 0 00442         TXH     B
 TD   00421  3 00000 0 00426         TXH     ERRH
      00422  0074 00 4 00012         TSX     WRFLX,4
      00423  0 00011 0 00472                 MESA,,9
      00424  2 00001 1 00300         TIX     RE,1,1
      00425  0020 00 0 00330         TRA     RJ
      00426  0074 00 4 00014  ERRH   TSX     PRNTER,4
      00427  0074 00 4 00015         TSX     $GDSIG,4
      00430  2 00001 1 00300  ERRH1  TIX     RE,1,1
      00431  0020 00 0 00412         TRA     ERCLXR
                              *
      00432  0774 00 4 00000  RX4    AXT     **,4
      00433  0600 00 0 00442         STZ     B             INDICATE RESTORE O.K.
      00434  0774 00 1 00000  RX1    AXT     **,1
      00435  0020 00 4 00002         TRA     2,4
                              *
                              *      CONSTANTS, VARIABLES, ETC.
                              *
                       00021  XW     EQU     17
      00436  0 00000 0 00000  SFNO   PZE
      00437  245162634651     A      BCI     1,DRSTOR
      00440  263143253301     NAME1  BCI     1,FILE.1
      00441  263143253302     NAME2  BCI     1,FILE.2
      00442  606060606060     B      BCI     1,
      00443                   T      BSS     XW
      00464  0 00000 0 00021  NXW    PZE     XW
      00465  0 00000 0 00660  LBUF   PZE     NW
      00466  0 00000 0 00000  TEMP   PZE
      00467  0 00000 0 00022  NXWT   PZE     XW+1
      00470  0 00000 0 04101  LTLDFL PZE     3*U+2*NX+1
      00471  0 00000 0 00007  L7     PZE     7
      00472  602533463326     MESA   BCI     9, E.O.F. IN WRONG PLACE ON DISK LOADER 'RESTORE FILE'.
      00473  336031456066
      00474  514645276047
      00475  432123256046
1            WRITE OR READ RESTORE FILE FOR DISK DUMPER....M.J.BAILEY,2/15/65    05/11/69 2014.4 PAGE 7

      00476  456024316242
      00477  604346212425
      00500  516014512562
      00501  634651256026
      00502  314325143360
                              *
                                     INSERT  DCMEQB
                              *
                              *  .  .  .  .  .  .  .  .  .  .  .  .  .  .  .  .  .  .
                              *    COMMON AND EQUIVALENCE FOR GENERAL DUMP PROGRAM
                              *  .  .  .  .  .  .  .  .  .  .  .  .  .  .  .  .  .  .
                              *
                      074446  DEMKEY BOOL    74446         CORE A LOCATION FOR DAEMON'S KEY SETTING
                      074624  SYSTIM BOOL    74624         CORE A LOCATION FOR SYSTEM  TIME
                      074623  SYSDAT BOOL    74623         CORE A LOCATION FOR SYSTEM INIT. DATE
                      076041  RCODE  BOOL    76041         CORE A LOCATION FOR RESTRICTION CODE VECTOR
                      074454  AUTOND BOOL    74454         CORE A AUTOMATIC LOGOUT INDICATOR
                      074532  NUSERS BOOL    74532         CORE A LOGGED-IN USER COUNT
                      076500  PROBN  BOOL    76500         CORE A PROBNO ARRAY
                      076305  UFDNM  BOOL    76305         CORE A UFDNM ARRAY
                      074672  PB     BOOL    74672         CORE A GUARANTEED PERCENTAGE VECTOR BASE
                       00050  N      EQU     40            CORE A MAX. NO. OF USERS (SIZE OF PROBN)
                              *
                      000017  BASE   BOOL    17            KEY CODE BASE
                      000001  I      BOOL    1             KEY CODE TO START INCREMENTAL DUMP
                      000002  PAUSE  BOOL    2             KEY CODE TO WAIT FOR 1 MIN.
                      000003  C      BOOL    3             KEY CODE TO DO COMPLETE DUMP
                      000004  AK     BOOL    4             KEY CODE FOR IMPENDING AUTOLOGOUT
                      000005  ENFLSH BOOL    5             KEY CODE TO ENTER FLUSH MODE
                      000006  LVFLSH BOOL    6             KEY CODE TO LEAVE FLUSH MODE
                      000007  ENDTAP BOOL    7             KEY CODE TO TERMINATE DUMP TAPE FILE
                      000010  INT    BOOL    10            SIMULATE INTERRUPT
                       00660  RECSIZ EQU     432           TAPE RECORD SIZE
                       00006   NX    EQU     6             MAX. NO. OF SYSTEM FILE OWNERS
                       00030  NCD    EQU     24            MAX. NO. 'DAYS' NON-USE OF CURRENT FILES
                       00014  DINC   EQU     12            NO. DAYS OF 'RECENCY' INCREMENT (C.DUMP)
                       01274  U      EQU     700           MAX. NO. USERS IN MFD USER LIST
                       03300  TBSIZ  EQU     4*RECSIZ      TAPE BUFFER SIZE
                       00007  ERYSIZ EQU     7             I/O SYSTEM ERROR ARRAY SIZE
                       00014  ERCODA EQU     12            'OPEN' ERROR CODE FOR FILE NOT FOUND
                       00016  ERCODB EQU     14            'OPEN' ERROR CODE RQSTD. DEVICE UNAVBLE
                       00660  NW     EQU     432           SIZE OF SECONDARY I/O FILE BUFFERS
                       00001  LSDRUM EQU     1             I/O SYSTEM DEVICE CODE FOR L.S.DRUM
                       00002    DISK EQU     2             I/O SYSTEM DEVICE CODE FOR DISK
                       00003   TAPE  EQU     3             I/O SYSTEM DEVICE CODE FOR TAPE
                       00030  NHOUR  EQU     24            NO. OF HOURS IN A 'DAY'
                       77461  KEYVAL COMMON  1             LAST KEY SETTING READ FROM SUPERVISOR
                       77460  FLSHSW COMMON  1             FLUSH MODE SWITCH
                       77457  ENTPSW COMMON  1             OPERATOR-REQUESTED-END-TAPE INDICATOR
                       77456  NMFDU  COMMON  1             NO. USERS CURRENTLY IN LIST
                       77455  EXEMPT COMMON  2*NX          LIST OF SYSTEM FILE OWNERS
                       77441  NXMPT  COMMON  1             NO. FILE USERS EXEMPT FROM DUMP IN DCYCLE
                       77440  DTLD   COMMON  U             TIME LAST DUMPED FOR EACH USER
                       76144  PROGNO COMMON  U             PROGRAMMER NO. OF EACH USER
                       74650  PROBNO COMMON  U             PROBLEM NO. OF EACH USER
                       73354   FLUSH COMMON  1             NON-ZERO INDICATES FLUSH MODE IS FORCED
1            WRITE OR READ RESTORE FILE FOR DISK DUMPER....M.J.BAILEY,2/15/65    05/11/69 2014.4 PAGE 8

                       73353   TND   COMMON  1             TIME OF NEXT DUMP FOR CURRENT USER
                       70053         COMMON  TBSIZ-1       TAPE BUFFER
                       70053  TPBUF  COMMON  1             TAPE BUFFER 1ST WORD
                       64553         COMMON  TBSIZ-1       2ND TAPE BUFFER
                       64553  TPBUF2 COMMON  1             2ND TAPE BUFFER, 1ST WORD
                       64544         COMMON  ERYSIZ-1      ERROR ARRAY
                       64544  ERAY   COMMON  1             ERROR ARRAY 1ST WORD
                       64526         COMMON  13            PRINT BUFFER
                       64526   PBF   COMMON  1             PRINT BUFFER 1ST WORD
                       64510         COMMON  13            MFD ENTRY BUFFER
                       64510  MFDENT COMMON  1             MFD ENTRY BUFFER 1ST WORD
                       63630         COMMON  NW-1          SECONDARY I/0 FILE BUFFER
                       63630   IOBUF COMMON  1             SECONDARY IO BUFFER 1ST WORD
                       62750         COMMON  NW-1          SECONDARY I/O FILE BUFFER
                       62750  IOBUF2 COMMON  1             SECONDARY I/O BUFFER 1ST WORD
                       62747  UFDEOF COMMON  1             ZERO INDICATES EOF IN UFD FILE
                       62741         COMMON  5             PARTIAL UFD ENTRY BUFFER
                       62741  UFDENT COMMON  1             PARTIAL UFD ENTRY BUFFER 1ST WORD
                       62740   MFDC  COMMON  1             NEXT WORD TO BE READ FROM MFD FILE
                       62737   TLD   COMMON  1             TIME LAST DUMP OF USER CURRENTLY DUMPING
                       62736   UFDC  COMMON  1             NEXT UNREAD POS. OF UFDFILE (NORMALLY ZERO)
                       62735  MFDEOF COMMON  1             ZERO INDICATES EOF IN MFD FILE
                       62734   EOFCT COMMON  1             NO. OF WORDS READ BEFORE AN EOF
                       62733   FEOF  COMMON  1             ZERO INDICATES EOF IN A USER FILE
                       62732  EOFCTA COMMON  1             NO. OF WORDS BEFORE AN EOF
                       62731   DMPSW COMMON  1             NON-ZERO INDICATES A FILE HAS BEEN DUMPED
                       62730   DAWN  COMMON  1             TIME OF START OF 'DAY'
                       62727  DMPUSR COMMON  1             PROBLEM NO. OF DUMP/LOAD PACKAGE
                       62726  DMPRGR COMMON  1             PROGRAMMER NO. OF  DITTO.
                       62727  DU     EQU     DMPUSR
                       62726  DP     EQU     DMPRGR
                       62725   MFD1W COMMON  1             NO. OF 1ST GOOD WORD IN MFD AND UFD FILES
                       62723         COMMON  1             2ND PART OF DUMP TAPE FILE (COPY 1) NAME
                       62723  NFN1   COMMON  1             1ST PART OF DUMP TAPE FILE (COPY 1) NAME
                       62721         COMMON  1             2ND PART OF DUMP TAPE FILE (COPY 2) NAME
                       62721   NFN2  COMMON  1             1ST PART OF DUMP TAPE FILE (COPY 2) NAME
                       62720  TNDSW  COMMON  1             INDICATES TIME OF THIS DUMP CURRENT OR NO
                       62040         COMMON  RECSIZ-1      INTERNAL TAPE BUFFER
                       62040   ITB1  COMMON  1                ,,     ,,    ,,  1ST WORD
                       61160         COMMON  RECSIZ-1      INTERNAL TAPE BUFFER
                       61160   ITB2  COMMON  1                ,,     ,,  ,,  1ST WORD
                       61157   DUSK  COMMON  1             TIME OF END OF CURRENT 'DAY'
                       61156   ENDSW COMMON  1             IF 1, NORMAL END-OF-DAY,ELSE OPERATOR ONE
                       60276         COMMON  NW-1          INTERNAL BUFFER FOR 'MAP' FILE
                       60276    IMP  COMMON  1                ,,      ,,    ,,   ,,   ,,  1ST WORD
                       60267         COMMON  6             'MAP' FILE LINE PARAMETER ARRAY
                       60267  ARGLST COMMON  1               ,,   ,,   ,,      ,,      ,,  1ST WORD
                       60266  CDSW   COMMON  1             NON-ZERO DURING COMPLETE DUMP,ELSE ZERO
                       60265  DATE   COMMON  1             DATE THE DUMP NOW IN PROGRESS BEGAN
                       60264  TIME   COMMON  1             TIME DUMP NOW IN PROGRESS BEGAN
                       60263  TCYCLE COMMON  1             'TIME' OF LAST CYCLE ON DUMP TAPE FILE
                       60262  TFOSW  COMMON  1             NON-ZERO IF DUMP TAPE FILE IS OPEN
                       60261  ALOG   COMMON  1             NON-ZERO IF AUTOLOGOUT ON
                       60260  SW1    COMMON  1
                       60257  TCP    COMMON  1
                       60256  TNDSAV COMMON  1
1            WRITE OR READ RESTORE FILE FOR DISK DUMPER....M.J.BAILEY,2/15/65    05/11/69 2014.4 PAGE 9

                       60255  ODAWN  COMMON  1             TIME OF START OF PREVIOUS 'DAY'
                       60244         COMMON  8             TAPE LABEL
                       60244  TAPEID COMMON  1             TAPE LABEL 1ST WORD
                       60243  SKELSW COMMON  1
                       60254  REELNO EQU     TAPEID+8
                                     END

        LITERALS
      00503  000000000000
      00504  000000000001
      00505  000000000002
      00506  000000000003
      00507  000000000120
      00510  400000000000
      00511  516060606060
      00512  666060606060
1            WRITE OR READ RESTORE FILE FOR DISK DUMPER....M.J.BAILEY,2/15/65    05/11/69 2014.4 PAGE 1
                        POST PROCESSOR ASSEMBLY DATA

       60242 IS THE LAST LOCATION NOT USED BY THIS PROGRAM
        513 IS THE FIRST LOCATION NOT USED BY THIS PROGRAM

0REFERENCES TO DEFINED SYMBOLS
        437      A   115,  124,  131,  137,  144,  154,  164,  170,  204,  243,  250,  266,  274,  301,  311,  325,  373
                     413,  417
        442      B    43,  116,  125,  132,  140,  145,  155,  165,  171,  205,  215,  234,  262,  267,  275,  302,  312
                     326,  374,  414,  420,  433
          3      C   503
          1      I   503
         50      N   503
        443      T    26,   27,   31,   45,   47,   51,   53,   55,   57,   61,   63,   65,   67,   71,   73,   75,   77
                     101,  103,  105,  147,  225,  226,  230,  245,  252,  254,  255,  304,  330,  332,  334,  336,  340
                     342,  344,  346,  350,  352,  354,  356,  360,  362,  364,  366,  370
       1274      U   157,  314,  470,  503
          4     AK   503
      62726     DP   110,  233,  503
      62727     DU   107,  232,  503
        471     L7   245,  252
        127     LA   113,  175
        136     LB   202
        143     LC   211
        660     NW   465,  503
          6     NX   470,  503
      74672     PB   503
        242     RA   235,  400
        257     RB   240,  246
        264     RC   405
        273     RD   411
        300     RE   424,  430
        310     RG
        321     RH   315
        324     RI   320
        330     RJ   425
        214     X1    21,  177
        213     X4    20,  172,  176
         21     XW   436,  443,  464,  467
      60276    IMP   503
         10    INT   503
         30    NCD   503
        464    NXW   147,  304,  322
      64526    PBF   503
        261    RBA   237,  241
        434    RX1   220,  402
        432    RX4   217,  375,  401
      60260    SW1    56,  343,  503
      60257    TCP    66,  353,  503
      62737    TLD    62,  347,  503
      73353    TND    60,  345,  503
      60261   ALOG   503
         17   BASE   503
      60266   CDSW    54,  341,  503
      60265   DATE   503
      62730   DAWN    52,  337,  503
1            WRITE OR READ RESTORE FILE FOR DISK DUMPER....M.J.BAILEY,2/15/65    05/11/69 2014.4 PAGE 2
                        POST PROCESSOR ASSEMBLY DATA

         14   DINC   503
          2   DISK   503
      77440   DTLD   503
      61157   DUSK    72,  357,  503
      64544   ERAY   503
        176   EREX   206
        173   ERRA   135
        200   ERRB   142
        207   ERRC   152,  162,  166
        376   ERRD   253
        403   ERRE   272
        407   ERRF   277
        416   ERRG   305,  323
        426   ERRH   307,  317,  327,  421
        401   ERXR   406,  415
      62733   FEOF   503
      62040   ITB1   503
      61160   ITB2   503
        465   LBUF   141,  276
        472   MESA   423
      62740   MFDC    76,  363,  503
      62723   NFN1   503
      62721   NFN2   503
        467   NXWT   156,  313
          3   OPEN   127,  264
        436   SFNO    33,   35,   44,  111,  331
          3   TAPE   503
        466   TEMP   151,  161,  306,  316,  321
      60264   TIME   503
      62736   UFDC   503
          7  CLOSE   167,  203,  372,  412
      62731  DMPSW   503
      61156  ENDSW    70,  355,  503
      62734  EOFCT   503
        430  ERRH1
      73354  FLUSH   503
          6  FWAIT   163,  324,  416
         15  GDSIG   174,  201,  210,  377,  404,  410,  427
         13  IOBDT    25,  224
      63630  IOBUF   141,  276,  503
      62725  MFD1W   503
        440  NAME1    40,  236,  244,  261
        441  NAME2    42,  251,  257
         30  NHOUR   503
      77456  NMFDU    46,  333,  503
      77441  NXMPT   503
      60255  ODAWN    24,   74,  223,  361,  503
          2  PAUSE   503
      76500  PROBN   503
      76041  RCODE   503
       3300  TBSIZ   503
      60262  TFOSW    50,  335,  503
      62720  TNDSW   503
      70053  TPBUF   503
      76305  UFDNM   503
1            WRITE OR READ RESTORE FILE FOR DISK DUMPER....M.J.BAILEY,2/15/65    05/11/69 2014.4 PAGE 3
                        POST PROCESSOR ASSEMBLY DATA

         12  WRFLX    30,  227,  422
      60267 ARGLST   503
          0 ATTACH   106,  231
      74454 AUTOND   503
          4 BUFFER   136,  273
          1 CHFILE   114
          2 DELFIL   123
      74446 DEMKEY   503
      62726 DMPRGR   503
      62727 DMPUSR   503
        217 DRSTOR     0
         20 DTSAVE     0
          7 ENDTAP   503
          5 ENFLSH   503
      77457 ENTPSW   102,  367,  503
      62732 EOFCTA   503
        203 ERCLEX   212
        412 ERCLXR   431
         14 ERCODA   503
         16 ERCODB   503
          7 ERYSIZ   503
      77455 EXEMPT   503
      77460 FLSHSW   503
         10 FSTATE   242,  247
      62750 IOBUF2   503
      77461 KEYVAL   503
          1 LSDRUM   503
        470 LTLDFL   157,  314
          6 LVFLSH   503
      64510 MFDENT   503
      62735 MFDEOF   100,  365,  503
      74532 NUSERS   503
         14 PRNTER   173,  200,  207,  376,  403,  407,  426
      74650 PROBNO   157,  314,  503
      76144 PROGNO   503
         11 RDFILE   300,  310
        660 RECSIZ   503
      60254 REELNO   503
      60243 SKELSW   104,  371,  503
      74623 SYSDAT   503
      74624 SYSTIM   503
      60244 TAPEID   503
      60263 TCYCLE   503
      60256 TNDSAV    64,  351,  503
      64553 TPBUF2   503
      62741 UFDENT   503
      62747 UFDEOF   503
          5 WRFILE   143,  153

0 NO ERROR IN ABOVE ASSEMBLY.
1            THIS IS A COOL PROGRAM                                              05/11/69 2014.7 PAGE 1

                              *
                                     EXTERN  OPEN,BUFFER,CLOSE,RDFILE,WRFILE
                                     EXTERN  CHFILE,FWAIT,DELFIL,FSTATE
                              *
                       00013         ENTRY   PUTIN
                       00027         ENTRY   GETOUT
                              *

      00000  464725456060     OPEN
      00001  226426262551     BUFFER
      00002  234346622560     CLOSE
      00003  512426314325     RDFILE
      00004  665126314325     WRFILE
      00005  233026314325     CHFILE
      00006  266621316360     FWAIT
      00007  242543263143     DELFIL
      00010  266263216325     FSTATE


      00013 -0500 00 0 00150  PUTIN  CAL     =HW
      00014  0602 00 0 00140         SLW     STATUS
      00015 -0500 00 0 00142         CAL     WRITE
      00016  0602 00 0 00065         SLW     IO
      00017  0600 00 0 00134         STZ     FINGER
      00020  0634 00 4 00106         SXA     I4,4
      00021  0074 00 4 00002         TSX     CLOSE,4
 TD   00022  3 00000 0 00135         TXH     NAME1
 TD   00023  3 00000 0 00136         TXH     NAME2
 TD   00024  3 00000 0 00025         TXH     *+1
      00025  0074 00 4 00116         TSX     DELDRS,4
      00026  0020 00 0 00042         TRA     HOP
      00027 -0500 00 0 00147  GETOUT CAL     =HR
      00030  0602 00 0 00140         SLW     STATUS
      00031 -0500 00 0 00141         CAL     READ
      00032  0602 00 0 00065         SLW     IO
      00033 -0625 00 0 00134         STL     FINGER
      00034  0634 00 4 00106         SXA     I4,4
      00035  0074 00 4 00010         TSX     FSTATE,4
 TD   00036  3 00000 0 00135         TXH     NAME1
 TD   00037  3 00000 0 00136         TXH     NAME2
      00040  3 00001 0 00137         TXH     TEMP,,1
 TD   00041  3 00000 0 00112         TXH     ERROR
      00042  0634 00 2 00110  HOP    SXA     I2,2
      00043  0634 00 1 00107         SXA     I1,1
      00044  0534 00 4 00106         LXA     I4,4
      00045 -0500 00 4 00001         CAL     1,4
      00046  0621 00 0 00063         STA     BUFFAD
      00047 -0500 00 4 00002         CAL     2,4
      00050  0621 00 0 00071         STA     WHERE
      00051  0074 00 4 00000         TSX     OPEN,4
 TD   00052  3 00000 0 00140         TXH     STATUS
 TD   00053  3 00000 0 00135         TXH     NAME1
 TD   00054  3 00000 0 00136         TXH     NAME2
 TD   00055  3 00000 0 00145         TXH     =O120
 TD   00056  3 00000 0 00146         TXH     =-0
 TD   00057  3 00000 0 00112         TXH     ERROR
1            THIS IS A COOL PROGRAM                                              05/11/69 2014.7 PAGE 2

      00060  0074 00 4 00001         TSX     BUFFER,4
 TD   00061  3 00000 0 00135         TXH     NAME1
 TD   00062  3 00000 0 00136         TXH     NAME2
      00063  3 00660 0 00000  BUFFAD TXH     **,,432
 TD   00064  3 00000 0 00112         TXH     ERROR
      00065  0 00000 0 00000  IO     ***     **,,**
 TD   00066  3 00000 0 00135         TXH     NAME1
 TD   00067  3 00000 0 00136         TXH     NAME2
 TD   00070  3 00000 0 00144         TXH     =1
      00071  3 00003 0 00000  WHERE  TXH     **,,3
 TD   00072  3 00000 0 00112         TXH     ERROR
 TD   00073  3 00000 0 00137         TXH     TEMP
 TD   00074  3 00000 0 00112         TXH     ERROR
      00075  0074 00 4 00006         TSX     FWAIT,4
 TD   00076  3 00000 0 00135         TXH     NAME1
 TD   00077  3 00000 0 00136         TXH     NAME2
 TD   00100  3 00000 0 00112         TXH     ERROR
      00101  0074 00 4 00002         TSX     CLOSE,4
 TD   00102  3 00000 0 00135         TXH     NAME1
 TD   00103  3 00000 0 00136         TXH     NAME2
      00104  0520 00 0 00134         ZET     FINGER
      00105  0074 00 4 00116         TSX     DELDRS,4
      00106  0774 00 4 00000  I4     AXT     **,4
      00107  0774 00 1 00000  I1     AXT     **,1
      00110  0774 00 2 00000  I2     AXT     **,2
      00111  0020 00 4 00004         TRA     4,4
      00112  0534 00 4 00106  ERROR  LXA     I4,4
      00113  0534 00 1 00107         LXA     I1,1
      00114  0534 00 2 00110         LXA     I2,2
      00115  0020 60 4 00003         TRA*    3,4
                              *
      00116  0634 00 4 00132  DELDRS SXA     DEL4,4
      00117  0074 00 4 00005         TSX     CHFILE,4
 TD   00120  3 00000 0 00135         TXH     NAME1
 TD   00121  3 00000 0 00136         TXH     NAME2
 TD   00122  3 00000 0 00143         TXH     =0
 TD   00123  3 00000 0 00146         TXH     =-0
 TD   00124  3 00000 0 00146         TXH     =-0
 TD   00125  3 00000 0 00126         TXH     *+1
      00126  0074 00 4 00007         TSX     DELFIL,4
 TD   00127  3 00000 0 00135         TXH     NAME1
 TD   00130  3 00000 0 00136         TXH     NAME2
 TD   00131  3 00000 0 00132         TXH     *+1
      00132  0774 00 4 00000  DEL4   AXT     **,4
      00133  0020 00 4 00001         TRA     1,4
                              *
      00134  0 00000 0 00000  FINGER PZE
      00135  245162634651     NAME1  BCI     1,DRSTOR
      00136  263143253303     NAME2  BCI     1,FILE.3
      00137  0 00000 0 00000  TEMP   PZE
      00140  0 00000 0 00000  STATUS PZE
      00141  0074 00 4 00003  READ   TSX     RDFILE,4
      00142  0074 00 4 00004  WRITE  TSX     WRFILE,4
                                     END
1            THIS IS A COOL PROGRAM                                              05/11/69 2014.7 PAGE 1
                        POST PROCESSOR ASSEMBLY DATA

        151 IS THE FIRST LOCATION NOT USED BY THIS PROGRAM

0REFERENCES TO DEFINED SYMBOLS
        107     I1    43,  113
        110     I2    42,  114
        106     I4    20,   34,   44,  112
         65     IO    16,   32
         42    HOP    26
        132   DEL4   116
          0   OPEN    51
        141   READ    31
        137   TEMP    40,   73
          2  CLOSE    21,  101
        112  ERROR    41,   57,   64,   72,   74,  100
          6  FWAIT    75
        135  NAME1    22,   36,   53,   61,   66,   76,  102,  120,  127
        136  NAME2    23,   37,   54,   62,   67,   77,  103,  121,  130
         13  PUTIN     0
         71  WHERE    50
        142  WRITE    15
         63 BUFFAD    46
          1 BUFFER    60
          5 CHFILE   117
        116 DELDRS    25,  105
          7 DELFIL   126
        134 FINGER    17,   33,  104
         10 FSTATE    35
         27 GETOUT     0
          3 RDFILE   141
        140 STATUS    14,   30,   52
          4 WRFILE   142

0 NO ERROR IN ABOVE ASSEMBLY.
1     MAD PROGRAM LISTING ... ... ...                 FILE   NLREC   MAD            05/11/69    2014.8
-
                  EXTERNAL FUNCTION (NRECS,IRC,LRC,LTRC,LPREAM,LPHYS,NFLR,NLAST                   *001  000001
                1 )                                                                               *001  000002
                  ENTRY TO    NLREC .                                                             *002  000003
                  NWDS=(NRECS-1)*IRC+LRC                                                          *003  000004
                  NFLR=NWDS/LTRC                                                                  *004  000005
                  NLEFT=XMOD  .(    NWDS,LTRC)                                                    *005  000006
                  WHENEVER (NLEFT) .LE. 0, TRANSFER TO QQ0004                                     *006  000007
                  MLPH = NLEFT + LPREAM                                                           *007  000017
                  REM = MLPH - (MLPH/LPHYS)*LPHYS                                                 *008  000027
                  NLAST=(MLPH/LPHYS+(REM/REM))*LPHYS                                              *009  000037
                  TRANSFER TO QQ0005                                                              *010  000047
      QQ0004      NLAST=0                                                                         *011  000057
      QQ0005      FUNCTION RETURN                                                                 *012  000067
                  INTEGER     NWDS  ,     NRECS ,     IRC   ,     LRC                             *013  000077
                  INTEGER     NFLR  ,     LTRC  ,     NLEFT ,     XMOD                            *014  000087
                  INTEGER     NLAST ,     LPREAM,     LPHYS                                       *015  000097
                  INTEGER   MLPH,     REM                                                         *016  000107
                  END OF FUNCTION                                                                 *017  000117
1MAD PROGRAM,TYPE NOV 1963      (ALL NUMBERS ARE OCTAL)
0TOTAL LOCATIONS   00143 TRANSFER VECTOR LENGTH  00002 PROGRAM BEGINS    00014
0 PROGRAM IS AN EXTERNAL FUNCTION.   THE FOLLOWING ARE ENTRIES
      NLREC  00015   0
0VARIABLE STORAGE (A=ARRAY,C=COMMON,E=ERASABLE,DIGIT=MODE)
      MLPH   00005   1        NWDS   00007   1        QQ0004 00003   4        QQ0005 00004   4        REM    00010   1
      NLEFT  00006   1
0FUNCTION DICTIONARY
      EXIT   00000   0        XMOD   00001   1
0ABSOLUTE CONSTANTS
 00011 +000000000000     00012 +000000000001     00013 +233000000000
0STATEMENT DICTIONARY
 00003 TXL -300101000077       00004 TXL -300102000101
0PROGRAM
                 EXTERNAL FUNCTION (NRECS,IRC,LRC,LTRC,LPREAM,LPHYS,NFLR,NLAST      001   000001
                1)                                                                  001   000002
                 ENTRY TO    NLREC .                                                002   000003
 00014 TRA +0 02000 0 00017    00015 SXA +0 63400 2 00103    00016 TSX +0 07400 2 00103
                 NWDS=(NRECS-1)*IRC+LRC                                             003   000004
 00017 CLA +0 50000 0 00024    00020 SUB +0 40200 0 00012    00021 XCA +0 13100 0 00000    00022 MPY +0 20000 0 00024
 00023 XCA +0 13100 0 00000    00024 ADD +0 40000 0 00024    00025 STO +0 60100 0 00007
                 NFLR=NWDS/LTRC                                                     004   000005
 00026 LDQ +0 56000 0 00007    00027 PXD -0 75400 0 00000    00030 LLS +0 76300 0 00000    00031 DVP +0 22100 0 00024
 00032 STQ -0 60000 0 00024
                 NLEFT=XMOD  .(    NWDS,LTRC)                                       005   000006
 00033 TSX +0 07400 4 00001    00034 TXH +3 00000 0 00007    00035 TXH +3 00000 0 00024    00036 STO +0 60100 0 00006
                 WHENEVER (NLEFT) .LE. 0, TRANSFER TO QQ0004                        006   000007
 00037 CLA +0 50000 0 00006    00040 SUB +0 40200 0 00011    00041 TZE +0 10000 0 00043    00042 TPL +0 12000 0 00044
 00043 TRA +0 02000 0 00003
                 MLPH = NLEFT + LPREAM                                              007   000017
 00044 CLA +0 50000 0 00006    00045 ADD +0 40000 0 00024    00046 STO +0 60100 0 00005
                 REM = MLPH - (MLPH/LPHYS)*LPHYS                                    008   000027
 00047 LDQ +0 56000 0 00005    00050 PXD -0 75400 0 00000    00051 LLS +0 76300 0 00000    00052 DVP +0 22100 0 00024
 00053 MPY +0 20000 0 00024    00054 XCA +0 13100 0 00000    00055 CHS +0 76000 0 00002    00056 ADD +0 40000 0 00005
 00057 STO +0 60100 0 00010
                 NLAST=(MLPH/LPHYS+(REM/REM))*LPHYS                                 009   000037
 00060 LDQ +0 56000 0 00010    00061 PXD -0 75400 0 00000    00062 LLS +0 76300 0 00000    00063 DVP +0 22100 0 00010
 00064 STQ -0 60000 0 00140    00065 LDQ +0 56000 0 00005    00066 PXD -0 75400 0 00000    00067 LLS +0 76300 0 00000
 00070 DVP +0 22100 0 00024    00071 XCA +0 13100 0 00000    00072 ADD +0 40000 0 00140    00073 XCA +0 13100 0 00000
 00074 MPY +0 20000 0 00024    00075 STQ -0 60000 0 00024
                 TRANSFER TO QQ0005                                                 010   000047
 00076 TRA +0 02000 0 00004
      QQ0004     NLAST=0                                                            011   000057
 00077 CLA +0 50000 0 00011    00100 STO +0 60100 0 00024
      QQ0005     FUNCTION RETURN                                                    012   000067
 00101 TRA +0 02000 0 00134
                 INTEGER     NWDS  ,     NRECS ,     IRC   ,     LRC                013   000077
                 INTEGER     NFLR  ,     LTRC  ,     NLEFT ,     XMOD               014   000087
                 INTEGER     NLAST ,     LPREAM,     LPHYS                          015   000097
                 INTEGER   MLPH,     REM                                            016   000107
                 END OF FUNCTION                                                    017   000117
 00102 TSX +0 07400 4 00000    00103 TXH +3 00000 0 00000    00104 SXD -0 63400 1 00103    00105 SXA +0 63400 4 00134
 00106 CLA +0 50000 4 00001    00107 STA +0 62100 0 00017    00110 CLA +0 50000 4 00002    00111 STA +0 62100 0 00022
 00112 CLA +0 50000 4 00003    00113 STA +0 62100 0 00024    00114 CLA +0 50000 4 00004    00115 STA +0 62100 0 00031
 00116 STO +0 60100 0 00035    00117 CLA +0 50000 4 00005    00120 STA +0 62100 0 00045    00121 CLA +0 50000 4 00006
 00122 STA +0 62100 0 00052    00123 STA +0 62100 0 00053    00124 STA +0 62100 0 00070    00125 STA +0 62100 0 00074
 00126 CLA +0 50000 4 00007    00127 STA +0 62100 0 00032    00130 CLA +0 50000 4 00010    00131 STA +0 62100 0 00075
 00132 STA +0 62100 0 00100    00133 TRA +0 02000 2 00001    00134 AXT +0 77400 4 00000    00135 LXA +0 53400 2 00103
 00136 LXD -0 53400 1 00103    00137 TRA +0 02000 4 00001
1     FAP ASSEMBLY LISTING  ...  ...  ...        FILE PRCODE _____FAP___         05/11/69 2014.9 PAGE 1

                       00003         ENTRY   PRCODE
                                     EXTERN  WRFLX

        TRANSFER VECTOR
      00000  665126436760     WRFLX

            LINKAGE DIRECTOR
      00001  000000000000
      00002  475123462425

      00003  0634 00 1 00042  PRCODE SXA     P1,1
      00004  0634 00 4 00043         SXA     P4,4
      00005 -0500 00 4 00001         CAL     1,4
      00006  0400 00 0 00063         ADD     =O17
      00007  0322 00 0 00064         ERA     =O506060600000
      00010 -0765 00 0 00014         LGR     12
      00011 -0773 00 0 00006         RQL     6
      00012  0774 00 1 00002         AXT     2,1
      00013  0767 00 0 00003         ALS     3
      00014 -0763 00 0 00003         LGL     3
      00015  2 00001 1 00013         TIX     *-2,1,1
      00016  0602 00 0 00047         SLW     MESX+2
      00017 -0500 00 4 00002         CAL     2,4
      00020 -0734 00 1 00000         PDX     ,1
      00021 -0634 00 1 00030         SXD     INC,1
      00022 -0634 00 1 00031         SXD     INC+1,1
      00023  0634 00 1 00034         SXA     INC+4,1
      00024  1 00003 1 00025         TXI     *+1,1,3
      00025 -0634 00 1 00041         SXD     PRNT,1
      00026  0734 00 1 00000         PAX     ,1
      00027  0774 00 4 00050         AXT     MESX+3,4
      00030  1 00000 1 00031  INC    TXI     *+1,1,**
      00031  1 00000 4 00032         TXI     *+1,4,**
      00032  0634 00 1 00035         SXA     FROM,1
      00033  0634 00 4 00036         SXA     TO,4
      00034  0774 00 1 00000         AXT     **,1
      00035 -0500 00 1 00000  FROM   CAL     **,1
      00036  0602 00 1 00000  TO     SLW     **,1
      00037  2 00001 1 00035         TIX     *-2,1,1
      00040  0074 00 4 00000         TSX     WRFLX,4
      00041  0 00000 0 00045  PRNT           MESX,,**
      00042  0774 00 1 00000  P1     AXT     **,1
      00043  0774 00 4 00000  P4     AXT     **,4
      00044  0020 00 4 00003         TRA     3,4
                              *
      00045  622563604225     MESX   BCI     2,SET KEY CODE
      00046  706023462425
      00047                          BSS     12
                                     END

        LITERALS
      00063  000000000017
      00064  506060600000
1     FAP ASSEMBLY LISTING  ...  ...  ...        FILE PRCODE _____FAP___         05/11/69 2014.9 PAGE 1
                        POST PROCESSOR ASSEMBLY DATA

         65 IS THE FIRST LOCATION NOT USED BY THIS PROGRAM

0REFERENCES TO DEFINED SYMBOLS
         42     P1     3
         43     P4     4
         36     TO    33
         30    INC    21,   22,   23
         35   FROM    32
         45   MESX    16,   27,   41
         41   PRNT    25
          0  WRFLX    40
          3 PRCODE     0

0 NO ERROR IN ABOVE ASSEMBLY.
1     MAD PROGRAM LISTING ... ... ...                 FILE  SETTIM   MAD            05/11/69    2015.2
-
                 ...SUBROUTINE TO SET UP JULIAN TIME FROM I/O SYSTEM TIME                               000010
                 ...AND VICE-VERSA                                                                      000020
                 ...                                                                                    000030
                  EXTERNAL FUNCTION ( IOSTIM, JULIAN )                                            *001  000040
                                                                                                        000050
                  INSERT FILE DEFINE                                                              *002  000060
                  DEFINE BINARY OPERATOR .X., PRECEDENCE SAME AS =                                *003   00010
                  MODE STRUCTURE 0 .X. 0 TO 0                                                     *004   00020
             CLA  A                                                                               *005   00030
             LDQ  B                                                                               *006   00040
             STQ  A                                                                               *007   00050
             STO  B                                                                               *008   00060
             OUT  Z                                                                               *009   00070
             END                                                                                  *010   00080
                                                                                                         00090
                  MODE STRUCTURE 1 .X. 1 TO 1, SAME SEQUENCE AS 0 .X. 0                           *011   00100
                  MODE STRUCTURE 2 .X. 2 TO 2, SAME SEQUENCE AS 0 .X. 0                           *012   00110
                  MODE STRUCTURE 3 .X. 3 TO 3, SAME SEQUENCE AS 0 .X. 0                           *013   00120
                  MODE STRUCTURE 4 .X. 4 TO 4, SAME SEQUENCE AS 0 .X. 0                           *014   00130
                                                                                                         00140
                                                                                                         00150
                  DEFINE BINARY OPERATOR .R., PRECEDENCE SAME AS .RS.                             *015   00160
                  MODE STRUCTURE 1 .R. 1 TO 1                                                     *016   00170
             JMP  *+1,LA,*+3                                                                      *017   00180
             SLW  T                                                                               *018   00190
             JMP  *+10                                                                            *019   00200
             JMP  *+3,AT,*+1                                                                      *020   00210
             JMP  *+7,AC,*+1                                                                      *021   00220
             JMP  *+4,MQ,*+7                                                                      *022   00230
             JMP  *+1,AC,*+7                                                                      *023   00240
             LRS  35                                                                              *024   00250
             JMP  *+6                                                                             *025   00260
             STQ  T                                                                               *026   00270
             JMP  *+2                                                                             *027   00280
             STO  T                                                                               *028   00290
             LDQ  A                                                                               *029   00300
             PXD                                                                                  *030   00310
             DVP  B                                                                               *031   00320
             OUT  AC                                                                              *032   00330
             END                                                                                  *033   00340
                                                                                                         00350
                                                                                                         00360
                                                                                                         00370
                                                                                                         00380
                                                                                                  *002  000070
                  ENTRY TO SETJUL.                                                                *034  000080
                 ...THIS ENTRY SETS JULIAN FROM IOSTIM.                                                 000090
                 ...                                                                                    000100
                  YR = ( IOSTIM .A. 777K9 ) .RS. 27                                               *035  000110
                  MTH = ( IOSTIM .A. 74K7 ) .RS. 23                                               *036  000120
                  DAY = ( IOSTIM .A. 37K6 ) .RS. 18                                               *037  000130
                  SEC = ( IOSTIM .A. 777777K )                                                    *038  000140
                 ...                                                                                    000150
                  WHENEVER ( YR .R. 4 ) .E. 0 .AND. MTH .G. 2                                     *039  000160
                   JULIAN = 1                                                                     *040  000170
                  OTHERWISE                                                                       *041  000180
                   JULIAN = 0                                                                     *042  000190
                  END OF CONDITIONAL                                                              *043  000200
                 ...                                                                                    000210
                  WHENEVER MTH .G. 12 .OR. DAY .G. 365+JULIAN .OR. SEC .G. 86400,                 *044  000220
                1    FUNCTION RETURN 0                                                            *044  000230
                  YR = YR-65                                                                      *045  000240
                  JULIAN = (YR*YRXX) + (JDAYTB(MTH)+DAY+JULIAN)*DAYXX + SEC                       *046  000250
                  FUNCTION RETURN JULIAN                                                          *047  000260
                 ...                                                                                    000270
                  ENTRY TO SETIOT.                                                                *048  000280
                 ...THIS ENTRY SETS IOSTIM FROM JULIAN                                                  000290
                 ...                                                                                    000300
                  YR = JULIAN/YRXX                                                                *049  000310
                  DAY = (JULIAN-YRXX*YR)/ DAYXX                                                   *050  000320
                  SEC = JULIAN .R. (YR*YRXX + DAY*DAYXX)                                          *051  000330
                  YR = YR + 65                                                                    *052  000340
                 ...                                                                                    000350
                  WHENEVER DAY .G. 366 .OR. SEC .G. 86400, FUNCTION RETURN 0                      *053  000360
      SETS1       THROUGH SETS1, FOR MTH = 1, 1, JDAYTB(MTH+1) .GE. DAY                           *054  000370
                  WHENEVER MTH .L. 0 .OR. MTH .G. 12, FUNCTION RETURN 0                           *055  000380
                  DAY = DAY - JDAYTB(MTH)                                                         *056  000400
                  IOSTIM = (YR .LS. 27) .V. (MTH .LS. 23) .V. (DAY .LS. 18) .V.                   *057  000410
                1    SEC                                                                          *057  000420
                  FUNCTION RETURN IOSTIM                                                          *058  000430
                 ...                                                                                    000440
                 ...                                                                                    000450
                  INTEGER YR,MTH,DAY,SEC,JULIAN,IOSTIM,YRXX,DAYXX,JDAYTB                          *059  000460
                  DIMENSION JDAYTB(13)                                                            *060  000500
                  VECTOR VALUES YRXX =  31536000                                                  *061  000510
                  VECTOR VALUES DAYXX =  86400                                                    *062  000520
                  VECTOR VALUES JDAYTB =0,0,31,59,90,120,151,181,212,243,273,304,334,365          *063  000530
                  END OF FUNCTION                                                                 *064  000540
                                         MODE STRUCTURE 0 .X. 0 TO 0          004    00020
 (THE NUMERIC FORM OF THE OPERATOR-MODE ARGUMENT IS    11100 )
                 MODE STRUCTURE 1 .X. 1 TO 1, SAME SEQUENCE AS 0 .X. 0        011    00100
 (THE NUMERIC FORM OF THE OPERATOR-MODE ARGUMENT IS    11111 )
                 MODE STRUCTURE 2 .X. 2 TO 2, SAME SEQUENCE AS 0 .X. 0        012    00110
 (THE NUMERIC FORM OF THE OPERATOR-MODE ARGUMENT IS    11122 )
                 MODE STRUCTURE 3 .X. 3 TO 3, SAME SEQUENCE AS 0 .X. 0        013    00120
 (THE NUMERIC FORM OF THE OPERATOR-MODE ARGUMENT IS    11133 )
                 MODE STRUCTURE 4 .X. 4 TO 4, SAME SEQUENCE AS 0 .X. 0        014    00130
 (THE NUMERIC FORM OF THE OPERATOR-MODE ARGUMENT IS    11144 )
                                         MODE STRUCTURE 1 .R. 1 TO 1          016    00170
 (THE NUMERIC FORM OF THE OPERATOR-MODE ARGUMENT IS    11211 )
1MAD PROGRAM,TYPE NOV 1963      (ALL NUMBERS ARE OCTAL)
0TOTAL LOCATIONS   00354 TRANSFER VECTOR LENGTH  00001 PROGRAM BEGINS    00047
0 PROGRAM IS AN EXTERNAL FUNCTION.   THE FOLLOWING ARE ENTRIES
      SETIOT 00166   0        SETJUL 00050   0
0VARIABLE STORAGE (A=ARRAY,C=COMMON,E=ERASABLE,DIGIT=MODE)
      DAY    00002   1        JDAYTB 00021 A 1        SEC    00023   1        YR     00024   1        YRXX   00025 A 1
      DAYXX  00003 A 1        MTH    00022   1        SETS1  00001   4
0FUNCTION DICTIONARY
      EXIT   00000   0
0ABSOLUTE CONSTANTS
 00040 +000000000556     00036 +000000000101     00032 +000000000014     00037 +000000000555     00041 +000000250600
 00026 +000000000000     00031 +000000000004     00030 +000000000002     00042 +000000777777     00033 +000000000022
 00043 +000037000000     00034 +000000000027     00044 +000740000000     00035 +000000000033     00046 -377000000000
 00027 +000000000001     00045 +233000000000
0PROGRAM
                 EXTERNAL FUNCTION ( IOSTIM, JULIAN )                               001   000040
                 INSERT FILE DEFINE                                                 002   000060
                 DEFINE BINARY OPERATOR .X., PRECEDENCE SAME AS =                   003    00010
                 MODE STRUCTURE 0 .X. 0 TO 0                                        004    00020
                 MODE STRUCTURE 1 .X. 1 TO 1, SAME SEQUENCE AS 0 .X. 0              011    00100
                 MODE STRUCTURE 2 .X. 2 TO 2, SAME SEQUENCE AS 0 .X. 0              012    00110
                 MODE STRUCTURE 3 .X. 3 TO 3, SAME SEQUENCE AS 0 .X. 0              013    00120
                 MODE STRUCTURE 4 .X. 4 TO 4, SAME SEQUENCE AS 0 .X. 0              014    00130
                 DEFINE BINARY OPERATOR .R., PRECEDENCE SAME AS .RS.                015    00160
                 MODE STRUCTURE 1 .R. 1 TO 1                                        016    00170
                 ENTRY TO SETJUL.                                                   034   000080
 00047 TRA +0 02000 0 00052    00050 SXA +0 63400 2 00317    00051 TSX +0 07400 2 00317
                 YR = ( IOSTIM .A. 777K9 ) .RS. 27                                  035   000110
 00052 CAL -0 50000 0 00024    00053 ANA -0 32000 0 00046    00054 SLW +0 60200 0 00350    00055 CAL -0 50000 0 00035
 00056 STA +0 62100 0 00060    00057 CAL -0 50000 0 00350    00060 LGR -0 76500 0 00000    00061 SLW +0 60200 0 00024
                 MTH = ( IOSTIM .A. 74K7 ) .RS. 23                                  036   000120
 00062 CAL -0 50000 0 00024    00063 ANA -0 32000 0 00044    00064 SLW +0 60200 0 00350    00065 CAL -0 50000 0 00034
 00066 STA +0 62100 0 00070    00067 CAL -0 50000 0 00350    00070 LGR -0 76500 0 00000    00071 SLW +0 60200 0 00022
                 DAY = ( IOSTIM .A. 37K6 ) .RS. 18                                  037   000130
 00072 CAL -0 50000 0 00024    00073 ANA -0 32000 0 00043    00074 SLW +0 60200 0 00350    00075 CAL -0 50000 0 00033
 00076 STA +0 62100 0 00100    00077 CAL -0 50000 0 00350    00100 LGR -0 76500 0 00000    00101 SLW +0 60200 0 00002
                 SEC = ( IOSTIM .A. 777777K )                                       038   000140
 00102 CAL -0 50000 0 00024    00103 ANA -0 32000 0 00042    00104 SLW +0 60200 0 00023
                 W'R ( YR .R. 4 ) .E. 0 .AND. MTH .G. 2                             039   000160
 00105 CLA +0 50000 0 00022    00106 SUB +0 40200 0 00030    00107 TZE +0 10000 0 00121    00110 TMI -0 12000 0 00121
 00111 LDQ +0 56000 0 00024    00112 PXD -0 75400 0 00000    00113 DVP +0 22100 0 00031    00114 SUB +0 40200 0 00026
 00115 TNZ -0 10000 0 00121
                  JULIAN = 1                                                        040   000170
 00116 CLA +0 50000 0 00027    00117 STO +0 60100 0 00024
                 O'E                                                                041   000180
 00120 TRA +0 02000 0 00123
                  JULIAN = 0                                                        042   000190
 00121 CLA +0 50000 0 00026    00122 STO +0 60100 0 00024
                 E'L                                                                043   000200
                 W'R MTH .G. 12 .OR. DAY .G. 365+JULIAN .OR. SEC .G. 86400,         044   000220
                1   FUNCTION RETURN 0                                               044   000230
 00123 CLA +0 50000 0 00023    00124 SUB +0 40200 0 00041    00125 TZE +0 10000 0 00127    00126 TPL +0 12000 0 00141
 00127 CLA +0 50000 0 00037    00130 ADD +0 40000 0 00024    00131 CHS +0 76000 0 00002    00132 ADD +0 40000 0 00002
 00133 TZE +0 10000 0 00135    00134 TPL +0 12000 0 00141    00135 CLA +0 50000 0 00022    00136 SUB +0 40200 0 00032
 00137 TZE +0 10000 0 00143    00140 TMI -0 12000 0 00143    00141 CLA +0 50000 0 00026    00142 TRA +0 02000 0 00344
                 YR = YR-65                                                         045   000240
 00143 CLA +0 50000 0 00024    00144 SUB +0 40200 0 00036    00145 STO +0 60100 0 00024
                 JULIAN = (YR*YRXX) + (JDAYTB(MTH)+DAY+JULIAN)*DAYXX + SEC          046   000250
 00146 LXA +0 53400 1 00022    00147 CLA +0 50000 1 00021    00150 ADD +0 40000 0 00002    00151 ADD +0 40000 0 00024
 00152 XCA +0 13100 0 00000    00153 MPY +0 20000 0 00003    00154 STQ -0 60000 0 00350    00155 LDQ +0 56000 0 00024
 00156 MPY +0 20000 0 00025    00157 XCA +0 13100 0 00000    00160 ADD +0 40000 0 00350    00161 ADD +0 40000 0 00023
 00162 STO +0 60100 0 00024
                 F'N JULIAN                                                         047   000260
 00163 CLA +0 50000 0 00024    00164 TRA +0 02000 0 00344
                 ENTRY TO SETIOT.                                                   048   000280
 00165 TRA +0 02000 0 00170    00166 SXA +0 63400 2 00317    00167 TSX +0 07400 2 00317
                 YR = JULIAN/YRXX                                                   049   000310
 00170 LDQ +0 56000 0 00024    00171 PXD -0 75400 0 00000    00172 LLS +0 76300 0 00000    00173 DVP +0 22100 0 00025
 00174 STQ -0 60000 0 00024
                 DAY = (JULIAN-YRXX*YR)/ DAYXX                                      050   000320
 00175 LDQ +0 56000 0 00025    00176 MPY +0 20000 0 00024    00177 XCA +0 13100 0 00000    00200 CHS +0 76000 0 00002
 00201 ADD +0 40000 0 00024    00202 LRS +0 76500 0 00043    00203 DVP +0 22100 0 00003    00204 STQ -0 60000 0 00002
                 SEC = JULIAN .R. (YR*YRXX + DAY*DAYXX)                             051   000330
 00205 LDQ +0 56000 0 00002    00206 MPY +0 20000 0 00003    00207 STQ -0 60000 0 00350    00210 LDQ +0 56000 0 00024
 00211 MPY +0 20000 0 00025    00212 XCA +0 13100 0 00000    00213 ADD +0 40000 0 00350    00214 STO +0 60100 0 00350
 00215 LDQ +0 56000 0 00024    00216 PXD -0 75400 0 00000    00217 DVP +0 22100 0 00350    00220 STO +0 60100 0 00023
                 YR = YR + 65                                                       052   000340
 00221 CLA +0 50000 0 00024    00222 ADD +0 40000 0 00036    00223 STO +0 60100 0 00024
                 W'R DAY .G. 366 .OR. SEC .G. 86400, FUNCTION RETURN 0              053   000360
 00224 CLA +0 50000 0 00023    00225 SUB +0 40200 0 00041    00226 TZE +0 10000 0 00230    00227 TPL +0 12000 0 00234
 00230 CLA +0 50000 0 00002    00231 SUB +0 40200 0 00040    00232 TZE +0 10000 0 00236    00233 TMI -0 12000 0 00236
 00234 CLA +0 50000 0 00026    00235 TRA +0 02000 0 00344
      SETS1      T'H SETS1, FOR MTH = 1, 1, JDAYTB(MTH+1) .GE. DAY                  054   000370
 00236 CLA +0 50000 0 00027    00237 STO +0 60100 0 00022    00240 TRA +0 02000 0 00244    00241 CLA +0 50000 0 00022
 00242 ADD +0 40000 0 00027    00243 STO +0 60100 0 00022    00244 CLA +0 50000 0 00022    00245 ADD +0 40000 0 00027
 00246 PAX +0 73400 1 00000    00247 CLA +0 50000 1 00021    00250 SUB +0 40200 0 00002    00251 TZE +0 10000 0 00254
 00252 TPL +0 12000 0 00254    00253 TRA +0 02000 0 00241
                 W'R MTH .L. 0 .OR. MTH .G. 12, FUNCTION RETURN 0                   055   000380
 00254 CLA +0 50000 0 00022    00255 SUB +0 40200 0 00032    00256 TZE +0 10000 0 00260    00257 TPL +0 12000 0 00264
 00260 CLA +0 50000 0 00022    00261 SUB +0 40200 0 00026    00262 TZE +0 10000 0 00266    00263 TPL +0 12000 0 00266
 00264 CLA +0 50000 0 00026    00265 TRA +0 02000 0 00344
                 DAY = DAY - JDAYTB(MTH)                                            056   000400
 00266 LXA +0 53400 2 00022    00267 CLA +0 50000 0 00002    00270 SUB +0 40200 2 00021    00271 STO +0 60100 0 00002
                 IOSTIM = (YR .LS. 27) .V. (MTH .LS. 23) .V. (DAY .LS. 18) .V.      057   000410
                1   SEC                                                             057   000420
 00272 CAL -0 50000 0 00033    00273 STA +0 62100 0 00275    00274 CAL -0 50000 0 00002    00275 ALS +0 76700 0 00000
 00276 SLW +0 60200 0 00350    00277 CAL -0 50000 0 00034    00300 STA +0 62100 0 00302    00301 CAL -0 50000 0 00022
 00302 ALS +0 76700 0 00000    00303 SLW +0 60200 0 00351    00304 CAL -0 50000 0 00035    00305 STA +0 62100 0 00307
 00306 CAL -0 50000 0 00024    00307 ALS +0 76700 0 00000    00310 ORA -0 50100 0 00351    00311 ORA -0 50100 0 00350
 00312 ORA -0 50100 0 00023    00313 SLW +0 60200 0 00024
                 F'N IOSTIM                                                         058   000430
 00314 CLA +0 50000 0 00024    00315 TRA +0 02000 0 00344
                 INTEGER YR,MTH,DAY,SEC,JULIAN,IOSTIM,YRXX,DAYXX,JDAYTB             059   000460
                 DIMENSION JDAYTB(13)                                               060   000500
                 VECTOR VALUES YRXX =  31536000                                     061   000510
 00025     +0 00170 2 31600
                 VECTOR VALUES DAYXX =  86400                                       062   000520
 00003     +0 00000 2 50600
                 V'S JDAYTB =0,0,31,59,90,120,151,181,212,243,273,304,334,365       063   000530
 00004     +0 00000 0 00555    00005     +0 00000 0 00516    00006     +0 00000 0 00460    00007     +0 00000 0 00421
 00010     +0 00000 0 00363    00011     +0 00000 0 00324    00012     +0 00000 0 00265    00013     +0 00000 0 00227
 00014     +0 00000 0 00170    00015     +0 00000 0 00132    00016     +0 00000 0 00073    00017     +0 00000 0 00037
 00020     +0 00000 0 00000    00021     +0 00000 0 00000
                 END OF FUNCTION                                                    064   000540
 00316 TSX +0 07400 4 00000    00317 TXH +3 00000 0 00000    00320 SXD -0 63400 1 00317    00321 SXA +0 63400 4 00344
 00322 CLA +0 50000 4 00001    00323 STA +0 62100 0 00052    00324 STA +0 62100 0 00062    00325 STA +0 62100 0 00072
 00326 STA +0 62100 0 00102    00327 STA +0 62100 0 00313    00330 STA +0 62100 0 00314    00331 CLA +0 50000 4 00002
 00332 STA +0 62100 0 00117    00333 STA +0 62100 0 00122    00334 STA +0 62100 0 00130    00335 STA +0 62100 0 00151
 00336 STA +0 62100 0 00162    00337 STA +0 62100 0 00163    00340 STA +0 62100 0 00170    00341 STA +0 62100 0 00201
 00342 STA +0 62100 0 00215    00343 TRA +0 02000 2 00001    00344 AXT +0 77400 4 00000    00345 LXA +0 53400 2 00317
 00346 LXD -0 53400 1 00317    00347 TRA +0 02000 4 00001
1      XMOD          REMAINDERING ARG1(MOD ARG2)                                 05/11/69 2015.2 PAGE 1

                              *              CALLING SEQUENCE TSX XMOD,4
                              *                               TXH ARG1(FIXED)
                              *                               TXH ARG2(FIXED)
                              *                               3,4 RETURN
                              *              FUNCTION FIXED
                       00002         ENTRY   XMOD

            LINKAGE DIRECTOR
      00000  000000000000
      00001  674446246060

      00002  0760 00 0 00000  XMOD   CLM
      00003  0560 60 4 00001         LDQ*    1,4
 A    00004  0763 00 0 00000         LLS                   SIGN OF MQ TO AC
      00005  0221 60 4 00002         DVP*    2,4
      00006  0020 00 4 00003         TRA     3,4
                                                           FUNCTION IN ARITHMETIC AC FIXED
                                     END
1      XMOD          REMAINDERING ARG1(MOD ARG2)                                 05/11/69 2015.2 PAGE 1
                        POST PROCESSOR ASSEMBLY DATA

          7 IS THE FIRST LOCATION NOT USED BY THIS PROGRAM

0REFERENCES TO DEFINED SYMBOLS
          2   XMOD     0

0 NO ERROR IN ABOVE ASSEMBLY.


DSLOAD   BCD 05/11/69 2037.2   44083         00000
1            LOAD SECONDARY STORAGE (TIME-SHARING VERSION)...M.J.BAILEY,2/1/65   05/11/69 2001.5 PAGE 1

                              *
                                     EXTERN  INITTF,OPENDF
                                     EXTERN  LTFILE,TERMTF,GETLSG
                                     EXTERN  ATTACH,TAPFIL,MOUNT,VERIFY
                                     EXTERN  WRFLX,FERRTN,TILOCK,UMOUNT,CLOSE,
                                     EXTERN  SETCLS,SETCLC,CHNCOM,SLEEP
                                     EXTERN  CHFILE,DELFIL
                              *
                                     INSERT  BMCRSC
                              *
                              *  ZERO-IZE A THROUGH A+X-1
                              *
                               CLEAR MACRO   A,X
                                     AXT     X,1
                                     STZ     A+X,1
                                     TIX     *-1,1,1
                               CLEAR END
                              *
                              *      MOVE X WORDS FROM A ET SEQ TO B ET SEQ
                              *
                               MOVE  MACRO   X,A,B
                                     AXT     X,1
                                     CAL     A+X,1
                                     SLW     B+X,1
                                     TIX     *-2,1,1
                               MOVE  END
                              *
                              *  PRINT ONE LINE COMMENT
                              *
                              PRLINE MACRO   COMNT,NWC,LOC
                                     TSX     WRFLX,4
                                             LOC,,NWC
                                     RMT
                               LOC   BCI     NWC,COMNT
                                     RMT
                              PRLINE END
                              *
                              *
                              *      EXECUTE INST. IN CORE A
                              *
                              *
                              EXEC   MACRO   OPC,ADD
                                     TSX     $GETA,7
                                     OPC     ADD
                              EXEC   END
                              *
                              *      GET KEY SETTING VIA SUPERVISOR, SET ABANTP, NOCHAN IF APPROPRIATE
                              *
                              GETSIG MACRO
                                     TSX     GETLSG,4
                              GETSIG END
                              *
                              *      TEST WHETHER 2ND TAPE COPY IS NEEDED, IF NOT GO TO SKIP
                              *
                              SKIFNB MACRO   SKIP
                                     CLA     NOCHAN
1            LOAD SECONDARY STORAGE (TIME-SHARING VERSION)...M.J.BAILEY,2/1/65   05/11/69 2001.5 PAGE 2

                                     SUB     =1
                                     TZE     SKIP
                              SKIFNB END
                              *
                              *      PRINT AN N-WORD MESSAGE FROM  MESSGE
                              *
                              PRM    MACRO   MESSGE,N
                                     TSX     WRFLX,4
                                             MESSGE,,N
                              PRM    END
                              *
                              *      COMPARE 2 SETS OF N CONSECUTIVE WORDS IN A ETC., AND B ETC. ,
                              *      AND IF THEY DO NOT ALL MATCH, GO TO NF, OR OTHERWISE CONTINUE.
                              *
                              CMPWDS MACRO   N,A,B,NF
                                     AXT     N,1
                                     CAL     A+N,1
                                     LAS     B+N,1
                                     TRA     NF
                                     TRA     *+2
                                     TRA     NF
                                     TIX     *-5,1,1
                              CMPWDS END
                              *
                              *      WAIT FOR I/O ON FILE (A,B) TO END, GO TO E IF ERROR OCCURRED
                              *
                              WAIT   MACRO   A,B,E
                                     TSX     FWAIT,4
                                     PTH     A
                                     PTH     B
                                     PTH     E
                              WAIT   END
                              *
                              *      CLOSE THE FILE (A,B)
                              *
                              CLOSE  MACRO   A,B
                                     TSX     CLOSE,4
                                     PTH     A
                                     PTH     B
                              CLOSE  END
                              *
                              *  -  -  -  -  -  -  -  -  -  -  -  -  -  -  -  -  -  -  -  -  -  -
                              *      INITIALIZE I/O SYSTEM AND VARIABLES
                              *  -  -  -  -  -  -  -  -  -  -  -  -  -  -  -  -  -  -  -  -  -  -  -
                              *

      00000  314531636326     INITTF
      00001  464725452426     OPENDF
      00002  436326314325     LTFILE
      00003  632551446326     TERMTF
      00004  272563436227     GETLSG
      00005  216363212330     ATTACH
      00006  632147263143     TAPFIL
      00007  444664456360     MOUNT
      00010  652551312670     VERIFY
      00011  665126436760     WRFLX
1            LOAD SECONDARY STORAGE (TIME-SHARING VERSION)...M.J.BAILEY,2/1/65   05/11/69 2001.5 PAGE 3

      00012  262551516345     FERRTN
      00013  633143462342     TILOCK
      00014  644446644563     UMOUNT
      00015  234346622560     CLOSE
      00016  622563234362     SETCLS
      00017  622563234323     SETCLC
      00020  233045234644     CHNCOM
      00021  624325254760     SLEEP
      00022  233026314325     CHFILE
      00023  242543263143     DELFIL
      00024  475145632551     PRNTER
      00025  216242464751     ASKOPR
      00026  512523214760     RECAP

      00027  0760 00 0 00016         LMTM
      00030 -0500 00 0 00452         CAL     =H C0056
      00031  0602 00 0 74442         SLW     DU
      00032 -0500 00 0 00451         CAL     =H 99999
      00033  0602 00 0 74441         SLW     DP
                              *
                              *
      00034 -0500 00 0 00445         CAL     =H.LOAD.
      00035  0602 00 0 74440         SLW     LFNA
      00036 -0500 00 0 00446         CAL     =H.TAPE.
      00037  0602 00 0 74437         SLW     LFNB
      00040  0500 00 0 00445         CLA     =H.LOAD.
      00041  0602 00 0 74422         SLW     BFNA
      00042  0500 00 0 00443         CLA     =HB.COPY
      00043  0602 00 0 74421         SLW     BFNB
      00044  0074 00 4 00005         TSX     ATTACH,4
 TD   00045  3 00000 0 74442         TXH     DU
 TD   00046  3 00000 0 74441         TXH     DP
                              *
      00047  0074 00 4 00012         TSX     FERRTN,4      SET TRANSFER ADDRESS FOR UNSPECIFIED
      00050  0 00000 0 00072         PZE     ELOC          I/O SYSTEM ERROR RETURNS
      00051  0074 00 4 00013         TSX     TILOCK,4      NO TRAP GO DORMANT IF EVER READ-
      00052  0 00000 0 00435         PZE     =0            INTERLOCKED FROM A USER'S FILE.
                              *
      00053  0074 00 4 00016         TSX     SETCLS,4
      00054  0 00001 0 00276         PZE     COMD,,1
      00055  0074 00 4 00016         TSX     SETCLS,4
      00056  0 00002 0 00276         PZE     COMD,,2
      00057 -0500 00 0 00404         CAL     CHNWRD
      00060  0074 00 4 00017         TSX     SETCLC,4
      00061  0074 00 4 00015         TSX     CLOSE,4       CLOSE ALL FILES
 TD   00062  3 00000 0 00442         TXH     =HALL
 TD   00063  3 00000 0 00447         TXH     =-0
 TD   00064  3 00000 0 00065         TXH     *+1
      00065  0074 00 4 00014         TSX     UMOUNT,4
 TD   00066  3 00000 0 00442         TXH     =HALL
      00067  2 00323 0 00314         TIX     PUMT,,LPUMT
 TD   00070  3 00000 0 00071         TXH     *+1
      00071  0020 00 0 00101         TRA     LEH
                              *
      00072  0634 00 4 00076  ELOC   SXA     ELOC4,4       UNSPECIFIED I/O SYSTEM ERROR OCCURRED
      00073  0074 00 4 00011         TSX     WRFLX,4
1            LOAD SECONDARY STORAGE (TIME-SHARING VERSION)...M.J.BAILEY,2/1/65   05/11/69 2001.5 PAGE 4

      00074  0 00014 0 00410                 MESX,,12
      00075  0074 00 4 00024         TSX     $PRNTER,4
      00076  0774 00 4 00000  ELOC4  AXT     **,4
      00077  0020 00 4 00001         TRA     1,4           RETURN TO I/O SYSTEM CALLER
                              *
                              *
                              *      LOAD ALL TAPE FILES BUT THE FIRST
                              *  -  -  -  -  -  -  -  -  -  -  -  -  -  -  -  -  -  -  -
                              *
      00100  0074 00 4 00003  LEG    TSX     TERMTF,4      CLOSE,UNMOUNT BOTH COPIES OF LOAD TAPE FILE
                              *
      00101  0074 00 4 00025  LEH    TSX     $ASKOPR,4
      00102  3 00006 0 00365         PTH     MESA,,6
      00103  3 00004 0 00257         PTH     LEV,,STOPLD
      00104  3 00003 0 00401         PTH     MESEY,,3
      00105  3 00001 0 00106         PTH     *+1,,CTINUE
                              *
      00106  0500 00 0 00441         CLA     =11           (11 AND 12)
      00107  0601 00 0 74420         STO     AUN           CHANNEL A UNIT NO.
      00110  0400 00 0 00436         ADD     =1
      00111  0601 00 0 74417         STO     BUN           CHANNEL B UNIT NO.
                              *
      00112  0074 00 4 00022         TSX     CHFILE,4
 TD   00113  3 00000 0 74440         TXH     LFNA
 TD   00114  3 00000 0 74437         TXH     LFNB
 TD   00115  3 00000 0 00435         TXH     =0
 TD   00116  3 00000 0 00447         TXH     =-0
 TD   00117  3 00000 0 00447         TXH     =-0
 TD   00120  3 00000 0 00121         TXH     *+1
      00121  0074 00 4 00023         TSX     DELFIL,4
 TD   00122  3 00000 0 74440         TXH     LFNA
 TD   00123  3 00000 0 74437         TXH     LFNB
 TD   00124  3 00000 0 00125         TXH     *+1
      00125  0074 00 4 00022         TSX     CHFILE,4
 TD   00126  3 00000 0 74422         TXH     BFNA
 TD   00127  3 00000 0 74421         TXH     BFNB
 TD   00130  3 00000 0 00435         TXH     =0
 TD   00131  3 00000 0 00447         TXH     =-0
 TD   00132  3 00000 0 00447         TXH     =-0
 TD   00133  3 00000 0 00134         TXH     *+1
      00134  0074 00 4 00023         TSX     DELFIL,4
 TD   00135  3 00000 0 74422         TXH     BFNA
 TD   00136  3 00000 0 74421         TXH     BFNB
 TD   00137  3 00000 0 00140         TXH     *+1
      00140  0074 00 4 00006         TSX     TAPFIL,4      DECLARE LOAD TAPE FILE TO BE UNIT AUN
 TD   00141  3 00000 0 74440         TXH     LFNA
 TD   00142  3 00000 0 74437         TXH     LFNB
 TD   00143  3 00000 0 74420         TXH     AUN
 TD   00144  3 00000 0 00436         TXH     =1
      00145  0074 00 4 00006         TSX     TAPFIL,4      DECLARE CHANNEL B LOAD FILE TO BE UNIT BUN
 TD   00146  3 00000 0 74422         TXH     BFNA
 TD   00147  3 00000 0 74421         TXH     BFNB
 TD   00150  3 00000 0 74417         TXH     BUN
 TD   00151  3 00000 0 00436         TXH     =1
                              *
      00152  0500 00 0 00437  LEI    CLA     =2
1            LOAD SECONDARY STORAGE (TIME-SHARING VERSION)...M.J.BAILEY,2/1/65   05/11/69 2001.5 PAGE 5

      00153  0601 00 0 74443         STO     NOCHAN
      00154  0600 00 0 74444         STZ     ABANTP
      00155                          PRLINE  (DOUBLE-CHANNEL LOAD IS ASSUMED FOR NEXT LOAD FILE,),9
      00155  0074 00 4 00011         TSX     WRFLX,4                                                          .001
      00156  0 00011 0 00424                 ..001,,9                                                         .001
                                     RMT                                                                      .001
                              ..001  BCI     9,DOUBLE-CHANNEL LOAD IS ASSUMED FOR NEXT LOAD FILE,             .001
                                     RMT                                                                      .001
      00157  0074 00 4 00025         TSX     $ASKOPR,4
      00160  3 00006 0 00373         PTH     MESB,,6
      00161  3 00006 0 00164         PTH     LEII,,SWCHAN
      00162  3 00003 0 00401         PTH     MESEY,,3
      00163  3 00001 0 00164         PTH     LEII,,CTINUE
      00164  0074 00 4 00007  LEII   TSX     MOUNT,4
 TD   00165  3 00000 0 00436         TXH     =1
 TD   00166  3 00000 0 74420         TXH     AUN
      00167  2 00353 0 00343         TIX     MTP,,LMTP
                              *
                              *      VERIFY NEXT TAPE FILE
                              *
      00170                          MOVE    4,NFTID,LABEL
      00170  0774 00 1 00004         AXT     4,1                                                              .001
      00171 -0500 00 1 00304         CAL     NFTID+4,1                                                        .001
      00172  0602 00 1 74416         SLW     LABEL+4,1                                                        .001
      00173  2 00001 1 00171         TIX     *-2,1,1                                                          .001
      00174  0074 00 4 00010         TSX     VERIFY,4      CHECK MOUNTED TAPE
 TD   00175  3 00000 0 74420         TXH     AUN
      00176  3 00004 0 74412         TXH     LABEL,,4
 TD   00177  3 00000 0 00201         TXH     LEK           TRANSFER IF NOT A NEW FILE TAPE
      00200  0020 00 0 00235         TRA     LEP           SKIP IF NO UDT'S LOADED YET
                              *
      00201                   LEK    MOVE    4,SDTID,LABEL
      00201  0774 00 1 00004         AXT     4,1                                                              .001
      00202 -0500 00 1 00310         CAL     SDTID+4,1                                                        .001
      00203  0602 00 1 74416         SLW     LABEL+4,1                                                        .001
      00204  2 00001 1 00202         TIX     *-2,1,1                                                          .001
      00205  0074 00 4 00010         TSX     VERIFY,4      CHECK MOUNTED TAPE
 TD   00206  3 00000 0 74420         TXH     AUN
      00207  3 00004 0 74412         TXH     LABEL,,4
 TD   00210  3 00000 0 00212         TXH     LEM           TRANSFER IF NOT SYSTEM FILES TAPE
      00211  0020 00 0 00235         TRA     LEP           SKIP IF SYSTEM FILES NOT PREVIOUSLY MOUNTED
                              *
      00212                   LEM    MOVE    4,UDTID,LABEL
      00212  0774 00 1 00004         AXT     4,1                                                              .001
      00213 -0500 00 1 00314         CAL     UDTID+4,1                                                        .001
      00214  0602 00 1 74416         SLW     LABEL+4,1                                                        .001
      00215  2 00001 1 00213         TIX     *-2,1,1                                                          .001
      00216  0074 00 4 00010         TSX     VERIFY,4      CHECK MOUNTED TAPE
 TD   00217  3 00000 0 74420         TXH     AUN
      00220  3 00004 0 74412         TXH     LABEL,,4
 TD   00221  3 00000 0 00224         TXH     LEMA          TRANSFER IF UNUSUAL CONDITION
 TD   00222  3 00000 0 00341         TXH     TEMP          TYPE
      00223  0020 00 0 00235         TRA     LEP           SKIP IF VERIFY O.K.
                              *
      00224  0500 00 0 00341  LEMA   CLA     TEMP
      00225  0402 00 0 00440         SUB     =7
1            LOAD SECONDARY STORAGE (TIME-SHARING VERSION)...M.J.BAILEY,2/1/65   05/11/69 2001.5 PAGE 6

      00226  0100 00 0 00231         TZE     LEO           SKIP IF WRONG TAPE
      00227  0074 00 4 00024         TSX     $PRNTER,4     OTHER ERROR, TRY AGAIN
      00230  0020 00 0 00152         TRA     LEI
                              *
                              *
      00231  0074 00 4 00014  LEO    TSX     UMOUNT,4      WRONG TAPE - HAVE IT TAKEN OFF
 TD   00232  3 00000 0 74420         TXH     AUN
      00233  2 00340 0 00324         TIX     WRNGTP,,LWG
      00234  0020 00 0 00152         TRA     LEI
                              *
                              *      START READING NEXT TAPE FILE AND SKIP OVER 1ST MFD ON IT
                              *
      00235  0074 00 4 00004  LEP    TSX     GETLSG,4
      00236                          SKIFNB  LEIB2
      00236  0500 00 0 74443         CLA     NOCHAN                                                           .001
      00237  0402 00 0 00436         SUB     =1                                                               .001
      00240  0100 00 0 00245         TZE     LEIB2                                                            .001
      00241  0074 00 4 00007         TSX     MOUNT,4
 TD   00242  3 00000 0 00437         TXH     =2
 TD   00243  3 00000 0 74417         TXH     BUN
      00244  2 00364 0 00354         TIX     MTPB,,LMTPB
      00245  0074 00 4 00000  LEIB2  TSX     INITTF,4      OPEN NEXT LOAD TAPE FILE, SPACE OVER AND
      00246  0020 00 0 00100         TRA     LEG           ABANDON TAPE FILE RETURN
                              *
      00247  0074 00 4 00001         TSX     OPENDF,4      INIT'LIZE READ FROM 1ST DUMPED FILE ON TAPE
 TD   00250  3 00000 0 00252         TXH     LERA          READ ERROR
 TD   00251  3 00000 0 00100         TXH     LEG           ABANDON TAPE FILE
                              *
                              *      LOAD BODY OF THIS DUMP TAPE FILE
                              *      DOWN TO M.F.D. AT END OF TAPE.
                              *
      00252  0074 00 4 00002  LERA   TSX     LTFILE,4      SKIP 1ST MFD, LOAD DOWN TO MFD AT END/TAPE
      00253  0074 00 4 00005         TSX     ATTACH,4
      00254  3 00000 0 74442         PTH     DU
      00255  3 00000 0 74441         PTH     DP
      00256  0020 00 0 00100         TRA     LEG           RETURN FOR NEXT FILE
                              *
      00257  0074 00 4 00026  LEV    TSX     $RECAP,4
                              *
      00260  0074 00 4 00005         TSX     ATTACH,4
 TD   00261  3 00000 0 74442         TXH     DU
 TD   00262  3 00000 0 74441         TXH     DP
                              *
      00263  0074 00 4 00023         TSX     DELFIL,4
 TD   00264  3 00000 0 00450         TXH     =HRESTOR
 TD   00265  3 00000 0 00444         TXH     =HFILE.1
 TD   00266  3 00000 0 00267         TXH     *+1
      00267  0074 00 4 00016         TSX     SETCLS,4
      00270  0 00001 0 00405         PZE     DPCOM,,1
      00271  0074 00 4 00016         TSX     SETCLS,4      SET 'RESUME DAEMXA' AS 2ND COMMAND IN CHAIN
      00272  0 00002 0 00405         PZE     DPCOM,,2
      00273 -0500 00 0 00404         CAL     CHNWRD        SET THE CLC WITH THE 2 COMMANDS IN CHAIN,
      00274  0074 00 4 00017         TSX     SETCLC,4      AND TO START FROM 1ST POSITION IN THE CHAIN
      00275  0074 00 4 00020         TSX     CHNCOM,4      EXECUTE DUMP PROGRAM CHAIN
                              *
                              * - - - - - - - - - - - - - - - - - - - -
1            LOAD SECONDARY STORAGE (TIME-SHARING VERSION)...M.J.BAILEY,2/1/65   05/11/69 2001.5 PAGE 7

                              *      CONSTANTS, VARIABLES, ETC.
                              * - - - - - - - - - - - - - - - - - - - -
                              *
      00276  246243462124     COMD   BCI     1,DSLOAD
      00277 -377777777777            OCT     777777777777
      00300  602351252163     NFTID  BCI     4, CREATED-FILE DUMP TAPE
      00304  606270626325     SDTID  BCI     4, SYSTEM-FILES DUMP TAPE
      00310  606462255162     UDTID  BCI     4, USERS'-FILES DUMP TAPE
      00314  604721453123     PUMT   BCI     7, PANIC UNMOUNT, RE-READY THESE LOAD TAPES
      00323  0 00000 0 00007  LPUMT  PZE     *-PUMT
      00324  603144472551     WRNGTP BCI     8, IMPERMISSIBLE REEL MOUNTED FOR DISK RELOAD
      00334  604743252162            BCI     4, PLEASE TAKE IT OFF
      00340  0 00000 0 00014  LWG    PZE     *-WRNGTP
      00341                   TEMP   BSS     2
      00343  605125212470     MTP    BCI     8, READY THE 1ST REEL OF THE NEXT DUMP TAPE FILE
      00353  0 00000 0 00010  LMTP   PZE     *-MTP
      00354  605125212470     MTPB   BCI     8, READY THE DUPLICATE COPY ON THE OTHER CHANNEL.
      00364  0 00000 0 00010  LMTPB  PZE     *-MTPB
      00365  606346606263     MESA   BCI     6, TO STOP LOADING, START DUMPING.
      00373  604546666046     MESB   BCI     6, NOW OR ANYTIME TO DROP 2ND CHANNEL.
      00401  604663302551     MESEY  BCI     3, OTHERWISE, NOW.
      00404  0 00002 0 00001  CHNWRD PZE     1,,2
      00405  242125444645     DPCOM  BCI     1,DAEMON
      00406  006060606060            BCI     1,0
      00407 -377777777777            OCT     777777777777
      00410  606445256747     MESX   BCI     9, UNEXPECTED AND/OR NON-CRUCIAL I/O SYSTEM ERROR RETURN
      00421  736066303123            BCI     3,, WHICH IS IGNORED
                              *
                                     INSERT  BCMEQB
                              *
                              *  -  -  -  -  -  -  -  -  -  -  -  -  -  -  -  -  -  -
                              *      COMMON AND EQUIVALENCE FOR SECONDARY STORAGE LOAD
                              *         (TIME-SHARING VERSION)
                              *  -  -  -  -  -  -  -  -  -  -  -  -  -  -  -  -  -  -
                              *
                      074446  DEMKEY BOOL    74446         CORE A LOCATION FOR DAEMON KEY SETTING
                              *
                      000017  BASE   BOOL    17            KEY CODE BASE
                      000001  CTINUE BOOL    1             KEY CODE TO CONTINUE WITH PROGRAM,NO CHANGE
                      000002  PAUSE  BOOL    2             KEY CODE TO WAIT 60 SECS.
                      000003  CHLDFL BOOL    3             KEY CODE TO USE DIFFERENT LOAD FILE
                      000004  STOPLD BOOL    4             KEY CODE TO STOP LOADING, START DUMPING
                      000005  ABANKY BOOL    5             KEY CODE TO ABANDON LOAD TAPE FILE
                      000006  SWCHAN BOOL    6             KEY CODE TO GO FROM 1 OR 2 TO 2 OR 1 CHANS.
                      000007  LSREEL BOOL    7             KEY CODE TO INDICATE LAST REEL OF LOAD FILE
                      000010  CHREEL BOOL    10            KEY CODE TO CORRECT REEL ORDER ERROR
                       77777  NEWCOM EQU     -1            TOP OF MEMORY
                      077461  OLDCOM BOOL    77461         OLD TOP OF COMMON
                       77462  COMRLC EQU     OLDCOM-NEWCOM RELOCATION FACTOR
                       77777         COMMON  COMRLC        RELOCATE COMMON
                       01554  UF     EQU     32767/2-DEMKEY/2 LENGTH OF USER LIST
                       77777  UFL    COMMON  2*UF          USER FILE LIST  (1ST PARTS OF FILE NAMES)
                       74446         COMMON  1             INSERT DUMMY IF NECESSARY
                       74445         COMMON  1             DEMKEY CELL IN NON-CTSS VERSION
                       74445  KEYVAL COMMON  1
                       74444  ABANTP COMMON  1             ABANDON TAPE FILE INDICATOR
1            LOAD SECONDARY STORAGE (TIME-SHARING VERSION)...M.J.BAILEY,2/1/65   05/11/69 2001.5 PAGE 8

                       74443  NOCHAN COMMON  1             NO. OF CHANNELS BEING READ (1 OR 2)
                       74442  DU     COMMON  1             PROBLEM NO. OF DUMP/LOAD PACKAGE
                       74441  DP     COMMON  1             PROGRAMMER NO. OF DITTO.
                       74440  LFNA   COMMON  1             LOAD TAPE FILE NAME (PART 1)
                       74437  LFNB   COMMON  1              ,,   ,,   ,,   ,,  (PART 2)
                       74423         COMMON  11            DUMPED FILE'S PREAMBLE FROM DUMP TAPE
                       74423  PREAM  COMMON  1             DUMPED FILE'S DUMP TAPE PREAMBLE 1ST WORD
                       74422  BFNA   COMMON  1             CHANNEL B LOAD TAPE FILE NAME (PART 1)
                       74421  BFNB   COMMON  1             CHANNEL B LOAD TAPE FILE NAME (PART 2)
                       74420  AUN    COMMON  1             CHANNEL A UNIT NO.
                       74417  BUN    COMMON  1             CHANNEL B UNIT NO.
                       74416  TEOF   COMMON  1             TAPE EOF INDICATOR/WORD COUNT
                       74412         COMMON  3             LABEL OF TAPE FILE CURRENTLY BEING LOADED
                       74412  LABEL  COMMON  1             LABEL OF TAPE FILE DITTO.   1ST WORD
                       74411  X      COMMON  1             TAPE FILE POINTER
                                     END
                                              REMOTE SEQUENCES
      00424  244664224325     ..001  BCI     9,DOUBLE-CHANNEL LOAD IS ASSUMED FOR NEXT LOAD FILE,             .001

1            LOAD SECONDARY STORAGE (TIME-SHARING VERSION)...M.J.BAILEY,2/1/65   05/11/69 2001.5 PAGE 1
                        POST PROCESSOR ASSEMBLY DATA

       74410 IS THE LAST LOCATION NOT USED BY THIS PROGRAM
        453 IS THE FIRST LOCATION NOT USED BY THIS PROGRAM

0REFERENCES TO DEFINED SYMBOLS
      74411      X   424
      74441     DP    33,   46,  255,  262,  424
      74442     DU    31,   45,  254,  261,  424
       1554     UF   424
      74420    AUN   107,  143,  166,  175,  206,  217,  232,  424
      74417    BUN   111,  150,  243,  424
        100    LEG   246,  251,  256
        101    LEH    71
        152    LEI   230,  234
        201    LEK   177
        212    LEM   210
        231    LEO   226
        235    LEP   200,  211,  223
        257    LEV   103
        340    LWG   233
        343    MTP   167,  353
      77777    UFL   424
         17   BASE   424
      74422   BFNA    41,  126,  135,  146,  424
      74421   BFNB    43,  127,  136,  147,  424
        276   COMD    54,   56
         72   ELOC    50
        164   LEII   161,  163
        224   LEMA   221
        252   LERA   250
      74440   LFNA    35,  113,  122,  141,  424
      74437   LFNB    37,  114,  123,  142,  424
        353   LMTP   167
        365   MESA   102
        373   MESB   160
        410   MESX    74
        354   MTPB   244,  364
        314   PUMT    67,  323
        341   TEMP   222,  224
      74416   TEOF   424
         15  CLOSE    61
        405  DPCOM   270,  272
         76  ELOC4    72
        424  ..001   156
      74412  LABEL   172,  176,  203,  207,  214,  220,  424
        245  LEIB2   240
        364  LMTPB   244
        323  LPUMT    67
        401  MESEY   104,  162
          7  MOUNT   164,  241
        300  NFTID   171
          2  PAUSE   424
      74423  PREAM   424
         26  RECAP   257
        304  SDTID   202
1            LOAD SECONDARY STORAGE (TIME-SHARING VERSION)...M.J.BAILEY,2/1/65   05/11/69 2001.5 PAGE 2
                        POST PROCESSOR ASSEMBLY DATA

         21  SLEEP
        310  UDTID   213
         11  WRFLX    73,  155
          5 ABANKY   424
      74444 ABANTP   154,  424
         25 ASKOPR   101,  157
          5 ATTACH    44,  253,  260
         22 CHFILE   112,  125
          3 CHLDFL   424
         20 CHNCOM   275
        404 CHNWRD    57,  273
         10 CHREEL   424
      77462 COMRLC   424
          1 CTINUE   105,  163,  424
         23 DELFIL   121,  134,  263
      74446 DEMKEY   424
         12 FERRTN    47
          4 GETLSG   235
          0 INITTF   245
      74445 KEYVAL   424
          7 LSREEL   424
          2 LTFILE   252
      77777 NEWCOM   424
      74443 NOCHAN   153,  236,  424
      77461 OLDCOM   424
          1 OPENDF   247
         24 PRNTER    75,  227
         17 SETCLC    60,  274
         16 SETCLS    53,   55,  267,  271
          4 STOPLD   103,  424
          6 SWCHAN   161,  424
          6 TAPFIL   140,  145
          3 TERMTF   100
         13 TILOCK    51
         14 UMOUNT    65,  231
         10 VERIFY   174,  205,  216
        324 WRNGTP   233,  340

0 NO ERROR IN ABOVE ASSEMBLY.
1            LOAD MAIN BODY OF DUMP TAPE FILE BETWEEN MFDS...M.J.BAILEY,2/1/65   05/11/69 2001.7 PAGE 1

                              *           (TIME-SHARING VERSION)
                              *
                       00021         ENTRY   LTFILE
                              *
                                     EXTERN  OPENDF,RDF,GETLSG
                                     EXTERN  TRFILE
                                     EXTERN  ATTACH,BUFFER,FWAIT,FSTATE
                                     EXTERN  OPEN,CLOSE,WRFILE,SETFIL
                                     EXTERN  WRFLX,CHFILE
                              *
                                     INSERT  BMCRSC
                              *
                              *  ZERO-IZE A THROUGH A+X-1
                              *
                               CLEAR MACRO   A,X
                                     AXT     X,1
                                     STZ     A+X,1
                                     TIX     *-1,1,1
                               CLEAR END
                              *
                              *      MOVE X WORDS FROM A ET SEQ TO B ET SEQ
                              *
                               MOVE  MACRO   X,A,B
                                     AXT     X,1
                                     CAL     A+X,1
                                     SLW     B+X,1
                                     TIX     *-2,1,1
                               MOVE  END
                              *
                              *  PRINT ONE LINE COMMENT
                              *
                              PRLINE MACRO   COMNT,NWC,LOC
                                     TSX     WRFLX,4
                                             LOC,,NWC
                                     RMT
                               LOC   BCI     NWC,COMNT
                                     RMT
                              PRLINE END
                              *
                              *
                              *      EXECUTE INST. IN CORE A
                              *
                              *
                              EXEC   MACRO   OPC,ADD
                                     TSX     $GETA,7
                                     OPC     ADD
                              EXEC   END
                              *
                              *      GET KEY SETTING VIA SUPERVISOR, SET ABANTP, NOCHAN IF APPROPRIATE
                              *
                              GETSIG MACRO
                                     TSX     GETLSG,4
                              GETSIG END
                              *
                              *      TEST WHETHER 2ND TAPE COPY IS NEEDED, IF NOT GO TO SKIP
                              *
1            LOAD MAIN BODY OF DUMP TAPE FILE BETWEEN MFDS...M.J.BAILEY,2/1/65   05/11/69 2001.7 PAGE 2

                              SKIFNB MACRO   SKIP
                                     CLA     NOCHAN
                                     SUB     =1
                                     TZE     SKIP
                              SKIFNB END
                              *
                              *      PRINT AN N-WORD MESSAGE FROM  MESSGE
                              *
                              PRM    MACRO   MESSGE,N
                                     TSX     WRFLX,4
                                             MESSGE,,N
                              PRM    END
                              *
                              *      COMPARE 2 SETS OF N CONSECUTIVE WORDS IN A ETC., AND B ETC. ,
                              *      AND IF THEY DO NOT ALL MATCH, GO TO NF, OR OTHERWISE CONTINUE.
                              *
                              CMPWDS MACRO   N,A,B,NF
                                     AXT     N,1
                                     CAL     A+N,1
                                     LAS     B+N,1
                                     TRA     NF
                                     TRA     *+2
                                     TRA     NF
                                     TIX     *-5,1,1
                              CMPWDS END
                              *
                              *      WAIT FOR I/O ON FILE (A,B) TO END, GO TO E IF ERROR OCCURRED
                              *
                              WAIT   MACRO   A,B,E
                                     TSX     FWAIT,4
                                     PTH     A
                                     PTH     B
                                     PTH     E
                              WAIT   END
                              *
                              *      CLOSE THE FILE (A,B)
                              *
                              CLOSE  MACRO   A,B
                                     TSX     CLOSE,4
                                     PTH     A
                                     PTH     B
                              CLOSE  END
                              *
                              *
                              *  -  -  -  -  -  -  -  -  -  -  -  -  -  -  -  -  -  -  -  -  -  -
                              *      INITIALIZE AND GET PREAMBLE OF UFD FILE OF 1ST USER ON TAPE
                              *  -  -  -  -  -  -  -  -  -  -  -  -  -  -  -  -  -  -  -  -  -  -
                              *

      00000  464725452426     OPENDF
      00001  512426606060     RDF
      00002  272563436227     GETLSG
      00003  635126314325     TRFILE
      00004  216363212330     ATTACH
      00005  226426262551     BUFFER
      00006  266621316360     FWAIT
1            LOAD MAIN BODY OF DUMP TAPE FILE BETWEEN MFDS...M.J.BAILEY,2/1/65   05/11/69 2001.7 PAGE 3

      00007  266263216325     FSTATE
      00010  464725456060     OPEN
      00011  234346622560     CLOSE
      00012  665126314325     WRFILE
      00013  622563263143     SETFIL
      00014  665126436760     WRFLX
      00015  233026314325     CHFILE
      00016  475145632551     PRNTER


      00021  0634 00 1 00077  LTFILE SXA     X1,1
      00022  0634 00 2 00076         SXA     X2,2
      00023  0634 00 3 00075         SXA     X3,3
      00024  0634 00 4 00074         SXA     X4,4
                              *
      00025  0600 00 0 00365         STZ     LUSER
      00026  0600 00 0 00366         STZ     LUSER+1
                              *
                              *  -  -  -  -  -  -  -  -  -  -  -  -  -  -  -  -  -  -  -  -  -
                              *      EXAMINE NEXT DUMPED FILE ON TAPE
                              *  -  -  -  -  -  -  -  -  -  -  -  -  -  -  -  -  -  -  -  -  -
                              *
      00027                   XTA    CLEAR   PREAM,12
      00027  0774 00 1 00014         AXT     12,1                                                             .001
      00030  0600 00 1 74437         STZ     PREAM+12,1                                                       .001
      00031  2 00001 1 00030         TIX     *-1,1,1                                                          .001
      00032  0074 00 4 00000         TSX     OPENDF,4      INITIALIZE READING FROM NEXT DUMPED FILE
 TD   00033  3 00000 0 00036         TXH     XTC           (ERROR ADDRESS)
 TD   00034  3 00000 0 00074         TXH     ABANTF        ABANDON TAPE FILE
      00035  0020 00 0 00041         TRA     XTD           SKIP TO SEE WHAT KIND OF FILE IT IS
                              *
      00036  0520 00 0 74416  XTC    ZET     TEOF
      00037  0020 00 0 00074         TRA     ABANTF
      00040  0020 00 0 00300         TRA     ZTQB
                              *
      00041  0760 00 0 00166  XTD    SWT     6
      00042  0020 00 0 00055         TRA     XTDD
      00043                          MOVE    2,PREAM,SEE
      00043  0774 00 1 00002         AXT     2,1                                                              .001
      00044 -0500 00 1 74425         CAL     PREAM+2,1                                                        .001
      00045  0602 00 1 00371         SLW     SEE+2,1                                                          .001
      00046  2 00001 1 00044         TIX     *-2,1,1                                                          .001
      00047                          MOVE    2,PREAM+5,SEE+2
      00047  0774 00 1 00002         AXT     2,1                                                              .001
      00050 -0500 00 1 74432         CAL     PREAM+5+2,1                                                      .001
      00051  0602 00 1 00373         SLW     SEE+2+2,1                                                        .001
      00052  2 00001 1 00050         TIX     *-2,1,1                                                          .001
      00053                          PRM     SEE,4
      00053  0074 00 4 00014         TSX     WRFLX,4                                                          .001
      00054  0 00004 0 00367                 SEE,,4                                                           .001
                              *
      00055                   XTDD   CMPWDS  3,UFDNAM,PREAM+5,XTE
      00055  0774 00 1 00003         AXT     3,1                                                              .001
      00056 -0500 00 1 00376         CAL     UFDNAM+3,1                                                       .001
      00057 -0340 00 1 74433         LAS     PREAM+5+3,1                                                      .001
      00060  0020 00 0 00065         TRA     XTE                                                              .001
1            LOAD MAIN BODY OF DUMP TAPE FILE BETWEEN MFDS...M.J.BAILEY,2/1/65   05/11/69 2001.7 PAGE 4

      00061  0020 00 0 00063         TRA     *+2                                                              .001
      00062  0020 00 0 00065         TRA     XTE                                                              .001
      00063  2 00001 1 00056         TIX     *-5,1,1                                                          .001
      00064  0020 00 0 00027         TRA     XTA
                              *
      00065                   XTE    CMPWDS  2,MFDNAM,PREAM,ZTA
      00065  0774 00 1 00002         AXT     2,1                                                              .001
      00066 -0500 00 1 00413         CAL     MFDNAM+2,1                                                       .001
      00067 -0340 00 1 74425         LAS     PREAM+2,1                                                        .001
      00070  0020 00 0 00101         TRA     ZTA                                                              .001
      00071  0020 00 0 00073         TRA     *+2                                                              .001
      00072  0020 00 0 00101         TRA     ZTA                                                              .001
      00073  2 00001 1 00066         TIX     *-5,1,1                                                          .001
                              *
                              *      RETURN TO CALLER IF NEXT FILE IS MFD FILE
                              *
                       00074  ABANTF EQU     *
      00074  0774 00 4 00000  X4     AXT     **,4
      00075  0774 00 3 00000  X3     AXT     **,3
      00076  0774 00 2 00000  X2     AXT     **,2
      00077  0774 00 1 00000  X1     AXT     **,1
      00100  0020 00 4 00001         TRA     1,4
                              *
                              *  -  -  -  -  -  -  -  -  -  -  -  -  -  -  -  -  -  -  -  -
                              *      PROCESS REGULAR FILE (NOT MFD OR UFD)
                              *  -  -  -  -  -  -  -  -  -  -  -  -  -  -  -  -  -  -  -  -
                              *
      00101  0074 00 4 00002  ZTA    TSX     GETLSG,4
      00102                          CMPWDS  2,LUSER,PREAM,NOSAME
      00102  0774 00 1 00002         AXT     2,1                                                              .001
      00103 -0500 00 1 00367         CAL     LUSER+2,1                                                        .001
      00104 -0340 00 1 74425         LAS     PREAM+2,1                                                        .001
      00105  0020 00 0 00112         TRA     NOSAME                                                           .001
      00106  0020 00 0 00110         TRA     *+2                                                              .001
      00107  0020 00 0 00112         TRA     NOSAME                                                           .001
      00110  2 00001 1 00103         TIX     *-5,1,1                                                          .001
      00111  0020 00 0 00122         TRA     SAME
      00112                   NOSAME MOVE    2,PREAM,LUSER
      00112  0774 00 1 00002         AXT     2,1                                                              .001
      00113 -0500 00 1 74425         CAL     PREAM+2,1                                                        .001
      00114  0602 00 1 00367         SLW     LUSER+2,1                                                        .001
      00115  2 00001 1 00113         TIX     *-2,1,1                                                          .001
      00116  0074 00 4 00004         TSX     ATTACH,4
 TD   00117  3 00000 0 74423         TXH     PREAM
 TD   00120  3 00000 0 74424         TXH     PREAM+1
 TD   00121  3 00000 0 00027         TXH     XTA
                              *
      00122  0074 00 4 00007  SAME   TSX     FSTATE,4
 TD   00123  3 00000 0 74430         TXH     PREAM+5
 TD   00124  3 00000 0 74431         TXH     PREAM+6
      00125  3 00007 0 00401         TXH     STAT,,7
 TD   00126  3 00000 0 00027         TXH     XTA
                              *
      00127  0500 00 0 00404         CLA     STAT+3
      00130  0402 00 0 10060         SUB     =3
      00131  0100 00 0 00027         TZE     XTA
1            LOAD MAIN BODY OF DUMP TAPE FILE BETWEEN MFDS...M.J.BAILEY,2/1/65   05/11/69 2001.7 PAGE 5

      00132  0500 00 0 00402         CLA     STAT+1
      00133 -0120 00 0 00027         TMI     XTA
      00134 -0320 00 0 10062         ANA     =O200
      00135  0100 00 0 00027         TZE     XTA
      00136  0500 00 0 74425         CLA     PREAM+2
      00137  0402 00 0 00407         SUB     STAT+6
      00140 -0120 00 0 00027         TMI     XTA
      00141  0500 00 0 00401         CLA     STAT
      00142 -0100 00 0 00300         TNZ     ZTQB
      00143 -0520 00 0 74435         NZT     PREAM+10
      00144  0020 00 0 00322         TRA     CLANUP
                              *
      00145 -0754 00 0 00000         ZAC
      00146  0560 00 0 74434         LDQ     PREAM+9
      00147 -0763 00 0 00010         LGL     8
      00150  0602 00 0 00377         SLW     TEMP+1
                              *
      00151  0074 00 4 00010  OPAGIN TSX     OPEN,4
 TD   00152  3 00000 0 01277         TXH     W
 TD   00153  3 00000 0 74430         TXH     PREAM+5
 TD   00154  3 00000 0 74431         TXH     PREAM+6
 TD   00155  3 00000 0 10063         TXH     =-0
 TD   00156  3 00000 0 10063         TXH     =-0
 TD   00157  3 00000 0 00242         TXH     ZTQB1
 TD   00160  3 00000 0 00410         TXH     ZTCODE
                              *
                              *
      00161  0074 00 4 00005         TSX     BUFFER,4
 TD   00162  3 00000 0 74430         TXH     PREAM+5       ASSIGN INTERNAL BUFFERS FOR WRITE
 TD   00163  3 00000 0 74431         TXH     PREAM+6
      00164  2 00413 0 00414         TIX     DBUF,,LDBUF
 TD   00165  3 00000 0 00260         TXH     ZTQ           (ERROR)
                              *
      00166  0774 00 3 00000         AXT     0,3
      00167  0500 00 0 01274         CLA     LTPB
      00170  0601 00 0 00376         STO     TEMP
      00171  0774 00 2 00000         AXT     0,2
                              *
                              *      READ-WRITE LOOP (DOUBLE BUFFERS)
                              *
      00172  1 00001 2 00173  ZTM    TXI     *+1,2,1       SWITCH BUFFERS
      00173 -3 00001 2 00175         TXL     *+2,2,1
      00174  0774 00 2 00000         AXT     0,2
      00175  0500 00 2 01276         CLA     TBADR+1,2
      00176  0621 00 0 00201         STA     ZTN
      00177  0621 00 0 00216         STA     ZTO
                              *
      00200  0074 00 4 00001         TSX     RDF,4         READ BUFFER FULL FROM DUMP TAPE
      00201  2 01274 0 00000  ZTN    TIX     **,,LTPB
 TD   00202  3 00000 0 00262         TXH     ZTQA          READ ERROR
 TD   00203  3 00000 0 00236         TXH     ZTP           EOF
 TD   00204  3 00000 0 01300         TXH     EOFCT         EOF WORD COUNT
 TD   00205  3 00000 0 00221         TXH     ABANCL        ABANDON TAPE FILE
                              *
      00206  0074 00 4 00006  ZTNA   TSX     FWAIT,4       WAIT FOR PREVIOUS WRITE TO END
 TD   00207  3 00000 0 74430         TXH     PREAM+5
1            LOAD MAIN BODY OF DUMP TAPE FILE BETWEEN MFDS...M.J.BAILEY,2/1/65   05/11/69 2001.7 PAGE 6

 TD   00210  3 00000 0 74431         TXH     PREAM+6
 TD   00211  3 00000 0 00260         TXH     ZTQ           ERROR ON PREVIOUS WRITE
                              *
      00212  0074 00 4 00012         TSX     WRFILE,4      START WRITING BUFFER FULL ON DISK/DRUM
 TD   00213  3 00000 0 74430         TXH     PREAM+5
 TD   00214  3 00000 0 74431         TXH     PREAM+6
 TD   00215  3 00000 0 10056         TXH     =0
      00216  2 00376 0 00000  ZTO    TIX     **,,TEMP
                              *
      00217 -3 00000 3 00172         TXL     ZTM,3,0       RETURN TO READ MORE IF NO EOF YET
      00220  0020 00 0 00314         TRA     ZTS           FINISHED, GO CLOSE LOAD FILE
      00221  0074 00 4 00003  ABANCL TSX     TRFILE,4
 TD   00222  3 00000 0 74430         TXH     PREAM+5
 TD   00223  3 00000 0 74431         TXH     PREAM+6
 TD   00224  3 00000 0 10056         TXH     =0
      00225  0074 00 4 00011         TSX     CLOSE,4
 TD   00226  3 00000 0 74430         TXH     PREAM+5
 TD   00227  3 00000 0 74431         TXH     PREAM+6
      00230  0074 00 4 00013         TSX     SETFIL,4      RESET DATE/TIME CREATED SO
 TD   00231  3 00000 0 74430         TXH     PREAM+5       FILE CAN BE LOADED AGAIN LATER.
 TD   00232  3 00000 0 74431         TXH     PREAM+6
 TD   00233  3 00000 0 74432         TXH     PREAM+7
 TD   00234  3 00000 0 74433         TXH     PREAM+8
      00235  0020 00 0 00074         TRA     ABANTF
                              *
                              *
      00236  0534 00 3 01300  ZTP    LXA     EOFCT,3       EOF
      00237  0634 00 3 00376         SXA     TEMP,3
      00240  3 00000 3 00206         TXH     ZTNA,3,0      GO WRITE LAST PART BUFFER FULL, IF ANY
      00241  0020 00 0 00314         TRA     ZTS           NO MORE, GO CLOSE LOAD FILE
                              *
                              *      OPEN ERROR TRY CHANGING MODE
                              *
      00242  0074 00 4 00002  ZTQB1  TSX     GETLSG,4
      00243  0500 00 0 00410         CLA     ZTCODE
      00244  0402 00 0 10061         SUB     =15
      00245 -0100 00 0 00300         TNZ     ZTQB
      00246  0074 00 4 00015         TSX     CHFILE,4
      00247  3 00000 0 74430         PTH     PREAM+5
      00250  3 00000 0 74431         PTH     PREAM+6
      00251  3 00000 0 10057         PTH     =1
      00252  3 00000 0 10063         PTH     =-0
      00253  3 00000 0 10063         PTH     =-0
      00254  3 00000 0 00300         PTH     ZTQB
      00255 -0500 00 0 10057         CAL     =1
      00256 -0602 00 0 00377         ORS     TEMP+1
      00257  0020 00 0 00151         TRA     OPAGIN
                              *
                              *      PROCESS ERRORS LOADING DUMPED FILE
                              *
      00260  0074 00 4 00016  ZTQ    TSX     $PRNTER,4     UNEXPECTED I/O SYSTEM RETURN
      00261  0020 00 0 00264         TRA     ZTRA
      00262  0500 00 0 74416  ZTQA   CLA     TEOF
      00263 -0100 00 0 00221         TNZ     ABANCL        SKIP IF EOF ON TAPE
      00264  0074 00 4 00003  ZTRA   TSX     TRFILE,4      RESET FILE LENGTH.
      00265  3 00000 0 74430         PTH     PREAM+5
1            LOAD MAIN BODY OF DUMP TAPE FILE BETWEEN MFDS...M.J.BAILEY,2/1/65   05/11/69 2001.7 PAGE 7

      00266  3 00000 0 74431         PTH     PREAM+6
      00267  3 00000 0 10056         PTH     =0
      00270  0074 00 4 00011         TSX     CLOSE,4       CLOSE FILE.
 TD   00271  3 00000 0 74430         TXH     PREAM+5
 TD   00272  3 00000 0 74431         TXH     PREAM+6
      00273  0074 00 4 00013         TSX     SETFIL,4      NOW RESET DATE/TIME CREATED,
 TD   00274  3 00000 0 74430         TXH     PREAM+5       SO THAT WE CAN TRY TO LOAD
 TD   00275  3 00000 0 74431         TXH     PREAM+6       IT AGAIN LATER.   **********
 TD   00276  3 00000 0 74432         TXH     PREAM+7
 TD   00277  3 00000 0 74433         TXH     PREAM+8
      00300                   ZTQB   MOVE    2,PREAM,ERMES+3
      00300  0774 00 1 00002         AXT     2,1                                                              .001
      00301 -0500 00 1 74425         CAL     PREAM+2,1                                                        .001
      00302  0602 00 1 00362         SLW     ERMES+3+2,1                                                      .001
      00303  2 00001 1 00301         TIX     *-2,1,1                                                          .001
      00304                          MOVE    2,PREAM+5,ERMES+5
      00304  0774 00 1 00002         AXT     2,1                                                              .001
      00305 -0500 00 1 74432         CAL     PREAM+5+2,1                                                      .001
      00306  0602 00 1 00364         SLW     ERMES+5+2,1                                                      .001
      00307  2 00001 1 00305         TIX     *-2,1,1                                                          .001
      00310  0074 00 4 00014         TSX     WRFLX,4
      00311  0 00010 0 00355                 ERMES,,8
      00312  0074 00 4 00016         TSX     $PRNTER,4
      00313  0020 00 0 00027         TRA     XTA           GO FOR NEXT DUMPED FILE
                              *
                              *  -  -  -  -  -  -  -  -  -  -  -  -  -  -  -  -  -  -  -  -
                              *      SET UFD ENTRY FOR FILE JUST READ, FREE IT FOR USE
                              *      IF IT WAS ONE DEFINITELY TO BE LOADED
                              *  -  -  -  -  -  -  -  -  -  -  -  -  -  -  -  -  -  -  -  -
                              *
      00314  0074 00 4 00006  ZTS    TSX     FWAIT,4       WAIT FOR WRITE TO END
 TD   00315  3 00000 0 74430         TXH     PREAM+5
 TD   00316  3 00000 0 74431         TXH     PREAM+6
      00317  0074 00 4 00011         TSX     CLOSE,4
 TD   00320  3 00000 0 74430         TXH     PREAM+5
 TD   00321  3 00000 0 74431         TXH     PREAM+6
      00322  0074 00 4 00015  CLANUP TSX     CHFILE,4      DE-PROTECT, THEN . . . . .
 TD   00323  3 00000 0 74430         TXH     PREAM+5
 TD   00324  3 00000 0 74431         TXH     PREAM+6
 TD   00325  3 00000 0 00377         TXH     TEMP+1
 TD   00326  3 00000 0 10063         TXH     =-0
 TD   00327  3 00000 0 10063         TXH     =-0
 TD   00330  3 00000 0 00332         TXH     ZTSA          UNUSUAL CONDITION TRANSFER
      00331  0020 00 0 00333         TRA     ZTSB          SKIP IF O.K.
      00332  0074 00 4 00016  ZTSA   TSX     $PRNTER,4     ERROR, PRINT MESSAGE
                              *
      00333  0074 00 4 00013  ZTSB   TSX     SETFIL,4      SET ITS DATES, TIME, AUTHOR, AS
 TD   00334  3 00000 0 74430         TXH     PREAM+5       IN PREAMBLE OF DUMPED VERSION JUST READ
 TD   00335  3 00000 0 74431         TXH     PREAM+6
 TD   00336  3 00000 0 74432         TXH     PREAM+7
 TD   00337  3 00000 0 74433         TXH     PREAM+8
      00340  0760 00 0 00165         SWT     5
      00341  0020 00 0 00027         TRA     XTA
      00342                          MOVE    2,PREAM,MEST+1
      00342  0774 00 1 00002         AXT     2,1                                                              .001
      00343 -0500 00 1 74425         CAL     PREAM+2,1                                                        .001
1            LOAD MAIN BODY OF DUMP TAPE FILE BETWEEN MFDS...M.J.BAILEY,2/1/65   05/11/69 2001.7 PAGE 8

      00344  0602 00 1 01304         SLW     MEST+1+2,1                                                       .001
      00345  2 00001 1 00343         TIX     *-2,1,1                                                          .001
      00346                          MOVE    2,PREAM+5,MEST+3
      00346  0774 00 1 00002         AXT     2,1                                                              .001
      00347 -0500 00 1 74432         CAL     PREAM+5+2,1                                                      .001
      00350  0602 00 1 01306         SLW     MEST+3+2,1                                                       .001
      00351  2 00001 1 00347         TIX     *-2,1,1                                                          .001
      00352  0074 00 4 00014         TSX     WRFLX,4
      00353  0 00005 0 01301                 MEST,,5
      00354  0020 00 0 00027         TRA     XTA           GO LOOK AT NEXT DUMPED FILE
                              *
                              *  -  -  -  -  -  -  -  -  -  -  -  -  -  -  -  -  -  -
                              *
                              *  -  -  -  -  -  -  -  -  -  -  -  -
                              *      CONSTANTS, VARIABLES, ETC.
                              *  -  -  -  -  -  -  -  -  -  -  -  -
                              *
      00355  602631432560     ERMES  BCI     8, FILE NOT LOADED
      00365                   LUSER  BSS     2
      00367                   SEE    BSS     4
      00373  646225516026     UFDNAM BCI     3,USER FILE DIRECTRY
      00376                   TEMP   BSS     3
      00401                   STAT   BSS     7
      00410                   ZTCODE BSS     1
      00411  443326332433     MFDNAM BCI     2,M.F.D.(FILE)
      00413  0 00000 0 00660  LDBUF  PZE     432
      00414                   DBUF   BSS     432
      01274  0 00000 0 03264  LTPB   PZE     4*432-12
      01275  0 00000 0 01306  TBADR  PZE     TPB
      01276  0 00000 0 04572         PZE     TPB2
      01277  666060606060     W      BCI     1,W
      01300  0 00000 0 00000  EOFCT  PZE
      01301  434621242524     MEST   BCI     5,LOADED
      01306                   TPB    BSS     4*432-12
      04572                   TPB2   BSS     4*432-12
                              *
                                     INSERT  BCMEQB
                              *
                              *  -  -  -  -  -  -  -  -  -  -  -  -  -  -  -  -  -  -
                              *      COMMON AND EQUIVALENCE FOR SECONDARY STORAGE LOAD
                              *         (TIME-SHARING VERSION)
                              *  -  -  -  -  -  -  -  -  -  -  -  -  -  -  -  -  -  -
                              *
                      074446  DEMKEY BOOL    74446         CORE A LOCATION FOR DAEMON KEY SETTING
                              *
                      000017  BASE   BOOL    17            KEY CODE BASE
                      000001  CTINUE BOOL    1             KEY CODE TO CONTINUE WITH PROGRAM,NO CHANGE
                      000002  PAUSE  BOOL    2             KEY CODE TO WAIT 60 SECS.
                      000003  CHLDFL BOOL    3             KEY CODE TO USE DIFFERENT LOAD FILE
                      000004  STOPLD BOOL    4             KEY CODE TO STOP LOADING, START DUMPING
                      000005  ABANKY BOOL    5             KEY CODE TO ABANDON LOAD TAPE FILE
                      000006  SWCHAN BOOL    6             KEY CODE TO GO FROM 1 OR 2 TO 2 OR 1 CHANS.
                      000007  LSREEL BOOL    7             KEY CODE TO INDICATE LAST REEL OF LOAD FILE
                      000010  CHREEL BOOL    10            KEY CODE TO CORRECT REEL ORDER ERROR
                       77777  NEWCOM EQU     -1            TOP OF MEMORY
                      077461  OLDCOM BOOL    77461         OLD TOP OF COMMON
1            LOAD MAIN BODY OF DUMP TAPE FILE BETWEEN MFDS...M.J.BAILEY,2/1/65   05/11/69 2001.7 PAGE 9

                       77462  COMRLC EQU     OLDCOM-NEWCOM RELOCATION FACTOR
                       77777         COMMON  COMRLC        RELOCATE COMMON
                       01554  UF     EQU     32767/2-DEMKEY/2 LENGTH OF USER LIST
                       77777  UFL    COMMON  2*UF          USER FILE LIST  (1ST PARTS OF FILE NAMES)
                       74446         COMMON  1             INSERT DUMMY IF NECESSARY
                       74445         COMMON  1             DEMKEY CELL IN NON-CTSS VERSION
                       74445  KEYVAL COMMON  1
                       74444  ABANTP COMMON  1             ABANDON TAPE FILE INDICATOR
                       74443  NOCHAN COMMON  1             NO. OF CHANNELS BEING READ (1 OR 2)
                       74442  DU     COMMON  1             PROBLEM NO. OF DUMP/LOAD PACKAGE
                       74441  DP     COMMON  1             PROGRAMMER NO. OF DITTO.
                       74440  LFNA   COMMON  1             LOAD TAPE FILE NAME (PART 1)
                       74437  LFNB   COMMON  1              ,,   ,,   ,,   ,,  (PART 2)
                       74423         COMMON  11            DUMPED FILE'S PREAMBLE FROM DUMP TAPE
                       74423  PREAM  COMMON  1             DUMPED FILE'S DUMP TAPE PREAMBLE 1ST WORD
                       74422  BFNA   COMMON  1             CHANNEL B LOAD TAPE FILE NAME (PART 1)
                       74421  BFNB   COMMON  1             CHANNEL B LOAD TAPE FILE NAME (PART 2)
                       74420  AUN    COMMON  1             CHANNEL A UNIT NO.
                       74417  BUN    COMMON  1             CHANNEL B UNIT NO.
                       74416  TEOF   COMMON  1             TAPE EOF INDICATOR/WORD COUNT
                       74412         COMMON  3             LABEL OF TAPE FILE CURRENTLY BEING LOADED
                       74412  LABEL  COMMON  1             LABEL OF TAPE FILE DITTO.   1ST WORD
                       74411  X      COMMON  1             TAPE FILE POINTER
                                     END

1            LOAD MAIN BODY OF DUMP TAPE FILE BETWEEN MFDS...M.J.BAILEY,2/1/65   05/11/69 2001.7 PAGE 1
                        POST PROCESSOR ASSEMBLY DATA

       74410 IS THE LAST LOCATION NOT USED BY THIS PROGRAM
      10064 IS THE FIRST LOCATION NOT USED BY THIS PROGRAM

0REFERENCES TO DEFINED SYMBOLS
       1277      W   152
      74411      X 10056
      74441     DP 10056
      74442     DU 10056
       1554     UF 10056
         77     X1    21
         76     X2    22
         75     X3    23
         74     X4    24
      74420    AUN 10056
      74417    BUN 10056
          1    RDF   200
        367    SEE    45,   51,   54
       1306    TPB  1275
      77777    UFL 10056
         27    XTA    64,  121,  126,  131,  133,  135,  140,  313,  341,  354
         36    XTC    33
         41    XTD    35
         65    XTE    60,   62
        101    ZTA    70,   72
        172    ZTM   217
        201    ZTN   176
        216    ZTO   177
        236    ZTP   203
        260    ZTQ   165,  211
        314    ZTS   220,  241
         17   BASE 10056
      74422   BFNA 10056
      74421   BFNB 10056
        414   DBUF   164
      74440   LFNA 10056
      74437   LFNB 10056
       1274   LTPB   167,  201
       1301   MEST   344,  350,  353
         10   OPEN   151
        122   SAME   111
        401   STAT   125,  127,  132,  137,  141
        376   TEMP   150,  170,  216,  237,  256,  325
      74416   TEOF    36,  262,10056
       4572   TPB2  1276
         55   XTDD    42
        206   ZTNA   240
        262   ZTQA   202
        300   ZTQB    40,  142,  245,  254
        264   ZTRA   261
        332   ZTSA   330
        333   ZTSB   331
         11  CLOSE   225,  270,  317
       1300  EOFCT   204,  236
        355  ERMES   302,  306,  311
1            LOAD MAIN BODY OF DUMP TAPE FILE BETWEEN MFDS...M.J.BAILEY,2/1/65   05/11/69 2001.7 PAGE 2
                        POST PROCESSOR ASSEMBLY DATA

          6  FWAIT   206,  314
      74412  LABEL 10056
        413  LDBUF   164
        365  LUSER    25,   26,  103,  114
          2  PAUSE 10056
      74423  PREAM    30,   44,   50,   57,   67,  104,  113,  117,  120,  123,  124,  136,  143,  146,  153,  154,  162
                     163,  207,  210,  213,  214,  222,  223,  226,  227,  231,  232,  233,  234,  247,  250,  265,  266
                     271,  272,  274,  275,  276,  277,  301,  305,  315,  316,  320,  321,  323,  324,  334,  335,  336
                     337,  343,  347,10056
       1275  TBADR   175
         14  WRFLX    53,  310,  352
        242  ZTQB1   157
        221 ABANCL   205,  263
          5 ABANKY 10056
         74 ABANTF    34,   37,   74,  235
      74444 ABANTP 10056
          4 ATTACH   116
          5 BUFFER   161
         15 CHFILE   246,  322
          3 CHLDFL 10056
         10 CHREEL 10056
        322 CLANUP   144
      77462 COMRLC 10056
          1 CTINUE 10056
      74446 DEMKEY 10056
          7 FSTATE   122
          2 GETLSG   101,  242
      74445 KEYVAL 10056
          7 LSREEL 10056
         21 LTFILE     0
        411 MFDNAM    66
      77777 NEWCOM 10056
      74443 NOCHAN 10056
        112 NOSAME   105,  107
      77461 OLDCOM 10056
        151 OPAGIN   257
          0 OPENDF    32
         16 PRNTER   260,  312,  332
         13 SETFIL   230,  273,  333
          4 STOPLD 10056
          6 SWCHAN 10056
          3 TRFILE   221,  264
        373 UFDNAM    56
         12 WRFILE   212
        410 ZTCODE   160,  243

0 NO ERROR IN ABOVE ASSEMBLY.
1       'OPEN' DUMPED FILE/READ N WORDS FROM DUMPED FILE...M.J.BAILEY,1/31/65    05/11/69 2002.0 PAGE 1

                              *           (TIME-SHARING VERSION)
                              *
                       00013         ENTRY   OPENDF
                       00166         ENTRY   RDF
                              *
                                     EXTERN  NLREC,GETLSG
                                     EXTERN  RDWAIT
                                     EXTERN  IODIAG,RDFILE,FWAIT
                                     EXTERN  WRFLX
                              *
                                     INSERT  BMCRSC
                              *
                              *  ZERO-IZE A THROUGH A+X-1
                              *
                               CLEAR MACRO   A,X
                                     AXT     X,1
                                     STZ     A+X,1
                                     TIX     *-1,1,1
                               CLEAR END
                              *
                              *      MOVE X WORDS FROM A ET SEQ TO B ET SEQ
                              *
                               MOVE  MACRO   X,A,B
                                     AXT     X,1
                                     CAL     A+X,1
                                     SLW     B+X,1
                                     TIX     *-2,1,1
                               MOVE  END
                              *
                              *  PRINT ONE LINE COMMENT
                              *
                              PRLINE MACRO   COMNT,NWC,LOC
                                     TSX     WRFLX,4
                                             LOC,,NWC
                                     RMT
                               LOC   BCI     NWC,COMNT
                                     RMT
                              PRLINE END
                              *
                              *
                              *      EXECUTE INST. IN CORE A
                              *
                              *
                              EXEC   MACRO   OPC,ADD
                                     TSX     $GETA,7
                                     OPC     ADD
                              EXEC   END
                              *
                              *      GET KEY SETTING VIA SUPERVISOR, SET ABANTP, NOCHAN IF APPROPRIATE
                              *
                              GETSIG MACRO
                                     TSX     GETLSG,4
                              GETSIG END
                              *
                              *      TEST WHETHER 2ND TAPE COPY IS NEEDED, IF NOT GO TO SKIP
                              *
1       'OPEN' DUMPED FILE/READ N WORDS FROM DUMPED FILE...M.J.BAILEY,1/31/65    05/11/69 2002.0 PAGE 2

                              SKIFNB MACRO   SKIP
                                     CLA     NOCHAN
                                     SUB     =1
                                     TZE     SKIP
                              SKIFNB END
                              *
                              *      PRINT AN N-WORD MESSAGE FROM  MESSGE
                              *
                              PRM    MACRO   MESSGE,N
                                     TSX     WRFLX,4
                                             MESSGE,,N
                              PRM    END
                              *
                              *      COMPARE 2 SETS OF N CONSECUTIVE WORDS IN A ETC., AND B ETC. ,
                              *      AND IF THEY DO NOT ALL MATCH, GO TO NF, OR OTHERWISE CONTINUE.
                              *
                              CMPWDS MACRO   N,A,B,NF
                                     AXT     N,1
                                     CAL     A+N,1
                                     LAS     B+N,1
                                     TRA     NF
                                     TRA     *+2
                                     TRA     NF
                                     TIX     *-5,1,1
                              CMPWDS END
                              *
                              *      WAIT FOR I/O ON FILE (A,B) TO END, GO TO E IF ERROR OCCURRED
                              *
                              WAIT   MACRO   A,B,E
                                     TSX     FWAIT,4
                                     PTH     A
                                     PTH     B
                                     PTH     E
                              WAIT   END
                              *
                              *      CLOSE THE FILE (A,B)
                              *
                              CLOSE  MACRO   A,B
                                     TSX     CLOSE,4
                                     PTH     A
                                     PTH     B
                              CLOSE  END
                              *
                              *
                              * - - - - - - - - - - - - - - - - - - - - - - - - - - - - - - -
                              *      'OPEN' NEXT DUMPED FILE -- SKIP TO NEXT (READABLE) FILE,
                              *      READ ITS PREAMBLE, AND ITS FIRST LOGICAL RECORD.
                              * - - - - - - - - - - - - - - - - - - - - - - - - - - - - - - - -
                              *

      00000  454351252360     NLREC
      00001  272563436227     GETLSG
      00002  512466213163     RDWAIT
      00003  314624312127     IODIAG
      00004  512426314325     RDFILE
      00005  266621316360     FWAIT
1       'OPEN' DUMPED FILE/READ N WORDS FROM DUMPED FILE...M.J.BAILEY,1/31/65    05/11/69 2002.0 PAGE 3

      00006  665126436760     WRFLX
      00007  475145632551     PRNTER
      00010  636263254626     TSTEOF


      00013  0634 00 1 00156  OPENDF SXA     X1,1
      00014  0634 00 2 00155         SXA     X2,2
      00015  0634 00 3 00154         SXA     X3,3
      00016  0634 00 4 00153         SXA     X4,4
      00017  0600 00 0 00633         STZ     M
      00020  0600 00 0 74416         STZ     TEOF
      00021  0500 00 0 00627         CLA     LEOROP
      00022  0621 00 0 00526         STA     ABNADD
      00023  0074 00 4 00001         TSX     GETLSG,4      IS OPERATOR'S TAPE FILE ABANDON
      00024  0500 00 0 74444         CLA     ABANTP        KEY CODE SETTING ON
      00025  0100 00 0 00031         TZE     *+4           SKIP IF NOT
      00026  0074 00 4 00006         TSX     WRFLX,4
      00027  0 00010 0 00615                 MESL,,8
      00030  0020 00 0 00526         TRA     EORABN        IF SO OBEY IT
      00031  0500 00 0 74411         CLA     X
      00032  0402 00 0 00574         SUB     PHYSRC
      00033 -0120 00 0 00161         TMI     ERTN          ERROR IF PTR SET BEFORE 1ST FILE,SKIP
      00034  0100 00 0 00122         TZE     OQ            SKIP IF FILE IS 1ST ON LOAD TAPE
                              *
                              * - - - - - - - - - - - - - - - - - - - - - - - - - - -
                              *      FIND START OF NEXT LOGICAL RECORD
                              * - - - - - - - - - - - - - - - - - - - - - - - - - - -
                              *
      00035  0500 00 0 00401         CLA     SOME
      00036 -0120 00 0 00057         TMI     JUMP
                              *
      00037  0500 00 0 74411         CLA     X
      00040  0400 00 0 00401         ADD     SOME
      00041  0601 00 0 74411         STO     X
      00042  0601 00 0 00604         STO     Y
      00043  0020 00 0 00051         TRA     *+6
                       00044  FL     EQU     *
      00044  0074 00 4 00001  FLA    TSX     GETLSG,4
      00045  0500 00 0 74411         CLA     X
      00046  0400 00 0 00574         ADD     PHYSRC
      00047  0601 00 0 74411         STO     X             X POINTS AT NEXT PHYSICAL RECORD
      00050  0601 00 0 00604         STO     Y             SO DOES Y
                              *
      00051  0074 00 4 00414  FLAB   TSX     BREAD,4       READ 12 WORDS FROM POSTN Y
 TD   00052  3 00000 0 00556         TXH     OPREAM
 TD   00053  3 00000 0 04123         TXH     =12
      00054  0020 00 0 00044         TRA     FLA           UNREAD, MOVE TO NEXT PHYSICAL REC.
      00055  0020 00 0 00044         TRA     FLA           READ ERROR, MOVE TO NEXT PHYS. REC.
      00056  0020 00 0 00160         TRA     REOF          REAL EOF EXIT
                              *
      00057  0500 00 0 00570  JUMP   CLA     OPREAM+10
      00060  0100 00 0 00044         TZE     FL
      00061  0074 00 4 00000         TSX     NLREC,4
      00062  3 00000 0 04120         PTH     =0
      00063  3 00000 0 04120         PTH     =0
      00064  3 00000 0 00570         PTH     OPREAM+10
1       'OPEN' DUMPED FILE/READ N WORDS FROM DUMPED FILE...M.J.BAILEY,1/31/65    05/11/69 2002.0 PAGE 4

      00065  3 00000 0 00573         PTH     LTPBF
      00066  3 00000 0 04123         PTH     =12
      00067  3 00000 0 00574         PTH     PHYSRC
      00070  3 00000 0 00575         PTH     NFLR
      00071  3 00000 0 00576         PTH     NLAST
      00072  0600 00 0 00601         STZ     TEMP
      00073 -0500 00 0 00571         CAL     OPREAM+11
      00074  0621 00 0 00601         STA     TEMP
      00075  0771 00 0 00022         ARS     18
      00076  0621 00 0 00577         STA     IREC
      00077  0500 00 0 00575         CLA     NFLR
      00100  0520 00 0 00576         ZET     NLAST
      00101  0400 00 0 04121         ADD     =1
      00102  0601 00 0 00600         STO     NREC
      00103  0402 00 0 00601         SUB     TEMP
      00104 -0100 00 0 00044         TNZ     FL
                              *
      00105  0500 00 0 00577         CLA     IREC          O.K.
      00106  0402 00 0 00600         SUB     NREC
      00107  0100 00 0 00111         TZE     *+2
      00110  0120 00 0 00044         TPL     FL            SKIP IF IREC .GR. NREC, PREAMBLE INVALID
                              *
      00111  0500 00 0 00577         CLA     IREC          THIS IS A LOGICAL RECORD
      00112  0402 00 0 04121         SUB     =1
      00113 -0100 00 0 00044         TNZ     FL            SPACE DOWN TO NEXT FILE IF NOT 1ST LOG.REC.
                              *
      00114                          MOVE    12,OPREAM,PREAM  THIS IS 1ST LOG.REC. IN FILE,AND WE WISH
      00114  0774 00 1 00014         AXT     12,1                                                             .001
      00115 -0500 00 1 00572         CAL     OPREAM+12,1                                                      .001
      00116  0602 00 1 74437         SLW     PREAM+12,1                                                       .001
      00117  2 00001 1 00115         TIX     *-2,1,1                                                          .001
      00120  0500 00 0 00570         CLA     OPREAM+10
      00121  0020 00 0 00130         TRA     OQC
                              *
                              * - - - - - - - - - - - - - - - - - - - - - - - - -
                              *      READ PREAMBLE OF 1ST DUMPED FILE OF LOAD FILE
                              * - - - - - - - - - - - - - - - - - - - - - - - - -
                              *
      00122  0500 00 0 74411  OQ     CLA     X
      00123  0400 00 0 04121         ADD     =1
      00124  0601 00 0 74411         STO     X
      00125  0601 00 0 00604         STO     Y
      00126  0600 00 0 00401         STZ     SOME
      00127  0020 00 0 00051         TRA     FLAB
                              *
                              *
      00130  0601 00 0 00625  OQC    STO     DWC
      00131  0500 00 0 74411         CLA     X
      00132  0400 00 0 04123         ADD     =12
      00133  0601 00 0 00604         STO     Y             Y=X+12
      00134  0500 00 0 00577         CLA     IREC
      00135  0402 00 0 00600         SUB     NREC
      00136 -0120 00 0 00141         TMI     *+3
      00137  0500 00 0 00625         CLA     DWC           (TRAILING ZEROS NOT INCLUDED IF
      00140  0020 00 0 00142         TRA     *+2            NOT A FULL LOGICAL RECORD)
      00141  0500 00 0 00573         CLA     LTPBF
1       'OPEN' DUMPED FILE/READ N WORDS FROM DUMPED FILE...M.J.BAILEY,1/31/65    05/11/69 2002.0 PAGE 5

      00142  0601 00 0 00626         STO     RWC           DATA WORD COUNT FOR LOGICAL RECORD
      00143  0074 00 4 00001         TSX     GETLSG,4
      00144  0074 00 4 00365         TSX     GSOME,4
                              *
                              *      READ IN THE DATA WORDS OF THE 1ST LOGICAL RECORD OF FILE
                              *
                              *
      00145  0074 00 4 00443         TSX     AREAD,4       READ IN RWC WORDS FROMPOSTN Y (=X+12)
 TD   00146  3 00000 0 00634         TXH     WBF
 TD   00147  3 00000 0 00626         TXH     RWC
      00150  0020 00 0 00161         TRA     ERTN          UNREAD, ERROR, SKIP
      00151  0020 00 0 00161         TRA     ERTN          READ ERROR, SKIP
      00152  0020 00 0 00160         TRA     REOF          TAPE EOF - SKIP
                              * - - - - - - - - - - - - - - - - - - - - -
                              *      RESTORE AND RETURN FROM OPENDF
                              * - - - - - - - - - - - - - - - - - - - - -
                              *
      00153  0774 00 4 00000  X4     AXT     **,4
      00154  0774 00 3 00000  X3     AXT     **,3
      00155  0774 00 2 00000  X2     AXT     **,2
      00156  0774 00 1 00000  X1     AXT     **,1
      00157  0020 00 4 00003         TRA     3,4           RETURN TO CALLER
                              *
      00160 -0625 00 0 74416  REOF   STL     TEOF          TAPE EOF RETURN
      00161  0534 00 4 00153  ERTN   LXA     X4,4          ERROR RETURN
      00162  0534 00 3 00154  IX3    LXA     X3,3
      00163  0534 00 2 00155         LXA     X2,2
      00164  0534 00 1 00156         LXA     X1,1
      00165  0020 60 4 00001         TRA*    1,4
                              *
                              * - - - - - - - - - - - - - - - - - - - - - - - - - - -
                              *      READ FROM DUMPED FILE ON TAPE N WORDS INTO ANAME ETC.
                              * - - - - - - - - - - - - - - - - - - - - - - - - - - -
                              *
      00166  0634 00 1 00270  RDF    SXA     DX1,1
      00167  0634 00 2 00267         SXA     DX2,2
      00170  0634 00 3 00266         SXA     DX3,3
      00171  0634 00 4 00265         SXA     DX4,4
      00172  0074 00 4 00001         TSX     GETLSG,4
      00173  0600 00 0 74416         STZ     TEOF
      00174  0534 00 4 00265         LXA     DX4,4
      00175  0500 00 4 00001         CLA     1,4
      00176  0621 00 0 00245         STA     RFF           ANAME
      00177  0771 00 0 00022         ARS     18            ADDRESS OF N
      00200  0621 00 0 00212         STA     RFA
      00201  0621 00 0 00215         STA     RFB
      00202  0500 00 0 00630         CLA     LEORRD
      00203  0621 00 0 00526         STA     ABNADD
      00204  0500 00 0 74444         CLA     ABANTP        TEST FOR OPRTR REQUESTED TAPE FILE ABANDON
      00205  0100 00 0 00211         TZE     *+4           SKIP IF NOT
      00206  0074 00 4 00006         TSX     WRFLX,4
      00207  0 00010 0 00615                 MESL,,8
      00210  0020 00 0 00526         TRA     EORABN        IF SO, SKIP
                              *
                              *      ENSURE THAT ONLY AS MANY WORDS AS ARE
                              *      LEFT IN THE DUMPED FILE GET READ.
1       'OPEN' DUMPED FILE/READ N WORDS FROM DUMPED FILE...M.J.BAILEY,1/31/65    05/11/69 2002.0 PAGE 6

                              *
      00211  0502 00 0 00625         CLS     DWC           NO. WDS. LEFT IN FILE
      00212  0400 00 0 00000  RFA    ADD     **            (N)
      00213  0100 00 0 00220         TZE     RFC
      00214  0120 00 0 00220         TPL     RFC           SKIP IF N LARGER THAN NO. WORDS IN FILE
      00215  0500 00 0 00000  RFB    CLA     **            (N)
      00216  0600 60 4 00004         STZ*    4,4           NO END TO FILE THIS TIME
      00217  0020 00 0 00222         TRA     RFD           SKIP
      00220  0500 00 0 00625  RFC    CLA     DWC           NO. OF WORDS LEFT IN FILE, IS
      00221  0601 60 4 00004         STO*    4,4           END (DUMPED) FILE WORD COUNT, AND
      00222  0734 00 3 00000  RFD    PAX     0,3           NO. OF WORDS TO BE RETURNED BY RDF
      00223  0601 00 0 00572         STO     NW1
      00224 -0520 00 0 00626         NZT     RWC
      00225  0020 00 0 00274         TRA     RFH           SKIP IF NOTHING LEFT IN BUFFER
                              *
                              *      MOVE UP TO A LOGICAL RECORD FULL OF WORDS TO CALLER'S AREA
                              *
      00226  0502 00 0 00626  RFDA   CLS     RWC           NO. OF WORDS LAST READ FROM LOGICAL REC.
      00227  0400 00 0 00572         ADD     NW1
      00230  0120 00 0 00233         TPL     *+3           SKIP IF NO. WORDS TO BE READ IS BIGGER
      00231  0500 00 0 00572         CLA     NW1           TOTAL NO. WORDS LEFT TO BE READ SMALLER
      00232  0020 00 0 00234         TRA     *+2           SKIP TO MOVE THAT NO. ONLY
      00233  0500 00 0 00626         CLA     RWC           ELSE USE NO. OF WORDS IN LOG. REC.
      00234  0601 00 0 00632         STO     T             SET NO. WORDS TO BE MOVED , = T
      00235  0734 00 1 00000         PAX     0,1
      00236  0400 00 0 00245         ADD     RFF           ANAME+........
      00237  0621 00 0 00245         STA     RFF           ANAME+........+T
      00240  0500 00 0 00632         CLA     T             T
      00241  0400 00 0 00631         ADD     LWBF          WBF
      00242  0400 00 0 00633         ADD     M             M
      00243  0621 00 0 00244         STA     RFE           WBF+M+T
                              *
      00244  0500 00 1 00000  RFE    CLA     **,1          (WBF+M+T)
      00245  0601 00 1 00000  RFF    STO     **,1          (ANAME + SUM OF ALL T'S)
      00246  2 00001 1 00244         TIX     RFE,1,1
                              *
                              *      DECREASE NO. WORDS LEFT IN FILE AND IN LOG. REC. BUFFER AND NO.
                              *      STILL NEEDED TO BE READ
                              *
      00247  0500 00 0 00625         CLA     DWC
      00250  0402 00 0 00632         SUB     T
      00251  0601 00 0 00625         STO     DWC
      00252  0500 00 0 00633         CLA     M
      00253  0400 00 0 00632         ADD     T
      00254  0601 00 0 00633         STO     M
      00255  0500 00 0 00626         CLA     RWC
      00256  0402 00 0 00632         SUB     T
      00257  0601 00 0 00626         STO     RWC
      00260  0500 00 0 00572         CLA     NW1
      00261  0402 00 0 00632         SUB     T
      00262  0601 00 0 00572         STO     NW1
      00263 -0100 00 0 00274         TNZ     RFH           SKIP IF MORE WORDS NEEDED
                              *
                              * - - - - - - - - - - - - - -
                              *      NORMAL RETURN FROM RDF
                              * - - - - - - - - - - - - - -
1       'OPEN' DUMPED FILE/READ N WORDS FROM DUMPED FILE...M.J.BAILEY,1/31/65    05/11/69 2002.0 PAGE 7

                              *
      00264  0074 00 4 00001         TSX     GETLSG,4
      00265  0774 00 4 00000  DX4    AXT     **,4
      00266  0774 00 3 00000  DX3    AXT     **,3
      00267  0774 00 2 00000  DX2    AXT     **,2
      00270  0774 00 1 00000  DX1    AXT     **,1
      00271  0520 60 4 00004         ZET*    4,4           TEST E.O.F. WORD COUNT
      00272  0020 60 4 00003         TRA*    3,4           EOF (IN DUMPED FILE) RETURN, IF NON-ZERO
      00273  0020 00 4 00006         TRA     6,4           NORMAL RETURN IF ZERO
                              *
                              *      READ IN ANOTHER LOGICAL RECORD FULL
                              *
      00274  0074 00 4 00001  RFH    TSX     GETLSG,4
      00275  0500 00 0 00577         CLA     IREC
      00276  0400 00 0 04121         ADD     =1
      00277  0601 00 0 00577         STO     IREC          INDEX OF NEXT LOGICAL RECORD
      00300  0402 00 0 00600         SUB     NREC          LAST LOG. RE. NO.
      00301 -0120 00 0 00304         TMI     *+3           SKIP IF NOT LAST LOG. REC.
      00302  0500 00 0 00625         CLA     DWC           LAST ONE, GET NO. WORDS LEFT IN FILE
      00303  0020 00 0 00305         TRA     *+2           SKIP
      00304  0500 00 0 00573         CLA     LTPBF         NOT LAST, GET SIZE OF A LOG. REC.
      00305  0601 00 0 00626         STO     RWC           FOR NO. OF DATA WORDS TO BE READ
      00306  0600 00 0 00633         STZ     M
      00307  0074 00 4 00365         TSX     GSOME,4
                              *
      00310  0500 00 0 74411  RFHA   CLA     X
      00311  0400 00 0 00603         ADD     LLR
      00312  0601 00 0 00604         STO     Y             MOVE Y TO START OF NEXT LOG. REC.
      00313  0601 00 0 74411         STO     X
                              *
      00314                          MOVE    12,OPREAM,PRPR
      00314  0774 00 1 00014         AXT     12,1                                                             .001
      00315 -0500 00 1 00572         CAL     OPREAM+12,1                                                      .001
      00316  0602 00 1 00556         SLW     PRPR+12,1                                                        .001
      00317  2 00001 1 00315         TIX     *-2,1,1                                                          .001
      00320  0074 00 4 00414         TSX     BREAD,4       READ PREAMBLE OF NEXT LOG. REC.
 TD   00321  3 00000 0 00556         TXH     OPREAM        AFTER MOVING 2ND COPY DOWN
 TD   00322  3 00000 0 04123         TXH     =12           TO X, AND SETTING X=Y.
      00323  0020 00 0 00357         TRA     DIX4          NOTHING READ
      00324  0020 00 0 00357         TRA     DIX4          READ ERROR
      00325  0020 00 0 00356         TRA     DIX47         TAPE EOF
                              *
      00326                          CMPWDS  11,OPREAM,PRPR,BADFIL
      00326  0774 00 1 00013         AXT     11,1                                                             .001
      00327 -0500 00 1 00571         CAL     OPREAM+11,1                                                      .001
      00330 -0340 00 1 00555         LAS     PRPR+11,1                                                        .001
      00331  0020 00 0 00352         TRA     BADFIL                                                           .001
      00332  0020 00 0 00334         TRA     *+2                                                              .001
      00333  0020 00 0 00352         TRA     BADFIL                                                           .001
      00334  2 00001 1 00327         TIX     *-5,1,1                                                          .001
                              *
      00335  0500 00 0 00571         CLA     OPREAM+11
      00336  0402 00 0 00555         SUB     PRPR+11
      00337  0100 00 0 00310         TZE     RFHA          IGNORE LOG.REC. IF SAME NO. AS LAST
                              *
      00340  0500 00 0 74411  RFI    CLA     X
1       'OPEN' DUMPED FILE/READ N WORDS FROM DUMPED FILE...M.J.BAILEY,1/31/65    05/11/69 2002.0 PAGE 8

      00341  0400 00 0 04123         ADD     =12
      00342  0601 00 0 00604         STO     Y             Y=X+12
                              *
      00343  0074 00 4 00443         TSX     AREAD,4       READ IN RWC DATA WORDS FROM
 TD   00344  3 00000 0 00634         TXH     WBF           POSTN. Y = X+12 OF TAPE FILE
 TD   00345  3 00000 0 00626         TXH     RWC
      00346  0020 00 0 00357         TRA     DIX4
      00347  0020 00 0 00357         TRA     DIX4
      00350  0020 00 0 00356         TRA     DIX47
                              *
      00351  0020 00 0 00226         TRA     RFDA          RETURN TO MOVE WORDS FROM BUFFER
                              *
      00352  0500 00 0 00401  BADFIL CLA     SOME
      00353 -0760 00 0 00003         SSM
      00354  0601 00 0 00401         STO     SOME
      00355  0020 00 0 00357         TRA     DIX4
                              *
                              *      ERROR RETURN FROM RDF
                              *
      00356 -0625 00 0 74416  DIX47  STL     TEOF
      00357  0074 00 4 00001  DIX4   TSX     GETLSG,4
      00360  0534 00 4 00265         LXA     DX4,4
      00361  0534 00 3 00266  DIX3   LXA     DX3,3
      00362  0534 00 2 00267         LXA     DX2,2
      00363  0534 00 1 00270         LXA     DX1,1
      00364  0020 60 4 00002         TRA*    2,4
                              *
      00365  0774 00 1 00001  GSOME  AXT     1,1
      00366  0500 00 0 00626         CLA     RWC
      00367  0400 00 0 04123         ADD     =12
      00370  0402 00 0 04124         SUB     =432
      00371 -0120 00 0 00374         TMI     *+3
      00372  0100 00 0 00374         TZE     *+2
      00373  1 00001 1 00370         TXI     *-3,1,1
      00374  0754 00 1 00000         PXA     ,1
      00375  0131 00 0 00000         XCA
      00376  0200 00 0 04124         MPY     =432
      00377 -0600 00 0 00401         STQ     SOME
      00400  0020 00 4 00001         TRA     1,4
                              *
      00401  0 00000 0 00000  SOME   PZE
                              *
                              * - - - - - - - - - - - - - - - - - - - - - - - - - - - - - - - - -
                              *      BASIC READ - SKIP 2ND COPY DOWN TO X, SET X=Y, READ FROM MAIN
                              *       COPY, POSITION Y, INTO (1,4), A NO. OF WORDS GIVEN BY (2,4).
                              * - - - - - - - - - - - - - - - - - - - - - - - - - - - - - - - - -
                              *
      00402  0634 00 4 00410  CHERR  SXA     CH4,4
      00403  0074 00 4 00003         TSX     IODIAG,4
      00404  3 00007 0 00533         TXH     ERAY,,7
      00405 -0500 00 0 00536         CAL     ERAY+3
      00406  0402 00 0 04122         SUB     =6
      00407  0100 00 0 00412         TZE     ANYEOF
      00410  0774 00 4 00000  CH4    AXT     **,4
      00411  0020 00 4 00002         TRA     2,4
      00412  0534 00 4 00410  ANYEOF LXA     CH4,4
1       'OPEN' DUMPED FILE/READ N WORDS FROM DUMPED FILE...M.J.BAILEY,1/31/65    05/11/69 2002.0 PAGE 9

      00413  0020 60 4 00001         TRA*    1,4
                              *
                              *
      00414  0634 00 4 00504  BREAD  SXA     BRX4,4
      00415  0500 00 4 00001         CLA     1,4
      00416  0621 00 0 00455         STA     BRE
      00417  0621 00 0 00500         STA     BRI
      00420  0500 60 4 00002         CLA*    2,4
      00421  0601 00 0 00605         STO     NWORDS
      00422                          SKIFNB  AREADA        SKIP IF NO 2ND TAPE COPY
      00422  0500 00 0 74443         CLA     NOCHAN                                                           .001
      00423  0402 00 0 04121         SUB     =1                                                               .001
      00424  0100 00 0 00451         TZE     AREADA                                                           .001
                              *
      00425  0074 00 4 00004         TSX     RDFILE,4
      00426  3 00000 0 74422         PTH     BFNA
      00427  3 00000 0 74421         PTH     BFNB
      00430  3 00000 0 74411         PTH     X
      00431  3 00001 0 00601         PTH     TEMP,,1
      00432  3 00000 0 00515         PTH     BRM
      00433  3 00000 0 00601         PTH     TEMP
      00434  3 00000 0 00436         PTH     BRB
      00435  0020 00 0 00451         TRA     AREADA
                              *
      00436  0074 00 4 00402  BRB    TSX     CHERR,4
 TD   00437  3 00000 0 00515         TXH     BRM
      00440                          PRM     MESK,7
      00440  0074 00 4 00006         TSX     WRFLX,4                                                          .001
      00441  0 00007 0 00606                 MESK,,7                                                          .001
      00442  0020 00 0 00451         TRA     AREADA
                              *
                              *      READ FROM MAIN COPY, POSITION Y, INTO (1,4) ET SEQ, (2,4) WORDS
                              *
      00443  0634 00 4 00504  AREAD  SXA     BRX4,4
      00444  0500 00 4 00001         CLA     1,4
      00445  0621 00 0 00455         STA     BRE
      00446  0621 00 0 00500         STA     BRI
      00447  0500 60 4 00002         CLA*    2,4
      00450  0601 00 0 00605         STO     NWORDS
      00451  0074 00 4 00002  AREADA TSX     RDWAIT,4
 TD   00452  3 00000 0 74440         TXH     LFNA
 TD   00453  3 00000 0 74437         TXH     LFNB
 TD   00454  3 00000 0 00604         TXH     Y
      00455  2 00605 0 00000  BRE    TIX     **,,NWORDS
 TD   00456  3 00000 0 00515         TXH     BRM
 TD   00457  3 00000 0 74416         TXH     TEOF
 TD   00460  3 00000 0 00463         TXH     BRF
      00461  0074 00 4 00001         TSX     GETLSG,4
      00462  0020 00 0 00504         TRA     BRX4
                              *
      00463  0074 00 4 00402  BRF    TSX     CHERR,4
 TD   00464  3 00000 0 00515         TXH     BRM
                              *
                              *      ERROR, TRY TO READ FROM SECONDARY COPY INSTEAD OF MAIN ONE
                              *
      00465                          SKIFNB  BRK           SKIP IF NO 2ND TAPE COPY
1       'OPEN' DUMPED FILE/READ N WORDS FROM DUMPED FILE...M.J.BAILEY,1/31/65    05/11/69 2002.0 PAGE 10

      00465  0500 00 0 74443         CLA     NOCHAN                                                           .001
      00466  0402 00 0 04121         SUB     =1                                                               .001
      00467  0100 00 0 00510         TZE     BRK                                                              .001
      00470  0074 00 4 00005         TSX     FWAIT,4       WAIT ON I/O.
 TD   00471  3 00000 0 74422         TXH     BFNA
 TD   00472  3 00000 0 74421         TXH     BFNB
 TD   00473  3 00000 0 00474         TXH     *+1
      00474  0074 00 4 00002         TSX     RDWAIT,4
 TD   00475  3 00000 0 74422         TXH     BFNA
 TD   00476  3 00000 0 74421         TXH     BFNB
 TD   00477  3 00000 0 00604         TXH     Y
      00500  2 00605 0 00000  BRI    TIX     **,,NWORDS
 TD   00501  3 00000 0 00515         TXH     BRM
 TD   00502  3 00000 0 74416         TXH     TEOF
 TD   00503  3 00000 0 00506         TXH     BRJ
      00504  0774 00 4 00000  BRX4   AXT     **,4
      00505  0020 00 4 00006         TRA     6,4
                              *
      00506  0074 00 4 00402  BRJ    TSX     CHERR,4
 TD   00507  3 00000 0 00515         TXH     BRM
      00510  0074 00 4 00007  BRK    TSX     $PRNTER,4
      00511  0534 00 4 00504         LXA     BRX4,4
      00512  0020 00 4 00004         TRA     4,4
                              *
      00513  0534 00 4 00504  BRLA   LXA     BRX4,4
      00514  0020 00 4 00005         TRA     5,4
                              *
      00515  0074 00 4 00010  BRM    TSX     $TSTEOF,4     END OF REEL
      00516  0020 00 0 00526         TRA     ABNADD        ABANDON TAPE FILE
      00517  0020 00 0 00521         TRA     *+2           ERROR
      00520  0020 00 0 00513         TRA     BRLA          END OF FILE (LAST REEL)
      00521  0500 00 0 00574         CLA     PHYSRC        END OF REEL, REELS CHANGED
      00522  0400 00 0 04121         ADD     =1
      00523  0601 00 0 74411         STO     X
      00524  0601 00 0 00604         STO     Y
      00525  0020 00 0 00451         TRA     AREADA
                              *
                       00526  EORABN EQU     *
      00526  0020 00 0 00000  ABNADD TRA     **            (OPENDF OR RDF RETURN)
                              *
      00527  0534 00 4 00153  EORAB1 LXA     X4,4          OPENDF RETURN
      00530  1 77777 4 00162         TXI     IX3,4,-1      GO RETURN VIA (2,4)
                              *
      00531  0534 00 4 00265  EORAB2 LXA     DX4,4         RDF RETURN
      00532  1 77775 4 00361         TXI     DIX3,4,-3     GO RETURN VIA (5,4)
                              *
                              * - - - - - - - - - - - - - - - - - - - - - - - - - - - -
                              *      CONSTANTS, VARIABLES, ETC.
                              * - - - - - - - - - - - - - - - - - - - - - - - - - - - -
                              *
      00533                   ERAY   BSS     7
      00542                   PRPR   BSS     12
      00556                   OPREAM BSS     12
      00572  0 00000 0 00000  NW1    PZE
      00573  0 00000 0 03264  LTPBF  PZE     4*432-12
      00574  0 00000 0 00660  PHYSRC PZE     432
1       'OPEN' DUMPED FILE/READ N WORDS FROM DUMPED FILE...M.J.BAILEY,1/31/65    05/11/69 2002.0 PAGE 11

      00575  0 00000 0 00000  NFLR   PZE
      00576  0 00000 0 00000  NLAST  PZE
      00577  0 00000 0 00000  IREC   PZE
      00600  0 00000 0 00000  NREC   PZE
      00601                   TEMP   BSS     2
      00603  0 00000 0 03300  LLR    PZE     4*432
      00604  0 00000 0 00000  Y      PZE
      00605  0 00000 0 00000  NWORDS PZE
      00606  606225234645     MESK   BCI     7, SECONDARY COPY NOT MOVED DOWN THIS TIME.
      00615  606321472560     MESL   BCI     8, TAPE FILE WILL BE ABANDONED, PUT KEY UP AGAIN.
      00625  0 00000 0 00000  DWC    PZE
      00626  0 00000 0 00000  RWC    PZE
      00627  0 00000 0 00527  LEOROP PZE     EORAB1
      00630  0 00000 0 00531  LEORRD PZE     EORAB2
      00631  0 00000 0 00634  LWBF   PZE     WBF
      00632  0 00000 0 00000  T      PZE
      00633  0 00000 0 00000  M      PZE
      00634                   WBF    BSS     4*432-12
                                     INSERT  BCMEQB
                              *
                              *  -  -  -  -  -  -  -  -  -  -  -  -  -  -  -  -  -  -
                              *      COMMON AND EQUIVALENCE FOR SECONDARY STORAGE LOAD
                              *         (TIME-SHARING VERSION)
                              *  -  -  -  -  -  -  -  -  -  -  -  -  -  -  -  -  -  -
                              *
                      074446  DEMKEY BOOL    74446         CORE A LOCATION FOR DAEMON KEY SETTING
                              *
                      000017  BASE   BOOL    17            KEY CODE BASE
                      000001  CTINUE BOOL    1             KEY CODE TO CONTINUE WITH PROGRAM,NO CHANGE
                      000002  PAUSE  BOOL    2             KEY CODE TO WAIT 60 SECS.
                      000003  CHLDFL BOOL    3             KEY CODE TO USE DIFFERENT LOAD FILE
                      000004  STOPLD BOOL    4             KEY CODE TO STOP LOADING, START DUMPING
                      000005  ABANKY BOOL    5             KEY CODE TO ABANDON LOAD TAPE FILE
                      000006  SWCHAN BOOL    6             KEY CODE TO GO FROM 1 OR 2 TO 2 OR 1 CHANS.
                      000007  LSREEL BOOL    7             KEY CODE TO INDICATE LAST REEL OF LOAD FILE
                      000010  CHREEL BOOL    10            KEY CODE TO CORRECT REEL ORDER ERROR
                       77777  NEWCOM EQU     -1            TOP OF MEMORY
                      077461  OLDCOM BOOL    77461         OLD TOP OF COMMON
                       77462  COMRLC EQU     OLDCOM-NEWCOM RELOCATION FACTOR
                       77777         COMMON  COMRLC        RELOCATE COMMON
                       01554  UF     EQU     32767/2-DEMKEY/2 LENGTH OF USER LIST
                       77777  UFL    COMMON  2*UF          USER FILE LIST  (1ST PARTS OF FILE NAMES)
                       74446         COMMON  1             INSERT DUMMY IF NECESSARY
                       74445         COMMON  1             DEMKEY CELL IN NON-CTSS VERSION
                       74445  KEYVAL COMMON  1
                       74444  ABANTP COMMON  1             ABANDON TAPE FILE INDICATOR
                       74443  NOCHAN COMMON  1             NO. OF CHANNELS BEING READ (1 OR 2)
                       74442  DU     COMMON  1             PROBLEM NO. OF DUMP/LOAD PACKAGE
                       74441  DP     COMMON  1             PROGRAMMER NO. OF DITTO.
                       74440  LFNA   COMMON  1             LOAD TAPE FILE NAME (PART 1)
                       74437  LFNB   COMMON  1              ,,   ,,   ,,   ,,  (PART 2)
                       74423         COMMON  11            DUMPED FILE'S PREAMBLE FROM DUMP TAPE
                       74423  PREAM  COMMON  1             DUMPED FILE'S DUMP TAPE PREAMBLE 1ST WORD
                       74422  BFNA   COMMON  1             CHANNEL B LOAD TAPE FILE NAME (PART 1)
                       74421  BFNB   COMMON  1             CHANNEL B LOAD TAPE FILE NAME (PART 2)
                       74420  AUN    COMMON  1             CHANNEL A UNIT NO.
1       'OPEN' DUMPED FILE/READ N WORDS FROM DUMPED FILE...M.J.BAILEY,1/31/65    05/11/69 2002.0 PAGE 12

                       74417  BUN    COMMON  1             CHANNEL B UNIT NO.
                       74416  TEOF   COMMON  1             TAPE EOF INDICATOR/WORD COUNT
                       74412         COMMON  3             LABEL OF TAPE FILE CURRENTLY BEING LOADED
                       74412  LABEL  COMMON  1             LABEL OF TAPE FILE DITTO.   1ST WORD
                       74411  X      COMMON  1             TAPE FILE POINTER
                                     END

1       'OPEN' DUMPED FILE/READ N WORDS FROM DUMPED FILE...M.J.BAILEY,1/31/65    05/11/69 2002.0 PAGE 1
                        POST PROCESSOR ASSEMBLY DATA

       74410 IS THE LAST LOCATION NOT USED BY THIS PROGRAM
       4125 IS THE FIRST LOCATION NOT USED BY THIS PROGRAM

0REFERENCES TO DEFINED SYMBOLS
        633      M    17,  242,  252,  254,  306
        632      T   234,  240,  250,  253,  256,  261
      74411      X    31,   37,   41,   45,   47,  122,  124,  131,  310,  313,  340,  430,  523, 4120
        604      Y    42,   50,  125,  133,  312,  342,  454,  477,  524
      74441     DP  4120
      74442     DU  4120
         44     FL    44,   60,  104,  110,  113
        122     OQ    34
       1554     UF  4120
        156     X1    13,  164
        155     X2    14,  163
        154     X3    15,  162
        153     X4    16,  161,  527
      74420    AUN  4120
        436    BRB   434
        455    BRE   416,  445
        463    BRF   460
        500    BRI   417,  446
        506    BRJ   503
        510    BRK   467
        515    BRM   432,  437,  456,  464,  501,  507
      74417    BUN  4120
        410    CH4   402,  412
        625    DWC   130,  137,  211,  220,  247,  251,  302
        270    DX1   166,  363
        267    DX2   167,  362
        266    DX3   170,  361
        265    DX4   171,  174,  360,  531
         44    FLA    54,   55
        162    IX3   530
        603    LLR   311
        572    NW1   223,  227,  231,  260,  262
        130    OQC   121
        166    RDF     0
        212    RFA   200
        215    RFB   201
        220    RFC   213,  214
        222    RFD   217
        244    RFE   243,  246
        245    RFF   176,  236,  237
        274    RFH   225,  263
        340    RFI
        626    RWC   142,  147,  224,  226,  233,  255,  257,  305,  345,  366
      77777    UFL  4120
        634    WBF   146,  344,  631
         17   BASE  4120
      74422   BFNA   426,  471,  475, 4120
      74421   BFNB   427,  472,  476, 4120
        513   BRLA   520
        504   BRX4   414,  443,  462,  511,  513
1       'OPEN' DUMPED FILE/READ N WORDS FROM DUMPED FILE...M.J.BAILEY,1/31/65    05/11/69 2002.0 PAGE 2
                        POST PROCESSOR ASSEMBLY DATA

        361   DIX3   532
        357   DIX4   323,  324,  346,  347,  355
        533   ERAY   404,  405
        161   ERTN    33,  150,  151
         51   FLAB   127
        577   IREC    76,  105,  111,  134,  275,  277
         57   JUMP    36
      74440   LFNA   452, 4120
      74437   LFNB   453, 4120
        631   LWBF   241
        606   MESK   441
        615   MESL    27,  207
        575   NFLR    70,   77
        600   NREC   102,  106,  135,  300
        542   PRPR   316,  330,  336
        160   REOF    56,  152
        226   RFDA   351
        310   RFHA   337
        401   SOME    35,   40,  126,  352,  354,  377
        601   TEMP    72,   74,  103,  431,  433
      74416   TEOF    20,  160,  173,  356,  457,  502, 4120
        443  AREAD   145,  343
        414  BREAD    51,  320
        402  CHERR   436,  463,  506
        356  DIX47   325,  350
          5  FWAIT   470
        365  GSOME   144,  307
      74412  LABEL  4120
        573  LTPBF    65,  141,  304
        576  NLAST    71,  100
          0  NLREC    61
          2  PAUSE  4120
      74423  PREAM   116, 4120
          6  WRFLX    26,  206,  440
          5 ABANKY  4120
      74444 ABANTP    24,  204, 4120
        526 ABNADD    22,  203,  516
        412 ANYEOF   407
        451 AREADA   424,  435,  442,  525
        352 BADFIL   331,  333
          3 CHLDFL  4120
         10 CHREEL  4120
      77462 COMRLC  4120
          1 CTINUE  4120
      74446 DEMKEY  4120
        527 EORAB1   627
        531 EORAB2   630
        526 EORABN    30,  210,  526
          1 GETLSG    23,   44,  143,  172,  264,  274,  357,  461
          3 IODIAG   403
      74445 KEYVAL  4120
        627 LEOROP    21
        630 LEORRD   202
          7 LSREEL  4120
      77777 NEWCOM  4120
1       'OPEN' DUMPED FILE/READ N WORDS FROM DUMPED FILE...M.J.BAILEY,1/31/65    05/11/69 2002.0 PAGE 3
                        POST PROCESSOR ASSEMBLY DATA

      74443 NOCHAN   422,  465, 4120
        605 NWORDS   421,  450,  455,  500
      77461 OLDCOM  4120
         13 OPENDF     0
        556 OPREAM    52,   57,   64,   73,  115,  120,  315,  321,  327,  335
        574 PHYSRC    32,   46,   67,  521
          7 PRNTER   510
          4 RDFILE   425
          2 RDWAIT   451,  474
          4 STOPLD  4120
          6 SWCHAN  4120
         10 TSTEOF   515

0 NO ERROR IN ABOVE ASSEMBLY.
1       INITIATE AND TERMINATE DUMP TAPE FILE READS.....M.J.BAILEY..1/31/65      05/11/69 2002.3 PAGE 1

                              *           (TIME-SHARING VERSION)
                              *
                       00022         ENTRY   INITTF
                       00403         ENTRY   TERMTF
                       00437         ENTRY   TSTEOF
                              *
                                     EXTERN  GETLSG,IOBDT
                                     EXTERN  ATTACH
                                     EXTERN  ATTNAM
                                     EXTERN  RDWAIT,FWAIT
                                     EXTERN  VERIFY,BUFFER,OPEN,SLEEP
                                     EXTERN  MOUNT,UMOUNT,CLOSE,WRFLX
                              *
                                     INSERT  BMCRSC
                              *
                              *  ZERO-IZE A THROUGH A+X-1
                              *
                               CLEAR MACRO   A,X
                                     AXT     X,1
                                     STZ     A+X,1
                                     TIX     *-1,1,1
                               CLEAR END
                              *
                              *      MOVE X WORDS FROM A ET SEQ TO B ET SEQ
                              *
                               MOVE  MACRO   X,A,B
                                     AXT     X,1
                                     CAL     A+X,1
                                     SLW     B+X,1
                                     TIX     *-2,1,1
                               MOVE  END
                              *
                              *  PRINT ONE LINE COMMENT
                              *
                              PRLINE MACRO   COMNT,NWC,LOC
                                     TSX     WRFLX,4
                                             LOC,,NWC
                                     RMT
                               LOC   BCI     NWC,COMNT
                                     RMT
                              PRLINE END
                              *
                              *
                              *      EXECUTE INST. IN CORE A
                              *
                              *
                              EXEC   MACRO   OPC,ADD
                                     TSX     $GETA,7
                                     OPC     ADD
                              EXEC   END
                              *
                              *      GET KEY SETTING VIA SUPERVISOR, SET ABANTP, NOCHAN IF APPROPRIATE
                              *
                              GETSIG MACRO
                                     TSX     GETLSG,4
                              GETSIG END
1       INITIATE AND TERMINATE DUMP TAPE FILE READS.....M.J.BAILEY..1/31/65      05/11/69 2002.3 PAGE 2

                              *
                              *      TEST WHETHER 2ND TAPE COPY IS NEEDED, IF NOT GO TO SKIP
                              *
                              SKIFNB MACRO   SKIP
                                     CLA     NOCHAN
                                     SUB     =1
                                     TZE     SKIP
                              SKIFNB END
                              *
                              *      PRINT AN N-WORD MESSAGE FROM  MESSGE
                              *
                              PRM    MACRO   MESSGE,N
                                     TSX     WRFLX,4
                                             MESSGE,,N
                              PRM    END
                              *
                              *      COMPARE 2 SETS OF N CONSECUTIVE WORDS IN A ETC., AND B ETC. ,
                              *      AND IF THEY DO NOT ALL MATCH, GO TO NF, OR OTHERWISE CONTINUE.
                              *
                              CMPWDS MACRO   N,A,B,NF
                                     AXT     N,1
                                     CAL     A+N,1
                                     LAS     B+N,1
                                     TRA     NF
                                     TRA     *+2
                                     TRA     NF
                                     TIX     *-5,1,1
                              CMPWDS END
                              *
                              *      WAIT FOR I/O ON FILE (A,B) TO END, GO TO E IF ERROR OCCURRED
                              *
                              WAIT   MACRO   A,B,E
                                     TSX     FWAIT,4
                                     PTH     A
                                     PTH     B
                                     PTH     E
                              WAIT   END
                              *
                              *      CLOSE THE FILE (A,B)
                              *
                              CLOSE  MACRO   A,B
                                     TSX     CLOSE,4
                                     PTH     A
                                     PTH     B
                              CLOSE  END
                              *
                              * - - - - - - - - - - - - - - - - - - - - - - - - - - - - - -
                              *      INITIATE DUMP TAPE FILE READ (OPEN, AND READ I.D
                              *       LABELS FROM BOTH COPIES, AND CHECK THEY MATCH)
                              * - - - - - - - - - - - - - - - - - - - - - - - - - - - - - -
                              *

      00000  272563436227     GETLSG
      00001  314622246360     IOBDT
      00002  216363212330     ATTACH
      00003  216363452144     ATTNAM
1       INITIATE AND TERMINATE DUMP TAPE FILE READS.....M.J.BAILEY..1/31/65      05/11/69 2002.3 PAGE 3

      00004  512466213163     RDWAIT
      00005  266621316360     FWAIT
      00006  652551312670     VERIFY
      00007  226426262551     BUFFER
      00010  464725456060     OPEN
      00011  624325254760     SLEEP
      00012  444664456360     MOUNT
      00013  644446644563     UMOUNT
      00014  234346622560     CLOSE
      00015  665126436760     WRFLX
      00016  475145632551     PRNTER
      00017  216242464751     ASKOPR


      00022  0634 00 1 00401  INITTF SXA     X1,1
      00023  0634 00 2 00400         SXA     X2,2
      00024  0634 00 3 00377         SXA     X3,3
      00025  0634 00 4 00376         SXA     X4,4
      00026  0074 00 4 00000         TSX     GETLSG,4
      00027                          SKIFNB  IA            SKIP IF ONLY ONE TAPE COPY
      00027  0500 00 0 74443         CLA     NOCHAN                                                           .001
      00030  0402 00 0 03265         SUB     =1                                                               .001
      00031  0100 00 0 00077         TZE     IA                                                               .001
                              *
                              *      VERIFY THAT 2ND CHANNEL HAS CORRECT DUPLICATE MOUNTED
                              *
      00032  0774 00 2 00012         AXT     10,2
      00033  0074 00 4 00006  CHCKBA TSX     VERIFY,4
 TD   00034  3 00000 0 74417         TXH     BUN
      00035  3 00004 0 74412         TXH     LABEL,,4
 TD   00036  3 00000 0 00041         TXH     CHCKBB        ERROR
 TD   00037  3 00000 0 01014         TXH     ERCODE
      00040  0020 00 0 00077         TRA     IA            SKIP IF OTHER CHANNEL O.K.
                              *
      00041  0074 00 4 00016  CHCKBB TSX     $PRNTER,4
      00042  0500 00 0 01014         CLA     ERCODE
      00043  0402 00 0 03267         SUB     =7
      00044 -0100 00 0 00070         TNZ     CHCKBD        SKIP IF NOT INCORRECT-LABEL ERROR
      00045  2 00002 2 00033         TIX     CHCKBA,2,2    TRY 5 TIMES IF LABEL IS INCORRECT
                              *
      00046  0074 00 4 00013  WRONGB TSX     UMOUNT,4      IF STILL WRONG UNMOUNT THIS TAPE
 TD   00047  3 00000 0 74417         TXH     BUN
      00050  2 01103 0 01067         TIX     WRNGT2,,LWT2
      00051  0074 00 4 00017  CHCKBC TSX     $ASKOPR,4
      00052  3 00006 0 01035         PTH     MESC,,6
      00053  3 00001 0 00063         PTH     CONT,,CTINUE
      00054  3 00006 0 01043         PTH     MESD,,6
      00055  3 00003 0 00075         PTH     QUITFL,,CHLDFL
      00056  3 00006 0 01051         PTH     MESE,,6
      00057  3 00002 0 00060         PTH     REST,,PAUSE
                              *
      00060 -0500 00 0 03271  REST   CAL     =45
      00061  0074 00 4 00011         TSX     SLEEP,4
      00062  0020 00 0 00051         TRA     CHCKBC
      00063  0074 00 4 00012  CONT   TSX     MOUNT,4       MOUNT ANOTHER ON 2ND CHANNEL
 TD   00064  3 00000 0 03266         TXH     =2
1       INITIATE AND TERMINATE DUMP TAPE FILE READS.....M.J.BAILEY..1/31/65      05/11/69 2002.3 PAGE 4

 TD   00065  3 00000 0 74417         TXH     BUN
      00066  2 01113 0 01104         TIX     RMT2,,LRMT2
      00067  0020 00 0 00032         TRA     CHCKBA-1      AND RE-VERIFY
                              *
      00070  2 00001 2 00033  CHCKBD TIX     CHCKBA,2,1    TRY 10 TIMES IF SOME OTHER ERROR
      00071  0074 00 4 00013         TSX     UMOUNT,4      THEN UNMOUNT THIS TAPE
 TD   00072  3 00000 0 74417         TXH     BUN
      00073  2 01132 0 01114         TIX     BADT2,,LBT2
      00074  0020 00 0 00051         TRA     CHCKBC        THEN GO STOP TO SEE WHAT NEXT
                              *
                       00075  QUITFL EQU     *             TO ABANDON THIS TAPE FILE,
      00075  0534 00 4 00376  ABEXT  LXA     X4,4
      00076  1 00001 4 00377         TXI     X3,4,1        THEN GO EXIT VIA 1,4
                              *
                              *      OPEN TAPE FILE 1ST COPY AND READ ITS I.D.
                              *
      00077  0774 00 2 00012  IA     AXT     10,2
      00100  0074 00 4 00010  IAA    TSX     OPEN,4
 TD   00101  3 00000 0 01013         TXH     R
 TD   00102  3 00000 0 74440         TXH     LFNA
 TD   00103  3 00000 0 74437         TXH     LFNB
 TD   00104  3 00000 0 03273         TXH     =-0
 TD   00105  3 00000 0 03273         TXH     =-0
 TD   00106  3 00000 0 00162         TXH     ID            ERROR
                              *
      00107  0074 00 4 00007         TSX     BUFFER,4      ASSIGN BUFFERS
 TD   00110  3 00000 0 74440         TXH     LFNA
 TD   00111  3 00000 0 74437         TXH     LFNB
      00112  2 01015 0 01410         TIX     IB1,,LIB
      00113 -0500 00 0 03265         CAL     =1
      00114  0602 00 0 74411         SLW     X
                              *
      00115  0774 00 3 00066         AXT     RECSIZ/8,3
      00116  0074 00 4 00004  IB     TSX     RDWAIT,4      READ I.D. RECORD LABEL
 TD   00117  3 00000 0 74440         TXH     LFNA
 TD   00120  3 00000 0 74437         TXH     LFNB
 TD   00121  3 00000 0 74411         TXH     X
      00122  3 00010 0 02270         TXH     WBF,,8
 TD   00123  3 00000 0 00200         TXH     IE            EOF, ERROR
 TD   00124  3 00000 0 74416         TXH     TEOF
 TD   00125  3 00000 0 00136         TXH     IC
      00126  0074 00 4 00000         TSX     GETLSG,4
      00127  0600 00 0 01012         STZ     IDERR         I.D. LABEL READ O.K., SKIP TO DO 2ND COPY
      00130                          MOVE    8,WBF,TAPEID
      00130  0774 00 1 00010         AXT     8,1                                                              .001
      00131 -0500 00 1 02300         CAL     WBF+8,1                                                          .001
      00132  0602 00 1 02324         SLW     TAPEID+8,1                                                       .001
      00133  2 00001 1 00131         TIX     *-2,1,1                                                          .001
      00134  0600 00 0 02324         STZ     TAPEID+8
      00135  0020 00 0 00206         TRA     IG
                              *
      00136  0074 00 4 00016  IC     TSX     $PRNTER,4     READ ERROR
      00137  0500 00 0 74411         CLA     X
      00140  0400 00 0 03270         ADD     =8
      00141  0601 00 0 74411         STO     X
      00142  2 00001 3 00116         TIX     IB,3,1        TRY AGAIN AT NEXT REPETITION OF LABEL
1       INITIATE AND TERMINATE DUMP TAPE FILE READS.....M.J.BAILEY..1/31/65      05/11/69 2002.3 PAGE 5

      00143                          PRM     MESA,8        I.D. IS UNREAD,
      00143  0074 00 4 00015         TSX     WRFLX,4                                                          .001
      00144  0 00010 0 01020                 MESA,,8                                                          .001
      00145  0074 00 4 00017  BACK   TSX     $ASKOPR,4
      00146  3 00006 0 01035         PTH     MESC,,6
      00147  3 00001 0 00157         PTH     CONT1,,CTINUE
      00150  3 00006 0 01043         PTH     MESD,,6
      00151  3 00003 0 00075         PTH     QUITFL,,CHLDFL
      00152  3 00006 0 01051         PTH     MESE,,6
      00153  3 00002 0 00154         PTH     REST1,,PAUSE
                              *
      00154 -0500 00 0 03271  REST1  CAL     =45
      00155  0074 00 4 00011         TSX     SLEEP,4
      00156  0020 00 0 00145         TRA     BACK
                              *
      00157  0500 00 0 03265  CONT1  CLA     =1            OR CONTINUE WITHOUT CHECKING I.D.'S
      00160  0601 00 0 01012         STO     IDERR
      00161  0020 00 0 00206         TRA     IG
                              *
      00162                   ID     PRM     MESB,5        ERROR OPENING FILE
      00162  0074 00 4 00015         TSX     WRFLX,4                                                          .001
      00163  0 00005 0 01030                 MESB,,5                                                          .001
      00164  0074 00 4 00016         TSX     $PRNTER,4
      00165  2 00001 2 00100  IDA    TIX     IAA,2,1       TRY 10 TIMES TO OPEN
      00166  0074 00 4 00017  BACK1  TSX     $ASKOPR,4
      00167  3 00006 0 01035         PTH     MESC,,6
      00170  3 00001 0 00077         PTH     IA,,CTINUE
      00171  3 00006 0 01043         PTH     MESD,,6
      00172  3 00003 0 00075         PTH     QUITFL,,CHLDFL
      00173  3 00006 0 01051         PTH     MESE,,6
      00174  3 00002 0 00175         PTH     REST2,,PAUSE
                              *
      00175 -0500 00 0 03271  REST2  CAL     =45
      00176  0074 00 4 00011         TSX     SLEEP,4
      00177  0020 00 0 00166         TRA     BACK1
                              *
      00200                   IE     PRM     MESF,8        EOF IN WRONG PLACE
      00200  0074 00 4 00015         TSX     WRFLX,4                                                          .001
      00201  0 00010 0 01057                 MESF,,8                                                          .001
      00202                          CLOSE   LFNA,LFNB
      00202  0074 00 4 00014         TSX     CLOSE,4                                                          .001
      00203  3 00000 0 74440         PTH     LFNA                                                             .001
      00204  3 00000 0 74437         PTH     LFNB                                                             .001
      00205  0020 00 0 00165         TRA     IDA           TRY TEN TIMES TO NOT GET ONE
                              *
                              *
                              *      OPEN TAPE FILE 2ND COPY, READ ITS I.D. LABEL
                              *
      00206                   IG     SKIFNB  IS
      00206  0500 00 0 74443         CLA     NOCHAN                                                           .001
      00207  0402 00 0 03265         SUB     =1                                                               .001
      00210  0100 00 0 00350         TZE     IS                                                               .001
      00211  0774 00 2 00012         AXT     10,2
      00212  0074 00 4 00010  IH     TSX     OPEN,4
 TD   00213  3 00000 0 01013         TXH     R
 TD   00214  3 00000 0 74422         TXH     BFNA
1       INITIATE AND TERMINATE DUMP TAPE FILE READS.....M.J.BAILEY..1/31/65      05/11/69 2002.3 PAGE 6

 TD   00215  3 00000 0 74421         TXH     BFNB
 TD   00216  3 00000 0 03273         TXH     =-0
 TD   00217  3 00000 0 03273         TXH     =-0
 TD   00220  3 00000 0 00272         TXH     IK            ERROR
                              *
      00221  0074 00 4 00007         TSX     BUFFER,4      ASSIGN BUFFER
 TD   00222  3 00000 0 74422         TXH     BFNA
 TD   00223  3 00000 0 74421         TXH     BFNB
      00224  2 01015 0 02325         TIX     IB2,,LIB
      00225 -0500 00 0 03265         CAL     =1
      00226  0602 00 0 74411         SLW     X
                              *
      00227  0774 00 3 00066         AXT     RECSIZ/8,3
      00230  0074 00 4 00004  II     TSX     RDWAIT,4      READ I.D. RECORD LABEL
 TD   00231  3 00000 0 74422         TXH     BFNA
 TD   00232  3 00000 0 74421         TXH     BFNB
 TD   00233  3 00000 0 74411         TXH     X
      00234  2 01017 0 02300         TIX     WBF+8,,L8
 TD   00235  3 00000 0 00310         TXH     IM            EOF, ERROR
 TD   00236  3 00000 0 74416         TXH     TEOF
 TD   00237  3 00000 0 00243         TXH     IJ
      00240 -0520 00 0 01012         NZT     IDERR         I.D. READ O.K.
      00241  0020 00 0 00320         TRA     IO            SKIP TO COMPARE IF BOTH READ
      00242  0020 00 0 00342         TRA     IR            OR CARRY ON WITH NO CHECK
                              *
      00243  0074 00 4 00016  IJ     TSX     $PRNTER,4
      00244  0500 00 0 74411         CLA     X
      00245  0400 00 0 03270         ADD     =8
      00246  0601 00 0 74411         STO     X
      00247  2 00001 3 00230         TIX     II,3,1        TRY TO READ AGAIN AT REPETITION OF LABEL
      00250 -0500 00 0 03275         CAL     =H ON 2N
      00251  0602 00 0 01022         SLW     MESA+2
      00252 -0500 00 0 03272         CAL     =HD COPY
      00253  0602 00 0 01023         SLW     MESA+3
      00254                          PRM     MESA,8
      00254  0074 00 4 00015         TSX     WRFLX,4                                                          .001
      00255  0 00010 0 01020                 MESA,,8                                                          .001
      00256  0520 00 0 01012         ZET     IDERR
      00257  0020 00 0 00075         TRA     QUITFL        ABANDON BOTH TAPES IF NO I.D.'S READ
      00260  0074 00 4 00017  BACK2  TSX     $ASKOPR,4
      00261  3 00006 0 01035         PTH     MESC,,6
      00262  3 00001 0 00342         PTH     IR,,CTINUE
      00263  3 00006 0 01043         PTH     MESD,,6
      00264  3 00003 0 00075         PTH     QUITFL,,CHLDFL
      00265  3 00006 0 01051         PTH     MESE,,6
      00266  3 00002 0 00267         PTH     REST3,,PAUSE
                              *
      00267 -0500 00 0 03271  REST3  CAL     =45
      00270  0074 00 4 00011         TSX     SLEEP,4
      00271  0020 00 0 00260         TRA     BACK2
                              *
                              *
      00272                   IK     PRM     MESB,5
      00272  0074 00 4 00015         TSX     WRFLX,4                                                          .001
      00273  0 00005 0 01030                 MESB,,5                                                          .001
      00274  0074 00 4 00016         TSX     $PRNTER,4
1       INITIATE AND TERMINATE DUMP TAPE FILE READS.....M.J.BAILEY..1/31/65      05/11/69 2002.3 PAGE 7

      00275  2 00001 2 00212  IL     TIX     IH,2,1        TRY 10 TIMES TO OPEN
      00276  0074 00 4 00017  BACK3  TSX     $ASKOPR,4
      00277  3 00006 0 01035         PTH     MESC,,6
      00300  3 00001 0 00206         PTH     IG,,CTINUE
      00301  3 00006 0 01043         PTH     MESD,,6
      00302  3 00003 0 00075         PTH     QUITFL,,CHLDFL
      00303  3 00006 0 01051         PTH     MESE,,6
      00304  3 00002 0 00305         PTH     REST4,,PAUSE
                              *
      00305 -0500 00 0 03271  REST4  CAL     =45
      00306  0074 00 4 00011         TSX     SLEEP,4
      00307  0020 00 0 00276         TRA     BACK3
                              *
                              *
      00310 -0500 00 0 03274  IM     CAL     =H 2ND T
      00311  0602 00 0 01064         SLW     MESF+5
      00312                          PRM     MESF,8
      00312  0074 00 4 00015         TSX     WRFLX,4                                                          .001
      00313  0 00010 0 01057                 MESF,,8                                                          .001
      00314                          CLOSE   BFNA,BFNB
      00314  0074 00 4 00014         TSX     CLOSE,4                                                          .001
      00315  3 00000 0 74422         PTH     BFNA                                                             .001
      00316  3 00000 0 74421         PTH     BFNB                                                             .001
      00317  0020 00 0 00275         TRA     IL            GO RE-OPEN,READ AGAIN (10 TIMES)
                              *
                              *
                              *      COMPARE I.D. LABELS ON BOTH COPIES
                              *
      00320                   IO     CMPWDS  8,WBF,WBF+8,IP
      00320  0774 00 1 00010         AXT     8,1                                                              .001
      00321 -0500 00 1 02300         CAL     WBF+8,1                                                          .001
      00322 -0340 00 1 02310         LAS     WBF+8+8,1                                                        .001
      00323  0020 00 0 00330         TRA     IP                                                               .001
      00324  0020 00 0 00326         TRA     *+2                                                              .001
      00325  0020 00 0 00330         TRA     IP                                                               .001
      00326  2 00001 1 00321         TIX     *-5,1,1                                                          .001
      00327  0020 00 0 00337         TRA     IQ            SKIP IF COMPARISON O.K.
      00330                   IP     CLOSE   LFNA,LFNB     WRONG TAPE ON 2ND CHANNEL
      00330  0074 00 4 00014         TSX     CLOSE,4                                                          .001
      00331  3 00000 0 74440         PTH     LFNA                                                             .001
      00332  3 00000 0 74437         PTH     LFNB                                                             .001
      00333                          CLOSE   BFNA,BFNB
      00333  0074 00 4 00014         TSX     CLOSE,4                                                          .001
      00334  3 00000 0 74422         PTH     BFNA                                                             .001
      00335  3 00000 0 74421         PTH     BFNB                                                             .001
      00336  0020 00 0 00046         TRA     WRONGB        GO REMOUNT AT LEAST 2ND COPY
                              *
                              *      PRINT I.D. LABEL AND SET FILE POINTER AT START OF 1ST DUMPED FILE
                              *
      00337                   IQ     PRM     MESG,9        BOTH LABELS READ O.K.,PRINT MESSAGE
      00337  0074 00 4 00015         TSX     WRFLX,4                                                          .001
      00340  0 00011 0 01152                 MESG,,9                                                          .001
      00341  0020 00 0 00350         TRA     IS            SKIP
      00342 -0520 00 0 01012  IR     NZT     IDERR         SEE WHICH LABEL WAS READ
      00343  0020 00 0 00350         TRA     IS            SKIP IF IT WAS 1ST COPY
      00344                          MOVE    8,WBF+8,WBF   2ND COPY, MOVE IT DOWN
1       INITIATE AND TERMINATE DUMP TAPE FILE READS.....M.J.BAILEY..1/31/65      05/11/69 2002.3 PAGE 8

      00344  0774 00 1 00010         AXT     8,1                                                              .001
      00345 -0500 00 1 02310         CAL     WBF+8+8,1                                                        .001
      00346  0602 00 1 02300         SLW     WBF+8,1                                                          .001
      00347  2 00001 1 00345         TIX     *-2,1,1                                                          .001
      00350                   IS     PRM     MESH,7        PRINT MESSAGE
      00350  0074 00 4 00015         TSX     WRFLX,4                                                          .001
      00351  0 00007 0 01163                 MESH,,7                                                          .001
      00352                          PRM     WBF,4
      00352  0074 00 4 00015         TSX     WRFLX,4                                                          .001
      00353  0 00004 0 02270                 WBF,,4                                                           .001
      00354  0074 00 4 00000         TSX     GETLSG,4
      00355 -0500 00 0 02274         CAL     WBF+4
      00356  0602 00 0 01200         SLW     MESI+6
      00357 -0500 00 0 02275         CAL     WBF+5
      00360  0602 00 0 01202         SLW     MESI+8
      00361                          PRM     MESI,9        PRINT DATE/TIME DUMPING ON IT BEGAN
      00361  0074 00 4 00015         TSX     WRFLX,4                                                          .001
      00362  0 00011 0 01172                 MESI,,9                                                          .001
      00363 -0500 00 0 02277         CAL     WBF+7
      00364  0100 00 0 00374         TZE     IT            SKIP IF NO END OF DUMP 'DAY'
      00365  0074 00 4 00001         TSX     IOBDT,4
      00366  0602 00 0 01210         SLW     MESJ+5
      00367 -0600 00 0 01212         STQ     MESJ+7
      00370                          PRM     MESJ,8        PRINT END OF DUMP 'DAY'
      00370  0074 00 4 00015         TSX     WRFLX,4                                                          .001
      00371  0 00010 0 01203                 MESJ,,8                                                          .001
      00372                          PRM     MESK,5
      00372  0074 00 4 00015         TSX     WRFLX,4                                                          .001
      00373  0 00005 0 01213                 MESK,,5                                                          .001
                              *
      00374  0774 00 1 00660  IT     AXT     RECSIZ,1
      00375  0634 00 1 74411         SXA     X,1           SET FILE POINTER TO START OF 1ST FILE
                              *
      00376  0774 00 4 00000  X4     AXT     **,4
      00377  0774 00 3 00000  X3     AXT     **,3
      00400  0774 00 2 00000  X2     AXT     **,2
      00401  0774 00 1 00000  X1     AXT     **,1
      00402  0020 00 4 00002         TRA     2,4
                              *
                              * - - - - - - - - - - - - - - - - - - - - -
                              *      TERMINATE DUMP TAPE FILES
                              * - - - - - - - - - - - - - - - - - - - - -
                              *
      00403  0634 00 4 00435  TERMTF SXA     TX4,4
      00404  0074 00 4 00000         TSX     GETLSG,4
      00405                          PRM     MESL,7
      00405  0074 00 4 00015         TSX     WRFLX,4                                                          .001
      00406  0 00007 0 01220                 MESL,,7                                                          .001
      00407  0074 00 4 00005         TSX     FWAIT,4
 TD   00410  3 00000 0 74440         TXH     LFNA
 TD   00411  3 00000 0 74437         TXH     LFNB
 TD   00412  3 00000 0 00413         TXH     *+1
      00413                          CLOSE   LFNA,LFNB
      00413  0074 00 4 00014         TSX     CLOSE,4                                                          .001
      00414  3 00000 0 74440         PTH     LFNA                                                             .001
      00415  3 00000 0 74437         PTH     LFNB                                                             .001
1       INITIATE AND TERMINATE DUMP TAPE FILE READS.....M.J.BAILEY..1/31/65      05/11/69 2002.3 PAGE 9

 TD   00416  3 00000 0 00417         TXH     *+1
      00417  0074 00 4 00005         TSX     FWAIT,4
 TD   00420  3 00000 0 74422         TXH     BFNA
 TD   00421  3 00000 0 74421         TXH     BFNB
 TD   00422  3 00000 0 00423         TXH     *+1
      00423                          CLOSE   BFNA,BFNB
      00423  0074 00 4 00014         TSX     CLOSE,4                                                          .001
      00424  3 00000 0 74422         PTH     BFNA                                                             .001
      00425  3 00000 0 74421         PTH     BFNB                                                             .001
 TD   00426  3 00000 0 00427         TXH     *+1
      00427  0074 00 4 00013         TSX     UMOUNT,4
 TD   00430  3 00000 0 74420         TXH     AUN
      00431  2 01141 0 01133         TIX     UMA,,LUMA
      00432  0074 00 4 00013         TSX     UMOUNT,4
 TD   00433  3 00000 0 74417         TXH     BUN
      00434  2 01151 0 01142         TIX     UMB,,LUMB
      00435  0774 00 4 00000  TX4    AXT     **,4
      00436  0020 00 4 00001         TRA     1,4
                              *
                              * - - - - - - - - - - - - - - - - - - - - - - - - - - - -
                              *      TEST FOR END OF TAPE-FILE, IF NOT CHANGE REELS
                              * - - - - - - - - - - - - - - - - - - - - - - - - - - - -
                              *
      00437  0634 00 1 00401  TSTEOF SXA     X1,1
      00440  0634 00 2 00400         SXA     X2,2
      00441  0634 00 3 00377         SXA     X3,3
      00442  0634 00 4 00376         SXA     X4,4
      00443                          PRLINE  ( END OF REEL ON RELOAD TAPE FILE.),6
      00443  0074 00 4 00015         TSX     WRFLX,4                                                          .001
      00444  0 00006 0 03205                 ..001,,6                                                         .001
                                     RMT                                                                      .001
                              ..001  BCI     6, END OF REEL ON RELOAD TAPE FILE.                              .001
                                     RMT                                                                      .001
      00445  0074 00 4 00017         TSX     $ASKOPR,4
      00446  3 00010 0 01323         PTH     MESM,,8
      00447  3 00007 0 00452         PTH     EOTF,,LSREEL
      00450  3 00010 0 01333         PTH     MESN,,8
      00451  3 00001 0 00454         PTH     TB1,,CTINUE
                              *
      00452  0534 00 4 00376  EOTF   LXA     X4,4          LAST REEL OF TAPE LOAD-FILE
      00453  1 00001 4 00746         TXI     TV,4,1        GO EXIT VIA 3,4
                              *
      00454  0074 00 4 00003  TB1    TSX     ATTNAM,4
      00455  3 00002 0 01010         PTH     NM,,2
      00456  0074 00 4 00002         TSX     ATTACH,4
      00457  3 00000 0 74442         PTH     DU
      00460  3 00000 0 74441         PTH     DP
                              *
                              *
      00461  0074 00 4 00005  TB     TSX     FWAIT,4       JUST TO CATCH ERRORS.
 TD   00462  3 00000 0 74440         TXH     LFNA
 TD   00463  3 00000 0 74437         TXH     LFNB
 TD   00464  3 00000 0 00465         TXH     *+1
      00465                          CLOSE   LFNA,LFNB     CHANGE REELS
      00465  0074 00 4 00014         TSX     CLOSE,4                                                          .001
      00466  3 00000 0 74440         PTH     LFNA                                                             .001
1       INITIATE AND TERMINATE DUMP TAPE FILE READS.....M.J.BAILEY..1/31/65      05/11/69 2002.3 PAGE 10

      00467  3 00000 0 74437         PTH     LFNB                                                             .001
 TD   00470  3 00000 0 00471         TXH     *+1
      00471  0074 00 4 00005         TSX     FWAIT,4
 TD   00472  3 00000 0 74422         TXH     BFNA
 TD   00473  3 00000 0 74421         TXH     BFNB
 TD   00474  3 00000 0 00475         TXH     *+1
      00475                          CLOSE   BFNA,BFNB
      00475  0074 00 4 00014         TSX     CLOSE,4                                                          .001
      00476  3 00000 0 74422         PTH     BFNA                                                             .001
      00477  3 00000 0 74421         PTH     BFNB                                                             .001
 TD   00500  3 00000 0 00501         TXH     *+1
      00501  0074 00 4 00013         TSX     UMOUNT,4      UNMOUNT 'A' REEL
 TD   00502  3 00000 0 74420         TXH     AUN
      00503  2 01236 0 01227         TIX     UMRA,,LUMRA
      00504  0074 00 4 00013         TSX     UMOUNT,4
 TD   00505  3 00000 0 74417         TXH     BUN           UNMOUNT 'B' REEL TOO. ***
      00506  2 01246 0 01237         TIX     UMRB,,LUMRB
 TD   00507  3 00000 0 00510         TXH     *+1           NULL ERROR RETURN, IN CASE NO B COPY.
                              *
      00510  0074 00 4 00012  TD     TSX     MOUNT,4       MOUNT NEW 'A' REEL
 TD   00511  3 00000 0 03265         TXH     =1
 TD   00512  3 00000 0 74420         TXH     AUN
      00513  2 01257 0 01247         TIX     MRA,,LMRA
      00514  0774 00 2 00003         AXT     3,2
      00515  0074 00 4 00006  TE     TSX     VERIFY,4      CHECK I/O SYSTEM LABEL
 TD   00516  3 00000 0 74420         TXH     AUN
      00517  2 01016 0 74412         TIX     LABEL,,L4
 TD   00520  3 00000 0 00523         TXH     TF
 TD   00521  3 00000 0 01014         TXH     ERCODE
      00522  0020 00 0 00545         TRA     TH            SKIP IF O.K.
                              *
      00523  0074 00 4 00016  TF     TSX     $PRNTER,4     VERIFICATION ERROR
      00524  0500 00 0 01014         CLA     ERCODE
      00525  0402 00 0 03267         SUB     =7
      00526  0100 00 0 00530         TZE     TG
      00527  2 00001 2 00515         TIX     TE,2,1
      00530  0074 00 4 00013  TG     TSX     UMOUNT,4
 TD   00531  3 00000 0 74420         TXH     AUN
      00532  2 01305 0 01271         TIX     WRA,,LWRA
      00533  0074 00 4 00017  BACK5  TSX     $ASKOPR,4
      00534  3 00006 0 01035         PTH     MESC,,6
      00535  3 00001 0 00510         PTH     TD,,CTINUE
      00536  3 00006 0 01043         PTH     MESD,,6
      00537  3 00003 0 00075         PTH     ABEXT,,CHLDFL
      00540  3 00006 0 01051         PTH     MESE,,6
      00541  3 00002 0 00542         PTH     REST5,,PAUSE
                              *
      00542 -0500 00 0 03271  REST5  CAL     =45
      00543  0074 00 4 00011         TSX     SLEEP,4
      00544  0020 00 0 00533         TRA     BACK5
                              *
      00545  0074 00 4 00010  TH     TSX     OPEN,4
 TD   00546  3 00000 0 01013         TXH     R
 TD   00547  3 00000 0 74440         TXH     LFNA
 TD   00550  3 00000 0 74437         TXH     LFNB
 TD   00551  3 00000 0 03273         TXH     =-0
1       INITIATE AND TERMINATE DUMP TAPE FILE READS.....M.J.BAILEY..1/31/65      05/11/69 2002.3 PAGE 11

 TD   00552  3 00000 0 03273         TXH     =-0
 TD   00553  3 00000 0 00752         TXH     TW            ERROR
      00554  0074 00 4 00007         TSX     BUFFER,4
 TD   00555  3 00000 0 74440         TXH     LFNA
 TD   00556  3 00000 0 74437         TXH     LFNB
      00557  2 01015 0 01410         TIX     IB1,,LIB
                              *
      00560  0074 00 4 00004         TSX     RDWAIT,4      CHECK DAEMON'S TAPE I.D.
 TD   00561  3 00000 0 74440         TXH     LFNA
 TD   00562  3 00000 0 74437         TXH     LFNB
 TD   00563  3 00000 0 03265         TXH     =1
      00564  2 01376 0 01377         TIX     IDBF,,L9
 TD   00565  3 00000 0 00760         TXH     TX            EOF, ERROR
 TD   00566  3 00000 0 01375         TXH     JK
 TD   00567  3 00000 0 00752         TXH     TW            ERROR
                              *
      00570                          CMPWDS  8,IDBF,TAPEID,THA
      00570  0774 00 1 00010         AXT     8,1                                                              .001
      00571 -0500 00 1 01407         CAL     IDBF+8,1                                                         .001
      00572 -0340 00 1 02324         LAS     TAPEID+8,1                                                       .001
      00573  0020 00 0 00600         TRA     THA                                                              .001
      00574  0020 00 0 00576         TRA     *+2                                                              .001
      00575  0020 00 0 00600         TRA     THA                                                              .001
      00576  2 00001 1 00571         TIX     *-5,1,1                                                          .001
      00577  0020 00 0 00604         TRA     THB
      00600                   THA    CLOSE   LFNA,LFNB
      00600  0074 00 4 00014         TSX     CLOSE,4                                                          .001
      00601  3 00000 0 74440         PTH     LFNA                                                             .001
      00602  3 00000 0 74437         PTH     LFNB                                                             .001
      00603  0020 00 0 00530         TRA     TG
                              *
      00604  0500 00 0 01407  THB    CLA     IDBF+8        O.K., NOW CHECK REEL NO.
      00605  0402 00 0 03265         SUB     =1
      00606  0402 00 0 02324         SUB     TAPEID+8
      00607  0100 00 0 00624         TZE     TJ            SKIP IF REEL ALL O.K.
      00610                          PRLINE  ( REEL ORDER ERROR ON CHANNEL A.),6
      00610  0074 00 4 00015         TSX     WRFLX,4                                                          .001
      00611  0 00006 0 03213                 ..002,,6                                                         .001
                                     RMT                                                                      .001
                              ..002  BCI     6, REEL ORDER ERROR ON CHANNEL A.                                .001
                                     RMT                                                                      .001
      00612  0074 00 4 00017  TI     TSX     $ASKOPR,4
      00613  3 00011 0 01354         PTH     MESQ,,9
      00614  3 00001 0 00621         PTH     TJA,,CTINUE
      00615  3 00010 0 01043         PTH     MESD,,8
      00616  3 00003 0 00075         PTH     ABEXT,,CHLDFL
      00617  3 00006 0 01365         PTH     MESR,,6
      00620  3 00010 0 00461         PTH     TB,,CHREEL
                              *
      00621  0500 00 0 01407  TJA    CLA     IDBF+8
      00622  0601 00 0 02324         STO     TAPEID+8
      00623  0020 00 0 00627         TRA     TJAX
                              *
      00624  0500 00 0 02324  TJ     CLA     TAPEID+8      INCREMENT REEL NO.
      00625  0400 00 0 03265         ADD     =1
      00626  0601 00 0 02324         STO     TAPEID+8
1       INITIATE AND TERMINATE DUMP TAPE FILE READS.....M.J.BAILEY..1/31/65      05/11/69 2002.3 PAGE 12

      00627                   TJAX   SKIFNB  TU
      00627  0500 00 0 74443         CLA     NOCHAN                                                           .001
      00630  0402 00 0 03265         SUB     =1                                                               .001
      00631  0100 00 0 00742         TZE     TU                                                               .001
                              *
                       00632  TK     SYN     *             (MOVED UMOUNT FOR B.COPY UP)
                              *
      00632  0074 00 4 00012  TL     TSX     MOUNT,4       MOUNT NEW 'B' REEL
 TD   00633  3 00000 0 03266         TXH     =2
 TD   00634  3 00000 0 74417         TXH     BUN
      00635  2 01270 0 01260         TIX     MRB,,LMRB
      00636  0774 00 2 00003         AXT     3,2
      00637  0074 00 4 00006  TM     TSX     VERIFY,4      CHECK I/O SYSTEM LABEL
 TD   00640  3 00000 0 74417         TXH     BUN
      00641  2 01016 0 74412         TIX     LABEL,,L4
 TD   00642  3 00000 0 00645         TXH     TN
 TD   00643  3 00000 0 01014         TXH     ERCODE
      00644  0020 00 0 00667         TRA     TP            SKIP IF O.K.
                              *
      00645  0074 00 4 00016  TN     TSX     $PRNTER,4     VERIFICATION ERROR
      00646  0500 00 0 01014         CLA     ERCODE
      00647  0402 00 0 03267         SUB     =7
      00650  0100 00 0 00652         TZE     TO
      00651  2 00001 2 00637         TIX     TM,2,1
      00652  0074 00 4 00013  TO     TSX     UMOUNT,4
 TD   00653  3 00000 0 74417         TXH     BUN
      00654  2 01322 0 01306         TIX     WRB,,LWRB
      00655  0074 00 4 00017  BACK6  TSX     $ASKOPR,4
      00656  3 00006 0 01035         PTH     MESC,,6
      00657  3 00001 0 00632         PTH     TL,,CTINUE
      00660  3 00006 0 01043         PTH     MESD,,6
      00661  3 00003 0 00075         PTH     QUITFL,,CHLDFL
      00662  3 00006 0 01051         PTH     MESE,,6
      00663  3 00002 0 00664         PTH     REST6,,PAUSE
                              *
      00664 -0500 00 0 03271  REST6  CAL     =45
      00665  0074 00 4 00011         TSX     SLEEP,4
      00666  0020 00 0 00655         TRA     BACK6
                              *
      00667  0074 00 4 00010  TP     TSX     OPEN,4
 TD   00670  3 00000 0 01013         TXH     R
 TD   00671  3 00000 0 74422         TXH     BFNA
 TD   00672  3 00000 0 74421         TXH     BFNB
 TD   00673  3 00000 0 03273         TXH     =-0
 TD   00674  3 00000 0 03273         TXH     =-0
 TD   00675  3 00000 0 00763         TXH     TY            ERROR
      00676  0074 00 4 00007         TSX     BUFFER,4
 TD   00677  3 00000 0 74422         TXH     BFNA
 TD   00700  3 00000 0 74421         TXH     BFNB
      00701  2 01015 0 02325         TIX     IB2,,LIB
                              *
      00702  0074 00 4 00004         TSX     RDWAIT,4      CHECK DAEMON I.D. LABEL
 TD   00703  3 00000 0 74422         TXH     BFNA
 TD   00704  3 00000 0 74421         TXH     BFNB
 TD   00705  3 00000 0 03265         TXH     =1
      00706  3 00011 0 01377         TXH     IDBF,,9
1       INITIATE AND TERMINATE DUMP TAPE FILE READS.....M.J.BAILEY..1/31/65      05/11/69 2002.3 PAGE 13

 TD   00707  3 00000 0 00771         TXH     TZ            EOF,ERROR
 TD   00710  3 00000 0 01375         TXH     JK
 TD   00711  3 00000 0 00763         TXH     TY            ERROR
      00712                          CMPWDS  8,IDBF,TAPEID,TR
      00712  0774 00 1 00010         AXT     8,1                                                              .001
      00713 -0500 00 1 01407         CAL     IDBF+8,1                                                         .001
      00714 -0340 00 1 02324         LAS     TAPEID+8,1                                                       .001
      00715  0020 00 0 00722         TRA     TR                                                               .001
      00716  0020 00 0 00720         TRA     *+2                                                              .001
      00717  0020 00 0 00722         TRA     TR                                                               .001
      00720  2 00001 1 00713         TIX     *-5,1,1                                                          .001
      00721  0020 00 0 00726         TRA     TS
      00722                   TR     CLOSE   BFNA,BFNB
      00722  0074 00 4 00014         TSX     CLOSE,4                                                          .001
      00723  3 00000 0 74422         PTH     BFNA                                                             .001
      00724  3 00000 0 74421         PTH     BFNB                                                             .001
      00725  0020 00 0 00652         TRA     TO
                              *
      00726  0500 00 0 01407  TS     CLA     IDBF+8        NOW CHECK REEL NO.
      00727  0402 00 0 02324         SUB     TAPEID+8
      00730  0100 00 0 00742         TZE     TU            SKIP IF REEL O.K.
      00731                          PRLINE  ( POSSIBLE REEL ORDER ERROR ON CHANNEL B.),8
      00731  0074 00 4 00015         TSX     WRFLX,4                                                          .001
      00732  0 00010 0 03221                 ..003,,8                                                         .001
                                     RMT                                                                      .001
                              ..003  BCI     8, POSSIBLE REEL ORDER ERROR ON CHANNEL B.                       .001
                                     RMT                                                                      .001
      00733  0074 00 4 00017  TT     TSX     $ASKOPR,4
      00734  3 00011 0 01354         PTH     MESQ,,9
      00735  3 00001 0 00742         PTH     TU,,CTINUE
      00736  3 00010 0 01365         PTH     MESR,,8
      00737  3 00010 0 00632         PTH     TK,,CHREEL
      00740  3 00006 0 01043         PTH     MESD,,6
      00741  3 00003 0 00075         PTH     QUITFL,,CHLDFL
                              *
      00742  0074 00 4 00002  TU     TSX     ATTACH,4
      00743  3 00000 0 01010         PTH     NM
      00744  3 00000 0 01011         PTH     NM+1
      00745  0534 00 4 00376         LXA     X4,4
      00746  0534 00 3 00377  TV     LXA     X3,3
      00747  0534 00 2 00400         LXA     X2,2
      00750  0534 00 1 00401         LXA     X1,1
      00751  0020 00 4 00004         TRA     4,4           EXIT
                              *
      00752  0074 00 4 00016  TW     TSX     $PRNTER,4
      00753                          PRLINE  ( ERROR AT START OF NEW REEL ON CHANNEL A.),7
      00753  0074 00 4 00015         TSX     WRFLX,4                                                          .001
      00754  0 00007 0 03231                 ..004,,7                                                         .001
                                     RMT                                                                      .001
                              ..004  BCI     7, ERROR AT START OF NEW REEL ON CHANNEL A.                      .001
                                     RMT                                                                      .001
      00755                   TWA    PRM     MESP,9
      00755  0074 00 4 00015         TSX     WRFLX,4                                                          .001
      00756  0 00011 0 01343                 MESP,,9                                                          .001
      00757  0020 00 0 00612         TRA     TI
                              *
1       INITIATE AND TERMINATE DUMP TAPE FILE READS.....M.J.BAILEY..1/31/65      05/11/69 2002.3 PAGE 14

      00760                   TX     PRLINE  ( EOF AT START OF NEW REEL ON CHANNEL A.),7
      00760  0074 00 4 00015         TSX     WRFLX,4                                                          .001
      00761  0 00007 0 03240                 ..005,,7                                                         .001
                                     RMT                                                                      .001
                              ..005  BCI     7, EOF AT START OF NEW REEL ON CHANNEL A.                        .001
                                     RMT                                                                      .001
      00762  0020 00 0 00755         TRA     TWA
                              *
      00763  0074 00 4 00016  TY     TSX     $PRNTER,4
      00764                          PRLINE  ( ERROR AT START OF NEW REEL ON CHANNEL B.),7
      00764  0074 00 4 00015         TSX     WRFLX,4                                                          .001
      00765  0 00007 0 03247                 ..006,,7                                                         .001
                                     RMT                                                                      .001
                              ..006  BCI     7, ERROR AT START OF NEW REEL ON CHANNEL B.                      .001
                                     RMT                                                                      .001
      00766                   TYA    PRM     MESP,9
      00766  0074 00 4 00015         TSX     WRFLX,4                                                          .001
      00767  0 00011 0 01343                 MESP,,9                                                          .001
      00770  0020 00 0 00733         TRA     TT
                              *
      00771                   TZ     PRLINE  ( EOF AT START OF NEW REEL ON CHANNEL B.),7
      00771  0074 00 4 00015         TSX     WRFLX,4                                                          .001
      00772  0 00007 0 03256                 ..007,,7                                                         .001
                                     RMT                                                                      .001
                              ..007  BCI     7, EOF AT START OF NEW REEL ON CHANNEL B.                        .001
                                     RMT                                                                      .001
      00773  0020 00 0 00766         TRA     TYA
                              *
                              * - - - - - - - - - - - - - - - - - - - - -
                              *      CONSTANTS AND VARIABLES
                              * - - - - - - - - - - - - - - - - - - - - -
                              *
      00774                   PBF    BSS     12
      01010                   NM     BSS     2
      01012  0 00000 0 00000  IDERR  PZE
      01013  516060606060     R      BCI     1,R
      01014  0 00000 0 00000  ERCODE PZE
      01015  0 00000 0 00660  LIB    PZE     RECSIZ
      01016  0 00000 0 00004  L4     PZE     4
      01017  0 00000 0 00010  L8     PZE     8
      01020  603133243360     MESA   BCI     8, I.D. RECORD ON 1ST COPY OF TAPE FILE IS UNREAD.
      01030  602551514651     MESB   BCI     5, ERROR OPENING DUMP TAPE FILE.
      01035  606346602346     MESC   BCI     6, TO CONTINUE WITH THIS LOAD FILE,
      01043  606346606462     MESD   BCI     6, TO USE DIFFERENT LOAD FILE, OR
      01051  606346606264     MESE   BCI     6, TO SUSPEND LOADING FOR 1 MIN..
      01057  602545246046     MESF   BCI     8, END OF FILE IN WRONG PLACE ON 1ST TAPE COPY.
      01067  314523465151     WRNGT2 BCI     9,INCORRECT TAPE MOUNTED AS 2ND COPY OF LOAD FILE.
      01100  604743252162            BCI     3, PLEASE REMOVE IT.
      01103  0 00000 0 00014  LWT2   PZE     *-WRNGT2
      01104  604446644563     RMT2   BCI     7, MOUNT ANOTHER TAPE ON THE 2ND CHANNEL.
      01113  0 00000 0 00007  LRMT2  PZE     *-RMT2
      01114  600245246023     BADT2  BCI     8, 2ND COPY OF LOAD FILE UNREAD AFTER 10 TRIES TO
      01124  652551312670            BCI     6,VERIFY ITS I.D.. PLEASE REMOVE IT.
      01132  0 00000 0 00016  LBT2   PZE     *-BADT2
      01133  606445444664     UMA    BCI     6, UNMOUNT TAPE FILE ON MAIN CHANNEL.
      01141  0 00000 0 00006  LUMA   PZE     *-UMA
1       INITIATE AND TERMINATE DUMP TAPE FILE READS.....M.J.BAILEY..1/31/65      05/11/69 2002.3 PAGE 15

      01142  606445444664     UMB    BCI     7, UNMOUNT TAPE FILE ON SECONDARY CHANNEL.
      01151  0 00000 0 00007  LUMB   PZE     *-UMB
      01152  603133243360     MESG   BCI     9, I.D. LABELS ON BOTH COPIES OF NEW LOAD FILE MATCH O.K.
      01163  602464444760     MESH   BCI     7, DUMP TAPE FILE STARTING TO LOAD IS A
      01172  602464444731     MESI   BCI     9, DUMPING ON THIS TAPE FILE BEGAN AT         ON
      01203  604546602631     MESJ   BCI     8, NO FILE CREATED LATER THAN           ON
      01213  603162602464     MESK   BCI     5, IS DUMPED ON THIS TAPE FILE.
      01220  604346212431     MESL   BCI     7, LOADING FINISHED FROM THIS TAPE FILE
      01227  605125444665     UMRA   BCI     7, REMOVE CHANNEL A REEL OF RELOAD FILE.
      01236  0 00000 0 00007  LUMRA  PZE     *-UMRA
      01237  605125444665     UMRB   BCI     7, REMOVE CHANNEL B REEL OF RELOAD FILE.
      01246  0 00000 0 00007  LUMRB  PZE     *-UMRB
      01247  604446644563     MRA    BCI     8, MOUNT ANOTHER REEL OF RELOAD FILE ON CHANNEL A
      01257  0 00000 0 00010  LMRA   PZE     *-MRA
      01260  604446644563     MRB    BCI     8, MOUNT ANOTHER REEL OF RELOAD FILE ON CHANNEL B
      01270  0 00000 0 00010  LMRB   PZE     *-MRB
      01271  606651464527     WRA    BCI     8, WRONG REEL MOUNTED ON CHANNEL A FOR RELOAD, NOT
      01301  602225434645            BCI     4, BELONGING TO THIS SET.
      01305  0 00000 0 00014  LWRA   PZE     *-WRA
      01306  606651464527     WRB    BCI     8, WRONG REEL MOUNTED ON CHANNEL B FOR RELOAD, NOT
      01316  602225434645            BCI     4, BELONGING TO THIS SET.
      01322  0 00000 0 00014  LWRB   PZE     *-WRB
      01323  603126606330     MESM   BCI     8, IF THIS WAS LAST REEL OF THIS RELOAD FILE, OR
      01333  603126606330     MESN   BCI     8, IF THERE IS ANOTHER REEL TO THIS RELOAD FILE
      01343  512525436045     MESP   BCI     9,REEL NO. UNCHECKED, FUTURE REEL NO. ERRORS COULD OCCUR
      01354  606346605125     MESQ   BCI     9, TO RESUME RE-LOADING WITH THIS REEL NEVERTHELESS
      01365  603126607046     MESR   BCI     8, IF YOU WISH TO CHANGE THIS REEL FOR ANOTHER
      01375  0 00000 0 00000  JK     PZE
      01376  0 00000 0 00011  L9     PZE     9
      01377                   IDBF   BSS     9
                       00660  RECSIZ EQU     432
      01410                   IB1    BSS     432
      02270                   WBF    BSS     20
      02314                   TAPEID BSS     9
      02325                   IB2    BSS     432
                              *
                                     INSERT  BCMEQB
                              *
                              *  -  -  -  -  -  -  -  -  -  -  -  -  -  -  -  -  -  -
                              *      COMMON AND EQUIVALENCE FOR SECONDARY STORAGE LOAD
                              *         (TIME-SHARING VERSION)
                              *  -  -  -  -  -  -  -  -  -  -  -  -  -  -  -  -  -  -
                              *
                      074446  DEMKEY BOOL    74446         CORE A LOCATION FOR DAEMON KEY SETTING
                              *
                      000017  BASE   BOOL    17            KEY CODE BASE
                      000001  CTINUE BOOL    1             KEY CODE TO CONTINUE WITH PROGRAM,NO CHANGE
                      000002  PAUSE  BOOL    2             KEY CODE TO WAIT 60 SECS.
                      000003  CHLDFL BOOL    3             KEY CODE TO USE DIFFERENT LOAD FILE
                      000004  STOPLD BOOL    4             KEY CODE TO STOP LOADING, START DUMPING
                      000005  ABANKY BOOL    5             KEY CODE TO ABANDON LOAD TAPE FILE
                      000006  SWCHAN BOOL    6             KEY CODE TO GO FROM 1 OR 2 TO 2 OR 1 CHANS.
                      000007  LSREEL BOOL    7             KEY CODE TO INDICATE LAST REEL OF LOAD FILE
                      000010  CHREEL BOOL    10            KEY CODE TO CORRECT REEL ORDER ERROR
                       77777  NEWCOM EQU     -1            TOP OF MEMORY
                      077461  OLDCOM BOOL    77461         OLD TOP OF COMMON
1       INITIATE AND TERMINATE DUMP TAPE FILE READS.....M.J.BAILEY..1/31/65      05/11/69 2002.3 PAGE 16

                       77462  COMRLC EQU     OLDCOM-NEWCOM RELOCATION FACTOR
                       77777         COMMON  COMRLC        RELOCATE COMMON
                       01554  UF     EQU     32767/2-DEMKEY/2 LENGTH OF USER LIST
                       77777  UFL    COMMON  2*UF          USER FILE LIST  (1ST PARTS OF FILE NAMES)
                       74446         COMMON  1             INSERT DUMMY IF NECESSARY
                       74445         COMMON  1             DEMKEY CELL IN NON-CTSS VERSION
                       74445  KEYVAL COMMON  1
                       74444  ABANTP COMMON  1             ABANDON TAPE FILE INDICATOR
                       74443  NOCHAN COMMON  1             NO. OF CHANNELS BEING READ (1 OR 2)
                       74442  DU     COMMON  1             PROBLEM NO. OF DUMP/LOAD PACKAGE
                       74441  DP     COMMON  1             PROGRAMMER NO. OF DITTO.
                       74440  LFNA   COMMON  1             LOAD TAPE FILE NAME (PART 1)
                       74437  LFNB   COMMON  1              ,,   ,,   ,,   ,,  (PART 2)
                       74423         COMMON  11            DUMPED FILE'S PREAMBLE FROM DUMP TAPE
                       74423  PREAM  COMMON  1             DUMPED FILE'S DUMP TAPE PREAMBLE 1ST WORD
                       74422  BFNA   COMMON  1             CHANNEL B LOAD TAPE FILE NAME (PART 1)
                       74421  BFNB   COMMON  1             CHANNEL B LOAD TAPE FILE NAME (PART 2)
                       74420  AUN    COMMON  1             CHANNEL A UNIT NO.
                       74417  BUN    COMMON  1             CHANNEL B UNIT NO.
                       74416  TEOF   COMMON  1             TAPE EOF INDICATOR/WORD COUNT
                       74412         COMMON  3             LABEL OF TAPE FILE CURRENTLY BEING LOADED
                       74412  LABEL  COMMON  1             LABEL OF TAPE FILE DITTO.   1ST WORD
                       74411  X      COMMON  1             TAPE FILE POINTER
                                     END
                                              REMOTE SEQUENCES
      03205  602545246046     ..001  BCI     6, END OF REEL ON RELOAD TAPE FILE.                              .001
      03213  605125254360     ..002  BCI     6, REEL ORDER ERROR ON CHANNEL A.                                .001
      03221  604746626231     ..003  BCI     8, POSSIBLE REEL ORDER ERROR ON CHANNEL B.                       .001
      03231  602551514651     ..004  BCI     7, ERROR AT START OF NEW REEL ON CHANNEL A.                      .001
      03240  602546266021     ..005  BCI     7, EOF AT START OF NEW REEL ON CHANNEL A.                        .001
      03247  602551514651     ..006  BCI     7, ERROR AT START OF NEW REEL ON CHANNEL B.                      .001
      03256  602546266021     ..007  BCI     7, EOF AT START OF NEW REEL ON CHANNEL B.                        .001

1       INITIATE AND TERMINATE DUMP TAPE FILE READS.....M.J.BAILEY..1/31/65      05/11/69 2002.3 PAGE 1
                        POST PROCESSOR ASSEMBLY DATA

       74410 IS THE LAST LOCATION NOT USED BY THIS PROGRAM
       3276 IS THE FIRST LOCATION NOT USED BY THIS PROGRAM

0REFERENCES TO DEFINED SYMBOLS
       1013      R   101,  213,  546,  670
      74411      X   114,  121,  137,  141,  226,  233,  244,  246,  375, 3205
      74441     DP   460, 3205
      74442     DU   457, 3205
         77     IA    31,   40,  170
        116     IB   142
        136     IC   125
        162     ID   106
        200     IE   123
        206     IG   135,  161,  300
        212     IH   275
        230     II   247
        243     IJ   237
        272     IK   220
        275     IL   317
        310     IM   235
        320     IO   241
        330     IP   323,  325
        337     IQ   327
        342     IR   242,  262
        350     IS   210,  341,  343
        374     IT   364
       1375     JK   566,  710
       1016     L4   517,  641
       1017     L8   234
       1376     L9   564
       1010     NM   455,  743,  744
        461     TB   620
        510     TD   535
        515     TE   527
        523     TF   520
        530     TG   526,  603
        545     TH   522
        612     TI   757
        624     TJ   607
        632     TK   632,  737
        632     TL   657
        637     TM   651
        645     TN   642
        652     TO   650,  725
        667     TP   644
        722     TR   715,  717
        726     TS   721
        733     TT   770
        742     TU   631,  730,  735
        746     TV   453
        752     TW   553,  567
        760     TX   565
        763     TY   675,  711
        771     TZ   707
1       INITIATE AND TERMINATE DUMP TAPE FILE READS.....M.J.BAILEY..1/31/65      05/11/69 2002.3 PAGE 2
                        POST PROCESSOR ASSEMBLY DATA

       1554     UF  3205
        401     X1    22,  437,  750
        400     X2    23,  440,  747
        377     X3    24,   76,  441,  746
        376     X4    25,   75,  442,  452,  745
      74420    AUN   430,  502,  512,  516,  531, 3205
      74417    BUN    34,   47,   65,   72,  433,  505,  634,  640,  653, 3205
        100    IAA   165
       1410    IB1   112,  557
       2325    IB2   224,  701
        165    IDA   205
       1015    LIB   112,  224,  557,  701
       1247    MRA   513, 1257
       1260    MRB   635, 1270
        774    PBF
        454    TB1   451
        600    THA   573,  575
        604    THB   577
        621    TJA   614
        755    TWA   762
        435    TX4   403
        766    TYA   773
      77777    UFL  3205
       1133    UMA   431, 1141
       1142    UMB   434, 1151
       2270    WBF   122,  131,  234,  321,  322,  345,  346,  353,  355,  357,  363
       1271    WRA   532, 1305
       1306    WRB   654, 1322
        145   BACK   156
         17   BASE  3205
      74422   BFNA   214,  222,  231,  315,  334,  420,  424,  472,  476,  671,  677,  703,  723, 3205
      74421   BFNB   215,  223,  232,  316,  335,  421,  425,  473,  477,  672,  700,  704,  724, 3205
         63   CONT    53
        452   EOTF   447
       1377   IDBF   564,  571,  604,  621,  706,  713,  726
       1132   LBT2    73
      74440   LFNA   102,  110,  117,  203,  331,  410,  414,  462,  466,  547,  555,  561,  601, 3205
      74437   LFNB   103,  111,  120,  204,  332,  411,  415,  463,  467,  550,  556,  562,  602, 3205
       1257   LMRA   513
       1270   LMRB   635
       1141   LUMA   431
       1151   LUMB   434
       1305   LWRA   532
       1322   LWRB   654
       1103   LWT2    50
       1020   MESA   144,  251,  253,  255
       1030   MESB   163,  273
       1035   MESC    52,  146,  167,  261,  277,  534,  656
       1043   MESD    54,  150,  171,  263,  301,  536,  615,  660,  740
       1051   MESE    56,  152,  173,  265,  303,  540,  662
       1057   MESF   201,  311,  313
       1152   MESG   340
       1163   MESH   351
       1172   MESI   356,  360,  362
       1203   MESJ   366,  367,  371
1       INITIATE AND TERMINATE DUMP TAPE FILE READS.....M.J.BAILEY..1/31/65      05/11/69 2002.3 PAGE 3
                        POST PROCESSOR ASSEMBLY DATA

       1213   MESK   373
       1220   MESL   406
       1323   MESM   446
       1333   MESN   450
       1343   MESP   756,  767
       1354   MESQ   613,  734
       1365   MESR   617,  736
         10   OPEN   100,  212,  545,  667
         60   REST    57
       1104   RMT2    66, 1113
      74416   TEOF   124,  236, 3205
        627   TJAX   623
       1227   UMRA   503, 1236
       1237   UMRB   506, 1246
         75  ABEXT   537,  616
        166  BACK1   177
        260  BACK2   271
        276  BACK3   307
        533  BACK5   544
        655  BACK6   666
       1114  BADT2    73, 1132
         14  CLOSE   202,  314,  330,  333,  413,  423,  465,  475,  600,  722
        157  CONT1   147
          5  FWAIT   407,  417,  461,  471
       1012  IDERR   127,  160,  240,  256,  342
          1  IOBDT   365
       3205  ..001   444
       3213  ..002   611
       3221  ..003   732
       3231  ..004   754
       3240  ..005   761
       3247  ..006   765
       3256  ..007   772
      74412  LABEL    35,  517,  641, 3205
       1113  LRMT2    66
       1236  LUMRA   503
       1246  LUMRB   506
         12  MOUNT    63,  510,  632
          2  PAUSE    57,  153,  174,  266,  304,  541,  663, 3205
      74423  PREAM  3205
        154  REST1   153
        175  REST2   174
        267  REST3   266
        305  REST4   304
        542  REST5   541
        664  REST6   663
         11  SLEEP    61,  155,  176,  270,  306,  543,  665
         15  WRFLX   143,  162,  200,  254,  272,  312,  337,  350,  352,  361,  370,  372,  405,  443,  610,  731,  753
                     755,  760,  764,  766,  771
          5 ABANKY  3205
      74444 ABANTP  3205
         17 ASKOPR    51,  145,  166,  260,  276,  445,  533,  612,  655,  733
          2 ATTACH   456,  742
          3 ATTNAM   454
          7 BUFFER   107,  221,  554,  676
1       INITIATE AND TERMINATE DUMP TAPE FILE READS.....M.J.BAILEY..1/31/65      05/11/69 2002.3 PAGE 4
                        POST PROCESSOR ASSEMBLY DATA

         33 CHCKBA    45,   67,   70
         41 CHCKBB    36
         51 CHCKBC    62,   74
         70 CHCKBD    44
          3 CHLDFL    55,  151,  172,  264,  302,  537,  616,  661,  741, 3205
         10 CHREEL   620,  737, 3205
      77462 COMRLC  3205
          1 CTINUE    53,  147,  170,  262,  300,  451,  535,  614,  657,  735, 3205
      74446 DEMKEY  3205
       1014 ERCODE    37,   42,  521,  524,  643,  646
          0 GETLSG    26,  126,  354,  404
         22 INITTF     0
      74445 KEYVAL  3205
          7 LSREEL   447, 3205
      77777 NEWCOM  3205
      74443 NOCHAN    27,  206,  627, 3205
      77461 OLDCOM  3205
         16 PRNTER    41,  136,  164,  243,  274,  523,  645,  752,  763
         75 QUITFL    55,   75,  151,  172,  257,  264,  302,  661,  741
          4 RDWAIT   116,  230,  560,  702
        660 RECSIZ   115,  227,  374, 1015, 1410
          4 STOPLD  3205
          6 SWCHAN  3205
       2314 TAPEID   132,  134,  572,  606,  622,  624,  626,  714,  727
        403 TERMTF     0
        437 TSTEOF     0
         13 UMOUNT    46,   71,  427,  432,  501,  504,  530,  652
          6 VERIFY    33,  515,  637
       1067 WRNGT2    50, 1103
         46 WRONGB   336

0 NO ERROR IN ABOVE ASSEMBLY.
1            READ NEXT ENTRY FROM DISK U.F.D. FILE....M.J.BAILEY,2/5/65          05/11/69 2002.5 PAGE 1

                              *        (TIME-SHARING VERSION)
                              *
                       00003         ENTRY   GETLSG        GET LOADER SIGNALS FROM KEYS VIA CORE A
                              *
                              *
                              * - - - - - - - - - - - - - - - - - - - - - - - - - - - - - - -
                              *      GET KEY SETTINGS VIA CORE A, POSSIBLY SET LOADER SWITCHES
                              * - - - - - - - - - - - - - - - - - - - - - - - - - - - - - - -
                              *

        TRANSFER VECTOR
      00000  272563216060     GETA

            LINKAGE DIRECTOR
      00001  000000000000
      00002  272563436227

      00003  0634 00 1 00030  GETLSG SXA     GGX,1
      00004  0074 00 7 00000         TSX     $GETA,7
      00005  0560 00 0 74446         LDQ     DEMKEY
      00006 -0600 00 0 74445         STQ     KEYVAL
      00007  0074 00 7 00000         TSX     $GETA,7
      00010  0600 00 0 74446         STZ     DEMKEY
      00011  0774 00 1 00005         AXT     ABANKY,1
      00012  0754 00 1 00000         PXA     0,1
      00013  0402 00 0 74445         SUB     KEYVAL
      00014 -0100 00 0 00017         TNZ     GGA
      00015 -0625 00 0 74444         STL     ABANTP
      00016  0020 00 0 00030         TRA     GGX
      00017  0774 00 1 00006  GGA    AXT     SWCHAN,1
      00020  0754 00 1 00000         PXA     0,1
      00021  0402 00 0 74445         SUB     KEYVAL
      00022 -0100 00 0 00030         TNZ     GGX
      00023  0534 00 1 74443         LXA     NOCHAN,1
      00024  1 00001 1 00025         TXI     *+1,1,1
      00025 -3 00002 1 00027         TXL     GGB,1,2
      00026  0774 00 1 00001         AXT     1,1
      00027  0634 00 1 74443  GGB    SXA     NOCHAN,1
      00030  0774 00 1 00000  GGX    AXT     **,1
      00031  0020 00 4 00001         TRA     1,4
                              *
                                     INSERT  BCMEQB
                              *
                              *  -  -  -  -  -  -  -  -  -  -  -  -  -  -  -  -  -  -
                              *      COMMON AND EQUIVALENCE FOR SECONDARY STORAGE LOAD
                              *         (TIME-SHARING VERSION)
                              *  -  -  -  -  -  -  -  -  -  -  -  -  -  -  -  -  -  -
                              *
                      074446  DEMKEY BOOL    74446         CORE A LOCATION FOR DAEMON KEY SETTING
                              *
                      000017  BASE   BOOL    17            KEY CODE BASE
                      000001  CTINUE BOOL    1             KEY CODE TO CONTINUE WITH PROGRAM,NO CHANGE
                      000002  PAUSE  BOOL    2             KEY CODE TO WAIT 60 SECS.
                      000003  CHLDFL BOOL    3             KEY CODE TO USE DIFFERENT LOAD FILE
                      000004  STOPLD BOOL    4             KEY CODE TO STOP LOADING, START DUMPING
                      000005  ABANKY BOOL    5             KEY CODE TO ABANDON LOAD TAPE FILE
1            READ NEXT ENTRY FROM DISK U.F.D. FILE....M.J.BAILEY,2/5/65          05/11/69 2002.5 PAGE 2

                      000006  SWCHAN BOOL    6             KEY CODE TO GO FROM 1 OR 2 TO 2 OR 1 CHANS.
                      000007  LSREEL BOOL    7             KEY CODE TO INDICATE LAST REEL OF LOAD FILE
                      000010  CHREEL BOOL    10            KEY CODE TO CORRECT REEL ORDER ERROR
                       77777  NEWCOM EQU     -1            TOP OF MEMORY
                      077461  OLDCOM BOOL    77461         OLD TOP OF COMMON
                       77462  COMRLC EQU     OLDCOM-NEWCOM RELOCATION FACTOR
                       77777         COMMON  COMRLC        RELOCATE COMMON
                       01554  UF     EQU     32767/2-DEMKEY/2 LENGTH OF USER LIST
                       77777  UFL    COMMON  2*UF          USER FILE LIST  (1ST PARTS OF FILE NAMES)
                       74446         COMMON  1             INSERT DUMMY IF NECESSARY
                       74445         COMMON  1             DEMKEY CELL IN NON-CTSS VERSION
                       74445  KEYVAL COMMON  1
                       74444  ABANTP COMMON  1             ABANDON TAPE FILE INDICATOR
                       74443  NOCHAN COMMON  1             NO. OF CHANNELS BEING READ (1 OR 2)
                       74442  DU     COMMON  1             PROBLEM NO. OF DUMP/LOAD PACKAGE
                       74441  DP     COMMON  1             PROGRAMMER NO. OF DITTO.
                       74440  LFNA   COMMON  1             LOAD TAPE FILE NAME (PART 1)
                       74437  LFNB   COMMON  1              ,,   ,,   ,,   ,,  (PART 2)
                       74423         COMMON  11            DUMPED FILE'S PREAMBLE FROM DUMP TAPE
                       74423  PREAM  COMMON  1             DUMPED FILE'S DUMP TAPE PREAMBLE 1ST WORD
                       74422  BFNA   COMMON  1             CHANNEL B LOAD TAPE FILE NAME (PART 1)
                       74421  BFNB   COMMON  1             CHANNEL B LOAD TAPE FILE NAME (PART 2)
                       74420  AUN    COMMON  1             CHANNEL A UNIT NO.
                       74417  BUN    COMMON  1             CHANNEL B UNIT NO.
                       74416  TEOF   COMMON  1             TAPE EOF INDICATOR/WORD COUNT
                       74412         COMMON  3             LABEL OF TAPE FILE CURRENTLY BEING LOADED
                       74412  LABEL  COMMON  1             LABEL OF TAPE FILE DITTO.   1ST WORD
                       74411  X      COMMON  1             TAPE FILE POINTER
                                     END
1            READ NEXT ENTRY FROM DISK U.F.D. FILE....M.J.BAILEY,2/5/65          05/11/69 2002.5 PAGE 1
                        POST PROCESSOR ASSEMBLY DATA

       74410 IS THE LAST LOCATION NOT USED BY THIS PROGRAM
         32 IS THE FIRST LOCATION NOT USED BY THIS PROGRAM

0REFERENCES TO DEFINED SYMBOLS
      74411      X    32
      74441     DP    32
      74442     DU    32
       1554     UF    32
      74420    AUN    32
      74417    BUN    32
         17    GGA    14
         27    GGB    25
         30    GGX     3,   16,   22
      77777    UFL    32
         17   BASE    32
      74422   BFNA    32
      74421   BFNB    32
          0   GETA     4,    7
      74440   LFNA    32
      74437   LFNB    32
      74416   TEOF    32
      74412  LABEL    32
          2  PAUSE    32
      74423  PREAM    32
          5 ABANKY    11,   32
      74444 ABANTP    15,   32
          3 CHLDFL    32
         10 CHREEL    32
      77462 COMRLC    32
          1 CTINUE    32
      74446 DEMKEY     5,   10,   32
          3 GETLSG     0
      74445 KEYVAL     6,   13,   21,   32
          7 LSREEL    32
      77777 NEWCOM    32
      74443 NOCHAN    23,   27,   32
      77461 OLDCOM    32
          4 STOPLD    32
          6 SWCHAN    17,   32

0 NO ERROR IN ABOVE ASSEMBLY.
1       SUBROUTINE TO TALK TO OPERATOR AND CONVERSE UNTIL WE GET AN ANSWER       05/11/69 2004.7 PAGE 1

                              *
                              *
                       00006         ENTRY   ASKOPR
                              *
                              *

        TRANSFER VECTOR
      00000  272563216060     GETA
      00001  475123462425     PRCODE
      00002  624325254760     SLEEP
      00003  272563436227     GETLSG

            LINKAGE DIRECTOR
      00004  000000000000
      00005  216242464751

      00006  0634 00 1 00064  ASKOPR SXA     ASK1,1
      00007  0634 00 2 00065         SXA     ASK2,2
      00010  0634 00 3 00066         SXA     ASK3,3
      00011  0634 00 4 00067         SXA     ASK4,4
      00012  0634 00 7 00070         SXA     ASK7,7
      00013  0074 00 7 00000         TSX     $GETA,7
      00014  0600 00 0 74446         STZ     DEMKEY
      00015  0754 00 4 00000         PXA     ,4
      00016  0734 00 2 00000         PAX     ,2
      00017  0774 00 1 00000         AXT     0,1
      00020 -0500 00 2 00001  MORMES CAL     1,2
      00021  0602 00 0 00031         SLW     MESS+1
      00022  0074 00 4 00100         TSX     CKOP,4
 TD   00023  3 00000 0 00034         TXH     SNOOZE
      00024 -0500 00 2 00002         CAL     2,2
      00025 -0734 00 3 00000         PDX     ,3
      00026  0634 00 3 00030         SXA     MESS,3
      00027  0074 00 4 00001         TSX     $PRCODE,4
      00030  3 00000 0 00000  MESS   PTH     **
      00031  3 00000 0 00000         PTH     **,,**
      00032  1 00002 1 00033         TXI     *+1,1,2
      00033  1 77776 2 00020         TXI     MORMES,2,-2
      00034 -3 00000 1 00072  SNOOZE TXL     ABORT,1,0
      00035 -0500 00 0 00105         CAL     =15
      00036  0074 00 4 00002         TSX     $SLEEP,4
      00037 -0634 00 1 00040         SXD     *+1,1
      00040  1 00000 2 00041         TXI     *+1,2,**
      00041  0074 00 4 00003         TSX     $GETLSG,4
      00042  0774 00 1 00000         AXT     0,1
      00043 -0500 00 2 00001  NOMTCH CAL     1,2
      00044  0074 00 4 00100         TSX     CKOP,4
      00045  3 00000 0 00061         PTH     REPTMS
      00046 -0500 00 2 00002         CAL     2,2
      00047  0621 00 0 00071         STA     TRAFER
      00050 -0734 00 3 00000         PDX     ,3
      00051  0074 00 4 00100         TSX     CKOP,4
 TD   00052  3 00000 0 00061         TXH     REPTMS
      00053 -0754 00 0 00000         ZAC
      00054  0754 00 3 00000         PXA     ,3
      00055  0402 00 0 74445         SUB     KEYVAL
1       SUBROUTINE TO TALK TO OPERATOR AND CONVERSE UNTIL WE GET AN ANSWER       05/11/69 2004.7 PAGE 2

      00056  0100 00 0 00064         TZE     FOUND
      00057  1 00002 1 00060         TXI     *+1,1,2
      00060  1 77776 2 00043         TXI     NOMTCH,2,-2
      00061 -3 00000 1 00072  REPTMS TXL     ABORT,1,0
      00062 -0634 00 1 00063         SXD     *+1,1
      00063  1 00000 2 00017         TXI     MORMES-1,2,**
                              *
                       00064  FOUND  EQU     *
      00064  0774 00 1 00000  ASK1   AXT     **,1
      00065  0774 00 2 00000  ASK2   AXT     **,2
      00066  0774 00 3 00000  ASK3   AXT     **,3
      00067  0774 00 4 00000  ASK4   AXT     **,4
      00070  0774 00 7 00000  ASK7   AXT     **,7
      00071  0020 00 0 00000  TRAFER TRA     **
                              *
                              *
      00072  0534 00 4 00067  ABORT  LXA     ASK4,4
      00073  0534 00 3 00066         LXA     ASK3,3
      00074  0534 00 2 00065         LXA     ASK2,2
      00075  0534 00 1 00064         LXA     ASK1,1
      00076  0534 00 7 00070         LXA     ASK7,7
      00077  0020 00 4 00001         TRA     1,4
                              *
      00100 -0320 00 0 00107  CKOP   ANA     =O700000000000
      00101 -0340 00 0 00106         LAS     =O300000000000
      00102  0020 60 4 00001         TRA*    1,4
      00103  0020 00 4 00002         TRA     2,4
      00104  0020 60 4 00001         TRA*    1,4
                              *
                                     INSERT  BCMEQB
                              *
                              *  -  -  -  -  -  -  -  -  -  -  -  -  -  -  -  -  -  -
                              *      COMMON AND EQUIVALENCE FOR SECONDARY STORAGE LOAD
                              *         (TIME-SHARING VERSION)
                              *  -  -  -  -  -  -  -  -  -  -  -  -  -  -  -  -  -  -
                              *
                      074446  DEMKEY BOOL    74446         CORE A LOCATION FOR DAEMON KEY SETTING
                              *
                      000017  BASE   BOOL    17            KEY CODE BASE
                      000001  CTINUE BOOL    1             KEY CODE TO CONTINUE WITH PROGRAM,NO CHANGE
                      000002  PAUSE  BOOL    2             KEY CODE TO WAIT 60 SECS.
                      000003  CHLDFL BOOL    3             KEY CODE TO USE DIFFERENT LOAD FILE
                      000004  STOPLD BOOL    4             KEY CODE TO STOP LOADING, START DUMPING
                      000005  ABANKY BOOL    5             KEY CODE TO ABANDON LOAD TAPE FILE
                      000006  SWCHAN BOOL    6             KEY CODE TO GO FROM 1 OR 2 TO 2 OR 1 CHANS.
                      000007  LSREEL BOOL    7             KEY CODE TO INDICATE LAST REEL OF LOAD FILE
                      000010  CHREEL BOOL    10            KEY CODE TO CORRECT REEL ORDER ERROR
                       77777  NEWCOM EQU     -1            TOP OF MEMORY
                      077461  OLDCOM BOOL    77461         OLD TOP OF COMMON
                       77462  COMRLC EQU     OLDCOM-NEWCOM RELOCATION FACTOR
                       77777         COMMON  COMRLC        RELOCATE COMMON
                       01554  UF     EQU     32767/2-DEMKEY/2 LENGTH OF USER LIST
                       77777  UFL    COMMON  2*UF          USER FILE LIST  (1ST PARTS OF FILE NAMES)
                       74446         COMMON  1             INSERT DUMMY IF NECESSARY
                       74445         COMMON  1             DEMKEY CELL IN NON-CTSS VERSION
                       74445  KEYVAL COMMON  1
1       SUBROUTINE TO TALK TO OPERATOR AND CONVERSE UNTIL WE GET AN ANSWER       05/11/69 2004.7 PAGE 3

                       74444  ABANTP COMMON  1             ABANDON TAPE FILE INDICATOR
                       74443  NOCHAN COMMON  1             NO. OF CHANNELS BEING READ (1 OR 2)
                       74442  DU     COMMON  1             PROBLEM NO. OF DUMP/LOAD PACKAGE
                       74441  DP     COMMON  1             PROGRAMMER NO. OF DITTO.
                       74440  LFNA   COMMON  1             LOAD TAPE FILE NAME (PART 1)
                       74437  LFNB   COMMON  1              ,,   ,,   ,,   ,,  (PART 2)
                       74423         COMMON  11            DUMPED FILE'S PREAMBLE FROM DUMP TAPE
                       74423  PREAM  COMMON  1             DUMPED FILE'S DUMP TAPE PREAMBLE 1ST WORD
                       74422  BFNA   COMMON  1             CHANNEL B LOAD TAPE FILE NAME (PART 1)
                       74421  BFNB   COMMON  1             CHANNEL B LOAD TAPE FILE NAME (PART 2)
                       74420  AUN    COMMON  1             CHANNEL A UNIT NO.
                       74417  BUN    COMMON  1             CHANNEL B UNIT NO.
                       74416  TEOF   COMMON  1             TAPE EOF INDICATOR/WORD COUNT
                       74412         COMMON  3             LABEL OF TAPE FILE CURRENTLY BEING LOADED
                       74412  LABEL  COMMON  1             LABEL OF TAPE FILE DITTO.   1ST WORD
                       74411  X      COMMON  1             TAPE FILE POINTER
                                     END

        LITERALS
      00105  000000000017
      00106  300000000000
      00107  700000000000
1       SUBROUTINE TO TALK TO OPERATOR AND CONVERSE UNTIL WE GET AN ANSWER       05/11/69 2004.7 PAGE 1
                        POST PROCESSOR ASSEMBLY DATA

       74410 IS THE LAST LOCATION NOT USED BY THIS PROGRAM
        110 IS THE FIRST LOCATION NOT USED BY THIS PROGRAM

0REFERENCES TO DEFINED SYMBOLS
      74411      X   105
      74441     DP   105
      74442     DU   105
       1554     UF   105
      74420    AUN   105
      74417    BUN   105
      77777    UFL   105
         64   ASK1     6,   75
         65   ASK2     7,   74
         66   ASK3    10,   73
         67   ASK4    11,   72
         70   ASK7    12,   76
         17   BASE   105
      74422   BFNA   105
      74421   BFNB   105
        100   CKOP    22,   44,   51
          0   GETA    13
      74440   LFNA   105
      74437   LFNB   105
         30   MESS    21,   26
      74416   TEOF   105
         72  ABORT    34,   61
         64  FOUND    56,   64
      74412  LABEL   105
          2  PAUSE   105
      74423  PREAM   105
          2  SLEEP    36
          5 ABANKY   105
      74444 ABANTP   105
          6 ASKOPR     0
          3 CHLDFL   105
         10 CHREEL   105
      77462 COMRLC   105
          1 CTINUE   105
      74446 DEMKEY    14,  105
          3 GETLSG    41
      74445 KEYVAL    55,  105
          7 LSREEL   105
         20 MORMES    33,   63
      77777 NEWCOM   105
      74443 NOCHAN   105
         43 NOMTCH    60
      77461 OLDCOM   105
          1 PRCODE    27
         61 REPTMS    45,   52
         34 SNOOZE    23
          4 STOPLD   105
          6 SWCHAN   105
         71 TRAFER    47
1       SUBROUTINE TO TALK TO OPERATOR AND CONVERSE UNTIL WE GET AN ANSWER       05/11/69 2004.7 PAGE 2
                        POST PROCESSOR ASSEMBLY DATA

0 NO ERROR IN ABOVE ASSEMBLY.
